01                DT07212025071230000001MERCHANT001    1250751234567890123456SALE    VISA      CHIP      00****1234        AUTH001   BATCH001  Test Store 1          
02                DT07202025071230000002MERCHANT002    3400502345678901234567REFUND  MC        CONTACT   00****5678        AUTH002   BATCH002  Coffee Shop Demo      
03                DT07192025071230000003MERCHANT003    750252456789012345678 SALE    AMEX      SWIPE     00****9012        AUTH003   BATCH003  Quick Mart            
04                DT07182025071230000004MERCHANT004    199991567890123456789 SALE    VISA      CHIP      00****3456        AUTH004   BATCH004  Electronics Store     
05                DT07172025071230000005MERCHANT005    5000012678901234567890SALE    MC        CONTACTLESSS00****7890        AUTH005   BATCH005  Gas Station           