00003140533010002BH6759067590000001857280010580000090170522202314223000000000016069    0000090001740002N8001056759C05222023                                                                                                                                                                                                                                                                                                                                                                                                                                                                                                                                                                                                 
00003150533010003DT67590675900000018572800105800000010180010573011003142900017400035052120230000000452814223000000000016069379777XXXXX1003                          NY 1 0 N007903741989063N840000000004528          05DNGALLERY SMOKE SHOP LLC   844159    AM84000000004528 N  599977453598                            000000000+51010155434C 258     11261                     000000000                   0000000000000.00 0000000.00   0000000.00                             000000000000000 61248972086759675900000018572 GALLERY SMOKE SHOP LLC   9107 PARK BLVD           7724522461      33775     INFO@GALLERYSMOKESHOP.COM                 01424  000000000000 0000000000000.82     01600 00000                  
00003160533010004DT67590675900000018572800105800000033080010576759003142900017400018052120230000000576514223000000000016069435142XXXXXX8034                         NY 2 0 N               N840000000005765      IL  05DNGALLERY SMOKE SHOP LLC   001372    DB84000000005765 N  599977453598                            000000000+                     09580                                Y          342   0000000000000.00 0000000.00   0000000.00                             000000000000000                                                                                                                                                     01424  000000000000 0000000000000.25     00050 00000                  
00003170533010005DT67590675900000018572800105800000033080010576759003142900017400026052120230000000577614223000000000016069473702XXXXXX4572                         NY 2 0 N               N840000000005776      IL  05DNGALLERY SMOKE SHOP LLC   089544    DB84000000005776 N  599977453598                            000000000+                     09580                                Y          342   0000000000000.00 0000000.00   0000000.00                             000000000000000                                                                                                                                                     01424  000000000000 0000000000000.25     00050 00000                  
00003180533010006BH6759067590000001165080088880000090170522202314223000000000046048    0000090001010013N8008886759C05222023                                                                                                                                                                                                                                                                                                                                                                                                                                                                                                                                                                                                 
00003190533010007DT67590675900000011650800888800000010180088824001193142900010100016052020230000000283014223000000000046048474476XXXXXX1275       VS11    0001111   NYV1 A E303141143289353N84000000000283094T900    07DNVPODS HOLDING INC        195987    VD84000000002830 N  599977032122                            000000000+                F DF 10433                     000000000  Y000000000 338   0000000000000.00 0000000.00   0000000.00                             000000000000000                                                                                                                                                     01424 A000000000000 0000000000000.23     00050 02200                  
00003200533010008DT67590675900000011650800888800000010180088824001193142900010100024052020230000000226414223000000000046048483313XXXXXX2389       VS11    0001111   NYV1 A E583141163808633N840000000002264FPCG00    07DNVPODS HOLDING INC        013300    VD84000000002264 N  599977032122                            000000000+                F DF 10433                     000000000  Y000000000 338   0000000000000.00 0000000.00   0000000.00                             000000000000000                                                                                                                                                     01424 A000000000000 0000000000000.23     00050 02200                  
00003210533010009DT67590675900000011650800888800000010180088824001193142900010100032052020230000000305714223000000000046048411398XXXXXX1340       VS11    0001111   NYV1 A E383141178262623N840000000003057DM8V00    07DNVPODS HOLDING INC        08981B    VS84000000003057 N  599977032122                            000000000+                B CB 12111                     000000000  N000000000 495   0000000000000.00 0000000.00   0000000.00                             000000000000000                                                                                                                                                     01424 A000000000000 0000000000000.60     01650 01000                  
00003220533010010DT67590675900000011650800888800000010180088873011003142900010100046052120230000000226414223000000000046048371696XXXXX1004                          NY 1 0 N007899215555069N840000000002264          07DNVPODS HOLDINGS INC       865069    AM84000000002264 N  599977032122                            000000000+51010X50034C 258     11261                     000000000                   0000000000000.00 0000000.00   0000000.00                             000000000000000 61248972086759675900000011650 VPODS HOLDINGS INC       2527 N LINCOLN AVE       7732092463      60614     SMOKEDREAMS2@ICLOUD.COM                   01424  000000000000 0000000000000.46     01600 00000                  
00003230533010011DT67590675900000011650800888800000010180088877287283142900010100059052120230000000339614223000000000046048527520XXXXXX8438       MS02WI09          NY 1 0 AMDJBYQ19Y0521  N840000000003396          07DNVPODS HOLDING INC        105507    MD84000000003396 N  599977032122                            000000000+M10101M0034C    MDJ  10815                     000000000  1                0000000000000.00 0000000.00   0000000.00                             000000000000000                                                                                                                                                   B101424  000000000000 0000000000000.24     00050 02200                  
00003240533010012DT67590675900000011650800888800000010180088824001193142900010100065052120230000001188914223000000000046048420767XXXXXX2070       VS11    0001111   NYV1 A E583141733127075N840000000011889JSR400    05DNVPODS HOLDING INC        022116    VD84000000011889 N  599977032122                            000000000+                F DF 10433                     000000000  Y000000000 338   0000000000000.00 0000000.00   0000000.00                             000000000000000                                                                                                                                                     01424 A000000000000 0000000000000.28     00050 02200                  
00003250533010013DT67590675900000011650800888800000010180088824001193142900010100073052120230000000257414223000000000046048434236XXXXXX5240       VS11    0001111   NYV1 A E383141734139877N840000000002574K3LB00    07DNVPODS HOLDING INC        013912    VD84000000002574 N  599977032122                            000000000+                F DF 00381                     000000000  N000000000       0000000000000.00 0000000.00   0000000.00                             000000000000000                                                                                                                                                     01424 A000000000000 0000000000000.36     00800 01500                  
00003260533010014DT67590675900000011650800888800000010180088877287283142900010100083052120230000000452914223000000000046048515665XXXXXX6833       MS02WI09          NY 1 0 AMPLNM23I10521  N840000000004529          05DNVPODS HOLDING INC        02628B    MC84000000004529 N  599977032122                            000000000+M10101C5434C    MPL  00353                     000000000  N                0000000000000.00 0000000.00   0000000.00                             000000000000000                                                                                                                                                   B101424  000000000000 0000000000000.92     01800 01000                  
00003270533010015DT67590675900000011650800888800000010180088824001193142900010100099052120230000000283014223000000000046048465098XXXXXX8973       VS11    0001111   NYV1 A E583141767926024N840000000002830HCZB00    07DNVPODS HOLDING INC        041967    VD84000000002830 N  599977032122                            000000000+                F DF 10433                     000000000  Y000000000 338   0000000000000.00 0000000.00   0000000.00                             000000000000000                                                                                                                                                     01424 A000000000000 0000000000000.23     00050 02200                  
00003280533010016DT67590675900000011650800888800000010180088824001193142900010100107052120230000000283014223000000000046048443045XXXXXX5060       VS11    0001111   NYV1 A E303141778955195N840000000002830SRT700    05DNVPODS HOLDING INC        176174    VD84000000002830 N  599977032122                            000000000+                F DF 10433                     000000000  Y000000000 338   0000000000000.00 0000000.00   0000000.00                             000000000000000                                                                                                                                                     01424 A000000000000 0000000000000.23     00050 02200                  
00003290533010017DT67590675900000011650800888800000010180088824001193142900010100115052120230000000305714223000000000046048483313XXXXXX8902       VS11    0001111   NYV1 A E303141791111286N840000000003057GR5900    07DNVPODS HOLDING INC        015817    VD84000000003057 N  599977032122                            000000000+                F DF 10433                     000000000  Y000000000 338   0000000000000.00 0000000.00   0000000.00                             000000000000000                                                                                                                                                     01424 A000000000000 0000000000000.24     00050 02200                  
00003300533010018DT67590675900000011650800888800000010180088824001193142900010100123052120230000000169814223000000000046048419002XXXXXX9838       VS11    0001111   NYV1 A E463141822272982N84000000000169896SF00    07DNVPODS HOLDING INC        001192    VD84000000001698 N  599977032122                            000000000+                F DF 10433                     000000000  Y000000000 338   0000000000000.00 0000000.00   0000000.00                             000000000000000                                                                                                                                                     01424 A000000000000 0000000000000.23     00050 02200                  
00003310533010019DT67590675900000011650800888800000010180088877287283142900010100133052120230000000283014223000000000046048521105XXXXXX4001       MS02WI09          NY 1 0 AMDJQUH8KQ0521  N840000000002830          07DNVPODS HOLDING INC        005514    MD84000000002830 N  599977032122                            000000000+M10101M0034C    MDJ  10815                     000000000  1                0000000000000.00 0000000.00   0000000.00                             000000000000000                                                                                                                                                   B101424  000000000000 0000000000000.23     00050 02200                  
00003320533010020BH6759067590000003284780013580000090170522202314223000000000038632    0000090001050020N8001356759C05222023                                                                                                                                                                                                                                                                                                                                                                                                                                                                                                                                                                                                 
00003330533010021DT67590675900000032847800135800000010180013577287283142900010500100052120230000000183914223000000000038632517805XXXXXX1423       MS02WI09          NY 1 0 AMPLMVBKRA0521  N840000000001839          05DNDAYDREAMS SMOKE WORLD LLC05745B    MC84000000001839 N  599378415303                            000000000+M10101C5434C    MPL  00353                     000000000  N                0000000000000.00 0000000.00   0000000.00                             000000000000000                                                                                                                                                   B101424  000000000000 0000000000000.43     01800 01000                  
00003340533010022DT67590675900000032847800135800000010180013524001193142900010500124052120230000000021414223000000000038632421783XXXXXX9572       VK04VS111111111   NYV1 A E383142015656155N840000000000214CNN700    05DNDAYDREAMS SMOKE WORLD LLC006548    VS84000000000214 N  599378415303                            000000000+                A CA 12110                     000000000  N000000000 493   0000000000000.00 0000000.00   0000000.00                             000000000000000                                                                                                                                                     01424 F000000000000 0000000000000.13     01510 01000                  
00003350533010023DT67590675900000032847800135800000010180013524001193142900010500157052120230000000108114223000000000038632467010XXXXXX3032       VK04VS111111111   NYV1 A E583142054415205N8400000000010819VGG00    05DNDAYDREAMS SMOKE WORLD LLC978135    VD84000000001081 N  599378415303                            000000000+                F DF 10439                     000000000  Y000000000 331   0000000000000.00 0000000.00   0000000.00                             000000000000000                                                                                                                                                     01424 F000000000000 0000000000000.23     00050 02200                  
00003360533010024DT67590675900000032847800135800000033080013576759003142900010500012052120230000000216314223000000000038632435544XXXXXX8463                         NY 2 0 N               N840000000002163      IL  05DNDAYDREAMS SMOKE WORLD LLC020071    DB84000000002163 N  599378415303                            000000000+                     09580                                Y          342   0000000000000.00 0000000.00   0000000.00                             000000000000000                                                                                                                                                     01424  000000000000 0000000000000.23     00050 00000                  
00003370533010025DT67590675900000032847800135800000033080013576759003142900010500020052120230000000129614223000000000038632434258XXXXXX0600                         NY 2 0 N               N840000000001296      IL  05DNDAYDREAMS SMOKE WORLD LLC093461    DB84000000001296 N  599378415303                            000000000+                     09580                                Y          342   0000000000000.00 0000000.00   0000000.00                             000000000000000                                                                                                                                                     01424  000000000000 0000000000000.23     00050 00000                  
00003380533010026DT67590675900000032847800135800000033080013576759003142900010500038052120230000000054014223000000000038632544544XXXXXX0826                         NY42 0 N               N840000000000540      ME  90DNDAYDREAMS SMOKE WORLD LLC257460    DB84000000000540 N  599378415303                            000000000+                     09597                                N                0000000000000.00 0000000.00   0000000.00                             000000000000000                                                                                                                                                     01424  000000000000 0000000000000.20     00900 00000                  
00003390533010027DT67590675900000032847800135800000033080013576759003142900010500046052120230000000074514223000000000038632461046XXXXXX4810                         NY 2 0 N               N840000000000745      IL  07DNDAYDREAMS SMOKE WORLD LLC023113    DB84000000000745 N  599378415303                            000000000+                     09580                                Y          342   0000000000000.00 0000000.00   0000000.00                             000000000000000                                                                                                                                                     01424  000000000000 0000000000000.22     00050 00000                  
00003400533010028DT67590675900000032847800135800000033080013576759003142900010500053052120230000000259914223000000000038632440393XXXXXX6145                         NY 2 0 N               N840000000002599      IL  05DNDAYDREAMS SMOKE WORLD LLC435334    DB84000000002599 N  599378415303                            000000000+                     09576                                N          346   0000000000000.00 0000000.00   0000000.00                             000000000000000                                                                                                                                                     01424  000000000000 0000000000000.45     01150 00000                  
00003410533010029DT67590675900000032847800135800000033080013576759003142900010500061052120230000000084614223000000000038632492125XXXXXX1167                         NY 2 0 N               N840000000000846      IL  07DNDAYDREAMS SMOKE WORLD LLC027374    DB84000000000846 N  599378415303                            000000000+                     09580                                Y          342   0000000000000.00 0000000.00   0000000.00                             000000000000000                                                                                                                                                     01424  000000000000 0000000000000.22     00050 00000                  
00003420533010030DT67590675900000032847800135800000033080013576759003142900010500079052120230000000183914223000000000038632411600XXXXXX3826                         NY 2 0 N               N840000000001839      IL  90DNDAYDREAMS SMOKE WORLD LLC091920    DB84000000001839 N  599378415303                            000000000+                     09576                                N          346   0000000000000.00 0000000.00   0000000.00                             000000000000000                                                                                                                                                     01424  000000000000 0000000000000.36     01150 00000                  
00003430533010031DT67590675900000032847800135800000033080013576759003142900010500087052120230000000595314223000000000038632422968XXXXXX6511                         NY 2 0 N               N840000000005953      IL  07DNDAYDREAMS SMOKE WORLD LLCB78222    DB84000000005953 N  599378415303                            000000000+                     09584                                Y          273   0000000000000.00 0000000.00   0000000.00                             000000000000000                                                                                                                                                     01424  000000000000 0000000000000.25     00050 00000                  
00003440533010032DT67590675900000032847800135800000033080013576759003142900010500095052120230000000014014223000000000038632407535XXXXXX2607                         NY42 0 N               N840000000000140      IL  90DNDAYDREAMS SMOKE WORLD LLC435851    DB84000000000140 N  599378415303                            000000000+                     09576                                N          346   0000000000000.00 0000000.00   0000000.00                             000000000000000                                                                                                                                                     01424  000000000000 0000000000000.17     01150 00000                  
00003450533010033DT67590675900000032847800135800000033080013576759003142900010500111052120230000000324514223000000000038632420590XXXXXX4930                         NY 2 0 N               N840000000003245      IL  07DNDAYDREAMS SMOKE WORLD LLC030343    DB84000000003245 N  599378415303                            000000000+                     09580                                Y          342   0000000000000.00 0000000.00   0000000.00                             000000000000000                                                                                                                                                     01424  000000000000 0000000000000.24     00050 00000                  
00003460533010034DT67590675900000032847800135800000033080013576759003142900010500137052120230000000497714223000000000038632422968XXXXXX5914                         NY 2 0 N               N840000000004977      IL  05DNDAYDREAMS SMOKE WORLD LLCB06868    DB84000000004977 N  599378415303                            000000000+                     09584                                Y          273   0000000000000.00 0000000.00   0000000.00                             000000000000000                                                                                                                                                     01424  000000000000 0000000000000.24     00050 00000                  
00003470533010035DT67590675900000032847800135800000033080013576759003142900010500145052120230000000183714223000000000038632408138XXXXXX2489                         NY 2 0 N               N840000000001837      IL  07DNDAYDREAMS SMOKE WORLD LLC100174    DB84000000001837 N  599378415303                            000000000+                     09576                                N          346   0000000000000.00 0000000.00   0000000.00                             000000000000000                                                                                                                                                     01424  000000000000 0000000000000.36     01150 00000                  
00003480533010036DT67590675900000032847800135800000033080013576759003142900010500160052120230000000324614223000000000038632461046XXXXXX4031                         NY 2 0 N               N840000000003246      IL  05DNDAYDREAMS SMOKE WORLD LLC075921    DB84000000003246 N  599378415303                            000000000+                     09580                                Y          342   0000000000000.00 0000000.00   0000000.00                             000000000000000                                                                                                                                                     01424  000000000000 0000000000000.24     00050 00000                  
00003490533010037DT67590675900000032847800135800000033080013576759003142900010500178052120230000000077114223000000000038632461046XXXXXX9832                         NY 2 0 N               N840000000000771      IL  07DNDAYDREAMS SMOKE WORLD LLC051022    DB84000000000771 N  599378415303                            000000000+                     09580                                Y          342   0000000000000.00 0000000.00   0000000.00                             000000000000000                                                                                                                                                     01424  000000000000 0000000000000.22     00050 00000                  
00003500533010038DT67590675900000032847800135800000033080013576759003142900010500186052120230000000248914223000000000038632531257XXXXXX6649                         NY42 0 N               N840000000002489      ME  05DNDAYDREAMS SMOKE WORLD LLC152556    DB84000000002489 N  599378415303                            000000000+                     09601                                1          MA1   0000000000000.00 0000000.00   0000000.00                             000000000000000                                                                                                                                                     01424  000000000000 0000000000000.23     00050 00000                  
00003510533010039DT67590675900000032847800135800000033080013576759003142900010500194052120230000000221714223000000000038632481436XXXXXX4695                         NY 2 0 N               N840000000002217      IL  07DNDAYDREAMS SMOKE WORLD LLC000923    DB84000000002217 N  599378415303                            000000000+                     09580                                Y          342   0000000000000.00 0000000.00   0000000.00                             000000000000000                                                                                                                                                     01424  000000000000 0000000000000.23     00050 00000                  
00003520533010040DT67590675900000032847800135800000033080013576759003142900010500202052220230000000059514223000000000038632424067XXXXXX0412                         NY 2 0 N               N840000000000595      IL  05DNDAYDREAMS SMOKE WORLD LLC700860    DB84000000000595 N  599378415303                            000000000+                     09573                                N          121   0000000000000.00 0000000.00   0000000.00                             000000000000000                                                                                                                                                     01424  000000000000 0000000000000.20     00800 00000                  
