00022680583390002BH6759067590000002604780012480000090170626202317723000000000015464    0000090001090003N8001246759C06262023009                                                                                                                                                                                                                                                                                                                                                                                                                                                                                                                                                                                              
00022690583390003DT67590675900000026047800124800000010180012477287283177900010900019062520230000000482417723000000000015464526185XXXXXX1332       MS02WI09          NY 1 0 AMPLJ63V9C0625  N840000000004824          07DNHPPYC                    09539B    MC84000000004824 N  599978202355                            000000000+M10101M0034C    MPL  00353                     000000000  N                0000000000000.00 0000000.00   0000000.00                             000000000000000                                                                                                                                                   A101424  000000000000 0000000000000.97     01800 01000                  
00022700583390001E1675906759000000260478001248000000101000008480003 00000000000.00404040404040404040404040404040404040404040404040400114A14003020000000000000000000000FF00000000000000000000000000  000008401B800000008001230625655A6BD5216123B6FB350168404040400840A0000000041010000000000000000000404040404040404040404040404040404040403F40404040 000000048.24 000000000.003F00020000000000000000    80                                                                                                                                                                                                                                                                                                                  
00022710583390002G2675906759000000260478001248000000101CHARLOTTE                NC           5 L                                                        NNNN              000000000000000000000000       03               C                                          78202355                                                                                                                                                                                                                                                                                                                                                                                                                                               
00022720583390004DT67590675900000026047800124800000010180012477287283177900010900027062520230000000804217723000000000015464559629XXXXXX5832       MS02WI09          NY 1 0 AMDJKLXQ9C0625  N840000000008042          07DNHPPYC                    141709    MD84000000008042 N  599978202355                            000000000+M10101M1134C    MDJ  10815                     000000000  1                0000000000000.00 0000000.00   0000000.00                             000000000000000                                                                                                                                                   A101424  000000000000 0000000000000.26     00050 02200                  
00022730583390001E1675906759000000260478001248000000101000060C80027 00000000000.00404040404040404040404040404040404040404040404040400114A14003020000000000000000000000FF00000000000000000000000000  000008401B80000000800123062512FA395F390D9726FD2B149F404040400840A0000000041010000000000000000000404040404040404040404040404040404040400140404040 000000080.42 000000000.000100020000000000000000    80                                                                                                                                                                                                                                                                                                                  
00022740583390002G2675906759000000260478001248000000101CHARLOTTE                NC           5 J                                                        NNNN              000000000000000000000000       03               C                                          78202355                                                                                                                                                                                                                                                                                                                                                                                                                                               
00022750583390005DT67590675900000026047800124800000010180012477287283177900010900035062520230000000259817723000000000015464552486XXXXXX6331       MS02WI09          NY 1 0 AMWEOIWK6P0625  N840000000002598          05DNHPPYC                    07101Z    MC84000000002598 N  599978202355                            000000000+M10101C5434C    MWE  00739                     000000000  N                0000000000000.00 0000000.00   0000000.00                             000000000000000                                                                                                                                                   B101424  000000000000 0000000000000.70     02300 01000                  
00022760583390001E167590675900000026047800124800000010100E0F8C8009C 00000000000.00404040404040404040404040404040404040404040404040400110A04003220000000000000000000000FF00000000000000000000000000  00010840390000000080002306256E1AD159FC4261E606F79790404040400840A00000000410100000000000000000009F648699CCE850CB00120000000000004040401E40404040 000000025.98 000000000.001E03000000000000000000    80                                                                                                                                                                                                                                                                                                                  
00022770583390002G2675906759000000260478001248000000101CHARLOTTE                NC           5 E                                                        NNNN              000000000000000000000000                        7                                          78202355                                                                                                                                                                                                                                                                                                                                                                                                                                               
00022780583390006BH6759067590000002684980012580000090170626202317723000000001701530    0000090001747833N8001256759C06262023074                                                                                                                                                                                                                                                                                                                                                                                                                                                                                                                                                                                              
00022790583390007DT67590675900000026849800125800000010180012576509753177900017471705062420230000001977017723000000001701530601100XXXXXX5194   BA00                  NY 4 07N803147859220948N840000000019770    00    01DNCBD8885133385            02176R    DS84000000019770 NDR599978220273070                         000000000+1015104910600   DCCDI11325002200  021201000000 000000000  0          460   0000000000000.00 0000000.00   0000000.00                             000000000000000                                                                                                                                                     01424  000000000000 0000000000004.11     02030 01000                  
00022800583390007DR675906759000000268498001258000000101                         Y                                                                                                                                                                                                                                                                                                                                                                                                                                                                                                                                                                                                                                           
00022810583390001G2675906759000000268498001258000000101855-4401547              WY           9 C                00                                      NNNN                          000000000000                         00000650975601179750000543                78220273                                                                                                                                                                                                                                                                                                                                                                                                                                               
00022820583390008DT67590675900000026849800125800000010180012587287283177900017471724062420230000001977017723000000001701530517479XXXXXX5779       ME03KE06PT01      NY 4607AMCWUXQ9XM0621  N840000000019770          81DNCBD8885133385            02145P    MC84000000019770 NDR599978220273   091C355292TC8D5988AC60D  000000000+600450S00130    MCW  00642                     000000000  N                0000000000000.00 0000000.00   0000000.00                             000000000000000                                                                                                                                                   U001424  000000000000 0000000000004.45     02200 01000                  
00022830583390008DR675906759000000268498001258000000101091C355292TC8D5988AC60D  Y000000000000                                                                                                                                                                                                                                                                                                                                                                                                                                                                                                                                                                                                                               
00022840583390001G2675906759000000268498001258000000101855-4401547              WY           9 W               210                                      NNNN           210000000000000000000000000                        7                                          78220273                                                                                                                                                                                                                                                                                                                                                                                                                                               
00022850583390009DT67590675900000026849800125800000010180012524001193177900017471756062420230000001977017723000000001701530444796XXXXXX9794               2111111   NYV4 A7W583172400620346N8400000000197705CKX00    01DNCBD8885133385            021416    VS84000000019770 NDR599978220273   BF1BEA3E73TF47772138C6D  000000000+                A CA 12106                     000000000  N000000000 492   0000000000000.00 0000000.00   0000000.00                             000000000000000                                                                                                                                                     01424 G000000019770 0000000000003.84     01890 01000                  
00022860583390009DR675906759000000268498001258000000101BF1BEA3E73TF47772138C6D  Y000000019770                 P1                                                                                                                                                                                                                                                                                                                                                                                                                                                                                                                                                                                                            
00022870583390001P16759067590000002684980012580000001010000000000000000                             2000000000000000000000000              000000000000                    0000000000000000000000000                    000000000000                                                                                                                                                                                                                                                                                                                                                                                                                                                                                        
00022880583390002G2675906759000000268498001258000000101888-5133385              WY           9 C                00                                      NNNN   N                      000000000000                                                                   78220273                                                                                                                                                                                                                                                                                                                                                                                                                                               
00022890583390010DT67590675900000026849800125800000010180012587287283177900017471807062420230000001977017723000000001701530527854XXXXXX3564       ME03KE06MS02      NY 4607AMWEWJ0FXL0621  N840000000019770          81DNCBD8885133385            80127W    MC84000000019770 NDR599978220273   7E0F69E87DT146EE90E6EC3  000000000+600450S00130    MWE  00642                     000000000  N                0000000000000.00 0000000.00   0000000.00                             000000000000000                                                                                                                                                   U001424  000000000000 0000000000004.45     02200 01000                  
00022900583390010DR6759067590000002684980012580000001017E0F69E87DT146EE90E6EC3  Y000000000000                                                                                                                                                                                                                                                                                                                                                                                                                                                                                                                                                                                                                               
00022910583390001G2675906759000000268498001258000000101855-4401547              WY           9 E               210                                      NNNN           210000000000000000000000000                        7                                          78220273                                                                                                                                                                                                                                                                                                                                                                                                                                               
00022920583390011DT67590675900000026849800125800000010180012524001193177900017471814062420230000002477017723000000001701530403784XXXXXX2587               2111111   NYV4 A7W463172472643422N840000000024770ZD7V00    01DNCBD8885133385            801270    VS84000000024770 NDR599978220273   8E272498FBTEE2210F56197  000000000+                A CA 12106                     000000000  N000000000 492   0000000000000.00 0000000.00   0000000.00                             000000000000000                                                                                                                                                     01424 G000000024770 0000000000004.78     01890 01000                  
00022930583390011DR6759067590000002684980012580000001018E272498FBTEE2210F56197  Y000000024770                 P1                                                                                                                                                                                                                                                                                                                                                                                                                                                                                                                                                                                                            
00022940583390001P16759067590000002684980012580000001010000000000000000                             2000000000000000000000000              000000000000                    0000000000000000000000000                    000000000000                                                                                                                                                                                                                                                                                                                                                                                                                                                                                        
00022950583390002G2675906759000000268498001258000000101888-5133385              WY           9 C                00                                      NNNN   Y                      000000000000                                                                   78220273                                                                                                                                                                                                                                                                                                                                                                                                                                               
00022960583390012DT67590675900000026849800125800000010180012587287283177900017471849062420230000001977017723000000001701530542418XXXXXX7271       ME03KE06PT01      NY 4607AMCWTBU6XU0621  N840000000019770          81DNCBD8885133385            16251P    MC84000000019770 NDR599978220273   167C822DBCTB81CD7B18CD9  000000000+600450S00130    MCW  00642                     000000000  N                0000000000000.00 0000000.00   0000000.00                             000000000000000                                                                                                                                                   U001424  000000000000 0000000000004.45     02200 01000                  
00022970583390012DR675906759000000268498001258000000101167C822DBCTB81CD7B18CD9  Y000000000000                                                                                                                                                                                                                                                                                                                                                                                                                                                                                                                                                                                                                               
00022980583390001G2675906759000000268498001258000000101855-4401547              WY           9 W               210                                      NNNN           210000000000000000000000000                        7                                          78220273                                                                                                                                                                                                                                                                                                                                                                                                                                               
00022990583390013DT67590675900000026849800125800000010180012576509753177900017471887062420230000001977017723000000001701530601101XXXXXX1662   BA00                  NY 4 07N873148108881541N840000000019770    00    01DNCBD8885133385            02197R    DS84000000019770 NDR599978220273070                         000000000+1015104910600   DCCDI11325668204  090808000000 000000000  0          460   0000000000000.00 0000000.00   0000000.00                             000000000000000                                                                                                                                                     01424  000000000000 0000000000004.11     02030 01000                  
00023000583390013DR675906759000000268498001258000000101                         Y                                                                                                                                                                                                                                                                                                                                                                                                                                                                                                                                                                                                                                           
00023010583390001G2675906759000000268498001258000000101855-4401547              WY           9 C                00                                      NNNN                          000000000000                         00000650975601179750000543                78220273                                                                                                                                                                                                                                                                                                                                                                                                                                               
00023020583390014DT67590675900000026849800125800000010180012587287283177900017471906062420230000001977017723000000001701530527854XXXXXX2424       ME03KE06MS02      NY 4607AMWETB4HXU0621  N840000000019770          81DNCBD8885133385            90128Z    MC84000000019770 NDR599978220273   C60F9801FDTFEFF858870C7  000000000+600450S00130    MWE  00737                     000000000  N                0000000000000.00 0000000.00   0000000.00                             000000000000000                                                                                                                                                   U001424  000000000000 0000000000005.24     02600 01000                  
00023030583390014DR675906759000000268498001258000000101C60F9801FDTFEFF858870C7  Y000000000000                                                                                                                                                                                                                                                                                                                                                                                                                                                                                                                                                                                                                               
00023040583390001G2675906759000000268498001258000000101855-4401547              WY           9 E               210                                      NNNN           210000000000000000000000000                        7                                          78220273                                                                                                                                                                                                                                                                                                                                                                                                                                               
00023050583390015DT67590675900000026849800125800000010180012524001193177900017471913062420230000001280317723000000001701530426684XXXXXX3390               2111111   NYV4 A7W463172528201050N840000000012803L72Q00    01DNCBD8885133385            00629C    VS84000000012803 NDR599978220273   8F3A4FC7CETE46D93424271  000000000+                C CC 12108                     000000000  N000000000 496   0000000000000.00 0000000.00   0000000.00                             000000000000000                                                                                                                                                     01424 G000000012803 0000000000002.72     02050 01000                  
00023060583390015DR6759067590000002684980012580000001018F3A4FC7CETE46D93424271  Y000000012803                 P1                                                                                                                                                                                                                                                                                                                                                                                                                                                                                                                                                                                                            
00023070583390001P16759067590000002684980012580000001010000000000000000                             2000000000000000000000000              000000000000                    0000000000000000000000000                    000000000000                                                                                                                                                                                                                                                                                                                                                                                                                                                                                        
00023080583390002G2675906759000000268498001258000000101888-5133385              WY           9 C                00                                      NNNN   Y                      000000000000                                                                   78220273                                                                                                                                                                                                                                                                                                                                                                                                                                               
00023090583390016DT67590675900000026849800125800000010180012524001193177900017471988062420230000001977017723000000001701530434256XXXXXX2943               2111111   NYV4 A7W463172545156866N840000000019770FBK300    01DNCBD8885133385            037894    VD84000000019770 NDR599978220273   B63E61D7D8TCD31F2A25D85  000000000+                F DF 10420                     000000000  Y000000000 338   0000000000000.00 0000000.00   0000000.00                             000000000000000                                                                                                                                                     01424 G000000019770 0000000000000.32     00050 02200                  
00023100583390016DR675906759000000268498001258000000101B63E61D7D8TCD31F2A25D85  Y000000019770                 P1                                                                                                                                                                                                                                                                                                                                                                                                                                                                                                                                                                                                            
00023110583390001P16759067590000002684980012580000001010000000000000000                             2000000000000000000000000              000000000000                    0000000000000000000000000                    000000000000                                                                                                                                                                                                                                                                                                                                                                                                                                                                                        
00023120583390002G2675906759000000268498001258000000101888-5133385              WY           9 D                00                                      NNNN   N                      000000000000                                                                   78220273                                                                                                                                                                                                                                                                                                                                                                                                                                               
00023130583390017DT67590675900000026849800125800000010180012587287283177900017472003062420230000001977017723000000001701530521853XXXXXX4761       ME03KE06PT01      NY 4607AMCWZHTMMP0621  N840000000019770          81DNCBD8885133385            02196T    MC84000000019770 NDR599978220273   F80E906484TAB1BCC7772B2  000000000+600450S00130    MCW  02182                     000000000  N                0000000000000.00 0000000.00   0000000.00                             000000000000000                                                                                                                                                   U001424  000000000000 0000000000005.24     02600 01000                  
00023140583390017DR675906759000000268498001258000000101F80E906484TAB1BCC7772B2  A000000000000                                                                                                                                                                                                                                                                                                                                                                                                                                                                                                                                                                                                                               
00023150583390001G2675906759000000268498001258000000101855-4401547              WY           9 W               210                                      NNNN           210000000000000000000000000                        7                                          78220273                                                                                                                                                                                                                                                                                                                                                                                                                                               
00023160583390018DT67590675900000026849800125800000010180012576509753177900017472034062420230000001280317723000000001701530601100XXXXXX4792   BA00                  NY 4 07N873148145290641N840000000012803    00    01DNCBD8885133385            02137R    DS84000000012803 NDR599978220273070                         000000000+1015104910600   DCCDI11325667216  100848000000 000000000  0          460   0000000000000.00 0000000.00   0000000.00                             000000000000000                                                                                                                                                     01424  000000000000 0000000000002.70     02030 01000                  
00023170583390018DR675906759000000268498001258000000101                         Y                                                                                                                                                                                                                                                                                                                                                                                                                                                                                                                                                                                                                                           
00023180583390001G2675906759000000268498001258000000101855-4401547              WY           9 C                00                                      NNNN                          000000000000                         00000650975601179750000543                78220273                                                                                                                                                                                                                                                                                                                                                                                                                                               
00023190583390019DT67590675900000026849800125800000010180012524001193177900017472044062420230000001480317723000000001701530460728XXXXXX8396               2111111   NYV4 A7W583172545311499N840000000014803NS4S00    01DNCBD8885133385            648030    VD84000000014803 NDR599978220273   293E6D5EC8T7C15E4D86777  000000000+                F DF 10420                     000000000  Y000000000 338   0000000000000.00 0000000.00   0000000.00                             000000000000000                                                                                                                                                     01424 G000000014803 0000000000000.29     00050 02200                  
00023200583390019DR675906759000000268498001258000000101293E6D5EC8T7C15E4D86777  Y000000014803                 P1                                                                                                                                                                                                                                                                                                                                                                                                                                                                                                                                                                                                            
00023210583390001P16759067590000002684980012580000001010000000000000000                             2000000000000000000000000              000000000000                    0000000000000000000000000                    000000000000                                                                                                                                                                                                                                                                                                                                                                                                                                                                                        
00023220583390002G2675906759000000268498001258000000101888-5133385              WY           9 D                00                                      NNNN   N                      000000000000                                                                   78220273                                                                                                                                                                                                                                                                                                                                                                                                                                               
00023230583390020DT67590675900000026849800125800000010180012587287283177900017472060062420230000001789217723000000001701530517546XXXXXX8678       ME03KE06MS02      NY 4607AMDJZH1NMP0621  N840000000017892          81DNCBD8885133385            021776    MD84000000017892 NDR599978220273   277A8E9427T0B30E89BA8E5  000000000+600450S00130    MDJ  10813                     000000000  1                0000000000000.00 0000000.00   0000000.00                             000000000000000                                                                                                                                                   U001424  000000000000 0000000000000.31     00050 02200                  
00023240583390020DR675906759000000268498001258000000101277A8E9427T0B30E89BA8E5  Y000000000000                                                                                                                                                                                                                                                                                                                                                                                                                                                                                                                                                                                                                               
00023250583390001G2675906759000000268498001258000000101855-4401547              WY           9 J               210                                      NNNN           210000000000000000000000000                        7                                          78220273                                                                                                                                                                                                                                                                                                                                                                                                                                               
00023260583390021DT67590675900000026849800125800000010180012524001193177900017472077062420230000001977017723000000001701530440066XXXXXX9894               2111111   NYV4 A7W463172545394082N840000000019770PFX200    01DNCBD8885133385            06156D    VS84000000019770 NDR599978220273   33C38C230CT9A423A7FE37E  000000000+                D CD 12109                     000000000  N000000000 498   0000000000000.00 0000000.00   0000000.00                             000000000000000                                                                                                                                                     01424 G000000019770 0000000000005.04     02500 01000                  
00023270583390021DR67590675900000026849800125800000010133C38C230CT9A423A7FE37E  Y000000019770                 P1                                                                                                                                                                                                                                                                                                                                                                                                                                                                                                                                                                                                            
00023280583390001P16759067590000002684980012580000001010000000000000000                             2000000000000000000000000              000000000000                    0000000000000000000000000                    000000000000                                                                                                                                                                                                                                                                                                                                                                                                                                                                                        
00023290583390002G2675906759000000268498001258000000101888-5133385              WY           9 C                00                                      NNNN   Y                      000000000000                                                                   78220273                                                                                                                                                                                                                                                                                                                                                                                                                                               
00023300583390022DT67590675900000026849800125800000010180012587287283177900017472094062420230000001285117723000000001701530518941XXXXXX9808       ME03KE06MS02      NY 4607AMWEUH7NXU0621  N840000000012851          81DNCBD8885133385            85055Z    MC84000000012851 NDR599978220273   317E3DD358TFC9BB0512AF5  000000000+600450S00130    MWE  00737                     000000000  N                0000000000000.00 0000000.00   0000000.00                             000000000000000                                                                                                                                                   U001424  000000000000 0000000000003.44     02600 01000                  
00023310583390022DR675906759000000268498001258000000101317E3DD358TFC9BB0512AF5  Y000000000000                                                                                                                                                                                                                                                                                                                                                                                                                                                                                                                                                                                                                               
00023320583390001G2675906759000000268498001258000000101855-4401547              WY           9 E               210                                      NNNN           210000000000000000000000000                        7                                          78220273                                                                                                                                                                                                                                                                                                                                                                                                                                               
00023330583390023DT67590675900000026849800125800000010180012587287283177900017472110062420230000001977017723000000001701530521333XXXXXX9825       ME03KE06MS02      NY 4607AMWEUH92XU0621  N840000000019770          81DNCBD8885133385            02138P    MC84000000019770 NDR599978220273   6A86F7B75ETA24700F940FF  000000000+600450S00130    MWE  00737                     000000000  N                0000000000000.00 0000000.00   0000000.00                             000000000000000                                                                                                                                                   U001424  000000000000 0000000000005.24     02600 01000                  
00023340583390023DR6759067590000002684980012580000001016A86F7B75ETA24700F940FF  Y000000000000                                                                                                                                                                                                                                                                                                                                                                                                                                                                                                                                                                                                                               
00023350583390001G2675906759000000268498001258000000101855-4401547              WY           9 E               210                                      NNNN           210000000000000000000000000                        7                                          78220273                                                                                                                                                                                                                                                                                                                                                                                                                                               
00023360583390024DT67590675900000026849800125800000010180012524001193177900017472168062420230000001977017723000000001701530451679XXXXXX5993               2111111   NYV4 A7W303172545666624N840000000019770XH3Q00    01DNCBD8885133385            835239    VD84000000019770 NDR599978220273   F2F6BAB3A4T5B240546ED30  000000000+                G DG 10352                     000000000  Y000000000 338   0000000000000.00 0000000.00   0000000.00                             000000000000000                                                                                                                                                     01424 G000000019770 0000000000000.32     00050 02200                  
00023370583390024DR675906759000000268498001258000000101F2F6BAB3A4T5B240546ED30  Y000000019770                 P1                                                                                                                                                                                                                                                                                                                                                                                                                                                                                                                                                                                                            
00023380583390001P16759067590000002684980012580000001010000000000000000                             2000000000000000000000000              000000000000                    0000000000000000000000000                    000000000000                                                                                                                                                                                                                                                                                                                                                                                                                                                                                        
00023390583390002G2675906759000000268498001258000000101888-5133385              WY           9 D                00                                      NNNN   N                      000000000000                                                                   78220273                                                                                                                                                                                                                                                                                                                                                                                                                                               
00023400583390025DT67590675900000026849800125800000010180012524001193177900017472184062420230000001977017723000000001701530410039XXXXXX1308               2111111   NYV4 A7W583172545722642N840000000019770CX7H00    01DNCBD8885133385            40198D    VS84000000019770 NDR599978220273   CAF9AEB223TF0BBB748602E  000000000+                D CD 12109                     000000000  N000000000 498   0000000000000.00 0000000.00   0000000.00                             000000000000000                                                                                                                                                     01424 G000000019770 0000000000005.04     02500 01000                  
00023410583390025DR675906759000000268498001258000000101CAF9AEB223TF0BBB748602E  Y000000019770                 P1                                                                                                                                                                                                                                                                                                                                                                                                                                                                                                                                                                                                            
00023420583390001P16759067590000002684980012580000001010000000000000000                             2000000000000000000000000              000000000000                    0000000000000000000000000                    000000000000                                                                                                                                                                                                                                                                                                                                                                                                                                                                                        
00023430583390002G2675906759000000268498001258000000101888-5133385              WY           9 C                00                                      NNNN   Y                      000000000000                                                                   78220273                                                                                                                                                                                                                                                                                                                                                                                                                                               
00023440583390026DT67590675900000026849800125800000010180012587287283177900017472193062420230000001489217723000000001701530515927XXXXXX9524       ME03KE06MS02      NY 4607AMDSZIJPMP0621  N840000000014892          81DNCBD8885133385            636730    MD84000000014892 NDR599978220273   23FE9EFE8BTFA0E4D1568EC  000000000+600450S00130    MDS  00401                     000000000  N                0000000000000.00 0000000.00   0000000.00                             000000000000000                                                                                                                                                   U001424  000000000000 0000000000002.61     01650 01500                  
00023450583390026DR67590675900000026849800125800000010123FE9EFE8BTFA0E4D1568EC  Y000000000000                                                                                                                                                                                                                                                                                                                                                                                                                                                                                                                                                                                                                               
00023460583390001G2675906759000000268498001258000000101855-4401547              WY           9 S               210                                      NNNN           210000000000000000000000000                                                                   78220273                                                                                                                                                                                                                                                                                                                                                                                                                                               
00023470583390027DT67590675900000026849800125800000010180012524001193177900017472200062420230000001489217723000000001701530411870XXXXXX1870               2111111   NYV4 A7W383172545789820N840000000014892KXNH00    01DNCBD8885133385            021549    VS84000000014892 NDR599978220273   6C2095A7A3T2E192D32256E  000000000+                C CC 12108                     000000000  N000000000 496   0000000000000.00 0000000.00   0000000.00                             000000000000000                                                                                                                                                     01424 G000000014892 0000000000003.15     02050 01000                  
00023480583390027DR6759067590000002684980012580000001016C2095A7A3T2E192D32256E  Y000000014892                 P1                                                                                                                                                                                                                                                                                                                                                                                                                                                                                                                                                                                                            
00023490583390001P16759067590000002684980012580000001010000000000000000                             2000000000000000000000000              000000000000                    0000000000000000000000000                    000000000000                                                                                                                                                                                                                                                                                                                                                                                                                                                                                        
00023500583390002G2675906759000000268498001258000000101888-5133385              WY           9 C                00                                      NNNN   Y                      000000000000                                                                   78220273                                                                                                                                                                                                                                                                                                                                                                                                                                               
00023510583390028DT67590675900000026849800125800000010180012587287283177900017472250062420230000001977017723000000001701530546537XXXXXX2832       ME03KE06MS02      NY 4607AMDJVXKEXU0621  N840000000019770          81DNCBD8885133385            060852    MD84000000019770 NDR599978220273   4286C54966TFFC521803697  000000000+600450S00130    MDJ  00401                     000000000  N                0000000000000.00 0000000.00   0000000.00                             000000000000000                                                                                                                                                   U001424  000000000000 0000000000003.41     01650 01500                  
00023520583390028DR6759067590000002684980012580000001014286C54966TFFC521803697  Y000000000000                                                                                                                                                                                                                                                                                                                                                                                                                                                                                                                                                                                                                               
00023530583390001G2675906759000000268498001258000000101855-4401547              WY           9 J               210                                      NNNN           210000000000000000000000000                        7                                          78220273                                                                                                                                                                                                                                                                                                                                                                                                                                               
00023540583390029DT67590675900000026849800125800000010180012587287283177900017472276062420230000001489217723000000001701530553900XXXXXX0754       ME03KE06MS02      NY 4607AMDSR6NSXM0621  N840000000014892          81DNCBD8885133385            498217    MD84000000014892 NDR599978220273   05128458D6T89F4751E14A3  000000000+600450S00130    MDS  00401                     000000000  N                0000000000000.00 0000000.00   0000000.00                             000000000000000                                                                                                                                                   U001424  000000000000 0000000000002.61     01650 01500                  
00023550583390029DR67590675900000026849800125800000010105128458D6T89F4751E14A3  Z000000000000                                                                                                                                                                                                                                                                                                                                                                                                                                                                                                                                                                                                                               
00023560583390001G2675906759000000268498001258000000101855-4401547              WY           9 S               210                                      NNNN           210000000000000000000000000                                                                   78220273                                                                                                                                                                                                                                                                                                                                                                                                                                               
00023570583390030DT67590675900000026849800125800000010180012587287283177900017472284062420230000001977017723000000001701530511786XXXXXX8542       ME03KE06MS02      NY 4607AMCSZ6NXXM0621  N840000000019770          81DNCBD8885133385            07066B    MC84000000019770 NDR599978220273   142E7F8B52TCD5434455C17  000000000+600450S00130    MCS  00580                     000000000  N                0000000000000.00 0000000.00   0000000.00                             000000000000000                                                                                                                                                   U001424  000000000000 0000000000004.25     02100 01000                  
00023580583390030DR675906759000000268498001258000000101142E7F8B52TCD5434455C17  Y000000000000                                                                                                                                                                                                                                                                                                                                                                                                                                                                                                                                                                                                                               
00023590583390001G2675906759000000268498001258000000101855-4401547              WY           9 S               210                                      NNNN           210000000000000000000000000                        7                                          78220273                                                                                                                                                                                                                                                                                                                                                                                                                                               
00023600583390031DT67590675900000026849800125800000010180012524001193177900017472309062420230000002477017723000000001701530473310XXXXXX3248               2111111   NYV4 A7W303172581506188N840000000024770LZZR00    01DNCBD8885133385            170194    VD84000000024770 NDR599978220273   0CFF4D8252T8304AA158672  000000000+                F DF 10420                     000000000  Y000000000 338   0000000000000.00 0000000.00   0000000.00                             000000000000000                                                                                                                                                     01424 G000000024770 0000000000000.34     00050 02200                  
00023610583390031DR6759067590000002684980012580000001010CFF4D8252T8304AA158672  Y000000024770                 P1                                                                                                                                                                                                                                                                                                                                                                                                                                                                                                                                                                                                            
00023620583390001P16759067590000002684980012580000001010000000000000000                             2000000000000000000000000              000000000000                    0000000000000000000000000                    000000000000                                                                                                                                                                                                                                                                                                                                                                                                                                                                                        
00023630583390002G2675906759000000268498001258000000101888-5133385              WY           9 D                00                                      NNNN   N                      000000000000                                                                   78220273                                                                                                                                                                                                                                                                                                                                                                                                                                               
00023640583390032DT67590675900000026849800125800000010180012587287283177900017472326062420230000001285017723000000001701530542418XXXXXX6596       ME03KE06MS02      NY 4607AMWEPX0IXU0621  N840000000012850          81DNCBD8885133385            03848P    MC84000000012850 NDR599978220273   0C239A3D90T6647CDEF56D4  000000000+600450S00130    MWE  00737                     000000000  N                0000000000000.00 0000000.00   0000000.00                             000000000000000                                                                                                                                                   U001424  000000000000 0000000000003.44     02600 01000                  
00023650583390032DR6759067590000002684980012580000001010C239A3D90T6647CDEF56D4  Y000000000000                                                                                                                                                                                                                                                                                                                                                                                                                                                                                                                                                                                                                               
00023660583390001G2675906759000000268498001258000000101855-4401547              WY           9 E               210                                      NNNN           210000000000000000000000000                        7                                          78220273                                                                                                                                                                                                                                                                                                                                                                                                                                               
00023670583390033DT67590675900000026849800125800000010180012576509753177900017472356062420230000001285117723000000001701530601100XXXXXX1661   BA00                  NY 4 07N813148181671338N840000000012851    00    01DNCBD8885133385            02102R    DS84000000012851 NDR599978220273070                         000000000+1015104910600   DCCDI11325835247  110927000000 000000000  0          460   0000000000000.00 0000000.00   0000000.00                             000000000000000                                                                                                                                                     01424  000000000000 0000000000002.71     02030 01000                  
00023680583390033DR675906759000000268498001258000000101                         Y                                                                                                                                                                                                                                                                                                                                                                                                                                                                                                                                                                                                                                           
00023690583390001G2675906759000000268498001258000000101855-4401547              WY           9 C                00                                      NNNN                          000000000000                         00000650975601179750000543                78220273                                                                                                                                                                                                                                                                                                                                                                                                                                               
00023700583390034DT67590675900000026849800125800000010180012587287283177900017472375062420230000001280317723000000001701530542418XXXXXX4558       ME03KE06MS02      NY 4607AMPLZ7Q6XL0621  N840000000012803          81DNCBD8885133385            00211B    MC84000000012803 NDR599978220273   35982AB7C3TC48218F35FF3  000000000+600450S00130    MPL  00580                     000000000  N                0000000000000.00 0000000.00   0000000.00                             000000000000000                                                                                                                                                   U001424  000000000000 0000000000002.79     02100 01000                  
00023710583390034DR67590675900000026849800125800000010135982AB7C3TC48218F35FF3  Y000000000000                                                                                                                                                                                                                                                                                                                                                                                                                                                                                                                                                                                                                               
00023720583390001G2675906759000000268498001258000000101855-4401547              WY           9 L               210                                      NNNN           210000000000000000000000000                        7                                          78220273                                                                                                                                                                                                                                                                                                                                                                                                                                               
00023730583390035DT67590675900000026849800125800000010180012524001193177900017472408062420230000001480317723000000001701530473690XXXXXX4505               2111111   NYV4 A7W303172581844351N840000000014803MQ5X00    01DNCBD8885133385            129993    VD84000000014803 NDR599978220273   758E5CA4E9T0AA3F98A563C  000000000+                F PF 08175                     000000000  N000000000       0000000000000.00 0000000.00   0000000.00                             000000000000000                                                                                                                                                     01424 G000000014803 0000000000002.79     01750 02000                  
00023740583390035DR675906759000000268498001258000000101758E5CA4E9T0AA3F98A563C  Y000000014803                 P1                                                                                                                                                                                                                                                                                                                                                                                                                                                                                                                                                                                                            
00023750583390001P16759067590000002684980012580000001010000000000000000                             2000000000000000000000000              000000000000                    0000000000000000000000000                    000000000000                                                                                                                                                                                                                                                                                                                                                                                                                                                                                        
00023760583390002G2675906759000000268498001258000000101888-5133385              WY           9 P                00                                      NNNN   N                      000000000000                                                                   78220273                                                                                                                                                                                                                                                                                                                                                                                                                                               
00023770583390036DT67590675900000026849800125800000010180012524001193177900017472416062420230000002477017723000000001701530425048XXXXXX4783               2111111   NYV4 A7W463172581863432N840000000024770K82S00    01DNCBD8885133385            062883    VD84000000024770 NDR599978220273   0D708FABE5T002C9DF064D3  000000000+                F DF 00415                     000000000  N000000000       0000000000000.00 0000000.00   0000000.00                             000000000000000                                                                                                                                                     01424 G000000024770 0000000000004.24     01650 01500                  
00023780583390036DR6759067590000002684980012580000001010D708FABE5T002C9DF064D3  Y000000024770                 P1                                                                                                                                                                                                                                                                                                                                                                                                                                                                                                                                                                                                            
00023790583390001P16759067590000002684980012580000001010000000000000000                             2000000000000000000000000              000000000000                    0000000000000000000000000                    000000000000                                                                                                                                                                                                                                                                                                                                                                                                                                                                                        
00023800583390002G2675906759000000268498001258000000101888-5133385              WY           9 D                00                                      NNNN   N                      000000000000                                                                   78220273                                                                                                                                                                                                                                                                                                                                                                                                                                               
00023810583390037DT67590675900000026849800125800000010180012587287283177900017472425062420230000002477017723000000001701530552433XXXXXX7850       ME03KE06MS02      NY 4607AMPLR7JIXM0621  N840000000024770          81DNCBD8885133385            05888M    MC84000000024770 NDR599978220273   A1604F99BBT058F66E66FFB  000000000+600450S00130    MPL  00580                     000000000  N                0000000000000.00 0000000.00   0000000.00                             000000000000000                                                                                                                                                   U001424  000000000000 0000000000005.30     02100 01000                  
00023820583390037DR675906759000000268498001258000000101A1604F99BBT058F66E66FFB  Y000000000000                                                                                                                                                                                                                                                                                                                                                                                                                                                                                                                                                                                                                               
00023830583390001G2675906759000000268498001258000000101855-4401547              WY           9 L               210                                      NNNN           210000000000000000000000000                        7                                          78220273                                                                                                                                                                                                                                                                                                                                                                                                                                               
00023840583390038DT67590675900000026849800125800000010180012587287283177900017472441062420230000001280317723000000001701530521853XXXXXX7067       ME03KE06PT01      NY 4607AMCWVYOUXU0621  N840000000012803          81DNCBD8885133385            02100T    MC84000000012803 NDR599978220273   5446D78CEBT0891878A9D28  000000000+600450S00130    MCW  02182                     000000000  N                0000000000000.00 0000000.00   0000000.00                             000000000000000                                                                                                                                                   U001424  000000000000 0000000000003.43     02600 01000                  
00023850583390038DR6759067590000002684980012580000001015446D78CEBT0891878A9D28  Y000000000000                                                                                                                                                                                                                                                                                                                                                                                                                                                                                                                                                                                                                               
00023860583390001G2675906759000000268498001258000000101855-4401547              WY           9 W               210                                      NNNN           210000000000000000000000000                        7                                          78220273                                                                                                                                                                                                                                                                                                                                                                                                                                               
00023870583390039DT67590675900000026849800125800000010180012576509753177900017472471062420230000001977017723000000001701530601100XXXXXX0644   BA00                  NY 4 07N873148182095623N840000000019770    00    01DNCBD8885133385            02198R    DS84000000019770 NDR599978220273070                         000000000+1015104910600   DCCDI11325833290  111009000000 000000000  0          460   0000000000000.00 0000000.00   0000000.00                             000000000000000                                                                                                                                                     01424  000000000000 0000000000004.11     02030 01000                  
00023880583390039DR675906759000000268498001258000000101                         Y                                                                                                                                                                                                                                                                                                                                                                                                                                                                                                                                                                                                                                           
00023890583390001G2675906759000000268498001258000000101855-4401547              WY           9 C                00                                      NNNN                          000000000000                         00000650975601179750000543                78220273                                                                                                                                                                                                                                                                                                                                                                                                                                               
00023900583390040DT67590675900000026849800125800000010180012587287283177900017472482062420230000001977017723000000001701530546249XXXXXX1161       ME03KE06MS02      NY 4607AMDJVYXRXU0621  N840000000019770          81DNCBD8885133385            011013    MD84000000019770 NDR599978220273   F59FC315B2T8FDCCA460937  000000000+600450S00130    MDJ  10813                     000000000  1                0000000000000.00 0000000.00   0000000.00                             000000000000000                                                                                                                                                   U001424  000000000000 0000000000000.32     00050 02200                  
00023910583390040DR675906759000000268498001258000000101F59FC315B2T8FDCCA460937  Y000000000000                                                                                                                                                                                                                                                                                                                                                                                                                                                                                                                                                                                                                               
00023920583390001G2675906759000000268498001258000000101855-4401547              WY           9 J               210                                      NNNN           210000000000000000000000000                                                                   78220273                                                                                                                                                                                                                                                                                                                                                                                                                                               
00023930583390041DT67590675900000026849800125800000010180012524001193177900017472580062420230000002477017723000000001701530414720XXXXXX0071               2111111   NYV4 A7W463172616695437N840000000024770PCT500    01DNCBD8885133385            02482D    VS84000000024770 NDR599978220273   90E8B62B5BT3B8197F2389D  000000000+                D CD 12109                     000000000  N000000000 498   0000000000000.00 0000000.00   0000000.00                             000000000000000                                                                                                                                                     01424 G000000024770 0000000000006.29     02500 01000                  
00023940583390041DR67590675900000026849800125800000010190E8B62B5BT3B8197F2389D  Y000000024770                 P1                                                                                                                                                                                                                                                                                                                                                                                                                                                                                                                                                                                                            
00023950583390001P16759067590000002684980012580000001010000000000000000                             2000000000000000000000000              000000000000                    0000000000000000000000000                    000000000000                                                                                                                                                                                                                                                                                                                                                                                                                                                                                        
00023960583390002G2675906759000000268498001258000000101888-5133385              WY           9 C                00                                      NNNN   Y                      000000000000                                                                   78220273                                                                                                                                                                                                                                                                                                                                                                                                                                               
00023970583390042DT67590675900000026849800125800000010180012587287283177900017472615062420230000001977017723000000001701530550919XXXXXX1970       ME03KE06MS02      NY 4607AMDSTLX89A0621  N840000000019770          81DNCBD8885133385            127230    MD84000000019770 NDR599978220273   DEA026C456TBFAF4125B61F  000000000+600450S00130    MDS  00401                     000000000  N                0000000000000.00 0000000.00   0000000.00                             000000000000000                                                                                                                                                   U001424  000000000000 0000000000003.41     01650 01500                  
00023980583390042DR675906759000000268498001258000000101DEA026C456TBFAF4125B61F  Y000000000000                                                                                                                                                                                                                                                                                                                                                                                                                                                                                                                                                                                                                               
00023990583390001G2675906759000000268498001258000000101855-4401547              WY           9 S               210                                      NNNN           210000000000000000000000000                        7                                          78220273                                                                                                                                                                                                                                                                                                                                                                                                                                               
00024000583390043DT67590675900000026849800125800000010180012587287283177900017472623062420230000001489217723000000001701530511308XXXXXX2413       ME03KE06MS02      NY 4607AMDJTWYRXM0621  N840000000014892          81DNCBD8885133385            020801    MD84000000014892 NDR599978220273   B6450C3FA1T0C923C7BABE4  000000000+600450S00130    MDJ  10813                     000000000  1                0000000000000.00 0000000.00   0000000.00                             000000000000000                                                                                                                                                   U001424  000000000000 0000000000000.29     00050 02200                  
00024010583390043DR675906759000000268498001258000000101B6450C3FA1T0C923C7BABE4  Y000000000000                                                                                                                                                                                                                                                                                                                                                                                                                                                                                                                                                                                                                               
00024020583390001G2675906759000000268498001258000000101855-4401547              WY           9 J               210                                      NNNN           210000000000000000000000000                                                                   78220273                                                                                                                                                                                                                                                                                                                                                                                                                                               
00024030583390044DT67590675900000026849800125800000010180012587287283177900017472631062420230000001280317723000000001701530513638XXXXXX6827       ME03KE06MS02      NY 4607AMPLTW0QXM0621  N840000000012803          81DNCBD8885133385            021433    MC84000000012803 NDR599978220273   C5A0F9CBA3T0043139D7E6B  000000000+600450S00130    MPL  00013                     000000000  N                0000000000000.00 0000000.00   0000000.00                             000000000000000                                                                                                                                                   U001424  000000000000 0000000000002.60     01950 01000                  
00024040583390044DR675906759000000268498001258000000101C5A0F9CBA3T0043139D7E6B  Y000000000000                                                                                                                                                                                                                                                                                                                                                                                                                                                                                                                                                                                                                               
00024050583390001G2675906759000000268498001258000000101855-4401547              WY           9 L               210                                      NNNN           210000000000000000000000000                                                                   78220273                                                                                                                                                                                                                                                                                                                                                                                                                                               
00024060583390045DT67590675900000026849800125800000010180012524001193177900017472648062420230000001480317723000000001701530474488XXXXXX2881               2111111   NYV4 A7W383172616862614N840000000014803SH9S00    01DNCBD8885133385            120081    VD84000000014803 NDR599978220273   E34BEE55B2T6EFB8EC1A8C9  000000000+                F DF 10420                     000000000  Y000000000 338   0000000000000.00 0000000.00   0000000.00                             000000000000000                                                                                                                                                     01424 G000000014803 0000000000000.29     00050 02200                  
00024070583390045DR675906759000000268498001258000000101E34BEE55B2T6EFB8EC1A8C9  Y000000014803                 P1                                                                                                                                                                                                                                                                                                                                                                                                                                                                                                                                                                                                            
00024080583390001P16759067590000002684980012580000001010000000000000000                             2000000000000000000000000              000000000000                    0000000000000000000000000                    000000000000                                                                                                                                                                                                                                                                                                                                                                                                                                                                                        
00024090583390002G2675906759000000268498001258000000101888-5133385              WY           9 D                00                                      NNNN   N                      000000000000                                                                   78220273                                                                                                                                                                                                                                                                                                                                                                                                                                               
