00006330471910002BH6759067590000000288180088880000090170518202313823000000000017407    0000090001210237Y8008886759C05192023                                                                                                                                                                                                                                                                                                                                                                                                                                                                                                                                                                                                 
00006340471910003DT67590675900000002881800888800000010180088824001193138900012102354051820230000000908413823000000000017407483313XXXXXX0264               2111111   NYV4 A7W583138456241179N840000000009084P9ZK00    01DNHAPPY HIPPIE             054008    VD84000000009084 NP1549976044904   2050                     000000000+                F DF 10420                     000000000  Y000000000 338   0000000000000.00 0000000.00   0000000.00                             000000000000000                                                                                                                                                     01424 G000000009084 0000000000000.27     00050 02200                  
00006350471910001P16759067590000000288180088880000001010000000000000000                             2000000000000000000000000              000000000000                    0000000000000000000000000                    000000000000                                                                                                                                                                                                                                                                                                                                                                                                                                                                                        
00006360471910004DT67590675900000002881800888800000010180088887287283138900012102363051820230000000548513823000000000017407517805XXXXXX6668       ME03KE06MS02      NY 4607AMWEX5JO790518  N840000000005485          81DNHAPPY HIPPIE             05839P    MC84000000005485 N  549976044904   2051                     000000000+600450S00130    MWE  00737                     000000000  N                0000000000000.00 0000000.00   0000000.00                             000000000000000                                                                                                                                                   U001424  000000000000 0000000000001.53     02600 01000                  
00006370471910005DT67590675900000002881800888800000010180088824001193138900012102370051820230000000283813823000000000017407410801XXXXXX2461               2111111   NYV4 A7W463138863728759N840000000002838858D00    01DNHAPPY HIPPIE             095932    VD84000000002838 NP1549976044904   2052                     000000000+                F DF 00415                     000000000  N000000000       0000000000000.00 0000000.00   0000000.00                             000000000000000                                                                                                                                                     01424 G000000002838 0000000000000.62     01650 01500                  
00006380471910001P16759067590000000288180088880000001010000000000000000                             2000000000000000000000000              000000000000                    0000000000000000000000000                    000000000000                                                                                                                                                                                                                                                                                                                                                                                                                                                                                        
00006390471910006BH6759067590000000370780088880000090170518202313823000000000130442    0000090001120853Y8008886759C05192023                                                                                                                                                                                                                                                                                                                                                                                                                                                                                                                                                                                                 
00006400471910007DT67590675900000003707800888800000010180088824001193138900011208434051720230000002000013823000000000130442426684XXXXXX4653               2111111   NYV4 A7W463138027901360N840000000020000PXNB00    01DNMR HEMP FLOWER           08917C    VS84000000020000 NP1549976053336   89779                    000000000+                C CC 12108                     000000000  N000000000 496   0000000000000.00 0000000.00   0000000.00                             000000000000000                                                                                                                                                     01424 G000000020000 0000000000004.20     02050 01000                  
00006410471910001P16759067590000000370780088880000001010000000000000000                             2000000000000000000000000              000000000000                    0000000000000000000000000                    000000000000                                                                                                                                                                                                                                                                                                                                                                                                                                                                                        
00006420471910008DT67590675900000003707800888800000010180088887287283138900011208443051720230000000349913823000000000130442530706XXXXXX5433       ME03KE06MS02      NY 4607AMPADDHOZ30517  N840000000003499          81DNMR HEMP FLOWER           606211    MD84000000003499 N  549976053336   89786                    000000000+600450S00130    MPA  09899                     000000000  N                0000000000000.00 0000000.00   0000000.00                             000000000000000                                                                                                                                                   U001424  000000000000 0000000000000.82     01760 02000                  
00006430471910009DT67590675900000003707800888800000010180088824001193138900011208459051720230000001470013823000000000130442413331XXXXXX0768               2111111   NYV4 A7W383138114438716N8400000000147006BPT00    01DNMR HEMP FLOWER           798103    VD84000000014700 NP1549976053336   89787                    000000000+                F DF 00415                     000000000  N000000000       0000000000000.00 0000000.00   0000000.00                             000000000000000                                                                                                                                                     01424 G000000014700 0000000000002.58     01650 01500                  
00006440471910001P16759067590000000370780088880000001010000000000000000                             2000000000000000000000000              000000000000                    0000000000000000000000000                    000000000000                                                                                                                                                                                                                                                                                                                                                                                                                                                                                        
00006450471910010DT67590675900000003707800888800000010180088824001193138900011208467051720230000002000013823000000000130442412007XXXXXX1746               2111111   NYV4 A7W303138120087410N8400000000200009PTN00    01DNMR HEMP FLOWER           046681    VD84000000020000 NP1549976053336   89788                    000000000+                F DF 00415                     000000000  N000000000       0000000000000.00 0000000.00   0000000.00                             000000000000000                                                                                                                                                     01424 G000000020000 0000000000003.45     01650 01500                  
00006460471910001P16759067590000000370780088880000001010000000000000000                             2000000000000000000000000              000000000000                    0000000000000000000000000                    000000000000                                                                                                                                                                                                                                                                                                                                                                                                                                                                                        
00006470471910011DT67590675900000003707800888800000010180088887287283138900011208476051720230000001054813823000000000130442546604XXXXXX0623       ME03KE06MS02      NY 4607AMWED7UBZ30517  N840000000010548          81DNMR HEMP FLOWER           03250P    MC84000000010548 N  549976053336   89789                    000000000+600450S00130    MWE  00737                     000000000  N                0000000000000.00 0000000.00   0000000.00                             000000000000000                                                                                                                                                   U001424  000000000000 0000000000002.84     02600 01000                  
00006480471910012DT67590675900000003707800888800000010180088887287283138900011208484051820230000003500013823000000000130442512107XXXXXX1416       ME03KE06MS02      NY 4607AMCCOH3B790518  N840000000035000          81DNMR HEMP FLOWER           01877B    MC84000000035000 N  549976053336   89799                    000000000+600450S00130    MCC  00580                     000000000  N                0000000000000.00 0000000.00   0000000.00                             000000000000000                                                                                                                                                   U001424  000000000000 0000000000007.45     02100 01000                  
00006490471910013DT67590675900000003707800888800000010180088887287283138900011208492051820230000000649913823000000000130442525363XXXXXX5794       ME03KE06MS02      NY 4607AMWEVK9K790518  N840000000006499          81DNMR HEMP FLOWER           85811Z    MC84000000006499 N  549976053336   89800                    000000000+600450S00130    MWE  00737                     000000000  N                0000000000000.00 0000000.00   0000000.00                             000000000000000                                                                                                                                                   U001424  000000000000 0000000000001.79     02600 01000                  
00006500471910014DT67590675900000003707800888800000010180088824001193138900011208509051820230000000219813823000000000130442414740XXXXXX1646               2111111   NYV4 A7W303138541650103N840000000002198QL3J00    01DNMR HEMP FLOWER           07382C    VS84000000002198 NP1549976053336   89802                    000000000+                C CC 12108                     000000000  N000000000 496   0000000000000.00 0000000.00   0000000.00                             000000000000000                                                                                                                                                     01424 G000000002198 0000000000000.55     02050 01000                  
00006510471910001P16759067590000000370780088880000001010000000000000000                             2000000000000000000000000              000000000000                    0000000000000000000000000                    000000000000                                                                                                                                                                                                                                                                                                                                                                                                                                                                                        
00006520471910015DT67590675900000003707800888800000010180088887287283138900011208518051820230000000349913823000000000130442518941XXXXXX5929       ME03KE06MS02      NY 4607AMWEDPSVN20518  N840000000003499          81DNMR HEMP FLOWER           07027Z    MC84000000003499 N  549976053336   89793                    000000000+600450S00130    MWE  00737                     000000000  N                0000000000000.00 0000000.00   0000000.00                             000000000000000                                                                                                                                                   U001424  000000000000 0000000000001.01     02600 01000                  
00006530471910016DT67590675900000003707800888800000010180088887287283138900011208526051820230000000349913823000000000130442524306XXXXXX0660       ME03KE06MS02      NY 4607AMPLPEQSQL0518  N840000000003499          81DNMR HEMP FLOWER           01835Z    MC84000000003499 N  549976053336   89810                    000000000+600450S00130    MPL  00013                     000000000  N                0000000000000.00 0000000.00   0000000.00                             000000000000000                                                                                                                                                     01424  000000000000 0000000000000.78     01950 01000                  
00006540471910017DT67590675900000003707800888800000010180088824001193138900011208533051820230000001100013823000000000130442473310XXXXXX9091               2111111   NYV4 A7W463138723584337N840000000011000VX3200    01DNMR HEMP FLOWER           498722    VD84000000011000 NP1549976053336   89811                    000000000+                F DF 10420                     000000000  Y000000000 338   0000000000000.00 0000000.00   0000000.00                             000000000000000                                                                                                                                                     01424 G000000011000 0000000000000.28     00050 02200                  
00006550471910001P16759067590000000370780088880000001010000000000000000                             2000000000000000000000000              000000000000                    0000000000000000000000000                    000000000000                                                                                                                                                                                                                                                                                                                                                                                                                                                                                        
00006560471910018BH6759067590000001516480088880000090170518202313823000000000320064    0000090001827660Y8008886759C05192023                                                                                                                                                                                                                                                                                                                                                                                                                                                                                                                                                                                                 
00006570471910019DT67590675900000015164800888800000010180088887287283138900018274109051720230000001394813823000000000320064546325XXXXXX3306       ME03KE06MS02      NY 4607AMWE0BV45J0514  N840000000013948          81DNKETOFUSION833-923-3587   05184P    MC84000000013948 N  599977360677   65736216A6TFA73B359C7F0  000000000+600450S00130    MWE  00737                     000000000  N                0000000000000.00 0000000.00   0000000.00                             000000000000000                                                                                                                                                   U001424  000000000000 0000000000003.73     02600 01000                  
00006580471910020DT67590675900000015164800888800000010180088824001193138900018274165051720230000001987013823000000000320064414734XXXXXX5975               2111111   NYV4 A7W583134402215914N840000000019870NZZ500    01DNKETOFUSION833-923-3587   02411D    VS84000000019870 NP1599977360677   8A6330654ATF2A57E520765  000000000+                D CD 12109                     000000000  N000000000 498   0000000000000.00 0000000.00   0000000.00                             000000000000000                                                                                                                                                     01424 G000000019870 0000000000005.07     02500 01000                  
00006590471910001P16759067590000001516480088880000001010000000000000000                             2000000000000000000000000              000000000000                    0000000000000000000000000                    000000000000                                                                                                                                                                                                                                                                                                                                                                                                                                                                                        
00006600471910021DT67590675900000015164800888800000010180088887287283138900018274190051720230000002487013823000000000320064515676XXXXXX3714       ME03KE06MS02      NY 4607AMWENFORV60514  N840000000024870          81DNKETOFUSION833-923-3587   00191Z    MC84000000024870 N  599977360677   BD7EB36CB1T45F7DC72EB53  000000000+600450S00130    MWE  00737                     000000000  N                0000000000000.00 0000000.00   0000000.00                             000000000000000                                                                                                                                                   U001424  000000000000 0000000000006.57     02600 01000                  
00006610471910022DT67590675900000015164800888800000010180088824001193138900018274249051720230000002487013823000000000320064410039XXXXXX5984               2111111   NYV4 A7W303134570057316N840000000024870JH6C00    01DNKETOFUSION833-923-3587   54834D    VS84000000024870 NP1599977360677   210B2816BETCA06246106B5  000000000+                D CD 12109                     000000000  N000000000 498   0000000000000.00 0000000.00   0000000.00                             000000000000000                                                                                                                                                     01424 G000000024870 0000000000006.32     02500 01000                  
00006620471910001P16759067590000001516480088880000001010000000000000000                             2000000000000000000000000              000000000000                    0000000000000000000000000                    000000000000                                                                                                                                                                                                                                                                                                                                                                                                                                                                                        
00006630471910023DT67590675900000015164800888800000010180088887287283138900018274273051720230000001987013823000000000320064552433XXXXXX4999       ME03KE06MS02      NY 4607AMPLZF706J0514  N840000000019870          81DNKETOFUSION833-923-3587   06922M    MC84000000019870 N  599977360677   82050DEDBCTF61BB840997C  000000000+600450S00130    MPL  00580                     000000000  N                0000000000000.00 0000000.00   0000000.00                             000000000000000                                                                                                                                                   U001424  000000000000 0000000000004.27     02100 01000                  
00006640471910024DT67590675900000015164800888800000010180088824001193138900018274298051720230000001194813823000000000320064419032XXXXXX5432               2111111   NYV4 A7W383134618050465N840000000011948HHS600    01DNKETOFUSION833-923-3587   021006    VD84000000011948 NP1599977360677   6DCB699E06T4B4618868A93  000000000+                F DF 10420                     000000000  Y000000000 338   0000000000000.00 0000000.00   0000000.00                             000000000000000                                                                                                                                                     01424 G000000011948 0000000000000.28     00050 02200                  
00006650471910001P16759067590000001516480088880000001010000000000000000                             2000000000000000000000000              000000000000                    0000000000000000000000000                    000000000000                                                                                                                                                                                                                                                                                                                                                                                                                                                                                        
00006660471910025DT67590675900000015164800888800000010180088824001193138900018274322051720230000001987013823000000000320064414740XXXXXX9948               2111111   NYV4 A7W303134633158966N840000000019870K22K00    01DNKETOFUSION833-923-3587   05478D    VS84000000019870 NP1599977360677   22AC800DECT18E896B8AD1F  000000000+                D CD 12109                     000000000  N000000000 498   0000000000000.00 0000000.00   0000000.00                             000000000000000                                                                                                                                                     01424 G000000019870 0000000000005.07     02500 01000                  
00006670471910001P16759067590000001516480088880000001010000000000000000                             2000000000000000000000000              000000000000                    0000000000000000000000000                    000000000000                                                                                                                                                                                                                                                                                                                                                                                                                                                                                        
00006680471910026DT67590675900000015164800888800000010180088824001193138900018274355051720230000002487013823000000000320064449210XXXXXX2126               2111111   NYV4 A7W303134678052832N840000000024870RC5L00    01DNKETOFUSION833-923-3587   005005    VD84000000024870 NP1599977360677   7714ED4C34TC0CE608D44DD  000000000+                F DF 10420                     000000000  Y000000000 338   0000000000000.00 0000000.00   0000000.00                             000000000000000                                                                                                                                                     01424 G000000024870 0000000000000.34     00050 02200                  
00006690471910001P16759067590000001516480088880000001010000000000000000                             2000000000000000000000000              000000000000                    0000000000000000000000000                    000000000000                                                                                                                                                                                                                                                                                                                                                                                                                                                                                        
00006700471910027DT67590675900000015164800888800000010180088887287283138900018274414051720230000001987013823000000000320064546633XXXXXX1667       ME03KE06PT01      NY 4607AMCWBI2T2B0514  N840000000019870          81DNKETOFUSION833-923-3587   03130Z    MC84000000019870 N  599977360677   64CBA8CF4FT8C64FB945C8F  000000000+600450S00130    MCW  00642                     000000000  N                0000000000000.00 0000000.00   0000000.00                             000000000000000                                                                                                                                                   U001424  000000000000 0000000000004.47     02200 01000                  
00006710471910028DT67590675900000015164800888800000010180088887287283138900018274422051720230000001987013823000000000320064528072XXXXXX0643       ME03KE06PT01      NY 4607AMCWMPZQ2P0514  N840000000019870          81DNKETOFUSION833-923-3587   02430S    MC84000000019870 N  599977360677   8DED526789T772282D0470A  000000000+600450S00130    MCW  02182                     000000000  N                0000000000000.00 0000000.00   0000000.00                             000000000000000                                                                                                                                                   U001424  000000000000 0000000000005.27     02600 01000                  
00006720471910029DT67590675900000015164800888800000010180088824001193138900018274439051720230000001799113823000000000320064461098XXXXXX0534               2111111   NYV4 A7W383134759066091N840000000017991D45400    01DNKETOFUSION833-923-3587   05207A    VS84000000017991 NP1599977360677   471A5C21CFT663B8CEB9F57  000000000+                A CA 12106                     000000000  N000000000 492   0000000000000.00 0000000.00   0000000.00                             000000000000000                                                                                                                                                     01424 G000000017991 0000000000003.50     01890 01000                  
00006730471910001P16759067590000001516480088880000001010000000000000000                             2000000000000000000000000              000000000000                    0000000000000000000000000                    000000000000                                                                                                                                                                                                                                                                                                                                                                                                                                                                                        
00006740471910030DT67590675900000015164800888800000010180088887287283138900018274471051720230000002487013823000000000320064551263XXXXXX9457       ME03KE06MS02      NY 4607AMDJJE7NB50514  N840000000024870          81DNKETOFUSION833-923-3587   064006    MD84000000024870 N  599977360677   C3FE3CA3FET0AC8D1119BBE  000000000+600450S00130    MDJ  00401                     000000000  N                0000000000000.00 0000000.00   0000000.00                             000000000000000                                                                                                                                                   U001424  000000000000 0000000000004.25     01650 01500                  
00006750471910031DT67590675900000015164800888800000010180088824001193138900018274512051720230000000597413823000000000320064435544XXXXXX0680               2111111   NYV4 A7W303134832384337N8400000000059745SDV00    01DNKETOFUSION833-923-3587   084128    VD84000000005974 NP1599977360677   F1CDECF2C9T079709287DCC  000000000+                F DF 10420                     000000000  Y000000000 338   0000000000000.00 0000000.00   0000000.00                             000000000000000                                                                                                                                                     01424 G000000005974 0000000000000.25     00050 02200                  
00006760471910001P16759067590000001516480088880000001010000000000000000                             2000000000000000000000000              000000000000                    0000000000000000000000000                    000000000000                                                                                                                                                                                                                                                                                                                                                                                                                                                                                        
00006770471910032DT67590675900000015164800888800000010180088887287283138900018274521051720230000002487013823000000000320064542784XXXXXX0561       ME03KE06MS02      NY 4607AMCSE76SAQ0514  N840000000024870          81DNKETOFUSION833-923-3587   014608    MC84000000024870 N  599977360677   B18D183F7FTAA7349EA3311  000000000+600450S00130    MCS  00013                     000000000  N                0000000000000.00 0000000.00   0000000.00                             000000000000000                                                                                                                                                   U001424  000000000000 0000000000004.95     01950 01000                  
00006780471910033DT67590675900000015164800888800000010180088887287283138900018274570051720230000001987013823000000000320064526947XXXXXX0534       ME03KE06PT01      NY 4607AMCWMNX0B50514  N840000000019870          81DNKETOFUSION833-923-3587   05148S    MC84000000019870 N  599977360677   AC84DBA587TEFF0D5CFF483  000000000+600450S00130    MCW  02182                     000000000  N                0000000000000.00 0000000.00   0000000.00                             000000000000000                                                                                                                                                   U001424  000000000000 0000000000005.27     02600 01000                  
00006790471910034DT67590675900000015164800888800000010180088887287283138900018274596051720230000001987013823000000000320064511786XXXXXX2225       ME03KE06MS02      NY 4607AMCSX1L06W0514  N840000000019870          81DNKETOFUSION833-923-3587   05191B    MC84000000019870 N  599977360677   1C42C8E997TB02F096F0424  000000000+600450S00130    MCS  00580                     000000000  N                0000000000000.00 0000000.00   0000000.00                             000000000000000                                                                                                                                                   U001424  000000000000 0000000000004.27     02100 01000                  
00006800471910035DT67590675900000015164800888800000010180088824001193138900018274603051720230000001394813823000000000320064426684XXXXXX4724               2111111   NYV4 A7W463135051055775N840000000013948LXZG00    01DNKETOFUSION833-923-3587   05156D    VS84000000013948 NP1599977360677   A899947591TEFA8FCFC55B4  000000000+                D CD 12109                     000000000  N000000000 498   0000000000000.00 0000000.00   0000000.00                             000000000000000                                                                                                                                                     01424 G000000013948 0000000000003.59     02500 01000                  
00006810471910001P16759067590000001516480088880000001010000000000000000                             2000000000000000000000000              000000000000                    0000000000000000000000000                    000000000000                                                                                                                                                                                                                                                                                                                                                                                                                                                                                        
00006820471910036DT67590675900000015164800888800000010180088887287283138900018274612051720230000002487013823000000000320064546616XXXXXX7417       ME03KE06PT01      NY 4607AMCWKP816X0514  N840000000024870          81DNKETOFUSION833-923-3587   45669Z    MC84000000024870 N  599977360677   A83A2A690ET2C67FC7AEECD  000000000+600450S00130    MCW  00642                     000000000  N                0000000000000.00 0000000.00   0000000.00                             000000000000000                                                                                                                                                   U001424  000000000000 0000000000005.57     02200 01000                  
00006830471910037DT67590675900000015164800888800000010180088824001193138900018274652051720230000001194813823000000000320064478923XXXXXX4865               2111111   NYV4 A7W463135132052968N840000000011948GZDS00    01DNKETOFUSION833-923-3587   004006    VD84000000011948 NP1599977360677   8A80CB74EET98E06AEEE341  000000000+                F DF 00415                     000000000  N000000000       0000000000000.00 0000000.00   0000000.00                             000000000000000                                                                                                                                                     01424 G000000011948 0000000000002.12     01650 01500                  
00006840471910001P16759067590000001516480088880000001010000000000000000                             2000000000000000000000000              000000000000                    0000000000000000000000000                    000000000000                                                                                                                                                                                                                                                                                                                                                                                                                                                                                        
00006850471910038DT67590675900000015164800888800000010680088874001193138900018276280051820230000000298713823000000000320064402348XXXXXX1121               0000000   NYV4 07T383138487820546N840000000002987G78D00    01CNKETOFUSION833-923-3587   073302    VS84000000002987 NP1599977360677   EB134BB286T7AB970847607  000000000+                C CC 00245                     000000000  N000000000 166   0000000000000.00 0000000.00   0000000.00                             000000000000000                                                                                                                                                     01424  000000002987-0000000000000.53     01760 00000                  
00006860471910001P16759067590000001516480088880000001060000000000000000                             2000000000000000000000000              000000000000                    0000000000000000000000000                    000000000000                                                                                                                                                                                                                                                                                                                                                                                                                                                                                        
00006870471910039DT67590675900000015164800888800000010680088874001193138900018276298051820230000001589613823000000000320064483950XXXXXX9658               0000000   NYV4 07T463138501072404N840000000015896SX4400    01CNKETOFUSION833-923-3587   05217A    VS84000000015896 NP1599977360677   12BC999EB3T1EEE3F8E41DF  000000000+                A CA 00245                     000000000  N000000000 166   0000000000000.00 0000000.00   0000000.00                             000000000000000                                                                                                                                                     01424  000000015896-0000000000002.80     01760 00000                  
00006880471910001P16759067590000001516480088880000001060000000000000000                             2000000000000000000000000              000000000000                    0000000000000000000000000                    000000000000                                                                                                                                                                                                                                                                                                                                                                                                                                                                                        
00006890471910040DT67590675900000015164800888800000010680088887287283138900018276393051820230000000654813823000000000320064546657XXXXXX2900                         NY 4607AMCCPQJ7I30518  N840000000006548          81CNKETOFUSION833-923-3587   083713    MC84000000006548 N  599977360677   F2F5EB13F8T991617145F9C  000000000+600450S00130    MCC  00564                     000000000  N                0000000000000.00 0000000.00   0000000.00                             000000000000000                                                                                                                                                     01424  000000000000-0000000000001.15     01750 00000                  
00006900471910041DT67590675900000015164800888800000010680088887287283138900018276401051820230000000642813823000000000320064546657XXXXXX2900                         NY 4607AMCCXTGBI90518  N840000000006428          81CNKETOFUSION833-923-3587   008919    MC84000000006428 N  599977360677   F2F5EB13F8T8ECE21CF0344  000000000+600450S00130    MCC  00564                     000000000  N                0000000000000.00 0000000.00   0000000.00                             000000000000000                                                                                                                                                     01424  000000000000-0000000000001.12     01750 00000                  
00006910471910042DT67590675900000015164800888800000010680088887287283138900018276419051820230000000519013823000000000320064546657XXXXXX2900                         NY 4607AMCCFUCYQS0518  N840000000005190          81CNKETOFUSION833-923-3587   033639    MC84000000005190 N  599977360677   F2F5EB13F8TB88BB66D9FAF  000000000+600450S00130    MCC  00564                     000000000  N                0000000000000.00 0000000.00   0000000.00                             000000000000000                                                                                                                                                     01424  000000000000-0000000000000.91     01750 00000                  
00006920471910043DT67590675900000015164800888800000010680088874001193138900018276603051820230000000695413823000000000320064447437XXXXXX2077               0000000   NY94 07N000000000000000N   000000000000          01CNKETOFUSION833-923-3587             VD84000000006954 N  599977360677                            000000000+                F DF 08168                     000000000  Y000000000 369   0000000000000.00 0000000.00   0000000.00                             000000000000000                                                                                                                                                     01424  000000000000 0000000000000.00     00000 00000                  
00006930471910044BH6759067590000001330080010280000090170518202313823000000000125472    0000090001922484Y8001026759C05192023                                                                                                                                                                                                                                                                                                                                                                                                                                                                                                                                                                                                 
00006940471910045DT67590675900000013300800102800000010180010224001193138900019219292051720230000000700413823000000000125472473703XXXXXX8538               2111111   NYV4 A7W463134256639030N840000000007004WPBC00    01DNCBD8666317293            072693    VD84000000007004 NP1549977133133   58574FDCEAT68F38086847F  000000000+                F DF 10420                     000000000  Y000000000 338   0000000000000.00 0000000.00   0000000.00                             000000000000000                                                                                                                                                     01424 G000000007004 0000000000000.26     00050 02200                  
00006950471910001P16759067590000001330080010280000001010000000000000000                             2000000000000000000000000              000000000000                    0000000000000000000000000                    000000000000                                                                                                                                                                                                                                                                                                                                                                                                                                                                                        
00006960471910046DT67590675900000013300800102800000010180010287287283138900019219368051720230000001907013823000000000125472537933XXXXXX7503       ME03KE06MS02      NY 4607AMDJOZRYV60514  N840000000019070          81DNCBD8666317293            807150    MD84000000019070 N  549977133133   869AB7744FT7CBFEC2C8B54  000000000+600450S00130    MDJ  00401                     000000000  N                0000000000000.00 0000000.00   0000000.00                             000000000000000                                                                                                                                                   U001424  000000000000 0000000000003.30     01650 01500                  
00006970471910047DT67590675900000013300800102800000010180010287287283138900019219483051720230000002136013823000000000125472534860XXXXXX2622                         NY 4607AMDBEI8ZV70514  N840000000021360          81DNCBD8666317293            140526    MD84000000021360 NP1549977133133                            000000000+600450S00130    MDB  10788                     000000000  1                0000000000000.00 0000000.00   0000000.00                             000000000000000                                                                                                                                                   U001424  000000000000 0000000000000.33     00050 02200                  
00006980471910001P1675906759000000133008001028000000101                                                 000001490000000000000          8000   000000000871584967            000000000000                                                                                                                                                                                                                                                                                                                                                                                                                                                                                                                                    
00006990471910048DT67590675900000013300800102800000010180010287287283138900019219533051720230000001276513823000000000125472533248XXXXXX3767       ME03KE06MS02      NY 4607AMPVNXGUXV0514  N840000000012765          81DNCBD8666317293            BRFSU9    MD84000000012765 N  549977133133   6B4A79DC13T5994DFD4AAD7  000000000+600450S00130    MPV  09899                     000000000  N                0000000000000.00 0000000.00   0000000.00                             000000000000000                                                                                                                                                   U001424  000000000000 0000000000002.45     01760 02000                  
00007000471910049DT67590675900000013300800102800000010180010287287283138900019219715051720230000001987013823000000000125472546604XXXXXX7117       ME03KE06MS02      NY 4607AMWEM7J1AP0514  N840000000019870          81DNCBD8666317293            06761P    MC84000000019870 N  549977133133   A420CA6DA4T9E98204DC422  000000000+600450S00130    MWE  00737                     000000000  N                0000000000000.00 0000000.00   0000000.00                             000000000000000                                                                                                                                                   U001424  000000000000 0000000000005.27     02600 01000                  
00007010471910050DT67590675900000013300800102800000010180010224001193138900019219805051720230000002126113823000000000125472403623XXXXXX0646               2111111   NYV4 A7W303134768056305N840000000021261D7T300    01DNCBD8666317293            087951    VD84000000021261 NP1549977133133   1D1A14D650T8AFE0C386368  000000000+                G DG 10352                     000000000  Y000000000 338   0000000000000.00 0000000.00   0000000.00                             000000000000000                                                                                                                                                     01424 G000000021261 0000000000000.33     00050 02200                  
00007020471910001P16759067590000001330080010280000001010000000000000000                             1000000001391000000000000              000000000000                    0000000000000000000000000                    000000000000                                                                                                                                                                                                                                                                                                                                                                                                                                                                                        
00007030471910051DT67590675900000013300800102800000010180010224001193138900019220142051720230000002179713823000000000125472472356XXXXXX6822               2111111   NYV4 A7W303134829322979N840000000021797JVF400    01DNCBD8666317293            334542    VD84000000021797 NP1549977133133   8A3EA4E46FT6A4B22568429  000000000+                F DF 00415                     000000000  N000000000       0000000000000.00 0000000.00   0000000.00                             000000000000000                                                                                                                                                     01424 G000000021797 0000000000003.75     01650 01500                  
00007040471910001P16759067590000001330080010280000001010000000000000000                             2000000000000000000000000              000000000000                    0000000000000000000000000                    000000000000                                                                                                                                                                                                                                                                                                                                                                                                                                                                                        
00007050471910052DT67590675900000013300800102800000010180010287287283138900019220150051720230000001596513823000000000125472529873XXXXXX6185       ME03KE06MS02      NY 4607AMCSK1J0B50514  N840000000015965          81DNCBD8666317293            T03807    MC84000000015965 N  549977133133   C02F5015ACTD79C3E25345A  000000000+600450S00130    MCS  00013                     000000000  N                0000000000000.00 0000000.00   0000000.00                             000000000000000                                                                                                                                                   U001424  000000000000 0000000000003.21     01950 01000                  
00007060471910053DT67590675900000013300800102800000010180010224001193138900019220381051720230000002106213823000000000125472444607XXXXXX7749               2111111   NYV4 A7W463135033053220N840000000021062X7CF00    01DNCBD8666317293            W5VVSQ    VD84000000021062 NP1549977133133   89580FA6D7T176A8D431A7F  000000000+                G PG 10179                     000000000  N000000000 364   0000000000000.00 0000000.00   0000000.00                             000000000000000                                                                                                                                                     01424 G000000021062 0000000000005.68     02650 01000                  
00007070471910001P16759067590000001330080010280000001010000000000000000                             1000000001192000000000000              000000000000                    0000000000000000000000000                    000000000000                                                                                                                                                                                                                                                                                                                                                                                                                                                                                        
00007080471910054DT67590675900000013300800102800000010180010224001193138900019223765051720230000000019913823000000000125472408544XXXXXX1569               2111111   NYV4 A7W303138000076564N840000000000199Z67600    01DNCBD8666317293            676520    VB84000000000199 NP1549977133133   44DE57CCECT6B51903031BD  000000000+                K CK 00691                     000000000  N000000000 234   0000000000000.00 0000000.00   0000000.00                             000000000000000                                                                                                                                                     01424 G000000000199 0000000000000.15     02700 01000                  
00007090471910001P16759067590000001330080010280000001010000000000000000                             2000000000000000000000000              000000000000                    0000000000000000000000000                    000000000000                                                                                                                                                                                                                                                                                                                                                                                                                                                                                        
00007100471910055DT67590675900000013300800102800000010180010224001193138900019223781051720230000000019913823000000000125472428803XXXXXX6905               2111111   NYV4 A7W583138016384433N840000000000199QWJ700    01DNCBD8666317293            803250    VD84000000000199 NP1549977133133   BA84E511BFT3DF70959E731  000000000+                S PS 10179                     000000000  N000000000 364   0000000000000.00 0000000.00   0000000.00                             000000000000000                                                                                                                                                     01424 G000000000199 0000000000000.15     02650 01000                  
00007110471910001P16759067590000001330080010280000001010000000000000000                             2000000000000000000000000              000000000000                    0000000000000000000000000                    000000000000                                                                                                                                                                                                                                                                                                                                                                                                                                                                                        
00007120471910056DT67590675900000013300800102800000010180010224001193138900019223799051720230000000019913823000000000125472440393XXXXXX9900               2111111   NYV4 A7W463138021797587N8400000000001992VCT00    01DNCBD8666317293            718380    VD84000000000199 NP1549977133133   B6665B12FFTF79C3C726B7E  000000000+                F PF 08175                     000000000  N000000000       0000000000000.00 0000000.00   0000000.00                             000000000000000                                                                                                                                                     01424 G000000000199 0000000000000.23     01750 02000                  
00007130471910001P16759067590000001330080010280000001010000000000000000                             2000000000000000000000000              000000000000                    0000000000000000000000000                    000000000000                                                                                                                                                                                                                                                                                                                                                                                                                                                                                        
00007140471910057DT67590675900000013300800102800000010180010224001193138900019223807051720230000000019913823000000000125472412076XXXXXX3458               2111111   NYV4 A7W463138022249120N840000000000199XGKM00    01DNCBD8666317293            046930    VS84000000000199 NP1549977133133   070731D80BT541517C46AEC  000000000+                A CA 12106                     000000000  N000000000 492   0000000000000.00 0000000.00   0000000.00                             000000000000000                                                                                                                                                     01424 G000000000199 0000000000000.14     01890 01000                  
00007150471910001P16759067590000001330080010280000001010000000000000000                             2000000000000000000000000              000000000000                    0000000000000000000000000                    000000000000                                                                                                                                                                                                                                                                                                                                                                                                                                                                                        
00007160471910058DT67590675900000013300800102800000010180010224001193138900019223815051720230000000019913823000000000125472451946XXXXXX5693               2111111   NYV4 A7W463138023475579N840000000000199BRTJ00    01DNCBD8666317293            VJ8TJA    VS84000000000199 NP1549977133133   10F4052988TCD39B7975882  000000000+                A CA 12106                     000000000  N000000000 492   0000000000000.00 0000000.00   0000000.00                             000000000000000                                                                                                                                                     01424 G000000000199 0000000000000.14     01890 01000                  
00007170471910001P16759067590000001330080010280000001010000000000000000                             2000000000000000000000000              000000000000                    0000000000000000000000000                    000000000000                                                                                                                                                                                                                                                                                                                                                                                                                                                                                        
00007180471910059DT67590675900000013300800102800000010180010224001193138900019223831051720230000000019913823000000000125472428813XXXXXX6897               2111111   NYV4 A7W463138030032525N8400000000001994ZBW00    01DNCBD8666317293            974891    VB84000000000199 NP1549977133133   4EAEC04A40TC498FD384496  000000000+                S CS 00692                     000000000  N000000000 237   0000000000000.00 0000000.00   0000000.00                             000000000000000                                                                                                                                                     01424 G000000000199 0000000000000.15     02700 01000                  
00007190471910001P16759067590000001330080010280000001010000000000000000                             2000000000000000000000000              000000000000                    0000000000000000000000000                    000000000000                                                                                                                                                                                                                                                                                                                                                                                                                                                                                        
00007200471910060DT67590675900000013300800102800000010180010224001193138900019223849051720230000000019913823000000000125472428803XXXXXX4035               2111111   NYV4 A7W383138033658321N8400000000001993L3F00    01DNCBD8666317293            382793    VD84000000000199 NP1549977133133   C9C5E42DA8TF0E6FACAB1EC  000000000+                S PS 10179                     000000000  N000000000 364   0000000000000.00 0000000.00   0000000.00                             000000000000000                                                                                                                                                     01424 G000000000199 0000000000000.15     02650 01000                  
00007210471910001P16759067590000001330080010280000001010000000000000000                             2000000000000000000000000              000000000000                    0000000000000000000000000                    000000000000                                                                                                                                                                                                                                                                                                                                                                                                                                                                                        
00007220471910061DT67590675900000013300800102800000010180010224001193138900019223856051720230000000019913823000000000125472441112XXXXXX6431               2111111   NYV4 A7W383138039033259N840000000000199GSMP00    01DNCBD8666317293            H4TOHU    VD84000000000199 NP1549977133133   13CE54B513TFAC767ED8161  000000000+                S PS 10179                     000000000  N000000000 364   0000000000000.00 0000000.00   0000000.00                             000000000000000                                                                                                                                                     01424 G000000000199 0000000000000.15     02650 01000                  
00007230471910001P16759067590000001330080010280000001010000000000000000                             2000000000000000000000000              000000000000                    0000000000000000000000000                    000000000000                                                                                                                                                                                                                                                                                                                                                                                                                                                                                        
00007240471910062DT67590675900000013300800102800000010180010224001193138900019223864051720230000000019913823000000000125472485997XXXXXX3080               2111111   NYV4 A7W383138045112407N840000000000199X9FQ00    01DNCBD8666317293            64X6XM    VB84000000000199 NP1549977133133   56C890E59DT8C96118B8FD3  000000000+                S CS 00692                     000000000  N000000000 237   0000000000000.00 0000000.00   0000000.00                             000000000000000                                                                                                                                                     01424 G000000000199 0000000000000.15     02700 01000                  
00007250471910001P16759067590000001330080010280000001010000000000000000                             2000000000000000000000000              000000000000                    0000000000000000000000000                    000000000000                                                                                                                                                                                                                                                                                                                                                                                                                                                                                        
00007260471910063DT67590675900000013300800102800000010180010287287283138900019223881051720230000000019913823000000000125472524897XXXXXX2067                         NY 4607AMCOCGSSZ30517  N840000000000199          81DNCBD8666317293            B4TROW    MB84000000000199 NP1549977133133   5D1283BB02T8F4C11B86241  000000000+600450S00130    MCO  00303                     000000000  N                0000000000000.00 0000000.00   0000000.00                             000000000000000                                                                                                                                                   U001424  000000000000 0000000000000.15     02700 01000                  
00007270471910001P1675906759000000133008001028000000101                                                          000000000000          8000            871584967                                                                                                                                                                                                                                                                                                                                                                                                                                                                                                                                                            
00007280471910064DT67590675900000013300800102800000010180010224001193138900019223898051720230000000019913823000000000125472485932XXXXXX7788               2111111   NYV4 A7W303138064882523N840000000000199D4VD00    01DNCBD8666317293            836621    VB84000000000199 NP1549977133133   A2A65BCC35T4D83F955C3FD  000000000+                S CS 00692                     000000000  N000000000 237   0000000000000.00 0000000.00   0000000.00                             000000000000000                                                                                                                                                     01424 G000000000199 0000000000000.15     02700 01000                  
00007290471910001P16759067590000001330080010280000001010000000000000000                             2000000000000000000000000              000000000000                    0000000000000000000000000                    000000000000                                                                                                                                                                                                                                                                                                                                                                                                                                                                                        
00007300471910065DT67590675900000013300800102800000010180010287287283138900019223907051720230000000019913823000000000125472524897XXXXXX9082                         NY 4607AMCOQ7C2ZS0517  N840000000000199          81DNCBD8666317293            KM80BN    MB84000000000199 NP1549977133133   D8BD9C52BDT278DDF6AC336  000000000+600450S00130    MCO  00303                     000000000  N                0000000000000.00 0000000.00   0000000.00                             000000000000000                                                                                                                                                   U001424  000000000000 0000000000000.15     02700 01000                  
00007310471910001P1675906759000000133008001028000000101                                                          000000000000          8000            871584967                                                                                                                                                                                                                                                                                                                                                                                                                                                                                                                                                            
00007320471910066DT67590675900000013300800102800000010180010287287283138900019223915051720230000000019913823000000000125472556150XXXXXX9753                         NY 4607AMCFV2GHZ20517  N840000000000199          81DNCBD8666317293            JE1YWY    MB84000000000199 NP1549977133133   C18B49459DTD79E50BC91A2  000000000+600450S00130    MCF  00060                     000000000  N                0000000000000.00 0000000.00   0000000.00                             000000000000000                                                                                                                                                     01424  000000000000 0000000000000.16     02950 01000                  
00007330471910001P1675906759000000133008001028000000101                                                          000000000000          8000            871584967                                                                                                                                                                                                                                                                                                                                                                                                                                                                                                                                                            
00007340471910067DT67590675900000013300800102800000010180010287287283138900019223956051720230000000019913823000000000125472531993XXXXXX8432                         NY 4607AMCPYHQSBC0517  N840000000000199          81DNCBD8666317293            08R4N5    MB84000000000199 NP1549977133133   B3C7B2FC27T8997063518AB  000000000+600450S00130    MCP  00303                     000000000  N                0000000000000.00 0000000.00   0000000.00                             000000000000000                                                                                                                                                   U001424  000000000000 0000000000000.15     02700 01000                  
00007350471910001P1675906759000000133008001028000000101                                                          000000000000          8000            871584967                                                                                                                                                                                                                                                                                                                                                                                                                                                                                                                                                            
00007360471910068DT67590675900000013300800102800000010680010274001193138900019223976051720230000000149513823000000000125472410039XXXXXX7006               0000000   NYV4 07T583138132345756N840000000001495KTSP00    01CNCBD8666317293            20167A    VS84000000001495 NP1549977133133   F6D755B077T4B207BE25A8D  000000000+                A CA 00245                     000000000  N000000000 166   0000000000000.00 0000000.00   0000000.00                             000000000000000                                                                                                                                                     01424  000000001495-0000000000000.26     01760 00000                  
00007370471910001P16759067590000001330080010280000001060000000000000000                             2000000000000000000000000              000000000000                    0000000000000000000000000                    000000000000                                                                                                                                                                                                                                                                                                                                                                                                                                                                                        
00007380471910069DT67590675900000013300800102800000010680010274001193138900019223984051720230000000129513823000000000125472410039XXXXXX7006               0000000   NYV4 07T303138132414930N840000000001295LRD600    01CNCBD8666317293            20807A    VS84000000001295 NP1549977133133   F6D755B077T62F66F3891A1  000000000+                A CA 00245                     000000000  N000000000 166   0000000000000.00 0000000.00   0000000.00                             000000000000000                                                                                                                                                     01424  000000001295-0000000000000.23     01760 00000                  
00007390471910001P16759067590000001330080010280000001060000000000000000                             2000000000000000000000000              000000000000                    0000000000000000000000000                    000000000000                                                                                                                                                                                                                                                                                                                                                                                                                                                                                        
00007400471910070DT67590675900000013300800102800000010680010287287283138900019224137051820230000001619013823000000000125472518941XXXXXX9868                         NY 4607AMWEURBVE10518  N840000000016190          81CNCBD8666317293            853947    MC84000000016190 N  549977133133   FD8BF7A7C5T17E051205611  000000000+600450S00130    MWE  00565                     000000000  N                0000000000000.00 0000000.00   0000000.00                             000000000000000                                                                                                                                                     01424  000000000000-0000000000002.83     01750 00000                  
00007410471910071DT67590675900000013300800102800000010680010274001193138900019224149051820230000001499113823000000000125472424631XXXXXX3851               0000000   NYV4 07T463138360818898N840000000014991SD7700    01CNCBD8666317293            03638G    VB84000000014991 NP1549977133133   50C699E826T0D472AE9294B  000000000+                G4CG400246                     000000000  N000000000 167   0000000000000.00 0000000.00   0000000.00                             000000000000000                                                                                                                                                     01424  000000014991-0000000000003.52     02350 00000                  
00007420471910001P16759067590000001330080010280000001060000000000000000                             2000000000000000000000000              000000000000                    0000000000000000000000000                    000000000000                                                                                                                                                                                                                                                                                                                                                                                                                                                                                        
00007430471910072DT67590675900000013300800102800000010680010274001193138900019224156051820230000001499113823000000000125472424631XXXXXX3851               0000000   NYV4 07T383138360924395N840000000014991VLXZ00    01CNCBD8666317293            03991G    VB84000000014991 NP1549977133133   19F2B35C8CT8ABF55B5AF7D  000000000+                G4CG400246                     000000000  N000000000 167   0000000000000.00 0000000.00   0000000.00                             000000000000000                                                                                                                                                     01424  000000014991-0000000000003.52     02350 00000                  
00007440471910001P16759067590000001330080010280000001060000000000000000                             2000000000000000000000000              000000000000                    0000000000000000000000000                    000000000000                                                                                                                                                                                                                                                                                                                                                                                                                                                                                        
00007450471910073DT67590675900000013300800102800000010680010274001193138900019224164051820230000001499113823000000000125472424631XXXXXX3851               0000000   NYV4 07T463138396695272N8400000000149915SLV00    01CNCBD8666317293            03284G    VB84000000014991 NP1549977133133   88F497C721T9E2CBE7F5A09  000000000+                G4CG400246                     000000000  N000000000 167   0000000000000.00 0000000.00   0000000.00                             000000000000000                                                                                                                                                     01424  000000014991-0000000000003.52     02350 00000                  
00007460471910001P16759067590000001330080010280000001060000000000000000                             2000000000000000000000000              000000000000                    0000000000000000000000000                    000000000000                                                                                                                                                                                                                                                                                                                                                                                                                                                                                        
00007470471910074DT67590675900000013300800102800000010680010287287283138900019224178051820230000001648313823000000000125472559765XXXXXX7530                         NY 4607AMDJU4N4790518  N840000000016483          81CNCBD8666317293            028369    MD84000000016483 N  549977133133   5C75F7B98BTA38277E5E494  000000000+600450S00130    MDJ  00560                     000000000  N                0000000000000.00 0000000.00   0000000.00                             000000000000000                                                                                                                                                     01424  000000000000 0000000000000.00     00000 00000                  
00007480471910075DT67590675900000013300800102800000010180010224001193138900019224193051820230000001069813823000000000125472483950XXXXXX5288               2111111   NYV4 A7W303138525426016N840000000010698T7BC00    01DNCBD8666317293            06290D    VS84000000010698 NP1549977133133   6C60D00ADBT1F4A3EF7A5D9  000000000+                D CD 12109                     000000000  N000000000 498   0000000000000.00 0000000.00   0000000.00                             000000000000000                                                                                                                                                     01424 G000000010698 0000000000002.77     02500 01000                  
00007490471910001P16759067590000001330080010280000001010000000000000000                             2000000000000000000000000              000000000000                    0000000000000000000000000                    000000000000                                                                                                                                                                                                                                                                                                                                                                                                                                                                                        
00007500471910076DT67590675900000013300800102800000010680010287287283138900019224202051820230000000487913823000000000125472552869XXXXXX8752                         NY 4607AMABMGZ8N20518  N840000000004879          81CNCBD8666317293            017269    MB84000000004879 NP1549977133133   76C7AFFD36TA08502BE6702  000000000+600450S00130    MAB  00566                     000000000  N                0000000000000.00 0000000.00   0000000.00                             000000000000000                                                                                                                                                     01424  000000000000-0000000000001.16     02370 00000                  
00007510471910001P1675906759000000133008001028000000106                                                          000000000000          8000            871584967                                                                                                                                                                                                                                                                                                                                                                                                                                                                                                                                                            
00007520471910077DT67590675900000013300800102800000010680010287287283138900019224228051820230000002126113823000000000125472542539XXXXXX1666                         NY 4607AMPLC49EN20518  N840000000021261          81CNCBD8666317293            018862    MC84000000021261 N  549977133133   792ADFDE34T6983FC7A69BC  000000000+600450S00130    MPL  00565                     000000000  N                0000000000000.00 0000000.00   0000000.00                             000000000000000                                                                                                                                                     01424  000000000000-0000000000003.72     01750 00000                  
00007530471910078DT67590675900000013300800102800000010680010287287283138900019224236051820230000001987013823000000000125472526218XXXXXX8987                         NY 4607AMDSZEXIE10518  N840000000019870          81CNCBD8666317293            204446    MD84000000019870 N  549977133133   4095250BB3T5C741ECBFB6C  000000000+600450S00130    MDS  10828                     000000000  1                0000000000000.00 0000000.00   0000000.00                             000000000000000                                                                                                                                                     01424  000000000000 0000000000000.00     00000 00000                  
00007540471910079DT67590675900000013300800102800000010680010276509753138900019224266051820230000002672913823000000000125472601100XXXXXX0679   BA00                  NY 4 07N873118827351592N840000000026729    00    01CNCBD8666317293            01866R    DS84000000026729 N  549977133133070                         000000000+1015104910600   DCCDI01022668686  114534200000 000000000  0          134   0000000000000.00 0000000.00   0000000.00                             000000000000000                                                                                                                                                     01424  000000000000-0000000000004.68     01750 00000                  
00007550471910080DT67590675900000013300800102800000010180010224001193138900019224284051820230000000159613823000000000125472448233XXXXXX4850               2111111   NYV4 A7W583138609180548N840000000001596B3F300    01DNCBD8666317293            015518    VD84000000001596 NP1549977133133   69EE131883T8CE7E7863467  000000000+                F DF 10420                     000000000  Y000000000 338   0000000000000.00 0000000.00   0000000.00                             000000000000000                                                                                                                                                     01424 G000000001596 0000000000000.23     00050 02200                  
00007560471910001P16759067590000001330080010280000001010000000000000000                             2000000000000000000000000              000000000000                    0000000000000000000000000                    000000000000                                                                                                                                                                                                                                                                                                                                                                                                                                                                                        
00007570471910081DT67590675900000013300800102800000010180010287287283138900019224327051820230000001987013823000000000125472521333XXXXXX3108       ME03KE06MS02      NY 4607AMWEPYDYI90518  N840000000019870          81DNCBD8666317293            01812Y    MC84000000019870 N  549977133133   3B05BA40B0TD7D094F6E5C2  000000000+600450S00130    MWE  00642                     000000000  N                0000000000000.00 0000000.00   0000000.00                             000000000000000                                                                                                                                                   U001424  000000000000 0000000000004.47     02200 01000                  
00007580471910082DT67590675900000013300800102800000010180010224001193138900019224383051820230000002126113823000000000125472460580XXXXXX5962               2111111   NYV4 A7W583138659217881N840000000021261BL3300    01DNCBD8666317293            684159    VS84000000021261 NP1549977133133   55E5293135TCFF01D6C3FA9  000000000+                B CB 12107                     000000000  N000000000 494   0000000000000.00 0000000.00   0000000.00                             000000000000000                                                                                                                                                     01424 G000000021261 0000000000004.44     02040 01000                  
00007590471910001P16759067590000001330080010280000001010000000000000000                             2000000000000000000000000              000000000000                    0000000000000000000000000                    000000000000                                                                                                                                                                                                                                                                                                                                                                                                                                                                                        
00007600471910083DT67590675900000013300800102800000010680010274001193138900019224396051820230000002709613823000000000125472414709XXXXXX6655               0000000   NYV4 07T383138670724916N840000000027096VX4985    01CNCBD8666317293            084447    VS84000000027096 NP1549977133133   6C12AE98A6T239461F2C99C  000000000+                D CD 00245                     000000000  N000000000 166   0000000000000.00 0000000.00   0000000.00                             000000000000000                                                                                                                                                     01424  000000027096-0000000000004.77     01760 00000                  
00007610471910001P16759067590000001330080010280000001060000000000000000                             2000000000000000000000000              000000000000                    0000000000000000000000000                    000000000000                                                                                                                                                                                                                                                                                                                                                                                                                                                                                        
00007620471910084DT67590675900000013300800102800000010680010287287283138900019224400051820230000000861413823000000000125472517805XXXXXX8531                         NY 4607AMPLKUZUI30518  N840000000008614          81CNCBD8666317293            035516    MC84000000008614 N  549977133133   11BA3F9D0DT79A9441A9752  000000000+600450S00130    MPL  00565                     000000000  N                0000000000000.00 0000000.00   0000000.00                             000000000000000                                                                                                                                                     01424  000000000000-0000000000001.51     01750 00000                  
00007630471910085DT67590675900000013300800102800000010180010287287283138900019224517051820230000001499113823000000000125472517805XXXXXX4920       ME03KE06MS02      NY 4607AMPLRVYXQL0518  N840000000014991          81DNCBD8666317293            01190B    MC84000000014991 N  549977133133   CBEB0B8F37T97FC2DCFD484  000000000+600450S00130    MPL  00580                     000000000  N                0000000000000.00 0000000.00   0000000.00                             000000000000000                                                                                                                                                   U001424  000000000000 0000000000003.25     02100 01000                  
00007640471910086DT67590675900000013300800102800000010180010287287283138900019224525051820230000002487013823000000000125472510875XXXXXX4358       ME03KE06PT01      NY 4607AMCWR8NPQL0518  N840000000024870          81DNCBD8666317293            00125S    MC84000000024870 N  549977133133   6AEB5C950FT7F01EB39108B  000000000+600450S00130    MCW  02182                     000000000  N                0000000000000.00 0000000.00   0000000.00                             000000000000000                                                                                                                                                   U001424  000000000000 0000000000006.57     02600 01000                  
00007650471910087DT67590675900000013300800102800000010180010224001193138900019224532051820230000001987013823000000000125472440066XXXXXX0355               2111111   NYV4 A7W383138756049880N8400000000198704N8J00    01DNCBD8666317293            05519D    VS84000000019870 NP1549977133133   166EFBCE9AT0C8ADD8B7D7F  000000000+                D CD 12109                     000000000  N000000000 498   0000000000000.00 0000000.00   0000000.00                             000000000000000                                                                                                                                                     01424 G000000019870 0000000000005.07     02500 01000                  
00007660471910001P16759067590000001330080010280000001010000000000000000                             2000000000000000000000000              000000000000                    0000000000000000000000000                    000000000000                                                                                                                                                                                                                                                                                                                                                                                                                                                                                        
00007670471910088DT67590675900000013300800102800000010180010224001193138900019224698051820230000001097313823000000000125472444796XXXXXX4923               2111111   NYV4 A7W303138787103316N840000000010973Q69D00    01DNCBD8666317293            018103    VS84000000010973 NP1549977133133   89DF056818T9C87FBFF89D0  000000000+                A CA 12106                     000000000  N000000000 492   0000000000000.00 0000000.00   0000000.00                             000000000000000                                                                                                                                                     01424 G000000010973 0000000000002.17     01890 01000                  
00007680471910001P16759067590000001330080010280000001010000000000000000                             2000000000000000000000000              000000000000                    0000000000000000000000000                    000000000000                                                                                                                                                                                                                                                                                                                                                                                                                                                                                        
00007690471910089DT67590675900000013300800102800000010180010224001193138900019224771051820230000001102813823000000000125472411238XXXXXX7184               2111111   NYV4 A7W303138822426355N840000000011028QD9K00    01DNCBD8666317293            458917    VD84000000011028 NP1549977133133   07F431A014T861817494BEC  000000000+                F PF 08175                     000000000  N000000000       0000000000000.00 0000000.00   0000000.00                             000000000000000                                                                                                                                                     01424 G000000011028 0000000000002.13     01750 02000                  
00007700471910001P16759067590000001330080010280000001010000000000000000                             2000000000000000000000000              000000000000                    0000000000000000000000000                    000000000000                                                                                                                                                                                                                                                                                                                                                                                                                                                                                        
00007710471910090DT67590675900000013300800102800000010180010224001193138900019224813051820230000000341113823000000000125472410039XXXXXX0508               2111111   NYV4 A7W383138835346938N8400000000034116XKL00    01DNCBD8666317293            69887D    VS84000000003411 NP1549977133133   7EAB0696FAT9FBD3ADBC12B  000000000+                D CD 12109                     000000000  N000000000 498   0000000000000.00 0000000.00   0000000.00                             000000000000000                                                                                                                                                     01424 G000000003411 0000000000000.95     02500 01000                  
00007720471910001P16759067590000001330080010280000001010000000000000000                             2000000000000000000000000              000000000000                    0000000000000000000000000                    000000000000                                                                                                                                                                                                                                                                                                                                                                                                                                                                                        
00007730471910091DT67590675900000013300800102800000010180010287287283138900019224848051820230000001284913823000000000125472512107XXXXXX8547       ME03KE06PT01      NY 4607AMCWYCQSSS0518  N840000000012849          81DNCBD8666317293            01838P    MC84000000012849 N  549977133133   5E63440567T73101EEA0081  000000000+600450S00130    MCW  00642                     000000000  N                0000000000000.00 0000000.00   0000000.00                             000000000000000                                                                                                                                                   U001424  000000000000 0000000000002.93     02200 01000                  
00007740471910092BH6759067590000001427480010280000090170518202313823000000000276252    0000090001921920Y8001026759C05192023                                                                                                                                                                                                                                                                                                                                                                                                                                                                                                                                                                                                 
