00005420114450002BH6759067590000000370780088880000090170503202312323000000000101888    0000090001970688Y8008886759C05042023                                                                                                                                                                                                                                                                                                                                                                                                                                                                                                                                                                                                 
00005430114450003DT67590675900000003707800888800000010180088887287283123900019706775050320230000000449912323000000000101888515327XXXXXX4891       ME03KE06MS02      NY 4607AMDJMMSGAB0503  N840000000004499          81DNMR HEMP FLOWER           715458    MD84000000004499 N  549976053336   89268                    000000000+600450S00130    MDJ  00401                     000000000  N                0000000000000.00 0000000.00   0000000.00                             000000000000000                                                                                                                                                   U001424  000000000000 0000000000000.89     01650 01500                  
00005440114450004DT67590675900000003707800888800000010180088824001193123900019706782050320230000000349912323000000000101888406032XXXXXX1261               2111111   NYV4 A7W383123476348949N8400000000034995WKF00    01DNMR HEMP FLOWER           041309    VD84000000003499 NP1549976053336   89270                    000000000+                F DF 10420                     000000000  Y000000000 338   0000000000000.00 0000000.00   0000000.00                             000000000000000                                                                                                                                                     01424 G000000003499 0000000000000.24     00050 02200                  
00005450114450001P16759067590000000370780088880000001010000000000000000                             2000000000000000000000000              000000000000                    0000000000000000000000000                    000000000000                                                                                                                                                                                                                                                                                                                                                                                                                                                                                        
00005460114450005DT67590675900000003707800888800000010180088824001193123900019706790050320230000000549912323000000000101888448261XXXXXX3039               2111111   NYV4 A7W463123539823077N840000000005499Q83H00    01DNMR HEMP FLOWER           002528    VD84000000005499 NP1549976053336   89276                    000000000+                F DF 10420                     000000000  Y000000000 338   0000000000000.00 0000000.00   0000000.00                             000000000000000                                                                                                                                                     01424 G000000005499 0000000000000.25     00050 02200                  
00005470114450001P16759067590000000370780088880000001010000000000000000                             2000000000000000000000000              000000000000                    0000000000000000000000000                    000000000000                                                                                                                                                                                                                                                                                                                                                                                                                                                                                        
00005480114450006DT67590675900000003707800888800000010180088824001193123900019706808050320230000000749912323000000000101888419002XXXXXX7742               2111111   NYV4 A7W583123581706669N840000000007499FS9L00    01DNMR HEMP FLOWER           025436    VD84000000007499 NP1549976053336   89279                    000000000+                F DF 10420                     000000000  Y000000000 338   0000000000000.00 0000000.00   0000000.00                             000000000000000                                                                                                                                                     01424 G000000007499 0000000000000.26     00050 02200                  
00005490114450001P16759067590000000370780088880000001010000000000000000                             2000000000000000000000000              000000000000                    0000000000000000000000000                    000000000000                                                                                                                                                                                                                                                                                                                                                                                                                                                                                        
00005500114450007DT67590675900000003707800888800000010180088887287283123900019706817050320230000000449912323000000000101888533248XXXXXX2878       ME03KE06MS02      NY 4607AMPVAJQJAC0503  N840000000004499          81DNMR HEMP FLOWER           AC5YG1    MD84000000004499 N  549976053336   89280                    000000000+600450S00130    MPV  09899                     000000000  N                0000000000000.00 0000000.00   0000000.00                             000000000000000                                                                                                                                                   U001424  000000000000 0000000000000.99     01760 02000                  
00005510114450008DT67590675900000003707800888800000010180088887287283123900019706825050320230000000649912323000000000101888515676XXXXXX7904       ME03KE06MS02      NY 4607AMWEGZ7M990503  N840000000006499          81DNMR HEMP FLOWER           02685Z    MC84000000006499 N  549976053336   89290                    000000000+600450S00130    MWE  00737                     000000000  N                0000000000000.00 0000000.00   0000000.00                             000000000000000                                                                                                                                                   U001424  000000000000 0000000000001.79     02600 01000                  
00005520114450009DT67590675900000003707800888800000010180088887287283123900019706841050320230000000939912323000000000101888533248XXXXXX1201       ME03KE06MS02      NY 4607AMPV34B4910503  N840000000009399          81DNMR HEMP FLOWER           ADWZTV    MD84000000009399 N  549976053336   89296                    000000000+600450S00130    MPV  09899                     000000000  N                0000000000000.00 0000000.00   0000000.00                             000000000000000                                                                                                                                                   U001424  000000000000 0000000000001.85     01760 02000                  
00005530114450010DT67590675900000003707800888800000010180088824001193123900019706857050320230000003250012323000000000101888426684XXXXXX5690               2111111   NYV4 A7W383123687298043N840000000032500S9M700    01DNMR HEMP FLOWER           05890C    VS84000000032500 NP1549976053336   89297                    000000000+                C CC 12108                     000000000  N000000000 496   0000000000000.00 0000000.00   0000000.00                             000000000000000                                                                                                                                                     01424 G000000032500 0000000000006.76     02050 01000                  
00005540114450001P16759067590000000370780088880000001010000000000000000                             2000000000000000000000000              000000000000                    0000000000000000000000000                    000000000000                                                                                                                                                                                                                                                                                                                                                                                                                                                                                        
00005550114450011DT67590675900000003707800888800000010180088824001193123900019706865050320230000000649912323000000000101888400022XXXXXX8169               2111111   NYV4 A7W383123778003531N8400000000064995GXP00    01DNMR HEMP FLOWER           855527    VD84000000006499 NP1549976053336   89304                    000000000+                F DF 10420                     000000000  Y000000000 338   0000000000000.00 0000000.00   0000000.00                             000000000000000                                                                                                                                                     01424 G000000006499 0000000000000.25     00050 02200                  
00005560114450001P16759067590000000370780088880000001010000000000000000                             2000000000000000000000000              000000000000                    0000000000000000000000000                    000000000000                                                                                                                                                                                                                                                                                                                                                                                                                                                                                        
00005570114450012DT67590675900000003707800888800000010180088824001193123900019706873050320230000001200012323000000000101888426684XXXXXX4653               2111111   NYV4 A7W463123812076059N8400000000120008ZF300    01DNMR HEMP FLOWER           09840C    VS84000000012000 NP1549976053336   89305                    000000000+                C CC 12108                     000000000  N000000000 496   0000000000000.00 0000000.00   0000000.00                             000000000000000                                                                                                                                                     01424 G000000012000 0000000000002.56     02050 01000                  
00005580114450001P16759067590000000370780088880000001010000000000000000                             2000000000000000000000000              000000000000                    0000000000000000000000000                    000000000000                                                                                                                                                                                                                                                                                                                                                                                                                                                                                        
00005590114450013DT67590675900000003707800888800000010180088887287283123900019706882050320230000000949612323000000000101888533248XXXXXX4971       ME03KE06MS02      NY 4607AMPVD1K0O00503  N840000000009496          81DNMR HEMP FLOWER           AG7PP6    MD84000000009496 N  549976053336   89306                    000000000+600450S00130    MPV  09899                     000000000  N                0000000000000.00 0000000.00   0000000.00                             000000000000000                                                                                                                                                   U001424  000000000000 0000000000001.87     01760 02000                  
00005600114450014BH6759067590000002325980011680000090170503202312323000000000027220    0000090001321378Y8001166759C05042023                                                                                                                                                                                                                                                                                                                                                                                                                                                                                                                                                                                                 
00005610114450015DT67590675900000023259800116800000010680011674001193123900013213657050220230000002178912323000000000027220414740XXXXXX8469               0000000   NYV4 07T383123028398576N840000000021789BVCL00    01CNGFORCEHEMP844-258-9322   01591D    VS84000000021789 NP1549977768166   4E185CE8DATDA169B85F920  000000000+                D CD 00245                     000000000  N000000000 166   0000000000000.00 0000000.00   0000000.00                             000000000000000                                                                                                                                                     01424  000000021789-0000000000003.83     01760 00000                  
00005620114450001P16759067590000002325980011680000001060000000000000000                             2000000000000000000000000              000000000000                    0000000000000000000000000                    000000000000                                                                                                                                                                                                                                                                                                                                                                                                                                                                                        
00005630114450016DT67590675900000023259800116800000010180011624001193123900013213686050320230000001306712323000000000027220432739XXXXXX6590               2111111   NYV4 A7W583123496938975N8400000000130678WZQ00    01DNGFORCEHEMP844-258-9322   752206    VD84000000013067 NP1549977768166   63B84F9299T466E6E702556  000000000+                F DF 10420                     000000000  Y000000000 338   0000000000000.00 0000000.00   0000000.00                             000000000000000                                                                                                                                                     01424 G000000013067 0000000000000.29     00050 02200                  
00005640114450001P16759067590000002325980011680000001010000000000000000                             2000000000000000000000000              000000000000                    0000000000000000000000000                    000000000000                                                                                                                                                                                                                                                                                                                                                                                                                                                                                        
00005650114450017DT67590675900000023259800116800000010180011624001193123900013213694050320230000000544912323000000000027220432739XXXXXX6590               2111111   NYV4 A7W383123497155311N8400000000054495RFQ00    01DNGFORCEHEMP844-258-9322   753099    VD84000000005449 NP1549977768166   63B84F9299T63E822843BE7  000000000+                F DF 10420                     000000000  Y000000000 338   0000000000000.00 0000000.00   0000000.00                             000000000000000                                                                                                                                                     01424 G000000005449 0000000000000.25     00050 02200                  
00005660114450001P16759067590000002325980011680000001010000000000000000                             2000000000000000000000000              000000000000                    0000000000000000000000000                    000000000000                                                                                                                                                                                                                                                                                                                                                                                                                                                                                        
00005670114450018DT67590675900000023259800116800000010680011687287283123900013213703050320230000002178912323000000000027220521876XXXXXX7835                         NY 4607AMWEB5RMAC0503  N840000000021789          81CNGFORCEHEMP844-258-9322   067307    MC84000000021789 N  549977768166   998A55A359T206A2FCA8A64  000000000+600450S00130    MWE  00565                     000000000  N                0000000000000.00 0000000.00   0000000.00                             000000000000000                                                                                                                                                     01424  000000000000-0000000000003.81     01750 00000                  
00005680114450019DT67590675900000023259800116800000010180011624001193123900013213710050320230000001742612323000000000027220410039XXXXXX3798               2111111   NYV4 A7W583123625569450N8400000000174266MJH00    01DNGFORCEHEMP844-258-9322   63978C    VS84000000017426 NP1549977768166   AB238B78C7TF1704587C698  000000000+                C CC 12108                     000000000  N000000000 496   0000000000000.00 0000000.00   0000000.00                             000000000000000                                                                                                                                                     01424 G000000017426 0000000000003.67     02050 01000                  
00005690114450001P16759067590000002325980011680000001010000000000000000                             2000000000000000000000000              000000000000                    0000000000000000000000000                    000000000000                                                                                                                                                                                                                                                                                                                                                                                                                                                                                        
00005700114450020DT67590675900000023259800116800000010180011687287283123900013213760050320230000002178912323000000000027220517546XXXXXX8780       ME03KE06MS02      NY 4607AMDJZVFG910503  N840000000021789          81DNGFORCEHEMP844-258-9322   003203    MD84000000021789 N  549977768166   A2985E12D1T0874D4B1E30B  000000000+600450S00130    MDJ  10813                     000000000  1                0000000000000.00 0000000.00   0000000.00                             000000000000000                                                                                                                                                   U001424  000000000000 0000000000000.33     00050 02200                  
00005710114450021DT67590675900000023259800116800000010180011687287283123900013213786050320230000001306712323000000000027220517546XXXXXX4704       ME03KE06MS02      NY 4607AMDJBNH8HV0503  N840000000013067          81DNGFORCEHEMP844-258-9322   003967    MD84000000013067 N  549977768166   128093F689T48E79C83E04A  000000000+600450S00130    MDJ  10813                     000000000  1                0000000000000.00 0000000.00   0000000.00                             000000000000000                                                                                                                                                   U001424  000000000000 0000000000000.29     00050 02200                  
00005720114450022BH6759067590000001427480010280000090170503202312323000000000154896    0000090001770019Y8001026759C05042023                                                                                                                                                                                                                                                                                                                                                                                                                                                                                                                                                                                                 
00005730114450023DT67590675900000014274800102800000010180010287287283123900017792736050220230000002487012323000000000154896529941XXXXXX4595       ME03KE06MS02      NY 4607AMDJEXW62Z0428  N840000000024870          81DNCBD8666317293            001566    MD84000000024870 N  549977145232   C0D2665BECTC7D9CFB5F160  000000000+600450S00130    MDJ  00401                     000000000  N                0000000000000.00 0000000.00   0000000.00                             000000000000000                                                                                                                                                   U001424  000000000000 0000000000004.25     01650 01500                  
00005740114450024DT67590675900000014274800102800000010180010224001193123900017793063050220230000000742412323000000000154896432864XXXXXX6206               2111111   NYV4 A7W463118696059855N840000000007424CWRZ00    01DNCBD8666317293            641742    VD84000000007424 NP1549977145232   FCE60452DET61CB151C5E48  000000000+                F DF 00415                     000000000  N000000000       0000000000000.00 0000000.00   0000000.00                             000000000000000                                                                                                                                                     01424 G000000007424 0000000000001.37     01650 01500                  
00005750114450001P16759067590000001427480010280000001010000000000000000                             2000000000000000000000000              000000000000                    0000000000000000000000000                    000000000000                                                                                                                                                                                                                                                                                                                                                                                                                                                                                        
00005760114450025DT67590675900000014274800102800000010180010224001193123900017793261050220230000002106212323000000000154896411870XXXXXX8776               2111111   NYV4 A7W583118789057801N84000000002106238RM00    01DNCBD8666317293            028937    VS84000000021062 NP1549977145232   E2F8D654CFTD4F393759330  000000000+                C CC 12108                     000000000  N000000000 496   0000000000000.00 0000000.00   0000000.00                             000000000000000                                                                                                                                                     01424 G000000021062 0000000000004.42     02050 01000                  
00005770114450001P16759067590000001427480010280000001010000000000000000                             2000000000000000000000000              000000000000                    0000000000000000000000000                    000000000000                                                                                                                                                                                                                                                                                                                                                                                                                                                                                        
00005780114450026DT67590675900000014274800102800000010180010287287283123900017793692050220230000000600412323000000000154896559460XXXXXX6033       ME03KE06MS02      NY 4607AMDJQFPXVZ0428  N840000000006004          81DNCBD8666317293            533101    MD84000000006004 N  549977145232   F885E7A800T129D291FCE96  000000000+600450S00130    MDJ  10813                     000000000  1                0000000000000.00 0000000.00   0000000.00                             000000000000000                                                                                                                                                   U001424  000000000000 0000000000000.25     00050 02200                  
00005790114450027DT67590675900000014274800102800000010180010224001193123900017794319050220230000000642412323000000000154896444796XXXXXX7819               2111111   NYV4 A7W583119090068705N8400000000064246XRP00    01DNCBD8666317293            028487    VS84000000006424 NP1549977145232   7F369F4881TB9839E8A334A  000000000+                A CA 12106                     000000000  N000000000 492   0000000000000.00 0000000.00   0000000.00                             000000000000000                                                                                                                                                     01424 G000000006424 0000000000001.31     01890 01000                  
00005800114450001P16759067590000001427480010280000001010000000000000000                             2000000000000000000000000              000000000000                    0000000000000000000000000                    000000000000                                                                                                                                                                                                                                                                                                                                                                                                                                                                                        
00005810114450028DT67590675900000014274800102800000010180010224001193123900017795001050220230000002106212323000000000154896473702XXXXXX7735               2111111   NYV4 A7W303119519073983N840000000021062XHZH00    01DNCBD8666317293            014602    VD84000000021062 NP1549977145232   9A34C59ECDT9DA5595155F8  000000000+                F DF 10420                     000000000  Y000000000 338   0000000000000.00 0000000.00   0000000.00                             000000000000000                                                                                                                                                     01424 G000000021062 0000000000000.33     00050 02200                  
00005820114450001P16759067590000001427480010280000001010000000000000000                             2000000000000000000000000              000000000000                    0000000000000000000000000                    000000000000                                                                                                                                                                                                                                                                                                                                                                                                                                                                                        
00005830114450029DT67590675900000014274800102800000010180010287287283123900017795051050220230000001272812323000000000154896531254XXXXXX3368       ME03KE06MS02      NY 4607AMDJDRGHHR0429  N840000000012728          81DNCBD8666317293            135551    MD84000000012728 N  549977145232   064F3BF2B2T0B3F125C6BE4  000000000+600450S00130    MDJ  10813                     000000000  1                0000000000000.00 0000000.00   0000000.00                             000000000000000                                                                                                                                                   U001424  000000000000 0000000000000.28     00050 02200                  
00005840114450030DT67590675900000014274800102800000010180010224001193123900017795985050220230000000640212323000000000154896448975XXXXXX3224               2111111   NYV4 A7W583119783203948N840000000006402CSK500    01DNCBD8666317293            268586    VD84000000006402 NP1549977145232   9AD7A729EATDF8C46624F57  000000000+                G PG 10179                     000000000  N000000000 364   0000000000000.00 0000000.00   0000000.00                             000000000000000                                                                                                                                                     01424 G000000006402 0000000000001.80     02650 01000                  
00005850114450001P16759067590000001427480010280000001010000000000000000                             1000000000398000000000000              000000000000                    0000000000000000000000000                    000000000000                                                                                                                                                                                                                                                                                                                                                                                                                                                                                        
00005860114450031DT67590675900000014274800102800000010180010287287283123900017796448050220230000002604212323000000000154896517805XXXXXX2274       ME03KE06MS02      NY 4607AMPLMFJSJ80429  N840000000026042          81DNCBD8666317293            06011B    MC84000000026042 N  549977145232   E3AD72DA1ATB8D56BD1D6A8  000000000+600450S00130    MPL  00580                     000000000  N                0000000000000.00 0000000.00   0000000.00                             000000000000000                                                                                                                                                   U001424  000000000000 0000000000005.57     02100 01000                  
00005870114450032DT67590675900000014274800102800000010180010287287283123900017796513050220230000002106212323000000000154896557303XXXXXX7365                         NY 4607AMDBR65MJ50429  N840000000021062          81DNCBD8666317293            982143    MD84000000021062 NP1549977145232                            000000000+600450S00130    MDB  00063                     000000000  N                0000000000000.00 0000000.00   0000000.00                             000000000000000                                                                                                                                                   U001424  000000000000 0000000000004.42     02050 01000                  
00005880114450001P1675906759000000142748001028000000101                                                 000001192000000000000          8000   000000000871584967            000000000000                                                                                                                                                                                                                                                                                                                                                                                                                                                                                                                                    
00005890114450033DT67590675900000014274800102800000010180010287287283123900017799285050220230000002140012323000000000154896512735XXXXXX0212       ME03KE06MS02      NY 4607AMPLY1MGL70502  N840000000021400          81DNCBD8666317293            002214    MC84000000021400 N  549977145232   DE4661C738T7EB9F8DF48BB  000000000+600450S00130    MPL  00013                     000000000  N                0000000000000.00 0000000.00   0000000.00                             000000000000000                                                                                                                                                   U001424  000000000000 0000000000004.27     01950 01000                  
00005900114450034DT67590675900000014274800102800000010680010287287283123900017799319050220230000001987012323000000000154896513495XXXXXX5316                         NY 4607AMDBBIXHTW0502  N840000000019870          81CNCBD8666317293            002328    MD84000000019870 NP1549977145232   7E7690512DT0C50D88BAB22  000000000+600450S00130    MDB  00566                     000000000  N                0000000000000.00 0000000.00   0000000.00                             000000000000000                                                                                                                                                     01424  000000000000-0000000000004.71     02370 00000                  
00005910114450001P1675906759000000142748001028000000106                                                          000000000000          8000            871584967                                                                                                                                                                                                                                                                                                                                                                                                                                                                                                                                                            
00005920114450035DT67590675900000014274800102800000010180010224001193123900017799425050220230000001400812323000000000154896475869XXXXXX7479               2111111   NYV4 A7W583123061593242N840000000014008WRDV00    01DNCBD8666317293            643973    VD84000000014008 NP1549977145232   4AE630B63FTE967A908CB12  000000000+                F DF 00415                     000000000  N000000000       0000000000000.00 0000000.00   0000000.00                             000000000000000                                                                                                                                                     01424 G000000014008 0000000000002.46     01650 01500                  
00005930114450001P16759067590000001427480010280000001010000000000000000                             2000000000000000000000000              000000000000                    0000000000000000000000000                    000000000000                                                                                                                                                                                                                                                                                                                                                                                                                                                                                        
00005940114450036DT67590675900000014274800102800000010180010287287283123900017799442050220230000002390312323000000000154896548042XXXXXX2615       ME03KE06MS02      NY 4607AMCCCVXKTW0502  N840000000023903          81DNCBD8666317293            00167B    MC84000000023903 N  549977145232   887ACEE962TF4C9C650B96E  000000000+600450S00130    MCC  00580                     000000000  N                0000000000000.00 0000000.00   0000000.00                             000000000000000                                                                                                                                                   U001424  000000000000 0000000000005.12     02100 01000                  
00005950114450037DT67590675900000014274800102800000010180010287287283123900017799467050220230000000149512323000000000154896546249XXXXXX2752       ME03KE06MS02      NY 4607AMDJC1K1TW0502  N840000000001495          81DNCBD8666317293            010007    MD84000000001495 N  549977145232   F80E10F798T1CB2C8B775CB  000000000+600450S00130    MDJ  10813                     000000000  1                0000000000000.00 0000000.00   0000000.00                             000000000000000                                                                                                                                                   U001424  000000000000 0000000000000.23     00050 02200                  
00005960114450038DT67590675900000014274800102800000010180010287287283123900017799566050220230000001484812323000000000154896527845XXXXXX9371       ME03KE06MS02      NY 4607AMWEA661L80502  N840000000014848          81DNCBD8666317293            002873    MC84000000014848 N  549977145232   91ABD998D4TDB9EA64021B1  000000000+600450S00130    MWE  00737                     000000000  N                0000000000000.00 0000000.00   0000000.00                             000000000000000                                                                                                                                                   U001424  000000000000 0000000000003.96     02600 01000                  
00005970114450039DT67590675900000014274800102800000010180010224001193123900017799581050220230000001400812323000000000154896414709XXXXXX7278               2111111   NYV4 A7W303123099179289N840000000014008T7NF00    01DNCBD8666317293            05526D    VS84000000014008 NP1549977145232   5BE6C0266BT96E4E7CEB6D2  000000000+                D CD 12109                     000000000  N000000000 498   0000000000000.00 0000000.00   0000000.00                             000000000000000                                                                                                                                                     01424 G000000014008 0000000000003.60     02500 01000                  
00005980114450001P16759067590000001427480010280000001010000000000000000                             2000000000000000000000000              000000000000                    0000000000000000000000000                    000000000000                                                                                                                                                                                                                                                                                                                                                                                                                                                                                        
00005990114450040DT67590675900000014274800102800000010680010287287283123900017799616050220230000000339912323000000000154896521853XXXXXX8406                         NY 4607AMPLUHSTL70502  N840000000003399          81CNCBD8666317293            002667    MC84000000003399 N  549977145232   1C937385AAT46BF481D2008  000000000+600450S00130    MPL  00565                     000000000  N                0000000000000.00 0000000.00   0000000.00                             000000000000000                                                                                                                                                     01424  000000000000-0000000000000.59     01750 00000                  
00006000114450041DT67590675900000014274800102800000010680010274001193123900017799719050320230000001726112323000000000154896440066XXXXXX8736               0000000   NYV4 07T303123478048308N840000000017261BDMC00    01CNCBD8666317293            01443D    VS84000000017261 NP1549977145232   6A778AA582TAF22D0B85DBB  000000000+                D CD 00245                     000000000  N000000000 166   0000000000000.00 0000000.00   0000000.00                             000000000000000                                                                                                                                                     01424  000000017261-0000000000003.04     01760 00000                  
00006010114450001P16759067590000001427480010280000001060000000000000000                             2000000000000000000000000              000000000000                    0000000000000000000000000                    000000000000                                                                                                                                                                                                                                                                                                                                                                                                                                                                                        
00006020114450042DT67590675900000014274800102800000010680010274001193123900017799743050320230000001987012323000000000154896403784XXXXXX6270               0000000   NYV4 07T303123510134210N8400000000198703FL700    01CNCBD8666317293            903001    VS84000000019870 NP1549977145232   054990A068TD7CCF5AE92B5  000000000+                C CC 00245                     000000000  N000000000 166   0000000000000.00 0000000.00   0000000.00                             000000000000000                                                                                                                                                     01424  000000019870-0000000000003.50     01760 00000                  
00006030114450001P16759067590000001427480010280000001060000000000000000                             2000000000000000000000000              000000000000                    0000000000000000000000000                    000000000000                                                                                                                                                                                                                                                                                                                                                                                                                                                                                        
00006040114450043DT67590675900000014274800102800000010180010224001193123900017799821050320230000001799112323000000000154896400570XXXXXX6674               2111111   NYV4 A7W463123547379843N840000000017991NVV200    01DNCBD8666317293            198697    VD84000000017991 NP1549977145232   90BA6AD5FCT4DCB445306F2  000000000+                F DF 10420                     000000000  Y000000000 338   0000000000000.00 0000000.00   0000000.00                             000000000000000                                                                                                                                                     01424 G000000017991 0000000000000.31     00050 02200                  
00006050114450001P16759067590000001427480010280000001010000000000000000                             2000000000000000000000000              000000000000                    0000000000000000000000000                    000000000000                                                                                                                                                                                                                                                                                                                                                                                                                                                                                        
00006060114450044DT67590675900000014274800102800000010680010287287283123900017799830050320230000001987012323000000000154896513522XXXXXX9013                         NY 4607AMDJA82UBX0503  N840000000019870          81CNCBD8666317293            003784    MD84000000019870 N  549977145232   2339FF65D6T51F45BE401C4  000000000+600450S00130    MDJ  00560                     000000000  N                0000000000000.00 0000000.00   0000000.00                             000000000000000                                                                                                                                                     01424  000000000000 0000000000000.00     00000 00000                  
00006070114450045DT67590675900000014274800102800000010680010274001193123900017799859050320230000000599712323000000000154896400570XXXXXX6674               0000000   NYV4 07T303123586886829N840000000005997W7KN00    01CNCBD8666317293            215663    VD84000000005997 NP1549977145232   90BA6AD5FCT4DCB445306F2  000000000+                F DF 08168                     000000000  Y000000000 369   0000000000000.00 0000000.00   0000000.00                             000000000000000                                                                                                                                                     01424  000000005997 0000000000000.00     00000 00000                  
00006080114450001P16759067590000001427480010280000001060000000000000000                             2000000000000000000000000              000000000000                    0000000000000000000000000                    000000000000                                                                                                                                                                                                                                                                                                                                                                                                                                                                                        
00006090114450046DT67590675900000014274800102800000010680010274001193123900017799925050320230000001987012323000000000154896474488XXXXXX1774               0000000   NYV4 07T383123641549676N840000000019870GJFX00    01CNCBD8666317293            441511    VD84000000019870 NP1549977145232   A3589D9E18TFB1F62449F68  000000000+                F DF 08168                     000000000  Y000000000 369   0000000000000.00 0000000.00   0000000.00                             000000000000000                                                                                                                                                     01424  000000019870 0000000000000.00     00000 00000                  
00006100114450001P16759067590000001427480010280000001060000000000000000                             2000000000000000000000000              000000000000                    0000000000000000000000000                    000000000000                                                                                                                                                                                                                                                                                                                                                                                                                                                                                        
00006110114450047DT67590675900000014274800102800000010180010287287283123900017799962050320230000002390312323000000000154896529149XXXXXX5788       ME03KE06MS02      NY 4607AMPLTS1T910503  N840000000023903          81DNCBD8666317293            06719B    MC84000000023903 N  549977145232   C977FF029AT85EDF2828175  000000000+600450S00130    MPL  00580                     000000000  N                0000000000000.00 0000000.00   0000000.00                             000000000000000                                                                                                                                                   U001424  000000000000 0000000000005.12     02100 01000                  
00006120114450048DT67590675900000014274800102800000010180010287287283123900017799988050320230000001200812323000000000154896517805XXXXXX7261       ME03KE06MS02      NY 4607AMPL3A1Y910503  N840000000012008          81DNCBD8666317293            00157B    MC84000000012008 N  549977145232   CF72FE8820T5A14AC49ABE4  000000000+600450S00130    MPL  00580                     000000000  N                0000000000000.00 0000000.00   0000000.00                             000000000000000                                                                                                                                                   U001424  000000000000 0000000000002.62     02100 01000                  
00006130114450049DT67590675900000014274800102800000010680010287287283123900017700010050320230000000600412323000000000154896517805XXXXXX7261                         NY 4607AMPLUPZ4910503  N840000000006004          81CNCBD8666317293            051017    MC84000000006004 N  549977145232   CF72FE8820T5A14AC49ABE4  000000000+600450S00130    MPL  00565                     000000000  N                0000000000000.00 0000000.00   0000000.00                             000000000000000                                                                                                                                                     01424  000000000000-0000000000001.05     01750 00000                  
00006140114450050DT67590675900000014274800102800000010680010274001193123900017700055050320230000002487012323000000000154896403784XXXXXX4239               0000000   NYV4 07T303123750113438N840000000024870XDH900    01CNCBD8666317293            513005    VS84000000024870 NP1549977145232   4A9D3FBB5AT8A833E5E4D37  000000000+                A CA 00245                     000000000  N000000000 166   0000000000000.00 0000000.00   0000000.00                             000000000000000                                                                                                                                                     01424  000000024870-0000000000004.38     01760 00000                  
00006150114450001P16759067590000001427480010280000001060000000000000000                             2000000000000000000000000              000000000000                    0000000000000000000000000                    000000000000                                                                                                                                                                                                                                                                                                                                                                                                                                                                                        
00006160114450051DT67590675900000014274800102800000010180010287287283123900017700077050320230000001495412323000000000154896533248XXXXXX1198       ME03KE06MS02      NY 4607AMPV4M19880503  N840000000014954          81DNCBD8666317293            AF5X6F    MD84000000014954 N  549977145232   AABFBBFC67T16D5F0520C35  000000000+600450S00130    MPV  09899                     000000000  N                0000000000000.00 0000000.00   0000000.00                             000000000000000                                                                                                                                                   U001424  000000000000 0000000000002.83     01760 02000                  
00006170114450052DT67590675900000014274800102800000010180010224001193123900017700126050320230000000149512323000000000154896420767XXXXXX5114               2111111   NYV4 A7W463123825933970N8400000000014952QQK00    01DNCBD8666317293            045618    VD84000000001495 NP1549977145232   259FFE37BFTD9C8EFEEB5C9  000000000+                F DF 10420                     000000000  Y000000000 338   0000000000000.00 0000000.00   0000000.00                             000000000000000                                                                                                                                                     01424 G000000001495 0000000000000.23     00050 02200                  
00006180114450001P16759067590000001427480010280000001010000000000000000                             2000000000000000000000000              000000000000                    0000000000000000000000000                    000000000000                                                                                                                                                                                                                                                                                                                                                                                                                                                                                        
00006190114450053DT67590675900000014274800102800000010680010287287283123900017700192050320230000002118612323000000000154896552433XXXXXX6926                         NY 4607AMCWU7UDHU0503  N840000000021186          81CNCBD8666317293            033185    MC84000000021186 N  549977145232   26FC98A8F9TE656C1AF91A5  000000000+600450S00130    MCW  00565                     000000000  N                0000000000000.00 0000000.00   0000000.00                             000000000000000                                                                                                                                                     01424  000000000000-0000000000003.71     01750 00000                  
00006200114450054BH675906759000000198288001098000009017050320231232300000000017337701970000090001449317N8001096759D05042023                                                                                                                                                                                                                                                                                                                                                                                                                                                                                                                                                                                                 
00006210114450055DT67590675900000019828800109800000010680010987287283123900014492983050320230000001987012323000000000173377551263XXXXXX8745                         NN 4607AMDJNJI4AB0503  N840000000019870          81CNKETOFUSION 8885968154    0033130197MD84000000019870 N  599977547467   AB12C0D07ATE45A7D23483B  000000000+600450S00130    MDJ  00000                     000000000  N                0000000000000.00 0000000.00   0000000.00             000000000019870C000000000000000                                                                                                                                                     01424  000000000000 0000000000000.00     00000 00000                  
00006220114450056DT67590675900000019828800109800000010680010987287283123900014492991050320230000001987012323000000000173377517805XXXXXX0829                         NN 4607AMPLNJ2LAB0503  N840000000019870          81CNKETOFUSION 8885968154    0790570197MC84000000019870 N  599977547467   2DA28E9821T9DACE9902652  000000000+600450S00130    MPL  00000                     000000000  N                0000000000000.00 0000000.00   0000000.00             000000000019870C000000000000000                                                                                                                                                     01424  000000000000 0000000000000.00     00000 00000                  
00006230114450057DT67590675900000019828800109800000010680010974001193123900014493001050320230000001194812323000000000173377441839XXXXXX8620               0000000   NNV4 07T583123493880032N840000000011948K9S200    01CNKETOFUSION 8885968154    8152980197VS84000000011948 NP1599977547467   DCA562E7E2T92FEA98FA06D  000000000+                A CA 00000                     000000000  N000000000 166   0000000000000.00 0000000.00   0000000.00             000000000011948C000000000000000                                                                                                                                                     01424  000000011948 0000000000000.00     00000 00000                  
00006240114450001P16759067590000001982880010980000001060000000000000000                             2000000000000000000000000              000000000000                    0000000000000000000000000                    000000000000                                                                                                                                                                                                                                                                                                                                                                                                                                                                                        
00006250114450058DT67590675900000019828800109800000010680010974001193123900014493019050320230000001987012323000000000173377431196XXXXXX7205               0000000   NNV4 07T463123565698870N8400000000198709X2R00    01CNKETOFUSION 8885968154    0034910197VS84000000019870 NP1599977547467   824B0F18C9T083211793033  000000000+                D CD 00000                     000000000  N000000000 166   0000000000000.00 0000000.00   0000000.00             000000000019870C000000000000000                                                                                                                                                     01424  000000019870 0000000000000.00     00000 00000                  
00006260114450001P16759067590000001982880010980000001060000000000000000                             2000000000000000000000000              000000000000                    0000000000000000000000000                    000000000000                                                                                                                                                                                                                                                                                                                                                                                                                                                                                        
00006270114450059DT67590675900000019828800109800000010180010987287283123900014493023050320230000002487012323000000000173377546325XXXXXX9063       ME03KE06MS02      NN 4607AMWERFAOAB0503  N840000000024870          81DNKETOFUSION 8885968154    00248P0197MC84000000024870 N  599977547467   07B04C92CATB01DD9AD6D13  000000000+600450S00130    MWE  00000                     000000000  N                0000000000000.00 0000000.00   0000000.00             000000000024870D000000000000000                                                                                                                                                   U001424  000000000000 0000000000000.00     00000 00000                  
00006280114450060DT67590675900000019828800109800000010180010987287283123900014493031050320230000000327412323000000000173377546325XXXXXX9063       ME03KE06MS02      NN 4607AMWEAFJMAC0503  N840000000003274          81DNKETOFUSION 8885968154    00710P0197MC84000000003274 N  599977547467   07B04C92CAT97C1B6E7DD9E  000000000+600450S00130    MWE  00000                     000000000  N                0000000000000.00 0000000.00   0000000.00             000000000003274D000000000000000                                                                                                                                                   U001424  000000000000 0000000000000.00     00000 00000                  
00006290114450061DT67590675900000019828800109800000010180010987287283123900014493049050320230000000259512323000000000173377546325XXXXXX9063       ME03KE06MS02      NN 4607AMWEAFNNAC0503  N840000000002595          81DNKETOFUSION 8885968154    00913P0197MC84000000002595 N  599977547467   07B04C92CAT0F66759DE46B  000000000+600450S00130    MWE  00000                     000000000  N                0000000000000.00 0000000.00   0000000.00             000000000002595D000000000000000                                                                                                                                                   U001424  000000000000 0000000000000.00     00000 00000                  
00006300114450062DT67590675900000019828800109800000010680010974001193123900014493050050320230000001394812323000000000173377408104XXXXXX6861               0000000   NNV4 07T383123610978747N840000000013948S38J00    01CNKETOFUSION 8885968154    0149490197VD84000000013948 NP1599977547467   0AD592B80FT19B5704BA454  000000000+                F DF 00000                     000000000  N000000000 369   0000000000000.00 0000000.00   0000000.00             000000000013948C000000000000000                                                                                                                                                     01424  000000013948 0000000000000.00     00000 00000                  
00006310114450001P16759067590000001982880010980000001060000000000000000                             2000000000000000000000000              000000000000                    0000000000000000000000000                    000000000000                                                                                                                                                                                                                                                                                                                                                                                                                                                                                        
00006320114450063DT67590675900000019828800109800000010680010987287283123900014493064050320230000001589612323000000000173377526219XXXXXX1235                         NN 4607AMDS3IP5910503  N840000000015896          81CNKETOFUSION 8885968154    9757360197MD84000000015896 N  599977547467   2F8A6C2ED3TA41D21E32C85  000000000+600450S00130    MDS  00000                     000000000  1                0000000000000.00 0000000.00   0000000.00             000000000015896C000000000000000                                                                                                                                                     01424  000000000000 0000000000000.00     00000 00000                  
00006330114450064DT67590675900000019828800109800000010680010974001193123900014493076050320230000001987012323000000000173377414720XXXXXX3538               0000000   NNV4 07T383123691901507N8400000000198705VDD00    01CNKETOFUSION 8885968154    09304A0197VS84000000019870 NP1599977547467   37FEF4D04BT146D39943C30  000000000+                A CA 00000                     000000000  N000000000 166   0000000000000.00 0000000.00   0000000.00             000000000019870C000000000000000                                                                                                                                                     01424  000000019870 0000000000000.00     00000 00000                  
00006340114450001P16759067590000001982880010980000001060000000000000000                             2000000000000000000000000              000000000000                    0000000000000000000000000                    000000000000                                                                                                                                                                                                                                                                                                                                                                                                                                                                                        
00006350114450065DT67590675900000019828800109800000010680010974001193123900014493084050320230000000327412323000000000173377414720XXXXXX3538               0000000   NNV4 07T463123691925530N840000000003274MJ5V00    01CNKETOFUSION 8885968154    09374A0197VS84000000003274 NP1599977547467   37FEF4D04BTECC6F2F4A376  000000000+                A CA 00000                     000000000  N000000000 166   0000000000000.00 0000000.00   0000000.00             000000000003274C000000000000000                                                                                                                                                     01424  000000003274 0000000000000.00     00000 00000                  
00006360114450001P16759067590000001982880010980000001060000000000000000                             2000000000000000000000000              000000000000                    0000000000000000000000000                    000000000000                                                                                                                                                                                                                                                                                                                                                                                                                                                                                        
00006370114450066DT67590675900000019828800109800000010680010974001193123900014493092050320230000000259512323000000000173377414720XXXXXX3538               0000000   NNV4 07T383123691945058N84000000000259545BR00    01CNKETOFUSION 8885968154    09438A0197VS84000000002595 NP1599977547467   37FEF4D04BTEC1E48A7919F  000000000+                A CA 00000                     000000000  N000000000 166   0000000000000.00 0000000.00   0000000.00             000000000002595C000000000000000                                                                                                                                                     01424  000000002595 0000000000000.00     00000 00000                  
00006380114450001P16759067590000001982880010980000001060000000000000000                             2000000000000000000000000              000000000000                    0000000000000000000000000                    000000000000                                                                                                                                                                                                                                                                                                                                                                                                                                                                                        
00006390114450067DT67590675900000019828800109800000010680010974001193123900014493100050320230000001987012323000000000173377415417XXXXXX8062               0000000   NNV4 07T303123705786732N84000000001987024HG85    01CNKETOFUSION 8885968154    0998550197VB84000000019870 NP1599977547467   082D6CD5B1TA3CDA0EB47C4  000000000+                G3CG300000                     000000000  N000000000 167   0000000000000.00 0000000.00   0000000.00             000000000019870C000000000000000                                                                                                                                                     01424  000000019870 0000000000000.00     00000 00000                  
00006400114450001P16759067590000001982880010980000001060000000000000000                             2000000000000000000000000              000000000000                    0000000000000000000000000                    000000000000                                                                                                                                                                                                                                                                                                                                                                                                                                                                                        
00006410114450068DT67590675900000019828800109800000010680010987287283123900014493114050320230000000496712323000000000173377552433XXXXXX1428                         NN 4607AMCWLHJ2E10503  N840000000004967          81CNKETOFUSION 8885968154    0339170197MC84000000004967 N  599977547467   3572099CDDT325E82313289  000000000+600450S00130    MCW  00000                     000000000  N                0000000000000.00 0000000.00   0000000.00             000000000004967C000000000000000                                                                                                                                                     01424  000000000000 0000000000000.00     00000 00000                  
00006420114450069DT67590675900000019828800109800000010680010987287283123900014493122050320230000000163712323000000000173377552433XXXXXX1428                         NN 4607AMCWOHGN910503  N840000000001637          81CNKETOFUSION 8885968154    0290280197MC84000000001637 N  599977547467   3572099CDDTE61FA3CC324E  000000000+600450S00130    MCW  00000                     000000000  N                0000000000000.00 0000000.00   0000000.00             000000000001637C000000000000000                                                                                                                                                     01424  000000000000 0000000000000.00     00000 00000                  
00006430114450070DT67590675900000019828800109800000010680010987287283123900014493130050320230000000129712323000000000173377552433XXXXXX1428                         NN 4607AMCWXHK6910503  N840000000001297          81CNKETOFUSION 8885968154    0020840197MC84000000001297 N  599977547467   3572099CDDTA5C18BD2EB7A  000000000+600450S00130    MCW  00000                     000000000  N                0000000000000.00 0000000.00   0000000.00             000000000001297C000000000000000                                                                                                                                                     01424  000000000000 0000000000000.00     00000 00000                  
00006440114450071DT67590675900000019828800109800000010680010987287283123900014493148050320230000000496712323000000000173377552433XXXXXX1428                         NN 4607AMCW6H0A910503  N840000000004967          81CNKETOFUSION 8885968154    0239790197MC84000000004967 N  599977547467   D6B0ABE043T61D1AC7C7D9E  000000000+600450S00130    MCW  00000                     000000000  N                0000000000000.00 0000000.00   0000000.00             000000000004967C000000000000000                                                                                                                                                     01424  000000000000 0000000000000.00     00000 00000                  
00006450114450072DT67590675900000019828800109800000010680010974001193123900014493159050320230000001987012323000000000173377422496XXXXXX4693               0000000   NNV4 07T583123742196210N840000000019870KHVX00    01CNKETOFUSION 8885968154    0038550197VD84000000019870 NP1599977547467   588A48455CT7AEE97190BCD  000000000+                F DF 00000                     000000000  N000000000 369   0000000000000.00 0000000.00   0000000.00             000000000019870C000000000000000                                                                                                                                                     01424  000000019870 0000000000000.00     00000 00000                  
00006460114450001P16759067590000001982880010980000001060000000000000000                             2000000000000000000000000              000000000000                    0000000000000000000000000                    000000000000                                                                                                                                                                                                                                                                                                                                                                                                                                                                                        
00006470114450073DT67590675900000019828800109800000010680010974001193123900014493167050320230000000449712323000000000173377442868XXXXXX9539               0000000   NNV4 07T583123779964647N840000000004497BZ8F00    01CNKETOFUSION 8885968154    0034970197VS84000000004497 NP1599977547467   FE92D7B357T70BBE3E0CDB3  000000000+                C CC 00000                     000000000  N000000000 166   0000000000000.00 0000000.00   0000000.00             000000000004497C000000000000000                                                                                                                                                     01424  000000004497 0000000000000.00     00000 00000                  
00006480114450001P16759067590000001982880010980000001060000000000000000                             2000000000000000000000000              000000000000                    0000000000000000000000000                    000000000000                                                                                                                                                                                                                                                                                                                                                                                                                                                                                        
00006490114450074DT67590675900000019828800109800000010680010987287283123900014493171050320230000001987012323000000000173377515676XXXXXX4145                         NN 4607AMWED77MO00503  N840000000019870          81CNKETOFUSION 8885968154    0033450197MC84000000019870 N  599977547467   60501B651ATE7171BC1960C  000000000+600450S00130    MWE  00000                     000000000  N                0000000000000.00 0000000.00   0000000.00             000000000019870C000000000000000                                                                                                                                                     01424  000000000000 0000000000000.00     00000 00000                  
00006500114450075BH6759067590000001330080010280000090170503202312323000000000308732    0000090001770793Y8001026759C05042023                                                                                                                                                                                                                                                                                                                                                                                                                                                                                                                                                                                                 
00006510114450076DT67590675900000013300800102800000010180010224001193123900017701181050220230000000700412323000000000308732481588XXXXXX3618               2111111   NYV4 A7W303118639056305N840000000007004RRQH00    01DNCBD8666317293            164052    VD84000000007004 NP1549977133133   5220429492TC04DE04E5730  000000000+                G DG 10352                     000000000  Y000000000 338   0000000000000.00 0000000.00   0000000.00                             000000000000000                                                                                                                                                     01424 G000000007004 0000000000000.26     00050 02200                  
00006520114450001P16759067590000001330080010280000001010000000000000000                             2000000000000000000000000              000000000000                    0000000000000000000000000                    000000000000                                                                                                                                                                                                                                                                                                                                                                                                                                                                                        
00006530114450077DT67590675900000013300800102800000010180010224001193123900017701223050220230000001499112323000000000308732444796XXXXXX3993               2111111   NYV4 A7W583118654062710N84000000001499122VL00    01DNCBD8666317293            028396    VS84000000014991 NP1549977133133   AC932168D2T80935CBF2ED1  000000000+                A CA 12106                     000000000  N000000000 492   0000000000000.00 0000000.00   0000000.00                             000000000000000                                                                                                                                                     01424 G000000014991 0000000000002.93     01890 01000                  
00006540114450001P16759067590000001330080010280000001010000000000000000                             2000000000000000000000000              000000000000                    0000000000000000000000000                    000000000000                                                                                                                                                                                                                                                                                                                                                                                                                                                                                        
00006550114450078DT67590675900000013300800102800000010180010287287283123900017702131050220230000002487012323000000000308732521870XXXXXX2252       ME03KE06MS02      NY 4607AMDJHEK0VX0428  N840000000024870          81DNCBD8666317293            000106    MD84000000024870 N  549977133133   D03653E8EDT3E2B34F0A29F  000000000+600450S00130    MDJ  00401                     000000000  N                0000000000000.00 0000000.00   0000000.00                             000000000000000                                                                                                                                                   U001424  000000000000 0000000000004.25     01650 01500                  
00006560114450079DT67590675900000013300800102800000010180010287287283123900017702628050220230000000600412323000000000308732550114XXXXXX2838       ME03KE06MS02      NY 4607AMCSKYUNVX0428  N840000000006004          81DNCBD8666317293            028338    MC84000000006004 N  549977133133   2D30015108T0FA1272C677D  000000000+600450S00130    MCS  00013                     000000000  N                0000000000000.00 0000000.00   0000000.00                             000000000000000                                                                                                                                                   U001424  000000000000 0000000000001.27     01950 01000                  
00006570114450080DT67590675900000013300800102800000010180010287287283123900017703352050220230000002180712323000000000308732546616XXXXXX3977       ME03KE06PT01      NY 4607AMCWKEPGEI0429  N840000000021807          81DNCBD8666317293            64587S    MC84000000021807 N  549977133133   8D1393AAABTF4AB80002575  000000000+600450S00130    MCW  02182                     000000000  N                0000000000000.00 0000000.00   0000000.00                             000000000000000                                                                                                                                                   U001424  000000000000 0000000000005.77     02600 01000                  
00006580114450081DT67590675900000013300800102800000010180010224001193123900017703419050220230000001589012323000000000308732425589XXXXXX0872               2111111   NYV4 A7W463119577356010N840000000015890DT5L00    01DNCBD8666317293            029402    VS84000000015890 NP1549977133133   81C7F31029T57AA0739DD58  000000000+                B CB 12107                     000000000  N000000000 494   0000000000000.00 0000000.00   0000000.00                             000000000000000                                                                                                                                                     01424 G000000015890 0000000000003.34     02040 01000                  
00006590114450001P16759067590000001330080010280000001010000000000000000                             2000000000000000000000000              000000000000                    0000000000000000000000000                    000000000000                                                                                                                                                                                                                                                                                                                                                                                                                                                                                        
00006600114450082DT67590675900000013300800102800000010180010224001193123900017703559050220230000001987012323000000000308732426684XXXXXX2942               2111111   NYV4 A7W583119666115702N840000000019870FPZV00    01DNCBD8666317293            00362A    VS84000000019870 NP1549977133133   E837EE5416T8640079761D5  000000000+                A CA 12106                     000000000  N000000000 492   0000000000000.00 0000000.00   0000000.00                             000000000000000                                                                                                                                                     01424 G000000019870 0000000000003.86     01890 01000                  
00006610114450001P16759067590000001330080010280000001010000000000000000                             2000000000000000000000000              000000000000                    0000000000000000000000000                    000000000000                                                                                                                                                                                                                                                                                                                                                                                                                                                                                        
00006620114450083DT67590675900000013300800102800000010180010287287283123900017703683050220230000001604012323000000000308732539783XXXXXX1981       ME03KE06MS02      NY 4607AMDJHOXKP00429  N840000000016040          81DNCBD8666317293            294612    MD84000000016040 N  549977133133   67D7C04C44T68704E93BE5B  000000000+600450S00130    MDJ  00401                     000000000  N                0000000000000.00 0000000.00   0000000.00                             000000000000000                                                                                                                                                   U001424  000000000000 0000000000002.80     01650 01500                  
00006630114450084DT67590675900000013300800102800000010180010287287283123900017703758050220230000001636712323000000000308732552486XXXXXX4073       ME03KE06MS02      NY 4607AMWECITOP00429  N840000000016367          81DNCBD8666317293            05188Z    MC84000000016367 N  549977133133   CC157C8479T87398ECC68E2  000000000+600450S00130    MWE  00737                     000000000  N                0000000000000.00 0000000.00   0000000.00                             000000000000000                                                                                                                                                   U001424  000000000000 0000000000004.36     02600 01000                  
00006640114450085DT67590675900000013300800102800000010180010224001193123900017703831050220230000000600412323000000000308732434769XXXXXX1923               2111111   NYV4 A7W303119783240921N8400000000060047LQZ00    01DNCBD8666317293            054517    VD84000000006004 NP1549977133133   156E67A992T3C52A27E526F  000000000+                F DF 10420                     000000000  Y000000000 338   0000000000000.00 0000000.00   0000000.00                             000000000000000                                                                                                                                                     01424 G000000006004 0000000000000.25     00050 02200                  
00006650114450001P16759067590000001330080010280000001010000000000000000                             2000000000000000000000000              000000000000                    0000000000000000000000000                    000000000000                                                                                                                                                                                                                                                                                                                                                                                                                                                                                        
00006660114450086DT67590675900000013300800102800000010180010287287283123900017703899050220230000000742412323000000000308732542418XXXXXX4395       ME03KE06MS02      NY 4607AMWEST28J80429  N840000000007424          81DNCBD8666317293            51918P    MC84000000007424 N  549977133133   01E7FB03F7TD580A0AA2D7A  000000000+600450S00130    MWE  00737                     000000000  N                0000000000000.00 0000000.00   0000000.00                             000000000000000                                                                                                                                                   U001424  000000000000 0000000000002.03     02600 01000                  
00006670114450087DT67590675900000013300800102800000010180010224001193123900017703997050220230000001576212323000000000308732402087XXXXXX7220               2111111   NYV4 A7W583119810226251N840000000015762P5DZ00    01DNCBD8666317293            905447    VD84000000015762 NP1549977133133   641F5E51DDT682766AD81E4  000000000+                F DF 00415                     000000000  N000000000       0000000000000.00 0000000.00   0000000.00                             000000000000000                                                                                                                                                     01424 G000000015762 0000000000002.75     01650 01500                  
00006680114450001P16759067590000001330080010280000001010000000000000000                             2000000000000000000000000              000000000000                    0000000000000000000000000                    000000000000                                                                                                                                                                                                                                                                                                                                                                                                                                                                                        
00006690114450088DT67590675900000013300800102800000010180010287287283123900017704053050220230000001604012323000000000308732531260XXXXXX7316       ME03KE06MS02      NY 4607AMDJT2KPJ80429  N840000000016040          81DNCBD8666317293            175609    MD84000000016040 N  549977133133   EAA05C2981T0DE4D283F566  000000000+600450S00130    MDJ  10813                     000000000  1                0000000000000.00 0000000.00   0000000.00                             000000000000000                                                                                                                                                   U001424  000000000000 0000000000000.30     00050 02200                  
00006700114450089DT67590675900000013300800102800000010180010224001193123900017704219050220230000000642412323000000000308732414721XXXXXX1564               2111111   NYV4 A7W383120033059702N8400000000064243XBS00    01DNCBD8666317293            029535    VS84000000006424 NP1549977133133   F6CB3D84DDT4F83CBD290F1  000000000+                D CD 12109                     000000000  N000000000 498   0000000000000.00 0000000.00   0000000.00                             000000000000000                                                                                                                                                     01424 G000000006424 0000000000001.71     02500 01000                  
00006710114450001P16759067590000001330080010280000001010000000000000000                             2000000000000000000000000              000000000000                    0000000000000000000000000                    000000000000                                                                                                                                                                                                                                                                                                                                                                                                                                                                                        
00006720114450090DT67590675900000013300800102800000010180010287287283123900017704228050220230000002126112323000000000308732515354XXXXXX1175       ME03KE06MS02      NY 4607AMDJEHOTJ90429  N840000000021261          81DNCBD8666317293            772300    MD84000000021261 N  549977133133   9470A8F50ET9356FF5BCF0B  000000000+600450S00130    MDJ  00401                     000000000  N                0000000000000.00 0000000.00   0000000.00                             000000000000000                                                                                                                                                   U001424  000000000000 0000000000003.66     01650 01500                  
00006730114450091DT67590675900000013300800102800000010180010287287283123900017704244050220230000000600412323000000000308732517572XXXXXX0696       ME03KE06MS02      NY 4607AMDJXWFCJ80429  N840000000006004          81DNCBD8666317293            172406    MD84000000006004 N  549977133133   96930E62B7TC1076F045A5D  000000000+600450S00130    MDJ  10813                     000000000  1                0000000000000.00 0000000.00   0000000.00                             000000000000000                                                                                                                                                   U001424  000000000000 0000000000000.25     00050 02200                  
00006740114450092DT67590675900000013300800102800000010180010224001193123900017704268050220230000001499112323000000000308732404388XXXXXX1166               2111111   NYV4 A7W303120054051972N840000000014991H4T200    01DNCBD8666317293            268253    VD84000000014991 NP1549977133133   F01009BE2FT49BA87A4D746  000000000+                F DF 00415                     000000000  N000000000       0000000000000.00 0000000.00   0000000.00                             000000000000000                                                                                                                                                     01424 G000000014991 0000000000002.62     01650 01500                  
00006750114450001P16759067590000001330080010280000001010000000000000000                             2000000000000000000000000              000000000000                    0000000000000000000000000                    000000000000                                                                                                                                                                                                                                                                                                                                                                                                                                                                                        
00006760114450093DT67590675900000013300800102800000010180010287287283123900017707205050220230000000810712323000000000308732514887XXXXXX2103       ME03KE06MS02      NY 4607AMPLSPWAL70502  N840000000008107          81DNCBD8666317293            00397Z    MC84000000008107 N  549977133133   F24353F2C9T1DD88E2B6DFD  000000000+600450S00130    MPL  00013                     000000000  N                0000000000000.00 0000000.00   0000000.00                             000000000000000                                                                                                                                                   U001424  000000000000 0000000000001.68     01950 01000                  
00006770114450094DT67590675900000013300800102800000010180010224001193123900017707212050220230000002175812323000000000308732429413XXXXXX1439               2111111   NYV4 A7W303123032307648N840000000021758ZKJG00    01DNCBD8666317293            434010    VD84000000021758 NP1549977133133   9C567EDB83T0456F8652B8F  000000000+                F DF 00415                     000000000  N000000000       0000000000000.00 0000000.00   0000000.00                             000000000000000                                                                                                                                                     01424 G000000021758 0000000000003.74     01650 01500                  
00006780114450001P16759067590000001330080010280000001010000000000000000                             2000000000000000000000000              000000000000                    0000000000000000000000000                    000000000000                                                                                                                                                                                                                                                                                                                                                                                                                                                                                        
00006790114450095DT67590675900000013300800102800000010180010287287283123900017707254050220230000001723512323000000000308732546249XXXXXX2752       ME03KE06MS02      NY 4607AMDJRZ26L50502  N840000000017235          81DNCBD8666317293            005822    MD84000000017235 N  549977133133   F80E10F798T07A04C3E2A43  000000000+600450S00130    MDJ  10813                     000000000  1                0000000000000.00 0000000.00   0000000.00                             000000000000000                                                                                                                                                   U001424  000000000000 0000000000000.31     00050 02200                  
00006800114450096DT67590675900000013300800102800000010180010224001193123900017707295050220230000000999812323000000000308732414709XXXXXX7278               2111111   NYV4 A7W583123099432968N8400000000099983QGL00    01DNCBD8666317293            06311D    VS84000000009998 NP1549977133133   5BE6C0266BTB4E1A6DB22E3  000000000+                D CD 12109                     000000000  N000000000 498   0000000000000.00 0000000.00   0000000.00                             000000000000000                                                                                                                                                     01424 G000000009998 0000000000002.60     02500 01000                  
00006810114450001P16759067590000001330080010280000001010000000000000000                             2000000000000000000000000              000000000000                    0000000000000000000000000                    000000000000                                                                                                                                                                                                                                                                                                                                                                                                                                                                                        
00006820114450097DT67590675900000013300800102800000010680010287287283123900017707312050220230000001592812323000000000308732521853XXXXXX8406                         NY 4607AMPLLRXLL50502  N840000000015928          81CNCBD8666317293            002672    MC84000000015928 N  549977133133   1C937385AATBE1F2D38EA8F  000000000+600450S00130    MPL  00565                     000000000  N                0000000000000.00 0000000.00   0000000.00                             000000000000000                                                                                                                                                     01424  000000000000-0000000000002.79     01750 00000                  
00006830114450098DT67590675900000013300800102800000010680010287287283123900017707403050320230000001558412323000000000308732542418XXXXXX4421                         NY 4607AMPLCOP4AB0503  N840000000015584          81CNCBD8666317293            973803    MC84000000015584 N  549977133133   975D60B195T29859B6E410C  000000000+600450S00130    MPL  00565                     000000000  N                0000000000000.00 0000000.00   0000000.00                             000000000000000                                                                                                                                                     01424  000000000000-0000000000002.73     01750 00000                  
