00014660557870002BH6759067590000004650880015980000090170724202320523000000000206070    0000090001010024Y8001596759C07252023001                                                                                                                                                                                                                                                                                                                                                                                                                                                                                                                                                                                              
00014670557870003DT67590675900000046508800159800000010180015924001193205900010100010072320230000001009620523000000000206070414740XXXXXX7094               2111111   NYV4 A7W383205098879717N840000000010096RNC500    01DNMELKEE LOCAL VENTURING - 03413D    VS84000000010096 NDR596978766724   NMI6555602               000000000+                D CD 12383                     000000000  N000000000 628   0000000000000.00 0000000.00   0000000.00                             000000000000000                                                                                                                                                     01424 G000000010096 0000000000002.52     02400 01000                  
00014680557870003DR675906759000000465088001598000000101NMI6555602               Y000000010096                 P1                                                                                                                                                                                                                                                                                                                                                                                                                                                                                                                                                                                                            
00014690557870001P16759067590000004650880015980000001010000000000000000                             2000000000000000000000000              000000000000                    0000000000000000000000000                    000000000000                                                                                                                                                                                                                                                                                                                                                                                                                                                                                        
00014700557870002G2675906759000000465088001598000000101800-2028993              TX           9 C                00                                      NNNN   Y                      000000000000                                                                   78766724                                                                                                                                                                                                                                                                                                                                                                                                                                               
00014710557870004DT67590675900000046508800159800000010180015973011003205900010100024072320230000002687520523000000000206070376761XXXXX5003                          NY 4 07N007811387223079N840000000026875          01DNMELKEE LOCAL VENTURING LL221817    AM84000000026875 YP1596978766724   NMI6555621               000000000+6004S0S00130 258     11266                     000000000                   0000000000000.00 0000000.00   0000000.00                             000000000000000 61248972656759675900000046508 MELKEE LOCAL VENTURING LL1150 N LOOP 1604 W ST 1087262083508      78248     INFO@KETOSQUIRREL.COM                     01324  000000000000 0000000000005.48     02000 00000                  
00014720557870001P1675906759000000465088001598000000101                    NMI6555621                            00000000000075071     8000   000000000923481034            000000000000                                                                                                      D                                                                                                                                                                                                                                                                                                                                                                                                                             
00014730557870002P2675906759000000465088001598000000101                                                                                              00000                   000000000                                                                                                                                                                                                                                                                                                                                                                                                                                                                                                                                      
00014740557870003G2675906759000000465088001598000000101SAN ANTONIO              TX           9                  00                  923481034           YNNN                          000000000000                                                                   78766724                                                                                                                                                                                                                                                                                                                                                                                                                                               
00014750557870005DT67590675900000046508800159800000010180015924001193205900010100036072320230000001505020523000000000206070442742XXXXXX6858               2111111   NYV4 A7W463205115635487N840000000015050T2RG00    01DNMELKEE LOCAL VENTURING - 031223    VD84000000015050 NDR596978766724   NMI6555661               000000000+                G DG 10352                     000000000  Y000000000 338   0000000000000.00 0000000.00   0000000.00                             000000000000000                                                                                                                                                     01424 G000000015050 0000000000000.30     00050 02200                  
00014760557870005DR675906759000000465088001598000000101NMI6555661               Z000000015050                 P1                                                                                                                                                                                                                                                                                                                                                                                                                                                                                                                                                                                                            
00014770557870001P16759067590000004650880015980000001010000000000000000    NMI6555661               2000000000000000000000000              000000000000                    0000000000000000000000000                    000000000000                                                                                                                                                                                                                                                                                                                                                                                                                                                                                        
00014780557870002G2675906759000000465088001598000000101800-2028993              TX           9 D                00                                      NNNN   N                      000000000000                                                                   78766724                                                                                                                                                                                                                                                                                                                                                                                                                                               
00014790557870006DT67590675900000046508800159800000010180015924001193205900010100051072320230000001075020523000000000206070400344XXXXXX2719               2111111   NYV4 A7W383205139917876N840000000010750PL7D00    01DNMELKEE LOCAL VENTURING - 09353D    VS84000000010750 NDR596978766724   NMI6555764               000000000+                D CD 12383                     000000000  N000000000 628   0000000000000.00 0000000.00   0000000.00                             000000000000000                                                                                                                                                     01424 G000000010750 0000000000002.68     02400 01000                  
00014800557870006DR675906759000000465088001598000000101NMI6555764               Y000000010750                 P1                                                                                                                                                                                                                                                                                                                                                                                                                                                                                                                                                                                                            
00014810557870001P16759067590000004650880015980000001010000000000000000                             2000000000000000000000000              000000000000                    0000000000000000000000000                    000000000000                                                                                                                                                                                                                                                                                                                                                                                                                                                                                        
00014820557870002G2675906759000000465088001598000000101800-2028993              TX           9 C                00                                      NNNN   Y                      000000000000                                                                   78766724                                                                                                                                                                                                                                                                                                                                                                                                                                               
00014830557870007DT67590675900000046508800159800000010180015987287283205900010100102072320230000001075020523000000000206070517805XXXXXX8164       ME07KE06MS02      NY 4607AMPLVUWT4D0723  N840000000010750          81DNMELKEE LOCAL VENTURING - 00154B    MC84000000010750 NDR596978766724   NMI6555870               000000000+600450S00130    MPL  00580                     000000000  N                0000000000000.00 0000000.00   0000000.00                             000000000000000                                                                                                                                                   U001424  000000000000 0000000000002.36     02100 01000                  
00014840557870007DR675906759000000465088001598000000101NMI6555870               Y000000000000                                                                                                                                                                                                                                                                                                                                                                                                                                                                                                                                                                                                                               
00014850557870001G2675906759000000465088001598000000101726-2083508              TX           9 L               210                                      NNNN           210000000000000000000000000                        7                                          78766724                                                                                                                                                                                                                                                                                                                                                                                                                                               
00014860557870008DT67590675900000046508800159800000010180015924001193205900010100135072420230000001343820523000000000206070400344XXXXXX2719               2111111   NYV4 A7W463205190922279N8400000000134387S4R00    01DNMELKEE LOCAL VENTURING - 04399D    VS84000000013438 NDR596978766724   NMI6555940               000000000+                D CD 12383                     000000000  N000000000 628   0000000000000.00 0000000.00   0000000.00                             000000000000000                                                                                                                                                     01424 G000000013438 0000000000003.33     02400 01000                  
00014870557870008DR675906759000000465088001598000000101NMI6555940               Y000000013438                 P1                                                                                                                                                                                                                                                                                                                                                                                                                                                                                                                                                                                                            
00014880557870001P16759067590000004650880015980000001010000000000000000                             2000000000000000000000000              000000000000                    0000000000000000000000000                    000000000000                                                                                                                                                                                                                                                                                                                                                                                                                                                                                        
00014890557870002G2675906759000000465088001598000000101800-2028993              TX           9 C                00                                      NNNN   Y                      000000000000                                                                   78766724                                                                                                                                                                                                                                                                                                                                                                                                                                               
00014900557870009DT67590675900000046508800159800000010180015924001193205900010100143072420230000001075020523000000000206070400022XXXXXX4096               2111111   NYV4 A7W583205207875825N840000000010750F2PQ00    01DNMELKEE LOCAL VENTURING - 355521    VD84000000010750 NDR596978766724   NMI6556010               000000000+                F DF 10420                     000000000  Y000000000 338   0000000000000.00 0000000.00   0000000.00                             000000000000000                                                                                                                                                     01424 G000000010750 0000000000000.27     00050 02200                  
00014910557870009DR675906759000000465088001598000000101NMI6556010               Y000000010750                 P1                                                                                                                                                                                                                                                                                                                                                                                                                                                                                                                                                                                                            
00014920557870001P16759067590000004650880015980000001010000000000000000                             2000000000000000000000000              000000000000                    0000000000000000000000000                    000000000000                                                                                                                                                                                                                                                                                                                                                                                                                                                                                        
00014930557870002G2675906759000000465088001598000000101800-2028993              TX           9 D                00                                      NNNN   N                      000000000000                                                                   78766724                                                                                                                                                                                                                                                                                                                                                                                                                                               
00014940557870010DT67590675900000046508800159800000010180015924001193205900010100168072420230000001075020523000000000206070400022XXXXXX4096               2111111   NYV4 A7W583205227570267N840000000010750BMX500    01DNMELKEE LOCAL VENTURING - 582710    VD84000000010750 NDR596978766724   NMI6556092               000000000+                F DF 10420                     000000000  Y000000000 338   0000000000000.00 0000000.00   0000000.00                             000000000000000                                                                                                                                                     01424 G000000010750 0000000000000.27     00050 02200                  
00014950557870010DR675906759000000465088001598000000101NMI6556092               Y000000010750                 P1                                                                                                                                                                                                                                                                                                                                                                                                                                                                                                                                                                                                            
00014960557870001P16759067590000004650880015980000001010000000000000000                             2000000000000000000000000              000000000000                    0000000000000000000000000                    000000000000                                                                                                                                                                                                                                                                                                                                                                                                                                                                                        
00014970557870002G2675906759000000465088001598000000101800-2028993              TX           9 D                00                                      NNNN   N                      000000000000                                                                   78766724                                                                                                                                                                                                                                                                                                                                                                                                                                               
00014980557870011DT67590675900000046508800159800000010180015924001193205900010100176072420230000002150020523000000000206070415158XXXXXX5283               2111111   NYV4 A7W383205232073295N840000000021500XSWF00    01DNMELKEE LOCAL VENTURING - 000809    VD84000000021500 NDR596978766724   NMI6556123               000000000+                F DF 00415                     000000000  N000000000       0000000000000.00 0000000.00   0000000.00                             000000000000000                                                                                                                                                     01424 G000000021500 0000000000003.70     01650 01500                  
00014990557870011DR675906759000000465088001598000000101NMI6556123               Y000000021500                 P1                                                                                                                                                                                                                                                                                                                                                                                                                                                                                                                                                                                                            
00015000557870001P16759067590000004650880015980000001010000000000000000                             2000000000000000000000000              000000000000                    0000000000000000000000000                    000000000000                                                                                                                                                                                                                                                                                                                                                                                                                                                                                        
00015010557870002G2675906759000000465088001598000000101800-2028993              TX           9 D                00                                      NNNN   N                      000000000000                                                                   78766724                                                                                                                                                                                                                                                                                                                                                                                                                                               
00015020557870012DT67590675900000046508800159800000010180015924001193205900010100184072420230000000999820523000000000206070423223XXXXXX4305               2111111   NYV4 A7W383205240523861N840000000009998VP6800    01DNMELKEE LOCAL VENTURING - 071902    VD84000000009998 NDR596978766724   NMI6556167               000000000+                F DF 00415                     000000000  N000000000       0000000000000.00 0000000.00   0000000.00                             000000000000000                                                                                                                                                     01424 G000000009998 0000000000001.80     01650 01500                  
00015030557870012DR675906759000000465088001598000000101NMI6556167               Y000000009998                 P1                                                                                                                                                                                                                                                                                                                                                                                                                                                                                                                                                                                                            
00015040557870001P16759067590000004650880015980000001010000000000000000                             2000000000000000000000000              000000000000                    0000000000000000000000000                    000000000000                                                                                                                                                                                                                                                                                                                                                                                                                                                                                        
00015050557870002G2675906759000000465088001598000000101800-2028993              TX           9 D                00                                      NNNN   N                      000000000000                                                                   78766724                                                                                                                                                                                                                                                                                                                                                                                                                                               
00015060557870013DT67590675900000046508800159800000010180015924001193205900010100200072420230000004461320523000000000206070414709XXXXXX4712               2111111   NYV4 A7W303205293370142N840000000044613MRKC00    01DNMELKEE LOCAL VENTURING - 05729D    VS84000000044613 NDR596978766724   NMI6556425               000000000+                D CD 12383                     000000000  N000000000 628   0000000000000.00 0000000.00   0000000.00                             000000000000000                                                                                                                                                     01424 G000000044613 0000000000010.81     02400 01000                  
00015070557870013DR675906759000000465088001598000000101NMI6556425               Y000000044613                 P1                                                                                                                                                                                                                                                                                                                                                                                                                                                                                                                                                                                                            
00015080557870001P16759067590000004650880015980000001010000000000000000                             2000000000000000000000000              000000000000                    0000000000000000000000000                    000000000000                                                                                                                                                                                                                                                                                                                                                                                                                                                                                        
00015090557870002G2675906759000000465088001598000000101800-2028993              TX           9 C                00                                      NNNN   Y                      000000000000                                                                   78766724                                                                                                                                                                                                                                                                                                                                                                                                                                               
00015100557870014DT67590675900000046508800159800000010180015924001193205900010100242072420230000002150020523000000000206070403784XXXXXX0521               2111111   NYV4 A7W303205384646029N840000000021500QVR400    01DNMELKEE LOCAL VENTURING - 504214    VS84000000021500 NDR596978766724   NMI6556879               000000000+                D CD 12383                     000000000  N000000000 628   0000000000000.00 0000000.00   0000000.00                             000000000000000                                                                                                                                                     01424 G000000021500 0000000000005.26     02400 01000                  
00015110557870014DR675906759000000465088001598000000101NMI6556879               Y000000021500                 P1                                                                                                                                                                                                                                                                                                                                                                                                                                                                                                                                                                                                            
00015120557870001P16759067590000004650880015980000001010000000000000000                             2000000000000000000000000              000000000000                    0000000000000000000000000                    000000000000                                                                                                                                                                                                                                                                                                                                                                                                                                                                                        
00015130557870002G2675906759000000465088001598000000101800-2028993              TX           9 C                00                                      NNNN   Y                      000000000000                                                                   78766724                                                                                                                                                                                                                                                                                                                                                                                                                                               
00015140557870015BH6759067590000001857280010580000090170724202320523000000000011657    0000090001370003Y8001056759C07252023137                                                                                                                                                                                                                                                                                                                                                                                                                                                                                                                                                                                              
00015150557870016DT67590675900000018572800105800000010180010573011003205900013700028072420230000000641920523000000000011657379777XXXXX1003                          NY 1 0 N008504896312066N840000000006419          05DNGALLERY SMOKE SHOP LLC   884307    AM84000000006419 Y  599977453598                            000000000+51010155434C 258     11261                     000000000                   0000000000000.00 0000000.00   0000000.00                             000000000000000 61248972086759675900000018572 GALLERY SMOKE SHOP LLC   9107 PARK BLVD           7724522461      33775     INFO@GALLERYSMOKESHOP.COM                 01324  000000000000 0000000000001.13     01600 00000                  
00015160557870001E167590675900000018572800105800000010100E0F8C8002C 00000000000.004040404040404040404040404040404040404040404040404006550103A0A006000000000000000000404040404040404040404040404040  000008403C00000000800023072458A8E95AB411F0421778A871404040400840A000000025010801000000000000000024E4B6EB7C44DB0C30300000000000004040405E40404040 000000064.19 000000000.005E03000000000000000000    80                                                                                                                                                                                                                                                                                                                  
00015170557870002G2675906759000000185728001058000000101SEMINOLE                 FL           0                  00                                      NNNN                          000000000000                                                                   77453598                                                                                                                                                                                                                                                                                                                                                                                                                                               
00015180557870017DT67590675900000018572800105800000033080010576759003205900013700019072420230000000069220523000000000011657534860XXXXXX3628                         NY42 0 N               N840000000000692      ME  05DNGALLERY SMOKE SHOP LLC   133117    DB84000000000692 N  599977453598                            000000000+                     09601                                1          MA1   0000000000000.00 0000000.00   0000000.00                             000000000000000                                                                                                                                                     01424  000000000000 0000000000000.22     00050 00000                  
00015190557870001G2675906759000000185728001058000000330SEMINOLE                 FL           5 D                00                                      NNNN                          000000000000                                                                   77453598                                                                                                                                                                                                                                                                                                                                                                                                                                               
00015200557870018DT67590675900000018572800105800000033080010576759003205900013700035072420230000000454620523000000000011657420767XXXXXX3717                         NY 2 0 N               N840000000004546      IL  05DNGALLERY SMOKE SHOP LLC   005718    DB84000000004546 N  599977453598                            000000000+                     09580                                Y          342   0000000000000.00 0000000.00   0000000.00                             000000000000000                                                                                                                                                     01424  000000000000 0000000000000.24     00050 00000                  
00015210557870001G2675906759000000185728001058000000330SEMINOLE                 FL           5 D                00                                      NNNN                          000000000000                                                                   77453598                                                                                                                                                                                                                                                                                                                                                                                                                                               
00015220557870019BH6759067590000003433080014180000090170724202320523000000000173629    0000090001220042Y8001416759C07252023022                                                                                                                                                                                                                                                                                                                                                                                                                                                                                                                                                                                              
00015230557870020DT67590675900000034330800141800000010180014124001193205900012200016072420230000000267420523000000000173629473703XXXXXX1130       VS11    0001111   NYV1 A E463205543966622N840000000002674WHMV00    05DNJBLISS LLC               082295    VD84000000002674 N  599978503056                            000000000+                F DF 10433                     000000000  Y000000000 338   0000000000000.00 0000000.00   0000000.00                             000000000000000                                                                                                                                                     01424 A000000000000 0000000000000.23     00050 02200                  
00015240557870001E167590675900000034330800141800000010100E0F8C804ED 00000000000.004040404040404040404040404040404040404040404040404006061203A0A000000000000000000000404040404040404040404040404040  00000840180080800080002307243DB688B76260FB887EECADB6404040400840A0000000031010000000000000000000C0A090D0A070207020200000000000004040401E40404040 000000026.74 000000000.001E00000000000000000000    80                                                                                                                                                                                                                                                                                                                  
00015250557870002G2675906759000000343308001418000000101GREENWOOD                SC           5 D                00                                      NNNN00 N 00                   000000000000                                                                   78503056                                                                                                                                                                                                                                                                                                                                                                                                                                               
00015260557870021DT67590675900000034330800141800000010180014124001193205900012200024072420230000000320820523000000000173629449594XXXXXX8174       VS11    0001111   NYV1 A E383205545249661N840000000003208SSPK00    05DNJBLISS LLC               668252    VD84000000003208 N  599978503056                            000000000+                F DF 00381                     000000000  N000000000       0000000000000.00 0000000.00   0000000.00                             000000000000000                                                                                                                                                     01424 A000000000000 0000000000000.41     00800 01500                  
00015270557870001E167590675900000034330800141800000010100E0F8C80049 00000000000.004040404040404040404040404040404040404040404040404006011203A08000000000000000000000404040404040404040404040404040  0000084018008080008000230724C60C668C29EB1C86EA4AD3C7404040400840A0000000031010000000000000000000E35B59E00382000000000000000000004040401E40404040 000000032.08 000000000.001E00000000000000000000    80                                                                                                                                                                                                                                                                                                                  
00015280557870002G2675906759000000343308001418000000101GREENWOOD                SC           5 D                00                                      NNNN00 N 00                   000000000000                                                                   78503056                                                                                                                                                                                                                                                                                                                                                                                                                                               
00015290557870022DT67590675900000034330800141800000010180014177287283205900012200034072420230000000465220523000000000173629544579XXXXXX0320       MS02WI09          NY 1 0 AMDJOZTD9I0724  N840000000004652          05DNJBLISS LLC               834382    MD84000000004652 N  599978503056                            000000000+M10101C5434C    MDJ  10815                     000000000  1                0000000000000.00 0000000.00   0000000.00                             000000000000000                                                                                                                                                   B101424  000000000000 0000000000000.24     00050 02200                  
00015300557870001E167590675900000034330800141800000010100E0F8C801A7 00000000000.00404040404040404040404040404040404040404040404040400110A00001220000000000000000000000FF00000000000000000000000000  0000084018008000088000230724BB84476BEBCA3AA158D567D1404040400840A0000000041010000000000000000000B3BF89DA14967C6603120000000000004040401E40404040 000000046.52 000000000.001E03000000000000000000    80                                                                                                                                                                                                                                                                                                                  
00015310557870002G2675906759000000343308001418000000101GREENWOOD                SC           5 J                                                        NNNN              000000000000000000000000                        7                                          78503056                                                                                                                                                                                                                                                                                                                                                                                                                                               
00015320557870023DT67590675900000034330800141800000010180014124001193205900012200040072420230000000588320523000000000173629440393XXXXXX3052       VS11    0001111   NYV1 A E383205553646366N840000000005883TS7M00    05DNJBLISS LLC               538454    VD84000000005883 N  599978503056                            000000000+                F PF 08170                     000000000  N000000000       0000000000000.00 0000000.00   0000000.00                             000000000000000                                                                                                                                                     01424 A000000000000 0000000000000.83     01150 01500                  
00015330557870001E167590675900000034330800141800000010100E0F8C80053 00000000000.004040404040404040404040404040404040404040404040404006011203A0A000000000000000000000404040404040404040404040404040  0000084018008080008000230724D1FF4126E0A4872FDFBE555A404040400840A00000000310100000000000000000003DF7CBC46AF76EE430300000000000004040401E40404040 000000058.83 000000000.001E00000000000000000000    80                                                                                                                                                                                                                                                                                                                  
00015340557870002G2675906759000000343308001418000000101GREENWOOD                SC           5 P                00                                      NNNN00 N 00                   000000000000                                                                   78503056                                                                                                                                                                                                                                                                                                                                                                                                                                               
00015350557870024DT67590675900000034330800141800000010180014124001193205900012200057072420230000000320920523000000000173629447734XXXXXX7815       VS11    0001111   NYV1 A E463205561722983N840000000003209SRK300    05DNJBLISS LLC               104799    VD84000000003209 N  599978503056                            000000000+                F DF 00381                     000000000  N000000000       0000000000000.00 0000000.00   0000000.00                             000000000000000                                                                                                                                                     01424 A000000000000 0000000000000.41     00800 01500                  
00015360557870001E167590675900000034330800141800000010100E0F8C80210 00000000000.004040404040404040404040404040404040404040404040404006011203A0A000000000000000000000404040404040404040404040404040  0001084018008080008000230724212651B7127D04131D58C99F404040400840A0000000031010000000000000000000815A8E960382000000000000000000004040401E40404040 000000032.09 000000000.001E00000000000000000000    80                                                                                                                                                                                                                                                                                                                  
00015370557870002G2675906759000000343308001418000000101GREENWOOD                SC           5 D                00                                      NNNN00 N 00                   000000000000                                                                   78503056                                                                                                                                                                                                                                                                                                                                                                                                                                               
00015380557870025DT67590675900000034330800141800000010180014177287283205900012200067072420230000000534820523000000000173629523957XXXXXX1137       MS02WI09          NY 1 0 AMDJWJYS9I0724  N840000000005348          05DNJBLISS LLC               298640    MD84000000005348 N  599978503056                            000000000+M10101C5434C    MDJ  00402                     000000000  N                0000000000000.00 0000000.00   0000000.00                             000000000000000                                                                                                                                                   B101424  000000000000 0000000000000.71     01050 01500                  
00015390557870001E167590675900000034330800141800000010100E0F8C801A9 00000000000.00404040404040404040404040404040404040404040404040400110A00001220000000000000000000000FF00000000000000000000000000  00010840180080000080002307244BD6552393D47229544FB22E404040400840A00000000410100000000000000000001B551F44E6A1A65500120000000000004040401E40404040 000000053.48 000000000.001E03000000000000000000    80                                                                                                                                                                                                                                                                                                                  
00015400557870002G2675906759000000343308001418000000101GREENWOOD                SC           5 J                                                        NNNN              000000000000000000000000                                                                   78503056                                                                                                                                                                                                                                                                                                                                                                                                                                               
00015410557870026DT67590675900000034330800141800000010180014173011003205900012200079072420230000000192520523000000000173629379582XXXXX1007                          NY 1 0 N007814533787070N840000000001925          05DNJBLISS LLC               860116    AM84000000001925 Y  599978503056                            000000000+51010155434C 258     11261                     000000000                   0000000000000.00 0000000.00   0000000.00                             000000000000000 61248972086759675900000034330 JBLISS LLC               301 MAIN ST S            8644009175      29649     CANNABLISS29646@GMAIL.COM                 01324  000000000000 0000000000000.41     01600 00000                  
00015420557870001E167590675900000034330800141800000010100E0F8C80338 00000000000.004040404040404040404040404040404040404040404040404006590103A0A002000000000000000000404040404040404040404040404040  000008403C0000000080002307244374A71CC98BB3BB37651178404040400840A0000000250108010000000000000000BC58C0E7D990EA5930300000000000004040401E40404040 000000019.25 000000000.001E03000000000000000000    80                                                                                                                                                                                                                                                                                                                  
00015430557870002G2675906759000000343308001418000000101GREENWOOD                SC           5                  00                                      NNNN                          000000000000                                                                   78503056                                                                                                                                                                                                                                                                                                                                                                                                                                               
00015440557870027DT67590675900000034330800141800000010180014124001193205900012200081072420230000000855720523000000000173629446540XXXXXX7949       VS11    0001111   NYV1 A E383205582495171N840000000008557ZW7D00    05DNJBLISS LLC               024005    VS84000000008557 N  599978503056                            000000000+                D CD 12113                     000000000  N000000000 499   0000000000000.00 0000000.00   0000000.00                             000000000000000                                                                                                                                                     01424 A000000000000 0000000000001.90     02100 01000                  
00015450557870001E167590675900000034330800141800000010100E0F8C80010 00000000000.004040404040404040404040404040404040404040404040404006031203A0B000000000000000000000404040404040404040404040404040  00040840180080800080002307240AF933C41F043B34D755A469404040400840A00000000310100000000000000000006A25FA9A0082000000000000000000004040401E40404040 000000085.57 000000000.001E00000000000000000000    80                                                                                                                                                                                                                                                                                                                  
00015460557870002G2675906759000000343308001418000000101GREENWOOD                SC           5 C                00                                      NNNN00 Y 00                   000000000000                                                                   78503056                                                                                                                                                                                                                                                                                                                                                                                                                                               
00015470557870028DT67590675900000034330800141800000010180014124001193205900012200099072420230000000182920523000000000173629449594XXXXXX2289       VS11    0001111   NYV1 A E463205593049229N840000000001829SDM500    05DNJBLISS LLC               169287    VD84000000001829 N  599978503056                            000000000+                F DF 00381                     000000000  N000000000       0000000000000.00 0000000.00   0000000.00                             000000000000000                                                                                                                                                     01424 A000000000000 0000000000000.30     00800 01500                  
00015480557870001E167590675900000034330800141800000010100E0F8C80052 00000000000.004040404040404040404040404040404040404040404040404006011203A08000000000000000000000404040404040404040404040404040  00000840180080800080002307241C14C5A3D413F7C92181FD0B404040400840A0000000031010000000000000000000FB4276270382000000000000000000004040401E40404040 000000018.29 000000000.001E00000000000000000000    80                                                                                                                                                                                                                                                                                                                  
00015490557870002G2675906759000000343308001418000000101GREENWOOD                SC           5 D                00                                      NNNN00 N 00                   000000000000                                                                   78503056                                                                                                                                                                                                                                                                                                                                                                                                                                               
00015500557870029DT67590675900000034330800141800000010180014177287283205900012200109072420230000000267420523000000000173629514230XXXXXX6784       MS02WI09          NY 1 0 AMDJE3RS9J0724  N840000000002674          05DNJBLISS LLC               F2C6F0    MD84000000002674 N  599978503056                            000000000+M10101C5434C    MDJ  00402                     000000000  N                0000000000000.00 0000000.00   0000000.00                             000000000000000                                                                                                                                                   B101424  000000000000 0000000000000.43     01050 01500                  
00015510557870001E167590675900000034330800141800000010100E0F8C80006 00000000000.00404040404040404040404040404040404040404040404040400110A04001220000000000000000000000FF00000000000000000000000000  00010840390000000080002307242C4B010A175D85E05F70CA14404040400840A0000000041010000000000000000000CD4B6D94B54CECC000120000000000004040401E40404040 000000026.74 000000000.001E03000000000000000000    80                                                                                                                                                                                                                                                                                                                  
00015520557870002G2675906759000000343308001418000000101GREENWOOD                SC           5 J                                                        NNNN              000000000000000000000000                        7                                          78503056                                                                                                                                                                                                                                                                                                                                                                                                                                               
00015530557870030DT67590675900000034330800141800000010180014124001193205900012200115072420230000000534820523000000000173629421783XXXXXX8532       VS11    0001111   NYV1 A E303205599191211N840000000005348495X00    05DNJBLISS LLC               063434    VS84000000005348 N  599978503056                            000000000+                A CA 12110                     000000000  N000000000 493   0000000000000.00 0000000.00   0000000.00                             000000000000000                                                                                                                                                     01424 A000000000000 0000000000000.91     01510 01000                  
00015540557870001E167590675900000034330800141800000010100E0F8C80041 00000000000.004040404040404040404040404040404040404040404040404006011203A0A000000000000000000000404040404040404040404040404040  000008401800808000800023072459E0B4694D994CB0E63E1DAC404040400840A0000000031010000000000000000000910DC6400080000000000000000000004040401E40404040 000000053.48 000000000.001E00000000000000000000    80                                                                                                                                                                                                                                                                                                                  
00015550557870002G2675906759000000343308001418000000101GREENWOOD                SC           5 C                00                                      NNNN00 N 00                   000000000000                                                                   78503056                                                                                                                                                                                                                                                                                                                                                                                                                                               
00015560557870031DT67590675900000034330800141800000010180014124001193205900012200123072420230000000182920523000000000173629448261XXXXXX7595       VS11    0001111   NYV1 A E383205603108567N8400000000018297LGX00    05DNJBLISS LLC               833336    VD84000000001829 N  599978503056                            000000000+                F DF 10433                     000000000  Y000000000 338   0000000000000.00 0000000.00   0000000.00                             000000000000000                                                                                                                                                     01424 A000000000000 0000000000000.23     00050 02200                  
00015570557870001E167590675900000034330800141800000010100E0F8C80726 00000000000.004040404040404040404040404040404040404040404040404006011203A0A000000000000000000000404040404040404040404040404040  000108401800808000800023072438825760B4DFE266E41994F6404040400840A00000000310100000000000000000005D4C0D1C0382000000000000000000004040401E40404040 000000018.29 000000000.001E00000000000000000000    80                                                                                                                                                                                                                                                                                                                  
00015580557870002G2675906759000000343308001418000000101GREENWOOD                SC           5 D                00                                      NNNN00 N 00                   000000000000                                                                   78503056                                                                                                                                                                                                                                                                                                                                                                                                                                               
00015590557870032DT67590675900000034330800141800000010180014177287283205900012200133072420230000000374420523000000000173629546638XXXXXX8887       MS02WI09          NY 1 0 AMWEIWA8CA0724  N840000000003744          05DNJBLISS LLC               04318Z    MC84000000003744 N  599978503056                            000000000+M10101C5434C    MWE  00739                     000000000  N                0000000000000.00 0000000.00   0000000.00                             000000000000000                                                                                                                                                   B101424  000000000000 0000000000000.96     02300 01000                  
00015600557870001E167590675900000034330800141800000010100E0F8C8018C 00000000000.00404040404040404040404040404040404040404040404040400110A04003220000000000000000000000FF00000000000000000000000000  0003084039000000008000230724D845F6CF16A13D8AC3F20B5C404040400840A00000000410100000000000000000006E78F62955AE31BD00120000000000004040401E40404040 000000037.44 000000000.001E03000000000000000000    80                                                                                                                                                                                                                                                                                                                  
00015610557870002G2675906759000000343308001418000000101GREENWOOD                SC           5 E                                                        NNNN              000000000000000000000000                        7                                          78503056                                                                                                                                                                                                                                                                                                                                                                                                                                               
00015620557870033DT67590675900000034330800141800000010180014124001193205900012200149072420230000000984020523000000000173629447734XXXXXX4513       VS11    0001111   NYV1 A E303205606414682N8400000000098404NZ500    05DNJBLISS LLC               120626    VD84000000009840 N  599978503056                            000000000+                F DF 00381                     000000000  N000000000       0000000000000.00 0000000.00   0000000.00                             000000000000000                                                                                                                                                     01424 A000000000000 0000000000000.94     00800 01500                  
00015630557870001E167590675900000034330800141800000010100E0F8C8020B 00000000000.004040404040404040404040404040404040404040404040404006011203A0A000000000000000000000404040404040404040404040404040  0001084018008080008000230724F7C53CE7A31051D379DA51F2404040400840A0000000031010000000000000000000E6EEFE260382000000000000000000004040401E40404040 000000098.40 000000000.001E00000000000000000000    80                                                                                                                                                                                                                                                                                                                  
00015640557870002G2675906759000000343308001418000000101GREENWOOD                SC           5 D                00                                      NNNN00 N 00                   000000000000                                                                   78503056                                                                                                                                                                                                                                                                                                                                                                                                                                               
00015650557870034DT67590675900000034330800141800000010180014124001193205900012200156072420230000000588420523000000000173629448261XXXXXX4129       VS11    0001111   NYV1 A E583205609831412N840000000005884M6JD00    05DNJBLISS LLC               669273    VD84000000005884 N  599978503056                            000000000+                F DF 10433                     000000000  Y000000000 338   0000000000000.00 0000000.00   0000000.00                             000000000000000                                                                                                                                                     01424 A000000000000 0000000000000.25     00050 02200                  
00015660557870001E167590675900000034330800141800000010100E0F8C8000D 00000000000.004040404040404040404040404040404040404040404040404006011203A0B000000000000000000000404040404040404040404040404040  000108401800808000800023072463712FB7A96D1666D1D20091404040400840A000000003101000000000000000000074674E7B0382000000000000000000004040401E40404040 000000058.84 000000000.001E00000000000000000000    80                                                                                                                                                                                                                                                                                                                  
00015670557870002G2675906759000000343308001418000000101GREENWOOD                SC           5 D                00                                      NNNN00 N 00                   000000000000                                                                   78503056                                                                                                                                                                                                                                                                                                                                                                                                                                               
00015680557870035DT67590675900000034330800141800000010180014124001193205900012200164072420230000000213720523000000000173629430602XXXXXX6276       VS11    0001111   NYV1 A E303205647556865N840000000002137MC3G00    07DNJBLISS LLC               330975    VD84000000002137 N  599978503056                            000000000+                F DF 00381                     000000000  N000000000       0000000000000.00 0000000.00   0000000.00                             000000000000000                                                                                                                                                     01424 A000000000000 0000000000000.32     00800 01500                  
00015690557870001E167590675900000034330800141800000010100E068C801BF 00000000000.004040404040404040404040404040404040404040404040404006011203A00000000000000000000000404040404040404040404040404040  000008402000000000000023072437E1E2325A48A38E3DD647E3404040400840A00000000310100000000000000000005418D41C0382000000000000000000004040404040404040 000000021.37 000000000.004040400000000000000000    80                                                                                                                                                                                                                                                                                                                  
00015700557870002G2675906759000000343308001418000000101GREENWOOD                SC           5 D                00                                      NNNN00 N 00                   000000000000                                                                   78503056                                                                                                                                                                                                                                                                                                                                                                                                                                               
00015710557870036DT67590675900000034330800141800000010180014124001193205900012200172072420230000000160420523000000000173629434258XXXXXX2814       VS11    0001111   NYV1 A E383205650890653N840000000001604DS8S00    05DNJBLISS LLC               040524    VD84000000001604 N  599978503056                            000000000+                F DF 10433                     000000000  Y000000000 338   0000000000000.00 0000000.00   0000000.00                             000000000000000                                                                                                                                                     01424 A000000000000 0000000000000.23     00050 02200                  
00015720557870001E167590675900000034330800141800000010100E0F8C80023 00000000000.004040404040404040404040404040404040404040404040404006061203A02000000000000000000000404040404040404040404040404040  0000084018008080008000230724264CF9D76F086EB39D1A9622404040400840A000000003101000000000000000000080A050B0F07010B020200000000000004040401E40404040 000000016.04 000000000.001E00000000000000000000    80                                                                                                                                                                                                                                                                                                                  
00015730557870002G2675906759000000343308001418000000101GREENWOOD                SC           5 D                00                                      NNNN00 N 00                   000000000000                                                                   78503056                                                                                                                                                                                                                                                                                                                                                                                                                                               
00015740557870037DT67590675900000034330800141800000010180014124001193205900012200180072420230000000534820523000000000173629449594XXXXXX0744       VS11    0001111   NYV1 A E463205654449685N840000000005348DH2800    07DNJBLISS LLC               498264    VD84000000005348 N  599978503056                            000000000+                F DF 00381                     000000000  N000000000       0000000000000.00 0000000.00   0000000.00                             000000000000000                                                                                                                                                     01424 A000000000000 0000000000000.58     00800 01500                  
00015750557870001E167590675900000034330800141800000010100E068C8009B 00000000000.004040404040404040404040404040404040404040404040404006011203A00000000000000000000000404040404040404040404040404040  00000840200000000000002307241900408D64F1C934261DDDA5404040400840A000000003101000000000000000000069D471A20382000000000000000000004040404040404040 000000053.48 000000000.004040400000000000000000    80                                                                                                                                                                                                                                                                                                                  
00015760557870002G2675906759000000343308001418000000101GREENWOOD                SC           5 D                00                                      NNNN00 N 00                   000000000000                                                                   78503056                                                                                                                                                                                                                                                                                                                                                                                                                                               
00015770557870038DT67590675900000034330800141800000010180014124001193205900012200198072420230000000267420523000000000173629440393XXXXXX9169       VS11    0001111   NYV1 A E463205665145822N84000000000267447PS00    07DNJBLISS LLC               713039    VD84000000002674 N  599978503056                            000000000+                F PF 08170                     000000000  N000000000       0000000000000.00 0000000.00   0000000.00                             000000000000000                                                                                                                                                     01424 A000000000000 0000000000000.46     01150 01500                  
00015780557870001E167590675900000034330800141800000010100E068C8009C 00000000000.004040404040404040404040404040404040404040404040404006011203A00000000000000000000000404040404040404040404040404040  00000840200000000000002307242F8D5A49BED485B1109FD2F2404040400840A00000000310100000000000000000000FAD052F58DB4ADA30300000000000004040404040404040 000000026.74 000000000.004040400000000000000000    80                                                                                                                                                                                                                                                                                                                  
00015790557870002G2675906759000000343308001418000000101GREENWOOD                SC           5 P                00                                      NNNN00 N 00                   000000000000                                                                   78503056                                                                                                                                                                                                                                                                                                                                                                                                                                               
00015800557870039DT67590675900000034330800141800000010180014124001193205900012200206072420230000000064120523000000000173629440393XXXXXX3760       VK04VS111111111   NYV1 A E303205670002765N840000000000641F4J400    05DNJBLISS LLC               025640    VD84000000000641 N  599978503056                            000000000+                F PF 08165                     000000000  N000000000       0000000000000.00 0000000.00   0000000.00                             000000000000000                                                                                                                                                     01424 F000000000000 0000000000000.15     01600 00500                  
00015810557870001E167590675900000034330800141800000010100E0F8C8005F 00000000000.004040404040404040404040404040404040404040404040404006011203A08000000000000000000000404040404040404040404040404040  0000084018008080008000230724AB4D38AACFCDAA9141C3B143404040400840A000000003101000000000000000000060F0F3F9C90D3C1830300000000000004040401E40404040 000000006.41 000000000.001E00000000000000000000    80                                                                                                                                                                                                                                                                                                                  
00015820557870002G2675906759000000343308001418000000101GREENWOOD                SC           5 P                00                                      NNNN00 N 00                   000000000000                                                                   78503056                                                                                                                                                                                                                                                                                                                                                                                                                                               
00015830557870040DT67590675900000034330800141800000010180014177287283205900012200216072420230000000160420523000000000173629522096XXXXXX3983       MS02WI09          NY 1 0 AMPYCC5HUM0724  N840000000001604          90DNJBLISS LLC               024261    MD84000000001604 N  599978503056                            000000000+M10101B5434C    MPY  11964                     000000000  N                0000000000000.00 0000000.00   0000000.00                             000000000000000                                                                                                                                                   C101424  000000000000 0000000000000.33     01150 01500                  
00015840557870001G2675906759000000343308001418000000101GREENWOOD                SC           5 Y                                                        NNNN              000000000000000000000000                                                                   78503056                                                                                                                                                                                                                                                                                                                                                                                                                                               
00015850557870041DT67590675900000034330800141800000010180014124001193205900012200222072420230000000128320523000000000173629449594XXXXXX4428       VK04VS111111111   NYV1 A E463205689995908N84000000000128329QQ00    05DNJBLISS LLC               834397    VD84000000001283 N  599978503056                            000000000+                F DF 00451                     000000000  N000000000 214   0000000000000.00 0000000.00   0000000.00                             000000000000000                                                                                                                                                     01424 F000000000000 0000000000000.24     01550 00400                  
00015860557870001E167590675900000034330800141800000010100E0F8C80018 00000000000.004040404040404040404040404040404040404040404040404006011203A00000000000000000000000404040404040404040404040404040  000008401800808000800023072422B249B40A78BE8C49248550404040400840A00000000310100000000000000000007C8391100382000000000000000000004040401E40404040 000000012.83 000000000.001E00000000000000000000    80                                                                                                                                                                                                                                                                                                                  
00015870557870002G2675906759000000343308001418000000101GREENWOOD                SC           5 D                00                                      NNNN00 N 00                   000000000000                                                                   78503056                                                                                                                                                                                                                                                                                                                                                                                                                                               
00015880557870042DT67590675900000034330800141800000010180014124001193205900012200230072420230000000053420523000000000173629433477XXXXXX3491       VK04VS111111111   NYV1 A E303205696431882N840000000000534KD2H00    05DNJBLISS LLC               062778    VD84000000000534 N  599978503056                            000000000+                F DF 10439                     000000000  Y000000000 331   0000000000000.00 0000000.00   0000000.00                             000000000000000                                                                                                                                                     01424 F000000000000 0000000000000.22     00050 02200                  
00015890557870001E167590675900000034330800141800000010100E0F8C80044 00000000000.004040404040404040404040404040404040404040404040404006011203A0A000000000000000000000404040404040404040404040404040  000108401800808000800023072456F11525035EADED71A04256404040400840A00000000310100000000000000000008FE68CE00082000000000000000000004040401E40404040 000000005.34 000000000.001E00000000000000000000    80                                                                                                                                                                                                                                                                                                                  
00015900557870002G2675906759000000343308001418000000101GREENWOOD                SC           5 D                00                                      NNNN00 N 00                   000000000000                                                                   78503056                                                                                                                                                                                                                                                                                                                                                                                                                                               
00015910557870043DT67590675900000034330800141800000010180014124001193205900012200248072420230000001219520523000000000173629440393XXXXXX3168       VS11    0001111   NYV1 A E303205707179279N840000000012195V64S00    05DNJBLISS LLC               764662    VD84000000012195 N  599978503056                            000000000+                F PF 08170                     000000000  N000000000       0000000000000.00 0000000.00   0000000.00                             000000000000000                                                                                                                                                     01424 A000000000000 0000000000001.55     01150 01500                  
00015920557870001E167590675900000034330800141800000010100E0F8C80027 00000000000.004040404040404040404040404040404040404040404040404006011203A0A000000000000000000000404040404040404040404040404040  00000840180080800080002307249FE679980B8872835F3CAE6D404040400840A0000000031010000000000000000000B76A28F542E84EA730300000000000004040401E40404040 000000121.95 000000000.001E00000000000000000000    80                                                                                                                                                                                                                                                                                                                  
00015930557870002G2675906759000000343308001418000000101GREENWOOD                SC           5 P                00                                      NNNN00 N 00                   000000000000                                                                   78503056                                                                                                                                                                                                                                                                                                                                                                                                                                               
00015940557870044DT67590675900000034330800141800000010180014124001193205900012200255072420230000000021320523000000000173629440393XXXXXX6218       VK04VS111111111   NYV1 A E583205721249603N840000000000213C2WX00    05DNJBLISS LLC               160050    VD84000000000213 N  599978503056                            000000000+                F PF 08165                     000000000  N000000000       0000000000000.00 0000000.00   0000000.00                             000000000000000                                                                                                                                                     01424 F000000000000 0000000000000.08     01600 00500                  
00015950557870001E167590675900000034330800141800000010100E0F8C8014C 00000000000.004040404040404040404040404040404040404040404040404006011203A0A000000000000000000000404040404040404040404040404040  00000840180080800080002307243CA1CB537095DA8E5D3E7E39404040400840A0000000031010000000000000000000D6BA2AB878EC70A830300000000000004040401E40404040 000000002.13 000000000.001E00000000000000000000    80                                                                                                                                                                                                                                                                                                                  
00015960557870002G2675906759000000343308001418000000101GREENWOOD                SC           5 P                00                                      NNNN00 N 00                   000000000000                                                                   78503056                                                                                                                                                                                                                                                                                                                                                                                                                                               
00015970557870045DT67590675900000034330800141800000010180014124001193205900012200263072420230000000267420523000000000173629440393XXXXXX1493       VS11    0001111   NYV1 A E383205730151108N840000000002674KCHT00    05DNJBLISS LLC               522816    VD84000000002674 N  599978503056                            000000000+                F PF 08170                     000000000  N000000000       0000000000000.00 0000000.00   0000000.00                             000000000000000                                                                                                                                                     01424 A000000000000 0000000000000.46     01150 01500                  
00015980557870001E167590675900000034330800141800000010100E0F8C80035 00000000000.004040404040404040404040404040404040404040404040404006011203A00000000000000000000000404040404040404040404040404040  000008401800808000800023072445B625922515F695D75F2A15404040400840A0000000031010000000000000000000746CBAC5E61811F030300000000000004040401E40404040 000000026.74 000000000.001E00000000000000000000    80                                                                                                                                                                                                                                                                                                                  
00015990557870002G2675906759000000343308001418000000101GREENWOOD                SC           5 P                00                                      NNNN00 N 00                   000000000000                                                                   78503056                                                                                                                                                                                                                                                                                                                                                                                                                                               
00016000557870046DT67590675900000034330800141800000010180014124001193205900012200271072420230000000663220523000000000173629449594XXXXXX4669       VS11    0001111   NYV1 A E463205743308584N840000000006632DF5700    05DNJBLISS LLC               833348    VD84000000006632 N  599978503056                            000000000+                F DF 00381                     000000000  N000000000       0000000000000.00 0000000.00   0000000.00                             000000000000000                                                                                                                                                     01424 A000000000000 0000000000000.68     00800 01500                  
00016010557870001E167590675900000034330800141800000010100E0F8C80071 00000000000.004040404040404040404040404040404040404040404040404006011203A08000000000000000000000404040404040404040404040404040  0000084018008080008000230724F2CE48F2816CE4D1A9856178404040400840A0000000031010000000000000000000E2BAE8AF0382000000000000000000004040401E40404040 000000066.32 000000000.001E00000000000000000000    80                                                                                                                                                                                                                                                                                                                  
00016020557870002G2675906759000000343308001418000000101GREENWOOD                SC           5 D                00                                      NNNN00 N 00                   000000000000                                                                   78503056                                                                                                                                                                                                                                                                                                                                                                                                                                               
00016030557870047DT67590675900000034330800141800000010180014124001193205900012200289072420230000000433220523000000000173629421783XXXXXX1896       VS11    0001111   NYV1 A E583205745208412N840000000004332WKZV00    05DNJBLISS LLC               056319    VS84000000004332 N  599978503056                            000000000+                A CA 12110                     000000000  N000000000 493   0000000000000.00 0000000.00   0000000.00                             000000000000000                                                                                                                                                     01424 A000000000000 0000000000000.75     01510 01000                  
00016040557870001E167590675900000034330800141800000010100E0F8C80095 00000000000.004040404040404040404040404040404040404040404040404006011203A02000000000000000000000404040404040404040404040404040  00000840180080800080002307245118E46A1C3FF4BBB14741F5404040400840A000000003101000000000000000000003302A750080000000000000000000004040401E40404040 000000043.32 000000000.001E00000000000000000000    80                                                                                                                                                                                                                                                                                                                  
00016050557870002G2675906759000000343308001418000000101GREENWOOD                SC           5 C                00                                      NNNN00 N 00                   000000000000                                                                   78503056                                                                                                                                                                                                                                                                                                                                                                                                                                               
00016060557870048DT67590675900000034330800141800000010180014124001193205900012200297072420230000001014920523000000000173629448261XXXXXX7864       VS11    0001111   NYV1 A E303205747588148N840000000010149RVSK00    05DNJBLISS LLC               502273    VD84000000010149 N  599978503056                            000000000+                F DF 10433                     000000000  Y000000000 338   0000000000000.00 0000000.00   0000000.00                             000000000000000                                                                                                                                                     01424 A000000000000 0000000000000.27     00050 02200                  
00016070557870001E167590675900000034330800141800000010100E0F8C8018C 00000000000.004040404040404040404040404040404040404040404040404006011203A0A000000000000000000000404040404040404040404040404040  00010840180080800080002307243BD1B2F1148FBCEED9B39C6D404040400840A0000000031010000000000000000000EA6AF3D40382000000000000000000004040401E40404040 000000101.49 000000000.001E00000000000000000000    80                                                                                                                                                                                                                                                                                                                  
