01519260156580002BH6759067590000000017480000180000090171107202231122000000000000000    0000090001005851N8000016759C11082022                                                                                                                                                                                                                                                                                                                                                                                                                                                                                                                                                                                                 
01519270156580003DT67590675900000000174800001800000010680000176509752311900010030390110720220000000012531122000000000000000601100XXXXXX6003   BA00                  NY94 0 N               N840000000000000          01CNVERMONT STATE BANK                 DS84000000000125 N  549975551542010                         000000000+0001104910600   DCCDI01022000000  123508200000 000000000  0          134   0000000000000.00 0000000.00   0000000.00                             000000000000000                                                                                                                                                     01418  000000000000-0000000000000.02     01750 00000                  
01519280156580004DT67590675900000000174800001800000010680000174001192311900010058695110720220000000012531122000000000000000460722XXXXXX2861               0000000   NYV4 07T382311782880928N840000000000000NJMD00    01CNVERMONT STATE BANK       012259    VD84000000000125 NP1549975551542   5869                     000000000+                F DF 08168                     000000000  N000000000 369   0000000000000.00 0000000.00   0000000.00                             000000000000000                                                                                                                                                     01418  000000000000 0000000000000.00     00000 00000                  
01519290156580001P16759067590000000017480000180000001060000000000000000                             2000000000000000000000000              000000000000                    0000000000000000000000000                    000000000000                                                                                                                                                                                                                                                                                                                                                                                                                                                                                        
01519300156580005DT67590675900000000174800001800000010680000174001192311900010059719110720220000000015031122000000000000000460722XXXXXX2861               0000000   NYV4 07T382311783789354N840000000000000MFD900    01CNVERMONT STATE BANK       002162    VD84000000000150 NP1549975551542   5971                     000000000+                F DF 08168                     000000000  N000000000 369   0000000000000.00 0000000.00   0000000.00                             000000000000000                                                                                                                                                     01418  000000000000 0000000000000.00     00000 00000                  
01519310156580001P16759067590000000017480000180000001060000000000000000                             2000000000000000000000000              000000000000                    0000000000000000000000000                    000000000000                                                                                                                                                                                                                                                                                                                                                                                                                                                                                        
01519320156580006DT67590675900000000174800001800000010180000176509752311900010030192110720220000000012531122000000000000000601100XXXXXX6003   BA50                  NY41 0 N862268436922909N840000000000125    00    05DNVERMONT STATE BANK       00706R    DS84000000000125 N  549975551542050                         000000000+0000004910H00   DCCDI11946003017  153452000000 000000000  0          821   0000000000000.00 0000000.00   0000000.00                             000000000000000                                                                                                                                                     01418  000000000000 0000000000000.02     01950 00000                  
01519330156580007DT67590675900000000174800001800000010180000124001192311900010058112110720220000000015031122000000000000000460722XXXXXX2861       VK04VS111111111   NYV1 A E582311782317195N840000000000150VZVC00    07DNVERMONT STATE BANK       658670    VD84000000000150 N  549975551542                            000000000+                F DF 00451                     000000000  N000000000 214   0000000000000.00 0000000.00   0000000.00                             000000000000000                                                                                                                                                     01418 F000000000000 0000000000000.06     01550 00400                  
01519340156580008DT67590675900000000174800001800000010180000124001192311900010058518110720220000000012531122000000000000000460722XXXXXX2861       VK04VS111111111   NYV1 A E302311782692684N840000000000125FD5X00    05DNVERMONT STATE BANK       658890    VD84000000000125 N  549975551542                            000000000+                F DF 00451                     000000000  N000000000 214   0000000000000.00 0000000.00   0000000.00                             000000000000000                                                                                                                                                     01418 F000000000000 0000000000000.06     01550 00400                  
01519350156580009BH6759067590000000051380000180000090171107202231122000000000000290    0000090001060003N8000016759C11082022                                                                                                                                                                                                                                                                                                                                                                                                                                                                                                                                                                                                 
01519360156580010DT67590675900000000513800001800000010180000176509752311900010600010110720220000000020031122000000000000290364877XXXX2280     BA05                  NY41 0 N872268547860104N840000000000200    00    07DNVERMONT STATE BANK2      003360    DZ84000000000200 N  549975705321830                         000000000+0000004910H00   DMCDI11557601010  193946000000 000000000  0          811   0000000000000.00 0000000.0000 0000000.00                             000000000000000                                                                                                                                                     01418  000000000000 0000000000000.14     01900 01000                  
01519370156580011DT67590675900000000513800001800000010180000176509752311900010600028110720220000000010931122000000000000290355099XXXXXX1037   BA03                  NY 1 0 N742268551543287N840000000000109    00    90DNVERMONT STATE BANK2      122174    DJ84000000000109 N  549975705321850                         000000000+0000004910H00   DCPDI11556002018  194554000000 000000000  0          812   0000000000000.00 0000000.0000 0000000.00                             000000000000000                                                                                                                                                     01418  000000000000 0000000000000.02     01650 00000                  
01519380156580012DT67590675900000000513800001800000010680000176509752311900010600036110720220000000001931122000000000000290355099XXXXXX1037   BA00                  NY91 0 N               N840000000000000          01CNVERMONT STATE BANK2                DJ84000000000019 N  549975705321010                         000000000+0000004910H00   DCPDI02606000000  184816200000 000000000  0          802   0000000000000.00 0000000.00   0000000.00                             000000000000000                                                                                                                                                     01418  000000000000 0000000000000.00     00000 00000                  
