01867510321750002BH6759067590000001165080088880000090170214202304523000000000003089    0000090001030001N8008886759C02152023                                                                                                                                                                                                                                                                                                                                                                                                                                                                                                                                                                                                 
01867520321750003DT67590675900000011650800888800000010180088877287283045900010300012021420230000000308904523000000000003089544372XXXXXX8302       MS02WI09          NY 1 0 AMDSXRXKX70214  N840000000003089          05DNVPODS HOLDING INC        329539    MD84000000003089 N  599977032122                            000000000+M10101C5434C    MDS  00402                     000000000  N                0000000000000.00 0000000.00   0000000.00                             000000000000000                                                                                                                                                   B101418  000000000000 0000000000000.47     01050 01500                  
01867530321750004BH6759067590000000215480088880000090170214202304523000000000781600    0000090001082693N8008886759C02152023                                                                                                                                                                                                                                                                                                                                                                                                                                                                                                                                                                                                 
01867540321750005DT67590675900000002154800888800000010180088887287283045900010802578021420230000049320004523000000000781600545212XXXXXX1347       ME03KE06MS02      NY 4607AMWEDOM1ON0214  N840000000493200          81DNDRIP DROP DISTRO LLC     07647Z    MC84000000493200 N  519900000001   INV-000709               000000000+600450S00140    MWE  00737                     000000000  N                0000000000000.00 0000000.00   0000000.00                             000000000000000                                                                                                                                                   U001418  000000000000 0000000000128.33     02600 01000                  
01867550321750006DT67590675900000002154800888800000010180088873011003045900010826937021420230000028840004523000000000781600376744XXXXX1000                          NY 4 07N006500291081076N840000000288400          01DNDRIP DROP DISTRO LLC     203419    AM84000000288400 N  519971004114                            000000000+6004S0S00140 258     11244                     000000000                   0000000000000.00 0000000.00   0000000.00                             000000000000000 61248972736759675900000002154 DRIP DROP DISTRO LLC     1445 W COMMERCE AVE SUITE2087248209      83705     TROY@DRIPDROPDISTRO.COM                   01418  000000000000 0000000000054.90     01900 00000                  
01867560321750007BH6759067590000000288180088880000090170214202304523000000000215273    0000090001440037N8008886759C02152023                                                                                                                                                                                                                                                                                                                                                                                                                                                                                                                                                                                                 
01867570321750008DT67590675900000002881800888800000010180088824001193045900014400014021420230000000059204523000000000215273400022XXXXXX2750       VK04VS111111111   NYV1 A E463045550089345N8400000000005923Z4500    05DNHAPPY HIPPIE             779010    VD84000000000592 N  549976487134                            000000000+                F DF 10439                     000000000  Y000000000 331   0000000000000.00 0000000.00   0000000.00                             000000000000000                                                                                                                                                     01418 F000000000000 0000000000000.22     00050 02200                  
01867580321750009DT67590675900000002881800888800000010180088824001193045900014400022021420230000003292504523000000000215273490070XXXXXX3843       VS11    0001111   NYV1 A E463045556688853N840000000032925BB5C00    05DNHAPPY HIPPIE             092710    VD84000000032925 N  549976487134                            000000000+                F DF 10433                     000000000  Y000000000 338   0000000000000.00 0000000.00   0000000.00                             000000000000000                                                                                                                                                     01418 A000000000000 0000000000000.38     00050 02200                  
01867590321750010DT67590675900000002881800888800000010180088877287283045900014400032021420230000000542904523000000000215273511953XXXXXX7161       MS02WI09          NY 1 0 AMDJA0RBJG0214  N840000000005429          05DNHAPPY HIPPIE             016713    MD84000000005429 N  549976487134                            000000000+M10101C5434C    MDJ  00402                     000000000  N                0000000000000.00 0000000.00   0000000.00                             000000000000000                                                                                                                                                   B101418  000000000000 0000000000000.72     01050 01500                  
01867600321750011DT67590675900000002881800888800000010180088877287283045900014400040021420230000000325804523000000000215273511953XXXXXX7161       MS02WI09          NY 1 0 AMDJLVWLR10214  N840000000003258          05DNHAPPY HIPPIE             021970    MD84000000003258 N  549976487134                            000000000+M10101C5434C    MDJ  00402                     000000000  N                0000000000000.00 0000000.00   0000000.00                             000000000000000                                                                                                                                                   B101418  000000000000 0000000000000.49     01050 01500                  
01867610321750012DT67590675900000002881800888800000010180088824001193045900014400055021420230000000250104523000000000215273491523XXXXXX5551       VS11    0001111   NYV1 A E583045607509573N840000000002501GTGW00    07DNHAPPY HIPPIE             023667    VD84000000002501 N  549976487134                            000000000+                F DF 10433                     000000000  Y000000000 338   0000000000000.00 0000000.00   0000000.00                             000000000000000                                                                                                                                                     01418 A000000000000 0000000000000.23     00050 02200                  
01867620321750013DT67590675900000002881800888800000010180088824001193045900014400063021420230000001085404523000000000215273419090XXXXXX2434       VS11    0001111   NYV1 A E463045608931602N840000000010854KBQC00    05DNHAPPY HIPPIE             572338    VD84000000010854 N  549976487134                            000000000+                F DF 00381                     000000000  N000000000       0000000000000.00 0000000.00   0000000.00                             000000000000000                                                                                                                                                     01418 A000000000000 0000000000001.02     00800 01500                  
01867630321750014DT67590675900000002881800888800000010180088824001193045900014400071021420230000000350504523000000000215273480639XXXXXX7751       VS11    0001111   NYV1 A E463045611425261N840000000003505MWXR00    05DNHAPPY HIPPIE             160688    VD84000000003505 N  549976487134                            000000000+                F DF 00381                     000000000  N000000000       0000000000000.00 0000000.00   0000000.00                             000000000000000                                                                                                                                                     01418 A000000000000 0000000000000.43     00800 01500                  
01867640321750015DT67590675900000002881800888800000010180088824001193045900014400089021420230000001875504523000000000215273440393XXXXXX5339       VS11    0001111   NYV1 A E463045627997424N840000000018755RL5M00    05DNHAPPY HIPPIE             157707    VD84000000018755 N  549976487134                            000000000+                F PF 08170                     000000000  N000000000       0000000000000.00 0000000.00   0000000.00                             000000000000000                                                                                                                                                     01418 A000000000000 0000000000002.31     01150 01500                  
01867650321750016DT67590675900000002881800888800000010180088824001193045900014400097021420230000000158004523000000000215273480639XXXXXX6147       VS11    0001111   NYV1 A E383045630116096N840000000001580NHS600    05DNHAPPY HIPPIE             161714    VD84000000001580 N  549976487134                            000000000+                F DF 00381                     000000000  N000000000       0000000000000.00 0000000.00   0000000.00                             000000000000000                                                                                                                                                     01418 A000000000000 0000000000000.28     00800 01500                  
01867660321750017DT67590675900000002881800888800000010180088824001193045900014400105021420230000000227604523000000000215273435547XXXXXX9872       VS11    0001111   NYV1 A E303045637070265N8400000000022762Z3W00    05DNHAPPY HIPPIE             093032    VD84000000002276 N  549976487134                            000000000+                F DF 10433                     000000000  Y000000000 338   0000000000000.00 0000000.00   0000000.00                             000000000000000                                                                                                                                                     01418 A000000000000 0000000000000.23     00050 02200                  
01867670321750018DT67590675900000002881800888800000010180088877287283045900014400115021420230000000166604523000000000215273511953XXXXXX8024       MS02WI09          NY 1 0 AMDJSSAQJF0214  N840000000001666          05DNHAPPY HIPPIE             029249    MD84000000001666 N  549976487134                            000000000+M10101C5434C    MDJ  00402                     000000000  N                0000000000000.00 0000000.00   0000000.00                             000000000000000                                                                                                                                                   B101418  000000000000 0000000000000.32     01050 01500                  
01867680321750019DT67590675900000002881800888800000010180088824001193045900014400121021420230000000296204523000000000215273415978XXXXXX5746       VS11    0001111   NYV1 A E383045639479714N840000000002962VLX200    05DNHAPPY HIPPIE             050664    VD84000000002962 N  549976487134                            000000000+                F DF 10433                     000000000  Y000000000 338   0000000000000.00 0000000.00   0000000.00                             000000000000000                                                                                                                                                     01418 A000000000000 0000000000000.23     00050 02200                  
01867690321750020DT67590675900000002881800888800000010180088824001193045900014400139021420230000000137104523000000000215273486897XXXXXX8737       VK04VS111111111   NYV1 A E383045648691123N840000000001371N86H00    07DNHAPPY HIPPIE             095630    VD84000000001371 N  549976487134                            000000000+                F DF 10439                     000000000  Y000000000 331   0000000000000.00 0000000.00   0000000.00                             000000000000000                                                                                                                                                     01418 F000000000000 0000000000000.23     00050 02200                  
01867700321750021DT67590675900000002881800888800000010180088824001193045900014400147021420230000000788804523000000000215273480639XXXXXX9607       VS11    0001111   NYV1 A E383045650083669N840000000007888BS8700    05DNHAPPY HIPPIE             162723    VD84000000007888 N  549976487134                            000000000+                F DF 00381                     000000000  N000000000       0000000000000.00 0000000.00   0000000.00                             000000000000000                                                                                                                                                     01418 A000000000000 0000000000000.78     00800 01500                  
01867710321750022DT67590675900000002881800888800000010180088824001193045900014400154021420230000000523304523000000000215273415978XXXXXX3340       VS11    0001111   NYV1 A E303045656064160N840000000005233K66W00    07DNHAPPY HIPPIE             081481    VD84000000005233 N  549976487134                            000000000+                F DF 10433                     000000000  Y000000000 338   0000000000000.00 0000000.00   0000000.00                             000000000000000                                                                                                                                                     01418 A000000000000 0000000000000.25     00050 02200                  
01867720321750023DT67590675900000002881800888800000010180088824001193045900014400162021420230000000316104523000000000215273422921XXXXXX4190       VS11    0001111   NYV1 A E383045659758237N8400000000031612DWK00    07DNHAPPY HIPPIE             047977    VD84000000003161 N  549976487134                            000000000+                F DF 00381                     000000000  N000000000       0000000000000.00 0000000.00   0000000.00                             000000000000000                                                                                                                                                     01418 A000000000000 0000000000000.40     00800 01500                  
01867730321750024DT67590675900000002881800888800000010180088824001193045900014400170021420230000001234604523000000000215273419090XXXXXX2246       VS11    0001111   NYV1 A E463045670132830N840000000012346TTS400    05DNHAPPY HIPPIE             575999    VD84000000012346 N  549976487134                            000000000+                F DF 00381                     000000000  N000000000       0000000000000.00 0000000.00   0000000.00                             000000000000000                                                                                                                                                     01418 A000000000000 0000000000001.14     00800 01500                  
01867740321750025DT67590675900000002881800888800000010180088824001193045900014400188021420230000000325804523000000000215273475644XXXXXX6150       VS11    0001111   NYV1 A E583045672476354N8400000000032586RK500    05DNHAPPY HIPPIE             760960    VD84000000003258 N  549976487134                            000000000+                F DF 00381                     000000000  N000000000       0000000000000.00 0000000.00   0000000.00                             000000000000000                                                                                                                                                     01418 A000000000000 0000000000000.41     00800 01500                  
01867750321750026DT67590675900000002881800888800000010180088877287283045900014400198021420230000000439004523000000000215273539277XXXXXX2706       MS02WI09          NY 1 0 AMWEO4NVR10214  N840000000004390          05DNHAPPY HIPPIE             03477Z    MC84000000004390 N  549976487134                            000000000+M10101C5434C    MWE  00743                     000000000  N                0000000000000.00 0000000.00   0000000.00                             000000000000000                                                                                                                                                   B101418  000000000000 0000000000001.05     02300 00400                  
01867760321750027DT67590675900000002881800888800000010180088824001193045900014400204021420230000000448804523000000000215273480639XXXXXX1059       VS11    0001111   NYV1 A E463045684441307N840000000004488WCWG00    05DNHAPPY HIPPIE             164392    VD84000000004488 N  549976487134                            000000000+                F DF 00381                     000000000  N000000000       0000000000000.00 0000000.00   0000000.00                             000000000000000                                                                                                                                                     01418 A000000000000 0000000000000.51     00800 01500                  
01867770321750028DT67590675900000002881800888800000010180088877287283045900014400214021420230000000325804523000000000215273531259XXXXXX6957       MS02WI09          NY 1 0 AMDJB5ZPYC0214  N840000000003258          05DNHAPPY HIPPIE             110732    MD84000000003258 N  549976487134                            000000000+M10101C5434C    MDJ  10815                     000000000  1                0000000000000.00 0000000.00   0000000.00                             000000000000000                                                                                                                                                   B101418  000000000000 0000000000000.24     00050 02200                  
01867780321750029DT67590675900000002881800888800000010180088824001193045900014400220021420230000000572704523000000000215273415978XXXXXX7764       VS11    0001111   NYV1 A E583045723441853N8400000000057277JK500    05DNHAPPY HIPPIE             088060    VD84000000005727 N  549976487134                            000000000+                F DF 10433                     000000000  Y000000000 338   0000000000000.00 0000000.00   0000000.00                             000000000000000                                                                                                                                                     01418 A000000000000 0000000000000.25     00050 02200                  
01867790321750030DT67590675900000002881800888800000010180088824001193045900014400238021420230000001075204523000000000215273431503XXXXXX7155       VS11    0001111   NYV1 A E303045729288959N8400000000107527Z5D00    05DNHAPPY HIPPIE             05868A    VS84000000010752 N  549976487134                            000000000+                A CA 12110                     000000000  N000000000 493   0000000000000.00 0000000.00   0000000.00                             000000000000000                                                                                                                                                     01418 A000000000000 0000000000001.72     01510 01000                  
01867800321750031DT67590675900000002881800888800000010180088824001193045900014400246021420230000000515704523000000000215273446086XXXXXX4842       VS11    0001111   NYV1 A E583045736735263N840000000005157XCNL00    05DNHAPPY HIPPIE             142753    VD84000000005157 N  549976487134                            000000000+                F DF 00381                     000000000  N000000000       0000000000000.00 0000000.00   0000000.00                             000000000000000                                                                                                                                                     01418 A000000000000 0000000000000.56     00800 01500                  
01867810321750032DT67590675900000002881800888800000010180088824001193045900014400253021420230000000376004523000000000215273446086XXXXXX4842       VS11    0001111   NYV1 A E463045738735822N8400000000037609LWQ00    05DNHAPPY HIPPIE             143113    VD84000000003760 N  549976487134                            000000000+                F DF 00381                     000000000  N000000000       0000000000000.00 0000000.00   0000000.00                             000000000000000                                                                                                                                                     01418 A000000000000 0000000000000.45     00800 01500                  
01867820321750033DT67590675900000002881800888800000010180088824001193045900014400261021420230000000878704523000000000215273443264XXXXXX6098       VS11    0001111   NYV1 A E583045740464289N8400000000087875NNQ00    05DNHAPPY HIPPIE             010171    VD84000000008787 N  549976487134                            000000000+                F DF 10433                     000000000  Y000000000 338   0000000000000.00 0000000.00   0000000.00                             000000000000000                                                                                                                                                     01418 A000000000000 0000000000000.26     00050 02200                  
01867830321750034DT67590675900000002881800888800000010180088824001193045900014400279021420230000000965404523000000000215273422921XXXXXX2217       VS11    0001111   NYV1 A E303045742609531N840000000009654KR4D00    05DNHAPPY HIPPIE             056261    VD84000000009654 N  549976487134                            000000000+                F DF 00381                     000000000  N000000000       0000000000000.00 0000000.00   0000000.00                             000000000000000                                                                                                                                                     01418 A000000000000 0000000000000.92     00800 01500                  
01867840321750035DT67590675900000002881800888800000010180088824001193045900014400287021420230000000375104523000000000215273437303XXXXXX1202       VS11    0001111   NYV1 A E583045756413079N840000000003751RLBH00    05DNHAPPY HIPPIE             272681    VD84000000003751 N  549976487134                            000000000+                F PF 08170                     000000000  N000000000       0000000000000.00 0000000.00   0000000.00                             000000000000000                                                                                                                                                     01418 A000000000000 0000000000000.58     01150 01500                  
01867850321750036DT67590675900000002881800888800000010180088824001193045900014400295021420230000000054904523000000000215273432739XXXXXX4443       VK04VS111111111   NYV1 A E383045759051659N840000000000549VHZC00    05DNHAPPY HIPPIE             985722    VD84000000000549 N  549976487134                            000000000+                F DF 10439                     000000000  Y000000000 331   0000000000000.00 0000000.00   0000000.00                             000000000000000                                                                                                                                                     01418 F000000000000 0000000000000.22     00050 02200                  
01867860321750037DT67590675900000002881800888800000010180088824001193045900014400303021420230000000687804523000000000215273459954XXXXXX5604       VS11    0001111   NYV1 A E463045764703401N840000000006878G7WL00    05DNHAPPY HIPPIE             H58373    VD84000000006878 N  549976487134                            000000000+                F DF 10433                     000000000  Y000000000 338   0000000000000.00 0000000.00   0000000.00                             000000000000000                                                                                                                                                     01418 A000000000000 0000000000000.25     00050 02200                  
01867870321750038DT67590675900000002881800888800000010180088824001193045900014400311021420230000000107404523000000000215273415978XXXXXX0021       VK04VS111111111   NYV1 A E463045766923768N8400000000010742QLX00    05DNHAPPY HIPPIE             017702    VD84000000001074 N  549976487134                            000000000+                F DF 10439                     000000000  Y000000000 331   0000000000000.00 0000000.00   0000000.00                             000000000000000                                                                                                                                                     01418 F000000000000 0000000000000.23     00050 02200                  
01867880321750039DT67590675900000002881800888800000010180088824001193045900014400329021420230000000078904523000000000215273413331XXXXXX9848       VK04VS111111111   NYV1 A E383045767980609N840000000000789QQ5400    05DNHAPPY HIPPIE             191499    VD84000000000789 N  549976487134                            000000000+                F DF 00451                     000000000  N000000000 214   0000000000000.00 0000000.00   0000000.00                             000000000000000                                                                                                                                                     01418 F000000000000 0000000000000.16     01550 00400                  
01867890321750040DT67590675900000002881800888800000010180088824001193045900014400337021420230000000158004523000000000215273480639XXXXXX7661       VS11    0001111   NYV1 A E383045771502559N840000000001580J2KH00    05DNHAPPY HIPPIE             168614    VD84000000001580 N  549976487134                            000000000+                F DF 00381                     000000000  N000000000       0000000000000.00 0000000.00   0000000.00                             000000000000000                                                                                                                                                     01418 A000000000000 0000000000000.28     00800 01500                  
01867900321750041DT67590675900000002881800888800000010180088877287283045900014400347021420230000000500004523000000000215273552433XXXXXX0426       MS02WI09          NY 1 0 AMPLAU2J1F0214  N840000000005000          05DNHAPPY HIPPIE             08031M    MC84000000005000 N  549976487134                            000000000+M10101C5434C    MPL  00364                     000000000  N                0000000000000.00 0000000.00   0000000.00                             000000000000000                                                                                                                                                   B101418  000000000000 0000000000000.94     01800 00400                  
01867910321750042DT67590675900000002881800888800000010180088824001193045900014400352021420230000000344504523000000000215273405956XXXXXX6550       VS11    0001111   NYV1 A E463045813025694N84000000000344533HF00    07DNHAPPY HIPPIE             023517    VD84000000003445 N  549976487134                            000000000+                G DG 10351                     000000000  Y000000000 338   0000000000000.00 0000000.00   0000000.00                             000000000000000                                                                                                                                                     01418 A000000000000 0000000000000.24     00050 02200                  
01867920321750043DT67590675900000002881800888800000010180088877287283045900014400362021420230000000690004523000000000215273511953XXXXXX9006       MS02WI09          NY 1 0 AMDJAY191F0214  N840000000006900          05DNHAPPY HIPPIE             066904    MD84000000006900 N  549976487134                            000000000+M10101C5434C    MDJ  00402                     000000000  N                0000000000000.00 0000000.00   0000000.00                             000000000000000                                                                                                                                                   B101418  000000000000 0000000000000.87     01050 01500                  
01867930321750044DT67590675900000002881800888800000010180088877287283045900014400370021420230000000977404523000000000215273511953XXXXXX8729       MS02WI09          NY 1 0 AMDJTGOKMI0214  N840000000009774          05DNHAPPY HIPPIE             005870    MD84000000009774 N  549976487134                            000000000+M10101C5434C    MDJ  00402                     000000000  N                0000000000000.00 0000000.00   0000000.00                             000000000000000                                                                                                                                                   B101418  000000000000 0000000000001.18     01050 01500                  
01867940321750045BH6759067590000000288180088880000090170214202304523000000000043248    0000090001450009N8008886759C02152023                                                                                                                                                                                                                                                                                                                                                                                                                                                                                                                                                                                                 
01867950321750046DT67590675900000002881800888800000010180088877287283045900014500013021420230000000249904523000000000043248527854XXXXXX2252       ME03MS02WI09      NY 1 0 AMWEJ4RHR10214  N840000000002499          01DNHAPPY HIPPIE             90419W    MC84000000002499 N  549976487158                            000000000+M1010115434C    MWE  00643                     000000000  N                0000000000000.00 0000000.00   0000000.00                             000000000000000                                                                                                                                                   E101418  000000000000 0000000000000.65     02200 01000                  
01867960321750047DT67590675900000002881800888800000010180088824001193045900014500029021420230000000987704523000000000043248480639XXXXXX6940       VS11    0001111   NYV1 A E463045589957823N840000000009877RFXM00    05DNHAPPY HIPPIE             159665    VD84000000009877 N  549976487158                            000000000+                F DF 00381                     000000000  N000000000       0000000000000.00 0000000.00   0000000.00                             000000000000000                                                                                                                                                     01418 A000000000000 0000000000000.94     00800 01500                  
01867970321750048DT67590675900000002881800888800000010180088824001193045900014500037021420230000000158004523000000000043248415978XXXXXX6979       VS11    0001111   NYV1 A E583045591107298N840000000001580KRLN00    05DNHAPPY HIPPIE             099607    VD84000000001580 N  549976487158                            000000000+                F DF 10433                     000000000  Y000000000 338   0000000000000.00 0000000.00   0000000.00                             000000000000000                                                                                                                                                     01418 A000000000000 0000000000000.23     00050 02200                  
01867980321750049DT67590675900000002881800888800000010180088824001193045900014500045021420230000000690104523000000000043248404227XXXXXX9278       VS11    0001111   NYV1 A E583045601272904N840000000006901XXT300    05DNHAPPY HIPPIE             750242    VD84000000006901 N  549976487158                            000000000+                F DF 00381                     000000000  N000000000       0000000000000.00 0000000.00   0000000.00                             000000000000000                                                                                                                                                     01418 A000000000000 0000000000000.70     00800 01500                  
01867990321750050DT67590675900000002881800888800000010180088877287283045900014500054021420230000000158004523000000000043248542432XXXXXX6544       MS02WI09          NY 1 0 AMDJMPR6R10214  N840000000001580          07DNHAPPY HIPPIE             143471    MD84000000001580 N  549976487158                            000000000+M10101M0034C    MDJ  10815                     000000000  1                0000000000000.00 0000000.00   0000000.00                             000000000000000                                                                                                                                                   B101418  000000000000 0000000000000.23     00050 02200                  
01868000321750051DT67590675900000002881800888800000010180088877287283045900014500062021420230000000296204523000000000043248511953XXXXXX6197       MS02WI09          NY 1 0 AMDJJVV0LW0214  N840000000002962          05DNHAPPY HIPPIE             036008    MD84000000002962 N  549976487158                            000000000+M10101C5434C    MDJ  00402                     000000000  N                0000000000000.00 0000000.00   0000000.00                             000000000000000                                                                                                                                                   B101418  000000000000 0000000000000.46     01050 01500                  
01868010321750052DT67590675900000002881800888800000010180088877287283045900014500070021420230000000166504523000000000043248511953XXXXXX0652       MS02WI09          NY 1 0 AMDJOB3WMI0214  N840000000001665          05DNHAPPY HIPPIE             092050    MD84000000001665 N  549976487158                            000000000+M10101C5434C    MDJ  00402                     000000000  N                0000000000000.00 0000000.00   0000000.00                             000000000000000                                                                                                                                                   B101418  000000000000 0000000000000.32     01050 01500                  
01868020321750053DT67590675900000002881800888800000010180088877287283045900014500088021420230000001292604523000000000043248511953XXXXXX5690       MS02WI09          NY 1 0 AMDJCYWDYC0214  N840000000012926          05DNHAPPY HIPPIE             084225    MD84000000012926 N  549976487158                            000000000+M10101C5434C    MDJ  00402                     000000000  N                0000000000000.00 0000000.00   0000000.00                             000000000000000                                                                                                                                                   B101418  000000000000 0000000000001.51     01050 01500                  
01868030321750054DT67590675900000002881800888800000010180088877287283045900014500096021420230000000325804523000000000043248517805XXXXXX5157       MS02WI09          NY 1 0 AMPLRYNUMI0214  N840000000003258          05DNHAPPY HIPPIE             07589B    MC84000000003258 N  549976487158                            000000000+M10101C5434C    MPL  00364                     000000000  N                0000000000000.00 0000000.00   0000000.00                             000000000000000                                                                                                                                                   B101418  000000000000 0000000000000.63     01800 00400                  
01868040321750055BH6759067590000000589280088880000090170214202304523000000000026283    0000090001062115N8008886759C02152023                                                                                                                                                                                                                                                                                                                                                                                                                                                                                                                                                                                                 
01868050321750056DT67590675900000005892800888800000010180088887287283045900010652791021420230000000599004523000000000026283510805XXXXXX9939       ME03KE06MS02      NY 4607AMDJ0FDN5J0214  N840000000005990          81DNPLANET VAPOR INC         003219    MD84000000005990 N  599900000001   14314403                 000000000+600450S00140    MDJ  10813                     000000000  1                0000000000000.00 0000000.00   0000000.00                             000000000000000                                                                                                                                                   U001418  000000000000 0000000000000.25     00050 02200                  
01868060321750057DT67590675900000005892800888800000010180088824001193045900010621159021420230000002029304523000000000026283456367XXXXXX9130               2111111   NYV4 A7W383045847949498N8400000000202937RLR00    01DNPLANET VAPOR INC         H93665    VD84000000020293 NP1599971004114   14319368                 000000000+                F DF 10420                     000000000  Y000000000 338   0000000000000.00 0000000.00   0000000.00                             000000000000000                                                                                                                                                     01418 G000000020293 0000000000000.32     00050 02200                  
01868070321750001P16759067590000000589280088880000001010000000000000000                             2000000000000000000000000              000000000000                    0000000000000000000000000                    000000000000                                                                                                                                                                                                                                                                                                                                                                                                                                                                                        
01868080321750058BH6759067590000000096880088880000090170214202304523000000000018391    0000090001411163N8008886759C02152023                                                                                                                                                                                                                                                                                                                                                                                                                                                                                                                                                                                                 
01868090321750059DT67590675900000000968800888800000010180088824001193045900014140131021420230000000600004523000000000018391440066XXXXXX5925               2111111   NYV4 A7W583045825401722N840000000006000ZTV300    01DNHIGHER FLOUR LLC         04131A    VS84000000006000 NP1546271004114   RIWF7YVQHTQFUQVHTLX4     000000000+                A CA 12106                     000000000  N000000000 492   0000000000000.00 0000000.00   0000000.00                             000000000000000                                                                                                                                                     01418 G000000006000 0000000000001.23     01890 01000                  
01868100321750001P16759067590000000096880088880000001010000000000000000                             2000000000000000000000000              000000000000                    0000000000000000000000000                    000000000000                                                                                                                                                                                                                                                                                                                                                                                                                                                                                        
01868110321750060DT67590675900000000968800888800000010180088824001193045900014112130021420230000000639104523000000000018391440066XXXXXX5925               2111111   NYV4 A7W303045823296133N8400000000063915JJV00    01DNHIGHER FLOUR LLC         05645A    VS84000000006391 NP1546271004114   RXCWRCAUDM4VNPVI6QMX     000000000+                A CA 12106                     000000000  N000000000 492   0000000000000.00 0000000.00   0000000.00                             000000000000000                                                                                                                                                     01418 G000000006391 0000000000001.31     01890 01000                  
01868120321750001P16759067590000000096880088880000001010000000000000000                             2000000000000000000000000              000000000000                    0000000000000000000000000                    000000000000                                                                                                                                                                                                                                                                                                                                                                                                                                                                                        
01868130321750061DT67590675900000000968800888800000010180088824001193045900014111637021420230000000600004523000000000018391440066XXXXXX5925               2111111   NYV4 A7W583045827199716N840000000006000BWHL00    01DNHIGHER FLOUR LLC         03723A    VS84000000006000 NP1546271004114   RJNTALBQLCTVCQNBZBBY     000000000+                A CA 12106                     000000000  N000000000 492   0000000000000.00 0000000.00   0000000.00                             000000000000000                                                                                                                                                     01418 G000000006000 0000000000001.23     01890 01000                  
01868140321750001P16759067590000000096880088880000001010000000000000000                             2000000000000000000000000              000000000000                    0000000000000000000000000                    000000000000                                                                                                                                                                                                                                                                                                                                                                                                                                                                                        
01868150321750062BH6759067590000001090080088880000090170214202304523000000000099190    0000090001040022N8008886759C02152023                                                                                                                                                                                                                                                                                                                                                                                                                                                                                                                                                                                                 
01868160321750063DT67590675900000010900800888800000010180088824001193045900010400018021420230000000323904523000000000099190440066XXXXXX0351       VS11    0001111   NYV1 A E583045552118277N840000000003239J2F500    05DNPLANET VAPOR #700        06248D    VS84000000003239 N  599976923375                            000000000+                D CD 12113                     000000000  N000000000 499   0000000000000.00 0000000.00   0000000.00                             000000000000000                                                                                                                                                     01418 A000000000000 0000000000000.78     02100 01000                  
01868170321750064DT67590675900000010900800888800000010180088824001193045900010400026021420230000000680204523000000000099190473703XXXXXX8688       VS11    0001111   NYV1 A E383045556548441N840000000006802XSJG00    07DNPLANET VAPOR #700        049814    VD84000000006802 N  599976923375                            000000000+                F DF 10433                     000000000  Y000000000 338   0000000000000.00 0000000.00   0000000.00                             000000000000000                                                                                                                                                     01418 A000000000000 0000000000000.25     00050 02200                  
01868180321750065DT67590675900000010900800888800000010180088824001193045900010400034021420230000000323804523000000000099190400022XXXXXX6353       VS11    0001111   NYV1 A E583045562321046N840000000003238ZN4N00    05DNPLANET VAPOR #700        160036    VD84000000003238 N  599976923375                            000000000+                F DF 10433                     000000000  Y000000000 338   0000000000000.00 0000000.00   0000000.00                             000000000000000                                                                                                                                                     01418 A000000000000 0000000000000.24     00050 02200                  
01868190321750066DT67590675900000010900800888800000010180088824001193045900010400042021420230000000053904523000000000099190410702XXXXXX1621       VK04VS111111111   NYV1 A E383045611887210N8400000000005397R7B00    05DNPLANET VAPOR #700        110535    VD84000000000539 N  599976923375                            000000000+                F DF 00451                     000000000  N000000000 214   0000000000000.00 0000000.00   0000000.00                             000000000000000                                                                                                                                                     01418 F000000000000 0000000000000.12     01550 00400                  
01868200321750067DT67590675900000010900800888800000010180088877287283045900010400051021420230000000213704523000000000099190531258XXXXXX8598       MS02WI09          NY 1 0 AMDJAKL1VG0214  N840000000002137          07DNPLANET VAPOR #700        100196    MD84000000002137 N  599976923375                            000000000+M10101M0034C    MDJ  10815                     000000000  1                0000000000000.00 0000000.00   0000000.00                             000000000000000                                                                                                                                                   B101418  000000000000 0000000000000.23     00050 02200                  
01868210321750068DT67590675900000010900800888800000010180088824001193045900010400067021420230000000766304523000000000099190465638XXXXXX6159       VS11    0001111   NYV1 A E303045640844740N840000000007663ZCDK00    05DNPLANET VAPOR #700        537300    VS84000000007663 N  599976923375                            000000000+                B CB 12111                     000000000  N000000000 495   0000000000000.00 0000000.00   0000000.00                             000000000000000                                                                                                                                                     01418 A000000000000 0000000000001.36     01650 01000                  
01868220321750069DT67590675900000010900800888800000010180088824001193045900010400075021420230000000237504523000000000099190440393XXXXXX8748       VS11    0001111   NYV1 A E463045641950621N840000000002375VVTD00    07DNPLANET VAPOR #700        961578    VD84000000002375 N  599976923375                            000000000+                F PF 08170                     000000000  N000000000       0000000000000.00 0000000.00   0000000.00                             000000000000000                                                                                                                                                     01418 A000000000000 0000000000000.42     01150 01500                  
01868230321750070DT67590675900000010900800888800000010180088877287283045900010400085021420230000000445204523000000000099190517805XXXXXX3420       MS02WI09          NY 1 0 AMPLEX29X80214  N840000000004452          05DNPLANET VAPOR #700        07417B    MC84000000004452 N  599976923375                            000000000+M10101C5434C    MPL  00353                     000000000  N                0000000000000.00 0000000.00   0000000.00                             000000000000000                                                                                                                                                   B101418  000000000000 0000000000000.90     01800 01000                  
01868240321750071DT67590675900000010900800888800000010180088824001193045900010400091021420230000000136004523000000000099190498503XXXXXX5666       VK04VS111111111   NYV1 A E583045662626144N840000000001360FF3X00    05DNPLANET VAPOR #700        081247    VD84000000001360 N  599976923375                            000000000+                F DF 00451                     000000000  N000000000 214   0000000000000.00 0000000.00   0000000.00                             000000000000000                                                                                                                                                     01418 F000000000000 0000000000000.25     01550 00400                  
01868250321750072DT67590675900000010900800888800000010180088824001193045900010400109021420230000000427504523000000000099190400022XXXXXX7234       VS11    0001111   NYV1 A E303045712365070N840000000004275K9TN00    07DNPLANET VAPOR #700        695090    VD84000000004275 N  599976923375                            000000000+                F DF 10433                     000000000  Y000000000 338   0000000000000.00 0000000.00   0000000.00                             000000000000000                                                                                                                                                     01418 A000000000000 0000000000000.24     00050 02200                  
01868260321750073DT67590675900000010900800888800000010180088824001193045900010400117021420230000000252604523000000000099190430679XXXXXX4672       VS11    0001111   NYV1 A E303045757633672N840000000002526HCV900    07DNPLANET VAPOR #700        014153    VS84000000002526 N  599976923375                            000000000+                C CC 12112                     000000000  N000000000 497   0000000000000.00 0000000.00   0000000.00                             000000000000000                                                                                                                                                     01418 A000000000000 0000000000000.52     01650 01000                  
01868270321750074DT67590675900000010900800888800000010180088824001193045900010400125021420230000000709304523000000000099190413022XXXXXX9721       VS11    0001111   NYV1 A E383045759512734N840000000007093BTTC00    07DNPLANET VAPOR #700        855229    VD84000000007093 N  599976923375                            000000000+                F DF 00381                     000000000  N000000000       0000000000000.00 0000000.00   0000000.00                             000000000000000                                                                                                                                                     01418 A000000000000 0000000000000.72     00800 01500                  
01868280321750075DT67590675900000010900800888800000010180088824001193045900010400133021420230000001470204523000000000099190400022XXXXXX9323       VS11    0001111   NYV1 A E583045768402573N8400000000147028CB500    05DNPLANET VAPOR #700        665976    VD84000000014702 N  599976923375                            000000000+                F DF 10433                     000000000  Y000000000 338   0000000000000.00 0000000.00   0000000.00                             000000000000000                                                                                                                                                     01418 A000000000000 0000000000000.29     00050 02200                  
01868290321750076DT67590675900000010900800888800000010180088824001193045900010400141021420230000000213704523000000000099190458643XXXXXX2767       VS11    0001111   NYV1 A E383045772489415N840000000002137CDJ600    05DNPLANET VAPOR #700        H54941    VD84000000002137 N  599976923375                            000000000+                F DF 10433                     000000000  Y000000000 338   0000000000000.00 0000000.00   0000000.00                             000000000000000                                                                                                                                                     01418 A000000000000 0000000000000.23     00050 02200                  
01868300321750077DT67590675900000010900800888800000010180088824001193045900010400158021420230000000861304523000000000099190453506XXXXXX4832       VS11    0001111   NYV1 A E383045795402364N840000000008613XGT500    05DNPLANET VAPOR #700        H69214    VD84000000008613 N  599976923375                            000000000+                F DF 10433                     000000000  Y000000000 338   0000000000000.00 0000000.00   0000000.00                             000000000000000                                                                                                                                                     01418 A000000000000 0000000000000.26     00050 02200                  
01868310321750078DT67590675900000010900800888800000010180088824001193045900010400166021420230000000301104523000000000099190453506XXXXXX1413       VS11    0001111   NYV1 A E383045812287328N840000000003011CB9M00    07DNPLANET VAPOR #700        H66411    VD84000000003011 N  599976923375                            000000000+                F DF 10433                     000000000  Y000000000 338   0000000000000.00 0000000.00   0000000.00                             000000000000000                                                                                                                                                     01418 A000000000000 0000000000000.24     00050 02200                  
01868320321750079DT67590675900000010900800888800000010180088877287283045900010400176021420230000000641304523000000000099190517805XXXXXX2746       MS02WI09          NY 1 0 AMWEF7VTYC0214  N840000000006413          07DNPLANET VAPOR #700        01053P    MC84000000006413 N  599976923375                            000000000+M10101M5434C    MWE  00739                     000000000  N                0000000000000.00 0000000.00   0000000.00                             000000000000000                                                                                                                                                   B101418  000000000000 0000000000001.57     02300 01000                  
01868330321750080DT67590675900000010900800888800000010180088824001193045900010400182021420230000000148304523000000000099190423908XXXXXX7739       VK04VS111111111   NYV1 A E583045817902143N840000000001483JKTH00    05DNPLANET VAPOR #700        612054    VD84000000001483 N  599976923375                            000000000+                F DF 10439                     000000000  Y000000000 331   0000000000000.00 0000000.00   0000000.00                             000000000000000                                                                                                                                                     01418 F000000000000 0000000000000.23     00050 02200                  
01868340321750081DT67590675900000010900800888800000010180088824001193045900010400190021420230000000213704523000000000099190410702XXXXXX0310       VS11    0001111   NYV1 A E463045818862369N8400000000021372K2D00    05DNPLANET VAPOR #700        164752    VD84000000002137 N  599976923375                            000000000+                F DF 00381                     000000000  N000000000       0000000000000.00 0000000.00   0000000.00                             000000000000000                                                                                                                                                     01418 A000000000000 0000000000000.32     00800 01500                  
01868350321750082DT67590675900000010900800888800000010180088824001193045900010400208021420230000000301104523000000000099190473702XXXXXX3766       VS11    0001111   NYV1 A E383045853566757N840000000003011CWHS00    07DNPLANET VAPOR #700        021018    VD84000000003011 N  599976923375                            000000000+                F DF 10433                     000000000  Y000000000 338   0000000000000.00 0000000.00   0000000.00                             000000000000000                                                                                                                                                     01418 A000000000000 0000000000000.24     00050 02200                  
01868360321750083DT67590675900000010900800888800000010180088824001193045900010400216021420230000000615304523000000000099190430602XXXXXX0631       VS11    0001111   NYV1 A E583045855137119N840000000006153DW7Q00    07DNPLANET VAPOR #700        344549    VD84000000006153 N  599976923375                            000000000+                F DF 00381                     000000000  N000000000       0000000000000.00 0000000.00   0000000.00                             000000000000000                                                                                                                                                     01418 A000000000000 0000000000000.64     00800 01500                  
01868370321750084DT67590675900000010900800888800000010180088824001193045900010400224021420230000000583104523000000000099190463405XXXXXX7157       VS11    0001111   NYV1 A E303045858108930N840000000005831TTRP00    07DNPLANET VAPOR #700        016518    VD84000000005831 N  599976923375                            000000000+                F DF 10433                     000000000  Y000000000 338   0000000000000.00 0000000.00   0000000.00                             000000000000000                                                                                                                                                     01418 A000000000000 0000000000000.25     00050 02200                  
01868380321750085BH6759067590000000909280088880000090170214202304523000000000105347    0000090001060030N8008886759C02152023                                                                                                                                                                                                                                                                                                                                                                                                                                                                                                                                                                                                 
01868390321750086DT67590675900000009092800888800000010180088824001193045900010600013021420230000000475004523000000000105347433477XXXXXX8461       VS11    0001111   NYV1 A E463045554138993N840000000004750XHPN00    05DNPLANET VAPOR #500        630833    VD84000000004750 N  599976781988                            000000000+                F DF 10433                     000000000  Y000000000 338   0000000000000.00 0000000.00   0000000.00                             000000000000000                                                                                                                                                     01418 A000000000000 0000000000000.24     00050 02200                  
01868400321750087DT67590675900000009092800888800000010180088824001193045900010600021021420230000000323904523000000000105347478373XXXXXX5339       VS11    0001111   NYV1 A E583045601453456N840000000003239S6Q800    05DNPLANET VAPOR #500        004226    VD84000000003239 N  599976781988                            000000000+                F DF 10433                     000000000  Y000000000 338   0000000000000.00 0000000.00   0000000.00                             000000000000000                                                                                                                                                     01418 A000000000000 0000000000000.24     00050 02200                  
01868410321750088DT67590675900000009092800888800000010180088824001193045900010600039021420230000001049804523000000000105347426447XXXXXX5394       VS11    0001111   NYV1 A E383045622309683N840000000010498NC6Z00    05DNPLANET VAPOR #500        554836    VD84000000010498 N  599976781988                            000000000+                F DF 00381                     000000000  N000000000       0000000000000.00 0000000.00   0000000.00                             000000000000000                                                                                                                                                     01418 A000000000000 0000000000000.99     00800 01500                  
01868420321750089DT67590675900000009092800888800000010180088824001193045900010600047021420230000000421004523000000000105347430602XXXXXX8815       VS11    0001111   NYV1 A E303045628145622N840000000004210N7TH00    07DNPLANET VAPOR #500        283358    VD84000000004210 N  599976781988                            000000000+                F DF 00381                     000000000  N000000000       0000000000000.00 0000000.00   0000000.00                             000000000000000                                                                                                                                                     01418 A000000000000 0000000000000.49     00800 01500                  
01868430321750090DT67590675900000009092800888800000010180088824001193045900010600054021420230000000431804523000000000105347438419XXXXXX8272       VS11    0001111   NYV1 A E463045647531383N8400000000043187DKP00    05DNPLANET VAPOR #500        025913    VD84000000004318 N  599976781988                            000000000+                F DF 00381                     000000000  N000000000       0000000000000.00 0000000.00   0000000.00                             000000000000000                                                                                                                                                     01418 A000000000000 0000000000000.50     00800 01500                  
01868440321750091DT67590675900000009092800888800000010180088877287283045900010600064021420230000000323904523000000000105347531258XXXXXX2165       MS02WI09          NY 1 0 AMDJODQDR10214  N840000000003239          07DNPLANET VAPOR #500        101178    MD84000000003239 N  599976781988                            000000000+M10101M0034C    MDJ  10815                     000000000  1                0000000000000.00 0000000.00   0000000.00                             000000000000000                                                                                                                                                   B101418  000000000000 0000000000000.24     00050 02200                  
01868450321750092DT67590675900000009092800888800000010180088824001193045900010600070021420230000000237504523000000000105347461675XXXXXX2513       VS11    0001111   NYV1 A E583045659475543N84000000000237584ZX00    05DNPLANET VAPOR #500        559510    VD84000000002375 N  599976781988                            000000000+                F DF 00381                     000000000  N000000000       0000000000000.00 0000000.00   0000000.00                             000000000000000                                                                                                                                                     01418 A000000000000 0000000000000.34     00800 01500                  
01868460321750093DT67590675900000009092800888800000010180088877287283045900010600080021420230000000213704523000000000105347531258XXXXXX1368       MS02WI09          NY 1 0 AMDJJA3QLW0214  N840000000002137          07DNPLANET VAPOR #500        105119    MD84000000002137 N  599976781988                            000000000+M10101M0034C    MDJ  10815                     000000000  1                0000000000000.00 0000000.00   0000000.00                             000000000000000                                                                                                                                                   B101418  000000000000 0000000000000.23     00050 02200                  
01868470321750094DT67590675900000009092800888800000010180088824001193045900010600096021420230000000377904523000000000105347498503XXXXXX0436       VS11    0001111   NYV1 A E383045681004951N8400000000037798P5M00    05DNPLANET VAPOR #500        066920    VD84000000003779 N  599976781988                            000000000+                F DF 00381                     000000000  N000000000       0000000000000.00 0000000.00   0000000.00                             000000000000000                                                                                                                                                     01418 A000000000000 0000000000000.45     00800 01500                  
01868480321750095DT67590675900000009092800888800000010180088824001193045900010600104021420230000000213704523000000000105347473703XXXXXX3825       VS11    0001111   NYV1 A E463045687456344N840000000002137WVBC00    07DNPLANET VAPOR #500        066111    VD84000000002137 N  599976781988                            000000000+                F DF 10433                     000000000  Y000000000 338   0000000000000.00 0000000.00   0000000.00                             000000000000000                                                                                                                                                     01418 A000000000000 0000000000000.23     00050 02200                  
01868490321750096DT67590675900000009092800888800000010180088824001193045900010600112021420230000000388704523000000000105347448233XXXXXX9808       VS11    0001111   NYV1 A E303045694158176N840000000003887VP9Z00    07DNPLANET VAPOR #500        031655    VD84000000003887 N  599976781988                            000000000+                F DF 10433                     000000000  Y000000000 338   0000000000000.00 0000000.00   0000000.00                             000000000000000                                                                                                                                                     01418 A000000000000 0000000000000.24     00050 02200                  
01868500321750097DT67590675900000009092800888800000010180088824001193045900010600120021420230000000477704523000000000105347461675XXXXXX1144       VS11    0001111   NYV1 A E463045695633220N840000000004777F82S00    05DNPLANET VAPOR #500        599490    VD84000000004777 N  599976781988                            000000000+                F DF 00381                     000000000  N000000000       0000000000000.00 0000000.00   0000000.00                             000000000000000                                                                                                                                                     01418 A000000000000 0000000000000.53     00800 01500                  
01868510321750098DT67590675900000009092800888800000010180088824001193045900010600138021420230000000183504523000000000105347410492XXXXXX7284       VS11    0001111   NYV1 A E463045716527818N840000000001835MRS700    07DNPLANET VAPOR #500        780727    VD84000000001835 N  599976781988                            000000000+                F DF 10433                     000000000  Y000000000 338   0000000000000.00 0000000.00   0000000.00                             000000000000000                                                                                                                                                     01418 A000000000000 0000000000000.23     00050 02200                  
01868520321750099DT67590675900000009092800888800000010180088824001193045900010600146021420230000000323804523000000000105347430602XXXXXX1984       VS11    0001111   NYV1 A E303045737161220N840000000003238TF3V00    07DNPLANET VAPOR #500        313651    VD84000000003238 N  599976781988                            000000000+                F DF 00381                     000000000  N000000000       0000000000000.00 0000000.00   0000000.00                             000000000000000                                                                                                                                                     01418 A000000000000 0000000000000.41     00800 01500                  
01868530321750100DT67590675900000009092800888800000010180088824001193045900010600153021420230000000313004523000000000105347440393XXXXXX8783       VS11    0001111   NYV1 A E303045741666842N840000000003130W6QZ00    05DNPLANET VAPOR #500        297105    VD84000000003130 N  599976781988                            000000000+                F PF 08170                     000000000  N000000000       0000000000000.00 0000000.00   0000000.00                             000000000000000                                                                                                                                                     01418 A000000000000 0000000000000.51     01150 01500                  
01868540321750101DT67590675900000009092800888800000010180088824001193045900010600161021420230000000213704523000000000105347499159XXXXXX9368       VS11    0001111   NYV1 A E583045750970257N840000000002137WJGX00    05DNPLANET VAPOR #500        014373    VS84000000002137 N  599976781988                            000000000+                B CB 12111                     000000000  N000000000 495   0000000000000.00 0000000.00   0000000.00                             000000000000000                                                                                                                                                     01418 A000000000000 0000000000000.45     01650 01000                  
01868550321750102DT67590675900000009092800888800000010180088824001193045900010600179021420230000000107804523000000000105347473703XXXXXX9147       VK04VS111111111   NYV1 A E463045752942700N84000000000107887HJ00    05DNPLANET VAPOR #500        001735    VD84000000001078 N  599976781988                            000000000+                F DF 10439                     000000000  Y000000000 331   0000000000000.00 0000000.00   0000000.00                             000000000000000                                                                                                                                                     01418 F000000000000 0000000000000.23     00050 02200                  
01868560321750103DT67590675900000009092800888800000010180088824001193045900010600187021420230000000917804523000000000105347474474XXXXXX1565       VS11    0001111   NYV1 A E583045760223192N840000000009178Z8DL00    07DNPLANET VAPOR #500        100371    VD84000000009178 N  599976781988                            000000000+                F DF 10433                     000000000  Y000000000 338   0000000000000.00 0000000.00   0000000.00                             000000000000000                                                                                                                                                     01418 A000000000000 0000000000000.27     00050 02200                  
01868570321750104DT67590675900000009092800888800000010180088824001193045900010600195021420230000000151104523000000000105347465992XXXXXX3609       VS11    0001111   NYV1 A E463045761900594N84000000000151186HF00    07DNPLANET VAPOR #500        346830    VD84000000001511 N  599976781988                            000000000+                F DF 00381                     000000000  N000000000       0000000000000.00 0000000.00   0000000.00                             000000000000000                                                                                                                                                     01418 A000000000000 0000000000000.27     00800 01500                  
01868580321750105DT67590675900000009092800888800000010180088824001193045900010600203021420230000000151104523000000000105347473703XXXXXX4185       VS11    0001111   NYV1 A E383045767937964N840000000001511TKZN00    07DNPLANET VAPOR #500        059783    VD84000000001511 N  599976781988                            000000000+                F DF 10433                     000000000  Y000000000 338   0000000000000.00 0000000.00   0000000.00                             000000000000000                                                                                                                                                     01418 A000000000000 0000000000000.23     00050 02200                  
01868590321750106DT67590675900000009092800888800000010180088824001193045900010600211021420230000000410204523000000000105347466189XXXXXX1587       VS11    0001111   NYV1 A E303045787056279N840000000004102FRSK00    07DNPLANET VAPOR #500        065262    VD84000000004102 N  599976781988                            000000000+                F DF 10433                     000000000  Y000000000 338   0000000000000.00 0000000.00   0000000.00                             000000000000000                                                                                                                                                     01418 A000000000000 0000000000000.24     00050 02200                  
01868600321750107DT67590675900000009092800888800000010180088824001193045900010600229021420230000000213704523000000000105347473702XXXXXX2373       VS11    0001111   NYV1 A E303045803513694N840000000002137NQD200    07DNPLANET VAPOR #500        047387    VD84000000002137 N  599976781988                            000000000+                F DF 10433                     000000000  Y000000000 338   0000000000000.00 0000000.00   0000000.00                             000000000000000                                                                                                                                                     01418 A000000000000 0000000000000.23     00050 02200                  
01868610321750108DT67590675900000009092800888800000010180088877287283045900010600239021420230000000377904523000000000105347531258XXXXXX9964       MS02WI09          NY 1 0 AMDJSPRFMI0214  N840000000003779          07DNPLANET VAPOR #500        112616    MD84000000003779 N  599976781988                            000000000+M10101M0034C    MDJ  10815                     000000000  1                0000000000000.00 0000000.00   0000000.00                             000000000000000                                                                                                                                                   B101418  000000000000 0000000000000.24     00050 02200                  
01868620321750109DT67590675900000009092800888800000010180088824001193045900010600245021420230000000213704523000000000105347492124XXXXXX0989       VS11    0001111   NYV1 A E583045807524763N840000000002137225F00    07DNPLANET VAPOR #500        061488    VD84000000002137 N  599976781988                            000000000+                F DF 10433                     000000000  Y000000000 338   0000000000000.00 0000000.00   0000000.00                             000000000000000                                                                                                                                                     01418 A000000000000 0000000000000.23     00050 02200                  
01868630321750110DT67590675900000009092800888800000010180088876509753045900010600250021420230000000237504523000000000105347601100XXXXXX7179   BA50                  NY41 0 N753038669681914N840000000002375    00    05DNPLANET VAPOR #500        01474R    DS84000000002375 N  599976781988050                         000000000+0000004910H00   DCCDI01000832038  180928000000 000000000  0          112   0000000000000.00 0000000.00   0000000.00                             000000000000000                                                                                                                                                     01418  000000000000 0000000000000.51     01720 01000                  
01868640321750111DT67590675900000009092800888800000010180088877287283045900010600262021420230000000388504523000000000105347531258XXXXXX3298       MS02WI09          NY 1 0 AMDJG0FR0S0214  N840000000003885          07DNPLANET VAPOR #500        101314    MD84000000003885 N  599976781988                            000000000+M10101M0034C    MDJ  10815                     000000000  1                0000000000000.00 0000000.00   0000000.00                             000000000000000                                                                                                                                                   B101418  000000000000 0000000000000.24     00050 02200                  
01868650321750112DT67590675900000009092800888800000010180088824001193045900010600278021420230000000723304523000000000105347453506XXXXXX0653       VS11    0001111   NYV1 A E303045837828948N840000000007233C8MS00    05DNPLANET VAPOR #500        H78911    VD84000000007233 N  599976781988                            000000000+                F DF 10433                     000000000  Y000000000 338   0000000000000.00 0000000.00   0000000.00                             000000000000000                                                                                                                                                     01418 A000000000000 0000000000000.26     00050 02200                  
01868660321750113DT67590675900000009092800888800000010180088824001193045900010600286021420230000000058204523000000000105347458643XXXXXX5991       VK04VS111111111   NYV1 A E463045841645578N840000000000582CM2X00    05DNPLANET VAPOR #500        H72900    VD84000000000582 N  599976781988                            000000000+                F DF 10439                     000000000  Y000000000 331   0000000000000.00 0000000.00   0000000.00                             000000000000000                                                                                                                                                     01418 F000000000000 0000000000000.22     00050 02200                  
01868670321750114DT67590675900000009092800888800000010180088824001193045900010600294021420230000000399404523000000000105347461675XXXXXX1665       VS11    0001111   NYV1 A E583046005571966N840000000003994FK9500    05DNPLANET VAPOR #500        806240    VD84000000003994 N  599976781988                            000000000+                F DF 00381                     000000000  N000000000       0000000000000.00 0000000.00   0000000.00                             000000000000000                                                                                                                                                     01418 A000000000000 0000000000000.47     00800 01500                  
01868680321750115DT67590675900000009092800888800000010180088824001193045900010600302021420230000000215904523000000000105347466189XXXXXX7815       VS11    0001111   NYV1 A E583046032156534N840000000002159TD6500    05DNPLANET VAPOR #500        024525    VD84000000002159 N  599976781988                            000000000+                F DF 10433                     000000000  Y000000000 338   0000000000000.00 0000000.00   0000000.00                             000000000000000                                                                                                                                                     01418 A000000000000 0000000000000.23     00050 02200                  
01868690321750116BH6759067590000000995180088880000090170214202304523000000000047500    0000090001060011N8008886759C02152023                                                                                                                                                                                                                                                                                                                                                                                                                                                                                                                                                                                                 
01868700321750117DT67590675900000009951800888800000010180088824001193045900010600013021420230000000064704523000000000047500413233XXXXXX7801       VK04VS111111111   NYV1 A E383045542482047N8400000000006475DV400    07DNPLANET VAPOR #500        665165    VD84000000000647 N  599976923295                            000000000+                F DF 10439                     000000000  Y000000000 331   0000000000000.00 0000000.00   0000000.00                             000000000000000                                                                                                                                                     01418 F000000000000 0000000000000.22     00050 02200                  
01868710321750118DT67590675900000009951800888800000010180088824001193045900010600021021420230000000539904523000000000047500426684XXXXXX8299       VS11    0001111   NYV1 A E303045587296453N8400000000053996VK600    05DNPLANET VAPOR #500        05485C    VS84000000005399 N  599976923295                            000000000+                C CC 12112                     000000000  N000000000 497   0000000000000.00 0000000.00   0000000.00                             000000000000000                                                                                                                                                     01418 A000000000000 0000000000000.99     01650 01000                  
01868720321750119DT67590675900000009951800888800000010180088877287283045900010600031021420230000000151104523000000000047500544579XXXXXX2336       MS02WI09          NY 1 0 AMDJEOLNJD0214  N840000000001511          05DNPLANET VAPOR #500        001147    MD84000000001511 N  599976923295                            000000000+M10101C5434C    MDJ  10815                     000000000  1                0000000000000.00 0000000.00   0000000.00                             000000000000000                                                                                                                                                   B101418  000000000000 0000000000000.23     00050 02200                  
01868730321750120DT67590675900000009951800888800000010180088824001193045900010600047021420230000000755804523000000000047500449370XXXXXX2387       VS11    0001111   NYV1 A E303045629597163N840000000007558GVMN00    05DNPLANET VAPOR #500        674168    VD84000000007558 N  599976923295                            000000000+                F DF 00381                     000000000  N000000000       0000000000000.00 0000000.00   0000000.00                             000000000000000                                                                                                                                                     01418 A000000000000 0000000000000.75     00800 01500                  
01868740321750121DT67590675900000009951800888800000010180088877287283045900010600056021420230000000215904523000000000047500529099XXXXXX2881       MS02WI09          NY 1 0 AMDJS19DJF0214  N840000000002159          05DNPLANET VAPOR #500        730787    MD84000000002159 N  599976923295                            000000000+M10101C5434C    MDJ  10815                     000000000  1                0000000000000.00 0000000.00   0000000.00                             000000000000000                                                                                                                                                   B101418  000000000000 0000000000000.23     00050 02200                  
01868750321750122DT67590675900000009951800888800000010180088824001193045900010600062021420230000000205104523000000000047500423223XXXXXX5144       VS11    0001111   NYV1 A E463045651064939N840000000002051FHTT00    05DNPLANET VAPOR #500        032062    VD84000000002051 N  599976923295                            000000000+                F DF 00381                     000000000  N000000000       0000000000000.00 0000000.00   0000000.00                             000000000000000                                                                                                                                                     01418 A000000000000 0000000000000.31     00800 01500                  
01868760321750123DT67590675900000009951800888800000010180088824001193045900010600070021420230000001295404523000000000047500444796XXXXXX7094       VS11    0001111   NYV1 A E303045775789032N840000000012954X8Q700    05DNPLANET VAPOR #500        014324    VS84000000012954 N  599976923295                            000000000+                A CA 12110                     000000000  N000000000 493   0000000000000.00 0000000.00   0000000.00                             000000000000000                                                                                                                                                     01418 A000000000000 0000000000002.06     01510 01000                  
01868770321750124DT67590675900000009951800888800000010180088877287283045900010600080021420230000000237504523000000000047500530388XXXXXX3658       MS02WI09          NY 1 0 AMDJSA9YMI0214  N840000000002375          05DNPLANET VAPOR #500        749876    MD84000000002375 N  599976923295                            000000000+M10101C5434C    MDJ  00402                     000000000  N                0000000000000.00 0000000.00   0000000.00                             000000000000000                                                                                                                                                   B101418  000000000000 0000000000000.40     01050 01500                  
01868780321750125DT67590675900000009951800888800000010180088824001193045900010600096021420230000000658504523000000000047500476732XXXXXX5888       VS11    0001111   NYV1 A E303045855663649N8400000000065856HL900    05DNPLANET VAPOR #500        270294    VD84000000006585 N  599976923295                            000000000+                F DF 00381                     000000000  N000000000       0000000000000.00 0000000.00   0000000.00                             000000000000000                                                                                                                                                     01418 A000000000000 0000000000000.68     00800 01500                  
01868790321750126DT67590675900000009951800888800000010180088877287283045900010600106021420230000000053904523000000000047500524369XXXXXX3480       MS02WI09          NY 1 0 AMDJIC9J0S0214  N840000000000539          05DNPLANET VAPOR #500        080559    MD84000000000539 N  599976923295                            000000000+M10101C5434C    MDJ  00402                     000000000  N                0000000000000.00 0000000.00   0000000.00                             000000000000000                                                                                                                                                   B101418  000000000000 0000000000000.21     01050 01500                  
01868800321750127DT67590675900000009951800888800000010180088824001193045900010600112021420230000000572204523000000000047500448261XXXXXX4942       VS11    0001111   NYV1 A E583046023883288N8400000000057222P6S00    05DNPLANET VAPOR #500        832041    VD84000000005722 N  599976923295                            000000000+                F DF 10433                     000000000  Y000000000 338   0000000000000.00 0000000.00   0000000.00                             000000000000000                                                                                                                                                     01418 A000000000000 0000000000000.25     00050 02200                  
01868810321750128BH6759067590000001129680088880000090170214202304523000000000051140    0000090001070013N8008886759C02152023                                                                                                                                                                                                                                                                                                                                                                                                                                                                                                                                                                                                 
01868820321750129DT67590675900000011296800888800000010180088824001193045900010700011021420230000000237504523000000000051140408138XXXXXX5728       VS11    0001111   NYV1 A E303045551915292N840000000002375XCNK00    07DNPLANET VAPOR #1000       112268    VD84000000002375 N  599976923732                            000000000+                F PF 08170                     000000000  N000000000       0000000000000.00 0000000.00   0000000.00                             000000000000000                                                                                                                                                     01418 A000000000000 0000000000000.42     01150 01500                  
01868830321750130DT67590675900000011296800888800000010180088824001193045900010700029021420230000000539904523000000000051140435544XXXXXX1062       VS11    0001111   NYV1 A E303045567086680N840000000005399GM9Q00    05DNPLANET VAPOR #1000       116040    VD84000000005399 N  599976923732                            000000000+                F DF 10433                     000000000  Y000000000 338   0000000000000.00 0000000.00   0000000.00                             000000000000000                                                                                                                                                     01418 A000000000000 0000000000000.25     00050 02200                  
01868840321750131DT67590675900000011296800888800000010180088877287283045900010700039021420230000000377904523000000000051140519836XXXXXX3739       MS02WI09          NY 1 0 AMDJZFQUVF0214  N840000000003779          05DNPLANET VAPOR #1000       035039    MD84000000003779 N  599976923732                            000000000+M10101C5434C    MDJ  00402                     000000000  N                0000000000000.00 0000000.00   0000000.00                             000000000000000                                                                                                                                                   B101418  000000000000 0000000000000.55     01050 01500                  
01868850321750132DT67590675900000011296800888800000010180088824001193045900010700045021420230000000636904523000000000051140441753XXXXXX3234       VS11    0001111   NYV1 A E383045652477919N840000000006369BSB400    07DNPLANET VAPOR #1000       120073    VD84000000006369 N  599976923732                            000000000+                F DF 10433                     000000000  Y000000000 338   0000000000000.00 0000000.00   0000000.00                             000000000000000                                                                                                                                                     01418 A000000000000 0000000000000.25     00050 02200                  
01868860321750133DT67590675900000011296800888800000010180088824001193045900010700052021420230000000151004523000000000051140474474XXXXXX5492       VS11    0001111   NYV1 A E303045674273448N840000000001510LFCL00    07DNPLANET VAPOR #1000       114534    VD84000000001510 N  599976923732                            000000000+                F DF 10433                     000000000  Y000000000 338   0000000000000.00 0000000.00   0000000.00                             000000000000000                                                                                                                                                     01418 A000000000000 0000000000000.23     00050 02200                  
01868870321750134DT67590675900000011296800888800000010180088824001193045900010700060021420230000000323904523000000000051140408138XXXXXX5728       VS11    0001111   NYV1 A E583045684271946N840000000003239BZRL00    07DNPLANET VAPOR #1000       483870    VD84000000003239 N  599976923732                            000000000+                F PF 08170                     000000000  N000000000       0000000000000.00 0000000.00   0000000.00                             000000000000000                                                                                                                                                     01418 A000000000000 0000000000000.52     01150 01500                  
01868880321750135DT67590675900000011296800888800000010180088824001193045900010700078021420230000000194304523000000000051140473703XXXXXX2534       VS11    0001111   NYV1 A E463045725519885N84000000000194378V200    05DNPLANET VAPOR #1000       070789    VD84000000001943 N  599976923732                            000000000+                F DF 10433                     000000000  Y000000000 338   0000000000000.00 0000000.00   0000000.00                             000000000000000                                                                                                                                                     01418 A000000000000 0000000000000.23     00050 02200                  
01868890321750136DT67590675900000011296800888800000010180088824001193045900010700086021420230000001487104523000000000051140448232XXXXXX9574       VS11    0001111   NYV1 A E463045788113875N840000000014871JKRD00    05DNPLANET VAPOR #1000       065325    VD84000000014871 N  599976923732                            000000000+                F DF 00381                     000000000  N000000000       0000000000000.00 0000000.00   0000000.00                             000000000000000                                                                                                                                                     01418 A000000000000 0000000000001.34     00800 01500                  
01868900321750137DT67590675900000011296800888800000010180088877287283045900010700096021420230000000053804523000000000051140542432XXXXXX1013       MS02WI09          NY 1 0 AMDJONB4LW0214  N840000000000538          07DNPLANET VAPOR #1000       437287    MD84000000000538 N  599976923732                            000000000+M10101M0034C    MDJ  10815                     000000000  1                0000000000000.00 0000000.00   0000000.00                             000000000000000                                                                                                                                                   B101418  000000000000 0000000000000.22     00050 02200                  
01868910321750138DT67590675900000011296800888800000010180088824001193045900010700102021420230000000453404523000000000051140446542XXXXXX0505       VS11    0001111   NYV1 A E583045816895672N840000000004534GGWJ00    05DNPLANET VAPOR #1000       014196    VS84000000004534 N  599976923732                            000000000+                B CB 12111                     000000000  N000000000 495   0000000000000.00 0000000.00   0000000.00                             000000000000000                                                                                                                                                     01418 A000000000000 0000000000000.85     01650 01000                  
01868920321750139DT67590675900000011296800888800000010180088824001193045900010700110021420230000000048504523000000000051140408138XXXXXX5728       VK04VS111111111   NYV1 A E583045821931723N84000000000048598MC00    07DNPLANET VAPOR #1000       445813    VD84000000000485 N  599976923732                            000000000+                F PF 08165                     000000000  N000000000       0000000000000.00 0000000.00   0000000.00                             000000000000000                                                                                                                                                     01418 F000000000000 0000000000000.13     01600 00500                  
