02399510672186515AD675906759000000142748001028000009071900012418940000001987003282023NYY08723ND6759800102033020232023087053917                                                                                                                                                                                                                                                                                                                                                                                                                                                                                                                                                                                              
02399520672186518AD675906759000000151648008888000009071900011821230000000654803282023NYY08723ND6759800888033020232023087053918                                                                                                                                                                                                                                                                                                                                                                                                                                                                                                                                                                                              
02399530672186521AD675906759000000151648008888000009071900011821220000001799103282023NYY08723ND6759800888033020232023087053919                                                                                                                                                                                                                                                                                                                                                                                                                                                                                                                                                                                              
02399540672186524AD675906759000000151648008888000009071900012129830000002255003282023NYY08723ND6759800888033020232023087053920                                                                                                                                                                                                                                                                                                                                                                                                                                                                                                                                                                                              
02399550672186527AD675906759000000151648008888000009071900012129840000000654803282023NYY08723ND6759800888033020232023087053921                                                                                                                                                                                                                                                                                                                                                                                                                                                                                                                                                                                              
02399560672186530AD675906759000000151648008888000009071900012132580000001487003282023NYY08723ND6759800888033020232023087053922                                                                                                                                                                                                                                                                                                                                                                                                                                                                                                                                                                                              
02399570672186533AD675906759000000151648008888000009071900012242070000001499003282023NYY08723ND6759800888033020232023087053923                                                                                                                                                                                                                                                                                                                                                                                                                                                                                                                                                                                              
02399580672186536AD675906759000000151648008888000009071900011511330000000198803282023NYY08723ND6759800888033020232023087053926                                                                                                                                                                                                                                                                                                                                                                                                                                                                                                                                                                                              
02399590672186539AD675906759000000142748001028000009077900012519840000001460303282023NYY08723YC6759800102033020232023087053927                                                                                                                                                                                                                                                                                                                                                                                                                                                                                                                                                                                              
02399600672186542AD675906759000000198288001098000009071900010205380000002487003282023NYY08723ND6759800109033020232023087053924                                                                                                                                                                                                                                                                                                                                                                                                                                                                                                                                                                                              
02399610672186545AD675906759000000198288001098000009071900010204650000002487003282023NYY08723ND6759800109033020232023087053925                                                                                                                                                                                                                                                                                                                                                                                                                                                                                                                                                                                              
02399620672186548AD675906759000000151648008888000009071900011511320000002487003282023NYY08723ND6759800888033020232023087045202                                                                                                                                                                                                                                                                                                                                                                                                                                                                                                                                                                                              
02399630672186551AD675906759000000198288001098000009071900010202820000001987003282023NYY08723ND6759800109033020232023087045203                                                                                                                                                                                                                                                                                                                                                                                                                                                                                                                                                                                              
02399640672186554AD675906759000000151648008888000009071900012130360000002487003282023NYY08723ND6759800888033020232023087045204                                                                                                                                                                                                                                                                                                                                                                                                                                                                                                                                                                                              
02399650672186557AD675906759000000151648008888000009071900012028980000000519003282023NYY08723ND6759800888033020232023087045205                                                                                                                                                                                                                                                                                                                                                                                                                                                                                                                                                                                              
02399660672186560AD675906759000000151648008888000009071900012028970000000654803282023NYY08723ND6759800888033020232023087045206                                                                                                                                                                                                                                                                                                                                                                                                                                                                                                                                                                                              
02399670672186563AD675906759000000151648008888000009071900011924780000001987003282023NYY08723ND6759800888033020232023087045207                                                                                                                                                                                                                                                                                                                                                                                                                                                                                                                                                                                              
02399680672186566AD675906759000000133008001028000009071900012828950000001723503282023NYY08723ND6759800102033020232023087060912                                                                                                                                                                                                                                                                                                                                                                                                                                                                                                                                                                                              
02399690673771818BH6759067590000001982880010980000090170329202308823000000000005961    0000090001080967N8001096759D03302023                                                                                                                                                                                                                                                                                                                                                                                                                                                                                                                                                                                                 
02399700673771819DT67590675900000019828800109800000010680010974001193088900010809674032820230000000596108823000000000005961400898XXXXXX7089               0000000   YYV4 07T383087845045696N840000000005961Z28W00    01CNKETOFUSION 8885968154    028851    VS84000000005961 NP1599977547467   9587249461T7FFF279693CA  000000000+                D CD 00245                     000000000  N000000000 166   0000000000000.00 0000000.00   0000000.00                             000000000000000                                                                                                                                                     015WPE 000000005961-0000000000001.05     01760 00000                  
02399710673770001P16759067590000001982880010980000001060000000000000000                             2000000000000000000000000              000000000000                    0000000000000000000000000                    000000000000                                                                                                                                                                                                                                                                                                                                                                                                                                                                                        
02399720674840002BH6759067590000000215480088880000090170329202308823000000000253292    0000090001462303N8008886759C03302023                                                                                                                                                                                                                                                                                                                                                                                                                                                                                                                                                                                                 
02399730674840003DT67590675900000002154800888800000010180088873011003088900014656098032920230000015728208823000000000253292379804XXXXX6003                          NY 4 07N007402902800060N840000000157282          01DNDRIP DROP DISTRO LLC     206626    AM84000000157282 N  519971004114                            000000000+6004S0S00140 258     11244                     000000000                   0000000000000.00 0000000.00   0000000.00                             000000000000000 61248972736759675900000002154 DRIP DROP DISTRO LLC     1445 W COMMERCE AVE SUITE2087248209      83705     TROY@DRIPDROPDISTRO.COM                   01418  000000000000 0000000000029.98     01900 00000                  
02399740674840004DT67590675900000002154800888800000010180088824001193088900014683609032920230000001825008823000000000253292429475XXXXXX5131               2111111   NYV4 A7W583088495200860N840000000018250K6CQ00    01DNDRIP DROP DISTRO LLC     077146    VD84000000018250 NP1519971004114   17619                    000000000+                G DG 10352                     000000000  Y000000000 338   0000000000000.00 0000000.00   0000000.00                             000000000000000                                                                                                                                                     01418 G000000018250 0000000000000.31     00050 02200                  
02399750674840001P16759067590000000215480088880000001010000000000000000    44027096753              2000000000000000000000000              000000000000                    0000000000000000000000000                    000000000000                                                                                                                                                                                                                                                                                                                                                                                                                                                                                        
02399760674840005DT67590675900000002154800888800000010180088824001193088900014623035032920230000007776008823000000000253292426930XXXXXX0531               2111111   NYV4 A7W583088592880637N840000000077760D4CD00    01DNDRIP DROP DISTRO LLC     04276G    VB84000000077760 NP1519971004114   INV-001409               000000000+                G5CG511887                     000000000  N000000000 163   0000000000000.00 0000000.00   0000000.00                             000000000000000                                                                                                                                                     01418 G000000077760 0000000000023.43     03000 01000                  
02399770674840001P16759067590000000215480088880000001010000000000000000    44027442666              2000000000000000000000000              000000000000                    0000000000000000000000000                    000000000000                                                                                                                                                                                                                                                                                                                                                                                                                                                                                        
02399780674840006BH6759067590000000288180088880000090170329202308823000000000090999    0000090001830028N8008886759C03302023                                                                                                                                                                                                                                                                                                                                                                                                                                                                                                                                                                                                 
02399790674840007DT67590675900000002881800888800000010180088824001193088900018300010032920230000001065308823000000000090999443238XXXXXX7857       VS11    0001111   NYV1 A E583088504330404N8400000000106539HXQ00    05DNHAPPY HIPPIE             000033    VD84000000010653 N  549976487158                            000000000+                F DF 00381                     000000000  N000000000       0000000000000.00 0000000.00   0000000.00                             000000000000000                                                                                                                                                     01418 A000000000000 0000000000001.00     00800 01500                  
02399800674840008DT67590675900000002881800888800000010180088824001193088900018300028032920230000000493808823000000000090999401099XXXXXX6907       VS11    0001111   NYV1 A E463088520278644N84000000000493832P700    05DNHAPPY HIPPIE             660548    VS84000000004938 N  549976487158                            000000000+                A CA 12110                     000000000  N000000000 493   0000000000000.00 0000000.00   0000000.00                             000000000000000                                                                                                                                                     01418 A000000000000 0000000000000.85     01510 01000                  
02399810674840009DT67590675900000002881800888800000010180088824001193088900018300036032920230000000285208823000000000090999445100XXXXXX2335       VS11    0001111   NYV1 A E463088525310850N840000000002852QF9V00    05DNHAPPY HIPPIE             776655    VD84000000002852 N  549976487158                            000000000+                F DF 10433                     000000000  Y000000000 338   0000000000000.00 0000000.00   0000000.00                             000000000000000                                                                                                                                                     01418 A000000000000 0000000000000.23     00050 02200                  
02399820674840010DT67590675900000002881800888800000010180088877287283088900018300046032920230000000449508823000000000090999517545XXXXXX5730       MS02WI09          NY 1 0 AMDJKDG2770329  N840000000004495          07DNHAPPY HIPPIE             029739    MD84000000004495 N  549976487158                            000000000+M10101M0034C    MDJ  10815                     000000000  1                0000000000000.00 0000000.00   0000000.00                             000000000000000                                                                                                                                                   B101418  000000000000 0000000000000.24     00050 02200                  
02399830674840011DT67590675900000002881800888800000010180088824001193088900018300051032920230000000680108823000000000090999443044XXXXXX0359       VS11    0001111   NYV1 A E583088555601493N84000000000680143QV00    07DNHAPPY HIPPIE             383556    VD84000000006801 N  549976487158                            000000000+                F DF 10433                     000000000  Y000000000 338   0000000000000.00 0000000.00   0000000.00                             000000000000000                                                                                                                                                     01418 A000000000000 0000000000000.25     00050 02200                  
02399840674840012DT67590675900000002881800888800000010180088824001193088900018300069032920230000000305908823000000000090999445101XXXXXX2683       VS11    0001111   NYV1 A E303088559075835N840000000003059HPNN00    05DNHAPPY HIPPIE             799224    VD84000000003059 N  549976487158                            000000000+                F DF 10433                     000000000  Y000000000 338   0000000000000.00 0000000.00   0000000.00                             000000000000000                                                                                                                                                     01418 A000000000000 0000000000000.24     00050 02200                  
02399850674840013DT67590675900000002881800888800000010180088824001193088900018300077032920230000000187608823000000000090999422921XXXXXX5451       VS11    0001111   NYV1 A E463088574968310N840000000001876JWGG00    07DNHAPPY HIPPIE             043097    VD84000000001876 N  549976487158                            000000000+                F DF 00381                     000000000  N000000000       0000000000000.00 0000000.00   0000000.00                             000000000000000                                                                                                                                                     01418 A000000000000 0000000000000.30     00800 01500                  
02399860674840014DT67590675900000002881800888800000010180088824001193088900018300085032920230000000192008823000000000090999419090XXXXXX1409       VS11    0001111   NYV1 A E383088580735368N840000000001920CV9H00    05DNHAPPY HIPPIE             802578    VD84000000001920 N  549976487158                            000000000+                F DF 00381                     000000000  N000000000       0000000000000.00 0000000.00   0000000.00                             000000000000000                                                                                                                                                     01418 A000000000000 0000000000000.30     00800 01500                  
02399870674840015DT67590675900000002881800888800000010180088824001193088900018300093032920230000000296208823000000000090999445102XXXXXX5227       VS11    0001111   NYV1 A E583088593721930N840000000002962RSLL00    05DNHAPPY HIPPIE             829042    VD84000000002962 N  549976487158                            000000000+                F DF 10433                     000000000  Y000000000 338   0000000000000.00 0000000.00   0000000.00                             000000000000000                                                                                                                                                     01418 A000000000000 0000000000000.23     00050 02200                  
02399880674840016DT67590675900000002881800888800000010180088824001193088900018300101032920230000000148108823000000000090999445102XXXXXX5227       VK04VS111111111   NYV1 A E463088594230707N840000000001481JGC400    05DNHAPPY HIPPIE             829512    VD84000000001481 N  549976487158                            000000000+                F DF 10439                     000000000  Y000000000 331   0000000000000.00 0000000.00   0000000.00                             000000000000000                                                                                                                                                     01418 F000000000000 0000000000000.23     00050 02200                  
02399890674840017DT67590675900000002881800888800000010180088824001193088900018300119032920230000000325808823000000000090999449374XXXXXX1276       VS11    0001111   NYV1 A E463088611720666N840000000003258SWQC00    05DNHAPPY HIPPIE             832635    VD84000000003258 N  549976487158                            000000000+                F DF 00381                     000000000  N000000000       0000000000000.00 0000000.00   0000000.00                             000000000000000                                                                                                                                                     01418 A000000000000 0000000000000.41     00800 01500                  
02399900674840018DT67590675900000002881800888800000010180088824001193088900018300127032920230000000219508823000000000090999415978XXXXXX6979       VS11    0001111   NYV1 A E383088613783115N8400000000021953PFL00    07DNHAPPY HIPPIE             040320    VD84000000002195 N  549976487158                            000000000+                F DF 10433                     000000000  Y000000000 338   0000000000000.00 0000000.00   0000000.00                             000000000000000                                                                                                                                                     01418 A000000000000 0000000000000.23     00050 02200                  
02399910674840019DT67590675900000002881800888800000010180088877287283088900018300137032920230000000493808823000000000090999514046XXXXXX0148       MS02WI09          NY 1 0 AMPLQ6SWOH0329  N840000000004938          05DNHAPPY HIPPIE             031610    MC84000000004938 N  549976487158                            000000000+M10101C5434C    MPL  00043                     000000000  N                0000000000000.00 0000000.00   0000000.00                             000000000000000                                                                                                                                                   B101418  000000000000 0000000000000.85     01650 00400                  
02399920674840020DT67590675900000002881800888800000010180088824001193088900018300143032920230000000493808823000000000090999422921XXXXXX7391       VS11    0001111   NYV1 A E383088652062014N8400000000049386JHJ00    05DNHAPPY HIPPIE             050807    VD84000000004938 N  549976487158                            000000000+                F DF 00381                     000000000  N000000000       0000000000000.00 0000000.00   0000000.00                             000000000000000                                                                                                                                                     01418 A000000000000 0000000000000.55     00800 01500                  
02399930674840021DT67590675900000002881800888800000010180088877287283088900018300152032920230000000295208823000000000090999542432XXXXXX6544       MS02WI09          NY 1 0 AMDJMS8WOH0329  N840000000002952          07DNHAPPY HIPPIE             213517    MD84000000002952 N  549976487158                            000000000+M10101M0034C    MDJ  10815                     000000000  1                0000000000000.00 0000000.00   0000000.00                             000000000000000                                                                                                                                                   B101418  000000000000 0000000000000.23     00050 02200                  
02399940674840022DT67590675900000002881800888800000010180088824001193088900018300168032920230000000069008823000000000090999419090XXXXXX6038       VK04VS111111111   NYV1 A E583088681034030N8400000000006909XHV00    05DNHAPPY HIPPIE             808123    VD84000000000690 N  549976487158                            000000000+                F DF 00451                     000000000  N000000000 214   0000000000000.00 0000000.00   0000000.00                             000000000000000                                                                                                                                                     01418 F000000000000 0000000000000.15     01550 00400                  
02399950674840023DT67590675900000002881800888800000010180088877287283088900018300178032920230000000274308823000000000090999519906XXXXXX1610       MS02WI09          NY 1 0 AMDJD76KOR0329  N840000000002743          05DNHAPPY HIPPIE             106738    MD84000000002743 N  549976487158                            000000000+M10101C5434C    MDJ  00402                     000000000  N                0000000000000.00 0000000.00   0000000.00                             000000000000000                                                                                                                                                   B101418  000000000000 0000000000000.44     01050 01500                  
02399960674840024DT67590675900000002881800888800000010180088824001193088900018300184032920230000000395008823000000000090999480639XXXXXX3674       VS11    0001111   NYV1 A E583088697999637N840000000003950FXW800    05DNHAPPY HIPPIE             196647    VD84000000003950 N  549976487158                            000000000+                F DF 00381                     000000000  N000000000       0000000000000.00 0000000.00   0000000.00                             000000000000000                                                                                                                                                     01418 A000000000000 0000000000000.47     00800 01500                  
02399970674840025DT67590675900000002881800888800000010180088877287283088900018300194032920230000000175608823000000000090999544544XXXXXX8112       MS02WI09          NY 1 0 AMPMW392EK0329  N840000000001756          90DNHAPPY HIPPIE             029372    MD84000000001756 N  549976487158                            000000000+M10101B5434C    MPM  11964                     000000000  N                0000000000000.00 0000000.00   0000000.00                             000000000000000                                                                                                                                                   C101418  000000000000 0000000000000.35     01150 01500                  
02399980674840026DT67590675900000002881800888800000010180088824001193088900018300200032920230000000037408823000000000090999491523XXXXXX7823       VK04VS111111111   NYV1 A E303088723957176N8400000000003749HT500    07DNHAPPY HIPPIE             000101    VD84000000000374 N  549976487158                            000000000+                F DF 10439                     000000000  Y000000000 331   0000000000000.00 0000000.00   0000000.00                             000000000000000                                                                                                                                                     01418 F000000000000 0000000000000.22     00050 02200                  
02399990674840027DT67590675900000002881800888800000010180088877287283088900018300210032920230000000024908823000000000090999518941XXXXXX4253                         NY 1 0 AMWEGCUFOR0329  N840000000000249          05DNHAPPY HIPPIE             12806Z    MC84000000000249 N  549976487158                            000000000+M10101C5434C    MWE  12147                     000000000  N                0000000000000.00 0000000.00   0000000.00                             000000000000000                                                                                                                                                   B101418  000000000000 0000000000000.08     02300 00200                  
02400000674840028DT67590675900000002881800888800000010180088824001193088900018300226032920230000000219508823000000000090999435142XXXXXX7236       VS11    0001111   NYV1 A E463088759153585N8400000000021957S5Z00    07DNHAPPY HIPPIE             011959    VD84000000002195 N  549976487158                            000000000+                F DF 10433                     000000000  Y000000000 338   0000000000000.00 0000000.00   0000000.00                             000000000000000                                                                                                                                                     01418 A000000000000 0000000000000.23     00050 02200                  
02400010674840029DT67590675900000002881800888800000010180088824001193088900018300234032920230000000098408823000000000090999435142XXXXXX7236       VK04VS111111111   NYV1 A E383088759828655N840000000000984N23F00    07DNHAPPY HIPPIE             024012    VD84000000000984 N  549976487158                            000000000+                F DF 10439                     000000000  Y000000000 331   0000000000000.00 0000000.00   0000000.00                             000000000000000                                                                                                                                                     01418 F000000000000 0000000000000.22     00050 02200                  
02400020674840030DT67590675900000002881800888800000010180088877287283088900018300244032920230000000592508823000000000090999511953XXXXXX2421       MS02WI09          NY 1 0 AMDJZFYWEK0329  N840000000005925          07DNHAPPY HIPPIE             049499    MD84000000005925 N  549976487158                            000000000+M10101M5434C    MDJ  00402                     000000000  N                0000000000000.00 0000000.00   0000000.00                             000000000000000                                                                                                                                                   B101418  000000000000 0000000000000.77     01050 01500                  
02400030674840031DT67590675900000002881800888800000010180088824001193088900018300259032920230000000493808823000000000090999422921XXXXXX6692       VS11    0001111   NYV1 A E583088766589758N840000000004938JM8H00    07DNHAPPY HIPPIE             062259    VD84000000004938 N  549976487158                            000000000+                F DF 00381                     000000000  N000000000       0000000000000.00 0000000.00   0000000.00                             000000000000000                                                                                                                                                     01418 A000000000000 0000000000000.55     00800 01500                  
02400040674840032DT67590675900000002881800888800000010180088824001193088900018300267032920230000000355408823000000000090999447289XXXXXX5390       VS11    0001111   NYV1 A E303088779907520N8400000000035547XN400    05DNHAPPY HIPPIE             025621    VD84000000003554 N  549976487158                            000000000+                F DF 00381                     000000000  N000000000       0000000000000.00 0000000.00   0000000.00                             000000000000000                                                                                                                                                     01418 A000000000000 0000000000000.43     00800 01500                  
02400050674840033DT67590675900000002881800888800000010180088877287283088900018300277032920230000000158008823000000000090999511953XXXXXX4908       MS02WI09          NY 1 0 AMDJH89YOR0329  N840000000001580          07DNHAPPY HIPPIE             048744    MD84000000001580 N  549976487158                            000000000+M10101M0034C    MDJ  00402                     000000000  N                0000000000000.00 0000000.00   0000000.00                             000000000000000                                                                                                                                                   B101418  000000000000 0000000000000.32     01050 01500                  
02400060674840034DT67590675900000002881800888800000010180088877287283088900018300285032920230000000274308823000000000090999516409XXXXXX1989       MS02WI09          NY 1 0 AMDSKI4KF30329  N840000000002743          05DNHAPPY HIPPIE             501511    MD84000000002743 N  549976487158                            000000000+M10101C5434C    MDS  00402                     000000000  N                0000000000000.00 0000000.00   0000000.00                             000000000000000                                                                                                                                                   B101418  000000000000 0000000000000.44     01050 01500                  
02400070674840035BH6759067590000000288180088880000090170329202308823000000000069068    0000090001810014N8008886759C03302023                                                                                                                                                                                                                                                                                                                                                                                                                                                                                                                                                                                                 
02400080674840036DT67590675900000002881800888800000010180088824001193088900018100014032920230000000438908823000000000069068419162XXXXXX2285       VS11    0001111   NYV1 A E583088519514365N840000000004389C98400    05DNHAPPY HIPPIE             002423    VD84000000004389 N  549976487134                            000000000+                F DF 00381                     000000000  N000000000       0000000000000.00 0000000.00   0000000.00                             000000000000000                                                                                                                                                     01418 A000000000000 0000000000000.50     00800 01500                  
02400090674840037DT67590675900000002881800888800000010180088824001193088900018100022032920230000000024908823000000000069068491523XXXXXX7823       VK04VS111111111   NYV1 A E303088584169391N840000000000249PWW800    07DNHAPPY HIPPIE             018971    VD84000000000249 N  549976487134                            000000000+                F DF 10439                     000000000  Y000000000 331   0000000000000.00 0000000.00   0000000.00                             000000000000000                                                                                                                                                     01418 F000000000000 0000000000000.22     00050 02200                  
02400100674840038DT67590675900000002881800888800000010180088877287283088900018100032032920230000000888908823000000000069068517805XXXXXX3570       MS02WI09          NY 1 0 AMPLW42HCF0329  N840000000008889          07DNHAPPY HIPPIE             08899B    MC84000000008889 N  549976487134                            000000000+M10101M5434C    MPL  00364                     000000000  N                0000000000000.00 0000000.00   0000000.00                             000000000000000                                                                                                                                                   B101418  000000000000 0000000000001.64     01800 00400                  
02400110674840039DT67590675900000002881800888800000010180088824001193088900018100048032920230000000395008823000000000069068405310XXXXXX7840       VS11    0001111   NYV1 A E583088622153826N840000000003950V23V00    07DNHAPPY HIPPIE             029904    VS84000000003950 N  549976487134                            000000000+                A CA 12110                     000000000  N000000000 493   0000000000000.00 0000000.00   0000000.00                             000000000000000                                                                                                                                                     01418 A000000000000 0000000000000.70     01510 01000                  
02400120674840040DT67590675900000002881800888800000010180088824001193088900018100055032920230000000548808823000000000069068443264XXXXXX8753       VS11    0001111   NYV1 A E583088633436347N840000000005488JVQ300    05DNHAPPY HIPPIE             002542    VD84000000005488 N  549976487134                            000000000+                F DF 10433                     000000000  Y000000000 338   0000000000000.00 0000000.00   0000000.00                             000000000000000                                                                                                                                                     01418 A000000000000 0000000000000.25     00050 02200                  
02400130674840041DT67590675900000002881800888800000010180088877287283088900018100065032920230000000316108823000000000069068511953XXXXXX9431       MS02WI09          NY 1 0 AMDJTVC9EK0329  N840000000003161          05DNHAPPY HIPPIE             085946    MD84000000003161 N  549976487134                            000000000+M10101C5434C    MDJ  00402                     000000000  N                0000000000000.00 0000000.00   0000000.00                             000000000000000                                                                                                                                                   B101418  000000000000 0000000000000.48     01050 01500                  
02400140674840042DT67590675900000002881800888800000010180088877287283088900018100073032920230000000362108823000000000069068553961XXXXXX5946       MS02WI09          NY 2 0 AMDJTZ4KEK0329  N840000000003621          05DNHAPPY HIPPIE             215315    MD84000000003621 N  549976487134                            000000000+M10101C1334C    MDJ  00402                     000000000  N                0000000000000.00 0000000.00   0000000.00                             000000000000000                                                                                                                                                   B101418  000000000000 0000000000000.53     01050 01500                  
02400150674840043DT67590675900000002881800888800000010180088824001193088900018100089032920230000001674608823000000000069068410489XXXXXX2244       VS11    0001111   NYV1 A E383088642880690N840000000016746HCGB00    05DNHAPPY HIPPIE             325908    VD84000000016746 N  549976487134                            000000000+                F PF 08170                     000000000  N000000000       0000000000000.00 0000000.00   0000000.00                             000000000000000                                                                                                                                                     01418 A000000000000 0000000000002.08     01150 01500                  
02400160674840044DT67590675900000002881800888800000010180088824001193088900018100097032920230000000271508823000000000069068433419XXXXXX4929       VS11    0001111   NYV1 A E383088644284725N8400000000027152SW900    05DNHAPPY HIPPIE             650028    VS84000000002715 N  549976487134                            000000000+                A CA 12110                     000000000  N000000000 493   0000000000000.00 0000000.00   0000000.00                             000000000000000                                                                                                                                                     01418 A000000000000 0000000000000.51     01510 01000                  
02400170674840045DT67590675900000002881800888800000010180088877287283088900018100107032920230000000192108823000000000069068511953XXXXXX0307       MS02WI09          NY 1 0 AMDJNHXJEK0329  N840000000001921          05DNHAPPY HIPPIE             059965    MD84000000001921 N  549976487134                            000000000+M10101C5434C    MDJ  00402                     000000000  N                0000000000000.00 0000000.00   0000000.00                             000000000000000                                                                                                                                                   B101418  000000000000 0000000000000.35     01050 01500                  
02400180674840046DT67590675900000002881800888800000010180088877287283088900018100115032920230000000938008823000000000069068516693XXXXXX0242       MS02WI09          NY 1 0 AMDSDFOQOR0329  N840000000009380          05DNHAPPY HIPPIE             394752    MD84000000009380 N  549976487134                            000000000+M10101C5434C    MDS  00402                     000000000  N                0000000000000.00 0000000.00   0000000.00                             000000000000000                                                                                                                                                   B101418  000000000000 0000000000001.13     01050 01500                  
02400190674840047DT67590675900000002881800888800000010180088877287283088900018100123032920230000000439008823000000000069068514377XXXXXX0825       MS02WI09          NY 1 0 AMDJF1T2OR0329  N840000000004390          07DNHAPPY HIPPIE             19SOPE    MD84000000004390 N  549976487134                            000000000+M10101M0034C    MDJ  00402                     000000000  N                0000000000000.00 0000000.00   0000000.00                             000000000000000                                                                                                                                                   B101418  000000000000 0000000000000.61     01050 01500                  
02400200674840048DT67590675900000002881800888800000010180088824001193088900018100139032920230000000197408823000000000069068443238XXXXXX9120       VS11    0001111   NYV1 A E303088737769238N840000000001974XJ9H00    07DNHAPPY HIPPIE             062936    VD84000000001974 N  549976487134                            000000000+                F DF 00381                     000000000  N000000000       0000000000000.00 0000000.00   0000000.00                             000000000000000                                                                                                                                                     01418 A000000000000 0000000000000.31     00800 01500                  
02400210674840049DT67590675900000002881800888800000010180088824001193088900018100147032920230000000219508823000000000069068409629XXXXXX7024       VS11    0001111   NYV1 A E303088745041037N840000000002195T9V600    05DNHAPPY HIPPIE             029311    VS84000000002195 N  549976487134                            000000000+                B CB 12111                     000000000  N000000000 495   0000000000000.00 0000000.00   0000000.00                             000000000000000                                                                                                                                                     01418 A000000000000 0000000000000.46     01650 01000                  
02400220674840050BH6759067590000000995180010180000090170329202308823000000000026934    0000090001130008N8001016759C03302023                                                                                                                                                                                                                                                                                                                                                                                                                                                                                                                                                                                                 
02400230674840051DT67590675900000009951800101800000010180010124001193088900011300017032920230000000518108823000000000026934488853XXXXXX3772       VS11    0001111   NYV1 A E583088561734122N8400000000051812GWH00    05DNPLANET VAPOR INC #600    851513    VD84000000005181 N  599977384956                            000000000+                G DG 08704                     000000000  N000000000       0000000000000.00 0000000.00   0000000.00                             000000000000000                                                                                                                                                     01418 A000000000000 0000000000000.98     01700 01000                  
02400240674840052DT67590675900000009951800101800000010180010124001193088900011300025032920230000000269908823000000000026934459954XXXXXX9078       VS11    0001111   NYV1 A E583088587304059N840000000002699PDXF00    05DNPLANET VAPOR INC #600    H14631    VD84000000002699 N  599977384956                            000000000+                F DF 10433                     000000000  Y000000000 338   0000000000000.00 0000000.00   0000000.00                             000000000000000                                                                                                                                                     01418 A000000000000 0000000000000.23     00050 02200                  
02400250674840053DT67590675900000009951800101800000010180010124001193088900011300033032920230000000242908823000000000026934449370XXXXXX5922       VS11    0001111   NYV1 A E383088629249827N840000000002429XGDW00    05DNPLANET VAPOR INC #600    411685    VD84000000002429 N  599977384956                            000000000+                F DF 00381                     000000000  N000000000       0000000000000.00 0000000.00   0000000.00                             000000000000000                                                                                                                                                     01418 A000000000000 0000000000000.34     00800 01500                  
02400260674840054DT67590675900000009951800101800000010180010124001193088900011300041032920230000000431908823000000000026934430612XXXXXX6871       VS11    0001111   NYV1 A E463088668603008N840000000004319M96F00    05DNPLANET VAPOR INC #600    043421    VD84000000004319 N  599977384956                            000000000+                F DF 00381                     000000000  N000000000       0000000000000.00 0000000.00   0000000.00                             000000000000000                                                                                                                                                     01418 A000000000000 0000000000000.50     00800 01500                  
02400270674840055DT67590675900000009951800101800000010180010124001193088900011300058032920230000000259008823000000000026934407624XXXXXX5808       VS11    0001111   NYV1 A E463088773838994N8400000000025906LHK00    07DNPLANET VAPOR INC #600    588109    VD84000000002590 N  599977384956                            000000000+                F DF 00381                     000000000  N000000000       0000000000000.00 0000000.00   0000000.00                             000000000000000                                                                                                                                                     01418 A000000000000 0000000000000.36     00800 01500                  
02400280674840056DT67590675900000009951800101800000010180010124001193088900011300066032920230000000215908823000000000026934458643XXXXXX5503       VS11    0001111   NYV1 A E383088781724487N840000000002159C76B00    05DNPLANET VAPOR INC #600    H66474    VD84000000002159 N  599977384956                            000000000+                F DF 10433                     000000000  Y000000000 338   0000000000000.00 0000000.00   0000000.00                             000000000000000                                                                                                                                                     01418 A000000000000 0000000000000.23     00050 02200                  
02400290674840057DT67590675900000009951800101800000010180010124001193088900011300074032920230000000269908823000000000026934448261XXXXXX1222       VS11    0001111   NYV1 A E383088792973403N8400000000026992V9700    07DNPLANET VAPOR INC #600    668495    VD84000000002699 N  599977384956                            000000000+                F DF 10433                     000000000  Y000000000 338   0000000000000.00 0000000.00   0000000.00                             000000000000000                                                                                                                                                     01418 A000000000000 0000000000000.23     00050 02200                  
02400300674840058DT67590675900000009951800101800000010180010177287283088900011300084032920230000000485808823000000000026934553781XXXXXX2038       MS02WI09          NY 1 0 AMDSAM9HQR0329  N840000000004858          05DNPLANET VAPOR INC #600    740307    MD84000000004858 N  599977384956                            000000000+M10101C5434C    MDS  00402                     000000000  N                0000000000000.00 0000000.00   0000000.00                             000000000000000                                                                                                                                                   B101418  000000000000 0000000000000.66     01050 01500                  
02400310674840059BH6759067590000000766680010180000090170329202308823000000000100736    0000090001120030N8001016759C03302023                                                                                                                                                                                                                                                                                                                                                                                                                                                                                                                                                                                                 
02400320674840060DT67590675900000007666800101800000010180010124001193088900011200019032920230000000057708823000000000100736420767XXXXXX7071       VK04VS111111111   NYV1 A E383088519456565N840000000000577R68H00    07DNPLANET VAPOR INC #300    052510    VD84000000000577 N  599977384654                            000000000+                F DF 10439                     000000000  Y000000000 331   0000000000000.00 0000000.00   0000000.00                             000000000000000                                                                                                                                                     01418 F000000000000 0000000000000.22     00050 02200                  
02400330674840061DT67590675900000007666800101800000010180010124001193088900011200027032920230000000427908823000000000100736473703XXXXXX6566       VS11    0001111   NYV1 A E463088531372238N840000000004279WMCR00    05DNPLANET VAPOR INC #300    006278    VD84000000004279 N  599977384654                            000000000+                F DF 10433                     000000000  Y000000000 338   0000000000000.00 0000000.00   0000000.00                             000000000000000                                                                                                                                                     01418 A000000000000 0000000000000.24     00050 02200                  
02400340674840062DT67590675900000007666800101800000010180010177287283088900011200037032920230000000215508823000000000100736559898XXXXXX9839       MS02WI09          NY 1 0 AMDJZWY5CH0329  N840000000002155          07DNPLANET VAPOR INC #300    150379    MD84000000002155 N  599977384654                            000000000+M10101M0034C    MDJ  10815                     000000000  1                0000000000000.00 0000000.00   0000000.00                             000000000000000                                                                                                                                                   A101418  000000000000 0000000000000.23     00050 02200                  
02400350674840063DT67590675900000007666800101800000010180010124001193088900011200043032920230000000641708823000000000100736410039XXXXXX3775       VS11    0001111   NYV1 A E383088546398190N840000000006417FG2900    07DNPLANET VAPOR INC #300    73919D    VS84000000006417 N  599977384654                            000000000+                D CD 12113                     000000000  N000000000 499   0000000000000.00 0000000.00   0000000.00                             000000000000000                                                                                                                                                     01418 A000000000000 0000000000001.45     02100 01000                  
02400360674840064DT67590675900000007666800101800000010180010124001193088900011200050032920230000000534808823000000000100736474474XXXXXX7800       VS11    0001111   NYV1 A E463088550896232N840000000005348V5D900    05DNPLANET VAPOR INC #300    171286    VD84000000005348 N  599977384654                            000000000+                F DF 10433                     000000000  Y000000000 338   0000000000000.00 0000000.00   0000000.00                             000000000000000                                                                                                                                                     01418 A000000000000 0000000000000.25     00050 02200                  
02400370674840065DT67590675900000007666800101800000010180010124001193088900011200068032920230000000744208823000000000100736455225XXXXXX3865       VS11    0001111   NYV1 A E463088557089574N8400000000074426JVZ00    05DNPLANET VAPOR INC #300    H10339    VD84000000007442 N  599977384654                            000000000+                F DF 10433                     000000000  Y000000000 338   0000000000000.00 0000000.00   0000000.00                             000000000000000                                                                                                                                                     01418 A000000000000 0000000000000.26     00050 02200                  
02400380674840066DT67590675900000007666800101800000010180010177287283088900011200078032920230000000374308823000000000100736515676XXXXXX0624       MS02WI09          NY 1 0 AMWEKT5X770329  N840000000003743          05DNPLANET VAPOR INC #300    05323Z    MC84000000003743 N  599977384654                            000000000+M10101C5434C    MWE  00739                     000000000  N                0000000000000.00 0000000.00   0000000.00                             000000000000000                                                                                                                                                   B101418  000000000000 0000000000000.96     02300 01000                  
02400390674840067DT67590675900000007666800101800000010180010124001193088900011200084032920230000000705908823000000000100736461675XXXXXX9810       VS11    0001111   NYV1 A E303088570398150N840000000007059767S00    05DNPLANET VAPOR INC #300    855310    VD84000000007059 N  599977384654                            000000000+                F DF 00381                     000000000  N000000000       0000000000000.00 0000000.00   0000000.00                             000000000000000                                                                                                                                                     01418 A000000000000 0000000000000.71     00800 01500                  
02400400674840068DT67590675900000007666800101800000010180010124001193088900011200092032920230000000074808823000000000100736406049XXXXXX0137       VK04VS111111111   NYV1 A E583088585061488N840000000000748F5DK00    05DNPLANET VAPOR INC #300    011506    VD84000000000748 N  599977384654                            000000000+                F DF 10439                     000000000  Y000000000 331   0000000000000.00 0000000.00   0000000.00                             000000000000000                                                                                                                                                     01418 F000000000000 0000000000000.22     00050 02200                  
02400410674840069DT67590675900000007666800101800000010180010124001193088900011200100032920230000000250308823000000000100736459954XXXXXX6726       VS11    0001111   NYV1 A E303088585838774N840000000002503FRQ600    07DNPLANET VAPOR INC #300    H14213    VD84000000002503 N  599977384654                            000000000+                F DF 10433                     000000000  Y000000000 338   0000000000000.00 0000000.00   0000000.00                             000000000000000                                                                                                                                                     01418 A000000000000 0000000000000.23     00050 02200                  
02400420674840070DT67590675900000007666800101800000010180010124001193088900011200118032920230000000235308823000000000100736438419XXXXXX0569       VS11    0001111   NYV1 A E463088586512080N840000000002353TP9V00    07DNPLANET VAPOR INC #300    021731    VD84000000002353 N  599977384654                            000000000+                F DF 00381                     000000000  N000000000       0000000000000.00 0000000.00   0000000.00                             000000000000000                                                                                                                                                     01418 A000000000000 0000000000000.34     00800 01500                  
02400430674840071DT67590675900000007666800101800000010180010124001193088900011200126032920230000000213908823000000000100736448233XXXXXX7405       VS11    0001111   NYV1 A E463088595404659N840000000002139HVL200    07DNPLANET VAPOR INC #300    013221    VD84000000002139 N  599977384654                            000000000+                F DF 10433                     000000000  Y000000000 338   0000000000000.00 0000000.00   0000000.00                             000000000000000                                                                                                                                                     01418 A000000000000 0000000000000.23     00050 02200                  
02400440674840072DT67590675900000007666800101800000010180010124001193088900011200134032920230000000267408823000000000100736406095XXXXXX4062       VS11    0001111   NYV1 A E383088607120157N840000000002674MZWG00    05DNPLANET VAPOR INC #300    04580B    VS84000000002674 N  599977384654                            000000000+                B CB 12111                     000000000  N000000000 495   0000000000000.00 0000000.00   0000000.00                             000000000000000                                                                                                                                                     01418 A000000000000 0000000000000.54     01650 01000                  
02400450674840073DT67590675900000007666800101800000010180010124001193088900011200142032920230000000269908823000000000100736406095XXXXXX8708       VS11    0001111   NYV1 A E583088655782981N840000000002699QQZM00    05DNPLANET VAPOR INC #300    07747B    VS84000000002699 N  599977384654                            000000000+                B CB 12111                     000000000  N000000000 495   0000000000000.00 0000000.00   0000000.00                             000000000000000                                                                                                                                                     01418 A000000000000 0000000000000.55     01650 01000                  
02400460674840074DT67590675900000007666800101800000010180010124001193088900011200159032920230000000348608823000000000100736438419XXXXXX1155       VS11    0001111   NYV1 A E383088662653381N840000000003486FJH400    05DNPLANET VAPOR INC #300    042425    VD84000000003486 N  599977384654                            000000000+                F DF 00381                     000000000  N000000000       0000000000000.00 0000000.00   0000000.00                             000000000000000                                                                                                                                                     01418 A000000000000 0000000000000.43     00800 01500                  
02400470674840075DT67590675900000007666800101800000010180010124001193088900011200167032920230000000782608823000000000100736423223XXXXXX2610       VS11    0001111   NYV1 A E583088674464768N840000000007826VF3L00    05DNPLANET VAPOR INC #300    003706    VD84000000007826 N  599977384654                            000000000+                F DF 00381                     000000000  N000000000       0000000000000.00 0000000.00   0000000.00                             000000000000000                                                                                                                                                     01418 A000000000000 0000000000000.78     00800 01500                  
02400480674840076DT67590675900000007666800101800000010180010124001193088900011200175032920230000000237508823000000000100736473702XXXXXX4035       VS11    0001111   NYV1 A E463088678381327N840000000002375VX9B00    05DNPLANET VAPOR INC #300    050924    VD84000000002375 N  599977384654                            000000000+                F DF 10433                     000000000  Y000000000 338   0000000000000.00 0000000.00   0000000.00                             000000000000000                                                                                                                                                     01418 A000000000000 0000000000000.23     00050 02200                  
02400490674840077DT67590675900000007666800101800000010180010124001193088900011200183032920230000000647908823000000000100736466189XXXXXX3170       VS11    0001111   NYV1 A E463088691247204N8400000000064797KQ600    07DNPLANET VAPOR INC #300    037013    VD84000000006479 N  599977384654                            000000000+                F DF 10433                     000000000  Y000000000 338   0000000000000.00 0000000.00   0000000.00                             000000000000000                                                                                                                                                     01418 A000000000000 0000000000000.25     00050 02200                  
02400500674840078DT67590675900000007666800101800000010180010177287283088900011200193032920230000000323808823000000000100736542418XXXXXX3620       MS02WI09          NY 1 0 AMWEO8W9OH0329  N840000000003238          07DNPLANET VAPOR INC #300    72914P    MC84000000003238 N  599977384654                            000000000+M10101M0034C    MWE  00739                     000000000  N                0000000000000.00 0000000.00   0000000.00                             000000000000000                                                                                                                                                   B101418  000000000000 0000000000000.84     02300 01000                  
02400510674840079DT67590675900000007666800101800000010180010177287283088900011200201032920230000000237508823000000000100736527515XXXXXX4538       MS02WI09          NY 1 0 AMDJPFJ5OH0329  N840000000002375          07DNPLANET VAPOR INC #300    155139    MD84000000002375 N  599977384654                            000000000+M10101M0034C    MDJ  10815                     000000000  1                0000000000000.00 0000000.00   0000000.00                             000000000000000                                                                                                                                                   B101418  000000000000 0000000000000.23     00050 02200                  
02400520674840080DT67590675900000007666800101800000010180010124001193088900011200217032920230000000032108823000000000100736465992XXXXXX0654       VK04VS111111111   NYV1 A E303088724970147N840000000000321BNC800    07DNPLANET VAPOR INC #300    265597    VD84000000000321 N  599977384654                            000000000+                F DF 00451                     000000000  N000000000 214   0000000000000.00 0000000.00   0000000.00                             000000000000000                                                                                                                                                     01418 F000000000000 0000000000000.09     01550 00400                  
02400530674840081DT67590675900000007666800101800000010180010173011003088900011200221032920230000000262708823000000000100736376774XXXXX4009                          NY 1 0 N007404866720060N840000000002627          05DNPLANET VAPOR #300        866611    AM84000000002627 N  599977384654                            000000000+51010155434C 258     11261                     000000000                   0000000000000.00 0000000.00   0000000.00                             000000000000000 61248972086759675900000007666 PLANET VAPOR #300        300 HUGER ST STE A       8035462263      29201     KEVIN@MOOREDISTRO.COM                     01418  000000000000 0000000000000.52     01600 00000                  
02400540674840082DT67590675900000007666800101800000010180010124001193088900011200233032920230000000453408823000000000100736423223XXXXXX5865       VS11    0001111   NYV1 A E583088743820641N840000000004534BBN900    05DNPLANET VAPOR INC #300    013960    VD84000000004534 N  599977384654                            000000000+                F DF 00381                     000000000  N000000000       0000000000000.00 0000000.00   0000000.00                             000000000000000                                                                                                                                                     01418 A000000000000 0000000000000.51     00800 01500                  
02400550674840083DT67590675900000007666800101800000010180010176509753088900011200249032920230000000477308823000000000100736653949XXXXXX4635   BA82                  NY41 0 N813075790931494N840000000004773    00    07DNPLANET VAPOR INC #300    02920R    DS84000000004773 N  599977384654830                         000000000+0000004910H00   DCCDI01000166573  171813000000 000000000  0          112   0000000000000.00 0000000.00   0000000.00                             000000000000000                                                                                                                                                     01418  000000000000 0000000000000.92     01720 01000                  
02400560674840084DT67590675900000007666800101800000010180010177287283088900011200250032920230000000215908823000000000100736531257XXXXXX9326       MS02WI09          NY 1 0 AMDJQRTFF30329  N840000000002159          05DNPLANET VAPOR INC #300    152550    MD84000000002159 N  599977384654                            000000000+M10101C5434C    MDJ  10815                     000000000  1                0000000000000.00 0000000.00   0000000.00                             000000000000000                                                                                                                                                   B101418  000000000000 0000000000000.23     00050 02200                  
02400570674840085DT67590675900000007666800101800000010180010177287283088900011200268032920230000000213708823000000000100736531258XXXXXX0739       MS02WI09          NY 1 0 AMDJSF14F30329  N840000000002137          05DNPLANET VAPOR INC #300    163419    MD84000000002137 N  599977384654                            000000000+M10101C5434C    MDJ  10815                     000000000  1                0000000000000.00 0000000.00   0000000.00                             000000000000000                                                                                                                                                   B101418  000000000000 0000000000000.23     00050 02200                  
02400580674840086DT67590675900000007666800101800000010180010124001193088900011200274032920230000000302208823000000000100736461675XXXXXX1413       VS11    0001111   NYV1 A E303088834583700N840000000003022VSWG00    05DNPLANET VAPOR INC #300    132960    VD84000000003022 N  599977384654                            000000000+                F DF 00381                     000000000  N000000000       0000000000000.00 0000000.00   0000000.00                             000000000000000                                                                                                                                                     01418 A000000000000 0000000000000.39     00800 01500                  
02400590674840087DT67590675900000007666800101800000010180010124001193088900011200282032920230000000184608823000000000100736453506XXXXXX5131       VS11    0001111   NYV1 A E463088851911933N840000000001846F8CK00    07DNPLANET VAPOR INC #300    H85844    VD84000000001846 N  599977384654                            000000000+                F DF 10433                     000000000  Y000000000 338   0000000000000.00 0000000.00   0000000.00                             000000000000000                                                                                                                                                     01418 A000000000000 0000000000000.23     00050 02200                  
02400600674840088DT67590675900000007666800101800000010180010124001193088900011200290032920230000000087408823000000000100736420767XXXXXX7071       VK04VS111111111   NYV1 A E463088857058229N840000000000874ZS5400    05DNPLANET VAPOR INC #300    054819    VD84000000000874 N  599977384654                            000000000+                F DF 10439                     000000000  Y000000000 331   0000000000000.00 0000000.00   0000000.00                             000000000000000                                                                                                                                                     01418 F000000000000 0000000000000.22     00050 02200                  
02400610674840089DT67590675900000007666800101800000010180010177287283088900011200300032920230000000252808823000000000100736545443XXXXXX7336       MS02WI09          NY 1 0 AMDJNI01F30329  N840000000002528          05DNPLANET VAPOR INC #300    038474    MD84000000002528 N  599977384654                            000000000+M10101C5434C    MDJ  00402                     000000000  N                0000000000000.00 0000000.00   0000000.00                             000000000000000                                                                                                                                                   B101418  000000000000 0000000000000.42     01050 01500                  
02400620674840090BH6759067590000001107280010180000090170329202308823000000000015510    0000090001130004N8001016759C03302023                                                                                                                                                                                                                                                                                                                                                                                                                                                                                                                                                                                                 
02400630674840091DT67590675900000011072800101800000010180010124001193088900011300017032920230000000213908823000000000015510491521XXXXXX4220       VS11    0001111   NYV1 A E463088646762879N840000000002139QVKK00    07DNPLANET VAPOR INC #1000   421957    VD84000000002139 N  599977385027                            000000000+                F DF 10433                     000000000  Y000000000 338   0000000000000.00 0000000.00   0000000.00                             000000000000000                                                                                                                                                     01418 A000000000000 0000000000000.23     00050 02200                  
02400640674840092DT67590675900000011072800101800000010180010124001193088900011300025032920230000000534908823000000000015510440393XXXXXX3046       VS11    0001111   NYV1 A E583088667803473N840000000005349QLG300    05DNPLANET VAPOR INC #1000   804389    VD84000000005349 N  599977385027                            000000000+                F PF 08170                     000000000  N000000000       0000000000000.00 0000000.00   0000000.00                             000000000000000                                                                                                                                                     01418 A000000000000 0000000000000.77     01150 01500                  
02400650674840093DT67590675900000011072800101800000010180010124001193088900011300033032920230000000267408823000000000015510437307XXXXXX6686       VS11    0001111   NYV1 A E303088674224479N8400000000026747G7Z00    05DNPLANET VAPOR INC #1000   749921    VD84000000002674 N  599977385027                            000000000+                F PF 08170                     000000000  N000000000       0000000000000.00 0000000.00   0000000.00                             000000000000000                                                                                                                                                     01418 A000000000000 0000000000000.46     01150 01500                  
02400660674840094DT67590675900000011072800101800000010180010124001193088900011300041032920230000000534808823000000000015510442793XXXXXX3546       VS11    0001111   NYV1 A E583088813476535N8400000000053484VFK00    05DNPLANET VAPOR INC #1000   861685    VD84000000005348 N  599977385027                            000000000+                F DF 10433                     000000000  Y000000000 338   0000000000000.00 0000000.00   0000000.00                             000000000000000                                                                                                                                                     01418 A000000000000 0000000000000.25     00050 02200                  
02400670674840095BH6759067590000001090080010180000090170329202308823000000000145649    0000090001140025N8001016759C03302023                                                                                                                                                                                                                                                                                                                                                                                                                                                                                                                                                                                                 
02400680674840096DT67590675900000010900800101800000010180010124001193088900011400015032920230000000349408823000000000145649438419XXXXXX8503       VS11    0001111   NYV1 A E383088552443700N840000000003494J4BM00    05DNPLANET VAPOR INC #700    012044    VD84000000003494 N  599977384978                            000000000+                F DF 00381                     000000000  N000000000       0000000000000.00 0000000.00   0000000.00                             000000000000000                                                                                                                                                     01418 A000000000000 0000000000000.43     00800 01500                  
02400690674840097DT67590675900000010900800101800000010180010124001193088900011400023032920230000000269908823000000000145649458643XXXXXX2767       VS11    0001111   NYV1 A E463088562988858N840000000002699TPBH00    05DNPLANET VAPOR INC #700    H06593    VD84000000002699 N  599977384978                            000000000+                F DF 10433                     000000000  Y000000000 338   0000000000000.00 0000000.00   0000000.00                             000000000000000                                                                                                                                                     01418 A000000000000 0000000000000.23     00050 02200                  
02400700674840098DT67590675900000010900800101800000010180010124001193088900011400031032920230000000323808823000000000145649438419XXXXXX1797       VS11    0001111   NYV1 A E303088566116506N840000000003238BMD200    05DNPLANET VAPOR INC #700    014331    VD84000000003238 N  599977384978                            000000000+                F DF 00381                     000000000  N000000000       0000000000000.00 0000000.00   0000000.00                             000000000000000                                                                                                                                                     01418 A000000000000 0000000000000.41     00800 01500                  
02400710674840099DT67590675900000010900800101800000010180010177287283088900011400041032920230000000237508823000000000145649531258XXXXXX4259       MS02WI09          NY 1 0 AMDJWBEPCF0329  N840000000002375          05DNPLANET VAPOR INC #700    150759    MD84000000002375 N  599977384978                            000000000+M10101C5434C    MDJ  10815                     000000000  1                0000000000000.00 0000000.00   0000000.00                             000000000000000                                                                                                                                                   B101418  000000000000 0000000000000.23     00050 02200                  
02400720674840100DT67590675900000010900800101800000010180010124001193088900011400056032920230000000161908823000000000145649479213XXXXXX7298       VS11    0001111   NYV1 A E463088622046067N840000000001619X9BS00    05DNPLANET VAPOR INC #700    021645    VD84000000001619 N  599977384978                            000000000+                F DF 10433                     000000000  Y000000000 338   0000000000000.00 0000000.00   0000000.00                             000000000000000                                                                                                                                                     01418 A000000000000 0000000000000.23     00050 02200                  
02400730674840101DT67590675900000010900800101800000010180010124001193088900011400064032920230000000950008823000000000145649473703XXXXXX0879       VS11    0001111   NYV1 A E463088627583273N8400000000095008VGL00    05DNPLANET VAPOR INC #700    085590    VD84000000009500 N  599977384978                            000000000+                F DF 10433                     000000000  Y000000000 338   0000000000000.00 0000000.00   0000000.00                             000000000000000                                                                                                                                                     01418 A000000000000 0000000000000.27     00050 02200                  
02400740674840102DT67590675900000010900800101800000010180010124001193088900011400072032920230000000188908823000000000145649473703XXXXXX2321       VS11    0001111   NYV1 A E303088655826353N840000000001889BP2T00    05DNPLANET VAPOR INC #700    082012    VD84000000001889 N  599977384978                            000000000+                F DF 10433                     000000000  Y000000000 338   0000000000000.00 0000000.00   0000000.00                             000000000000000                                                                                                                                                     01418 A000000000000 0000000000000.23     00050 02200                  
02400750674840103DT67590675900000010900800101800000010180010124001193088900011400080032920230000002380608823000000000145649414718XXXXXX9385       VS11    0001111   NYV1 A E383088672864232N840000000023806ZTTP00    05DNPLANET VAPOR INC #700    029741    VS84000000023806 N  599977384978                            000000000+                D CD 12113                     000000000  N000000000 499   0000000000000.00 0000000.00   0000000.00                             000000000000000                                                                                                                                                     01418 A000000000000 0000000000005.10     02100 01000                  
02400760674840104DT67590675900000010900800101800000010180010124001193088900011400098032920230000001149808823000000000145649459954XXXXXX3649       VS11    0001111   NYV1 A E303088682879661N840000000011498L4R900    05DNPLANET VAPOR INC #700    H47390    VD84000000011498 N  599977384978                            000000000+                F DF 10433                     000000000  Y000000000 338   0000000000000.00 0000000.00   0000000.00                             000000000000000                                                                                                                                                     01418 A000000000000 0000000000000.28     00050 02200                  
02400770674840105DT67590675900000010900800101800000010180010124001193088900011400106032920230000000237508823000000000145649433477XXXXXX6931       VS11    0001111   NYV1 A E303088690650428N840000000002375ZQRQ00    05DNPLANET VAPOR INC #700    487847    VD84000000002375 N  599977384978                            000000000+                F DF 10433                     000000000  Y000000000 338   0000000000000.00 0000000.00   0000000.00                             000000000000000                                                                                                                                                     01418 A000000000000 0000000000000.23     00050 02200                  
02400780674840106DT67590675900000010900800101800000010180010124001193088900011400114032920230000000248308823000000000145649423908XXXXXX7739       VS11    0001111   NYV1 A E463088707784296N840000000002483M6PX00    05DNPLANET VAPOR INC #700    649055    VD84000000002483 N  599977384978                            000000000+                F DF 10433                     000000000  Y000000000 338   0000000000000.00 0000000.00   0000000.00                             000000000000000                                                                                                                                                     01418 A000000000000 0000000000000.23     00050 02200                  
02400790674840107DT67590675900000010900800101800000010180010124001193088900011400122032920230000000583108823000000000145649410702XXXXXX7260       VS11    0001111   NYV1 A E463088718492627N8400000000058313QK600    05DNPLANET VAPOR INC #700    146709    VD84000000005831 N  599977384978                            000000000+                F DF 00381                     000000000  N000000000       0000000000000.00 0000000.00   0000000.00                             000000000000000                                                                                                                                                     01418 A000000000000 0000000000000.62     00800 01500                  
02400800674840108DT67590675900000010900800101800000010180010124001193088900011400130032920230000000233108823000000000145649438419XXXXXX4187       VS11    0001111   NYV1 A E583088720789837N840000000002331XD9900    05DNPLANET VAPOR INC #700    060119    VD84000000002331 N  599977384978                            000000000+                F DF 00381                     000000000  N000000000       0000000000000.00 0000000.00   0000000.00                             000000000000000                                                                                                                                                     01418 A000000000000 0000000000000.34     00800 01500                  
02400810674840109DT67590675900000010900800101800000010180010177287283088900011400140032920230000000753608823000000000145649517805XXXXXX5235       MS02WI09          NY 1 0 AMPLPULMOH0329  N840000000007536          05DNPLANET VAPOR INC #700    07889B    MC84000000007536 N  599977384978                            000000000+M10101C5434C    MPL  00353                     000000000  N                0000000000000.00 0000000.00   0000000.00                             000000000000000                                                                                                                                                   B101418  000000000000 0000000000001.46     01800 01000                  
02400820674840110DT67590675900000010900800101800000010180010124001193088900011400155032920230000000151008823000000000145649400022XXXXXX1158       VS11    0001111   NYV1 A E463088743300914N840000000001510398Q00    05DNPLANET VAPOR INC #700    012150    VD84000000001510 N  599977384978                            000000000+                F DF 10433                     000000000  Y000000000 338   0000000000000.00 0000000.00   0000000.00                             000000000000000                                                                                                                                                     01418 A000000000000 0000000000000.23     00050 02200                  
02400830674840111DT67590675900000010900800101800000010180010124001193088900011400163032920230000000280708823000000000145649408540XXXXXX3978       VS11    0001111   NYV1 A E303088746419297N840000000002807XVJM00    05DNPLANET VAPOR INC #700    054401    VD84000000002807 N  599977384978                            000000000+                G DG 10351                     000000000  Y000000000 338   0000000000000.00 0000000.00   0000000.00                             000000000000000                                                                                                                                                     01418 A000000000000 0000000000000.23     00050 02200                  
02400840674840112DT67590675900000010900800101800000010180010124001193088900011400171032920230000000431808823000000000145649438419XXXXXX0777       VS11    0001111   NYV1 A E583088748438522N840000000004318QHJL00    05DNPLANET VAPOR INC #700    064723    VD84000000004318 N  599977384978                            000000000+                F DF 00381                     000000000  N000000000       0000000000000.00 0000000.00   0000000.00                             000000000000000                                                                                                                                                     01418 A000000000000 0000000000000.50     00800 01500                  
02400850674840113DT67590675900000010900800101800000010180010124001193088900011400189032920230000000621808823000000000145649427082XXXXXX3148       VS11    0001111   NYV1 A E583088756926128N840000000006218CJQX00    05DNPLANET VAPOR INC #700    029266    VS84000000006218 N  599977384978                            000000000+                C CC 12112                     000000000  N000000000 497   0000000000000.00 0000000.00   0000000.00                             000000000000000                                                                                                                                                     01418 A000000000000 0000000000001.13     01650 01000                  
02400860674840114DT67590675900000010900800101800000010180010124001193088900011400197032920230000000237508823000000000145649440393XXXXXX2358       VS11    0001111   NYV1 A E583088760418529N8400000000023757KK500    05DNPLANET VAPOR INC #700    124345    VD84000000002375 N  599977384978                            000000000+                F PF 08170                     000000000  N000000000       0000000000000.00 0000000.00   0000000.00                             000000000000000                                                                                                                                                     01418 A000000000000 0000000000000.42     01150 01500                  
02400870674840115DT67590675900000010900800101800000010180010124001193088900011400205032920230000001562808823000000000145649427199XXXXXX8796       VS11    0001111   NYV1 A E463088766804102N8400000000156283FSM00    05DNPLANET VAPOR INC #700    777080    VD84000000015628 N  599977384978                            000000000+                F DF 00381                     000000000  N000000000       0000000000000.00 0000000.00   0000000.00                             000000000000000                                                                                                                                                     01418 A000000000000 0000000000001.40     00800 01500                  
02400880674840116DT67590675900000010900800101800000010180010124001193088900011400213032920230000000914808823000000000145649440393XXXXXX1277       VS11    0001111   NYV1 A E463088776656165N840000000009148SP5P00    05DNPLANET VAPOR INC #700    484443    VD84000000009148 N  599977384978                            000000000+                F PF 08170                     000000000  N000000000       0000000000000.00 0000000.00   0000000.00                             000000000000000                                                                                                                                                     01418 A000000000000 0000000000001.20     01150 01500                  
02400890674840117DT67590675900000010900800101800000010180010124001193088900011400221032920230000000326408823000000000145649435640XXXXXX5349       VS11    0001111   NYV1 A E383088782514673N840000000003264M7Q800    05DNPLANET VAPOR INC #700    154846    VD84000000003264 N  599977384978                            000000000+                F DF 10433                     000000000  Y000000000 338   0000000000000.00 0000000.00   0000000.00                             000000000000000                                                                                                                                                     01418 A000000000000 0000000000000.24     00050 02200                  
02400900674840118DT67590675900000010900800101800000010180010124001193088900011400239032920230000000456608823000000000145649433477XXXXXX0360       VS11    0001111   NYV1 A E463088806948801N840000000004566S5PX00    05DNPLANET VAPOR INC #700    670739    VD84000000004566 N  599977384978                            000000000+                F DF 10433                     000000000  Y000000000 338   0000000000000.00 0000000.00   0000000.00                             000000000000000                                                                                                                                                     01418 A000000000000 0000000000000.24     00050 02200                  
02400910674840119DT67590675900000010900800101800000010180010124001193088900011400247032920230000001055208823000000000145649435273XXXXXX8319       VS11    0001111   NYV1 A E383088850711466N8400000000105525P2700    05DNPLANET VAPOR INC #700    173071    VD84000000010552 N  599977384978                            000000000+                F DF 10433                     000000000  Y000000000 338   0000000000000.00 0000000.00   0000000.00                             000000000000000                                                                                                                                                     01418 A000000000000 0000000000000.27     00050 02200                  
02400920674840120DT67590675900000010900800101800000010180010124001193088900011400254032920230000000458908823000000000145649423223XXXXXX6702       VS11    0001111   NYV1 A E583089005702460N840000000004589LVDJ00    05DNPLANET VAPOR INC #700    037505    VD84000000004589 N  599977384978                            000000000+                F DF 00381                     000000000  N000000000       0000000000000.00 0000000.00   0000000.00                             000000000000000                                                                                                                                                     01418 A000000000000 0000000000000.52     00800 01500                  
