00002980365870002BH6759067590000001857280010580000090170417202310723000000000033281    0000090001400010N8001056759C04172023                                                                                                                                                                                                                                                                                                                                                                                                                                                                                                                                                                                                 
00002990365870003DT67590675900000018572800105800000010180010524001193107900014000017041620230000000215010723000000000033281444796XXXXXX8819       VS11    0001111   NYV1 A E383106566450007N84000000000215094C800    05DNGALLERY SMOKE SHOP LLC   016680    VS84000000002150 N  599977453598                            000000000+                A CA 12110                     000000000  N000000000 493   0000000000000.00 0000000.00   0000000.00                             000000000000000                                                                                                                                                     01424 A000000000000 0000000000000.42     01510 01000                  
00003000365870004DT67590675900000018572800105800000010180010524001193107900014000041041620230000000215010723000000000033281444796XXXXXX8819       VS11    0001111   NYV1 A E463106711750474N840000000002150QFTK00    05DNGALLERY SMOKE SHOP LLC   016966    VS84000000002150 N  599977453598                            000000000+                A CA 12110                     000000000  N000000000 493   0000000000000.00 0000000.00   0000000.00                             000000000000000                                                                                                                                                     01424 A000000000000 0000000000000.42     01510 01000                  
00003010365870005DT67590675900000018572800105800000010180010577287283107900014000076041620230000001293910723000000000033281517805XXXXXX1392       MS02WI09          NY 1 0 AMWEBLUWXZ0416  N840000000012939          05DNGALLERY SMOKE SHOP LLC   08672P    MC84000000012939 N  599977453598                            000000000+M10101C5434C    MWE  00739                     000000000  N                0000000000000.00 0000000.00   0000000.00                             000000000000000                                                                                                                                                   B101424  000000000000 0000000000003.08     02300 01000                  
00003020365870006DT67590675900000018572800105800000033080010576759003107900014000020041620230000000113710723000000000033281440393XXXXXX1572                         NY 2 0 N               N840000000001137      IL  05DNGALLERY SMOKE SHOP LLC   669705    DB84000000001137 N  599977453598                            000000000+                     09576                                N          346   0000000000000.00 0000000.00   0000000.00                             000000000000000                                                                                                                                                     01424  000000000000 0000000000000.28     01150 00000                  
00003030365870007DT67590675900000018572800105800000033080010576759003107900014000038041620230000000404310723000000000033281472815XXXXXX5066                         NY 2 0 N               N840000000004043      IL  07DNGALLERY SMOKE SHOP LLC   054213    DB84000000004043 N  599977453598                            000000000+                     09580                                Y          342   0000000000000.00 0000000.00   0000000.00                             000000000000000                                                                                                                                                     01424  000000000000 0000000000000.24     00050 00000                  
00003040365870008DT67590675900000018572800105800000033080010576759003107900014000053041620230000000363710723000000000033281443512XXXXXX0512                         NY 2 0 N               N840000000003637      IL  05DNGALLERY SMOKE SHOP LLC   350054    DB84000000003637 N  599977453598                            000000000+                     09590                                N          279   0000000000000.00 0000000.00   0000000.00                             000000000000000                                                                                                                                                     01424  000000000000 0000000000000.44     00800 00000                  
00003050365870009DT67590675900000018572800105800000033080010576759003107900014000061041620230000000256710723000000000033281531260XXXXXX9855                         NY42 0 N               N840000000002567      ME  05DNGALLERY SMOKE SHOP LLC   161538    DB84000000002567 N  599977453598                            000000000+                     09601                                1          MA1   0000000000000.00 0000000.00   0000000.00                             000000000000000                                                                                                                                                     01424  000000000000 0000000000000.23     00050 00000                  
00003060365870010DT67590675900000018572800105800000033080010576759003107900014000087041620230000000008010723000000000033281443041XXXXXX7318                         NY 2 0 N               N840000000000080      IL  05DNGALLERY SMOKE SHOP LLC   795287    DB84000000000080 N  599977453598                            000000000+                     09580                                Y          342   0000000000000.00 0000000.00   0000000.00                             000000000000000                                                                                                                                                     01424  000000000000 0000000000000.22     00050 00000                  
00003070365870011DT67590675900000018572800105800000033080010576759003107900014000095041620230000000404310723000000000033281448233XXXXXX9792                         NY 2 0 N               N840000000004043      IL  05DNGALLERY SMOKE SHOP LLC   085009    DB84000000004043 N  599977453598                            000000000+                     09584                                Y          273   0000000000000.00 0000000.00   0000000.00                             000000000000000                                                                                                                                                     01424  000000000000 0000000000000.24     00050 00000                  
00003080365870012DT67590675900000018572800105800000033080010576759003107900014000103041620230000000053510723000000000033281435546XXXXXX4091                         NY 2 0 N               N840000000000535      IL  05DNGALLERY SMOKE SHOP LLC   101100    DB84000000000535 N  599977453598                            000000000+                     09580                                Y          342   0000000000000.00 0000000.00   0000000.00                             000000000000000                                                                                                                                                     01424  000000000000 0000000000000.22     00050 00000                  
00003090365870013BH6759067590000001165080088880000090170417202310723000000000110601    0000090001650019N8008886759C04172023                                                                                                                                                                                                                                                                                                                                                                                                                                                                                                                                                                                                 
00003100365870014DT67590675900000011650800888800000010180088877287283107900016500016041520230000000113110723000000000110601527520XXXXXX8308       MS02WI09          NY 1 0 AMDJQFDBF90415  N840000000001131          05DNVPODS HOLDING INC        104661    MD84000000001131 N  599977032122                            000000000+M10101C5434C    MDJ  10815                     000000000  1                0000000000000.00 0000000.00   0000000.00                             000000000000000                                                                                                                                                   B101424  000000000000 0000000000000.23     00050 02200                  
00003110365870015DT67590675900000011650800888800000010180088877287283107900016500024041520230000000283010723000000000110601517805XXXXXX7726       MS02WI09          NY 1 0 AMWEEJDNFN0415  N840000000002830          07DNVPODS HOLDING INC        06731P    MC84000000002830 N  599977032122                            000000000+M10101M0034C    MWE  00739                     000000000  N                0000000000000.00 0000000.00   0000000.00                             000000000000000                                                                                                                                                   B101424  000000000000 0000000000000.75     02300 01000                  
00003120365870016DT67590675900000011650800888800000010180088824001193107900016500030041620230000000792510723000000000110601489750XXXXXX4401       VS11    0001111   NYV1 A E463106594151675N840000000007925XLD400    07DNVPODS HOLDING INC        053012    VD84000000007925 N  599977032122                            000000000+                F DF 10433                     000000000  Y000000000 338   0000000000000.00 0000000.00   0000000.00                             000000000000000                                                                                                                                                     01424 A000000000000 0000000000000.26     00050 02200                  
00003130365870017DT67590675900000011650800888800000010180088877287283107900016500040041620230000001075910723000000000110601512230XXXXXX0137       MS02WI09          NY 1 0 AMWET4XCUP0416  N840000000010759          05DNVPODS HOLDING INC        40232Z    MC84000000010759 N  599977032122                            000000000+M10101C0034C    MWE  00739                     000000000  N                0000000000000.00 0000000.00   0000000.00                             000000000000000                                                                                                                                                   B101424  000000000000 0000000000002.57     02300 01000                  
00003140365870018DT67590675900000011650800888800000010180088877287283107900016500057041620230000000906010723000000000110601552433XXXXXX1251       MS02WI09          NY 1 0 AMPLT5HYUP0416  N840000000009060          07DNVPODS HOLDING INC        01768M    MC84000000009060 N  599977032122                            000000000+M10101M5434C    MPL  00353                     000000000  N                0000000000000.00 0000000.00   0000000.00                             000000000000000                                                                                                                                                   B101424  000000000000 0000000000001.73     01800 01000                  
00003150365870019DT67590675900000011650800888800000010180088824001193107900016500063041620230000000305710723000000000110601473395XXXXXX2474       VS11    0001111   NYV1 A E583106634487694N840000000003057VPKS00    05DNVPODS HOLDING INC        368496    VD84000000003057 N  599977032122                            000000000+                F DF 00381                     000000000  N000000000       0000000000000.00 0000000.00   0000000.00                             000000000000000                                                                                                                                                     01424 A000000000000 0000000000000.39     00800 01500                  
00003160365870020DT67590675900000011650800888800000010180088877287283107900016500073041620230000000513410723000000000110601542432XXXXXX0360       MS02WI09          NY 2 0 AMDJDWYQM60416  N840000000005134          05DNVPODS HOLDING INC        352183    MD84000000005134 N  599977032122                            000000000+M10101C1334C    MDJ  10815                     000000000  1                0000000000000.00 0000000.00   0000000.00                             000000000000000                                                                                                                                                   B101424  000000000000 0000000000000.25     00050 02200                  
00003170365870021DT67590675900000011650800888800000010180088877287283107900016500081041620230000000619110723000000000110601542432XXXXXX0360       MS02WI09          NY 2 0 AMDJVH84UP0416  N840000000006191          05DNVPODS HOLDING INC        354328    MD84000000006191 N  599977032122                            000000000+M10101C1334C    MDJ  10815                     000000000  1                0000000000000.00 0000000.00   0000000.00                             000000000000000                                                                                                                                                   B101424  000000000000 0000000000000.25     00050 02200                  
00003180365870022DT67590675900000011650800888800000010180088873011003107900016500093041620230000002718010723000000000110601371243XXXXX5017                          NY 1 0 N007730697901069N840000000027180          05DNVPODS HOLDINGS INC       819162    AM84000000027180 N  599977032122                            000000000+51010155434C 258     11262                     000000000                   0000000000000.00 0000000.00   0000000.00                             000000000000000 61248972086759675900000011650 VPODS HOLDINGS INC       2527 N LINCOLN AVE       7732092463      60614     SMOKEDREAMS2@ICLOUD.COM                   01424  000000000000 0000000000005.40     01950 00000                  
00003190365870023DT67590675900000011650800888800000010180088824001193107900016500105041620230000000226410723000000000110601421783XXXXXX8818       VS11    0001111   NYV1 A E303106676142585N840000000002264LB6N00    05DNVPODS HOLDING INC        015660    VS84000000002264 N  599977032122                            000000000+                A CA 12110                     000000000  N000000000 493   0000000000000.00 0000000.00   0000000.00                             000000000000000                                                                                                                                                     01424 A000000000000 0000000000000.44     01510 01000                  
00003200365870024DT67590675900000011650800888800000010180088824001193107900016500113041620230000000679410723000000000110601414709XXXXXX1418       VS11    0001111   NYV1 A E583106704351635N840000000006794PRR600    05DNVPODS HOLDING INC        00673D    VS84000000006794 N  599977032122                            000000000+                D CD 12113                     000000000  N000000000 499   0000000000000.00 0000000.00   0000000.00                             000000000000000                                                                                                                                                     01424 A000000000000 0000000000001.53     02100 01000                  
00003210365870025DT67590675900000011650800888800000010180088824001193107900016500121041620230000000339810723000000000110601482915XXXXXX8273       VS11    0001111   NYV1 A E583106709426945N840000000003398QKNX00    07DNVPODS HOLDING INC        034215    VD84000000003398 N  599977032122                            000000000+                F DF 10433                     000000000  Y000000000 338   0000000000000.00 0000000.00   0000000.00                             000000000000000                                                                                                                                                     01424 A000000000000 0000000000000.24     00050 02200                  
00003220365870026DT67590675900000011650800888800000010180088824001193107900016500139041620230000000283010723000000000110601483313XXXXXX8401       VS11    0001111   NYV1 A E463106710043176N840000000002830BXK300    07DNVPODS HOLDING INC        054315    VD84000000002830 N  599977032122                            000000000+                F DF 10433                     000000000  Y000000000 338   0000000000000.00 0000000.00   0000000.00                             000000000000000                                                                                                                                                     01424 A000000000000 0000000000000.23     00050 02200                  
00003230365870027DT67590675900000011650800888800000010180088824001193107900016500147041620230000000283010723000000000110601434256XXXXXX7009       VS11    0001111   NYV1 A E463106710833361N840000000002830792800    05DNVPODS HOLDING INC        034386    VD84000000002830 N  599977032122                            000000000+                F DF 10433                     000000000  Y000000000 338   0000000000000.00 0000000.00   0000000.00                             000000000000000                                                                                                                                                     01424 A000000000000 0000000000000.23     00050 02200                  
00003240365870028DT67590675900000011650800888800000010180088824001193107900016500154041620230000000339810723000000000110601465098XXXXXX8973       VS11    0001111   NYV1 A E583106712184273N840000000003398X5BV00    07DNVPODS HOLDING INC        024446    VD84000000003398 N  599977032122                            000000000+                F DF 10433                     000000000  Y000000000 338   0000000000000.00 0000000.00   0000000.00                             000000000000000                                                                                                                                                     01424 A000000000000 0000000000000.24     00050 02200                  
00003250365870029DT67590675900000011650800888800000010180088824001193107900016500162041620230000000452910723000000000110601426684XXXXXX7899       VS11    0001111   NYV1 A E383106748571184N840000000004529936M00    07DNVPODS HOLDING INC        02141C    VS84000000004529 N  599977032122                            000000000+                C CC 12112                     000000000  N000000000 497   0000000000000.00 0000000.00   0000000.00                             000000000000000                                                                                                                                                     01424 A000000000000 0000000000000.85     01650 01000                  
00003260365870030DT67590675900000011650800888800000010180088824001193107900016500170041620230000000566210723000000000110601426684XXXXXX3513       VS11    0001111   NYV1 A E583106853995133N8400000000056626Q2W00    07DNVPODS HOLDING INC        09584B    VS84000000005662 N  599977032122                            000000000+                B CB 12111                     000000000  N000000000 495   0000000000000.00 0000000.00   0000000.00                             000000000000000                                                                                                                                                     01424 A000000000000 0000000000001.03     01650 01000                  
00003270365870031DT67590675900000011650800888800000010180088876509753107900016500186041620230000000279910723000000000110601653949XXXXXX9980   BA80                  NY 1 0 N803091449120219N840000000002799    00    07DNVPODS HOLDING INC        01658R    DS84000000002799 N  599977032122830                         000000000+0000004910H00   DCCDI01000001097  191512000000 000000000  0          112   0000000000000.00 0000000.00   0000000.00                             000000000000000                                                                                                                                                     01424  000000000000 0000000000000.58     01720 01000                  
00003280365870032DT67590675900000011650800888800000010180088824001193107900016500196041620230000000283010723000000000110601486796XXXXXX2497       VS11    0001111   NYV1 A E383107079671530N840000000002830BVPZ00    07DNVPODS HOLDING INC        071222    VD84000000002830 N  599977032122                            000000000+                F DF 10433                     000000000  Y000000000 338   0000000000000.00 0000000.00   0000000.00                             000000000000000                                                                                                                                                     01424 A000000000000 0000000000000.23     00050 02200                  
