00004770131010002BH6759067590000000370780088880000090170105202300523000000000136390    0000090001080044Y8008886759C01062023                                                                                                                                                                                                                                                                                                                                                                                                                                                                                                                                                                                                 
00004780131010003DT67590675900000003707800888800000010180088824001193005900010800363010520230000000364300523000000000136390400022XXXXXX4257               2111111   NYV4 A7W463005331080001N84000000000364323DV00    01DNMR HEMP FLOWER           749635    VD84000000003643 NP1549976053336   83798                    000000000+                F DF 10420                     000000000  Y000000000 338   0000000000000.00 0000000.00   0000000.00                             000000000000000                                                                                                                                                     01424 G000000003643 0000000000000.24     00050 02200                  
00004790131010001P16759067590000000370780088880000001010000000000000000                             2000000000000000000000000              000000000000                    0000000000000000000000000                    000000000000                                                                                                                                                                                                                                                                                                                                                                                                                                                                                        
00004800131010004DT67590675900000003707800888800000010180088887287283005900010800372010520230000000349900523000000000136390517279XXXXXX1094       ME03KE06MS02      NY 4607AMDJUER0FF0105  N840000000003499          81DNMR HEMP FLOWER           043808    MD84000000003499 N  549976053336   83799                    000000000+600450S00130    MDJ  00401                     000000000  N                0000000000000.00 0000000.00   0000000.00                             000000000000000                                                                                                                                                   U001424  000000000000 0000000000000.73     01650 01500                  
00004810131010005DT67590675900000003707800888800000010180088887287283005900010800380010520230000007400000523000000000136390518941XXXXXX8668       ME03KE06MS02      NY 4607AMWEVS586T0105  N840000000074000          81DNMR HEMP FLOWER           22356Z    MC84000000074000 N  549976053336   83811                    000000000+600450S00130    MWE  00737                     000000000  N                0000000000000.00 0000000.00   0000000.00                             000000000000000                                                                                                                                                   U001424  000000000000 0000000000019.34     02600 01000                  
00004820131010006DT67590675900000003707800888800000010180088824001193005900010800397010520230000000399800523000000000136390478340XXXXXX9537               2111111   NYV4 A7W583005656524568N8400000000039982G5H00    01DNMR HEMP FLOWER           735062    VD84000000003998 NP1549976053336   83812                    000000000+                F DF 00415                     000000000  N000000000       0000000000000.00 0000000.00   0000000.00                             000000000000000                                                                                                                                                     01424 G000000003998 0000000000000.81     01650 01500                  
00004830131010001P16759067590000000370780088880000001010000000000000000                             2000000000000000000000000              000000000000                    0000000000000000000000000                    000000000000                                                                                                                                                                                                                                                                                                                                                                                                                                                                                        
00004840131010007DT67590675900000003707800888800000010180088887287283005900010800422010520230000001550000523000000000136390536759XXXXXX3114       ME03KE06MS02      NY 4607AMDJWCAL6T0105  N840000000015500          81DNMR HEMP FLOWER           012615    MD84000000015500 N  549976053336   83815                    000000000+600450S00130    MDJ  10813                     000000000  1                0000000000000.00 0000000.00   0000000.00                             000000000000000                                                                                                                                                   U001424  000000000000 0000000000000.30     00050 02200                  
00004850131010008DT67590675900000003707800888800000010180088876509753005900010800437010520230000001640200523000000000136390601100XXXXXX3378   BA00                  NY 4 07N863004121768751N840000000016402    00    01DNMR HEMP FLOWER           00579R    DS84000000016402 N  549976053336070                         000000000+1015104910600   DCCDI11325002037  172936000000 000000000  0          460   0000000000000.00 0000000.00   0000000.00                             000000000000000                                                                                                                                                     01424  000000000000 0000000000003.43     02030 01000                  
00004860131010009DT67590675900000003707800888800000010180088824001193005900010800447010520230000001934800523000000000136390425828XXXXXX8219               2111111   NYV4 A7W583005853633280N840000000019348LDF300    01DNMR HEMP FLOWER           050131    VD84000000019348 NP1549976053336   83822                    000000000+                F DF 10420                     000000000  Y000000000 338   0000000000000.00 0000000.00   0000000.00                             000000000000000                                                                                                                                                     01424 G000000019348 0000000000000.32     00050 02200                  
00004870131010001P16759067590000000370780088880000001010000000000000000                             2000000000000000000000000              000000000000                    0000000000000000000000000                    000000000000                                                                                                                                                                                                                                                                                                                                                                                                                                                                                        
00004880131010010BH6759067590000000288180088880000090170105202300523000000000007999    0000090001350082Y8008886759C01062023                                                                                                                                                                                                                                                                                                                                                                                                                                                                                                                                                                                                 
00004890131010011DT67590675900000002881800888800000010180088824001193005900013500820010520230000000799900523000000000007999407870XXXXXX6170               2111111   NYV4 A7W383005769063627N84000000000799967WZ00    01DNHAPPY HIPPIE             005412    VS84000000007999 NP1549976044904   1900                     000000000+                C CC 12108                     000000000  N000000000 496   0000000000000.00 0000000.00   0000000.00                             000000000000000                                                                                                                                                     01424 G000000007999 0000000000001.74     02050 01000                  
00004900131010001P16759067590000000288180088880000001010000000000000000                             2000000000000000000000000              000000000000                    0000000000000000000000000                    000000000000                                                                                                                                                                                                                                                                                                                                                                                                                                                                                        
