02863040050550002BH6759067590000000288180088880000090170302202306123000000000077015    0000090001580017N8008886759C03032023                                                                                                                                                                                                                                                                                                                                                                                                                                                                                                                                                                                                 
02863050050550003DT67590675900000002881800888800000010180088824001193061900015800013030220230000000295006123000000000077015443264XXXXXX3780       VS11    0001111   NYV1 A E303061547571845N84000000000295028J300    07DNHAPPY HIPPIE             015555    VD84000000002950 N  549976487134                            000000000+                F DF 10433                     000000000  Y000000000 338   0000000000000.00 0000000.00   0000000.00                             000000000000000                                                                                                                                                     01418 A000000000000 0000000000000.23     00050 02200                  
02863060050550004DT67590675900000002881800888800000010180088824001193061900015800021030220230000000237106123000000000077015480639XXXXXX4015       VS11    0001111   NYV1 A E583061556866257N8400000000023712K8N00    05DNHAPPY HIPPIE             543424    VD84000000002371 N  549976487134                            000000000+                F DF 00381                     000000000  N000000000       0000000000000.00 0000000.00   0000000.00                             000000000000000                                                                                                                                                     01418 A000000000000 0000000000000.34     00800 01500                  
02863070050550005DT67590675900000002881800888800000010180088824001193061900015800039030220230000000347906123000000000077015433419XXXXXX4929       VS11    0001111   NYV1 A E463061564317071N840000000003479XMJG00    07DNHAPPY HIPPIE             938432    VS84000000003479 N  549976487134                            000000000+                A CA 12110                     000000000  N000000000 493   0000000000000.00 0000000.00   0000000.00                             000000000000000                                                                                                                                                     01418 A000000000000 0000000000000.63     01510 01000                  
02863080050550006DT67590675900000002881800888800000010180088824001193061900015800047030220230000000012406123000000000077015433419XXXXXX4929       VK04VS111111111   NYV1 A E463061565541293N840000000000124FPJ700    07DNHAPPY HIPPIE             378554    VS84000000000124 N  549976487134                            000000000+                A CA 12054                     000000000  N000000000 450   0000000000000.00 0000000.00   0000000.00                             000000000000000                                                                                                                                                     01418 F000000000000 0000000000000.04     00000 00400                  
02863090050550007DT67590675900000002881800888800000010180088824001193061900015800054030220230000000592506123000000000077015404227XXXXXX5817       VS11    0001111   NYV1 A E383061574371261N840000000005925ZSDH00    05DNHAPPY HIPPIE             818433    VD84000000005925 N  549976487134                            000000000+                F DF 00381                     000000000  N000000000       0000000000000.00 0000000.00   0000000.00                             000000000000000                                                                                                                                                     01418 A000000000000 0000000000000.62     00800 01500                  
02863100050550008DT67590675900000002881800888800000010180088824001193061900015800062030220230000000185806123000000000077015445101XXXXXX2081       VS11    0001111   NYV1 A E303061578133176N840000000001858TTJ200    05DNHAPPY HIPPIE             781197    VD84000000001858 N  549976487134                            000000000+                F DF 10433                     000000000  Y000000000 338   0000000000000.00 0000000.00   0000000.00                             000000000000000                                                                                                                                                     01418 A000000000000 0000000000000.23     00050 02200                  
02863110050550009DT67590675900000002881800888800000010180088824001193061900015800070030220230000000759206123000000000077015480639XXXXXX0039       VS11    0001111   NYV1 A E383061635579530N840000000007592RPJ700    05DNHAPPY HIPPIE             547211    VD84000000007592 N  549976487134                            000000000+                F DF 00381                     000000000  N000000000       0000000000000.00 0000000.00   0000000.00                             000000000000000                                                                                                                                                     01418 A000000000000 0000000000000.76     00800 01500                  
02863120050550010DT67590675900000002881800888800000010180088877287283061900015800080030220230000000553106123000000000077015515676XXXXXX9080       MS02WI09          NY 1 0 AMWEIBWNGX0302  N840000000005531          05DNHAPPY HIPPIE             01122Z    MC84000000005531 N  549976487134                            000000000+M10101C5434C    MWE  00743                     000000000  N                0000000000000.00 0000000.00   0000000.00                             000000000000000                                                                                                                                                   B101418  000000000000 0000000000001.31     02300 00400                  
02863130050550011DT67590675900000002881800888800000010180088877287283061900015800098030220230000000266506123000000000077015514377XXXXXX7203       MS02WI09          NY 1 0 AMDJNMQPGY0302  N840000000002665          07DNHAPPY HIPPIE             1PZN41    MD84000000002665 N  549976487134                            000000000+M10101M0034C    MDJ  00402                     000000000  N                0000000000000.00 0000000.00   0000000.00                             000000000000000                                                                                                                                                   B101418  000000000000 0000000000000.43     01050 01500                  
02863140050550012DT67590675900000002881800888800000010180088824001193061900015800104030220230000000306006123000000000077015405731XXXXXX2968       VS11    0001111   NYV1 A E303061653305146N8400000000030603XLR00    90DNHAPPY HIPPIE             002655    VS84000000003060 N  549976487134                            000000000+                A CA 12110                     000000000  N000000000 493   0000000000000.00 0000000.00   0000000.00                             000000000000000                                                                                                                                                     01418 A000000000000 0000000000000.56     01510 01000                  
02863150050550013DT67590675900000002881800888800000010180088824001193061900015800112030220230000000246806123000000000077015443264XXXXXX6098       VS11    0001111   NYV1 A E383061653780185N8400000000024688SSF00    07DNHAPPY HIPPIE             022079    VD84000000002468 N  549976487134                            000000000+                F DF 10433                     000000000  Y000000000 338   0000000000000.00 0000000.00   0000000.00                             000000000000000                                                                                                                                                     01418 A000000000000 0000000000000.23     00050 02200                  
02863160050550014DT67590675900000002881800888800000010180088877287283061900015800122030220230000000074806123000000000077015518941XXXXXX4253       MS02WI09          NY 1 0 AMWEVQOAGY0302  N840000000000748          05DNHAPPY HIPPIE             19509Z    MC84000000000748 N  549976487134                            000000000+M10101C5434C    MWE  00743                     000000000  N                0000000000000.00 0000000.00   0000000.00                             000000000000000                                                                                                                                                   B101418  000000000000 0000000000000.21     02300 00400                  
02863170050550015DT67590675900000002881800888800000010180088824001193061900015800138030220230000000137106123000000000077015415978XXXXXX3096       VK04VS111111111   NYV1 A E303061657295608N840000000001371MFK400    07DNHAPPY HIPPIE             009207    VD84000000001371 N  549976487134                            000000000+                F DF 10439                     000000000  Y000000000 331   0000000000000.00 0000000.00   0000000.00                             000000000000000                                                                                                                                                     01418 F000000000000 0000000000000.23     00050 02200                  
02863180050550016DT67590675900000002881800888800000010180088824001193061900015800146030220230000002378506123000000000077015419085XXXXXX5188       VS11    0001111   NYV1 A E463061668608335N840000000023785RZC400    05DNHAPPY HIPPIE             002283    VS84000000023785 N  549976487134                            000000000+                A CA 12110                     000000000  N000000000 493   0000000000000.00 0000000.00   0000000.00                             000000000000000                                                                                                                                                     01418 A000000000000 0000000000003.69     01510 01000                  
02863190050550017DT67590675900000002881800888800000010180088824001193061900015800153030220230000000696806123000000000077015400022XXXXXX0750       VS11    0001111   NYV1 A E463061671633075N8400000000069686R6T00    05DNHAPPY HIPPIE             688809    VD84000000006968 N  549976487134                            000000000+                F DF 10433                     000000000  Y000000000 338   0000000000000.00 0000000.00   0000000.00                             000000000000000                                                                                                                                                     01418 A000000000000 0000000000000.25     00050 02200                  
02863200050550018DT67590675900000002881800888800000010180088824001193061900015800161030220230000000118206123000000000077015480639XXXXXX8006       VK04VS111111111   NYV1 A E583061675381868N840000000001182JZ5900    05DNHAPPY HIPPIE             549347    VD84000000001182 N  549976487134                            000000000+                F DF 00451                     000000000  N000000000 214   0000000000000.00 0000000.00   0000000.00                             000000000000000                                                                                                                                                     01418 F000000000000 0000000000000.22     01550 00400                  
02863210050550019DT67590675900000002881800888800000010180088824001193061900015800179030220230000000493806123000000000077015422921XXXXXX7391       VS11    0001111   NYV1 A E303061745540382N840000000004938T8VW00    05DNHAPPY HIPPIE             056555    VD84000000004938 N  549976487134                            000000000+                F DF 00381                     000000000  N000000000       0000000000000.00 0000000.00   0000000.00                             000000000000000                                                                                                                                                     01418 A000000000000 0000000000000.55     00800 01500                  
02863220050550020BH6759067590000000288180088880000090170302202306123000000000160067    0000090001590031N8008886759C03032023                                                                                                                                                                                                                                                                                                                                                                                                                                                                                                                                                                                                 
02863230050550021DT67590675900000002881800888800000010180088824001193061900015900011030220230000000626706123000000000160067419090XXXXXX3017       VS11    0001111   NYV1 A E463061541770627N840000000006267NN7K00    05DNHAPPY HIPPIE             030252    VD84000000006267 N  549976487158                            000000000+                F DF 00381                     000000000  N000000000       0000000000000.00 0000000.00   0000000.00                             000000000000000                                                                                                                                                     01418 A000000000000 0000000000000.65     00800 01500                  
02863240050550022DT67590675900000002881800888800000010180088824001193061900015900029030220230000000316106123000000000160067419090XXXXXX0011       VS11    0001111   NYV1 A E583061543041248N840000000003161QKB900    05DNHAPPY HIPPIE             030315    VD84000000003161 N  549976487158                            000000000+                F DF 00381                     000000000  N000000000       0000000000000.00 0000000.00   0000000.00                             000000000000000                                                                                                                                                     01418 A000000000000 0000000000000.40     00800 01500                  
02863250050550023DT67590675900000002881800888800000010180088824001193061900015900037030220230000000987806123000000000160067419090XXXXXX6665       PS01    0000000   NYV1 J N463061545019101N8400000000098788GP900    01DNHAPPY HIPPIE             030405    VD84000000009878 N  549976487158                            000000000+                F DF 00425                     000000000  N000000010       0000000000000.00 0000000.00   0000000.00                             000000000000000                                                                                                                                                     01418  000000000000 0000000000001.93     01750 02000                  
02863260050550024DT67590675900000002881800888800000010180088877287283061900015900047030220230000000118506123000000000160067514377XXXXXX2431       MS02WI09          NY 1 0 AMDJM4USPG0302  N840000000001185          05DNHAPPY HIPPIE             2ZN6K2    MD84000000001185 N  549976487158                            000000000+M10101C5434C    MDJ  00505                     000000000  N                0000000000000.00 0000000.00   0000000.00                             000000000000000                                                                                                                                                   B101418  000000000000 0000000000000.22     01550 00400                  
02863270050550025DT67590675900000002881800888800000010180088824001193061900015900052030220230000000395006123000000000160067473336XXXXXX5051       VS11    0001111   NYV1 A E583061557555985N840000000003950FVBP00    05DNHAPPY HIPPIE             082915    VD84000000003950 N  549976487158                            000000000+                F DF 00381                     000000000  N000000000       0000000000000.00 0000000.00   0000000.00                             000000000000000                                                                                                                                                     01418 A000000000000 0000000000000.47     00800 01500                  
02863280050550026DT67590675900000002881800888800000010180088824001193061900015900060030220230000001414906123000000000160067480639XXXXXX4582       VS11    0001111   NYV1 A E383061562746321N840000000014149D5M700    05DNHAPPY HIPPIE             543641    VD84000000014149 N  549976487158                            000000000+                F DF 00381                     000000000  N000000000       0000000000000.00 0000000.00   0000000.00                             000000000000000                                                                                                                                                     01418 A000000000000 0000000000001.28     00800 01500                  
02863290050550027DT67590675900000002881800888800000010180088824001193061900015900078030220230000000274306123000000000160067422921XXXXXX1507       VS11    0001111   NYV1 A E583061584684906N8400000000027436XGK00    05DNHAPPY HIPPIE             040469    VD84000000002743 N  549976487158                            000000000+                F DF 00381                     000000000  N000000000       0000000000000.00 0000000.00   0000000.00                             000000000000000                                                                                                                                                     01418 A000000000000 0000000000000.37     00800 01500                  
02863300050550028DT67590675900000002881800888800000010180088873011003061900015900082030220230000000424606123000000000160067377772XXXXX2830                          NY 1 0 N004506134142308N840000000004246          90DNHAPPY HIPPIE             504504    AM84000000004246 N  549976487158                            000000000+51010125434C 258RP   11273                     000000000                   0000000000000.00 0000000.00   0000000.00                             000000000000000 61248972086759675900000002881 HAPPY HIPPIE             832 PARKWAY              8656540830      37862     HAPPYHIPPIE832@GMAIL.COM                  01418  000000000000 0000000000000.67     01350 00000                  
02863310050550029DT67590675900000002881800888800000010180088877287283061900015900096030220230000001283906123000000000160067511953XXXXXX5690       MS02WI09          NY 1 0 AMDJESA3PF0302  N840000000012839          05DNHAPPY HIPPIE             015007    MD84000000012839 N  549976487158                            000000000+M10101C5434C    MDJ  00402                     000000000  N                0000000000000.00 0000000.00   0000000.00                             000000000000000                                                                                                                                                   B101418  000000000000 0000000000001.50     01050 01500                  
02863320050550030DT67590675900000002881800888800000010180088824001193061900015900102030220230000000493806123000000000160067422921XXXXXX4105       VS11    0001111   NYV1 A E383061635678944N8400000000049384VWB00    05DNHAPPY HIPPIE             045568    VD84000000004938 N  549976487158                            000000000+                F DF 00381                     000000000  N000000000       0000000000000.00 0000000.00   0000000.00                             000000000000000                                                                                                                                                     01418 A000000000000 0000000000000.55     00800 01500                  
02863330050550031DT67590675900000002881800888800000010180088824001193061900015900110030220230000000158006123000000000160067422921XXXXXX6466       VS11    0001111   NYV1 A E383061636695376N8400000000015804KT600    05DNHAPPY HIPPIE             045670    VD84000000001580 N  549976487158                            000000000+                F DF 00381                     000000000  N000000000       0000000000000.00 0000000.00   0000000.00                             000000000000000                                                                                                                                                     01418 A000000000000 0000000000000.28     00800 01500                  
02863340050550032DT67590675900000002881800888800000010180088824001193061900015900128030220230000000444406123000000000160067472776XXXXXX6709       VS11    0001111   NYV1 A E583061642027785N840000000004444KKVM00    90DNHAPPY HIPPIE             414233    VD84000000004444 N  549976487158                            000000000+                F PF 08170                     000000000  N000000000       0000000000000.00 0000000.00   0000000.00                             000000000000000                                                                                                                                                     01418 A000000000000 0000000000000.66     01150 01500                  
02863350050550033DT67590675900000002881800888800000010180088824001193061900015900136030220230000000493706123000000000160067480639XXXXXX5586       VS11    0001111   NYV1 A E303061651646387N8400000000049378HNZ00    05DNHAPPY HIPPIE             548087    VD84000000004937 N  549976487158                            000000000+                F DF 00381                     000000000  N000000000       0000000000000.00 0000000.00   0000000.00                             000000000000000                                                                                                                                                     01418 A000000000000 0000000000000.54     00800 01500                  
02863360050550034DT67590675900000002881800888800000010180088824001193061900015900144030220230000000124806123000000000160067414720XXXXXX7758       VK04VS111111111   NYV1 A E383061694452223N840000000001248N2SZ00    05DNHAPPY HIPPIE             01771D    VS84000000001248 N  549976487158                            000000000+                D CD 12057                     000000000  N000000000 452   0000000000000.00 0000000.00   0000000.00                             000000000000000                                                                                                                                                     01418 F000000000000 0000000000000.27     02200 00000                  
02863370050550035DT67590675900000002881800888800000010180088824001193061900015900151030220230000000572706123000000000160067443238XXXXXX9381       VS11    0001111   NYV1 A E463061697504138N8400000000057272CHT00    05DNHAPPY HIPPIE             042230    VD84000000005727 N  549976487158                            000000000+                F DF 00381                     000000000  N000000000       0000000000000.00 0000000.00   0000000.00                             000000000000000                                                                                                                                                     01418 A000000000000 0000000000000.61     00800 01500                  
02863380050550036DT67590675900000002881800888800000010180088824001193061900015900169030220230000000219506123000000000160067480639XXXXXX8485       VS11    0001111   NYV1 A E303061703796806N840000000002195XNKX00    05DNHAPPY HIPPIE             550778    VD84000000002195 N  549976487158                            000000000+                F DF 00381                     000000000  N000000000       0000000000000.00 0000000.00   0000000.00                             000000000000000                                                                                                                                                     01418 A000000000000 0000000000000.33     00800 01500                  
02863390050550037DT67590675900000002881800888800000010180088824001193061900015900177030220230000000987806123000000000160067419090XXXXXX9516       VS11    0001111   NYV1 A E583061716068989N840000000009878ZK2C00    05DNHAPPY HIPPIE             041081    VD84000000009878 N  549976487158                            000000000+                F DF 00381                     000000000  N000000000       0000000000000.00 0000000.00   0000000.00                             000000000000000                                                                                                                                                     01418 A000000000000 0000000000000.94     00800 01500                  
02863400050550038DT67590675900000002881800888800000010180088824001193061900015900185030220230000000592406123000000000160067419090XXXXXX5725       VS11    0001111   NYV1 A E303061717494825N840000000005924LHK900    05DNHAPPY HIPPIE             041159    VD84000000005924 N  549976487158                            000000000+                F DF 00381                     000000000  N000000000       0000000000000.00 0000000.00   0000000.00                             000000000000000                                                                                                                                                     01418 A000000000000 0000000000000.62     00800 01500                  
02863410050550039DT67590675900000002881800888800000010180088824001193061900015900193030220230000000296206123000000000160067498503XXXXXX6779       VS11    0001111   NYV1 A E463061718097807N8400000000029625SMZ00    05DNHAPPY HIPPIE             073487    VD84000000002962 N  549976487158                            000000000+                F DF 00381                     000000000  N000000000       0000000000000.00 0000000.00   0000000.00                             000000000000000                                                                                                                                                     01418 A000000000000 0000000000000.39     00800 01500                  
02863420050550040DT67590675900000002881800888800000010180088824001193061900015900201030220230000000393806123000000000160067422921XXXXXX6091       VS11    0001111   NYV1 A E463061727606234N8400000000039386DNX00    05DNHAPPY HIPPIE             054761    VD84000000003938 N  549976487158                            000000000+                F DF 00381                     000000000  N000000000       0000000000000.00 0000000.00   0000000.00                             000000000000000                                                                                                                                                     01418 A000000000000 0000000000000.47     00800 01500                  
02863430050550041DT67590675900000002881800888800000010180088824001193061900015900219030220230000000512606123000000000160067419090XXXXXX3689       VS11    0001111   NYV1 A E583061729459457N840000000005126HBX400    05DNHAPPY HIPPIE             041893    VD84000000005126 N  549976487158                            000000000+                F DF 00381                     000000000  N000000000       0000000000000.00 0000000.00   0000000.00                             000000000000000                                                                                                                                                     01418 A000000000000 0000000000000.56     00800 01500                  
02863440050550042DT67590675900000002881800888800000010180088824001193061900015900227030220230000000197406123000000000160067419090XXXXXX9629       VS11    0001111   NYV1 A E463061744810003N840000000001974S9GG00    05DNHAPPY HIPPIE             042803    VD84000000001974 N  549976487158                            000000000+                F DF 00381                     000000000  N000000000       0000000000000.00 0000000.00   0000000.00                             000000000000000                                                                                                                                                     01418 A000000000000 0000000000000.31     00800 01500                  
02863450050550043DT67590675900000002881800888800000010180088824001193061900015900235030220230000000383906123000000000160067403052XXXXXX8373       VS11    0001111   NYV1 A E303061762264084N8400000000038397V2N00    05DNHAPPY HIPPIE             882548    VD84000000003839 N  549976487158                            000000000+                F DF 00381                     000000000  N000000000       0000000000000.00 0000000.00   0000000.00                             000000000000000                                                                                                                                                     01418 A000000000000 0000000000000.46     00800 01500                  
02863460050550044DT67590675900000002881800888800000010180088824001193061900015900243030220230000000147506123000000000160067443238XXXXXX7126       VK04VS111111111   NYV1 A E583061773667604N84000000000147595W200    05DNHAPPY HIPPIE             062927    VD84000000001475 N  549976487158                            000000000+                F DF 00451                     000000000  N000000000 214   0000000000000.00 0000000.00   0000000.00                             000000000000000                                                                                                                                                     01418 F000000000000 0000000000000.27     01550 00400                  
02863470050550045DT67590675900000002881800888800000010180088824001193061900015900250030220230000001313506123000000000160067410801XXXXXX6042       VS11    0001111   NYV1 A E383061786355170N8400000000131357QHD00    05DNHAPPY HIPPIE             065036    VD84000000013135 N  549976487158                            000000000+                F DF 00381                     000000000  N000000000       0000000000000.00 0000000.00   0000000.00                             000000000000000                                                                                                                                                     01418 A000000000000 0000000000001.20     00800 01500                  
02863480050550046DT67590675900000002881800888800000010180088824001193061900015900268030220230000000316106123000000000160067413037XXXXXX4265       VS11    0001111   NYV1 A E583061789278284N840000000003161L8FR00    05DNHAPPY HIPPIE             012514    VD84000000003161 N  549976487158                            000000000+                F DF 10433                     000000000  Y000000000 338   0000000000000.00 0000000.00   0000000.00                             000000000000000                                                                                                                                                     01418 A000000000000 0000000000000.24     00050 02200                  
02863490050550047DT67590675900000002881800888800000010180088824001193061900015900276030220230000000375106123000000000160067419090XXXXXX9301       VS11    0001111   NYV1 A E303061803017566N8400000000037515LJK00    05DNHAPPY HIPPIE             046638    VD84000000003751 N  549976487158                            000000000+                F DF 00381                     000000000  N000000000       0000000000000.00 0000000.00   0000000.00                             000000000000000                                                                                                                                                     01418 A000000000000 0000000000000.45     00800 01500                  
02863500050550048DT67590675900000002881800888800000010180088824001193061900015900284030220230000000395006123000000000160067419090XXXXXX0013       VS11    0001111   NYV1 A E303061810558053N84000000000395034N800    05DNHAPPY HIPPIE             047175    VD84000000003950 N  549976487158                            000000000+                F DF 00381                     000000000  N000000000       0000000000000.00 0000000.00   0000000.00                             000000000000000                                                                                                                                                     01418 A000000000000 0000000000000.47     00800 01500                  
02863510050550049DT67590675900000002881800888800000010180088824001193061900015900292030220230000000454306123000000000160067404227XXXXXX7898       VS11    0001111   NYV1 A E303061815114599N8400000000045437M3S00    05DNHAPPY HIPPIE             821032    VD84000000004543 N  549976487158                            000000000+                F DF 00381                     000000000  N000000000       0000000000000.00 0000000.00   0000000.00                             000000000000000                                                                                                                                                     01418 A000000000000 0000000000000.51     00800 01500                  
02863520050550050DT67590675900000002881800888800000010180088824001193061900015900300030220230000000877806123000000000160067406095XXXXXX4492       VS11    0001111   NYV1 A E303061816450781N840000000008778524C00    07DNHAPPY HIPPIE             01375D    VS84000000008778 N  549976487158                            000000000+                D CD 12113                     000000000  N000000000 499   0000000000000.00 0000000.00   0000000.00                             000000000000000                                                                                                                                                     01418 A000000000000 0000000000001.94     02100 01000                  
02863530050550051DT67590675900000002881800888800000010180088824001193061900015900318030220230000000414606123000000000160067421783XXXXXX9892       VS11    0001111   NYV1 A E303061822854078N840000000004146C7VZ00    05DNHAPPY HIPPIE             036777    VS84000000004146 N  549976487158                            000000000+                A CA 12110                     000000000  N000000000 493   0000000000000.00 0000000.00   0000000.00                             000000000000000                                                                                                                                                     01418 A000000000000 0000000000000.73     01510 01000                  
02863540050550052BH6759067590000000215480088880000090170302202306123000000000587359    0000090001228375N8008886759C03032023                                                                                                                                                                                                                                                                                                                                                                                                                                                                                                                                                                                                 
02863550050550053DT67590675900000002154800888800000010180088873011003061900012223470030220230000001345106123000000000587359372729XXXXX1005                          NY 4 07N004233040939327N840000000013451          01DNDRIP DROP DISTRO LLC     245800    AM84000000013451 N  519971004114                            000000000+6004S0S00140 258     11243                     000000000                   0000000000000.00 0000000.00   0000000.00                             000000000000000 61248972736759675900000002154 DRIP DROP DISTRO LLC     1445 W COMMERCE AVE SUITE2087248209      83705     TROY@DRIPDROPDISTRO.COM                   01418  000000000000 0000000000002.32     01650 00000                  
02863560050550054DT67590675900000002154800888800000010180088824001193061900012240692030220230000012000006123000000000587359410040XXXXXX3967       PS01EF100000000   NYV4 07N383061675338244N840000000120000FV6600    01DNDRIP DROP DISTRO LLC     68175G    VB84000000120000 NP1519971004114   INV-TRADE BOOTH          000000000+                G4CG411885                     000000000  N000000010 148   0000000000000.00 0000000.00   0000000.00                             000000000000000                                                                                                                                                     01418  000000000000 0000000000038.00     03150 02000                  
02863570050550001P16759067590000000215480088880000001010000000000000000    43972522131              2000000000000000000000000              000000000000                    0000000000000000000000000                    000000000000                                                                                                                                                                                                                                                                                                                                                                                                                                                                                        
02863580050550055DT67590675900000002154800888800000010180088824001193061900012293600030220230000005871006123000000000587359473703XXXXXX9688               2111111   NYV4 A7W303060840656534N840000000058710P5N300    01DNDRIP DROP DISTRO LLC     035261    VD84000000058710 NP1519971004114   17492                    000000000+                F DF 10420                     000000000  Y000000000 338   0000000000000.00 0000000.00   0000000.00                             000000000000000                                                                                                                                                     01418 G000000058710 0000000000000.51     00050 02200                  
02863590050550001P16759067590000000215480088880000001010000000000000000                             2000000000000000000000000              000000000000                    0000000000000000000000000                    000000000000                                                                                                                                                                                                                                                                                                                                                                                                                                                                                        
02863600050550056DT67590675900000002154800888800000010180088873011003061900012203019030220230000017810106123000000000587359371549XXXXX4008                          NY 4 07N004505540444308N840000000178101          01DNDRIP DROP DISTRO LLC     247263    AM84000000178101 N  519971004114                            000000000+6004S0S00140 258     11244                     000000000                   0000000000000.00 0000000.00   0000000.00                             000000000000000 61248972736759675900000002154 DRIP DROP DISTRO LLC     1445 W COMMERCE AVE SUITE2087248209      83705     TROY@DRIPDROPDISTRO.COM                   01418  000000000000 0000000000033.94     01900 00000                  
02863610050550057DT67590675900000002154800888800000010180088824001193061900012270392030220230000017600006123000000000587359447261XXXXXX0310               2111111   NYV4 A7W583061733277369N840000000176000MW5V00    01DNDRIP DROP DISTRO LLC     127607    VD84000000176000 NP1519971004114   INV-000953               000000000+                G DG 10352                     000000000  Y000000000 338   0000000000000.00 0000000.00   0000000.00                             000000000000000                                                                                                                                                     01418 G000000176000 0000000000001.10     00050 02200                  
02863620050550001P16759067590000000215480088880000001010000000000000000    43972775024              2000000000000000000000000              000000000000                    0000000000000000000000000                    000000000000                                                                                                                                                                                                                                                                                                                                                                                                                                                                                        
02863630050550058DT67590675900000002154800888800000010180088876509753061900012283757030220230000004109706123000000000587359601101XXXXXX2718   BA00                  NY 4 07N753052403004262N840000000041097    00    01DNDRIP DROP DISTRO LLC     00245B    DZ84000000041097 N  519971004114010                         000000000+1015104910600   DMCDI01012666332  123820000000 000000000  0          124   0000000000000.00 0000000.00   0000000.00                             000000000000000                                                                                                                                                     01418  000000000000 0000000000010.22     02450 01500                  
02863640050550059BH6759067590000000096880088880000090170302202306123000000000020500    0000090001509631N8008886759C03032023                                                                                                                                                                                                                                                                                                                                                                                                                                                                                                                                                                                                 
02863650050550060DT67590675900000000968800888800000010180088824001193061900015096315030220230000002050006123000000000020500440066XXXXXX2569               2111111   NYV4 A7W463061075439913N840000000020500DM4500    01DNHIGHER FLOUR LLC         08452D    VS84000000020500 NP1546271004114   RU54261ALIXXRALYJDDX     000000000+                D CD 12109                     000000000  N000000000 498   0000000000000.00 0000000.00   0000000.00                             000000000000000                                                                                                                                                     01418 G000000020500 0000000000005.23     02500 01000                  
02863660050550001P16759067590000000096880088880000001010000000000000000                             2000000000000000000000000              000000000000                    0000000000000000000000000                    000000000000                                                                                                                                                                                                                                                                                                                                                                                                                                                                                        
02863670050550061BH6759067590000000570280088880000090170302202306123000000000391365    0000090001064944N8008886759C03032023                                                                                                                                                                                                                                                                                                                                                                                                                                                                                                                                                                                                 
02863680050550062DT67590675900000005702800888800000010680088877287283061900010600030030220230000001509506123000000000391365515307XXXXXX8836                         NY94607N         0302  N840000000000000          81CNPSILOMART                          MC84000000015095 N  549900000001   r7Ty3rK0xx5VUbDZd0f3     000000000+C00450S00140    MCW  00565                     000000000  N                0000000000000.00 0000000.00   0000000.00                             000000000000000                                                                                                                                                     01418  000000000000-0000000000002.64     01750 00000                  
02863690050550063DT67590675900000005702800888800000010180088877287283061900010656602030220230000010089006123000000000391365547415XXXXXX5694                         NY 4607AMEBXZJ8L60301  N840000000100890          81DNPSILOMART                05527Q    MB84000000100890 NP1549900000001   rSRwJ5eYOzCzYb70BCt1     000000000+600450S00140    MEB  11637                     000000000  N                0000000000000.00 0000000.00   0000000.00                             000000000000000                                                                                                                                                   U001418  000000000000 0000000000030.37     03000 01000                  
02863700050550001P1675906759000000057028008888000000101                                                          000000000000          8000            881060599                                                                                                                                                                                                                                                                                                                                                                                                                                                                                                                                                            
02863710050550064DT67590675900000005702800888800000010180088876509753061900010620265030220230000000459906123000000000391365601100XXXXXX5950   BA00                  NY 4 07N873052042891603N840000000004599    00    01DNPSILOMART                00216R    DS84000000004599 N  549971004114010                         000000000+1015104910600   DCCDI01008666316  023809000000 000000000  0          120   0000000000000.00 0000000.00   0000000.00                             000000000000000                                                                                                                                                     01418  000000000000 0000000000001.03     02030 01000                  
02863720050550065DT67590675900000005702800888800000010180088824001193061900010661725030220230000000391706123000000000391365442787XXXXXX4295               2111111   NYV4 A7W383061543447739N840000000003917FH7500    01DNPSILOMART                897552    VD84000000003917 NP1549971004114   RMZC4NEYWBRQJDRBQ5DN     000000000+                F DF 10420                     000000000  Y000000000 338   0000000000000.00 0000000.00   0000000.00                             000000000000000                                                                                                                                                     01418 G000000003917 0000000000000.24     00050 02200                  
02863730050550001P16759067590000000570280088880000001010000000000000000                             2000000000000000000000000              000000000000                    0000000000000000000000000                    000000000000                                                                                                                                                                                                                                                                                                                                                                                                                                                                                        
02863740050550066DT67590675900000005702800888800000010180088824001193061900010652948030220230000000479906123000000000391365424631XXXXXX3341               2111111   NYV4 A7W583061752684852N840000000004799J37R00    01DNPSILOMART                02871G    VB84000000004799 NP1549971004114   RHN89T2B2DJJQXOGMTPG     000000000+                G4CG411355                     000000000  N000000000 377   0000000000000.00 0000000.00   0000000.00                             000000000000000                                                                                                                                                     01418 G000000004799 0000000000001.52     02950 01000                  
02863750050550001P16759067590000000570280088880000001010000000000000000    64233295775              2000000000000000000000000              000000000000                    0000000000000000000000000                    000000000000                                                                                                                                                                                                                                                                                                                                                                                                                                                                                        
02863760050550067DT67590675900000005702800888800000010180088824001193061900010646197030220230000001919506123000000000391365481583XXXXXX3953               2111111   NYV4 A7W463061508981282N840000000019195VZNR00    01DNPSILOMART                130183    VD84000000019195 NP1549971004114   RI4VMWJG5WGNNW7CODLU     000000000+                F DF 10420                     000000000  Y000000000 338   0000000000000.00 0000000.00   0000000.00                             000000000000000                                                                                                                                                     01418 G000000019195 0000000000000.32     00050 02200                  
02863770050550001P16759067590000000570280088880000001010000000000000000                             2000000000000000000000000              000000000000                    0000000000000000000000000                    000000000000                                                                                                                                                                                                                                                                                                                                                                                                                                                                                        
02863780050550068DT67590675900000005702800888800000010180088824001193061900010659695030220230000000209906123000000000391365410064XXXXXX9963               2111111   NYV4 A7W303061538151065N840000000002099CPGL00    01DNPSILOMART                09662C    VS84000000002099 NP1549971004114   RTMASTIQGURVAEDL9VWJ     000000000+                C CC 12108                     000000000  N000000000 496   0000000000000.00 0000000.00   0000000.00                             000000000000000                                                                                                                                                     01418 G000000002099 0000000000000.53     02050 01000                  
02863790050550001P16759067590000000570280088880000001010000000000000000                             2000000000000000000000000              000000000000                    0000000000000000000000000                    000000000000                                                                                                                                                                                                                                                                                                                                                                                                                                                                                        
02863800050550069DT67590675900000005702800888800000010180088824001193061900010631108030220230000000369906123000000000391365443040XXXXXX0224               2111111   NYV4 A7W583061701256119N840000000003699VD5G00    01DNPSILOMART                353467    VD84000000003699 NP1549971004114   RXZILRFAUGVSRWY9O9GV     000000000+                F DF 10420                     000000000  Y000000000 338   0000000000000.00 0000000.00   0000000.00                             000000000000000                                                                                                                                                     01418 G000000003699 0000000000000.24     00050 02200                  
02863810050550001P16759067590000000570280088880000001010000000000000000                             2000000000000000000000000              000000000000                    0000000000000000000000000                    000000000000                                                                                                                                                                                                                                                                                                                                                                                                                                                                                        
02863820050550070DT67590675900000005702800888800000010180088824001193061900010657814030220230000000329906123000000000391365406032XXXXXX0210               2111111   NYV4 A7W463061763911699N840000000003299ZJQX00    01DNPSILOMART                021316    VD84000000003299 NP1549971004114   RDRBKEVH4D9UCBJ0MVKS     000000000+                F DF 10420                     000000000  Y000000000 338   0000000000000.00 0000000.00   0000000.00                             000000000000000                                                                                                                                                     01418 G000000003299 0000000000000.24     00050 02200                  
02863830050550001P16759067590000000570280088880000001010000000000000000                             2000000000000000000000000              000000000000                    0000000000000000000000000                    000000000000                                                                                                                                                                                                                                                                                                                                                                                                                                                                                        
02863840050550071DT67590675900000005702800888800000010180088824001193061900010675220030220230000000519606123000000000391365498503XXXXXX0473               2111111   NYV4 A7W303061810140294N8400000000051962RLF00    01DNPSILOMART                056394    VD84000000005196 NP1549971004114   RHIZI6XASCRN8VVXSDTW     000000000+                F DF 00415                     000000000  N000000000       0000000000000.00 0000000.00   0000000.00                             000000000000000                                                                                                                                                     01418 G000000005196 0000000000001.01     01650 01500                  
02863850050550001P16759067590000000570280088880000001010000000000000000                             2000000000000000000000000              000000000000                    0000000000000000000000000                    000000000000                                                                                                                                                                                                                                                                                                                                                                                                                                                                                        
02863860050550072DT67590675900000005702800888800000010180088877287283061900010636000030220230000000339806123000000000391365512992XXXXXX0108       ME03KE06MS02      NY 4607AMDJY9BPL40301  N840000000003398          81DNPSILOMART                966052    MD84000000003398 N  549900000001   rprY0AnSnhg5ou9UBw5Q     000000000+600450S00140    MDJ  10813                     000000000  1                0000000000000.00 0000000.00   0000000.00                             000000000000000                                                                                                                                                   U001418  000000000000 0000000000000.24     00050 02200                  
02863870050550073DT67590675900000005702800888800000010180088877287283061900010689256030220230000000209906123000000000391365512992XXXXXX0108       ME03KE06MS02      NY 4607AMDJLUDFL60301  N840000000002099          81DNPSILOMART                272673    MD84000000002099 N  549900000001   rgMd2H8SRNlq9Yb9Hz2R     000000000+600450S00140    MDJ  10813                     000000000  1                0000000000000.00 0000000.00   0000000.00                             000000000000000                                                                                                                                                   U001418  000000000000 0000000000000.23     00050 02200                  
02863880050550074DT67590675900000005702800888800000010180088877287283061900010601368030220230000002239406123000000000391365546616XXXXXX5443       ME03KE06PT01      NY 4607AMCWNIEDW70301  N840000000022394          81DNPSILOMART                20139Z    MC84000000022394 N  549900000001   r29CECYo690eDaI3rVjQ     000000000+600450S00140    MCW  00642                     000000000  N                0000000000000.00 0000000.00   0000000.00                             000000000000000                                                                                                                                                   U001418  000000000000 0000000000005.03     02200 01000                  
02863890050550075DT67590675900000005702800888800000010180088877287283061900010682061030220230000000459806123000000000391365517545XXXXXX1811       ME03KE06MS02      NY 4607AMDJNJW4W70301  N840000000004598          81DNPSILOMART                001144    MD84000000004598 N  549900000001   r4VMOdy1EGaLtc99BALi     000000000+600450S00140    MDJ  10813                     000000000  1                0000000000000.00 0000000.00   0000000.00                             000000000000000                                                                                                                                                   U001418  000000000000 0000000000000.24     00050 02200                  
02863900050550076DT67590675900000005702800888800000010180088824001193061900010610276030220230000000479906123000000000391365405610XXXXXX8849               2111111   NYV4 A7W383061127742954N8400000000047992VDS00    01DNPSILOMART                267142    VD84000000004799 NP1549971004114   RYMD1L4JNAVOY6OOURLN     000000000+                F DF 00415                     000000000  N000000000       0000000000000.00 0000000.00   0000000.00                             000000000000000                                                                                                                                                     01418 G000000004799 0000000000000.94     01650 01500                  
02863910050550001P16759067590000000570280088880000001010000000000000000                             2000000000000000000000000              000000000000                    0000000000000000000000000                    000000000000                                                                                                                                                                                                                                                                                                                                                                                                                                                                                        
02863920050550077DT67590675900000005702800888800000010180088824001193061900010614062030220230000000399906123000000000391365400022XXXXXX7689               2111111   NYV4 A7W383061148943036N8400000000039994PMS00    01DNPSILOMART                449933    VD84000000003999 NP1549971004114   R1HSBU81M6FDG0OQUZYE     000000000+                F DF 10420                     000000000  Y000000000 338   0000000000000.00 0000000.00   0000000.00                             000000000000000                                                                                                                                                     01418 G000000003999 0000000000000.24     00050 02200                  
02863930050550001P16759067590000000570280088880000001010000000000000000                             2000000000000000000000000              000000000000                    0000000000000000000000000                    000000000000                                                                                                                                                                                                                                                                                                                                                                                                                                                                                        
02863940050550078DT67590675900000005702800888800000010180088824001193061900010665940030220230000000659706123000000000391365414709XXXXXX4953               2111111   NYV4 A7W303061159564032N840000000006597G2LZ00    01DNPSILOMART                06698D    VS84000000006597 NP1549971004114   RFOREQJCKNTY1OGKJAW1     000000000+                D CD 12109                     000000000  N000000000 498   0000000000000.00 0000000.00   0000000.00                             000000000000000                                                                                                                                                     01418 G000000006597 0000000000001.75     02500 01000                  
02863950050550001P16759067590000000570280088880000001010000000000000000                             2000000000000000000000000              000000000000                    0000000000000000000000000                    000000000000                                                                                                                                                                                                                                                                                                                                                                                                                                                                                        
02863960050550079DT67590675900000005702800888800000010180088877287283061900010625904030220230000000399906123000000000391365511006XXXXXX1188       ME03KE06MS02      NY 4607AMDJK8Q70P0302  N840000000003999          81DNPSILOMART                406300    MD84000000003999 N  549900000001   r7gX8Eu9ClBr4WnWiapB     000000000+600450S00140    MDJ  00401                     000000000  N                0000000000000.00 0000000.00   0000000.00                             000000000000000                                                                                                                                                   U001418  000000000000 0000000000000.81     01650 01500                  
02863970050550080DT67590675900000005702800888800000010180088824001193061900010630092030220230000000799806123000000000391365413499XXXXXX3150               2111111   NYV4 A7W303061443507150N840000000007998M2Z600    01DNPSILOMART                477896    VD84000000007998 NP1549971004114   RRVC1LLYUWTAKN3ZZNEZ     000000000+                F DF 00415                     000000000  N000000000       0000000000000.00 0000000.00   0000000.00                             000000000000000                                                                                                                                                     01418 G000000007998 0000000000001.47     01650 01500                  
02863980050550001P16759067590000000570280088880000001010000000000000000                             2000000000000000000000000              000000000000                    0000000000000000000000000                    000000000000                                                                                                                                                                                                                                                                                                                                                                                                                                                                                        
02863990050550081DT67590675900000005702800888800000010180088824001193061900010638103030220230000000549706123000000000391365406032XXXXXX1401               2111111   NYV4 A7W583061477347022N840000000005497NW3X00    01DNPSILOMART                041508    VD84000000005497 NP1549971004114   RJMVOVGQJCRPHCEPANJS     000000000+                F DF 10420                     000000000  Y000000000 338   0000000000000.00 0000000.00   0000000.00                             000000000000000                                                                                                                                                     01418 G000000005497 0000000000000.25     00050 02200                  
02864000050550001P16759067590000000570280088880000001010000000000000000                             2000000000000000000000000              000000000000                    0000000000000000000000000                    000000000000                                                                                                                                                                                                                                                                                                                                                                                                                                                                                        
02864010050550082DT67590675900000005702800888800000010180088824001193061900010662665030220230000000613806123000000000391365473702XXXXXX3197               2111111   NYV4 A7W463061775023574N840000000006138SFCQ00    01DNPSILOMART                094637    VD84000000006138 NP1549971004114   RDQOELEHGO6QD9HSU2N6     000000000+                F DF 10420                     000000000  Y000000000 338   0000000000000.00 0000000.00   0000000.00                             000000000000000                                                                                                                                                     01418 G000000006138 0000000000000.25     00050 02200                  
02864020050550001P16759067590000000570280088880000001010000000000000000                             2000000000000000000000000              000000000000                    0000000000000000000000000                    000000000000                                                                                                                                                                                                                                                                                                                                                                                                                                                                                        
02864030050550083DT67590675900000005702800888800000010180088824001193061900010679834030220230000000509806123000000000391365425808XXXXXX1165               2111111   NYV4 A7W583061819609897N8400000000050982QDD00    01DNPSILOMART                084059    VD84000000005098 NP1549971004114   RT5R9RWDMMK1F6IDNYXM     000000000+                F DF 10420                     000000000  Y000000000 338   0000000000000.00 0000000.00   0000000.00                             000000000000000                                                                                                                                                     01418 G000000005098 0000000000000.25     00050 02200                  
02864040050550001P16759067590000000570280088880000001010000000000000000                             2000000000000000000000000              000000000000                    0000000000000000000000000                    000000000000                                                                                                                                                                                                                                                                                                                                                                                                                                                                                        
02864050050550084DT67590675900000005702800888800000010180088824001193061900010690138030220230000000239906123000000000391365473702XXXXXX5233               2111111   NYV4 A7W463061850150365N84000000000239954D900    01DNPSILOMART                007634    VD84000000002399 NP1549971004114   RCI1IGSRW6BX6WUAUXHX     000000000+                F DF 10420                     000000000  Y000000000 338   0000000000000.00 0000000.00   0000000.00                             000000000000000                                                                                                                                                     01418 G000000002399 0000000000000.23     00050 02200                  
02864060050550001P16759067590000000570280088880000001010000000000000000                             2000000000000000000000000              000000000000                    0000000000000000000000000                    000000000000                                                                                                                                                                                                                                                                                                                                                                                                                                                                                        
02864070050550085DT67590675900000005702800888800000010180088824001193061900010644234030220230000000522206123000000000391365473813XXXXXX5576               2111111   NYV4 A7W383061005348156N840000000005222GJB300    01DNPSILOMART                762629    VD84000000005222 NP1549971004114   RMUTMSBLLDYNBLJU6YFN     000000000+                F DF 00415                     000000000  N000000000       0000000000000.00 0000000.00   0000000.00                             000000000000000                                                                                                                                                     01418 G000000005222 0000000000001.01     01650 01500                  
02864080050550001P16759067590000000570280088880000001010000000000000000                             2000000000000000000000000              000000000000                    0000000000000000000000000                    000000000000                                                                                                                                                                                                                                                                                                                                                                                                                                                                                        
02864090050550086DT67590675900000005702800888800000010180088824001193061900010679867030220230000000600006123000000000391365410039XXXXXX9659               2111111   NYV4 A7W383061008224189N8400000000060006S4H00    01DNPSILOMART                52144D    VS84000000006000 NP1549971004114   RYMWTW4TA1NZBVGNZ9IM     000000000+                D CD 12109                     000000000  N000000000 498   0000000000000.00 0000000.00   0000000.00                             000000000000000                                                                                                                                                     01418 G000000006000 0000000000001.60     02500 01000                  
02864100050550001P16759067590000000570280088880000001010000000000000000                             2000000000000000000000000              000000000000                    0000000000000000000000000                    000000000000                                                                                                                                                                                                                                                                                                                                                                                                                                                                                        
02864110050550087DT67590675900000005702800888800000010180088824001193061900010614393030220230000000379906123000000000391365423223XXXXXX7871               2111111   NYV4 A7W303061336145403N840000000003799QZ2K00    01DNPSILOMART                091130    VD84000000003799 NP1549971004114   RKK9JKYFDTXT9RCRKTSI     000000000+                F DF 00415                     000000000  N000000000       0000000000000.00 0000000.00   0000000.00                             000000000000000                                                                                                                                                     01418 G000000003799 0000000000000.78     01650 01500                  
02864120050550001P16759067590000000570280088880000001010000000000000000                             2000000000000000000000000              000000000000                    0000000000000000000000000                    000000000000                                                                                                                                                                                                                                                                                                                                                                                                                                                                                        
02864130050550088DT67590675900000005702800888800000010180088824001193061900010633443030220230000016073406123000000000391365491239XXXXXX7747               2111111   NYV4 A7W303061707199459N840000000160734ZS8T00    01DNPSILOMART                419069    VD84000000160734 NP1549971004114   RPRVRVPJ3QVBQU5MZ3LL     000000000+                G DG 10352                     000000000  Y000000000 338   0000000000000.00 0000000.00   0000000.00                             000000000000000                                                                                                                                                     01418 G000000160734 0000000000001.02     00050 02200                  
02864140050550001P16759067590000000570280088880000001010000000000000000    64233137826              2000000000000000000000000              000000000000                    0000000000000000000000000                    000000000000                                                                                                                                                                                                                                                                                                                                                                                                                                                                                        
02864150050550089DT67590675900000005702800888800000010180088824001193061900010649449030220230000000399906123000000000391365419002XXXXXX0511               2111111   NYV4 A7W463061741932813N8400000000039997H9Q00    01DNPSILOMART                021614    VD84000000003999 NP1549971004114   RQF6QKGX9TMQNTX0X1JX     000000000+                F DF 10420                     000000000  Y000000000 338   0000000000000.00 0000000.00   0000000.00                             000000000000000                                                                                                                                                     01418 G000000003999 0000000000000.24     00050 02200                  
02864160050550001P16759067590000000570280088880000001010000000000000000                             2000000000000000000000000              000000000000                    0000000000000000000000000                    000000000000                                                                                                                                                                                                                                                                                                                                                                                                                                                                                        
02864170050550090BH6759067590000000708880010180000090170302202306123000000000185963    0000090001220037N8001016759C03032023                                                                                                                                                                                                                                                                                                                                                                                                                                                                                                                                                                                                 
02864180050550091DT67590675900000007088800101800000010180010124001193061900012200019030220230000000950106123000000000185963408540XXXXXX6786       VS11    0001111   NYV1 A E303061546386546N840000000009501Z55X00    05DNPLANET VAPOR #200        091038    VD84000000009501 N  599976770268                            000000000+                G DG 10351                     000000000  Y000000000 338   0000000000000.00 0000000.00   0000000.00                             000000000000000                                                                                                                                                     01418 A000000000000 0000000000000.27     00050 02200                  
02864190050550092DT67590675900000007088800101800000010180010124001193061900012200027030220230000001185206123000000000185963400022XXXXXX0573       VS11    0001111   NYV1 A E463061552539804N8400000000118524K9X00    05DNPLANET VAPOR #200        752861    VD84000000011852 N  599976770268                            000000000+                F DF 10433                     000000000  Y000000000 338   0000000000000.00 0000000.00   0000000.00                             000000000000000                                                                                                                                                     01418 A000000000000 0000000000000.28     00050 02200                  
02864200050550093DT67590675900000007088800101800000010180010124001193061900012200035030220230000000194306123000000000185963400022XXXXXX0573       VS11    0001111   NYV1 A E583061553322068N840000000001943RXDQ00    05DNPLANET VAPOR #200        470229    VD84000000001943 N  599976770268                            000000000+                F DF 10433                     000000000  Y000000000 338   0000000000000.00 0000000.00   0000000.00                             000000000000000                                                                                                                                                     01418 A000000000000 0000000000000.23     00050 02200                  
02864210050550094DT67590675900000007088800101800000010180010177287283061900012200045030220230000000269906123000000000185963517800XXXXXX4218       MS02WI09          NY 1 0 AMCSNFAUPG0302  N840000000002699          05DNPLANET VAPOR #200        002958    MC84000000002699 N  599976770268                            000000000+M10101C5434C    MCS  00015                     000000000  N                0000000000000.00 0000000.00   0000000.00                             000000000000000                                                                                                                                                   B101418  000000000000 0000000000000.55     01650 01000                  
02864220050550095DT67590675900000007088800101800000010180010173011003061900012200056030220230000000410206123000000000185963372270XXXXX2008                          NY 1 0 N004240575440324N840000000004102          05DNPLANET VAPOR INC #200    806669    AM84000000004102 N  599976770268                            000000000+51010155434C 258     11261                     000000000                   0000000000000.00 0000000.00   0000000.00                             000000000000000 61248972086759675900000007088 PLANET VAPOR INC #200    7457 PATTERSON RD STE 1098035462263      29209     KEVIN@MOOREDISTRO.COM                     01418  000000000000 0000000000000.76     01600 00000                  
02864230050550096DT67590675900000007088800101800000010180010177287283061900012200060030220230000000269906123000000000185963512230XXXXXX3161       MS02WI09          NY 1 0 AMWET5FWPG0302  N840000000002699          05DNPLANET VAPOR #200        71365Z    MC84000000002699 N  599976770268                            000000000+M10101C0034C    MWE  00739                     000000000  N                0000000000000.00 0000000.00   0000000.00                             000000000000000                                                                                                                                                   B101418  000000000000 0000000000000.72     02300 01000                  
02864240050550097DT67590675900000007088800101800000010180010124001193061900012200076030220230000000663906123000000000185963459954XXXXXX0611       VS11    0001111   NYV1 A E383061583039411N8400000000066395LRV00    05DNPLANET VAPOR #200        H07844    VD84000000006639 N  599976770268                            000000000+                F DF 10433                     000000000  Y000000000 338   0000000000000.00 0000000.00   0000000.00                             000000000000000                                                                                                                                                     01418 A000000000000 0000000000000.25     00050 02200                  
02864250050550098DT67590675900000007088800101800000010180010124001193061900012200084030220230000000277806123000000000185963433477XXXXXX6625       VS11    0001111   NYV1 A E383061585384943N8400000000027783J2R00    05DNPLANET VAPOR #200        208687    VD84000000002778 N  599976770268                            000000000+                F DF 10433                     000000000  Y000000000 338   0000000000000.00 0000000.00   0000000.00                             000000000000000                                                                                                                                                     01418 A000000000000 0000000000000.23     00050 02200                  
02864260050550099DT67590675900000007088800101800000010180010124001193061900012200092030220230000000174306123000000000185963466189XXXXXX9683       VS11    0001111   NYV1 A E383061598756573N8400000000017438HF600    05DNPLANET VAPOR #200        087435    VD84000000001743 N  599976770268                            000000000+                F DF 10433                     000000000  Y000000000 338   0000000000000.00 0000000.00   0000000.00                             000000000000000                                                                                                                                                     01418 A000000000000 0000000000000.23     00050 02200                  
02864270050550100DT67590675900000007088800101800000010180010124001193061900012200100030220230000001727606123000000000185963400022XXXXXX7689       VS11    0001111   NYV1 A E583061609739057N840000000017276GRTB00    05DNPLANET VAPOR #200        823322    VD84000000017276 N  599976770268                            000000000+                F DF 10433                     000000000  Y000000000 338   0000000000000.00 0000000.00   0000000.00                             000000000000000                                                                                                                                                     01418 A000000000000 0000000000000.31     00050 02200                  
02864280050550101DT67590675900000007088800101800000010180010124001193061900012200118030220230000000237506123000000000185963473703XXXXXX5122       VS11    0001111   NYV1 A E303061615810808N8400000000023755SGJ00    05DNPLANET VAPOR #200        014005    VD84000000002375 N  599976770268                            000000000+                F DF 10433                     000000000  Y000000000 338   0000000000000.00 0000000.00   0000000.00                             000000000000000                                                                                                                                                     01418 A000000000000 0000000000000.23     00050 02200                  
02864290050550102DT67590675900000007088800101800000010180010177287283061900012200128030220230000000539906123000000000185963517805XXXXXX4478       MS02WI09          NY 1 0 AMPLW568D30302  N840000000005399          05DNPLANET VAPOR #200        08979B    MC84000000005399 N  599976770268                            000000000+M10101C5434C    MPL  00353                     000000000  N                0000000000000.00 0000000.00   0000000.00                             000000000000000                                                                                                                                                   B101418  000000000000 0000000000001.07     01800 01000                  
02864300050550103DT67590675900000007088800101800000010180010124001193061900012200134030220230000000539906123000000000185963473703XXXXXX3727       VS11    0001111   NYV1 A E463061636153545N8400000000053994VJR00    05DNPLANET VAPOR #200        076003    VD84000000005399 N  599976770268                            000000000+                F DF 10433                     000000000  Y000000000 338   0000000000000.00 0000000.00   0000000.00                             000000000000000                                                                                                                                                     01418 A000000000000 0000000000000.25     00050 02200                  
02864310050550104DT67590675900000007088800101800000010180010124001193061900012200142030220230000000471706123000000000185963461675XXXXXX2300       VS11    0001111   NYV1 A E583061640027026N840000000004717T63400    05DNPLANET VAPOR #200        653710    VD84000000004717 N  599976770268                            000000000+                F DF 00381                     000000000  N000000000       0000000000000.00 0000000.00   0000000.00                             000000000000000                                                                                                                                                     01418 A000000000000 0000000000000.53     00800 01500                  
02864320050550105DT67590675900000007088800101800000010180010177287283061900012200151030220230000000280706123000000000185963542543XXXXXX0414       MS02WI09          NY 1 0 AMDHX4OHD30302  N840000000002807          05DNPLANET VAPOR #200        029060    MD84000000002807 N  599976770268                            000000000+M10101C5434C    MDH  00402                     000000000  N                0000000000000.00 0000000.00   0000000.00                             000000000000000                                                                                                                                                   B101418  000000000000 0000000000000.44     01050 01500                  
02864330050550106DT67590675900000007088800101800000010180010124001193061900012200167030220230000000583106123000000000185963453506XXXXXX0628       VS11    0001111   NYV1 A E303061650299686N8400000000058317TWM00    05DNPLANET VAPOR #200        H26239    VD84000000005831 N  599976770268                            000000000+                F DF 10433                     000000000  Y000000000 338   0000000000000.00 0000000.00   0000000.00                             000000000000000                                                                                                                                                     01418 A000000000000 0000000000000.25     00050 02200                  
02864340050550107DT67590675900000007088800101800000010180010124001193061900012200175030220230000000485806123000000000185963438419XXXXXX4823       VS11    0001111   NYV1 A E303061652601998N840000000004858MB7G00    05DNPLANET VAPOR #200        030740    VD84000000004858 N  599976770268                            000000000+                F DF 00381                     000000000  N000000000       0000000000000.00 0000000.00   0000000.00                             000000000000000                                                                                                                                                     01418 A000000000000 0000000000000.54     00800 01500                  
02864350050550108DT67590675900000007088800101800000010180010124001193061900012200183030220230000000378006123000000000185963423223XXXXXX2348       VS11    0001111   NYV1 A E303061684523359N840000000003780MW3400    05DNPLANET VAPOR #200        037934    VD84000000003780 N  599976770268                            000000000+                F DF 00381                     000000000  N000000000       0000000000000.00 0000000.00   0000000.00                             000000000000000                                                                                                                                                     01418 A000000000000 0000000000000.45     00800 01500                  
02864360050550109DT67590675900000007088800101800000010180010124001193061900012200191030220230000000437206123000000000185963418953XXXXXX1168       VS11    0001111   NYV1 A E383061693056633N840000000004372DTLB00    05DNPLANET VAPOR #200        800833    VD84000000004372 N  599976770268                            000000000+                F DF 00381                     000000000  N000000000       0000000000000.00 0000000.00   0000000.00                             000000000000000                                                                                                                                                     01418 A000000000000 0000000000000.50     00800 01500                  
02864370050550110DT67590675900000007088800101800000010180010124001193061900012200209030220230000000426406123000000000185963430602XXXXXX6412       VS11    0001111   NYV1 A E463061702272354N840000000004264WJT900    05DNPLANET VAPOR #200        035656    VD84000000004264 N  599976770268                            000000000+                F DF 00381                     000000000  N000000000       0000000000000.00 0000000.00   0000000.00                             000000000000000                                                                                                                                                     01418 A000000000000 0000000000000.49     00800 01500                  
02864380050550111DT67590675900000007088800101800000010180010124001193061900012200217030220230000001583706123000000000185963403216XXXXXX7876       VS11    0001111   NYV1 A E463061713386442N8400000000158376GCD00    05DNPLANET VAPOR #200        057723    VS84000000015837 N  599976770268                            000000000+                A CA 12110                     000000000  N000000000 493   0000000000000.00 0000000.00   0000000.00                             000000000000000                                                                                                                                                     01418 A000000000000 0000000000002.49     01510 01000                  
02864390050550112DT67590675900000007088800101800000010180010124001193061900012200225030220230000000269906123000000000185963491216XXXXXX8625       VS11    0001111   NYV1 A E303061728260022N840000000002699FCPP00    07DNPLANET VAPOR #200        8X49IK    VD84000000002699 N  599976770268                            000000000+                G PG 10178                     000000000  N000000000 363   0000000000000.00 0000000.00   0000000.00                             000000000000000                                                                                                                                                     01418 A000000000000 0000000000000.68     02150 01000                  
02864400050550113DT67590675900000007088800101800000010180010124001193061900012200233030220230000000252606123000000000185963474166XXXXXX1474       VS11    0001111   NYV1 A E303061742809241N840000000002526JJLH00    05DNPLANET VAPOR #200        078955    VD84000000002526 N  599976770268                            000000000+                G DG 10351                     000000000  Y000000000 338   0000000000000.00 0000000.00   0000000.00                             000000000000000                                                                                                                                                     01418 A000000000000 0000000000000.23     00050 02200                  
02864410050550114DT67590675900000007088800101800000010180010124001193061900012200241030220230000000647706123000000000185963400022XXXXXX7059       VS11    0001111   NYV1 A E383061756200167N840000000006477S7HK00    05DNPLANET VAPOR #200        618503    VD84000000006477 N  599976770268                            000000000+                F DF 10433                     000000000  Y000000000 338   0000000000000.00 0000000.00   0000000.00                             000000000000000                                                                                                                                                     01418 A000000000000 0000000000000.25     00050 02200                  
02864420050550115DT67590675900000007088800101800000010180010124001193061900012200258030220230000000252606123000000000185963433477XXXXXX9944       VS11    0001111   NYV1 A E583061767188078N8400000000025266K4B00    05DNPLANET VAPOR #200        517216    VD84000000002526 N  599976770268                            000000000+                F DF 10433                     000000000  Y000000000 338   0000000000000.00 0000000.00   0000000.00                             000000000000000                                                                                                                                                     01418 A000000000000 0000000000000.23     00050 02200                  
02864430050550116DT67590675900000007088800101800000010180010124001193061900012200266030220230000000209106123000000000185963408138XXXXXX1216       VS11    0001111   NYV1 A E383061768524608N840000000002091FZLN00    07DNPLANET VAPOR #200        548544    VD84000000002091 N  599976770268                            000000000+                F PF 08170                     000000000  N000000000       0000000000000.00 0000000.00   0000000.00                             000000000000000                                                                                                                                                     01418 A000000000000 0000000000000.39     01150 01500                  
02864440050550117DT67590675900000007088800101800000010180010124001193061900012200274030220230000000213706123000000000185963400022XXXXXX8550       VS11    0001111   NYV1 A E583061769844895N840000000002137B3ZQ00    05DNPLANET VAPOR #200        619645    VD84000000002137 N  599976770268                            000000000+                F DF 10433                     000000000  Y000000000 338   0000000000000.00 0000000.00   0000000.00                             000000000000000                                                                                                                                                     01418 A000000000000 0000000000000.23     00050 02200                  
02864450050550118DT67590675900000007088800101800000010180010124001193061900012200282030220230000000723206123000000000185963455843XXXXXX1172       VS11    0001111   NYV1 A E383061793303860N840000000007232SR3200    07DNPLANET VAPOR #200        140210    VD84000000007232 N  599976770268                            000000000+                F PF 08170                     000000000  N000000000       0000000000000.00 0000000.00   0000000.00                             000000000000000                                                                                                                                                     01418 A000000000000 0000000000000.98     01150 01500                  
