00002610165280002BH6759067590000001330080010280000090170307202306623000000000705851    0000090001201731Y8001026759C03082023                                                                                                                                                                                                                                                                                                                                                                                                                                                                                                                                                                                                 
00002620165280003DT67590675900000013300800102800000010180010224001193066900012009704030620230000001799106623000000000705851436618XXXXXX4625               2111111   NYV4 A7W303062570051012N840000000017991BJLH00    01DNCBD8666317293            012823    VD84000000017991 NP1549977133133   DD4E7BFAB8T9F625088727F  000000000+                F DF 10420                     000000000  Y000000000 338   0000000000000.00 0000000.00   0000000.00                             000000000000000                                                                                                                                                     01424 G000000017991 0000000000000.31     00050 02200                  
00002630165280001P16759067590000001330080010280000001010000000000000000                             2000000000000000000000000              000000000000                    0000000000000000000000000                    000000000000                                                                                                                                                                                                                                                                                                                                                                                                                                                                                        
00002640165280004DT67590675900000013300800102800000010180010287287283066900012010711030620230000000700406623000000000705851532605XXXXXX8576       ME03KE06MS02      NY 4607AMDJA3UHFO0303  N840000000007004          81DNCBD8666317293            92E986    MD84000000007004 N  549977133133   1862E27DA3TD2D6D9D1FD40  000000000+600450S00130    MDJ  00401                     000000000  N                0000000000000.00 0000000.00   0000000.00                             000000000000000                                                                                                                                                   U001424  000000000000 0000000000001.31     01650 01500                  
00002650165280005DT67590675900000013300800102800000010180010224001193066900012010819030620230000001987006623000000000705851414778XXXXXX0503               2111111   NYV4 A7W463063015061403N840000000019870ZJW800    01DNCBD8666317293            813052    VS84000000019870 NP1549977133133   60BC6B4122T2299CE5C4CD9  000000000+                D CD 12109                     000000000  N000000000 498   0000000000000.00 0000000.00   0000000.00                             000000000000000                                                                                                                                                     01424 G000000019870 0000000000005.07     02500 01000                  
00002660165280001P16759067590000001330080010280000001010000000000000000                             2000000000000000000000000              000000000000                    0000000000000000000000000                    000000000000                                                                                                                                                                                                                                                                                                                                                                                                                                                                                        
00002670165280006DT67590675900000013300800102800000010180010224001193066900012011148030620230000000755006623000000000705851436616XXXXXX5171               2111111   NYV4 A7W463063156061261N840000000007550QSDK00    01DNCBD8666317293            00184A    VS84000000007550 NP1549977133133   BED1985919TCF06C86FD6A9  000000000+                A CA 12106                     000000000  N000000000 492   0000000000000.00 0000000.00   0000000.00                             000000000000000                                                                                                                                                     01424 G000000007550 0000000000001.53     01890 01000                  
00002680165280001P16759067590000001330080010280000001010000000000000000                             2000000000000000000000000              000000000000                    0000000000000000000000000                    000000000000                                                                                                                                                                                                                                                                                                                                                                                                                                                                                        
00002690165280007DT67590675900000013300800102800000010180010287287283066900012015934030620230000000019906623000000000705851556150XXXXXX5946                         NY 4607AMCFZ9JAU30306  N840000000000199          81DNCBD8666317293            LS8JU1    MB84000000000199 NP1549977133133   BA64AA87D6TD475E3744235  000000000+600450S00130    MCF  00060                     000000000  N                0000000000000.00 0000000.00   0000000.00                             000000000000000                                                                                                                                                     01424  000000000000 0000000000000.16     02950 01000                  
00002700165280001P1675906759000000133008001028000000101                                                          000000000000          8000            871584967                                                                                                                                                                                                                                                                                                                                                                                                                                                                                                                                                            
00002710165280008DT67590675900000013300800102800000010180010224001193066900012015941030620230000000019906623000000000705851440393XXXXXX2913               2111111   NYV4 A7W303066087096818N84000000000019922WH00    01DNCBD8666317293            728477    VD84000000000199 NP1549977133133   07FB29F915T1914A948924A  000000000+                F PF 08175                     000000000  N000000000       0000000000000.00 0000000.00   0000000.00                             000000000000000                                                                                                                                                     01424 G000000000199 0000000000000.23     01750 02000                  
00002720165280001P16759067590000001330080010280000001010000000000000000                             2000000000000000000000000              000000000000                    0000000000000000000000000                    000000000000                                                                                                                                                                                                                                                                                                                                                                                                                                                                                        
00002730165280009DT67590675900000013300800102800000010180010287287283066900012015967030620230000000019906623000000000705851556371XXXXXX4679                         NY 4607AMCFAFJZJZ0306  N840000000000199          81DNCBD8666317293            GKYFHB    MB84000000000199 NP1549977133133   529273BAF8TF93696595453  000000000+600450S00130    MCF  00060                     000000000  N                0000000000000.00 0000000.00   0000000.00                             000000000000000                                                                                                                                                   U001424  000000000000 0000000000000.16     02950 01000                  
00002740165280001P1675906759000000133008001028000000101                                                          000000000000          8000            871584967                                                                                                                                                                                                                                                                                                                                                                                                                                                                                                                                                            
00002750165280010DT67590675900000013300800102800000010180010287287283066900012016130030720230000002451206623000000000705851527854XXXXXX8456       ME03KE06MS02      NY 4607AMWEYAR6WP0307  N840000000024512          81DNCBD8666317293            60705Z    MC84000000024512 N  549977133133   5DFD49E74FTCC905AB4FB19  000000000+600450S00130    MWE  00737                     000000000  N                0000000000000.00 0000000.00   0000000.00                             000000000000000                                                                                                                                                   U001424  000000000000 0000000000006.47     02600 01000                  
00002760165280011DT67590675900000013300800102800000010180010287287283066900012016148030720230000000499906623000000000705851553718XXXXXX6987       ME03KE06MS02      NY 4607AMDSBC5F8U0307  N840000000004999          81DNCBD8666317293            244974    MD84000000004999 N  549977133133   47B4F76DF9TFD2A3B5FEA2C  000000000+600450S00130    MDS  00401                     000000000  N                0000000000000.00 0000000.00   0000000.00                             000000000000000                                                                                                                                                   U001424  000000000000 0000000000000.97     01650 01500                  
00002770165280012DT67590675900000013300800102800000010180010287287283066900012016155030720230000000149506623000000000705851553718XXXXXX6987       ME03KE06MS02      NY 4607AMDSYJAVWP0307  N840000000001495          81DNCBD8666317293            244985    MD84000000001495 N  549977133133   47B4F76DF9T70BAF173F96B  000000000+600450S00130    MDS  00401                     000000000  N                0000000000000.00 0000000.00   0000000.00                             000000000000000                                                                                                                                                   U001424  000000000000 0000000000000.40     01650 01500                  
00002780165280013DT67590675900000013300800102800000010180010224001193066900012016162030720230000002390306623000000000705851414720XXXXXX7348               2111111   NYV4 A7W383066511079189N840000000023903GFJ400    01DNCBD8666317293            04431C    VS84000000023903 NP1549977133133   0339797935T327DFC2DB261  000000000+                C CC 12108                     000000000  N000000000 496   0000000000000.00 0000000.00   0000000.00                             000000000000000                                                                                                                                                     01424 G000000023903 0000000000005.00     02050 01000                  
00002790165280001P16759067590000001330080010280000001010000000000000000                             2000000000000000000000000              000000000000                    0000000000000000000000000                    000000000000                                                                                                                                                                                                                                                                                                                                                                                                                                                                                        
00002800165280014DT67590675900000013300800102800000010180010224001193066900012016196030720230000002487006623000000000705851434256XXXXXX3894               2111111   NYV4 A7W583066518988024N840000000024870PDS600    01DNCBD8666317293            009021    VD84000000024870 NP1549977133133   5302C95C5DTE1B94A577537  000000000+                F DF 10420                     000000000  Y000000000 338   0000000000000.00 0000000.00   0000000.00                             000000000000000                                                                                                                                                     01424 G000000024870 0000000000000.34     00050 02200                  
00002810165280001P16759067590000001330080010280000001010000000000000000                             2000000000000000000000000              000000000000                    0000000000000000000000000                    000000000000                                                                                                                                                                                                                                                                                                                                                                                                                                                                                        
00002820165280015DT67590675900000013300800102800000010680010274001193066900012016209030720230000000597506623000000000705851414720XXXXXX7348               0000000   NYV4 07T303066533954526N840000000005975T4S400    01CNCBD8666317293            08657C    VS84000000005975 NP1549977133133   0339797935T327DFC2DB261  000000000+                C CC 00245                     000000000  N000000000 166   0000000000000.00 0000000.00   0000000.00                             000000000000000                                                                                                                                                     01424  000000005975-0000000000001.05     01760 00000                  
00002830165280001P16759067590000001330080010280000001060000000000000000                             2000000000000000000000000              000000000000                    0000000000000000000000000                    000000000000                                                                                                                                                                                                                                                                                                                                                                                                                                                                                        
00002840165280016DT67590675900000013300800102800000010180010287287283066900012016213030720230000001987006623000000000705851514989XXXXXX8233       ME03KE06MS02      NY 4607AMDSES978T0307  N840000000019870          81DNCBD8666317293            981512    MD84000000019870 N  549977133133   41C5B68786T3AA3C8A41E8C  000000000+600450S00130    MDS  00401                     000000000  N                0000000000000.00 0000000.00   0000000.00                             000000000000000                                                                                                                                                   U001424  000000000000 0000000000003.43     01650 01500                  
00002850165280017DT67590675900000013300800102800000010680010287287283066900012017443030720230000000987006623000000000705851514989XXXXXX8233                         NY94607N         0307  N840000000000000          81CNCBD8666317293                      MD84000000009870 N  549977133133   41C5B68786T3AA3C8A41E8C  000000000+600450S00130    MDS  00560                     000000000  N                0000000000000.00 0000000.00   0000000.00                             000000000000000                                                                                                                                                     01424  000000000000 0000000000000.00     00000 00000                  
00002860165280018DT67590675900000013300800102800000010180010224001193066900012016287030720230000001987006623000000000705851426684XXXXXX0937               2111111   NYV4 A7W303066564053328N840000000019870DSZ300    01DNCBD8666317293            00164C    VS84000000019870 NP1549977133133   9CBE25E9F2TAE71209C8180  000000000+                C CC 12108                     000000000  N000000000 496   0000000000000.00 0000000.00   0000000.00                             000000000000000                                                                                                                                                     01424 G000000019870 0000000000004.17     02050 01000                  
00002870165280001P16759067590000001330080010280000001010000000000000000                             2000000000000000000000000              000000000000                    0000000000000000000000000                    000000000000                                                                                                                                                                                                                                                                                                                                                                                                                                                                                        
00002880165280019DT67590675900000013300800102800000010180010224001193066900012016295030720230000001260306623000000000705851420767XXXXXX6529               2111111   NYV4 A7W463066567160575N8400000000126038VFX00    01DNCBD8666317293            064510    VD84000000012603 NP1549977133133   58759A64A7T0E3EAD0668F7  000000000+                F DF 10420                     000000000  Y000000000 338   0000000000000.00 0000000.00   0000000.00                             000000000000000                                                                                                                                                     01424 G000000012603 0000000000000.28     00050 02200                  
00002890165280001P16759067590000001330080010280000001010000000000000000                             2000000000000000000000000              000000000000                    0000000000000000000000000                    000000000000                                                                                                                                                                                                                                                                                                                                                                                                                                                                                        
00002900165280020DT67590675900000013300800102800000010180010224001193066900012016311030720230000002487006623000000000705851440393XXXXXX6447               2111111   NYV4 A7W383066569024840N840000000024870L7FG00    01DNCBD8666317293            830099    VD84000000024870 NP1549977133133   C73BFD091DTA4E4822B8272  000000000+                F PF 08175                     000000000  N000000000       0000000000000.00 0000000.00   0000000.00                             000000000000000                                                                                                                                                     01424 G000000024870 0000000000004.55     01750 02000                  
00002910165280001P16759067590000001330080010280000001010000000000000000                             2000000000000000000000000              000000000000                    0000000000000000000000000                    000000000000                                                                                                                                                                                                                                                                                                                                                                                                                                                                                        
00002920165280021DT67590675900000013300800102800000010180010224001193066900012016352030720230000001611206623000000000705851474480XXXXXX7689               2111111   NYV4 A7W383066578654535N840000000016112BQSG00    01DNCBD8666317293            140248    VD84000000016112 NP1549977133133   77FB5A09DETDDF2301F9DB9  000000000+                F DF 10420                     000000000  Y000000000 338   0000000000000.00 0000000.00   0000000.00                             000000000000000                                                                                                                                                     01424 G000000016112 0000000000000.30     00050 02200                  
00002930165280001P16759067590000001330080010280000001010000000000000000                             2000000000000000000000000              000000000000                    0000000000000000000000000                    000000000000                                                                                                                                                                                                                                                                                                                                                                                                                                                                                        
00002940165280022DT67590675900000013300800102800000010680010274001193066900012016365030720230000000595606623000000000705851445102XXXXXX4881               0000000   NYV4 07T463066578966533N840000000005956GVP900    01CNCBD8666317293            007526    VD84000000005956 NP1549977133133   17C0409407TC974FE300C3B  000000000+                F DF 08168                     000000000  Y000000000 369   0000000000000.00 0000000.00   0000000.00                             000000000000000                                                                                                                                                     01424  000000005956 0000000000000.00     00000 00000                  
00002950165280001P16759067590000001330080010280000001060000000000000000                             2000000000000000000000000              000000000000                    0000000000000000000000000                    000000000000                                                                                                                                                                                                                                                                                                                                                                                                                                                                                        
00002960165280023DT67590675900000013300800102800000010680010274001193066900012016373030720230000001987006623000000000705851440066XXXXXX1269               0000000   NYV4 07T303066582156378N840000000019870B5DL00    01CNCBD8666317293            06798D    VS84000000019870 NP1549977133133   9D9C4A57C2TE79AFD3FAD09  000000000+                D CD 00245                     000000000  N000000000 166   0000000000000.00 0000000.00   0000000.00                             000000000000000                                                                                                                                                     01424  000000019870-0000000000003.50     01760 00000                  
00002970165280001P16759067590000001330080010280000001060000000000000000                             2000000000000000000000000              000000000000                    0000000000000000000000000                    000000000000                                                                                                                                                                                                                                                                                                                                                                                                                                                                                        
00002980165280024DT67590675900000013300800102800000010680010274001193066900012016381030720230000000137306623000000000705851427082XXXXXX8840               0000000   NYV4 07T583066585536929N8400000000013735W2H00    01CNCBD8666317293            007194    VS84000000001373 NP1549977133133   6C752B4637T33454AE9D0DB  000000000+                C CC 00245                     000000000  N000000000 166   0000000000000.00 0000000.00   0000000.00                             000000000000000                                                                                                                                                     01424  000000001373-0000000000000.24     01760 00000                  
00002990165280001P16759067590000001330080010280000001060000000000000000                             2000000000000000000000000              000000000000                    0000000000000000000000000                    000000000000                                                                                                                                                                                                                                                                                                                                                                                                                                                                                        
00003000165280025DT67590675900000013300800102800000010180010224001193066900012016394030720230000002255006623000000000705851426684XXXXXX9786               2111111   NYV4 A7W303066591582977N8400000000225506LL200    01DNCBD8666317293            06759B    VS84000000022550 NP1549977133133   EDBA56983BT0104C72250C1  000000000+                B CB 12107                     000000000  N000000000 494   0000000000000.00 0000000.00   0000000.00                             000000000000000                                                                                                                                                     01424 G000000022550 0000000000004.70     02040 01000                  
00003010165280001P16759067590000001330080010280000001010000000000000000                             2000000000000000000000000              000000000000                    0000000000000000000000000                    000000000000                                                                                                                                                                                                                                                                                                                                                                                                                                                                                        
00003020165280026DT67590675900000013300800102800000010680010274001193066900012016407030720230000000534906623000000000705851473702XXXXXX9981               0000000   NYV4 07T463066592189308N840000000005349VHWB00    01CNCBD8666317293            078240    VD84000000005349 NP1549977133133   104DDE7D01T00C3856B07E6  000000000+                F DF 08168                     000000000  Y000000000 369   0000000000000.00 0000000.00   0000000.00                             000000000000000                                                                                                                                                     01424  000000005349 0000000000000.00     00000 00000                  
00003030165280001P16759067590000001330080010280000001060000000000000000                             2000000000000000000000000              000000000000                    0000000000000000000000000                    000000000000                                                                                                                                                                                                                                                                                                                                                                                                                                                                                        
00003040165280027DT67590675900000013300800102800000010180010224001193066900012016410030720230000000549606623000000000705851458453XXXXXX9525               2111111   NYV4 A7W383066607624913N8400000000054968LLC00    01DNCBD8666317293            105242    VD84000000005496 NP1549977133133   4DA4775D81T1E8F93769637  000000000+                F DF 10420                     000000000  Y000000000 338   0000000000000.00 0000000.00   0000000.00                             000000000000000                                                                                                                                                     01424 G000000005496 0000000000000.25     00050 02200                  
00003050165280001P16759067590000001330080010280000001010000000000000000                             2000000000000000000000000              000000000000                    0000000000000000000000000                    000000000000                                                                                                                                                                                                                                                                                                                                                                                                                                                                                        
00003060165280028DT67590675900000013300800102800000010180010224001193066900012016436030720230000002126106623000000000705851435716XXXXXX2839               2111111   NYV4 A7W383066610112786N840000000021261JZ5B00    01DNCBD8666317293            015651    VD84000000021261 NP1549977133133   4D7F98E72CT392463F559FE  000000000+                F DF 00415                     000000000  N000000000       0000000000000.00 0000000.00   0000000.00                             000000000000000                                                                                                                                                     01424 G000000021261 0000000000003.66     01650 01500                  
00003070165280001P16759067590000001330080010280000001010000000000000000                             2000000000000000000000000              000000000000                    0000000000000000000000000                    000000000000                                                                                                                                                                                                                                                                                                                                                                                                                                                                                        
00003080165280029DT67590675900000013300800102800000010680010274001193066900012016449030720230000001063006623000000000705851435716XXXXXX2839               0000000   NYV4 07T303066613149866N840000000010630VCNR00    01CNCBD8666317293            020155    VD84000000010630 NP1549977133133   4D7F98E72CT392463F559FE  000000000+                F DF 08168                     000000000  N000000000 369   0000000000000.00 0000000.00   0000000.00                             000000000000000                                                                                                                                                     01424  000000010630 0000000000000.00     00000 00000                  
00003090165280001P16759067590000001330080010280000001060000000000000000                             2000000000000000000000000              000000000000                    0000000000000000000000000                    000000000000                                                                                                                                                                                                                                                                                                                                                                                                                                                                                        
00003100165280030DT67590675900000013300800102800000010180010224001193066900012016451030720230000001460306623000000000705851435546XXXXXX4226               2111111   NYV4 A7W583066614087016N8400000000146036PV500    01DNCBD8666317293            076103    VD84000000014603 NP1549977133133   A3C538A8E1T79CC9BB82018  000000000+                F DF 10420                     000000000  Y000000000 338   0000000000000.00 0000000.00   0000000.00                             000000000000000                                                                                                                                                     01424 G000000014603 0000000000000.29     00050 02200                  
00003110165280001P16759067590000001330080010280000001010000000000000000                             2000000000000000000000000              000000000000                    0000000000000000000000000                    000000000000                                                                                                                                                                                                                                                                                                                                                                                                                                                                                        
00003120165280031DT67590675900000013300800102800000010180010224001193066900012016485030720230000001558406623000000000705851473702XXXXXX4618               2111111   NYV4 A7W383066615658199N840000000015584H7SZ00    01DNCBD8666317293            076700    VD84000000015584 NP1549977133133   63D45C7B7BT334D22C9010D  000000000+                F DF 10420                     000000000  Y000000000 338   0000000000000.00 0000000.00   0000000.00                             000000000000000                                                                                                                                                     01424 G000000015584 0000000000000.30     00050 02200                  
00003130165280001P16759067590000001330080010280000001010000000000000000                             2000000000000000000000000              000000000000                    0000000000000000000000000                    000000000000                                                                                                                                                                                                                                                                                                                                                                                                                                                                                        
00003140165280032DT67590675900000013300800102800000010180010287287283066900012016502030720230000002487006623000000000705851551046XXXXXX6234       ME03KE06MS02      NY 4607AMDJJHQQ620307  N840000000024870          81DNCBD8666317293            163186    MD84000000024870 N  549977133133   0123E9FE49TC63AB21D8465  000000000+600450S00130    MDJ  00401                     000000000  N                0000000000000.00 0000000.00   0000000.00                             000000000000000                                                                                                                                                   U001424  000000000000 0000000000004.25     01650 01500                  
00003150165280033DT67590675900000013300800102800000010180010224001193066900012016519030720230000001526706623000000000705851442791XXXXXX7093               2111111   NYV4 A7W383066629955892N840000000015267M7MF00    01DNCBD8666317293            617129    VD84000000015267 NP1549977133133   35AC9B46C9TEFBF2D710887  000000000+                F DF 10420                     000000000  Y000000000 338   0000000000000.00 0000000.00   0000000.00                             000000000000000                                                                                                                                                     01424 G000000015267 0000000000000.30     00050 02200                  
00003160165280001P16759067590000001330080010280000001010000000000000000                             2000000000000000000000000              000000000000                    0000000000000000000000000                    000000000000                                                                                                                                                                                                                                                                                                                                                                                                                                                                                        
00003170165280034DT67590675900000013300800102800000010180010287287283066900012016528030720230000000137306623000000000705851517148XXXXXX7917       ME03KE06MS02      NY 4607AMWEIK5O8T0307  N840000000001373          81DNCBD8666317293            04271Z    MC84000000001373 N  549977133133   F9D131E76FTD6EE8BCAE8E2  000000000+600450S00130    MWE  00737                     000000000  N                0000000000000.00 0000000.00   0000000.00                             000000000000000                                                                                                                                                   U001424  000000000000 0000000000000.46     02600 01000                  
00003180165280035DT67590675900000013300800102800000010180010224001193066900012016576030720230000001987006623000000000705851422323XXXXXX1419               2111111   NYV4 A7W383066637837267N8400000000198709KH700    01DNCBD8666317293            814056    VD84000000019870 NP1549977133133   93176DA5A8T1A9F67C4EFB9  000000000+                F DF 10420                     000000000  Y000000000 338   0000000000000.00 0000000.00   0000000.00                             000000000000000                                                                                                                                                     01424 G000000019870 0000000000000.32     00050 02200                  
00003190165280001P16759067590000001330080010280000001010000000000000000                             2000000000000000000000000              000000000000                    0000000000000000000000000                    000000000000                                                                                                                                                                                                                                                                                                                                                                                                                                                                                        
00003200165280036DT67590675900000013300800102800000010680010274001193066900012016605030720230000000549606623000000000705851458453XXXXXX9525               0000000   NYV4 07T583066645495733N840000000005496Q7DV00    01CNCBD8666317293            115549    VD84000000005496 NP1549977133133   4DA4775D81T1E8F93769637  000000000+                F DF 08168                     000000000  Y000000000 369   0000000000000.00 0000000.00   0000000.00                             000000000000000                                                                                                                                                     01424  000000005496 0000000000000.00     00000 00000                  
00003210165280001P16759067590000001330080010280000001060000000000000000                             2000000000000000000000000              000000000000                    0000000000000000000000000                    000000000000                                                                                                                                                                                                                                                                                                                                                                                                                                                                                        
00003220165280037DT67590675900000013300800102800000010180010287287283066900012016619030720230000001557006623000000000705851512106XXXXXX8598       ME03KE06MS02      NY 4607AMPLTWKLCR0307  N840000000015570          81DNCBD8666317293            00797B    MC84000000015570 N  549977133133   3E3228F0EFTB3BF16BF2555  000000000+600450S00130    MPL  00580                     000000000  N                0000000000000.00 0000000.00   0000000.00                             000000000000000                                                                                                                                                   U001424  000000000000 0000000000003.37     02100 01000                  
00003230165280038DT67590675900000013300800102800000010180010276509753066900012016624030720230000002121106623000000000705851601129XXXXXX2921   BA00                  NY 4 07N743056635371335N840000000021211    00    01DNCBD8666317293            00705R    DS84000000021211 N  549977133133070                         000000000+1015104910600   DCCDI11325003503  121217000000 000000000  0          460   0000000000000.00 0000000.00   0000000.00                             000000000000000                                                                                                                                                     01424  000000000000 0000000000004.41     02030 01000                  
00003240165280039DT67590675900000013300800102800000010180010287287283066900012016635030720230000002136506623000000000705851517546XXXXXX9184       ME03KE06MS02      NY 4607AMDJUDZLCR0307  N840000000021365          81DNCBD8666317293            007242    MD84000000021365 N  549977133133   F750922E0FT8CF4D9EFBF95  000000000+600450S00130    MDJ  10813                     000000000  1                0000000000000.00 0000000.00   0000000.00                             000000000000000                                                                                                                                                   U001424  000000000000 0000000000000.33     00050 02200                  
00003250165280040DT67590675900000013300800102800000010180010224001193066900012016642030720230000000160306623000000000705851468018XXXXXX0439               2111111   NYV4 A7W463066655896787N8400000000016037DLJ00    01DNCBD8666317293            389268    VD84000000001603 NP1549977133133   394399613ATDD293B8C2037  000000000+                F DF 10420                     000000000  Y000000000 338   0000000000000.00 0000000.00   0000000.00                             000000000000000                                                                                                                                                     01424 G000000001603 0000000000000.23     00050 02200                  
00003260165280001P16759067590000001330080010280000001010000000000000000                             2000000000000000000000000              000000000000                    0000000000000000000000000                    000000000000                                                                                                                                                                                                                                                                                                                                                                                                                                                                                        
00003270165280041DT67590675900000013300800102800000010180010224001193066900012016659030720230000001987006623000000000705851483316XXXXXX4501               2111111   NYV4 A7W463066658101676N840000000019870HBMD00    01DNCBD8666317293            001613    VD84000000019870 NP1549977133133   DD38DF3FAET988D9E61A87B  000000000+                F DF 10420                     000000000  Y000000000 338   0000000000000.00 0000000.00   0000000.00                             000000000000000                                                                                                                                                     01424 G000000019870 0000000000000.32     00050 02200                  
00003280165280001P16759067590000001330080010280000001010000000000000000                             2000000000000000000000000              000000000000                    0000000000000000000000000                    000000000000                                                                                                                                                                                                                                                                                                                                                                                                                                                                                        
00003290165280042DT67590675900000013300800102800000010180010224001193066900012016667030720230000001628006623000000000705851438857XXXXXX4374               2111111   NYV4 A7W463066660573329N84000000001628057WB00    01DNCBD8666317293            01716D    VS84000000016280 NP1549977133133   1D83742C9ET509D849C611D  000000000+                D CD 12109                     000000000  N000000000 498   0000000000000.00 0000000.00   0000000.00                             000000000000000                                                                                                                                                     01424 G000000016280 0000000000004.17     02500 01000                  
00003300165280001P16759067590000001330080010280000001010000000000000000                             2000000000000000000000000              000000000000                    0000000000000000000000000                    000000000000                                                                                                                                                                                                                                                                                                                                                                                                                                                                                        
00003310165280043DT67590675900000013300800102800000010180010287287283066900012016684030720230000000533006623000000000705851512107XXXXXX1554       ME03KE06PT01      NY 4607AMCWUWLKCR0307  N840000000005330          81DNCBD8666317293            00737P    MC84000000005330 N  549977133133   F801D4204ATAA466FB89C58  000000000+600450S00130    MCW  00642                     000000000  N                0000000000000.00 0000000.00   0000000.00                             000000000000000                                                                                                                                                   U001424  000000000000 0000000000001.27     02200 01000                  
00003320165280044DT67590675900000013300800102800000010180010287287283066900012016700030720230000000159406623000000000705851512107XXXXXX1554       ME03KE06PT01      NY 4607AMCWIW5ACS0307  N840000000001594          81DNCBD8666317293            00745P    MC84000000001594 N  549977133133   F801D4204AT545B4EAFA2CD  000000000+600450S00130    MCW  00642                     000000000  N                0000000000000.00 0000000.00   0000000.00                             000000000000000                                                                                                                                                   U001424  000000000000 0000000000000.45     02200 01000                  
00003330165280045DT67590675900000013300800102800000010180010287287283066900012016742030720230000002642406623000000000705851525650XXXXXX4381       ME03KE06MS02      NY 4607AMPLU9F3CR0307  N840000000026424          81DNCBD8666317293            00796B    MC84000000026424 N  549977133133   6BB581C57FT29BC690A6E68  000000000+600450S00130    MPL  00580                     000000000  N                0000000000000.00 0000000.00   0000000.00                             000000000000000                                                                                                                                                   U001424  000000000000 0000000000005.65     02100 01000                  
00003340165280046DT67590675900000013300800102800000010180010224001193066900012016758030720230000001907006623000000000705851414718XXXXXX2853               2111111   NYV4 A7W383066686887623N840000000019070FJ6Z00    01DNCBD8666317293            007101    VS84000000019070 NP1549977133133   2740B2CB35T5DE46F32E1E2  000000000+                D CD 12109                     000000000  N000000000 498   0000000000000.00 0000000.00   0000000.00                             000000000000000                                                                                                                                                     01424 G000000019070 0000000000004.87     02500 01000                  
00003350165280001P16759067590000001330080010280000001010000000000000000                             2000000000000000000000000              000000000000                    0000000000000000000000000                    000000000000                                                                                                                                                                                                                                                                                                                                                                                                                                                                                        
00003360165280047DT67590675900000013300800102800000010680010274001193066900012016761030720230000001687006623000000000705851434256XXXXXX3894               0000000   NYV4 07T303066693591643N840000000016870SXLM00    01CNCBD8666317293            002909    VD84000000016870 NP1549977133133   5302C95C5DTE1B94A577537  000000000+                F DF 08168                     000000000  Y000000000 369   0000000000000.00 0000000.00   0000000.00                             000000000000000                                                                                                                                                     01424  000000016870 0000000000000.00     00000 00000                  
00003370165280001P16759067590000001330080010280000001060000000000000000                             2000000000000000000000000              000000000000                    0000000000000000000000000                    000000000000                                                                                                                                                                                                                                                                                                                                                                                                                                                                                        
00003380165280048DT67590675900000013300800102800000010180010224001193066900012016774030720230000000149506623000000000705851400022XXXXXX9275               2111111   NYV4 A7W383066699627862N840000000001495RW3500    01DNCBD8666317293            626121    VD84000000001495 NP1549977133133   1AFC855BF8TC55B06B8BEF4  000000000+                F DF 10420                     000000000  Y000000000 338   0000000000000.00 0000000.00   0000000.00                             000000000000000                                                                                                                                                     01424 G000000001495 0000000000000.23     00050 02200                  
00003390165280001P16759067590000001330080010280000001010000000000000000                             2000000000000000000000000              000000000000                    0000000000000000000000000                    000000000000                                                                                                                                                                                                                                                                                                                                                                                                                                                                                        
00003400165280049DT67590675900000013300800102800000010180010224001193066900012016808030720230000001652806623000000000705851474481XXXXXX3960               2111111   NYV4 A7W383066704558026N840000000016528GFTH00    01DNCBD8666317293            143441    VD84000000016528 NP1549977133133   D672BC4B76TFEBAEBCDD6D0  000000000+                F DF 10420                     000000000  Y000000000 338   0000000000000.00 0000000.00   0000000.00                             000000000000000                                                                                                                                                     01424 G000000016528 0000000000000.30     00050 02200                  
00003410165280001P16759067590000001330080010280000001010000000000000000                             2000000000000000000000000              000000000000                    0000000000000000000000000                    000000000000                                                                                                                                                                                                                                                                                                                                                                                                                                                                                        
00003420165280050DT67590675900000013300800102800000010180010287287283066900012016858030720230000001799106623000000000705851542418XXXXXX9622       ME03KE06PT01      NY 4607AMCWS934DJ0307  N840000000017991          81DNCBD8666317293            26795P    MC84000000017991 N  549977133133   FC0EC6662BT5C73622E2B99  000000000+600450S00130    MCW  00642                     000000000  N                0000000000000.00 0000000.00   0000000.00                             000000000000000                                                                                                                                                   U001424  000000000000 0000000000004.06     02200 01000                  
00003430165280051DT67590675900000013300800102800000010680010274001193066900012017454030720230000000545106623000000000705851435544XXXXXX4343               0000000   NY94 07N000000000000000N   000000000000          01CNCBD8666317293                      VD84000000005451 N  549977133133                            000000000+                F DF 08168                     000000000  Y000000000 369   0000000000000.00 0000000.00   0000000.00                             000000000000000                                                                                                                                                     01424  000000000000 0000000000000.00     00000 00000                  
00003440165280052DT67590675900000013300800102800000010680010274001193066900012017462030720230000000348906623000000000705851435544XXXXXX4343               0000000   NY94 07N000000000000000N   000000000000          01CNCBD8666317293                      VD84000000003489 N  549977133133                            000000000+                F DF 08168                     000000000  Y000000000 369   0000000000000.00 0000000.00   0000000.00                             000000000000000                                                                                                                                                     01424  000000000000 0000000000000.00     00000 00000                  
00003450165280053DT67590675900000013300800102800000010180010287287283066900012016924030720230000002190706623000000000705851524363XXXXXX4291       ME03KE06PT01      NY 4607AMCWTZIVDJ0307  N840000000021907          81DNCBD8666317293            00785T    MC84000000021907 N  549977133133   6F4D288786T5144834D180B  000000000+600450S00130    MCW  02182                     000000000  N                0000000000000.00 0000000.00   0000000.00                             000000000000000                                                                                                                                                   U001424  000000000000 0000000000005.80     02600 01000                  
00003460165280054DT67590675900000013300800102800000010180010287287283066900012016932030720230000000701906623000000000705851517805XXXXXX3473       ME03KE06MS02      NY 4607AMPLYIEACR0307  N840000000007019          81DNCBD8666317293            07411B    MC84000000007019 N  549977133133   F7CB644EFFTCFAE476FD445  000000000+600450S00130    MPL  00580                     000000000  N                0000000000000.00 0000000.00   0000000.00                             000000000000000                                                                                                                                                   U001424  000000000000 0000000000001.57     02100 01000                  
00003470165280055DT67590675900000013300800102800000010180010224001193066900012016998030720230000001987006623000000000705851481582XXXXXX0588               2111111   NYV4 A7W463066755991669N8400000000198707H6Z00    01DNCBD8666317293            155696    VD84000000019870 NP1549977133133   8A9668FAC5T1F16CEFF6CAE  000000000+                F DF 10420                     000000000  Y000000000 338   0000000000000.00 0000000.00   0000000.00                             000000000000000                                                                                                                                                     01424 G000000019870 0000000000000.32     00050 02200                  
00003480165280001P16759067590000001330080010280000001010000000000000000                             2000000000000000000000000              000000000000                    0000000000000000000000000                    000000000000                                                                                                                                                                                                                                                                                                                                                                                                                                                                                        
00003490165280056DT67590675900000013300800102800000010180010224001193066900012017004030720230000002487006623000000000705851481582XXXXXX1914               2111111   NYV4 A7W383066761566032N840000000024870CZ3H00    01DNCBD8666317293            140490    VD84000000024870 NP1549977133133   B873C3D7FFT85377260C664  000000000+                F DF 10420                     000000000  Y000000000 338   0000000000000.00 0000000.00   0000000.00                             000000000000000                                                                                                                                                     01424 G000000024870 0000000000000.34     00050 02200                  
00003500165280001P16759067590000001330080010280000001010000000000000000                             2000000000000000000000000              000000000000                    0000000000000000000000000                    000000000000                                                                                                                                                                                                                                                                                                                                                                                                                                                                                        
00003510165280057DT67590675900000013300800102800000010180010224001193066900012017020030720230000001917806623000000000705851434258XXXXXX2352               2111111   NYV4 A7W583066782852488N8400000000191787N2700    01DNCBD8666317293            068160    VD84000000019178 NP1549977133133   D61B087412T06DAD708A09A  000000000+                F DF 10420                     000000000  Y000000000 338   0000000000000.00 0000000.00   0000000.00                             000000000000000                                                                                                                                                     01424 G000000019178 0000000000000.32     00050 02200                  
00003520165280001P16759067590000001330080010280000001010000000000000000                             2000000000000000000000000              000000000000                    0000000000000000000000000                    000000000000                                                                                                                                                                                                                                                                                                                                                                                                                                                                                        
00003530165280058DT67590675900000013300800102800000010680010274001193066900012017033030720230000000794806623000000000705851416085XXXXXX5669               0000000   NYV4 07T303066784874518N8400000000079485NWQ00    01CNCBD8666317293            008230    VD84000000007948 NP1549977133133   6808DD97D1T43B33B903F9D  000000000+                F DF 08168                     000000000  Y000000000 369   0000000000000.00 0000000.00   0000000.00                             000000000000000                                                                                                                                                     01424  000000007948 0000000000000.00     00000 00000                  
00003540165280001P16759067590000001330080010280000001060000000000000000                             2000000000000000000000000              000000000000                    0000000000000000000000000                    000000000000                                                                                                                                                                                                                                                                                                                                                                                                                                                                                        
00003550165280059DT67590675900000013300800102800000010180010224001193066900012017053030720230000002487006623000000000705851434256XXXXXX7016               2111111   NYV4 A7W463066788394627N840000000024870KXQH00    01DNCBD8666317293            056011    VD84000000024870 NP1549977133133   C01A63BBF5TB4DC37251769  000000000+                F DF 10420                     000000000  Y000000000 338   0000000000000.00 0000000.00   0000000.00                             000000000000000                                                                                                                                                     01424 G000000024870 0000000000000.34     00050 02200                  
00003560165280001P16759067590000001330080010280000001010000000000000000                             2000000000000000000000000              000000000000                    0000000000000000000000000                    000000000000                                                                                                                                                                                                                                                                                                                                                                                                                                                                                        
00003570165280060DT67590675900000013300800102800000010180010224001193066900012017079030720230000002126106623000000000705851474476XXXXXX9751               2111111   NYV4 A7W583066799699732N840000000021261HVSC00    01DNCBD8666317293            141520    VD84000000021261 NP1549977133133   F0DBDE9FA1TF9F65CBCBB3A  000000000+                F DF 10420                     000000000  Y000000000 338   0000000000000.00 0000000.00   0000000.00                             000000000000000                                                                                                                                                     01424 G000000021261 0000000000000.33     00050 02200                  
00003580165280001P16759067590000001330080010280000001010000000000000000                             2000000000000000000000000              000000000000                    0000000000000000000000000                    000000000000                                                                                                                                                                                                                                                                                                                                                                                                                                                                                        
00003590165280061DT67590675900000013300800102800000010180010224001193066900012017095030720230000001987006623000000000705851426684XXXXXX7540               2111111   NYV4 A7W303066820216254N840000000019870PDND00    01DNCBD8666317293            01035C    VS84000000019870 NP1549977133133   19CC117CF3TEA85B44777CA  000000000+                C CC 12108                     000000000  N000000000 496   0000000000000.00 0000000.00   0000000.00                             000000000000000                                                                                                                                                     01424 G000000019870 0000000000004.17     02050 01000                  
00003600165280001P16759067590000001330080010280000001010000000000000000                             2000000000000000000000000              000000000000                    0000000000000000000000000                    000000000000                                                                                                                                                                                                                                                                                                                                                                                                                                                                                        
00003610165280062DT67590675900000013300800102800000010180010287287283066900012017146030720230000001987006623000000000705851521333XXXXXX0177       ME03KE06MS02      NY 4607AMWEGD6VDK0307  N840000000019870          81DNCBD8666317293            00787Y    MC84000000019870 N  549977133133   65CD29D185T364257FCABCB  000000000+600450S00130    MWE  00642                     000000000  N                0000000000000.00 0000000.00   0000000.00                             000000000000000                                                                                                                                                   U001424  000000000000 0000000000004.47     02200 01000                  
00003620165280063DT67590675900000013300800102800000010180010287287283066900012017153030720230000002636206623000000000705851511713XXXXXX4685                         NY 4607AMDBPGOZPT0307  N840000000026362          81DNCBD8666317293            447092    MD84000000026362 NP1549977133133                            000000000+600450S00130    MDB  00063                     000000000  N                0000000000000.00 0000000.00   0000000.00                             000000000000000                                                                                                                                                   U001424  000000000000 0000000000005.50     02050 01000                  
00003630165280001P1675906759000000133008001028000000101                                                 000001492000000000000          8000   000000000871584967            000000000000                                                                                                                                                                                                                                                                                                                                                                                                                                                                                                                                    
00003640165280064DT67590675900000013300800102800000010180010224001193066900012017186030720230000002126106623000000000705851435546XXXXXX2292               2111111   NYV4 A7W303066851895421N840000000021261RQRZ00    01DNCBD8666317293            073062    VD84000000021261 NP1549977133133   06C4F6F5B8T06CA1CFDA138  000000000+                F DF 10420                     000000000  Y000000000 338   0000000000000.00 0000000.00   0000000.00                             000000000000000                                                                                                                                                     01424 G000000021261 0000000000000.33     00050 02200                  
00003650165280001P16759067590000001330080010280000001010000000000000000                             2000000000000000000000000              000000000000                    0000000000000000000000000                    000000000000                                                                                                                                                                                                                                                                                                                                                                                                                                                                                        
00003660165280065DT67590675900000013300800102800000010180010224001193066900012017293030720230000000659906623000000000705851434256XXXXXX5545               2111111   NYV4 A7W463067006569947N840000000006599MSRR00    01DNCBD8666317293            090949    VD84000000006599 NP1549977133133   3491BB5336T297E5F1528C8  000000000+                F DF 10420                     000000000  Y000000000 338   0000000000000.00 0000000.00   0000000.00                             000000000000000                                                                                                                                                     01424 G000000006599 0000000000000.25     00050 02200                  
00003670165280001P16759067590000001330080010280000001010000000000000000                             2000000000000000000000000              000000000000                    0000000000000000000000000                    000000000000                                                                                                                                                                                                                                                                                                                                                                                                                                                                                        
00003680165280066DT67590675900000013300800102800000010180010224001193066900012017319030720230000001987006623000000000705851470523XXXXXX8926               2111111   NYV4 A7W383067017201804N8400000000198707GGP00    01DNCBD8666317293            062840    VD84000000019870 NP1549977133133   09189E165FT950A5F7DE126  000000000+                F DF 00415                     000000000  N000000000       0000000000000.00 0000000.00   0000000.00                             000000000000000                                                                                                                                                     01424 G000000019870 0000000000003.43     01650 01500                  
00003690165280001P16759067590000001330080010280000001010000000000000000                             2000000000000000000000000              000000000000                    0000000000000000000000000                    000000000000                                                                                                                                                                                                                                                                                                                                                                                                                                                                                        
00003700165280067BH6759067590000001516480088880000090170307202306623000000000076708    0000090001070109Y8008886759C03082023                                                                                                                                                                                                                                                                                                                                                                                                                                                                                                                                                                                                 
00003710165280068DT67590675900000015164800888800000010180088824001193066900010700965030720230000002487006623000000000076708462406XXXXXX9097               2111111   NYV4 A7W463066332868895N840000000024870K9QV00    01DNKETOFUSION477.COM        725464    VD84000000024870 NP1599977360677   DC96F58B00T502C770CB87D  000000000+                F DF 00415                     000000000  N000000000       0000000000000.00 0000000.00   0000000.00                             000000000000000                                                                                                                                                     01424 G000000024870 0000000000004.25     01650 01500                  
00003720165280001P16759067590000001516480088880000001010000000000000000                             2000000000000000000000000              000000000000                    0000000000000000000000000                    000000000000                                                                                                                                                                                                                                                                                                                                                                                                                                                                                        
00003730165280069DT67590675900000015164800888800000010680088887287283066900010700974030720230000000695506623000000000076708521333XXXXXX5854                         NY 4607AMPLFAND8T0307  N840000000006955          81CNKETOFUSION477.COM        007592    MC84000000006955 N  599977360677   8615D44315TAA4C2A878AB5  000000000+600450S00130    MPL  00564                     000000000  N                0000000000000.00 0000000.00   0000000.00                             000000000000000                                                                                                                                                     01424  000000000000-0000000000001.22     01750 00000                  
00003740165280070DT67590675900000015164800888800000010180088887287283066900010700990030720230000001987006623000000000076708554462XXXXXX8210       ME03KE06MS02      NY 4607AMCSUGMFAE0307  N840000000019870          81DNKETOFUSION477.COM        00845B    MC84000000019870 N  599977360677   2235A038E6T817CAFE47F64  000000000+600450S00130    MCS  00580                     000000000  N                0000000000000.00 0000000.00   0000000.00                             000000000000000                                                                                                                                                   U001424  000000000000 0000000000004.27     02100 01000                  
00003750165280071DT67590675900000015164800888800000010180088824001193066900010701005030720230000000519006623000000000076708482069XXXXXX9423               2111111   NYV4 A7W463066648774330N8400000000051906QTW00    01DNKETOFUSION477.COM        007509    VS84000000005190 NP1599977360677   B647E7233DT05B076DC8044  000000000+                A CA 12106                     000000000  N000000000 492   0000000000000.00 0000000.00   0000000.00                             000000000000000                                                                                                                                                     01424 G000000005190 0000000000001.08     01890 01000                  
00003760165280001P16759067590000001516480088880000001010000000000000000                             2000000000000000000000000              000000000000                    0000000000000000000000000                    000000000000                                                                                                                                                                                                                                                                                                                                                                                                                                                                                        
00003770165280072DT67590675900000015164800888800000010180088887287283066900010701055030720230000000654806623000000000076708559920XXXXXX3706       ME03KE06MS02      NY 4607AMDJWJ8LCR0307  N840000000006548          81DNKETOFUSION477.COM        449332    MD84000000006548 N  599977360677   F28C1CD762T0F7A492CA7A8  000000000+600450S00130    MDJ  00401                     000000000  N                0000000000000.00 0000000.00   0000000.00                             000000000000000                                                                                                                                                   U001424  000000000000 0000000000001.23     01650 01500                  
00003780165280073DT67590675900000015164800888800000010180088887287283066900010701063030720230000000519006623000000000076708559920XXXXXX3706       ME03KE06MS02      NY 4607AMDJWK3RCR0307  N840000000005190          81DNKETOFUSION477.COM        449445    MD84000000005190 N  599977360677   F28C1CD762TCF28BDE6397F  000000000+600450S00130    MDJ  00401                     000000000  N                0000000000000.00 0000000.00   0000000.00                             000000000000000                                                                                                                                                   U001424  000000000000 0000000000001.01     01650 01500                  
00003790165280074DT67590675900000015164800888800000010180088824001193066900010701070030720230000002255006623000000000076708414709XXXXXX0399               2111111   NYV4 A7W583066800391824N8400000000225503HZH00    01DNKETOFUSION477.COM        00783D    VS84000000022550 NP1599977360677   9868447191T06B3AD6DCB23  000000000+                D CD 12109                     000000000  N000000000 498   0000000000000.00 0000000.00   0000000.00                             000000000000000                                                                                                                                                     01424 G000000022550 0000000000005.74     02500 01000                  
00003800165280001P16759067590000001516480088880000001010000000000000000                             2000000000000000000000000              000000000000                    0000000000000000000000000                    000000000000                                                                                                                                                                                                                                                                                                                                                                                                                                                                                        
00003810165280075DT67590675900000015164800888800000010680088873011003066900010701092030620230000000055506623000000000076708376742XXXXX1001                          NY94 07N000000000000000N840000000000000          01CNGOLDAXA LLC                        AM84000000000555 Y  599977360677                            000000000+6004S0000130 258     11314                     000000000                   0000000000000.00 0000000.00   0000000.00                             000000000000000 61248972086759675900000015164 GOLDAXA LLC              1721 W SORRENTO LANE     8014041097      84043     NEIL@GOLDAXAPRODUCTS.COM                  01324  000000000000 0000000000000.00     00000 00000                  
00003820165280076BH6759067590000000370780088880000090170307202306623000000000054004    0000090001530360Y8008886759C03082023                                                                                                                                                                                                                                                                                                                                                                                                                                                                                                                                                                                                 
00003830165280077DT67590675900000003707800888800000010180088824001193066900015303559030720230000002689106623000000000054004435619XXXXXX3498               2111111   NYV4 A7W583066380460545N8400000000268913V4R00    01DNMR HEMP FLOWER           143242    VD84000000026891 NP1549976053336   86783                    000000000+                F DF 10420                     000000000  Y000000000 338   0000000000000.00 0000000.00   0000000.00                             000000000000000                                                                                                                                                     01424 G000000026891 0000000000000.35     00050 02200                  
00003840165280001P16759067590000000370780088880000001010000000000000000                             2000000000000000000000000              000000000000                    0000000000000000000000000                    000000000000                                                                                                                                                                                                                                                                                                                                                                                                                                                                                        
00003850165280078DT67590675900000003707800888800000010180088887287283066900015303568030720230000000791906623000000000054004542418XXXXXX7822       ME03KE06MS02      NY 4607AMWEFUU0LF0307  N840000000007919          81DNMR HEMP FLOWER           16505P    MC84000000007919 N  549976053336   86784                    000000000+600450S00130    MWE  00737                     000000000  N                0000000000000.00 0000000.00   0000000.00                             000000000000000                                                                                                                                                   U001424  000000000000 0000000000002.16     02600 01000                  
00003860165280079DT67590675900000003707800888800000010180088824001193066900015303575030720230000000149806623000000000054004415201XXXXXX2973               2111111   NYV4 A7W303066666321029N8400000000014986MP200    01DNMR HEMP FLOWER           130857    VD84000000001498 NP1549976053336   86798                    000000000+                F DF 00415                     000000000  N000000000       0000000000000.00 0000000.00   0000000.00                             000000000000000                                                                                                                                                     01424 G000000001498 0000000000000.40     01650 01500                  
00003870165280001P16759067590000000370780088880000001010000000000000000                             2000000000000000000000000              000000000000                    0000000000000000000000000                    000000000000                                                                                                                                                                                                                                                                                                                                                                                                                                                                                        
00003880165280080DT67590675900000003707800888800000010180088824001193066900015303583030720230000000349806623000000000054004473703XXXXXX4316               2111111   NYV4 A7W463066668693423N8400000000034984RMT00    01DNMR HEMP FLOWER           057423    VD84000000003498 NP1549976053336   86799                    000000000+                F DF 10420                     000000000  Y000000000 338   0000000000000.00 0000000.00   0000000.00                             000000000000000                                                                                                                                                     01424 G000000003498 0000000000000.24     00050 02200                  
00003890165280001P16759067590000000370780088880000001010000000000000000                             2000000000000000000000000              000000000000                    0000000000000000000000000                    000000000000                                                                                                                                                                                                                                                                                                                                                                                                                                                                                        
00003900165280081DT67590675900000003707800888800000010180088876509753066900015303599030720230000001200006623000000000054004601100XXXXXX8016   BA00                  NY 4 07N863056867568387N840000000012000    00    01DNMR HEMP FLOWER           00737R    DS84000000012000 N  549976053336070                         000000000+1015104910600   DCCDI11325500587  183916000000 000000000  0          460   0000000000000.00 0000000.00   0000000.00                             000000000000000                                                                                                                                                     01424  000000000000 0000000000002.54     02030 01000                  
00003910165280082DT67590675900000003707800888800000010180088887287283066900015303600030720230000000219806623000000000054004529149XXXXXX5708       ME03KE06MS02      NY 4607AMPLHETZE40307  N840000000002198          81DNMR HEMP FLOWER           07622B    MC84000000002198 N  549976053336   86818                    000000000+600450S00130    MPL  00580                     000000000  N                0000000000000.00 0000000.00   0000000.00                             000000000000000                                                                                                                                                   U001424  000000000000 0000000000000.56     02100 01000                  
00003920165280083BH6759067590000000288180088880000090170307202306623000000000006912    0000090001710146Y8008886759C03082023                                                                                                                                                                                                                                                                                                                                                                                                                                                                                                                                                                                                 
00003930165280084DT67590675900000002881800888800000010180088824001193066900017101464030720230000000691206623000000000006912480639XXXXXX8671               2111111   NYV4 A7W383066335632248N840000000006912P8V800    01DNHAPPY HIPPIE             662239    VD84000000006912 NP1549976044904   1964                     000000000+                F DF 00415                     000000000  N000000000       0000000000000.00 0000000.00   0000000.00                             000000000000000                                                                                                                                                     01424 G000000006912 0000000000001.29     01650 01500                  
00003940165280001P16759067590000000288180088880000001010000000000000000                             2000000000000000000000000              000000000000                    0000000000000000000000000                    000000000000                                                                                                                                                                                                                                                                                                                                                                                                                                                                                        
00003950165280085BH6759067590000001427480010280000090170307202306623000000000712702    0000090001201484Y8001026759C03082023                                                                                                                                                                                                                                                                                                                                                                                                                                                                                                                                                                                                 
00003960165280086DT67590675900000014274800102800000010180010287287283066900012009358030620230000000600406623000000000712702557619XXXXXX3484       ME03KE06MS02      NY 4607AMDJH0AEZI0303  N840000000006004          81DNCBD8666317293            021056    MD84000000006004 N  549977145232   7C984CDDF6T5B6D91ECC5E0  000000000+600450S00130    MDJ  00401                     000000000  N                0000000000000.00 0000000.00   0000000.00                             000000000000000                                                                                                                                                   U001424  000000000000 0000000000001.14     01650 01500                  
00003970165280087DT67590675900000014274800102800000010180010224001193066900012009696030620230000002667306623000000000712702448262XXXXXX1857               2111111   NYV4 A7W463062642056573N8400000000266733C4M00    01DNCBD8666317293            115005    VD84000000026673 NP1549977145232   AEDB52877FT63DF4513CCA0  000000000+                F DF 00415                     000000000  N000000000       0000000000000.00 0000000.00   0000000.00                             000000000000000                                                                                                                                                     01424 G000000026673 0000000000004.55     01650 01500                  
00003980165280001P16759067590000001427480010280000001010000000000000000                             2000000000000000000000000              000000000000                    0000000000000000000000000                    000000000000                                                                                                                                                                                                                                                                                                                                                                                                                                                                                        
00003990165280088DT67590675900000014274800102800000010180010287287283066900012010356030620230000000600406623000000000712702546616XXXXXX3535       ME03KE06PT01      NY 4607AMCWD626FO0303  N840000000006004          81DNCBD8666317293            81102Z    MC84000000006004 N  549977145232   4A9E06CBB9T740C60EBA585  000000000+600450S00130    MCW  00642                     000000000  N                0000000000000.00 0000000.00   0000000.00                             000000000000000                                                                                                                                                   U001424  000000000000 0000000000001.42     02200 01000                  
00004000165280089DT67590675900000014274800102800000010180010224001193066900012010363030620230000000643906623000000000712702444796XXXXXX9205               2111111   NYV4 A7W463063054043583N840000000006439S66S00    01DNCBD8666317293            003829    VS84000000006439 NP1549977145232   88AAEE8F1FT60A706F48141  000000000+                A CA 12106                     000000000  N000000000 492   0000000000000.00 0000000.00   0000000.00                             000000000000000                                                                                                                                                     01424 G000000006439 0000000000001.32     01890 01000                  
00004010165280001P16759067590000001427480010280000001010000000000000000                             2000000000000000000000000              000000000000                    0000000000000000000000000                    000000000000                                                                                                                                                                                                                                                                                                                                                                                                                                                                                        
00004020165280090DT67590675900000014274800102800000010180010224001193066900012013375030620230000001523106623000000000712702440066XXXXXX3337               2111111   NYV4 A7W303066100290955N8400000000152318R7Q00    01DNCBD8666317293            07353D    VS84000000015231 NP1549977145232   2F904687B8TB5884D6DDD04  000000000+                D CD 12109                     000000000  N000000000 498   0000000000000.00 0000000.00   0000000.00                             000000000000000                                                                                                                                                     01424 G000000015231 0000000000003.91     02500 01000                  
