00004000138080002BH6759067590000000370780088880000090170206202303723000000000101814    0000090001240174Y8008886759C02072023                                                                                                                                                                                                                                                                                                                                                                                                                                                                                                                                                                                                 
00004010138080003DT67590675900000003707800888800000010180088824001193037900012401691020620230000003611603723000000000101814426684XXXXXX6006               2111111   NYV4 A7W463037537769912N84000000003611634CQ00    01DNMR HEMP FLOWER           08497C    VS84000000036116 NP1549976053336   85318                    000000000+                C CC 12108                     000000000  N000000000 496   0000000000000.00 0000000.00   0000000.00                             000000000000000                                                                                                                                                     01424 G000000036116 0000000000007.50     02050 01000                  
00004020138080001P16759067590000000370780088880000001010000000000000000                             2000000000000000000000000              000000000000                    0000000000000000000000000                    000000000000                                                                                                                                                                                                                                                                                                                                                                                                                                                                                        
00004030138080004DT67590675900000003707800888800000010180088887287283037900012401718020620230000001800003723000000000101814515676XXXXXX5269       ME03KE06MS02      NY 4607AMWEV2WSLL0206  N840000000018000          81DNMR HEMP FLOWER           09736Z    MC84000000018000 N  549976053336   85320                    000000000+600450S00130    MWE  00737                     000000000  N                0000000000000.00 0000000.00   0000000.00                             000000000000000                                                                                                                                                   U001424  000000000000 0000000000004.78     02600 01000                  
00004040138080005DT67590675900000003707800888800000010180088824001193037900012401725020620230000001029803723000000000101814473703XXXXXX6039               2111111   NYV4 A7W583037705347905N840000000010298JJWQ00    01DNMR HEMP FLOWER           011224    VD84000000010298 NP1549976053336   85354                    000000000+                F DF 10420                     000000000  Y000000000 338   0000000000000.00 0000000.00   0000000.00                             000000000000000                                                                                                                                                     01424 G000000010298 0000000000000.27     00050 02200                  
00004050138080001P16759067590000000370780088880000001010000000000000000                             2000000000000000000000000              000000000000                    0000000000000000000000000                    000000000000                                                                                                                                                                                                                                                                                                                                                                                                                                                                                        
00004060138080006DT67590675900000003707800888800000010180088824001193037900012401733020620230000001450003723000000000101814406049XXXXXX5063               2111111   NYV4 A7W583037858651257N8400000000145007WSQ00    01DNMR HEMP FLOWER           075105    VD84000000014500 NP1549976053336   85373                    000000000+                F DF 10420                     000000000  Y000000000 338   0000000000000.00 0000000.00   0000000.00                             000000000000000                                                                                                                                                     01424 G000000014500 0000000000000.29     00050 02200                  
00004070138080001P16759067590000000370780088880000001010000000000000000                             2000000000000000000000000              000000000000                    0000000000000000000000000                    000000000000                                                                                                                                                                                                                                                                                                                                                                                                                                                                                        
00004080138080007DT67590675900000003707800888800000010180088876509753037900012401749020620230000002290003723000000000101814601120XXXXXX7929   BA00                  NY 4 07N873031792666985N840000000022900    00    01DNMR HEMP FLOWER           00687B    DZ84000000022900 N  549976053336070                         000000000+1015104910600   DMCDI01012665029  180746000000 000000000  0          124   0000000000000.00 0000000.00   0000000.00                             000000000000000                                                                                                                                                     01424  000000000000 0000000000005.76     02450 01500                  
00004090138080008BH6759067590000000288180088880000090170206202303723000000000010533    0000090001540113Y8008886759C02072023                                                                                                                                                                                                                                                                                                                                                                                                                                                                                                                                                                                                 
00004100138080009DT67590675900000002881800888800000010180088887287283037900015401129020520230000000319503723000000000010533551343XXXXXX6075       ME03KE06MS02      NY 4607AMDJVRV8PW0205  N840000000003195          81DNHAPPY HIPPIE             665025    MD84000000003195 N  549976044904   1929                     000000000+600450S00130    MDJ  00401                     000000000  N                0000000000000.00 0000000.00   0000000.00                             000000000000000                                                                                                                                                   U001424  000000000000 0000000000000.68     01650 01500                  
00004110138080010DT67590675900000002881800888800000010180088824001193037900015401136020620230000000733803723000000000010533435544XXXXXX3632               2111111   NYV4 A7W463037713491040N840000000007338NRGW00    01DNHAPPY HIPPIE             089124    VD84000000007338 NP1549976044904   1930                     000000000+                F DF 10420                     000000000  Y000000000 338   0000000000000.00 0000000.00   0000000.00                             000000000000000                                                                                                                                                     01424 G000000007338 0000000000000.26     00050 02200                  
00004120138080001P16759067590000000288180088880000001010000000000000000                             2000000000000000000000000              000000000000                    0000000000000000000000000                    000000000000                                                                                                                                                                                                                                                                                                                                                                                                                                                                                        
00004130138080011BH6759067590000000051380000180000090170206202303723000000000000206    0000090001520001Y8000016759C02072023                                                                                                                                                                                                                                                                                                                                                                                                                                                                                                                                                                                                 
00004140138080012DT67590675900000000513800001800000010180000124001193037900015200017020620230000000020603723000000000000206474489XXXXXX3159       VK04VS111111111   NYV1 A E383037625056593N840000000000206FML700    07DNVERMONT STATE BANK2      102212    VD84000000000206 N  549975705321                            000000000+                F DF 10439                     000000000  Y000000000 331   0000000000000.00 0000000.00   0000000.00                             000000000000000                                                                                                                                                     01424 F000000000000 0000000000000.22     00050 02200                  
