00000950078670002BH6759067590000000051380000180000090171103202230722000000000000359    0000090001050002Y8000016759C11042022                                                                                                                                                                                                                                                                                                                                                                                                                                                                                                                                                                                                 
00000960078670003DT67590675900000000513800001800000010180000173011002307900010500016110320220000000018030722000000000000359373967XXXXX1009                          NY 1 0 N006088371859074N840000000000180          05DNVERMONT STATE BANK2      842089    AM84000000000180 Y  549975705321                            000000000+51010155434C 258     11261                     000000000                   0000000000000.00 0000000.00   0000000.00                             000000000000000 61248972086759675900000000513                          106 N MAIN ST            3097842271      61484     (309)784-2271                             01324  000000000000 0000000000000.13     01600 00000                  
00000970078670004DT67590675900000000513800001800000010180000173011002307900010500024110320220000000017930722000000000000359373967XXXXX1009                          NY 1 0 N006088378793078N840000000000179          07DNVERMONT STATE BANK2      848200    AM84000000000179 Y  549975705321                            000000000+51010X50034C 258     11261                     000000000                   0000000000000.00 0000000.00   0000000.00                             000000000000000 61248972086759675900000000513                          106 N MAIN ST            3097842271      61484     (309)784-2271                             01324  000000000000 0000000000000.13     01600 00000                  
00000980078670005BH6759067590000000017480000180000090171103202230722000000000000774    0000090001140004Y8000016759C11042022                                                                                                                                                                                                                                                                                                                                                                                                                                                                                                                                                                                                 
00000990078670006DT67590675900000000174800001800000010180000173011002307900011400018110320220000000019830722000000000000774376742XXXXX1001                          NY 1 0 N006652519523064N840000000000198          05DNVERMONT STATE BANK       802984    AM84000000000198 Y  549975549271                            000000000+51010155434C 258     11261                     000000000                   0000000000000.00 0000000.00   0000000.00                             000000000000000 61248972086759675900000000174                          106 N MAIN ST            3097842271      61484     (309)784-2271                             01324  000000000000 0000000000000.13     01600 00000                  
00001000078670007DT67590675900000000174800001800000010180000173011002307900011400026110320220000000019730722000000000000774376742XXXXX1001                          NY 1 0 N006652527888061N840000000000197          07DNVERMONT STATE BANK       807709    AM84000000000197 Y  549975549271                            000000000+51010X50034C 258     11261                     000000000                   0000000000000.00 0000000.00   0000000.00                             000000000000000 61248972086759675900000000174                          106 N MAIN ST            3097842271      61484     (309)784-2271                             01324  000000000000 0000000000000.13     01600 00000                  
00001010078670008DT67590675900000000174800001800000010180000173011002307900011400034110320220000000019030722000000000000774373967XXXXX1009                          NY 1 0 N006088358534070N840000000000190          05DNVERMONT STATE BANK       815808    AM84000000000190 Y  549975549271                            000000000+51010155434C 258     11261                     000000000                   0000000000000.00 0000000.00   0000000.00                             000000000000000 61248972086759675900000000174                          106 N MAIN ST            3097842271      61484     (309)784-2271                             01324  000000000000 0000000000000.13     01600 00000                  
00001020078670009DT67590675900000000174800001800000010180000173011002307900011400042110320220000000018930722000000000000774373967XXXXX1009                          NY 1 0 N006088359789079N840000000000189          07DNVERMONT STATE BANK       821202    AM84000000000189 Y  549975549271                            000000000+51010X50034C 258     11261                     000000000                   0000000000000.00 0000000.00   0000000.00                             000000000000000 61248972086759675900000000174                          106 N MAIN ST            3097842271      61484     (309)784-2271                             01324  000000000000 0000000000000.13     01600 00000                  
