02914520470480002BH6759067590000000288180088880000090170120202302023000000000145286    0000090001240027N8008886759C01222023                                                                                                                                                                                                                                                                                                                                                                                                                                                                                                                                                                                                 
02914530470480003DT67590675900000002881800888800000010180088877287283020900012400017012020230000001392602023000000000145286511953XXXXXX5690       MS02WI09          NY 1 0 AMDJGBTCCF0120  N840000000013926          05DNHAPPY HIPPIE             083288    MD84000000013926 N  549976487158                            000000000+M10101C5434C    MDJ  00402                     000000000  N                0000000000000.00 0000000.00   0000000.00                             000000000000000                                                                                                                                                   B101418  000000000000 0000000000001.61     01050 01500                  
02914540470480004DT67590675900000002881800888800000010180088877287283020900012400025012020230000001590202023000000000145286517148XXXXXX5425       MS02WI09          NY 1 0 AMWEKYGDFJ0120  N840000000015902          05DNHAPPY HIPPIE             07479Z    MC84000000015902 N  549976487158                            000000000+M10101C5434C    MWE  00743                     000000000  N                0000000000000.00 0000000.00   0000000.00                             000000000000000                                                                                                                                                   B101418  000000000000 0000000000003.70     02300 00400                  
02914550470480005DT67590675900000002881800888800000010180088877287283020900012400033012020230000000491202023000000000145286511975XXXXXX4657                         NY 1 0 AMDBTBJSTG0120  N840000000004912          05DNHAPPY HIPPIE             012146    MD84000000004912 NP1549976487158                            000000000+M10101C5434C    MDB  00062                     000000000  N                0000000000000.00 0000000.00   0000000.00                             000000000000000                                                                                                                                                   B101418  000000000000 0000000000001.40     02650 01000                  
02914560470480001P1675906759000000028818008888000000101                                                          000000000000          3000            814767769                                                                                                                                                                                                                                                                                                                                                                                                                                                                                                                                                            
02914570470480006DT67590675900000002881800888800000010180088824001193020900012400049012020230000000661602023000000000145286417021XXXXXX3594       VS11    0001111   NYV1 A E583020575102281N840000000006616B64J00    05DNHAPPY HIPPIE             646869    VD84000000006616 N  549976487158                            000000000+                F PF 08170                     000000000  N000000000       0000000000000.00 0000000.00   0000000.00                             000000000000000                                                                                                                                                     01418 A000000000000 0000000000000.91     01150 01500                  
02914580470480007DT67590675900000002881800888800000010180088824001193020900012400056012020230000000296202023000000000145286443238XXXXXX9381       VS11    0001111   NYV1 A E383020580724507N840000000002962ZG7V00    05DNHAPPY HIPPIE             010752    VD84000000002962 N  549976487158                            000000000+                F DF 00381                     000000000  N000000000       0000000000000.00 0000000.00   0000000.00                             000000000000000                                                                                                                                                     01418 A000000000000 0000000000000.39     00800 01500                  
02914590470480008DT67590675900000002881800888800000010180088824001193020900012400064012020230000000393702023000000000145286422921XXXXXX4105       VS11    0001111   NYV1 A E583020592851822N840000000003937BLL900    05DNHAPPY HIPPIE             041286    VD84000000003937 N  549976487158                            000000000+                F DF 00381                     000000000  N000000000       0000000000000.00 0000000.00   0000000.00                             000000000000000                                                                                                                                                     01418 A000000000000 0000000000000.46     00800 01500                  
02914600470480009DT67590675900000002881800888800000010180088824001193020900012400072012020230000000493802023000000000145286422921XXXXXX4649       VS11    0001111   NYV1 A E383020597510955N840000000004938JSNG00    05DNHAPPY HIPPIE             041752    VD84000000004938 N  549976487158                            000000000+                F DF 00381                     000000000  N000000000       0000000000000.00 0000000.00   0000000.00                             000000000000000                                                                                                                                                     01418 A000000000000 0000000000000.55     00800 01500                  
02914610470480010DT67590675900000002881800888800000010180088877287283020900012400082012020230000000768202023000000000145286523914XXXXXX6354       MS02WI09          NY 1 0 AMCWU43LTG0120  N840000000007682          05DNHAPPY HIPPIE             06291W    MC84000000007682 N  549976487158                            000000000+M10101C5434C    MCW  00364                     000000000  N                0000000000000.00 0000000.00   0000000.00                             000000000000000                                                                                                                                                   B101418  000000000000 0000000000001.42     01800 00400                  
02914620470480011DT67590675900000002881800888800000010180088877287283020900012400090012020230000000777802023000000000145286552486XXXXXX5239       MS02WI09          NY 1 0 AMWEM2KBFJ0120  N840000000007778          05DNHAPPY HIPPIE             04572Z    MC84000000007778 N  549976487158                            000000000+M10101C5434C    MWE  00743                     000000000  N                0000000000000.00 0000000.00   0000000.00                             000000000000000                                                                                                                                                   B101418  000000000000 0000000000001.83     02300 00400                  
02914630470480012DT67590675900000002881800888800000010180088824001193020900012400106012020230000000246702023000000000145286440393XXXXXX8253       VS11    0001111   NYV1 A E383020616402608N8400000000024676RP200    05DNHAPPY HIPPIE             344976    VD84000000002467 N  549976487158                            000000000+                F PF 08170                     000000000  N000000000       0000000000000.00 0000000.00   0000000.00                             000000000000000                                                                                                                                                     01418 A000000000000 0000000000000.43     01150 01500                  
02914640470480013DT67590675900000002881800888800000010180088824001193020900012400114012020230000000300602023000000000145286419090XXXXXX5725       VS11    0001111   NYV1 A E583020651683865N8400000000030068R6T00    05DNHAPPY HIPPIE             901390    VD84000000003006 N  549976487158                            000000000+                F DF 00381                     000000000  N000000000       0000000000000.00 0000000.00   0000000.00                             000000000000000                                                                                                                                                     01418 A000000000000 0000000000000.39     00800 01500                  
02914650470480014DT67590675900000002881800888800000010180088824001193020900012400122012020230000000571502023000000000145286419090XXXXXX2898       VS11    0001111   NYV1 A E383020653722311N840000000005715B6TJ00    05DNHAPPY HIPPIE             901517    VD84000000005715 N  549976487158                            000000000+                F DF 00381                     000000000  N000000000       0000000000000.00 0000000.00   0000000.00                             000000000000000                                                                                                                                                     01418 A000000000000 0000000000000.61     00800 01500                  
02914660470480015DT67590675900000002881800888800000010180088824001193020900012400130012020230000000325802023000000000145286475644XXXXXX6150       VS11    0001111   NYV1 A E383020654804870N840000000003258CRJT00    05DNHAPPY HIPPIE             676253    VD84000000003258 N  549976487158                            000000000+                F DF 00381                     000000000  N000000000       0000000000000.00 0000000.00   0000000.00                             000000000000000                                                                                                                                                     01418 A000000000000 0000000000000.41     00800 01500                  
02914670470480016DT67590675900000002881800888800000010180088877287283020900012400140012020230000000790102023000000000145286552433XXXXXX1204       MS02WI09          NY 1 0 AMPLLRC4CF0120  N840000000007901          05DNHAPPY HIPPIE             03301M    MC84000000007901 N  549976487158                            000000000+M10101C5434C    MPL  00364                     000000000  N                0000000000000.00 0000000.00   0000000.00                             000000000000000                                                                                                                                                   B101418  000000000000 0000000000001.46     01800 00400                  
02914680470480017DT67590675900000002881800888800000010180088824001193020900012400155012020230000000395002023000000000145286419090XXXXXX1573       VS11    0001111   NYV1 A E303020664142893N8400000000039508PRL00    05DNHAPPY HIPPIE             902207    VD84000000003950 N  549976487158                            000000000+                F DF 00381                     000000000  N000000000       0000000000000.00 0000000.00   0000000.00                             000000000000000                                                                                                                                                     01418 A000000000000 0000000000000.47     00800 01500                  
02914690470480018DT67590675900000002881800888800000010180088824001193020900012400163012020230000000444402023000000000145286426684XXXXXX6627       VS11    0001111   NYV1 A E383020668809484N8400000000044448Q8H00    05DNHAPPY HIPPIE             03220A    VS84000000004444 N  549976487158                            000000000+                A CA 12110                     000000000  N000000000 493   0000000000000.00 0000000.00   0000000.00                             000000000000000                                                                                                                                                     01418 A000000000000 0000000000000.77     01510 01000                  
02914700470480019DT67590675900000002881800888800000010180088824001193020900012400171012020230000000296202023000000000145286498503XXXXXX6779       VS11    0001111   NYV1 A E463020675939481N8400000000029623MQN00    05DNHAPPY HIPPIE             073403    VD84000000002962 N  549976487158                            000000000+                F DF 00381                     000000000  N000000000       0000000000000.00 0000000.00   0000000.00                             000000000000000                                                                                                                                                     01418 A000000000000 0000000000000.39     00800 01500                  
02914710470480020DT67590675900000002881800888800000010180088824001193020900012400189012020230000000448102023000000000145286422921XXXXXX2680       VS11    0001111   NYV1 A E303020711047113N840000000004481N9W900    05DNHAPPY HIPPIE             053105    VD84000000004481 N  549976487158                            000000000+                F DF 00381                     000000000  N000000000       0000000000000.00 0000000.00   0000000.00                             000000000000000                                                                                                                                                     01418 A000000000000 0000000000000.51     00800 01500                  
02914720470480021DT67590675900000002881800888800000010180088824001193020900012400197012020230000000131502023000000000145286449507XXXXXX1978       VK04VS111111111   NYV1 A E583020715782098N840000000001315D8C800    05DNHAPPY HIPPIE             045258    VD84000000001315 N  549976487158                            000000000+                F DF 00451                     000000000  N000000000 214   0000000000000.00 0000000.00   0000000.00                             000000000000000                                                                                                                                                     01418 F000000000000 0000000000000.24     01550 00400                  
02914730470480022DT67590675900000002881800888800000010180088824001193020900012400205012020230000000281602023000000000145286415978XXXXXX6263       VS11    0001111   NYV1 A E303020735483078N840000000002816LFLB00    05DNHAPPY HIPPIE             081002    VD84000000002816 N  549976487158                            000000000+                F DF 10433                     000000000  Y000000000 338   0000000000000.00 0000000.00   0000000.00                             000000000000000                                                                                                                                                     01418 A000000000000 0000000000000.23     00050 02200                  
02914740470480023DT67590675900000002881800888800000010180088824001193020900012400213012020230000001135502023000000000145286445102XXXXXX6903       VS11    0001111   NYV1 A E583020746774513N840000000011355XPPV00    05DNHAPPY HIPPIE             317316    VD84000000011355 N  549976487158                            000000000+                F DF 10433                     000000000  Y000000000 338   0000000000000.00 0000000.00   0000000.00                             000000000000000                                                                                                                                                     01418 A000000000000 0000000000000.28     00050 02200                  
02914750470480024DT67590675900000002881800888800000010180088877287283020900012400223012020230000000186502023000000000145286526188XXXXXX7383       MS02WI09          NY 1 0 AMDSJKVFV60120  N840000000001865          05DNHAPPY HIPPIE             054126    MD84000000001865 N  549976487158                            000000000+M10101C5434C    MDS  00402                     000000000  N                0000000000000.00 0000000.00   0000000.00                             000000000000000                                                                                                                                                   B101418  000000000000 0000000000000.35     01050 01500                  
02914760470480025DT67590675900000002881800888800000010180088824001193020900012400239012020230000000493802023000000000145286473703XXXXXX0043       VS11    0001111   NYV1 A E303020761183299N8400000000049384KBJ00    05DNHAPPY HIPPIE             069503    VD84000000004938 N  549976487158                            000000000+                F DF 10433                     000000000  Y000000000 338   0000000000000.00 0000000.00   0000000.00                             000000000000000                                                                                                                                                     01418 A000000000000 0000000000000.24     00050 02200                  
02914770470480026DT67590675900000002881800888800000010180088824001193020900012400247012020230000000592502023000000000145286408039XXXXXX1487       VS11    0001111   NYV1 A E463020767766161N8400000000059256KXC00    05DNHAPPY HIPPIE             510291    VS84000000005925 N  549976487158                            000000000+                D CD 12113                     000000000  N000000000 499   0000000000000.00 0000000.00   0000000.00                             000000000000000                                                                                                                                                     01418 A000000000000 0000000000001.34     02100 01000                  
02914780470480027DT67590675900000002881800888800000010180088877287283020900012400256012020230000000548602023000000000145286535041XXXXXX6991       MS02WI09          NY 1 0 AMDJWM54H70120  N840000000005486          05DNHAPPY HIPPIE             063949    MD84000000005486 N  549976487158                            000000000+M10101C5434C    MDJ  00402                     000000000  N                0000000000000.00 0000000.00   0000000.00                             000000000000000                                                                                                                                                     01418  000000000000 0000000000000.73     01050 01500                  
02914790470480028DT67590675900000002881800888800000010180088877287283020900012400264012020230000000267502023000000000145286511953XXXXXX5008       MS02WI09          NY 1 0 AMDJKU9JH90120  N840000000002675          05DNHAPPY HIPPIE             052062    MD84000000002675 N  549976487158                            000000000+M10101C5434C    MDJ  00402                     000000000  N                0000000000000.00 0000000.00   0000000.00                             000000000000000                                                                                                                                                   B101418  000000000000 0000000000000.43     01050 01500                  
02914800470480029DT67590675900000002881800888800000010180088824001193020900012400270012020230000000207402023000000000145286415978XXXXXX0021       VS11    0001111   NYV1 A E303020785355829N840000000002074CNTV00    05DNHAPPY HIPPIE             030102    VD84000000002074 N  549976487158                            000000000+                F DF 10433                     000000000  Y000000000 338   0000000000000.00 0000000.00   0000000.00                             000000000000000                                                                                                                                                     01418 A000000000000 0000000000000.23     00050 02200                  
02914810470480030BH6759067590000000288180088880000090170120202302023000000000062115    0000090001240013N8008886759C01222023                                                                                                                                                                                                                                                                                                                                                                                                                                                                                                                                                                                                 
02914820470480031DT67590675900000002881800888800000010180088824001193020900012400015012020230000000614602023000000000062115415978XXXXXX3096       VS11    0001111   NYV1 A E583020548029290N840000000006146CJJM00    05DNHAPPY HIPPIE             027301    VD84000000006146 N  549976487134                            000000000+                F DF 10433                     000000000  Y000000000 338   0000000000000.00 0000000.00   0000000.00                             000000000000000                                                                                                                                                     01418 A000000000000 0000000000000.25     00050 02200                  
02914830470480032DT67590675900000002881800888800000010180088824001193020900012400023012020230000000325802023000000000062115449507XXXXXX3684       VS11    0001111   NYV1 A E383020554591546N840000000003258728G00    05DNHAPPY HIPPIE             002419    VD84000000003258 N  549976487134                            000000000+                F DF 00381                     000000000  N000000000       0000000000000.00 0000000.00   0000000.00                             000000000000000                                                                                                                                                     01418 A000000000000 0000000000000.41     00800 01500                  
02914840470480033DT67590675900000002881800888800000010180088824001193020900012400031012020230000000339002023000000000062115422921XXXXXX2053       VS11    0001111   NYV1 A E383020667138702N840000000003390GS2B00    07DNHAPPY HIPPIE             048714    VD84000000003390 N  549976487134                            000000000+                F DF 00381                     000000000  N000000000       0000000000000.00 0000000.00   0000000.00                             000000000000000                                                                                                                                                     01418 A000000000000 0000000000000.42     00800 01500                  
02914850470480034DT67590675900000002881800888800000010180088824001193020900012400049012020230000000596902023000000000062115473702XXXXXX6085       VS11    0001111   NYV1 A E583020668644111N840000000005969ZP2L00    07DNHAPPY HIPPIE             022416    VD84000000005969 N  549976487134                            000000000+                F DF 10433                     000000000  Y000000000 338   0000000000000.00 0000000.00   0000000.00                             000000000000000                                                                                                                                                     01418 A000000000000 0000000000000.25     00050 02200                  
02914860470480035DT67590675900000002881800888800000010180088824001193020900012400056012020230000000325802023000000000062115443238XXXXXX5927       VS11    0001111   NYV1 A E383020669744588N840000000003258GHB200    07DNHAPPY HIPPIE             033614    VD84000000003258 N  549976487134                            000000000+                F DF 00381                     000000000  N000000000       0000000000000.00 0000000.00   0000000.00                             000000000000000                                                                                                                                                     01418 A000000000000 0000000000000.41     00800 01500                  
02914870470480036DT67590675900000002881800888800000010180088824001193020900012400064012020230000000153702023000000000062115443264XXXXXX5230       VS11    0001111   NYV1 A E583020682914064N8400000000015374L5P00    07DNHAPPY HIPPIE             026860    VD84000000001537 N  549976487134                            000000000+                F DF 10433                     000000000  Y000000000 338   0000000000000.00 0000000.00   0000000.00                             000000000000000                                                                                                                                                     01418 A000000000000 0000000000000.23     00050 02200                  
02914880470480037DT67590675900000002881800888800000010180088824001193020900012400072012020230000000316102023000000000062115422921XXXXXX6466       VS11    0001111   NYV1 A E303020684835569N8400000000031617TMC00    07DNHAPPY HIPPIE             050484    VD84000000003161 N  549976487134                            000000000+                F DF 00381                     000000000  N000000000       0000000000000.00 0000000.00   0000000.00                             000000000000000                                                                                                                                                     01418 A000000000000 0000000000000.40     00800 01500                  
02914890470480038DT67590675900000002881800888800000010180088824001193020900012400080012020230000000592502023000000000062115443264XXXXXX5032       VS11    0001111   NYV1 A E383020687251864N8400000000059258PF400    07DNHAPPY HIPPIE             012290    VD84000000005925 N  549976487134                            000000000+                F DF 10433                     000000000  Y000000000 338   0000000000000.00 0000000.00   0000000.00                             000000000000000                                                                                                                                                     01418 A000000000000 0000000000000.25     00050 02200                  
02914900470480039DT67590675900000002881800888800000010180088873011003020900012400094012020230000001338702023000000000062115373490XXXXX2006                          NY 1 0 N004401693877306N840000000013387          05DNHAPPY HIPPIE             803632    AM84000000013387 N  549976487134                            000000000+51010155434C 258     11262                     000000000                   0000000000000.00 0000000.00   0000000.00                             000000000000000 61248972086759675900000002881 HAPPY HIPPIE             832 PARKWAY              8656540830      37862     HAPPYHIPPIE832@GMAIL.COM                  01418  000000000000 0000000000002.71     01950 00000                  
02914910470480040DT67590675900000002881800888800000010180088877287283020900012400108012020230000000276602023000000000062115511953XXXXXX9431       MS02WI09          NY 1 0 AMDJI3Z5H90120  N840000000002766          05DNHAPPY HIPPIE             037942    MD84000000002766 N  549976487134                            000000000+M10101C5434C    MDJ  00402                     000000000  N                0000000000000.00 0000000.00   0000000.00                             000000000000000                                                                                                                                                   B101418  000000000000 0000000000000.44     01050 01500                  
02914920470480041DT67590675900000002881800888800000010180088877287283020900012400116012020230000000444402023000000000062115511953XXXXXX9825       MS02WI09          NY 1 0 AMDJI4VFV60120  N840000000004444          05DNHAPPY HIPPIE             043652    MD84000000004444 N  549976487134                            000000000+M10101C5434C    MDJ  00402                     000000000  N                0000000000000.00 0000000.00   0000000.00                             000000000000000                                                                                                                                                   B101418  000000000000 0000000000000.62     01050 01500                  
02914930470480042DT67590675900000002881800888800000010180088824001193020900012400122012020230000000592402023000000000062115419090XXXXXX9446       VS11    0001111   NYV1 A E583020780357915N840000000005924625600    05DNHAPPY HIPPIE             909069    VD84000000005924 N  549976487134                            000000000+                F DF 00381                     000000000  N000000000       0000000000000.00 0000000.00   0000000.00                             000000000000000                                                                                                                                                     01418 A000000000000 0000000000000.62     00800 01500                  
02914940470480043DT67590675900000002881800888800000010180088824001193020900012400130012020230000000295002023000000000062115422921XXXXXX9546       VS11    0001111   NYV1 A E303020781170643N840000000002950BV4N00    07DNHAPPY HIPPIE             060118    VD84000000002950 N  549976487134                            000000000+                F DF 00381                     000000000  N000000000       0000000000000.00 0000000.00   0000000.00                             000000000000000                                                                                                                                                     01418 A000000000000 0000000000000.39     00800 01500                  
02914950470480044BH6759067590000000215480088880000090170120202302023000000000063685    0000090001871217N8008886759C01222023                                                                                                                                                                                                                                                                                                                                                                                                                                                                                                                                                                                                 
02914960470480045DT67590675900000002154800888800000010180088887287283020900018712778012020230000003059102023000000000063685552433XXXXXX9930       ME03KE06MS02      NY 4607AMPLTVD9H70120  N840000000030591          81DNDRIP DROP DISTRO LLC     03526M    MC84000000030591 N  519900000001   INV-000300               000000000+600450S00140    MPL  00580                     000000000  N                0000000000000.00 0000000.00   0000000.00                             000000000000000                                                                                                                                                   U001418  000000000000 0000000000006.52     02100 01000                  
02914970470480046DT67590675900000002154800888800000010180088873011003020900018712179012020230000003309402023000000000063685372731XXXXX6006                          NY 4 07N006120817666076N840000000033094          01DNDRIP DROP DISTRO LLC     217883    AM84000000033094 N  519971004114                            000000000+6004S0S00140 258     11243                     000000000                   0000000000000.00 0000000.00   0000000.00                             000000000000000 61248972736759675900000002154 DRIP DROP DISTRO LLC     1445 W COMMERCE AVE SUITE2087248209      83705     TROY@DRIPDROPDISTRO.COM                   01418  000000000000 0000000000005.56     01650 00000                  
02914980470480047BH6759067590000000096880088880000090170120202302023000000000007095    0000090001248880N8008886759C01222023                                                                                                                                                                                                                                                                                                                                                                                                                                                                                                                                                                                                 
02914990470480048DT67590675900000000968800888800000010180088887287283020900012488805012020230000000709502023000000000007095531260XXXXXX4405       ME03KE06MS02      NY 4607AMDJCFCR7A0119  N840000000007095          81DNHIGHER FLOUR LLC         100749    MD84000000007095 N  546200000001   rwae2bD3Qtbw0ipLVfCk     000000000+600450S00140    MDJ  10813                     000000000  1                0000000000000.00 0000000.00   0000000.00                             000000000000000                                                                                                                                                   U001418  000000000000 0000000000000.26     00050 02200                  
