00004140353910002BH6759067590000000370780088880000090170315202307423000000000099814    0000090001610408Y8008886759C03162023                                                                                                                                                                                                                                                                                                                                                                                                                                                                                                                                                                                                 
00004150353910003DT67590675900000003707800888800000010180088887287283074900016104015031420230000001232407423000000000099814515676XXXXXX8857       ME03KE06MS02      NY 4607AMWEMPFWGP0314  N840000000012324          81DNMR HEMP FLOWER           07518Z    MC84000000012324 N  549976053336   87140                    000000000+600450S00130    MWE  00737                     000000000  N                0000000000000.00 0000000.00   0000000.00                             000000000000000                                                                                                                                                   U001424  000000000000 0000000000003.30     02600 01000                  
00004160353910004DT67590675900000003707800888800000010180088824001193074900016104022031520230000002504907423000000000099814474478XXXXXX9835               2111111   NYV4 A7W583074334089524N840000000025049T4QW00    01DNMR HEMP FLOWER           191269    VD84000000025049 NP1549976053336   87147                    000000000+                F DF 10420                     000000000  Y000000000 338   0000000000000.00 0000000.00   0000000.00                             000000000000000                                                                                                                                                     01424 G000000025049 0000000000000.35     00050 02200                  
00004170353910001P16759067590000000370780088880000001010000000000000000                             2000000000000000000000000              000000000000                    0000000000000000000000000                    000000000000                                                                                                                                                                                                                                                                                                                                                                                                                                                                                        
00004180353910005DT67590675900000003707800888800000010180088824001193074900016104030031520230000002549907423000000000099814453506XXXXXX3141               2111111   NYV4 A7W583074423308965N84000000002549973QX00    01DNMR HEMP FLOWER           H90073    VD84000000025499 NP1549976053336   87148                    000000000+                F DF 10420                     000000000  Y000000000 338   0000000000000.00 0000000.00   0000000.00                             000000000000000                                                                                                                                                     01424 G000000025499 0000000000000.35     00050 02200                  
00004190353910001P16759067590000000370780088880000001010000000000000000                             2000000000000000000000000              000000000000                    0000000000000000000000000                    000000000000                                                                                                                                                                                                                                                                                                                                                                                                                                                                                        
00004200353910006DT67590675900000003707800888800000010180088824001193074900016104048031520230000000599907423000000000099814405610XXXXXX9855               2111111   NYV4 A7W383074549499991N840000000005999JCL700    01DNMR HEMP FLOWER           506677    VD84000000005999 NP1549976053336   87157                    000000000+                F DF 00415                     000000000  N000000000       0000000000000.00 0000000.00   0000000.00                             000000000000000                                                                                                                                                     01424 G000000005999 0000000000001.14     01650 01500                  
00004210353910001P16759067590000000370780088880000001010000000000000000                             2000000000000000000000000              000000000000                    0000000000000000000000000                    000000000000                                                                                                                                                                                                                                                                                                                                                                                                                                                                                        
00004220353910007DT67590675900000003707800888800000010180088887287283074900016104056031520230000000649507423000000000099814524366XXXXXX5350       ME03KE06PT01      NY 4607AMCWDU6M4A0315  N840000000006495          81DNMR HEMP FLOWER           01563P    MC84000000006495 N  549976053336   87158                    000000000+600450S00130    MCW  00642                     000000000  N                0000000000000.00 0000000.00   0000000.00                             000000000000000                                                                                                                                                   U001424  000000000000 0000000000001.53     02200 01000                  
00004230353910008DT67590675900000003707800888800000010180088887287283074900016104064031520230000000549907423000000000099814539655XXXXXX2661       ME03KE06PT01      NY 4607AMCWZJCI0S0315  N840000000005499          81DNMR HEMP FLOWER           85470P    MC84000000005499 N  549976053336   87169                    000000000+600450S00130    MCW  00642                     000000000  N                0000000000000.00 0000000.00   0000000.00                             000000000000000                                                                                                                                                   U001424  000000000000 0000000000001.31     02200 01000                  
00004240353910009DT67590675900000003707800888800000010180088824001193074900016104071031520230000000649907423000000000099814473702XXXXXX3449               2111111   NYV4 A7W463074608827690N840000000006499S3D600    01DNMR HEMP FLOWER           045033    VD84000000006499 NP1549976053336   87170                    000000000+                F DF 10420                     000000000  Y000000000 338   0000000000000.00 0000000.00   0000000.00                             000000000000000                                                                                                                                                     01424 G000000006499 0000000000000.25     00050 02200                  
00004250353910001P16759067590000000370780088880000001010000000000000000                             2000000000000000000000000              000000000000                    0000000000000000000000000                    000000000000                                                                                                                                                                                                                                                                                                                                                                                                                                                                                        
00004260353910010DT67590675900000003707800888800000010180088824001193074900016104089031520230000001245007423000000000099814426684XXXXXX1203               2111111   NYV4 A7W303074702352591N8400000000124503JLV00    01DNMR HEMP FLOWER           01073A    VS84000000012450 NP1549976053336   87184                    000000000+                A CA 12106                     000000000  N000000000 492   0000000000000.00 0000000.00   0000000.00                             000000000000000                                                                                                                                                     01424 G000000012450 0000000000002.45     01890 01000                  
00004270353910001P16759067590000000370780088880000001010000000000000000                             2000000000000000000000000              000000000000                    0000000000000000000000000                    000000000000                                                                                                                                                                                                                                                                                                                                                                                                                                                                                        
00004280353910011BH6759067590000001330080010280000090170315202307423000000000580417    0000090001283085Y8001026759C03162023                                                                                                                                                                                                                                                                                                                                                                                                                                                                                                                                                                                                 
00004290353910012DT67590675900000013300800102800000010180010287287283074900012823337031420230000001589007423000000000580417518941XXXXXX1159       ME03KE06MS02      NY 4607AMWE32TL480311  N840000000015890          81DNCBD8666317293            19860Z    MC84000000015890 N  549977133133   73C8CBA54ET3E4EF1F535EA  000000000+600450S00130    MWE  00737                     000000000  N                0000000000000.00 0000000.00   0000000.00                             000000000000000                                                                                                                                                   U001424  000000000000 0000000000004.23     02600 01000                  
00004300353910013DT67590675900000013300800102800000010180010224001193074900012823419031420230000000700407423000000000580417429475XXXXXX6551               2111111   NYV4 A7W583070708050559N840000000007004QBHM00    01DNCBD8666317293            092047    VD84000000007004 NP1549977133133   CCC609FDE7TAA63FBD1CD1D  000000000+                G DG 10352                     000000000  Y000000000 338   0000000000000.00 0000000.00   0000000.00                             000000000000000                                                                                                                                                     01424 G000000007004 0000000000000.26     00050 02200                  
00004310353910001P16759067590000001330080010280000001010000000000000000                             2000000000000000000000000              000000000000                    0000000000000000000000000                    000000000000                                                                                                                                                                                                                                                                                                                                                                                                                                                                                        
00004320353910014DT67590675900000013300800102800000010180010287287283074900012823964031420230000000742407423000000000580417518941XXXXXX4325       ME03KE06MS02      NY 4607AMWEPETIRI0311  N840000000007424          81DNCBD8666317293            20662Z    MC84000000007424 N  549977133133   DC6EACF59BT191D847C53F9  000000000+600450S00130    MWE  00737                     000000000  N                0000000000000.00 0000000.00   0000000.00                             000000000000000                                                                                                                                                   U001424  000000000000 0000000000002.03     02600 01000                  
00004330353910015DT67590675900000013300800102800000010180010224001193074900012824094031420230000001509407423000000000580417401171XXXXXX3193               2111111   NYV4 A7W463071030050722N840000000015094VRQ900    01DNCBD8666317293            095005    VD84000000015094 NP1549977133133   11724D2C06T1BB1ED9B3572  000000000+                F DF 00415                     000000000  N000000000       0000000000000.00 0000000.00   0000000.00                             000000000000000                                                                                                                                                     01424 G000000015094 0000000000002.64     01650 01500                  
00004340353910001P16759067590000001330080010280000001010000000000000000                             2000000000000000000000000              000000000000                    0000000000000000000000000                    000000000000                                                                                                                                                                                                                                                                                                                                                                                                                                                                                        
00004350353910016DT67590675900000013300800102800000010180010224001193074900012824102031420230000001939407423000000000580417431406XXXXXX8795               2111111   NYV4 A7W463071045042757N840000000019394SMLD00    01DNCBD8666317293            091504    VD84000000019394 NP1549977133133   F0C59A31B0T0A39FB4578AF  000000000+                F DF 10420                     000000000  Y000000000 338   0000000000000.00 0000000.00   0000000.00                             000000000000000                                                                                                                                                     01424 G000000019394 0000000000000.32     00050 02200                  
00004360353910001P16759067590000001330080010280000001010000000000000000                             2000000000000000000000000              000000000000                    0000000000000000000000000                    000000000000                                                                                                                                                                                                                                                                                                                                                                                                                                                                                        
00004370353910017DT67590675900000013300800102800000010180010287287283074900012824202031420230000002661107423000000000580417521333XXXXXX8070       ME03KE06MS02      NY 4607AMPLAKZDF20311  N840000000026611          81DNCBD8666317293            01157B    MC84000000026611 N  549977133133   CB15F45C3BT361F95B3A6B0  000000000+600450S00130    MPL  00580                     000000000  N                0000000000000.00 0000000.00   0000000.00                             000000000000000                                                                                                                                                   U001424  000000000000 0000000000005.69     02100 01000                  
00004380353910018DT67590675900000013300800102800000010180010224001193074900012828855031420230000000019907423000000000580417428813XXXXXX1656               2111111   NYV4 A7W383074001258342N840000000000199B65T00    01DNCBD8666317293            855528    VB84000000000199 NP1549977133133   129CAC2C38TC08F5F13B404  000000000+                S CS 00692                     000000000  N000000000 237   0000000000000.00 0000000.00   0000000.00                             000000000000000                                                                                                                                                     01424 G000000000199 0000000000000.15     02700 01000                  
00004390353910001P16759067590000001330080010280000001010000000000000000                             2000000000000000000000000              000000000000                    0000000000000000000000000                    000000000000                                                                                                                                                                                                                                                                                                                                                                                                                                                                                        
00004400353910019DT67590675900000013300800102800000010180010224001193074900012828863031420230000000019907423000000000580417412076XXXXXX1951               2111111   NYV4 A7W583074001846638N840000000000199BB6D00    01DNCBD8666317293            471345    VS84000000000199 NP1549977133133   AF7B13F768T496AAE42EEAE  000000000+                A CA 12106                     000000000  N000000000 492   0000000000000.00 0000000.00   0000000.00                             000000000000000                                                                                                                                                     01424 G000000000199 0000000000000.14     01890 01000                  
00004410353910001P16759067590000001330080010280000001010000000000000000                             2000000000000000000000000              000000000000                    0000000000000000000000000                    000000000000                                                                                                                                                                                                                                                                                                                                                                                                                                                                                        
00004420353910020DT67590675900000013300800102800000010180010287287283074900012828872031420230000000019907423000000000580417512507XXXXXX6678                         NY 4607AMCPKPDRRX0314  N840000000000199          81DNCBD8666317293            944654    MB84000000000199 NP1549977133133   ADE5669806TACB3DE39EDB9  000000000+600450S00130    MCP  00303                     000000000  N                0000000000000.00 0000000.00   0000000.00                             000000000000000                                                                                                                                                   U001424  000000000000 0000000000000.15     02700 01000                  
00004430353910001P1675906759000000133008001028000000101                                                          000000000000          8000            871584967                                                                                                                                                                                                                                                                                                                                                                                                                                                                                                                                                            
00004440353910021DT67590675900000013300800102800000010180010224001193074900012828889031420230000000019907423000000000580417433451XXXXXX1474               2111111   NYV4 A7W303074010834604N840000000000199M83700    01DNCBD8666317293            EBX1QF    VD84000000000199 NP1549977133133   E66A760D84TC962BA0C4FD9  000000000+                S PS 10179                     000000000  N000000000 364   0000000000000.00 0000000.00   0000000.00                             000000000000000                                                                                                                                                     01424 G000000000199 0000000000000.15     02650 01000                  
00004450353910001P16759067590000001330080010280000001010000000000000000                             2000000000000000000000000              000000000000                    0000000000000000000000000                    000000000000                                                                                                                                                                                                                                                                                                                                                                                                                                                                                        
00004460353910022DT67590675900000013300800102800000010180010224001193074900012828905031420230000000019907423000000000580417489683XXXXXX7771               2111111   NYV4 A7W583074017583112N840000000000199DKNT00    01DNCBD8666317293            HWCGGY    VD84000000000199 NP1549977133133   650DDDC1E4T6044B1E8C5A5  000000000+                S PS 10179                     000000000  N000000000 364   0000000000000.00 0000000.00   0000000.00                             000000000000000                                                                                                                                                     01424 G000000000199 0000000000000.15     02650 01000                  
00004470353910001P16759067590000001330080010280000001010000000000000000                             2000000000000000000000000              000000000000                    0000000000000000000000000                    000000000000                                                                                                                                                                                                                                                                                                                                                                                                                                                                                        
00004480353910023DT67590675900000013300800102800000010180010224001193074900012828913031420230000001987007423000000000580417404206XXXXXX3433               2111111   NYV4 A7W303074020099922N840000000019870C92500    01DNCBD8666317293            004098    VD84000000019870 NP1549977133133   9A40258836TE6C17F8DA16A  000000000+                F PF 08175                     000000000  N000000000       0000000000000.00 0000000.00   0000000.00                             000000000000000                                                                                                                                                     01424 G000000019870 0000000000003.68     01750 02000                  
00004490353910001P16759067590000001330080010280000001010000000000000000                             2000000000000000000000000              000000000000                    0000000000000000000000000                    000000000000                                                                                                                                                                                                                                                                                                                                                                                                                                                                                        
00004500353910024DT67590675900000013300800102800000010180010224001193074900012828921031420230000000019907423000000000580417408544XXXXXX1878               2111111   NYV4 A7W583074022264398N840000000000199BK9600    01DNCBD8666317293            987709    VB84000000000199 NP1549977133133   199FD35689T46869AA7E40B  000000000+                K CK 00691                     000000000  N000000000 234   0000000000000.00 0000000.00   0000000.00                             000000000000000                                                                                                                                                     01424 G000000000199 0000000000000.15     02700 01000                  
00004510353910001P16759067590000001330080010280000001010000000000000000                             2000000000000000000000000              000000000000                    0000000000000000000000000                    000000000000                                                                                                                                                                                                                                                                                                                                                                                                                                                                                        
00004520353910025DT67590675900000013300800102800000010180010224001193074900012828939031420230000000019907423000000000580417485932XXXXXX9283               2111111   NYV4 A7W583074023452999N840000000000199S3JL00    01DNCBD8666317293            754597    VB84000000000199 NP1549977133133   F943720A47TBB88ADEEBB38  000000000+                S CS 00692                     000000000  N000000000 237   0000000000000.00 0000000.00   0000000.00                             000000000000000                                                                                                                                                     01424 G000000000199 0000000000000.15     02700 01000                  
00004530353910001P16759067590000001330080010280000001010000000000000000                             2000000000000000000000000              000000000000                    0000000000000000000000000                    000000000000                                                                                                                                                                                                                                                                                                                                                                                                                                                                                        
00004540353910026DT67590675900000013300800102800000010180010224001193074900012828947031420230000000019907423000000000580417428813XXXXXX7093               2111111   NYV4 A7W303074027058542N840000000000199HTT300    01DNCBD8666317293            899203    VB84000000000199 NP1549977133133   FA8814E800T4781F9A8AD3A  000000000+                S CS 00692                     000000000  N000000000 237   0000000000000.00 0000000.00   0000000.00                             000000000000000                                                                                                                                                     01424 G000000000199 0000000000000.15     02700 01000                  
00004550353910001P16759067590000001330080010280000001010000000000000000                             2000000000000000000000000              000000000000                    0000000000000000000000000                    000000000000                                                                                                                                                                                                                                                                                                                                                                                                                                                                                        
00004560353910027DT67590675900000013300800102800000010180010276509753074900012828952031420230000001723507423000000000580417601100XXXXXX0193   BA00                  NY 4 07N873062955370771N840000000017235    00    01DNCBD8666317293            01402R    DS84000000017235 N  549977133133070                         000000000+1015104910600   DCCDI11325833764  194537000000 000000000  0          460   0000000000000.00 0000000.00   0000000.00                             000000000000000                                                                                                                                                     01424  000000000000 0000000000003.60     02030 01000                  
00004570353910028DT67590675900000013300800102800000010180010224001193074900012828962031420230000000019907423000000000580417428821XXXXXX7638               2111111   NYV4 A7W303074032443674N8400000000001994LFJ00    01DNCBD8666317293            962978    VB84000000000199 NP1549977133133   A282A2C85FT68FD510523A2  000000000+                S CS 00692                     000000000  N000000000 237   0000000000000.00 0000000.00   0000000.00                             000000000000000                                                                                                                                                     01424 G000000000199 0000000000000.15     02700 01000                  
00004580353910001P16759067590000001330080010280000001010000000000000000                             2000000000000000000000000              000000000000                    0000000000000000000000000                    000000000000                                                                                                                                                                                                                                                                                                                                                                                                                                                                                        
00004590353910029DT67590675900000013300800102800000010180010224001193074900012828970031420230000000019907423000000000580417440393XXXXXX3261               2111111   NYV4 A7W463074033797648N840000000000199KVHP00    01DNCBD8666317293            704132    VD84000000000199 NP1549977133133   F6D6E79618TA646E11C172E  000000000+                F PF 08175                     000000000  N000000000       0000000000000.00 0000000.00   0000000.00                             000000000000000                                                                                                                                                     01424 G000000000199 0000000000000.23     01750 02000                  
00004600353910001P16759067590000001330080010280000001010000000000000000                             2000000000000000000000000              000000000000                    0000000000000000000000000                    000000000000                                                                                                                                                                                                                                                                                                                                                                                                                                                                                        
00004610353910030DT67590675900000013300800102800000010180010224001193074900012828988031420230000000019907423000000000580417440393XXXXXX8324               2111111   NYV4 A7W303074034979778N840000000000199KKHX00    01DNCBD8666317293            459191    VD84000000000199 NP1549977133133   1CEE9F7191TB219743425EC  000000000+                F PF 08175                     000000000  N000000000       0000000000000.00 0000000.00   0000000.00                             000000000000000                                                                                                                                                     01424 G000000000199 0000000000000.23     01750 02000                  
00004620353910001P16759067590000001330080010280000001010000000000000000                             2000000000000000000000000              000000000000                    0000000000000000000000000                    000000000000                                                                                                                                                                                                                                                                                                                                                                                                                                                                                        
00004630353910031DT67590675900000013300800102800000010180010287287283074900012828997031420230000000019907423000000000580417514376XXXXXX4451                         NY 4607AMPWFXB0RX0314  N840000000000199          81DNCBD8666317293            712545    MD84000000000199 NP1549977133133   860B8308E3T1A0F874A508D  000000000+600450S00130    MPW  00062                     000000000  N                0000000000000.00 0000000.00   0000000.00                             000000000000000                                                                                                                                                   U001424  000000000000 0000000000000.15     02650 01000                  
00004640353910001P1675906759000000133008001028000000101                                                          000000000000          8000            871584967                                                                                                                                                                                                                                                                                                                                                                                                                                                                                                                                                            
00004650353910032DT67590675900000013300800102800000010180010224001193074900012829010031420230000000019907423000000000580417428803XXXXXX0213               2111111   NYV4 A7W583074045132867N840000000000199PMLV00    01DNCBD8666317293            931911    VD84000000000199 NP1549977133133   E501EEC457T7A1CDFB2437B  000000000+                S PS 10179                     000000000  N000000000 364   0000000000000.00 0000000.00   0000000.00                             000000000000000                                                                                                                                                     01424 G000000000199 0000000000000.15     02650 01000                  
00004660353910001P16759067590000001330080010280000001010000000000000000                             2000000000000000000000000              000000000000                    0000000000000000000000000                    000000000000                                                                                                                                                                                                                                                                                                                                                                                                                                                                                        
00004670353910033DT67590675900000013300800102800000010180010287287283074900012829029031420230000000019907423000000000580417524897XXXXXX6683                         NY 4607AMCOMYT8R70314  N840000000000199          81DNCBD8666317293            3ZMORG    MB84000000000199 NP1549977133133   7DE57F9A5CT219F1AF88385  000000000+600450S00130    MCO  00303                     000000000  N                0000000000000.00 0000000.00   0000000.00                             000000000000000                                                                                                                                                   U001424  000000000000 0000000000000.15     02700 01000                  
00004680353910001P1675906759000000133008001028000000101                                                          000000000000          8000            871584967                                                                                                                                                                                                                                                                                                                                                                                                                                                                                                                                                            
00004690353910034DT67590675900000013300800102800000010180010224001193074900012829036031420230000000019907423000000000580417404038XXXXXX7860               2111111   NYV4 A7W583074046914018N8400000000001996QS800    01DNCBD8666317293            UWASC5    VD84000000000199 NP1549977133133   4AE8482C40T0F7FE54BD5E3  000000000+                S PS 10179                     000000000  N000000000 364   0000000000000.00 0000000.00   0000000.00                             000000000000000                                                                                                                                                     01424 G000000000199 0000000000000.15     02650 01000                  
00004700353910001P16759067590000001330080010280000001010000000000000000                             2000000000000000000000000              000000000000                    0000000000000000000000000                    000000000000                                                                                                                                                                                                                                                                                                                                                                                                                                                                                        
00004710353910035DT67590675900000013300800102800000010180010287287283074900012829045031420230000000019907423000000000580417512507XXXXXX4188                         NY 4607AMCPHZLMGP0314  N840000000000199          81DNCBD8666317293            141864    MB84000000000199 NP1549977133133   EA520A2350T73A3DB11195D  000000000+600450S00130    MCP  00303                     000000000  N                0000000000000.00 0000000.00   0000000.00                             000000000000000                                                                                                                                                   U001424  000000000000 0000000000000.15     02700 01000                  
00004720353910001P1675906759000000133008001028000000101                                                          000000000000          8000            871584967                                                                                                                                                                                                                                                                                                                                                                                                                                                                                                                                                            
00004730353910036DT67590675900000013300800102800000010180010224001193074900012829051031420230000000019907423000000000580417408544XXXXXX7640               2111111   NYV4 A7W383074048128447N840000000000199KSV300    01DNCBD8666317293            433231    VB84000000000199 NP1549977133133   D45DB2ABA0TE3975FCEDC3D  000000000+                K CK 00691                     000000000  N000000000 234   0000000000000.00 0000000.00   0000000.00                             000000000000000                                                                                                                                                     01424 G000000000199 0000000000000.15     02700 01000                  
00004740353910001P16759067590000001330080010280000001010000000000000000                             2000000000000000000000000              000000000000                    0000000000000000000000000                    000000000000                                                                                                                                                                                                                                                                                                                                                                                                                                                                                        
00004750353910037DT67590675900000013300800102800000010180010276509753074900012829067031420230000001460307423000000000580417601100XXXXXX6423   BA00                  NY 4 07N873062978206773N840000000014603    00    01DNCBD8666317293            01485R    DS84000000014603 N  549977133133070                         000000000+1015104910600   DCCDI11325833769  202340000000 000000000  0          460   0000000000000.00 0000000.00   0000000.00                             000000000000000                                                                                                                                                     01424  000000000000 0000000000003.06     02030 01000                  
00004760353910038DT67590675900000013300800102800000010180010287287283074900012829078031420230000000019907423000000000580417524897XXXXXX7574                         NY 4607AMCPH3KKGP0314  N840000000000199          81DNCBD8666317293            04GJ78    MB84000000000199 NP1549977133133   9F766A6109T33A364AA09D1  000000000+600450S00130    MCP  00303                     000000000  N                0000000000000.00 0000000.00   0000000.00                             000000000000000                                                                                                                                                   U001424  000000000000 0000000000000.15     02700 01000                  
00004770353910001P1675906759000000133008001028000000101                                                          000000000000          8000            871584967                                                                                                                                                                                                                                                                                                                                                                                                                                                                                                                                                            
00004780353910039DT67590675900000013300800102800000010180010287287283074900012829086031420230000000019907423000000000580417515177XXXXXX1513                         NY 4607AMPLL4WRRX0314  N840000000000199          81DNCBD8666317293            156609    MC84000000000199 N  549977133133   CEAD480A97T624944EE2FC1  000000000+600450S00130    MPL  12148                     000000000  N                0000000000000.00 0000000.00   0000000.00                             000000000000000                                                                                                                                                   U001424  000000000000 0000000000000.06     01950 00200                  
00004790353910040DT67590675900000013300800102800000010180010276509753074900012829091031420230000000499907423000000000580417601100XXXXXX6423   BA00                  NY 4 07N873062980991382N840000000004999    00    01DNCBD8666317293            01452R    DS84000000004999 N  549977133133070                         000000000+1015104910600   DCCDI11325332773  202819000000 000000000  0          460   0000000000000.00 0000000.00   0000000.00                             000000000000000                                                                                                                                                     01424  000000000000 0000000000001.11     02030 01000                  
00004800353910041DT67590675900000013300800102800000010180010276509753074900012829109031420230000000149507423000000000580417601100XXXXXX6423   BA00                  NY 4 07N743062982072124N840000000001495    00    01DNCBD8666317293            01420R    DS84000000001495 N  549977133133070                         000000000+1015104910600   DCCDI11325500902  203007000000 000000000  0          460   0000000000000.00 0000000.00   0000000.00                             000000000000000                                                                                                                                                     01424  000000000000 0000000000000.40     02030 01000                  
00004810353910042DT67590675900000013300800102800000010180010224001193074900012829119031420230000000019907423000000000580417440393XXXXXX3284               2111111   NYV4 A7W303074055276874N840000000000199FTLS00    01DNCBD8666317293            985639    VD84000000000199 NP1549977133133   DB14A4AFC2TD0D3E2C25EBE  000000000+                F PF 08175                     000000000  N000000000       0000000000000.00 0000000.00   0000000.00                             000000000000000                                                                                                                                                     01424 G000000000199 0000000000000.23     01750 02000                  
00004820353910001P16759067590000001330080010280000001010000000000000000                             2000000000000000000000000              000000000000                    0000000000000000000000000                    000000000000                                                                                                                                                                                                                                                                                                                                                                                                                                                                                        
00004830353910043DT67590675900000013300800102800000010180010224001193074900012829127031420230000000019907423000000000580417412076XXXXXX1459               2111111   NYV4 A7W383074057068095N840000000000199JVP400    01DNCBD8666317293            553028    VS84000000000199 NP1549977133133   E2E3A5E347T89644F11995A  000000000+                A CA 12106                     000000000  N000000000 492   0000000000000.00 0000000.00   0000000.00                             000000000000000                                                                                                                                                     01424 G000000000199 0000000000000.14     01890 01000                  
00004840353910001P16759067590000001330080010280000001010000000000000000                             2000000000000000000000000              000000000000                    0000000000000000000000000                    000000000000                                                                                                                                                                                                                                                                                                                                                                                                                                                                                        
00004850353910044DT67590675900000013300800102800000010180010224001193074900012829135031420230000000019907423000000000580417428813XXXXXX0020               2111111   NYV4 A7W463074058924987N840000000000199HJPQ00    01DNCBD8666317293            720187    VB84000000000199 NP1549977133133   1CC3F33FC1T52ECF7999C5E  000000000+                S CS 00692                     000000000  N000000000 237   0000000000000.00 0000000.00   0000000.00                             000000000000000                                                                                                                                                     01424 G000000000199 0000000000000.15     02700 01000                  
00004860353910001P16759067590000001330080010280000001010000000000000000                             2000000000000000000000000              000000000000                    0000000000000000000000000                    000000000000                                                                                                                                                                                                                                                                                                                                                                                                                                                                                        
00004870353910045DT67590675900000013300800102800000010180010224001193074900012829143031420230000000019907423000000000580417408544XXXXXX8493               2111111   NYV4 A7W383074060643427N8400000000001994XJR00    01DNCBD8666317293            583046    VB84000000000199 NP1549977133133   938420B9D9TD89C62EB0644  000000000+                K CK 00691                     000000000  N000000000 234   0000000000000.00 0000000.00   0000000.00                             000000000000000                                                                                                                                                     01424 G000000000199 0000000000000.15     02700 01000                  
00004880353910001P16759067590000001330080010280000001010000000000000000                             2000000000000000000000000              000000000000                    0000000000000000000000000                    000000000000                                                                                                                                                                                                                                                                                                                                                                                                                                                                                        
00004890353910046DT67590675900000013300800102800000010180010224001193074900012829150031420230000000019907423000000000580417485932XXXXXX9154               2111111   NYV4 A7W583074062439089N8400000000001999XPC00    01DNCBD8666317293            554244    VB84000000000199 NP1549977133133   2DFF5E3332T2A921337C6B2  000000000+                S CS 00692                     000000000  N000000000 237   0000000000000.00 0000000.00   0000000.00                             000000000000000                                                                                                                                                     01424 G000000000199 0000000000000.15     02700 01000                  
00004900353910001P16759067590000001330080010280000001010000000000000000                             2000000000000000000000000              000000000000                    0000000000000000000000000                    000000000000                                                                                                                                                                                                                                                                                                                                                                                                                                                                                        
00004910353910047DT67590675900000013300800102800000010180010287287283074900012829169031420230000000019907423000000000580417514376XXXXXX0513                         NY 4607AMPWPDXSHS0314  N840000000000199          81DNCBD8666317293            810588    MD84000000000199 NP1549977133133   4527337D2DTD5786F92AEBE  000000000+600450S00130    MPW  00062                     000000000  N                0000000000000.00 0000000.00   0000000.00                             000000000000000                                                                                                                                                   U001424  000000000000 0000000000000.15     02650 01000                  
00004920353910001P1675906759000000133008001028000000101                                                          000000000000          8000            871584967                                                                                                                                                                                                                                                                                                                                                                                                                                                                                                                                                            
00004930353910048DT67590675900000013300800102800000010180010224001193074900012829176031420230000000019907423000000000580417428813XXXXXX6633               2111111   NYV4 A7W463074068431374N840000000000199VDVW00    01DNCBD8666317293            826667    VB84000000000199 NP1549977133133   0B97689F7AT2F3DBA4A2E54  000000000+                S CS 00692                     000000000  N000000000 237   0000000000000.00 0000000.00   0000000.00                             000000000000000                                                                                                                                                     01424 G000000000199 0000000000000.15     02700 01000                  
00004940353910001P16759067590000001330080010280000001010000000000000000                             2000000000000000000000000              000000000000                    0000000000000000000000000                    000000000000                                                                                                                                                                                                                                                                                                                                                                                                                                                                                        
00004950353910049DT67590675900000013300800102800000010180010224001193074900012829200031420230000000019907423000000000580417428813XXXXXX2428               2111111   NYV4 A7W583074071490603N840000000000199LQGQ00    01DNCBD8666317293            755928    VB84000000000199 NP1549977133133   8BDBF46500T37613E8F39A7  000000000+                S CS 00692                     000000000  N000000000 237   0000000000000.00 0000000.00   0000000.00                             000000000000000                                                                                                                                                     01424 G000000000199 0000000000000.15     02700 01000                  
00004960353910001P16759067590000001330080010280000001010000000000000000                             2000000000000000000000000              000000000000                    0000000000000000000000000                    000000000000                                                                                                                                                                                                                                                                                                                                                                                                                                                                                        
00004970353910050DT67590675900000013300800102800000010180010224001193074900012829218031420230000000019907423000000000580417441112XXXXXX9257               2111111   NYV4 A7W463074072648043N8400000000001994T7700    01DNCBD8666317293            BJS6RQ    VD84000000000199 NP1549977133133   FD965978F4T715DBF23CDA1  000000000+                S PS 10179                     000000000  N000000000 364   0000000000000.00 0000000.00   0000000.00                             000000000000000                                                                                                                                                     01424 G000000000199 0000000000000.15     02650 01000                  
00004980353910001P16759067590000001330080010280000001010000000000000000                             2000000000000000000000000              000000000000                    0000000000000000000000000                    000000000000                                                                                                                                                                                                                                                                                                                                                                                                                                                                                        
00004990353910051DT67590675900000013300800102800000010180010287287283074900012829227031420230000000019907423000000000580417514376XXXXXX4897                         NY 4607AMPWIQZ8GP0314  N840000000000199          81DNCBD8666317293            712398    MD84000000000199 NP1549977133133   4DFAA84ADET6A1BA53CF9D1  000000000+600450S00130    MPW  00062                     000000000  N                0000000000000.00 0000000.00   0000000.00                             000000000000000                                                                                                                                                   U001424  000000000000 0000000000000.15     02650 01000                  
00005000353910001P1675906759000000133008001028000000101                                                          000000000000          8000            871584967                                                                                                                                                                                                                                                                                                                                                                                                                                                                                                                                                            
00005010353910052DT67590675900000013300800102800000010180010287287283074900012829235031420230000000019907423000000000580417556150XXXXXX6480                         NY 4607AMCFLP5THS0314  N840000000000199          81DNCBD8666317293            E7VD52    MB84000000000199 NP1549977133133   6E272092FATB0D95DB1E3D1  000000000+600450S00130    MCF  00060                     000000000  N                0000000000000.00 0000000.00   0000000.00                             000000000000000                                                                                                                                                     01424  000000000000 0000000000000.16     02950 01000                  
00005020353910001P1675906759000000133008001028000000101                                                          000000000000          8000            871584967                                                                                                                                                                                                                                                                                                                                                                                                                                                                                                                                                            
00005030353910053DT67590675900000013300800102800000010180010224001193074900012829242031420230000000019907423000000000580417428813XXXXXX8921               2111111   NYV4 A7W303074082254243N840000000000199HR8500    01DNCBD8666317293            630186    VB84000000000199 NP1549977133133   478FB6838AT59F9215D3F70  000000000+                S CS 00692                     000000000  N000000000 237   0000000000000.00 0000000.00   0000000.00                             000000000000000                                                                                                                                                     01424 G000000000199 0000000000000.15     02700 01000                  
00005040353910001P16759067590000001330080010280000001010000000000000000                             2000000000000000000000000              000000000000                    0000000000000000000000000                    000000000000                                                                                                                                                                                                                                                                                                                                                                                                                                                                                        
00005050353910054DT67590675900000013300800102800000010180010224001193074900012829259031420230000000019907423000000000580417412076XXXXXX6693               2111111   NYV4 A7W583074082842097N840000000000199L7XQ00    01DNCBD8666317293            629757    VS84000000000199 NP1549977133133   A28005515FTF797713F2BD8  000000000+                A CA 12106                     000000000  N000000000 492   0000000000000.00 0000000.00   0000000.00                             000000000000000                                                                                                                                                     01424 G000000000199 0000000000000.14     01890 01000                  
00005060353910001P16759067590000001330080010280000001010000000000000000                             2000000000000000000000000              000000000000                    0000000000000000000000000                    000000000000                                                                                                                                                                                                                                                                                                                                                                                                                                                                                        
00005070353910055DT67590675900000013300800102800000010180010224001193074900012829267031420230000000019907423000000000580417408544XXXXXX8658               2111111   NYV4 A7W383074083458862N8400000000001998FSJ00    01DNCBD8666317293            153234    VB84000000000199 NP1549977133133   C370FEB789TF62D19D6B500  000000000+                K CK 00691                     000000000  N000000000 234   0000000000000.00 0000000.00   0000000.00                             000000000000000                                                                                                                                                     01424 G000000000199 0000000000000.15     02700 01000                  
00005080353910001P16759067590000001330080010280000001010000000000000000                             2000000000000000000000000              000000000000                    0000000000000000000000000                    000000000000                                                                                                                                                                                                                                                                                                                                                                                                                                                                                        
00005090353910056DT67590675900000013300800102800000010180010224001193074900012829275031420230000000019907423000000000580417428813XXXXXX7133               2111111   NYV4 A7W463074089462830N840000000000199F2ZS00    01DNCBD8666317293            729930    VB84000000000199 NP1549977133133   FE3F41B717T052100B68272  000000000+                S CS 00692                     000000000  N000000000 237   0000000000000.00 0000000.00   0000000.00                             000000000000000                                                                                                                                                     01424 G000000000199 0000000000000.15     02700 01000                  
00005100353910001P16759067590000001330080010280000001010000000000000000                             2000000000000000000000000              000000000000                    0000000000000000000000000                    000000000000                                                                                                                                                                                                                                                                                                                                                                                                                                                                                        
00005110353910057DT67590675900000013300800102800000010180010224001193074900012829283031420230000000019907423000000000580417428813XXXXXX9506               2111111   NYV4 A7W303074090114057N840000000000199JX5H00    01DNCBD8666317293            767991    VB84000000000199 NP1549977133133   41CCF4E135T5613B2268F1A  000000000+                S CS 00692                     000000000  N000000000 237   0000000000000.00 0000000.00   0000000.00                             000000000000000                                                                                                                                                     01424 G000000000199 0000000000000.15     02700 01000                  
00005120353910001P16759067590000001330080010280000001010000000000000000                             2000000000000000000000000              000000000000                    0000000000000000000000000                    000000000000                                                                                                                                                                                                                                                                                                                                                                                                                                                                                        
00005130353910058DT67590675900000013300800102800000010180010287287283074900012829292031420230000000019907423000000000580417524897XXXXXX2210                         NY 4607AMCOLY61HS0314  N840000000000199          81DNCBD8666317293            XZ8P2K    MB84000000000199 NP1549977133133   5AD103BA16TF5A8B1B48BDC  000000000+600450S00130    MCO  00303                     000000000  N                0000000000000.00 0000000.00   0000000.00                             000000000000000                                                                                                                                                   U001424  000000000000 0000000000000.15     02700 01000                  
00005140353910001P1675906759000000133008001028000000101                                                          000000000000          8000            871584967                                                                                                                                                                                                                                                                                                                                                                                                                                                                                                                                                            
00005150353910059DT67590675900000013300800102800000010180010287287283074900012829300031420230000000019907423000000000580417556371XXXXXX8444                         NY 4607AMCFT3KOTI0314  N840000000000199          81DNCBD8666317293            KV0XAP    MB84000000000199 NP1549977133133   7F51BA6A90TADE7D3E96409  000000000+600450S00130    MCF  00060                     000000000  N                0000000000000.00 0000000.00   0000000.00                             000000000000000                                                                                                                                                   U001424  000000000000 0000000000000.16     02950 01000                  
00005160353910001P1675906759000000133008001028000000101                                                          000000000000          8000            871584967                                                                                                                                                                                                                                                                                                                                                                                                                                                                                                                                                            
00005170353910060DT67590675900000013300800102800000010180010224001193074900012829317031420230000000019907423000000000580417441112XXXXXX5720               2111111   NYV4 A7W583074099047609N84000000000019933NL00    01DNCBD8666317293            RHJ2KU    VD84000000000199 NP1549977133133   ADB6D3B7B1T0B9C485DD966  000000000+                S PS 10179                     000000000  N000000000 364   0000000000000.00 0000000.00   0000000.00                             000000000000000                                                                                                                                                     01424 G000000000199 0000000000000.15     02650 01000                  
00005180353910001P16759067590000001330080010280000001010000000000000000                             2000000000000000000000000              000000000000                    0000000000000000000000000                    000000000000                                                                                                                                                                                                                                                                                                                                                                                                                                                                                        
00005190353910061DT67590675900000013300800102800000010180010224001193074900012829325031420230000000019907423000000000580417412076XXXXXX8459               2111111   NYV4 A7W383074099716094N840000000000199V5S300    01DNCBD8666317293            078217    VS84000000000199 NP1549977133133   CCF5DBEEADT6594532CABF9  000000000+                A CA 12106                     000000000  N000000000 492   0000000000000.00 0000000.00   0000000.00                             000000000000000                                                                                                                                                     01424 G000000000199 0000000000000.14     01890 01000                  
00005200353910001P16759067590000001330080010280000001010000000000000000                             2000000000000000000000000              000000000000                    0000000000000000000000000                    000000000000                                                                                                                                                                                                                                                                                                                                                                                                                                                                                        
00005210353910062DT67590675900000013300800102800000010180010224001193074900012829333031420230000000019907423000000000580417404038XXXXXX8918               2111111   NYV4 A7W303074103836966N840000000000199VHCF00    01DNCBD8666317293            G2E3WS    VD84000000000199 NP1549977133133   4D3B5EBD47TEC9037868F87  000000000+                S PS 10179                     000000000  N000000000 364   0000000000000.00 0000000.00   0000000.00                             000000000000000                                                                                                                                                     01424 G000000000199 0000000000000.15     02650 01000                  
00005220353910001P16759067590000001330080010280000001010000000000000000                             2000000000000000000000000              000000000000                    0000000000000000000000000                    000000000000                                                                                                                                                                                                                                                                                                                                                                                                                                                                                        
00005230353910063DT67590675900000013300800102800000010180010287287283074900012829375031420230000000019907423000000000580417553437XXXXXX8534                         NY 4607AMBSQ07RHS0314  N840000000000199          81DNCBD8666317293            WOJPXD    MB84000000000199 NP1549977133133   11E20784C8T8A9628DEC86B  000000000+600450S00130    MBS  00303                     000000000  N                0000000000000.00 0000000.00   0000000.00                             000000000000000                                                                                                                                                   U001424  000000000000 0000000000000.15     02700 01000                  
00005240353910001P1675906759000000133008001028000000101                                                          000000000000          8000            871584967                                                                                                                                                                                                                                                                                                                                                                                                                                                                                                                                                            
00005250353910064DT67590675900000013300800102800000010180010224001193074900012829382031520230000000019907423000000000580417412076XXXXXX1010               2111111   NYV4 A7W303074192092718N840000000000199BXZH00    01DNCBD8666317293            854632    VS84000000000199 NP1549977133133   60E6837273T6DB838C99D48  000000000+                A CA 12106                     000000000  N000000000 492   0000000000000.00 0000000.00   0000000.00                             000000000000000                                                                                                                                                     01424 G000000000199 0000000000000.14     01890 01000                  
00005260353910001P16759067590000001330080010280000001010000000000000000                             2000000000000000000000000              000000000000                    0000000000000000000000000                    000000000000                                                                                                                                                                                                                                                                                                                                                                                                                                                                                        
00005270353910065DT67590675900000013300800102800000010180010224001193074900012829390031520230000001987007423000000000580417448975XXXXXX6558               2111111   NYV4 A7W383074193990541N840000000019870T6H700    01DNCBD8666317293            497297    VD84000000019870 NP1549977133133   29F740C684T44486D9CB578  000000000+                G PG 10179                     000000000  N000000000 364   0000000000000.00 0000000.00   0000000.00                             000000000000000                                                                                                                                                     01424 G000000019870 0000000000005.37     02650 01000                  
00005280353910001P16759067590000001330080010280000001010000000000000000                             2000000000000000000000000              000000000000                    0000000000000000000000000                    000000000000                                                                                                                                                                                                                                                                                                                                                                                                                                                                                        
00005290353910066DT67590675900000013300800102800000010180010224001193074900012829408031520230000000019907423000000000580417408544XXXXXX6742               2111111   NYV4 A7W463074209463192N84000000000019989JV00    01DNCBD8666317293            189583    VB84000000000199 NP1549977133133   0264FFA227TCD89B05858E5  000000000+                K CK 00691                     000000000  N000000000 234   0000000000000.00 0000000.00   0000000.00                             000000000000000                                                                                                                                                     01424 G000000000199 0000000000000.15     02700 01000                  
00005300353910001P16759067590000001330080010280000001010000000000000000                             2000000000000000000000000              000000000000                    0000000000000000000000000                    000000000000                                                                                                                                                                                                                                                                                                                                                                                                                                                                                        
00005310353910067DT67590675900000013300800102800000010180010224001193074900012829416031520230000000019907423000000000580417408544XXXXXX5688               2111111   NYV4 A7W303074227493599N840000000000199HJTH00    01DNCBD8666317293            331324    VB84000000000199 NP1549977133133   6FC4E2DCEETFC3F087EBA2F  000000000+                K CK 00691                     000000000  N000000000 234   0000000000000.00 0000000.00   0000000.00                             000000000000000                                                                                                                                                     01424 G000000000199 0000000000000.15     02700 01000                  
00005320353910001P16759067590000001330080010280000001010000000000000000                             2000000000000000000000000              000000000000                    0000000000000000000000000                    000000000000                                                                                                                                                                                                                                                                                                                                                                                                                                                                                        
00005330353910068DT67590675900000013300800102800000010180010224001193074900012829424031520230000000019907423000000000580417440393XXXXXX9180               2111111   NYV4 A7W583074228668616N840000000000199ZFJF00    01DNCBD8666317293            473958    VD84000000000199 NP1549977133133   03E8A64A9DT0382FC6EEFC7  000000000+                F PF 08175                     000000000  N000000000       0000000000000.00 0000000.00   0000000.00                             000000000000000                                                                                                                                                     01424 G000000000199 0000000000000.23     01750 02000                  
00005340353910001P16759067590000001330080010280000001010000000000000000                             2000000000000000000000000              000000000000                    0000000000000000000000000                    000000000000                                                                                                                                                                                                                                                                                                                                                                                                                                                                                        
00005350353910069DT67590675900000013300800102800000010180010287287283074900012829441031520230000000019907423000000000580417553370XXXXXX8062                         NY 4607AMCF0OOP5H0315  N840000000000199          81DNCBD8666317293            XJ8OV0    MB84000000000199 NP1549977133133   04F799D8C3T6C552B57BF15  000000000+600450S00130    MCF  00060                     000000000  N                0000000000000.00 0000000.00   0000000.00                             000000000000000                                                                                                                                                   U001424  000000000000 0000000000000.16     02950 01000                  
00005360353910001P1675906759000000133008001028000000101                                                          000000000000          8000            871584967                                                                                                                                                                                                                                                                                                                                                                                                                                                                                                                                                            
00005370353910070DT67590675900000013300800102800000010180010224001193074900012829457031520230000000019907423000000000580417408544XXXXXX2204               2111111   NYV4 A7W583074233458102N840000000000199G23V00    01DNCBD8666317293            077563    VB84000000000199 NP1549977133133   D51C36747FT644388D78726  000000000+                K CK 00691                     000000000  N000000000 234   0000000000000.00 0000000.00   0000000.00                             000000000000000                                                                                                                                                     01424 G000000000199 0000000000000.15     02700 01000                  
00005380353910001P16759067590000001330080010280000001010000000000000000                             2000000000000000000000000              000000000000                    0000000000000000000000000                    000000000000                                                                                                                                                                                                                                                                                                                                                                                                                                                                                        
00005390353910071DT67590675900000013300800102800000010180010224001193074900012829465031520230000000019907423000000000580417404038XXXXXX0659               2111111   NYV4 A7W383074244320840N840000000000199MJ3K00    01DNCBD8666317293            J4OGVP    VD84000000000199 NP1549977133133   88CCAD550BTDF0F32E1C2F1  000000000+                S PS 10179                     000000000  N000000000 364   0000000000000.00 0000000.00   0000000.00                             000000000000000                                                                                                                                                     01424 G000000000199 0000000000000.15     02650 01000                  
00005400353910001P16759067590000001330080010280000001010000000000000000                             2000000000000000000000000              000000000000                    0000000000000000000000000                    000000000000                                                                                                                                                                                                                                                                                                                                                                                                                                                                                        
00005410353910072DT67590675900000013300800102800000010180010287287283074900012829474031520230000000019907423000000000580417524897XXXXXX2163                         NY 4607AMCP1VT3GP0315  N840000000000199          81DNCBD8666317293            WS0O4B    MB84000000000199 NP1549977133133   6AF63340C3TAA77EDF6AB04  000000000+600450S00130    MCP  00303                     000000000  N                0000000000000.00 0000000.00   0000000.00                             000000000000000                                                                                                                                                   U001424  000000000000 0000000000000.15     02700 01000                  
00005420353910001P1675906759000000133008001028000000101                                                          000000000000          8000            871584967                                                                                                                                                                                                                                                                                                                                                                                                                                                                                                                                                            
00005430353910073DT67590675900000013300800102800000010180010224001193074900012829481031520230000000019907423000000000580417408544XXXXXX0328               2111111   NYV4 A7W303074249656090N840000000000199D9X900    01DNCBD8666317293            692033    VB84000000000199 NP1549977133133   EDA11C3081T3CB426A245BF  000000000+                K CK 00691                     000000000  N000000000 234   0000000000000.00 0000000.00   0000000.00                             000000000000000                                                                                                                                                     01424 G000000000199 0000000000000.15     02700 01000                  
00005440353910001P16759067590000001330080010280000001010000000000000000                             2000000000000000000000000              000000000000                    0000000000000000000000000                    000000000000                                                                                                                                                                                                                                                                                                                                                                                                                                                                                        
00005450353910074DT67590675900000013300800102800000010180010287287283074900012829490031520230000000019907423000000000580417534786XXXXXX2780                         NY 4607AMCO10JFGR0315  N840000000000199          81DNCBD8666317293            UNA2OS    MB84000000000199 NP1549977133133   D28BA6F2CDT9C95CD5856CC  000000000+600450S00130    MCO  00303                     000000000  N                0000000000000.00 0000000.00   0000000.00                             000000000000000                                                                                                                                                   U001424  000000000000 0000000000000.15     02700 01000                  
00005460353910001P1675906759000000133008001028000000101                                                          000000000000          8000            871584967                                                                                                                                                                                                                                                                                                                                                                                                                                                                                                                                                            
00005470353910075DT67590675900000013300800102800000010180010224001193074900012829523031520230000000019907423000000000580417440393XXXXXX3485               2111111   NYV4 A7W583074261682361N840000000000199BP7Z00    01DNCBD8666317293            080927    VD84000000000199 NP1549977133133   BA80CDAB76T30D1D4A79341  000000000+                F PF 08175                     000000000  N000000000       0000000000000.00 0000000.00   0000000.00                             000000000000000                                                                                                                                                     01424 G000000000199 0000000000000.23     01750 02000                  
00005480353910001P16759067590000001330080010280000001010000000000000000                             2000000000000000000000000              000000000000                    0000000000000000000000000                    000000000000                                                                                                                                                                                                                                                                                                                                                                                                                                                                                        
00005490353910076DT67590675900000013300800102800000010180010224001193074900012829531031520230000000019907423000000000580417441112XXXXXX1638               2111111   NYV4 A7W583074263476990N840000000000199XLXV00    01DNCBD8666317293            D0LQZS    VD84000000000199 NP1549977133133   889B236AE7TAC8B669CD595  000000000+                S PS 10179                     000000000  N000000000 364   0000000000000.00 0000000.00   0000000.00                             000000000000000                                                                                                                                                     01424 G000000000199 0000000000000.15     02650 01000                  
00005500353910001P16759067590000001330080010280000001010000000000000000                             2000000000000000000000000              000000000000                    0000000000000000000000000                    000000000000                                                                                                                                                                                                                                                                                                                                                                                                                                                                                        
00005510353910077DT67590675900000013300800102800000010180010287287283074900012829540031520230000000019907423000000000580417559666XXXXXX2617                         NY 4607AMPLAC7TT20315  N840000000000199          81DNCBD8666317293            0K9EQ8    MC84000000000199 N  549977133133   7865840453TB153FA3B6663  000000000+600450S00130    MPL  12148                     000000000  N                0000000000000.00 0000000.00   0000000.00                             000000000000000                                                                                                                                                     01424  000000000000 0000000000000.06     01950 00200                  
00005520353910078DT67590675900000013300800102800000010180010224001193074900012829556031520230000000019907423000000000580417440393XXXXXX3965               2111111   NYV4 A7W463074301862541N840000000000199FFVS00    01DNCBD8666317293            635273    VD84000000000199 NP1549977133133   722CFAEE43T1230C74D521C  000000000+                F PF 08175                     000000000  N000000000       0000000000000.00 0000000.00   0000000.00                             000000000000000                                                                                                                                                     01424 G000000000199 0000000000000.23     01750 02000                  
00005530353910001P16759067590000001330080010280000001010000000000000000                             2000000000000000000000000              000000000000                    0000000000000000000000000                    000000000000                                                                                                                                                                                                                                                                                                                                                                                                                                                                                        
00005540353910079DT67590675900000013300800102800000010180010224001193074900012829580031520230000000019907423000000000580417412076XXXXXX0448               2111111   NYV4 A7W303074375648413N840000000000199F5S200    01DNCBD8666317293            191359    VS84000000000199 NP1549977133133   2C0264DC77T8B6239B30743  000000000+                A CA 12106                     000000000  N000000000 492   0000000000000.00 0000000.00   0000000.00                             000000000000000                                                                                                                                                     01424 G000000000199 0000000000000.14     01890 01000                  
00005550353910001P16759067590000001330080010280000001010000000000000000                             2000000000000000000000000              000000000000                    0000000000000000000000000                    000000000000                                                                                                                                                                                                                                                                                                                                                                                                                                                                                        
