01867780584040002BH6759067590000000288180088880000090171226202236022000000000040616    0000090001020005N8008886759C12272022                                                                                                                                                                                                                                                                                                                                                                                                                                                                                                                                                                                                 
01867790584040003DT67590675900000002881800888800000010180088824001192360900010200011122620220000000696636022000000000040616440393XXXXXX1968       VS11    0001111   NYV1 A E302360677175028N840000000006966B3GP00    05DNHAPPY HIPPIE             340151    VD84000000006966 N  549976487134                            000000000+                F PF 08170                     000000000  N000000000       0000000000000.00 0000000.00   0000000.00                             000000000000000                                                                                                                                                     01418 A000000000000 0000000000000.95     01150 01500                  
01867800584040004DT67590675900000002881800888800000010180088824001192360900010200029122620220000001875436022000000000040616480639XXXXXX7400       VS11    0001111   NYV1 A E382360765267613N840000000018754X67B00    05DNHAPPY HIPPIE             032516    VD84000000018754 N  549976487134                            000000000+                F DF 00381                     000000000  N000000000       0000000000000.00 0000000.00   0000000.00                             000000000000000                                                                                                                                                     01418 A000000000000 0000000000001.65     00800 01500                  
01867810584040005DT67590675900000002881800888800000010180088824001192360900010200037122620220000000246836022000000000040616415978XXXXXX3281       VS11    0001111   NYV1 A E582360766185787N840000000002468PLRW00    05DNHAPPY HIPPIE             073921    VD84000000002468 N  549976487134                            000000000+                F DF 10433                     000000000  Y000000000 338   0000000000000.00 0000000.00   0000000.00                             000000000000000                                                                                                                                                     01418 A000000000000 0000000000000.23     00050 02200                  
01867820584040006DT67590675900000002881800888800000010180088824001192360900010200045122620220000000355236022000000000040616423223XXXXXX4335       VS11    0001111   NYV1 A E382360770907204N840000000003552X2MJ00    05DNHAPPY HIPPIE             085071    VD84000000003552 N  549976487134                            000000000+                F DF 00381                     000000000  N000000000       0000000000000.00 0000000.00   0000000.00                             000000000000000                                                                                                                                                     01418 A000000000000 0000000000000.43     00800 01500                  
01867830584040007DT67590675900000002881800888800000010180088824001192360900010200052122620220000000887636022000000000040616445101XXXXXX0629       VS11    0001111   NYV1 A E462360786574295N840000000008876C7KK00    05DNHAPPY HIPPIE             710263    VD84000000008876 N  549976487134                            000000000+                F DF 10433                     000000000  Y000000000 338   0000000000000.00 0000000.00   0000000.00                             000000000000000                                                                                                                                                     01418 A000000000000 0000000000000.26     00050 02200                  
01867840584040008BH6759067590000000288180088880000090171226202236022000000000183881    0000090001020032N8008886759C12272022                                                                                                                                                                                                                                                                                                                                                                                                                                                                                                                                                                                                 
01867850584040009DT67590675900000002881800888800000010180088824001192360900010200011122620220000000904336022000000000183881444796XXXXXX4143       VS11    0001111   NYV1 A E382360547552701N840000000009043LR9400    05DNHAPPY HIPPIE             026265    VS84000000009043 N  549976487158                            000000000+                A CA 12110                     000000000  N000000000 493   0000000000000.00 0000000.00   0000000.00                             000000000000000                                                                                                                                                     01418 A000000000000 0000000000001.47     01510 01000                  
01867860584040010DT67590675900000002881800888800000010180088824001192360900010200029122620220000000097336022000000000183881433419XXXXXX4929       VK04VS111111111   NYV1 A E302360554993323N840000000000973XFGQ00    05DNHAPPY HIPPIE             967500    VS84000000000973 N  549976487158                            000000000+                A CA 12053                     000000000  N000000000 450   0000000000000.00 0000000.00   0000000.00                             000000000000000                                                                                                                                                     01418 F000000000000 0000000000000.18     01900 00000                  
01867870584040011DT67590675900000002881800888800000010180088824001192360900010200037122620220000000329336022000000000183881423223XXXXXX7791       VS11    0001111   NYV1 A E382360555897399N840000000003293ZVX500    05DNHAPPY HIPPIE             071311    VD84000000003293 N  549976487158                            000000000+                F DF 00381                     000000000  N000000000       0000000000000.00 0000000.00   0000000.00                             000000000000000                                                                                                                                                     01418 A000000000000 0000000000000.41     00800 01500                  
01867880584040012DT67590675900000002881800888800000010180088877287282360900010200047122620220000000164536022000000000183881546412XXXXXX8213       MS02WI09          NY 2 0 AMDJOTXVJV1226  N840000000001645          05DNHAPPY HIPPIE             041438    MD84000000001645 N  549976487158                            000000000+M10101C1334C    MDJ  00402                     000000000  N                0000000000000.00 0000000.00   0000000.00                             000000000000000                                                                                                                                                     01418  000000000000 0000000000000.32     01050 01500                  
01867890584040013DT67590675900000002881800888800000010180088877287282360900010200054122620220000000691336022000000000183881552433XXXXXX4375       MS02WI09          NY 1 0 AMPLXDUMWB1226  N840000000006913          05DNHAPPY HIPPIE             02585M    MC84000000006913 N  549976487158                            000000000+M10101C5434C    MPL  00364                     000000000  N                0000000000000.00 0000000.00   0000000.00                             000000000000000                                                                                                                                                   B101418  000000000000 0000000000001.28     01800 00400                  
01867900584040014DT67590675900000002881800888800000010180088824001192360900010200060122620220000000987836022000000000183881498503XXXXXX9797       VS11    0001111   NYV1 A E582360568458158N840000000009878JCPV00    05DNHAPPY HIPPIE             039309    VD84000000009878 N  549976487158                            000000000+                F DF 00381                     000000000  N000000000       0000000000000.00 0000000.00   0000000.00                             000000000000000                                                                                                                                                     01418 A000000000000 0000000000000.94     00800 01500                  
01867910584040015DT67590675900000002881800888800000010180088824001192360900010200078122620220000000395036022000000000183881415978XXXXXX3505       VS11    0001111   NYV1 A E582360571354062N8400000000039509KXK00    05DNHAPPY HIPPIE             013392    VD84000000003950 N  549976487158                            000000000+                F DF 10433                     000000000  Y000000000 338   0000000000000.00 0000000.00   0000000.00                             000000000000000                                                                                                                                                     01418 A000000000000 0000000000000.24     00050 02200                  
01867920584040016DT67590675900000002881800888800000010180088824001192360900010200086122620220000000216136022000000000183881449507XXXXXX0245       VS11    0001111   NYV1 A E382360577698050N8400000000021615MVK00    07DNHAPPY HIPPIE             010249    VD84000000002161 N  549976487158                            000000000+                F DF 00381                     000000000  N000000000       0000000000000.00 0000000.00   0000000.00                             000000000000000                                                                                                                                                     01418 A000000000000 0000000000000.32     00800 01500                  
01867930584040017DT67590675900000002881800888800000010180088824001192360900010200094122620220000001755836022000000000183881473702XXXXXX7575       VS11    0001111   NYV1 A E302360593214376N840000000017558RC9D00    05DNHAPPY HIPPIE             005006    VD84000000017558 N  549976487158                            000000000+                F DF 10433                     000000000  Y000000000 338   0000000000000.00 0000000.00   0000000.00                             000000000000000                                                                                                                                                     01418 A000000000000 0000000000000.31     00050 02200                  
01867940584040018DT67590675900000002881800888800000010180088824001192360900010200102122620220000001272936022000000000183881414718XXXXXX3257       VS11    0001111   NYV1 A E382360595243045N840000000012729PN3P00    05DNHAPPY HIPPIE             026766    VS84000000012729 N  549976487158                            000000000+                D CD 12113                     000000000  N000000000 499   0000000000000.00 0000000.00   0000000.00                             000000000000000                                                                                                                                                     01418 A000000000000 0000000000002.77     02100 01000                  
01867950584040019DT67590675900000002881800888800000010180088824001192360900010200110122620220000000276636022000000000183881440393XXXXXX0930       VS11    0001111   NYV1 A E462360597891790N840000000002766X3ZG00    05DNHAPPY HIPPIE             739834    VD84000000002766 N  549976487158                            000000000+                F PF 08170                     000000000  N000000000       0000000000000.00 0000000.00   0000000.00                             000000000000000                                                                                                                                                     01418 A000000000000 0000000000000.47     01150 01500                  
01867960584040020DT67590675900000002881800888800000010180088824001192360900010200128122620220000000158036022000000000183881480639XXXXXX7661       VS11    0001111   NYV1 A E462360606161589N840000000001580NB6Q00    05DNHAPPY HIPPIE             025431    VD84000000001580 N  549976487158                            000000000+                F DF 00381                     000000000  N000000000       0000000000000.00 0000000.00   0000000.00                             000000000000000                                                                                                                                                     01418 A000000000000 0000000000000.28     00800 01500                  
01867970584040021DT67590675900000002881800888800000010180088824001192360900010200136122620220000000316136022000000000183881419090XXXXXX0754       VS11    0001111   NYV1 A E462360621211730N840000000003161CMPN00    05DNHAPPY HIPPIE             235882    VD84000000003161 N  549976487158                            000000000+                F DF 00381                     000000000  N000000000       0000000000000.00 0000000.00   0000000.00                             000000000000000                                                                                                                                                     01418 A000000000000 0000000000000.40     00800 01500                  
01867980584040022DT67590675900000002881800888800000010180088824001192360900010200144122620220000000256636022000000000183881415978XXXXXX0672       VS11    0001111   NYV1 A E462360641178976N840000000002566QXXM00    07DNHAPPY HIPPIE             014319    VD84000000002566 N  549976487158                            000000000+                F DF 10433                     000000000  Y000000000 338   0000000000000.00 0000000.00   0000000.00                             000000000000000                                                                                                                                                     01418 A000000000000 0000000000000.23     00050 02200                  
01867990584040023DT67590675900000002881800888800000010180088824001192360900010200151122620220000000444436022000000000183881414398XXXXXX6665       VS11    0001111   NYV1 A E382360643316572N840000000004444GS6S00    90DNHAPPY HIPPIE             438063    VD84000000004444 N  549976487158                            000000000+                F DF 00381                     000000000  N000000000       0000000000000.00 0000000.00   0000000.00                             000000000000000                                                                                                                                                     01418 A000000000000 0000000000000.51     00800 01500                  
01868000584040024DT67590675900000002881800888800000010180088824001192360900010200169122620220000000500036022000000000183881484718XXXXXX4943       VS11    0001111   NYV1 A E462360648632845N8400000000050008GND00    90DNHAPPY HIPPIE             115189    VD84000000005000 N  549976487158                            000000000+                F PF 08170                     000000000  N000000000       0000000000000.00 0000000.00   0000000.00                             000000000000000                                                                                                                                                     01418 A000000000000 0000000000000.73     01150 01500                  
01868010584040025DT67590675900000002881800888800000010180088877287282360900010200179122620220000000592536022000000000183881511953XXXXXX8148       MS02WI09          NY 1 0 AMDJQ87UJV1226  N840000000005925          05DNHAPPY HIPPIE             014518    MD84000000005925 N  549976487158                            000000000+M10101C5434C    MDJ  00402                     000000000  N                0000000000000.00 0000000.00   0000000.00                             000000000000000                                                                                                                                                   B101418  000000000000 0000000000000.77     01050 01500                  
01868020584040026DT67590675900000002881800888800000010180088824001192360900010200185122620220000000641836022000000000183881445102XXXXXX6903       VS11    0001111   NYV1 A E582360666044606N840000000006418HQH700    05DNHAPPY HIPPIE             622048    VD84000000006418 N  549976487158                            000000000+                F DF 10433                     000000000  Y000000000 338   0000000000000.00 0000000.00   0000000.00                             000000000000000                                                                                                                                                     01418 A000000000000 0000000000000.25     00050 02200                  
01868030584040027DT67590675900000002881800888800000010180088824001192360900010200193122620220000000274336022000000000183881414740XXXXXX7487       VS11    0001111   NYV1 A E582360688305142N840000000002743C99Q00    07DNHAPPY HIPPIE             01310D    VS84000000002743 N  549976487158                            000000000+                D CD 12113                     000000000  N000000000 499   0000000000000.00 0000000.00   0000000.00                             000000000000000                                                                                                                                                     01418 A000000000000 0000000000000.68     02100 01000                  
01868040584040028DT67590675900000002881800888800000010180088824001192360900010200201122620220000002370336022000000000183881431136XXXXXX3509       VS11    0001111   NYV1 A E302360691283910N840000000023703XZJR00    05DNHAPPY HIPPIE             026300    VS84000000023703 N  549976487158                            000000000+                C CC 12112                     000000000  N000000000 497   0000000000000.00 0000000.00   0000000.00                             000000000000000                                                                                                                                                     01418 A000000000000 0000000000004.01     01650 01000                  
01868050584040029DT67590675900000002881800888800000010180088824001192360900010200219122620220000000329136022000000000183881423223XXXXXX6560       VS11    0001111   NYV1 A E382360703375929N840000000003291V2SL00    05DNHAPPY HIPPIE             060227    VD84000000003291 N  549976487158                            000000000+                F DF 00381                     000000000  N000000000       0000000000000.00 0000000.00   0000000.00                             000000000000000                                                                                                                                                     01418 A000000000000 0000000000000.41     00800 01500                  
01868060584040030DT67590675900000002881800888800000010180088824001192360900010200227122620220000000690836022000000000183881422921XXXXXX1403       VS11    0001111   NYV1 A E462360711088372N840000000006908NKR400    05DNHAPPY HIPPIE             053109    VD84000000006908 N  549976487158                            000000000+                F DF 00381                     000000000  N000000000       0000000000000.00 0000000.00   0000000.00                             000000000000000                                                                                                                                                     01418 A000000000000 0000000000000.70     00800 01500                  
01868070584040031DT67590675900000002881800888800000010180088824001192360900010200235122620220000000691336022000000000183881426690XXXXXX2617       VS11    0001111   NYV1 A E462360712622200N840000000006913C8CR00    05DNHAPPY HIPPIE             02289C    VS84000000006913 N  549976487158                            000000000+                C CC 12112                     000000000  N000000000 497   0000000000000.00 0000000.00   0000000.00                             000000000000000                                                                                                                                                     01418 A000000000000 0000000000001.24     01650 01000                  
01868080584040032DT67590675900000002881800888800000010180088824001192360900010200243122620220000000523336022000000000183881422921XXXXXX2575       VS11    0001111   NYV1 A E302360721395540N8400000000052333HPM00    07DNHAPPY HIPPIE             054141    VD84000000005233 N  549976487158                            000000000+                F DF 00381                     000000000  N000000000       0000000000000.00 0000000.00   0000000.00                             000000000000000                                                                                                                                                     01418 A000000000000 0000000000000.57     00800 01500                  
01868090584040033DT67590675900000002881800888800000010180088824001192360900010200250122620220000000493536022000000000183881415978XXXXXX1455       VS11    0001111   NYV1 A E582360723131953N840000000004935JRCT00    07DNHAPPY HIPPIE             054998    VD84000000004935 N  549976487158                            000000000+                F DF 10433                     000000000  Y000000000 338   0000000000000.00 0000000.00   0000000.00                             000000000000000                                                                                                                                                     01418 A000000000000 0000000000000.24     00050 02200                  
01868100584040034DT67590675900000002881800888800000010180088877287282360900010200260122620220000000548836022000000000183881511953XXXXXX0941       MS02WI09          NY 1 0 AMDJBWTK5N1226  N840000000005488          07DNHAPPY HIPPIE             029653    MD84000000005488 N  549976487158                            000000000+M10101M5434C    MDJ  00402                     000000000  N                0000000000000.00 0000000.00   0000000.00                             000000000000000                                                                                                                                                   B101418  000000000000 0000000000000.73     01050 01500                  
01868110584040035DT67590675900000002881800888800000010180088824001192360900010200276122620220000000548836022000000000183881440393XXXXXX0506       VS11    0001111   NYV1 A E582360747523057N8400000000054889D4J00    07DNHAPPY HIPPIE             657305    VD84000000005488 N  549976487158                            000000000+                F PF 08170                     000000000  N000000000       0000000000000.00 0000000.00   0000000.00                             000000000000000                                                                                                                                                     01418 A000000000000 0000000000000.78     01150 01500                  
01868120584040036DT67590675900000002881800888800000010180088824001192360900010200284122620220000000406036022000000000183881409504XXXXXX8484       VS11    0001111   NYV1 A E462360758324129N840000000004060LSGJ00    07DNHAPPY HIPPIE             020316    VD84000000004060 N  549976487158                            000000000+                F DF 10433                     000000000  Y000000000 338   0000000000000.00 0000000.00   0000000.00                             000000000000000                                                                                                                                                     01418 A000000000000 0000000000000.24     00050 02200                  
01868130584040037DT67590675900000002881800888800000010180088824001192360900010200292122620220000000329336022000000000183881440393XXXXXX7542       VS11    0001111   NYV1 A E462360774944406N840000000003293XZX400    07DNHAPPY HIPPIE             763404    VD84000000003293 N  549976487158                            000000000+                F PF 08170                     000000000  N000000000       0000000000000.00 0000000.00   0000000.00                             000000000000000                                                                                                                                                     01418 A000000000000 0000000000000.53     01150 01500                  
01868140584040038DT67590675900000002881800888800000010180088824001192360900010200300122620220000000691236022000000000183881474665XXXXXX2394       VS11    0001111   NYV1 A E462360811851734N840000000006912W3XT00    05DNHAPPY HIPPIE             872051    VD84000000006912 N  549976487158                            000000000+                F DF 10433                     000000000  Y000000000 338   0000000000000.00 0000000.00   0000000.00                             000000000000000                                                                                                                                                     01418 A000000000000 0000000000000.25     00050 02200                  
01868150584040039DT67590675900000002881800888800000010180088824001192360900010200318122620220000000307336022000000000183881480639XXXXXX8050               1001111   NYV1 A K382360835145733N840000000003073JZK700    01DNHAPPY HIPPIE             034973    VD84000000003073 N  549976487158                            000000000+                F DF 00412                     000000000  N000000000       0000000000000.00 0000000.00   0000000.00                             000000000000000                                                                                                                                                     01418 E000000000000 0000000000000.66     01650 01500                  
01868160584040040DT67590675900000002881800888800000010180088824001192360900010200326122620220000000183836022000000000183881443264XXXXXX1398       VS11    0001111   NYV1 A E382360835919422N8400000000018387SQT00    07DNHAPPY HIPPIE             001637    VD84000000001838 N  549976487158                            000000000+                F DF 10433                     000000000  Y000000000 338   0000000000000.00 0000000.00   0000000.00                             000000000000000                                                                                                                                                     01418 A000000000000 0000000000000.23     00050 02200                  
01868170584040041BH6759067590000000215480088880000090171226202236022000000000377397    0000090001671015N8008886759C12272022                                                                                                                                                                                                                                                                                                                                                                                                                                                                                                                                                                                                 
01868180584040042DT67590675900000002154800888800000010180088824001192360900016786468122620220000033413736022000000000377397415417XXXXXX9274               2111111   NYV4 A7W582360663282446N840000000334137KQQB00    01DNDRIP DROP DISTRO LLC     05871G    VB84000000334137 NP1519971004114   17162                    000000000+                G5CG511887                     000000000  N000000000 163   0000000000000.00 0000000.00   0000000.00                             000000000000000                                                                                                                                                     01418 G000000334137 0000000000100.34     03000 01000                  
01868190584040001P16759067590000000215480088880000001010000000000000000    43840805907              2000000000000000000000000              000000000000                    0000000000000000000000000                    000000000000                                                                                                                                                                                                                                                                                                                                                                                                                                                                                        
01868200584040043DT67590675900000002154800888800000010180088887287282360900016710154122620220000004326036022000000000377397547415XXXXXX8783                         NY 4607AMEBCQMSWC1226  N840000000043260          81DNDRIP DROP DISTRO LLC     08799Q    MB84000000043260 NP1519900000001   17166                    000000000+600450S00140    MEB  11637                     000000000  N                0000000000000.00 0000000.00   0000000.00                             000000000000000                                                                                                                                                   U001418  000000000000 0000000000013.08     03000 01000                  
01868210584040001P1675906759000000021548008888000000101                                                          000000000000          8000            471534935                                                                                                                                                                                                                                                                                                                                                                                                                                                                                                                                                            
01868220584040044BH6759067590000000288180088880000090171226202236022000000000003999    0000090001300076N8008886759C12272022                                                                                                                                                                                                                                                                                                                                                                                                                                                                                                                                                                                                 
01868230584040045DT67590675900000002881800888800000010180088824001192360900013000764122620220000000399936022000000000003999448261XXXXXX2015               2111111   NYV4 A7W462360725432400N84000000000399926CH00    01DNHAPPY HIPPIE             000002    VD84000000003999 NP1549976044904   1894                     000000000+                F DF 10420                     000000000  Y000000000 338   0000000000000.00 0000000.00   0000000.00                             000000000000000                                                                                                                                                     01418 G000000003999 0000000000000.24     00050 02200                  
01868240584040001P16759067590000000288180088880000001010000000000000000                             2000000000000000000000000              000000000000                    0000000000000000000000000                    000000000000                                                                                                                                                                                                                                                                                                                                                                                                                                                                                        
