00004340002440002BH6759067590000000370780088880000090170228202305923000000000042468    0000090001460314Y8008886759C03012023                                                                                                                                                                                                                                                                                                                                                                                                                                                                                                                                                                                                 
00004350002440003DT67590675900000003707800888800000010180088824001193059900014603115022720230000001600005923000000000042468432739XXXXXX8110               2111111   NYV4 A7W583059068678091N8400000000160005XQG00    01DNMR HEMP FLOWER           474956    VD84000000016000 NP1549976053336   86483                    000000000+                F DF 10420                     000000000  Y000000000 338   0000000000000.00 0000000.00   0000000.00                             000000000000000                                                                                                                                                     01424 G000000016000 0000000000000.30     00050 02200                  
00004360002440001P16759067590000000370780088880000001010000000000000000                             2000000000000000000000000              000000000000                    0000000000000000000000000                    000000000000                                                                                                                                                                                                                                                                                                                                                                                                                                                                                        
00004370002440004DT67590675900000003707800888800000010180088824001193059900014603123022820230000000949905923000000000042468477349XXXXXX9477               2111111   NYV4 A7W303059501159510N840000000009499TZ3500    01DNMR HEMP FLOWER           218570    VD84000000009499 NP1549976053336   86492                    000000000+                F DF 00415                     000000000  N000000000       0000000000000.00 0000000.00   0000000.00                             000000000000000                                                                                                                                                     01424 G000000009499 0000000000001.72     01650 01500                  
00004380002440001P16759067590000000370780088880000001010000000000000000                             2000000000000000000000000              000000000000                    0000000000000000000000000                    000000000000                                                                                                                                                                                                                                                                                                                                                                                                                                                                                        
00004390002440005DT67590675900000003707800888800000010180088824001193059900014603131022820230000000347205923000000000042468409299XXXXXX7848               2111111   NYV4 A7W463059732664721N840000000003472SWGH00    01DNMR HEMP FLOWER           036584    VD84000000003472 NP1549976053336   86519                    000000000+                F DF 00415                     000000000  N000000000       0000000000000.00 0000000.00   0000000.00                             000000000000000                                                                                                                                                     01424 G000000003472 0000000000000.72     01650 01500                  
00004400002440001P16759067590000000370780088880000001010000000000000000                             2000000000000000000000000              000000000000                    0000000000000000000000000                    000000000000                                                                                                                                                                                                                                                                                                                                                                                                                                                                                        
00004410002440006DT67590675900000003707800888800000010180088824001193059900014603149022820230000001349705923000000000042468443045XXXXXX0054               2111111   NYV4 A7W303059762872893N840000000013497LDZR00    01DNMR HEMP FLOWER           816262    VD84000000013497 NP1549976053336   86520                    000000000+                F DF 10420                     000000000  Y000000000 338   0000000000000.00 0000000.00   0000000.00                             000000000000000                                                                                                                                                     01424 G000000013497 0000000000000.29     00050 02200                  
00004420002440001P16759067590000000370780088880000001010000000000000000                             2000000000000000000000000              000000000000                    0000000000000000000000000                    000000000000                                                                                                                                                                                                                                                                                                                                                                                                                                                                                        
00004430002440007BH6759067590000001330080010280000090170228202305923000000000377313    0000090001130587Y8001026759C03012023                                                                                                                                                                                                                                                                                                                                                                                                                                                                                                                                                                                                 
00004440002440008DT67590675900000013300800102800000010180010276509753059900011305316022820230000001987005923000000000377313601100XXXXXX6632   BA00                  NY 4 07N803050453005036N840000000019870    00    01DNCBD8666317293            02849R    DS84000000019870 N  549977133133070                         000000000+1015104910600   DCCDI11325004193  082820000000 000000000  0          460   0000000000000.00 0000000.00   0000000.00                             000000000000000                                                                                                                                                     01424  000000000000 0000000000004.13     02030 01000                  
00004450002440009DT67590675900000013300800102800000010680010274001193059900011305321022820230000000529905923000000000377313431196XXXXXX4195               0000000   NYV4 07T303059553039899N840000000005299Z7Z200    01CNCBD8666317293            028116    VS84000000005299 NP1549977133133   C6A3209694T4DE69023D8B7  000000000+                A CA 00245                     000000000  N000000000 166   0000000000000.00 0000000.00   0000000.00                             000000000000000                                                                                                                                                     01424  000000005299-0000000000000.93     01760 00000                  
00004460002440001P16759067590000001330080010280000001060000000000000000                             2000000000000000000000000              000000000000                    0000000000000000000000000                    000000000000                                                                                                                                                                                                                                                                                                                                                                                                                                                                                        
00004470002440010DT67590675900000013300800102800000010180010276509753059900011305332022820230000001987005923000000000377313601149XXXXXX3534   BA00                  NY 4 07N803050520200859N840000000019870    00    01DNCBD8666317293            02898P    DS84000000019870 N  549977133133070                         000000000+1015104910600   DCPDI11327502271  102020000000 000000000  0          462   0000000000000.00 0000000.00   0000000.00                             000000000000000                                                                                                                                                     01424  000000000000 0000000000004.17     02050 01000                  
00004480002440011DT67590675900000013300800102800000010180010276509753059900011305357022820230000000659905923000000000377313601100XXXXXX5908   BA00                  NY 4 07N813050531723408N840000000006599    00    01DNCBD8666317293            02846R    DS84000000006599 N  549977133133070                         000000000+1015104910600   DCCDI11325834209  103932000000 000000000  0          460   0000000000000.00 0000000.00   0000000.00                             000000000000000                                                                                                                                                     01424  000000000000 0000000000001.44     02030 01000                  
00004490002440012DT67590675900000013300800102800000010180010287287283059900011305368022820230000002131105923000000000377313541413XXXXXX4259       ME03KE06PT01      NY 4607AMCWAM31MO0228  N840000000021311          81DNCBD8666317293            04402S    MC84000000021311 N  549977133133   4AF527C27ETD2C446A1B3C5  000000000+600450S00130    MCW  02182                     000000000  N                0000000000000.00 0000000.00   0000000.00                             000000000000000                                                                                                                                                   U001424  000000000000 0000000000005.64     02600 01000                  
00004500002440013DT67590675900000013300800102800000010180010224001193059900011305375022820230000000499905923000000000377313475860XXXXXX0911               2111111   NYV4 A7W463059603429089N840000000004999WTD800    01DNCBD8666317293            084542    VS84000000004999 NP1549977133133   35F30BB58ETB557F49890B3  000000000+                A CA 12106                     000000000  N000000000 492   0000000000000.00 0000000.00   0000000.00                             000000000000000                                                                                                                                                     01424 G000000004999 0000000000001.04     01890 01000                  
00004510002440001P16759067590000001330080010280000001010000000000000000                             2000000000000000000000000              000000000000                    0000000000000000000000000                    000000000000                                                                                                                                                                                                                                                                                                                                                                                                                                                                                        
00004520002440014DT67590675900000013300800102800000010180010224001193059900011305383022820230000000319905923000000000377313475860XXXXXX0911               2111111   NYV4 A7W383059603617736N840000000003199BH6D00    01DNCBD8666317293            084601    VS84000000003199 NP1549977133133   35F30BB58ETE2A351DA0FDF  000000000+                A CA 12106                     000000000  N000000000 492   0000000000000.00 0000000.00   0000000.00                             000000000000000                                                                                                                                                     01424 G000000003199 0000000000000.70     01890 01000                  
00004530002440001P16759067590000001330080010280000001010000000000000000                             2000000000000000000000000              000000000000                    0000000000000000000000000                    000000000000                                                                                                                                                                                                                                                                                                                                                                                                                                                                                        
00004540002440015DT67590675900000013300800102800000010180010224001193059900011305425022820230000002729505923000000000377313414720XXXXXX1121               2111111   NYV4 A7W303059621644638N8400000000272952MGP00    01DNCBD8666317293            08153C    VS84000000027295 NP1549977133133   90FE7DE07AT2D687AEE08F0  000000000+                C CC 12108                     000000000  N000000000 496   0000000000000.00 0000000.00   0000000.00                             000000000000000                                                                                                                                                     01424 G000000027295 0000000000005.70     02050 01000                  
00004550002440001P16759067590000001330080010280000001010000000000000000                             2000000000000000000000000              000000000000                    0000000000000000000000000                    000000000000                                                                                                                                                                                                                                                                                                                                                                                                                                                                                        
00004560002440016DT67590675900000013300800102800000010180010287287283059900011305434022820230000001934005923000000000377313536592XXXXXX7721       ME03KE06MS02      NY 4607AMDJEQASW60228  N840000000019340          81DNCBD8666317293            009673    MD84000000019340 N  549977133133   93D26A4608T1BB2CF5F5AB2  000000000+600450S00130    MDJ  00401                     000000000  N                0000000000000.00 0000000.00   0000000.00                             000000000000000                                                                                                                                                   U001424  000000000000 0000000000003.34     01650 01500                  
00004570002440017DT67590675900000013300800102800000010180010224001193059900011305458022820230000002487005923000000000377313446542XXXXXX6109               2111111   NYV4 A7W463059637918404N84000000002487038BV00    01DNCBD8666317293            028474    VS84000000024870 NP1549977133133   40C46A7CCDTA4E200F6E3D6  000000000+                D CD 12109                     000000000  N000000000 498   0000000000000.00 0000000.00   0000000.00                             000000000000000                                                                                                                                                     01424 G000000024870 0000000000006.32     02500 01000                  
00004580002440001P16759067590000001330080010280000001010000000000000000                             2000000000000000000000000              000000000000                    0000000000000000000000000                    000000000000                                                                                                                                                                                                                                                                                                                                                                                                                                                                                        
00004590002440018DT67590675900000013300800102800000010180010287287283059900011305467022820230000001349305923000000000377313514735XXXXXX0444       ME03KE06PT01      NY 4607AMCWG9MZMO0228  N840000000013493          81DNCBD8666317293            02215Z    MC84000000013493 N  549977133133   FB18CE82DET070DDB4BB5EC  000000000+600450S00130    MCW  00642                     000000000  N                0000000000000.00 0000000.00   0000000.00                             000000000000000                                                                                                                                                   U001424  000000000000 0000000000003.07     02200 01000                  
00004600002440019DT67590675900000013300800102800000010180010224001193059900011305490022820230000002487005923000000000377313440383XXXXXX7713               2111111   NYV4 A7W463059659204026N840000000024870NHZQ00    01DNCBD8666317293            039520    VD84000000024870 NP1549977133133   A051070A7FTB624F81236AC  000000000+                F DF 00415                     000000000  N000000000       0000000000000.00 0000000.00   0000000.00                             000000000000000                                                                                                                                                     01424 G000000024870 0000000000004.25     01650 01500                  
00004610002440001P16759067590000001330080010280000001010000000000000000                             2000000000000000000000000              000000000000                    0000000000000000000000000                    000000000000                                                                                                                                                                                                                                                                                                                                                                                                                                                                                        
00004620002440020DT67590675900000013300800102800000010180010224001193059900011305532022820230000002487005923000000000377313414740XXXXXX9221               2111111   NYV4 A7W383059706048433N840000000024870LNBB00    01DNCBD8666317293            09324D    VS84000000024870 NP1549977133133   87C74D824CT142FF16A8A33  000000000+                D CD 12109                     000000000  N000000000 498   0000000000000.00 0000000.00   0000000.00                             000000000000000                                                                                                                                                     01424 G000000024870 0000000000006.32     02500 01000                  
00004630002440001P16759067590000001330080010280000001010000000000000000                             2000000000000000000000000              000000000000                    0000000000000000000000000                    000000000000                                                                                                                                                                                                                                                                                                                                                                                                                                                                                        
00004640002440021DT67590675900000013300800102800000010180010287287283059900011305541022820230000002487005923000000000377313545510XXXXXX0949       ME03KE06MS02      NY 4607AMDSM3ZA1N0228  N840000000024870          81DNCBD8666317293            001164    MD84000000024870 N  549977133133   F3E5E54C1CT3AFC12BE4251  000000000+600450S00130    MDS  10813                     000000000  1                0000000000000.00 0000000.00   0000000.00                             000000000000000                                                                                                                                                   U001424  000000000000 0000000000000.34     00050 02200                  
00004650002440022DT67590675900000013300800102800000010180010276509753059900011305555022820230000001206605923000000000377313601100XXXXXX9928   BA00                  NY 4 07N753050660599498N840000000012066    00    01DNCBD8666317293            02827R    DS84000000012066 N  549977133133070                         000000000+1015104910600   DCCDI11325668229  141418000000 000000000  0          460   0000000000000.00 0000000.00   0000000.00                             000000000000000                                                                                                                                                     01424  000000000000 0000000000002.55     02030 01000                  
00004660002440023DT67590675900000013300800102800000010180010224001193059900011305573022820230000000164105923000000000377313445640XXXXXX6832               2111111   NYV4 A7W383059745348925N840000000001641R2RB00    01DNCBD8666317293            028727    VS84000000001641 NP1549977133133   92CD8E5ED6TF3B9A9478833  000000000+                B CB 12107                     000000000  N000000000 494   0000000000000.00 0000000.00   0000000.00                             000000000000000                                                                                                                                                     01424 G000000001641 0000000000000.43     02040 01000                  
00004670002440001P16759067590000001330080010280000001010000000000000000                             2000000000000000000000000              000000000000                    0000000000000000000000000                    000000000000                                                                                                                                                                                                                                                                                                                                                                                                                                                                                        
00004680002440024DT67590675900000013300800102800000010180010224001193059900011305581022820230000002106205923000000000377313480209XXXXXX9287               2111111   NYV4 A7W583059747281764N840000000021062FRH800    01DNCBD8666317293            013125    VD84000000021062 NP1549977133133   C462711895T6A9C9C4E0385  000000000+                G DG 10352                     000000000  Y000000000 338   0000000000000.00 0000000.00   0000000.00                             000000000000000                                                                                                                                                     01424 G000000021062 0000000000000.33     00050 02200                  
00004690002440001P16759067590000001330080010280000001010000000000000000                             1000000001192000000000000              000000000000                    0000000000000000000000000                    000000000000                                                                                                                                                                                                                                                                                                                                                                                                                                                                                        
00004700002440025DT67590675900000013300800102800000010180010224001193059900011305607022820230000001000005923000000000377313407271XXXXXX0069               2111111   NYV4 A7W383059783157480N840000000010000VS7500    01DNCBD8666317293            523037    VD84000000010000 NP1549977133133   5DF24CCC6FT318559AA133E  000000000+                F DF 00415                     000000000  N000000000       0000000000000.00 0000000.00   0000000.00                             000000000000000                                                                                                                                                     01424 G000000010000 0000000000001.80     01650 01500                  
00004710002440001P16759067590000001330080010280000001010000000000000000                             2000000000000000000000000              000000000000                    0000000000000000000000000                    000000000000                                                                                                                                                                                                                                                                                                                                                                                                                                                                                        
00004720002440026DT67590675900000013300800102800000010180010224001193059900011305623022820230000001987005923000000000377313434258XXXXXX1236               2111111   NYV4 A7W463059787188519N84000000001987072VR00    01DNCBD8666317293            094053    VD84000000019870 NP1549977133133   2BD9BA8E18TECE1C8C42B58  000000000+                F DF 10420                     000000000  Y000000000 338   0000000000000.00 0000000.00   0000000.00                             000000000000000                                                                                                                                                     01424 G000000019870 0000000000000.32     00050 02200                  
00004730002440001P16759067590000001330080010280000001010000000000000000                             2000000000000000000000000              000000000000                    0000000000000000000000000                    000000000000                                                                                                                                                                                                                                                                                                                                                                                                                                                                                        
00004740002440027DT67590675900000013300800102800000010180010224001193059900011305649022820230000001987005923000000000377313435997XXXXXX5738               2111111   NYV4 A7W463059799531919N8400000000198707KM200    01DNCBD8666317293            618221    VS84000000019870 NP1549977133133   3F5B40D094TD2AF4FBE77D8  000000000+                A CA 12106                     000000000  N000000000 492   0000000000000.00 0000000.00   0000000.00                             000000000000000                                                                                                                                                     01424 G000000019870 0000000000003.86     01890 01000                  
00004750002440001P16759067590000001330080010280000001010000000000000000                             2000000000000000000000000              000000000000                    0000000000000000000000000                    000000000000                                                                                                                                                                                                                                                                                                                                                                                                                                                                                        
00004760002440028DT67590675900000013300800102800000010180010224001193059900011305664022820230000001581605923000000000377313449289XXXXXX4374               2111111   NYV4 A7W463059842706823N8400000000158169CB400    01DNCBD8666317293            172431    VD84000000015816 NP1549977133133   C5BF9B048CT87E56D985BBF  000000000+                F DF 00415                     000000000  N000000000       0000000000000.00 0000000.00   0000000.00                             000000000000000                                                                                                                                                     01424 G000000015816 0000000000002.76     01650 01500                  
00004770002440001P16759067590000001330080010280000001010000000000000000                             2000000000000000000000000              000000000000                    0000000000000000000000000                    000000000000                                                                                                                                                                                                                                                                                                                                                                                                                                                                                        
00004780002440029DT67590675900000013300800102800000010180010287287283059900011305673022820230000000019905923000000000377313556150XXXXXX5507                         NY 4607AMCFXALH8D0228  N840000000000199          81DNCBD8666317293            F0KHOT    MB84000000000199 NP1549977133133   096064E91DT0D948385BE87  000000000+600450S00130    MCF  00060                     000000000  N                0000000000000.00 0000000.00   0000000.00                             000000000000000                                                                                                                                                     01424  000000000000 0000000000000.16     02950 01000                  
00004790002440001P1675906759000000133008001028000000101                                                          000000000000          8000            871584967                                                                                                                                                                                                                                                                                                                                                                                                                                                                                                                                                            
00004800002440030DT67590675900000013300800102800000010180010224001193059900011305706022820230000001723505923000000000377313434258XXXXXX6326               2111111   NYV4 A7W583059851370257N840000000017235LBCZ00    01DNCBD8666317293            083088    VD84000000017235 NP1549977133133   27C91BC2D5TE96C6B327ED5  000000000+                F DF 10420                     000000000  Y000000000 338   0000000000000.00 0000000.00   0000000.00                             000000000000000                                                                                                                                                     01424 G000000017235 0000000000000.31     00050 02200                  
00004810002440001P16759067590000001330080010280000001010000000000000000                             2000000000000000000000000              000000000000                    0000000000000000000000000                    000000000000                                                                                                                                                                                                                                                                                                                                                                                                                                                                                        
00004820002440031DT67590675900000013300800102800000010180010224001193059900011305714022820230000000019905923000000000377313428803XXXXXX7150               2111111   NYV4 A7W463059858685310N840000000000199RP6800    01DNCBD8666317293            426042    VD84000000000199 NP1549977133133   DC58D2BA91T180D5D3653C3  000000000+                S PS 10179                     000000000  N000000000 364   0000000000000.00 0000000.00   0000000.00                             000000000000000                                                                                                                                                     01424 G000000000199 0000000000000.15     02650 01000                  
00004830002440001P16759067590000001330080010280000001010000000000000000                             2000000000000000000000000              000000000000                    0000000000000000000000000                    000000000000                                                                                                                                                                                                                                                                                                                                                                                                                                                                                        
00004840002440032DT67590675900000013300800102800000010180010224001193059900011305722022820230000000019905923000000000377313412076XXXXXX0922               2111111   NYV4 A7W303059862291223N840000000000199W84J00    01DNCBD8666317293            164196    VS84000000000199 NP1549977133133   77A1FA9E91T5DF17DD029D4  000000000+                A CA 12106                     000000000  N000000000 492   0000000000000.00 0000000.00   0000000.00                             000000000000000                                                                                                                                                     01424 G000000000199 0000000000000.14     01890 01000                  
00004850002440001P16759067590000001330080010280000001010000000000000000                             2000000000000000000000000              000000000000                    0000000000000000000000000                    000000000000                                                                                                                                                                                                                                                                                                                                                                                                                                                                                        
00004860002440033DT67590675900000013300800102800000010180010224001193059900011305730022820230000000019905923000000000377313428821XXXXXX6743               2111111   NYV4 A7W583060000640613N840000000000199DNVW00    01DNCBD8666317293            895987    VB84000000000199 NP1549977133133   C9CD986656TD98EB2D64705  000000000+                S CS 00692                     000000000  N000000000 237   0000000000000.00 0000000.00   0000000.00                             000000000000000                                                                                                                                                     01424 G000000000199 0000000000000.15     02700 01000                  
00004870002440001P16759067590000001330080010280000001010000000000000000                             2000000000000000000000000              000000000000                    0000000000000000000000000                    000000000000                                                                                                                                                                                                                                                                                                                                                                                                                                                                                        
00004880002440034DT67590675900000013300800102800000010180010224001193059900011305748022820230000000019905923000000000377313412076XXXXXX1853               2111111   NYV4 A7W383060012042048N84000000000019942FH00    01DNCBD8666317293            010356    VS84000000000199 NP1549977133133   2D76A8400ETA6AF844901C8  000000000+                A CA 12106                     000000000  N000000000 492   0000000000000.00 0000000.00   0000000.00                             000000000000000                                                                                                                                                     01424 G000000000199 0000000000000.14     01890 01000                  
00004890002440001P16759067590000001330080010280000001010000000000000000                             2000000000000000000000000              000000000000                    0000000000000000000000000                    000000000000                                                                                                                                                                                                                                                                                                                                                                                                                                                                                        
00004900002440035DT67590675900000013300800102800000010180010224001193059900011305755022820230000000019905923000000000377313408544XXXXXX3938               2111111   NYV4 A7W463060012041370N8400000000001992M2600    01DNCBD8666317293            716718    VB84000000000199 NP1549977133133   E7F3B09846T2D768C816F13  000000000+                K CK 00691                     000000000  N000000000 234   0000000000000.00 0000000.00   0000000.00                             000000000000000                                                                                                                                                     01424 G000000000199 0000000000000.15     02700 01000                  
00004910002440001P16759067590000001330080010280000001010000000000000000                             2000000000000000000000000              000000000000                    0000000000000000000000000                    000000000000                                                                                                                                                                                                                                                                                                                                                                                                                                                                                        
00004920002440036DT67590675900000013300800102800000010180010224001193059900011305763022820230000000019905923000000000377313408544XXXXXX9367               2111111   NYV4 A7W583060012633757N840000000000199XS3Z00    01DNCBD8666317293            889374    VB84000000000199 NP1549977133133   626E334A12T7735CEEF7AD8  000000000+                K CK 00691                     000000000  N000000000 234   0000000000000.00 0000000.00   0000000.00                             000000000000000                                                                                                                                                     01424 G000000000199 0000000000000.15     02700 01000                  
00004930002440001P16759067590000001330080010280000001010000000000000000                             2000000000000000000000000              000000000000                    0000000000000000000000000                    000000000000                                                                                                                                                                                                                                                                                                                                                                                                                                                                                        
00004940002440037DT67590675900000013300800102800000010180010224001193059900011305771022820230000000019905923000000000377313428803XXXXXX1071               2111111   NYV4 A7W583060015036526N840000000000199FCWH00    01DNCBD8666317293            891528    VD84000000000199 NP1549977133133   499BA5CA9ET416318567128  000000000+                S PS 10179                     000000000  N000000000 364   0000000000000.00 0000000.00   0000000.00                             000000000000000                                                                                                                                                     01424 G000000000199 0000000000000.15     02650 01000                  
00004950002440001P16759067590000001330080010280000001010000000000000000                             2000000000000000000000000              000000000000                    0000000000000000000000000                    000000000000                                                                                                                                                                                                                                                                                                                                                                                                                                                                                        
00004960002440038DT67590675900000013300800102800000010180010224001193059900011305789022820230000000019905923000000000377313408544XXXXXX5347               2111111   NYV4 A7W383060015695163N840000000000199QVWG00    01DNCBD8666317293            404863    VB84000000000199 NP1549977133133   0F5F8ECE7DT8474719E21E4  000000000+                K CK 00691                     000000000  N000000000 234   0000000000000.00 0000000.00   0000000.00                             000000000000000                                                                                                                                                     01424 G000000000199 0000000000000.15     02700 01000                  
00004970002440001P16759067590000001330080010280000001010000000000000000                             2000000000000000000000000              000000000000                    0000000000000000000000000                    000000000000                                                                                                                                                                                                                                                                                                                                                                                                                                                                                        
00004980002440039DT67590675900000013300800102800000010180010224001193059900011305797022820230000000019905923000000000377313412076XXXXXX1210               2111111   NYV4 A7W463060016853075N840000000000199VKSB00    01DNCBD8666317293            490341    VS84000000000199 NP1549977133133   6E0CB2485ETC419C9D8049A  000000000+                A CA 12106                     000000000  N000000000 492   0000000000000.00 0000000.00   0000000.00                             000000000000000                                                                                                                                                     01424 G000000000199 0000000000000.14     01890 01000                  
00004990002440001P16759067590000001330080010280000001010000000000000000                             2000000000000000000000000              000000000000                    0000000000000000000000000                    000000000000                                                                                                                                                                                                                                                                                                                                                                                                                                                                                        
00005000002440040DT67590675900000013300800102800000010180010224001193059900011305813022820230000000019905923000000000377313428813XXXXXX2601               2111111   NYV4 A7W383060019846757N840000000000199FL9V00    01DNCBD8666317293            278159    VB84000000000199 NP1549977133133   A07C6A88D8TC2B11BCDDD9B  000000000+                S CS 00692                     000000000  N000000000 237   0000000000000.00 0000000.00   0000000.00                             000000000000000                                                                                                                                                     01424 G000000000199 0000000000000.15     02700 01000                  
00005010002440001P16759067590000001330080010280000001010000000000000000                             2000000000000000000000000              000000000000                    0000000000000000000000000                    000000000000                                                                                                                                                                                                                                                                                                                                                                                                                                                                                        
00005020002440041DT67590675900000013300800102800000010180010287287283059900011305830022820230000000019905923000000000377313514376XXXXXX6653                         NY 4607AMPWW1QG3X0228  N840000000000199          81DNCBD8666317293            710797    MD84000000000199 NP1549977133133   FB78015A2CTBF99259CC60B  000000000+600450S00130    MPW  00062                     000000000  N                0000000000000.00 0000000.00   0000000.00                             000000000000000                                                                                                                                                   U001424  000000000000 0000000000000.15     02650 01000                  
00005030002440001P1675906759000000133008001028000000101                                                          000000000000          8000            871584967                                                                                                                                                                                                                                                                                                                                                                                                                                                                                                                                                            
00005040002440042DT67590675900000013300800102800000010180010224001193059900011305847022820230000002661105923000000000377313400981XXXXXX7069               2111111   NYV4 A7W303060030997069N84000000002661188N900    01DNCBD8666317293            459988    VD84000000026611 NP1549977133133   69EF9EDE81T62365B1B4D9D  000000000+                F DF 00415                     000000000  N000000000       0000000000000.00 0000000.00   0000000.00                             000000000000000                                                                                                                                                     01424 G000000026611 0000000000004.54     01650 01500                  
00005050002440001P16759067590000001330080010280000001010000000000000000                             2000000000000000000000000              000000000000                    0000000000000000000000000                    000000000000                                                                                                                                                                                                                                                                                                                                                                                                                                                                                        
00005060002440043DT67590675900000013300800102800000010180010287287283059900011305855022820230000000019905923000000000377313514376XXXXXX4619                         NY 4607AMPWXA9N3X0228  N840000000000199          81DNCBD8666317293            125066    MD84000000000199 NP1549977133133   BA3BAC984AT686B43E8855D  000000000+600450S00130    MPW  00062                     000000000  N                0000000000000.00 0000000.00   0000000.00                             000000000000000                                                                                                                                                   U001424  000000000000 0000000000000.15     02650 01000                  
00005070002440001P1675906759000000133008001028000000101                                                          000000000000          8000            871584967                                                                                                                                                                                                                                                                                                                                                                                                                                                                                                                                                            
00005080002440044DT67590675900000013300800102800000010180010224001193059900011305862022820230000000019905923000000000377313412076XXXXXX9266               2111111   NYV4 A7W463060033125451N840000000000199PTRX00    01DNCBD8666317293            912839    VS84000000000199 NP1549977133133   D04CDB84B5T38F8B5DE7525  000000000+                A CA 12106                     000000000  N000000000 492   0000000000000.00 0000000.00   0000000.00                             000000000000000                                                                                                                                                     01424 G000000000199 0000000000000.14     01890 01000                  
00005090002440001P16759067590000001330080010280000001010000000000000000                             2000000000000000000000000              000000000000                    0000000000000000000000000                    000000000000                                                                                                                                                                                                                                                                                                                                                                                                                                                                                        
00005100002440045DT67590675900000013300800102800000010180010224001193059900011305870022820230000000019905923000000000377313428813XXXXXX2165               2111111   NYV4 A7W583060033672560N840000000000199G2WQ00    01DNCBD8666317293            137242    VB84000000000199 NP1549977133133   26C703DB69T2BF330B266E8  000000000+                S CS 00692                     000000000  N000000000 237   0000000000000.00 0000000.00   0000000.00                             000000000000000                                                                                                                                                     01424 G000000000199 0000000000000.15     02700 01000                  
00005110002440001P16759067590000001330080010280000001010000000000000000                             2000000000000000000000000              000000000000                    0000000000000000000000000                    000000000000                                                                                                                                                                                                                                                                                                                                                                                                                                                                                        
00005120002440046BH6759067590000001427480010280000090170228202305923000000000191753    0000090001130773Y8001026759C03012023                                                                                                                                                                                                                                                                                                                                                                                                                                                                                                                                                                                                 
00005130002440047DT67590675900000014274800102800000010180010224001193059900011307231022720230000001799105923000000000191753448233XXXXXX4595               2111111   NYV4 A7W583059043180081N840000000017991BK9M00    01DNCBD8666317293            091158    VD84000000017991 NP1549977145232   966DD9F0CCTE9FFFF9B86AD  000000000+                F DF 10420                     000000000  Y000000000 338   0000000000000.00 0000000.00   0000000.00                             000000000000000                                                                                                                                                     01424 G000000017991 0000000000000.31     00050 02200                  
00005140002440001P16759067590000001427480010280000001010000000000000000                             2000000000000000000000000              000000000000                    0000000000000000000000000                    000000000000                                                                                                                                                                                                                                                                                                                                                                                                                                                                                        
00005150002440048DT67590675900000014274800102800000010180010287287283059900011307299022720230000000499905923000000000191753515657XXXXXX4078       ME03KE06MS02      NY 4607AMDJZ7QBDN0227  N840000000004999          81DNCBD8666317293            891946    MD84000000004999 N  549977145232   322962816BT5774E4B44140  000000000+600450S00130    MDJ  10813                     000000000  1                0000000000000.00 0000000.00   0000000.00                             000000000000000                                                                                                                                                   U001424  000000000000 0000000000000.24     00050 02200                  
00005160002440049DT67590675900000014274800102800000010180010287287283059900011307307022720230000002133505923000000000191753551384XXXXXX9416       ME03KE06MS02      NY 4607AMDJC8F2DN0227  N840000000021335          81DNCBD8666317293            270300    MD84000000021335 N  549977145232   0DAB4A5EEFT5D0A989B3597  000000000+600450S00130    MDJ  00401                     000000000  N                0000000000000.00 0000000.00   0000000.00                             000000000000000                                                                                                                                                   U001424  000000000000 0000000000003.67     01650 01500                  
00005170002440050DT67590675900000014274800102800000010180010224001193059900011307314022820230000000149505923000000000191753415342XXXXXX6370               2111111   NYV4 A7W583059252262646N84000000000149589KR00    01DNCBD8666317293            030027    VD84000000001495 NP1549977145232   2E66087D1DT934C6A73B623  000000000+                F DF 00415                     000000000  N000000000       0000000000000.00 0000000.00   0000000.00                             000000000000000                                                                                                                                                     01424 G000000001495 0000000000000.40     01650 01500                  
00005180002440001P16759067590000001427480010280000001010000000000000000                             2000000000000000000000000              000000000000                    0000000000000000000000000                    000000000000                                                                                                                                                                                                                                                                                                                                                                                                                                                                                        
00005190002440051DT67590675900000014274800102800000010180010287287283059900011307398022820230000001987005923000000000191753510933XXXXXX5009       ME03KE06MS02      NY 4607AMDJXGT7UW0228  N840000000019870          81DNCBD8666317293            090884    MD84000000019870 N  549977145232   6916EA7A34T650C3C39EE36  000000000+600450S00130    MDJ  00401                     000000000  N                0000000000000.00 0000000.00   0000000.00                             000000000000000                                                                                                                                                   U001424  000000000000 0000000000003.43     01650 01500                  
00005200002440052DT67590675900000014274800102800000010180010287287283059900011307406022820230000000207905923000000000191753510933XXXXXX5009       ME03KE06MS02      NY 4607AMDJYL5OQS0228  N840000000002079          81DNCBD8666317293            094995    MD84000000002079 N  549977145232   6916EA7A34T1B1AC3CF8FA3  000000000+600450S00130    MDJ  00401                     000000000  N                0000000000000.00 0000000.00   0000000.00                             000000000000000                                                                                                                                                   U001424  000000000000 0000000000000.49     01650 01500                  
00005210002440053DT67590675900000014274800102800000010180010224001193059900011307413022820230000002642405923000000000191753440066XXXXXX8222               2111111   NYV4 A7W583059426595969N840000000026424JMQH00    01DNCBD8666317293            01619D    VS84000000026424 NP1549977145232   6470D5256AT6D3491858930  000000000+                D CD 12109                     000000000  N000000000 498   0000000000000.00 0000000.00   0000000.00                             000000000000000                                                                                                                                                     01424 G000000026424 0000000000006.71     02500 01000                  
00005220002440001P16759067590000001427480010280000001010000000000000000                             2000000000000000000000000              000000000000                    0000000000000000000000000                    000000000000                                                                                                                                                                                                                                                                                                                                                                                                                                                                                        
00005230002440054DT67590675900000014274800102800000010180010224001193059900011307504022820230000001987005923000000000191753412174XXXXXX8662               2111111   NYV4 A7W583059455078833N8400000000198707XLK00    01DNCBD8666317293            04828A    VS84000000019870 NP1549977145232   F37BE4B5A7T6BAC4127DEC7  000000000+                A CA 12106                     000000000  N000000000 492   0000000000000.00 0000000.00   0000000.00                             000000000000000                                                                                                                                                     01424 G000000019870 0000000000003.86     01890 01000                  
00005240002440001P16759067590000001427480010280000001010000000000000000                             2000000000000000000000000              000000000000                    0000000000000000000000000                    000000000000                                                                                                                                                                                                                                                                                                                                                                                                                                                                                        
00005250002440055DT67590675900000014274800102800000010180010224001193059900011307520022820230000001987005923000000000191753403297XXXXXX6757               2111111   NYV4 A7W583059510101748N840000000019870D69800    01DNCBD8666317293            028815    VS84000000019870 NP1549977145232   7B919D797ATBBE69636B151  000000000+                A CA 12106                     000000000  N000000000 492   0000000000000.00 0000000.00   0000000.00                             000000000000000                                                                                                                                                     01424 G000000019870 0000000000003.86     01890 01000                  
00005260002440001P16759067590000001427480010280000001010000000000000000                             2000000000000000000000000              000000000000                    0000000000000000000000000                    000000000000                                                                                                                                                                                                                                                                                                                                                                                                                                                                                        
00005270002440056DT67590675900000014274800102800000010180010224001193059900011307561022820230000002636205923000000000191753407166XXXXXX2850               2111111   NYV4 A7W383059516110182N840000000026362MRXN00    01DNCBD8666317293            00344C    VS84000000026362 NP1549977145232   CDA28B0298TB0A04D48FBB5  000000000+                C CC 12108                     000000000  N000000000 496   0000000000000.00 0000000.00   0000000.00                             000000000000000                                                                                                                                                     01424 G000000026362 0000000000005.50     02050 01000                  
00005280002440001P16759067590000001427480010280000001010000000000000000                             2000000000000000000000000              000000000000                    0000000000000000000000000                    000000000000                                                                                                                                                                                                                                                                                                                                                                                                                                                                                        
00005290002440057DT67590675900000014274800102800000010180010224001193059900011307595022820230000000695905923000000000191753440393XXXXXX8905               2111111   NYV4 A7W383059526153384N840000000006959KHFH00    01DNCBD8666317293            218959    VD84000000006959 NP1549977145232   93CF21EDE1T2E2FFB072762  000000000+                F PF 08175                     000000000  N000000000       0000000000000.00 0000000.00   0000000.00                             000000000000000                                                                                                                                                     01424 G000000006959 0000000000001.42     01750 02000                  
00005300002440001P16759067590000001427480010280000001010000000000000000                             2000000000000000000000000              000000000000                    0000000000000000000000000                    000000000000                                                                                                                                                                                                                                                                                                                                                                                                                                                                                        
00005310002440058DT67590675900000014274800102800000010180010224001193059900011307611022820230000001499105923000000000191753434769XXXXXX4744               2111111   NYV4 A7W303059530547687N8400000000149912B4C00    01DNCBD8666317293            044409    VD84000000014991 NP1549977145232   AD5789FBF7T0196AB443297  000000000+                F DF 10420                     000000000  Y000000000 338   0000000000000.00 0000000.00   0000000.00                             000000000000000                                                                                                                                                     01424 G000000014991 0000000000000.29     00050 02200                  
00005320002440001P16759067590000001427480010280000001010000000000000000                             2000000000000000000000000              000000000000                    0000000000000000000000000                    000000000000                                                                                                                                                                                                                                                                                                                                                                                                                                                                                        
00005330002440059DT67590675900000014274800102800000010680010274001193059900011307624022820230000001446305923000000000191753424851XXXXXX1673               0000000   NYV4 07T303059530565454N840000000014463NDNW00    01CNCBD8666317293            755025    VD84000000014463 NP1549977145232   A1C6AD6E5DT5FFD912C6A19  000000000+                F DF 08168                     000000000  N000000000 369   0000000000000.00 0000000.00   0000000.00                             000000000000000                                                                                                                                                     01424  000000014463 0000000000000.00     00000 00000                  
00005340002440001P16759067590000001427480010280000001060000000000000000                             2000000000000000000000000              000000000000                    0000000000000000000000000                    000000000000                                                                                                                                                                                                                                                                                                                                                                                                                                                                                        
00005350002440060DT67590675900000014274800102800000010680010274001193059900011307681022820230000001589005923000000000191753431196XXXXXX4195               0000000   NYV4 07T583059552038145N840000000015890H7HC00    01CNCBD8666317293            028080    VS84000000015890 NP1549977145232   C6A3209694T8790B4CE571E  000000000+                A CA 00245                     000000000  N000000000 166   0000000000000.00 0000000.00   0000000.00                             000000000000000                                                                                                                                                     01424  000000015890-0000000000002.80     01760 00000                  
00005360002440001P16759067590000001427480010280000001060000000000000000                             2000000000000000000000000              000000000000                    0000000000000000000000000                    000000000000                                                                                                                                                                                                                                                                                                                                                                                                                                                                                        
00005370002440061DT67590675900000014274800102800000010180010224001193059900011307710022820230000001499105923000000000191753483480XXXXXX0836               2111111   NYV4 A7W383059574990085N840000000014991LPMF00    01DNCBD8666317293            742681    VD84000000014991 NP1549977145232   C0157F3230T310A02426585  000000000+                F DF 10420                     000000000  Y000000000 338   0000000000000.00 0000000.00   0000000.00                             000000000000000                                                                                                                                                     01424 G000000014991 0000000000000.29     00050 02200                  
00005380002440001P16759067590000001427480010280000001010000000000000000                             2000000000000000000000000              000000000000                    0000000000000000000000000                    000000000000                                                                                                                                                                                                                                                                                                                                                                                                                                                                                        
00005390002440062DT67590675900000014274800102800000010180010224001193059900011307736022820230000002487005923000000000191753402831XXXXXX9264               2111111   NYV4 A7W463059594249059N84000000002487057JR00    01DNCBD8666317293            028317    VS84000000024870 NP1549977145232   37BE3523FDTFEADEEE86276  000000000+                A CA 12106                     000000000  N000000000 492   0000000000000.00 0000000.00   0000000.00                             000000000000000                                                                                                                                                     01424 G000000024870 0000000000004.80     01890 01000                  
00005400002440001P16759067590000001427480010280000001010000000000000000                             2000000000000000000000000              000000000000                    0000000000000000000000000                    000000000000                                                                                                                                                                                                                                                                                                                                                                                                                                                                                        
00005410002440063BH6759067590000000288180088880000090170228202305923000000000019581    0000090001660139Y8008886759C03012023                                                                                                                                                                                                                                                                                                                                                                                                                                                                                                                                                                                                 
00005420002440064DT67590675900000002881800888800000010180088824001193059900016601372022820230000000899705923000000000019581480639XXXXXX8671               2111111   NYV4 A7W303059394334259N840000000008997LMNK00    01DNHAPPY HIPPIE             484926    VD84000000008997 NP1549976044904   1956                     000000000+                F DF 00415                     000000000  N000000000       0000000000000.00 0000000.00   0000000.00                             000000000000000                                                                                                                                                     01424 G000000008997 0000000000001.63     01650 01500                  
00005430002440001P16759067590000000288180088880000001010000000000000000                             2000000000000000000000000              000000000000                    0000000000000000000000000                    000000000000                                                                                                                                                                                                                                                                                                                                                                                                                                                                                        
00005440002440065DT67590675900000002881800888800000010180088824001193059900016601380022820230000000400005923000000000019581414740XXXXXX1272               2111111   NYV4 A7W583059804876222N840000000004000PHMV00    01DNHAPPY HIPPIE             03831D    VS84000000004000 NP1549976044904   1957                     000000000+                D CD 12109                     000000000  N000000000 498   0000000000000.00 0000000.00   0000000.00                             000000000000000                                                                                                                                                     01424 G000000004000 0000000000001.10     02500 01000                  
00005450002440001P16759067590000000288180088880000001010000000000000000                             2000000000000000000000000              000000000000                    0000000000000000000000000                    000000000000                                                                                                                                                                                                                                                                                                                                                                                                                                                                                        
00005460002440066DT67590675900000002881800888800000010180088824001193059900016601398022820230000000658405923000000000019581444796XXXXXX2024               2111111   NYV4 A7W303059845079350N840000000006584LBK900    01DNHAPPY HIPPIE             028294    VS84000000006584 NP1549976044904   1958                     000000000+                A CA 12106                     000000000  N000000000 492   0000000000000.00 0000000.00   0000000.00                             000000000000000                                                                                                                                                     01424 G000000006584 0000000000001.34     01890 01000                  
00005470002440001P16759067590000000288180088880000001010000000000000000                             2000000000000000000000000              000000000000                    0000000000000000000000000                    000000000000                                                                                                                                                                                                                                                                                                                                                                                                                                                                                        
00005480002440067BH6759067590000001165080088880000090170228202305923000000000040831    0000090001180013Y8008886759C03012023                                                                                                                                                                                                                                                                                                                                                                                                                                                                                                                                                                                                 
00005490002440068DT67590675900000011650800888800000010180088824001193059900011800011022820230000000374605923000000000040831465098XXXXXX8973       VS11    0001111   NYV1 A E383059694467657N840000000003746LXF400    07DNVPODS HOLDING INC        052420    VD84000000003746 N  599977032122                            000000000+                F DF 10433                     000000000  Y000000000 338   0000000000000.00 0000000.00   0000000.00                             000000000000000                                                                                                                                                     01424 A000000000000 0000000000000.24     00050 02200                  
00005500002440069DT67590675900000011650800888800000010180088824001193059900011800029022820230000000257505923000000000040831434236XXXXXX9826       VS11    0001111   NYV1 A E303059694870866N840000000002575F4PJ00    07DNVPODS HOLDING INC        027894    VD84000000002575 N  599977032122                            000000000+                F DF 00381                     000000000  N000000000       0000000000000.00 0000000.00   0000000.00                             000000000000000                                                                                                                                                     01424 A000000000000 0000000000000.36     00800 01500                  
00005510002440070DT67590675900000011650800888800000010180088824001193059900011800037022820230000000567705923000000000040831491712XXXXXX1435       VS11    0001111   NYV1 A E383059712853446N8400000000056775WDG00    07DNVPODS HOLDING INC        064814    VD84000000005677 N  599977032122                            000000000+                F DF 10433                     000000000  Y000000000 338   0000000000000.00 0000000.00   0000000.00                             000000000000000                                                                                                                                                     01424 A000000000000 0000000000000.25     00050 02200                  
00005520002440071DT67590675900000011650800888800000010180088824001193059900011800045022820230000000340505923000000000040831414720XXXXXX6222       VS11    0001111   NYV1 A E583059729358029N8400000000034053H8V00    07DNVPODS HOLDING INC        06059C    VS84000000003405 N  599977032122                            000000000+                C CC 12112                     000000000  N000000000 497   0000000000000.00 0000000.00   0000000.00                             000000000000000                                                                                                                                                     01424 A000000000000 0000000000000.66     01650 01000                  
00005530002440072DT67590675900000011650800888800000010180088877287283059900011800054022820230000000283905923000000000040831526924XXXXXX4382       MS02WI09          NY 1 0 AMDJTJW60Y0228  N840000000002839          05DNVPODS HOLDING INC        552725    MD84000000002839 N  599977032122                            000000000+M10101C5434C    MDJ  00402                     000000000  N                0000000000000.00 0000000.00   0000000.00                             000000000000000                                                                                                                                                   B101424  000000000000 0000000000000.45     01050 01500                  
00005540002440073DT67590675900000011650800888800000010180088877287283059900011800062022820230000000283905923000000000040831515026XXXXXX3801       MS02WI09          NY 1 0 AMDSRJZR5E0228  N840000000002839          05DNVPODS HOLDING INC        001213    MD84000000002839 N  599977032122                            000000000+M10101C5434C    MDS  00402                     000000000  N                0000000000000.00 0000000.00   0000000.00                             000000000000000                                                                                                                                                   B101424  000000000000 0000000000000.45     01050 01500                  
00005550002440074DT67590675900000011650800888800000010180088877287283059900011800070022820230000000249605923000000000040831527520XXXXXX3349       MS02WI09          NY 1 0 AMDJS8MZ5E0228  N840000000002496          05DNVPODS HOLDING INC        120059    MD84000000002496 N  599977032122                            000000000+M10101C5434C    MDJ  10815                     000000000  1                0000000000000.00 0000000.00   0000000.00                             000000000000000                                                                                                                                                   B101424  000000000000 0000000000000.23     00050 02200                  
00005560002440075DT67590675900000011650800888800000010180088824001193059900011800086022820230000000170305923000000000040831423223XXXXXX1495       VS11    0001111   NYV1 A E583059852579217N840000000001703SXDG00    05DNVPODS HOLDING INC        085209    VD84000000001703 N  599977032122                            000000000+                F DF 00381                     000000000  N000000000       0000000000000.00 0000000.00   0000000.00                             000000000000000                                                                                                                                                     01424 A000000000000 0000000000000.29     00800 01500                  
00005570002440076DT67590675900000011650800888800000010180088877287283059900011800096022820230000000079405923000000000040831528749XXXXXX6501       MS02WI09          NY 1 0 AMDJVYSP3X0228  N840000000000794          05DNVPODS HOLDING INC        807641    MD84000000000794 N  599977032122                            000000000+M10101C5434C    MDJ  10815                     000000000  1                0000000000000.00 0000000.00   0000000.00                             000000000000000                                                                                                                                                   B101424  000000000000 0000000000000.22     00050 02200                  
00005580002440077DT67590675900000011650800888800000010180088824001193059900011800102022820230000000340505923000000000040831440066XXXXXX2364       VS11    0001111   NYV1 A E583060011696439N840000000003405XH3F00    07DNVPODS HOLDING INC        05390D    VS84000000003405 N  599977032122                            000000000+                D CD 12113                     000000000  N000000000 499   0000000000000.00 0000000.00   0000000.00                             000000000000000                                                                                                                                                     01424 A000000000000 0000000000000.82     02100 01000                  
00005590002440078DT67590675900000011650800888800000010180088824001193059900011800110022820230000000454205923000000000040831406032XXXXXX5055       VS11    0001111   NYV1 A E303060027838814N8400000000045422KL200    07DNVPODS HOLDING INC        044619    VD84000000004542 N  599977032122                            000000000+                F DF 10433                     000000000  Y000000000 338   0000000000000.00 0000000.00   0000000.00                             000000000000000                                                                                                                                                     01424 A000000000000 0000000000000.24     00050 02200                  
00005600002440079DT67590675900000011650800888800000010180088824001193059900011800128022820230000000340505923000000000040831414720XXXXXX5005       VS11    0001111   NYV1 A E383060055008234N840000000003405555B00    07DNVPODS HOLDING INC        04233D    VS84000000003405 N  599977032122                            000000000+                D CD 12113                     000000000  N000000000 499   0000000000000.00 0000000.00   0000000.00                             000000000000000                                                                                                                                                     01424 A000000000000 0000000000000.82     02100 01000                  
00005610002440080DT67590675900000011650800888800000010180088824001193059900011800136022820230000000340505923000000000040831483312XXXXXX4067       VS11    0001111   NYV1 A E303060076206415N840000000003405R6MD00    07DNVPODS HOLDING INC        010721    VD84000000003405 N  599977032122                            000000000+                F DF 10433                     000000000  Y000000000 338   0000000000000.00 0000000.00   0000000.00                             000000000000000                                                                                                                                                     01424 A000000000000 0000000000000.24     00050 02200                  
