09801010656605103AD675906759000000198288001098000009071900011511390000000519007272023NYY20823ND6759800109073020232023208024862                                                                                                                                                                                                                                                                                                                                                                                                                                                                                                                                                                                              
09801020656605106AD675906759000000198288001098000009071900011511380000000654807272023NYY20823ND6759800109073020232023208024863                                                                                                                                                                                                                                                                                                                                                                                                                                                                                                                                                                                              
09801030656605109AD675906759000000198288001098000009071900011511370000002487007272023NYY20823ND6759800109073020232023208024864                                                                                                                                                                                                                                                                                                                                                                                                                                                                                                                                                                                              
09801040656605112AD675906759000000151648008888000009071900013390810000000198807272023NYY20823ND6759800888073020232023208024865                                                                                                                                                                                                                                                                                                                                                                                                                                                                                                                                                                                              
09801050656605115AD675906759000000133008001028000009071900014811380000001484807272023NYY20823ND6759800102073020232023208024866                                                                                                                                                                                                                                                                                                                                                                                                                                                                                                                                                                                              
09801060656605118AD675906759000000151648008888000009071900016963820000002487007272023NYY20823ND6759800888073020232023208024867                                                                                                                                                                                                                                                                                                                                                                                                                                                                                                                                                                                              
09801070656605121AD675906759000000133008001028000009071900014310070000001987007272023NYY20823ND6759800102073020232023208024868                                                                                                                                                                                                                                                                                                                                                                                                                                                                                                                                                                                              
09801080656605133AD675906759000000176738001068000009077900010200070000001306707272023NYY20823YC6759800106073020232023188025662                                                                                                                                                                                                                                                                                                                                                                                                                                                                                                                                                                                              
09801090656605139AD675906759000000176738001068000009077900013112120000001306707272023NYY20823YC6759800106073020232023188025552                                                                                                                                                                                                                                                                                                                                                                                                                                                                                                                                                                                              
09801100656605145AD675906759000000176738001068000009077900015821240000001306707272023NYY20823YC6759800106073020232023188025517                                                                                                                                                                                                                                                                                                                                                                                                                                                                                                                                                                                              
09801110658174526BH6759067590000003406680012780000090170728202320923000000002999700    0000090001071543N8001276759D07302023007                                                                                                                                                                                                                                                                                                                                                                                                                                                                                                                                                                                              
09801120658174527DT67590675900000034066800127800000010680012774001193209900010715180072720230000099970020923000000002999700424631XXXXXX5090               0000000   YYV4 0 T583208491119090N84000000099970085KM00    01CNLIFE SURGE LLC           04959G    VB84000000999700 N  899978486130                            000000000+                G CG 00246                     000000000  N000000000 167   0000000000000.00 0000000.00   0000000.00                             000000000000000                                                                                                                                                     015WPE 000000000000-0000000000234.93     02350 00000                  
09801130658170001G2675906759000000340668001278000000106BRADENTON                FL           9 C                00                                      NNNN00 Y 00                   000000000000                                                                   78486130                                                                                                                                                                                                                                                                                                                                                                                                                                               
09801140658174528DT67590675900000034066800127800000010680012774001193209900010715370072720230000140000020923000000002999700414720XXXXXX3635               0000000   YYV4 0 T383208491311572N8400000014000006BF400    01CNLIFE SURGE LLC           05561D    VS84000001400000 N  899978486130                            000000000+                D CD 00245                     000000000  N000000000 166   0000000000000.00 0000000.00   0000000.00                             000000000000000                                                                                                                                                     015WPE 000000000000-0000000000246.40     01760 00000                  
09801150658170001G2675906759000000340668001278000000106BRADENTON                FL           9 C                00                                      NNNN00 Y 00                   000000000000                                                                   78486130                                                                                                                                                                                                                                                                                                                                                                                                                                               
09801160658174529DT67590675900000034066800127800000010680012774001193209900010715438072720230000060000020923000000002999700424631XXXXXX3379               0000000   YYV4 0 T383208491391509N840000000600000HGK400    01CNLIFE SURGE LLC           05799G    VB84000000600000 N  899978486130                            000000000+                G CG 00246                     000000000  N000000000 167   0000000000000.00 0000000.00   0000000.00                             000000000000000                                                                                                                                                     015WPE 000000000000-0000000000141.00     02350 00000                  
09801170658170001G2675906759000000340668001278000000106BRADENTON                FL           9 C                00                                      NNNN00 Y 00                   000000000000                                                                   78486130                                                                                                                                                                                                                                                                                                                                                                                                                                               
09801180658174532BH6759067590000002684980012580000090170728202320923000000000098213    0000090001038184N8001256759D07302023103                                                                                                                                                                                                                                                                                                                                                                                                                                                                                                                                                                                              
09801190658174533DT67590675900000026849800125800000010680012574001193209900010381801072720230000002477020923000000000098213426938XXXXXX3195               0000000   YYV4 07T463208437476593N840000000024770RZ3900    01CNCBD8885133385            027990    VS84000000024770 NDR599978220273   D03952A468TEF56BB08C8E7  000000000+                B CB 00245                     000000000  N000000000 166   0000000000000.00 0000000.00   0000000.00                             000000000000000                                                                                                                                                     015WPE 000000024770-0000000000004.36     01760 00000                  
09801200658174533DR675906759000000268498001258000000106D03952A468TEF56BB08C8E7  U000000024770                 P1                                                                                                                                                                                                                                                                                                                                                                                                                                                                                                                                                                                                            
09801210658170001P16759067590000002684980012580000001060000000000000000                             2000000000000000000000000              000000000000                    0000000000000000000000000                    000000000000                                                                                                                                                                                                                                                                                                                                                                                                                                                                                        
09801220658170002G2675906759000000268498001258000000106888-5133385              WY           9 C                00                                      NNNN   Y                      000000000000                                                                   78220273                                                                                                                                                                                                                                                                                                                                                                                                                                               
09801230658174534DT67590675900000026849800125800000010680012574001193209900010381819072720230000002477020923000000000098213426938XXXXXX3195               0000000   YYV4 07T303208570663217N840000000024770Q5NP00    01CNCBD8885133385            027013    VS84000000024770 NDR599978220273   1F4B2B4CC4T49666CF7B763  000000000+                B CB 00245                     000000000  N000000000 166   0000000000000.00 0000000.00   0000000.00                             000000000000000                                                                                                                                                     015WPE 000000024770-0000000000004.36     01760 00000                  
09801240658174534DR6759067590000002684980012580000001061F4B2B4CC4T49666CF7B763  U000000024770                 P1                                                                                                                                                                                                                                                                                                                                                                                                                                                                                                                                                                                                            
09801250658170001P16759067590000002684980012580000001060000000000000000                             2000000000000000000000000              000000000000                    0000000000000000000000000                    000000000000                                                                                                                                                                                                                                                                                                                                                                                                                                                                                        
09801260658170002G2675906759000000268498001258000000106888-5133385              WY           9 C                00                                      NNNN   Y                      000000000000                                                                   78220273                                                                                                                                                                                                                                                                                                                                                                                                                                               
09801270658174535DT67590675900000026849800125800000010680012587287283209900010381864072720230000001610020923000000000098213528749XXXXXX5908                         YY94607N         0727  N840000000000000          81CNCBD8885133385                      MD84000000016100 N  599978220273   FA2BCA298ETF9A15F2663E8  000000000+600450S00130    MDJ  10828                     000000000  1                0000000000000.00 0000000.00   0000000.00                             000000000000000                                                                                                                                                     015WPE 000000000000 0000000000000.00     00000 00000                  
09801280658170001G26759067590000002684980012580000001068885133385               WY           9 J               210                                      NNNN           210000000000000000000000000                                                                   78220273                                                                                                                                                                                                                                                                                                                                                                                                                                               
09801290658174536DT67590675900000026849800125800000010680012587287283209900010381831072720230000001280320923000000000098213552433XXXXXX8606                         YY 4607AMCWHCE2OC0727  N840000000012803          81CNCBD8885133385            098337    MC84000000012803 NDR599978220273   8FA146C659TB1F7A6F98500  000000000+600450S00130    MCW  00564                     000000000  N                0000000000000.00 0000000.00   0000000.00                             000000000000000                                                                                                                                                     015WPE 000000000000-0000000000002.24     01750 00000                  
09801300658174536DR6759067590000002684980012580000001068FA146C659TB1F7A6F98500  Y000000000000                                                                                                                                                                                                                                                                                                                                                                                                                                                                                                                                                                                                                               
09801310658170001G26759067590000002684980012580000001068885133385               WY           9 W               210                                      NNNN           210000000000000000000000000                        7                                          78220273                                                                                                                                                                                                                                                                                                                                                                                                                                               
09801320658174537DT67590675900000026849800125800000010680012574001193209900010381843072720230000001977020923000000000098213475621XXXXXX4099               0000000   YYV4 07T383208713740646N8400000000197703Q6Q00    01CNCBD8885133385            417294    VS84000000019770 NDR599978220273   AB0D99DA81T4E89BFBD5EEC  000000000+                C CC 00245                     000000000  N000000000 166   0000000000000.00 0000000.00   0000000.00                             000000000000000                                                                                                                                                     015WPE 000000019770-0000000000003.48     01760 00000                  
09801330658174537DR675906759000000268498001258000000106AB0D99DA81T4E89BFBD5EEC  Y000000019770                 P1                                                                                                                                                                                                                                                                                                                                                                                                                                                                                                                                                                                                            
09801340658170001P16759067590000002684980012580000001060000000000000000                             2000000000000000000000000              000000000000                    0000000000000000000000000                    000000000000                                                                                                                                                                                                                                                                                                                                                                                                                                                                                        
09801350658170002G2675906759000000268498001258000000106888-5133385              WY           9 C                00                                      NNNN   Y                      000000000000                                                                   78220273                                                                                                                                                                                                                                                                                                                                                                                                                                               
09801360658174540BH6759067590000003201180013680000090170728202320923000000000987400    0000090001877659N8001366759C07302023000                                                                                                                                                                                                                                                                                                                                                                                                                                                                                                                                                                                              
09801370658174541DT67590675900000032011800136800000010180013673011003209900018781623072720230000098740020923000000000987400376747XXXXX3004                          YY 4 07N008554832477069N840000000987400          01DNCHOICE BOTANICALS INC    121891    AM84000000987400 N  549971004114                            000000000+6004S0600140 258     11263                     000000000                   0000000000000.00 0000000.00   0000000.00                             000000000000000 61248972086759675900000032011                          6300 ROTHWAY ST STE 100A                 77032                                               015WPE 000000000000 0000000000237.08     02400 00000                  
09801380658170001G2675906759000000320118001368000000101HOUSTON                  TX           9                  00                                      NNNN                          000000000000                                                                   71004114                                                                                                                                                                                                                                                                                                                                                                                                                                               
09801390659100002BH6759067590000003284780013580000090170728202320923000000000059927    0000090001390029N8001356759C07302023039                                                                                                                                                                                                                                                                                                                                                                                                                                                                                                                                                                                              
09801400659100003DT67590675900000032847800135800000010180013573011003209900013900129072720230000000302920923000000000059927379365XXXXX7758                          NY 1 0 N007857896299076N840000000003029          05DNDAYDREAMS SMOKE WORLD LLC773027    AM84000000003029 N  599378639041                            000000000+51010155434C 258     11261                     000000000                   0000000000000.00 0000000.00   0000000.00                             000000000000000 61248972086759675900000032847 DAYDREAMS SMOKE WORLD LLC900 N 10TH ST            9563387102      78501     DAYDREAMSSMOKEWORLD@GMAIL.COM             01418  000000000000 0000000000000.58     01600 00000                  
09801410659100001E167590675900000032847800135800000010100E0F8C801C3 00000000000.004040404040404040404040404040404040404040404040404006010103A0A006000000000000000000404040404040404040404040404040  000108403D00000000800023072798DEF2971192D2EFC7ED2FD3404040400840A0000000250104020000000000000000DF810F05BB9977BB30300000000000004040405E40404040 000000030.29 000000000.005E03000000000000000000    80                                                                                                                                                                                                                                                                                                                  
09801420659100002G2675906759000000328478001358000000101MCALLEN                  TX           5                  00                                      NNNN                          000000000000                                                                   78639041                                                                                                                                                                                                                                                                                                                                                                                                                                               
09801430659100004DT67590675900000032847800135800000010180013577287283209900013900182072720230000000064820923000000000059927522355XXXXXX9701       MS02WI09          NY 1 0 AMWE04B9190727  N840000000000648          07DNDAYDREAMS SMOKE WORLD LLC65029Z    MC84000000000648 N  599378639041                            000000000+M10101M0034C    MWE  00739                     000000000  N                0000000000000.00 0000000.00   0000000.00                             000000000000000                                                                                                                                                   A101418  000000000000 0000000000000.25     02300 01000                  
09801440659100001E167590675900000032847800135800000010100E008C80034 00000000000.00404040404040404040404040404040404040404040404040400114A14003020000000000000000000000FF00000000000000000000000000  000008401B8000000080012307271C40996297AD65D54B34456A404040400840A0000000041010000000000000000000404040404040404040404040404040404040403F40404040 000000006.48 000000000.003F00020000000000000000    80                                                                                                                                                                                                                                                                                                                  
09801450659100002G2675906759000000328478001358000000101MCALLEN                  TX           5 E                                                        NNNN              000000000000000000000000       21               C                                          78639041                                                                                                                                                                                                                                                                                                                                                                                                                                               
09801460659100005DT67590675900000032847800135800000010180013577287283209900013900240072820230000000173020923000000000059927524363XXXXXX2697       MS02WI09          NY 1 0 AMCW0IA05I0728  N840000000001730          05DNDAYDREAMS SMOKE WORLD LLC02848P    MC84000000001730 N  599378639041                            000000000+M10101C5434C    MCW  00644                     000000000  N                0000000000000.00 0000000.00   0000000.00                             000000000000000                                                                                                                                                   B101418  000000000000 0000000000000.43     01900 01000                  
09801470659100001E167590675900000032847800135800000010100E0F8C8000A 00000000000.00404040404040404040404040404040404040404040404040400710A04001220000000000000000000000FF00000000000000000000000000  000108403900000000800023072863143231B837D65AF178E142404040400840A00000000410100000000000000000004B44B7DF4B84D56200120000000000004040401E40404040 000000017.30 000000000.001E03000000000000000000    80                                                                                                                                                                                                                                                                                                                  
09801480659100002G2675906759000000328478001358000000101MCALLEN                  TX           5 W                                                        NNNN              000000000000000000000000                        7                                          78639041                                                                                                                                                                                                                                                                                                                                                                                                                                               
09801490659100006DT67590675900000032847800135800000010180013524001193209900013900271072820230000000054020923000000000059927414740XXXXXX7942       VK04VS111111111   NYV1 A E583209252012721N840000000000540QVT500    07DNDAYDREAMS SMOKE WORLD LLC00055D    VS84000000000540 N  599378639041                            000000000+                D CD 12113                     000000000  N000000000 499   0000000000000.00 0000000.00   0000000.00                             000000000000000                                                                                                                                                     01418 F000000000000 0000000000000.21     02100 01000                  
09801500659100001E16759067590000003284780013580000001010040404000F4 00000000000.004040404040404040404040404040404040404040404040404006021203A00000000000000000000000404040404040404040404040404040  000108402000000000000023072881DDBE4D97F541F06C4E1FEE404040400840A00000000310100000000000000000007D94389A0082000000000000000000004040404040404040 000000005.40 000000000.004040400000000000000000    80                                                                                                                                                                                                                                                                                                                  
09801510659100002G2675906759000000328478001358000000101MCALLEN                  TX           5 C                00                                      NNNN00 Y 00                   000000000000                                                                   78639041                                                                                                                                                                                                                                                                                                                                                                                                                                               
09801520659100007DT67590675900000032847800135800000010180013524001193209900013900289072820230000000010720923000000000059927414740XXXXXX7942       VK04VS111111111   NYV1 A E463209253608761N840000000000107NGJ300    05DNDAYDREAMS SMOKE WORLD LLC07207D    VS84000000000107 N  599378639041                            000000000+                D CD 12113                     000000000  N000000000 499   0000000000000.00 0000000.00   0000000.00                             000000000000000                                                                                                                                                     01418 F000000000000 0000000000000.12     02100 01000                  
09801530659100001E167590675900000032847800135800000010100E0F8C800F5 00000000000.004040404040404040404040404040404040404040404040404006021203A02002000000000000000000404040404040404040404040404040  00010840380000000080002307284DF62140231794C33F7A1BD6404040400840A00000000310100000000000000000009D40EC900082000000000000000000004040405E40404040 000000001.07 000000000.005E00000000000000000000    80                                                                                                                                                                                                                                                                                                                  
09801540659100002G2675906759000000328478001358000000101MCALLEN                  TX           5 C                00                                      NNNN00 Y 00                   000000000000                                                                   78639041                                                                                                                                                                                                                                                                                                                                                                                                                                               
09801550659100008DT67590675900000032847800135800000033080013576759003209900013900011072720230000000021420923000000000059927440393XXXXXX8927                         NY 2 0 N               N840000000000214      IL  05DNDAYDREAMS SMOKE WORLD LLC041831    DB84000000000214 N  599378639041                            000000000+                     09576                                N          346   0000000000000.00 0000000.00   0000000.00                             000000000000000                                                                                                                                                     01418  000000000000 0000000000000.17     01150 00000                  
09801560659100001G2675906759000000328478001358000000330MCALLEN                  TX           5 P                00                                      NNNN                          000000000000                                                                   78639041                                                                                                                                                                                                                                                                                                                                                                                                                                               
09801570659100009DT67590675900000032847800135800000033080013576759003209900013900029072720230000000701020923000000000059927527515XXXXXX3616                         NY42 0 N               N840000000007010      ME  05DNDAYDREAMS SMOKE WORLD LLC133694    DB84000000007010 N  599378639041                            000000000+                     09601                                1          MA1   0000000000000.00 0000000.00   0000000.00                             000000000000000                                                                                                                                                     01418  000000000000 0000000000000.26     00050 00000                  
09801580659100001G2675906759000000328478001358000000330MCALLEN                  TX           5 D                00                                      NNNN                          000000000000                                                                   78639041                                                                                                                                                                                                                                                                                                                                                                                                                                               
09801590659100010DT67590675900000032847800135800000033080013576759003209900013900037072720230000000321420923000000000059927461046XXXXXX5719                         NY 2 0 N               N840000000003214      IL  05DNDAYDREAMS SMOKE WORLD LLC084313    DB84000000003214 N  599378639041                            000000000+                     09580                                Y          342   0000000000000.00 0000000.00   0000000.00                             000000000000000                                                                                                                                                     01418  000000000000 0000000000000.24     00050 00000                  
09801600659100001G2675906759000000328478001358000000330MCALLEN                  TX           5 D                00                                      NNNN                          000000000000                                                                   78639041                                                                                                                                                                                                                                                                                                                                                                                                                                               
09801610659100011DT67590675900000032847800135800000033080013576759003209900013900045072720230000000357120923000000000059927467010XXXXXX1653                         NY 2 0 N               N840000000003571      IL  05DNDAYDREAMS SMOKE WORLD LLC400019    DB84000000003571 N  599378639041                            000000000+                     09580                                Y          342   0000000000000.00 0000000.00   0000000.00                             000000000000000                                                                                                                                                     01418  000000000000 0000000000000.24     00050 00000                  
09801620659100001G2675906759000000328478001358000000330MCALLEN                  TX           5 D                00                                      NNNN                          000000000000                                                                   78639041                                                                                                                                                                                                                                                                                                                                                                                                                                               
09801630659100012DT67590675900000032847800135800000033080013576759003209900013900052072720230000000297520923000000000059927474472XXXXXX2980                         NY 2 0 N               N840000000002975      IL  05DNDAYDREAMS SMOKE WORLD LLC163764    DB84000000002975 N  599378639041                            000000000+                     09580                                Y          342   0000000000000.00 0000000.00   0000000.00                             000000000000000                                                                                                                                                     01418  000000000000 0000000000000.23     00050 00000                  
09801640659100001G2675906759000000328478001358000000330MCALLEN                  TX           5 D                00                                      NNNN                          000000000000                                                                   78639041                                                                                                                                                                                                                                                                                                                                                                                                                                               
09801650659100013DT67590675900000032847800135800000033080013576759003209900013900060072720230000000416520923000000000059927441707XXXXXX8608                         NY 2 0 N               N840000000004165      IL  07DNDAYDREAMS SMOKE WORLD LLC126613    DB84000000004165 N  599378639041                            000000000+                     09576                                N          346   0000000000000.00 0000000.00   0000000.00                             000000000000000                                                                                                                                                     01418  000000000000 0000000000000.63     01150 00000                  
09801660659100001G2675906759000000328478001358000000330MCALLEN                  TX           5 P                00                                      NNNN                          000000000000                                                                   78639041                                                                                                                                                                                                                                                                                                                                                                                                                                               
09801670659100014DT67590675900000032847800135800000033080013576759003209900013900078072720230000000281120923000000000059927461046XXXXXX2288                         NY 2 0 N               N840000000002811      IL  07DNDAYDREAMS SMOKE WORLD LLC073316    DB84000000002811 N  599378639041                            000000000+                     09580                                Y          342   0000000000000.00 0000000.00   0000000.00                             000000000000000                                                                                                                                                     01418  000000000000 0000000000000.23     00050 00000                  
09801680659100001G2675906759000000328478001358000000330MCALLEN                  TX           5 D                00                                      NNNN                          000000000000                                                                   78639041                                                                                                                                                                                                                                                                                                                                                                                                                                               
09801690659100015DT67590675900000032847800135800000033080013576759003209900013900086072720230000000226120923000000000059927400022XXXXXX9478                         NY 2 0 N               N840000000002261      IL  05DNDAYDREAMS SMOKE WORLD LLC357309    DB84000000002261 N  599378639041                            000000000+                     09580                                Y          342   0000000000000.00 0000000.00   0000000.00                             000000000000000                                                                                                                                                     01418  000000000000 0000000000000.23     00050 00000                  
09801700659100001G2675906759000000328478001358000000330MCALLEN                  TX           5 D                00                                      NNNN                          000000000000                                                                   78639041                                                                                                                                                                                                                                                                                                                                                                                                                                               
09801710659100016DT67590675900000032847800135800000033080013576759003209900013900094072720230000000032420923000000000059927408138XXXXXX5026                         NY 2 0 N               N840000000000324      IL  07DNDAYDREAMS SMOKE WORLD LLC830580    DB84000000000324 N  599378639041                            000000000+                     09576                                N          346   0000000000000.00 0000000.00   0000000.00                             000000000000000                                                                                                                                                     01418  000000000000 0000000000000.19     01150 00000                  
09801720659100001G2675906759000000328478001358000000330MCALLEN                  TX           5 P                00                                      NNNN                          000000000000                                                                   78639041                                                                                                                                                                                                                                                                                                                                                                                                                                               
09801730659100017DT67590675900000032847800135800000033080013576759003209900013900102072720230000000270520923000000000059927440393XXXXXX4353                         NY 2 0 N               N840000000002705      IL  05DNDAYDREAMS SMOKE WORLD LLC830941    DB84000000002705 N  599378639041                            000000000+                     09576                                N          346   0000000000000.00 0000000.00   0000000.00                             000000000000000                                                                                                                                                     01418  000000000000 0000000000000.46     01150 00000                  
09801740659100001G2675906759000000328478001358000000330MCALLEN                  TX           5 P                00                                      NNNN                          000000000000                                                                   78639041                                                                                                                                                                                                                                                                                                                                                                                                                                               
09801750659100018DT67590675900000032847800135800000033080013576759003209900013900110072720230000000108120923000000000059927440393XXXXXX9623                         NY 2 0 N               N840000000001081      IL  05DNDAYDREAMS SMOKE WORLD LLC986335    DB84000000001081 N  599378639041                            000000000+                     09576                                N          346   0000000000000.00 0000000.00   0000000.00                             000000000000000                                                                                                                                                     01418  000000000000 0000000000000.27     01150 00000                  
09801760659100001G2675906759000000328478001358000000330MCALLEN                  TX           5 P                00                                      NNNN                          000000000000                                                                   78639041                                                                                                                                                                                                                                                                                                                                                                                                                                               
09801770659100019DT67590675900000032847800135800000033080013576759003209900013900136072720230000000238020923000000000059927440393XXXXXX1492                         NY 2 0 N               N840000000002380      IL  05DNDAYDREAMS SMOKE WORLD LLC427876    DB84000000002380 N  599378639041                            000000000+                     09576                                N          346   0000000000000.00 0000000.00   0000000.00                             000000000000000                                                                                                                                                     01418  000000000000 0000000000000.42     01150 00000                  
09801780659100001G2675906759000000328478001358000000330MCALLEN                  TX           5 P                00                                      NNNN                          000000000000                                                                   78639041                                                                                                                                                                                                                                                                                                                                                                                                                                               
09801790659100020DT67590675900000032847800135800000033080013576759003209900013900144072720230000000183920923000000000059927465082XXXXXX1180                         NY 2 0 N               N840000000001839      IL  07DNDAYDREAMS SMOKE WORLD LLC162812    DB84000000001839 N  599378639041                            000000000+                     09580                                Y          342   0000000000000.00 0000000.00   0000000.00                             000000000000000                                                                                                                                                     01418  000000000000 0000000000000.23     00050 00000                  
09801800659100001G2675906759000000328478001358000000330MCALLEN                  TX           5 D                00                                      NNNN                          000000000000                                                                   78639041                                                                                                                                                                                                                                                                                                                                                                                                                                               
09801810659100021DT67590675900000032847800135800000033080013576759003209900013900151072720230000000324620923000000000059927467010XXXXXX7946                         NY 2 0 N               N840000000003246      IL  05DNDAYDREAMS SMOKE WORLD LLC331340    DB84000000003246 N  599378639041                            000000000+                     09580                                Y          342   0000000000000.00 0000000.00   0000000.00                             000000000000000                                                                                                                                                     01418  000000000000 0000000000000.24     00050 00000                  
09801820659100001G2675906759000000328478001358000000330MCALLEN                  TX           5 D                00                                      NNNN                          000000000000                                                                   78639041                                                                                                                                                                                                                                                                                                                                                                                                                                               
09801830659100022DT67590675900000032847800135800000033080013576759003209900013900169072720230000000108120923000000000059927440393XXXXXX5331                         NY 2 0 N               N840000000001081      IL  05DNDAYDREAMS SMOKE WORLD LLC391575    DB84000000001081 N  599378639041                            000000000+                     09576                                N          346   0000000000000.00 0000000.00   0000000.00                             000000000000000                                                                                                                                                     01418  000000000000 0000000000000.27     01150 00000                  
09801840659100001G2675906759000000328478001358000000330MCALLEN                  TX           5 P                00                                      NNNN                          000000000000                                                                   78639041                                                                                                                                                                                                                                                                                                                                                                                                                                               
09801850659100023DT67590675900000032847800135800000033080013576759003209900013900177072720230000000428520923000000000059927551791XXXXXX3617                         NY42 0 N               N840000000004285      ME  05DNDAYDREAMS SMOKE WORLD LLC021053    DB84000000004285 N  599378639041                            000000000+                     09601                                1          MA1   0000000000000.00 0000000.00   0000000.00                             000000000000000                                                                                                                                                     01418  000000000000 0000000000000.24     00050 00000                  
09801860659100001G2675906759000000328478001358000000330MCALLEN                  TX           5 D                00                                      NNNN                          000000000000                                                                   78639041                                                                                                                                                                                                                                                                                                                                                                                                                                               
09801870659100024DT67590675900000032847800135800000033080013576759003209900013900193072720230000000077620923000000000059927440393XXXXXX8272                         NY 2 0 N               N840000000000776      IL  07DNDAYDREAMS SMOKE WORLD LLC218766    DB84000000000776 N  599378639041                            000000000+                     09576                                N          346   0000000000000.00 0000000.00   0000000.00                             000000000000000                                                                                                                                                     01418  000000000000 0000000000000.24     01150 00000                  
09801880659100001G2675906759000000328478001358000000330MCALLEN                  TX           5 P                00                                      NNNN                          000000000000                                                                   78639041                                                                                                                                                                                                                                                                                                                                                                                                                                               
09801890659100025DT67590675900000032847800135800000033080013576759003209900013900201072720230000000103920923000000000059927514978XXXXXX6258                         NY42 0 N               N840000000001039      ME  05DNDAYDREAMS SMOKE WORLD LLC024715    DB84000000001039 N  599378639041                            000000000+                     09601                                1          MA1   0000000000000.00 0000000.00   0000000.00                             000000000000000                                                                                                                                                     01418  000000000000 0000000000000.23     00050 00000                  
09801900659100001G2675906759000000328478001358000000330MCALLEN                  TX           5 D                00                                      NNNN                          000000000000                                                                   78639041                                                                                                                                                                                                                                                                                                                                                                                                                                               
09801910659100026DT67590675900000032847800135800000033080013576759003209900013900219072720230000000103820923000000000059927459954XXXXXX5294                         NY 2 0 N               N840000000001038      IL  05DNDAYDREAMS SMOKE WORLD LLCH35465    DB84000000001038 N  599378639041                            000000000+                     09580                                Y          342   0000000000000.00 0000000.00   0000000.00                             000000000000000                                                                                                                                                     01418  000000000000 0000000000000.23     00050 00000                  
09801920659100001G2675906759000000328478001358000000330MCALLEN                  TX           5 D                00                                      NNNN                          000000000000                                                                   78639041                                                                                                                                                                                                                                                                                                                                                                                                                                               
09801930659100027DT67590675900000032847800135800000033080013576759003209900013900227072720230000000035520923000000000059927440393XXXXXX8927                         NY 2 0 N               N840000000000355      IL  07DNDAYDREAMS SMOKE WORLD LLC036393    DB84000000000355 N  599378639041                            000000000+                     09576                                N          346   0000000000000.00 0000000.00   0000000.00                             000000000000000                                                                                                                                                     01418  000000000000 0000000000000.19     01150 00000                  
09801940659100001G2675906759000000328478001358000000330MCALLEN                  TX           5 P                00                                      NNNN                          000000000000                                                                   78639041                                                                                                                                                                                                                                                                                                                                                                                                                                               
09801950659100028DT67590675900000032847800135800000033080013576759003209900013900235072820230000000086520923000000000059927517279XXXXXX2118                         NY42 0 N               N840000000000865      ME  05DNDAYDREAMS SMOKE WORLD LLC934563    DB84000000000865 N  599378639041                            000000000+                     09597                                N                0000000000000.00 0000000.00   0000000.00                             000000000000000                                                                                                                                                     01418  000000000000 0000000000000.23     00900 00000                  
09801960659100001G2675906759000000328478001358000000330MCALLEN                  TX           5 D                00                                      NNNN                          000000000000                                                                   78639041                                                                                                                                                                                                                                                                                                                                                                                                                                               
09801970659100029DT67590675900000032847800135800000033080013576759003209900013900250072820230000000389620923000000000059927443045XXXXXX4466                         NY 2 0 N               N840000000003896      IL  05DNDAYDREAMS SMOKE WORLD LLC280689    DB84000000003896 N  599378639041                            000000000+                     09580                                Y          342   0000000000000.00 0000000.00   0000000.00                             000000000000000                                                                                                                                                     01418  000000000000 0000000000000.24     00050 00000                  
09801980659100001G2675906759000000328478001358000000330MCALLEN                  TX           5 D                00                                      NNNN                          000000000000                                                                   78639041                                                                                                                                                                                                                                                                                                                                                                                                                                               
09801990659100030DT67590675900000032847800135800000033080013576759003209900013900268072820230000000220620923000000000059927461046XXXXXX2780                         NY 2 0 N               N840000000002206      IL  05DNDAYDREAMS SMOKE WORLD LLC054801    DB84000000002206 N  599378639041                            000000000+                     09580                                Y          342   0000000000000.00 0000000.00   0000000.00                             000000000000000                                                                                                                                                     01418  000000000000 0000000000000.23     00050 00000                  
09802000659100001G2675906759000000328478001358000000330MCALLEN                  TX           5 D                00                                      NNNN                          000000000000                                                                   78639041                                                                                                                                                                                                                                                                                                                                                                                                                                               
09802010659100031DT67590675900000032847800135800000033080013576759003209900013900292072820230000000053620923000000000059927527515XXXXXX6768                         NY41 0 N               N840000000000536      ME  07DNDAYDREAMS SMOKE WORLD LLC195126    DB84000000000536 N  599378639041                            000000000+                     09601                                1          MA1   0000000000000.00 0000000.00   0000000.00                             000000000000000                                                                                                                                                     01418  000000000000 0000000000000.22     00050 00000                  
09802020659100001G2675906759000000328478001358000000330MCALLEN                  TX           5 D                00                                      NNNN                          000000000000                                                                   78639041                                                                                                                                                                                                                                                                                                                                                                                                                                               
09802030659100032BH6759067590000003284780013580000090170728202320923000000000048422    0000090001390020N8001356759C07302023039                                                                                                                                                                                                                                                                                                                                                                                                                                                                                                                                                                                              
09802040659100033DT67590675900000032847800135800000010180013577287283209900013900059072720230000000085020923000000000048422521853XXXXXX9619       MS02WI09          NY 1 0 AMCWOSQ2N10727  N840000000000850          05DNDAYDREAMS SMOKE WORLD LLC02741T    MC84000000000850 N  599378639007                            000000000+M10101C5434C    MCW  02184                     000000000  N                0000000000000.00 0000000.00   0000000.00                             000000000000000                                                                                                                                                   B101418  000000000000 0000000000000.30     02300 01000                  
09802050659100001E167590675900000032847800135800000010100E0F8C8001A 00000000000.00404040404040404040404040404040404040404040404040400610A04001220000000000000000000000FF00000000000000000000000000  000308403900000000800023072705FDAC6A1873450E8229FDDD404040400840A0000000041010000000000000000000C353FA01A0C60BC600120000000000004040401E40404040 000000008.50 000000000.001E03000000000000000000    80                                                                                                                                                                                                                                                                                                                  
09802060659100002G2675906759000000328478001358000000101MCALLEN                  TX           5 W                                                        NNNN              000000000000000000000000                        7                                          78639007                                                                                                                                                                                                                                                                                                                                                                                                                                               
09802070659100034DT67590675900000032847800135800000010180013524001193209900013900099072720230000000010720923000000000048422498503XXXXXX5576       VK04VS111111111   NYV1 A E463208786591350N840000000000107FD4Z00    05DNDAYDREAMS SMOKE WORLD LLC021247    VD84000000000107 N  599378639007                            000000000+                F DF 00451                     000000000  N000000000 214   0000000000000.00 0000000.00   0000000.00                             000000000000000                                                                                                                                                     01418 F000000000000 0000000000000.06     01550 00400                  
09802080659100001E167590675900000032847800135800000010100E0F8C80075 00000000000.004040404040404040404040404040404040404040404040404006011203A0A000000000000000000000404040404040404040404040404040  000008401800800000800023072704095CB700259D3FD0A0FB11404040400840A000000003101000000000000000000071FAACFD0080000000000000000000004040405E40404040 000000001.07 000000000.005E00000000000000000000    80                                                                                                                                                                                                                                                                                                                  
09802090659100002G2675906759000000328478001358000000101MCALLEN                  TX           5 D                00                                      NNNN00 N 00                   000000000000                                                                   78639007                                                                                                                                                                                                                                                                                                                                                                                                                                               
09802100659100035DT67590675900000032847800135800000010180013524001193209900013900115072720230000000627620923000000000048422486748XXXXXX0406       VS11    0001111   NYV1 A E303209031772300N840000000006276MN5500    05DNDAYDREAMS SMOKE WORLD LLC095257    VS84000000006276 N  599378639007                            000000000+                A CA 12110                     000000000  N000000000 493   0000000000000.00 0000000.00   0000000.00                             000000000000000                                                                                                                                                     01418 A000000000000 0000000000001.05     01510 01000                  
09802110659100001E167590675900000032847800135800000010100E0F8C8019B 00000000000.004040404040404040404040404040404040404040404040404006011203A0A000000000000000000000404040404040404040404040404040  0000084018008000008000230727AFC9E2ACE7969D268878CAF0404040400840A0000000031010000000000000000000404040404040404040404040404040404040405E40404040 000000062.76 000000000.005E00000000000000000000    80                                                                                                                                                                                                                                                                                                                  
09802120659100002G2675906759000000328478001358000000101MCALLEN                  TX           5 C                00                                      NNNN00 N 00                   000000000000                                                                   78639007                                                                                                                                                                                                                                                                                                                                                                                                                                               
09802130659100036DT67590675900000032847800135800000010180013524001193209900013900123072720230000000324620923000000000048422465992XXXXXX8382       VS11    0001111   NYV1 A E463209113528448N840000000003246KP7N00    07DNDAYDREAMS SMOKE WORLD LLC175985    VD84000000003246 N  599378639007                            000000000+                F DF 00381                     000000000  N000000000       0000000000000.00 0000000.00   0000000.00                             000000000000000                                                                                                                                                     01418 A000000000000 0000000000000.41     00800 01500                  
09802140659100001E1675906759000000328478001358000000101004040400015 00000000000.00404040404040404040404040404040404040404040404040401F42FF32A00000000010030273000000004000000000000000000000000000  0000084000400000000000230727B72968950BC364D34E878990404040400840A00000000310100000000000000000000E7F457E0086000000000000000000004040404040404040 000000032.46 000000000.004040400000000000000000    80                                                                                                                                                                                                                                                                                                                  
09802150659100002G2675906759000000328478001358000000101MCALLEN                  TX           5 D                00                                      NNNN00 N 00                   000000000000                                                                   78639007                                                                                                                                                                                                                                                                                                                                                                                                                                               
09802160659100037DT67590675900000032847800135800000010180013577287283209900013900166072820230000000270520923000000000048422517805XXXXXX1423       MS02WI09          NY 1 0 AMPL0F285I0728  N840000000002705          05DNDAYDREAMS SMOKE WORLD LLC03359B    MC84000000002705 N  599378639007                            000000000+M10101C5434C    MPL  00353                     000000000  N                0000000000000.00 0000000.00   0000000.00                             000000000000000                                                                                                                                                   B101418  000000000000 0000000000000.59     01800 01000                  
09802170659100001E167590675900000032847800135800000010100E0F8C80033 00000000000.00404040404040404040404040404040404040404040404040400110A04001220000000000000000000000FF00000000000000000000000000  0001084039000000008000230728088A702C07CC71339B449C64404040400840A0000000041010000000000000000000E8A333982A2FFE5000120000000000004040401E40404040 000000027.05 000000000.001E03000000000000000000    80                                                                                                                                                                                                                                                                                                                  
09802180659100002G2675906759000000328478001358000000101MCALLEN                  TX           5 L                                                        NNNN              000000000000000000000000                        7                                          78639007                                                                                                                                                                                                                                                                                                                                                                                                                                               
09802190659100038DT67590675900000032847800135800000010180013524001193209900013900172072820230000000487020923000000000048422407535XXXXXX0805       VS11    0001111   NYV1 A E463209225603091N840000000004870PC3W00    90DNDAYDREAMS SMOKE WORLD LLC799389    VD84000000004870 N  599378639007                            000000000+                F PF 08170                     000000000  N000000000       0000000000000.00 0000000.00   0000000.00                             000000000000000                                                                                                                                                     01418 A000000000000 0000000000000.71     01150 01500                  
09802200659100001G2675906759000000328478001358000000101MCALLEN                  TX           5 P                00                                      NNNN00 N 00                   000000000000                                                                   78639007                                                                                                                                                                                                                                                                                                                                                                                                                                               
09802210659100039DT67590675900000032847800135800000033080013576759003209900013900011072720230000000432920923000000000048422423223XXXXXX8484                         NY 2 0 N               N840000000004329      IL  05DNDAYDREAMS SMOKE WORLD LLC052850    DB84000000004329 N  599378639007                            000000000+                     09573                                N          121   0000000000000.00 0000000.00   0000000.00                             000000000000000                                                                                                                                                     01418  000000000000 0000000000000.50     00800 00000                  
09802220659100001G2675906759000000328478001358000000330MCALLEN                  TX           5 D                00                                      NNNN                          000000000000                                                                   78639007                                                                                                                                                                                                                                                                                                                                                                                                                                               
09802230659100040DT67590675900000032847800135800000033080013576759003209900013900029072720230000000162220923000000000048422434258XXXXXX1055                         NY 2 0 N               N840000000001622      IL  07DNDAYDREAMS SMOKE WORLD LLC063971    DB84000000001622 N  599378639007                            000000000+                     09580                                Y          342   0000000000000.00 0000000.00   0000000.00                             000000000000000                                                                                                                                                     01418  000000000000 0000000000000.23     00050 00000                  
09802240659100001G2675906759000000328478001358000000330MCALLEN                  TX           5 D                00                                      NNNN                          000000000000                                                                   78639007                                                                                                                                                                                                                                                                                                                                                                                                                                               
09802250659100041DT67590675900000032847800135800000033080013576759003209900013900037072720230000000541120923000000000048422400022XXXXXX5984                         NY 2 0 N               N840000000005411      IL  05DNDAYDREAMS SMOKE WORLD LLC102122    DB84000000005411 N  599378639007                            000000000+                     09580                                Y          342   0000000000000.00 0000000.00   0000000.00                             000000000000000                                                                                                                                                     01418  000000000000 0000000000000.25     00050 00000                  
09802260659100001G2675906759000000328478001358000000330MCALLEN                  TX           5 D                00                                      NNNN                          000000000000                                                                   78639007                                                                                                                                                                                                                                                                                                                                                                                                                                               
09802270659100042DT67590675900000032847800135800000033080013576759003209900013900045072720230000000124320923000000000048422422968XXXXXX2026                         NY 2 0 N               N840000000001243      IL  05DNDAYDREAMS SMOKE WORLD LLCB26650    DB84000000001243 N  599378639007                            000000000+                     09584                                Y          273   0000000000000.00 0000000.00   0000000.00                             000000000000000                                                                                                                                                     01418  000000000000 0000000000000.23     00050 00000                  
09802280659100001G2675906759000000328478001358000000330MCALLEN                  TX           5 D                00                                      NNNN                          000000000000                                                                   78639007                                                                                                                                                                                                                                                                                                                                                                                                                                               
09802290659100043DT67590675900000032847800135800000033080013576759003209900013900060072720230000000010720923000000000048422461046XXXXXX1437                         NY 2 0 N               N840000000000107      IL  07DNDAYDREAMS SMOKE WORLD LLC085515    DB84000000000107 N  599378639007                            000000000+                     09580                                Y          342   0000000000000.00 0000000.00   0000000.00                             000000000000000                                                                                                                                                     01418  000000000000 0000000000000.22     00050 00000                  
09802300659100001G2675906759000000328478001358000000330MCALLEN                  TX           5 D                00                                      NNNN                          000000000000                                                                   78639007                                                                                                                                                                                                                                                                                                                                                                                                                                               
09802310659100044DT67590675900000032847800135800000033080013576759003209900013900078072720230000000183920923000000000048422444487XXXXXX0794                         NY 2 0 N               N840000000001839      IL  05DNDAYDREAMS SMOKE WORLD LLC440178    DB84000000001839 N  599378639007                            000000000+                     09590                                N          279   0000000000000.00 0000000.00   0000000.00                             000000000000000                                                                                                                                                     01418  000000000000 0000000000000.30     00800 00000                  
09802320659100001G2675906759000000328478001358000000330MCALLEN                  TX           5 D                00                                      NNNN                          000000000000                                                                   78639007                                                                                                                                                                                                                                                                                                                                                                                                                                               
09802330659100045DT67590675900000032847800135800000033080013576759003209900013900086072720230000000270420923000000000048422461046XXXXXX6535                         NY 2 0 N               N840000000002704      IL  05DNDAYDREAMS SMOKE WORLD LLC064517    DB84000000002704 N  599378639007                            000000000+                     09580                                Y          342   0000000000000.00 0000000.00   0000000.00                             000000000000000                                                                                                                                                     01418  000000000000 0000000000000.23     00050 00000                  
09802340659100001G2675906759000000328478001358000000330MCALLEN                  TX           5 D                00                                      NNNN                          000000000000                                                                   78639007                                                                                                                                                                                                                                                                                                                                                                                                                                               
09802350659100046DT67590675900000032847800135800000033080013576759003209900013900102072720230000000281220923000000000048422442756XXXXXX1454                         NY 2 0 N               N840000000002812      IL  05DNDAYDREAMS SMOKE WORLD LLC080418    DB84000000002812 N  599378639007                            000000000+                     09580                                Y          342   0000000000000.00 0000000.00   0000000.00                             000000000000000                                                                                                                                                     01418  000000000000 0000000000000.23     00050 00000                  
09802360659100001G2675906759000000328478001358000000330MCALLEN                  TX           5 D                00                                      NNNN                          000000000000                                                                   78639007                                                                                                                                                                                                                                                                                                                                                                                                                                               
09802370659100047DT67590675900000032847800135800000033080013576759003209900013900136072720230000000118920923000000000048422441707XXXXXX5580                         NY 2 0 N               N840000000001189      IL  07DNDAYDREAMS SMOKE WORLD LLC227190    DB84000000001189 N  599378639007                            000000000+                     09576                                N          346   0000000000000.00 0000000.00   0000000.00                             000000000000000                                                                                                                                                     01418  000000000000 0000000000000.29     01150 00000                  
09802380659100001G2675906759000000328478001358000000330MCALLEN                  TX           5 P                00                                      NNNN                          000000000000                                                                   78639007                                                                                                                                                                                                                                                                                                                                                                                                                                               
09802390659100048DT67590675900000032847800135800000033080013576759003209900013900144072720230000000183920923000000000048422434258XXXXXX0692                         NY 2 0 N               N840000000001839      IL  05DNDAYDREAMS SMOKE WORLD LLC088547    DB84000000001839 N  599378639007                            000000000+                     09580                                Y          342   0000000000000.00 0000000.00   0000000.00                             000000000000000                                                                                                                                                     01418  000000000000 0000000000000.23     00050 00000                  
09802400659100001G2675906759000000328478001358000000330MCALLEN                  TX           5 D                00                                      NNNN                          000000000000                                                                   78639007                                                                                                                                                                                                                                                                                                                                                                                                                                               
09802410659100049DT67590675900000032847800135800000033080013576759003209900013900151072720230000000535720923000000000048422444487XXXXXX7118                         NY 2 0 N               N840000000005357      IL  05DNDAYDREAMS SMOKE WORLD LLC180119    DB84000000005357 N  599378639007                            000000000+                     09590                                N          279   0000000000000.00 0000000.00   0000000.00                             000000000000000                                                                                                                                                     01418  000000000000 0000000000000.58     00800 00000                  
09802420659100001G2675906759000000328478001358000000330MCALLEN                  TX           5 D                00                                      NNNN                          000000000000                                                                   78639007                                                                                                                                                                                                                                                                                                                                                                                                                                               
