01719410363810002BH6759067590000000096880088880000090171116202232022000000000000115    0000090001010002N8008886759C11172022                                                                                                                                                                                                                                                                                                                                                                                                                                                                                                                                                                                                 
01719420363810003DT67590675900000000968800888800000010180088877287282320900010100014111620220000000001532022000000000000115558158XXXXXX7298                         NY 1 0 AMDBZSRRIQ1116  N840000000000015          05DNHIGHER FLOUR LLC         2XRGXE    MD84000000000015 NP1546276006905                            000000000+M10101C5434C    MDB  00062                     000000000  N                0000000000000.00 0000000.00   0000000.00                             000000000000000                                                                                                                                                   B101418  000000000000 0000000000000.10     02650 01000                  
01719430363810001P1675906759000000009688008888000000101                                                 000000000000000000000          8000   000000000863838817            000000000000                                                                                                                                                                                                                                                                                                                                                                                                                                                                                                                                    
01719440363810004DT67590675900000000968800888800000010180088873011002320900010100026111620220000000010032022000000000000115373967XXXXX1009                          NY 1 0 N003323960076308N840000000000100          01DNHIGHER FLOUR LLC         180752    AM84000000000100 N  546276006905                            000000000+51010165434C 258     11261                     000000000                   0000000000000.00 0000000.00   0000000.00                             000000000000000 61248972086759675900000000968 HIGHER FLOUR LLC         5822 GRAND ORO LANE #108 3134444373      33544     HIGHERFLOURLLC@GMAIL.COM                  01418  000000000000 0000000000000.12     01600 00000                  
