11614100068241222AD675906759000001384618900218900009071900013506690000000366901022025NYY00225ND6759890021010520252025002015958                                                                                                                                                                                                                                                                                                                                                                                                                                                                                                                                                                                              
11614110070830002BH6759067590000017208080024080000090170103202500325000000000015500    0000090001303592N8002406759C01052025030                                                                                                                                                                                                                                                                                                                                                                                                                                                                                                                                                                                              
11614120070830003DT67590675900000172080800240800000010180024073011005003900013014908010220250000000490000325000000000015500371697XXXXX2005                          NY 4 07N010572436360305N840000000004900          01DNGUERRIERO PACKING & WINE 208960    AM84000000004900 N  592175621638                            000000000+6004S0S00140 258     11261                     000000000                   0000000000000.00 0000000.00   0000000.00                             000000000000000 61248972086759675900000172080 GUERRIERO PACKING & WINE 2746 W TENAYA AVE        5593516565      93711     JOEYG@CRYBABYWINE.COM                     01418  000000000000 0000000000000.81     01450 00000                  
11614130070830001G2675906759000001720808002408000000101FRESNO                   CA           9                  00                                      NNNN                          000000000000                                                                   75621638 0000000000000.00 0000000000000.00 0000000000000.00 0000000000000.00 0000000000000.00                                                                                                                                                                                                                                                                                                                                                          
11614140070830004DT67590675900000172080800240800000010180024024001195003900013035923010220250000001060000325000000000015500444796XXXXXX9132               2111111   NYV4 A7W465003044668651N8400000000106004RCK00    01DNGUERRIERO PACKING AND  WI002920    VS84000000010600 NDR592175621638   1505235                  000000000+                A CA 12106                     000000000  N000000000 492   0000000000000.00 0000000.00   0000000.00                             000000000000000                                                                                                                                                     01418 G000000010600 0000000000002.10     01890 01000                  
11614150070830004DR6759067590000017208080024080000001011505235                  Y000000010600                 P1                                                                                                                                                                                                                                                                                                                                                                                                                                                                                                                                                                                                            
11614160070830001P16759067590000017208080024080000001010000000000000000                             2000000000000000000000000              000000000000                    0000000000000000000000000                    000000000000                                                                                                                                                                                                                                                                                                                                                                                                                                                                                        
11614170070830002G2675906759000001720808002408000000101559-3516565              CA           9 C                00                                      NNNN   Y                      000000000000                                                                   75621638 0000000000000.00 0000000000000.00 0000000000000.00 0000000000000.00 0000000000000.00                                                                                                                                                                                                                                                                                                                                                          
11614180070830005BH6759067590000013846189002189000090170103202500325000000000004531    0000090001311375N8900216759C01052025331                                                                                                                                                                                                                                                                                                                                                                                                                                                                                                                                                                                              
11614190070830006DT67590675900000138461890021890000010189002124001195003900013113746010320250000000363700325000000000004531449210XXXXXX9189       VS11    0001111   NYV1 A E305003269886694N840000000003637LCDD00    07DNVERIFYVEND855-5539974    022948    VD84000000003637 N  654078906988                            000000000+             F64F DF 10433                     000000000  Y000000000 338   0000000000000.00 0000000.00   0000000.00                             000000000000000                                                                                                                                                     01418 A000000000000 0000000000000.24     00050 02200                  
11614200070830001G2675906759000001384618900218900000101PROVIDENCE               RI           5 D                00                                      NNNN00 N 00                   000000000000                                                                   78906988 0000000000000.00 0000000000000.00 0000000000000.00 0000000000000.00 0000000000000.00                                                                                                                                                                                                                                                                                                                                                          
11614210070830007DT67590675900000138461890021890000010189002124001195003900013113753010320250000000089400325000000000004531403163XXXXXX1618       VK04VS111111111   NYV1 A E585003272149423N84000000000089474V800    07DNVERIFYVEND855-5539974    894471    VD84000000000894 N  654078906988                            000000000+             F64F PF 08165                     000000000  N000000000       0000000000000.00 0000000.00   0000000.00                             000000000000000                                                                                                                                                     01418 F000000000000 0000000000000.19     01600 00500                  
11614220070830001G2675906759000001384618900218900000101PROVIDENCE               RI           5 P                00                                      NNNN00 N 00                   000000000000                                                                   78906988 0000000000000.00 0000000000000.00 0000000000000.00 0000000000000.00 0000000000000.00                                                                                                                                                                                                                                                                                                                                                          
11614230070830008BH6759067590000013846189002189000090170103202500325000000000026538    0000090001684618N8900216759C01052025968                                                                                                                                                                                                                                                                                                                                                                                                                                                                                                                                                                                              
11614240070830009DT67590675900000138461890021890000010189002177287285003900016846146010320250000000577400325000000000026538510805XXXXXX0236       MS02WI09          NY 1 0 AMDJVEWS0V0103  N840000000005774          07DNVERIFYVEND855-5539974    061630    MD84000000005774 N  654078519239                            000000000+M10101M0034C F64MDJ  10815                     000000000  1                0000000000000.00 0000000.00   0000000.00                             000000000000000                                                                                                                                                   B101418  000000000000 0000000000000.25     00050 02200                  
11614250070830001G2675906759000001384618900218900000101PROVIDENCE               RI           5 J                                                        NNNN              0000000000000000000000002010001                 7                                          78519239 0000000000000.00 0000000000000.00 0000000000000.00 0000000000000.00 0000000000000.00                                                                                                                                                                                                                                                                                                                                                          
11614260070830010DT67590675900000138461890021890000010189002124001195003900016846151010320250000000503200325000000000026538432609XXXXXX3964       VS11    0001111   NYV1 A E385003444964701N84000000000503258HK00    07DNVERIFYVEND855-5539974    042136    VD84000000005032 N  654078519239                            000000000+             F64F PF 08170                     000000000  N000000000       0000000000000.00 0000000.00   0000000.00                             000000000000000                                                                                                                                                     01418 A000000000000 0000000000000.73     01150 01500                  
11614270070830001G2675906759000001384618900218900000101PROVIDENCE               RI           5 P                00                                      NNNN00 N 00                   000000000000                                                                   78519239 0000000000000.00 0000000000000.00 0000000000000.00 0000000000000.00 0000000000000.00                                                                                                                                                                                                                                                                                                                                                          
11614280070830011DT67590675900000138461890021890000010189002124001195003900016846169010320250000001266400325000000000026538426684XXXXXX0264       VS11    0001111   NYV1 A E465003449122929N840000000012664MNZV00    07DNVERIFYVEND855-5539974    04974A    VS84000000012664 N  654078519239                            000000000+             F64A CA 12110                     000000000  N000000000 493   0000000000000.00 0000000.00   0000000.00                             000000000000000                                                                                                                                                     01418 A000000000000 0000000000002.01     01510 01000                  
11614290070830001G2675906759000001384618900218900000101PROVIDENCE               RI           5 C                00                                      NNNN00 Y 00                   000000000000                                                                   78519239 0000000000000.00 0000000000000.00 0000000000000.00 0000000000000.00 0000000000000.00                                                                                                                                                                                                                                                                                                                                                          
11614300070830012DT67590675900000138461890021890000010189002124001195003900016846177010320250000000185200325000000000026538457431XXXXXX6246       VS11    0001111   NYV1 A E305003450770981N840000000001852VQL700    07DNVERIFYVEND855-5539974    874678    VD84000000001852 N  654078519239                            000000000+             F64F DF 10433                     000000000  Y000000000 338   0000000000000.00 0000000.00   0000000.00                             000000000000000                                                                                                                                                     01418 A000000000000 0000000000000.23     00050 02200                  
11614310070830001G2675906759000001384618900218900000101PROVIDENCE               RI           5 D                00                                      NNNN00 N 00                   000000000000                                                                   78519239 0000000000000.00 0000000000000.00 0000000000000.00 0000000000000.00 0000000000000.00                                                                                                                                                                                                                                                                                                                                                          
11614320070830013DT67590675900000138461890021890000010189002177287285003900016846187010320250000000121600325000000000026538511407XXXXXX5713       MS02WI09          NY 1 0 AMDJVYE4180103  N840000000001216          07DNVERIFYVEND855-5539974    670372    MD84000000001216 N  654078519239                            000000000+M10101M0034C F64MDJ  00402                     000000000  N                0000000000000.00 0000000.00   0000000.00                             000000000000000                                                                                                                                                   B101418  000000000000 0000000000000.28     01050 01500                  
11614330070830001G2675906759000001384618900218900000101PROVIDENCE               RI           5 J                                                        NNNN              0000000000000000000000002010001                 7                                          78519239 0000000000000.00 0000000000000.00 0000000000000.00 0000000000000.00 0000000000000.00                                                                                                                                                                                                                                                                                                                                                          
11614340070830014BH6759067590000013846189002189000090170103202500325000000000060493    0000090001778069N8900216759C01052025077                                                                                                                                                                                                                                                                                                                                                                                                                                                                                                                                                                                              
11614350070830015DT67590675900000138461890021890000033089002176759005003900017780636010220250000001614900325000000000060493411771XXXXXX1952                         NY42 0 N               N840000000016149      PL  07DNVERIFYVEND855-5539974    103683    DB84000000016149 N  654078351959                            000000000+                     09635                                Y          PU1   0000000000000.00 0000000.00   0000000.00                             000000000000000                                                                                                                                                     01418  000000000000 0000000000000.30     00050 00000                  
11614360070830001G2675906759000001384618900218900000330PROVIDENCE               RI           5 D                00                                      NNNN                          000000000000                                                                   78351959 0000000000000.00 0000000000000.00 0000000000000.00 0000000000000.00 0000000000000.00                                                                                                                                                                                                                                                                                                                                                          
11614370070830016DT67590675900000138461890021890000033089002176759005003900017780644010220250000001005000325000000000060493438779XXXXXX6598                         NY42 0 N               N840000000010050      XL  05DNVERIFYVEND855-5539974    285587    DB84000000010050 N  654078351959                            000000000+                     11575                                N          A1B   0000000000000.00 0000000.00   0000000.00                             000000000000000                                                                                                                                                     01418  000000000000 0000000000001.20     00900 00000                  
11614380070830001G2675906759000001384618900218900000330PROVIDENCE               RI           5 D                00                                      NNNN                          000000000000                                                                   78351959 0000000000000.00 0000000000000.00 0000000000000.00 0000000000000.00 0000000000000.00                                                                                                                                                                                                                                                                                                                                                          
11614390070830017DT67590675900000138461890021890000033089002176759005003900017780651010220250000001405000325000000000060493432629XXXXXX9058                         NY42 0 N               N840000000014050      PL  07DNVERIFYVEND855-5539974    104685    DB84000000014050 N  654078351959                            000000000+                     09635                                Y          PU1   0000000000000.00 0000000.00   0000000.00                             000000000000000                                                                                                                                                     01418  000000000000 0000000000000.29     00050 00000                  
11614400070830001G2675906759000001384618900218900000330PROVIDENCE               RI           5 D                00                                      NNNN                          000000000000                                                                   78351959 0000000000000.00 0000000000000.00 0000000000000.00 0000000000000.00 0000000000000.00                                                                                                                                                                                                                                                                                                                                                          
11614410070830018DT67590675900000138461890021890000010189002124001195003900017780664010220250000000386600325000000000060493438779XXXXXX1855       VS11    0001111   NYV1 A E385003101966668N840000000003866FX7Z00    07DNVERIFYVEND855-5539974    224849    VD84000000003866 N  654078351959                            000000000+             F64F DF 00381                     000000000  N000000000       0000000000000.00 0000000.00   0000000.00                             000000000000000                                                                                                                                                     01418 A000000000000 0000000000000.46     00800 01500                  
11614420070830001G2675906759000001384618900218900000101PROVIDENCE               RI           5 D                00                                      NNNN00 N 00                   000000000000                                                                   78351959 0000000000000.00 0000000000000.00 0000000000000.00 0000000000000.00 0000000000000.00                                                                                                                                                                                                                                                                                                                                                          
11614430070830019DT67590675900000138461890021890000033089002176759005003900017780677010220250000000695000325000000000060493512174XXXXXX0601                         NY42 0 N               N840000000006950      PL  05DNVERIFYVEND855-5539974    714933    DB84000000006950 N  654078351959                            000000000+                     09635                                1          PU1   0000000000000.00 0000000.00   0000000.00                             000000000000000                                                                                                                                                     01418  000000000000 0000000000000.25     00050 00000                  
11614440070830001G2675906759000001384618900218900000330PROVIDENCE               RI           5 D                00                                      NNNN                          000000000000                                                                   78351959 0000000000000.00 0000000000000.00 0000000000000.00 0000000000000.00 0000000000000.00                                                                                                                                                                                                                                                                                                                                                          
11614450070830020DT67590675900000138461890021890000033089002176759005003900017780685010220250000000641000325000000000060493535419XXXXXX3344                         NY 2 0 N               N840000000006410      ST  07DNVERIFYVEND855-5539974    52571J    DB84000000006410 N  654078351959                            000000000+                     09615                                1          TT1   0000000000000.00 0000000.00   0000000.00                             000000000000000                                                                                                                                                     01418  000000000000 0000000000000.26     00050 00000                  
11614460070830001G2675906759000001384618900218900000330PROVIDENCE               RI           5 D                00                                      NNNN                          000000000000                                                                   78351959 0000000000000.00 0000000000000.00 0000000000000.00 0000000000000.00 0000000000000.00                                                                                                                                                                                                                                                                                                                                                          
11614470070830021DT67590675900000138461890021890000010189002177287285003900017780690010220250000000301800325000000000060493518952XXXXXX2595       MS02WI09          NY 1 0 AMDJSIG90C0102  N840000000003018          07DNVERIFYVEND855-5539974    085921    MD84000000003018 N  654078351959                            000000000+M10101M0034C F64MDJ  10815                     000000000  1                0000000000000.00 0000000.00   0000000.00                             000000000000000                                                                                                                                                   B101418  000000000000 0000000000000.24     00050 02200                  
11614480070830001G2675906759000001384618900218900000101PROVIDENCE               RI           5 J                                                        NNNN              0000000000000000000000002010001                 7                                          78351959 0000000000000.00 0000000000000.00 0000000000000.00 0000000000000.00 0000000000000.00                                                                                                                                                                                                                                                                                                                                                          
11614490070830022BH6759067590000013846189002189000090170103202500325000000000004555    0000090001214270N8900216759C01052025121                                                                                                                                                                                                                                                                                                                                                                                                                                                                                                                                                                                              
11614500070830023DT67590675900000138461890021890000010189002124001195003900012142704010320250000000455500325000000000004555429477XXXXXX1601       VS11    0001111   NYV1 A E465003485026494N840000000004555MP6800    05DNVERIFYVEND855-5539974    077811    VD84000000004555 N  654078351994                            000000000+             F64F DF 00381                     000000000  N000000000       0000000000000.00 0000000.00   0000000.00                             000000000000000                                                                                                                                                     01418 A000000000000 0000000000000.51     00800 01500                  
11614510070830001E167590675900000138461890021890000010100E0F8C80071 00000000000.00404040404040404040404040404040404040404040404040400601120360A000000000000000000000404040404040404040404040404040  0000084018008080048000250103056C6FC8BE1F056DD92BCFBF404040400840404040404040404040404040404040408CC50C040382000000000000000000004040404240404040 000000045.55 000000000.004200000000000000000000    80                                                                                                                                                                                                                                                                                                                  
11614520070830002G2675906759000001384618900218900000101PROVIDENCE               RI           5 D                00                                      NNNN00 N 00                   000000000000                                                                   78351994 0000000000000.00 0000000000000.00 0000000000000.00 0000000000000.00 0000000000000.00                                                                                                                                                                                                                                                                                                                                                          
11614530070830024BH6759067590000013846189002189000090170103202500325000000000049775    0000090001937838N8900216759C01052025193                                                                                                                                                                                                                                                                                                                                                                                                                                                                                                                                                                                              
11614540070830025DT67590675900000138461890021890000010189002177287285003900019378337010220250000000329500325000000000049775514968XXXXXX8162       MS02WI09          NY 1 0 AMDJAW22V10102  N840000000003295          05DNVERIFYVEND855-5539974    982388    MD84000000003295 N  654078135370                            000000000+M10101C5434C F64MDJ  00402                     000000000  N                0000000000000.00 0000000.00   0000000.00                             000000000000000                                                                                                                                                   B101418  000000000000 0000000000000.50     01050 01500                  
11614550070830001E167590675900000138461890021890000010100E0F8C80061 00000000000.0040404040404040404040404040404040404040404040404040011060700122000026D500000000000000FF00000000000000000000000000  0001084039000080008000250102B6ADD88204ADD34B66BC2B4B404040400840A00000000410100000000000000000000B044DE658FB7669031A0000000000004040401E40404040 000000032.95 000000000.001E03000000000000000000    80                                                                                                                                                                                                                                                                                                                  
11614560070830002G2675906759000001384618900218900000101PROVIDENCE               RI           5 J                                                        NNNN              0000000000000000000000002010001                 7                                          78135370 0000000000000.00 0000000000000.00 0000000000000.00 0000000000000.00 0000000000000.00                                                                                                                                                                                                                                                                                                                                                          
11614570070830026DT67590675900000138461890021890000033089002176759005003900019378348010220250000002165000325000000000049775529099XXXXXX9058                         NY42 0 N               N840000000021650      ME  07DNVERIFYVEND855-5539974    061319    DB84000000021650 N  654078135370                            000000000+                     09601                                1          MA1   0000000000000.00 0000000.00   0000000.00                             000000000000000                                                                                                                                                     01418  000000000000 0000000000000.33     00050 00000                  
11614580070830001G2675906759000001384618900218900000330PROVIDENCE               RI           5                  00                                      NNNN                          000000000000                                                                   78135370 0000000000000.00 0000000000000.00 0000000000000.00 0000000000000.00 0000000000000.00                                                                                                                                                                                                                                                                                                                                                          
11614590070830027DT67590675900000138461890021890000010189002124001195003900019378350010220250000000436000325000000000049775402018XXXXXX4720       VS11    0001111   NYV1 A E585003056230580N840000000004360J7D900    05DNVERIFYVEND855-5539974    173344    VD84000000004360 N  654078135370                            000000000+             F64F PF 08170                     000000000  N000000000       0000000000000.00 0000000.00   0000000.00                             000000000000000                                                                                                                                                     01418 A000000000000 0000000000000.65     01150 01500                  
11614600070830001E167590675900000138461890021890000010100E0F8C800AB 00000000000.004040404040404040404040404040404040404040404040404006011203600000000000000000000000404040404040404040404040404040  000008401800808004800025010232EA5D06392F388F4A6861BC40404040084040404040404040404040404040404040404040404040404040404040404040404040404240404040 000000043.60 000000000.004200000000000000000000    80                                                                                                                                                                                                                                                                                                                  
11614610070830002G2675906759000001384618900218900000101PROVIDENCE               RI           5 P                00                                      NNNN00 N 00                   000000000000                                                                   78135370 0000000000000.00 0000000000000.00 0000000000000.00 0000000000000.00 0000000000000.00                                                                                                                                                                                                                                                                                                                                                          
11614620070830028DT67590675900000138461890021890000033089002176759005003900019378363010220250000001175000325000000000049775514968XXXXXX2066                         NY42 0 N               N840000000011750      ME  07DNVERIFYVEND855-5539974    988343    DB84000000011750 N  654078135370                            000000000+                     09597                                N                0000000000000.00 0000000.00   0000000.00                             000000000000000                                                                                                                                                     01418  000000000000 0000000000001.21     00900 00000                  
11614630070830001G2675906759000001384618900218900000330PROVIDENCE               RI           5 D                00                                      NNNN                          000000000000                                                                   78135370 0000000000000.00 0000000000000.00 0000000000000.00 0000000000000.00 0000000000000.00                                                                                                                                                                                                                                                                                                                                                          
11614640070830029DT67590675900000138461890021890000010189002124001195003900019378376010220250000000436000325000000000049775441707XXXXXX6788       VS11    0001111   NYV1 A E385003065154227N840000000004360JNWZ00    07DNVERIFYVEND855-5539974    968483    VD84000000004360 N  654078135370                            000000000+             F64F PF 08170                     000000000  N000000000       0000000000000.00 0000000.00   0000000.00                             000000000000000                                                                                                                                                     01418 A000000000000 0000000000000.65     01150 01500                  
11614650070830001G2675906759000001384618900218900000101PROVIDENCE               RI           5 P                00                                      NNNN00 N 00                   000000000000                                                                   78135370 0000000000000.00 0000000000000.00 0000000000000.00 0000000000000.00 0000000000000.00                                                                                                                                                                                                                                                                                                                                                          
11614660070830030DT67590675900000138461890021890000010189002124001195003900019378384010220250000000436000325000000000049775486924XXXXXX5720       VS11    0001111   NYV1 A E585003066054926N840000000004360C5RD00    07DNVERIFYVEND855-5539974    442810    VD84000000004360 N  654078135370                            000000000+             F64F PF 08170                     000000000  N000000000       0000000000000.00 0000000.00   0000000.00                             000000000000000                                                                                                                                                     01418 A000000000000 0000000000000.65     01150 01500                  
11614670070830001G2675906759000001384618900218900000101PROVIDENCE               RI           5 P                00                                      NNNN00 N 00                   000000000000                                                                   78135370 0000000000000.00 0000000000000.00 0000000000000.00 0000000000000.00 0000000000000.00                                                                                                                                                                                                                                                                                                                                                          
11614680070830031BH6759067590000013846189002189000090170103202500325000000000015115    0000090001175349N8900216759C01052025917                                                                                                                                                                                                                                                                                                                                                                                                                                                                                                                                                                                              
11614690070830032DT67590675900000138461890021890000010189002124001195003900011753469010320250000000100900325000000000015115411771XXXXXX9112       VK04VS111111111   NYV1 A E305003509563920N840000000001009LS7G00    07DNVERIFYVEND855-5539974    190195    VD84000000001009 N  654078262187                            000000000+             F64F DF 10439                     000000000  Y000000000 331   0000000000000.00 0000000.00   0000000.00                             000000000000000                                                                                                                                                     01418 F000000000000 0000000000000.23     00050 02200                  
11614700070830001G2675906759000001384618900218900000101PROVIDENCE               RI           5 D                00                                      NNNN00 N 00                   000000000000                                                                   78262187 0000000000000.00 0000000000000.00 0000000000000.00 0000000000000.00 0000000000000.00                                                                                                                                                                                                                                                                                                                                                          
11614710070830033DT67590675900000138461890021890000010189002177287285003900011753479010320250000000259200325000000000015115514377XXXXXX8371       MS02WI09          NY 1 0 AMDJW4AS180103  N840000000002592          07DNVERIFYVEND855-5539974    2J20E3    MD84000000002592 N  654078262187                            000000000+M10101M0034C F64MDJ  00402                     000000000  N                0000000000000.00 0000000.00   0000000.00                             000000000000000                                                                                                                                                   B101418  000000000000 0000000000000.42     01050 01500                  
11614720070830001G2675906759000001384618900218900000101PROVIDENCE               RI           5 J                                                        NNNN              0000000000000000000000002010001                 7                                          78262187 0000000000000.00 0000000000000.00 0000000000000.00 0000000000000.00 0000000000000.00                                                                                                                                                                                                                                                                                                                                                          
11614730070830034DT67590675900000138461890021890000010189002124001195003900011753485010320250000000259200325000000000015115487917XXXXXX4686       VS11    0001111   NYV1 A E465003516951226N840000000002592GTG200    07DNVERIFYVEND855-5539974    673695    VD84000000002592 N  654078262187                            000000000+             F64F DF 00381                     000000000  N000000000       0000000000000.00 0000000.00   0000000.00                             000000000000000                                                                                                                                                     01418 A000000000000 0000000000000.36     00800 01500                  
11614740070830001G2675906759000001384618900218900000101PROVIDENCE               RI           5 D                00                                      NNNN00 N 00                   000000000000                                                                   78262187 0000000000000.00 0000000000000.00 0000000000000.00 0000000000000.00 0000000000000.00                                                                                                                                                                                                                                                                                                                                                          
11614750070830035DT67590675900000138461890021890000010189002124001195003900011753493010320250000000892200325000000000015115490070XXXXXX5523       VS11    0001111   NYV1 A E385003524322161N840000000008922X78N00    07DNVERIFYVEND855-5539974    023309    VD84000000008922 N  654078262187                            000000000+             F64F DF 10433                     000000000  Y000000000 338   0000000000000.00 0000000.00   0000000.00                             000000000000000                                                                                                                                                     01418 A000000000000 0000000000000.26     00050 02200                  
11614760070830001G2675906759000001384618900218900000101PROVIDENCE               RI           5 D                00                                      NNNN00 N 00                   000000000000                                                                   78262187 0000000000000.00 0000000000000.00 0000000000000.00 0000000000000.00 0000000000000.00                                                                                                                                                                                                                                                                                                                                                          
11614770070830036BH6759067590000013846189002189000090170103202500325000000000001521    0000090001773164N8900216759C01052025677                                                                                                                                                                                                                                                                                                                                                                                                                                                                                                                                                                                              
11614780070830037DT67590675900000138461890021890000010189002177287285003900017731636010320250000000102100325000000000001521542418XXXXXX1739       MS02WI09          NY 1 0 AMPLTQYI1N0103  N840000000001021          07DNVERIFYVEND855-5539974    96536B    MC84000000001021 N  654078909790                            000000000+M10101M0034C F64MPL  00353                     000000000  N                0000000000000.00 0000000.00   0000000.00                             000000000000000                                                                                                                                                   B101418  000000000000 0000000000000.28     01800 01000                  
11614790070830001G2675906759000001384618900218900000101PROVIDENCE               RI           5 L                                                        NNNN              0000000000000000000000002010001                 7                                          78909790 0000000000000.00 0000000000000.00 0000000000000.00 0000000000000.00 0000000000000.00                                                                                                                                                                                                                                                                                                                                                          
11614800070830038DT67590675900000138461890021890000010189002177287285003900017731644010320250000000050000325000000000001521518046XXXXXX1750       MS02WI09          NY 1 0 AMPMXF8Z0V0103  N840000000000500          07DNVERIFYVEND855-5539974    022041    MD84000000000500 N  654078909790                            000000000+M10101M0034C F64MPM  11964                     000000000  N                0000000000000.00 0000000.00   0000000.00                             000000000000000                                                                                                                                                   A101418  000000000000 0000000000000.21     01150 01500                  
11614810070830001G2675906759000001384618900218900000101PROVIDENCE               RI           5 M                                                        NNNN              0000000000000000000000002010001                 C                                          78909790 0000000000000.00 0000000000000.00 0000000000000.00 0000000000000.00 0000000000000.00                                                                                                                                                                                                                                                                                                                                                          
11614820070830039BH6759067590000013846189002189000090170103202500325000000000012150    0000090001312314N8900216759C01052025531                                                                                                                                                                                                                                                                                                                                                                                                                                                                                                                                                                                              
11614830070830040DT67590675900000138461890021890000010189002124001195003900013123141010320250000001215000325000000000012150463405XXXXXX5213       VS11    0001111   NYV1 A E305003509935808N8400000000121507Q2Q00    07DNVERIFYVEND855-5539974    039056    VD84000000012150 N  654078910506                            000000000+             F64F DF 10433                     000000000  Y000000000 338   0000000000000.00 0000000.00   0000000.00                             000000000000000                                                                                                                                                     01418 A000000000000 0000000000000.28     00050 02200                  
11614840070830001G2675906759000001384618900218900000101PROVIDENCE               RI           5 D                00                                      NNNN00 N 00                   000000000000                                                                   78910506 0000000000000.00 0000000000000.00 0000000000000.00 0000000000000.00 0000000000000.00                                                                                                                                                                                                                                                                                                                                                          
11614850070830041BH6759067590000013846189002189000090170103202500325000000000006726    0000090001098304N8900216759C01052025109                                                                                                                                                                                                                                                                                                                                                                                                                                                                                                                                                                                              
11614860070830042DT67590675900000138461890021890000010189002124001195003900010983042010320250000000672600325000000000006726414709XXXXXX6901       VS11    0001111   NYV1 A E465003513428388N840000000006726TMJM00    05DNVERIFYVEND855-5539974    06292D    VS84000000006726 N  654078910292                            000000000+             F64D CD 12113                     000000000  N000000000 499   0000000000000.00 0000000.00   0000000.00                             000000000000000                                                                                                                                                     01418 A000000000000 0000000000001.51     02100 01000                  
11614870070830001E167590675900000138461890021890000010100E0F8C80309 00000000000.00404040404040404040404040404040404040404040404040400601120360A002000000000000000000404040404040404040404040404040  00020840380000800080002501031DA574075C25A200FB468D2C40404040084040404040404040404040404040404040ACB4325D0082000000000000000000004040405E40404040 000000067.26 000000000.005E00000000000000000000    80                                                                                                                                                                                                                                                                                                                  
11614880070830002G2675906759000001384618900218900000101PROVIDENCE               RI           5 C                00                                      NNNN00 Y 00                   000000000000                                                                   78910292 0000000000000.00 0000000000000.00 0000000000000.00 0000000000000.00 0000000000000.00                                                                                                                                                                                                                                                                                                                                                          
11614890070830043BH6759067590000013846189002189000090170103202500325000000000003679    0000090001662331N8900216759C01052025466                                                                                                                                                                                                                                                                                                                                                                                                                                                                                                                                                                                              
11614900070830044DT67590675900000138461890021890000010189002124001195003900016623311010320250000000367900325000000000003679423223XXXXXX6072       VS11    0001111   NYV1 A E465003509935055N8400000000036793KDF00    07DNVERIFYVEND855-5539974    087276    VD84000000003679 N  654078910519                            000000000+             F64F DF 00381                     000000000  N000000000       0000000000000.00 0000000.00   0000000.00                             000000000000000                                                                                                                                                     01418 A000000000000 0000000000000.44     00800 01500                  
11614910070830001G2675906759000001384618900218900000101PROVIDENCE               RI           5 D                00                                      NNNN00 N 00                   000000000000                                                                   78910519 0000000000000.00 0000000000000.00 0000000000000.00 0000000000000.00 0000000000000.00                                                                                                                                                                                                                                                                                                                                                          
11614920070830045BH6759067590000013846189002189000090170103202500325000000000006135    0000090001128453N8900216759C01052025112                                                                                                                                                                                                                                                                                                                                                                                                                                                                                                                                                                                              
11614930070830046DT67590675900000138461890021890000010189002124001195003900011284523010320250000000164400325000000000006135400022XXXXXX3078       VS11    0001111   NYV1 A E385003507738436N840000000001644V6NV00    07DNVERIFYVEND855-5539974    730622    VD84000000001644 N  654078262337                            000000000+             F64F DF 10433                     000000000  Y000000000 338   0000000000000.00 0000000.00   0000000.00                             000000000000000                                                                                                                                                     01418 A000000000000 0000000000000.23     00050 02200                  
11614940070830001G2675906759000001384618900218900000101PROVIDENCE               RI           5 D                00                                      NNNN00 N 00                   000000000000                                                                   78262337 0000000000000.00 0000000000000.00 0000000000000.00 0000000000000.00 0000000000000.00                                                                                                                                                                                                                                                                                                                                                          
11614950070830047DT67590675900000138461890021890000010189002124001195003900011284531010320250000000449100325000000000006135411771XXXXXX4445       VS11    0001111   NYV1 A E585003519674210N840000000004491TWKD00    07DNVERIFYVEND855-5539974    192166    VD84000000004491 N  654078262337                            000000000+             F64F DF 10433                     000000000  Y000000000 338   0000000000000.00 0000000.00   0000000.00                             000000000000000                                                                                                                                                     01418 A000000000000 0000000000000.24     00050 02200                  
11614960070830001G2675906759000001384618900218900000101PROVIDENCE               RI           5 D                00                                      NNNN00 N 00                   000000000000                                                                   78262337 0000000000000.00 0000000000000.00 0000000000000.00 0000000000000.00 0000000000000.00                                                                                                                                                                                                                                                                                                                                                          
11614970070830048BH6759067590000013846189002189000090170103202500325000000000057280    0000090001553460N8900216759C01052025655                                                                                                                                                                                                                                                                                                                                                                                                                                                                                                                                                                                              
11614980070830049DT67590675900000138461890021890000010189002124001195003900015534584010320250000000763000325000000000057280411770XXXXXX4576       VS11    0001111   NYV1 A E465003506148365N8400000000076305LD700    07DNVERIFYVEND855-5539974    110034    VD84000000007630 N  654078910416                            000000000+             F64F DF 10433                     000000000  Y000000000 338   0000000000000.00 0000000.00   0000000.00                             000000000000000                                                                                                                                                     01418 A000000000000 0000000000000.26     00050 02200                  
11614990070830001G2675906759000001384618900218900000101PROVIDENCE               RI           5 D                00                                      NNNN00 N 00                   000000000000                                                                   78910416 0000000000000.00 0000000000000.00 0000000000000.00 0000000000000.00 0000000000000.00                                                                                                                                                                                                                                                                                                                                                          
11615000070830050DT67590675900000138461890021890000010189002124001195003900015534592010320250000003815000325000000000057280474477XXXXXX9624       VS11    0001111   NYV1 A E465003515343894N840000000038150DTPV00    07DNVERIFYVEND855-5539974    181386    VD84000000038150 N  654078910416                            000000000+             F64F DF 10433                     000000000  Y000000000 338   0000000000000.00 0000000.00   0000000.00                             000000000000000                                                                                                                                                     01418 A000000000000 0000000000000.41     00050 02200                  
11615010070830001G2675906759000001384618900218900000101PROVIDENCE               RI           5 D                00                                      NNNN00 N 00                   000000000000                                                                   78910416 0000000000000.00 0000000000000.00 0000000000000.00 0000000000000.00 0000000000000.00                                                                                                                                                                                                                                                                                                                                                          
11615020070830051DT67590675900000138461890021890000010189002124001195003900015534600010320250000001150000325000000000057280474478XXXXXX7540       VS11    0001111   NYV1 A E385003520805670N840000000011500LCLH00    07DNVERIFYVEND855-5539974    122282    VD84000000011500 N  654078910416                            000000000+             F64F DF 10433                     000000000  Y000000000 338   0000000000000.00 0000000.00   0000000.00                             000000000000000                                                                                                                                                     01418 A000000000000 0000000000000.28     00050 02200                  
11615030070830001G2675906759000001384618900218900000101PROVIDENCE               RI           5 D                00                                      NNNN00 N 00                   000000000000                                                                   78910416 0000000000000.00 0000000000000.00 0000000000000.00 0000000000000.00 0000000000000.00                                                                                                                                                                                                                                                                                                                                                          
11615040070830052BH6759067590000013846189002189000090170103202500325000000000027687    0000090001976531N8900216759C01052025397                                                                                                                                                                                                                                                                                                                                                                                                                                                                                                                                                                                              
11615050070830053DT67590675900000138461890021890000033089002176759005003900019765288010320250000000635000325000000000027687551880XXXXXX5641                         NY42 0 N               N840000000006350      ME  05DNVERIFYVEND855-5539974    689766    DB84000000006350 N  654078352358                            000000000+                     09597                                N                0000000000000.00 0000000.00   0000000.00                             000000000000000                                                                                                                                                     01418  000000000000 0000000000000.72     00900 00000                  
11615060070830001G2675906759000001384618900218900000330PROVIDENCE               RI           5 D                00                                      NNNN                          000000000000                                                                   78352358 0000000000000.00 0000000000000.00 0000000000000.00 0000000000000.00 0000000000000.00                                                                                                                                                                                                                                                                                                                                                          
11615070070830054DT67590675900000138461890021890000033089002176759005003900019765296010320250000000479000325000000000027687514759XXXXXX7564                         NY 2 0 N               N840000000004790      IL  07DNVERIFYVEND855-5539974    074512    DB84000000004790 N  654078352358                            000000000+                     09580                                1          342   0000000000000.00 0000000.00   0000000.00                             000000000000000                                                                                                                                                     01418  000000000000 0000000000000.24     00050 00000                  
11615080070830001G2675906759000001384618900218900000330PROVIDENCE               RI           5                  00                                      NNNN                          000000000000                                                                   78352358 0000000000000.00 0000000000000.00 0000000000000.00 0000000000000.00 0000000000000.00                                                                                                                                                                                                                                                                                                                                                          
11615090070830055DT67590675900000138461890021890000033089002176759005003900019765304010320250000000875700325000000000027687551174XXXXXX8125                         NY42 0 N               N840000000008757      XL  07DNVERIFYVEND855-5539974    307473    DB84000000008757 N  654078352358                            000000000+                     11597                                N          A2H   0000000000000.00 0000000.00   0000000.00                             000000000000000                                                                                                                                                     01418  000000000000 0000000000001.09     00900 00000                  
11615100070830001G2675906759000001384618900218900000330PROVIDENCE               RI           5 D                00                                      NNNN                          000000000000                                                                   78352358 0000000000000.00 0000000000000.00 0000000000000.00 0000000000000.00 0000000000000.00                                                                                                                                                                                                                                                                                                                                                          
11615110070830056DT67590675900000138461890021890000033089002176759005003900019765312010320250000000779000325000000000027687524267XXXXXX0174                         NY42 0 N               N840000000007790      XL  05DNVERIFYVEND855-5539974    307925    DB84000000007790 N  654078352358                            000000000+                     11609                                N          A2C   0000000000000.00 0000000.00   0000000.00                             000000000000000                                                                                                                                                     01418  000000000000 0000000000001.00     00900 00000                  
11615120070830001G2675906759000001384618900218900000330PROVIDENCE               RI           5                  00                                      NNNN                          000000000000                                                                   78352358 0000000000000.00 0000000000000.00 0000000000000.00 0000000000000.00 0000000000000.00                                                                                                                                                                                                                                                                                                                                                          
11615130070830057BH6759067590000013846189002189000090170103202500325000000000023850    0000090001895918N8900216759C01052025289                                                                                                                                                                                                                                                                                                                                                                                                                                                                                                                                                                                              
11615140070830058DT67590675900000138461890021890000033089002176759005003900018959155010320250000000395000325000000000023850512829XXXXXX4042                         NY42 0 N               N840000000003950      ME  05DNVERIFYVEND855-5539974    003909    DB84000000003950 N  654078352184                            000000000+                     09597                                N                0000000000000.00 0000000.00   0000000.00                             000000000000000                                                                                                                                                     01418  000000000000 0000000000000.51     00900 00000                  
11615150070830001G2675906759000001384618900218900000330PROVIDENCE               RI           5 D                00                                      NNNN                          000000000000                                                                   78352184 0000000000000.00 0000000000000.00 0000000000000.00 0000000000000.00 0000000000000.00                                                                                                                                                                                                                                                                                                                                                          
11615160070830059DT67590675900000138461890021890000033089002176759005003900018959163010320250000000635000325000000000023850425131XXXXXX8584                         NY42 0 N               N840000000006350      ST  07DNVERIFYVEND855-5539974    003751    DB84000000006350 N  654078352184                            000000000+                     09602                                N          ST0   0000000000000.00 0000000.00   0000000.00                             000000000000000                                                                                                                                                     01418  000000000000 0000000000000.87     00900 00000                  
11615170070830001G2675906759000001384618900218900000330PROVIDENCE               RI           5 D                00                                      NNNN                          000000000000                                                                   78352184 0000000000000.00 0000000000000.00 0000000000000.00 0000000000000.00 0000000000000.00                                                                                                                                                                                                                                                                                                                                                          
11615180070830060DT67590675900000138461890021890000033089002176759005003900018959189010320250000001355000325000000000023850551174XXXXXX9993                         NY42 0 N               N840000000013550      XL  05DNVERIFYVEND855-5539974    381375    DB84000000013550 N  654078352184                            000000000+                     11597                                N          A2H   0000000000000.00 0000000.00   0000000.00                             000000000000000                                                                                                                                                     01418  000000000000 0000000000001.52     00900 00000                  
11615190070830001G2675906759000001384618900218900000330PROVIDENCE               RI           5 D                00                                      NNNN                          000000000000                                                                   78352184 0000000000000.00 0000000000000.00 0000000000000.00 0000000000000.00 0000000000000.00                                                                                                                                                                                                                                                                                                                                                          
11615200070830061BH6759067590000013846189002189000090170103202500325000000000013600    0000090001453581N8900216759C01052025945                                                                                                                                                                                                                                                                                                                                                                                                                                                                                                                                                                                              
11615210070830062DT67590675900000138461890021890000033089002176759005003900014535801010320250000000845000325000000000013600420612XXXXXX3254                         NY 2 0 N               N840000000008450      PL  07DNVERIFYVEND855-5539974    154800    DB84000000008450 N  654078325946                            000000000+                     09635                                Y          PU1   0000000000000.00 0000000.00   0000000.00                             000000000000000                                                                                                                                                     01418  000000000000 0000000000000.26     00050 00000                  
11615220070830001G2675906759000001384618900218900000330PROVIDENCE               RI           5 D                00                                      NNNN                          000000000000                                                                   78325946 0000000000000.00 0000000000000.00 0000000000000.00 0000000000000.00 0000000000000.00                                                                                                                                                                                                                                                                                                                                                          
11615230070830063DT67590675900000138461890021890000033089002176759005003900014535819010320250000000515000325000000000013600512174XXXXXX5942                         NY42 0 N               N840000000005150      PL  07DNVERIFYVEND855-5539974    755600    DB84000000005150 N  654078325946                            000000000+                     09635                                1          PU1   0000000000000.00 0000000.00   0000000.00                             000000000000000                                                                                                                                                     01418  000000000000 0000000000000.25     00050 00000                  
11615240070830001G2675906759000001384618900218900000330PROVIDENCE               RI           5 D                00                                      NNNN                          000000000000                                                                   78325946 0000000000000.00 0000000000000.00 0000000000000.00 0000000000000.00 0000000000000.00                                                                                                                                                                                                                                                                                                                                                          
11615250070830064BH6759067590000013846189002189000090170103202500325000000000011199    0000090001371866N8900216759C01052025237                                                                                                                                                                                                                                                                                                                                                                                                                                                                                                                                                                                              
11615260070830065DT67590675900000138461890021890000010189002177287285003900013718645010320250000000798500325000000000011199546421XXXXXX5039       MS02WI09          NY 1 0 AMDJMYTH0V0103  N840000000007985          05DNVERIFYVEND855-5539974    172705    MD84000000007985 N  654079007271                            000000000+M10101C5434C F64MDJ  00402                     000000000  N                0000000000000.00 0000000.00   0000000.00                             000000000000000                                                                                                                                                   B101418  000000000000 0000000000000.99     01050 01500                  
11615270070830001E167590675900000138461890021890000010100E0F8C801F1 00000000000.00404040404040404040404040404040404040404040404040400110601001220000000000000000000000FF00000000000000000000000000  000008401800808004800025010318F306A9EF307A994B16D81D404040400840A00000000410100000000000000000004C67C6BCE21B033300100000000000004040404240404040 000000079.85 000000000.004203000000000000000000    80                                                                                                                                                                                                                                                                                                                  
11615280070830002G2675906759000001384618900218900000101PROVIDENCE               RI           5 J                                                        NNNN              0000000000000000000000002010001                 7                                          79007271 0000000000000.00 0000000000000.00 0000000000000.00 0000000000000.00 0000000000000.00                                                                                                                                                                                                                                                                                                                                                          
11615290070830066DT67590675900000138461890021890000010189002124001195003900013718650010320250000000100900325000000000011199434236XXXXXX1711       VK04VS111111111   NYV1 A E585003519165415N8400000000010097ZPL00    07DNVERIFYVEND855-5539974    075249    VD84000000001009 N  654079007271                            000000000+             F64F DF 00451                     000000000  N000000000 214   0000000000000.00 0000000.00   0000000.00                             000000000000000                                                                                                                                                     01418 F000000000000 0000000000000.20     01550 00400                  
11615300070830001G2675906759000001384618900218900000101PROVIDENCE               RI           5 D                00                                      NNNN00 N 00                   000000000000                                                                   79007271 0000000000000.00 0000000000000.00 0000000000000.00 0000000000000.00 0000000000000.00                                                                                                                                                                                                                                                                                                                                                          
11615310070830067DT67590675900000138461890021890000010189002124001195003900013718668010320250000000220500325000000000011199430637XXXXXX0200       VS11    0001111   NYV1 A E385003520944523N840000000002205F2QQ00    07DNVERIFYVEND855-5539974    801174    VD84000000002205 N  654079007271                            000000000+             F64F DF 00381                     000000000  N000000000       0000000000000.00 0000000.00   0000000.00                             000000000000000                                                                                                                                                     01418 A000000000000 0000000000000.33     00800 01500                  
11615320070830001G2675906759000001384618900218900000101PROVIDENCE               RI           5 D                00                                      NNNN00 N 00                   000000000000                                                                   79007271 0000000000000.00 0000000000000.00 0000000000000.00 0000000000000.00 0000000000000.00                                                                                                                                                                                                                                                                                                                                                          
11615330070830068BH6759067590000013846189002189000090170103202500325000000000005551    0000090001071055N8900216759C01052025207                                                                                                                                                                                                                                                                                                                                                                                                                                                                                                                                                                                              
11615340070830069DT67590675900000138461890021890000033089002176759005003900010710556010320250000000555100325000000000005551442939XXXXXX4282                         NY42 0 N               N840000000005551      ST  05DNVERIFYVEND855-5539974    929702    DB84000000005551 N  654079007132                            000000000+                     09608                                N          STH   0000000000000.00 0000000.00   0000000.00                             000000000000000                                                                                                                                                     01418  000000000000 0000000000000.80     00900 00000                  
11615350070830001G2675906759000001384618900218900000330PROVIDENCE               RI           5 D                00                                      NNNN                          000000000000                                                                   79007132 0000000000000.00 0000000000000.00 0000000000000.00 0000000000000.00 0000000000000.00                                                                                                                                                                                                                                                                                                                                                          
11615360070830070BH6759067590000013846189002189000090170103202500325000000000001875    0000090001432689N8900216759C01052025543                                                                                                                                                                                                                                                                                                                                                                                                                                                                                                                                                                                              
11615370070830071DT67590675900000138461890021890000010189002124001195003900014326891010320250000000187500325000000000001875409311XXXXXX5145       VS11    0001111   NYV1 A E585003520958969N840000000001875PDQQ00    07DNVERIFYVEND855-5539974    011719    VD84000000001875 N  654078910678                            000000000+             F64F DF 10433                     000000000  Y000000000 338   0000000000000.00 0000000.00   0000000.00                             000000000000000                                                                                                                                                     01418 A000000000000 0000000000000.23     00050 02200                  
11615380070830001G2675906759000001384618900218900000101PROVIDENCE               RI           5 D                00                                      NNNN00 N 00                   000000000000                                                                   78910678 0000000000000.00 0000000000000.00 0000000000000.00 0000000000000.00 0000000000000.00                                                                                                                                                                                                                                                                                                                                                          
11615390070830072BH6759067590000013846189002189000090170103202500325000000000003124    0000090001130579N8900216759C01052025213                                                                                                                                                                                                                                                                                                                                                                                                                                                                                                                                                                                              
11615400070830073DT67590675900000138461890021890000010189002177287285003900011305791010320250000000312400325000000000003124511407XXXXXX6026       MS02WI09          NY 1 0 AMDJWW0C0V0103  N840000000003124          05DNVERIFYVEND855-5539974    678349    MD84000000003124 N  654078910006                            000000000+M10101C5434C F64MDJ  00402                     000000000  N                0000000000000.00 0000000.00   0000000.00                             000000000000000                                                                                                                                                   B101418  000000000000 0000000000000.48     01050 01500                  
11615410070830001E167590675900000138461890021890000010100E0F8C800A3 00000000000.00404040404040404040404040404040404040404040404040400110607001220000E5AA00000000000000FF00000000000000000000000000  0001084039000080008000250103CC603CAB64672A1F6125878B404040400840A000000004101000000000000000000095ACE21F9CC8121F00100000000000004040401E40404040 000000031.24 000000000.001E03000000000000000000    80                                                                                                                                                                                                                                                                                                                  
11615420070830002G2675906759000001384618900218900000101PROVIDENCE               RI           5 J                                                        NNNN              0000000000000000000000002010001                 7                                          78910006 0000000000000.00 0000000000000.00 0000000000000.00 0000000000000.00 0000000000000.00                                                                                                                                                                                                                                                                                                                                                          
11615430070830074BH6759067590000013846189002189000090170103202500325000000000014620    0000090001935530N8900216759C01052025093                                                                                                                                                                                                                                                                                                                                                                                                                                                                                                                                                                                              
11615440070830075DT67590675900000138461890021890000033089002176759005003900019355296010320250000001235000325000000000014620551095XXXXXX0200                         NY42 0 N               N840000000012350      ME  05DNVERIFYVEND855-5539974    951461    DB84000000012350 N  654078352548                            000000000+                     09597                                N                0000000000000.00 0000000.00   0000000.00                             000000000000000                                                                                                                                                     01418  000000000000 0000000000001.26     00900 00000                  
11615450070830001G2675906759000001384618900218900000330PROVIDENCE               RI           5 D                00                                      NNNN                          000000000000                                                                   78352548 0000000000000.00 0000000000000.00 0000000000000.00 0000000000000.00 0000000000000.00                                                                                                                                                                                                                                                                                                                                                          
11615460070830076DT67590675900000138461890021890000033089002176759005003900019355304010320250000000227000325000000000014620429449XXXXXX2195                         NY 2 0 N               N840000000002270      IL  05DNVERIFYVEND855-5539974    926378    DB84000000002270 N  654078352548                            000000000+                     09573                                N          121   0000000000000.00 0000000.00   0000000.00                             000000000000000                                                                                                                                                     01418  000000000000 0000000000000.33     00800 00000                  
11615470070830001G2675906759000001384618900218900000330PROVIDENCE               RI           5 D                00                                      NNNN                          000000000000                                                                   78352548 0000000000000.00 0000000000000.00 0000000000000.00 0000000000000.00 0000000000000.00                                                                                                                                                                                                                                                                                                                                                          
11615480070830077BH6759067590000013846189002189000090170103202500325000000000007832    0000090001003859N8900216759C01052025900                                                                                                                                                                                                                                                                                                                                                                                                                                                                                                                                                                                              
11615490070830078DT67590675900000138461890021890000033089002176759005003900010038594010320250000000783200325000000000007832415229XXXXXX6855                         NY42 0 N               N840000000007832      ST  07DNVERIFYVEND855-5539974    301854    DB84000000007832 N  654078525000                            000000000+                     09615                                Y          ST1   0000000000000.00 0000000.00   0000000.00                             000000000000000                                                                                                                                                     01418  000000000000 0000000000000.27     00050 00000                  
11615500070830001G2675906759000001384618900218900000330PROVIDENCE               RI           5 D                00                                      NNNN                          000000000000                                                                   78525000 0000000000000.00 0000000000000.00 0000000000000.00 0000000000000.00 0000000000000.00                                                                                                                                                                                                                                                                                                                                                          
11615510070830079BH6759067590000013846189002189000090170103202500325000000000008962    0000090001737773N8900216759C01052025373                                                                                                                                                                                                                                                                                                                                                                                                                                                                                                                                                                                              
