00015250391450002BH6759067590000001516480088880000090170717202319823000000000046808    0000090001399099Y8008886759C07182023139                                                                                                                                                                                                                                                                                                                                                                                                                                                                                                                                                                                              
00015260391450003DT67590675900000015164800888800000010180088824001193198900013990978071620230000001194819823000000000046808438482XXXXXX4232               2111111   NYV4 A7W583194688418333N840000000011948HGBD00    01DNKETOFUSION833-923-3587   004800    VD84000000011948 NDR599977360677   06B023C9EETC3C801D661EE  000000000+                F DF 00415                     000000000  N000000000       0000000000000.00 0000000.00   0000000.00                             000000000000000                                                                                                                                                     01424 G000000011948 0000000000002.12     01650 01500                  
00015270391450003DR67590675900000015164800888800000010106B023C9EETC3C801D661EE  Y000000011948                 P1                                                                                                                                                                                                                                                                                                                                                                                                                                                                                                                                                                                                            
00015280391450001P16759067590000001516480088880000001010000000000000000                             2000000000000000000000000              000000000000                    0000000000000000000000000                    000000000000                                                                                                                                                                                                                                                                                                                                                                                                                                                                                        
00015290391450002G2675906759000000151648008888000000101801-4041097              UT           9 D                00                                      NNNN   N                      000000000000                                                                   77360677                                                                                                                                                                                                                                                                                                                                                                                                                                               
00015300391450004DT67590675900000015164800888800000010180088824001193198900013990986071620230000001987019823000000000046808443044XXXXXX8237               2111111   NYV4 A7W463194724377835N840000000019870VSDS00    01DNKETOFUSION833-923-3587   419852    VD84000000019870 NDR599977360677   9DE8F7F441T6FB3B0562498  000000000+                F DF 10420                     000000000  Y000000000 338   0000000000000.00 0000000.00   0000000.00                             000000000000000                                                                                                                                                     01424 G000000019870 0000000000000.32     00050 02200                  
00015310391450004DR6759067590000001516480088880000001019DE8F7F441T6FB3B0562498  Y000000019870                 P1                                                                                                                                                                                                                                                                                                                                                                                                                                                                                                                                                                                                            
00015320391450001P16759067590000001516480088880000001010000000000000000                             2000000000000000000000000              000000000000                    0000000000000000000000000                    000000000000                                                                                                                                                                                                                                                                                                                                                                                                                                                                                        
00015330391450002G2675906759000000151648008888000000101801-4041097              UT           9 D                00                                      NNNN   N                      000000000000                                                                   77360677                                                                                                                                                                                                                                                                                                                                                                                                                                               
00015340391450005DT67590675900000015164800888800000010180088824001193198900013990994071620230000001499019823000000000046808427082XXXXXX9326               2111111   NYV4 A7W463194724418656N8400000000149906S6G00    01DNKETOFUSION833-923-3587   013788    VS84000000014990 NDR599977360677   17D7AB8E3AT5A95231EE675  000000000+                D CD 12109                     000000000  N000000000 498   0000000000000.00 0000000.00   0000000.00                             000000000000000                                                                                                                                                     01424 G000000014990 0000000000003.85     02500 01000                  
00015350391450005DR67590675900000015164800888800000010117D7AB8E3AT5A95231EE675  Y000000014990                 P1                                                                                                                                                                                                                                                                                                                                                                                                                                                                                                                                                                                                            
00015360391450001P16759067590000001516480088880000001010000000000000000                             2000000000000000000000000              000000000000                    0000000000000000000000000                    000000000000                                                                                                                                                                                                                                                                                                                                                                                                                                                                                        
00015370391450002G2675906759000000151648008888000000101801-4041097              UT           9 C                00                                      NNNN   Y                      000000000000                                                                   77360677                                                                                                                                                                                                                                                                                                                                                                                                                                               
00015380391450006BH675906759000000133008001028000009017071720231982300000000007274401970000090001501192N8001026759D07182023150                                                                                                                                                                                                                                                                                                                                                                                                                                                                                                                                                                                              
00015390391450007DT67590675900000013300800102800000010680010274001193198900015011885071720230000002693419823000000000072744414720XXXXXX2748               0000000   NNV4 07T583198240677828N840000000026934F7QS00    01CNCBD8666317293            03224D0197VS84000000026934 NDR549977133133   CD8D4DF566T43BD14D11260  000000000+                D CD 00000                     000000000  N000000000 166   0000000000000.00 0000000.00   0000000.00             000000000026934C000000000000000                                                                                                                                                     01424  000000026934 0000000000000.00     00000 00000                  
00015400391450007DR675906759000000133008001028000000106CD8D4DF566T43BD14D11260  Y000000026934                 P1                                                                                                                                                                                                                                                                                                                                                                                                                                                                                                                                                                                                            
00015410391450001P16759067590000001330080010280000001060000000000000000                             2000000000000000000000000              000000000000                    0000000000000000000000000                    000000000000                                                                                                                                                                                                                                                                                                                                                                                                                                                                                        
00015420391450002G2675906759000000133008001028000000106866-6317293              GA           9 C                00                                      NNNN   Y                      000000000000                                                                   77133133                                                                                                                                                                                                                                                                                                                                                                                                                                               
00015430391450008DT67590675900000013300800102800000010680010287287283198900015011899071720230000001580819823000000000072744521333XXXXXX0551                         NN 4607AMPLYIDGBU0717  N840000000015808          81CNCBD8666317293            0179390197MC84000000015808 NDR549977133133   0094B8A3F5TD80266A69CA5  000000000+600450S00130    MPL  00000                     000000000  N                0000000000000.00 0000000.00   0000000.00             000000000015808C000000000000000                                                                                                                                                     01424  000000000000 0000000000000.00     00000 00000                  
00015440391450008DR6759067590000001330080010280000001060094B8A3F5TD80266A69CA5  R000000000000                                                                                                                                                                                                                                                                                                                                                                                                                                                                                                                                                                                                                               
00015450391450001G2675906759000000133008001028000000106866-6317293              GA           9 L               210                                      NNNN           210000000000000000000000000                        7                                          77133133                                                                                                                                                                                                                                                                                                                                                                                                                                               
00015460391450009DT67590675900000013300800102800000010680010287287283198900015011923071720230000003000219823000000000072744513503XXXXXX2300                         NN94607N         0717  N840000000000000          81CNCBD8666317293                  0197MD84000000030002 N  549977133133   0FBBC6262CTF881200E429A  000000000+600450S00130    MDJ  00000                     000000000  N                0000000000000.00 0000000.00   0000000.00             000000000030002C000000000000000                                                                                                                                                     01424  000000000000 0000000000000.00     00000 00000                  
00015470391450001G2675906759000000133008001028000000106866-6317293              GA           9 J               210                                      NNNN           210000000000000000000000000                        7                                          77133133                                                                                                                                                                                                                                                                                                                                                                                                                                               
00015480391450010BH675906759000000142748001028000009017071720231982300000000003662101970000090001509825N8001026759D07182023150                                                                                                                                                                                                                                                                                                                                                                                                                                                                                                                                                                                              
00015490391450011DT67590675900000014274800102800000010680010274001193198900015098247071720230000001555919823000000000036621425421XXXXXX1416               0000000   NNV4 07T463198648502848N840000000015559TQNP00    01CNCBD8666317293            0336870197VD84000000015559 NDR549977145232   5AC3C4A1ECT136AA331A7A5  000000000+                F DF 00000                     000000000  N000000000 369   0000000000000.00 0000000.00   0000000.00             000000000015559C000000000000000                                                                                                                                                     01424  000000015559 0000000000000.00     00000 00000                  
00015500391450011DR6759067590000001427480010280000001065AC3C4A1ECT136AA331A7A5  U000000015559                 P1                                                                                                                                                                                                                                                                                                                                                                                                                                                                                                                                                                                                            
00015510391450001P16759067590000001427480010280000001060000000000000000                             2000000000000000000000000              000000000000                    0000000000000000000000000                    000000000000                                                                                                                                                                                                                                                                                                                                                                                                                                                                                        
00015520391450002G2675906759000000142748001028000000106866-6317293              GA           9 D                00                                      NNNN   N                      000000000000                                                                   77145232                                                                                                                                                                                                                                                                                                                                                                                                                                               
00015530391450012DT67590675900000014274800102800000010680010274001193198900015098254071720230000002106219823000000000036621414720XXXXXX1741               0000000   NNV4 07T303198666128573N8400000000210626PLR00    01CNCBD8666317293            00390C0197VS84000000021062 NDR549977145232   69292C19F1T98D7750F1F33  000000000+                C CC 00000                     000000000  N000000000 166   0000000000000.00 0000000.00   0000000.00             000000000021062C000000000000000                                                                                                                                                     01424  000000021062 0000000000000.00     00000 00000                  
00015540391450012DR67590675900000014274800102800000010669292C19F1T98D7750F1F33  Y000000021062                 P1                                                                                                                                                                                                                                                                                                                                                                                                                                                                                                                                                                                                            
00015550391450001P16759067590000001427480010280000001060000000000000000                             2000000000000000000000000              000000000000                    0000000000000000000000000                    000000000000                                                                                                                                                                                                                                                                                                                                                                                                                                                                                        
00015560391450002G2675906759000000142748001028000000106866-6317293              GA           9 C                00                                      NNNN   Y                      000000000000                                                                   77145232                                                                                                                                                                                                                                                                                                                                                                                                                                               
00015570391450013BH6759067590000003469480014280000090170717202319823000000000313554    0000090001140031Y8001426759C07182023014                                                                                                                                                                                                                                                                                                                                                                                                                                                                                                                                                                                              
00015580391450014DT67590675900000034694800142800000010180014287287283198900011400302071720230000005033619823000000000313554546630XXXXXX5796       ME03KE06MS02      NY 4607AMWEG7ETWF0717  N840000000050336          81DNHORIZON WHOLESALE LLC    07477P    MC84000000050336 N  549978512084   8539817158               000000000+600450S00130    MWE  00737                     000000000  N                0000000000000.00 0000000.00   0000000.00                             000000000000000                                                                                                                                                   U001424  000000000000 0000000000013.19     02600 01000                  
00015590391450001G2675906759000000346948001428000000101801-5186233              UT           9 E               210                                      NNNN           210000000000000000000000000                        7                                          78512084                                                                                                                                                                                                                                                                                                                                                                                                                                               
00015600391450015DT67590675900000034694800142800000010180014224001193198900011400319071720230000026321819823000000000313554430926XXXXXX2296       PS01EF100000000   NYV4 07N303198765050098N840000000263218S38D00    01DNHORIZON WHOLESALE LLC    061505    VD84000000263218 N  549978512084                            000000000+                G DG 10354                     000000000  Y000000010 338   0000000000000.00 0000000.00   0000000.00                             000000000000000                                                                                                                                                     01424  000000000000 0000000000001.54     00050 02200                  
00015610391450001G2675906759000000346948001428000000101801-5186233              UT           9 D                00                                      NNNN00 N 00                   000000000000                                                                   78512084                                                                                                                                                                                                                                                                                                                                                                                                                                               
00015620391450016BH675906759000000198288001098000009017071720231982300000000003598201970000090001090809N8001096759D07182023109                                                                                                                                                                                                                                                                                                                                                                                                                                                                                                                                                                                              
00015630391450017DT67590675900000019828800109800000010680010987287283198900010908081071720230000001799119823000000000035982546616XXXXXX8564                         NN 4607AMCWW1M2BU0717  N840000000017991          81CNKETOFUSION 8885968154    0712640197MC84000000017991 NDR599977547467   867782C153T4944C2CC1913  000000000+600450S00130    MCW  00000                     000000000  N                0000000000000.00 0000000.00   0000000.00             000000000017991C000000000000000                                                                                                                                                     01424  000000000000 0000000000000.00     00000 00000                  
00015640391450017DR675906759000000198288001098000000106867782C153T4944C2CC1913  U000000000000                                                                                                                                                                                                                                                                                                                                                                                                                                                                                                                                                                                                                               
00015650391450001G2675906759000000198288001098000000106888-5968154              UT           9 W               210                                      NNNN           210000000000000000000000000                        7                                          77547467                                                                                                                                                                                                                                                                                                                                                                                                                                               
00015660391450018DT67590675900000019828800109800000010680010987287283198900010908099071720230000001799119823000000000035982546616XXXXXX8564                         NN 4607AMCWW2CUBU0717  N840000000017991          81CNKETOFUSION 8885968154    4920170197MC84000000017991 NDR599977547467   759A9C35E1TBE6014339412  000000000+600450S00130    MCW  00000                     000000000  N                0000000000000.00 0000000.00   0000000.00             000000000017991C000000000000000                                                                                                                                                     01424  000000000000 0000000000000.00     00000 00000                  
00015670391450018DR675906759000000198288001098000000106759A9C35E1TBE6014339412  U000000000000                                                                                                                                                                                                                                                                                                                                                                                                                                                                                                                                                                                                                               
00015680391450001G2675906759000000198288001098000000106888-5968154              UT           9 W               210                                      NNNN           210000000000000000000000000                        7                                          77547467                                                                                                                                                                                                                                                                                                                                                                                                                                               
00015690391450019BH6759067590000002604780012480000090170717202319823000000000000100    0000090001120001Y8001246759C07182023012                                                                                                                                                                                                                                                                                                                                                                                                                                                                                                                                                                                              
00015700391450020DT67590675900000026047800124800000010180012424001193198900011200016071720230000000010019823000000000000100404601XXXXXX3555       VK04VS111111111   NYV1 A E463198714701644N840000000000100N7GJ00    07DNHPPYC                    11094G    VB84000000000100 N  599978202355                            000000000+                G3CG308003                     000000000  N000000000 382   0000000000000.00 0000000.00   0000000.00                             000000000000000                                                                                                                                                     01424 F000000000000 0000000000000.12     02050 01000                  
00015710391450001E167590675900000026047800124800000010100E068C8001D 00000000000.004040404040404040404040404040404040404040404040404006011203A00000000000000000000000404040404040404040404040404040  000108402000000000000023071754AA6EE7342DE38582AC4B7D404040400840A000000003101000000000000000000031E91BE90392000000000000000000004040404040404040 000000001.00 000000000.004040400000000000000000    80                                                                                                                                                                                                                                                                                                                  
00015720391450002G2675906759000000260478001248000000101CHARLOTTE                NC           5 C                00                                      NNNN00 Y 00                   000000000000                                                                   78202355                                                                                                                                                                                                                                                                                                                                                                                                                                               
00015730391450021BH6759067590000000766680010180000090170717202319823000000000038967    0000090001200013Y8001016759C07182023120                                                                                                                                                                                                                                                                                                                                                                                                                                                                                                                                                                                              
00015740391450022DT67590675900000007666800101800000010180010124001193198900012000019071720230000000334619823000000000038967433477XXXXXX2250       VS11    0001111   NYV1 A E383198509596636N840000000003346GZ6300    05DNPLANET VAPOR INC #300    657947    VD84000000003346 N  599977384654                            000000000+                F DF 10433                     000000000  Y000000000 338   0000000000000.00 0000000.00   0000000.00                             000000000000000                                                                                                                                                     01424 A000000000000 0000000000000.24     00050 02200                  
00015750391450001E167590675900000007666800101800000010100E0F8C80418 00000000000.004040404040404040404040404040404040404040404040404006010A03A08000000000000000000000404040404040404040404040404040  000108401800808000800023071740B4D86ED85AD6D25E84E049404040400840A00000000310100000000000000000008DF32B0ACF3E02FF30300000000000004040401E40404040 000000033.46 000000000.001E00000000000000000000    80                                                                                                                                                                                                                                                                                                                  
00015760391450002G2675906759000000076668001018000000101COLUMBIA                 SC           5 D                00                                      NNNN00 N 00                   000000000000                                                                   77384654                                                                                                                                                                                                                                                                                                                                                                                                                                               
00015770391450023DT67590675900000007666800101800000010180010177287283198900012000029071720230000000323819823000000000038967528149XXXXXX5822       MS02WI09          NY 1 0 AMDJI6GISA0717  N840000000003238          05DNPLANET VAPOR INC #300    037017    MD84000000003238 N  599977384654                            000000000+M10101C5434C    MDJ  00402                     000000000  N                0000000000000.00 0000000.00   0000000.00                             000000000000000                                                                                                                                                   B101424  000000000000 0000000000000.49     01050 01500                  
00015780391450001E167590675900000007666800101800000010100E0F8C8054E 00000000000.00404040404040404040404040404040404040404040404040400110A00001220000000000000000000000FF00000000000000000000000000  000008401800800000800023071719DD29B6568C987244D57CC9404040400840A0000000041010000000000000000000CC5D235BFD2992AC03120000000000004040401E40404040 000000032.38 000000000.001E03000000000000000000    80                                                                                                                                                                                                                                                                                                                  
00015790391450002G2675906759000000076668001018000000101COLUMBIA                 SC           5 J                                                        NNNN              000000000000000000000000                        7                                          77384654                                                                                                                                                                                                                                                                                                                                                                                                                                               
00015800391450024DT67590675900000007666800101800000010180010177287283198900012000037071720230000000323819823000000000038967553781XXXXXX2116       MS02WI09          NY 2 0 AMDSVNYBBK0717  N840000000003238          05DNPLANET VAPOR INC #300    290367    MD84000000003238 N  599977384654                            000000000+M10101C1334C    MDS  00402                     000000000  N                0000000000000.00 0000000.00   0000000.00                             000000000000000                                                                                                                                                     01424  000000000000 0000000000000.49     01050 01500                  
00015810391450001E167590675900000007666800101800000010100E0F8C801FF 00000000000.00404040404040404040404040404040404040404040404040400110A00001220000000000000000000000FF00000000000000000000000000  00010840180080000480002307179C3C171B95647972D09EFB81404040400840A00000000410100000000000000000003F4E72A1C31BE61403120000000000004040400240404040 000000032.38 000000000.000203000000000000000000    80                                                                                                                                                                                                                                                                                                                  
00015820391450002G2675906759000000076668001018000000101COLUMBIA                 SC           5 S                                                        NNNN              000000000000000000000000                                                                   77384654                                                                                                                                                                                                                                                                                                                                                                                                                                               
00015830391450025DT67590675900000007666800101800000010180010124001193198900012000043071720230000000331919823000000000038967438419XXXXXX2913       VS11    0001111   NYV1 A E463198568613000N840000000003319X29T00    05DNPLANET VAPOR INC #300    014741    VD84000000003319 N  599977384654                            000000000+                F DF 00381                     000000000  N000000000       0000000000000.00 0000000.00   0000000.00                             000000000000000                                                                                                                                                     01424 A000000000000 0000000000000.42     00800 01500                  
00015840391450001E167590675900000007666800101800000010100E0F8C8020D 00000000000.004040404040404040404040404040404040404040404040404006011203A0A000000000000000000000404040404040404040404040404040  0000084018008080008000230717D1ECC0DE2DF5E1340F78E78D404040400840A0000000031010000000000000000000F1E3493C0080000000000000000000004040401E40404040 000000033.19 000000000.001E00000000000000000000    80                                                                                                                                                                                                                                                                                                                  
00015850391450002G2675906759000000076668001018000000101COLUMBIA                 SC           5 D                00                                      NNNN00 N 00                   000000000000                                                                   77384654                                                                                                                                                                                                                                                                                                                                                                                                                                               
00015860391450026DT67590675900000007666800101800000010180010124001193198900012000050071720230000000205119823000000000038967478373XXXXXX4035       VS11    0001111   NYV1 A E463198579805666N840000000002051ZG8800    05DNPLANET VAPOR INC #300    010621    VD84000000002051 N  599977384654                            000000000+                F DF 10433                     000000000  Y000000000 338   0000000000000.00 0000000.00   0000000.00                             000000000000000                                                                                                                                                     01424 A000000000000 0000000000000.23     00050 02200                  
00015870391450001E167590675900000007666800101800000010100E0F8C80430 00000000000.004040404040404040404040404040404040404040404040404006010A03A08000000000000000000000404040404040404040404040404040  0000084018008080008000230717B9B3CAD34BE5DA5C6B06853A404040400840A000000003101000000000000000000048FDFC37EA18E80530300000000000004040401E40404040 000000020.51 000000000.001E00000000000000000000    80                                                                                                                                                                                                                                                                                                                  
00015880391450002G2675906759000000076668001018000000101COLUMBIA                 SC           5 D                00                                      NNNN00 N 00                   000000000000                                                                   77384654                                                                                                                                                                                                                                                                                                                                                                                                                                               
00015890391450027DT67590675900000007666800101800000010180010124001193198900012000068071720230000000302219823000000000038967430602XXXXXX1589       VS11    0001111   NYV1 A E383198637957352N840000000003022HHNJ00    05DNPLANET VAPOR INC #300    169449    VD84000000003022 N  599977384654                            000000000+                F DF 00381                     000000000  N000000000       0000000000000.00 0000000.00   0000000.00                             000000000000000                                                                                                                                                     01424 A000000000000 0000000000000.39     00800 01500                  
00015900391450001E167590675900000007666800101800000010100E0F8C801D6 00000000000.004040404040404040404040404040404040404040404040404006011203A08000000000000000000000404040404040404040404040404040  0000084018008080008000230717B6E9F9A2B7A7C62E55A736A5404040400840A0000000031010000000000000000000D0BD5CFD0382000000000000000000004040401E40404040 000000030.22 000000000.001E00000000000000000000    80                                                                                                                                                                                                                                                                                                                  
00015910391450002G2675906759000000076668001018000000101COLUMBIA                 SC           5 D                00                                      NNNN00 N 00                   000000000000                                                                   77384654                                                                                                                                                                                                                                                                                                                                                                                                                                               
00015920391450028DT67590675900000007666800101800000010180010177287283198900012000078071720230000000242919823000000000038967531258XXXXXX5459       MS02WI09          NY 1 0 AMDJECLWFZ0717  N840000000002429          07DNPLANET VAPOR INC #300    104932    MD84000000002429 N  599977384654                            000000000+M10101M0034C    MDJ  10815                     000000000  1                0000000000000.00 0000000.00   0000000.00                             000000000000000                                                                                                                                                   B101424  000000000000 0000000000000.23     00050 02200                  
00015930391450001E16759067590000000766680010180000001010000084800BE 00000000000.00404040404040404040404040404040404040404040404040400414A04301A20000000000000000000000FF00000000000000000000000000  0000084019800000008001230717ACF9773B1B4FF9E4AB5305F3404040400840A0000000041010000000000000000000404040404040404040404040404040404040401F40404040 000000024.29 000000000.001F03020000000000000000    80                                                                                                                                                                                                                                                                                                                  
00015940391450002G2675906759000000076668001018000000101COLUMBIA                 SC           5 J                                                        NNNN              000000000000000000000000       03               7                                          77384654                                                                                                                                                                                                                                                                                                                                                                                                                                               
00015950391450029DT67590675900000007666800101800000010180010124001193198900012000084071720230000000323819823000000000038967440066XXXXXX8973       VS11    0001111   NYV1 A E303198746427546N840000000003238NP5M00    07DNPLANET VAPOR INC #300    02683C    VS84000000003238 N  599977384654                            000000000+                C CC 12112                     000000000  N000000000 497   0000000000000.00 0000000.00   0000000.00                             000000000000000                                                                                                                                                     01424 A000000000000 0000000000000.63     01650 01000                  
00015960391450001E167590675900000007666800101800000010100E068C800CC 00000000000.004040404040404040404040404040404040404040404040404006011203A00000000000000000000000404040404040404040404040404040  00020840200000000000002307172AA0B6A15FDEF16473C0783F404040400840A0000000031010000000000000000000404040404040404040404040404040404040404040404040 000000032.38 000000000.004040400000000000000000    80                                                                                                                                                                                                                                                                                                                  
00015970391450002G2675906759000000076668001018000000101COLUMBIA                 SC           5 C                00                                      NNNN00 Y 00                   000000000000                                                                   77384654                                                                                                                                                                                                                                                                                                                                                                                                                                               
00015980391450030DT67590675900000007666800101800000010180010177287283198900012000094071720230000000280719823000000000038967514230XXXXXX4405       MS02WI09          NY 1 0 AMDJOMNVWE0717  N840000000002807          05DNPLANET VAPOR INC #300    A66EC1    MD84000000002807 N  599977384654                            000000000+M10101C5434C    MDJ  00402                     000000000  N                0000000000000.00 0000000.00   0000000.00                             000000000000000                                                                                                                                                   B101424  000000000000 0000000000000.44     01050 01500                  
00015990391450001E167590675900000007666800101800000010100E0F8C802C1 00000000000.00404040404040404040404040404040404040404040404040400110A04001220000000000000000000000FF00000000000000000000000000  0001084039000000008000230717C472D76B4671AC57C9DFF743404040400840A0000000041010000000000000000000A0BC530E452FCC7500120000000000004040401E40404040 000000028.07 000000000.001E03000000000000000000    80                                                                                                                                                                                                                                                                                                                  
00016000391450002G2675906759000000076668001018000000101COLUMBIA                 SC           5 J                                                        NNNN              000000000000000000000000                        7                                          77384654                                                                                                                                                                                                                                                                                                                                                                                                                                               
00016010391450031DT67590675900000007666800101800000010180010124001193198900012000100071720230000000237519823000000000038967453506XXXXXX4838       VS11    0001111   NYV1 A E583198778667631N840000000002375B9M500    05DNPLANET VAPOR INC #300    H66196    VD84000000002375 N  599977384654                            000000000+                F DF 10433                     000000000  Y000000000 338   0000000000000.00 0000000.00   0000000.00                             000000000000000                                                                                                                                                     01424 A000000000000 0000000000000.23     00050 02200                  
00016020391450001E167590675900000007666800101800000010100E0F8C80025 00000000000.004040404040404040404040404040404040404040404040404006011203A08000000000000000000000404040404040404040404040404040  00000840180080800080002307173ED37CB223A4EB70EAA3102C404040400840A00000000310100000000000000000008F77806A0082000000000000000000004040401E40404040 000000023.75 000000000.001E00000000000000000000    80                                                                                                                                                                                                                                                                                                                  
00016030391450002G2675906759000000076668001018000000101COLUMBIA                 SC           5 D                00                                      NNNN00 N 00                   000000000000                                                                   77384654                                                                                                                                                                                                                                                                                                                                                                                                                                               
00016040391450032DT67590675900000007666800101800000010180010124001193198900012000118071720230000000377919823000000000038967473702XXXXXX7634       VS11    0001111   NYV1 A E383198790680113N840000000003779F9VQ00    07DNPLANET VAPOR INC #300    085861    VD84000000003779 N  599977384654                            000000000+                F DF 10433                     000000000  Y000000000 338   0000000000000.00 0000000.00   0000000.00                             000000000000000                                                                                                                                                     01424 A000000000000 0000000000000.24     00050 02200                  
00016050391450001E167590675900000007666800101800000010100E068C8000B 00000000000.004040404040404040404040404040404040404040404040404006061203A00000000000000000000000404040404040404040404040404040  00000840000000000000002307171BEE0102F03E22A3C5497796404040400840A0000000031010000000000000000000E03030E0B08020F020200000000000004040404040404040 000000037.79 000000000.004040400000000000000000    80                                                                                                                                                                                                                                                                                                                  
00016060391450002G2675906759000000076668001018000000101COLUMBIA                 SC           5 D                00                                      NNNN00 N 00                   000000000000                                                                   77384654                                                                                                                                                                                                                                                                                                                                                                                                                                               
00016070391450033DT67590675900000007666800101800000010180010124001193198900012000126071720230000000215919823000000000038967454507XXXXXX7962       VS11    0001111   NYV1 A E303198818282852N840000000002159LD8T00    90DNPLANET VAPOR INC #300    009767    VD84000000002159 N  599977384654                            000000000+                F DF 10433                     000000000  Y000000000 338   0000000000000.00 0000000.00   0000000.00                             000000000000000                                                                                                                                                     01424 A000000000000 0000000000000.23     00050 02200                  
00016080391450001G2675906759000000076668001018000000101COLUMBIA                 SC           5 D                00                                      NNNN00 N 00                   000000000000                                                                   77384654                                                                                                                                                                                                                                                                                                                                                                                                                                               
00016090391450034DT67590675900000007666800101800000010180010124001193198900012000134071720230000000396619823000000000038967466189XXXXXX6622       VS11    0001111   NYV1 A E383198841649157N840000000003966484G00    05DNPLANET VAPOR INC #300    001917    VD84000000003966 N  599977384654                            000000000+                F DF 10433                     000000000  Y000000000 338   0000000000000.00 0000000.00   0000000.00                             000000000000000                                                                                                                                                     01424 A000000000000 0000000000000.24     00050 02200                  
00016100391450001E167590675900000007666800101800000010100E0F8C8017A 00000000000.004040404040404040404040404040404040404040404040404006011203A0A000000000000000000000404040404040404040404040404040  0000084018008080008000230717A2A816A56D9F9A8B07D84D93404040400840A0000000031010000000000000000000471928063C4EDC5D30300000000000004040401E40404040 000000039.66 000000000.001E00000000000000000000    80                                                                                                                                                                                                                                                                                                                  
00016110391450002G2675906759000000076668001018000000101COLUMBIA                 SC           5 D                00                                      NNNN00 N 00                   000000000000                                                                   77384654                                                                                                                                                                                                                                                                                                                                                                                                                                               
00016120391450035BH6759067590000003433080014180000090170717202319823000000000129091    0000090001150030Y8001416759C07182023015                                                                                                                                                                                                                                                                                                                                                                                                                                                                                                                                                                                              
00016130391450036DT67590675900000034330800141800000010180014124001193198900011500019071720230000000342319823000000000129091440393XXXXXX7542       VS11    0001111   NYV1 A E583198561113581N840000000003423CXWH00    05DNJBLISS LLC               686185    VD84000000003423 N  599978503056                            000000000+                F PF 08170                     000000000  N000000000       0000000000000.00 0000000.00   0000000.00                             000000000000000                                                                                                                                                     01424 A000000000000 0000000000000.54     01150 01500                  
00016140391450001E167590675900000034330800141800000010100E0F8C803F7 00000000000.004040404040404040404040404040404040404040404040404006010A03A08000000000000000000000404040404040404040404040404040  0000084018008080008000230717CC1AEA2DE33E97E31FB160F4404040400840A0000000031010000000000000000000016B2E462E04C5CE30300000000000004040401E40404040 000000034.23 000000000.001E00000000000000000000    80                                                                                                                                                                                                                                                                                                                  
00016150391450002G2675906759000000343308001418000000101GREENWOOD                SC           5 P                00                                      NNNN00 N 00                   000000000000                                                                   78503056                                                                                                                                                                                                                                                                                                                                                                                                                                               
00016160391450037DT67590675900000034330800141800000010180014124001193198900011500027071720230000000203219823000000000129091448261XXXXXX6308       VS11    0001111   NYV1 A E583198567643964N840000000002032RN2Z00    07DNJBLISS LLC               833070    VD84000000002032 N  599978503056                            000000000+                F DF 10433                     000000000  Y000000000 338   0000000000000.00 0000000.00   0000000.00                             000000000000000                                                                                                                                                     01424 A000000000000 0000000000000.23     00050 02200                  
00016170391450001E167590675900000034330800141800000010100E068C8018B 00000000000.004040404040404040404040404040404040404040404040404006011203A00000000000000000000000404040404040404040404040404040  0000084020000000000000230717D0F0CE2FCA8C4FB84D72988E404040400840A00000000310100000000000000000006A322D520382000000000000000000004040404040404040 000000020.32 000000000.004040400000000000000000    80                                                                                                                                                                                                                                                                                                                  
00016180391450002G2675906759000000343308001418000000101GREENWOOD                SC           5 D                00                                      NNNN00 N 00                   000000000000                                                                   78503056                                                                                                                                                                                                                                                                                                                                                                                                                                               
00016190391450038DT67590675900000034330800141800000010180014124001193198900011500035071720230000000406419823000000000129091408138XXXXXX2641       VS11    0001111   NYV1 A E303198608654236N840000000004064TKWZ00    07DNJBLISS LLC               661490    VD84000000004064 N  599978503056                            000000000+                F PF 08170                     000000000  N000000000       0000000000000.00 0000000.00   0000000.00                             000000000000000                                                                                                                                                     01424 A000000000000 0000000000000.62     01150 01500                  
00016200391450001E167590675900000034330800141800000010100E068C80009 00000000000.00404040404040404040404040404040404040404040404040401F42FF32A00000000010030273000000004000000000000000000000000000  00000840006000000000002307176E903003F96E44A8A400A53E404040400840A00000000310100000000000000000009A3829700086000000000000000000004040404040404040 000000040.64 000000000.004040400000000000000000    80                                                                                                                                                                                                                                                                                                                  
00016210391450002G2675906759000000343308001418000000101GREENWOOD                SC           5 P                00                                      NNNN00 N 00                   000000000000                                                                   78503056                                                                                                                                                                                                                                                                                                                                                                                                                                               
00016220391450039DT67590675900000034330800141800000010180014124001193198900011500043071720230000000187119823000000000129091446540XXXXXX7949       VS11    0001111   NYV1 A E383198619178282N840000000001871S54900    05DNJBLISS LLC               017881    VS84000000001871 N  599978503056                            000000000+                D CD 12113                     000000000  N000000000 499   0000000000000.00 0000000.00   0000000.00                             000000000000000                                                                                                                                                     01424 A000000000000 0000000000000.49     02100 01000                  
00016230391450001E167590675900000034330800141800000010100E0F8C8000D 00000000000.004040404040404040404040404040404040404040404040404006031203A0B000000000000000000000404040404040404040404040404040  0004084018008080008000230717BDF700EFD4846A36C631F081404040400840A00000000310100000000000000000008FE19C990082000000000000000000004040401E40404040 000000018.71 000000000.001E00000000000000000000    80                                                                                                                                                                                                                                                                                                                  
00016240391450002G2675906759000000343308001418000000101GREENWOOD                SC           5 C                00                                      NNNN00 Y 00                   000000000000                                                                   78503056                                                                                                                                                                                                                                                                                                                                                                                                                                               
00016250391450040DT67590675900000034330800141800000010180014124001193198900011500050071720230000000213819823000000000129091447734XXXXXX0372       VS11    0001111   NYV1 A E303198619723048N840000000002138FP7700    05DNJBLISS LLC               121934    VD84000000002138 N  599978503056                            000000000+                F DF 00381                     000000000  N000000000       0000000000000.00 0000000.00   0000000.00                             000000000000000                                                                                                                                                     01424 A000000000000 0000000000000.32     00800 01500                  
00016260391450001E167590675900000034330800141800000010100E0F8C80159 00000000000.004040404040404040404040404040404040404040404040404006011203A0A000000000000000000000404040404040404040404040404040  00010840180080800080002307172B07E7A519EDD808CC7A2B2B404040400840A0000000031010000000000000000000BC07C0F70382000000000000000000004040401E40404040 000000021.38 000000000.001E00000000000000000000    80                                                                                                                                                                                                                                                                                                                  
00016270391450002G2675906759000000343308001418000000101GREENWOOD                SC           5 D                00                                      NNNN00 N 00                   000000000000                                                                   78503056                                                                                                                                                                                                                                                                                                                                                                                                                                               
00016280391450041DT67590675900000034330800141800000010180014124001193198900011500068071720230000001818719823000000000129091449594XXXXXX0788       VS11    0001111   NYV1 A E463198628265754N840000000018187DKGB00    05DNJBLISS LLC               000050    VD84000000018187 N  599978503056                            000000000+                F DF 00381                     000000000  N000000000       0000000000000.00 0000000.00   0000000.00                             000000000000000                                                                                                                                                     01424 A000000000000 0000000000001.60     00800 01500                  
00016290391450001E167590675900000034330800141800000010100E0F8C80111 00000000000.004040404040404040404040404040404040404040404040404006011203A08000000000000000000000404040404040404040404040404040  0000084018008080008000230717B7AE3D9995B5857E3C052E51404040400840A00000000310100000000000000000008EC905530382000000000000000000004040401E40404040 000000181.87 000000000.001E00000000000000000000    80                                                                                                                                                                                                                                                                                                                  
00016300391450002G2675906759000000343308001418000000101GREENWOOD                SC           5 D                00                                      NNNN00 N 00                   000000000000                                                                   78503056                                                                                                                                                                                                                                                                                                                                                                                                                                               
00016310391450042DT67590675900000034330800141800000010180014124001193198900011500076071720230000000213919823000000000129091448261XXXXXX7483       VS11    0001111   NYV1 A E383198665984428N840000000002139745900    05DNJBLISS LLC               166061    VD84000000002139 N  599978503056                            000000000+                F DF 10433                     000000000  Y000000000 338   0000000000000.00 0000000.00   0000000.00                             000000000000000                                                                                                                                                     01424 A000000000000 0000000000000.23     00050 02200                  
00016320391450001E167590675900000034330800141800000010100E0F8C8023A 00000000000.004040404040404040404040404040404040404040404040404006010A03A08000000000000000000000404040404040404040404040404040  0001084018008080008000230717C19952679FDF5358742485B5404040400840A000000003101000000000000000000022FF4C444E5AEF1530300000000000004040401E40404040 000000021.39 000000000.001E00000000000000000000    80                                                                                                                                                                                                                                                                                                                  
00016330391450002G2675906759000000343308001418000000101GREENWOOD                SC           5 D                00                                      NNNN00 N 00                   000000000000                                                                   78503056                                                                                                                                                                                                                                                                                                                                                                                                                                               
00016340391450043DT67590675900000034330800141800000010180014124001193198900011500084071720230000000203219823000000000129091448261XXXXXX6308       VS11    0001111   NYV1 A E383198690234524N840000000002032VBNN00    05DNJBLISS LLC               833078    VD84000000002032 N  599978503056                            000000000+                F DF 10433                     000000000  Y000000000 338   0000000000000.00 0000000.00   0000000.00                             000000000000000                                                                                                                                                     01424 A000000000000 0000000000000.23     00050 02200                  
00016350391450001E167590675900000034330800141800000010100E0F8C8018C 00000000000.004040404040404040404040404040404040404040404040404006011203A0A000000000000000000000404040404040404040404040404040  00000840180080800080002307172AF5DA2A1EE85A5BC0DE9B70404040400840A000000003101000000000000000000048FEF23E0382000000000000000000004040401E40404040 000000020.32 000000000.001E00000000000000000000    80                                                                                                                                                                                                                                                                                                                  
00016360391450002G2675906759000000343308001418000000101GREENWOOD                SC           5 D                00                                      NNNN00 N 00                   000000000000                                                                   78503056                                                                                                                                                                                                                                                                                                                                                                                                                                               
00016370391450044DT67590675900000034330800141800000010180014177287283198900011500094071720230000001176819823000000000129091517805XXXXXX3015       MS02WI09          NY 1 0 AMPLL3TNWE0717  N840000000011768          05DNJBLISS LLC               03882B    MC84000000011768 N  599978503056                            000000000+M10101C5434C    MPL  00353                     000000000  N                0000000000000.00 0000000.00   0000000.00                             000000000000000                                                                                                                                                   B101424  000000000000 0000000000002.22     01800 01000                  
00016380391450001E167590675900000034330800141800000010100E0F8C802D6 00000000000.00404040404040404040404040404040404040404040404040400110A04001220000000000000000000000FF00000000000000000000000000  00020840390000000080002307170DA129D02576DFBBE9FCF50A404040400840A0000000041010000000000000000000A5AA3443D19FCFDA00120000000000004040401E40404040 000000117.68 000000000.001E03000000000000000000    80                                                                                                                                                                                                                                                                                                                  
00016390391450002G2675906759000000343308001418000000101GREENWOOD                SC           5 L                                                        NNNN              000000000000000000000000                        7                                          78503056                                                                                                                                                                                                                                                                                                                                                                                                                                               
00016400391450045DT67590675900000034330800141800000010180014124001193198900011500100071720230000000203219823000000000129091484608XXXXXX7929       VS11    0001111   NYV1 A E303198693111716N840000000002032Q9RC00    05DNJBLISS LLC               111716    VD84000000002032 N  599978503056                            000000000+                F DF 00381                     000000000  N000000000       0000000000000.00 0000000.00   0000000.00                             000000000000000                                                                                                                                                     01424 A000000000000 0000000000000.31     00800 01500                  
00016410391450001E167590675900000034330800141800000010100E0F8C801B6 00000000000.004040404040404040404040404040404040404040404040404006011203A0A000000000000000000000404040404040404040404040404040  000008401800808000800023071753B42FF2BC0C5BAC12FE04B1404040400840A00000000310100000000000000000000C05AEB50382000000000000000000004040401E40404040 000000020.32 000000000.001E00000000000000000000    80                                                                                                                                                                                                                                                                                                                  
00016420391450002G2675906759000000343308001418000000101GREENWOOD                SC           5 D                00                                      NNNN00 N 00                   000000000000                                                                   78503056                                                                                                                                                                                                                                                                                                                                                                                                                                               
00016430391450046DT67590675900000034330800141800000010180014124001193198900011500126071720230000000052919823000000000129091448261XXXXXX8739       VK04VS111111111   NYV1 A E463198717482351N840000000000529F4T300    07DNJBLISS LLC               664064    VD84000000000529 N  599978503056                            000000000+                F DF 10439                     000000000  Y000000000 331   0000000000000.00 0000000.00   0000000.00                             000000000000000                                                                                                                                                     01424 F000000000000 0000000000000.22     00050 02200                  
00016440391450001E167590675900000034330800141800000010100E068C80043 00000000000.004040404040404040404040404040404040404040404040404006011203A00000000000000000000000404040404040404040404040404040  00010840000000000000002307178D7DB8063E89AAAB4851C10F404040400840A00000000310100000000000000000009D11F5F80382000000000000000000004040404040404040 000000005.29 000000000.004040400000000000000000    80                                                                                                                                                                                                                                                                                                                  
00016450391450002G2675906759000000343308001418000000101GREENWOOD                SC           5 D                00                                      NNNN00 N 00                   000000000000                                                                   78503056                                                                                                                                                                                                                                                                                                                                                                                                                                               
00016460391450047DT67590675900000034330800141800000010180014124001193198900011500134071720230000000320919823000000000129091473703XXXXXX0315       VS11    0001111   NYV1 A E303198721693583N8400000000032099X4500    07DNJBLISS LLC               061749    VD84000000003209 N  599978503056                            000000000+                F DF 10433                     000000000  Y000000000 338   0000000000000.00 0000000.00   0000000.00                             000000000000000                                                                                                                                                     01424 A000000000000 0000000000000.24     00050 02200                  
00016470391450001E167590675900000034330800141800000010100E068C8009C 00000000000.004040404040404040404040404040404040404040404040404006061203A00000000000000000000000404040404040404040404040404040  0000084000000000000000230717FEA398F91648F52665487570404040400840A00000000310100000000000000000002070C00050D0308020200000000000004040404040404040 000000032.09 000000000.004040400000000000000000    80                                                                                                                                                                                                                                                                                                                  
00016480391450002G2675906759000000343308001418000000101GREENWOOD                SC           5 D                00                                      NNNN00 N 00                   000000000000                                                                   78503056                                                                                                                                                                                                                                                                                                                                                                                                                                               
00016490391450048DT67590675900000034330800141800000010180014124001193198900011500142071720230000000427919823000000000129091478665XXXXXX8313       VS11    0001111   NYV1 A E463198730348966N8400000000042799LLV00    05DNJBLISS LLC               412423    VD84000000004279 N  599978503056                            000000000+                F PF 08170                     000000000  N000000000       0000000000000.00 0000000.00   0000000.00                             000000000000000                                                                                                                                                     01424 A000000000000 0000000000000.64     01150 01500                  
00016500391450001E167590675900000034330800141800000010100E0F8C80009 00000000000.004040404040404040404040404040404040404040404040404006011203A0A000000000000000000000404040404040404040404040404040  0000084018008080008000230717CEF7BEA0A9467FC9585281B9404040400840A00000000310100000000000000000009E027E400382000000000000000000004040401E40404040 000000042.79 000000000.001E00000000000000000000    80                                                                                                                                                                                                                                                                                                                  
00016510391450002G2675906759000000343308001418000000101GREENWOOD                SC           5 P                00                                      NNNN00 N 00                   000000000000                                                                   78503056                                                                                                                                                                                                                                                                                                                                                                                                                                               
00016520391450049DT67590675900000034330800141800000010180014124001193198900011500159071720230000000213919823000000000129091473703XXXXXX1832       VS11    0001111   NYV1 A E383198732339031N840000000002139NVF900    05DNJBLISS LLC               020522    VD84000000002139 N  599978503056                            000000000+                F DF 10433                     000000000  Y000000000 338   0000000000000.00 0000000.00   0000000.00                             000000000000000                                                                                                                                                     01424 A000000000000 0000000000000.23     00050 02200                  
00016530391450001E167590675900000034330800141800000010100E0F8C8014F 00000000000.004040404040404040404040404040404040404040404040404006061203A0A000000000000000000000404040404040404040404040404040  0000084018008080008000230717CFAD6DB62211C3A33D132F1A404040400840A0000000031010000000000000000000E00010F08050206020200000000000004040401E40404040 000000021.39 000000000.001E00000000000000000000    80                                                                                                                                                                                                                                                                                                                  
00016540391450002G2675906759000000343308001418000000101GREENWOOD                SC           5 D                00                                      NNNN00 N 00                   000000000000                                                                   78503056                                                                                                                                                                                                                                                                                                                                                                                                                                               
00016550391450050DT67590675900000034330800141800000010180014124001193198900011500167071720230000000203219823000000000129091433477XXXXXX9035       VS11    0001111   NYV1 A E463198742842823N8400000000020326X8G00    05DNJBLISS LLC               055888    VD84000000002032 N  599978503056                            000000000+                F DF 10433                     000000000  Y000000000 338   0000000000000.00 0000000.00   0000000.00                             000000000000000                                                                                                                                                     01424 A000000000000 0000000000000.23     00050 02200                  
00016560391450001E167590675900000034330800141800000010100E0F8C80213 00000000000.004040404040404040404040404040404040404040404040404006011203A0A000000000000000000000404040404040404040404040404040  00010840180080800080002307172578226B6782C2A3615033E9404040400840A00000000310100000000000000000002A12115E0082000000000000000000004040401E40404040 000000020.32 000000000.001E00000000000000000000    80                                                                                                                                                                                                                                                                                                                  
00016570391450002G2675906759000000343308001418000000101GREENWOOD                SC           5 D                00                                      NNNN00 N 00                   000000000000                                                                   78503056                                                                                                                                                                                                                                                                                                                                                                                                                                               
00016580391450051DT67590675900000034330800141800000010180014177287283198900011500177071720230000000203219823000000000129091544579XXXXXX0634       MS02WI09          NY 1 0 AMDJOBRRWE0717  N840000000002032          05DNJBLISS LLC               333082    MD84000000002032 N  599978503056                            000000000+M10101C5434C    MDJ  10815                     000000000  1                0000000000000.00 0000000.00   0000000.00                             000000000000000                                                                                                                                                   B101424  000000000000 0000000000000.23     00050 02200                  
00016590391450001E167590675900000034330800141800000010100E0F8C8000A 00000000000.00404040404040404040404040404040404040404040404040400110A00001220000000000000000000000FF00000000000000000000000000  00000840180080000080002307175741E085537558E8F476DB77404040400840A0000000041010000000000000000000C77743687364599803120000000000004040401E40404040 000000020.32 000000000.001E03000000000000000000    80                                                                                                                                                                                                                                                                                                                  
00016600391450002G2675906759000000343308001418000000101GREENWOOD                SC           5 J                                                        NNNN              000000000000000000000000                        7                                          78503056                                                                                                                                                                                                                                                                                                                                                                                                                                               
00016610391450052DT67590675900000034330800141800000010180014124001193198900011500183071720230000000203219823000000000129091440393XXXXXX1172       VS11    0001111   NYV1 A E463198744473908N840000000002032833R00    05DNJBLISS LLC               842375    VD84000000002032 N  599978503056                            000000000+                F PF 08170                     000000000  N000000000       0000000000000.00 0000000.00   0000000.00                             000000000000000                                                                                                                                                     01424 A000000000000 0000000000000.38     01150 01500                  
00016620391450001E167590675900000034330800141800000010100E0F8C80026 00000000000.004040404040404040404040404040404040404040404040404006011203A0A000000000000000000000404040404040404040404040404040  000008401800808000800023071766AF9CC2C799E3A638F1FE42404040400840A0000000031010000000000000000000B524DF7A26820C3F30300000000000004040401E40404040 000000020.32 000000000.001E00000000000000000000    80                                                                                                                                                                                                                                                                                                                  
00016630391450002G2675906759000000343308001418000000101GREENWOOD                SC           5 P                00                                      NNNN00 N 00                   000000000000                                                                   78503056                                                                                                                                                                                                                                                                                                                                                                                                                                               
00016640391450053DT67590675900000034330800141800000010180014124001193198900011500191071720230000000641719823000000000129091440393XXXXXX4611       VS11    0001111   NYV1 A E383198745894202N840000000006417N3GX00    07DNJBLISS LLC               815586    VD84000000006417 N  599978503056                            000000000+                F PF 08170                     000000000  N000000000       0000000000000.00 0000000.00   0000000.00                             000000000000000                                                                                                                                                     01424 A000000000000 0000000000000.89     01150 01500                  
00016650391450001E167590675900000034330800141800000010100E068C80404 00000000000.004040404040404040404040404040404040404040404040404006011203A00000000000000000000000404040404040404040404040404040  0000084020000000000000230717F3789C3F03ED9BDD7EE17A97404040400840A00000000310100000000000000000003222F20A800F429530300000000000004040404040404040 000000064.17 000000000.004040400000000000000000    80                                                                                                                                                                                                                                                                                                                  
00016660391450002G2675906759000000343308001418000000101GREENWOOD                SC           5 P                00                                      NNNN00 N 00                   000000000000                                                                   78503056                                                                                                                                                                                                                                                                                                                                                                                                                                               
