08899320213444967AD675906759000000151648008888000009071900012237850000001987006082023NYY15923ND6759800888061120232023159018716                                                                                                                                                                                                                                                                                                                                                                                                                                                                                                                                                                                              
08899330213444970AD675906759000000268498001258000009071900012145050000002477006082023NYY15923ND6759800125061120232023159018717                                                                                                                                                                                                                                                                                                                                                                                                                                                                                                                                                                                              
08899340213444973AD675906759000000277308001268000009071900010500230000001721006082023NYY15923ND6759800126061120232023159018718                                                                                                                                                                                                                                                                                                                                                                                                                                                                                                                                                                                              
08899350213444976AD675906759000000268498001258000009071900013920870000001977006082023NYY15923ND6759800125061120232023159018719                                                                                                                                                                                                                                                                                                                                                                                                                                                                                                                                                                                              
08899360213444979AD675906759000000198288001098000009077900013467180000002487006082023NYY15923YC6759800109061120232023159018723                                                                                                                                                                                                                                                                                                                                                                                                                                                                                                                                                                                              
08899370213444982AD675906759000000198288001098000009077900013581660000001987006082023NYY15923YC6759800109061120232023159018724                                                                                                                                                                                                                                                                                                                                                                                                                                                                                                                                                                                              
08899380213444985AD675906759000000133008001028000009071900010951000000000686206082023NYY15923ND6759800102061120232023159018720                                                                                                                                                                                                                                                                                                                                                                                                                                                                                                                                                                                              
08899390213444988AD675906759000000268498001258000009071900011121770000002145006082023NYY15923ND6759800125061120232023159018721                                                                                                                                                                                                                                                                                                                                                                                                                                                                                                                                                                                              
08899400213444991AD675906759000000198288001098000009077900013578000000001987006082023NYY15923YC6759800109061120232023159018725                                                                                                                                                                                                                                                                                                                                                                                                                                                                                                                                                                                              
08899410213444994AD675906759000000133008001028000009071900016686260000001987006082023NYY15923ND6759800102061120232023159018722                                                                                                                                                                                                                                                                                                                                                                                                                                                                                                                                                                                              
08899420213444997AD675906759000000198288001098000009077900012952000000002755006082023NYY15923YC6759800109061120232023159018726                                                                                                                                                                                                                                                                                                                                                                                                                                                                                                                                                                                              
08899430213445000AD675906759000000176738001068000009071900014116260000001306706082023NYY15923ND6759800106061120232023159018727                                                                                                                                                                                                                                                                                                                                                                                                                                                                                                                                                                                              
08899440213445003AD675906759000000151648008888000009077900014163030000002487006082023NYY15923YC6759800888061120232023159027808                                                                                                                                                                                                                                                                                                                                                                                                                                                                                                                                                                                              
08899450213771410AD675906759000000151648008888000009071231370034840000002487006082023NYY15923ND6759800888061120232023137003484                                                                                                                                                                                                                                                                                                                                                                                                                                                                                                                                                                                              
08899460213771413AD675906759000000151648008888000009071231590037170000002487006082023NYY15923ND6759800888061120232023159003717                                                                                                                                                                                                                                                                                                                                                                                                                                                                                                                                                                                              
08899470215111263BH6759067590000001767380010680000090170609202316023000000000039588    0000090001672169N8001066759D06112023067                                                                                                                                                                                                                                                                                                                                                                                                                                                                                                                                                                                              
08899480215111264DT67590675900000017673800106800000010680010687287283160900016721680060820230000001779916023000000000039588521853XXXXXX0063                         YY 4607AMPLR00WXW0608  N840000000017799          81CNVGHEMP.COM833-246-5225   008315    MC84000000017799 NDR549977427364   231BF36AD4T91F001D4DC21  000000000+600450S00130    MPL  00565                     000000000  N                0000000000000.00 0000000.00   0000000.00                             000000000000000                                                                                                                                                     015WPE 000000000000-0000000000003.11     01750 00000                  
08899490215111264DR675906759000000176738001068000000106231BF36AD4T91F001D4DC21  R000000000000                                                                                                                                                                                                                                                                                                                                                                                                                                                                                                                                                                                                                               
08899500215110001G26759067590000001767380010680000001067203077930               CA           9 L               210                                      NNNN           210000000000000000000000000                        7                                          77427364                                                                                                                                                                                                                                                                                                                                                                                                                                               
08899510215111265DT67590675900000017673800106800000010680010687287283160900016721698060820230000002178916023000000000039588531260XXXXXX7114                         YY 4607AMDJM0IUZU0608  N840000000021789          81CNVGHEMP.COM833-246-5225   128418    MD84000000021789 NDR549977427364   15BCCAB73DT8E54422E5765  000000000+600450S00130    MDJ  10828                     000000000  1                0000000000000.00 0000000.00   0000000.00                             000000000000000                                                                                                                                                     015WPE 000000000000 0000000000000.00     00000 00000                  
08899520215111265DR67590675900000017673800106800000010615BCCAB73DT8E54422E5765  Y000000000000                                                                                                                                                                                                                                                                                                                                                                                                                                                                                                                                                                                                                               
08899530215110001G26759067590000001767380010680000001067203077930               CA           9 J               210                                      NNNN           210000000000000000000000000                        7                                          77427364                                                                                                                                                                                                                                                                                                                                                                                                                                               
08899540215111268BH6759067590000002325980011680000090170609202316023000000000021789    0000090001672297N8001166759D06112023067                                                                                                                                                                                                                                                                                                                                                                                                                                                                                                                                                                                              
08899550215111269DT67590675900000023259800116800000010680011687287283160900016722977060820230000002178916023000000000021789512186XXXXXX4507                         YY 4607AMPLVPV0KN0608  N840000000021789          81CNGFORCEHEMP844-258-9322   008336    MC84000000021789 NDR549977768166   8620A08BE5TF39E89F04326  000000000+600450S00130    MPL  00565                     000000000  N                0000000000000.00 0000000.00   0000000.00                             000000000000000                                                                                                                                                     015WPE 000000000000-0000000000003.81     01750 00000                  
08899560215111269DR6759067590000002325980011680000001068620A08BE5TF39E89F04326  R000000000000                                                                                                                                                                                                                                                                                                                                                                                                                                                                                                                                                                                                                               
08899570215110001G26759067590000002325980011680000001068442589322               CA           9 L               210                                      NNNN           210000000000000000000000000                        7                                          77768166                                                                                                                                                                                                                                                                                                                                                                                                                                               
08899580215920002BH6759067590000003284780013580000090170609202316023000000000028454    0000090001180010N8001356759C06112023018                                                                                                                                                                                                                                                                                                                                                                                                                                                                                                                                                                                              
08899590215920003DT67590675900000032847800135800000010180013524001193160900011800017060820230000000807616023000000000028454470793XXXXXX6464       VS11    0001111   NYV1 A E463159571525860N840000000008076MXNB00    05DNDAYDREAMS SMOKE WORLD LLC008255    VS84000000008076 N  599378480415                            000000000+                B CB 12111                     000000000  N000000000 495   0000000000000.00 0000000.00   0000000.00                             000000000000000                                                                                                                                                     01418 A000000000000 0000000000001.43     01650 01000                  
08899600215920001E167590675900000032847800135800000010100E0F8C80007 00000000000.004040404040404040404040404040404040404040404040404006051203A0B000000000000000000000404040404040404040404040404040  0001084018008000008000230608E5F306E89B18EF64877F37FF404040400840A0000000031010000000000000000000EE91BD030082000000000000000000004040405E40404040 000000080.76 000000000.005E00000000000000000000    80                                                                                                                                                                                                                                                                                                                  
08899610215920002G2675906759000000328478001358000000101MCALLEN                  TX           5 C                00                                      NNNN00 N 00                   000000000000                                                                   78480415                                                                                                                                                                                                                                                                                                                                                                                                                                               
08899620215920004DT67590675900000032847800135800000010180013524001193160900011800025060820230000000064616023000000000028454470793XXXXXX6464       VK04VS111111111   NYV1 A E383159572526971N840000000000646JS5700    05DNDAYDREAMS SMOKE WORLD LLC008036    VS84000000000646 N  599378480415                            000000000+                B CB 12111                     000000000  N000000000 495   0000000000000.00 0000000.00   0000000.00                             000000000000000                                                                                                                                                     01418 F000000000000 0000000000000.21     01650 01000                  
08899630215920001E167590675900000032847800135800000010100E0F8C80008 00000000000.004040404040404040404040404040404040404040404040404006051203A0B000000000000000000000404040404040404040404040404040  00010840180080000080002306083322AF9D94049AE2873200A1404040400840A000000003101000000000000000000084EB5F1F0082000000000000000000004040405E40404040 000000006.46 000000000.005E00000000000000000000    80                                                                                                                                                                                                                                                                                                                  
08899640215920002G2675906759000000328478001358000000101MCALLEN                  TX           5 C                00                                      NNNN00 N 00                   000000000000                                                                   78480415                                                                                                                                                                                                                                                                                                                                                                                                                                               
08899650215920005DT67590675900000032847800135800000010180013524001193160900011800033060820230000000151416023000000000028454441840XXXXXX9455       VS11    0001111   NYV1 A E303159648146506N840000000001514L8ZH00    05DNDAYDREAMS SMOKE WORLD LLC157666    VS84000000001514 N  599378480415                            000000000+                A CA 12110                     000000000  N000000000 493   0000000000000.00 0000000.00   0000000.00                             000000000000000                                                                                                                                                     01418 A000000000000 0000000000000.33     01510 01000                  
08899660215920001E167590675900000032847800135800000010100E0F8C8001F 00000000000.004040404040404040404040404040404040404040404040404006011203A0A000000000000000000000404040404040404040404040404040  0000084018008000008000230608A34E844DE2E4B31733B3F9E2404040400840A0000000031010000000000000000000C0CCDF580080000000000000000000004040405E40404040 000000015.14 000000000.005E00000000000000000000    80                                                                                                                                                                                                                                                                                                                  
08899670215920002G2675906759000000328478001358000000101MCALLEN                  TX           5 C                00                                      NNNN00 Y 00                   000000000000                                                                   78480415                                                                                                                                                                                                                                                                                                                                                                                                                                               
08899680215920006DT67590675900000032847800135800000010180013577287283160900011800092060820230000000270516023000000000028454515307XXXXXX2114       MS02WI09          NY 1 0 AMCWH03A010608  N840000000002705          05DNDAYDREAMS SMOKE WORLD LLC05732Z    MC84000000002705 N  599378480415                            000000000+M10101C5434C    MCW  00644                     000000000  N                0000000000000.00 0000000.00   0000000.00                             000000000000000                                                                                                                                                   B101418  000000000000 0000000000000.61     01900 01000                  
08899690215920001E167590675900000032847800135800000010100E0F8C80004 00000000000.00404040404040404040404040404040404040404040404040400110A04001220800000000000000000000FF00000000000000000000000000  000108403900000000800023060885366C857E88081478822BE3404040400840A0000000041010000000000000000000BA4C40042B509EF400120000000000004040401E40404040 000000027.05 000000000.001E03000000000000000000    80                                                                                                                                                                                                                                                                                                                  
08899700215920002G2675906759000000328478001358000000101MCALLEN                  TX           5 W                                                        NNNN              000000000000000000000000                        7                                          78480415                                                                                                                                                                                                                                                                                                                                                                                                                                               
08899710215920007DT67590675900000032847800135800000033080013576759003160900011800046060820230000000108016023000000000028454440393XXXXXX6938                         NY 2 0 N               N840000000001080      IL  05DNDAYDREAMS SMOKE WORLD LLC194480    DB84000000001080 N  599378480415                            000000000+                     09576                                N          346   0000000000000.00 0000000.00   0000000.00                             000000000000000                                                                                                                                                     01418  000000000000 0000000000000.27     01150 00000                  
08899720215920001G2675906759000000328478001358000000330MCALLEN                  TX           5 P                00                                      NNNN                          000000000000                                                                   78480415                                                                                                                                                                                                                                                                                                                                                                                                                                               
08899730215920008DT67590675900000032847800135800000033080013576759003160900011800053060820230000000642816023000000000028454527515XXXXXX3740                         NY42 0 N               N840000000006428      ME  05DNDAYDREAMS SMOKE WORLD LLC144247    DB84000000006428 N  599378480415                            000000000+                     09601                                1          MA1   0000000000000.00 0000000.00   0000000.00                             000000000000000                                                                                                                                                     01418  000000000000 0000000000000.25     00050 00000                  
08899740215920001G2675906759000000328478001358000000330MCALLEN                  TX           5 D                00                                      NNNN                          000000000000                                                                   78480415                                                                                                                                                                                                                                                                                                                                                                                                                                               
08899750215920009DT67590675900000032847800135800000033080013576759003160900011800061060820230000000043116023000000000028454461046XXXXXX4769                         NY 2 0 N               N840000000000431      IL  05DNDAYDREAMS SMOKE WORLD LLC012918    DB84000000000431 N  599378480415                            000000000+                     09580                                Y          342   0000000000000.00 0000000.00   0000000.00                             000000000000000                                                                                                                                                     01418  000000000000 0000000000000.22     00050 00000                  
08899760215920001G2675906759000000328478001358000000330MCALLEN                  TX           5 D                00                                      NNNN                          000000000000                                                                   78480415                                                                                                                                                                                                                                                                                                                                                                                                                                               
08899770215920010DT67590675900000032847800135800000033080013576759003160900011800079060820230000000432916023000000000028454414446XXXXXX3498                         NY 2 0 N               N840000000004329      IL  05DNDAYDREAMS SMOKE WORLD LLC288167    DB84000000004329 N  599378480415                            000000000+                     09590                                N          279   0000000000000.00 0000000.00   0000000.00                             000000000000000                                                                                                                                                     01418  000000000000 0000000000000.50     00800 00000                  
08899780215920001G2675906759000000328478001358000000330MCALLEN                  TX           5 D                00                                      NNNN                          000000000000                                                                   78480415                                                                                                                                                                                                                                                                                                                                                                                                                                               
08899790215920011DT67590675900000032847800135800000033080013576759003160900011800087060820230000000054016023000000000028454440393XXXXXX7698                         NY 2 0 N               N840000000000540      IL  05DNDAYDREAMS SMOKE WORLD LLC164238    DB84000000000540 N  599378480415                            000000000+                     09576                                N          346   0000000000000.00 0000000.00   0000000.00                             000000000000000                                                                                                                                                     01418  000000000000 0000000000000.21     01150 00000                  
08899800215920001G2675906759000000328478001358000000330MCALLEN                  TX           5 P                00                                      NNNN                          000000000000                                                                   78480415                                                                                                                                                                                                                                                                                                                                                                                                                                               
08899810215920012DT67590675900000032847800135800000033080013576759003160900011800103060820230000000270516023000000000028454486701XXXXXX6954                         NY 2 0 N               N840000000002705      IL  90DNDAYDREAMS SMOKE WORLD LLC889379    DB84000000002705 N  599378480415                            000000000+                     09576                                N          346   0000000000000.00 0000000.00   0000000.00                             000000000000000                                                                                                                                                     01418  000000000000 0000000000000.46     01150 00000                  
08899820215920001G2675906759000000328478001358000000330MCALLEN                  TX           5 P                00                                      NNNN                          000000000000                                                                   78480415                                                                                                                                                                                                                                                                                                                                                                                                                                               
08899830215920013BH6759067590000003284780013580000090170609202316023000000000032011    0000090001230013N8001356759C06112023023                                                                                                                                                                                                                                                                                                                                                                                                                                                                                                                                                                                              
08899840215920014DT67590675900000032847800135800000010180013524001193160900012300090060820230000000162316023000000000032011406095XXXXXX8730       VS11    0001111   NYV1 A E303160056696865N8400000000016232PWP00    05DNDAYDREAMS SMOKE WORLD LLC02890B    VS84000000001623 N  599378415303                            000000000+                B CB 12111                     000000000  N000000000 495   0000000000000.00 0000000.00   0000000.00                             000000000000000                                                                                                                                                     01418 A000000000000 0000000000000.37     01650 01000                  
08899850215920001E167590675900000032847800135800000010100E0F8C80299 00000000000.004040404040404040404040404040404040404040404040404006011203A08018000000000000000000404040404040404040404040404040  000208401800800000800023060821FE2BFA82166ABC255252FF404040400840A000000003101000000000000000000061783E080082000000000000000000004040405E40404040 000000016.23 000000000.005E00000000000000000000    80                                                                                                                                                                                                                                                                                                                  
08899860215920002G2675906759000000328478001358000000101MCALLEN                  TX           5 C                00                                      NNNN00 Y 00                   000000000000                                                                   78415303                                                                                                                                                                                                                                                                                                                                                                                                                                               
08899870215920015DT67590675900000032847800135800000010180013524001193160900012300116060820230000000086516023000000000032011441707XXXXXX5580       VK04VS111111111   NYV1 A E303160134457648N840000000000865VQVZ00    07DNDAYDREAMS SMOKE WORLD LLC015396    VD84000000000865 N  599378415303                            000000000+                F PF 08165                     000000000  N000000000       0000000000000.00 0000000.00   0000000.00                             000000000000000                                                                                                                                                     01418 F000000000000 0000000000000.19     01600 00500                  
08899880215920001E167590675900000032847800135800000010100404040002C 00000000000.00404040404040404040404040404040404040404040404040401F42FF32A00000000010030273000000004000000000000000000000000000  000008400060000000000023060884C4A4A046549CB5BB9DAE70404040400840A0000000031010000000000000000000F63542870086000000000000000000004040404040404040 000000008.65 000000000.004040400000000000000000    80                                                                                                                                                                                                                                                                                                                  
08899890215920002G2675906759000000328478001358000000101MCALLEN                  TX           5 P                00                                      NNNN00 N 00                   000000000000                                                                   78415303                                                                                                                                                                                                                                                                                                                                                                                                                                               
08899900215920016DT67590675900000032847800135800000033080013576759003160900012300012060820230000000284016023000000000032011440393XXXXXX1268                         NY 2 0 N               N840000000002840      IL  07DNDAYDREAMS SMOKE WORLD LLC086686    DB84000000002840 N  599378415303                            000000000+                     09576                                N          346   0000000000000.00 0000000.00   0000000.00                             000000000000000                                                                                                                                                     01418  000000000000 0000000000000.48     01150 00000                  
08899910215920001G2675906759000000328478001358000000330MCALLEN                  TX           5 P                00                                      NNNN                          000000000000                                                                   78415303                                                                                                                                                                                                                                                                                                                                                                                                                                               
08899920215920017DT67590675900000032847800135800000033080013576759003160900012300020060820230000000248916023000000000032011441707XXXXXX9255                         NY 2 0 N               N840000000002489      IL  07DNDAYDREAMS SMOKE WORLD LLC924058    DB84000000002489 N  599378415303                            000000000+                     09576                                N          346   0000000000000.00 0000000.00   0000000.00                             000000000000000                                                                                                                                                     01418  000000000000 0000000000000.44     01150 00000                  
08899930215920001G2675906759000000328478001358000000330MCALLEN                  TX           5 P                00                                      NNNN                          000000000000                                                                   78415303                                                                                                                                                                                                                                                                                                                                                                                                                                               
08899940215920018DT67590675900000032847800135800000033080013576759003160900012300038060820230000000226116023000000000032011434258XXXXXX0223                         NY 2 0 N               N840000000002261      IL  05DNDAYDREAMS SMOKE WORLD LLC089312    DB84000000002261 N  599378415303                            000000000+                     09580                                Y          342   0000000000000.00 0000000.00   0000000.00                             000000000000000                                                                                                                                                     01418  000000000000 0000000000000.23     00050 00000                  
08899950215920001G2675906759000000328478001358000000330MCALLEN                  TX           5 D                00                                      NNNN                          000000000000                                                                   78415303                                                                                                                                                                                                                                                                                                                                                                                                                                               
08899960215920019DT67590675900000032847800135800000033080013576759003160900012300046060820230000000270516023000000000032011474472XXXXXX0164                         NY 2 0 N               N840000000002705      IL  07DNDAYDREAMS SMOKE WORLD LLC132513    DB84000000002705 N  599378415303                            000000000+                     09580                                Y          342   0000000000000.00 0000000.00   0000000.00                             000000000000000                                                                                                                                                     01418  000000000000 0000000000000.23     00050 00000                  
08899970215920001G2675906759000000328478001358000000330MCALLEN                  TX           5 D                00                                      NNNN                          000000000000                                                                   78415303                                                                                                                                                                                                                                                                                                                                                                                                                                               
08899980215920020DT67590675900000032847800135800000033080013576759003160900012300053060820230000000324616023000000000032011467010XXXXXX5864                         NY 2 0 N               N840000000003246      IL  07DNDAYDREAMS SMOKE WORLD LLC839073    DB84000000003246 N  599378415303                            000000000+                     09580                                Y          342   0000000000000.00 0000000.00   0000000.00                             000000000000000                                                                                                                                                     01418  000000000000 0000000000000.24     00050 00000                  
08899990215920001G2675906759000000328478001358000000330MCALLEN                  TX           5 D                00                                      NNNN                          000000000000                                                                   78415303                                                                                                                                                                                                                                                                                                                                                                                                                                               
08900000215920021DT67590675900000032847800135800000033080013576759003160900012300061060820230000000324616023000000000032011424840XXXXXX1371                         NY 2 0 N               N840000000003246      IL  05DNDAYDREAMS SMOKE WORLD LLC037812    DB84000000003246 N  599378415303                            000000000+                     09576                                N          346   0000000000000.00 0000000.00   0000000.00                             000000000000000                                                                                                                                                     01418  000000000000 0000000000000.52     01150 00000                  
08900010215920001G2675906759000000328478001358000000330MCALLEN                  TX           5 P                00                                      NNNN                          000000000000                                                                   78415303                                                                                                                                                                                                                                                                                                                                                                                                                                               
08900020215920022DT67590675900000032847800135800000033080013576759003160900012300079060820230000000043216023000000000032011434769XXXXXX8016                         NY 2 0 N               N840000000000432      IL  07DNDAYDREAMS SMOKE WORLD LLC092221    DB84000000000432 N  599378415303                            000000000+                     09580                                Y          342   0000000000000.00 0000000.00   0000000.00                             000000000000000                                                                                                                                                     01418  000000000000 0000000000000.22     00050 00000                  
08900030215920001G2675906759000000328478001358000000330MCALLEN                  TX           5 D                00                                      NNNN                          000000000000                                                                   78415303                                                                                                                                                                                                                                                                                                                                                                                                                                               
08900040215920023DT67590675900000032847800135800000033080013576759003160900012300087060820230000000404516023000000000032011498503XXXXXX1066                         NY 2 0 N               N840000000004045      IL  05DNDAYDREAMS SMOKE WORLD LLC040443    DB84000000004045 N  599378415303                            000000000+                     09573                                N          121   0000000000000.00 0000000.00   0000000.00                             000000000000000                                                                                                                                                     01418  000000000000 0000000000000.47     00800 00000                  
08900050215920001G2675906759000000328478001358000000330MCALLEN                  TX           5 D                00                                      NNNN                          000000000000                                                                   78415303                                                                                                                                                                                                                                                                                                                                                                                                                                               
08900060215920024DT67590675900000032847800135800000033080013576759003160900012300103060820230000000357016023000000000032011414446XXXXXX1124                         NY 2 0 N               N840000000003570      IL  05DNDAYDREAMS SMOKE WORLD LLC296030    DB84000000003570 N  599378415303                            000000000+                     09590                                N          279   0000000000000.00 0000000.00   0000000.00                             000000000000000                                                                                                                                                     01418  000000000000 0000000000000.44     00800 00000                  
08900070215920001G2675906759000000328478001358000000330MCALLEN                  TX           5 D                00                                      NNNN                          000000000000                                                                   78415303                                                                                                                                                                                                                                                                                                                                                                                                                                               
08900080215920025DT67590675900000032847800135800000033080013576759003160900012300129060820230000000415316023000000000032011487917XXXXXX7194                         NY 2 0 N               N840000000004153      IL  05DNDAYDREAMS SMOKE WORLD LLC795885    DB84000000004153 N  599378415303                            000000000+                     09573                                N          121   0000000000000.00 0000000.00   0000000.00                             000000000000000                                                                                                                                                     01418  000000000000 0000000000000.48     00800 00000                  
08900090215920001G2675906759000000328478001358000000330MCALLEN                  TX           5 D                00                                      NNNN                          000000000000                                                                   78415303                                                                                                                                                                                                                                                                                                                                                                                                                                               
08900100215920026DT67590675900000032847800135800000033080013576759003160900012300137060820230000000053616023000000000032011555753XXXXXX4258                         NY 2 0 N               N840000000000536      IL  05DNDAYDREAMS SMOKE WORLD LLC022299    DB84000000000536 N  599378415303                            000000000+                     09573                                N          121   0000000000000.00 0000000.00   0000000.00                             000000000000000                                                                                                                                                     01418  000000000000 0000000000000.19     00800 00000                  
08900110215920001G2675906759000000328478001358000000330MCALLEN                  TX           5                  00                                      NNNN                          000000000000                                                                   78415303                                                                                                                                                                                                                                                                                                                                                                                                                                               
08900120215920027BH6759067590000003284780013580000090170609202316023000000000046762    0000090001180016N8001356759C06112023018                                                                                                                                                                                                                                                                                                                                                                                                                                                                                                                                                                                              
08900130215920028DT67590675900000032847800135800000010180013524001193160900011800033060820230000000078116023000000000046762421783XXXXXX6059       VK04VS111111111   NYV1 A E583159587851351N840000000000781HKJK00    05DNDAYDREAMS SMOKE WORLD LLC017489    VS84000000000781 N  599378480426                            000000000+                A CA 12110                     000000000  N000000000 493   0000000000000.00 0000000.00   0000000.00                             000000000000000                                                                                                                                                     01418 F000000000000 0000000000000.22     01510 01000                  
08900140215920001E167590675900000032847800135800000010100E0F8C80007 00000000000.004040404040404040404040404040404040404040404040404006011203A0A000000000000000000000404040404040404040404040404040  0000084018008000008000230608FCAD67234A605EB79FFABE6E404040400840A0000000031010000000000000000000A566718F0080000000000000000000004040405E40404040 000000007.81 000000000.005E00000000000000000000    80                                                                                                                                                                                                                                                                                                                  
08900150215920002G2675906759000000328478001358000000101MCALLEN                  TX           5 C                00                                      NNNN00 N 00                   000000000000                                                                   78480426                                                                                                                                                                                                                                                                                                                                                                                                                                               
08900160215920029DT67590675900000032847800135800000010180013573011003160900011800070060820230000000357116023000000000046762379294XXXXX1000                          NY 1 0 N008213992567066N840000000003571          05DNDAYDREAMS SMOKE WORLD LLC841620    AM84000000003571 N  599378480426                            000000000+51010155434C 258     11261                     000000000                   0000000000000.00 0000000.00   0000000.00                             000000000000000 61248972086759675900000032847 DAYDREAMS SMOKE WORLD LLC900 N 10TH ST            9563387102      78501     DAYDREAMSSMOKEWORLD@GMAIL.COM             01418  000000000000 0000000000000.67     01600 00000                  
08900170215920001E167590675900000032847800135800000010100E0F8C80069 00000000000.0040404040404040404040404040404040404040404040404040065A0103A0A006000000000000000000404040404040404040404040404040  000008403C0000000080002306088FD738A4259172BB05C6DEFE404040400840A00000002501080100000000000000002D1A82B4FF3351C730300000000000004040405E40404040 000000035.71 000000000.005E03000000000000000000    80                                                                                                                                                                                                                                                                                                                  
08900180215920002G2675906759000000328478001358000000101MCALLEN                  TX           5                  00                                      NNNN                          000000000000                                                                   78480426                                                                                                                                                                                                                                                                                                                                                                                                                                               
08900190215920030DT67590675900000032847800135800000010180013577287283160900011800092060820230000000162116023000000000046762517805XXXXXX7613       MS02WI09          NY 1 0 AMWEKG65010608  N840000000001621          05DNDAYDREAMS SMOKE WORLD LLC07006P    MC84000000001621 N  599378480426                            000000000+M10101C5434C    MWE  00739                     000000000  N                0000000000000.00 0000000.00   0000000.00                             000000000000000                                                                                                                                                   B101418  000000000000 0000000000000.47     02300 01000                  
08900200215920001E167590675900000032847800135800000010100E0F8C80017 00000000000.00404040404040404040404040404040404040404040404040400110A04001220000000000000000000000FF00000000000000000000000000  00020840390000000080002306083BD4FB06C0863729788AB6CC404040400840A000000004101000000000000000000093C3B0D16D8BCD3E00120000000000004040401E40404040 000000016.21 000000000.001E03000000000000000000    80                                                                                                                                                                                                                                                                                                                  
08900210215920002G2675906759000000328478001358000000101MCALLEN                  TX           5 E                                                        NNNN              000000000000000000000000                        7                                          78480426                                                                                                                                                                                                                                                                                                                                                                                                                                               
08900220215920031DT67590675900000032847800135800000010180013524001193160900011800124060820230000000038816023000000000046762474472XXXXXX9446       VK04VS111111111   NYV1 A E383160118163919N84000000000038873WR00    05DNDAYDREAMS SMOKE WORLD LLC121664    VD84000000000388 N  599378480426                            000000000+                F DF 10439                     000000000  Y000000000 331   0000000000000.00 0000000.00   0000000.00                             000000000000000                                                                                                                                                     01418 F000000000000 0000000000000.22     00050 02200                  
08900230215920001E167590675900000032847800135800000010100E0F8C80012 00000000000.004040404040404040404040404040404040404040404040404006021203A08000000000000000000000404040404040404040404040404040  000008401800800000800023060843BBFB403298357FD25EFF26404040400840A0000000031010000000000000000000404060500080000020200000000000004040405E40404040 000000003.88 000000000.005E00000000000000000000    80                                                                                                                                                                                                                                                                                                                  
08900240215920002G2675906759000000328478001358000000101MCALLEN                  TX           5 D                00                                      NNNN00 N 00                   000000000000                                                                   78480426                                                                                                                                                                                                                                                                                                                                                                                                                                               
08900250215920032DT67590675900000032847800135800000033080013576759003160900011800012060820230000000054016023000000000046762443045XXXXXX7245                         NY 2 0 N               N840000000000540      IL  05DNDAYDREAMS SMOKE WORLD LLC323550    DB84000000000540 N  599378480426                            000000000+                     09580                                Y          342   0000000000000.00 0000000.00   0000000.00                             000000000000000                                                                                                                                                     01418  000000000000 0000000000000.22     00050 00000                  
08900260215920001G2675906759000000328478001358000000330MCALLEN                  TX           5 D                00                                      NNNN                          000000000000                                                                   78480426                                                                                                                                                                                                                                                                                                                                                                                                                                               
08900270215920033DT67590675900000032847800135800000033080013576759003160900011800020060820230000000032216023000000000046762440393XXXXXX8927                         NY 2 0 N               N840000000000322      IL  07DNDAYDREAMS SMOKE WORLD LLC343239    DB84000000000322 N  599378480426                            000000000+                     09576                                N          346   0000000000000.00 0000000.00   0000000.00                             000000000000000                                                                                                                                                     01418  000000000000 0000000000000.19     01150 00000                  
08900280215920001G2675906759000000328478001358000000330MCALLEN                  TX           5 P                00                                      NNNN                          000000000000                                                                   78480426                                                                                                                                                                                                                                                                                                                                                                                                                                               
08900290215920034DT67590675900000032847800135800000033080013576759003160900011800046060820230000000236416023000000000046762434258XXXXXX3317                         NY 2 0 N               N840000000002364      IL  05DNDAYDREAMS SMOKE WORLD LLC001517    DB84000000002364 N  599378480426                            000000000+                     09580                                Y          342   0000000000000.00 0000000.00   0000000.00                             000000000000000                                                                                                                                                     01418  000000000000 0000000000000.23     00050 00000                  
08900300215920001G2675906759000000328478001358000000330MCALLEN                  TX           5 D                00                                      NNNN                          000000000000                                                                   78480426                                                                                                                                                                                                                                                                                                                                                                                                                                               
08900310215920035DT67590675900000032847800135800000033080013576759003160900011800053060820230000000333116023000000000046762527515XXXXXX0272                         NY41 0 N               N840000000003331      ME  07DNDAYDREAMS SMOKE WORLD LLC144057    DB84000000003331 N  599378480426                            000000000+                     09601                                1          MA1   0000000000000.00 0000000.00   0000000.00                             000000000000000                                                                                                                                                     01418  000000000000 0000000000000.24     00050 00000                  
08900320215920001G2675906759000000328478001358000000330MCALLEN                  TX           5 D                00                                      NNNN                          000000000000                                                                   78480426                                                                                                                                                                                                                                                                                                                                                                                                                                               
08900330215920036DT67590675900000032847800135800000033080013576759003160900011800061060820230000000541116023000000000046762527515XXXXXX1366                         NY42 0 N               N840000000005411      ME  05DNDAYDREAMS SMOKE WORLD LLC181937    DB84000000005411 N  599378480426                            000000000+                     09601                                1          MA1   0000000000000.00 0000000.00   0000000.00                             000000000000000                                                                                                                                                     01418  000000000000 0000000000000.25     00050 00000                  
08900340215920001G2675906759000000328478001358000000330MCALLEN                  TX           5 D                00                                      NNNN                          000000000000                                                                   78480426                                                                                                                                                                                                                                                                                                                                                                                                                                               
08900350215920037DT67590675900000032847800135800000033080013576759003160900011800087060820230000000324616023000000000046762434258XXXXXX5410                         NY 2 0 N               N840000000003246      IL  05DNDAYDREAMS SMOKE WORLD LLC078435    DB84000000003246 N  599378480426                            000000000+                     09580                                Y          342   0000000000000.00 0000000.00   0000000.00                             000000000000000                                                                                                                                                     01418  000000000000 0000000000000.24     00050 00000                  
08900360215920001G2675906759000000328478001358000000330MCALLEN                  TX           5 D                00                                      NNNN                          000000000000                                                                   78480426                                                                                                                                                                                                                                                                                                                                                                                                                                               
08900370215920038DT67590675900000032847800135800000033080013576759003160900011800103060820230000000690416023000000000046762510805XXXXXX9766                         NY 2 0 N               N840000000006904      IL  05DNDAYDREAMS SMOKE WORLD LLC093201    DB84000000006904 N  599378480426                            000000000+                     09580                                1          342   0000000000000.00 0000000.00   0000000.00                             000000000000000                                                                                                                                                     01418  000000000000 0000000000000.25     00050 00000                  
08900380215920001G2675906759000000328478001358000000330MCALLEN                  TX           5 D                00                                      NNNN                          000000000000                                                                   78480426                                                                                                                                                                                                                                                                                                                                                                                                                                               
08900390215920039DT67590675900000032847800135800000033080013576759003160900011800111060820230000000497816023000000000046762467010XXXXXX7554                         NY 2 0 N               N840000000004978      IL  05DNDAYDREAMS SMOKE WORLD LLC886489    DB84000000004978 N  599378480426                            000000000+                     09580                                Y          342   0000000000000.00 0000000.00   0000000.00                             000000000000000                                                                                                                                                     01418  000000000000 0000000000000.24     00050 00000                  
08900400215920001G2675906759000000328478001358000000330MCALLEN                  TX           5 D                00                                      NNNN                          000000000000                                                                   78480426                                                                                                                                                                                                                                                                                                                                                                                                                                               
08900410215920040DT67590675900000032847800135800000033080013576759003160900011800137060820230000000270216023000000000046762467010XXXXXX6138                         NY 2 0 N               N840000000002702      IL  05DNDAYDREAMS SMOKE WORLD LLC656660    DB84000000002702 N  599378480426                            000000000+                     09580                                Y          342   0000000000000.00 0000000.00   0000000.00                             000000000000000                                                                                                                                                     01418  000000000000 0000000000000.23     00050 00000                  
08900420215920001G2675906759000000328478001358000000330MCALLEN                  TX           5 D                00                                      NNNN                          000000000000                                                                   78480426                                                                                                                                                                                                                                                                                                                                                                                                                                               
08900430215920041DT67590675900000032847800135800000033080013576759003160900011800145060820230000000654816023000000000046762531915XXXXXX3593                         NY42 0 N               N840000000006548      ME  90DNDAYDREAMS SMOKE WORLD LLC803665    DB84000000006548 N  599378480426                            000000000+                     09597                                N                0000000000000.00 0000000.00   0000000.00                             000000000000000                                                                                                                                                     01418  000000000000 0000000000000.74     00900 00000                  
08900440215920001G2675906759000000328478001358000000330MCALLEN                  TX           5 D                00                                      NNNN                          000000000000                                                                   78480426                                                                                                                                                                                                                                                                                                                                                                                                                                               
08900450215920042DT67590675900000032847800135800000033080013576759003160900011800152060820230000000205516023000000000046762440393XXXXXX6052                         NY 2 0 N               N840000000002055      IL  05DNDAYDREAMS SMOKE WORLD LLC178628    DB84000000002055 N  599378480426                            000000000+                     09576                                N          346   0000000000000.00 0000000.00   0000000.00                             000000000000000                                                                                                                                                     01418  000000000000 0000000000000.39     01150 00000                  
08900460215920001G2675906759000000328478001358000000330MCALLEN                  TX           5 P                00                                      NNNN                          000000000000                                                                   78480426                                                                                                                                                                                                                                                                                                                                                                                                                                               
08900470215920043DT67590675900000032847800135800000033080013576759003160900011800160060920230000000200016023000000000046762451440XXXXXX5809                         NY 2 0 N               N840000000002000      IL  90DNDAYDREAMS SMOKE WORLD LLC563198    DB84000000002000 N  599378480426                            000000000+                     09576                                N          346   0000000000000.00 0000000.00   0000000.00                             000000000000000                                                                                                                                                     01418  000000000000 0000000000000.38     01150 00000                  
08900480215920001G2675906759000000328478001358000000330MCALLEN                  TX           5 P                00                                      NNNN                          000000000000                                                                   78480426                                                                                                                                                                                                                                                                                                                                                                                                                                               
08900490215920044BH6759067590000000288180088880000090170609202316023000000000120637    0000090001350023N8008886759C06112023135                                                                                                                                                                                                                                                                                                                                                                                                                                                                                                                                                                                              
08900500215920045DT67590675900000002881800888800000010180088824001193160900013500011060920230000000513516023000000000120637419090XXXXXX6989       VS11    0001111   NYV1 A E583160509007628N840000000005135DRSR00    05DNHAPPY HIPPIE             875730    VD84000000005135 N  549976487134                            000000000+                F DF 00381                     000000000  N000000000       0000000000000.00 0000000.00   0000000.00                             000000000000000                                                                                                                                                     01418 A000000000000 0000000000000.56     00800 01500                  
08900510215920001E167590675900000002881800888800000010100E0F8C80046 00000000000.004040404040404040404040404040404040404040404040404006011203A0A000000000000000000000404040404040404040404040404040  00010840180080800080002306092C0529405761228B56A24120404040400840A00000000310100000000000000000003F3F23B60080000000000000000000004040401E40404040 000000051.35 000000000.001E00000000000000000000    80                                                                                                                                                                                                                                                                                                                  
08900520215920002G2675906759000000028818008888000000101SEVIERVILLE              TN           5 D                00                                      NNNN00 N 00                   000000000000                                                                   76487134                                                                                                                                                                                                                                                                                                                                                                                                                                               
08900530215920046DT67590675900000002881800888800000010180088877287283160900013500021060920230000000750616023000000000120637559427XXXXXX6399       MS02WI09          NY 1 0 AMDJAJPP9U0609  N840000000007506          05DNHAPPY HIPPIE             282505    MD84000000007506 N  549976487134                            000000000+M10101C5434C    MDJ  10815                     000000000  1                0000000000000.00 0000000.00   0000000.00                             000000000000000                                                                                                                                                   B101418  000000000000 0000000000000.26     00050 02200                  
08900540215920001E167590675900000002881800888800000010100E0F8C804E6 00000000000.00404040404040404040404040404040404040404040404040400110A00001220000000000000000000000FF00000000000000000000000000  00000840180080000080002306097CD685A0CD0E24CFADF51662404040400840A00000000410100000000000000000003ABEFBCEB601820100120000000000004040401E40404040 000000075.06 000000000.001E03000000000000000000    80                                                                                                                                                                                                                                                                                                                  
08900550215920002G2675906759000000028818008888000000101SEVIERVILLE              TN           5 J                                                        NNNN              000000000000000000000000                        7                                          76487134                                                                                                                                                                                                                                                                                                                                                                                                                                               
08900560215920047DT67590675900000002881800888800000010180088877287283160900013500039060920230000000230316023000000000120637535041XXXXXX7865       MS02WI09          NY 1 0 AMDJJL8NBO0609  N840000000002303          05DNHAPPY HIPPIE             003552    MD84000000002303 N  549976487134                            000000000+M10101C5434C    MDJ  00402                     000000000  N                0000000000000.00 0000000.00   0000000.00                             000000000000000                                                                                                                                                     01418  000000000000 0000000000000.39     01050 01500                  
08900570215920001E167590675900000002881800888800000010100E0F8C80008 00000000000.00404040404040404040404040404040404040404040404040400110A00001220000000000000000000000FF00000000000000000000000000  000108401800800000800023060926653D7E32217633F3ED9793404040400840A0000000041010000000000000000000C043F1E9418D51A800120000000000004040401E40404040 000000023.03 000000000.001E03000000000000000000    80                                                                                                                                                                                                                                                                                                                  
08900580215920002G2675906759000000028818008888000000101SEVIERVILLE              TN           5 J                                                        NNNN              000000000000000000000000                                                                   76487134                                                                                                                                                                                                                                                                                                                                                                                                                                               
08900590215920048DT67590675900000002881800888800000010180088877287283160900013500047060920230000000329316023000000000120637517805XXXXXX9179       MS02WI09          NY 1 0 AMWEBMLL9U0609  N840000000003293          05DNHAPPY HIPPIE             02068P    MC84000000003293 N  549976487134                            000000000+M10101C5434C    MWE  00743                     000000000  N                0000000000000.00 0000000.00   0000000.00                             000000000000000                                                                                                                                                   B101418  000000000000 0000000000000.80     02300 00400                  
08900600215920001E167590675900000002881800888800000010100E0F8C800A3 00000000000.00404040404040404040404040404040404040404040404040400110A04001220000000000000000000000FF00000000000000000000000000  00010840390000000080002306098E51958C361C974D4741B09C404040400840A0000000041010000000000000000000905410E1CCEF378400120000000000004040401E40404040 000000032.93 000000000.001E03000000000000000000    80                                                                                                                                                                                                                                                                                                                  
08900610215920002G2675906759000000028818008888000000101SEVIERVILLE              TN           5 E                                                        NNNN              000000000000000000000000                        7                                          76487134                                                                                                                                                                                                                                                                                                                                                                                                                                               
08900620215920049DT67590675900000002881800888800000010180088824001193160900013500052060920230000000325816023000000000120637422921XXXXXX9132       VS11    0001111   NYV1 A E583160549880428N840000000003258KSR800    05DNHAPPY HIPPIE             040589    VD84000000003258 N  549976487134                            000000000+                F DF 00381                     000000000  N000000000       0000000000000.00 0000000.00   0000000.00                             000000000000000                                                                                                                                                     01418 A000000000000 0000000000000.41     00800 01500                  
08900630215920001E167590675900000002881800888800000010100E0F8C8006D 00000000000.004040404040404040404040404040404040404040404040404006011203A08000000000000000000000404040404040404040404040404040  00000840180080800080002306096D4D2922DD8A45C882EAAFDC404040400840A000000003101000000000000000000056A219360382000000000000000000004040401E40404040 000000032.58 000000000.001E00000000000000000000    80                                                                                                                                                                                                                                                                                                                  
08900640215920002G2675906759000000028818008888000000101SEVIERVILLE              TN           5 D                00                                      NNNN00 N 00                   000000000000                                                                   76487134                                                                                                                                                                                                                                                                                                                                                                                                                                               
08900650215920050DT67590675900000002881800888800000010180088824001193160900013500060060920230000000339916023000000000120637445101XXXXXX2166       VS11    0001111   NYV1 A E463160554092453N840000000003399D8Q800    05DNHAPPY HIPPIE             072236    VD84000000003399 N  549976487134                            000000000+                F DF 10433                     000000000  Y000000000 338   0000000000000.00 0000000.00   0000000.00                             000000000000000                                                                                                                                                     01418 A000000000000 0000000000000.24     00050 02200                  
08900660215920001E167590675900000002881800888800000010100E0F8C80035 00000000000.004040404040404040404040404040404040404040404040404006011203A00000000000000000000000404040404040404040404040404040  0001084018008080008000230609090D3EFF8A03825F0BDCE4FD404040400840A00000000310100000000000000000003F9829BD0082000000000000000000004040401E40404040 000000033.99 000000000.001E00000000000000000000    80                                                                                                                                                                                                                                                                                                                  
08900670215920002G2675906759000000028818008888000000101SEVIERVILLE              TN           5 D                00                                      NNNN00 N 00                   000000000000                                                                   76487134                                                                                                                                                                                                                                                                                                                                                                                                                                               
08900680215920051DT67590675900000002881800888800000010180088877287283160900013500070060920230000000885516023000000000120637558158XXXXXX8211                         NY 1 0 AMDBCB1LBO0609  N840000000008855          05DNHAPPY HIPPIE             2DIZUW    MD84000000008855 NP1549976487134                            000000000+M10101C5434C    MDB  00062                     000000000  N                0000000000000.00 0000000.00   0000000.00                             000000000000000                                                                                                                                                   B101418  000000000000 0000000000002.45     02650 01000                  
08900690215920001P1675906759000000028818008888000000101                                                          000000000000          3000            814767769                                                                                                                                                                                                                                                                                                                                                                                                                                                                                                                                                            
08900700215920002E167590675900000002881800888800000010100E0F8C80405 00000000000.00404040404040404040404040404040404040404040404040400110A04001220000000000000000000000FF00000000000000000000000000  0000084039000000008000230609DEBB1385DB2925FB3733EDD8404040400840A00000000410100000000000000000003D0024D5AD148A5C00100000000000004040401E40404040 000000088.55 000000000.001E03000000000000000000    80                                                                                                                                                                                                                                                                                                                  
08900710215920003G2675906759000000028818008888000000101SEVIERVILLE              TN           5 B                                    814767769           YNNN              000000000000000000000000                        7                                          76487134                                                                                                                                                                                                                                                                                                                                                                                                                                               
08900720215920052DT67590675900000002881800888800000010180088877287283160900013500088060920230000000592416023000000000120637511006XXXXXX8648       MS02WI09          NY 2 0 AMDJPT8JBS0609  N840000000005924          05DNHAPPY HIPPIE             725629    MD84000000005924 N  549976487134                            000000000+M10101C1334C    MDJ  00402                     000000000  N                0000000000000.00 0000000.00   0000000.00                             000000000000000                                                                                                                                                     01418  000000000000 0000000000000.77     01050 01500                  
08900730215920001E167590675900000002881800888800000010100E0F8C800C7 00000000000.00404040404040404040404040404040404040404040404040400110A00001220000000000000000000000FF00000000000000000000000000  0000084018008000048000230609EEAEF3F7FCCBA59EF5632692404040400840A0000000041010000000000000000000C73D2CCCCF0A62BF03120000000000004040400240404040 000000059.24 000000000.000203000000000000000000    80                                                                                                                                                                                                                                                                                                                  
