02849260151390002BH6759067590000000288180088880000090170106202300623000000000084938    0000090001120016N8008886759C01082023                                                                                                                                                                                                                                                                                                                                                                                                                                                                                                                                                                                                 
02849270151390003DT67590675900000002881800888800000010180088824001193006900011200018010620230000000438800623000000000084938445115XXXXXX0841       VS11    0001111   NYV1 A E303006556751341N8400000000043888NDD00    05DNHAPPY HIPPIE             640248    VD84000000004388 N  549976487158                            000000000+                F DF 10433                     000000000  Y000000000 338   0000000000000.00 0000000.00   0000000.00                             000000000000000                                                                                                                                                     01418 A000000000000 0000000000000.24     00050 02200                  
02849280151390004DT67590675900000002881800888800000010180088824001193006900011200026010620230000000868900623000000000084938422921XXXXXX7734       PS01    0000000   NYV1 J N583006561748484N840000000008689JK6T00    01DNHAPPY HIPPIE             038175    VD84000000008689 N  549976487158                            000000000+                F DF 00425                     000000000  N000000010       0000000000000.00 0000000.00   0000000.00                             000000000000000                                                                                                                                                     01418  000000000000 0000000000001.72     01750 02000                  
02849290151390005DT67590675900000002881800888800000010180088824001193006900011200034010620230000000548800623000000000084938415978XXXXXX3096       VS11    0001111   NYV1 A E383006573782019N840000000005488FS5N00    05DNHAPPY HIPPIE             088987    VD84000000005488 N  549976487158                            000000000+                F DF 10433                     000000000  Y000000000 338   0000000000000.00 0000000.00   0000000.00                             000000000000000                                                                                                                                                     01418 A000000000000 0000000000000.25     00050 02200                  
02849300151390006DT67590675900000002881800888800000010180088824001193006900011200042010620230000000790000623000000000084938473336XXXXXX5051       VS11    0001111   NYV1 A E383006579836157N840000000007900XRH500    05DNHAPPY HIPPIE             090623    VD84000000007900 N  549976487158                            000000000+                F DF 00381                     000000000  N000000000       0000000000000.00 0000000.00   0000000.00                             000000000000000                                                                                                                                                     01418 A000000000000 0000000000000.78     00800 01500                  
02849310151390007DT67590675900000002881800888800000010180088824001193006900011200059010620230000000395000623000000000084938498503XXXXXX7895       VS11    0001111   NYV1 A E583006582691594N840000000003950DJHZ00    05DNHAPPY HIPPIE             088613    VD84000000003950 N  549976487158                            000000000+                F DF 00381                     000000000  N000000000       0000000000000.00 0000000.00   0000000.00                             000000000000000                                                                                                                                                     01418 A000000000000 0000000000000.47     00800 01500                  
02849320151390008DT67590675900000002881800888800000010180088824001193006900011200067010620230000000668300623000000000084938443238XXXXXX8270       VS11    0001111   NYV1 A E383006616457050N840000000006683XRKB00    07DNHAPPY HIPPIE             020725    VD84000000006683 N  549976487158                            000000000+                F DF 00381                     000000000  N000000000       0000000000000.00 0000000.00   0000000.00                             000000000000000                                                                                                                                                     01418 A000000000000 0000000000000.68     00800 01500                  
02849330151390009DT67590675900000002881800888800000010180088824001193006900011200075010620230000000757100623000000000084938436618XXXXXX1220       VS11    0001111   NYV1 A E303006659137850N8400000000075718X8Z00    05DNHAPPY HIPPIE             018267    VD84000000007571 N  549976487158                            000000000+                F DF 10433                     000000000  Y000000000 338   0000000000000.00 0000000.00   0000000.00                             000000000000000                                                                                                                                                     01418 A000000000000 0000000000000.26     00050 02200                  
02849340151390010DT67590675900000002881800888800000010180088824001193006900011200083010620230000000325800623000000000084938410801XXXXXX9806       VS11    0001111   NYV1 A E583006661865840N840000000003258BK2M00    05DNHAPPY HIPPIE             032306    VD84000000003258 N  549976487158                            000000000+                F DF 00381                     000000000  N000000000       0000000000000.00 0000000.00   0000000.00                             000000000000000                                                                                                                                                     01418 A000000000000 0000000000000.41     00800 01500                  
02849350151390011DT67590675900000002881800888800000010180088824001193006900011200091010620230000000651700623000000000084938419090XXXXXX9446       VS11    0001111   NYV1 A E583006706324997N840000000006517DL3V00    05DNHAPPY HIPPIE             536868    VD84000000006517 N  549976487158                            000000000+                F DF 00381                     000000000  N000000000       0000000000000.00 0000000.00   0000000.00                             000000000000000                                                                                                                                                     01418 A000000000000 0000000000000.67     00800 01500                  
02849360151390012DT67590675900000002881800888800000010180088877287283006900011200101010620230000000877800623000000000084938552486XXXXXX5239       MS02WI09          NY 1 0 AMWEUKK5RC0106  N840000000008778          05DNHAPPY HIPPIE             04172Z    MC84000000008778 N  549976487158                            000000000+M10101C5434C    MWE  00743                     000000000  N                0000000000000.00 0000000.00   0000000.00                             000000000000000                                                                                                                                                   B101418  000000000000 0000000000002.06     02300 00400                  
02849370151390013DT67590675900000002881800888800000010180088824001193006900011200117010620230000000207300623000000000084938419090XXXXXX3689       VS11    0001111   NYV1 A E583006714392189N8400000000020738G7L00    05DNHAPPY HIPPIE             537362    VD84000000002073 N  549976487158                            000000000+                F DF 00381                     000000000  N000000000       0000000000000.00 0000000.00   0000000.00                             000000000000000                                                                                                                                                     01418 A000000000000 0000000000000.32     00800 01500                  
02849380151390014DT67590675900000002881800888800000010180088824001193006900011200125010620230000000157600623000000000084938443238XXXXXX0990       VS11    0001111   NYV1 A E303006730204071N840000000001576Q5Z900    05DNHAPPY HIPPIE             051700    VD84000000001576 N  549976487158                            000000000+                F DF 00381                     000000000  N000000000       0000000000000.00 0000000.00   0000000.00                             000000000000000                                                                                                                                                     01418 A000000000000 0000000000000.28     00800 01500                  
02849390151390015DT67590675900000002881800888800000010180088824001193006900011200133010620230000000888500623000000000084938403784XXXXXX2092       VS11    0001111   NYV1 A E303006746241507N840000000008885S2HD00    05DNHAPPY HIPPIE             416034    VS84000000008885 N  549976487158                            000000000+                A CA 12110                     000000000  N000000000 493   0000000000000.00 0000000.00   0000000.00                             000000000000000                                                                                                                                                     01418 A000000000000 0000000000001.44     01510 01000                  
02849400151390016DT67590675900000002881800888800000010180088824001193006900011200141010620230000000325800623000000000084938443238XXXXXX9381       VS11    0001111   NYV1 A E463006761686285N840000000003258FWLF00    05DNHAPPY HIPPIE             060928    VD84000000003258 N  549976487158                            000000000+                F DF 00381                     000000000  N000000000       0000000000000.00 0000000.00   0000000.00                             000000000000000                                                                                                                                                     01418 A000000000000 0000000000000.41     00800 01500                  
02849410151390017DT67590675900000002881800888800000010180088877287283006900011200150010620230000000246800623000000000084938511953XXXXXX5228       MS02WI09          NY 1 0 AMDJC31IJK0106  N840000000002468          05DNHAPPY HIPPIE             031860    MD84000000002468 N  549976487158                            000000000+M10101C5434C    MDJ  00402                     000000000  N                0000000000000.00 0000000.00   0000000.00                             000000000000000                                                                                                                                                   B101418  000000000000 0000000000000.41     01050 01500                  
02849420151390018DT67590675900000002881800888800000010180088824001193006900011200166010620230000000345600623000000000084938419090XXXXXX7940       VS11    0001111   NYV1 A E383006774928617N8400000000034564XZ900    05DNHAPPY HIPPIE             541085    VD84000000003456 N  549976487158                            000000000+                F DF 00381                     000000000  N000000000       0000000000000.00 0000000.00   0000000.00                             000000000000000                                                                                                                                                     01418 A000000000000 0000000000000.43     00800 01500                  
02849430151390019BH6759067590000000288180088880000090170106202300623000000000129248    0000090001120025N8008886759C01082023                                                                                                                                                                                                                                                                                                                                                                                                                                                                                                                                                                                                 
02849440151390020DT67590675900000002881800888800000010180088824001193006900011200018010620230000000877800623000000000129248422921XXXXXX0663       VS11    0001111   NYV1 A E583006549252301N840000000008778M35P00    05DNHAPPY HIPPIE             036926    VD84000000008778 N  549976487134                            000000000+                F DF 00381                     000000000  N000000000       0000000000000.00 0000000.00   0000000.00                             000000000000000                                                                                                                                                     01418 A000000000000 0000000000000.85     00800 01500                  
02849450151390021DT67590675900000002881800888800000010180088824001193006900011200026010620230000000444200623000000000129248443238XXXXXX8457       VS11    0001111   NYV1 A E583006554481097N8400000000044422NT200    05DNHAPPY HIPPIE             002408    VD84000000004442 N  549976487134                            000000000+                F DF 00381                     000000000  N000000000       0000000000000.00 0000000.00   0000000.00                             000000000000000                                                                                                                                                     01418 A000000000000 0000000000000.51     00800 01500                  
02849460151390022DT67590675900000002881800888800000010180088824001193006900011200034010620230000000395000623000000000129248443238XXXXXX8457       VS11    0001111   NYV1 A E583006556124929N840000000003950D77H00    05DNHAPPY HIPPIE             002652    VD84000000003950 N  549976487134                            000000000+                F DF 00381                     000000000  N000000000       0000000000000.00 0000000.00   0000000.00                             000000000000000                                                                                                                                                     01418 A000000000000 0000000000000.47     00800 01500                  
02849470151390023DT67590675900000002881800888800000010180088824001193006900011200042010620230000000976300623000000000129248487917XXXXXX5992       VS11    0001111   NYV1 A E583006602243132N840000000009763M6JS00    05DNHAPPY HIPPIE             052225    VD84000000009763 N  549976487134                            000000000+                F DF 00381                     000000000  N000000000       0000000000000.00 0000000.00   0000000.00                             000000000000000                                                                                                                                                     01418 A000000000000 0000000000000.93     00800 01500                  
02849480151390024DT67590675900000002881800888800000010180088877287283006900011200051010620230000000739400623000000000129248511953XXXXXX9825       MS02WI09          NY 1 0 AMDJROWERD0106  N840000000007394          05DNHAPPY HIPPIE             087408    MD84000000007394 N  549976487134                            000000000+M10101C5434C    MDJ  00402                     000000000  N                0000000000000.00 0000000.00   0000000.00                             000000000000000                                                                                                                                                   B101418  000000000000 0000000000000.93     01050 01500                  
02849490151390025DT67590675900000002881800888800000010180088824001193006900011200067010620230000000395000623000000000129248422921XXXXXX9079       VS11    0001111   NYV1 A E303006606337118N8400000000039502VZK00    05DNHAPPY HIPPIE             042634    VD84000000003950 N  549976487134                            000000000+                F DF 00381                     000000000  N000000000       0000000000000.00 0000000.00   0000000.00                             000000000000000                                                                                                                                                     01418 A000000000000 0000000000000.47     00800 01500                  
02849500151390026DT67590675900000002881800888800000010180088824001193006900011200075010620230000000548500623000000000129248435547XXXXXX1579       VS11    0001111   NYV1 A E383006610170182N840000000005485K27L00    05DNHAPPY HIPPIE             068096    VD84000000005485 N  549976487134                            000000000+                F DF 10433                     000000000  Y000000000 338   0000000000000.00 0000000.00   0000000.00                             000000000000000                                                                                                                                                     01418 A000000000000 0000000000000.25     00050 02200                  
02849510151390027DT67590675900000002881800888800000010180088824001193006900011200083010620230000000329100623000000000129248482851XXXXXX7023       VS11    0001111   NYV1 A E463006614923085N8400000000032919QBL00    05DNHAPPY HIPPIE             057071    VD84000000003291 N  549976487134                            000000000+                F DF 10433                     000000000  Y000000000 338   0000000000000.00 0000000.00   0000000.00                             000000000000000                                                                                                                                                     01418 A000000000000 0000000000000.24     00050 02200                  
02849520151390028DT67590675900000002881800888800000010180088824001193006900011200091010620230000000790000623000000000129248422921XXXXXX7774       VS11    0001111   NYV1 A E383006618608837N840000000007900FVCV00    05DNHAPPY HIPPIE             043862    VD84000000007900 N  549976487134                            000000000+                F DF 00381                     000000000  N000000000       0000000000000.00 0000000.00   0000000.00                             000000000000000                                                                                                                                                     01418 A000000000000 0000000000000.78     00800 01500                  
02849530151390029DT67590675900000002881800888800000010180088824001193006900011200109010620230000000548800623000000000129248440393XXXXXX0506       VS11    0001111   NYV1 A E303006622832821N840000000005488BKS500    05DNHAPPY HIPPIE             713108    VD84000000005488 N  549976487134                            000000000+                F PF 08170                     000000000  N000000000       0000000000000.00 0000000.00   0000000.00                             000000000000000                                                                                                                                                     01418 A000000000000 0000000000000.78     01150 01500                  
02849540151390030DT67590675900000002881800888800000010180088824001193006900011200117010620230000001097300623000000000129248422921XXXXXX0372       VS11    0001111   NYV1 A E303006627461538N840000000010973M9JV00    05DNHAPPY HIPPIE             044748    VD84000000010973 N  549976487134                            000000000+                F DF 00381                     000000000  N000000000       0000000000000.00 0000000.00   0000000.00                             000000000000000                                                                                                                                                     01418 A000000000000 0000000000001.03     00800 01500                  
02849550151390031DT67590675900000002881800888800000010180088824001193006900011200125010620230000000329100623000000000129248414720XXXXXX9139       VS11    0001111   NYV1 A E303006631454044N840000000003291WKLL00    05DNHAPPY HIPPIE             06779C    VS84000000003291 N  549976487134                            000000000+                C CC 12112                     000000000  N000000000 497   0000000000000.00 0000000.00   0000000.00                             000000000000000                                                                                                                                                     01418 A000000000000 0000000000000.64     01650 01000                  
02849560151390032DT67590675900000002881800888800000010180088824001193006900011200133010620230000000770200623000000000129248403784XXXXXX2215       VS11    0001111   NYV1 A E463006636479098N840000000007702GVGT00    05DNHAPPY HIPPIE             116004    VS84000000007702 N  549976487134                            000000000+                D CD 12113                     000000000  N000000000 499   0000000000000.00 0000000.00   0000000.00                             000000000000000                                                                                                                                                     01418 A000000000000 0000000000001.72     02100 01000                  
02849570151390033DT67590675900000002881800888800000010180088824001193006900011200141010620230000000065600623000000000129248473702XXXXXX1752       VK04VS111111111   NYV1 A E583006645663506N8400000000006569P4300    05DNHAPPY HIPPIE             077844    VD84000000000656 N  549976487134                            000000000+                F DF 10439                     000000000  Y000000000 331   0000000000000.00 0000000.00   0000000.00                             000000000000000                                                                                                                                                     01418 F000000000000 0000000000000.22     00050 02200                  
02849580151390034DT67590675900000002881800888800000010180088824001193006900011200158010620230000000109600623000000000129248401171XXXXXX3316       VK04VS111111111   NYV1 A E303006647642897N840000000001096CVTP00    05DNHAPPY HIPPIE             025925    VD84000000001096 N  549976487134                            000000000+                F DF 00451                     000000000  N000000000 214   0000000000000.00 0000000.00   0000000.00                             000000000000000                                                                                                                                                     01418 F000000000000 0000000000000.21     01550 00400                  
02849590151390035DT67590675900000002881800888800000010180088824001193006900011200166010620230000000263400623000000000129248473702XXXXXX1752       VS11    0001111   NYV1 A E583006650410132N840000000002634JVSQ00    05DNHAPPY HIPPIE             046437    VD84000000002634 N  549976487134                            000000000+                F DF 10433                     000000000  Y000000000 338   0000000000000.00 0000000.00   0000000.00                             000000000000000                                                                                                                                                     01418 A000000000000 0000000000000.23     00050 02200                  
02849600151390036DT67590675900000002881800888800000010180088824001193006900011200174010620230000000263400623000000000129248401171XXXXXX3316       VS11    0001111   NYV1 A E583006653524231N840000000002634ND5P00    05DNHAPPY HIPPIE             030912    VD84000000002634 N  549976487134                            000000000+                F DF 00381                     000000000  N000000000       0000000000000.00 0000000.00   0000000.00                             000000000000000                                                                                                                                                     01418 A000000000000 0000000000000.36     00800 01500                  
02849610151390037DT67590675900000002881800888800000010180088824001193006900011200182010620230000000720800623000000000129248443264XXXXXX0719       VS11    0001111   NYV1 A E303006656446458N840000000007208CGF400    05DNHAPPY HIPPIE             006606    VD84000000007208 N  549976487134                            000000000+                F DF 10433                     000000000  Y000000000 338   0000000000000.00 0000000.00   0000000.00                             000000000000000                                                                                                                                                     01418 A000000000000 0000000000000.26     00050 02200                  
02849620151390038DT67590675900000002881800888800000010180088824001193006900011200190010620230000000197400623000000000129248415978XXXXXX6979       VS11    0001111   NYV1 A E463006658078271N840000000001974WPJX00    05DNHAPPY HIPPIE             073441    VD84000000001974 N  549976487134                            000000000+                F DF 10433                     000000000  Y000000000 338   0000000000000.00 0000000.00   0000000.00                             000000000000000                                                                                                                                                     01418 A000000000000 0000000000000.23     00050 02200                  
02849630151390039DT67590675900000002881800888800000010180088824001193006900011200208010620230000000112400623000000000129248480639XXXXXX6215       VK04VS111111111   NYV1 A E383006659660361N8400000000011243QCL00    05DNHAPPY HIPPIE             273792    VD84000000001124 N  549976487134                            000000000+                F DF 00451                     000000000  N000000000 214   0000000000000.00 0000000.00   0000000.00                             000000000000000                                                                                                                                                     01418 F000000000000 0000000000000.21     01550 00400                  
02849640151390040DT67590675900000002881800888800000010180088824001193006900011200216010620230000000393800623000000000129248422921XXXXXX7498       VS11    0001111   NYV1 A E583006670306721N840000000003938HG8S00    05DNHAPPY HIPPIE             049031    VD84000000003938 N  549976487134                            000000000+                F DF 00381                     000000000  N000000000       0000000000000.00 0000000.00   0000000.00                             000000000000000                                                                                                                                                     01418 A000000000000 0000000000000.47     00800 01500                  
02849650151390041DT67590675900000002881800888800000010180088824001193006900011200224010620230000000801100623000000000129248426684XXXXXX6627       VS11    0001111   NYV1 A E463006690964878N8400000000080118PVK00    05DNHAPPY HIPPIE             04092A    VS84000000008011 N  549976487134                            000000000+                A CA 12110                     000000000  N000000000 493   0000000000000.00 0000000.00   0000000.00                             000000000000000                                                                                                                                                     01418 A000000000000 0000000000001.31     01510 01000                  
02849660151390042DT67590675900000002881800888800000010180088824001193006900011200232010620230000000790000623000000000129248480639XXXXXX7870       VS11    0001111   NYV1 A E463006737285813N840000000007900CWZX00    05DNHAPPY HIPPIE             278167    VD84000000007900 N  549976487134                            000000000+                F DF 00381                     000000000  N000000000       0000000000000.00 0000000.00   0000000.00                             000000000000000                                                                                                                                                     01418 A000000000000 0000000000000.78     00800 01500                  
02849670151390043DT67590675900000002881800888800000010180088824001193006900011200240010620230000000887600623000000000129248422921XXXXXX2826       VS11    0001111   NYV1 A E303006744724074N840000000008876QQMT00    05DNHAPPY HIPPIE             056473    VD84000000008876 N  549976487134                            000000000+                F DF 00381                     000000000  N000000000       0000000000000.00 0000000.00   0000000.00                             000000000000000                                                                                                                                                     01418 A000000000000 0000000000000.86     00800 01500                  
02849680151390044DT67590675900000002881800888800000010180088824001193006900011200257010620230000000079000623000000000129248422921XXXXXX6466       VK04VS111111111   NYV1 A E583006781444931N840000000000790X2RT00    05DNHAPPY HIPPIE             060146    VD84000000000790 N  549976487134                            000000000+                F DF 00451                     000000000  N000000000 214   0000000000000.00 0000000.00   0000000.00                             000000000000000                                                                                                                                                     01418 F000000000000 0000000000000.16     01550 00400                  
02849690151390045BH6759067590000000215480088880000090170106202300623000000000007210    0000090001753918N8008886759C01082023                                                                                                                                                                                                                                                                                                                                                                                                                                                                                                                                                                                                 
02849700151390046DT67590675900000002154800888800000010180088887287283006900017539188010620230000000721000623000000000007210527505XXXXXX9406       ME03KE06MS02      NY 4607AMDJWGNFRD0106  N840000000007210          81DNDRIP DROP DISTRO LLC     319105    MD84000000007210 N  519900000001   17213                    000000000+600450S00140    MDJ  10813                     000000000  1                0000000000000.00 0000000.00   0000000.00                             000000000000000                                                                                                                                                   U001418  000000000000 0000000000000.26     00050 02200                  
