00003220350650002BH6759067590000000370780088880000090171215202234922000000000015559    0000090001040016Y8008886759C12162022                                                                                                                                                                                                                                                                                                                                                                                                                                                                                                                                                                                                 
00003230350650003DT67590675900000003707800888800000010180088824001192349900010400153121420220000000856234922000000000015559483313XXXXXX5662               2111111   NYV4 A7W462349154443866N840000000008562RRBQ00    01DNMR HEMP FLOWER           041723    VD84000000008562 NP1549976053336   83080                    000000000+                F DF 10420                     000000000  Y000000000 338   0000000000000.00 0000000.00   0000000.00                             000000000000000                                                                                                                                                     01424 G000000008562 0000000000000.26     00050 02200                  
00003240350650001P16759067590000000370780088880000001010000000000000000                             2000000000000000000000000              000000000000                    0000000000000000000000000                    000000000000                                                                                                                                                                                                                                                                                                                                                                                                                                                                                        
00003250350650004DT67590675900000003707800888800000010180088824001192349900010400161121420220000000699734922000000000015559462192XXXXXX5459               2111111   NYV4 A7W582349178265875N8400000000069973Z2D00    01DNMR HEMP FLOWER           014285    VS84000000006997 NP1549976053336   83081                    000000000+                A CA 12106                     000000000  N000000000 492   0000000000000.00 0000000.00   0000000.00                             000000000000000                                                                                                                                                     01424 G000000006997 0000000000001.42     01890 01000                  
00003260350650001P16759067590000000370780088880000001010000000000000000                             2000000000000000000000000              000000000000                    0000000000000000000000000                    000000000000                                                                                                                                                                                                                                                                                                                                                                                                                                                                                        
