03403990489902722AD675906759000000151648008888000009077900011613870000000654804202023NYY11023YC6759800888042320232023093033733                                                                                                                                                                                                                                                                                                                                                                                                                                                                                                                                                                                              
03404000489902728AD675906759000000151648008888000009077900011613880000000519004202023NYY11023YC6759800888042320232023093033737                                                                                                                                                                                                                                                                                                                                                                                                                                                                                                                                                                                              
03404010489902734AD675906759000000151648008888000009077900012663620000001987004202023NYY11023YC6759800888042320232023097006015                                                                                                                                                                                                                                                                                                                                                                                                                                                                                                                                                                                              
03404020489902737AD675906759000000198288001098000009071900010200920000000993504202023NYY11023ND6759800109042320232023107025384                                                                                                                                                                                                                                                                                                                                                                                                                                                                                                                                                                                              
03404030489902740AD675906759000000151648008888000009071900013090380000001987004202023NYY11023ND6759800888042320232023110014720                                                                                                                                                                                                                                                                                                                                                                                                                                                                                                                                                                                              
03404040489902743AD675906759000000151648008888000009071900013121560000002487004202023NYY11023ND6759800888042320232023110014721                                                                                                                                                                                                                                                                                                                                                                                                                                                                                                                                                                                              
03404050489902746AD675906759000000198288001098000009071334298343720000001987004202023NYY11023ND6759800109042320232023110014723                                                                                                                                                                                                                                                                                                                                                                                                                                                                                                                                                                                              
03404060489902749AD675906759000000133008001028000009071334044974000000002435404202023NYY11023ND6759800102042320232023110014724                                                                                                                                                                                                                                                                                                                                                                                                                                                                                                                                                                                              
03404070489902752AD675906759000000133008001028000009071900015658890000002487004202023NYY11023ND6759800102042320232023110014725                                                                                                                                                                                                                                                                                                                                                                                                                                                                                                                                                                                              
03404080489902755AD675906759000000142748001028000009071667370710840000002255004202023NYY11023ND6759800102042320232023110014726                                                                                                                                                                                                                                                                                                                                                                                                                                                                                                                                                                                              
03404090489902758AD675906759000000133008001028000009071900016075180000001987004202023NYY11023ND6759800102042320232023110014727                                                                                                                                                                                                                                                                                                                                                                                                                                                                                                                                                                                              
03404100489902761AD675906759000000198288001098000009071900012344310000001987004202023NYY11023ND6759800109042320232023110014728                                                                                                                                                                                                                                                                                                                                                                                                                                                                                                                                                                                              
03404110490202319AD675906759000000232188011148000009078123456789100000000200004212023NYY11123ND675980111404232023                                                                                                                                                                                                                                                                                                                                                                                                                                                                                                                                                                                                           
03404120492460002BH6759067590000001452280088880000090170421202311123000000000032347    0000090001020002N8008886759C04232023                                                                                                                                                                                                                                                                                                                                                                                                                                                                                                                                                                                                 
03404130492460003DT67590675900000014522800888800000010180088824001193111900010200011041820230000000000511123000000000032347442732XXXXXX8452       PS02VK040111111   NYV1 0 E383108682896414N840000000000005324D00    07DNRIP STRIPS LLC           095814    VD84000000000005 N  549977185156                            000000000+                G DG 10354                     000000000  Y000000010 338   0000000000000.00 0000000.00   0000000.00                             000000000000000                                                                                                                                                     01418 A000000000000 0000000000000.22     00050 02200                  
03404140492460004DT67590675900000014522800888800000010180088877287283111900010200021042020230000003234211123000000000032347558189XXXXXX4229                         NY 1 0 AMDBYWFU6F0420  N840000000032342          01DNRIP STRIPS LLC           996018    MD84000000032342 NP1549977185156                            000000000+M1010115434C    MDB  00062                     000000000  N                0000000000000.00 0000000.00   0000000.00                             000000000000000                                                                                                                                                   E101418  000000000000 0000000000008.67     02650 01000                  
03404150492460001P1675906759000000145228008888000000101                                                          000000000000          8000            921936836                                                                                                                                                                                                                                                                                                                                                                                                                                                                                                                                                            
03404160492460005BH6759067590000000288180088880000090170421202311123000000000077354    0000090001010015N8008886759C04232023                                                                                                                                                                                                                                                                                                                                                                                                                                                                                                                                                                                                 
03404170492460006DT67590675900000002881800888800000010180088877287283111900010100015042120230000000362111123000000000077354522924XXXXXX9430       MS02WI09          NY 1 0 AMDJWB8LGC0421  N840000000003621          05DNHAPPY HIPPIE             001916    MD84000000003621 N  549976487158                            000000000+M10101C5434C    MDJ  00402                     000000000  N                0000000000000.00 0000000.00   0000000.00                             000000000000000                                                                                                                                                   B101418  000000000000 0000000000000.53     01050 01500                  
03404180492460007DT67590675900000002881800888800000010180088824001193111900010100021042120230000000572711123000000000077354443264XXXXXX1793       VS11    0001111   NYV1 A E463111520701891N840000000005727F3W800    05DNHAPPY HIPPIE             008829    VD84000000005727 N  549976487158                            000000000+                F DF 10433                     000000000  Y000000000 338   0000000000000.00 0000000.00   0000000.00                             000000000000000                                                                                                                                                     01418 A000000000000 0000000000000.25     00050 02200                  
03404190492460008DT67590675900000002881800888800000010180088824001193111900010100039042120230000000021811123000000000077354404227XXXXXX9444       VK04VS111111111   NYV1 A E583111521736560N8400000000002188GTM00    05DNHAPPY HIPPIE             067077    VD84000000000218 N  549976487158                            000000000+                F DF 00451                     000000000  N000000000 214   0000000000000.00 0000000.00   0000000.00                             000000000000000                                                                                                                                                     01418 F000000000000 0000000000000.07     01550 00400                  
03404200492460009DT67590675900000002881800888800000010180088824001193111900010100047042120230000000592511123000000000077354437303XXXXXX1202       VS11    0001111   NYV1 A E383111525898948N840000000005925KMNV00    05DNHAPPY HIPPIE             979177    VD84000000005925 N  549976487158                            000000000+                F PF 08170                     000000000  N000000000       0000000000000.00 0000000.00   0000000.00                             000000000000000                                                                                                                                                     01418 A000000000000 0000000000000.83     01150 01500                  
03404210492460010DT67590675900000002881800888800000010180088824001193111900010100054042120230000001044411123000000000077354404227XXXXXX9853       VS11    0001111   NYV1 A E463111531121638N840000000010444C4MR00    05DNHAPPY HIPPIE             071315    VD84000000010444 N  549976487158                            000000000+                F DF 00381                     000000000  N000000000       0000000000000.00 0000000.00   0000000.00                             000000000000000                                                                                                                                                     01418 A000000000000 0000000000000.99     00800 01500                  
03404220492460011DT67590675900000002881800888800000010180088824001193111900010100062042120230000000293911123000000000077354419090XXXXXX1964       VS11    0001111   NYV1 A E583111579070082N840000000002939KCDW00    05DNHAPPY HIPPIE             470728    VD84000000002939 N  549976487158                            000000000+                F DF 00381                     000000000  N000000000       0000000000000.00 0000000.00   0000000.00                             000000000000000                                                                                                                                                     01418 A000000000000 0000000000000.39     00800 01500                  
03404230492460012DT67590675900000002881800888800000010180088877287283111900010100072042120230000000944611123000000000077354534348XXXXXX0437       MS02WI09          NY 1 0 AMPLN9M5NN0421  N840000000009446          05DNHAPPY HIPPIE             021159    MC84000000009446 N  549976487158                            000000000+M10101C5434C    MPL  00043                     000000000  N                0000000000000.00 0000000.00   0000000.00                             000000000000000                                                                                                                                                   B101418  000000000000 0000000000001.60     01650 00400                  
03404240492460013DT67590675900000002881800888800000010180088877287283111900010100080042120230000001046511123000000000077354546638XXXXXX9946       MS02WI09          NY 1 0 AMWEOLFBF70421  N840000000010465          05DNHAPPY HIPPIE             01738Z    MC84000000010465 N  549976487158                            000000000+M10101C5434C    MWE  00743                     000000000  N                0000000000000.00 0000000.00   0000000.00                             000000000000000                                                                                                                                                   B101418  000000000000 0000000000002.45     02300 00400                  
03404250492460014DT67590675900000002881800888800000010180088824001193111900010100096042120230000000395111123000000000077354443238XXXXXX7228       VS11    0001111   NYV1 A E303111604500058N840000000003951WVN400    05DNHAPPY HIPPIE             024730    VD84000000003951 N  549976487158                            000000000+                F DF 00381                     000000000  N000000000       0000000000000.00 0000000.00   0000000.00                             000000000000000                                                                                                                                                     01418 A000000000000 0000000000000.47     00800 01500                  
03404260492460015DT67590675900000002881800888800000010180088824001193111900010100104042120230000000361711123000000000077354480639XXXXXX5529       VS11    0001111   NYV1 A E583111610016424N840000000003617V3P500    05DNHAPPY HIPPIE             752258    VD84000000003617 N  549976487158                            000000000+                F DF 00381                     000000000  N000000000       0000000000000.00 0000000.00   0000000.00                             000000000000000                                                                                                                                                     01418 A000000000000 0000000000000.44     00800 01500                  
03404270492460016DT67590675900000002881800888800000010180088824001193111900010100112042120230000000118411123000000000077354423223XXXXXX6921       VK04VS111111111   NYV1 A E463111683754622N8400000000011842JQG00    05DNHAPPY HIPPIE             044073    VD84000000001184 N  549976487158                            000000000+                F DF 00451                     000000000  N000000000 214   0000000000000.00 0000000.00   0000000.00                             000000000000000                                                                                                                                                     01418 F000000000000 0000000000000.22     01550 00400                  
03404280492460017DT67590675900000002881800888800000010180088824001193111900010100120042120230000000164511123000000000077354426684XXXXXX8533       VS11    0001111   NYV1 A E383111692427177N840000000001645WBDM00    07DNHAPPY HIPPIE             02080D    VS84000000001645 N  549976487158                            000000000+                D CD 12113                     000000000  N000000000 499   0000000000000.00 0000000.00   0000000.00                             000000000000000                                                                                                                                                     01418 A000000000000 0000000000000.45     02100 01000                  
03404290492460018DT67590675900000002881800888800000010180088824001193111900010100138042120230000000749811123000000000077354422921XXXXXX7904       VS11    0001111   NYV1 A E583111700885616N840000000007498LDHM00    07DNHAPPY HIPPIE             055689    VD84000000007498 N  549976487158                            000000000+                F DF 00381                     000000000  N000000000       0000000000000.00 0000000.00   0000000.00                             000000000000000                                                                                                                                                     01418 A000000000000 0000000000000.75     00800 01500                  
03404300492460019DT67590675900000002881800888800000010180088824001193111900010100146042120230000000025111123000000000077354480639XXXXXX5499       VK04VS111111111   NYV1 A E383111713865894N840000000000251P9KW00    05DNHAPPY HIPPIE             758224    VD84000000000251 N  549976487158                            000000000+                F DF 00451                     000000000  N000000000 214   0000000000000.00 0000000.00   0000000.00                             000000000000000                                                                                                                                                     01418 F000000000000 0000000000000.08     01550 00400                  
03404310492460020DT67590675900000002881800888800000010180088877287283111900010100155042120230000001042311123000000000077354552815XXXXXX8580                         NY 1 0 AMPCBIU5QE0421  N840000000010423          05DNHAPPY HIPPIE             07734C    MB84000000010423 NP1549976487158                            000000000+M10101C5434C    MCB  11033                     000000000  N                0000000000000.00 0000000.00   0000000.00                             000000000000000                                                                                                                                                   B101418  000000000000 0000000000002.86     02650 01000                  
03404320492460001P1675906759000000028818008888000000101                                                          000000000000          3000            814767769                                                                                                                                                                                                                                                                                                                                                                                                                                                                                                                                                            
03404330492460021BH6759067590000001094280010180000090170421202311123000000000084661    0000090001360022N8001016759C04232023                                                                                                                                                                                                                                                                                                                                                                                                                                                                                                                                                                                                 
03404340492460022DT67590675900000010942800101800000010180010177287283111900013600011042120230000000138911123000000000084661546616XXXXXX7718       MS02WI09          NY 1 0 AMWEV41VGC0421  N840000000001389          07DNPLANET VAPOR INC #800    67793P    MC84000000001389 N  599971384997                            000000000+M10101M0034C    MWE  00739                     000000000  N                0000000000000.00 0000000.00   0000000.00                             000000000000000                                                                                                                                                   B101418  000000000000 0000000000000.42     02300 01000                  
03404350492460023DT67590675900000010942800101800000010180010176509753111900013600025042120230000000609611123000000000084661601100XXXXXX2639   BA05                  NY41 0 N753095420598425N840000000006096    00    07DNPLANET VAPOR INC #800    02112R    DS84000000006096 N  599971384997830                         000000000+0000004910H00   DCCDI01000831577  103419000000 000000000  0          112   0000000000000.00 0000000.00   0000000.00                             000000000000000                                                                                                                                                     01418  000000000000 0000000000001.15     01720 01000                  
03404360492460024DT67590675900000010942800101800000010180010177287283111900013600037042120230000000534811123000000000084661531258XXXXXX6313       MS02WI09          NY 1 0 AMDJZKLMNN0421  N840000000005348          07DNPLANET VAPOR INC #800    144777    MD84000000005348 N  599971384997                            000000000+M10101M5434C    MDJ  10815                     000000000  1                0000000000000.00 0000000.00   0000000.00                             000000000000000                                                                                                                                                   B101418  000000000000 0000000000000.25     00050 02200                  
03404370492460025DT67590675900000010942800101800000010180010124001193111900013600043042120230000000246011123000000000084661473703XXXXXX5187       VS11    0001111   NYV1 A E303111579121237N84000000000246026SP00    07DNPLANET VAPOR INC #800    079989    VD84000000002460 N  599971384997                            000000000+                F DF 10433                     000000000  Y000000000 338   0000000000000.00 0000000.00   0000000.00                             000000000000000                                                                                                                                                     01418 A000000000000 0000000000000.23     00050 02200                  
03404380492460026DT67590675900000010942800101800000010180010124001193111900013600050042120230000000267411123000000000084661400022XXXXXX0796       VS11    0001111   NYV1 A E463111590959160N840000000002674SWGX00    07DNPLANET VAPOR INC #800    049455    VD84000000002674 N  599971384997                            000000000+                F DF 10433                     000000000  Y000000000 338   0000000000000.00 0000000.00   0000000.00                             000000000000000                                                                                                                                                     01418 A000000000000 0000000000000.23     00050 02200                  
03404390492460027DT67590675900000010942800101800000010180010124001193111900013600068042120230000000106911123000000000084661430602XXXXXX6376       VK04VS111111111   NYV1 A E303111606963120N8400000000010695FCW00    05DNPLANET VAPOR INC #800    536898    VD84000000001069 N  599971384997                            000000000+                F DF 00451                     000000000  N000000000 214   0000000000000.00 0000000.00   0000000.00                             000000000000000                                                                                                                                                     01418 F000000000000 0000000000000.21     01550 00400                  
03404400492460028DT67590675900000010942800101800000010180010177287283111900013600078042120230000000256511123000000000084661528149XXXXXX2837       MS02WI09          NY 1 0 AMDJTJ55QB0421  N840000000002565          07DNPLANET VAPOR INC #800    046465    MD84000000002565 N  599971384997                            000000000+M10101M0034C    MDJ  00402                     000000000  N                0000000000000.00 0000000.00   0000000.00                             000000000000000                                                                                                                                                   B101418  000000000000 0000000000000.42     01050 01500                  
03404410492460029DT67590675900000010942800101800000010180010124001193111900013600084042120230000000374611123000000000084661414720XXXXXX8637       VS11    0001111   NYV1 A E303111611682702N840000000003746THGL00    07DNPLANET VAPOR INC #800    07861C    VS84000000003746 N  599971384997                            000000000+                C CC 12112                     000000000  N000000000 497   0000000000000.00 0000000.00   0000000.00                             000000000000000                                                                                                                                                     01418 A000000000000 0000000000000.72     01650 01000                  
03404420492460030DT67590675900000010942800101800000010180010124001193111900013600092042120230000000524011123000000000084661461675XXXXXX0270       VS11    0001111   NYV1 A E583111632080266N840000000005240LGX300    05DNPLANET VAPOR INC #800    264820    VD84000000005240 N  599971384997                            000000000+                F DF 00381                     000000000  N000000000       0000000000000.00 0000000.00   0000000.00                             000000000000000                                                                                                                                                     01418 A000000000000 0000000000000.57     00800 01500                  
03404430492460031DT67590675900000010942800101800000010180010177287283111900013600102042120230000000278111123000000000084661515676XXXXXX4301       MS02WI09          NY 1 0 AMWEVWXZQB0421  N840000000002781          07DNPLANET VAPOR INC #800    06031Z    MC84000000002781 N  599971384997                            000000000+M10101M0034C    MWE  00739                     000000000  N                0000000000000.00 0000000.00   0000000.00                             000000000000000                                                                                                                                                   B101418  000000000000 0000000000000.74     02300 01000                  
03404440492460032DT67590675900000010942800101800000010180010124001193111900013600118042120230000000423511123000000000084661448261XXXXXX4025       VS11    0001111   NYV1 A E303111655194807N840000000004235BR7W00    07DNPLANET VAPOR INC #800    000495    VD84000000004235 N  599971384997                            000000000+                F DF 10433                     000000000  Y000000000 338   0000000000000.00 0000000.00   0000000.00                             000000000000000                                                                                                                                                     01418 A000000000000 0000000000000.24     00050 02200                  
03404450492460033DT67590675900000010942800101800000010180010124001193111900013600126042120230000000789211123000000000084661473703XXXXXX1007       VS11    0001111   NYV1 A E583111658380353N8400000000078923GC300    07DNPLANET VAPOR INC #800    048402    VD84000000007892 N  599971384997                            000000000+                F DF 10433                     000000000  Y000000000 338   0000000000000.00 0000000.00   0000000.00                             000000000000000                                                                                                                                                     01418 A000000000000 0000000000000.26     00050 02200                  
03404460492460034DT67590675900000010942800101800000010180010177287283111900013600136042120230000000053411123000000000084661514377XXXXXX7410       MS02WI09          NY 1 0 AMDJHUK1JB0421  N840000000000534          05DNPLANET VAPOR INC #800    1GSKK5    MD84000000000534 N  599971384997                            000000000+M10101C5434C    MDJ  00402                     000000000  N                0000000000000.00 0000000.00   0000000.00                             000000000000000                                                                                                                                                   B101418  000000000000 0000000000000.21     01050 01500                  
03404470492460035DT67590675900000010942800101800000010180010124001193111900013600142042120230000001328311123000000000084661446542XXXXXX8665       VS11    0001111   NYV1 A E383111681355951N840000000013283S3BZ00    05DNPLANET VAPOR INC #800    021486    VS84000000013283 N  599971384997                            000000000+                C CC 12112                     000000000  N000000000 497   0000000000000.00 0000000.00   0000000.00                             000000000000000                                                                                                                                                     01418 A000000000000 0000000000002.29     01650 01000                  
03404480492460036DT67590675900000010942800101800000010180010124001193111900013600159042120230000000855811123000000000084661483950XXXXXX4927       VS11    0001111   NYV1 A E583111682022230N840000000008558ZQMF00    07DNPLANET VAPOR INC #800    09284B    VS84000000008558 N  599971384997                            000000000+                B CB 12111                     000000000  N000000000 495   0000000000000.00 0000000.00   0000000.00                             000000000000000                                                                                                                                                     01418 A000000000000 0000000000001.51     01650 01000                  
03404490492460037DT67590675900000010942800101800000010180010124001193111900013600167042120230000000320811123000000000084661454791XXXXXX8094       VS11    0001111   NYV1 A E583111699651009N840000000003208HDH800    07DNPLANET VAPOR INC #800    08177G    VB84000000003208 N  599971384997                            000000000+                G3CG308003                     000000000  N000000000 382   0000000000000.00 0000000.00   0000000.00                             000000000000000                                                                                                                                                     01418 A000000000000 0000000000000.76     02050 01000                  
03404500492460038DT67590675900000010942800101800000010180010124001193111900013600175042120230000000278111123000000000084661448261XXXXXX6300       VS11    0001111   NYV1 A E383111791378806N840000000002781CBVX00    07DNPLANET VAPOR INC #800    332596    VD84000000002781 N  599971384997                            000000000+                F DF 10433                     000000000  Y000000000 338   0000000000000.00 0000000.00   0000000.00                             000000000000000                                                                                                                                                     01418 A000000000000 0000000000000.23     00050 02200                  
03404510492460039DT67590675900000010942800101800000010180010124001193111900013600183042120230000000203211123000000000084661432739XXXXXX2223       VS11    0001111   NYV1 A E463111800455102N840000000002032JXKJ00    05DNPLANET VAPOR INC #800    874785    VD84000000002032 N  599971384997                            000000000+                F DF 10433                     000000000  Y000000000 338   0000000000000.00 0000000.00   0000000.00                             000000000000000                                                                                                                                                     01418 A000000000000 0000000000000.23     00050 02200                  
03404520492460040DT67590675900000010942800101800000010180010124001193111900013600191042120230000000203211123000000000084661432739XXXXXX2223       VS11    0001111   NYV1 A E303111803132211N840000000002032BNXH00    05DNPLANET VAPOR INC #800    892235    VD84000000002032 N  599971384997                            000000000+                F DF 10433                     000000000  Y000000000 338   0000000000000.00 0000000.00   0000000.00                             000000000000000                                                                                                                                                     01418 A000000000000 0000000000000.23     00050 02200                  
03404530492460041DT67590675900000010942800101800000010180010124001193111900013600209042120230000000203211123000000000084661440393XXXXXX7640       VS11    0001111   NYV1 A E383111820540564N840000000002032RQ6300    07DNPLANET VAPOR INC #800    942299    VD84000000002032 N  599971384997                            000000000+                F PF 08170                     000000000  N000000000       0000000000000.00 0000000.00   0000000.00                             000000000000000                                                                                                                                                     01418 A000000000000 0000000000000.38     01150 01500                  
03404540492460042DT67590675900000010942800101800000010180010124001193111900013600217042120230000000278111123000000000084661461675XXXXXX0351       VS11    0001111   NYV1 A E583111821593732N840000000002781D7VD00    05DNPLANET VAPOR INC #800    516230    VD84000000002781 N  599971384997                            000000000+                F DF 00381                     000000000  N000000000       0000000000000.00 0000000.00   0000000.00                             000000000000000                                                                                                                                                     01418 A000000000000 0000000000000.37     00800 01500                  
03404550492460043DT67590675900000010942800101800000010180010124001193111900013600225042120230000000192511123000000000084661438419XXXXXX8718       VS11    0001111   NYV1 A E383111827309124N8400000000019253NGS00    07DNPLANET VAPOR INC #800    085850    VD84000000001925 N  599971384997                            000000000+                F DF 00381                     000000000  N000000000       0000000000000.00 0000000.00   0000000.00                             000000000000000                                                                                                                                                     01418 A000000000000 0000000000000.30     00800 01500                  
03404560492460044BH6759067590000000708880010180000090170421202311123000000000192891    0000090001360049N8001016759C04232023                                                                                                                                                                                                                                                                                                                                                                                                                                                                                                                                                                                                 
03404570492460045DT67590675900000007088800101800000010180010124001193111900013600019042120230000000426411123000000000192891466189XXXXXX0413       VS11    0001111   NYV1 A E583111508671248N840000000004264G38V00    05DNPLANET VAPOR INC #200    049152    VD84000000004264 N  599977384620                            000000000+                F DF 10433                     000000000  Y000000000 338   0000000000000.00 0000000.00   0000000.00                             000000000000000                                                                                                                                                     01418 A000000000000 0000000000000.24     00050 02200                  
03404580492460046DT67590675900000007088800101800000010180010177287283111900013600029042120230000000513811123000000000192891553781XXXXXX7382       MS02WI09          NY 1 0 AMDSV5IUGC0421  N840000000005138          05DNPLANET VAPOR INC #200    834640    MD84000000005138 N  599977384620                            000000000+M10101C5434C    MDS  00402                     000000000  N                0000000000000.00 0000000.00   0000000.00                             000000000000000                                                                                                                                                   B101418  000000000000 0000000000000.69     01050 01500                  
03404590492460047DT67590675900000007088800101800000010180010124001193111900013600035042120230000000301111123000000000192891459954XXXXXX4702       VS11    0001111   NYV1 A E303111516388676N8400000000030115BVP00    05DNPLANET VAPOR INC #200    H95121    VD84000000003011 N  599977384620                            000000000+                F DF 10433                     000000000  Y000000000 338   0000000000000.00 0000000.00   0000000.00                             000000000000000                                                                                                                                                     01418 A000000000000 0000000000000.24     00050 02200                  
03404600492460048DT67590675900000007088800101800000010180010177287283111900013600045042120230000000252611123000000000192891515676XXXXXX7714       MS02WI09          NY 1 0 AMWEK9RHF70421  N840000000002526          05DNPLANET VAPOR INC #200    03273Z    MC84000000002526 N  599977384620                            000000000+M10101C5434C    MWE  00739                     000000000  N                0000000000000.00 0000000.00   0000000.00                             000000000000000                                                                                                                                                   B101418  000000000000 0000000000000.68     02300 01000                  
03404610492460049DT67590675900000007088800101800000010180010124001193111900013600050042120230000000237511123000000000192891441707XXXXXX8967       VS11    0001111   NYV1 A E463111529790866N840000000002375K4MX00    07DNPLANET VAPOR INC #200    674311    VD84000000002375 N  599977384620                            000000000+                F PF 08170                     000000000  N000000000       0000000000000.00 0000000.00   0000000.00                             000000000000000                                                                                                                                                     01418 A000000000000 0000000000000.42     01150 01500                  
03404620492460050DT67590675900000007088800101800000010180010124001193111900013600068042120230000000561411123000000000192891459954XXXXXX4072       VS11    0001111   NYV1 A E383111530573245N840000000005614JKHB00    05DNPLANET VAPOR INC #200    H00095    VD84000000005614 N  599977384620                            000000000+                F DF 10433                     000000000  Y000000000 338   0000000000000.00 0000000.00   0000000.00                             000000000000000                                                                                                                                                     01418 A000000000000 0000000000000.25     00050 02200                  
03404630492460051DT67590675900000007088800101800000010180010124001193111900013600076042120230000000534411123000000000192891440066XXXXXX9986       VS11    0001111   NYV1 A E463111533240607N84000000000534422LB00    05DNPLANET VAPOR INC #200    05762B    VS84000000005344 N  599977384620                            000000000+                B CB 12111                     000000000  N000000000 495   0000000000000.00 0000000.00   0000000.00                             000000000000000                                                                                                                                                     01418 A000000000000 0000000000000.98     01650 01000                  
03404640492460052DT67590675900000007088800101800000010180010124001193111900013600084042120230000000185011123000000000192891440393XXXXXX6010       VS11    0001111   NYV1 A E463111568576118N840000000001850L87P00    05DNPLANET VAPOR INC #200    712745    VD84000000001850 N  599977384620                            000000000+                F PF 08170                     000000000  N000000000       0000000000000.00 0000000.00   0000000.00                             000000000000000                                                                                                                                                     01418 A000000000000 0000000000000.36     01150 01500                  
03404650492460053DT67590675900000007088800101800000010180010124001193111900013600092042120230000000677411123000000000192891445785XXXXXX6950       VS11    0001111   NYV1 A E463111572359742N8400000000067747JRK00    05DNPLANET VAPOR INC #200    085355    VD84000000006774 N  599977384620                            000000000+                F PF 08170                     000000000  N000000000       0000000000000.00 0000000.00   0000000.00                             000000000000000                                                                                                                                                     01418 A000000000000 0000000000000.93     01150 01500                  
03404660492460054DT67590675900000007088800101800000010180010124001193111900013600100042120230000000064711123000000000192891473702XXXXXX2511       VK04VS111111111   NYV1 A E463111575733879N8400000000006474FSS00    05DNPLANET VAPOR INC #200    006912    VD84000000000647 N  599977384620                            000000000+                F DF 10439                     000000000  Y000000000 331   0000000000000.00 0000000.00   0000000.00                             000000000000000                                                                                                                                                     01418 F000000000000 0000000000000.22     00050 02200                  
03404670492460055DT67590675900000007088800101800000010180010124001193111900013600118042120230000000458811123000000000192891452293XXXXXX7938       VS11    0001111   NYV1 A E583111576981692N840000000004588CVJZ00    07DNPLANET VAPOR INC #200    020138    VD84000000004588 N  599977384620                            000000000+                F DF 00381                     000000000  N000000000       0000000000000.00 0000000.00   0000000.00                             000000000000000                                                                                                                                                     01418 A000000000000 0000000000000.52     00800 01500                  
03404680492460056DT67590675900000007088800101800000010180010124001193111900013600126042120230000000242911123000000000192891440393XXXXXX2883       VS11    0001111   NYV1 A E383111577856276N840000000002429KVS600    05DNPLANET VAPOR INC #200    833724    VD84000000002429 N  599977384620                            000000000+                F PF 08170                     000000000  N000000000       0000000000000.00 0000000.00   0000000.00                             000000000000000                                                                                                                                                     01418 A000000000000 0000000000000.43     01150 01500                  
03404690492460057DT67590675900000007088800101800000010180010124001193111900013600134042120230000000439911123000000000192891473703XXXXXX3727       VS11    0001111   NYV1 A E383111581656783N840000000004399XXF800    05DNPLANET VAPOR INC #200    000764    VD84000000004399 N  599977384620                            000000000+                F DF 10433                     000000000  Y000000000 338   0000000000000.00 0000000.00   0000000.00                             000000000000000                                                                                                                                                     01418 A000000000000 0000000000000.24     00050 02200                  
03404700492460058DT67590675900000007088800101800000010180010177287283111900013600144042120230000000377811123000000000192891531258XXXXXX5568       MS02WI09          NY 1 0 AMDJB64CNO0421  N840000000003778          05DNPLANET VAPOR INC #200    151953    MD84000000003778 N  599977384620                            000000000+M10101C5434C    MDJ  10815                     000000000  1                0000000000000.00 0000000.00   0000000.00                             000000000000000                                                                                                                                                   B101418  000000000000 0000000000000.24     00050 02200                  
03404710492460059DT67590675900000007088800101800000010180010177287283111900013600151042120230000000550611123000000000192891521853XXXXXX8682       MS02WI09          NY 1 0 AMPLOIOFNN0421  N840000000005506          05DNPLANET VAPOR INC #200    02133B    MC84000000005506 N  599977384620                            000000000+M10101C5434C    MPL  00353                     000000000  N                0000000000000.00 0000000.00   0000000.00                             000000000000000                                                                                                                                                   B101418  000000000000 0000000000001.09     01800 01000                  
03404720492460060DT67590675900000007088800101800000010180010124001193111900013600167042120230000000248311123000000000192891425307XXXXXX6935       VS11    0001111   NYV1 A E583111591781365N8400000000024838ZN900    90DNPLANET VAPOR INC #200    004238    VD84000000002483 N  599977384620                            000000000+                F PF 08170                     000000000  N000000000       0000000000000.00 0000000.00   0000000.00                             000000000000000                                                                                                                                                     01418 A000000000000 0000000000000.44     01150 01500                  
03404730492460061DT67590675900000007088800101800000010180010124001193111900013600175042120230000000534211123000000000192891400022XXXXXX7534       VS11    0001111   NYV1 A E383111594605941N8400000000053423DRS00    05DNPLANET VAPOR INC #200    365607    VD84000000005342 N  599977384620                            000000000+                F DF 10433                     000000000  Y000000000 338   0000000000000.00 0000000.00   0000000.00                             000000000000000                                                                                                                                                     01418 A000000000000 0000000000000.25     00050 02200                  
03404740492460062DT67590675900000007088800101800000010180010124001193111900013600183042120230000000431911123000000000192891474474XXXXXX7885       VS11    0001111   NYV1 A E463111611048093N840000000004319L29700    05DNPLANET VAPOR INC #200    155082    VD84000000004319 N  599977384620                            000000000+                F DF 10433                     000000000  Y000000000 338   0000000000000.00 0000000.00   0000000.00                             000000000000000                                                                                                                                                     01418 A000000000000 0000000000000.24     00050 02200                  
03404750492460063DT67590675900000007088800101800000010180010124001193111900013600191042120230000000418111123000000000192891448261XXXXXX5185       VS11    0001111   NYV1 A E583111631351822N8400000000041813WL800    05DNPLANET VAPOR INC #200    000490    VD84000000004181 N  599977384620                            000000000+                F DF 10433                     000000000  Y000000000 338   0000000000000.00 0000000.00   0000000.00                             000000000000000                                                                                                                                                     01418 A000000000000 0000000000000.24     00050 02200                  
03404760492460064DT67590675900000007088800101800000010180010177287283111900013600201042120230000000269911123000000000192891525363XXXXXX5280       MS02WI09          NY 1 0 AMWEG4KXJB0421  N840000000002699          05DNPLANET VAPOR INC #200    14761Z    MC84000000002699 N  599977384620                            000000000+M10101C0034C    MWE  00739                     000000000  N                0000000000000.00 0000000.00   0000000.00                             000000000000000                                                                                                                                                   B101418  000000000000 0000000000000.72     02300 01000                  
03404770492460065DT67590675900000007088800101800000010180010124001193111900013600217042120230000000140311123000000000192891440393XXXXXX4751       VK04VS111111111   NYV1 A E303111668106417N840000000001403FSFX00    05DNPLANET VAPOR INC #200    923744    VD84000000001403 N  599977384620                            000000000+                F PF 08165                     000000000  N000000000       0000000000000.00 0000000.00   0000000.00                             000000000000000                                                                                                                                                     01418 F000000000000 0000000000000.27     01600 00500                  
03404780492460066DT67590675900000007088800101800000010180010124001193111900013600225042120230000000404811123000000000192891440393XXXXXX4751       VS11    0001111   NYV1 A E463111670768989N840000000004048MT2R00    05DNPLANET VAPOR INC #200    842385    VD84000000004048 N  599977384620                            000000000+                F PF 08170                     000000000  N000000000       0000000000000.00 0000000.00   0000000.00                             000000000000000                                                                                                                                                     01418 A000000000000 0000000000000.62     01150 01500                  
03404790492460067DT67590675900000007088800101800000010180010177287283111900013600235042120230000000323811123000000000192891552433XXXXXX5516       MS02WI09          NY 1 0 AMPLV70FQD0421  N840000000003238          05DNPLANET VAPOR INC #200    09570M    MC84000000003238 N  599977384620                            000000000+M10101C5434C    MPL  00353                     000000000  N                0000000000000.00 0000000.00   0000000.00                             000000000000000                                                                                                                                                   B101418  000000000000 0000000000000.68     01800 01000                  
03404800492460068DT67590675900000007088800101800000010180010124001193111900013600241042120230000000151111123000000000192891441707XXXXXX3706       VS11    0001111   NYV1 A E463111674160396N8400000000015113B8P00    07DNPLANET VAPOR INC #200    513344    VD84000000001511 N  599977384620                            000000000+                F PF 08170                     000000000  N000000000       0000000000000.00 0000000.00   0000000.00                             000000000000000                                                                                                                                                     01418 A000000000000 0000000000000.32     01150 01500                  
03404810492460069DT67590675900000007088800101800000010180010124001193111900013600258042120230000000445611123000000000192891473703XXXXXX3359       VS11    0001111   NYV1 A E383111693751181N840000000004456SNB600    05DNPLANET VAPOR INC #200    042693    VD84000000004456 N  599977384620                            000000000+                F DF 10433                     000000000  Y000000000 338   0000000000000.00 0000000.00   0000000.00                             000000000000000                                                                                                                                                     01418 A000000000000 0000000000000.24     00050 02200                  
03404820492460070DT67590675900000007088800101800000010180010124001193111900013600266042120230000000269911123000000000192891473703XXXXXX3359       VS11    0001111   NYV1 A E583111695685660N840000000002699GJZF00    05DNPLANET VAPOR INC #200    068310    VD84000000002699 N  599977384620                            000000000+                F DF 10433                     000000000  Y000000000 338   0000000000000.00 0000000.00   0000000.00                             000000000000000                                                                                                                                                     01418 A000000000000 0000000000000.23     00050 02200                  
03404830492460071DT67590675900000007088800101800000010180010124001193111900013600274042120230000000604611123000000000192891440393XXXXXX7708       VS11    0001111   NYV1 A E303111699653468N840000000006046Q39J00    05DNPLANET VAPOR INC #200    417606    VD84000000006046 N  599977384620                            000000000+                F PF 08170                     000000000  N000000000       0000000000000.00 0000000.00   0000000.00                             000000000000000                                                                                                                                                     01418 A000000000000 0000000000000.85     01150 01500                  
03404840492460072DT67590675900000007088800101800000010180010177287283111900013600284042120230000000029211123000000000192891534946XXXXXX5222       MS02WI09          NY 1 0 AMDJTWD2JB0421  N840000000000292          07DNPLANET VAPOR INC #200    019771    MD84000000000292 N  599977384620                            000000000+M10101M0034C    MDJ  00402                     000000000  N                0000000000000.00 0000000.00   0000000.00                             000000000000000                                                                                                                                                   A101418  000000000000 0000000000000.18     01050 01500                  
03404850492460073DT67590675900000007088800101800000010180010124001193111900013600290042120230000000237511123000000000192891459954XXXXXX0497       VS11    0001111   NYV1 A E383111722849594N8400000000023752VS900    05DNPLANET VAPOR INC #200    H52906    VD84000000002375 N  599977384620                            000000000+                F DF 10433                     000000000  Y000000000 338   0000000000000.00 0000000.00   0000000.00                             000000000000000                                                                                                                                                     01418 A000000000000 0000000000000.23     00050 02200                  
03404860492460074DT67590675900000007088800101800000010180010177287283111900013600300042120230000000563411123000000000192891514377XXXXXX6993       MS02WI09          NY 1 0 AMDJLNADJB0421  N840000000005634          05DNPLANET VAPOR INC #200    1MCIWG    MD84000000005634 N  599977384620                            000000000+M10101C5434C    MDJ  00402                     000000000  N                0000000000000.00 0000000.00   0000000.00                             000000000000000                                                                                                                                                   B101418  000000000000 0000000000000.74     01050 01500                  
03404870492460075DT67590675900000007088800101800000010180010176509753111900013600314042120230000000172711123000000000192891601100XXXXXX8771   BA50                  NY41 0 N813095633647150N840000000001727    00    05DNPLANET VAPOR INC #200    02184R    DS84000000001727 N  599977384620050                         000000000+0000004910H00   DCCDI01000833641  162924000000 000000000  0          112   0000000000000.00 0000000.00   0000000.00                             000000000000000                                                                                                                                                     01418  000000000000 0000000000000.40     01720 01000                  
03404880492460076DT67590675900000007088800101800000010180010124001193111900013600324042120230000000507411123000000000192891448233XXXXXX0572       VS11    0001111   NYV1 A E463111744623717N84000000000507496LL00    05DNPLANET VAPOR INC #200    054102    VD84000000005074 N  599977384620                            000000000+                F DF 10433                     000000000  Y000000000 338   0000000000000.00 0000000.00   0000000.00                             000000000000000                                                                                                                                                     01418 A000000000000 0000000000000.25     00050 02200                  
03404890492460077DT67590675900000007088800101800000010180010124001193111900013600332042120230000000215911123000000000192891474474XXXXXX7677       VS11    0001111   NYV1 A E463111746249935N840000000002159CM7F00    05DNPLANET VAPOR INC #200    144434    VD84000000002159 N  599977384620                            000000000+                F DF 10433                     000000000  Y000000000 338   0000000000000.00 0000000.00   0000000.00                             000000000000000                                                                                                                                                     01418 A000000000000 0000000000000.23     00050 02200                  
03404900492460078DT67590675900000007088800101800000010180010124001193111900013600340042120230000000062011123000000000192891412004XXXXXX7260       VK04VS111111111   NYV1 A E463111753140723N8400000000006205LM800    07DNPLANET VAPOR INC #200    292750    VD84000000000620 N  599977384620                            000000000+                F DF 10439                     000000000  Y000000000 331   0000000000000.00 0000000.00   0000000.00                             000000000000000                                                                                                                                                     01418 F000000000000 0000000000000.22     00050 02200                  
03404910492460079DT67590675900000007088800101800000010180010124001193111900013600357042120230000001025611123000000000192891473703XXXXXX9862       VS11    0001111   NYV1 A E463111758527959N840000000010256HG5T00    05DNPLANET VAPOR INC #200    077418    VD84000000010256 N  599977384620                            000000000+                F DF 10433                     000000000  Y000000000 338   0000000000000.00 0000000.00   0000000.00                             000000000000000                                                                                                                                                     01418 A000000000000 0000000000000.27     00050 02200                  
03404920492460080DT67590675900000007088800101800000010180010124001193111900013600365042120230000000237511123000000000192891423223XXXXXX9277       VS11    0001111   NYV1 A E383111762410834N840000000002375SF6X00    05DNPLANET VAPOR INC #200    012522    VD84000000002375 N  599977384620                            000000000+                F DF 00381                     000000000  N000000000       0000000000000.00 0000000.00   0000000.00                             000000000000000                                                                                                                                                     01418 A000000000000 0000000000000.34     00800 01500                  
03404930492460081DT67590675900000007088800101800000010180010124001193111900013600373042120230000000237511123000000000192891461675XXXXXX5943       VS11    0001111   NYV1 A E583111763736799N8400000000023757C5200    05DNPLANET VAPOR INC #200    437960    VD84000000002375 N  599977384620                            000000000+                F DF 00381                     000000000  N000000000       0000000000000.00 0000000.00   0000000.00                             000000000000000                                                                                                                                                     01418 A000000000000 0000000000000.34     00800 01500                  
03404940492460082DT67590675900000007088800101800000010180010124001193111900013600381042120230000000377911123000000000192891461675XXXXXX7396       VS11    0001111   NYV1 A E583111774552943N8400000000037799K2Z00    05DNPLANET VAPOR INC #200    453100    VD84000000003779 N  599977384620                            000000000+                F DF 00381                     000000000  N000000000       0000000000000.00 0000000.00   0000000.00                             000000000000000                                                                                                                                                     01418 A000000000000 0000000000000.45     00800 01500                  
03404950492460083DT67590675900000007088800101800000010180010124001193111900013600399042120230000000280711123000000000192891408540XXXXXX6786       VS11    0001111   NYV1 A E583111775320315N8400000000028073V6900    05DNPLANET VAPOR INC #200    063213    VD84000000002807 N  599977384620                            000000000+                G DG 10351                     000000000  Y000000000 338   0000000000000.00 0000000.00   0000000.00                             000000000000000                                                                                                                                                     01418 A000000000000 0000000000000.23     00050 02200                  
03404960492460084DT67590675900000007088800101800000010180010124001193111900013600407042120230000000096911123000000000192891498503XXXXXX3107       VK04VS111111111   NYV1 A E583111776513867N8400000000009697L9F00    05DNPLANET VAPOR INC #200    063442    VD84000000000969 N  599977384620                            000000000+                F DF 00451                     000000000  N000000000 214   0000000000000.00 0000000.00   0000000.00                             000000000000000                                                                                                                                                     01418 F000000000000 0000000000000.19     01550 00400                  
03404970492460085DT67590675900000007088800101800000010180010124001193111900013600415042120230000000194311123000000000192891403766XXXXXX3965       VS11    0001111   NYV1 A E583111783281272N8400000000019439VM600    05DNPLANET VAPOR INC #200    611254    VS84000000001943 N  599977384620                            000000000+                C CC 12112                     000000000  N000000000 497   0000000000000.00 0000000.00   0000000.00                             000000000000000                                                                                                                                                     01418 A000000000000 0000000000000.42     01650 01000                  
03404980492460086DT67590675900000007088800101800000010180010124001193111900013600423042120230000000215911123000000000192891466189XXXXXX2511       VS11    0001111   NYV1 A E463111783978104N840000000002159DQRD00    05DNPLANET VAPOR INC #200    068608    VD84000000002159 N  599977384620                            000000000+                F DF 10433                     000000000  Y000000000 338   0000000000000.00 0000000.00   0000000.00                             000000000000000                                                                                                                                                     01418 A000000000000 0000000000000.23     00050 02200                  
03404990492460087DT67590675900000007088800101800000010180010124001193111900013600431042120230000000248311123000000000192891400022XXXXXX4483       VS11    0001111   NYV1 A E463111790749542N840000000002483RCNB00    07DNPLANET VAPOR INC #200    449643    VD84000000002483 N  599977384620                            000000000+                F DF 10433                     000000000  Y000000000 338   0000000000000.00 0000000.00   0000000.00                             000000000000000                                                                                                                                                     01418 A000000000000 0000000000000.23     00050 02200                  
03405000492460088DT67590675900000007088800101800000010180010177287283111900013600441042120230000001496411123000000000192891531258XXXXXX4835       MS02WI09          NY 1 0 AMDJI3V9ST0421  N840000000014964          05DNPLANET VAPOR INC #200    160116    MD84000000014964 N  599977384620                            000000000+M10101C5434C    MDJ  10815                     000000000  1                0000000000000.00 0000000.00   0000000.00                             000000000000000                                                                                                                                                   B101418  000000000000 0000000000000.29     00050 02200                  
03405010492460089DT67590675900000007088800101800000010180010124001193111900013600456042120230000000602411123000000000192891453506XXXXXX5538       VS11    0001111   NYV1 A E303111804673032N840000000006024425C00    07DNPLANET VAPOR INC #200    H78199    VD84000000006024 N  599977384620                            000000000+                F DF 10433                     000000000  Y000000000 338   0000000000000.00 0000000.00   0000000.00                             000000000000000                                                                                                                                                     01418 A000000000000 0000000000000.25     00050 02200                  
03405020492460090DT67590675900000007088800101800000010180010124001193111900013600464042120230000000205111123000000000192891446540XXXXXX8985       VS11    0001111   NYV1 A E583111827259805N8400000000020517ZNC00    05DNPLANET VAPOR INC #200    021075    VS84000000002051 N  599977384620                            000000000+                D CD 12113                     000000000  N000000000 499   0000000000000.00 0000000.00   0000000.00                             000000000000000                                                                                                                                                     01418 A000000000000 0000000000000.53     02100 01000                  
03405030492460091DT67590675900000007088800101800000010180010124001193111900013600472042120230000000453411123000000000192891408138XXXXXX0907       VS11    0001111   NYV1 A E303111832441964N840000000004534QN5J00    07DNPLANET VAPOR INC #200    338818    VD84000000004534 N  599977384620                            000000000+                F PF 08170                     000000000  N000000000       0000000000000.00 0000000.00   0000000.00                             000000000000000                                                                                                                                                     01418 A000000000000 0000000000000.67     01150 01500                  
03405040492460092DT67590675900000007088800101800000010180010124001193111900013600480042120230000001511611123000000000192891430602XXXXXX9976       VS11    0001111   NYV1 A E463111863367908N8400000000151165PMR00    05DNPLANET VAPOR INC #200    620969    VD84000000015116 N  599977384620                            000000000+                F DF 00381                     000000000  N000000000       0000000000000.00 0000000.00   0000000.00                             000000000000000                                                                                                                                                     01418 A000000000000 0000000000001.36     00800 01500                  
03405050492460093DT67590675900000007088800101800000010180010124001193111900013600498042120230000000250711123000000000192891486206XXXXXX0967       VS11    0001111   NYV1 A E463112000997738N840000000002507T2KL00    07DNPLANET VAPOR INC #200    160211    VD84000000002507 N  599977384620                            000000000+                F DF 10433                     000000000  Y000000000 338   0000000000000.00 0000000.00   0000000.00                             000000000000000                                                                                                                                                     01418 A000000000000 0000000000000.23     00050 02200                  
03405060492460094BH6759067590000001107280010180000090170421202311123000000000026180    0000090001330012N8001016759C04232023                                                                                                                                                                                                                                                                                                                                                                                                                                                                                                                                                                                                 
03405070492460095DT67590675900000011072800101800000010180010124001193111900013300016042120230000000267411123000000000026180408138XXXXXX9338       VS11    0001111   NYV1 A E583111516460407N840000000002674LS2M00    07DNPLANET VAPOR INC #1000   048371    VD84000000002674 N  599977385027                            000000000+                F PF 08170                     000000000  N000000000       0000000000000.00 0000000.00   0000000.00                             000000000000000                                                                                                                                                     01418 A000000000000 0000000000000.46     01150 01500                  
03405080492460096DT67590675900000011072800101800000010180010124001193111900013300024042120230000000213911123000000000026180408138XXXXXX9338       VS11    0001111   NYV1 A E583111520081324N840000000002139938Q00    07DNPLANET VAPOR INC #1000   995912    VD84000000002139 N  599977385027                            000000000+                F PF 08170                     000000000  N000000000       0000000000000.00 0000000.00   0000000.00                             000000000000000                                                                                                                                                     01418 A000000000000 0000000000000.40     01150 01500                  
03405090492460097DT67590675900000011072800101800000010180010124001193111900013300032042120230000000074811123000000000026180400022XXXXXX1887       VK04VS111111111   NYV1 A E583111554896187N840000000000748BCLH00    05DNPLANET VAPOR INC #1000   124406    VD84000000000748 N  599977385027                            000000000+                F DF 10439                     000000000  Y000000000 331   0000000000000.00 0000000.00   0000000.00                             000000000000000                                                                                                                                                     01418 F000000000000 0000000000000.22     00050 02200                  
03405100492460098DT67590675900000011072800101800000010180010177287283111900013300042042120230000000181811123000000000026180541777XXXXXX2199       MS02WI09          NY 1 0 AMDJSLMOQD0421  N840000000001818          07DNPLANET VAPOR INC #1000   062334    MD84000000001818 N  599977385027                            000000000+M10101M0034C    MDJ  00402                     000000000  N                0000000000000.00 0000000.00   0000000.00                             000000000000000                                                                                                                                                   A101418  000000000000 0000000000000.34     01050 01500                  
03405110492460099DT67590675900000011072800101800000010180010124001193111900013300057042120230000000267411123000000000026180430602XXXXXX8438       VS11    0001111   NYV1 A E583111653027909N840000000002674K8J200    05DNPLANET VAPOR INC #1000   551887    VD84000000002674 N  599977385027                            000000000+                F DF 00381                     000000000  N000000000       0000000000000.00 0000000.00   0000000.00                             000000000000000                                                                                                                                                     01418 A000000000000 0000000000000.36     00800 01500                  
03405120492460100DT67590675900000011072800101800000010180010124001193111900013300065042120230000000213911123000000000026180440393XXXXXX3551       VS11    0001111   NYV1 A E303111683816191N840000000002139KW6S00    05DNPLANET VAPOR INC #1000   147564    VD84000000002139 N  599977385027                            000000000+                F PF 08170                     000000000  N000000000       0000000000000.00 0000000.00   0000000.00                             000000000000000                                                                                                                                                     01418 A000000000000 0000000000000.40     01150 01500                  
03405130492460101DT67590675900000011072800101800000010180010124001193111900013300073042120230000000605911123000000000026180461675XXXXXX0446       VS11    0001111   NYV1 A E463111738964633N840000000006059HR7D00    05DNPLANET VAPOR INC #1000   403840    VD84000000006059 N  599977385027                            000000000+                F DF 00381                     000000000  N000000000       0000000000000.00 0000000.00   0000000.00                             000000000000000                                                                                                                                                     01418 A000000000000 0000000000000.63     00800 01500                  
03405140492460102DT67590675900000011072800101800000010180010124001193111900013300081042120230000000010411123000000000026180430602XXXXXX5498       VK04VS111111111   NYV1 A E463111744960863N840000000000104Q47J00    05DNPLANET VAPOR INC #1000   586759    VD84000000000104 N  599977385027                            000000000+                F DF 00451                     000000000  N000000000 214   0000000000000.00 0000000.00   0000000.00                             000000000000000                                                                                                                                                     01418 F000000000000 0000000000000.06     01550 00400                  
03405150492460103DT67590675900000011072800101800000010180010177287283111900013300091042120230000000192511123000000000026180531258XXXXXX1765       MS02WI09          NY 1 0 AMDJZC6ULC0421  N840000000001925          05DNPLANET VAPOR INC #1000   153071    MD84000000001925 N  599977385027                            000000000+M10101C5434C    MDJ  10815                     000000000  1                0000000000000.00 0000000.00   0000000.00                             000000000000000                                                                                                                                                   B101418  000000000000 0000000000000.23     00050 02200                  
03405160492460104DT67590675900000011072800101800000010180010124001193111900013300107042120230000000064011123000000000026180430602XXXXXX9659       VK04VS111111111   NYV1 A E303111786929719N840000000000640LN2F00    05DNPLANET VAPOR INC #1000   598872    VD84000000000640 N  599977385027                            000000000+                F DF 00451                     000000000  N000000000 214   0000000000000.00 0000000.00   0000000.00                             000000000000000                                                                                                                                                     01418 F000000000000 0000000000000.14     01550 00400                  
03405170492460105DT67590675900000011072800101800000010180010124001193111900013300115042120230000000481311123000000000026180430602XXXXXX1299       VS11    0001111   NYV1 A E303111841837494N84000000000481388LQ00    05DNPLANET VAPOR INC #1000   615071    VD84000000004813 N  599977385027                            000000000+                F DF 00381                     000000000  N000000000       0000000000000.00 0000000.00   0000000.00                             000000000000000                                                                                                                                                     01418 A000000000000 0000000000000.54     00800 01500                  
03405180492460106DT67590675900000011072800101800000010180010124001193111900013300123042120230000000044711123000000000026180498503XXXXXX7388       VK04VS111111111   NYV1 A E583111844649522N8400000000004479NV500    05DNPLANET VAPOR INC #1000   079030    VD84000000000447 N  599977385027                            000000000+                F DF 00451                     000000000  N000000000 214   0000000000000.00 0000000.00   0000000.00                             000000000000000                                                                                                                                                     01418 F000000000000 0000000000000.11     01550 00400                  
03405190492460107BH6759067590000002009980011080000090170421202311123000000000000100    0000090001023374N8001106759C04232023                                                                                                                                                                                                                                                                                                                                                                                                                                                                                                                                                                                                 
03405200492460108DT67590675900000020099800110800000010180011073011003111900010233745042120230000000010011123000000000000100376744XXXXX1065                          NY 4 07N007800434914061N840000000000100          01DNGALAXY GAS LLC           186307    AM84000000000100 N  599971004114                            000000000+6004S0600140 258     11261                     000000000                   0000000000000.00 0000000.00   0000000.00                             000000000000000 61248972086759675900000020099 GALAXY GAS LLC           3042 MATLOCK DR NW       4044777965      30144     ACCOUNTING@SBKINT.COM                     01418  000000000000 0000000000000.12     01600 00000                  
03405210492460109BH6759067590000000766680010180000090170421202311123000000000047436    0000090001340015N8001016759C04232023                                                                                                                                                                                                                                                                                                                                                                                                                                                                                                                                                                                                 
03405220492460110DT67590675900000007666800101800000010180010177287283111900013400016042120230000000215911123000000000047436531258XXXXXX8445       MS02WI09          NY 1 0 AMDJR1FXGC0421  N840000000002159          05DNPLANET VAPOR INC #300    153302    MD84000000002159 N  599977384654                            000000000+M10101C5434C    MDJ  10815                     000000000  1                0000000000000.00 0000000.00   0000000.00                             000000000000000                                                                                                                                                   B101418  000000000000 0000000000000.23     00050 02200                  
03405230492460111DT67590675900000007666800101800000010180010124001193111900013400022042120230000000269911123000000000047436461675XXXXXX7285       VS11    0001111   NYV1 A E303111567695912N840000000002699LNC900    05DNPLANET VAPOR INC #300    174600    VD84000000002699 N  599977384654                            000000000+                F DF 00381                     000000000  N000000000       0000000000000.00 0000000.00   0000000.00                             000000000000000                                                                                                                                                     01418 A000000000000 0000000000000.37     00800 01500                  
03405240492460112DT67590675900000007666800101800000010180010124001193111900013400030042120230000000471211123000000000047436465638XXXXXX7919       VS11    0001111   NYV1 A E463111582337110N840000000004712353300    05DNPLANET VAPOR INC #300    194900    VS84000000004712 N  599977384654                            000000000+                B CB 12111                     000000000  N000000000 495   0000000000000.00 0000000.00   0000000.00                             000000000000000                                                                                                                                                     01418 A000000000000 0000000000000.88     01650 01000                  
03405250492460113DT67590675900000007666800101800000010180010124001193111900013400048042120230000000213711123000000000047436400022XXXXXX0751       VS11    0001111   NYV1 A E303111679605648N840000000002137M9FB00    07DNPLANET VAPOR INC #300    392069    VD84000000002137 N  599977384654                            000000000+                F DF 10433                     000000000  Y000000000 338   0000000000000.00 0000000.00   0000000.00                             000000000000000                                                                                                                                                     01418 A000000000000 0000000000000.23     00050 02200                  
03405260492460114DT67590675900000007666800101800000010180010177287283111900013400057042120230000000485911123000000000047436527519XXXXXX9798       MS02WI09          NY 1 0 AMDJWTDIQD0421  N840000000004859          07DNPLANET VAPOR INC #300    145985    MD84000000004859 N  599977384654                            000000000+M10101M0034C    MDJ  10815                     000000000  1                0000000000000.00 0000000.00   0000000.00                             000000000000000                                                                                                                                                   B101418  000000000000 0000000000000.24     00050 02200                  
03405270492460115DT67590675900000007666800101800000010180010177287283111900013400065042120230000000485911123000000000047436523957XXXXXX4637       MS02WI09          NY 1 0 AMDJYEZLQD0421  N840000000004859          05DNPLANET VAPOR INC #300    020640    MD84000000004859 N  599977384654                            000000000+M10101C5434C    MDJ  00402                     000000000  N                0000000000000.00 0000000.00   0000000.00                             000000000000000                                                                                                                                                   B101418  000000000000 0000000000000.66     01050 01500                  
03405280492460116DT67590675900000007666800101800000010180010177287283111900013400073042120230000000137511123000000000047436529099XXXXXX3486       MS02WI09          NY 1 0 AMDJY1XAQD0421  N840000000001375          05DNPLANET VAPOR INC #300    799262    MD84000000001375 N  599977384654                            000000000+M10101C5434C    MDJ  10815                     000000000  1                0000000000000.00 0000000.00   0000000.00                             000000000000000                                                                                                                                                   B101418  000000000000 0000000000000.23     00050 02200                  
03405290492460117DT67590675900000007666800101800000010180010177287283111900013400081042120230000000186011123000000000047436553781XXXXXX3544       MS02WI09          NY 1 0 AMDSK9LNJB0421  N840000000001860          05DNPLANET VAPOR INC #300    836510    MD84000000001860 N  599977384654                            000000000+M10101C5434C    MDS  00402                     000000000  N                0000000000000.00 0000000.00   0000000.00                             000000000000000                                                                                                                                                   B101418  000000000000 0000000000000.35     01050 01500                  
03405300492460118DT67590675900000007666800101800000010180010124001193111900013400097042120230000000464211123000000000047436440066XXXXXX3457       VS11    0001111   NYV1 A E303111730047198N8400000000046427QTP00    05DNPLANET VAPOR INC #300    09052D    VS84000000004642 N  599977384654                            000000000+                D CD 12113                     000000000  N000000000 499   0000000000000.00 0000000.00   0000000.00                             000000000000000                                                                                                                                                     01418 A000000000000 0000000000001.07     02100 01000                  
03405310492460119DT67590675900000007666800101800000010180010124001193111900013400105042120230000000431911123000000000047436434256XXXXXX6916       VS11    0001111   NYV1 A E303111787013422N840000000004319MR5B00    05DNPLANET VAPOR INC #300    009663    VD84000000004319 N  599977384654                            000000000+                F DF 10433                     000000000  Y000000000 338   0000000000000.00 0000000.00   0000000.00                             000000000000000                                                                                                                                                     01418 A000000000000 0000000000000.24     00050 02200                  
03405320492460120DT67590675900000007666800101800000010180010124001193111900013400113042120230000000205111123000000000047436411600XXXXXX0457       VS11    0001111   NYV1 A E303111796173461N840000000002051G23300    90DNPLANET VAPOR INC #300    150657    VD84000000002051 N  599977384654                            000000000+                F PF 08170                     000000000  N000000000       0000000000000.00 0000000.00   0000000.00                             000000000000000                                                                                                                                                     01418 A000000000000 0000000000000.39     01150 01500                  
03405330492460121DT67590675900000007666800101800000010180010124001193111900013400121042120230000000129411123000000000047436411600XXXXXX0457       VK04VS111111111   NYV1 A E463111796944037N840000000001294G2XP00    90DNPLANET VAPOR INC #300    150814    VD84000000001294 N  599977384654                            000000000+                F PF 08165                     000000000  N000000000       0000000000000.00 0000000.00   0000000.00                             000000000000000                                                                                                                                                     01418 F000000000000 0000000000000.26     01600 00500                  
03405340492460122DT67590675900000007666800101800000010180010177287283111900013400131042120230000000237511123000000000047436535561XXXXXX3091                         NY 1 0 AMDHKDCILD0421  N840000000002375          07DNPLANET VAPOR INC #300    777153    MD84000000002375FN  599977384654                            000000000+M10101M0034C    MDH  12231                     0000000141 N                0000000000000.00 0000000.00   0000000.00                             000000000000000                                                                                                                                                     01418  000000000000 0000000000000.47     01980 00000                  
03405350492460123DT67590675900000007666800101800000010180010124001193111900013400147042120230000000431611123000000000047436461675XXXXXX3911       VS11    0001111   NYV1 A E583111837451726N8400000000043166GJV00    05DNPLANET VAPOR INC #300    536200    VD84000000004316 N  599977384654                            000000000+                F DF 00381                     000000000  N000000000       0000000000000.00 0000000.00   0000000.00                             000000000000000                                                                                                                                                     01418 A000000000000 0000000000000.50     00800 01500                  
03405360492460124DT67590675900000007666800101800000010180010124001193111900013400154042120230000000377911123000000000047436461675XXXXXX0974       VS11    0001111   NYV1 A E583111861826438N840000000003779HNS700    05DNPLANET VAPOR INC #300    564070    VD84000000003779 N  599977384654                            000000000+                F DF 00381                     000000000  N000000000       0000000000000.00 0000000.00   0000000.00                             000000000000000                                                                                                                                                     01418 A000000000000 0000000000000.45     00800 01500                  
03405370492460125BH6759067590000001090080010180000090170421202311123000000000091952    0000090001360020N8001016759C04232023                                                                                                                                                                                                                                                                                                                                                                                                                                                                                                                                                                                                 
03405380492460126DT67590675900000010900800101800000010180010124001193111900013600019042120230000000237511123000000000091952440393XXXXXX6327       VS11    0001111   NYV1 A E463111594293075N8400000000023753PXX00    05DNPLANET VAPOR INC #700    289655    VD84000000002375 N  599977384978                            000000000+                F PF 08170                     000000000  N000000000       0000000000000.00 0000000.00   0000000.00                             000000000000000                                                                                                                                                     01418 A000000000000 0000000000000.42     01150 01500                  
03405390492460127DT67590675900000010900800101800000010180010177287283111900013600029042120230000000215911123000000000091952528149XXXXXX5716       MS02WI09          NY 1 0 AMDJZTGAGC0421  N840000000002159          05DNPLANET VAPOR INC #700    045101    MD84000000002159 N  599977384978                            000000000+M10101C5434C    MDJ  00402                     000000000  N                0000000000000.00 0000000.00   0000000.00                             000000000000000                                                                                                                                                   B101418  000000000000 0000000000000.38     01050 01500                  
03405400492460128DT67590675900000010900800101800000010180010124001193111900013600035042120230000000647711123000000000091952400022XXXXXX5652       VS11    0001111   NYV1 A E383111601887894N8400000000064775BHX00    07DNPLANET VAPOR INC #700    538398    VD84000000006477 N  599977384978                            000000000+                F DF 10433                     000000000  Y000000000 338   0000000000000.00 0000000.00   0000000.00                             000000000000000                                                                                                                                                     01418 A000000000000 0000000000000.25     00050 02200                  
