02259280294836314AD675906759000000133008001028000009077900010402250000001741103122023NYY07123YC6759800102031420232023060031521                                                                                                                                                                                                                                                                                                                                                                                                                                                                                                                                                                                              
02259290294836317AD675906759000000090928001018000009071900011200030000000593903122023NYY07123ND6759800101031420232023067022505                                                                                                                                                                                                                                                                                                                                                                                                                                                                                                                                                                                              
02259300297150002BH6759067590000000215480088880000090170313202307223000000000290000    0000090001318210N8008886759C03142023                                                                                                                                                                                                                                                                                                                                                                                                                                                                                                                                                                                                 
02259310297150003DT67590675900000002154800888800000010180088873011003072900013182102031320230000029000007223000000000290000372727XXXXX6001                          NY 4 07N004420952271324N840000000290000          01DNDRIP DROP DISTRO LLC     247183    AM84000000290000 N  519971004114                            000000000+6004S0S00140 258     11244                     000000000                   0000000000000.00 0000000.00   0000000.00                             000000000000000 61248972736759675900000002154 DRIP DROP DISTRO LLC     1445 W COMMERCE AVE SUITE2087248209      83705     TROY@DRIPDROPDISTRO.COM                   01418  000000000000 0000000000055.20     01900 00000                  
02259320297150004BH6759067590000000288180088880000090170313202307223000000000031474    0000090001690007N8008886759C03142023                                                                                                                                                                                                                                                                                                                                                                                                                                                                                                                                                                                                 
02259330297150005DT67590675900000002881800888800000010180088877287283072900016900019031320230000000439007223000000000031474542432XXXXXX6544       MS02WI09          NY 2 0 AMDJG5AHTI0313  N840000000004390          05DNHAPPY HIPPIE             951981    MD84000000004390 N  549976487158                            000000000+M10101C1334C    MDJ  10815                     000000000  1                0000000000000.00 0000000.00   0000000.00                             000000000000000                                                                                                                                                   B101418  000000000000 0000000000000.24     00050 02200                  
02259340297150006DT67590675900000002881800888800000010180088824001193072900016900025031320230000000274007223000000000031474422921XXXXXX3719       VS11    0001111   NYV1 A E383072561927988N840000000002740R7M800    05DNHAPPY HIPPIE             041793    VD84000000002740 N  549976487158                            000000000+                F DF 00381                     000000000  N000000000       0000000000000.00 0000000.00   0000000.00                             000000000000000                                                                                                                                                     01418 A000000000000 0000000000000.37     00800 01500                  
02259350297150007DT67590675900000002881800888800000010180088824001193072900016900033031320230000000098607223000000000031474435546XXXXXX9321       VK04VS111111111   NYV1 A E463072562581525N8400000000009869ZZB00    05DNHAPPY HIPPIE             066138    VD84000000000986 N  549976487158                            000000000+                F DF 10439                     000000000  Y000000000 331   0000000000000.00 0000000.00   0000000.00                             000000000000000                                                                                                                                                     01418 F000000000000 0000000000000.22     00050 02200                  
02259360297150008DT67590675900000002881800888800000010180088824001193072900016900041031320230000000691307223000000000031474414720XXXXXX7758       VS11    0001111   NYV1 A E463072665325622N840000000006913GVDH00    05DNHAPPY HIPPIE             05574D    VS84000000006913 N  549976487158                            000000000+                D CD 12113                     000000000  N000000000 499   0000000000000.00 0000000.00   0000000.00                             000000000000000                                                                                                                                                     01418 A000000000000 0000000000001.55     02100 01000                  
02259370297150009DT67590675900000002881800888800000010180088824001193072900016900058031320230000000668207223000000000031474419090XXXXXX1975       VS11    0001111   NYV1 A E463072674775753N840000000006682FVMB00    05DNHAPPY HIPPIE             356655    VD84000000006682 N  549976487158                            000000000+                F DF 00381                     000000000  N000000000       0000000000000.00 0000000.00   0000000.00                             000000000000000                                                                                                                                                     01418 A000000000000 0000000000000.68     00800 01500                  
02259380297150010DT67590675900000002881800888800000010180088824001193072900016900066031320230000000756907223000000000031474449507XXXXXX2805       VS11    0001111   NYV1 A E583072679634097N840000000007569B6FN00    05DNHAPPY HIPPIE             045243    VD84000000007569 N  549976487158                            000000000+                F DF 00381                     000000000  N000000000       0000000000000.00 0000000.00   0000000.00                             000000000000000                                                                                                                                                     01418 A000000000000 0000000000000.76     00800 01500                  
02259390297150011DT67590675900000002881800888800000010180088824001193072900016900074031320230000000219407223000000000031474443238XXXXXX6237       VS11    0001111   NYV1 A E303072731007901N840000000002194SS8K00    07DNHAPPY HIPPIE             061820    VD84000000002194 N  549976487158                            000000000+                F DF 00381                     000000000  N000000000       0000000000000.00 0000000.00   0000000.00                             000000000000000                                                                                                                                                     01418 A000000000000 0000000000000.33     00800 01500                  
02259400297150012BH6759067590000000288180088880000090170313202307223000000000096099    0000090001670020N8008886759C03142023                                                                                                                                                                                                                                                                                                                                                                                                                                                                                                                                                                                                 
02259410297150013DT67590675900000002881800888800000010180088824001193072900016700011031320230000000987807223000000000096099422921XXXXXX7774       VS11    0001111   NYV1 A E303072528991243N840000000009878RGW800    05DNHAPPY HIPPIE             038501    VD84000000009878 N  549976487134                            000000000+                F DF 00381                     000000000  N000000000       0000000000000.00 0000000.00   0000000.00                             000000000000000                                                                                                                                                     01418 A000000000000 0000000000000.94     00800 01500                  
02259420297150014DT67590675900000002881800888800000010180088824001193072900016700029031320230000000325807223000000000096099422921XXXXXX7636       VS11    0001111   NYV1 A E303072549448671N840000000003258VJK800    05DNHAPPY HIPPIE             040545    VD84000000003258 N  549976487134                            000000000+                F DF 00381                     000000000  N000000000       0000000000000.00 0000000.00   0000000.00                             000000000000000                                                                                                                                                     01418 A000000000000 0000000000000.41     00800 01500                  
02259430297150015DT67590675900000002881800888800000010180088877287283072900016700039031320230000001546207223000000000096099511975XXXXXX4657                         NY 1 0 AMDBPV9SS90313  N840000000015462          05DNHAPPY HIPPIE             089692    MD84000000015462 NP1549976487134                            000000000+M10101C5434C    MDB  00062                     000000000  N                0000000000000.00 0000000.00   0000000.00                             000000000000000                                                                                                                                                   B101418  000000000000 0000000000004.20     02650 01000                  
02259440297150001P1675906759000000028818008888000000101                                                          000000000000          3000            814767769                                                                                                                                                                                                                                                                                                                                                                                                                                                                                                                                                            
02259450297150016DT67590675900000002881800888800000010180088824001193072900016700045031320230000000309807223000000000096099422921XXXXXX4464       VS11    0001111   NYV1 A E463072564728945N840000000003098QXHD00    05DNHAPPY HIPPIE             042073    VD84000000003098 N  549976487134                            000000000+                F DF 00381                     000000000  N000000000       0000000000000.00 0000000.00   0000000.00                             000000000000000                                                                                                                                                     01418 A000000000000 0000000000000.40     00800 01500                  
02259460297150017DT67590675900000002881800888800000010180088824001193072900016700052031320230000000295007223000000000096099443264XXXXXX3780       VS11    0001111   NYV1 A E383072571788694N8400000000029503RTD00    05DNHAPPY HIPPIE             015850    VD84000000002950 N  549976487134                            000000000+                F DF 10433                     000000000  Y000000000 338   0000000000000.00 0000000.00   0000000.00                             000000000000000                                                                                                                                                     01418 A000000000000 0000000000000.23     00050 02200                  
02259470297150018DT67590675900000002881800888800000010180088877287283072900016700062031320230000000395007223000000000096099511953XXXXXX8179       MS02WI09          NY 1 0 AMDJSVSVTH0313  N840000000003950          05DNHAPPY HIPPIE             057280    MD84000000003950 N  549976487134                            000000000+M10101C5434C    MDJ  00402                     000000000  N                0000000000000.00 0000000.00   0000000.00                             000000000000000                                                                                                                                                   B101418  000000000000 0000000000000.56     01050 01500                  
02259480297150019DT67590675900000002881800888800000010180088877287283072900016700070031320230000000027307223000000000096099517805XXXXXX5825                         NY 1 0 AMPLRE6DS90313  N840000000000273          05DNHAPPY HIPPIE             08310B    MC84000000000273 N  549976487134                            000000000+M10101C5434C    MPL  12144                     000000000  N                0000000000000.00 0000000.00   0000000.00                             000000000000000                                                                                                                                                   B101418  000000000000 0000000000000.07     01800 00200                  
02259490297150020DT67590675900000002881800888800000010180088824001193072900016700086031320230000000019607223000000000096099443238XXXXXX2690       VK04VS111111111   NYV1 A E383072600384974N840000000000196T54400    05DNHAPPY HIPPIE             024038    VD84000000000196 N  549976487134                            000000000+                F DF 00451                     000000000  N000000000 214   0000000000000.00 0000000.00   0000000.00                             000000000000000                                                                                                                                                     01418 F000000000000 0000000000000.07     01550 00400                  
02259500297150021DT67590675900000002881800888800000010180088877287283072900016700096031320230000001210307223000000000096099525363XXXXXX4979       MS02WI09          NY 1 0 AMWECAQNJ70313  N840000000012103          05DNHAPPY HIPPIE             62486Z    MC84000000012103 N  549976487134                            000000000+M10101C0034C    MWE  00743                     000000000  N                0000000000000.00 0000000.00   0000000.00                             000000000000000                                                                                                                                                   B101418  000000000000 0000000000002.82     02300 00400                  
02259510297150022DT67590675900000002881800888800000010180088824001193072900016700102031320230000000296207223000000000096099415978XXXXXX9315       VS11    0001111   NYV1 A E383072624925117N84000000000296288QW00    05DNHAPPY HIPPIE             034540    VD84000000002962 N  549976487134                            000000000+                F DF 10433                     000000000  Y000000000 338   0000000000000.00 0000000.00   0000000.00                             000000000000000                                                                                                                                                     01418 A000000000000 0000000000000.23     00050 02200                  
02259520297150023DT67590675900000002881800888800000010180088824001193072900016700110031320230000000266607223000000000096099423223XXXXXX1655       VS11    0001111   NYV1 A E303072629098570N840000000002666MPLB00    05DNHAPPY HIPPIE             064850    VD84000000002666 N  549976487134                            000000000+                F DF 00381                     000000000  N000000000       0000000000000.00 0000000.00   0000000.00                             000000000000000                                                                                                                                                     01418 A000000000000 0000000000000.36     00800 01500                  
02259530297150024DT67590675900000002881800888800000010180088824001193072900016700128031320230000000197107223000000000096099429413XXXXXX6166       VS11    0001111   NYV1 A E383072632030704N840000000001971PWGZ00    05DNHAPPY HIPPIE             162959    VD84000000001971 N  549976487134                            000000000+                F DF 00381                     000000000  N000000000       0000000000000.00 0000000.00   0000000.00                             000000000000000                                                                                                                                                     01418 A000000000000 0000000000000.31     00800 01500                  
02259540297150025DT67590675900000002881800888800000010180088824001193072900016700136031320230000000158007223000000000096099413037XXXXXX4265       VS11    0001111   NYV1 A E583072633373359N8400000000015808ZNB00    05DNHAPPY HIPPIE             068156    VD84000000001580 N  549976487134                            000000000+                F DF 10433                     000000000  Y000000000 338   0000000000000.00 0000000.00   0000000.00                             000000000000000                                                                                                                                                     01418 A000000000000 0000000000000.23     00050 02200                  
02259550297150026DT67590675900000002881800888800000010180088877287283072900016700146031320230000000789907223000000000096099516693XXXXXX1259       MS02WI09          NY 1 0 AMDSTUAMVJ0313  N840000000007899          05DNHAPPY HIPPIE             970114    MD84000000007899 N  549976487134                            000000000+M10101C5434C    MDS  00402                     000000000  N                0000000000000.00 0000000.00   0000000.00                             000000000000000                                                                                                                                                   B101418  000000000000 0000000000000.98     01050 01500                  
02259560297150027DT67590675900000002881800888800000010180088824001193072900016700151031320230000000325807223000000000096099404227XXXXXX1232       VS11    0001111   NYV1 A E303072676034186N840000000003258WV7X00    05DNHAPPY HIPPIE             886489    VD84000000003258 N  549976487134                            000000000+                F DF 00381                     000000000  N000000000       0000000000000.00 0000000.00   0000000.00                             000000000000000                                                                                                                                                     01418 A000000000000 0000000000000.41     00800 01500                  
02259570297150028DT67590675900000002881800888800000010180088824001193072900016700169031320230000000493707223000000000096099443238XXXXXX9429       VS11    0001111   NYV1 A E583072685055592N8400000000049376PW400    05DNHAPPY HIPPIE             050145    VD84000000004937 N  549976487134                            000000000+                F DF 00381                     000000000  N000000000       0000000000000.00 0000000.00   0000000.00                             000000000000000                                                                                                                                                     01418 A000000000000 0000000000000.54     00800 01500                  
02259580297150029DT67590675900000002881800888800000010180088824001193072900016700177031320230000000801107223000000000096099414740XXXXXX8281       VS11    0001111   NYV1 A E383072712953784N840000000008011RN2P00    05DNHAPPY HIPPIE             04466D    VS84000000008011 N  549976487134                            000000000+                D CD 12113                     000000000  N000000000 499   0000000000000.00 0000000.00   0000000.00                             000000000000000                                                                                                                                                     01418 A000000000000 0000000000001.78     02100 01000                  
02259590297150030DT67590675900000002881800888800000010180088824001193072900016700185031320230000000552307223000000000096099435142XXXXXX7277       VS11    0001111   NYV1 A E463072729144664N840000000005523836J00    05DNHAPPY HIPPIE             090553    VD84000000005523 N  549976487134                            000000000+                F DF 10433                     000000000  Y000000000 338   0000000000000.00 0000000.00   0000000.00                             000000000000000                                                                                                                                                     01418 A000000000000 0000000000000.25     00050 02200                  
02259600297150031DT67590675900000002881800888800000010180088877287283072900016700195031320230000000316107223000000000096099511953XXXXXX9431       MS02WI09          NY 1 0 AMDJDSI6J30313  N840000000003161          05DNHAPPY HIPPIE             055042    MD84000000003161 N  549976487134                            000000000+M10101C5434C    MDJ  00402                     000000000  N                0000000000000.00 0000000.00   0000000.00                             000000000000000                                                                                                                                                   B101418  000000000000 0000000000000.48     01050 01500                  
02259610297150032DT67590675900000002881800888800000010180088824001193072900016700201031320230000000296307223000000000096099498503XXXXXX9797       VS11    0001111   NYV1 A E463072769495195N840000000002963PWJS00    05DNHAPPY HIPPIE             055303    VD84000000002963 N  549976487134                            000000000+                F DF 00381                     000000000  N000000000       0000000000000.00 0000000.00   0000000.00                             000000000000000                                                                                                                                                     01418 A000000000000 0000000000000.39     00800 01500                  
02259620297150033BH6759067590000001094280010180000090170313202307223000000000045841    0000090001330016N8001016759C03142023                                                                                                                                                                                                                                                                                                                                                                                                                                                                                                                                                                                                 
02259630297150034DT67590675900000010942800101800000010180010177287283072900013300015031320230000000423507223000000000045841517805XXXXXX5801       MS02WI09          NY 1 0 AMPLS828S90313  N840000000004235          05DNPLANET VAPOR #800        02634B    MC84000000004235 N  599976923545                            000000000+M10101C5434C    MPL  00353                     000000000  N                0000000000000.00 0000000.00   0000000.00                             000000000000000                                                                                                                                                   B101418  000000000000 0000000000000.86     01800 01000                  
02259640297150035DT67590675900000010942800101800000010180010177287283072900013300023031320230000000235307223000000000045841517805XXXXXX6574       MS02WI09          NY 1 0 AMPLHETOTI0313  N840000000002353          07DNPLANET VAPOR #800        02976B    MC84000000002353 N  599976923545                            000000000+M10101M0034C    MPL  00353                     000000000  N                0000000000000.00 0000000.00   0000000.00                             000000000000000                                                                                                                                                   B101418  000000000000 0000000000000.52     01800 01000                  
02259650297150036DT67590675900000010942800101800000010180010177287283072900013300031031320230000000278107223000000000045841551791XXXXXX9557       MS02WI09          NY 1 0 AMDSO1P7S90313  N840000000002781          05DNPLANET VAPOR #800        095719    MD84000000002781 N  599976923545                            000000000+M10101C5434C    MDS  10815                     000000000  1                0000000000000.00 0000000.00   0000000.00                             000000000000000                                                                                                                                                   B101418  000000000000 0000000000000.23     00050 02200                  
02259660297150037DT67590675900000010942800101800000010180010176509753072900013300045031320230000000235307223000000000045841601101XXXXXX6404   BA05                  NY41 0 N873061748092931N840000000002353    00    07DNPLANET VAPOR #800        01368B    DZ84000000002353 N  599976923545830                         000000000+0000004910H00   DMCDI01012833692  111329000000 000000000  0          124   0000000000000.00 0000000.00   0000000.00                             000000000000000                                                                                                                                                     01418  000000000000 0000000000000.73     02450 01500                  
02259670297150038DT67590675900000010942800101800000010180010124001193072900013300054031320230000000149707223000000000045841440393XXXXXX9774       VK04VS111111111   NYV1 A E303072549531997N8400000000014974SCS00    07DNPLANET VAPOR #800        904515    VD84000000001497 N  599976923545                            000000000+                F PF 08165                     000000000  N000000000       0000000000000.00 0000000.00   0000000.00                             000000000000000                                                                                                                                                     01418 F000000000000 0000000000000.29     01600 00500                  
02259680297150039DT67590675900000010942800101800000010180010177287283072900013300064031320230000000385007223000000000045841552433XXXXXX6382       MS02WI09          NY 1 0 AMCWULWLS90313  N840000000003850          07DNPLANET VAPOR #800        08161Z    MC84000000003850 N  599976923545                            000000000+M10101M0034C    MCW  00644                     000000000  N                0000000000000.00 0000000.00   0000000.00                             000000000000000                                                                                                                                                   B101418  000000000000 0000000000000.83     01900 01000                  
02259690297150040DT67590675900000010942800101800000010180010124001193072900013300070031320230000000219107223000000000045841430602XXXXXX8084       VS11    0001111   NYV1 A E303072558489136N8400000000021915C2M00    07DNPLANET VAPOR #800        908996    VD84000000002191 N  599976923545                            000000000+                F DF 00381                     000000000  N000000000       0000000000000.00 0000000.00   0000000.00                             000000000000000                                                                                                                                                     01418 A000000000000 0000000000000.33     00800 01500                  
02259700297150041DT67590675900000010942800101800000010180010177287283072900013300080031320230000000267407223000000000045841517604XXXXXX1335       MS02WI09          NY 1 0 AMWES6U8TH0313  N840000000002674          07DNPLANET VAPOR #800        22139Z    MC84000000002674 N  599976923545                            000000000+M10101M0034C    MWE  00739                     000000000  N                0000000000000.00 0000000.00   0000000.00                             000000000000000                                                                                                                                                   A101418  000000000000 0000000000000.72     02300 01000                  
02259710297150042DT67590675900000010942800101800000010180010124001193072900013300096031320230000000320807223000000000045841499159XXXXXX6791       VS11    0001111   NYV1 A E303072594804646N840000000003208245R00    05DNPLANET VAPOR #800        013708    VS84000000003208 N  599976923545                            000000000+                B CB 12111                     000000000  N000000000 495   0000000000000.00 0000000.00   0000000.00                             000000000000000                                                                                                                                                     01418 A000000000000 0000000000000.63     01650 01000                  
02259720297150043DT67590675900000010942800101800000010180010177287283072900013300106031320230000000088407223000000000045841531258XXXXXX6676       MS02WI09          NY 1 0 AMDJCRU7J70313  N840000000000884          07DNPLANET VAPOR #800        162950    MD84000000000884 N  599976923545                            000000000+M10101M0034C    MDJ  10815                     000000000  1                0000000000000.00 0000000.00   0000000.00                             000000000000000                                                                                                                                                   B101418  000000000000 0000000000000.22     00050 02200                  
02259730297150044DT67590675900000010942800101800000010180010124001193072900013300112031320230000000770107223000000000045841434769XXXXXX1391       VS11    0001111   NYV1 A E463072655450514N840000000007701VVXJ00    07DNPLANET VAPOR #800        051214    VD84000000007701 N  599976923545                            000000000+                F DF 10433                     000000000  Y000000000 338   0000000000000.00 0000000.00   0000000.00                             000000000000000                                                                                                                                                     01418 A000000000000 0000000000000.26     00050 02200                  
02259740297150045DT67590675900000010942800101800000010180010124001193072900013300120031320230000000267407223000000000045841440066XXXXXX4603       VS11    0001111   NYV1 A E383072719781636N840000000002674WJLT00    07DNPLANET VAPOR #800        03340A    VS84000000002674 N  599976923545                            000000000+                A CA 12110                     000000000  N000000000 493   0000000000000.00 0000000.00   0000000.00                             000000000000000                                                                                                                                                     01418 A000000000000 0000000000000.50     01510 01000                  
02259750297150046DT67590675900000010942800101800000010180010177287283072900013300130031320230000000267407223000000000045841559427XXXXXX0169       MS02WI09          NY 1 0 AMDJDFCHJ30313  N840000000002674          05DNPLANET VAPOR #800        983193    MD84000000002674 N  599976923545                            000000000+M10101C5434C    MDJ  10815                     000000000  1                0000000000000.00 0000000.00   0000000.00                             000000000000000                                                                                                                                                   B101418  000000000000 0000000000000.23     00050 02200                  
02259760297150047DT67590675900000010942800101800000010180010177287283072900013300148031320230000000481207223000000000045841517805XXXXXX6574       MS02WI09          NY 1 0 AMPLMLBYXG0313  N840000000004812          07DNPLANET VAPOR #800        02614B    MC84000000004812 N  599976923545                            000000000+M10101M0034C    MPL  00353                     000000000  N                0000000000000.00 0000000.00   0000000.00                             000000000000000                                                                                                                                                   B101418  000000000000 0000000000000.97     01800 01000                  
02259770297150048DT67590675900000010942800101800000010180010124001193072900013300153031320230000000045707223000000000045841466189XXXXXX5306       VK04VS111111111   NYV1 A E303072821133731N840000000000457M5FM00    07DNPLANET VAPOR #800        021183    VD84000000000457 N  599976923545                            000000000+                F DF 10439                     000000000  Y000000000 331   0000000000000.00 0000000.00   0000000.00                             000000000000000                                                                                                                                                     01418 F000000000000 0000000000000.22     00050 02200                  
02259780297150049DT67590675900000010942800101800000010180010124001193072900013300161031320230000000149707223000000000045841448233XXXXXX7481       VK04VS111111111   NYV1 A E463072858551113N840000000001497FCSK00    07DNPLANET VAPOR #800        085056    VD84000000001497 N  599976923545                            000000000+                F DF 10439                     000000000  Y000000000 331   0000000000000.00 0000000.00   0000000.00                             000000000000000                                                                                                                                                     01418 F000000000000 0000000000000.23     00050 02200                  
02259790297150050BH6759067590000000833480010180000090170313202307223000000000178983    0000090001330047N8001016759C03142023                                                                                                                                                                                                                                                                                                                                                                                                                                                                                                                                                                                                 
02259800297150051DT67590675900000008334800101800000010180010124001193072900013300013031320230000000449107223000000000178983466189XXXXXX0145       VS11    0001111   NYV1 A E383072522276553N840000000004491SZXD00    05DNPLANET VAPOR #400        071474    VD84000000004491 N  599976779447                            000000000+                F DF 10433                     000000000  Y000000000 338   0000000000000.00 0000000.00   0000000.00                             000000000000000                                                                                                                                                     01418 A000000000000 0000000000000.24     00050 02200                  
02259810297150052DT67590675900000008334800101800000010180010124001193072900013300021031320230000000257107223000000000178983400022XXXXXX7674       VS11    0001111   NYV1 A E303072525171706N840000000002571WG5200    05DNPLANET VAPOR #400        879378    VD84000000002571 N  599976779447                            000000000+                F DF 10433                     000000000  Y000000000 338   0000000000000.00 0000000.00   0000000.00                             000000000000000                                                                                                                                                     01418 A000000000000 0000000000000.23     00050 02200                  
02259820297150053DT67590675900000008334800101800000010180010124001193072900013300039031320230000000235307223000000000178983438419XXXXXX5499       VS11    0001111   NYV1 A E463072542628041N840000000002353ZJ6P00    05DNPLANET VAPOR #400        010422    VD84000000002353 N  599976779447                            000000000+                F DF 00381                     000000000  N000000000       0000000000000.00 0000000.00   0000000.00                             000000000000000                                                                                                                                                     01418 A000000000000 0000000000000.34     00800 01500                  
02259830297150054DT67590675900000008334800101800000010180010124001193072900013300047031320230000000096007223000000000178983440393XXXXXX6798       VK04VS111111111   NYV1 A E463072545398568N8400000000009608WLV00    05DNPLANET VAPOR #400        303478    VD84000000000960 N  599976779447                            000000000+                F PF 08165                     000000000  N000000000       0000000000000.00 0000000.00   0000000.00                             000000000000000                                                                                                                                                     01418 F000000000000 0000000000000.20     01600 00500                  
02259840297150055DT67590675900000008334800101800000010180010177287283072900013300056031320230000000267407223000000000178983511953XXXXXX4325       MS02WI09          NY 1 0 AMDJUK6RS90313  N840000000002674          05DNPLANET VAPOR #400        052618    MD84000000002674 N  599976779447                            000000000+M10101C5434C    MDJ  00402                     000000000  N                0000000000000.00 0000000.00   0000000.00                             000000000000000                                                                                                                                                   B101418  000000000000 0000000000000.43     01050 01500                  
02259850297150056DT67590675900000008334800101800000010180010124001193072900013300062031320230000000213907223000000000178983459954XXXXXX4863       VS11    0001111   NYV1 A E383072567349131N8400000000021399MD700    05DNPLANET VAPOR #400        H06745    VD84000000002139 N  599976779447                            000000000+                F DF 10433                     000000000  Y000000000 338   0000000000000.00 0000000.00   0000000.00                             000000000000000                                                                                                                                                     01418 A000000000000 0000000000000.23     00050 02200                  
02259860297150057DT67590675900000008334800101800000010180010124001193072900013300070031320230000000552407223000000000178983448261XXXXXX2863       VS11    0001111   NYV1 A E583072573752741N840000000005524HHVR00    05DNPLANET VAPOR #400        166755    VD84000000005524 N  599976779447                            000000000+                F DF 10433                     000000000  Y000000000 338   0000000000000.00 0000000.00   0000000.00                             000000000000000                                                                                                                                                     01418 A000000000000 0000000000000.25     00050 02200                  
02259870297150058DT67590675900000008334800101800000010180010177287283072900013300080031320230000000213907223000000000178983548537XXXXXX5789       MS02WI09          NY 1 0 AMPGQ2MVS90313  N840000000002139          07DNPLANET VAPOR #400        024076    MD84000000002139 N  599976779447                            000000000+M10101M0034C    MPG  11964                     000000000  N                0000000000000.00 0000000.00   0000000.00                             000000000000000                                                                                                                                                   A101418  000000000000 0000000000000.40     01150 01500                  
02259880297150059DT67590675900000008334800101800000010180010124001193072900013300096031320230000000278107223000000000178983442958XXXXXX5075       VS11    0001111   NYV1 A E463072593529543N840000000002781KV5M00    05DNPLANET VAPOR #400        021400    VD84000000002781 N  599976779447                            000000000+                F DF 00381                     000000000  N000000000       0000000000000.00 0000000.00   0000000.00                             000000000000000                                                                                                                                                     01418 A000000000000 0000000000000.37     00800 01500                  
02259890297150060DT67590675900000008334800101800000010180010177287283072900013300106031320230000000267407223000000000178983531258XXXXXX7083       MS02WI09          NY 1 0 AMDJWG14S90313  N840000000002674          05DNPLANET VAPOR #400        163888    MD84000000002674 N  599976779447                            000000000+M10101C5434C    MDJ  10815                     000000000  1                0000000000000.00 0000000.00   0000000.00                             000000000000000                                                                                                                                                   B101418  000000000000 0000000000000.23     00050 02200                  
02259900297150061DT67590675900000008334800101800000010180010177287283072900013300114031320230000000240607223000000000178983531258XXXXXX1573       MS02WI09          NY 1 0 AMDJRIPHS90313  N840000000002406          05DNPLANET VAPOR #400        163992    MD84000000002406 N  599976779447                            000000000+M10101C5434C    MDJ  10815                     000000000  1                0000000000000.00 0000000.00   0000000.00                             000000000000000                                                                                                                                                   B101418  000000000000 0000000000000.23     00050 02200                  
02259910297150062DT67590675900000008334800101800000010180010124001193072900013300120031320230000000160407223000000000178983430602XXXXXX4262       VS11    0001111   NYV1 A E583072605661759N840000000001604ZLSQ00    05DNPLANET VAPOR #400        920174    VD84000000001604 N  599976779447                            000000000+                F DF 00381                     000000000  N000000000       0000000000000.00 0000000.00   0000000.00                             000000000000000                                                                                                                                                     01418 A000000000000 0000000000000.28     00800 01500                  
02259920297150063DT67590675900000008334800101800000010180010177287283072900013300130031320230000000149707223000000000178983531258XXXXXX6881       MS02WI09          NY 1 0 AMDJCDYKQF0313  N840000000001497          05DNPLANET VAPOR #400        180534    MD84000000001497 N  599976779447                            000000000+M10101C5434C    MDJ  10815                     000000000  1                0000000000000.00 0000000.00   0000000.00                             000000000000000                                                                                                                                                   B101418  000000000000 0000000000000.23     00050 02200                  
02259930297150064DT67590675900000008334800101800000010180010124001193072900013300146031320230000000534907223000000000178983411770XXXXXX4414       VS11    0001111   NYV1 A E583072623926995N84000000000534942SD00    05DNPLANET VAPOR #400        161997    VD84000000005349 N  599976779447                            000000000+                F DF 10433                     000000000  Y000000000 338   0000000000000.00 0000000.00   0000000.00                             000000000000000                                                                                                                                                     01418 A000000000000 0000000000000.25     00050 02200                  
02259940297150065DT67590675900000008334800101800000010180010124001193072900013300153031320230000000149707223000000000178983463405XXXXXX6194       VK04VS111111111   NYV1 A E463072651986994N840000000001497VFPD00    05DNPLANET VAPOR #400        011082    VD84000000001497 N  599976779447                            000000000+                F DF 10439                     000000000  Y000000000 331   0000000000000.00 0000000.00   0000000.00                             000000000000000                                                                                                                                                     01418 F000000000000 0000000000000.23     00050 02200                  
02259950297150066DT67590675900000008334800101800000010180010124001193072900013300161031320230000000352907223000000000178983473703XXXXXX9474       VS11    0001111   NYV1 A E583072652604290N840000000003529T54Q00    05DNPLANET VAPOR #400        037000    VD84000000003529 N  599976779447                            000000000+                F DF 10433                     000000000  Y000000000 338   0000000000000.00 0000000.00   0000000.00                             000000000000000                                                                                                                                                     01418 A000000000000 0000000000000.24     00050 02200                  
02259960297150067DT67590675900000008334800101800000010180010124001193072900013300179031320230000000320707223000000000178983430602XXXXXX5615       VS11    0001111   NYV1 A E583072657290490N840000000003207FQP200    05DNPLANET VAPOR #400        932479    VD84000000003207 N  599976779447                            000000000+                F DF 00381                     000000000  N000000000       0000000000000.00 0000000.00   0000000.00                             000000000000000                                                                                                                                                     01418 A000000000000 0000000000000.41     00800 01500                  
02259970297150068DT67590675900000008334800101800000010180010177287283072900013300189031320230000001004907223000000000178983552433XXXXXX8962       MS02WI09          NY 1 0 AMCWADR3J30313  N840000000010049          05DNPLANET VAPOR #400        00919S    MC84000000010049 N  599976779447                            000000000+M10101C5434C    MCW  02184                     000000000  N                0000000000000.00 0000000.00   0000000.00                             000000000000000                                                                                                                                                   B101418  000000000000 0000000000002.41     02300 01000                  
02259980297150069DT67590675900000008334800101800000010180010124001193072900013300195031320230000000374307223000000000178983414720XXXXXX8824       VS11    0001111   NYV1 A E463072666310049N840000000003743ZS5H00    05DNPLANET VAPOR #400        00962D    VS84000000003743 N  599976779447                            000000000+                D CD 12113                     000000000  N000000000 499   0000000000000.00 0000000.00   0000000.00                             000000000000000                                                                                                                                                     01418 A000000000000 0000000000000.89     02100 01000                  
02259990297150070DT67590675900000008334800101800000010180010124001193072900013300203031320230000000149607223000000000178983474474XXXXXX7371       VK04VS111111111   NYV1 A E383072675038951N840000000001496FQG700    05DNPLANET VAPOR #400        174655    VD84000000001496 N  599976779447                            000000000+                F DF 10439                     000000000  Y000000000 331   0000000000000.00 0000000.00   0000000.00                             000000000000000                                                                                                                                                     01418 F000000000000 0000000000000.23     00050 02200                  
02260000297150071DT67590675900000008334800101800000010180010124001193072900013300211031320230000000267307223000000000178983466189XXXXXX6111       VS11    0001111   NYV1 A E583072676087774N840000000002673HVC200    05DNPLANET VAPOR #400        041543    VD84000000002673 N  599976779447                            000000000+                F DF 10433                     000000000  Y000000000 338   0000000000000.00 0000000.00   0000000.00                             000000000000000                                                                                                                                                     01418 A000000000000 0000000000000.23     00050 02200                  
02260010297150072DT67590675900000008334800101800000010180010124001193072900013300229031320230000000182907223000000000178983414334XXXXXX1198       VS11    0001111   NYV1 A E303072678894999N8400000000018299XBG00    05DNPLANET VAPOR #400        896976    VS84000000001829 N  599976779447                            000000000+                B CB 12111                     000000000  N000000000 495   0000000000000.00 0000000.00   0000000.00                             000000000000000                                                                                                                                                     01418 A000000000000 0000000000000.40     01650 01000                  
02260020297150073DT67590675900000008334800101800000010180010124001193072900013300237031320230000000213907223000000000178983465992XXXXXX1062       VS11    0001111   NYV1 A E583072690499241N840000000002139ZSVW00    07DNPLANET VAPOR #400        613651    VD84000000002139 N  599976779447                            000000000+                F DF 00381                     000000000  N000000000       0000000000000.00 0000000.00   0000000.00                             000000000000000                                                                                                                                                     01418 A000000000000 0000000000000.32     00800 01500                  
02260030297150074DT67590675900000008334800101800000010180010124001193072900013300245031320230000000692907223000000000178983406049XXXXXX9943       VS11    0001111   NYV1 A E383072694481533N8400000000069297Z9L00    05DNPLANET VAPOR #400        041728    VD84000000006929 N  599976779447                            000000000+                F DF 10433                     000000000  Y000000000 338   0000000000000.00 0000000.00   0000000.00                             000000000000000                                                                                                                                                     01418 A000000000000 0000000000000.25     00050 02200                  
02260040297150075DT67590675900000008334800101800000010180010124001193072900013300252031320230000000213907223000000000178983438419XXXXXX9504       VS11    0001111   NYV1 A E583072703070999N840000000002139N4T900    05DNPLANET VAPOR #400        053147    VD84000000002139 N  599976779447                            000000000+                F DF 00381                     000000000  N000000000       0000000000000.00 0000000.00   0000000.00                             000000000000000                                                                                                                                                     01418 A000000000000 0000000000000.32     00800 01500                  
02260050297150076DT67590675900000008334800101800000010180010124001193072900013300260031320230000001465507223000000000178983455225XXXXXX7498       VS11    0001111   NYV1 A E303072708266276N840000000014655XNNS00    05DNPLANET VAPOR #400        H58751    VD84000000014655 N  599976779447                            000000000+                F DF 10433                     000000000  Y000000000 338   0000000000000.00 0000000.00   0000000.00                             000000000000000                                                                                                                                                     01418 A000000000000 0000000000000.29     00050 02200                  
02260060297150077DT67590675900000008334800101800000010180010124001193072900013300278031320230000000374407223000000000178983485671XXXXXX3785       VS11    0001111   NYV1 A E383072710469133N840000000003744GZD300    05DNPLANET VAPOR #400        40663C    VS84000000003744 N  599976779447                            000000000+                C CC 12112                     000000000  N000000000 497   0000000000000.00 0000000.00   0000000.00                             000000000000000                                                                                                                                                     01418 A000000000000 0000000000000.72     01650 01000                  
02260070297150078DT67590675900000008334800101800000010180010124001193072900013300286031320230000000556107223000000000178983433477XXXXXX4161       VS11    0001111   NYV1 A E583072711833830N840000000005561BDV900    05DNPLANET VAPOR #400        898339    VD84000000005561 N  599976779447                            000000000+                F DF 10433                     000000000  Y000000000 338   0000000000000.00 0000000.00   0000000.00                             000000000000000                                                                                                                                                     01418 A000000000000 0000000000000.25     00050 02200                  
02260080297150079DT67590675900000008334800101800000010180010177287283072900013300296031320230000000748807223000000000178983531258XXXXXX4948       MS02WI09          NY 1 0 AMDJNKQQJ70313  N840000000007488          05DNPLANET VAPOR #400        174079    MD84000000007488 N  599976779447                            000000000+M10101C5434C    MDJ  10815                     000000000  1                0000000000000.00 0000000.00   0000000.00                             000000000000000                                                                                                                                                   B101418  000000000000 0000000000000.26     00050 02200                  
02260090297150080DT67590675900000008334800101800000010180010124001193072900013300302031320230000000423507223000000000178983400022XXXXXX3451       VS11    0001111   NYV1 A E303072713364345N840000000004235LWNW00    05DNPLANET VAPOR #400        117830    VD84000000004235 N  599976779447                            000000000+                F DF 10433                     000000000  Y000000000 338   0000000000000.00 0000000.00   0000000.00                             000000000000000                                                                                                                                                     01418 A000000000000 0000000000000.24     00050 02200                  
02260100297150081DT67590675900000008334800101800000010180010124001193072900013300310031320230000000149707223000000000178983433477XXXXXX3616       VK04VS111111111   NYV1 A E583072728816245N840000000001497MJ3W00    05DNPLANET VAPOR #400        028104    VD84000000001497 N  599976779447                            000000000+                F DF 10439                     000000000  Y000000000 331   0000000000000.00 0000000.00   0000000.00                             000000000000000                                                                                                                                                     01418 F000000000000 0000000000000.23     00050 02200                  
02260110297150082DT67590675900000008334800101800000010180010124001193072900013300328031320230000000235307223000000000178983461675XXXXXX4206       VS11    0001111   NYV1 A E383072744039802N840000000002353KBWB00    05DNPLANET VAPOR #400        106290    VD84000000002353 N  599976779447                            000000000+                F DF 00381                     000000000  N000000000       0000000000000.00 0000000.00   0000000.00                             000000000000000                                                                                                                                                     01418 A000000000000 0000000000000.34     00800 01500                  
02260120297150083DT67590675900000008334800101800000010180010124001193072900013300336031320230000000267407223000000000178983430602XXXXXX8056       VS11    0001111   NYV1 A E303072744750196N840000000002674KB8300    05DNPLANET VAPOR #400        954485    VD84000000002674 N  599976779447                            000000000+                F DF 00381                     000000000  N000000000       0000000000000.00 0000000.00   0000000.00                             000000000000000                                                                                                                                                     01418 A000000000000 0000000000000.36     00800 01500                  
02260130297150084DT67590675900000008334800101800000010180010124001193072900013300344031320230000000213907223000000000178983461675XXXXXX7352       VS11    0001111   NYV1 A E303072746754042N840000000002139CW8600    05DNPLANET VAPOR #400        109500    VD84000000002139 N  599976779447                            000000000+                F DF 00381                     000000000  N000000000       0000000000000.00 0000000.00   0000000.00                             000000000000000                                                                                                                                                     01418 A000000000000 0000000000000.32     00800 01500                  
02260140297150085DT67590675900000008334800101800000010180010176509753072900013300359031320230000000491907223000000000178983601100XXXXXX6995   BA50                  NY41 0 N873061949089241N840000000004919    00    05DNPLANET VAPOR #400        01353R    DS84000000004919 N  599976779447050                         000000000+0000004910H00   DCCDI01000332704  164828000000 000000000  0          112   0000000000000.00 0000000.00   0000000.00                             000000000000000                                                                                                                                                     01418  000000000000 0000000000000.95     01720 01000                  
02260150297150086DT67590675900000008334800101800000010180010124001193072900013300369031320230000000500007223000000000178983400022XXXXXX7674       VS11    0001111   NYV1 A E303072752811953N840000000005000HKRX00    05DNPLANET VAPOR #400        516392    VD84000000005000 N  599976779447                            000000000+                F DF 10433                     000000000  Y000000000 338   0000000000000.00 0000000.00   0000000.00                             000000000000000                                                                                                                                                     01418 A000000000000 0000000000000.25     00050 02200                  
02260160297150087DT67590675900000008334800101800000010180010124001193072900013300377031320230000000609707223000000000178983466189XXXXXX9267       VS11    0001111   NYV1 A E383072754917840N8400000000060972JMR00    05DNPLANET VAPOR #400        058816    VD84000000006097 N  599976779447                            000000000+                F DF 10433                     000000000  Y000000000 338   0000000000000.00 0000000.00   0000000.00                             000000000000000                                                                                                                                                     01418 A000000000000 0000000000000.25     00050 02200                  
02260170297150088DT67590675900000008334800101800000010180010124001193072900013300385031320230000000456207223000000000178983458643XXXXXX6286       VS11    0001111   NYV1 A E303072770222983N840000000004562HSBL00    05DNPLANET VAPOR #400        H66971    VD84000000004562 N  599976779447                            000000000+                F DF 10433                     000000000  Y000000000 338   0000000000000.00 0000000.00   0000000.00                             000000000000000                                                                                                                                                     01418 A000000000000 0000000000000.24     00050 02200                  
02260180297150089DT67590675900000008334800101800000010180010124001193072900013300393031320230000000090807223000000000178983400022XXXXXX7674       VK04VS111111111   NYV1 A E303072771605048N840000000000908ZLPW00    05DNPLANET VAPOR #400        186924    VD84000000000908 N  599976779447                            000000000+                F DF 10439                     000000000  Y000000000 331   0000000000000.00 0000000.00   0000000.00                             000000000000000                                                                                                                                                     01418 F000000000000 0000000000000.22     00050 02200                  
02260190297150090DT67590675900000008334800101800000010180010177287283072900013300403031320230000000392007223000000000178983545443XXXXXX4367       MS02WI09          NY 1 0 AMDJA5MPW60313  N840000000003920          05DNPLANET VAPOR #400        027992    MD84000000003920 N  599976779447                            000000000+M10101C5434C    MDJ  00402                     000000000  N                0000000000000.00 0000000.00   0000000.00                             000000000000000                                                                                                                                                   B101418  000000000000 0000000000000.56     01050 01500                  
02260200297150091DT67590675900000008334800101800000010180010124001193072900013300419031320230000000641807223000000000178983413040XXXXXX1722       VS11    0001111   NYV1 A E303072778051081N840000000006418XLC400    05DNPLANET VAPOR #400        054975    VD84000000006418 N  599976779447                            000000000+                F DF 10433                     000000000  Y000000000 338   0000000000000.00 0000000.00   0000000.00                             000000000000000                                                                                                                                                     01418 A000000000000 0000000000000.25     00050 02200                  
02260210297150092DT67590675900000008334800101800000010180010177287283072900013300429031320230000000427907223000000000178983517805XXXXXX2261       MS02WI09          NY 1 0 AMPLPOSAW50313  N840000000004279          05DNPLANET VAPOR #400        00833B    MC84000000004279 N  599976779447                            000000000+M10101C5434C    MPL  00353                     000000000  N                0000000000000.00 0000000.00   0000000.00                             000000000000000                                                                                                                                                   B101418  000000000000 0000000000000.87     01800 01000                  
02260220297150093DT67590675900000008334800101800000010180010124001193072900013300435031320230000000278107223000000000178983466189XXXXXX8645       VS11    0001111   NYV1 A E463072799981136N840000000002781KDNN00    05DNPLANET VAPOR #400        040366    VD84000000002781 N  599976779447                            000000000+                F DF 10433                     000000000  Y000000000 338   0000000000000.00 0000000.00   0000000.00                             000000000000000                                                                                                                                                     01418 A000000000000 0000000000000.23     00050 02200                  
02260230297150094DT67590675900000008334800101800000010180010124001193072900013300443031320230000000775407223000000000178983430602XXXXXX3740       VS11    0001111   NYV1 A E303072831630780N84000000000775467XL00    05DNPLANET VAPOR #400        975238    VD84000000007754 N  599976779447                            000000000+                F DF 00381                     000000000  N000000000       0000000000000.00 0000000.00   0000000.00                             000000000000000                                                                                                                                                     01418 A000000000000 0000000000000.77     00800 01500                  
02260240297150095DT67590675900000008334800101800000010180010124001193072900013300450031320230000000556307223000000000178983461675XXXXXX2436       VS11    0001111   NYV1 A E303072832248947N840000000005563MZ9V00    05DNPLANET VAPOR #400        202080    VD84000000005563 N  599976779447                            000000000+                F DF 00381                     000000000  N000000000       0000000000000.00 0000000.00   0000000.00                             000000000000000                                                                                                                                                     01418 A000000000000 0000000000000.60     00800 01500                  
02260250297150096DT67590675900000008334800101800000010180010124001193072900013300468031320230000000320807223000000000178983448261XXXXXX3700       VS11    0001111   NYV1 A E583072835852624N840000000003208SWNV00    05DNPLANET VAPOR #400        502869    VD84000000003208 N  599976779447                            000000000+                F DF 10433                     000000000  Y000000000 338   0000000000000.00 0000000.00   0000000.00                             000000000000000                                                                                                                                                     01418 A000000000000 0000000000000.24     00050 02200                  
02260260297150097DT67590675900000008334800101800000010180010124001193072900013300476031320230000000083607223000000000178983400022XXXXXX7674       VK04VS111111111   NYV1 A E383072855883101N8400000000008363N5300    05DNPLANET VAPOR #400        617865    VD84000000000836 N  599976779447                            000000000+                F DF 10439                     000000000  Y000000000 331   0000000000000.00 0000000.00   0000000.00                             000000000000000                                                                                                                                                     01418 F000000000000 0000000000000.22     00050 02200                  
02260270297150098BH6759067590000001090080010180000090170313202307223000000000078410    0000090001320020N8001016759C03142023                                                                                                                                                                                                                                                                                                                                                                                                                                                                                                                                                                                                 
02260280297150099DT67590675900000010900800101800000010180010124001193072900013200015031320230000000323907223000000000078410405301XXXXXX3169       VS11    0001111   NYV1 A E463072560665501N840000000003239377R00    07DNPLANET VAPOR #700        013876    VB84000000003239 N  599976923375                            000000000+                G3CG308003                     000000000  N000000000 382   0000000000000.00 0000000.00   0000000.00                             000000000000000                                                                                                                                                     01418 A000000000000 0000000000000.76     02050 01000                  
02260290297150100DT67590675900000010900800101800000010180010177287283072900013200025031320230000000593807223000000000078410517800XXXXXX6464       MS02WI09          NY 2 0 AMCSP1F4S90313  N840000000005938          07DNPLANET VAPOR #700        013788    MC84000000005938 N  599976923375                            000000000+M10101M1334C    MCS  00015                     000000000  N                0000000000000.00 0000000.00   0000000.00                             000000000000000                                                                                                                                                   B101418  000000000000 0000000000001.08     01650 01000                  
02260300297150101DT67590675900000010900800101800000010180010124001193072900013200031031320230000000280707223000000000078410425788XXXXXX6443       VS11    0001111   NYV1 A E383072590976365N840000000002807P57N00    05DNPLANET VAPOR #700        012458    VD84000000002807 N  599976923375                            000000000+                F DF 10433                     000000000  Y000000000 338   0000000000000.00 0000000.00   0000000.00                             000000000000000                                                                                                                                                     01418 A000000000000 0000000000000.23     00050 02200                  
02260310297150102DT67590675900000010900800101800000010180010177287283072900013200041031320230000000302107223000000000078410515676XXXXXX2089       MS02WI09          NY 1 0 AMWETHVQTH0313  N840000000003021          07DNPLANET VAPOR #700        08561Z    MC84000000003021 N  599976923375                            000000000+M10101M0034C    MWE  00739                     000000000  N                0000000000000.00 0000000.00   0000000.00                             000000000000000                                                                                                                                                   B101418  000000000000 0000000000000.79     02300 01000                  
02260320297150103DT67590675900000010900800101800000010180010124001193072900013200056031320230000000477107223000000000078410433477XXXXXX2121       VS11    0001111   NYV1 A E463072603576317N840000000004771HVZJ00    05DNPLANET VAPOR #700        722272    VD84000000004771 N  599976923375                            000000000+                F DF 10433                     000000000  Y000000000 338   0000000000000.00 0000000.00   0000000.00                             000000000000000                                                                                                                                                     01418 A000000000000 0000000000000.24     00050 02200                  
02260330297150104DT67590675900000010900800101800000010180010124001193072900013200064031320230000000237507223000000000078410445102XXXXXX6180       VS11    0001111   NYV1 A E383072615442541N840000000002375W7L800    05DNPLANET VAPOR #700        280720    VD84000000002375 N  599976923375                            000000000+                F DF 10433                     000000000  Y000000000 338   0000000000000.00 0000000.00   0000000.00                             000000000000000                                                                                                                                                     01418 A000000000000 0000000000000.23     00050 02200                  
02260340297150105DT67590675900000010900800101800000010180010124001193072900013200072031320230000000323807223000000000078410438419XXXXXX3108       VS11    0001111   NYV1 A E303072723840709N840000000003238S7SW00    07DNPLANET VAPOR #700        060624    VD84000000003238 N  599976923375                            000000000+                F DF 00381                     000000000  N000000000       0000000000000.00 0000000.00   0000000.00                             000000000000000                                                                                                                                                     01418 A000000000000 0000000000000.41     00800 01500                  
02260350297150106DT67590675900000010900800101800000010180010124001193072900013200080031320230000000252607223000000000078410473703XXXXXX9993       VS11    0001111   NYV1 A E463072746687492N8400000000025262MH200    07DNPLANET VAPOR #700        003788    VD84000000002526 N  599976923375                            000000000+                F DF 10433                     000000000  Y000000000 338   0000000000000.00 0000000.00   0000000.00                             000000000000000                                                                                                                                                     01418 A000000000000 0000000000000.23     00050 02200                  
02260360297150107DT67590675900000010900800101800000010180010124001193072900013200098031320230000000237507223000000000078410410702XXXXXX1800       VS11    0001111   NYV1 A E463072749350868N8400000000023758FCN00    05DNPLANET VAPOR #700        162048    VD84000000002375 N  599976923375                            000000000+                F DF 00381                     000000000  N000000000       0000000000000.00 0000000.00   0000000.00                             000000000000000                                                                                                                                                     01418 A000000000000 0000000000000.34     00800 01500                  
02260370297150108DT67590675900000010900800101800000010180010124001193072900013200106031320230000000453407223000000000078410402944XXXXXX8379       VS11    0001111   NYV1 A E583072755394472N840000000004534SHKS00    07DNPLANET VAPOR #700        055859    VD84000000004534 N  599976923375                            000000000+                F DF 10433                     000000000  Y000000000 338   0000000000000.00 0000000.00   0000000.00                             000000000000000                                                                                                                                                     01418 A000000000000 0000000000000.24     00050 02200                  
02260380297150109DT67590675900000010900800101800000010180010124001193072900013200114031320230000000572107223000000000078410430602XXXXXX6597       VS11    0001111   NYV1 A E303072769781333N840000000005721X7Q900    05DNPLANET VAPOR #700        960927    VD84000000005721 N  599976923375                            000000000+                F DF 00381                     000000000  N000000000       0000000000000.00 0000000.00   0000000.00                             000000000000000                                                                                                                                                     01418 A000000000000 0000000000000.61     00800 01500                  
02260390297150110DT67590675900000010900800101800000010180010124001193072900013200122031320230000000115907223000000000078410473702XXXXXX6279       VK04VS111111111   NYV1 A E463072790467917N840000000001159SF4J00    05DNPLANET VAPOR #700        066965    VD84000000001159 N  599976923375                            000000000+                F DF 10439                     000000000  Y000000000 331   0000000000000.00 0000000.00   0000000.00                             000000000000000                                                                                                                                                     01418 F000000000000 0000000000000.23     00050 02200                  
02260400297150111DT67590675900000010900800101800000010180010124001193072900013200130031320230000001511807223000000000078410430602XXXXXX0631       VS11    0001111   NYV1 A E463072791888829N8400000000151184BLS00    05DNPLANET VAPOR #700        966415    VD84000000015118 N  599976923375                            000000000+                F DF 00381                     000000000  N000000000       0000000000000.00 0000000.00   0000000.00                             000000000000000                                                                                                                                                     01418 A000000000000 0000000000001.36     00800 01500                  
02260410297150112DT67590675900000010900800101800000010180010124001193072900013200148031320230000000475007223000000000078410419002XXXXXX8414       VS11    0001111   NYV1 A E583072795509480N840000000004750NK3L00    07DNPLANET VAPOR #700        003547    VD84000000004750 N  599976923375                            000000000+                F DF 10433                     000000000  Y000000000 338   0000000000000.00 0000000.00   0000000.00                             000000000000000                                                                                                                                                     01418 A000000000000 0000000000000.24     00050 02200                  
02260420297150113DT67590675900000010900800101800000010180010124001193072900013200155031320230000000151007223000000000078410400022XXXXXX1158       VS11    0001111   NYV1 A E463072800242193N840000000001510726800    07DNPLANET VAPOR #700        652450    VD84000000001510 N  599976923375                            000000000+                F DF 10433                     000000000  Y000000000 338   0000000000000.00 0000000.00   0000000.00                             000000000000000                                                                                                                                                     01418 A000000000000 0000000000000.23     00050 02200                  
02260430297150114DT67590675900000010900800101800000010180010124001193072900013200163031320230000000237507223000000000078410430602XXXXXX5023       VS11    0001111   NYV1 A E463072837456948N840000000002375X24P00    07DNPLANET VAPOR #700        976343    VD84000000002375 N  599976923375                            000000000+                F DF 00381                     000000000  N000000000       0000000000000.00 0000000.00   0000000.00                             000000000000000                                                                                                                                                     01418 A000000000000 0000000000000.34     00800 01500                  
02260440297150115DT67590675900000010900800101800000010180010124001193072900013200171031320230000000194307223000000000078410410702XXXXXX9157       VS11    0001111   NYV1 A E463072839788781N840000000001943STGC00    05DNPLANET VAPOR #700        184897    VD84000000001943 N  599976923375                            000000000+                F DF 00381                     000000000  N000000000       0000000000000.00 0000000.00   0000000.00                             000000000000000                                                                                                                                                     01418 A000000000000 0000000000000.31     00800 01500                  
02260450297150116DT67590675900000010900800101800000010180010124001193072900013200189031320230000000518107223000000000078410430602XXXXXX3440       VS11    0001111   NYV1 A E463072843547638N840000000005181PDZ600    07DNPLANET VAPOR #700        977483    VD84000000005181 N  599976923375                            000000000+                F DF 00381                     000000000  N000000000       0000000000000.00 0000000.00   0000000.00                             000000000000000                                                                                                                                                     01418 A000000000000 0000000000000.56     00800 01500                  
02260460297150117DT67590675900000010900800101800000010180010124001193072900013200197031320230000000410207223000000000078410440393XXXXXX0722       VS11    0001111   NYV1 A E303072863396564N840000000004102GNNS00    05DNPLANET VAPOR #700        208662    VD84000000004102 N  599976923375                            000000000+                F PF 08170                     000000000  N000000000       0000000000000.00 0000000.00   0000000.00                             000000000000000                                                                                                                                                     01418 A000000000000 0000000000000.62     01150 01500                  
02260470297150118DT67590675900000010900800101800000010180010177287283072900013200207031320230000000172707223000000000078410517805XXXXXX1653       MS02WI09          NY 1 0 AMPLWNOVXG0313  N840000000001727          07DNPLANET VAPOR #700        03795B    MC84000000001727 N  599976923375                            000000000+M10101M0034C    MPL  00353                     000000000  N                0000000000000.00 0000000.00   0000000.00                             000000000000000                                                                                                                                                   B101418  000000000000 0000000000000.41     01800 01000                  
02260480297150119BH6759067590000001129680010180000090170313202307223000000000103502    0000090001380024N8001016759C03142023                                                                                                                                                                                                                                                                                                                                                                                                                                                                                                                                                                                                 
02260490297150120DT67590675900000011296800101800000010180010124001193072900013800012031320230000000731807223000000000103502473703XXXXXX3345       VS11    0001111   NYV1 A E463072525004921N840000000007318FXQW00    07DNPLANET VAPOR #1000       054576    VD84000000007318 N  599976923732                            000000000+                F DF 10433                     000000000  Y000000000 338   0000000000000.00 0000000.00   0000000.00                             000000000000000                                                                                                                                                     01418 A000000000000 0000000000000.26     00050 02200                  
02260500297150121DT67590675900000011296800101800000010180010177287283072900013800022031320230000000426407223000000000103502522355XXXXXX6960       MS02WI09          NY 1 0 AMWETUOKS90313  N840000000004264          07DNPLANET VAPOR #1000       76900Z    MC84000000004264 N  599976923732                            000000000+M10101M0034C    MWE  00739                     000000000  N                0000000000000.00 0000000.00   0000000.00                             000000000000000                                                                                                                                                   A101418  000000000000 0000000000001.08     02300 01000                  
02260510297150122DT67590675900000011296800101800000010180010177287283072900013800030031320230000000223507223000000000103502517800XXXXXX5931       MS02WI09          NY 1 0 AMCSVRL2S90313  N840000000002235          05DNPLANET VAPOR #1000       013899    MC84000000002235 N  599976923732                            000000000+M10101C5434C    MCS  00015                     000000000  N                0000000000000.00 0000000.00   0000000.00                             000000000000000                                                                                                                                                   B101418  000000000000 0000000000000.47     01650 01000                  
02260520297150123DT67590675900000011296800101800000010180010124001193072900013800046031320230000000356207223000000000103502409758XXXXXX4545       VS11    0001111   NYV1 A E383072600320110N8400000000035628F7S00    90DNPLANET VAPOR #1000       571562    VD84000000003562 N  599976923732                            000000000+                F PF 08170                     000000000  N000000000       0000000000000.00 0000000.00   0000000.00                             000000000000000                                                                                                                                                     01418 A000000000000 0000000000000.56     01150 01500                  
02260530297150124DT67590675900000011296800101800000010180010124001193072900013800053031320230000000485707223000000000103502435544XXXXXX0145       VS11    0001111   NYV1 A E383072640824904N8400000000048572FWT00    05DNPLANET VAPOR #1000       109104    VD84000000004857 N  599976923732                            000000000+                F DF 10433                     000000000  Y000000000 338   0000000000000.00 0000000.00   0000000.00                             000000000000000                                                                                                                                                     01418 A000000000000 0000000000000.24     00050 02200                  
02260540297150125DT67590675900000011296800101800000010180010177287283072900013800063031320230000000734307223000000000103502530705XXXXXX7791       MS02WI09          NY 1 0 AMCWASV5J00313  N840000000007343          05DNPLANET VAPOR #1000       21314Z    MC84000000007343 N  599976923732                            000000000+M10101C5434C    MCW  00644                     000000000  N                0000000000000.00 0000000.00   0000000.00                             000000000000000                                                                                                                                                   B101418  000000000000 0000000000001.50     01900 01000                  
02260550297150126DT67590675900000011296800101800000010180010177287283072900013800071031320230000000159007223000000000103502530705XXXXXX7791       MS02WI09          NY 1 0 AMCWAT58J00313  N840000000001590          05DNPLANET VAPOR #1000       21316Z    MC84000000001590 N  599976923732                            000000000+M10101C5434C    MCW  00644                     000000000  N                0000000000000.00 0000000.00   0000000.00                             000000000000000                                                                                                                                                   B101418  000000000000 0000000000000.40     01900 01000                  
02260560297150127DT67590675900000011296800101800000010180010124001193072900013800087031320230000000524607223000000000103502448232XXXXXX4754       VS11    0001111   NYV1 A E303072668401588N840000000005246HJFK00    05DNPLANET VAPOR #1000       043353    VD84000000005246 N  599976923732                            000000000+                F DF 00381                     000000000  N000000000       0000000000000.00 0000000.00   0000000.00                             000000000000000                                                                                                                                                     01418 A000000000000 0000000000000.57     00800 01500                  
02260570297150128DT67590675900000011296800101800000010180010124001193072900013800095031320230000000641207223000000000103502473702XXXXXX7314       VS11    0001111   NYV1 A E583072669414320N840000000006412C7GH00    05DNPLANET VAPOR #1000       081199    VD84000000006412 N  599976923732                            000000000+                F DF 10433                     000000000  Y000000000 338   0000000000000.00 0000000.00   0000000.00                             000000000000000                                                                                                                                                     01418 A000000000000 0000000000000.25     00050 02200                  
02260580297150129DT67590675900000011296800101800000010180010177287283072900013800105031320230000000437307223000000000103502519836XXXXXX9523       MS02WI09          NY 1 0 AMDJE3YQQF0313  N840000000004373          07DNPLANET VAPOR #1000       393740    MD84000000004373 N  599976923732                            000000000+M10101M0034C    MDJ  00402                     000000000  N                0000000000000.00 0000000.00   0000000.00                             000000000000000                                                                                                                                                   B101418  000000000000 0000000000000.61     01050 01500                  
02260590297150130DT67590675900000011296800101800000010180010177287283072900013800113031320230000000213707223000000000103502542418XXXXXX5398       MS02WI09          NY 1 0 AMPLCNY4J00313  N840000000002137          07DNPLANET VAPOR #1000       83013B    MC84000000002137 N  599976923732                            000000000+M10101M0034C    MPL  00353                     000000000  N                0000000000000.00 0000000.00   0000000.00                             000000000000000                                                                                                                                                   B101418  000000000000 0000000000000.48     01800 01000                  
02260600297150131DT67590675900000011296800101800000010180010124001193072900013800129031320230000000242907223000000000103502416074XXXXXX1307       VS11    0001111   NYV1 A E383072693844808N840000000002429PX4L00    07DNPLANET VAPOR #1000       051618    VD84000000002429 N  599976923732                            000000000+                F DF 00381                     000000000  N000000000       0000000000000.00 0000000.00   0000000.00                             000000000000000                                                                                                                                                     01418 A000000000000 0000000000000.34     00800 01500                  
02260610297150132DT67590675900000011296800101800000010180010124001193072900013800137031320230000000356207223000000000103502448261XXXXXX4825       VS11    0001111   NYV1 A E583072702669141N840000000003562LNKM00    07DNPLANET VAPOR #1000       335744    VD84000000003562 N  599976923732                            000000000+                F DF 10433                     000000000  Y000000000 338   0000000000000.00 0000000.00   0000000.00                             000000000000000                                                                                                                                                     01418 A000000000000 0000000000000.24     00050 02200                  
02260620297150133DT67590675900000011296800101800000010180010124001193072900013800145031320230000000242807223000000000103502400164XXXXXX7478       VS11    0001111   NYV1 A E383072705658100N840000000002428Q6NW00    05DNPLANET VAPOR #1000       013026    VS84000000002428 N  599976923732                            000000000+                A CA 12110                     000000000  N000000000 493   0000000000000.00 0000000.00   0000000.00                             000000000000000                                                                                                                                                     01418 A000000000000 0000000000000.47     01510 01000                  
02260630297150134DT67590675900000011296800101800000010180010124001193072900013800152031320230000000242907223000000000103502498503XXXXXX0166       VS11    0001111   NYV1 A E463072712475901N840000000002429TX9B00    05DNPLANET VAPOR #1000       004334    VD84000000002429 N  599976923732                            000000000+                F DF 00381                     000000000  N000000000       0000000000000.00 0000000.00   0000000.00                             000000000000000                                                                                                                                                     01418 A000000000000 0000000000000.34     00800 01500                  
02260640297150135DT67590675900000011296800101800000010180010124001193072900013800160031320230000000680207223000000000103502473703XXXXXX1483       VS11    0001111   NYV1 A E463072725695481N840000000006802KVKC00    07DNPLANET VAPOR #1000       066237    VD84000000006802 N  599976923732                            000000000+                F DF 10433                     000000000  Y000000000 338   0000000000000.00 0000000.00   0000000.00                             000000000000000                                                                                                                                                     01418 A000000000000 0000000000000.25     00050 02200                  
02260650297150136DT67590675900000011296800101800000010180010177287283072900013800170031320230000000560107223000000000103502531258XXXXXX4741       MS02WI09          NY 1 0 AMDJDG12J30313  N840000000005601          05DNPLANET VAPOR #1000       162932    MD84000000005601 N  599976923732                            000000000+M10101C5434C    MDJ  10815                     000000000  1                0000000000000.00 0000000.00   0000000.00                             000000000000000                                                                                                                                                   B101418  000000000000 0000000000000.25     00050 02200                  
02260660297150137DT67590675900000011296800101800000010180010124001193072900013800186031320230000000229407223000000000103502453506XXXXXX3167       VS11    0001111   NYV1 A E583072750508310N840000000002294QQL900    05DNPLANET VAPOR #1000       H57398    VD84000000002294 N  599976923732                            000000000+                F DF 10433                     000000000  Y000000000 338   0000000000000.00 0000000.00   0000000.00                             000000000000000                                                                                                                                                     01418 A000000000000 0000000000000.23     00050 02200                  
02260670297150138DT67590675900000011296800101800000010180010124001193072900013800194031320230000000242907223000000000103502448232XXXXXX1278       VS11    0001111   NYV1 A E303072751710895N8400000000024297NMX00    05DNPLANET VAPOR #1000       065244    VD84000000002429 N  599976923732                            000000000+                F DF 00381                     000000000  N000000000       0000000000000.00 0000000.00   0000000.00                             000000000000000                                                                                                                                                     01418 A000000000000 0000000000000.34     00800 01500                  
02260680297150139DT67590675900000011296800101800000010180010124001193072900013800202031320230000000427507223000000000103502474474XXXXXX6052       VS11    0001111   NYV1 A E463072780260459N840000000004275TQ9L00    07DNPLANET VAPOR #1000       184306    VD84000000004275 N  599976923732                            000000000+                F DF 10433                     000000000  Y000000000 338   0000000000000.00 0000000.00   0000000.00                             000000000000000                                                                                                                                                     01418 A000000000000 0000000000000.24     00050 02200                  
02260690297150140DT67590675900000011296800101800000010180010124001193072900013800210031320230000000215907223000000000103502459954XXXXXX1562       VS11    0001111   NYV1 A E303072781983357N840000000002159Q8L500    07DNPLANET VAPOR #1000       H66538    VD84000000002159 N  599976923732                            000000000+                F DF 10433                     000000000  Y000000000 338   0000000000000.00 0000000.00   0000000.00                             000000000000000                                                                                                                                                     01418 A000000000000 0000000000000.23     00050 02200                  
