00005480449720002BH6759067590000000288180088880000090170119202301923000000000008685    0000090001440095Y8008886759C01202023                                                                                                                                                                                                                                                                                                                                                                                                                                                                                                                                                                                                 
00005490449720003DT67590675900000002881800888800000010180088824001193019900014400941011920230000000399901923000000000008685427082XXXXXX5084               2111111   NYV4 A7W383019530838609N840000000003999GCFB00    01DNHAPPY HIPPIE             019667    VS84000000003999 NP1549976044904   1911                     000000000+                B CB 12107                     000000000  N000000000 494   0000000000000.00 0000000.00   0000000.00                             000000000000000                                                                                                                                                     01424 G000000003999 0000000000000.92     02040 01000                  
00005500449720001P16759067590000000288180088880000001010000000000000000                             2000000000000000000000000              000000000000                    0000000000000000000000000                    000000000000                                                                                                                                                                                                                                                                                                                                                                                                                                                                                        
00005510449720004DT67590675900000002881800888800000010180088824001193019900014400958011920230000000468601923000000000008685435544XXXXXX3632               2111111   NYV4 A7W303019590462654N840000000004686KLXM00    01DNHAPPY HIPPIE             092120    VD84000000004686 NP1549976044904   1912                     000000000+                F DF 10420                     000000000  Y000000000 338   0000000000000.00 0000000.00   0000000.00                             000000000000000                                                                                                                                                     01424 G000000004686 0000000000000.24     00050 02200                  
00005520449720001P16759067590000000288180088880000001010000000000000000                             2000000000000000000000000              000000000000                    0000000000000000000000000                    000000000000                                                                                                                                                                                                                                                                                                                                                                                                                                                                                        
