00011290281130002BH6759067590000000288180088880000090170612202316323000000000030117    0000090001380273Y8008886759C06132023138                                                                                                                                                                                                                                                                                                                                                                                                                                                                                                                                                                                              
00011300281130003DT67590675900000002881800888800000010180088824001193163900013802703061120230000000499916323000000000030117414740XXXXXX4457               2111111   NYV4 A7W303163029809721N8400000000049998RMV00    01DNHAPPY HIPPIE             08231D    VS84000000004999 NDR549976044904   2089                     000000000+                D CD 12109                     000000000  N000000000 498   0000000000000.00 0000000.00   0000000.00                             000000000000000                                                                                                                                                     01424 G000000004999 0000000000001.35     02500 01000                  
00011310281130003DR6759067590000000288180088880000001012089                     Y000000004999                 P1                                                                                                                                                                                                                                                                                                                                                                                                                                                                                                                                                                                                            
00011320281130001P16759067590000000288180088880000001010000000000000000                             2000000000000000000000000              000000000000                    0000000000000000000000000                    000000000000                                                                                                                                                                                                                                                                                                                                                                                                                                                                                        
00011330281130002G2675906759000000028818008888000000101865-3663142              TN           9 C                00                                      NNNN   Y                      000000000000                                                                   76044904                                                                                                                                                                                                                                                                                                                                                                                                                                               
00011340281130004DT67590675900000002881800888800000010180088824001193163900013802711061220230000000340016323000000000030117463405XXXXXX3006               2111111   NYV4 A7W583163521023850N8400000000034007K3300    01DNHAPPY HIPPIE             095408    VD84000000003400 NDR549976044904   2090                     000000000+                F DF 10420                     000000000  Y000000000 338   0000000000000.00 0000000.00   0000000.00                             000000000000000                                                                                                                                                     01424 G000000003400 0000000000000.24     00050 02200                  
00011350281130004DR6759067590000000288180088880000001012090                     Y000000003400                 P1                                                                                                                                                                                                                                                                                                                                                                                                                                                                                                                                                                                                            
00011360281130001P16759067590000000288180088880000001010000000000000000                             2000000000000000000000000              000000000000                    0000000000000000000000000                    000000000000                                                                                                                                                                                                                                                                                                                                                                                                                                                                                        
00011370281130002G2675906759000000028818008888000000101865-3663142              TN           9 D                00                                      NNNN   N                      000000000000                                                                   76044904                                                                                                                                                                                                                                                                                                                                                                                                                                               
00011380281130005DT67590675900000002881800888800000010180088824001193163900013802729061220230000000799916323000000000030117415926XXXXXX4246               2111111   NYV4 A7W383163589092476N840000000007999GMZ900    01DNHAPPY HIPPIE             244037    VD84000000007999 NDR549976044904   2091                     000000000+                F DF 00415                     000000000  N000000000       0000000000000.00 0000000.00   0000000.00                             000000000000000                                                                                                                                                     01424 G000000007999 0000000000001.47     01650 01500                  
00011390281130005DR6759067590000000288180088880000001012091                     Y000000007999                 P1                                                                                                                                                                                                                                                                                                                                                                                                                                                                                                                                                                                                            
00011400281130001P16759067590000000288180088880000001010000000000000000                             2000000000000000000000000              000000000000                    0000000000000000000000000                    000000000000                                                                                                                                                                                                                                                                                                                                                                                                                                                                                        
00011410281130002G2675906759000000028818008888000000101865-3663142              TN           9 D                00                                      NNNN   N                      000000000000                                                                   76044904                                                                                                                                                                                                                                                                                                                                                                                                                                               
00011420281130006DT67590675900000002881800888800000010180088824001193163900013802737061220230000001371916323000000000030117460213XXXXXX1562               2111111   NYV4 A7W583163799440202N840000000013719HVCZ00    01DNHAPPY HIPPIE             891550    VD84000000013719 NDR549976044904   2092                     000000000+                F DF 10420                     000000000  Y000000000 338   0000000000000.00 0000000.00   0000000.00                             000000000000000                                                                                                                                                     01424 G000000013719 0000000000000.29     00050 02200                  
00011430281130006DR6759067590000000288180088880000001012092                     Y000000013719                 P1                                                                                                                                                                                                                                                                                                                                                                                                                                                                                                                                                                                                            
00011440281130001P16759067590000000288180088880000001010000000000000000                             2000000000000000000000000              000000000000                    0000000000000000000000000                    000000000000                                                                                                                                                                                                                                                                                                                                                                                                                                                                                        
00011450281130002G2675906759000000028818008888000000101865-3663142              TN           9 D                00                                      NNNN   N                      000000000000                                                                   76044904                                                                                                                                                                                                                                                                                                                                                                                                                                               
00011460281130007BH6759067590000001619680010280000090170612202316323000000000504343    0000090001633843Y8001026759C06132023063                                                                                                                                                                                                                                                                                                                                                                                                                                                                                                                                                                                              
00011470281130008DT67590675900000016196800102800000010180010287287283163900016332055061120230000001987016323000000000504343549636XXXXXX4305       ME03KE06MS02      NY 4607AMDJ0RZL5H0608  N840000000019870          81DNGREEN OTTER LLC          305842    MD84000000019870 NDR549977424386   BA3C8FDAD3T9D03BC50BB3C  000000000+600450S00130    MDJ  00401                     000000000  N                0000000000000.00 0000000.00   0000000.00                             000000000000000                                                                                                                                                   U001424  000000000000 0000000000003.43     01650 01500                  
00011480281130008DR675906759000000161968001028000000101BA3C8FDAD3T9D03BC50BB3C  Y000000000000                                                                                                                                                                                                                                                                                                                                                                                                                                                                                                                                                                                                                               
00011490281130001G2675906759000000161968001028000000101866-6317293              GA           9 J               210                                      NNNN           210000000000000000000000000                                                                   77424386                                                                                                                                                                                                                                                                                                                                                                                                                                               
00011500281130009DT67590675900000016196800102800000010180010224001193163900016332161061120230000001619016323000000000504343413171XXXXXX0891               2111111   NYV4 A7W463159426078112N840000000016190BM6900    01DNGREEN OTTER LLC          060755    VD84000000016190 NDR549977424386   58FD9F6464TDABC4DEC73EF  000000000+                F DF 00415                     000000000  N000000000       0000000000000.00 0000000.00   0000000.00                             000000000000000                                                                                                                                                     01424 G000000016190 0000000000002.82     01650 01500                  
00011510281130009DR67590675900000016196800102800000010158FD9F6464TDABC4DEC73EF  Y000000016190                 P1                                                                                                                                                                                                                                                                                                                                                                                                                                                                                                                                                                                                            
00011520281130001P16759067590000001619680010280000001010000000000000000                             2000000000000000000000000              000000000000                    0000000000000000000000000                    000000000000                                                                                                                                                                                                                                                                                                                                                                                                                                                                                        
00011530281130002G2675906759000000161968001028000000101866-6317293              GA           9 D                00                                      NNNN   N                      000000000000                                                                   77424386                                                                                                                                                                                                                                                                                                                                                                                                                                               
00011540281130010DT67590675900000016196800102800000010180010224001193163900016332344061120230000002136016323000000000504343442281XXXXXX2357               2111111   NYV4 A7W383159675141117N840000000021360JWXS00    01DNGREEN OTTER LLC          619771    VD84000000021360 NDR549977424386   20E93196F8T7DD860200F6B  000000000+                F DF 00415                     000000000  N000000000       0000000000000.00 0000000.00   0000000.00                             000000000000000                                                                                                                                                     01424 G000000021360 0000000000003.67     01650 01500                  
00011550281130010DR67590675900000016196800102800000010120E93196F8T7DD860200F6B  Y000000021360                 P1                                                                                                                                                                                                                                                                                                                                                                                                                                                                                                                                                                                                            
00011560281130001P16759067590000001619680010280000001010000000000000000                             2000000000000000000000000              000000000000                    0000000000000000000000000                    000000000000                                                                                                                                                                                                                                                                                                                                                                                                                                                                                        
00011570281130002G2675906759000000161968001028000000101866-6317293              GA           9 D                00                                      NNNN   N                      000000000000                                                                   77424386                                                                                                                                                                                                                                                                                                                                                                                                                                               
00011580281130011DT67590675900000016196800102800000010180010287287283163900016332543061120230000001799116323000000000504343546213XXXXXX5611       ME03KE06MS02      NY 4607AMDJBEZK3E0608  N840000000017991          81DNGREEN OTTER LLC          141264    MD84000000017991 NDR549977424386   28CE047004T7457638B1351  000000000+600450S00130    MDJ  10813                     000000000  1                0000000000000.00 0000000.00   0000000.00                             000000000000000                                                                                                                                                   U001424  000000000000 0000000000000.31     00050 02200                  
00011590281130011DR67590675900000016196800102800000010128CE047004T7457638B1351  Y000000000000                                                                                                                                                                                                                                                                                                                                                                                                                                                                                                                                                                                                                               
00011600281130001G2675906759000000161968001028000000101866-6317293              GA           9 J               210                                      NNNN           210000000000000000000000000                                                                   77424386                                                                                                                                                                                                                                                                                                                                                                                                                                               
00011610281130012DT67590675900000016196800102800000010180010287287283163900016333012061120230000000700416323000000000504343510805XXXXXX7465       ME03KE06MS02      NY 4607AMDJD4TB3E0608  N840000000007004          81DNGREEN OTTER LLC          063512    MD84000000007004 NDR549977424386   72358807A5T1CF6DA9E0671  000000000+600450S00130    MDJ  10813                     000000000  1                0000000000000.00 0000000.00   0000000.00                             000000000000000                                                                                                                                                   U001424  000000000000 0000000000000.26     00050 02200                  
00011620281130012DR67590675900000016196800102800000010172358807A5T1CF6DA9E0671  N000000000000                                                                                                                                                                                                                                                                                                                                                                                                                                                                                                                                                                                                                               
00011630281130001G2675906759000000161968001028000000101866-6317293              GA           9 J               210                                      NNNN           210000000000000000000000000                        7                                          77424386                                                                                                                                                                                                                                                                                                                                                                                                                                               
00011640281130013DT67590675900000016196800102800000010180010287287283163900016333541061120230000001799116323000000000504343532900XXXXXX8130       ME03KE06MS02      NY 4607AMCS850X000608  N840000000017991          81DNGREEN OTTER LLC          02487B    MC84000000017991 NDR549977424386   2B2BC80E20T68CE720BD9C0  000000000+600450S00130    MCS  00580                     000000000  N                0000000000000.00 0000000.00   0000000.00                             000000000000000                                                                                                                                                   U001424  000000000000 0000000000003.88     02100 01000                  
00011650281130013DR6759067590000001619680010280000001012B2BC80E20T68CE720BD9C0  Y000000000000                                                                                                                                                                                                                                                                                                                                                                                                                                                                                                                                                                                                                               
00011660281130001G2675906759000000161968001028000000101866-6317293              GA           9 S               210                                      NNNN           210000000000000000000000000                        7                                          77424386                                                                                                                                                                                                                                                                                                                                                                                                                                               
00011670281130014DT67590675900000016196800102800000010180010224001193163900016337368061120230000000149516323000000000504343481582XXXXXX1147               2111111   NYV4 A7W463163001096022N840000000001495ZJCW00    01DNGREEN OTTER LLC          140416    VD84000000001495 NDR549977424386   BB354002AFTDB8D602A1A51  000000000+                F DF 10420                     000000000  Y000000000 338   0000000000000.00 0000000.00   0000000.00                             000000000000000                                                                                                                                                     01424 G000000001495 0000000000000.23     00050 02200                  
00011680281130014DR675906759000000161968001028000000101BB354002AFTDB8D602A1A51  Y000000001495                 P1                                                                                                                                                                                                                                                                                                                                                                                                                                                                                                                                                                                                            
00011690281130001P16759067590000001619680010280000001010000000000000000                             2000000000000000000000000              000000000000                    0000000000000000000000000                    000000000000                                                                                                                                                                                                                                                                                                                                                                                                                                                                                        
00011700281130002G2675906759000000161968001028000000101866-6317293              GA           9 D                00                                      NNNN   N                      000000000000                                                                   77424386                                                                                                                                                                                                                                                                                                                                                                                                                                               
00011710281130015DT67590675900000016196800102800000010180010224001193163900016337384061120230000001987016323000000000504343473336XXXXXX1579               2111111   NYV4 A7W583163002679406N840000000019870Z2H900    01DNGREEN OTTER LLC          080427    VD84000000019870 NDR549977424386   C1E433627DT9AE3EEE24850  000000000+                F DF 00415                     000000000  N000000000       0000000000000.00 0000000.00   0000000.00                             000000000000000                                                                                                                                                     01424 G000000019870 0000000000003.43     01650 01500                  
00011720281130015DR675906759000000161968001028000000101C1E433627DT9AE3EEE24850  Y000000019870                 P1                                                                                                                                                                                                                                                                                                                                                                                                                                                                                                                                                                                                            
00011730281130001P16759067590000001619680010280000001010000000000000000                             2000000000000000000000000              000000000000                    0000000000000000000000000                    000000000000                                                                                                                                                                                                                                                                                                                                                                                                                                                                                        
00011740281130002G2675906759000000161968001028000000101866-6317293              GA           9 D                00                                      NNNN   N                      000000000000                                                                   77424386                                                                                                                                                                                                                                                                                                                                                                                                                                               
00011750281130016DT67590675900000016196800102800000010180010287287283163900016337401061120230000002390316323000000000504343542418XXXXXX5682       ME03KE06MS02      NY 4607AMWEM9ZYK60611  N840000000023903          81DNGREEN OTTER LLC          72515P    MC84000000023903 NDR549977424386   B6F32DC2A2T4D10A59A34E2  000000000+600450S00130    MWE  00737                     000000000  N                0000000000000.00 0000000.00   0000000.00                             000000000000000                                                                                                                                                   U001424  000000000000 0000000000006.31     02600 01000                  
00011760281130016DR675906759000000161968001028000000101B6F32DC2A2T4D10A59A34E2  Y000000000000                                                                                                                                                                                                                                                                                                                                                                                                                                                                                                                                                                                                                               
00011770281130001G2675906759000000161968001028000000101866-6317293              GA           9 E               210                                      NNNN           210000000000000000000000000                        7                                          77424386                                                                                                                                                                                                                                                                                                                                                                                                                                               
00011780281130017DT67590675900000016196800102800000010180010224001193163900016337434061120230000002106216323000000000504343453506XXXXXX1450               2111111   NYV4 A7W463163058766124N840000000021062TDLQ00    01DNGREEN OTTER LLC          H24875    VD84000000021062 NDR549977424386   1DD592B135T69103CD8618C  000000000+                F DF 10420                     000000000  Y000000000 338   0000000000000.00 0000000.00   0000000.00                             000000000000000                                                                                                                                                     01424 G000000021062 0000000000000.33     00050 02200                  
00011790281130017DR6759067590000001619680010280000001011DD592B135T69103CD8618C  N000000021062                 P1                                                                                                                                                                                                                                                                                                                                                                                                                                                                                                                                                                                                            
00011800281130001P16759067590000001619680010280000001010000000000000000                             2000000000000000000000000              000000000000                    0000000000000000000000000                    000000000000                                                                                                                                                                                                                                                                                                                                                                                                                                                                                        
00011810281130002G2675906759000000161968001028000000101866-6317293              GA           9 D                00                                      NNNN   N                      000000000000                                                                   77424386                                                                                                                                                                                                                                                                                                                                                                                                                                               
00011820281130018DT67590675900000016196800102800000010180010224001193163900016337467061120230000000319916323000000000504343422429XXXXXX1961               2111111   NYV4 A7W463163107158259N8400000000031995CPH00    01DNGREEN OTTER LLC          579115    VS84000000003199 NDR549977424386   44A27288D6TA8ACDC9A0609  000000000+                B CB 12107                     000000000  N000000000 494   0000000000000.00 0000000.00   0000000.00                             000000000000000                                                                                                                                                     01424 G000000003199 0000000000000.75     02040 01000                  
00011830281130018DR67590675900000016196800102800000010144A27288D6TA8ACDC9A0609  Y000000003199                 P1                                                                                                                                                                                                                                                                                                                                                                                                                                                                                                                                                                                                            
00011840281130001P16759067590000001619680010280000001010000000000000000                             2000000000000000000000000              000000000000                    0000000000000000000000000                    000000000000                                                                                                                                                                                                                                                                                                                                                                                                                                                                                        
00011850281130002G2675906759000000161968001028000000101866-6317293              GA           9 C                00                                      NNNN   N                      000000000000                                                                   77424386                                                                                                                                                                                                                                                                                                                                                                                                                                               
00011860281130019DT67590675900000016196800102800000010180010224001193163900016337483061120230000000999816323000000000504343461046XXXXXX5848               2111111   NYV4 A7W463163156751669N840000000009998J89900    01DNGREEN OTTER LLC          052100    VD84000000009998 NDR549977424386   4EDC5D4B9BT1100C8E92E2F  000000000+                F DF 10420                     000000000  Y000000000 338   0000000000000.00 0000000.00   0000000.00                             000000000000000                                                                                                                                                     01424 G000000009998 0000000000000.27     00050 02200                  
00011870281130019DR6759067590000001619680010280000001014EDC5D4B9BT1100C8E92E2F  Y000000009998                 P1                                                                                                                                                                                                                                                                                                                                                                                                                                                                                                                                                                                                            
00011880281130001P16759067590000001619680010280000001010000000000000000                             2000000000000000000000000              000000000000                    0000000000000000000000000                    000000000000                                                                                                                                                                                                                                                                                                                                                                                                                                                                                        
00011890281130002G2675906759000000161968001028000000101866-6317293              GA           9 D                00                                      NNNN   N                      000000000000                                                                   77424386                                                                                                                                                                                                                                                                                                                                                                                                                                               
00011900281130020DT67590675900000016196800102800000010680010287287283163900016337591061220230000000717816323000000000504343533248XXXXXX4747                         NY 4607AMPVLINW3B0612  N840000000007178          81CNGREEN OTTER LLC          F4RV6D    MD84000000007178 NDR549977424386   EDD9F01F09TC0EF8A8E11A3  000000000+600450S00130    MPV  00560                     000000000  N                0000000000000.00 0000000.00   0000000.00                             000000000000000                                                                                                                                                     01424  000000000000 0000000000000.00     00000 00000                  
00011910281130020DR675906759000000161968001028000000106EDD9F01F09TC0EF8A8E11A3  Y000000000000                                                                                                                                                                                                                                                                                                                                                                                                                                                                                                                                                                                                                               
00011920281130001G2675906759000000161968001028000000106866-6317293              GA           9 V               210                                      NNNN           210000000000000000000000000                                                                   77424386                                                                                                                                                                                                                                                                                                                                                                                                                                               
00011930281130021DT67590675900000016196800102800000010680010287287283163900016337609061220230000000077016323000000000504343533248XXXXXX4747                         NY 4607AMPVEJNW3B0612  N840000000000770          81CNGREEN OTTER LLC          F4QJKP    MD84000000000770 NDR549977424386   EDD9F01F09TC0EF8A8E11A3  000000000+600450S00130    MPV  00560                     000000000  N                0000000000000.00 0000000.00   0000000.00                             000000000000000                                                                                                                                                     01424  000000000000 0000000000000.00     00000 00000                  
00011940281130021DR675906759000000161968001028000000106EDD9F01F09TC0EF8A8E11A3  Y000000000000                                                                                                                                                                                                                                                                                                                                                                                                                                                                                                                                                                                                                               
00011950281130001G2675906759000000161968001028000000106866-6317293              GA           9 V               210                                      NNNN           210000000000000000000000000                                                                   77424386                                                                                                                                                                                                                                                                                                                                                                                                                                               
00011960281130022DT67590675900000016196800102800000010680010274001193163900016337611061220230000002106216323000000000504343414512XXXXXX7734               0000000   NYV4 07T583163476035862N840000000021062FQ5T00    01CNGREEN OTTER LLC          002875    VS84000000021062 NDR549977424386   5E5FDB4F81TCCB78F4BA6AB  000000000+                D CD 00245                     000000000  N000000000 166   0000000000000.00 0000000.00   0000000.00                             000000000000000                                                                                                                                                     01424  000000021062-0000000000003.71     01760 00000                  
00011970281130022DR6759067590000001619680010280000001065E5FDB4F81TCCB78F4BA6AB  U000000021062                 P1                                                                                                                                                                                                                                                                                                                                                                                                                                                                                                                                                                                                            
00011980281130001P16759067590000001619680010280000001060000000000000000                             2000000000000000000000000              000000000000                    0000000000000000000000000                    000000000000                                                                                                                                                                                                                                                                                                                                                                                                                                                                                        
00011990281130002G2675906759000000161968001028000000106866-6317293              GA           9 C                00                                      NNNN   Y                      000000000000                                                                   77424386                                                                                                                                                                                                                                                                                                                                                                                                                                               
00012000281130023DT67590675900000016196800102800000010680010287287283163900016337625061220230000001325916323000000000504343533248XXXXXX0067                         NY 4607AMPVXXJ43A0612  N840000000013259          81CNGREEN OTTER LLC          F4SDBM    MD84000000013259 NDR549977424386   E0054F0C7CT3FCFF94BC763  000000000+600450S00130    MPV  00560                     000000000  N                0000000000000.00 0000000.00   0000000.00                             000000000000000                                                                                                                                                     01424  000000000000 0000000000000.00     00000 00000                  
00012010281130023DR675906759000000161968001028000000106E0054F0C7CT3FCFF94BC763  U000000000000                                                                                                                                                                                                                                                                                                                                                                                                                                                                                                                                                                                                                               
00012020281130001G2675906759000000161968001028000000106866-6317293              GA           9 V               210                                      NNNN           210000000000000000000000000                                                                   77424386                                                                                                                                                                                                                                                                                                                                                                                                                                               
00012030281130024DT67590675900000016196800102800000010680010287287283163900016337641061220230000002116216323000000000504343510277XXXXXX8267                         NY 4607AMDJYXFL3K0612  N840000000021162          81CNGREEN OTTER LLC          H06243    MD84000000021162 NDR549977424386   3FF78C9785T137D538A3CBF  000000000+600450S00130    MDJ  10828                     000000000  1                0000000000000.00 0000000.00   0000000.00                             000000000000000                                                                                                                                                     01424  000000000000 0000000000000.00     00000 00000                  
00012040281130024DR6759067590000001619680010280000001063FF78C9785T137D538A3CBF  U000000000000                                                                                                                                                                                                                                                                                                                                                                                                                                                                                                                                                                                                                               
00012050281130001G2675906759000000161968001028000000106866-6317293              GA           9 J               210                                      NNNN           210000000000000000000000000                        7                                          77424386                                                                                                                                                                                                                                                                                                                                                                                                                                               
00012060281130025DT67590675900000016196800102800000010180010287287283163900016337708061220230000001499116323000000000504343546379XXXXXX7709       ME03KE06MS02      NY 4607AMDJZGUH3K0612  N840000000014991          81DNGREEN OTTER LLC          462929    MD84000000014991 NDR549977424386   D033C3C18FTEF406A184969  000000000+600450S00130    MDJ  00401                     000000000  N                0000000000000.00 0000000.00   0000000.00                             000000000000000                                                                                                                                                   U001424  000000000000 0000000000002.62     01650 01500                  
00012070281130025DR675906759000000161968001028000000101D033C3C18FTEF406A184969  Y000000000000                                                                                                                                                                                                                                                                                                                                                                                                                                                                                                                                                                                                                               
00012080281130001G2675906759000000161968001028000000101866-6317293              GA           9 J               210                                      NNNN           210000000000000000000000000                        7                                          77424386                                                                                                                                                                                                                                                                                                                                                                                                                                               
00012090281130026DT67590675900000016196800102800000010180010287287283163900016337732061220230000002112216323000000000504343552869XXXXXX3757                         NY 4607AMABCK0DYU0612  N840000000021122          81DNGREEN OTTER LLC          03777Q    MB84000000021122 NDR549977424386                            000000000+600450S00130    MAB  11638                     000000000  N                0000000000000.00 0000000.00   0000000.00                             000000000000000                                                                                                                                                   U001424  000000000000 0000000000004.85     02250 01000                  
00012100281130026DR675906759000000161968001028000000101                         Y000000000000                 P1                                                                                                                                                                                                                                                                                                                                                                                                                                                                                                                                                                                                            
00012110281130001P1675906759000000161968001028000000101                                                 000001252000000000000          8000   000000000871584967            000000000000                                                                                                                                                                                                                                                                                                                                                                                                                                                                                                                                    
00012120281130002G2675906759000000161968001028000000101866-6317293              GA           9 B               210                  871584967           YNNN           210000000000000000000000000                        7                                          77424386                                                                                                                                                                                                                                                                                                                                                                                                                                               
00012130281130027DT67590675900000016196800102800000010680010274001193163900016337751061220230000002146016323000000000504343440393XXXXXX5114               0000000   NYV4 07T303163526577340N840000000021460K3TR00    01CNGREEN OTTER LLC          584505    VD84000000021460 NDR549977424386   98BCFB52FFT4A8CE0E307DB  000000000+                F PF 08168                     000000000  N000000000 369   0000000000000.00 0000000.00   0000000.00                             000000000000000                                                                                                                                                     01424  000000021460 0000000000000.00     00000 00000                  
00012140281130027DR67590675900000016196800102800000010698BCFB52FFT4A8CE0E307DB  Y000000021460                 P1                                                                                                                                                                                                                                                                                                                                                                                                                                                                                                                                                                                                            
00012150281130001P16759067590000001619680010280000001060000000000000000                             2000000000000000000000000              000000000000                    0000000000000000000000000                    000000000000                                                                                                                                                                                                                                                                                                                                                                                                                                                                                        
00012160281130002G2675906759000000161968001028000000106866-6317293              GA           9 P                00                                      NNNN   N                      000000000000                                                                   77424386                                                                                                                                                                                                                                                                                                                                                                                                                                               
00012170281130028DT67590675900000016196800102800000010680010274001193163900016337769061220230000000160016323000000000504343443040XXXXXX7960               0000000   NYV4 07T583163542504351N840000000001600FVGN00    01CNGREEN OTTER LLC          012874    VD84000000001600 NDR549977424386   239FEC7AA6TC355B782EC63  000000000+                F DF 08168                     000000000  Y000000000 369   0000000000000.00 0000000.00   0000000.00                             000000000000000                                                                                                                                                     01424  000000001600 0000000000000.00     00000 00000                  
00012180281130028DR675906759000000161968001028000000106239FEC7AA6TC355B782EC63  U000000001600                 P1                                                                                                                                                                                                                                                                                                                                                                                                                                                                                                                                                                                                            
00012190281130001P16759067590000001619680010280000001060000000000000000                             2000000000000000000000000              000000000000                    0000000000000000000000000                    000000000000                                                                                                                                                                                                                                                                                                                                                                                                                                                                                        
00012200281130002G2675906759000000161968001028000000106866-6317293              GA           9 D                00                                      NNNN   N                      000000000000                                                                   77424386                                                                                                                                                                                                                                                                                                                                                                                                                                               
00012210281130029DT67590675900000016196800102800000010180010224001193163900016337772061220230000002106216323000000000504343431196XXXXXX6149               2111111   NYV4 A7W303163571941323N840000000021062Z6PC00    01DNGREEN OTTER LLC          012814    VS84000000021062 NDR549977424386   0EA8373D34TA69DD2DAB7BB  000000000+                B CB 12107                     000000000  N000000000 494   0000000000000.00 0000000.00   0000000.00                             000000000000000                                                                                                                                                     01424 G000000021062 0000000000004.40     02040 01000                  
00012220281130029DR6759067590000001619680010280000001010EA8373D34TA69DD2DAB7BB  Y000000021062                 P1                                                                                                                                                                                                                                                                                                                                                                                                                                                                                                                                                                                                            
00012230281130001P16759067590000001619680010280000001010000000000000000                             2000000000000000000000000              000000000000                    0000000000000000000000000                    000000000000                                                                                                                                                                                                                                                                                                                                                                                                                                                                                        
00012240281130002G2675906759000000161968001028000000101866-6317293              GA           9 C                00                                      NNNN   Y                      000000000000                                                                   77424386                                                                                                                                                                                                                                                                                                                                                                                                                                               
00012250281130030DT67590675900000016196800102800000010180010224001193163900016337806061220230000002126116323000000000504343413037XXXXXX6923               2111111   NYV4 A7W303163587592266N8400000000212617GPZ00    01DNGREEN OTTER LLC          090966    VD84000000021261 NDR549977424386   54CA51C89ET46727C4BA7BB  000000000+                F DF 10420                     000000000  Y000000000 338   0000000000000.00 0000000.00   0000000.00                             000000000000000                                                                                                                                                     01424 G000000021261 0000000000000.33     00050 02200                  
00012260281130030DR67590675900000016196800102800000010154CA51C89ET46727C4BA7BB  Y000000021261                 P1                                                                                                                                                                                                                                                                                                                                                                                                                                                                                                                                                                                                            
00012270281130001P16759067590000001619680010280000001010000000000000000                             2000000000000000000000000              000000000000                    0000000000000000000000000                    000000000000                                                                                                                                                                                                                                                                                                                                                                                                                                                                                        
00012280281130002G2675906759000000161968001028000000101866-6317293              GA           9 D                00                                      NNNN   N                      000000000000                                                                   77424386                                                                                                                                                                                                                                                                                                                                                                                                                                               
00012290281130031DT67590675900000016196800102800000010680010274001193163900016337827061220230000000749416323000000000504343414398XXXXXX2257               0000000   NYV4 07T463163614456087N8400000000074945GDX00    01CNGREEN OTTER LLC          167958    VD84000000007494 NDR549977424386   9963AD1001T4C126A739B7A  000000000+                F DF 08168                     000000000  N000000000 369   0000000000000.00 0000000.00   0000000.00                             000000000000000                                                                                                                                                     01424  000000007494 0000000000000.00     00000 00000                  
00012300281130031DR6759067590000001619680010280000001069963AD1001T4C126A739B7A  Y000000007494                 P1                                                                                                                                                                                                                                                                                                                                                                                                                                                                                                                                                                                                            
00012310281130001P16759067590000001619680010280000001060000000000000000                             2000000000000000000000000              000000000000                    0000000000000000000000000                    000000000000                                                                                                                                                                                                                                                                                                                                                                                                                                                                                        
00012320281130002G2675906759000000161968001028000000106866-6317293              GA           9 D                00                                      NNNN   N                      000000000000                                                                   77424386                                                                                                                                                                                                                                                                                                                                                                                                                                               
00012330281130032DT67590675900000016196800102800000010680010287287283163900016337849061220230000000639816323000000000504343524008XXXXXX0803                         NY 4607AMPL7UM0350612  N840000000006398          81CNGREEN OTTER LLC          012828    MC84000000006398 NDR549977424386   09793CB1BET6CF96E70B31D  000000000+600450S00130    MPL  00565                     000000000  N                0000000000000.00 0000000.00   0000000.00                             000000000000000                                                                                                                                                     01424  000000000000-0000000000001.12     01750 00000                  
00012340281130032DR67590675900000016196800102800000010609793CB1BET6CF96E70B31D  U000000000000                                                                                                                                                                                                                                                                                                                                                                                                                                                                                                                                                                                                                               
00012350281130001G2675906759000000161968001028000000106866-6317293              GA           9 L               210                                      NNNN           210000000000000000000000000                        7                                          77424386                                                                                                                                                                                                                                                                                                                                                                                                                                               
00012360281130033DT67590675900000016196800102800000010680010274001193163900016337850061220230000000605416323000000000504343413037XXXXXX6923               0000000   NYV4 07T463163624145152N840000000006054TZP400    01CNGREEN OTTER LLC          092599    VD84000000006054 NDR549977424386   54CA51C89ET46727C4BA7BB  000000000+                F DF 08168                     000000000  Y000000000 369   0000000000000.00 0000000.00   0000000.00                             000000000000000                                                                                                                                                     01424  000000006054 0000000000000.00     00000 00000                  
00012370281130033DR67590675900000016196800102800000010654CA51C89ET46727C4BA7BB  Y000000006054                 P1                                                                                                                                                                                                                                                                                                                                                                                                                                                                                                                                                                                                            
00012380281130001P16759067590000001619680010280000001060000000000000000                             2000000000000000000000000              000000000000                    0000000000000000000000000                    000000000000                                                                                                                                                                                                                                                                                                                                                                                                                                                                                        
00012390281130002G2675906759000000161968001028000000106866-6317293              GA           9 D                00                                      NNNN   N                      000000000000                                                                   77424386                                                                                                                                                                                                                                                                                                                                                                                                                                               
00012400281130034DT67590675900000016196800102800000010180010287287283163900016337864061220230000002487016323000000000504343541065XXXXXX3018       ME03KE06PT01      NY 4607AMCWULQ56Y0612  N840000000024870          81DNGREEN OTTER LLC          24289P    MC84000000024870 NDR549977424386   A99097725CT11A8D05E8C9D  000000000+600450S00130    MCW  00642                     000000000  N                0000000000000.00 0000000.00   0000000.00                             000000000000000                                                                                                                                                   U001424  000000000000 0000000000005.57     02200 01000                  
00012410281130034DR675906759000000161968001028000000101A99097725CT11A8D05E8C9D  Y000000000000                                                                                                                                                                                                                                                                                                                                                                                                                                                                                                                                                                                                                               
00012420281130001G2675906759000000161968001028000000101866-6317293              GA           9 W               210                                      NNNN           210000000000000000000000000                        7                                          77424386                                                                                                                                                                                                                                                                                                                                                                                                                                               
00012430281130035DT67590675900000016196800102800000010180010287287283163900016337880061220230000002412916323000000000504343517546XXXXXX4098       ME03KE06MS02      NY 4607AMDJUQOR6Y0612  N840000000024129          81DNGREEN OTTER LLC          012022    MD84000000024129 NDR549977424386   980BACF5A0TA98648B93DBA  000000000+600450S00130    MDJ  10813                     000000000  1                0000000000000.00 0000000.00   0000000.00                             000000000000000                                                                                                                                                   U001424  000000000000 0000000000000.34     00050 02200                  
00012440281130035DR675906759000000161968001028000000101980BACF5A0TA98648B93DBA  N000000000000                                                                                                                                                                                                                                                                                                                                                                                                                                                                                                                                                                                                                               
00012450281130001G2675906759000000161968001028000000101866-6317293              GA           9 J               210                                      NNNN           210000000000000000000000000                        7                                          77424386                                                                                                                                                                                                                                                                                                                                                                                                                                               
00012460281130036DT67590675900000016196800102800000010680010287287283163900016337898061220230000001243516323000000000504343541065XXXXXX3018                         NY 4607AMCC07GB350612  N840000000012435          81CNGREEN OTTER LLC          856090    MC84000000012435 NDR549977424386   A99097725CT11A8D05E8C9D  000000000+600450S00130    MCC  00565                     000000000  N                0000000000000.00 0000000.00   0000000.00                             000000000000000                                                                                                                                                     01424  000000000000-0000000000002.18     01750 00000                  
00012470281130036DR675906759000000161968001028000000106A99097725CT11A8D05E8C9D  U000000000000                                                                                                                                                                                                                                                                                                                                                                                                                                                                                                                                                                                                                               
00012480281130001G2675906759000000161968001028000000106866-6317293              GA           9 C               210                                      NNNN           210000000000000000000000000                        7                                          77424386                                                                                                                                                                                                                                                                                                                                                                                                                                               
00012490281130037DT67590675900000016196800102800000010180010224001193163900016337988061220230000000813116323000000000504343403784XXXXXX3633               2111111   NYV4 A7W463163651485185N8400000000081312F3B00    01DNGREEN OTTER LLC          312150    VS84000000008131 NDR549977424386   413845862AT6FCB8E6DA32E  000000000+                A CA 12106                     000000000  N000000000 492   0000000000000.00 0000000.00   0000000.00                             000000000000000                                                                                                                                                     01424 G000000008131 0000000000001.64     01890 01000                  
00012500281130037DR675906759000000161968001028000000101413845862AT6FCB8E6DA32E  Y000000008131                 P1                                                                                                                                                                                                                                                                                                                                                                                                                                                                                                                                                                                                            
00012510281130001P16759067590000001619680010280000001010000000000000000                             2000000000000000000000000              000000000000                    0000000000000000000000000                    000000000000                                                                                                                                                                                                                                                                                                                                                                                                                                                                                        
00012520281130002G2675906759000000161968001028000000101866-6317293              GA           9 C                00                                      NNNN   Y                      000000000000                                                                   77424386                                                                                                                                                                                                                                                                                                                                                                                                                                               
00012530281130038DT67590675900000016196800102800000010180010224001193163900016337996061220230000001578516323000000000504343468012XXXXXX1781               2111111   NYV4 A7W303163656589929N840000000015785VDBK00    01DNGREEN OTTER LLC          976271    VS84000000015785 NDR549977424386   90B7139C21T7E5512962542  000000000+                B CB 12107                     000000000  N000000000 494   0000000000000.00 0000000.00   0000000.00                             000000000000000                                                                                                                                                     01424 G000000015785 0000000000003.32     02040 01000                  
00012540281130038DR67590675900000016196800102800000010190B7139C21T7E5512962542  Z000000015785                 P1                                                                                                                                                                                                                                                                                                                                                                                                                                                                                                                                                                                                            
00012550281130001P16759067590000001619680010280000001010000000000000000                             2000000000000000000000000              000000000000                    0000000000000000000000000                    000000000000                                                                                                                                                                                                                                                                                                                                                                                                                                                                                        
00012560281130002G2675906759000000161968001028000000101866-6317293              GA           9 C                00                                      NNNN   Y                      000000000000                                                                   77424386                                                                                                                                                                                                                                                                                                                                                                                                                                               
00012570281130039DT67590675900000016196800102800000010180010224001193163900016338044061220230000002648716323000000000504343449435XXXXXX0913               2111111   NYV4 A7W383163682809927N840000000026487FTJ500    01DNGREEN OTTER LLC          580090    VD84000000026487 NDR549977424386   74BE218E44TE8AB4C3159C4  000000000+                F DF 00415                     000000000  N000000000       0000000000000.00 0000000.00   0000000.00                             000000000000000                                                                                                                                                     01424 G000000026487 0000000000004.52     01650 01500                  
00012580281130039DR67590675900000016196800102800000010174BE218E44TE8AB4C3159C4  Y000000026487                 P1                                                                                                                                                                                                                                                                                                                                                                                                                                                                                                                                                                                                            
00012590281130001P16759067590000001619680010280000001010000000000000000                             2000000000000000000000000              000000000000                    0000000000000000000000000                    000000000000                                                                                                                                                                                                                                                                                                                                                                                                                                                                                        
00012600281130002G2675906759000000161968001028000000101866-6317293              GA           9 D                00                                      NNNN   N                      000000000000                                                                   77424386                                                                                                                                                                                                                                                                                                                                                                                                                                               
00012610281130040DT67590675900000016196800102800000010180010224001193163900016338069061220230000001987016323000000000504343448233XXXXXX4598               2111111   NYV4 A7W303163696057391N840000000019870R9LJ00    01DNGREEN OTTER LLC          042005    VD84000000019870 NDR549977424386   C71E1EA187TBCC5AF930531  000000000+                F DF 10420                     000000000  Y000000000 338   0000000000000.00 0000000.00   0000000.00                             000000000000000                                                                                                                                                     01424 G000000019870 0000000000000.32     00050 02200                  
00012620281130040DR675906759000000161968001028000000101C71E1EA187TBCC5AF930531  Y000000019870                 P1                                                                                                                                                                                                                                                                                                                                                                                                                                                                                                                                                                                                            
00012630281130001P16759067590000001619680010280000001010000000000000000                             2000000000000000000000000              000000000000                    0000000000000000000000000                    000000000000                                                                                                                                                                                                                                                                                                                                                                                                                                                                                        
00012640281130002G2675906759000000161968001028000000101866-6317293              GA           9 D                00                                      NNNN   N                      000000000000                                                                   77424386                                                                                                                                                                                                                                                                                                                                                                                                                                               
00012650281130041DT67590675900000016196800102800000010180010224001193163900016338085061220230000002435416323000000000504343440066XXXXXX7552               2111111   NYV4 A7W383163703315709N840000000024354L5KW00    01DNGREEN OTTER LLC          02817D    VS84000000024354 NDR549977424386   6C7F4CD7BFT06BBFE7D6E71  000000000+                D CD 12109                     000000000  N000000000 498   0000000000000.00 0000000.00   0000000.00                             000000000000000                                                                                                                                                     01424 G000000024354 0000000000006.19     02500 01000                  
00012660281130041DR6759067590000001619680010280000001016C7F4CD7BFT06BBFE7D6E71  Y000000024354                 P1                                                                                                                                                                                                                                                                                                                                                                                                                                                                                                                                                                                                            
00012670281130001P16759067590000001619680010280000001010000000000000000                             2000000000000000000000000              000000000000                    0000000000000000000000000                    000000000000                                                                                                                                                                                                                                                                                                                                                                                                                                                                                        
00012680281130002G2675906759000000161968001028000000101866-6317293              GA           9 C                00                                      NNNN   Y                      000000000000                                                                   77424386                                                                                                                                                                                                                                                                                                                                                                                                                                               
00012690281130042DT67590675900000016196800102800000010180010224001193163900016338093061220230000000542816323000000000504343414709XXXXXX1787               2111111   NYV4 A7W583163714402247N84000000000542829HD00    01DNGREEN OTTER LLC          01225D    VS84000000005428 NDR549977424386   D76C976286T6990B333B55A  000000000+                D CD 12109                     000000000  N000000000 498   0000000000000.00 0000000.00   0000000.00                             000000000000000                                                                                                                                                     01424 G000000005428 0000000000001.46     02500 01000                  
00012700281130042DR675906759000000161968001028000000101D76C976286T6990B333B55A  Y000000005428                 P1                                                                                                                                                                                                                                                                                                                                                                                                                                                                                                                                                                                                            
