02365070614093911AD675906759000000133008001028000009071900010503050000001987002262023NYY05723ND6759800102022820232023055021596                                                                                                                                                                                                                                                                                                                                                                                                                                                                                                                                                                                              
02365080616420002BH6759067590000001165080088880000090170227202305823000000000096063    0000090001150029N8008886759C02282023                                                                                                                                                                                                                                                                                                                                                                                                                                                                                                                                                                                                 
02365090616420003DT67590675900000011650800888800000010180088824001193058900011500018022520230000000567705823000000000096063483316XXXXXX1863       VS11    0001111   NYV1 A E583056657122172N840000000005677D67H00    05DNVPODS HOLDING INC        021513    VD84000000005677 N  599977032122                            000000000+                F DF 10433                     000000000  Y000000000 338   0000000000000.00 0000000.00   0000000.00                             000000000000000                                                                                                                                                     01418 A000000000000 0000000000000.25     00050 02200                  
02365100616420004DT67590675900000011650800888800000010180088824001193058900011500026022520230000000283805823000000000096063426684XXXXXX6282       VS11    0001111   NYV1 A E303056775705890N840000000002838WVPK00    07DNVPODS HOLDING INC        07531B    VS84000000002838 N  599977032122                            000000000+                B CB 12111                     000000000  N000000000 495   0000000000000.00 0000000.00   0000000.00                             000000000000000                                                                                                                                                     01418 A000000000000 0000000000000.57     01650 01000                  
02365110616420005DT67590675900000011650800888800000010180088824001193058900011500034022520230000000635705823000000000096063434257XXXXXX7329       VS11    0001111   NYV1 A E463056787816459N8400000000063578Z3Z00    05DNVPODS HOLDING INC        017528    VD84000000006357 N  599977032122                            000000000+                F DF 10433                     000000000  Y000000000 338   0000000000000.00 0000000.00   0000000.00                             000000000000000                                                                                                                                                     01418 A000000000000 0000000000000.25     00050 02200                  
02365120616420006DT67590675900000011650800888800000010180088877287283058900011500044022520230000000113405823000000000096063527520XXXXXX3349       MS02WI09          NY 1 0 AMDJBVYUY30225  N840000000001134          05DNVPODS HOLDING INC        115787    MD84000000001134 N  599977032122                            000000000+M10101C5434C    MDJ  10815                     000000000  1                0000000000000.00 0000000.00   0000000.00                             000000000000000                                                                                                                                                   B101418  000000000000 0000000000000.23     00050 02200                  
02365130616420007DT67590675900000011650800888800000010180088824001193058900011500059022520230000000567705823000000000096063483313XXXXXX0023       VS11    0001111   NYV1 A E303056829303535N840000000005677BMPH00    05DNVPODS HOLDING INC        000218    VD84000000005677 N  599977032122                            000000000+                F DF 10433                     000000000  Y000000000 338   0000000000000.00 0000000.00   0000000.00                             000000000000000                                                                                                                                                     01418 A000000000000 0000000000000.25     00050 02200                  
02365140616420008DT67590675900000011650800888800000010180088824001193058900011500067022520230000000034005823000000000096063483313XXXXXX0023       VK04VS111111111   NYV1 A E463056829730148N840000000000340TSPN00    05DNVPODS HOLDING INC        030218    VD84000000000340 N  599977032122                            000000000+                F DF 10439                     000000000  Y000000000 331   0000000000000.00 0000000.00   0000000.00                             000000000000000                                                                                                                                                     01418 F000000000000 0000000000000.22     00050 02200                  
02365150616420009DT67590675900000011650800888800000010180088824001193058900011500075022520230000000029505823000000000096063426684XXXXXX8714       VK04VS111111111   NYV1 A E303056846986540N840000000000295FWT400    05DNVPODS HOLDING INC        04157C    VS84000000000295 N  599977032122                            000000000+                C CC 12112                     000000000  N000000000 497   0000000000000.00 0000000.00   0000000.00                             000000000000000                                                                                                                                                     01418 F000000000000 0000000000000.15     01650 01000                  
02365160616420010DT67590675900000011650800888800000010180088824001193058900011500083022520230000000068005823000000000096063443264XXXXXX3085       VK04VS111111111   NYV1 A E583056860852771N840000000000680LM6600    05DNVPODS HOLDING INC        006096    VD84000000000680 N  599977032122                            000000000+                F DF 10439                     000000000  Y000000000 331   0000000000000.00 0000000.00   0000000.00                             000000000000000                                                                                                                                                     01418 F000000000000 0000000000000.22     00050 02200                  
02365170616420011DT67590675900000011650800888800000010180088824001193058900011500091022520230000000227005823000000000096063426684XXXXXX1616       VS11    0001111   NYV1 A E303057097495723N84000000000227086FL00    05DNVPODS HOLDING INC        06891B    VS84000000002270 N  599977032122                            000000000+                B CB 12111                     000000000  N000000000 495   0000000000000.00 0000000.00   0000000.00                             000000000000000                                                                                                                                                     01418 A000000000000 0000000000000.47     01650 01000                  
02365180616420012DT67590675900000011650800888800000010180088824001193058900011500109022520230000000113405823000000000096063440066XXXXXX2559       VK04VS111111111   NYV1 A E383057131205520N840000000001134HRR300    05DNVPODS HOLDING INC        04540D    VS84000000001134 N  599977032122                            000000000+                D CD 12113                     000000000  N000000000 499   0000000000000.00 0000000.00   0000000.00                             000000000000000                                                                                                                                                     01418 F000000000000 0000000000000.34     02100 01000                  
02365190616420013DT67590675900000011650800888800000010180088824001193058900011500117022520230000000340405823000000000096063414720XXXXXX9895       VS11    0001111   NYV1 A E463057185739067N840000000003404QK6500    07DNVPODS HOLDING INC        08019C    VS84000000003404 N  599977032122                            000000000+                C CC 12112                     000000000  N000000000 497   0000000000000.00 0000000.00   0000000.00                             000000000000000                                                                                                                                                     01418 A000000000000 0000000000000.66     01650 01000                  
02365200616420014DT67590675900000011650800888800000010180088824001193058900011500125022620230000000306505823000000000096063482915XXXXXX8273       VS11    0001111   NYV1 A E303057630469600N840000000003065ZVFX00    07DNVPODS HOLDING INC        063012    VD84000000003065 N  599977032122                            000000000+                F DF 10433                     000000000  Y000000000 338   0000000000000.00 0000000.00   0000000.00                             000000000000000                                                                                                                                                     01418 A000000000000 0000000000000.24     00050 02200                  
02365210616420015DT67590675900000011650800888800000010180088873011003058900011500139022620230000000567705823000000000096063371243XXXXX5017                          NY 1 0 N004434970336308N840000000005677          05DNVPODS HOLDINGS INC       837931    AM84000000005677 N  599977032122                            000000000+51010155434C 258     11261                     000000000                   0000000000000.00 0000000.00   0000000.00                             000000000000000 61248972086759675900000011650 VPODS HOLDINGS INC       2527 N LINCOLN AVE       7732092463      60614     SMOKEDREAMS2@ICLOUD.COM                   01418  000000000000 0000000000001.01     01600 00000                  
02365220616420016DT67590675900000011650800888800000010180088877287283058900011500143022620230000000283805823000000000096063517546XXXXXX5528       MS02WI09          NY 1 0 AMDJRB6AEU0226  N840000000002838          07DNVPODS HOLDING INC        026233    MD84000000002838 N  599977032122                            000000000+M10101M0034C    MDJ  10815                     000000000  1                0000000000000.00 0000000.00   0000000.00                             000000000000000                                                                                                                                                   B101418  000000000000 0000000000000.23     00050 02200                  
02365230616420017DT67590675900000011650800888800000010180088824001193058900011500158022620230000000283905823000000000096063408138XXXXXX9540       VS11    0001111   NYV1 A E303057709574965N840000000002839JJRR00    07DNVPODS HOLDING INC        955929    VD84000000002839 N  599977032122                            000000000+                F PF 08170                     000000000  N000000000       0000000000000.00 0000000.00   0000000.00                             000000000000000                                                                                                                                                     01418 A000000000000 0000000000000.48     01150 01500                  
02365240616420018DT67590675900000011650800888800000010180088824001193058900011500166022620230000000283905823000000000096063491712XXXXXX1435       VS11    0001111   NYV1 A E303057709811048N840000000002839CCG400    07DNVPODS HOLDING INC        024314    VD84000000002839 N  599977032122                            000000000+                F DF 10433                     000000000  Y000000000 338   0000000000000.00 0000000.00   0000000.00                             000000000000000                                                                                                                                                     01418 A000000000000 0000000000000.23     00050 02200                  
02365250616420019DT67590675900000011650800888800000010180088824001193058900011500174022620230000000136105823000000000096063491712XXXXXX1435       VK04VS111111111   NYV1 A E383057710399201N840000000001361WWMW00    07DNVPODS HOLDING INC        094314    VD84000000001361 N  599977032122                            000000000+                F DF 10439                     000000000  Y000000000 331   0000000000000.00 0000000.00   0000000.00                             000000000000000                                                                                                                                                     01418 F000000000000 0000000000000.23     00050 02200                  
02365260616420020DT67590675900000011650800888800000010180088824001193058900011500182022620230000000449905823000000000096063465023XXXXXX7837       VS11    0001111   NYV1 A E583057725790683N840000000004499K4QQ00    07DNVPODS HOLDING INC        017632    VD84000000004499 N  599977032122                            000000000+                F DF 10433                     000000000  Y000000000 338   0000000000000.00 0000000.00   0000000.00                             000000000000000                                                                                                                                                     01418 A000000000000 0000000000000.24     00050 02200                  
02365270616420021DT67590675900000011650800888800000010180088876509753058900011500198022620230000000283805823000000000096063601100XXXXXX6015   BA05                  NY41 0 N873048980076784N840000000002838    00    07DNVPODS HOLDING INC        02622R    DS84000000002838 N  599977032122830                         000000000+0000004910H00   DCCDI01000667197  153327000000 000000000  0          112   0000000000000.00 0000000.00   0000000.00                             000000000000000                                                                                                                                                     01418  000000000000 0000000000000.59     01720 01000                  
02365280616420022DT67590675900000011650800888800000010180088824001193058900011500208022620230000000227005823000000000096063414720XXXXXX5025       VS11    0001111   NYV1 A E303057787179654N840000000002270BJJK00    07DNVPODS HOLDING INC        04738I    VS84000000002270 N  599977032122                            000000000+                I CI 12113                     000000000  N000000000 499   0000000000000.00 0000000.00   0000000.00                             000000000000000                                                                                                                                                     01418 A000000000000 0000000000000.58     02100 01000                  
02365290616420023DT67590675900000011650800888800000010180088877287283058900011500218022620230000000851705823000000000096063522914XXXXXX3384       MS02WI09          NY 2 0 AMDJKKFSTO0226  N840000000008517          07DNVPODS HOLDING INC        055754    MD84000000008517 N  599977032122                            000000000+M10101M1334C    MDJ  10815                     000000000  1                0000000000000.00 0000000.00   0000000.00                             000000000000000                                                                                                                                                   B101418  000000000000 0000000000000.26     00050 02200                  
02365300616420024DT67590675900000011650800888800000010180088877287283058900011500226022620230000000283805823000000000096063515676XXXXXX0427       MS02WI09          NY 1 0 AMWEENL4TQ0226  N840000000002838          05DNVPODS HOLDING INC        06274Z    MC84000000002838 N  599977032122                            000000000+M10101C5434C    MWE  00739                     000000000  N                0000000000000.00 0000000.00   0000000.00                             000000000000000                                                                                                                                                   B101418  000000000000 0000000000000.75     02300 01000                  
02365310616420025DT67590675900000011650800888800000010180088877287283058900011500234022620230000000340505823000000000096063515676XXXXXX2382       MS02WI09          NY 1 0 AMWEHQR7TA0226  N840000000003405          07DNVPODS HOLDING INC        07095Z    MC84000000003405 N  599977032122                            000000000+M10101M0034C    MWE  00739                     000000000  N                0000000000000.00 0000000.00   0000000.00                             000000000000000                                                                                                                                                   B101418  000000000000 0000000000000.88     02300 01000                  
02365320616420026DT67590675900000011650800888800000010180088824001193058900011500240022620230000000283805823000000000096063482406XXXXXX6706       VS11    0001111   NYV1 A E303057811967093N840000000002838ZBZT00    07DNVPODS HOLDING INC        063317    VD84000000002838 N  599977032122                            000000000+                F DF 10433                     000000000  Y000000000 338   0000000000000.00 0000000.00   0000000.00                             000000000000000                                                                                                                                                     01418 A000000000000 0000000000000.23     00050 02200                  
02365330616420027DT67590675900000011650800888800000010180088824001193058900011500257022620230000000283905823000000000096063465098XXXXXX8973       VS11    0001111   NYV1 A E383058027223998N840000000002839ZJC600    07DNVPODS HOLDING INC        088077    VD84000000002839 N  599977032122                            000000000+                F DF 10433                     000000000  Y000000000 338   0000000000000.00 0000000.00   0000000.00                             000000000000000                                                                                                                                                     01418 A000000000000 0000000000000.23     00050 02200                  
02365340616420028DT67590675900000011650800888800000010180088824001193058900011500265022620230000000340505823000000000096063443044XXXXXX4101       VS11    0001111   NYV1 A E383058034003133N840000000003405Z2M400    07DNVPODS HOLDING INC        899261    VD84000000003405 N  599977032122                            000000000+                F DF 10433                     000000000  Y000000000 338   0000000000000.00 0000000.00   0000000.00                             000000000000000                                                                                                                                                     01418 A000000000000 0000000000000.24     00050 02200                  
02365350616420029DT67590675900000011650800888800000010180088824001193058900011500273022620230000000794605823000000000096063489750XXXXXX4401       VS11    0001111   NYV1 A E463058077240475N840000000007946GWF700    07DNVPODS HOLDING INC        040821    VD84000000007946 N  599977032122                            000000000+                F DF 10433                     000000000  Y000000000 338   0000000000000.00 0000000.00   0000000.00                             000000000000000                                                                                                                                                     01418 A000000000000 0000000000000.26     00050 02200                  
02365360616420030DT67590675900000011650800888800000010180088824001193058900011500281022620230000000340505823000000000096063409573XXXXXX5249       VS11    0001111   NYV1 A E383058078210171N840000000003405LTFQ00    07DNVPODS HOLDING INC        011021    VD84000000003405 N  599977032122                            000000000+                F DF 10433                     000000000  Y000000000 338   0000000000000.00 0000000.00   0000000.00                             000000000000000                                                                                                                                                     01418 A000000000000 0000000000000.24     00050 02200                  
02365370616420031DT67590675900000011650800888800000010180088824001193058900011500299022620230000000283805823000000000096063406068XXXXXX6982       VS11    0001111   NYV1 A E463058128828627N840000000002838TVFT00    05DNVPODS HOLDING INC        023422    VD84000000002838 N  599977032122                            000000000+                F DF 10433                     000000000  Y000000000 338   0000000000000.00 0000000.00   0000000.00                             000000000000000                                                                                                                                                     01418 A000000000000 0000000000000.23     00050 02200                  
02365380616420032BH6759067590000001129680010180000090170227202305823000000000059019    0000090001230020N8001016759C02282023                                                                                                                                                                                                                                                                                                                                                                                                                                                                                                                                                                                                 
02365390616420033DT67590675900000011296800101800000010180010124001193058900012300012022520230000000237505823000000000059019448261XXXXXX6369       VS11    0001111   NYV1 A E463056560903251N840000000002375BMXV00    05DNPLANET VAPOR #1000       166171    VD84000000002375 N  599976923732                            000000000+                F DF 10433                     000000000  Y000000000 338   0000000000000.00 0000000.00   0000000.00                             000000000000000                                                                                                                                                     01418 A000000000000 0000000000000.23     00050 02200                  
02365400616420034DT67590675900000011296800101800000010180010124001193058900012300020022520230000000269905823000000000059019423223XXXXXX4497       VS11    0001111   NYV1 A E583056572426032N840000000002699C95W00    05DNPLANET VAPOR #1000       034257    VD84000000002699 N  599976923732                            000000000+                F DF 00381                     000000000  N000000000       0000000000000.00 0000000.00   0000000.00                             000000000000000                                                                                                                                                     01418 A000000000000 0000000000000.37     00800 01500                  
02365410616420035DT67590675900000011296800101800000010180010177287283058900012300030022520230000000237505823000000000059019517279XXXXXX4366       MS02WI09          NY 1 0 AMDJSFLVJB0225  N840000000002375          05DNPLANET VAPOR #1000       018425    MD84000000002375 N  599976923732                            000000000+M10101C5434C    MDJ  00402                     000000000  N                0000000000000.00 0000000.00   0000000.00                             000000000000000                                                                                                                                                   B101418  000000000000 0000000000000.40     01050 01500                  
02365420616420036DT67590675900000011296800101800000010180010124001193058900012300046022520230000000049905823000000000059019483316XXXXXX2370       VK04VS111111111   NYV1 A E583056727775513N840000000000499PL9Z00    07DNPLANET VAPOR #1000       081215    VD84000000000499 N  599976923732                            000000000+                F DF 10439                     000000000  Y000000000 331   0000000000000.00 0000000.00   0000000.00                             000000000000000                                                                                                                                                     01418 F000000000000 0000000000000.22     00050 02200                  
02365430616420037DT67590675900000011296800101800000010180010177287283058900012300055022520230000000561305823000000000059019531258XXXXXX4741       MS02WI09          NY 1 0 AMDJTQLNY40225  N840000000005613          05DNPLANET VAPOR #1000       124013    MD84000000005613 N  599976923732                            000000000+M10101C5434C    MDJ  10815                     000000000  1                0000000000000.00 0000000.00   0000000.00                             000000000000000                                                                                                                                                   B101418  000000000000 0000000000000.25     00050 02200                  
02365440616420038DT67590675900000011296800101800000010180010177287283058900012300063022520230000000237505823000000000059019519836XXXXXX6623       MS02WI09          NY 1 0 AMDJH17TY30225  N840000000002375          07DNPLANET VAPOR #1000       182296    MD84000000002375 N  599976923732                            000000000+M10101M0034C    MDJ  00402                     000000000  N                0000000000000.00 0000000.00   0000000.00                             000000000000000                                                                                                                                                   B101418  000000000000 0000000000000.40     01050 01500                  
02365450616420039DT67590675900000011296800101800000010180010177287283058900012300071022520230000000269905823000000000059019531258XXXXXX5947       MS02WI09          NY 1 0 AMDJBZZBY30225  N840000000002699          05DNPLANET VAPOR #1000       110730    MD84000000002699 N  599976923732                            000000000+M10101C5434C    MDJ  10815                     000000000  1                0000000000000.00 0000000.00   0000000.00                             000000000000000                                                                                                                                                   B101418  000000000000 0000000000000.23     00050 02200                  
02365460616420040DT67590675900000011296800101800000010180010124001193058900012300087022520230000000475005823000000000059019410492XXXXXX2748       VS11    0001111   NYV1 A E463056794888573N840000000004750HNMD00    07DNPLANET VAPOR #1000       859549    VD84000000004750 N  599976923732                            000000000+                F DF 10433                     000000000  Y000000000 338   0000000000000.00 0000000.00   0000000.00                             000000000000000                                                                                                                                                     01418 A000000000000 0000000000000.24     00050 02200                  
02365470616420041DT67590675900000011296800101800000010180010124001193058900012300095022520230000000323805823000000000059019434256XXXXXX4723       VS11    0001111   NYV1 A E303056800214585N840000000003238MKCT00    07DNPLANET VAPOR #1000       032020    VD84000000003238 N  599976923732                            000000000+                F DF 10433                     000000000  Y000000000 338   0000000000000.00 0000000.00   0000000.00                             000000000000000                                                                                                                                                     01418 A000000000000 0000000000000.24     00050 02200                  
02365480616420042DT67590675900000011296800101800000010180010124001193058900012300103022520230000000215905823000000000059019465345XXXXXX9246       VS11    0001111   NYV1 A E583056820248996N8400000000021593QLP00    05DNPLANET VAPOR #1000       576213    VD84000000002159 N  599976923732                            000000000+                F DF 10433                     000000000  Y000000000 338   0000000000000.00 0000000.00   0000000.00                             000000000000000                                                                                                                                                     01418 A000000000000 0000000000000.23     00050 02200                  
02365490616420043DT67590675900000011296800101800000010180010124001193058900012300111022520230000000174905823000000000059019440393XXXXXX6832       VS11    0001111   NYV1 A E583056824846293N840000000001749KMM900    07DNPLANET VAPOR #1000       683520    VD84000000001749 N  599976923732                            000000000+                F PF 08170                     000000000  N000000000       0000000000000.00 0000000.00   0000000.00                             000000000000000                                                                                                                                                     01418 A000000000000 0000000000000.35     01150 01500                  
02365500616420044DT67590675900000011296800101800000010180010177287283058900012300121022520230000000136005823000000000059019517546XXXXXX3674       MS02WI09          NY 1 0 AMDJC6FG2Q0225  N840000000001360          05DNPLANET VAPOR #1000       025642    MD84000000001360 N  599976923732                            000000000+M10101C5434C    MDJ  10815                     000000000  1                0000000000000.00 0000000.00   0000000.00                             000000000000000                                                                                                                                                   B101418  000000000000 0000000000000.23     00050 02200                  
02365510616420045DT67590675900000011296800101800000010180010177287283058900012300139022620230000000269905823000000000059019515307XXXXXX1235       MS02WI09          NY 1 0 AMCWNM8RQP0226  N840000000002699          07DNPLANET VAPOR #1000       01557Z    MC84000000002699 N  599976923732                            000000000+M10101M0034C    MCW  00644                     000000000  N                0000000000000.00 0000000.00   0000000.00                             000000000000000                                                                                                                                                   B101418  000000000000 0000000000000.61     01900 01000                  
02365520616420046DT67590675900000011296800101800000010180010124001193058900012300145022620230000000215905823000000000059019448232XXXXXX1031       VS11    0001111   NYV1 A E303057629067081N8400000000021596KNR00    05DNPLANET VAPOR #1000       022819    VD84000000002159 N  599976923732                            000000000+                F DF 00381                     000000000  N000000000       0000000000000.00 0000000.00   0000000.00                             000000000000000                                                                                                                                                     01418 A000000000000 0000000000000.32     00800 01500                  
02365530616420047DT67590675900000011296800101800000010180010124001193058900012300152022620230000000755905823000000000059019448232XXXXXX5595       VS11    0001111   NYV1 A E383057651310445N840000000007559Z25800    05DNPLANET VAPOR #1000       030525    VD84000000007559 N  599976923732                            000000000+                F DF 00381                     000000000  N000000000       0000000000000.00 0000000.00   0000000.00                             000000000000000                                                                                                                                                     01418 A000000000000 0000000000000.75     00800 01500                  
02365540616420048DT67590675900000011296800101800000010180010177287283058900012300162022620230000000067705823000000000059019555753XXXXXX9601       MS02WI09          NY 1 0 AMDHFNXQEU0226  N840000000000677          05DNPLANET VAPOR #1000       075855    MD84000000000677 N  599976923732                            000000000+M10101C5434C    MDH  00402                     000000000  N                0000000000000.00 0000000.00   0000000.00                             000000000000000                                                                                                                                                   B101418  000000000000 0000000000000.22     01050 01500                  
02365550616420049DT67590675900000011296800101800000010180010124001193058900012300178022620230000000475005823000000000059019477980XXXXXX3772       VS11    0001111   NYV1 A E383057716547862N840000000004750W9NB00    07DNPLANET VAPOR #1000       135641    VD84000000004750 N  599976923732                            000000000+                F DF 00381                     000000000  N000000000       0000000000000.00 0000000.00   0000000.00                             000000000000000                                                                                                                                                     01418 A000000000000 0000000000000.53     00800 01500                  
02365560616420050DT67590675900000011296800101800000010180010124001193058900012300186022620230000000215905823000000000059019477980XXXXXX3772       VS11    0001111   NYV1 A E383057717756860N840000000002159ZGL800    07DNPLANET VAPOR #1000       138235    VD84000000002159 N  599976923732                            000000000+                F DF 00381                     000000000  N000000000       0000000000000.00 0000000.00   0000000.00                             000000000000000                                                                                                                                                     01418 A000000000000 0000000000000.32     00800 01500                  
02365570616420051DT67590675900000011296800101800000010180010124001193058900012300194022620230000000269905823000000000059019448232XXXXXX4856       VS11    0001111   NYV1 A E583057755690523N84000000000269952GV00    05DNPLANET VAPOR #1000       055923    VD84000000002699 N  599976923732                            000000000+                F DF 00381                     000000000  N000000000       0000000000000.00 0000000.00   0000000.00                             000000000000000                                                                                                                                                     01418 A000000000000 0000000000000.37     00800 01500                  
02365580616420052DT67590675900000011296800101800000010180010124001193058900012300202022620230000000442605823000000000059019433477XXXXXX2191       VS11    0001111   NYV1 A E303057793646691N840000000004426J7SC00    05DNPLANET VAPOR #1000       016466    VD84000000004426 N  599976923732                            000000000+                F DF 10433                     000000000  Y000000000 338   0000000000000.00 0000000.00   0000000.00                             000000000000000                                                                                                                                                     01418 A000000000000 0000000000000.24     00050 02200                  
02365590616420053BH6759067590000000215480088880000090170227202305823000000000104000    0000090001194669N8008886759C02282023                                                                                                                                                                                                                                                                                                                                                                                                                                                                                                                                                                                                 
02365600616420054DT67590675900000002154800888800000010180088887287283058900011977332022720230000001800005823000000000104000548012XXXXXX5852                         NY 4607AMDBBXO5NA0227  N840000000018000          81DNDRIP DROP DISTRO LLC     298697    MD84000000018000 NP1519900000001   INV-000958               000000000+600450S00140    MDB  10786                     000000000  1                0000000000000.00 0000000.00   0000000.00                             000000000000000                                                                                                                                                   U001418  000000000000 0000000000000.31     00050 02200                  
02365610616420001P1675906759000000021548008888000000101                                                          000000000000          8000            471534935                                                                                                                                                                                                                                                                                                                                                                                                                                                                                                                                                            
02365620616420055DT67590675900000002154800888800000010180088824001193058900011982257022720230000004800005823000000000104000400967XXXXXX2511               2111111   NYV4 A7W583058809399956N840000000048000WTQP00    01DNDRIP DROP DISTRO LLC     069430    VD84000000048000 NP1519971004114   INV-000957               000000000+                G DG 08705                     000000000  N000000000       0000000000000.00 0000000.00   0000000.00                             000000000000000                                                                                                                                                     01418 G000000048000 0000000000011.86     02450 01000                  
02365630616420001P16759067590000000215480088880000001010000000000000000    43965336538              2000000000000000000000000              000000000000                    0000000000000000000000000                    000000000000                                                                                                                                                                                                                                                                                                                                                                                                                                                                                        
02365640616420056DT67590675900000002154800888800000010180088824001193058900011946690022720230000003800005823000000000104000413575XXXXXX7487               2111111   NYV4 A7W463058554631229N840000000038000CFJ400    01DNDRIP DROP DISTRO LLC     112841    VD84000000038000 NP1519971004114   INV-000349               000000000+                G DG 10352                     000000000  Y000000000 338   0000000000000.00 0000000.00   0000000.00                             000000000000000                                                                                                                                                     01418 G000000038000 0000000000000.41     00050 02200                  
02365650616420001P16759067590000000215480088880000001010000000000000000    43964275924              2000000000000000000000000              000000000000                    0000000000000000000000000                    000000000000                                                                                                                                                                                                                                                                                                                                                                                                                                                                                        
02365660616420057BH6759067590000000288180088880000090170227202305823000000000066997    0000090001550013N8008886759C02282023                                                                                                                                                                                                                                                                                                                                                                                                                                                                                                                                                                                                 
02365670616420058DT67590675900000002881800888800000010180088877287283058900015500016022720230000000325805823000000000066997515676XXXXXX0168       MS02WI09          NY 1 0 AMWEMPNZ300227  N840000000003258          05DNHAPPY HIPPIE             05575Z    MC84000000003258 N  549976487134                            000000000+M10101C5434C    MWE  00743                     000000000  N                0000000000000.00 0000000.00   0000000.00                             000000000000000                                                                                                                                                   B101418  000000000000 0000000000000.79     02300 00400                  
02365680616420059DT67590675900000002881800888800000010180088824001193058900015500022022720230000000689905823000000000066997419090XXXXXX6049       VS11    0001111   NYV1 A E303058594932221N8400000000068998ZMC00    05DNHAPPY HIPPIE             937575    VD84000000006899 N  549976487134                            000000000+                F DF 00381                     000000000  N000000000       0000000000000.00 0000000.00   0000000.00                             000000000000000                                                                                                                                                     01418 A000000000000 0000000000000.70     00800 01500                  
02365690616420060DT67590675900000002881800888800000010180088877287283058900015500032022720230000000167805823000000000066997510805XXXXXX4317       MS02WI09          NY 1 0 AMDJ2DAA300227  N840000000001678          07DNHAPPY HIPPIE             003905    MD84000000001678 N  549976487134                            000000000+M10101M0034C    MDJ  10815                     000000000  1                0000000000000.00 0000000.00   0000000.00                             000000000000000                                                                                                                                                   B101418  000000000000 0000000000000.23     00050 02200                  
02365700616420061DT67590675900000002881800888800000010180088824001193058900015500048022720230000001292605823000000000066997414398XXXXXX4037       VS11    0001111   NYV1 A E303058625698604N840000000012926TVMT00    05DNHAPPY HIPPIE             262299    VD84000000012926 N  549976487134                            000000000+                F DF 00381                     000000000  N000000000       0000000000000.00 0000000.00   0000000.00                             000000000000000                                                                                                                                                     01418 A000000000000 0000000000001.18     00800 01500                  
02365710616420062DT67590675900000002881800888800000010180088824001193058900015500055022720230000000246805823000000000066997415978XXXXXX3281       VS11    0001111   NYV1 A E383058627661036N840000000002468F8LT00    07DNHAPPY HIPPIE             039875    VD84000000002468 N  549976487134                            000000000+                F DF 10433                     000000000  Y000000000 338   0000000000000.00 0000000.00   0000000.00                             000000000000000                                                                                                                                                     01418 A000000000000 0000000000000.23     00050 02200                  
02365720616420063DT67590675900000002881800888800000010180088824001193058900015500063022720230000000325805823000000000066997475644XXXXXX6150       VS11    0001111   NYV1 A E303058659927754N840000000003258V4NB00    05DNHAPPY HIPPIE             805598    VD84000000003258 N  549976487134                            000000000+                F DF 00381                     000000000  N000000000       0000000000000.00 0000000.00   0000000.00                             000000000000000                                                                                                                                                     01418 A000000000000 0000000000000.41     00800 01500                  
02365730616420064DT67590675900000002881800888800000010180088824001193058900015500071022720230000000246805823000000000066997419090XXXXXX6209       VS11    0001111   NYV1 A E303058666658265N8400000000024685G9T00    05DNHAPPY HIPPIE             941893    VD84000000002468 N  549976487134                            000000000+                F DF 00381                     000000000  N000000000       0000000000000.00 0000000.00   0000000.00                             000000000000000                                                                                                                                                     01418 A000000000000 0000000000000.35     00800 01500                  
02365740616420065DT67590675900000002881800888800000010180088824001193058900015500089022720230000000334705823000000000066997443238XXXXXX6040       VS11    0001111   NYV1 A E583058680961915N8400000000033478ZVS00    07DNHAPPY HIPPIE             035456    VD84000000003347 N  549976487134                            000000000+                F DF 00381                     000000000  N000000000       0000000000000.00 0000000.00   0000000.00                             000000000000000                                                                                                                                                     01418 A000000000000 0000000000000.42     00800 01500                  
02365750616420066DT67590675900000002881800888800000010180088824001193058900015500097022720230000000800405823000000000066997419090XXXXXX0535       VS11    0001111   NYV1 A E383058682116686N840000000008004DND600    05DNHAPPY HIPPIE             942727    VD84000000008004 N  549976487134                            000000000+                F DF 00381                     000000000  N000000000       0000000000000.00 0000000.00   0000000.00                             000000000000000                                                                                                                                                     01418 A000000000000 0000000000000.79     00800 01500                  
02365760616420067DT67590675900000002881800888800000010180088824001193058900015500105022720230000000678105823000000000066997410881XXXXXX1024       VS11    0001111   NYV1 A E303058699885587N840000000006781TX5200    07DNHAPPY HIPPIE             778589    VD84000000006781 N  549976487134                            000000000+                F DF 00381                     000000000  N000000000       0000000000000.00 0000000.00   0000000.00                             000000000000000                                                                                                                                                     01418 A000000000000 0000000000000.69     00800 01500                  
02365770616420068DT67590675900000002881800888800000010180088824001193058900015500113022720230000000515605823000000000066997419090XXXXXX5725       VS11    0001111   NYV1 A E383058702305265N840000000005156PVB700    05DNHAPPY HIPPIE             943854    VD84000000005156 N  549976487134                            000000000+                F DF 00381                     000000000  N000000000       0000000000000.00 0000000.00   0000000.00                             000000000000000                                                                                                                                                     01418 A000000000000 0000000000000.56     00800 01500                  
02365780616420069DT67590675900000002881800888800000010180088877287283058900015500123022720230000000581605823000000000066997517148XXXXXX2573       MS02WI09          NY 1 0 AMWEHWPMNA0227  N840000000005816          05DNHAPPY HIPPIE             02067Z    MC84000000005816 N  549976487134                            000000000+M10101C5434C    MWE  00743                     000000000  N                0000000000000.00 0000000.00   0000000.00                             000000000000000                                                                                                                                                   B101418  000000000000 0000000000001.38     02300 00400                  
02365790616420070DT67590675900000002881800888800000010180088824001193058900015500139022720230000000493805823000000000066997480639XXXXXX6865       VS11    0001111   NYV1 A E303058798073245N8400000000049384BNB00    05DNHAPPY HIPPIE             476372    VD84000000004938 N  549976487134                            000000000+                F DF 00381                     000000000  N000000000       0000000000000.00 0000000.00   0000000.00                             000000000000000                                                                                                                                                     01418 A000000000000 0000000000000.55     00800 01500                  
02365800616420071BH6759067590000000288180088880000090170227202305823000000000138468    0000090001560024N8008886759C02282023                                                                                                                                                                                                                                                                                                                                                                                                                                                                                                                                                                                                 
02365810616420072DT67590675900000002881800888800000010180088824001193058900015600012022720230000001185005823000000000138468422921XXXXXX5665       VS11    0001111   NYV1 A E383058546523806N840000000011850QVQ500    05DNHAPPY HIPPIE             036654    VD84000000011850 N  549976487158                            000000000+                F DF 00381                     000000000  N000000000       0000000000000.00 0000000.00   0000000.00                             000000000000000                                                                                                                                                     01418 A000000000000 0000000000001.10     00800 01500                  
02365820616420073DT67590675900000002881800888800000010180088824001193058900015600020022720230000000148105823000000000138468449507XXXXXX4615       VK04VS111111111   NYV1 A E303058547253487N840000000001481LPJ700    05DNHAPPY HIPPIE             001205    VD84000000001481 N  549976487158                            000000000+                F DF 00451                     000000000  N000000000 214   0000000000000.00 0000000.00   0000000.00                             000000000000000                                                                                                                                                     01418 F000000000000 0000000000000.27     01550 00400                  
02365830616420074DT67590675900000002881800888800000010180088824001193058900015600038022720230000000570505823000000000138468423223XXXXXX5989       VS11    0001111   NYV1 A E383058564570663N840000000005705W9D200    07DNHAPPY HIPPIE             078364    VD84000000005705 N  549976487158                            000000000+                F DF 00381                     000000000  N000000000       0000000000000.00 0000000.00   0000000.00                             000000000000000                                                                                                                                                     01418 A000000000000 0000000000000.61     00800 01500                  
02365840616420075DT67590675900000002881800888800000010180088824001193058900015600046022720230000000690105823000000000138468404227XXXXXX2167       VS11    0001111   NYV1 A E303058565149702N8400000000069019TBZ00    05DNHAPPY HIPPIE             802402    VD84000000006901 N  549976487158                            000000000+                F DF 00381                     000000000  N000000000       0000000000000.00 0000000.00   0000000.00                             000000000000000                                                                                                                                                     01418 A000000000000 0000000000000.70     00800 01500                  
02365850616420076DT67590675900000002881800888800000010180088824001193058900015600053022720230000000668305823000000000138468443238XXXXXX8270       VS11    0001111   NYV1 A E583058566450267N8400000000066836HGJ00    07DNHAPPY HIPPIE             004405    VD84000000006683 N  549976487158                            000000000+                F DF 00381                     000000000  N000000000       0000000000000.00 0000000.00   0000000.00                             000000000000000                                                                                                                                                     01418 A000000000000 0000000000000.68     00800 01500                  
02365860616420077DT67590675900000002881800888800000010180088824001193058900015600061022720230000000548805823000000000138468400022XXXXXX0750       VS11    0001111   NYV1 A E383058567827927N840000000005488T48900    05DNHAPPY HIPPIE             440967    VD84000000005488 N  549976487158                            000000000+                F DF 10433                     000000000  Y000000000 338   0000000000000.00 0000000.00   0000000.00                             000000000000000                                                                                                                                                     01418 A000000000000 0000000000000.25     00050 02200                  
02365870616420078DT67590675900000002881800888800000010180088824001193058900015600079022720230000000316105823000000000138468415978XXXXXX3184       VS11    0001111   NYV1 A E383058568742766N840000000003161B64400    05DNHAPPY HIPPIE             060795    VD84000000003161 N  549976487158                            000000000+                F DF 10433                     000000000  Y000000000 338   0000000000000.00 0000000.00   0000000.00                             000000000000000                                                                                                                                                     01418 A000000000000 0000000000000.24     00050 02200                  
02365880616420079DT67590675900000002881800888800000010180088824001193058900015600087022720230000000548605823000000000138468419090XXXXXX9516       VS11    0001111   NYV1 A E383058581410333N840000000005486LLXW00    05DNHAPPY HIPPIE             936855    VD84000000005486 N  549976487158                            000000000+                F DF 00381                     000000000  N000000000       0000000000000.00 0000000.00   0000000.00                             000000000000000                                                                                                                                                     01418 A000000000000 0000000000000.59     00800 01500                  
02365890616420080DT67590675900000002881800888800000010180088824001193058900015600095022720230000000118405823000000000138468419090XXXXXX9516       VK04VS111111111   NYV1 A E463058587103088N840000000001184FDBJ00    05DNHAPPY HIPPIE             937156    VD84000000001184 N  549976487158                            000000000+                F DF 00451                     000000000  N000000000 214   0000000000000.00 0000000.00   0000000.00                             000000000000000                                                                                                                                                     01418 F000000000000 0000000000000.22     01550 00400                  
02365900616420081DT67590675900000002881800888800000010180088824001193058900015600103022720230000000493805823000000000138468419090XXXXXX1095       VS11    0001111   NYV1 A E383058588195653N840000000004938HGG900    05DNHAPPY HIPPIE             937230    VD84000000004938 N  549976487158                            000000000+                F DF 00381                     000000000  N000000000       0000000000000.00 0000000.00   0000000.00                             000000000000000                                                                                                                                                     01418 A000000000000 0000000000000.55     00800 01500                  
02365910616420082DT67590675900000002881800888800000010180088824001193058900015600111022720230000000037405823000000000138468491523XXXXXX7823       VK04VS111111111   NYV1 A E303058591872830N840000000000374K9PP00    07DNHAPPY HIPPIE             002654    VD84000000000374 N  549976487158                            000000000+                F DF 10439                     000000000  Y000000000 331   0000000000000.00 0000000.00   0000000.00                             000000000000000                                                                                                                                                     01418 F000000000000 0000000000000.22     00050 02200                  
02365920616420083DT67590675900000002881800888800000010180088824001193058900015600129022720230000001799705823000000000138468461608XXXXXX4124       VS11    0001111   NYV1 A E463058616102498N840000000017997PD3800    05DNHAPPY HIPPIE             65036B    VS84000000017997 N  549976487158                            000000000+                B CB 12111                     000000000  N000000000 495   0000000000000.00 0000000.00   0000000.00                             000000000000000                                                                                                                                                     01418 A000000000000 0000000000003.07     01650 01000                  
02365930616420084DT67590675900000002881800888800000010180088824001193058900015600137022720230000002765705823000000000138468419090XXXXXX2830       VS11    0001111   NYV1 A E303058725438250N840000000027657DBG200    05DNHAPPY HIPPIE             945043    VD84000000027657 N  549976487158                            000000000+                F DF 00381                     000000000  N000000000       0000000000000.00 0000000.00   0000000.00                             000000000000000                                                                                                                                                     01418 A000000000000 0000000000002.36     00800 01500                  
02365940616420085DT67590675900000002881800888800000010180088824001193058900015600145022720230000000325805823000000000138468422921XXXXXX3280       VS11    0001111   NYV1 A E383058726253379N840000000003258TQ5P00    05DNHAPPY HIPPIE             054627    VD84000000003258 N  549976487158                            000000000+                F DF 00381                     000000000  N000000000       0000000000000.00 0000000.00   0000000.00                             000000000000000                                                                                                                                                     01418 A000000000000 0000000000000.41     00800 01500                  
02365950616420086DT67590675900000002881800888800000010180088824001193058900015600152022720230000000148105823000000000138468445101XXXXXX7687       VK04VS111111111   NYV1 A E303058728367383N840000000001481CZ9P00    05DNHAPPY HIPPIE             285718    VD84000000001481 N  549976487158                            000000000+                F DF 10439                     000000000  Y000000000 331   0000000000000.00 0000000.00   0000000.00                             000000000000000                                                                                                                                                     01418 F000000000000 0000000000000.23     00050 02200                  
02365960616420087DT67590675900000002881800888800000010180088824001193058900015600160022720230000000276605823000000000138468415978XXXXXX3096       VS11    0001111   NYV1 A E583058729250213N840000000002766LP7P00    07DNHAPPY HIPPIE             067946    VD84000000002766 N  549976487158                            000000000+                F DF 10433                     000000000  Y000000000 338   0000000000000.00 0000000.00   0000000.00                             000000000000000                                                                                                                                                     01418 A000000000000 0000000000000.23     00050 02200                  
02365970616420088DT67590675900000002881800888800000010180088824001193058900015600178022720230000000691305823000000000138468413037XXXXXX6303       VS11    0001111   NYV1 A E583058732573792N8400000000069139M7L00    07DNHAPPY HIPPIE             058613    VD84000000006913 N  549976487158                            000000000+                F DF 10433                     000000000  Y000000000 338   0000000000000.00 0000000.00   0000000.00                             000000000000000                                                                                                                                                     01418 A000000000000 0000000000000.25     00050 02200                  
02365980616420089DT67590675900000002881800888800000010180088824001193058900015600186022720230000000874605823000000000138468445101XXXXXX0323       VS11    0001111   NYV1 A E303058748153071N840000000008746W59300    05DNHAPPY HIPPIE             302179    VD84000000008746 N  549976487158                            000000000+                F DF 10433                     000000000  Y000000000 338   0000000000000.00 0000000.00   0000000.00                             000000000000000                                                                                                                                                     01418 A000000000000 0000000000000.26     00050 02200                  
02365990616420090DT67590675900000002881800888800000010180088877287283058900015600196022720230000000355505823000000000138468531259XXXXXX6957       MS02WI09          NY 1 0 AMDJQDTH990227  N840000000003555          07DNHAPPY HIPPIE             125204    MD84000000003555 N  549976487158                            000000000+M10101M0034C    MDJ  10815                     000000000  1                0000000000000.00 0000000.00   0000000.00                             000000000000000                                                                                                                                                   B101418  000000000000 0000000000000.24     00050 02200                  
02366000616420091DT67590675900000002881800888800000010180088824001193058900015600202022720230000000219505823000000000138468444796XXXXXX8365       VS11    0001111   NYV1 A E383058764437159N840000000002195CPKB00    07DNHAPPY HIPPIE             027081    VS84000000002195 N  549976487158                            000000000+                A CA 12110                     000000000  N000000000 493   0000000000000.00 0000000.00   0000000.00                             000000000000000                                                                                                                                                     01418 A000000000000 0000000000000.43     01510 01000                  
02366010616420092DT67590675900000002881800888800000010180088873011003058900015600216022720230000000325805823000000000138468379284XXXXX4002                          NY 1 0 N004454532464307N840000000003258          05DNHAPPY HIPPIE             842684    AM84000000003258 N  549976487158                            000000000+51010155434C 258     11261                     000000000                   0000000000000.00 0000000.00   0000000.00                             000000000000000 61248972086759675900000002881 HAPPY HIPPIE             832 PARKWAY              8656540830      37862     HAPPYHIPPIE832@GMAIL.COM                  01418  000000000000 0000000000000.62     01600 00000                  
02366020616420093DT67590675900000002881800888800000010180088824001193058900015600228022720230000000245605823000000000138468415978XXXXXX3096       VS11    0001111   NYV1 A E383058774279867N840000000002456PRGT00    05DNHAPPY HIPPIE             005309    VD84000000002456 N  549976487158                            000000000+                F DF 10433                     000000000  Y000000000 338   0000000000000.00 0000000.00   0000000.00                             000000000000000                                                                                                                                                     01418 A000000000000 0000000000000.23     00050 02200                  
02366030616420094DT67590675900000002881800888800000010180088824001193058900015600236022720230000000098405823000000000138468410801XXXXXX8742       VK04VS111111111   NYV1 A E383058788228794N840000000000984GQTQ00    07DNHAPPY HIPPIE             065342    VD84000000000984 N  549976487158                            000000000+                F DF 00451                     000000000  N000000000 214   0000000000000.00 0000000.00   0000000.00                             000000000000000                                                                                                                                                     01418 F000000000000 0000000000000.19     01550 00400                  
02366040616420095DT67590675900000002881800888800000010180088824001193058900015600244022720230000000395105823000000000138468413037XXXXXX4265       VS11    0001111   NYV1 A E383058821489300N840000000003951WH8600    07DNHAPPY HIPPIE             066328    VD84000000003951 N  549976487158                            000000000+                F DF 10433                     000000000  Y000000000 338   0000000000000.00 0000000.00   0000000.00                             000000000000000                                                                                                                                                     01418 A000000000000 0000000000000.24     00050 02200                  
02366050616420096BH6759067590000000570280088880000090170227202305823000000000478948    0000090001039221N8008886759C02282023                                                                                                                                                                                                                                                                                                                                                                                                                                                                                                                                                                                                 
02366060616420097DT67590675900000005702800888800000010180088824001193058900010383887022720230000000287805823000000000478948406095XXXXXX3076               2111111   NYV4 A7W463058009254541N840000000002878NV5X00    01DNPSILOMART                05781D    VS84000000002878 NP1549971004114   RJNCR7GD1TRDK1TX8QCD     000000000+                D CD 12109                     000000000  N000000000 498   0000000000000.00 0000000.00   0000000.00                             000000000000000                                                                                                                                                     01418 G000000002878 0000000000000.82     02500 01000                  
02366070616420001P16759067590000000570280088880000001010000000000000000                             2000000000000000000000000              000000000000                    0000000000000000000000000                    000000000000                                                                                                                                                                                                                                                                                                                                                                                                                                                                                        
02366080616420098DT67590675900000005702800888800000010180088877287283058900010356547022720230000000999805823000000000478948517805XXXXXX8312       ME03KE06MS02      NY 4607AMPLVCFSJS0226  N840000000009998          81DNPSILOMART                07757B    MC84000000009998 N  549900000001   rUMcso9iUCmWDGBxWhgl     000000000+600450S00140    MPL  00580                     000000000  N                0000000000000.00 0000000.00   0000000.00                             000000000000000                                                                                                                                                   U001418  000000000000 0000000000002.20     02100 01000                  
02366090616420099DT67590675900000005702800888800000010180088824001193058900010376154022720230000000549605823000000000478948410039XXXXXX0665               2111111   NYV4 A7W463058664286239N840000000005496MJNX00    01DNPSILOMART                31605D    VS84000000005496 NP1549971004114   RYHK48HCN4ZCZB8QVYCX     000000000+                D CD 12109                     000000000  N000000000 498   0000000000000.00 0000000.00   0000000.00                             000000000000000                                                                                                                                                     01418 G000000005496 0000000000001.47     02500 01000                  
02366100616420001P16759067590000000570280088880000001010000000000000000                             2000000000000000000000000              000000000000                    0000000000000000000000000                    000000000000                                                                                                                                                                                                                                                                                                                                                                                                                                                                                        
02366110616420100DT67590675900000005702800888800000010180088824001193058900010340580022720230000013000005823000000000478948424631XXXXXX6538               2111111   NYV4 A7W383058808086414N8400000001300002RQX00    01DNPSILOMART                09471G    VB84000000130000 NP1549971004114   RRMUN489CGUPDSEPKGRD     000000000+                G5CG511887                     000000000  N000000000 163   0000000000000.00 0000000.00   0000000.00                             000000000000000                                                                                                                                                     01418 G000000130000 0000000000039.10     03000 01000                  
02366120616420001P16759067590000000570280088880000001010000000000000000    64225830859              2000000000000000000000000              000000000000                    0000000000000000000000000                    000000000000                                                                                                                                                                                                                                                                                                                                                                                                                                                                                        
02366130616420101DT67590675900000005702800888800000010180088824001193058900010334328022720230000000529805823000000000478948403623XXXXXX8275               2111111   NYV4 A7W383058026104081N840000000005298BQ5B00    01DNPSILOMART                021678    VD84000000005298 NP1549971004114   RXXY5LF8SSY6L8QTPNA2     000000000+                G DG 10352                     000000000  Y000000000 338   0000000000000.00 0000000.00   0000000.00                             000000000000000                                                                                                                                                     01418 G000000005298 0000000000000.25     00050 02200                  
02366140616420001P16759067590000000570280088880000001010000000000000000    64224211692              2000000000000000000000000              000000000000                    0000000000000000000000000                    000000000000                                                                                                                                                                                                                                                                                                                                                                                                                                                                                        
02366150616420102DT67590675900000005702800888800000010180088824001193058900010341653022720230000000551705823000000000478948414709XXXXXX0639               2111111   NYV4 A7W583058055674270N8400000000055174DVF00    01DNPSILOMART                07436D    VS84000000005517 NP1549971004114   RFW31TUTXO6FUREJVFGT     000000000+                D CD 12109                     000000000  N000000000 498   0000000000000.00 0000000.00   0000000.00                             000000000000000                                                                                                                                                     01418 G000000005517 0000000000001.48     02500 01000                  
02366160616420001P16759067590000000570280088880000001010000000000000000                             2000000000000000000000000              000000000000                    0000000000000000000000000                    000000000000                                                                                                                                                                                                                                                                                                                                                                                                                                                                                        
02366170616420103DT67590675900000005702800888800000010180088873011003058900010359073022720230000000849805823000000000478948371293XXXXX4008                          NY 4 07N004443242553301N840000000008498          01DNTRADE READY LLC          268128    AM84000000008498 N  549971004114                            000000000+6004S0S00140 258     11262                     000000000                   0000000000000.00 0000000.00   0000000.00                             000000000000000 61248972086759675900000005702 TRADE READY LLC          4744 PARADISE RD         7023386941      89169     PSILOMART@GMAIL.COM                       01418  000000000000 0000000000001.76     01950 00000                  
02366180616420104DT67590675900000005702800888800000010180088877287283058900010322184022720230000000280005823000000000478948517805XXXXXX9827       ME03KE06MS02      NY 4607AMPLV141JS0226  N840000000002800          81DNPSILOMART                07817B    MC84000000002800 N  549900000001   rk3PNPDdbFQZ2oaBAjsV     000000000+600450S00140    MPL  00580                     000000000  N                0000000000000.00 0000000.00   0000000.00                             000000000000000                                                                                                                                                   U001418  000000000000 0000000000000.69     02100 01000                  
02366190616420105DT67590675900000005702800888800000010180088824001193058900010339426022720230000001019705823000000000478948474489XXXXXX9809               2111111   NYV4 A7W303058677633566N840000000010197297Z00    01DNPSILOMART                124893    VD84000000010197 NP1549971004114   R2BQJQOGRAQ14C9CWHC9     000000000+                F DF 10420                     000000000  Y000000000 338   0000000000000.00 0000000.00   0000000.00                             000000000000000                                                                                                                                                     01418 G000000010197 0000000000000.27     00050 02200                  
02366200616420001P16759067590000000570280088880000001010000000000000000                             2000000000000000000000000              000000000000                    0000000000000000000000000                    000000000000                                                                                                                                                                                                                                                                                                                                                                                                                                                                                        
02366210616420106DT67590675900000005702800888800000010180088824001193058900010399339022720230000000559905823000000000478948473703XXXXXX7426               2111111   NYV4 A7W583058723507396N840000000005599BS5700    01DNPSILOMART                065283    VD84000000005599 NP1549971004114   RMJBY5XFSFIDVXOSUUJJ     000000000+                F DF 10420                     000000000  Y000000000 338   0000000000000.00 0000000.00   0000000.00                             000000000000000                                                                                                                                                     01418 G000000005599 0000000000000.25     00050 02200                  
02366220616420001P16759067590000000570280088880000001010000000000000000                             2000000000000000000000000              000000000000                    0000000000000000000000000                    000000000000                                                                                                                                                                                                                                                                                                                                                                                                                                                                                        
02366230616420107DT67590675900000005702800888800000010680088874001193058900010300019022720230000000180005823000000000478948440393XXXXXX6119               0000000   NY94 07N000000000000000N   000000000000          01CNPSILOMART                          VD84000000001800 N  549971004114                            000000000+                F PF 08168                     000000000  N000000000 369   0000000000000.00 0000000.00   0000000.00                             000000000000000                                                                                                                                                     01418  000000000000 0000000000000.00     00000 00000                  
02366240616420108DT67590675900000005702800888800000010180088824001193058900010391120022720230000000183905823000000000478948466188XXXXXX7630               2111111   NYV4 A7W583058046745333N840000000001839LRPQ00    01DNPSILOMART                014467    VD84000000001839 NP1549971004114   RNV7UVBO9RPICTX9TQWE     000000000+                F DF 10420                     000000000  Y000000000 338   0000000000000.00 0000000.00   0000000.00                             000000000000000                                                                                                                                                     01418 G000000001839 0000000000000.23     00050 02200                  
02366250616420001P16759067590000000570280088880000001010000000000000000                             2000000000000000000000000              000000000000                    0000000000000000000000000                    000000000000                                                                                                                                                                                                                                                                                                                                                                                                                                                                                        
02366260616420109DT67590675900000005702800888800000010180088824001193058900010392250022720230000000749905823000000000478948472773XXXXXX1343               2111111   NYV4 A7W463058052575931N840000000007499BFX500    01DNPSILOMART                796611    VD84000000007499 NP1549971004114   R5FCN2SFNI7L1AFOFIAC     000000000+                F DF 00415                     000000000  N000000000       0000000000000.00 0000000.00   0000000.00                             000000000000000                                                                                                                                                     01418 G000000007499 0000000000001.39     01650 01500                  
02366270616420001P16759067590000000570280088880000001010000000000000000                             2000000000000000000000000              000000000000                    0000000000000000000000000                    000000000000                                                                                                                                                                                                                                                                                                                                                                                                                                                                                        
02366280616420110DT67590675900000005702800888800000010180088877287283058900010318307022720230000001750005823000000000478948542418XXXXXX7659       ME03KE06MS02      NY 4607AMWEVV0OJS0226  N840000000017500          81DNPSILOMART                46008P    MC84000000017500 N  549900000001   rHF2fv8lcwR8vYCIzKbe     000000000+600450S00140    MWE  00737                     000000000  N                0000000000000.00 0000000.00   0000000.00                             000000000000000                                                                                                                                                   U001418  000000000000 0000000000004.65     02600 01000                  
02366290616420111DT67590675900000005702800888800000010180088876509753058900010339721022720230000000399905823000000000478948601100XXXXXX9491   BA00                  NY 4 07N873049652536883N840000000003999    00    01DNPSILOMART                02710R    DS84000000003999 N  549971004114010                         000000000+1015104910600   DCCDI01008166208  081413000000 000000000  0          120   0000000000000.00 0000000.00   0000000.00                             000000000000000                                                                                                                                                     01418  000000000000 0000000000000.91     02030 01000                  
02366300616420112DT67590675900000005702800888800000010180088824001193058900010347262022720230000000659705823000000000478948434256XXXXXX4538               2111111   NYV4 A7W583058592998782N840000000006597QWMG00    01DNPSILOMART                041054    VD84000000006597 NP1549971004114   RFRN7YOT0QU2GROJDBJ2     000000000+                F DF 10420                     000000000  Y000000000 338   0000000000000.00 0000000.00   0000000.00                             000000000000000                                                                                                                                                     01418 G000000006597 0000000000000.25     00050 02200                  
02366310616420001P16759067590000000570280088880000001010000000000000000                             2000000000000000000000000              000000000000                    0000000000000000000000000                    000000000000                                                                                                                                                                                                                                                                                                                                                                                                                                                                                        
02366320616420113DT67590675900000005702800888800000010180088824001193058900010345662022720230000000399905823000000000478948443044XXXXXX1950               2111111   NYV4 A7W463058593310215N840000000003999TB3N00    01DNPSILOMART                557312    VD84000000003999 NP1549971004114   R6PZDULKXWKEZGSLQ3DA     000000000+                F DF 10420                     000000000  Y000000000 338   0000000000000.00 0000000.00   0000000.00                             000000000000000                                                                                                                                                     01418 G000000003999 0000000000000.24     00050 02200                  
02366330616420001P16759067590000000570280088880000001010000000000000000                             2000000000000000000000000              000000000000                    0000000000000000000000000                    000000000000                                                                                                                                                                                                                                                                                                                                                                                                                                                                                        
02366340616420114DT67590675900000005702800888800000010180088877287283058900010321665022720230000000663805823000000000478948514750XXXXXX2174       ME03KE06MS02      NY 4607AMDJTXQX300227  N840000000006638          81DNPSILOMART                774051    MD84000000006638 N  549900000001   rTimYcgxvxgZowsmt01o     000000000+600450S00140    MDJ  10813                     000000000  1                0000000000000.00 0000000.00   0000000.00                             000000000000000                                                                                                                                                   U001418  000000000000 0000000000000.25     00050 02200                  
02366350616420115DT67590675900000005702800888800000010180088824001193058900010376147022720230000000600005823000000000478948473703XXXXXX5757               2111111   NYV4 A7W383058671797873N84000000000600032T200    01DNPSILOMART                015296    VD84000000006000 NP1549971004114   RMMXASUHOYVJPLRSHZ9N     000000000+                F DF 10420                     000000000  Y000000000 338   0000000000000.00 0000000.00   0000000.00                             000000000000000                                                                                                                                                     01418 G000000006000 0000000000000.25     00050 02200                  
02366360616420001P16759067590000000570280088880000001010000000000000000                             2000000000000000000000000              000000000000                    0000000000000000000000000                    000000000000                                                                                                                                                                                                                                                                                                                                                                                                                                                                                        
02366370616420116DT67590675900000005702800888800000010180088877287283058900010306492022720230000000529805823000000000478948528432XXXXXX6682       ME03KE06MS02      NY 4607AMPLPO0Y990227  N840000000005298          81DNPSILOMART                02701B    MC84000000005298 N  549900000001   rF2D6NMZBCSGepjzNPf1     000000000+600450S00140    MPL  00580                     000000000  N                0000000000000.00 0000000.00   0000000.00                             000000000000000                                                                                                                                                   U001418  000000000000 0000000000001.21     02100 01000                  
02366380616420117DT67590675900000005702800888800000010680088874001193058900010300027022720230000000479905823000000000478948409451XXXXXX4181               0000000   NY94 07N000000000000000N   000000000000          01CNPSILOMART                          VS84000000004799 N  549971004114                            000000000+                A CA 00245                     000000000  N000000000 166   0000000000000.00 0000000.00   0000000.00                             000000000000000                                                                                                                                                     01418  000000000000-0000000000000.84     01760 00000                  
02366390616420118DT67590675900000005702800888800000010180088877287283058900010308860022720230000000639805823000000000478948510805XXXXXX5652       ME03KE06MS02      NY 4607AMDJE8XCDR0227  N840000000006398          81DNPSILOMART                072649    MD84000000006398 N  549900000001   r6oN2itPle2uLzSJRf2T     000000000+600450S00140    MDJ  10813                     000000000  1                0000000000000.00 0000000.00   0000000.00                             000000000000000                                                                                                                                                   U001418  000000000000 0000000000000.25     00050 02200                  
02366400616420119DT67590675900000005702800888800000010180088877287283058900010398481022720230000000577805823000000000478948527515XXXXXX6948       ME03KE06MS02      NY 4607AMDJXZCIJS0226  N840000000005778          81DNPSILOMART                125159    MD84000000005778 N  549900000001   rrR6Xt2xOQaGC78Ue07W     000000000+600450S00140    MDJ  10813                     000000000  1                0000000000000.00 0000000.00   0000000.00                             000000000000000                                                                                                                                                   U001418  000000000000 0000000000000.25     00050 02200                  
02366410616420120DT67590675900000005702800888800000010180088877287283058900010303390022720230000000799605823000000000478948511067XXXXXX6260       ME03KE06MS02      NY 4607AMDJQJNTJS0226  N840000000007996          81DNPSILOMART                084100    MD84000000007996 N  549900000001   rsFyTS9VC4YBqklX3nry     000000000+600450S00140    MDJ  00401                     000000000  N                0000000000000.00 0000000.00   0000000.00                             000000000000000                                                                                                                                                   U001418  000000000000 0000000000001.47     01650 01500                  
02366420616420121DT67590675900000005702800888800000010180088877287283058900010357388022720230000000320005823000000000478948542418XXXXXX6359       ME03KE06MS02      NY 4607AMWEZE1BJS0226  N840000000003200          81DNPSILOMART                20656P    MC84000000003200 N  549900000001   r2rIe1Lib84mfU0oTrPt     000000000+600450S00140    MWE  00737                     000000000  N                0000000000000.00 0000000.00   0000000.00                             000000000000000                                                                                                                                                   U001418  000000000000 0000000000000.93     02600 01000                  
02366430616420122DT67590675900000005702800888800000010180088824001193058900010357931022720230000000639805823000000000478948414740XXXXXX9301               2111111   NYV4 A7W383058164279535N840000000006398PR5M00    01DNPSILOMART                00430D    VS84000000006398 NP1549971004114   RPXWQNEDWRONAZBTXYEQ     000000000+                D CD 12109                     000000000  N000000000 498   0000000000000.00 0000000.00   0000000.00                             000000000000000                                                                                                                                                     01418 G000000006398 0000000000001.70     02500 01000                  
02366440616420001P16759067590000000570280088880000001010000000000000000                             2000000000000000000000000              000000000000                    0000000000000000000000000                    000000000000                                                                                                                                                                                                                                                                                                                                                                                                                                                                                        
02366450616420123DT67590675900000005702800888800000010180088824001193058900010386849022720230000000512705823000000000478948440393XXXXXX6100               2111111   NYV4 A7W383058374897360N840000000005127WB9B00    01DNPSILOMART                657777    VD84000000005127 NP1549971004114   RG23KHTQUIQJPCYEEV4P     000000000+                F PF 08175                     000000000  N000000000       0000000000000.00 0000000.00   0000000.00                             000000000000000                                                                                                                                                     01418 G000000005127 0000000000001.10     01750 02000                  
02366460616420001P16759067590000000570280088880000001010000000000000000                             2000000000000000000000000              000000000000                    0000000000000000000000000                    000000000000                                                                                                                                                                                                                                                                                                                                                                                                                                                                                        
02366470616420124DT67590675900000005702800888800000010180088877287283058900010347421022720230000000750005823000000000478948515676XXXXXX0716       ME03KE06MS02      NY 4607AMWELRBCNA0227  N840000000007500          81DNPSILOMART                06357Z    MC84000000007500 N  549900000001   rZWjolxHJBPG9AuJ84Gj     000000000+600450S00140    MWE  00737                     000000000  N                0000000000000.00 0000000.00   0000000.00                             000000000000000                                                                                                                                                   U001418  000000000000 0000000000002.05     02600 01000                  
02366480616420125DT67590675900000005702800888800000010180088824001193058900010392219022720230000019750005823000000000478948474165XXXXXX9688               2111111   NYV4 A7W583058706421294N840000000197500J2JT00    01DNPSILOMART                017727    VD84000000197500 NP1549971004114   RVL6BUYADHR4WBXP4UTU     000000000+                G DG 10352                     000000000  Y000000000 338   0000000000000.00 0000000.00   0000000.00                             000000000000000                                                                                                                                                     01418 G000000197500 0000000000001.21     00050 02200                  
