02600680535446548AD675906759000000151648008888000009071900011408650000000654803222023NYY08123ND6759800888032420232023081027529                                                                                                                                                                                                                                                                                                                                                                                                                                                                                                                                                                                              
02600690535446551AD675906759000000151648008888000009071900011408640000001987003222023NYY08123ND6759800888032420232023081027530                                                                                                                                                                                                                                                                                                                                                                                                                                                                                                                                                                                              
02600700535446554AD675906759000000151648008888000009071900011105290000000654803222023NYY08123ND6759800888032420232023081027531                                                                                                                                                                                                                                                                                                                                                                                                                                                                                                                                                                                              
02600710535446557AD675906759000000133008001028000009071900011507980000002920303222023NYY08123ND6759800102032420232023081027532                                                                                                                                                                                                                                                                                                                                                                                                                                                                                                                                                                                              
02600720535446560AD675906759000000151648008888000009071900011103990000000519003222023NYY08123ND6759800888032420232023081027533                                                                                                                                                                                                                                                                                                                                                                                                                                                                                                                                                                                              
02600730535446563AD675906759000000151648008888000009071900011103980000000654803222023NYY08123ND6759800888032420232023081027534                                                                                                                                                                                                                                                                                                                                                                                                                                                                                                                                                                                              
02600740535446566AD675906759000000151648008888000009071900010801120000000654803222023NYY08123ND6759800888032420232023081027535                                                                                                                                                                                                                                                                                                                                                                                                                                                                                                                                                                                              
02600750535446569AD675906759000000151648008888000009071900011407020000000654803222023NYY08123ND6759800888032420232023081029854                                                                                                                                                                                                                                                                                                                                                                                                                                                                                                                                                                                              
02600760535446572AD675906759000000151648008888000009071900011407000000001987003222023NYY08123ND6759800888032420232023081029856                                                                                                                                                                                                                                                                                                                                                                                                                                                                                                                                                                                              
02600770537880002BH6759067590000000288180088880000090170323202308223000000000029479    0000090001760006N8008886759C03242023                                                                                                                                                                                                                                                                                                                                                                                                                                                                                                                                                                                                 
02600780537880003DT67590675900000002881800888800000010180088824001193082900017600010032320230000000325808223000000000029479419090XXXXXX3871       VS11    0001111   NYV1 A E303082596249394N8400000000032582PCR00    05DNHAPPY HIPPIE             635517    VD84000000003258 N  549976487134                            000000000+                F DF 00381                     000000000  N000000000       0000000000000.00 0000000.00   0000000.00                             000000000000000                                                                                                                                                     01418 A000000000000 0000000000000.41     00800 01500                  
02600790537880004DT67590675900000002881800888800000010180088824001193082900017600028032320230000000570608223000000000029479491905XXXXXX6297       VS11    0001111   NYV1 A E303082605858278N840000000005706SVL400    05DNHAPPY HIPPIE             668138    VD84000000005706 N  549976487134                            000000000+                F DF 00381                     000000000  N000000000       0000000000000.00 0000000.00   0000000.00                             000000000000000                                                                                                                                                     01418 A000000000000 0000000000000.61     00800 01500                  
02600800537880005DT67590675900000002881800888800000010180088824001193082900017600036032320230000000175408223000000000029479419090XXXXXX2641       VS11    0001111   NYV1 A E303082684225600N84000000000175466PX00    05DNHAPPY HIPPIE             640583    VD84000000001754 N  549976487134                            000000000+                F DF 00381                     000000000  N000000000       0000000000000.00 0000000.00   0000000.00                             000000000000000                                                                                                                                                     01418 A000000000000 0000000000000.29     00800 01500                  
02600810537880006DT67590675900000002881800888800000010180088824001193082900017600044032320230000001303508223000000000029479419090XXXXXX2641       VS11    0001111   NYV1 A E383082696155135N840000000013035JCLJ00    05DNHAPPY HIPPIE             641258    VD84000000013035 N  549976487134                            000000000+                F DF 00381                     000000000  N000000000       0000000000000.00 0000000.00   0000000.00                             000000000000000                                                                                                                                                     01418 A000000000000 0000000000001.19     00800 01500                  
02600820537880007DT67590675900000002881800888800000010180088824001193082900017600051032320230000000325808223000000000029479445101XXXXXX5760       VS11    0001111   NYV1 A E383082700581201N8400000000032582QZZ00    05DNHAPPY HIPPIE             110429    VD84000000003258 N  549976487134                            000000000+                F DF 10433                     000000000  Y000000000 338   0000000000000.00 0000000.00   0000000.00                             000000000000000                                                                                                                                                     01418 A000000000000 0000000000000.24     00050 02200                  
02600830537880008DT67590675900000002881800888800000010180088824001193082900017600069032320230000000246808223000000000029479480639XXXXXX5004       VS11    0001111   NYV1 A E303082717698148N840000000002468J3GL00    05DNHAPPY HIPPIE             053872    VD84000000002468 N  549976487134                            000000000+                F DF 00381                     000000000  N000000000       0000000000000.00 0000000.00   0000000.00                             000000000000000                                                                                                                                                     01418 A000000000000 0000000000000.35     00800 01500                  
02600840537880009BH6759067590000000215480088880000090170323202308223000000000015000    0000090001411908N8008886759C03242023                                                                                                                                                                                                                                                                                                                                                                                                                                                                                                                                                                                                 
02600850537880010DT67590675900000002154800888800000010180088887287283082900014119080032320230000001500008223000000000015000534875XXXXXX6300                         NY 4607AMDBR5XG0J0323  N840000000015000          81DNDRIP DROP DISTRO LLC     111209    MD84000000015000 NP1519900000001   INV-001289               000000000+600450S00140    MDB  10786                     000000000  1                0000000000000.00 0000000.00   0000000.00                             000000000000000                                                                                                                                                   U001418  000000000000 0000000000000.30     00050 02200                  
02600860537880001P1675906759000000021548008888000000101                                                          000000000000          8000            471534935                                                                                                                                                                                                                                                                                                                                                                                                                                                                                                                                                            
02600870537880011BH6759067590000000288180088880000090170323202308223000000000150534    0000090001780033N8008886759C03242023                                                                                                                                                                                                                                                                                                                                                                                                                                                                                                                                                                                                 
02600880537880012DT67590675900000002881800888800000010180088824001193082900017800016032320230000000395008223000000000150534415978XXXXXX6755       VS11    0001111   NYV1 A E463082523482041N8400000000039505TG600    07DNHAPPY HIPPIE             012998    VD84000000003950 N  549976487158                            000000000+                F DF 10433                     000000000  Y000000000 338   0000000000000.00 0000000.00   0000000.00                             000000000000000                                                                                                                                                     01418 A000000000000 0000000000000.24     00050 02200                  
02600890537880013DT67590675900000002881800888800000010180088824001193082900017800024032320230000000548808223000000000150534415978XXXXXX3184       VS11    0001111   NYV1 A E463082523894722N840000000005488RL7300    07DNHAPPY HIPPIE             062085    VD84000000005488 N  549976487158                            000000000+                F DF 10433                     000000000  Y000000000 338   0000000000000.00 0000000.00   0000000.00                             000000000000000                                                                                                                                                     01418 A000000000000 0000000000000.25     00050 02200                  
02600900537880014DT67590675900000002881800888800000010180088824001193082900017800032032320230000000329308223000000000150534419090XXXXXX2345       VS11    0001111   NYV1 A E383082524808160N840000000003293RVVD00    05DNHAPPY HIPPIE             631390    VD84000000003293 N  549976487158                            000000000+                F DF 00381                     000000000  N000000000       0000000000000.00 0000000.00   0000000.00                             000000000000000                                                                                                                                                     01418 A000000000000 0000000000000.41     00800 01500                  
02600910537880015DT67590675900000002881800888800000010180088824001193082900017800040032320230000001480408223000000000150534406032XXXXXX5726       VS11    0001111   NYV1 A E583082533249503N840000000014804X5VD00    05DNHAPPY HIPPIE             044810    VD84000000014804 N  549976487158                            000000000+                F DF 10433                     000000000  Y000000000 338   0000000000000.00 0000000.00   0000000.00                             000000000000000                                                                                                                                                     01418 A000000000000 0000000000000.29     00050 02200                  
02600920537880016DT67590675900000002881800888800000010180088824001193082900017800057032320230000000720808223000000000150534480639XXXXXX7211               1001111   NYV1 A K383082535124438N840000000007208WF7W00    01DNHAPPY HIPPIE             044910    VD84000000007208 N  549976487158                            000000000+                F DF 00412                     000000000  N000000000       0000000000000.00 0000000.00   0000000.00                             000000000000000                                                                                                                                                     01418 E000000000000 0000000000001.34     01650 01500                  
02600930537880017DT67590675900000002881800888800000010180088877287283082900017800067032320230000000285208223000000000150534517805XXXXXX0085       MS02WI09          NY 1 0 AMPLXRWQ0D0323  N840000000002852          07DNHAPPY HIPPIE             09139B    MC84000000002852 N  549976487158                            000000000+M10101M0034C    MPL  00364                     000000000  N                0000000000000.00 0000000.00   0000000.00                             000000000000000                                                                                                                                                   B101418  000000000000 0000000000000.55     01800 00400                  
02600940537880018DT67590675900000002881800888800000010180088824001193082900017800073032320230000000274308223000000000150534401099XXXXXX6907       VS11    0001111   NYV1 A E303082561910214N84000000000274396MQ00    05DNHAPPY HIPPIE             423655    VS84000000002743 N  549976487158                            000000000+                A CA 12110                     000000000  N000000000 493   0000000000000.00 0000000.00   0000000.00                             000000000000000                                                                                                                                                     01418 A000000000000 0000000000000.51     01510 01000                  
02600950537880019DT67590675900000002881800888800000010180088824001193082900017800081032320230000000395008223000000000150534480639XXXXXX9060       VS11    0001111   NYV1 A E583082563650972N840000000003950NDCK00    05DNHAPPY HIPPIE             046227    VD84000000003950 N  549976487158                            000000000+                F DF 00381                     000000000  N000000000       0000000000000.00 0000000.00   0000000.00                             000000000000000                                                                                                                                                     01418 A000000000000 0000000000000.47     00800 01500                  
02600960537880020DT67590675900000002881800888800000010180088824001193082900017800099032320230000000079008223000000000150534423223XXXXXX8288       VK04VS111111111   NYV1 A E383082565344886N840000000000790P4PG00    05DNHAPPY HIPPIE             094498    VD84000000000790 N  549976487158                            000000000+                F DF 00451                     000000000  N000000000 214   0000000000000.00 0000000.00   0000000.00                             000000000000000                                                                                                                                                     01418 F000000000000 0000000000000.16     01550 00400                  
02600970537880021DT67590675900000002881800888800000010180088877287283082900017800109032320230000000504408223000000000150534511953XXXXXX1769       MS02WI09          NY 1 0 AMDJIBRGXU0323  N840000000005044          05DNHAPPY HIPPIE             023781    MD84000000005044 N  549976487158                            000000000+M10101C5434C    MDJ  00402                     000000000  N                0000000000000.00 0000000.00   0000000.00                             000000000000000                                                                                                                                                   B101418  000000000000 0000000000000.68     01050 01500                  
02600980537880022DT67590675900000002881800888800000010180088824001193082900017800115032320230000000768108223000000000150534419090XXXXXX9633       VS11    0001111   NYV1 A E583082571826698N8400000000076815ZGV00    05DNHAPPY HIPPIE             633883    VD84000000007681 N  549976487158                            000000000+                F DF 00381                     000000000  N000000000       0000000000000.00 0000000.00   0000000.00                             000000000000000                                                                                                                                                     01418 A000000000000 0000000000000.76     00800 01500                  
02600990537880023DT67590675900000002881800888800000010180088877287283082900017800125032320230000000987608223000000000150534517805XXXXXX6616       MS02WI09          NY 1 0 AMPLN7RNXY0323  N840000000009876          05DNHAPPY HIPPIE             02757B    MC84000000009876 N  549976487158                            000000000+M10101C5434C    MPL  00364                     000000000  N                0000000000000.00 0000000.00   0000000.00                             000000000000000                                                                                                                                                   B101418  000000000000 0000000000001.82     01800 00400                  
02601000537880024DT67590675900000002881800888800000010180088824001193082900017800131032320230000000274308223000000000150534473703XXXXXX8268       VS11    0001111   NYV1 A E383082595408366N840000000002743JG6Q00    05DNHAPPY HIPPIE             061413    VD84000000002743 N  549976487158                            000000000+                F DF 10433                     000000000  Y000000000 338   0000000000000.00 0000000.00   0000000.00                             000000000000000                                                                                                                                                     01418 A000000000000 0000000000000.23     00050 02200                  
02601010537880025DT67590675900000002881800888800000010180088824001193082900017800149032320230000000362108223000000000150534473703XXXXXX1934       VS11    0001111   NYV1 A E463082595854965N8400000000036212M2M00    05DNHAPPY HIPPIE             051161    VD84000000003621 N  549976487158                            000000000+                F DF 10433                     000000000  Y000000000 338   0000000000000.00 0000000.00   0000000.00                             000000000000000                                                                                                                                                     01418 A000000000000 0000000000000.24     00050 02200                  
02601020537880026DT67590675900000002881800888800000010180088877287283082900017800158032320230000000218708223000000000150534518941XXXXXX4253       MS02WI09          NY 1 0 AMWEENS1XU0323  N840000000002187          07DNHAPPY HIPPIE             51074Z    MC84000000002187 N  549976487158                            000000000+M10101M0034C    MWE  00743                     000000000  N                0000000000000.00 0000000.00   0000000.00                             000000000000000                                                                                                                                                   B101418  000000000000 0000000000000.54     02300 00400                  
02601030537880027DT67590675900000002881800888800000010180088824001193082900017800164032320230000000351208223000000000150534473702XXXXXX7706       VS11    0001111   NYV1 A E303082602686191N840000000003512FWHH00    07DNHAPPY HIPPIE             086745    VD84000000003512 N  549976487158                            000000000+                F DF 10433                     000000000  Y000000000 338   0000000000000.00 0000000.00   0000000.00                             000000000000000                                                                                                                                                     01418 A000000000000 0000000000000.24     00050 02200                  
02601040537880028DT67590675900000002881800888800000010180088824001193082900017800172032320230000000454108223000000000150534435546XXXXXX9002       VS11    0001111   NYV1 A E463082641950608N840000000004541GCV400    05DNHAPPY HIPPIE             052054    VD84000000004541 N  549976487158                            000000000+                F DF 10433                     000000000  Y000000000 338   0000000000000.00 0000000.00   0000000.00                             000000000000000                                                                                                                                                     01418 A000000000000 0000000000000.24     00050 02200                  
02601050537880029DT67590675900000002881800888800000010180088824001193082900017800180032320230000000104008223000000000150534422921XXXXXX5877       VK04VS111111111   NYV1 A E303082644120821N840000000001040ZG5Q00    05DNHAPPY HIPPIE             050014    VD84000000001040 N  549976487158                            000000000+                F DF 00451                     000000000  N000000000 214   0000000000000.00 0000000.00   0000000.00                             000000000000000                                                                                                                                                     01418 F000000000000 0000000000000.20     01550 00400                  
02601060537880030DT67590675900000002881800888800000010180088877287283082900017800190032320230000000841508223000000000150534511953XXXXXX0307       MS02WI09          NY 1 0 AMDJXQZQZS0323  N840000000008415          05DNHAPPY HIPPIE             018724    MD84000000008415 N  549976487158                            000000000+M10101C5434C    MDJ  00402                     000000000  N                0000000000000.00 0000000.00   0000000.00                             000000000000000                                                                                                                                                   B101418  000000000000 0000000000001.03     01050 01500                  
02601070537880031DT67590675900000002881800888800000010180088824001193082900017800206032320230000000355508223000000000150534422921XXXXXX1981       VS11    0001111   NYV1 A E383082656945192N840000000003555NH4G00    07DNHAPPY HIPPIE             051296    VD84000000003555 N  549976487158                            000000000+                F DF 00381                     000000000  N000000000       0000000000000.00 0000000.00   0000000.00                             000000000000000                                                                                                                                                     01418 A000000000000 0000000000000.43     00800 01500                  
02601080537880032DT67590675900000002881800888800000010180088824001193082900017800214032320230000001272908223000000000150534414398XXXXXX4037       VS11    0001111   NYV1 A E303082663186705N840000000012729BZBF00    05DNHAPPY HIPPIE             642500    VD84000000012729 N  549976487158                            000000000+                F DF 00381                     000000000  N000000000       0000000000000.00 0000000.00   0000000.00                             000000000000000                                                                                                                                                     01418 A000000000000 0000000000001.17     00800 01500                  
02601090537880033DT67590675900000002881800888800000010180088824001193082900017800222032320230000000592508223000000000150534413022XXXXXX5316       VS11    0001111   NYV1 A E303082673791633N840000000005925RX3M00    07DNHAPPY HIPPIE             843905    VD84000000005925 N  549976487158                            000000000+                F DF 00381                     000000000  N000000000       0000000000000.00 0000000.00   0000000.00                             000000000000000                                                                                                                                                     01418 A000000000000 0000000000000.62     00800 01500                  
02601100537880034DT67590675900000002881800888800000010180088824001193082900017800230032320230000000548808223000000000150534448232XXXXXX6379       VS11    0001111   NYV1 A E583082675114299N8400000000054883KZL00    05DNHAPPY HIPPIE             044504    VD84000000005488 N  549976487158                            000000000+                F DF 00381                     000000000  N000000000       0000000000000.00 0000000.00   0000000.00                             000000000000000                                                                                                                                                     01418 A000000000000 0000000000000.59     00800 01500                  
02601110537880035DT67590675900000002881800888800000010180088824001193082900017800248032320230000000148808223000000000150534443264XXXXXX8753       VK04VS111111111   NYV1 A E303082726671989N84000000000148888BJ00    05DNHAPPY HIPPIE             030202    VD84000000001488 N  549976487158                            000000000+                F DF 10439                     000000000  Y000000000 331   0000000000000.00 0000000.00   0000000.00                             000000000000000                                                                                                                                                     01418 F000000000000 0000000000000.23     00050 02200                  
02601120537880036DT67590675900000002881800888800000010180088824001193082900017800255032320230000000730708223000000000150534419090XXXXXX8251       VS11    0001111   NYV1 A E383082727747319N840000000007307ZKQJ00    05DNHAPPY HIPPIE             643175    VD84000000007307 N  549976487158                            000000000+                F DF 00381                     000000000  N000000000       0000000000000.00 0000000.00   0000000.00                             000000000000000                                                                                                                                                     01418 A000000000000 0000000000000.73     00800 01500                  
02601130537880037DT67590675900000002881800888800000010180088824001193082900017800263032320230000000295808223000000000150534429413XXXXXX7195       VS11    0001111   NYV1 A E303082732513434N840000000002958CGQP00    05DNHAPPY HIPPIE             738178    VD84000000002958 N  549976487158                            000000000+                F DF 00381                     000000000  N000000000       0000000000000.00 0000000.00   0000000.00                             000000000000000                                                                                                                                                     01418 A000000000000 0000000000000.39     00800 01500                  
02601140537880038DT67590675900000002881800888800000010180088824001193082900017800271032320230000000246808223000000000150534445101XXXXXX9988       VS11    0001111   NYV1 A E583082733817656N840000000002468QP4800    05DNHAPPY HIPPIE             137435    VD84000000002468 N  549976487158                            000000000+                F DF 10433                     000000000  Y000000000 338   0000000000000.00 0000000.00   0000000.00                             000000000000000                                                                                                                                                     01418 A000000000000 0000000000000.23     00050 02200                  
02601150537880039DT67590675900000002881800888800000010180088824001193082900017800289032320230000000197608223000000000150534400022XXXXXX0750       VS11    0001111   NYV1 A E383082738401952N840000000001976RQX200    05DNHAPPY HIPPIE             694192    VD84000000001976 N  549976487158                            000000000+                F DF 10433                     000000000  Y000000000 338   0000000000000.00 0000000.00   0000000.00                             000000000000000                                                                                                                                                     01418 A000000000000 0000000000000.23     00050 02200                  
02601160537880040DT67590675900000002881800888800000010180088873011003082900017800293032320230000000230408223000000000150534377936XXXXX6801                          NY 1 0 N007314648685061N840000000002304          90DNHAPPY HIPPIE             051218    AM84000000002304 N  549976487158                            000000000+51010125434C 258SV   11273                     000000000                   0000000000000.00 0000000.00   0000000.00                             000000000000000 61248972086759675900000002881 HAPPY HIPPIE             832 PARKWAY              8656540830      37862     HAPPYHIPPIE832@GMAIL.COM                  01418  000000000000 0000000000000.41     01350 00000                  
02601170537880041DT67590675900000002881800888800000010180088824001193082900017800305032320230000000158008223000000000150534415978XXXXXX3096       VS11    0001111   NYV1 A E463082780350085N8400000000015802PLS00    05DNHAPPY HIPPIE             089094    VD84000000001580 N  549976487158                            000000000+                F DF 10433                     000000000  Y000000000 338   0000000000000.00 0000000.00   0000000.00                             000000000000000                                                                                                                                                     01418 A000000000000 0000000000000.23     00050 02200                  
02601180537880042DT67590675900000002881800888800000010180088824001193082900017800313032320230000000658408223000000000150534415978XXXXXX1435       VS11    0001111   NYV1 A E583082786247930N840000000006584R2HP00    05DNHAPPY HIPPIE             099003    VD84000000006584 N  549976487158                            000000000+                F DF 10433                     000000000  Y000000000 338   0000000000000.00 0000000.00   0000000.00                             000000000000000                                                                                                                                                     01418 A000000000000 0000000000000.25     00050 02200                  
02601190537880043DT67590675900000002881800888800000010180088877287283082900017800323032320230000000137208223000000000150534523680XXXXXX8830       MS02WI09          NY 1 0 AMPGK8U7330323  N840000000001372          05DNHAPPY HIPPIE             145622    MD84000000001372 N  549976487158                            000000000+M10101C5434C    MPG  00505                     000000000  N                0000000000000.00 0000000.00   0000000.00                             000000000000000                                                                                                                                                   B101418  000000000000 0000000000000.25     01550 00400                  
02601200537880044DT67590675900000002881800888800000010180088876509753082900017800337032320230000000106208223000000000150534653949XXXXXX8371   BA80                  NY41 0 N753070631211061N840000000001062    00    07DNHAPPY HIPPIE             02325R    DS84000000001062 N  549976487158830                         000000000+0000004910H00   DCCDI00996333387  145841000000 000000000  0          108   0000000000000.00 0000000.00   0000000.00                             000000000000000                                                                                                                                                     01418  000000000000 0000000000000.21     01950 00000                  
02601210537880045BH6759067590000000766680010180000090170323202308223000000000100198    0000090001060030N8001016759C03242023                                                                                                                                                                                                                                                                                                                                                                                                                                                                                                                                                                                                 
02601220537880046DT67590675900000007666800101800000010180010124001193082900010600017032320230000000215908223000000000100198458643XXXXXX9413       VS11    0001111   NYV1 A E383082505339237N840000000002159XL6G00    05DNPLANET VAPOR INC #300    H92428    VD84000000002159 N  599977384654                            000000000+                F DF 10433                     000000000  Y000000000 338   0000000000000.00 0000000.00   0000000.00                             000000000000000                                                                                                                                                     01418 A000000000000 0000000000000.23     00050 02200                  
02601230537880047DT67590675900000007666800101800000010180010124001193082900010600025032320230000000215908223000000000100198465638XXXXXX8046       VS11    0001111   NYV1 A E463082528861509N840000000002159345900    05DNPLANET VAPOR INC #300    505160    VS84000000002159 N  599977384654                            000000000+                B CB 12111                     000000000  N000000000 495   0000000000000.00 0000000.00   0000000.00                             000000000000000                                                                                                                                                     01418 A000000000000 0000000000000.46     01650 01000                  
02601240537880048DT67590675900000007666800101800000010180010177287283082900010600035032320230000000237508223000000000100198518941XXXXXX7028       MS02WI09          NY 1 0 AMWEW49O0D0323  N840000000002375          05DNPLANET VAPOR INC #300    63787Z    MC84000000002375 N  599977384654                            000000000+M10101C5434C    MWE  00739                     000000000  N                0000000000000.00 0000000.00   0000000.00                             000000000000000                                                                                                                                                   B101418  000000000000 0000000000000.65     02300 01000                  
02601250537880049DT67590675900000007666800101800000010180010124001193082900010600041032320230000000388708223000000000100198433477XXXXXX7520       VS11    0001111   NYV1 A E463082554702183N840000000003887PFZW00    05DNPLANET VAPOR INC #300    174392    VD84000000003887 N  599977384654                            000000000+                F DF 10433                     000000000  Y000000000 338   0000000000000.00 0000000.00   0000000.00                             000000000000000                                                                                                                                                     01418 A000000000000 0000000000000.24     00050 02200                  
02601260537880050DT67590675900000007666800101800000010180010124001193082900010600058032320230000000230008223000000000100198498503XXXXXX5050       VS11    0001111   NYV1 A E383082562697790N84000000000230096NV00    05DNPLANET VAPOR INC #300    043953    VD84000000002300 N  599977384654                            000000000+                F DF 00381                     000000000  N000000000       0000000000000.00 0000000.00   0000000.00                             000000000000000                                                                                                                                                     01418 A000000000000 0000000000000.33     00800 01500                  
02601270537880051DT67590675900000007666800101800000010180010124001193082900010600066032320230000000047708223000000000100198440393XXXXXX5709       VK04VS111111111   NYV1 A E463082563017435N840000000000477QR9K00    05DNPLANET VAPOR INC #300    323086    VD84000000000477 N  599977384654                            000000000+                F PF 08165                     000000000  N000000000       0000000000000.00 0000000.00   0000000.00                             000000000000000                                                                                                                                                     01418 F000000000000 0000000000000.13     01600 00500                  
02601280537880052DT67590675900000007666800101800000010180010124001193082900010600074032320230000000323808223000000000100198427199XXXXXX1794       VS11    0001111   NYV1 A E303082586307154N840000000003238ZJ8700    05DNPLANET VAPOR INC #300    238603    VD84000000003238 N  599977384654                            000000000+                F DF 00381                     000000000  N000000000       0000000000000.00 0000000.00   0000000.00                             000000000000000                                                                                                                                                     01418 A000000000000 0000000000000.41     00800 01500                  
02601290537880053DT67590675900000007666800101800000010180010124001193082900010600082032320230000000427008223000000000100198461675XXXXXX1003       VS11    0001111   NYV1 A E583082591168678N840000000004270QMH600    05DNPLANET VAPOR INC #300    572630    VD84000000004270 N  599977384654                            000000000+                F DF 00381                     000000000  N000000000       0000000000000.00 0000000.00   0000000.00                             000000000000000                                                                                                                                                     01418 A000000000000 0000000000000.49     00800 01500                  
02601300537880054DT67590675900000007666800101800000010180010176509753082900010600098032320230000000237508223000000000100198601100XXXXXX6446   BA50                  NY41 0 N813070432582423N840000000002375    00    05DNPLANET VAPOR INC #300    02338R    DS84000000002375 N  599977384654050                         000000000+0000004910H00   DCCDI01000168261  122739000000 000000000  0          112   0000000000000.00 0000000.00   0000000.00                             000000000000000                                                                                                                                                     01418  000000000000 0000000000000.51     01720 01000                  
02601310537880055DT67590675900000007666800101800000010180010124001193082900010600108032320230000000248208223000000000100198474474XXXXXX2522       VS11    0001111   NYV1 A E303082602460312N840000000002482T8MQ00    05DNPLANET VAPOR INC #300    114541    VD84000000002482 N  599977384654                            000000000+                F DF 10433                     000000000  Y000000000 338   0000000000000.00 0000000.00   0000000.00                             000000000000000                                                                                                                                                     01418 A000000000000 0000000000000.23     00050 02200                  
02601320537880056DT67590675900000007666800101800000010180010177287283082900010600118032320230000000755708223000000000100198547043XXXXXX3735       MS02WI09          NY 1 0 AMWEV9EFZS0323  N840000000007557          07DNPLANET VAPOR INC #300    08232Z    MC84000000007557 N  599977384654                            000000000+M10101M1134C    MWE  00739                     000000000  N                0000000000000.00 0000000.00   0000000.00                             000000000000000                                                                                                                                                   A101418  000000000000 0000000000001.84     02300 01000                  
02601330537880057DT67590675900000007666800101800000010180010124001193082900010600124032320230000000237508223000000000100198434256XXXXXX6733       VS11    0001111   NYV1 A E303082622743400N840000000002375835800    05DNPLANET VAPOR INC #300    059644    VD84000000002375 N  599977384654                            000000000+                F DF 10433                     000000000  Y000000000 338   0000000000000.00 0000000.00   0000000.00                             000000000000000                                                                                                                                                     01418 A000000000000 0000000000000.23     00050 02200                  
02601340537880058DT67590675900000007666800101800000010180010124001193082900010600132032320230000000561408223000000000100198473703XXXXXX0895       VS11    0001111   NYV1 A E383082637721872N840000000005614GF4B00    05DNPLANET VAPOR INC #300    019002    VD84000000005614 N  599977384654                            000000000+                F DF 10433                     000000000  Y000000000 338   0000000000000.00 0000000.00   0000000.00                             000000000000000                                                                                                                                                     01418 A000000000000 0000000000000.25     00050 02200                  
02601350537880059DT67590675900000007666800101800000010180010177287283082900010600142032320230000000107808223000000000100198527232XXXXXX6216       MS02WI09          NY 1 0 AMPLXNIQZS0323  N840000000001078          07DNPLANET VAPOR INC #300    01436M    MC84000000001078 N  599977384654                            000000000+M10101M0034C    MPL  00353                     000000000  N                0000000000000.00 0000000.00   0000000.00                             000000000000000                                                                                                                                                   A101418  000000000000 0000000000000.29     01800 01000                  
02601360537880060DT67590675900000007666800101800000010180010124001193082900010600157032320230000000213708223000000000100198473703XXXXXX3278       VS11    0001111   NYV1 A E383082654662805N840000000002137X3BM00    05DNPLANET VAPOR INC #300    058216    VD84000000002137 N  599977384654                            000000000+                F DF 10433                     000000000  Y000000000 338   0000000000000.00 0000000.00   0000000.00                             000000000000000                                                                                                                                                     01418 A000000000000 0000000000000.23     00050 02200                  
02601370537880061DT67590675900000007666800101800000010180010124001193082900010600165032320230000000323808223000000000100198403766XXXXXX6950       VS11    0001111   NYV1 A E583082663258314N840000000003238N7X600    05DNPLANET VAPOR INC #300    313252    VS84000000003238 N  599977384654                            000000000+                A CA 12110                     000000000  N000000000 493   0000000000000.00 0000000.00   0000000.00                             000000000000000                                                                                                                                                     01418 A000000000000 0000000000000.59     01510 01000                  
02601380537880062DT67590675900000007666800101800000010180010124001193082900010600173032320230000000291508223000000000100198446540XXXXXX8091       VS11    0001111   NYV1 A E383082687409120N840000000002915WG5N00    05DNPLANET VAPOR INC #300    023616    VS84000000002915 N  599977384654                            000000000+                D CD 12113                     000000000  N000000000 499   0000000000000.00 0000000.00   0000000.00                             000000000000000                                                                                                                                                     01418 A000000000000 0000000000000.71     02100 01000                  
02601390537880063DT67590675900000007666800101800000010180010124001193082900010600181032320230000000716008223000000000100198426684XXXXXX3307       VS11    0001111   NYV1 A E583082691644463N840000000007160JH2200    05DNPLANET VAPOR INC #300    07335B    VS84000000007160 N  599977384654                            000000000+                B CB 12111                     000000000  N000000000 495   0000000000000.00 0000000.00   0000000.00                             000000000000000                                                                                                                                                     01418 A000000000000 0000000000001.28     01650 01000                  
02601400537880064DT67590675900000007666800101800000010180010124001193082900010600199032320230000000164108223000000000100198466188XXXXXX0312       VS11    0001111   NYV1 A E303082694508668N840000000001641SG3600    05DNPLANET VAPOR INC #300    029940    VD84000000001641 N  599977384654                            000000000+                F DF 10433                     000000000  Y000000000 338   0000000000000.00 0000000.00   0000000.00                             000000000000000                                                                                                                                                     01418 A000000000000 0000000000000.23     00050 02200                  
02601410537880065DT67590675900000007666800101800000010180010124001193082900010600207032320230000000469608223000000000100198430602XXXXXX9387       VS11    0001111   NYV1 A E583082724879980N8400000000046969ZTL00    07DNPLANET VAPOR INC #300    623664    VD84000000004696 N  599977384654                            000000000+                F DF 00381                     000000000  N000000000       0000000000000.00 0000000.00   0000000.00                             000000000000000                                                                                                                                                     01418 A000000000000 0000000000000.53     00800 01500                  
02601420537880066DT67590675900000007666800101800000010180010177287283082900010600217032320230000000064808223000000000100198515068XXXXXX0379       MS02WI09          NY 2 0 AMDJXENF6L0323  N840000000000648          05DNPLANET VAPOR INC #300    8MA7PM    MD84000000000648 N  599977384654                            000000000+M10101C1334C    MDJ  00402                     000000000  N                0000000000000.00 0000000.00   0000000.00                             000000000000000                                                                                                                                                     01418  000000000000 0000000000000.22     01050 01500                  
02601430537880067DT67590675900000007666800101800000010180010124001193082900010600223032320230000000345408223000000000100198443047XXXXXX4686       VS11    0001111   NYV1 A E303082752861033N840000000003454H72P00    05DNPLANET VAPOR INC #300    848085    VD84000000003454 N  599977384654                            000000000+                F DF 10433                     000000000  Y000000000 338   0000000000000.00 0000000.00   0000000.00                             000000000000000                                                                                                                                                     01418 A000000000000 0000000000000.24     00050 02200                  
02601440537880068DT67590675900000007666800101800000010180010124001193082900010600231032320230000000280708223000000000100198427199XXXXXX8916       VS11    0001111   NYV1 A E463082759941765N840000000002807G2PT00    05DNPLANET VAPOR INC #300    266472    VD84000000002807 N  599977384654                            000000000+                F DF 00381                     000000000  N000000000       0000000000000.00 0000000.00   0000000.00                             000000000000000                                                                                                                                                     01418 A000000000000 0000000000000.37     00800 01500                  
02601450537880069DT67590675900000007666800101800000010180010124001193082900010600249032320230000000647908223000000000100198415977XXXXXX4588       VS11    0001111   NYV1 A E383082764650059N8400000000064793FHC00    05DNPLANET VAPOR INC #300    092846    VD84000000006479 N  599977384654                            000000000+                F DF 10433                     000000000  Y000000000 338   0000000000000.00 0000000.00   0000000.00                             000000000000000                                                                                                                                                     01418 A000000000000 0000000000000.25     00050 02200                  
02601460537880070DT67590675900000007666800101800000010180010124001193082900010600256032320230000000223808223000000000100198461675XXXXXX4132       VS11    0001111   NYV1 A E583082787392433N840000000002238RQXV00    05DNPLANET VAPOR INC #300    802270    VD84000000002238 N  599977384654                            000000000+                F DF 00381                     000000000  N000000000       0000000000000.00 0000000.00   0000000.00                             000000000000000                                                                                                                                                     01418 A000000000000 0000000000000.33     00800 01500                  
02601470537880071DT67590675900000007666800101800000010180010173011003082900010600260032320230000000323808223000000000100198379305XXXXX1002                          NY 1 0 N007315922592063N840000000003238          05DNPLANET VAPOR #300        825489    AM84000000003238 N  599977384654                            000000000+51010155434C 258     11261                     000000000                   0000000000000.00 0000000.00   0000000.00                             000000000000000 61248972086759675900000007666 PLANET VAPOR #300        300 HUGER ST STE A       8035462263      29201     KEVIN@MOOREDISTRO.COM                     01418  000000000000 0000000000000.62     01600 00000                  
02601480537880072DT67590675900000007666800101800000010180010177287283082900010600274032320230000000151108223000000000100198523957XXXXXX8209       MS02WI09          NY 1 0 AMDJL4RZ330323  N840000000001511          05DNPLANET VAPOR INC #300    624210    MD84000000001511 N  599977384654                            000000000+M10101C5434C    MDJ  00402                     000000000  N                0000000000000.00 0000000.00   0000000.00                             000000000000000                                                                                                                                                   B101418  000000000000 0000000000000.31     01050 01500                  
02601490537880073DT67590675900000007666800101800000010180010124001193082900010600280032320230000000151108223000000000100198409311XXXXXX2303       VS11    0001111   NYV1 A E303082824850328N840000000001511NW8900    05DNPLANET VAPOR INC #300    055444    VD84000000001511 N  599977384654                            000000000+                F DF 10433                     000000000  Y000000000 338   0000000000000.00 0000000.00   0000000.00                             000000000000000                                                                                                                                                     01418 A000000000000 0000000000000.23     00050 02200                  
02601500537880074DT67590675900000007666800101800000010180010124001193082900010600298032320230000000119108223000000000100198440393XXXXXX5709       VK04VS111111111   NYV1 A E383082840952880N84000000000119173PJ00    05DNPLANET VAPOR INC #300    665538    VD84000000001191 N  599977384654                            000000000+                F PF 08165                     000000000  N000000000       0000000000000.00 0000000.00   0000000.00                             000000000000000                                                                                                                                                     01418 F000000000000 0000000000000.24     01600 00500                  
02601510537880075DT67590675900000007666800101800000010180010124001193082900010600306032320230000001298808223000000000100198406049XXXXXX6924       VS11    0001111   NYV1 A E463082851394729N8400000000129886BW500    05DNPLANET VAPOR INC #300    083900    VD84000000012988 N  599977384654                            000000000+                F DF 10433                     000000000  Y000000000 338   0000000000000.00 0000000.00   0000000.00                             000000000000000                                                                                                                                                     01418 A000000000000 0000000000000.28     00050 02200                  
02601520537880076BH6759067590000001107280010180000090170323202308223000000000042112    0000090001070014N8001016759C03242023                                                                                                                                                                                                                                                                                                                                                                                                                                                                                                                                                                                                 
02601530537880077DT67590675900000011072800101800000010180010124001193082900010700015032320230000000213908223000000000042112438419XXXXXX2682       VS11    0001111   NYV1 A E303082524680925N840000000002139BM5V00    07DNPLANET VAPOR INC #1000   003428    VD84000000002139 N  599977385027                            000000000+                F DF 00381                     000000000  N000000000       0000000000000.00 0000000.00   0000000.00                             000000000000000                                                                                                                                                     01418 A000000000000 0000000000000.32     00800 01500                  
02601540537880078DT67590675900000011072800101800000010180010124001193082900010700023032320230000000406408223000000000042112433477XXXXXX1063       VS11    0001111   NYV1 A E303082544418790N84000000000406473P400    05DNPLANET VAPOR INC #1000   158797    VD84000000004064 N  599977385027                            000000000+                F DF 10433                     000000000  Y000000000 338   0000000000000.00 0000000.00   0000000.00                             000000000000000                                                                                                                                                     01418 A000000000000 0000000000000.24     00050 02200                  
02601550537880079DT67590675900000011072800101800000010180010124001193082900010700031032320230000000641708223000000000042112430602XXXXXX1089       VS11    0001111   NYV1 A E383082576793819N840000000006417VWRB00    05DNPLANET VAPOR INC #1000   576978    VD84000000006417 N  599977385027                            000000000+                F DF 00381                     000000000  N000000000       0000000000000.00 0000000.00   0000000.00                             000000000000000                                                                                                                                                     01418 A000000000000 0000000000000.66     00800 01500                  
02601560537880080DT67590675900000011072800101800000010180010124001193082900010700049032320230000000149708223000000000042112440393XXXXXX2476       VK04VS111111111   NYV1 A E303082605747070N840000000001497V4X500    05DNPLANET VAPOR INC #1000   508470    VD84000000001497 N  599977385027                            000000000+                F PF 08165                     000000000  N000000000       0000000000000.00 0000000.00   0000000.00                             000000000000000                                                                                                                                                     01418 F000000000000 0000000000000.29     01600 00500                  
02601570537880081DT67590675900000011072800101800000010180010124001193082900010700056032320230000000135308223000000000042112400022XXXXXX2498       VK04VS111111111   NYV1 A E583082627986603N840000000001353VHKW00    05DNPLANET VAPOR INC #1000   473748    VD84000000001353 N  599977385027                            000000000+                F DF 10439                     000000000  Y000000000 331   0000000000000.00 0000000.00   0000000.00                             000000000000000                                                                                                                                                     01418 F000000000000 0000000000000.23     00050 02200                  
02601580537880082DT67590675900000011072800101800000010180010124001193082900010700064032320230000000449308223000000000042112440393XXXXXX7397       VS11    0001111   NYV1 A E303082662501435N840000000004493VXX800    05DNPLANET VAPOR INC #1000   356266    VD84000000004493 N  599977385027                            000000000+                F PF 08170                     000000000  N000000000       0000000000000.00 0000000.00   0000000.00                             000000000000000                                                                                                                                                     01418 A000000000000 0000000000000.67     01150 01500                  
02601590537880083DT67590675900000011072800101800000010180010124001193082900010700072032320230000000320808223000000000042112430602XXXXXX6055       VS11    0001111   NYV1 A E463082664199457N840000000003208NX4Q00    05DNPLANET VAPOR INC #1000   603319    VD84000000003208 N  599977385027                            000000000+                F DF 00381                     000000000  N000000000       0000000000000.00 0000000.00   0000000.00                             000000000000000                                                                                                                                                     01418 A000000000000 0000000000000.41     00800 01500                  
02601600537880084DT67590675900000011072800101800000010180010124001193082900010700080032320230000000400508223000000000042112430602XXXXXX3192       VS11    0001111   NYV1 A E303082740631986N840000000004005W6KX00    05DNPLANET VAPOR INC #1000   628156    VD84000000004005 N  599977385027                            000000000+                F DF 00381                     000000000  N000000000       0000000000000.00 0000000.00   0000000.00                             000000000000000                                                                                                                                                     01418 A000000000000 0000000000000.47     00800 01500                  
02601610537880085DT67590675900000011072800101800000010180010124001193082900010700098032320230000000160408223000000000042112498503XXXXXX9921       VS11    0001111   NYV1 A E583082779037911N8400000000016046XNQ00    05DNPLANET VAPOR INC #1000   091859    VD84000000001604 N  599977385027                            000000000+                F DF 00381                     000000000  N000000000       0000000000000.00 0000000.00   0000000.00                             000000000000000                                                                                                                                                     01418 A000000000000 0000000000000.28     00800 01500                  
02601620537880086DT67590675900000011072800101800000010180010124001193082900010700106032320230000000160408223000000000042112498503XXXXXX9921       VS11    0001111   NYV1 A E383082779286609N840000000001604249800    05DNPLANET VAPOR INC #1000   005853    VD84000000001604 N  599977385027                            000000000+                F DF 00381                     000000000  N000000000       0000000000000.00 0000000.00   0000000.00                             000000000000000                                                                                                                                                     01418 A000000000000 0000000000000.28     00800 01500                  
02601630537880087DT67590675900000011072800101800000010180010124001193082900010700114032320230000000406408223000000000042112473703XXXXXX3706       VS11    0001111   NYV1 A E383082781881134N8400000000040647ZLV00    05DNPLANET VAPOR INC #1000   064440    VD84000000004064 N  599977385027                            000000000+                F DF 10433                     000000000  Y000000000 338   0000000000000.00 0000000.00   0000000.00                             000000000000000                                                                                                                                                     01418 A000000000000 0000000000000.24     00050 02200                  
02601640537880088DT67590675900000011072800101800000010180010124001193082900010700122032320230000000044608223000000000042112408138XXXXXX7369       VK04VS111111111   NYV1 A E303082792578006N840000000000446BJDP00    07DNPLANET VAPOR INC #1000   254886    VD84000000000446 N  599977385027                            000000000+                F PF 08165                     000000000  N000000000       0000000000000.00 0000000.00   0000000.00                             000000000000000                                                                                                                                                     01418 F000000000000 0000000000000.12     01600 00500                  
02601650537880089DT67590675900000011072800101800000010180010124001193082900010700130032320230000000507908223000000000042112400022XXXXXX8196       VS11    0001111   NYV1 A E583082836189571N840000000005079HB2Q00    05DNPLANET VAPOR INC #1000   605331    VD84000000005079 N  599977385027                            000000000+                F DF 10433                     000000000  Y000000000 338   0000000000000.00 0000000.00   0000000.00                             000000000000000                                                                                                                                                     01418 A000000000000 0000000000000.25     00050 02200                  
02601660537880090DT67590675900000011072800101800000010180010124001193082900010700148032320230000000213908223000000000042112487917XXXXXX2898       VS11    0001111   NYV1 A E463082837716089N840000000002139GFPW00    07DNPLANET VAPOR INC #1000   779371    VD84000000002139 N  599977385027                            000000000+                F DF 00381                     000000000  N000000000       0000000000000.00 0000000.00   0000000.00                             000000000000000                                                                                                                                                     01418 A000000000000 0000000000000.32     00800 01500                  
02601670537880091BH6759067590000000708880010180000090170323202308223000000000089741    0000090001080029N8001016759C03242023                                                                                                                                                                                                                                                                                                                                                                                                                                                                                                                                                                                                 
02601680537880092DT67590675900000007088800101800000010180010124001193082900010800013032320230000000323808223000000000089741473703XXXXXX1079       VS11    0001111   NYV1 A E383082506538707N8400000000032385SNP00    05DNPLANET VAPOR INC #200    014890    VD84000000003238 N  599977384620                            000000000+                F DF 10433                     000000000  Y000000000 338   0000000000000.00 0000000.00   0000000.00                             000000000000000                                                                                                                                                     01418 A000000000000 0000000000000.24     00050 02200                  
02601690537880093DT67590675900000007088800101800000010180010124001193082900010800021032320230000000061908223000000000089741473703XXXXXX1079       VK04VS111111111   NYV1 A E463082507146539N840000000000619M8MN00    05DNPLANET VAPOR INC #200    083754    VD84000000000619 N  599977384620                            000000000+                F DF 10439                     000000000  Y000000000 331   0000000000000.00 0000000.00   0000000.00                             000000000000000                                                                                                                                                     01418 F000000000000 0000000000000.22     00050 02200                  
02601700537880094DT67590675900000007088800101800000010180010177287283082900010800031032320230000000431908223000000000089741531258XXXXXX8934       MS02WI09          NY 1 0 AMDJW0NE0D0323  N840000000004319          07DNPLANET VAPOR INC #200    124553    MD84000000004319 N  599977384620                            000000000+M10101M0034C    MDJ  10815                     000000000  1                0000000000000.00 0000000.00   0000000.00                             000000000000000                                                                                                                                                   B101418  000000000000 0000000000000.24     00050 02200                  
02601710537880095DT67590675900000007088800101800000010180010177287283082900010800049032320230000000194308223000000000089741523957XXXXXX4720       MS02WI09          NY 1 0 AMDJP3800K0323  N840000000001943          05DNPLANET VAPOR INC #200    520590    MD84000000001943 N  599977384620                            000000000+M10101C5434C    MDJ  00402                     000000000  N                0000000000000.00 0000000.00   0000000.00                             000000000000000                                                                                                                                                   B101418  000000000000 0000000000000.35     01050 01500                  
02601720537880096DT67590675900000007088800101800000010180010124001193082900010800054032320230000000238608223000000000089741423223XXXXXX6702       VS11    0001111   NYV1 A E583082549295530N840000000002386XMZC00    05DNPLANET VAPOR INC #200    086435    VD84000000002386 N  599977384620                            000000000+                F DF 00381                     000000000  N000000000       0000000000000.00 0000000.00   0000000.00                             000000000000000                                                                                                                                                     01418 A000000000000 0000000000000.34     00800 01500                  
02601730537880097DT67590675900000007088800101800000010180010124001193082900010800062032320230000000091708223000000000089741459954XXXXXX8147       VK04VS111111111   NYV1 A E583082549962239N840000000000917GK3S00    05DNPLANET VAPOR INC #200    H02635    VD84000000000917 N  599977384620                            000000000+                F DF 10439                     000000000  Y000000000 331   0000000000000.00 0000000.00   0000000.00                             000000000000000                                                                                                                                                     01418 F000000000000 0000000000000.22     00050 02200                  
02601740537880098DT67590675900000007088800101800000010180010124001193082900010800070032320230000000375008223000000000089741478200XXXXXX1846       VS11    0001111   NYV1 A E583082589841414N840000000003750TJ5700    07DNPLANET VAPOR INC #200    042312    VD84000000003750 N  599977384620                            000000000+                F DF 10433                     000000000  Y000000000 338   0000000000000.00 0000000.00   0000000.00                             000000000000000                                                                                                                                                     01418 A000000000000 0000000000000.24     00050 02200                  
02601750537880099DT67590675900000007088800101800000010180010124001193082900010800088032320230000000237508223000000000089741461675XXXXXX4627       VS11    0001111   NYV1 A E303082592984582N8400000000023752PF300    05DNPLANET VAPOR INC #200    574890    VD84000000002375 N  599977384620                            000000000+                F DF 00381                     000000000  N000000000       0000000000000.00 0000000.00   0000000.00                             000000000000000                                                                                                                                                     01418 A000000000000 0000000000000.34     00800 01500                  
02601760537880100DT67590675900000007088800101800000010180010124001193082900010800096032320230000000242908223000000000089741453506XXXXXX1795       VS11    0001111   NYV1 A E583082607646857N840000000002429XP4P00    05DNPLANET VAPOR INC #200    H17736    VD84000000002429 N  599977384620                            000000000+                F DF 10433                     000000000  Y000000000 338   0000000000000.00 0000000.00   0000000.00                             000000000000000                                                                                                                                                     01418 A000000000000 0000000000000.23     00050 02200                  
02601770537880101DT67590675900000007088800101800000010180010124001193082900010800104032320230000000280708223000000000089741430602XXXXXX4304       VS11    0001111   NYV1 A E383082634817261N840000000002807BNRJ00    07DNPLANET VAPOR INC #200    593910    VD84000000002807 N  599977384620                            000000000+                F DF 00381                     000000000  N000000000       0000000000000.00 0000000.00   0000000.00                             000000000000000                                                                                                                                                     01418 A000000000000 0000000000000.37     00800 01500                  
02601780537880102DT67590675900000007088800101800000010180010124001193082900010800112032320230000000280708223000000000089741443178XXXXXX8456       VS11    0001111   NYV1 A E303082635481820N840000000002807JT3T00    05DNPLANET VAPOR INC #200    013909    VD84000000002807 N  599977384620                            000000000+                F DF 00381                     000000000  N000000000       0000000000000.00 0000000.00   0000000.00                             000000000000000                                                                                                                                                     01418 A000000000000 0000000000000.37     00800 01500                  
02601790537880103DT67590675900000007088800101800000010180010124001193082900010800120032320230000000194308223000000000089741447713XXXXXX9255       VS11    0001111   NYV1 A E383082667893817N840000000001943RRJG00    05DNPLANET VAPOR INC #200    983750    VD84000000001943 N  599977384620                            000000000+                F DF 00381                     000000000  N000000000       0000000000000.00 0000000.00   0000000.00                             000000000000000                                                                                                                                                     01418 A000000000000 0000000000000.31     00800 01500                  
02601800537880104DT67590675900000007088800101800000010180010124001193082900010800138032320230000000323808223000000000089741438419XXXXXX5409       VS11    0001111   NYV1 A E583082689172059N840000000003238DTV200    05DNPLANET VAPOR INC #200    050837    VD84000000003238 N  599977384620                            000000000+                F DF 00381                     000000000  N000000000       0000000000000.00 0000000.00   0000000.00                             000000000000000                                                                                                                                                     01418 A000000000000 0000000000000.41     00800 01500                  
02601810537880105DT67590675900000007088800101800000010180010124001193082900010800146032320230000000439708223000000000089741421783XXXXXX5423       VS11    0001111   NYV1 A E583082723317496N8400000000043978THC00    07DNPLANET VAPOR INC #200    065808    VS84000000004397 N  599977384620                            000000000+                A CA 12110                     000000000  N000000000 493   0000000000000.00 0000000.00   0000000.00                             000000000000000                                                                                                                                                     01418 A000000000000 0000000000000.76     01510 01000                  
02601820537880106DT67590675900000007088800101800000010180010124001193082900010800153032320230000000280708223000000000089741461675XXXXXX2284       VS11    0001111   NYV1 A E583082723936112N8400000000028079T8Z00    05DNPLANET VAPOR INC #200    719430    VD84000000002807 N  599977384620                            000000000+                F DF 00381                     000000000  N000000000       0000000000000.00 0000000.00   0000000.00                             000000000000000                                                                                                                                                     01418 A000000000000 0000000000000.37     00800 01500                  
02601830537880107DT67590675900000007088800101800000010180010124001193082900010800161032320230000000402008223000000000089741403766XXXXXX5694       VS11    0001111   NYV1 A E383082728235214N840000000004020XKPZ00    07DNPLANET VAPOR INC #200    513231    VS84000000004020 N  599977384620                            000000000+                C CC 12112                     000000000  N000000000 497   0000000000000.00 0000000.00   0000000.00                             000000000000000                                                                                                                                                     01418 A000000000000 0000000000000.76     01650 01000                  
02601840537880108DT67590675900000007088800101800000010180010177287283082900010800171032320230000000205108223000000000089741557588XXXXXX0448       MS02WI09          NY 1 0 AMDJNNW65O0323  N840000000002051          05DNPLANET VAPOR INC #200    544769    MD84000000002051 N  599977384620                            000000000+M10101C5434C    MDJ  00402                     000000000  N                0000000000000.00 0000000.00   0000000.00                             000000000000000                                                                                                                                                   B101418  000000000000 0000000000000.37     01050 01500                  
02601850537880109DT67590675900000007088800101800000010180010124001193082900010800187032320230000000620708223000000000089741427199XXXXXX7057       VS11    0001111   NYV1 A E583082793576565N84000000000620766QB00    05DNPLANET VAPOR INC #200    271723    VD84000000006207 N  599977384620                            000000000+                F DF 00381                     000000000  N000000000       0000000000000.00 0000000.00   0000000.00                             000000000000000                                                                                                                                                     01418 A000000000000 0000000000000.65     00800 01500                  
02601860537880110DT67590675900000007088800101800000010180010124001193082900010800195032320230000000269908223000000000089741400022XXXXXX5872       VS11    0001111   NYV1 A E463082796226024N840000000002699MFP800    07DNPLANET VAPOR INC #200    130020    VD84000000002699 N  599977384620                            000000000+                F DF 10433                     000000000  Y000000000 338   0000000000000.00 0000000.00   0000000.00                             000000000000000                                                                                                                                                     01418 A000000000000 0000000000000.23     00050 02200                  
02601870537880111DT67590675900000007088800101800000010180010124001193082900010800203032320230000000431808223000000000089741440066XXXXXX1416       VS11    0001111   NYV1 A E583082799035769N840000000004318ZVGW00    07DNPLANET VAPOR INC #200    02841D    VS84000000004318 N  599977384620                            000000000+                D CD 12113                     000000000  N000000000 499   0000000000000.00 0000000.00   0000000.00                             000000000000000                                                                                                                                                     01418 A000000000000 0000000000001.01     02100 01000                  
02601880537880112DT67590675900000007088800101800000010180010124001193082900010800211032320230000000396908223000000000089741400022XXXXXX1962       VS11    0001111   NYV1 A E583082812949651N840000000003969G7Q600    07DNPLANET VAPOR INC #200    738775    VD84000000003969 N  599977384620                            000000000+                F DF 10433                     000000000  Y000000000 338   0000000000000.00 0000000.00   0000000.00                             000000000000000                                                                                                                                                     01418 A000000000000 0000000000000.24     00050 02200                  
02601890537880113DT67590675900000007088800101800000010180010124001193082900010800229032320230000000194308223000000000089741421075XXXXXX0451       VS11    0001111   NYV1 A E463082819046762N840000000001943CFCW00    07DNPLANET VAPOR INC #200    084504    VD84000000001943 N  599977384620                            000000000+                F DF 00381                     000000000  N000000000       0000000000000.00 0000000.00   0000000.00                             000000000000000                                                                                                                                                     01418 A000000000000 0000000000000.31     00800 01500                  
02601900537880114DT67590675900000007088800101800000010180010124001193082900010800237032320230000000215908223000000000089741400344XXXXXX0652       VS11    0001111   NYV1 A E383082819584566N8400000000021596LJ400    05DNPLANET VAPOR INC #200    06768B    VS84000000002159 N  599977384620                            000000000+                B CB 12111                     000000000  N000000000 495   0000000000000.00 0000000.00   0000000.00                             000000000000000                                                                                                                                                     01418 A000000000000 0000000000000.46     01650 01000                  
02601910537880115DT67590675900000007088800101800000010180010124001193082900010800245032320230000000475008223000000000089741434256XXXXXX5594       VS11    0001111   NYV1 A E463082825218727N840000000004750NQLD00    05DNPLANET VAPOR INC #200    059948    VD84000000004750 N  599977384620                            000000000+                F DF 10433                     000000000  Y000000000 338   0000000000000.00 0000000.00   0000000.00                             000000000000000                                                                                                                                                     01418 A000000000000 0000000000000.24     00050 02200                  
02601920537880116DT67590675900000007088800101800000010180010124001193082900010800252032320230000000367108223000000000089741423223XXXXXX6702       VS11    0001111   NYV1 A E463082840892947N840000000003671RPMV00    05DNPLANET VAPOR INC #200    064157    VD84000000003671 N  599977384620                            000000000+                F DF 00381                     000000000  N000000000       0000000000000.00 0000000.00   0000000.00                             000000000000000                                                                                                                                                     01418 A000000000000 0000000000000.44     00800 01500                  
02601930537880117DT67590675900000007088800101800000010180010124001193082900010800260032320230000000458908223000000000089741459954XXXXXX8147       VS11    0001111   NYV1 A E303082841575048N840000000004589BV4J00    07DNPLANET VAPOR INC #200    H86908    VD84000000004589 N  599977384620                            000000000+                F DF 10433                     000000000  Y000000000 338   0000000000000.00 0000000.00   0000000.00                             000000000000000                                                                                                                                                     01418 A000000000000 0000000000000.24     00050 02200                  
02601940537880118DT67590675900000007088800101800000010180010124001193082900010800278032320230000000410208223000000000089741459954XXXXXX8147       VS11    0001111   NYV1 A E303082858005284N840000000004102ZPMJ00    05DNPLANET VAPOR INC #200    H89144    VD84000000004102 N  599977384620                            000000000+                F DF 10433                     000000000  Y000000000 338   0000000000000.00 0000000.00   0000000.00                             000000000000000                                                                                                                                                     01418 A000000000000 0000000000000.24     00050 02200                  
02601950537880119DT67590675900000007088800101800000010180010124001193082900010800286032320230000000431808223000000000089741448261XXXXXX9682       VS11    0001111   NYV1 A E303082863046302N840000000004318C86F00    05DNPLANET VAPOR INC #200    666170    VD84000000004318 N  599977384620                            000000000+                F DF 10433                     000000000  Y000000000 338   0000000000000.00 0000000.00   0000000.00                             000000000000000                                                                                                                                                     01418 A000000000000 0000000000000.24     00050 02200                  
02601960537880120DT67590675900000007088800101800000010180010124001193082900010800294032320230000000097008223000000000089741408138XXXXXX9539       VK04VS111111111   NYV1 A E303083000418776N840000000000970ZP3V00    07DNPLANET VAPOR INC #200    635941    VD84000000000970 N  599977384620                            000000000+                F PF 08165                     000000000  N000000000       0000000000000.00 0000000.00   0000000.00                             000000000000000                                                                                                                                                     01418 F000000000000 0000000000000.21     01600 00500                  
02601970537880121BH6759067590000001090080010180000090170323202308223000000000089336    0000090001080024N8001016759C03242023                                                                                                                                                                                                                                                                                                                                                                                                                                                                                                                                                                                                 
02601980537880122DT67590675900000010900800101800000010180010124001193082900010800013032320230000000323808223000000000089336410702XXXXXX8868       VS11    0001111   NYV1 A E383082507631781N84000000000323855SF00    05DNPLANET VAPOR INC #700    094956    VD84000000003238 N  599977384978                            000000000+                F DF 00381                     000000000  N000000000       0000000000000.00 0000000.00   0000000.00                             000000000000000                                                                                                                                                     01418 A000000000000 0000000000000.41     00800 01500                  
02601990537880123DT67590675900000010900800101800000010180010124001193082900010800021032320230000000050808223000000000089336438419XXXXXX6531       VK04VS111111111   NYV1 A E303082512180957N840000000000508G9GK00    07DNPLANET VAPOR INC #700    001339    VD84000000000508 N  599977384978                            000000000+                F DF 00451                     000000000  N000000000 214   0000000000000.00 0000000.00   0000000.00                             000000000000000                                                                                                                                                     01418 F000000000000 0000000000000.12     01550 00400                  
02602000537880124DT67590675900000010900800101800000010180010124001193082900010800039032320230000000470608223000000000089336440066XXXXXX1491       VS11    0001111   NYV1 A E583082520638086N840000000004706GZ6300    07DNPLANET VAPOR INC #700    01391C    VS84000000004706 N  599977384978                            000000000+                C CC 12112                     000000000  N000000000 497   0000000000000.00 0000000.00   0000000.00                             000000000000000                                                                                                                                                     01418 A000000000000 0000000000000.88     01650 01000                  
02602010537880125DT67590675900000010900800101800000010180010177287283082900010800049032320230000000844908223000000000089336523957XXXXXX4889       MS02WI09          NY 1 0 AMDJOHF4XY0323  N840000000008449          05DNPLANET VAPOR INC #700    657990    MD84000000008449 N  599977384978                            000000000+M10101C5434C    MDJ  00402                     000000000  N                0000000000000.00 0000000.00   0000000.00                             000000000000000                                                                                                                                                   B101418  000000000000 0000000000001.04     01050 01500                  
02602020537880126DT67590675900000010900800101800000010180010124001193082900010800054032320230000000187108223000000000089336473703XXXXXX7827       VS11    0001111   NYV1 A E303082587495179N840000000001871TQS200    07DNPLANET VAPOR INC #700    082854    VD84000000001871 N  599977384978                            000000000+                F DF 10433                     000000000  Y000000000 338   0000000000000.00 0000000.00   0000000.00                             000000000000000                                                                                                                                                     01418 A000000000000 0000000000000.23     00050 02200                  
02602030537880127DT67590675900000010900800101800000010180010124001193082900010800062032320230000000213908223000000000089336430602XXXXXX3486       VS11    0001111   NYV1 A E463082592543080N840000000002139824K00    07DNPLANET VAPOR INC #700    582011    VD84000000002139 N  599977384978                            000000000+                F DF 00381                     000000000  N000000000       0000000000000.00 0000000.00   0000000.00                             000000000000000                                                                                                                                                     01418 A000000000000 0000000000000.32     00800 01500                  
02602040537880128DT67590675900000010900800101800000010180010124001193082900010800070032320230000000470608223000000000089336473703XXXXXX0134       VS11    0001111   NYV1 A E583082626018824N840000000004706KXQ900    07DNPLANET VAPOR INC #700    042462    VD84000000004706 N  599977384978                            000000000+                F DF 10433                     000000000  Y000000000 338   0000000000000.00 0000000.00   0000000.00                             000000000000000                                                                                                                                                     01418 A000000000000 0000000000000.24     00050 02200                  
02602050537880129DT67590675900000010900800101800000010180010124001193082900010800088032320230000000385008223000000000089336430602XXXXXX6737       VS11    0001111   NYV1 A E303082628896331N840000000003850C3QT00    07DNPLANET VAPOR INC #700    592199    VD84000000003850 N  599977384978                            000000000+                F DF 00381                     000000000  N000000000       0000000000000.00 0000000.00   0000000.00                             000000000000000                                                                                                                                                     01418 A000000000000 0000000000000.46     00800 01500                  
02602060537880130DT67590675900000010900800101800000010180010124001193082900010800096032320230000000288708223000000000089336410702XXXXXX0809       VS11    0001111   NYV1 A E463082668108949N840000000002887XD5400    05DNPLANET VAPOR INC #700    135335    VD84000000002887 N  599977384978                            000000000+                F DF 00381                     000000000  N000000000       0000000000000.00 0000000.00   0000000.00                             000000000000000                                                                                                                                                     01418 A000000000000 0000000000000.38     00800 01500                  
02602070537880131DT67590675900000010900800101800000010180010124001193082900010800104032320230000000235308223000000000089336461675XXXXXX5294       VS11    0001111   NYV1 A E383082716623683N840000000002353RNWB00    05DNPLANET VAPOR INC #700    711000    VD84000000002353 N  599977384978                            000000000+                F DF 00381                     000000000  N000000000       0000000000000.00 0000000.00   0000000.00                             000000000000000                                                                                                                                                     01418 A000000000000 0000000000000.34     00800 01500                  
02602080537880132DT67590675900000010900800101800000010180010124001193082900010800112032320230000000213908223000000000089336440393XXXXXX2822       VS11    0001111   NYV1 A E383082732034517N840000000002139DCKT00    07DNPLANET VAPOR INC #700    905228    VD84000000002139 N  599977384978                            000000000+                F PF 08170                     000000000  N000000000       0000000000000.00 0000000.00   0000000.00                             000000000000000                                                                                                                                                     01418 A000000000000 0000000000000.40     01150 01500                  
02602090537880133DT67590675900000010900800101800000010180010124001193082900010800120032320230000000149708223000000000089336423223XXXXXX5546       VK04VS111111111   NYV1 A E303082734550542N84000000000149744GJ00    05DNPLANET VAPOR INC #700    050312    VD84000000001497 N  599977384978                            000000000+                F DF 00451                     000000000  N000000000 214   0000000000000.00 0000000.00   0000000.00                             000000000000000                                                                                                                                                     01418 F000000000000 0000000000000.27     01550 00400                  
