08987320656135491AD675906759000000198288001098000009077900011931190000002487005252023NYY14523YC6759800109052820232023130004908                                                                                                                                                                                                                                                                                                                                                                                                                                                                                                                                                                                              
08987330656135497AD675906759000000198288001098000009077900011931200000000327405252023NYY14523YC6759800109052820232023130004909                                                                                                                                                                                                                                                                                                                                                                                                                                                                                                                                                                                              
08987340656135503AD675906759000000198288001098000009077900011930490000001987005252023NYY14523YC6759800109052820232023130004912                                                                                                                                                                                                                                                                                                                                                                                                                                                                                                                                                                                              
08987350656135509AD675906759000000198288001098000009077900010203710000002487005252023NYY14523YC6759800109052820232023130004836                                                                                                                                                                                                                                                                                                                                                                                                                                                                                                                                                                                              
08987360656135515AD675906759000000151648008888000009077900015215540000001637105252023NYY14523YC6759800888052820232023144004478                                                                                                                                                                                                                                                                                                                                                                                                                                                                                                                                                                                              
08987370656135518AD675906759000000198288001098000009071900013464770000000327405252023NYY14523ND6759800109052820232023145024348                                                                                                                                                                                                                                                                                                                                                                                                                                                                                                                                                                                              
08987380656135521AD675906759000000268498001258000009071900011834840000001713605252023NYY14523ND6759800125052820232023145024349                                                                                                                                                                                                                                                                                                                                                                                                                                                                                                                                                                                              
08987390656135524AD675906759000000176738001068000009071900013613960000002178905252023NYY14523ND6759800106052820232023145024350                                                                                                                                                                                                                                                                                                                                                                                                                                                                                                                                                                                              
08987400656135527AD675906759000000151648008888000009071900018575690000001987005252023NYY14523ND6759800888052820232023145026981                                                                                                                                                                                                                                                                                                                                                                                                                                                                                                                                                                                              
08987410656135530AD675906759000000268498001258000009071900013005000000001977005252023NYY14523ND6759800125052820232023145024352                                                                                                                                                                                                                                                                                                                                                                                                                                                                                                                                                                                              
08987420656135533AD675906759000000151648008888000009077900014162700000001987005252023NYY14523YC6759800888052820232023145024356                                                                                                                                                                                                                                                                                                                                                                                                                                                                                                                                                                                              
08987430656135536AD675906759000000142748001028000009071900014641470000001400805252023NYY14523ND6759800102052820232023145024353                                                                                                                                                                                                                                                                                                                                                                                                                                                                                                                                                                                              
08987440656135539AD675906759000000151648008888000009071900017266640000001499005252023NYY14523ND6759800888052820232023145024354                                                                                                                                                                                                                                                                                                                                                                                                                                                                                                                                                                                              
08987450656135542AD675906759000000133008001028000009071900015257500000002131105252023NYY14523ND6759800102052820232023145024355                                                                                                                                                                                                                                                                                                                                                                                                                                                                                                                                                                                              
08987460656135545AD675906759000000268498001258000009071900012760740000001977005252023NYY14523ND6759800125052820232023145024357                                                                                                                                                                                                                                                                                                                                                                                                                                                                                                                                                                                              
08987470656135548AD675906759000000268498001258000009071900012765430000000979805252023NYY14523ND6759800125052820232023145024358                                                                                                                                                                                                                                                                                                                                                                                                                                                                                                                                                                                              
08987480656461003AD675906759000000151648008888000009071231430495290000001243505252023NYY14523ND6759800888052820232023143049529                                                                                                                                                                                                                                                                                                                                                                                                                                                                                                                                                                                              
08987490656461006AD675906759000000151648008888000009071231450309780000001394805252023NYY14523ND6759800888052820232023145030978                                                                                                                                                                                                                                                                                                                                                                                                                                                                                                                                                                                              
08987500658570002BH6759067590000003284780013580000090170526202314623000000000014719    0000090001040007N8001356759C05282023004                                                                                                                                                                                                                                                                                                                                                                                                                                                                                                                                                                                              
08987510658570003DT67590675900000032847800135800000033080013576759003146900010400011052520230000000086514623000000000014719420413XXXXXX0507                         NY 2 0 N               N840000000000865      IL  05DNDAYDREAMS SMOKE WORLD LLC237811    DB84000000000865 N  599378480426                            000000000+                     09573                                N          121   0000000000000.00 0000000.00   0000000.00                             000000000000000                                                                                                                                                     01418  000000000000 0000000000000.22     00800 00000                  
08987520658570001G2675906759000000328478001358000000330MCALLEN                  TX           5 D                00                                      NNNN                          000000000000                                                                   78480426                                                                                                                                                                                                                                                                                                                                                                                                                                               
08987530658570004DT67590675900000032847800135800000033080013576759003146900010400029052520230000000189814623000000000014719451727XXXXXX5145                         NY 2 0 N               N840000000001898      IL  07DNDAYDREAMS SMOKE WORLD LLC103364    DB84000000001898 N  599378480426                            000000000+                     09580                                Y          342   0000000000000.00 0000000.00   0000000.00                             000000000000000                                                                                                                                                     01418  000000000000 0000000000000.23     00050 00000                  
08987540658570001G2675906759000000328478001358000000330MCALLEN                  TX           5 D                00                                      NNNN                          000000000000                                                                   78480426                                                                                                                                                                                                                                                                                                                                                                                                                                               
08987550658570005DT67590675900000032847800135800000033080013576759003146900010400037052520230000000010714623000000000014719408138XXXXXX3898                         NY 2 0 N               N840000000000107      IL  07DNDAYDREAMS SMOKE WORLD LLC723393    DB84000000000107 N  599378480426                            000000000+                     09576                                N          346   0000000000000.00 0000000.00   0000000.00                             000000000000000                                                                                                                                                     01418  000000000000 0000000000000.16     01150 00000                  
08987560658570001G2675906759000000328478001358000000330MCALLEN                  TX           5 P                00                                      NNNN                          000000000000                                                                   78480426                                                                                                                                                                                                                                                                                                                                                                                                                                               
08987570658570006DT67590675900000032847800135800000033080013576759003146900010400045052520230000000763514623000000000014719420590XXXXXX4070                         NY 2 0 N               N840000000007635      IL  07DNDAYDREAMS SMOKE WORLD LLC323628    DB84000000007635 N  599378480426                            000000000+                     09580                                Y          342   0000000000000.00 0000000.00   0000000.00                             000000000000000                                                                                                                                                     01418  000000000000 0000000000000.26     00050 00000                  
08987580658570001G2675906759000000328478001358000000330MCALLEN                  TX           5 D                00                                      NNNN                          000000000000                                                                   78480426                                                                                                                                                                                                                                                                                                                                                                                                                                               
08987590658570007DT67590675900000032847800135800000033080013576759003146900010400052052520230000000021414623000000000014719440393XXXXXX2675                         NY 2 0 N               N840000000000214      IL  05DNDAYDREAMS SMOKE WORLD LLC761555    DB84000000000214 N  599378480426                            000000000+                     09576                                N          346   0000000000000.00 0000000.00   0000000.00                             000000000000000                                                                                                                                                     01418  000000000000 0000000000000.17     01150 00000                  
08987600658570001G2675906759000000328478001358000000330MCALLEN                  TX           5 P                00                                      NNNN                          000000000000                                                                   78480426                                                                                                                                                                                                                                                                                                                                                                                                                                               
08987610658570008DT67590675900000032847800135800000033080013576759003146900010400060052520230000000270514623000000000014719474472XXXXXX1564                         NY 2 0 N               N840000000002705      IL  05DNDAYDREAMS SMOKE WORLD LLC102338    DB84000000002705 N  599378480426                            000000000+                     09580                                Y          342   0000000000000.00 0000000.00   0000000.00                             000000000000000                                                                                                                                                     01418  000000000000 0000000000000.23     00050 00000                  
08987620658570001G2675906759000000328478001358000000330MCALLEN                  TX           5 D                00                                      NNNN                          000000000000                                                                   78480426                                                                                                                                                                                                                                                                                                                                                                                                                                               
08987630658570009DT67590675900000032847800135800000033080013576759003146900010400078052520230000000129514623000000000014719440393XXXXXX5038                         NY 2 0 N               N840000000001295      IL  05DNDAYDREAMS SMOKE WORLD LLC842389    DB84000000001295 N  599378480426                            000000000+                     09576                                N          346   0000000000000.00 0000000.00   0000000.00                             000000000000000                                                                                                                                                     01418  000000000000 0000000000000.30     01150 00000                  
08987640658570001G2675906759000000328478001358000000330MCALLEN                  TX           5 P                00                                      NNNN                          000000000000                                                                   78480426                                                                                                                                                                                                                                                                                                                                                                                                                                               
08987650658570010BH6759067590000003284780013580000090170526202314623000000000019175    0000090001090012N8001356759C05282023009                                                                                                                                                                                                                                                                                                                                                                                                                                                                                                                                                                                              
08987660658570011DT67590675900000032847800135800000010180013524001193146900010900049052520230000000108014623000000000019175474472XXXXXX4420       VK04VS111111111   NYV1 A E463145790906053N8400000000010808X4700    05DNDAYDREAMS SMOKE WORLD LLC175182    VD84000000001080 N  599378415303                            000000000+                F DF 10439                     000000000  Y000000000 331   0000000000000.00 0000000.00   0000000.00                             000000000000000                                                                                                                                                     01418 F000000000000 0000000000000.23     00050 02200                  
08987670658570001E167590675900000032847800135800000010100E0F8C8007C 00000000000.004040404040404040404040404040404040404040404040404006021203A08000000000000000000000404040404040404040404040404040  0000084018008000008000230525E30E50C52786D28FAB827B0E404040400840A000000003101000000000000000000010D050300080000020200000000000004040405E40404040 000000010.80 000000000.005E00000000000000000000    80                                                                                                                                                                                                                                                                                                                  
08987680658570002G2675906759000000328478001358000000101MCALLEN                  TX           5 D                00                                      NNNN00 N 00                   000000000000                                                                   78415303                                                                                                                                                                                                                                                                                                                                                                                                                                               
08987690658570012DT67590675900000032847800135800000010180013524001193146900010900130052620230000000043214623000000000019175467403XXXXXX7989       VK04VS111111111   NYV1 A E303146289169669N840000000000432PBKZ00    07DNDAYDREAMS SMOKE WORLD LLC047391    VS84000000000432 N  599378415303                            000000000+                A CA 12110                     000000000  N000000000 493   0000000000000.00 0000000.00   0000000.00                             000000000000000                                                                                                                                                     01418 F000000000000 0000000000000.17     01510 01000                  
08987700658570001E1675906759000000328478001358000000101004040400069 00000000000.00404040404040404040404040404040404040404040404040401F43FE51200000000000000000033453000000000000000000000000000000  0000084000400000000000230526A365347FECD4BBBE46E020B7404040400840A0000000031010000000000000000000404040404040404040404040404040404040404040404040 000000004.32 000000000.004040400000000000000000    80                                                                                                                                                                                                                                                                                                                  
08987710658570002G2675906759000000328478001358000000101MCALLEN                  TX           5 C                00                                      NNNN00 N 00                   000000000000                                                                   78415303                                                                                                                                                                                                                                                                                                                                                                                                                                               
08987720658570013DT67590675900000032847800135800000033080013576759003146900010900010052520230000000099914623000000000019175492125XXXXXX6734                         NY 2 0 N               N840000000000999      IL  07DNDAYDREAMS SMOKE WORLD LLC069670    DB84000000000999 N  599378415303                            000000000+                     09580                                Y          342   0000000000000.00 0000000.00   0000000.00                             000000000000000                                                                                                                                                     01418  000000000000 0000000000000.22     00050 00000                  
08987730658570001G2675906759000000328478001358000000330MCALLEN                  TX           5 D                00                                      NNNN                          000000000000                                                                   78415303                                                                                                                                                                                                                                                                                                                                                                                                                                               
08987740658570014DT67590675900000032847800135800000033080013576759003146900010900028052520230000000357114623000000000019175498432XXXXXX5390                         NY 2 0 N               N840000000003571      IL  07DNDAYDREAMS SMOKE WORLD LLC007172    DB84000000003571 N  599378415303                            000000000+                     09580                                Y          342   0000000000000.00 0000000.00   0000000.00                             000000000000000                                                                                                                                                     01418  000000000000 0000000000000.24     00050 00000                  
08987750658570001G2675906759000000328478001358000000330MCALLEN                  TX           5 D                00                                      NNNN                          000000000000                                                                   78415303                                                                                                                                                                                                                                                                                                                                                                                                                                               
08987760658570015DT67590675900000032847800135800000033080013576759003146900010900036052520230000000202114623000000000019175414446XXXXXX5931                         NY 2 0 N               N840000000002021      IL  05DNDAYDREAMS SMOKE WORLD LLC445163    DB84000000002021 N  599378415303                            000000000+                     09590                                N          279   0000000000000.00 0000000.00   0000000.00                             000000000000000                                                                                                                                                     01418  000000000000 0000000000000.31     00800 00000                  
08987770658570001G2675906759000000328478001358000000330MCALLEN                  TX           5 D                00                                      NNNN                          000000000000                                                                   78415303                                                                                                                                                                                                                                                                                                                                                                                                                                               
08987780658570016DT67590675900000032847800135800000033080013576759003146900010900051052520230000000270514623000000000019175527515XXXXXX7619                         NY41 0 N               N840000000002705      ME  07DNDAYDREAMS SMOKE WORLD LLC181257    DB84000000002705 N  599378415303                            000000000+                     09601                                1          MA1   0000000000000.00 0000000.00   0000000.00                             000000000000000                                                                                                                                                     01418  000000000000 0000000000000.23     00050 00000                  
08987790658570001G2675906759000000328478001358000000330MCALLEN                  TX           5 D                00                                      NNNN                          000000000000                                                                   78415303                                                                                                                                                                                                                                                                                                                                                                                                                                               
08987800658570017DT67590675900000032847800135800000033080013576759003146900010900069052520230000000357114623000000000019175445026XXXXXX0443                         NY 2 0 N               N840000000003571      IL  07DNDAYDREAMS SMOKE WORLD LLC447793    DB84000000003571 N  599378415303                            000000000+                     09580                                Y          342   0000000000000.00 0000000.00   0000000.00                             000000000000000                                                                                                                                                     01418  000000000000 0000000000000.24     00050 00000                  
08987810658570001G2675906759000000328478001358000000330MCALLEN                  TX           5 D                00                                      NNNN                          000000000000                                                                   78415303                                                                                                                                                                                                                                                                                                                                                                                                                                               
08987820658570018DT67590675900000032847800135800000033080013576759003146900010900077052520230000000111314623000000000019175527505XXXXXX2086                         NY42 0 N               N840000000001113      ME  05DNDAYDREAMS SMOKE WORLD LLC997952    DB84000000001113 N  599378415303                            000000000+                     09601                                1          MA1   0000000000000.00 0000000.00   0000000.00                             000000000000000                                                                                                                                                     01418  000000000000 0000000000000.23     00050 00000                  
08987830658570001G2675906759000000328478001358000000330MCALLEN                  TX           5                  00                                      NNNN                          000000000000                                                                   78415303                                                                                                                                                                                                                                                                                                                                                                                                                                               
08987840658570019DT67590675900000032847800135800000033080013576759003146900010900085052520230000000032414623000000000019175461046XXXXXX1437                         NY 2 0 N               N840000000000324      IL  07DNDAYDREAMS SMOKE WORLD LLC830861    DB84000000000324 N  599378415303                            000000000+                     09580                                Y          342   0000000000000.00 0000000.00   0000000.00                             000000000000000                                                                                                                                                     01418  000000000000 0000000000000.22     00050 00000                  
08987850658570001G2675906759000000328478001358000000330MCALLEN                  TX           5 D                00                                      NNNN                          000000000000                                                                   78415303                                                                                                                                                                                                                                                                                                                                                                                                                                               
08987860658570020DT67590675900000032847800135800000033080013576759003146900010900093052520230000000086514623000000000019175440393XXXXXX0310                         NY 2 0 N               N840000000000865      IL  07DNDAYDREAMS SMOKE WORLD LLC069853    DB84000000000865 N  599378415303                            000000000+                     09576                                N          346   0000000000000.00 0000000.00   0000000.00                             000000000000000                                                                                                                                                     01418  000000000000 0000000000000.25     01150 00000                  
08987870658570001G2675906759000000328478001358000000330MCALLEN                  TX           5 P                00                                      NNNN                          000000000000                                                                   78415303                                                                                                                                                                                                                                                                                                                                                                                                                                               
08987880658570021DT67590675900000032847800135800000033080013576759003146900010900101052520230000000062414623000000000019175434258XXXXXX2892                         NY 2 0 N               N840000000000624      IL  05DNDAYDREAMS SMOKE WORLD LLC051384    DB84000000000624 N  599378415303                            000000000+                     09580                                Y          342   0000000000000.00 0000000.00   0000000.00                             000000000000000                                                                                                                                                     01418  000000000000 0000000000000.22     00050 00000                  
08987890658570001G2675906759000000328478001358000000330MCALLEN                  TX           5 D                00                                      NNNN                          000000000000                                                                   78415303                                                                                                                                                                                                                                                                                                                                                                                                                                               
08987900658570022DT67590675900000032847800135800000033080013576759003146900010900119052520230000000014114623000000000019175434258XXXXXX1837                         NY 2 0 N               N840000000000141      IL  05DNDAYDREAMS SMOKE WORLD LLC055949    DB84000000000141 N  599378415303                            000000000+                     09580                                Y          342   0000000000000.00 0000000.00   0000000.00                             000000000000000                                                                                                                                                     01418  000000000000 0000000000000.22     00050 00000                  
08987910658570001G2675906759000000328478001358000000330MCALLEN                  TX           5 D                00                                      NNNN                          000000000000                                                                   78415303                                                                                                                                                                                                                                                                                                                                                                                                                                               
08987920658570023DT67590675900000032847800135800000033080013576759003146900010900127052620230000000172914623000000000019175467010XXXXXX7609                         NY 2 0 N               N840000000001729      IL  05DNDAYDREAMS SMOKE WORLD LLC666956    DB84000000001729 N  599378415303                            000000000+                     09580                                Y          342   0000000000000.00 0000000.00   0000000.00                             000000000000000                                                                                                                                                     01418  000000000000 0000000000000.23     00050 00000                  
08987930658570001G2675906759000000328478001358000000330MCALLEN                  TX           5 D                00                                      NNNN                          000000000000                                                                   78415303                                                                                                                                                                                                                                                                                                                                                                                                                                               
08987940658570024BH6759067590000003284780013580000090170526202314623000000000008605    0000090001040006N8001356759C05282023004                                                                                                                                                                                                                                                                                                                                                                                                                                                                                                                                                                                              
08987950658570025DT67590675900000032847800135800000010180013524001193146900010400016052520230000000487014623000000000008605418914XXXXXX0838               0001111   NYV1 B E383145692351358N840000000004870J5C900    05DNDAYDREAMS SMOKE WORLD LLC000049    VD84000000004870FN  599378480415                            000000000+                F DF 00022                     000000000  N000000000       0000000000000.00 0000000.0000 0000000.49D                            000000000000000                                                                                                                                                     01418 A000000000000 0000000000000.54     01100 00000                  
08987960658570001E167590675900000032847800135800000010100E0F8C80044 00000000000.004040404040404040404040404040404040404040404040404006011203A4A062000000000000000000404040404040404040404040404040  000108403800008000800023052574F84186EDAB7D9C9F580347404040400840A00000000310100000000000000000002BDF9DE70080000000000000000000004040404440404040 000000048.70 000000000.004403020000000000000000    80                                                                                                                                                                                                                                                                                                                  
08987970658570002G2675906759000000328478001358000000101MCALLEN                  TX           5 D                00                                      NNNN00 N 00                   000000000000                                                                   78480415                                                                                                                                                                                                                                                                                                                                                                                                                                               
08987980658570026DT67590675900000032847800135800000033080013576759003146900010400029052520230000000024714623000000000008605451440XXXXXX0849                         NY 2 0 N               N840000000000247      IL  05DNDAYDREAMS SMOKE WORLD LLC744722    DB84000000000247 N  599378480415                            000000000+                     09576                                N          346   0000000000000.00 0000000.00   0000000.00                             000000000000000                                                                                                                                                     01418  000000000000 0000000000000.18     01150 00000                  
08987990658570001G2675906759000000328478001358000000330MCALLEN                  TX           5 P                00                                      NNNN                          000000000000                                                                   78480415                                                                                                                                                                                                                                                                                                                                                                                                                                               
08988000658570027DT67590675900000032847800135800000033080013576759003146900010400037052520230000000054114623000000000008605440393XXXXXX3141                         NY 2 0 N               N840000000000541      IL  05DNDAYDREAMS SMOKE WORLD LLC095685    DB84000000000541 N  599378480415                            000000000+                     09576                                N          346   0000000000000.00 0000000.00   0000000.00                             000000000000000                                                                                                                                                     01418  000000000000 0000000000000.21     01150 00000                  
08988010658570001G2675906759000000328478001358000000330MCALLEN                  TX           5 P                00                                      NNNN                          000000000000                                                                   78480415                                                                                                                                                                                                                                                                                                                                                                                                                                               
08988020658570028DT67590675900000032847800135800000033080013576759003146900010400045052520230000000100014623000000000008605440393XXXXXX2951                         NY 2 0 N               N840000000001000      IL  05DNDAYDREAMS SMOKE WORLD LLC054324    DB84000000001000 N  599378480415                            000000000+                     09576                                N          346   0000000000000.00 0000000.00   0000000.00                             000000000000000                                                                                                                                                     01418  000000000000 0000000000000.27     01150 00000                  
08988030658570001G2675906759000000328478001358000000330MCALLEN                  TX           5 P                00                                      NNNN                          000000000000                                                                   78480415                                                                                                                                                                                                                                                                                                                                                                                                                                               
08988040658570029DT67590675900000032847800135800000033080013576759003146900010400052052520230000000032414623000000000008605440393XXXXXX8883                         NY 2 0 N               N840000000000324      IL  05DNDAYDREAMS SMOKE WORLD LLC184994    DB84000000000324 N  599378480415                            000000000+                     09576                                N          346   0000000000000.00 0000000.00   0000000.00                             000000000000000                                                                                                                                                     01418  000000000000 0000000000000.19     01150 00000                  
08988050658570001G2675906759000000328478001358000000330MCALLEN                  TX           5 P                00                                      NNNN                          000000000000                                                                   78480415                                                                                                                                                                                                                                                                                                                                                                                                                                               
08988060658570030DT67590675900000032847800135800000033080013576759003146900010400060052620230000000162314623000000000008605514441XXXXXX0170                         NY42 0 N               N840000000001623      ME  05DNDAYDREAMS SMOKE WORLD LLC652598    DB84000000001623 N  599378480415                            000000000+                     09597                                N                0000000000000.00 0000000.00   0000000.00                             000000000000000                                                                                                                                                     01418  000000000000 0000000000000.30     00900 00000                  
08988070658570001G2675906759000000328478001358000000330MCALLEN                  TX           5 D                00                                      NNNN                          000000000000                                                                   78480415                                                                                                                                                                                                                                                                                                                                                                                                                                               
08988080658570031BH6759067590000000288180088880000090170526202314623000000000069718    0000090001240013N8008886759C05282023124                                                                                                                                                                                                                                                                                                                                                                                                                                                                                                                                                                                              
08988090658570032DT67590675900000002881800888800000010180088877287283146900012400016052620230000000548814623000000000069718542432XXXXXX6544       MS02WI09          NY 2 0 AMDJN83OCH0526  N840000000005488          05DNHAPPY HIPPIE             152123    MD84000000005488 N  549976487134                            000000000+M10101C1334C    MDJ  10815                     000000000  1                0000000000000.00 0000000.00   0000000.00                             000000000000000                                                                                                                                                   B101418  000000000000 0000000000000.25     00050 02200                  
08988100658570001E167590675900000002881800888800000010100E0F8C80814 00000000000.00404040404040404040404040404040404040404040404040400110A04001220000000000000000000000FF00000000000000000000000000  00000840390000000480002305265363EEC6BE4C65FD8E3D5BB5404040400840A0000000041010000000000000000000EFFE43046F0F866600120000000000004040400240404040 000000054.88 000000000.000203000000000000000000    80                                                                                                                                                                                                                                                                                                                  
08988110658570002G2675906759000000028818008888000000101SEVIERVILLE              TN           5 J                                                        NNNN              000000000000000000000000                        7                                          76487134                                                                                                                                                                                                                                                                                                                                                                                                                                               
08988120658570033DT67590675900000002881800888800000010180088824001193146900012400022052620230000000688014623000000000069718419090XXXXXX6989       VS11    0001111   NYV1 A E463146509985737N840000000006880MG5700    05DNHAPPY HIPPIE             474661    VD84000000006880 N  549976487134                            000000000+                F DF 00381                     000000000  N000000000       0000000000000.00 0000000.00   0000000.00                             000000000000000                                                                                                                                                     01418 A000000000000 0000000000000.70     00800 01500                  
08988130658570001E167590675900000002881800888800000010100E0F8C80027 00000000000.004040404040404040404040404040404040404040404040404006011203A02000000000000000000000404040404040404040404040404040  00010840180080800080002305265874E32AB882C980299A1B02404040400840A00000000310100000000000000000002F4FDAA60080000000000000000000004040401E40404040 000000068.80 000000000.001E00000000000000000000    80                                                                                                                                                                                                                                                                                                                  
08988140658570002G2675906759000000028818008888000000101SEVIERVILLE              TN           5 D                00                                      NNNN00 N 00                   000000000000                                                                   76487134                                                                                                                                                                                                                                                                                                                                                                                                                                               
08988150658570034DT67590675900000002881800888800000010180088824001193146900012400030052620230000000395014623000000000069718443264XXXXXX4743       VS11    0001111   NYV1 A E303146510968951N8400000000039504MZS00    05DNHAPPY HIPPIE             000512    VD84000000003950 N  549976487134                            000000000+                F DF 10433                     000000000  Y000000000 338   0000000000000.00 0000000.00   0000000.00                             000000000000000                                                                                                                                                     01418 A000000000000 0000000000000.24     00050 02200                  
08988160658570001E167590675900000002881800888800000010100E0F8C800C4 00000000000.004040404040404040404040404040404040404040404040404006011203A08000000000000000000000404040404040404040404040404040  0000084018008080008000230526228568795FBD3D8E9038E57D404040400840A0000000031010000000000000000000BF704AE60080000000000000000000004040401E40404040 000000039.50 000000000.001E00000000000000000000    80                                                                                                                                                                                                                                                                                                                  
08988170658570002G2675906759000000028818008888000000101SEVIERVILLE              TN           5 D                00                                      NNNN00 N 00                   000000000000                                                                   76487134                                                                                                                                                                                                                                                                                                                                                                                                                                               
08988180658570035DT67590675900000002881800888800000010180088824001193146900012400048052620230000000690014623000000000069718473336XXXXXX5051       VS11    0001111   NYV1 A E463146517240032N8400000000069004C2G00    05DNHAPPY HIPPIE             082204    VD84000000006900 N  549976487134                            000000000+                F DF 00381                     000000000  N000000000       0000000000000.00 0000000.00   0000000.00                             000000000000000                                                                                                                                                     01418 A000000000000 0000000000000.70     00800 01500                  
08988190658570001E167590675900000002881800888800000010100E0F8C80494 00000000000.004040404040404040404040404040404040404040404040404006011203A0A000000000000000000000404040404040404040404040404040  0000084018008080008000230526DABC8D4EE95DE5F14D9E1D3E404040400840A0000000031010000000000000000000404040404040404040404040404040404040401E40404040 000000069.00 000000000.001E00000000000000000000    80                                                                                                                                                                                                                                                                                                                  
08988200658570002G2675906759000000028818008888000000101SEVIERVILLE              TN           5 D                00                                      NNNN00 N 00                   000000000000                                                                   76487134                                                                                                                                                                                                                                                                                                                                                                                                                                               
08988210658570036DT67590675900000002881800888800000010180088824001193146900012400055052620230000000932814623000000000069718426684XXXXXX1069       VS11    0001111   NYV1 A E583146580029415N840000000009328T2CT00    05DNHAPPY HIPPIE             09276C    VS84000000009328 N  549976487134                            000000000+                C CC 12112                     000000000  N000000000 497   0000000000000.00 0000000.00   0000000.00                             000000000000000                                                                                                                                                     01418 A000000000000 0000000000001.64     01650 01000                  
08988220658570001E167590675900000002881800888800000010100E0F8C8002E 00000000000.004040404040404040404040404040404040404040404040404006021203A02002000000000000000000404040404040404040404040404040  0005084038000080008000230526DE8C8C1490509C4E9DB71973404040400840A000000003101000000000000000000094EE13530082000000000000000000004040401E40404040 000000093.28 000000000.001E00000000000000000000    80                                                                                                                                                                                                                                                                                                                  
08988230658570002G2675906759000000028818008888000000101SEVIERVILLE              TN           5 C                00                                      NNNN00 Y 00                   000000000000                                                                   76487134                                                                                                                                                                                                                                                                                                                                                                                                                                               
08988240658570037DT67590675900000002881800888800000010180088824001193146900012400063052620230000000164514623000000000069718443041XXXXXX6624       VS11    0001111   NYV1 A E383146589496567N840000000001645TJKN00    05DNHAPPY HIPPIE             231439    VD84000000001645 N  549976487134                            000000000+                F DF 10433                     000000000  Y000000000 338   0000000000000.00 0000000.00   0000000.00                             000000000000000                                                                                                                                                     01418 A000000000000 0000000000000.23     00050 02200                  
08988250658570001E167590675900000002881800888800000010100E0F8C8006E 00000000000.004040404040404040404040404040404040404040404040404006011203A08000000000000000000000404040404040404040404040404040  00010840180080800080002305264A1C8983FA0D37C7AC21750C404040400840A0000000031010000000000000000000002CE7FD0082000000000000000000004040401E40404040 000000016.45 000000000.001E00000000000000000000    80                                                                                                                                                                                                                                                                                                                  
08988260658570002G2675906759000000028818008888000000101SEVIERVILLE              TN           5 D                00                                      NNNN00 N 00                   000000000000                                                                   76487134                                                                                                                                                                                                                                                                                                                                                                                                                                               
08988270658570038DT67590675900000002881800888800000010180088877287283146900012400073052620230000000658514623000000000069718510805XXXXXX7323       MS02WI09          NY 2 0 AMDJFH40NT0526  N840000000006585          05DNHAPPY HIPPIE             013152    MD84000000006585 N  549976487134                            000000000+M10101C1334C    MDJ  10815                     000000000  1                0000000000000.00 0000000.00   0000000.00                             000000000000000                                                                                                                                                   B101418  000000000000 0000000000000.25     00050 02200                  
08988280658570001E167590675900000002881800888800000010100E0F8C8006B 00000000000.00404040404040404040404040404040404040404040404040400110A04001220000000000000000000000FF00000000000000000000000000  0000084039000000048000230526AF06DBFA5489244DEBEDD66E404040400840A00000000410100000000000000000003ADC1015D46B561A031A0000000000004040400240404040 000000065.85 000000000.000203000000000000000000    80                                                                                                                                                                                                                                                                                                                  
08988290658570002G2675906759000000028818008888000000101SEVIERVILLE              TN           5 J                                                        NNNN              000000000000000000000000                        7                                          76487134                                                                                                                                                                                                                                                                                                                                                                                                                                               
08988300658570039DT67590675900000002881800888800000010180088824001193146900012400089052620230000000184114623000000000069718423223XXXXXX4850       VS11    0001111   NYV1 A E383146609401036N840000000001841P4TB00    05DNHAPPY HIPPIE             060790    VD84000000001841 N  549976487134                            000000000+                F DF 00381                     000000000  N000000000       0000000000000.00 0000000.00   0000000.00                             000000000000000                                                                                                                                                     01418 A000000000000 0000000000000.30     00800 01500                  
08988310658570001E167590675900000002881800888800000010100E0F8C800B0 00000000000.004040404040404040404040404040404040404040404040404006011203A0A000000000000000000000404040404040404040404040404040  000008401800808000800023052633607713F8556A1DDF2BDE3D404040400840A0000000031010000000000000000000D68C09550080000000000000000000004040401E40404040 000000018.41 000000000.001E00000000000000000000    80                                                                                                                                                                                                                                                                                                                  
08988320658570002G2675906759000000028818008888000000101SEVIERVILLE              TN           5 D                00                                      NNNN00 N 00                   000000000000                                                                   76487134                                                                                                                                                                                                                                                                                                                                                                                                                                               
08988330658570040DT67590675900000002881800888800000010180088877287283146900012400099052620230000000384014623000000000069718517805XXXXXX4102       MS02WI09          NY 1 0 AMPLGQPJNT0526  N840000000003840          05DNHAPPY HIPPIE             08875B    MC84000000003840 N  549976487134                            000000000+M10101C5434C    MPL  00364                     000000000  N                0000000000000.00 0000000.00   0000000.00                             000000000000000                                                                                                                                                   B101418  000000000000 0000000000000.73     01800 00400                  
08988340658570001E167590675900000002881800888800000010100E0F8C8008C 00000000000.00404040404040404040404040404040404040404040404040400110A0400122A000000000000000203202FF00000000000000000000000000  0001084039000000008000230526ECBFC7F8E2EC897D5EA06F35404040400840A000000004101000000000000000000049394B1BC28D548400120000000000004040401E40404040 000000038.40 000000000.001E03000000000000000000    80                                                                                                                                                                                                                                                                                                                  
08988350658570002G2675906759000000028818008888000000101SEVIERVILLE              TN           5 L                                                        NNNN              000000000000000000000000                        7                                          76487134                                                                                                                                                                                                                                                                                                                                                                                                                                               
08988360658570041DT67590675900000002881800888800000010180088824001193146900012400105052620230000000548514623000000000069718410039XXXXXX7389       VS11    0001111   NYV1 A E463146617389107N840000000005485Z6D400    07DNHAPPY HIPPIE             48216D    VS84000000005485 N  549976487134                            000000000+                D CD 12113                     000000000  N000000000 499   0000000000000.00 0000000.00   0000000.00                             000000000000000                                                                                                                                                     01418 A000000000000 0000000000001.25     02100 01000                  
08988370658570001E167590675900000002881800888800000010100E068C80540 00000000000.004040404040404040404040404040404040404040404040404006011203A00000000000000000000000404040404040404040404040404040  0001084000000000000000230526547BF60EFA64A3A3E4834AFB404040400840A0000000031010000000000000000000D601F62B0086000000000000000000004040404040404040 000000054.85 000000000.004040400000000000000000    80                                                                                                                                                                                                                                                                                                                  
08988380658570002G2675906759000000028818008888000000101SEVIERVILLE              TN           5 C                00                                      NNNN00 Y 00                   000000000000                                                                   76487134                                                                                                                                                                                                                                                                                                                                                                                                                                               
08988390658570042DT67590675900000002881800888800000010180088824001193146900012400113052620230000000395014623000000000069718415978XXXXXX7719       VS11    0001111   NYV1 A E583146619166424N840000000003950JX4800    05DNHAPPY HIPPIE             049195    VD84000000003950 N  549976487134                            000000000+                F DF 10433                     000000000  Y000000000 338   0000000000000.00 0000000.00   0000000.00                             000000000000000                                                                                                                                                     01418 A000000000000 0000000000000.24     00050 02200                  
08988400658570001E167590675900000002881800888800000010100E0F8C80011 00000000000.004040404040404040404040404040404040404040404040404006011203A02000000000000000000000404040404040404040404040404040  000008401800808000800023052669404CF01909E1F908497BBA404040400840A0000000031010000000000000000000D02A77464B241DC930300000000000004040401E40404040 000000039.50 000000000.001E00000000000000000000    80                                                                                                                                                                                                                                                                                                                  
08988410658570002G2675906759000000028818008888000000101SEVIERVILLE              TN           5 D                00                                      NNNN00 N 00                   000000000000                                                                   76487134                                                                                                                                                                                                                                                                                                                                                                                                                                               
08988420658570043DT67590675900000002881800888800000010180088824001193146900012400121052620230000000888814623000000000069718435546XXXXXX8931       VS11    0001111   NYV1 A E303146690225681N840000000008888GB9600    05DNHAPPY HIPPIE             144134    VD84000000008888 N  549976487134                            000000000+                F DF 10433                     000000000  Y000000000 338   0000000000000.00 0000000.00   0000000.00                             000000000000000                                                                                                                                                     01418 A000000000000 0000000000000.26     00050 02200                  
08988430658570001E167590675900000002881800888800000010100E0F8C80908 00000000000.004040404040404040404040404040404040404040404040404006011203A08000000000000000000000404040404040404040404040404040  00010840180080800080002305266A9E2043B0C5BC41665E8A46404040400840A00000000310100000000000000000008B44D7B10082000000000000000000004040401E40404040 000000088.88 000000000.001E00000000000000000000    80                                                                                                                                                                                                                                                                                                                  
08988440658570002G2675906759000000028818008888000000101SEVIERVILLE              TN           5 D                00                                      NNNN00 N 00                   000000000000                                                                   76487134                                                                                                                                                                                                                                                                                                                                                                                                                                               
08988450658570044DT67590675900000002881800888800000010180088824001193146900012400139052620230000000493814623000000000069718400022XXXXXX0750       VS11    0001111   NYV1 A E583146716080943N840000000004938QLVP00    05DNHAPPY HIPPIE             380013    VD84000000004938 N  549976487134                            000000000+                F DF 10433                     000000000  Y000000000 338   0000000000000.00 0000000.00   0000000.00                             000000000000000                                                                                                                                                     01418 A000000000000 0000000000000.24     00050 02200                  
08988460658570001E167590675900000002881800888800000010100E0F8C801B1 00000000000.004040404040404040404040404040404040404040404040404006021203A0A000000000000000000000404040404040404040404040404040  0000084018008080008000230526A466295FD070286D58E661B8404040400840A0000000031010000000000000000000404040404040404040404040404040404040401E40404040 000000049.38 000000000.001E00000000000000000000    80                                                                                                                                                                                                                                                                                                                  
08988470658570002G2675906759000000028818008888000000101SEVIERVILLE              TN           5 D                00                                      NNNN00 N 00                   000000000000                                                                   76487134                                                                                                                                                                                                                                                                                                                                                                                                                                               
08988480658570045BH6759067590000002962980013180000090170526202314623000000000100045    0000090001050012N8001316759C05282023005                                                                                                                                                                                                                                                                                                                                                                                                                                                                                                                                                                                              
08988490658570046DT67590675900000029629800131800000010180013124001193146900010500013052620230000000428014623000000000100045473703XXXXXX0948       VS11    0001111   NYV1 A E303146535584982N840000000004280MPPJ00    05DNPAK VENTURES             066915    VD84000000004280 N  599978419189                            000000000+                F DF 10433                     000000000  Y000000000 338   0000000000000.00 0000000.00   0000000.00                             000000000000000                                                                                                                                                     01418 A000000000000 0000000000000.24     00050 02200                  
08988500658570001E167590675900000029629800131800000010100E0F8C800BC 00000000000.004040404040404040404040404040404040404040404040404006061203A0A000000000000000000000404040404040404040404040404040  0000084018008080008000230526426262BC8EF9721A0A046D20404040400840A00000000310100000000000000000005060E0E0A000908020200000000000004040401E40404040 000000042.80 000000000.001E00000000000000000000    80                                                                                                                                                                                                                                                                                                                  
08988510658570002G2675906759000000296298001318000000101MILTON                   FL           5 D                00                                      NNNN00 N 00                   000000000000                                                                   78419189                                                                                                                                                                                                                                                                                                                                                                                                                                               
08988520658570047DT67590675900000029629800131800000010180013124001193146900010500021052620230000000267514623000000000100045448261XXXXXX7121       VS11    0001111   NYV1 A E303146587807465N8400000000026753C2S00    05DNPAK VENTURES             502118    VD84000000002675 N  599978419189                            000000000+                F DF 10433                     000000000  Y000000000 338   0000000000000.00 0000000.00   0000000.00                             000000000000000                                                                                                                                                     01418 A000000000000 0000000000000.23     00050 02200                  
08988530658570001E167590675900000029629800131800000010100E0F8C802AB 00000000000.004040404040404040404040404040404040404040404040404006011203A0A000000000000000000000404040404040404040404040404040  0002084018008080008000230526BA1D4A541ED76586C1926972404040400840A00000000310100000000000000000008578773D0382000000000000000000004040401E40404040 000000026.75 000000000.001E00000000000000000000    80                                                                                                                                                                                                                                                                                                                  
08988540658570002G2675906759000000296298001318000000101MILTON                   FL           5 D                00                                      NNNN00 N 00                   000000000000                                                                   78419189                                                                                                                                                                                                                                                                                                                                                                                                                                               
08988550658570048DT67590675900000029629800131800000010180013124001193146900010500039052620230000000749014623000000000100045400022XXXXXX0354       VS11    0001111   NYV1 A E383146593060818N840000000007490DQ6P00    05DNPAK VENTURES             493605    VD84000000007490 N  599978419189                            000000000+                F DF 10433                     000000000  Y000000000 338   0000000000000.00 0000000.00   0000000.00                             000000000000000                                                                                                                                                     01418 A000000000000 0000000000000.26     00050 02200                  
08988560658570001E167590675900000029629800131800000010100E0F8C8025F 00000000000.004040404040404040404040404040404040404040404040404006021203A0A000000000000000000000404040404040404040404040404040  0000084018008080008000230526384F0CDBF79DF47B37257F12404040400840A0000000031010000000000000000000404040404040404040404040404040404040401E40404040 000000074.90 000000000.001E00000000000000000000    80                                                                                                                                                                                                                                                                                                                  
08988570658570002G2675906759000000296298001318000000101MILTON                   FL           5 D                00                                      NNNN00 N 00                   000000000000                                                                   78419189                                                                                                                                                                                                                                                                                                                                                                                                                                               
08988580658570049DT67590675900000029629800131800000010180013177287283146900010500049052620230000000321014623000000000100045542418XXXXXX5298       MS02WI09          NY 1 0 AMPLIFHCNI0526  N840000000003210          05DNPAK VENTURES             40189B    MC84000000003210 N  599978419189                            000000000+M10101C5434C    MPL  00353                     000000000  N                0000000000000.00 0000000.00   0000000.00                             000000000000000                                                                                                                                                   B101418  000000000000 0000000000000.68     01800 01000                  
08988590658570001E167590675900000029629800131800000010100E0F8C8002B 00000000000.00404040404040404040404040404040404040404040404040400110A04001220000000000000000000000FF00000000000000000000000000  000108403900000000800023052668DE1C19CAC5E56E332C0E74404040400840A00000000410100000000000000000003C5BE885A16839E800120000000000004040401E40404040 000000032.10 000000000.001E03000000000000000000    80                                                                                                                                                                                                                                                                                                                  
08988600658570002G2675906759000000296298001318000000101MILTON                   FL           5 L                                                        NNNN              000000000000000000000000                        7                                          78419189                                                                                                                                                                                                                                                                                                                                                                                                                                               
08988610658570050DT67590675900000029629800131800000010180013124001193146900010500054052620230000001819014623000000000100045400022XXXXXX1005       VS11    0001111   NYV1 A E583146629634844N840000000018190KQVM00    05DNPAK VENTURES             345572    VD84000000018190 N  599978419189                            000000000+                F DF 10433                     000000000  Y000000000 338   0000000000000.00 0000000.00   0000000.00                             000000000000000                                                                                                                                                     01418 A000000000000 0000000000000.31     00050 02200                  
08988620658570001E167590675900000029629800131800000010100E0F8C802B1 00000000000.004040404040404040404040404040404040404040404040404006021203A0A000000000000000000000404040404040404040404040404040  0000084018008080008000230526CC4F00E4949A2FFF998929C6404040400840A0000000031010000000000000000000404040404040404040404040404040404040401E40404040 000000181.90 000000000.001E00000000000000000000    80                                                                                                                                                                                                                                                                                                                  
08988630658570002G2675906759000000296298001318000000101MILTON                   FL           5 D                00                                      NNNN00 N 00                   000000000000                                                                   78419189                                                                                                                                                                                                                                                                                                                                                                                                                                               
08988640658570051DT67590675900000029629800131800000010180013177287283146900010500064052620230000000963014623000000000100045546316XXXXXX8312       MS02WI09          NY 1 0 AMPLO0RAGR0526  N840000000009630          05DNPAK VENTURES             026264    MC84000000009630 N  599978419189                            000000000+M10101C5434C    MPL  00015                     000000000  N                0000000000000.00 0000000.00   0000000.00                             000000000000000                                                                                                                                                   B101418  000000000000 0000000000001.69     01650 01000                  
08988650658570001E167590675900000029629800131800000010100E0F8C80002 00000000000.00404040404040404040404040404040404040404040404040400210A04001220000000000000000000000FF00000000000000000000000000  0001084039000000008000230526711AFBDC3B60F8D19B93F504404040400840A000000004101000000000000000000008F0E53E0539098B00120000000000004040401E40404040 000000096.30 000000000.001E03000000000000000000    80                                                                                                                                                                                                                                                                                                                  
08988660658570002G2675906759000000296298001318000000101MILTON                   FL           5 L                                                        NNNN              000000000000000000000000                        7                                          78419189                                                                                                                                                                                                                                                                                                                                                                                                                                               
08988670658570052DT67590675900000029629800131800000010180013124001193146900010500070052620230000000856014623000000000100045473702XXXXXX7657       VS11    0001111   NYV1 A E383146639822568N840000000008560KQG300    05DNPAK VENTURES             082573    VD84000000008560 N  599978419189                            000000000+                F DF 10433                     000000000  Y000000000 338   0000000000000.00 0000000.00   0000000.00                             000000000000000                                                                                                                                                     01418 A000000000000 0000000000000.26     00050 02200                  
08988680658570001E167590675900000029629800131800000010100E0F8C8006D 00000000000.004040404040404040404040404040404040404040404040404006061203A0A000000000000000000000404040404040404040404040404040  0000084018008080008000230526616A8E421A84476487E44E99404040400840A000000003101000000000000000000020F060B0D000007020200000000000004040401E40404040 000000085.60 000000000.001E00000000000000000000    80                                                                                                                                                                                                                                                                                                                  
08988690658570002G2675906759000000296298001318000000101MILTON                   FL           5 D                00                                      NNNN00 N 00                   000000000000                                                                   78419189                                                                                                                                                                                                                                                                                                                                                                                                                                               
08988700658570053DT67590675900000029629800131800000010180013124001193146900010500088052620230000001391014623000000000100045438854XXXXXX0978       VS11    0001111   NYV1 A E303146685200004N840000000013910BJ2Q00    05DNPAK VENTURES             06010D    VS84000000013910 N  599978419189                            000000000+                D CD 12113                     000000000  N000000000 499   0000000000000.00 0000000.00   0000000.00                             000000000000000                                                                                                                                                     01418 A000000000000 0000000000003.02     02100 01000                  
08988710658570001E167590675900000029629800131800000010100E0F8C8013F 00000000000.004040404040404040404040404040404040404040404040404006021203A02002000000000000000000404040404040404040404040404040  00030840380000800080002305268B65F6CF54E42C1A94534B4F404040400840A00000000310100000000000000000009FE2EC830082000000000000000000004040401E40404040 000000139.10 000000000.001E00000000000000000000    80                                                                                                                                                                                                                                                                                                                  
08988720658570002G2675906759000000296298001318000000101MILTON                   FL           5 C                00                                      NNNN00 Y 00                   000000000000                                                                   78419189                                                                                                                                                                                                                                                                                                                                                                                                                                               
08988730658570054DT67590675900000029629800131800000010180013124001193146900010500096052620230000000642014623000000000100045435544XXXXXX9661       VS11    0001111   NYV1 A E303146693685377N840000000006420DZLW00    05DNPAK VENTURES             129095    VD84000000006420 N  599978419189                            000000000+                F DF 10433                     000000000  Y000000000 338   0000000000000.00 0000000.00   0000000.00                             000000000000000                                                                                                                                                     01418 A000000000000 0000000000000.25     00050 02200                  
