12473700110900002BH6759067590000013846189002189000090170704202518525000000000021862    0000090001383256Y8900216759C07072025138                                                                                                                                                                                                                                                                                                                                                                                                                                                                                                                                                                                              
12473710110900003DT67590675900000138461890021890000010189002124001195185900013832550070420250000000269018525000000000021862426684XXXXXX7062       VS11    0001111   NYV1 A E305186006393123N8400000000026903M9W00    05DNVERIFYVEND855-5539974    01182D    VS84000000002690 N  654078354510                            000000000+             F64D CD 12113                     000000000  N000000000 499   0000000000000.00 0000000.00   0000000.00                             000000000000000                                                                                                                                                     01424 A000000000000 0000000000000.66     02100 01000                  
12473720110900001E167590675900000138461890021890000010100E0F8C80013 00000000000.004040404040404040404040404040404040404040404040404006021203602002000000000000000000404040404040404040404040404040  00030840380000800080002507045B8C96C25396561D04CC2CA140404040084040404040404040404040404040404040EF8BF0020082000000000000000000004040405E40404040 000000026.90 000000000.005E00000000000000000000    80                                                                                                                                                                                                                                                                                                                  
12473730110900002G2675906759000001384618900218900000101PROVIDENCE               RI           5 C                00                                      NNNN00 Y 00                   000000000000                                                                   78354510 0000000000000.00 0000000000000.00 0000000000000.00 0000000000000.00 0000000000000.00                                                                                                                                                                                                                                                                                                                                                          
12473740110900004DT67590675900000138461890021890000010189002177287285185900013832560070420250000001917218525000000000021862515676XXXXXX8444       MS02WI09          NY 1 0 AMWE7KGN380704  N840000000019172          05DNVERIFYVEND855-5539974    02468Z    MC84000000019172 N  654078354510                            000000000+M10101C5434C F64MWE  00739                     000000000  N                0000000000000.00 0000000.00   0000000.00                             000000000000000                                                                                                                                                   WE01424  000000000000 0000000000004.51     02300 01000                  
12473750110900001E167590675900000138461890021890000010100E0F8C80060 00000000000.00404040404040404040404040404040404040404040404040400110607001220000EA1900000000000000FF00000000000000000000000000  0001084039000080008000250704400CCF096939DB5C032F7478404040400840A0000000041010000000000000000000967ECAFCA9D6BBC700120000000000004040401E40404040 000000191.72 000000000.001E03000000000000000000    80                                                                                                                                                                                                                                                                                                                  
12473760110900002G2675906759000001384618900218900000101PROVIDENCE               RI           5 E                                                        NNNN              0000000000000000000000002010001                 7                                          78354510 0000000000000.00 0000000000000.00 0000000000000.00 0000000000000.00 0000000000000.00                                                                                                                                                                                                                                                                                                                                                          
12473770110900005BH6759067590000013846189002189000090170704202518525000000000007759    0000090001930620Y8900216759C07072025093                                                                                                                                                                                                                                                                                                                                                                                                                                                                                                                                                                                              
12473780110900006DT67590675900000138461890021890000033089002176759005185900019306190070420250000000395018525000000000007759479199XXXXXX2948                         NY42 0 N               N840000000003950      XL  05DNVERIFYVEND855-5539974    509770    DB84000000003950 N  654078352204                            000000000+                     12698                                N          A2D   0000000000000.00 0000000.00   0000000.00                             000000000000000                                                                                                                                                     01424  000000000000 0000000000001.02     01450 00000                  
12473790110900001G2675906759000001384618900218900000330PROVIDENCE               RI           5 D                00                                      NNNN                          000000000000                                                                   78352204 0000000000000.00 0000000000000.00 0000000000000.00 0000000000000.00 0000000000000.00                                                                                                                                                                                                                                                                                                                                                          
12473800110900007DT67590675900000138461890021890000010189002124001195185900019306203070420250000000380918525000000000007759446615XXXXXX1847       VS11    0001111   NYV1 A E465186023517398N840000000003809P8HW00    07DNVERIFYVEND855-5539974    041874    VD84000000003809 N  654078352204                            000000000+             F64F DF 10433                     000000000  Y000000000 338   0000000000000.00 0000000.00   0000000.00                             000000000000000                                                                                                                                                     01424 A000000000000 0000000000000.24     00050 02200                  
12473810110900001E167590675900000138461890021890000010100E0F8C80148 00000000000.00404040404040404040404040404040404040404040404040401F420460A00000000010030273000000004000000000000000000000000000  0000084000600000000000250704DC18F8DA81D200DFDA6F5617238800000840404040404040404040404040404040406AE19F070086000000000000000000004040401F40404040 000000038.09 000000000.001F00020000000000000000    80                                                                                                                                                                                                                                                                                                                  
12473820110900002G2675906759000001384618900218900000101PROVIDENCE               RI           5 D                00                                      NNNN00 N 00                   000000000000                                                                   78352204 0000000000000.00 0000000000000.00 0000000000000.00 0000000000000.00 0000000000000.00                                                                                                                                                                                                                                                                                                                                                          
12473830110900008BH6759067590000013846189002189000090170704202518525000000000036220    0000090001121043Y8900216759C07072025312                                                                                                                                                                                                                                                                                                                                                                                                                                                                                                                                                                                              
12473840110900009DT67590675900000138461890021890000033089002176759005185900011210424070420250000003369818525000000000036220408138XXXXXX5345                         NY 2 0 N               N840000000033698      PL  07DNVERIFYVEND855-5539974    252473    DB84000000033698 N  654076530517                            000000000+                     09631                                N          PU0   0000000000000.00 0000000.00   0000000.00                             000000000000000                                                                                                                                                     01424  000000000000 0000000000002.85     00800 00000                  
12473850110900001G2675906759000001384618900218900000330PROVIDENCE               RI           5 P                00                                      NNNN                          000000000000                                                                   76530517 0000000000000.00 0000000000000.00 0000000000000.00 0000000000000.00 0000000000000.00                                                                                                                                                                                                                                                                                                                                                          
12473860110900010DT67590675900000138461890021890000010189002177287285185900011210439070420250000000252218525000000000036220514377XXXXXX0265       MS02WI09          NY 1 0 AMDJ8MPZ380704  N840000000002522          07DNVERIFYVEND855-5539974    2I3JP4    MD84000000002522 N  654076530517                            000000000+M10101M0034C F64MDJ  00402                     000000000  N                0000000000000.00 0000000.00   0000000.00                             000000000000000                                                                                                                                                   CD01424  000000000000 0000000000000.41     01050 01500                  
12473870110900001E167590675900000138461890021890000010100E008C801B4 00000000000.00404040404040404040404040404040404040404040404040400110A04001220000000000000000000000FF00000000000000000000000000  0002084019800080008001250704ACE1B26B32F960FDA5813FDB084000000840A0000000041010000000000000000000404040404040404040404040404040404040401F40404040 000000025.22 000000000.001F03020000000000000000    80                                                                                                                                                                                                                                                                                                                  
12473880110900002G2675906759000001384618900218900000101PROVIDENCE               RI           5 J                                                        NNNN              0000000000000000000000002010001                 7                                          76530517 0000000000000.00 0000000000000.00 0000000000000.00 0000000000000.00 0000000000000.00                                                                                                                                                                                                                                                                                                                                                          
12473890110900011BH6759067590000013846189002189000090170704202518525000000000005916    0000090001480668Y8900216759C07072025148                                                                                                                                                                                                                                                                                                                                                                                                                                                                                                                                                                                              
12473900110900012DT67590675900000138461890021890000033089002176759005185900014806673070420250000000260418525000000000005916423223XXXXXX8739                         NY42 0 N               N840000000002604      ST  07DNVERIFYVEND855-5539974    014120    DB84000000002604 N  654078384381                            000000000+                     12559                                N          STD   0000000000000.00 0000000.00   0000000.00                             000000000000000                                                                                                                                                     01424  000000000000 0000000000000.83     01450 00000                  
12473910110900001G2675906759000001384618900218900000330PROVIDENCE               RI           5 D                00                                      NNNN                          000000000000                                                                   78384381 0000000000000.00 0000000000000.00 0000000000000.00 0000000000000.00 0000000000000.00                                                                                                                                                                                                                                                                                                                                                          
12473920110900013DT67590675900000138461890021890000010189002124001195185900014806686070420250000000331218525000000000005916438752XXXXXX3335       VS11    0001111   NYV1 A E585186026849799N840000000003312M25600    07DNVERIFYVEND855-5539974    791589    VD84000000003312 N  654078384381                            000000000+             F64F PF 08170                     000000000  N000000000       0000000000000.00 0000000.00   0000000.00                             000000000000000                                                                                                                                                     01424 A000000000000 0000000000000.53     01150 01500                  
12473930110900001E167590675900000138461890021890000010100E0F8C80013 00000000000.00404040404040404040404040404040404040404040404040401F42FF60A00000000010030273000000004000000000000000000000000000  0000084000600000000000250704BFF968376D9A3F7D27143F2F238800000840404040404040404040404040404040404CDFAF080086000000000000000000004040401F40404040 000000033.12 000000000.001F00020000000000000000    80                                                                                                                                                                                                                                                                                                                  
12473940110900002G2675906759000001384618900218900000101PROVIDENCE               RI           5 P                00                                      NNNN00 N 00                   000000000000                                                                   78384381 0000000000000.00 0000000000000.00 0000000000000.00 0000000000000.00 0000000000000.00                                                                                                                                                                                                                                                                                                                                                          
12473950110900014BH6759067590000013846189002189000090170704202518525000000000024981    0000090001681249Y8900216759C07072025468                                                                                                                                                                                                                                                                                                                                                                                                                                                                                                                                                                                              
12473960110900015DT67590675900000138461890021890000033089002176759005185900016812471070420250000000719318525000000000024981447789XXXXXX3687                         NY42 0 N               N840000000007193      ST  07DNVERIFYVEND855-5539974    075535    DB84000000007193 N  654078383180                            000000000+                     09608                                N          STH   0000000000000.00 0000000.00   0000000.00                             000000000000000                                                                                                                                                     01424  000000000000 0000000000000.95     00900 00000                  
12473970110900001G2675906759000001384618900218900000330PROVIDENCE               RI           5 D                00                                      NNNN                          000000000000                                                                   78383180 0000000000000.00 0000000000000.00 0000000000000.00 0000000000000.00 0000000000000.00                                                                                                                                                                                                                                                                                                                                                          
12473980110900016DT67590675900000138461890021890000033089002176759005185900016812489070420250000000483418525000000000024981436618XXXXXX1466                         NY 2 0 N               N840000000004834      IL  07DNVERIFYVEND855-5539974    029045    DB84000000004834 N  654078383180                            000000000+                     09580                                Y          342   0000000000000.00 0000000.00   0000000.00                             000000000000000                                                                                                                                                     01424  000000000000 0000000000000.24     00050 00000                  
12473990110900001G2675906759000001384618900218900000330PROVIDENCE               RI           5 D                00                                      NNNN                          000000000000                                                                   78383180 0000000000000.00 0000000000000.00 0000000000000.00 0000000000000.00 0000000000000.00                                                                                                                                                                                                                                                                                                                                                          
12474000110900017DT67590675900000138461890021890000033089002176759005185900016812497070420250000001295418525000000000024981451140XXXXXX3546                         NY42 0 N               N840000000012954      ST  07DNVERIFYVEND855-5539974    266573    DB84000000012954 N  654078383180                            000000000+                     09608                                N          STH   0000000000000.00 0000000.00   0000000.00                             000000000000000                                                                                                                                                     01424  000000000000 0000000000001.47     00900 00000                  
12474010110900001G2675906759000001384618900218900000330PROVIDENCE               RI           5 D                00                                      NNNN                          000000000000                                                                   78383180 0000000000000.00 0000000000000.00 0000000000000.00 0000000000000.00 0000000000000.00                                                                                                                                                                                                                                                                                                                                                          
12474020110900018BH6759067590000013846189002189000090170704202518525000000000008163    0000090001258294Y8900216759C07072025325                                                                                                                                                                                                                                                                                                                                                                                                                                                                                                                                                                                              
12474030110900019DT67590675900000138461890021890000010189002177287285185900012582927070420250000000096118525000000000008163515676XXXXXX0188       MS02WI09          NY 1 0 AMWE1129500704  N840000000000961          07DNVERIFYVEND855-5539974    00683Z    MC84000000000961 N  654076532793                            000000000+M10101M0034C F64MWE  00739                     000000000  N                0000000000000.00 0000000.00   0000000.00                             000000000000000                                                                                                                                                   WE01424  000000000000 0000000000000.32     02300 01000                  
12474040110900001E167590675900000138461890021890000010100E008C800CB 00000000000.00404040404040404040404040404040404040404040404040400110A04001220000000000000000000000FF00000000000000000000000000  0001084019800080008001250704A4636184BF2A56E7660EDA75084000000840A0000000041010000000000000000000404040404040404040404040404040404040401F40404040 000000009.61 000000000.001F03020000000000000000    80                                                                                                                                                                                                                                                                                                                  
12474050110900002G2675906759000001384618900218900000101PROVIDENCE               RI           5 E                                                        NNNN              0000000000000000000000002010001                 7                                          76532793 0000000000000.00 0000000000000.00 0000000000000.00 0000000000000.00 0000000000000.00                                                                                                                                                                                                                                                                                                                                                          
12474060110900020DT67590675900000138461890021890000010189002177287285185900012582935070420250000000086418525000000000008163527521XXXXXX4625       MS02WI09          NY 1 0 AMDJ194P500704  N840000000000864          07DNVERIFYVEND855-5539974    150027    MD84000000000864 N  654076532793                            000000000+M10101M0034C F64MDJ  10815                     000000000  1                0000000000000.00 0000000.00   0000000.00                             000000000000000                                                                                                                                                   RF01424  000000000000 0000000000000.22     00050 02200                  
12474070110900001E167590675900000138461890021890000010100E008C80063 00000000000.00404040404040404040404040404040404040404040404040400414A04301A20000000000000000000000FF00000000000000000000000000  00000840198000800080012507047D7E306BDB5B034EF6204B9F084000000840A0000000041010000000000000000000404040404040404040404040404040404040401F40404040 000000008.64 000000000.001F03020000000000000000    80                                                                                                                                                                                                                                                                                                                  
12474080110900002G2675906759000001384618900218900000101PROVIDENCE               RI           5 J                                                        NNNN              0000000000000000000000002010001                 7                                          76532793 0000000000000.00 0000000000000.00 0000000000000.00 0000000000000.00 0000000000000.00                                                                                                                                                                                                                                                                                                                                                          
12474090110900021DT67590675900000138461890021890000010189002124001195185900012582941070420250000000633818525000000000008163426684XXXXXX5111       VS11    0001111   NYV1 A E465186056023995N840000000006338TN5600    07DNVERIFYVEND855-5539974    09679C    VS84000000006338 N  654076532793                            000000000+             F64C CC 12112                     000000000  N000000000 497   0000000000000.00 0000000.00   0000000.00                             000000000000000                                                                                                                                                     01424 A000000000000 0000000000001.15     01650 01000                  
12474100110900001E167590675900000138461890021890000010100E0F8C800F9 00000000000.004040404040404040404040404040404040404040404040404006021203A00000000000000000000000404040404040404040404040404040  00010840200000000000002507044B4C11B841FAC0C52DA41FFA20700000084040404040404040404040404040404040141C3B9E0082000000000000000000004040401F40404040 000000063.38 000000000.001F00020000000000000000    80                                                                                                                                                                                                                                                                                                                  
12474110110900002G2675906759000001384618900218900000101PROVIDENCE               RI           5 C                00                                      NNNN00 Y 00                   000000000000                                                                   76532793 0000000000000.00 0000000000000.00 0000000000000.00 0000000000000.00 0000000000000.00                                                                                                                                                                                                                                                                                                                                                          
12474120110900022BH6759067590000013846189002189000090170704202518525000000000008891    0000090001593241Y8900216759C07072025959                                                                                                                                                                                                                                                                                                                                                                                                                                                                                                                                                                                              
12474130110900023DT67590675900000138461890021890000010189002124001195185900015932408070420250000000100518525000000000008891403163XXXXXX3729       VK04VS111111111   NYV1 A E465186054109752N840000000001005ZFCH00    05DNVERIFYVEND855-5539974    361869    VD84000000001005 N  654078382867                            000000000+             F64F PF 08165                     000000000  N000000000       0000000000000.00 0000000.00   0000000.00                             000000000000000                                                                                                                                                     01424 F000000000000 0000000000000.21     01600 00500                  
12474140110900001E167590675900000138461890021890000010100E0F8C8002A 00000000000.004040404040404040404040404040404040404040404040404006011203602000000000000000000000404040404040404040404040404040  0000084018008080048000250704196E9ACC998B91CC2F0739AE40404040084040404040404040404040404040404040C51A08BD0A5FB3D330300000000000004040404240404040 000000010.05 000000000.004200000000000000000000    80                                                                                                                                                                                                                                                                                                                  
12474150110900002G2675906759000001384618900218900000101PROVIDENCE               RI           5 P                00                                      NNNN00 N 00                   000000000000                                                                   78382867 0000000000000.00 0000000000000.00 0000000000000.00 0000000000000.00 0000000000000.00                                                                                                                                                                                                                                                                                                                                                          
12474160110900024DT67590675900000138461890021890000033089002176759005185900015932411070420250000000788618525000000000008891510897XXXXXX5962                         NY42 0 N               N840000000007886      PL  05DNVERIFYVEND855-5539974    072909    DB84000000007886 N  654078382867                            000000000+                     09631                                N          PU0   0000000000000.00 0000000.00   0000000.00                             000000000000000                                                                                                                                                     01424  000000000000 0000000000000.78     00800 00000                  
12474170110900001G2675906759000001384618900218900000330PROVIDENCE               RI           5 D                00                                      NNNN                          000000000000                                                                   78382867 0000000000000.00 0000000000000.00 0000000000000.00 0000000000000.00 0000000000000.00                                                                                                                                                                                                                                                                                                                                                          
12474180110900025BH6759067590000013846189002189000090170704202518525000000000016344    0000090001464489Y8900216759C07072025346                                                                                                                                                                                                                                                                                                                                                                                                                                                                                                                                                                                              
12474190110900026DT67590675900000138461890021890000033089002176759005185900014644868070420250000000490518525000000000016344401105XXXXXX1255                         NY42 0 N               N840000000004905      ST  07DNVERIFYVEND855-5539974    562232    DB84000000004905 N  654078382132                            000000000+                     09615                                Y          ST1   0000000000000.00 0000000.00   0000000.00                             000000000000000                                                                                                                                                     01424  000000000000 0000000000000.25     00050 00000                  
12474200110900001G2675906759000001384618900218900000330PROVIDENCE               RI           5 D                00                                      NNNN                          000000000000                                                                   78382132 0000000000000.00 0000000000000.00 0000000000000.00 0000000000000.00 0000000000000.00                                                                                                                                                                                                                                                                                                                                                          
12474210110900027DT67590675900000138461890021890000033089002176759005185900014644876070420250000000440018525000000000016344403422XXXXXX4852                         NY42 0 N               N840000000004400      PL  05DNVERIFYVEND855-5539974    784679    DB84000000004400 N  654078382132                            000000000+                     09628                                N                0000000000000.00 0000000.00   0000000.00                             000000000000000                                                                                                                                                     01424  000000000000 0000000000000.50     00800 00000                  
12474220110900001G2675906759000001384618900218900000330PROVIDENCE               RI           5 D                00                                      NNNN                          000000000000                                                                   78382132 0000000000000.00 0000000000000.00 0000000000000.00 0000000000000.00 0000000000000.00                                                                                                                                                                                                                                                                                                                                                          
12474230110900028DT67590675900000138461890021890000033089002176759005185900014644884070420250000000398018525000000000016344514459XXXXXX7133                         NY42 0 N               N840000000003980      PL  05DNVERIFYVEND855-5539974    657508    DB84000000003980 N  654078382132                            000000000+                     09631                                N          PU0   0000000000000.00 0000000.00   0000000.00                             000000000000000                                                                                                                                                     01424  000000000000 0000000000000.47     00800 00000                  
12474240110900001G2675906759000001384618900218900000330PROVIDENCE               RI           5 D                00                                      NNNN                          000000000000                                                                   78382132 0000000000000.00 0000000000000.00 0000000000000.00 0000000000000.00 0000000000000.00                                                                                                                                                                                                                                                                                                                                                          
12474250110900029DT67590675900000138461890021890000010189002124001195185900014644897070420250000000305918525000000000016344414720XXXXXX4403       VS11    0001111   NYV1 A E585186060936342N840000000003059JBH400    07DNVERIFYVEND855-5539974    04000D    VS84000000003059 N  654078382132                            000000000+             F64D CD 12113                     000000000  N000000000 499   0000000000000.00 0000000.00   0000000.00                             000000000000000                                                                                                                                                     01424 A000000000000 0000000000000.74     02100 01000                  
12474260110900001E167590675900000138461890021890000010100E0F8C8005F 00000000000.004040404040404040404040404040404040404040404040404006021203A00000000000000000000000404040404040404040404040404040  00010840200000000000002507048FAB4BF46C77C5F9025DA9302070000008404040404040404040404040404040404091ABCA120082000000000000000000004040401F40404040 000000030.59 000000000.001F00020000000000000000    80                                                                                                                                                                                                                                                                                                                  
12474270110900002G2675906759000001384618900218900000101PROVIDENCE               RI           5 C                00                                      NNNN00 Y 00                   000000000000                                                                   78382132 0000000000000.00 0000000000000.00 0000000000000.00 0000000000000.00 0000000000000.00                                                                                                                                                                                                                                                                                                                                                          
12474280110900030BH6759067590000013846189002189000090170704202518525000000000018970    0000090001555269Y8900216759C07072025355                                                                                                                                                                                                                                                                                                                                                                                                                                                                                                                                                                                              
12474290110900031DT67590675900000138461890021890000010189002177287285185900015552679070420250000001027018525000000000018970517805XXXXXX2091       MS02WI09          NY 1 0 AMWEATCLVP0704  N840000000010270          05DNVERIFYVEND855-5539974    03668P    MC84000000010270 N  654078519292                            000000000+M10101C5434C F64MWE  00739                     000000000  N                0000000000000.00 0000000.00   0000000.00                             000000000000000                                                                                                                                                   WE01424  000000000000 0000000000002.46     02300 01000                  
12474300110900001E167590675900000138461890021890000010100E0F8C80002 00000000000.00404040404040404040404040404040404040404040404040400110607001220000585500000000000000FF00000000000000000000000000  0001084039000080008000250704CF66CE700F4929C7340B5779404040400840A00000000410100000000000000000001B05EDFD141644ED00120000000000004040401E40404040 000000102.70 000000000.001E03000000000000000000    80                                                                                                                                                                                                                                                                                                                  
12474310110900002G2675906759000001384618900218900000101PROVIDENCE               RI           5 E                                                        NNNN              0000000000000000000000002010001                 7                                          78519292 0000000000000.00 0000000000000.00 0000000000000.00 0000000000000.00 0000000000000.00                                                                                                                                                                                                                                                                                                                                                          
12474320110900032DT67590675900000138461890021890000033089002176759005185900015552680070420250000000440018525000000000018970486007XXXXXX2336                         NY 2 0 N               N840000000004400      PL  07DNVERIFYVEND855-5539974    843301    DB84000000004400 N  654078519292                            000000000+                     09631                                N          PU0   0000000000000.00 0000000.00   0000000.00                             000000000000000                                                                                                                                                     01424  000000000000 0000000000000.50     00800 00000                  
12474330110900001G2675906759000001384618900218900000330PROVIDENCE               RI           5 P                00                                      NNNN                          000000000000                                                                   78519292 0000000000000.00 0000000000000.00 0000000000000.00 0000000000000.00 0000000000000.00                                                                                                                                                                                                                                                                                                                                                          
12474340110900033DT67590675900000138461890021890000033089002176759005185900015552698070420250000000430018525000000000018970403163XXXXXX0637                         NY42 0 N               N840000000004300      PL  07DNVERIFYVEND855-5539974    661791    DB84000000004300 N  654078519292                            000000000+                     09631                                N          PU0   0000000000000.00 0000000.00   0000000.00                             000000000000000                                                                                                                                                     01424  000000000000 0000000000000.49     00800 00000                  
12474350110900001G2675906759000001384618900218900000330PROVIDENCE               RI           5 P                00                                      NNNN                          000000000000                                                                   78519292 0000000000000.00 0000000000000.00 0000000000000.00 0000000000000.00 0000000000000.00                                                                                                                                                                                                                                                                                                                                                          
12474360110900034BH6759067590000013846189002189000090170704202518525000000000014965    0000090001915875Y8900216759C07072025791                                                                                                                                                                                                                                                                                                                                                                                                                                                                                                                                                                                              
12474370110900035DT67590675900000138461890021890000033089002176759005185900019158716070420250000001212118525000000000014965411776XXXXXX3263                         NY42 0 N               N840000000012121      PL  07DNVERIFYVEND855-5539974    185741    DB84000000012121 N  654078351823                            000000000+                     09635                                Y          PU1   0000000000000.00 0000000.00   0000000.00                             000000000000000                                                                                                                                                     01424  000000000000 0000000000000.28     00050 00000                  
12474380110900001G2675906759000001384618900218900000330PROVIDENCE               RI           5 D                00                                      NNNN                          000000000000                                                                   78351823 0000000000000.00 0000000000000.00 0000000000000.00 0000000000000.00 0000000000000.00                                                                                                                                                                                                                                                                                                                                                          
12474390110900036DT67590675900000138461890021890000010189002124001195185900019158752070420250000000284418525000000000014965473471XXXXXX1977       VS11    0001111   NYV1 A E385186035791851N8400000000028444H2400    05DNVERIFYVEND855-5539974    693919    VS84000000002844 N  654078351823                            000000000+             F64A CA 12110                     000000000  N000000000 493   0000000000000.00 0000000.00   0000000.00                             000000000000000                                                                                                                                                     01424 A000000000000 0000000000000.53     01510 01000                  
12474400110900001E167590675900000138461890021890000010100E0F8C800FB 00000000000.00404040404040404040404040404040404040404040404040400601120360A000000000000000000000404040404040404040404040404040  0011084018008080008000250704EBA72510BE5019DFF0C7FC5840404040084040404040404040404040404040404040940C0C550082000000000000000000004040405E40404040 000000028.44 000000000.005E00000000000000000000    80                                                                                                                                                                                                                                                                                                                  
12474410110900002G2675906759000001384618900218900000101PROVIDENCE               RI           5 C                00                                      NNNN00 N 00                   000000000000                                                                   78351823 0000000000000.00 0000000000000.00 0000000000000.00 0000000000000.00 0000000000000.00                                                                                                                                                                                                                                                                                                                                                          
12474420110900037BH6759067590000013846189002189000090170704202518525000000000013617    0000090001140728Y8900216759C07072025214                                                                                                                                                                                                                                                                                                                                                                                                                                                                                                                                                                                              
12474430110900038DT67590675900000138461890021890000033089002176759005185900011407269070420250000000511718525000000000013617403163XXXXXX6018                         NY42 0 N               N840000000005117      PL  07DNVERIFYVEND855-5539974    867368    DB84000000005117 N  654077419667                            000000000+                     09631                                N          PU0   0000000000000.00 0000000.00   0000000.00                             000000000000000                                                                                                                                                     01424  000000000000 0000000000000.56     00800 00000                  
12474440110900001G2675906759000001384618900218900000330PROVIDENCE               RI           5 P                00                                      NNNN                          000000000000                                                                   77419667 0000000000000.00 0000000000000.00 0000000000000.00 0000000000000.00 0000000000000.00                                                                                                                                                                                                                                                                                                                                                          
12474450110900039DT67590675900000138461890021890000033089002176759005185900011407277070420250000000427518525000000000013617447009XXXXXX8192                         NY42 0 N               N840000000004275      PL  07DNVERIFYVEND855-5539974    190221    DB84000000004275 N  654077419667                            000000000+                     09631                                N          PU0   0000000000000.00 0000000.00   0000000.00                             000000000000000                                                                                                                                                     01424  000000000000 0000000000000.49     00800 00000                  
12474460110900001G2675906759000001384618900218900000330PROVIDENCE               RI           5 D                00                                      NNNN                          000000000000                                                                   77419667 0000000000000.00 0000000000000.00 0000000000000.00 0000000000000.00 0000000000000.00                                                                                                                                                                                                                                                                                                                                                          
12474470110900040DT67590675900000138461890021890000033089002176759005185900011407285070420250000000422518525000000000013617403163XXXXXX1032                         NY42 0 N               N840000000004225      PL  05DNVERIFYVEND855-5539974    427464    DB84000000004225 N  654077419667                            000000000+                     09631                                N          PU0   0000000000000.00 0000000.00   0000000.00                             000000000000000                                                                                                                                                     01424  000000000000 0000000000000.49     00800 00000                  
12474480110900001G2675906759000001384618900218900000330PROVIDENCE               RI           5 P                00                                      NNNN                          000000000000                                                                   77419667 0000000000000.00 0000000000000.00 0000000000000.00 0000000000000.00 0000000000000.00                                                                                                                                                                                                                                                                                                                                                          
12474490110900041BH6759067590000013846189002189000090170704202518525000000000023515    0000090001706088Y8900216759C07072025270                                                                                                                                                                                                                                                                                                                                                                                                                                                                                                                                                                                              
12474500110900042DT67590675900000138461890021890000010189002124001195185900017060828070420250000000163318525000000000023515498503XXXXXX9422       VS11    0001111   NYV1 A E305186005191378N840000000001633N7SV00    07DNVERIFYVEND855-5539974    075130    VD84000000001633 N  654078906988                            000000000+             F64F DF 00381                     000000000  N000000000       0000000000000.00 0000000.00   0000000.00                             000000000000000                                                                                                                                                     01424 A000000000000 0000000000000.28     00800 01500                  
12474510110900001E167590675900000138461890021890000010100E0F8C80304 00000000000.004040404040404040404040404040404040404040404040404006011203A00000000000000000000000404040404040404040404040404040  00000840000000000000002507047F95C8E1A72A66674C3C3DDB20700000084040404040404040404040404040404040C9EB1C2E0080000000000000000000004040401F40404040 000000016.33 000000000.001F00020000000000000000    80                                                                                                                                                                                                                                                                                                                  
12474520110900002G2675906759000001384618900218900000101PROVIDENCE               RI           5 D                00                                      NNNN00 N 00                   000000000000                                                                   78906988 0000000000000.00 0000000000000.00 0000000000000.00 0000000000000.00 0000000000000.00                                                                                                                                                                                                                                                                                                                                                          
12474530110900043DT67590675900000138461890021890000010189002124001195185900017060836070420250000000057818525000000000023515465098XXXXXX7544       VK04VS111111111   NYV1 A E465186020020672N84000000000057868N200    07DNVERIFYVEND855-5539974    053182    VD84000000000578 N  654078906988                            000000000+             F64F DF 10439                     000000000  Y000000000 331   0000000000000.00 0000000.00   0000000.00                             000000000000000                                                                                                                                                     01424 F000000000000 0000000000000.22     00050 02200                  
12474540110900001E167590675900000138461890021890000010100E0F8C80075 00000000000.00404040404040404040404040404040404040404040404040401F420760A00000000010030273000000004000000000000000000000000000  0000084000600000000000250704912A2B06EBAF429F03F23046238800000840404040404040404040404040404040403EA4C4520086000000000000000000004040401F40404040 000000005.78 000000000.001F00020000000000000000    80                                                                                                                                                                                                                                                                                                                  
12474550110900002G2675906759000001384618900218900000101PROVIDENCE               RI           5 D                00                                      NNNN00 N 00                   000000000000                                                                   78906988 0000000000000.00 0000000000000.00 0000000000000.00 0000000000000.00 0000000000000.00                                                                                                                                                                                                                                                                                                                                                          
12474560110900044DT67590675900000138461890021890000010189002124001195185900017060844070420250000000057818525000000000023515403163XXXXXX9737       VK04VS111111111   NYV1 A E305186027196487N840000000000578M8MZ00    07DNVERIFYVEND855-5539974    664087    VD84000000000578 N  654078906988                            000000000+             F64F PF 08165                     000000000  N000000000       0000000000000.00 0000000.00   0000000.00                             000000000000000                                                                                                                                                     01424 F000000000000 0000000000000.14     01600 00500                  
12474570110900001E167590675900000138461890021890000010100E0F8C80045 00000000000.004040404040404040404040404040404040404040404040404006011203A00000000000000000000000404040404040404040404040404040  00000840000000000000002507040B64F166CCC125BAC325B8B22070000008404040404040404040404040404040404031011173B0CEBF3030300000000000004040401F40404040 000000005.78 000000000.001F00020000000000000000    80                                                                                                                                                                                                                                                                                                                  
12474580110900002G2675906759000001384618900218900000101PROVIDENCE               RI           5 P                00                                      NNNN00 N 00                   000000000000                                                                   78906988 0000000000000.00 0000000000000.00 0000000000000.00 0000000000000.00 0000000000000.00                                                                                                                                                                                                                                                                                                                                                          
12474590110900045DT67590675900000138461890021890000010189002124001195185900017060851070420250000000057818525000000000023515486007XXXXXX4591       VK04VS111111111   NYV1 A E585186028793932N8400000000005789R2Q00    07DNVERIFYVEND855-5539974    187115    VD84000000000578 N  654078906988                            000000000+             F64F PF 08165                     000000000  N000000000       0000000000000.00 0000000.00   0000000.00                             000000000000000                                                                                                                                                     01424 F000000000000 0000000000000.14     01600 00500                  
12474600110900001E167590675900000138461890021890000010100E0F8C801E9 00000000000.00404040404040404040404040404040404040404040404040401F42FF60A00000000010030273000000004000000000000000000000000000  000008400060000000000025070425AE9AE223F57D661340CC0D238800000840404040404040404040404040404040404D247D460086000000000000000000004040401F40404040 000000005.78 000000000.001F00020000000000000000    80                                                                                                                                                                                                                                                                                                                  
12474610110900002G2675906759000001384618900218900000101PROVIDENCE               RI           5 P                00                                      NNNN00 N 00                   000000000000                                                                   78906988 0000000000000.00 0000000000000.00 0000000000000.00 0000000000000.00 0000000000000.00                                                                                                                                                                                                                                                                                                                                                          
12474620110900046DT67590675900000138461890021890000010189002177287285185900017060861070420250000000479818525000000000023515519882XXXXXX6498       MS02WI09          NY 1 0 AMDJ7DGK460704  N840000000004798          07DNVERIFYVEND855-5539974    065912    MD84000000004798 N  654078906988                            000000000+M10101M0034C F64MDJ  00402                     000000000  N                0000000000000.00 0000000.00   0000000.00                             000000000000000                                                                                                                                                   CD01424  000000000000 0000000000000.65     01050 01500                  
12474630110900001E167590675900000138461890021890000010100E008C8010F 00000000000.00404040404040404040404040404040404040404040404040400110A04001220000000000000000000000FF00000000000000000000000000  00000840198000800080012507040C1ED13D385E786986B16C3B084000000840A0000000041010000000000000000000404040404040404040404040404040404040401F40404040 000000047.98 000000000.001F03020000000000000000    80                                                                                                                                                                                                                                                                                                                  
12474640110900002G2675906759000001384618900218900000101PROVIDENCE               RI           5 J                                                        NNNN              0000000000000000000000002010001                 7                                          78906988 0000000000000.00 0000000000000.00 0000000000000.00 0000000000000.00 0000000000000.00                                                                                                                                                                                                                                                                                                                                                          
12474650110900047DT67590675900000138461890021890000033089002176759005185900017060872070420250000000782518525000000000023515486169XXXXXX6395                         NY42 0 N               N840000000007825      PL  07DNVERIFYVEND855-5539974    653574    DB84000000007825 N  654078906988                            000000000+                     09631                                N          PU0   0000000000000.00 0000000.00   0000000.00                             000000000000000                                                                                                                                                     01424  000000000000 0000000000000.78     00800 00000                  
12474660110900001G2675906759000001384618900218900000330PROVIDENCE               RI           5 D                00                                      NNNN                          000000000000                                                                   78906988 0000000000000.00 0000000000000.00 0000000000000.00 0000000000000.00 0000000000000.00                                                                                                                                                                                                                                                                                                                                                          
12474670110900048DT67590675900000138461890021890000033089002176759005185900017060880070420250000000752518525000000000023515486169XXXXXX6395                         NY42 0 N               N840000000007525      PL  07DNVERIFYVEND855-5539974    691451    DB84000000007525 N  654078906988                            000000000+                     09631                                N          PU0   0000000000000.00 0000000.00   0000000.00                             000000000000000                                                                                                                                                     01424  000000000000 0000000000000.75     00800 00000                  
12474680110900001G2675906759000001384618900218900000330PROVIDENCE               RI           5 D                00                                      NNNN                          000000000000                                                                   78906988 0000000000000.00 0000000000000.00 0000000000000.00 0000000000000.00 0000000000000.00                                                                                                                                                                                                                                                                                                                                                          
12474690110900049BH6759067590000013846189002189000090170704202518525000000000012381    0000090001528756Y8900216759C07072025152                                                                                                                                                                                                                                                                                                                                                                                                                                                                                                                                                                                              
12474700110900050DT67590675900000138461890021890000033089002176759005185900015287535070420250000000241618525000000000012381434257XXXXXX6871                         NY 2 0 N               N840000000002416      IL  07DNVERIFYVEND855-5539974    053936    DB84000000002416 N  654078383129                            000000000+                     09580                                Y          342   0000000000000.00 0000000.00   0000000.00                             000000000000000                                                                                                                                                     01424  000000000000 0000000000000.23     00050 00000                  
12474710110900001G2675906759000001384618900218900000330PROVIDENCE               RI           5 D                00                                      NNNN                          000000000000                                                                   78383129 0000000000000.00 0000000000000.00 0000000000000.00 0000000000000.00 0000000000000.00                                                                                                                                                                                                                                                                                                                                                          
12474720110900051DT67590675900000138461890021890000033089002176759005185900015287543070420250000000239918525000000000012381490615XXXXXX3248                         NY42 0 N               N840000000002399      PL  90DNVERIFYVEND855-5539974    194293    DB84000000002399 N  654078383129                            000000000+                     09628                                N                0000000000000.00 0000000.00   0000000.00                             000000000000000                                                                                                                                                     01424  000000000000 0000000000000.34     00800 00000                  
12474730110900001G2675906759000001384618900218900000330PROVIDENCE               RI           5 D                00                                      NNNN                          000000000000                                                                   78383129 0000000000000.00 0000000000000.00 0000000000000.00 0000000000000.00 0000000000000.00                                                                                                                                                                                                                                                                                                                                                          
12474740110900052DT67590675900000138461890021890000010189002177287285185900015287557070420250000000388518525000000000012381517805XXXXXX0467       MS02WI09          NY 1 0 AMCW132D500704  N840000000003885          07DNVERIFYVEND855-5539974    09040S    MC84000000003885 N  654078383129                            000000000+M10101M0034C F64MCW  02184                     000000000  N                0000000000000.00 0000000.00   0000000.00                             000000000000000                                                                                                                                                   HV01424  000000000000 0000000000000.99     02300 01000                  
12474750110900001E167590675900000138461890021890000010100E008C8004D 00000000000.00404040404040404040404040404040404040404040404040400110A04001220000000000000000000000FF00000000000000000000000000  000108401980008000800125070408E886970CCDECC355678038084000000840A0000000041010000000000000000000404040404040404040404040404040404040401F40404040 000000038.85 000000000.001F03020000000000000000    80                                                                                                                                                                                                                                                                                                                  
12474760110900002G2675906759000001384618900218900000101PROVIDENCE               RI           5 W                                                        NNNN              0000000000000000000000002010001                 7                                          78383129 0000000000000.00 0000000000000.00 0000000000000.00 0000000000000.00 0000000000000.00                                                                                                                                                                                                                                                                                                                                                          
12474770110900053DT67590675900000138461890021890000033089002176759005185900015287568070420250000000368118525000000000012381403163XXXXXX7743                         NY42 0 N               N840000000003681      PL  05DNVERIFYVEND855-5539974    628182    DB84000000003681 N  654078383129                            000000000+                     09631                                N          PU0   0000000000000.00 0000000.00   0000000.00                             000000000000000                                                                                                                                                     01424  000000000000 0000000000000.44     00800 00000                  
12474780110900001G2675906759000001384618900218900000330PROVIDENCE               RI           5 P                00                                      NNNN                          000000000000                                                                   78383129 0000000000000.00 0000000000000.00 0000000000000.00 0000000000000.00 0000000000000.00                                                                                                                                                                                                                                                                                                                                                          
12474790110900054BH6759067590000013846189002189000090170704202518525000000000005163    0000090001902483Y8900216759C07072025790                                                                                                                                                                                                                                                                                                                                                                                                                                                                                                                                                                                              
12474800110900055DT67590675900000138461890021890000033089002176759005185900019024835070420250000000516318525000000000005163487917XXXXXX9279                         NY 2 0 N               N840000000005163      IL  07DNVERIFYVEND855-5539974    114378    DB84000000005163 N  654076531007                            000000000+                     09573                                N          121   0000000000000.00 0000000.00   0000000.00                             000000000000000                                                                                                                                                     01424  000000000000 0000000000000.56     00800 00000                  
12474810110900001G2675906759000001384618900218900000330PROVIDENCE               RI           5 D                00                                      NNNN                          000000000000                                                                   76531007 0000000000000.00 0000000000000.00 0000000000000.00 0000000000000.00 0000000000000.00                                                                                                                                                                                                                                                                                                                                                          
12474820110900056BH6759067590000013846189002189000090170704202518525000000000050623    0000090001398428Y8900216759C07072025539                                                                                                                                                                                                                                                                                                                                                                                                                                                                                                                                                                                              
12474830110900057DT67590675900000138461890021890000033089002176759005185900013984257070420250000001102718525000000000050623423223XXXXXX7661                         NY42 0 N               N840000000011027      ST  07DNVERIFYVEND855-5539974    072136    DB84000000011027 N  654078383823                            000000000+                     12559                                N          STD   0000000000000.00 0000000.00   0000000.00                             000000000000000                                                                                                                                                     01424  000000000000 0000000000002.05     01450 00000                  
12474840110900001G2675906759000001384618900218900000330PROVIDENCE               RI           5 D                00                                      NNNN                          000000000000                                                                   78383823 0000000000000.00 0000000000000.00 0000000000000.00 0000000000000.00 0000000000000.00                                                                                                                                                                                                                                                                                                                                                          
12474850110900058DT67590675900000138461890021890000033089002176759005185900013984265070420250000002134718525000000000050623442756XXXXXX6863                         NY42 0 N               N840000000021347      PL  07DNVERIFYVEND855-5539974    053420    DB84000000021347 N  654078383823                            000000000+                     09635                                Y          PU1   0000000000000.00 0000000.00   0000000.00                             000000000000000                                                                                                                                                     01424  000000000000 0000000000000.33     00050 00000                  
12474860110900001G2675906759000001384618900218900000330PROVIDENCE               RI           5 D                00                                      NNNN                          000000000000                                                                   78383823 0000000000000.00 0000000000000.00 0000000000000.00 0000000000000.00 0000000000000.00                                                                                                                                                                                                                                                                                                                                                          
12474870110900059DT67590675900000138461890021890000010189002177287285185900013984270070420250000000870118525000000000050623517805XXXXXX6165       MS02WI09          NY 1 0 AMWE60QA460704  N840000000008701          07DNVERIFYVEND855-5539974    03423P    MC84000000008701 N  654078383823                            000000000+M10101M0034C F64MWE  00739                     000000000  N                0000000000000.00 0000000.00   0000000.00                             000000000000000                                                                                                                                                   WE01424  000000000000 0000000000002.10     02300 01000                  
12474880110900001E167590675900000138461890021890000010100E008C80499 00000000000.00404040404040404040404040404040404040404040404040400110A04001220000000000000000000000FF00000000000000000000000000  000108401980008000800125070452CE15BF9975E47F175CAF5E084000000840A0000000041010000000000000000000404040404040404040404040404040404040401F40404040 000000087.01 000000000.001F03020000000000000000    80                                                                                                                                                                                                                                                                                                                  
12474890110900002G2675906759000001384618900218900000101PROVIDENCE               RI           5 E                                                        NNNN              0000000000000000000000002010001                 7                                          78383823 0000000000000.00 0000000000000.00 0000000000000.00 0000000000000.00 0000000000000.00                                                                                                                                                                                                                                                                                                                                                          
12474900110900060DT67590675900000138461890021890000033089002176759005185900013984281070420250000000954818525000000000050623483316XXXXXX4262                         NY 2 0 N               N840000000009548      IL  07DNVERIFYVEND855-5539974    024320    DB84000000009548 N  654078383823                            000000000+                     09580                                Y          342   0000000000000.00 0000000.00   0000000.00                             000000000000000                                                                                                                                                     01424  000000000000 0000000000000.27     00050 00000                  
12474910110900001G2675906759000001384618900218900000330PROVIDENCE               RI           5 D                00                                      NNNN                          000000000000                                                                   78383823 0000000000000.00 0000000000000.00 0000000000000.00 0000000000000.00 0000000000000.00                                                                                                                                                                                                                                                                                                                                                          
12474920110900061BH6759067590000013846189002189000090170704202518525000000000015225    0000090001037226Y8900216759C07072025703                                                                                                                                                                                                                                                                                                                                                                                                                                                                                                                                                                                              
12474930110900062DT67590675900000138461890021890000010189002124001195185900010372238070420250000000081818525000000000015225465992XXXXXX4586       VK04VS111111111   NYV1 A E465186015012586N840000000000818ZBX600    07DNVERIFYVEND855-5539974    636205    VD84000000000818 N  654079007324                            000000000+             F64F DF 00451                     000000000  N000000000 214   0000000000000.00 0000000.00   0000000.00                             000000000000000                                                                                                                                                     01424 F000000000000 0000000000000.17     01550 00400                  
12474940110900001E167590675900000138461890021890000010100E0F8C80099 00000000000.00404040404040404040404040404040404040404040404040401F42FF60A00000000010030273000000004000000000000000000000000000  00000840006000000000002507043050DBC9EBBFC0CEC16DD85A238800000840404040404040404040404040404040408DC514D80086000000000000000000004040401F40404040 000000008.18 000000000.001F00020000000000000000    80                                                                                                                                                                                                                                                                                                                  
12474950110900002G2675906759000001384618900218900000101PROVIDENCE               RI           5 D                00                                      NNNN00 N 00                   000000000000                                                                   79007324 0000000000000.00 0000000000000.00 0000000000000.00 0000000000000.00 0000000000000.00                                                                                                                                                                                                                                                                                                                                                          
12474960110900063DT67590675900000138461890021890000033089002176759005185900010372241070420250000000238818525000000000015225419455XXXXXX0030                         NY 2 0 N               N840000000002388      IL  07DNVERIFYVEND855-5539974    851029    DB84000000002388 N  654079007324                            000000000+                     09573                                N          121   0000000000000.00 0000000.00   0000000.00                             000000000000000                                                                                                                                                     01424  000000000000 0000000000000.34     00800 00000                  
12474970110900001G2675906759000001384618900218900000330PROVIDENCE               RI           5 D                00                                      NNNN                          000000000000                                                                   79007324 0000000000000.00 0000000000000.00 0000000000000.00 0000000000000.00 0000000000000.00                                                                                                                                                                                                                                                                                                                                                          
12474980110900064DT67590675900000138461890021890000010189002177287285185900010372255070420250000000322418525000000000015225510805XXXXXX0743       MS02WI09          NY 1 0 AMDJ6YXE460704  N840000000003224          07DNVERIFYVEND855-5539974    093901    MD84000000003224 N  654079007324                            000000000+M10101M0034C F64MDJ  10815                     000000000  1                0000000000000.00 0000000.00   0000000.00                             000000000000000                                                                                                                                                   RF01424  000000000000 0000000000000.24     00050 02200                  
12474990110900001E167590675900000138461890021890000010100E008C803C7 00000000000.00404040404040404040404040404040404040404040404040400110A04001220000000000000000000000FF00000000000000000000000000  0000084019800080008001250704D6ABDC74FAD7E0B9CE33FCA2084000000840A0000000041010000000000000000000404040404040404040404040404040404040401F40404040 000000032.24 000000000.001F03020000000000000000    80                                                                                                                                                                                                                                                                                                                  
12475000110900002G2675906759000001384618900218900000101PROVIDENCE               RI           5 J                                                        NNNN              0000000000000000000000002010001                 7                                          79007324 0000000000000.00 0000000000000.00 0000000000000.00 0000000000000.00 0000000000000.00                                                                                                                                                                                                                                                                                                                                                          
12475010110900065DT67590675900000138461890021890000010189002177287285185900010372263070420250000000879518525000000000015225542418XXXXXX9850       MS02WI09          NY 1 0 AMPL5JO0600704  N840000000008795          07DNVERIFYVEND855-5539974    91508B    MC84000000008795 N  654079007324                            000000000+M10101M0034C F64MPL  00353                     000000000  N                0000000000000.00 0000000.00   0000000.00                             000000000000000                                                                                                                                                   EV01424  000000000000 0000000000001.68     01800 01000                  
12475020110900001E167590675900000138461890021890000010100E008C80016 00000000000.00404040404040404040404040404040404040404040404040400110A04001220000000000000000000000FF00000000000000000000000000  0001084019800080008001250704D9BDFC7E5F4ED3B058F1C83D084000000840A00000000410100000000000000000004094B3FDBCC55C6E00120000000000004040401F40404040 000000087.95 000000000.001F03020000000000000000    80                                                                                                                                                                                                                                                                                                                  
12475030110900002G2675906759000001384618900218900000101PROVIDENCE               RI           5 L                                                        NNNN              0000000000000000000000002010001                 7                                          79007324 0000000000000.00 0000000000000.00 0000000000000.00 0000000000000.00 0000000000000.00                                                                                                                                                                                                                                                                                                                                                          
12475040110900066BH6759067590000013846189002189000090170704202518525000000000013025    0000090001721197Y8900216759C07072025372                                                                                                                                                                                                                                                                                                                                                                                                                                                                                                                                                                                              
12475050110900067DT67590675900000138461890021890000033089002176759005185900017211970070420250000001302518525000000000013025483313XXXXXX1474                         NY 2 0 N               N840000000013025      IL  07DNVERIFYVEND855-5539974    072821    DB84000000013025 N  654077418715                            000000000+                     09580                                Y          342   0000000000000.00 0000000.00   0000000.00                             000000000000000                                                                                                                                                     01424  000000000000 0000000000000.29     00050 00000                  
12475060110900001G2675906759000001384618900218900000330PROVIDENCE               RI           5 D                00                                      NNNN                          000000000000                                                                   77418715 0000000000000.00 0000000000000.00 0000000000000.00 0000000000000.00 0000000000000.00                                                                                                                                                                                                                                                                                                                                                          
12475070110900068BH6759067590000013846189002189000090170704202518525000000000007321    0000090001171320Y8900216759C07072025417                                                                                                                                                                                                                                                                                                                                                                                                                                                                                                                                                                                              
12475080110900069DT67590675900000138461890021890000033089002176759005185900011713203070420250000000732118525000000000007321483313XXXXXX2033                         NY 2 0 N               N840000000007321      IL  07DNVERIFYVEND855-5539974    024219    DB84000000007321 N  654077419016                            000000000+                     09580                                Y          342   0000000000000.00 0000000.00   0000000.00                             000000000000000                                                                                                                                                     01424  000000000000 0000000000000.26     00050 00000                  
12475090110900001G2675906759000001384618900218900000330PROVIDENCE               RI           5 D                00                                      NNNN                          000000000000                                                                   77419016 0000000000000.00 0000000000000.00 0000000000000.00 0000000000000.00 0000000000000.00                                                                                                                                                                                                                                                                                                                                                          
12475100110900070BH6759067590000013846189002189000090170704202518525000000000039983    0000090001980205Y8900216759C07072025398                                                                                                                                                                                                                                                                                                                                                                                                                                                                                                                                                                                              
12475110110900071DT67590675900000138461890021890000010189002124001195185900019802011070420250000000439918525000000000039983436618XXXXXX9612       VS11    0001111   NYV1 A E385186020411251N840000000004399K3JW00    05DNVERIFYVEND855-5539974    029755    VD84000000004399 N  654079007547                            000000000+             F64F DF 10433                     000000000  Y000000000 338   0000000000000.00 0000000.00   0000000.00                             000000000000000                                                                                                                                                     01424 A000000000000 0000000000000.24     00050 02200                  
