00012420307490002BH6759067590000001427480010280000090170613202316423000000000631512    0000090001186107Y8001026759C06142023118                                                                                                                                                                                                                                                                                                                                                                                                                                                                                                                                                                                              
00012430307490003DT67590675900000014274800102800000010180010224001193164900011848764061220230000000600416423000000000631512403766XXXXXX2504               2111111   NYV4 A7W583160330500213N84000000000600468L600    01DNCBD8666317293            409001    VS84000000006004 NDR549977145232   CD82D37F98TC0501C9CFF68  000000000+                C CC 12108                     000000000  N000000000 496   0000000000000.00 0000000.00   0000000.00                             000000000000000                                                                                                                                                     01424 G000000006004 0000000000001.33     02050 01000                  
00012440307490003DR675906759000000142748001028000000101CD82D37F98TC0501C9CFF68  Y000000006004                 P1                                                                                                                                                                                                                                                                                                                                                                                                                                                                                                                                                                                                            
00012450307490001P16759067590000001427480010280000001010000000000000000                             2000000000000000000000000              000000000000                    0000000000000000000000000                    000000000000                                                                                                                                                                                                                                                                                                                                                                                                                                                                                        
00012460307490002G2675906759000000142748001028000000101866-6317293              GA           9 C                00                                      NNNN   Y                      000000000000                                                                   77145232                                                                                                                                                                                                                                                                                                                                                                                                                                               
00012470307490004DT67590675900000014274800102800000010180010287287283164900011848849061220230000001200816423000000000631512515678XXXXXX0856       ME03KE06MS02      NY 4607AMWEO1OS9T0609  N840000000012008          81DNCBD8666317293            07704Z    MC84000000012008 NDR549977145232   B33F6D7F86T89C0B104334A  000000000+600450S00130    MWE  00737                     000000000  N                0000000000000.00 0000000.00   0000000.00                             000000000000000                                                                                                                                                   U001424  000000000000 0000000000003.22     02600 01000                  
00012480307490004DR675906759000000142748001028000000101B33F6D7F86T89C0B104334A  Y000000000000                                                                                                                                                                                                                                                                                                                                                                                                                                                                                                                                                                                                                               
00012490307490001G2675906759000000142748001028000000101866-6317293              GA           9 E               210                                      NNNN           210000000000000000000000000                        7                                          77145232                                                                                                                                                                                                                                                                                                                                                                                                                                               
00012500307490005DT67590675900000014274800102800000010180010224001193164900011849291061220230000001987016423000000000631512473702XXXXXX2176               2111111   NYV4 A7W463160477139825N840000000019870NQQX00    01DNCBD8666317293            090502    VD84000000019870 NDR549977145232   DDAFD2258ATA75A4F21F037  000000000+                F DF 10420                     000000000  Y000000000 338   0000000000000.00 0000000.00   0000000.00                             000000000000000                                                                                                                                                     01424 G000000019870 0000000000000.32     00050 02200                  
00012510307490005DR675906759000000142748001028000000101DDAFD2258ATA75A4F21F037  Z000000019870                 P1                                                                                                                                                                                                                                                                                                                                                                                                                                                                                                                                                                                                            
00012520307490001P16759067590000001427480010280000001010000000000000000                             2000000000000000000000000              000000000000                    0000000000000000000000000                    000000000000                                                                                                                                                                                                                                                                                                                                                                                                                                                                                        
00012530307490002G2675906759000000142748001028000000101866-6317293              GA           9 D                00                                      NNNN   N                      000000000000                                                                   77145232                                                                                                                                                                                                                                                                                                                                                                                                                                               
00012540307490006DT67590675900000014274800102800000010180010224001193164900011850190061220230000000636416423000000000631512401105XXXXXX9347               2111111   NYV4 A7W303160597056092N840000000006364QRPJ00    01DNCBD8666317293            009771    VD84000000006364 NDR549977145232   799648BD58T643F31D0A20D  000000000+                F DF 10420                     000000000  Y000000000 338   0000000000000.00 0000000.00   0000000.00                             000000000000000                                                                                                                                                     01424 G000000006364 0000000000000.25     00050 02200                  
00012550307490006DR675906759000000142748001028000000101799648BD58T643F31D0A20D  Y000000006364                 P1                                                                                                                                                                                                                                                                                                                                                                                                                                                                                                                                                                                                            
00012560307490001P16759067590000001427480010280000001010000000000000000                             2000000000000000000000000              000000000000                    0000000000000000000000000                    000000000000                                                                                                                                                                                                                                                                                                                                                                                                                                                                                        
00012570307490002G2675906759000000142748001028000000101866-6317293              GA           9 D                00                                      NNNN   N                      000000000000                                                                   77145232                                                                                                                                                                                                                                                                                                                                                                                                                                               
00012580307490007DT67590675900000014274800102800000010180010224001193164900011851164061220230000001799116423000000000631512400570XXXXXX6674               2111111   NYV4 A7W303160696053709N8400000000179913KW400    01DNCBD8666317293            622847    VD84000000017991 NDR549977145232   233C9DCCBBT55F430104AFE  000000000+                F DF 10420                     000000000  Y000000000 338   0000000000000.00 0000000.00   0000000.00                             000000000000000                                                                                                                                                     01424 G000000017991 0000000000000.31     00050 02200                  
00012590307490007DR675906759000000142748001028000000101233C9DCCBBT55F430104AFE  Y000000017991                 P1                                                                                                                                                                                                                                                                                                                                                                                                                                                                                                                                                                                                            
00012600307490001P16759067590000001427480010280000001010000000000000000                             2000000000000000000000000              000000000000                    0000000000000000000000000                    000000000000                                                                                                                                                                                                                                                                                                                                                                                                                                                                                        
00012610307490002G2675906759000000142748001028000000101866-6317293              GA           9 D                00                                      NNNN   N                      000000000000                                                                   77145232                                                                                                                                                                                                                                                                                                                                                                                                                                               
00012620307490008DT67590675900000014274800102800000010180010287287283164900011851405061220230000000642416423000000000631512534860XXXXXX6818                         NY 4607AMDBXD36GF0609  N840000000006424          81DNCBD8666317293            115905    MD84000000006424 NDR549977145232                            000000000+600450S00130    MDB  10788                     000000000  1                0000000000000.00 0000000.00   0000000.00                             000000000000000                                                                                                                                                   U001424  000000000000 0000000000000.25     00050 02200                  
00012630307490008DR675906759000000142748001028000000101                         Y000000000000                 P1                                                                                                                                                                                                                                                                                                                                                                                                                                                                                                                                                                                                            
00012640307490001P1675906759000000142748001028000000101                                                 000000420000000000000          8000   000000000871584967            000000000000                                                                                                                                                                                                                                                                                                                                                                                                                                                                                                                                    
00012650307490002G2675906759000000142748001028000000101866-6317293              GA           9 B               210                  871584967           YNNN           210000000000000000000000000                        7                                          77145232                                                                                                                                                                                                                                                                                                                                                                                                                                               
00012660307490009DT67590675900000014274800102800000010180010287287283164900011851652061220230000001400816423000000000631512537982XXXXXX2252       ME03KE06MS02      NY 4607AMPLSMIMSK0609  N840000000014008          81DNCBD8666317293            033512    MC84000000014008 NDR549977145232   AD555ABA70TFA24BB35F6A2  000000000+600450S00130    MPL  00013                     000000000  N                0000000000000.00 0000000.00   0000000.00                             000000000000000                                                                                                                                                   U001424  000000000000 0000000000002.83     01950 01000                  
00012670307490009DR675906759000000142748001028000000101AD555ABA70TFA24BB35F6A2  Y000000000000                                                                                                                                                                                                                                                                                                                                                                                                                                                                                                                                                                                                                               
00012680307490001G2675906759000000142748001028000000101866-6317293              GA           9 L               210                                      NNNN           210000000000000000000000000                        7                                          77145232                                                                                                                                                                                                                                                                                                                                                                                                                                               
00012690307490010DT67590675900000014274800102800000010180010224001193164900011851701061220230000002116216423000000000631512473931XXXXXX5280               2111111   NYV4 A7W303160789060047N840000000021162WFJV00    01DNCBD8666317293            009561    VS84000000021162 NDR549977145232   4AB9AC6894T41146AF00CCA  000000000+                A CA 12106                     000000000  N000000000 492   0000000000000.00 0000000.00   0000000.00                             000000000000000                                                                                                                                                     01424 G000000021162 0000000000004.10     01890 01000                  
00012700307490010DR6759067590000001427480010280000001014AB9AC6894T41146AF00CCA  Y000000021162                 P1                                                                                                                                                                                                                                                                                                                                                                                                                                                                                                                                                                                                            
00012710307490001P16759067590000001427480010280000001010000000000000000                             2000000000000000000000000              000000000000                    0000000000000000000000000                    000000000000                                                                                                                                                                                                                                                                                                                                                                                                                                                                                        
00012720307490002G2675906759000000142748001028000000101866-6317293              GA           9 C                00                                      NNNN   Y                      000000000000                                                                   77145232                                                                                                                                                                                                                                                                                                                                                                                                                                               
00012730307490011DT67590675900000014274800102800000010180010287287283164900011851736061220230000001498916423000000000631512542418XXXXXX4566       ME03KE06MS02      NY 4607AMPLYYISIW0609  N840000000014989          81DNCBD8666317293            89463B    MC84000000014989 NDR549977145232   300FB4BB3CTD3DA92089FA8  000000000+600450S00130    MPL  00580                     000000000  N                0000000000000.00 0000000.00   0000000.00                             000000000000000                                                                                                                                                   U001424  000000000000 0000000000003.25     02100 01000                  
00012740307490011DR675906759000000142748001028000000101300FB4BB3CTD3DA92089FA8  Y000000000000                                                                                                                                                                                                                                                                                                                                                                                                                                                                                                                                                                                                                               
00012750307490001G2675906759000000142748001028000000101866-6317293              GA           9 L               210                                      NNNN           210000000000000000000000000                        7                                          77145232                                                                                                                                                                                                                                                                                                                                                                                                                                               
00012760307490012DT67590675900000014274800102800000010180010224001193164900011851867061220230000002106216423000000000631512483950XXXXXX4268               2111111   NYV4 A7W463160822071771N840000000021062G2G600    01DNCBD8666317293            00222B    VS84000000021062 NDR549977145232   0F5EEF7A0BTAE7F42001E72  000000000+                B CB 12107                     000000000  N000000000 494   0000000000000.00 0000000.00   0000000.00                             000000000000000                                                                                                                                                     01424 G000000021062 0000000000004.40     02040 01000                  
00012770307490012DR6759067590000001427480010280000001010F5EEF7A0BTAE7F42001E72  Y000000021062                 P1                                                                                                                                                                                                                                                                                                                                                                                                                                                                                                                                                                                                            
00012780307490001P16759067590000001427480010280000001010000000000000000                             2000000000000000000000000              000000000000                    0000000000000000000000000                    000000000000                                                                                                                                                                                                                                                                                                                                                                                                                                                                                        
00012790307490002G2675906759000000142748001028000000101866-6317293              GA           9 C                00                                      NNNN   Y                      000000000000                                                                   77145232                                                                                                                                                                                                                                                                                                                                                                                                                                               
00012800307490013DT67590675900000014274800102800000010180010224001193164900011851875061220230000001598416423000000000631512425836XXXXXX9627               2111111   NYV4 A7W463160822098125N840000000015984SK2Z00    01DNCBD8666317293            026093    VD84000000015984 NDR549977145232   F89171C044T6B5392053026  000000000+                F DF 10420                     000000000  Y000000000 338   0000000000000.00 0000000.00   0000000.00                             000000000000000                                                                                                                                                     01424 G000000015984 0000000000000.30     00050 02200                  
00012810307490013DR675906759000000142748001028000000101F89171C044T6B5392053026  Y000000015984                 P1                                                                                                                                                                                                                                                                                                                                                                                                                                                                                                                                                                                                            
00012820307490001P16759067590000001427480010280000001010000000000000000                             2000000000000000000000000              000000000000                    0000000000000000000000000                    000000000000                                                                                                                                                                                                                                                                                                                                                                                                                                                                                        
00012830307490002G2675906759000000142748001028000000101866-6317293              GA           9 D                00                                      NNNN   N                      000000000000                                                                   77145232                                                                                                                                                                                                                                                                                                                                                                                                                                               
00012840307490014DT67590675900000014274800102800000010180010287287283164900011851975061220230000001987016423000000000631512537835XXXXXX8634                         NY 4607AMDBPUV4I00609  N840000000019870          81DNCBD8666317293            001234    MD84000000019870 NDR549977145232   6A2206CF9BT03083F44893A  000000000+600450S00130    MDB  00062                     000000000  N                0000000000000.00 0000000.00   0000000.00                             000000000000000                                                                                                                                                   U001424  000000000000 0000000000005.37     02650 01000                  
00012850307490014DR6759067590000001427480010280000001016A2206CF9BT03083F44893A  Y000000000000                 P1                                                                                                                                                                                                                                                                                                                                                                                                                                                                                                                                                                                                            
00012860307490001P1675906759000000142748001028000000101                                                          000000000000          8000            871584967                                                                                                                                                                                                                                                                                                                                                                                                                                                                                                                                                            
00012870307490002G2675906759000000142748001028000000101866-6317293              GA           9 B               210                  871584967           YNNN           210000000000000000000000000                                                                   77145232                                                                                                                                                                                                                                                                                                                                                                                                                                               
00012880307490015DT67590675900000014274800102800000010180010224001193164900011859241061220230000002136016423000000000631512443045XXXXXX0016               2111111   NYV4 A7W383164000552023N840000000021360GMSN00    01DNCBD8666317293            567374    VD84000000021360 NDR549977145232   F8828360D1T2727844D0FDD  000000000+                F DF 10420                     000000000  Y000000000 338   0000000000000.00 0000000.00   0000000.00                             000000000000000                                                                                                                                                     01424 G000000021360 0000000000000.33     00050 02200                  
00012890307490015DR675906759000000142748001028000000101F8828360D1T2727844D0FDD  Y000000021360                 P1                                                                                                                                                                                                                                                                                                                                                                                                                                                                                                                                                                                                            
00012900307490001P16759067590000001427480010280000001010000000000000000                             2000000000000000000000000              000000000000                    0000000000000000000000000                    000000000000                                                                                                                                                                                                                                                                                                                                                                                                                                                                                        
00012910307490002G2675906759000000142748001028000000101866-6317293              GA           9 D                00                                      NNNN   N                      000000000000                                                                   77145232                                                                                                                                                                                                                                                                                                                                                                                                                                               
00012920307490016DT67590675900000014274800102800000010180010224001193164900011859258061220230000000223516423000000000631512443045XXXXXX0016               2111111   NYV4 A7W463164001391492N840000000002235HTQN00    01DNCBD8666317293            796015    VD84000000002235 NDR549977145232   F8828360D1T72FE10453607  000000000+                F DF 10420                     000000000  Y000000000 338   0000000000000.00 0000000.00   0000000.00                             000000000000000                                                                                                                                                     01424 G000000002235 0000000000000.23     00050 02200                  
00012930307490016DR675906759000000142748001028000000101F8828360D1T72FE10453607  Y000000002235                 P1                                                                                                                                                                                                                                                                                                                                                                                                                                                                                                                                                                                                            
00012940307490001P16759067590000001427480010280000001010000000000000000                             2000000000000000000000000              000000000000                    0000000000000000000000000                    000000000000                                                                                                                                                                                                                                                                                                                                                                                                                                                                                        
00012950307490002G2675906759000000142748001028000000101866-6317293              GA           9 D                00                                      NNNN   N                      000000000000                                                                   77145232                                                                                                                                                                                                                                                                                                                                                                                                                                               
00012960307490017DT67590675900000014274800102800000010180010224001193164900011859282061220230000000019916423000000000631512412076XXXXXX8479               2111111   NYV4 A7W463164026596727N8400000000001995HTQ00    01DNCBD8666317293            903336    VS84000000000199 NDR549977145232   40532C22EET44A036F08418  000000000+                A CA 12106                     000000000  N000000000 492   0000000000000.00 0000000.00   0000000.00                             000000000000000                                                                                                                                                     01424 G000000000199 0000000000000.14     01890 01000                  
00012970307490017DR67590675900000014274800102800000010140532C22EET44A036F08418  Y000000000199                 P1                                                                                                                                                                                                                                                                                                                                                                                                                                                                                                                                                                                                            
00012980307490001P16759067590000001427480010280000001010000000000000000                             2000000000000000000000000              000000000000                    0000000000000000000000000                    000000000000                                                                                                                                                                                                                                                                                                                                                                                                                                                                                        
00012990307490002G2675906759000000142748001028000000101866-6317293              GA           9 C                00                                      NNNN   N                      000000000000                                                                   77145232                                                                                                                                                                                                                                                                                                                                                                                                                                               
00013000307490018DT67590675900000014274800102800000010180010287287283164900011859291061220230000000999816423000000000631512542000XXXXXX3580       ME03KE06MS02      NY 4607AMDJPQEOB50612  N840000000009998          81DNCBD8666317293            462397    MD84000000009998 NDR549977145232   D65D25E6E7TC1329E3E480D  000000000+600450S00130    MDJ  00401                     000000000  N                0000000000000.00 0000000.00   0000000.00                             000000000000000                                                                                                                                                   U001424  000000000000 0000000000001.80     01650 01500                  
00013010307490018DR675906759000000142748001028000000101D65D25E6E7TC1329E3E480D  Y000000000000                                                                                                                                                                                                                                                                                                                                                                                                                                                                                                                                                                                                                               
00013020307490001G2675906759000000142748001028000000101866-6317293              GA           9 J               210                                      NNNN           210000000000000000000000000                        7                                          77145232                                                                                                                                                                                                                                                                                                                                                                                                                                               
00013030307490019DT67590675900000014274800102800000010180010224001193164900011859357061220230000000160016423000000000631512410793XXXXXX1426               2111111   NYV4 A7W303164059704937N84000000000160027DL00    01DNCBD8666317293            022193    VS84000000001600 NDR549977145232   FB1469F8FETEECAFEBD0F37  000000000+                C CC 12108                     000000000  N000000000 496   0000000000000.00 0000000.00   0000000.00                             000000000000000                                                                                                                                                     01424 G000000001600 0000000000000.43     02050 01000                  
00013040307490019DR675906759000000142748001028000000101FB1469F8FETEECAFEBD0F37  Y000000001600                 P1                                                                                                                                                                                                                                                                                                                                                                                                                                                                                                                                                                                                            
00013050307490001P16759067590000001427480010280000001010000000000000000                             2000000000000000000000000              000000000000                    0000000000000000000000000                    000000000000                                                                                                                                                                                                                                                                                                                                                                                                                                                                                        
00013060307490002G2675906759000000142748001028000000101866-6317293              GA           9 C                00                                      NNNN   Y                      000000000000                                                                   77145232                                                                                                                                                                                                                                                                                                                                                                                                                                               
00013070307490020DT67590675900000014274800102800000010180010224001193164900011859381061220230000002126116423000000000631512479235XXXXXX7521               2111111   NYV4 A7W383164061568318N840000000021261JV4200    01DNCBD8666317293            852158    VD84000000021261 NDR549977145232   028A2F809DT8A71C2C3A046  000000000+                F DF 00415                     000000000  N000000000       0000000000000.00 0000000.00   0000000.00                             000000000000000                                                                                                                                                     01424 G000000021261 0000000000003.66     01650 01500                  
00013080307490020DR675906759000000142748001028000000101028A2F809DT8A71C2C3A046  Y000000021261                 P1                                                                                                                                                                                                                                                                                                                                                                                                                                                                                                                                                                                                            
00013090307490001P16759067590000001427480010280000001010000000000000000                             2000000000000000000000000              000000000000                    0000000000000000000000000                    000000000000                                                                                                                                                                                                                                                                                                                                                                                                                                                                                        
00013100307490002G2675906759000000142748001028000000101866-6317293              GA           9 D                00                                      NNNN   N                      000000000000                                                                   77145232                                                                                                                                                                                                                                                                                                                                                                                                                                               
00013110307490021DT67590675900000014274800102800000010180010224001193164900011859399061220230000000542816423000000000631512434258XXXXXX1645               2111111   NYV4 A7W583164063272259N8400000000054289CJT00    01DNCBD8666317293            086293    VD84000000005428 NDR549977145232   CF15515609TEF19A7A6F3A6  000000000+                F DF 10420                     000000000  Y000000000 338   0000000000000.00 0000000.00   0000000.00                             000000000000000                                                                                                                                                     01424 G000000005428 0000000000000.25     00050 02200                  
00013120307490021DR675906759000000142748001028000000101CF15515609TEF19A7A6F3A6  Y000000005428                 P1                                                                                                                                                                                                                                                                                                                                                                                                                                                                                                                                                                                                            
00013130307490001P16759067590000001427480010280000001010000000000000000                             2000000000000000000000000              000000000000                    0000000000000000000000000                    000000000000                                                                                                                                                                                                                                                                                                                                                                                                                                                                                        
00013140307490002G2675906759000000142748001028000000101866-6317293              GA           9 D                00                                      NNNN   N                      000000000000                                                                   77145232                                                                                                                                                                                                                                                                                                                                                                                                                                               
00013150307490022DT67590675900000014274800102800000010180010224001193164900011859407061220230000000019916423000000000631512428836XXXXXX4330               2111111   NYV4 A7W583164064357300N840000000000199HZ4D00    01DNCBD8666317293            296TFR    VB84000000000199 NDR549977145232   E5D41012B9T79F4AF5CBD5F  000000000+                S CS 00692                     000000000  N000000000 237   0000000000000.00 0000000.00   0000000.00                             000000000000000                                                                                                                                                     01424 G000000000199 0000000000000.15     02700 01000                  
00013160307490022DR675906759000000142748001028000000101E5D41012B9T79F4AF5CBD5F  Y000000000199                 P1                                                                                                                                                                                                                                                                                                                                                                                                                                                                                                                                                                                                            
00013170307490001P16759067590000001427480010280000001010000000000000000                             2000000000000000000000000              000000000000                    0000000000000000000000000                    000000000000                                                                                                                                                                                                                                                                                                                                                                                                                                                                                        
00013180307490002G2675906759000000142748001028000000101866-6317293              GA           9 C                00                                      NNNN   N                      000000000000                                                                   77145232                                                                                                                                                                                                                                                                                                                                                                                                                                               
00013190307490023DT67590675900000014274800102800000010180010224001193164900011859449061220230000000019916423000000000631512428836XXXXXX9915               2111111   NYV4 A7W303164082448843N8400000000001996SRV00    01DNCBD8666317293            4HHN9S    VB84000000000199 NDR549977145232   A54C1D935ET1CFF96BB2F45  000000000+                S CS 00692                     000000000  N000000000 237   0000000000000.00 0000000.00   0000000.00                             000000000000000                                                                                                                                                     01424 G000000000199 0000000000000.15     02700 01000                  
00013200307490023DR675906759000000142748001028000000101A54C1D935ET1CFF96BB2F45  Y000000000199                 P1                                                                                                                                                                                                                                                                                                                                                                                                                                                                                                                                                                                                            
00013210307490001P16759067590000001427480010280000001010000000000000000                             2000000000000000000000000              000000000000                    0000000000000000000000000                    000000000000                                                                                                                                                                                                                                                                                                                                                                                                                                                                                        
00013220307490002G2675906759000000142748001028000000101866-6317293              GA           9 C                00                                      NNNN   N                      000000000000                                                                   77145232                                                                                                                                                                                                                                                                                                                                                                                                                                               
00013230307490024DT67590675900000014274800102800000010180010287287283164900011859457061220230000000019916423000000000631512534786XXXXXX1416                         NY 4607AMCOQ38DB50612  N840000000000199          81DNCBD8666317293            NUVOUU    MB84000000000199 NDR549977145232   EC10931BE2T71DA5A4B7076  000000000+600450S00130    MCO  00303                     000000000  N                0000000000000.00 0000000.00   0000000.00                             000000000000000                                                                                                                                                   U001424  000000000000 0000000000000.15     02700 01000                  
00013240307490024DR675906759000000142748001028000000101EC10931BE2T71DA5A4B7076  Y000000000000                 P1                                                                                                                                                                                                                                                                                                                                                                                                                                                                                                                                                                                                            
00013250307490001P1675906759000000142748001028000000101                                                          000000000000          8000            871584967                                                                                                                                                                                                                                                                                                                                                                                                                                                                                                                                                            
00013260307490002G2675906759000000142748001028000000101866-6317293              GA           9 O               210                  871584967           YNNN           210000000000000000000000000                                                                   77145232                                                                                                                                                                                                                                                                                                                                                                                                                                               
00013270307490025DT67590675900000014274800102800000010180010287287283164900011859481061220230000000019916423000000000631512556371XXXXXX4885                         NY 4607AMCFLJQQNY0612  N840000000000199          81DNCBD8666317293            YHK7ZN    MB84000000000199 NDR549977145232   425E416DB2T7CD409EC62EA  000000000+600450S00130    MCF  00060                     000000000  N                0000000000000.00 0000000.00   0000000.00                             000000000000000                                                                                                                                                   U001424  000000000000 0000000000000.16     02950 01000                  
00013280307490025DR675906759000000142748001028000000101425E416DB2T7CD409EC62EA  Y000000000000                 P1                                                                                                                                                                                                                                                                                                                                                                                                                                                                                                                                                                                                            
00013290307490001P1675906759000000142748001028000000101                                                          000000000000          8000            871584967                                                                                                                                                                                                                                                                                                                                                                                                                                                                                                                                                            
00013300307490002G2675906759000000142748001028000000101866-6317293              GA           9 F               210                  871584967           YNNN           210000000000000000000000000                                                                   77145232                                                                                                                                                                                                                                                                                                                                                                                                                                               
00013310307490026DT67590675900000014274800102800000010180010287287283164900011859507061220230000000019916423000000000631512534786XXXXXX2102                         NY 4607AMCOOQNCDT0612  N840000000000199          81DNCBD8666317293            WQBA3N    MB84000000000199 NDR549977145232   818B886A52TB83781E8DEC6  000000000+600450S00130    MCO  00303                     000000000  N                0000000000000.00 0000000.00   0000000.00                             000000000000000                                                                                                                                                   U001424  000000000000 0000000000000.15     02700 01000                  
00013320307490026DR675906759000000142748001028000000101818B886A52TB83781E8DEC6  Y000000000000                 P1                                                                                                                                                                                                                                                                                                                                                                                                                                                                                                                                                                                                            
00013330307490001P1675906759000000142748001028000000101                                                          000000000000          8000            871584967                                                                                                                                                                                                                                                                                                                                                                                                                                                                                                                                                            
00013340307490002G2675906759000000142748001028000000101866-6317293              GA           9 O               210                  871584967           YNNN           210000000000000000000000000                                                                   77145232                                                                                                                                                                                                                                                                                                                                                                                                                                               
00013350307490027DT67590675900000014274800102800000010180010287287283164900011859515061320230000000019916423000000000631512519075XXXXXX1302                         NY 4607AMCP0JPU5H0613  N840000000000199          81DNCBD8666317293            EK7CRD    MB84000000000199 NDR549977145232   13C7797386T0E644839F75A  000000000+600450S00130    MCP  00303                     000000000  N                0000000000000.00 0000000.00   0000000.00                             000000000000000                                                                                                                                                     01424  000000000000 0000000000000.15     02700 01000                  
00013360307490027DR67590675900000014274800102800000010113C7797386T0E644839F75A  Y000000000000                 P1                                                                                                                                                                                                                                                                                                                                                                                                                                                                                                                                                                                                            
00013370307490001P1675906759000000142748001028000000101                                                          000000000000          8000            871584967                                                                                                                                                                                                                                                                                                                                                                                                                                                                                                                                                            
00013380307490002G2675906759000000142748001028000000101866-6317293              GA           9 P               210                  871584967           YNNN           210000000000000000000000000                                                                   77145232                                                                                                                                                                                                                                                                                                                                                                                                                                               
00013390307490028DT67590675900000014274800102800000010180010224001193164900011859571061320230000000019916423000000000631512476715XXXXXX3531               2111111   NYV4 A7W463164269445126N840000000000199DQHB00    01DNCBD8666317293            4WV0P0    VB84000000000199 NDR549977145232   F7A6016729T0EBFCBA2DF88  000000000+                K CK 00691                     000000000  N000000000 234   0000000000000.00 0000000.00   0000000.00                             000000000000000                                                                                                                                                     01424 G000000000199 0000000000000.15     02700 01000                  
00013400307490028DR675906759000000142748001028000000101F7A6016729T0EBFCBA2DF88  Y000000000199                 P1                                                                                                                                                                                                                                                                                                                                                                                                                                                                                                                                                                                                            
00013410307490001P16759067590000001427480010280000001010000000000000000                             2000000000000000000000000              000000000000                    0000000000000000000000000                    000000000000                                                                                                                                                                                                                                                                                                                                                                                                                                                                                        
00013420307490002G2675906759000000142748001028000000101866-6317293              GA           9 C                00                                      NNNN   N                      000000000000                                                                   77145232                                                                                                                                                                                                                                                                                                                                                                                                                                               
00013430307490029DT67590675900000014274800102800000010180010224001193164900011859589061320230000000019916423000000000631512428813XXXXXX2294               2111111   NYV4 A7W463164302604360N84000000000019926FW00    01DNCBD8666317293            310084    VB84000000000199 NDR549977145232   581F38FD82TA5E730DF81DC  000000000+                S CS 00692                     000000000  N000000000 237   0000000000000.00 0000000.00   0000000.00                             000000000000000                                                                                                                                                     01424 G000000000199 0000000000000.15     02700 01000                  
00013440307490029DR675906759000000142748001028000000101581F38FD82TA5E730DF81DC  Y000000000199                 P1                                                                                                                                                                                                                                                                                                                                                                                                                                                                                                                                                                                                            
00013450307490001P16759067590000001427480010280000001010000000000000000                             2000000000000000000000000              000000000000                    0000000000000000000000000                    000000000000                                                                                                                                                                                                                                                                                                                                                                                                                                                                                        
00013460307490002G2675906759000000142748001028000000101866-6317293              GA           9 C                00                                      NNNN   N                      000000000000                                                                   77145232                                                                                                                                                                                                                                                                                                                                                                                                                                               
00013470307490030DT67590675900000014274800102800000010680010287287283164900011859598061320230000001200816423000000000631512546680XXXXXX6779                         NY 4607AMPLQB70F00613  N840000000012008          81CNCBD8666317293            013585    MC84000000012008 NDR549977145232   CAEC92C77BTCE60501EE5AE  000000000+600450S00130    MPL  00565                     000000000  N                0000000000000.00 0000000.00   0000000.00                             000000000000000                                                                                                                                                     01424  000000000000-0000000000002.10     01750 00000                  
00013480307490030DR675906759000000142748001028000000106CAEC92C77BTCE60501EE5AE  R000000000000                                                                                                                                                                                                                                                                                                                                                                                                                                                                                                                                                                                                                               
00013490307490001G2675906759000000142748001028000000106866-6317293              GA           9 L               210                                      NNNN           210000000000000000000000000                        7                                          77145232                                                                                                                                                                                                                                                                                                                                                                                                                                               
00013500307490031DT67590675900000014274800102800000010180010287287283164900011859606061320230000000019916423000000000631512534786XXXXXX8583                         NY 4607AMCOQCEUF00613  N840000000000199          81DNCBD8666317293            S1QC7Z    MB84000000000199 NDR549977145232   7F9100867CT9BBA7ABFBEF0  000000000+600450S00130    MCO  00303                     000000000  N                0000000000000.00 0000000.00   0000000.00                             000000000000000                                                                                                                                                   U001424  000000000000 0000000000000.15     02700 01000                  
00013510307490031DR6759067590000001427480010280000001017F9100867CT9BBA7ABFBEF0  Y000000000000                 P1                                                                                                                                                                                                                                                                                                                                                                                                                                                                                                                                                                                                            
00013520307490001P1675906759000000142748001028000000101                                                          000000000000          8000            871584967                                                                                                                                                                                                                                                                                                                                                                                                                                                                                                                                                            
00013530307490002G2675906759000000142748001028000000101866-6317293              GA           9 O               210                  871584967           YNNN           210000000000000000000000000                                                                   77145232                                                                                                                                                                                                                                                                                                                                                                                                                                               
00013540307490032DT67590675900000014274800102800000010180010287287283164900011859655061320230000000019916423000000000631512559292XXXXXX6209                         NY 4607AMCOLP2KFQ0613  N840000000000199          81DNCBD8666317293            XBNHBS    MB84000000000199 NDR549977145232   B28C750022TDFB23726B463  000000000+600450S00130    MCO  00303                     000000000  N                0000000000000.00 0000000.00   0000000.00                             000000000000000                                                                                                                                                     01424  000000000000 0000000000000.15     02700 01000                  
00013550307490032DR675906759000000142748001028000000101B28C750022TDFB23726B463  Y000000000000                 P1                                                                                                                                                                                                                                                                                                                                                                                                                                                                                                                                                                                                            
00013560307490001P1675906759000000142748001028000000101                                                          000000000000          8000            871584967                                                                                                                                                                                                                                                                                                                                                                                                                                                                                                                                                            
00013570307490002G2675906759000000142748001028000000101866-6317293              GA           9 O               210                  871584967           YNNN           210000000000000000000000000                                                                   77145232                                                                                                                                                                                                                                                                                                                                                                                                                                               
00013580307490033DT67590675900000014274800102800000010180010224001193164900011859662061320230000000019916423000000000631512440393XXXXXX6474               2111111   NYV4 A7W463164435735915N8400000000001998P7G00    01DNCBD8666317293            647332    VD84000000000199 NDR549977145232   D6A4C03F0DTF6C6000EC917  000000000+                F PF 08175                     000000000  N000000000       0000000000000.00 0000000.00   0000000.00                             000000000000000                                                                                                                                                     01424 G000000000199 0000000000000.23     01750 02000                  
00013590307490033DR675906759000000142748001028000000101D6A4C03F0DTF6C6000EC917  Y000000000199                 P1                                                                                                                                                                                                                                                                                                                                                                                                                                                                                                                                                                                                            
00013600307490001P16759067590000001427480010280000001010000000000000000                             2000000000000000000000000              000000000000                    0000000000000000000000000                    000000000000                                                                                                                                                                                                                                                                                                                                                                                                                                                                                        
00013610307490002G2675906759000000142748001028000000101866-6317293              GA           9 P                00                                      NNNN   N                      000000000000                                                                   77145232                                                                                                                                                                                                                                                                                                                                                                                                                                               
00013620307490034DT67590675900000014274800102800000010180010287287283164900011859671061320230000000639816423000000000631512514616XXXXXX3737       ME03KE06MS02      NY 4607AMDJA20GFR0613  N840000000006398          81DNCBD8666317293            F352E1    MD84000000006398 NDR549977145232   18AFC172D0T56DC2F614F90  000000000+600450S00130    MDJ  00401                     000000000  N                0000000000000.00 0000000.00   0000000.00                             000000000000000                                                                                                                                                   U001424  000000000000 0000000000001.21     01650 01500                  
00013630307490034DR67590675900000014274800102800000010118AFC172D0T56DC2F614F90  Y000000000000                                                                                                                                                                                                                                                                                                                                                                                                                                                                                                                                                                                                                               
00013640307490001G2675906759000000142748001028000000101866-6317293              GA           9 J               210                                      NNNN           210000000000000000000000000                        7                                          77145232                                                                                                                                                                                                                                                                                                                                                                                                                                               
00013650307490035DT67590675900000014274800102800000010180010224001193164900011859688061320230000000019916423000000000631512451946XXXXXX1012               2111111   NYV4 A7W583164461487185N8400000000001995T2J00    01DNCBD8666317293            4FB9BO    VS84000000000199 NDR549977145232   DA31F4FEDCT59E5CE65FE89  000000000+                A CA 12106                     000000000  N000000000 492   0000000000000.00 0000000.00   0000000.00                             000000000000000                                                                                                                                                     01424 G000000000199 0000000000000.14     01890 01000                  
00013660307490035DR675906759000000142748001028000000101DA31F4FEDCT59E5CE65FE89  Y000000000199                 P1                                                                                                                                                                                                                                                                                                                                                                                                                                                                                                                                                                                                            
00013670307490001P16759067590000001427480010280000001010000000000000000                             2000000000000000000000000              000000000000                    0000000000000000000000000                    000000000000                                                                                                                                                                                                                                                                                                                                                                                                                                                                                        
00013680307490002G2675906759000000142748001028000000101866-6317293              GA           9 C                00                                      NNNN   N                      000000000000                                                                   77145232                                                                                                                                                                                                                                                                                                                                                                                                                                               
00013690307490036DT67590675900000014274800102800000010180010287287283164900011859721061320230000002141016423000000000631512527519XXXXXX5946       ME03KE06MS02      NY 4607AMDJDSPPQE0613  N840000000021410          81DNCBD8666317293            150403    MD84000000021410 NDR549977145232   56D43F9075T964DB58D901B  000000000+600450S00130    MDJ  10813                     000000000  1                0000000000000.00 0000000.00   0000000.00                             000000000000000                                                                                                                                                   U001424  000000000000 0000000000000.33     00050 02200                  
00013700307490036DR67590675900000014274800102800000010156D43F9075T964DB58D901B  Y000000000000                                                                                                                                                                                                                                                                                                                                                                                                                                                                                                                                                                                                                               
00013710307490001G2675906759000000142748001028000000101866-6317293              GA           9 J               210                                      NNNN           210000000000000000000000000                        7                                          77145232                                                                                                                                                                                                                                                                                                                                                                                                                                               
00013720307490037DT67590675900000014274800102800000010180010224001193164900011859738061320230000000019916423000000000631512428813XXXXXX1608               2111111   NYV4 A7W383164514338259N8400000000001999DQ200    01DNCBD8666317293            476557    VB84000000000199 NDR549977145232   7F31BD9197T2BBD32F8FB67  000000000+                S CS 00692                     000000000  N000000000 237   0000000000000.00 0000000.00   0000000.00                             000000000000000                                                                                                                                                     01424 G000000000199 0000000000000.15     02700 01000                  
00013730307490037DR6759067590000001427480010280000001017F31BD9197T2BBD32F8FB67  Y000000000199                 P1                                                                                                                                                                                                                                                                                                                                                                                                                                                                                                                                                                                                            
00013740307490001P16759067590000001427480010280000001010000000000000000                             2000000000000000000000000              000000000000                    0000000000000000000000000                    000000000000                                                                                                                                                                                                                                                                                                                                                                                                                                                                                        
00013750307490002G2675906759000000142748001028000000101866-6317293              GA           9 C                00                                      NNNN   N                      000000000000                                                                   77145232                                                                                                                                                                                                                                                                                                                                                                                                                                               
00013760307490038DT67590675900000014274800102800000010180010224001193164900011859761061320230000000129516423000000000631512414709XXXXXX5396               2111111   NYV4 A7W463164538145966N8400000000012953M5L00    01DNCBD8666317293            09654C    VS84000000001295 NDR549977145232   6C67EA4545T461D7D5791D5  000000000+                C CC 12108                     000000000  N000000000 496   0000000000000.00 0000000.00   0000000.00                             000000000000000                                                                                                                                                     01424 G000000001295 0000000000000.37     02050 01000                  
00013770307490038DR6759067590000001427480010280000001016C67EA4545T461D7D5791D5  Y000000001295                 P1                                                                                                                                                                                                                                                                                                                                                                                                                                                                                                                                                                                                            
00013780307490001P16759067590000001427480010280000001010000000000000000                             2000000000000000000000000              000000000000                    0000000000000000000000000                    000000000000                                                                                                                                                                                                                                                                                                                                                                                                                                                                                        
00013790307490002G2675906759000000142748001028000000101866-6317293              GA           9 C                00                                      NNNN   Y                      000000000000                                                                   77145232                                                                                                                                                                                                                                                                                                                                                                                                                                               
00013800307490039DT67590675900000014274800102800000010180010287287283164900011859770061320230000001987016423000000000631512514582XXXXXX5487       ME03KE06MS02      NY 4607AMDJTUCFF00613  N840000000019870          81DNCBD8666317293            835722    MD84000000019870 NDR549977145232   9C78E0494FT18FD49F905C7  000000000+600450S00130    MDJ  00401                     000000000  N                0000000000000.00 0000000.00   0000000.00                             000000000000000                                                                                                                                                   U001424  000000000000 0000000000003.43     01650 01500                  
00013810307490039DR6759067590000001427480010280000001019C78E0494FT18FD49F905C7  Y000000000000                                                                                                                                                                                                                                                                                                                                                                                                                                                                                                                                                                                                                               
00013820307490001G2675906759000000142748001028000000101866-6317293              GA           9 J               210                                      NNNN           210000000000000000000000000                                                                   77145232                                                                                                                                                                                                                                                                                                                                                                                                                                               
00013830307490040DT67590675900000014274800102800000010180010287287283164900011859812061320230000001506616423000000000631512542179XXXXXX0131       ME03KE06MS02      NY 4607AMDJZCPVQD0613  N840000000015066          81DNCBD8666317293            121734    MD84000000015066 NDR549977145232   B412A8F637TE0489A1D7F59  000000000+600450S00130    MDJ  10813                     000000000  1                0000000000000.00 0000000.00   0000000.00                             000000000000000                                                                                                                                                   U001424  000000000000 0000000000000.30     00050 02200                  
