06467240216734292AD675906759000000151648008888000009071900015743660000001394807092023NYY19023ND6759800888071120232023188018128                                                                                                                                                                                                                                                                                                                                                                                                                                                                                                                                                                                              
06467250216734295AD675906759000000151648008888000009071900015743680000000327407092023NYY19023ND6759800888071120232023188018129                                                                                                                                                                                                                                                                                                                                                                                                                                                                                                                                                                                              
06467260216734298AD675906759000000268498001258000009071900012762320000002477007092023NYY19023ND6759800125071120232023188018130                                                                                                                                                                                                                                                                                                                                                                                                                                                                                                                                                                                              
06467270216734301AD675906759000000268498001258000009071900017167100000002477007092023NYY19023ND6759800125071120232023188018131                                                                                                                                                                                                                                                                                                                                                                                                                                                                                                                                                                                              
06467280216734304AD675906759000000268498001258000009071900017473580000002477007092023NYY19023ND6759800125071120232023188018132                                                                                                                                                                                                                                                                                                                                                                                                                                                                                                                                                                                              
06467290216734307AD675906759000000268498001258000009071900013915740000001977007092023NYY19023ND6759800125071120232023188018133                                                                                                                                                                                                                                                                                                                                                                                                                                                                                                                                                                                              
06467300216734310AD675906759000000198288001098000009071900019105500000001987007092023NYY19023ND6759800109071120232023188018134                                                                                                                                                                                                                                                                                                                                                                                                                                                                                                                                                                                              
06467310216734313AD675906759000000161968001028000009071900018057300000001987007092023NYY19023ND6759800102071120232023188018135                                                                                                                                                                                                                                                                                                                                                                                                                                                                                                                                                                                              
06467320216734316AD675906759000000161968001028000009071900017047270000001987007092023NYY19023ND6759800102071120232023188018136                                                                                                                                                                                                                                                                                                                                                                                                                                                                                                                                                                                              
06467330216734319AD675906759000000268498001258000009071900010711050000001489207092023NYY19023ND6759800125071120232023188018137                                                                                                                                                                                                                                                                                                                                                                                                                                                                                                                                                                                              
06467340216734322AD675906759000000268498001258000009071900013001070000001977007092023NYY19023ND6759800125071120232023188018186                                                                                                                                                                                                                                                                                                                                                                                                                                                                                                                                                                                              
06467350217061649AD675906759000000151648008888000009071231650038110000001987007072023NYY18823ND6759800888071120232023165003811                                                                                                                                                                                                                                                                                                                                                                                                                                                                                                                                                                                              
06467360218381283BH6759067590000001982880010980000090170710202319123000000000047500    0000090001020785N8001096759D07112023102                                                                                                                                                                                                                                                                                                                                                                                                                                                                                                                                                                                              
06467370218381284DT67590675900000019828800109800000010680010974001193191900010207832070720230000001394819123000000000047500458643XXXXXX5234               0000000   YYV4 07T383188520483477N84000000001394872J800    01CNKETOFUSION 8885968154    H06739    VD84000000013948 NDR599977547467   3F3B849447T243AACF1576D  000000000+                F DF 08168                     000000000  Y000000000 369   0000000000000.00 0000000.00   0000000.00                             000000000000000                                                                                                                                                     015WPE 000000013948 0000000000000.00     00000 00000                  
06467380218381284DR6759067590000001982880010980000001063F3B849447T243AACF1576D  U000000013948                 P1                                                                                                                                                                                                                                                                                                                                                                                                                                                                                                                                                                                                            
06467390218380001P16759067590000001982880010980000001060000000000000000                             2000000000000000000000000              000000000000                    0000000000000000000000000                    000000000000                                                                                                                                                                                                                                                                                                                                                                                                                                                                                        
06467400218380002G2675906759000000198288001098000000106888-5968154              UT           9 D                00                                      NNNN   N                      000000000000                                                                   77547467                                                                                                                                                                                                                                                                                                                                                                                                                                               
06467410218381285DT67590675900000019828800109800000010680010987287283191900010207846070720230000002487019123000000000047500528432XXXXXX6841                         YY 4607AMPLRAEP5Z0707  N840000000024870          81CNKETOFUSION 8885968154    007148    MC84000000024870 NDR599977547467   37F494F0AAT98199FDF4A26  000000000+600450S00130    MPL  00564                     000000000  N                0000000000000.00 0000000.00   0000000.00                             000000000000000                                                                                                                                                     015WPE 000000000000-0000000000004.35     01750 00000                  
06467420218381285DR67590675900000019828800109800000010637F494F0AAT98199FDF4A26  R000000000000                                                                                                                                                                                                                                                                                                                                                                                                                                                                                                                                                                                                                               
06467430218380001G26759067590000001982880010980000001068885968154               UT           9 L               210                                      NNNN           210000000000000000000000000                        7                                          77547467                                                                                                                                                                                                                                                                                                                                                                                                                                               
06467440218381286DT67590675900000019828800109800000010680010976509753191900010207850070720230000000868219123000000000047500601149XXXXXX8518   BA00                  YY 4 07N873162162166032N840000000008682    00    01CNKETOFUSION 8885968154    00704P    DS84000000008682 NDR599977547467070                         000000000+1015104910600   DCPDI01128666105  153016200000 000000000  0          156   0000000000000.00 0000000.00   0000000.00                             000000000000000                                                                                                                                                     015WPE 000000000000-0000000000001.52     01750 00000                  
06467450218381286DR675906759000000198288001098000000106                         R                                                                                                                                                                                                                                                                                                                                                                                                                                                                                                                                                                                                                                           
06467460218380001G2675906759000000198288001098000000106888-5968154              UT           9 P                00                                      NNNN                          000000000000                         00000650975601179750000394                77547467                                                                                                                                                                                                                                                                                                                                                                                                                                               
06467470218381289BH6759067590000002773080012680000090170710202319123000000000006968    0000090001230149N8001266759D07112023023                                                                                                                                                                                                                                                                                                                                                                                                                                                                                                                                                                                              
06467480218381290DT67590675900000027730800126800000010680012687287283191900012301498070820230000000696819123000000000006968548190XXXXXX1023                         YY 4607AMCWO7EKQQ0708  N840000000006968          81CNMODERNMANE833-714-2479   098267    MC84000000006968 NDR596978265659   143CC20BB1TE22D1A31FA14  000000000+600450S00130    MCW  00562                     000000000  N                0000000000000.00 0000000.00   0000000.00                             000000000000000                                                                                                                                                     015WPE 000000000000-0000000000001.22     01750 00000                  
06467490218381290DR675906759000000277308001268000000106143CC20BB1TE22D1A31FA14  Y000000000000                                                                                                                                                                                                                                                                                                                                                                                                                                                                                                                                                                                                                               
06467500218380001G26759067590000002773080012680000001068337142479               UT           9 W               210                                      NNNN           210000000000000000000000000                        7                                          78265659                                                                                                                                                                                                                                                                                                                                                                                                                                               
06467510218381293BH6759067590000003201180013680000090170710202319123000000001000000    0000090001599806N8001366759C07112023000                                                                                                                                                                                                                                                                                                                                                                                                                                                                                                                                                                                              
06467520218381294DT67590675900000032011800136800000010180013673011003191900015944620070720230000100000019123000000001000000372728XXXXX1008                          YY 4 07N005658327577300N840000001000000          01DNCHOICE BOTANICALS INC    173410    AM84000001000000 N  549971004114                            000000000+6004S0600140 258     11263                     000000000                   0000000000000.00 0000000.00   0000000.00                             000000000000000 61248972086759675900000032011                          5390 GREENS RD                           77032                                               015WPE 000000000000 0000000000240.10     02400 00000                  
06467530218380001G2675906759000000320118001368000000101HOUSTON                  TX           9                  00                                      NNNN                          000000000000                                                                   71004114                                                                                                                                                                                                                                                                                                                                                                                                                                               
06467540219160002BH6759067590000000288180088880000090170710202319123000000000063391    0000090001570015N8008886759C07112023157                                                                                                                                                                                                                                                                                                                                                                                                                                                                                                                                                                                              
06467550219160003DT67590675900000002881800888800000010180088877287283191900015700010071020230000000260319123000000000063391515676XXXXXX2879       MS02WI09          NY 1 0 AMWEBSCAHK0710  N840000000002603          07DNHAPPY HIPPIE             00529Z    MC84000000002603 N  549976487134                            000000000+M10101M0034C    MWE  00743                     000000000  N                0000000000000.00 0000000.00   0000000.00                             000000000000000                                                                                                                                                   B101418  000000000000 0000000000000.64     02300 00400                  
06467560219160001E16759067590000000288180088880000001010000084800A0 00000000000.00404040404040404040404040404040404040404040404040400110A04001220000000000000000000000FF00000000000000000000000000  00010840198000000080012307106836E19457E79CD4C9ED1AA2404040400840A0000000041010000000000000000000404040404040404040404040404040404040401F40404040 000000026.03 000000000.001F03020000000000000000    80                                                                                                                                                                                                                                                                                                                  
06467570219160002G2675906759000000028818008888000000101SEVIERVILLE              TN           5 E                                                        NNNN              000000000000000000000000       03               7                                          76487134                                                                                                                                                                                                                                                                                                                                                                                                                                               
06467580219160004DT67590675900000002881800888800000010180088824001193191900015700026071020230000000720619123000000000063391423223XXXXXX2420       VS11    0001111   NYV1 A E463191633646582N840000000007206XS6500    07DNHAPPY HIPPIE             026720    VD84000000007206 N  549976487134                            000000000+                F DF 00381                     000000000  N000000000       0000000000000.00 0000000.00   0000000.00                             000000000000000                                                                                                                                                     01418 A000000000000 0000000000000.73     00800 01500                  
06467590219160001E167590675900000002881800888800000010100E068C80029 00000000000.004040404040404040404040404040404040404040404040404006011203A00000000000000000000000404040404040404040404040404040  000008402000000000000023071025B1A738D913736286947D62404040400840A000000003101000000000000000000060A8795F0080000000000000000000004040404040404040 000000072.06 000000000.004040400000000000000000    80                                                                                                                                                                                                                                                                                                                  
06467600219160002G2675906759000000028818008888000000101SEVIERVILLE              TN           5 D                00                                      NNNN00 N 00                   000000000000                                                                   76487134                                                                                                                                                                                                                                                                                                                                                                                                                                               
06467610219160005DT67590675900000002881800888800000010180088824001193191900015700034071020230000000347119123000000000063391434258XXXXXX0373       VS11    0001111   NYV1 A E583191670549730N840000000003471968F00    07DNHAPPY HIPPIE             092556    VD84000000003471 N  549976487134                            000000000+                F DF 10433                     000000000  Y000000000 338   0000000000000.00 0000000.00   0000000.00                             000000000000000                                                                                                                                                     01418 A000000000000 0000000000000.24     00050 02200                  
06467620219160001E167590675900000002881800888800000010100E068C80119 00000000000.004040404040404040404040404040404040404040404040404006061203A00000000000000000000000404040404040404040404040404040  00000840000000000000002307101935C17481B66161FD69911E404040400840A000000003101000000000000000000060F0A09030B0908020200000000000004040404040404040 000000034.71 000000000.004040400000000000000000    80                                                                                                                                                                                                                                                                                                                  
06467630219160002G2675906759000000028818008888000000101SEVIERVILLE              TN           5 D                00                                      NNNN00 N 00                   000000000000                                                                   76487134                                                                                                                                                                                                                                                                                                                                                                                                                                               
06467640219160006DT67590675900000002881800888800000010180088824001193191900015700042071020230000000833219123000000000063391419090XXXXXX3298       VS11    0001111   NYV1 A E583191697546209N84000000000833259N300    05DNHAPPY HIPPIE             767331    VD84000000008332 N  549976487134                            000000000+                F DF 00381                     000000000  N000000000       0000000000000.00 0000000.00   0000000.00                             000000000000000                                                                                                                                                     01418 A000000000000 0000000000000.82     00800 01500                  
06467650219160001E167590675900000002881800888800000010100E0F8C8006A 00000000000.004040404040404040404040404040404040404040404040404006011203A0A000000000000000000000404040404040404040404040404040  0001084018008080008000230710D2A327433B68C51297E977E4404040400840A00000000310100000000000000000003F2658CE0082000000000000000000004040401E40404040 000000083.32 000000000.001E00000000000000000000    80                                                                                                                                                                                                                                                                                                                  
06467660219160002G2675906759000000028818008888000000101SEVIERVILLE              TN           5 D                00                                      NNNN00 N 00                   000000000000                                                                   76487134                                                                                                                                                                                                                                                                                                                                                                                                                                               
06467670219160007DT67590675900000002881800888800000010180088876509753191900015700057071020230000000104219123000000000063391601100XXXXXX3123   BA50                  NY41 0 N813164716912356N840000000001042    00    05DNHAPPY HIPPIE             01015R    DS84000000001042 N  549976487134050                         000000000+0000004910H00   DCCDI00996337215  122811000000 000000000  0          108   0000000000000.00 0000000.00   0000000.00                             000000000000000                                                                                                                                                     01418  000000000000 0000000000000.20     01950 00000                  
06467680219160001E167590675900000002881800888800000010100E0F8C800EB 00000000000.00404040404040404040404040404040404040404040404040400105A080038000000000000000000000404040404040404040404040404040  0001084078000000008000230710F4F4DC657446A362C54128A9404040400840A0000001523010000000000000000000BCD1AA38BDDBB69B00320000000000004040401E40404040 000000010.42 000000000.001E03000000000000000000    80                                                                                                                                                                                                                                                                                                                  
06467690219160002G2675906759000000028818008888000000101SEVIERVILLE              TN           5 C                00                                      NNNN                          000000000000                         00000650975601179750000063                76487134                                                                                                                                                                                                                                                                                                                                                                                                                                               
06467700219160008DT67590675900000002881800888800000010180088877287283191900015700069071020230000000274319123000000000063391550442XXXXXX8073       MS02WI09          NY 1 0 AMDJI4H6W80710  N840000000002743          07DNHAPPY HIPPIE             152958    MD84000000002743 N  549976487134                            000000000+M10101M0034C    MDJ  00402                     000000000  N                0000000000000.00 0000000.00   0000000.00                             000000000000000                                                                                                                                                   B101418  000000000000 0000000000000.44     01050 01500                  
06467710219160001E1675906759000000028818008888000000101000008480441 00000000000.00404040404040404040404040404040404040404040404040400110A04001220000000000000000000000FF00000000000000000000000000  00010840198100000080012307107A0EFE5894E47AA5A24F39DD404040400840A0000000041010000000000000000000B807A54D68A7837403120000000000004040401F40404040 000000027.43 000000000.001F03020000000000000000    80                                                                                                                                                                                                                                                                                                                  
06467720219160002G2675906759000000028818008888000000101SEVIERVILLE              TN           5 J                                                        NNNN              000000000000000000000000       03               7                                          76487134                                                                                                                                                                                                                                                                                                                                                                                                                                               
06467730219160009DT67590675900000002881800888800000010180088824001193191900015700075071020230000000162119123000000000063391443264XXXXXX0437       VS11    0001111   NYV1 A E463191705840339N8400000000016215ZMF00    07DNHAPPY HIPPIE             025254    VD84000000001621 N  549976487134                            000000000+                F DF 10433                     000000000  Y000000000 338   0000000000000.00 0000000.00   0000000.00                             000000000000000                                                                                                                                                     01418 A000000000000 0000000000000.23     00050 02200                  
06467740219160001E167590675900000002881800888800000010100E068C806FE 00000000000.004040404040404040404040404040404040404040404040404006011203A00000000000000000000000404040404040404040404040404040  000008402000000000000023071048B67FF7BF8CB65846ABD80E404040400840A0000000031010000000000000000000404040404040404040404040404040404040404040404040 000000016.21 000000000.004040400000000000000000    80                                                                                                                                                                                                                                                                                                                  
06467750219160002G2675906759000000028818008888000000101SEVIERVILLE              TN           5 D                00                                      NNNN00 N 00                   000000000000                                                                   76487134                                                                                                                                                                                                                                                                                                                                                                                                                                               
06467760219160010DT67590675900000002881800888800000010180088824001193191900015700083071020230000000463019123000000000063391404227XXXXXX3237       VS11    0001111   NYV1 A E303191711711016N84000000000463068BN00    05DNHAPPY HIPPIE             470744    VD84000000004630 N  549976487134                            000000000+                F DF 00381                     000000000  N000000000       0000000000000.00 0000000.00   0000000.00                             000000000000000                                                                                                                                                     01418 A000000000000 0000000000000.52     00800 01500                  
06467770219160001E167590675900000002881800888800000010100E0F8C801D3 00000000000.004040404040404040404040404040404040404040404040404006011203A0A000000000000000000000404040404040404040404040404040  00000840180080800080002307100E8733EA556601F6C4C2C3F9404040400840A00000000310100000000000000000000099A27A0382000000000000000000004040401E40404040 000000046.30 000000000.001E00000000000000000000    80                                                                                                                                                                                                                                                                                                                  
06467780219160002G2675906759000000028818008888000000101SEVIERVILLE              TN           5 D                00                                      NNNN00 N 00                   000000000000                                                                   76487134                                                                                                                                                                                                                                                                                                                                                                                                                                               
06467790219160011DT67590675900000002881800888800000010180088877287283191900015700093071020230000000260319123000000000063391514377XXXXXX0825       MS02WI09          NY 1 0 AMDJXMR0HJ0710  N840000000002603          07DNHAPPY HIPPIE             1JPM1G    MD84000000002603 N  549976487134                            000000000+M10101M0034C    MDJ  00402                     000000000  N                0000000000000.00 0000000.00   0000000.00                             000000000000000                                                                                                                                                   B101418  000000000000 0000000000000.42     01050 01500                  
06467800219160001E1675906759000000028818008888000000101000008480112 00000000000.00404040404040404040404040404040404040404040404040400110A04001220000000000000000000000FF00000000000000000000000000  0001084019800000008001230710B4CA4AB0D89692CD8EA261C1404040400840A0000000041010000000000000000000404040404040404040404040404040404040401F40404040 000000026.03 000000000.001F03020000000000000000    80                                                                                                                                                                                                                                                                                                                  
06467810219160002G2675906759000000028818008888000000101SEVIERVILLE              TN           5 J                                                        NNNN              000000000000000000000000       03               7                                          76487134                                                                                                                                                                                                                                                                                                                                                                                                                                               
06467820219160012DT67590675900000002881800888800000010180088824001193191900015700109071020230000000587319123000000000063391419090XXXXXX6106       VS11    0001111   NYV1 A E583191720192967N84000000000587392WF00    05DNHAPPY HIPPIE             768541    VD84000000005873 N  549976487134                            000000000+                F DF 00381                     000000000  N000000000       0000000000000.00 0000000.00   0000000.00                             000000000000000                                                                                                                                                     01418 A000000000000 0000000000000.62     00800 01500                  
06467830219160001E167590675900000002881800888800000010100E0F8C801F2 00000000000.004040404040404040404040404040404040404040404040404006011203A02000000000000000000000404040404040404040404040404040  0002084018008080008000230710962EC18758E147FA7A254381404040400840A000000003101000000000000000000007C395BC0082000000000000000000004040401E40404040 000000058.73 000000000.001E00000000000000000000    80                                                                                                                                                                                                                                                                                                                  
06467840219160002G2675906759000000028818008888000000101SEVIERVILLE              TN           5 D                00                                      NNNN00 N 00                   000000000000                                                                   76487134                                                                                                                                                                                                                                                                                                                                                                                                                                               
06467850219160013DT67590675900000002881800888800000010180088824001193191900015700117071020230000000245719123000000000063391400022XXXXXX9850       VS11    0001111   NYV1 A E303191721626259N840000000002457BRWP00    07DNHAPPY HIPPIE             820661    VD84000000002457 N  549976487134                            000000000+                F DF 10433                     000000000  Y000000000 338   0000000000000.00 0000000.00   0000000.00                             000000000000000                                                                                                                                                     01418 A000000000000 0000000000000.23     00050 02200                  
06467860219160001E167590675900000002881800888800000010100E068C80305 00000000000.004040404040404040404040404040404040404040404040404006021203A00000000000000000000000404040404040404040404040404040  00000840000000000000002307107B8679BCFEFB2A84B6C9BC6A404040400840A0000000031010000000000000000000404040404040404040404040404040404040404040404040 000000024.57 000000000.004040400000000000000000    80                                                                                                                                                                                                                                                                                                                  
06467870219160002G2675906759000000028818008888000000101SEVIERVILLE              TN           5 D                00                                      NNNN00 N 00                   000000000000                                                                   76487134                                                                                                                                                                                                                                                                                                                                                                                                                                               
06467880219160014DT67590675900000002881800888800000010180088824001193191900015700125071020230000000381919123000000000063391464018XXXXXX7113       VS11    0001111   NYV1 A E383191727130179N840000000003819JPBD00    07DNHAPPY HIPPIE             04606C    VS84000000003819 N  549976487134                            000000000+                C CC 12112                     000000000  N000000000 497   0000000000000.00 0000000.00   0000000.00                             000000000000000                                                                                                                                                     01418 A000000000000 0000000000000.73     01650 01000                  
06467890219160001E167590675900000002881800888800000010100E068C800D0 00000000000.004040404040404040404040404040404040404040404040404006021203A00000000000000000000000404040404040404040404040404040  0001084020000000000000230710BA1442AF996FB1DC3402F66E404040400840A0000000031010000000000000000000D5249FE30082000000000000000000004040404040404040 000000038.19 000000000.004040400000000000000000    80                                                                                                                                                                                                                                                                                                                  
06467900219160002G2675906759000000028818008888000000101SEVIERVILLE              TN           5 C                00                                      NNNN00 Y 00                   000000000000                                                                   76487134                                                                                                                                                                                                                                                                                                                                                                                                                                               
06467910219160015DT67590675900000002881800888800000010180088824001193191900015700133071020230000000462919123000000000063391435544XXXXXX2377       VS11    0001111   NYV1 A E463191728195948N840000000004629JRR300    07DNHAPPY HIPPIE             085160    VD84000000004629 N  549976487134                            000000000+                F DF 10433                     000000000  Y000000000 338   0000000000000.00 0000000.00   0000000.00                             000000000000000                                                                                                                                                     01418 A000000000000 0000000000000.24     00050 02200                  
06467920219160001E167590675900000002881800888800000010100E068C800DF 00000000000.004040404040404040404040404040404040404040404040404006011203A00000000000000000000000404040404040404040404040404040  000108402000000000000023071011DDE7723E88A850DDD27B8C404040400840A000000003101000000000000000000002A740E00082000000000000000000004040404040404040 000000046.29 000000000.004040400000000000000000    80                                                                                                                                                                                                                                                                                                                  
06467930219160002G2675906759000000028818008888000000101SEVIERVILLE              TN           5 D                00                                      NNNN00 N 00                   000000000000                                                                   76487134                                                                                                                                                                                                                                                                                                                                                                                                                                               
06467940219160016DT67590675900000002881800888800000010180088824001193191900015700141071020230000000246819123000000000063391445101XXXXXX5160       VS11    0001111   NYV1 A E463191731162190N840000000002468K3Q300    05DNHAPPY HIPPIE             069300    VD84000000002468 N  549976487134                            000000000+                F DF 10433                     000000000  Y000000000 338   0000000000000.00 0000000.00   0000000.00                             000000000000000                                                                                                                                                     01418 A000000000000 0000000000000.23     00050 02200                  
06467950219160001E167590675900000002881800888800000010100E0F8C80162 00000000000.004040404040404040404040404040404040404040404040404006011203A08000000000000000000000404040404040404040404040404040  0001084018008080008000230710B9AB0DD5F642AB21DF17DD25404040400840A00000000310100000000000000000009751D1B10082000000000000000000004040401E40404040 000000024.68 000000000.001E00000000000000000000    80                                                                                                                                                                                                                                                                                                                  
06467960219160002G2675906759000000028818008888000000101SEVIERVILLE              TN           5 D                00                                      NNNN00 N 00                   000000000000                                                                   76487134                                                                                                                                                                                                                                                                                                                                                                                                                                               
06467970219160017DT67590675900000002881800888800000010180088824001193191900015700158071020230000000989419123000000000063391419090XXXXXX2434       VS11    0001111   NYV1 A E383191740435792N840000000009894MGBV00    05DNHAPPY HIPPIE             769615    VD84000000009894 N  549976487134                            000000000+                F DF 00381                     000000000  N000000000       0000000000000.00 0000000.00   0000000.00                             000000000000000                                                                                                                                                     01418 A000000000000 0000000000000.94     00800 01500                  
06467980219160001E167590675900000002881800888800000010100E0F8C80103 00000000000.004040404040404040404040404040404040404040404040404006011203A0A000000000000000000000404040404040404040404040404040  00010840180080800080002307109BBE9C301BFA4784C33AADCB404040400840A0000000031010000000000000000000ACF706A60080000000000000000000004040401E40404040 000000098.94 000000000.001E00000000000000000000    80                                                                                                                                                                                                                                                                                                                  
06467990219160002G2675906759000000028818008888000000101SEVIERVILLE              TN           5 D                00                                      NNNN00 N 00                   000000000000                                                                   76487134                                                                                                                                                                                                                                                                                                                                                                                                                                               
06468000219160018BH6759067590000000288180088880000090170710202319123000000000083007    0000090001690019N8008886759C07112023169                                                                                                                                                                                                                                                                                                                                                                                                                                                                                                                                                                                              
06468010219160019DT67590675900000002881800888800000010180088824001193191900016900013071020230000000532319123000000000083007420231XXXXXX3701       VS11    0001111   NYV1 A E303191532351304N840000000005323PLZ900    07DNHAPPY HIPPIE             900174    VS84000000005323 N  549976487158                            000000000+                D CD 12113                     000000000  N000000000 499   0000000000000.00 0000000.00   0000000.00                             000000000000000                                                                                                                                                     01418 A000000000000 0000000000001.22     02100 01000                  
06468020219160001E167590675900000002881800888800000010100E068C800AB 00000000000.004040404040404040404040404040404040404040404040404006011203A00000000000000000000000404040404040404040404040404040  0001084020200000000000230710A6B0F865B43448730469114C404040400840A0000000031010000000000000000000404040404040404040404040404040404040404040404040 000000053.23 000000000.004040400000000000000000    80                                                                                                                                                                                                                                                                                                                  
06468030219160002G2675906759000000028818008888000000101SEVIERVILLE              TN           5 C                00                                      NNNN00 Y 00                   000000000000                                                                   76487158                                                                                                                                                                                                                                                                                                                                                                                                                                               
06468040219160020DT67590675900000002881800888800000010180088877287283191900016900023071020230000000462919123000000000083007521333XXXXXX9451       MS02WI09          NY 1 0 AMWEET1XTD0710  N840000000004629          07DNHAPPY HIPPIE             01089P    MC84000000004629 N  549976487158                            000000000+M10101M0034C    MWE  00743                     000000000  N                0000000000000.00 0000000.00   0000000.00                             000000000000000                                                                                                                                                   B101418  000000000000 0000000000001.10     02300 00400                  
06468050219160001E1675906759000000028818008888000000101000008480029 00000000000.00404040404040404040404040404040404040404040404040400410A04001220000000000000000000000FF00000000000000000000000000  0001084019800000008001230710581A9547083B8B535BEE209B404040400840A0000000041010000000000000000000404040404040404040404040404040404040401F40404040 000000046.29 000000000.001F03020000000000000000    80                                                                                                                                                                                                                                                                                                                  
06468060219160002G2675906759000000028818008888000000101SEVIERVILLE              TN           5 E                                                        NNNN              000000000000000000000000       03               7                                          76487158                                                                                                                                                                                                                                                                                                                                                                                                                                               
06468070219160021DT67590675900000002881800888800000010180088877287283191900016900031071020230000000759819123000000000083007550827XXXXXX1699       MS02WI09          NY 1 0 AMDSLVDGD40710  N840000000007598          05DNHAPPY HIPPIE             111103    MD84000000007598 N  549976487158                            000000000+M10101C5434C    MDS  00402                     000000000  N                0000000000000.00 0000000.00   0000000.00                             000000000000000                                                                                                                                                   B101418  000000000000 0000000000000.95     01050 01500                  
06468080219160001E167590675900000002881800888800000010100E0F8C80172 00000000000.00404040404040404040404040404040404040404040404040400110A00001220000000000000000000000FF00000000000000000000000000  0000084018008000008000230710A9BC06E9491200C95469BC78404040400840A0000000041010000000000000000000722978B4DC597810031A0000000000004040401E40404040 000000075.98 000000000.001E03000000000000000000    80                                                                                                                                                                                                                                                                                                                  
06468090219160002G2675906759000000028818008888000000101SEVIERVILLE              TN           5 S                                                        NNNN              000000000000000000000000                        7                                          76487158                                                                                                                                                                                                                                                                                                                                                                                                                                               
06468100219160022DT67590675900000002881800888800000010180088877287283191900016900049071020230000000142519123000000000083007555426XXXXXX0538       MS02WI09          NY 1 0 AMPGYW5STC0710  N840000000001425          90DNHAPPY HIPPIE             001308    MD84000000001425 N  549976487158                            000000000+M10101B5434C    MPG  00505                     000000000  N                0000000000000.00 0000000.00   0000000.00                             000000000000000                                                                                                                                                   C101418  000000000000 0000000000000.26     01550 00400                  
06468110219160001G2675906759000000028818008888000000101SEVIERVILLE              TN           5 G                                                        NNNN              000000000000000000000000                                                                   76487158                                                                                                                                                                                                                                                                                                                                                                                                                                               
06468120219160023DT67590675900000002881800888800000010180088824001193191900016900054071020230000000694519123000000000083007441103XXXXXX6165       VS11    0001111   NYV1 A E583191564336171N8400000000069458N7R00    07DNHAPPY HIPPIE             034011    VD84000000006945 N  549976487158                            000000000+                F DF 10433                     000000000  Y000000000 338   0000000000000.00 0000000.00   0000000.00                             000000000000000                                                                                                                                                     01418 A000000000000 0000000000000.25     00050 02200                  
06468130219160001E167590675900000002881800888800000010100E068C80626 00000000000.004040404040404040404040404040404040404040404040404006011203A00000000000000000000000404040404040404040404040404040  0000084000000000000000230710F3DF726E2E66F1F90170A262404040400840A0000000031010000000000000000000404040404040404040404040404040404040404040404040 000000069.45 000000000.004040400000000000000000    80                                                                                                                                                                                                                                                                                                                  
06468140219160002G2675906759000000028818008888000000101SEVIERVILLE              TN           5 D                00                                      NNNN00 N 00                   000000000000                                                                   76487158                                                                                                                                                                                                                                                                                                                                                                                                                                               
06468150219160024DT67590675900000002881800888800000010180088824001193191900016900062071020230000000615319123000000000083007434256XXXXXX3273       VS11    0001111   NYV1 A E583191594913491N8400000000061532PR500    07DNHAPPY HIPPIE             048570    VD84000000006153 N  549976487158                            000000000+                F DF 10433                     000000000  Y000000000 338   0000000000000.00 0000000.00   0000000.00                             000000000000000                                                                                                                                                     01418 A000000000000 0000000000000.25     00050 02200                  
06468160219160001E167590675900000002881800888800000010100E068C80185 00000000000.004040404040404040404040404040404040404040404040404006061203A00000000000000000000000404040404040404040404040404040  0000084000000000000000230710620AC058C611A0D981E7BC06404040400840A000000003101000000000000000000060B080D060A0D0F020200000000000004040404040404040 000000061.53 000000000.004040400000000000000000    80                                                                                                                                                                                                                                                                                                                  
06468170219160002G2675906759000000028818008888000000101SEVIERVILLE              TN           5 D                00                                      NNNN00 N 00                   000000000000                                                                   76487158                                                                                                                                                                                                                                                                                                                                                                                                                                               
06468180219160025DT67590675900000002881800888800000010180088824001193191900016900070071020230000000725919123000000000083007443238XXXXXX7711       VS11    0001111   NYV1 A E583191595830039N840000000007259L9QH00    07DNHAPPY HIPPIE             023303    VD84000000007259 N  549976487158                            000000000+                F DF 00381                     000000000  N000000000       0000000000000.00 0000000.00   0000000.00                             000000000000000                                                                                                                                                     01418 A000000000000 0000000000000.73     00800 01500                  
06468190219160001E167590675900000002881800888800000010100E068C80024 00000000000.004040404040404040404040404040404040404040404040404006011203A00000000000000000000000404040404040404040404040404040  00000840000000000000002307102F39DEF7F0E835C2487E49F8404040400840A0000000031010000000000000000000404040404040404040404040404040404040404040404040 000000072.59 000000000.004040400000000000000000    80                                                                                                                                                                                                                                                                                                                  
06468200219160002G2675906759000000028818008888000000101SEVIERVILLE              TN           5 D                00                                      NNNN00 N 00                   000000000000                                                                   76487158                                                                                                                                                                                                                                                                                                                                                                                                                                               
06468210219160026DT67590675900000002881800888800000010180088824001193191900016900088071020230000000343719123000000000083007423223XXXXXX2326       VS11    0001111   NYV1 A E463191628900265N840000000003437Q4BQ00    05DNHAPPY HIPPIE             099600    VD84000000003437 N  549976487158                            000000000+                F DF 00381                     000000000  N000000000       0000000000000.00 0000000.00   0000000.00                             000000000000000                                                                                                                                                     01418 A000000000000 0000000000000.42     00800 01500                  
06468220219160001E167590675900000002881800888800000010100E0F8C801FA 00000000000.004040404040404040404040404040404040404040404040404006011203A0A000000000000000000000404040404040404040404040404040  00000840180080800080002307100D31AB013898313225EC1A08404040400840A0000000031010000000000000000000A9450CF70080000000000000000000004040401E40404040 000000034.37 000000000.001E00000000000000000000    80                                                                                                                                                                                                                                                                                                                  
06468230219160002G2675906759000000028818008888000000101SEVIERVILLE              TN           5 D                00                                      NNNN00 N 00                   000000000000                                                                   76487158                                                                                                                                                                                                                                                                                                                                                                                                                                               
06468240219160027DT67590675900000002881800888800000010180088824001193191900016900096071020230000000266419123000000000083007422921XXXXXX0663       VS11    0001111   NYV1 A E463191634459557N8400000000026647MXL00    07DNHAPPY HIPPIE             049047    VD84000000002664 N  549976487158                            000000000+                F DF 00381                     000000000  N000000000       0000000000000.00 0000000.00   0000000.00                             000000000000000                                                                                                                                                     01418 A000000000000 0000000000000.36     00800 01500                  
06468250219160001E167590675900000002881800888800000010100E068C802E2 00000000000.004040404040404040404040404040404040404040404040404006011203A00000000000000000000000404040404040404040404040404040  000008400000000000000023071052F5F9A9BA985075254855A8404040400840A00000000310100000000000000000009C860C960382000000000000000000004040404040404040 000000026.64 000000000.004040400000000000000000    80                                                                                                                                                                                                                                                                                                                  
06468260219160002G2675906759000000028818008888000000101SEVIERVILLE              TN           5 D                00                                      NNNN00 N 00                   000000000000                                                                   76487158                                                                                                                                                                                                                                                                                                                                                                                                                                               
06468270219160028DT67590675900000002881800888800000010180088824001193191900016900104071020230000000273919123000000000083007447291XXXXXX0756       VS11    0001111   NYV1 A E583191655993638N840000000002739B9CM00    05DNHAPPY HIPPIE             131319    VD84000000002739 N  549976487158                            000000000+                F DF 00381                     000000000  N000000000       0000000000000.00 0000000.00   0000000.00                             000000000000000                                                                                                                                                     01418 A000000000000 0000000000000.37     00800 01500                  
06468280219160001E167590675900000002881800888800000010100E0F8C8026D 00000000000.004040404040404040404040404040404040404040404040404006011203A0A000000000000000000000404040404040404040404040404040  0001084018008080008000230710D34A5B7D6BF8037BA8F9879F404040400840A0000000031010000000000000000000FC337F2E0082000000000000000000004040401E40404040 000000027.39 000000000.001E00000000000000000000    80                                                                                                                                                                                                                                                                                                                  
06468290219160002G2675906759000000028818008888000000101SEVIERVILLE              TN           5 D                00                                      NNNN00 N 00                   000000000000                                                                   76487158                                                                                                                                                                                                                                                                                                                                                                                                                                               
06468300219160029DT67590675900000002881800888800000010180088824001193191900016900112071020230000000010919123000000000083007443264XXXXXX5547       VK04VS111111111   NYV1 A E383191702906975N840000000000109GDC900    07DNHAPPY HIPPIE             002081    VD84000000000109 N  549976487158                            000000000+                F DF 10439                     000000000  Y000000000 331   0000000000000.00 0000000.00   0000000.00                             000000000000000                                                                                                                                                     01418 F000000000000 0000000000000.22     00050 02200                  
06468310219160001E167590675900000002881800888800000010100E068C800E2 00000000000.004040404040404040404040404040404040404040404040404006011203A00000000000000000000000404040404040404040404040404040  000008402000000000000023071096A0FF91EC9C0ABB86243069404040400840A0000000031010000000000000000000404040404040404040404040404040404040404040404040 000000001.09 000000000.004040400000000000000000    80                                                                                                                                                                                                                                                                                                                  
06468320219160002G2675906759000000028818008888000000101SEVIERVILLE              TN           5 D                00                                      NNNN00 N 00                   000000000000                                                                   76487158                                                                                                                                                                                                                                                                                                                                                                                                                                               
06468330219160030DT67590675900000002881800888800000010180088877287283191900016900122071020230000000138119123000000000083007511953XXXXXX3090       MS02WI09          NY 1 0 AMDJUXVCH90710  N840000000001381          07DNHAPPY HIPPIE             081462    MD84000000001381 N  549976487158                            000000000+M10101M0034C    MDJ  00505                     000000000  N                0000000000000.00 0000000.00   0000000.00                             000000000000000                                                                                                                                                   B101418  000000000000 0000000000000.25     01550 00400                  
06468340219160001E1675906759000000028818008888000000101000008480037 00000000000.00404040404040404040404040404040404040404040404040400110A04001220000000000000000000000FF00000000000000000000000000  000008401980000000800123071040C0986627D0C4EC0CFB60FC404040400840A0000000041010000000000000000000404040404040404040404040404040404040401F40404040 000000013.81 000000000.001F03020000000000000000    80                                                                                                                                                                                                                                                                                                                  
06468350219160002G2675906759000000028818008888000000101SEVIERVILLE              TN           5 J                                                        NNNN              000000000000000000000000       03               7                                          76487158                                                                                                                                                                                                                                                                                                                                                                                                                                               
06468360219160031DT67590675900000002881800888800000010180088824001193191900016900138071020230000000702219123000000000083007443512XXXXXX3571       VS11    0001111   NYV1 A E383191724664960N840000000007022CWF200    05DNHAPPY HIPPIE             377762    VD84000000007022 N  549976487158                            000000000+                F DF 00381                     000000000  N000000000       0000000000000.00 0000000.00   0000000.00                             000000000000000                                                                                                                                                     01418 A000000000000 0000000000000.71     00800 01500                  
06468370219160001E167590675900000002881800888800000010100E0F8C80027 00000000000.004040404040404040404040404040404040404040404040404006141203A02000000000000000000000404040404040404040404040404040  000108401800808000800023071064C06C5C9372417B90D0F398404040400840A0000000031010000000000000000000E08703050080000000000000000000004040401E40404040 000000070.22 000000000.001E00000000000000000000    80                                                                                                                                                                                                                                                                                                                  
06468380219160002G2675906759000000028818008888000000101SEVIERVILLE              TN           5 D                00                                      NNNN00 N 00                   000000000000                                                                   76487158                                                                                                                                                                                                                                                                                                                                                                                                                                               
06468390219160032DT67590675900000002881800888800000010180088877287283191900016900148071020230000000372919123000000000083007514348XXXXXX5418       MS02WI09          NY 2 0 AMDJG07PHK0710  N840000000003729          05DNHAPPY HIPPIE             123350    MD84000000003729 N  549976487158                            000000000+M10101C1334C    MDJ  00402                     000000000  N                0000000000000.00 0000000.00   0000000.00                             000000000000000                                                                                                                                                   B101418  000000000000 0000000000000.54     01050 01500                  
06468400219160001E167590675900000002881800888800000010100E0F8C8028B 00000000000.00404040404040404040404040404040404040404040404040400110A00001220800000000000000000000FF00000000000000000000000000  00020840180080000480002307108B17230A11907D767941B86D404040400840A0000000041010000000000000000000432A6AF78644221800140000000000004040400240404040 000000037.29 000000000.000203000000000000000000    80                                                                                                                                                                                                                                                                                                                  
06468410219160002G2675906759000000028818008888000000101SEVIERVILLE              TN           5 J                                                        NNNN              000000000000000000000000                                                                   76487158                                                                                                                                                                                                                                                                                                                                                                                                                                               
06468420219160033DT67590675900000002881800888800000010180088824001193191900016900153071020230000000350919123000000000083007423223XXXXXX2299       VS11    0001111   NYV1 A E303191745548535N840000000003509J6Q600    05DNHAPPY HIPPIE             060290    VD84000000003509 N  549976487158                            000000000+                F DF 00381                     000000000  N000000000       0000000000000.00 0000000.00   0000000.00                             000000000000000                                                                                                                                                     01418 A000000000000 0000000000000.43     00800 01500                  
06468430219160001E167590675900000002881800888800000010100E0F8C80144 00000000000.004040404040404040404040404040404040404040404040404006011203A02000000000000000000000404040404040404040404040404040  00000840180080800080002307108F11E00BD40988481362790A404040400840A00000000310100000000000000000009748BEC30080000000000000000000004040401E40404040 000000035.09 000000000.001E00000000000000000000    80                                                                                                                                                                                                                                                                                                                  
06468440219160002G2675906759000000028818008888000000101SEVIERVILLE              TN           5 D                00                                      NNNN00 N 00                   000000000000                                                                   76487158                                                                                                                                                                                                                                                                                                                                                                                                                                               
06468450219160034DT67590675900000002881800888800000010180088824001193191900016900161071020230000000157919123000000000083007444796XXXXXX6859       VS11    0001111   NYV1 A E463191749672222N8400000000015793GJK00    07DNHAPPY HIPPIE             010688    VS84000000001579 N  549976487158                            000000000+                A CA 12110                     000000000  N000000000 493   0000000000000.00 0000000.00   0000000.00                             000000000000000                                                                                                                                                     01418 A000000000000 0000000000000.34     01510 01000                  
06468460219160001E167590675900000002881800888800000010100E068C80016 00000000000.004040404040404040404040404040404040404040404040404006011203A00000000000000000000000404040404040404040404040404040  00020840000000000000002307102C9CA1F12B7510D6D5A5C203404040400840A0000000031010000000000000000000404040404040404040404040404040404040404040404040 000000015.79 000000000.004040400000000000000000    80                                                                                                                                                                                                                                                                                                                  
06468470219160002G2675906759000000028818008888000000101SEVIERVILLE              TN           5 C                00                                      NNNN00 N 00                   000000000000                                                                   76487158                                                                                                                                                                                                                                                                                                                                                                                                                                               
06468480219160035DT67590675900000002881800888800000010180088877287283191900016900171071020230000000364519123000000000083007517805XXXXXX2475       MS02WI09          NY 1 0 AMWEGDCBIA0710  N840000000003645          07DNHAPPY HIPPIE             04319P    MC84000000003645 N  549976487158                            000000000+M10101M0034C    MWE  00743                     000000000  N                0000000000000.00 0000000.00   0000000.00                             000000000000000                                                                                                                                                   B101418  000000000000 0000000000000.88     02300 00400                  
06468490219160001E167590675900000002881800888800000010100000848027F 00000000000.00404040404040404040404040404040404040404040404040400110A04001220000000000000000000000FF00000000000000000000000000  0002084019800000008001230710B53838B03CAFC23CA5E7C7DC404040400840A0000000041010000000000000000000404040404040404040404040404040404040401F40404040 000000036.45 000000000.001F03020000000000000000    80                                                                                                                                                                                                                                                                                                                  
06468500219160002G2675906759000000028818008888000000101SEVIERVILLE              TN           5 E                                                        NNNN              000000000000000000000000       03               7                                          76487158                                                                                                                                                                                                                                                                                                                                                                                                                                               
06468510219160036DT67590675900000002881800888800000010180088877287283191900016900189071020230000001042419123000000000083007511953XXXXXX9431       MS02WI09          NY 1 0 AMDJX0NZH90710  N840000000010424          05DNHAPPY HIPPIE             024162    MD84000000010424 N  549976487158                            000000000+M10101C5434C    MDJ  00402                     000000000  N                0000000000000.00 0000000.00   0000000.00                             000000000000000                                                                                                                                                   B101418  000000000000 0000000000001.24     01050 01500                  
06468520219160001E167590675900000002881800888800000010100E0F8C80094 00000000000.00404040404040404040404040404040404040404040404040400110A04001220000000000000000000000FF00000000000000000000000000  000008403900000000800023071063F57D0A238BA13938FF6F7C404040400840A0000000041010000000000000000000D96A8BD8DEB14475031A0000000000004040401E40404040 000000104.24 000000000.001E03000000000000000000    80                                                                                                                                                                                                                                                                                                                  
06468530219160002G2675906759000000028818008888000000101SEVIERVILLE              TN           5 J                                                        NNNN              000000000000000000000000                        7                                          76487158                                                                                                                                                                                                                                                                                                                                                                                                                                               
06468540219160037DT67590675900000002881800888800000010180088873011003191900016900191071020230000000343719123000000000083007371726XXXXX3010                          NY 1 0 N007565378296078N840000000003437          07DNHAPPY HIPPIE             843065    AM84000000003437 N  549976487158                            000000000+51010X50034C 258     11261                     000000000                   0000000000000.00 0000000.00   0000000.00                             000000000000000 61248972086759675900000002881 HAPPY HIPPIE             832 PARKWAY              8656540830      37862     HAPPYHIPPIE832@GMAIL.COM                  01418  000000000000 0000000000000.65     01600 00000                  
06468550219160001E167590675900000002881800888800000010100E0E8C809BE 00000000000.004040404040404040404040404040404040404040404040404006570103A08002000000000000000000404040404040404040404040404040  0000084019800000008000230710C2074C33A031143D648DBE65404040400840A00000002501080100000000000000007916897BE37AD33B30300000000000004040401F40404040 000000034.37 000000000.001F02020000000000000000    80                                                                                                                                                                                                                                                                                                                  
06468560219160002G2675906759000000028818008888000000101SEVIERVILLE              TN           5                  00                                      NNNN                          000000000000                                                                   76487158                                                                                                                                                                                                                                                                                                                                                                                                                                               
06468570219160038BH6759067590000000215480088880000090170710202319123000000000093600    0000090001281099N8008886759C07112023828                                                                                                                                                                                                                                                                                                                                                                                                                                                                                                                                                                                              
06468580219160039DT67590675900000002154800888800000010180088824001193191900012810992071020230000009360019123000000000093600444395XXXXXX9616               2111111   NYV4 A7W303191771244367N8400000000936003P9D00    01DNDRIP DROP DISTRO LLC     09356G    VB84000000093600 NDR519971004114   INV-003060               000000000+                G5CG511887                     000000000  N000000000 163   0000000000000.00 0000000.00   0000000.00                             000000000000000                                                                                                                                                     01418 G000000093600 0000000000028.18     03000 01000                  
06468590219160039DR675906759000000021548008888000000101INV-003060               Y000000093600                 P1                                                                                                                                                                                                                                                                                                                                                                                                                                                                                                                                                                                                            
06468600219160001P16759067590000000215480088880000001010000000000000000    44190389626              2000000000000000000000000              000000000000                    0000000000000000000000000                    000000000000                                                                                                                                                                                                                                                                                                                                                                                                                                                                                        
06468610219160002G2675906759000000021548008888000000101800-9833326              ID           9 C                00                                      NNNN   Y                      000000000000                                                                   71004114                                                                                                                                                                                                                                                                                                                                                                                                                                               
06468620219160040BH6759067590000000288180088880000090170710202319123000000000202552    0000090001580036N8008886759C07112023058                                                                                                                                                                                                                                                                                                                                                                                                                                                                                                                                                                                              
06468630219160041DT67590675900000002881800888800000010180088824001193191900015800016071020230000000312419123000000000202552423223XXXXXX5462       VS11    0001111   NYV1 A E303191518047846N840000000003124MDD200    05DNHAPPY HIPPIE             065456    VD84000000003124 N  549976487169                            000000000+                F DF 00381                     000000000  N000000000       0000000000000.00 0000000.00   0000000.00                             000000000000000                                                                                                                                                     01418 A000000000000 0000000000000.40     00800 01500                  
06468640219160001E167590675900000002881800888800000010100E0F8C80107 00000000000.004040404040404040404040404040404040404040404040404006011203A02000000000000000000000404040404040404040404040404040  0000084018008080008000230710D3622218CCEBBAA4FBFA4CC5404040400840A0000000031010000000000000000000D456F77E0080000000000000000000004040401E40404040 000000031.24 000000000.001E00000000000000000000    80                                                                                                                                                                                                                                                                                                                  
06468650219160002G2675906759000000028818008888000000101SEVIERVILLE              TN           5 D                00                                      NNNN00 N 00                   000000000000                                                                   76487169                                                                                                                                                                                                                                                                                                                                                                                                                                               
