00004620216380002BH6759067590000000370780088880000090170209202304023000000000077382    0000090001270195Y8008886759C02102023                                                                                                                                                                                                                                                                                                                                                                                                                                                                                                                                                                                                 
00004630216380003DT67590675900000003707800888800000010180088824001193040900012701897020820230000001300004023000000000077382432739XXXXXX6815               2111111   NYV4 A7W583040036499128N840000000013000RGRW00    01DNMR HEMP FLOWER           809516    VD84000000013000 NP1549976053336   85487                    000000000+                F DF 10420                     000000000  Y000000000 338   0000000000000.00 0000000.00   0000000.00                             000000000000000                                                                                                                                                     01424 G000000013000 0000000000000.29     00050 02200                  
00004640216380001P16759067590000000370780088880000001010000000000000000                             2000000000000000000000000              000000000000                    0000000000000000000000000                    000000000000                                                                                                                                                                                                                                                                                                                                                                                                                                                                                        
00004650216380004DT67590675900000003707800888800000010180088824001193040900012701905020820230000000899004023000000000077382401160XXXXXX7291               2111111   NYV4 A7W303040077495414N840000000008990DHFL00    01DNMR HEMP FLOWER           830000    VD84000000008990 NP1549976053336   85488                    000000000+                F DF 00415                     000000000  N000000000       0000000000000.00 0000000.00   0000000.00                             000000000000000                                                                                                                                                     01424 G000000008990 0000000000001.63     01650 01500                  
00004660216380001P16759067590000000370780088880000001010000000000000000                             2000000000000000000000000              000000000000                    0000000000000000000000000                    000000000000                                                                                                                                                                                                                                                                                                                                                                                                                                                                                        
00004670216380005DT67590675900000003707800888800000010180088824001193040900012701913020820230000001349704023000000000077382487917XXXXXX1523               2111111   NYV4 A7W583040162505832N840000000013497ZXSX00    01DNMR HEMP FLOWER           224651    VD84000000013497 NP1549976053336   85496                    000000000+                F DF 00415                     000000000  N000000000       0000000000000.00 0000000.00   0000000.00                             000000000000000                                                                                                                                                     01424 G000000013497 0000000000002.38     01650 01500                  
00004680216380001P16759067590000000370780088880000001010000000000000000                             2000000000000000000000000              000000000000                    0000000000000000000000000                    000000000000                                                                                                                                                                                                                                                                                                                                                                                                                                                                                        
00004690216380006DT67590675900000003707800888800000010180088887287283040900012701922020820230000000379804023000000000077382515676XXXXXX6932       ME03KE06MS02      NY 4607AMWET4LKTL0208  N840000000003798          81DNMR HEMP FLOWER           04286Z    MC84000000003798 N  549976053336   85497                    000000000+600450S00130    MWE  00737                     000000000  N                0000000000000.00 0000000.00   0000000.00                             000000000000000                                                                                                                                                   U001424  000000000000 0000000000001.09     02600 01000                  
00004700216380007DT67590675900000003707800888800000010180088887287283040900012701930020920230000002000004023000000000077382542418XXXXXX6215       ME03KE06MS02      NY 4607AMWESV3H200209  N840000000020000          81DNMR HEMP FLOWER           36755P    MC84000000020000 N  549976053336   85521                    000000000+600450S00130    MWE  00737                     000000000  N                0000000000000.00 0000000.00   0000000.00                             000000000000000                                                                                                                                                   U001424  000000000000 0000000000005.30     02600 01000                  
00004710216380008DT67590675900000003707800888800000010180088824001193040900012701947020920230000001459904023000000000077382410039XXXXXX4204               2111111   NYV4 A7W383040683651179N840000000014599TZBT00    01DNMR HEMP FLOWER           71856D    VS84000000014599 NP1549976053336   85522                    000000000+                D CD 12109                     000000000  N000000000 498   0000000000000.00 0000000.00   0000000.00                             000000000000000                                                                                                                                                     01424 G000000014599 0000000000003.75     02500 01000                  
00004720216380001P16759067590000000370780088880000001010000000000000000                             2000000000000000000000000              000000000000                    0000000000000000000000000                    000000000000                                                                                                                                                                                                                                                                                                                                                                                                                                                                                        
00004730216380009DT67590675900000003707800888800000010180088887287283040900012701955020920230000000349804023000000000077382546657XXXXXX0166       ME03KE06MS02      NY 4607AMWEM67WA80209  N840000000003498          81DNMR HEMP FLOWER           01028P    MC84000000003498 N  549976053336   85542                    000000000+600450S00130    MWE  00737                     000000000  N                0000000000000.00 0000000.00   0000000.00                             000000000000000                                                                                                                                                   U001424  000000000000 0000000000001.01     02600 01000                  
00004740216380010BH6759067590000000766680088880000090170209202304023000000000063617    0000090001040020Y8008886759C02102023                                                                                                                                                                                                                                                                                                                                                                                                                                                                                                                                                                                                 
00004750216380011DT67590675900000007666800888800000010180088824001193040900010400013020920230000000213704023000000000063617455225XXXXXX0411       VS11    0001111   NYV1 A E383040654178251N840000000002137C7SC00    05DNPLANET VAPOR #300        H23211    VD84000000002137 N  599976777836                            000000000+                F DF 10433                     000000000  Y000000000 338   0000000000000.00 0000000.00   0000000.00                             000000000000000                                                                                                                                                     01424 A000000000000 0000000000000.23     00050 02200                  
00004760216380012DT67590675900000007666800888800000010180088824001193040900010400021020920230000000496604023000000000063617474474XXXXXX0369       VS11    0001111   NYV1 A E583040657891041N8400000000049668DWW00    05DNPLANET VAPOR #300        101463    VD84000000004966 N  599976777836                            000000000+                F DF 10433                     000000000  Y000000000 338   0000000000000.00 0000000.00   0000000.00                             000000000000000                                                                                                                                                     01424 A000000000000 0000000000000.24     00050 02200                  
00004770216380013DT67590675900000007666800888800000010180088824001193040900010400039020920230000000213704023000000000063617453506XXXXXX5131       VS11    0001111   NYV1 A E583040659004583N840000000002137TDWN00    05DNPLANET VAPOR #300        H24005    VD84000000002137 N  599976777836                            000000000+                F DF 10433                     000000000  Y000000000 338   0000000000000.00 0000000.00   0000000.00                             000000000000000                                                                                                                                                     01424 A000000000000 0000000000000.23     00050 02200                  
00004780216380014DT67590675900000007666800888800000010180088877287283040900010400049020920230000000237504023000000000063617534942XXXXXX3178       MS02WI09          NY 1 0 AMDJSC7T200209  N840000000002375          07DNPLANET VAPOR #300        415190    MD84000000002375 N  599976777836                            000000000+M10101M0034C    MDJ  00402                     000000000  N                0000000000000.00 0000000.00   0000000.00                             000000000000000                                                                                                                                                   A101424  000000000000 0000000000000.40     01050 01500                  
00004790216380015DT67590675900000007666800888800000010180088877287283040900010400056020920230000000237504023000000000063617557588XXXXXX6087       MS02WI09          NY 1 0 AMDJLQ72670209  N840000000002375          05DNPLANET VAPOR #300        262707    MD84000000002375 N  599976777836                            000000000+M10101C5434C    MDJ  00402                     000000000  N                0000000000000.00 0000000.00   0000000.00                             000000000000000                                                                                                                                                   B101424  000000000000 0000000000000.40     01050 01500                  
00004800216380016DT67590675900000007666800888800000010180088824001193040900010400062020920230000000289104023000000000063617498503XXXXXX1208       VS11    0001111   NYV1 A E463040738055941N8400000000028917MM400    05DNPLANET VAPOR #300        047840    VD84000000002891 N  599976777836                            000000000+                F DF 00381                     000000000  N000000000       0000000000000.00 0000000.00   0000000.00                             000000000000000                                                                                                                                                     01424 A000000000000 0000000000000.38     00800 01500                  
00004810216380017DT67590675900000007666800888800000010180088824001193040900010400070020920230000000421004023000000000063617473703XXXXXX5301       VS11    0001111   NYV1 A E463040755502880N840000000004210ZLC900    05DNPLANET VAPOR #300        095687    VD84000000004210 N  599976777836                            000000000+                F DF 10433                     000000000  Y000000000 338   0000000000000.00 0000000.00   0000000.00                             000000000000000                                                                                                                                                     01424 A000000000000 0000000000000.24     00050 02200                  
00004820216380018DT67590675900000007666800888800000010180088824001193040900010400088020920230000000664904023000000000063617461675XXXXXX1003       VS11    0001111   NYV1 A E583040758905630N840000000006649XM7600    05DNPLANET VAPOR #300        908530    VD84000000006649 N  599976777836                            000000000+                F DF 00381                     000000000  N000000000       0000000000000.00 0000000.00   0000000.00                             000000000000000                                                                                                                                                     01424 A000000000000 0000000000000.68     00800 01500                  
00004830216380019DT67590675900000007666800888800000010180088877287283040900010400098020920230000000323804023000000000063617528149XXXXXX5822       MS02WI09          NY 1 0 AMDJWAIP670209  N840000000003238          05DNPLANET VAPOR #300        058039    MD84000000003238 N  599976777836                            000000000+M10101C5434C    MDJ  00402                     000000000  N                0000000000000.00 0000000.00   0000000.00                             000000000000000                                                                                                                                                   B101424  000000000000 0000000000000.49     01050 01500                  
00004840216380020DT67590675900000007666800888800000010180088824001193040900010400104020920230000000323804023000000000063617473703XXXXXX7637       VS11    0001111   NYV1 A E383040774608713N840000000003238TX3900    05DNPLANET VAPOR #300        073478    VD84000000003238 N  599976777836                            000000000+                F DF 10433                     000000000  Y000000000 338   0000000000000.00 0000000.00   0000000.00                             000000000000000                                                                                                                                                     01424 A000000000000 0000000000000.24     00050 02200                  
00004850216380021DT67590675900000007666800888800000010180088877287283040900010400114020920230000000237504023000000000063617535561XXXXXX3091                         NY 1 0 AMDH4ICX200209  N840000000002375          07DNPLANET VAPOR #300        117105    MD84000000002375FN  599976777836                            000000000+M10101M0034C    MDH  12231                     0000000141 N                0000000000000.00 0000000.00   0000000.00                             000000000000000                                                                                                                                                     01424  000000000000 0000000000000.47     01980 00000                  
00004860216380022DT67590675900000007666800888800000010180088824001193040900010400120020920230000000058104023000000000063617441707XXXXXX6427       VK04VS111111111   NYV1 A E303040797933443N840000000000581FB2X00    07DNPLANET VAPOR #300        551481    VD84000000000581 N  599976777836                            000000000+                F PF 08165                     000000000  N000000000       0000000000000.00 0000000.00   0000000.00                             000000000000000                                                                                                                                                     01424 F000000000000 0000000000000.14     01600 00500                  
00004870216380023DT67590675900000007666800888800000010180088824001193040900010400138020920230000000734104023000000000063617473703XXXXXX0766       VS11    0001111   NYV1 A E383040825183814N840000000007341PMP900    05DNPLANET VAPOR #300        065379    VD84000000007341 N  599976777836                            000000000+                F DF 10433                     000000000  Y000000000 338   0000000000000.00 0000000.00   0000000.00                             000000000000000                                                                                                                                                     01424 A000000000000 0000000000000.26     00050 02200                  
00004880216380024DT67590675900000007666800888800000010180088824001193040900010400146020920230000000058204023000000000063617420767XXXXXX7071       VK04VS111111111   NYV1 A E303040832253073N840000000000582N3WD00    05DNPLANET VAPOR #300        060718    VD84000000000582 N  599976777836                            000000000+                F DF 10439                     000000000  Y000000000 331   0000000000000.00 0000000.00   0000000.00                             000000000000000                                                                                                                                                     01424 F000000000000 0000000000000.22     00050 02200                  
00004890216380025DT67590675900000007666800888800000010180088824001193040900010400153020920230000000485904023000000000063617473702XXXXXX1316       VS11    0001111   NYV1 A E583040833298094N8400000000048598D3K00    07DNPLANET VAPOR #300        093478    VD84000000004859 N  599976777836                            000000000+                F DF 10433                     000000000  Y000000000 338   0000000000000.00 0000000.00   0000000.00                             000000000000000                                                                                                                                                     01424 A000000000000 0000000000000.24     00050 02200                  
00004900216380026DT67590675900000007666800888800000010180088824001193040900010400161020920230000000097904023000000000063617400022XXXXXX2154       VK04VS111111111   NYV1 A E303040844018161N840000000000979RPWS00    07DNPLANET VAPOR #300        550088    VD84000000000979 N  599976777836                            000000000+                F DF 10439                     000000000  Y000000000 331   0000000000000.00 0000000.00   0000000.00                             000000000000000                                                                                                                                                     01424 F000000000000 0000000000000.22     00050 02200                  
00004910216380027DT67590675900000007666800888800000010180088824001193040900010400179020920230000000215904023000000000063617473703XXXXXX5320       VS11    0001111   NYV1 A E383040846007823N8400000000021594SWQ00    07DNPLANET VAPOR #300        081143    VD84000000002159 N  599976777836                            000000000+                F DF 10433                     000000000  Y000000000 338   0000000000000.00 0000000.00   0000000.00                             000000000000000                                                                                                                                                     01424 A000000000000 0000000000000.23     00050 02200                  
00004920216380028DT67590675900000007666800888800000010180088824001193040900010400187020920230000000475004023000000000063617406049XXXXXX9379       VS11    0001111   NYV1 A E463040856837683N840000000004750XDW900    05DNPLANET VAPOR #300        074803    VD84000000004750 N  599976777836                            000000000+                F DF 10433                     000000000  Y000000000 338   0000000000000.00 0000000.00   0000000.00                             000000000000000                                                                                                                                                     01424 A000000000000 0000000000000.24     00050 02200                  
00004930216380029DT67590675900000007666800888800000010180088824001193040900010400195020920230000000340004023000000000063617453506XXXXXX0331       VS11    0001111   NYV1 A E583040860560185N8400000000034003F2J00    07DNPLANET VAPOR #300        H78860    VD84000000003400 N  599976777836                            000000000+                F DF 10433                     000000000  Y000000000 338   0000000000000.00 0000000.00   0000000.00                             000000000000000                                                                                                                                                     01424 A000000000000 0000000000000.24     00050 02200                  
00004940216380030DT67590675900000007666800888800000010180088824001193040900010400203020920230000000237504023000000000063617400022XXXXXX4974       VS11    0001111   NYV1 A E463041023764535N840000000002375XCGX00    07DNPLANET VAPOR #300        172963    VD84000000002375 N  599976777836                            000000000+                F DF 10433                     000000000  Y000000000 338   0000000000000.00 0000000.00   0000000.00                             000000000000000                                                                                                                                                     01424 A000000000000 0000000000000.23     00050 02200                  
00004950216380031BH6759067590000000215480088880000090170209202304023000000007389732    0000090001060017Y8008886759C02102023                                                                                                                                                                                                                                                                                                                                                                                                                                                                                                                                                                                                 
00004960216380032DT67590675900000002154800888800000010180088873011003040900010600014020920230000008167904023000000007389732372729XXXXX1017                          NY 1 0 N006989138031065N840000000081679          05DNDRIP DROP DISTRO LLC     801284    AM84000000081679 Y  519976225826                            000000000+51010155434C 258     11244                     000000000                   0000000000000.00 0000000.00   0000000.00                             000000000000000 61248972736759675900000002154 DRIP DROP DISTRO LLC     1445 W COMMERCE AVE SUITE2087248209      83705     TROY@DRIPDROPDISTRO.COM                   01324  000000000000 0000000000015.62     01900 00000                  
00004970216380033DT67590675900000002154800888800000010180088824001193040900010600026020920230000004690004023000000007389732414709XXXXXX1887       VS11    0001111   NYV1 A E583040724830989N840000000046900NJS400    05DNDRIP DROP DISTRO LLC     04125D    VS84000000046900 N  519976225826                            000000000+                D CD 12113                     000000000  N000000000 499   0000000000000.00 0000000.00   0000000.00                             000000000000000                                                                                                                                                     01424 A000000000000 0000000000009.95     02100 01000                  
00004980216380034DT67590675900000002154800888800000010180088824001193040900010600034020920230000003500004023000000007389732433993XXXXXX3303       VS11    0001111   NYV1 A E303040741268350N840000000035000SRF300    05DNDRIP DROP DISTRO LLC     03500G    VB84000000035000 N  519976225826                            000000000+                G1CG108011                     000000000  N000000000 391   0000000000000.00 0000000.00   0000000.00                             000000000000000                                                                                                                                                     01424 A000000000000 0000000000007.45     02100 01000                  
00004990216380035DT67590675900000002154800888800000010180088873011003040900010600048020920230000175392004023000000007389732376752XXXXX1008                          NY 1 0 N006989680695069N840000001753920          05DNDRIP DROP DISTRO LLC     884176    AM84000001753920 Y  519976225826                            000000000+51010155434C 258     11245                     000000000                   0000000000000.00 0000000.00   0000000.00                             000000000000000 61248972736759675900000002154 DRIP DROP DISTRO LLC     1445 W COMMERCE AVE SUITE2087248209      83705     TROY@DRIPDROPDISTRO.COM                   01324  000000000000 0000000000412.27     02350 00000                  
00005000216380036DT67590675900000002154800888800000010180088824001193040900010600059020920230000016760004023000000007389732415417XXXXXX8676       VS11    0001111   NYV1 A E583040770109808N8400000001676004QXM00    05DNDRIP DROP DISTRO LLC     09939G    VB84000000167600 N  519976225826                            000000000+                G4CG411354                     000000000  N000000000 378   0000000000000.00 0000000.00   0000000.00                             000000000000000                                                                                                                                                     01424 A000000000000 0000000000036.97     02200 01000                  
00005010216380037DT67590675900000002154800888800000010180088877287283040900010600069020920230000008700004023000000007389732557251XXXXXX9068                         NY 1 0 AMDBPQGU670209  N840000000087000          05DNDRIP DROP DISTRO LLC     253946    MD84000000087000 NP1519976225826                            000000000+M10101C5434C    MDB  00062                     000000000  N                0000000000000.00 0000000.00   0000000.00                             000000000000000                                                                                                                                                   B101424  000000000000 0000000000023.16     02650 01000                  
00005020216380001P1675906759000000021548008888000000101                                                          000000000000          8000            471534935                                                                                                                                                                                                                                                                                                                                                                                                                                                                                                                                                            
00005030216380038DT67590675900000002154800888800000010180088876509753040900010600073020920230000002100004023000000007389732601100XXXXXX4709   BA50                  NY41 0 N813034288615040N840000000021000    00    05DNDRIP DROP DISTRO LLC     00956R    DS84000000021000 N  519976225826050                         000000000+0000004910H00   DCCDI01000666049  162741000000 000000000  0          112   0000000000000.00 0000000.00   0000000.00                             000000000000000                                                                                                                                                     01424  000000000000 0000000000003.71     01720 01000                  
00005040216380039DT67590675900000002154800888800000010180088824001193040900010600083020920230000113640004023000000007389732424631XXXXXX0145       VS11    0001111   NYV1 A E303040778425819N840000001136400S6QX00    05DNDRIP DROP DISTRO LLC     01689G    VB84000001136400 N  519976225826                            000000000+                G5CG511888                     000000000  N000000000 178   0000000000000.00 0000000.00   0000000.00                             000000000000000                                                                                                                                                     01424 A000000000000 0000000000255.79     02250 01000                  
00005050216380040DT67590675900000002154800888800000010180088824001193040900010600091020920230000002888004023000000007389732424631XXXXXX0588       VS11    0001111   NYV1 A E383040789183675N840000000028880ZXP700    05DNDRIP DROP DISTRO LLC     05559G    VB84000000028880 N  519976225826                            000000000+                G4CG411354                     000000000  N000000000 378   0000000000000.00 0000000.00   0000000.00                             000000000000000                                                                                                                                                     01424 A000000000000 0000000000006.45     02200 01000                  
00005060216380041DT67590675900000002154800888800000010180088824001193040900010600109020920230000172125004023000000007389732424631XXXXXX2913       VS11    0001111   NYV1 A E383040796590740N840000001721250Z8KB00    05DNDRIP DROP DISTRO LLC     02193G    VB84000001721250 N  519976225826                            000000000+                G1CG108011                     000000000  N000000000 391   0000000000000.00 0000000.00   0000000.00                             000000000000000                                                                                                                                                     01424 A000000000000 0000000000361.56     02100 01000                  
00005070216380042DT67590675900000002154800888800000010180088824001193040900010600117020920230000011970004023000000007389732413574XXXXXX7469       VS11    0001111   NYV1 A E463040808062608N840000000119700BGNJ00    05DNDRIP DROP DISTRO LLC     102569    VD84000000119700 N  519976225826                            000000000+                G DG 10351                     000000000  Y000000000 338   0000000000000.00 0000000.00   0000000.00                             000000000000000                                                                                                                                                     01424 A000000000000 0000000000000.82     00050 02200                  
00005080216380043DT67590675900000002154800888800000010180088824001193040900010600125020920230000011160004023000000007389732480252XXXXXX9184       VS11    0001111   NYV1 A E303040815714774N840000000111600P7LF00    05DNDRIP DROP DISTRO LLC     063932    VD84000000111600 N  519976225826                            000000000+                G DG 08704                     000000000  N000000000       0000000000000.00 0000000.00   0000000.00                             000000000000000                                                                                                                                                     01424 A000000000000 0000000000019.07     01700 01000                  
00005090216380044DT67590675900000002154800888800000010180088824001193040900010600133020920230000008450004023000000007389732480209XXXXXX7237       VS11    0001111   NYV1 A E463040820743892N8400000000845005R2K00    05DNDRIP DROP DISTRO LLC     023760    VD84000000084500 N  519976225826                            000000000+                G DG 10351                     000000000  Y000000000 338   0000000000000.00 0000000.00   0000000.00                             000000000000000                                                                                                                                                     01424 A000000000000 0000000000000.64     00050 02200                  
00005100216380045DT67590675900000002154800888800000010180088877287283040900010600143020920230000003666804023000000007389732558800XXXXXX6116                         NY 1 0 AMCBBMA3A90209  N840000000036668          05DNDRIP DROP DISTRO LLC     19928J    MB84000000036668 NP1519976225826                            000000000+M10101C5434C    MCB  10991                     000000000  N                0000000000000.00 0000000.00   0000000.00                             000000000000000                                                                                                                                                   B101424  000000000000 0000000000010.92     02950 01000                  
00005110216380001P1675906759000000021548008888000000101                                                          000000000000          8000            471534935                                                                                                                                                                                                                                                                                                                                                                                                                                                                                                                                                            
00005120216380046DT67590675900000002154800888800000010180088824001193040900010600158020920230000150768004023000000007389732424631XXXXXX5077       VS11    0001111   NYV1 A E463041004603575N840000001507680H7LK00    05DNDRIP DROP DISTRO LLC     02212G    VB84000001507680 N  519976225826                            000000000+                G5CG511888                     000000000  N000000000 178   0000000000000.00 0000000.00   0000000.00                             000000000000000                                                                                                                                                     01424 A000000000000 0000000000339.33     02250 01000                  
00005130216380047DT67590675900000002154800888800000010180088877287283040900010600168020920230000011740504023000000007389732521333XXXXXX3873       MS02WI09          NY 1 0 AMWEC258NW0209  N840000000117405          05DNDRIP DROP DISTRO LLC     00922Y    MC84000000117405 N  519976225826                            000000000+M10101C5434C    MWE  00644                     000000000  N                0000000000000.00 0000000.00   0000000.00                             000000000000000                                                                                                                                                   B101424  000000000000 0000000000022.41     01900 01000                  
00005140216380048DT67590675900000002154800888800000010180088824001193040900010600174020920230000033255004023000000007389732424631XXXXXX7961       VS11    0001111   NYV1 A E383041077144925N840000000332550KPMP00    05DNDRIP DROP DISTRO LLC     05033G    VB84000000332550 N  519976225826                            000000000+                G5CG511888                     000000000  N000000000 178   0000000000000.00 0000000.00   0000000.00                             000000000000000                                                                                                                                                     01424 A000000000000 0000000000074.92     02250 01000                  
00005150216380049BH6759067590000000288180088880000090170209202304023000000000017875    0000090001550115Y8008886759C02102023                                                                                                                                                                                                                                                                                                                                                                                                                                                                                                                                                                                                 
00005160216380050DT67590675900000002881800888800000010180088887287283040900015501147020920230000000799904023000000000017875512107XXXXXX1736       ME03KE06PT01      NY 4607AMCWL10Y3X0209  N840000000007999          81DNHAPPY HIPPIE             00949P    MC84000000007999 N  549976044904   1931                     000000000+600450S00130    MCW  00642                     000000000  N                0000000000000.00 0000000.00   0000000.00                             000000000000000                                                                                                                                                   U001424  000000000000 0000000000001.86     02200 01000                  
00005170216380051DT67590675900000002881800888800000010180088824001193040900015501153020920230000000987604023000000000017875415978XXXXXX1143               2111111   NYV4 A7W383040665447057N840000000009876J9RQ00    01DNHAPPY HIPPIE             077997    VD84000000009876 NP1549976044904   1932                     000000000+                F DF 10420                     000000000  Y000000000 338   0000000000000.00 0000000.00   0000000.00                             000000000000000                                                                                                                                                     01424 G000000009876 0000000000000.27     00050 02200                  
00005180216380001P16759067590000000288180088880000001010000000000000000                             2000000000000000000000000              000000000000                    0000000000000000000000000                    000000000000                                                                                                                                                                                                                                                                                                                                                                                                                                                                                        
00005190216380052BH6759067590000000051380000180000090170209202304023000000000000209    0000090001550001Y8000016759C02102023                                                                                                                                                                                                                                                                                                                                                                                                                                                                                                                                                                                                 
00005200216380053DT67590675900000000513800001800000010180000124001193040900015500015020920230000000020904023000000000000209474489XXXXXX3159       VK04VS111111111   NYV1 A E383041074030323N8400000000002095H2H00    07DNVERMONT STATE BANK2      100735    VD84000000000209 N  549975705321                            000000000+                F DF 10439                     000000000  Y000000000 331   0000000000000.00 0000000.00   0000000.00                             000000000000000                                                                                                                                                     01424 F000000000000 0000000000000.22     00050 02200                  
