01500010267440002BH6759067590000000215480088880000090171212202234622000000000234720    0000090001585046N8008886759C12132022                                                                                                                                                                                                                                                                                                                                                                                                                                                                                                                                                                                                 
01500020267440003DT67590675900000002154800888800000010180088824001192346900015850462121220220000023472034622000000000234720486697XXXXXX8448               2111111   NYV4 A7W462346631966601N8400000002347207ZP500    01DNDRIP DROP DISTRO LLC     012643    VB84000000234720 NP1519971004114   INV-27803                000000000+                S CS 00692                     000000000  N000000000 237   0000000000000.00 0000000.00   0000000.00                             000000000000000                                                                                                                                                     01418 G000000234720 0000000000063.47     02700 01000                  
01500030267440001P16759067590000000215480088880000001010000000000000000    43816184971              2000000000000000000000000              000000000000                    0000000000000000000000000                    000000000000                                                                                                                                                                                                                                                                                                                                                                                                                                                                                        
