04912040711623381AD675906759000000151648008888000009077900014268930000001987005282023NYY14823YC6759800888053020232023129004510                                                                                                                                                                                                                                                                                                                                                                                                                                                                                                                                                                                              
04912050711623384AD675906759000000268498001258000009071900011018340000001713605282023NYY14823ND6759800125053020232023146021180                                                                                                                                                                                                                                                                                                                                                                                                                                                                                                                                                                                              
04912060711623387AD675906759000000151648008888000009071900011717850000000987005282023NYY14823ND6759800888053020232023146021181                                                                                                                                                                                                                                                                                                                                                                                                                                                                                                                                                                                              
04912070711623390AD675906759000000151648008888000009071900011717860000000654805282023NYY14823ND6759800888053020232023146021182                                                                                                                                                                                                                                                                                                                                                                                                                                                                                                                                                                                              
04912080711623393AD675906759000000151648008888000009071900011717870000000519005282023NYY14823ND6759800888053020232023146021183                                                                                                                                                                                                                                                                                                                                                                                                                                                                                                                                                                                              
04912090711623396AD675906759000000268498001258000009071900013909830000000713605282023NYY14823ND6759800125053020232023146021184                                                                                                                                                                                                                                                                                                                                                                                                                                                                                                                                                                                              
04912100711623399AD675906759000000151648008888000009071900014163240000001987005282023NYY14823ND6759800888053020232023146021185                                                                                                                                                                                                                                                                                                                                                                                                                                                                                                                                                                                              
04912110711623402AD675906759000000151648008888000009071900012235490000001987005282023NYY14823ND6759800888053020232023146021186                                                                                                                                                                                                                                                                                                                                                                                                                                                                                                                                                                                              
04912120711623405AD675906759000000268498001258000009071900012354280000002477005282023NYY14823ND6759800125053020232023146021187                                                                                                                                                                                                                                                                                                                                                                                                                                                                                                                                                                                              
04912130711623408AD675906759000000268498001258000009071900010609120000001977005282023NYY14823ND6759800125053020232023146021188                                                                                                                                                                                                                                                                                                                                                                                                                                                                                                                                                                                              
04912140711623411AD675906759000000133008001028000009071900019118000000001272805282023NYY14823ND6759800102053020232023146021189                                                                                                                                                                                                                                                                                                                                                                                                                                                                                                                                                                                              
04912150711623414AD675906759000000198288001098000009077900011514080000000654805282023NYY14823YC6759800109053020232023146021281                                                                                                                                                                                                                                                                                                                                                                                                                                                                                                                                                                                              
04912160711623417AD675906759000000198288001098000009077900011514070000001987005282023NYY14823YC6759800109053020232023146021282                                                                                                                                                                                                                                                                                                                                                                                                                                                                                                                                                                                              
04912170711623420AD675906759000000198288001098000009077900012343720000001987005282023NYY14823YC6759800109053020232023146021283                                                                                                                                                                                                                                                                                                                                                                                                                                                                                                                                                                                              
04912180711623423AD675906759000000268498001258000009071900013000800000001977005282023NYY14823ND6759800125053020232023146021191                                                                                                                                                                                                                                                                                                                                                                                                                                                                                                                                                                                              
04912190711623426AD675906759000000268498001258000009071900013000820000000979805282023NYY14823ND6759800125053020232023146021192                                                                                                                                                                                                                                                                                                                                                                                                                                                                                                                                                                                              
04912200711623429AD675906759000000268498001258000009071900013000850000000619805282023NYY14823ND6759800125053020232023146021193                                                                                                                                                                                                                                                                                                                                                                                                                                                                                                                                                                                              
04912210711623432AD675906759000000268498001258000009071900013000860000000129505282023NYY14823ND6759800125053020232023146021194                                                                                                                                                                                                                                                                                                                                                                                                                                                                                                                                                                                              
04912220711623435AD675906759000000268498001258000009071900011834090000002245005282023NYY14823ND6759800125053020232023146021195                                                                                                                                                                                                                                                                                                                                                                                                                                                                                                                                                                                              
04912230711623438AD675906759000000133008001028000009071900019022770000001596505282023NYY14823ND6759800102053020232023146021196                                                                                                                                                                                                                                                                                                                                                                                                                                                                                                                                                                                              
04912240711623441AD675906759000000151648008888000009077900011613770000001394805282023NYY14823YC6759800888053020232023146021284                                                                                                                                                                                                                                                                                                                                                                                                                                                                                                                                                                                              
04912250711623444AD675906759000000268498001258000009071900012985200000000979805282023NYY14823ND6759800125053020232023146021285                                                                                                                                                                                                                                                                                                                                                                                                                                                                                                                                                                                              
04912260711623447AD675906759000000268498001258000009071900012985190000001977005282023NYY14823ND6759800125053020232023146021286                                                                                                                                                                                                                                                                                                                                                                                                                                                                                                                                                                                              
04912270711623462AD675906759000000142748001028000009071900019217850000001317905282023NYY14823ND6759800102053020232023146029803                                                                                                                                                                                                                                                                                                                                                                                                                                                                                                                                                                                              
04912280711623465AD675906759000000151648008888000009071900016058120000001987005282023NYY14823ND6759800888053020232023146029839                                                                                                                                                                                                                                                                                                                                                                                                                                                                                                                                                                                              
04912290711831157AD675906759000000198288001098000009071231250062730000001399205262023NYY14623ND6759800109053020232023125006273                                                                                                                                                                                                                                                                                                                                                                                                                                                                                                                                                                                              
04912300711831160AD675906759000000151648008888000009077231300050300000001987005262023NYY14623YC6759800888053020232023130005030                                                                                                                                                                                                                                                                                                                                                                                                                                                                                                                                                                                              
04912310713220002BH6759067590000002962980013180000090170529202314923000000000027500    0000090001070006N8001316759C05302023007                                                                                                                                                                                                                                                                                                                                                                                                                                                                                                                                                                                              
04912320713220003DT67590675900000029629800131800000010180013124001193149900010700016052820230000000350014923000000000027500435173XXXXXX9900       VS11    0001111   NYV1 A E303148616059678N840000000003500V78500    05DNPAK VENTURES             160126    VD84000000003500 N  599978419189                            000000000+                F DF 10433                     000000000  Y000000000 338   0000000000000.00 0000000.00   0000000.00                             000000000000000                                                                                                                                                     01418 A000000000000 0000000000000.24     00050 02200                  
04912330713220001E167590675900000029629800131800000010100E0F8C800D4 00000000000.004040404040404040404040404040404040404040404040404006011203A08000000000000000000000404040404040404040404040404040  00010840180080800080002305289282D3D20420F07C61B599EB404040400840A000000003101000000000000000000063036F4D0082000000000000000000004040401E40404040 000000035.00 000000000.001E00000000000000000000    80                                                                                                                                                                                                                                                                                                                  
04912340713220002G2675906759000000296298001318000000101MILTON                   FL           5 D                00                                      NNNN00 N 00                   000000000000                                                                   78419189                                                                                                                                                                                                                                                                                                                                                                                                                                               
04912350713220004DT67590675900000029629800131800000010180013177287283149900010700026052820230000000700014923000000000027500551056XXXXXX5586       MS02WI09          NY 1 0 AMDJMUN2G70528  N840000000007000          05DNPAK VENTURES             041708    MD84000000007000 N  599978419189                            000000000+M10101C5434C    MDJ  00402                     000000000  N                0000000000000.00 0000000.00   0000000.00                             000000000000000                                                                                                                                                   B101418  000000000000 0000000000000.89     01050 01500                  
04912360713220001E167590675900000029629800131800000010100E0F8C80454 00000000000.00404040404040404040404040404040404040404040404040400110A00001220000000000000000000000FF00000000000000000000000000  0000084018008000008000230528BDFC2541D500CDFE0E552218404040400840A00000000410100000000000000000003FF9AAD837CE83A500120000000000004040401E40404040 000000070.00 000000000.001E03000000000000000000    80                                                                                                                                                                                                                                                                                                                  
04912370713220002G2675906759000000296298001318000000101MILTON                   FL           5 J                                                        NNNN              000000000000000000000000                        7                                          78419189                                                                                                                                                                                                                                                                                                                                                                                                                                               
04912380713220005DT67590675900000029629800131800000010180013124001193149900010700032052820230000000900014923000000000027500479167XXXXXX1949       VS11    0001111   NYV1 A E383148704180101N8400000000090004DFF00    05DNPAK VENTURES             143339    VD84000000009000 N  599978419189                            000000000+                F DF 00381                     000000000  N000000000       0000000000000.00 0000000.00   0000000.00                             000000000000000                                                                                                                                                     01418 A000000000000 0000000000000.87     00800 01500                  
04912390713220001E167590675900000029629800131800000010100E0F8C8016D 00000000000.004040404040404040404040404040404040404040404040404006011203A02000000000000000000000404040404040404040404040404040  000108401800808000800023052883B6662BC36AAC651D86E5CE404040400840A0000000031010000000000000000000D89A0E200382000000000000000000004040401E40404040 000000090.00 000000000.001E00000000000000000000    80                                                                                                                                                                                                                                                                                                                  
04912400713220002G2675906759000000296298001318000000101MILTON                   FL           5 D                00                                      NNNN00 N 00                   000000000000                                                                   78419189                                                                                                                                                                                                                                                                                                                                                                                                                                               
04912410713220006DT67590675900000029629800131800000010180013173011003149900010700046052820230000000250014923000000000027500379841XXXXX1000                          NY 1 0 N007259432791072N840000000002500          05DNPAK VENTURES             836532    AM84000000002500 N  599978419189                            000000000+51010155434C 258     11261                     000000000                   0000000000000.00 0000000.00   0000000.00                             000000000000000 61248972086759675900000029629 PAK VENTURES             4430 US 90 UNIT H        8502810009      32571     DELTALIFEPENSACOLA@GMAIL.COM              01418  000000000000 0000000000000.50     01600 00000                  
04912420713220001E167590675900000029629800131800000010100E0F8C80188 00000000000.004040404040404040404040404040404040404040404040404006570103A0A002000000000000000000404040404040404040404040404040  000008403C0000000080002305288B689A03CCE3FF5CD735ED53404040400840A0000000250108010000000000000000ED27368DE183B2E430300000000000004040401E40404040 000000025.00 000000000.001E03000000000000000000    80                                                                                                                                                                                                                                                                                                                  
04912430713220002G2675906759000000296298001318000000101MILTON                   FL           5                  00                                      NNNN                          000000000000                                                                   78419189                                                                                                                                                                                                                                                                                                                                                                                                                                               
04912440713220007DT67590675900000029629800131800000010180013177287283149900010700059052820230000000300014923000000000027500551056XXXXXX4555       MS02WI09          NY 1 0 AMDJZD7KLU0528  N840000000003000          05DNPAK VENTURES             055025    MD84000000003000 N  599978419189                            000000000+M10101C5434C    MDJ  00402                     000000000  N                0000000000000.00 0000000.00   0000000.00                             000000000000000                                                                                                                                                   B101418  000000000000 0000000000000.47     01050 01500                  
04912450713220001E167590675900000029629800131800000010100E0F8C80376 00000000000.00404040404040404040404040404040404040404040404040400110A00001220000000000000000000000FF00000000000000000000000000  00000840180080000080002305289DB5978BD75F9C95531D6F77404040400840A0000000041010000000000000000000FA69491031E166A100120000000000004040401E40404040 000000030.00 000000000.001E03000000000000000000    80                                                                                                                                                                                                                                                                                                                  
04912460713220002G2675906759000000296298001318000000101MILTON                   FL           5 J                                                        NNNN              000000000000000000000000                        7                                          78419189                                                                                                                                                                                                                                                                                                                                                                                                                                               
04912470713220008DT67590675900000029629800131800000010180013124001193149900010700065052820230000000250014923000000000027500421783XXXXXX0116       VS11    0001111   NYV1 A E463148753083833N840000000002500HL8L00    05DNPAK VENTURES             087242    VS84000000002500 N  599978419189                            000000000+                A CA 12110                     000000000  N000000000 493   0000000000000.00 0000000.00   0000000.00                             000000000000000                                                                                                                                                     01418 A000000000000 0000000000000.48     01510 01000                  
04912480713220001E167590675900000029629800131800000010100E0F8C801E7 00000000000.004040404040404040404040404040404040404040404040404006010A03A02000000000000000000000404040404040404040404040404040  0000084018008080008000230528648C0A2FE1E397961FA94C4A404040400840A0000000031010000000000000000000E434175ADCBF94E930300000000000004040401E40404040 000000025.00 000000000.001E00000000000000000000    80                                                                                                                                                                                                                                                                                                                  
04912490713220002G2675906759000000296298001318000000101MILTON                   FL           5 C                00                                      NNNN00 N 00                   000000000000                                                                   78419189                                                                                                                                                                                                                                                                                                                                                                                                                                               
04912500713220009BH6759067590000000909280010180000090170529202314923000000000104874    0000090001750021N8001016759C05302023075                                                                                                                                                                                                                                                                                                                                                                                                                                                                                                                                                                                              
04912510713220010DT67590675900000009092800101800000010180010124001193149900017500013052920230000000242914923000000000104874418505XXXXXX9564       VS11    0001111   NYV1 A E463149511964961N840000000002429MS4V00    05DNPLANET VAPOR INC #500    611955    VD84000000002429 N  599977384801                            000000000+                F DF 00381                     000000000  N000000000       0000000000000.00 0000000.00   0000000.00                             000000000000000                                                                                                                                                     01418 A000000000000 0000000000000.34     00800 01500                  
04912520713220001E167590675900000009092800101800000010100E0F8C8017B 00000000000.004040404040404040404040404040404040404040404040404006010A03A0A000000000000000000000404040404040404040404040404040  000008401800808000800023052977633487BC26C32A31EE1066404040400840A0000000031010000000000000000000EC82DA13247E450130300000000000004040401E40404040 000000024.29 000000000.001E00000000000000000000    80                                                                                                                                                                                                                                                                                                                  
04912530713220002G2675906759000000090928001018000000101IRMO                     SC           5 D                00                                      NNNN00 N 00                   000000000000                                                                   77384801                                                                                                                                                                                                                                                                                                                                                                                                                                               
04912540713220011DT67590675900000009092800101800000010180010177287283149900017500023052920230000000831414923000000000104874515676XXXXXX6869       MS02WI09          NY 1 0 AMWEBM64XW0529  N840000000008314          05DNPLANET VAPOR INC #500    07188Z    MC84000000008314 N  599977384801                            000000000+M10101C5434C    MWE  00739                     000000000  N                0000000000000.00 0000000.00   0000000.00                             000000000000000                                                                                                                                                   B101418  000000000000 0000000000002.01     02300 01000                  
04912550713220001E167590675900000009092800101800000010100E0F8C80009 00000000000.00404040404040404040404040404040404040404040404040400110A04001220000000000000000000000FF00000000000000000000000000  00010840390000000080002305292CACE355860BCBE05F1172CE404040400840A00000000410100000000000000000005AEC995CAB7257CB00120000000000004040401E40404040 000000083.14 000000000.001E03000000000000000000    80                                                                                                                                                                                                                                                                                                                  
04912560713220002G2675906759000000090928001018000000101IRMO                     SC           5 E                                                        NNNN              000000000000000000000000                        7                                          77384801                                                                                                                                                                                                                                                                                                                                                                                                                                               
04912570713220012DT67590675900000009092800101800000010180010124001193149900017500039052920230000000475014923000000000104874446540XXXXXX4654       VS11    0001111   NYV1 A E303149516311304N8400000000047503NPL00    05DNPLANET VAPOR INC #500    029235    VS84000000004750 N  599977384801                            000000000+                D CD 12113                     000000000  N000000000 499   0000000000000.00 0000000.00   0000000.00                             000000000000000                                                                                                                                                     01418 A000000000000 0000000000001.10     02100 01000                  
04912580713220001E167590675900000009092800101800000010100E0F8C801CC 00000000000.004040404040404040404040404040404040404040404040404006011203A0A000000000000000000000404040404040404040404040404040  0001084018008080008000230529A9301819D97A2F8077F284FA404040400840A00000000310100000000000000000003B3677630082000000000000000000004040401E40404040 000000047.50 000000000.001E00000000000000000000    80                                                                                                                                                                                                                                                                                                                  
04912590713220002G2675906759000000090928001018000000101IRMO                     SC           5 C                00                                      NNNN00 Y 00                   000000000000                                                                   77384801                                                                                                                                                                                                                                                                                                                                                                                                                                               
04912600713220013DT67590675900000009092800101800000010180010124001193149900017500047052920230000000377914923000000000104874473703XXXXXX5909       VS11    0001111   NYV1 A E583149536050317N840000000003779PXFK00    07DNPLANET VAPOR INC #500    035297    VD84000000003779 N  599977384801                            000000000+                F DF 10433                     000000000  Y000000000 338   0000000000000.00 0000000.00   0000000.00                             000000000000000                                                                                                                                                     01418 A000000000000 0000000000000.24     00050 02200                  
04912610713220001E167590675900000009092800101800000010100E068C80070 00000000000.004040404040404040404040404040404040404040404040404006061203A00000000000000000000000404040404040404040404040404040  0000084000000000000000230529BC24AE7104E5F64497202E88404040400840A00000000310100000000000000000001000200020E0208020200000000000004040404040404040 000000037.79 000000000.004040400000000000000000    80                                                                                                                                                                                                                                                                                                                  
04912620713220002G2675906759000000090928001018000000101IRMO                     SC           5 D                00                                      NNNN00 N 00                   000000000000                                                                   77384801                                                                                                                                                                                                                                                                                                                                                                                                                                               
04912630713220014DT67590675900000009092800101800000010180010124001193149900017500054052920230000000377914923000000000104874466189XXXXXX1945       VS11    0001111   NYV1 A E303149545802875N8400000000037794DP300    07DNPLANET VAPOR INC #500    052844    VD84000000003779 N  599977384801                            000000000+                F DF 10433                     000000000  Y000000000 338   0000000000000.00 0000000.00   0000000.00                             000000000000000                                                                                                                                                     01418 A000000000000 0000000000000.24     00050 02200                  
04912640713220001E167590675900000009092800101800000010100E068C8001E 00000000000.004040404040404040404040404040404040404040404040404006011203A00000000000000000000000404040404040404040404040404040  00000840000000000000002305299A024017CEFD89F510143271404040400840A00000000310100000000000000000000B943EA6BD86B82E30300000000000004040404040404040 000000037.79 000000000.004040400000000000000000    80                                                                                                                                                                                                                                                                                                                  
04912650713220002G2675906759000000090928001018000000101IRMO                     SC           5 D                00                                      NNNN00 N 00                   000000000000                                                                   77384801                                                                                                                                                                                                                                                                                                                                                                                                                                               
04912660713220015DT67590675900000009092800101800000010180010177287283149900017500064052920230000000229414923000000000104874531258XXXXXX7859       MS02WI09          NY 1 0 AMDJCIKOXW0529  N840000000002294          05DNPLANET VAPOR INC #500    142314    MD84000000002294 N  599977384801                            000000000+M10101C5434C    MDJ  10815                     000000000  1                0000000000000.00 0000000.00   0000000.00                             000000000000000                                                                                                                                                   B101418  000000000000 0000000000000.23     00050 02200                  
04912670713220001E167590675900000009092800101800000010100E0F8C8032B 00000000000.00404040404040404040404040404040404040404040404040400114A00201220000000000000000000000FF00000000000000000000000000  0000084018008000008000230529D5E839C4B3409CD7C9EB1C16404040400840A00000000410100000000000000000005DDFCCAEABB1E29900100000000000004040401E40404040 000000022.94 000000000.001E03000000000000000000    80                                                                                                                                                                                                                                                                                                                  
04912680713220002G2675906759000000090928001018000000101IRMO                     SC           5 J                                                        NNNN              000000000000000000000000                        7                                          77384801                                                                                                                                                                                                                                                                                                                                                                                                                                               
04912690713220016DT67590675900000009092800101800000010180010124001193149900017500070052920230000000118714923000000000104874430602XXXXXX8503       VK04VS111111111   NYV1 A E383149578451657N84000000000118769TP00    07DNPLANET VAPOR INC #500    929993    VD84000000001187 N  599977384801                            000000000+                F DF 00451                     000000000  N000000000 214   0000000000000.00 0000000.00   0000000.00                             000000000000000                                                                                                                                                     01418 F000000000000 0000000000000.22     01550 00400                  
04912700713220001E167590675900000009092800101800000010100E068C801FE 00000000000.004040404040404040404040404040404040404040404040404006011203A00000000000000000000000404040404040404040404040404040  0000084020000000000000230529C40301A57CE9AE9F41A19B5C404040400840A00000000310100000000000000000003DECBD280382000000000000000000004040404040404040 000000011.87 000000000.004040400000000000000000    80                                                                                                                                                                                                                                                                                                                  
04912710713220002G2675906759000000090928001018000000101IRMO                     SC           5 D                00                                      NNNN00 N 00                   000000000000                                                                   77384801                                                                                                                                                                                                                                                                                                                                                                                                                                               
04912720713220017DT67590675900000009092800101800000010180010124001193149900017500088052920230000000431914923000000000104874433477XXXXXX1075       VS11    0001111   NYV1 A E583149581351552N840000000004319VQ4W00    05DNPLANET VAPOR INC #500    357432    VD84000000004319 N  599977384801                            000000000+                F DF 10433                     000000000  Y000000000 338   0000000000000.00 0000000.00   0000000.00                             000000000000000                                                                                                                                                     01418 A000000000000 0000000000000.24     00050 02200                  
04912730713220001E167590675900000009092800101800000010100E0F8C800CE 00000000000.004040404040404040404040404040404040404040404040404006011203A0A000000000000000000000404040404040404040404040404040  0002084018008080008000230529BBE000CA48B199B2B2A93A0A404040400840A00000000310100000000000000000002F112ECD0082000000000000000000004040401E40404040 000000043.19 000000000.001E00000000000000000000    80                                                                                                                                                                                                                                                                                                                  
04912740713220002G2675906759000000090928001018000000101IRMO                     SC           5 D                00                                      NNNN00 N 00                   000000000000                                                                   77384801                                                                                                                                                                                                                                                                                                                                                                                                                                               
04912750713220018DT67590675900000009092800101800000010180010124001193149900017500096052920230000000626214923000000000104874473703XXXXXX6281       VS11    0001111   NYV1 A E583149583257305N840000000006262GGPQ00    05DNPLANET VAPOR INC #500    069056    VD84000000006262 N  599977384801                            000000000+                F DF 10433                     000000000  Y000000000 338   0000000000000.00 0000000.00   0000000.00                             000000000000000                                                                                                                                                     01418 A000000000000 0000000000000.25     00050 02200                  
04912760713220001E167590675900000009092800101800000010100E0F8C80080 00000000000.004040404040404040404040404040404040404040404040404006061203A0A000000000000000000000404040404040404040404040404040  0000084018008080008000230529BAE7B151DCE222BBBEF08CC5404040400840A0000000031010000000000000000000E04010D0909030B020200000000000004040401E40404040 000000062.62 000000000.001E00000000000000000000    80                                                                                                                                                                                                                                                                                                                  
04912770713220002G2675906759000000090928001018000000101IRMO                     SC           5 D                00                                      NNNN00 N 00                   000000000000                                                                   77384801                                                                                                                                                                                                                                                                                                                                                                                                                                               
04912780713220019DT67590675900000009092800101800000010180010124001193149900017500104052920230000000476114923000000000104874473703XXXXXX3216       VS11    0001111   NYV1 A E303149588400489N840000000004761RCVL00    07DNPLANET VAPOR INC #500    084948    VD84000000004761 N  599977384801                            000000000+                F DF 10433                     000000000  Y000000000 338   0000000000000.00 0000000.00   0000000.00                             000000000000000                                                                                                                                                     01418 A000000000000 0000000000000.24     00050 02200                  
04912790713220001E167590675900000009092800101800000010100E068C80156 00000000000.004040404040404040404040404040404040404040404040404006061203A00000000000000000000000404040404040404040404040404040  00000840000000000000002305290E812984BEE8501A46F2BA2A404040400840A00000000310100000000000000000007030E0C03000E0A020200000000000004040404040404040 000000047.61 000000000.004040400000000000000000    80                                                                                                                                                                                                                                                                                                                  
04912800713220002G2675906759000000090928001018000000101IRMO                     SC           5 D                00                                      NNNN00 N 00                   000000000000                                                                   77384801                                                                                                                                                                                                                                                                                                                                                                                                                                               
04912810713220020DT67590675900000009092800101800000010180010124001193149900017500112052920230000001317314923000000000104874473703XXXXXX1613       VS11    0001111   NYV1 A E303149611874942N840000000013173H9LW00    05DNPLANET VAPOR INC #500    005415    VD84000000013173 N  599977384801                            000000000+                F DF 10433                     000000000  Y000000000 338   0000000000000.00 0000000.00   0000000.00                             000000000000000                                                                                                                                                     01418 A000000000000 0000000000000.29     00050 02200                  
04912820713220001E167590675900000009092800101800000010100E0F8C802CF 00000000000.004040404040404040404040404040404040404040404040404006061203A0A000000000000000000000404040404040404040404040404040  00000840180080800080002305297E78A29E3EF055E32A1EAC1F404040400840A00000000310100000000000000000000010F0704010A0A020200000000000004040401E40404040 000000131.73 000000000.001E00000000000000000000    80                                                                                                                                                                                                                                                                                                                  
04912830713220002G2675906759000000090928001018000000101IRMO                     SC           5 D                00                                      NNNN00 N 00                   000000000000                                                                   77384801                                                                                                                                                                                                                                                                                                                                                                                                                                               
04912840713220021DT67590675900000009092800101800000010180010124001193149900017500120052920230000000518214923000000000104874448233XXXXXX3085       VS11    0001111   NYV1 A E303149647175573N8400000000051824RWZ00    07DNPLANET VAPOR INC #500    025837    VD84000000005182 N  599977384801                            000000000+                F DF 10433                     000000000  Y000000000 338   0000000000000.00 0000000.00   0000000.00                             000000000000000                                                                                                                                                     01418 A000000000000 0000000000000.25     00050 02200                  
04912850713220001E167590675900000009092800101800000010100E068C8000C 00000000000.004040404040404040404040404040404040404040404040404006011203A00000000000000000000000404040404040404040404040404040  00000840000000000000002305292B891F85D60100CAD246ADFD404040400840A0000000031010000000000000000000404040404040404040404040404040404040404040404040 000000051.82 000000000.004040400000000000000000    80                                                                                                                                                                                                                                                                                                                  
04912860713220002G2675906759000000090928001018000000101IRMO                     SC           5 D                00                                      NNNN00 N 00                   000000000000                                                                   77384801                                                                                                                                                                                                                                                                                                                                                                                                                                               
04912870713220022DT67590675900000009092800101800000010180010124001193149900017500138052920230000000809814923000000000104874418586XXXXXX8576       VS11    0001111   NYV1 A E383149650115523N840000000008098LD9V00    05DNPLANET VAPOR INC #500    09963B    VS84000000008098 N  599977384801                            000000000+                B CB 12111                     000000000  N000000000 495   0000000000000.00 0000000.00   0000000.00                             000000000000000                                                                                                                                                     01418 A000000000000 0000000000001.44     01650 01000                  
04912880713220001E167590675900000009092800101800000010100E0F8C8000E 00000000000.004040404040404040404040404040404040404040404040404006021203A0A002000000000000000000404040404040404040404040404040  00040840380000800080002305297456EAA4D03FE9321E1EDAB2404040400840A00000000310100000000000000000000242DC810082000000000000000000004040401E40404040 000000080.98 000000000.001E00000000000000000000    80                                                                                                                                                                                                                                                                                                                  
04912890713220002G2675906759000000090928001018000000101IRMO                     SC           5 C                00                                      NNNN00 Y 00                   000000000000                                                                   77384801                                                                                                                                                                                                                                                                                                                                                                                                                                               
04912900713220023DT67590675900000009092800101800000010180010173011003149900017500142052920230000000505214923000000000104874376793XXXXX1009                          NY 1 0 N007272583458078N840000000005052          07DNPLANET VAPOR #500        869656    AM84000000005052 N  599977384801                            000000000+51010X55434C 258     11261                     000000000                   0000000000000.00 0000000.00   0000000.00                             000000000000000 61248972086759675900000009092 PLANET VAPOR #500        1001 KINLEY RD UNIT A    8035462263      29063     KEVIN@MOOREDISTRO.COM                     01418  000000000000 0000000000000.91     01600 00000                  
04912910713220001E167590675900000009092800101800000010100E0E8C80293 00000000000.0040404040404040404040404040404040404040404040404040065A0103A02002000000000000000000404040404040404040404040404040  000008401980000000800023052908401E0CD17FCFA07B476E14404040400840A0000000250108010000000000000000C5AC0D9D3DF5DD5530300000000000004040405E40404040 000000050.52 000000000.005E03000000000000000000    80                                                                                                                                                                                                                                                                                                                  
04912920713220002G2675906759000000090928001018000000101IRMO                     SC           5                  00                                      NNNN                          000000000000                                                                   77384801                                                                                                                                                                                                                                                                                                                                                                                                                                               
04912930713220024DT67590675900000009092800101800000010180010177287283149900017500155052920230000000215814923000000000104874510805XXXXXX2025       MS02WI09          NY 1 0 AMDJ92B5030529  N840000000002158          05DNPLANET VAPOR INC #500    032321    MD84000000002158 N  599977384801                            000000000+M10101C5434C    MDJ  10815                     000000000  1                0000000000000.00 0000000.00   0000000.00                             000000000000000                                                                                                                                                   B101418  000000000000 0000000000000.23     00050 02200                  
04912940713220001E167590675900000009092800101800000010100E0F8C80010 00000000000.00404040404040404040404040404040404040404040404040400110A04001220000000000000000000000FF00000000000000000000000000  0000084039000000088000230529CF39473976064801A696B42E404040400840A0000000041010000000000000000000D00FB1F9B57224D5031A0000000000004040401E40404040 000000021.58 000000000.001E03000000000000000000    80                                                                                                                                                                                                                                                                                                                  
04912950713220002G2675906759000000090928001018000000101IRMO                     SC           5 J                                                        NNNN              000000000000000000000000                        7                                          77384801                                                                                                                                                                                                                                                                                                                                                                                                                                               
04912960713220025DT67590675900000009092800101800000010180010124001193149900017500161052920230000000496614923000000000104874410039XXXXXX1558       VS11    0001111   NYV1 A E383149712318139N840000000004966TSCV00    07DNPLANET VAPOR INC #500    59697D    VS84000000004966 N  599977384801                            000000000+                D CD 12113                     000000000  N000000000 499   0000000000000.00 0000000.00   0000000.00                             000000000000000                                                                                                                                                     01418 A000000000000 0000000000001.14     02100 01000                  
04912970713220001E167590675900000009092800101800000010100E068C80157 00000000000.004040404040404040404040404040404040404040404040404006011203A00000000000000000000000404040404040404040404040404040  0001084000000000000000230529FC8665C0614C5199E5EEBE36404040400840A000000003101000000000000000000029C751800086000000000000000000004040404040404040 000000049.66 000000000.004040400000000000000000    80                                                                                                                                                                                                                                                                                                                  
04912980713220002G2675906759000000090928001018000000101IRMO                     SC           5 C                00                                      NNNN00 Y 00                   000000000000                                                                   77384801                                                                                                                                                                                                                                                                                                                                                                                                                                               
04912990713220026DT67590675900000009092800101800000010180010124001193149900017500179052920230000000450614923000000000104874478373XXXXXX5339       VS11    0001111   NYV1 A E583149717006638N840000000004506GVFN00    05DNPLANET VAPOR INC #500    045501    VD84000000004506 N  599977384801                            000000000+                F DF 10433                     000000000  Y000000000 338   0000000000000.00 0000000.00   0000000.00                             000000000000000                                                                                                                                                     01418 A000000000000 0000000000000.24     00050 02200                  
04913000713220001E167590675900000009092800101800000010100E0F8C80905 00000000000.004040404040404040404040404040404040404040404040404006010A03A08000000000000000000000404040404040404040404040404040  0000084018008080008000230529608A40907C8EF38B7E8826E4404040400840A00000000310100000000000000000006409E025CB3535AC30300000000000004040401E40404040 000000045.06 000000000.001E00000000000000000000    80                                                                                                                                                                                                                                                                                                                  
04913010713220002G2675906759000000090928001018000000101IRMO                     SC           5 D                00                                      NNNN00 N 00                   000000000000                                                                   77384801                                                                                                                                                                                                                                                                                                                                                                                                                                               
04913020713220027DT67590675900000009092800101800000010180010124001193149900017500187052920230000000280714923000000000104874461675XXXXXX3006       VS11    0001111   NYV1 A E383149723582726N840000000002807TRJL00    05DNPLANET VAPOR INC #500    193180    VD84000000002807 N  599977384801                            000000000+                F DF 00381                     000000000  N000000000       0000000000000.00 0000000.00   0000000.00                             000000000000000                                                                                                                                                     01418 A000000000000 0000000000000.37     00800 01500                  
04913030713220001E167590675900000009092800101800000010100E0F8C801ED 00000000000.004040404040404040404040404040404040404040404040404006010A03A08000000000000000000000404040404040404040404040404040  00000840180080800080002305297B75D3454827CF99F22D148E404040400840A000000003101000000000000000000026F8948163BA165030300000000000004040401E40404040 000000028.07 000000000.001E00000000000000000000    80                                                                                                                                                                                                                                                                                                                  
04913040713220002G2675906759000000090928001018000000101IRMO                     SC           5 D                00                                      NNNN00 N 00                   000000000000                                                                   77384801                                                                                                                                                                                                                                                                                                                                                                                                                                               
04913050713220028DT67590675900000009092800101800000010180010177287283149900017500197052920230000000626114923000000000104874527519XXXXXX5129       MS02WI09          NY 1 0 AMDJPGUKCU0529  N840000000006261          05DNPLANET VAPOR INC #500    190783    MD84000000006261 N  599977384801                            000000000+M10101C5434C    MDJ  10815                     000000000  1                0000000000000.00 0000000.00   0000000.00                             000000000000000                                                                                                                                                   B101418  000000000000 0000000000000.25     00050 02200                  
04913060713220001E167590675900000009092800101800000010100E0F8C80008 00000000000.00404040404040404040404040404040404040404040404040400414A00201A20000000000000000000000FF00000000000000000000000000  0000084018008000008000230529ECE24C1C4EAB8F0B8E16F7BF404040400840A000000004101000000000000000000026A3B860D816F9DD00100000000000004040401E40404040 000000062.61 000000000.001E03000000000000000000    80                                                                                                                                                                                                                                                                                                                  
04913070713220002G2675906759000000090928001018000000101IRMO                     SC           5 J                                                        NNNN              000000000000000000000000                        7                                          77384801                                                                                                                                                                                                                                                                                                                                                                                                                                               
04913080713220029DT67590675900000009092800101800000010180010124001193149900017500203052920230000000539814923000000000104874400022XXXXXX4869       VS11    0001111   NYV1 A E383149726008704N840000000005398QHW600    07DNPLANET VAPOR INC #500    420481    VD84000000005398 N  599977384801                            000000000+                F DF 10433                     000000000  Y000000000 338   0000000000000.00 0000000.00   0000000.00                             000000000000000                                                                                                                                                     01418 A000000000000 0000000000000.25     00050 02200                  
04913090713220001E167590675900000009092800101800000010100E068C8016E 00000000000.004040404040404040404040404040404040404040404040404006021203A00000000000000000000000404040404040404040404040404040  00000840000000000000002305296D723DBD53E3732B7F62970F404040400840A0000000031010000000000000000000404040404040404040404040404040404040404040404040 000000053.98 000000000.004040400000000000000000    80                                                                                                                                                                                                                                                                                                                  
04913100713220002G2675906759000000090928001018000000101IRMO                     SC           5 D                00                                      NNNN00 N 00                   000000000000                                                                   77384801                                                                                                                                                                                                                                                                                                                                                                                                                                               
04913110713220030DT67590675900000009092800101800000010180010124001193149900017500211052920230000000539914923000000000104874403766XXXXXX0305       VS11    0001111   NYV1 A E463149738474925N840000000005399JSZD00    07DNPLANET VAPOR INC #500    519203    VS84000000005399 N  599977384801                            000000000+                A CA 12110                     000000000  N000000000 493   0000000000000.00 0000000.00   0000000.00                             000000000000000                                                                                                                                                     01418 A000000000000 0000000000000.92     01510 01000                  
04913120713220001E167590675900000009092800101800000010100E068C80099 00000000000.004040404040404040404040404040404040404040404040404006010A03A00000000000000000000000404040404040404040404040404040  00010840200000000000002305293639652C5654E26C8DF04D6D404040400840A0000000031010000000000000000000404040404040404040404040404040404040404040404040 000000053.99 000000000.004040400000000000000000    80                                                                                                                                                                                                                                                                                                                  
04913130713220002G2675906759000000090928001018000000101IRMO                     SC           5 C                00                                      NNNN00 Y 00                   000000000000                                                                   77384801                                                                                                                                                                                                                                                                                                                                                                                                                                               
04913140713220031BH6759067590000000708880010180000090170529202314923000000000051740    0000090001740018N8001016759C05302023074                                                                                                                                                                                                                                                                                                                                                                                                                                                                                                                                                                                              
04913150713220032DT67590675900000007088800101800000010180010177287283149900017400018052920230000000583014923000000000051740517604XXXXXX9861       MS02WI09          NY 1 0 AMWEVJ1R370529  N840000000005830          07DNPLANET VAPOR INC #200    60479Z    MC84000000005830 N  599977384620                            000000000+M10101M1134C    MWE  00739                     000000000  N                0000000000000.00 0000000.00   0000000.00                             000000000000000                                                                                                                                                   A101418  000000000000 0000000000001.44     02300 01000                  
04913160713220001E1675906759000000070888001018000000101000060C8044F 00000000000.00404040404040404040404040404040404040404040404040400114A14003020000000000000000000000FF00000000000000000000000000  000008401B8000000080012305295231DFF184E910335477AEC4404040400840A0000000041010000000000000000000404040404040404040404040404040404040400140404040 000000058.30 000000000.000100020000000000000000    80                                                                                                                                                                                                                                                                                                                  
04913170713220002G2675906759000000070888001018000000101COLUMBIA                 SC           5 E                                                        NNNN              000000000000000000000000       03               C                                          77384620                                                                                                                                                                                                                                                                                                                                                                                                                                               
04913180713220033DT67590675900000007088800101800000010180010124001193149900017400024052920230000000205114923000000000051740498503XXXXXX1789       VS11    0001111   NYV1 A E463149511875375N840000000002051X34300    05DNPLANET VAPOR INC #200    011843    VD84000000002051 N  599977384620                            000000000+                F DF 00381                     000000000  N000000000       0000000000000.00 0000000.00   0000000.00                             000000000000000                                                                                                                                                     01418 A000000000000 0000000000000.31     00800 01500                  
04913190713220001E167590675900000007088800101800000010100E0F8C8007B 00000000000.004040404040404040404040404040404040404040404040404006011203A0A000000000000000000000404040404040404040404040404040  00000840180080800080002305293ABA32993C9F756C4C0C416C404040400840A000000003101000000000000000000054A9B2460080000000000000000000004040401E40404040 000000020.51 000000000.001E00000000000000000000    80                                                                                                                                                                                                                                                                                                                  
04913200713220002G2675906759000000070888001018000000101COLUMBIA                 SC           5 D                00                                      NNNN00 N 00                   000000000000                                                                   77384620                                                                                                                                                                                                                                                                                                                                                                                                                                               
04913210713220034DT67590675900000007088800101800000010180010124001193149900017400032052920230000000223514923000000000051740414720XXXXXX9288       VS11    0001111   NYV1 A E583149513768965N840000000002235MSBL00    05DNPLANET VAPOR INC #200    08490I    VS84000000002235 N  599977384620                            000000000+                I CI 12777                     000000000  N000000000 690   0000000000000.00 0000000.00   0000000.00                             000000000000000                                                                                                                                                     01418 A000000000000 0000000000000.57     02100 01000                  
04913220713220001E167590675900000007088800101800000010100E0F8C801BF 00000000000.004040404040404040404040404040404040404040404040404006021203A0A002000000000000000000404040404040404040404040404040  0001084038000080008000230529C5AB1BB47BB55D0FBC2D0964404040400840A000000003101000000000000000000074C379310082000000000000000000004040401E40404040 000000022.35 000000000.001E00000000000000000000    80                                                                                                                                                                                                                                                                                                                  
04913230713220002G2675906759000000070888001018000000101COLUMBIA                 SC           5 C                00                                      NNNN00QY 00                   000000000000                                                                   77384620                                                                                                                                                                                                                                                                                                                                                                                                                                               
04913240713220035DT67590675900000007088800101800000010180010124001193149900017400040052920230000000427214923000000000051740406095XXXXXX8862       VS11    0001111   NYV1 A E303149524033552N8400000000042722QC900    05DNPLANET VAPOR INC #200    09708C    VS84000000004272 N  599977384620                            000000000+                C CC 12112                     000000000  N000000000 497   0000000000000.00 0000000.00   0000000.00                             000000000000000                                                                                                                                                     01418 A000000000000 0000000000000.80     01650 01000                  
04913250713220001E167590675900000007088800101800000010100E0F8C80009 00000000000.004040404040404040404040404040404040404040404040404006011203A08018000000000000000000404040404040404040404040404040  00030840180080800080002305295FB4310C3DECA9CC74C753E2404040400840A00000000310100000000000000000003B6C4F0D0082000000000000000000004040401E40404040 000000042.72 000000000.001E00000000000000000000    80                                                                                                                                                                                                                                                                                                                  
04913260713220002G2675906759000000070888001018000000101COLUMBIA                 SC           5 C                00                                      NNNN00 Y 00                   000000000000                                                                   77384620                                                                                                                                                                                                                                                                                                                                                                                                                                               
04913270713220036DT67590675900000007088800101800000010180010177287283149900017400059052920230000000237514923000000000051740542432XXXXXX5925       MS02WI09          NY 1 0 AMDJ5T7D030529  N840000000002375          07DNPLANET VAPOR INC #200    089090    MD84000000002375 N  599977384620                            000000000+M10101M0034C    MDJ  10815                     000000000  1                0000000000000.00 0000000.00   0000000.00                             000000000000000                                                                                                                                                   B101418  000000000000 0000000000000.23     00050 02200                  
04913280713220001E16759067590000000708880010180000001010000084802D9 00000000000.00404040404040404040404040404040404040404040404040400110A04001220000000000000000000000FF00000000000000000000000000  0000084019800000008001230529DEC3184DEE69F440ADA07261404040400840A0000000041010000000000000000000404040404040404040404040404040404040401F40404040 000000023.75 000000000.001F03020000000000000000    80                                                                                                                                                                                                                                                                                                                  
04913290713220002G2675906759000000070888001018000000101COLUMBIA                 SC           5 J                                                        NNNN              000000000000000000000000       03               7                                          77384620                                                                                                                                                                                                                                                                                                                                                                                                                                               
04913300713220037DT67590675900000007088800101800000010180010124001193149900017400065052920230000000242914923000000000051740473702XXXXXX4666       VS11    0001111   NYV1 A E463149538345638N840000000002429KBVV00    07DNPLANET VAPOR INC #200    013054    VD84000000002429 N  599977384620                            000000000+                F DF 10433                     000000000  Y000000000 338   0000000000000.00 0000000.00   0000000.00                             000000000000000                                                                                                                                                     01418 A000000000000 0000000000000.23     00050 02200                  
04913310713220001E167590675900000007088800101800000010100E068C8007A 00000000000.004040404040404040404040404040404040404040404040404006061203A00000000000000000000000404040404040404040404040404040  0000084000000000000000230529E1261EDD316A1B01BBDA0298404040400840A00000000310100000000000000000001050E0C08030408020200000000000004040404040404040 000000024.29 000000000.004040400000000000000000    80                                                                                                                                                                                                                                                                                                                  
04913320713220002G2675906759000000070888001018000000101COLUMBIA                 SC           5 D                00                                      NNNN00 N 00                   000000000000                                                                   77384620                                                                                                                                                                                                                                                                                                                                                                                                                                               
04913330713220038DT67590675900000007088800101800000010180010124001193149900017400073052920230000000626114923000000000051740415977XXXXXX9679       VS11    0001111   NYV1 A E583149566641061N840000000006261JGCX00    07DNPLANET VAPOR INC #200    091857    VD84000000006261 N  599977384620                            000000000+                F DF 10433                     000000000  Y000000000 338   0000000000000.00 0000000.00   0000000.00                             000000000000000                                                                                                                                                     01418 A000000000000 0000000000000.25     00050 02200                  
04913340713220001E167590675900000007088800101800000010100E068C80180 00000000000.004040404040404040404040404040404040404040404040404006011203A00000000000000000000000404040404040404040404040404040  0000084020000000000000230529828E16E0FF8E8F3F47421466404040400840A00000000310100000000000000000003ACE00604E65780030300000000000004040404040404040 000000062.61 000000000.004040400000000000000000    80                                                                                                                                                                                                                                                                                                                  
04913350713220002G2675906759000000070888001018000000101COLUMBIA                 SC           5 D                00                                      NNNN00 N 00                   000000000000                                                                   77384620                                                                                                                                                                                                                                                                                                                                                                                                                                               
04913360713220039DT67590675900000007088800101800000010180010124001193149900017400081052920230000000437314923000000000051740430602XXXXXX4713       VS11    0001111   NYV1 A E303149585224864N840000000004373VJG200    05DNPLANET VAPOR INC #200    931252    VD84000000004373 N  599977384620                            000000000+                F DF 00381                     000000000  N000000000       0000000000000.00 0000000.00   0000000.00                             000000000000000                                                                                                                                                     01418 A000000000000 0000000000000.50     00800 01500                  
04913370713220001E167590675900000007088800101800000010100E0F8C803D4 00000000000.004040404040404040404040404040404040404040404040404006010A03A0A000000000000000000000404040404040404040404040404040  0000084018008080008000230529DA25CAF1D6D108CF88B8D792404040400840A0000000031010000000000000000000B1ED65837C021A8D30300000000000004040401E40404040 000000043.73 000000000.001E00000000000000000000    80                                                                                                                                                                                                                                                                                                                  
04913380713220002G2675906759000000070888001018000000101COLUMBIA                 SC           5 D                00                                      NNNN00 N 00                   000000000000                                                                   77384620                                                                                                                                                                                                                                                                                                                                                                                                                                               
04913390713220040DT67590675900000007088800101800000010180010177287283149900017400091052920230000000291514923000000000051740531258XXXXXX1601       MS02WI09          NY 1 0 AMDJ7GT2030529  N840000000002915          05DNPLANET VAPOR INC #200    171767    MD84000000002915 N  599977384620                            000000000+M10101C5434C    MDJ  10815                     000000000  1                0000000000000.00 0000000.00   0000000.00                             000000000000000                                                                                                                                                   B101418  000000000000 0000000000000.23     00050 02200                  
04913400713220001E167590675900000007088800101800000010100E0F8C8000C 00000000000.00404040404040404040404040404040404040404040404040400114A00003220000000000000000000000FF00000000000000000000000000  0000084018008000008000230529DACB1A664D4123A5CEA99D88404040400840A00000000410100000000000000000003B621D01032C918B00100000000000004040401E40404040 000000029.15 000000000.001E03000000000000000000    80                                                                                                                                                                                                                                                                                                                  
04913410713220002G2675906759000000070888001018000000101COLUMBIA                 SC           5 J                                                        NNNN              000000000000000000000000                        7                                          77384620                                                                                                                                                                                                                                                                                                                                                                                                                                               
04913420713220041DT67590675900000007088800101800000010180010124001193149900017400107052920230000000323814923000000000051740427199XXXXXX5073       VS11    0001111   NYV1 A E463149624271447N840000000003238M7FC00    05DNPLANET VAPOR INC #200    173957    VD84000000003238 N  599977384620                            000000000+                F DF 00381                     000000000  N000000000       0000000000000.00 0000000.00   0000000.00                             000000000000000                                                                                                                                                     01418 A000000000000 0000000000000.41     00800 01500                  
04913430713220001E167590675900000007088800101800000010100E0F8C801F7 00000000000.004040404040404040404040404040404040404040404040404006011203A0A000000000000000000000404040404040404040404040404040  000108401800808000800023052963BEDCBF0BF9226781462AB4404040400840A0000000031010000000000000000000404040404040404040404040404040404040401E40404040 000000032.38 000000000.001E00000000000000000000    80                                                                                                                                                                                                                                                                                                                  
04913440713220002G2675906759000000070888001018000000101COLUMBIA                 SC           5 D                00                                      NNNN00 N 00                   000000000000                                                                   77384620                                                                                                                                                                                                                                                                                                                                                                                                                                               
04913450713220042DT67590675900000007088800101800000010180010124001193149900017400115052920230000000086314923000000000051740413037XXXXXX1301       VK04VS111111111   NYV1 A E303149631814194N840000000000863NHVD00    07DNPLANET VAPOR INC #200    020067    VD84000000000863 N  599977384620                            000000000+                F DF 10439                     000000000  Y000000000 331   0000000000000.00 0000000.00   0000000.00                             000000000000000                                                                                                                                                     01418 F000000000000 0000000000000.22     00050 02200                  
