06913340653982160AD675906759000000151648008888000009077900011717850000000987006272023NYY17823YC6759800888062920232023178022235                                                                                                                                                                                                                                                                                                                                                                                                                                                                                                                                                                                              
06913350653982163AD675906759000000133008001028000009071900015462570000001499106272023NYY17823ND6759800102062920232023178022231                                                                                                                                                                                                                                                                                                                                                                                                                                                                                                                                                                                              
06913360653982166AD675906759000000133008001028000009071900010445240000001063606272023NYY17823ND6759800102062920232023178022232                                                                                                                                                                                                                                                                                                                                                                                                                                                                                                                                                                                              
06913370653982169AD675906759000000133008001028000009071900012173100000002092306272023NYY17823ND6759800102062920232023178022233                                                                                                                                                                                                                                                                                                                                                                                                                                                                                                                                                                                              
06913380653982172AD675906759000000133008001028000009071900019326150000002106206272023NYY17823ND6759800102062920232023178022234                                                                                                                                                                                                                                                                                                                                                                                                                                                                                                                                                                                              
06913390653982175AD675906759000000176738001068000009071900014116240000002178906272023NYY17823ND6759800106062920232023178022236                                                                                                                                                                                                                                                                                                                                                                                                                                                                                                                                                                                              
06913400653982178AD675906759000000232598001168000009071900014319000000001306706272023NYY17823ND6759800116062920232023178022239                                                                                                                                                                                                                                                                                                                                                                                                                                                                                                                                                                                              
06913410653982181AD675906759000000133008001028000009071900014345910000002106206272023NYY17823ND6759800102062920232023178038674                                                                                                                                                                                                                                                                                                                                                                                                                                                                                                                                                                                              
06913420653982184AD675906759000000133008001028000009071900011564180000002636206272023NYY17823ND6759800102062920232023178038675                                                                                                                                                                                                                                                                                                                                                                                                                                                                                                                                                                                              
06913430653982187AD675906759000000268498001258000009071900012872410000001977006272023NYY17823ND6759800125062920232023178038676                                                                                                                                                                                                                                                                                                                                                                                                                                                                                                                                                                                              
06913440653982190AD675906759000000239118001208000009071900010701650000002179906272023NYY17823ND6759800120062920232023178038677                                                                                                                                                                                                                                                                                                                                                                                                                                                                                                                                                                                              
06913450653982205AD675906759000000133008001028000009071900018712500000001987006272023NYY17823ND6759800102062920232023178048680                                                                                                                                                                                                                                                                                                                                                                                                                                                                                                                                                                                              
06913460653982208AD675906759000000133008001028000009071900015251020000001987006272023NYY17823ND6759800102062920232023178048681                                                                                                                                                                                                                                                                                                                                                                                                                                                                                                                                                                                              
06913470653982211AD675906759000000133008001028000009071900011305310000001987006272023NYY17823ND6759800102062920232023178048682                                                                                                                                                                                                                                                                                                                                                                                                                                                                                                                                                                                              
06913480653982217AD675906759000000058928001018000009077900014621680000002250006272023NYY17823YC6759800101062920232023164057027                                                                                                                                                                                                                                                                                                                                                                                                                                                                                                                                                                                              
06913490654292518AD675906759000000232598001168000009077231570452590000002178906272023NYY17823YC6759800116062920232023157045259                                                                                                                                                                                                                                                                                                                                                                                                                                                                                                                                                                                              
06913500655792711BH6759067590000001516480088880000090170628202317923000000000076158    0000090001208834N8008886759D06292023120                                                                                                                                                                                                                                                                                                                                                                                                                                                                                                                                                                                              
06913510655792712DT67590675900000015164800888800000010680088874001193179900012088301062720230000000654817923000000000076158440066XXXXXX5094               0000000   YYV4 07T303178559877930N8400000000065482WRV00    01CNKETOFUSION833-923-3587   09133C    VS84000000006548 NDR599977360677   AA9B8D23A4T3597CF7D845A  000000000+                C CC 00245                     000000000  N000000000 166   0000000000000.00 0000000.00   0000000.00                             000000000000000                                                                                                                                                     015WPE 000000006548-0000000000001.15     01760 00000                  
06913520655792712DR675906759000000151648008888000000106AA9B8D23A4T3597CF7D845A  Y000000006548                 P1                                                                                                                                                                                                                                                                                                                                                                                                                                                                                                                                                                                                            
06913530655790001P16759067590000001516480088880000001060000000000000000                             2000000000000000000000000              000000000000                    0000000000000000000000000                    000000000000                                                                                                                                                                                                                                                                                                                                                                                                                                                                                        
06913540655790002G2675906759000000151648008888000000106801-4041097              UT           9 C                00                                      NNNN   Y                      000000000000                                                                   77360677                                                                                                                                                                                                                                                                                                                                                                                                                                               
06913550655792713DT67590675900000015164800888800000010680088887287283179900012088372062720230000002487017923000000000076158559994XXXXXX5504                         YY94607N         0627  N840000000000000          81CNKETOFUSION833-923-3587             MC84000000024870FN  599977360677   CBC71CECC5TFB05B4833FD5  000000000+600450S00130    MRG  12241                     000000000  N                0000000000000.00 0000000.00   0000000.00                             000000000000000                                                                                                                                                     015WPE 000000000000-0000000000002.49     01000 00000                  
06913560655790001G26759067590000001516480088880000001068014041097               UT           9 G               210                                      NNNN           210000000000000000000000000                                                                   77360677                                                                                                                                                                                                                                                                                                                                                                                                                                               
06913570655792714DT67590675900000015164800888800000010680088874001193179900012088327062720230000001987017923000000000076158410039XXXXXX9990               0000000   YYV4 07T383178720280553N8400000000198705S9F00    01CNKETOFUSION833-923-3587   88507C    VS84000000019870 NDR599977360677   93FD6B66C2TA27835D97427  000000000+                C CC 00245                     000000000  N000000000 166   0000000000000.00 0000000.00   0000000.00                             000000000000000                                                                                                                                                     015WPE 000000019870-0000000000003.50     01760 00000                  
06913580655792714DR67590675900000015164800888800000010693FD6B66C2TA27835D97427  U000000019870                 P1                                                                                                                                                                                                                                                                                                                                                                                                                                                                                                                                                                                                            
06913590655790001P16759067590000001516480088880000001060000000000000000                             2000000000000000000000000              000000000000                    0000000000000000000000000                    000000000000                                                                                                                                                                                                                                                                                                                                                                                                                                                                                        
06913600655790002G2675906759000000151648008888000000106801-4041097              UT           9 C                00                                      NNNN   Y                      000000000000                                                                   77360677                                                                                                                                                                                                                                                                                                                                                                                                                                               
06913610655792715DT67590675900000015164800888800000010680088887287283179900012088349062720230000002487017923000000000076158517282XXXXXX2100                         YY 4607AMDJOAD6P70627  N840000000024870          81CNKETOFUSION833-923-3587   023808    MD84000000024870 NDR599977360677   BB92D1A8F2T03F2194EE681  000000000+600450S00130    MDJ  00560                     000000000  N                0000000000000.00 0000000.00   0000000.00                             000000000000000                                                                                                                                                     015WPE 000000000000 0000000000000.00     00000 00000                  
06913620655792715DR675906759000000151648008888000000106BB92D1A8F2T03F2194EE681  U000000000000                                                                                                                                                                                                                                                                                                                                                                                                                                                                                                                                                                                                                               
06913630655790001G26759067590000001516480088880000001068014041097               UT           9 J               210                                      NNNN           210000000000000000000000000                                                                   77360677                                                                                                                                                                                                                                                                                                                                                                                                                                               
06913640655792718BH6759067590000001982880010980000090170628202317923000000000134647    0000090001930646N8001096759D06292023093                                                                                                                                                                                                                                                                                                                                                                                                                                                                                                                                                                                              
06913650655792719DT67590675900000019828800109800000010680010987287283179900019306355062720230000000198817923000000000134647540656XXXXXX6240                         YY 4607AMCGFDLZ4Z0627  N840000000001988          81CNKETOFUSION 8885968154    027292    MC84000000001988 NDR599977547467   A6BE571810T3CA2016400CD  000000000+600450S00130    MCG  00564                     000000000  N                0000000000000.00 0000000.00   0000000.00                             000000000000000                                                                                                                                                     015WPE 000000000000-0000000000000.35     01750 00000                  
06913660655792719DR675906759000000198288001098000000106A6BE571810T3CA2016400CD  R000000000000                                                                                                                                                                                                                                                                                                                                                                                                                                                                                                                                                                                                                               
06913670655790001G26759067590000001982880010980000001068885968154               UT           9 G               210                                      NNNN           210000000000000000000000000                        7                                          77547467                                                                                                                                                                                                                                                                                                                                                                                                                                               
06913680655792720DT67590675900000019828800109800000010680010987287283179900019306363062720230000000519017923000000000134647540656XXXXXX6240                         YY 4607AMCGIE4B940627  N840000000005190          81CNKETOFUSION 8885968154    027726    MC84000000005190 NDR599977547467   A6BE571810TDC8263E989EF  000000000+600450S00130    MCG  00564                     000000000  N                0000000000000.00 0000000.00   0000000.00                             000000000000000                                                                                                                                                     015WPE 000000000000-0000000000000.91     01750 00000                  
06913690655792720DR675906759000000198288001098000000106A6BE571810TDC8263E989EF  R000000000000                                                                                                                                                                                                                                                                                                                                                                                                                                                                                                                                                                                                                               
06913700655790001G26759067590000001982880010980000001068885968154               UT           9 G               210                                      NNNN           210000000000000000000000000                        7                                          77547467                                                                                                                                                                                                                                                                                                                                                                                                                                               
06913710655792721DT67590675900000019828800109800000010680010987287283179900019306371062720230000002487017923000000000134647542418XXXXXX8448                         YY 4607AMPLFHHM4Z0627  N840000000024870          81CNKETOFUSION 8885968154    485537    MC84000000024870 NDR599977547467   1001CEC022TB43D84DA2A76  000000000+600450S00130    MPL  00564                     000000000  N                0000000000000.00 0000000.00   0000000.00                             000000000000000                                                                                                                                                     015WPE 000000000000-0000000000004.35     01750 00000                  
06913720655792721DR6759067590000001982880010980000001061001CEC022TB43D84DA2A76  U000000000000                                                                                                                                                                                                                                                                                                                                                                                                                                                                                                                                                                                                                               
06913730655790001G26759067590000001982880010980000001068885968154               UT           9 L               210                                      NNNN           210000000000000000000000000                        7                                          77547467                                                                                                                                                                                                                                                                                                                                                                                                                                               
06913740655792722DT67590675900000019828800109800000010680010987287283179900019306397062720230000001987017923000000000134647542418XXXXXX7587                         YY 4607AMPLTKHTC10627  N840000000019870          81CNKETOFUSION 8885968154    265751    MC84000000019870 NDR599977547467   E52018EE7BTEF6D26527EC9  000000000+600450S00130    MPL  00564                     000000000  N                0000000000000.00 0000000.00   0000000.00                             000000000000000                                                                                                                                                     015WPE 000000000000-0000000000003.48     01750 00000                  
06913750655792722DR675906759000000198288001098000000106E52018EE7BTEF6D26527EC9  U000000000000                                                                                                                                                                                                                                                                                                                                                                                                                                                                                                                                                                                                                               
06913760655790001G26759067590000001982880010980000001068885968154               UT           9 L               210                                      NNNN           210000000000000000000000000                        7                                          77547467                                                                                                                                                                                                                                                                                                                                                                                                                                               
06913770655792723DT67590675900000019828800109800000010680010987287283179900019306405062720230000000654817923000000000134647542418XXXXXX8190                         YY 4607AMPLREUR7H0627  N840000000006548          81CNKETOFUSION 8885968154    948290    MC84000000006548 NDR599977547467   2A29B87F43TD29894C2CD99  000000000+600450S00130    MPL  00564                     000000000  N                0000000000000.00 0000000.00   0000000.00                             000000000000000                                                                                                                                                     015WPE 000000000000-0000000000001.15     01750 00000                  
06913780655792723DR6759067590000001982880010980000001062A29B87F43TD29894C2CD99  U000000000000                                                                                                                                                                                                                                                                                                                                                                                                                                                                                                                                                                                                                               
06913790655790001G26759067590000001982880010980000001068885968154               UT           9 L               210                                      NNNN           210000000000000000000000000                        7                                          77547467                                                                                                                                                                                                                                                                                                                                                                                                                                               
06913800655792724DT67590675900000019828800109800000010680010987287283179900019306413062720230000000198817923000000000134647542418XXXXXX8190                         YY 4607AMPLKM2LOW0627  N840000000001988          81CNKETOFUSION 8885968154    824129    MC84000000001988 NDR599977547467   2A29B87F43TD215E98AAD56  000000000+600450S00130    MPL  00564                     000000000  N                0000000000000.00 0000000.00   0000000.00                             000000000000000                                                                                                                                                     015WPE 000000000000-0000000000000.35     01750 00000                  
06913810655792724DR6759067590000001982880010980000001062A29B87F43TD215E98AAD56  U000000000000                                                                                                                                                                                                                                                                                                                                                                                                                                                                                                                                                                                                                               
06913820655790001G26759067590000001982880010980000001068885968154               UT           9 L               210                                      NNNN           210000000000000000000000000                        7                                          77547467                                                                                                                                                                                                                                                                                                                                                                                                                                               
06913830655792725DT67590675900000019828800109800000010680010987287283179900019306538062720230000002487017923000000000134647545510XXXXXX9373                         YY94607N         0627  N840000000000000          81CNKETOFUSION 8885968154              MD84000000024870 N  599977547467   0F8F4D8E5CT93DA18E500B7  000000000+600450S00130    MDS  10828                     000000000  1                0000000000000.00 0000000.00   0000000.00                             000000000000000                                                                                                                                                     015WPE 000000000000 0000000000000.00     00000 00000                  
06913840655790001G26759067590000001982880010980000001068885968154               UT           9 S               210                                      NNNN           210000000000000000000000000                                                                   77547467                                                                                                                                                                                                                                                                                                                                                                                                                                               
06913850655792726DT67590675900000019828800109800000010680010987287283179900019306546062720230000002487017923000000000134647545510XXXXXX9373                         YY94607N         0627  N840000000000000          81CNKETOFUSION 8885968154              MD84000000024870 N  599977547467   58720BB29AT7AF9007726A4  000000000+600450S00130    MDS  10828                     000000000  1                0000000000000.00 0000000.00   0000000.00                             000000000000000                                                                                                                                                     015WPE 000000000000 0000000000000.00     00000 00000                  
06913860655790001G26759067590000001982880010980000001068885968154               UT           9 S               210                                      NNNN           210000000000000000000000000                                                                   77547467                                                                                                                                                                                                                                                                                                                                                                                                                                               
06913870655792727DT67590675900000019828800109800000010680010987287283179900019306553062720230000001987017923000000000134647544448XXXXXX3244                         YY94607N         0627  N840000000000000          81CNKETOFUSION 8885968154              MD84000000019870 N  599977547467   621D052700TF51098402A8E  000000000+600450S00130    MDJ  10828                     000000000  1                0000000000000.00 0000000.00   0000000.00                             000000000000000                                                                                                                                                     015WPE 000000000000 0000000000000.00     00000 00000                  
06913880655790001G26759067590000001982880010980000001068885968154               UT           9 J               210                                      NNNN           210000000000000000000000000                                                                   77547467                                                                                                                                                                                                                                                                                                                                                                                                                                               
06913890655792728DT67590675900000019828800109800000010680010987287283179900019306454062720230000000198817923000000000134647517282XXXXXX2100                         YY 4607AMDJN9MBP70627  N840000000001988          81CNKETOFUSION 8885968154    023779    MD84000000001988 NDR599977547467   BB92D1A8F2TDEDA7ECAEFC2  000000000+600450S00130    MDJ  00560                     000000000  N                0000000000000.00 0000000.00   0000000.00                             000000000000000                                                                                                                                                     015WPE 000000000000 0000000000000.00     00000 00000                  
06913900655792728DR675906759000000198288001098000000106BB92D1A8F2TDEDA7ECAEFC2  U000000000000                                                                                                                                                                                                                                                                                                                                                                                                                                                                                                                                                                                                                               
06913910655790001G26759067590000001982880010980000001068885968154               UT           9 J               210                                      NNNN           210000000000000000000000000                                                                   77547467                                                                                                                                                                                                                                                                                                                                                                                                                                               
06913920655792729DT67590675900000019828800109800000010680010987287283179900019306462062720230000000259517923000000000134647517282XXXXXX2100                         YY 4607AMDJBAHVD10627  N840000000002595          81CNKETOFUSION 8885968154    023790    MD84000000002595 NDR599977547467   BB92D1A8F2T2ED395D6FB76  000000000+600450S00130    MDJ  00560                     000000000  N                0000000000000.00 0000000.00   0000000.00                             000000000000000                                                                                                                                                     015WPE 000000000000 0000000000000.00     00000 00000                  
06913930655792729DR675906759000000198288001098000000106BB92D1A8F2T2ED395D6FB76  U000000000000                                                                                                                                                                                                                                                                                                                                                                                                                                                                                                                                                                                                                               
06913940655790001G26759067590000001982880010980000001068885968154               UT           9 J               210                                      NNNN           210000000000000000000000000                                                                   77547467                                                                                                                                                                                                                                                                                                                                                                                                                                               
06913950656580002BH6759067590000000288180088880000090170628202317923000000000249854    0000090001480034N8008886759C06292023048                                                                                                                                                                                                                                                                                                                                                                                                                                                                                                                                                                                              
06913960656580003DT67590675900000002881800888800000010180088877287283179900014800015062820230000000986317923000000000249854517805XXXXXX6826       MS02WI09          NY 1 0 AMPLIO5SIL0628  N840000000009863          05DNHAPPY HIPPIE             08758B    MC84000000009863 N  549976487169                            000000000+M10101C5434C    MPL  00364                     000000000  N                0000000000000.00 0000000.00   0000000.00                             000000000000000                                                                                                                                                   B101418  000000000000 0000000000001.82     01800 00400                  
06913970656580001E167590675900000002881800888800000010100E0F8C80060 00000000000.00404040404040404040404040404040404040404040404040400110A04001220000000000000000000000FF00000000000000000000000000  0001084039000000008000230628185DB250D8ED79932167DA44404040400840A000000004101000000000000000000083CEA932DDC5180000120000000000004040401E40404040 000000098.63 000000000.001E03000000000000000000    80                                                                                                                                                                                                                                                                                                                  
06913980656580002G2675906759000000028818008888000000101SEVIERVILLE              TN           5 L                                                        NNNN              000000000000000000000000                        7                                          76487169                                                                                                                                                                                                                                                                                                                                                                                                                                               
06913990656580004DT67590675900000002881800888800000010180088824001193179900014800021062820230000000492517923000000000249854419090XXXXXX5354       VS11    0001111   NYV1 A E583179524048281N840000000004925BZQK00    05DNHAPPY HIPPIE             409627    VD84000000004925 N  549976487169                            000000000+                F DF 00381                     000000000  N000000000       0000000000000.00 0000000.00   0000000.00                             000000000000000                                                                                                                                                     01418 A000000000000 0000000000000.54     00800 01500                  
06914000656580001E167590675900000002881800888800000010100E0F8C802EC 00000000000.004040404040404040404040404040404040404040404040404006011203A02000000000000000000000404040404040404040404040404040  00010840180080800080002306289E95AA9AFEA7090F436298F1404040400840A00000000310100000000000000000006AE4FCD80080000000000000000000004040401E40404040 000000049.25 000000000.001E00000000000000000000    80                                                                                                                                                                                                                                                                                                                  
06914010656580002G2675906759000000028818008888000000101SEVIERVILLE              TN           5 D                00                                      NNNN00 N 00                   000000000000                                                                   76487169                                                                                                                                                                                                                                                                                                                                                                                                                                               
06914020656580005DT67590675900000002881800888800000010180088824001193179900014800039062820230000000424617923000000000249854435546XXXXXX4132       VS11    0001111   NYV1 A E463179529054753N840000000004246WHV900    05DNHAPPY HIPPIE             139114    VD84000000004246 N  549976487169                            000000000+                F DF 10433                     000000000  Y000000000 338   0000000000000.00 0000000.00   0000000.00                             000000000000000                                                                                                                                                     01418 A000000000000 0000000000000.24     00050 02200                  
06914030656580001E167590675900000002881800888800000010100E0F8C80079 00000000000.004040404040404040404040404040404040404040404040404006011203A00000000000000000000000404040404040404040404040404040  0001084018008080008000230628ED090999C625C046D37B8512404040400840A00000000310100000000000000000005B1BF7630082000000000000000000004040401E40404040 000000042.46 000000000.001E00000000000000000000    80                                                                                                                                                                                                                                                                                                                  
06914040656580002G2675906759000000028818008888000000101SEVIERVILLE              TN           5 D                00                                      NNNN00 N 00                   000000000000                                                                   76487169                                                                                                                                                                                                                                                                                                                                                                                                                                               
06914050656580006DT67590675900000002881800888800000010180088824001193179900014800047062820230000001053417923000000000249854422921XXXXXX0362       VS11    0001111   NYV1 A E583179531932847N8400000000105345K5500    05DNHAPPY HIPPIE             038794    VD84000000010534 N  549976487169                            000000000+                F DF 00381                     000000000  N000000000       0000000000000.00 0000000.00   0000000.00                             000000000000000                                                                                                                                                     01418 A000000000000 0000000000000.99     00800 01500                  
06914060656580001E167590675900000002881800888800000010100E0F8C80047 00000000000.004040404040404040404040404040404040404040404040404006011203A08000000000000000000000404040404040404040404040404040  00000840180080800080002306280C93B834A35D55A1F455FF9F404040400840A00000000310100000000000000000008B251DE80382000000000000000000004040401E40404040 000000105.34 000000000.001E00000000000000000000    80                                                                                                                                                                                                                                                                                                                  
06914070656580002G2675906759000000028818008888000000101SEVIERVILLE              TN           5 D                00                                      NNNN00 N 00                   000000000000                                                                   76487169                                                                                                                                                                                                                                                                                                                                                                                                                                               
06914080656580007DT67590675900000002881800888800000010180088877287283179900014800056062820230000000128317923000000000249854511953XXXXXX0916       MS02WI09          NY 1 0 AMDJGV3FH50628  N840000000001283          05DNHAPPY HIPPIE             058846    MD84000000001283 N  549976487169                            000000000+M10101C5434C    MDJ  00505                     000000000  N                0000000000000.00 0000000.00   0000000.00                             000000000000000                                                                                                                                                   B101418  000000000000 0000000000000.24     01550 00400                  
06914090656580001E167590675900000002881800888800000010100E0F8C80197 00000000000.00404040404040404040404040404040404040404040404040400110A00001220000000000000000000000FF00000000000000000000000000  0000084018008000008000230628D6F1CB83D5840A0DC1994246404040400840A000000004101000000000000000000069911A286BF4555C031A0000000000004040401E40404040 000000012.83 000000000.001E03000000000000000000    80                                                                                                                                                                                                                                                                                                                  
06914100656580002G2675906759000000028818008888000000101SEVIERVILLE              TN           5 J                                                        NNNN              000000000000000000000000                        7                                          76487169                                                                                                                                                                                                                                                                                                                                                                                                                                               
06914110656580008DT67590675900000002881800888800000010180088877287283179900014800064062820230000000394817923000000000249854517805XXXXXX2490       MS02WI09          NY 1 0 AMWEG7UIH50628  N840000000003948          05DNHAPPY HIPPIE             02201P    MC84000000003948 N  549976487169                            000000000+M10101C5434C    MWE  00743                     000000000  N                0000000000000.00 0000000.00   0000000.00                             000000000000000                                                                                                                                                   B101418  000000000000 0000000000000.95     02300 00400                  
06914120656580001E167590675900000002881800888800000010100E0F8C80047 00000000000.00404040404040404040404040404040404040404040404040400110A04001220000000000000000000000FF00000000000000000000000000  00010840390000000080002306283BE78CCB36001E5935052DD6404040400840A0000000041010000000000000000000F28B8CC947FEAB7900120000000000004040401E40404040 000000039.48 000000000.001E03000000000000000000    80                                                                                                                                                                                                                                                                                                                  
06914130656580002G2675906759000000028818008888000000101SEVIERVILLE              TN           5 E                                                        NNNN              000000000000000000000000                        7                                          76487169                                                                                                                                                                                                                                                                                                                                                                                                                                               
06914140656580009DT67590675900000002881800888800000010180088824001193179900014800070062820230000000493817923000000000249854422921XXXXXX6179       VS11    0001111   NYV1 A E583179556541586N840000000004938CN3T00    07DNHAPPY HIPPIE             041256    VD84000000004938 N  549976487169                            000000000+                F DF 00381                     000000000  N000000000       0000000000000.00 0000000.00   0000000.00                             000000000000000                                                                                                                                                     01418 A000000000000 0000000000000.55     00800 01500                  
06914150656580001E167590675900000002881800888800000010100E068C80094 00000000000.004040404040404040404040404040404040404040404040404006011203A00000000000000000000000404040404040404040404040404040  000008400000000000000023062804B232C1782B34EF012CA086404040400840A0000000031010000000000000000000666ECB060382000000000000000000004040404040404040 000000049.38 000000000.004040400000000000000000    80                                                                                                                                                                                                                                                                                                                  
06914160656580002G2675906759000000028818008888000000101SEVIERVILLE              TN           5 D                00                                      NNNN00 N 00                   000000000000                                                                   76487169                                                                                                                                                                                                                                                                                                                                                                                                                                               
06914170656580010DT67590675900000002881800888800000010180088824001193179900014800088062820230000000395117923000000000249854415978XXXXXX9354       VS11    0001111   NYV1 A E303179561650381N840000000003951C8J300    05DNHAPPY HIPPIE             043646    VD84000000003951 N  549976487169                            000000000+                F DF 10433                     000000000  Y000000000 338   0000000000000.00 0000000.00   0000000.00                             000000000000000                                                                                                                                                     01418 A000000000000 0000000000000.24     00050 02200                  
06914180656580001E167590675900000002881800888800000010100E0F8C8012A 00000000000.004040404040404040404040404040404040404040404040404006011203A02000000000000000000000404040404040404040404040404040  00000840180080800080002306287AF7ED0585E0D9F9529337AF404040400840A00000000310100000000000000000005F75CA49083B0B9630300000000000004040401E40404040 000000039.51 000000000.001E00000000000000000000    80                                                                                                                                                                                                                                                                                                                  
06914190656580002G2675906759000000028818008888000000101SEVIERVILLE              TN           5 D                00                                      NNNN00 N 00                   000000000000                                                                   76487169                                                                                                                                                                                                                                                                                                                                                                                                                                               
06914200656580011DT67590675900000002881800888800000010180088824001193179900014800096062820230000002195017923000000000249854414724XXXXXX5499       VS11    0001111   NYV1 A E583179562873299N840000000021950ZCJJ00    05DNHAPPY HIPPIE             80761C    VS84000000021950 N  549976487169                            000000000+                C CC 12112                     000000000  N000000000 497   0000000000000.00 0000000.00   0000000.00                             000000000000000                                                                                                                                                     01418 A000000000000 0000000000003.72     01650 01000                  
06914210656580001E167590675900000002881800888800000010100E0F8C8000D 00000000000.004040404040404040404040404040404040404040404040404006011203A0A000000000000000000000404040404040404040404040404040  0003084018008080008000230628D2A867FD57C9E4B8B22AF907404040400840A000000003101000000000000000000050DFBBCC0392000000000000000000004040401E40404040 000000219.50 000000000.001E00000000000000000000    80                                                                                                                                                                                                                                                                                                                  
06914220656580002G2675906759000000028818008888000000101SEVIERVILLE              TN           5 C                00                                      NNNN00 Y 00                   000000000000                                                                   76487169                                                                                                                                                                                                                                                                                                                                                                                                                                               
06914230656580012DT67590675900000002881800888800000010180088824001193179900014800104062820230000000294917923000000000249854435547XXXXXX9872       VS11    0001111   NYV1 A E303179565027349N84000000000294926QX00    05DNHAPPY HIPPIE             120112    VD84000000002949 N  549976487169                            000000000+                F DF 10433                     000000000  Y000000000 338   0000000000000.00 0000000.00   0000000.00                             000000000000000                                                                                                                                                     01418 A000000000000 0000000000000.23     00050 02200                  
06914240656580001E167590675900000002881800888800000010100E0F8C802B5 00000000000.004040404040404040404040404040404040404040404040404006011203A08000000000000000000000404040404040404040404040404040  0001084018008080008000230628602EB8CF8DF5903D9122A9F3404040400840A000000003101000000000000000000028F2E7B70082000000000000000000004040401E40404040 000000029.49 000000000.001E00000000000000000000    80                                                                                                                                                                                                                                                                                                                  
06914250656580002G2675906759000000028818008888000000101SEVIERVILLE              TN           5 D                00                                      NNNN00 N 00                   000000000000                                                                   76487169                                                                                                                                                                                                                                                                                                                                                                                                                                               
06914260656580013DT67590675900000002881800888800000010180088824001193179900014800112062820230000000493817923000000000249854480639XXXXXX6865       VS11    0001111   NYV1 A E383179566428242N8400000000049387FLC00    05DNHAPPY HIPPIE             410993    VD84000000004938 N  549976487169                            000000000+                F DF 00381                     000000000  N000000000       0000000000000.00 0000000.00   0000000.00                             000000000000000                                                                                                                                                     01418 A000000000000 0000000000000.55     00800 01500                  
06914270656580001E167590675900000002881800888800000010100E0F8C8002D 00000000000.004040404040404040404040404040404040404040404040404006011203A02000000000000000000000404040404040404040404040404040  0000084018008080008000230628ADF04DA90B76D18B5018B24E404040400840A0000000031010000000000000000000FF48A3F20080000000000000000000004040401E40404040 000000049.38 000000000.001E00000000000000000000    80                                                                                                                                                                                                                                                                                                                  
06914280656580002G2675906759000000028818008888000000101SEVIERVILLE              TN           5 D                00                                      NNNN00 N 00                   000000000000                                                                   76487169                                                                                                                                                                                                                                                                                                                                                                                                                                               
06914290656580014DT67590675900000002881800888800000010180088824001193179900014800120062820230000000197617923000000000249854435545XXXXXX9300       VS11    0001111   NYV1 A E383179592790019N8400000000019768MB500    05DNHAPPY HIPPIE             122051    VD84000000001976 N  549976487169                            000000000+                F DF 10433                     000000000  Y000000000 338   0000000000000.00 0000000.00   0000000.00                             000000000000000                                                                                                                                                     01418 A000000000000 0000000000000.23     00050 02200                  
06914300656580001E167590675900000002881800888800000010100E0F8C80300 00000000000.004040404040404040404040404040404040404040404040404006011203A08000000000000000000000404040404040404040404040404040  0001084018008080008000230628240988CD5E0EB79A5CEB2D3B404040400840A000000003101000000000000000000054554BD10082000000000000000000004040401E40404040 000000019.76 000000000.001E00000000000000000000    80                                                                                                                                                                                                                                                                                                                  
06914310656580002G2675906759000000028818008888000000101SEVIERVILLE              TN           5 D                00                                      NNNN00 N 00                   000000000000                                                                   76487169                                                                                                                                                                                                                                                                                                                                                                                                                                               
06914320656580015DT67590675900000002881800888800000010180088824001193179900014800138062820230000000329317923000000000249854423223XXXXXX4850       VS11    0001111   NYV1 A E583179597130668N8400000000032936FCX00    05DNHAPPY HIPPIE             070944    VD84000000003293 N  549976487169                            000000000+                F DF 00381                     000000000  N000000000       0000000000000.00 0000000.00   0000000.00                             000000000000000                                                                                                                                                     01418 A000000000000 0000000000000.41     00800 01500                  
06914330656580001E167590675900000002881800888800000010100E0F8C800B7 00000000000.004040404040404040404040404040404040404040404040404006011203A0A000000000000000000000404040404040404040404040404040  0000084018008080008000230628D75897A6BD27A42D05A241D1404040400840A00000000310100000000000000000008C7D00990080000000000000000000004040401E40404040 000000032.93 000000000.001E00000000000000000000    80                                                                                                                                                                                                                                                                                                                  
06914340656580002G2675906759000000028818008888000000101SEVIERVILLE              TN           5 D                00                                      NNNN00 N 00                   000000000000                                                                   76487169                                                                                                                                                                                                                                                                                                                                                                                                                                               
06914350656580016DT67590675900000002881800888800000010180088824001193179900014800146062820230000000197617923000000000249854440393XXXXXX5310       VS11    0001111   NYV1 A E583179599209526N8400000000019767CNT00    05DNHAPPY HIPPIE             745380    VD84000000001976 N  549976487169                            000000000+                F PF 08170                     000000000  N000000000       0000000000000.00 0000000.00   0000000.00                             000000000000000                                                                                                                                                     01418 A000000000000 0000000000000.38     01150 01500                  
06914360656580001E167590675900000002881800888800000010100E0F8C801C4 00000000000.004040404040404040404040404040404040404040404040404006011203A0A000000000000000000000404040404040404040404040404040  0000084018008080008000230628B0721135FD247DCB0BE9ED96404040400840A000000003101000000000000000000022F27CC8F628148330300000000000004040401E40404040 000000019.76 000000000.001E00000000000000000000    80                                                                                                                                                                                                                                                                                                                  
06914370656580002G2675906759000000028818008888000000101SEVIERVILLE              TN           5 P                00                                      NNNN00 N 00                   000000000000                                                                   76487169                                                                                                                                                                                                                                                                                                                                                                                                                                               
06914380656580017DT67590675900000002881800888800000010180088877287283179900014800155062820230000000691217923000000000249854517800XXXXXX9737       MS02WI09          NY 1 0 AMCSMXPBMD0628  N840000000006912          05DNHAPPY HIPPIE             028428    MC84000000006912 N  549976487169                            000000000+M10101C5434C    MCS  00043                     000000000  N                0000000000000.00 0000000.00   0000000.00                             000000000000000                                                                                                                                                   B101418  000000000000 0000000000001.18     01650 00400                  
06914390656580001E167590675900000002881800888800000010100E0F8C80012 00000000000.00404040404040404040404040404040404040404040404040400710A04003220000000000000000000000FF00000000000000000000000000  00010840390000000880002306281BAA6E61B11D091796372F17404040400840A000000004101000000000000000000061D6D6D054C0B3F400120000000000004040401E40404040 000000069.12 000000000.001E03000000000000000000    80                                                                                                                                                                                                                                                                                                                  
06914400656580002G2675906759000000028818008888000000101SEVIERVILLE              TN           5 S                                                        NNNN              000000000000000000000000                        7                                          76487169                                                                                                                                                                                                                                                                                                                                                                                                                                               
06914410656580018DT67590675900000002881800888800000010180088824001193179900014800161062820230000001192617923000000000249854449507XXXXXX2805       VS11    0001111   NYV1 A E583179605049810N840000000011926SR5J00    05DNHAPPY HIPPIE             024824    VD84000000011926 N  549976487169                            000000000+                F DF 00381                     000000000  N000000000       0000000000000.00 0000000.00   0000000.00                             000000000000000                                                                                                                                                     01418 A000000000000 0000000000001.10     00800 01500                  
06914420656580001E167590675900000002881800888800000010100E0F8C80044 00000000000.004040404040404040404040404040404040404040404040404006011203A02000000000000000000000404040404040404040404040404040  00000840180080800080002306287E2898CC8D6AA2944A2DE1FC404040400840A0000000031010000000000000000000404040404040404040404040404040404040401E40404040 000000119.26 000000000.001E00000000000000000000    80                                                                                                                                                                                                                                                                                                                  
06914430656580002G2675906759000000028818008888000000101SEVIERVILLE              TN           5 D                00                                      NNNN00 N 00                   000000000000                                                                   76487169                                                                                                                                                                                                                                                                                                                                                                                                                                               
06914440656580019DT67590675900000002881800888800000010180088824001193179900014800179062820230000000064617923000000000249854422921XXXXXX0493       VK04VS111111111   NYV1 A E463179633739454N8400000000006462M8G00    07DNHAPPY HIPPIE             048975    VD84000000000646 N  549976487169                            000000000+                F DF 00451                     000000000  N000000000 214   0000000000000.00 0000000.00   0000000.00                             000000000000000                                                                                                                                                     01418 F000000000000 0000000000000.14     01550 00400                  
06914450656580001E167590675900000002881800888800000010100E068C80108 00000000000.004040404040404040404040404040404040404040404040404006011203A00000000000000000000000404040404040404040404040404040  00000840000000000000002306285FAD0EB0CDC0B85B64B5D219404040400840A00000000310100000000000000000006EAB0F730382000000000000000000004040404040404040 000000006.46 000000000.004040400000000000000000    80                                                                                                                                                                                                                                                                                                                  
06914460656580002G2675906759000000028818008888000000101SEVIERVILLE              TN           5 D                00                                      NNNN00 N 00                   000000000000                                                                   76487169                                                                                                                                                                                                                                                                                                                                                                                                                                               
06914470656580020DT67590675900000002881800888800000010180088824001193179900014800187062820230000000711017923000000000249854443238XXXXXX5449       VS11    0001111   NYV1 A E583179642125736N840000000007110VSVK00    05DNHAPPY HIPPIE             035012    VD84000000007110 N  549976487169                            000000000+                F DF 00381                     000000000  N000000000       0000000000000.00 0000000.00   0000000.00                             000000000000000                                                                                                                                                     01418 A000000000000 0000000000000.72     00800 01500                  
06914480656580001E167590675900000002881800888800000010100E0F8C80209 00000000000.004040404040404040404040404040404040404040404040404006011203A08000000000000000000000404040404040404040404040404040  000008401800808000800023062818FECB429B3FADBFECA287AB404040400840A0000000031010000000000000000000404040404040404040404040404040404040401E40404040 000000071.10 000000000.001E00000000000000000000    80                                                                                                                                                                                                                                                                                                                  
06914490656580002G2675906759000000028818008888000000101SEVIERVILLE              TN           5 D                00                                      NNNN00 N 00                   000000000000                                                                   76487169                                                                                                                                                                                                                                                                                                                                                                                                                                               
06914500656580021DT67590675900000002881800888800000010180088824001193179900014800195062820230000000395117923000000000249854422921XXXXXX6466       VS11    0001111   NYV1 A E583179658439507N840000000003951ZKMM00    07DNHAPPY HIPPIE             051445    VD84000000003951 N  549976487169                            000000000+                F DF 00381                     000000000  N000000000       0000000000000.00 0000000.00   0000000.00                             000000000000000                                                                                                                                                     01418 A000000000000 0000000000000.47     00800 01500                  
06914510656580001E167590675900000002881800888800000010100E068C8038F 00000000000.004040404040404040404040404040404040404040404040404006011203A00000000000000000000000404040404040404040404040404040  0000084000000000000000230628AFCF43F5CB95CB07690FAB0A404040400840A00000000310100000000000000000006ACDD5130382000000000000000000004040404040404040 000000039.51 000000000.004040400000000000000000    80                                                                                                                                                                                                                                                                                                                  
06914520656580002G2675906759000000028818008888000000101SEVIERVILLE              TN           5 D                00                                      NNNN00 N 00                   000000000000                                                                   76487169                                                                                                                                                                                                                                                                                                                                                                                                                                               
06914530656580022DT67590675900000002881800888800000010180088824001193179900014800203062820230000000252317923000000000249854430678XXXXXX8571       VS11    0001111   NYV1 A E463179675033405N84000000000252374R300    05DNHAPPY HIPPIE             596810    VD84000000002523 N  549976487169                            000000000+                F DF 00381                     000000000  N000000000       0000000000000.00 0000000.00   0000000.00                             000000000000000                                                                                                                                                     01418 A000000000000 0000000000000.35     00800 01500                  
06914540656580001E167590675900000002881800888800000010100E0F8C806D8 00000000000.004040404040404040404040404040404040404040404040404006010A03A02000000000000000000000404040404040404040404040404040  00010840180080800080002306286D653B679189C6C110E7E306404040400840A0000000031010000000000000000000FC4FC862E65933F430300000000000004040401E40404040 000000025.23 000000000.001E00000000000000000000    80                                                                                                                                                                                                                                                                                                                  
06914550656580002G2675906759000000028818008888000000101SEVIERVILLE              TN           5 D                00                                      NNNN00 N 00                   000000000000                                                                   76487169                                                                                                                                                                                                                                                                                                                                                                                                                                               
06914560656580023DT67590675900000002881800888800000010180088877287283179900014800213062820230000002951117923000000000249854516693XXXXXX6879       MS02WI09          NY 1 0 AMDSCUQ9MR0628  N840000000029511          05DNHAPPY HIPPIE             815630    MD84000000029511 N  549976487169                            000000000+M10101C5434C    MDS  00402                     000000000  N                0000000000000.00 0000000.00   0000000.00                             000000000000000                                                                                                                                                   B101418  000000000000 0000000000003.25     01050 01500                  
06914570656580001E167590675900000002881800888800000010100E0F8C80010 00000000000.00404040404040404040404040404040404040404040404040400110A00001220000000000000000000000FF00000000000000000000000000  0000084018008000008000230628A5591C8B9C43A0B48CD59C57404040400840A00000000410100000000000000000005144B37341E9236303120000000000004040401E40404040 000000295.11 000000000.001E03000000000000000000    80                                                                                                                                                                                                                                                                                                                  
06914580656580002G2675906759000000028818008888000000101SEVIERVILLE              TN           5 S                                                        NNNN              000000000000000000000000                        7                                          76487169                                                                                                                                                                                                                                                                                                                                                                                                                                               
06914590656580024DT67590675900000002881800888800000010180088824001193179900014800229062820230000000315417923000000000249854404657XXXXXX1366       VS11    0001111   NYV1 A E303179686724524N840000000003154943Z00    05DNHAPPY HIPPIE             028501    VS84000000003154 N  549976487169                            000000000+                A CA 12110                     000000000  N000000000 493   0000000000000.00 0000000.00   0000000.00                             000000000000000                                                                                                                                                     01418 A000000000000 0000000000000.58     01510 01000                  
06914600656580001E167590675900000002881800888800000010100E0F8C801C0 00000000000.004040404040404040404040404040404040404040404040404006011203A0A000000000000000000000404040404040404040404040404040  0000084018008080008000230628DFC7BA97C0CB3CA1B9910F99404040400840A00000000310100000000000000000002DC5748D0086000000000000000000004040401E40404040 000000031.54 000000000.001E00000000000000000000    80                                                                                                                                                                                                                                                                                                                  
06914610656580002G2675906759000000028818008888000000101SEVIERVILLE              TN           5 C                00                                      NNNN00 N 00                   000000000000                                                                   76487169                                                                                                                                                                                                                                                                                                                                                                                                                                               
06914620656580025DT67590675900000002881800888800000010180088877287283179900014800239062820230000000175417923000000000249854514377XXXXXX8540       MS02WI09          NY 1 0 AMDJFWH0X90628  N840000000001754          05DNHAPPY HIPPIE             1KA5DL    MD84000000001754 N  549976487169                            000000000+M10101C5434C    MDJ  00402                     000000000  N                0000000000000.00 0000000.00   0000000.00                             000000000000000                                                                                                                                                   B101418  000000000000 0000000000000.33     01050 01500                  
06914630656580001E167590675900000002881800888800000010100E0F8C80001 00000000000.00404040404040404040404040404040404040404040404040400210A04001220000000000000000000000FF00000000000000000000000000  0001084039000000008000230628937FBC11FCB6792E03526320404040400840A00000000410100000000000000000006AA79F444D757BAB00100000000000004040401E40404040 000000017.54 000000000.001E03000000000000000000    80                                                                                                                                                                                                                                                                                                                  
06914640656580002G2675906759000000028818008888000000101SEVIERVILLE              TN           5 J                                                        NNNN              000000000000000000000000                        7                                          76487169                                                                                                                                                                                                                                                                                                                                                                                                                                               
06914650656580026DT67590675900000002881800888800000010180088824001193179900014800245062820230000000246817923000000000249854445101XXXXXX7029       VS11    0001111   NYV1 A E383179699557825N84000000000246883J300    05DNHAPPY HIPPIE             131304    VD84000000002468 N  549976487169                            000000000+                F DF 10433                     000000000  Y000000000 338   0000000000000.00 0000000.00   0000000.00                             000000000000000                                                                                                                                                     01418 A000000000000 0000000000000.23     00050 02200                  
06914660656580001E167590675900000002881800888800000010100E0F8C80012 00000000000.004040404040404040404040404040404040404040404040404006011203A08000000000000000000000404040404040404040404040404040  0001084018008080008000230628421F87F9180DC0261806059B404040400840A00000000310100000000000000000000AFE31820082000000000000000000004040401E40404040 000000024.68 000000000.001E00000000000000000000    80                                                                                                                                                                                                                                                                                                                  
06914670656580002G2675906759000000028818008888000000101SEVIERVILLE              TN           5 D                00                                      NNNN00 N 00                   000000000000                                                                   76487169                                                                                                                                                                                                                                                                                                                                                                                                                                               
06914680656580027DT67590675900000002881800888800000010180088824001193179900014800252062820230000000549117923000000000249854413790XXXXXX4665       VS11    0001111   NYV1 A E383179709288301N8400000000054912X5V00    05DNHAPPY HIPPIE             054208    VD84000000005491 N  549976487169                            000000000+                F DF 00381                     000000000  N000000000       0000000000000.00 0000000.00   0000000.00                             000000000000000                                                                                                                                                     01418 A000000000000 0000000000000.59     00800 01500                  
06914690656580001E167590675900000002881800888800000010100E0F8C80044 00000000000.004040404040404040404040404040404040404040404040404006011203A0A000000000000000000000404040404040404040404040404040  00020840180080800080002306280B80C934D74850FF1D1B6756404040400840A000000003101000000000000000000028962F5F0082000000000000000000004040401E40404040 000000054.91 000000000.001E00000000000000000000    80                                                                                                                                                                                                                                                                                                                  
06914700656580002G2675906759000000028818008888000000101SEVIERVILLE              TN           5 D                00                                      NNNN00 N 00                   000000000000                                                                   76487169                                                                                                                                                                                                                                                                                                                                                                                                                                               
06914710656580028DT67590675900000002881800888800000010180088824001193179900014800260062820230000000186617923000000000249854415978XXXXXX2634       VS11    0001111   NYV1 A E583179753030538N840000000001866PX5X00    07DNHAPPY HIPPIE             031314    VD84000000001866 N  549976487169                            000000000+                F DF 10433                     000000000  Y000000000 338   0000000000000.00 0000000.00   0000000.00                             000000000000000                                                                                                                                                     01418 A000000000000 0000000000000.23     00050 02200                  
06914720656580001E167590675900000002881800888800000010100E068C801FE 00000000000.004040404040404040404040404040404040404040404040404006011203A00000000000000000000000404040404040404040404040404040  00000840000000000000002306288581EC245E82E689412EDEAC404040400840A00000000310100000000000000000007CA20F43BB91099B30300000000000004040404040404040 000000018.66 000000000.004040400000000000000000    80                                                                                                                                                                                                                                                                                                                  
06914730656580002G2675906759000000028818008888000000101SEVIERVILLE              TN           5 D                00                                      NNNN00 N 00                   000000000000                                                                   76487169                                                                                                                                                                                                                                                                                                                                                                                                                                               
06914740656580029DT67590675900000002881800888800000010180088824001193179900014800278062820230000000393917923000000000249854498503XXXXXX0715       VS11    0001111   NYV1 A E383179754840031N840000000003939CVS500    07DNHAPPY HIPPIE             008107    VD84000000003939 N  549976487169                            000000000+                F DF 00381                     000000000  N000000000       0000000000000.00 0000000.00   0000000.00                             000000000000000                                                                                                                                                     01418 A000000000000 0000000000000.47     00800 01500                  
06914750656580001E167590675900000002881800888800000010100E068C8000F 00000000000.004040404040404040404040404040404040404040404040404006011203A00000000000000000000000404040404040404040404040404040  0000084020000000000000230628DB0237F823B676D5CED86704404040400840A00000000310100000000000000000007A01D4290080000000000000000000004040404040404040 000000039.39 000000000.004040400000000000000000    80                                                                                                                                                                                                                                                                                                                  
