02865240021251646AD675906759000000133008001028000009071900010402530000001855102282023NYY05923ND6759800102030220232023059024495                                                                                                                                                                                                                                                                                                                                                                                                                                                                                                                                                                                              
02865250021251649AD675906759000000133008001028000009071900010402330000001987002282023NYY05923ND6759800102030220232023059024496                                                                                                                                                                                                                                                                                                                                                                                                                                                                                                                                                                                              
02865260021251652AD675906759000000133008001028000009071900010503920000002350302282023NYY05923ND6759800102030220232023059039327                                                                                                                                                                                                                                                                                                                                                                                                                                                                                                                                                                                              
02865270021251655AD675906759000000142748001028000009071900010504510000001855102282023NYY05923ND6759800102030220232023059039328                                                                                                                                                                                                                                                                                                                                                                                                                                                                                                                                                                                              
02865280023800002BH6759067590000000215480088880000090170301202306023000000000779092    0000090001216662N8008886759C03022023                                                                                                                                                                                                                                                                                                                                                                                                                                                                                                                                                                                                 
02865290023800003DT67590675900000002154800888800000010180088824001193060900012143632030120230000046452006023000000000779092447827XXXXXX3215               2111111   NYV4 A7W303060001351319N840000000464520D5PN00    01DNDRIP DROP DISTRO LLC     001216    VD84000000464520 NP1519971004114   INV-000979               000000000+                G DG 10352                     000000000  Y000000000 338   0000000000000.00 0000000.00   0000000.00                             000000000000000                                                                                                                                                     01418 G000000464520 0000000000002.54     00050 02200                  
02865300023800001P16759067590000000215480088880000001010000000000000000    43968082012              2000000000000000000000000              000000000000                    0000000000000000000000000                    000000000000                                                                                                                                                                                                                                                                                                                                                                                                                                                                                        
02865310023800004DT67590675900000002154800888800000010180088824001193060900012155479030120230000003400006023000000000779092448233XXXXXX4573               2111111   NYV4 A7W583060760690046N840000000034000568700    01DNDRIP DROP DISTRO LLC     050749    VD84000000034000 NP1519971004114   INV-000989               000000000+                F DF 10420                     000000000  Y000000000 338   0000000000000.00 0000000.00   0000000.00                             000000000000000                                                                                                                                                     01418 G000000034000 0000000000000.39     00050 02200                  
02865320023800001P16759067590000000215480088880000001010000000000000000                             2000000000000000000000000              000000000000                    0000000000000000000000000                    000000000000                                                                                                                                                                                                                                                                                                                                                                                                                                                                                        
02865330023800005DT67590675900000002154800888800000010180088824001193060900012136982030120230000004974906023000000000779092424631XXXXXX1220               2111111   NYV4 A7W463060730037242N8400000000497498C2P00    01DNDRIP DROP DISTRO LLC     09315G    VB84000000049749 NP1519971004114   17491                    000000000+                G5CG511887                     000000000  N000000000 163   0000000000000.00 0000000.00   0000000.00                             000000000000000                                                                                                                                                     01418 G000000049749 0000000000015.02     03000 01000                  
02865340023800001P16759067590000000215480088880000001010000000000000000    43970301419              2000000000000000000000000              000000000000                    0000000000000000000000000                    000000000000                                                                                                                                                                                                                                                                                                                                                                                                                                                                                        
02865350023800006DT67590675900000002154800888800000010180088887287283060900012166626030120230000023082306023000000000779092547415XXXXXX7571                         NY 4607AMEBUOKQ340228  N840000000230823          81DNDRIP DROP DISTRO LLC     04763Q    MB84000000230823 NP1519900000001   17489                    000000000+600450S00140    MEB  11637                     000000000  N                0000000000000.00 0000000.00   0000000.00                             000000000000000                                                                                                                                                   U001418  000000000000 0000000000069.35     03000 01000                  
02865360023800001P1675906759000000021548008888000000101                                                          000000000000          8000            471534935                                                                                                                                                                                                                                                                                                                                                                                                                                                                                                                                                            
02865370023800007BH6759067590000000288180088880000090170301202306023000000000119832    0000090001570019N8008886759C03022023                                                                                                                                                                                                                                                                                                                                                                                                                                                                                                                                                                                                 
02865380023800008DT67590675900000002881800888800000010180088824001193060900015700016030120230000000651706023000000000119832419090XXXXXX9633       VS11    0001111   NYV1 A E463060542519693N8400000000065179G9300    05DNHAPPY HIPPIE             998637    VD84000000006517 N  549976487134                            000000000+                F DF 00381                     000000000  N000000000       0000000000000.00 0000000.00   0000000.00                             000000000000000                                                                                                                                                     01418 A000000000000 0000000000000.67     00800 01500                  
02865390023800009DT67590675900000002881800888800000010180088824001193060900015700024030120230000000711006023000000000119832419090XXXXXX3166       VS11    0001111   NYV1 A E583060546554053N840000000007110ND7J00    05DNHAPPY HIPPIE             998842    VD84000000007110 N  549976487134                            000000000+                F DF 00381                     000000000  N000000000       0000000000000.00 0000000.00   0000000.00                             000000000000000                                                                                                                                                     01418 A000000000000 0000000000000.72     00800 01500                  
02865400023800010DT67590675900000002881800888800000010180088824001193060900015700032030120230000000197406023000000000119832422921XXXXXX8041       VS11    0001111   NYV1 A E303060555838777N840000000001974QGLC00    07DNHAPPY HIPPIE             037584    VD84000000001974 N  549976487134                            000000000+                F DF 00381                     000000000  N000000000       0000000000000.00 0000000.00   0000000.00                             000000000000000                                                                                                                                                     01418 A000000000000 0000000000000.31     00800 01500                  
02865410023800011DT67590675900000002881800888800000010180088824001193060900015700040030120230000000572706023000000000119832444796XXXXXX6574       VS11    0001111   NYV1 A E583060562744620N840000000005727J2MW00    07DNHAPPY HIPPIE             001992    VS84000000005727 N  549976487134                            000000000+                A CA 12110                     000000000  N000000000 493   0000000000000.00 0000000.00   0000000.00                             000000000000000                                                                                                                                                     01418 A000000000000 0000000000000.96     01510 01000                  
02865420023800012DT67590675900000002881800888800000010180088824001193060900015700057030120230000001490206023000000000119832406032XXXXXX5726       VS11    0001111   NYV1 A E463060564849725N840000000014902ZR2Q00    05DNHAPPY HIPPIE             044110    VD84000000014902 N  549976487134                            000000000+                F DF 10433                     000000000  Y000000000 338   0000000000000.00 0000000.00   0000000.00                             000000000000000                                                                                                                                                     01418 A000000000000 0000000000000.29     00050 02200                  
02865430023800013DT67590675900000002881800888800000010180088873011003060900015700061030120230000001112606023000000000119832379300XXXXX1001                          NY 1 0 N004222528592328N840000000011126          05DNHAPPY HIPPIE             815605    AM84000000011126 N  549976487134                            000000000+51010155434C 258     11262                     000000000                   0000000000000.00 0000000.00   0000000.00                             000000000000000 61248972086759675900000002881 HAPPY HIPPIE             832 PARKWAY              8656540830      37862     HAPPYHIPPIE832@GMAIL.COM                  01418  000000000000 0000000000002.27     01950 00000                  
02865440023800014DT67590675900000002881800888800000010180088824001193060900015700073030120230000000395006023000000000119832419090XXXXXX6049       VS11    0001111   NYV1 A E583060584297808N840000000003950L8V300    05DNHAPPY HIPPIE             000775    VD84000000003950 N  549976487134                            000000000+                F DF 00381                     000000000  N000000000       0000000000000.00 0000000.00   0000000.00                             000000000000000                                                                                                                                                     01418 A000000000000 0000000000000.47     00800 01500                  
02865450023800015DT67590675900000002881800888800000010180088824001193060900015700081030120230000001134606023000000000119832419090XXXXXX0477       VS11    0001111   NYV1 A E583060607347099N840000000011346CH2J00    05DNHAPPY HIPPIE             002197    VD84000000011346 N  549976487134                            000000000+                F DF 00381                     000000000  N000000000       0000000000000.00 0000000.00   0000000.00                             000000000000000                                                                                                                                                     01418 A000000000000 0000000000001.06     00800 01500                  
02865460023800016DT67590675900000002881800888800000010180088824001193060900015700099030120230000000164506023000000000119832406042XXXXXX1274       VS11    0001111   NYV1 A E463060608237516N840000000001645PJ2H00    07DNHAPPY HIPPIE             035311    VD84000000001645 N  549976487134                            000000000+                F DF 10433                     000000000  Y000000000 338   0000000000000.00 0000000.00   0000000.00                             000000000000000                                                                                                                                                     01418 A000000000000 0000000000000.23     00050 02200                  
02865470023800017DT67590675900000002881800888800000010180088877287283060900015700109030120230000001150106023000000000119832555426XXXXXX0355       MS02WI09          NY 1 0 AMPGNYRFSK0301  N840000000011501          90DNHAPPY HIPPIE             015731    MD84000000011501 N  549976487134                            000000000+M10101B5434C    MPG  11964                     000000000  N                0000000000000.00 0000000.00   0000000.00                             000000000000000                                                                                                                                                   C101418  000000000000 0000000000001.47     01150 01500                  
02865480023800018DT67590675900000002881800888800000010180088873011003060900015700111030120230000000325806023000000000119832378339XXXXX2003                          NY 1 0 N004490352512304N840000000003258          05DNHAPPY HIPPIE             848077    AM84000000003258 N  549976487134                            000000000+51010155434C 258     11261                     000000000                   0000000000000.00 0000000.00   0000000.00                             000000000000000 61248972086759675900000002881 HAPPY HIPPIE             832 PARKWAY              8656540830      37862     HAPPYHIPPIE832@GMAIL.COM                  01418  000000000000 0000000000000.62     01600 00000                  
02865490023800019DT67590675900000002881800888800000010180088824001193060900015700123030120230000000887606023000000000119832498503XXXXXX5806       VS11    0001111   NYV1 A E303060656057649N84000000000887697QP00    05DNHAPPY HIPPIE             078356    VD84000000008876 N  549976487134                            000000000+                F DF 00381                     000000000  N000000000       0000000000000.00 0000000.00   0000000.00                             000000000000000                                                                                                                                                     01418 A000000000000 0000000000000.86     00800 01500                  
02865500023800020DT67590675900000002881800888800000010180088824001193060900015700131030120230000000493806023000000000119832415978XXXXXX0777       VS11    0001111   NYV1 A E383060664143163N840000000004938JC9P00    07DNHAPPY HIPPIE             067872    VD84000000004938 N  549976487134                            000000000+                F DF 10433                     000000000  Y000000000 338   0000000000000.00 0000000.00   0000000.00                             000000000000000                                                                                                                                                     01418 A000000000000 0000000000000.24     00050 02200                  
02865510023800021DT67590675900000002881800888800000010180088824001193060900015700149030120230000000296206023000000000119832435546XXXXXX5532       VS11    0001111   NYV1 A E383060719444341N840000000002962W56900    05DNHAPPY HIPPIE             120047    VD84000000002962 N  549976487134                            000000000+                F DF 10433                     000000000  Y000000000 338   0000000000000.00 0000000.00   0000000.00                             000000000000000                                                                                                                                                     01418 A000000000000 0000000000000.23     00050 02200                  
02865520023800022DT67590675900000002881800888800000010180088824001193060900015700156030120230000000493706023000000000119832419090XXXXXX1416       VS11    0001111   NYV1 A E303060738618761N840000000004937DSPL00    05DNHAPPY HIPPIE             010413    VD84000000004937 N  549976487134                            000000000+                F DF 00381                     000000000  N000000000       0000000000000.00 0000000.00   0000000.00                             000000000000000                                                                                                                                                     01418 A000000000000 0000000000000.54     00800 01500                  
02865530023800023DT67590675900000002881800888800000010180088824001193060900015700164030120230000000246806023000000000119832435687XXXXXX6025       VS11    0001111   NYV1 A E303060746983524N840000000002468R8VX00    05DNHAPPY HIPPIE             134049    VD84000000002468 N  549976487134                            000000000+                F DF 10433                     000000000  Y000000000 338   0000000000000.00 0000000.00   0000000.00                             000000000000000                                                                                                                                                     01418 A000000000000 0000000000000.23     00050 02200                  
02865540023800024DT67590675900000002881800888800000010180088824001193060900015700172030120230000001316506023000000000119832455225XXXXXX7040       VS11    0001111   NYV1 A E303060785801282N840000000013165JWHQ00    05DNHAPPY HIPPIE             H68164    VD84000000013165 N  549976487134                            000000000+                F DF 10433                     000000000  Y000000000 338   0000000000000.00 0000000.00   0000000.00                             000000000000000                                                                                                                                                     01418 A000000000000 0000000000000.29     00050 02200                  
02865550023800025DT67590675900000002881800888800000010180088824001193060900015700180030120230000000123506023000000000119832451440XXXXXX4777       VK04VS111111111   NYV1 A E463060816974868N8400000000012356CRW00    05DNHAPPY HIPPIE             144137    VD84000000001235 N  549976487134                            000000000+                F PF 08165                     000000000  N000000000       0000000000000.00 0000000.00   0000000.00                             000000000000000                                                                                                                                                     01418 F000000000000 0000000000000.25     01600 00500                  
02865560023800026DT67590675900000002881800888800000010180088877287283060900015700190030120230000000219506023000000000119832517546XXXXXX1615       MS02WI09          NY 1 0 AMDJIRT3W50301  N840000000002195          07DNHAPPY HIPPIE             001464    MD84000000002195 N  549976487134                            000000000+M10101M0034C    MDJ  10815                     000000000  1                0000000000000.00 0000000.00   0000000.00                             000000000000000                                                                                                                                                   B101418  000000000000 0000000000000.23     00050 02200                  
02865570023800027BH6759067590000000288180088880000090170301202306023000000000077594    0000090001580019N8008886759C03022023                                                                                                                                                                                                                                                                                                                                                                                                                                                                                                                                                                                                 
02865580023800028DT67590675900000002881800888800000010180088824001193060900015800014030120230000000651706023000000000077594422921XXXXXX0398       VS11    0001111   NYV1 A E583060587869544N840000000006517H48P00    05DNHAPPY HIPPIE             040787    VD84000000006517 N  549976487158                            000000000+                F DF 00381                     000000000  N000000000       0000000000000.00 0000000.00   0000000.00                             000000000000000                                                                                                                                                     01418 A000000000000 0000000000000.67     00800 01500                  
02865590023800029DT67590675900000002881800888800000010180088824001193060900015800022030120230000000355506023000000000077594435547XXXXXX4385       VS11    0001111   NYV1 A E583060590446319N840000000003555CV7F00    05DNHAPPY HIPPIE             038066    VD84000000003555 N  549976487158                            000000000+                F DF 10433                     000000000  Y000000000 338   0000000000000.00 0000000.00   0000000.00                             000000000000000                                                                                                                                                     01418 A000000000000 0000000000000.24     00050 02200                  
02865600023800030DT67590675900000002881800888800000010180088824001193060900015800030030120230000000032906023000000000077594491523XXXXXX7823       VK04VS111111111   NYV1 A E583060603759865N84000000000032932K300    07DNHAPPY HIPPIE             021540    VD84000000000329 N  549976487158                            000000000+                F DF 10439                     000000000  Y000000000 331   0000000000000.00 0000000.00   0000000.00                             000000000000000                                                                                                                                                     01418 F000000000000 0000000000000.22     00050 02200                  
02865610023800031DT67590675900000002881800888800000010180088824001193060900015800048030120230000000493806023000000000077594445101XXXXXX7687       VS11    0001111   NYV1 A E383060669930033N84000000000493856JX00    05DNHAPPY HIPPIE             354477    VD84000000004938 N  549976487158                            000000000+                F DF 10433                     000000000  Y000000000 338   0000000000000.00 0000000.00   0000000.00                             000000000000000                                                                                                                                                     01418 A000000000000 0000000000000.24     00050 02200                  
02865620023800032DT67590675900000002881800888800000010180088824001193060900015800055030120230000000809706023000000000077594480639XXXXXX6263       VS11    0001111   NYV1 A E383060682274900N8400000000080978VVB00    05DNHAPPY HIPPIE             524224    VD84000000008097 N  549976487158                            000000000+                F DF 00381                     000000000  N000000000       0000000000000.00 0000000.00   0000000.00                             000000000000000                                                                                                                                                     01418 A000000000000 0000000000000.80     00800 01500                  
02865630023800033DT67590675900000002881800888800000010180088877287283060900015800065030120230000000570406023000000000077594540219XXXXXX2727       MS02WI09          NY 2 0 AMDJKKHKHO0301  N840000000005704          05DNHAPPY HIPPIE             409791    MD84000000005704 N  549976487158                            000000000+M10101C1334C    MDJ  00402                     000000000  N                0000000000000.00 0000000.00   0000000.00                             000000000000000                                                                                                                                                     01418  000000000000 0000000000000.75     01050 01500                  
02865640023800034DT67590675900000002881800888800000010180088824001193060900015800071030120230000000394906023000000000077594453506XXXXXX2132       VS11    0001111   NYV1 A E383060687516012N840000000003949HT5500    05DNHAPPY HIPPIE             H34547    VD84000000003949 N  549976487158                            000000000+                F DF 10433                     000000000  Y000000000 338   0000000000000.00 0000000.00   0000000.00                             000000000000000                                                                                                                                                     01418 A000000000000 0000000000000.24     00050 02200                  
02865650023800035DT67590675900000002881800888800000010180088824001193060900015800089030120230000000325706023000000000077594415978XXXXXX3096       VS11    0001111   NYV1 A E383060695046301N8400000000032575BBL00    05DNHAPPY HIPPIE             054485    VD84000000003257 N  549976487158                            000000000+                F DF 10433                     000000000  Y000000000 338   0000000000000.00 0000000.00   0000000.00                             000000000000000                                                                                                                                                     01418 A000000000000 0000000000000.24     00050 02200                  
02865660023800036DT67590675900000002881800888800000010180088824001193060900015800097030120230000000144106023000000000077594443264XXXXXX5230       VK04VS111111111   NYV1 A E303060699884807N840000000001441B77W00    05DNHAPPY HIPPIE             021174    VD84000000001441 N  549976487158                            000000000+                F DF 10439                     000000000  Y000000000 331   0000000000000.00 0000000.00   0000000.00                             000000000000000                                                                                                                                                     01418 F000000000000 0000000000000.23     00050 02200                  
02865670023800037DT67590675900000002881800888800000010180088824001193060900015800105030120230000000395006023000000000077594410889XXXXXX4400       VS11    0001111   NYV1 A E583060702418484N840000000003950X4MW00    05DNHAPPY HIPPIE             552242    VS84000000003950 N  549976487158                            000000000+                B CB 12111                     000000000  N000000000 495   0000000000000.00 0000000.00   0000000.00                             000000000000000                                                                                                                                                     01418 A000000000000 0000000000000.75     01650 01000                  
02865680023800038DT67590675900000002881800888800000010180088824001193060900015800113030120230000000039406023000000000077594443238XXXXXX5927       VK04VS111111111   NYV1 A E303060703020551N840000000000394542S00    05DNHAPPY HIPPIE             043142    VD84000000000394 N  549976487158                            000000000+                F DF 00451                     000000000  N000000000 214   0000000000000.00 0000000.00   0000000.00                             000000000000000                                                                                                                                                     01418 F000000000000 0000000000000.10     01550 00400                  
02865690023800039DT67590675900000002881800888800000010180088824001193060900015800121030120230000000325806023000000000077594414740XXXXXX8839       VS11    0001111   NYV1 A E383060712031429N840000000003258HZVQ00    05DNHAPPY HIPPIE             09296D    VS84000000003258 N  549976487158                            000000000+                D CD 12113                     000000000  N000000000 499   0000000000000.00 0000000.00   0000000.00                             000000000000000                                                                                                                                                     01418 A000000000000 0000000000000.78     02100 01000                  
02865700023800040DT67590675900000002881800888800000010180088824001193060900015800139030120230000000296206023000000000077594443264XXXXXX9064       VS11    0001111   NYV1 A E383060741569551N84000000000296264B200    05DNHAPPY HIPPIE             023110    VD84000000002962 N  549976487158                            000000000+                F DF 10433                     000000000  Y000000000 338   0000000000000.00 0000000.00   0000000.00                             000000000000000                                                                                                                                                     01418 A000000000000 0000000000000.23     00050 02200                  
02865710023800041DT67590675900000002881800888800000010180088824001193060900015800147030120230000000995406023000000000077594459954XXXXXX3488       VS11    0001111   NYV1 A E303060781787179N8400000000099547XPW00    05DNHAPPY HIPPIE             H64282    VD84000000009954 N  549976487158                            000000000+                F DF 10433                     000000000  Y000000000 338   0000000000000.00 0000000.00   0000000.00                             000000000000000                                                                                                                                                     01418 A000000000000 0000000000000.27     00050 02200                  
02865720023800042DT67590675900000002881800888800000010180088824001193060900015800154030120230000000562906023000000000077594415978XXXXXX9559       VS11    0001111   NYV1 A E463060788614824N840000000005629G44K00    05DNHAPPY HIPPIE             003058    VD84000000005629 N  549976487158                            000000000+                F DF 10433                     000000000  Y000000000 338   0000000000000.00 0000000.00   0000000.00                             000000000000000                                                                                                                                                     01418 A000000000000 0000000000000.25     00050 02200                  
02865730023800043DT67590675900000002881800888800000010180088824001193060900015800162030120230000000548806023000000000077594480639XXXXXX8686       VS11    0001111   NYV1 A E463060805321050N8400000000054884QNF00    05DNHAPPY HIPPIE             530577    VD84000000005488 N  549976487158                            000000000+                F DF 00381                     000000000  N000000000       0000000000000.00 0000000.00   0000000.00                             000000000000000                                                                                                                                                     01418 A000000000000 0000000000000.59     00800 01500                  
02865740023800044DT67590675900000002881800888800000010180088824001193060900015800170030120230000000493806023000000000077594422921XXXXXX2741       VS11    0001111   NYV1 A E303060806536253N840000000004938RN6C00    05DNHAPPY HIPPIE             062654    VD84000000004938 N  549976487158                            000000000+                F DF 00381                     000000000  N000000000       0000000000000.00 0000000.00   0000000.00                             000000000000000                                                                                                                                                     01418 A000000000000 0000000000000.55     00800 01500                  
02865750023800045DT67590675900000002881800888800000010180088824001193060900015800188030120230000000225806023000000000077594443238XXXXXX0990       VS11    0001111   NYV1 A E303060823912367N8400000000022584DDJ00    05DNHAPPY HIPPIE             075311    VD84000000002258 N  549976487158                            000000000+                F DF 00381                     000000000  N000000000       0000000000000.00 0000000.00   0000000.00                             000000000000000                                                                                                                                                     01418 A000000000000 0000000000000.33     00800 01500                  
02865760023800046DT67590675900000002881800888800000010180088824001193060900015800196030120230000000097606023000000000077594480639XXXXXX1976       VK04VS111111111   NYV1 A E383060825501386N840000000000976MBCF00    05DNHAPPY HIPPIE             531611    VD84000000000976 N  549976487158                            000000000+                F DF 00451                     000000000  N000000000 214   0000000000000.00 0000000.00   0000000.00                             000000000000000                                                                                                                                                     01418 F000000000000 0000000000000.19     01550 00400                  
02865770023800047BH6759067590000000833480010180000090170301202306023000000000235411    0000090001210059N8001016759C03022023                                                                                                                                                                                                                                                                                                                                                                                                                                                                                                                                                                                                 
02865780023800048DT67590675900000008334800101800000010180010124001193060900012100012030120230000000235306023000000000235411473703XXXXXX4095       VS11    0001111   NYV1 A E583060546385361N840000000002353DBM700    05DNPLANET VAPOR #400        041585    VD84000000002353 N  599976779447                            000000000+                F DF 10433                     000000000  Y000000000 338   0000000000000.00 0000000.00   0000000.00                             000000000000000                                                                                                                                                     01418 A000000000000 0000000000000.23     00050 02200                  
02865790023800049DT67590675900000008334800101800000010180010124001193060900012100020030120230000000246006023000000000235411473703XXXXXX8522       VS11    0001111   NYV1 A E383060548844173N8400000000024606TPM00    05DNPLANET VAPOR #400        076415    VD84000000002460 N  599976779447                            000000000+                F DF 10433                     000000000  Y000000000 338   0000000000000.00 0000000.00   0000000.00                             000000000000000                                                                                                                                                     01418 A000000000000 0000000000000.23     00050 02200                  
02865800023800050DT67590675900000008334800101800000010180010177287283060900012100030030120230000000192506023000000000235411523957XXXXXX3308       MS02WI09          NY 1 0 AMDJNT20HG0301  N840000000001925          05DNPLANET VAPOR #400        454780    MD84000000001925 N  599976779447                            000000000+M10101C5434C    MDJ  00402                     000000000  N                0000000000000.00 0000000.00   0000000.00                             000000000000000                                                                                                                                                   B101418  000000000000 0000000000000.35     01050 01500                  
02865810023800051DT67590675900000008334800101800000010180010177287283060900012100048030120230000000385006023000000000235411514759XXXXXX7130       MS02WI09          NY 1 0 AMDJLD90ST0301  N840000000003850          05DNPLANET VAPOR #400        092918    MD84000000003850 N  599976779447                            000000000+M10101C5434C    MDJ  10815                     000000000  1                0000000000000.00 0000000.00   0000000.00                             000000000000000                                                                                                                                                   B101418  000000000000 0000000000000.24     00050 02200                  
02865820023800052DT67590675900000008334800101800000010180010124001193060900012100053030120230000000641706023000000000235411466189XXXXXX0459       VS11    0001111   NYV1 A E303060564944828N840000000006417R5XP00    05DNPLANET VAPOR #400        023565    VD84000000006417 N  599976779447                            000000000+                F DF 10433                     000000000  Y000000000 338   0000000000000.00 0000000.00   0000000.00                             000000000000000                                                                                                                                                     01418 A000000000000 0000000000000.25     00050 02200                  
02865830023800053DT67590675900000008334800101800000010180010124001193060900012100061030120230000000250306023000000000235411461675XXXXXX6826       VS11    0001111   NYV1 A E303060574849900N84000000000250365D900    05DNPLANET VAPOR #400        981040    VD84000000002503 N  599976779447                            000000000+                F DF 00381                     000000000  N000000000       0000000000000.00 0000000.00   0000000.00                             000000000000000                                                                                                                                                     01418 A000000000000 0000000000000.35     00800 01500                  
02865840023800054DT67590675900000008334800101800000010180010124001193060900012100079030120230000000167406023000000000235411474474XXXXXX4448       VS11    0001111   NYV1 A E303060621593549N840000000001674S4R700    05DNPLANET VAPOR #400        121855    VD84000000001674 N  599976779447                            000000000+                F DF 10433                     000000000  Y000000000 338   0000000000000.00 0000000.00   0000000.00                             000000000000000                                                                                                                                                     01418 A000000000000 0000000000000.23     00050 02200                  
02865850023800055DT67590675900000008334800101800000010180010177287283060900012100089030120230000000278106023000000000235411552433XXXXXX7042       MS02WI09          NY 1 0 AMPLMK5VSK0301  N840000000002781          05DNPLANET VAPOR #400        08416M    MC84000000002781 N  599976779447                            000000000+M10101C5434C    MPL  00353                     000000000  N                0000000000000.00 0000000.00   0000000.00                             000000000000000                                                                                                                                                   B101418  000000000000 0000000000000.60     01800 01000                  
02865860023800056DT67590675900000008334800101800000010180010177287283060900012100097030120230000000278106023000000000235411531258XXXXXX4602       MS02WI09          NY 1 0 AMDJOI8NST0301  N840000000002781          05DNPLANET VAPOR #400        122723    MD84000000002781 N  599976779447                            000000000+M10101C5434C    MDJ  10815                     000000000  1                0000000000000.00 0000000.00   0000000.00                             000000000000000                                                                                                                                                   B101418  000000000000 0000000000000.23     00050 02200                  
02865870023800057DT67590675900000008334800101800000010180010124001193060900012100103030120230000000213906023000000000235411430602XXXXXX9815       VS11    0001111   NYV1 A E583060635919685N84000000000213996P800    05DNPLANET VAPOR #400        818971    VD84000000002139 N  599976779447                            000000000+                F DF 00381                     000000000  N000000000       0000000000000.00 0000000.00   0000000.00                             000000000000000                                                                                                                                                     01418 A000000000000 0000000000000.32     00800 01500                  
02865880023800058DT67590675900000008334800101800000010180010177287283060900012100113030120230000000673806023000000000235411528149XXXXXX7056       MS02WI09          NY 1 0 AMDJH5DYHO0301  N840000000006738          05DNPLANET VAPOR #400        045726    MD84000000006738 N  599976779447                            000000000+M10101C5434C    MDJ  00402                     000000000  N                0000000000000.00 0000000.00   0000000.00                             000000000000000                                                                                                                                                   B101418  000000000000 0000000000000.86     01050 01500                  
02865890023800059DT67590675900000008334800101800000010180010124001193060900012100129030120230000000058806023000000000235411400022XXXXXX9452       VK04VS111111111   NYV1 A E383060640748719N840000000000588GZST00    05DNPLANET VAPOR #400        756042    VD84000000000588 N  599976779447                            000000000+                F DF 10439                     000000000  Y000000000 331   0000000000000.00 0000000.00   0000000.00                             000000000000000                                                                                                                                                     01418 F000000000000 0000000000000.22     00050 02200                  
02865900023800060DT67590675900000008334800101800000010180010124001193060900012100137030120230000000235306023000000000235411448968XXXXXX1759       VS11    0001111   NYV1 A E303060642243696N8400000000023538BFK00    07DNPLANET VAPOR #400        821142    VD84000000002353 N  599976779447                            000000000+                F DF 00381                     000000000  N000000000       0000000000000.00 0000000.00   0000000.00                             000000000000000                                                                                                                                                     01418 A000000000000 0000000000000.34     00800 01500                  
02865910023800061DT67590675900000008334800101800000010180010124001193060900012100145030120230000000235306023000000000235411440393XXXXXX1687       VS11    0001111   NYV1 A E383060642811685N840000000002353KW8Z00    05DNPLANET VAPOR #400        401394    VD84000000002353 N  599976779447                            000000000+                F PF 08170                     000000000  N000000000       0000000000000.00 0000000.00   0000000.00                             000000000000000                                                                                                                                                     01418 A000000000000 0000000000000.42     01150 01500                  
02865920023800062DT67590675900000008334800101800000010180010124001193060900012100152030120230000000642106023000000000235411427178XXXXXX1974       VS11    0001111   NYV1 A E303060643703773N8400000000064212LQ700    05DNPLANET VAPOR #400        018096    VD84000000006421 N  599976779447                            000000000+                F DF 10433                     000000000  Y000000000 338   0000000000000.00 0000000.00   0000000.00                             000000000000000                                                                                                                                                     01418 A000000000000 0000000000000.25     00050 02200                  
02865930023800063DT67590675900000008334800101800000010180010124001193060900012100160030120230000000310106023000000000235411463405XXXXXX9600       VS11    0001111   NYV1 A E463060645964089N84000000000310178MW00    05DNPLANET VAPOR #400        055907    VD84000000003101 N  599976779447                            000000000+                F DF 10433                     000000000  Y000000000 338   0000000000000.00 0000000.00   0000000.00                             000000000000000                                                                                                                                                     01418 A000000000000 0000000000000.24     00050 02200                  
02865940023800064DT67590675900000008334800101800000010180010124001193060900012100178030120230000001390806023000000000235411463405XXXXXX9600       VS11    0001111   NYV1 A E463060647082680N8400000000139087FPR00    05DNPLANET VAPOR #400        082646    VD84000000013908 N  599976779447                            000000000+                F DF 10433                     000000000  Y000000000 338   0000000000000.00 0000000.00   0000000.00                             000000000000000                                                                                                                                                     01418 A000000000000 0000000000000.29     00050 02200                  
02865950023800065DT67590675900000008334800101800000010180010124001193060900012100186030120230000000267406023000000000235411438419XXXXXX8527       VS11    0001111   NYV1 A E583060648015429N8400000000026743CTW00    05DNPLANET VAPOR #400        030001    VD84000000002674 N  599976779447                            000000000+                F DF 00381                     000000000  N000000000       0000000000000.00 0000000.00   0000000.00                             000000000000000                                                                                                                                                     01418 A000000000000 0000000000000.36     00800 01500                  
02865960023800066DT67590675900000008334800101800000010180010176509753060900012100192030120230000000534906023000000000235411601100XXXXXX1780   BA50                  NY41 0 N873051448324797N840000000005349    00    05DNPLANET VAPOR #400        00173R    DS84000000005349 N  599976779447050                         000000000+0000004910H00   DCCDI01000166268  130712000000 000000000  0          112   0000000000000.00 0000000.00   0000000.00                             000000000000000                                                                                                                                                     01418  000000000000 0000000000001.02     01720 01000                  
02865970023800067DT67590675900000008334800101800000010180010177287283060900012100204030120230000000235306023000000000235411523079XXXXXX4087       MS02WI09          NY 1 0 AMPLP1R6ST0301  N840000000002353          05DNPLANET VAPOR #400        001528    MC84000000002353 N  599976779447                            000000000+M10101C5434C    MPL  00015                     000000000  N                0000000000000.00 0000000.00   0000000.00                             000000000000000                                                                                                                                                   B101418  000000000000 0000000000000.49     01650 01000                  
02865980023800068DT67590675900000008334800101800000010180010124001193060900012100210030120230000000149506023000000000235411430602XXXXXX9098       VK04VS111111111   NYV1 A E383060657889794N8400000000014958V8F00    05DNPLANET VAPOR #400        825588    VD84000000001495 N  599976779447                            000000000+                F DF 00451                     000000000  N000000000 214   0000000000000.00 0000000.00   0000000.00                             000000000000000                                                                                                                                                     01418 F000000000000 0000000000000.27     01550 00400                  
02865990023800069DT67590675900000008334800101800000010180010124001193060900012100228030120230000000240606023000000000235411443057XXXXXX4477       VS11    0001111   NYV1 A E303060664517815N840000000002406T3PK00    05DNPLANET VAPOR #400        252529    VD84000000002406 N  599976779447                            000000000+                F DF 10433                     000000000  Y000000000 338   0000000000000.00 0000000.00   0000000.00                             000000000000000                                                                                                                                                     01418 A000000000000 0000000000000.23     00050 02200                  
02866000023800070DT67590675900000008334800101800000010180010124001193060900012100236030120230000000641706023000000000235411430602XXXXXX6050       VS11    0001111   NYV1 A E383060665752989N840000000006417F5RS00    05DNPLANET VAPOR #400        827524    VD84000000006417 N  599976779447                            000000000+                F DF 00381                     000000000  N000000000       0000000000000.00 0000000.00   0000000.00                             000000000000000                                                                                                                                                     01418 A000000000000 0000000000000.66     00800 01500                  
02866010023800071DT67590675900000008334800101800000010180010124001193060900012100244030120230000000663106023000000000235411461675XXXXXX9221       VS11    0001111   NYV1 A E303060667228613N840000000006631FPVV00    05DNPLANET VAPOR #400        094180    VD84000000006631 N  599976779447                            000000000+                F DF 00381                     000000000  N000000000       0000000000000.00 0000000.00   0000000.00                             000000000000000                                                                                                                                                     01418 A000000000000 0000000000000.68     00800 01500                  
02866020023800072DT67590675900000008334800101800000010180010124001193060900012100251030120230000000267406023000000000235411461675XXXXXX9221       VS11    0001111   NYV1 A E303060668417424N840000000002674XXX400    05DNPLANET VAPOR #400        095430    VD84000000002674 N  599976779447                            000000000+                F DF 00381                     000000000  N000000000       0000000000000.00 0000000.00   0000000.00                             000000000000000                                                                                                                                                     01418 A000000000000 0000000000000.36     00800 01500                  
02866030023800073DT67590675900000008334800101800000010180010124001193060900012100269030120230000000278106023000000000235411438419XXXXXX9347       VS11    0001111   NYV1 A E463060668972707N840000000002781V4DG00    05DNPLANET VAPOR #400        033457    VD84000000002781 N  599976779447                            000000000+                F DF 00381                     000000000  N000000000       0000000000000.00 0000000.00   0000000.00                             000000000000000                                                                                                                                                     01418 A000000000000 0000000000000.37     00800 01500                  
02866040023800074DT67590675900000008334800101800000010180010124001193060900012100277030120230000000278106023000000000235411473703XXXXXX6514       VS11    0001111   NYV1 A E463060678755083N84000000000278172RV00    05DNPLANET VAPOR #400        093615    VD84000000002781 N  599976779447                            000000000+                F DF 10433                     000000000  Y000000000 338   0000000000000.00 0000000.00   0000000.00                             000000000000000                                                                                                                                                     01418 A000000000000 0000000000000.23     00050 02200                  
02866050023800075DT67590675900000008334800101800000010180010124001193060900012100285030120230000000187106023000000000235411438419XXXXXX6142       VS11    0001111   NYV1 A E383060682087532N8400000000018713FZ200    05DNPLANET VAPOR #400        035648    VD84000000001871 N  599976779447                            000000000+                F DF 00381                     000000000  N000000000       0000000000000.00 0000000.00   0000000.00                             000000000000000                                                                                                                                                     01418 A000000000000 0000000000000.30     00800 01500                  
02866060023800076DT67590675900000008334800101800000010180010124001193060900012100293030120230000000211806023000000000235411474474XXXXXX5046       VS11    0001111   NYV1 A E383060684303512N8400000000021188HNT00    05DNPLANET VAPOR #400        120505    VD84000000002118 N  599976779447                            000000000+                F DF 10433                     000000000  Y000000000 338   0000000000000.00 0000000.00   0000000.00                             000000000000000                                                                                                                                                     01418 A000000000000 0000000000000.23     00050 02200                  
02866070023800077DT67590675900000008334800101800000010180010124001193060900012100301030120230000000235306023000000000235411423382XXXXXX1125       VS11    0001111   NYV1 A E303060685728055N8400000000023539FP300    07DNPLANET VAPOR #400        073748    VD84000000002353 N  599976779447                            000000000+                F DF 10433                     000000000  Y000000000 338   0000000000000.00 0000000.00   0000000.00                             000000000000000                                                                                                                                                     01418 A000000000000 0000000000000.23     00050 02200                  
02866080023800078DT67590675900000008334800101800000010180010173011003060900012100315030120230000000081406023000000000235411379260XXXXX2000                          NY 1 0 N004491688427308N840000000000814          05DNPLANET VAPOR #400        801588    AM84000000000814 N  599976779447                            000000000+51010155434C 258     11261                     000000000                   0000000000000.00 0000000.00   0000000.00                             000000000000000 61248972086759675900000008334 PLANET VAPOR #400        912 SOUTH LAKE DR        8035462263      29072     KEVIN@MOOREDISTRO.COM                     01418  000000000000 0000000000000.23     01600 00000                  
02866090023800079DT67590675900000008334800101800000010180010124001193060900012100327030120230000000320806023000000000235411427199XXXXXX9513       VS11    0001111   NYV1 A E463060696337907N840000000003208CTQN00    05DNPLANET VAPOR #400        329721    VD84000000003208 N  599976779447                            000000000+                F DF 00381                     000000000  N000000000       0000000000000.00 0000000.00   0000000.00                             000000000000000                                                                                                                                                     01418 A000000000000 0000000000000.41     00800 01500                  
02866100023800080DT67590675900000008334800101800000010180010177287283060900012100337030120230000000556206023000000000235411512230XXXXXX4145       MS02WI09          NY 1 0 AMWEDE9BW50301  N840000000005562          05DNPLANET VAPOR #400        40135Z    MC84000000005562 N  599976779447                            000000000+M10101C0034C    MWE  00739                     000000000  N                0000000000000.00 0000000.00   0000000.00                             000000000000000                                                                                                                                                   B101418  000000000000 0000000000001.38     02300 01000                  
02866110023800081DT67590675900000008334800101800000010180010124001193060900012100343030120230000001818506023000000000235411448261XXXXXX8782       VS11    0001111   NYV1 A E463060706260303N8400000000181852CM800    05DNPLANET VAPOR #400        332283    VD84000000018185 N  599976779447                            000000000+                F DF 10433                     000000000  Y000000000 338   0000000000000.00 0000000.00   0000000.00                             000000000000000                                                                                                                                                     01418 A000000000000 0000000000000.31     00050 02200                  
02866120023800082DT67590675900000008334800101800000010180010124001193060900012100350030120230000000171106023000000000235411427082XXXXXX9605       VS11    0001111   NYV1 A E463060712200773N840000000001711Z2TT00    05DNPLANET VAPOR #400        001676    VS84000000001711 N  599976779447                            000000000+                D CD 12113                     000000000  N000000000 499   0000000000000.00 0000000.00   0000000.00                             000000000000000                                                                                                                                                     01418 A000000000000 0000000000000.46     02100 01000                  
02866130023800083DT67590675900000008334800101800000010180010124001193060900012100368030120230000000288706023000000000235411403623XXXXXX4094       VS11    0001111   NYV1 A E463060713899755N8400000000028877FBV00    05DNPLANET VAPOR #400        034210    VD84000000002887 N  599976779447                            000000000+                G DG 10351                     000000000  Y000000000 338   0000000000000.00 0000000.00   0000000.00                             000000000000000                                                                                                                                                     01418 A000000000000 0000000000000.23     00050 02200                  
02866140023800084DT67590675900000008334800101800000010180010124001193060900012100376030120230000000374406023000000000235411415967XXXXXX8052       VS11    0001111   NYV1 A E303060714995141N8400000000037445HQR00    05DNPLANET VAPOR #400        302983    VD84000000003744 N  599976779447                            000000000+                F DF 00381                     000000000  N000000000       0000000000000.00 0000000.00   0000000.00                             000000000000000                                                                                                                                                     01418 A000000000000 0000000000000.45     00800 01500                  
02866150023800085DT67590675900000008334800101800000010180010124001193060900012100384030120230000000336906023000000000235411435640XXXXXX7370       VS11    0001111   NYV1 A E303060729610273N8400000000033699KPP00    05DNPLANET VAPOR #400        131060    VD84000000003369 N  599976779447                            000000000+                F DF 10433                     000000000  Y000000000 338   0000000000000.00 0000000.00   0000000.00                             000000000000000                                                                                                                                                     01418 A000000000000 0000000000000.24     00050 02200                  
02866160023800086DT67590675900000008334800101800000010180010124001193060900012100392030120230000000160406023000000000235411435640XXXXXX7370       VS11    0001111   NYV1 A E463060730455096N840000000001604J2LB00    05DNPLANET VAPOR #400        121979    VD84000000001604 N  599976779447                            000000000+                F DF 10433                     000000000  Y000000000 338   0000000000000.00 0000000.00   0000000.00                             000000000000000                                                                                                                                                     01418 A000000000000 0000000000000.23     00050 02200                  
02866170023800087DT67590675900000008334800101800000010180010124001193060900012100400030120230000000256506023000000000235411438419XXXXXX8693       VS11    0001111   NYV1 A E383060743165892N840000000002565XQZW00    05DNPLANET VAPOR #400        053836    VD84000000002565 N  599976779447                            000000000+                F DF 00381                     000000000  N000000000       0000000000000.00 0000000.00   0000000.00                             000000000000000                                                                                                                                                     01418 A000000000000 0000000000000.36     00800 01500                  
02866180023800088DT67590675900000008334800101800000010180010124001193060900012100418030120230000000240606023000000000235411459954XXXXXX1570       VS11    0001111   NYV1 A E383060765337615N840000000002406XJ9B00    05DNPLANET VAPOR #400        H54002    VD84000000002406 N  599976779447                            000000000+                F DF 10433                     000000000  Y000000000 338   0000000000000.00 0000000.00   0000000.00                             000000000000000                                                                                                                                                     01418 A000000000000 0000000000000.23     00050 02200                  
02866190023800089DT67590675900000008334800101800000010180010124001193060900012100426030120230000000059106023000000000235411465992XXXXXX5638       VK04VS111111111   NYV1 A E303060775586908N840000000000591S7K300    07DNPLANET VAPOR #400        474239    VD84000000000591 N  599976779447                            000000000+                F DF 00451                     000000000  N000000000 214   0000000000000.00 0000000.00   0000000.00                             000000000000000                                                                                                                                                     01418 F000000000000 0000000000000.13     01550 00400                  
02866200023800090DT67590675900000008334800101800000010180010124001193060900012100434030120230000000278106023000000000235411440393XXXXXX2880       VS11    0001111   NYV1 A E583060776952843N840000000002781MXF400    05DNPLANET VAPOR #400        447952    VD84000000002781 N  599976779447                            000000000+                F PF 08170                     000000000  N000000000       0000000000000.00 0000000.00   0000000.00                             000000000000000                                                                                                                                                     01418 A000000000000 0000000000000.47     01150 01500                  
02866210023800091DT67590675900000008334800101800000010180010124001193060900012100442030120230000000374406023000000000235411447931XXXXXX6629       VS11    0001111   NYV1 A E463060786254415N8400000000037446FLF00    07DNPLANET VAPOR #400        097763    VD84000000003744 N  599976779447                            000000000+                F DF 00381                     000000000  N000000000       0000000000000.00 0000000.00   0000000.00                             000000000000000                                                                                                                                                     01418 A000000000000 0000000000000.45     00800 01500                  
02866220023800092DT67590675900000008334800101800000010180010124001193060900012100459030120230000000235306023000000000235411470793XXXXXX6447       VS11    0001111   NYV1 A E383060790192879N840000000002353WZTF00    05DNPLANET VAPOR #400        001846    VS84000000002353 N  599976779447                            000000000+                B CB 12111                     000000000  N000000000 495   0000000000000.00 0000000.00   0000000.00                             000000000000000                                                                                                                                                     01418 A000000000000 0000000000000.49     01650 01000                  
02866230023800093DT67590675900000008334800101800000010180010176509753060900012100465030120230000000267406023000000000235411601100XXXXXX4674   BA50                  NY41 0 N873051602290220N840000000002674    00    05DNPLANET VAPOR #400        00128R    DS84000000002674 N  599976779447050                         000000000+0000004910H00   DCCDI01000834264  172349000000 000000000  0          112   0000000000000.00 0000000.00   0000000.00                             000000000000000                                                                                                                                                     01418  000000000000 0000000000000.56     01720 01000                  
02866240023800094DT67590675900000008334800101800000010180010124001193060900012100475030120230000000374406023000000000235411466189XXXXXX6007       VS11    0001111   NYV1 A E583060815480442N840000000003744G6JK00    05DNPLANET VAPOR #400        050463    VD84000000003744 N  599976779447                            000000000+                F DF 10433                     000000000  Y000000000 338   0000000000000.00 0000000.00   0000000.00                             000000000000000                                                                                                                                                     01418 A000000000000 0000000000000.24     00050 02200                  
02866250023800095DT67590675900000008334800101800000010180010124001193060900012100483030120230000000235306023000000000235411448968XXXXXX5132       VS11    0001111   NYV1 A E583060833266178N840000000002353WNX900    07DNPLANET VAPOR #400        881559    VD84000000002353 N  599976779447                            000000000+                F DF 00381                     000000000  N000000000       0000000000000.00 0000000.00   0000000.00                             000000000000000                                                                                                                                                     01418 A000000000000 0000000000000.34     00800 01500                  
02866260023800096DT67590675900000008334800101800000010180010177287283060900012100493030120230000000802206023000000000235411522355XXXXXX7508       MS02WI09          NY 1 0 AMWEI9ZFL60301  N840000000008022          07DNPLANET VAPOR #400        78334Z    MC84000000008022 N  599976779447                            000000000+M10101M1134C    MWE  00739                     000000000  N                0000000000000.00 0000000.00   0000000.00                             000000000000000                                                                                                                                                   A101418  000000000000 0000000000001.95     02300 01000                  
02866270023800097DT67590675900000008334800101800000010180010176509753060900012100507030120230000000167406023000000000235411650484XXXXXX3685   BA80                  NY41 0 N813051643847162N840000000001674    00    07DNPLANET VAPOR #400        00136B    DZ84000000001674 N  599976779447830                         000000000+0000004910H00   DMCDI01012336295  183304000000 000000000  0          124   0000000000000.00 0000000.00   0000000.00                             000000000000000                                                                                                                                                     01418  000000000000 0000000000000.56     02450 01500                  
02866280023800098DT67590675900000008334800101800000010180010177287283060900012100519030120230000000911706023000000000235411524369XXXXXX9092       MS02WI09          NY 1 0 AMDJD8SVL30301  N840000000009117          05DNPLANET VAPOR #400        073723    MD84000000009117 N  599976779447                            000000000+M10101C5434C    MDJ  00402                     000000000  N                0000000000000.00 0000000.00   0000000.00                             000000000000000                                                                                                                                                   B101418  000000000000 0000000000001.11     01050 01500                  
02866290023800099DT67590675900000008334800101800000010180010124001193060900012100525030120230000000696406023000000000235411463405XXXXXX3000       VS11    0001111   NYV1 A E303060851818228N840000000006964FLVX00    05DNPLANET VAPOR #400        006021    VD84000000006964 N  599976779447                            000000000+                F DF 10433                     000000000  Y000000000 338   0000000000000.00 0000000.00   0000000.00                             000000000000000                                                                                                                                                     01418 A000000000000 0000000000000.25     00050 02200                  
02866300023800100DT67590675900000008334800101800000010180010124001193060900012100533030120230000000748906023000000000235411461675XXXXXX6641       VS11    0001111   NYV1 A E383060852630462N840000000007489DLR300    05DNPLANET VAPOR #400        314230    VD84000000007489 N  599976779447                            000000000+                F DF 00381                     000000000  N000000000       0000000000000.00 0000000.00   0000000.00                             000000000000000                                                                                                                                                     01418 A000000000000 0000000000000.75     00800 01500                  
02866310023800101DT67590675900000008334800101800000010180010177287283060900012100543030120230000000267406023000000000235411531258XXXXXX4478       MS02WI09          NY 1 0 AMDJKCPVW50301  N840000000002674          05DNPLANET VAPOR #400        124465    MD84000000002674 N  599976779447                            000000000+M10101C5434C    MDJ  10815                     000000000  1                0000000000000.00 0000000.00   0000000.00                             000000000000000                                                                                                                                                   B101418  000000000000 0000000000000.23     00050 02200                  
02866320023800102DT67590675900000008334800101800000010180010177287283060900012100550030120230000000492006023000000000235411551772XXXXXX2248       MS02WI09          NY 1 0 AMDSEXEML30301  N840000000004920          05DNPLANET VAPOR #400        199064    MD84000000004920 N  599976779447                            000000000+M10101C5434C    MDS  00402                     000000000  N                0000000000000.00 0000000.00   0000000.00                             000000000000000                                                                                                                                                   B101418  000000000000 0000000000000.67     01050 01500                  
02866330023800103DT67590675900000008334800101800000010180010124001193060900012100566030120230000000320806023000000000235411461675XXXXXX4670       VS11    0001111   NYV1 A E463061003238556N840000000003208GLNL00    05DNPLANET VAPOR #400        330610    VD84000000003208 N  599976779447                            000000000+                F DF 00381                     000000000  N000000000       0000000000000.00 0000000.00   0000000.00                             000000000000000                                                                                                                                                     01418 A000000000000 0000000000000.41     00800 01500                  
02866340023800104DT67590675900000008334800101800000010180010124001193060900012100574030120230000001288806023000000000235411435546XXXXXX6443       VS11    0001111   NYV1 A E463061008709057N8400000000128884G6H00    05DNPLANET VAPOR #400        070102    VD84000000012888 N  599976779447                            000000000+                F DF 10433                     000000000  Y000000000 338   0000000000000.00 0000000.00   0000000.00                             000000000000000                                                                                                                                                     01418 A000000000000 0000000000000.28     00050 02200                  
02866350023800105DT67590675900000008334800101800000010180010124001193060900012100582030120230000000449006023000000000235411423223XXXXXX6095       VS11    0001111   NYV1 A E583061012973580N840000000004490LVMJ00    05DNPLANET VAPOR #400        073868    VD84000000004490 N  599976779447                            000000000+                F DF 00381                     000000000  N000000000       0000000000000.00 0000000.00   0000000.00                             000000000000000                                                                                                                                                     01418 A000000000000 0000000000000.51     00800 01500                  
02866360023800106DT67590675900000008334800101800000010180010124001193060900012100590030120230000000342206023000000000235411466189XXXXXX2989       VS11    0001111   NYV1 A E303061031340333N840000000003422D4T600    05DNPLANET VAPOR #400        017295    VD84000000003422 N  599976779447                            000000000+                F DF 10433                     000000000  Y000000000 338   0000000000000.00 0000000.00   0000000.00                             000000000000000                                                                                                                                                     01418 A000000000000 0000000000000.24     00050 02200                  
02866370023800107BH6759067590000000561180088880000090170301202306023000000000008989    0000090001226152N8008886759C03022023                                                                                                                                                                                                                                                                                                                                                                                                                                                                                                                                                                                                 
02866380023800108DT67590675900000005611800888800000010180088873011003060900012261521030120230000000898906023000000000008989379829XXXXX1005                          NY 4 07N004492637779302N840000000008989          01DNK DIVINE                 229120    AM84000000008989 N  549971004114                            000000000+6004S0S00140 258     11262                     000000000                   0000000000000.00 0000000.00   0000000.00                             000000000000000 61248972086759675900000005611 K DIVINE                 43798 MCKENZIE HWY       5036897182      97489     KRATOMDIVINE@GMAIL.COM                    01418  000000000000 0000000000001.85     01950 00000                  
02866390023800109BH6759067590000000708880010180000090170301202306023000000000114068    0000090001210035N8001016759C03022023                                                                                                                                                                                                                                                                                                                                                                                                                                                                                                                                                                                                 
02866400023800110DT67590675900000007088800101800000010180010124001193060900012100012030120230000000485906023000000000114068453506XXXXXX6092       VS11    0001111   NYV1 A E383060537549754N840000000004859P88G00    05DNPLANET VAPOR #200        H90462    VD84000000004859 N  599976770268                            000000000+                F DF 10433                     000000000  Y000000000 338   0000000000000.00 0000000.00   0000000.00                             000000000000000                                                                                                                                                     01418 A000000000000 0000000000000.24     00050 02200                  
02866410023800111DT67590675900000007088800101800000010180010177287283060900012100022030120230000000134906023000000000114068514230XXXXXX6945       MS02WI09          NY 1 0 AMDJL21WST0301  N840000000001349          05DNPLANET VAPOR #200        FEE122    MD84000000001349 N  599976770268                            000000000+M10101C5434C    MDJ  00402                     000000000  N                0000000000000.00 0000000.00   0000000.00                             000000000000000                                                                                                                                                   B101418  000000000000 0000000000000.29     01050 01500                  
02866420023800112DT67590675900000007088800101800000010180010124001193060900012100038030120230000000151106023000000000114068440393XXXXXX9118       VS11    0001111   NYV1 A E303060582284590N8400000000015112BQQ00    05DNPLANET VAPOR #200        606758    VD84000000001511 N  599976770268                            000000000+                F PF 08170                     000000000  N000000000       0000000000000.00 0000000.00   0000000.00                             000000000000000                                                                                                                                                     01418 A000000000000 0000000000000.32     01150 01500                  
02866430023800113DT67590675900000007088800101800000010180010124001193060900012100046030120230000000215906023000000000114068400022XXXXXX0816       VS11    0001111   NYV1 A E383060585210309N840000000002159TWM500    05DNPLANET VAPOR #200        506751    VD84000000002159 N  599976770268                            000000000+                F DF 10433                     000000000  Y000000000 338   0000000000000.00 0000000.00   0000000.00                             000000000000000                                                                                                                                                     01418 A000000000000 0000000000000.23     00050 02200                  
02866440023800114DT67590675900000007088800101800000010180010177287283060900012100055030120230000000518206023000000000114068514616XXXXXX5971       MS02WI09          NY 1 0 AMDJKTGJSK0301  N840000000005182          05DNPLANET VAPOR #200        BFD201    MD84000000005182 N  599976770268                            000000000+M10101C5434C    MDJ  00402                     000000000  N                0000000000000.00 0000000.00   0000000.00                             000000000000000                                                                                                                                                   B101418  000000000000 0000000000000.69     01050 01500                  
02866450023800115DT67590675900000007088800101800000010180010124001193060900012100061030120230000000475006023000000000114068448915XXXXXX6239       VS11    0001111   NYV1 A E303060592691594N840000000004750NG9P00    05DNPLANET VAPOR #200        001127    VS84000000004750 N  599976770268                            000000000+                D CD 12113                     000000000  N000000000 499   0000000000000.00 0000000.00   0000000.00                             000000000000000                                                                                                                                                     01418 A000000000000 0000000000001.10     02100 01000                  
02866460023800116DT67590675900000007088800101800000010180010124001193060900012100079030120230000000237506023000000000114068414740XXXXXX5757       VS11    0001111   NYV1 A E383060605041927N8400000000023759TM200    05DNPLANET VAPOR #200        04734D    VS84000000002375 N  599976770268                            000000000+                D CD 12113                     000000000  N000000000 499   0000000000000.00 0000000.00   0000000.00                             000000000000000                                                                                                                                                     01418 A000000000000 0000000000000.60     02100 01000                  
02866470023800117DT67590675900000007088800101800000010180010124001193060900012100087030120230000000431606023000000000114068421783XXXXXX5423       VS11    0001111   NYV1 A E463060615483697N8400000000043168SQ400    05DNPLANET VAPOR #200        020765    VS84000000004316 N  599976770268                            000000000+                A CA 12110                     000000000  N000000000 493   0000000000000.00 0000000.00   0000000.00                             000000000000000                                                                                                                                                     01418 A000000000000 0000000000000.75     01510 01000                  
02866480023800118DT67590675900000007088800101800000010180010177287283060900012100097030120230000000075506023000000000114068510805XXXXXX8043       MS02WI09          NY 1 0 AMDJC57WST0301  N840000000000755          07DNPLANET VAPOR #200        010809    MD84000000000755 N  599976770268                            000000000+M10101M0034C    MDJ  10815                     000000000  1                0000000000000.00 0000000.00   0000000.00                             000000000000000                                                                                                                                                   B101418  000000000000 0000000000000.22     00050 02200                  
02866490023800119DT67590675900000007088800101800000010180010177287283060900012100105030120230000000213706023000000000114068510805XXXXXX8043       MS02WI09          NY 1 0 AMDJZ71OSK0301  N840000000002137          07DNPLANET VAPOR #200        010901    MD84000000002137 N  599976770268                            000000000+M10101M0034C    MDJ  10815                     000000000  1                0000000000000.00 0000000.00   0000000.00                             000000000000000                                                                                                                                                   B101418  000000000000 0000000000000.23     00050 02200                  
02866500023800120DT67590675900000007088800101800000010180010124001193060900012100111030120230000000242906023000000000114068473703XXXXXX8430       VS11    0001111   NYV1 A E383060619329383N840000000002429FLDL00    05DNPLANET VAPOR #200        050004    VD84000000002429 N  599976770268                            000000000+                F DF 10433                     000000000  Y000000000 338   0000000000000.00 0000000.00   0000000.00                             000000000000000                                                                                                                                                     01418 A000000000000 0000000000000.23     00050 02200                  
02866510023800121DT67590675900000007088800101800000010180010177287283060900012100121030120230000000572006023000000000114068529099XXXXXX1788       MS02WI09          NY 1 0 AMDJA26SSL0301  N840000000005720          05DNPLANET VAPOR #200        839191    MD84000000005720 N  599976770268                            000000000+M10101C5434C    MDJ  10815                     000000000  1                0000000000000.00 0000000.00   0000000.00                             000000000000000                                                                                                                                                   B101418  000000000000 0000000000000.25     00050 02200                  
02866520023800122DT67590675900000007088800101800000010180010124001193060900012100137030120230000000323806023000000000114068402944XXXXXX0757       VS11    0001111   NYV1 A E303060675315610N8400000000032387FZG00    05DNPLANET VAPOR #200        024531    VD84000000003238 N  599976770268                            000000000+                F DF 10433                     000000000  Y000000000 338   0000000000000.00 0000000.00   0000000.00                             000000000000000                                                                                                                                                     01418 A000000000000 0000000000000.24     00050 02200                  
02866530023800123DT67590675900000007088800101800000010180010124001193060900012100145030120230000000439906023000000000114068402944XXXXXX0757       VS11    0001111   NYV1 A E383060675911845N840000000004399X9T700    05DNPLANET VAPOR #200        024632    VD84000000004399 N  599976770268                            000000000+                F DF 10433                     000000000  Y000000000 338   0000000000000.00 0000000.00   0000000.00                             000000000000000                                                                                                                                                     01418 A000000000000 0000000000000.24     00050 02200                  
02866540023800124DT67590675900000007088800101800000010180010176509753060900012100150030120230000000340106023000000000114068601100XXXXXX8200   BA50                  NY41 0 N743051485198382N840000000003401    00    05DNPLANET VAPOR #200        00191R    DS84000000003401 N  599976770268050                         000000000+0000004910H00   DCCDI01000004232  140839000000 000000000  0          112   0000000000000.00 0000000.00   0000000.00                             000000000000000                                                                                                                                                     01418  000000000000 0000000000000.68     01720 01000                  
02866550023800125DT67590675900000007088800101800000010180010124001193060900012100160030120230000000485806023000000000114068459954XXXXXX7995       VS11    0001111   NYV1 A E463060704509387N8400000000048588HQ900    05DNPLANET VAPOR #200        H38358    VD84000000004858 N  599976770268                            000000000+                F DF 10433                     000000000  Y000000000 338   0000000000000.00 0000000.00   0000000.00                             000000000000000                                                                                                                                                     01418 A000000000000 0000000000000.24     00050 02200                  
02866560023800126DT67590675900000007088800101800000010180010124001193060900012100178030120230000000252606023000000000114068461675XXXXXX1868       VS11    0001111   NYV1 A E303060708121882N840000000002526RBXW00    05DNPLANET VAPOR #200        141400    VD84000000002526 N  599976770268                            000000000+                F DF 00381                     000000000  N000000000       0000000000000.00 0000000.00   0000000.00                             000000000000000                                                                                                                                                     01418 A000000000000 0000000000000.35     00800 01500                  
02866570023800127DT67590675900000007088800101800000010180010124001193060900012100186030120230000000213706023000000000114068400022XXXXXX2079       VS11    0001111   NYV1 A E383060721476284N840000000002137TKX600    05DNPLANET VAPOR #200        655966    VD84000000002137 N  599976770268                            000000000+                F DF 10433                     000000000  Y000000000 338   0000000000000.00 0000000.00   0000000.00                             000000000000000                                                                                                                                                     01418 A000000000000 0000000000000.23     00050 02200                  
02866580023800128DT67590675900000007088800101800000010180010124001193060900012100194030120230000000242906023000000000114068406095XXXXXX6132       VS11    0001111   NYV1 A E583060722018505N8400000000024296RFS00    05DNPLANET VAPOR #200        09637B    VS84000000002429 N  599976770268                            000000000+                B CB 12111                     000000000  N000000000 495   0000000000000.00 0000000.00   0000000.00                             000000000000000                                                                                                                                                     01418 A000000000000 0000000000000.50     01650 01000                  
02866590023800129DT67590675900000007088800101800000010180010124001193060900012100202030120230000000053906023000000000114068430602XXXXXX9863       VK04VS111111111   NYV1 A E303060725259108N840000000000539CXLM00    05DNPLANET VAPOR #200        847005    VD84000000000539 N  599976770268                            000000000+                F DF 00451                     000000000  N000000000 214   0000000000000.00 0000000.00   0000000.00                             000000000000000                                                                                                                                                     01418 F000000000000 0000000000000.12     01550 00400                  
02866600023800130DT67590675900000007088800101800000010180010124001193060900012100210030120230000000874606023000000000114068440393XXXXXX5186       VS11    0001111   NYV1 A E463060727222947N8400000000087468NSV00    05DNPLANET VAPOR #200        190816    VD84000000008746 N  599976770268                            000000000+                F PF 08170                     000000000  N000000000       0000000000000.00 0000000.00   0000000.00                             000000000000000                                                                                                                                                     01418 A000000000000 0000000000001.16     01150 01500                  
02866610023800131DT67590675900000007088800101800000010180010124001193060900012100228030120230000000323806023000000000114068473703XXXXXX2615       VS11    0001111   NYV1 A E463060731552532N840000000003238S3QH00    05DNPLANET VAPOR #200        018029    VD84000000003238 N  599976770268                            000000000+                F DF 10433                     000000000  Y000000000 338   0000000000000.00 0000000.00   0000000.00                             000000000000000                                                                                                                                                     01418 A000000000000 0000000000000.24     00050 02200                  
02866620023800132DT67590675900000007088800101800000010180010124001193060900012100236030120230000000981306023000000000114068473703XXXXXX2615       VS11    0001111   NYV1 A E383060733234436N840000000009813KD8600    05DNPLANET VAPOR #200        043678    VD84000000009813 N  599976770268                            000000000+                F DF 10433                     000000000  Y000000000 338   0000000000000.00 0000000.00   0000000.00                             000000000000000                                                                                                                                                     01418 A000000000000 0000000000000.27     00050 02200                  
02866630023800133DT67590675900000007088800101800000010180010124001193060900012100244030120230000000267606023000000000114068415978XXXXXX1580       VS11    0001111   NYV1 A E303060751664508N840000000002676XGD900    05DNPLANET VAPOR #200        098359    VD84000000002676 N  599976770268                            000000000+                F DF 10433                     000000000  Y000000000 338   0000000000000.00 0000000.00   0000000.00                             000000000000000                                                                                                                                                     01418 A000000000000 0000000000000.23     00050 02200                  
02866640023800134DT67590675900000007088800101800000010180010124001193060900012100251030120230000000029706023000000000114068474474XXXXXX1132       VK04VS111111111   NYV1 A E303060773607282N840000000000297VWLN00    07DNPLANET VAPOR #200        122994    VD84000000000297 N  599976770268                            000000000+                F DF 10439                     000000000  Y000000000 331   0000000000000.00 0000000.00   0000000.00                             000000000000000                                                                                                                                                     01418 F000000000000 0000000000000.22     00050 02200                  
02866650023800135DT67590675900000007088800101800000010180010124001193060900012100269030120230000000885206023000000000114068474474XXXXXX0516       VS11    0001111   NYV1 A E383060791420175N840000000008852ML8400    07DNPLANET VAPOR #200        125799    VD84000000008852 N  599976770268                            000000000+                F DF 10433                     000000000  Y000000000 338   0000000000000.00 0000000.00   0000000.00                             000000000000000                                                                                                                                                     01418 A000000000000 0000000000000.26     00050 02200                  
