00019680662130002BH6759067590000001427480010280000090170628202317923000000000196576    0000090001338341Y8001026759C06292023133                                                                                                                                                                                                                                                                                                                                                                                                                                                                                                                                                                                              
00019690662130003DT67590675900000014274800102800000010180010224001193179900013377245062720230000001200817923000000000196576440927XXXXXX2999               2111111   NYV4 A7W583175765051157N840000000012008JV2C00    01DNCBD8666317293            003399    VD84000000012008 NDR549977145232   62465EBD51TB461D22CEAD8  000000000+                F DF 00415                     000000000  N000000000       0000000000000.00 0000000.00   0000000.00                             000000000000000                                                                                                                                                     01424 G000000012008 0000000000002.13     01650 01500                  
00019700662130003DR67590675900000014274800102800000010162465EBD51TB461D22CEAD8  Y000000012008                 P1                                                                                                                                                                                                                                                                                                                                                                                                                                                                                                                                                                                                            
00019710662130001P16759067590000001427480010280000001010000000000000000                             2000000000000000000000000              000000000000                    0000000000000000000000000                    000000000000                                                                                                                                                                                                                                                                                                                                                                                                                                                                                        
00019720662130002G2675906759000000142748001028000000101866-6317293              GA           9 D                00                                      NNNN   N                      000000000000                                                                   77145232                                                                                                                                                                                                                                                                                                                                                                                                                                               
00019730662130004DT67590675900000014274800102800000010180010276509753179900013377813062720230000002636217923000000000196576601100XXXXXX8701   BA00                  NY 4 07N873151101054615N840000000026362    00    01DNCBD8666317293            02442R    DS84000000026362 NDR549977145232070                         000000000+1015104910600   DCCDI11325667409  201505000000 000000000  0          460   0000000000000.00 0000000.00   0000000.00                             000000000000000                                                                                                                                                     01424  000000000000 0000000000005.45     02030 01000                  
00019740662130004DR675906759000000142748001028000000101                         Y                                                                                                                                                                                                                                                                                                                                                                                                                                                                                                                                                                                                                                           
00019750662130001G2675906759000000142748001028000000101866-6317293              GA           9 C                00                                      NNNN                          000000000000                         00000650975601179750000279                77145232                                                                                                                                                                                                                                                                                                                                                                                                                                               
00019760662130005DT67590675900000014274800102800000010180010224001193179900013377989062720230000002686017923000000000196576405731XXXXXX5583               2111111   NYV4 A7W463176109650283N840000000026860D9DG00    01DNCBD8666317293            024809    VS84000000026860 NDR549977145232   338300DC83T74BE99D940E3  000000000+                A CA 12106                     000000000  N000000000 492   0000000000000.00 0000000.00   0000000.00                             000000000000000                                                                                                                                                     01424 G000000026860 0000000000005.18     01890 01000                  
00019770662130005DR675906759000000142748001028000000101338300DC83T74BE99D940E3  Y000000026860                 P1                                                                                                                                                                                                                                                                                                                                                                                                                                                                                                                                                                                                            
00019780662130001P16759067590000001427480010280000001010000000000000000                             2000000000000000000000000              000000000000                    0000000000000000000000000                    000000000000                                                                                                                                                                                                                                                                                                                                                                                                                                                                                        
00019790662130002G2675906759000000142748001028000000101866-6317293              GA           9 C                00                                      NNNN   N                      000000000000                                                                   77145232                                                                                                                                                                                                                                                                                                                                                                                                                                               
00019800662130006DT67590675900000014274800102800000010180010224001193179900013381825062720230000001484817923000000000196576440393XXXXXX1580               2111111   NYV4 A7W463179032945888N840000000014848KVL300    01DNCBD8666317293            790183    VD84000000014848 NDR549977145232   A983C7DF86T111FC26344CE  000000000+                F PF 08175                     000000000  N000000000       0000000000000.00 0000000.00   0000000.00                             000000000000000                                                                                                                                                     01424 G000000014848 0000000000002.80     01750 02000                  
00019810662130006DR675906759000000142748001028000000101A983C7DF86T111FC26344CE  Y000000014848                 P1                                                                                                                                                                                                                                                                                                                                                                                                                                                                                                                                                                                                            
00019820662130001P16759067590000001427480010280000001010000000000000000                             2000000000000000000000000              000000000000                    0000000000000000000000000                    000000000000                                                                                                                                                                                                                                                                                                                                                                                                                                                                                        
00019830662130002G2675906759000000142748001028000000101866-6317293              GA           9 P                00                                      NNNN   N                      000000000000                                                                   77145232                                                                                                                                                                                                                                                                                                                                                                                                                                               
00019840662130007DT67590675900000014274800102800000010680010287287283179900013382097062820230000001200817923000000000196576518941XXXXXX8840                         NY 4607AMWELLJST10628  N840000000012008          81CNCBD8666317293            821122    MC84000000012008 NDR549977145232   194CC8C58ETF7503179943A  000000000+600450S00130    MWE  00565                     000000000  N                0000000000000.00 0000000.00   0000000.00                             000000000000000                                                                                                                                                     01424  000000000000-0000000000002.10     01750 00000                  
00019850662130007DR675906759000000142748001028000000106194CC8C58ETF7503179943A  U000000000000                                                                                                                                                                                                                                                                                                                                                                                                                                                                                                                                                                                                                               
00019860662130001G2675906759000000142748001028000000106866-6317293              GA           9 E               210                                      NNNN           210000000000000000000000000                        7                                          77145232                                                                                                                                                                                                                                                                                                                                                                                                                                               
00019870662130008DT67590675900000014274800102800000010680010287287283179900013382139062820230000001987017923000000000196576534636XXXXXX4652                         NY 4607AMPLM5JDUC0628  N840000000019870          81CNCBD8666317293            028169    MC84000000019870 NDR549977145232   7B26672C73T5E545A93B934  000000000+600450S00130    MPL  00565                     000000000  N                0000000000000.00 0000000.00   0000000.00                             000000000000000                                                                                                                                                     01424  000000000000-0000000000003.48     01750 00000                  
00019880662130008DR6759067590000001427480010280000001067B26672C73T5E545A93B934  R000000000000                                                                                                                                                                                                                                                                                                                                                                                                                                                                                                                                                                                                                               
00019890662130001G2675906759000000142748001028000000106866-6317293              GA           9 L               210                                      NNNN           210000000000000000000000000                                                                   77145232                                                                                                                                                                                                                                                                                                                                                                                                                                               
00019900662130009DT67590675900000014274800102800000010680010274001193179900013382166062820230000000542817923000000000196576462192XXXXXX2097               0000000   NYV4 07T463179471504167N840000000005428MDZ300    01CNCBD8666317293            028275    VS84000000005428 NDR549977145232   E0D9B78D43T6D866077DD47  000000000+                A CA 00245                     000000000  N000000000 166   0000000000000.00 0000000.00   0000000.00                             000000000000000                                                                                                                                                     01424  000000005428-0000000000000.96     01760 00000                  
00019910662130009DR675906759000000142748001028000000106E0D9B78D43T6D866077DD47  U000000005428                 P1                                                                                                                                                                                                                                                                                                                                                                                                                                                                                                                                                                                                            
00019920662130001P16759067590000001427480010280000001060000000000000000                             2000000000000000000000000              000000000000                    0000000000000000000000000                    000000000000                                                                                                                                                                                                                                                                                                                                                                                                                                                                                        
00019930662130002G2675906759000000142748001028000000106866-6317293              GA           9 C                00                                      NNNN   N                      000000000000                                                                   77145232                                                                                                                                                                                                                                                                                                                                                                                                                                               
00019940662130010DT67590675900000014274800102800000010180010287287283179900013382253062820230000001861417923000000000196576517259XXXXXX2929                         NY 4607AMDBHOUTIL0628  N840000000018614          81DNCBD8666317293            001631    MD84000000018614 NDR549977145232                            000000000+600450S00130    MDB  00063                     000000000  N                0000000000000.00 0000000.00   0000000.00                             000000000000000                                                                                                                                                   U001424  000000000000 0000000000003.92     02050 01000                  
00019950662130010DR675906759000000142748001028000000101                         Y000000000000                 P1                                                                                                                                                                                                                                                                                                                                                                                                                                                                                                                                                                                                            
00019960662130001P1675906759000000142748001028000000101                                                 000001379000000000000          8000   000000000871584967            000000000000                                                                                                                                                                                                                                                                                                                                                                                                                                                                                                                                    
00019970662130002G2675906759000000142748001028000000101866-6317293              GA           9 B               210                  871584967           YNNN           210000000000000000000000000                                                                   77145232                                                                                                                                                                                                                                                                                                                                                                                                                                               
00019980662130011DT67590675900000014274800102800000010180010287287283179900013382279062820230000002129117923000000000196576521876XXXXXX9163       ME03KE06MS02      NY 4607AMWENQBNUC0628  N840000000021291          81DNCBD8666317293            52650Z    MC84000000021291 NDR549977145232   6E34CD8239TAE2E6A1C9D4A  000000000+600450S00130    MWE  00737                     000000000  N                0000000000000.00 0000000.00   0000000.00                             000000000000000                                                                                                                                                   U001424  000000000000 0000000000005.64     02600 01000                  
00019990662130011DR6759067590000001427480010280000001016E34CD8239TAE2E6A1C9D4A  Y000000000000                                                                                                                                                                                                                                                                                                                                                                                                                                                                                                                                                                                                                               
00020000662130001G2675906759000000142748001028000000101866-6317293              GA           9 E               210                                      NNNN           210000000000000000000000000                        7                                          77145232                                                                                                                                                                                                                                                                                                                                                                                                                                               
00020010662130012DT67590675900000014274800102800000010680010274001193179900013382315062820230000001499117923000000000196576426684XXXXXX2490               0000000   NYV4 07T383179511217913N84000000001499144JG00    01CNCBD8666317293            06036A    VS84000000014991 NDR549977145232   3AD6C7A6DBT719762F966F3  000000000+                A CA 00245                     000000000  N000000000 166   0000000000000.00 0000000.00   0000000.00                             000000000000000                                                                                                                                                     01424  000000014991-0000000000002.64     01760 00000                  
00020020662130012DR6759067590000001427480010280000001063AD6C7A6DBT719762F966F3  Y000000014991                 P1                                                                                                                                                                                                                                                                                                                                                                                                                                                                                                                                                                                                            
00020030662130001P16759067590000001427480010280000001060000000000000000                             2000000000000000000000000              000000000000                    0000000000000000000000000                    000000000000                                                                                                                                                                                                                                                                                                                                                                                                                                                                                        
00020040662130002G2675906759000000142748001028000000106866-6317293              GA           9 C                00                                      NNNN   Y                      000000000000                                                                   77145232                                                                                                                                                                                                                                                                                                                                                                                                                                               
00020050662130013DT67590675900000014274800102800000010680010287287283179900013382329062820230000002121117923000000000196576521853XXXXXX5748                         NY 4607AMPLUDSVUC0628  N840000000021211          81CNCBD8666317293            028685    MC84000000021211 NDR549977145232   B149B4460ATC8BD1ADC219B  000000000+600450S00130    MPL  00565                     000000000  N                0000000000000.00 0000000.00   0000000.00                             000000000000000                                                                                                                                                     01424  000000000000-0000000000003.71     01750 00000                  
00020060662130013DR675906759000000142748001028000000106B149B4460ATC8BD1ADC219B  R000000000000                                                                                                                                                                                                                                                                                                                                                                                                                                                                                                                                                                                                                               
00020070662130001G2675906759000000142748001028000000106866-6317293              GA           9 L               210                                      NNNN           210000000000000000000000000                        7                                          77145232                                                                                                                                                                                                                                                                                                                                                                                                                                               
00020080662130014DT67590675900000014274800102800000010180010287287283179900013382386062820230000001987017923000000000196576539689XXXXXX0136       ME03KE06MS02      NY 4607AMDHV87BUC0628  N840000000019870          81DNCBD8666317293            375664    MD84000000019870 NDR549977145232   254B13EF51T5C6EF7CB88E8  000000000+600450S00130    MDH  00401                     000000000  N                0000000000000.00 0000000.00   0000000.00                             000000000000000                                                                                                                                                   U001424  000000000000 0000000000003.43     01650 01500                  
00020090662130014DR675906759000000142748001028000000101254B13EF51T5C6EF7CB88E8  Y000000000000                                                                                                                                                                                                                                                                                                                                                                                                                                                                                                                                                                                                                               
00020100662130001G2675906759000000142748001028000000101866-6317293              GA           9 H               210                                      NNNN           210000000000000000000000000                        7                                          77145232                                                                                                                                                                                                                                                                                                                                                                                                                                               
00020110662130015DT67590675900000014274800102800000010180010224001193179900013382450062820230000002165817923000000000196576453506XXXXXX8849               2111111   NYV4 A7W583179572948696N840000000021658KL9V00    01DNCBD8666317293            H27183    VD84000000021658 NDR549977145232   750E8E50A0T353E7FECD899  000000000+                F DF 10420                     000000000  Y000000000 338   0000000000000.00 0000000.00   0000000.00                             000000000000000                                                                                                                                                     01424 G000000021658 0000000000000.33     00050 02200                  
00020120662130015DR675906759000000142748001028000000101750E8E50A0T353E7FECD899  Y000000021658                 P1                                                                                                                                                                                                                                                                                                                                                                                                                                                                                                                                                                                                            
00020130662130001P16759067590000001427480010280000001010000000000000000                             2000000000000000000000000              000000000000                    0000000000000000000000000                    000000000000                                                                                                                                                                                                                                                                                                                                                                                                                                                                                        
00020140662130002G2675906759000000142748001028000000101866-6317293              GA           9 D                00                                      NNNN   N                      000000000000                                                                   77145232                                                                                                                                                                                                                                                                                                                                                                                                                                               
00020150662130016DT67590675900000014274800102800000010180010287287283179900013382659062820230000001512917923000000000196576521333XXXXXX6787       ME03KE06MS02      NY 4607AMPLJMWBH50628  N840000000015129          81DNCBD8666317293            02826Z    MC84000000015129 NDR549977145232   4804FFB1E3TF7797E966512  000000000+600450S00130    MPL  00013                     000000000  N                0000000000000.00 0000000.00   0000000.00                             000000000000000                                                                                                                                                   U001424  000000000000 0000000000003.05     01950 01000                  
00020160662130016DR6759067590000001427480010280000001014804FFB1E3TF7797E966512  Y000000000000                                                                                                                                                                                                                                                                                                                                                                                                                                                                                                                                                                                                                               
00020170662130001G2675906759000000142748001028000000101866-6317293              GA           9 L               210                                      NNNN           210000000000000000000000000                        7                                          77145232                                                                                                                                                                                                                                                                                                                                                                                                                                               
00020180662130017DT67590675900000014274800102800000010680010287287283179900013382675062820230000001064517923000000000196576521876XXXXXX9163                         NY 4607AMWEAZ6NT20628  N840000000010645          81CNCBD8666317293            998793    MC84000000010645 NDR549977145232   6E34CD8239TAE2E6A1C9D4A  000000000+600450S00130    MWE  00565                     000000000  N                0000000000000.00 0000000.00   0000000.00                             000000000000000                                                                                                                                                     01424  000000000000-0000000000001.86     01750 00000                  
00020190662130017DR6759067590000001427480010280000001066E34CD8239TAE2E6A1C9D4A  U000000000000                                                                                                                                                                                                                                                                                                                                                                                                                                                                                                                                                                                                                               
00020200662130001G2675906759000000142748001028000000106866-6317293              GA           9 E               210                                      NNNN           210000000000000000000000000                        7                                          77145232                                                                                                                                                                                                                                                                                                                                                                                                                                               
00020210662130018DT67590675900000014274800102800000010180010287287283179900013382709062820230000002180717923000000000196576559427XXXXXX5869       ME03KE06MS02      NY 4607AMDJBED9T20628  N840000000021807          81DNCBD8666317293            514054    MD84000000021807 NDR549977145232   533005DC57T94CB37D821B3  000000000+600450S00130    MDJ  10813                     000000000  1                0000000000000.00 0000000.00   0000000.00                             000000000000000                                                                                                                                                   U001424  000000000000 0000000000000.33     00050 02200                  
00020220662130018DR675906759000000142748001028000000101533005DC57T94CB37D821B3  Y000000000000                                                                                                                                                                                                                                                                                                                                                                                                                                                                                                                                                                                                                               
00020230662130001G2675906759000000142748001028000000101866-6317293              GA           9 J               210                                      NNNN           210000000000000000000000000                        7                                          77145232                                                                                                                                                                                                                                                                                                                                                                                                                                               
00020240662130019DT67590675900000014274800102800000010680010287287283179900013382774062820230000001987017923000000000196576515599XXXXXX4113                         NY 4607AMPLRZ0SMQ0628  N840000000019870          81CNCBD8666317293            003487    MC84000000019870 NDR549977145232   F3127D8C5ET1D4FEB7F3529  000000000+600450S00130    MPL  00565                     000000000  N                0000000000000.00 0000000.00   0000000.00                             000000000000000                                                                                                                                                     01424  000000000000-0000000000003.48     01750 00000                  
00020250662130019DR675906759000000142748001028000000106F3127D8C5ET1D4FEB7F3529  Y000000000000                                                                                                                                                                                                                                                                                                                                                                                                                                                                                                                                                                                                                               
00020260662130001G2675906759000000142748001028000000106866-6317293              GA           9 L               210                                      NNNN           210000000000000000000000000                        7                                          77145232                                                                                                                                                                                                                                                                                                                                                                                                                                               
00020270662130020DT67590675900000014274800102800000010180010287287283179900013382980062820230000001506617923000000000196576517805XXXXXX9925       ME03KE06MS02      NY 4607AMPLXL5LYO0628  N840000000015066          81DNCBD8666317293            05538B    MC84000000015066 NDR549977145232   374764E07ET1A9ED4CD0B8C  000000000+600450S00130    MPL  00580                     000000000  N                0000000000000.00 0000000.00   0000000.00                             000000000000000                                                                                                                                                   U001424  000000000000 0000000000003.26     02100 01000                  
00020280662130020DR675906759000000142748001028000000101374764E07ET1A9ED4CD0B8C  Y000000000000                                                                                                                                                                                                                                                                                                                                                                                                                                                                                                                                                                                                                               
00020290662130001G2675906759000000142748001028000000101866-6317293              GA           9 L               210                                      NNNN           210000000000000000000000000                        7                                          77145232                                                                                                                                                                                                                                                                                                                                                                                                                                               
00020300662130021DT67590675900000014274800102800000010180010224001193179900013382997062820230000002078517923000000000196576483950XXXXXX5160               2111111   NYV4 A7W303179675202654N840000000020785G27G00    01DNCBD8666317293            05630D    VS84000000020785 NDR549977145232   9CACD5B382TC85B7ECDF7C6  000000000+                D CD 12109                     000000000  N000000000 498   0000000000000.00 0000000.00   0000000.00                             000000000000000                                                                                                                                                     01424 G000000020785 0000000000005.30     02500 01000                  
00020310662130021DR6759067590000001427480010280000001019CACD5B382TC85B7ECDF7C6  Y000000020785                 P1                                                                                                                                                                                                                                                                                                                                                                                                                                                                                                                                                                                                            
00020320662130001P16759067590000001427480010280000001010000000000000000                             2000000000000000000000000              000000000000                    0000000000000000000000000                    000000000000                                                                                                                                                                                                                                                                                                                                                                                                                                                                                        
00020330662130002G2675906759000000142748001028000000101866-6317293              GA           9 C                00                                      NNNN   Y                      000000000000                                                                   77145232                                                                                                                                                                                                                                                                                                                                                                                                                                               
00020340662130022DT67590675900000014274800102800000010180010287287283179900013383020062820230000001987017923000000000196576546657XXXXXX4122       ME03KE06MS02      NY 4607AMWEXCNLMD0628  N840000000019870          81DNCBD8666317293            08262P    MC84000000019870 NDR549977145232   872D91EB4AT217035B24FF9  000000000+600450S00130    MWE  00737                     000000000  N                0000000000000.00 0000000.00   0000000.00                             000000000000000                                                                                                                                                   U001424  000000000000 0000000000005.27     02600 01000                  
00020350662130022DR675906759000000142748001028000000101872D91EB4AT217035B24FF9  U000000000000                                                                                                                                                                                                                                                                                                                                                                                                                                                                                                                                                                                                                               
00020360662130001G2675906759000000142748001028000000101866-6317293              GA           9 E               210                                      NNNN           210000000000000000000000000                        7                                          77145232                                                                                                                                                                                                                                                                                                                                                                                                                                               
00020370662130023DT67590675900000014274800102800000010180010224001193179900013383052062820230000002195617923000000000196576470793XXXXXX9824               2111111   NYV4 A7W583179675765741N840000000021956GP2Z00    01DNCBD8666317293            028950    VS84000000021956 NDR549977145232   51D39A5587T70909507C58D  000000000+                B CB 12107                     000000000  N000000000 494   0000000000000.00 0000000.00   0000000.00                             000000000000000                                                                                                                                                     01424 G000000021956 0000000000004.58     02040 01000                  
00020380662130023DR67590675900000014274800102800000010151D39A5587T70909507C58D  Y000000021956                 P1                                                                                                                                                                                                                                                                                                                                                                                                                                                                                                                                                                                                            
00020390662130001P16759067590000001427480010280000001010000000000000000                             2000000000000000000000000              000000000000                    0000000000000000000000000                    000000000000                                                                                                                                                                                                                                                                                                                                                                                                                                                                                        
00020400662130002G2675906759000000142748001028000000101866-6317293              GA           9 C                00                                      NNNN   N                      000000000000                                                                   77145232                                                                                                                                                                                                                                                                                                                                                                                                                                               
00020410662130024DT67590675900000014274800102800000010180010224001193179900013383078062820230000002651817923000000000196576462845XXXXXX3167               2111111   NYV4 07W303179685478418N840000000026518F3Q300    01DNCBD8666317293            006467    VD84000000026518FNDR549977145232   2E091B5B82T2FB002A5B0C7  000000000+                N DN 02828                     000000000  N000000000       0000000000000.00 0000000.0000 0000002.65D                            000000000000000                                                                                                                                                     01424 G000000026518 0000000000004.77     01800 00000                  
00020420662130024DR6759067590000001427480010280000001012E091B5B82T2FB002A5B0C7  U000000026518                 P1                                                                                                                                                                                                                                                                                                                                                                                                                                                                                                                                                                                                            
00020430662130001P16759067590000001427480010280000001010000000000000000                             2000000000000000000000000              000000000000                    0000000000000000000000000                    000000000000                                                                                                                                                                                                                                                                                                                                                                                                                                                                                        
00020440662130002G2675906759000000142748001028000000101866-6317293              GA           9 D                00                                      NNNN   N                      000000000000                                                                   77145232                                                                                                                                                                                                                                                                                                                                                                                                                                               
00020450662130025DT67590675900000014274800102800000010680010287287283179900013383194062820230000000794817923000000000196576546616XXXXXX0312                         NY 4607AMCWYMEOYO0628  N840000000007948          81CNCBD8666317293            373725    MC84000000007948 NDR549977145232   9DA2C24179T3182257A233A  000000000+600450S00130    MCW  00565                     000000000  N                0000000000000.00 0000000.00   0000000.00                             000000000000000                                                                                                                                                     01424  000000000000-0000000000001.39     01750 00000                  
00020460662130025DR6759067590000001427480010280000001069DA2C24179T3182257A233A  U000000000000                                                                                                                                                                                                                                                                                                                                                                                                                                                                                                                                                                                                                               
00020470662130001G2675906759000000142748001028000000106866-6317293              GA           9 W               210                                      NNNN           210000000000000000000000000                        7                                          77145232                                                                                                                                                                                                                                                                                                                                                                                                                                               
00020480662130026DT67590675900000014274800102800000010680010274001193179900013383214062820230000000610317923000000000196576430605XXXXXX4928               0000000   NYV4 07T303179734458227N840000000006103QX4200    01CNCBD8666317293            052405    VD84000000006103 NDR549977145232   35046E9819T63B967FBEC07  000000000+                F DF 08168                     000000000  N000000000 369   0000000000000.00 0000000.00   0000000.00                             000000000000000                                                                                                                                                     01424  000000006103 0000000000000.00     00000 00000                  
00020490662130026DR67590675900000014274800102800000010635046E9819T63B967FBEC07  Y000000006103                 P1                                                                                                                                                                                                                                                                                                                                                                                                                                                                                                                                                                                                            
00020500662130001P16759067590000001427480010280000001060000000000000000                             2000000000000000000000000              000000000000                    0000000000000000000000000                    000000000000                                                                                                                                                                                                                                                                                                                                                                                                                                                                                        
00020510662130002G2675906759000000142748001028000000106866-6317293              GA           9 D                00                                      NNNN   N                      000000000000                                                                   77145232                                                                                                                                                                                                                                                                                                                                                                                                                                               
00020520662130027DT67590675900000014274800102800000010180010224001193179900013383417062820230000001200817923000000000196576444796XXXXXX0700               2111111   NYV4 A7W463179803134096N840000000012008BJ6W00    01DNCBD8666317293            028131    VS84000000012008 NDR549977145232   EDC0137FF4T2DF15C691B58  000000000+                A CA 12106                     000000000  N000000000 492   0000000000000.00 0000000.00   0000000.00                             000000000000000                                                                                                                                                     01424 G000000012008 0000000000002.37     01890 01000                  
00020530662130027DR675906759000000142748001028000000101EDC0137FF4T2DF15C691B58  Y000000012008                 P1                                                                                                                                                                                                                                                                                                                                                                                                                                                                                                                                                                                                            
00020540662130001P16759067590000001427480010280000001010000000000000000                             2000000000000000000000000              000000000000                    0000000000000000000000000                    000000000000                                                                                                                                                                                                                                                                                                                                                                                                                                                                                        
00020550662130002G2675906759000000142748001028000000101866-6317293              GA           9 C                00                                      NNNN   N                      000000000000                                                                   77145232                                                                                                                                                                                                                                                                                                                                                                                                                                               
00020560662130028BH675906759000000198288001098000009017062820231792300000000006461001970000090001940664N8001096759D06292023094                                                                                                                                                                                                                                                                                                                                                                                                                                                                                                                                                                                              
00020570662130029DT67590675900000019828800109800000010180010924001193179900019405164062720230000002487017923000000000064610427514XXXXXX2423               2111111   NNV4 A7W583175525058754N840000000024870CLP900    01DNKETOFUSION 8885968154    2925160197VD84000000024870 NDR599977547467   2A9FFB668FT9622296E8730  000000000+                F DF 00000                     000000000  Y000000000 338   0000000000000.00 0000000.00   0000000.00             000000000024870D000000000000000                                                                                                                                                     01424 G000000024870 0000000000000.00     00000 00000                  
00020580662130029DR6759067590000001982880010980000001012A9FFB668FT9622296E8730  Y000000024870                 P1                                                                                                                                                                                                                                                                                                                                                                                                                                                                                                                                                                                                            
00020590662130001P16759067590000001982880010980000001010000000000000000                             2000000000000000000000000              000000000000                    0000000000000000000000000                    000000000000                                                                                                                                                                                                                                                                                                                                                                                                                                                                                        
00020600662130002G2675906759000000198288001098000000101888-5968154              UT           9 D                00                                      NNNN   N                      000000000000                                                                   77547467                                                                                                                                                                                                                                                                                                                                                                                                                                               
00020610662130030DT67590675900000019828800109800000010680010987287283179900019406700062820230000002487017923000000000064610514759XXXXXX2272                         NN94607N         0628  N840000000000000          81CNKETOFUSION 8885968154          0197MD84000000024870 N  599977547467   40430B44B8T3F7423092308  000000000+600450S00130    MDJ  00000                     000000000  1                0000000000000.00 0000000.00   0000000.00             000000000024870C000000000000000                                                                                                                                                     01424  000000000000 0000000000000.00     00000 00000                  
00020620662130001G2675906759000000198288001098000000106888-5968154              UT           9 J               210                                      NNNN           210000000000000000000000000                        7                                          77547467                                                                                                                                                                                                                                                                                                                                                                                                                                               
00020630662130031DT67590675900000019828800109800000010680010987287283179900019406718062820230000001987017923000000000064610548013XXXXXX0979                         NN94607N         0628  N840000000000000          81CNKETOFUSION 8885968154          0197MD84000000019870 NP1599977547467   C09E09EB7ET8C05E63BE51B  000000000+600450S00130    MDB  00000                     000000000  1                0000000000000.00 0000000.00   0000000.00             000000000019870C000000000000000                                                                                                                                                     01424  000000000000 0000000000000.00     00000 00000                  
00020640662130001P1675906759000000198288001098000000106                                                          000000000000          8000            884295529                                                                                                                                                                                                                                                                                                                                                                                                                                                                                                                                                            
00020650662130002G2675906759000000198288001098000000106888-5968154              UT           9 B               210                  884295529           YNNN           210000000000000000000000000                                                                   77547467                                                                                                                                                                                                                                                                                                                                                                                                                                               
00020660662130032DT67590675900000019828800109800000010680010987287283179900019406635062820230000002487017923000000000064610546234XXXXXX9684                         NN 4607AMDSX83GYO0628  N840000000024870          81CNKETOFUSION 8885968154    0284730197MD84000000024870 NDR599977547467   E5A8224FDET3E3BDF40BD68  000000000+600450S00130    MDS  00000                     000000000  N                0000000000000.00 0000000.00   0000000.00             000000000024870C000000000000000                                                                                                                                                     01424  000000000000 0000000000000.00     00000 00000                  
00020670662130032DR675906759000000198288001098000000106E5A8224FDET3E3BDF40BD68  R000000000000                                                                                                                                                                                                                                                                                                                                                                                                                                                                                                                                                                                                                               
00020680662130001G2675906759000000198288001098000000106888-5968154              UT           9 S               210                                      NNNN           210000000000000000000000000                        7                                          77547467                                                                                                                                                                                                                                                                                                                                                                                                                                               
00020690662130033DT67590675900000019828800109800000010680010987287283179900019406643062820230000001987017923000000000064610534303XXXXXX9370                         NN 4607AMDSGIOQX90628  N840000000019870          81CNKETOFUSION 8885968154    0005700197MD84000000019870 NDR599977547467   F6EF901FA8TFB902CE65C27  000000000+600450S00130    MDS  00000                     000000000  N                0000000000000.00 0000000.00   0000000.00             000000000019870C000000000000000                                                                                                                                                     01424  000000000000 0000000000000.00     00000 00000                  
00020700662130033DR675906759000000198288001098000000106F6EF901FA8TFB902CE65C27  Y000000000000                                                                                                                                                                                                                                                                                                                                                                                                                                                                                                                                                                                                                               
00020710662130001G2675906759000000198288001098000000106888-5968154              UT           9 S               210                                      NNNN           210000000000000000000000000                        7                                          77547467                                                                                                                                                                                                                                                                                                                                                                                                                                               
00020720662130034BH6759067590000001330080010280000090170628202317923000000000444475    0000090001339353Y8001026759C06292023133                                                                                                                                                                                                                                                                                                                                                                                                                                                                                                                                                                                              
00020730662130035DT67590675900000013300800102800000010180010287287283179900013384473062720230000002106217923000000000444475523802XXXXXX4707                         NY 4607AMDBPWBRRI0624  N840000000021062          81DNCBD8666317293            931837    MD84000000021062 NDR549977133133                            000000000+600450S00130    MDB  00063                     000000000  N                0000000000000.00 0000000.00   0000000.00                             000000000000000                                                                                                                                                   U001424  000000000000 0000000000004.42     02050 01000                  
00020740662130035DR675906759000000133008001028000000101                         Y000000000000                 P1                                                                                                                                                                                                                                                                                                                                                                                                                                                                                                                                                                                                            
00020750662130001P1675906759000000133008001028000000101                                                 000001192000000000000          8000   000000000871584967            000000000000                                                                                                                                                                                                                                                                                                                                                                                                                                                                                                                                    
00020760662130002G2675906759000000133008001028000000101866-6317293              GA           9 B               210                  871584967           YNNN           210000000000000000000000000                                                                   77133133                                                                                                                                                                                                                                                                                                                                                                                                                                               
00020770662130036DT67590675900000013300800102800000010180010287287283179900013384697062720230000001611517923000000000444475542418XXXXXX6829       ME03KE06MS02      NY 4607AMPLS8AWML0624  N840000000016115          81DNCBD8666317293            81896B    MC84000000016115 NDR549977133133   C879770280T158A27F04825  000000000+600450S00130    MPL  00580                     000000000  N                0000000000000.00 0000000.00   0000000.00                             000000000000000                                                                                                                                                   U001424  000000000000 0000000000003.48     02100 01000                  
00020780662130036DR675906759000000133008001028000000101C879770280T158A27F04825  Y000000000000                                                                                                                                                                                                                                                                                                                                                                                                                                                                                                                                                                                                                               
00020790662130001G2675906759000000133008001028000000101866-6317293              GA           9 L               210                                      NNNN           210000000000000000000000000                        7                                          77133133                                                                                                                                                                                                                                                                                                                                                                                                                                               
00020800662130037DT67590675900000013300800102800000010180010287287283179900013384820062720230000001987017923000000000444475559767XXXXXX1597       ME03KE06MS02      NY 4607AMDJVDDBML0624  N840000000019870          81DNCBD8666317293            070505    MD84000000019870 NDR549977133133   68282622FET4B141EDB267C  000000000+600450S00130    MDJ  00401                     000000000  N                0000000000000.00 0000000.00   0000000.00                             000000000000000                                                                                                                                                   U001424  000000000000 0000000000003.43     01650 01500                  
00020810662130037DR67590675900000013300800102800000010168282622FET4B141EDB267C  Y000000000000                                                                                                                                                                                                                                                                                                                                                                                                                                                                                                                                                                                                                               
00020820662130001G2675906759000000133008001028000000101866-6317293              GA           9 J               210                                      NNNN           210000000000000000000000000                                                                   77133133                                                                                                                                                                                                                                                                                                                                                                                                                                               
00020830662130038DT67590675900000013300800102800000010180010224001193179900013384837062720230000001987017923000000000444475408880XXXXXX4149               2111111   NYV4 A7W303175843044940N840000000019870P4GK00    01DNCBD8666317293            502449    VD84000000019870 NDR549977133133   2A4CA15B28T8B1E914DDE85  000000000+                F DF 00415                     000000000  N000000000       0000000000000.00 0000000.00   0000000.00                             000000000000000                                                                                                                                                     01424 G000000019870 0000000000003.43     01650 01500                  
00020840662130038DR6759067590000001330080010280000001012A4CA15B28T8B1E914DDE85  Y000000019870                 P1                                                                                                                                                                                                                                                                                                                                                                                                                                                                                                                                                                                                            
00020850662130001P16759067590000001330080010280000001010000000000000000                             2000000000000000000000000              000000000000                    0000000000000000000000000                    000000000000                                                                                                                                                                                                                                                                                                                                                                                                                                                                                        
00020860662130002G2675906759000000133008001028000000101866-6317293              GA           9 D                00                                      NNNN   N                      000000000000                                                                   77133133                                                                                                                                                                                                                                                                                                                                                                                                                                               
00020870662130039DT67590675900000013300800102800000010180010224001193179900013384894062720230000002106217923000000000444475413171XXXXXX9439               2111111   NYV4 A7W383176009131708N840000000021062KTDT00    01DNCBD8666317293            053110    VD84000000021062 NDR549977133133   8DE8267913TEF4C20BCAEB3  000000000+                F DF 00415                     000000000  N000000000       0000000000000.00 0000000.00   0000000.00                             000000000000000                                                                                                                                                     01424 G000000021062 0000000000003.63     01650 01500                  
00020880662130039DR6759067590000001330080010280000001018DE8267913TEF4C20BCAEB3  Y000000021062                 P1                                                                                                                                                                                                                                                                                                                                                                                                                                                                                                                                                                                                            
00020890662130001P16759067590000001330080010280000001010000000000000000                             2000000000000000000000000              000000000000                    0000000000000000000000000                    000000000000                                                                                                                                                                                                                                                                                                                                                                                                                                                                                        
00020900662130002G2675906759000000133008001028000000101866-6317293              GA           9 D                00                                      NNNN   N                      000000000000                                                                   77133133                                                                                                                                                                                                                                                                                                                                                                                                                                               
00020910662130040DT67590675900000013300800102800000010180010287287283179900013385066062720230000001284917923000000000444475512107XXXXXX8547       ME03KE06PT01      NY 4607AMCWRXAN0S0624  N840000000012849          81DNCBD8666317293            02456P    MC84000000012849 NDR549977133133   C019F2DA44T1A017D1EC16B  000000000+600450S00130    MCW  00642                     000000000  N                0000000000000.00 0000000.00   0000000.00                             000000000000000                                                                                                                                                   U001424  000000000000 0000000000002.93     02200 01000                  
00020920662130040DR675906759000000133008001028000000101C019F2DA44T1A017D1EC16B  Y000000000000                                                                                                                                                                                                                                                                                                                                                                                                                                                                                                                                                                                                                               
00020930662130001G2675906759000000133008001028000000101866-6317293              GA           9 W               210                                      NNNN           210000000000000000000000000                        7                                          77133133                                                                                                                                                                                                                                                                                                                                                                                                                                               
00020940662130041DT67590675900000013300800102800000010180010287287283179900013391379062720230000000542817923000000000444475551257XXXXXX4541       ME03KE06MS02      NY 4607AMDST118P70627  N840000000005428          81DNCBD8666317293            159393    MD84000000005428 NDR549977133133   B5C351DCB1T2A6E8A3B196F  000000000+600450S00130    MDS  00401                     000000000  N                0000000000000.00 0000000.00   0000000.00                             000000000000000                                                                                                                                                   U001424  000000000000 0000000000001.05     01650 01500                  
00020950662130041DR675906759000000133008001028000000101B5C351DCB1T2A6E8A3B196F  Y000000000000                                                                                                                                                                                                                                                                                                                                                                                                                                                                                                                                                                                                                               
00020960662130001G2675906759000000133008001028000000101866-6317293              GA           9 S               210                                      NNNN           210000000000000000000000000                        7                                          77133133                                                                                                                                                                                                                                                                                                                                                                                                                                               
00020970662130042DT67590675900000013300800102800000010680010287287283179900013391627062820230000001200817923000000000444475518941XXXXXX8840                         NY 4607AMWER34LUC0628  N840000000012008          81CNCBD8666317293            797353    MC84000000012008 NDR549977133133   33BBC366C9TB852CAA0EA77  000000000+600450S00130    MWE  00565                     000000000  N                0000000000000.00 0000000.00   0000000.00                             000000000000000                                                                                                                                                     01424  000000000000-0000000000002.10     01750 00000                  
00020980662130042DR67590675900000013300800102800000010633BBC366C9TB852CAA0EA77  U000000000000                                                                                                                                                                                                                                                                                                                                                                                                                                                                                                                                                                                                                               
00020990662130001G2675906759000000133008001028000000106866-6317293              GA           9 E               210                                      NNNN           210000000000000000000000000                        7                                          77133133                                                                                                                                                                                                                                                                                                                                                                                                                                               
00021000662130043DT67590675900000013300800102800000010680010274001193179900013391654062820230000001799117923000000000444475414718XXXXXX8851               0000000   NYV4 07T583179415496056N840000000017991XQZT00    01CNCBD8666317293            028597    VS84000000017991 NDR549977133133   EDBBC83D69TA391EC6CF1FE  000000000+                D CD 00245                     000000000  N000000000 166   0000000000000.00 0000000.00   0000000.00                             000000000000000                                                                                                                                                     01424  000000017991-0000000000003.17     01760 00000                  
00021010662130043DR675906759000000133008001028000000106EDBBC83D69TA391EC6CF1FE  U000000017991                 P1                                                                                                                                                                                                                                                                                                                                                                                                                                                                                                                                                                                                            
00021020662130001P16759067590000001330080010280000001060000000000000000                             2000000000000000000000000              000000000000                    0000000000000000000000000                    000000000000                                                                                                                                                                                                                                                                                                                                                                                                                                                                                        
00021030662130002G2675906759000000133008001028000000106866-6317293              GA           9 C                00                                      NNNN   Y                      000000000000                                                                   77133133                                                                                                                                                                                                                                                                                                                                                                                                                                               
00021040662130044DT67590675900000013300800102800000010180010287287283179900013391759062820230000002487017923000000000444475526947XXXXXX9511       ME03KE06PT01      NY 4607AMCWTDA3UC0628  N840000000024870          81DNCBD8666317293            01313Z    MC84000000024870 NDR549977133133   4C1E664C04T7D49AB9A7B73  000000000+600450S00130    MCW  00642                     000000000  N                0000000000000.00 0000000.00   0000000.00                             000000000000000                                                                                                                                                   U001424  000000000000 0000000000005.57     02200 01000                  
00021050662130044DR6759067590000001330080010280000001014C1E664C04T7D49AB9A7B73  Y000000000000                                                                                                                                                                                                                                                                                                                                                                                                                                                                                                                                                                                                                               
00021060662130001G2675906759000000133008001028000000101866-6317293              GA           9 W               210                                      NNNN           210000000000000000000000000                        7                                          77133133                                                                                                                                                                                                                                                                                                                                                                                                                                               
00021070662130045DT67590675900000013300800102800000010180010287287283179900013391775062820230000002126117923000000000444475537993XXXXXX7311       ME03KE06MS02      NY 4607AMPLHE37IL0628  N840000000021261          81DNCBD8666317293            02869Z    MC84000000021261 NDR549977133133   88F215B85CTFFEC918DFDA9  000000000+600450S00130    MPL  00013                     000000000  N                0000000000000.00 0000000.00   0000000.00                             000000000000000                                                                                                                                                   U001424  000000000000 0000000000004.25     01950 01000                  
00021080662130045DR67590675900000013300800102800000010188F215B85CTFFEC918DFDA9  Y000000000000                                                                                                                                                                                                                                                                                                                                                                                                                                                                                                                                                                                                                               
00021090662130001G2675906759000000133008001028000000101866-6317293              GA           9 L               210                                      NNNN           210000000000000000000000000                        7                                          77133133                                                                                                                                                                                                                                                                                                                                                                                                                                               
