00006130446180002BH6759067590000000370780088880000090170517202313723000000000214531    0000090001110842Y8008886759C05182023                                                                                                                                                                                                                                                                                                                                                                                                                                                                                                                                                                                                 
00006140446180003DT67590675900000003707800888800000010180088876509753137900011108237051720230000000349913723000000000214531601120XXXXXX4014   BA00                  NY 4 07N753117617807167N840000000003499    00    01DNMR HEMP FLOWER           01789B    DZ84000000003499 N  549976053336070                         000000000+1015104910600   DMCDI01012334694  020940000000 000000000  0          124   0000000000000.00 0000000.00   0000000.00                             000000000000000                                                                                                                                                     01424  000000000000 0000000000001.01     02450 01500                  
00006150446180004DT67590675900000003707800888800000010180088824001193137900011108254051720230000001199913723000000000214531464018XXXXXX0970               2111111   NYV4 A7W303137398363286N840000000011999HD9R00    01DNMR HEMP FLOWER           00686D    VS84000000011999 NP1549976053336   89725                    000000000+                D CD 12109                     000000000  N000000000 498   0000000000000.00 0000000.00   0000000.00                             000000000000000                                                                                                                                                     01424 G000000011999 0000000000003.10     02500 01000                  
00006160446180001P16759067590000000370780088880000001010000000000000000                             2000000000000000000000000              000000000000                    0000000000000000000000000                    000000000000                                                                                                                                                                                                                                                                                                                                                                                                                                                                                        
00006170446180005DT67590675900000003707800888800000010180088887287283137900011108263051720230000000734713723000000000214531533248XXXXXX1566       ME03KE06MS02      NY 4607AMPVWUIBQ30517  N840000000007347          81DNMR HEMP FLOWER           BZ1A40    MD84000000007347 N  549976053336   89728                    000000000+600450S00130    MPV  09899                     000000000  N                0000000000000.00 0000000.00   0000000.00                             000000000000000                                                                                                                                                   U001424  000000000000 0000000000001.49     01760 02000                  
00006180446180006DT67590675900000003707800888800000010180088887287283137900011108271051720230000000459813723000000000214531533248XXXXXX1890       ME03KE06MS02      NY 4607AMPVFBEGTO0517  N840000000004598          81DNMR HEMP FLOWER           BZP5OD    MD84000000004598 N  549976053336   89739                    000000000+600450S00130    MPV  09899                     000000000  N                0000000000000.00 0000000.00   0000000.00                             000000000000000                                                                                                                                                   U001424  000000000000 0000000000001.01     01760 02000                  
00006190446180007DT67590675900000003707800888800000010180088824001193137900011108288051720230000001177013723000000000214531410064XXXXXX9919               2111111   NYV4 A7W303137569743993N840000000011770JDJX00    01DNMR HEMP FLOWER           08025A    VS84000000011770 NP1549976053336   89740                    000000000+                A CA 12106                     000000000  N000000000 492   0000000000000.00 0000000.00   0000000.00                             000000000000000                                                                                                                                                     01424 G000000011770 0000000000002.32     01890 01000                  
00006200446180001P16759067590000000370780088880000001010000000000000000                             2000000000000000000000000              000000000000                    0000000000000000000000000                    000000000000                                                                                                                                                                                                                                                                                                                                                                                                                                                                                        
00006210446180008DT67590675900000003707800888800000010180088887287283137900011108297051720230000002400013723000000000214531543389XXXXXX0011       ME03KE06MS02      NY 4607AMCCWKBWLV0517  N840000000024000          81DNMR HEMP FLOWER           01707B    MC84000000024000 N  549976053336   89733                    000000000+600450S00130    MCC  00580                     000000000  N                0000000000000.00 0000000.00   0000000.00                             000000000000000                                                                                                                                                   U001424  000000000000 0000000000005.14     02100 01000                  
00006220446180009DT67590675900000003707800888800000010180088824001193137900011108304051720230000000799913723000000000214531483312XXXXXX7431               2111111   NYV4 A7W463137573279817N8400000000079994KK200    01DNMR HEMP FLOWER           075511    VD84000000007999 NP1549976053336   89741                    000000000+                F DF 10420                     000000000  Y000000000 338   0000000000000.00 0000000.00   0000000.00                             000000000000000                                                                                                                                                     01424 G000000007999 0000000000000.26     00050 02200                  
00006230446180001P16759067590000000370780088880000001010000000000000000                             2000000000000000000000000              000000000000                    0000000000000000000000000                    000000000000                                                                                                                                                                                                                                                                                                                                                                                                                                                                                        
00006240446180010DT67590675900000003707800888800000010180088824001193137900011108312051720230000000199813723000000000214531414720XXXXXX7348               2111111   NYV4 A7W303137579818506N840000000001998336B00    01DNMR HEMP FLOWER           08658I    VS84000000001998 NP1549976053336   89742                    000000000+                I CI 12778                     000000000  N000000000 689   0000000000000.00 0000000.00   0000000.00                             000000000000000                                                                                                                                                     01424 G000000001998 0000000000000.60     02500 01000                  
00006250446180001P16759067590000000370780088880000001010000000000000000                             2000000000000000000000000              000000000000                    0000000000000000000000000                    000000000000                                                                                                                                                                                                                                                                                                                                                                                                                                                                                        
00006260446180011DT67590675900000003707800888800000010180088824001193137900011108320051720230000001100013723000000000214531473702XXXXXX2654               2111111   NYV4 A7W383137638519064N8400000000110004TJB00    01DNMR HEMP FLOWER           030701    VD84000000011000 NP1549976053336   89750                    000000000+                F DF 10420                     000000000  Y000000000 338   0000000000000.00 0000000.00   0000000.00                             000000000000000                                                                                                                                                     01424 G000000011000 0000000000000.28     00050 02200                  
00006270446180001P16759067590000000370780088880000001010000000000000000                             2000000000000000000000000              000000000000                    0000000000000000000000000                    000000000000                                                                                                                                                                                                                                                                                                                                                                                                                                                                                        
00006280446180012DT67590675900000003707800888800000010180088824001193137900011108338051720230000000649913723000000000214531400022XXXXXX3055               2111111   NYV4 A7W303137639900963N8400000000064992LMJ00    01DNMR HEMP FLOWER           376475    VD84000000006499 NP1549976053336   89751                    000000000+                F DF 10420                     000000000  Y000000000 338   0000000000000.00 0000000.00   0000000.00                             000000000000000                                                                                                                                                     01424 G000000006499 0000000000000.25     00050 02200                  
00006290446180001P16759067590000000370780088880000001010000000000000000                             2000000000000000000000000              000000000000                    0000000000000000000000000                    000000000000                                                                                                                                                                                                                                                                                                                                                                                                                                                                                        
00006300446180013DT67590675900000003707800888800000010180088824001193137900011108353051720230000000349913723000000000214531401171XXXXXX3611               2111111   NYV4 A7W463137662685331N840000000003499M95T00    01DNMR HEMP FLOWER           042428    VD84000000003499 NP1549976053336   89753                    000000000+                F DF 00415                     000000000  N000000000       0000000000000.00 0000000.00   0000000.00                             000000000000000                                                                                                                                                     01424 G000000003499 0000000000000.73     01650 01500                  
00006310446180001P16759067590000000370780088880000001010000000000000000                             2000000000000000000000000              000000000000                    0000000000000000000000000                    000000000000                                                                                                                                                                                                                                                                                                                                                                                                                                                                                        
00006320446180014DT67590675900000003707800888800000010180088824001193137900011108361051720230000001127613723000000000214531402944XXXXXX2130               2111111   NYV4 A7W383137666572938N840000000011276JS7500    01DNMR HEMP FLOWER           033058    VD84000000011276 NP1549976053336   89755                    000000000+                F DF 10420                     000000000  Y000000000 338   0000000000000.00 0000000.00   0000000.00                             000000000000000                                                                                                                                                     01424 G000000011276 0000000000000.28     00050 02200                  
00006330446180001P16759067590000000370780088880000001010000000000000000                             2000000000000000000000000              000000000000                    0000000000000000000000000                    000000000000                                                                                                                                                                                                                                                                                                                                                                                                                                                                                        
00006340446180015DT67590675900000003707800888800000010180088824001193137900011108379051720230000001100013723000000000214531419002XXXXXX7742               2111111   NYV4 A7W303137717265576N840000000011000HKN900    01DNMR HEMP FLOWER           031923    VD84000000011000 NP1549976053336   89762                    000000000+                F DF 10420                     000000000  Y000000000 338   0000000000000.00 0000000.00   0000000.00                             000000000000000                                                                                                                                                     01424 G000000011000 0000000000000.28     00050 02200                  
00006350446180001P16759067590000000370780088880000001010000000000000000                             2000000000000000000000000              000000000000                    0000000000000000000000000                    000000000000                                                                                                                                                                                                                                                                                                                                                                                                                                                                                        
00006360446180016DT67590675900000003707800888800000010180088887287283137900011108388051720230000000349913723000000000214531515676XXXXXX9683       ME03KE06MS02      NY 4607AMWELPXH8A0517  N840000000003499          81DNMR HEMP FLOWER           05780Z    MC84000000003499 N  549976053336   89763                    000000000+600450S00130    MWE  00737                     000000000  N                0000000000000.00 0000000.00   0000000.00                             000000000000000                                                                                                                                                   U001424  000000000000 0000000000001.01     02600 01000                  
00006370446180017DT67590675900000003707800888800000010180088824001193137900011108395051720230000002130013723000000000214531424631XXXXXX7933               2111111   NYV4 A7W303137725511810N8400000000213002QN200    01DNMR HEMP FLOWER           07337G    VB84000000021300 NP1549976053336   89764                    000000000+                G CG 00690                     000000000  N000000000 231   0000000000000.00 0000000.00   0000000.00                             000000000000000                                                                                                                                                     01424 G000000021300 0000000000005.74     02650 01000                  
00006380446180001P16759067590000000370780088880000001010000000000000000                             2000000000000000000000000              000000000000                    0000000000000000000000000                    000000000000                                                                                                                                                                                                                                                                                                                                                                                                                                                                                        
00006390446180018DT67590675900000003707800888800000010180088824001193137900011108403051720230000004085013723000000000214531464018XXXXXX4821               2111111   NYV4 A7W303137731784847N840000000040850MXDJ00    01DNMR HEMP FLOWER           08148D    VS84000000040850 NP1549976053336   89765                    000000000+                D CD 12109                     000000000  N000000000 498   0000000000000.00 0000000.00   0000000.00                             000000000000000                                                                                                                                                     01424 G000000040850 0000000000010.31     02500 01000                  
00006400446180001P16759067590000000370780088880000001010000000000000000                             2000000000000000000000000              000000000000                    0000000000000000000000000                    000000000000                                                                                                                                                                                                                                                                                                                                                                                                                                                                                        
00006410446180019DT67590675900000003707800888800000010180088887287283137900011108412051720230000001639813723000000000214531537802XXXXXX5693       ME03KE06MS02      NY 4607AMWEEE8W8A0517  N840000000016398          81DNMR HEMP FLOWER           06042Z    MC84000000016398 N  549976053336   89767                    000000000+600450S00130    MWE  00737                     000000000  N                0000000000000.00 0000000.00   0000000.00                             000000000000000                                                                                                                                                   U001424  000000000000 0000000000004.36     02600 01000                  
00006420446180020DT67590675900000003707800888800000010180088824001193137900011108429051720230000001600013723000000000214531474165XXXXXX6734               2111111   NYV4 A7W583137780723542N8400000000160007NS200    01DNMR HEMP FLOWER           082140    VD84000000016000 NP1549976053336   89775                    000000000+                G DG 10352                     000000000  Y000000000 338   0000000000000.00 0000000.00   0000000.00                             000000000000000                                                                                                                                                     01424 G000000016000 0000000000000.30     00050 02200                  
00006430446180001P16759067590000000370780088880000001010000000000000000                             2000000000000000000000000              000000000000                    0000000000000000000000000                    000000000000                                                                                                                                                                                                                                                                                                                                                                                                                                                                                        
00006440446180021BH6759067590000000288180088880000090170517202313723000000000004277    0000090001200232Y8008886759C05182023                                                                                                                                                                                                                                                                                                                                                                                                                                                                                                                                                                                                 
00006450446180022DT67590675900000002881800888800000010180088824001193137900012002324051720230000000427713723000000000004277459954XXXXXX5604               2111111   NYV4 A7W383137520593233N8400000000042776Q2600    01DNHAPPY HIPPIE             H97082    VD84000000004277 NP1549976044904   2047                     000000000+                F DF 10420                     000000000  Y000000000 338   0000000000000.00 0000000.00   0000000.00                             000000000000000                                                                                                                                                     01424 G000000004277 0000000000000.24     00050 02200                  
00006460446180001P16759067590000000288180088880000001010000000000000000                             2000000000000000000000000              000000000000                    0000000000000000000000000                    000000000000                                                                                                                                                                                                                                                                                                                                                                                                                                                                                        
00006470446180023BH6759067590000001982880010980000090170517202313723000000000148957    0000090001579892Y8001096759C05182023                                                                                                                                                                                                                                                                                                                                                                                                                                                                                                                                                                                                 
00006480446180024DT67590675900000019828800109800000010180010924001193137900015797375051620230000001194813723000000000148957410039XXXXXX3147               2111111   NYV4 A7W383133174047689N840000000011948X82900    01DNKETOFUSION 8885968154    84139D    VS84000000011948 NP1599977547467   B1EC726BD1T35C966C85257  000000000+                D CD 12109                     000000000  N000000000 498   0000000000000.00 0000000.00   0000000.00                             000000000000000                                                                                                                                                     01424 G000000011948 0000000000003.09     02500 01000                  
00006490446180001P16759067590000001982880010980000001010000000000000000                             2000000000000000000000000              000000000000                    0000000000000000000000000                    000000000000                                                                                                                                                                                                                                                                                                                                                                                                                                                                                        
00006500446180025DT67590675900000019828800109800000010180010924001193137900015797417051620230000001799113723000000000148957438857XXXXXX9385               2111111   NYV4 A7W463133423040651N840000000017991LMG400    01DNKETOFUSION 8885968154    05143D    VS84000000017991 NP1599977547467   844CF8F55DT25962E4F3A04  000000000+                D CD 12109                     000000000  N000000000 498   0000000000000.00 0000000.00   0000000.00                             000000000000000                                                                                                                                                     01424 G000000017991 0000000000004.60     02500 01000                  
00006510446180001P16759067590000001982880010980000001010000000000000000                             2000000000000000000000000              000000000000                    0000000000000000000000000                    000000000000                                                                                                                                                                                                                                                                                                                                                                                                                                                                                        
00006520446180026DT67590675900000019828800109800000010180010924001193137900015797433051620230000001987013723000000000148957449163XXXXXX8286               2111111   NYV4 A7W383133519049335N840000000019870KPR300    01DNKETOFUSION 8885968154    092504    VD84000000019870 NP1599977547467   430AA05BA9TBEA4C83743CC  000000000+                F DF 10420                     000000000  Y000000000 338   0000000000000.00 0000000.00   0000000.00                             000000000000000                                                                                                                                                     01424 G000000019870 0000000000000.32     00050 02200                  
00006530446180001P16759067590000001982880010980000001010000000000000000                             2000000000000000000000000              000000000000                    0000000000000000000000000                    000000000000                                                                                                                                                                                                                                                                                                                                                                                                                                                                                        
00006540446180027DT67590675900000019828800109800000010180010976509753137900015797449051620230000001987013723000000000148957601100XXXXXX0523   BA00                  NY 4 07N743114453091478N840000000019870    00    01DNKETOFUSION 8885968154    01321R    DS84000000019870 N  599977547467070                         000000000+1015104910600   DCCDI11325000325  101509000000 000000000  0          460   0000000000000.00 0000000.00   0000000.00                             000000000000000                                                                                                                                                     01424  000000000000 0000000000004.13     02030 01000                  
00006550446180028DT67590675900000019828800109800000010180010987287283137900015797509051620230000001394813723000000000148957535142XXXXXX8129                         NY 4607AMDUTQ0EPJ0513  N840000000013948          81DNKETOFUSION 8885968154    587250    MD84000000013948FN  599977547467   0782EC3014T70D9E4B6CC5B  000000000+600450S00130    MDS  12226                     0000000841 N                0000000000000.00 0000000.00   0000000.00                             000000000000000                                                                                                                                                     01424  000000000000 0000000000002.23     01600 00000                  
00006560446180029DT67590675900000019828800109800000010180010987287283137900015797517051620230000002487013723000000000148957514640XXXXXX3537                         NY 4607AMDBTQ0FPJ0513  N840000000024870          81DNKETOFUSION 8885968154    801562    MD84000000024870 NP1599977547467   83CBD9B6B8TED964F03D930  000000000+600450S00130    MDB  00062                     000000000  N                0000000000000.00 0000000.00   0000000.00                             000000000000000                                                                                                                                                   U001424  000000000000 0000000000006.69     02650 01000                  
00006570446180001P1675906759000000198288001098000000101                                                          000000000000          8000            884295529                                                                                                                                                                                                                                                                                                                                                                                                                                                                                                                                                            
00006580446180030DT67590675900000019828800109800000010180010976509753137900015797522051620230000001394813723000000000148957601100XXXXXX7504   BA00                  NY 4 07N813114625344375N840000000013948    00    01DNKETOFUSION 8885968154    01343R    DS84000000013948 N  599977547467070                         000000000+1015104910600   DCCDI11325832439  150214000000 000000000  0          460   0000000000000.00 0000000.00   0000000.00                             000000000000000                                                                                                                                                     01424  000000000000 0000000000002.93     02030 01000                  
00006590446180031DT67590675900000019828800109800000010180010987287283137900015797608051620230000001987013723000000000148957542418XXXXXX2540       ME03KE06PT01      NY 4607AMCWX5DEQS0513  N840000000019870          81DNKETOFUSION 8885968154    69219T    MC84000000019870 N  599977547467   5D8CEB58A8TEF019BAEBFA8  000000000+600450S00130    MCW  02182                     000000000  N                0000000000000.00 0000000.00   0000000.00                             000000000000000                                                                                                                                                   U001424  000000000000 0000000000005.27     02600 01000                  
00006600446180032DT67590675900000019828800109800000010180010924001193137900015797623051620230000002487013723000000000148957414720XXXXXX3928               2111111   NYV4 A7W383133849087910N840000000024870XMXK00    01DNKETOFUSION 8885968154    05242D    VS84000000024870 NP1599977547467   B911C5FA02T45EC1C86A5E1  000000000+                D CD 12109                     000000000  N000000000 498   0000000000000.00 0000000.00   0000000.00                             000000000000000                                                                                                                                                     01424 G000000024870 0000000000006.32     02500 01000                  
00006610446180001P16759067590000001982880010980000001010000000000000000                             2000000000000000000000000              000000000000                    0000000000000000000000000                    000000000000                                                                                                                                                                                                                                                                                                                                                                                                                                                                                        
00006620446180033DT67590675900000019828800109800000010180010924001193137900015797649051620230000001394813723000000000148957441982XXXXXX2829               2111111   NYV4 A7W463134003090586N8400000000139489W5S00    01DNKETOFUSION 8885968154    004407    VD84000000013948 NP1599977547467   899A804C1DT0C51A8942E5C  000000000+                F DF 00415                     000000000  N000000000       0000000000000.00 0000000.00   0000000.00                             000000000000000                                                                                                                                                     01424 G000000013948 0000000000002.45     01650 01500                  
00006630446180001P16759067590000001982880010980000001010000000000000000                             2000000000000000000000000              000000000000                    0000000000000000000000000                    000000000000                                                                                                                                                                                                                                                                                                                                                                                                                                                                                        
00006640446180034DT67590675900000019828800109800000010180010987287283137900015797665051620230000002487013723000000000148957549460XXXXXX5939       ME03KE06PT01      NY 4607AMCWCA41I50513  N840000000024870          81DNKETOFUSION 8885968154    01304Z    MC84000000024870 N  599977547467   D87B474BF3T537CE30D26CE  000000000+600450S00130    MCW  00642                     000000000  N                0000000000000.00 0000000.00   0000000.00                             000000000000000                                                                                                                                                   U001424  000000000000 0000000000005.57     02200 01000                  
00006650446180035DT67590675900000019828800109800000010180010987287283137900015797707051620230000001987013723000000000148957518941XXXXXX2275       ME03KE06MS02      NY 4607AMWEDO8BJ10513  N840000000019870          81DNKETOFUSION 8885968154    63614Z    MC84000000019870 N  599977547467   403D4CE760T1D16B59F566D  000000000+600450S00130    MWE  00737                     000000000  N                0000000000000.00 0000000.00   0000000.00                             000000000000000                                                                                                                                                   U001424  000000000000 0000000000005.27     02600 01000                  
00006660446180036DT67590675900000019828800109800000010180010924001193137900015797714051620230000001987013723000000000148957410039XXXXXX1484               2111111   NYV4 A7W303134084032282N840000000019870MNTC00    01DNKETOFUSION 8885968154    50069D    VS84000000019870 NP1599977547467   337CA1A72DT4184F0E3FD08  000000000+                D CD 12109                     000000000  N000000000 498   0000000000000.00 0000000.00   0000000.00                             000000000000000                                                                                                                                                     01424 G000000019870 0000000000005.07     02500 01000                  
00006670446180001P16759067590000001982880010980000001010000000000000000                             2000000000000000000000000              000000000000                    0000000000000000000000000                    000000000000                                                                                                                                                                                                                                                                                                                                                                                                                                                                                        
00006680446180037DT67590675900000019828800109800000010180010924001193137900015797722051620230000001987013723000000000148957485253XXXXXX7813               2111111   NYV4 A7W463134093040279N84000000001987074Z400    01DNKETOFUSION 8885968154    650507    VS84000000019870 NP1599977547467   8C41551F54T0292DF7799FE  000000000+                A CA 12106                     000000000  N000000000 492   0000000000000.00 0000000.00   0000000.00                             000000000000000                                                                                                                                                     01424 G000000019870 0000000000003.86     01890 01000                  
00006690446180001P16759067590000001982880010980000001010000000000000000                             2000000000000000000000000              000000000000                    0000000000000000000000000                    000000000000                                                                                                                                                                                                                                                                                                                                                                                                                                                                                        
00006700446180038DT67590675900000019828800109800000010180010976509753137900015797746051620230000001499013723000000000148957601100XXXXXX8531   BA00                  NY 4 07N743114877171664N840000000014990    00    01DNKETOFUSION 8885968154    01352R    DS84000000014990 N  599977547467070                         000000000+1015104910600   DCCDI11325498416  220157000000 000000000  0          460   0000000000000.00 0000000.00   0000000.00                             000000000000000                                                                                                                                                     01424  000000000000 0000000000003.14     02030 01000                  
00006710446180039DT67590675900000019828800109800000010180010987287283137900015797772051620230000001987013723000000000148957511152XXXXXX5957       ME03KE06MS02      NY 4607AMDJYY2DJZ0513  N840000000019870          81DNKETOFUSION 8885968154    653018    MD84000000019870 N  599977547467   F0476DBE88T9571D5DCCEC1  000000000+600450S00130    MDJ  00401                     000000000  N                0000000000000.00 0000000.00   0000000.00                             000000000000000                                                                                                                                                   U001424  000000000000 0000000000003.43     01650 01500                  
00006720446180040DT67590675900000019828800109800000010680010974001193137900015798816051720230000001799113723000000000148957410039XXXXXX7050               0000000   NYV4 07T383137484999195N840000000017991PSNK00    01CNKETOFUSION 8885968154    77957D    VS84000000017991 NP1599977547467   7A8C9593F6T2E5DEE2E2EFB  000000000+                D CD 00245                     000000000  N000000000 166   0000000000000.00 0000000.00   0000000.00                             000000000000000                                                                                                                                                     01424  000000017991-0000000000003.17     01760 00000                  
00006730446180001P16759067590000001982880010980000001060000000000000000                             2000000000000000000000000              000000000000                    0000000000000000000000000                    000000000000                                                                                                                                                                                                                                                                                                                                                                                                                                                                                        
00006740446180041DT67590675900000019828800109800000010680010987287283137900015798820051720230000000654813723000000000148957544927XXXXXX4593                         NY 4607AMDJPWM10G0517  N840000000006548          81CNKETOFUSION 8885968154    H90152    MD84000000006548 N  599977547467   059BC0CF1ATF94BB364FF86  000000000+600450S00130    MDJ  10828                     000000000  1                0000000000000.00 0000000.00   0000000.00                             000000000000000                                                                                                                                                     01424  000000000000 0000000000000.00     00000 00000                  
00006750446180042DT67590675900000019828800109800000010680010987287283137900015798838051720230000001987013723000000000148957544927XXXXXX4593                         NY 4607AMDJVVOZTN0517  N840000000019870          81CNKETOFUSION 8885968154    H03558    MD84000000019870 N  599977547467   059BC0CF1AT3D79826E8401  000000000+600450S00130    MDJ  10828                     000000000  1                0000000000000.00 0000000.00   0000000.00                             000000000000000                                                                                                                                                     01424  000000000000 0000000000000.00     00000 00000                  
00006760446180043DT67590675900000019828800109800000010680010974001193137900015798840051720230000002487013723000000000148957429371XXXXXX0485               0000000   NYV4 07T383137492408773N840000000024870XZMD00    01CNKETOFUSION 8885968154    332640    VD84000000024870 NP1599977547467   9D42754EEETEB8A115FE9D0  000000000+                F DF 08168                     000000000  N000000000 369   0000000000000.00 0000000.00   0000000.00                             000000000000000                                                                                                                                                     01424  000000024870 0000000000000.00     00000 00000                  
00006770446180001P16759067590000001982880010980000001060000000000000000                             2000000000000000000000000              000000000000                    0000000000000000000000000                    000000000000                                                                                                                                                                                                                                                                                                                                                                                                                                                                                        
00006780446180044DT67590675900000019828800109800000010680010987287283137900015798853051720230000000993513723000000000148957542418XXXXXX2540                         NY 4607AMPLZ0L27M0517  N840000000009935          81CNKETOFUSION 8885968154    972152    MC84000000009935 N  599977547467   5D8CEB58A8TEF019BAEBFA8  000000000+600450S00130    MPL  00564                     000000000  N                0000000000000.00 0000000.00   0000000.00                             000000000000000                                                                                                                                                     01424  000000000000-0000000000001.74     01750 00000                  
00006790446180045DT67590675900000019828800109800000010680010987287283137900015798861051720230000000695413723000000000148957537800XXXXXX1976                         NY 4607AMWEBJFX8A0517  N840000000006954          81CNKETOFUSION 8885968154    067219    MC84000000006954 N  599977547467   F9784DB543TF607728B77EB  000000000+600450S00130    MWE  00564                     000000000  N                0000000000000.00 0000000.00   0000000.00                             000000000000000                                                                                                                                                     01424  000000000000-0000000000001.22     01750 00000                  
00006800446180046DT67590675900000019828800109800000010680010974001193137900015798873051720230000002532413723000000000148957440263XXXXXX3181               0000000   NYV4 07T463137686795463N840000000025324QF2400    01CNKETOFUSION 8885968154    007174    VS84000000025324 NP1599977547467   47C10DF9BBTE36AD5DC1359  000000000+                D CD 00245                     000000000  N000000000 166   0000000000000.00 0000000.00   0000000.00                             000000000000000                                                                                                                                                     01424  000000025324-0000000000004.46     01760 00000                  
00006810446180001P16759067590000001982880010980000001060000000000000000                             2000000000000000000000000              000000000000                    0000000000000000000000000                    000000000000                                                                                                                                                                                                                                                                                                                                                                                                                                                                                        
00006820446180047DT67590675900000019828800109800000010680010974001193137900015798881051720230000000654813723000000000148957410039XXXXXX9445               0000000   NYV4 07T463137708485177N84000000000654836H700    01CNKETOFUSION 8885968154    08102D    VS84000000006548 NP1599977547467   A452A70898T2EDE61A45CB6  000000000+                D CD 00245                     000000000  N000000000 166   0000000000000.00 0000000.00   0000000.00                             000000000000000                                                                                                                                                     01424  000000006548-0000000000001.15     01760 00000                  
00006830446180001P16759067590000001982880010980000001060000000000000000                             2000000000000000000000000              000000000000                    0000000000000000000000000                    000000000000                                                                                                                                                                                                                                                                                                                                                                                                                                                                                        
00006840446180048DT67590675900000019828800109800000010680010974001193137900015798899051720230000000642813723000000000148957410039XXXXXX9445               0000000   NYV4 07T383137708504685N840000000006428XTMV00    01CNKETOFUSION 8885968154    09895D    VS84000000006428 NP1599977547467   A452A70898TE02D759CF918  000000000+                D CD 00245                     000000000  N000000000 166   0000000000000.00 0000000.00   0000000.00                             000000000000000                                                                                                                                                     01424  000000006428-0000000000001.13     01760 00000                  
00006850446180001P16759067590000001982880010980000001060000000000000000                             2000000000000000000000000              000000000000                    0000000000000000000000000                    000000000000                                                                                                                                                                                                                                                                                                                                                                                                                                                                                        
00006860446180049DT67590675900000019828800109800000010680010974001193137900015798907051720230000000519013723000000000148957410039XXXXXX9445               0000000   NYV4 07T383137708520324N8400000000051904WFV00    01CNKETOFUSION 8885968154    11479D    VS84000000005190 NP1599977547467   A452A70898T083F726DA38C  000000000+                D CD 00245                     000000000  N000000000 166   0000000000000.00 0000000.00   0000000.00                             000000000000000                                                                                                                                                     01424  000000005190-0000000000000.91     01760 00000                  
00006870446180001P16759067590000001982880010980000001060000000000000000                             2000000000000000000000000              000000000000                    0000000000000000000000000                    000000000000                                                                                                                                                                                                                                                                                                                                                                                                                                                                                        
00006880446180050DT67590675900000019828800109800000010680010974001193137900015798915051720230000000198813723000000000148957410039XXXXXX9445               0000000   NYV4 07T303137708542887N840000000001988B3DV00    01CNKETOFUSION 8885968154    12981D    VS84000000001988 NP1599977547467   A452A70898T58CE65BECE76  000000000+                D CD 00245                     000000000  N000000000 166   0000000000000.00 0000000.00   0000000.00                             000000000000000                                                                                                                                                     01424  000000001988-0000000000000.35     01760 00000                  
00006890446180001P16759067590000001982880010980000001060000000000000000                             2000000000000000000000000              000000000000                    0000000000000000000000000                    000000000000                                                                                                                                                                                                                                                                                                                                                                                                                                                                                        
00006900446180051DT67590675900000019828800109800000010680010976509753137900015798926051720230000001987013723000000000148957601101XXXXXX2380   BA00                  NY 4 07N743118093611870N840000000019870    00    01CNKETOFUSION 8885968154    01745R    DS84000000019870 N  599977547467070                         000000000+1015104910600   DCCDI01022501602  152240200000 000000000  0          134   0000000000000.00 0000000.00   0000000.00                             000000000000000                                                                                                                                                     01424  000000000000-0000000000003.48     01750 00000                  
00006910446180052BH6759067590000002325980011680000090170517202313723000000000025598    0000090001462123Y8001166759C05182023                                                                                                                                                                                                                                                                                                                                                                                                                                                                                                                                                                                                 
00006920446180053DT67590675900000023259800116800000010180011624001193137900014621139051620230000002178913723000000000025598426938XXXXXX6924               2111111   NYV4 A7W383137040507389N8400000000217897GMJ00    01DNGFORCEHEMP844-258-9322   016544    VS84000000021789 NP1549977768166   C8285267CCT59660D4CE93E  000000000+                B CB 12107                     000000000  N000000000 494   0000000000000.00 0000000.00   0000000.00                             000000000000000                                                                                                                                                     01424 G000000021789 0000000000004.54     02040 01000                  
00006930446180001P16759067590000002325980011680000001010000000000000000                             2000000000000000000000000              000000000000                    0000000000000000000000000                    000000000000                                                                                                                                                                                                                                                                                                                                                                                                                                                                                        
00006940446180054DT67590675900000023259800116800000010180011687287283137900014621163051720230000001306713723000000000025598527521XXXXXX1024       ME03KE06MS02      NY 4607AMDJUEVOLV0517  N840000000013067          81DNGFORCEHEMP844-258-9322   150476    MD84000000013067 N  549977768166   B668BC63EFT5CA7157197BD  000000000+600450S00130    MDJ  10813                     000000000  1                0000000000000.00 0000000.00   0000000.00                             000000000000000                                                                                                                                                   U001424  000000000000 0000000000000.29     00050 02200                  
00006950446180055DT67590675900000023259800116800000010680011687287283137900014621221051720230000000653313723000000000025598512107XXXXXX0336                         NY 4607AMCCXW7D7I0517  N840000000006533          81CNGFORCEHEMP844-258-9322   017528    MC84000000006533 N  549977768166   46C121283BTAA80094619ED  000000000+600450S00130    MCC  00565                     000000000  N                0000000000000.00 0000000.00   0000000.00                             000000000000000                                                                                                                                                     01424  000000000000-0000000000001.14     01750 00000                  
00006960446180056DT67590675900000023259800116800000010680011687287283137900014621239051720230000000272513723000000000025598512107XXXXXX0336                         NY 4607AMCCMRUZ8A0517  N840000000002725          81CNGFORCEHEMP844-258-9322   017753    MC84000000002725 N  549977768166   46C121283BT57CEFCD9A2BB  000000000+600450S00130    MCC  00565                     000000000  N                0000000000000.00 0000000.00   0000000.00                             000000000000000                                                                                                                                                     01424  000000000000-0000000000000.48     01750 00000                  
00006970446180057BH6759067590000001619680010280000090170517202313723000000000000428    0000090001371352Y8001026759C05182023                                                                                                                                                                                                                                                                                                                                                                                                                                                                                                                                                                                                 
00006980446180058DT67590675900000016196800102800000010680010287287283137900013713540051720230000002487013723000000000000428546126XXXXXX4428                         NY94607N         0517  N840000000000000          81CNGREEN OTTER LLC                    MD84000000024870 N  549977424386   6E9D670E81T58DFA55FA4AB  000000000+600450S00130    MDJ  00560                     000000000  N                0000000000000.00 0000000.00   0000000.00                             000000000000000                                                                                                                                                     01424  000000000000 0000000000000.00     00000 00000                  
00006990446180059DT67590675900000016196800102800000010180010287287283137900013713516051720230000001987013723000000000000428514865XXXXXX5413       ME03KE06MS02      NY 4607AMDJUBKULV0517  N840000000019870          81DNGREEN OTTER LLC          656134    MD84000000019870 N  549977424386   CF351C3D3DTC4F577641718  000000000+600450S00130    MDJ  00401                     000000000  N                0000000000000.00 0000000.00   0000000.00                             000000000000000                                                                                                                                                   U001424  000000000000 0000000000003.43     01650 01500                  
00007000446180060DT67590675900000016196800102800000010180010224001193137900013713523051720230000000542813723000000000000428444796XXXXXX2270               2111111   NYV4 A7W463137704976578N840000000005428JRC400    01DNGREEN OTTER LLC          017477    VS84000000005428 NP1549977424386   5ED6844333T554A0CB5C3DE  000000000+                A CA 12106                     000000000  N000000000 492   0000000000000.00 0000000.00   0000000.00                             000000000000000                                                                                                                                                     01424 G000000005428 0000000000001.13     01890 01000                  
00007010446180001P16759067590000001619680010280000001010000000000000000                             2000000000000000000000000              000000000000                    0000000000000000000000000                    000000000000                                                                                                                                                                                                                                                                                                                                                                                                                                                                                        
00007020446180061BH6759067590000001516480088880000090170517202313723000000000237310    0000090001817596Y8008886759C05182023                                                                                                                                                                                                                                                                                                                                                                                                                                                                                                                                                                                                 
00007030446180062DT67590675900000015164800888800000010180088887287283137900018173393051620230000001499013723000000000237310514750XXXXXX2921       ME03KE06MS02      NY 4607AMDJGR72W10512  N840000000014990          81DNKETOFUSION833-923-3587   530388    MD84000000014990 N  599977360677   45E7FA8550T630F1D425DE2  000000000+600450S00130    MDJ  10813                     000000000  1                0000000000000.00 0000000.00   0000000.00                             000000000000000                                                                                                                                                   U001424  000000000000 0000000000000.29     00050 02200                  
00007040446180063DT67590675900000015164800888800000010180088824001193137900018173418051620230000002487013723000000000237310410064XXXXXX5187               2111111   NYV4 A7W303133257655851N840000000024870KB9R00    01DNKETOFUSION833-923-3587   07774A    VS84000000024870 NP1599977360677   651E7E3447T7DC3EA1FB696  000000000+                A CA 12106                     000000000  N000000000 492   0000000000000.00 0000000.00   0000000.00                             000000000000000                                                                                                                                                     01424 G000000024870 0000000000004.80     01890 01000                  
00007050446180001P16759067590000001516480088880000001010000000000000000                             2000000000000000000000000              000000000000                    0000000000000000000000000                    000000000000                                                                                                                                                                                                                                                                                                                                                                                                                                                                                        
00007060446180064DT67590675900000015164800888800000010180088824001193137900018173426051620230000002487013723000000000237310475824XXXXXX6409               2111111   NYV4 A7W303133397531632N840000000024870R4GB00    01DNKETOFUSION833-923-3587   013699    VD84000000024870 NP1599977360677   7ADB5809AETB6E5D974E130  000000000+                F DF 10420                     000000000  Y000000000 338   0000000000000.00 0000000.00   0000000.00                             000000000000000                                                                                                                                                     01424 G000000024870 0000000000000.34     00050 02200                  
00007070446180001P16759067590000001516480088880000001010000000000000000                             2000000000000000000000000              000000000000                    0000000000000000000000000                    000000000000                                                                                                                                                                                                                                                                                                                                                                                                                                                                                        
00007080446180065DT67590675900000015164800888800000010180088824001193137900018173434051620230000001194813723000000000237310402348XXXXXX1121               2111111   NYV4 A7W303133397649729N84000000001194857QG00    01DNKETOFUSION833-923-3587   050244    VS84000000011948 NP1599977360677   EB134BB286T7AB970847607  000000000+                C CC 12108                     000000000  N000000000 496   0000000000000.00 0000000.00   0000000.00                             000000000000000                                                                                                                                                     01424 G000000011948 0000000000002.55     02050 01000                  
00007090446180001P16759067590000001516480088880000001010000000000000000                             2000000000000000000000000              000000000000                    0000000000000000000000000                    000000000000                                                                                                                                                                                                                                                                                                                                                                                                                                                                                        
00007100446180066DT67590675900000015164800888800000010180088887287283137900018173492051620230000002487013723000000000237310522914XXXXXX3418       ME03KE06MS02      NY 4607AMDJK1PIAG0513  N840000000024870          81DNKETOFUSION833-923-3587   071505    MD84000000024870 N  599977360677   31D809549FT6B42365968AA  000000000+600450S00130    MDJ  10813                     000000000  1                0000000000000.00 0000000.00   0000000.00                             000000000000000                                                                                                                                                   U001424  000000000000 0000000000000.34     00050 02200                  
00007110446180067DT67590675900000015164800888800000010180088887287283137900018173633051620230000001987013723000000000237310514377XXXXXX4452       ME03KE06MS02      NY 4607AMDJFTPQ6X0513  N840000000019870          81DNKETOFUSION833-923-3587   16YPWE    MD84000000019870 N  599977360677   D15023A25DT172BDAC318E2  000000000+600450S00130    MDJ  00401                     000000000  N                0000000000000.00 0000000.00   0000000.00                             000000000000000                                                                                                                                                   U001424  000000000000 0000000000003.43     01650 01500                  
00007120446180068DT67590675900000015164800888800000010180088824001193137900018173657051620230000001987013723000000000237310448915XXXXXX0391               2111111   NYV4 A7W583133624054553N840000000019870JMD300    01DNKETOFUSION833-923-3587   013539    VS84000000019870 NP1599977360677   6ED65E2617TB3B0428EE82D  000000000+                D CD 12109                     000000000  N000000000 498   0000000000000.00 0000000.00   0000000.00                             000000000000000                                                                                                                                                     01424 G000000019870 0000000000005.07     02500 01000                  
00007130446180001P16759067590000001516480088880000001010000000000000000                             2000000000000000000000000              000000000000                    0000000000000000000000000                    000000000000                                                                                                                                                                                                                                                                                                                                                                                                                                                                                        
00007140446180069DT67590675900000015164800888800000010180088824001193137900018173772051620230000001987013723000000000237310410040XXXXXX3619               2111111   NYV4 A7W583133723058231N8400000000198705NJ500    01DNKETOFUSION833-923-3587   95438G    VB84000000019870 NP1599977360677   FB7E1BDA1ETFC21E3B2A4A0  000000000+                G CG 00690                     000000000  N000000000 231   0000000000000.00 0000000.00   0000000.00                             000000000000000                                                                                                                                                     01424 G000000019870 0000000000005.37     02650 01000                  
00007150446180001P16759067590000001516480088880000001010000000000000000                             2000000000000000000000000              000000000000                    0000000000000000000000000                    000000000000                                                                                                                                                                                                                                                                                                                                                                                                                                                                                        
00007160446180070DT67590675900000015164800888800000010180088887287283137900018173799051620230000001987013723000000000237310528072XXXXXX2889       ME03KE06PT01      NY 4607AMCWK9SON30513  N840000000019870          81DNKETOFUSION833-923-3587   01110S    MC84000000019870 N  599977360677   0FB251CA5CTFD7955B41CA9  000000000+600450S00130    MCW  02182                     000000000  N                0000000000000.00 0000000.00   0000000.00                             000000000000000                                                                                                                                                   U001424  000000000000 0000000000005.27     02600 01000                  
00007170446180071DT67590675900000015164800888800000010180088824001193137900018173806051620230000002487013723000000000237310443040XXXXXX7489               2111111   NYV4 A7W463133759050527N8400000000248706VQJ00    01DNKETOFUSION833-923-3587   387925    VD84000000024870 NP1599977360677   BA7471DBD3TAF6D51D42CDB  000000000+                F DF 10420                     000000000  Y000000000 338   0000000000000.00 0000000.00   0000000.00                             000000000000000                                                                                                                                                     01424 G000000024870 0000000000000.34     00050 02200                  
00007180446180001P16759067590000001516480088880000001010000000000000000                             2000000000000000000000000              000000000000                    0000000000000000000000000                    000000000000                                                                                                                                                                                                                                                                                                                                                                                                                                                                                        
00007190446180072DT67590675900000015164800888800000010180088887287283137900018173849051620230000001194813723000000000237310546633XXXXXX4611       ME03KE06PT01      NY 4607AMCWF0D4I50513  N840000000011948          81DNKETOFUSION833-923-3587   03981Z    MC84000000011948 N  599977360677   14FE1C6A71T6D912C2853CC  000000000+600450S00130    MCW  00642                     000000000  N                0000000000000.00 0000000.00   0000000.00                             000000000000000                                                                                                                                                   U001424  000000000000 0000000000002.73     02200 01000                  
00007200446180073DT67590675900000015164800888800000010180088824001193137900018173855051620230000001194813723000000000237310449300XXXXXX8884               2111111   NYV4 A7W583133829323878N840000000011948L5J200    01DNKETOFUSION833-923-3587   336449    VS84000000011948 NP1599977360677   82DE8441A7T48755E654D18  000000000+                A CA 12106                     000000000  N000000000 492   0000000000000.00 0000000.00   0000000.00                             000000000000000                                                                                                                                                     01424 G000000011948 0000000000002.36     01890 01000                  
00007210446180001P16759067590000001516480088880000001010000000000000000                             2000000000000000000000000              000000000000                    0000000000000000000000000                    000000000000                                                                                                                                                                                                                                                                                                                                                                                                                                                                                        
00007220446180074DT67590675900000015164800888800000010180088887287283137900018173864051620230000001987013723000000000237310510169XXXXXX3860       ME03KE06MS02      NY 4607AMCSHENCI50513  N840000000019870          81DNKETOFUSION833-923-3587   00355B    MC84000000019870 N  599977360677   900FBB2D75TAB5D0F1358CE  000000000+600450S00130    MCS  00580                     000000000  N                0000000000000.00 0000000.00   0000000.00                             000000000000000                                                                                                                                                   U001424  000000000000 0000000000004.27     02100 01000                  
00007230446180075DT67590675900000015164800888800000010180088887287283137900018173880051620230000001194813723000000000237310511377XXXXXX5381       ME03KE06MS02      NY 4607AMDJZRZFPK0513  N840000000011948          81DNKETOFUSION833-923-3587   654007    MD84000000011948 N  599977360677   CEBC06F6F8TFE85FF0861C6  000000000+600450S00130    MDJ  00401                     000000000  N                0000000000000.00 0000000.00   0000000.00                             000000000000000                                                                                                                                                   U001424  000000000000 0000000000002.12     01650 01500                  
00007240446180076DT67590675900000015164800888800000010180088887287283137900018173922051620230000001499013723000000000237310545510XXXXXX6295       ME03KE06MS02      NY 4607AMDSK81RPK0513  N840000000014990          81DNKETOFUSION833-923-3587   051675    MD84000000014990 N  599977360677   33B5EB5661T16BE836760A2  000000000+600450S00130    MDS  10813                     000000000  1                0000000000000.00 0000000.00   0000000.00                             000000000000000                                                                                                                                                   U001424  000000000000 0000000000000.29     00050 02200                  
00007250446180077DT67590675900000015164800888800000010180088824001193137900018173954051620230000001194813723000000000237310435546XXXXXX1567               2111111   NYV4 A7W383134033056444N8400000000119482NMX00    01DNKETOFUSION833-923-3587   075083    VD84000000011948 NP1599977360677   FE68F9E16DTA9C469890F8B  000000000+                F DF 10420                     000000000  Y000000000 338   0000000000000.00 0000000.00   0000000.00                             000000000000000                                                                                                                                                     01424 G000000011948 0000000000000.28     00050 02200                  
00007260446180001P16759067590000001516480088880000001010000000000000000                             2000000000000000000000000              000000000000                    0000000000000000000000000                    000000000000                                                                                                                                                                                                                                                                                                                                                                                                                                                                                        
00007270446180078DT67590675900000015164800888800000010180088876509753137900018173978051620230000001987013723000000000237310601100XXXXXX4019   BA00                  NY 4 07N803114813051301N840000000019870    00    01DNKETOFUSION833-923-3587   01311R    DS84000000019870 N  599977360677070                         000000000+1015104910600   DCCDI11325004409  201505000000 000000000  0          460   0000000000000.00 0000000.00   0000000.00                             000000000000000                                                                                                                                                     01424  000000000000 0000000000004.13     02030 01000                  
00007280446180079DT67590675900000015164800888800000010180088887287283137900018173989051620230000001394813723000000000237310518941XXXXXX7332       ME03KE06MS02      NY 4607AMWEWVGOJZ0513  N840000000013948          81DNKETOFUSION833-923-3587   91688Z    MC84000000013948 N  599977360677   4FBF97E385T2FE4090F9FA2  000000000+600450S00130    MWE  00737                     000000000  N                0000000000000.00 0000000.00   0000000.00                             000000000000000                                                                                                                                                   U001424  000000000000 0000000000003.73     02600 01000                  
00007290446180080DT67590675900000015164800888800000010180088887287283137900018174003051620230000002487013723000000000237310546616XXXXXX3034       ME03KE06PT01      NY 4607AMCWD2ZOJ10513  N840000000024870          81DNKETOFUSION833-923-3587   35585Z    MC84000000024870 N  599977360677   D98E65ADE1T14B03948C3E0  000000000+600450S00130    MCW  00642                     000000000  N                0000000000000.00 0000000.00   0000000.00                             000000000000000                                                                                                                                                   U001424  000000000000 0000000000005.57     02200 01000                  
00007300446180081DT67590675900000015164800888800000010180088887287283137900018174029051620230000001987013723000000000237310536049XXXXXX9847       ME03KE06MS02      NY 4607AMDSSNG1JZ0513  N840000000019870          81DNKETOFUSION833-923-3587   926431    MD84000000019870 N  599977360677   8BE22DD4CET2ED181029BD4  000000000+600450S00130    MDS  00401                     000000000  N                0000000000000.00 0000000.00   0000000.00                             000000000000000                                                                                                                                                   U001424  000000000000 0000000000003.43     01650 01500                  
00007310446180082DT67590675900000015164800888800000010180088887287283137900018174045051620230000001987013723000000000237310542418XXXXXX6543       ME03KE06MS02      NY 4607AMPLSX1PJZ0513  N840000000019870          81DNKETOFUSION833-923-3587   86408B    MC84000000019870 N  599977360677   484FB7A4D4TC4779216E358  000000000+600450S00130    MPL  00580                     000000000  N                0000000000000.00 0000000.00   0000000.00                             000000000000000                                                                                                                                                   U001424  000000000000 0000000000004.27     02100 01000                  
00007320446180083DT67590675900000015164800888800000010180088824001193137900018174069051620230000001799113723000000000237310442507XXXXXX1390               2111111   NYV4 A7W463134096064834N840000000017991RLZJ00    01DNKETOFUSION833-923-3587   00192C    VS84000000017991 NP1599977360677   53C5555206T75604C188FB3  000000000+                C CC 12108                     000000000  N000000000 496   0000000000000.00 0000000.00   0000000.00                             000000000000000                                                                                                                                                     01424 G000000017991 0000000000003.79     02050 01000                  
00007330446180001P16759067590000001516480088880000001010000000000000000                             2000000000000000000000000              000000000000                    0000000000000000000000000                    000000000000                                                                                                                                                                                                                                                                                                                                                                                                                                                                                        
00007340446180084DT67590675900000015164800888800000010180088824001193137900018174077051620230000001987013723000000000237310414718XXXXXX8145               2111111   NYV4 A7W463134102056437N840000000019870485W00    01DNKETOFUSION833-923-3587   013921    VS84000000019870 NP1599977360677   DA6B0775E7TEF2559C32A9C  000000000+                D CD 12109                     000000000  N000000000 498   0000000000000.00 0000000.00   0000000.00                             000000000000000                                                                                                                                                     01424 G000000019870 0000000000005.07     02500 01000                  
00007350446180001P16759067590000001516480088880000001010000000000000000                             2000000000000000000000000              000000000000                    0000000000000000000000000                    000000000000                                                                                                                                                                                                                                                                                                                                                                                                                                                                                        
00007360446180085DT67590675900000015164800888800000010180088887287283137900018174094051620230000002487013723000000000237310542418XXXXXX5134       ME03KE06MS02      NY 4607AMPLTNDMJZ0513  N840000000024870          81DNKETOFUSION833-923-3587   63430B    MC84000000024870 N  599977360677   B396C5898DT29EA47E9FBDE  000000000+600450S00130    MPL  00580                     000000000  N                0000000000000.00 0000000.00   0000000.00                             000000000000000                                                                                                                                                   U001424  000000000000 0000000000005.32     02100 01000                  
00007370446180086DT67590675900000015164800888800000010680088874001193137900018175574051720230000000794813723000000000237310410039XXXXXX2542               0000000   NYV4 07T303137488246253N840000000007948KF2S00    01CNKETOFUSION833-923-3587   28605D    VS84000000007948 NP1599977360677   4589B87E3CT151AEE752342  000000000+                D CD 00245                     000000000  N000000000 166   0000000000000.00 0000000.00   0000000.00                             000000000000000                                                                                                                                                     01424  000000007948-0000000000001.40     01760 00000                  
00007380446180001P16759067590000001516480088880000001060000000000000000                             2000000000000000000000000              000000000000                    0000000000000000000000000                    000000000000                                                                                                                                                                                                                                                                                                                                                                                                                                                                                        
00007390446180087DT67590675900000015164800888800000010680088887287283137900018175588051720230000001987013723000000000237310546633XXXXXX2951                         NY 4607AMCWVYOE0F0517  N840000000019870          81CNKETOFUSION833-923-3587   018092    MC84000000019870 N  599977360677   AA973BCA36T15A29AE368BE  000000000+600450S00130    MCW  00564                     000000000  N                0000000000000.00 0000000.00   0000000.00                             000000000000000                                                                                                                                                     01424  000000000000-0000000000003.48     01750 00000                  
00007400446180088DT67590675900000015164800888800000010680088887287283137900018175596051720230000000654813723000000000237310546533XXXXXX8250                         NY 4607AMDJSYVCUY0517  N840000000006548          81CNKETOFUSION833-923-3587   083905    MD84000000006548 N  599977360677   07538D59D1T7EE0E300343F  000000000+600450S00130    MDJ  10828                     000000000  1                0000000000000.00 0000000.00   0000000.00                             000000000000000                                                                                                                                                     01424  000000000000 0000000000000.00     00000 00000                  
00007410446180089DT67590675900000015164800888800000010680088887287283137900018175604051720230000000642813723000000000237310546533XXXXXX8250                         NY 4607AMDJSZA2UY0517  N840000000006428          81CNKETOFUSION833-923-3587   083948    MD84000000006428 N  599977360677   07538D59D1TAEF1E930AD6A  000000000+600450S00130    MDJ  10828                     000000000  1                0000000000000.00 0000000.00   0000000.00                             000000000000000                                                                                                                                                     01424  000000000000 0000000000000.00     00000 00000                  
00007420446180090DT67590675900000015164800888800000010680088887287283137900018176032051720230000002255013723000000000237310559578XXXXXX6660                         NY94607N         0517  N840000000000000          81CNKETOFUSION833-923-3587             MC84000000022550 N  599977360677   63C31B29D3TA643ED21A46A  000000000+600450S00130    MCW  00564                     000000000  N                0000000000000.00 0000000.00   0000000.00                             000000000000000                                                                                                                                                     01424  000000000000-0000000000003.95     01750 00000                  
00007430446180091DT67590675900000015164800888800000010680088874001193137900018175673051720230000000629613723000000000237310442507XXXXXX1390               0000000   NYV4 07T583137605025909N840000000006296KJX900    01CNKETOFUSION833-923-3587   04669C    VS84000000006296 NP1599977360677   53C5555206T75604C188FB3  000000000+                C CC 00245                     000000000  N000000000 166   0000000000000.00 0000000.00   0000000.00                             000000000000000                                                                                                                                                     01424  000000006296-0000000000001.11     01760 00000                  
00007440446180001P16759067590000001516480088880000001060000000000000000                             2000000000000000000000000              000000000000                    0000000000000000000000000                    000000000000                                                                                                                                                                                                                                                                                                                                                                                                                                                                                        
00007450446180092DT67590675900000015164800888800000010680088874001193137900018175715051720230000001987013723000000000237310440066XXXXXX4692               0000000   NYV4 07T383137645944309N840000000019870F27W00    01CNKETOFUSION833-923-3587   05598B    VS84000000019870 NP1599977360677   0E50BEDF29T6D02D772D0CB  000000000+                B CB 00245                     000000000  N000000000 166   0000000000000.00 0000000.00   0000000.00                             000000000000000                                                                                                                                                     01424  000000019870-0000000000003.50     01760 00000                  
00007460446180001P16759067590000001516480088880000001060000000000000000                             2000000000000000000000000              000000000000                    0000000000000000000000000                    000000000000                                                                                                                                                                                                                                                                                                                                                                                                                                                                                        
00007470446180093DT67590675900000015164800888800000010680088874001193137900018175723051720230000001394813723000000000237310410039XXXXXX2759               0000000   NYV4 07T583137646795979N840000000013948FQDW00    01CNKETOFUSION833-923-3587   65909C    VS84000000013948 NP1599977360677   40770FDD32T2E185FF2E979  000000000+                C CC 00245                     000000000  N000000000 166   0000000000000.00 0000000.00   0000000.00                             000000000000000                                                                                                                                                     01424  000000013948-0000000000002.45     01760 00000                  
00007480446180001P16759067590000001516480088880000001060000000000000000                             2000000000000000000000000              000000000000                    0000000000000000000000000                    000000000000                                                                                                                                                                                                                                                                                                                                                                                                                                                                                        
00007490446180094DT67590675900000015164800888800000010680088887287283137900018175752051720230000001987013723000000000237310549460XXXXXX1595                         NY 4607AMCWI70Y8A0517  N840000000019870          81CNKETOFUSION833-923-3587   017716    MC84000000019870 N  599977360677   3436DF9164T082149EDEF3F  000000000+600450S00130    MCW  00564                     000000000  N                0000000000000.00 0000000.00   0000000.00                             000000000000000                                                                                                                                                     01424  000000000000-0000000000003.48     01750 00000                  
00007500446180095DT67590675900000015164800888800000010680088887287283137900018175844051720230000001987013723000000000237310523081XXXXXX4368                         NY 4607AMPLSJY6XM0517  N840000000019870          81CNKETOFUSION833-923-3587   025192    MC84000000019870 N  599977360677   05602AB73ETFEFCA7F01473  000000000+600450S00130    MPL  00564                     000000000  N                0000000000000.00 0000000.00   0000000.00                             000000000000000                                                                                                                                                     01424  000000000000-0000000000003.48     01750 00000                  
00007510446180096DT67590675900000015164800888800000010680088887287283137900018175851051720230000001194813723000000000237310514021XXXXXX1231                         NY 4607AMPLEKXQ8A0517  N840000000011948          81CNKETOFUSION833-923-3587   040979    MC84000000011948 N  599977360677   A5B4F2F039TDF769FE22558  000000000+600450S00130    MPL  00564                     000000000  N                0000000000000.00 0000000.00   0000000.00                             000000000000000                                                                                                                                                     01424  000000000000-0000000000002.09     01750 00000                  
00007520446180097DT67590675900000015164800888800000010680088887287283137900018175877051720230000001987013723000000000237310546379XXXXXX6671                         NY 4607AMDJKQ0RZS0517  N840000000019870          81CNKETOFUSION833-923-3587   019281    MD84000000019870 N  599977360677   B2315C3E65TD72D2C3ACCF7  000000000+600450S00130    MDJ  00560                     000000000  N                0000000000000.00 0000000.00   0000000.00                             000000000000000                                                                                                                                                     01424  000000000000 0000000000000.00     00000 00000                  
00007530446180098DT67590675900000015164800888800000010680088874001193137900018175897051720230000000629613723000000000237310410280XXXXXX0327               0000000   NYV4 07T463137772701788N8400000000062966FLJ00    01CNKETOFUSION833-923-3587   017363    VS84000000006296 NP1599977360677   18937F7014T87FE6E20C418  000000000+                B CB 00245                     000000000  N000000000 166   0000000000000.00 0000000.00   0000000.00                             000000000000000                                                                                                                                                     01424  000000006296-0000000000001.11     01760 00000                  
00007540446180001P16759067590000001516480088880000001060000000000000000                             2000000000000000000000000              000000000000                    0000000000000000000000000                    000000000000                                                                                                                                                                                                                                                                                                                                                                                                                                                                                        
