00024130304110002BH6759067590000001427480010280000090170713202319423000000000099516    0000090001489818Y8001026759C07142023148                                                                                                                                                                                                                                                                                                                                                                                                                                                                                                                                                                                              
00024140304110003DT67590675900000014274800102800000010180010287287283194900014897243071220230000002126119423000000000099516517805XXXXXX1876       ME03KE06MS02      NY 4607AMPL04M85I0709  N840000000021261          81DNCBD8666317293            02092B    MC84000000021261 NDR549977145232   2C61475A6FT10467D7346C3  000000000+600450S00130    MPL  00580                     000000000  N                0000000000000.00 0000000.00   0000000.00                             000000000000000                                                                                                                                                   U001424  000000000000 0000000000004.56     02100 01000                  
00024150304110003DR6759067590000001427480010280000001012C61475A6FT10467D7346C3  Z000000000000                                                                                                                                                                                                                                                                                                                                                                                                                                                                                                                                                                                                                               
00024160304110001G2675906759000000142748001028000000101866-6317293              GA           9 L               210                                      NNNN           210000000000000000000000000                        7                                          77145232                                                                                                                                                                                                                                                                                                                                                                                                                                               
00024170304110004DT67590675900000014274800102800000010180010287287283194900014897326071220230000001611519423000000000099516518941XXXXXX2369       ME03KE06MS02      NY 4607AMWER23V4S0709  N840000000016115          81DNCBD8666317293            88117Z    MC84000000016115 NDR549977145232   AF5D28EE00TCD258B6B07B2  000000000+600450S00130    MWE  00737                     000000000  N                0000000000000.00 0000000.00   0000000.00                             000000000000000                                                                                                                                                   U001424  000000000000 0000000000004.29     02600 01000                  
00024180304110004DR675906759000000142748001028000000101AF5D28EE00TCD258B6B07B2  Y000000000000                                                                                                                                                                                                                                                                                                                                                                                                                                                                                                                                                                                                                               
00024190304110001G2675906759000000142748001028000000101866-6317293              GA           9 E               210                                      NNNN           210000000000000000000000000                        7                                          77145232                                                                                                                                                                                                                                                                                                                                                                                                                                               
00024200304110005DT67590675900000014274800102800000010180010224001193194900014897358071220230000001200819423000000000099516417795XXXXXX2968               2111111   NYV4 A7W583190351102526N840000000012008GPB800    01DNCBD8666317293            409054    VB84000000012008 NDR549977145232   390BD0DEF7TCE00EF78AC55  000000000+                G1CG108010                     000000000  N000000000 390   0000000000000.00 0000000.00   0000000.00                             000000000000000                                                                                                                                                     01424 G000000012008 0000000000003.52     02850 01000                  
00024210304110005DR675906759000000142748001028000000101390BD0DEF7TCE00EF78AC55  Y000000012008                 P1                                                                                                                                                                                                                                                                                                                                                                                                                                                                                                                                                                                                            
00024220304110001P16759067590000001427480010280000001010000000000000000                             2000000000000000000000000              000000000000                    0000000000000000000000000                    000000000000                                                                                                                                                                                                                                                                                                                                                                                                                                                                                        
00024230304110002G2675906759000000142748001028000000101866-6317293              GA           9 C                00                                      NNNN   Y                      000000000000                                                                   77145232                                                                                                                                                                                                                                                                                                                                                                                                                                               
00024240304110006DT67590675900000014274800102800000010180010287287283194900014897573071220230000002118619423000000000099516536217XXXXXX7474       ME03KE06MS02      NY 4607AMDSG25FM80709  N840000000021186          81DNCBD8666317293            666173    MD84000000021186 NDR549977145232   DE1C92C428T30A79785519C  000000000+600450S00130    MDS  00401                     000000000  N                0000000000000.00 0000000.00   0000000.00                             000000000000000                                                                                                                                                   U001424  000000000000 0000000000003.65     01650 01500                  
00024250304110006DR675906759000000142748001028000000101DE1C92C428T30A79785519C  Y000000000000                                                                                                                                                                                                                                                                                                                                                                                                                                                                                                                                                                                                                               
00024260304110001G2675906759000000142748001028000000101866-6317293              GA           9 S               210                                      NNNN           210000000000000000000000000                                                                   77145232                                                                                                                                                                                                                                                                                                                                                                                                                                               
00024270304110007DT67590675900000014274800102800000010180010273011003194900014897701071220230000001987019423000000000099516372763XXXXX6003                          NY 4 07N007546094134074N840000000019870          01DNCBD8666317293            275230    AM84000000019870 Y  549977145232                            000000000+6004S0S00130 258     11262                     000000000                   0000000000000.00 0000000.00   0000000.00                             000000000000000 61248972086759675900000014274 CBD8666317293            2993 SANDY PLAINS RD STE 6787614584      30066     EMORRIS@GREENOTTERCBD.COM                 01324  000000000000 0000000000003.97     01950 00000                  
00024280304110001G2675906759000000142748001028000000101MARIETTA                 GA           9                  00                                      NNNN                          000000000000                                                                   77145232                                                                                                                                                                                                                                                                                                                                                                                                                                               
00024290304110008DT67590675900000014274800102800000010180010287287283194900014897789071220230000001284919423000000000099516531266XXXXXX5461       ME03KE06MS02      NY 4607AMDJ1MMU490709  N840000000012849          81DNCBD8666317293            160733    MD84000000012849 NDR549977145232   3260016FF9T42B6E8F907D5  000000000+600450S00130    MDJ  10813                     000000000  1                0000000000000.00 0000000.00   0000000.00                             000000000000000                                                                                                                                                   U001424  000000000000 0000000000000.28     00050 02200                  
00024300304110008DR6759067590000001427480010280000001013260016FF9T42B6E8F907D5  Y000000000000                                                                                                                                                                                                                                                                                                                                                                                                                                                                                                                                                                                                                               
00024310304110001G2675906759000000142748001028000000101866-6317293              GA           9 J               210                                      NNNN           210000000000000000000000000                        7                                          77145232                                                                                                                                                                                                                                                                                                                                                                                                                                               
00024320304110009DT67590675900000014274800102800000010180010287287283194900014897821071220230000001987019423000000000099516518941XXXXXX2576       ME03KE06MS02      NY 4607AMWE2C0Y490709  N840000000019870          81DNCBD8666317293            31551Z    MC84000000019870 NDR549977145232   F8DF546BB4TED8EC286EDA7  000000000+600450S00130    MWE  00737                     000000000  N                0000000000000.00 0000000.00   0000000.00                             000000000000000                                                                                                                                                   U001424  000000000000 0000000000005.27     02600 01000                  
00024330304110009DR675906759000000142748001028000000101F8DF546BB4TED8EC286EDA7  Y000000000000                                                                                                                                                                                                                                                                                                                                                                                                                                                                                                                                                                                                                               
00024340304110001G2675906759000000142748001028000000101866-6317293              GA           9 E               210                                      NNNN           210000000000000000000000000                        7                                          77145232                                                                                                                                                                                                                                                                                                                                                                                                                                               
00024350304110010DT67590675900000014274800102800000010180010287287283194900014897854071220230000001956119423000000000099516527521XXXXXX1018       ME03KE06MS02      NY 4607AMDJQYC5PN0709  N840000000019561          81DNCBD8666317293            163852    MD84000000019561 NDR549977145232   CC417502E2T90C95EA91561  000000000+600450S00130    MDJ  10813                     000000000  1                0000000000000.00 0000000.00   0000000.00                             000000000000000                                                                                                                                                   U001424  000000000000 0000000000000.32     00050 02200                  
00024360304110010DR675906759000000142748001028000000101CC417502E2T90C95EA91561  Y000000000000                                                                                                                                                                                                                                                                                                                                                                                                                                                                                                                                                                                                                               
00024370304110001G2675906759000000142748001028000000101866-6317293              GA           9 J               210                                      NNNN           210000000000000000000000000                        7                                          77145232                                                                                                                                                                                                                                                                                                                                                                                                                                               
00024380304110011DT67590675900000014274800102800000010680010287287283194900014898167071320230000001200819423000000000099516512230XXXXXX1616                         NY 4607AMWELBHC850713  N840000000012008          81CNCBD8666317293            391029    MC84000000012008 NDR549977145232   8E2A10E26FT80DB1317C9E1  000000000+600450S00130    MWE  00565                     000000000  N                0000000000000.00 0000000.00   0000000.00                             000000000000000                                                                                                                                                     01424  000000000000-0000000000002.10     01750 00000                  
00024390304110011DR6759067590000001427480010280000001068E2A10E26FT80DB1317C9E1  Y000000000000                                                                                                                                                                                                                                                                                                                                                                                                                                                                                                                                                                                                                               
00024400304110001G2675906759000000142748001028000000106866-6317293              GA           9 E               210                                      NNNN           210000000000000000000000000                                                                   77145232                                                                                                                                                                                                                                                                                                                                                                                                                                               
00024410304110012DT67590675900000014274800102800000010680010287287283194900014898175071320230000002126119423000000000099516515676XXXXXX4502                         NY 4607AMWEDISF7E0713  N840000000021261          81CNCBD8666317293            005140    MC84000000021261 NDR549977145232   88E4F000CAT717D27658212  000000000+600450S00130    MWE  00565                     000000000  N                0000000000000.00 0000000.00   0000000.00                             000000000000000                                                                                                                                                     01424  000000000000-0000000000003.72     01750 00000                  
00024420304110012DR67590675900000014274800102800000010688E4F000CAT717D27658212  Z000000000000                                                                                                                                                                                                                                                                                                                                                                                                                                                                                                                                                                                                                               
00024430304110001G2675906759000000142748001028000000106866-6317293              GA           9 E               210                                      NNNN           210000000000000000000000000                        7                                          77145232                                                                                                                                                                                                                                                                                                                                                                                                                                               
00024440304110013DT67590675900000014274800102800000010680010274001193194900014898187071320230000000993519423000000000099516438857XXXXXX6297               0000000   NYV4 07T383194611203807N840000000009935M5JV00    01CNCBD8666317293            05209D    VS84000000009935 NDR549977145232   C8797F5D9CTBB12FB5BA43F  000000000+                D CD 00245                     000000000  N000000000 166   0000000000000.00 0000000.00   0000000.00                             000000000000000                                                                                                                                                     01424  000000009935-0000000000001.75     01760 00000                  
00024450304110013DR675906759000000142748001028000000106C8797F5D9CTBB12FB5BA43F  Y000000009935                 P1                                                                                                                                                                                                                                                                                                                                                                                                                                                                                                                                                                                                            
00024460304110001P16759067590000001427480010280000001060000000000000000                             2000000000000000000000000              000000000000                    0000000000000000000000000                    000000000000                                                                                                                                                                                                                                                                                                                                                                                                                                                                                        
00024470304110002G2675906759000000142748001028000000106866-6317293              GA           9 C                00                                      NNNN   Y                      000000000000                                                                   77145232                                                                                                                                                                                                                                                                                                                                                                                                                                               
00024480304110014BH6759067590000003469480014280000090170713202319423000000000035000    0000090001130029Y8001426759C07142023013                                                                                                                                                                                                                                                                                                                                                                                                                                                                                                                                                                                              
00024490304110015DT67590675900000034694800142800000010180014287287283194900011300290071320230000003500019423000000000035000542418XXXXXX1520       ME03KE06MS02      NY 4607AMPLCF7OBP0713  N840000000035000          81DNHORIZON WHOLESALE LLC    16257B    MC84000000035000 NDR549978512084   8527018613               000000000+600450S00130    MPL  00580                     000000000  N                0000000000000.00 0000000.00   0000000.00                             000000000000000                                                                                                                                                   U001424  000000000000 0000000000007.45     02100 01000                  
00024500304110015DR6759067590000003469480014280000001018527018613               Y000000000000                                                                                                                                                                                                                                                                                                                                                                                                                                                                                                                                                                                                                               
00024510304110001G2675906759000000346948001428000000101801-5186233              UT           9 L               210                                      NNNN           210000000000000000000000000                        7                                          78512084                                                                                                                                                                                                                                                                                                                                                                                                                                               
00024520304110016BH6759067590000001516480088880000090170713202319423000000000059700    0000090001369096Y8008886759C07142023136                                                                                                                                                                                                                                                                                                                                                                                                                                                                                                                                                                                              
00024530304110017DT67590675900000015164800888800000010180088887287283194900013690409071220230000001194819423000000000059700524363XXXXXX4663       ME03KE06PT01      NY 4607AMCWT89H0H0709  N840000000011948          81DNKETOFUSION833-923-3587   00983T    MC84000000011948 NDR599977360677   727814991AT3496EFFB4B31  000000000+600450S00130    MCW  02182                     000000000  N                0000000000000.00 0000000.00   0000000.00                             000000000000000                                                                                                                                                   U001424  000000000000 0000000000003.21     02600 01000                  
00024540304110017DR675906759000000151648008888000000101727814991AT3496EFFB4B31  Y000000000000                                                                                                                                                                                                                                                                                                                                                                                                                                                                                                                                                                                                                               
00024550304110001G2675906759000000151648008888000000101833-9233587              UT           9 W               210                                      NNNN           210000000000000000000000000                        7                                          77360677                                                                                                                                                                                                                                                                                                                                                                                                                                               
00024560304110018DT67590675900000015164800888800000010180088887287283194900013690466071220230000002487019423000000000059700524366XXXXXX5715       ME03KE06MS02      NY 4607AMPLIW6U0I0709  N840000000024870          81DNKETOFUSION833-923-3587   00926B    MC84000000024870 NDR599977360677   F8AC54FD06T198CD3082692  000000000+600450S00130    MPL  00580                     000000000  N                0000000000000.00 0000000.00   0000000.00                             000000000000000                                                                                                                                                   U001424  000000000000 0000000000005.32     02100 01000                  
00024570304110018DR675906759000000151648008888000000101F8AC54FD06T198CD3082692  Y000000000000                                                                                                                                                                                                                                                                                                                                                                                                                                                                                                                                                                                                                               
00024580304110001G2675906759000000151648008888000000101833-9233587              UT           9 L               210                                      NNNN           210000000000000000000000000                        7                                          77360677                                                                                                                                                                                                                                                                                                                                                                                                                                               
00024590304110019DT67590675900000015164800888800000010180088824001193194900013690580071220230000002487019423000000000059700410039XXXXXX2156               2111111   NYV4 A7W383191033069849N84000000002487042CT00    01DNKETOFUSION833-923-3587   73039D    VS84000000024870 NDR599977360677   1A94BCEECFT2D2C7885D25D  000000000+                D CD 12109                     000000000  N000000000 498   0000000000000.00 0000000.00   0000000.00                             000000000000000                                                                                                                                                     01424 G000000024870 0000000000006.32     02500 01000                  
00024600304110019DR6759067590000001516480088880000001011A94BCEECFT2D2C7885D25D  Y000000024870                 P1                                                                                                                                                                                                                                                                                                                                                                                                                                                                                                                                                                                                            
00024610304110001P16759067590000001516480088880000001010000000000000000                             2000000000000000000000000              000000000000                    0000000000000000000000000                    000000000000                                                                                                                                                                                                                                                                                                                                                                                                                                                                                        
00024620304110002G2675906759000000151648008888000000101801-4041097              UT           9 C                00                                      NNNN   Y                      000000000000                                                                   77360677                                                                                                                                                                                                                                                                                                                                                                                                                                               
00024630304110020DT67590675900000015164800888800000010680088887287283194900013690961071320230000000198819423000000000059700542418XXXXXX1286                         NY 4607AMPL7PTG900713  N840000000001988          81CNKETOFUSION833-923-3587   741253    MC84000000001988 NDR599977360677   A0BFFC1BA9T5B9E8C0CBB30  000000000+600450S00130    MPL  00564                     000000000  N                0000000000000.00 0000000.00   0000000.00                             000000000000000                                                                                                                                                     01424  000000000000-0000000000000.35     01750 00000                  
00024640304110020DR675906759000000151648008888000000106A0BFFC1BA9T5B9E8C0CBB30  U000000000000                                                                                                                                                                                                                                                                                                                                                                                                                                                                                                                                                                                                                               
00024650304110001G2675906759000000151648008888000000106833-9233587              UT           9 L               210                                      NNNN           210000000000000000000000000                        7                                          77360677                                                                                                                                                                                                                                                                                                                                                                                                                                               
00024660304110021BH6759067590000002092580011280000090170713202319423000000000072785    0000090001540126Y8001126759C07142023054                                                                                                                                                                                                                                                                                                                                                                                                                                                                                                                                                                                              
00024670304110022DT67590675900000020925800112800000010180011287287283194900015401250071320230000005000019423000000000072785534869XXXXXX9642                         NY 4607AMDBFVTV7E0713  N840000000050000          81DNJ K DISTRIBUTION INC     152634    MD84000000050000 NDR549977712156   8526773814               000000000+600450S00130    MDB  10786                     000000000  1                0000000000000.00 0000000.00   0000000.00                             000000000000000                                                                                                                                                   U001424  000000000000 0000000000000.47     00050 02200                  
00024680304110022DR6759067590000002092580011280000001018526773814               Z000000000000                 P1                                                                                                                                                                                                                                                                                                                                                                                                                                                                                                                                                                                                            
00024690304110001P1675906759000000209258001128000000101                                                          000000000000          1000            850871923                                                                                                                                                                                                                                                                                                                                                                                                                                                                                                                                                            
00024700304110002G2675906759000000209258001128000000101860-8957639              CT           9 B               210                  850871923           YNNN           210000000000000000000000000                        7                                          77712156                                                                                                                                                                                                                                                                                                                                                                                                                                               
00024710304110023DT67590675900000020925800112800000010180011224001193194900015401267071320230000002278519423000000000072785435536XXXXXX4172               2111111   NYV4 A7W383194691098299N840000000022785S3QM00    01DNJ K DISTRIBUTION INC     037109    VD84000000022785 NDR549977712156   8527272813               000000000+                G DG 10352                     000000000  Y000000000 338   0000000000000.00 0000000.00   0000000.00                             000000000000000                                                                                                                                                     01424 G000000022785 0000000000000.33     00050 02200                  
00024720304110023DR6759067590000002092580011280000001018527272813               N000000022785                 P1                                                                                                                                                                                                                                                                                                                                                                                                                                                                                                                                                                                                            
00024730304110001P16759067590000002092580011280000001010000000000000000                             2000000000000000000000000              000000000000                    0000000000000000000000000                    000000000000                                                                                                                                                                                                                                                                                                                                                                                                                                                                                        
00024740304110002G2675906759000000209258001128000000101203-8159817              CT           9 D                00                                      NNNN   N                      000000000000                                                                   77712156                                                                                                                                                                                                                                                                                                                                                                                                                                               
00024750304110024BH6759067590000001330080010280000090170713202319423000000000061485    0000090001481183Y8001026759C07142023148                                                                                                                                                                                                                                                                                                                                                                                                                                                                                                                                                                                              
00024760304110025DT67590675900000013300800102800000010180010224001193194900014810567071220230000001200819423000000000061485446552XXXXXX6180               2111111   NYV4 A7W303190336044185N840000000012008XDC500    01DNCBD8666317293            806012    VD84000000012008 NDR549977133133   0599326CB6T378AF9014220  000000000+                F DF 00415                     000000000  N000000000       0000000000000.00 0000000.00   0000000.00                             000000000000000                                                                                                                                                     01424 G000000012008 0000000000002.13     01650 01500                  
00024770304110025DR6759067590000001330080010280000001010599326CB6T378AF9014220  Y000000012008                 P1                                                                                                                                                                                                                                                                                                                                                                                                                                                                                                                                                                                                            
00024780304110001P16759067590000001330080010280000001010000000000000000                             2000000000000000000000000              000000000000                    0000000000000000000000000                    000000000000                                                                                                                                                                                                                                                                                                                                                                                                                                                                                        
00024790304110002G2675906759000000133008001028000000101866-6317293              GA           9 D                00                                      NNNN   N                      000000000000                                                                   77133133                                                                                                                                                                                                                                                                                                                                                                                                                                               
00024800304110026DT67590675900000013300800102800000010180010224001193194900014810658071220230000002165819423000000000061485426938XXXXXX4262               2111111   NYV4 A7W303190567057137N840000000021658L77600    01DNCBD8666317293            009321    VS84000000021658 NDR549977133133   19D0377D99T51DD3D8BA113  000000000+                B CB 12107                     000000000  N000000000 494   0000000000000.00 0000000.00   0000000.00                             000000000000000                                                                                                                                                     01424 G000000021658 0000000000004.52     02040 01000                  
00024810304110026DR67590675900000013300800102800000010119D0377D99T51DD3D8BA113  Y000000021658                 P1                                                                                                                                                                                                                                                                                                                                                                                                                                                                                                                                                                                                            
00024820304110001P16759067590000001330080010280000001010000000000000000                             2000000000000000000000000              000000000000                    0000000000000000000000000                    000000000000                                                                                                                                                                                                                                                                                                                                                                                                                                                                                        
00024830304110002G2675906759000000133008001028000000101866-6317293              GA           9 C                00                                      NNNN   Y                      000000000000                                                                   77133133                                                                                                                                                                                                                                                                                                                                                                                                                                               
00024840304110027DT67590675900000013300800102800000010180010287287283194900014811160071220230000001400819423000000000061485533470XXXXXX9726       ME03KE06MS02      NY 4607AMDJRGLMPN0709  N840000000014008          81DNCBD8666317293            604346    MD84000000014008 NDR549977133133   5BC618C856TB93B88F99088  000000000+600450S00130    MDJ  00401                     000000000  N                0000000000000.00 0000000.00   0000000.00                             000000000000000                                                                                                                                                   U001424  000000000000 0000000000002.46     01650 01500                  
00024850304110027DR6759067590000001330080010280000001015BC618C856TB93B88F99088  Y000000000000                                                                                                                                                                                                                                                                                                                                                                                                                                                                                                                                                                                                                               
00024860304110001G2675906759000000133008001028000000101866-6317293              GA           9 J               210                                      NNNN           210000000000000000000000000                        7                                          77133133                                                                                                                                                                                                                                                                                                                                                                                                                                               
00024870304110028DT67590675900000013300800102800000010180010224001193194900014811375071220230000001987019423000000000061485410881XXXXXX7218               2111111   NYV4 A7W463190849049758N840000000019870Z4VM00    01DNCBD8666317293            532124    VD84000000019870 NDR549977133133   7CA071BAE5TD44CA96DA3CD  000000000+                F DF 00415                     000000000  N000000000       0000000000000.00 0000000.00   0000000.00                             000000000000000                                                                                                                                                     01424 G000000019870 0000000000003.43     01650 01500                  
00024880304110028DR6759067590000001330080010280000001017CA071BAE5TD44CA96DA3CD  Y000000019870                 P1                                                                                                                                                                                                                                                                                                                                                                                                                                                                                                                                                                                                            
00024890304110001P16759067590000001330080010280000001010000000000000000                             2000000000000000000000000              000000000000                    0000000000000000000000000                    000000000000                                                                                                                                                                                                                                                                                                                                                                                                                                                                                        
00024900304110002G2675906759000000133008001028000000101866-6317293              GA           9 D                00                                      NNNN   N                      000000000000                                                                   77133133                                                                                                                                                                                                                                                                                                                                                                                                                                               
00024910304110029DT67590675900000013300800102800000010180010224001193194900014811383071220230000001484819423000000000061485400022XXXXXX0334               2111111   NYV4 A7W463190852056355N8400000000148482TK500    01DNCBD8666317293            653194    VD84000000014848 NDR549977133133   C8C5CC2700T61994DAB1458  000000000+                F DF 10420                     000000000  Y000000000 338   0000000000000.00 0000000.00   0000000.00                             000000000000000                                                                                                                                                     01424 G000000014848 0000000000000.29     00050 02200                  
00024920304110029DR675906759000000133008001028000000101C8C5CC2700T61994DAB1458  Y000000014848                 P1                                                                                                                                                                                                                                                                                                                                                                                                                                                                                                                                                                                                            
00024930304110001P16759067590000001330080010280000001010000000000000000                             2000000000000000000000000              000000000000                    0000000000000000000000000                    000000000000                                                                                                                                                                                                                                                                                                                                                                                                                                                                                        
00024940304110002G2675906759000000133008001028000000101866-6317293              GA           9 D                00                                      NNNN   N                      000000000000                                                                   77133133                                                                                                                                                                                                                                                                                                                                                                                                                                               
00024950304110030DT67590675900000013300800102800000010180010287287283194900014811517071220230000001987019423000000000061485521997XXXXXX4197       ME03KE06MS02      NY 4607AMDJC2MEAQ0709  N840000000019870          81DNCBD8666317293            269931    MD84000000019870 NDR549977133133   C5D22DCFC7T33125F61DF38  000000000+600450S00130    MDJ  10813                     000000000  1                0000000000000.00 0000000.00   0000000.00                             000000000000000                                                                                                                                                   U001424  000000000000 0000000000000.32     00050 02200                  
00024960304110030DR675906759000000133008001028000000101C5D22DCFC7T33125F61DF38  Y000000000000                                                                                                                                                                                                                                                                                                                                                                                                                                                                                                                                                                                                                               
00024970304110001G2675906759000000133008001028000000101866-6317293              GA           9 J               210                                      NNNN           210000000000000000000000000                        7                                          77133133                                                                                                                                                                                                                                                                                                                                                                                                                                               
00024980304110031DT67590675900000013300800102800000010680010287287283194900014811822071320230000001987019423000000000061485559767XXXXXX4632                         NY 4607AMDJG1KJ7E0713  N840000000019870          81CNCBD8666317293            010215    MD84000000019870 NDR549977133133   3365DE9A16T2D392D90E600  000000000+600450S00130    MDJ  00560                     000000000  N                0000000000000.00 0000000.00   0000000.00                             000000000000000                                                                                                                                                     01424  000000000000 0000000000000.00     00000 00000                  
00024990304110031DR6759067590000001330080010280000001063365DE9A16T2D392D90E600  Y000000000000                                                                                                                                                                                                                                                                                                                                                                                                                                                                                                                                                                                                                               
00025000304110001G2675906759000000133008001028000000106866-6317293              GA           9 J               210                                      NNNN           210000000000000000000000000                        7                                          77133133                                                                                                                                                                                                                                                                                                                                                                                                                                               
00025010304110032DT67590675900000013300800102800000010680010274001193194900014811834071320230000002090719423000000000061485483313XXXXXX0796               0000000   NYV4 07T463194738481288N840000000020907JZ9N85    01CNCBD8666317293            045775    VD84000000020907 NDR549977133133   CEC57F8ADETEC7A4C3548C8  000000000+                F DF 08168                     000000000  Y000000000 369   0000000000000.00 0000000.00   0000000.00                             000000000000000                                                                                                                                                     01424  000000020907 0000000000000.00     00000 00000                  
00025020304110032DR675906759000000133008001028000000106CEC57F8ADETEC7A4C3548C8  R000000020907                 P1                                                                                                                                                                                                                                                                                                                                                                                                                                                                                                                                                                                                            
00025030304110001P16759067590000001330080010280000001060000000000000000                             2000000000000000000000000              000000000000                    0000000000000000000000000                    000000000000                                                                                                                                                                                                                                                                                                                                                                                                                                                                                        
00025040304110002G2675906759000000133008001028000000106866-6317293              GA           9 D                00                                      NNNN   N                      000000000000                                                                   77133133                                                                                                                                                                                                                                                                                                                                                                                                                                               
00025050304110033BH6759067590000001619680010280000090170713202319423000000000055534    0000090001946871Y8001026759C07142023094                                                                                                                                                                                                                                                                                                                                                                                                                                                                                                                                                                                              
00025060304110034DT67590675900000016196800102800000010180010224001193194900019467843071220230000001200819423000000000055534446542XXXXXX4213               2111111   NYV4 A7W583190690045023N840000000012008FC9T00    01DNGREEN OTTER LLC          009318    VS84000000012008 NDR549977424386   6A69A0B393TF535C0A1827C  000000000+                B CB 12107                     000000000  N000000000 494   0000000000000.00 0000000.00   0000000.00                             000000000000000                                                                                                                                                     01424 G000000012008 0000000000002.55     02040 01000                  
00025070304110034DR6759067590000001619680010280000001016A69A0B393TF535C0A1827C  Y000000012008                 P1                                                                                                                                                                                                                                                                                                                                                                                                                                                                                                                                                                                                            
00025080304110001P16759067590000001619680010280000001010000000000000000                             2000000000000000000000000              000000000000                    0000000000000000000000000                    000000000000                                                                                                                                                                                                                                                                                                                                                                                                                                                                                        
00025090304110002G2675906759000000161968001028000000101866-6317293              GA           9 C                00                                      NNNN   Y                      000000000000                                                                   77424386                                                                                                                                                                                                                                                                                                                                                                                                                                               
00025100304110035DT67590675900000016196800102800000010180010287287283194900019467935071220230000001987019423000000000055534527515XXXXXX3608       ME03KE06MS02      NY 4607AMDJLZQW5Q0709  N840000000019870          81DNGREEN OTTER LLC          115758    MD84000000019870 NDR549977424386   7A154CF3A8T25A26B48BFD8  000000000+600450S00130    MDJ  10813                     000000000  1                0000000000000.00 0000000.00   0000000.00                             000000000000000                                                                                                                                                   U001424  000000000000 0000000000000.32     00050 02200                  
00025110304110035DR6759067590000001619680010280000001017A154CF3A8T25A26B48BFD8  Y000000000000                                                                                                                                                                                                                                                                                                                                                                                                                                                                                                                                                                                                                               
00025120304110001G2675906759000000161968001028000000101866-6317293              GA           9 J               210                                      NNNN           210000000000000000000000000                        7                                          77424386                                                                                                                                                                                                                                                                                                                                                                                                                                               
00025130304110036DT67590675900000016196800102800000010180010287287283194900019468131071220230000001987019423000000000055534533248XXXXXX6664       ME03KE06MS02      NY 4607AMPVIJUVP90709  N840000000019870          81DNGREEN OTTER LLC          IX0MRO    MD84000000019870 NDR549977424386   F90B98732ET1677DD1E55A0  000000000+600450S00130    MPV  09899                     000000000  N                0000000000000.00 0000000.00   0000000.00                             000000000000000                                                                                                                                                   U001424  000000000000 0000000000003.70     01760 02000                  
00025140304110036DR675906759000000161968001028000000101F90B98732ET1677DD1E55A0  Y000000000000                                                                                                                                                                                                                                                                                                                                                                                                                                                                                                                                                                                                                               
00025150304110001G2675906759000000161968001028000000101866-6317293              GA           9 V               210                                      NNNN           210000000000000000000000000                                                                   77424386                                                                                                                                                                                                                                                                                                                                                                                                                                               
00025160304110037DT67590675900000016196800102800000010180010224001193194900019468288071220230000002126119423000000000055534413176XXXXXX8949               2111111   NYV4 A7W383191015053751N840000000021261ZJSL00    01DNGREEN OTTER LLC          009433    VD84000000021261 NDR549977424386   010BD0A3ABT66D1B70D518B  000000000+                F DF 00415                     000000000  N000000000       0000000000000.00 0000000.00   0000000.00                             000000000000000                                                                                                                                                     01424 G000000021261 0000000000003.66     01650 01500                  
00025170304110037DR675906759000000161968001028000000101010BD0A3ABT66D1B70D518B  Y000000021261                 P1                                                                                                                                                                                                                                                                                                                                                                                                                                                                                                                                                                                                            
00025180304110001P16759067590000001619680010280000001010000000000000000                             2000000000000000000000000              000000000000                    0000000000000000000000000                    000000000000                                                                                                                                                                                                                                                                                                                                                                                                                                                                                        
00025190304110002G2675906759000000161968001028000000101866-6317293              GA           9 D                00                                      NNNN   N                      000000000000                                                                   77424386                                                                                                                                                                                                                                                                                                                                                                                                                                               
00025200304110038DT67590675900000016196800102800000010680010274001193194900019468689071320230000000158519423000000000055534419488XXXXXX9931               0000000   NYV4 07T463194566516924N840000000001585RQHD00    01CNGREEN OTTER LLC          030903    VD84000000001585 NDR549977424386   A64C236948T804DD1473CB7  000000000+                F DF 08168                     000000000  N000000000 369   0000000000000.00 0000000.00   0000000.00                             000000000000000                                                                                                                                                     01424  000000001585 0000000000000.00     00000 00000                  
00025210304110038DR675906759000000161968001028000000106A64C236948T804DD1473CB7  U000000001585                 P1                                                                                                                                                                                                                                                                                                                                                                                                                                                                                                                                                                                                            
00025220304110001P16759067590000001619680010280000001060000000000000000                             2000000000000000000000000              000000000000                    0000000000000000000000000                    000000000000                                                                                                                                                                                                                                                                                                                                                                                                                                                                                        
00025230304110002G2675906759000000161968001028000000106866-6317293              GA           9 D                00                                      NNNN   N                      000000000000                                                                   77424386                                                                                                                                                                                                                                                                                                                                                                                                                                               
00025240304110039DT67590675900000016196800102800000010680010274001193194900019468713071320230000001589019423000000000055534433743XXXXXX7681               0000000   NY94 07N000000000000000N   000000000000          01CNGREEN OTTER LLC                    VD84000000015890 N  549977424386                            000000000+                F DF 08168                     000000000  N000000000 369   0000000000000.00 0000000.00   0000000.00                             000000000000000                                                                                                                                                     01424  000000000000 0000000000000.00     00000 00000                  
00025250304110001G2675906759000000161968001028000000106866-6317293              GA           9 D                00                                      NNNN00 N 00                   000000000000                                                                   77424386                                                                                                                                                                                                                                                                                                                                                                                                                                               
00025260304110040BH6759067590000001982880010980000090170713202319423000000000026665    0000090001060803Y8001096759C07142023106                                                                                                                                                                                                                                                                                                                                                                                                                                                                                                                                                                                              
00025270304110041DT67590675900000019828800109800000010180010987287283194900010607901071220230000002487019423000000000026665552322XXXXXX3216       ME03KE06PT01      NY 4607AMCWAS8YZV0708  N840000000024870          81DNKETOFUSION 8885968154    05150Z    MC84000000024870 NDR599977547467   9E62E76ED1T1CA164C420CB  000000000+600450S00130    MCW  00642                     000000000  N                0000000000000.00 0000000.00   0000000.00                             000000000000000                                                                                                                                                   U001424  000000000000 0000000000005.57     02200 01000                  
00025280304110041DR6759067590000001982880010980000001019E62E76ED1T1CA164C420CB  Y000000000000                                                                                                                                                                                                                                                                                                                                                                                                                                                                                                                                                                                                                               
00025290304110001G2675906759000000198288001098000000101888-5968154              UT           9 W               210                                      NNNN           210000000000000000000000000                        7                                          77547467                                                                                                                                                                                                                                                                                                                                                                                                                                               
00025300304110042DT67590675900000019828800109800000010180010987287283194900010607950071220230000001194819423000000000026665521853XXXXXX1777       ME03KE06PT01      NY 4607AMCWN1DQPN0709  N840000000011948          81DNKETOFUSION 8885968154    00938T    MC84000000011948 NDR599977547467   99293CCDE4TB98F85A4EFC6  000000000+600450S00130    MCW  02182                     000000000  N                0000000000000.00 0000000.00   0000000.00                             000000000000000                                                                                                                                                   U001424  000000000000 0000000000003.21     02600 01000                  
00025310304110042DR67590675900000019828800109800000010199293CCDE4TB98F85A4EFC6  Y000000000000                                                                                                                                                                                                                                                                                                                                                                                                                                                                                                                                                                                                                               
00025320304110001G2675906759000000198288001098000000101888-5968154              UT           9 W               210                                      NNNN           210000000000000000000000000                        7                                          77547467                                                                                                                                                                                                                                                                                                                                                                                                                                               
00025330304110043DT67590675900000019828800109800000010180010924001193194900010607975071220230000001799119423000000000026665467411XXXXXX4007               2111111   NYV4 A7W463191099046919N840000000017991HR4M00    01DNKETOFUSION 8885968154    814071    VD84000000017991 NDR599977547467   31F70BDCE5T083750397904  000000000+                F DF 00415                     000000000  N000000000       0000000000000.00 0000000.00   0000000.00                             000000000000000                                                                                                                                                     01424 G000000017991 0000000000003.12     01650 01500                  
00025340304110043DR67590675900000019828800109800000010131F70BDCE5T083750397904  Y000000017991                 P1                                                                                                                                                                                                                                                                                                                                                                                                                                                                                                                                                                                                            
00025350304110001P16759067590000001982880010980000001010000000000000000                             2000000000000000000000000              000000000000                    0000000000000000000000000                    000000000000                                                                                                                                                                                                                                                                                                                                                                                                                                                                                        
00025360304110002G2675906759000000198288001098000000101888-5968154              UT           9 D                00                                      NNNN   N                      000000000000                                                                   77547467                                                                                                                                                                                                                                                                                                                                                                                                                                               
00025370304110044DT67590675900000019828800109800000010680010987287283194900010608024071320230000002487019423000000000026665546234XXXXXX9684                         NY 4607AMDSZZWVSS0713  N840000000024870          81CNKETOFUSION 8885968154    013901    MD84000000024870 NDR599977547467   E3AC1E3C9FT8246B076B49E  000000000+600450S00130    MDS  00560                     000000000  N                0000000000000.00 0000000.00   0000000.00                             000000000000000                                                                                                                                                     01424  000000000000 0000000000000.00     00000 00000                  
00025380304110044DR675906759000000198288001098000000106E3AC1E3C9FT8246B076B49E  R000000000000                                                                                                                                                                                                                                                                                                                                                                                                                                                                                                                                                                                                                               
00025390304110001G2675906759000000198288001098000000106888-5968154              UT           9 S               210                                      NNNN           210000000000000000000000000                        7                                          77547467                                                                                                                                                                                                                                                                                                                                                                                                                                               
00025400304110045DT67590675900000019828800109800000010680010987287283194900010608032071320230000000327419423000000000026665546234XXXXXX9684                         NY 4607AMDSDZ1RDA0713  N840000000003274          81CNKETOFUSION 8885968154    013985    MD84000000003274 NDR599977547467   E3AC1E3C9FT1F783ECAFF63  000000000+600450S00130    MDS  00560                     000000000  N                0000000000000.00 0000000.00   0000000.00                             000000000000000                                                                                                                                                     01424  000000000000 0000000000000.00     00000 00000                  
00025410304110045DR675906759000000198288001098000000106E3AC1E3C9FT1F783ECAFF63  R000000000000                                                                                                                                                                                                                                                                                                                                                                                                                                                                                                                                                                                                                               
00025420304110001G2675906759000000198288001098000000106888-5968154              UT           9 S               210                                      NNNN           210000000000000000000000000                        7                                          77547467                                                                                                                                                                                                                                                                                                                                                                                                                                               
00025430304110046BH6759067590000004225980015280000090170713202319423000000000001000    0000090001020006Y8001526759C07142023002                                                                                                                                                                                                                                                                                                                                                                                                                                                                                                                                                                                              
00025440304110047DT67590675900000042259800152800000010180015224001193194900010200060071320230000000100019423000000000001000481582XXXXXX3447               2111111   NYV4 A7W583194801208958N840000000001000XJCX00    01DNKKIND LLC                131651    VD84000000001000 NDR549978706676   342936                   000000000+                F DF 10420                     000000000  Y000000000 338   0000000000000.00 0000000.00   0000000.00                             000000000000000                                                                                                                                                     01424 G000000001000 0000000000000.23     00050 02200                  
00025450304110047DR675906759000000422598001528000000101342936                   Y000000001000                 P1                                                                                                                                                                                                                                                                                                                                                                                                                                                                                                                                                                                                            
00025460304110001P16759067590000004225980015280000001010000000000000000                             2000000000000000000000000              000000000000                    0000000000000000000000000                    000000000000                                                                                                                                                                                                                                                                                                                                                                                                                                                                                        
00025470304110002G2675906759000000422598001528000000101855-5515463              CA           9 D                00                                      NNNN   N                      000000000000                                                                   78706676                                                                                                                                                                                                                                                                                                                                                                                                                                               
00025480304110048BH6759067590000003377980013880000090170713202319423000000000008633    0000090001250006Y8001386759C07142023025                                                                                                                                                                                                                                                                                                                                                                                                                                                                                                                                                                                              
00025490304110049DT67590675900000033779800138800000010180013824001193194900012500012071320230000000148819423000000000008633425836XXXXXX3296       VK04VS111111111   NYV1 A E583194513288051N840000000001488VLVG00    07DNSLOW PUFFS LLC           046111    VD84000000001488 N  599378415682                            000000000+                F DF 10439                     000000000  Y000000000 331   0000000000000.00 0000000.00   0000000.00                             000000000000000                                                                                                                                                     01424 F000000000000 0000000000000.23     00050 02200                  
00025500304110001E167590675900000033779800138800000010100E068C801DE 00000000000.004040404040404040404040404040404040404040404040404006011203A00000000000000000000000404040404040404040404040404040  000008402000000000000023071304D87F759B86A8ABF9C9976D404040400840A00000000310100000000000000000007A40633C0086000000000000000000004040404040404040 000000014.88 000000000.004040400000000000000000    80                                                                                                                                                                                                                                                                                                                  
00025510304110002G2675906759000000337798001388000000101HAMDEN                   CT           5 D                00                                      NNNN00 N 00                   000000000000                                                                   78415682                                                                                                                                                                                                                                                                                                                                                                                                                                               
00025520304110050DT67590675900000033779800138800000010180013824001193194900012500020071320230000000148819423000000000008633420767XXXXXX2924       VK04VS111111111   NYV1 A E303194534061994N840000000001488GM2G00    07DNSLOW PUFFS LLC           065010    VD84000000001488 N  599378415682                            000000000+                F DF 10439                     000000000  Y000000000 331   0000000000000.00 0000000.00   0000000.00                             000000000000000                                                                                                                                                     01424 F000000000000 0000000000000.23     00050 02200                  
00025530304110001E167590675900000033779800138800000010100E068C811A3 00000000000.004040404040404040404040404040404040404040404040404006011203A00000000000000000000000404040404040404040404040404040  000008400000000000000023071357F161BCF4AF1C06E9F90FF9404040400840A0000000031010000000000000000000404040404040404040404040404040404040404040404040 000000014.88 000000000.004040400000000000000000    80                                                                                                                                                                                                                                                                                                                  
00025540304110002G2675906759000000337798001388000000101HAMDEN                   CT           5 D                00                                      NNNN00 N 00                   000000000000                                                                   78415682                                                                                                                                                                                                                                                                                                                                                                                                                                               
