02274960549261311AD675906759000000133008001028000009077900011914470000001668604232023NYY11323YC6759800102042520232023103029703                                                                                                                                                                                                                                                                                                                                                                                                                                                                                                                                                                                              
02274970549261314AD675906759000000198288001098000009071900012241820000001578504232023NYY11323ND6759800109042520232023111020666                                                                                                                                                                                                                                                                                                                                                                                                                                                                                                                                                                                              
02274980549261317AD675906759000000133008001028000009071900012728280000002741904232023NYY11323ND6759800102042520232023111020668                                                                                                                                                                                                                                                                                                                                                                                                                                                                                                                                                                                              
02274990549261320AD675906759000000133008001028000009071900015871800000001987004232023NYY11323ND6759800102042520232023111020669                                                                                                                                                                                                                                                                                                                                                                                                                                                                                                                                                                                              
02275000549261323AD675906759000000151648008888000009071900012768200000001499004232023NYY11323ND6759800888042520232023111020670                                                                                                                                                                                                                                                                                                                                                                                                                                                                                                                                                                                              
02275010549261326AD675906759000000198288001098000009071900011513390000001499004232023NYY11323ND6759800109042520232023111020672                                                                                                                                                                                                                                                                                                                                                                                                                                                                                                                                                                                              
02275020549261329AD675906759000000151648008888000009071900014478340000001987004232023NYY11323ND6759800888042520232023111020673                                                                                                                                                                                                                                                                                                                                                                                                                                                                                                                                                                                              
02275030549261332AD675906759000000151648008888000009071499546986030000000654804232023NYY11323ND6759800888042520232023111020674                                                                                                                                                                                                                                                                                                                                                                                                                                                                                                                                                                                              
02275040549261335AD675906759000000151648008888000009071500925582050000002487004232023NYY11323ND6759800888042520232023111020675                                                                                                                                                                                                                                                                                                                                                                                                                                                                                                                                                                                              
02275050549261338AD675906759000000151648008888000009071833632986050000000519004232023NYY11323ND6759800888042520232023111020676                                                                                                                                                                                                                                                                                                                                                                                                                                                                                                                                                                                              
02275060549261341AD675906759000000151648008888000009071167573986000000001987004232023NYY11323ND6759800888042520232023111020677                                                                                                                                                                                                                                                                                                                                                                                                                                                                                                                                                                                              
02275070549261344AD675906759000000133008001028000009071900016068040000002121104232023NYY11323ND6759800102042520232023111020679                                                                                                                                                                                                                                                                                                                                                                                                                                                                                                                                                                                              
02275080549261347AD675906759000000198288001098000009071900011726030000001194804232023NYY11323ND6759800109042520232023111020680                                                                                                                                                                                                                                                                                                                                                                                                                                                                                                                                                                                              
02275090549261350AD675906759000000151648008888000009071900013754120000001987004232023NYY11323ND6759800888042520232023111020681                                                                                                                                                                                                                                                                                                                                                                                                                                                                                                                                                                                              
02275100549261353AD675906759000000151648008888000009071900012981570000000519004232023NYY11323ND6759800888042520232023111020682                                                                                                                                                                                                                                                                                                                                                                                                                                                                                                                                                                                              
02275110549261356AD675906759000000133008001028000009071900014642460000000746804232023NYY11323ND6759800102042520232023111020683                                                                                                                                                                                                                                                                                                                                                                                                                                                                                                                                                                                              
02275120549261359AD675906759000000198288001098000009071900011829450000001499104232023NYY11323ND6759800109042520232023111020685                                                                                                                                                                                                                                                                                                                                                                                                                                                                                                                                                                                              
02275130549261362AD675906759000000198288001098000009071900011932440000000327404232023NYY11323ND6759800109042520232023111020686                                                                                                                                                                                                                                                                                                                                                                                                                                                                                                                                                                                              
02275140549261365AD675906759000000198288001098000009071900011932430000001987004232023NYY11323ND6759800109042520232023111020687                                                                                                                                                                                                                                                                                                                                                                                                                                                                                                                                                                                              
02275150549261368AD675906759000000198288001098000009071900011829210000001499004232023NYY11323ND6759800109042520232023111020688                                                                                                                                                                                                                                                                                                                                                                                                                                                                                                                                                                                              
02275160549261371AD675906759000000198288001098000009071900011829220000000259504232023NYY11323ND6759800109042520232023111020689                                                                                                                                                                                                                                                                                                                                                                                                                                                                                                                                                                                              
02275170551780002BH6759067590000000288180088880000090170424202311423000000000133849    0000090001970036N8008886759C04252023                                                                                                                                                                                                                                                                                                                                                                                                                                                                                                                                                                                                 
02275180551780003DT67590675900000002881800888800000010180088824001193114900019700018042420230000000296211423000000000133849462192XXXXXX8600       VS11    0001111   NYV1 A E463114527088214N8400000000029622PNS00    05DNHAPPY HIPPIE             024376    VS84000000002962 N  549976487134                            000000000+                A CA 12110                     000000000  N000000000 493   0000000000000.00 0000000.00   0000000.00                             000000000000000                                                                                                                                                     01418 A000000000000 0000000000000.55     01510 01000                  
02275190551780004DT67590675900000002881800888800000010180088824001193114900019700026042420230000000365411423000000000133849473336XXXXXX5051       VS11    0001111   NYV1 A E583114529499859N8400000000036549N8K00    05DNHAPPY HIPPIE             084229    VD84000000003654 N  549976487134                            000000000+                F DF 00381                     000000000  N000000000       0000000000000.00 0000000.00   0000000.00                             000000000000000                                                                                                                                                     01418 A000000000000 0000000000000.44     00800 01500                  
02275200551780005DT67590675900000002881800888800000010180088824001193114900019700034042420230000000219411423000000000133849403493XXXXXX0092       VS11    0001111   NYV1 A E463114531690710N840000000002194GBX200    05DNHAPPY HIPPIE             232053    VD84000000002194 N  549976487134                            000000000+                G DG 10351                     000000000  Y000000000 338   0000000000000.00 0000000.00   0000000.00                             000000000000000                                                                                                                                                     01418 A000000000000 0000000000000.23     00050 02200                  
02275210551780006DT67590675900000002881800888800000010180088824001193114900019700042042420230000000877811423000000000133849431503XXXXXX6276       VS11    0001111   NYV1 A E383114537550128N84000000000877864BT00    05DNHAPPY HIPPIE             06669A    VS84000000008778 N  549976487134                            000000000+                A CA 12110                     000000000  N000000000 493   0000000000000.00 0000000.00   0000000.00                             000000000000000                                                                                                                                                     01418 A000000000000 0000000000001.43     01510 01000                  
02275220551780007DT67590675900000002881800888800000010180088824001193114900019700059042420230000000405311423000000000133849419090XXXXXX5979       VS11    0001111   NYV1 A E583114540500185N8400000000040538R3200    05DNHAPPY HIPPIE             547783    VD84000000004053 N  549976487134                            000000000+                F DF 00381                     000000000  N000000000       0000000000000.00 0000000.00   0000000.00                             000000000000000                                                                                                                                                     01418 A000000000000 0000000000000.47     00800 01500                  
02275230551780008DT67590675900000002881800888800000010180088824001193114900019700067042420230000000101611423000000000133849491523XXXXXX7823       VK04VS111111111   NYV1 A E463114543356994N840000000001016M23G00    07DNHAPPY HIPPIE             021632    VD84000000001016 N  549976487134                            000000000+                F DF 10439                     000000000  Y000000000 331   0000000000000.00 0000000.00   0000000.00                             000000000000000                                                                                                                                                     01418 F000000000000 0000000000000.23     00050 02200                  
02275240551780009DT67590675900000002881800888800000010180088877287283114900019700077042420230000000305811423000000000133849539689XXXXXX1882       MS02WI09          NY 1 0 AMDHUQWYJU0424  N840000000003058          05DNHAPPY HIPPIE             586686    MD84000000003058 N  549976487134                            000000000+M10101C5434C    MDH  00402                     000000000  N                0000000000000.00 0000000.00   0000000.00                             000000000000000                                                                                                                                                   B101418  000000000000 0000000000000.47     01050 01500                  
02275250551780010DT67590675900000002881800888800000010180088824001193114900019700083042420230000000821811423000000000133849480639XXXXXX7211       VS11    0001111   NYV1 A E303114566380300N8400000000082182DS800    05DNHAPPY HIPPIE             821728    VD84000000008218 N  549976487134                            000000000+                F DF 00381                     000000000  N000000000       0000000000000.00 0000000.00   0000000.00                             000000000000000                                                                                                                                                     01418 A000000000000 0000000000000.81     00800 01500                  
02275260551780011DT67590675900000002881800888800000010180088824001193114900019700091042420230000000261111423000000000133849444607XXXXXX3851       VS11    0001111   NYV1 A E463114570658540N8400000000026114Q7M00    05DNHAPPY HIPPIE             TE0QYV    VD84000000002611 N  549976487134                            000000000+                G PG 10178                     000000000  N000000000 363   0000000000000.00 0000000.00   0000000.00                             000000000000000                                                                                                                                                     01418 A000000000000 0000000000000.66     02150 01000                  
02275270551780012DT67590675900000002881800888800000010180088824001193114900019700109042420230000000175611423000000000133849402018XXXXXX0676       VS11    0001111   NYV1 A E583114572925690N840000000001756WNLJ00    05DNHAPPY HIPPIE             085452    VD84000000001756 N  549976487134                            000000000+                F PF 08170                     000000000  N000000000       0000000000000.00 0000000.00   0000000.00                             000000000000000                                                                                                                                                     01418 A000000000000 0000000000000.35     01150 01500                  
02275280551780013DT67590675900000002881800888800000010180088824001193114900019700117042420230000000393811423000000000133849422921XXXXXX3070       VS11    0001111   NYV1 A E303114588302594N840000000003938ZP4D00    05DNHAPPY HIPPIE             044431    VD84000000003938 N  549976487134                            000000000+                F DF 00381                     000000000  N000000000       0000000000000.00 0000000.00   0000000.00                             000000000000000                                                                                                                                                     01418 A000000000000 0000000000000.47     00800 01500                  
02275290551780014DT67590675900000002881800888800000010180088824001193114900019700125042420230000000395011423000000000133849480639XXXXXX4971       VS11    0001111   NYV1 A E383114588879682N840000000003950P34G00    05DNHAPPY HIPPIE             822960    VD84000000003950 N  549976487134                            000000000+                F DF 00381                     000000000  N000000000       0000000000000.00 0000000.00   0000000.00                             000000000000000                                                                                                                                                     01418 A000000000000 0000000000000.47     00800 01500                  
02275300551780015DT67590675900000002881800888800000010180088824001193114900019700133042420230000000098811423000000000133849415978XXXXXX6979       VK04VS111111111   NYV1 A E583114602347522N840000000000988QBWM00    07DNHAPPY HIPPIE             036978    VD84000000000988 N  549976487134                            000000000+                F DF 10439                     000000000  Y000000000 331   0000000000000.00 0000000.00   0000000.00                             000000000000000                                                                                                                                                     01418 F000000000000 0000000000000.22     00050 02200                  
02275310551780016DT67590675900000002881800888800000010180088824001193114900019700141042420230000000445411423000000000133849491523XXXXXX7823       VS11    0001111   NYV1 A E583114624890013N840000000004454LB2Z00    07DNHAPPY HIPPIE             022658    VD84000000004454 N  549976487134                            000000000+                F DF 10433                     000000000  Y000000000 338   0000000000000.00 0000000.00   0000000.00                             000000000000000                                                                                                                                                     01418 A000000000000 0000000000000.24     00050 02200                  
02275320551780017DT67590675900000002881800888800000010180088877287283114900019700150042420230000001207311423000000000133849517148XXXXXX4240       MS02WI09          NY 1 0 AMWEQW3AL60424  N840000000012073          05DNHAPPY HIPPIE             03094Z    MC84000000012073 N  549976487134                            000000000+M10101C5434C    MWE  00743                     000000000  N                0000000000000.00 0000000.00   0000000.00                             000000000000000                                                                                                                                                   B101418  000000000000 0000000000002.82     02300 00400                  
02275330551780018DT67590675900000002881800888800000010180088877287283114900019700168042420230000000148111423000000000133849548974XXXXXX2406       MS02WI09          NY 1 0 AMPAFCHVL60424  N840000000001481          07DNHAPPY HIPPIE             012210    MD84000000001481 N  549976487134                            000000000+M10101M0034C    MPA  00505                     000000000  N                0000000000000.00 0000000.00   0000000.00                             000000000000000                                                                                                                                                   A101418  000000000000 0000000000000.27     01550 00400                  
02275340551780019DT67590675900000002881800888800000010180088824001193114900019700174042420230000000345711423000000000133849421783XXXXXX0600       VS11    0001111   NYV1 A E383114634607295N840000000003457H54N00    05DNHAPPY HIPPIE             079267    VS84000000003457 N  549976487134                            000000000+                A CA 12110                     000000000  N000000000 493   0000000000000.00 0000000.00   0000000.00                             000000000000000                                                                                                                                                     01418 A000000000000 0000000000000.62     01510 01000                  
02275350551780020DT67590675900000002881800888800000010180088824001193114900019700182042420230000000691311423000000000133849449507XXXXXX2805       VS11    0001111   NYV1 A E463114635213483N840000000006913ZBPJ00    05DNHAPPY HIPPIE             033842    VD84000000006913 N  549976487134                            000000000+                F DF 00381                     000000000  N000000000       0000000000000.00 0000000.00   0000000.00                             000000000000000                                                                                                                                                     01418 A000000000000 0000000000000.70     00800 01500                  
02275360551780021DT67590675900000002881800888800000010180088824001193114900019700190042420230000000158011423000000000133849423223XXXXXX1683       VS11    0001111   NYV1 A E463114660588604N8400000000015804BZN00    05DNHAPPY HIPPIE             065022    VD84000000001580 N  549976487134                            000000000+                F DF 00381                     000000000  N000000000       0000000000000.00 0000000.00   0000000.00                             000000000000000                                                                                                                                                     01418 A000000000000 0000000000000.28     00800 01500                  
02275370551780022DT67590675900000002881800888800000010180088824001193114900019700208042420230000000225811423000000000133849400022XXXXXX6773       VS11    0001111   NYV1 A E463114663672579N840000000002258C2J500    05DNHAPPY HIPPIE             680570    VD84000000002258 N  549976487134                            000000000+                F DF 10433                     000000000  Y000000000 338   0000000000000.00 0000000.00   0000000.00                             000000000000000                                                                                                                                                     01418 A000000000000 0000000000000.23     00050 02200                  
02275380551780023DT67590675900000002881800888800000010180088824001193114900019700216042420230000000504711423000000000133849428190XXXXXX8781       VS11    0001111   NYV1 A E303114666339909N8400000000050476QT200    90DNHAPPY HIPPIE             216532    VD84000000005047 N  549976487134                            000000000+                F PF 08170                     000000000  N000000000       0000000000000.00 0000000.00   0000000.00                             000000000000000                                                                                                                                                     01418 A000000000000 0000000000000.73     01150 01500                  
02275390551780024DT67590675900000002881800888800000010180088824001193114900019700224042420230000000329111423000000000133849419162XXXXXX3756       VS11    0001111   NYV1 A E583114668274909N840000000003291LD3900    05DNHAPPY HIPPIE             043212    VD84000000003291 N  549976487134                            000000000+                F DF 00381                     000000000  N000000000       0000000000000.00 0000000.00   0000000.00                             000000000000000                                                                                                                                                     01418 A000000000000 0000000000000.41     00800 01500                  
02275400551780025DT67590675900000002881800888800000010180088877287283114900019700234042420230000000237111423000000000133849511953XXXXXX4908       MS02WI09          NY 1 0 AMDJGMKOL70424  N840000000002371          05DNHAPPY HIPPIE             079723    MD84000000002371 N  549976487134                            000000000+M10101C5434C    MDJ  00402                     000000000  N                0000000000000.00 0000000.00   0000000.00                             000000000000000                                                                                                                                                   B101418  000000000000 0000000000000.40     01050 01500                  
02275410551780026DT67590675900000002881800888800000010180088877287283114900019700242042420230000000394911423000000000133849511953XXXXXX9431       MS02WI09          NY 1 0 AMDJIHFVL70424  N840000000003949          07DNHAPPY HIPPIE             005820    MD84000000003949 N  549976487134                            000000000+M10101M0034C    MDJ  00402                     000000000  N                0000000000000.00 0000000.00   0000000.00                             000000000000000                                                                                                                                                   B101418  000000000000 0000000000000.56     01050 01500                  
02275420551780027DT67590675900000002881800888800000010180088824001193114900019700257042420230000000482911423000000000133849419090XXXXXX9424       VS11    0001111   NYV1 A E463114727752196N840000000004829QRZX00    05DNHAPPY HIPPIE             557869    VD84000000004829 N  549976487134                            000000000+                F DF 00381                     000000000  N000000000       0000000000000.00 0000000.00   0000000.00                             000000000000000                                                                                                                                                     01418 A000000000000 0000000000000.54     00800 01500                  
02275430551780028DT67590675900000002881800888800000010180088873011003114900019700261042420230000000197111423000000000133849372741XXXXX5727                          NY 1 0 N004859328258301N840000000001971          90DNHAPPY HIPPIE             540387    AM84000000001971 N  549976487134                            000000000+51010125434C 258RP   11273                     000000000                   0000000000000.00 0000000.00   0000000.00                             000000000000000 61248972086759675900000002881 HAPPY HIPPIE             832 PARKWAY              8656540830      37862     HAPPYHIPPIE832@GMAIL.COM                  01418  000000000000 0000000000000.37     01350 00000                  
02275440551780029DT67590675900000002881800888800000010180088824001193114900019700273042420230000000395011423000000000133849422921XXXXXX4100       VS11    0001111   NYV1 A E383114752203461N8400000000039502XHL00    05DNHAPPY HIPPIE             060821    VD84000000003950 N  549976487134                            000000000+                F DF 00381                     000000000  N000000000       0000000000000.00 0000000.00   0000000.00                             000000000000000                                                                                                                                                     01418 A000000000000 0000000000000.47     00800 01500                  
02275450551780030DT67590675900000002881800888800000010180088877287283114900019700283042420230000000592711423000000000133849528072XXXXXX6261       MS02WI09          NY 1 0 AMCWCZ69L70424  N840000000005927          07DNHAPPY HIPPIE             02281Z    MC84000000005927 N  549976487134                            000000000+M10101M5434C    MCW  00646                     000000000  N                0000000000000.00 0000000.00   0000000.00                             000000000000000                                                                                                                                                   B101418  000000000000 0000000000001.17     01900 00400                  
02275460551780031DT67590675900000002881800888800000010180088824001193114900019700299042420230000000084311423000000000133849491523XXXXXX7823       VK04VS111111111   NYV1 A E583114755169477N840000000000843J7NW00    07DNHAPPY HIPPIE             029758    VD84000000000843 N  549976487134                            000000000+                F DF 10439                     000000000  Y000000000 331   0000000000000.00 0000000.00   0000000.00                             000000000000000                                                                                                                                                     01418 F000000000000 0000000000000.22     00050 02200                  
02275470551780032DT67590675900000002881800888800000010180088824001193114900019700307042420230000000395111423000000000133849445100XXXXXX2335       VS11    0001111   NYV1 A E463114761491359N8400000000039515V9600    05DNHAPPY HIPPIE             612801    VD84000000003951 N  549976487134                            000000000+                F DF 10433                     000000000  Y000000000 338   0000000000000.00 0000000.00   0000000.00                             000000000000000                                                                                                                                                     01418 A000000000000 0000000000000.24     00050 02200                  
02275480551780033DT67590675900000002881800888800000010180088824001193114900019700315042420230000000241511423000000000133849422921XXXXXX4244       VS11    0001111   NYV1 A E463114762242633N840000000002415FNXC00    05DNHAPPY HIPPIE             061825    VD84000000002415 N  549976487134                            000000000+                F DF 00381                     000000000  N000000000       0000000000000.00 0000000.00   0000000.00                             000000000000000                                                                                                                                                     01418 A000000000000 0000000000000.34     00800 01500                  
02275490551780034DT67590675900000002881800888800000010180088824001193114900019700323042420230000000263411423000000000133849443238XXXXXX8678       VS11    0001111   NYV1 A E463114772207219N8400000000026346BP300    07DNHAPPY HIPPIE             072700    VD84000000002634 N  549976487134                            000000000+                F DF 00381                     000000000  N000000000       0000000000000.00 0000000.00   0000000.00                             000000000000000                                                                                                                                                     01418 A000000000000 0000000000000.36     00800 01500                  
02275500551780035DT67590675900000002881800888800000010180088824001193114900019700331042420230000000482911423000000000133849419090XXXXXX6106       VS11    0001111   NYV1 A E303114776046955N840000000004829HG3500    05DNHAPPY HIPPIE             560534    VD84000000004829 N  549976487134                            000000000+                F DF 00381                     000000000  N000000000       0000000000000.00 0000000.00   0000000.00                             000000000000000                                                                                                                                                     01418 A000000000000 0000000000000.54     00800 01500                  
02275510551780036DT67590675900000002881800888800000010180088824001193114900019700349042420230000000065911423000000000133849440393XXXXXX3132       VK04VS111111111   NYV1 A E303114779513486N840000000000659MBCG00    07DNHAPPY HIPPIE             753658    VD84000000000659 N  549976487134                            000000000+                F PF 08165                     000000000  N000000000       0000000000000.00 0000000.00   0000000.00                             000000000000000                                                                                                                                                     01418 F000000000000 0000000000000.16     01600 00500                  
02275520551780037DT67590675900000002881800888800000010180088877287283114900019700358042420230000000691311423000000000133849517805XXXXXX3570       MS02WI09          NY 1 0 AMPLNEOYWB0424  N840000000006913          07DNHAPPY HIPPIE             05268B    MC84000000006913 N  549976487134                            000000000+M10101M5434C    MPL  00364                     000000000  N                0000000000000.00 0000000.00   0000000.00                             000000000000000                                                                                                                                                   B101418  000000000000 0000000000001.28     01800 00400                  
02275530551780038DT67590675900000002881800888800000010180088824001193114900019700364042420230000000087811423000000000133849440393XXXXXX0767       VK04VS111111111   NYV1 A E463114791403065N840000000000878N6BQ00    07DNHAPPY HIPPIE             873761    VD84000000000878 N  549976487134                            000000000+                F PF 08165                     000000000  N000000000       0000000000000.00 0000000.00   0000000.00                             000000000000000                                                                                                                                                     01418 F000000000000 0000000000000.19     01600 00500                  
02275540551780039BH6759067590000000288180088880000090170424202311423000000000014866    0000090001030005N8008886759C04252023                                                                                                                                                                                                                                                                                                                                                                                                                                                                                                                                                                                                 
02275550551780040DT67590675900000002881800888800000010180088824001193114900010300016042420230000000434411423000000000014866445102XXXXXX1667       VS11    0001111   NYV1 A E303114573663958N840000000004344DZFV00    05DNHAPPY HIPPIE             450818    VD84000000004344 N  549976487158                            000000000+                F DF 10433                     000000000  Y000000000 338   0000000000000.00 0000000.00   0000000.00                             000000000000000                                                                                                                                                     01418 A000000000000 0000000000000.24     00050 02200                  
02275560551780041DT67590675900000002881800888800000010180088824001193114900010300024042420230000000177611423000000000014866400022XXXXXX6773       VS11    0001111   NYV1 A E303114671854797N840000000001776C7L800    07DNHAPPY HIPPIE             514370    VD84000000001776 N  549976487158                            000000000+                F DF 10433                     000000000  Y000000000 338   0000000000000.00 0000000.00   0000000.00                             000000000000000                                                                                                                                                     01418 A000000000000 0000000000000.23     00050 02200                  
02275570551780042DT67590675900000002881800888800000010180088873011003114900010300038042420230000000109411423000000000014866372741XXXXX5727                          NY 1 0 N004665629106325N840000000001094          90DNHAPPY HIPPIE             712045    AM84000000001094 N  549976487158                            000000000+51010125434C 258RP   11273                     000000000                   0000000000000.00 0000000.00   0000000.00                             000000000000000 61248972086759675900000002881 HAPPY HIPPIE             832 PARKWAY              8656540830      37862     HAPPYHIPPIE832@GMAIL.COM                  01418  000000000000 0000000000000.25     01350 00000                  
02275580551780043DT67590675900000002881800888800000010180088824001193114900010300040042420230000000740311423000000000014866422921XXXXXX3801       VS11    0001111   NYV1 A E583114767318796N840000000007403MFL400    07DNHAPPY HIPPIE             062332    VD84000000007403 N  549976487158                            000000000+                F DF 00381                     000000000  N000000000       0000000000000.00 0000000.00   0000000.00                             000000000000000                                                                                                                                                     01418 A000000000000 0000000000000.74     00800 01500                  
02275590551780044DT67590675900000002881800888800000010180088877287283114900010300059042420230000000024911423000000000014866514377XXXXXX7120       MS02WI09          NY 1 0 AMDJZM4KWB0424  N840000000000249          07DNHAPPY HIPPIE             12YSXB    MD84000000000249 N  549976487158                            000000000+M10101M0034C    MDJ  00505                     000000000  N                0000000000000.00 0000000.00   0000000.00                             000000000000000                                                                                                                                                   B101418  000000000000 0000000000000.08     01550 00400                  
02275600551780045BH6759067590000000215480088880000090170424202311423000000000060000    0000090001679309N8008886759C04252023                                                                                                                                                                                                                                                                                                                                                                                                                                                                                                                                                                                                 
02275610551780046DT67590675900000002154800888800000010180088824001193114900016787463042420230000003500011423000000000060000474165XXXXXX3689               2111111   NYV4 A7W463114741818388N8400000000350006FC800    01DNDRIP DROP DISTRO LLC     011759    VD84000000035000 NP1519971004114   INV-001702               000000000+                G DG 10352                     000000000  Y000000000 338   0000000000000.00 0000000.00   0000000.00                             000000000000000                                                                                                                                                     01418 G000000035000 0000000000000.40     00050 02200                  
02275620551780001P16759067590000000215480088880000001010000000000000000    44077032730              2000000000000000000000000              000000000000                    0000000000000000000000000                    000000000000                                                                                                                                                                                                                                                                                                                                                                                                                                                                                        
02275630551780047DT67590675900000002154800888800000010180088887287283114900016793090042420230000002500011423000000000060000555675XXXXXX2050                         NY 4607AMABLIT7T80424  N840000000025000          81DNDRIP DROP DISTRO LLC     01242Q    MB84000000025000 NP1519900000001   17720                    000000000+600450S00140    MAB  11637                     000000000  N                0000000000000.00 0000000.00   0000000.00                             000000000000000                                                                                                                                                   U001418  000000000000 0000000000007.60     03000 01000                  
02275640551780001P1675906759000000021548008888000000101                                                          000000000000          8000            471534935                                                                                                                                                                                                                                                                                                                                                                                                                                                                                                                                                            
02275650551780048BH6759067590000001094280010180000090170424202311423000000000091342    0000090001390021N8001016759C04252023                                                                                                                                                                                                                                                                                                                                                                                                                                                                                                                                                                                                 
02275660551780049DT67590675900000010942800101800000010180010124001193114900013900010042420230000000524011423000000000091342461675XXXXXX0465       VS11    0001111   NYV1 A E583114508491663N84000000000524053J300    05DNPLANET VAPOR INC #800    848220    VD84000000005240 N  599971384997                            000000000+                F DF 00381                     000000000  N000000000       0000000000000.00 0000000.00   0000000.00                             000000000000000                                                                                                                                                     01418 A000000000000 0000000000000.57     00800 01500                  
02275670551780050DT67590675900000010942800101800000010180010124001193114900013900028042420230000000663111423000000000091342473703XXXXXX2245       VS11    0001111   NYV1 A E463114523632495N8400000000066315HWV00    05DNPLANET VAPOR INC #800    026218    VD84000000006631 N  599971384997                            000000000+                F DF 10433                     000000000  Y000000000 338   0000000000000.00 0000000.00   0000000.00                             000000000000000                                                                                                                                                     01418 A000000000000 0000000000000.25     00050 02200                  
02275680551780051DT67590675900000010942800101800000010180010124001193114900013900036042420230000000462011423000000000091342473703XXXXXX8010       VS11    0001111   NYV1 A E583114571741796N8400000000046204LXQ00    05DNPLANET VAPOR INC #800    054215    VD84000000004620 N  599971384997                            000000000+                F DF 10433                     000000000  Y000000000 338   0000000000000.00 0000000.00   0000000.00                             000000000000000                                                                                                                                                     01418 A000000000000 0000000000000.24     00050 02200                  
02275690551780052DT67590675900000010942800101800000010180010124001193114900013900044042420230000000877011423000000000091342440066XXXXXX8418       VS11    0001111   NYV1 A E463114583600949N840000000008770ZBP400    05DNPLANET VAPOR INC #800    09477D    VS84000000008770 N  599971384997                            000000000+                D CD 12113                     000000000  N000000000 499   0000000000000.00 0000000.00   0000000.00                             000000000000000                                                                                                                                                     01418 A000000000000 0000000000001.94     02100 01000                  
02275700551780053DT67590675900000010942800101800000010180010124001193114900013900051042420230000000320911423000000000091342410492XXXXXX6021       VS11    0001111   NYV1 A E303114592653372N840000000003209848B00    07DNPLANET VAPOR INC #800    344710    VD84000000003209 N  599971384997                            000000000+                F DF 10433                     000000000  Y000000000 338   0000000000000.00 0000000.00   0000000.00                             000000000000000                                                                                                                                                     01418 A000000000000 0000000000000.24     00050 02200                  
02275710551780054DT67590675900000010942800101800000010180010124001193114900013900069042420230000000203211423000000000091342448261XXXXXX1578       VS11    0001111   NYV1 A E463114628264055N8400000000020322K4400    05DNPLANET VAPOR INC #800    833070    VD84000000002032 N  599971384997                            000000000+                F DF 10433                     000000000  Y000000000 338   0000000000000.00 0000000.00   0000000.00                             000000000000000                                                                                                                                                     01418 A000000000000 0000000000000.23     00050 02200                  
02275720551780055DT67590675900000010942800101800000010180010124001193114900013900077042420230000000235311423000000000091342440066XXXXXX3068       VS11    0001111   NYV1 A E583114629857077N840000000002353TMVM00    05DNPLANET VAPOR INC #800    02654B    VS84000000002353 N  599971384997                            000000000+                B CB 12111                     000000000  N000000000 495   0000000000000.00 0000000.00   0000000.00                             000000000000000                                                                                                                                                     01418 A000000000000 0000000000000.49     01650 01000                  
02275730551780056DT67590675900000010942800101800000010180010124001193114900013900085042420230000000246011423000000000091342410894XXXXXX8906       VS11    0001111   NYV1 A E383114640446884N840000000002460FCSM00    05DNPLANET VAPOR INC #800    050552    VD84000000002460 N  599971384997                            000000000+                F DF 10433                     000000000  Y000000000 338   0000000000000.00 0000000.00   0000000.00                             000000000000000                                                                                                                                                     01418 A000000000000 0000000000000.23     00050 02200                  
02275740551780057DT67590675900000010942800101800000010180010124001193114900013900093042420230000000149711423000000000091342466188XXXXXX4205       VK04VS111111111   NYV1 A E463114641119206N840000000001497ZBLT00    05DNPLANET VAPOR INC #800    045149    VD84000000001497 N  599971384997                            000000000+                F DF 10439                     000000000  Y000000000 331   0000000000000.00 0000000.00   0000000.00                             000000000000000                                                                                                                                                     01418 F000000000000 0000000000000.23     00050 02200                  
02275750551780058DT67590675900000010942800101800000010180010124001193114900013900101042420230000000534911423000000000091342461608XXXXXX8417       VS11    0001111   NYV1 A E583114667792614N840000000005349XZR500    05DNPLANET VAPOR INC #800    25923B    VS84000000005349 N  599971384997                            000000000+                B CB 12111                     000000000  N000000000 495   0000000000000.00 0000000.00   0000000.00                             000000000000000                                                                                                                                                     01418 A000000000000 0000000000000.98     01650 01000                  
02275760551780059DT67590675900000010942800101800000010180010124001193114900013900119042420230000000267411423000000000091342430602XXXXXX1751       VS11    0001111   NYV1 A E583114699046450N8400000000026743M3G00    05DNPLANET VAPOR INC #800    058231    VD84000000002674 N  599971384997                            000000000+                F DF 00381                     000000000  N000000000       0000000000000.00 0000000.00   0000000.00                             000000000000000                                                                                                                                                     01418 A000000000000 0000000000000.36     00800 01500                  
02275770551780060DT67590675900000010942800101800000010180010177287283114900013900129042420230000000534811423000000000091342558158XXXXXX7899                         NY 1 0 AMDBA3NEL70424  N840000000005348          05DNPLANET VAPOR INC #800    21HIOH    MD84000000005348 NP1599971384997                            000000000+M10101C5434C    MDB  00062                     000000000  N                0000000000000.00 0000000.00   0000000.00                             000000000000000                                                                                                                                                   B101418  000000000000 0000000000001.52     02650 01000                  
02275780551780001P1675906759000000109428001018000000101                                                          000000000000          1000            472803059                                                                                                                                                                                                                                                                                                                                                                                                                                                                                                                                                            
02275790551780061DT67590675900000010942800101800000010180010124001193114900013900135042420230000000323411423000000000091342448233XXXXXX5370       VS11    0001111   NYV1 A E383114714593449N8400000000032344PVN00    05DNPLANET VAPOR INC #800    045059    VD84000000003234 N  599971384997                            000000000+                F DF 10433                     000000000  Y000000000 338   0000000000000.00 0000000.00   0000000.00                             000000000000000                                                                                                                                                     01418 A000000000000 0000000000000.24     00050 02200                  
02275800551780062DT67590675900000010942800101800000010180010124001193114900013900143042420230000000556211423000000000091342474475XXXXXX1749       VS11    0001111   NYV1 A E583114717638800N840000000005562R85K00    05DNPLANET VAPOR INC #800    185567    VD84000000005562 N  599971384997                            000000000+                F DF 10433                     000000000  Y000000000 338   0000000000000.00 0000000.00   0000000.00                             000000000000000                                                                                                                                                     01418 A000000000000 0000000000000.25     00050 02200                  
02275810551780063DT67590675900000010942800101800000010180010124001193114900013900150042420230000001363811423000000000091342480990XXXXXX6242       VS11    0001111   NYV1 A E303114754272244N840000000013638L5RN00    05DNPLANET VAPOR INC #800    075057    VD84000000013638 N  599971384997                            000000000+                F DF 10433                     000000000  Y000000000 338   0000000000000.00 0000000.00   0000000.00                             000000000000000                                                                                                                                                     01418 A000000000000 0000000000000.29     00050 02200                  
02275820551780064DT67590675900000010942800101800000010180010124001193114900013900168042420230000000246011423000000000091342430602XXXXXX3973       VS11    0001111   NYV1 A E303114755915288N840000000002460T88X00    05DNPLANET VAPOR INC #800    072040    VD84000000002460 N  599971384997                            000000000+                F DF 00381                     000000000  N000000000       0000000000000.00 0000000.00   0000000.00                             000000000000000                                                                                                                                                     01418 A000000000000 0000000000000.35     00800 01500                  
02275830551780065DT67590675900000010942800101800000010180010124001193114900013900176042420230000000213911423000000000091342430602XXXXXX0938       VS11    0001111   NYV1 A E383114775960480N8400000000021399HHG00    05DNPLANET VAPOR INC #800    076832    VD84000000002139 N  599971384997                            000000000+                F DF 00381                     000000000  N000000000       0000000000000.00 0000000.00   0000000.00                             000000000000000                                                                                                                                                     01418 A000000000000 0000000000000.32     00800 01500                  
02275840551780066DT67590675900000010942800101800000010180010177287283114900013900186042420230000000235311423000000000091342528149XXXXXX1604       MS02WI09          NY 1 0 AMDJNRJ62D0424  N840000000002353          05DNPLANET VAPOR INC #800    066631    MD84000000002353 N  599971384997                            000000000+M10101C5434C    MDJ  00402                     000000000  N                0000000000000.00 0000000.00   0000000.00                             000000000000000                                                                                                                                                   B101418  000000000000 0000000000000.40     01050 01500                  
02275850551780067DT67590675900000010942800101800000010180010124001193114900013900192042420230000000128311423000000000091342461675XXXXXX2492       VK04VS111111111   NYV1 A E463114815190284N840000000001283L2BP00    05DNPLANET VAPOR INC #800    167620    VD84000000001283 N  599971384997                            000000000+                F DF 00451                     000000000  N000000000 214   0000000000000.00 0000000.00   0000000.00                             000000000000000                                                                                                                                                     01418 F000000000000 0000000000000.24     01550 00400                  
02275860551780068DT67590675900000010942800101800000010180010124001193114900013900200042420230000000567711423000000000091342465992XXXXXX9034       VS11    0001111   NYV1 A E463114817987552N840000000005677VMSH00    07DNPLANET VAPOR INC #800    608125    VD84000000005677 N  599971384997                            000000000+                F DF 00381                     000000000  N000000000       0000000000000.00 0000000.00   0000000.00                             000000000000000                                                                                                                                                     01418 A000000000000 0000000000000.60     00800 01500                  
02275870551780069DT67590675900000010942800101800000010180010124001193114900013900218042420230000000481311423000000000091342444796XXXXXX6043       VS11    0001111   NYV1 A E303114823584190N840000000004813F2G900    05DNPLANET VAPOR INC #800    024336    VS84000000004813 N  599971384997                            000000000+                A CA 12110                     000000000  N000000000 493   0000000000000.00 0000000.00   0000000.00                             000000000000000                                                                                                                                                     01418 A000000000000 0000000000000.83     01510 01000                  
02275880551780070BH6759067590000000659380010180000090170424202311423000000000146568    0000090001380035N8001016759C04252023                                                                                                                                                                                                                                                                                                                                                                                                                                                                                                                                                                                                 
02275890551780071DT67590675900000006593800101800000010180010124001193114900013800012042420230000000796611423000000000146568453506XXXXXX2885       VS11    0001111   NYV1 A E303114502919616N840000000007966NPHL00    05DNPLANET VAPOR INC #100    H93840    VD84000000007966 N  599977384444                            000000000+                F DF 10433                     000000000  Y000000000 338   0000000000000.00 0000000.00   0000000.00                             000000000000000                                                                                                                                                     01418 A000000000000 0000000000000.26     00050 02200                  
02275900551780072DT67590675900000006593800101800000010180010124001193114900013800020042420230000000252611423000000000146568474474XXXXXX4447       VS11    0001111   NYV1 A E463114505563954N8400000000025264CVQ00    05DNPLANET VAPOR INC #100    100023    VD84000000002526 N  599977384444                            000000000+                F DF 10433                     000000000  Y000000000 338   0000000000000.00 0000000.00   0000000.00                             000000000000000                                                                                                                                                     01418 A000000000000 0000000000000.23     00050 02200                  
02275910551780073DT67590675900000006593800101800000010180010124001193114900013800038042420230000000377911423000000000146568400231XXXXXX5055       VS11    0001111   NYV1 A E303114512216654N8400000000037798NVM00    05DNPLANET VAPOR INC #100    338655    VD84000000003779 N  599977384444                            000000000+                F DF 00381                     000000000  N000000000       0000000000000.00 0000000.00   0000000.00                             000000000000000                                                                                                                                                     01418 A000000000000 0000000000000.45     00800 01500                  
02275920551780074DT67590675900000006593800101800000010180010124001193114900013800046042420230000000431811423000000000146568455225XXXXXX8047       VS11    0001111   NYV1 A E583114516365621N840000000004318692R00    05DNPLANET VAPOR INC #100    H96408    VD84000000004318 N  599977384444                            000000000+                F DF 10433                     000000000  Y000000000 338   0000000000000.00 0000000.00   0000000.00                             000000000000000                                                                                                                                                     01418 A000000000000 0000000000000.24     00050 02200                  
02275930551780075DT67590675900000006593800101800000010180010124001193114900013800053042420230000000647611423000000000146568473703XXXXXX5164       VS11    0001111   NYV1 A E583114525708410N840000000006476Q8LN00    05DNPLANET VAPOR INC #100    043721    VD84000000006476 N  599977384444                            000000000+                F DF 10433                     000000000  Y000000000 338   0000000000000.00 0000000.00   0000000.00                             000000000000000                                                                                                                                                     01418 A000000000000 0000000000000.25     00050 02200                  
02275940551780076DT67590675900000006593800101800000010180010124001193114900013800061042420230000000242911423000000000146568400022XXXXXX2132       VS11    0001111   NYV1 A E383114562172591N8400000000024294W5Q00    05DNPLANET VAPOR INC #100    592073    VD84000000002429 N  599977384444                            000000000+                F DF 10433                     000000000  Y000000000 338   0000000000000.00 0000000.00   0000000.00                             000000000000000                                                                                                                                                     01418 A000000000000 0000000000000.23     00050 02200                  
02275950551780077DT67590675900000006593800101800000010180010124001193114900013800079042420230000000475011423000000000146568440393XXXXXX3681       VS11    0001111   NYV1 A E583114563814482N840000000004750JL6C00    05DNPLANET VAPOR INC #100    101231    VD84000000004750 N  599977384444                            000000000+                F PF 08170                     000000000  N000000000       0000000000000.00 0000000.00   0000000.00                             000000000000000                                                                                                                                                     01418 A000000000000 0000000000000.70     01150 01500                  
02275960551780078DT67590675900000006593800101800000010180010124001193114900013800087042420230000000728811423000000000146568426938XXXXXX1260       VS11    0001111   NYV1 A E383114571418643N8400000000072884L9900    05DNPLANET VAPOR INC #100    024949    VS84000000007288 N  599977384444                            000000000+                B CB 12111                     000000000  N000000000 495   0000000000000.00 0000000.00   0000000.00                             000000000000000                                                                                                                                                     01418 A000000000000 0000000000001.30     01650 01000                  
02275970551780079DT67590675900000006593800101800000010180010124001193114900013800095042420230000000431911423000000000146568498503XXXXXX1353       VS11    0001111   NYV1 A E383114575452746N840000000004319X8ZX00    05DNPLANET VAPOR INC #100    089638    VD84000000004319 N  599977384444                            000000000+                F DF 00381                     000000000  N000000000       0000000000000.00 0000000.00   0000000.00                             000000000000000                                                                                                                                                     01418 A000000000000 0000000000000.50     00800 01500                  
02275980551780080DT67590675900000006593800101800000010680010177287283114900013800105042420230000000215911423000000000146568531106XXXXXX3239                         NY91 0 N         0424  N840000000000000          90CNPLANET VAPOR INC #100              MD84000000002159 N  599977384444                            000000000+M10101B5414C    MPG  00560                     000000000  N                0000000000000.00 0000000.00   0000000.00                             000000000000000                                                                                                                                                     01418  000000000000 0000000000000.00     00000 00000                  
02275990551780081DT67590675900000006593800101800000010180010177287283114900013800113042420230000000242911423000000000146568531258XXXXXX7686       MS02WI09          NY 1 0 AMDJES9CR50424  N840000000002429          05DNPLANET VAPOR INC #100    174913    MD84000000002429 N  599977384444                            000000000+M10101C5434C    MDJ  10815                     000000000  1                0000000000000.00 0000000.00   0000000.00                             000000000000000                                                                                                                                                   B101418  000000000000 0000000000000.23     00050 02200                  
02276000551780082DT67590675900000006593800101800000010180010124001193114900013800129042420230000000075511423000000000146568440393XXXXXX4464       VK04VS111111111   NYV1 A E583114606047817N840000000000755PQBP00    05DNPLANET VAPOR INC #100    980918    VD84000000000755 N  599977384444                            000000000+                F PF 08165                     000000000  N000000000       0000000000000.00 0000000.00   0000000.00                             000000000000000                                                                                                                                                     01418 F000000000000 0000000000000.17     01600 00500                  
02276010551780083DT67590675900000006593800101800000010180010124001193114900013800137042420230000000505211423000000000146568458643XXXXXX1207       VS11    0001111   NYV1 A E463114609347640N84000000000505296QR00    05DNPLANET VAPOR INC #100    H20641    VD84000000005052 N  599977384444                            000000000+                F DF 10433                     000000000  Y000000000 338   0000000000000.00 0000000.00   0000000.00                             000000000000000                                                                                                                                                     01418 A000000000000 0000000000000.25     00050 02200                  
02276020551780084DT67590675900000006593800101800000010180010124001193114900013800145042420230000000086311423000000000146568458643XXXXXX1207       VK04VS111111111   NYV1 A E583114610374829N840000000000863J4SZ00    05DNPLANET VAPOR INC #100    H16635    VD84000000000863 N  599977384444                            000000000+                F DF 10439                     000000000  Y000000000 331   0000000000000.00 0000000.00   0000000.00                             000000000000000                                                                                                                                                     01418 F000000000000 0000000000000.22     00050 02200                  
02276030551780085DT67590675900000006593800101800000010180010124001193114900013800152042420230000000215911423000000000146568473703XXXXXX5360       VS11    0001111   NYV1 A E583114624168475N840000000002159TWF600    05DNPLANET VAPOR INC #100    045793    VD84000000002159 N  599977384444                            000000000+                F DF 10433                     000000000  Y000000000 338   0000000000000.00 0000000.00   0000000.00                             000000000000000                                                                                                                                                     01418 A000000000000 0000000000000.23     00050 02200                  
02276040551780086DT67590675900000006593800101800000010180010124001193114900013800160042420230000000213711423000000000146568406095XXXXXX6250       VS11    0001111   NYV1 A E383114670159569N84000000000213799T200    05DNPLANET VAPOR INC #100    09666D    VS84000000002137 N  599977384444                            000000000+                D CD 12113                     000000000  N000000000 499   0000000000000.00 0000000.00   0000000.00                             000000000000000                                                                                                                                                     01418 A000000000000 0000000000000.55     02100 01000                  
02276050551780087DT67590675900000006593800101800000010180010124001193114900013800178042420230000000505311423000000000146568427082XXXXXX2015       VS11    0001111   NYV1 A E583114688006896N840000000005053H42W00    05DNPLANET VAPOR INC #100    024492    VS84000000005053 N  599977384444                            000000000+                D CD 12113                     000000000  N000000000 499   0000000000000.00 0000000.00   0000000.00                             000000000000000                                                                                                                                                     01418 A000000000000 0000000000001.16     02100 01000                  
02276060551780088DT67590675900000006593800101800000010180010124001193114900013800186042420230000000874711423000000000146568465078XXXXXX7557       VS11    0001111   NYV1 A E463114703532566N8400000000087475WV900    07DNPLANET VAPOR INC #100    173823    VD84000000008747 N  599977384444                            000000000+                F DF 10433                     000000000  Y000000000 338   0000000000000.00 0000000.00   0000000.00                             000000000000000                                                                                                                                                     01418 A000000000000 0000000000000.26     00050 02200                  
02276070551780089DT67590675900000006593800101800000010180010124001193114900013800194042420230000000016211423000000000146568465078XXXXXX7557       VK04VS111111111   NYV1 A E583114707379005N840000000000162CCX500    07DNPLANET VAPOR INC #100    183586    VD84000000000162 N  599977384444                            000000000+                F DF 10439                     000000000  Y000000000 331   0000000000000.00 0000000.00   0000000.00                             000000000000000                                                                                                                                                     01418 F000000000000 0000000000000.22     00050 02200                  
02276080551780090DT67590675900000006593800101800000010180010124001193114900013800202042420230000000505211423000000000146568461608XXXXXX9404       VS11    0001111   NYV1 A E463114722539995N84000000000505265R400    05DNPLANET VAPOR INC #100    41384B    VS84000000005052 N  599977384444                            000000000+                B CB 12111                     000000000  N000000000 495   0000000000000.00 0000000.00   0000000.00                             000000000000000                                                                                                                                                     01418 A000000000000 0000000000000.93     01650 01000                  
02276090551780091DT67590675900000006593800101800000010180010124001193114900013800210042420230000000188911423000000000146568438419XXXXXX5336       VS11    0001111   NYV1 A E383114725541569N840000000001889NDPQ00    05DNPLANET VAPOR INC #100    060914    VD84000000001889 N  599977384444                            000000000+                F DF 00381                     000000000  N000000000       0000000000000.00 0000000.00   0000000.00                             000000000000000                                                                                                                                                     01418 A000000000000 0000000000000.30     00800 01500                  
02276100551780092DT67590675900000006593800101800000010180010124001193114900013800228042420230000000776811423000000000146568400022XXXXXX1363       VS11    0001111   NYV1 A E383114745119050N840000000007768KFVH00    05DNPLANET VAPOR INC #100    317147    VD84000000007768 N  599977384444                            000000000+                F DF 10433                     000000000  Y000000000 338   0000000000000.00 0000000.00   0000000.00                             000000000000000                                                                                                                                                     01418 A000000000000 0000000000000.26     00050 02200                  
02276110551780093DT67590675900000006593800101800000010180010177287283114900013800238042420230000000647711423000000000146568528149XXXXXX6333       MS02WI09          NY 1 0 AMDJVPIWL60424  N840000000006477          05DNPLANET VAPOR INC #100    060209    MD84000000006477 N  599977384444                            000000000+M10101C5434C    MDJ  00402                     000000000  N                0000000000000.00 0000000.00   0000000.00                             000000000000000                                                                                                                                                   B101418  000000000000 0000000000000.83     01050 01500                  
02276120551780094DT67590675900000006593800101800000010180010176509753114900013800242042420230000000377911423000000000146568601101XXXXXX2776   BA50                  NY41 0 N753098235551415N840000000003779    00    05DNPLANET VAPOR INC #100    02413P    DS84000000003779 N  599977384444050                         000000000+0000004910H00   DCPDI01118166799  164555000000 000000000  0          146   0000000000000.00 0000000.00   0000000.00                             000000000000000                                                                                                                                                     01418  000000000000 0000000000000.76     01740 01000                  
02276130551780095DT67590675900000006593800101800000010180010124001193114900013800251042420230000000067111423000000000146568440393XXXXXX0482       VK04VS111111111   NYV1 A E463114752281911N840000000000671H68G00    05DNPLANET VAPOR INC #100    189639    VD84000000000671 N  599977384444                            000000000+                F PF 08165                     000000000  N000000000       0000000000000.00 0000000.00   0000000.00                             000000000000000                                                                                                                                                     01418 F000000000000 0000000000000.16     01600 00500                  
02276140551780096DT67590675900000006593800101800000010180010124001193114900013800269042420230000000712511423000000000146568453506XXXXXX4463       VS11    0001111   NYV1 A E463114762938280N840000000007125DTNB00    05DNPLANET VAPOR INC #100    H68327    VD84000000007125 N  599977384444                            000000000+                F DF 10433                     000000000  Y000000000 338   0000000000000.00 0000000.00   0000000.00                             000000000000000                                                                                                                                                     01418 A000000000000 0000000000000.26     00050 02200                  
02276150551780097DT67590675900000006593800101800000010180010124001193114900013800277042420230000000437111423000000000146568430602XXXXXX0708       VS11    0001111   NYV1 A E383114765927862N840000000004371SWQZ00    05DNPLANET VAPOR INC #100    074449    VD84000000004371 N  599977384444                            000000000+                F DF 00381                     000000000  N000000000       0000000000000.00 0000000.00   0000000.00                             000000000000000                                                                                                                                                     01418 A000000000000 0000000000000.50     00800 01500                  
02276160551780098DT67590675900000006593800101800000010180010124001193114900013800285042420230000000280711423000000000146568413037XXXXXX2906       VS11    0001111   NYV1 A E383114777685972N840000000002807Q3K800    05DNPLANET VAPOR INC #100    059132    VD84000000002807 N  599977384444                            000000000+                F DF 10433                     000000000  Y000000000 338   0000000000000.00 0000000.00   0000000.00                             000000000000000                                                                                                                                                     01418 A000000000000 0000000000000.23     00050 02200                  
02276170551780099DT67590675900000006593800101800000010180010177287283114900013800295042420230000000223511423000000000146568546316XXXXXX5148       MS02WI09          NY 1 0 AMPLNG5F2D0424  N840000000002235          05DNPLANET VAPOR INC #100    024372    MC84000000002235 N  599977384444                            000000000+M10101C5434C    MPL  00015                     000000000  N                0000000000000.00 0000000.00   0000000.00                             000000000000000                                                                                                                                                   B101418  000000000000 0000000000000.47     01650 01000                  
02276180551780100DT67590675900000006593800101800000010180010124001193114900013800301042420230000000539711423000000000146568441840XXXXXX7692       VS11    0001111   NYV1 A E383114810933132N840000000005397QGPX00    05DNPLANET VAPOR INC #100    235499    VS84000000005397 N  599977384444                            000000000+                D CD 12113                     000000000  N000000000 499   0000000000000.00 0000000.00   0000000.00                             000000000000000                                                                                                                                                     01418 A000000000000 0000000000001.23     02100 01000                  
02276190551780101DT67590675900000006593800101800000010180010124001193114900013800319042420230000001107811423000000000146568432739XXXXXX0989       VS11    0001111   NYV1 A E463114819692114N840000000011078DDV700    05DNPLANET VAPOR INC #100    172394    VD84000000011078 N  599977384444                            000000000+                F DF 10433                     000000000  Y000000000 338   0000000000000.00 0000000.00   0000000.00                             000000000000000                                                                                                                                                     01418 A000000000000 0000000000000.28     00050 02200                  
02276200551780102DT67590675900000006593800101800000010180010177287283114900013800329042420230000000237511423000000000146568528149XXXXXX6803       MS02WI09          NY 1 0 AMDJAPV9WC0424  N840000000002375          05DNPLANET VAPOR INC #100    068090    MD84000000002375 N  599977384444                            000000000+M10101C5434C    MDJ  00402                     000000000  N                0000000000000.00 0000000.00   0000000.00                             000000000000000                                                                                                                                                   B101418  000000000000 0000000000000.40     01050 01500                  
02276210551780103DT67590675900000006593800101800000010180010124001193114900013800335042420230000000893911423000000000146568459954XXXXXX7653       VS11    0001111   NYV1 A E583114830994583N840000000008939FQH800    05DNPLANET VAPOR INC #100    H89479    VD84000000008939 N  599977384444                            000000000+                F DF 10433                     000000000  Y000000000 338   0000000000000.00 0000000.00   0000000.00                             000000000000000                                                                                                                                                     01418 A000000000000 0000000000000.26     00050 02200                  
02276220551780104DT67590675900000006593800101800000010180010124001193114900013800343042420230000000323811423000000000146568400022XXXXXX5600       VS11    0001111   NYV1 A E583114838094951N840000000003238MZ3T00    05DNPLANET VAPOR INC #100    710571    VD84000000003238 N  599977384444                            000000000+                F DF 10433                     000000000  Y000000000 338   0000000000000.00 0000000.00   0000000.00                             000000000000000                                                                                                                                                     01418 A000000000000 0000000000000.24     00050 02200                  
02276230551780105DT67590675900000006593800101800000010180010124001193114900013800350042420230000000431811423000000000146568438419XXXXXX5336       VS11    0001111   NYV1 A E463114853726586N84000000000431846X300    05DNPLANET VAPOR INC #100    094252    VD84000000004318 N  599977384444                            000000000+                F DF 00381                     000000000  N000000000       0000000000000.00 0000000.00   0000000.00                             000000000000000                                                                                                                                                     01418 A000000000000 0000000000000.50     00800 01500                  
02276240551780106BH6759067590000000708880010180000090170424202311423000000000131205    0000090001390039N8001016759C04252023                                                                                                                                                                                                                                                                                                                                                                                                                                                                                                                                                                                                 
02276250551780107DT67590675900000007088800101800000010180010124001193114900013900010042420230000000201911423000000000131205466189XXXXXX9683       VS11    0001111   NYV1 A E303114507250071N8400000000020197MZQ00    07DNPLANET VAPOR INC #200    094848    VD84000000002019 N  599977384620                            000000000+                F DF 10433                     000000000  Y000000000 338   0000000000000.00 0000000.00   0000000.00                             000000000000000                                                                                                                                                     01418 A000000000000 0000000000000.23     00050 02200                  
02276260551780108DT67590675900000007088800101800000010180010124001193114900013900028042420230000000349711423000000000131205414709XXXXXX7848       VS11    0001111   NYV1 A E583114510529595N840000000003497LPWG00    05DNPLANET VAPOR INC #200    01576C    VS84000000003497 N  599977384620                            000000000+                C CC 12112                     000000000  N000000000 497   0000000000000.00 0000000.00   0000000.00                             000000000000000                                                                                                                                                     01418 A000000000000 0000000000000.68     01650 01000                  
02276270551780109DT67590675900000007088800101800000010180010177287283114900013900038042420230000000237511423000000000131205510805XXXXXX4033       MS02WI09          NY 1 0 AMDJQDSUR60424  N840000000002375          07DNPLANET VAPOR INC #200    091824    MD84000000002375 N  599977384620                            000000000+M10101M0034C    MDJ  10815                     000000000  1                0000000000000.00 0000000.00   0000000.00                             000000000000000                                                                                                                                                   B101418  000000000000 0000000000000.23     00050 02200                  
02276280551780110DT67590675900000007088800101800000010180010124001193114900013900044042420230000000237511423000000000131205473703XXXXXX9857       VS11    0001111   NYV1 A E383114530126684N8400000000023758LG200    07DNPLANET VAPOR INC #200    014803    VD84000000002375 N  599977384620                            000000000+                F DF 10433                     000000000  Y000000000 338   0000000000000.00 0000000.00   0000000.00                             000000000000000                                                                                                                                                     01418 A000000000000 0000000000000.23     00050 02200                  
02276290551780111DT67590675900000007088800101800000010180010124001193114900013900051042420230000000439811423000000000131205440886XXXXXX0599       VS11    0001111   NYV1 A E383114536084673N840000000004398M7JB00    05DNPLANET VAPOR INC #200    869480    VS84000000004398 N  599977384620                            000000000+                B CB 12111                     000000000  N000000000 495   0000000000000.00 0000000.00   0000000.00                             000000000000000                                                                                                                                                     01418 A000000000000 0000000000000.83     01650 01000                  
02276300551780112DT67590675900000007088800101800000010180010124001193114900013900069042420230000000485811423000000000131205406095XXXXXX6227       VS11    0001111   NYV1 A E383114536783139N840000000004858KKDT00    05DNPLANET VAPOR INC #200    03154C    VS84000000004858 N  599977384620                            000000000+                C CC 12112                     000000000  N000000000 497   0000000000000.00 0000000.00   0000000.00                             000000000000000                                                                                                                                                     01418 A000000000000 0000000000000.90     01650 01000                  
02276310551780113DT67590675900000007088800101800000010180010124001193114900013900077042420230000000418211423000000000131205474166XXXXXX1474       VS11    0001111   NYV1 A E463114543167946N84000000000418258MX00    05DNPLANET VAPOR INC #200    033761    VD84000000004182 N  599977384620                            000000000+                G DG 10351                     000000000  Y000000000 338   0000000000000.00 0000000.00   0000000.00                             000000000000000                                                                                                                                                     01418 A000000000000 0000000000000.24     00050 02200                  
02276320551780114DT67590675900000007088800101800000010180010124001193114900013900085042420230000000331911423000000000131205438419XXXXXX4636       VS11    0001111   NYV1 A E583114556262283N840000000003319C58N00    05DNPLANET VAPOR INC #200    012707    VD84000000003319 N  599977384620                            000000000+                F DF 00381                     000000000  N000000000       0000000000000.00 0000000.00   0000000.00                             000000000000000                                                                                                                                                     01418 A000000000000 0000000000000.42     00800 01500                  
02276330551780115DT67590675900000007088800101800000010180010124001193114900013900093042420230000000863911423000000000131205433477XXXXXX1163       VS11    0001111   NYV1 A E463114563562234N8400000000086398TQ200    05DNPLANET VAPOR INC #200    012742    VD84000000008639 N  599977384620                            000000000+                F DF 10433                     000000000  Y000000000 338   0000000000000.00 0000000.00   0000000.00                             000000000000000                                                                                                                                                     01418 A000000000000 0000000000000.26     00050 02200                  
02276340551780116DT67590675900000007088800101800000010180010176509753114900013900109042420230000000756511423000000000131205601100XXXXXX5381   BA50                  NY41 0 N813098056439377N840000000007565    00    05DNPLANET VAPOR INC #200    02462R    DS84000000007565 N  599977384620050                         000000000+0000004910H00   DCCDI01000170825  114723000000 000000000  0          112   0000000000000.00 0000000.00   0000000.00                             000000000000000                                                                                                                                                     01418  000000000000 0000000000001.40     01720 01000                  
02276350551780117DT67590675900000007088800101800000010180010124001193114900013900119042420230000000248311423000000000131205443049XXXXXX2520       VS11    0001111   NYV1 A E583114587734685N8400000000024839VGS00    05DNPLANET VAPOR INC #200    117658    VD84000000002483 N  599977384620                            000000000+                F DF 10433                     000000000  Y000000000 338   0000000000000.00 0000000.00   0000000.00                             000000000000000                                                                                                                                                     01418 A000000000000 0000000000000.23     00050 02200                  
02276360551780118DT67590675900000007088800101800000010180010124001193114900013900127042420230000000323811423000000000131205455225XXXXXX2926       VS11    0001111   NYV1 A E463114614576950N840000000003238M8GN00    05DNPLANET VAPOR INC #200    H23712    VD84000000003238 N  599977384620                            000000000+                F DF 10433                     000000000  Y000000000 338   0000000000000.00 0000000.00   0000000.00                             000000000000000                                                                                                                                                     01418 A000000000000 0000000000000.24     00050 02200                  
02276370551780119DT67590675900000007088800101800000010180010124001193114900013900135042420230000000075511423000000000131205433477XXXXXX1351       VK04VS111111111   NYV1 A E583114621940663N84000000000075567ZK00    05DNPLANET VAPOR INC #200    033349    VD84000000000755 N  599977384620                            000000000+                F DF 10439                     000000000  Y000000000 331   0000000000000.00 0000000.00   0000000.00                             000000000000000                                                                                                                                                     01418 F000000000000 0000000000000.22     00050 02200                  
