07195920055183409AD675906759000000133008001028000009071900012072850000001799107022023NYY18323ND6759800102070420232023181022033                                                                                                                                                                                                                                                                                                                                                                                                                                                                                                                                                                                              
07195930055183412AD675906759000000133008001028000009071900011969380000000999807022023NYY18323ND6759800102070420232023181022034                                                                                                                                                                                                                                                                                                                                                                                                                                                                                                                                                                                              
07195940055183415AD675906759000000161968001028000009071900016540160000000639807022023NYY18323ND6759800102070420232023181022035                                                                                                                                                                                                                                                                                                                                                                                                                                                                                                                                                                                              
07195950055183418AD675906759000000142748001028000009071900011961540000000129507022023NYY18323ND6759800102070420232023181022036                                                                                                                                                                                                                                                                                                                                                                                                                                                                                                                                                                                              
07195960055183421AD675906759000000142748001028000009071900011961550000000149507022023NYY18323ND6759800102070420232023181022037                                                                                                                                                                                                                                                                                                                                                                                                                                                                                                                                                                                              
07195970055183424AD675906759000000268498001258000009071900017370690000001977007022023NYY18323ND6759800125070420232023181022038                                                                                                                                                                                                                                                                                                                                                                                                                                                                                                                                                                                              
07195980055521968AD675906759000000151648008888000009071231570483080000001987006302023NYY18123ND6759800888070420232023157048308                                                                                                                                                                                                                                                                                                                                                                                                                                                                                                                                                                                              
07195990055521971AD675906759000000151648008888000009071231580031610000000654806302023NYY18123ND6759800888070420232023158003161                                                                                                                                                                                                                                                                                                                                                                                                                                                                                                                                                                                              
07196000055521974AD675906759000000151648008888000009071231590033840000001637106302023NYY18123ND6759800888070420232023159003384                                                                                                                                                                                                                                                                                                                                                                                                                                                                                                                                                                                              
07196010056871104BH6759067590000001982880010980000090170703202318423000000000090667    0000090001950695N8001096759D07042023095                                                                                                                                                                                                                                                                                                                                                                                                                                                                                                                                                                                              
07196020056871105DT67590675900000019828800109800000010180010987287283184900019505967062820230000002487018423000000000090667547415XXXXXX9396                         YY 4607AMEBLHE9D10625  N840000000024870          81DNKETOFUSION 8885968154    06179G    MB84000000024870 NDR599977547467   FECE38C9DFTD5E4B0ECBFEE  000000000+600450S00130    MEB  11002                     000000000  N                0000000000000.00 0000000.00   0000000.00                             000000000000000                                                                                                                                                   U0015WPE 000000000000 0000000000007.93     03150 01000                  
07196030056871105DR675906759000000198288001098000000101FECE38C9DFTD5E4B0ECBFEE  Y000000000000                 P1                                                                                                                                                                                                                                                                                                                                                                                                                                                                                                                                                                                                            
07196040056870001P1675906759000000198288001098000000101                                                          000000000000          8000            884295529                                                                                                                                                                                                                                                                                                                                                                                                                                                                                                                                                            
07196050056870002G26759067590000001982880010980000001018885968154               UT           9 B               210                  884295529           YNNN           210000000000000000000000000                        7                                          77547467                                                                                                                                                                                                                                                                                                                                                                                                                                               
07196060056871106DT67590675900000019828800109800000010680010987287283184900019506999062920230000000519018423000000000090667541802XXXXXX5238                         YY94607N         0629  N840000000000000          81CNKETOFUSION 8885968154              MC84000000005190FN  599977547467   F371C7C4E0T37174474E6F1  000000000+600450S00130    MCW  12243                     000000000  N                0000000000000.00 0000000.00   0000000.00                             000000000000000                                                                                                                                                     015WPE 000000000000-0000000000000.52     01000 00000                  
07196070056870001G26759067590000001982880010980000001068885968154               UT           9 W               210                                      NNNN           210000000000000000000000000                        7                                          77547467                                                                                                                                                                                                                                                                                                                                                                                                                                               
07196080056871107DT67590675900000019828800109800000010680010987287283184900019507005062920230000000327418423000000000090667541802XXXXXX5238                         YY94607N         0629  N840000000000000          81CNKETOFUSION 8885968154              MC84000000003274FN  599977547467   F371C7C4E0TED541DF5A929  000000000+600450S00130    MCW  12243                     000000000  N                0000000000000.00 0000000.00   0000000.00                             000000000000000                                                                                                                                                     015WPE 000000000000-0000000000000.33     01000 00000                  
07196090056870001G26759067590000001982880010980000001068885968154               UT           9 W               210                                      NNNN           210000000000000000000000000                        7                                          77547467                                                                                                                                                                                                                                                                                                                                                                                                                                               
07196100056871108DT67590675900000019828800109800000010680010987287283184900019507013062920230000001987018423000000000090667510805XXXXXX7217                         YY94607N         0629  N840000000000000          81CNKETOFUSION 8885968154              MD84000000019870 N  599977547467   96D18D82C4TE369F34A7D62  000000000+600450S00130    MDJ  10828                     000000000  1                0000000000000.00 0000000.00   0000000.00                             000000000000000                                                                                                                                                     015WPE 000000000000 0000000000000.00     00000 00000                  
07196110056870001G26759067590000001982880010980000001068885968154               UT           9 J               210                                      NNNN           210000000000000000000000000                        7                                          77547467                                                                                                                                                                                                                                                                                                                                                                                                                                               
07196120056871109DT67590675900000019828800109800000010680010987287283184900019506833062920230000001987018423000000000090667514377XXXXXX1515                         YY 4607AMDJR9CU470629  N840000000019870          81CNKETOFUSION 8885968154    2ED8VR    MD84000000019870 NDR599977547467   2A514EBE3FT50853C3CF720  000000000+600450S00130    MDJ  00560                     000000000  N                0000000000000.00 0000000.00   0000000.00                             000000000000000                                                                                                                                                     015WPE 000000000000 0000000000000.00     00000 00000                  
07196130056871109DR6759067590000001982880010980000001062A514EBE3FT50853C3CF720  Y000000000000                                                                                                                                                                                                                                                                                                                                                                                                                                                                                                                                                                                                                               
07196140056870001G26759067590000001982880010980000001068885968154               UT           9 J               210                                      NNNN           210000000000000000000000000                        7                                          77547467                                                                                                                                                                                                                                                                                                                                                                                                                                               
07196150056871110DT67590675900000019828800109800000010680010974001193184900019506845062920230000001394818423000000000090667430594XXXXXX2861               0000000   YYV4 07T383180511737455N8400000000139488JPS00    01CNKETOFUSION 8885968154    201532    VD84000000013948 NDR599977547467   A04E79E4C9T801512656793  000000000+                F DF 08168                     000000000  Y000000000 369   0000000000000.00 0000000.00   0000000.00                             000000000000000                                                                                                                                                     015WPE 000000013948 0000000000000.00     00000 00000                  
07196160056871110DR675906759000000198288001098000000106A04E79E4C9T801512656793  U000000013948                 P1                                                                                                                                                                                                                                                                                                                                                                                                                                                                                                                                                                                                            
07196170056870001P16759067590000001982880010980000001060000000000000000                             2000000000000000000000000              000000000000                    0000000000000000000000000                    000000000000                                                                                                                                                                                                                                                                                                                                                                                                                                                                                        
07196180056870002G2675906759000000198288001098000000106888-5968154              UT           9 D                00                                      NNNN   N                      000000000000                                                                   77547467                                                                                                                                                                                                                                                                                                                                                                                                                                               
07196190056871111DT67590675900000019828800109800000010680010987287283184900019506858062920230000001799118423000000000090667514752XXXXXX6226                         YY 4607AMDJRY70630629  N840000000017991          81CNKETOFUSION 8885968154    029990    MD84000000017991 NDR599977547467   32D019EFCBT0EA451D72F6E  000000000+600450S00130    MDJ  10828                     000000000  1                0000000000000.00 0000000.00   0000000.00                             000000000000000                                                                                                                                                     015WPE 000000000000 0000000000000.00     00000 00000                  
07196200056871111DR67590675900000019828800109800000010632D019EFCBT0EA451D72F6E  R000000000000                                                                                                                                                                                                                                                                                                                                                                                                                                                                                                                                                                                                                               
07196210056870001G26759067590000001982880010980000001068885968154               UT           9 J               210                                      NNNN           210000000000000000000000000                        7                                          77547467                                                                                                                                                                                                                                                                                                                                                                                                                                               
07196220056871112DT67590675900000019828800109800000010680010987287283184900019506882062920230000000198818423000000000090667517431XXXXXX9307                         YY 4607AMDJKGAGD50629  N840000000001988          81CNKETOFUSION 8885968154    441889    MD84000000001988 NDR599977547467   E8F136836FT709D6B17CF12  000000000+600450S00130    MDJ  00560                     000000000  N                0000000000000.00 0000000.00   0000000.00                             000000000000000                                                                                                                                                     015WPE 000000000000 0000000000000.00     00000 00000                  
07196230056871112DR675906759000000198288001098000000106E8F136836FT709D6B17CF12  U000000000000                                                                                                                                                                                                                                                                                                                                                                                                                                                                                                                                                                                                                               
07196240056870001G26759067590000001982880010980000001068885968154               UT           9 J               210                                      NNNN           210000000000000000000000000                        7                                          77547467                                                                                                                                                                                                                                                                                                                                                                                                                                               
07196250056871113DT67590675900000019828800109800000010680010987287283184900019506890062920230000000327418423000000000090667517431XXXXXX9307                         YY 4607AMDJAZQODT0629  N840000000003274          81CNKETOFUSION 8885968154    442053    MD84000000003274 NDR599977547467   E8F136836FTA08804678738  000000000+600450S00130    MDJ  00560                     000000000  N                0000000000000.00 0000000.00   0000000.00                             000000000000000                                                                                                                                                     015WPE 000000000000 0000000000000.00     00000 00000                  
07196260056871113DR675906759000000198288001098000000106E8F136836FTA08804678738  U000000000000                                                                                                                                                                                                                                                                                                                                                                                                                                                                                                                                                                                                                               
07196270056870001G26759067590000001982880010980000001068885968154               UT           9 J               210                                      NNNN           210000000000000000000000000                        7                                          77547467                                                                                                                                                                                                                                                                                                                                                                                                                                               
07196280056871114DT67590675900000019828800109800000010680010987287283184900019506908062920230000002487018423000000000090667542418XXXXXX0442                         YY 4607AMPLRIF3QC0629  N840000000024870          81CNKETOFUSION 8885968154    467160    MC84000000024870 NDR599977547467   73F3863E2AT347838C2C450  000000000+600450S00130    MPL  00564                     000000000  N                0000000000000.00 0000000.00   0000000.00                             000000000000000                                                                                                                                                     015WPE 000000000000-0000000000004.35     01750 00000                  
07196290056871114DR67590675900000019828800109800000010673F3863E2AT347838C2C450  U000000000000                                                                                                                                                                                                                                                                                                                                                                                                                                                                                                                                                                                                                               
07196300056870001G26759067590000001982880010980000001068885968154               UT           9 L               210                                      NNNN           210000000000000000000000000                        7                                          77547467                                                                                                                                                                                                                                                                                                                                                                                                                                               
07196310056871115DT67590675900000019828800109800000010680010987287283184900019506940062920230000000327418423000000000090667519068XXXXXX9264                         YY 4607AMDBGEH1GE0629  N840000000003274          81CNKETOFUSION 8885968154    009122    MD84000000003274 NDR599977547467   983C1FCA90TC79FF198CA67  000000000+600450S00130    MDB  00568                     000000000  N                0000000000000.00 0000000.00   0000000.00                             000000000000000                                                                                                                                                     015WPE 000000000000-0000000000000.72     02210 00000                  
07196320056871115DR675906759000000198288001098000000106983C1FCA90TC79FF198CA67  U000000000000                 P1                                                                                                                                                                                                                                                                                                                                                                                                                                                                                                                                                                                                            
07196330056870001P1675906759000000198288001098000000106                                                          000000000000          8000            884295529                                                                                                                                                                                                                                                                                                                                                                                                                                                                                                                                                            
07196340056870002G26759067590000001982880010980000001068885968154               UT           9 B               210                  884295529           YNNN           210000000000000000000000000                        7                                          77547467                                                                                                                                                                                                                                                                                                                                                                                                                                               
07196350056871116DT67590675900000019828800109800000010680010987287283184900019506957062920230000000198818423000000000090667519068XXXXXX9264                         YY 4607AMDBRJJKR00629  N840000000001988          81CNKETOFUSION 8885968154    019545    MD84000000001988 NDR599977547467   983C1FCA90T99F11E45B224  000000000+600450S00130    MDB  00568                     000000000  N                0000000000000.00 0000000.00   0000000.00                             000000000000000                                                                                                                                                     015WPE 000000000000-0000000000000.44     02210 00000                  
07196360056871116DR675906759000000198288001098000000106983C1FCA90T99F11E45B224  U000000000000                 P1                                                                                                                                                                                                                                                                                                                                                                                                                                                                                                                                                                                                            
07196370056870001P1675906759000000198288001098000000106                                                          000000000000          8000            884295529                                                                                                                                                                                                                                                                                                                                                                                                                                                                                                                                                            
07196380056870002G26759067590000001982880010980000001068885968154               UT           9 B               210                  884295529           YNNN           210000000000000000000000000                        7                                          77547467                                                                                                                                                                                                                                                                                                                                                                                                                                               
07196390056871119BH6759067590000001516480088880000090170703202318423000000000047335    0000090001228864N8008886759D07042023122                                                                                                                                                                                                                                                                                                                                                                                                                                                                                                                                                                                              
07196400056871120DT67590675900000015164800888800000010680088887287283184900012288686062920230000002487018423000000000047335535482XXXXXX3581                         YY94607N         0629  N840000000000000          81CNKETOFUSION833-923-3587             MD84000000024870FN  599977360677   C28A8C2F8CT0FF826F06985  000000000+600450S00130    MDG  12241                     000000000  N                0000000000000.00 0000000.00   0000000.00                             000000000000000                                                                                                                                                     015WPE 000000000000-0000000000002.49     01000 00000                  
07196410056870001G26759067590000001516480088880000001068014041097               UT           9 G               210                                      NNNN           210000000000000000000000000                        7                                          77360677                                                                                                                                                                                                                                                                                                                                                                                                                                               
07196420056871121DT67590675900000015164800888800000010680088887287283184900012288694062920230000000259518423000000000047335535482XXXXXX3581                         YY94607N         0629  N840000000000000          81CNKETOFUSION833-923-3587             MD84000000002595FN  599977360677   C28A8C2F8CT86C8DE4D0951  000000000+600450S00130    MDG  12241                     000000000  N                0000000000000.00 0000000.00   0000000.00                             000000000000000                                                                                                                                                     015WPE 000000000000-0000000000000.26     01000 00000                  
07196430056870001G26759067590000001516480088880000001068014041097               UT           9 G               210                                      NNNN           210000000000000000000000000                        7                                          77360677                                                                                                                                                                                                                                                                                                                                                                                                                                               
07196440056871122DT67590675900000015164800888800000010680088874001193184900012288649062920230000001987018423000000000047335440066XXXXXX1227               0000000   YYV4 07T583180711185094N840000000019870PBSH00    01CNKETOFUSION833-923-3587   00568D    VS84000000019870 NDR599977360677   70B7A34C3DTBD59792A3A2F  000000000+                D CD 00245                     000000000  N000000000 166   0000000000000.00 0000000.00   0000000.00                             000000000000000                                                                                                                                                     015WPE 000000019870-0000000000003.50     01760 00000                  
07196450056871122DR67590675900000015164800888800000010670B7A34C3DTBD59792A3A2F  Y000000019870                 P1                                                                                                                                                                                                                                                                                                                                                                                                                                                                                                                                                                                                            
07196460056870001P16759067590000001516480088880000001060000000000000000                             2000000000000000000000000              000000000000                    0000000000000000000000000                    000000000000                                                                                                                                                                                                                                                                                                                                                                                                                                                                                        
07196470056870002G2675906759000000151648008888000000106801-4041097              UT           9 C                00                                      NNNN   Y                      000000000000                                                                   77360677                                                                                                                                                                                                                                                                                                                                                                                                                                               
07196480056871125BH6759067590000002684980012580000090170703202318423000000000001504    0000090001787985N8001256759D07042023078                                                                                                                                                                                                                                                                                                                                                                                                                                                                                                                                                                                              
07196490056871126DT67590675900000026849800125800000010180012524001193184900017877748062820230000001977018423000000000001504408037XXXXXX4066       PS01EF022111111   YYV4 07N383176436652110N840000000019770L5KQ00    01DNCBD8885133385            006547    VS84000000019770 NDR599978220273   4A1B3F73D5TBE33A4774337  000000000+                B CB 11868                     000000000  N000000010 105   0000000000000.00 0000000.00   0000000.00                             000000000000000                                                                                                                                                     015WPE 000000019770 0000000000006.33     03150 01000                  
07196500056871126DR6759067590000002684980012580000001014A1B3F73D5TBE33A4774337  Y000000019770                 P1                                                                                                                                                                                                                                                                                                                                                                                                                                                                                                                                                                                                            
07196510056870001P16759067590000002684980012580000001010000000000000000                             2000000000000000000000000              000000000000                    0000000000000000000000000                    000000000000                                                                                                                                                                                                                                                                                                                                                                                                                                                                                        
07196520056870002G2675906759000000268498001258000000101888-5133385              WY           9 C                00                                      NNNN   N                      000000000000                                                                   78220273                                                                                                                                                                                                                                                                                                                                                                                                                                               
07196530056871127DT67590675900000026849800125800000010180012576509753184900017877753062820230000001280318423000000000001504601100XXXXXX7449   BA00                  YY 4 07N873151528827957N840000000012803    00    01DNCBD8885133385            02529R    DS84000000012803 NDR599978220273070                         000000000+1015104910600   DCCDI11325336443  080802000000 000000000  0          460   0000000000000.00 0000000.00   0000000.00                             000000000000000                                                                                                                                                     015WPE 000000000000 0000000000002.70     02030 01000                  
07196540056871127DR675906759000000268498001258000000101                         Y                                                                                                                                                                                                                                                                                                                                                                                                                                                                                                                                                                                                                                           
07196550056870001G2675906759000000268498001258000000101855-4401547              WY           9 C                00                                      NNNN                          000000000000                         00000650975601179750000543                78220273                                                                                                                                                                                                                                                                                                                                                                                                                                               
07196560056871128DT67590675900000026849800125800000010180012587287283184900017877764062820230000001977018423000000000001504513519XXXXXX3616       ME01KE01M101      YY 4607AMDJJ9A29B0625  N840000000019770          81DNCBD8885133385            002431    MD84000000019770 NDR599978220273   8D0EE86631TA74FCA846B52  000000000+600450S00130    MDJ  00397                     000000000  N                0000000000000.00 0000000.00   0000000.00                             000000000000000                                                                                                                                                   U0015WPE 000000000000 0000000000004.01     01900 02500                  
07196570056871128DR6759067590000002684980012580000001018D0EE86631TA74FCA846B52  Y000000000000                                                                                                                                                                                                                                                                                                                                                                                                                                                                                                                                                                                                                               
07196580056870001G26759067590000002684980012580000001018885133385               WY           9 J               210                                      NNNN           210000000000000000000000000                        7                                          78220273                                                                                                                                                                                                                                                                                                                                                                                                                                               
07196590056871129DT67590675900000026849800125800000010180012576509753184900017877779062820230000001280318423000000000001504601120XXXXXX2576   BA00                  YY 4 07N813151528887662N840000000012803    00    01DNCBD8885133385            02555B    DZ84000000012803 NDR599978220273070                         000000000+1015104910600   DMCDI01017833549  080808000000 000000000  0          129   0000000000000.00 0000000.00   0000000.00                             000000000000000                                                                                                                                                     015WPE 000000000000 0000000000004.00     03050 01000                  
07196600056871129DR675906759000000268498001258000000101                         Y                                                                                                                                                                                                                                                                                                                                                                                                                                                                                                                                                                                                                                           
07196610056870001G2675906759000000268498001258000000101855-4401547              WY           9 C                00                                      NNNN                          000000000000                         00000650975601179750000543                78220273                                                                                                                                                                                                                                                                                                                                                                                                                                               
07196620056871130DT67590675900000026849800125800000010180012587287283184900017877806062820230000000590418423000000000001504542217XXXXXX9612       ME01KE01PT01      YY 4607AMCWYT8N6O0625  N840000000005904          81DNCBD8885133385            02650P    MC84000000005904 NDR599978220273   DC7A1A597DTC6960FAEDE30  000000000+600450S00130    MCW  00641                     000000000  N                0000000000000.00 0000000.00   0000000.00                             000000000000000                                                                                                                                                   U0015WPE 000000000000 0000000000001.96     03150 01000                  
07196630056871130DR675906759000000268498001258000000101DC7A1A597DTC6960FAEDE30  Y000000000000                                                                                                                                                                                                                                                                                                                                                                                                                                                                                                                                                                                                                               
07196640056870001G26759067590000002684980012580000001018885133385               WY           9 W               210                                      NNNN           210000000000000000000000000                        7                                          78220273                                                                                                                                                                                                                                                                                                                                                                                                                                               
07196650056871131DT67590675900000026849800125800000010180012576509753184900017877886062820230000001788318423000000000001504601100XXXXXX1687   BA00                  YY 4 07N813151600867406N840000000017883    00    01DNCBD8885133385            02567R    DS84000000017883 NDR599978220273070                         000000000+1015104910600   DCCDI11325832546  100806000000 000000000  0          460   0000000000000.00 0000000.00   0000000.00                             000000000000000                                                                                                                                                     015WPE 000000000000 0000000000003.73     02030 01000                  
07196660056871131DR675906759000000268498001258000000101                         Y                                                                                                                                                                                                                                                                                                                                                                                                                                                                                                                                                                                                                                           
07196670056870001G2675906759000000268498001258000000101855-4401547              WY           9 C                00                                      NNNN                          000000000000                         00000650975601179750000543                78220273                                                                                                                                                                                                                                                                                                                                                                                                                                               
07196680056871132DT67590675900000026849800125800000010180012524001193184900017877896062820230000001977018423000000000001504443566XXXXXX0145       PS01EF022111111   YYV4 07N383176544891106N840000000019770Z6M300    01DNCBD8885133385            332503    VD84000000019770 NDR599978220273   EBBEEA2BEDT5549B3B77ED5  000000000+                F DF 00426                     000000000  N000000010       0000000000000.00 0000000.00   0000000.00                             000000000000000                                                                                                                                                     015WPE 000000019770 0000000000004.01     01900 02500                  
07196690056871132DR675906759000000268498001258000000101EBBEEA2BEDT5549B3B77ED5  Y000000019770                 P1                                                                                                                                                                                                                                                                                                                                                                                                                                                                                                                                                                                                            
07196700056870001P16759067590000002684980012580000001010000000000000000                             2000000000000000000000000              000000000000                    0000000000000000000000000                    000000000000                                                                                                                                                                                                                                                                                                                                                                                                                                                                                        
07196710056870002G2675906759000000268498001258000000101888-5133385              WY           9 D                00                                      NNNN   N                      000000000000                                                                   78220273                                                                                                                                                                                                                                                                                                                                                                                                                                               
07196720056871133DT67590675900000026849800125800000010180012524001193184900017877995062820230000001977018423000000000001504410039XXXXXX2564       PS01EF022111111   YYV4 07N583176545179797N840000000019770HVBG00    01DNCBD8885133385            80935C    VS84000000019770 NDR599978220273   07BCAB6AC3T473D802AC408  000000000+                C CC 11868                     000000000  N000000010 105   0000000000000.00 0000000.00   0000000.00                             000000000000000                                                                                                                                                     015WPE 000000019770 0000000000006.33     03150 01000                  
07196730056871133DR67590675900000026849800125800000010107BCAB6AC3T473D802AC408  Y000000019770                 P1                                                                                                                                                                                                                                                                                                                                                                                                                                                                                                                                                                                                            
07196740056870001P16759067590000002684980012580000001010000000000000000                             2000000000000000000000000              000000000000                    0000000000000000000000000                    000000000000                                                                                                                                                                                                                                                                                                                                                                                                                                                                                        
07196750056870002G2675906759000000268498001258000000101888-5133385              WY           9 C                00                                      NNNN   Y                      000000000000                                                                   78220273                                                                                                                                                                                                                                                                                                                                                                                                                                               
07196760056871134DT67590675900000026849800125800000010180012587287283184900017878069062820230000001280318423000000000001504528546XXXXXX5146       ME01KE01M101      YY 4607AMWEMMS39B0625  N840000000012803          81DNCBD8885133385            70829P    MC84000000012803 NDR599978220273   ABEF252A41TA2B5F0BE1A40  000000000+600450S00130    MWE  00736                     000000000  N                0000000000000.00 0000000.00   0000000.00                             000000000000000                                                                                                                                                   U0015WPE 000000000000 0000000000004.13     03150 01000                  
07196770056871134DR675906759000000268498001258000000101ABEF252A41TA2B5F0BE1A40  Y000000000000                                                                                                                                                                                                                                                                                                                                                                                                                                                                                                                                                                                                                               
07196780056870001G26759067590000002684980012580000001018885133385               WY           9 E               210                                      NNNN           210000000000000000000000000                        7                                          78220273                                                                                                                                                                                                                                                                                                                                                                                                                                               
07196790056871135DT67590675900000026849800125800000010180012576509753184900017878116062820230000001280318423000000000001504601100XXXXXX2654   BA00                  YY 4 07N753151672590579N840000000012803    00    01DNCBD8885133385            02563R    DS84000000012803 NDR599978220273070                         000000000+1015104910600   DCCDI11325833559  120739000000 000000000  0          460   0000000000000.00 0000000.00   0000000.00                             000000000000000                                                                                                                                                     015WPE 000000000000 0000000000002.70     02030 01000                  
07196800056871135DR675906759000000268498001258000000101                         Y                                                                                                                                                                                                                                                                                                                                                                                                                                                                                                                                                                                                                                           
07196810056870001G2675906759000000268498001258000000101855-4401547              WY           9 C                00                                      NNNN                          000000000000                         00000650975601179750000543                78220273                                                                                                                                                                                                                                                                                                                                                                                                                                               
07196820056871136DT67590675900000026849800125800000010180012524001193184900017878142062820230000002477018423000000000001504481582XXXXXX1911       PS01EF022111111   YYV4 07N303176616673570N8400000000247703GS400    01DNCBD8885133385            140771    VD84000000024770 NDR599978220273   F915BBA593T5CF07E67558C  000000000+                F DF 10440                     000000000  Y000000010 338   0000000000000.00 0000000.00   0000000.00                             000000000000000                                                                                                                                                     015WPE 000000024770 0000000000000.34     00050 02200                  
07196830056871136DR675906759000000268498001258000000101F915BBA593T5CF07E67558C  Y000000024770                 P1                                                                                                                                                                                                                                                                                                                                                                                                                                                                                                                                                                                                            
07196840056870001P16759067590000002684980012580000001010000000000000000                             2000000000000000000000000              000000000000                    0000000000000000000000000                    000000000000                                                                                                                                                                                                                                                                                                                                                                                                                                                                                        
07196850056870002G2675906759000000268498001258000000101888-5133385              WY           9 D                00                                      NNNN   N                      000000000000                                                                   78220273                                                                                                                                                                                                                                                                                                                                                                                                                                               
07196860056871137DT67590675900000026849800125800000010180012524001193184900017878274062820230000001280318423000000000001504426684XXXXXX3399       PS01    2111111   YYV4 07N383176688668320N8400000000128033MBB00    01DNCBD8885133385            02403D    VS84000000012803 NDR599978220273   89FB15AF0ET79A85ECEB904  000000000+                D CD 11868                     000000000  N000000010 105   0000000000000.00 0000000.00   0000000.00                             000000000000000                                                                                                                                                     015WPE 000000012803 0000000000004.13     03150 01000                  
07196870056871137DR67590675900000026849800125800000010189FB15AF0ET79A85ECEB904  Y000000012803                 P1                                                                                                                                                                                                                                                                                                                                                                                                                                                                                                                                                                                                            
07196880056870001P16759067590000002684980012580000001010000000000000000                             2000000000000000000000000              000000000000                    0000000000000000000000000                    000000000000                                                                                                                                                                                                                                                                                                                                                                                                                                                                                        
07196890056870002G2675906759000000268498001258000000101888-5133385              WY           9 C                00                                      NNNN   Y                      000000000000                                                                   78220273                                                                                                                                                                                                                                                                                                                                                                                                                                               
07196900056871138DT67590675900000026849800125800000010180012524001193184900017878365062820230000001489218423000000000001504410039XXXXXX6657       PS01    2111111   YYV4 07N383176724689437N840000000014892BHV500    01DNCBD8885133385            93330D    VS84000000014892 NDR599978220273   941BC7DDD0T657CBD8B2AA8  000000000+                D CD 11868                     000000000  N000000010 105   0000000000000.00 0000000.00   0000000.00                             000000000000000                                                                                                                                                     015WPE 000000014892 0000000000004.79     03150 01000                  
07196910056871138DR675906759000000268498001258000000101941BC7DDD0T657CBD8B2AA8  Y000000014892                 P1                                                                                                                                                                                                                                                                                                                                                                                                                                                                                                                                                                                                            
07196920056870001P16759067590000002684980012580000001010000000000000000                             2000000000000000000000000              000000000000                    0000000000000000000000000                    000000000000                                                                                                                                                                                                                                                                                                                                                                                                                                                                                        
07196930056870002G2675906759000000268498001258000000101888-5133385              WY           9 C                00                                      NNNN   Y                      000000000000                                                                   78220273                                                                                                                                                                                                                                                                                                                                                                                                                                               
07196940056871139DT67590675900000026849800125800000010180012524001193184900017878407062820230000001977018423000000000001504426690XXXXXX2142       PS01EF022111111   YYV4 07N383177004709621N8400000000197706DD600    01DNCBD8885133385            02525C    VS84000000019770 NDR599978220273   0C2677CD16TAB103BD44751  000000000+                C CC 11868                     000000000  N000000010 105   0000000000000.00 0000000.00   0000000.00                             000000000000000                                                                                                                                                     015WPE 000000019770 0000000000006.33     03150 01000                  
07196950056871139DR6759067590000002684980012580000001010C2677CD16TAB103BD44751  Y000000019770                 P1                                                                                                                                                                                                                                                                                                                                                                                                                                                                                                                                                                                                            
07196960056870001P16759067590000002684980012580000001010000000000000000                             2000000000000000000000000              000000000000                    0000000000000000000000000                    000000000000                                                                                                                                                                                                                                                                                                                                                                                                                                                                                        
07196970056870002G2675906759000000268498001258000000101888-5133385              WY           9 C                00                                      NNNN   Y                      000000000000                                                                   78220273                                                                                                                                                                                                                                                                                                                                                                                                                                               
07196980056871140DT67590675900000026849800125800000010680012574001193184900017879640062920230000001480318423000000000001504410039XXXXXX6185               0000000   YYV4 07T463180511338410N840000000014803VHH500    01CNCBD8885133385            98581D    VS84000000014803 NDR599978220273   D3F039CE63T8A941A52FDAB  000000000+                D CD 00245                     000000000  N000000000 166   0000000000000.00 0000000.00   0000000.00                             000000000000000                                                                                                                                                     015WPE 000000014803-0000000000002.61     01760 00000                  
07196990056871140DR675906759000000268498001258000000106D3F039CE63T8A941A52FDAB  U000000014803                 P1                                                                                                                                                                                                                                                                                                                                                                                                                                                                                                                                                                                                            
07197000056870001P16759067590000002684980012580000001060000000000000000                             2000000000000000000000000              000000000000                    0000000000000000000000000                    000000000000                                                                                                                                                                                                                                                                                                                                                                                                                                                                                        
07197010056870002G2675906759000000268498001258000000106888-5133385              WY           9 C                00                                      NNNN   Y                      000000000000                                                                   78220273                                                                                                                                                                                                                                                                                                                                                                                                                                               
07197020056871141DT67590675900000026849800125800000010680012587287283184900017879661062920230000001927818423000000000001504533267XXXXXX3670                         YY 4607AMDJQHPV630629  N840000000019278          81CNCBD8885133385            030806    MD84000000019278 NDR599978220273   B9EA579623TDB53838905B9  000000000+600450S00130    MDJ  00560                     000000000  N                0000000000000.00 0000000.00   0000000.00                             000000000000000                                                                                                                                                     015WPE 000000000000 0000000000000.00     00000 00000                  
07197030056871141DR675906759000000268498001258000000106B9EA579623TDB53838905B9  U000000000000                                                                                                                                                                                                                                                                                                                                                                                                                                                                                                                                                                                                                               
07197040056870001G26759067590000002684980012580000001068885133385               WY           9 J               210                                      NNNN           210000000000000000000000000                        7                                          78220273                                                                                                                                                                                                                                                                                                                                                                                                                                               
07197050056871142DT67590675900000026849800125800000010680012587287283184900017879679062920230000000740218423000000000001504542418XXXXXX1424                         YY 4607AMPLTJF9470629  N840000000007402          81CNCBD8885133385            939835    MC84000000007402 NDR599978220273   E57B4D6620T0F4A33F4D12F  000000000+600450S00130    MPL  00564                     000000000  N                0000000000000.00 0000000.00   0000000.00                             000000000000000                                                                                                                                                     015WPE 000000000000-0000000000001.30     01750 00000                  
07197060056871142DR675906759000000268498001258000000106E57B4D6620T0F4A33F4D12F  U000000000000                                                                                                                                                                                                                                                                                                                                                                                                                                                                                                                                                                                                                               
07197070056870001G26759067590000002684980012580000001068885133385               WY           9 L               210                                      NNNN           210000000000000000000000000                        7                                          78220273                                                                                                                                                                                                                                                                                                                                                                                                                                               
07197080056871143DT67590675900000026849800125800000010680012587287283184900017879687062920230000001977018423000000000001504521333XXXXXX9864                         YY 4607AMPLTSC9470629  N840000000019770          81CNCBD8885133385            029103    MC84000000019770 NDR599978220273   2175B81B78TCB677090609B  000000000+600450S00130    MPL  00564                     000000000  N                0000000000000.00 0000000.00   0000000.00                             000000000000000                                                                                                                                                     015WPE 000000000000-0000000000003.46     01750 00000                  
07197090056871143DR6759067590000002684980012580000001062175B81B78TCB677090609B  R000000000000                                                                                                                                                                                                                                                                                                                                                                                                                                                                                                                                                                                                                               
07197100056870001G26759067590000002684980012580000001068885133385               WY           9 L               210                                      NNNN           210000000000000000000000000                        7                                          78220273                                                                                                                                                                                                                                                                                                                                                                                                                                               
07197110056871144DT67590675900000026849800125800000010680012587287283184900017879695062920230000000988518423000000000001504546632XXXXXX4464                         YY 4607AMCWSMHZ350629  N840000000009885          81CNCBD8885133385            046203    MC84000000009885 NDR599978220273   4BAB5B4B68T9540FFE74615  000000000+600450S00130    MCW  00564                     000000000  N                0000000000000.00 0000000.00   0000000.00                             000000000000000                                                                                                                                                     015WPE 000000000000-0000000000001.73     01750 00000                  
07197120056871144DR6759067590000002684980012580000001064BAB5B4B68T9540FFE74615  Y000000000000                                                                                                                                                                                                                                                                                                                                                                                                                                                                                                                                                                                                                               
07197130056870001G26759067590000002684980012580000001068885133385               WY           9 W               210                                      NNNN           210000000000000000000000000                        7                                          78220273                                                                                                                                                                                                                                                                                                                                                                                                                                               
07197140056871145DT67590675900000026849800125800000010680012587287283184900017879703062920230000001977018423000000000001504519452XXXXXX2487                         YY 4607AMCWU3PK470629  N840000000019770          81CNCBD8885133385            041985    MC84000000019770 NDR599978220273   F4963BD089TDEB774F481F0  000000000+600450S00130    MCW  00564                     000000000  N                0000000000000.00 0000000.00   0000000.00                             000000000000000                                                                                                                                                     015WPE 000000000000-0000000000003.46     01750 00000                  
07197150056871145DR675906759000000268498001258000000106F4963BD089TDEB774F481F0  A000000000000                                                                                                                                                                                                                                                                                                                                                                                                                                                                                                                                                                                                                               
07197160056870001G26759067590000002684980012580000001068885133385               WY           9 W               210                                      NNNN           210000000000000000000000000                        7                                          78220273                                                                                                                                                                                                                                                                                                                                                                                                                                               
07197170056871146DT67590675900000026849800125800000010680012587287283184900017879711062920230000002477018423000000000001504542418XXXXXX2019                         YY 4607AMPLM1P7QC0629  N840000000024770          81CNCBD8885133385            293285    MC84000000024770 NDR599978220273   490107BA28T9EC053934970  000000000+600450S00130    MPL  00564                     000000000  N                0000000000000.00 0000000.00   0000000.00                             000000000000000                                                                                                                                                     015WPE 000000000000-0000000000004.33     01750 00000                  
07197180056871146DR675906759000000268498001258000000106490107BA28T9EC053934970  U000000000000                                                                                                                                                                                                                                                                                                                                                                                                                                                                                                                                                                                                                               
07197190056870001G26759067590000002684980012580000001068885133385               WY           9 L               210                                      NNNN           210000000000000000000000000                        7                                          78220273                                                                                                                                                                                                                                                                                                                                                                                                                                               
07197200056871147DT67590675900000026849800125800000010680012587287283184900017879729062920230000001548218423000000000001504542418XXXXXX2019                         YY 4607AMPLM20AQC0629  N840000000015482          81CNCBD8885133385            866521    MC84000000015482 NDR599978220273   31DC1E96D3T0D106D7476BE  000000000+600450S00130    MPL  00564                     000000000  N                0000000000000.00 0000000.00   0000000.00                             000000000000000                                                                                                                                                     015WPE 000000000000-0000000000002.71     01750 00000                  
07197210056871147DR67590675900000026849800125800000010631DC1E96D3T0D106D7476BE  U000000000000                                                                                                                                                                                                                                                                                                                                                                                                                                                                                                                                                                                                                               
07197220056870001G26759067590000002684980012580000001068885133385               WY           9 L               210                                      NNNN           210000000000000000000000000                        7                                          78220273                                                                                                                                                                                                                                                                                                                                                                                                                                               
07197230056871148DT67590675900000026849800125800000010680012574001193184900017879749062920230000000988518423000000000001504413975XXXXXX2004               0000000   YYV4 07T463180682619495N840000000009885WCDN00    01CNCBD8885133385            029932    VS84000000009885 NDR599978220273   859B159F49T236AEA972E55  000000000+                B CB 00245                     000000000  N000000000 166   0000000000000.00 0000000.00   0000000.00                             000000000000000                                                                                                                                                     015WPE 000000009885-0000000000001.74     01760 00000                  
07197240056871148DR675906759000000268498001258000000106859B159F49T236AEA972E55  U000000009885                 P1                                                                                                                                                                                                                                                                                                                                                                                                                                                                                                                                                                                                            
07197250056870001P16759067590000002684980012580000001060000000000000000                             2000000000000000000000000              000000000000                    0000000000000000000000000                    000000000000                                                                                                                                                                                                                                                                                                                                                                                                                                                                                        
07197260056870002G2675906759000000268498001258000000106888-5133385              WY           9 C                00                                      NNNN   N                      000000000000                                                                   78220273                                                                                                                                                                                                                                                                                                                                                                                                                                               
07197270056871149DT67590675900000026849800125800000010680012574001193184900017879764062920230000001238518423000000000001504447578XXXXXX8957               0000000   YYV4 07T463180705145811N840000000012385MXWN85    01CNCBD8885133385            053360    VD84000000012385 NDR599978220273   175BA56D33TABF58DE67791  000000000+                F DF 08168                     000000000  N000000000 369   0000000000000.00 0000000.00   0000000.00                             000000000000000                                                                                                                                                     015WPE 000000012385 0000000000000.00     00000 00000                  
07197280056871149DR675906759000000268498001258000000106175BA56D33TABF58DE67791  R000000012385                 P1                                                                                                                                                                                                                                                                                                                                                                                                                                                                                                                                                                                                            
07197290056870001P16759067590000002684980012580000001060000000000000000                             2000000000000000000000000              000000000000                    0000000000000000000000000                    000000000000                                                                                                                                                                                                                                                                                                                                                                                                                                                                                        
07197300056870002G2675906759000000268498001258000000106888-5133385              WY           9 D                00                                      NNNN   N                      000000000000                                                                   78220273                                                                                                                                                                                                                                                                                                                                                                                                                                               
07197310056871150DT67590675900000026849800125800000010680012587287283184900017879778062920230000000692018423000000000001504510735XXXXXX5958                         YY 4607AMDSBSEPDT0629  N840000000006920          81CNCBD8885133385            000551    MD84000000006920 NDR599978220273   3DE8745C59T7C334CD82611  000000000+600450S00130    MDS  00560                     000000000  N                0000000000000.00 0000000.00   0000000.00                             000000000000000                                                                                                                                                     015WPE 000000000000 0000000000000.00     00000 00000                  
07197320056871150DR6759067590000002684980012580000001063DE8745C59T7C334CD82611  U000000000000                                                                                                                                                                                                                                                                                                                                                                                                                                                                                                                                                                                                                               
07197330056870001G26759067590000002684980012580000001068885133385               WY           9 S               210                                      NNNN           210000000000000000000000000                                                                   78220273                                                                                                                                                                                                                                                                                                                                                                                                                                               
