00017230636470002BH675906759000000232598001168000009017052520231452300000000000615901970000090001532191N8001166759D05262023053                                                                                                                                                                                                                                                                                                                                                                                                                                                                                                                                                                                              
00017240636470003DT67590675900000023259800116800000010180011687287283145900015321763052420230000002178914523000000000006159542432XXXXXX3817       ME03KE06MS02      NN 4607AMDJRW66EE0524  N840000000021789          81DNGFORCEHEMP844-258-9322   6510610197MD84000000021789 NDR549977768166   EB9381543CTB41F9D3416EE  000000000+600450S00130    MDJ  00000                     000000000  1                0000000000000.00 0000000.00   0000000.00             000000000021789D000000000000000                                                                                                                                                   U001424  000000000000 0000000000000.00     00000 00000                  
00017250636470003DR675906759000000232598001168000000101EB9381543CTB41F9D3416EE  Y000000000000                                                                                                                                                                                                                                                                                                                                                                                                                                                                                                                                                                                                                               
00017260636470001G2675906759000000232598001168000000101844-2589322              CA           9 J               210                                      NNNN           210000000000000000000000000                        7                                          77768166                                                                                                                                                                                                                                                                                                                                                                                                                                               
00017270636470004DT67590675900000023259800116800000010680011674001193145900015321775052420230000001760014523000000000006159482004XXXXXX1420               0000000   NNV4 07T383145076196584N840000000017600CB8H00    01CNGFORCEHEMP844-258-9322   0011710197VS84000000017600 NDR549977768166   1065148E56T03314430EF5E  000000000+                C CC 00000                     000000000  N000000000 166   0000000000000.00 0000000.00   0000000.00             000000000017600C000000000000000                                                                                                                                                     01424  000000017600 0000000000000.00     00000 00000                  
00017280636470004DR6759067590000002325980011680000001061065148E56T03314430EF5E  Y000000017600                 P1                                                                                                                                                                                                                                                                                                                                                                                                                                                                                                                                                                                                            
00017290636470001P16759067590000002325980011680000001060000000000000000                             2000000000000000000000000              000000000000                    0000000000000000000000000                    000000000000                                                                                                                                                                                                                                                                                                                                                                                                                                                                                        
00017300636470002G2675906759000000232598001168000000106844-2589322              CA           9 C                00                                      NNNN   N                      000000000000                                                                   77768166                                                                                                                                                                                                                                                                                                                                                                                                                                               
00017310636470005DT67590675900000023259800116800000010180011687287283145900015321821052520230000001742614523000000000006159510318XXXXXX8836       ME03KE06MS02      NN 4607AMDJ0M0F5J0525  N840000000017426          81DNGFORCEHEMP844-258-9322   9168940197MD84000000017426 NDR549977768166   2070C2C923T67FD4B416039  000000000+600450S00130    MDJ  00000                     000000000  N                0000000000000.00 0000000.00   0000000.00             000000000017426D000000000000000                                                                                                                                                   U001424  000000000000 0000000000000.00     00000 00000                  
00017320636470005DR6759067590000002325980011680000001012070C2C923T67FD4B416039  Y000000000000                                                                                                                                                                                                                                                                                                                                                                                                                                                                                                                                                                                                                               
00017330636470001G2675906759000000232598001168000000101844-2589322              CA           9 J               210                                      NNNN           210000000000000000000000000                        7                                          77768166                                                                                                                                                                                                                                                                                                                                                                                                                                               
00017340636470006DT67590675900000023259800116800000010180011687287283145900015321839052520230000001306714523000000000006159549035XXXXXX2006       ME03KE06MS02      NN 4607AMPL1O4HGR0525  N840000000013067          81DNGFORCEHEMP844-258-9322   02979B0197MC84000000013067 NDR549977768166   E786B059D0T9226664BBFEF  000000000+600450S00130    MPL  00000                     000000000  N                0000000000000.00 0000000.00   0000000.00             000000000013067D000000000000000                                                                                                                                                   U001424  000000000000 0000000000000.00     00000 00000                  
00017350636470006DR675906759000000232598001168000000101E786B059D0T9226664BBFEF  Y000000000000                                                                                                                                                                                                                                                                                                                                                                                                                                                                                                                                                                                                                               
00017360636470001G2675906759000000232598001168000000101844-2589322              CA           9 L               210                                      NNNN           210000000000000000000000000                        7                                          77768166                                                                                                                                                                                                                                                                                                                                                                                                                                               
00017370636470007DT67590675900000023259800116800000010680011687287283145900015321847052520230000002178914523000000000006159542418XXXXXX6011                         NN 4607AMPLPFJ4KW0525  N840000000021789          81CNGFORCEHEMP844-258-9322   1039760197MC84000000021789 NDR549977768166   E0F8172E23TB67183445E96  000000000+600450S00130    MPL  00000                     000000000  N                0000000000000.00 0000000.00   0000000.00             000000000021789C000000000000000                                                                                                                                                     01424  000000000000 0000000000000.00     00000 00000                  
00017380636470007DR675906759000000232598001168000000106E0F8172E23TB67183445E96  U000000000000                                                                                                                                                                                                                                                                                                                                                                                                                                                                                                                                                                                                                               
00017390636470001G2675906759000000232598001168000000106844-2589322              CA           9 L               210                                      NNNN           210000000000000000000000000                        7                                          77768166                                                                                                                                                                                                                                                                                                                                                                                                                                               
00017400636470008DT67590675900000023259800116800000010680011674001193145900015321890052520230000001306714523000000000006159498436XXXXXX3554               0000000   NN94 07N000000000000000N   000000000000          01CNGFORCEHEMP844-258-9322         0197VD84000000013067 N  549977768166                            000000000+                F DF 00000                     000000000  N000000000 369   0000000000000.00 0000000.00   0000000.00             000000000013067C000000000000000                                                                                                                                                     01424  000000000000 0000000000000.00     00000 00000                  
00017410636470001G2675906759000000232598001168000000106844-2589322              CA           9 D                00                                      NNNN00 N 00                   000000000000                                                                   77768166                                                                                                                                                                                                                                                                                                                                                                                                                                               
00017420636470009DT67590675900000023259800116800000010680011674001193145900015321908052520230000000435514523000000000006159498436XXXXXX3554               0000000   NN94 07N000000000000000N   000000000000          01CNGFORCEHEMP844-258-9322         0197VD84000000004355 N  549977768166                            000000000+                F DF 00000                     000000000  N000000000 369   0000000000000.00 0000000.00   0000000.00             000000000004355C000000000000000                                                                                                                                                     01424  000000000000 0000000000000.00     00000 00000                  
00017430636470001G2675906759000000232598001168000000106844-2589322              CA           9 D                00                                      NNNN00 N 00                   000000000000                                                                   77768166                                                                                                                                                                                                                                                                                                                                                                                                                                               
00017440636470010DT67590675900000023259800116800000010680011674001193145900015321916052520230000000163014523000000000006159498436XXXXXX3554               0000000   NN94 07N000000000000000N   000000000000          01CNGFORCEHEMP844-258-9322         0197VD84000000001630 N  549977768166                            000000000+                F DF 00000                     000000000  N000000000 369   0000000000000.00 0000000.00   0000000.00             000000000001630C000000000000000                                                                                                                                                     01424  000000000000 0000000000000.00     00000 00000                  
00017450636470001G2675906759000000232598001168000000106844-2589322              CA           9 D                00                                      NNNN00 N 00                   000000000000                                                                   77768166                                                                                                                                                                                                                                                                                                                                                                                                                                               
00017460636470011BH6759067590000001619680010280000090170525202314523000000000238302    0000090001452046Y8001026759C05262023045                                                                                                                                                                                                                                                                                                                                                                                                                                                                                                                                                                                              
00017470636470012DT67590675900000016196800102800000010180010287287283145900014515266052420230000001987014523000000000238302525475XXXXXX6148       ME03KE06MS02      NY 4607AMWEA03DBM0521  N840000000019870          81DNGREEN OTTER LLC          49853Z    MC84000000019870 NDR549977424386   46212FA3FATA3EC96783148  000000000+600450S00130    MWE  00737                     000000000  N                0000000000000.00 0000000.00   0000000.00                             000000000000000                                                                                                                                                   U001424  000000000000 0000000000005.27     02600 01000                  
00017480636470012DR67590675900000016196800102800000010146212FA3FATA3EC96783148  N000000000000                                                                                                                                                                                                                                                                                                                                                                                                                                                                                                                                                                                                                               
00017490636470001G2675906759000000161968001028000000101866-6317293              GA           9 E               210                                      NNNN           210000000000000000000000000                        7                                          77424386                                                                                                                                                                                                                                                                                                                                                                                                                                               
00017500636470013DT67590675900000016196800102800000010180010287287283145900014519581052420230000001987014523000000000238302546645XXXXXX7506       ME03KE06MS02      NY 4607AMPL3NWU700524  N840000000019870          81DNGREEN OTTER LLC          024176    MC84000000019870 NDR549977424386   56683562DCTFA4226936A60  000000000+600450S00130    MPL  00013                     000000000  N                0000000000000.00 0000000.00   0000000.00                             000000000000000                                                                                                                                                   U001424  000000000000 0000000000003.97     01950 01000                  
00017510636470013DR67590675900000016196800102800000010156683562DCTFA4226936A60  Y000000000000                                                                                                                                                                                                                                                                                                                                                                                                                                                                                                                                                                                                                               
00017520636470001G2675906759000000161968001028000000101866-6317293              GA           9 L               210                                      NNNN           210000000000000000000000000                        7                                          77424386                                                                                                                                                                                                                                                                                                                                                                                                                                               
00017530636470014DT67590675900000016196800102800000010180010224001193145900014519630052520230000001987014523000000000238302440393XXXXXX3352               2111111   NYV4 A7W583145210049956N840000000019870RZ9F00    01DNGREEN OTTER LLC          892380    VD84000000019870 NDR549977424386   8A4644A010TD1087C8F7913  000000000+                F PF 08175                     000000000  N000000000       0000000000000.00 0000000.00   0000000.00                             000000000000000                                                                                                                                                     01424 G000000019870 0000000000003.68     01750 02000                  
00017540636470014DR6759067590000001619680010280000001018A4644A010TD1087C8F7913  N000000019870                 P1                                                                                                                                                                                                                                                                                                                                                                                                                                                                                                                                                                                                            
00017550636470001P16759067590000001619680010280000001010000000000000000                             2000000000000000000000000              000000000000                    0000000000000000000000000                    000000000000                                                                                                                                                                                                                                                                                                                                                                                                                                                                                        
00017560636470002G2675906759000000161968001028000000101866-6317293              GA           9 P                00                                      NNNN   N                      000000000000                                                                   77424386                                                                                                                                                                                                                                                                                                                                                                                                                                               
00017570636470015DT67590675900000016196800102800000010180010224001193145900014519648052520230000002487014523000000000238302413331XXXXXX5958               2111111   NYV4 A7W383145217134895N8400000000248705N8400    01DNGREEN OTTER LLC          215008    VD84000000024870 NDR549977424386   F90C869006T3989EDC47AE7  000000000+                F DF 00415                     000000000  N000000000       0000000000000.00 0000000.00   0000000.00                             000000000000000                                                                                                                                                     01424 G000000024870 0000000000004.25     01650 01500                  
00017580636470015DR675906759000000161968001028000000101F90C869006T3989EDC47AE7  Y000000024870                 P1                                                                                                                                                                                                                                                                                                                                                                                                                                                                                                                                                                                                            
00017590636470001P16759067590000001619680010280000001010000000000000000                             2000000000000000000000000              000000000000                    0000000000000000000000000                    000000000000                                                                                                                                                                                                                                                                                                                                                                                                                                                                                        
00017600636470002G2675906759000000161968001028000000101866-6317293              GA           9 D                00                                      NNNN   N                      000000000000                                                                   77424386                                                                                                                                                                                                                                                                                                                                                                                                                                               
00017610636470016DT67590675900000016196800102800000010180010224001193145900014519812052520230000000149514523000000000238302440443XXXXXX7685               2111111   NYV4 A7W303145546726238N840000000001495XXSV00    01DNGREEN OTTER LLC          001112    VD84000000001495 NDR549977424386   7B404DCB66TDB27EFEF8C9C  000000000+                G DG 08705                     000000000  N000000000       0000000000000.00 0000000.00   0000000.00                             000000000000000                                                                                                                                                     01424 G000000001495 0000000000000.47     02450 01000                  
00017620636470016DR6759067590000001619680010280000001017B404DCB66TDB27EFEF8C9C  Y000000001495                 P1                                                                                                                                                                                                                                                                                                                                                                                                                                                                                                                                                                                                            
00017630636470001P16759067590000001619680010280000001010000000000000000                             2000000000000000000000000              000000000000                    0000000000000000000000000                    000000000000                                                                                                                                                                                                                                                                                                                                                                                                                                                                                        
00017640636470002G2675906759000000161968001028000000101866-6317293              GA           9 D                00                                      NNNN   N                      000000000000                                                                   77424386                                                                                                                                                                                                                                                                                                                                                                                                                                               
00017650636470017DT67590675900000016196800102800000010180010287287283145900014519854052520230000000129514523000000000238302517278XXXXXX9588       ME03KE06MS02      NY 4607AMDJN77PJN0525  N840000000001295          81DNGREEN OTTER LLC          046061    MD84000000001295 NDR549977424386   9EAE848675TEC17FAAE8516  000000000+600450S00130    MDJ  00401                     000000000  N                0000000000000.00 0000000.00   0000000.00                             000000000000000                                                                                                                                                   U001424  000000000000 0000000000000.36     01650 01500                  
00017660636470017DR6759067590000001619680010280000001019EAE848675TEC17FAAE8516  Z000000000000                                                                                                                                                                                                                                                                                                                                                                                                                                                                                                                                                                                                                               
00017670636470001G2675906759000000161968001028000000101866-6317293              GA           9 J               210                                      NNNN           210000000000000000000000000                                                                   77424386                                                                                                                                                                                                                                                                                                                                                                                                                                               
00017680636470018DT67590675900000016196800102800000010180010224001193145900014519887052520230000002106214523000000000238302411233XXXXXX3003               2111111   NYV4 A7W303145556626598N840000000021062CNN300    01DNGREEN OTTER LLC          025722    VS84000000021062 NDR549977424386   246E953D4FT9B6CDA906CF8  000000000+                B CB 12107                     000000000  N000000000 494   0000000000000.00 0000000.00   0000000.00                             000000000000000                                                                                                                                                     01424 G000000021062 0000000000004.40     02040 01000                  
00017690636470018DR675906759000000161968001028000000101246E953D4FT9B6CDA906CF8  Y000000021062                 P1                                                                                                                                                                                                                                                                                                                                                                                                                                                                                                                                                                                                            
00017700636470001P16759067590000001619680010280000001010000000000000000                             2000000000000000000000000              000000000000                    0000000000000000000000000                    000000000000                                                                                                                                                                                                                                                                                                                                                                                                                                                                                        
00017710636470002G2675906759000000161968001028000000101866-6317293              GA           9 C                00                                      NNNN   N                      000000000000                                                                   77424386                                                                                                                                                                                                                                                                                                                                                                                                                                               
00017720636470019DT67590675900000016196800102800000010680010274001193145900014520013052520230000002169414523000000000238302426684XXXXXX3213               0000000   NYV4 07T463145597807504N840000000021694XQST00    01CNGREEN OTTER LLC          08623C    VS84000000021694 NDR549977424386   EA965F3FEBTDD5244C7096D  000000000+                C CC 00245                     000000000  N000000000 166   0000000000000.00 0000000.00   0000000.00                             000000000000000                                                                                                                                                     01424  000000021694-0000000000003.82     01760 00000                  
00017730636470019DR675906759000000161968001028000000106EA965F3FEBTDD5244C7096D  Y000000021694                 P1                                                                                                                                                                                                                                                                                                                                                                                                                                                                                                                                                                                                            
00017740636470001P16759067590000001619680010280000001060000000000000000                             2000000000000000000000000              000000000000                    0000000000000000000000000                    000000000000                                                                                                                                                                                                                                                                                                                                                                                                                                                                                        
00017750636470002G2675906759000000161968001028000000106866-6317293              GA           9 C                00                                      NNNN   Y                      000000000000                                                                   77424386                                                                                                                                                                                                                                                                                                                                                                                                                                               
00017760636470020DT67590675900000016196800102800000010180010287287283145900014520035052520230000002487014523000000000238302552330XXXXXX5756       ME03KE06MS02      NY 4607AMPLEJ0AU60525  N840000000024870          81DNGREEN OTTER LLC          02524B    MC84000000024870 NDR549977424386   35103E42C3TB6355F2D30A0  000000000+600450S00130    MPL  00580                     000000000  N                0000000000000.00 0000000.00   0000000.00                             000000000000000                                                                                                                                                   U001424  000000000000 0000000000005.32     02100 01000                  
00017770636470020DR67590675900000016196800102800000010135103E42C3TB6355F2D30A0  Y000000000000                                                                                                                                                                                                                                                                                                                                                                                                                                                                                                                                                                                                                               
00017780636470001G2675906759000000161968001028000000101866-6317293              GA           9 L               210                                      NNNN           210000000000000000000000000                        7                                          77424386                                                                                                                                                                                                                                                                                                                                                                                                                                               
00017790636470021DT67590675900000016196800102800000010680010287287283145900014520050052520230000001887114523000000000238302552330XXXXXX5756                         NY 4607AMPLHMKI0M0525  N840000000018871          81CNGREEN OTTER LLC          025335    MC84000000018871 NDR549977424386   35103E42C3TB6355F2D30A0  000000000+600450S00130    MPL  00565                     000000000  N                0000000000000.00 0000000.00   0000000.00                             000000000000000                                                                                                                                                     01424  000000000000-0000000000003.30     01750 00000                  
00017800636470021DR67590675900000016196800102800000010635103E42C3TB6355F2D30A0  R000000000000                                                                                                                                                                                                                                                                                                                                                                                                                                                                                                                                                                                                                               
00017810636470001G2675906759000000161968001028000000106866-6317293              GA           9 L               210                                      NNNN           210000000000000000000000000                        7                                          77424386                                                                                                                                                                                                                                                                                                                                                                                                                                               
00017820636470022DT67590675900000016196800102800000010180010287287283145900014520092052520230000001987014523000000000238302546164XXXXXX7545       ME03KE06MS02      NY 4607AMDSGS7TU90525  N840000000019870          81DNGREEN OTTER LLC          147766    MD84000000019870 NDR549977424386   D7C2276F54T2725D22A5352  000000000+600450S00130    MDS  00401                     000000000  N                0000000000000.00 0000000.00   0000000.00                             000000000000000                                                                                                                                                   U001424  000000000000 0000000000003.43     01650 01500                  
00017830636470022DR675906759000000161968001028000000101D7C2276F54T2725D22A5352  Y000000000000                                                                                                                                                                                                                                                                                                                                                                                                                                                                                                                                                                                                                               
00017840636470001G2675906759000000161968001028000000101866-6317293              GA           9 S               210                                      NNNN           210000000000000000000000000                                                                   77424386                                                                                                                                                                                                                                                                                                                                                                                                                                               
00017850636470023DT67590675900000016196800102800000010180010287287283145900014520159052520230000002686014523000000000238302515165XXXXXX1103       ME03KE06MS02      NY 4607AMDSQLCL0L0525  N840000000026860          81DNGREEN OTTER LLC          588883    MD84000000026860 NDR549977424386   B8BC17C0FET5B15F690C4DC  000000000+600450S00130    MDS  00401                     000000000  N                0000000000000.00 0000000.00   0000000.00                             000000000000000                                                                                                                                                   U001424  000000000000 0000000000004.58     01650 01500                  
00017860636470023DR675906759000000161968001028000000101B8BC17C0FET5B15F690C4DC  Y000000000000                                                                                                                                                                                                                                                                                                                                                                                                                                                                                                                                                                                                                               
00017870636470001G2675906759000000161968001028000000101866-6317293              GA           9 S               210                                      NNNN           210000000000000000000000000                                                                   77424386                                                                                                                                                                                                                                                                                                                                                                                                                                               
00017880636470024DT67590675900000016196800102800000010180010287287283145900014520191052520230000000999814523000000000238302524300XXXXXX8820       ME03KE06MS02      NY 4607AMPLJ0020M0525  N840000000009998          81DNGREEN OTTER LLC          02578B    MC84000000009998 NDR549977424386   DC7CE19DE9T42304D377FAD  000000000+600450S00130    MPL  00580                     000000000  N                0000000000000.00 0000000.00   0000000.00                             000000000000000                                                                                                                                                   U001424  000000000000 0000000000002.20     02100 01000                  
00017890636470024DR675906759000000161968001028000000101DC7CE19DE9T42304D377FAD  Z000000000000                                                                                                                                                                                                                                                                                                                                                                                                                                                                                                                                                                                                                               
00017900636470001G2675906759000000161968001028000000101866-6317293              GA           9 L               210                                      NNNN           210000000000000000000000000                        7                                          77424386                                                                                                                                                                                                                                                                                                                                                                                                                                               
00017910636470025DT67590675900000016196800102800000010180010287287283145900014520233052520230000002131114523000000000238302544687XXXXXX1399       ME03KE06MS02      NY 4607AMDJHZC9U60525  N840000000021311          81DNGREEN OTTER LLC          456860    MD84000000021311 NDR549977424386   9326413DD9T02DF0091707B  000000000+600450S00130    MDJ  00401                     000000000  N                0000000000000.00 0000000.00   0000000.00                             000000000000000                                                                                                                                                   U001424  000000000000 0000000000003.67     01650 01500                  
00017920636470025DR6759067590000001619680010280000001019326413DD9T02DF0091707B  Y000000000000                                                                                                                                                                                                                                                                                                                                                                                                                                                                                                                                                                                                                               
00017930636470001G2675906759000000161968001028000000101866-6317293              GA           9 J               210                                      NNNN           210000000000000000000000000                        7                                          77424386                                                                                                                                                                                                                                                                                                                                                                                                                                               
00017940636470026DT67590675900000016196800102800000010180010287287283145900014520308052520230000001200814523000000000238302547415XXXXXX7287                         NY 4607AMEBLK4L0M0525  N840000000012008          81DNGREEN OTTER LLC          03372C    MB84000000012008 NDR549977424386   155563BFBCT53874F765426  000000000+600450S00130    MEB  11033                     000000000  N                0000000000000.00 0000000.00   0000000.00                             000000000000000                                                                                                                                                   U001424  000000000000 0000000000003.28     02650 01000                  
00017950636470026DR675906759000000161968001028000000101155563BFBCT53874F765426  Y000000000000                 P1                                                                                                                                                                                                                                                                                                                                                                                                                                                                                                                                                                                                            
00017960636470001P1675906759000000161968001028000000101                                                          000000000000          8000            871584967                                                                                                                                                                                                                                                                                                                                                                                                                                                                                                                                                            
00017970636470002G2675906759000000161968001028000000101866-6317293              GA           9 B               210                  871584967           YNNN           210000000000000000000000000                        7                                          77424386                                                                                                                                                                                                                                                                                                                                                                                                                                               
00017980636470027DT67590675900000016196800102800000010180010287287283145900014520324052520230000002255014523000000000238302517279XXXXXX5031       ME03KE06MS02      NY 4607AMDJBMVOU60525  N840000000022550          81DNGREEN OTTER LLC          070865    MD84000000022550 NDR549977424386   EA0FE86CC4T5DE01673070D  000000000+600450S00130    MDJ  00401                     000000000  N                0000000000000.00 0000000.00   0000000.00                             000000000000000                                                                                                                                                   U001424  000000000000 0000000000003.87     01650 01500                  
00017990636470027DR675906759000000161968001028000000101EA0FE86CC4T5DE01673070D  Y000000000000                                                                                                                                                                                                                                                                                                                                                                                                                                                                                                                                                                                                                               
00018000636470001G2675906759000000161968001028000000101866-6317293              GA           9 J               210                                      NNNN           210000000000000000000000000                                                                   77424386                                                                                                                                                                                                                                                                                                                                                                                                                                               
00018010636470028DT67590675900000016196800102800000010180010224001193145900014520349052520230000002390314523000000000238302440393XXXXXX5367               2111111   NYV4 A7W303145711070824N84000000002390397N300    01DNGREEN OTTER LLC          514996    VD84000000023903 NDR549977424386   1CC107C0E2T9C28641BE128  000000000+                F PF 08175                     000000000  N000000000       0000000000000.00 0000000.00   0000000.00                             000000000000000                                                                                                                                                     01424 G000000023903 0000000000004.38     01750 02000                  
00018020636470028DR6759067590000001619680010280000001011CC107C0E2T9C28641BE128  Y000000023903                 P1                                                                                                                                                                                                                                                                                                                                                                                                                                                                                                                                                                                                            
00018030636470001P16759067590000001619680010280000001010000000000000000                             2000000000000000000000000              000000000000                    0000000000000000000000000                    000000000000                                                                                                                                                                                                                                                                                                                                                                                                                                                                                        
00018040636470002G2675906759000000161968001028000000101866-6317293              GA           9 P                00                                      NNNN   N                      000000000000                                                                   77424386                                                                                                                                                                                                                                                                                                                                                                                                                                               
00018050636470029DT67590675900000016196800102800000010680010287287283145900014520357052520230000001744614523000000000238302517279XXXXXX5031                         NY 4607AMDJMJ4Y0M0525  N840000000017446          81CNGREEN OTTER LLC          053750    MD84000000017446 NDR549977424386   EA0FE86CC4T5DE01673070D  000000000+600450S00130    MDJ  00560                     000000000  N                0000000000000.00 0000000.00   0000000.00                             000000000000000                                                                                                                                                     01424  000000000000 0000000000000.00     00000 00000                  
00018060636470029DR675906759000000161968001028000000106EA0FE86CC4T5DE01673070D  U000000000000                                                                                                                                                                                                                                                                                                                                                                                                                                                                                                                                                                                                                               
00018070636470001G2675906759000000161968001028000000106866-6317293              GA           9 J               210                                      NNNN           210000000000000000000000000                                                                   77424386                                                                                                                                                                                                                                                                                                                                                                                                                                               
00018080636470030DT67590675900000016196800102800000010180010224001193145900014520463052520230000002661114523000000000238302435983XXXXXX9586               2111111   NYV4 A7W303145807900584N840000000026611PJQJ00    01DNGREEN OTTER LLC          715262    VS84000000026611 NDR549977424386   C230E092BATD6564C533ED9  000000000+                C CC 12108                     000000000  N000000000 496   0000000000000.00 0000000.00   0000000.00                             000000000000000                                                                                                                                                     01424 G000000026611 0000000000005.56     02050 01000                  
00018090636470030DR675906759000000161968001028000000101C230E092BATD6564C533ED9  Y000000026611                 P1                                                                                                                                                                                                                                                                                                                                                                                                                                                                                                                                                                                                            
00018100636470001P16759067590000001619680010280000001010000000000000000                             2000000000000000000000000              000000000000                    0000000000000000000000000                    000000000000                                                                                                                                                                                                                                                                                                                                                                                                                                                                                        
00018110636470002G2675906759000000161968001028000000101866-6317293              GA           9 C                00                                      NNNN   Y                      000000000000                                                                   77424386                                                                                                                                                                                                                                                                                                                                                                                                                                               
00018120636470031BH6759067590000000370780088880000090170525202314523000000000109724    0000090001190946Y8008886759C05262023119                                                                                                                                                                                                                                                                                                                                                                                                                                                                                                                                                                                              
00018130636470032DT67590675900000003707800888800000010180088887287283145900011909348052420230000000210314523000000000109724542418XXXXXX5328       ME03KE06MS02      NY 4607AMWE2W7L700524  N840000000002103          81DNMR HEMP FLOWER           32970P    MC84000000002103 NDR549976053336   90041                    000000000+600450S00130    MWE  00737                     000000000  N                0000000000000.00 0000000.00   0000000.00                             000000000000000                                                                                                                                                   U001424  000000000000 0000000000000.65     02600 01000                  
00018140636470032DR67590675900000003707800888800000010190041                    Y000000000000                                                                                                                                                                                                                                                                                                                                                                                                                                                                                                                                                                                                                               
00018150636470001G2675906759000000037078008888000000101833-3877579              FL           9 E               210                                      NNNN           210000000000000000000000000                        7                                          76053336                                                                                                                                                                                                                                                                                                                                                                                                                                               
00018160636470033DT67590675900000003707800888800000010180088824001193145900011909354052420230000000562914523000000000109724460718XXXXXX2636               2111111   NYV4 A7W463145009134464N840000000005629VL3M00    01DNMR HEMP FLOWER           341196    VD84000000005629 NDR549976053336   90042                    000000000+                F DF 00415                     000000000  N000000000       0000000000000.00 0000000.00   0000000.00                             000000000000000                                                                                                                                                     01424 G000000005629 0000000000001.08     01650 01500                  
00018170636470033DR67590675900000003707800888800000010190042                    Y000000005629                 P1                                                                                                                                                                                                                                                                                                                                                                                                                                                                                                                                                                                                            
00018180636470001P16759067590000000370780088880000001010000000000000000                             2000000000000000000000000              000000000000                    0000000000000000000000000                    000000000000                                                                                                                                                                                                                                                                                                                                                                                                                                                                                        
00018190636470002G2675906759000000037078008888000000101833-3877579              FL           9 D                00                                      NNNN   N                      000000000000                                                                   76053336                                                                                                                                                                                                                                                                                                                                                                                                                                               
00018200636470034DT67590675900000003707800888800000010180088824001193145900011909362052420230000000349914523000000000109724400344XXXXXX3352               2111111   NYV4 A7W583145101567343N84000000000349989MQ00    01DNMR HEMP FLOWER           07501B    VS84000000003499 NDR549976053336   90050                    000000000+                B CB 12107                     000000000  N000000000 494   0000000000000.00 0000000.00   0000000.00                             000000000000000                                                                                                                                                     01424 G000000003499 0000000000000.81     02040 01000                  
00018210636470034DR67590675900000003707800888800000010190050                    Y000000003499                 P1                                                                                                                                                                                                                                                                                                                                                                                                                                                                                                                                                                                                            
00018220636470001P16759067590000000370780088880000001010000000000000000                             2000000000000000000000000              000000000000                    0000000000000000000000000                    000000000000                                                                                                                                                                                                                                                                                                                                                                                                                                                                                        
00018230636470002G2675906759000000037078008888000000101833-3877579              FL           9 C                00                                      NNNN   Y                      000000000000                                                                   76053336                                                                                                                                                                                                                                                                                                                                                                                                                                               
00018240636470035DT67590675900000003707800888800000010180088824001193145900011909412052520230000000649714523000000000109724411756XXXXXX9358               2111111   NYV4 A7W583145209690113N840000000006497X3PG00    01DNMR HEMP FLOWER           023748    VD84000000006497 NDR549976053336   90052                    000000000+                F DF 00415                     000000000  N000000000       0000000000000.00 0000000.00   0000000.00                             000000000000000                                                                                                                                                     01424 G000000006497 0000000000001.22     01650 01500                  
00018250636470035DR67590675900000003707800888800000010190052                    Y000000006497                 P1                                                                                                                                                                                                                                                                                                                                                                                                                                                                                                                                                                                                            
00018260636470001P16759067590000000370780088880000001010000000000000000                             2000000000000000000000000              000000000000                    0000000000000000000000000                    000000000000                                                                                                                                                                                                                                                                                                                                                                                                                                                                                        
00018270636470002G2675906759000000037078008888000000101833-3877579              FL           9 D                00                                      NNNN   N                      000000000000                                                                   76053336                                                                                                                                                                                                                                                                                                                                                                                                                                               
00018280636470036DT67590675900000003707800888800000010180088824001193145900011909420052520230000001800014523000000000109724451980XXXXXX1852               2111111   NYV4 A7W463145436546343N840000000018000VZ9J00    01DNMR HEMP FLOWER           025481    VS84000000018000 NDR549976053336   90053                    000000000+                B CB 12107                     000000000  N000000000 494   0000000000000.00 0000000.00   0000000.00                             000000000000000                                                                                                                                                     01424 G000000018000 0000000000003.77     02040 01000                  
00018290636470036DR67590675900000003707800888800000010190053                    Y000000018000                 P1                                                                                                                                                                                                                                                                                                                                                                                                                                                                                                                                                                                                            
00018300636470001P16759067590000000370780088880000001010000000000000000                             2000000000000000000000000              000000000000                    0000000000000000000000000                    000000000000                                                                                                                                                                                                                                                                                                                                                                                                                                                                                        
00018310636470002G2675906759000000037078008888000000101833-3877579              FL           9 C                00                                      NNNN   N                      000000000000                                                                   76053336                                                                                                                                                                                                                                                                                                                                                                                                                                               
00018320636470037DT67590675900000003707800888800000010180088824001193145900011909438052520230000001749914523000000000109724423570XXXXXX5741               2111111   NYV4 A7W303145479901734N840000000017499GGF800    01DNMR HEMP FLOWER           831676    VD84000000017499 NDR549976053336   90054                    000000000+                F DF 00415                     000000000  N000000000       0000000000000.00 0000000.00   0000000.00                             000000000000000                                                                                                                                                     01424 G000000017499 0000000000003.04     01650 01500                  
00018330636470037DR67590675900000003707800888800000010190054                    Y000000017499                 P1                                                                                                                                                                                                                                                                                                                                                                                                                                                                                                                                                                                                            
00018340636470001P16759067590000000370780088880000001010000000000000000                             2000000000000000000000000              000000000000                    0000000000000000000000000                    000000000000                                                                                                                                                                                                                                                                                                                                                                                                                                                                                        
00018350636470002G2675906759000000037078008888000000101833-3877579              FL           9 D                00                                      NNNN   N                      000000000000                                                                   76053336                                                                                                                                                                                                                                                                                                                                                                                                                                               
00018360636470038DT67590675900000003707800888800000010180088887287283145900011909447052520230000001800014523000000000109724525362XXXXXX2683       ME03KE06MS02      NY 4607AMPFHESQJN0525  N840000000018000          81DNMR HEMP FLOWER           300870    MD84000000018000 NDR549976053336   90062                    000000000+600450S00130    MPF  09899                     000000000  N                0000000000000.00 0000000.00   0000000.00                             000000000000000                                                                                                                                                   U001424  000000000000 0000000000003.37     01760 02000                  
00018370636470038DR67590675900000003707800888800000010190062                    U000000000000                                                                                                                                                                                                                                                                                                                                                                                                                                                                                                                                                                                                                               
00018380636470001G2675906759000000037078008888000000101833-3877579              FL           9 F               210                                      NNNN           210000000000000000000000000                                                                   76053336                                                                                                                                                                                                                                                                                                                                                                                                                                               
00018390636470039DT67590675900000003707800888800000010180088887287283145900011909454052520230000003200014523000000000109724521131XXXXXX8591       ME03KE06MS02      NY 4607AMWEHEVWU90525  N840000000032000          81DNMR HEMP FLOWER           05272Z    MC84000000032000 NDR549976053336   90064                    000000000+600450S00130    MWE  00737                     000000000  N                0000000000000.00 0000000.00   0000000.00                             000000000000000                                                                                                                                                   U001424  000000000000 0000000000008.42     02600 01000                  
00018400636470039DR67590675900000003707800888800000010190064                    Z000000000000                                                                                                                                                                                                                                                                                                                                                                                                                                                                                                                                                                                                                               
00018410636470001G2675906759000000037078008888000000101833-3877579              FL           9 E               210                                      NNNN           210000000000000000000000000                        7                                          76053336                                                                                                                                                                                                                                                                                                                                                                                                                                               
00018420636470040DT67590675900000003707800888800000010180088824001193145900011909461052520230000000649714523000000000109724419002XXXXXX3430               2111111   NYV4 A7W463145840638806N84000000000649733D500    01DNMR HEMP FLOWER           017624    VD84000000006497 NDR549976053336   90072                    000000000+                F DF 10420                     000000000  Y000000000 338   0000000000000.00 0000000.00   0000000.00                             000000000000000                                                                                                                                                     01424 G000000006497 0000000000000.25     00050 02200                  
00018430636470040DR67590675900000003707800888800000010190072                    Y000000006497                 P1                                                                                                                                                                                                                                                                                                                                                                                                                                                                                                                                                                                                            
00018440636470001P16759067590000000370780088880000001010000000000000000                             2000000000000000000000000              000000000000                    0000000000000000000000000                    000000000000                                                                                                                                                                                                                                                                                                                                                                                                                                                                                        
00018450636470002G2675906759000000037078008888000000101833-3877579              FL           9 D                00                                      NNNN   N                      000000000000                                                                   76053336                                                                                                                                                                                                                                                                                                                                                                                                                                               
00018460636470041BH6759067590000001427480010280000090170525202314523000000000443761    0000090001993091Y8001026759C05262023099                                                                                                                                                                                                                                                                                                                                                                                                                                                                                                                                                                                              
00018470636470042DT67590675900000014274800102800000010180010287287283145900019922970052420230000001987014523000000000443761517279XXXXXX0478       ME03KE06MS02      NY 4607AMDJS2HQ9X0521  N840000000019870          81DNCBD8666317293            022042    MD84000000019870 NDR549977145232   6D2465BFE9TA0F6570262C1  000000000+600450S00130    MDJ  00401                     000000000  N                0000000000000.00 0000000.00   0000000.00                             000000000000000                                                                                                                                                   U001424  000000000000 0000000000003.43     01650 01500                  
00018480636470042DR6759067590000001427480010280000001016D2465BFE9TA0F6570262C1  Y000000000000                                                                                                                                                                                                                                                                                                                                                                                                                                                                                                                                                                                                                               
00018490636470001G2675906759000000142748001028000000101866-6317293              GA           9 J               210                                      NNNN           210000000000000000000000000                                                                   77145232                                                                                                                                                                                                                                                                                                                                                                                                                                               
00018500636470043DT67590675900000014274800102800000010180010224001193145900019923001052420230000002126114523000000000443761410039XXXXXX5242               2111111   NYV4 A7W383141325971386N840000000021261CD8M00    01DNCBD8666317293            67565C    VS84000000021261 NDR549977145232   AA88D19CC9TE5AD1D1166CD  000000000+                C CC 12108                     000000000  N000000000 496   0000000000000.00 0000000.00   0000000.00                             000000000000000                                                                                                                                                     01424 G000000021261 0000000000004.46     02050 01000                  
00018510636470043DR675906759000000142748001028000000101AA88D19CC9TE5AD1D1166CD  Y000000021261                 P1                                                                                                                                                                                                                                                                                                                                                                                                                                                                                                                                                                                                            
00018520636470001P16759067590000001427480010280000001010000000000000000                             2000000000000000000000000              000000000000                    0000000000000000000000000                    000000000000                                                                                                                                                                                                                                                                                                                                                                                                                                                                                        
00018530636470002G2675906759000000142748001028000000101866-6317293              GA           9 C                00                                      NNNN   Y                      000000000000                                                                   77145232                                                                                                                                                                                                                                                                                                                                                                                                                                               
00018540636470044DT67590675900000014274800102800000010180010224001193145900019923407052420230000000700414523000000000443761483316XXXXXX7439               2111111   NYV4 A7W583141462053194N8400000000070043HWM00    01DNCBD8666317293            055008    VD84000000007004 NDR549977145232   1C5AD5F217T673BDB348596  000000000+                F DF 10420                     000000000  Y000000000 338   0000000000000.00 0000000.00   0000000.00                             000000000000000                                                                                                                                                     01424 G000000007004 0000000000000.26     00050 02200                  
00018550636470044DR6759067590000001427480010280000001011C5AD5F217T673BDB348596  Y000000007004                 P1                                                                                                                                                                                                                                                                                                                                                                                                                                                                                                                                                                                                            
00018560636470001P16759067590000001427480010280000001010000000000000000                             2000000000000000000000000              000000000000                    0000000000000000000000000                    000000000000                                                                                                                                                                                                                                                                                                                                                                                                                                                                                        
00018570636470002G2675906759000000142748001028000000101866-6317293              GA           9 D                00                                      NNNN   N                      000000000000                                                                   77145232                                                                                                                                                                                                                                                                                                                                                                                                                                               
00018580636470045DT67590675900000014274800102800000010180010224001193145900019923704052420230000002126114523000000000443761413037XXXXXX2895               2111111   NYV4 A7W583141621069202N840000000021261LTT800    01DNCBD8666317293            010730    VD84000000021261 NDR549977145232   2F83E2D60BT2BAEB99628F5  000000000+                F DF 10420                     000000000  Y000000000 338   0000000000000.00 0000000.00   0000000.00                             000000000000000                                                                                                                                                     01424 G000000021261 0000000000000.33     00050 02200                  
00018590636470045DR6759067590000001427480010280000001012F83E2D60BT2BAEB99628F5  Z000000021261                 P1                                                                                                                                                                                                                                                                                                                                                                                                                                                                                                                                                                                                            
00018600636470001P16759067590000001427480010280000001010000000000000000                             2000000000000000000000000              000000000000                    0000000000000000000000000                    000000000000                                                                                                                                                                                                                                                                                                                                                                                                                                                                                        
00018610636470002G2675906759000000142748001028000000101866-6317293              GA           9 D                00                                      NNNN   N                      000000000000                                                                   77145232                                                                                                                                                                                                                                                                                                                                                                                                                                               
00018620636470046DT67590675900000014274800102800000010180010224001193145900019923829052420230000002106214523000000000443761403784XXXXXX1422               2111111   NYV4 A7W303141660206768N840000000021062PGCV00    01DNCBD8666317293            311202    VS84000000021062 NDR549977145232   83C9DAC3F1T44E1E28E2D72  000000000+                D CD 12109                     000000000  N000000000 498   0000000000000.00 0000000.00   0000000.00                             000000000000000                                                                                                                                                     01424 G000000021062 0000000000005.37     02500 01000                  
00018630636470046DR67590675900000014274800102800000010183C9DAC3F1T44E1E28E2D72  Y000000021062                 P1                                                                                                                                                                                                                                                                                                                                                                                                                                                                                                                                                                                                            
00018640636470001P16759067590000001427480010280000001010000000000000000                             2000000000000000000000000              000000000000                    0000000000000000000000000                    000000000000                                                                                                                                                                                                                                                                                                                                                                                                                                                                                        
