00017010638230002BH6759067590000004814080016280000090170727202320823000000000051000    0000090001010001Y8001626759C07282023001                                                                                                                                                                                                                                                                                                                                                                                                                                                                                                                                                                                              
00017020638230003DT67590675900000048140800162800000010180016224001193208900010100017072720230000005100020823000000000051000414720XXXXXX3597               2111111   NYV4 A7W383208810403406N8400000000510007KR800    01DNM.E.J DISTRIBUTIONS LLC  01218D    VS84000000051000 NDR599978780022   2582                     000000000+                D CD 12109                     000000000  N000000000 498   0000000000000.00 0000000.00   0000000.00                             000000000000000                                                                                                                                                     01424 G000000051000 0000000000012.85     02500 01000                  
00017030638230003DR6759067590000004814080016280000001012582                     Z000000051000                 P1                                                                                                                                                                                                                                                                                                                                                                                                                                                                                                                                                                                                            
00017040638230001P16759067590000004814080016280000001010000000000000000                             2000000000000000000000000              000000000000                    0000000000000000000000000                    000000000000                                                                                                                                                                                                                                                                                                                                                                                                                                                                                        
00017050638230002G2675906759000000481408001628000000101631-4284633              NY           9 C                00                                      NNNN   Y                      000000000000                                                                   78780022                                                                                                                                                                                                                                                                                                                                                                                                                                               
00017060638230004BH6759067590000004749880016180000090170727202320823000000000007785    0000090001030007Y8001616759C07282023003                                                                                                                                                                                                                                                                                                                                                                                                                                                                                                                                                                                              
00017070638230005DT67590675900000047498800161800000010180016124001193208900010300070072720230000000778520823000000000007785474472XXXXXX0839               2111111   NYV4 A7W383208731117025N8400000000077854LP500    01DNKUSHIEBITES8773144242    131687    VD84000000007785 NDR599978777627   10243                    000000000+                F DF 10420                     000000000  Y000000000 338   0000000000000.00 0000000.00   0000000.00                             000000000000000                                                                                                                                                     01424 G000000007785 0000000000000.26     00050 02200                  
00017080638230005DR67590675900000047498800161800000010110243                    Y000000007785                 P1                                                                                                                                                                                                                                                                                                                                                                                                                                                                                                                                                                                                            
00017090638230001P16759067590000004749880016180000001010000000000000000                             2000000000000000000000000              000000000000                    0000000000000000000000000                    000000000000                                                                                                                                                                                                                                                                                                                                                                                                                                                                                        
00017100638230002G2675906759000000474988001618000000101877-3144242              FL           9 D                00                                      NNNN   N                      000000000000                                                                   78777627                                                                                                                                                                                                                                                                                                                                                                                                                                               
00017110638230006BH6759067590000002092580011280000090170727202320823000000000612750    0000090001610134Y8001126759C07282023061                                                                                                                                                                                                                                                                                                                                                                                                                                                                                                                                                                                              
00017120638230007DT67590675900000020925800112800000010180011224001193208900016101332072620230000058875020823000000000612750499998XXXXXX7655               2111111   NYV4 A7W463208049432652N8400000005887509KHQ00    01DNJ K DISTRIBUTION INC     366931    VD84000000588750 NDR549977712156   8567413680               000000000+                G DG 08705                     000000000  N000000000       0000000000000.00 0000000.00   0000000.00                             000000000000000                                                                                                                                                     01424 G000000588750 0000000000144.34     02450 01000                  
00017130638230007DR6759067590000002092580011280000001018567413680               U000000588750                 P1                                                                                                                                                                                                                                                                                                                                                                                                                                                                                                                                                                                                            
00017140638230001P16759067590000002092580011280000001010000000000000000                             2000000000000000000000000              000000000000                    0000000000000000000000000                    000000000000                                                                                                                                                                                                                                                                                                                                                                                                                                                                                        
00017150638230002G2675906759000000209258001128000000101203-8159817              CT           9 D                00                                      NNNN   N                      000000000000                                                                   77712156                                                                                                                                                                                                                                                                                                                                                                                                                                               
00017160638230008DT67590675900000020925800112800000010180011273011003208900016101346072720230000002400020823000000000612750377987XXXXX1001                          NY 4 07N007853645984076N840000000024000          01DNJ K DISTRIBUTION INC     284133    AM84000000024000 Y  549977712156                            000000000+6004S0S00130 258     11262                     000000000                   0000000000000.00 0000000.00   0000000.00                             000000000000000 61248972086759675900000020925 J K DISTRIBUTION INC     391 MAIN ST              8608957639      06492     ADMIN@GOODDISTRO.COM                      01324  000000000000 0000000000004.78     01950 00000                  
00017170638230001G2675906759000000209258001128000000101WALLINGFORD              CT           9                  00                                      NNNN                          000000000000                                                                   77712156                                                                                                                                                                                                                                                                                                                                                                                                                                               
00017180638230009BH6759067590000003433080014180000090170727202320823000000000161179    0000090001250051Y8001416759C07282023025                                                                                                                                                                                                                                                                                                                                                                                                                                                                                                                                                                                              
00017190638230010DT67590675900000034330800141800000010180014124001193208900012500016072720230000000203220823000000000161179421783XXXXXX6160       VS11    0001111   NYV1 A E583208541308408N840000000002032LZX500    07DNJBLISS LLC               068505    VS84000000002032 N  599978503056                            000000000+                A CA 12110                     000000000  N000000000 493   0000000000000.00 0000000.00   0000000.00                             000000000000000                                                                                                                                                     01424 A000000000000 0000000000000.41     01510 01000                  
00017200638230001E167590675900000034330800141800000010100E068C80007 00000000000.004040404040404040404040404040404040404040404040404006011203A00000000000000000000000404040404040404040404040404040  0000084020000000000000230727F178F472543E9E59558ED989404040400840A0000000031010000000000000000000B26F898F0080000000000000000000004040404040404040 000000020.32 000000000.004040400000000000000000    80                                                                                                                                                                                                                                                                                                                  
00017210638230002G2675906759000000343308001418000000101GREENWOOD                SC           5 C                00                                      NNNN00 N 00                   000000000000                                                                   78503056                                                                                                                                                                                                                                                                                                                                                                                                                                               
00017220638230011DT67590675900000034330800141800000010180014124001193208900012500024072720230000000032020823000000000161179408138XXXXXX6518       VK04VS111111111   NYV1 A E303208544686663N840000000000320H4V600    07DNJBLISS LLC               825993    VD84000000000320 N  599978503056                            000000000+                F PF 08165                     000000000  N000000000       0000000000000.00 0000000.00   0000000.00                             000000000000000                                                                                                                                                     01424 F000000000000 0000000000000.10     01600 00500                  
00017230638230001E167590675900000034330800141800000010100E068C80123 00000000000.00404040404040404040404040404040404040404040404040401F42FF32A00000000010030273000000004000000000000000000000000000  0000084000400000000000230727B3749CAEAB0D53A5953978FE404040400840A00000000310100000000000000000009945B5A60086000000000000000000004040404040404040 000000003.20 000000000.004040400000000000000000    80                                                                                                                                                                                                                                                                                                                  
00017240638230002G2675906759000000343308001418000000101GREENWOOD                SC           5 P                00                                      NNNN00 N 00                   000000000000                                                                   78503056                                                                                                                                                                                                                                                                                                                                                                                                                                               
00017250638230012DT67590675900000034330800141800000010180014124001193208900012500032072720230000000331520823000000000161179486533XXXXXX9601       VS11    0001111   NYV1 A E463208553641093N8400000000033159WQV00    07DNJBLISS LLC               420384    VB84000000003315 N  599978503056                            000000000+                S CS 00695                     000000000  N000000000 238   0000000000000.00 0000000.00   0000000.00                             000000000000000                                                                                                                                                     01424 A000000000000 0000000000000.93     02500 01000                  
00017260638230001E167590675900000034330800141800000010100E068C8000E 00000000000.00404040404040404040404040404040404040404040404040401F42FF31A00000000010030273000000004000000000000000000000000000  000008400060000000000023072767E978EF464A2A25BAEE144A404040400840A0000000031010000000000000000000EA59A5D90086000000000000000000004040404040404040 000000033.15 000000000.004040400000000000000000    80                                                                                                                                                                                                                                                                                                                  
00017270638230002G2675906759000000343308001418000000101GREENWOOD                SC           5 C                00                                      NNNN00 N 00                   000000000000                                                                   78503056                                                                                                                                                                                                                                                                                                                                                                                                                                               
00017280638230013DT67590675900000034330800141800000010180014124001193208900012500040072720230000000203220823000000000161179425254XXXXXX6974       VS11    0001111   NYV1 A E303208554003141N840000000002032R2LB00    07DNJBLISS LLC               025140    VD84000000002032 N  599978503056                            000000000+                F DF 10433                     000000000  Y000000000 338   0000000000000.00 0000000.00   0000000.00                             000000000000000                                                                                                                                                     01424 A000000000000 0000000000000.23     00050 02200                  
00017290638230001E167590675900000034330800141800000010100E068C80011 00000000000.00404040404040404040404040404040404040404040404040401F420432A00000000010030273000000004000000000000000000000000000  000008400060000000000023072795749EA6ED0F3552C7B1DA76404040400840A0000000031010000000000000000000CE5E8ED10086000000000000000000004040404040404040 000000020.32 000000000.004040400000000000000000    80                                                                                                                                                                                                                                                                                                                  
00017300638230002G2675906759000000343308001418000000101GREENWOOD                SC           5 D                00                                      NNNN00 N 00                   000000000000                                                                   78503056                                                                                                                                                                                                                                                                                                                                                                                                                                               
00017310638230014DT67590675900000034330800141800000010180014124001193208900012500057072720230000000182920823000000000161179411238XXXXXX5111       VS11    0001111   NYV1 A E583208563008170N840000000001829BRF200    90DNJBLISS LLC               764936    VD84000000001829 N  599978503056                            000000000+                F PF 08170                     000000000  N000000000       0000000000000.00 0000000.00   0000000.00                             000000000000000                                                                                                                                                     01424 A000000000000 0000000000000.36     01150 01500                  
00017320638230001G2675906759000000343308001418000000101GREENWOOD                SC           5 P                00                                      NNNN00 N 00                   000000000000                                                                   78503056                                                                                                                                                                                                                                                                                                                                                                                                                                               
00017330638230015DT67590675900000034330800141800000010180014124001193208900012500065072720230000000247420823000000000161179408138XXXXXX1432       VS11    0001111   NYV1 A E463208569393543N8400000000024745J9B00    07DNJBLISS LLC               777546    VD84000000002474 N  599978503056                            000000000+                F PF 08170                     000000000  N000000000       0000000000000.00 0000000.00   0000000.00                             000000000000000                                                                                                                                                     01424 A000000000000 0000000000000.43     01150 01500                  
00017340638230001E167590675900000034330800141800000010100E068C80018 00000000000.00404040404040404040404040404040404040404040404040401F42FF32A00000000010030273000000004000000000000000000000000000  000008400040000000000023072715703962743B379CDAA88899404040400840A000000003101000000000000000000077E99CAD0086000000000000000000004040404040404040 000000024.74 000000000.004040400000000000000000    80                                                                                                                                                                                                                                                                                                                  
00017350638230002G2675906759000000343308001418000000101GREENWOOD                SC           5 P                00                                      NNNN00 N 00                   000000000000                                                                   78503056                                                                                                                                                                                                                                                                                                                                                                                                                                               
00017360638230016DT67590675900000034330800141800000010180014124001193208900012500073072720230000000203220823000000000161179449594XXXXXX2289       VS11    0001111   NYV1 A E303208580319032N840000000002032N8QH00    07DNJBLISS LLC               502358    VD84000000002032 N  599978503056                            000000000+                F DF 00381                     000000000  N000000000       0000000000000.00 0000000.00   0000000.00                             000000000000000                                                                                                                                                     01424 A000000000000 0000000000000.31     00800 01500                  
00017370638230001E167590675900000034330800141800000010100E068C80057 00000000000.004040404040404040404040404040404040404040404040404006011203A00000000000000000000000404040404040404040404040404040  00000840200000000000002307271BC2EF4E1F7B8FA5367A005A404040400840A0000000031010000000000000000000B993BA930382000000000000000000004040404040404040 000000020.32 000000000.004040400000000000000000    80                                                                                                                                                                                                                                                                                                                  
00017380638230002G2675906759000000343308001418000000101GREENWOOD                SC           5 D                00                                      NNNN00 N 00                   000000000000                                                                   78503056                                                                                                                                                                                                                                                                                                                                                                                                                                               
00017390638230017DT67590675900000034330800141800000010180014124001193208900012500081072720230000000320920823000000000161179423223XXXXXX9192       VS11    0001111   NYV1 A E303208586108239N840000000003209FS5P00    05DNJBLISS LLC               013292    VD84000000003209 N  599978503056                            000000000+                F DF 00381                     000000000  N000000000       0000000000000.00 0000000.00   0000000.00                             000000000000000                                                                                                                                                     01424 A000000000000 0000000000000.41     00800 01500                  
00017400638230001E167590675900000034330800141800000010100E0F8C800C1 00000000000.004040404040404040404040404040404040404040404040404006011203A08000000000000000000000404040404040404040404040404040  0000084018008080008000230727EA19945632F863423BD2299E404040400840A000000003101000000000000000000034A005030080000000000000000000004040401E40404040 000000032.09 000000000.001E00000000000000000000    80                                                                                                                                                                                                                                                                                                                  
00017410638230002G2675906759000000343308001418000000101GREENWOOD                SC           5 D                00                                      NNNN00 N 00                   000000000000                                                                   78503056                                                                                                                                                                                                                                                                                                                                                                                                                                               
00017420638230018DT67590675900000034330800141800000010180014124001193208900012500099072720230000000203220823000000000161179440393XXXXXX7016       VS11    0001111   NYV1 A E303208588574265N840000000002032ZB9Q00    07DNJBLISS LLC               051754    VD84000000002032 N  599978503056                            000000000+                F PF 08170                     000000000  N000000000       0000000000000.00 0000000.00   0000000.00                             000000000000000                                                                                                                                                     01424 A000000000000 0000000000000.38     01150 01500                  
00017430638230001E167590675900000034330800141800000010100E068C80052 00000000000.004040404040404040404040404040404040404040404040404006011203A00000000000000000000000404040404040404040404040404040  0000084020000000000000230727C6A052B51A690377601076B8404040400840A00000000310100000000000000000002DB3CBD7217496D030300000000000004040404040404040 000000020.32 000000000.004040400000000000000000    80                                                                                                                                                                                                                                                                                                                  
00017440638230002G2675906759000000343308001418000000101GREENWOOD                SC           5 P                00                                      NNNN00 N 00                   000000000000                                                                   78503056                                                                                                                                                                                                                                                                                                                                                                                                                                               
00017450638230019DT67590675900000034330800141800000010180014177287283208900012500109072720230000000529520823000000000161179559427XXXXXX3535       MS02WI09          NY 1 0 AMDJR4MVJH0727  N840000000005295          07DNJBLISS LLC               480575    MD84000000005295 N  599978503056                            000000000+M10101M5434C    MDJ  10815                     000000000  1                0000000000000.00 0000000.00   0000000.00                             000000000000000                                                                                                                                                   B101424  000000000000 0000000000000.25     00050 02200                  
00017460638230001E1675906759000000343308001418000000101000060C801E1 00000000000.00404040404040404040404040404040404040404040404040400110A04001220000000000000000000000FF00000000000000000000000000  000008401980000000800123072780E23303B9A5A5CF369A1141404040400840A0000000041010000000000000000000404040404040404040404040404040404040401E40404040 000000052.95 000000000.001E03000000000000000000    80                                                                                                                                                                                                                                                                                                                  
00017470638230002G2675906759000000343308001418000000101GREENWOOD                SC           5 J                                                        NNNN              000000000000000000000000       03               7                                          78503056                                                                                                                                                                                                                                                                                                                                                                                                                                               
00017480638230020DT67590675900000034330800141800000010180014124001193208900012500115072720230000000203220823000000000161179449594XXXXXX2513       VS11    0001111   NYV1 A E463208600387134N840000000002032T7SF00    07DNJBLISS LLC               001354    VD84000000002032 N  599978503056                            000000000+                F DF 00381                     000000000  N000000000       0000000000000.00 0000000.00   0000000.00                             000000000000000                                                                                                                                                     01424 A000000000000 0000000000000.31     00800 01500                  
00017490638230001E167590675900000034330800141800000010100E068C80189 00000000000.004040404040404040404040404040404040404040404040404006011203A00000000000000000000000404040404040404040404040404040  000008402000000000000023072735CBF68493CBCDFE38F9301C404040400840A00000000310100000000000000000001ACEB5A20382000000000000000000004040404040404040 000000020.32 000000000.004040400000000000000000    80                                                                                                                                                                                                                                                                                                                  
00017500638230002G2675906759000000343308001418000000101GREENWOOD                SC           5 D                00                                      NNNN00 N 00                   000000000000                                                                   78503056                                                                                                                                                                                                                                                                                                                                                                                                                                               
00017510638230021DT67590675900000034330800141800000010180014124001193208900012500123072720230000000267420823000000000161179484608XXXXXX2322       VS11    0001111   NYV1 A E383208612905561N840000000002674RB9N00    05DNJBLISS LLC               905561    VD84000000002674 N  599978503056                            000000000+                F DF 00381                     000000000  N000000000       0000000000000.00 0000000.00   0000000.00                             000000000000000                                                                                                                                                     01424 A000000000000 0000000000000.36     00800 01500                  
00017520638230001E167590675900000034330800141800000010100E0F8C80003 00000000000.004040404040404040404040404040404040404040404040404006011203A02000000000000000000000404040404040404040404040404040  00000840180080800080002307278A8B2250DDADC8265EDDA963404040400840A0000000031010000000000000000000C9E69BF40382000000000000000000004040401E40404040 000000026.74 000000000.001E00000000000000000000    80                                                                                                                                                                                                                                                                                                                  
00017530638230002G2675906759000000343308001418000000101GREENWOOD                SC           5 D                00                                      NNNN00 N 00                   000000000000                                                                   78503056                                                                                                                                                                                                                                                                                                                                                                                                                                               
00017540638230022DT67590675900000034330800141800000010180014124001193208900012500131072720230000000588320823000000000161179408138XXXXXX2210       VS11    0001111   NYV1 A E383208627666272N840000000005883F6QR00    07DNJBLISS LLC               523516    VD84000000005883 N  599978503056                            000000000+                F PF 08170                     000000000  N000000000       0000000000000.00 0000000.00   0000000.00                             000000000000000                                                                                                                                                     01424 A000000000000 0000000000000.83     01150 01500                  
00017550638230001E167590675900000034330800141800000010100E068C80076 00000000000.00404040404040404040404040404040404040404040404040401F42FF32A00000000010030273000000004000000000000000000000000000  00000840004000000000002307275E626F7E13888FE429D33E6C404040400840A0000000031010000000000000000000524AF0290086000000000000000000004040404040404040 000000058.83 000000000.004040400000000000000000    80                                                                                                                                                                                                                                                                                                                  
00017560638230002G2675906759000000343308001418000000101GREENWOOD                SC           5 P                00                                      NNNN00 N 00                   000000000000                                                                   78503056                                                                                                                                                                                                                                                                                                                                                                                                                                               
00017570638230023DT67590675900000034330800141800000010180014124001193208900012500149072720230000000748520823000000000161179440393XXXXXX4311       VS11    0001111   NYV1 A E303208628881007N840000000007485BJQ200    07DNJBLISS LLC               906031    VD84000000007485 N  599978503056                            000000000+                F PF 08170                     000000000  N000000000       0000000000000.00 0000000.00   0000000.00                             000000000000000                                                                                                                                                     01424 A000000000000 0000000000001.01     01150 01500                  
00017580638230001E167590675900000034330800141800000010100E068C80183 00000000000.004040404040404040404040404040404040404040404040404006011203A00000000000000000000000404040404040404040404040404040  00000840200000000000002307275ECA458D010C5ED2056A631E404040400840A000000003101000000000000000000081384CAC806FB37030300000000000004040404040404040 000000074.85 000000000.004040400000000000000000    80                                                                                                                                                                                                                                                                                                                  
00017590638230002G2675906759000000343308001418000000101GREENWOOD                SC           5 P                00                                      NNNN00 N 00                   000000000000                                                                   78503056                                                                                                                                                                                                                                                                                                                                                                                                                                               
00017600638230024DT67590675900000034330800141800000010180014124001193208900012500156072720230000000427920823000000000161179408138XXXXXX1734       VS11    0001111   NYV1 A E303208634669194N840000000004279JL6H00    07DNJBLISS LLC               108339    VD84000000004279 N  599978503056                            000000000+                F PF 08170                     000000000  N000000000       0000000000000.00 0000000.00   0000000.00                             000000000000000                                                                                                                                                     01424 A000000000000 0000000000000.64     01150 01500                  
00017610638230001E167590675900000034330800141800000010100E068C801CB 00000000000.00404040404040404040404040404040404040404040404040401F42FF32A00000000010030273000000004000000000000000000000000000  0000084000400000000000230727D50E9F117902B20F3DAF32DE404040400840A000000003101000000000000000000037B1632E0086000000000000000000004040404040404040 000000042.79 000000000.004040400000000000000000    80                                                                                                                                                                                                                                                                                                                  
00017620638230002G2675906759000000343308001418000000101GREENWOOD                SC           5 P                00                                      NNNN00 N 00                   000000000000                                                                   78503056                                                                                                                                                                                                                                                                                                                                                                                                                                               
00017630638230025DT67590675900000034330800141800000010180014124001193208900012500164072720230000000320820823000000000161179409504XXXXXX8072       VS11    0001111   NYV1 A E383208635111334N840000000003208WRFW00    07DNJBLISS LLC               013813    VD84000000003208 N  599978503056                            000000000+                F DF 10433                     000000000  Y000000000 338   0000000000000.00 0000000.00   0000000.00                             000000000000000                                                                                                                                                     01424 A000000000000 0000000000000.24     00050 02200                  
00017640638230001E167590675900000034330800141800000010100E068C801C0 00000000000.00404040404040404040404040404040404040404040404040401F4A0132A00000000010030273000000004000000000000000000000000000  00000840004000000000002307272B76D9B76553CDC565E7804D404040400840A00000000310100000000000000000006B1DB5C6BAB108DC30300000000000004040404040404040 000000032.08 000000000.004040400000000000000000    80                                                                                                                                                                                                                                                                                                                  
00017650638230002G2675906759000000343308001418000000101GREENWOOD                SC           5 D                00                                      NNNN00 N 00                   000000000000                                                                   78503056                                                                                                                                                                                                                                                                                                                                                                                                                                               
00017660638230026DT67590675900000034330800141800000010180014124001193208900012500172072720230000000074720823000000000161179408138XXXXXX1734       VK04VS111111111   NYV1 A E583208640676018N840000000000747VX5Z00    07DNJBLISS LLC               221879    VD84000000000747 N  599978503056                            000000000+                F PF 08165                     000000000  N000000000       0000000000000.00 0000000.00   0000000.00                             000000000000000                                                                                                                                                     01424 F000000000000 0000000000000.17     01600 00500                  
00017670638230001E167590675900000034330800141800000010100E068C801CC 00000000000.00404040404040404040404040404040404040404040404040401F42FF32A00000000010030273000000004000000000000000000000000000  0000084000400000000000230727D66E1C60E3CD9BF79A57DD2A404040400840A0000000031010000000000000000000F8FBE5600086000000000000000000004040404040404040 000000007.47 000000000.004040400000000000000000    80                                                                                                                                                                                                                                                                                                                  
00017680638230002G2675906759000000343308001418000000101GREENWOOD                SC           5 P                00                                      NNNN00 N 00                   000000000000                                                                   78503056                                                                                                                                                                                                                                                                                                                                                                                                                                               
00017690638230027DT67590675900000034330800141800000010180014124001193208900012500180072720230000000128320823000000000161179409504XXXXXX8072       VK04VS111111111   NYV1 A E463208641310757N84000000000128368B300    07DNJBLISS LLC               014813    VD84000000001283 N  599978503056                            000000000+                F DF 10439                     000000000  Y000000000 331   0000000000000.00 0000000.00   0000000.00                             000000000000000                                                                                                                                                     01424 F000000000000 0000000000000.23     00050 02200                  
00017700638230001E167590675900000034330800141800000010100E068C801C1 00000000000.00404040404040404040404040404040404040404040404040401F4A0132A00000000010030273000000004000000000000000000000000000  000008400040000000000023072792CC9A60CC0F4F20F884B920404040400840A00000000310100000000000000000009D0625FDF776FB7230300000000000004040404040404040 000000012.83 000000000.004040400000000000000000    80                                                                                                                                                                                                                                                                                                                  
00017710638230002G2675906759000000343308001418000000101GREENWOOD                SC           5 D                00                                      NNNN00 N 00                   000000000000                                                                   78503056                                                                                                                                                                                                                                                                                                                                                                                                                                               
00017720638230028DT67590675900000034330800141800000010180014124001193208900012500198072720230000000203220823000000000161179447734XXXXXX5577       VS11    0001111   NYV1 A E303208644799540N840000000002032P6MV00    05DNJBLISS LLC               132715    VD84000000002032 N  599978503056                            000000000+                F DF 00381                     000000000  N000000000       0000000000000.00 0000000.00   0000000.00                             000000000000000                                                                                                                                                     01424 A000000000000 0000000000000.31     00800 01500                  
00017730638230001E167590675900000034330800141800000010100E0F8C80015 00000000000.004040404040404040404040404040404040404040404040404006011203A00000000000000000000000404040404040404040404040404040  0001084018008080008000230727DF3CA68818DA252925FCEC4C404040400840A0000000031010000000000000000000FA3F0B030382000000000000000000004040401E40404040 000000020.32 000000000.001E00000000000000000000    80                                                                                                                                                                                                                                                                                                                  
00017740638230002G2675906759000000343308001418000000101GREENWOOD                SC           5 D                00                                      NNNN00 N 00                   000000000000                                                                   78503056                                                                                                                                                                                                                                                                                                                                                                                                                                               
00017750638230029DT67590675900000034330800141800000010180014124001193208900012500206072720230000000213820823000000000161179473703XXXXXX1920       VS11    0001111   NYV1 A E303208674181486N840000000002138XT5B00    05DNJBLISS LLC               031469    VD84000000002138 N  599978503056                            000000000+                F DF 10433                     000000000  Y000000000 338   0000000000000.00 0000000.00   0000000.00                             000000000000000                                                                                                                                                     01424 A000000000000 0000000000000.23     00050 02200                  
00017760638230001E167590675900000034330800141800000010100E0F8C80079 00000000000.004040404040404040404040404040404040404040404040404006061203A0A000000000000000000000404040404040404040404040404040  0000084018008080008000230727CDADCCB9C578948DDB3E358B404040400840A000000003101000000000000000000080104020209020E020200000000000004040401E40404040 000000021.38 000000000.001E00000000000000000000    80                                                                                                                                                                                                                                                                                                                  
00017770638230002G2675906759000000343308001418000000101GREENWOOD                SC           5 D                00                                      NNNN00 N 00                   000000000000                                                                   78503056                                                                                                                                                                                                                                                                                                                                                                                                                                               
00017780638230030DT67590675900000034330800141800000010180014177287283208900012500216072720230000000128320823000000000161179515327XXXXXX6967       MS02WI09          NY 1 0 AMDJO1QZN10727  N840000000001283          05DNJBLISS LLC               798732    MD84000000001283 N  599978503056                            000000000+M10101C5434C    MDJ  00402                     000000000  N                0000000000000.00 0000000.00   0000000.00                             000000000000000                                                                                                                                                   B101424  000000000000 0000000000000.28     01050 01500                  
00017790638230001E167590675900000034330800141800000010100E0F8C80399 00000000000.00404040404040404040404040404040404040404040404040400114A00001220000000000000000000000FF00000000000000000000000000  00000840180080000880002307271FA0D40D00B89DF8DEBF01BF404040400840A0000000041010000000000000000000A2D253B5E7AE1C54031A0000000000004040401E40404040 000000012.83 000000000.001E03000000000000000000    80                                                                                                                                                                                                                                                                                                                  
00017800638230002G2675906759000000343308001418000000101GREENWOOD                SC           5 J                                                        NNNN              000000000000000000000000                                                                   78503056                                                                                                                                                                                                                                                                                                                                                                                                                                               
00017810638230031DT67590675900000034330800141800000010180014124001193208900012500222072720230000000427820823000000000161179484608XXXXXX9272       VS11    0001111   NYV1 A E583208690870931N840000000004278DSSM00    05DNJBLISS LLC               870931    VD84000000004278 N  599978503056                            000000000+                F DF 00381                     000000000  N000000000       0000000000000.00 0000000.00   0000000.00                             000000000000000                                                                                                                                                     01424 A000000000000 0000000000000.49     00800 01500                  
00017820638230001E167590675900000034330800141800000010100E0F8C8001A 00000000000.004040404040404040404040404040404040404040404040404006011203A02000000000000000000000404040404040404040404040404040  000008401800808000800023072730FCD1A1B6F05F03D7D3A3BF404040400840A00000000310100000000000000000001259CA430382000000000000000000004040401E40404040 000000042.78 000000000.001E00000000000000000000    80                                                                                                                                                                                                                                                                                                                  
00017830638230002G2675906759000000343308001418000000101GREENWOOD                SC           5 D                00                                      NNNN00 N 00                   000000000000                                                                   78503056                                                                                                                                                                                                                                                                                                                                                                                                                                               
00017840638230032DT67590675900000034330800141800000010180014124001193208900012500230072720230000000021220823000000000161179448261XXXXXX6968       VK04VS111111111   NYV1 A E583208722915382N8400000000002126TMJ00    07DNJBLISS LLC               499420    VD84000000000212 N  599978503056                            000000000+                F DF 10439                     000000000  Y000000000 331   0000000000000.00 0000000.00   0000000.00                             000000000000000                                                                                                                                                     01424 F000000000000 0000000000000.22     00050 02200                  
00017850638230001E167590675900000034330800141800000010100E068C80286 00000000000.004040404040404040404040404040404040404040404040404006011203A00000000000000000000000404040404040404040404040404040  00010840000000000000002307274A8C24F4442BEEB50F11169E404040400840A0000000031010000000000000000000735EED190382000000000000000000004040404040404040 000000002.12 000000000.004040400000000000000000    80                                                                                                                                                                                                                                                                                                                  
00017860638230002G2675906759000000343308001418000000101GREENWOOD                SC           5 D                00                                      NNNN00 N 00                   000000000000                                                                   78503056                                                                                                                                                                                                                                                                                                                                                                                                                                               
00017870638230033DT67590675900000034330800141800000010180014124001193208900012500248072720230000000738120823000000000161179473703XXXXXX1906       VS11    0001111   NYV1 A E303208731682031N840000000007381JPQJ00    05DNJBLISS LLC               064664    VD84000000007381 N  599978503056                            000000000+                F DF 10433                     000000000  Y000000000 338   0000000000000.00 0000000.00   0000000.00                             000000000000000                                                                                                                                                     01424 A000000000000 0000000000000.26     00050 02200                  
00017880638230001E167590675900000034330800141800000010100E0F8C80007 00000000000.004040404040404040404040404040404040404040404040404006061203A0B000000000000000000000404040404040404040404040404040  000008401800808000800023072774E25C78D73D365C51A5BEDE404040400840A0000000031010000000000000000000108080C0F050F09020200000000000004040401E40404040 000000073.81 000000000.001E00000000000000000000    80                                                                                                                                                                                                                                                                                                                  
00017890638230002G2675906759000000343308001418000000101GREENWOOD                SC           5 D                00                                      NNNN00 N 00                   000000000000                                                                   78503056                                                                                                                                                                                                                                                                                                                                                                                                                                               
00017900638230034DT67590675900000034330800141800000010180014124001193208900012500255072720230000000267120823000000000161179473703XXXXXX3663       VS11    0001111   NYV1 A E463208734982599N840000000002671DVNX00    05DNJBLISS LLC               087392    VD84000000002671 N  599978503056                            000000000+                F DF 10433                     000000000  Y000000000 338   0000000000000.00 0000000.00   0000000.00                             000000000000000                                                                                                                                                     01424 A000000000000 0000000000000.23     00050 02200                  
00017910638230001E167590675900000034330800141800000010100E0F8C8002E 00000000000.004040404040404040404040404040404040404040404040404006061203A0A000000000000000000000404040404040404040404040404040  00000840180080800080002307274C2F8CCAED8DCFCA4E7D11E8404040400840A00000000310100000000000000000006090908090F0C02020200000000000004040401E40404040 000000026.71 000000000.001E00000000000000000000    80                                                                                                                                                                                                                                                                                                                  
00017920638230002G2675906759000000343308001418000000101GREENWOOD                SC           5 D                00                                      NNNN00 N 00                   000000000000                                                                   78503056                                                                                                                                                                                                                                                                                                                                                                                                                                               
00017930638230035DT67590675900000034330800141800000010180014124001193208900012500263072720230000000144320823000000000161179447734XXXXXX8710       VK04VS111111111   NYV1 A E303208750891196N840000000001443V98W00    05DNJBLISS LLC               158908    VD84000000001443 N  599978503056                            000000000+                F DF 00451                     000000000  N000000000 214   0000000000000.00 0000000.00   0000000.00                             000000000000000                                                                                                                                                     01424 F000000000000 0000000000000.26     01550 00400                  
00017940638230001E167590675900000034330800141800000010100E0F8C80025 00000000000.004040404040404040404040404040404040404040404040404006011203A0A000000000000000000000404040404040404040404040404040  00010840180080800080002307275BC35ABCA84B46DE22570CD4404040400840A00000000310100000000000000000006DCECBBA0382000000000000000000004040401E40404040 000000014.43 000000000.001E00000000000000000000    80                                                                                                                                                                                                                                                                                                                  
00017950638230002G2675906759000000343308001418000000101GREENWOOD                SC           5 D                00                                      NNNN00 N 00                   000000000000                                                                   78503056                                                                                                                                                                                                                                                                                                                                                                                                                                               
00017960638230036DT67590675900000034330800141800000010180014124001193208900012500271072720230000000182920823000000000161179449594XXXXXX3246       VS11    0001111   NYV1 A E583208751409517N840000000001829DVP700    05DNJBLISS LLC               833456    VD84000000001829 N  599978503056                            000000000+                F DF 00381                     000000000  N000000000       0000000000000.00 0000000.00   0000000.00                             000000000000000                                                                                                                                                     01424 A000000000000 0000000000000.30     00800 01500                  
00017970638230001E167590675900000034330800141800000010100E0F8C800F3 00000000000.004040404040404040404040404040404040404040404040404006011203A00000000000000000000000404040404040404040404040404040  000008401800808000800023072795E777BCE5AE7975D86FEB1F404040400840A00000000310100000000000000000005FA84D550382000000000000000000004040401E40404040 000000018.29 000000000.001E00000000000000000000    80                                                                                                                                                                                                                                                                                                                  
00017980638230002G2675906759000000343308001418000000101GREENWOOD                SC           5 D                00                                      NNNN00 N 00                   000000000000                                                                   78503056                                                                                                                                                                                                                                                                                                                                                                                                                                               
00017990638230037DT67590675900000034330800141800000010180014177287283208900012500281072720230000000267420823000000000161179517805XXXXXX1845       MS02WI09          NY 1 0 AMPLF3366A0727  N840000000002674          07DNJBLISS LLC               03387B    MC84000000002674 N  599978503056                            000000000+M10101M0034C    MPL  00353                     000000000  N                0000000000000.00 0000000.00   0000000.00                             000000000000000                                                                                                                                                   B101424  000000000000 0000000000000.58     01800 01000                  
00018000638230001E1675906759000000343308001418000000101000008480015 00000000000.00404040404040404040404040404040404040404040404040400110A04001220800000000000000000000FF00000000000000000000000000  00010840198000000080012307276D15A26B018E56286F3CDD6F404040400840A0000000041010000000000000000000404040404040404040404040404040404040401F40404040 000000026.74 000000000.001F03020000000000000000    80                                                                                                                                                                                                                                                                                                                  
00018010638230002G2675906759000000343308001418000000101GREENWOOD                SC           5 L                                                        NNNN              000000000000000000000000       03               7                                          78503056                                                                                                                                                                                                                                                                                                                                                                                                                                               
00018020638230038DT67590675900000034330800141800000010180014124001193208900012500297072720230000000203220823000000000161179441707XXXXXX7080       VS11    0001111   NYV1 A E383208773003778N840000000002032X58V00    07DNJBLISS LLC               197533    VD84000000002032 N  599978503056                            000000000+                F PF 08170                     000000000  N000000000       0000000000000.00 0000000.00   0000000.00                             000000000000000                                                                                                                                                     01424 A000000000000 0000000000000.38     01150 01500                  
00018030638230001E167590675900000034330800141800000010100E068C800CA 00000000000.00404040404040404040404040404040404040404040404040401F42FF31A00000000010030273000000004000000000000000000000000000  0000084000600000000000230727577CD019D0FF3C506CDC5E48404040400840A00000000310100000000000000000000B12B96D0086000000000000000000004040404040404040 000000020.32 000000000.004040400000000000000000    80                                                                                                                                                                                                                                                                                                                  
00018040638230002G2675906759000000343308001418000000101GREENWOOD                SC           5 P                00                                      NNNN00 N 00                   000000000000                                                                   78503056                                                                                                                                                                                                                                                                                                                                                                                                                                               
00018050638230039DT67590675900000034330800141800000010180014124001193208900012500305072720230000000213920823000000000161179442755XXXXXX9839       VS11    0001111   NYV1 A E583208774201199N840000000002139MMB500    05DNJBLISS LLC               013017    VD84000000002139 N  599978503056                            000000000+                F DF 10433                     000000000  Y000000000 338   0000000000000.00 0000000.00   0000000.00                             000000000000000                                                                                                                                                     01424 A000000000000 0000000000000.23     00050 02200                  
00018060638230001E167590675900000034330800141800000010100E0F8C80106 00000000000.004040404040404040404040404040404040404040404040404006011203A08000000000000000000000404040404040404040404040404040  0000084018008080008000230727811EECC46BA3EBA140E93596404040400840A0000000031010000000000000000000700090600080000020200000000000004040401E40404040 000000021.39 000000000.001E00000000000000000000    80                                                                                                                                                                                                                                                                                                                  
00018070638230002G2675906759000000343308001418000000101GREENWOOD                SC           5 D                00                                      NNNN00 N 00                   000000000000                                                                   78503056                                                                                                                                                                                                                                                                                                                                                                                                                                               
00018080638230040DT67590675900000034330800141800000010180014124001193208900012500313072720230000000320920823000000000161179440393XXXXXX1030       VS11    0001111   NYV1 A E303208776931620N840000000003209PF9P00    07DNJBLISS LLC               059556    VD84000000003209 N  599978503056                            000000000+                F PF 08170                     000000000  N000000000       0000000000000.00 0000000.00   0000000.00                             000000000000000                                                                                                                                                     01424 A000000000000 0000000000000.52     01150 01500                  
00018090638230001E167590675900000034330800141800000010100E068C80019 00000000000.004040404040404040404040404040404040404040404040404006011203A00000000000000000000000404040404040404040404040404040  00000840200000000000002307272F74CFA1F5B3679CB3C86DC8404040400840A0000000031010000000000000000000DBB7E8119D8E6C4430300000000000004040404040404040 000000032.09 000000000.004040400000000000000000    80                                                                                                                                                                                                                                                                                                                  
00018100638230002G2675906759000000343308001418000000101GREENWOOD                SC           5 P                00                                      NNNN00 N 00                   000000000000                                                                   78503056                                                                                                                                                                                                                                                                                                                                                                                                                                               
00018110638230041DT67590675900000034330800141800000010180014124001193208900012500321072720230000000128320823000000000161179433477XXXXXX6007       VK04VS111111111   NYV1 A E383208783105721N840000000001283P5K800    05DNJBLISS LLC               673420    VD84000000001283 N  599978503056                            000000000+                F DF 10439                     000000000  Y000000000 331   0000000000000.00 0000000.00   0000000.00                             000000000000000                                                                                                                                                     01424 F000000000000 0000000000000.23     00050 02200                  
00018120638230001E167590675900000034330800141800000010100E0F8C802D2 00000000000.004040404040404040404040404040404040404040404040404006011203A0A000000000000000000000404040404040404040404040404040  0003084018008080008000230727ADC933678D819E612EB8CFF2404040400840A000000003101000000000000000000053423C360082000000000000000000004040401E40404040 000000012.83 000000000.001E00000000000000000000    80                                                                                                                                                                                                                                                                                                                  
00018130638230002G2675906759000000343308001418000000101GREENWOOD                SC           5 D                00                                      NNNN00 N 00                   000000000000                                                                   78503056                                                                                                                                                                                                                                                                                                                                                                                                                                               
00018140638230042DT67590675900000034330800141800000010180014124001193208900012500339072720230000000106920823000000000161179414740XXXXXX5058       VK04VS111111111   NYV1 A E463208784291046N8400000000010694W6B00    07DNJBLISS LLC               01289D    VS84000000001069 N  599978503056                            000000000+                D CD 12113                     000000000  N000000000 499   0000000000000.00 0000000.00   0000000.00                             000000000000000                                                                                                                                                     01424 F000000000000 0000000000000.32     02100 01000                  
00018150638230001E167590675900000034330800141800000010100E068C80091 00000000000.004040404040404040404040404040404040404040404040404006021203A00000000000000000000000404040404040404040404040404040  0001084020000000000000230727F0DB412C51667EE1BCBE5ED2404040400840A0000000031010000000000000000000116F27440082000000000000000000004040404040404040 000000010.69 000000000.004040400000000000000000    80                                                                                                                                                                                                                                                                                                                  
00018160638230002G2675906759000000343308001418000000101GREENWOOD                SC           5 C                00                                      NNNN00 Y 00                   000000000000                                                                   78503056                                                                                                                                                                                                                                                                                                                                                                                                                                               
00018170638230043DT67590675900000034330800141800000010180014124001193208900012500347072720230000000267420823000000000161179415783XXXXXX1166       VS11    0001111   NYV1 A E583208787023069N840000000002674QTN200    05DNJBLISS LLC               711728    VD84000000002674 N  599978503056                            000000000+                F DF 00381                     000000000  N000000000       0000000000000.00 0000000.00   0000000.00                             000000000000000                                                                                                                                                     01424 A000000000000 0000000000000.36     00800 01500                  
00018180638230001E167590675900000034330800141800000010100E0F8C80006 00000000000.004040404040404040404040404040404040404040404040404006011203A0B000000000000000000000404040404040404040404040404040  0001084018008080008000230727F6DCD1E53151CEF366D1C52E404040400840A0000000031010000000000000000000BD4245970382000000000000000000004040401E40404040 000000026.74 000000000.001E00000000000000000000    80                                                                                                                                                                                                                                                                                                                  
00018190638230002G2675906759000000343308001418000000101GREENWOOD                SC           5 D                00                                      NNNN00 N 00                   000000000000                                                                   78503056                                                                                                                                                                                                                                                                                                                                                                                                                                               
00018200638230044DT67590675900000034330800141800000010180014124001193208900012500354072720230000000182920823000000000161179441707XXXXXX1277       VS11    0001111   NYV1 A E383208788113887N8400000000018292HL500    07DNJBLISS LLC               709418    VD84000000001829 N  599978503056                            000000000+                F PF 08170                     000000000  N000000000       0000000000000.00 0000000.00   0000000.00                             000000000000000                                                                                                                                                     01424 A000000000000 0000000000000.36     01150 01500                  
00018210638230001E167590675900000034330800141800000010100E068C80073 00000000000.00404040404040404040404040404040404040404040404040401F42FF32A00000000010030273000000004000000000000000000000000000  0000084000600000000000230727126FF83422FECEBDFC9ECA55404040400840A00000000310100000000000000000004C4C828F0086000000000000000000004040404040404040 000000018.29 000000000.004040400000000000000000    80                                                                                                                                                                                                                                                                                                                  
00018220638230002G2675906759000000343308001418000000101GREENWOOD                SC           5 P                00                                      NNNN00 N 00                   000000000000                                                                   78503056                                                                                                                                                                                                                                                                                                                                                                                                                                               
00018230638230045DT67590675900000034330800141800000010180014124001193208900012500362072720230000000748820823000000000161179473703XXXXXX4769       VS11    0001111   NYV1 A E303208794301910N840000000007488FFLM00    05DNJBLISS LLC               058516    VD84000000007488 N  599978503056                            000000000+                F DF 10433                     000000000  Y000000000 338   0000000000000.00 0000000.00   0000000.00                             000000000000000                                                                                                                                                     01424 A000000000000 0000000000000.26     00050 02200                  
00018240638230001E167590675900000034330800141800000010100E0F8C805B0 00000000000.004040404040404040404040404040404040404040404040404006061203A0A000000000000000000000404040404040404040404040404040  00000840180080800080002307278CDC65E6C5D0728AA9729032404040400840A00000000310100000000000000000002090B0E02040A05020200000000000004040401E40404040 000000074.88 000000000.001E00000000000000000000    80                                                                                                                                                                                                                                                                                                                  
00018250638230002G2675906759000000343308001418000000101GREENWOOD                SC           5 D                00                                      NNNN00 N 00                   000000000000                                                                   78503056                                                                                                                                                                                                                                                                                                                                                                                                                                               
00018260638230046DT67590675900000034330800141800000010180014124001193208900012500370072720230000000962820823000000000161179448261XXXXXX5913       VS11    0001111   NYV1 A E583208798456254N840000000009628PWXT00    05DNJBLISS LLC               000379    VD84000000009628 N  599978503056                            000000000+                F DF 10433                     000000000  Y000000000 338   0000000000000.00 0000000.00   0000000.00                             000000000000000                                                                                                                                                     01424 A000000000000 0000000000000.27     00050 02200                  
00018270638230001E167590675900000034330800141800000010100E0F8C80044 00000000000.004040404040404040404040404040404040404040404040404006011203A0A000000000000000000000404040404040404040404040404040  0001084018008080008000230727D3DD56FD8EB3C16F8072AC2E404040400840A00000000310100000000000000000002B3CDAA20382000000000000000000004040401E40404040 000000096.28 000000000.001E00000000000000000000    80                                                                                                                                                                                                                                                                                                                  
00018280638230002G2675906759000000343308001418000000101GREENWOOD                SC           5 D                00                                      NNNN00 N 00                   000000000000                                                                   78503056                                                                                                                                                                                                                                                                                                                                                                                                                                               
00018290638230047DT67590675900000034330800141800000010180014124001193208900012500388072720230000000727320823000000000161179449594XXXXXX9308       VS11    0001111   NYV1 A E463208811172630N840000000007273VRTC00    05DNJBLISS LLC               669383    VD84000000007273 N  599978503056                            000000000+                F DF 00381                     000000000  N000000000       0000000000000.00 0000000.00   0000000.00                             000000000000000                                                                                                                                                     01424 A000000000000 0000000000000.73     00800 01500                  
00018300638230001E167590675900000034330800141800000010100E0F8C800CD 00000000000.004040404040404040404040404040404040404040404040404006011203A0A000000000000000000000404040404040404040404040404040  0000084018008080008000230727C45F7C408341D900C0967530404040400840A000000003101000000000000000000042C008760382000000000000000000004040401E40404040 000000072.73 000000000.001E00000000000000000000    80                                                                                                                                                                                                                                                                                                                  
00018310638230002G2675906759000000343308001418000000101GREENWOOD                SC           5 D                00                                      NNNN00 N 00                   000000000000                                                                   78503056                                                                                                                                                                                                                                                                                                                                                                                                                                               
00018320638230048DT67590675900000034330800141800000010180014124001193208900012500396072720230000000267420823000000000161179433477XXXXXX4329       VS11    0001111   NYV1 A E463208817605425N840000000002674G74C00    05DNJBLISS LLC               727792    VD84000000002674 N  599978503056                            000000000+                F DF 10433                     000000000  Y000000000 338   0000000000000.00 0000000.00   0000000.00                             000000000000000                                                                                                                                                     01424 A000000000000 0000000000000.23     00050 02200                  
00018330638230001E167590675900000034330800141800000010100E0F8C805A5 00000000000.004040404040404040404040404040404040404040404040404006010A03A00000000000000000000000404040404040404040404040404040  00030840180080800080002307279A96EE77053E9830A2325316404040400840A00000000310100000000000000000002DA3759FFC97639930300000000000004040401E40404040 000000026.74 000000000.001E00000000000000000000    80                                                                                                                                                                                                                                                                                                                  
00018340638230002G2675906759000000343308001418000000101GREENWOOD                SC           5 D                00                                      NNNN00 N 00                   000000000000                                                                   78503056                                                                                                                                                                                                                                                                                                                                                                                                                                               
00018350638230049DT67590675900000034330800141800000010180014124001193208900012500404072720230000000481420823000000000161179473703XXXXXX3305       VS11    0001111   NYV1 A E383208821019254N840000000004814GXP600    05DNJBLISS LLC               024374    VD84000000004814 N  599978503056                            000000000+                F DF 10433                     000000000  Y000000000 338   0000000000000.00 0000000.00   0000000.00                             000000000000000                                                                                                                                                     01424 A000000000000 0000000000000.24     00050 02200                  
00018360638230001E167590675900000034330800141800000010100E0F8C8000B 00000000000.004040404040404040404040404040404040404040404040404006061203A02000000000000000000000404040404040404040404040404040  00000840180080800080002307276F10C929B65A8613BAD7B0E3404040400840A0000000031010000000000000000000B0E08000F09040F020200000000000004040401E40404040 000000048.14 000000000.001E00000000000000000000    80                                                                                                                                                                                                                                                                                                                  
00018370638230002G2675906759000000343308001418000000101GREENWOOD                SC           5 D                00                                      NNNN00 N 00                   000000000000                                                                   78503056                                                                                                                                                                                                                                                                                                                                                                                                                                               
00018380638230050DT67590675900000034330800141800000010180014124001193208900012500412072720230000000588220823000000000161179463405XXXXXX9149       VS11    0001111   NYV1 A E383208822406581N840000000005882SZ5J00    05DNJBLISS LLC               079403    VD84000000005882 N  599978503056                            000000000+                F DF 10433                     000000000  Y000000000 338   0000000000000.00 0000000.00   0000000.00                             000000000000000                                                                                                                                                     01424 A000000000000 0000000000000.25     00050 02200                  
00018390638230001E167590675900000034330800141800000010100E0F8C802A6 00000000000.004040404040404040404040404040404040404040404040404006011203A0A000000000000000000000404040404040404040404040404040  00000840180080800080002307275DAA31209B79AF015EED3A18404040400840A00000000310100000000000000000002B003B0162FC925530300000000000004040401E40404040 000000058.82 000000000.001E00000000000000000000    80                                                                                                                                                                                                                                                                                                                  
00018400638230002G2675906759000000343308001418000000101GREENWOOD                SC           5 D                00                                      NNNN00 N 00                   000000000000                                                                   78503056                                                                                                                                                                                                                                                                                                                                                                                                                                               
00018410638230051DT67590675900000034330800141800000010180014124001193208900012500420072720230000000203220823000000000161179448233XXXXXX2399       VS11    0001111   NYV1 A E383208822913461N840000000002032WM7L00    05DNJBLISS LLC               075131    VD84000000002032 N  599978503056                            000000000+                F DF 10433                     000000000  Y000000000 338   0000000000000.00 0000000.00   0000000.00                             000000000000000                                                                                                                                                     01424 A000000000000 0000000000000.23     00050 02200                  
00018420638230001E167590675900000034330800141800000010100E0F8C8002C 00000000000.004040404040404040404040404040404040404040404040404006011203A02000000000000000000000404040404040404040404040404040  00000840180080800080002307271E377B5255EDE78F7E74D7EF404040400840A00000000310100000000000000000004270FB340080000000000000000000004040401E40404040 000000020.32 000000000.001E00000000000000000000    80                                                                                                                                                                                                                                                                                                                  
