09480620490034985AD675906759000000151648008888000009071900010883860000001987007202023NYY20123ND6759800888072320232023201028737                                                                                                                                                                                                                                                                                                                                                                                                                                                                                                                                                                                              
09480630490034988AD675906759000000268498001258000009071900014949590000001977007202023NYY20123ND6759800125072320232023201020087                                                                                                                                                                                                                                                                                                                                                                                                                                                                                                                                                                                              
09480640490034991AD675906759000000239118001208000009071900010801920000000544907202023NYY20123ND6759800120072320232023201020088                                                                                                                                                                                                                                                                                                                                                                                                                                                                                                                                                                                              
09480650490034994AD675906759000000239118001208000009071900010801910000002179907202023NYY20123ND6759800120072320232023201020089                                                                                                                                                                                                                                                                                                                                                                                                                                                                                                                                                                                              
09480660490034997AD675906759000000268498001258000009071900011629310000001977007202023NYY20123ND6759800125072320232023201020090                                                                                                                                                                                                                                                                                                                                                                                                                                                                                                                                                                                              
09480670490035000AD675906759000000268498001258000009071900011629320000000979807202023NYY20123ND6759800125072320232023201020091                                                                                                                                                                                                                                                                                                                                                                                                                                                                                                                                                                                              
09480680490035003AD675906759000000161968001028000009071900019067570000001624607202023NYY20123ND6759800102072320232023201020092                                                                                                                                                                                                                                                                                                                                                                                                                                                                                                                                                                                              
09480690490035006AD675906759000000133008001028000009071900011153910000002153407202023NYY20123ND6759800102072320232023201020093                                                                                                                                                                                                                                                                                                                                                                                                                                                                                                                                                                                              
09480700490035009AD675906759000000320118001368000009071900012681820000089637507202023NYY20123ND6759800136072320232023201020094                                                                                                                                                                                                                                                                                                                                                                                                                                                                                                                                                                                              
09480710490035012AD675906759000000133008001028000009071900011152680000002106207202023NYY20123ND6759800102072320232023201020095                                                                                                                                                                                                                                                                                                                                                                                                                                                                                                                                                                                              
09480720490035015AD675906759000000161968001028000009071900015729430000001059807202023NYY20123ND6759800102072320232023201020096                                                                                                                                                                                                                                                                                                                                                                                                                                                                                                                                                                                              
09480730490035018AD675906759000000142748001028000009071900010132740000001987007202023NYY20123ND6759800102072320232023193025754                                                                                                                                                                                                                                                                                                                                                                                                                                                                                                                                                                                              
09480740490035021AD675906759000000142748001028000009071900010335300000002118607202023NYY20123ND6759800102072320232023201027875                                                                                                                                                                                                                                                                                                                                                                                                                                                                                                                                                                                              
09480750491725731BH6759067590000001427480010280000090170721202320223000000000078533    0000090001539831N8001026759D07232023153                                                                                                                                                                                                                                                                                                                                                                                                                                                                                                                                                                                              
09480760491725732DT67590675900000014274800102800000010680010287287283202900015398290071920230000002604220223000000000078533517805XXXXXX2274                         YY 4607AMPLPJTW0N0719  N840000000026042          81CNCBD8666317293            011149    MC84000000026042 NDR549977145232   E3AD72DA1ATB8D56BD1D6A8  000000000+600450S00130    MPL  00565                     000000000  N                0000000000000.00 0000000.00   0000000.00                             000000000000000                                                                                                                                                     015WPE 000000000000-0000000000004.56     01750 00000                  
09480770491725732DR675906759000000142748001028000000106E3AD72DA1ATB8D56BD1D6A8  Y000000000000                                                                                                                                                                                                                                                                                                                                                                                                                                                                                                                                                                                                                               
09480780491720001G26759067590000001427480010280000001068666317293               GA           9 L               210                                      NNNN           210000000000000000000000000                        7                                          77145232                                                                                                                                                                                                                                                                                                                                                                                                                                               
09480790491725733DT67590675900000014274800102800000010680010287287283202900015398308071920230000002604220223000000000078533517805XXXXXX2274                         YY 4607AMPLNJ6KIQ0719  N840000000026042          81CNCBD8666317293            013843    MC84000000026042 NDR549977145232   61EA3D7ECFTA40D8E9D0306  000000000+600450S00130    MPL  00565                     000000000  N                0000000000000.00 0000000.00   0000000.00                             000000000000000                                                                                                                                                     015WPE 000000000000-0000000000004.56     01750 00000                  
09480800491725733DR67590675900000014274800102800000010661EA3D7ECFTA40D8E9D0306  Y000000000000                                                                                                                                                                                                                                                                                                                                                                                                                                                                                                                                                                                                                               
09480810491720001G26759067590000001427480010280000001068666317293               GA           9 L               210                                      NNNN           210000000000000000000000000                        7                                          77145232                                                                                                                                                                                                                                                                                                                                                                                                                                               
09480820491725734DT67590675900000014274800102800000010680010287287283202900015398316072020230000002644920223000000000078533512107XXXXXX0254                         YY 4607AMCC1DOY540720  N840000000026449          81CNCBD8666317293            020428    MC84000000026449 NDR549977145232   1F6F3FB74BT154224AD6347  000000000+600450S00130    MCC  00565                     000000000  N                0000000000000.00 0000000.00   0000000.00                             000000000000000                                                                                                                                                     015WPE 000000000000-0000000000004.63     01750 00000                  
09480830491725734DR6759067590000001427480010280000001061F6F3FB74BT154224AD6347  R000000000000                                                                                                                                                                                                                                                                                                                                                                                                                                                                                                                                                                                                                               
09480840491720001G26759067590000001427480010280000001068666317293               GA           9 C               210                                      NNNN           210000000000000000000000000                        7                                          77145232                                                                                                                                                                                                                                                                                                                                                                                                                                               
09480850491725737BH6759067590000001516480088880000090170721202320223000000000024870    0000090001429111N8008886759D07232023142                                                                                                                                                                                                                                                                                                                                                                                                                                                                                                                                                                                              
09480860491725738DT67590675900000015164800888800000010680088887287283202900014291116072020230000002487020223000000000024870527519XXXXXX5947                         YY 4607AMDJKMPCMG0720  N840000000024870          81CNKETOFUSION833-923-3587   979224    MD84000000024870 NDR599977360677   74C22AB107TB43FD251712D  000000000+600450S00130    MDJ  10828                     000000000  1                0000000000000.00 0000000.00   0000000.00                             000000000000000                                                                                                                                                     015WPE 000000000000 0000000000000.00     00000 00000                  
09480870491725738DR67590675900000015164800888800000010674C22AB107TB43FD251712D  Y000000000000                                                                                                                                                                                                                                                                                                                                                                                                                                                                                                                                                                                                                               
09480880491720001G26759067590000001516480088880000001068014041097               UT           9 J               210                                      NNNN           210000000000000000000000000                        7                                          77360677                                                                                                                                                                                                                                                                                                                                                                                                                                               
09480890491725741BH6759067590000001619680010280000090170721202320223000000000035458    0000090001986881N8001026759D07232023098                                                                                                                                                                                                                                                                                                                                                                                                                                                                                                                                                                                              
09480900491725742DT67590675900000016196800102800000010680010274001193202900019868771072020230000002486020223000000000035458448232XXXXXX3433               0000000   YYV4 07T383201530434690N8400000000248603DBF00    01CNGREEN OTTER LLC          020557    VD84000000024860 NDR549977424386   6A3032F19ETCB2052C42695  000000000+                F DF 08168                     000000000  N000000000 369   0000000000000.00 0000000.00   0000000.00                             000000000000000                                                                                                                                                     015WPE 000000024860 0000000000000.00     00000 00000                  
09480910491725742DR6759067590000001619680010280000001066A3032F19ETCB2052C42695  U000000024860                 P1                                                                                                                                                                                                                                                                                                                                                                                                                                                                                                                                                                                                            
09480920491720001P16759067590000001619680010280000001060000000000000000                             2000000000000000000000000              000000000000                    0000000000000000000000000                    000000000000                                                                                                                                                                                                                                                                                                                                                                                                                                                                                        
09480930491720002G2675906759000000161968001028000000106866-6317293              GA           9 D                00                                      NNNN   N                      000000000000                                                                   77424386                                                                                                                                                                                                                                                                                                                                                                                                                                               
09480940491725743DT67590675900000016196800102800000010680010287287283202900019868819072020230000001059820223000000000035458533248XXXXXX1264                         YY94607N         0720  N840000000000000          81CNGREEN OTTER LLC                    MD84000000010598 N  549977424386   D11F34DBC7T0D76D7C94AFE  000000000+600450S00130    MPV  00560                     000000000  N                0000000000000.00 0000000.00   0000000.00                             000000000000000                                                                                                                                                     015WPE 000000000000 0000000000000.00     00000 00000                  
09480950491720001G26759067590000001619680010280000001068666317293               GA           9 V               210                                      NNNN           210000000000000000000000000                                                                   77424386                                                                                                                                                                                                                                                                                                                                                                                                                                               
09480960491725746BH6759067590000004225980015280000090170721202320223000000000001599    0000090001050160N8001526759D07232023005                                                                                                                                                                                                                                                                                                                                                                                                                                                                                                                                                                                              
09480970491725747DT67590675900000042259800152800000010680015274001193202900010501603071920230000000159920223000000000001599406587XXXXXX3856               0000000   YYV4 07T463201073602342N840000000001599MQ9Q00    01CNKKIND LLC                082982    VD84000000001599FNDR549978706676   344662                   000000000+                G DG 00758                     000000000  N000000000       0000000000000.00 0000000.00   0000000.00                             000000000000000                                                                                                                                                     015WPE 000000001599-0000000000000.32     02000 00000                  
09480980491725747DR675906759000000422598001528000000106344662                   U000000001599                 P1                                                                                                                                                                                                                                                                                                                                                                                                                                                                                                                                                                                                            
09480990491720001P16759067590000004225980015280000001060000000000000000                             2000000000000000000000000              000000000000                    0000000000000000000000000                    000000000000                                                                                                                                                                                                                                                                                                                                                                                                                                                                                        
09481000491720002G2675906759000000422598001528000000106855-5515463              CA           9 D                00                                      NNNN   N                      000000000000                                                                   78706676                                                                                                                                                                                                                                                                                                                                                                                                                                               
09481010491725750BH6759067590000002684980012580000090170721202320223000000000049338    0000090001978154N8001256759D07232023097                                                                                                                                                                                                                                                                                                                                                                                                                                                                                                                                                                                              
09481020491725751DT67590675900000026849800125800000010680012574001193202900019781529072020230000001977020223000000000049338499110XXXXXX0475               0000000   YYV4 07T303201354660394N840000000019770DVQ400    01CNCBD8885133385            020428    VS84000000019770 NDR599978220273   D9034237F4TB806DA7D8D7A  000000000+                A CA 00245                     000000000  N000000000 166   0000000000000.00 0000000.00   0000000.00                             000000000000000                                                                                                                                                     015WPE 000000019770-0000000000003.48     01760 00000                  
09481030491725751DR675906759000000268498001258000000106D9034237F4TB806DA7D8D7A  U000000019770                 P1                                                                                                                                                                                                                                                                                                                                                                                                                                                                                                                                                                                                            
09481040491720001P16759067590000002684980012580000001060000000000000000                             2000000000000000000000000              000000000000                    0000000000000000000000000                    000000000000                                                                                                                                                                                                                                                                                                                                                                                                                                                                                        
09481050491720002G2675906759000000268498001258000000106888-5133385              WY           9 C                00                                      NNNN   N                      000000000000                                                                   78220273                                                                                                                                                                                                                                                                                                                                                                                                                                               
09481060491725752DT67590675900000026849800125800000010680012574001193202900019781537072020230000000979820223000000000049338499110XXXXXX0475               0000000   YYV4 07T383201354695868N840000000009798V3MW00    01CNCBD8885133385            020876    VS84000000009798 NDR599978220273   D9034237F4TF1ECB8F517C6  000000000+                A CA 00245                     000000000  N000000000 166   0000000000000.00 0000000.00   0000000.00                             000000000000000                                                                                                                                                     015WPE 000000009798-0000000000001.72     01760 00000                  
09481070491725752DR675906759000000268498001258000000106D9034237F4TF1ECB8F517C6  U000000009798                 P1                                                                                                                                                                                                                                                                                                                                                                                                                                                                                                                                                                                                            
09481080491720001P16759067590000002684980012580000001060000000000000000                             2000000000000000000000000              000000000000                    0000000000000000000000000                    000000000000                                                                                                                                                                                                                                                                                                                                                                                                                                                                                        
09481090491720002G2675906759000000268498001258000000106888-5133385              WY           9 C                00                                      NNNN   N                      000000000000                                                                   78220273                                                                                                                                                                                                                                                                                                                                                                                                                                               
09481100491725753DT67590675900000026849800125800000010680012587287283202900019781541072020230000001977020223000000000049338512107XXXXXX8208                         YY 4607AMCCCSSHMG0720  N840000000019770          81CNCBD8885133385            020806    MC84000000019770 NDR599978220273   E1CA39FD03T706A5CE472B5  000000000+600450S00130    MCC  00564                     000000000  N                0000000000000.00 0000000.00   0000000.00                             000000000000000                                                                                                                                                     015WPE 000000000000-0000000000003.46     01750 00000                  
09481110491725753DR675906759000000268498001258000000106E1CA39FD03T706A5CE472B5  R000000000000                                                                                                                                                                                                                                                                                                                                                                                                                                                                                                                                                                                                                               
09481120491720001G26759067590000002684980012580000001068885133385               WY           9 C               210                                      NNNN           210000000000000000000000000                        7                                          78220273                                                                                                                                                                                                                                                                                                                                                                                                                                               
09481130492700002BH6759067590000003284780013580000090170721202320223000000000023618    0000090001320015N8001356759C07232023032                                                                                                                                                                                                                                                                                                                                                                                                                                                                                                                                                                                              
09481140492700003DT67590675900000032847800135800000010180013524001193202900013200034072020230000000043220223000000000023618427082XXXXXX5684       VK04VS111111111   NYV1 A E463201648212005N840000000000432BR8200    05DNDAYDREAMS SMOKE WORLD LLC020857    VS84000000000432 N  599378639041                            000000000+                D CD 12113                     000000000  N000000000 499   0000000000000.00 0000000.00   0000000.00                             000000000000000                                                                                                                                                     01418 F000000000000 0000000000000.19     02100 01000                  
09481150492700001E167590675900000032847800135800000010100E0F8C80038 00000000000.004040404040404040404040404040404040404040404040404006011203A0A000000000000000000000404040404040404040404040404040  0001084018008000008000230720BC4D832786A0F8E52816D2BA404040400840A000000003101000000000000000000052DCB65B0082000000000000000000004040405E40404040 000000004.32 000000000.005E00000000000000000000    80                                                                                                                                                                                                                                                                                                                  
09481160492700002G2675906759000000328478001358000000101MCALLEN                  TX           5 C                00                                      NNNN00 Y 00                   000000000000                                                                   78639041                                                                                                                                                                                                                                                                                                                                                                                                                                               
09481170492700004DT67590675900000032847800135800000010180013524001193202900013200083072020230000000460020223000000000023618414718XXXXXX8016       VS11    0001111   NYV1 A E383202021783112N8400000000046006HV300    05DNDAYDREAMS SMOKE WORLD LLC020027    VS84000000004600 N  599378639041                            000000000+                D CD 12113                     000000000  N000000000 499   0000000000000.00 0000000.00   0000000.00                             000000000000000                                                                                                                                                     01418 A000000000000 0000000000001.07     02100 01000                  
09481180492700001E167590675900000032847800135800000010100E0F8C80139 00000000000.004040404040404040404040404040404040404040404040404006031203A0A000000000000000000000404040404040404040404040404040  0001084018008000008000230720163B9343CADC1443E2D2BD11404040400840A0000000031010000000000000000000CD22BA5C0082000000000000000000004040405E40404040 000000046.00 000000000.005E00000000000000000000    80                                                                                                                                                                                                                                                                                                                  
09481190492700002G2675906759000000328478001358000000101MCALLEN                  TX           5 C                00                                      NNNN00 Y 00                   000000000000                                                                   78639041                                                                                                                                                                                                                                                                                                                                                                                                                                               
09481200492700005DT67590675900000032847800135800000033080013576759003202900013200013072020230000000313720223000000000023618400231XXXXXX4953                         NY 2 0 N               N840000000003137      IL  05DNDAYDREAMS SMOKE WORLD LLC031263    DB84000000003137 N  599378639041                            000000000+                     09590                                N          279   0000000000000.00 0000000.00   0000000.00                             000000000000000                                                                                                                                                     01418  000000000000 0000000000000.40     00800 00000                  
09481210492700001G2675906759000000328478001358000000330MCALLEN                  TX           5 D                00                                      NNNN                          000000000000                                                                   78639041                                                                                                                                                                                                                                                                                                                                                                                                                                               
09481220492700006DT67590675900000032847800135800000033080013576759003202900013200021072020230000000010720223000000000023618434258XXXXXX5637                         NY 2 0 N               N840000000000107      IL  05DNDAYDREAMS SMOKE WORLD LLC043509    DB84000000000107 N  599378639041                            000000000+                     09580                                Y          342   0000000000000.00 0000000.00   0000000.00                             000000000000000                                                                                                                                                     01418  000000000000 0000000000000.22     00050 00000                  
09481230492700001G2675906759000000328478001358000000330MCALLEN                  TX           5 D                00                                      NNNN                          000000000000                                                                   78639041                                                                                                                                                                                                                                                                                                                                                                                                                                               
09481240492700007DT67590675900000032847800135800000033080013576759003202900013200047072020230000000053820223000000000023618440393XXXXXX9182                         NY 2 0 N               N840000000000538      IL  90DNDAYDREAMS SMOKE WORLD LLC241965    DB84000000000538 N  599378639041                            000000000+                     09576                                N          346   0000000000000.00 0000000.00   0000000.00                             000000000000000                                                                                                                                                     01418  000000000000 0000000000000.21     01150 00000                  
09481250492700001G2675906759000000328478001358000000330MCALLEN                  TX           5 P                00                                      NNNN                          000000000000                                                                   78639041                                                                                                                                                                                                                                                                                                                                                                                                                                               
09481260492700008DT67590675900000032847800135800000033080013576759003202900013200054072020230000000074420223000000000023618474472XXXXXX4868                         NY 2 0 N               N840000000000744      IL  07DNDAYDREAMS SMOKE WORLD LLC152467    DB84000000000744 N  599378639041                            000000000+                     09580                                Y          342   0000000000000.00 0000000.00   0000000.00                             000000000000000                                                                                                                                                     01418  000000000000 0000000000000.22     00050 00000                  
09481270492700001G2675906759000000328478001358000000330MCALLEN                  TX           5 D                00                                      NNNN                          000000000000                                                                   78639041                                                                                                                                                                                                                                                                                                                                                                                                                                               
09481280492700009DT67590675900000032847800135800000033080013576759003202900013200062072020230000000035020223000000000023618461046XXXXXX0065                         NY 2 0 N               N840000000000350      IL  07DNDAYDREAMS SMOKE WORLD LLC070620    DB84000000000350 N  599378639041                            000000000+                     09580                                Y          342   0000000000000.00 0000000.00   0000000.00                             000000000000000                                                                                                                                                     01418  000000000000 0000000000000.22     00050 00000                  
09481290492700001G2675906759000000328478001358000000330MCALLEN                  TX           5 D                00                                      NNNN                          000000000000                                                                   78639041                                                                                                                                                                                                                                                                                                                                                                                                                                               
09481300492700010DT67590675900000032847800135800000033080013576759003202900013200070072020230000000324620223000000000023618531259XXXXXX0972                         NY42 0 N               N840000000003246      ME  05DNDAYDREAMS SMOKE WORLD LLC113319    DB84000000003246 N  599378639041                            000000000+                     09601                                1          MA1   0000000000000.00 0000000.00   0000000.00                             000000000000000                                                                                                                                                     01418  000000000000 0000000000000.24     00050 00000                  
09481310492700001G2675906759000000328478001358000000330MCALLEN                  TX           5 D                00                                      NNNN                          000000000000                                                                   78639041                                                                                                                                                                                                                                                                                                                                                                                                                                               
09481320492700011DT67590675900000032847800135800000033080013576759003202900013200096072020230000000497820223000000000023618480219XXXXXX9637                         NY 2 0 N               N840000000004978      IL  07DNDAYDREAMS SMOKE WORLD LLC154560    DB84000000004978 N  599378639041                            000000000+                     09580                                Y          342   0000000000000.00 0000000.00   0000000.00                             000000000000000                                                                                                                                                     01418  000000000000 0000000000000.24     00050 00000                  
09481330492700001G2675906759000000328478001358000000330MCALLEN                  TX           5 D                00                                      NNNN                          000000000000                                                                   78639041                                                                                                                                                                                                                                                                                                                                                                                                                                               
09481340492700012DT67590675900000032847800135800000033080013576759003202900013200104072020230000000357120223000000000023618434258XXXXXX0139                         NY 2 0 N               N840000000003571      IL  05DNDAYDREAMS SMOKE WORLD LLC060596    DB84000000003571 N  599378639041                            000000000+                     09580                                Y          342   0000000000000.00 0000000.00   0000000.00                             000000000000000                                                                                                                                                     01418  000000000000 0000000000000.24     00050 00000                  
09481350492700001G2675906759000000328478001358000000330MCALLEN                  TX           5 D                00                                      NNNN                          000000000000                                                                   78639041                                                                                                                                                                                                                                                                                                                                                                                                                                               
09481360492700013DT67590675900000032847800135800000033080013576759003202900013200112072020230000000025620223000000000023618445026XXXXXX7500                         NY 2 0 N               N840000000000256      IL  07DNDAYDREAMS SMOKE WORLD LLC946858    DB84000000000256 N  599378639041                            000000000+                     09580                                Y          342   0000000000000.00 0000000.00   0000000.00                             000000000000000                                                                                                                                                     01418  000000000000 0000000000000.22     00050 00000                  
09481370492700001G2675906759000000328478001358000000330MCALLEN                  TX           5 D                00                                      NNNN                          000000000000                                                                   78639041                                                                                                                                                                                                                                                                                                                                                                                                                                               
09481380492700014DT67590675900000032847800135800000033080013576759003202900013200120072020230000000021420223000000000023618544544XXXXXX0120                         NY42 0 N               N840000000000214      ME  90DNDAYDREAMS SMOKE WORLD LLC044244    DB84000000000214 N  599378639041                            000000000+                     09597                                N                0000000000000.00 0000000.00   0000000.00                             000000000000000                                                                                                                                                     01418  000000000000 0000000000000.17     00900 00000                  
09481390492700001G2675906759000000328478001358000000330MCALLEN                  TX           5 D                00                                      NNNN                          000000000000                                                                   78639041                                                                                                                                                                                                                                                                                                                                                                                                                                               
09481400492700015DT67590675900000032847800135800000033080013576759003202900013200138072020230000000025820223000000000023618443045XXXXXX3165                         NY 2 0 N               N840000000000258      IL  05DNDAYDREAMS SMOKE WORLD LLC303170    DB84000000000258 N  599378639041                            000000000+                     09580                                Y          342   0000000000000.00 0000000.00   0000000.00                             000000000000000                                                                                                                                                     01418  000000000000 0000000000000.22     00050 00000                  
09481410492700001G2675906759000000328478001358000000330MCALLEN                  TX           5 D                00                                      NNNN                          000000000000                                                                   78639041                                                                                                                                                                                                                                                                                                                                                                                                                                               
09481420492700016DT67590675900000032847800135800000033080013576759003202900013200146072020230000000054020223000000000023618510805XXXXXX7104                         NY 2 0 N               N840000000000540      IL  05DNDAYDREAMS SMOKE WORLD LLC035553    DB84000000000540 N  599378639041                            000000000+                     09580                                1          342   0000000000000.00 0000000.00   0000000.00                             000000000000000                                                                                                                                                     01418  000000000000 0000000000000.22     00050 00000                  
09481430492700001G2675906759000000328478001358000000330MCALLEN                  TX           5 D                00                                      NNNN                          000000000000                                                                   78639041                                                                                                                                                                                                                                                                                                                                                                                                                                               
09481440492700017DT67590675900000032847800135800000033080013576759003202900013200153072120230000000064720223000000000023618527515XXXXXX3956                         NY42 0 N               N840000000000647      ME  05DNDAYDREAMS SMOKE WORLD LLC145944    DB84000000000647 N  599378639041                            000000000+                     09601                                1          MA1   0000000000000.00 0000000.00   0000000.00                             000000000000000                                                                                                                                                     01418  000000000000 0000000000000.22     00050 00000                  
09481450492700001G2675906759000000328478001358000000330MCALLEN                  TX           5 D                00                                      NNNN                          000000000000                                                                   78639041                                                                                                                                                                                                                                                                                                                                                                                                                                               
09481460492700018BH6759067590000003284780013580000090170721202320223000000000039274    0000090001320019N8001356759C07232023032                                                                                                                                                                                                                                                                                                                                                                                                                                                                                                                                                                                              
09481470492700019DT67590675900000032847800135800000010180013577287283202900013200010072020230000000021420223000000000039274539008XXXXXX9955                         NY 1 0 AMDBWMQW9Y0720  N840000000000214          07DNDAYDREAMS SMOKE WORLD LLC599BEW    MD84000000000214 NP1599378639007                            000000000+M10101M0034C    MDB  00062                     000000000  N                0000000000000.00 0000000.00   0000000.00                             000000000000000                                                                                                                                                   A101418  000000000000 0000000000000.16     02650 01000                  
09481480492700001P1675906759000000328478001358000000101                                                          000000000000          8000            207694663                                                                                                                                                                                                                                                                                                                                                                                                                                                                                                                                                            
09481490492700002E167590675900000032847800135800000010100E008C80015 00000000000.00404040404040404040404040404040404040404040404040400114A14003020000000000000000000000FF00000000000000000000000000  000008401B800000008001230720FB998C48E0146D93648B0C18404040400840A0000000041010000000000000000000404040404040404040404040404040404040403F40404040 000000002.14 000000000.003F00020000000000000000    80                                                                                                                                                                                                                                                                                                                  
09481500492700003G2675906759000000328478001358000000101MCALLEN                  TX           5 B                                    207694663           YNNN              000000000000000000000000       21               C                                          78639007                                                                                                                                                                                                                                                                                                                                                                                                                                               
09481510492700020DT67590675900000032847800135800000010180013524001193202900013200034072020230000000010620223000000000039274441707XXXXXX1450       VK04VS111111111   NYV1 A E383201663311408N840000000000106WHN800    07DNDAYDREAMS SMOKE WORLD LLC633760    VD84000000000106 N  599378639007                            000000000+                F PF 08165                     000000000  N000000000       0000000000000.00 0000000.00   0000000.00                             000000000000000                                                                                                                                                     01418 F000000000000 0000000000000.07     01600 00500                  
09481520492700001E1675906759000000328478001358000000101004040400026 00000000000.00404040404040404040404040404040404040404040404040401F42FF32A00000000010030273000000004000000000000000000000000000  0000084000600000000000230720E234350CB8E130C296B0E6FC404040400840A0000000031010000000000000000000A71954160086000000000000000000004040404040404040 000000001.06 000000000.004040400000000000000000    80                                                                                                                                                                                                                                                                                                                  
09481530492700002G2675906759000000328478001358000000101MCALLEN                  TX           5 P                00                                      NNNN00 N 00                   000000000000                                                                   78639007                                                                                                                                                                                                                                                                                                                                                                                                                                               
09481540492700021DT67590675900000032847800135800000010180013524001193202900013200083072020230000000324620223000000000039274449102XXXXXX2914       VS11    0001111   NYV1 A E383201782556862N840000000003246MWWG00    07DNDAYDREAMS SMOKE WORLD LLCB67721    VD84000000003246 N  599378639007                            000000000+                F DF 10433                     000000000  Y000000000 338   0000000000000.00 0000000.00   0000000.00                             000000000000000                                                                                                                                                     01418 A000000000000 0000000000000.24     00050 02200                  
09481550492700001E1675906759000000328478001358000000101004040400030 00000000000.00404040404040404040404040404040404040404040404040401F4AFF32A00000000010030273000000004000000000000000000000000000  00000840006000000000002307208D1FB0256BB232C79C000993404040400840A0000000031010000000000000000000345B0E6EF6319FF930300000000000004040404040404040 000000032.46 000000000.004040400000000000000000    80                                                                                                                                                                                                                                                                                                                  
09481560492700002G2675906759000000328478001358000000101MCALLEN                  TX           5 D                00                                      NNNN00 N 00                   000000000000                                                                   78639007                                                                                                                                                                                                                                                                                                                                                                                                                                               
09481570492700022DT67590675900000032847800135800000010180013524001193202900013200091072020230000000248820223000000000039274422968XXXXXX7954       VS11    0001111   NYV1 A E463201784877252N840000000002488N3D300    05DNDAYDREAMS SMOKE WORLD LLCB67360    VD84000000002488 N  599378639007                            000000000+                F DF 10433                     000000000  Y000000000 338   0000000000000.00 0000000.00   0000000.00                             000000000000000                                                                                                                                                     01418 A000000000000 0000000000000.23     00050 02200                  
09481580492700001E167590675900000032847800135800000010100E0F8C8025B 00000000000.004040404040404040404040404040404040404040404040404006011203A0A000000000000000000000404040404040404040404040404040  00000840180080000080002307204BE3C8EFF557961790D24950404040400840A0000000031010000000000000000000404040404040404040404040404040404040405E40404040 000000024.88 000000000.005E00000000000000000000    80                                                                                                                                                                                                                                                                                                                  
09481590492700002G2675906759000000328478001358000000101MCALLEN                  TX           5 D                00                                      NNNN00 N 00                   000000000000                                                                   78639007                                                                                                                                                                                                                                                                                                                                                                                                                                               
09481600492700023DT67590675900000032847800135800000010180013524001193202900013200109072020230000000064020223000000000039274444607XXXXXX6752       VK04VS111111111   NYV1 A E583201806540662N840000000000640QH2Q00    05DNDAYDREAMS SMOKE WORLD LLC1UYQOQ    VD84000000000640 N  599378639007                            000000000+                G PG 10178                     000000000  N000000000 363   0000000000000.00 0000000.00   0000000.00                             000000000000000                                                                                                                                                     01418 F000000000000 0000000000000.24     02150 01000                  
09481610492700001E167590675900000032847800135800000010100E0F8C80054 00000000000.004040404040404040404040404040404040404040404040404006011203A02000000000000000000000404040404040404040404040404040  0000084018008000008000230720A2FC0416696E68A7C6F9A56A404040400840A0000000031010000000000000000000FAEE2D6D0082000000000000000000004040405E40404040 000000006.40 000000000.005E00000000000000000000    80                                                                                                                                                                                                                                                                                                                  
09481620492700002G2675906759000000328478001358000000101MCALLEN                  TX           5 P                00                                      NNNN00 N 00                   000000000000                                                                   78639007                                                                                                                                                                                                                                                                                                                                                                                                                                               
09481630492700024DT67590675900000032847800135800000010180013576509753202900013200131072020230000000324620223000000000039274601101XXXXXX8567   BA50                  NY41 0 N873173550396932N840000000003246    00    05DNDAYDREAMS SMOKE WORLD LLC02081R    DS84000000003246 N  599378639007050                         000000000+0000004910H00   DCCDI01000669163  195039000000 000000000  0          112   0000000000000.00 0000000.00   0000000.00                             000000000000000                                                                                                                                                     01418  000000000000 0000000000000.66     01720 01000                  
09481640492700001E167590675900000032847800135800000010100E0F8C8001F 00000000000.00404040404040404040404040404040404040404040404040400105A080038000000000000000000000404040404040404040404040404040  000108407800000000800023072015054B795BD0A157F8B09876404040400840A0000001523010000000000000000000C89F337DE3A28F1300320000000000004040401E40404040 000000032.46 000000000.001E03000000000000000000    80                                                                                                                                                                                                                                                                                                                  
09481650492700002G2675906759000000328478001358000000101MCALLEN                  TX           5 C                00                                      NNNN                          000000000000                         00000650975601179750000659                78639007                                                                                                                                                                                                                                                                                                                                                                                                                                               
09481660492700025DT67590675900000032847800135800000010180013524001193202900013200182072120230000000324620223000000000039274422968XXXXXX4670       VS11    0001111   NYV1 A E383202233998519N840000000003246DWJ800    05DNDAYDREAMS SMOKE WORLD LLCB16265    VD84000000003246 N  599378639007                            000000000+                F DF 10433                     000000000  Y000000000 338   0000000000000.00 0000000.00   0000000.00                             000000000000000                                                                                                                                                     01418 A000000000000 0000000000000.24     00050 02200                  
09481670492700001E167590675900000032847800135800000010100E0F8C80025 00000000000.004040404040404040404040404040404040404040404040404006011203A0A000000000000000000000404040404040404040404040404040  0000084018008000008000230721AEED6D6C418CA3BD60EA924F404040400840A0000000031010000000000000000000404040404040404040404040404040404040405E40404040 000000032.46 000000000.005E00000000000000000000    80                                                                                                                                                                                                                                                                                                                  
09481680492700002G2675906759000000328478001358000000101MCALLEN                  TX           5 D                00                                      NNNN00 N 00                   000000000000                                                                   78639007                                                                                                                                                                                                                                                                                                                                                                                                                                               
09481690492700026DT67590675900000032847800135800000033080013576759003202900013200021072020230000001309520223000000000039274514441XXXXXX4360                         NY42 0 N               N840000000013095      ME  05DNDAYDREAMS SMOKE WORLD LLC274360    DB84000000013095 N  599378639007                            000000000+                     09597                                N                0000000000000.00 0000000.00   0000000.00                             000000000000000                                                                                                                                                     01418  000000000000 0000000000001.33     00900 00000                  
09481700492700001G2675906759000000328478001358000000330MCALLEN                  TX           5 D                00                                      NNNN                          000000000000                                                                   78639007                                                                                                                                                                                                                                                                                                                                                                                                                                               
09481710492700027DT67590675900000032847800135800000033080013576759003202900013200047072020230000000013520223000000000039274434236XXXXXX6679                         NY 2 0 N               N840000000000135      IL  07DNDAYDREAMS SMOKE WORLD LLC008084    DB84000000000135 N  599378639007                            000000000+                     09573                                N          121   0000000000000.00 0000000.00   0000000.00                             000000000000000                                                                                                                                                     01418  000000000000 0000000000000.16     00800 00000                  
09481720492700001G2675906759000000328478001358000000330MCALLEN                  TX           5 D                00                                      NNNN                          000000000000                                                                   78639007                                                                                                                                                                                                                                                                                                                                                                                                                                               
09481730492700028DT67590675900000032847800135800000033080013576759003202900013200054072020230000000140620223000000000039274467010XXXXXX2499                         NY 2 0 N               N840000000001406      IL  07DNDAYDREAMS SMOKE WORLD LLC850299    DB84000000001406 N  599378639007                            000000000+                     09580                                Y          342   0000000000000.00 0000000.00   0000000.00                             000000000000000                                                                                                                                                     01418  000000000000 0000000000000.23     00050 00000                  
09481740492700001G2675906759000000328478001358000000330MCALLEN                  TX           5 D                00                                      NNNN                          000000000000                                                                   78639007                                                                                                                                                                                                                                                                                                                                                                                                                                               
09481750492700029DT67590675900000032847800135800000033080013576759003202900013200062072020230000000129720223000000000039274467010XXXXXX4008                         NY 2 0 N               N840000000001297      IL  05DNDAYDREAMS SMOKE WORLD LLC357880    DB84000000001297 N  599378639007                            000000000+                     09580                                Y          342   0000000000000.00 0000000.00   0000000.00                             000000000000000                                                                                                                                                     01418  000000000000 0000000000000.23     00050 00000                  
09481760492700001G2675906759000000328478001358000000330MCALLEN                  TX           5 D                00                                      NNNN                          000000000000                                                                   78639007                                                                                                                                                                                                                                                                                                                                                                                                                                               
09481770492700030DT67590675900000032847800135800000033080013576759003202900013200070072020230000000064720223000000000039274461046XXXXXX5509                         NY 2 0 N               N840000000000647      IL  05DNDAYDREAMS SMOKE WORLD LLC011917    DB84000000000647 N  599378639007                            000000000+                     09580                                Y          342   0000000000000.00 0000000.00   0000000.00                             000000000000000                                                                                                                                                     01418  000000000000 0000000000000.22     00050 00000                  
09481780492700001G2675906759000000328478001358000000330MCALLEN                  TX           5 D                00                                      NNNN                          000000000000                                                                   78639007                                                                                                                                                                                                                                                                                                                                                                                                                                               
09481790492700031DT67590675900000032847800135800000033080013576759003202900013200112072020230000000043120223000000000039274400167XXXXXX9418                         NY 2 0 N               N840000000000431      IL  90DNDAYDREAMS SMOKE WORLD LLC000019    DB84000000000431 N  599378639007                            000000000+                     09573                                N          121   0000000000000.00 0000000.00   0000000.00                             000000000000000                                                                                                                                                     01418  000000000000 0000000000000.18     00800 00000                  
09481800492700001G2675906759000000328478001358000000330MCALLEN                  TX           5 D                00                                      NNNN                          000000000000                                                                   78639007                                                                                                                                                                                                                                                                                                                                                                                                                                               
09481810492700032DT67590675900000032847800135800000033080013576759003202900013200120072020230000000389520223000000000039274442756XXXXXX1454                         NY 2 0 N               N840000000003895      IL  05DNDAYDREAMS SMOKE WORLD LLC004520    DB84000000003895 N  599378639007                            000000000+                     09580                                Y          342   0000000000000.00 0000000.00   0000000.00                             000000000000000                                                                                                                                                     01418  000000000000 0000000000000.24     00050 00000                  
09481820492700001G2675906759000000328478001358000000330MCALLEN                  TX           5 D                00                                      NNNN                          000000000000                                                                   78639007                                                                                                                                                                                                                                                                                                                                                                                                                                               
09481830492700033DT67590675900000032847800135800000033080013576759003202900013200146072020230000000303020223000000000039274434258XXXXXX7065                         NY 2 0 N               N840000000003030      IL  07DNDAYDREAMS SMOKE WORLD LLC052653    DB84000000003030 N  599378639007                            000000000+                     09580                                Y          342   0000000000000.00 0000000.00   0000000.00                             000000000000000                                                                                                                                                     01418  000000000000 0000000000000.24     00050 00000                  
09481840492700001G2675906759000000328478001358000000330MCALLEN                  TX           5 D                00                                      NNNN                          000000000000                                                                   78639007                                                                                                                                                                                                                                                                                                                                                                                                                                               
09481850492700034DT67590675900000032847800135800000033080013576759003202900013200153072020230000000150520223000000000039274443045XXXXXX2682                         NY 2 0 N               N840000000001505      IL  05DNDAYDREAMS SMOKE WORLD LLC276418    DB84000000001505 N  599378639007                            000000000+                     09580                                Y          342   0000000000000.00 0000000.00   0000000.00                             000000000000000                                                                                                                                                     01418  000000000000 0000000000000.23     00050 00000                  
09481860492700001G2675906759000000328478001358000000330MCALLEN                  TX           5 D                00                                      NNNN                          000000000000                                                                   78639007                                                                                                                                                                                                                                                                                                                                                                                                                                               
09481870492700035DT67590675900000032847800135800000033080013576759003202900013200161072020230000000010720223000000000039274461046XXXXXX1437                         NY 2 0 N               N840000000000107      IL  07DNDAYDREAMS SMOKE WORLD LLC071722    DB84000000000107 N  599378639007                            000000000+                     09580                                Y          342   0000000000000.00 0000000.00   0000000.00                             000000000000000                                                                                                                                                     01418  000000000000 0000000000000.22     00050 00000                  
09481880492700001G2675906759000000328478001358000000330MCALLEN                  TX           5 D                00                                      NNNN                          000000000000                                                                   78639007                                                                                                                                                                                                                                                                                                                                                                                                                                               
09481890492700036DT67590675900000032847800135800000033080013576759003202900013200179072020230000000037720223000000000039274440393XXXXXX7485                         NY 2 0 N               N840000000000377      IL  05DNDAYDREAMS SMOKE WORLD LLC635014    DB84000000000377 N  599378639007                            000000000+                     09576                                N          346   0000000000000.00 0000000.00   0000000.00                             000000000000000                                                                                                                                                     01418  000000000000 0000000000000.19     01150 00000                  
09481900492700001G2675906759000000328478001358000000330MCALLEN                  TX           5 P                00                                      NNNN                          000000000000                                                                   78639007                                                                                                                                                                                                                                                                                                                                                                                                                                               
09481910492700037DT67590675900000032847800135800000033080013576759003202900013200195072120230000000016320223000000000039274489795XXXXXX9138                         NY 2 0 N               N840000000000163      IL  07DNDAYDREAMS SMOKE WORLD LLC392558    DB84000000000163 N  599378639007                            000000000+                     09580                                Y          342   0000000000000.00 0000000.00   0000000.00                             000000000000000                                                                                                                                                     01418  000000000000 0000000000000.22     00050 00000                  
09481920492700001G2675906759000000328478001358000000330MCALLEN                  TX           5 D                00                                      NNNN                          000000000000                                                                   78639007                                                                                                                                                                                                                                                                                                                                                                                                                                               
09481930492700038BH6759067590000003284780013580000090170721202320223000000000002140    0000090001600001N8001356759C07232023060                                                                                                                                                                                                                                                                                                                                                                                                                                                                                                                                                                                              
09481940492700039DT67590675900000032847800135800000010180013524001193202900016000019072020230000000214020223000000000002140443045XXXXXX9607       VS11    0001111   NYV1 A E463202146573802N840000000002140Q4V300    05DNDAYDREAMS SMOKE WORLD LLC297744    VD84000000002140 N  599378480415                            000000000+                F DF 10433                     000000000  Y000000000 338   0000000000000.00 0000000.00   0000000.00                             000000000000000                                                                                                                                                     01418 A000000000000 0000000000000.23     00050 02200                  
09481950492700001E167590675900000032847800135800000010100E0F8C800AC 00000000000.004040404040404040404040404040404040404040404040404006011203A0A000000000000000000000404040404040404040404040404040  00010840180080000080002307214E2EA9B57DC8D3C354284E5F404040400840A00000000310100000000000000000004C4855290082000000000000000000004040405E40404040 000000021.40 000000000.005E00000000000000000000    80                                                                                                                                                                                                                                                                                                                  
09481960492700002G2675906759000000328478001358000000101MCALLEN                  TX           5 D                00                                      NNNN00 N 00                   000000000000                                                                   78480415                                                                                                                                                                                                                                                                                                                                                                                                                                               
09481970492700040BH6759067590000002148580111380000090170721202320223000000000600000    0000090001065994N8011136759C07232023006                                                                                                                                                                                                                                                                                                                                                                                                                                                                                                                                                                                              
09481980492700041DT67590675900000021485801113800000010180111324001193202900010619111072120230000013500020223000000000600000412126XXXXXX2382               2111111   NYV4 A7W583201626371244N840000000135000WXFT00    01DNFED CONTRACTING CTR INC  001063    VS84000000135000 NDR739271004114   3394                     000000000+                A CA 12380                     000000000  N000000000 625   0000000000000.00 0000000.00   0000000.00                             000000000000000                                                                                                                                                     01418 G000000135000 0000000000022.38     01650 01000                  
09481990492700041DR6759067590000002148580111380000001013394                     Z000000135000                 P1                                                                                                                                                                                                                                                                                                                                                                                                                                                                                                                                                                                                            
09482000492700001P16759067590000002148580111380000001010000000000000000                             2000000000000000000000000              000000000000                    0000000000000000000000000                    000000000000                                                                                                                                                                                                                                                                                                                                                                                                                                                                                        
09482010492700002G2675906759000000214858011138000000101855-7005143              FL           9 C                00                                      NNNN   N                      000000000000                                                                   71004114                                                                                                                                                                                                                                                                                                                                                                                                                                               
09482020492700042DT67590675900000021485801113800000010180111324001193202900010695046072120230000005000020223000000000600000404551XXXXXX9363               2111111   NYV4 A7W303201579497963N840000000050000H5MF00    01DNFED CONTRACTING CTR INC  071932    VD84000000050000 NDR739271004114   3392                     000000000+                F DF 00415                     000000000  N000000000       0000000000000.00 0000000.00   0000000.00                             000000000000000                                                                                                                                                     01418 G000000050000 0000000000008.40     01650 01500                  
09482030492700042DR6759067590000002148580111380000001013392                     Y000000050000                 P1                                                                                                                                                                                                                                                                                                                                                                                                                                                                                                                                                                                                            
