08638490221040002BH6759067590000001982880010980000090170609202316023000000000180829    0000090001750089Y8001096759C06122023075                                                                                                                                                                                                                                                                                                                                                                                                                                                                                                                                                                                              
08638500221040003DT67590675900000019828800109800000010180010924001193160900017500280060820230000001206616023000000000180829415975XXXXXX5448               2111111   NYV4 A7W383160014011756N8400000000120663M9Z00    01DNKETOFUSION 8885968154    045358    VD84000000012066 NDR599977547467   7C56343618TAE50F2E909AF  000000000+                F DF 10420                     000000000  Y000000000 338   0000000000000.00 0000000.00   0000000.00                             000000000000000                                                                                                                                                     01424 G000000012066 0000000000000.28     00050 02200                  
08638510221040003DR6759067590000001982880010980000001017C56343618TAE50F2E909AF  Y000000012066                 P1                                                                                                                                                                                                                                                                                                                                                                                                                                                                                                                                                                                                            
08638520221040001P16759067590000001982880010980000001010000000000000000                             2000000000000000000000000              000000000000                    0000000000000000000000000                    000000000000                                                                                                                                                                                                                                                                                                                                                                                                                                                                                        
08638530221040002G2675906759000000198288001098000000101888-5968154              UT           9 D                00                                      NNNN   N                      000000000000                                                                   77547467                                                                                                                                                                                                                                                                                                                                                                                                                                               
08638540221040004DT67590675900000019828800109800000010180010924001193160900017500298060820230000000519016023000000000180829415975XXXXXX5448               2111111   NYV4 A7W383160014450129N8400000000051907DL800    01DNKETOFUSION 8885968154    023322    VD84000000005190 NDR599977547467   7C56343618T8ACB94511075  000000000+                F DF 10420                     000000000  Y000000000 338   0000000000000.00 0000000.00   0000000.00                             000000000000000                                                                                                                                                     01424 G000000005190 0000000000000.25     00050 02200                  
08638550221040004DR6759067590000001982880010980000001017C56343618T8ACB94511075  Y000000005190                 P1                                                                                                                                                                                                                                                                                                                                                                                                                                                                                                                                                                                                            
08638560221040001P16759067590000001982880010980000001010000000000000000                             2000000000000000000000000              000000000000                    0000000000000000000000000                    000000000000                                                                                                                                                                                                                                                                                                                                                                                                                                                                                        
08638570221040002G2675906759000000198288001098000000101888-5968154              UT           9 D                00                                      NNNN   N                      000000000000                                                                   77547467                                                                                                                                                                                                                                                                                                                                                                                                                                               
08638580221040005DT67590675900000019828800109800000010180010924001193160900017500306060820230000001987016023000000000180829410039XXXXXX3522               2111111   NYV4 A7W463160030667332N840000000019870DH6600    01DNKETOFUSION 8885968154    16949D    VS84000000019870 NDR599977547467   1DFDA29D8FT44A13E7A60F1  000000000+                D CD 12109                     000000000  N000000000 498   0000000000000.00 0000000.00   0000000.00                             000000000000000                                                                                                                                                     01424 G000000019870 0000000000005.07     02500 01000                  
08638590221040005DR6759067590000001982880010980000001011DFDA29D8FT44A13E7A60F1  Y000000019870                 P1                                                                                                                                                                                                                                                                                                                                                                                                                                                                                                                                                                                                            
08638600221040001P16759067590000001982880010980000001010000000000000000                             2000000000000000000000000              000000000000                    0000000000000000000000000                    000000000000                                                                                                                                                                                                                                                                                                                                                                                                                                                                                        
08638610221040002G2675906759000000198288001098000000101888-5968154              UT           9 C                00                                      NNNN   Y                      000000000000                                                                   77547467                                                                                                                                                                                                                                                                                                                                                                                                                                               
08638620221040006DT67590675900000019828800109800000010180010924001193160900017500330060820230000001578516023000000000180829448900XXXXXX4999               2111111   NYV4 A7W383160048074478N840000000015785LX4C00    01DNKETOFUSION 8885968154    008089    VS84000000015785 NDR599977547467   917261FE23T857B7B19FDE3  000000000+                B CB 12107                     000000000  N000000000 494   0000000000000.00 0000000.00   0000000.00                             000000000000000                                                                                                                                                     01424 G000000015785 0000000000003.32     02040 01000                  
08638630221040006DR675906759000000198288001098000000101917261FE23T857B7B19FDE3  Y000000015785                 P1                                                                                                                                                                                                                                                                                                                                                                                                                                                                                                                                                                                                            
08638640221040001P16759067590000001982880010980000001010000000000000000                             2000000000000000000000000              000000000000                    0000000000000000000000000                    000000000000                                                                                                                                                                                                                                                                                                                                                                                                                                                                                        
08638650221040002G2675906759000000198288001098000000101888-5968154              UT           9 C                00                                      NNNN   Y                      000000000000                                                                   77547467                                                                                                                                                                                                                                                                                                                                                                                                                                               
08638660221040007DT67590675900000019828800109800000010180010924001193160900017500355060820230000002487016023000000000180829401119XXXXXX2734               2111111   NYV4 A7W303160054965488N840000000024870LDZ800    01DNKETOFUSION 8885968154    083137    VD84000000024870 NDR599977547467   C5E7A3EE95TA58EA8BFAD67  000000000+                F DF 00415                     000000000  N000000000       0000000000000.00 0000000.00   0000000.00                             000000000000000                                                                                                                                                     01424 G000000024870 0000000000004.25     01650 01500                  
08638670221040007DR675906759000000198288001098000000101C5E7A3EE95TA58EA8BFAD67  Y000000024870                 P1                                                                                                                                                                                                                                                                                                                                                                                                                                                                                                                                                                                                            
08638680221040001P16759067590000001982880010980000001010000000000000000                             2000000000000000000000000              000000000000                    0000000000000000000000000                    000000000000                                                                                                                                                                                                                                                                                                                                                                                                                                                                                        
08638690221040002G2675906759000000198288001098000000101888-5968154              UT           9 D                00                                      NNNN   N                      000000000000                                                                   77547467                                                                                                                                                                                                                                                                                                                                                                                                                                               
08638700221040008DT67590675900000019828800109800000010180010924001193160900017500363060820230000000198816023000000000180829410039XXXXXX1581               2111111   NYV4 A7W303160065984288N8400000000019886ZF800    01DNKETOFUSION 8885968154    25557D    VS84000000001988 NDR599977547467   EB77739A87T88557398310A  000000000+                D CD 12109                     000000000  N000000000 498   0000000000000.00 0000000.00   0000000.00                             000000000000000                                                                                                                                                     01424 G000000001988 0000000000000.60     02500 01000                  
08638710221040008DR675906759000000198288001098000000101EB77739A87T88557398310A  Y000000001988                 P1                                                                                                                                                                                                                                                                                                                                                                                                                                                                                                                                                                                                            
08638720221040001P16759067590000001982880010980000001010000000000000000                             2000000000000000000000000              000000000000                    0000000000000000000000000                    000000000000                                                                                                                                                                                                                                                                                                                                                                                                                                                                                        
08638730221040002G2675906759000000198288001098000000101888-5968154              UT           9 C                00                                      NNNN   Y                      000000000000                                                                   77547467                                                                                                                                                                                                                                                                                                                                                                                                                                               
08638740221040009DT67590675900000019828800109800000010180010987287283160900017500422060920230000001987016023000000000180829558158XXXXXX6962                         NY 4607AMDB0SGN5I0609  N840000000019870          81DNKETOFUSION 8885968154    2ANZX8    MD84000000019870 NDR599977547467   A4CC086122TEC091A37BDFB  000000000+600450S00130    MDB  00062                     000000000  N                0000000000000.00 0000000.00   0000000.00                             000000000000000                                                                                                                                                   U001424  000000000000 0000000000005.37     02650 01000                  
08638750221040009DR675906759000000198288001098000000101A4CC086122TEC091A37BDFB  Y000000000000                 P1                                                                                                                                                                                                                                                                                                                                                                                                                                                                                                                                                                                                            
08638760221040001P1675906759000000198288001098000000101                                                          000000000000          8000            884295529                                                                                                                                                                                                                                                                                                                                                                                                                                                                                                                                                            
08638770221040002G2675906759000000198288001098000000101888-5968154              UT           9 B               210                  884295529           YNNN           210000000000000000000000000                        7                                          77547467                                                                                                                                                                                                                                                                                                                                                                                                                                               
08638780221040010DT67590675900000019828800109800000010180010987287283160900017500430060920230000000198816023000000000180829519843XXXXXX3686       ME03KE06MS02      NY 4607AMDJWSFGBN0609  N840000000001988          81DNKETOFUSION 8885968154    257193    MD84000000001988 NDR599977547467   2D7748E64AT9C9FC523E42B  000000000+600450S00130    MDJ  00401                     000000000  N                0000000000000.00 0000000.00   0000000.00                             000000000000000                                                                                                                                                   U001424  000000000000 0000000000000.48     01650 01500                  
08638790221040010DR6759067590000001982880010980000001012D7748E64AT9C9FC523E42B  Y000000000000                                                                                                                                                                                                                                                                                                                                                                                                                                                                                                                                                                                                                               
08638800221040001G2675906759000000198288001098000000101888-5968154              UT           9 J               210                                      NNNN           210000000000000000000000000                        7                                          77547467                                                                                                                                                                                                                                                                                                                                                                                                                                               
08638810221040011DT67590675900000019828800109800000010680010974001193160900017500467060920230000000993516023000000000180829485127XXXXXX7006               0000000   NYV4 07T463160497443498N840000000009935W33S00    01CNKETOFUSION 8885968154    009060    VS84000000009935 NDR599977547467   E01851F7C6T3F54517DD0DA  000000000+                A CA 00245                     000000000  N000000000 166   0000000000000.00 0000000.00   0000000.00                             000000000000000                                                                                                                                                     01424  000000009935-0000000000001.75     01760 00000                  
08638820221040011DR675906759000000198288001098000000106E01851F7C6T3F54517DD0DA  U000000009935                 P1                                                                                                                                                                                                                                                                                                                                                                                                                                                                                                                                                                                                            
08638830221040001P16759067590000001982880010980000001060000000000000000                             2000000000000000000000000              000000000000                    0000000000000000000000000                    000000000000                                                                                                                                                                                                                                                                                                                                                                                                                                                                                        
08638840221040002G2675906759000000198288001098000000106888-5968154              UT           9 C                00                                      NNNN   Y                      000000000000                                                                   77547467                                                                                                                                                                                                                                                                                                                                                                                                                                               
08638850221040012DT67590675900000019828800109800000010680010974001193160900017500475060920230000000259516023000000000180829485127XXXXXX7006               0000000   NYV4 07T583160497919426N840000000002595P2ZP00    01CNKETOFUSION 8885968154    009008    VS84000000002595 NDR599977547467   E01851F7C6T4B2E5732AC27  000000000+                A CA 00245                     000000000  N000000000 166   0000000000000.00 0000000.00   0000000.00                             000000000000000                                                                                                                                                     01424  000000002595-0000000000000.46     01760 00000                  
08638860221040012DR675906759000000198288001098000000106E01851F7C6T4B2E5732AC27  U000000002595                 P1                                                                                                                                                                                                                                                                                                                                                                                                                                                                                                                                                                                                            
08638870221040001P16759067590000001982880010980000001060000000000000000                             2000000000000000000000000              000000000000                    0000000000000000000000000                    000000000000                                                                                                                                                                                                                                                                                                                                                                                                                                                                                        
08638880221040002G2675906759000000198288001098000000106888-5968154              UT           9 C                00                                      NNNN   Y                      000000000000                                                                   77547467                                                                                                                                                                                                                                                                                                                                                                                                                                               
08638890221040013DT67590675900000019828800109800000010680010974001193160900017500483060920230000000327416023000000000180829485127XXXXXX7006               0000000   NYV4 07T583160497976638N8400000000032743N4600    01CNKETOFUSION 8885968154    009619    VS84000000003274 NDR599977547467   E01851F7C6T24BCD3F4020F  000000000+                A CA 00245                     000000000  N000000000 166   0000000000000.00 0000000.00   0000000.00                             000000000000000                                                                                                                                                     01424  000000003274-0000000000000.58     01760 00000                  
08638900221040013DR675906759000000198288001098000000106E01851F7C6T24BCD3F4020F  U000000003274                 P1                                                                                                                                                                                                                                                                                                                                                                                                                                                                                                                                                                                                            
08638910221040001P16759067590000001982880010980000001060000000000000000                             2000000000000000000000000              000000000000                    0000000000000000000000000                    000000000000                                                                                                                                                                                                                                                                                                                                                                                                                                                                                        
08638920221040002G2675906759000000198288001098000000106888-5968154              UT           9 C                00                                      NNNN   Y                      000000000000                                                                   77547467                                                                                                                                                                                                                                                                                                                                                                                                                                               
08638930221040014DT67590675900000019828800109800000010680010974001193160900017500491060920230000001499016023000000000180829410039XXXXXX2829               0000000   NYV4 07T463160498786894N84000000001499084FS00    01CNKETOFUSION 8885968154    88286C    VS84000000014990 NDR599977547467   5D9E1609CFT29F304D5D0BB  000000000+                C CC 00245                     000000000  N000000000 166   0000000000000.00 0000000.00   0000000.00                             000000000000000                                                                                                                                                     01424  000000014990-0000000000002.64     01760 00000                  
08638940221040014DR6759067590000001982880010980000001065D9E1609CFT29F304D5D0BB  U000000014990                 P1                                                                                                                                                                                                                                                                                                                                                                                                                                                                                                                                                                                                            
08638950221040001P16759067590000001982880010980000001060000000000000000                             2000000000000000000000000              000000000000                    0000000000000000000000000                    000000000000                                                                                                                                                                                                                                                                                                                                                                                                                                                                                        
08638960221040002G2675906759000000198288001098000000106888-5968154              UT           9 C                00                                      NNNN   Y                      000000000000                                                                   77547467                                                                                                                                                                                                                                                                                                                                                                                                                                               
08638970221040015DT67590675900000019828800109800000010180010987287283160900017500505060920230000000654816023000000000180829524366XXXXXX5715       ME03KE06MS02      NY 4607AMPLSQGE9T0609  N840000000006548          81DNKETOFUSION 8885968154    00997B    MC84000000006548 NDR599977547467   562B3EF838T77EEF475D067  000000000+600450S00130    MPL  00580                     000000000  N                0000000000000.00 0000000.00   0000000.00                             000000000000000                                                                                                                                                   U001424  000000000000 0000000000001.48     02100 01000                  
08638980221040015DR675906759000000198288001098000000101562B3EF838T77EEF475D067  Y000000000000                                                                                                                                                                                                                                                                                                                                                                                                                                                                                                                                                                                                                               
08638990221040001G2675906759000000198288001098000000101888-5968154              UT           9 L               210                                      NNNN           210000000000000000000000000                        7                                          77547467                                                                                                                                                                                                                                                                                                                                                                                                                                               
08639000221040016DT67590675900000019828800109800000010180010987287283160900017500513060920230000000519016023000000000180829524366XXXXXX5715       ME03KE06MS02      NY 4607AMPLAI41BO0609  N840000000005190          81DNKETOFUSION 8885968154    00942B    MC84000000005190 NDR599977547467   562B3EF838TF35D82C4730A  000000000+600450S00130    MPL  00580                     000000000  N                0000000000000.00 0000000.00   0000000.00                             000000000000000                                                                                                                                                   U001424  000000000000 0000000000001.19     02100 01000                  
08639010221040016DR675906759000000198288001098000000101562B3EF838TF35D82C4730A  Y000000000000                                                                                                                                                                                                                                                                                                                                                                                                                                                                                                                                                                                                                               
08639020221040001G2675906759000000198288001098000000101888-5968154              UT           9 L               210                                      NNNN           210000000000000000000000000                        7                                          77547467                                                                                                                                                                                                                                                                                                                                                                                                                                               
08639030221040017DT67590675900000019828800109800000010180010987287283160900017500521060920230000000654816023000000000180829542418XXXXXX5937       ME03KE06MS02      NY 4607AMPLN2KRBS0609  N840000000006548          81DNKETOFUSION 8885968154    28649B    MC84000000006548 NDR599977547467   1959DD8340T21364E437D7F  000000000+600450S00130    MPL  00580                     000000000  N                0000000000000.00 0000000.00   0000000.00                             000000000000000                                                                                                                                                   U001424  000000000000 0000000000001.48     02100 01000                  
08639040221040017DR6759067590000001982880010980000001011959DD8340T21364E437D7F  Y000000000000                                                                                                                                                                                                                                                                                                                                                                                                                                                                                                                                                                                                                               
08639050221040001G2675906759000000198288001098000000101888-5968154              UT           9 L               210                                      NNNN           210000000000000000000000000                        7                                          77547467                                                                                                                                                                                                                                                                                                                                                                                                                                               
08639060221040018DT67590675900000019828800109800000010180010987287283160900017500539060920230000000519016023000000000180829542418XXXXXX5937       ME03KE06MS02      NY 4607AMPLSW7JBO0609  N840000000005190          81DNKETOFUSION 8885968154    67764B    MC84000000005190 NDR599977547467   1959DD8340T824198B96C3E  000000000+600450S00130    MPL  00580                     000000000  N                0000000000000.00 0000000.00   0000000.00                             000000000000000                                                                                                                                                   U001424  000000000000 0000000000001.19     02100 01000                  
08639070221040018DR6759067590000001982880010980000001011959DD8340T824198B96C3E  Y000000000000                                                                                                                                                                                                                                                                                                                                                                                                                                                                                                                                                                                                                               
08639080221040001G2675906759000000198288001098000000101888-5968154              UT           9 L               210                                      NNNN           210000000000000000000000000                        7                                          77547467                                                                                                                                                                                                                                                                                                                                                                                                                                               
08639090221040019DT67590675900000019828800109800000010680010974001193160900017500566060920230000001157216023000000000180829410039XXXXXX3522               0000000   NYV4 07T383160547250170N840000000011572BVNT00    01CNKETOFUSION 8885968154    91755D    VS84000000011572 NDR599977547467   1DFDA29D8FT44A13E7A60F1  000000000+                D CD 00245                     000000000  N000000000 166   0000000000000.00 0000000.00   0000000.00                             000000000000000                                                                                                                                                     01424  000000011572-0000000000002.04     01760 00000                  
08639100221040019DR6759067590000001982880010980000001061DFDA29D8FT44A13E7A60F1  U000000011572                 P1                                                                                                                                                                                                                                                                                                                                                                                                                                                                                                                                                                                                            
08639110221040001P16759067590000001982880010980000001060000000000000000                             2000000000000000000000000              000000000000                    0000000000000000000000000                    000000000000                                                                                                                                                                                                                                                                                                                                                                                                                                                                                        
08639120221040002G2675906759000000198288001098000000106888-5968154              UT           9 C                00                                      NNNN   Y                      000000000000                                                                   77547467                                                                                                                                                                                                                                                                                                                                                                                                                                               
08639130221040020DT67590675900000019828800109800000010180010987287283160900017500570060920230000001194816023000000000180829546680XXXXXX6027       ME03KE06MS02      NY 4607AMPLBUCE9U0609  N840000000011948          81DNKETOFUSION 8885968154    00956B    MC84000000011948 NDR599977547467   9904290315T3272459FBC10  000000000+600450S00130    MPL  00580                     000000000  N                0000000000000.00 0000000.00   0000000.00                             000000000000000                                                                                                                                                   U001424  000000000000 0000000000002.61     02100 01000                  
08639140221040020DR6759067590000001982880010980000001019904290315T3272459FBC10  Y000000000000                                                                                                                                                                                                                                                                                                                                                                                                                                                                                                                                                                                                                               
08639150221040001G2675906759000000198288001098000000101888-5968154              UT           9 L               210                                      NNNN           210000000000000000000000000                        7                                          77547467                                                                                                                                                                                                                                                                                                                                                                                                                                               
08639160221040021DT67590675900000019828800109800000010180010987287283160900017500596060920230000001194816023000000000180829536863XXXXXX9339       ME03KE06MS02      NY 4607AMDJCCP69U0609  N840000000011948          81DNKETOFUSION 8885968154    327218    MD84000000011948 NDR599977547467   73DD92E19ATD3896C9F8281  000000000+600450S00130    MDJ  00401                     000000000  N                0000000000000.00 0000000.00   0000000.00                             000000000000000                                                                                                                                                   U001424  000000000000 0000000000002.12     01650 01500                  
08639170221040021DR67590675900000019828800109800000010173DD92E19ATD3896C9F8281  Y000000000000                                                                                                                                                                                                                                                                                                                                                                                                                                                                                                                                                                                                                               
08639180221040001G2675906759000000198288001098000000101888-5968154              UT           9 J               210                                      NNNN           210000000000000000000000000                                                                   77547467                                                                                                                                                                                                                                                                                                                                                                                                                                               
08639190221040022DT67590675900000019828800109800000010180010987287283160900017500604060920230000000519016023000000000180829516439XXXXXX7269       ME03KE06MS02      NY 4607AMDJI8EJGF0609  N840000000005190          81DNKETOFUSION 8885968154    742626    MD84000000005190 NDR599977547467   8A2E8F02FBT2EC1CD29656A  000000000+600450S00130    MDJ  00401                     000000000  N                0000000000000.00 0000000.00   0000000.00                             000000000000000                                                                                                                                                   U001424  000000000000 0000000000001.01     01650 01500                  
08639200221040022DR6759067590000001982880010980000001018A2E8F02FBT2EC1CD29656A  Y000000000000                                                                                                                                                                                                                                                                                                                                                                                                                                                                                                                                                                                                                               
08639210221040001G2675906759000000198288001098000000101888-5968154              UT           9 J               210                                      NNNN           210000000000000000000000000                        7                                          77547467                                                                                                                                                                                                                                                                                                                                                                                                                                               
08639220221040023DT67590675900000019828800109800000010180010987287283160900017500612060920230000001987016023000000000180829540168XXXXXX3562       ME03KE06MS02      NY 4607AMCCCFHHPX0609  N840000000019870          81DNKETOFUSION 8885968154    07631B    MC84000000019870 NDR599977547467   5B87D4FCBCTA5FF24572F30  000000000+600450S00130    MCC  00580                     000000000  N                0000000000000.00 0000000.00   0000000.00                             000000000000000                                                                                                                                                   U001424  000000000000 0000000000004.27     02100 01000                  
08639230221040023DR6759067590000001982880010980000001015B87D4FCBCTA5FF24572F30  Y000000000000                                                                                                                                                                                                                                                                                                                                                                                                                                                                                                                                                                                                                               
08639240221040001G2675906759000000198288001098000000101888-5968154              UT           9 C               210                                      NNNN           210000000000000000000000000                        7                                          77547467                                                                                                                                                                                                                                                                                                                                                                                                                                               
08639250221040024DT67590675900000019828800109800000010180010976509753160900017500791060920230000001987016023000000000180829601101XXXXXX1696   BA00                  NY 4 07N753137954920242N840000000019870    00    01DNKETOFUSION 8885968154    00946P    DS84000000019870 NDR599977547467070                         000000000+1015104910600   DCPDI11327831317  150452000000 000000000  0          462   0000000000000.00 0000000.00   0000000.00                             000000000000000                                                                                                                                                     01424  000000000000 0000000000004.17     02050 01000                  
08639260221040024DR675906759000000198288001098000000101                         Y                                                                                                                                                                                                                                                                                                                                                                                                                                                                                                                                                                                                                                           
08639270221040001G2675906759000000198288001098000000101888-5968154              UT           9 P                00                                      NNNN                          000000000000                         00000650975601179750000394                77547467                                                                                                                                                                                                                                                                                                                                                                                                                                               
08639280221040025DT67590675900000019828800109800000010180010976509753160900017500866060920230000002255016023000000000180829601101XXXXXX5798   BA00                  NY 4 07N873138036361416N840000000022550    00    01DNKETOFUSION 8885968154    00995P    DS84000000022550 NDR599977547467070                         000000000+1015104910600   DCPDI11327665107  172036000000 000000000  0          462   0000000000000.00 0000000.00   0000000.00                             000000000000000                                                                                                                                                     01424  000000000000 0000000000004.72     02050 01000                  
08639290221040025DR675906759000000198288001098000000101                         Y                                                                                                                                                                                                                                                                                                                                                                                                                                                                                                                                                                                                                                           
08639300221040001G2675906759000000198288001098000000101888-5968154              UT           9 P                00                                      NNNN                          000000000000                         00000650975601179750000394                77547467                                                                                                                                                                                                                                                                                                                                                                                                                                               
08639310221040026DT67590675900000019828800109800000010680010976509753160900017500874060920230000001127516023000000000180829601101XXXXXX5798   BA00                  NY 4 07N743138042436946N840000000011275    00    01CNKETOFUSION 8885968154    00989P    DS84000000011275 NDR599977547467070                         000000000+1015104910600   DCPDI01128499778  173043200000 000000000  0          156   0000000000000.00 0000000.00   0000000.00                             000000000000000                                                                                                                                                     01424  000000000000-0000000000001.97     01750 00000                  
08639320221040026DR675906759000000198288001098000000106                         R                                                                                                                                                                                                                                                                                                                                                                                                                                                                                                                                                                                                                                           
08639330221040001G2675906759000000198288001098000000106888-5968154              UT           9 P                00                                      NNNN                          000000000000                         00000650975601179750000394                77547467                                                                                                                                                                                                                                                                                                                                                                                                                                               
08639340221040027DT67590675900000019828800109800000010180010924001193160900017500892060920230000001799116023000000000180829467411XXXXXX4007               2111111   NYV4 A7W303160829611224N840000000017991PWJ800    01DNKETOFUSION 8885968154    628571    VD84000000017991 NDR599977547467   89543F1C4BT691AC240E4D4  000000000+                F DF 00415                     000000000  N000000000       0000000000000.00 0000000.00   0000000.00                             000000000000000                                                                                                                                                     01424 G000000017991 0000000000003.12     01650 01500                  
08639350221040027DR67590675900000019828800109800000010189543F1C4BT691AC240E4D4  Y000000017991                 P1                                                                                                                                                                                                                                                                                                                                                                                                                                                                                                                                                                                                            
08639360221040001P16759067590000001982880010980000001010000000000000000                             2000000000000000000000000              000000000000                    0000000000000000000000000                    000000000000                                                                                                                                                                                                                                                                                                                                                                                                                                                                                        
08639370221040002G2675906759000000198288001098000000101888-5968154              UT           9 D                00                                      NNNN   N                      000000000000                                                                   77547467                                                                                                                                                                                                                                                                                                                                                                                                                                               
08639380221040028BH6759067590000001427480010280000090170609202316023000000000396380    0000090001145208Y8001026759C06122023114                                                                                                                                                                                                                                                                                                                                                                                                                                                                                                                                                                                              
08639390221040029DT67590675900000014274800102800000010180010287287283160900011441391060820230000001799116023000000000396380533080XXXXXX1305       ME03KE06MS02      NY 4607AMDJ1ZSTGP0605  N840000000017991          81DNCBD8666317293            297067    MD84000000017991 NDR549977145232   19228BF71DT798BCA9E17AF  000000000+600450S00130    MDJ  00401                     000000000  N                0000000000000.00 0000000.00   0000000.00                             000000000000000                                                                                                                                                   U001424  000000000000 0000000000003.12     01650 01500                  
08639400221040029DR67590675900000014274800102800000010119228BF71DT798BCA9E17AF  Z000000000000                                                                                                                                                                                                                                                                                                                                                                                                                                                                                                                                                                                                                               
08639410221040001G2675906759000000142748001028000000101866-6317293              GA           9 J               210                                      NNNN           210000000000000000000000000                                                                   77145232                                                                                                                                                                                                                                                                                                                                                                                                                                               
08639420221040030DT67590675900000014274800102800000010180010287287283160900011441490060820230000002146016023000000000396380510592XXXXXX2360       ME03KE06MS02      NY 4607AMDJKTUBY40605  N840000000021460          81DNCBD8666317293            500488    MD84000000021460 NDR549977145232   473AC4E3B5TB9F4DAA825D7  000000000+600450S00130    MDJ  00401                     000000000  N                0000000000000.00 0000000.00   0000000.00                             000000000000000                                                                                                                                                   U001424  000000000000 0000000000003.69     01650 01500                  
08639430221040030DR675906759000000142748001028000000101473AC4E3B5TB9F4DAA825D7  Y000000000000                                                                                                                                                                                                                                                                                                                                                                                                                                                                                                                                                                                                                               
08639440221040001G2675906759000000142748001028000000101866-6317293              GA           9 J               210                                      NNNN           210000000000000000000000000                        7                                          77145232                                                                                                                                                                                                                                                                                                                                                                                                                                               
08639450221040031DT67590675900000014274800102800000010180010287287283160900011441813060820230000001284916023000000000396380518941XXXXXX6711       ME03KE06MS02      NY 4607AMWERQZ7B80605  N840000000012849          81DNCBD8666317293            01578Z    MC84000000012849 NDR549977145232   06690F0BDET5DC8C2B61F9A  000000000+600450S00130    MWE  00737                     000000000  N                0000000000000.00 0000000.00   0000000.00                             000000000000000                                                                                                                                                   U001424  000000000000 0000000000003.44     02600 01000                  
08639460221040031DR67590675900000014274800102800000010106690F0BDET5DC8C2B61F9A  Y000000000000                                                                                                                                                                                                                                                                                                                                                                                                                                                                                                                                                                                                                               
08639470221040001G2675906759000000142748001028000000101866-6317293              GA           9 E               210                                      NNNN           210000000000000000000000000                        7                                          77145232                                                                                                                                                                                                                                                                                                                                                                                                                                               
08639480221040032DT67590675900000014274800102800000010180010224001193160900011441978060820230000000642416023000000000396380444796XXXXXX9947               2111111   NYV4 A7W463156705047141N840000000006424SZ4K00    01DNCBD8666317293            005871    VS84000000006424 NDR549977145232   C77960F3F1TD1853E64A2BF  000000000+                A CA 12106                     000000000  N000000000 492   0000000000000.00 0000000.00   0000000.00                             000000000000000                                                                                                                                                     01424 G000000006424 0000000000001.31     01890 01000                  
08639490221040032DR675906759000000142748001028000000101C77960F3F1TD1853E64A2BF  Y000000006424                 P1                                                                                                                                                                                                                                                                                                                                                                                                                                                                                                                                                                                                            
08639500221040001P16759067590000001427480010280000001010000000000000000                             2000000000000000000000000              000000000000                    0000000000000000000000000                    000000000000                                                                                                                                                                                                                                                                                                                                                                                                                                                                                        
08639510221040002G2675906759000000142748001028000000101866-6317293              GA           9 C                00                                      NNNN   N                      000000000000                                                                   77145232                                                                                                                                                                                                                                                                                                                                                                                                                                               
08639520221040033DT67590675900000014274800102800000010180010287287283160900011442407060820230000001987016023000000000396380526929XXXXXX1586       ME03KE06MS02      NY 4607AMDJJYDBNF0605  N840000000019870          81DNCBD8666317293            409864    MD84000000019870 NDR549977145232   0AE9274993T765D6CA4AF49  000000000+600450S00130    MDJ  10813                     000000000  1                0000000000000.00 0000000.00   0000000.00                             000000000000000                                                                                                                                                   U001424  000000000000 0000000000000.32     00050 02200                  
08639530221040033DR6759067590000001427480010280000001010AE9274993T765D6CA4AF49  Y000000000000                                                                                                                                                                                                                                                                                                                                                                                                                                                                                                                                                                                                                               
08639540221040001G2675906759000000142748001028000000101866-6317293              GA           9 J               210                                      NNNN           210000000000000000000000000                        7                                          77145232                                                                                                                                                                                                                                                                                                                                                                                                                                               
08639550221040034DT67590675900000014274800102800000010180010287287283160900011448461060820230000000499916023000000000396380521333XXXXXX3343       ME03KE06PT01      NY 4607AMCWCK4H9G0608  N840000000004999          81DNCBD8666317293            00810P    MC84000000004999 NDR549977145232   5421599DFATE3B794862C4B  000000000+600450S00130    MCW  00642                     000000000  N                0000000000000.00 0000000.00   0000000.00                             000000000000000                                                                                                                                                   U001424  000000000000 0000000000001.20     02200 01000                  
08639560221040034DR6759067590000001427480010280000001015421599DFATE3B794862C4B  Y000000000000                                                                                                                                                                                                                                                                                                                                                                                                                                                                                                                                                                                                                               
08639570221040001G2675906759000000142748001028000000101866-6317293              GA           9 W               210                                      NNNN           210000000000000000000000000                        7                                          77145232                                                                                                                                                                                                                                                                                                                                                                                                                                               
08639580221040035DT67590675900000014274800102800000010180010287287283160900011448479060820230000000319916023000000000396380521333XXXXXX3343       ME03KE06PT01      NY 4607AMCWPKPGZU0608  N840000000003199          81DNCBD8666317293            00810P    MC84000000003199 NDR549977145232   5421599DFAT480C00B3B4AC  000000000+600450S00130    MCW  00642                     000000000  N                0000000000000.00 0000000.00   0000000.00                             000000000000000                                                                                                                                                   U001424  000000000000 0000000000000.80     02200 01000                  
08639590221040035DR6759067590000001427480010280000001015421599DFAT480C00B3B4AC  Y000000000000                                                                                                                                                                                                                                                                                                                                                                                                                                                                                                                                                                                                                               
08639600221040001G2675906759000000142748001028000000101866-6317293              GA           9 W               210                                      NNNN           210000000000000000000000000                        7                                          77145232                                                                                                                                                                                                                                                                                                                                                                                                                                               
08639610221040036DT67590675900000014274800102800000010180010287287283160900011448487060820230000000129516023000000000396380521333XXXXXX3343       ME03KE06PT01      NY 4607AMCWLYN1010608  N840000000001295          81DNCBD8666317293            00822P    MC84000000001295 NDR549977145232   5421599DFAT193578E7812F  000000000+600450S00130    MCW  00642                     000000000  N                0000000000000.00 0000000.00   0000000.00                             000000000000000                                                                                                                                                   U001424  000000000000 0000000000000.38     02200 01000                  
08639620221040036DR6759067590000001427480010280000001015421599DFAT193578E7812F  Y000000000000                                                                                                                                                                                                                                                                                                                                                                                                                                                                                                                                                                                                                               
08639630221040001G2675906759000000142748001028000000101866-6317293              GA           9 W               210                                      NNNN           210000000000000000000000000                        7                                          77145232                                                                                                                                                                                                                                                                                                                                                                                                                                               
08639640221040037DT67590675900000014274800102800000010180010224001193160900011448502060820230000001499116023000000000396380414720XXXXXX4701               2111111   NYV4 A7W303160037496369N8400000000149912X9T00    01DNCBD8666317293            06894D    VS84000000014991 NDR549977145232   5E9B42C902TD1834F0A4FD0  000000000+                D CD 12109                     000000000  N000000000 498   0000000000000.00 0000000.00   0000000.00                             000000000000000                                                                                                                                                     01424 G000000014991 0000000000003.85     02500 01000                  
08639650221040037DR6759067590000001427480010280000001015E9B42C902TD1834F0A4FD0  Y000000014991                 P1                                                                                                                                                                                                                                                                                                                                                                                                                                                                                                                                                                                                            
08639660221040001P16759067590000001427480010280000001010000000000000000                             2000000000000000000000000              000000000000                    0000000000000000000000000                    000000000000                                                                                                                                                                                                                                                                                                                                                                                                                                                                                        
08639670221040002G2675906759000000142748001028000000101866-6317293              GA           9 C                00                                      NNNN   Y                      000000000000                                                                   77145232                                                                                                                                                                                                                                                                                                                                                                                                                                               
08639680221040038DT67590675900000014274800102800000010180010224001193160900011448577060820230000000529916023000000000396380473702XXXXXX0961               2111111   NYV4 A7W583160083434246N840000000005299GNLR00    01DNCBD8666317293            005051    VD84000000005299 NDR549977145232   4B987AF73CT4AFE77025B8F  000000000+                F DF 10420                     000000000  Y000000000 338   0000000000000.00 0000000.00   0000000.00                             000000000000000                                                                                                                                                     01424 G000000005299 0000000000000.25     00050 02200                  
08639690221040038DR6759067590000001427480010280000001014B987AF73CT4AFE77025B8F  Y000000005299                 P1                                                                                                                                                                                                                                                                                                                                                                                                                                                                                                                                                                                                            
08639700221040001P16759067590000001427480010280000001010000000000000000                             2000000000000000000000000              000000000000                    0000000000000000000000000                    000000000000                                                                                                                                                                                                                                                                                                                                                                                                                                                                                        
08639710221040002G2675906759000000142748001028000000101866-6317293              GA           9 D                00                                      NNNN   N                      000000000000                                                                   77145232                                                                                                                                                                                                                                                                                                                                                                                                                                               
08639720221040039DT67590675900000014274800102800000010180010224001193160900011448585060820230000000339116023000000000396380473702XXXXXX0961               2111111   NYV4 A7W463160083534438N840000000003391ZQ7W00    01DNCBD8666317293            049298    VD84000000003391 NDR549977145232   4B987AF73CTA6894B57D6C1  000000000+                F DF 10420                     000000000  Y000000000 338   0000000000000.00 0000000.00   0000000.00                             000000000000000                                                                                                                                                     01424 G000000003391 0000000000000.24     00050 02200                  
08639730221040039DR6759067590000001427480010280000001014B987AF73CTA6894B57D6C1  Y000000003391                 P1                                                                                                                                                                                                                                                                                                                                                                                                                                                                                                                                                                                                            
08639740221040001P16759067590000001427480010280000001010000000000000000                             2000000000000000000000000              000000000000                    0000000000000000000000000                    000000000000                                                                                                                                                                                                                                                                                                                                                                                                                                                                                        
08639750221040002G2675906759000000142748001028000000101866-6317293              GA           9 D                00                                      NNNN   N                      000000000000                                                                   77145232                                                                                                                                                                                                                                                                                                                                                                                                                                               
08639760221040040DT67590675900000014274800102800000010180010224001193160900011448601060820230000000158516023000000000396380473702XXXXXX0961               2111111   NYV4 A7W463160083844817N840000000001585T3XN00    01DNCBD8666317293            048013    VD84000000001585 NDR549977145232   4B987AF73CTF8121001F66C  000000000+                F DF 10420                     000000000  Y000000000 338   0000000000000.00 0000000.00   0000000.00                             000000000000000                                                                                                                                                     01424 G000000001585 0000000000000.23     00050 02200                  
08639770221040040DR6759067590000001427480010280000001014B987AF73CTF8121001F66C  Y000000001585                 P1                                                                                                                                                                                                                                                                                                                                                                                                                                                                                                                                                                                                            
08639780221040001P16759067590000001427480010280000001010000000000000000                             2000000000000000000000000              000000000000                    0000000000000000000000000                    000000000000                                                                                                                                                                                                                                                                                                                                                                                                                                                                                        
08639790221040002G2675906759000000142748001028000000101866-6317293              GA           9 D                00                                      NNNN   N                      000000000000                                                                   77145232                                                                                                                                                                                                                                                                                                                                                                                                                                               
08639800221040041DT67590675900000014274800102800000010180010287287283160900011448610060820230000000019916023000000000396380524897XXXXXX4619                         NY 4607AMCPY2PZZU0608  N840000000000199          81DNCBD8666317293            4X5PR4    MB84000000000199 NDR549977145232   6BD38A1AECTFD8DB278F9BD  000000000+600450S00130    MCP  00303                     000000000  N                0000000000000.00 0000000.00   0000000.00                             000000000000000                                                                                                                                                   U001424  000000000000 0000000000000.15     02700 01000                  
08639810221040041DR6759067590000001427480010280000001016BD38A1AECTFD8DB278F9BD  Y000000000000                 P1                                                                                                                                                                                                                                                                                                                                                                                                                                                                                                                                                                                                            
08639820221040001P1675906759000000142748001028000000101                                                          000000000000          8000            871584967                                                                                                                                                                                                                                                                                                                                                                                                                                                                                                                                                            
08639830221040002G2675906759000000142748001028000000101866-6317293              GA           9 P               210                  871584967           YNNN           210000000000000000000000000                                                                   77145232                                                                                                                                                                                                                                                                                                                                                                                                                                               
08639840221040042DT67590675900000014274800102800000010180010224001193160900011448627060920230000000019916023000000000396380412076XXXXXX5059               2111111   NYV4 A7W463160192071199N840000000000199XB9X00    01DNCBD8666317293            722796    VS84000000000199 NDR549977145232   1532C2EE49T8922F2CFADEB  000000000+                A CA 12106                     000000000  N000000000 492   0000000000000.00 0000000.00   0000000.00                             000000000000000                                                                                                                                                     01424 G000000000199 0000000000000.14     01890 01000                  
08639850221040042DR6759067590000001427480010280000001011532C2EE49T8922F2CFADEB  Y000000000199                 P1                                                                                                                                                                                                                                                                                                                                                                                                                                                                                                                                                                                                            
08639860221040001P16759067590000001427480010280000001010000000000000000                             2000000000000000000000000              000000000000                    0000000000000000000000000                    000000000000                                                                                                                                                                                                                                                                                                                                                                                                                                                                                        
08639870221040002G2675906759000000142748001028000000101866-6317293              GA           9 C                00                                      NNNN   N                      000000000000                                                                   77145232                                                                                                                                                                                                                                                                                                                                                                                                                                               
08639880221040043DT67590675900000014274800102800000010180010224001193160900011448635060920230000000019916023000000000396380412076XXXXXX3840               2111111   NYV4 A7W463160241247188N840000000000199NDNQ00    01DNCBD8666317293            855248    VS84000000000199 NDR549977145232   F1A1CED2DCT18622E71BF47  000000000+                A CA 12106                     000000000  N000000000 492   0000000000000.00 0000000.00   0000000.00                             000000000000000                                                                                                                                                     01424 G000000000199 0000000000000.14     01890 01000                  
08639890221040043DR675906759000000142748001028000000101F1A1CED2DCT18622E71BF47  Y000000000199                 P1                                                                                                                                                                                                                                                                                                                                                                                                                                                                                                                                                                                                            
08639900221040001P16759067590000001427480010280000001010000000000000000                             2000000000000000000000000              000000000000                    0000000000000000000000000                    000000000000                                                                                                                                                                                                                                                                                                                                                                                                                                                                                        
