00008610743290002BH6759067590000002092580011280000090170530202315023000000000050000    0000090001240057Y8001126759C05312023024                                                                                                                                                                                                                                                                                                                                                                                                                                                                                                                                                                                              
00008620743290003DT67590675900000020925800112800000010180011287287283150900012400570053020230000005000015023000000000050000515676XXXXXX4562       ME03KE06MS02      NY 4607AMWEP4K5TB0530  N840000000050000          81DNJ K DISTRIBUTION INC     02571Z    MC84000000050000 NDR549977712156   8392930886               000000000+600450S00130    MWE  00737                     000000000  N                0000000000000.00 0000000.00   0000000.00                             000000000000000                                                                                                                                                   U001424  000000000000 0000000000013.10     02600 01000                  
00008630743290003DR6759067590000002092580011280000001018392930886               Z000000000000                                                                                                                                                                                                                                                                                                                                                                                                                                                                                                                                                                                                                               
00008640743290001G2675906759000000209258001128000000101860-8957639              CT           9 E               210                                      NNNN           210000000000000000000000000                        7                                          77712156                                                                                                                                                                                                                                                                                                                                                                                                                                               
00008650743290004BH6759067590000001619680010280000090170530202315023000000000194545    0000090001502403Y8001026759C05312023050                                                                                                                                                                                                                                                                                                                                                                                                                                                                                                                                                                                              
00008660743290005DT67590675900000016196800102800000010180010287287283150900015020714052920230000000700415023000000000194545538067XXXXXX0960       ME03KE06MS02      NY 4607AMDJ13CLGR0526  N840000000007004          81DNGREEN OTTER LLC          439202    MD84000000007004 NDR549977424386   A984CFB27DT1022E7525816  000000000+600450S00130    MDJ  00401                     000000000  N                0000000000000.00 0000000.00   0000000.00                             000000000000000                                                                                                                                                   U001424  000000000000 0000000000001.31     01650 01500                  
00008670743290005DR675906759000000161968001028000000101A984CFB27DT1022E7525816  Y000000000000                                                                                                                                                                                                                                                                                                                                                                                                                                                                                                                                                                                                                               
00008680743290001G2675906759000000161968001028000000101866-6317293              GA           9 J               210                                      NNNN           210000000000000000000000000                                                                   77424386                                                                                                                                                                                                                                                                                                                                                                                                                                               
00008690743290006DT67590675900000016196800102800000010180010287287283150900015020862052920230000002126115023000000000194545521333XXXXXX7125       ME03KE06MS02      NY 4607AMWELSSSCH0526  N840000000021261          81DNGREEN OTTER LLC          02606Y    MC84000000021261 NDR549977424386   C548B5D048T32059C83244F  000000000+600450S00130    MWE  00642                     000000000  N                0000000000000.00 0000000.00   0000000.00                             000000000000000                                                                                                                                                   U001424  000000000000 0000000000004.78     02200 01000                  
00008700743290006DR675906759000000161968001028000000101C548B5D048T32059C83244F  N000000000000                                                                                                                                                                                                                                                                                                                                                                                                                                                                                                                                                                                                                               
00008710743290001G2675906759000000161968001028000000101866-6317293              GA           9 E               210                                      NNNN           210000000000000000000000000                        7                                          77424386                                                                                                                                                                                                                                                                                                                                                                                                                                               
00008720743290007DT67590675900000016196800102800000010180010224001193150900015023311052920230000001604015023000000000194545473702XXXXXX8504               2111111   NYV4 A7W303150019132248N8400000000160406M2200    01DNGREEN OTTER LLC          007401    VD84000000016040 NDR549977424386   68C9236C11TDC3EE52434D7  000000000+                F DF 10420                     000000000  Y000000000 338   0000000000000.00 0000000.00   0000000.00                             000000000000000                                                                                                                                                     01424 G000000016040 0000000000000.30     00050 02200                  
00008730743290007DR67590675900000016196800102800000010168C9236C11TDC3EE52434D7  Y000000016040                 P1                                                                                                                                                                                                                                                                                                                                                                                                                                                                                                                                                                                                            
00008740743290001P16759067590000001619680010280000001010000000000000000                             2000000000000000000000000              000000000000                    0000000000000000000000000                    000000000000                                                                                                                                                                                                                                                                                                                                                                                                                                                                                        
00008750743290002G2675906759000000161968001028000000101866-6317293              GA           9 D                00                                      NNNN   N                      000000000000                                                                   77424386                                                                                                                                                                                                                                                                                                                                                                                                                                               
00008760743290008DT67590675900000016196800102800000010680010287287283150900015023437053020230000001463215023000000000194545546700XXXXXX5799                         NY 4607AMPLFFDPJO0530  N840000000014632          81CNGREEN OTTER LLC          087617    MC84000000014632 NDR549977424386   08F4020D59T8CCE17D45E1D  000000000+600450S00130    MPL  00565                     000000000  N                0000000000000.00 0000000.00   0000000.00                             000000000000000                                                                                                                                                     01424  000000000000-0000000000002.56     01750 00000                  
00008770743290008DR67590675900000016196800102800000010608F4020D59T8CCE17D45E1D  Y000000000000                                                                                                                                                                                                                                                                                                                                                                                                                                                                                                                                                                                                                               
00008780743290001G2675906759000000161968001028000000106866-6317293              GA           9 L               210                                      NNNN           210000000000000000000000000                        7                                          77424386                                                                                                                                                                                                                                                                                                                                                                                                                                               
00008790743290009DT67590675900000016196800102800000010680010287287283150900015023445053020230000001063015023000000000194545544579XXXXXX8362                         NY 4607AMDJTPBPH70530  N840000000010630          81CNGREEN OTTER LLC          029882    MD84000000010630 NDR549977424386   54041F8494TC99F4C1EB71B  000000000+600450S00130    MDJ  10828                     000000000  1                0000000000000.00 0000000.00   0000000.00                             000000000000000                                                                                                                                                     01424  000000000000 0000000000000.00     00000 00000                  
00008800743290009DR67590675900000016196800102800000010654041F8494TC99F4C1EB71B  U000000000000                                                                                                                                                                                                                                                                                                                                                                                                                                                                                                                                                                                                                               
00008810743290001G2675906759000000161968001028000000106866-6317293              GA           9 J               210                                      NNNN           210000000000000000000000000                        7                                          77424386                                                                                                                                                                                                                                                                                                                                                                                                                                               
00008820743290010DT67590675900000016196800102800000010680010287287283150900015023460053020230000000500015023000000000194545540324XXXXXX4545                         NY 4607AMDJPGLUQM0530  N840000000005000          81CNGREEN OTTER LLC          030153    MD84000000005000 NDR549977424386   040A99B40CT405C2C0CA821  000000000+600450S00130    MDJ  10828                     000000000  1                0000000000000.00 0000000.00   0000000.00                             000000000000000                                                                                                                                                     01424  000000000000 0000000000000.00     00000 00000                  
00008830743290010DR675906759000000161968001028000000106040A99B40CT405C2C0CA821  R000000000000                                                                                                                                                                                                                                                                                                                                                                                                                                                                                                                                                                                                                               
00008840743290001G2675906759000000161968001028000000106866-6317293              GA           9 J               210                                      NNNN           210000000000000000000000000                        7                                          77424386                                                                                                                                                                                                                                                                                                                                                                                                                                               
00008850743290011DT67590675900000016196800102800000010180010224001193150900015023485053020230000001987015023000000000194545449632XXXXXX1539               2111111   NYV4 A7W463150522471582N840000000019870ZC2J00    01DNGREEN OTTER LLC          103047    VD84000000019870 NDR549977424386   F804C99389TA929E667FB76  000000000+                F DF 00415                     000000000  N000000000       0000000000000.00 0000000.00   0000000.00                             000000000000000                                                                                                                                                     01424 G000000019870 0000000000003.43     01650 01500                  
00008860743290011DR675906759000000161968001028000000101F804C99389TA929E667FB76  Y000000019870                 P1                                                                                                                                                                                                                                                                                                                                                                                                                                                                                                                                                                                                            
00008870743290001P16759067590000001619680010280000001010000000000000000                             2000000000000000000000000              000000000000                    0000000000000000000000000                    000000000000                                                                                                                                                                                                                                                                                                                                                                                                                                                                                        
00008880743290002G2675906759000000161968001028000000101866-6317293              GA           9 D                00                                      NNNN   N                      000000000000                                                                   77424386                                                                                                                                                                                                                                                                                                                                                                                                                                               
00008890743290012DT67590675900000016196800102800000010180010224001193150900015023576053020230000002643715023000000000194545416053XXXXXX2994               2111111   NYV4 A7W583150567895707N8400000000264376R2R00    01DNGREEN OTTER LLC          030227    VS84000000026437 NDR549977424386   102CB02A87T59B14E5BBAB2  000000000+                B CB 12107                     000000000  N000000000 494   0000000000000.00 0000000.00   0000000.00                             000000000000000                                                                                                                                                     01424 G000000026437 0000000000005.49     02040 01000                  
00008900743290012DR675906759000000161968001028000000101102CB02A87T59B14E5BBAB2  Z000000026437                 P1                                                                                                                                                                                                                                                                                                                                                                                                                                                                                                                                                                                                            
00008910743290001P16759067590000001619680010280000001010000000000000000                             2000000000000000000000000              000000000000                    0000000000000000000000000                    000000000000                                                                                                                                                                                                                                                                                                                                                                                                                                                                                        
00008920743290002G2675906759000000161968001028000000101866-6317293              GA           9 C                00                                      NNNN   N                      000000000000                                                                   77424386                                                                                                                                                                                                                                                                                                                                                                                                                                               
00008930743290013DT67590675900000016196800102800000010180010287287283150900015023585053020230000002111215023000000000194545517805XXXXXX7876       ME03KE06MS02      NY 4607AMPLMLN6PF0530  N840000000021112          81DNGREEN OTTER LLC          05144B    MC84000000021112 NDR549977424386   5E7C3BDE73TCCFA746A4FA4  000000000+600450S00130    MPL  00580                     000000000  N                0000000000000.00 0000000.00   0000000.00                             000000000000000                                                                                                                                                   U001424  000000000000 0000000000004.53     02100 01000                  
00008940743290013DR6759067590000001619680010280000001015E7C3BDE73TCCFA746A4FA4  Y000000000000                                                                                                                                                                                                                                                                                                                                                                                                                                                                                                                                                                                                                               
00008950743290001G2675906759000000161968001028000000101866-6317293              GA           9 L               210                                      NNNN           210000000000000000000000000                        7                                          77424386                                                                                                                                                                                                                                                                                                                                                                                                                                               
00008960743290014DT67590675900000016196800102800000010180010224001193150900015023592053020230000001066015023000000000194545412022XXXXXX2296               2111111   NYV4 A7W583150595876879N8400000000106604RHK00    01DNGREEN OTTER LLC          499306    VD84000000010660 NDR549977424386   47B8AD8C88T1F20A2C2ADDA  000000000+                F DF 00415                     000000000  N000000000       0000000000000.00 0000000.00   0000000.00                             000000000000000                                                                                                                                                     01424 G000000010660 0000000000001.91     01650 01500                  
00008970743290014DR67590675900000016196800102800000010147B8AD8C88T1F20A2C2ADDA  N000000010660                 P1                                                                                                                                                                                                                                                                                                                                                                                                                                                                                                                                                                                                            
00008980743290001P16759067590000001619680010280000001010000000000000000                             2000000000000000000000000              000000000000                    0000000000000000000000000                    000000000000                                                                                                                                                                                                                                                                                                                                                                                                                                                                                        
00008990743290002G2675906759000000161968001028000000101866-6317293              GA           9 D                00                                      NNNN   N                      000000000000                                                                   77424386                                                                                                                                                                                                                                                                                                                                                                                                                                               
00009000743290015DT67590675900000016196800102800000010180010224001193150900015023600053020230000001799115023000000000194545411395XXXXXX7246               2111111   NYV4 A7W383150603051960N840000000017991XN7800    01DNGREEN OTTER LLC          004505    VD84000000017991 NDR549977424386   EF025AD7E9T88445BF2F3EF  000000000+                F DF 00415                     000000000  N000000000       0000000000000.00 0000000.00   0000000.00                             000000000000000                                                                                                                                                     01424 G000000017991 0000000000003.12     01650 01500                  
00009010743290015DR675906759000000161968001028000000101EF025AD7E9T88445BF2F3EF  N000000017991                 P1                                                                                                                                                                                                                                                                                                                                                                                                                                                                                                                                                                                                            
00009020743290001P16759067590000001619680010280000001010000000000000000                             2000000000000000000000000              000000000000                    0000000000000000000000000                    000000000000                                                                                                                                                                                                                                                                                                                                                                                                                                                                                        
00009030743290002G2675906759000000161968001028000000101866-6317293              GA           9 D                00                                      NNNN   N                      000000000000                                                                   77424386                                                                                                                                                                                                                                                                                                                                                                                                                                               
00009040743290016DT67590675900000016196800102800000010180010287287283150900015023643053020230000002078515023000000000194545517805XXXXXX2486       ME03KE06MS02      NY 4607AMPLBGHJLR0530  N840000000020785          81DNGREEN OTTER LLC          01192B    MC84000000020785 NDR549977424386   679720D705T151CAA46F7DB  000000000+600450S00130    MPL  00580                     000000000  N                0000000000000.00 0000000.00   0000000.00                             000000000000000                                                                                                                                                   U001424  000000000000 0000000000004.46     02100 01000                  
00009050743290016DR675906759000000161968001028000000101679720D705T151CAA46F7DB  Y000000000000                                                                                                                                                                                                                                                                                                                                                                                                                                                                                                                                                                                                                               
00009060743290001G2675906759000000161968001028000000101866-6317293              GA           9 L               210                                      NNNN           210000000000000000000000000                        7                                          77424386                                                                                                                                                                                                                                                                                                                                                                                                                                               
00009070743290017DT67590675900000016196800102800000010680010287287283150900015023668053020230000002661115023000000000194545531260XXXXXX5934                         NY 4607AMDJDWG5TB0530  N840000000026611          81CNGREEN OTTER LLC          402702    MD84000000026611 NDR549977424386   4602BB9A79T3F1888B32947  000000000+600450S00130    MDJ  10828                     000000000  1                0000000000000.00 0000000.00   0000000.00                             000000000000000                                                                                                                                                     01424  000000000000 0000000000000.00     00000 00000                  
00009080743290017DR6759067590000001619680010280000001064602BB9A79T3F1888B32947  Z000000000000                                                                                                                                                                                                                                                                                                                                                                                                                                                                                                                                                                                                                               
00009090743290001G2675906759000000161968001028000000106866-6317293              GA           9 J               210                                      NNNN           210000000000000000000000000                        7                                          77424386                                                                                                                                                                                                                                                                                                                                                                                                                                               
00009100743290018DT67590675900000016196800102800000010680010274001193150900015023670053020230000002487015023000000000194545444796XXXXXX8852               0000000   NYV4 07T583150660239301N840000000024870J4KF00    01CNGREEN OTTER LLC          030233    VS84000000024870 NDR549977424386   67E2A0F69CT41BBAD442EED  000000000+                A CA 00245                     000000000  N000000000 166   0000000000000.00 0000000.00   0000000.00                             000000000000000                                                                                                                                                     01424  000000024870-0000000000004.38     01760 00000                  
00009110743290018DR67590675900000016196800102800000010667E2A0F69CT41BBAD442EED  U000000024870                 P1                                                                                                                                                                                                                                                                                                                                                                                                                                                                                                                                                                                                            
00009120743290001P16759067590000001619680010280000001060000000000000000                             2000000000000000000000000              000000000000                    0000000000000000000000000                    000000000000                                                                                                                                                                                                                                                                                                                                                                                                                                                                                        
00009130743290002G2675906759000000161968001028000000106866-6317293              GA           9 C                00                                      NNNN   N                      000000000000                                                                   77424386                                                                                                                                                                                                                                                                                                                                                                                                                                               
00009140743290019DT67590675900000016196800102800000010680010287287283150900015023684053020230000001055615023000000000194545517805XXXXXX7876                         NY 4607AMPLEBRZLZ0530  N840000000010556          81CNGREEN OTTER LLC          060158    MC84000000010556 NDR549977424386   5E7C3BDE73TCCFA746A4FA4  000000000+600450S00130    MPL  00565                     000000000  N                0000000000000.00 0000000.00   0000000.00                             000000000000000                                                                                                                                                     01424  000000000000-0000000000001.85     01750 00000                  
00009150743290019DR6759067590000001619680010280000001065E7C3BDE73TCCFA746A4FA4  Y000000000000                                                                                                                                                                                                                                                                                                                                                                                                                                                                                                                                                                                                                               
00009160743290001G2675906759000000161968001028000000106866-6317293              GA           9 L               210                                      NNNN           210000000000000000000000000                        7                                          77424386                                                                                                                                                                                                                                                                                                                                                                                                                                               
00009170743290020DT67590675900000016196800102800000010180010224001193150900015023733053020230000002118615023000000000194545421091XXXXXX5607               2111111   NYV4 A7W463150690510069N8400000000211863WNN00    01DNGREEN OTTER LLC          151052    VD84000000021186 NDR549977424386   80AB48F8D3T63FEAC6A4D9F  000000000+                F DF 00415                     000000000  N000000000       0000000000000.00 0000000.00   0000000.00                             000000000000000                                                                                                                                                     01424 G000000021186 0000000000003.65     01650 01500                  
00009180743290020DR67590675900000016196800102800000010180AB48F8D3T63FEAC6A4D9F  Y000000021186                 P1                                                                                                                                                                                                                                                                                                                                                                                                                                                                                                                                                                                                            
00009190743290001P16759067590000001619680010280000001010000000000000000                             2000000000000000000000000              000000000000                    0000000000000000000000000                    000000000000                                                                                                                                                                                                                                                                                                                                                                                                                                                                                        
00009200743290002G2675906759000000161968001028000000101866-6317293              GA           9 D                00                                      NNNN   N                      000000000000                                                                   77424386                                                                                                                                                                                                                                                                                                                                                                                                                                               
00009210743290021DT67590675900000016196800102800000010180010224001193150900015023741053020230000000110515023000000000194545421091XXXXXX5607               2111111   NYV4 A7W463150690563045N840000000001105NZBV00    01DNGREEN OTTER LLC          151056    VD84000000001105 NDR549977424386   80AB48F8D3T13814F76D611  000000000+                F DF 00415                     000000000  N000000000       0000000000000.00 0000000.00   0000000.00                             000000000000000                                                                                                                                                     01424 G000000001105 0000000000000.33     01650 01500                  
00009220743290021DR67590675900000016196800102800000010180AB48F8D3T13814F76D611  Y000000001105                 P1                                                                                                                                                                                                                                                                                                                                                                                                                                                                                                                                                                                                            
00009230743290001P16759067590000001619680010280000001010000000000000000                             2000000000000000000000000              000000000000                    0000000000000000000000000                    000000000000                                                                                                                                                                                                                                                                                                                                                                                                                                                                                        
00009240743290002G2675906759000000161968001028000000101866-6317293              GA           9 D                00                                      NNNN   N                      000000000000                                                                   77424386                                                                                                                                                                                                                                                                                                                                                                                                                                               
00009250743290022DT67590675900000016196800102800000010680010274001193150900015023761053020230000001499115023000000000194545430679XXXXXX9502               0000000   NYV4 07T583150720107338N840000000014991XPHF00    01CNGREEN OTTER LLC          030209    VS84000000014991 NDR549977424386   FDC8D14659TFF75F988EA56  000000000+                A CA 00245                     000000000  N000000000 166   0000000000000.00 0000000.00   0000000.00                             000000000000000                                                                                                                                                     01424  000000014991-0000000000002.64     01760 00000                  
00009260743290022DR675906759000000161968001028000000106FDC8D14659TFF75F988EA56  U000000014991                 P1                                                                                                                                                                                                                                                                                                                                                                                                                                                                                                                                                                                                            
00009270743290001P16759067590000001619680010280000001060000000000000000                             2000000000000000000000000              000000000000                    0000000000000000000000000                    000000000000                                                                                                                                                                                                                                                                                                                                                                                                                                                                                        
00009280743290002G2675906759000000161968001028000000106866-6317293              GA           9 C                00                                      NNNN   Y                      000000000000                                                                   77424386                                                                                                                                                                                                                                                                                                                                                                                                                                               
00009290743290023DT67590675900000016196800102800000010680010274001193150900015024181053020230000002487015023000000000194545413331XXXXXX5958               0000000   NY94 07N000000000000000N   000000000000          01CNGREEN OTTER LLC                    VD84000000024870 N  549977424386                            000000000+                F DF 08168                     000000000  N000000000 369   0000000000000.00 0000000.00   0000000.00                             000000000000000                                                                                                                                                     01424  000000000000 0000000000000.00     00000 00000                  
00009300743290001G2675906759000000161968001028000000106866-6317293              GA           9 D                00                                      NNNN00 N 00                   000000000000                                                                   77424386                                                                                                                                                                                                                                                                                                                                                                                                                                               
00009310743290024DT67590675900000016196800102800000010180010287287283150900015023817053020230000002487015023000000000194545512230XXXXXX5778       ME03KE06MS02      NY 4607AMWEGRXHU00530  N840000000024870          81DNGREEN OTTER LLC          30918Z    MC84000000024870 NDR549977424386   30EBE78D69T566B83AD2C50  000000000+600450S00130    MWE  00737                     000000000  N                0000000000000.00 0000000.00   0000000.00                             000000000000000                                                                                                                                                   U001424  000000000000 0000000000006.57     02600 01000                  
00009320743290024DR67590675900000016196800102800000010130EBE78D69T566B83AD2C50  Y000000000000                                                                                                                                                                                                                                                                                                                                                                                                                                                                                                                                                                                                                               
00009330743290001G2675906759000000161968001028000000101866-6317293              GA           9 E               210                                      NNNN           210000000000000000000000000                                                                   77424386                                                                                                                                                                                                                                                                                                                                                                                                                                               
00009340743290025DT67590675900000016196800102800000010180010224001193150900015023824053020230000001987015023000000000194545485620XXXXXX4753               2111111   NYV4 A7W303150754954447N840000000019870CX6F00    01DNGREEN OTTER LLC          030870    VB84000000019870 NDR549977424386   BA6E108C02TED7CC3DB17CB  000000000+                G3CG308002                     000000000  N000000000 381   0000000000000.00 0000000.00   0000000.00                             000000000000000                                                                                                                                                     01424 G000000019870 0000000000005.66     02800 01000                  
00009350743290025DR675906759000000161968001028000000101BA6E108C02TED7CC3DB17CB  Y000000019870                 P1                                                                                                                                                                                                                                                                                                                                                                                                                                                                                                                                                                                                            
00009360743290001P16759067590000001619680010280000001010000000000000000                             2000000000000000000000000              000000000000                    0000000000000000000000000                    000000000000                                                                                                                                                                                                                                                                                                                                                                                                                                                                                        
00009370743290002G2675906759000000161968001028000000101866-6317293              GA           9 C                00                                      NNNN   Y                      000000000000                                                                   77424386                                                                                                                                                                                                                                                                                                                                                                                                                                               
00009380743290026DT67590675900000016196800102800000010180010287287283150900015023890053020230000001493615023000000000194545512992XXXXXX2316       ME03KE06MS02      NY 4607AMDJQ7SMU00530  N840000000014936          81DNGREEN OTTER LLC          170590    MD84000000014936 NDR549977424386   5AB4E09CBDT5EF3AB5DC64A  000000000+600450S00130    MDJ  10813                     000000000  1                0000000000000.00 0000000.00   0000000.00                             000000000000000                                                                                                                                                   U001424  000000000000 0000000000000.29     00050 02200                  
00009390743290026DR6759067590000001619680010280000001015AB4E09CBDT5EF3AB5DC64A  Y000000000000                                                                                                                                                                                                                                                                                                                                                                                                                                                                                                                                                                                                                               
00009400743290001G2675906759000000161968001028000000101866-6317293              GA           9 J               210                                      NNNN           210000000000000000000000000                        7                                          77424386                                                                                                                                                                                                                                                                                                                                                                                                                                               
00009410743290027DT67590675900000016196800102800000010180010224001193150900015023907053020230000000149515023000000000194545473079XXXXXX4838               2111111   NYV4 A7W463150803746732N840000000001495D8F300    01DNGREEN OTTER LLC          252928    VD84000000001495 NDR549977424386   6922B95CB2TDC5F96935333  000000000+                F DF 00415                     000000000  N000000000       0000000000000.00 0000000.00   0000000.00                             000000000000000                                                                                                                                                     01424 G000000001495 0000000000000.40     01650 01500                  
00009420743290027DR6759067590000001619680010280000001016922B95CB2TDC5F96935333  Y000000001495                 P1                                                                                                                                                                                                                                                                                                                                                                                                                                                                                                                                                                                                            
00009430743290001P16759067590000001619680010280000001010000000000000000                             2000000000000000000000000              000000000000                    0000000000000000000000000                    000000000000                                                                                                                                                                                                                                                                                                                                                                                                                                                                                        
00009440743290002G2675906759000000161968001028000000101866-6317293              GA           9 D                00                                      NNNN   N                      000000000000                                                                   77424386                                                                                                                                                                                                                                                                                                                                                                                                                                               
00009450743290028DT67590675900000016196800102800000010180010287287283150900015023916053020230000001308915023000000000194545517805XXXXXX2127       ME03KE06MS02      NY 4607AMPLWK541H0530  N840000000013089          81DNGREEN OTTER LLC          02078B    MC84000000013089 NDR549977424386   05CFF58AEDT93D4E6480558  000000000+600450S00130    MPL  00580                     000000000  N                0000000000000.00 0000000.00   0000000.00                             000000000000000                                                                                                                                                   U001424  000000000000 0000000000002.85     02100 01000                  
00009460743290028DR67590675900000016196800102800000010105CFF58AEDT93D4E6480558  Y000000000000                                                                                                                                                                                                                                                                                                                                                                                                                                                                                                                                                                                                                               
00009470743290001G2675906759000000161968001028000000101866-6317293              GA           9 L               210                                      NNNN           210000000000000000000000000                        7                                          77424386                                                                                                                                                                                                                                                                                                                                                                                                                                               
00009480743290029DT67590675900000016196800102800000010180010287287283150900015023924053020230000001987015023000000000194545517805XXXXXX4460       ME03KE06MS02      NY 4607AMPLPG3CVB0530  N840000000019870          81DNGREEN OTTER LLC          00159B    MC84000000019870 NDR549977424386   B5F0F51008T1DBA8244C434  000000000+600450S00130    MPL  00580                     000000000  N                0000000000000.00 0000000.00   0000000.00                             000000000000000                                                                                                                                                   U001424  000000000000 0000000000004.27     02100 01000                  
00009490743290029DR675906759000000161968001028000000101B5F0F51008T1DBA8244C434  Z000000000000                                                                                                                                                                                                                                                                                                                                                                                                                                                                                                                                                                                                                               
00009500743290001G2675906759000000161968001028000000101866-6317293              GA           9 L               210                                      NNNN           210000000000000000000000000                        7                                          77424386                                                                                                                                                                                                                                                                                                                                                                                                                                               
00009510743290030DT67590675900000016196800102800000010180010287287283150900015023965053020230000002126115023000000000194545538072XXXXXX7608       ME03KE06MS02      NY 4607AMDJJ52EU00530  N840000000021261          81DNGREEN OTTER LLC          500269    MD84000000021261 NDR549977424386   DCEA742304TA902EBD37B50  000000000+600450S00130    MDJ  00401                     000000000  N                0000000000000.00 0000000.00   0000000.00                             000000000000000                                                                                                                                                   U001424  000000000000 0000000000003.66     01650 01500                  
00009520743290030DR675906759000000161968001028000000101DCEA742304TA902EBD37B50  Z000000000000                                                                                                                                                                                                                                                                                                                                                                                                                                                                                                                                                                                                                               
00009530743290001G2675906759000000161968001028000000101866-6317293              GA           9 J               210                                      NNNN           210000000000000000000000000                                                                   77424386                                                                                                                                                                                                                                                                                                                                                                                                                                               
00009540743290031DT67590675900000016196800102800000010180010224001193150900015023998053020230000001799115023000000000194545400022XXXXXX9763               2111111   NYV4 A7W463150843039449N840000000017991MHHP00    01DNGREEN OTTER LLC          598844    VD84000000017991 NDR549977424386   299B80AB3FT239E2E6517F8  000000000+                F DF 10420                     000000000  Y000000000 338   0000000000000.00 0000000.00   0000000.00                             000000000000000                                                                                                                                                     01424 G000000017991 0000000000000.31     00050 02200                  
00009550743290031DR675906759000000161968001028000000101299B80AB3FT239E2E6517F8  Y000000017991                 P1                                                                                                                                                                                                                                                                                                                                                                                                                                                                                                                                                                                                            
00009560743290001P16759067590000001619680010280000001010000000000000000                             2000000000000000000000000              000000000000                    0000000000000000000000000                    000000000000                                                                                                                                                                                                                                                                                                                                                                                                                                                                                        
00009570743290002G2675906759000000161968001028000000101866-6317293              GA           9 D                00                                      NNNN   N                      000000000000                                                                   77424386                                                                                                                                                                                                                                                                                                                                                                                                                                               
00009580743290032DT67590675900000016196800102800000010680010287287283150900015024021053020230000000999815023000000000194545531266XXXXXX0604                         NY 4607AMDJTAHDU00530  N840000000009998          81CNGREEN OTTER LLC          859781    MD84000000009998 NDR549977424386   87B6953426TCC096B46AD83  000000000+600450S00130    MDJ  10828                     000000000  1                0000000000000.00 0000000.00   0000000.00                             000000000000000                                                                                                                                                     01424  000000000000 0000000000000.00     00000 00000                  
00009590743290032DR67590675900000016196800102800000010687B6953426TCC096B46AD83  Y000000000000                                                                                                                                                                                                                                                                                                                                                                                                                                                                                                                                                                                                                               
00009600743290001G2675906759000000161968001028000000106866-6317293              GA           9 J               210                                      NNNN           210000000000000000000000000                        7                                          77424386                                                                                                                                                                                                                                                                                                                                                                                                                                               
00009610743290033DT67590675900000016196800102800000010180010287287283150900015024039053020230000001987015023000000000194545540324XXXXXX1326       ME03KE06MS02      NY 4607AMDJYJ261H0530  N840000000019870          81DNGREEN OTTER LLC          185159    MD84000000019870 NDR549977424386   F4B27FD03FTF0CC5DC52F3F  000000000+600450S00130    MDJ  10813                     000000000  1                0000000000000.00 0000000.00   0000000.00                             000000000000000                                                                                                                                                   U001424  000000000000 0000000000000.32     00050 02200                  
00009620743290033DR675906759000000161968001028000000101F4B27FD03FTF0CC5DC52F3F  Y000000000000                                                                                                                                                                                                                                                                                                                                                                                                                                                                                                                                                                                                                               
00009630743290001G2675906759000000161968001028000000101866-6317293              GA           9 J               210                                      NNNN           210000000000000000000000000                        7                                          77424386                                                                                                                                                                                                                                                                                                                                                                                                                                               
00009640743290034BH6759067590000001427480010280000090170530202315023000000000272658    0000090001043648Y8001026759C05312023104                                                                                                                                                                                                                                                                                                                                                                                                                                                                                                                                                                                              
00009650743290035DT67590675900000014274800102800000010180010287287283150900010431346052920230000001578615023000000000272658512423XXXXXX1438       ME03KE06MS02      NY 4607AMPLKROGCH0526  N840000000015786          81DNCBD8666317293            026365    MC84000000015786 NDR549977145232   AF962D66CBT2A718C61B6D4  000000000+600450S00130    MPL  00013                     000000000  N                0000000000000.00 0000000.00   0000000.00                             000000000000000                                                                                                                                                   U001424  000000000000 0000000000003.18     01950 01000                  
00009660743290035DR675906759000000142748001028000000101AF962D66CBT2A718C61B6D4  Y000000000000                                                                                                                                                                                                                                                                                                                                                                                                                                                                                                                                                                                                                               
00009670743290001G2675906759000000142748001028000000101866-6317293              GA           9 L               210                                      NNNN           210000000000000000000000000                        7                                          77145232                                                                                                                                                                                                                                                                                                                                                                                                                                               
00009680743290036DT67590675900000014274800102800000010180010287287283150900010431445052920230000000744215023000000000272658526924XXXXXX4099       ME03KE06MS02      NY 4607AMDJGSP56W0526  N840000000007442          81DNCBD8666317293            388180    MD84000000007442 NDR549977145232   6D36FBECACTEF7502F37A1F  000000000+600450S00130    MDJ  00401                     000000000  N                0000000000000.00 0000000.00   0000000.00                             000000000000000                                                                                                                                                   U001424  000000000000 0000000000001.38     01650 01500                  
00009690743290036DR6759067590000001427480010280000001016D36FBECACTEF7502F37A1F  Z000000000000                                                                                                                                                                                                                                                                                                                                                                                                                                                                                                                                                                                                                               
00009700743290001G2675906759000000142748001028000000101866-6317293              GA           9 J               210                                      NNNN           210000000000000000000000000                                                                   77145232                                                                                                                                                                                                                                                                                                                                                                                                                                               
00009710743290037DT67590675900000014274800102800000010180010224001193150900010431469052920230000002106215023000000000272658409261XXXXXX0219               2111111   NYV4 A7W583146477079002N84000000002106229RK00    01DNCBD8666317293            026092    VS84000000021062 NDR549977145232   42A353C178T0C6FBB86717A  000000000+                A CA 12106                     000000000  N000000000 492   0000000000000.00 0000000.00   0000000.00                             000000000000000                                                                                                                                                     01424 G000000021062 0000000000004.08     01890 01000                  
00009720743290037DR67590675900000014274800102800000010142A353C178T0C6FBB86717A  Y000000021062                 P1                                                                                                                                                                                                                                                                                                                                                                                                                                                                                                                                                                                                            
00009730743290001P16759067590000001427480010280000001010000000000000000                             2000000000000000000000000              000000000000                    0000000000000000000000000                    000000000000                                                                                                                                                                                                                                                                                                                                                                                                                                                                                        
00009740743290002G2675906759000000142748001028000000101866-6317293              GA           9 C                00                                      NNNN   N                      000000000000                                                                   77145232                                                                                                                                                                                                                                                                                                                                                                                                                                               
00009750743290038DT67590675900000014274800102800000010180010287287283150900010431908052920230000001987015023000000000272658544928XXXXXX1910       ME03KE06MS02      NY 4607AMDJZYZDGU0526  N840000000019870          81DNCBD8666317293            H52946    MD84000000019870 NDR549977145232   EC56E91508T712B4C5E0003  000000000+600450S00130    MDJ  10813                     000000000  1                0000000000000.00 0000000.00   0000000.00                             000000000000000                                                                                                                                                   U001424  000000000000 0000000000000.32     00050 02200                  
00009760743290038DR675906759000000142748001028000000101EC56E91508T712B4C5E0003  Y000000000000                                                                                                                                                                                                                                                                                                                                                                                                                                                                                                                                                                                                                               
00009770743290001G2675906759000000142748001028000000101866-6317293              GA           9 J               210                                      NNNN           210000000000000000000000000                        7                                          77145232                                                                                                                                                                                                                                                                                                                                                                                                                                               
00009780743290039DT67590675900000014274800102800000010180010287287283150900010432120052920230000001924615023000000000272658546616XXXXXX4662       ME03KE06PT01      NY 4607AMCWCSM9IY0526  N840000000019246          81DNCBD8666317293            63999S    MC84000000019246 NDR549977145232   A79B344ADET9D02BB1B3917  000000000+600450S00130    MCW  02182                     000000000  N                0000000000000.00 0000000.00   0000000.00                             000000000000000                                                                                                                                                   U001424  000000000000 0000000000005.10     02600 01000                  
00009790743290039DR675906759000000142748001028000000101A79B344ADET9D02BB1B3917  Y000000000000                                                                                                                                                                                                                                                                                                                                                                                                                                                                                                                                                                                                                               
00009800743290001G2675906759000000142748001028000000101866-6317293              GA           9 W               210                                      NNNN           210000000000000000000000000                        7                                          77145232                                                                                                                                                                                                                                                                                                                                                                                                                                               
00009810743290040DT67590675900000014274800102800000010180010224001193150900010432178052920230000000600415023000000000272658448233XXXXXX1231               2111111   NYV4 A7W463146849044183N840000000006004WDSX00    01DNCBD8666317293            083504    VD84000000006004 NDR549977145232   C115DEBB08TE5A20B42DD89  000000000+                F DF 10420                     000000000  Y000000000 338   0000000000000.00 0000000.00   0000000.00                             000000000000000                                                                                                                                                     01424 G000000006004 0000000000000.25     00050 02200                  
00009820743290040DR675906759000000142748001028000000101C115DEBB08TE5A20B42DD89  N000000006004                 P1                                                                                                                                                                                                                                                                                                                                                                                                                                                                                                                                                                                                            
00009830743290001P16759067590000001427480010280000001010000000000000000                             2000000000000000000000000              000000000000                    0000000000000000000000000                    000000000000                                                                                                                                                                                                                                                                                                                                                                                                                                                                                        
00009840743290002G2675906759000000142748001028000000101866-6317293              GA           9 D                00                                      NNNN   N                      000000000000                                                                   77145232                                                                                                                                                                                                                                                                                                                                                                                                                                               
00009850743290041DT67590675900000014274800102800000010180010224001193150900010432186052920230000001200815023000000000272658410040XXXXXX5806               2111111   NYV4 A7W463147003052852N840000000012008CHDS00    01DNCBD8666317293            44772G    VB84000000012008 NDR549977145232   819BBAB865T36E3B8CE88C3  000000000+                G CG 00690                     000000000  N000000000 231   0000000000000.00 0000000.00   0000000.00                             000000000000000                                                                                                                                                     01424 G000000012008 0000000000003.28     02650 01000                  
00009860743290041DR675906759000000142748001028000000101819BBAB865T36E3B8CE88C3  A000000012008                 P1                                                                                                                                                                                                                                                                                                                                                                                                                                                                                                                                                                                                            
00009870743290001P16759067590000001427480010280000001010000000000000000                             2000000000000000000000000              000000000000                    0000000000000000000000000                    000000000000                                                                                                                                                                                                                                                                                                                                                                                                                                                                                        
00009880743290002G2675906759000000142748001028000000101866-6317293              GA           9 C                00                                      NNNN   Y                      000000000000                                                                   77145232                                                                                                                                                                                                                                                                                                                                                                                                                                               
00009890743290042DT67590675900000014274800102800000010180010224001193150900010432202052920230000002654915023000000000272658473703XXXXXX5337               2111111   NYV4 A7W463147039065069N840000000026549QFW700    01DNCBD8666317293            044368    VD84000000026549 NDR549977145232   DA5343D49FT259EA314653C  000000000+                F DF 10420                     000000000  Y000000000 338   0000000000000.00 0000000.00   0000000.00                             000000000000000                                                                                                                                                     01424 G000000026549 0000000000000.35     00050 02200                  
00009900743290042DR675906759000000142748001028000000101DA5343D49FT259EA314653C  Y000000026549                 P1                                                                                                                                                                                                                                                                                                                                                                                                                                                                                                                                                                                                            
00009910743290001P16759067590000001427480010280000001010000000000000000                             2000000000000000000000000              000000000000                    0000000000000000000000000                    000000000000                                                                                                                                                                                                                                                                                                                                                                                                                                                                                        
00009920743290002G2675906759000000142748001028000000101866-6317293              GA           9 D                00                                      NNNN   N                      000000000000                                                                   77145232                                                                                                                                                                                                                                                                                                                                                                                                                                               
00009930743290043DT67590675900000014274800102800000010180010287287283150900010432278052920230000002126115023000000000272658544372XXXXXX6641       ME03KE06MS02      NY 4607AMDSSL1NJR0526  N840000000021261          81DNCBD8666317293            597465    MD84000000021261 NDR549977145232   6AD64D7960TBB657CE07B68  000000000+600450S00130    MDS  00401                     000000000  N                0000000000000.00 0000000.00   0000000.00                             000000000000000                                                                                                                                                   U001424  000000000000 0000000000003.66     01650 01500                  
00009940743290043DR6759067590000001427480010280000001016AD64D7960TBB657CE07B68  Y000000000000                                                                                                                                                                                                                                                                                                                                                                                                                                                                                                                                                                                                                               
00009950743290001G2675906759000000142748001028000000101866-6317293              GA           9 S               210                                      NNNN           210000000000000000000000000                                                                   77145232                                                                                                                                                                                                                                                                                                                                                                                                                                               
00009960743290044DT67590675900000014274800102800000010180010224001193150900010432293052920230000002126115023000000000272658413938XXXXXX6768               2111111   NYV4 A7W463147123053939N8400000000212613RG200    01DNCBD8666317293            222505    VD84000000021261 NDR549977145232   38AEAF20C7T99A6D4434534  000000000+                F DF 00415                     000000000  N000000000       0000000000000.00 0000000.00   0000000.00                             000000000000000                                                                                                                                                     01424 G000000021261 0000000000003.66     01650 01500                  
00009970743290044DR67590675900000014274800102800000010138AEAF20C7T99A6D4434534  Y000000021261                 P1                                                                                                                                                                                                                                                                                                                                                                                                                                                                                                                                                                                                            
00009980743290001P16759067590000001427480010280000001010000000000000000                             2000000000000000000000000              000000000000                    0000000000000000000000000                    000000000000                                                                                                                                                                                                                                                                                                                                                                                                                                                                                        
00009990743290002G2675906759000000142748001028000000101866-6317293              GA           9 D                00                                      NNNN   N                      000000000000                                                                   77145232                                                                                                                                                                                                                                                                                                                                                                                                                                               
00010000743290045DT67590675900000014274800102800000010180010287287283150900010435685052920230000002255015023000000000272658517805XXXXXX1026       ME03KE06MS02      NY 4607AMPLDOJSE40529  N840000000022550          81DNCBD8666317293            00210B    MC84000000022550 NDR549977145232   34F3E1E5D4T9986D8814CEC  000000000+600450S00130    MPL  00580                     000000000  N                0000000000000.00 0000000.00   0000000.00                             000000000000000                                                                                                                                                   U001424  000000000000 0000000000004.84     02100 01000                  
00010010743290045DR67590675900000014274800102800000010134F3E1E5D4T9986D8814CEC  Y000000000000                                                                                                                                                                                                                                                                                                                                                                                                                                                                                                                                                                                                                               
00010020743290001G2675906759000000142748001028000000101866-6317293              GA           9 L               210                                      NNNN           210000000000000000000000000                        7                                          77145232                                                                                                                                                                                                                                                                                                                                                                                                                                               
