00014120110400002BH6759067590000000288180088880000090170705202318623000000000005636    0000090001560309Y8008886759C07062023156                                                                                                                                                                                                                                                                                                                                                                                                                                                                                                                                                                                              
00014130110400003DT67590675900000002881800888800000010180088824001193186900015603094070520230000000563618623000000000005636422921XXXXXX3810               2111111   NYV4 A7W383186583865465N840000000005636Z3JV00    01DNHAPPY HIPPIE             043988    VD84000000005636 NDR549976044904   2127                     000000000+                F DF 00415                     000000000  N000000000       0000000000000.00 0000000.00   0000000.00                             000000000000000                                                                                                                                                     01424 G000000005636 0000000000001.08     01650 01500                  
00014140110400003DR6759067590000000288180088880000001012127                     Z000000005636                 P1                                                                                                                                                                                                                                                                                                                                                                                                                                                                                                                                                                                                            
00014150110400001P16759067590000000288180088880000001010000000000000000                             2000000000000000000000000              000000000000                    0000000000000000000000000                    000000000000                                                                                                                                                                                                                                                                                                                                                                                                                                                                                        
00014160110400002G2675906759000000028818008888000000101865-3663142              TN           9 D                00                                      NNNN   N                      000000000000                                                                   76044904                                                                                                                                                                                                                                                                                                                                                                                                                                               
00014170110400004BH6759067590000001330080010280000090170705202318623000000000433077    0000090001400723Y8001026759C07062023140                                                                                                                                                                                                                                                                                                                                                                                                                                                                                                                                                                                              
00014180110400005DT67590675900000013300800102800000010180010287287283186900014099790070420230000002106218623000000000433077542432XXXXXX8234       ME03KE06MS02      NY 4607AMDJD3P6B50701  N840000000021062          81DNCBD8666317293            160082    MD84000000021062 NDR549977133133   CFAAFE8E08T4E278A378362  000000000+600450S00130    MDJ  10813                     000000000  1                0000000000000.00 0000000.00   0000000.00                             000000000000000                                                                                                                                                   U001424  000000000000 0000000000000.33     00050 02200                  
00014190110400005DR675906759000000133008001028000000101CFAAFE8E08T4E278A378362  Y000000000000                                                                                                                                                                                                                                                                                                                                                                                                                                                                                                                                                                                                                               
00014200110400001G2675906759000000133008001028000000101866-6317293              GA           9 J               210                                      NNNN           210000000000000000000000000                        7                                          77133133                                                                                                                                                                                                                                                                                                                                                                                                                                               
00014210110400006DT67590675900000013300800102800000010180010287287283186900014099923070420230000002126118623000000000433077517546XXXXXX2859       ME03KE06MS02      NY 4607AMDJJKKDOU0701  N840000000021261          81DNCBD8666317293            001518    MD84000000021261 NDR549977133133   11105C3E66T6692E163FB4A  000000000+600450S00130    MDJ  10813                     000000000  1                0000000000000.00 0000000.00   0000000.00                             000000000000000                                                                                                                                                   U001424  000000000000 0000000000000.33     00050 02200                  
00014220110400006DR67590675900000013300800102800000010111105C3E66T6692E163FB4A  Y000000000000                                                                                                                                                                                                                                                                                                                                                                                                                                                                                                                                                                                                                               
00014230110400001G2675906759000000133008001028000000101866-6317293              GA           9 J               210                                      NNNN           210000000000000000000000000                        7                                          77133133                                                                                                                                                                                                                                                                                                                                                                                                                                               
00014240110400007DT67590675900000013300800102800000010180010224001193186900014000573070420230000000600418623000000000433077440393XXXXXX3455               2111111   NYV4 A7W303182579047944N840000000006004ZP3900    01DNCBD8666317293            129116    VD84000000006004 NDR549977133133   1927C2705BT1918AE17EF14  000000000+                F PF 08175                     000000000  N000000000       0000000000000.00 0000000.00   0000000.00                             000000000000000                                                                                                                                                     01424 G000000006004 0000000000001.25     01750 02000                  
00014250110400007DR6759067590000001330080010280000001011927C2705BT1918AE17EF14  N000000006004                 P1                                                                                                                                                                                                                                                                                                                                                                                                                                                                                                                                                                                                            
00014260110400001P16759067590000001330080010280000001010000000000000000                             2000000000000000000000000              000000000000                    0000000000000000000000000                    000000000000                                                                                                                                                                                                                                                                                                                                                                                                                                                                                        
00014270110400002G2675906759000000133008001028000000101866-6317293              GA           9 P                00                                      NNNN   N                      000000000000                                                                   77133133                                                                                                                                                                                                                                                                                                                                                                                                                                               
00014280110400008DT67590675900000013300800102800000010180010224001193186900014001019070420230000001604018623000000000433077440066XXXXXX9183               2111111   NYV4 A7W463182666059667N84000000001604038FF00    01DNCBD8666317293            08171B    VS84000000016040 NDR549977133133   7BC4765A1ET95C2348C4E61  000000000+                B CB 12107                     000000000  N000000000 494   0000000000000.00 0000000.00   0000000.00                             000000000000000                                                                                                                                                     01424 G000000016040 0000000000003.37     02040 01000                  
00014290110400008DR6759067590000001330080010280000001017BC4765A1ET95C2348C4E61  Y000000016040                 P1                                                                                                                                                                                                                                                                                                                                                                                                                                                                                                                                                                                                            
00014300110400001P16759067590000001330080010280000001010000000000000000                             2000000000000000000000000              000000000000                    0000000000000000000000000                    000000000000                                                                                                                                                                                                                                                                                                                                                                                                                                                                                        
00014310110400002G2675906759000000133008001028000000101866-6317293              GA           9 C                00                                      NNNN   Y                      000000000000                                                                   77133133                                                                                                                                                                                                                                                                                                                                                                                                                                               
00014320110400009DT67590675900000013300800102800000010180010287287283186900014001044070420230000002126118623000000000433077542432XXXXXX4271       ME03KE06MS02      NY 4607AMDJWWFZOU0701  N840000000021261          81DNCBD8666317293            683286    MD84000000021261 NDR549977133133   9EEAFDA7ADTF0CC6DFC411B  000000000+600450S00130    MDJ  10813                     000000000  1                0000000000000.00 0000000.00   0000000.00                             000000000000000                                                                                                                                                   U001424  000000000000 0000000000000.33     00050 02200                  
00014330110400009DR6759067590000001330080010280000001019EEAFDA7ADTF0CC6DFC411B  Y000000000000                                                                                                                                                                                                                                                                                                                                                                                                                                                                                                                                                                                                                               
00014340110400001G2675906759000000133008001028000000101866-6317293              GA           9 J               210                                      NNNN           210000000000000000000000000                        7                                          77133133                                                                                                                                                                                                                                                                                                                                                                                                                                               
00014350110400010DT67590675900000013300800102800000010180010224001193186900014001308070420230000002118618623000000000433077440066XXXXXX0232               2111111   NYV4 A7W303182744095797N840000000021186MPTN00    01DNCBD8666317293            05305D    VS84000000021186 NDR549977133133   AEF381D249T663CDEB35345  000000000+                D CD 12109                     000000000  N000000000 498   0000000000000.00 0000000.00   0000000.00                             000000000000000                                                                                                                                                     01424 G000000021186 0000000000005.40     02500 01000                  
00014360110400010DR675906759000000133008001028000000101AEF381D249T663CDEB35345  Y000000021186                 P1                                                                                                                                                                                                                                                                                                                                                                                                                                                                                                                                                                                                            
00014370110400001P16759067590000001330080010280000001010000000000000000                             2000000000000000000000000              000000000000                    0000000000000000000000000                    000000000000                                                                                                                                                                                                                                                                                                                                                                                                                                                                                        
00014380110400002G2675906759000000133008001028000000101866-6317293              GA           9 C                00                                      NNNN   Y                      000000000000                                                                   77133133                                                                                                                                                                                                                                                                                                                                                                                                                                               
00014390110400011DT67590675900000013300800102800000010180010224001193186900014001407070420230000002661118623000000000433077433477XXXXXX2069               2111111   NYV4 A7W463182762051342N8400000000266116CHX00    01DNCBD8666317293            442199    VD84000000026611 NDR549977133133   FA28B56AF6T65CDD795752E  000000000+                F DF 10420                     000000000  Y000000000 338   0000000000000.00 0000000.00   0000000.00                             000000000000000                                                                                                                                                     01424 G000000026611 0000000000000.35     00050 02200                  
00014400110400011DR675906759000000133008001028000000101FA28B56AF6T65CDD795752E  N000000026611                 P1                                                                                                                                                                                                                                                                                                                                                                                                                                                                                                                                                                                                            
00014410110400001P16759067590000001330080010280000001010000000000000000                             2000000000000000000000000              000000000000                    0000000000000000000000000                    000000000000                                                                                                                                                                                                                                                                                                                                                                                                                                                                                        
00014420110400002G2675906759000000133008001028000000101866-6317293              GA           9 D                00                                      NNNN   N                      000000000000                                                                   77133133                                                                                                                                                                                                                                                                                                                                                                                                                                               
00014430110400012DT67590675900000013300800102800000010180010224001193186900014001423070420230000001272818623000000000433077402020XXXXXX5437               2111111   NYV4 A7W583182765055795N840000000012728LS7B00    01DNCBD8666317293            058302    VD84000000012728 NDR549977133133   40AC3F2168TBE9A2745A35A  000000000+                F DF 00415                     000000000  N000000000       0000000000000.00 0000000.00   0000000.00                             000000000000000                                                                                                                                                     01424 G000000012728 0000000000002.25     01650 01500                  
00014440110400012DR67590675900000013300800102800000010140AC3F2168TBE9A2745A35A  Z000000012728                 P1                                                                                                                                                                                                                                                                                                                                                                                                                                                                                                                                                                                                            
00014450110400001P16759067590000001330080010280000001010000000000000000                             2000000000000000000000000              000000000000                    0000000000000000000000000                    000000000000                                                                                                                                                                                                                                                                                                                                                                                                                                                                                        
00014460110400002G2675906759000000133008001028000000101866-6317293              GA           9 D                00                                      NNNN   N                      000000000000                                                                   77133133                                                                                                                                                                                                                                                                                                                                                                                                                                               
00014470110400013DT67590675900000013300800102800000010180010287287283186900014001432070420230000001275718623000000000433077542418XXXXXX9249       ME03KE06MS02      NY 4607AMWEHK9MWR0701  N840000000012757          81DNCBD8666317293            43747P    MC84000000012757 NDR549977133133   F8F8D9385BT981444A1DEE1  000000000+600450S00130    MWE  00737                     000000000  N                0000000000000.00 0000000.00   0000000.00                             000000000000000                                                                                                                                                   U001424  000000000000 0000000000003.42     02600 01000                  
00014480110400013DR675906759000000133008001028000000101F8F8D9385BT981444A1DEE1  Y000000000000                                                                                                                                                                                                                                                                                                                                                                                                                                                                                                                                                                                                                               
00014490110400001G2675906759000000133008001028000000101866-6317293              GA           9 E               210                                      NNNN           210000000000000000000000000                        7                                          77133133                                                                                                                                                                                                                                                                                                                                                                                                                                               
00014500110400014DT67590675900000013300800102800000010180010287287283186900014001457070420230000001987018623000000000433077552417XXXXXX1085       ME03KE06PT01      NY 4607AMCWH215WR0701  N840000000019870          81DNCBD8666317293            36988Z    MC84000000019870 NDR549977133133   0D58B86D2FT7A43EE961683  000000000+600450S00130    MCW  00642                     000000000  N                0000000000000.00 0000000.00   0000000.00                             000000000000000                                                                                                                                                   U001424  000000000000 0000000000004.47     02200 01000                  
00014510110400014DR6759067590000001330080010280000001010D58B86D2FT7A43EE961683  Y000000000000                                                                                                                                                                                                                                                                                                                                                                                                                                                                                                                                                                                                                               
00014520110400001G2675906759000000133008001028000000101866-6317293              GA           9 W               210                                      NNNN           210000000000000000000000000                        7                                          77133133                                                                                                                                                                                                                                                                                                                                                                                                                                               
00014530110400015DT67590675900000013300800102800000010180010287287283186900014001721070420230000001799118623000000000433077512107XXXXXX1028       ME03KE06PT01      NY 4607AMCWOD33WR0701  N840000000017991          81DNCBD8666317293            00184T    MC84000000017991 NDR549977133133   22735FC02AT5EBB0C4911DB  000000000+600450S00130    MCW  02182                     000000000  N                0000000000000.00 0000000.00   0000000.00                             000000000000000                                                                                                                                                   U001424  000000000000 0000000000004.78     02600 01000                  
00014540110400015DR67590675900000013300800102800000010122735FC02AT5EBB0C4911DB  Y000000000000                                                                                                                                                                                                                                                                                                                                                                                                                                                                                                                                                                                                                               
00014550110400001G2675906759000000133008001028000000101866-6317293              GA           9 W               210                                      NNNN           210000000000000000000000000                        7                                          77133133                                                                                                                                                                                                                                                                                                                                                                                                                                               
00014560110400016DT67590675900000013300800102800000010180010224001193186900014001779070420230000000747718623000000000433077414398XXXXXX4356               2111111   NYV4 A7W583183066088735N840000000007477L89P00    01DNCBD8666317293            531018    VD84000000007477 NDR549977133133   922183DC6FTB7C45BF952E9  000000000+                F DF 00415                     000000000  N000000000       0000000000000.00 0000000.00   0000000.00                             000000000000000                                                                                                                                                     01424 G000000007477 0000000000001.38     01650 01500                  
00014570110400016DR675906759000000133008001028000000101922183DC6FTB7C45BF952E9  Y000000007477                 P1                                                                                                                                                                                                                                                                                                                                                                                                                                                                                                                                                                                                            
00014580110400001P16759067590000001330080010280000001010000000000000000                             2000000000000000000000000              000000000000                    0000000000000000000000000                    000000000000                                                                                                                                                                                                                                                                                                                                                                                                                                                                                        
00014590110400002G2675906759000000133008001028000000101866-6317293              GA           9 D                00                                      NNNN   N                      000000000000                                                                   77133133                                                                                                                                                                                                                                                                                                                                                                                                                                               
00014600110400017DT67590675900000013300800102800000010180010224001193186900014001837070420230000001578618623000000000433077478975XXXXXX6256               2111111   NYV4 A7W463183087052499N840000000015786S6W900    01DNCBD8666317293            022505    VD84000000015786 NDR549977133133   78459F13A8T5F8C03B763B8  000000000+                F DF 00415                     000000000  N000000000       0000000000000.00 0000000.00   0000000.00                             000000000000000                                                                                                                                                     01424 G000000015786 0000000000002.75     01650 01500                  
00014610110400017DR67590675900000013300800102800000010178459F13A8T5F8C03B763B8  Y000000015786                 P1                                                                                                                                                                                                                                                                                                                                                                                                                                                                                                                                                                                                            
00014620110400001P16759067590000001330080010280000001010000000000000000                             2000000000000000000000000              000000000000                    0000000000000000000000000                    000000000000                                                                                                                                                                                                                                                                                                                                                                                                                                                                                        
00014630110400002G2675906759000000133008001028000000101866-6317293              GA           9 D                00                                      NNNN   N                      000000000000                                                                   77133133                                                                                                                                                                                                                                                                                                                                                                                                                                               
00014640110400018DT67590675900000013300800102800000010180010287287283186900014006068070420230000002456818623000000000433077515599XXXXXX4772       ME03KE06MS02      NY 4607AMPLZRLVCZ0704  N840000000024568          81DNCBD8666317293            07113B    MC84000000024568 NDR549977133133   137C49CB99TD01A9F885F8B  000000000+600450S00130    MPL  00580                     000000000  N                0000000000000.00 0000000.00   0000000.00                             000000000000000                                                                                                                                                   U001424  000000000000 0000000000005.26     02100 01000                  
00014650110400018DR675906759000000133008001028000000101137C49CB99TD01A9F885F8B  Y000000000000                                                                                                                                                                                                                                                                                                                                                                                                                                                                                                                                                                                                                               
00014660110400001G2675906759000000133008001028000000101866-6317293              GA           9 L               210                                      NNNN           210000000000000000000000000                        7                                          77133133                                                                                                                                                                                                                                                                                                                                                                                                                                               
00014670110400019DT67590675900000013300800102800000010180010224001193186900014006117070420230000002159918623000000000433077414734XXXXXX6800               2111111   NYV4 A7W583186027045986N840000000021599FBSH00    01DNCBD8666317293            09803D    VS84000000021599 NDR549977133133   AB891A8788T1EC339E458D8  000000000+                D CD 12109                     000000000  N000000000 498   0000000000000.00 0000000.00   0000000.00                             000000000000000                                                                                                                                                     01424 G000000021599 0000000000005.50     02500 01000                  
00014680110400019DR675906759000000133008001028000000101AB891A8788T1EC339E458D8  Y000000021599                 P1                                                                                                                                                                                                                                                                                                                                                                                                                                                                                                                                                                                                            
00014690110400001P16759067590000001330080010280000001010000000000000000                             2000000000000000000000000              000000000000                    0000000000000000000000000                    000000000000                                                                                                                                                                                                                                                                                                                                                                                                                                                                                        
00014700110400002G2675906759000000133008001028000000101866-6317293              GA           9 C                00                                      NNNN   Y                      000000000000                                                                   77133133                                                                                                                                                                                                                                                                                                                                                                                                                                               
00014710110400020DT67590675900000013300800102800000010680010274001193186900014006310070520230000001987018623000000000433077414720XXXXXX0257               0000000   NYV4 07T463186456136453N8400000000198705DK500    01CNCBD8666317293            00402A    VS84000000019870 NDR549977133133   B1060BE4E5T607C86CA7982  000000000+                A CA 00245                     000000000  N000000000 166   0000000000000.00 0000000.00   0000000.00                             000000000000000                                                                                                                                                     01424  000000019870-0000000000003.50     01760 00000                  
00014720110400020DR675906759000000133008001028000000106B1060BE4E5T607C86CA7982  Y000000019870                 P1                                                                                                                                                                                                                                                                                                                                                                                                                                                                                                                                                                                                            
00014730110400001P16759067590000001330080010280000001060000000000000000                             2000000000000000000000000              000000000000                    0000000000000000000000000                    000000000000                                                                                                                                                                                                                                                                                                                                                                                                                                                                                        
00014740110400002G2675906759000000133008001028000000106866-6317293              GA           9 C                00                                      NNNN   Y                      000000000000                                                                   77133133                                                                                                                                                                                                                                                                                                                                                                                                                                               
00014750110400021DT67590675900000013300800102800000010680010274001193186900014006328070520230000000129518623000000000433077470793XXXXXX8795               0000000   NYV4 07T303186491270986N8400000000012952D8400    01CNCBD8666317293            005352    VS84000000001295 NDR549977133133   866FA7F176T669A233A7EF9  000000000+                B CB 00245                     000000000  N000000000 166   0000000000000.00 0000000.00   0000000.00                             000000000000000                                                                                                                                                     01424  000000001295-0000000000000.23     01760 00000                  
00014760110400021DR675906759000000133008001028000000106866FA7F176T669A233A7EF9  U000000001295                 P1                                                                                                                                                                                                                                                                                                                                                                                                                                                                                                                                                                                                            
00014770110400001P16759067590000001330080010280000001060000000000000000                             2000000000000000000000000              000000000000                    0000000000000000000000000                    000000000000                                                                                                                                                                                                                                                                                                                                                                                                                                                                                        
00014780110400002G2675906759000000133008001028000000106866-6317293              GA           9 C                00                                      NNNN   N                      000000000000                                                                   77133133                                                                                                                                                                                                                                                                                                                                                                                                                                               
00014790110400022DT67590675900000013300800102800000010680010274001193186900014006344070520230000001198118623000000000433077480641XXXXXX2927               0000000   NYV4 07T303186502643788N8400000000119816RNQ00    01CNCBD8666317293            095744    VD84000000011981 NDR549977133133   EBC49BE507T2828F5D57BD7  000000000+                F DF 08168                     000000000  N000000000 369   0000000000000.00 0000000.00   0000000.00                             000000000000000                                                                                                                                                     01424  000000011981 0000000000000.00     00000 00000                  
00014800110400022DR675906759000000133008001028000000106EBC49BE507T2828F5D57BD7  Y000000011981                 P1                                                                                                                                                                                                                                                                                                                                                                                                                                                                                                                                                                                                            
00014810110400001P16759067590000001330080010280000001060000000000000000                             2000000000000000000000000              000000000000                    0000000000000000000000000                    000000000000                                                                                                                                                                                                                                                                                                                                                                                                                                                                                        
00014820110400002G2675906759000000133008001028000000106866-6317293              GA           9 D                00                                      NNNN   N                      000000000000                                                                   77133133                                                                                                                                                                                                                                                                                                                                                                                                                                               
00014830110400023DT67590675900000013300800102800000010180010224001193186900014006463070520230000002661118623000000000433077433477XXXXXX5310               2111111   NYV4 A7W303186548134284N840000000026611DXRL00    01DNCBD8666317293            292093    VD84000000026611 NDR549977133133   255A4CE3FAT8DFE98EE5331  000000000+                F DF 10420                     000000000  Y000000000 338   0000000000000.00 0000000.00   0000000.00                             000000000000000                                                                                                                                                     01424 G000000026611 0000000000000.35     00050 02200                  
00014840110400023DR675906759000000133008001028000000101255A4CE3FAT8DFE98EE5331  Y000000026611                 P1                                                                                                                                                                                                                                                                                                                                                                                                                                                                                                                                                                                                            
00014850110400001P16759067590000001330080010280000001010000000000000000                             2000000000000000000000000              000000000000                    0000000000000000000000000                    000000000000                                                                                                                                                                                                                                                                                                                                                                                                                                                                                        
00014860110400002G2675906759000000133008001028000000101866-6317293              GA           9 D                00                                      NNNN   N                      000000000000                                                                   77133133                                                                                                                                                                                                                                                                                                                                                                                                                                               
00014870110400024DT67590675900000013300800102800000010180010224001193186900014006539070520230000002146018623000000000433077441840XXXXXX2989               2111111   NYV4 A7W303186594799938N84000000002146037Z800    01DNCBD8666317293            700149    VS84000000021460 NDR549977133133   5DE6F8D50DT5334F85EDCC6  000000000+                A CA 12106                     000000000  N000000000 492   0000000000000.00 0000000.00   0000000.00                             000000000000000                                                                                                                                                     01424 G000000021460 0000000000004.16     01890 01000                  
00014880110400024DR6759067590000001330080010280000001015DE6F8D50DT5334F85EDCC6  Y000000021460                 P1                                                                                                                                                                                                                                                                                                                                                                                                                                                                                                                                                                                                            
00014890110400001P16759067590000001330080010280000001010000000000000000                             2000000000000000000000000              000000000000                    0000000000000000000000000                    000000000000                                                                                                                                                                                                                                                                                                                                                                                                                                                                                        
00014900110400002G2675906759000000133008001028000000101866-6317293              GA           9 C                00                                      NNNN   Y                      000000000000                                                                   77133133                                                                                                                                                                                                                                                                                                                                                                                                                                               
00014910110400025DT67590675900000013300800102800000010680010274001193186900014006542070520230000001254018623000000000433077410839XXXXXX9627               0000000   NYV4 07T383186598222895N8400000000125409ZLJ00    01CNCBD8666317293            024594    VD84000000012540 NDR549977133133   396CFB659AT83FB7C647CAE  000000000+                F DF 08168                     000000000  N000000000 369   0000000000000.00 0000000.00   0000000.00                             000000000000000                                                                                                                                                     01424  000000012540 0000000000000.00     00000 00000                  
00014920110400025DR675906759000000133008001028000000106396CFB659AT83FB7C647CAE  U000000012540                 P1                                                                                                                                                                                                                                                                                                                                                                                                                                                                                                                                                                                                            
00014930110400001P16759067590000001330080010280000001060000000000000000                             2000000000000000000000000              000000000000                    0000000000000000000000000                    000000000000                                                                                                                                                                                                                                                                                                                                                                                                                                                                                        
00014940110400002G2675906759000000133008001028000000106866-6317293              GA           9 D                00                                      NNNN   N                      000000000000                                                                   77133133                                                                                                                                                                                                                                                                                                                                                                                                                                               
00014950110400026DT67590675900000013300800102800000010180010287287283186900014006571070520230000001799118623000000000433077512106XXXXXX6984       ME03KE06MS02      NY 4607AMPLQ9T1ZD0705  N840000000017991          81DNCBD8666317293            00572B    MC84000000017991 NDR549977133133   050BD5B73CTBEDD06189F31  000000000+600450S00130    MPL  00580                     000000000  N                0000000000000.00 0000000.00   0000000.00                             000000000000000                                                                                                                                                   U001424  000000000000 0000000000003.88     02100 01000                  
00014960110400026DR675906759000000133008001028000000101050BD5B73CTBEDD06189F31  Y000000000000                                                                                                                                                                                                                                                                                                                                                                                                                                                                                                                                                                                                                               
00014970110400001G2675906759000000133008001028000000101866-6317293              GA           9 L               210                                      NNNN           210000000000000000000000000                        7                                          77133133                                                                                                                                                                                                                                                                                                                                                                                                                                               
00014980110400027DT67590675900000013300800102800000010180010224001193186900014006596070520230000001534518623000000000433077480213XXXXXX8134       EF10    2111111   NYV4 A7W383186639048366N840000000015345ZNW600    01DNCBD8666317293            051397    VB84000000015345 NDR549977133133   182426A223TEF88CD1731BC  000000000+                G CG 00476                     000000000  N000000000 170   0000000000000.00 0000000.00   0000000.00                             000000000000000                                                                                                                                                     01424 G000000015345 0000000000003.02     01900 01000                  
00014990110400027DR675906759000000133008001028000000101182426A223TEF88CD1731BC  Y000000015345                 P1                                                                                                                                                                                                                                                                                                                                                                                                                                                                                                                                                                                                            
00015000110400001P16759067590000001330080010280000001010000000000000000                             1000000000742000000000000              000000000000                    0000000000000000000000000                    000000000000                                                                                                                                                                                                                                                                                                                                                                                                                                                                                        
00015010110400002G2675906759000000133008001028000000101866-6317293              GA           9 C                00                                      NNNN   Y                      000000000000                                                                   77133133                                                                                                                                                                                                                                                                                                                                                                                                                                               
00015020110400028DT67590675900000013300800102800000010680010287287283186900014006621070520230000002106218623000000000433077546386XXXXXX5163                         NY 4607AMDJM7YJYQ0705  N840000000021062          81CNCBD8666317293            040505    MD84000000021062 NDR549977133133   FD43AC6386TA84C1939CBA1  000000000+600450S00130    MDJ  00560                     000000000  N                0000000000000.00 0000000.00   0000000.00                             000000000000000                                                                                                                                                     01424  000000000000 0000000000000.00     00000 00000                  
00015030110400028DR675906759000000133008001028000000106FD43AC6386TA84C1939CBA1  Y000000000000                                                                                                                                                                                                                                                                                                                                                                                                                                                                                                                                                                                                                               
00015040110400001G2675906759000000133008001028000000106866-6317293              GA           9 J               210                                      NNNN           210000000000000000000000000                        7                                          77133133                                                                                                                                                                                                                                                                                                                                                                                                                                               
00015050110400029DT67590675900000013300800102800000010180010287287283186900014006688070520230000002175818623000000000433077521379XXXXXX7443       ME03KE06MS02      NY 4607AMPLDTR3K60705  N840000000021758          81DNCBD8666317293            00575Z    MC84000000021758 NDR549977133133   8820C7B471TFF68E5DC6AC8  000000000+600450S00130    MPL  00013                     000000000  N                0000000000000.00 0000000.00   0000000.00                             000000000000000                                                                                                                                                   U001424  000000000000 0000000000004.34     01950 01000                  
00015060110400029DR6759067590000001330080010280000001018820C7B471TFF68E5DC6AC8  Y000000000000                                                                                                                                                                                                                                                                                                                                                                                                                                                                                                                                                                                                                               
00015070110400001G2675906759000000133008001028000000101866-6317293              GA           9 L               210                                      NNNN           210000000000000000000000000                        7                                          77133133                                                                                                                                                                                                                                                                                                                                                                                                                                               
00015080110400030DT67590675900000013300800102800000010680010274001193186900014006732070520230000002136018623000000000433077423908XXXXXX8058               0000000   NYV4 07T583186712853469N840000000021360ZJH400    01CNCBD8666317293            046575    VD84000000021360 NDR549977133133   56DA8AB378TB0A5D79DAFA1  000000000+                F DF 08168                     000000000  Y000000000 369   0000000000000.00 0000000.00   0000000.00                             000000000000000                                                                                                                                                     01424  000000021360 0000000000000.00     00000 00000                  
00015090110400030DR67590675900000013300800102800000010656DA8AB378TB0A5D79DAFA1  Z000000021360                 P1                                                                                                                                                                                                                                                                                                                                                                                                                                                                                                                                                                                                            
00015100110400001P16759067590000001330080010280000001060000000000000000                             2000000000000000000000000              000000000000                    0000000000000000000000000                    000000000000                                                                                                                                                                                                                                                                                                                                                                                                                                                                                        
00015110110400002G2675906759000000133008001028000000106866-6317293              GA           9 D                00                                      NNNN   N                      000000000000                                                                   77133133                                                                                                                                                                                                                                                                                                                                                                                                                                               
00015120110400031DT67590675900000013300800102800000010180010224001193186900014006802070520230000002175818623000000000433077434258XXXXXX3998               2111111   NYV4 A7W303186723817996N840000000021758G98J00    01DNCBD8666317293            074672    VD84000000021758 NDR549977133133   E60462F54ETFB7C7D076E45  000000000+                F DF 10420                     000000000  Y000000000 338   0000000000000.00 0000000.00   0000000.00                             000000000000000                                                                                                                                                     01424 G000000021758 0000000000000.33     00050 02200                  
00015130110400031DR675906759000000133008001028000000101E60462F54ETFB7C7D076E45  Y000000021758                 P1                                                                                                                                                                                                                                                                                                                                                                                                                                                                                                                                                                                                            
00015140110400001P16759067590000001330080010280000001010000000000000000                             2000000000000000000000000              000000000000                    0000000000000000000000000                    000000000000                                                                                                                                                                                                                                                                                                                                                                                                                                                                                        
00015150110400002G2675906759000000133008001028000000101866-6317293              GA           9 D                00                                      NNNN   N                      000000000000                                                                   77133133                                                                                                                                                                                                                                                                                                                                                                                                                                               
00015160110400032DT67590675900000013300800102800000010180010224001193186900014006927070520230000002121118623000000000433077499938XXXXXX8761               2111111   NYV4 A7W383186757022333N840000000021211SDXZ00    01DNCBD8666317293            311286    VD84000000021211 NDR549977133133   4AD77722A9T59451AD45BF1  000000000+                F DF 10420                     000000000  Y000000000 338   0000000000000.00 0000000.00   0000000.00                             000000000000000                                                                                                                                                     01424 G000000021211 0000000000000.33     00050 02200                  
00015170110400032DR6759067590000001330080010280000001014AD77722A9T59451AD45BF1  Y000000021211                 P1                                                                                                                                                                                                                                                                                                                                                                                                                                                                                                                                                                                                            
00015180110400001P16759067590000001330080010280000001010000000000000000                             2000000000000000000000000              000000000000                    0000000000000000000000000                    000000000000                                                                                                                                                                                                                                                                                                                                                                                                                                                                                        
00015190110400002G2675906759000000133008001028000000101866-6317293              GA           9 D                00                                      NNNN   N                      000000000000                                                                   77133133                                                                                                                                                                                                                                                                                                                                                                                                                                               
00015200110400033DT67590675900000013300800102800000010180010287287283186900014006993070520230000002023518623000000000433077530654XXXXXX6710                         NY 4607AMDBZY6VZD0705  N840000000020235          81DNCBD8666317293            391508    MD84000000020235 NDR549977133133   32DF15F1C4T67C95CA59740  000000000+600450S00130    MDB  10786                     000000000  1                0000000000000.00 0000000.00   0000000.00                             000000000000000                                                                                                                                                   U001424  000000000000 0000000000000.32     00050 02200                  
00015210110400033DR67590675900000013300800102800000010132DF15F1C4T67C95CA59740  N000000000000                 P1                                                                                                                                                                                                                                                                                                                                                                                                                                                                                                                                                                                                            
00015220110400001P1675906759000000133008001028000000101                                                          000000000000          8000            871584967                                                                                                                                                                                                                                                                                                                                                                                                                                                                                                                                                            
00015230110400002G2675906759000000133008001028000000101866-6317293              GA           9 B               210                  871584967           YNNN           210000000000000000000000000                        7                                          77133133                                                                                                                                                                                                                                                                                                                                                                                                                                               
00015240110400034DT67590675900000013300800102800000010180010224001193186900014007131070520230000002146018623000000000433077478200XXXXXX0044               2111111   NYV4 A7W303186819040423N840000000021460WMFS00    01DNCBD8666317293            044518    VD84000000021460 NDR549977133133   C41406968FT3E7C359106B1  000000000+                F DF 10420                     000000000  Y000000000 338   0000000000000.00 0000000.00   0000000.00                             000000000000000                                                                                                                                                     01424 G000000021460 0000000000000.33     00050 02200                  
00015250110400034DR675906759000000133008001028000000101C41406968FT3E7C359106B1  Y000000021460                 P1                                                                                                                                                                                                                                                                                                                                                                                                                                                                                                                                                                                                            
00015260110400001P16759067590000001330080010280000001010000000000000000                             2000000000000000000000000              000000000000                    0000000000000000000000000                    000000000000                                                                                                                                                                                                                                                                                                                                                                                                                                                                                        
00015270110400002G2675906759000000133008001028000000101866-6317293              GA           9 D                00                                      NNNN   N                      000000000000                                                                   77133133                                                                                                                                                                                                                                                                                                                                                                                                                                               
00015280110400035DT67590675900000013300800102800000010180010287287283186900014007173070520230000001987018623000000000433077546427XXXXXX4124       ME03KE06MS02      NY 4607AMDJDN494N0705  N840000000019870          81DNCBD8666317293            054541    MD84000000019870 NDR549977133133   A4C70931C4TD15E3C6A318A  000000000+600450S00130    MDJ  00401                     000000000  N                0000000000000.00 0000000.00   0000000.00                             000000000000000                                                                                                                                                   U001424  000000000000 0000000000003.43     01650 01500                  
00015290110400035DR675906759000000133008001028000000101A4C70931C4TD15E3C6A318A  Y000000000000                                                                                                                                                                                                                                                                                                                                                                                                                                                                                                                                                                                                                               
00015300110400001G2675906759000000133008001028000000101866-6317293              GA           9 J               210                                      NNNN           210000000000000000000000000                        7                                          77133133                                                                                                                                                                                                                                                                                                                                                                                                                                               
00015310110400036DT67590675900000013300800102800000010180010224001193186900014007206070520230000002636218623000000000433077408181XXXXXX4920               2111111   NYV4 A7W303186828046219N840000000026362Z3RX00    01DNCBD8666317293            815000    VS84000000026362 NDR549977133133   E784F67671T4A1FC65681EA  000000000+                A CA 12106                     000000000  N000000000 492   0000000000000.00 0000000.00   0000000.00                             000000000000000                                                                                                                                                     01424 G000000026362 0000000000005.08     01890 01000                  
00015320110400036DR675906759000000133008001028000000101E784F67671T4A1FC65681EA  N000000026362                 P1                                                                                                                                                                                                                                                                                                                                                                                                                                                                                                                                                                                                            
00015330110400001P16759067590000001330080010280000001010000000000000000                             2000000000000000000000000              000000000000                    0000000000000000000000000                    000000000000                                                                                                                                                                                                                                                                                                                                                                                                                                                                                        
00015340110400002G2675906759000000133008001028000000101866-6317293              GA           9 C                00                                      NNNN   Y                      000000000000                                                                   77133133                                                                                                                                                                                                                                                                                                                                                                                                                                               
00015350110400037DT67590675900000013300800102800000010180010224001193186900014007230070520230000002092318623000000000433077402321XXXXXX8792               2111111   NYV4 A7W303186842555257N840000000020923KTMC00    01DNCBD8666317293            013921    VD84000000020923 NDR549977133133   FABAC271C2TDAB7F0F0433F  000000000+                F DF 10420                     000000000  Y000000000 338   0000000000000.00 0000000.00   0000000.00                             000000000000000                                                                                                                                                     01424 G000000020923 0000000000000.32     00050 02200                  
00015360110400037DR675906759000000133008001028000000101FABAC271C2TDAB7F0F0433F  Y000000020923                 P1                                                                                                                                                                                                                                                                                                                                                                                                                                                                                                                                                                                                            
00015370110400001P16759067590000001330080010280000001010000000000000000                             2000000000000000000000000              000000000000                    0000000000000000000000000                    000000000000                                                                                                                                                                                                                                                                                                                                                                                                                                                                                        
00015380110400002G2675906759000000133008001028000000101866-6317293              GA           9 D                00                                      NNNN   N                      000000000000                                                                   77133133                                                                                                                                                                                                                                                                                                                                                                                                                                               
00015390110400038BH6759067590000001619680010280000090170705202318623000000000349537    0000090001866494Y8001026759C07062023086                                                                                                                                                                                                                                                                                                                                                                                                                                                                                                                                                                                              
00015400110400039DT67590675900000016196800102800000010180010224001193186900018661008070420230000001499118623000000000349537424631XXXXXX2758               2111111   NYV4 A7W583182474050331N840000000014991GHN900    01DNGREEN OTTER LLC          00165G    VB84000000014991 NDR549977424386   AAFDBAE6FBT5F98CCDDF5B7  000000000+                G CG 00690                     000000000  N000000000 231   0000000000000.00 0000000.00   0000000.00                             000000000000000                                                                                                                                                     01424 G000000014991 0000000000004.07     02650 01000                  
00015410110400039DR675906759000000161968001028000000101AAFDBAE6FBT5F98CCDDF5B7  Y000000014991                 P1                                                                                                                                                                                                                                                                                                                                                                                                                                                                                                                                                                                                            
00015420110400001P16759067590000001619680010280000001010000000000000000                             2000000000000000000000000              000000000000                    0000000000000000000000000                    000000000000                                                                                                                                                                                                                                                                                                                                                                                                                                                                                        
00015430110400002G2675906759000000161968001028000000101866-6317293              GA           9 C                00                                      NNNN   Y                      000000000000                                                                   77424386                                                                                                                                                                                                                                                                                                                                                                                                                                               
00015440110400040DT67590675900000016196800102800000010180010287287283186900018661066070420230000002126118623000000000349537521333XXXXXX7125       ME03KE06MS02      NY 4607AMWERAKMPL0701  N840000000021261          81DNGREEN OTTER LLC          00120Y    MC84000000021261 NDR549977424386   48A7C9D8D3TE92C783397F1  000000000+600450S00130    MWE  00642                     000000000  N                0000000000000.00 0000000.00   0000000.00                             000000000000000                                                                                                                                                   U001424  000000000000 0000000000004.78     02200 01000                  
00015450110400040DR67590675900000016196800102800000010148A7C9D8D3TE92C783397F1  N000000000000                                                                                                                                                                                                                                                                                                                                                                                                                                                                                                                                                                                                                               
00015460110400001G2675906759000000161968001028000000101866-6317293              GA           9 E               210                                      NNNN           210000000000000000000000000                        7                                          77424386                                                                                                                                                                                                                                                                                                                                                                                                                                               
00015470110400041DT67590675900000016196800102800000010180010224001193186900018663988070420230000002487018623000000000349537464719XXXXXX4999               2111111   NYV4 A7W383186078566094N840000000024870N6W800    01DNGREEN OTTER LLC          166428    VD84000000024870 NDR549977424386   BF418F6FDAT405DAE6CE171  000000000+                F DF 00415                     000000000  N000000000       0000000000000.00 0000000.00   0000000.00                             000000000000000                                                                                                                                                     01424 G000000024870 0000000000004.25     01650 01500                  
00015480110400041DR675906759000000161968001028000000101BF418F6FDAT405DAE6CE171  Y000000024870                 P1                                                                                                                                                                                                                                                                                                                                                                                                                                                                                                                                                                                                            
00015490110400001P16759067590000001619680010280000001010000000000000000                             2000000000000000000000000              000000000000                    0000000000000000000000000                    000000000000                                                                                                                                                                                                                                                                                                                                                                                                                                                                                        
00015500110400002G2675906759000000161968001028000000101866-6317293              GA           9 D                00                                      NNNN   N                      000000000000                                                                   77424386                                                                                                                                                                                                                                                                                                                                                                                                                                               
00015510110400042DT67590675900000016196800102800000010680010287287283186900018664003070420230000002071018623000000000349537521853XXXXXX7235                         NY 4607AMPLAYVSQP0704  N840000000020710          81CNGREEN OTTER LLC          004256    MC84000000020710 NDR549977424386   D37ADA1431TBA35BFCFCCD8  000000000+600450S00130    MPL  00565                     000000000  N                0000000000000.00 0000000.00   0000000.00                             000000000000000                                                                                                                                                     01424  000000000000-0000000000003.62     01750 00000                  
00015520110400042DR675906759000000161968001028000000106D37ADA1431TBA35BFCFCCD8  R000000000000                                                                                                                                                                                                                                                                                                                                                                                                                                                                                                                                                                                                                               
00015530110400001G2675906759000000161968001028000000106866-6317293              GA           9 L               210                                      NNNN           210000000000000000000000000                        7                                          77424386                                                                                                                                                                                                                                                                                                                                                                                                                                               
