00003600036680002BH6759067590000001857280010580000090170403202309323000000000007222    0000090001260004N8001056759C04032023                                                                                                                                                                                                                                                                                                                                                                                                                                                                                                                                                                                                 
00003610036680003DT67590675900000018572800105800000010180010524001193093900012600012040220230000000248109323000000000007222444796XXXXXX8819       VS11    0001111   NYV1 A E383092780775925N840000000002481W9HW00    05DNGALLERY SMOKE SHOP LLC   002304    VS84000000002481 N  599977453598                            000000000+                A CA 12110                     000000000  N000000000 493   0000000000000.00 0000000.00   0000000.00                             000000000000000                                                                                                                                                     01424 A000000000000 0000000000000.47     01510 01000                  
00003620036680004DT67590675900000018572800105800000010180010577287283093900012600022040220230000000192509323000000000007222523081XXXXXX3135       MS02WI09          NY 1 0 AMPLE640HS0402  N840000000001925          07DNGALLERY SMOKE SHOP LLC   05108Z    MC84000000001925 N  599977453598                            000000000+M10101M0034C    MPL  00015                     000000000  N                0000000000000.00 0000000.00   0000000.00                             000000000000000                                                                                                                                                   B101424  000000000000 0000000000000.42     01650 01000                  
00003630036680005DT67590675900000018572800105800000010180010577287283093900012600030040220230000000271009323000000000007222525363XXXXXX0771       MS02WI09          NY 1 0 AMWEFFHKHS0402  N840000000002710          05DNGALLERY SMOKE SHOP LLC   51067Z    MC84000000002710 N  599977453598                            000000000+M10101C0034C    MWE  00739                     000000000  N                0000000000000.00 0000000.00   0000000.00                             000000000000000                                                                                                                                                   B101424  000000000000 0000000000000.72     02300 01000                  
00003640036680006DT67590675900000018572800105800000033080010576759003093900012600041040220230000000010609323000000000007222545568XXXXXX6694                         NY42 0 N               N840000000000106      ME  05DNGALLERY SMOKE SHOP LLC   785588    DB84000000000106 N  599977453598                            000000000+                     09597                                N                0000000000000.00 0000000.00   0000000.00                             000000000000000                                                                                                                                                     01424  000000000000 0000000000000.16     00900 00000                  
00003650036680007BH6759067590000000995180010180000090170403202309323000000000016451    0000090001170004N8001016759C04032023                                                                                                                                                                                                                                                                                                                                                                                                                                                                                                                                                                                                 
00003660036680008DT67590675900000009951800101800000010180010124001193093900011700011040220230000000863609323000000000016451403766XXXXXX7884       VS11    0001111   NYV1 A E463092626104105N84000000000863673B200    07DNPLANET VAPOR INC #600    212032    VS84000000008636 N  599977384956                            000000000+                A CA 12110                     000000000  N000000000 493   0000000000000.00 0000000.00   0000000.00                             000000000000000                                                                                                                                                     01424 A000000000000 0000000000001.40     01510 01000                  
00003670036680009DT67590675900000009951800101800000010180010124001193093900011700029040220230000000184609323000000000016451448233XXXXXX2001       VS11    0001111   NYV1 A E383092648946060N840000000001846NTZG00    07DNPLANET VAPOR INC #600    030134    VD84000000001846 N  599977384956                            000000000+                F DF 10433                     000000000  Y000000000 338   0000000000000.00 0000000.00   0000000.00                             000000000000000                                                                                                                                                     01424 A000000000000 0000000000000.23     00050 02200                  
00003680036680010DT67590675900000009951800101800000010180010124001193093900011700037040220230000000354009323000000000016451410881XXXXXX5311       VS11    0001111   NYV1 A E303092652128061N840000000003540HGTW00    07DNPLANET VAPOR INC #600    071149    VD84000000003540 N  599977384956                            000000000+                F DF 00381                     000000000  N000000000       0000000000000.00 0000000.00   0000000.00                             000000000000000                                                                                                                                                     01424 A000000000000 0000000000000.43     00800 01500                  
00003690036680011DT67590675900000009951800101800000010180010124001193093900011700045040220230000000242909323000000000016451433477XXXXXX1802       VS11    0001111   NYV1 A E583092750561816N84000000000242965BX00    05DNPLANET VAPOR INC #600    298645    VD84000000002429 N  599977384956                            000000000+                F DF 10433                     000000000  Y000000000 338   0000000000000.00 0000000.00   0000000.00                             000000000000000                                                                                                                                                     01424 A000000000000 0000000000000.23     00050 02200                  
00003700036680012BH6759067590000001165080088880000090170403202309323000000000112510    0000090001510025N8008886759C04032023                                                                                                                                                                                                                                                                                                                                                                                                                                                                                                                                                                                                 
00003710036680013DT67590675900000011650800888800000010180088877287283093900015100012040120230000000283009323000000000112510518941XXXXXX8791       MS02WI09          NY 1 0 AMWEMS7QYQ0401  N840000000002830          07DNVPODS HOLDING INC        12562Z    MC84000000002830 N  599977032122                            000000000+M10101M0034C    MWE  00739                     000000000  N                0000000000000.00 0000000.00   0000000.00                             000000000000000                                                                                                                                                   B101424  000000000000 0000000000000.75     02300 01000                  
00003720036680014DT67590675900000011650800888800000010180088824001193093900015100028040120230000001019009323000000000112510414720XXXXXX8182       VS11    0001111   NYV1 A E383092140921301N84000000001019085PG00    05DNVPODS HOLDING INC        03587C    VS84000000010190 N  599977032122                            000000000+                C CC 12112                     000000000  N000000000 497   0000000000000.00 0000000.00   0000000.00                             000000000000000                                                                                                                                                     01424 A000000000000 0000000000001.78     01650 01000                  
00003730036680015DT67590675900000011650800888800000010180088877287283093900015100038040120230000000283009323000000000112510546616XXXXXX5982       MS02WI09          NY 1 0 AMWESEDZYL0401  N840000000002830          07DNVPODS HOLDING INC        08139P    MC84000000002830 N  599977032122                            000000000+M10101M0034C    MWE  00739                     000000000  N                0000000000000.00 0000000.00   0000000.00                             000000000000000                                                                                                                                                   B101424  000000000000 0000000000000.75     02300 01000                  
00003740036680016DT67590675900000011650800888800000010180088877287283093900015100046040120230000000113109323000000000112510546616XXXXXX5982       MS02WI09          NY 1 0 AMWES06H5M0401  N840000000001131          07DNVPODS HOLDING INC        98183P    MC84000000001131 N  599977032122                            000000000+M10101M0034C    MWE  00739                     000000000  N                0000000000000.00 0000000.00   0000000.00                             000000000000000                                                                                                                                                   B101424  000000000000 0000000000000.36     02300 01000                  
00003750036680017DT67590675900000011650800888800000010180088824001193093900015100051040120230000000056609323000000000112510426684XXXXXX6960       VK04VS111111111   NYV1 A E463092153022924N840000000000566SMJN00    07DNVPODS HOLDING INC        05071B    VS84000000000566 N  599977032122                            000000000+                B CB 12111                     000000000  N000000000 495   0000000000000.00 0000000.00   0000000.00                             000000000000000                                                                                                                                                     01424 F000000000000 0000000000000.19     01650 01000                  
00003760036680018DT67590675900000011650800888800000010180088824001193093900015100069040120230000000115009323000000000112510426684XXXXXX6960       VK04VS111111111   NYV1 A E463092153974725N840000000001150GRFZ00    07DNVPODS HOLDING INC        09135B    VS84000000001150 N  599977032122                            000000000+                B CB 12111                     000000000  N000000000 495   0000000000000.00 0000000.00   0000000.00                             000000000000000                                                                                                                                                     01424 F000000000000 0000000000000.29     01650 01000                  
00003770036680019DT67590675900000011650800888800000010180088877287283093900015100079040120230000000283009323000000000112510517546XXXXXX1013       MS02WI09          NY 1 0 AMDJNFI0YQ0401  N840000000002830          07DNVPODS HOLDING INC        001686    MD84000000002830 N  599977032122                            000000000+M10101M0034C    MDJ  10815                     000000000  1                0000000000000.00 0000000.00   0000000.00                             000000000000000                                                                                                                                                   B101424  000000000000 0000000000000.23     00050 02200                  
00003780036680020DT67590675900000011650800888800000010180088824001193093900015100085040220230000000257509323000000000112510465992XXXXXX9020       VS11    0001111   NYV1 A E463092620080321N8400000000025755PSK00    07DNVPODS HOLDING INC        177958    VD84000000002575 N  599977032122                            000000000+                F DF 00381                     000000000  N000000000       0000000000000.00 0000000.00   0000000.00                             000000000000000                                                                                                                                                     01424 A000000000000 0000000000000.36     00800 01500                  
00003790036680021DT67590675900000011650800888800000010180088824001193093900015100093040220230000000257509323000000000112510434236XXXXXX6203       VS11    0001111   NYV1 A E383092620633486N8400000000025756XTQ00    07DNVPODS HOLDING INC        099594    VD84000000002575 N  599977032122                            000000000+                F DF 00381                     000000000  N000000000       0000000000000.00 0000000.00   0000000.00                             000000000000000                                                                                                                                                     01424 A000000000000 0000000000000.36     00800 01500                  
00003800036680022DT67590675900000011650800888800000010180088824001193093900015100101040220230000000452809323000000000112510414720XXXXXX0495       VS11    0001111   NYV1 A E583092657183644N8400000000045284FPV00    07DNVPODS HOLDING INC        05544C    VS84000000004528 N  599977032122                            000000000+                C CC 12112                     000000000  N000000000 497   0000000000000.00 0000000.00   0000000.00                             000000000000000                                                                                                                                                     01424 A000000000000 0000000000000.85     01650 01000                  
00003810036680023DT67590675900000011650800888800000010180088824001193093900015100119040220230000000772409323000000000112510419002XXXXXX5021       VS11    0001111   NYV1 A E583092731702027N8400000000077247G3C00    07DNVPODS HOLDING INC        002113    VD84000000007724 N  599977032122                            000000000+                F DF 10433                     000000000  Y000000000 338   0000000000000.00 0000000.00   0000000.00                             000000000000000                                                                                                                                                     01424 A000000000000 0000000000000.26     00050 02200                  
00003820036680024DT67590675900000011650800888800000010180088824001193093900015100127040220230000000566009323000000000112510498422XXXXXX9071       VS11    0001111   NYV1 A E303092737260569N8400000000056604X6300    07DNVPODS HOLDING INC        05407I    VS84000000005660 N  599977032122                            000000000+                I CI 12113                     000000000  N000000000 499   0000000000000.00 0000000.00   0000000.00                             000000000000000                                                                                                                                                     01424 A000000000000 0000000000001.29     02100 01000                  
00003830036680025DT67590675900000011650800888800000010180088824001193093900015100135040220230000000505909323000000000112510414720XXXXXX4041       VS11    0001111   NYV1 A E383092739096391N8400000000050598SSM00    07DNVPODS HOLDING INC        04484C    VS84000000005059 N  599977032122                            000000000+                C CC 12112                     000000000  N000000000 497   0000000000000.00 0000000.00   0000000.00                             000000000000000                                                                                                                                                     01424 A000000000000 0000000000000.93     01650 01000                  
00003840036680026DT67590675900000011650800888800000010180088824001193093900015100143040220230000002276009323000000000112510478200XXXXXX9071       VS11    0001111   NYV1 A E583092758934563N840000000022760CMMN00    05DNVPODS HOLDING INC        030417    VD84000000022760 N  599977032122                            000000000+                F DF 10433                     000000000  Y000000000 338   0000000000000.00 0000000.00   0000000.00                             000000000000000                                                                                                                                                     01424 A000000000000 0000000000000.33     00050 02200                  
00003850036680027DT67590675900000011650800888800000010180088824001193093900015100150040220230000001019109323000000000112510426684XXXXXX3794       VS11    0001111   NYV1 A E583092782363227N840000000010191D82R00    05DNVPODS HOLDING INC        00709B    VS84000000010191 N  599977032122                            000000000+                B CB 12111                     000000000  N000000000 495   0000000000000.00 0000000.00   0000000.00                             000000000000000                                                                                                                                                     01424 A000000000000 0000000000001.78     01650 01000                  
00003860036680028DT67590675900000011650800888800000010180088824001193093900015100168040220230000000283009323000000000112510490624XXXXXX7490       VS11    0001111   NYV1 A E303092793206588N840000000002830XJFZ00    07DNVPODS HOLDING INC        06030C    VS84000000002830 N  599977032122                            000000000+                C CC 12112                     000000000  N000000000 497   0000000000000.00 0000000.00   0000000.00                             000000000000000                                                                                                                                                     01424 A000000000000 0000000000000.57     01650 01000                  
00003870036680029DT67590675900000011650800888800000010180088824001193093900015100176040220230000000600009323000000000112510414720XXXXXX1590       VS11    0001111   NYV1 A E583092808318132N840000000006000KCGF00    07DNVPODS HOLDING INC        01360D    VS84000000006000 N  599977032122                            000000000+                D CD 12113                     000000000  N000000000 499   0000000000000.00 0000000.00   0000000.00                             000000000000000                                                                                                                                                     01424 A000000000000 0000000000001.36     02100 01000                  
00003880036680030DT67590675900000011650800888800000010180088873011003093900015100180040220230000000283009323000000000112510373969XXXXX1008                          NY 1 0 N006929349469076N840000000002830          05DNVPODS HOLDINGS INC       864432    AM84000000002830 N  599977032122                            000000000+51010155434C 258     11261                     000000000                   0000000000000.00 0000000.00   0000000.00                             000000000000000 61248972086759675900000011650 VPODS HOLDINGS INC       2527 N LINCOLN AVE       7732092463      60614     SMOKEDREAMS2@ICLOUD.COM                   01424  000000000000 0000000000000.55     01600 00000                  
00003890036680031DT67590675900000011650800888800000010180088824001193093900015100192040220230000000257409323000000000112510491712XXXXXX1435       VS11    0001111   NYV1 A E383092833251193N840000000002574JRWJ00    07DNVPODS HOLDING INC        050819    VD84000000002574 N  599977032122                            000000000+                F DF 10433                     000000000  Y000000000 338   0000000000000.00 0000000.00   0000000.00                             000000000000000                                                                                                                                                     01424 A000000000000 0000000000000.23     00050 02200                  
00003900036680032DT67590675900000011650800888800000010180088824001193093900015100200040220230000000067809323000000000112510491712XXXXXX1435       VK04VS111111111   NYV1 A E303092833531837N84000000000067869QX00    07DNVPODS HOLDING INC        030919    VD84000000000678 N  599977032122                            000000000+                F DF 10439                     000000000  Y000000000 331   0000000000000.00 0000000.00   0000000.00                             000000000000000                                                                                                                                                     01424 F000000000000 0000000000000.22     00050 02200                  
00003910036680033DT67590675900000011650800888800000010180088824001193093900015100218040220230000000283009323000000000112510405413XXXXXX3369       VS11    0001111   NYV1 A E583092863076087N840000000002830KWTG00    07DNVPODS HOLDING INC        04831D    VS84000000002830 N  599977032122                            000000000+                D CD 12113                     000000000  N000000000 499   0000000000000.00 0000000.00   0000000.00                             000000000000000                                                                                                                                                     01424 A000000000000 0000000000000.69     02100 01000                  
00003920036680034DT67590675900000011650800888800000010180088877287283093900015100228040220230000000566209323000000000112510520020XXXXXX4216       MS02WI09          NY 1 0 AMWEF3CHHS0402  N840000000005662          07DNVPODS HOLDING INC        01879P    MC84000000005662 N  599977032122                            000000000+M10101M1134C    MWE  00739                     000000000  N                0000000000000.00 0000000.00   0000000.00                             000000000000000                                                                                                                                                   A101424  000000000000 0000000000001.40     02300 01000                  
00003930036680035DT67590675900000011650800888800000010180088873011003093900015100230040220230000000283009323000000000112510373917XXXXX1001                          NY 1 0 N007484875730060N840000000002830          07DNVPODS HOLDINGS INC       888421    AM84000000002830 N  599977032122                            000000000+51010X50034C 258     11261                     000000000                   0000000000000.00 0000000.00   0000000.00                             000000000000000 61248972086759675900000011650 VPODS HOLDINGS INC       2527 N LINCOLN AVE       7732092463      60614     SMOKEDREAMS2@ICLOUD.COM                   01424  000000000000 0000000000000.55     01600 00000                  
00003940036680036DT67590675900000011650800888800000010180088877287283093900015100244040220230000000084609323000000000112510517805XXXXXX0615       MS02WI09          NY 1 0 AMPLDR8YST0402  N840000000000846          07DNVPODS HOLDING INC        03238B    MC84000000000846 N  599977032122                            000000000+M10101M0034C    MPL  00353                     000000000  N                0000000000000.00 0000000.00   0000000.00                             000000000000000                                                                                                                                                   B101424  000000000000 0000000000000.25     01800 01000                  
00003950036680037DT67590675900000011650800888800000010180088824001193093900015100259040220230000000283109323000000000112510414720XXXXXX1276       VS11    0001111   NYV1 A E463093091369209N840000000002831K8WD00    05DNVPODS HOLDING INC        06510C    VS84000000002831 N  599977032122                            000000000+                C CC 12112                     000000000  N000000000 497   0000000000000.00 0000000.00   0000000.00                             000000000000000                                                                                                                                                     01424 A000000000000 0000000000000.57     01650 01000                  
