06531860716624154AD675906759000000151648008888000009071900010682660000000654807302023NYY21123ND6759800888080120232023209023861                                                                                                                                                                                                                                                                                                                                                                                                                                                                                                                                                                                              
06531870716624157AD675906759000000198288001098000009071900017902170000001987007302023NYY21123ND6759800109080120232023209023862                                                                                                                                                                                                                                                                                                                                                                                                                                                                                                                                                                                              
06531880716624160AD675906759000000151648008888000009071900010682670000000259507302023NYY21123ND6759800888080120232023209023863                                                                                                                                                                                                                                                                                                                                                                                                                                                                                                                                                                                              
06531890716624163AD675906759000000133008001028000009071900012883950000001491307302023NYY21123ND6759800102080120232023209023864                                                                                                                                                                                                                                                                                                                                                                                                                                                                                                                                                                                              
06531900716624166AD675906759000000161968001028000009071900016237030000001987007302023NYY21123ND6759800102080120232023209023865                                                                                                                                                                                                                                                                                                                                                                                                                                                                                                                                                                                              
06531910716624169AD675906759000000133008001028000009071900013702270000002487007302023NYY21123ND6759800102080120232023209023867                                                                                                                                                                                                                                                                                                                                                                                                                                                                                                                                                                                              
06531920716624172AD675906759000000142748001028000009071900013789890000000129507302023NYY21123ND6759800102080120232023209023868                                                                                                                                                                                                                                                                                                                                                                                                                                                                                                                                                                                              
06531930716624175AD675906759000000161968001028000009071900018361610000000999807302023NYY21123ND6759800102080120232023209023869                                                                                                                                                                                                                                                                                                                                                                                                                                                                                                                                                                                              
06531940718385308BH6759067590000001516480088880000090170731202321223000000000020785    0000090001469122N8008886759D08012023146                                                                                                                                                                                                                                                                                                                                                                                                                                                                                                                                                                                              
06531950718385309DT67590675900000015164800888800000010680088887287283212900014691222072820230000002078521223000000000020785524300XXXXXX9037                         YY 4607AMPLBCY0A20728  N840000000020785          81CNKETOFUSION833-923-3587   028915    MC84000000020785 NDR599977360677   973635A559T7B1F03F1FE00  000000000+600450S00130    MPL  00564                     000000000  N                0000000000000.00 0000000.00   0000000.00                             000000000000000                                                                                                                                                     015WPE 000000000000-0000000000003.64     01750 00000                  
06531960718385309DR675906759000000151648008888000000106973635A559T7B1F03F1FE00  R000000000000                                                                                                                                                                                                                                                                                                                                                                                                                                                                                                                                                                                                                               
06531970718380001G26759067590000001516480088880000001068014041097               UT           9 L               210                                      NNNN           210000000000000000000000000                        7                                          77360677                                                                                                                                                                                                                                                                                                                                                                                                                                               
06531980718385312BH6759067590000001982880010980000090170731202321223000000000016928    0000090001140817N8001096759D08012023114                                                                                                                                                                                                                                                                                                                                                                                                                                                                                                                                                                                              
06531990718385313DT67590675900000019828800109800000010680010987287283212900011408158072820230000000654821223000000000016928546680XXXXXX7706                         YY 4607AMPLA0HVT70728  N840000000006548          81CNKETOFUSION 8885968154    028355    MC84000000006548 NDR599977547467   A4984D66E7T7F8F76A3670F  000000000+600450S00130    MPL  00564                     000000000  N                0000000000000.00 0000000.00   0000000.00                             000000000000000                                                                                                                                                     015WPE 000000000000-0000000000001.15     01750 00000                  
06532000718385313DR675906759000000198288001098000000106A4984D66E7T7F8F76A3670F  R000000000000                                                                                                                                                                                                                                                                                                                                                                                                                                                                                                                                                                                                                               
06532010718380001G26759067590000001982880010980000001068885968154               UT           9 L               210                                      NNNN           210000000000000000000000000                        7                                          77547467                                                                                                                                                                                                                                                                                                                                                                                                                                               
06532020718385314DT67590675900000019828800109800000010680010987287283212900011408166072820230000000519021223000000000016928546680XXXXXX7706                         YY 4607AMPLKOJ4A20728  N840000000005190          81CNKETOFUSION 8885968154    028835    MC84000000005190 NDR599977547467   A4984D66E7T4E58634964A4  000000000+600450S00130    MPL  00564                     000000000  N                0000000000000.00 0000000.00   0000000.00                             000000000000000                                                                                                                                                     015WPE 000000000000-0000000000000.91     01750 00000                  
06532030718385314DR675906759000000198288001098000000106A4984D66E7T4E58634964A4  R000000000000                                                                                                                                                                                                                                                                                                                                                                                                                                                                                                                                                                                                                               
06532040718380001G26759067590000001982880010980000001068885968154               UT           9 L               210                                      NNNN           210000000000000000000000000                        7                                          77547467                                                                                                                                                                                                                                                                                                                                                                                                                                               
06532050718385315DT67590675900000019828800109800000010680010987287283212900011408174072820230000000519021223000000000016928524300XXXXXX9037                         YY 4607AMPLFD17A30728  N840000000005190          81CNKETOFUSION 8885968154    028578    MC84000000005190 NDR599977547467   973635A559T643AFBDB2907  000000000+600450S00130    MPL  00564                     000000000  N                0000000000000.00 0000000.00   0000000.00                             000000000000000                                                                                                                                                     015WPE 000000000000-0000000000000.91     01750 00000                  
06532060718385315DR675906759000000198288001098000000106973635A559T643AFBDB2907  R000000000000                                                                                                                                                                                                                                                                                                                                                                                                                                                                                                                                                                                                                               
06532070718380001G26759067590000001982880010980000001068885968154               UT           9 L               210                                      NNNN           210000000000000000000000000                        7                                          77547467                                                                                                                                                                                                                                                                                                                                                                                                                                               
06532080718385318BH6759067590000002684980012580000090170731202321223000000000024770    0000090001048186N8001256759D08012023104                                                                                                                                                                                                                                                                                                                                                                                                                                                                                                                                                                                              
06532090718385319DT67590675900000026849800125800000010680012576509753212900010481864072920230000002477021223000000000024770601101XXXXXX7679   BA00                  YY 4 07N873180939094183N840000000024770    00    01CNCBD8885133385            02947P    DS84000000024770 NDR599978220273070                         000000000+1015104910600   DCPDI01128334523  090509200000 000000000  0          156   0000000000000.00 0000000.00   0000000.00                             000000000000000                                                                                                                                                     015WPE 000000000000-0000000000004.33     01750 00000                  
06532100718385319DR675906759000000268498001258000000106                         R                                                                                                                                                                                                                                                                                                                                                                                                                                                                                                                                                                                                                                           
06532110718380001G2675906759000000268498001258000000106855-4401547              WY           0 P                00                                      NNNN                          000000000000                         00000650975601179750000543                78220273                                                                                                                                                                                                                                                                                                                                                                                                                                               
06532120719130002BH6759067590000000215480088880000090170731202321223000000000008400    0000090001450227N8008886759C08012023845                                                                                                                                                                                                                                                                                                                                                                                                                                                                                                                                                                                              
06532130719130003DT67590675900000002154800888800000010180088887287283212900014502270073120230000000840021223000000000008400525363XXXXXX3266       ME03KE06MS02      NY 4607AMWEJPXISZ0731  N840000000008400          81DNDRIP DROP DISTRO LLC     67305Z    MC84000000008400 NDR519900000001   INV-003364               000000000+600450S00140    MWE  00737                     000000000  N                0000000000000.00 0000000.00   0000000.00                             000000000000000                                                                                                                                                   U001418  000000000000 0000000000002.28     02600 01000                  
06532140719130003DR675906759000000021548008888000000101INV-003364               Y000000000000                                                                                                                                                                                                                                                                                                                                                                                                                                                                                                                                                                                                                               
06532150719130001G2675906759000000021548008888000000101208-7033453              ID           9 E               210                                      NNNN           210000000000000000000000000                                                                   71004114                                                                                                                                                                                                                                                                                                                                                                                                                                               
06532160719130004BH6759067590000000288180088880000090170731202321223000000000089716    0000090001760016N8008886759C08012023076                                                                                                                                                                                                                                                                                                                                                                                                                                                                                                                                                                                              
06532170719130005DT67590675900000002881800888800000010180088876509753212900017600011073120230000000810121223000000000089716601100XXXXXX6457   BA05                  NY41 0 N753182725192505N840000000008101    00    07DNHAPPY HIPPIE             03154R    DS84000000008101 N  549976487169830                         000000000+0000004910H00   DCCDI01000334579  114159000000 000000000  0          112   0000000000000.00 0000000.00   0000000.00                             000000000000000                                                                                                                                                     01418  000000000000 0000000000001.49     01720 01000                  
06532180719130001E167590675900000002881800888800000010100E068C80008 00000000000.00404040404040404040404040404040404040404040404040400115209080003500B800010000000081010000000000000000000000000000  0006084019008000008000230731455A3750936931FEB93C0E65404040400840A0000001523010000000000000000000AE4144530381227100320000000000004040401E40404040 000000081.01 000000000.001E00000000000000000000    80                                                                                                                                                                                                                                                                                                                  
06532190719130002G2675906759000000028818008888000000101SEVIERVILLE              TN           5 C                00                                      NNNN                          000000000000                         00000650975601179750000063                76487169                                                                                                                                                                                                                                                                                                                                                                                                                                               
06532200719130006DT67590675900000002881800888800000010180088824001193212900017600021073120230000000312421223000000000089716444796XXXXXX3003       VS11    0001111   NYV1 A E583212568211265N84000000000312437FD00    07DNHAPPY HIPPIE             031289    VS84000000003124 N  549976487169                            000000000+                A CA 12110                     000000000  N000000000 493   0000000000000.00 0000000.00   0000000.00                             000000000000000                                                                                                                                                     01418 A000000000000 0000000000000.57     01510 01000                  
06532210719130001E167590675900000002881800888800000010100E068C80020 00000000000.004040404040404040404040404040404040404040404040404006161203A00000000000000000000000404040404040404040404040404040  00010840000000000000002307311A70814A4B5C4FDF14E78A01404040400840A0000000031010000000000000000000404040404040404040404040404040404040404040404040 000000031.24 000000000.004040400000000000000000    80                                                                                                                                                                                                                                                                                                                  
06532220719130002G2675906759000000028818008888000000101SEVIERVILLE              TN           5 C                00                                      NNNN00 N 00                   000000000000                                                                   76487169                                                                                                                                                                                                                                                                                                                                                                                                                                               
06532230719130007DT67590675900000002881800888800000010180088877287283212900017600049073120230000000104121223000000000089716523446XXXXXX5638       MS02WI09          NY 1 0 AMDJKO4L1B0731  N840000000001041          07DNHAPPY HIPPIE             492861    MD84000000001041 N  549976487169                            000000000+M10101M0034C    MDJ  00505                     000000000  N                0000000000000.00 0000000.00   0000000.00                             000000000000000                                                                                                                                                   B101418  000000000000 0000000000000.20     01550 00400                  
06532240719130001E1675906759000000028818008888000000101000008480047 00000000000.00404040404040404040404040404040404040404040404040400110A04001220000000000000000000000FF00000000000000000000000000  000008401980000000800123073181DA724C83BDD820A05778E9404040400840A0000000041010000000000000000000404040404040404040404040404040404040401F40404040 000000010.41 000000000.001F03020000000000000000    80                                                                                                                                                                                                                                                                                                                  
06532250719130002G2675906759000000028818008888000000101SEVIERVILLE              TN           5 J                                                        NNNN              000000000000000000000000       03               7                                          76487169                                                                                                                                                                                                                                                                                                                                                                                                                                               
06532260719130008DT67590675900000002881800888800000010180088824001193212900017600054073120230000000833221223000000000089716474487XXXXXX1417       VS11    0001111   NYV1 A E383212586293946N8400000000083326B5X00    07DNHAPPY HIPPIE             111774    VD84000000008332 N  549976487169                            000000000+                F DF 10433                     000000000  Y000000000 338   0000000000000.00 0000000.00   0000000.00                             000000000000000                                                                                                                                                     01418 A000000000000 0000000000000.26     00050 02200                  
06532270719130001E167590675900000002881800888800000010100E068C802DD 00000000000.004040404040404040404040404040404040404040404040404006011203A00000000000000000000000404040404040404040404040404040  0000084020000000000000230731C9707800F551A4D7BDE83538404040400840A0000000031010000000000000000000404040404040404040404040404040404040404040404040 000000083.32 000000000.004040400000000000000000    80                                                                                                                                                                                                                                                                                                                  
06532280719130002G2675906759000000028818008888000000101SEVIERVILLE              TN           5 D                00                                      NNNN00 N 00                   000000000000                                                                   76487169                                                                                                                                                                                                                                                                                                                                                                                                                                               
06532290719130009DT67590675900000002881800888800000010180088824001193212900017600062073120230000000316621223000000000089716422921XXXXXX0077       VS11    0001111   NYV1 A E303212592122221N840000000003166ZW8B00    07DNHAPPY HIPPIE             044814    VD84000000003166 N  549976487169                            000000000+                F DF 00381                     000000000  N000000000       0000000000000.00 0000000.00   0000000.00                             000000000000000                                                                                                                                                     01418 A000000000000 0000000000000.40     00800 01500                  
06532300719130001E167590675900000002881800888800000010100E068C80103 00000000000.004040404040404040404040404040404040404040404040404006011203A00000000000000000000000404040404040404040404040404040  0000084000000000000000230731BDE43A02015B1EBB9B2533AC404040400840A0000000031010000000000000000000A3E6F9FA0382000000000000000000004040404040404040 000000031.66 000000000.004040400000000000000000    80                                                                                                                                                                                                                                                                                                                  
06532310719130002G2675906759000000028818008888000000101SEVIERVILLE              TN           5 D                00                                      NNNN00 N 00                   000000000000                                                                   76487169                                                                                                                                                                                                                                                                                                                                                                                                                                               
06532320719130010DT67590675900000002881800888800000010180088824001193212900017600070073120230000000636621223000000000089716480639XXXXXX5553       VS11    0001111   NYV1 A E463212595032767N840000000006366LSCG00    07DNHAPPY HIPPIE             229481    VD84000000006366 N  549976487169                            000000000+                F DF 00381                     000000000  N000000000       0000000000000.00 0000000.00   0000000.00                             000000000000000                                                                                                                                                     01418 A000000000000 0000000000000.66     00800 01500                  
06532330719130001E167590675900000002881800888800000010100E068C80011 00000000000.004040404040404040404040404040404040404040404040404006011203A00000000000000000000000404040404040404040404040404040  00000840200000000000002307314B6F1F3CDDE150F7F79D702A404040400840A0000000031010000000000000000000404040404040404040404040404040404040404040404040 000000063.66 000000000.004040400000000000000000    80                                                                                                                                                                                                                                                                                                                  
06532340719130002G2675906759000000028818008888000000101SEVIERVILLE              TN           5 D                00                                      NNNN00 N 00                   000000000000                                                                   76487169                                                                                                                                                                                                                                                                                                                                                                                                                                               
06532350719130011DT67590675900000002881800888800000010180088824001193212900017600096073120230000000462921223000000000089716443041XXXXXX8003       VS11    0001111   NYV1 A E463212653966071N8400000000046299MZK00    05DNHAPPY HIPPIE             153229    VD84000000004629 N  549976487169                            000000000+                F DF 10433                     000000000  Y000000000 338   0000000000000.00 0000000.00   0000000.00                             000000000000000                                                                                                                                                     01418 A000000000000 0000000000000.24     00050 02200                  
06532360719130001E167590675900000002881800888800000010100E0F8C8039B 00000000000.004040404040404040404040404040404040404040404040404006011203A0A000000000000000000000404040404040404040404040404040  000508401800808000800023073114F70DDBCF57D0904125ED63404040400840A00000000310100000000000000000005971B5420082000000000000000000004040401E40404040 000000046.29 000000000.001E00000000000000000000    80                                                                                                                                                                                                                                                                                                                  
06532370719130002G2675906759000000028818008888000000101SEVIERVILLE              TN           5 D                00                                      NNNN00 N 00                   000000000000                                                                   76487169                                                                                                                                                                                                                                                                                                                                                                                                                                               
06532380719130012DT67590675900000002881800888800000010180088877287283212900017600106073120230000000694521223000000000089716511953XXXXXX9431       MS02WI09          NY 1 0 AMDJA778S00731  N840000000006945          05DNHAPPY HIPPIE             030139    MD84000000006945 N  549976487169                            000000000+M10101C5434C    MDJ  00402                     000000000  N                0000000000000.00 0000000.00   0000000.00                             000000000000000                                                                                                                                                   B101418  000000000000 0000000000000.88     01050 01500                  
06532390719130001E167590675900000002881800888800000010100E0F8C800B0 00000000000.00404040404040404040404040404040404040404040404040400110A04001220000000000000000000000FF00000000000000000000000000  000008403900000000800023073181AE8B935130F67293FB5B54404040400840A000000004101000000000000000000098D6C77B431E1603031A0000000000004040401E40404040 000000069.45 000000000.001E03000000000000000000    80                                                                                                                                                                                                                                                                                                                  
06532400719130002G2675906759000000028818008888000000101SEVIERVILLE              TN           5 J                                                        NNNN              000000000000000000000000                        7                                          76487169                                                                                                                                                                                                                                                                                                                                                                                                                                               
06532410719130013DT67590675900000002881800888800000010180088824001193212900017600112073120230000000520921223000000000089716440393XXXXXX0325       VS11    0001111   NYV1 A E303212677435823N840000000005209S4H900    05DNHAPPY HIPPIE             886590    VD84000000005209 N  549976487169                            000000000+                F PF 08170                     000000000  N000000000       0000000000000.00 0000000.00   0000000.00                             000000000000000                                                                                                                                                     01418 A000000000000 0000000000000.75     01150 01500                  
06532420719130001E167590675900000002881800888800000010100E0F8C80005 00000000000.004040404040404040404040404040404040404040404040404006011203A0A000000000000000000000404040404040404040404040404040  0000084018008080008000230731C3E46E21573ACF18C2D1DE90404040400840A000000003101000000000000000000022E4DEDC1F57919030300000000000004040401E40404040 000000052.09 000000000.001E00000000000000000000    80                                                                                                                                                                                                                                                                                                                  
06532430719130002G2675906759000000028818008888000000101SEVIERVILLE              TN           5 P                00                                      NNNN00 N 00                   000000000000                                                                   76487169                                                                                                                                                                                                                                                                                                                                                                                                                                               
06532440719130014DT67590675900000002881800888800000010180088824001193212900017600120073120230000000343721223000000000089716422921XXXXXX4244       VS11    0001111   NYV1 A E303212678152343N840000000003437RDTC00    07DNHAPPY HIPPIE             053416    VD84000000003437 N  549976487169                            000000000+                F DF 00381                     000000000  N000000000       0000000000000.00 0000000.00   0000000.00                             000000000000000                                                                                                                                                     01418 A000000000000 0000000000000.42     00800 01500                  
06532450719130001E167590675900000002881800888800000010100E068C80110 00000000000.004040404040404040404040404040404040404040404040404006011203A00000000000000000000000404040404040404040404040404040  0000084000000000000000230731171268B3E1043573079C1D8C404040400840A0000000031010000000000000000000B63BFC020382000000000000000000004040404040404040 000000034.37 000000000.004040400000000000000000    80                                                                                                                                                                                                                                                                                                                  
06532460719130002G2675906759000000028818008888000000101SEVIERVILLE              TN           5 D                00                                      NNNN00 N 00                   000000000000                                                                   76487169                                                                                                                                                                                                                                                                                                                                                                                                                                               
06532470719130015DT67590675900000002881800888800000010180088877287283212900017600130073120230000000420821223000000000089716510932XXXXXX9464       MS02WI09          NY 2 0 AMDJFKJ7SZ0731  N840000000004208          05DNHAPPY HIPPIE             185210    MD84000000004208 N  549976487169                            000000000+M10101C1334C    MDJ  00402                     000000000  N                0000000000000.00 0000000.00   0000000.00                             000000000000000                                                                                                                                                   B101418  000000000000 0000000000000.59     01050 01500                  
06532480719130001E167590675900000002881800888800000010100E0F8C802E8 00000000000.00404040404040404040404040404040404040404040404040400114A00001220000000000000000000000FF00000000000000000000000000  00010840180080000480002307311B525E80CC7568064E3CB553404040400840A0000000041010000000000000000000B55EC3CF0B50752100100000000000004040400240404040 000000042.08 000000000.000203000000000000000000    80                                                                                                                                                                                                                                                                                                                  
06532490719130002G2675906759000000028818008888000000101SEVIERVILLE              TN           5 J                                                        NNNN              000000000000000000000000                        7                                          76487169                                                                                                                                                                                                                                                                                                                                                                                                                                               
06532500719130016DT67590675900000002881800888800000010180088824001193212900017600146073120230000000694521223000000000089716445101XXXXXX9604       VS11    0001111   NYV1 A E303212709652936N840000000006945NQJF00    05DNHAPPY HIPPIE             116021    VD84000000006945 N  549976487169                            000000000+                F DF 10433                     000000000  Y000000000 338   0000000000000.00 0000000.00   0000000.00                             000000000000000                                                                                                                                                     01418 A000000000000 0000000000000.25     00050 02200                  
06532510719130001E167590675900000002881800888800000010100E0F8C800ED 00000000000.004040404040404040404040404040404040404040404040404006011203A08000000000000000000000404040404040404040404040404040  00010840180080800080002307319F065DCE9671B11A5AE5A2AF404040400840A00000000310100000000000000000008F4B41530082000000000000000000004040401E40404040 000000069.45 000000000.001E00000000000000000000    80                                                                                                                                                                                                                                                                                                                  
06532520719130002G2675906759000000028818008888000000101SEVIERVILLE              TN           5 D                00                                      NNNN00 N 00                   000000000000                                                                   76487169                                                                                                                                                                                                                                                                                                                                                                                                                                               
06532530719130017DT67590675900000002881800888800000010180088824001193212900017600153073120230000000332221223000000000089716435546XXXXXX4132       VS11    0001111   NYV1 A E583212733240597N8400000000033224RQP00    05DNHAPPY HIPPIE             111143    VD84000000003322 N  549976487169                            000000000+                F DF 10433                     000000000  Y000000000 338   0000000000000.00 0000000.00   0000000.00                             000000000000000                                                                                                                                                     01418 A000000000000 0000000000000.24     00050 02200                  
06532540719130001E167590675900000002881800888800000010100E0F8C800A2 00000000000.004040404040404040404040404040404040404040404040404006011203A00000000000000000000000404040404040404040404040404040  0001084018008080008000230731C1525357CBBA66B439B184DE404040400840A0000000031010000000000000000000A82CF1370082000000000000000000004040401E40404040 000000033.22 000000000.001E00000000000000000000    80                                                                                                                                                                                                                                                                                                                  
06532550719130002G2675906759000000028818008888000000101SEVIERVILLE              TN           5 D                00                                      NNNN00 N 00                   000000000000                                                                   76487169                                                                                                                                                                                                                                                                                                                                                                                                                                               
06532560719130018DT67590675900000002881800888800000010180088824001193212900017600179073120230000000289321223000000000089716480639XXXXXX3696       VS11    0001111   NYV1 A E303212787106452N840000000002893PPD500    05DNHAPPY HIPPIE             238868    VD84000000002893 N  549976487169                            000000000+                F DF 00381                     000000000  N000000000       0000000000000.00 0000000.00   0000000.00                             000000000000000                                                                                                                                                     01418 A000000000000 0000000000000.38     00800 01500                  
06532570719130001E167590675900000002881800888800000010100E0F8C800F5 00000000000.004040404040404040404040404040404040404040404040404006011203A02000000000000000000000404040404040404040404040404040  00000840180080800080002307318D1AFF5A5B28B31A5B6A6C3B404040400840A00000000310100000000000000000002BCC28790080000000000000000000004040401E40404040 000000028.93 000000000.001E00000000000000000000    80                                                                                                                                                                                                                                                                                                                  
06532580719130002G2675906759000000028818008888000000101SEVIERVILLE              TN           5 D                00                                      NNNN00 N 00                   000000000000                                                                   76487169                                                                                                                                                                                                                                                                                                                                                                                                                                               
06532590719130019DT67590675900000002881800888800000010180088877287283212900017600189073120230000000760221223000000000089716544928XXXXXX2884       MS02WI09          NY 2 0 AMDJRXM7A90731  N840000000007602          05DNHAPPY HIPPIE             H78002    MD84000000007602 N  549976487169                            000000000+M10101C1334C    MDJ  10815                     000000000  1                0000000000000.00 0000000.00   0000000.00                             000000000000000                                                                                                                                                   B101418  000000000000 0000000000000.26     00050 02200                  
06532600719130001E167590675900000002881800888800000010100E0F8C80099 00000000000.00404040404040404040404040404040404040404040404040400110A04003220000000000000000000000FF00000000000000000000000000  0000084039000000048000230731D6F116CE5BCCFDE3EE170CCC404040400840A000000004101000000000000000000020A5F634BF4D959400120000000000004040400240404040 000000076.02 000000000.000203000000000000000000    80                                                                                                                                                                                                                                                                                                                  
06532610719130002G2675906759000000028818008888000000101SEVIERVILLE              TN           5 J                                                        NNNN              000000000000000000000000                        7                                          76487169                                                                                                                                                                                                                                                                                                                                                                                                                                               
06532620719130020DT67590675900000002881800888800000033080088876759003212900017600034073120230000000895721223000000000089716435546XXXXXX4292                         NY 2 0 N               N840000000008957      IL  07DNHAPPY HIPPIE             115137    DB84000000008957 N  549976487169                            000000000+                     09580                                Y          342   0000000000000.00 0000000.00   0000000.00                             000000000000000                                                                                                                                                     01418  000000000000 0000000000000.26     00050 00000                  
06532630719130001G2675906759000000028818008888000000330SEVIERVILLE              TN           5 D                00                                      NNNN                          000000000000                                                                   76487169                                                                                                                                                                                                                                                                                                                                                                                                                                               
06532640719130021DT67590675900000002881800888800000033080088876759003212900017600083073120230000000347121223000000000089716461100XXXXXX1585                         NY 2 0 N               N840000000003471      IL  07DNHAPPY HIPPIE             115624    DB84000000003471 N  549976487169                            000000000+                     09580                                Y          342   0000000000000.00 0000000.00   0000000.00                             000000000000000                                                                                                                                                     01418  000000000000 0000000000000.24     00050 00000                  
06532650719130001G2675906759000000028818008888000000330SEVIERVILLE              TN           5 D                00                                      NNNN                          000000000000                                                                   76487169                                                                                                                                                                                                                                                                                                                                                                                                                                               
06532660719130022DT67590675900000002881800888800000033080088876759003212900017600166073120230000000196821223000000000089716419090XXXXXX5676                         NY 2 0 N               N840000000001968      IL  05DNHAPPY HIPPIE             374684    DB84000000001968 N  549976487169                            000000000+                     09590                                N          279   0000000000000.00 0000000.00   0000000.00                             000000000000000                                                                                                                                                     01418  000000000000 0000000000000.31     00800 00000                  
06532670719130001G2675906759000000028818008888000000330SEVIERVILLE              TN           5 D                00                                      NNNN                          000000000000                                                                   76487169                                                                                                                                                                                                                                                                                                                                                                                                                                               
06532680719130023BH6759067590000000288180088880000090170731202321223000000000081420    0000090001870019N8008886759C08012023187                                                                                                                                                                                                                                                                                                                                                                                                                                                                                                                                                                                              
06532690719130024DT67590675900000002881800888800000010180088824001193212900018700010073120230000000559321223000000000081420486796XXXXXX7776       VS11    0001111   NYV1 A E303212540472550N840000000005593VWG600    07DNHAPPY HIPPIE             070011    VD84000000005593 N  549976487158                            000000000+                F DF 10433                     000000000  Y000000000 338   0000000000000.00 0000000.00   0000000.00                             000000000000000                                                                                                                                                     01418 A000000000000 0000000000000.25     00050 02200                  
06532700719130001E167590675900000002881800888800000010100E068C80149 00000000000.004040404040404040404040404040404040404040404040404006011203A00000000000000000000000404040404040404040404040404040  00000840000000000000002307316D32815284799517CC1817EB404040400840A0000000031010000000000000000000404040404040404040404040404040404040404040404040 000000055.93 000000000.004040400000000000000000    80                                                                                                                                                                                                                                                                                                                  
06532710719130002G2675906759000000028818008888000000101SEVIERVILLE              TN           5 D                00                                      NNNN00 N 00                   000000000000                                                                   76487158                                                                                                                                                                                                                                                                                                                                                                                                                                               
06532720719130025DT67590675900000002881800888800000010180088877287283212900018700020073120230000000406021223000000000081420515676XXXXXX5957       MS02WI09          NY 1 0 AMWEVP2R1I0731  N840000000004060          07DNHAPPY HIPPIE             07455Z    MC84000000004060 N  549976487158                            000000000+M10101M0034C    MWE  00743                     000000000  N                0000000000000.00 0000000.00   0000000.00                             000000000000000                                                                                                                                                   B101418  000000000000 0000000000000.97     02300 00400                  
06532730719130001E167590675900000002881800888800000010100000848001F 00000000000.00404040404040404040404040404040404040404040404040400110A04001220000000000000000000000FF00000000000000000000000000  0001084019800000008001230731BEAF85F8DE3968B06643EED6404040400840A0000000041010000000000000000000404040404040404040404040404040404040401F40404040 000000040.60 000000000.001F03020000000000000000    80                                                                                                                                                                                                                                                                                                                  
06532740719130002G2675906759000000028818008888000000101SEVIERVILLE              TN           5 E                                                        NNNN              000000000000000000000000       03               7                                          76487158                                                                                                                                                                                                                                                                                                                                                                                                                                               
06532750719130026DT67590675900000002881800888800000010180088877287283212900018700038073120230000000307221223000000000081420517805XXXXXX3575       MS02WI09          NY 1 0 AMWEVI2H1A0731  N840000000003072          07DNHAPPY HIPPIE             00594P    MC84000000003072 N  549976487158                            000000000+M10101M0034C    MWE  00743                     000000000  N                0000000000000.00 0000000.00   0000000.00                             000000000000000                                                                                                                                                   B101418  000000000000 0000000000000.75     02300 00400                  
06532760719130001E167590675900000002881800888800000010100000848003B 00000000000.00404040404040404040404040404040404040404040404040400110A04001220000000000000000000000FF00000000000000000000000000  00010840198000000080012307317DD20EAF073E2C72746FE053404040400840A0000000041010000000000000000000404040404040404040404040404040404040401F40404040 000000030.72 000000000.001F03020000000000000000    80                                                                                                                                                                                                                                                                                                                  
06532770719130002G2675906759000000028818008888000000101SEVIERVILLE              TN           5 E                                                        NNNN              000000000000000000000000       03               7                                          76487158                                                                                                                                                                                                                                                                                                                                                                                                                                               
06532780719130027DT67590675900000002881800888800000010180088824001193212900018700069073120230000001105521223000000000081420474480XXXXXX9233       VS11    0001111   NYV1 A E583212648454556N840000000011055PH8X00    05DNHAPPY HIPPIE             110602    VD84000000011055 N  549976487158                            000000000+                F DF 10433                     000000000  Y000000000 338   0000000000000.00 0000000.00   0000000.00                             000000000000000                                                                                                                                                     01418 A000000000000 0000000000000.28     00050 02200                  
06532790719130001E167590675900000002881800888800000010100E0F8C800EA 00000000000.004040404040404040404040404040404040404040404040404006021203A08000000000000000000000404040404040404040404040404040  0000084018008080008000230731F048E7340453D1F6A1107EA6404040400840A0000000031010000000000000000000307050B00080000020200000000000004040401E40404040 000000110.55 000000000.001E00000000000000000000    80                                                                                                                                                                                                                                                                                                                  
06532800719130002G2675906759000000028818008888000000101SEVIERVILLE              TN           5 D                00                                      NNNN00 N 00                   000000000000                                                                   76487158                                                                                                                                                                                                                                                                                                                                                                                                                                               
06532810719130028DT67590675900000002881800888800000010180088824001193212900018700077073120230000000032821223000000000081420404629XXXXXX5591       VK04VS111111111   NYV1 A E463212650542642N840000000000328XVXW00    05DNHAPPY HIPPIE             031938    VS84000000000328 N  549976487158                            000000000+                B CB 12053                     000000000  N000000000 450   0000000000000.00 0000000.00   0000000.00                             000000000000000                                                                                                                                                     01418 F000000000000 0000000000000.06     01900 00000                  
06532820719130001E167590675900000002881800888800000010100E0F8C800B7 00000000000.004040404040404040404040404040404040404040404040404006010A03A0A000000000000000000000404040404040404040404040404040  00010840180080800080002307317A5DEB92A056BB7CE1B8450E404040400840A0000000031010000000000000000000F8074C27875F609330300000000000004040401E40404040 000000003.28 000000000.001E00000000000000000000    80                                                                                                                                                                                                                                                                                                                  
06532830719130002G2675906759000000028818008888000000101SEVIERVILLE              TN           5 C                00                                      NNNN00 Y 00                   000000000000                                                                   76487158                                                                                                                                                                                                                                                                                                                                                                                                                                               
06532840719130029DT67590675900000002881800888800000010180088877287283212900018700111073120230000000520821223000000000081420524300XXXXXX8004       MS02WI09          NY 1 0 AMPL7GUE220731  N840000000005208          07DNHAPPY HIPPIE             03120B    MC84000000005208 N  549976487158                            000000000+M10101M5434C    MPL  00364                     000000000  N                0000000000000.00 0000000.00   0000000.00                             000000000000000                                                                                                                                                   B101418  000000000000 0000000000000.98     01800 00400                  
06532850719130001E1675906759000000028818008888000000101000060C80077 00000000000.00404040404040404040404040404040404040404040404040400110A04001220000000000000000000000FF00000000000000000000000000  0007084019800000008001230731A8D6FD6C0A9B28611C6BB676404040400840A0000000041010000000000000000000404040404040404040404040404040404040401E40404040 000000052.08 000000000.001E03000000000000000000    80                                                                                                                                                                                                                                                                                                                  
06532860719130002G2675906759000000028818008888000000101SEVIERVILLE              TN           5 L                                                        NNNN              000000000000000000000000       03               7                                          76487158                                                                                                                                                                                                                                                                                                                                                                                                                                               
06532870719130030DT67590675900000002881800888800000010180088877287283212900018700152073120230000000217021223000000000081420521105XXXXXX8747       MS02WI09          NY 1 0 AMDJD489S00731  N840000000002170          07DNHAPPY HIPPIE             052121    MD84000000002170 N  549976487158                            000000000+M10101M0034C    MDJ  10815                     000000000  1                0000000000000.00 0000000.00   0000000.00                             000000000000000                                                                                                                                                   B101418  000000000000 0000000000000.23     00050 02200                  
06532880719130001E1675906759000000028818008888000000101000008480019 00000000000.00404040404040404040404040404040404040404040404040400110A04001220000000000000000000000FF00000000000000000000000000  00000840198000000080012307315082073FADA56100F03CA997404040400840A0000000041010000000000000000000404040404040404040404040404040404040401F40404040 000000021.70 000000000.001F03020000000000000000    80                                                                                                                                                                                                                                                                                                                  
06532890719130002G2675906759000000028818008888000000101SEVIERVILLE              TN           5 J                                                        NNNN              000000000000000000000000       03               7                                          76487158                                                                                                                                                                                                                                                                                                                                                                                                                                               
06532900719130031DT67590675900000002881800888800000010180088824001193212900018700168073120230000000317721223000000000081420434575XXXXXX8083       VS11    0001111   NYV1 A E383212735874258N840000000003177Z3Z900    07DNHAPPY HIPPIE             031274    VS84000000003177 N  549976487158                            000000000+                B CB 12111                     000000000  N000000000 495   0000000000000.00 0000000.00   0000000.00                             000000000000000                                                                                                                                                     01418 A000000000000 0000000000000.62     01650 01000                  
06532910719130001E167590675900000002881800888800000010100E068C80027 00000000000.004040404040404040404040404040404040404040404040404006011203A00000000000000000000000404040404040404040404040404040  00010840000000000000002307310896AE5E12CBC10FC8E35BC2404040400840A0000000031010000000000000000000404040404040404040404040404040404040404040404040 000000031.77 000000000.004040400000000000000000    80                                                                                                                                                                                                                                                                                                                  
06532920719130002G2675906759000000028818008888000000101SEVIERVILLE              TN           5 C                00                                      NNNN00 N 00                   000000000000                                                                   76487158                                                                                                                                                                                                                                                                                                                                                                                                                                               
06532930719130032DT67590675900000002881800888800000010180088824001193212900018700176073120230000000510821223000000000081420442756XXXXXX8450       VS11    0001111   NYV1 A E303212773314287N8400000000051089HSP00    05DNHAPPY HIPPIE             012817    VD84000000005108 N  549976487158                            000000000+                F DF 10433                     000000000  Y000000000 338   0000000000000.00 0000000.00   0000000.00                             000000000000000                                                                                                                                                     01418 A000000000000 0000000000000.25     00050 02200                  
06532940719130001E167590675900000002881800888800000010100E0F8C800AE 00000000000.004040404040404040404040404040404040404040404040404006011203A08000000000000000000000404040404040404040404040404040  0000084018008080008000230731AE3B87785357B3FD16943B47404040400840A0000000031010000000000000000000306040C00080000020200000000000004040401E40404040 000000051.08 000000000.001E00000000000000000000    80                                                                                                                                                                                                                                                                                                                  
06532950719130002G2675906759000000028818008888000000101SEVIERVILLE              TN           5 D                00                                      NNNN00 N 00                   000000000000                                                                   76487158                                                                                                                                                                                                                                                                                                                                                                                                                                               
06532960719130033DT67590675900000002881800888800000033080088876759003212900018700049073120230000000142621223000000000081420449507XXXXXX2211                         NY 2 0 N               N840000000001426      IL  07DNHAPPY HIPPIE             009934    DB84000000001426 N  549976487158                            000000000+                     09590                                N          279   0000000000000.00 0000000.00   0000000.00                             000000000000000                                                                                                                                                     01418  000000000000 0000000000000.26     00800 00000                  
06532970719130001G2675906759000000028818008888000000330SEVIERVILLE              TN           5 D                00                                      NNNN                          000000000000                                                                   76487158                                                                                                                                                                                                                                                                                                                                                                                                                                               
06532980719130034DT67590675900000002881800888800000033080088876759003212900018700056073120230000000246821223000000000081420435544XXXXXX1718                         NY 2 0 N               N840000000002468      IL  07DNHAPPY HIPPIE             134121    DB84000000002468 N  549976487158                            000000000+                     09580                                Y          342   0000000000000.00 0000000.00   0000000.00                             000000000000000                                                                                                                                                     01418  000000000000 0000000000000.23     00050 00000                  
06532990719130001G2675906759000000028818008888000000330SEVIERVILLE              TN           5 D                00                                      NNNN                          000000000000                                                                   76487158                                                                                                                                                                                                                                                                                                                                                                                                                                               
06533000719130035DT67590675900000002881800888800000033080088876759003212900018700080073120230000000719221223000000000081420423223XXXXXX8827                         NY 2 0 N               N840000000007192      IL  07DNHAPPY HIPPIE             076406    DB84000000007192 N  549976487158                            000000000+                     09573                                N          121   0000000000000.00 0000000.00   0000000.00                             000000000000000                                                                                                                                                     01418  000000000000 0000000000000.73     00800 00000                  
06533010719130001G2675906759000000028818008888000000330SEVIERVILLE              TN           5 D                00                                      NNNN                          000000000000                                                                   76487158                                                                                                                                                                                                                                                                                                                                                                                                                                               
06533020719130036DT67590675900000002881800888800000033080088876759003212900018700098073120230000000312421223000000000081420435547XXXXXX4208                         NY 2 0 N               N840000000003124      IL  07DNHAPPY HIPPIE             060155    DB84000000003124 N  549976487158                            000000000+                     09580                                Y          342   0000000000000.00 0000000.00   0000000.00                             000000000000000                                                                                                                                                     01418  000000000000 0000000000000.24     00050 00000                  
06533030719130001G2675906759000000028818008888000000330SEVIERVILLE              TN           5 D                00                                      NNNN                          000000000000                                                                   76487158                                                                                                                                                                                                                                                                                                                                                                                                                                               
06533040719130037DT67590675900000002881800888800000033080088876759003212900018700106073120230000000316621223000000000081420480639XXXXXX7211                         NY 2 0 N               N840000000003166      IL  05DNHAPPY HIPPIE             233575    DB84000000003166 N  549976487158                            000000000+                     09590                                N          279   0000000000000.00 0000000.00   0000000.00                             000000000000000                                                                                                                                                     01418  000000000000 0000000000000.40     00800 00000                  
06533050719130001G2675906759000000028818008888000000330SEVIERVILLE              TN           5 D                00                                      NNNN                          000000000000                                                                   76487158                                                                                                                                                                                                                                                                                                                                                                                                                                               
06533060719130038DT67590675900000002881800888800000033080088876759003212900018700122073120230000000131521223000000000081420448737XXXXXX2192                         NY 2 0 N               N840000000001315      IL  05DNHAPPY HIPPIE             501268    DB84000000001315 N  549976487158                            000000000+                     09590                                N          279   0000000000000.00 0000000.00   0000000.00                             000000000000000                                                                                                                                                     01418  000000000000 0000000000000.26     00800 00000                  
06533070719130001G2675906759000000028818008888000000330SEVIERVILLE              TN           5 D                00                                      NNNN                          000000000000                                                                   76487158                                                                                                                                                                                                                                                                                                                                                                                                                                               
06533080719130039DT67590675900000002881800888800000033080088876759003212900018700130073120230000000186521223000000000081420542432XXXXXX4263                         NY41 0 N               N840000000001865      ME  07DNHAPPY HIPPIE             563462    DB84000000001865 N  549976487158                            000000000+                     09601                                1          MA1   0000000000000.00 0000000.00   0000000.00                             000000000000000                                                                                                                                                     01418  000000000000 0000000000000.23     00050 00000                  
06533090719130001G2675906759000000028818008888000000330SEVIERVILLE              TN           5 D                00                                      NNNN                          000000000000                                                                   76487158                                                                                                                                                                                                                                                                                                                                                                                                                                               
06533100719130040DT67590675900000002881800888800000033080088876759003212900018700148073120230000001177321223000000000081420413728XXXXXX0246                         NY 2 0 N               N840000000011773      IL  05DNHAPPY HIPPIE             322198    DB84000000011773 N  549976487158                            000000000+                     09590                                N          279   0000000000000.00 0000000.00   0000000.00                             000000000000000                                                                                                                                                     01418  000000000000 0000000000001.09     00800 00000                  
06533110719130001G2675906759000000028818008888000000330SEVIERVILLE              TN           5 D                00                                      NNNN                          000000000000                                                                   76487158                                                                                                                                                                                                                                                                                                                                                                                                                                               
06533120719130041DT67590675900000002881800888800000033080088876759003212900018700189073120230000000696421223000000000081420434769XXXXXX7030                         NY 2 0 N               N840000000006964      IL  05DNHAPPY HIPPIE             023517    DB84000000006964 N  549976487158                            000000000+                     09580                                Y          342   0000000000000.00 0000000.00   0000000.00                             000000000000000                                                                                                                                                     01418  000000000000 0000000000000.25     00050 00000                  
06533130719130001G2675906759000000028818008888000000330SEVIERVILLE              TN           5 D                00                                      NNNN                          000000000000                                                                   76487158                                                                                                                                                                                                                                                                                                                                                                                                                                               
06533140719130042DT67590675900000002881800888800000033080088876759003212900018700197073120230000000235621223000000000081420527520XXXXXX2706                         NY41 0 N               N840000000002356      ME  07DNHAPPY HIPPIE             103876    DB84000000002356 N  549976487158                            000000000+                     09601                                1          MA1   0000000000000.00 0000000.00   0000000.00                             000000000000000                                                                                                                                                     01418  000000000000 0000000000000.23     00050 00000                  
06533150719130001G2675906759000000028818008888000000330SEVIERVILLE              TN           5 D                00                                      NNNN                          000000000000                                                                   76487158                                                                                                                                                                                                                                                                                                                                                                                                                                               
06533160719130043BH6759067590000002962980013180000090170731202321223000000000035845    0000090001700007N8001316759C08012023070                                                                                                                                                                                                                                                                                                                                                                                                                                                                                                                                                                                              
06533170719130044DT67590675900000029629800131800000010180013124001193212900017000016073120230000000321021223000000000035845400022XXXXXX0576       VS11    0001111   NYV1 A E303212649276812N840000000003210JPCB00    05DNPAK VENTURES             799855    VD84000000003210 N  599978419189                            000000000+                F DF 10433                     000000000  Y000000000 338   0000000000000.00 0000000.00   0000000.00                             000000000000000                                                                                                                                                     01418 A000000000000 0000000000000.24     00050 02200                  
06533180719130001E167590675900000029629800131800000010100E0F8C80335 00000000000.004040404040404040404040404040404040404040404040404006021203A02000000000000000000000404040404040404040404040404040  00000840180080800080002307317FC631A2E25884DB7EFAF4BA404040400840A0000000031010000000000000000000404040404040404040404040404040404040401E40404040 000000032.10 000000000.001E00000000000000000000    80                                                                                                                                                                                                                                                                                                                  
06533190719130002G2675906759000000296298001318000000101MILTON                   FL           5 D                00                                      NNNN00 N 00                   000000000000                                                                   78419189                                                                                                                                                                                                                                                                                                                                                                                                                                               
06533200719130045DT67590675900000029629800131800000010180013124001193212900017000024073120230000000535021223000000000035845483332XXXXXX5263       VS11    0001111   NYV1 A E383212670126585N84000000000535089TR00    05DNPAK VENTURES             133652    VD84000000005350 N  599978419189                            000000000+                F DF 00381                     000000000  N000000000       0000000000000.00 0000000.00   0000000.00                             000000000000000                                                                                                                                                     01418 A000000000000 0000000000000.58     00800 01500                  
06533210719130001E167590675900000029629800131800000010100E0F8C800BC 00000000000.004040404040404040404040404040404040404040404040404006011203A08000000000000000000000404040404040404040404040404040  0000084018008080008000230731DFEE1A79F435B1FAF90DC4B4404040400840A00000000310100000000000000000008330519B0382000000000000000000004040401E40404040 000000053.50 000000000.001E00000000000000000000    80                                                                                                                                                                                                                                                                                                                  
06533220719130002G2675906759000000296298001318000000101MILTON                   FL           5 D                00                                      NNNN00 N 00                   000000000000                                                                   78419189                                                                                                                                                                                                                                                                                                                                                                                                                                               
06533230719130046DT67590675900000029629800131800000010180013124001193212900017000032073120230000000642021223000000000035845414718XXXXXX2524       VS11    0001111   NYV1 A E303212678553700N840000000006420NWSN00    05DNPAK VENTURES             031509    VS84000000006420 N  599978419189                            000000000+                D CD 12113                     000000000  N000000000 499   0000000000000.00 0000000.00   0000000.00                             000000000000000                                                                                                                                                     01418 A000000000000 0000000000001.45     02100 01000                  
06533240719130001E167590675900000029629800131800000010100E0F8C803B8 00000000000.004040404040404040404040404040404040404040404040404006011203A0A000000000000000000000404040404040404040404040404040  0005084018008080008000230731B96B78A8E5325A0A8C88EA51404040400840A000000003101000000000000000000043544F2E0082000000000000000000004040401E40404040 000000064.20 000000000.001E00000000000000000000    80                                                                                                                                                                                                                                                                                                                  
06533250719130002G2675906759000000296298001318000000101MILTON                   FL           5 C                00                                      NNNN00 Y 00                   000000000000                                                                   78419189                                                                                                                                                                                                                                                                                                                                                                                                                                               
06533260719130047DT67590675900000029629800131800000010180013124001193212900017000040073120230000000749021223000000000035845400022XXXXXX2698       VS11    0001111   NYV1 A E383212699310444N840000000007490GGG500    05DNPAK VENTURES             162215    VD84000000007490 N  599978419189                            000000000+                F DF 10433                     000000000  Y000000000 338   0000000000000.00 0000000.00   0000000.00                             000000000000000                                                                                                                                                     01418 A000000000000 0000000000000.26     00050 02200                  
06533270719130001E167590675900000029629800131800000010100E0F8C8002B 00000000000.004040404040404040404040404040404040404040404040404006021203A0A000000000000000000000404040404040404040404040404040  00000840180080800080002307316B83C88FF4E1CC0F21501489404040400840A0000000031010000000000000000000404040404040404040404040404040404040401E40404040 000000074.90 000000000.001E00000000000000000000    80                                                                                                                                                                                                                                                                                                                  
