00013800002460002BH6759067590000001767380010680000090170531202315123000000000013067    0000090001612144Y8001066759C06012023061                                                                                                                                                                                                                                                                                                                                                                                                                                                                                                                                                                                              
00013810002460003DT67590675900000017673800106800000010180010624001193151900016121444053020230000001306715123000000000013067418940XXXXXX0655               2111111   NYV4 A7W463151040373299N840000000013067LRFP00    01DNVGHEMP.COM833-246-5225   IMNOQM    VS84000000013067 NDR549977427364   0785ED3501T89B33C6E60CE  000000000+                A CA 12106                     000000000  N000000000 492   0000000000000.00 0000000.00   0000000.00                             000000000000000                                                                                                                                                     01424 G000000013067 0000000000002.57     01890 01000                  
00013820002460003DR6759067590000001767380010680000001010785ED3501T89B33C6E60CE  Y000000013067                 P1                                                                                                                                                                                                                                                                                                                                                                                                                                                                                                                                                                                                            
00013830002460001P16759067590000001767380010680000001010000000000000000                             2000000000000000000000000              000000000000                    0000000000000000000000000                    000000000000                                                                                                                                                                                                                                                                                                                                                                                                                                                                                        
00013840002460002G2675906759000000176738001068000000101720-3077930              CA           9 C                00                                      NNNN   N                      000000000000                                                                   77427364                                                                                                                                                                                                                                                                                                                                                                                                                                               
00013850002460004BH6759067590000001619680010280000090170531202315123000000000426634    0000090001512518Y8001026759C06012023051                                                                                                                                                                                                                                                                                                                                                                                                                                                                                                                                                                                              
00013860002460005DT67590675900000016196800102800000010180010287287283151900015121446053020230000002163315123000000000426634523057XXXXXX0827       ME03KE06MS02      NY 4607AMDJIBNJ2A0527  N840000000021633          81DNGREEN OTTER LLC          082100    MD84000000021633 NDR549977424386   724E43EFB8T6F049436DE48  000000000+600450S00130    MDJ  00401                     000000000  N                0000000000000.00 0000000.00   0000000.00                             000000000000000                                                                                                                                                   U001424  000000000000 0000000000003.72     01650 01500                  
00013870002460005DR675906759000000161968001028000000101724E43EFB8T6F049436DE48  A000000000000                                                                                                                                                                                                                                                                                                                                                                                                                                                                                                                                                                                                                               
00013880002460001G2675906759000000161968001028000000101866-6317293              GA           9 J               210                                      NNNN           210000000000000000000000000                                                                   77424386                                                                                                                                                                                                                                                                                                                                                                                                                                               
00013890002460006DT67590675900000016196800102800000010180010224001193151900015124043053020230000000686215123000000000426634443196XXXXXX9780               2111111   NYV4 A7W303151009029666N840000000006862W62T00    01DNGREEN OTTER LLC          070917    VD84000000006862 NDR549977424386   E71C116441T6C17F09407A8  000000000+                F DF 00415                     000000000  N000000000       0000000000000.00 0000000.00   0000000.00                             000000000000000                                                                                                                                                     01424 G000000006862 0000000000001.28     01650 01500                  
00013900002460006DR675906759000000161968001028000000101E71C116441T6C17F09407A8  Y000000006862                 P1                                                                                                                                                                                                                                                                                                                                                                                                                                                                                                                                                                                                            
00013910002460001P16759067590000001619680010280000001010000000000000000                             2000000000000000000000000              000000000000                    0000000000000000000000000                    000000000000                                                                                                                                                                                                                                                                                                                                                                                                                                                                                        
00013920002460002G2675906759000000161968001028000000101866-6317293              GA           9 D                00                                      NNNN   N                      000000000000                                                                   77424386                                                                                                                                                                                                                                                                                                                                                                                                                                               
00013930002460007DT67590675900000016196800102800000010180010287287283151900015124077053020230000002121115123000000000426634533561XXXXXX0225       ME03KE06MS02      NY 4607AMPLR2DFVB0530  N840000000021211          81DNGREEN OTTER LLC          878453    MC84000000021211 NDR549977424386   1E276D4EEBTEAC584CD251C  000000000+600450S00130    MPL  00013                     000000000  N                0000000000000.00 0000000.00   0000000.00                             000000000000000                                                                                                                                                   U001424  000000000000 0000000000004.24     01950 01000                  
00013940002460007DR6759067590000001619680010280000001011E276D4EEBTEAC584CD251C  Y000000000000                                                                                                                                                                                                                                                                                                                                                                                                                                                                                                                                                                                                                               
00013950002460001G2675906759000000161968001028000000101866-6317293              GA           9 L               210                                      NNNN           210000000000000000000000000                        7                                          77424386                                                                                                                                                                                                                                                                                                                                                                                                                                               
00013960002460008DT67590675900000016196800102800000010180010287287283151900015124101053020230000000160515123000000000426634549945XXXXXX9762       ME03KE06MS02      NY 4607AMPLSJE4VB0530  N840000000001605          81DNGREEN OTTER LLC          07227B    MC84000000001605 NDR549977424386   D9A159516BT7AED9DB9507D  000000000+600450S00130    MPL  00580                     000000000  N                0000000000000.00 0000000.00   0000000.00                             000000000000000                                                                                                                                                   U001424  000000000000 0000000000000.44     02100 01000                  
00013970002460008DR675906759000000161968001028000000101D9A159516BT7AED9DB9507D  Y000000000000                                                                                                                                                                                                                                                                                                                                                                                                                                                                                                                                                                                                                               
00013980002460001G2675906759000000161968001028000000101866-6317293              GA           9 L               210                                      NNNN           210000000000000000000000000                        7                                          77424386                                                                                                                                                                                                                                                                                                                                                                                                                                               
00013990002460009DT67590675900000016196800102800000010180010224001193151900015124167053020230000001289415123000000000426634490814XXXXXX4984               2111111   NYV4 A7W583151040316444N8400000000128947W6T00    01DNGREEN OTTER LLC          979487    VD84000000012894 NDR549977424386   0199297C92T666DAC7FB603  000000000+                F DF 00415                     000000000  N000000000       0000000000000.00 0000000.00   0000000.00                             000000000000000                                                                                                                                                     01424 G000000012894 0000000000002.28     01650 01500                  
00014000002460009DR6759067590000001619680010280000001010199297C92T666DAC7FB603  Y000000012894                 P1                                                                                                                                                                                                                                                                                                                                                                                                                                                                                                                                                                                                            
00014010002460001P16759067590000001619680010280000001010000000000000000                             2000000000000000000000000              000000000000                    0000000000000000000000000                    000000000000                                                                                                                                                                                                                                                                                                                                                                                                                                                                                        
00014020002460002G2675906759000000161968001028000000101866-6317293              GA           9 D                00                                      NNNN   N                      000000000000                                                                   77424386                                                                                                                                                                                                                                                                                                                                                                                                                                               
00014030002460010DT67590675900000016196800102800000010180010224001193151900015124183053020230000000149515123000000000426634417795XXXXXX2968               2111111   NYV4 A7W303151068934342N8400000000014959NKT00    01DNGREEN OTTER LLC          020345    VB84000000001495 NDR549977424386   55BB5D838CTC53563E727E5  000000000+                G1CG108010                     000000000  N000000000 390   0000000000000.00 0000000.00   0000000.00                             000000000000000                                                                                                                                                     01424 G000000001495 0000000000000.53     02850 01000                  
00014040002460010DR67590675900000016196800102800000010155BB5D838CTC53563E727E5  Y000000001495                 P1                                                                                                                                                                                                                                                                                                                                                                                                                                                                                                                                                                                                            
00014050002460001P16759067590000001619680010280000001010000000000000000                             2000000000000000000000000              000000000000                    0000000000000000000000000                    000000000000                                                                                                                                                                                                                                                                                                                                                                                                                                                                                        
00014060002460002G2675906759000000161968001028000000101866-6317293              GA           9 C                00                                      NNNN   Y                      000000000000                                                                   77424386                                                                                                                                                                                                                                                                                                                                                                                                                                               
00014070002460011DT67590675900000016196800102800000010180010287287283151900015124200053020230000001987015123000000000426634515676XXXXXX6906       ME03KE06MS02      NY 4607AMWENUHKU00530  N840000000019870          81DNGREEN OTTER LLC          02683Z    MC84000000019870 NDR549977424386   1FBC3F0C9DTC6FB92A3301A  000000000+600450S00130    MWE  00737                     000000000  N                0000000000000.00 0000000.00   0000000.00                             000000000000000                                                                                                                                                   U001424  000000000000 0000000000005.27     02600 01000                  
00014080002460011DR6759067590000001619680010280000001011FBC3F0C9DTC6FB92A3301A  Y000000000000                                                                                                                                                                                                                                                                                                                                                                                                                                                                                                                                                                                                                               
00014090002460001G2675906759000000161968001028000000101866-6317293              GA           9 E               210                                      NNNN           210000000000000000000000000                        7                                          77424386                                                                                                                                                                                                                                                                                                                                                                                                                                               
00014100002460012DT67590675900000016196800102800000010180010287287283151900015124226053020230000002138015123000000000426634515676XXXXXX0766       ME03KE06MS02      NY 4607AMWEA6XK1I0530  N840000000021380          81DNGREEN OTTER LLC          05146Z    MC84000000021380 NDR549977424386   8EB03E0033TB28B936C8D1A  000000000+600450S00130    MWE  00737                     000000000  N                0000000000000.00 0000000.00   0000000.00                             000000000000000                                                                                                                                                   U001424  000000000000 0000000000005.66     02600 01000                  
00014110002460012DR6759067590000001619680010280000001018EB03E0033TB28B936C8D1A  Y000000000000                                                                                                                                                                                                                                                                                                                                                                                                                                                                                                                                                                                                                               
00014120002460001G2675906759000000161968001028000000101866-6317293              GA           9 E               210                                      NNNN           210000000000000000000000000                        7                                          77424386                                                                                                                                                                                                                                                                                                                                                                                                                                               
00014130002460013DT67590675900000016196800102800000010180010224001193151900015124241053020230000002126115123000000000426634453015XXXXXX1875               2111111   NYV4 A7W383151109824320N8400000000212619PNV00    01DNGREEN OTTER LLC          003510    VS84000000021261 NDR549977424386   F8F5D6A113T87ABCC2A1A49  000000000+                A CA 12106                     000000000  N000000000 492   0000000000000.00 0000000.00   0000000.00                             000000000000000                                                                                                                                                     01424 G000000021261 0000000000004.12     01890 01000                  
00014140002460013DR675906759000000161968001028000000101F8F5D6A113T87ABCC2A1A49  Y000000021261                 P1                                                                                                                                                                                                                                                                                                                                                                                                                                                                                                                                                                                                            
00014150002460001P16759067590000001619680010280000001010000000000000000                             2000000000000000000000000              000000000000                    0000000000000000000000000                    000000000000                                                                                                                                                                                                                                                                                                                                                                                                                                                                                        
00014160002460002G2675906759000000161968001028000000101866-6317293              GA           9 C                00                                      NNNN   N                      000000000000                                                                   77424386                                                                                                                                                                                                                                                                                                                                                                                                                                               
00014170002460014DT67590675900000016196800102800000010180010224001193151900015124282053020230000000642815123000000000426634403784XXXXXX2993               2111111   NYV4 A7W583151131072105N840000000006428J3WN00    01DNGREEN OTTER LLC          220383    VS84000000006428 NDR549977424386   2F22FD4EF3T6F07A0337206  000000000+                A CA 12106                     000000000  N000000000 492   0000000000000.00 0000000.00   0000000.00                             000000000000000                                                                                                                                                     01424 G000000006428 0000000000001.31     01890 01000                  
00014180002460014DR6759067590000001619680010280000001012F22FD4EF3T6F07A0337206  Y000000006428                 P1                                                                                                                                                                                                                                                                                                                                                                                                                                                                                                                                                                                                            
00014190002460001P16759067590000001619680010280000001010000000000000000                             2000000000000000000000000              000000000000                    0000000000000000000000000                    000000000000                                                                                                                                                                                                                                                                                                                                                                                                                                                                                        
00014200002460002G2675906759000000161968001028000000101866-6317293              GA           9 C                00                                      NNNN   Y                      000000000000                                                                   77424386                                                                                                                                                                                                                                                                                                                                                                                                                                               
00014210002460015DT67590675900000016196800102800000010180010287287283151900015124291053020230000000129515123000000000426634551044XXXXXX9316       ME03KE06MS02      NY 4607AMDST9ZQVB0530  N840000000001295          81DNGREEN OTTER LLC          002614    MD84000000001295 NDR549977424386   75498D04EFT7E1922FD7FE9  000000000+600450S00130    MDS  10813                     000000000  1                0000000000000.00 0000000.00   0000000.00                             000000000000000                                                                                                                                                   U001424  000000000000 0000000000000.23     00050 02200                  
00014220002460015DR67590675900000016196800102800000010175498D04EFT7E1922FD7FE9  Y000000000000                                                                                                                                                                                                                                                                                                                                                                                                                                                                                                                                                                                                                               
00014230002460001G2675906759000000161968001028000000101866-6317293              GA           9 S               210                                      NNNN           210000000000000000000000000                        7                                          77424386                                                                                                                                                                                                                                                                                                                                                                                                                                               
00014240002460016DT67590675900000016196800102800000010180010287287283151900015124358053120230000001062315123000000000426634512882XXXXXX4494                         NY 4607AMDBSJOLZV0531  N840000000010623          81DNGREEN OTTER LLC          586373    MD84000000010623 NDR549977424386                            000000000+600450S00130    MDB  00063                     000000000  N                0000000000000.00 0000000.00   0000000.00                             000000000000000                                                                                                                                                   U001424  000000000000 0000000000002.28     02050 01000                  
00014250002460016DR675906759000000161968001028000000101                         Y000000000000                 P1                                                                                                                                                                                                                                                                                                                                                                                                                                                                                                                                                                                                            
00014260002460001P1675906759000000161968001028000000101                                                 000000625000000000000          8000   000000000871584967            000000000000                                                                                                                                                                                                                                                                                                                                                                                                                                                                                                                                    
00014270002460002G2675906759000000161968001028000000101866-6317293              GA           9 B               210                  871584967           YNNN           210000000000000000000000000                        7                                          77424386                                                                                                                                                                                                                                                                                                                                                                                                                                               
00014280002460017DT67590675900000016196800102800000010180010287287283151900015124374053120230000000999815123000000000426634515676XXXXXX7939       ME03KE06MS02      NY 4607AMWEKGFGAM0531  N840000000009998          81DNGREEN OTTER LLC          03135Z    MC84000000009998 NDR549977424386   26BD15CF10T2A3E4DB366C4  000000000+600450S00130    MWE  00737                     000000000  N                0000000000000.00 0000000.00   0000000.00                             000000000000000                                                                                                                                                   U001424  000000000000 0000000000002.70     02600 01000                  
00014290002460017DR67590675900000016196800102800000010126BD15CF10T2A3E4DB366C4  Z000000000000                                                                                                                                                                                                                                                                                                                                                                                                                                                                                                                                                                                                                               
00014300002460001G2675906759000000161968001028000000101866-6317293              GA           9 E               210                                      NNNN           210000000000000000000000000                        7                                          77424386                                                                                                                                                                                                                                                                                                                                                                                                                                               
00014310002460018DT67590675900000016196800102800000010680010287287283151900015124382053120230000002126115123000000000426634538072XXXXXX7608                         NY 4607AMDJV0O6ZV0531  N840000000021261          81CNGREEN OTTER LLC          030695    MD84000000021261 NDR549977424386   DCEA742304TA902EBD37B50  000000000+600450S00130    MDJ  00560                     000000000  N                0000000000000.00 0000000.00   0000000.00                             000000000000000                                                                                                                                                     01424  000000000000 0000000000000.00     00000 00000                  
00014320002460018DR675906759000000161968001028000000106DCEA742304TA902EBD37B50  U000000000000                                                                                                                                                                                                                                                                                                                                                                                                                                                                                                                                                                                                                               
00014330002460001G2675906759000000161968001028000000106866-6317293              GA           9 J               210                                      NNNN           210000000000000000000000000                                                                   77424386                                                                                                                                                                                                                                                                                                                                                                                                                                               
00014340002460019DT67590675900000016196800102800000010180010224001193151900015124415053120230000002184715123000000000426634458453XXXXXX5250               2111111   NYV4 A7W463151579374712N840000000021847366200    01DNGREEN OTTER LLC          110538    VD84000000021847 NDR549977424386   6B156AEC13TB621DCE1654A  000000000+                F DF 10420                     000000000  Y000000000 338   0000000000000.00 0000000.00   0000000.00                             000000000000000                                                                                                                                                     01424 G000000021847 0000000000000.33     00050 02200                  
00014350002460019DR6759067590000001619680010280000001016B156AEC13TB621DCE1654A  Y000000021847                 P1                                                                                                                                                                                                                                                                                                                                                                                                                                                                                                                                                                                                            
00014360002460001P16759067590000001619680010280000001010000000000000000                             2000000000000000000000000              000000000000                    0000000000000000000000000                    000000000000                                                                                                                                                                                                                                                                                                                                                                                                                                                                                        
00014370002460002G2675906759000000161968001028000000101866-6317293              GA           9 D                00                                      NNNN   N                      000000000000                                                                   77424386                                                                                                                                                                                                                                                                                                                                                                                                                                               
00014380002460020DT67590675900000016196800102800000010180010224001193151900015124449053120230000002141015123000000000426634451676XXXXXX1101               2111111   NYV4 A7W583151641757548N840000000021410454K00    01DNGREEN OTTER LLC          124834    VD84000000021410 NDR549977424386   56B3D11780T547B737FF873  000000000+                F DF 00415                     000000000  N000000000       0000000000000.00 0000000.00   0000000.00                             000000000000000                                                                                                                                                     01424 G000000021410 0000000000003.68     01650 01500                  
00014390002460020DR67590675900000016196800102800000010156B3D11780T547B737FF873  Z000000021410                 P1                                                                                                                                                                                                                                                                                                                                                                                                                                                                                                                                                                                                            
00014400002460001P16759067590000001619680010280000001010000000000000000                             2000000000000000000000000              000000000000                    0000000000000000000000000                    000000000000                                                                                                                                                                                                                                                                                                                                                                                                                                                                                        
00014410002460002G2675906759000000161968001028000000101866-6317293              GA           9 D                00                                      NNNN   N                      000000000000                                                                   77424386                                                                                                                                                                                                                                                                                                                                                                                                                                               
00014420002460021DT67590675900000016196800102800000010180010224001193151900015124498053120230000001200815123000000000426634414709XXXXXX5647               2111111   NYV4 A7W583151694314600N840000000012008ZP5G00    01DNGREEN OTTER LLC          01364D    VS84000000012008 NDR549977424386   A57E86B66DTC1B64C5046F7  000000000+                D CD 12109                     000000000  N000000000 498   0000000000000.00 0000000.00   0000000.00                             000000000000000                                                                                                                                                     01424 G000000012008 0000000000003.10     02500 01000                  
00014430002460021DR675906759000000161968001028000000101A57E86B66DTC1B64C5046F7  Y000000012008                 P1                                                                                                                                                                                                                                                                                                                                                                                                                                                                                                                                                                                                            
00014440002460001P16759067590000001619680010280000001010000000000000000                             2000000000000000000000000              000000000000                    0000000000000000000000000                    000000000000                                                                                                                                                                                                                                                                                                                                                                                                                                                                                        
00014450002460002G2675906759000000161968001028000000101866-6317293              GA           9 C                00                                      NNNN   Y                      000000000000                                                                   77424386                                                                                                                                                                                                                                                                                                                                                                                                                                               
00014460002460022DT67590675900000016196800102800000010180010224001193151900015124506053120230000001200815123000000000426634426684XXXXXX0640               2111111   NYV4 A7W463151695947173N840000000012008FZFD00    01DNGREEN OTTER LLC          08631B    VS84000000012008 NDR549977424386   AE0EB46534T0D44794212EE  000000000+                B CB 12107                     000000000  N000000000 494   0000000000000.00 0000000.00   0000000.00                             000000000000000                                                                                                                                                     01424 G000000012008 0000000000002.55     02040 01000                  
00014470002460022DR675906759000000161968001028000000101AE0EB46534T0D44794212EE  Y000000012008                 P1                                                                                                                                                                                                                                                                                                                                                                                                                                                                                                                                                                                                            
00014480002460001P16759067590000001619680010280000001010000000000000000                             2000000000000000000000000              000000000000                    0000000000000000000000000                    000000000000                                                                                                                                                                                                                                                                                                                                                                                                                                                                                        
00014490002460002G2675906759000000161968001028000000101866-6317293              GA           9 C                00                                      NNNN   Y                      000000000000                                                                   77424386                                                                                                                                                                                                                                                                                                                                                                                                                                               
00014500002460023DT67590675900000016196800102800000010180010287287283151900015124549053120230000001799115123000000000426634550968XXXXXX0010       ME03KE06MS02      NY 4607AMDJGEH0FB0531  N840000000017991          81DNGREEN OTTER LLC          616162    MD84000000017991 NDR549977424386   94261CB202TFD0EE2B4F5B6  000000000+600450S00130    MDJ  00401                     000000000  N                0000000000000.00 0000000.00   0000000.00                             000000000000000                                                                                                                                                   U001424  000000000000 0000000000003.12     01650 01500                  
00014510002460023DR67590675900000016196800102800000010194261CB202TFD0EE2B4F5B6  Y000000000000                                                                                                                                                                                                                                                                                                                                                                                                                                                                                                                                                                                                                               
00014520002460001G2675906759000000161968001028000000101866-6317293              GA           9 J               210                                      NNNN           210000000000000000000000000                                                                   77424386                                                                                                                                                                                                                                                                                                                                                                                                                                               
00014530002460024DT67590675900000016196800102800000010180010287287283151900015124622053120230000001200815123000000000426634552433XXXXXX5701       ME03KE06MS02      NY 4607AMPLWQ5A510531  N840000000012008          81DNGREEN OTTER LLC          07506M    MC84000000012008 NDR549977424386   97A73139A6T3F92A598A2E6  000000000+600450S00130    MPL  00580                     000000000  N                0000000000000.00 0000000.00   0000000.00                             000000000000000                                                                                                                                                   U001424  000000000000 0000000000002.62     02100 01000                  
00014540002460024DR67590675900000016196800102800000010197A73139A6T3F92A598A2E6  Y000000000000                                                                                                                                                                                                                                                                                                                                                                                                                                                                                                                                                                                                                               
00014550002460001G2675906759000000161968001028000000101866-6317293              GA           9 L               210                                      NNNN           210000000000000000000000000                        7                                          77424386                                                                                                                                                                                                                                                                                                                                                                                                                                               
00014560002460025DT67590675900000016196800102800000010180010287287283151900015124663053120230000002121115123000000000426634542418XXXXXX7372       ME03KE06MS02      NY 4607AMPLG2MJFB0531  N840000000021211          81DNGREEN OTTER LLC          92912B    MC84000000021211 NDR549977424386   BD2CC16F5FT8E2C66F6A869  000000000+600450S00130    MPL  00580                     000000000  N                0000000000000.00 0000000.00   0000000.00                             000000000000000                                                                                                                                                   U001424  000000000000 0000000000004.55     02100 01000                  
00014570002460025DR675906759000000161968001028000000101BD2CC16F5FT8E2C66F6A869  Y000000000000                                                                                                                                                                                                                                                                                                                                                                                                                                                                                                                                                                                                                               
00014580002460001G2675906759000000161968001028000000101866-6317293              GA           9 L               210                                      NNNN           210000000000000000000000000                        7                                          77424386                                                                                                                                                                                                                                                                                                                                                                                                                                               
00014590002460026DT67590675900000016196800102800000010180010224001193151900015124761053120230000001498915123000000000426634410039XXXXXX5168               2111111   NYV4 A7W303151739321287N840000000014989K6B300    01DNGREEN OTTER LLC          17076C    VS84000000014989 NDR549977424386   81A786D2E8TAB7FC883B3E2  000000000+                C CC 12108                     000000000  N000000000 496   0000000000000.00 0000000.00   0000000.00                             000000000000000                                                                                                                                                     01424 G000000014989 0000000000003.17     02050 01000                  
00014600002460026DR67590675900000016196800102800000010181A786D2E8TAB7FC883B3E2  Y000000014989                 P1                                                                                                                                                                                                                                                                                                                                                                                                                                                                                                                                                                                                            
00014610002460001P16759067590000001619680010280000001010000000000000000                             2000000000000000000000000              000000000000                    0000000000000000000000000                    000000000000                                                                                                                                                                                                                                                                                                                                                                                                                                                                                        
00014620002460002G2675906759000000161968001028000000101866-6317293              GA           9 C                00                                      NNNN   Y                      000000000000                                                                   77424386                                                                                                                                                                                                                                                                                                                                                                                                                                               
00014630002460027DT67590675900000016196800102800000010180010224001193151900015124795053120230000001987015123000000000426634485157XXXXXX8906               2111111   NYV4 A7W583151752355958N840000000019870P67Z00    01DNGREEN OTTER LLC          006675    VS84000000019870 NDR549977424386   7776DD503FT1C6E3D617C2F  000000000+                A CA 12106                     000000000  N000000000 492   0000000000000.00 0000000.00   0000000.00                             000000000000000                                                                                                                                                     01424 G000000019870 0000000000003.86     01890 01000                  
00014640002460027DR6759067590000001619680010280000001017776DD503FT1C6E3D617C2F  N000000019870                 P1                                                                                                                                                                                                                                                                                                                                                                                                                                                                                                                                                                                                            
00014650002460001P16759067590000001619680010280000001010000000000000000                             2000000000000000000000000              000000000000                    0000000000000000000000000                    000000000000                                                                                                                                                                                                                                                                                                                                                                                                                                                                                        
00014660002460002G2675906759000000161968001028000000101866-6317293              GA           9 C                00                                      NNNN   N                      000000000000                                                                   77424386                                                                                                                                                                                                                                                                                                                                                                                                                                               
00014670002460028DT67590675900000016196800102800000010180010224001193151900015124845053120230000001499115123000000000426634406095XXXXXX5867               2111111   NYV4 A7W583151779305830N840000000014991F4Z200    01DNGREEN OTTER LLC          05528D    VS84000000014991 NDR549977424386   D68EEAE048T8262BDCD5669  000000000+                D CD 12109                     000000000  N000000000 498   0000000000000.00 0000000.00   0000000.00                             000000000000000                                                                                                                                                     01424 G000000014991 0000000000003.85     02500 01000                  
00014680002460028DR675906759000000161968001028000000101D68EEAE048T8262BDCD5669  Y000000014991                 P1                                                                                                                                                                                                                                                                                                                                                                                                                                                                                                                                                                                                            
00014690002460001P16759067590000001619680010280000001010000000000000000                             2000000000000000000000000              000000000000                    0000000000000000000000000                    000000000000                                                                                                                                                                                                                                                                                                                                                                                                                                                                                        
00014700002460002G2675906759000000161968001028000000101866-6317293              GA           9 C                00                                      NNNN   Y                      000000000000                                                                   77424386                                                                                                                                                                                                                                                                                                                                                                                                                                               
00014710002460029DT67590675900000016196800102800000010180010224001193151900015124852053120230000000137315123000000000426634426684XXXXXX9962               2111111   NYV4 A7W303151785674910N84000000000137332SS00    01DNGREEN OTTER LLC          07825C    VS84000000001373 NDR549977424386   CD95CAEDDETA20A63961A98  000000000+                C CC 12108                     000000000  N000000000 496   0000000000000.00 0000000.00   0000000.00                             000000000000000                                                                                                                                                     01424 G000000001373 0000000000000.38     02050 01000                  
00014720002460029DR675906759000000161968001028000000101CD95CAEDDETA20A63961A98  Y000000001373                 P1                                                                                                                                                                                                                                                                                                                                                                                                                                                                                                                                                                                                            
00014730002460001P16759067590000001619680010280000001010000000000000000                             2000000000000000000000000              000000000000                    0000000000000000000000000                    000000000000                                                                                                                                                                                                                                                                                                                                                                                                                                                                                        
00014740002460002G2675906759000000161968001028000000101866-6317293              GA           9 C                00                                      NNNN   Y                      000000000000                                                                   77424386                                                                                                                                                                                                                                                                                                                                                                                                                                               
00014750002460030DT67590675900000016196800102800000010180010224001193151900015124886053120230000001589015123000000000426634427082XXXXXX0481               2111111   NYV4 A7W383151786420054N84000000001589055D200    01DNGREEN OTTER LLC          031268    VS84000000015890 NDR549977424386   58BA166BD5TE665E4F2B9A5  000000000+                A CA 12106                     000000000  N000000000 492   0000000000000.00 0000000.00   0000000.00                             000000000000000                                                                                                                                                     01424 G000000015890 0000000000003.10     01890 01000                  
00014760002460030DR67590675900000016196800102800000010158BA166BD5TE665E4F2B9A5  Y000000015890                 P1                                                                                                                                                                                                                                                                                                                                                                                                                                                                                                                                                                                                            
00014770002460001P16759067590000001619680010280000001010000000000000000                             2000000000000000000000000              000000000000                    0000000000000000000000000                    000000000000                                                                                                                                                                                                                                                                                                                                                                                                                                                                                        
00014780002460002G2675906759000000161968001028000000101866-6317293              GA           9 C                00                                      NNNN   Y                      000000000000                                                                   77424386                                                                                                                                                                                                                                                                                                                                                                                                                                               
00014790002460031DT67590675900000016196800102800000010180010287287283151900015125009053120230000002126115123000000000426634521333XXXXXX3623       ME03KE06MS02      NY 4607AMWEXHYGFX0531  N840000000021261          81DNGREEN OTTER LLC          03154P    MC84000000021261 NDR549977424386   9A93D7941CT9E78CDD441D8  000000000+600450S00130    MWE  00737                     000000000  N                0000000000000.00 0000000.00   0000000.00                             000000000000000                                                                                                                                                   U001424  000000000000 0000000000005.63     02600 01000                  
00014800002460031DR6759067590000001619680010280000001019A93D7941CT9E78CDD441D8  Y000000000000                                                                                                                                                                                                                                                                                                                                                                                                                                                                                                                                                                                                                               
00014810002460001G2675906759000000161968001028000000101866-6317293              GA           9 E               210                                      NNNN           210000000000000000000000000                        7                                          77424386                                                                                                                                                                                                                                                                                                                                                                                                                                               
00014820002460032DT67590675900000016196800102800000010180010224001193151900015125081053120230000000536115123000000000426634410039XXXXXX1630               2111111   NYV4 A7W583151816817453N8400000000053618RQ600    01DNGREEN OTTER LLC          15061D    VS84000000005361 NDR549977424386   F5AC93D418TFD612B5061CF  000000000+                D CD 12109                     000000000  N000000000 498   0000000000000.00 0000000.00   0000000.00                             000000000000000                                                                                                                                                     01424 G000000005361 0000000000001.44     02500 01000                  
00014830002460032DR675906759000000161968001028000000101F5AC93D418TFD612B5061CF  A000000005361                 P1                                                                                                                                                                                                                                                                                                                                                                                                                                                                                                                                                                                                            
00014840002460001P16759067590000001619680010280000001010000000000000000                             2000000000000000000000000              000000000000                    0000000000000000000000000                    000000000000                                                                                                                                                                                                                                                                                                                                                                                                                                                                                        
00014850002460002G2675906759000000161968001028000000101866-6317293              GA           9 C                00                                      NNNN   Y                      000000000000                                                                   77424386                                                                                                                                                                                                                                                                                                                                                                                                                                               
00014860002460033DT67590675900000016196800102800000010180010287287283151900015125140053120230000002651815123000000000426634521333XXXXXX7561       ME03KE06MS02      NY 4607AMWED38MNH0531  N840000000026518          81DNGREEN OTTER LLC          03195P    MC84000000026518 NDR549977424386   07F98EA86ET179C8CDFFFC8  000000000+600450S00130    MWE  00737                     000000000  N                0000000000000.00 0000000.00   0000000.00                             000000000000000                                                                                                                                                   U001424  000000000000 0000000000006.99     02600 01000                  
00014870002460033DR67590675900000016196800102800000010107F98EA86ET179C8CDFFFC8  Y000000000000                                                                                                                                                                                                                                                                                                                                                                                                                                                                                                                                                                                                                               
00014880002460001G2675906759000000161968001028000000101866-6317293              GA           9 E               210                                      NNNN           210000000000000000000000000                        7                                          77424386                                                                                                                                                                                                                                                                                                                                                                                                                                               
00014890002460034DT67590675900000016196800102800000010180010224001193151900015125164053120230000001987015123000000000426634411773XXXXXX4911               2111111   NYV4 A7W383151855049725N840000000019870PTGL00    01DNGREEN OTTER LLC          164759    VD84000000019870 NDR549977424386   BA3EFEF3E9T2EE1FEB58D16  000000000+                F DF 10420                     000000000  Y000000000 338   0000000000000.00 0000000.00   0000000.00                             000000000000000                                                                                                                                                     01424 G000000019870 0000000000000.32     00050 02200                  
00014900002460034DR675906759000000161968001028000000101BA3EFEF3E9T2EE1FEB58D16  Y000000019870                 P1                                                                                                                                                                                                                                                                                                                                                                                                                                                                                                                                                                                                            
00014910002460001P16759067590000001619680010280000001010000000000000000                             2000000000000000000000000              000000000000                    0000000000000000000000000                    000000000000                                                                                                                                                                                                                                                                                                                                                                                                                                                                                        
00014920002460002G2675906759000000161968001028000000101866-6317293              GA           9 D                00                                      NNNN   N                      000000000000                                                                   77424386                                                                                                                                                                                                                                                                                                                                                                                                                                               
00014930002460035DT67590675900000016196800102800000010180010224001193151900015125172053120230000001987015123000000000426634481582XXXXXX7526               2111111   NYV4 A7W383151855040056N840000000019870HTLH00    01DNGREEN OTTER LLC          104453    VD84000000019870 NDR549977424386   B2B5C1B6CCT6DBE16C0412F  000000000+                F DF 10420                     000000000  Y000000000 338   0000000000000.00 0000000.00   0000000.00                             000000000000000                                                                                                                                                     01424 G000000019870 0000000000000.32     00050 02200                  
00014940002460035DR675906759000000161968001028000000101B2B5C1B6CCT6DBE16C0412F  Y000000019870                 P1                                                                                                                                                                                                                                                                                                                                                                                                                                                                                                                                                                                                            
00014950002460001P16759067590000001619680010280000001010000000000000000                             2000000000000000000000000              000000000000                    0000000000000000000000000                    000000000000                                                                                                                                                                                                                                                                                                                                                                                                                                                                                        
00014960002460002G2675906759000000161968001028000000101866-6317293              GA           9 D                00                                      NNNN   N                      000000000000                                                                   77424386                                                                                                                                                                                                                                                                                                                                                                                                                                               
00014970002460036DT67590675900000016196800102800000010180010287287283151900015125181053120230000001286415123000000000426634546325XXXXXX2644       ME03KE06MS02      NY 4607AMWEZMSCFX0531  N840000000012864          81DNGREEN OTTER LLC          05163P    MC84000000012864 NDR549977424386   14F1197FBETD84FD277C29D  000000000+600450S00130    MWE  00737                     000000000  N                0000000000000.00 0000000.00   0000000.00                             000000000000000                                                                                                                                                   U001424  000000000000 0000000000003.44     02600 01000                  
00014980002460036DR67590675900000016196800102800000010114F1197FBETD84FD277C29D  Y000000000000                                                                                                                                                                                                                                                                                                                                                                                                                                                                                                                                                                                                                               
00014990002460001G2675906759000000161968001028000000101866-6317293              GA           9 E               210                                      NNNN           210000000000000000000000000                        7                                          77424386                                                                                                                                                                                                                                                                                                                                                                                                                                               
00015000002460037BH6759067590000000288180088880000090170531202315123000000000010862    0000090001280251Y8008886759C06012023128                                                                                                                                                                                                                                                                                                                                                                                                                                                                                                                                                                                              
00015010002460038DT67590675900000002881800888800000010180088824001193151900012802518053120230000001086215123000000000010862419090XXXXXX5887               2111111   NYV4 A7W463151766492507N840000000010862RQJ200    01DNHAPPY HIPPIE             620583    VD84000000010862 NDR549976044904   2068                     000000000+                F DF 00415                     000000000  N000000000       0000000000000.00 0000000.00   0000000.00                             000000000000000                                                                                                                                                     01424 G000000010862 0000000000001.94     01650 01500                  
00015020002460038DR6759067590000000288180088880000001012068                     Y000000010862                 P1                                                                                                                                                                                                                                                                                                                                                                                                                                                                                                                                                                                                            
00015030002460001P16759067590000000288180088880000001010000000000000000                             2000000000000000000000000              000000000000                    0000000000000000000000000                    000000000000                                                                                                                                                                                                                                                                                                                                                                                                                                                                                        
00015040002460002G2675906759000000028818008888000000101865-3663142              TN           9 D                00                                      NNNN   N                      000000000000                                                                   76044904                                                                                                                                                                                                                                                                                                                                                                                                                                               
00015050002460039BH6759067590000001330080010280000090170531202315123000000000503824    0000090001054762Y8001026759C06012023105                                                                                                                                                                                                                                                                                                                                                                                                                                                                                                                                                                                              
00015060002460040DT67590675900000013300800102800000010180010287287283151900010541622053020230000001499115123000000000503824553680XXXXXX4426       ME03KE06MS02      NY 4607AMDH06MH5I0527  N840000000014991          81DNCBD8666317293            H35788    MD84000000014991 NDR549977133133   12579820D5T0C3A0E247A4D  000000000+600450S00130    MDH  10813                     000000000  1                0000000000000.00 0000000.00   0000000.00                             000000000000000                                                                                                                                                   U001424  000000000000 0000000000000.29     00050 02200                  
00015070002460040DR67590675900000013300800102800000010112579820D5T0C3A0E247A4D  Y000000000000                                                                                                                                                                                                                                                                                                                                                                                                                                                                                                                                                                                                                               
00015080002460001G2675906759000000133008001028000000101866-6317293              GA           9 H               210                                      NNNN           210000000000000000000000000                        7                                          77133133                                                                                                                                                                                                                                                                                                                                                                                                                                               
00015090002460041DT67590675900000013300800102800000010180010287287283151900010541655053020230000001987015123000000000503824512107XXXXXX9128       ME03KE06MS02      NY 4607AMCCFAK4LR0527  N840000000019870          81DNCBD8666317293            02777B    MC84000000019870 NDR549977133133   3BEC84F596TC594B4A2FD18  000000000+600450S00130    MCC  00580                     000000000  N                0000000000000.00 0000000.00   0000000.00                             000000000000000                                                                                                                                                   U001424  000000000000 0000000000004.27     02100 01000                  
00015100002460041DR6759067590000001330080010280000001013BEC84F596TC594B4A2FD18  Y000000000000                                                                                                                                                                                                                                                                                                                                                                                                                                                                                                                                                                                                                               
00015110002460001G2675906759000000133008001028000000101866-6317293              GA           9 C               210                                      NNNN           210000000000000000000000000                        7                                          77133133                                                                                                                                                                                                                                                                                                                                                                                                                                               
00015120002460042DT67590675900000013300800102800000010180010287287283151900010541713053020230000002106215123000000000503824542432XXXXXX8234       ME03KE06MS02      NY 4607AMDJ06I75J0527  N840000000021062          81DNCBD8666317293            100060    MD84000000021062 NDR549977133133   11709C50B2TFC1FA3E689BF  000000000+600450S00130    MDJ  10813                     000000000  1                0000000000000.00 0000000.00   0000000.00                             000000000000000                                                                                                                                                   U001424  000000000000 0000000000000.33     00050 02200                  
00015130002460042DR67590675900000013300800102800000010111709C50B2TFC1FA3E689BF  Y000000000000                                                                                                                                                                                                                                                                                                                                                                                                                                                                                                                                                                                                                               
00015140002460001G2675906759000000133008001028000000101866-6317293              GA           9 J               210                                      NNNN           210000000000000000000000000                        7                                          77133133                                                                                                                                                                                                                                                                                                                                                                                                                                               
00015150002460043DT67590675900000013300800102800000010180010276509753151900010541900053020230000001604015123000000000503824601149XXXXXX6228   BA00                  NY 4 07N803126337744440N840000000016040    00    01DNCBD8666317293            02773P    DS84000000016040 NDR549977133133070                         000000000+1015104910600   DCPDI11327000456  042254000000 000000000  0          462   0000000000000.00 0000000.00   0000000.00                             000000000000000                                                                                                                                                     01424  000000000000 0000000000003.39     02050 01000                  
00015160002460043DR675906759000000133008001028000000101                         Y                                                                                                                                                                                                                                                                                                                                                                                                                                                                                                                                                                                                                                           
00015170002460001G2675906759000000133008001028000000101866-6317293              GA           9 P                00                                      NNNN                          000000000000                         00000650975601179750000261                77133133                                                                                                                                                                                                                                                                                                                                                                                                                                               
00015180002460044DT67590675900000013300800102800000010180010287287283151900010541937053020230000002136015123000000000503824542432XXXXXX4976       ME03KE06MS02      NY 4607AMDJQ4SNSR0527  N840000000021360          81DNCBD8666317293            134759    MD84000000021360 NDR549977133133   14639366F7T163D9242A6EE  000000000+600450S00130    MDJ  10813                     000000000  1                0000000000000.00 0000000.00   0000000.00                             000000000000000                                                                                                                                                   U001424  000000000000 0000000000000.33     00050 02200                  
00015190002460044DR67590675900000013300800102800000010114639366F7T163D9242A6EE  Z000000000000                                                                                                                                                                                                                                                                                                                                                                                                                                                                                                                                                                                                                               
00015200002460001G2675906759000000133008001028000000101866-6317293              GA           9 J               210                                      NNNN           210000000000000000000000000                        7                                          77133133                                                                                                                                                                                                                                                                                                                                                                                                                                               
00015210002460045DT67590675900000013300800102800000010180010287287283151900010542158053020230000001987015123000000000503824546645XXXXXX6613       ME03KE06MS02      NY 4607AMPLT9EZ2A0527  N840000000019870          81DNCBD8666317293            027868    MC84000000019870 NDR549977133133   51F1D88C47TE49788211871  000000000+600450S00130    MPL  00013                     000000000  N                0000000000000.00 0000000.00   0000000.00                             000000000000000                                                                                                                                                   U001424  000000000000 0000000000003.97     01950 01000                  
