00003450390460002BH6759067590000000288180088880000090170417202310723000000000011998    0000090001970186Y8008886759C04182023                                                                                                                                                                                                                                                                                                                                                                                                                                                                                                                                                                                                 
00003460390460003DT67590675900000002881800888800000010180088824001193107900019701858041720230000000799910723000000000011998421043XXXXXX8238               2111111   NYV4 A7W463107736044953N840000000007999PR4400    01DNHAPPY HIPPIE             859109    VD84000000007999 NP1549976044904   2001                     000000000+                F DF 00415                     000000000  N000000000       0000000000000.00 0000000.00   0000000.00                             000000000000000                                                                                                                                                     01424 G000000007999 0000000000001.47     01650 01500                  
00003470390460001P16759067590000000288180088880000001010000000000000000                             2000000000000000000000000              000000000000                    0000000000000000000000000                    000000000000                                                                                                                                                                                                                                                                                                                                                                                                                                                                                        
00003480390460004DT67590675900000002881800888800000010180088824001193107900019701866041720230000000399910723000000000011998440393XXXXXX0237               2111111   NYV4 A7W383107819779877N840000000003999758S00    01DNHAPPY HIPPIE             035150    VD84000000003999 NP1549976044904   2002                     000000000+                F PF 08175                     000000000  N000000000       0000000000000.00 0000000.00   0000000.00                             000000000000000                                                                                                                                                     01424 G000000003999 0000000000000.90     01750 02000                  
00003490390460001P16759067590000000288180088880000001010000000000000000                             2000000000000000000000000              000000000000                    0000000000000000000000000                    000000000000                                                                                                                                                                                                                                                                                                                                                                                                                                                                                        
00003500390460005BH6759067590000001982880010980000090170417202310723000000000713934    0000090001275068Y8001096759C04182023                                                                                                                                                                                                                                                                                                                                                                                                                                                                                                                                                                                                 
00003510390460006DT67590675900000019828800109800000010180010924001193107900012749110041620230000002487010723000000000713934483316XXXXXX7079               2111111   NYV4 A7W463107003037885N84000000002487055MS00    01DNKETOFUSION 8885968154    040520    VD84000000024870 NP1599977547467   09B1B56663T5A87BA37039B  000000000+                F DF 10420                     000000000  Y000000000 338   0000000000000.00 0000000.00   0000000.00                             000000000000000                                                                                                                                                     01424 G000000024870 0000000000000.34     00050 02200                  
00003520390460001P16759067590000001982880010980000001010000000000000000                             2000000000000000000000000              000000000000                    0000000000000000000000000                    000000000000                                                                                                                                                                                                                                                                                                                                                                                                                                                                                        
00003530390460007DT67590675900000019828800109800000010680010974001193107900012749164041620230000001987010723000000000713934453506XXXXXX7756               0000000   NYV4 07T383107022774296N840000000019870N3BF00    01CNKETOFUSION 8885968154    H13689    VD84000000019870 NP1599977547467   C9D2E81D5FT7919297C7B90  000000000+                F DF 08168                     000000000  Y000000000 369   0000000000000.00 0000000.00   0000000.00                             000000000000000                                                                                                                                                     01424  000000019870 0000000000000.00     00000 00000                  
00003540390460001P16759067590000001982880010980000001060000000000000000                             2000000000000000000000000              000000000000                    0000000000000000000000000                    000000000000                                                                                                                                                                                                                                                                                                                                                                                                                                                                                        
00003550390460008DT67590675900000019828800109800000010180010987287283107900012749178041620230000001987010723000000000713934522367XXXXXX0674       ME03KE06MS02      NY 4607AMPLZQ36370416  N840000000019870          81DNKETOFUSION 8885968154    682116    MC84000000019870 N  599977547467   68C4409803T90A70BA7659D  000000000+600450S00130    MPL  00013                     000000000  N                0000000000000.00 0000000.00   0000000.00                             000000000000000                                                                                                                                                   U001424  000000000000 0000000000003.97     01950 01000                  
00003560390460009DT67590675900000019828800109800000010180010987287283107900012749186041620230000000327410723000000000713934522367XXXXXX0674       ME03KE06MS02      NY 4607AMPLZRD8370416  N840000000003274          81DNKETOFUSION 8885968154    684929    MC84000000003274 N  599977547467   68C4409803TB77A52996EC5  000000000+600450S00130    MPL  00013                     000000000  N                0000000000000.00 0000000.00   0000000.00                             000000000000000                                                                                                                                                   U001424  000000000000 0000000000000.74     01950 01000                  
00003570390460010DT67590675900000019828800109800000010180010924001193107900012749235041620230000002487010723000000000713934434257XXXXXX0789               2111111   NYV4 A7W583107042555630N84000000002487052W600    01DNKETOFUSION 8885968154    027561    VD84000000024870 NP1599977547467   B35BC1C444T76E9A3004B71  000000000+                F DF 10420                     000000000  Y000000000 338   0000000000000.00 0000000.00   0000000.00                             000000000000000                                                                                                                                                     01424 G000000024870 0000000000000.34     00050 02200                  
00003580390460001P16759067590000001982880010980000001010000000000000000                             2000000000000000000000000              000000000000                    0000000000000000000000000                    000000000000                                                                                                                                                                                                                                                                                                                                                                                                                                                                                        
00003590390460011DT67590675900000019828800109800000010180010924001193107900012749276041620230000001987010723000000000713934435983XXXXXX7841               2111111   NYV4 A7W463107078296353N840000000019870NGQH00    01DNKETOFUSION 8885968154    126101    VS84000000019870 NP1599977547467   4E90769260T13AE53B94EED  000000000+                C CC 12108                     000000000  N000000000 496   0000000000000.00 0000000.00   0000000.00                             000000000000000                                                                                                                                                     01424 G000000019870 0000000000004.17     02050 01000                  
00003600390460001P16759067590000001982880010980000001010000000000000000                             2000000000000000000000000              000000000000                    0000000000000000000000000                    000000000000                                                                                                                                                                                                                                                                                                                                                                                                                                                                                        
00003610390460012DT67590675900000019828800109800000010680010987287283107900012749285041620230000002487010723000000000713934552393XXXXXX4388                         NY 4607AMCWM6TOZN0416  N840000000024870          81CNKETOFUSION 8885968154    046346    MC84000000024870 N  599977547467   320EE20DF7T4A6FDE36478A  000000000+600450S00130    MCW  00564                     000000000  N                0000000000000.00 0000000.00   0000000.00                             000000000000000                                                                                                                                                     01424  000000000000-0000000000004.35     01750 00000                  
00003620390460013DT67590675900000019828800109800000010680010987287283107900012749293041620230000000259510723000000000713934552393XXXXXX4388                         NY 4607AMCW42AE370416  N840000000002595          81CNKETOFUSION 8885968154    049844    MC84000000002595 N  599977547467   320EE20DF7T3BD3D304F815  000000000+600450S00130    MCW  00564                     000000000  N                0000000000000.00 0000000.00   0000000.00                             000000000000000                                                                                                                                                     01424  000000000000-0000000000000.45     01750 00000                  
00003630390460014DT67590675900000019828800109800000010180010924001193107900012749375041720230000001987010723000000000713934466186XXXXXX9583               2111111   NYV4 A7W463107240618404N840000000019870QD6S00    01DNKETOFUSION 8885968154    014101    VD84000000019870 NP1599977547467   795457C540T3D019A4C569B  000000000+                F DF 00415                     000000000  N000000000       0000000000000.00 0000000.00   0000000.00                             000000000000000                                                                                                                                                     01424 G000000019870 0000000000003.43     01650 01500                  
00003640390460001P16759067590000001982880010980000001010000000000000000                             2000000000000000000000000              000000000000                    0000000000000000000000000                    000000000000                                                                                                                                                                                                                                                                                                                                                                                                                                                                                        
00003650390460015DT67590675900000019828800109800000010180010924001193107900012749383041720230000000327410723000000000713934466186XXXXXX9583               2111111   NYV4 A7W463107241431510N840000000003274Q6B700    01DNKETOFUSION 8885968154    014223    VD84000000003274 NP1599977547467   795457C540TEFC8044A83E7  000000000+                F DF 00415                     000000000  N000000000       0000000000000.00 0000000.00   0000000.00                             000000000000000                                                                                                                                                     01424 G000000003274 0000000000000.69     01650 01500                  
00003660390460001P16759067590000001982880010980000001010000000000000000                             2000000000000000000000000              000000000000                    0000000000000000000000000                    000000000000                                                                                                                                                                                                                                                                                                                                                                                                                                                                                        
00003670390460016DT67590675900000019828800109800000010180010976509753107900012749399041720230000002755010723000000000713934601101XXXXXX4976   BA00                  NY 4 07N813091752039339N840000000027550    00    01DNKETOFUSION 8885968154    01750P    DS84000000027550 N  599977547467070                         000000000+1015104910600   DCPDI11327166115  034003000000 000000000  0          462   0000000000000.00 0000000.00   0000000.00                             000000000000000                                                                                                                                                     01424  000000000000 0000000000005.75     02050 01000                  
00003680390460017DT67590675900000019828800109800000010180010924001193107900012749425041720230000001987010723000000000713934441416XXXXXX5726               2111111   NYV4 A7W583107423884000N840000000019870WQ6C00    01DNKETOFUSION 8885968154    074628    VD84000000019870 NP1599977547467   F9E077E767TB120D058A247  000000000+                F DF 00415                     000000000  N000000000       0000000000000.00 0000000.00   0000000.00                             000000000000000                                                                                                                                                     01424 G000000019870 0000000000003.43     01650 01500                  
00003690390460001P16759067590000001982880010980000001010000000000000000                             2000000000000000000000000              000000000000                    0000000000000000000000000                    000000000000                                                                                                                                                                                                                                                                                                                                                                                                                                                                                        
00003700390460018DT67590675900000019828800109800000010180010924001193107900012749441041720230000001499010723000000000713934411079XXXXXX5641               2111111   NYV4 A7W303107427891679N840000000014990HSL700    01DNKETOFUSION 8885968154    042031    VD84000000014990 NP1599977547467   70D37033BAT950AFE67165E  000000000+                F DF 10420                     000000000  Y000000000 338   0000000000000.00 0000000.00   0000000.00                             000000000000000                                                                                                                                                     01424 G000000014990 0000000000000.29     00050 02200                  
00003710390460001P16759067590000001982880010980000001010000000000000000                             2000000000000000000000000              000000000000                    0000000000000000000000000                    000000000000                                                                                                                                                                                                                                                                                                                                                                                                                                                                                        
00003720390460019DT67590675900000019828800109800000010180010924001193107900012749458041720230000000327410723000000000713934411079XXXXXX5641               2111111   NYV4 A7W583107428371653N840000000003274RXCN00    01DNKETOFUSION 8885968154    021632    VD84000000003274 NP1599977547467   70D37033BAT072999739DA3  000000000+                F DF 10420                     000000000  Y000000000 338   0000000000000.00 0000000.00   0000000.00                             000000000000000                                                                                                                                                     01424 G000000003274 0000000000000.24     00050 02200                  
00003730390460001P16759067590000001982880010980000001010000000000000000                             2000000000000000000000000              000000000000                    0000000000000000000000000                    000000000000                                                                                                                                                                                                                                                                                                                                                                                                                                                                                        
00003740390460020DT67590675900000019828800109800000010180010924001193107900012749474041720230000001987010723000000000713934434257XXXXXX6415               2111111   NYV4 A7W383107432059034N840000000019870JJC600    01DNKETOFUSION 8885968154    051730    VD84000000019870 NP1599977547467   8836AA144AT045018344E7F  000000000+                F DF 10420                     000000000  Y000000000 338   0000000000000.00 0000000.00   0000000.00                             000000000000000                                                                                                                                                     01424 G000000019870 0000000000000.32     00050 02200                  
00003750390460001P16759067590000001982880010980000001010000000000000000                             2000000000000000000000000              000000000000                    0000000000000000000000000                    000000000000                                                                                                                                                                                                                                                                                                                                                                                                                                                                                        
00003760390460021DT67590675900000019828800109800000010180010924001193107900012749482041720230000001987010723000000000713934476195XXXXXX9291               2111111   NYV4 A7W583107434343426N8400000000198705W2K00    01DNKETOFUSION 8885968154    343426    VD84000000019870 NP1599977547467   CA50756A8AT94A14799F2CB  000000000+                F DF 00415                     000000000  N000000000       0000000000000.00 0000000.00   0000000.00                             000000000000000                                                                                                                                                     01424 G000000019870 0000000000003.43     01650 01500                  
00003770390460001P16759067590000001982880010980000001010000000000000000                             2000000000000000000000000              000000000000                    0000000000000000000000000                    000000000000                                                                                                                                                                                                                                                                                                                                                                                                                                                                                        
00003780390460022DT67590675900000019828800109800000010180010924001193107900012749490041720230000000327410723000000000713934476195XXXXXX9291               2111111   NYV4 A7W583107435133815N840000000003274R5FQ00    01DNKETOFUSION 8885968154    133815    VD84000000003274 NP1599977547467   CA50756A8AT745900CA4613  000000000+                F DF 00415                     000000000  N000000000       0000000000000.00 0000000.00   0000000.00                             000000000000000                                                                                                                                                     01424 G000000003274 0000000000000.69     01650 01500                  
00003790390460001P16759067590000001982880010980000001010000000000000000                             2000000000000000000000000              000000000000                    0000000000000000000000000                    000000000000                                                                                                                                                                                                                                                                                                                                                                                                                                                                                        
00003800390460023DT67590675900000019828800109800000010180010987287283107900012749525041720230000001987010723000000000713934526929XXXXXX1417       ME03KE06MS02      NY 4607AMDJWUVV0Z0417  N840000000019870          81DNKETOFUSION 8885968154    840009    MD84000000019870 N  599977547467   A339F6E67CTF06F1E94012F  000000000+600450S00130    MDJ  10813                     000000000  1                0000000000000.00 0000000.00   0000000.00                             000000000000000                                                                                                                                                   U001424  000000000000 0000000000000.32     00050 02200                  
00003810390460024DT67590675900000019828800109800000010180010987287283107900012749533041720230000000327410723000000000713934526929XXXXXX1417       ME03KE06MS02      NY 4607AMDJCVE51O0417  N840000000003274          81DNKETOFUSION 8885968154    840455    MD84000000003274 N  599977547467   A339F6E67CT643F1F9ECDB9  000000000+600450S00130    MDJ  10813                     000000000  1                0000000000000.00 0000000.00   0000000.00                             000000000000000                                                                                                                                                   U001424  000000000000 0000000000000.24     00050 02200                  
00003820390460025DT67590675900000019828800109800000010180010987287283107900012749541041720230000000259510723000000000713934526929XXXXXX1417       ME03KE06MS02      NY 4607AMDJCX3O1O0417  N840000000002595          81DNKETOFUSION 8885968154    843584    MD84000000002595 N  599977547467   A339F6E67CT8CB8E090FBEF  000000000+600450S00130    MDJ  10813                     000000000  1                0000000000000.00 0000000.00   0000000.00                             000000000000000                                                                                                                                                   U001424  000000000000 0000000000000.23     00050 02200                  
00003830390460026DT67590675900000019828800109800000010180010924001193107900012749557041720230000001987010723000000000713934436618XXXXXX2002               2111111   NYV4 A7W303107475372267N840000000019870NGCZ00    01DNKETOFUSION 8885968154    031494    VD84000000019870 NP1599977547467   CBDB7D202FT266477570BE3  000000000+                F DF 10420                     000000000  Y000000000 338   0000000000000.00 0000000.00   0000000.00                             000000000000000                                                                                                                                                     01424 G000000019870 0000000000000.32     00050 02200                  
00003840390460001P16759067590000001982880010980000001010000000000000000                             2000000000000000000000000              000000000000                    0000000000000000000000000                    000000000000                                                                                                                                                                                                                                                                                                                                                                                                                                                                                        
00003850390460027DT67590675900000019828800109800000010180010924001193107900012749565041720230000001194810723000000000713934414724XXXXXX9460               2111111   NYV4 A7W583107480763364N8400000000119486C6700    01DNKETOFUSION 8885968154    11691C    VS84000000011948 NP1599977547467   3CB4AD1C55TC2CF9454BA6D  000000000+                C CC 12108                     000000000  N000000000 496   0000000000000.00 0000000.00   0000000.00                             000000000000000                                                                                                                                                     01424 G000000011948 0000000000002.55     02050 01000                  
00003860390460001P16759067590000001982880010980000001010000000000000000                             2000000000000000000000000              000000000000                    0000000000000000000000000                    000000000000                                                                                                                                                                                                                                                                                                                                                                                                                                                                                        
00003870390460028DT67590675900000019828800109800000010180010924001193107900012749573041720230000000327410723000000000713934414724XXXXXX9460               2111111   NYV4 A7W303107481384505N840000000003274LFTR00    01DNKETOFUSION 8885968154    21827C    VS84000000003274 NP1599977547467   3CB4AD1C55T7476585F1A7D  000000000+                C CC 12108                     000000000  N000000000 496   0000000000000.00 0000000.00   0000000.00                             000000000000000                                                                                                                                                     01424 G000000003274 0000000000000.77     02050 01000                  
00003880390460001P16759067590000001982880010980000001010000000000000000                             2000000000000000000000000              000000000000                    0000000000000000000000000                    000000000000                                                                                                                                                                                                                                                                                                                                                                                                                                                                                        
00003890390460029DT67590675900000019828800109800000010180010924001193107900012749607041720230000001987010723000000000713934414718XXXXXX3475               2111111   NYV4 A7W383107486594875N840000000019870VV6400    01DNKETOFUSION 8885968154    017761    VS84000000019870 NP1599977547467   3989FE7BB2TC8E7139E7E93  000000000+                D CD 12109                     000000000  N000000000 498   0000000000000.00 0000000.00   0000000.00                             000000000000000                                                                                                                                                     01424 G000000019870 0000000000005.07     02500 01000                  
00003900390460001P16759067590000001982880010980000001010000000000000000                             2000000000000000000000000              000000000000                    0000000000000000000000000                    000000000000                                                                                                                                                                                                                                                                                                                                                                                                                                                                                        
00003910390460030DT67590675900000019828800109800000010180010987287283107900012749616041720230000000642810723000000000713934518941XXXXXX6788       ME03KE06MS02      NY 4607AMWEJ7EYHL0417  N840000000006428          81DNKETOFUSION 8885968154    84404Z    MC84000000006428 N  599977547467   F8BAEAE2A1TD46318A4D766  000000000+600450S00130    MWE  00737                     000000000  N                0000000000000.00 0000000.00   0000000.00                             000000000000000                                                                                                                                                   U001424  000000000000 0000000000001.77     02600 01000                  
00003920390460031DT67590675900000019828800109800000010180010987287283107900012749640041720230000002487010723000000000713934546616XXXXXX0488       ME03KE06PT01      NY 4607AMCWX4FZHF0417  N840000000024870          81DNKETOFUSION 8885968154    17313Z    MC84000000024870 N  599977547467   9E1C84FFBCTC1FC4553A36C  000000000+600450S00130    MCW  00642                     000000000  N                0000000000000.00 0000000.00   0000000.00                             000000000000000                                                                                                                                                   U001424  000000000000 0000000000005.57     02200 01000                  
00003930390460032DT67590675900000019828800109800000010180010987287283107900012749657041720230000000327410723000000000713934546616XXXXXX0488       ME03KE06PT01      NY 4607AMCWPQK5HL0417  N840000000003274          81DNKETOFUSION 8885968154    70342Z    MC84000000003274 N  599977547467   9E1C84FFBCT3654FBAEFFA5  000000000+600450S00130    MCW  00642                     000000000  N                0000000000000.00 0000000.00   0000000.00                             000000000000000                                                                                                                                                   U001424  000000000000 0000000000000.82     02200 01000                  
00003940390460033DT67590675900000019828800109800000010680010974001193107900012749669041720230000002487010723000000000713934410039XXXXXX1074               0000000   NYV4 07T383107522105324N8400000000248709LVH00    01CNKETOFUSION 8885968154    69699D    VS84000000024870 NP1599977547467   1C423E6F97T6F9BEBA94074  000000000+                D CD 00245                     000000000  N000000000 166   0000000000000.00 0000000.00   0000000.00                             000000000000000                                                                                                                                                     01424  000000024870-0000000000004.38     01760 00000                  
00003950390460001P16759067590000001982880010980000001060000000000000000                             2000000000000000000000000              000000000000                    0000000000000000000000000                    000000000000                                                                                                                                                                                                                                                                                                                                                                                                                                                                                        
00003960390460034DT67590675900000019828800109800000010180010987287283107900012749699041720230000000542810723000000000713934517805XXXXXX0890       ME03KE06MS02      NY 4607AMPLQY45HL0417  N840000000005428          81DNKETOFUSION 8885968154    03752B    MC84000000005428 N  599977547467   6448BC39B8T51A043E188C7  000000000+600450S00130    MPL  00580                     000000000  N                0000000000000.00 0000000.00   0000000.00                             000000000000000                                                                                                                                                   U001424  000000000000 0000000000001.24     02100 01000                  
00003970390460035DT67590675900000019828800109800000010180010987287283107900012749707041720230000000654810723000000000713934517805XXXXXX0890       ME03KE06MS02      NY 4607AMPLLZG3HL0417  N840000000006548          81DNKETOFUSION 8885968154    04462B    MC84000000006548 N  599977547467   6448BC39B8T920241D609D2  000000000+600450S00130    MPL  00580                     000000000  N                0000000000000.00 0000000.00   0000000.00                             000000000000000                                                                                                                                                   U001424  000000000000 0000000000001.48     02100 01000                  
00003980390460036DT67590675900000019828800109800000010180010987287283107900012749715041720230000000519010723000000000713934517805XXXXXX0890       ME03KE06MS02      NY 4607AMPLJEWAHG0417  N840000000005190          81DNKETOFUSION 8885968154    04767B    MC84000000005190 N  599977547467   6448BC39B8T33C64787EE3A  000000000+600450S00130    MPL  00580                     000000000  N                0000000000000.00 0000000.00   0000000.00                             000000000000000                                                                                                                                                   U001424  000000000000 0000000000001.19     02100 01000                  
00003990390460037DT67590675900000019828800109800000010680010974001193107900012749727041720230000001194810723000000000713934426684XXXXXX7442               0000000   NYV4 07T583107559006662N840000000011948V6C200    01CNKETOFUSION 8885968154    04216B    VS84000000011948 NP1599977547467   410460A959T3EFBA8543BC7  000000000+                B CB 00245                     000000000  N000000000 166   0000000000000.00 0000000.00   0000000.00                             000000000000000                                                                                                                                                     01424  000000011948-0000000000002.10     01760 00000                  
00004000390460001P16759067590000001982880010980000001060000000000000000                             2000000000000000000000000              000000000000                    0000000000000000000000000                    000000000000                                                                                                                                                                                                                                                                                                                                                                                                                                                                                        
00004010390460038DT67590675900000019828800109800000010180010987287283107900012749731041720230000000597410723000000000713934552851XXXXXX2449                         NY 4607AMPCRCS5HL0417  N840000000005974          81DNKETOFUSION 8885968154    01228G    MB84000000005974 NP1599977547467   24BEAC9B3AT7566B1AD406B  000000000+600450S00130    MCB  10988                     000000000  N                0000000000000.00 0000000.00   0000000.00                             000000000000000                                                                                                                                                   U001424  000000000000 0000000000001.80     02850 01000                  
00004020390460001P1675906759000000198288001098000000101                                                          000000000000          8000            884295529                                                                                                                                                                                                                                                                                                                                                                                                                                                                                                                                                            
00004030390460039DT67590675900000019828800109800000010180010987287283107900012749756041720230000001987010723000000000713934515599XXXXXX4632       ME03KE06MS02      NY 4607AMWEF283HG0417  N840000000019870          81DNKETOFUSION 8885968154    06577P    MC84000000019870 N  599977547467   4DEDEA0A9ETDAA6B7AD99A8  000000000+600450S00130    MWE  00737                     000000000  N                0000000000000.00 0000000.00   0000000.00                             000000000000000                                                                                                                                                   U001424  000000000000 0000000000005.27     02600 01000                  
00004040390460040DT67590675900000019828800109800000010180010924001193107900012749771041720230000002487010723000000000713934414720XXXXXX8847               2111111   NYV4 A7W583107596882926N84000000002487056WX00    01DNKETOFUSION 8885968154    03469D    VS84000000024870 NP1599977547467   9F5A15E5F9T7957426404D7  000000000+                D CD 12109                     000000000  N000000000 498   0000000000000.00 0000000.00   0000000.00                             000000000000000                                                                                                                                                     01424 G000000024870 0000000000006.32     02500 01000                  
00004050390460001P16759067590000001982880010980000001010000000000000000                             2000000000000000000000000              000000000000                    0000000000000000000000000                    000000000000                                                                                                                                                                                                                                                                                                                                                                                                                                                                                        
00004060390460041DT67590675900000019828800109800000010180010924001193107900012749789041720230000002487010723000000000713934426684XXXXXX5805               2111111   NYV4 A7W583107600048848N8400000000248709NL400    01DNKETOFUSION 8885968154    00134D    VS84000000024870 NP1599977547467   F3251B5C37T3B6C21133578  000000000+                D CD 12109                     000000000  N000000000 498   0000000000000.00 0000000.00   0000000.00                             000000000000000                                                                                                                                                     01424 G000000024870 0000000000006.32     02500 01000                  
00004070390460001P16759067590000001982880010980000001010000000000000000                             2000000000000000000000000              000000000000                    0000000000000000000000000                    000000000000                                                                                                                                                                                                                                                                                                                                                                                                                                                                                        
00004080390460042DT67590675900000019828800109800000010680010974001193107900012749792041720230000001127510723000000000713934410039XXXXXX2937               0000000   NYV4 07T303107605375669N840000000011275WNDF00    01CNKETOFUSION 8885968154    92162C    VS84000000011275 NP1599977547467   1533367EDFT7AD97EEC96AB  000000000+                C CC 00245                     000000000  N000000000 166   0000000000000.00 0000000.00   0000000.00                             000000000000000                                                                                                                                                     01424  000000011275-0000000000001.98     01760 00000                  
00004090390460001P16759067590000001982880010980000001060000000000000000                             2000000000000000000000000              000000000000                    0000000000000000000000000                    000000000000                                                                                                                                                                                                                                                                                                                                                                                                                                                                                        
00004100390460043DT67590675900000019828800109800000010180010987287283107900012749814041720230000001499010723000000000713934527854XXXXXX5585       ME03KE06MS02      NY 4607AMWEAOE0RA0417  N840000000014990          81DNKETOFUSION 8885968154    21713W    MC84000000014990 N  599977547467   A119F29C05T1499334ED2A3  000000000+600450S00130    MWE  00642                     000000000  N                0000000000000.00 0000000.00   0000000.00                             000000000000000                                                                                                                                                   U001424  000000000000 0000000000003.40     02200 01000                  
00004110390460044DT67590675900000019828800109800000010180010987287283107900012749822041720230000000327410723000000000713934527854XXXXXX5585       ME03KE06MS02      NY 4607AMWETOM8Q90417  N840000000003274          81DNKETOFUSION 8885968154    21714W    MC84000000003274 N  599977547467   A119F29C05T1C1EF149AB7C  000000000+600450S00130    MWE  00642                     000000000  N                0000000000000.00 0000000.00   0000000.00                             000000000000000                                                                                                                                                   U001424  000000000000 0000000000000.82     02200 01000                  
00004120390460045DT67590675900000019828800109800000010180010987287283107900012749830041720230000000259510723000000000713934527854XXXXXX5585       ME03KE06MS02      NY 4607AMWEHON1RA0417  N840000000002595          81DNKETOFUSION 8885968154    21714W    MC84000000002595 N  599977547467   A119F29C05TA33121937DF8  000000000+600450S00130    MWE  00642                     000000000  N                0000000000000.00 0000000.00   0000000.00                             000000000000000                                                                                                                                                   U001424  000000000000 0000000000000.67     02200 01000                  
00004130390460046DT67590675900000019828800109800000010180010924001193107900012749847041720230000001206610723000000000713934414720XXXXXX6036               2111111   NYV4 A7W303107621761464N840000000012066ZFHS00    01DNKETOFUSION 8885968154    08500D    VS84000000012066 NP1599977547467   9F0D1022CET9563090F0BF6  000000000+                D CD 12109                     000000000  N000000000 498   0000000000000.00 0000000.00   0000000.00                             000000000000000                                                                                                                                                     01424 G000000012066 0000000000003.12     02500 01000                  
00004140390460001P16759067590000001982880010980000001010000000000000000                             2000000000000000000000000              000000000000                    0000000000000000000000000                    000000000000                                                                                                                                                                                                                                                                                                                                                                                                                                                                                        
00004150390460047DT67590675900000019828800109800000010680010976509753107900012749852041720230000002487010723000000000713934601100XXXXXX3385   BA00                  NY 4 07N813092062101848N840000000024870    00    01CNKETOFUSION 8885968154    01704R    DS84000000024870 N  599977547467070                         000000000+1015104910600   DCCDI01022667150  121650200000 000000000  0          134   0000000000000.00 0000000.00   0000000.00                             000000000000000                                                                                                                                                     01424  000000000000-0000000000004.35     01750 00000                  
00004160390460048DT67590675900000019828800109800000010180010976509753107900012749860041720230000001987010723000000000713934601100XXXXXX1451   BA00                  NY 4 07N813092062939241N840000000019870    00    01DNKETOFUSION 8885968154    01714R    DS84000000019870 N  599977547467070                         000000000+1015104910600   DCCDI11325334161  121813000000 000000000  0          460   0000000000000.00 0000000.00   0000000.00                             000000000000000                                                                                                                                                     01424  000000000000 0000000000004.13     02030 01000                  
00004170390460049DT67590675900000019828800109800000010180010976509753107900012749878041720230000000327410723000000000713934601100XXXXXX1451   BA00                  NY 4 07N753092063261274N840000000003274    00    01DNKETOFUSION 8885968154    01774R    DS84000000003274 N  599977547467070                         000000000+1015104910600   DCCDI11325168148  121846000000 000000000  0          460   0000000000000.00 0000000.00   0000000.00                             000000000000000                                                                                                                                                     01424  000000000000 0000000000000.76     02030 01000                  
00004180390460050DT67590675900000019828800109800000010180010987287283107900012749905041720230000001987010723000000000713934549460XXXXXX6379       ME03KE06PT01      NY 4607AMCWRJBHQ60417  N840000000019870          81DNKETOFUSION 8885968154    01735Z    MC84000000019870 N  599977547467   002ABABCD3T2917547CE4A0  000000000+600450S00130    MCW  00642                     000000000  N                0000000000000.00 0000000.00   0000000.00                             000000000000000                                                                                                                                                   U001424  000000000000 0000000000004.47     02200 01000                  
00004190390460051DT67590675900000019828800109800000010680010974001193107900012750865041720230000000163710723000000000713934480990XXXXXX6575               0000000   NY94 07N000000000000000N   000000000000          01CNKETOFUSION 8885968154              VD84000000001637 N  599977547467                            000000000+                F DF 08168                     000000000  Y000000000 369   0000000000000.00 0000000.00   0000000.00                             000000000000000                                                                                                                                                     01424  000000000000 0000000000000.00     00000 00000                  
00004200390460052DT67590675900000019828800109800000010680010974001193107900012750873041720230000000993510723000000000713934480990XXXXXX6575               0000000   NY94 07N000000000000000N   000000000000          01CNKETOFUSION 8885968154              VD84000000009935 N  599977547467                            000000000+                F DF 08168                     000000000  Y000000000 369   0000000000000.00 0000000.00   0000000.00                             000000000000000                                                                                                                                                     01424  000000000000 0000000000000.00     00000 00000                  
00004210390460053DT67590675900000019828800109800000010180010924001193107900012749979041720230000001699010723000000000713934464018XXXXXX8115               2111111   NYV4 A7W303107651425174N840000000016990CS9W00    01DNKETOFUSION 8885968154    06273D    VS84000000016990 NP1599977547467   CAA71997FCTC70923287BA9  000000000+                D CD 12109                     000000000  N000000000 498   0000000000000.00 0000000.00   0000000.00                             000000000000000                                                                                                                                                     01424 G000000016990 0000000000004.35     02500 01000                  
00004220390460001P16759067590000001982880010980000001010000000000000000                             2000000000000000000000000              000000000000                    0000000000000000000000000                    000000000000                                                                                                                                                                                                                                                                                                                                                                                                                                                                                        
00004230390460054DT67590675900000019828800109800000010680010974001193107900012749982041720230000000327410723000000000713934414721XXXXXX2860               0000000   NYV4 07T303107657237730N840000000003274BJ9S00    01CNKETOFUSION 8885968154    017846    VS84000000003274 NP1599977547467   800C3E701ET191584E6932C  000000000+                C CC 00245                     000000000  N000000000 166   0000000000000.00 0000000.00   0000000.00                             000000000000000                                                                                                                                                     01424  000000003274-0000000000000.58     01760 00000                  
00004240390460001P16759067590000001982880010980000001060000000000000000                             2000000000000000000000000              000000000000                    0000000000000000000000000                    000000000000                                                                                                                                                                                                                                                                                                                                                                                                                                                                                        
00004250390460055DT67590675900000019828800109800000010180010924001193107900012749995041720230000002487010723000000000713934414720XXXXXX1147               2111111   NYV4 A7W583107657589334N840000000024870JPN300    01DNKETOFUSION 8885968154    06763D    VS84000000024870 NP1599977547467   685FDC0B65T15CA555E6192  000000000+                D CD 12109                     000000000  N000000000 498   0000000000000.00 0000000.00   0000000.00                             000000000000000                                                                                                                                                     01424 G000000024870 0000000000006.32     02500 01000                  
00004260390460001P16759067590000001982880010980000001010000000000000000                             2000000000000000000000000              000000000000                    0000000000000000000000000                    000000000000                                                                                                                                                                                                                                                                                                                                                                                                                                                                                        
00004270390460056DT67590675900000019828800109800000010180010924001193107900012750001041720230000000259510723000000000713934414720XXXXXX1147               2111111   NYV4 A7W303107658046451N840000000002595SW6J00    01DNKETOFUSION 8885968154    09341D    VS84000000002595 NP1599977547467   685FDC0B65TB461B418B76E  000000000+                D CD 12109                     000000000  N000000000 498   0000000000000.00 0000000.00   0000000.00                             000000000000000                                                                                                                                                     01424 G000000002595 0000000000000.75     02500 01000                  
00004280390460001P16759067590000001982880010980000001010000000000000000                             2000000000000000000000000              000000000000                    0000000000000000000000000                    000000000000                                                                                                                                                                                                                                                                                                                                                                                                                                                                                        
00004290390460057DT67590675900000019828800109800000010180010987287283107900012750036041720230000001987010723000000000713934542418XXXXXX3469       ME03KE06MS02      NY 4607AMPLTQ7JQ50417  N840000000019870          81DNKETOFUSION 8885968154    56667B    MC84000000019870 N  599977547467   521B0F06F6T8573537997E6  000000000+600450S00130    MPL  00580                     000000000  N                0000000000000.00 0000000.00   0000000.00                             000000000000000                                                                                                                                                   U001424  000000000000 0000000000004.27     02100 01000                  
00004300390460058DT67590675900000019828800109800000010180010924001193107900012750043041720230000001987010723000000000713934480213XXXXXX4786               2111111   NYV4 A7W303107666048285N840000000019870FKHK00    01DNKETOFUSION 8885968154    001466    VB84000000019870 NP1599977547467   08166E9D74TA32A5ED90136  000000000+                G4CG411355                     000000000  N000000000 377   0000000000000.00 0000000.00   0000000.00                             000000000000000                                                                                                                                                     01424 G000000019870 0000000000005.96     02950 01000                  
00004310390460001P16759067590000001982880010980000001010000000000000000                             2000000000000000000000000              000000000000                    0000000000000000000000000                    000000000000                                                                                                                                                                                                                                                                                                                                                                                                                                                                                        
00004320390460059DT67590675900000019828800109800000010180010976509753107900012750058041720230000001987010723000000000713934601101XXXXXX1692   BA00                  NY 4 07N813092115846971N840000000019870    00    01DNKETOFUSION 8885968154    01758P    DS84000000019870 N  599977547467070                         000000000+1015104910600   DCPDI11327833211  134624000000 000000000  0          462   0000000000000.00 0000000.00   0000000.00                             000000000000000                                                                                                                                                     01424  000000000000 0000000000004.17     02050 01000                  
00004330390460060DT67590675900000019828800109800000010180010976509753107900012750066041720230000000327410723000000000713934601101XXXXXX1692   BA00                  NY 4 07N813092116462126N840000000003274    00    01DNKETOFUSION 8885968154    01710P    DS84000000003274 N  599977547467070                         000000000+1015104910600   DCPDI11327170155  134726000000 000000000  0          462   0000000000000.00 0000000.00   0000000.00                             000000000000000                                                                                                                                                     01424  000000000000 0000000000000.77     02050 01000                  
00004340390460061DT67590675900000019828800109800000010180010976509753107900012750074041720230000000259510723000000000713934601101XXXXXX1692   BA00                  NY 4 07N863092116886581N840000000002595    00    01DNKETOFUSION 8885968154    01786P    DS84000000002595 N  599977547467070                         000000000+1015104910600   DCPDI11327500159  134807000000 000000000  0          462   0000000000000.00 0000000.00   0000000.00                             000000000000000                                                                                                                                                     01424  000000000000 0000000000000.63     02050 01000                  
00004350390460062DT67590675900000019828800109800000010180010924001193107900012750084041720230000000542810723000000000713934426684XXXXXX5772               2111111   NYV4 A7W583107677691853N840000000005428Z3RR00    01DNKETOFUSION 8885968154    07896A    VS84000000005428 NP1599977547467   81CF030F90T905E32149013  000000000+                A CA 12106                     000000000  N000000000 492   0000000000000.00 0000000.00   0000000.00                             000000000000000                                                                                                                                                     01424 G000000005428 0000000000001.13     01890 01000                  
00004360390460001P16759067590000001982880010980000001010000000000000000                             2000000000000000000000000              000000000000                    0000000000000000000000000                    000000000000                                                                                                                                                                                                                                                                                                                                                                                                                                                                                        
00004370390460063DT67590675900000019828800109800000010180010924001193107900012750100041720230000002487010723000000000713934440066XXXXXX1643               2111111   NYV4 A7W583107680741173N840000000024870TBLL00    01DNKETOFUSION 8885968154    00071C    VS84000000024870 NP1599977547467   D11B896271T1563FD767F28  000000000+                C CC 12108                     000000000  N000000000 496   0000000000000.00 0000000.00   0000000.00                             000000000000000                                                                                                                                                     01424 G000000024870 0000000000005.20     02050 01000                  
00004380390460001P16759067590000001982880010980000001010000000000000000                             2000000000000000000000000              000000000000                    0000000000000000000000000                    000000000000                                                                                                                                                                                                                                                                                                                                                                                                                                                                                        
00004390390460064DT67590675900000019828800109800000010180010924001193107900012750118041720230000000327410723000000000713934440066XXXXXX1643               2111111   NYV4 A7W583107680963894N8400000000032747XM400    01DNKETOFUSION 8885968154    08394C    VS84000000003274 NP1599977547467   D11B896271TB8D5A0016798  000000000+                C CC 12108                     000000000  N000000000 496   0000000000000.00 0000000.00   0000000.00                             000000000000000                                                                                                                                                     01424 G000000003274 0000000000000.77     02050 01000                  
00004400390460001P16759067590000001982880010980000001010000000000000000                             2000000000000000000000000              000000000000                    0000000000000000000000000                    000000000000                                                                                                                                                                                                                                                                                                                                                                                                                                                                                        
00004410390460065DT67590675900000019828800109800000010180010924001193107900012750126041720230000000259510723000000000713934440066XXXXXX1643               2111111   NYV4 A7W303107681113101N84000000000259589HN00    01DNKETOFUSION 8885968154    00279C    VS84000000002595 NP1599977547467   D11B896271T739618BED1A8  000000000+                C CC 12108                     000000000  N000000000 496   0000000000000.00 0000000.00   0000000.00                             000000000000000                                                                                                                                                     01424 G000000002595 0000000000000.63     02050 01000                  
00004420390460001P16759067590000001982880010980000001010000000000000000                             2000000000000000000000000              000000000000                    0000000000000000000000000                    000000000000                                                                                                                                                                                                                                                                                                                                                                                                                                                                                        
00004430390460066DT67590675900000019828800109800000010680010974001193107900012750147041720230000000993510723000000000713934430572XXXXXX4136               0000000   NYV4 07T583107691657225N840000000009935XF2685    01CNKETOFUSION 8885968154    076078    VS84000000009935 NP1599977547467   E59B0EBDE9TA9632D4E3734  000000000+                C CC 00245                     000000000  N000000000 166   0000000000000.00 0000000.00   0000000.00                             000000000000000                                                                                                                                                     01424  000000009935-0000000000001.75     01760 00000                  
00004440390460001P16759067590000001982880010980000001060000000000000000                             2000000000000000000000000              000000000000                    0000000000000000000000000                    000000000000                                                                                                                                                                                                                                                                                                                                                                                                                                                                                        
00004450390460067DT67590675900000019828800109800000010680010974001193107900012750188041720230000001243510723000000000713934426690XXXXXX5117               0000000   NYV4 07T383107704378204N840000000012435ZDKG00    01CNKETOFUSION 8885968154    00728C    VS84000000012435 NP1599977547467   05BFF3AF5ET066C20616F2C  000000000+                C CC 00245                     000000000  N000000000 166   0000000000000.00 0000000.00   0000000.00                             000000000000000                                                                                                                                                     01424  000000012435-0000000000002.19     01760 00000                  
00004460390460001P16759067590000001982880010980000001060000000000000000                             2000000000000000000000000              000000000000                    0000000000000000000000000                    000000000000                                                                                                                                                                                                                                                                                                                                                                                                                                                                                        
00004470390460068DT67590675900000019828800109800000010180010987287283107900012750200041720230000002487010723000000000713934549460XXXXXX1759       ME03KE06PT01      NY 4607AMCWXN8QQ90417  N840000000024870          81DNKETOFUSION 8885968154    01762Z    MC84000000024870 N  599977547467   F11332023AT1EBB2FEA73A3  000000000+600450S00130    MCW  00642                     000000000  N                0000000000000.00 0000000.00   0000000.00                             000000000000000                                                                                                                                                   U001424  000000000000 0000000000005.57     02200 01000                  
00004480390460069DT67590675900000019828800109800000010180010987287283107900012750218041720230000000327410723000000000713934549460XXXXXX1759       ME03KE06PT01      NY 4607AMCWUSV3Q60417  N840000000003274          81DNKETOFUSION 8885968154    01778Z    MC84000000003274 N  599977547467   F11332023AT2EE8BD04738A  000000000+600450S00130    MCW  00642                     000000000  N                0000000000000.00 0000000.00   0000000.00                             000000000000000                                                                                                                                                   U001424  000000000000 0000000000000.82     02200 01000                  
00004490390460070DT67590675900000019828800109800000010180010924001193107900012750233041720230000002255010723000000000713934438857XXXXXX2537               2111111   NYV4 A7W383107714375258N8400000000225509WQF00    01DNKETOFUSION 8885968154    01139D    VS84000000022550 NP1599977547467   B6305DB617T011C66D6CA99  000000000+                D CD 12109                     000000000  N000000000 498   0000000000000.00 0000000.00   0000000.00                             000000000000000                                                                                                                                                     01424 G000000022550 0000000000005.74     02500 01000                  
00004500390460001P16759067590000001982880010980000001010000000000000000                             2000000000000000000000000              000000000000                    0000000000000000000000000                    000000000000                                                                                                                                                                                                                                                                                                                                                                                                                                                                                        
00004510390460071DT67590675900000019828800109800000010180010987287283107900012750267041720230000001194810723000000000713934531257XXXXXX9130       ME03KE06MS02      NY 4607AMDJMBAPRA0417  N840000000011948          81DNKETOFUSION 8885968154    111806    MD84000000011948 N  599977547467   F5E89FF0ABT886765D4BEEF  000000000+600450S00130    MDJ  10813                     000000000  1                0000000000000.00 0000000.00   0000000.00                             000000000000000                                                                                                                                                   U001424  000000000000 0000000000000.28     00050 02200                  
00004520390460072DT67590675900000019828800109800000010180010976509753107900012750272041720230000001578510723000000000713934601100XXXXXX9744   BA00                  NY 4 07N873092168931017N840000000015785    00    01DNKETOFUSION 8885968154    01793R    DS84000000015785 N  599977547467070                         000000000+1015104910600   DCCDI11325665147  151453000000 000000000  0          460   0000000000000.00 0000000.00   0000000.00                             000000000000000                                                                                                                                                     01424  000000000000 0000000000003.30     02030 01000                  
00004530390460073DT67590675900000019828800109800000010180010924001193107900012750308041720230000001578510723000000000713934420064XXXXXX3478               2111111   NYV4 A7W463107730228187N8400000000157853MCW00    01DNKETOFUSION 8885968154    526403    VD84000000015785 NP1599977547467   82692482A4T3ECE23CD7445  000000000+                F DF 00415                     000000000  N000000000       0000000000000.00 0000000.00   0000000.00                             000000000000000                                                                                                                                                     01424 G000000015785 0000000000002.75     01650 01500                  
00004540390460001P16759067590000001982880010980000001010000000000000000                             2000000000000000000000000              000000000000                    0000000000000000000000000                    000000000000                                                                                                                                                                                                                                                                                                                                                                                                                                                                                        
00004550390460074DT67590675900000019828800109800000010180010924001193107900012750316041720230000000654810723000000000713934420064XXXXXX3478               2111111   NYV4 A7W383107730392010N840000000006548CFFT00    01DNKETOFUSION 8885968154    526446    VD84000000006548 NP1599977547467   82692482A4TCA333E3F6FEC  000000000+                F DF 00415                     000000000  N000000000       0000000000000.00 0000000.00   0000000.00                             000000000000000                                                                                                                                                     01424 G000000006548 0000000000001.23     01650 01500                  
00004560390460001P16759067590000001982880010980000001010000000000000000                             2000000000000000000000000              000000000000                    0000000000000000000000000                    000000000000                                                                                                                                                                                                                                                                                                                                                                                                                                                                                        
00004570390460075DT67590675900000019828800109800000010180010924001193107900012750324041720230000000519010723000000000713934420064XXXXXX3478               2111111   NYV4 A7W463107730487443N840000000005190P3DN00    01DNKETOFUSION 8885968154    526475    VD84000000005190 NP1599977547467   82692482A4T185AADAFD305  000000000+                F DF 00415                     000000000  N000000000       0000000000000.00 0000000.00   0000000.00                             000000000000000                                                                                                                                                     01424 G000000005190 0000000000001.01     01650 01500                  
00004580390460001P16759067590000001982880010980000001010000000000000000                             2000000000000000000000000              000000000000                    0000000000000000000000000                    000000000000                                                                                                                                                                                                                                                                                                                                                                                                                                                                                        
00004590390460076DT67590675900000019828800109800000010180010924001193107900012750357041720230000001987010723000000000713934414718XXXXXX7913               2111111   NYV4 A7W463107750072537N840000000019870B4L700    01DNKETOFUSION 8885968154    017680    VS84000000019870 NP1599977547467   0D20DFC27CT6F5552614959  000000000+                D CD 12109                     000000000  N000000000 498   0000000000000.00 0000000.00   0000000.00                             000000000000000                                                                                                                                                     01424 G000000019870 0000000000005.07     02500 01000                  
00004600390460001P16759067590000001982880010980000001010000000000000000                             2000000000000000000000000              000000000000                    0000000000000000000000000                    000000000000                                                                                                                                                                                                                                                                                                                                                                                                                                                                                        
00004610390460077DT67590675900000019828800109800000010180010987287283107900012750390041720230000001723510723000000000713934552470XXXXXX4617       ME03KE06PT01      NY 4607AMCWMPGULN0417  N840000000017235          81DNKETOFUSION 8885968154    06747Z    MC84000000017235 N  599977547467   1488FB9D9DTC102C0508236  000000000+600450S00130    MCW  00642                     000000000  N                0000000000000.00 0000000.00   0000000.00                             000000000000000                                                                                                                                                   U001424  000000000000 0000000000003.89     02200 01000                  
00004620390460078DT67590675900000019828800109800000010180010987287283107900012750408041720230000001987010723000000000713934519452XXXXXX5810       ME03KE06PT01      NY 4607AMCWTVNVLN0417  N840000000019870          81DNKETOFUSION 8885968154    00164Z    MC84000000019870 N  599977547467   FFC8F685E0T97CAF5E35FA9  000000000+600450S00130    MCW  00642                     000000000  N                0000000000000.00 0000000.00   0000000.00                             000000000000000                                                                                                                                                   U001424  000000000000 0000000000004.47     02200 01000                  
00004630390460079DT67590675900000019828800109800000010180010924001193107900012750415041720230000001987010723000000000713934499140XXXXXX1755               2111111   NYV4 A7W463107796116765N8400000000198708Q4W00    01DNKETOFUSION 8885968154    453403    VD84000000019870 NP1599977547467   EA4F0B08E1TAD975ED09204  000000000+                F DF 00415                     000000000  N000000000       0000000000000.00 0000000.00   0000000.00                             000000000000000                                                                                                                                                     01424 G000000019870 0000000000003.43     01650 01500                  
00004640390460001P16759067590000001982880010980000001010000000000000000                             2000000000000000000000000              000000000000                    0000000000000000000000000                    000000000000                                                                                                                                                                                                                                                                                                                                                                                                                                                                                        
00004650390460080DT67590675900000019828800109800000010180010924001193107900012750423041720230000000327410723000000000713934499140XXXXXX1755               2111111   NYV4 A7W583107797233199N8400000000032742WR400    01DNKETOFUSION 8885968154    453756    VD84000000003274 NP1599977547467   EA4F0B08E1TF96F8EA70D1C  000000000+                F DF 00415                     000000000  N000000000       0000000000000.00 0000000.00   0000000.00                             000000000000000                                                                                                                                                     01424 G000000003274 0000000000000.69     01650 01500                  
00004660390460001P16759067590000001982880010980000001010000000000000000                             2000000000000000000000000              000000000000                    0000000000000000000000000                    000000000000                                                                                                                                                                                                                                                                                                                                                                                                                                                                                        
00004670390460081DT67590675900000019828800109800000010680010987287283107900012750440041720230000001987010723000000000713934552475XXXXXX5756                         NY 4607AMPLGJS3LN0417  N840000000019870          81CNKETOFUSION 8885968154    011303    MC84000000019870 N  599977547467   A7B8BA02A6TA09E32D0E4EA  000000000+600450S00130    MPL  00564                     000000000  N                0000000000000.00 0000000.00   0000000.00                             000000000000000                                                                                                                                                     01424  000000000000-0000000000003.48     01750 00000                  
00004680390460082DT67590675900000019828800109800000010180010924001193107900012750472041720230000001578510723000000000713934444796XXXXXX0453               2111111   NYV4 A7W583107817991625N840000000015785SLGC00    01DNKETOFUSION 8885968154    017276    VS84000000015785 NP1599977547467   5859BC30E8TEAB96D257D61  000000000+                A CA 12106                     000000000  N000000000 492   0000000000000.00 0000000.00   0000000.00                             000000000000000                                                                                                                                                     01424 G000000015785 0000000000003.08     01890 01000                  
00004690390460001P16759067590000001982880010980000001010000000000000000                             2000000000000000000000000              000000000000                    0000000000000000000000000                    000000000000                                                                                                                                                                                                                                                                                                                                                                                                                                                                                        
00004700390460083DT67590675900000019828800109800000010180010924001193107900012750480041720230000000654810723000000000713934444796XXXXXX0453               2111111   NYV4 A7W303107818068495N840000000006548Q4NM00    01DNKETOFUSION 8885968154    017303    VS84000000006548 NP1599977547467   5859BC30E8T2B572D304311  000000000+                A CA 12106                     000000000  N000000000 492   0000000000000.00 0000000.00   0000000.00                             000000000000000                                                                                                                                                     01424 G000000006548 0000000000001.34     01890 01000                  
00004710390460001P16759067590000001982880010980000001010000000000000000                             2000000000000000000000000              000000000000                    0000000000000000000000000                    000000000000                                                                                                                                                                                                                                                                                                                                                                                                                                                                                        
00004720390460084DT67590675900000019828800109800000010180010924001193107900012750563041720230000002078510723000000000713934403690XXXXXX0194               2111111   NYV4 A7W583107834036647N840000000020785HPVD00    01DNKETOFUSION 8885968154    00122C    VS84000000020785 NP1599977547467   1F959FAD44TEA0F53A14A4D  000000000+                C CC 12108                     000000000  N000000000 496   0000000000000.00 0000000.00   0000000.00                             000000000000000                                                                                                                                                     01424 G000000020785 0000000000004.36     02050 01000                  
00004730390460001P16759067590000001982880010980000001010000000000000000                             2000000000000000000000000              000000000000                    0000000000000000000000000                    000000000000                                                                                                                                                                                                                                                                                                                                                                                                                                                                                        
00004740390460085DT67590675900000019828800109800000010180010987287283107900012750572041720230000001394810723000000000713934537993XXXXXX9379       ME03KE06MS02      NY 4607AMPLHD8OLN0417  N840000000013948          81DNKETOFUSION 8885968154    01798B    MC84000000013948 N  599977547467   64ABE6AB4BT0F8B14204774  000000000+600450S00130    MPL  00580                     000000000  N                0000000000000.00 0000000.00   0000000.00                             000000000000000                                                                                                                                                   U001424  000000000000 0000000000003.03     02100 01000                  
00004750390460086DT67590675900000019828800109800000010180010987287283107900012750580041720230000000327410723000000000713934537993XXXXXX9379       ME03KE06MS02      NY 4607AMPLHEK3LN0417  N840000000003274          81DNKETOFUSION 8885968154    01728B    MC84000000003274 N  599977547467   64ABE6AB4BT54E9636A8995  000000000+600450S00130    MPL  00580                     000000000  N                0000000000000.00 0000000.00   0000000.00                             000000000000000                                                                                                                                                   U001424  000000000000 0000000000000.79     02100 01000                  
00004760390460087DT67590675900000019828800109800000010680010987287283107900012750614041720230000000259510723000000000713934546616XXXXXX3041                         NY 4607AMCWPUHMLK0417  N840000000002595          81CNKETOFUSION 8885968154    304926    MC84000000002595 N  599977547467   FC6EE2F333T77D5A11D4630  000000000+600450S00130    MCW  00564                     000000000  N                0000000000000.00 0000000.00   0000000.00                             000000000000000                                                                                                                                                     01424  000000000000-0000000000000.45     01750 00000                  
00004770390460088DT67590675900000019828800109800000010680010987287283107900012750622041720230000000327410723000000000713934546616XXXXXX3041                         NY 4607AMCWHZQHLN0417  N840000000003274          81CNKETOFUSION 8885968154    778638    MC84000000003274 N  599977547467   FC6EE2F333T262773F939D6  000000000+600450S00130    MCW  00564                     000000000  N                0000000000000.00 0000000.00   0000000.00                             000000000000000                                                                                                                                                     01424  000000000000-0000000000000.57     01750 00000                  
00004780390460089DT67590675900000019828800109800000010680010987287283107900012750630041720230000000259510723000000000713934527505XXXXXX4537                         NY 4607AMDJXVTXLK0417  N840000000002595          81CNKETOFUSION 8885968154    654014    MD84000000002595 N  599977547467   32A8F14CB3TDC1CAD6A450F  000000000+600450S00130    MDJ  10828                     000000000  1                0000000000000.00 0000000.00   0000000.00                             000000000000000                                                                                                                                                     01424  000000000000 0000000000000.00     00000 00000                  
00004790390460090DT67590675900000019828800109800000010680010987287283107900012750648041720230000000327410723000000000713934527505XXXXXX4537                         NY 4607AMDJHXR2LK0417  N840000000003274          81CNKETOFUSION 8885968154    659224    MD84000000003274 N  599977547467   32A8F14CB3T253F4C3E545A  000000000+600450S00130    MDJ  10828                     000000000  1                0000000000000.00 0000000.00   0000000.00                             000000000000000                                                                                                                                                     01424  000000000000 0000000000000.00     00000 00000                  
00004800390460091DT67590675900000019828800109800000010680010987287283107900012750655041720230000001987010723000000000713934527505XXXXXX4537                         NY 4607AMDJPWGNLK0417  N840000000019870          81CNKETOFUSION 8885968154    755047    MD84000000019870 N  599977547467   32A8F14CB3T8E29391290A3  000000000+600450S00130    MDJ  10828                     000000000  1                0000000000000.00 0000000.00   0000000.00                             000000000000000                                                                                                                                                     01424  000000000000 0000000000000.00     00000 00000                  
00004810390460092DT67590675900000019828800109800000010180010987287283107900012750671041720230000001987010723000000000713934524760XXXXXX7141       ME03KE06MS02      NY 4607AMPLO42JLN0417  N840000000019870          81DNKETOFUSION 8885968154    01729B    MC84000000019870 N  599977547467   C9843DC76ET7720DC018949  000000000+600450S00130    MPL  00580                     000000000  N                0000000000000.00 0000000.00   0000000.00                             000000000000000                                                                                                                                                   U001424  000000000000 0000000000004.27     02100 01000                  
00004820390460093DT67590675900000019828800109800000010180010987287283107900012750689041720230000000198810723000000000713934524760XXXXXX7141       ME03KE06MS02      NY 4607AMPLH58OLN0417  N840000000001988          81DNKETOFUSION 8885968154    01710B    MC84000000001988 N  599977547467   C9843DC76ET7F67B052846F  000000000+600450S00130    MPL  00580                     000000000  N                0000000000000.00 0000000.00   0000000.00                             000000000000000                                                                                                                                                   U001424  000000000000 0000000000000.52     02100 01000                  
00004830390460094BH6759067590000002391180012080000090170417202310723000000000566763    0000090001080258Y8001206759C04182023                                                                                                                                                                                                                                                                                                                                                                                                                                                                                                                                                                                                 
00004840390460095DT67590675900000023911800120800000010180012024001193107900010801806041720230000002179910723000000000566763443040XXXXXX9962               2111111   NYV4 A7W463107192199289N840000000021799QPJF00    01DNVITA FUEL LLC            298210    VD84000000021799 NP1599977875615   FA00B73BC5T05A8592AEE37  000000000+                F DF 10420                     000000000  Y000000000 338   0000000000000.00 0000000.00   0000000.00                             000000000000000                                                                                                                                                     01424 G000000021799 0000000000000.33     00050 02200                  
00004850390460001P16759067590000002391180012080000001010000000000000000                             2000000000000000000000000              000000000000                    0000000000000000000000000                    000000000000                                                                                                                                                                                                                                                                                                                                                                                                                                                                                        
00004860390460096DT67590675900000023911800120800000010180012024001193107900010801814041720230000000544910723000000000566763443040XXXXXX9962               2111111   NYV4 A7W463107192637562N840000000005449BZK600    01DNVITA FUEL LLC            583287    VD84000000005449 NP1599977875615   FA00B73BC5TA923BC1936D5  000000000+                F DF 10420                     000000000  Y000000000 338   0000000000000.00 0000000.00   0000000.00                             000000000000000                                                                                                                                                     01424 G000000005449 0000000000000.25     00050 02200                  
