02734810241990002BH6759067590000000288180088880000090170210202304123000000000015998    0000090001560116Y8008886759C02132023                                                                                                                                                                                                                                                                                                                                                                                                                                                                                                                                                                                                 
02734820241990003DT67590675900000002881800888800000010180088873011003041900015601164020920230000001599804123000000000015998371727XXXXX6015                          NY 4 07N006994377593064N840000000015998          01DNHAPPY HIPPIE             103678    AM84000000015998 Y  549976044904                            000000000+6004S0000130 258     11262                     000000000                   0000000000000.00 0000000.00   0000000.00                             000000000000000 61248972086759675900000002881 HAPPY HIPPIE             832 PARKWAY              8656540830      37862     HAPPYHIPPIE832@GMAIL.COM                  01324  000000000000 0000000000003.22     01950 00000                  
02734830241990004BH6759067590000000215480088880000090170210202304123000000000318690    0000090001010003Y8008886759C02132023                                                                                                                                                                                                                                                                                                                                                                                                                                                                                                                                                                                                 
02734840241990005DT67590675900000002154800888800000010180088824001193041900010100018021020230000005150004123000000000318690410040XXXXXX5788       VS11    0001111   NYV1 A E463041719348869N840000000051500GZ5F00    05DNDRIP DROP DISTRO         68508G    VB84000000051500 N  519976769744                            000000000+                G4CG411354                     000000000  N000000000 378   0000000000000.00 0000000.00   0000000.00                             000000000000000                                                                                                                                                     01424 A000000000000 0000000000011.43     02200 01000                  
02734850241990006DT67590675900000002154800888800000010180088824001193041900010100026021020230000018849004123000000000318690415417XXXXXX8899       VS11    0001111   NYV1 A E583041751294015N8400000001884909F9G00    05DNDRIP DROP DISTRO         06283G    VB84000000188490 N  519976769744                            000000000+                G4CG411354                     000000000  N000000000 378   0000000000000.00 0000000.00   0000000.00                             000000000000000                                                                                                                                                     01424 A000000000000 0000000000041.57     02200 01000                  
02734860241990007DT67590675900000002154800888800000010180088824001193041900010100034021020230000007870004123000000000318690435536XXXXXX0744       VS11    0001111   NYV1 A E583042004199741N8400000000787006MVN00    05DNDRIP DROP DISTRO         023044    VD84000000078700 N  519976769744                            000000000+                G DG 10351                     000000000  Y000000000 338   0000000000000.00 0000000.00   0000000.00                             000000000000000                                                                                                                                                     01424 A000000000000 0000000000000.61     00050 02200                  
02734870241990008BH6759067590000000215480088880000090170210202304123000000000322550    0000090001070004Y8008886759C02132023                                                                                                                                                                                                                                                                                                                                                                                                                                                                                                                                                                                                 
02734880241990009DT67590675900000002154800888800000010180088877287283041900010700017021020230000011100004123000000000322550543840XXXXXX9403                         NY 1 0 AMDBTSVWZP0210  N840000000111000          01DNDRIP DROP DISTRO LLC     020616    MD84000000111000 NP1519976225826                            000000000+M1010115434C    MDB  00062                     000000000  N                0000000000000.00 0000000.00   0000000.00                             000000000000000                                                                                                                                                   E101424  000000000000 0000000000029.52     02650 01000                  
02734890241990001P1675906759000000021548008888000000101                                                          000000000000          8000            471534935                                                                                                                                                                                                                                                                                                                                                                                                                                                                                                                                                            
02734900241990010DT67590675900000002154800888800000010180088873011003041900010700029021020230000006340004123000000000322550376747XXXXX2005                          NY 1 0 N007007213437062N840000000063400          05DNDRIP DROP DISTRO LLC     865086    AM84000000063400 Y  519976225826                            000000000+51010155434C 258     11244                     000000000                   0000000000000.00 0000000.00   0000000.00                             000000000000000 61248972736759675900000002154 DRIP DROP DISTRO LLC     1445 W COMMERCE AVE SUITE2087248209      83705     TROY@DRIPDROPDISTRO.COM                   01324  000000000000 0000000000012.15     01900 00000                  
02734910241990011DT67590675900000002154800888800000010180088876509753041900010700039021020230000009615004123000000000322550601120XXXXXX1902   BA50                  NY41 0 N803035157202961N840000000096150    00    05DNDRIP DROP DISTRO LLC     01055B    DZ84000000096150 N  519976225826050                         000000000+0000004910H00   DMCDI01012001074  163520000000 000000000  0          124   0000000000000.00 0000000.00   0000000.00                             000000000000000                                                                                                                                                     01424  000000000000 0000000000023.71     02450 01500                  
02734920241990012DT67590675900000002154800888800000010180088824001193041900010700049021020230000005200004123000000000322550442742XXXXXX6924       VS11    0001111   NYV1 A E303042033163184N840000000052000VHL600    05DNDRIP DROP DISTRO LLC     065519    VD84000000052000 N  519976225826                            000000000+                G DG 10351                     000000000  Y000000000 338   0000000000000.00 0000000.00   0000000.00                             000000000000000                                                                                                                                                     01424 A000000000000 0000000000000.48     00050 02200                  
02734930241990013BH6759067590000000370780088880000090170210202304123000000000059234    0000090001280203Y8008886759C02132023                                                                                                                                                                                                                                                                                                                                                                                                                                                                                                                                                                                                 
02734940241990014DT67590675900000003707800888800000010180088824001193041900012801969020920230000000349804123000000000059234435541XXXXXX2946               2111111   NYV4 A7W303041086066301N84000000000349824RX00    01DNMR HEMP FLOWER           113101    VD84000000003498 NP1549976053336   85555                    000000000+                F PF 08175                     000000000  N000000000       0000000000000.00 0000000.00   0000000.00                             000000000000000                                                                                                                                                     01424 G000000003498 0000000000000.81     01750 02000                  
02734950241990001P16759067590000000370780088880000001010000000000000000                             2000000000000000000000000              000000000000                    0000000000000000000000000                    000000000000                                                                                                                                                                                                                                                                                                                                                                                                                                                                                        
02734960241990015DT67590675900000003707800888800000010180088824001193041900012801977020920230000000249804123000000000059234419455XXXXXX1168               2111111   NYV4 A7W303041208298130N840000000002498MM8800    01DNMR HEMP FLOWER           036216    VD84000000002498 NP1549976053336   85565                    000000000+                F DF 00415                     000000000  N000000000       0000000000000.00 0000000.00   0000000.00                             000000000000000                                                                                                                                                     01424 G000000002498 0000000000000.56     01650 01500                  
02734970241990001P16759067590000000370780088880000001010000000000000000                             2000000000000000000000000              000000000000                    0000000000000000000000000                    000000000000                                                                                                                                                                                                                                                                                                                                                                                                                                                                                        
02734980241990016DT67590675900000003707800888800000010180088887287283041900012801986021020230000001704004123000000000059234552433XXXXXX9080       ME03KE06PT01      NY 4607AMCWA8CUWI0210  N840000000017040          81DNMR HEMP FLOWER           08661S    MC84000000017040 N  549976053336   85577                    000000000+600450S00130    MCW  02182                     000000000  N                0000000000000.00 0000000.00   0000000.00                             000000000000000                                                                                                                                                   U001424  000000000000 0000000000004.53     02600 01000                  
02734990241990017DT67590675900000003707800888800000010180088824001193041900012801993021020230000002082504123000000000059234414734XXXXXX2980               2111111   NYV4 A7W303041614614519N840000000020825845800    01DNMR HEMP FLOWER           07654D    VS84000000020825 NP1549976053336   85583                    000000000+                D CD 12109                     000000000  N000000000 498   0000000000000.00 0000000.00   0000000.00                             000000000000000                                                                                                                                                     01424 G000000020825 0000000000005.31     02500 01000                  
02735000241990001P16759067590000000370780088880000001010000000000000000                             2000000000000000000000000              000000000000                    0000000000000000000000000                    000000000000                                                                                                                                                                                                                                                                                                                                                                                                                                                                                        
02735010241990018DT67590675900000003707800888800000010180088824001193041900012802025021020230000000849904123000000000059234400022XXXXXX4575               2111111   NYV4 A7W303041763204034N840000000008499M7PB00    01DNMR HEMP FLOWER           486777    VD84000000008499 NP1549976053336   85595                    000000000+                F DF 10420                     000000000  Y000000000 338   0000000000000.00 0000000.00   0000000.00                             000000000000000                                                                                                                                                     01424 G000000008499 0000000000000.26     00050 02200                  
02735020241990001P16759067590000000370780088880000001010000000000000000                             2000000000000000000000000              000000000000                    0000000000000000000000000                    000000000000                                                                                                                                                                                                                                                                                                                                                                                                                                                                                        
02735030241990019DT67590675900000003707800888800000010180088824001193041900012802033021020230000000687404123000000000059234410039XXXXXX8495               2111111   NYV4 A7W463041825859085N840000000006874RDZW00    01DNMR HEMP FLOWER           47788D    VS84000000006874 NP1549976053336   85596                    000000000+                D CD 12109                     000000000  N000000000 498   0000000000000.00 0000000.00   0000000.00                             000000000000000                                                                                                                                                     01424 G000000006874 0000000000001.82     02500 01000                  
02735040241990001P16759067590000000370780088880000001010000000000000000                             2000000000000000000000000              000000000000                    0000000000000000000000000                    000000000000                                                                                                                                                                                                                                                                                                                                                                                                                                                                                        
02735050241990020BH6759067590000000051380000180000090170210202304123000000000000210    0000090001560001Y8000016759C02132023                                                                                                                                                                                                                                                                                                                                                                                                                                                                                                                                                                                                 
02735060241990021DT67590675900000000513800001800000010180000124001193041900015600012021020230000000021004123000000000000210474489XXXXXX3159       VK04VS111111111   NYV1 A E303041622228483N840000000000210FPK900    05DNVERMONT STATE BANK2      101778    VD84000000000210 N  549975705321                            000000000+                F DF 10439                     000000000  Y000000000 331   0000000000000.00 0000000.00   0000000.00                             000000000000000                                                                                                                                                     01424 F000000000000 0000000000000.22     00050 02200                  
02735070255560002BH6759067590000000766680088880000090170212202304323000000000030390    0000090001060006N8008886759C02132023                                                                                                                                                                                                                                                                                                                                                                                                                                                                                                                                                                                                 
02735080255560003DT67590675900000007666800888800000010180088877287283042900010600018021120230000000205104323000000000030390528149XXXXXX5152       MS02WI09          NY 1 0 AMDJR2YTS20211  N840000000002051          07DNPLANET VAPOR #300        036736    MD84000000002051 N  599976777836                            000000000+M10101M0034C    MDJ  00402                     000000000  N                0000000000000.00 0000000.00   0000000.00                             000000000000000                                                                                                                                                   B101418  000000000000 0000000000000.37     01050 01500                  
02735090255560004DT67590675900000007666800888800000010180088824001193043900010600023021120230000000461404323000000000030390473703XXXXXX6911       VS11    0001111   NYV1 A E583042548911369N840000000004614DN9J00    05DNPLANET VAPOR #300        063331    VD84000000004614 N  599976777836                            000000000+                F DF 10433                     000000000  Y000000000 338   0000000000000.00 0000000.00   0000000.00                             000000000000000                                                                                                                                                     01418 A000000000000 0000000000000.24     00050 02200                  
02735100255560005DT67590675900000007666800888800000010180088824001193043900010600031021120230000000709804323000000000030390427199XXXXXX5773       VS11    0001111   NYV1 A E303042556323905N840000000007098S9PZ00    05DNPLANET VAPOR #300        769289    VD84000000007098 N  599976777836                            000000000+                F DF 00381                     000000000  N000000000       0000000000000.00 0000000.00   0000000.00                             000000000000000                                                                                                                                                     01418 A000000000000 0000000000000.72     00800 01500                  
02735110255560006DT67590675900000007666800888800000010180088824001193043900010600049021120230000000215904323000000000030390473702XXXXXX2912       VS11    0001111   NYV1 A E583042569997127N840000000002159MN2J00    07DNPLANET VAPOR #300        014542    VD84000000002159 N  599976777836                            000000000+                F DF 10433                     000000000  Y000000000 338   0000000000000.00 0000000.00   0000000.00                             000000000000000                                                                                                                                                     01418 A000000000000 0000000000000.23     00050 02200                  
02735120255560007DT67590675900000007666800888800000010180088824001193043900010600056021120230000000906904323000000000030390438419XXXXXX5636       VS11    0001111   NYV1 A E463042583168436N840000000009069JSR200    07DNPLANET VAPOR #300        011157    VD84000000009069 N  599976777836                            000000000+                F DF 00381                     000000000  N000000000       0000000000000.00 0000000.00   0000000.00                             000000000000000                                                                                                                                                     01418 A000000000000 0000000000000.88     00800 01500                  
02735130255560008DT67590675900000007666800888800000010180088877287283042900010600067021120230000000539904323000000000030390523957XXXXXX4637       MS02WI09          NY 1 0 AMDJJ1QUS10211  N840000000005399          05DNPLANET VAPOR #300        715210    MD84000000005399 N  599976777836                            000000000+M10101C5434C    MDJ  00402                     000000000  N                0000000000000.00 0000000.00   0000000.00                             000000000000000                                                                                                                                                   B101418  000000000000 0000000000000.72     01050 01500                  
02735140255560009BH6759067590000000766680088880000090170212202304323000000000041846    0000090001070010N8008886759C02132023                                                                                                                                                                                                                                                                                                                                                                                                                                                                                                                                                                                                 
02735150255560010DT67590675900000007666800888800000010180088824001193043900010700013021120230000000464204323000000000041846473703XXXXXX9276       VS11    0001111   NYV1 A E463042630209243N840000000004642K3LG00    05DNPLANET VAPOR #300        033003    VD84000000004642 N  599976777836                            000000000+                F DF 10433                     000000000  Y000000000 338   0000000000000.00 0000000.00   0000000.00                             000000000000000                                                                                                                                                     01418 A000000000000 0000000000000.24     00050 02200                  
02735160255560011DT67590675900000007666800888800000010180088824001193043900010700021021120230000000280704323000000000041846473703XXXXXX4256       VS11    0001111   NYV1 A E303042643277362N840000000002807C9LP00    05DNPLANET VAPOR #300        034488    VD84000000002807 N  599976777836                            000000000+                F DF 10433                     000000000  Y000000000 338   0000000000000.00 0000000.00   0000000.00                             000000000000000                                                                                                                                                     01418 A000000000000 0000000000000.23     00050 02200                  
02735170255560012DT67590675900000007666800888800000010180088824001193043900010700039021120230000000647904323000000000041846430602XXXXXX6027       VS11    0001111   NYV1 A E463042650780322N840000000006479N8FV00    05DNPLANET VAPOR #300        857971    VD84000000006479 N  599976777836                            000000000+                F DF 00381                     000000000  N000000000       0000000000000.00 0000000.00   0000000.00                             000000000000000                                                                                                                                                     01418 A000000000000 0000000000000.67     00800 01500                  
02735180255560013DT67590675900000007666800888800000010180088824001193043900010700047021120230000000742004323000000000041846406049XXXXXX9943       VS11    0001111   NYV1 A E463042653356931N84000000000742057PG00    05DNPLANET VAPOR #300        020855    VD84000000007420 N  599976777836                            000000000+                F DF 10433                     000000000  Y000000000 338   0000000000000.00 0000000.00   0000000.00                             000000000000000                                                                                                                                                     01418 A000000000000 0000000000000.26     00050 02200                  
02735190255560014DT67590675900000007666800888800000010180088877287283042900010700057021120230000000323804323000000000041846531258XXXXXX5652       MS02WI09          NY 1 0 AMDJPWY3FQ0211  N840000000003238          05DNPLANET VAPOR #300        101932    MD84000000003238 N  599976777836                            000000000+M10101C5434C    MDJ  10815                     000000000  1                0000000000000.00 0000000.00   0000000.00                             000000000000000                                                                                                                                                   B101418  000000000000 0000000000000.24     00050 02200                  
02735200255560015DT67590675900000007666800888800000010180088824001193043900010700062021120230000000237504323000000000041846474474XXXXXX3900       VS11    0001111   NYV1 A E583042693642300N840000000002375NWK700    05DNPLANET VAPOR #300        111160    VD84000000002375 N  599976777836                            000000000+                F DF 10433                     000000000  Y000000000 338   0000000000000.00 0000000.00   0000000.00                             000000000000000                                                                                                                                                     01418 A000000000000 0000000000000.23     00050 02200                  
02735210255560016DT67590675900000007666800888800000010180088877287283042900010700073021120230000000453404323000000000041846529099XXXXXX3486       MS02WI09          NY 2 0 AMDJYDH1V90211  N840000000004534          05DNPLANET VAPOR #300        800708    MD84000000004534 N  599976777836                            000000000+M10101C1334C    MDJ  10815                     000000000  1                0000000000000.00 0000000.00   0000000.00                             000000000000000                                                                                                                                                   B101418  000000000000 0000000000000.24     00050 02200                  
02735220255560017DT67590675900000007666800888800000010180088824001193043900010700088021120230000000194304323000000000041846400022XXXXXX2875       VS11    0001111   NYV1 A E463042718536659N840000000001943LLR300    05DNPLANET VAPOR #300        489964    VD84000000001943 N  599976777836                            000000000+                F DF 10433                     000000000  Y000000000 338   0000000000000.00 0000000.00   0000000.00                             000000000000000                                                                                                                                                     01418 A000000000000 0000000000000.23     00050 02200                  
02735230255560018DT67590675900000007666800888800000010180088824001193043900010700096021120230000000128404323000000000041846441707XXXXXX6427       VK04VS111111111   NYV1 A E463042772928316N840000000001284XBMC00    07DNPLANET VAPOR #300        317105    VD84000000001284 N  599976777836                            000000000+                F PF 08165                     000000000  N000000000       0000000000000.00 0000000.00   0000000.00                             000000000000000                                                                                                                                                     01418 F000000000000 0000000000000.26     01600 00500                  
02735240255560019DT67590675900000007666800888800000010180088824001193043900010700104021120230000000712404323000000000041846458643XXXXXX7756       VS11    0001111   NYV1 A E583042804714160N8400000000071243CJL00    05DNPLANET VAPOR #300        H69307    VD84000000007124 N  599976777836                            000000000+                F DF 10433                     000000000  Y000000000 338   0000000000000.00 0000000.00   0000000.00                             000000000000000                                                                                                                                                     01418 A000000000000 0000000000000.26     00050 02200                  
02735250255560020BH6759067590000000215480088880000090170212202304323000000002358463    0000090001050456N8008886759C02132023                                                                                                                                                                                                                                                                                                                                                                                                                                                                                                                                                                                                 
02735260255560021DT67590675900000002154800888800000010180088824001193043900010555508021120230000008416004323000000002358463415417XXXXXX8153               2111111   NYV4 A7W383042185235276N840000000084160Z7VG00    01DNDRIP DROP DISTRO LLC     05317G    VB84000000084160 NP1519971004114   INV-000649               000000000+                G5CG511887                     000000000  N000000000 163   0000000000000.00 0000000.00   0000000.00                             000000000000000                                                                                                                                                     01418 G000000084160 0000000000025.35     03000 01000                  
02735270255560001P16759067590000000215480088880000001010000000000000000    43934597148              2000000000000000000000000              000000000000                    0000000000000000000000000                    000000000000                                                                                                                                                                                                                                                                                                                                                                                                                                                                                        
02735280255560022DT67590675900000002154800888800000010180088824001193043900010533877021120230000004250004323000000002358463442732XXXXXX5283               2111111   NYV4 A7W463042129272406N840000000042500ZCSB00    01DNDRIP DROP DISTRO LLC     073522    VD84000000042500 NP1519971004114   INV-000647               000000000+                G DG 10352                     000000000  Y000000000 338   0000000000000.00 0000000.00   0000000.00                             000000000000000                                                                                                                                                     01418 G000000042500 0000000000000.43     00050 02200                  
02735290255560001P16759067590000000215480088880000001010000000000000000    43934495900              2000000000000000000000000              000000000000                    0000000000000000000000000                    000000000000                                                                                                                                                                                                                                                                                                                                                                                                                                                                                        
02735300255560023DT67590675900000002154800888800000010180088873011003043900010554168021120230000056160004323000000002358463376742XXXXX2007                          NY 4 07N007012016755066N840000000561600          01DNDRIP DROP DISTRO LLC     223066    AM84000000561600 N  519971004114                            000000000+6004S0S00140 258     11244                     000000000                   0000000000000.00 0000000.00   0000000.00                             000000000000000 61248972736759675900000002154 DRIP DROP DISTRO LLC     1445 W COMMERCE AVE SUITE2087248209      83705     TROY@DRIPDROPDISTRO.COM                   01418  000000000000 0000000000106.80     01900 00000                  
02735310255560024DT67590675900000002154800888800000010180088887287283042900010563561021120230000005000004323000000002358463559257XXXXXX8234                         NY 4607AMAB1A0DGP0211  N840000000050000          81DNDRIP DROP DISTRO LLC     00111J    MB84000000050000 NP1519900000001   INV-000591               000000000+600450S00140    MAB  10991                     000000000  N                0000000000000.00 0000000.00   0000000.00                             000000000000000                                                                                                                                                   U001418  000000000000 0000000000014.85     02950 01000                  
02735320255560001P1675906759000000021548008888000000101                                                          000000000000          8000            471534935                                                                                                                                                                                                                                                                                                                                                                                                                                                                                                                                                            
02735330255560025DT67590675900000002154800888800000010180088873011003043900010580361021120230000150462804323000000002358463376744XXXXX1004                          NY 4 07N007023414802061N840000001504628          01DNDRIP DROP DISTRO LLC     124241    AM84000001504628 N  519971004114                            000000000+6004S0600140 258     11245                     000000000                   0000000000000.00 0000000.00   0000000.00                             000000000000000 61248972736759675900000002154 DRIP DROP DISTRO LLC     1445 W COMMERCE AVE SUITE2087248209      83705     TROY@DRIPDROPDISTRO.COM                   01418  000000000000 0000000000353.69     02350 00000                  
02735340255560026DT67590675900000002154800888800000010180088824001193043900010558056021120230000008416004323000000002358463424631XXXXXX3369               2111111   NYV4 A7W583042184568974N840000000084160495P00    01DNDRIP DROP DISTRO LLC     02102G    VB84000000084160 NP1519971004114   INV-000650               000000000+                G3CG308002                     000000000  N000000000 381   0000000000000.00 0000000.00   0000000.00                             000000000000000                                                                                                                                                     01418 G000000084160 0000000000023.66     02800 01000                  
02735350255560001P16759067590000000215480088880000001010000000000000000    43934595259              2000000000000000000000000              000000000000                    0000000000000000000000000                    000000000000                                                                                                                                                                                                                                                                                                                                                                                                                                                                                        
02735360255560027DT67590675900000002154800888800000010180088824001193043900010504563021120230000003141504323000000002358463403491XXXXXX1643               2111111   NYV4 A7W303042797116232N840000000031415VWRJ00    01DNDRIP DROP DISTRO LLC     381376    VD84000000031415 NP1519971004114   17423                    000000000+                G DG 10352                     000000000  Y000000000 338   0000000000000.00 0000000.00   0000000.00                             000000000000000                                                                                                                                                     01418 G000000031415 0000000000000.38     00050 02200                  
02735370255560001P16759067590000000215480088880000001010000000000000000    43935641220              2000000000000000000000000              000000000000                    0000000000000000000000000                    000000000000                                                                                                                                                                                                                                                                                                                                                                                                                                                                                        
02735380255560028BH6759067590000000766680088880000090170212202304323000000000010159    0000090001080002N8008886759C02132023                                                                                                                                                                                                                                                                                                                                                                                                                                                                                                                                                                                                 
02735390255560029DT67590675900000007666800888800000010180088824001193043900010800011021120230000000476104323000000000010159473703XXXXXX3866       VS11    0001111   NYV1 A E583042840520341N840000000004761R4TS00    05DNPLANET VAPOR #300        073868    VD84000000004761 N  599976777836                            000000000+                F DF 10433                     000000000  Y000000000 338   0000000000000.00 0000000.00   0000000.00                             000000000000000                                                                                                                                                     01418 A000000000000 0000000000000.24     00050 02200                  
02735400255560030DT67590675900000007666800888800000010180088877287283042900010800022021120230000000539804323000000000010159523957XXXXXX4048       MS02WI09          NY 1 0 AMDJY2EPLN0211  N840000000005398          05DNPLANET VAPOR #300        947300    MD84000000005398 N  599976777836                            000000000+M10101C5434C    MDJ  00402                     000000000  N                0000000000000.00 0000000.00   0000000.00                             000000000000000                                                                                                                                                   B101418  000000000000 0000000000000.72     01050 01500                  
02735410255560031BH6759067590000000909280088880000090170212202304323000000000195859    0000090001030045N8008886759C02132023                                                                                                                                                                                                                                                                                                                                                                                                                                                                                                                                                                                                 
02735420255560032DT67590675900000009092800888800000010180088824001193043900010300012021120230000000237504323000000000195859446540XXXXXX4654       VS11    0001111   NYV1 A E583042550145267N840000000002375DVG500    05DNPLANET VAPOR #500        011226    VS84000000002375 N  599976781988                            000000000+                D CD 12113                     000000000  N000000000 499   0000000000000.00 0000000.00   0000000.00                             000000000000000                                                                                                                                                     01418 A000000000000 0000000000000.60     02100 01000                  
02735430255560033DT67590675900000009092800888800000010180088824001193043900010300020021120230000000205104323000000000195859498503XXXXXX2572       VS11    0001111   NYV1 A E463042554083876N840000000002051RFW600    05DNPLANET VAPOR #500        028764    VD84000000002051 N  599976781988                            000000000+                F DF 00381                     000000000  N000000000       0000000000000.00 0000000.00   0000000.00                             000000000000000                                                                                                                                                     01418 A000000000000 0000000000000.31     00800 01500                  
02735440255560034DT67590675900000009092800888800000010180088824001193043900010300038021120230000000647904323000000000195859444796XXXXXX6823       VS11    0001111   NYV1 A E583042555281203N840000000006479P84Z00    05DNPLANET VAPOR #500        011961    VS84000000006479 N  599976781988                            000000000+                A CA 12110                     000000000  N000000000 493   0000000000000.00 0000000.00   0000000.00                             000000000000000                                                                                                                                                     01418 A000000000000 0000000000001.08     01510 01000                  
02735450255560035DT67590675900000009092800888800000010180088877287283042900010300049021120230000000785404323000000000195859531258XXXXXX2097       MS02WI09          NY 1 0 AMDJMB0LFQ0211  N840000000007854          07DNPLANET VAPOR #500        113164    MD84000000007854 N  599976781988                            000000000+M10101M5434C    MDJ  10815                     000000000  1                0000000000000.00 0000000.00   0000000.00                             000000000000000                                                                                                                                                   B101418  000000000000 0000000000000.26     00050 02200                  
02735460255560036DT67590675900000009092800888800000010180088824001193043900010300053021120230000000755804323000000000195859430602XXXXXX3483       VS11    0001111   NYV1 A E463042568570333N840000000007558XVLR00    07DNPLANET VAPOR #500        836591    VD84000000007558 N  599976781988                            000000000+                F DF 00381                     000000000  N000000000       0000000000000.00 0000000.00   0000000.00                             000000000000000                                                                                                                                                     01418 A000000000000 0000000000000.75     00800 01500                  
02735470255560037DT67590675900000009092800888800000010180088824001193043900010300061021120230000001101404323000000000195859432739XXXXXX9040       VS11    0001111   NYV1 A E583042571181546N840000000011014S8C200    05DNPLANET VAPOR #500        208119    VD84000000011014 N  599976781988                            000000000+                F DF 10433                     000000000  Y000000000 338   0000000000000.00 0000000.00   0000000.00                             000000000000000                                                                                                                                                     01418 A000000000000 0000000000000.28     00050 02200                  
02735480255560038DT67590675900000009092800888800000010180088824001193043900010300079021120230000000561504323000000000195859443044XXXXXX0219       VS11    0001111   NYV1 A E463042572534929N840000000005615GWBL00    07DNPLANET VAPOR #500        285287    VD84000000005615 N  599976781988                            000000000+                F DF 10433                     000000000  Y000000000 338   0000000000000.00 0000000.00   0000000.00                             000000000000000                                                                                                                                                     01418 A000000000000 0000000000000.25     00050 02200                  
02735490255560039DT67590675900000009092800888800000010180088824001193043900010300087021120230000000529004323000000000195859473703XXXXXX3216       VS11    0001111   NYV1 A E583042584191390N840000000005290GWPF00    05DNPLANET VAPOR #500        037972    VD84000000005290 N  599976781988                            000000000+                F DF 10433                     000000000  Y000000000 338   0000000000000.00 0000000.00   0000000.00                             000000000000000                                                                                                                                                     01418 A000000000000 0000000000000.25     00050 02200                  
02735500255560040DT67590675900000009092800888800000010180088824001193043900010300095021120230000000561404323000000000195859438419XXXXXX2255       VS11    0001111   NYV1 A E303042588697692N840000000005614L7VP00    05DNPLANET VAPOR #500        012109    VD84000000005614 N  599976781988                            000000000+                F DF 00381                     000000000  N000000000       0000000000000.00 0000000.00   0000000.00                             000000000000000                                                                                                                                                     01418 A000000000000 0000000000000.60     00800 01500                  
02735510255560041DT67590675900000009092800888800000010180088824001193043900010300103021120230000000302204323000000000195859473702XXXXXX1062       VS11    0001111   NYV1 A E383042598729732N8400000000030227Z5800    07DNPLANET VAPOR #500        050816    VD84000000003022 N  599976781988                            000000000+                F DF 10433                     000000000  Y000000000 338   0000000000000.00 0000000.00   0000000.00                             000000000000000                                                                                                                                                     01418 A000000000000 0000000000000.24     00050 02200                  
02735520255560042DT67590675900000009092800888800000010180088824001193043900010300111021120230000000129404323000000000195859461675XXXXXX3006       VK04VS111111111   NYV1 A E463042606831221N840000000001294F49L00    05DNPLANET VAPOR #500        958550    VD84000000001294 N  599976781988                            000000000+                F DF 00451                     000000000  N000000000 214   0000000000000.00 0000000.00   0000000.00                             000000000000000                                                                                                                                                     01418 F000000000000 0000000000000.24     01550 00400                  
02735530255560043DT67590675900000009092800888800000010180088877287283042900010300122021120230000000418104323000000000195859517805XXXXXX2898       MS02WI09          NY 1 0 AMWEK4IPS10211  N840000000004181          05DNPLANET VAPOR #500        02776P    MC84000000004181 N  599976781988                            000000000+M10101C5434C    MWE  00739                     000000000  N                0000000000000.00 0000000.00   0000000.00                             000000000000000                                                                                                                                                   B101418  000000000000 0000000000001.06     02300 01000                  
02735540255560044DT67590675900000009092800888800000010180088824001193043900010300137021120230000000615404323000000000195859426684XXXXXX5968       VS11    0001111   NYV1 A E463042625773095N8400000000061547L6700    07DNPLANET VAPOR #500        07735B    VS84000000006154 N  599976781988                            000000000+                B CB 12111                     000000000  N000000000 495   0000000000000.00 0000000.00   0000000.00                             000000000000000                                                                                                                                                     01418 A000000000000 0000000000001.12     01650 01000                  
02735550255560045DT67590675900000009092800888800000010180088877287283042900010300148021120230000000475004323000000000195859517805XXXXXX1011       MS02WI09          NY 1 0 AMWELHATS20211  N840000000004750          07DNPLANET VAPOR #500        03058P    MC84000000004750 N  599976781988                            000000000+M10101M0034C    MWE  00739                     000000000  N                0000000000000.00 0000000.00   0000000.00                             000000000000000                                                                                                                                                   B101418  000000000000 0000000000001.19     02300 01000                  
02735560255560046DT67590675900000009092800888800000010180088824001193043900010300152021120230000000215904323000000000195859438419XXXXXX5174       VS11    0001111   NYV1 A E383042638586205N840000000002159BV8900    05DNPLANET VAPOR #500        024418    VD84000000002159 N  599976781988                            000000000+                F DF 00381                     000000000  N000000000       0000000000000.00 0000000.00   0000000.00                             000000000000000                                                                                                                                                     01418 A000000000000 0000000000000.32     00800 01500                  
02735570255560047DT67590675900000009092800888800000010180088877287283042900010300163021120230000000248004323000000000195859514230XXXXXX7256       MS02WI09          NY 1 0 AMDJKULDFQ0211  N840000000002480          05DNPLANET VAPOR #500        18D9C4    MD84000000002480 N  599976781988                            000000000+M10101C5434C    MDJ  00402                     000000000  N                0000000000000.00 0000000.00   0000000.00                             000000000000000                                                                                                                                                   B101418  000000000000 0000000000000.41     01050 01500                  
02735580255560048DT67590675900000009092800888800000010180088824001193043900010300178021120230000000431804323000000000195859407624XXXXXX4707       VS11    0001111   NYV1 A E583042656956364N840000000004318PQ5400    07DNPLANET VAPOR #500        045469    VD84000000004318 N  599976781988                            000000000+                F DF 00381                     000000000  N000000000       0000000000000.00 0000000.00   0000000.00                             000000000000000                                                                                                                                                     01418 A000000000000 0000000000000.50     00800 01500                  
02735590255560049DT67590675900000009092800888800000010180088877287283042900010300189021120230000000647804323000000000195859517805XXXXXX3490       MS02WI09          NY 1 0 AMWEK6A6FQ0211  N840000000006478          05DNPLANET VAPOR #500        06062P    MC84000000006478 N  599976781988                            000000000+M10101C5434C    MWE  00739                     000000000  N                0000000000000.00 0000000.00   0000000.00                             000000000000000                                                                                                                                                   B101418  000000000000 0000000000001.59     02300 01000                  
02735600255560050DT67590675900000009092800888800000010180088824001193043900010300194021120230000000075504323000000000195859427199XXXXXX0359       VK04VS111111111   NYV1 A E583042667266047N840000000000755FF2P00    05DNPLANET VAPOR #500        784464    VD84000000000755 N  599976781988                            000000000+                F DF 00451                     000000000  N000000000 214   0000000000000.00 0000000.00   0000000.00                             000000000000000                                                                                                                                                     01418 F000000000000 0000000000000.16     01550 00400                  
02735610255560051DT67590675900000009092800888800000010180088824001193043900010300202021120230000000137504323000000000195859453506XXXXXX1342       VK04VS111111111   NYV1 A E303042668931330N840000000001375GXLP00    05DNPLANET VAPOR #500        H24875    VD84000000001375 N  599976781988                            000000000+                F DF 10439                     000000000  Y000000000 331   0000000000000.00 0000000.00   0000000.00                             000000000000000                                                                                                                                                     01418 F000000000000 0000000000000.23     00050 02200                  
02735620255560052DT67590675900000009092800888800000010180088824001193043900010300210021120230000000377904323000000000195859473703XXXXXX5909       VS11    0001111   NYV1 A E303042676607791N840000000003779FQ4400    07DNPLANET VAPOR #500        058077    VD84000000003779 N  599976781988                            000000000+                F DF 10433                     000000000  Y000000000 338   0000000000000.00 0000000.00   0000000.00                             000000000000000                                                                                                                                                     01418 A000000000000 0000000000000.24     00050 02200                  
02735630255560053DT67590675900000009092800888800000010180088824001193043900010300228021120230000000364104323000000000195859448261XXXXXX5861       VS11    0001111   NYV1 A E583042680703507N840000000003641Z8WC00    05DNPLANET VAPOR #500        000104    VD84000000003641 N  599976781988                            000000000+                F DF 10433                     000000000  Y000000000 338   0000000000000.00 0000000.00   0000000.00                             000000000000000                                                                                                                                                     01418 A000000000000 0000000000000.24     00050 02200                  
02735640255560054DT67590675900000009092800888800000010180088824001193043900010300236021120230000000340104323000000000195859440066XXXXXX7850       VS11    0001111   NYV1 A E463042691677960N840000000003401762P00    07DNPLANET VAPOR #500        07471A    VS84000000003401 N  599976781988                            000000000+                A CA 12110                     000000000  N000000000 493   0000000000000.00 0000000.00   0000000.00                             000000000000000                                                                                                                                                     01418 A000000000000 0000000000000.61     01510 01000                  
02735650255560055DT67590675900000009092800888800000010180088873011003043900010300240021120230000000213704323000000000195859372296XXXXX1000                          NY 1 0 N006458571889074N840000000002137          07DNPLANET VAPOR #500        876599    AM84000000002137 N  599976781988                            000000000+51010X50034C 258     11261                     000000000                   0000000000000.00 0000000.00   0000000.00                             000000000000000 61248972086759675900000009092 PLANET VAPOR #500        1001 KINLEY RD UNIT A    8035462263      29063     KEVIN@MOOREDISTRO.COM                     01418  000000000000 0000000000000.44     01600 00000                  
02735660255560056DT67590675900000009092800888800000010180088824001193043900010300251021120230000000431804323000000000195859448233XXXXXX0416       VS11    0001111   NYV1 A E583042707861403N840000000004318L8PR00    05DNPLANET VAPOR #500        033947    VD84000000004318 N  599976781988                            000000000+                F DF 10433                     000000000  Y000000000 338   0000000000000.00 0000000.00   0000000.00                             000000000000000                                                                                                                                                     01418 A000000000000 0000000000000.24     00050 02200                  
02735670255560057DT67590675900000009092800888800000010180088824001193043900010300269021120230000000323904323000000000195859423223XXXXXX6629       VS11    0001111   NYV1 A E383042711043307N840000000003239QWL900    05DNPLANET VAPOR #500        075853    VD84000000003239 N  599976781988                            000000000+                F DF 00381                     000000000  N000000000       0000000000000.00 0000000.00   0000000.00                             000000000000000                                                                                                                                                     01418 A000000000000 0000000000000.41     00800 01500                  
02735680255560058DT67590675900000009092800888800000010180088824001193043900010300277021120230000001133604323000000000195859498503XXXXXX2322       VS11    0001111   NYV1 A E583042715675419N8400000000113362V8L00    05DNPLANET VAPOR #500        011418    VD84000000011336 N  599976781988                            000000000+                F DF 00381                     000000000  N000000000       0000000000000.00 0000000.00   0000000.00                             000000000000000                                                                                                                                                     01418 A000000000000 0000000000001.06     00800 01500                  
02735690255560059DT67590675900000009092800888800000010180088824001193043900010300285021120230000000431904323000000000195859473703XXXXXX8049       VS11    0001111   NYV1 A E303042717292999N840000000004319B96D00    07DNPLANET VAPOR #500        071405    VD84000000004319 N  599976781988                            000000000+                F DF 10433                     000000000  Y000000000 338   0000000000000.00 0000000.00   0000000.00                             000000000000000                                                                                                                                                     01418 A000000000000 0000000000000.24     00050 02200                  
02735700255560060DT67590675900000009092800888800000010180088824001193043900010300293021120230000000105104323000000000195859498503XXXXXX7276       VK04VS111111111   NYV1 A E383042719510361N840000000001051PM8M00    07DNPLANET VAPOR #500        029510    VD84000000001051 N  599976781988                            000000000+                F DF 00451                     000000000  N000000000 214   0000000000000.00 0000000.00   0000000.00                             000000000000000                                                                                                                                                     01418 F000000000000 0000000000000.20     01550 00400                  
02735710255560061DT67590675900000009092800888800000010180088824001193043900010300301021120230000000317704323000000000195859458643XXXXXX1404       VS11    0001111   NYV1 A E463042722525784N840000000003177MVJD00    05DNPLANET VAPOR #500        H43653    VD84000000003177 N  599976781988                            000000000+                F DF 10433                     000000000  Y000000000 338   0000000000000.00 0000000.00   0000000.00                             000000000000000                                                                                                                                                     01418 A000000000000 0000000000000.24     00050 02200                  
02735720255560062DT67590675900000009092800888800000010180088824001193043900010300319021120230000000377904323000000000195859440393XXXXXX4789       VS11    0001111   NYV1 A E383042728550211N840000000003779JZQZ00    05DNPLANET VAPOR #500        747756    VD84000000003779 N  599976781988                            000000000+                F PF 08170                     000000000  N000000000       0000000000000.00 0000000.00   0000000.00                             000000000000000                                                                                                                                                     01418 A000000000000 0000000000000.58     01150 01500                  
02735730255560063DT67590675900000009092800888800000010180088824001193043900010300327021120230000000475004323000000000195859415975XXXXXX4281       VS11    0001111   NYV1 A E583042729509315N840000000004750VQGZ00    07DNPLANET VAPOR #500        009504    VD84000000004750 N  599976781988                            000000000+                F DF 10433                     000000000  Y000000000 338   0000000000000.00 0000000.00   0000000.00                             000000000000000                                                                                                                                                     01418 A000000000000 0000000000000.24     00050 02200                  
02735740255560064DT67590675900000009092800888800000010180088824001193043900010300335021120230000000496604323000000000195859434258XXXXXX7212       VS11    0001111   NYV1 A E303042730369844N8400000000049664XS300    07DNPLANET VAPOR #500        052452    VD84000000004966 N  599976781988                            000000000+                F DF 10433                     000000000  Y000000000 338   0000000000000.00 0000000.00   0000000.00                             000000000000000                                                                                                                                                     01418 A000000000000 0000000000000.24     00050 02200                  
02735750255560065DT67590675900000009092800888800000010180088876509753043900010300341021120230000000259004323000000000195859601120XXXXXX8429   BA50                  NY41 0 N863035994084933N840000000002590    00    05DNPLANET VAPOR #500        01192B    DZ84000000002590 N  599976781988050                         000000000+0000004910H00   DMCDI01012498130  155008000000 000000000  0          124   0000000000000.00 0000000.00   0000000.00                             000000000000000                                                                                                                                                     01418  000000000000 0000000000000.78     02450 01500                  
02735760255560066DT67590675900000009092800888800000010180088824001193043900010300350021120230000001533204323000000000195859461675XXXXXX4331       VS11    0001111   NYV1 A E383042754093963N840000000015332JS8S00    05DNPLANET VAPOR #500        154660    VD84000000015332 N  599976781988                            000000000+                F DF 00381                     000000000  N000000000       0000000000000.00 0000000.00   0000000.00                             000000000000000                                                                                                                                                     01418 A000000000000 0000000000001.38     00800 01500                  
02735770255560067DT67590675900000009092800888800000010180088824001193043900010300368021120230000000518204323000000000195859474474XXXXXX8505       VS11    0001111   NYV1 A E303042767765373N840000000005182H6CJ00    05DNPLANET VAPOR #500        111095    VD84000000005182 N  599976781988                            000000000+                F DF 10433                     000000000  Y000000000 338   0000000000000.00 0000000.00   0000000.00                             000000000000000                                                                                                                                                     01418 A000000000000 0000000000000.25     00050 02200                  
02735780255560068DT67590675900000009092800888800000010180088877287283042900010300379021120230000000248304323000000000195859517805XXXXXX5719       MS02WI09          NY 1 0 AMPLY34SI10211  N840000000002483          07DNPLANET VAPOR #500        01107B    MC84000000002483 N  599976781988                            000000000+M10101M0034C    MPL  00353                     000000000  N                0000000000000.00 0000000.00   0000000.00                             000000000000000                                                                                                                                                   B101418  000000000000 0000000000000.55     01800 01000                  
02735790255560069DT67590675900000009092800888800000010180088824001193043900010300384021120230000000377904323000000000195859442958XXXXXX9391       VS11    0001111   NYV1 A E303042805791282N840000000003779ZXRN00    05DNPLANET VAPOR #500        865646    VD84000000003779 N  599976781988                            000000000+                F DF 00381                     000000000  N000000000       0000000000000.00 0000000.00   0000000.00                             000000000000000                                                                                                                                                     01418 A000000000000 0000000000000.45     00800 01500                  
02735800255560070DT67590675900000009092800888800000010180088824001193043900010300392021120230000000237504323000000000195859435640XXXXXX9593       VS11    0001111   NYV1 A E583042807213644N8400000000023753JCH00    07DNPLANET VAPOR #500        112158    VD84000000002375 N  599976781988                            000000000+                F DF 10433                     000000000  Y000000000 338   0000000000000.00 0000000.00   0000000.00                             000000000000000                                                                                                                                                     01418 A000000000000 0000000000000.23     00050 02200                  
02735810255560071DT67590675900000009092800888800000010180088824001193043900010300400021120230000000464204323000000000195859481852XXXXXX5780       VS11    0001111   NYV1 A E303042839154277N840000000004642CZVW00    07DNPLANET VAPOR #500        151835    VD84000000004642 N  599976781988                            000000000+                F PF 08170                     000000000  N000000000       0000000000000.00 0000000.00   0000000.00                             000000000000000                                                                                                                                                     01418 A000000000000 0000000000000.68     01150 01500                  
02735820255560072DT67590675900000009092800888800000010180088824001193043900010300418021120230000000213704323000000000195859473703XXXXXX3825       VS11    0001111   NYV1 A E383042839587014N840000000002137F22C00    07DNPLANET VAPOR #500        024280    VD84000000002137 N  599976781988                            000000000+                F DF 10433                     000000000  Y000000000 338   0000000000000.00 0000000.00   0000000.00                             000000000000000                                                                                                                                                     01418 A000000000000 0000000000000.23     00050 02200                  
02735830255560073DT67590675900000009092800888800000010180088824001193043900010300426021120230000000215904323000000000195859433477XXXXXX0030       VS11    0001111   NYV1 A E383042855246938N840000000002159KWVT00    05DNPLANET VAPOR #500        857708    VD84000000002159 N  599976781988                            000000000+                F DF 10433                     000000000  Y000000000 338   0000000000000.00 0000000.00   0000000.00                             000000000000000                                                                                                                                                     01418 A000000000000 0000000000000.23     00050 02200                  
02735840255560074DT67590675900000009092800888800000010180088824001193043900010300434021120230000000647904323000000000195859469307XXXXXX3525       VS11    0001111   NYV1 A E303042856651819N8400000000064797Z9K00    05DNPLANET VAPOR #500        084746    VD84000000006479 N  599976781988                            000000000+                F DF 00381                     000000000  N000000000       0000000000000.00 0000000.00   0000000.00                             000000000000000                                                                                                                                                     01418 A000000000000 0000000000000.67     00800 01500                  
02735850255560075DT67590675900000009092800888800000010180088824001193043900010300442021120230000000323804323000000000195859434258XXXXXX5140       VS11    0001111   NYV1 A E463043007090397N84000000000323888XL00    07DNPLANET VAPOR #500        080911    VD84000000003238 N  599976781988                            000000000+                F DF 10433                     000000000  Y000000000 338   0000000000000.00 0000000.00   0000000.00                             000000000000000                                                                                                                                                     01418 A000000000000 0000000000000.24     00050 02200                  
02735860255560076DT67590675900000009092800888800000010180088824001193043900010300459021120230000000075404323000000000195859473703XXXXXX8687       VK04VS111111111   NYV1 A E583043036908004N8400000000007545MLG00    07DNPLANET VAPOR #500        085106    VD84000000000754 N  599976781988                            000000000+                F DF 10439                     000000000  Y000000000 331   0000000000000.00 0000000.00   0000000.00                             000000000000000                                                                                                                                                     01418 F000000000000 0000000000000.22     00050 02200                  
02735870255560077BH6759067590000001129680088880000090170212202304323000000000047811    0000090001040012N8008886759C02132023                                                                                                                                                                                                                                                                                                                                                                                                                                                                                                                                                                                                 
02735880255560078DT67590675900000011296800888800000010180088824001193043900010400010021120230000000647704323000000000047811433477XXXXXX2574       VS11    0001111   NYV1 A E463042546231216N8400000000064776BKL00    05DNPLANET VAPOR #1000       334625    VD84000000006477 N  599976923732                            000000000+                F DF 10433                     000000000  Y000000000 338   0000000000000.00 0000000.00   0000000.00                             000000000000000                                                                                                                                                     01418 A000000000000 0000000000000.25     00050 02200                  
02735890255560079DT67590675900000011296800888800000010180088824001193043900010400028021120230000001057904323000000000047811448232XXXXXX0978       VS11    0001111   NYV1 A E303042582111069N840000000010579Z6MV00    05DNPLANET VAPOR #1000       011006    VD84000000010579 N  599976923732                            000000000+                F DF 00381                     000000000  N000000000       0000000000000.00 0000000.00   0000000.00                             000000000000000                                                                                                                                                     01418 A000000000000 0000000000001.00     00800 01500                  
02735900255560080DT67590675900000011296800888800000010180088824001193043900010400036021120230000000269904323000000000047811448232XXXXXX0999       VS11    0001111   NYV1 A E383042608816393N840000000002699Z8K700    05DNPLANET VAPOR #1000       015435    VD84000000002699 N  599976923732                            000000000+                F DF 00381                     000000000  N000000000       0000000000000.00 0000000.00   0000000.00                             000000000000000                                                                                                                                                     01418 A000000000000 0000000000000.37     00800 01500                  
02735910255560081DT67590675900000011296800888800000010180088824001193043900010400044021120230000000431804323000000000047811448232XXXXXX1031       VS11    0001111   NYV1 A E463042613858520N8400000000043189WGD00    05DNPLANET VAPOR #1000       020259    VD84000000004318 N  599976923732                            000000000+                F DF 00381                     000000000  N000000000       0000000000000.00 0000000.00   0000000.00                             000000000000000                                                                                                                                                     01418 A000000000000 0000000000000.50     00800 01500                  
02735920255560082DT67590675900000011296800888800000010180088824001193043900010400051021120230000000129404323000000000047811448232XXXXXX1031       VK04VS111111111   NYV1 A E583042646502043N840000000001294P8QF00    05DNPLANET VAPOR #1000       025724    VD84000000001294 N  599976923732                            000000000+                F DF 00451                     000000000  N000000000 214   0000000000000.00 0000000.00   0000000.00                             000000000000000                                                                                                                                                     01418 F000000000000 0000000000000.24     01550 00400                  
02735930255560083DT67590675900000011296800888800000010180088824001193043900010400069021120230000000323904323000000000047811448232XXXXXX4754       VS11    0001111   NYV1 A E583042689591772N8400000000032395FC800    05DNPLANET VAPOR #1000       040913    VD84000000003239 N  599976923732                            000000000+                F DF 00381                     000000000  N000000000       0000000000000.00 0000000.00   0000000.00                             000000000000000                                                                                                                                                     01418 A000000000000 0000000000000.41     00800 01500                  
02735940255560084DT67590675900000011296800888800000010180088877287283042900010400070021120230000000604504323000000000047811530706XXXXXX7347       MS02WI09          NY 1 0 AMPAE1MYJB0211  N840000000006045          05DNPLANET VAPOR #1000       110137    MD84000000006045 N  599976923732                            000000000+M10101C5434C    MPA  11964                     000000000  N                0000000000000.00 0000000.00   0000000.00                             000000000000000                                                                                                                                                   B101418  000000000000 0000000000000.85     01150 01500                  
02735950255560085DT67590675900000011296800888800000010180088824001193043900010400085021120230000000237504323000000000047811473703XXXXXX5888       VS11    0001111   NYV1 A E463042793396776N840000000002375G3W600    05DNPLANET VAPOR #1000       017540    VD84000000002375 N  599976923732                            000000000+                F DF 10433                     000000000  Y000000000 338   0000000000000.00 0000000.00   0000000.00                             000000000000000                                                                                                                                                     01418 A000000000000 0000000000000.23     00050 02200                  
02735960255560086DT67590675900000011296800888800000010180088824001193043900010400093021120230000000215904323000000000047811473703XXXXXX0152       VS11    0001111   NYV1 A E383042806642680N84000000000215972ML00    07DNPLANET VAPOR #1000       041776    VD84000000002159 N  599976923732                            000000000+                F DF 10433                     000000000  Y000000000 338   0000000000000.00 0000000.00   0000000.00                             000000000000000                                                                                                                                                     01418 A000000000000 0000000000000.23     00050 02200                  
02735970255560087DT67590675900000011296800888800000010180088877287283042900010400104021120230000000145804323000000000047811542432XXXXXX9862       MS02WI09          NY 1 0 AMDJM57YX50211  N840000000001458          05DNPLANET VAPOR #1000       341896    MD84000000001458 N  599976923732                            000000000+M10101C5434C    MDJ  10815                     000000000  1                0000000000000.00 0000000.00   0000000.00                             000000000000000                                                                                                                                                   B101418  000000000000 0000000000000.23     00050 02200                  
02735980255560088DT67590675900000011296800888800000010180088824001193043900010400119021120230000000269904323000000000047811473703XXXXXX1600       VS11    0001111   NYV1 A E383043022244448N840000000002699FMFF00    05DNPLANET VAPOR #1000       052701    VD84000000002699 N  599976923732                            000000000+                F DF 10433                     000000000  Y000000000 338   0000000000000.00 0000000.00   0000000.00                             000000000000000                                                                                                                                                     01418 A000000000000 0000000000000.23     00050 02200                  
02735990255560089DT67590675900000011296800888800000010180088824001193043900010400127021120230000000446904323000000000047811448261XXXXXX4825       VS11    0001111   NYV1 A E583043032843546N8400000000044696WPZ00    07DNPLANET VAPOR #1000       498137    VD84000000004469 N  599976923732                            000000000+                F DF 10433                     000000000  Y000000000 338   0000000000000.00 0000000.00   0000000.00                             000000000000000                                                                                                                                                     01418 A000000000000 0000000000000.24     00050 02200                  
02736000255560090BH6759067590000000708880088880000090170212202304323000000000148077    0000090001030041N8008886759C02132023                                                                                                                                                                                                                                                                                                                                                                                                                                                                                                                                                                                                 
02736010255560091DT67590675900000007088800888800000010180088824001193043900010300012021120230000000323804323000000000148077440393XXXXXX9079       VS11    0001111   NYV1 A E383042523625007N840000000003238W4RL00    05DNPLANET VAPOR #200        432847    VD84000000003238 N  599976770268                            000000000+                F PF 08170                     000000000  N000000000       0000000000000.00 0000000.00   0000000.00                             000000000000000                                                                                                                                                     01418 A000000000000 0000000000000.52     01150 01500                  
02736020255560092DT67590675900000007088800888800000010180088877287283042900010300023021120230000001079704323000000000148077517805XXXXXX3122       MS02WI09          NY 1 0 AMWEH28OS20211  N840000000010797          05DNPLANET VAPOR #200        07650P    MC84000000010797 N  599976770268                            000000000+M10101C5434C    MWE  00739                     000000000  N                0000000000000.00 0000000.00   0000000.00                             000000000000000                                                                                                                                                   B101418  000000000000 0000000000002.58     02300 01000                  
02736030255560093DT67590675900000007088800888800000010180088824001193043900010300038021120230000000356204323000000000148077461675XXXXXX1868       VS11    0001111   NYV1 A E383042557427994N840000000003562ZQWF00    05DNPLANET VAPOR #200        902000    VD84000000003562 N  599976770268                            000000000+                F DF 00381                     000000000  N000000000       0000000000000.00 0000000.00   0000000.00                             000000000000000                                                                                                                                                     01418 A000000000000 0000000000000.43     00800 01500                  
02736040255560094DT67590675900000007088800888800000010180088824001193043900010300046021120230000000277904323000000000148077430602XXXXXX4690       VS11    0001111   NYV1 A E303042589437805N840000000002779QGHT00    05DNPLANET VAPOR #200        997662    VD84000000002779 N  599976770268                            000000000+                F DF 00381                     000000000  N000000000       0000000000000.00 0000000.00   0000000.00                             000000000000000                                                                                                                                                     01418 A000000000000 0000000000000.37     00800 01500                  
02736050255560095DT67590675900000007088800888800000010180088824001193043900010300053021120230000000090004323000000000148077402018XXXXXX2136       VK04VS111111111   NYV1 A E383042590370671N840000000000900JZJT00    90DNPLANET VAPOR #200        082357    VD84000000000900 N  599976770268                            000000000+                F PF 08165                     000000000  N000000000       0000000000000.00 0000000.00   0000000.00                             000000000000000                                                                                                                                                     01418 F000000000000 0000000000000.19     01600 00500                  
02736060255560096DT67590675900000007088800888800000010180088877287283042900010300064021120230000000061104323000000000148077517805XXXXXX5969       MS02WI09          NY 1 0 AMPLOH7PS20211  N840000000000611          05DNPLANET VAPOR #200        02464B    MC84000000000611 N  599976770268                            000000000+M10101C5434C    MPL  00353                     000000000  N                0000000000000.00 0000000.00   0000000.00                             000000000000000                                                                                                                                                   B101418  000000000000 0000000000000.21     01800 01000                  
02736070255560097DT67590675900000007088800888800000010180088824001193043900010300079021120230000000092304323000000000148077400022XXXXXX4232       VK04VS111111111   NYV1 A E303042606818823N8400000000009237TD200    05DNPLANET VAPOR #200        875387    VD84000000000923 N  599976770268                            000000000+                F DF 10439                     000000000  Y000000000 331   0000000000000.00 0000000.00   0000000.00                             000000000000000                                                                                                                                                     01418 F000000000000 0000000000000.22     00050 02200                  
02736080255560098DT67590675900000007088800888800000010180088824001193043900010300087021120230000000242804323000000000148077457431XXXXXX9668       VS11    0001111   NYV1 A E463042614808427N840000000002428S82300    05DNPLANET VAPOR #200        H12933    VD84000000002428 N  599976770268                            000000000+                F DF 10433                     000000000  Y000000000 338   0000000000000.00 0000000.00   0000000.00                             000000000000000                                                                                                                                                     01418 A000000000000 0000000000000.23     00050 02200                  
02736090255560099DT67590675900000007088800888800000010180088873011003043900010300091021120230000000184604323000000000148077374355XXXXX1830                          NY 1 0 N007020307314063N840000000001846          05DNPLANET VAPOR INC #200    111011    AM84000000001846 N  599976770268                            000000000+51010155434C 258     11261                     000000000                   0000000000000.00 0000000.00   0000000.00                             000000000000000 61248972086759675900000007088 PLANET VAPOR INC #200    7457 PATTERSON RD STE 1098035462263      29209     KEVIN@MOOREDISTRO.COM                     01418  000000000000 0000000000000.40     01600 00000                  
02736100255560100DT67590675900000007088800888800000010180088824001193043900010300103021120230000000280704323000000000148077466189XXXXXX2541       VS11    0001111   NYV1 A E583042622804143N840000000002807XBNH00    05DNPLANET VAPOR #200        076886    VD84000000002807 N  599976770268                            000000000+                F DF 10433                     000000000  Y000000000 338   0000000000000.00 0000000.00   0000000.00                             000000000000000                                                                                                                                                     01418 A000000000000 0000000000000.23     00050 02200                  
02736110255560101DT67590675900000007088800888800000010180088824001193043900010300111021120230000000213704323000000000148077453506XXXXXX8547       VS11    0001111   NYV1 A E583042637318543N840000000002137CZCJ00    05DNPLANET VAPOR #200        H16410    VD84000000002137 N  599976770268                            000000000+                F DF 10433                     000000000  Y000000000 338   0000000000000.00 0000000.00   0000000.00                             000000000000000                                                                                                                                                     01418 A000000000000 0000000000000.23     00050 02200                  
02736120255560102DT67590675900000007088800888800000010180088824001193043900010300129021120230000000561404323000000000148077473703XXXXXX0674       VS11    0001111   NYV1 A E463042645339146N840000000005614JTFB00    05DNPLANET VAPOR #200        058497    VD84000000005614 N  599976770268                            000000000+                F DF 10433                     000000000  Y000000000 338   0000000000000.00 0000000.00   0000000.00                             000000000000000                                                                                                                                                     01418 A000000000000 0000000000000.25     00050 02200                  
02736130255560103DT67590675900000007088800888800000010180088824001193043900010300137021120230000000067704323000000000148077465992XXXXXX0931       VK04VS111111111   NYV1 A E583042646245632N840000000000677D93200    07DNPLANET VAPOR #200        643667    VD84000000000677 N  599976770268                            000000000+                F DF 00451                     000000000  N000000000 214   0000000000000.00 0000000.00   0000000.00                             000000000000000                                                                                                                                                     01418 F000000000000 0000000000000.14     01550 00400                  
02736140255560104DT67590675900000007088800888800000010180088824001193043900010300145021120230000000323804323000000000148077498503XXXXXX2552       VS11    0001111   NYV1 A E303042647325512N840000000003238573200    05DNPLANET VAPOR #200        007386    VD84000000003238 N  599976770268                            000000000+                F DF 00381                     000000000  N000000000       0000000000000.00 0000000.00   0000000.00                             000000000000000                                                                                                                                                     01418 A000000000000 0000000000000.41     00800 01500                  
02736150255560105DT67590675900000007088800888800000010180088824001193043900010300152021120230000000252604323000000000148077400022XXXXXX4335       VS11    0001111   NYV1 A E303042657290713N840000000002526RF3S00    05DNPLANET VAPOR #200        534746    VD84000000002526 N  599976770268                            000000000+                F DF 10433                     000000000  Y000000000 338   0000000000000.00 0000000.00   0000000.00                             000000000000000                                                                                                                                                     01418 A000000000000 0000000000000.23     00050 02200                  
02736160255560106DT67590675900000007088800888800000010180088877287283042900010300163021120230000000215904323000000000148077514230XXXXXX4286       MS02WI09          NY 1 0 AMDJWZGKV90211  N840000000002159          05DNPLANET VAPOR #200        1D0A31    MD84000000002159 N  599976770268                            000000000+M10101C5434C    MDJ  00402                     000000000  N                0000000000000.00 0000000.00   0000000.00                             000000000000000                                                                                                                                                   B101418  000000000000 0000000000000.38     01050 01500                  
02736170255560107DT67590675900000007088800888800000010180088824001193043900010300178021120230000000626004323000000000148077407221XXXXXX4552       VS11    0001111   NYV1 A E383042705236431N8400000000062606PGX00    05DNPLANET VAPOR #200        011834    VS84000000006260 N  599976770268                            000000000+                D CD 12113                     000000000  N000000000 499   0000000000000.00 0000000.00   0000000.00                             000000000000000                                                                                                                                                     01418 A000000000000 0000000000001.41     02100 01000                  
02736180255560108DT67590675900000007088800888800000010180088824001193043900010300186021120230000000593804323000000000148077473151XXXXXX6625       VS11    0001111   NYV1 A E383042708575529N840000000005938MT3Z00    05DNPLANET VAPOR #200        138798    VD84000000005938 N  599976770268                            000000000+                F DF 00381                     000000000  N000000000       0000000000000.00 0000000.00   0000000.00                             000000000000000                                                                                                                                                     01418 A000000000000 0000000000000.63     00800 01500                  
02736190255560109DT67590675900000007088800888800000010180088877287283042900010300197021120230000000788204323000000000148077532553XXXXXX0260       MS02WI09          NY 1 0 AMDJWHG1I10211  N840000000007882          05DNPLANET VAPOR #200        094397    MD84000000007882 N  599976770268                            000000000+M10101C5434C    MDJ  00402                     000000000  N                0000000000000.00 0000000.00   0000000.00                             000000000000000                                                                                                                                                   B101418  000000000000 0000000000000.98     01050 01500                  
02736200255560110DT67590675900000007088800888800000010180088824001193043900010300202021120230000000205104323000000000148077427199XXXXXX1228       VS11    0001111   NYV1 A E383042728194869N840000000002051HJD500    05DNPLANET VAPOR #200        793574    VD84000000002051 N  599976770268                            000000000+                F DF 00381                     000000000  N000000000       0000000000000.00 0000000.00   0000000.00                             000000000000000                                                                                                                                                     01418 A000000000000 0000000000000.31     00800 01500                  
02736210255560111DT67590675900000007088800888800000010180088824001193043900010300210021120230000001747104323000000000148077453506XXXXXX9644               1001111   NYV1 A K303042730697473N840000000017471SZLB00    01DNPLANET VAPOR #200        H59287    VD84000000017471 N  599976770268                            000000000+                F DF 10436                     000000000  Y000000000 338   0000000000000.00 0000000.00   0000000.00                             000000000000000                                                                                                                                                     01418 E000000000000 0000000000000.31     00050 02200                  
02736220255560112DT67590675900000007088800888800000010180088877287283042900010300221021120230000000237504323000000000148077514230XXXXXX7687       MS02WI09          NY 1 0 AMDJQ7B1I10211  N840000000002375          05DNPLANET VAPOR #200        F6E3D6    MD84000000002375 N  599976770268                            000000000+M10101C5434C    MDJ  00402                     000000000  N                0000000000000.00 0000000.00   0000000.00                             000000000000000                                                                                                                                                   B101418  000000000000 0000000000000.40     01050 01500                  
