02417990185470002BH6759067590000000288180088880000090170308202306723000000000083749    0000090001640019N8008886759C03092023                                                                                                                                                                                                                                                                                                                                                                                                                                                                                                                                                                                                 
02418000185470003DT67590675900000002881800888800000010180088877287283067900016400017030820230000000439006723000000000083749517805XXXXXX2490       MS02WI09          NY 1 0 AMCWEHCN2G0308  N840000000004390          05DNHAPPY HIPPIE             07764P    MC84000000004390 N  549976487158                            000000000+M10101C5434C    MCW  00646                     000000000  N                0000000000000.00 0000000.00   0000000.00                             000000000000000                                                                                                                                                   B101418  000000000000 0000000000000.87     01900 00400                  
02418010185470004DT67590675900000002881800888800000010180088877287283067900016400025030820230000000492506723000000000083749552486XXXXXX5239       MS02WI09          NY 1 0 AMWEK51Y2F0308  N840000000004925          05DNHAPPY HIPPIE             07248Z    MC84000000004925 N  549976487158                            000000000+M10101C5434C    MWE  00743                     000000000  N                0000000000000.00 0000000.00   0000000.00                             000000000000000                                                                                                                                                   B101418  000000000000 0000000000001.17     02300 00400                  
02418020185470005DT67590675900000002881800888800000010180088824001193067900016400031030820230000000295006723000000000083749480639XXXXXX8952       VS11    0001111   NYV1 A E583067587264130N84000000000295053DJ00    05DNHAPPY HIPPIE             692157    VD84000000002950 N  549976487158                            000000000+                F DF 00381                     000000000  N000000000       0000000000000.00 0000000.00   0000000.00                             000000000000000                                                                                                                                                     01418 A000000000000 0000000000000.39     00800 01500                  
02418030185470006DT67590675900000002881800888800000010180088877287283067900016400041030820230000000513506723000000000083749511953XXXXXX9431       MS02WI09          NY 1 0 AMDJF8GA2G0308  N840000000005135          05DNHAPPY HIPPIE             081958    MD84000000005135 N  549976487158                            000000000+M10101C5434C    MDJ  00402                     000000000  N                0000000000000.00 0000000.00   0000000.00                             000000000000000                                                                                                                                                   B101418  000000000000 0000000000000.69     01050 01500                  
02418040185470007DT67590675900000002881800888800000010180088877287283067900016400058030820230000001145006723000000000083749536062XXXXXX2022       MS02WI09          NY 1 0 AMDJS021YU0308  N840000000011450          05DNHAPPY HIPPIE             681783    MD84000000011450 N  549976487158                            000000000+M10101C5434C    MDJ  10815                     000000000  1                0000000000000.00 0000000.00   0000000.00                             000000000000000                                                                                                                                                   B101418  000000000000 0000000000000.28     00050 02200                  
02418050185470008DT67590675900000002881800888800000010180088824001193067900016400064030820230000000393806723000000000083749422921XXXXXX7391       VS11    0001111   NYV1 A E303067696903347N840000000003938CBLT00    05DNHAPPY HIPPIE             051691    VD84000000003938 N  549976487158                            000000000+                F DF 00381                     000000000  N000000000       0000000000000.00 0000000.00   0000000.00                             000000000000000                                                                                                                                                     01418 A000000000000 0000000000000.47     00800 01500                  
02418060185470009DT67590675900000002881800888800000010180088824001193067900016400072030820230000000493806723000000000083749415978XXXXXX0635       PS01    0000000   NYV1 J N583067699631108N8400000000049387T3J00    01DNHAPPY HIPPIE             098434    VD84000000004938 N  549976487158                            000000000+                F DF 10425                     000000000  Y000000010 338   0000000000000.00 0000000.00   0000000.00                             000000000000000                                                                                                                                                     01418  000000000000 0000000000000.24     00050 02200                  
02418070185470010DT67590675900000002881800888800000010180088824001193067900016400080030820230000000219406723000000000083749415978XXXXXX4113       VS11    0001111   NYV1 A E303067703731085N840000000002194QN4G00    05DNHAPPY HIPPIE             083329    VD84000000002194 N  549976487158                            000000000+                F DF 10433                     000000000  Y000000000 338   0000000000000.00 0000000.00   0000000.00                             000000000000000                                                                                                                                                     01418 A000000000000 0000000000000.23     00050 02200                  
02418080185470011DT67590675900000002881800888800000010180088824001193067900016400098030820230000000054806723000000000083749491569XXXXXX6049       VK04VS111111111   NYV1 A E583067738960675N840000000000548F5KL00    90DNHAPPY HIPPIE             T9FYC8    VD84000000000548 N  549976487158                            000000000+                F PF 08165                     000000000  N000000000       0000000000000.00 0000000.00   0000000.00                             000000000000000                                                                                                                                                     01418 F000000000000 0000000000000.14     01600 00500                  
02418090185470012DT67590675900000002881800888800000010180088824001193067900016400106030820230000000131606723000000000083749404227XXXXXX2558       VK04VS111111111   NYV1 A E463067749746137N840000000001316FQTN00    05DNHAPPY HIPPIE             861911    VD84000000001316 N  549976487158                            000000000+                F DF 00451                     000000000  N000000000 214   0000000000000.00 0000000.00   0000000.00                             000000000000000                                                                                                                                                     01418 F000000000000 0000000000000.24     01550 00400                  
02418100185470013DT67590675900000002881800888800000010180088824001193067900016400114030820230000000021806723000000000083749443238XXXXXX3734       VK04VS111111111   NYV1 A E463067750200658N840000000000218QHJD00    07DNHAPPY HIPPIE             055020    VD84000000000218 N  549976487158                            000000000+                F DF 00451                     000000000  N000000000 214   0000000000000.00 0000000.00   0000000.00                             000000000000000                                                                                                                                                     01418 F000000000000 0000000000000.07     01550 00400                  
02418110185470014DT67590675900000002881800888800000010180088876509753067900016400120030820230000001725206723000000000083749601100XXXXXX8123   BA50                  NY41 0 N743057596867269N840000000017252    00    05DNHAPPY HIPPIE             00877R    DS84000000017252 N  549976487158050                         000000000+0000004910H00   DCCDI01000001502  135446000000 000000000  0          112   0000000000000.00 0000000.00   0000000.00                             000000000000000                                                                                                                                                     01418  000000000000 0000000000003.07     01720 01000                  
02418120185470015DT67590675900000002881800888800000010180088876509753067900016400138030820230000000246806723000000000083749601100XXXXXX8123   BA50                  NY41 0 N743057598398574N840000000002468    00    05DNHAPPY HIPPIE             00855R    DS84000000002468 N  549976487158050                         000000000+0000004910H00   DCCDI01000004488  135719000000 000000000  0          112   0000000000000.00 0000000.00   0000000.00                             000000000000000                                                                                                                                                     01418  000000000000 0000000000000.52     01720 01000                  
02418130185470016DT67590675900000002881800888800000010180088824001193067900016400148030820230000000641806723000000000083749463405XXXXXX7864       VS11    0001111   NYV1 A E463067756210699N840000000006418DZNT00    05DNHAPPY HIPPIE             029297    VD84000000006418 N  549976487158                            000000000+                F DF 10433                     000000000  Y000000000 338   0000000000000.00 0000000.00   0000000.00                             000000000000000                                                                                                                                                     01418 A000000000000 0000000000000.25     00050 02200                  
02418140185470017DT67590675900000002881800888800000010180088824001193067900016400155030820230000000591306723000000000083749413037XXXXXX6303       VS11    0001111   NYV1 A E463067760368094N840000000005913XLNV00    05DNHAPPY HIPPIE             005136    VD84000000005913 N  549976487158                            000000000+                F DF 10433                     000000000  Y000000000 338   0000000000000.00 0000000.00   0000000.00                             000000000000000                                                                                                                                                     01418 A000000000000 0000000000000.25     00050 02200                  
02418150185470018DT67590675900000002881800888800000010180088824001193067900016400163030820230000000375206723000000000083749478864XXXXXX2878       VS11    0001111   NYV1 A E583067767747145N84000000000375263VK00    07DNHAPPY HIPPIE             071248    VD84000000003752 N  549976487158                            000000000+                F PF 08170                     000000000  N000000000       0000000000000.00 0000000.00   0000000.00                             000000000000000                                                                                                                                                     01418 A000000000000 0000000000000.58     01150 01500                  
02418160185470019DT67590675900000002881800888800000010180088824001193067900016400171030820230000000021806723000000000083749478864XXXXXX2878       VK04VS111111111   NYV1 A E383067773145093N84000000000021844PL00    07DNHAPPY HIPPIE             011289    VD84000000000218 N  549976487158                            000000000+                F PF 08165                     000000000  N000000000       0000000000000.00 0000000.00   0000000.00                             000000000000000                                                                                                                                                     01418 F000000000000 0000000000000.08     01600 00500                  
02418170185470020DT67590675900000002881800888800000010180088824001193067900016400189030820230000000325806723000000000083749419090XXXXXX3871       VS11    0001111   NYV1 A E463067776130032N840000000003258LBLM00    05DNHAPPY HIPPIE             219996    VD84000000003258 N  549976487158                            000000000+                F DF 00381                     000000000  N000000000       0000000000000.00 0000000.00   0000000.00                             000000000000000                                                                                                                                                     01418 A000000000000 0000000000000.41     00800 01500                  
02418180185470021DT67590675900000002881800888800000010180088824001193067900016400197030820230000000246806723000000000083749480639XXXXXX5004       VS11    0001111   NYV1 A E303067813378609N840000000002468365800    05DNHAPPY HIPPIE             703283    VD84000000002468 N  549976487158                            000000000+                F DF 00381                     000000000  N000000000       0000000000000.00 0000000.00   0000000.00                             000000000000000                                                                                                                                                     01418 A000000000000 0000000000000.35     00800 01500                  
02418190185470022BH6759067590000000288180088880000090170308202306723000000000091587    0000090001630022N8008886759C03092023                                                                                                                                                                                                                                                                                                                                                                                                                                                                                                                                                                                                 
02418200185470023DT67590675900000002881800888800000010180088824001193067900016300017030820230000000325806723000000000091587414740XXXXXX5204       VS11    0001111   NYV1 A E583067563638547N840000000003258GGQN00    07DNHAPPY HIPPIE             07707D    VS84000000003258 N  549976487134                            000000000+                D CD 12113                     000000000  N000000000 499   0000000000000.00 0000000.00   0000000.00                             000000000000000                                                                                                                                                     01418 A000000000000 0000000000000.78     02100 01000                  
02418210185470024DT67590675900000002881800888800000010180088824001193067900016300025030820230000001115906723000000000091587410801XXXXXX9806       VS11    0001111   NYV1 A E303067569692534N8400000000111598R2P00    05DNHAPPY HIPPIE             004929    VD84000000011159 N  549976487134                            000000000+                F DF 00381                     000000000  N000000000       0000000000000.00 0000000.00   0000000.00                             000000000000000                                                                                                                                                     01418 A000000000000 0000000000001.04     00800 01500                  
02418220185470025DT67590675900000002881800888800000010180088824001193067900016300033030820230000000395006723000000000091587419090XXXXXX3412       VS11    0001111   NYV1 A E383067575428416N840000000003950N96300    05DNHAPPY HIPPIE             208330    VD84000000003950 N  549976487134                            000000000+                F DF 00381                     000000000  N000000000       0000000000000.00 0000000.00   0000000.00                             000000000000000                                                                                                                                                     01418 A000000000000 0000000000000.47     00800 01500                  
02418230185470026DT67590675900000002881800888800000010180088824001193067900016300041030820230000000691306723000000000091587473916XXXXXX5797       VS11    0001111   NYV1 A E463067619944203N840000000006913QN6R00    05DNHAPPY HIPPIE             021314    VD84000000006913 N  549976487134                            000000000+                G DG 08704                     000000000  N000000000       0000000000000.00 0000000.00   0000000.00                             000000000000000                                                                                                                                                     01418 A000000000000 0000000000001.28     01700 01000                  
02418240185470027DT67590675900000002881800888800000010180088877287283067900016300050030820230000000130906723000000000091587518941XXXXXX4253       MS02WI09          NY 1 0 AMWEYQUSYU0308  N840000000001309          05DNHAPPY HIPPIE             54135Z    MC84000000001309 N  549976487134                            000000000+M10101C5434C    MWE  00743                     000000000  N                0000000000000.00 0000000.00   0000000.00                             000000000000000                                                                                                                                                   B101418  000000000000 0000000000000.34     02300 00400                  
02418250185470028DT67590675900000002881800888800000010180088824001193067900016300066030820230000000137206723000000000091587419090XXXXXX1409       VK04VS111111111   NYV1 A E383067642487050N840000000001372Q54600    05DNHAPPY HIPPIE             212392    VD84000000001372 N  549976487134                            000000000+                F DF 00451                     000000000  N000000000 214   0000000000000.00 0000000.00   0000000.00                             000000000000000                                                                                                                                                     01418 F000000000000 0000000000000.25     01550 00400                  
02418260185470029DT67590675900000002881800888800000010180088824001193067900016300074030820230000000325806723000000000091587419090XXXXXX6813       VS11    0001111   NYV1 A E463067659740325N8400000000032582X2700    05DNHAPPY HIPPIE             213428    VD84000000003258 N  549976487134                            000000000+                F DF 00381                     000000000  N000000000       0000000000000.00 0000000.00   0000000.00                             000000000000000                                                                                                                                                     01418 A000000000000 0000000000000.41     00800 01500                  
02418270185470030DT67590675900000002881800888800000010180088824001193067900016300082030820230000001580206723000000000091587443264XXXXXX9955       VS11    0001111   NYV1 A E383067661918235N840000000015802JFDL00    05DNHAPPY HIPPIE             011448    VD84000000015802 N  549976487134                            000000000+                F DF 10433                     000000000  Y000000000 338   0000000000000.00 0000000.00   0000000.00                             000000000000000                                                                                                                                                     01418 A000000000000 0000000000000.30     00050 02200                  
02418280185470031DT67590675900000002881800888800000010180088824001193067900016300090030820230000000354306723000000000091587419090XXXXXX5672       VS11    0001111   NYV1 A E583067681780120N8400000000035439F3P00    05DNHAPPY HIPPIE             214734    VD84000000003543 N  549976487134                            000000000+                F DF 00381                     000000000  N000000000       0000000000000.00 0000000.00   0000000.00                             000000000000000                                                                                                                                                     01418 A000000000000 0000000000000.43     00800 01500                  
02418290185470032DT67590675900000002881800888800000010180088877287283067900016300100030820230000000454306723000000000091587514021XXXXXX7956       MS02WI09          NY 1 0 AMPLMMK69A0308  N840000000004543          05DNHAPPY HIPPIE             02234Z    MC84000000004543 N  549976487134                            000000000+M10101C5434C    MPL  00043                     000000000  N                0000000000000.00 0000000.00   0000000.00                             000000000000000                                                                                                                                                   B101418  000000000000 0000000000000.79     01650 00400                  
02418300185470033DT67590675900000002881800888800000010180088824001193067900016300116030820230000000416506723000000000091587432739XXXXXX1888       VS11    0001111   NYV1 A E463067705305191N8400000000041656XDL00    05DNHAPPY HIPPIE             842633    VD84000000004165 N  549976487134                            000000000+                F DF 10433                     000000000  Y000000000 338   0000000000000.00 0000000.00   0000000.00                             000000000000000                                                                                                                                                     01418 A000000000000 0000000000000.24     00050 02200                  
02418310185470034DT67590675900000002881800888800000010180088824001193067900016300124030820230000000158006723000000000091587415978XXXXXX6979       VS11    0001111   NYV1 A E383067711505534N840000000001580MMQC00    07DNHAPPY HIPPIE             003743    VD84000000001580 N  549976487134                            000000000+                F DF 10433                     000000000  Y000000000 338   0000000000000.00 0000000.00   0000000.00                             000000000000000                                                                                                                                                     01418 A000000000000 0000000000000.23     00050 02200                  
02418320185470035DT67590675900000002881800888800000010180088877287283067900016300134030820230000000555606723000000000091587532559XXXXXX4108       MS02WI09          NY 1 0 AMDJWB299A0308  N840000000005556          07DNHAPPY HIPPIE             040014    MD84000000005556 N  549976487134                            000000000+M10101M5434C    MDJ  00402                     000000000  N                0000000000000.00 0000000.00   0000000.00                             000000000000000                                                                                                                                                   B101418  000000000000 0000000000000.73     01050 01500                  
02418330185470036DT67590675900000002881800888800000010180088824001193067900016300140030820230000000395006723000000000091587419090XXXXXX5354       VS11    0001111   NYV1 A E463067722645603N840000000003950CBQQ00    05DNHAPPY HIPPIE             216896    VD84000000003950 N  549976487134                            000000000+                F DF 00381                     000000000  N000000000       0000000000000.00 0000000.00   0000000.00                             000000000000000                                                                                                                                                     01418 A000000000000 0000000000000.47     00800 01500                  
02418340185470037DT67590675900000002881800888800000010180088824001193067900016300157030820230000000098806723000000000091587419090XXXXXX6981       VK04VS111111111   NYV1 A E583067727971098N840000000000988HJ2Q00    05DNHAPPY HIPPIE             217210    VD84000000000988 N  549976487134                            000000000+                F DF 00451                     000000000  N000000000 214   0000000000000.00 0000000.00   0000000.00                             000000000000000                                                                                                                                                     01418 F000000000000 0000000000000.19     01550 00400                  
02418350185470038DT67590675900000002881800888800000010180088824001193067900016300165030820230000000077606723000000000091587419090XXXXXX6981       VK04VS111111111   NYV1 A E463067730750722N84000000000077622BK00    05DNHAPPY HIPPIE             217376    VD84000000000776 N  549976487134                            000000000+                F DF 00451                     000000000  N000000000 214   0000000000000.00 0000000.00   0000000.00                             000000000000000                                                                                                                                                     01418 F000000000000 0000000000000.16     01550 00400                  
02418360185470039DT67590675900000002881800888800000010180088824001193067900016300173030820230000000358806723000000000091587435547XXXXXX9872       VS11    0001111   NYV1 A E383067733878076N840000000003588DPHM00    05DNHAPPY HIPPIE             035079    VD84000000003588 N  549976487134                            000000000+                F DF 10433                     000000000  Y000000000 338   0000000000000.00 0000000.00   0000000.00                             000000000000000                                                                                                                                                     01418 A000000000000 0000000000000.24     00050 02200                  
02418370185470040DT67590675900000002881800888800000010180088824001193067900016300181030820230000000325806723000000000091587419090XXXXXX8840       VS11    0001111   NYV1 A E583067737167970N840000000003258VBRQ00    05DNHAPPY HIPPIE             217740    VD84000000003258 N  549976487134                            000000000+                F DF 00381                     000000000  N000000000       0000000000000.00 0000000.00   0000000.00                             000000000000000                                                                                                                                                     01418 A000000000000 0000000000000.41     00800 01500                  
02418380185470041DT67590675900000002881800888800000010180088824001193067900016300199030820230000000329306723000000000091587435546XXXXXX4585       VS11    0001111   NYV1 A E303067738927788N840000000003293N4ZX00    05DNHAPPY HIPPIE             100127    VD84000000003293 N  549976487134                            000000000+                F DF 10433                     000000000  Y000000000 338   0000000000000.00 0000000.00   0000000.00                             000000000000000                                                                                                                                                     01418 A000000000000 0000000000000.24     00050 02200                  
02418390185470042DT67590675900000002881800888800000010180088824001193067900016300207030820230000000256606723000000000091587422921XXXXXX9132       VS11    0001111   NYV1 A E383067773734492N840000000002566WLVG00    05DNHAPPY HIPPIE             059374    VD84000000002566 N  549976487134                            000000000+                F DF 00381                     000000000  N000000000       0000000000000.00 0000000.00   0000000.00                             000000000000000                                                                                                                                                     01418 A000000000000 0000000000000.36     00800 01500                  
02418400185470043DT67590675900000002881800888800000010180088824001193067900016300215030820230000000438906723000000000091587423223XXXXXX8145       VS11    0001111   NYV1 A E583067774507212N840000000004389QPMX00    05DNHAPPY HIPPIE             087994    VD84000000004389 N  549976487134                            000000000+                F DF 00381                     000000000  N000000000       0000000000000.00 0000000.00   0000000.00                             000000000000000                                                                                                                                                     01418 A000000000000 0000000000000.50     00800 01500                  
02418410185470044DT67590675900000002881800888800000010180088877287283067900016300225030820230000000237106723000000000091587551129XXXXXX7399       MS02WI09          NY 2 0 AMDJWSQ0490308  N840000000002371          05DNHAPPY HIPPIE             554907    MD84000000002371 N  549976487134                            000000000+M10101C1334C    MDJ  00402                     000000000  N                0000000000000.00 0000000.00   0000000.00                             000000000000000                                                                                                                                                   B101418  000000000000 0000000000000.40     01050 01500                  
02418420185470045BH6759067590000000215480088880000090170308202306723000000001725975    0000090001284778N8008886759C03092023                                                                                                                                                                                                                                                                                                                                                                                                                                                                                                                                                                                                 
02418430185470046DT67590675900000002154800888800000010180088824001193067900012836535030820230000042660006723000000001725975424631XXXXXX9436               2111111   NYV4 A7W463067653351054N840000000426600FK2W00    01DNDRIP DROP DISTRO LLC     05666G    VB84000000426600 NP1519971004114   INV-000977               000000000+                G5CG511887                     000000000  N000000000 163   0000000000000.00 0000000.00   0000000.00                             000000000000000                                                                                                                                                     01418 G000000426600 0000000000128.08     03000 01000                  
02418440185470001P16759067590000000215480088880000001010000000000000000    43984190009              2000000000000000000000000              000000000000                    0000000000000000000000000                    000000000000                                                                                                                                                                                                                                                                                                                                                                                                                                                                                        
02418450185470047DT67590675900000002154800888800000010180088824001193067900012847789030820230000129937506723000000001725975481588XXXXXX8606               2111111   NYV4 A7W463067042517907N840000001299375GMLW00    01DNDRIP DROP DISTRO LLC     151104    VD84000001299375 NP1519971004114   INV-001073               000000000+                G DG 10352                     000000000  Y000000000 338   0000000000000.00 0000000.00   0000000.00                             000000000000000                                                                                                                                                     01418 G000001299375 0000000000006.72     00050 02200                  
02418460185470001P16759067590000000215480088880000001010000000000000000    43982801013              2000000000000000000000000              000000000000                    0000000000000000000000000                    000000000000                                                                                                                                                                                                                                                                                                                                                                                                                                                                                        
02418470185470048BH6759067590000000570280088880000090170308202306723000000000710409    0000090001131757N8008886759C03092023                                                                                                                                                                                                                                                                                                                                                                                                                                                                                                                                                                                                 
02418480185470049DT67590675900000005702800888800000010180088887287283067900011304437030820230000000459906723000000000710409525363XXXXXX6353       ME03KE06MS02      NY 4607AMWE1H83GQ0308  N840000000004599          81DNPSILOMART                40771Z    MC84000000004599 N  549900000001   ryrbvAk7qikDLQIOG78x     000000000+600450S00140    MWE  00737                     000000000  N                0000000000000.00 0000000.00   0000000.00                             000000000000000                                                                                                                                                   U001418  000000000000 0000000000001.30     02600 01000                  
02418490185470050DT67590675900000005702800888800000010180088824001193067900011365726030820230000000799806723000000000710409478966XXXXXX6929               2111111   NYV4 A7W383067082550521N840000000007998WWZ400    01DNPSILOMART                076656    VD84000000007998 NP1549971004114   RXCH6C0TYG7PHA8I2FWH     000000000+                F DF 00415                     000000000  N000000000       0000000000000.00 0000000.00   0000000.00                             000000000000000                                                                                                                                                     01418 G000000007998 0000000000001.47     01650 01500                  
02418500185470001P16759067590000000570280088880000001010000000000000000                             2000000000000000000000000              000000000000                    0000000000000000000000000                    000000000000                                                                                                                                                                                                                                                                                                                                                                                                                                                                                        
02418510185470051DT67590675900000005702800888800000010180088824001193067900011317917030820230000000200006723000000000710409436618XXXXXX3796               2111111   NYV4 A7W303067692082458N840000000002000T89N00    01DNPSILOMART                015378    VD84000000002000 NP1549971004114   R2NVOGQSQL42SUUNGPUD     000000000+                F DF 10420                     000000000  Y000000000 338   0000000000000.00 0000000.00   0000000.00                             000000000000000                                                                                                                                                     01418 G000000002000 0000000000000.23     00050 02200                  
02418520185470001P16759067590000000570280088880000001010000000000000000                             2000000000000000000000000              000000000000                    0000000000000000000000000                    000000000000                                                                                                                                                                                                                                                                                                                                                                                                                                                                                        
02418530185470052DT67590675900000005702800888800000010180088824001193067900011349522030820230000000569706723000000000710409440066XXXXXX0125               2111111   NYV4 A7W583067775450442N840000000005697FV7H00    01DNPSILOMART                03380D    VS84000000005697 NP1549971004114   RW83VG02GWIN9WGM7WOO     000000000+                D CD 12109                     000000000  N000000000 498   0000000000000.00 0000000.00   0000000.00                             000000000000000                                                                                                                                                     01418 G000000005697 0000000000001.52     02500 01000                  
02418540185470001P16759067590000000570280088880000001010000000000000000                             2000000000000000000000000              000000000000                    0000000000000000000000000                    000000000000                                                                                                                                                                                                                                                                                                                                                                                                                                                                                        
02418550185470053DT67590675900000005702800888800000010180088824001193067900011380030030820230000001120606723000000000710409426684XXXXXX5016               2111111   NYV4 A7W583067114707592N8400000000112064SNZ00    01DNPSILOMART                03321B    VS84000000011206 NP1549971004114   RCATYZ6K5PTQO8OZKEYO     000000000+                B CB 12107                     000000000  N000000000 494   0000000000000.00 0000000.00   0000000.00                             000000000000000                                                                                                                                                     01418 G000000011206 0000000000002.39     02040 01000                  
02418560185470001P16759067590000000570280088880000001010000000000000000                             2000000000000000000000000              000000000000                    0000000000000000000000000                    000000000000                                                                                                                                                                                                                                                                                                                                                                                                                                                                                        
02418570185470054DT67590675900000005702800888800000010180088824001193067900011343053030820230000000519806723000000000710409400022XXXXXX4324               2111111   NYV4 A7W383067516982296N840000000005198JT2300    01DNPSILOMART                100921    VD84000000005198 NP1549971004114   RZOEBTAVNPNKKP4J8DYI     000000000+                F DF 10420                     000000000  Y000000000 338   0000000000000.00 0000000.00   0000000.00                             000000000000000                                                                                                                                                     01418 G000000005198 0000000000000.25     00050 02200                  
02418580185470001P16759067590000000570280088880000001010000000000000000                             2000000000000000000000000              000000000000                    0000000000000000000000000                    000000000000                                                                                                                                                                                                                                                                                                                                                                                                                                                                                        
02418590185470055DT67590675900000005702800888800000010180088887287283067900011358458030820230000000799906723000000000710409547415XXXXXX8409                         NY 4607AMEBV12FYU0308  N840000000007999          81DNPSILOMART                03617Q    MB84000000007999 NP1549900000001   rm4JJtMXqe1ZG0Yc429i     000000000+600450S00140    MEB  11637                     000000000  N                0000000000000.00 0000000.00   0000000.00                             000000000000000                                                                                                                                                   U001418  000000000000 0000000000002.50     03000 01000                  
02418600185470001P1675906759000000057028008888000000101                                                          000000000000          8000            881060599                                                                                                                                                                                                                                                                                                                                                                                                                                                                                                                                                            
02418610185470056DT67590675900000005702800888800000010180088824001193067900011380451030820230000000519606723000000000710409440066XXXXXX4659               2111111   NYV4 A7W303067609571158N840000000005196DM8S00    01DNPSILOMART                09465C    VS84000000005196 NP1549971004114   R2PPPN3VLZKEQMWKKNCX     000000000+                C CC 12108                     000000000  N000000000 496   0000000000000.00 0000000.00   0000000.00                             000000000000000                                                                                                                                                     01418 G000000005196 0000000000001.17     02050 01000                  
02418620185470001P16759067590000000570280088880000001010000000000000000                             2000000000000000000000000              000000000000                    0000000000000000000000000                    000000000000                                                                                                                                                                                                                                                                                                                                                                                                                                                                                        
02418630185470057DT67590675900000005702800888800000010180088824001193067900011384362030820230000001999306723000000000710409426684XXXXXX3255               2111111   NYV4 A7W303067624414208N840000000019993CPDK00    01DNPSILOMART                01236B    VS84000000019993 NP1549971004114   RE7GMIKBH0VQ3H9BLDSU     000000000+                B CB 12107                     000000000  N000000000 494   0000000000000.00 0000000.00   0000000.00                             000000000000000                                                                                                                                                     01418 G000000019993 0000000000004.18     02040 01000                  
02418640185470001P16759067590000000570280088880000001010000000000000000                             2000000000000000000000000              000000000000                    0000000000000000000000000                    000000000000                                                                                                                                                                                                                                                                                                                                                                                                                                                                                        
02418650185470058DT67590675900000005702800888800000010180088887287283067900011351156030820230000000289906723000000000710409531260XXXXXX7807       ME03KE06MS02      NY 4607AMDJYMKE3P0308  N840000000002899          81DNPSILOMART                154213    MD84000000002899 N  549900000001   rYx5UQSBPrtLFF4n0ELX     000000000+600450S00140    MDJ  10813                     000000000  1                0000000000000.00 0000000.00   0000000.00                             000000000000000                                                                                                                                                   U001418  000000000000 0000000000000.23     00050 02200                  
02418660185470059DT67590675900000005702800888800000010180088824001193067900011359810030820230000000479906723000000000710409430586XXXXXX3267               2111111   NYV4 A7W463067079765518N840000000004799L5B400    01DNPSILOMART                812260    VD84000000004799 NP1549971004114   RSLY975HFZXQKVTASN4O     000000000+                F DF 00415                     000000000  N000000000       0000000000000.00 0000000.00   0000000.00                             000000000000000                                                                                                                                                     01418 G000000004799 0000000000000.94     01650 01500                  
02418670185470001P16759067590000000570280088880000001010000000000000000                             2000000000000000000000000              000000000000                    0000000000000000000000000                    000000000000                                                                                                                                                                                                                                                                                                                                                                                                                                                                                        
02418680185470060DT67590675900000005702800888800000010180088824001193067900011377465030820230000001999506723000000000710409438857XXXXXX2968               2111111   NYV4 A7W383067117174374N8400000000199958D2500    01DNPSILOMART                05531D    VS84000000019995 NP1549971004114   RHJLRVOI30DEHKKAWFLM     000000000+                D CD 12109                     000000000  N000000000 498   0000000000000.00 0000000.00   0000000.00                             000000000000000                                                                                                                                                     01418 G000000019995 0000000000005.10     02500 01000                  
02418690185470001P16759067590000000570280088880000001010000000000000000                             2000000000000000000000000              000000000000                    0000000000000000000000000                    000000000000                                                                                                                                                                                                                                                                                                                                                                                                                                                                                        
02418700185470061DT67590675900000005702800888800000010180088824001193067900011307603030820230000001000006723000000000710409410039XXXXXX9659               2111111   NYV4 A7W463067205230023N8400000000100006KWG00    01DNPSILOMART                02364D    VS84000000010000 NP1549971004114   RPGGK5AURJHQQOVRA1OT     000000000+                D CD 12109                     000000000  N000000000 498   0000000000000.00 0000000.00   0000000.00                             000000000000000                                                                                                                                                     01418 G000000010000 0000000000002.60     02500 01000                  
02418710185470001P16759067590000000570280088880000001010000000000000000                             2000000000000000000000000              000000000000                    0000000000000000000000000                    000000000000                                                                                                                                                                                                                                                                                                                                                                                                                                                                                        
02418720185470062DT67590675900000005702800888800000010180088824001193067900011375782030820230000000529806723000000000710409440066XXXXXX8725               2111111   NYV4 A7W383067020034881N840000000005298JL9400    01DNPSILOMART                06004D    VS84000000005298 NP1549971004114   RWXTATO2AE7KETVXCIA9     000000000+                D CD 12109                     000000000  N000000000 498   0000000000000.00 0000000.00   0000000.00                             000000000000000                                                                                                                                                     01418 G000000005298 0000000000001.42     02500 01000                  
02418730185470001P16759067590000000570280088880000001010000000000000000                             2000000000000000000000000              000000000000                    0000000000000000000000000                    000000000000                                                                                                                                                                                                                                                                                                                                                                                                                                                                                        
02418740185470063DT67590675900000005702800888800000010180088824001193067900011377408030820230000000399906723000000000710409458643XXXXXX1381               2111111   NYV4 A7W303067024162279N840000000003999PQ5300    01DNPSILOMART                H88080    VD84000000003999 NP1549971004114   RBII7QSPRIBTQVUIABGV     000000000+                F DF 10420                     000000000  Y000000000 338   0000000000000.00 0000000.00   0000000.00                             000000000000000                                                                                                                                                     01418 G000000003999 0000000000000.24     00050 02200                  
02418750185470001P16759067590000000570280088880000001010000000000000000                             2000000000000000000000000              000000000000                    0000000000000000000000000                    000000000000                                                                                                                                                                                                                                                                                                                                                                                                                                                                                        
02418760185470064DT67590675900000005702800888800000010180088824001193067900011383810030820230000000500006723000000000710409466189XXXXXX1113               2111111   NYV4 A7W463067049818834N8400000000050008WKK00    01DNPSILOMART                052007    VD84000000005000 NP1549971004114   REXILEUZINFI1HV3EOOP     000000000+                F DF 10420                     000000000  Y000000000 338   0000000000000.00 0000000.00   0000000.00                             000000000000000                                                                                                                                                     01418 G000000005000 0000000000000.25     00050 02200                  
02418770185470001P16759067590000000570280088880000001010000000000000000                             2000000000000000000000000              000000000000                    0000000000000000000000000                    000000000000                                                                                                                                                                                                                                                                                                                                                                                                                                                                                        
02418780185470065DT67590675900000005702800888800000010180088887287283067900011339342030820230000000479906723000000000710409542418XXXXXX1898       ME03KE06MS02      NY 4607AMWESU78RT0308  N840000000004799          81DNPSILOMART                56366P    MC84000000004799 N  549900000001   rF97wiYdh179dYymIXnP     000000000+600450S00140    MWE  00737                     000000000  N                0000000000000.00 0000000.00   0000000.00                             000000000000000                                                                                                                                                   U001418  000000000000 0000000000001.35     02600 01000                  
02418790185470066DT67590675900000005702800888800000010180088824001193067900011364695030820230000000239906723000000000710409400022XXXXXX7553               2111111   NYV4 A7W383067570942037N8400000000023996DP900    01DNPSILOMART                654372    VD84000000002399 NP1549971004114   R6GQRPQSZNJK3WAEOPIZ     000000000+                F DF 10420                     000000000  Y000000000 338   0000000000000.00 0000000.00   0000000.00                             000000000000000                                                                                                                                                     01418 G000000002399 0000000000000.23     00050 02200                  
02418800185470001P16759067590000000570280088880000001010000000000000000                             2000000000000000000000000              000000000000                    0000000000000000000000000                    000000000000                                                                                                                                                                                                                                                                                                                                                                                                                                                                                        
02418810185470067DT67590675900000005702800888800000010180088824001193067900011387639030820230000000479906723000000000710409464018XXXXXX6898               2111111   NYV4 A7W383067634678829N8400000000047992Q7W00    01DNPSILOMART                02426D    VS84000000004799 NP1549971004114   RPIDNQACYJIOZAY3ZFDQ     000000000+                D CD 12109                     000000000  N000000000 498   0000000000000.00 0000000.00   0000000.00                             000000000000000                                                                                                                                                     01418 G000000004799 0000000000001.30     02500 01000                  
02418820185470001P16759067590000000570280088880000001010000000000000000                             2000000000000000000000000              000000000000                    0000000000000000000000000                    000000000000                                                                                                                                                                                                                                                                                                                                                                                                                                                                                        
02418830185470068DT67590675900000005702800888800000010180088824001193067900011390245030820230000000600006723000000000710409414720XXXXXX9999               2111111   NYV4 A7W383067637110449N840000000006000CC8300    01DNPSILOMART                04551I    VS84000000006000 NP1549971004114   RGNNK66JBKCFKWYCCWGE     000000000+                I CI 12109                     000000000  N000000000 498   0000000000000.00 0000000.00   0000000.00                             000000000000000                                                                                                                                                     01418 G000000006000 0000000000001.60     02500 01000                  
02418840185470001P16759067590000000570280088880000001010000000000000000                             2000000000000000000000000              000000000000                    0000000000000000000000000                    000000000000                                                                                                                                                                                                                                                                                                                                                                                                                                                                                        
02418850185470069DT67590675900000005702800888800000010180088887287283067900011325838030820230000000569906723000000000710409512230XXXXXX1638       ME03KE06MS02      NY 4607AMWENV6Y9A0308  N840000000005699          81DNPSILOMART                89281W    MC84000000005699 N  549900000001   rx023sm1QK1k4TUiMz3g     000000000+600450S00140    MWE  00642                     000000000  N                0000000000000.00 0000000.00   0000000.00                             000000000000000                                                                                                                                                   U001418  000000000000 0000000000001.35     02200 01000                  
02418860185470070DT67590675900000005702800888800000010180088887287283067900011333030030820230000001599806723000000000710409542418XXXXXX3301       ME03KE06MS02      NY 4607AMPLWWE19A0308  N840000000015998          81DNPSILOMART                10394B    MC84000000015998 N  549900000001   rqsRJ49f3lQp8MRu6oXo     000000000+600450S00140    MPL  00580                     000000000  N                0000000000000.00 0000000.00   0000000.00                             000000000000000                                                                                                                                                   U001418  000000000000 0000000000003.46     02100 01000                  
02418870185470071DT67590675900000005702800888800000010180088824001193067900011311654030820230000000664806723000000000710409451440XXXXXX4808               2111111   NYV4 A7W583067207223896N8400000000066485D4C00    01DNPSILOMART                214522    VD84000000006648 NP1549971004114   RTGZC7LXQCCZYAQHPVHP     000000000+                F PF 08175                     000000000  N000000000       0000000000000.00 0000000.00   0000000.00                             000000000000000                                                                                                                                                     01418 G000000006648 0000000000001.36     01750 02000                  
02418880185470001P16759067590000000570280088880000001010000000000000000                             2000000000000000000000000              000000000000                    0000000000000000000000000                    000000000000                                                                                                                                                                                                                                                                                                                                                                                                                                                                                        
02418890185470072DT67590675900000005702800888800000010180088824001193067900011385500030820230000000609906723000000000710409441104XXXXXX7049               2111111   NYV4 A7W463067054431085N840000000006099GJ9M00    01DNPSILOMART                033020    VD84000000006099 NP1549971004114   RGLOASG8SKJKRE1B2GGM     000000000+                F DF 10420                     000000000  Y000000000 338   0000000000000.00 0000000.00   0000000.00                             000000000000000                                                                                                                                                     01418 G000000006099 0000000000000.25     00050 02200                  
02418900185470001P16759067590000000570280088880000001010000000000000000                             2000000000000000000000000              000000000000                    0000000000000000000000000                    000000000000                                                                                                                                                                                                                                                                                                                                                                                                                                                                                        
02418910185470073DT67590675900000005702800888800000010180088824001193067900011375048030820230000000160006723000000000710409440393XXXXXX2439               2111111   NYV4 A7W303067597261419N84000000000160074GR00    01DNPSILOMART                774496    VD84000000001600 NP1549971004114   RQEGLJ285GM81LMWUETW     000000000+                F PF 08175                     000000000  N000000000       0000000000000.00 0000000.00   0000000.00                             000000000000000                                                                                                                                                     01418 G000000001600 0000000000000.48     01750 02000                  
02418920185470001P16759067590000000570280088880000001010000000000000000                             2000000000000000000000000              000000000000                    0000000000000000000000000                    000000000000                                                                                                                                                                                                                                                                                                                                                                                                                                                                                        
02418930185470074DT67590675900000005702800888800000010180088887287283067900011378209030820230000000509706723000000000710409537993XXXXXX7061       ME03KE06MS02      NY 4607AMPLR2RTYU0308  N840000000005097          81DNPSILOMART                00861Z    MC84000000005097 N  549900000001   reP59lKdrlXf91N4dwHo     000000000+600450S00140    MPL  00013                     000000000  N                0000000000000.00 0000000.00   0000000.00                             000000000000000                                                                                                                                                   U001418  000000000000 0000000000001.09     01950 01000                  
02418940185470075DT67590675900000005702800888800000010180088887287283067900011383787030820230000000509706723000000000710409510805XXXXXX6767       ME03KE06MS02      NY 4607AMDJSLNZYU0308  N840000000005097          81DNPSILOMART                011559    MD84000000005097 N  549900000001   ratHmhoxDSzhKeBmpnT0     000000000+600450S00140    MDJ  10813                     000000000  1                0000000000000.00 0000000.00   0000000.00                             000000000000000                                                                                                                                                   U001418  000000000000 0000000000000.25     00050 02200                  
02418950185470076DT67590675900000005702800888800000010180088824001193067900011389411030820230000000230006723000000000710409436618XXXXXX3796               2111111   NYV4 A7W303067637433044N840000000002300GF7C00    01DNPSILOMART                021085    VD84000000002300 NP1549971004114   R0OM2E7OWJWO18DFK5LH     000000000+                F DF 10420                     000000000  Y000000000 338   0000000000000.00 0000000.00   0000000.00                             000000000000000                                                                                                                                                     01418 G000000002300 0000000000000.23     00050 02200                  
02418960185470001P16759067590000000570280088880000001010000000000000000                             2000000000000000000000000              000000000000                    0000000000000000000000000                    000000000000                                                                                                                                                                                                                                                                                                                                                                                                                                                                                        
02418970185470077DT67590675900000005702800888800000010180088873011003067900011396206030820230000051400006723000000000710409376745XXXXX1010                          NY 4 07N004607389657303N840000000514000          01DNTRADE READY LLC          240708    AM84000000514000 N  549971004114                            000000000+6004S0S00140 258     11263                     000000000                   0000000000000.00 0000000.00   0000000.00                             000000000000000 61248972086759675900000005702 TRADE READY LLC          4744 PARADISE RD         7023386941      89169     PSILOMART@GMAIL.COM                       01418  000000000000 0000000000123.46     02400 00000                  
02418980185470078DT67590675900000005702800888800000010180088824001193067900011317578030820230000000799806723000000000710409406095XXXXXX8840               2111111   NYV4 A7W583067689104664N840000000007998TQQS00    01DNPSILOMART                04919B    VS84000000007998 NP1549971004114   RDO6RO6CFAE769S3MXI1     000000000+                B CB 12107                     000000000  N000000000 494   0000000000000.00 0000000.00   0000000.00                             000000000000000                                                                                                                                                     01418 G000000007998 0000000000001.73     02040 01000                  
02418990185470001P16759067590000000570280088880000001010000000000000000                             2000000000000000000000000              000000000000                    0000000000000000000000000                    000000000000                                                                                                                                                                                                                                                                                                                                                                                                                                                                                        
02419000185470079BH6759067590000000589280010180000090170308202306723000000000036548    0000090001112008N8001016759C03092023                                                                                                                                                                                                                                                                                                                                                                                                                                                                                                                                                                                                 
02419010185470080DT67590675900000005892800101800000010180010124001193067900011188367030820230000003435006723000000000036548408540XXXXXX7511       PS01EF100000000   NYV4 07N303067749347436N840000000034350R5LW00    01DNPLANET VAPOR INC         044854    VD84000000034350 NP1599971004114   43984560593              000000000+                G DG 10354                     000000000  Y000000010 338   0000000000000.00 0000000.00   0000000.00                             000000000000000                                                                                                                                                     01418  000000000000 0000000000000.39     00050 02200                  
02419020185470001P16759067590000000589280010180000001010000000000000000    43984560593              2000000000000000000000000              000000000000                    0000000000000000000000000                    000000000000                                                                                                                                                                                                                                                                                                                                                                                                                                                                                        
02419030185470081DT67590675900000005892800101800000010180010124001193067900011120089030820230000000219806723000000000036548410039XXXXXX6964               2111111   NYV4 A7W383067697589405N840000000002198H5KJ00    01DNPLANET VAPOR INC         14232D    VS84000000002198 NP1599971004114   14471071                 000000000+                D CD 12109                     000000000  N000000000 498   0000000000000.00 0000000.00   0000000.00                             000000000000000                                                                                                                                                     01418 G000000002198 0000000000000.65     02500 01000                  
02419040185470001P16759067590000000589280010180000001010000000000000000                             2000000000000000000000000              000000000000                    0000000000000000000000000                    000000000000                                                                                                                                                                                                                                                                                                                                                                                                                                                                                        
02419050185470082BH6759067590000000096880088880000090170308202306723000000000011235    0000090001540708N8008886759C03092023                                                                                                                                                                                                                                                                                                                                                                                                                                                                                                                                                                                                 
02419060185470083DT67590675900000000968800888800000010180088824001193067900015407086030820230000001123506723000000000011235426684XXXXXX7362               2111111   NYV4 A7W383067667413293N840000000011235DS3H00    01DNHIGHER FLOUR LLC         06651C    VS84000000011235 NP1546271004114   RJUXKFTFUBKUFMAFBZKP     000000000+                C CC 12108                     000000000  N000000000 496   0000000000000.00 0000000.00   0000000.00                             000000000000000                                                                                                                                                     01418 G000000011235 0000000000002.40     02050 01000                  
02419070185470001P16759067590000000096880088880000001010000000000000000                             2000000000000000000000000              000000000000                    0000000000000000000000000                    000000000000                                                                                                                                                                                                                                                                                                                                                                                                                                                                                        
02419080185470084BH6759067590000000561180088880000090170308202306723000000000006978    0000090001259987N8008886759C03092023                                                                                                                                                                                                                                                                                                                                                                                                                                                                                                                                                                                                 
02419090185470085DT67590675900000005611800888800000010180088873011003067900012576269030820230000000348906723000000000006978371585XXXXX3000                          NY 4 07N004605852505306N840000000003489          01DNK DIVINE                 238122    AM84000000003489 N  549971004114                            000000000+6004S0S00140 258     11261                     000000000                   0000000000000.00 0000000.00   0000000.00                             000000000000000 61248972086759675900000005611 K DIVINE                 43798 MCKENZIE HWY       5036897182      97489     KRATOMDIVINE@GMAIL.COM                    01418  000000000000 0000000000000.66     01600 00000                  
02419100185470086DT67590675900000005611800888800000010180088876509753067900012599875030820230000000348906723000000000006978601120XXXXXX8223   BA00                  NY 4 07N863057500427581N840000000003489    00    01DNK DIVINE 503-689-7182    00875B    DZ84000000003489 N  549971004114010                         000000000+1015104910600   DMCDI01012502618  101402000000 000000000  0          124   0000000000000.00 0000000.00   0000000.00                             000000000000000                                                                                                                                                     01418  000000000000 0000000000001.00     02450 01500                  
02419110185470087BH6759067590000001090080010180000090170308202306723000000000093625    0000090001270023N8001016759C03092023                                                                                                                                                                                                                                                                                                                                                                                                                                                                                                                                                                                                 
02419120185470088DT67590675900000010900800101800000010180010124001193067900012700012030820230000000215906723000000000093625438419XXXXXX5379       VS11    0001111   NYV1 A E463067539459775N840000000002159S3TZ00    05DNPLANET VAPOR #700        095905    VD84000000002159 N  599976923375                            000000000+                F DF 00381                     000000000  N000000000       0000000000000.00 0000000.00   0000000.00                             000000000000000                                                                                                                                                     01418 A000000000000 0000000000000.32     00800 01500                  
02419130185470089DT67590675900000010900800101800000010180010124001193067900012700020030820230000000539606723000000000093625438419XXXXXX2149       VS11    0001111   NYV1 A E583067548443609N840000000005396SRCM00    05DNPLANET VAPOR #700        001405    VD84000000005396 N  599976923375                            000000000+                F DF 00381                     000000000  N000000000       0000000000000.00 0000000.00   0000000.00                             000000000000000                                                                                                                                                     01418 A000000000000 0000000000000.58     00800 01500                  
02419140185470090DT67590675900000010900800101800000010180010124001193067900012700038030820230000000237506723000000000093625473703XXXXXX2452       VS11    0001111   NYV1 A E583067585201030N8400000000023752W9K00    05DNPLANET VAPOR #700        076920    VD84000000002375 N  599976923375                            000000000+                F DF 10433                     000000000  Y000000000 338   0000000000000.00 0000000.00   0000000.00                             000000000000000                                                                                                                                                     01418 A000000000000 0000000000000.23     00050 02200                  
02419150185470091DT67590675900000010900800101800000010180010124001193067900012700046030820230000000437206723000000000093625438419XXXXXX4535       VS11    0001111   NYV1 A E303067591950285N8400000000043724RVF00    07DNPLANET VAPOR #700        012635    VD84000000004372 N  599976923375                            000000000+                F DF 00381                     000000000  N000000000       0000000000000.00 0000000.00   0000000.00                             000000000000000                                                                                                                                                     01418 A000000000000 0000000000000.50     00800 01500                  
02419160185470092DT67590675900000010900800101800000010180010124001193067900012700053030820230000000323806723000000000093625481583XXXXXX1699       VS11    0001111   NYV1 A E303067596049199N8400000000032388HF400    07DNPLANET VAPOR #700        153038    VD84000000003238 N  599976923375                            000000000+                F DF 10433                     000000000  Y000000000 338   0000000000000.00 0000000.00   0000000.00                             000000000000000                                                                                                                                                     01418 A000000000000 0000000000000.24     00050 02200                  
02419170185470093DT67590675900000010900800101800000010180010124001193067900012700061030820230000000194306723000000000093625410702XXXXXX0069       VS11    0001111   NYV1 A E463067653293363N8400000000019437WFF00    05DNPLANET VAPOR #700        122097    VD84000000001943 N  599976923375                            000000000+                F DF 00381                     000000000  N000000000       0000000000000.00 0000000.00   0000000.00                             000000000000000                                                                                                                                                     01418 A000000000000 0000000000000.31     00800 01500                  
02419180185470094DT67590675900000010900800101800000010180010124001193067900012700079030820230000000256206723000000000093625448261XXXXXX2236       VS11    0001111   NYV1 A E383067678705558N8400000000025624VCZ00    05DNPLANET VAPOR #700        003539    VD84000000002562 N  599976923375                            000000000+                F DF 10433                     000000000  Y000000000 338   0000000000000.00 0000000.00   0000000.00                             000000000000000                                                                                                                                                     01418 A000000000000 0000000000000.23     00050 02200                  
02419190185470095DT67590675900000010900800101800000010180010124001193067900012700087030820230000000408006723000000000093625438419XXXXXX6941       VS11    0001111   NYV1 A E463067768952951N840000000004080ND2L00    05DNPLANET VAPOR #700        062135    VD84000000004080 N  599976923375                            000000000+                F DF 00381                     000000000  N000000000       0000000000000.00 0000000.00   0000000.00                             000000000000000                                                                                                                                                     01418 A000000000000 0000000000000.48     00800 01500                  
02419200185470096DT67590675900000010900800101800000010180010124001193067900012700095030820230000001446806723000000000093625438419XXXXXX6173       VS11    0001111   NYV1 A E463067786134984N840000000014468LTMR00    05DNPLANET VAPOR #700        065013    VD84000000014468 N  599976923375                            000000000+                F DF 00381                     000000000  N000000000       0000000000000.00 0000000.00   0000000.00                             000000000000000                                                                                                                                                     01418 A000000000000 0000000000001.31     00800 01500                  
02419210185470097DT67590675900000010900800101800000010180010124001193067900012700103030820230000000248306723000000000093625423908XXXXXX7739       VS11    0001111   NYV1 A E303067788853368N8400000000024839QRM00    05DNPLANET VAPOR #700        461299    VD84000000002483 N  599976923375                            000000000+                F DF 10433                     000000000  Y000000000 338   0000000000000.00 0000000.00   0000000.00                             000000000000000                                                                                                                                                     01418 A000000000000 0000000000000.23     00050 02200                  
02419220185470098DT67590675900000010900800101800000010180010124001193067900012700111030820230000000712506723000000000093625407227XXXXXX6888       VS11    0001111   NYV1 A E463067807170244N840000000007125TFHR00    05DNPLANET VAPOR #700        667542    VD84000000007125 N  599976923375                            000000000+                F DF 00381                     000000000  N000000000       0000000000000.00 0000000.00   0000000.00                             000000000000000                                                                                                                                                     01418 A000000000000 0000000000000.72     00800 01500                  
02419230185470099DT67590675900000010900800101800000010180010124001193067900012700129030820230000000237506723000000000093625440066XXXXXX6705       VS11    0001111   NYV1 A E303067809353506N840000000002375X7MB00    05DNPLANET VAPOR #700        04344B    VS84000000002375 N  599976923375                            000000000+                B CB 12111                     000000000  N000000000 495   0000000000000.00 0000000.00   0000000.00                             000000000000000                                                                                                                                                     01418 A000000000000 0000000000000.49     01650 01000                  
02419240185470100DT67590675900000010900800101800000010180010124001193067900012700137030820230000000215906723000000000093625440393XXXXXX4595       VS11    0001111   NYV1 A E583067816235283N8400000000021596WJJ00    05DNPLANET VAPOR #700        919611    VD84000000002159 N  599976923375                            000000000+                F PF 08170                     000000000  N000000000       0000000000000.00 0000000.00   0000000.00                             000000000000000                                                                                                                                                     01418 A000000000000 0000000000000.40     01150 01500                  
02419250185470101DT67590675900000010900800101800000010180010124001193067900012700145030820230000000375006723000000000093625419002XXXXXX8414       VS11    0001111   NYV1 A E303067825673357N840000000003750LLWX00    05DNPLANET VAPOR #700        023456    VD84000000003750 N  599976923375                            000000000+                F DF 10433                     000000000  Y000000000 338   0000000000000.00 0000000.00   0000000.00                             000000000000000                                                                                                                                                     01418 A000000000000 0000000000000.24     00050 02200                  
02419260185470102DT67590675900000010900800101800000010180010124001193067900012700152030820230000000399506723000000000093625498503XXXXXX8620       VS11    0001111   NYV1 A E383067843230198N840000000003995D6SB00    05DNPLANET VAPOR #700        032224    VD84000000003995 N  599976923375                            000000000+                F DF 00381                     000000000  N000000000       0000000000000.00 0000000.00   0000000.00                             000000000000000                                                                                                                                                     01418 A000000000000 0000000000000.47     00800 01500                  
02419270185470103DT67590675900000010900800101800000010180010124001193067900012700160030820230000000485806723000000000093625438419XXXXXX8029       VS11    0001111   NYV1 A E383067848045023N84000000000485883VF00    05DNPLANET VAPOR #700        083324    VD84000000004858 N  599976923375                            000000000+                F DF 00381                     000000000  N000000000       0000000000000.00 0000000.00   0000000.00                             000000000000000                                                                                                                                                     01418 A000000000000 0000000000000.54     00800 01500                  
02419280185470104DT67590675900000010900800101800000010180010124001193067900012700178030820230000000136006723000000000093625433477XXXXXX4713       VK04VS111111111   NYV1 A E463067852478631N840000000001360HQ9C00    05DNPLANET VAPOR #700        888026    VD84000000001360 N  599976923375                            000000000+                F DF 10439                     000000000  Y000000000 331   0000000000000.00 0000000.00   0000000.00                             000000000000000                                                                                                                                                     01418 F000000000000 0000000000000.23     00050 02200                  
02419290185470105DT67590675900000010900800101800000010180010124001193067900012700186030820230000000269906723000000000093625430602XXXXXX5542       VS11    0001111   NYV1 A E583067858136289N840000000002699V2K300    05DNPLANET VAPOR #700        129504    VD84000000002699 N  599976923375                            000000000+                F DF 00381                     000000000  N000000000       0000000000000.00 0000000.00   0000000.00                             000000000000000                                                                                                                                                     01418 A000000000000 0000000000000.37     00800 01500                  
02419300185470106DT67590675900000010900800101800000010180010124001193067900012700194030820230000000237506723000000000093625400022XXXXXX4498       VS11    0001111   NYV1 A E383067858849730N840000000002375QFLS00    05DNPLANET VAPOR #700        716134    VD84000000002375 N  599976923375                            000000000+                F DF 10433                     000000000  Y000000000 338   0000000000000.00 0000000.00   0000000.00                             000000000000000                                                                                                                                                     01418 A000000000000 0000000000000.23     00050 02200                  
02419310185470107DT67590675900000010900800101800000010180010177287283067900012700204030820230000000323906723000000000093625546616XXXXXX4071       MS02WI09          NY 1 0 AMCW7Y4C490308  N840000000003239          05DNPLANET VAPOR #700        08544Z    MC84000000003239 N  599976923375                            000000000+M10101C5434C    MCW  00644                     000000000  N                0000000000000.00 0000000.00   0000000.00                             000000000000000                                                                                                                                                   B101418  000000000000 0000000000000.72     01900 01000                  
02419320185470108DT67590675900000010900800101800000010180010177287283067900012700212030820230000000858206723000000000093625521333XXXXXX9492       MS02WI09          NY 1 0 AMWEY7VY490308  N840000000008582          05DNPLANET VAPOR #700        00843P    MC84000000008582 N  599976923375                            000000000+M10101C5434C    MWE  00739                     000000000  N                0000000000000.00 0000000.00   0000000.00                             000000000000000                                                                                                                                                   B101418  000000000000 0000000000002.07     02300 01000                  
02419330185470109DT67590675900000010900800101800000010180010124001193067900012700228030820230000000252606723000000000093625473703XXXXXX9993       VS11    0001111   NYV1 A E583068020883111N8400000000025265KZH00    05DNPLANET VAPOR #700        018598    VD84000000002526 N  599976923375                            000000000+                F DF 10433                     000000000  Y000000000 338   0000000000000.00 0000000.00   0000000.00                             000000000000000                                                                                                                                                     01418 A000000000000 0000000000000.23     00050 02200                  
02419340185470110DT67590675900000010900800101800000010180010177287283067900012700238030820230000000550606723000000000093625515549XXXXXX9883       MS02WI09          NY 1 0 AMPVPSHC590308  N840000000005506          05DNPLANET VAPOR #700        LY5JSB    MD84000000005506 N  599976923375                            000000000+M10101C5434C    MPV  11964                     000000000  N                0000000000000.00 0000000.00   0000000.00                             000000000000000                                                                                                                                                   B101418  000000000000 0000000000000.78     01150 01500                  
02419350185470111BH6759067590000000995180010180000090170308202306723000000000028823    0000090001290008N8001016759C03092023                                                                                                                                                                                                                                                                                                                                                                                                                                                                                                                                                                                                 
02419360185470112DT67590675900000009951800101800000010180010124001193067900012900018030820230000000475006723000000000028823473703XXXXXX0593       VS11    0001111   NYV1 A E463067630377659N8400000000047502QCS00    07DNPLANET VAPOR #500        023919    VD84000000004750 N  599976923295                            000000000+                F DF 10433                     000000000  Y000000000 338   0000000000000.00 0000000.00   0000000.00                             000000000000000                                                                                                                                                     01418 A000000000000 0000000000000.24     00050 02200                  
02419370185470113DT67590675900000009951800101800000010180010124001193067900012900026030820230000000280706723000000000028823433477XXXXXX4140       VS11    0001111   NYV1 A E583067719238114N840000000002807M9D400    05DNPLANET VAPOR #500        674423    VD84000000002807 N  599976923295                            000000000+                F DF 10433                     000000000  Y000000000 338   0000000000000.00 0000000.00   0000000.00                             000000000000000                                                                                                                                                     01418 A000000000000 0000000000000.23     00050 02200                  
02419380185470114DT67590675900000009951800101800000010180010124001193067900012900034030820230000000593806723000000000028823418941XXXXXX1576       VS11    0001111   NYV1 A E583067750649392N840000000005938LPGS00    07DNPLANET VAPOR #500        025104    VD84000000005938 N  599976923295                            000000000+                F DF 00381                     000000000  N000000000       0000000000000.00 0000000.00   0000000.00                             000000000000000                                                                                                                                                     01418 A000000000000 0000000000000.63     00800 01500                  
02419390185470115DT67590675900000009951800101800000010180010124001193067900012900042030820230000000237406723000000000028823463405XXXXXX2480       VS11    0001111   NYV1 A E303067808102816N84000000000237424DN00    07DNPLANET VAPOR #500        005097    VD84000000002374 N  599976923295                            000000000+                F DF 10433                     000000000  Y000000000 338   0000000000000.00 0000000.00   0000000.00                             000000000000000                                                                                                                                                     01418 A000000000000 0000000000000.23     00050 02200                  
02419400185470116DT67590675900000009951800101800000010180010177287283067900012900051030820230000000269906723000000000028823553781XXXXXX2038       MS02WI09          NY 1 0 AMDSXO1J3Y0308  N840000000002699          05DNPLANET VAPOR #500        656864    MD84000000002699 N  599976923295                            000000000+M10101C5434C    MDS  00402                     000000000  N                0000000000000.00 0000000.00   0000000.00                             000000000000000                                                                                                                                                   B101418  000000000000 0000000000000.43     01050 01500                  
