02964560372463484AD675906759000000133008001028000009071900012117910000002636203152023NYY07423ND6759800102031720232023074017067                                                                                                                                                                                                                                                                                                                                                                                                                                                                                                                                                                                              
02964570374960002BH6759067590000000288180088880000090170316202307523000000000116862    0000090001700023N8008886759C03172023                                                                                                                                                                                                                                                                                                                                                                                                                                                                                                                                                                                                 
02964580374960003DT67590675900000002881800888800000010180088824001193075900017000012031620230000000819507523000000000116862419090XXXXXX0995       VS11    0001111   NYV1 A E383075513182325N84000000000819547M700    05DNHAPPY HIPPIE             433602    VD84000000008195 N  549976487134                            000000000+                F DF 00381                     000000000  N000000000       0000000000000.00 0000000.00   0000000.00                             000000000000000                                                                                                                                                     01418 A000000000000 0000000000000.81     00800 01500                  
02964590374960004DT67590675900000002881800888800000010180088824001193075900017000020031620230000000384007523000000000116862433419XXXXXX4929       VS11    0001111   NYV1 A E583075518684661N840000000003840SWZ900    05DNHAPPY HIPPIE             087469    VS84000000003840 N  549976487134                            000000000+                A CA 12110                     000000000  N000000000 493   0000000000000.00 0000000.00   0000000.00                             000000000000000                                                                                                                                                     01418 A000000000000 0000000000000.68     01510 01000                  
02964600374960005DT67590675900000002881800888800000010180088877287283075900017000030031620230000001097407523000000000116862552433XXXXXX2922       ME03MS02WI09      NY 1 0 AMPLNJM1J20316  N840000000010974          01DNHAPPY HIPPIE             02368M    MC84000000010974 N  549976487134                            000000000+M1010115434C    MPL  00581                     000000000  N                0000000000000.00 0000000.00   0000000.00                             000000000000000                                                                                                                                                   E101418  000000000000 0000000000002.40     02100 01000                  
02964610374960006DT67590675900000002881800888800000010180088824001193075900017000046031620230000000592507523000000000116862422921XXXXXX1726       VS11    0001111   NYV1 A E303075550044070N840000000005925BC6Z00    05DNHAPPY HIPPIE             040606    VD84000000005925 N  549976487134                            000000000+                F DF 00381                     000000000  N000000000       0000000000000.00 0000000.00   0000000.00                             000000000000000                                                                                                                                                     01418 A000000000000 0000000000000.62     00800 01500                  
02964620374960007DT67590675900000002881800888800000010180088824001193075900017000053031620230000000790007523000000000116862445102XXXXXX6503       VS11    0001111   NYV1 A E463075559579448N840000000007900H2CR00    05DNHAPPY HIPPIE             683723    VD84000000007900 N  549976487134                            000000000+                F DF 10433                     000000000  Y000000000 338   0000000000000.00 0000000.00   0000000.00                             000000000000000                                                                                                                                                     01418 A000000000000 0000000000000.26     00050 02200                  
02964630374960008DT67590675900000002881800888800000010180088824001193075900017000061031620230000000157807523000000000116862445101XXXXXX2683       VS11    0001111   NYV1 A E383075580920923N840000000001578CXKJ00    05DNHAPPY HIPPIE             703147    VD84000000001578 N  549976487134                            000000000+                F DF 10433                     000000000  Y000000000 338   0000000000000.00 0000000.00   0000000.00                             000000000000000                                                                                                                                                     01418 A000000000000 0000000000000.23     00050 02200                  
02964640374960009DT67590675900000002881800888800000010180088824001193075900017000079031620230000000888907523000000000116862406032XXXXXX5726       VS11    0001111   NYV1 A E463075582981355N840000000008889PWKS00    07DNHAPPY HIPPIE             081112    VD84000000008889 N  549976487134                            000000000+                F DF 10433                     000000000  Y000000000 338   0000000000000.00 0000000.00   0000000.00                             000000000000000                                                                                                                                                     01418 A000000000000 0000000000000.26     00050 02200                  
02964650374960010DT67590675900000002881800888800000010180088824001193075900017000087031620230000000246807523000000000116862415978XXXXXX2736       VS11    0001111   NYV1 A E383075638312813N8400000000024687PXH00    07DNHAPPY HIPPIE             046645    VD84000000002468 N  549976487134                            000000000+                F DF 10433                     000000000  Y000000000 338   0000000000000.00 0000000.00   0000000.00                             000000000000000                                                                                                                                                     01418 A000000000000 0000000000000.23     00050 02200                  
02964660374960011DT67590675900000002881800888800000010180088877287283075900017000097031620230000000138107523000000000116862511953XXXXXX0916       MS02WI09          NY 1 0 AMDJCO57M00316  N840000000001381          05DNHAPPY HIPPIE             009336    MD84000000001381 N  549976487134                            000000000+M10101C5434C    MDJ  00505                     000000000  N                0000000000000.00 0000000.00   0000000.00                             000000000000000                                                                                                                                                   B101418  000000000000 0000000000000.25     01550 00400                  
02964670374960012DT67590675900000002881800888800000010180088824001193075900017000103031620230000000296207523000000000116862498503XXXXXX6779       VS11    0001111   NYV1 A E383075668734615N840000000002962PK3R00    05DNHAPPY HIPPIE             014321    VD84000000002962 N  549976487134                            000000000+                F DF 00381                     000000000  N000000000       0000000000000.00 0000000.00   0000000.00                             000000000000000                                                                                                                                                     01418 A000000000000 0000000000000.39     00800 01500                  
02964680374960013DT67590675900000002881800888800000010180088877287283075900017000113031620230000000093507523000000000116862518941XXXXXX4253       MS02WI09          NY 1 0 AMWEVPL7M50316  N840000000000935          05DNHAPPY HIPPIE             39509Z    MC84000000000935 N  549976487134                            000000000+M10101C5434C    MWE  00743                     000000000  N                0000000000000.00 0000000.00   0000000.00                             000000000000000                                                                                                                                                   B101418  000000000000 0000000000000.26     02300 00400                  
02964690374960014DT67590675900000002881800888800000010180088877287283075900017000121031620230000000987807523000000000116862533248XXXXXX4307       MS02WI09          NY 2 0 AMPVIDORY20316  N840000000009878          05DNHAPPY HIPPIE             M8U6M5    MD84000000009878 N  549976487134                            000000000+M10101C1334C    MPV  11964                     000000000  N                0000000000000.00 0000000.00   0000000.00                             000000000000000                                                                                                                                                     01418  000000000000 0000000000001.29     01150 01500                  
02964700374960015DT67590675900000002881800888800000010180088876509753075900017000135031620230000000713207523000000000116862601100XXXXXX8123   BA50                  NY41 0 N813064502614389N840000000007132    00    05DNHAPPY HIPPIE             01664R    DS84000000007132 N  549976487134050                         000000000+0000004910H00   DCCDI01000830862  124421000000 000000000  0          112   0000000000000.00 0000000.00   0000000.00                             000000000000000                                                                                                                                                     01418  000000000000 0000000000001.33     01720 01000                  
02964710374960016DT67590675900000002881800888800000010180088824001193075900017000145031620230000000197407523000000000116862414709XXXXXX2516       VS11    0001111   NYV1 A E583075715956136N840000000001974NJFT00    05DNHAPPY HIPPIE             09460D    VS84000000001974 N  549976487134                            000000000+                D CD 12113                     000000000  N000000000 499   0000000000000.00 0000000.00   0000000.00                             000000000000000                                                                                                                                                     01418 A000000000000 0000000000000.51     02100 01000                  
02964720374960017DT67590675900000002881800888800000010180088824001193075900017000152031620230000000548807523000000000116862413022XXXXXX5316       VS11    0001111   NYV1 A E383075719446093N840000000005488X9WT00    07DNHAPPY HIPPIE             882792    VD84000000005488 N  549976487134                            000000000+                F DF 00381                     000000000  N000000000       0000000000000.00 0000000.00   0000000.00                             000000000000000                                                                                                                                                     01418 A000000000000 0000000000000.59     00800 01500                  
02964730374960018DT67590675900000002881800888800000010180088824001193075900017000160031620230000000548807523000000000116862445101XXXXXX0323       VS11    0001111   NYV1 A E463075744757118N840000000005488HF5N00    05DNHAPPY HIPPIE             862982    VD84000000005488 N  549976487134                            000000000+                F DF 10433                     000000000  Y000000000 338   0000000000000.00 0000000.00   0000000.00                             000000000000000                                                                                                                                                     01418 A000000000000 0000000000000.25     00050 02200                  
02964740374960019DT67590675900000002881800888800000010180088824001193075900017000178031620230000000237107523000000000116862415978XXXXXX3096       VS11    0001111   NYV1 A E583075748152486N840000000002371TNKV00    07DNHAPPY HIPPIE             037875    VD84000000002371 N  549976487134                            000000000+                F DF 10433                     000000000  Y000000000 338   0000000000000.00 0000000.00   0000000.00                             000000000000000                                                                                                                                                     01418 A000000000000 0000000000000.23     00050 02200                  
02964750374960020DT67590675900000002881800888800000010180088824001193075900017000186031620230000000395007523000000000116862415978XXXXXX3096       VS11    0001111   NYV1 A E383075748713316N840000000003950D6B200    07DNHAPPY HIPPIE             051581    VD84000000003950 N  549976487134                            000000000+                F DF 10433                     000000000  Y000000000 338   0000000000000.00 0000000.00   0000000.00                             000000000000000                                                                                                                                                     01418 A000000000000 0000000000000.24     00050 02200                  
02964760374960021DT67590675900000002881800888800000010180088824001193075900017000194031620230000000888907523000000000116862444796XXXXXX6914       VS11    0001111   NYV1 A E383075753688398N840000000008889NMSG00    05DNHAPPY HIPPIE             016342    VS84000000008889 N  549976487134                            000000000+                A CA 12110                     000000000  N000000000 493   0000000000000.00 0000000.00   0000000.00                             000000000000000                                                                                                                                                     01418 A000000000000 0000000000001.44     01510 01000                  
02964770374960022DT67590675900000002881800888800000010180088824001193075900017000202031620230000000493807523000000000116862422921XXXXXX7159       VS11    0001111   NYV1 A E383075762561454N840000000004938JZT700    05DNHAPPY HIPPIE             061858    VD84000000004938 N  549976487134                            000000000+                F DF 00381                     000000000  N000000000       0000000000000.00 0000000.00   0000000.00                             000000000000000                                                                                                                                                     01418 A000000000000 0000000000000.55     00800 01500                  
02964780374960023DT67590675900000002881800888800000010180088824001193075900017000210031620230000000548807523000000000116862449507XXXXXX0245       VS11    0001111   NYV1 A E583075765507536N840000000005488RMB600    05DNHAPPY HIPPIE             071550    VD84000000005488 N  549976487134                            000000000+                F DF 00381                     000000000  N000000000       0000000000000.00 0000000.00   0000000.00                             000000000000000                                                                                                                                                     01418 A000000000000 0000000000000.59     00800 01500                  
02964790374960024DT67590675900000002881800888800000010180088824001193075900017000228031620230000000246807523000000000116862423651XXXXXX9467       VS11    0001111   NYV1 A E383075774000873N840000000002468KH9B00    05DNHAPPY HIPPIE             063000    VD84000000002468 N  549976487134                            000000000+                F DF 00381                     000000000  N000000000       0000000000000.00 0000000.00   0000000.00                             000000000000000                                                                                                                                                     01418 A000000000000 0000000000000.35     00800 01500                  
02964800374960025DT67590675900000002881800888800000010180088877287283075900017000238031620230000000375107523000000000116862518941XXXXXX4253       MS02WI09          NY 1 0 AMWEVWX82U0316  N840000000003751          07DNHAPPY HIPPIE             61134Z    MC84000000003751 N  549976487134                            000000000+M10101M0034C    MWE  00743                     000000000  N                0000000000000.00 0000000.00   0000000.00                             000000000000000                                                                                                                                                   B101418  000000000000 0000000000000.90     02300 00400                  
02964810374960026BH6759067590000000288180088880000090170316202307523000000000050849    0000090001720012N8008886759C03172023                                                                                                                                                                                                                                                                                                                                                                                                                                                                                                                                                                                                 
02964820374960027DT67590675900000002881800888800000010180088877287283075900017200010031620230000000158007523000000000050849511953XXXXXX4908       MS02WI09          NY 1 0 AMDJCICRV70316  N840000000001580          05DNHAPPY HIPPIE             045802    MD84000000001580 N  549976487158                            000000000+M10101C5434C    MDJ  00402                     000000000  N                0000000000000.00 0000000.00   0000000.00                             000000000000000                                                                                                                                                   B101418  000000000000 0000000000000.32     01050 01500                  
02964830374960028DT67590675900000002881800888800000010180088824001193075900017200026031620230000000587107523000000000050849400022XXXXXX0750       VS11    0001111   NYV1 A E583075545788817N840000000005871Z4KD00    05DNHAPPY HIPPIE             377628    VD84000000005871 N  549976487158                            000000000+                F DF 10433                     000000000  Y000000000 338   0000000000000.00 0000000.00   0000000.00                             000000000000000                                                                                                                                                     01418 A000000000000 0000000000000.25     00050 02200                  
02964840374960029DT67590675900000002881800888800000010180088824001193075900017200034031620230000000246807523000000000050849400022XXXXXX0750       VS11    0001111   NYV1 A E463075547818724N8400000000024687DDW00    05DNHAPPY HIPPIE             306415    VD84000000002468 N  549976487158                            000000000+                F DF 10433                     000000000  Y000000000 338   0000000000000.00 0000000.00   0000000.00                             000000000000000                                                                                                                                                     01418 A000000000000 0000000000000.23     00050 02200                  
02964850374960030DT67590675900000002881800888800000010180088824001193075900017200042031620230000000158007523000000000050849422921XXXXXX6466       VS11    0001111   NYV1 A E383075614017468N840000000001580CCNK00    05DNHAPPY HIPPIE             047002    VD84000000001580 N  549976487158                            000000000+                F DF 00381                     000000000  N000000000       0000000000000.00 0000000.00   0000000.00                             000000000000000                                                                                                                                                     01418 A000000000000 0000000000000.28     00800 01500                  
02964860374960031DT67590675900000002881800888800000010180088824001193075900017200059031620230000001058307523000000000050849498503XXXXXX9797       VS11    0001111   NYV1 A E303075655256900N840000000010583DPRH00    05DNHAPPY HIPPIE             086359    VD84000000010583 N  549976487158                            000000000+                F DF 00381                     000000000  N000000000       0000000000000.00 0000000.00   0000000.00                             000000000000000                                                                                                                                                     01418 A000000000000 0000000000001.00     00800 01500                  
02964870374960032DT67590675900000002881800888800000010180088824001193075900017200067031620230000000306207523000000000050849423223XXXXXX8288       VS11    0001111   NYV1 A E383075656908819N840000000003062LXLS00    05DNHAPPY HIPPIE             054558    VD84000000003062 N  549976487158                            000000000+                F DF 00381                     000000000  N000000000       0000000000000.00 0000000.00   0000000.00                             000000000000000                                                                                                                                                     01418 A000000000000 0000000000000.39     00800 01500                  
02964880374960033DT67590675900000002881800888800000010180088824001193075900017200075031620230000000691307523000000000050849449507XXXXXX6597       VS11    0001111   NYV1 A E303075657495773N840000000006913GWKS00    05DNHAPPY HIPPIE             041549    VD84000000006913 N  549976487158                            000000000+                F DF 00381                     000000000  N000000000       0000000000000.00 0000000.00   0000000.00                             000000000000000                                                                                                                                                     01418 A000000000000 0000000000000.70     00800 01500                  
02964890374960034DT67590675900000002881800888800000010180088824001193075900017200083031620230000000158007523000000000050849423223XXXXXX1311       VS11    0001111   NYV1 A E583075674127904N8400000000015806Z5S00    05DNHAPPY HIPPIE             031519    VD84000000001580 N  549976487158                            000000000+                F DF 00381                     000000000  N000000000       0000000000000.00 0000000.00   0000000.00                             000000000000000                                                                                                                                                     01418 A000000000000 0000000000000.28     00800 01500                  
02964900374960035DT67590675900000002881800888800000010180088824001193075900017200091031620230000000548507523000000000050849435547XXXXXX4739       VS11    0001111   NYV1 A E583075687502728N840000000005485TVB700    05DNHAPPY HIPPIE             084021    VD84000000005485 N  549976487158                            000000000+                F DF 10433                     000000000  Y000000000 338   0000000000000.00 0000000.00   0000000.00                             000000000000000                                                                                                                                                     01418 A000000000000 0000000000000.25     00050 02200                  
02964910374960036DT67590675900000002881800888800000010180088824001193075900017200109031620230000000384007523000000000050849443047XXXXXX8619       VS11    0001111   NYV1 A E383075693915707N840000000003840HZK500    05DNHAPPY HIPPIE             453460    VD84000000003840 N  549976487158                            000000000+                F DF 10433                     000000000  Y000000000 338   0000000000000.00 0000000.00   0000000.00                             000000000000000                                                                                                                                                     01418 A000000000000 0000000000000.24     00050 02200                  
02964920374960037DT67590675900000002881800888800000010180088824001193075900017200117031620230000000541907523000000000050849434292XXXXXX6388       VS11    0001111   NYV1 A E463075694615087N840000000005419L23B00    05DNHAPPY HIPPIE             07167D    VS84000000005419 N  549976487158                            000000000+                D CD 12113                     000000000  N000000000 499   0000000000000.00 0000000.00   0000000.00                             000000000000000                                                                                                                                                     01418 A000000000000 0000000000001.24     02100 01000                  
02964930374960038DT67590675900000002881800888800000010180088824001193075900017200125031620230000000246807523000000000050849443238XXXXXX9381       VS11    0001111   NYV1 A E303075711434602N8400000000024682GMG00    05DNHAPPY HIPPIE             054543    VD84000000002468 N  549976487158                            000000000+                F DF 00381                     000000000  N000000000       0000000000000.00 0000000.00   0000000.00                             000000000000000                                                                                                                                                     01418 A000000000000 0000000000000.35     00800 01500                  
02964940374960039BH6759067590000001129680010180000090170316202307523000000000068907    0000090001410016N8001016759C03172023                                                                                                                                                                                                                                                                                                                                                                                                                                                                                                                                                                                                 
02964950374960040DT67590675900000011296800101800000010180010177287283075900014100015031620230000000151107523000000000068907517546XXXXXX3674       MS02WI09          NY 1 0 AMDJIIL7V80316  N840000000001511          05DNPLANET VAPOR #1000       016330    MD84000000001511 N  599976923732                            000000000+M10101C5434C    MDJ  10815                     000000000  1                0000000000000.00 0000000.00   0000000.00                             000000000000000                                                                                                                                                   B101418  000000000000 0000000000000.23     00050 02200                  
02964960374960041DT67590675900000011296800101800000010180010124001193075900014100021031620230000000190407523000000000068907400022XXXXXX7015       VS11    0001111   NYV1 A E463075589592157N840000000001904Z7BG00    07DNPLANET VAPOR #1000       081532    VD84000000001904 N  599976923732                            000000000+                F DF 10433                     000000000  Y000000000 338   0000000000000.00 0000000.00   0000000.00                             000000000000000                                                                                                                                                     01418 A000000000000 0000000000000.23     00050 02200                  
02964970374960042DT67590675900000011296800101800000010180010124001193075900014100039031620230000000493807523000000000068907498503XXXXXX2294       VS11    0001111   NYV1 A E383075610802238N8400000000049389LH900    05DNPLANET VAPOR #1000       083128    VD84000000004938 N  599976923732                            000000000+                F DF 00381                     000000000  N000000000       0000000000000.00 0000000.00   0000000.00                             000000000000000                                                                                                                                                     01418 A000000000000 0000000000000.55     00800 01500                  
02964980374960043DT67590675900000011296800101800000010180010124001193075900014100047031620230000000508107523000000000068907448232XXXXXX4183       VS11    0001111   NYV1 A E383075654022991N840000000005081GCVD00    05DNPLANET VAPOR #1000       040955    VD84000000005081 N  599976923732                            000000000+                F DF 00381                     000000000  N000000000       0000000000000.00 0000000.00   0000000.00                             000000000000000                                                                                                                                                     01418 A000000000000 0000000000000.56     00800 01500                  
02964990374960044DT67590675900000011296800101800000010180010124001193075900014100054031620230000000340107523000000000068907448232XXXXXX4183       VS11    0001111   NYV1 A E583075656444250N840000000003401XT5Q00    05DNPLANET VAPOR #1000       041357    VD84000000003401 N  599976923732                            000000000+                F DF 00381                     000000000  N000000000       0000000000000.00 0000000.00   0000000.00                             000000000000000                                                                                                                                                     01418 A000000000000 0000000000000.42     00800 01500                  
02965000374960045DT67590675900000011296800101800000010180010124001193075900014100062031620230000000621807523000000000068907473702XXXXXX9844       VS11    0001111   NYV1 A E583075666552437N840000000006218N3K800    07DNPLANET VAPOR #1000       079465    VD84000000006218 N  599976923732                            000000000+                F DF 10433                     000000000  Y000000000 338   0000000000000.00 0000000.00   0000000.00                             000000000000000                                                                                                                                                     01418 A000000000000 0000000000000.25     00050 02200                  
02965010374960046DT67590675900000011296800101800000010180010124001193075900014100070031620230000000188907523000000000068907475818XXXXXX4146       VS11    0001111   NYV1 A E303075703464342N840000000001889W5BG00    05DNPLANET VAPOR #1000       500963    VD84000000001889 N  599976923732                            000000000+                F DF 00381                     000000000  N000000000       0000000000000.00 0000000.00   0000000.00                             000000000000000                                                                                                                                                     01418 A000000000000 0000000000000.30     00800 01500                  
02965020374960047DT67590675900000011296800101800000010180010177287283075900014100080031620230000000213707523000000000068907519836XXXXXX2860       MS02WI09          NY 1 0 AMDJUP4PMQ0316  N840000000002137          05DNPLANET VAPOR #1000       434693    MD84000000002137 N  599976923732                            000000000+M10101C5434C    MDJ  00402                     000000000  N                0000000000000.00 0000000.00   0000000.00                             000000000000000                                                                                                                                                   B101418  000000000000 0000000000000.37     01050 01500                  
02965030374960048DT67590675900000011296800101800000010180010177287283075900014100098031620230000000453407523000000000068907519836XXXXXX2454       MS02WI09          NY 1 0 AMDJKFCAY20316  N840000000004534          05DNPLANET VAPOR #1000       435123    MD84000000004534 N  599976923732                            000000000+M10101C5434C    MDJ  00402                     000000000  N                0000000000000.00 0000000.00   0000000.00                             000000000000000                                                                                                                                                   B101418  000000000000 0000000000000.63     01050 01500                  
02965040374960049DT67590675900000011296800101800000010180010124001193075900014100104031620230000001757207523000000000068907474474XXXXXX0646       VS11    0001111   NYV1 A E463075759769213N840000000017572XVS300    05DNPLANET VAPOR #1000       180569    VD84000000017572 N  599976923732                            000000000+                F DF 10433                     000000000  Y000000000 338   0000000000000.00 0000000.00   0000000.00                             000000000000000                                                                                                                                                     01418 A000000000000 0000000000000.31     00050 02200                  
02965050374960050DT67590675900000011296800101800000010180010124001193075900014100112031620230000000377907523000000000068907416074XXXXXX1307       VS11    0001111   NYV1 A E383075762714883N840000000003779SQ3X00    07DNPLANET VAPOR #1000       071105    VD84000000003779 N  599976923732                            000000000+                F DF 00381                     000000000  N000000000       0000000000000.00 0000000.00   0000000.00                             000000000000000                                                                                                                                                     01418 A000000000000 0000000000000.45     00800 01500                  
02965060374960051DT67590675900000011296800101800000010180010177287283075900014100122031620230000000485907523000000000068907517546XXXXXX8761       MS02WI09          NY 1 0 AMDJAH3JM60316  N840000000004859          07DNPLANET VAPOR #1000       016858    MD84000000004859 N  599976923732                            000000000+M10101M0034C    MDJ  10815                     000000000  1                0000000000000.00 0000000.00   0000000.00                             000000000000000                                                                                                                                                   B101418  000000000000 0000000000000.24     00050 02200                  
02965070374960052DT67590675900000011296800101800000010180010124001193075900014100138031620230000000174907523000000000068907434256XXXXXX8631       VS11    0001111   NYV1 A E383075798793130N840000000001749JZVD00    07DNPLANET VAPOR #1000       035371    VD84000000001749 N  599976923732                            000000000+                F DF 10433                     000000000  Y000000000 338   0000000000000.00 0000000.00   0000000.00                             000000000000000                                                                                                                                                     01418 A000000000000 0000000000000.23     00050 02200                  
02965080374960053DT67590675900000011296800101800000010180010124001193075900014100146031620230000000427507523000000000068907474474XXXXXX6052       VS11    0001111   NYV1 A E383075812390080N840000000004275DN7G00    07DNPLANET VAPOR #1000       183833    VD84000000004275 N  599976923732                            000000000+                F DF 10433                     000000000  Y000000000 338   0000000000000.00 0000000.00   0000000.00                             000000000000000                                                                                                                                                     01418 A000000000000 0000000000000.24     00050 02200                  
02965090374960054DT67590675900000011296800101800000010180010124001193075900014100153031620230000000247007523000000000068907453506XXXXXX9023       VS11    0001111   NYV1 A E303075823498617N840000000002470GPSW00    07DNPLANET VAPOR #1000       H77757    VD84000000002470 N  599976923732                            000000000+                F DF 10433                     000000000  Y000000000 338   0000000000000.00 0000000.00   0000000.00                             000000000000000                                                                                                                                                     01418 A000000000000 0000000000000.23     00050 02200                  
02965100374960055DT67590675900000011296800101800000010180010124001193075900014100161031620230000000259007523000000000068907453506XXXXXX9023       VS11    0001111   NYV1 A E463075826520785N840000000002590JDW500    07DNPLANET VAPOR #1000       H78381    VD84000000002590 N  599976923732                            000000000+                F DF 10433                     000000000  Y000000000 338   0000000000000.00 0000000.00   0000000.00                             000000000000000                                                                                                                                                     01418 A000000000000 0000000000000.23     00050 02200                  
02965110374960056BH6759067590000000995180010180000090170316202307523000000000013495    0000090001370004N8001016759C03172023                                                                                                                                                                                                                                                                                                                                                                                                                                                                                                                                                                                                 
02965120374960057DT67590675900000009951800101800000010180010124001193075900013700011031620230000000431907523000000000013495400022XXXXXX5578       VS11    0001111   NYV1 A E463075538485970N8400000000043194MBS00    05DNPLANET VAPOR #500        418708    VD84000000004319 N  599976923295                            000000000+                F DF 10433                     000000000  Y000000000 338   0000000000000.00 0000000.00   0000000.00                             000000000000000                                                                                                                                                     01418 A000000000000 0000000000000.24     00050 02200                  
02965130374960058DT67590675900000009951800101800000010180010177287283075900013700021031620230000000496607523000000000013495514230XXXXXX5502       MS02WI09          NY 1 0 AMDJD1HZV70316  N840000000004966          05DNPLANET VAPOR #500        1DCECE    MD84000000004966 N  599976923295                            000000000+M10101C5434C    MDJ  00402                     000000000  N                0000000000000.00 0000000.00   0000000.00                             000000000000000                                                                                                                                                   B101418  000000000000 0000000000000.67     01050 01500                  
02965140374960059DT67590675900000009951800101800000010180010124001193075900013700037031620230000000237507523000000000013495431196XXXXXX2413       VS11    0001111   NYV1 A E463075752814535N840000000002375Q6HV00    05DNPLANET VAPOR #500        016963    VS84000000002375 N  599976923295                            000000000+                A CA 12110                     000000000  N000000000 493   0000000000000.00 0000000.00   0000000.00                             000000000000000                                                                                                                                                     01418 A000000000000 0000000000000.46     01510 01000                  
02965150374960060DT67590675900000009951800101800000010180010124001193075900013700045031620230000000183507523000000000013495440393XXXXXX3326       VS11    0001111   NYV1 A E383075818824581N84000000000183569FQ00    05DNPLANET VAPOR #500        212149    VD84000000001835 N  599976923295                            000000000+                F PF 08170                     000000000  N000000000       0000000000000.00 0000000.00   0000000.00                             000000000000000                                                                                                                                                     01418 A000000000000 0000000000000.36     01150 01500                  
02965160374960061BH6759067590000001090080010180000090170316202307523000000000137326    0000090001340032N8001016759C03172023                                                                                                                                                                                                                                                                                                                                                                                                                                                                                                                                                                                                 
02965170374960062DT67590675900000010900800101800000010180010124001193075900013400018031620230000000334507523000000000137326438419XXXXXX4048       VS11    0001111   NYV1 A E303075504229543N840000000003345TDKL00    05DNPLANET VAPOR #700        000022    VD84000000003345 N  599976923375                            000000000+                F DF 00381                     000000000  N000000000       0000000000000.00 0000000.00   0000000.00                             000000000000000                                                                                                                                                     01418 A000000000000 0000000000000.42     00800 01500                  
02965180374960063DT67590675900000010900800101800000010180010177287283075900013400028031620230000001826807523000000000137326545443XXXXXX3885       MS02WI09          NY 1 0 AMDJS87FJ20316  N840000000018268          05DNPLANET VAPOR #700        012829    MD84000000018268 N  599976923375                            000000000+M10101C5434C    MDJ  00402                     000000000  N                0000000000000.00 0000000.00   0000000.00                             000000000000000                                                                                                                                                   B101418  000000000000 0000000000002.07     01050 01500                  
02965190374960064DT67590675900000010900800101800000010180010124001193075900013400034031620230000000893807523000000000137326400022XXXXXX9323       VS11    0001111   NYV1 A E383075526920563N840000000008938Q5D200    05DNPLANET VAPOR #700        682170    VD84000000008938 N  599976923375                            000000000+                F DF 10433                     000000000  Y000000000 338   0000000000000.00 0000000.00   0000000.00                             000000000000000                                                                                                                                                     01418 A000000000000 0000000000000.26     00050 02200                  
02965200374960065DT67590675900000010900800101800000010180010124001193075900013400042031620230000000237507523000000000137326461675XXXXXX6075       VS11    0001111   NYV1 A E583075546223817N84000000000237547HN00    05DNPLANET VAPOR #700        563700    VD84000000002375 N  599976923375                            000000000+                F DF 00381                     000000000  N000000000       0000000000000.00 0000000.00   0000000.00                             000000000000000                                                                                                                                                     01418 A000000000000 0000000000000.34     00800 01500                  
02965210374960066DT67590675900000010900800101800000010180010124001193075900013400059031620230000000323807523000000000137326440393XXXXXX6929       VS11    0001111   NYV1 A E463075593972014N840000000003238X36600    05DNPLANET VAPOR #700        871884    VD84000000003238 N  599976923375                            000000000+                F PF 08170                     000000000  N000000000       0000000000000.00 0000000.00   0000000.00                             000000000000000                                                                                                                                                     01418 A000000000000 0000000000000.52     01150 01500                  
02965220374960067DT67590675900000010900800101800000010180010177287283075900013400069031620230000000712507523000000000137326510404XXXXXX3778       MS02WI09          NY 1 0 AMDJLQQIV80316  N840000000007125          05DNPLANET VAPOR #700        074480    MD84000000007125 N  599976923375                            000000000+M10101C5434C    MDJ  00402                     000000000  N                0000000000000.00 0000000.00   0000000.00                             000000000000000                                                                                                                                                   B101418  000000000000 0000000000000.90     01050 01500                  
02965230374960068DT67590675900000010900800101800000010180010124001193075900013400075031620230000000377907523000000000137326449070XXXXXX8229       VS11    0001111   NYV1 A E383075625620335N840000000003779L2T800    05DNPLANET VAPOR #700        122243    VD84000000003779 N  599976923375                            000000000+                F DF 00381                     000000000  N000000000       0000000000000.00 0000000.00   0000000.00                             000000000000000                                                                                                                                                     01418 A000000000000 0000000000000.45     00800 01500                  
02965240374960069DT67590675900000010900800101800000010180010124001193075900013400083031620230000000655707523000000000137326438419XXXXXX8029       VS11    0001111   NYV1 A E383075634318260N840000000006557SWLP00    05DNPLANET VAPOR #700        033711    VD84000000006557 N  599976923375                            000000000+                F DF 00381                     000000000  N000000000       0000000000000.00 0000000.00   0000000.00                             000000000000000                                                                                                                                                     01418 A000000000000 0000000000000.67     00800 01500                  
02965250374960070DT67590675900000010900800101800000010180010177287283075900013400093031620230000000213707523000000000137326531258XXXXXX2961       MS02WI09          NY 1 0 AMDJTXY1M50316  N840000000002137          05DNPLANET VAPOR #700        194567    MD84000000002137 N  599976923375                            000000000+M10101C5434C    MDJ  10815                     000000000  1                0000000000000.00 0000000.00   0000000.00                             000000000000000                                                                                                                                                   B101418  000000000000 0000000000000.23     00050 02200                  
02965260374960071DT67590675900000010900800101800000010180010177287283075900013400101031620230000000475007523000000000137326551273XXXXXX4164       MS02WI09          NY 1 0 AMDJFJATY20316  N840000000004750          90DNPLANET VAPOR #700        240715    MD84000000004750 N  599976923375                            000000000+M10101B5434C    MDJ  00402                     000000000  N                0000000000000.00 0000000.00   0000000.00                             000000000000000                                                                                                                                                   C101418  000000000000 0000000000000.65     01050 01500                  
02965270374960072DT67590675900000010900800101800000010180010124001193075900013400117031620230000000647707523000000000137326410702XXXXXX1823       VS11    0001111   NYV1 A E303075644976627N840000000006477MNTQ00    05DNPLANET VAPOR #700        134499    VD84000000006477 N  599976923375                            000000000+                F DF 00381                     000000000  N000000000       0000000000000.00 0000000.00   0000000.00                             000000000000000                                                                                                                                                     01418 A000000000000 0000000000000.67     00800 01500                  
02965280374960073DT67590675900000010900800101800000010180010124001193075900013400125031620230000000252607523000000000137326461046XXXXXX0024       VS11    0001111   NYV1 A E383075665113848N840000000002526TGQ200    05DNPLANET VAPOR #700        012814    VD84000000002526 N  599976923375                            000000000+                F DF 10433                     000000000  Y000000000 338   0000000000000.00 0000000.00   0000000.00                             000000000000000                                                                                                                                                     01418 A000000000000 0000000000000.23     00050 02200                  
02965290374960074DT67590675900000010900800101800000010180010124001193075900013400133031620230000000262207523000000000137326433477XXXXXX7191       VS11    0001111   NYV1 A E383075673290374N840000000002622FW5P00    05DNPLANET VAPOR #700        400652    VD84000000002622 N  599976923375                            000000000+                F DF 10433                     000000000  Y000000000 338   0000000000000.00 0000000.00   0000000.00                             000000000000000                                                                                                                                                     01418 A000000000000 0000000000000.23     00050 02200                  
02965300374960075DT67590675900000010900800101800000010180010124001193075900013400141031620230000001107507523000000000137326483314XXXXXX0585       VS11    0001111   NYV1 A E383075679082405N840000000011075JJRH00    05DNPLANET VAPOR #700        085114    VD84000000011075 N  599976923375                            000000000+                F DF 10433                     000000000  Y000000000 338   0000000000000.00 0000000.00   0000000.00                             000000000000000                                                                                                                                                     01418 A000000000000 0000000000000.28     00050 02200                  
02965310374960076DT67590675900000010900800101800000010180010124001193075900013400158031620230000000719007523000000000137326461675XXXXXX9818       VS11    0001111   NYV1 A E583075688145544N840000000007190VVJS00    05DNPLANET VAPOR #700        727900    VD84000000007190 N  599976923375                            000000000+                F DF 00381                     000000000  N000000000       0000000000000.00 0000000.00   0000000.00                             000000000000000                                                                                                                                                     01418 A000000000000 0000000000000.73     00800 01500                  
02965320374960077DT67590675900000010900800101800000010180010124001193075900013400166031620230000000252607523000000000137326438419XXXXXX9001       VS11    0001111   NYV1 A E463075689005671N840000000002526XR6R00    05DNPLANET VAPOR #700        050820    VD84000000002526 N  599976923375                            000000000+                F DF 00381                     000000000  N000000000       0000000000000.00 0000000.00   0000000.00                             000000000000000                                                                                                                                                     01418 A000000000000 0000000000000.35     00800 01500                  
02965330374960078DT67590675900000010900800101800000010180010124001193075900013400174031620230000000213707523000000000137326406095XXXXXX0436       VS11    0001111   NYV1 A E463075713295243N840000000002137TNN200    05DNPLANET VAPOR #700        05477D    VS84000000002137 N  599976923375                            000000000+                D CD 12113                     000000000  N000000000 499   0000000000000.00 0000000.00   0000000.00                             000000000000000                                                                                                                                                     01418 A000000000000 0000000000000.55     02100 01000                  
02965340374960079DT67590675900000010900800101800000010180010124001193075900013400182031620230000000075507523000000000137326400022XXXXXX1158       VK04VS111111111   NYV1 A E383075722682988N8400000000007556MH900    05DNPLANET VAPOR #700        451594    VD84000000000755 N  599976923375                            000000000+                F DF 10439                     000000000  Y000000000 331   0000000000000.00 0000000.00   0000000.00                             000000000000000                                                                                                                                                     01418 F000000000000 0000000000000.22     00050 02200                  
02965350374960080DT67590675900000010900800101800000010180010124001193075900013400190031620230000000550507523000000000137326440393XXXXXX3729       VS11    0001111   NYV1 A E463075728940591N840000000005505DS7G00    05DNPLANET VAPOR #700        338028    VD84000000005505 N  599976923375                            000000000+                F PF 08170                     000000000  N000000000       0000000000000.00 0000000.00   0000000.00                             000000000000000                                                                                                                                                     01418 A000000000000 0000000000000.78     01150 01500                  
02965360374960081DT67590675900000010900800101800000010180010124001193075900013400208031620230000000485707523000000000137326448233XXXXXX8655       VS11    0001111   NYV1 A E583075733063681N84000000000485732LF00    05DNPLANET VAPOR #700        052146    VD84000000004857 N  599976923375                            000000000+                F DF 10433                     000000000  Y000000000 338   0000000000000.00 0000000.00   0000000.00                             000000000000000                                                                                                                                                     01418 A000000000000 0000000000000.24     00050 02200                  
02965370374960082DT67590675900000010900800101800000010180010124001193075900013400216031620230000000269907523000000000137326433477XXXXXX7833       VS11    0001111   NYV1 A E383075740435936N840000000002699JKJ200    05DNPLANET VAPOR #700        512551    VD84000000002699 N  599976923375                            000000000+                F DF 10433                     000000000  Y000000000 338   0000000000000.00 0000000.00   0000000.00                             000000000000000                                                                                                                                                     01418 A000000000000 0000000000000.23     00050 02200                  
02965380374960083DT67590675900000010900800101800000010180010124001193075900013400224031620230000000215907523000000000137326448233XXXXXX4982       VS11    0001111   NYV1 A E383075750895082N840000000002159LLQ800    05DNPLANET VAPOR #700        055129    VD84000000002159 N  599976923375                            000000000+                F DF 10433                     000000000  Y000000000 338   0000000000000.00 0000000.00   0000000.00                             000000000000000                                                                                                                                                     01418 A000000000000 0000000000000.23     00050 02200                  
02965390374960084DT67590675900000010900800101800000010180010124001193075900013400232031620230000000205007523000000000137326473703XXXXXX9132       VS11    0001111   NYV1 A E303075756452524N840000000002050XBM600    05DNPLANET VAPOR #700        047165    VD84000000002050 N  599976923375                            000000000+                F DF 10433                     000000000  Y000000000 338   0000000000000.00 0000000.00   0000000.00                             000000000000000                                                                                                                                                     01418 A000000000000 0000000000000.23     00050 02200                  
02965400374960085DT67590675900000010900800101800000010180010124001193075900013400240031620230000000248307523000000000137326423908XXXXXX7739       VS11    0001111   NYV1 A E303075766915506N840000000002483H3LC00    05DNPLANET VAPOR #700        727011    VD84000000002483 N  599976923375                            000000000+                F DF 10433                     000000000  Y000000000 338   0000000000000.00 0000000.00   0000000.00                             000000000000000                                                                                                                                                     01418 A000000000000 0000000000000.23     00050 02200                  
02965410374960086DT67590675900000010900800101800000010180010177287283075900013400259031620230000000404807523000000000137326527368XXXXXX3976       MS02WI09          NY 1 0 AMPGABG2M60316  N840000000004048          05DNPLANET VAPOR #700        509133    MD84000000004048 N  599976923375                            000000000+M10101C5434C    MPG  11964                     000000000  N                0000000000000.00 0000000.00   0000000.00                             000000000000000                                                                                                                                                   B101418  000000000000 0000000000000.62     01150 01500                  
02965420374960087DT67590675900000010900800101800000010180010124001193075900013400265031620230000000237507523000000000137326400022XXXXXX1974       VS11    0001111   NYV1 A E583075784200611N840000000002375GQJC00    05DNPLANET VAPOR #700        039692    VD84000000002375 N  599976923375                            000000000+                F DF 10433                     000000000  Y000000000 338   0000000000000.00 0000000.00   0000000.00                             000000000000000                                                                                                                                                     01418 A000000000000 0000000000000.23     00050 02200                  
02965430374960088DT67590675900000010900800101800000010180010124001193075900013400273031620230000000377807523000000000137326438419XXXXXX7262       VS11    0001111   NYV1 A E383075784989490N8400000000037787CKH00    05DNPLANET VAPOR #700        074818    VD84000000003778 N  599976923375                            000000000+                F DF 00381                     000000000  N000000000       0000000000000.00 0000000.00   0000000.00                             000000000000000                                                                                                                                                     01418 A000000000000 0000000000000.45     00800 01500                  
02965440374960089DT67590675900000010900800101800000010180010176509753075900013400289031620230000000237507523000000000137326601100XXXXXX8195   BA50                  NY41 0 N803064600373985N840000000002375    00    05DNPLANET VAPOR #700        01684R    DS84000000002375 N  599976923375050                         000000000+0000004910H00   DCCDI01000498010  182717000000 000000000  0          112   0000000000000.00 0000000.00   0000000.00                             000000000000000                                                                                                                                                     01418  000000000000 0000000000000.51     01720 01000                  
02965450374960090DT67590675900000010900800101800000010180010124001193075900013400299031620230000000107907523000000000137326438419XXXXXX7611       VK04VS111111111   NYV1 A E303075814942427N840000000001079LLKH00    05DNPLANET VAPOR #700        083815    VD84000000001079 N  599976923375                            000000000+                F DF 00451                     000000000  N000000000 214   0000000000000.00 0000000.00   0000000.00                             000000000000000                                                                                                                                                     01418 F000000000000 0000000000000.21     01550 00400                  
02965460374960091DT67590675900000010900800101800000010180010124001193075900013400307031620230000000539907523000000000137326473703XXXXXX9179       VS11    0001111   NYV1 A E463075829538826N840000000005399JCSJ00    05DNPLANET VAPOR #700        033256    VD84000000005399 N  599976923375                            000000000+                F DF 10433                     000000000  Y000000000 338   0000000000000.00 0000000.00   0000000.00                             000000000000000                                                                                                                                                     01418 A000000000000 0000000000000.25     00050 02200                  
02965470374960092DT67590675900000010900800101800000010180010124001193075900013400315031620230000000140007523000000000137326444607XXXXXX9283       VK04VS111111111   NYV1 A E383075856258474N84000000000140088XJ00    05DNPLANET VAPOR #700        4UE5ZB    VD84000000001400 N  599976923375                            000000000+                G PG 10178                     000000000  N000000000 363   0000000000000.00 0000000.00   0000000.00                             000000000000000                                                                                                                                                     01418 F000000000000 0000000000000.40     02150 01000                  
02965480374960093DT67590675900000010900800101800000010180010177287283075900013400325031620230000000129907523000000000137326523957XXXXXX9443       MS02WI09          NY 1 0 AMDJNFWP4N0316  N840000000001299          05DNPLANET VAPOR #700        010340    MD84000000001299 N  599976923375                            000000000+M10101C5434C    MDJ  00402                     000000000  N                0000000000000.00 0000000.00   0000000.00                             000000000000000                                                                                                                                                   B101418  000000000000 0000000000000.29     01050 01500                  
02965490374960094BH6759067590000001107280010180000090170316202307523000000000033358    0000090001360010N8001016759C03172023                                                                                                                                                                                                                                                                                                                                                                                                                                                                                                                                                                                                 
02965500374960095DT67590675900000011072800101800000010180010124001193075900013600013031620230000000374307523000000000033358430602XXXXXX7088       VS11    0001111   NYV1 A E303075604940663N840000000003743BD7H00    05DNPLANET VAPOR #900        411523    VD84000000003743 N  599976923588                            000000000+                F DF 00381                     000000000  N000000000       0000000000000.00 0000000.00   0000000.00                             000000000000000                                                                                                                                                     01418 A000000000000 0000000000000.45     00800 01500                  
02965510374960096DT67590675900000011072800101800000010180010124001193075900013600021031620230000000213807523000000000033358487917XXXXXX4244       VS11    0001111   NYV1 A E583075606648439N840000000002138N89900    07DNPLANET VAPOR #900        236264    VD84000000002138 N  599976923588                            000000000+                F DF 00381                     000000000  N000000000       0000000000000.00 0000000.00   0000000.00                             000000000000000                                                                                                                                                     01418 A000000000000 0000000000000.32     00800 01500                  
02965520374960097DT67590675900000011072800101800000010180010124001193075900013600039031620230000000278107523000000000033358461675XXXXXX7260       VS11    0001111   NYV1 A E583075610506097N840000000002781S77200    05DNPLANET VAPOR #900        641410    VD84000000002781 N  599976923588                            000000000+                F DF 00381                     000000000  N000000000       0000000000000.00 0000000.00   0000000.00                             000000000000000                                                                                                                                                     01418 A000000000000 0000000000000.37     00800 01500                  
02965530374960098DT67590675900000011072800101800000010180010124001193075900013600047031620230000000213807523000000000033358461675XXXXXX7260       VS11    0001111   NYV1 A E383075612021217N840000000002138K4RW00    05DNPLANET VAPOR #900        643370    VD84000000002138 N  599976923588                            000000000+                F DF 00381                     000000000  N000000000       0000000000000.00 0000000.00   0000000.00                             000000000000000                                                                                                                                                     01418 A000000000000 0000000000000.32     00800 01500                  
02965540374960099DT67590675900000011072800101800000010180010124001193075900013600054031620230000000267407523000000000033358430602XXXXXX4740       VS11    0001111   NYV1 A E463075699910788N840000000002674372D00    07DNPLANET VAPOR #900        441431    VD84000000002674 N  599976923588                            000000000+                F DF 00381                     000000000  N000000000       0000000000000.00 0000000.00   0000000.00                             000000000000000                                                                                                                                                     01418 A000000000000 0000000000000.36     00800 01500                  
02965550374960100DT67590675900000011072800101800000010180010124001193075900013600062031620230000000182907523000000000033358440393XXXXXX0650       VS11    0001111   NYV1 A E463075761090793N8400000000018299WPR00    07DNPLANET VAPOR #900        834012    VD84000000001829 N  599976923588                            000000000+                F PF 08170                     000000000  N000000000       0000000000000.00 0000000.00   0000000.00                             000000000000000                                                                                                                                                     01418 A000000000000 0000000000000.36     01150 01500                  
02965560374960101DT67590675900000011072800101800000010180010124001193075900013600070031620230000000855807523000000000033358438419XXXXXX7500       VS11    0001111   NYV1 A E583075763658884N840000000008558RT6Q00    05DNPLANET VAPOR #900        071245    VD84000000008558 N  599976923588                            000000000+                F DF 00381                     000000000  N000000000       0000000000000.00 0000000.00   0000000.00                             000000000000000                                                                                                                                                     01418 A000000000000 0000000000000.83     00800 01500                  
02965570374960102DT67590675900000011072800101800000010180010124001193075900013600088031620230000000318207523000000000033358408138XXXXXX2728       VS11    0001111   NYV1 A E383075767958470N840000000003182MKRZ00    07DNPLANET VAPOR #900        864997    VD84000000003182 N  599976923588                            000000000+                F PF 08170                     000000000  N000000000       0000000000000.00 0000000.00   0000000.00                             000000000000000                                                                                                                                                     01418 A000000000000 0000000000000.52     01150 01500                  
02965580374960103DT67590675900000011072800101800000010180010124001193075900013600096031620230000000417607523000000000033358430602XXXXXX0012       VS11    0001111   NYV1 A E303075818635658N840000000004176HM6L00    07DNPLANET VAPOR #900        481455    VD84000000004176 N  599976923588                            000000000+                F DF 00381                     000000000  N000000000       0000000000000.00 0000000.00   0000000.00                             000000000000000                                                                                                                                                     01418 A000000000000 0000000000000.48     00800 01500                  
02965590374960104DT67590675900000011072800101800000010180010124001193075900013600104031620230000000213907523000000000033358430602XXXXXX9550       VS11    0001111   NYV1 A E583075861554085N8400000000021396GM400    05DNPLANET VAPOR #900        493608    VD84000000002139 N  599976923588                            000000000+                F DF 00381                     000000000  N000000000       0000000000000.00 0000000.00   0000000.00                             000000000000000                                                                                                                                                     01418 A000000000000 0000000000000.32     00800 01500                  
02965600374960105BH6759067590000000659380010180000090170316202307523000000000173506    0000090001360042N8001016759C03172023                                                                                                                                                                                                                                                                                                                                                                                                                                                                                                                                                                                                 
02965610374960106DT67590675900000006593800101800000010180010124001193075900013600013031620230000000275707523000000000173506433477XXXXXX2285       VS11    0001111   NYV1 A E383075510477897N840000000002757GQBF00    05DNPLANET VAPOR #100        136688    VD84000000002757 N  599976768560                            000000000+                F DF 10433                     000000000  Y000000000 338   0000000000000.00 0000000.00   0000000.00                             000000000000000                                                                                                                                                     01418 A000000000000 0000000000000.23     00050 02200                  
02965620374960107DT67590675900000006593800101800000010180010124001193075900013600021031620230000000280707523000000000173506474474XXXXXX4705       VS11    0001111   NYV1 A E383075519677040N840000000002807H9N700    05DNPLANET VAPOR #100        182367    VD84000000002807 N  599976768560                            000000000+                F DF 10433                     000000000  Y000000000 338   0000000000000.00 0000000.00   0000000.00                             000000000000000                                                                                                                                                     01418 A000000000000 0000000000000.23     00050 02200                  
02965630374960108DT67590675900000006593800101800000010180010177287283075900013600031031620230000000647607523000000000173506528149XXXXXX3644       MS02WI09          NY 1 0 AMDJTCSGJ20316  N840000000006476          05DNPLANET VAPOR #100        038081    MD84000000006476 N  599976768560                            000000000+M10101C5434C    MDJ  00402                     000000000  N                0000000000000.00 0000000.00   0000000.00                             000000000000000                                                                                                                                                   B101418  000000000000 0000000000000.83     01050 01500                  
02965640374960109DT67590675900000006593800101800000010180010124001193075900013600047031620230000000647807523000000000173506400022XXXXXX0552       VS11    0001111   NYV1 A E583075541349832N840000000006478VH6200    07DNPLANET VAPOR #100        167659    VD84000000006478 N  599976768560                            000000000+                F DF 10433                     000000000  Y000000000 338   0000000000000.00 0000000.00   0000000.00                             000000000000000                                                                                                                                                     01418 A000000000000 0000000000000.25     00050 02200                  
02965650374960110DT67590675900000006593800101800000010180010124001193075900013600054031620230000000269907523000000000173506438419XXXXXX0883       VS11    0001111   NYV1 A E303075564114863N840000000002699728C00    07DNPLANET VAPOR #100        014011    VD84000000002699 N  599976768560                            000000000+                F DF 00381                     000000000  N000000000       0000000000000.00 0000000.00   0000000.00                             000000000000000                                                                                                                                                     01418 A000000000000 0000000000000.37     00800 01500                  
02965660374960111DT67590675900000006593800101800000010180010177287283075900013600064031620230000000374407523000000000173506514230XXXXXX6314       MS02WI09          NY 1 0 AMDJQHZYV80316  N840000000003744          07DNPLANET VAPOR #100        79E574    MD84000000003744 N  599976768560                            000000000+M10101M0034C    MDJ  00402                     000000000  N                0000000000000.00 0000000.00   0000000.00                             000000000000000                                                                                                                                                   B101418  000000000000 0000000000000.54     01050 01500                  
02965670374960112DT67590675900000006593800101800000010180010124001193075900013600070031620230000000277907523000000000173506433477XXXXXX8133       VS11    0001111   NYV1 A E383075571734438N840000000002779T9N800    05DNPLANET VAPOR #100        224954    VD84000000002779 N  599976768560                            000000000+                F DF 10433                     000000000  Y000000000 338   0000000000000.00 0000000.00   0000000.00                             000000000000000                                                                                                                                                     01418 A000000000000 0000000000000.23     00050 02200                  
02965680374960113DT67590675900000006593800101800000010180010177287283075900013600080031620230000000075507523000000000173506528149XXXXXX5040       MS02WI09          NY 1 0 AMDJBXT1V20316  N840000000000755          05DNPLANET VAPOR #100        044640    MD84000000000755 N  599976768560                            000000000+M10101C5434C    MDJ  00402                     000000000  N                0000000000000.00 0000000.00   0000000.00                             000000000000000                                                                                                                                                   B101418  000000000000 0000000000000.23     01050 01500                  
02965690374960114DT67590675900000006593800101800000010180010124001193075900013600096031620230000000169907523000000000173506448233XXXXXX3767       VS11    0001111   NYV1 A E463075591342990N840000000001699FGCF00    05DNPLANET VAPOR #100        012534    VD84000000001699 N  599976768560                            000000000+                F DF 10433                     000000000  Y000000000 338   0000000000000.00 0000000.00   0000000.00                             000000000000000                                                                                                                                                     01418 A000000000000 0000000000000.23     00050 02200                  
02965700374960115DT67590675900000006593800101800000010180010124001193075900013600104031620230000000331907523000000000173506400022XXXXXX2750       VS11    0001111   NYV1 A E383075592134953N8400000000033197LPD00    05DNPLANET VAPOR #100        423160    VD84000000003319 N  599976768560                            000000000+                F DF 10433                     000000000  Y000000000 338   0000000000000.00 0000000.00   0000000.00                             000000000000000                                                                                                                                                     01418 A000000000000 0000000000000.24     00050 02200                  
02965710374960116DT67590675900000006593800101800000010180010124001193075900013600112031620230000000100007523000000000173506400022XXXXXX2750       VK04VS111111111   NYV1 A E583075592427839N840000000001000B3PP00    05DNPLANET VAPOR #100        669631    VD84000000001000 N  599976768560                            000000000+                F DF 10439                     000000000  Y000000000 331   0000000000000.00 0000000.00   0000000.00                             000000000000000                                                                                                                                                     01418 F000000000000 0000000000000.23     00050 02200                  
02965720374960117DT67590675900000006593800101800000010180010124001193075900013600120031620230000000280707523000000000173506458643XXXXXX9114       VS11    0001111   NYV1 A E583075609446379N840000000002807GBBG00    05DNPLANET VAPOR #100        H18420    VD84000000002807 N  599976768560                            000000000+                F DF 10433                     000000000  Y000000000 338   0000000000000.00 0000000.00   0000000.00                             000000000000000                                                                                                                                                     01418 A000000000000 0000000000000.23     00050 02200                  
02965730374960118DT67590675900000006593800101800000010180010124001193075900013600138031620230000000475007523000000000173506490067XXXXXX8644       VS11    0001111   NYV1 A E383075617528294N840000000004750FR8T00    05DNPLANET VAPOR #100        583199    VD84000000004750 N  599976768560                            000000000+                F DF 00381                     000000000  N000000000       0000000000000.00 0000000.00   0000000.00                             000000000000000                                                                                                                                                     01418 A000000000000 0000000000000.53     00800 01500                  
02965740374960119DT67590675900000006593800101800000010180010124001193075900013600146031620230000000215907523000000000173506440393XXXXXX1140       VS11    0001111   NYV1 A E583075618375964N840000000002159K8TL00    05DNPLANET VAPOR #100        811507    VD84000000002159 N  599976768560                            000000000+                F PF 08170                     000000000  N000000000       0000000000000.00 0000000.00   0000000.00                             000000000000000                                                                                                                                                     01418 A000000000000 0000000000000.40     01150 01500                  
02965750374960120DT67590675900000006593800101800000010180010177287283075900013600155031620230000000285907523000000000173506553781XXXXXX7382       MS02WI09          NY 1 0 AMDSPW3TMQ0316  N840000000002859          05DNPLANET VAPOR #100        687285    MD84000000002859 N  599976768560                            000000000+M10101C5434C    MDS  00402                     000000000  N                0000000000000.00 0000000.00   0000000.00                             000000000000000                                                                                                                                                   B101418  000000000000 0000000000000.45     01050 01500                  
02965760374960121DT67590675900000006593800101800000010180010124001193075900013600161031620230000000237507523000000000173506440393XXXXXX5206       VS11    0001111   NYV1 A E463075622803619N8400000000023758FWW00    05DNPLANET VAPOR #100        021682    VD84000000002375 N  599976768560                            000000000+                F PF 08170                     000000000  N000000000       0000000000000.00 0000000.00   0000000.00                             000000000000000                                                                                                                                                     01418 A000000000000 0000000000000.42     01150 01500                  
02965770374960122DT67590675900000006593800101800000010180010124001193075900013600179031620230000001670807523000000000173506438419XXXXXX7420       VS11    0001111   NYV1 A E303075639627843N840000000016708KMCC00    05DNPLANET VAPOR #100        034602    VD84000000016708 N  599976768560                            000000000+                F DF 00381                     000000000  N000000000       0000000000000.00 0000000.00   0000000.00                             000000000000000                                                                                                                                                     01418 A000000000000 0000000000001.49     00800 01500                  
02965780374960123DT67590675900000006593800101800000010180010124001193075900013600187031620230000001130607523000000000173506412185XXXXXX6976       VS11    0001111   NYV1 A E303075654934637N8400000000113069MRP00    05DNPLANET VAPOR #100        016504    VS84000000011306 N  599976768560                            000000000+                C CC 12112                     000000000  N000000000 497   0000000000000.00 0000000.00   0000000.00                             000000000000000                                                                                                                                                     01418 A000000000000 0000000000001.97     01650 01000                  
02965790374960124DT67590675900000006593800101800000010180010124001193075900013600195031620230000000109407523000000000173506406095XXXXXX4915       VK04VS111111111   NYV1 A E303075669085939N840000000001094G7RV00    05DNPLANET VAPOR #100        05258D    VS84000000001094 N  599976768560                            000000000+                D CD 12113                     000000000  N000000000 499   0000000000000.00 0000000.00   0000000.00                             000000000000000                                                                                                                                                     01418 F000000000000 0000000000000.33     02100 01000                  
02965800374960125DT67590675900000006593800101800000010180010124001193075900013600203031620230000000016207523000000000173506459954XXXXXX8147       VK04VS111111111   NYV1 A E383075677347502N840000000000162NSKK00    07DNPLANET VAPOR #100        H35099    VD84000000000162 N  599976768560                            000000000+                F DF 10439                     000000000  Y000000000 331   0000000000000.00 0000000.00   0000000.00                             000000000000000                                                                                                                                                     01418 F000000000000 0000000000000.22     00050 02200                  
02965810374960126DT67590675900000006593800101800000010180010124001193075900013600211031620230000001943507523000000000173506462192XXXXXX4318       VS11    0001111   NYV1 A E463075689626538N840000000019435Z55X00    05DNPLANET VAPOR #100        016178    VS84000000019435 N  599976768560                            000000000+                A CA 12110                     000000000  N000000000 493   0000000000000.00 0000000.00   0000000.00                             000000000000000                                                                                                                                                     01418 A000000000000 0000000000003.03     01510 01000                  
02965820374960127DT67590675900000006593800101800000010180010124001193075900013600229031620230000000720607523000000000173506465124XXXXXX1547       VS11    0001111   NYV1 A E303075696131047N8400000000072065ZJQ00    07DNPLANET VAPOR #100        023124    VD84000000007206 N  599976768560                            000000000+                F DF 10433                     000000000  Y000000000 338   0000000000000.00 0000000.00   0000000.00                             000000000000000                                                                                                                                                     01418 A000000000000 0000000000000.26     00050 02200                  
02965830374960128DT67590675900000006593800101800000010180010124001193075900013600237031620230000000582807523000000000173506414709XXXXXX2386       VS11    0001111   NYV1 A E303075699483623N840000000005828B3C500    05DNPLANET VAPOR #100        06467D    VS84000000005828 N  599976768560                            000000000+                D CD 12113                     000000000  N000000000 499   0000000000000.00 0000000.00   0000000.00                             000000000000000                                                                                                                                                     01418 A000000000000 0000000000001.32     02100 01000                  
02965840374960129DT67590675900000006593800101800000010180010124001193075900013600245031620230000000131807523000000000173506400022XXXXXX4876       VK04VS111111111   NYV1 A E383075706315480N840000000001318SLQ500    05DNPLANET VAPOR #100        538601    VD84000000001318 N  599976768560                            000000000+                F DF 10439                     000000000  Y000000000 331   0000000000000.00 0000000.00   0000000.00                             000000000000000                                                                                                                                                     01418 F000000000000 0000000000000.23     00050 02200                  
02965850374960130DT67590675900000006593800101800000010180010124001193075900013600252031620230000000252607523000000000173506400022XXXXXX9284       VS11    0001111   NYV1 A E383075722345493N8400000000025264SRP00    05DNPLANET VAPOR #100        329128    VD84000000002526 N  599976768560                            000000000+                F DF 10433                     000000000  Y000000000 338   0000000000000.00 0000000.00   0000000.00                             000000000000000                                                                                                                                                     01418 A000000000000 0000000000000.23     00050 02200                  
02965860374960131DT67590675900000006593800101800000010180010124001193075900013600260031620230000000213707523000000000173506433477XXXXXX7655       VS11    0001111   NYV1 A E383075727244812N840000000002137P7W500    05DNPLANET VAPOR #100        490146    VD84000000002137 N  599976768560                            000000000+                F DF 10433                     000000000  Y000000000 338   0000000000000.00 0000000.00   0000000.00                             000000000000000                                                                                                                                                     01418 A000000000000 0000000000000.23     00050 02200                  
02965870374960132DT67590675900000006593800101800000010180010124001193075900013600278031620230000000213707523000000000173506406095XXXXXX9879       VS11    0001111   NYV1 A E583075752419594N840000000002137LWHS00    05DNPLANET VAPOR #100        02047D    VS84000000002137 N  599976768560                            000000000+                D CD 12113                     000000000  N000000000 499   0000000000000.00 0000000.00   0000000.00                             000000000000000                                                                                                                                                     01418 A000000000000 0000000000000.55     02100 01000                  
02965880374960133DT67590675900000006593800101800000010180010124001193075900013600286031620230000000340107523000000000173506448261XXXXXX8326       VS11    0001111   NYV1 A E583075773708866N840000000003401P4D300    05DNPLANET VAPOR #100        830870    VD84000000003401 N  599976768560                            000000000+                F DF 10433                     000000000  Y000000000 338   0000000000000.00 0000000.00   0000000.00                             000000000000000                                                                                                                                                     01418 A000000000000 0000000000000.24     00050 02200                  
02965890374960134DT67590675900000006593800101800000010180010124001193075900013600294031620230000000269907523000000000173506459954XXXXXX8147       VS11    0001111   NYV1 A E583075775405954N840000000002699WQB300    07DNPLANET VAPOR #100        H66002    VD84000000002699 N  599976768560                            000000000+                F DF 10433                     000000000  Y000000000 338   0000000000000.00 0000000.00   0000000.00                             000000000000000                                                                                                                                                     01418 A000000000000 0000000000000.23     00050 02200                  
02965900374960135DT67590675900000006593800101800000010180010124001193075900013600302031620230000000201907523000000000173506459954XXXXXX8147       VS11    0001111   NYV1 A E383075775778075N840000000002019L2K800    07DNPLANET VAPOR #100        H65358    VD84000000002019 N  599976768560                            000000000+                F DF 10433                     000000000  Y000000000 338   0000000000000.00 0000000.00   0000000.00                             000000000000000                                                                                                                                                     01418 A000000000000 0000000000000.23     00050 02200                  
02965910374960136DT67590675900000006593800101800000010180010124001193075900013600310031620230000000561407523000000000173506458643XXXXXX1207       VS11    0001111   NYV1 A E463075789270356N840000000005614WCMP00    05DNPLANET VAPOR #100        H71197    VD84000000005614 N  599976768560                            000000000+                F DF 10433                     000000000  Y000000000 338   0000000000000.00 0000000.00   0000000.00                             000000000000000                                                                                                                                                     01418 A000000000000 0000000000000.25     00050 02200                  
02965920374960137DT67590675900000006593800101800000010180010124001193075900013600328031620230000000442607523000000000173506430602XXXXXX9320       VS11    0001111   NYV1 A E383075808427185N840000000004426Q95400    07DNPLANET VAPOR #100        478691    VD84000000004426 N  599976768560                            000000000+                F DF 00381                     000000000  N000000000       0000000000000.00 0000000.00   0000000.00                             000000000000000                                                                                                                                                     01418 A000000000000 0000000000000.50     00800 01500                  
02965930374960138DT67590675900000006593800101800000010180010173011003075900013600332031620230000000213707523000000000173506371305XXXXX1016                          NY 1 0 N004470483447323N840000000002137          05DNPLANET VAPOR INC #100    807276    AM84000000002137 N  599976768560                            000000000+51010155434C 258     11261                     000000000                   0000000000000.00 0000000.00   0000000.00                             000000000000000 61248972086759675900000006593 PLANET VAPOR INC #100    9300 TOP NOTCH RD STE 1  8035462263      29223     KEVIN@MOOREDISTRO.COM                     01418  000000000000 0000000000000.44     01600 00000                  
02965940374960139DT67590675900000006593800101800000010180010124001193075900013600344031620230000000075307523000000000173506408138XXXXXX6305       VK04VS111111111   NYV1 A E583075827496289N8400000000007539QH300    07DNPLANET VAPOR #100        773399    VD84000000000753 N  599976768560                            000000000+                F PF 08165                     000000000  N000000000       0000000000000.00 0000000.00   0000000.00                             000000000000000                                                                                                                                                     01418 F000000000000 0000000000000.17     01600 00500                  
02965950374960140DT67590675900000006593800101800000010180010177287283075900013600353031620230000000223907523000000000173506531258XXXXXX3275       MS02WI09          NY 1 0 AMDJACJG5A0316  N840000000002239          05DNPLANET VAPOR #100        180320    MD84000000002239 N  599976768560                            000000000+M10101C5434C    MDJ  10815                     000000000  1                0000000000000.00 0000000.00   0000000.00                             000000000000000                                                                                                                                                   B101418  000000000000 0000000000000.23     00050 02200                  
02965960374960141DT67590675900000006593800101800000010180010124001193075900013600369031620230000000647707523000000000173506430602XXXXXX1465       VS11    0001111   NYV1 A E583075835238654N840000000006477DL6Z00    05DNPLANET VAPOR #100        486094    VD84000000006477 N  599976768560                            000000000+                F DF 00381                     000000000  N000000000       0000000000000.00 0000000.00   0000000.00                             000000000000000                                                                                                                                                     01418 A000000000000 0000000000000.67     00800 01500                  
02965970374960142DT67590675900000006593800101800000010180010124001193075900013600377031620230000000237507523000000000173506486897XXXXXX3457       VS11    0001111   NYV1 A E463075845148673N8400000000023755JNT00    07DNPLANET VAPOR #100        05029B    VS84000000002375 N  599976768560                            000000000+                B CB 12111                     000000000  N000000000 495   0000000000000.00 0000000.00   0000000.00                             000000000000000                                                                                                                                                     01418 A000000000000 0000000000000.49     01650 01000                  
