00002310272790002BH6759067590000000288180088880000090171212202234622000000000004997    0000090001190055Y8008886759C12132022                                                                                                                                                                                                                                                                                                                                                                                                                                                                                                                                                                                                 
00002320272790003DT67590675900000002881800888800000010180088873011002346900011900556121220220000000499734622000000000004997373967XXXXX1009                          NY 4 07N003787011439303N840000000004997          01DNHAPPY HIPPIE             115759    AM84000000004997 Y  549976044904                            000000000+6004S0000130 258     11261                     000000000                   0000000000000.00 0000000.00   0000000.00                             000000000000000 61248972086759675900000002881 HAPPY HIPPIE             832 PARKWAY              8656540830      37862     HAPPYHIPPIE832@GMAIL.COM                  01324  000000000000 0000000000000.90     01600 00000                  
00002330272790004BH6759067590000000017480000180000090171212202234622000000000000000    0000090001150009Y8000016759C12132022                                                                                                                                                                                                                                                                                                                                                                                                                                                                                                                                                                                                 
00002340272790005DT67590675900000000174800001800000010180000187287282346900011500088121220220000000020034622000000000000000558158XXXXXX7298                         NY 4607AMDBDFBPTO1212  N840000000000200          81DNVERMONTSTATE BANK        2QKJTK    MD84000000000200 NP1549975551542   7877361893               000000000+600450S00130    MDB  00062                     000000000  N                0000000000000.00 0000000.00   0000000.00                             000000000000000                                                                                                                                                   U001424  000000000000 0000000000000.15     02650 01000                  
00002350272790001P1675906759000000001748000018000000101                                                          000000000000          1000            390335740                                                                                                                                                                                                                                                                                                                                                                                                                                                                                                                                                            
00002360272790006DT67590675900000000174800001800000010680000187287282346900011500096121220220000000020034622000000000000000558158XXXXXX7298                         NY 4607AMDBCG7WCA1212  N840000000000200          81CNVERMONTSTATE BANK        2W7N2M    MD84000000000200 NP1549975551542   7877368832               000000000+600450S00130    MDB  00566                     000000000  N                0000000000000.00 0000000.00   0000000.00                             000000000000000                                                                                                                                                     01424  000000000000-0000000000000.05     02370 00000                  
00002370272790001P1675906759000000001748000018000000106                                                          000000000000          1000            390335740                                                                                                                                                                                                                                                                                                                                                                                                                                                                                                                                                            
