00001740504210002BH6759067590000000151180088880000090171122202232622000000000001050    0000090001010001Y8008886759C11232022                                                                                                                                                                                                                                                                                                                                                                                                                                                                                                                                                                                                 
00001750504210003DT67590675900000001511800888800000010180088873011002326900010100012112120220000000105032622000000000001050373967XXXXX1009                          NY 4 07N003416786090303N840000000001050          01DNBEDROCK MFG LLC          292834    AM84000000001050 Y  519975988941                            000000000+6004S0S00130 258     11243                     000000000                   0000000000000.00 0000000.00   0000000.00                             000000000000000 61248972736759675900000001511 BEDROCK MFG LLC          214 W. 37TH ST.          2087248209      83705     ADMIN@BEDROCKMGF.CO                       01324  000000000000 0000000000000.27     01650 00000                  
00001760504210004BH6759067590000000288180088880000090171122202232622000000000002633    0000090001020004Y8008886759C11232022                                                                                                                                                                                                                                                                                                                                                                                                                                                                                                                                                                                                 
00001770504210005DT67590675900000002881800888800000010180088824001192326900010200048112220220000000263332622000000000002633449507XXXXXX7692               2111111   NYV4 A7W462326639274581N840000000002633Z4P200    01DNTENNESSEE TRADING POST   024527    VD84000000002633 NP1549976044904   1823                     000000000+                F DF 00415                     000000000  N000000000       0000000000000.00 0000000.00   0000000.00                             000000000000000                                                                                                                                                     01424 G000000002633 0000000000000.58     01650 01500                  
00001780504210001P16759067590000000288180088880000001010000000000000000                             2000000000000000000000000              000000000000                    0000000000000000000000000                    000000000000                                                                                                                                                                                                                                                                                                                                                                                                                                                                                        
00001790504210006BH6759067590000000017480000180000090171122202232622000000000000500    0000090001130004Y8000016759C11232022                                                                                                                                                                                                                                                                                                                                                                                                                                                                                                                                                                                                 
00001800504210007DT67590675900000000174800001800000010180000187287282326900011300053112220220000000050032622000000000000500558158XXXXXX7298                         NY 4607AMDBVJGE491122  N840000000000500          81DNVERMONT STATE BANK       2JQQH6    MD84000000000500 NP1549975551542   31                       000000000+600450S00130    MDB  00062                     000000000  N                0000000000000.00 0000000.00   0000000.00                             000000000000000                                                                                                                                                   U001424  000000000000 0000000000000.23     02650 01000                  
00001810504210001P1675906759000000001748000018000000101                                                          000000000000          1000            390335740                                                                                                                                                                                                                                                                                                                                                                                                                                                                                                                                                            
00001820504210008DT67590675900000000174800001800000010180000187287282326900011300038112120220000000100032622000000000000500558158XXXXXX7298                         NY 4607AMDBFPKSEU1121  N840000000001000          81DNVERMONT STATE BANK       2IAA9U    MD84000000001000 NP1549975551542   7813335409               000000000+600450S00130    MDB  00062                     000000000  N                0000000000000.00 0000000.00   0000000.00                             000000000000000                                                                                                                                                   U001424  000000000000 0000000000000.37     02650 01000                  
00001830504210001P1675906759000000001748000018000000101                                                          000000000000          1000            390335740                                                                                                                                                                                                                                                                                                                                                                                                                                                                                                                                                            
00001840504210009DT67590675900000000174800001800000010680000187287282326900011300046112120220000000100032622000000000000500558158XXXXXX7298                         NY 4607AMDBFPS2EU1121  N840000000001000          81CNVERMONT STATE BANK       27TMDW    MD84000000001000 NP1549975551542   7813335409               000000000+600450S00130    MDB  00566                     000000000  N                0000000000000.00 0000000.00   0000000.00                             000000000000000                                                                                                                                                     01424  000000000000-0000000000000.24     02370 00000                  
00001850504210001P1675906759000000001748000018000000106                                                          000000000000          1000            390335740                                                                                                                                                                                                                                                                                                                                                                                                                                                                                                                                                            
