00004220602500002BH6759067590000001857280010580000090170327202308623000000000049821    0000090001190019N8001056759C03272023                                                                                                                                                                                                                                                                                                                                                                                                                                                                                                                                                                                                 
00004230602500003DT67590675900000018572800105800000010180010524001193086900011900016032620230000000360908623000000000049821444796XXXXXX8819       VS11    0001111   NYV1 A E303085602697317N840000000003609P9SD00    05DNGALLERY SMOKE SHOP LLC   026300    VS84000000003609 N  599977453598                            000000000+                A CA 12110                     000000000  N000000000 493   0000000000000.00 0000000.00   0000000.00                             000000000000000                                                                                                                                                     01424 A000000000000 0000000000000.64     01510 01000                  
00004240602500004DT67590675900000018572800105800000010180010524001193086900011900024032620230000000064208623000000000049821444796XXXXXX8819       VK04VS111111111   NYV1 A E303085620223519N840000000000642FHZG00    05DNGALLERY SMOKE SHOP LLC   026629    VS84000000000642 N  599977453598                            000000000+                A CA 12110                     000000000  N000000000 493   0000000000000.00 0000000.00   0000000.00                             000000000000000                                                                                                                                                     01424 F000000000000 0000000000000.20     01510 01000                  
00004250602500005DT67590675900000018572800105800000010180010524001193086900011900057032620230000000064208623000000000049821444796XXXXXX8819       VK04VS111111111   NYV1 A E303085688508792N840000000000642C5NS00    05DNGALLERY SMOKE SHOP LLC   026219    VS84000000000642 N  599977453598                            000000000+                A CA 12110                     000000000  N000000000 493   0000000000000.00 0000000.00   0000000.00                             000000000000000                                                                                                                                                     01424 F000000000000 0000000000000.20     01510 01000                  
00004260602500006DT67590675900000018572800105800000010180010524001193086900011900081032620230000000091808623000000000049821498468XXXXXX9917       VK04VS111111111   NYV1 A E463085736903670N840000000000918QKM700    07DNGALLERY SMOKE SHOP LLC   004213    VD84000000000918 N  599977453598                            000000000+                F DF 00451                     000000000  N000000000 214   0000000000000.00 0000000.00   0000000.00                             000000000000000                                                                                                                                                     01424 F000000000000 0000000000000.18     01550 00400                  
00004270602500007DT67590675900000018572800105800000010180010524001193086900011900099032620230000000832408623000000000049821430455XXXXXX9818       VS11    0001111   NYV1 A E303085737640483N840000000008324B8VH00    07DNGALLERY SMOKE SHOP LLC   07734C    VS84000000008324 N  599977453598                            000000000+                C CC 12112                     000000000  N000000000 497   0000000000000.00 0000000.00   0000000.00                             000000000000000                                                                                                                                                     01424 A000000000000 0000000000001.47     01650 01000                  
00004280602500008DT67590675900000018572800105800000010180010524001193086900011900131032620230000000963508623000000000049821430455XXXXXX9818       VS11    0001111   NYV1 A E303085774051706N840000000009635B2HK00    07DNGALLERY SMOKE SHOP LLC   00167C    VS84000000009635 N  599977453598                            000000000+                C CC 12112                     000000000  N000000000 497   0000000000000.00 0000000.00   0000000.00                             000000000000000                                                                                                                                                     01424 A000000000000 0000000000001.69     01650 01000                  
00004290602500009DT67590675900000018572800105800000010180010573011003086900011900145032620230000000465808623000000000049821379596XXXXX1003                          NY 1 0 N007362893163060N840000000004658          05DNGALLERY SMOKE SHOP LLC   804680    AM84000000004658 N  599977453598                            000000000+51010155434C 258     11261                     000000000                   0000000000000.00 0000000.00   0000000.00                             000000000000000 61248972086759675900000018572 GALLERY SMOKE SHOP LLC   9107 PARK BLVD           7724522461      33775     INFO@GALLERYSMOKESHOP.COM                 01424  000000000000 0000000000000.85     01600 00000                  
00004300602500010DT67590675900000018572800105800000010180010524001193086900011900180032620230000000008008623000000000049821444796XXXXXX8819       VK04VS111111111   NYV1 A E303085828294809N840000000000080KP9M00    05DNGALLERY SMOKE SHOP LLC   026777    VS84000000000080 N  599977453598                            000000000+                A CA 12110                     000000000  N000000000 493   0000000000000.00 0000000.00   0000000.00                             000000000000000                                                                                                                                                     01424 F000000000000 0000000000000.11     01510 01000                  
00004310602500011DT67590675900000018572800105800000033080010576759003086900011900037032620230000000020108623000000000049821410881XXXXXX5461                         NY 2 0 N               N840000000000201      IL  05DNGALLERY SMOKE SHOP LLC   054891    DB84000000000201 N  599977453598                            000000000+                     09573                                N          121   0000000000000.00 0000000.00   0000000.00                             000000000000000                                                                                                                                                     01424  000000000000 0000000000000.17     00800 00000                  
00004320602500012DT67590675900000018572800105800000033080010576759003086900011900045032620230000000052608623000000000049821426207XXXXXX9218                         NY 2 0 N               N840000000000526      IL  05DNGALLERY SMOKE SHOP LLC   084061    DB84000000000526 N  599977453598                            000000000+                     09573                                N          121   0000000000000.00 0000000.00   0000000.00                             000000000000000                                                                                                                                                     01424  000000000000 0000000000000.19     00800 00000                  
00004330602500013DT67590675900000018572800105800000033080010576759003086900011900060032620230000000013708623000000000049821440393XXXXXX8785                         NY 2 0 N               N840000000000137      IL  05DNGALLERY SMOKE SHOP LLC   709613    DB84000000000137 N  599977453598                            000000000+                     09576                                N          346   0000000000000.00 0000000.00   0000000.00                             000000000000000                                                                                                                                                     01424  000000000000 0000000000000.17     01150 00000                  
00004340602500014DT67590675900000018572800105800000033080010576759003086900011900078032620230000000589608623000000000049821483312XXXXXX9053                         NY 2 0 N               N840000000005896      IL  07DNGALLERY SMOKE SHOP LLC   052715    DB84000000005896 N  599977453598                            000000000+                     09580                                Y          342   0000000000000.00 0000000.00   0000000.00                             000000000000000                                                                                                                                                     01424  000000000000 0000000000000.25     00050 00000                  
00004350602500015DT67590675900000018572800105800000033080010576759003086900011900102032620230000000199908623000000000049821472815XXXXXX5066                         NY 2 0 N               N840000000001999      IL  07DNGALLERY SMOKE SHOP LLC   040717    DB84000000001999 N  599977453598                            000000000+                     09580                                Y          342   0000000000000.00 0000000.00   0000000.00                             000000000000000                                                                                                                                                     01424  000000000000 0000000000000.23     00050 00000                  
00004360602500016DT67590675900000018572800105800000033080010576759003086900011900110032620230000000134908623000000000049821514377XXXXXX0230                         NY42 0 N               N840000000001349      ME  05DNGALLERY SMOKE SHOP LLC   2RCDZG    DB84000000001349 N  599977453598                            000000000+                     09597                                N                0000000000000.00 0000000.00   0000000.00                             000000000000000                                                                                                                                                     01424  000000000000 0000000000000.27     00900 00000                  
00004370602500017DT67590675900000018572800105800000033080010576759003086900011900128032620230000000604608623000000000049821459954XXXXXX0688                         NY 2 0 N               N840000000006046      IL  05DNGALLERY SMOKE SHOP LLC   H68039    DB84000000006046 N  599977453598                            000000000+                     09580                                Y          342   0000000000000.00 0000000.00   0000000.00                             000000000000000                                                                                                                                                     01424  000000000000 0000000000000.25     00050 00000                  
00004380602500018DT67590675900000018572800105800000033080010576759003086900011900151032620230000000027908623000000000049821498468XXXXXX9917                         NY 2 0 N               N840000000000279      IL  07DNGALLERY SMOKE SHOP LLC   030751    DB84000000000279 N  599977453598                            000000000+                     09573                                N          121   0000000000000.00 0000000.00   0000000.00                             000000000000000                                                                                                                                                     01424  000000000000 0000000000000.17     00800 00000                  
00004390602500019DT67590675900000018572800105800000033080010576759003086900011900169032620230000000091008623000000000049821441103XXXXXX7260                         NY 2 0 N               N840000000000910      IL  05DNGALLERY SMOKE SHOP LLC   074718    DB84000000000910 N  599977453598                            000000000+                     09580                                Y          342   0000000000000.00 0000000.00   0000000.00                             000000000000000                                                                                                                                                     01424  000000000000 0000000000000.22     00050 00000                  
00004400602500020DT67590675900000018572800105800000033080010576759003086900011900177032620230000000045408623000000000049821486284XXXXXX4259                         NY 2 0 N               N840000000000454      IL  07DNGALLERY SMOKE SHOP LLC   105862    DB84000000000454 N  599977453598                            000000000+                     09580                                Y          342   0000000000000.00 0000000.00   0000000.00                             000000000000000                                                                                                                                                     01424  000000000000 0000000000000.22     00050 00000                  
00004410602500021DT67590675900000018572800105800000033080010576759003086900011900193032620230000000351608623000000000049821440393XXXXXX3266                         NY 2 0 N               N840000000003516      IL  05DNGALLERY SMOKE SHOP LLC   628979    DB84000000003516 N  599977453598                            000000000+                     09576                                N          346   0000000000000.00 0000000.00   0000000.00                             000000000000000                                                                                                                                                     01424  000000000000 0000000000000.55     01150 00000                  
00004420602500022BH6759067590000001165080088880000090170327202308623000000000048993    0000090001440017N8008886759C03272023                                                                                                                                                                                                                                                                                                                                                                                                                                                                                                                                                                                                 
00004430602500023DT67590675900000011650800888800000010180088824001193086900014400014032520230000000283008623000000000048993422968XXXXXX0656       VS11    0001111   NYV1 A E583085176172439N8400000000028303P2W00    07DNVPODS HOLDING INC        B38236    VD84000000002830 N  599977032122                            000000000+                F DF 10433                     000000000  Y000000000 338   0000000000000.00 0000000.00   0000000.00                             000000000000000                                                                                                                                                     01424 A000000000000 0000000000000.23     00050 02200                  
00004440602500024DT67590675900000011650800888800000010180088824001193086900014400022032520230000000113208623000000000048993481582XXXXXX4375       VK04VS111111111   NYV1 A E463085179663257N840000000001132XZB800    07DNVPODS HOLDING INC        135092    VD84000000001132 N  599977032122                            000000000+                F DF 10439                     000000000  Y000000000 331   0000000000000.00 0000000.00   0000000.00                             000000000000000                                                                                                                                                     01424 F000000000000 0000000000000.23     00050 02200                  
00004450602500025DT67590675900000011650800888800000010180088824001193086900014400030032620230000000588708623000000000048993414720XXXXXX0619       VS11    0001111   NYV1 A E583085609554107N840000000005887WC5200    05DNVPODS HOLDING INC        06671D    VS84000000005887 N  599977032122                            000000000+                D CD 12113                     000000000  N000000000 499   0000000000000.00 0000000.00   0000000.00                             000000000000000                                                                                                                                                     01424 A000000000000 0000000000001.34     02100 01000                  
00004460602500026DT67590675900000011650800888800000010180088877287283086900014400040032620230000000080008623000000000048993514377XXXXXX4883       MS02WI09          NY 1 0 AMDJF6BC490326  N840000000000800          07DNVPODS HOLDING INC        11OZSA    MD84000000000800 N  599977032122                            000000000+M10101M0034C    MDJ  00402                     000000000  N                0000000000000.00 0000000.00   0000000.00                             000000000000000                                                                                                                                                   B101424  000000000000 0000000000000.23     01050 01500                  
00004470602500027DT67590675900000011650800888800000010180088873011003086900014400051032620230000000566208623000000000048993371243XXXXX5017                          NY 1 0 N007358977592067N840000000005662          05DNVPODS HOLDINGS INC       877198    AM84000000005662 N  599977032122                            000000000+51010155434C 258     11261                     000000000                   0000000000000.00 0000000.00   0000000.00                             000000000000000 61248972086759675900000011650 VPODS HOLDINGS INC       2527 N LINCOLN AVE       7732092463      60614     SMOKEDREAMS2@ICLOUD.COM                   01424  000000000000 0000000000001.01     01600 00000                  
00004480602500028DT67590675900000011650800888800000010180088824001193086900014400063032620230000000453008623000000000048993426684XXXXXX7899       VS11    0001111   NYV1 A E463085673409088N840000000004530NST900    07DNVPODS HOLDING INC        06628C    VS84000000004530 N  599977032122                            000000000+                C CC 12112                     000000000  N000000000 497   0000000000000.00 0000000.00   0000000.00                             000000000000000                                                                                                                                                     01424 A000000000000 0000000000000.85     01650 01000                  
00004490602500029DT67590675900000011650800888800000010180088877287283086900014400073032620230000000283008623000000000048993527520XXXXXX4832       MS02WI09          NY 1 0 AMDJUXIEZH0326  N840000000002830          05DNVPODS HOLDING INC        144173    MD84000000002830 N  599977032122                            000000000+M10101C5434C    MDJ  10815                     000000000  1                0000000000000.00 0000000.00   0000000.00                             000000000000000                                                                                                                                                   B101424  000000000000 0000000000000.23     00050 02200                  
00004500602500030DT67590675900000011650800888800000010180088824001193086900014400089032620230000000339608623000000000048993414720XXXXXX1709       VS11    0001111   NYV1 A E583085775925303N840000000003396X93H00    05DNVPODS HOLDING INC        09386I    VS84000000003396 N  599977032122                            000000000+                I CI 12113                     000000000  N000000000 499   0000000000000.00 0000000.00   0000000.00                             000000000000000                                                                                                                                                     01424 A000000000000 0000000000000.81     02100 01000                  
00004510602500031DT67590675900000011650800888800000010180088873011003086900014400093032620230000000113108623000000000048993371699XXXXX1005                          NY 1 0 N006808906026075N840000000001131          07DNVPODS HOLDINGS INC       833997    AM84000000001131 N  599977032122                            000000000+51010X50034C 258     11261                     000000000                   0000000000000.00 0000000.00   0000000.00                             000000000000000 61248972086759675900000011650 VPODS HOLDINGS INC       2527 N LINCOLN AVE       7732092463      60614     SMOKEDREAMS2@ICLOUD.COM                   01424  000000000000 0000000000000.28     01600 00000                  
00004520602500032DT67590675900000011650800888800000010180088824001193086900014400105032620230000000283008623000000000048993438857XXXXXX8147       VS11    0001111   NYV1 A E383085859176296N84000000000283027SB00    07DNVPODS HOLDING INC        04720D    VS84000000002830 N  599977032122                            000000000+                D CD 12113                     000000000  N000000000 499   0000000000000.00 0000000.00   0000000.00                             000000000000000                                                                                                                                                     01424 A000000000000 0000000000000.69     02100 01000                  
00004530602500033DT67590675900000011650800888800000010180088824001193086900014400113032620230000000283008623000000000048993483316XXXXXX7222       VS11    0001111   NYV1 A E303086008534049N840000000002830MBSM00    07DNVPODS HOLDING INC        031420    VD84000000002830 N  599977032122                            000000000+                F DF 10433                     000000000  Y000000000 338   0000000000000.00 0000000.00   0000000.00                             000000000000000                                                                                                                                                     01424 A000000000000 0000000000000.23     00050 02200                  
00004540602500034DT67590675900000011650800888800000010180088877287283086900014400123032620230000000113008623000000000048993510796XXXXXX1119       MS02WI09          NY 2 0 AMDSRQYPNL0326  N840000000001130          05DNVPODS HOLDING INC        202208    MD84000000001130 N  599977032122                            000000000+M10101C1334C    MDS  00402                     000000000  N                0000000000000.00 0000000.00   0000000.00                             000000000000000                                                                                                                                                     01424  000000000000 0000000000000.27     01050 01500                  
00004550602500035DT67590675900000011650800888800000010180088877287283086900014400131032620230000000050708623000000000048993559619XXXXXX6722       MS02WI09          NY 1 0 AMDJOQ77ZL0326  N840000000000507          07DNVPODS HOLDING INC        143091    MD84000000000507 N  599977032122                            000000000+M10101M0034C    MDJ  10815                     000000000  1                0000000000000.00 0000000.00   0000000.00                             000000000000000                                                                                                                                                   A101424  000000000000 0000000000000.22     00050 02200                  
00004560602500036DT67590675900000011650800888800000010180088824001193086900014400147032620230000000257508623000000000048993414720XXXXXX8182       VS11    0001111   NYV1 A E463086032149193N840000000002575QCTX00    07DNVPODS HOLDING INC        00027C    VS84000000002575 N  599977032122                            000000000+                C CC 12112                     000000000  N000000000 497   0000000000000.00 0000000.00   0000000.00                             000000000000000                                                                                                                                                     01424 A000000000000 0000000000000.52     01650 01000                  
00004570602500037DT67590675900000011650800888800000010180088824001193086900014400154032620230000000028208623000000000048993414720XXXXXX8182       VK04VS111111111   NYV1 A E463086032928915N840000000000282PM4X00    07DNVPODS HOLDING INC        03573C    VS84000000000282 N  599977032122                            000000000+                C CC 12112                     000000000  N000000000 497   0000000000000.00 0000000.00   0000000.00                             000000000000000                                                                                                                                                     01424 F000000000000 0000000000000.15     01650 01000                  
00004580602500038DT67590675900000011650800888800000010180088824001193086900014400162032620230000000067608623000000000048993453506XXXXXX5080       VK04VS111111111   NYV1 A E463086045030787N840000000000676834J00    05DNVPODS HOLDING INC        H02238    VD84000000000676 N  599977032122                            000000000+                F DF 10439                     000000000  Y000000000 331   0000000000000.00 0000000.00   0000000.00                             000000000000000                                                                                                                                                     01424 F000000000000 0000000000000.22     00050 02200                  
00004590602500039DT67590675900000011650800888800000010180088824001193086900014400170032620230000000996508623000000000048993441707XXXXXX1070       VS11    0001111   NYV1 A E383086091412010N84000000000996524D600    07DNVPODS HOLDING INC        482851    VD84000000009965 N  599977032122                            000000000+                F PF 08170                     000000000  N000000000       0000000000000.00 0000000.00   0000000.00                             000000000000000                                                                                                                                                     01424 A000000000000 0000000000001.30     01150 01500                  
