00002410352620002BH6759067590000000370780088880000090170215202304623000000000123881    0000090001330245Y8008886759C02162023                                                                                                                                                                                                                                                                                                                                                                                                                                                                                                                                                                                                 
00002420352620003DT67590675900000003707800888800000010180088887287283046900013302385021420230000000574804623000000000123881512230XXXXXX0379       ME03KE06MS02      NY 4607AMWEL0X91F0214  N840000000005748          81DNMR HEMP FLOWER           85215Z    MC84000000005748 N  549976053336   85854                    000000000+600450S00130    MWE  00737                     000000000  N                0000000000000.00 0000000.00   0000000.00                             000000000000000                                                                                                                                                   U001424  000000000000 0000000000001.59     02600 01000                  
00002430352620004DT67590675900000003707800888800000010180088824001193046900013302392021420230000003199004623000000000123881406095XXXXXX8527               2111111   NYV4 A7W303046067006337N840000000031990W72M00    01DNMR HEMP FLOWER           04226B    VS84000000031990 NP1549976053336   85856                    000000000+                B CB 12107                     000000000  N000000000 494   0000000000000.00 0000000.00   0000000.00                             000000000000000                                                                                                                                                     01424 G000000031990 0000000000006.63     02040 01000                  
00002440352620001P16759067590000000370780088880000001010000000000000000                             2000000000000000000000000              000000000000                    0000000000000000000000000                    000000000000                                                                                                                                                                                                                                                                                                                                                                                                                                                                                        
00002450352620005DT67590675900000003707800888800000010180088824001193046900013302400021420230000002899904623000000000123881415417XXXXXX9737               2111111   NYV4 A7W463046122496683N8400000000289996WDN00    01DNMR HEMP FLOWER           02282G    VB84000000028999 NP1549976053336   85864                    000000000+                G4CG411355                     000000000  N000000000 377   0000000000000.00 0000000.00   0000000.00                             000000000000000                                                                                                                                                     01424 G000000028999 0000000000008.65     02950 01000                  
00002460352620001P16759067590000000370780088880000001010000000000000000                             2000000000000000000000000              000000000000                    0000000000000000000000000                    000000000000                                                                                                                                                                                                                                                                                                                                                                                                                                                                                        
00002470352620006DT67590675900000003707800888800000010180088887287283046900013302419021420230000000612404623000000000123881552433XXXXXX4031       ME03KE06MS02      NY 4607AMPLTA7Z3R0214  N840000000006124          81DNMR HEMP FLOWER           04233M    MC84000000006124 N  549976053336   85865                    000000000+600450S00130    MPL  00580                     000000000  N                0000000000000.00 0000000.00   0000000.00                             000000000000000                                                                                                                                                   U001424  000000000000 0000000000001.39     02100 01000                  
00002480352620007DT67590675900000003707800888800000010180088824001193046900013302426021520230000001799804623000000000123881474478XXXXXX9835               2111111   NYV4 A7W583046403651997N840000000017998VHWK00    01DNMR HEMP FLOWER           111725    VD84000000017998 NP1549976053336   85879                    000000000+                F DF 10420                     000000000  Y000000000 338   0000000000000.00 0000000.00   0000000.00                             000000000000000                                                                                                                                                     01424 G000000017998 0000000000000.31     00050 02200                  
00002490352620001P16759067590000000370780088880000001010000000000000000                             2000000000000000000000000              000000000000                    0000000000000000000000000                    000000000000                                                                                                                                                                                                                                                                                                                                                                                                                                                                                        
00002500352620008DT67590675900000003707800888800000010180088824001193046900013302434021520230000001740004623000000000123881401195XXXXXX5575               2111111   NYV4 A7W583046598951464N84000000001740026LS00    01DNMR HEMP FLOWER           917550    VD84000000017400 NP1549976053336   85893                    000000000+                F DF 00415                     000000000  N000000000       0000000000000.00 0000000.00   0000000.00                             000000000000000                                                                                                                                                     01424 G000000017400 0000000000003.02     01650 01500                  
00002510352620001P16759067590000000370780088880000001010000000000000000                             2000000000000000000000000              000000000000                    0000000000000000000000000                    000000000000                                                                                                                                                                                                                                                                                                                                                                                                                                                                                        
00002520352620009DT67590675900000003707800888800000010180088824001193046900013302442021520230000000949904623000000000123881400899XXXXXX1197               2111111   NYV4 A7W303046603414237N840000000009499TGR500    01DNMR HEMP FLOWER           015131    VS84000000009499 NP1549976053336   85895                    000000000+                C CC 12108                     000000000  N000000000 496   0000000000000.00 0000000.00   0000000.00                             000000000000000                                                                                                                                                     01424 G000000009499 0000000000002.05     02050 01000                  
00002530352620001P16759067590000000370780088880000001010000000000000000                             2000000000000000000000000              000000000000                    0000000000000000000000000                    000000000000                                                                                                                                                                                                                                                                                                                                                                                                                                                                                        
00002540352620010DT67590675900000003707800888800000010180088824001193046900013302459021520230000000612304623000000000123881453506XXXXXX6599               2111111   NYV4 A7W463046697068470N840000000006123LDML00    01DNMR HEMP FLOWER           H38348    VD84000000006123 NP1549976053336   85907                    000000000+                F DF 10420                     000000000  Y000000000 338   0000000000000.00 0000000.00   0000000.00                             000000000000000                                                                                                                                                     01424 G000000006123 0000000000000.25     00050 02200                  
00002550352620001P16759067590000000370780088880000001010000000000000000                             2000000000000000000000000              000000000000                    0000000000000000000000000                    000000000000                                                                                                                                                                                                                                                                                                                                                                                                                                                                                        
00002560352620011BH6759067590000001090080088880000090170215202304623000000000078035    0000090001050023Y8008886759C02162023                                                                                                                                                                                                                                                                                                                                                                                                                                                                                                                                                                                                 
00002570352620012DT67590675900000010900800888800000010180088824001193046900010500014021520230000000237504623000000000078035449553XXXXXX7415       VS11    0001111   NYV1 A E463046541811022N8400000000023754WBL00    05DNPLANET VAPOR #700        000301    VD84000000002375 N  599976923375                            000000000+                F DF 00381                     000000000  N000000000       0000000000000.00 0000000.00   0000000.00                             000000000000000                                                                                                                                                     01424 A000000000000 0000000000000.34     00800 01500                  
00002580352620013DT67590675900000010900800888800000010180088824001193046900010500022021520230000000269904623000000000078035410702XXXXXX4240       VS11    0001111   NYV1 A E583046550530608N840000000002699Z65B00    05DNPLANET VAPOR #700        096518    VD84000000002699 N  599976923375                            000000000+                F DF 00381                     000000000  N000000000       0000000000000.00 0000000.00   0000000.00                             000000000000000                                                                                                                                                     01424 A000000000000 0000000000000.37     00800 01500                  
00002590352620014DT67590675900000010900800888800000010180088824001193046900010500030021520230000000269904623000000000078035438419XXXXXX9249       VS11    0001111   NYV1 A E463046584589022N840000000002699LFCW00    05DNPLANET VAPOR #700        011419    VD84000000002699 N  599976923375                            000000000+                F DF 00381                     000000000  N000000000       0000000000000.00 0000000.00   0000000.00                             000000000000000                                                                                                                                                     01424 A000000000000 0000000000000.37     00800 01500                  
00002600352620015DT67590675900000010900800888800000010180088824001193046900010500048021520230000000728804623000000000078035410702XXXXXX7930       VS11    0001111   NYV1 A E303046627595247N840000000007288MBRB00    90DNPLANET VAPOR #700        112964    VD84000000007288 N  599976923375                            000000000+                F DF 00381                     000000000  N000000000       0000000000000.00 0000000.00   0000000.00                             000000000000000                                                                                                                                                     01424 A000000000000 0000000000000.73     00800 01500                  
00002610352620016DT67590675900000010900800888800000010180088824001193046900010500055021520230000000213704623000000000078035410702XXXXXX5971       VS11    0001111   NYV1 A E583046651012488N840000000002137PHBG00    05DNPLANET VAPOR #700        128418    VD84000000002137 N  599976923375                            000000000+                F DF 00381                     000000000  N000000000       0000000000000.00 0000000.00   0000000.00                             000000000000000                                                                                                                                                     01424 A000000000000 0000000000000.32     00800 01500                  
00002620352620017DT67590675900000010900800888800000010180088824001193046900010500063021520230000000943104623000000000078035410702XXXXXX9056       VS11    0001111   NYV1 A E303046671762749N840000000009431Q4ZC00    05DNPLANET VAPOR #700        131437    VD84000000009431 N  599976923375                            000000000+                F DF 00381                     000000000  N000000000       0000000000000.00 0000000.00   0000000.00                             000000000000000                                                                                                                                                     01424 A000000000000 0000000000000.90     00800 01500                  
00002630352620018DT67590675900000010900800888800000010180088824001193046900010500071021520230000000431804623000000000078035481583XXXXXX1699       VS11    0001111   NYV1 A E383046674956078N8400000000043184G7L00    05DNPLANET VAPOR #700        104349    VD84000000004318 N  599976923375                            000000000+                F DF 10433                     000000000  Y000000000 338   0000000000000.00 0000000.00   0000000.00                             000000000000000                                                                                                                                                     01424 A000000000000 0000000000000.24     00050 02200                  
00002640352620019DT67590675900000010900800888800000010180088824001193046900010500089021520230000000116504623000000000078035410702XXXXXX9056       VK04VS111111111   NYV1 A E303046681216940N840000000001165KXZX00    05DNPLANET VAPOR #700        133278    VD84000000001165 N  599976923375                            000000000+                F DF 00451                     000000000  N000000000 214   0000000000000.00 0000000.00   0000000.00                             000000000000000                                                                                                                                                     01424 F000000000000 0000000000000.22     01550 00400                  
00002650352620020DT67590675900000010900800888800000010180088824001193046900010500097021520230000000377804623000000000078035430602XXXXXX3678       VS11    0001111   NYV1 A E303046688330027N840000000003778PPSR00    05DNPLANET VAPOR #700        460782    VD84000000003778 N  599976923375                            000000000+                F DF 00381                     000000000  N000000000       0000000000000.00 0000000.00   0000000.00                             000000000000000                                                                                                                                                     01424 A000000000000 0000000000000.45     00800 01500                  
00002660352620021DT67590675900000010900800888800000010180088824001193046900010500105021520230000000204004623000000000078035473703XXXXXX0712       VS11    0001111   NYV1 A E383046721597805N8400000000020402LP700    05DNPLANET VAPOR #700        057660    VD84000000002040 N  599976923375                            000000000+                F DF 10433                     000000000  Y000000000 338   0000000000000.00 0000000.00   0000000.00                             000000000000000                                                                                                                                                     01424 A000000000000 0000000000000.23     00050 02200                  
00002670352620022DT67590675900000010900800888800000010180088824001193046900010500113021520230000000269904623000000000078035473703XXXXXX7955       VS11    0001111   NYV1 A E463046731722864N840000000002699XN5300    05DNPLANET VAPOR #700        030936    VD84000000002699 N  599976923375                            000000000+                F DF 10433                     000000000  Y000000000 338   0000000000000.00 0000000.00   0000000.00                             000000000000000                                                                                                                                                     01424 A000000000000 0000000000000.23     00050 02200                  
00002680352620023DT67590675900000010900800888800000010180088877287283046900010500123021520230000000539904623000000000078035510805XXXXXX6192       MS02WI09          NY 1 0 AMDJN697G40215  N840000000005399          05DNPLANET VAPOR #700        043813    MD84000000005399 N  599976923375                            000000000+M10101C5434C    MDJ  10815                     000000000  1                0000000000000.00 0000000.00   0000000.00                             000000000000000                                                                                                                                                   B101424  000000000000 0000000000000.25     00050 02200                  
00002690352620024DT67590675900000010900800888800000010180088824001193046900010500139021520230000000151004623000000000078035400022XXXXXX1158       VS11    0001111   NYV1 A E383046748099456N840000000001510ZG6M00    05DNPLANET VAPOR #700        742612    VD84000000001510 N  599976923375                            000000000+                F DF 10433                     000000000  Y000000000 338   0000000000000.00 0000000.00   0000000.00                             000000000000000                                                                                                                                                     01424 A000000000000 0000000000000.23     00050 02200                  
00002700352620025DT67590675900000010900800888800000010180088824001193046900010500147021520230000000016204623000000000078035400022XXXXXX1158       VK04VS111111111   NYV1 A E583046750899504N840000000000162ZTNL00    05DNPLANET VAPOR #700        791557    VD84000000000162 N  599976923375                            000000000+                F DF 10439                     000000000  Y000000000 331   0000000000000.00 0000000.00   0000000.00                             000000000000000                                                                                                                                                     01424 F000000000000 0000000000000.22     00050 02200                  
00002710352620026DT67590675900000010900800888800000010180088824001193046900010500154021520230000000237504623000000000078035438419XXXXXX9390       VS11    0001111   NYV1 A E583046751790854N84000000000237598DK00    05DNPLANET VAPOR #700        055259    VD84000000002375 N  599976923375                            000000000+                F DF 00381                     000000000  N000000000       0000000000000.00 0000000.00   0000000.00                             000000000000000                                                                                                                                                     01424 A000000000000 0000000000000.34     00800 01500                  
00002720352620027DT67590675900000010900800888800000010180088824001193046900010500162021520230000000356204623000000000078035459954XXXXXX5899       VS11    0001111   NYV1 A E303046757940967N840000000003562735400    05DNPLANET VAPOR #700        H53965    VD84000000003562 N  599976923375                            000000000+                F DF 10433                     000000000  Y000000000 338   0000000000000.00 0000000.00   0000000.00                             000000000000000                                                                                                                                                     01424 A000000000000 0000000000000.24     00050 02200                  
00002730352620028DT67590675900000010900800888800000010180088824001193046900010500170021520230000000323804623000000000078035438419XXXXXX8996       VS11    0001111   NYV1 A E463046795751080N840000000003238N4LT00    05DNPLANET VAPOR #700        070615    VD84000000003238 N  599976923375                            000000000+                F DF 00381                     000000000  N000000000       0000000000000.00 0000000.00   0000000.00                             000000000000000                                                                                                                                                     01424 A000000000000 0000000000000.41     00800 01500                  
00002740352620029DT67590675900000010900800888800000010180088824001193046900010500188021520230000000161904623000000000078035433477XXXXXX4908       VS11    0001111   NYV1 A E383046808641742N840000000001619HMX700    05DNPLANET VAPOR #700        882020    VD84000000001619 N  599976923375                            000000000+                F DF 10433                     000000000  Y000000000 338   0000000000000.00 0000000.00   0000000.00                             000000000000000                                                                                                                                                     01424 A000000000000 0000000000000.23     00050 02200                  
00002750352620030DT67590675900000010900800888800000010180088877287283046900010500198021520230000000237504623000000000078035550114XXXXXX5502       MS02WI09          NY 1 0 AMCSIFUSG40215  N840000000002375          05DNPLANET VAPOR #700        015287    MC84000000002375 N  599976923375                            000000000+M10101C5434C    MCS  00015                     000000000  N                0000000000000.00 0000000.00   0000000.00                             000000000000000                                                                                                                                                   B101424  000000000000 0000000000000.49     01650 01000                  
00002760352620031DT67590675900000010900800888800000010180088824001193046900010500204021520230000000539804623000000000078035430602XXXXXX2583       VS11    0001111   NYV1 A E383046840443539N840000000005398WR4R00    05DNPLANET VAPOR #700        503583    VD84000000005398 N  599976923375                            000000000+                F DF 00381                     000000000  N000000000       0000000000000.00 0000000.00   0000000.00                             000000000000000                                                                                                                                                     01424 A000000000000 0000000000000.58     00800 01500                  
00002770352620032DT67590675900000010900800888800000010180088824001193046900010500212021520230000000669404623000000000078035498503XXXXXX6157       VS11    0001111   NYV1 A E303046855190608N84000000000669474LD00    05DNPLANET VAPOR #700        070503    VD84000000006694 N  599976923375                            000000000+                F DF 00381                     000000000  N000000000       0000000000000.00 0000000.00   0000000.00                             000000000000000                                                                                                                                                     01424 A000000000000 0000000000000.69     00800 01500                  
00002780352620033DT67590675900000010900800888800000010180088824001193046900010500220021520230000000237504623000000000078035410702XXXXXX8935       VS11    0001111   NYV1 A E463046860848387N840000000002375K7NF00    05DNPLANET VAPOR #700        177106    VD84000000002375 N  599976923375                            000000000+                F DF 00381                     000000000  N000000000       0000000000000.00 0000000.00   0000000.00                             000000000000000                                                                                                                                                     01424 A000000000000 0000000000000.34     00800 01500                  
00002790352620034DT67590675900000010900800888800000010180088876509753046900010500236021520230000000269904623000000000078035601100XXXXXX6741   BA50                  NY41 0 N803039577385604N840000000002699    00    05DNPLANET VAPOR #700        01594R    DS84000000002699 N  599976923375050                         000000000+0000004910H00   DCCDI01000001184  192218000000 000000000  0          112   0000000000000.00 0000000.00   0000000.00                             000000000000000                                                                                                                                                     01424  000000000000 0000000000000.56     01720 01000                  
