00002880694910002BH6759067590000000288180088880000090170130202303023000000000006234    0000090001500107Y8008886759C01312023                                                                                                                                                                                                                                                                                                                                                                                                                                                                                                                                                                                                 
00002890694910003DT67590675900000002881800888800000010180088824001193030900015001065013020230000000395003023000000000006234434257XXXXXX3468               2111111   NYV4 A7W303030764635859N840000000003950Z3PZ00    01DNHAPPY HIPPIE             059648    VD84000000003950 NP1549976044904   1923                     000000000+                F DF 10420                     000000000  Y000000000 338   0000000000000.00 0000000.00   0000000.00                             000000000000000                                                                                                                                                     01424 G000000003950 0000000000000.24     00050 02200                  
00002900694910001P16759067590000000288180088880000001010000000000000000                             2000000000000000000000000              000000000000                    0000000000000000000000000                    000000000000                                                                                                                                                                                                                                                                                                                                                                                                                                                                                        
00002910694910004DT67590675900000002881800888800000010180088824001193030900015001073013020230000000228403023000000000006234486933XXXXXX0328               2111111   NYV4 A7W463030804429127N840000000002284BKVS00    01DNHAPPY HIPPIE             174294    VD84000000002284 NP1549976044904   1924                     000000000+                F DF 00415                     000000000  N000000000       0000000000000.00 0000000.00   0000000.00                             000000000000000                                                                                                                                                     01424 G000000002284 0000000000000.53     01650 01500                  
00002920694910001P16759067590000000288180088880000001010000000000000000                             2000000000000000000000000              000000000000                    0000000000000000000000000                    000000000000                                                                                                                                                                                                                                                                                                                                                                                                                                                                                        
