02234270320359241AD675906759000000133008001028000009071900012016620000002121103132023NYY07223ND6759800102031520232023072033197                                                                                                                                                                                                                                                                                                                                                                                                                                                                                                                                                                                              
02234280320359244AD675906759000000133008001028000009071900010301820000000706103132023NYY07223ND6759800102031520232023072019172                                                                                                                                                                                                                                                                                                                                                                                                                                                                                                                                                                                              
02234290320359247AD675906759000000142748001028000009071900011609530000001192203132023NYY07223ND6759800102031520232023072019173                                                                                                                                                                                                                                                                                                                                                                                                                                                                                                                                                                                              
02234300321926989BH6759067590000000288180088880000090170314202307323000000000000014    0000090001740150N8008886759D03152023                                                                                                                                                                                                                                                                                                                                                                                                                                                                                                                                                                                                 
02234310321926990DT67590675900000002881800888800000010680088874001193073900017401498031020230000000659807323000000000000014427178XXXXXX8540               0000000   YYV4 07T583069605864078N840000000006598GK8700    01CNHAPPY HIPPIE             070071    VD84000000006598 NP1549976044904   1966                     000000000+                F DF 08168                     000000000  Y000000000 369   0000000000000.00 0000000.00   0000000.00                             000000000000000                                                                                                                                                     015WPE 000000006598 0000000000000.00     00000 00000                  
02234320321920001P16759067590000000288180088880000001060000000000000000                             2000000000000000000000000              000000000000                    0000000000000000000000000                    000000000000                                                                                                                                                                                                                                                                                                                                                                                                                                                                                        
02234330321926991DT67590675900000002881800888800000010180088824001193073900017401501031020230000000658407323000000000000014419090XXXXXX5887       PS01    2111111   YYV4 J7N383069799204059N840000000006584LT6300    01DNHAPPY HIPPIE             283237    VD84000000006584 NP1549976044904   1967                     000000000+                F DF 00425                     000000000  N000000010       0000000000000.00 0000000.00   0000000.00                             000000000000000                                                                                                                                                     015WPE 000000006584 0000000000001.35     01750 02000                  
02234340321920001P16759067590000000288180088880000001010000000000000000                             2000000000000000000000000              000000000000                    0000000000000000000000000                    000000000000                                                                                                                                                                                                                                                                                                                                                                                                                                                                                        
02234350322830002BH6759067590000000288180088880000090170314202307323000000000105698    0000090001700018N8008886759C03152023                                                                                                                                                                                                                                                                                                                                                                                                                                                                                                                                                                                                 
02234360322830003DT67590675900000002881800888800000010180088877287283073900017000016031420230000000079007323000000000105698533248XXXXXX4414       MS02WI09          NY 2 0 AMPVLNJJN30314  N840000000000790          05DNHAPPY HIPPIE             M2ICFJ    MD84000000000790 N  549976487158                            000000000+M10101C1334C    MPV  00505                     000000000  N                0000000000000.00 0000000.00   0000000.00                             000000000000000                                                                                                                                                     01418  000000000000 0000000000000.16     01550 00400                  
02234370322830004DT67590675900000002881800888800000010180088824001193073900017000022031420230000000179407323000000000105698419090XXXXXX5725       VS11    0001111   NYV1 A E583073509743393N8400000000017945X6N00    05DNHAPPY HIPPIE             375669    VD84000000001794 N  549976487158                            000000000+                F DF 00381                     000000000  N000000000       0000000000000.00 0000000.00   0000000.00                             000000000000000                                                                                                                                                     01418 A000000000000 0000000000000.29     00800 01500                  
02234380322830005DT67590675900000002881800888800000010180088873011003073900017000036031420230000000790107323000000000105698379768XXXXX1005                          NY 1 0 N004704617383305N840000000007901          05DNHAPPY HIPPIE             841216    AM84000000007901 N  549976487158                            000000000+51010155434C 258     11262                     000000000                   0000000000000.00 0000000.00   0000000.00                             000000000000000 61248972086759675900000002881 HAPPY HIPPIE             832 PARKWAY              8656540830      37862     HAPPYHIPPIE832@GMAIL.COM                  01418  000000000000 0000000000001.64     01950 00000                  
02234390322830006DT67590675900000002881800888800000010180088877287283073900017000040031420230000000395007323000000000105698517805XXXXXX0085       MS02WI09          NY 1 0 AMPLYNLLB70314  N840000000003950          05DNHAPPY HIPPIE             06388B    MC84000000003950 N  549976487158                            000000000+M10101C5434C    MPL  00364                     000000000  N                0000000000000.00 0000000.00   0000000.00                             000000000000000                                                                                                                                                   B101418  000000000000 0000000000000.75     01800 00400                  
02234400322830007DT67590675900000002881800888800000010180088824001193073900017000055031420230000000790007323000000000105698473336XXXXXX5051       VS11    0001111   NYV1 A E583073561140108N840000000007900ZK2R00    05DNHAPPY HIPPIE             093514    VD84000000007900 N  549976487158                            000000000+                F DF 00381                     000000000  N000000000       0000000000000.00 0000000.00   0000000.00                             000000000000000                                                                                                                                                     01418 A000000000000 0000000000000.78     00800 01500                  
02234410322830008DT67590675900000002881800888800000010180088824001193073900017000063031420230000001042507323000000000105698435547XXXXXX0480       VS11    0001111   NYV1 A E583073562660184N840000000010425QKKM00    05DNHAPPY HIPPIE             083024    VD84000000010425 N  549976487158                            000000000+                F DF 10433                     000000000  Y000000000 338   0000000000000.00 0000000.00   0000000.00                             000000000000000                                                                                                                                                     01418 A000000000000 0000000000000.27     00050 02200                  
02234420322830009DT67590675900000002881800888800000010180088824001193073900017000071031420230000001717007323000000000105698474487XXXXXX1417       VS11    0001111   NYV1 A E583073650228743N840000000017170JPVB00    05DNHAPPY HIPPIE             180938    VD84000000017170 N  549976487158                            000000000+                F DF 10433                     000000000  Y000000000 338   0000000000000.00 0000000.00   0000000.00                             000000000000000                                                                                                                                                     01418 A000000000000 0000000000000.31     00050 02200                  
02234430322830010DT67590675900000002881800888800000010180088824001193073900017000089031420230000000325807323000000000105698480639XXXXXX1976       VS11    0001111   NYV1 A E583073651251610N840000000003258MNDZ00    05DNHAPPY HIPPIE             838016    VD84000000003258 N  549976487158                            000000000+                F DF 00381                     000000000  N000000000       0000000000000.00 0000000.00   0000000.00                             000000000000000                                                                                                                                                     01418 A000000000000 0000000000000.41     00800 01500                  
02234440322830011DT67590675900000002881800888800000010180088877287283073900017000099031420230000000131507323000000000105698546125XXXXXX2376       MS02WI09          NY 1 0 AMDJVAKJEE0314  N840000000001315          05DNHAPPY HIPPIE             137114    MD84000000001315 N  549976487158                            000000000+M10101C5434C    MDJ  00505                     000000000  N                0000000000000.00 0000000.00   0000000.00                             000000000000000                                                                                                                                                   B101418  000000000000 0000000000000.24     01550 00400                  
02234450322830012DT67590675900000002881800888800000010180088824001193073900017000105031420230000001323307323000000000105698445101XXXXXX8489       VS11    0001111   NYV1 A E583073658704077N8400000000132335LVQ00    05DNHAPPY HIPPIE             783930    VD84000000013233 N  549976487158                            000000000+                F DF 10433                     000000000  Y000000000 338   0000000000000.00 0000000.00   0000000.00                             000000000000000                                                                                                                                                     01418 A000000000000 0000000000000.29     00050 02200                  
02234460322830013DT67590675900000002881800888800000010180088824001193073900017000113031420230000000197407323000000000105698443238XXXXXX0990       VS11    0001111   NYV1 A E303073667022007N840000000001974RQCH00    05DNHAPPY HIPPIE             043143    VD84000000001974 N  549976487158                            000000000+                F DF 00381                     000000000  N000000000       0000000000000.00 0000000.00   0000000.00                             000000000000000                                                                                                                                                     01418 A000000000000 0000000000000.31     00800 01500                  
02234470322830014DT67590675900000002881800888800000010180088824001193073900017000121031420230000000473907323000000000105698448233XXXXXX2727       VS11    0001111   NYV1 A E383073671485038N84000000000473995C200    05DNHAPPY HIPPIE             033909    VD84000000004739 N  549976487158                            000000000+                F DF 10433                     000000000  Y000000000 338   0000000000000.00 0000000.00   0000000.00                             000000000000000                                                                                                                                                     01418 A000000000000 0000000000000.24     00050 02200                  
02234480322830015DT67590675900000002881800888800000010180088877287283073900017000131031420230000000325807323000000000105698511953XXXXXX1396       MS02WI09          NY 1 0 AMDJSSP5P40314  N840000000003258          05DNHAPPY HIPPIE             016602    MD84000000003258 N  549976487158                            000000000+M10101C5434C    MDJ  00402                     000000000  N                0000000000000.00 0000000.00   0000000.00                             000000000000000                                                                                                                                                   B101418  000000000000 0000000000000.49     01050 01500                  
02234490322830016DT67590675900000002881800888800000010180088824001193073900017000147031420230000000504807323000000000105698415978XXXXXX3141               1001111   NYV1 A K383073683883673N840000000005048SS3W00    01DNHAPPY HIPPIE             004361    VD84000000005048 N  549976487158                            000000000+                F DF 10436                     000000000  Y000000000 338   0000000000000.00 0000000.00   0000000.00                             000000000000000                                                                                                                                                     01418 E000000000000 0000000000000.25     00050 02200                  
02234500322830017DT67590675900000002881800888800000010180088824001193073900017000154031420230000000098407323000000000105698410801XXXXXX8742       VK04VS111111111   NYV1 A E463073740487801N8400000000009847PXF00    05DNHAPPY HIPPIE             063409    VD84000000000984 N  549976487158                            000000000+                F DF 00451                     000000000  N000000000 214   0000000000000.00 0000000.00   0000000.00                             000000000000000                                                                                                                                                     01418 F000000000000 0000000000000.19     01550 00400                  
02234510322830018DT67590675900000002881800888800000010180088824001193073900017000162031420230000000468907323000000000105698429136XXXXXX3697               1001111   NYV1 A K383073755279033N840000000004689WGVC00    01DNHAPPY HIPPIE             165848    VD84000000004689 N  549976487158                            000000000+                F DF 00412                     000000000  N000000000       0000000000000.00 0000000.00   0000000.00                             000000000000000                                                                                                                                                     01418 E000000000000 0000000000000.92     01650 01500                  
02234520322830019DT67590675900000002881800888800000010180088824001193073900017000170031420230000000936907323000000000105698411600XXXXXX3425       VS11    0001111   NYV1 A E583073759167700N840000000009369JZWW00    05DNHAPPY HIPPIE             140516    VD84000000009369 N  549976487158                            000000000+                F PF 08170                     000000000  N000000000       0000000000000.00 0000000.00   0000000.00                             000000000000000                                                                                                                                                     01418 A000000000000 0000000000001.23     01150 01500                  
02234530322830020DT67590675900000002881800888800000010180088824001193073900017000188031420230000000790107323000000000105698454507XXXXXX4259       VS11    0001111   NYV1 A E303073775208699N8400000000079019SJV00    90DNHAPPY HIPPIE             014302    VD84000000007901 N  549976487158                            000000000+                F DF 10433                     000000000  Y000000000 338   0000000000000.00 0000000.00   0000000.00                             000000000000000                                                                                                                                                     01418 A000000000000 0000000000000.26     00050 02200                  
02234540322830021BH6759067590000000288180088880000090170314202307323000000000112369    0000090001680021N8008886759C03152023                                                                                                                                                                                                                                                                                                                                                                                                                                                                                                                                                                                                 
02234550322830022DT67590675900000002881800888800000010180088824001193073900016800018031420230000000246807323000000000112369449507XXXXXX3418       VS11    0001111   NYV1 A E303073556248746N8400000000024683S9700    05DNHAPPY HIPPIE             012704    VD84000000002468 N  549976487134                            000000000+                F DF 00381                     000000000  N000000000       0000000000000.00 0000000.00   0000000.00                             000000000000000                                                                                                                                                     01418 A000000000000 0000000000000.35     00800 01500                  
02234560322830023DT67590675900000002881800888800000010180088824001193073900016800026031420230000001097407323000000000112369440393XXXXXX1770       VS11    0001111   NYV1 A E583073563896058N840000000010974BJB500    05DNHAPPY HIPPIE             976806    VD84000000010974 N  549976487134                            000000000+                F PF 08170                     000000000  N000000000       0000000000000.00 0000000.00   0000000.00                             000000000000000                                                                                                                                                     01418 A000000000000 0000000000001.41     01150 01500                  
02234570322830024DT67590675900000002881800888800000010180088877287283073900016800036031420230000000219407323000000000112369531259XXXXXX4521       MS02WI09          NY 1 0 AMDJWB2YNU0314  N840000000002194          05DNHAPPY HIPPIE             175766    MD84000000002194 N  549976487134                            000000000+M10101C5434C    MDJ  10815                     000000000  1                0000000000000.00 0000000.00   0000000.00                             000000000000000                                                                                                                                                   B101418  000000000000 0000000000000.23     00050 02200                  
02234580322830025DT67590675900000002881800888800000010180088824001193073900016800042031420230000000325807323000000000112369419090XXXXXX3871       VS11    0001111   NYV1 A E463073583661593N840000000003258FKQK00    05DNHAPPY HIPPIE             379202    VD84000000003258 N  549976487134                            000000000+                F DF 00381                     000000000  N000000000       0000000000000.00 0000000.00   0000000.00                             000000000000000                                                                                                                                                     01418 A000000000000 0000000000000.41     00800 01500                  
02234590322830026DT67590675900000002881800888800000010180088877287283073900016800051031420230000001580207323000000000112369520943XXXXXX1724       MS02WI09          NY 1 0 AMCWST53N30314  N840000000015802          05DNHAPPY HIPPIE             01696Z    MC84000000015802 N  549976487134                            000000000+M10101C5434C    MCW  00646                     000000000  N                0000000000000.00 0000000.00   0000000.00                             000000000000000                                                                                                                                                   B101418  000000000000 0000000000003.04     01900 00400                  
02234600322830027DT67590675900000002881800888800000010180088824001193073900016800067031420230000000227107323000000000112369480639XXXXXX9019       VS11    0001111   NYV1 A E463073607418198N840000000002271LTGT00    05DNHAPPY HIPPIE             835851    VD84000000002271 N  549976487134                            000000000+                F DF 00381                     000000000  N000000000       0000000000000.00 0000000.00   0000000.00                             000000000000000                                                                                                                                                     01418 A000000000000 0000000000000.33     00800 01500                  
02234610322830028DT67590675900000002881800888800000010180088877287283073900016800077031420230000000158007323000000000112369511953XXXXXX5656       MS02WI09          NY 1 0 AMDJX4SINU0314  N840000000001580          05DNHAPPY HIPPIE             086707    MD84000000001580 N  549976487134                            000000000+M10101C5434C    MDJ  00402                     000000000  N                0000000000000.00 0000000.00   0000000.00                             000000000000000                                                                                                                                                   B101418  000000000000 0000000000000.32     01050 01500                  
02234620322830029DT67590675900000002881800888800000010180088824001193073900016800083031420230000001422107323000000000112369480639XXXXXX5051       VS11    0001111   NYV1 A E463073619521541N8400000000142213FS600    05DNHAPPY HIPPIE             836436    VD84000000014221 N  549976487134                            000000000+                F DF 00381                     000000000  N000000000       0000000000000.00 0000000.00   0000000.00                             000000000000000                                                                                                                                                     01418 A000000000000 0000000000001.29     00800 01500                  
02234630322830030DT67590675900000002881800888800000010180088824001193073900016800091031420230000000394907323000000000112369474307XXXXXX0269       VS11    0001111   NYV1 A E383073682517319N840000000003949D79J00    05DNHAPPY HIPPIE             226782    VD84000000003949 N  549976487134                            000000000+                F DF 00381                     000000000  N000000000       0000000000000.00 0000000.00   0000000.00                             000000000000000                                                                                                                                                     01418 A000000000000 0000000000000.47     00800 01500                  
02234640322830031DT67590675900000002881800888800000010180088877287283073900016800101031420230000000158007323000000000112369511953XXXXXX4908       MS02WI09          NY 1 0 AMDJS68LP40314  N840000000001580          07DNHAPPY HIPPIE             064404    MD84000000001580 N  549976487134                            000000000+M10101M0034C    MDJ  00402                     000000000  N                0000000000000.00 0000000.00   0000000.00                             000000000000000                                                                                                                                                   B101418  000000000000 0000000000000.32     01050 01500                  
02234650322830032DT67590675900000002881800888800000010180088877287283073900016800119031420230000000263207323000000000112369540653XXXXXX9437       MS02WI09          NY 1 0 AMDJUE3AP40314  N840000000002632          05DNHAPPY HIPPIE             044736    MD84000000002632 N  549976487134                            000000000+M10101C5434C    MDJ  10715                     000000000  B                0000000000000.00 0000000.00   0000000.00                             000000000000000                                                                                                                                                   B101418  000000000000 0000000000000.22     00050 02100                  
02234660322830033DT67590675900000002881800888800000010180088824001193073900016800125031420230000000878007323000000000112369474166XXXXXX2375       VS11    0001111   NYV1 A E463073718857711N840000000008780GG9W00    05DNHAPPY HIPPIE             087573    VD84000000008780 N  549976487134                            000000000+                G DG 10351                     000000000  Y000000000 338   0000000000000.00 0000000.00   0000000.00                             000000000000000                                                                                                                                                     01418 A000000000000 0000000000000.26     00050 02200                  
02234670322830034DT67590675900000002881800888800000010180088877287283073900016800135031420230000000079007323000000000112369552433XXXXXX0187       MS02WI09          NY 1 0 AMCWBW7IEN0314  N840000000000790          05DNHAPPY HIPPIE             00171S    MC84000000000790 N  549976487134                            000000000+M10101C5434C    MCW  02188                     000000000  N                0000000000000.00 0000000.00   0000000.00                             000000000000000                                                                                                                                                   B101418  000000000000 0000000000000.22     02300 00400                  
02234680322830035DT67590675900000002881800888800000010180088877287283073900016800143031420230000000325807323000000000112369517805XXXXXX7174       MS02WI09          NY 1 0 AMPLYBOGEE0314  N840000000003258          07DNHAPPY HIPPIE             06623B    MC84000000003258 N  549976487134                            000000000+M10101M0034C    MPL  00364                     000000000  N                0000000000000.00 0000000.00   0000000.00                             000000000000000                                                                                                                                                   B101418  000000000000 0000000000000.63     01800 00400                  
02234690322830036DT67590675900000002881800888800000010180088824001193073900016800158031420230000000592307323000000000112369485671XXXXXX9963       VS11    0001111   NYV1 A E383073733589856N8400000000059236CR900    05DNHAPPY HIPPIE             23845D    VS84000000005923 N  549976487134                            000000000+                D CD 12113                     000000000  N000000000 499   0000000000000.00 0000000.00   0000000.00                             000000000000000                                                                                                                                                     01418 A000000000000 0000000000001.34     02100 01000                  
02234700322830037DT67590675900000002881800888800000010180088877287283073900016800168031420230000000439007323000000000112369544927XXXXXX7907       MS02WI09          NY 1 0 AMDJOFNAP40314  N840000000004390          07DNHAPPY HIPPIE             H57116    MD84000000004390 N  549976487134                            000000000+M10101M0034C    MDJ  10815                     000000000  1                0000000000000.00 0000000.00   0000000.00                             000000000000000                                                                                                                                                   B101418  000000000000 0000000000000.24     00050 02200                  
02234710322830038DT67590675900000002881800888800000010180088877287283073900016800176031420230000000690307323000000000112369544927XXXXXX9805       MS02WI09          NY 2 0 AMDJCIEAEN0314  N840000000006903          07DNHAPPY HIPPIE             H60017    MD84000000006903 N  549976487134                            000000000+M10101M1334C    MDJ  10815                     000000000  1                0000000000000.00 0000000.00   0000000.00                             000000000000000                                                                                                                                                   B101418  000000000000 0000000000000.25     00050 02200                  
02234720322830039DT67590675900000002881800888800000010180088873011003073900016800188031420230000000296207323000000000112369370034XXXXX1239                          NY 1 0 N004710966768301N840000000002962          05DNHAPPY HIPPIE             852014    AM84000000002962 N  549976487134                            000000000+51010155434C 258     11261                     000000000                   0000000000000.00 0000000.00   0000000.00                             000000000000000 61248972086759675900000002881 HAPPY HIPPIE             832 PARKWAY              8656540830      37862     HAPPYHIPPIE832@GMAIL.COM                  01418  000000000000 0000000000000.57     01600 00000                  
02234730322830040DT67590675900000002881800888800000010180088877287283073900016800192031420230000000572707323000000000112369517805XXXXXX7988       MS02WI09          NY 1 0 AMPLAKYWRX0314  N840000000005727          05DNHAPPY HIPPIE             09768B    MC84000000005727 N  549976487134                            000000000+M10101C5434C    MPL  00364                     000000000  N                0000000000000.00 0000000.00   0000000.00                             000000000000000                                                                                                                                                   B101418  000000000000 0000000000001.07     01800 00400                  
02234740322830041DT67590675900000002881800888800000010180088877287283073900016800200031420230000001083107323000000000112369555426XXXXXX0693       MS02WI09          NY 1 0 AMPGWP7GP40314  N840000000010831          90DNHAPPY HIPPIE             061822    MD84000000010831 N  549976487134                            000000000+M10101B5434C    MPG  11964                     000000000  N                0000000000000.00 0000000.00   0000000.00                             000000000000000                                                                                                                                                   C101418  000000000000 0000000000001.40     01150 01500                  
02234750322830042DT67590675900000002881800888800000010180088877287283073900016800218031420230000000187607323000000000112369518941XXXXXX4253       MS02WI09          NY 1 0 AMWEDRFVEN0314  N840000000001876          05DNHAPPY HIPPIE             54857Z    MC84000000001876 N  549976487134                            000000000+M10101C5434C    MWE  00743                     000000000  N                0000000000000.00 0000000.00   0000000.00                             000000000000000                                                                                                                                                   B101418  000000000000 0000000000000.47     02300 00400                  
02234760322830043BH6759067590000000215480088880000090170314202307323000000000238498    0000090001322984N8008886759C03152023                                                                                                                                                                                                                                                                                                                                                                                                                                                                                                                                                                                                 
02234770322830044DT67590675900000002154800888800000010180088887287283073900013239344031420230000006514807323000000000238498529712XXXXXX0633                         NY 4607AMDBXQ7ECH0314  N840000000065148          81DNDRIP DROP DISTRO LLC     431420    MD84000000065148 NP1519900000001   17544                    000000000+600450S00140    MDB  00062                     000000000  N                0000000000000.00 0000000.00   0000000.00                             000000000000000                                                                                                                                                   U001418  000000000000 0000000000017.36     02650 01000                  
02234780322830001P1675906759000000021548008888000000101                                                          000000000000          8000            471534935                                                                                                                                                                                                                                                                                                                                                                                                                                                                                                                                                            
02234790322830045DT67590675900000002154800888800000010180088824001193073900013259648031420230000001205107323000000000238498464888XXXXXX0250               2111111   NYV4 A7W303073625631977N840000000012051PJ9Z00    01DNDRIP DROP DISTRO LLC     172922    VD84000000012051 NP1519971004114   17546                    000000000+                G DG 10352                     000000000  Y000000000 338   0000000000000.00 0000000.00   0000000.00                             000000000000000                                                                                                                                                     01418 G000000012051 0000000000000.28     00050 02200                  
02234800322830001P16759067590000000215480088880000001010000000000000000    43996603393              2000000000000000000000000              000000000000                    0000000000000000000000000                    000000000000                                                                                                                                                                                                                                                                                                                                                                                                                                                                                        
02234810322830046DT67590675900000002154800888800000010180088824001193073900013234450031420230000002049707323000000000238498429475XXXXXX5131               2111111   NYV4 A7W583073583059319N840000000020497P6P300    01DNDRIP DROP DISTRO LLC     152109    VD84000000020497 NP1519971004114   17545                    000000000+                G DG 10352                     000000000  Y000000000 338   0000000000000.00 0000000.00   0000000.00                             000000000000000                                                                                                                                                     01418 G000000020497 0000000000000.32     00050 02200                  
02234820322830001P16759067590000000215480088880000001010000000000000000    43996436616              2000000000000000000000000              000000000000                    0000000000000000000000000                    000000000000                                                                                                                                                                                                                                                                                                                                                                                                                                                                                        
02234830322830047DT67590675900000002154800888800000010180088824001193073900013229849031420230000014080207323000000000238498415417XXXXXX6993               2111111   NYV4 A7W303073768213819N840000000140802W2R500    01DNDRIP DROP DISTRO LLC     00658G    VB84000000140802 NP1519971004114   INV-001171               000000000+                G5CG511887                     000000000  N000000000 163   0000000000000.00 0000000.00   0000000.00                             000000000000000                                                                                                                                                     01418 G000000140802 0000000000042.34     03000 01000                  
02234840322830001P16759067590000000215480088880000001010000000000000000    43997132696              2000000000000000000000000              000000000000                    0000000000000000000000000                    000000000000                                                                                                                                                                                                                                                                                                                                                                                                                                                                                        
02234850322830048BH6759067590000000589280010180000090170314202307323000000000022699    0000090001142883N8001016759C03152023                                                                                                                                                                                                                                                                                                                                                                                                                                                                                                                                                                                                 
02234860322830049DT67590675900000005892800101800000010180010124001193073900011433138031420230000000280607323000000000022699473703XXXXXX9540               2111111   NYV4 A7W383073660705453N840000000002806GHRV00    01DNPLANET VAPOR INC         027268    VD84000000002806 NP1599971004114   14513315                 000000000+                F DF 10420                     000000000  Y000000000 338   0000000000000.00 0000000.00   0000000.00                             000000000000000                                                                                                                                                     01418 G000000002806 0000000000000.23     00050 02200                  
02234870322830001P16759067590000000589280010180000001010000000000000000                             2000000000000000000000000              000000000000                    0000000000000000000000000                    000000000000                                                                                                                                                                                                                                                                                                                                                                                                                                                                                        
02234880322830050DT67590675900000005892800101800000010180010124001193073900011478182031420230000000512807323000000000022699433477XXXXXX9992       PS01    0000000   NYV4 J7N583073652025214N8400000000051284BQW00    01DNPLANET VAPOR INC         622438    VD84000000005128 N  599971004114                            000000000+                F DF 10425                     000000000  Y000000010 338   0000000000000.00 0000000.00   0000000.00                             000000000000000                                                                                                                                                     01418  000000000000 0000000000000.25     00050 02200                  
02234890322830051DT67590675900000005892800101800000010180010124001193073900011400293031420230000000641807323000000000022699461675XXXXXX3492               2111111   NYV4 A7W303073049729089N840000000006418GMFB00    01DNPLANET VAPOR INC         259630    VD84000000006418 NP1599971004114   14509382                 000000000+                F DF 00415                     000000000  N000000000       0000000000000.00 0000000.00   0000000.00                             000000000000000                                                                                                                                                     01418 G000000006418 0000000000001.21     01650 01500                  
02234900322830001P16759067590000000589280010180000001010000000000000000                             2000000000000000000000000              000000000000                    0000000000000000000000000                    000000000000                                                                                                                                                                                                                                                                                                                                                                                                                                                                                        
02234910322830052DT67590675900000005892800101800000010180010187287283073900011410392031420230000000359807323000000000022699536088XXXXXX3678                         NY 4607AMCWR0RPXG0313  N840000000003598          81DNPLANET VAPOR INC         08598E    MC84000000003598FN  599900000001   14509837                 000000000+600450S00140    MCW  12227                     0000000221 N                0000000000000.00 0000000.00   0000000.00                             000000000000000                                                                                                                                                     01418  000000000000 0000000000000.67     01850 00000                  
02234920322830053DT67590675900000005892800101800000010180010187287283073900011428832031420230000000474907323000000000022699527854XXXXXX6556       ME03KE06MS02      NY 4607AMWE0GIL5H0314  N840000000004749          81DNPLANET VAPOR INC         00410W    MC84000000004749 N  599900000001   14510545                 000000000+600450S00140    MWE  00642                     000000000  N                0000000000000.00 0000000.00   0000000.00                             000000000000000                                                                                                                                                   U001418  000000000000 0000000000001.14     02200 01000                  
02234930322830054BH6759067590000001129680010180000090170314202307323000000000021813    0000090001390009N8001016759C03152023                                                                                                                                                                                                                                                                                                                                                                                                                                                                                                                                                                                                 
02234940322830055DT67590675900000011296800101800000010180010177287283073900013900011031420230000000377807323000000000021813519836XXXXXX3739       MS02WI09          NY 1 0 AMDJW6SFB70314  N840000000003778          05DNPLANET VAPOR #1000       402066    MD84000000003778 N  599976923732                            000000000+M10101C5434C    MDJ  00402                     000000000  N                0000000000000.00 0000000.00   0000000.00                             000000000000000                                                                                                                                                   B101418  000000000000 0000000000000.55     01050 01500                  
02234950322830056DT67590675900000011296800101800000010180010124001193073900013900027031420230000000215907323000000000021813448232XXXXXX8317       VS11    0001111   NYV1 A E303073606220590N8400000000021596N9V00    05DNPLANET VAPOR #1000       025016    VD84000000002159 N  599976923732                            000000000+                F DF 00381                     000000000  N000000000       0000000000000.00 0000000.00   0000000.00                             000000000000000                                                                                                                                                     01418 A000000000000 0000000000000.32     00800 01500                  
02234960322830057DT67590675900000011296800101800000010180010124001193073900013900035031420230000000367007323000000000021813448261XXXXXX1241       VS11    0001111   NYV1 A E463073624260084N840000000003670KCQJ00    07DNPLANET VAPOR #1000       500871    VD84000000003670 N  599976923732                            000000000+                F DF 10433                     000000000  Y000000000 338   0000000000000.00 0000000.00   0000000.00                             000000000000000                                                                                                                                                     01418 A000000000000 0000000000000.24     00050 02200                  
02234970322830058DT67590675900000011296800101800000010180010124001193073900013900043031420230000000237507323000000000021813494359XXXXXX5883       VS11    0001111   NYV1 A E303073635653080N840000000002375MX7J00    05DNPLANET VAPOR #1000       081152    VD84000000002375 N  599976923732                            000000000+                F DF 00381                     000000000  N000000000       0000000000000.00 0000000.00   0000000.00                             000000000000000                                                                                                                                                     01418 A000000000000 0000000000000.34     00800 01500                  
02234980322830059DT67590675900000011296800101800000010180010177287283073900013900052031420230000000269907323000000000021813517800XXXXXX5931       MS02WI09          NY 1 0 AMCSRB1HP40314  N840000000002699          07DNPLANET VAPOR #1000       014029    MC84000000002699 N  599976923732                            000000000+M10101M0034C    MCS  00015                     000000000  N                0000000000000.00 0000000.00   0000000.00                             000000000000000                                                                                                                                                   B101418  000000000000 0000000000000.55     01650 01000                  
02234990322830060DT67590675900000011296800101800000010180010177287283073900013900060031420230000000485907323000000000021813531258XXXXXX4979       MS02WI09          NY 1 0 AMDJTM12P40314  N840000000004859          07DNPLANET VAPOR #1000       171360    MD84000000004859 N  599976923732                            000000000+M10101M0034C    MDJ  10815                     000000000  1                0000000000000.00 0000000.00   0000000.00                             000000000000000                                                                                                                                                   B101418  000000000000 0000000000000.24     00050 02200                  
02235000322830061DT67590675900000011296800101800000010180010173011003073900013900072031420230000000087207323000000000021813371306XXXXX1013                          NY 1 0 N004709740037306N840000000000872          05DNPLANET VAPOR INC #900    824799    AM84000000000872 N  599976923732                            000000000+51010155434C 258     11261                     000000000                   0000000000000.00 0000000.00   0000000.00                             000000000000000 61248972086759675900000011296 PLANET VAPOR INC #900    222 EDGEFIELD RD         8035462263      29841     KEVIN@MOOREDISTRO.COM                     01418  000000000000 0000000000000.24     01600 00000                  
02235010322830062DT67590675900000011296800101800000010180010124001193073900013900084031420230000000064607323000000000021813493253XXXXXX6190       VK04VS111111111   NYV1 A E583073798601800N840000000000646QT3J00    07DNPLANET VAPOR #1000       075727    VD84000000000646 N  599976923732                            000000000+                F DF 10439                     000000000  Y000000000 331   0000000000000.00 0000000.00   0000000.00                             000000000000000                                                                                                                                                     01418 F000000000000 0000000000000.22     00050 02200                  
02235020322830063DT67590675900000011296800101800000010180010124001193073900013900092031420230000000075507323000000000021813453506XXXXXX3167       VK04VS111111111   NYV1 A E383073822249272N840000000000755DK8600    05DNPLANET VAPOR #1000       H75834    VD84000000000755 N  599976923732                            000000000+                F DF 10439                     000000000  Y000000000 331   0000000000000.00 0000000.00   0000000.00                             000000000000000                                                                                                                                                     01418 F000000000000 0000000000000.22     00050 02200                  
02235030322830064BH6759067590000000708880010180000090170314202307323000000000111634    0000090001340027N8001016759C03152023                                                                                                                                                                                                                                                                                                                                                                                                                                                                                                                                                                                                 
02235040322830065DT67590675900000007088800101800000010180010124001193073900013400010031420230000000408007323000000000111634400022XXXXXX0816       VS11    0001111   NYV1 A E303073562690843N840000000004080HBMZ00    05DNPLANET VAPOR #200        165496    VD84000000004080 N  599976770268                            000000000+                F DF 10433                     000000000  Y000000000 338   0000000000000.00 0000000.00   0000000.00                             000000000000000                                                                                                                                                     01418 A000000000000 0000000000000.24     00050 02200                  
02235050322830066DT67590675900000007088800101800000010180010124001193073900013400028031420230000000213707323000000000111634400022XXXXXX0534       VS11    0001111   NYV1 A E463073594561767N840000000002137HWNZ00    05DNPLANET VAPOR #200        700349    VD84000000002137 N  599976770268                            000000000+                F DF 10433                     000000000  Y000000000 338   0000000000000.00 0000000.00   0000000.00                             000000000000000                                                                                                                                                     01418 A000000000000 0000000000000.23     00050 02200                  
02235060322830067DT67590675900000007088800101800000010180010176509753073900013400034031420230000000215807323000000000111634601100XXXXXX5342   BA50                  NY41 0 N803062674649684N840000000002158    00    05DNPLANET VAPOR #200        01425R    DS84000000002158 N  599976770268050                         000000000+0000004910H00   DCCDI01000502894  125744000000 000000000  0          112   0000000000000.00 0000000.00   0000000.00                             000000000000000                                                                                                                                                     01418  000000000000 0000000000000.47     01720 01000                  
02235070322830068DT67590675900000007088800101800000010180010176509753073900013400042031420230000000269907323000000000111634601100XXXXXX5342   BA50                  NY41 0 N873062676498387N840000000002699    00    05DNPLANET VAPOR #200        01442R    DS84000000002699 N  599976770268050                         000000000+0000004910H00   DCCDI01000332738  130049000000 000000000  0          112   0000000000000.00 0000000.00   0000000.00                             000000000000000                                                                                                                                                     01418  000000000000 0000000000000.56     01720 01000                  
02235080322830069DT67590675900000007088800101800000010180010177287283073900013400053031420230000000280707323000000000111634531258XXXXXX5660       MS02WI09          NY 1 0 AMDJX8WSNU0314  N840000000002807          05DNPLANET VAPOR #200        170291    MD84000000002807 N  599976770268                            000000000+M10101C5434C    MDJ  10815                     000000000  1                0000000000000.00 0000000.00   0000000.00                             000000000000000                                                                                                                                                   B101418  000000000000 0000000000000.23     00050 02200                  
02235090322830070DT67590675900000007088800101800000010180010124001193073900013400069031420230000000215907323000000000111634463405XXXXXX8485       VS11    0001111   NYV1 A E463073636181226N840000000002159N9CB00    05DNPLANET VAPOR #200        007181    VD84000000002159 N  599976770268                            000000000+                F DF 10433                     000000000  Y000000000 338   0000000000000.00 0000000.00   0000000.00                             000000000000000                                                                                                                                                     01418 A000000000000 0000000000000.23     00050 02200                  
02235100322830071DT67590675900000007088800101800000010180010124001193073900013400077031420230000001435507323000000000111634423223XXXXXX0317       VS11    0001111   NYV1 A E383073642535564N8400000000143555MW400    05DNPLANET VAPOR #200        031153    VD84000000014355 N  599976770268                            000000000+                F DF 00381                     000000000  N000000000       0000000000000.00 0000000.00   0000000.00                             000000000000000                                                                                                                                                     01418 A000000000000 0000000000001.30     00800 01500                  
02235110322830072DT67590675900000007088800101800000010180010177287283073900013400087031420230000000269907323000000000111634514230XXXXXX2701       MS02WI09          NY 1 0 AMDJUVTCEE0314  N840000000002699          05DNPLANET VAPOR #200        89838D    MD84000000002699 N  599976770268                            000000000+M10101C5434C    MDJ  00402                     000000000  N                0000000000000.00 0000000.00   0000000.00                             000000000000000                                                                                                                                                   B101418  000000000000 0000000000000.43     01050 01500                  
02235120322830073DT67590675900000007088800101800000010180010124001193073900013400093031420230000001535407323000000000111634415978XXXXXX2133       VS11    0001111   NYV1 A E583073655093874N840000000015354D2KV00    05DNPLANET VAPOR #200        021248    VD84000000015354 N  599976770268                            000000000+                F DF 10433                     000000000  Y000000000 338   0000000000000.00 0000000.00   0000000.00                             000000000000000                                                                                                                                                     01418 A000000000000 0000000000000.30     00050 02200                  
02235130322830074DT67590675900000007088800101800000010180010124001193073900013400101031420230000000388607323000000000111634423223XXXXXX5306       VS11    0001111   NYV1 A E583073662126211N840000000003886PJVG00    05DNPLANET VAPOR #200        083831    VD84000000003886 N  599976770268                            000000000+                F DF 00381                     000000000  N000000000       0000000000000.00 0000000.00   0000000.00                             000000000000000                                                                                                                                                     01418 A000000000000 0000000000000.46     00800 01500                  
02235140322830075DT67590675900000007088800101800000010180010124001193073900013400119031420230000000223507323000000000111634400022XXXXXX9316       VS11    0001111   NYV1 A E383073665565999N8400000000022354HV800    05DNPLANET VAPOR #200        509760    VD84000000002235 N  599976770268                            000000000+                F DF 10433                     000000000  Y000000000 338   0000000000000.00 0000000.00   0000000.00                             000000000000000                                                                                                                                                     01418 A000000000000 0000000000000.23     00050 02200                  
02235150322830076DT67590675900000007088800101800000010180010124001193073900013400127031420230000000271907323000000000111634474474XXXXXX3971       VS11    0001111   NYV1 A E303073672066003N840000000002719NRFQ00    05DNPLANET VAPOR #200        174304    VD84000000002719 N  599976770268                            000000000+                F DF 10433                     000000000  Y000000000 338   0000000000000.00 0000000.00   0000000.00                             000000000000000                                                                                                                                                     01418 A000000000000 0000000000000.23     00050 02200                  
02235160322830077DT67590675900000007088800101800000010180010124001193073900013400135031420230000000213707323000000000111634474166XXXXXX1474       VS11    0001111   NYV1 A E383073673094104N840000000002137KH7500    05DNPLANET VAPOR #200        029813    VD84000000002137 N  599976770268                            000000000+                G DG 10351                     000000000  Y000000000 338   0000000000000.00 0000000.00   0000000.00                             000000000000000                                                                                                                                                     01418 A000000000000 0000000000000.23     00050 02200                  
02235170322830078DT67590675900000007088800101800000010180010124001193073900013400143031420230000000485907323000000000111634474474XXXXXX3971       VS11    0001111   NYV1 A E303073674536908N840000000004859HVX700    05DNPLANET VAPOR #200        174943    VD84000000004859 N  599976770268                            000000000+                F DF 10433                     000000000  Y000000000 338   0000000000000.00 0000000.00   0000000.00                             000000000000000                                                                                                                                                     01418 A000000000000 0000000000000.24     00050 02200                  
02235180322830079DT67590675900000007088800101800000010180010124001193073900013400150031420230000001187607323000000000111634448261XXXXXX5227       VS11    0001111   NYV1 A E303073683961216N840000000011876M9XT00    05DNPLANET VAPOR #200        332747    VD84000000011876 N  599976770268                            000000000+                F DF 10433                     000000000  Y000000000 338   0000000000000.00 0000000.00   0000000.00                             000000000000000                                                                                                                                                     01418 A000000000000 0000000000000.28     00050 02200                  
02235190322830080DT67590675900000007088800101800000010180010124001193073900013400168031420230000000266807323000000000111634448261XXXXXX1991       VS11    0001111   NYV1 A E303073696428864N840000000002668L9SP00    05DNPLANET VAPOR #200        834737    VD84000000002668 N  599976770268                            000000000+                F DF 10433                     000000000  Y000000000 338   0000000000000.00 0000000.00   0000000.00                             000000000000000                                                                                                                                                     01418 A000000000000 0000000000000.23     00050 02200                  
02235200322830081DT67590675900000007088800101800000010180010124001193073900013400176031420230000000215907323000000000111634430602XXXXXX0180       VS11    0001111   NYV1 A E383073730147020N840000000002159CLWJ00    05DNPLANET VAPOR #200        103549    VD84000000002159 N  599976770268                            000000000+                F DF 00381                     000000000  N000000000       0000000000000.00 0000000.00   0000000.00                             000000000000000                                                                                                                                                     01418 A000000000000 0000000000000.32     00800 01500                  
02235210322830082DT67590675900000007088800101800000010180010124001193073900013400184031420230000000323807323000000000111634438419XXXXXX7278       VS11    0001111   NYV1 A E463073738394289N840000000003238ZJGH00    05DNPLANET VAPOR #200        063039    VD84000000003238 N  599976770268                            000000000+                F DF 00381                     000000000  N000000000       0000000000000.00 0000000.00   0000000.00                             000000000000000                                                                                                                                                     01418 A000000000000 0000000000000.41     00800 01500                  
02235220322830083DT67590675900000007088800101800000010180010124001193073900013400192031420230000000252607323000000000111634414709XXXXXX5473       VS11    0001111   NYV1 A E303073740137939N84000000000252649DQ00    05DNPLANET VAPOR #200        00017D    VS84000000002526 N  599976770268                            000000000+                D CD 12113                     000000000  N000000000 499   0000000000000.00 0000000.00   0000000.00                             000000000000000                                                                                                                                                     01418 A000000000000 0000000000000.63     02100 01000                  
02235230322830084DT67590675900000007088800101800000010180010177287283073900013400202031420230000000378607323000000000111634552486XXXXXX3122       MS02WI09          NY 1 0 AMWECYOMEN0314  N840000000003786          05DNPLANET VAPOR #200        04605Z    MC84000000003786 N  599976770268                            000000000+M10101C5434C    MWE  00739                     000000000  N                0000000000000.00 0000000.00   0000000.00                             000000000000000                                                                                                                                                   B101418  000000000000 0000000000000.97     02300 01000                  
02235240322830085DT67590675900000007088800101800000010180010124001193073900013400218031420230000000280607323000000000111634416898XXXXXX2942       VS11    0001111   NYV1 A E463073779014123N8400000000028068ZQJ00    05DNPLANET VAPOR #200        014563    VS84000000002806 N  599976770268                            000000000+                A CA 12110                     000000000  N000000000 493   0000000000000.00 0000000.00   0000000.00                             000000000000000                                                                                                                                                     01418 A000000000000 0000000000000.52     01510 01000                  
02235250322830086DT67590675900000007088800101800000010180010124001193073900013400226031420230000000184607323000000000111634473703XXXXXX5913       VS11    0001111   NYV1 A E583073781562911N8400000000018462TL600    05DNPLANET VAPOR #200        063546    VD84000000001846 N  599976770268                            000000000+                F DF 10433                     000000000  Y000000000 338   0000000000000.00 0000000.00   0000000.00                             000000000000000                                                                                                                                                     01418 A000000000000 0000000000000.23     00050 02200                  
02235260322830087DT67590675900000007088800101800000010180010124001193073900013400234031420230000000437207323000000000111634466189XXXXXX6593       VS11    0001111   NYV1 A E383073782442243N840000000004372Q4HL00    05DNPLANET VAPOR #200        046811    VD84000000004372 N  599976770268                            000000000+                F DF 10433                     000000000  Y000000000 338   0000000000000.00 0000000.00   0000000.00                             000000000000000                                                                                                                                                     01418 A000000000000 0000000000000.24     00050 02200                  
02235270322830088DT67590675900000007088800101800000010180010177287283073900013400244031420230000000539907323000000000111634559758XXXXXX2629       MS02WI09          NY 1 0 AMPVXN3EGD0314  N840000000005399          05DNPLANET VAPOR #200        NE0OUV    MD84000000005399 N  599976770268                            000000000+M10101C5434C    MPV  11964                     000000000  N                0000000000000.00 0000000.00   0000000.00                             000000000000000                                                                                                                                                   B101418  000000000000 0000000000000.77     01150 01500                  
02235280322830089DT67590675900000007088800101800000010180010124001193073900013400259031420230000000215007323000000000111634473703XXXXXX4205       VS11    0001111   NYV1 A E583073789779005N840000000002150DTKF00    05DNPLANET VAPOR #200        014688    VD84000000002150 N  599976770268                            000000000+                F DF 10433                     000000000  Y000000000 338   0000000000000.00 0000000.00   0000000.00                             000000000000000                                                                                                                                                     01418 A000000000000 0000000000000.23     00050 02200                  
02235290322830090DT67590675900000007088800101800000010180010177287283073900013400269031420230000000238707323000000000111634533272XXXXXX3369       MS02WI09          NY 1 0 AMDHEFLNGP0314  N840000000002387          07DNPLANET VAPOR #200        058002    MD84000000002387 N  599976770268                            000000000+M10101M0034C    MDH  00402                     000000000  N                0000000000000.00 0000000.00   0000000.00                             000000000000000                                                                                                                                                   A101418  000000000000 0000000000000.40     01050 01500                  
02235300322830091DT67590675900000007088800101800000010180010124001193073900013400275031420230000000213707323000000000111634455225XXXXXX2997       VS11    0001111   NYV1 A E463073840369343N840000000002137QQ8P00    05DNPLANET VAPOR #200        H84239    VD84000000002137 N  599976770268                            000000000+                F DF 10433                     000000000  Y000000000 338   0000000000000.00 0000000.00   0000000.00                             000000000000000                                                                                                                                                     01418 A000000000000 0000000000000.23     00050 02200                  
02235310322830092BH6759067590000000833480010180000090170314202307323000000000152343    0000090001340043N8001016759C03152023                                                                                                                                                                                                                                                                                                                                                                                                                                                                                                                                                                                                 
02235320322830093DT67590675900000008334800101800000010180010124001193073900013400010031420230000000235307323000000000152343465998XXXXXX1203       VS11    0001111   NYV1 A E463073506256594N8400000000023533NCB00    05DNPLANET VAPOR #400        014975    VS84000000002353 N  599976779447                            000000000+                B CB 12111                     000000000  N000000000 495   0000000000000.00 0000000.00   0000000.00                             000000000000000                                                                                                                                                     01418 A000000000000 0000000000000.49     01650 01000                  
02235330322830094DT67590675900000008334800101800000010180010124001193073900013400028031420230000000384907323000000000152343438419XXXXXX6374       VS11    0001111   NYV1 A E303073508348216N840000000003849428900    05DNPLANET VAPOR #400        000714    VD84000000003849 N  599976779447                            000000000+                F DF 00381                     000000000  N000000000       0000000000000.00 0000000.00   0000000.00                             000000000000000                                                                                                                                                     01418 A000000000000 0000000000000.46     00800 01500                  
02235340322830095DT67590675900000008334800101800000010180010124001193073900013400036031420230000000320807323000000000152343445115XXXXXX2142       VS11    0001111   NYV1 A E583073524778127N840000000003208D84X00    05DNPLANET VAPOR #400        667267    VD84000000003208 N  599976779447                            000000000+                F DF 10433                     000000000  Y000000000 338   0000000000000.00 0000000.00   0000000.00                             000000000000000                                                                                                                                                     01418 A000000000000 0000000000000.24     00050 02200                  
02235350322830096DT67590675900000008334800101800000010180010124001193073900013400044031420230000000242207323000000000152343406095XXXXXX6092       VS11    0001111   NYV1 A E583073528600606N840000000002422K83N00    05DNPLANET VAPOR #400        03023D    VS84000000002422 N  599976779447                            000000000+                D CD 12113                     000000000  N000000000 499   0000000000000.00 0000000.00   0000000.00                             000000000000000                                                                                                                                                     01418 A000000000000 0000000000000.61     02100 01000                  
02235360322830097DT67590675900000008334800101800000010180010177287283073900013400053031420230000000641807323000000000152343515549XXXXXX5724       MS02WI09          NY 1 0 AMPVQYEMN30314  N840000000006418          05DNPLANET VAPOR #400        NA8QUL    MD84000000006418 N  599976779447                            000000000+M10101C5434C    MPV  11964                     000000000  N                0000000000000.00 0000000.00   0000000.00                             000000000000000                                                                                                                                                   B101418  000000000000 0000000000000.89     01150 01500                  
02235370322830098DT67590675900000008334800101800000010180010124001193073900013400069031420230000000427807323000000000152343430602XXXXXX6024       VS11    0001111   NYV1 A E383073552100822N840000000004278RRFH00    07DNPLANET VAPOR #400        056685    VD84000000004278 N  599976779447                            000000000+                F DF 00381                     000000000  N000000000       0000000000000.00 0000000.00   0000000.00                             000000000000000                                                                                                                                                     01418 A000000000000 0000000000000.49     00800 01500                  
02235380322830099DT67590675900000008334800101800000010180010124001193073900013400077031420230000000374307323000000000152343433477XXXXXX2574       VS11    0001111   NYV1 A E463073572068990N840000000003743L8XF00    05DNPLANET VAPOR #400        491166    VD84000000003743 N  599976779447                            000000000+                F DF 10433                     000000000  Y000000000 338   0000000000000.00 0000000.00   0000000.00                             000000000000000                                                                                                                                                     01418 A000000000000 0000000000000.24     00050 02200                  
02235390322830100DT67590675900000008334800101800000010180010124001193073900013400085031420230000000135307323000000000152343448968XXXXXX8137       VK04VS111111111   NYV1 A E463073577584957N840000000001353LDX700    07DNPLANET VAPOR #400        062705    VD84000000001353 N  599976779447                            000000000+                F DF 00451                     000000000  N000000000 214   0000000000000.00 0000000.00   0000000.00                             000000000000000                                                                                                                                                     01418 F000000000000 0000000000000.25     01550 00400                  
02235400322830101DT67590675900000008334800101800000010180010177287283073900013400095031420230000000267307323000000000152343531258XXXXXX1859       MS02WI09          NY 1 0 AMDJUZEPB70314  N840000000002673          07DNPLANET VAPOR #400        172415    MD84000000002673 N  599976779447                            000000000+M10101M0034C    MDJ  10815                     000000000  1                0000000000000.00 0000000.00   0000000.00                             000000000000000                                                                                                                                                   B101418  000000000000 0000000000000.23     00050 02200                  
02235410322830102DT67590675900000008334800101800000010180010124001193073900013400101031420230000000117507323000000000152343473703XXXXXX4971       VK04VS111111111   NYV1 A E583073595864450N840000000001175RKJW00    07DNPLANET VAPOR #400        043619    VD84000000001175 N  599976779447                            000000000+                F DF 10439                     000000000  Y000000000 331   0000000000000.00 0000000.00   0000000.00                             000000000000000                                                                                                                                                     01418 F000000000000 0000000000000.23     00050 02200                  
02235420322830103DT67590675900000008334800101800000010180010124001193073900013400119031420230000000267407323000000000152343461675XXXXXX8006       VS11    0001111   NYV1 A E303073639296290N84000000000267434SD00    05DNPLANET VAPOR #400        523900    VD84000000002674 N  599976779447                            000000000+                F DF 00381                     000000000  N000000000       0000000000000.00 0000000.00   0000000.00                             000000000000000                                                                                                                                                     01418 A000000000000 0000000000000.36     00800 01500                  
02235430322830104DT67590675900000008334800101800000010180010124001193073900013400127031420230000000235307323000000000152343435274XXXXXX6660       VS11    0001111   NYV1 A E463073641730807N840000000002353T96H00    07DNPLANET VAPOR #400        174398    VD84000000002353 N  599976779447                            000000000+                F DF 10433                     000000000  Y000000000 338   0000000000000.00 0000000.00   0000000.00                             000000000000000                                                                                                                                                     01418 A000000000000 0000000000000.23     00050 02200                  
02235440322830105DT67590675900000008334800101800000010180010124001193073900013400135031420230000000427707323000000000152343440393XXXXXX7290       VS11    0001111   NYV1 A E303073644866977N840000000004277KMR600    05DNPLANET VAPOR #400        460135    VD84000000004277 N  599976779447                            000000000+                F PF 08170                     000000000  N000000000       0000000000000.00 0000000.00   0000000.00                             000000000000000                                                                                                                                                     01418 A000000000000 0000000000000.64     01150 01500                  
02235450322830106DT67590675900000008334800101800000010180010124001193073900013400143031420230000000394607323000000000152343433477XXXXXX2191       VS11    0001111   NYV1 A E383073697103530N840000000003946PZWC00    05DNPLANET VAPOR #400        691917    VD84000000003946 N  599976779447                            000000000+                F DF 10433                     000000000  Y000000000 338   0000000000000.00 0000000.00   0000000.00                             000000000000000                                                                                                                                                     01418 A000000000000 0000000000000.24     00050 02200                  
02235460322830107DT67590675900000008334800101800000010180010124001193073900013400150031420230000000539007323000000000152343459954XXXXXX2049       VS11    0001111   NYV1 A E583073699994968N8400000000053909QV500    05DNPLANET VAPOR #400        H48100    VD84000000005390 N  599976779447                            000000000+                F DF 10433                     000000000  Y000000000 338   0000000000000.00 0000000.00   0000000.00                             000000000000000                                                                                                                                                     01418 A000000000000 0000000000000.25     00050 02200                  
02235470322830108DT67590675900000008334800101800000010180010177287283073900013400160031420230000000384907323000000000152343515676XXXXXX5852       MS02WI09          NY 1 0 AMWEXHZ0EE0314  N840000000003849          05DNPLANET VAPOR #400        06592Z    MC84000000003849 N  599976779447                            000000000+M10101C5434C    MWE  00739                     000000000  N                0000000000000.00 0000000.00   0000000.00                             000000000000000                                                                                                                                                   B101418  000000000000 0000000000000.99     02300 01000                  
02235480322830109DT67590675900000008334800101800000010180010124001193073900013400176031420230000000187107323000000000152343440066XXXXXX2987       VS11    0001111   NYV1 A E583073711881100N840000000001871BCJT00    07DNPLANET VAPOR #400        04744C    VS84000000001871 N  599976779447                            000000000+                C CC 12112                     000000000  N000000000 497   0000000000000.00 0000000.00   0000000.00                             000000000000000                                                                                                                                                     01418 A000000000000 0000000000000.41     01650 01000                  
02235490322830110DT67590675900000008334800101800000010180010124001193073900013400184031420230000000211807323000000000152343474474XXXXXX4464       VS11    0001111   NYV1 A E583073716178082N8400000000021182LGJ00    07DNPLANET VAPOR #400        185837    VD84000000002118 N  599976779447                            000000000+                F DF 10433                     000000000  Y000000000 338   0000000000000.00 0000000.00   0000000.00                             000000000000000                                                                                                                                                     01418 A000000000000 0000000000000.23     00050 02200                  
02235500322830111DT67590675900000008334800101800000010180010124001193073900013400192031420230000000211807323000000000152343474474XXXXXX2513       VS11    0001111   NYV1 A E303073717065319N840000000002118NSGV00    07DNPLANET VAPOR #400        185051    VD84000000002118 N  599976779447                            000000000+                F DF 10433                     000000000  Y000000000 338   0000000000000.00 0000000.00   0000000.00                             000000000000000                                                                                                                                                     01418 A000000000000 0000000000000.23     00050 02200                  
02235510322830112DT67590675900000008334800101800000010180010124001193073900013400200031420230000000641607323000000000152343461675XXXXXX3128       VS11    0001111   NYV1 A E383073720615930N840000000006416SWMQ00    05DNPLANET VAPOR #400        606790    VD84000000006416 N  599976779447                            000000000+                F DF 00381                     000000000  N000000000       0000000000000.00 0000000.00   0000000.00                             000000000000000                                                                                                                                                     01418 A000000000000 0000000000000.66     00800 01500                  
02235520322830113DT67590675900000008334800101800000010180010124001193073900013400218031420230000000452407323000000000152343448261XXXXXX2863       VS11    0001111   NYV1 A E583073727791677N840000000004524CZF900    05DNPLANET VAPOR #400        332750    VD84000000004524 N  599976779447                            000000000+                F DF 10433                     000000000  Y000000000 338   0000000000000.00 0000000.00   0000000.00                             000000000000000                                                                                                                                                     01418 A000000000000 0000000000000.24     00050 02200                  
02235530322830114DT67590675900000008334800101800000010180010124001193073900013400226031420230000000288807323000000000152343420767XXXXXX3380       VS11    0001111   NYV1 A E383073728530317N840000000002888THSM00    05DNPLANET VAPOR #400        031416    VD84000000002888 N  599976779447                            000000000+                F DF 10433                     000000000  Y000000000 338   0000000000000.00 0000000.00   0000000.00                             000000000000000                                                                                                                                                     01418 A000000000000 0000000000000.23     00050 02200                  
02235540322830115DT67590675900000008334800101800000010180010124001193073900013400234031420230000000211807323000000000152343423223XXXXXX5918       VS11    0001111   NYV1 A E583073731420881N840000000002118NQ7Z00    07DNPLANET VAPOR #400        034130    VD84000000002118 N  599976779447                            000000000+                F DF 00381                     000000000  N000000000       0000000000000.00 0000000.00   0000000.00                             000000000000000                                                                                                                                                     01418 A000000000000 0000000000000.32     00800 01500                  
02235550322830116DT67590675900000008334800101800000010180010124001193073900013400242031420230000000320807323000000000152343466189XXXXXX9414       VS11    0001111   NYV1 A E583073740281270N840000000003208LSM700    07DNPLANET VAPOR #400        078067    VD84000000003208 N  599976779447                            000000000+                F DF 10433                     000000000  Y000000000 338   0000000000000.00 0000000.00   0000000.00                             000000000000000                                                                                                                                                     01418 A000000000000 0000000000000.24     00050 02200                  
02235560322830117DT67590675900000008334800101800000010180010177287283073900013400251031420230000000211807323000000000152343517805XXXXXX1649       MS02WI09          NY 1 0 AMPLVQJBP40314  N840000000002118          07DNPLANET VAPOR #400        07234B    MC84000000002118 N  599976779447                            000000000+M10101M0034C    MPL  00353                     000000000  N                0000000000000.00 0000000.00   0000000.00                             000000000000000                                                                                                                                                   B101418  000000000000 0000000000000.48     01800 01000                  
02235570322830118DT67590675900000008334800101800000010180010124001193073900013400267031420230000000213907323000000000152343498503XXXXXX1661       VS11    0001111   NYV1 A E303073755020563N84000000000213952XD00    05DNPLANET VAPOR #400        006048    VD84000000002139 N  599976779447                            000000000+                F DF 00381                     000000000  N000000000       0000000000000.00 0000000.00   0000000.00                             000000000000000                                                                                                                                                     01418 A000000000000 0000000000000.32     00800 01500                  
02235580322830119DT67590675900000008334800101800000010180010124001193073900013400275031420230000000641607323000000000152343438419XXXXXX2006       VS11    0001111   NYV1 A E463073756991439N8400000000064164VQ800    07DNPLANET VAPOR #400        070139    VD84000000006416 N  599976779447                            000000000+                F DF 00381                     000000000  N000000000       0000000000000.00 0000000.00   0000000.00                             000000000000000                                                                                                                                                     01418 A000000000000 0000000000000.66     00800 01500                  
02235590322830120DT67590675900000008334800101800000010180010124001193073900013400283031420230000000064007323000000000152343433477XXXXXX0642       VK04VS111111111   NYV1 A E463073757776307N840000000000640RHDF00    05DNPLANET VAPOR #400        787890    VD84000000000640 N  599976779447                            000000000+                F DF 10439                     000000000  Y000000000 331   0000000000000.00 0000000.00   0000000.00                             000000000000000                                                                                                                                                     01418 F000000000000 0000000000000.22     00050 02200                  
02235600322830121DT67590675900000008334800101800000010180010177287283073900013400293031420230000001390807323000000000152343531258XXXXXX8849       MS02WI09          NY 1 0 AMDJW8X5GD0314  N840000000013908          05DNPLANET VAPOR #400        173701    MD84000000013908 N  599976779447                            000000000+M10101C5434C    MDJ  10815                     000000000  1                0000000000000.00 0000000.00   0000000.00                             000000000000000                                                                                                                                                   B101418  000000000000 0000000000000.29     00050 02200                  
02235610322830122DT67590675900000008334800101800000010180010124001193073900013400309031420230000001076307323000000000152343461675XXXXXX4016       VS11    0001111   NYV1 A E383073777502380N8400000000107633FL900    05DNPLANET VAPOR #400        674440    VD84000000010763 N  599976779447                            000000000+                F DF 00381                     000000000  N000000000       0000000000000.00 0000000.00   0000000.00                             000000000000000                                                                                                                                                     01418 A000000000000 0000000000001.01     00800 01500                  
02235620322830123DT67590675900000008334800101800000010180010124001193073900013400317031420230000000646707323000000000152343473703XXXXXX9517       VS11    0001111   NYV1 A E303073785605901N840000000006467447C00    05DNPLANET VAPOR #400        098503    VD84000000006467 N  599976779447                            000000000+                F DF 10433                     000000000  Y000000000 338   0000000000000.00 0000000.00   0000000.00                             000000000000000                                                                                                                                                     01418 A000000000000 0000000000000.25     00050 02200                  
02235630322830124DT67590675900000008334800101800000010180010124001193073900013400325031420230000000500007323000000000152343473703XXXXXX9517       VS11    0001111   NYV1 A E583073786107458N8400000000050007F8200    05DNPLANET VAPOR #400        051453    VD84000000005000 N  599976779447                            000000000+                F DF 10433                     000000000  Y000000000 338   0000000000000.00 0000000.00   0000000.00                             000000000000000                                                                                                                                                     01418 A000000000000 0000000000000.25     00050 02200                  
02235640322830125DT67590675900000008334800101800000010180010124001193073900013400333031420230000000050207323000000000152343408138XXXXXX2955       VK04VS111111111   NYV1 A E303073789983128N840000000000502VLWH00    07DNPLANET VAPOR #400        588109    VD84000000000502 N  599976779447                            000000000+                F PF 08165                     000000000  N000000000       0000000000000.00 0000000.00   0000000.00                             000000000000000                                                                                                                                                     01418 F000000000000 0000000000000.13     01600 00500                  
02235650322830126DT67590675900000008334800101800000010180010124001193073900013400341031420230000000267407323000000000152343459954XXXXXX1570       VS11    0001111   NYV1 A E583073792790330N840000000002674TMZV00    05DNPLANET VAPOR #400        H72855    VD84000000002674 N  599976779447                            000000000+                F DF 10433                     000000000  Y000000000 338   0000000000000.00 0000000.00   0000000.00                             000000000000000                                                                                                                                                     01418 A000000000000 0000000000000.23     00050 02200                  
02235660322830127DT67590675900000008334800101800000010180010124001193073900013400358031420230000000133607323000000000152343440393XXXXXX6655       VK04VS111111111   NYV1 A E383073802134817N8400000000013368LG800    05DNPLANET VAPOR #400        565483    VD84000000001336 N  599976779447                            000000000+                F PF 08165                     000000000  N000000000       0000000000000.00 0000000.00   0000000.00                             000000000000000                                                                                                                                                     01418 F000000000000 0000000000000.26     01600 00500                  
02235670322830128DT67590675900000008334800101800000010180010177287283073900013400368031420230000000342107323000000000152343514891XXXXXX5714       MS02WI09          NY 1 0 AMWECDQPRX0314  N840000000003421          05DNPLANET VAPOR #400        06326Z    MC84000000003421 N  599976779447                            000000000+M10101C5434C    MWE  00739                     000000000  N                0000000000000.00 0000000.00   0000000.00                             000000000000000                                                                                                                                                   B101418  000000000000 0000000000000.89     02300 01000                  
02235680322830129DT67590675900000008334800101800000010180010124001193073900013400374031420230000000374407323000000000152343472816XXXXXX6372       VS11    0001111   NYV1 A E583073817481250N8400000000037445TPP00    07DNPLANET VAPOR #400        008933    VD84000000003744 N  599976779447                            000000000+                F DF 10433                     000000000  Y000000000 338   0000000000000.00 0000000.00   0000000.00                             000000000000000                                                                                                                                                     01418 A000000000000 0000000000000.24     00050 02200                  
