06167220299603103AD675906759000000198288001098000009077900013475710000002107006122023NYY16323YC6759800109061420232023152005405                                                                                                                                                                                                                                                                                                                                                                                                                                                                                                                                                                                              
06167230299603106AD675906759000000198288001098000009071900011828850000000327406122023NYY16323ND6759800109061420232023163027583                                                                                                                                                                                                                                                                                                                                                                                                                                                                                                                                                                                              
06167240299603109AD675906759000000198288001098000009071900011828860000000259506122023NYY16323ND6759800109061420232023163027584                                                                                                                                                                                                                                                                                                                                                                                                                                                                                                                                                                                              
06167250299603112AD675906759000000268498001258000009071900014245170000000979806122023NYY16323ND6759800125061420232023163027586                                                                                                                                                                                                                                                                                                                                                                                                                                                                                                                                                                                              
06167260299603115AD675906759000000268498001258000009071900012660420000000129506122023NYY16323ND6759800125061420232023163027587                                                                                                                                                                                                                                                                                                                                                                                                                                                                                                                                                                                              
06167270299603118AD675906759000000268498001258000009071900012660380000001977006122023NYY16323ND6759800125061420232023163027588                                                                                                                                                                                                                                                                                                                                                                                                                                                                                                                                                                                              
06167280299603121AD675906759000000268498001258000009071900012660400000000619806122023NYY16323ND6759800125061420232023163027589                                                                                                                                                                                                                                                                                                                                                                                                                                                                                                                                                                                              
06167290299603124AD675906759000000268498001258000009071900012660390000000979806122023NYY16323ND6759800125061420232023163027590                                                                                                                                                                                                                                                                                                                                                                                                                                                                                                                                                                                              
06167300299603127AD675906759000000151648008888000009071900015293100000001169506122023NYY16323ND6759800888061420232023163027591                                                                                                                                                                                                                                                                                                                                                                                                                                                                                                                                                                                              
06167310299603130AD675906759000000268498001258000009071900012987690000000979806122023NYY16323ND6759800125061420232023163027592                                                                                                                                                                                                                                                                                                                                                                                                                                                                                                                                                                                              
06167320299603133AD675906759000000268498001258000009071900012987650000001280306122023NYY16323ND6759800125061420232023163027593                                                                                                                                                                                                                                                                                                                                                                                                                                                                                                                                                                                              
06167330299603136AD675906759000000268498001258000009071900011937580000001977006122023NYY16323ND6759800125061420232023163027594                                                                                                                                                                                                                                                                                                                                                                                                                                                                                                                                                                                              
06167340299603139AD675906759000000268498001258000009071900014138200000001489206122023NYY16323ND6759800125061420232023163027595                                                                                                                                                                                                                                                                                                                                                                                                                                                                                                                                                                                              
06167350299603142AD675906759000000198288001098000009077900013787180000002255006122023NYY16323YC6759800109061420232023163027596                                                                                                                                                                                                                                                                                                                                                                                                                                                                                                                                                                                              
06167360299603145AD675906759000000198288001098000009077900013576150000002487006122023NYY16323YC6759800109061420232023163027597                                                                                                                                                                                                                                                                                                                                                                                                                                                                                                                                                                                              
06167370299603148AD675906759000000239118001208000009071900010601460000002179906122023NYY16323ND6759800120061420232023163027598                                                                                                                                                                                                                                                                                                                                                                                                                                                                                                                                                                                              
06167380299981891AD675906759000000176738001068000009071231390038490000001388906122023NYY16323ND6759800106061420232023139003849                                                                                                                                                                                                                                                                                                                                                                                                                                                                                                                                                                                              
06167390301254102BH6759067590000003008080013280000090170613202316423000000000071058    0000090001040150N8001326759D06142023004                                                                                                                                                                                                                                                                                                                                                                                                                                                                                                                                                                                              
06167400301254103DT67590675900000030080800132800000010680013287287283164900010401459061220230000001977016423000000000071058528921XXXXXX9031                         YY 4607AMPLYG6F3K0612  N840000000019770          81CNCBD18882414921           604411    MC84000000019770 NDR549978391202   CB64F98486TBAB047C06E71  000000000+600450S00130    MPL  00565                     000000000  N                0000000000000.00 0000000.00   0000000.00                             000000000000000                                                                                                                                                     015WPE 000000000000-0000000000003.46     01750 00000                  
06167410301254103DR675906759000000300808001328000000106CB64F98486TBAB047C06E71  U000000000000                                                                                                                                                                                                                                                                                                                                                                                                                                                                                                                                                                                                                               
06167420301250001G26759067590000003008080013280000001068445754156               CA           9 L               210                                      NNNN           210000000000000000000000000                        7                                          78391202                                                                                                                                                                                                                                                                                                                                                                                                                                               
06167430301254104DT67590675900000030080800132800000010680013287287283164900010401467061220230000000979816423000000000071058528921XXXXXX9031                         YY 4607AMPLBG99YU0612  N840000000009798          81CNCBD18882414921           605730    MC84000000009798 NDR549978391202   CB64F98486TB075A6D9A335  000000000+600450S00130    MPL  00565                     000000000  N                0000000000000.00 0000000.00   0000000.00                             000000000000000                                                                                                                                                     015WPE 000000000000-0000000000001.71     01750 00000                  
06167440301254104DR675906759000000300808001328000000106CB64F98486TB075A6D9A335  U000000000000                                                                                                                                                                                                                                                                                                                                                                                                                                                                                                                                                                                                                               
06167450301250001G26759067590000003008080013280000001068445754156               CA           9 L               210                                      NNNN           210000000000000000000000000                        7                                          78391202                                                                                                                                                                                                                                                                                                                                                                                                                                               
06167460301254105DT67590675900000030080800132800000010680013287287283164900010401475061220230000000309916423000000000071058528921XXXXXX9031                         YY 4607AMPLVHDYYT0612  N840000000003099          81CNCBD18882414921           610984    MC84000000003099 NDR549978391202   CB64F98486T2BE7C21777A0  000000000+600450S00130    MPL  00565                     000000000  N                0000000000000.00 0000000.00   0000000.00                             000000000000000                                                                                                                                                     015WPE 000000000000-0000000000000.54     01750 00000                  
06167470301254105DR675906759000000300808001328000000106CB64F98486T2BE7C21777A0  U000000000000                                                                                                                                                                                                                                                                                                                                                                                                                                                                                                                                                                                                                               
06167480301250001G26759067590000003008080013280000001068445754156               CA           9 L               210                                      NNNN           210000000000000000000000000                        7                                          78391202                                                                                                                                                                                                                                                                                                                                                                                                                                               
06167490301254106DT67590675900000030080800132800000010680013287287283164900010401483061220230000000739616423000000000071058528921XXXXXX9031                         YY 4607AMPLBHHDYU0612  N840000000007396          81CNCBD18882414921           612087    MC84000000007396 NDR549978391202   CB64F98486T7CCD5C693624  000000000+600450S00130    MPL  00565                     000000000  N                0000000000000.00 0000000.00   0000000.00                             000000000000000                                                                                                                                                     015WPE 000000000000-0000000000001.29     01750 00000                  
06167500301254106DR675906759000000300808001328000000106CB64F98486T7CCD5C693624  U000000000000                                                                                                                                                                                                                                                                                                                                                                                                                                                                                                                                                                                                                               
06167510301250001G26759067590000003008080013280000001068445754156               CA           9 L               210                                      NNNN           210000000000000000000000000                        7                                          78391202                                                                                                                                                                                                                                                                                                                                                                                                                                               
06167520301254107DT67590675900000030080800132800000010680013287287283164900010401491061220230000001977016423000000000071058542689XXXXXX9908                         YY 4607AMPLBIFBYU0612  N840000000019770          81CNCBD18882414921           012799    MC84000000019770 NDR549978391202   DC6EAE9E6BTD0C48400A072  000000000+600450S00130    MPL  00565                     000000000  N                0000000000000.00 0000000.00   0000000.00                             000000000000000                                                                                                                                                     015WPE 000000000000-0000000000003.46     01750 00000                  
06167530301254107DR675906759000000300808001328000000106DC6EAE9E6BTD0C48400A072  R000000000000                                                                                                                                                                                                                                                                                                                                                                                                                                                                                                                                                                                                                               
06167540301250001G26759067590000003008080013280000001068445754156               CA           9 L               210                                      NNNN           210000000000000000000000000                        7                                          78391202                                                                                                                                                                                                                                                                                                                                                                                                                                               
06167550301254108DT67590675900000030080800132800000010680013274001193164900010401503061220230000001122516423000000000071058436618XXXXXX9449               0000000   YYV4 07T303163485060585N8400000000112253DDG00    01CNCBD18882414921           005715    VD84000000011225 NDR549978391202   01B362877ATE345A749E8AF  000000000+                F DF 08168                     000000000  Y000000000 369   0000000000000.00 0000000.00   0000000.00                             000000000000000                                                                                                                                                     015WPE 000000011225 0000000000000.00     00000 00000                  
06167560301254108DR67590675900000030080800132800000010601B362877ATE345A749E8AF  U000000011225                 P1                                                                                                                                                                                                                                                                                                                                                                                                                                                                                                                                                                                                            
06167570301250001P16759067590000003008080013280000001060000000000000000                             2000000000000000000000000              000000000000                    0000000000000000000000000                    000000000000                                                                                                                                                                                                                                                                                                                                                                                                                                                                                        
06167580301250002G2675906759000000300808001328000000106844-5754156              CA           9 D                00                                      NNNN   N                      000000000000                                                                   78391202                                                                                                                                                                                                                                                                                                                                                                                                                                               
06167590302140002BH6759067590000001165080088880000090170613202316423000000000061709    0000090001230020N8008886759C06142023123                                                                                                                                                                                                                                                                                                                                                                                                                                                                                                                                                                                              
06167600302140003DT67590675900000011650800888800000010180088873011003164900012300019061220230000000283016423000000000061709370382XXXXX1832                          NY 1 0 N005208875297321N840000000002830          07DNVPODS HOLDINGS INC       840680    AM84000000002830 N  599977032122                            000000000+51010X50034C 258     11261                     000000000                   0000000000000.00 0000000.00   0000000.00                             000000000000000 61248972086759675900000011650 VPODS HOLDINGS INC       2527 N LINCOLN AVE       7732092463      60614     SMOKEDREAMS2@ICLOUD.COM                   01418  000000000000 0000000000000.55     01600 00000                  
06167610302140001E167590675900000011650800888800000010100E0E8C802DE 00000000000.004040404040404040404040404040404040404040404040404006860103A23102000000000000000000404040404040404040404040404040  0000084019C0000000800023061271CA9548B5EA2DAC4737F5B5404040400840A0000000250109010000000000000000C47F5238FBE76C1C30300000000000004040401F40404040 000000028.30 000000000.001F00020000000000000000    80                                                                                                                                                                                                                                                                                                                  
06167620302140002G2675906759000000116508008888000000101CHICAGO                  IL           5                  00                                      NNNN                          000000000000                                                                   77032122                                                                                                                                                                                                                                                                                                                                                                                                                                               
06167630302140004DT67590675900000011650800888800000010180088824001193164900012300021061220230000000199916423000000000061709407123XXXXXX2301       VS11    0001111   NYV1 A E383163615499747N840000000001999MHRZ00    07DNVPODS HOLDING INC        06490D    VS84000000001999 N  599977032122                            000000000+                D CD 12113                     000000000  N000000000 499   0000000000000.00 0000000.00   0000000.00                             000000000000000                                                                                                                                                     01418 A000000000000 0000000000000.52     02100 01000                  
06167640302140001E167590675900000011650800888800000010100E068C8012A 00000000000.00404040404040404040404040404040404040404040404040401F420132A00000000010030273000000004000000000000000000000000000  00000840006000000000002306126C584CC1D5861C23E0A7DF8D404040400840A000000003101000000000000000000014A9062C0086000000000000000000004040404040404040 000000019.99 000000000.004040400000000000000000    80                                                                                                                                                                                                                                                                                                                  
06167650302140002G2675906759000000116508008888000000101CHICAGO                  IL           5 C                00                                      NNNN00 N 00                   000000000000                                                                   77032122                                                                                                                                                                                                                                                                                                                                                                                                                                               
06167660302140005DT67590675900000011650800888800000010180088824001193164900012300039061220230000000500016423000000000061709411398XXXXXX1771       VS11    0001111   NYV1 A E583163772912591N840000000005000WS7B00    07DNVPODS HOLDING INC        02850B    VS84000000005000 N  599977032122                            000000000+                B CB 12111                     000000000  N000000000 495   0000000000000.00 0000000.00   0000000.00                             000000000000000                                                                                                                                                     01418 A000000000000 0000000000000.93     01650 01000                  
06167670302140001E167590675900000011650800888800000010100E068C80290 00000000000.00404040404040404040404040404040404040404040404040401F420132A00000000010030273000000004000000000000000000000000000  0000084000600000000000230612B83B70C8AFA951331A77888C404040400840A0000000031010000000000000000000299A743A0086000000000000000000004040404040404040 000000050.00 000000000.004040400000000000000000    80                                                                                                                                                                                                                                                                                                                  
06167680302140002G2675906759000000116508008888000000101CHICAGO                  IL           5 C                00                                      NNNN00 N 00                   000000000000                                                                   77032122                                                                                                                                                                                                                                                                                                                                                                                                                                               
06167690302140006DT67590675900000011650800888800000010180088824001193164900012300047061220230000000478116423000000000061709411398XXXXXX1771       VS11    0001111   NYV1 A E303163773067335N8400000000047818Z2400    07DNVPODS HOLDING INC        03367B    VS84000000004781 N  599977032122                            000000000+                B CB 12111                     000000000  N000000000 495   0000000000000.00 0000000.00   0000000.00                             000000000000000                                                                                                                                                     01418 A000000000000 0000000000000.89     01650 01000                  
06167700302140001E167590675900000011650800888800000010100E068C80291 00000000000.00404040404040404040404040404040404040404040404040401F420132A00000000010030273000000004000000000000000000000000000  0000084000600000000000230612B8FE25B716C5D335B835B6CD404040400840A0000000031010000000000000000000B3673F790086000000000000000000004040404040404040 000000047.81 000000000.004040400000000000000000    80                                                                                                                                                                                                                                                                                                                  
06167710302140002G2675906759000000116508008888000000101CHICAGO                  IL           5 C                00                                      NNNN00 N 00                   000000000000                                                                   77032122                                                                                                                                                                                                                                                                                                                                                                                                                                               
06167720302140007DT67590675900000011650800888800000010180088824001193164900012300054061220230000000498116423000000000061709433759XXXXXX5734       VS11    0001111   NYV1 A E583163776541932N8400000000049814HR500    05DNVPODS HOLDING INC        666231    VD84000000004981 N  599977032122                            000000000+                F DF 00381                     000000000  N000000000       0000000000000.00 0000000.00   0000000.00                             000000000000000                                                                                                                                                     01418 A000000000000 0000000000000.55     00800 01500                  
06167730302140001E167590675900000011650800888800000010100E0F8C80254 00000000000.004040404040404040404040404040404040404040404040404006011203A0A000000000000000000000404040404040404040404040404040  00000840180080800080002306123FDB19B928F2B3ECE138BF04404040400840A0000000031010000000000000000000DFA6EC040382000000000000000000004040401E40404040 000000049.81 000000000.001E00000000000000000000    80                                                                                                                                                                                                                                                                                                                  
06167740302140002G2675906759000000116508008888000000101CHICAGO                  IL           5 D                00                                      NNNN00 N 00                   000000000000                                                                   77032122                                                                                                                                                                                                                                                                                                                                                                                                                                               
06167750302140008DT67590675900000011650800888800000010180088824001193164900012300062061220230000000283016423000000000061709473702XXXXXX8724       VS11    0001111   NYV1 A E303163813241616N840000000002830CMLF00    07DNVPODS HOLDING INC        002337    VD84000000002830 N  599977032122                            000000000+                F DF 10433                     000000000  Y000000000 338   0000000000000.00 0000000.00   0000000.00                             000000000000000                                                                                                                                                     01418 A000000000000 0000000000000.23     00050 02200                  
06167760302140001E167590675900000011650800888800000010100E068C800D6 00000000000.004040404040404040404040404040404040404040404040404006061203A00000000000000000000000404040404040404040404040404040  0000084000000000000000230612FA8D1A118A11E36E5C37FC03404040400840A0000000031010000000000000000000A03070C0308020E020200000000000004040404040404040 000000028.30 000000000.004040400000000000000000    80                                                                                                                                                                                                                                                                                                                  
06167770302140002G2675906759000000116508008888000000101CHICAGO                  IL           5 D                00                                      NNNN00 N 00                   000000000000                                                                   77032122                                                                                                                                                                                                                                                                                                                                                                                                                                               
06167780302140009DT67590675900000011650800888800000010180088824001193164900012300070061220230000000735916423000000000061709419002XXXXXX9838       VS11    0001111   NYV1 A E463163819609714N840000000007359VXPS00    07DNVPODS HOLDING INC        014141    VD84000000007359 N  599977032122                            000000000+                F DF 10433                     000000000  Y000000000 338   0000000000000.00 0000000.00   0000000.00                             000000000000000                                                                                                                                                     01418 A000000000000 0000000000000.26     00050 02200                  
06167790302140001E167590675900000011650800888800000010100E068C800EB 00000000000.004040404040404040404040404040404040404040404040404006011203A00000000000000000000000404040404040404040404040404040  0000084020000000000000230612150A5257B3BA1D259E795DF0404040400840A0000000031010000000000000000000404040404040404040404040404040404040404040404040 000000073.59 000000000.004040400000000000000000    80                                                                                                                                                                                                                                                                                                                  
06167800302140002G2675906759000000116508008888000000101CHICAGO                  IL           5 D                00                                      NNNN00 N 00                   000000000000                                                                   77032122                                                                                                                                                                                                                                                                                                                                                                                                                                               
06167810302140010DT67590675900000011650800888800000010180088824001193164900012300088061220230000000452916423000000000061709414720XXXXXX5263       VS11    0001111   NYV1 A E583163820344489N840000000004529CWCV00    07DNVPODS HOLDING INC        01427D    VS84000000004529 N  599977032122                            000000000+                D CD 12113                     000000000  N000000000 499   0000000000000.00 0000000.00   0000000.00                             000000000000000                                                                                                                                                     01418 A000000000000 0000000000001.05     02100 01000                  
06167820302140001E167590675900000011650800888800000010100E068C80054 00000000000.004040404040404040404040404040404040404040404040404006021203A00000000000000000000000404040404040404040404040404040  00010840200000000000002306124B449712A5CE4D2EC2EE999D404040400840A000000003101000000000000000000086B4FC460082000000000000000000004040404040404040 000000045.29 000000000.004040400000000000000000    80                                                                                                                                                                                                                                                                                                                  
06167830302140002G2675906759000000116508008888000000101CHICAGO                  IL           5 C                00                                      NNNN00 Y 00                   000000000000                                                                   77032122                                                                                                                                                                                                                                                                                                                                                                                                                                               
06167840302140011DT67590675900000011650800888800000010180088824001193164900012300096061220230000000283016423000000000061709414720XXXXXX1150       VS11    0001111   NYV1 A E463163847289445N84000000000283045QH00    05DNVPODS HOLDING INC        06254D    VS84000000002830 N  599977032122                            000000000+                D CD 12113                     000000000  N000000000 499   0000000000000.00 0000000.00   0000000.00                             000000000000000                                                                                                                                                     01418 A000000000000 0000000000000.69     02100 01000                  
06167850302140001E167590675900000011650800888800000010100E0F8C80036 00000000000.004040404040404040404040404040404040404040404040404006021203A02002000000000000000000404040404040404040404040404040  000308403800008000800023061239D4E9378F5F232E294873D0404040400840A000000003101000000000000000000060DE8D5F0082000000000000000000004040401E40404040 000000028.30 000000000.001E00000000000000000000    80                                                                                                                                                                                                                                                                                                                  
06167860302140002G2675906759000000116508008888000000101CHICAGO                  IL           5 C                00                                      NNNN00 Y 00                   000000000000                                                                   77032122                                                                                                                                                                                                                                                                                                                                                                                                                                               
06167870302140012DT67590675900000011650800888800000010180088824001193164900012300104061220230000000056516423000000000061709443045XXXXXX7961       VK04VS111111111   NYV1 A E463163857235924N840000000000565RFNP00    07DNVPODS HOLDING INC        304126    VD84000000000565 N  599977032122                            000000000+                F DF 10439                     000000000  Y000000000 331   0000000000000.00 0000000.00   0000000.00                             000000000000000                                                                                                                                                     01418 F000000000000 0000000000000.22     00050 02200                  
06167880302140001E167590675900000011650800888800000010100E068C8030F 00000000000.004040404040404040404040404040404040404040404040404006011203A00000000000000000000000404040404040404040404040404040  000108400020000000000023061203BA2C0B84FFC7B9B711334E404040400840A0000000031010000000000000000000404040404040404040404040404040404040404040404040 000000005.65 000000000.004040400000000000000000    80                                                                                                                                                                                                                                                                                                                  
06167890302140002G2675906759000000116508008888000000101CHICAGO                  IL           5 D                00                                      NNNN00 N 00                   000000000000                                                                   77032122                                                                                                                                                                                                                                                                                                                                                                                                                                               
06167900302140013DT67590675900000011650800888800000010180088824001193164900012300112061220230000000030516423000000000061709443045XXXXXX7961       VK04VS111111111   NYV1 A E303163857495169N8400000000003056DMM00    07DNVPODS HOLDING INC        858468    VD84000000000305 N  599977032122                            000000000+                F DF 10439                     000000000  Y000000000 331   0000000000000.00 0000000.00   0000000.00                             000000000000000                                                                                                                                                     01418 F000000000000 0000000000000.22     00050 02200                  
06167910302140001E167590675900000011650800888800000010100E068C80310 00000000000.004040404040404040404040404040404040404040404040404006011203A00000000000000000000000404040404040404040404040404040  0001084000200000000000230612DFD2E88631D4C77AE4F3A5D8404040400840A0000000031010000000000000000000404040404040404040404040404040404040404040404040 000000003.05 000000000.004040400000000000000000    80                                                                                                                                                                                                                                                                                                                  
06167920302140002G2675906759000000116508008888000000101CHICAGO                  IL           5 D                00                                      NNNN00 N 00                   000000000000                                                                   77032122                                                                                                                                                                                                                                                                                                                                                                                                                                               
06167930302140014DT67590675900000011650800888800000010180088824001193164900012300120061220230000000622716423000000000061709414709XXXXXX7126       VS11    0001111   NYV1 A E383164001945567N8400000000062275XDN00    05DNVPODS HOLDING INC        09450D    VS84000000006227 N  599977032122                            000000000+                D CD 12113                     000000000  N000000000 499   0000000000000.00 0000000.00   0000000.00                             000000000000000                                                                                                                                                     01418 A000000000000 0000000000001.41     02100 01000                  
06167940302140001E167590675900000011650800888800000010100E0F8C80548 00000000000.004040404040404040404040404040404040404040404040404006010A03A0A002000000000000000000404040404040404040404040404040  000108403C0000800080002306125C876AAB99A8F940A22F91A0404040400840A0000000031010000000000000000000A9EE6723BF82902530300000000000004040401E40404040 000000062.27 000000000.001E00000000000000000000    80                                                                                                                                                                                                                                                                                                                  
06167950302140002G2675906759000000116508008888000000101CHICAGO                  IL           5 C                00                                      NNNN00 Y 00                   000000000000                                                                   77032122                                                                                                                                                                                                                                                                                                                                                                                                                                               
06167960302140015DT67590675900000011650800888800000010180088824001193164900012300138061220230000000283016423000000000061709414720XXXXXX2896       VS11    0001111   NYV1 A E463164003211480N840000000002830QRVD00    07DNVPODS HOLDING INC        05646C    VS84000000002830 N  599977032122                            000000000+                C CC 12112                     000000000  N000000000 497   0000000000000.00 0000000.00   0000000.00                             000000000000000                                                                                                                                                     01418 A000000000000 0000000000000.57     01650 01000                  
06167970302140001E167590675900000011650800888800000010100E068C80018 00000000000.004040404040404040404040404040404040404040404040404006021203A00000000000000000000000404040404040404040404040404040  00010840200000000000002306121E4B6C5DCB4DDEF16F5F70FC404040400840A0000000031010000000000000000000A4B820D40082000000000000000000004040404040404040 000000028.30 000000000.004040400000000000000000    80                                                                                                                                                                                                                                                                                                                  
06167980302140002G2675906759000000116508008888000000101CHICAGO                  IL           5 C                00                                      NNNN00 Y 00                   000000000000                                                                   77032122                                                                                                                                                                                                                                                                                                                                                                                                                                               
06167990302140016DT67590675900000011650800888800000010180088877287283164900012300148061220230000000045116423000000000061709537177XXXXXX2292       MS02WI09          NY 1 0 AMDJWK17B50612  N840000000000451          07DNVPODS HOLDING INC        094106    MD84000000000451 N  599977032122                            000000000+M10101M0034C    MDJ  10815                     000000000  1                0000000000000.00 0000000.00   0000000.00                             000000000000000                                                                                                                                                   B101418  000000000000 0000000000000.22     00050 02200                  
06168000302140001E1675906759000000116508008888000000101000008480225 00000000000.00404040404040404040404040404040404040404040404040400110A04001220000000000000000000000FF00000000000000000000000000  000008401980000000800123061234B9AD622F3D7CF925BAB7DE404040400840A0000000041010000000000000000000404040404040404040404040404040404040401F40404040 000000004.51 000000000.001F03020000000000000000    80                                                                                                                                                                                                                                                                                                                  
06168010302140002G2675906759000000116508008888000000101CHICAGO                  IL           5 J                                                        NNNN              000000000000000000000000       03               7                                          77032122                                                                                                                                                                                                                                                                                                                                                                                                                                               
06168020302140017DT67590675900000011650800888800000010180088877287283164900012300155061220230000000101916423000000000061709539107XXXXXX2240       MS02WI09          NY 1 0 AMDJHEQM680612  N840000000001019          07DNVPODS HOLDING INC        144124    MD84000000001019 N  599977032122                            000000000+M10101M0034C    MDJ  10815                     000000000  1                0000000000000.00 0000000.00   0000000.00                             000000000000000                                                                                                                                                   A101418  000000000000 0000000000000.23     00050 02200                  
06168030302140001E167590675900000011650800888800000010100000848001D 00000000000.00404040404040404040404040404040404040404040404040400114A14003020000000000000000000000FF00000000000000000000000000  000008401B8000000080012306129E9138E257D99C3FE9D0D221404040400840A0000000041010000000000000000000404040404040404040404040404040404040403F40404040 000000010.19 000000000.003F00020000000000000000    80                                                                                                                                                                                                                                                                                                                  
06168040302140002G2675906759000000116508008888000000101CHICAGO                  IL           5 J                                                        NNNN              000000000000000000000000       03               C                                          77032122                                                                                                                                                                                                                                                                                                                                                                                                                                               
06168050302140018DT67590675900000011650800888800000010180088877287283164900012300163061220230000000283016423000000000061709552433XXXXXX8329       MS02WI09          NY 1 0 AMCWHVA9680612  N840000000002830          07DNVPODS HOLDING INC        08933S    MC84000000002830 N  599977032122                            000000000+M10101M0034C    MCW  02184                     000000000  N                0000000000000.00 0000000.00   0000000.00                             000000000000000                                                                                                                                                   B101418  000000000000 0000000000000.75     02300 01000                  
06168060302140001E167590675900000011650800888800000010100000848032A 00000000000.00404040404040404040404040404040404040404040404040400110A04001220000000000000000000000FF00000000000000000000000000  0001084019800000008001230612B0394F1C0ED5299458D09A3C404040400840A0000000041010000000000000000000404040404040404040404040404040404040401F40404040 000000028.30 000000000.001F03020000000000000000    80                                                                                                                                                                                                                                                                                                                  
06168070302140002G2675906759000000116508008888000000101CHICAGO                  IL           5 W                                                        NNNN              000000000000000000000000       03               7                                          77032122                                                                                                                                                                                                                                                                                                                                                                                                                                               
06168080302140019DT67590675900000011650800888800000010180088824001193164900012300179061220230000000283016423000000000061709465992XXXXXX5013       VS11    0001111   NYV1 A E583164046922328N8400000000028305H9L00    07DNVPODS HOLDING INC        586429    VD84000000002830 N  599977032122                            000000000+                F DF 00381                     000000000  N000000000       0000000000000.00 0000000.00   0000000.00                             000000000000000                                                                                                                                                     01418 A000000000000 0000000000000.38     00800 01500                  
06168090302140001E167590675900000011650800888800000010100E068C8003A 00000000000.00404040404040404040404040404040404040404040404040401F42FF32A00000000010030273000000004000000000000000000000000000  0000084000400000000000230612A8ECCDF475025364C8EBD0C3404040400840A0000000031010000000000000000000ED481B100086000000000000000000004040404040404040 000000028.30 000000000.004040400000000000000000    80                                                                                                                                                                                                                                                                                                                  
06168100302140002G2675906759000000116508008888000000101CHICAGO                  IL           5 D                00                                      NNNN00 N 00                   000000000000                                                                   77032122                                                                                                                                                                                                                                                                                                                                                                                                                                               
06168110302140020DT67590675900000011650800888800000010180088824001193164900012300187061220230000000113116423000000000061709407204XXXXXX2055       VK04VS111111111   NYV1 A E463164050747058N8400000000011319K3K00    07DNVPODS HOLDING INC        043498    VD84000000001131 N  599977032122                            000000000+                F DF 00451                     000000000  N000000000 214   0000000000000.00 0000000.00   0000000.00                             000000000000000                                                                                                                                                     01418 F000000000000 0000000000000.22     01550 00400                  
06168120302140001E167590675900000011650800888800000010100E068C8005F 00000000000.004040404040404040404040404040404040404040404040404006011203A00000000000000000000000404040404040404040404040404040  00000840200000000000002306126C88A5191C9026B0D3599D53404040400840A0000000031010000000000000000000404040404040404040404040404040404040404040404040 000000011.31 000000000.004040400000000000000000    80                                                                                                                                                                                                                                                                                                                  
06168130302140002G2675906759000000116508008888000000101CHICAGO                  IL           5 D                00                                      NNNN00 N 00                   000000000000                                                                   77032122                                                                                                                                                                                                                                                                                                                                                                                                                                               
06168140302140021DT67590675900000011650800888800000010180088877287283164900012300197061220230000000513716423000000000061709535559XXXXXX7620                         NY 1 0 AMDHIL1W680612  N840000000005137          07DNVPODS HOLDING INC        ZORHNU    MD84000000005137FN  599977032122                            000000000+M10101M1134C    MDH  12231                     0000000311 N                0000000000000.00 0000000.00   0000000.00                             000000000000000                                                                                                                                                     01418  000000000000 0000000000001.02     01980 00000                  
06168150302140001E1675906759000000116508008888000000101000060C80202 00000000000.00404040404040404040404040404040404040404040404040400114A14003040000000000000000000000FF00000000000000000000000000  000008401B800000008001230612A74E58FE7CA4953220F6B8A9404040400840A0000000041010000000000000000000404040404040404040404040404040404040400140404040 000000051.37 000000000.000100020000000000000000    80                                                                                                                                                                                                                                                                                                                  
06168160302140002G2675906759000000116508008888000000101CHICAGO                  IL           5 H                                                        NNNN              000000000000000000000000       03               C                                          77032122                                                                                                                                                                                                                                                                                                                                                                                                                                               
06168170302140022DT67590675900000011650800888800000010180088824001193164900012300203061220230000000124516423000000000061709411842XXXXXX8469       VK04VS111111111   NYV1 A E583164080475260N840000000001245BMZ700    07DNVPODS HOLDING INC        171028    VD84000000001245 N  599977032122                            000000000+                F DF 10439                     000000000  Y000000000 331   0000000000000.00 0000000.00   0000000.00                             000000000000000                                                                                                                                                     01418 F000000000000 0000000000000.23     00050 02200                  
06168180302140001E167590675900000011650800888800000010100E068C80212 00000000000.00404040404040404040404040404040404040404040404040401F42FF32A00000000010030273000000004000000000000000000000000000  0000084000600000000000230612828D4AC2D24DF1A5428D7D23404040400840A0000000031010000000000000000000FF2504060086000000000000000000004040404040404040 000000012.45 000000000.004040400000000000000000    80                                                                                                                                                                                                                                                                                                                  
06168190302140002G2675906759000000116508008888000000101CHICAGO                  IL           5 D                00                                      NNNN00 N 00                   000000000000                                                                   77032122                                                                                                                                                                                                                                                                                                                                                                                                                                               
06168200302140023BH6759067590000000288180088880000090170613202316423000000000004543    0000090001350001N8008886759C06142023035                                                                                                                                                                                                                                                                                                                                                                                                                                                                                                                                                                                              
06168210302140024DT67590675900000002881800888800000010180088824001193164900013500017061320230000000454316423000000000004543414709XXXXXX0242       VS11    0001111   NYV1 A E463164600116042N840000000004543X6XN00    07DNHAPPY HIPPIE             00363I    VS84000000004543 N  549976487169                            000000000+                I CI 12777                     000000000  N000000000 690   0000000000000.00 0000000.00   0000000.00                             000000000000000                                                                                                                                                     01418 A000000000000 0000000000001.05     02100 01000                  
06168220302140001E167590675900000002881800888800000010100E068C800B5 00000000000.004040404040404040404040404040404040404040404040404006011203A00000000000000000000000404040404040404040404040404040  00030840200000000000002306132ABE0C3697BAC94BCD866E56404040400840A0000000031010000000000000000000404040404040404040404040404040404040404040404040 000000045.43 000000000.004040400000000000000000    80                                                                                                                                                                                                                                                                                                                  
06168230302140002G2675906759000000028818008888000000101SEVIERVILLE              TN           5 C                00                                      NNNN00QY 00                   000000000000                                                                   76487169                                                                                                                                                                                                                                                                                                                                                                                                                                               
06168240302140025BH6759067590000000288180088880000090170613202316423000000000026620    0000090001460006N8008886759C06142023146                                                                                                                                                                                                                                                                                                                                                                                                                                                                                                                                                                                              
06168250302140026DT67590675900000002881800888800000010180088877287283164900014600016061320230000000109616423000000000026620553469XXXXXX4897       MS02WI09          NY 1 0 AMCWWAQTFQ0613  N840000000001096          05DNHAPPY HIPPIE             09459Z    MC84000000001096 N  549976487158                            000000000+M10101C5434C    MCW  00646                     000000000  N                0000000000000.00 0000000.00   0000000.00                             000000000000000                                                                                                                                                   B101418  000000000000 0000000000000.25     01900 00400                  
06168260302140001E167590675900000002881800888800000010100E0F8C800F6 00000000000.00404040404040404040404040404040404040404040404040400110A04003220000000000000000000000FF00000000000000000000000000  000108403900000000800023061338907F24923B3554503A202D404040400840A0000000041010000000000000000000D22CD78BE500B51B00120000000000004040401E40404040 000000010.96 000000000.001E03000000000000000000    80                                                                                                                                                                                                                                                                                                                  
06168270302140002G2675906759000000028818008888000000101SEVIERVILLE              TN           5 W                                                        NNNN              000000000000000000000000                        7                                          76487158                                                                                                                                                                                                                                                                                                                                                                                                                                               
06168280302140027DT67590675900000002881800888800000010180088877287283164900014600024061320230000000325816423000000000026620521853XXXXXX7536       MS02WI09          NY 1 0 AMCWPK2RT50613  N840000000003258          05DNHAPPY HIPPIE             01373T    MC84000000003258 N  549976487158                            000000000+M10101C5434C    MCW  02188                     000000000  N                0000000000000.00 0000000.00   0000000.00                             000000000000000                                                                                                                                                   B101418  000000000000 0000000000000.79     02300 00400                  
06168290302140001E167590675900000002881800888800000010100E0F8C80004 00000000000.00404040404040404040404040404040404040404040404040400510A04001220000000000000000000000FF00000000000000000000000000  0001084039000000008000230613F0B5664EF8E7038C005BF703404040400840A0000000041010000000000000000000C4A83E9D05E20C6300120000000000004040401E40404040 000000032.58 000000000.001E03000000000000000000    80                                                                                                                                                                                                                                                                                                                  
06168300302140002G2675906759000000028818008888000000101SEVIERVILLE              TN           5 W                                                        NNNN              000000000000000000000000                        7                                          76487158                                                                                                                                                                                                                                                                                                                                                                                                                                               
06168310302140028DT67590675900000002881800888800000010180088824001193164900014600030061320230000000156316423000000000026620443238XXXXXX0642       VS11    0001111   NYV1 A E303164614256852N840000000001563WPHQ00    07DNHAPPY HIPPIE             030345    VD84000000001563 N  549976487158                            000000000+                F DF 00381                     000000000  N000000000       0000000000000.00 0000000.00   0000000.00                             000000000000000                                                                                                                                                     01418 A000000000000 0000000000000.28     00800 01500                  
06168320302140001E167590675900000002881800888800000010100E068C8000E 00000000000.004040404040404040404040404040404040404040404040404006011203A00000000000000000000000404040404040404040404040404040  00000840000000000000002306134C17A60C2B2D470BD1F4E910404040400840A0000000031010000000000000000000404040404040404040404040404040404040404040404040 000000015.63 000000000.004040400000000000000000    80                                                                                                                                                                                                                                                                                                                  
06168330302140002G2675906759000000028818008888000000101SEVIERVILLE              TN           5 D                00                                      NNNN00 N 00                   000000000000                                                                   76487158                                                                                                                                                                                                                                                                                                                                                                                                                                               
06168340302140029DT67590675900000002881800888800000010180088824001193164900014600048061320230000001132316423000000000026620440393XXXXXX6997       VS11    0001111   NYV1 A E383164745027602N840000000011323H9XH00    05DNHAPPY HIPPIE             665523    VD84000000011323 N  549976487158                            000000000+                F PF 08170                     000000000  N000000000       0000000000000.00 0000000.00   0000000.00                             000000000000000                                                                                                                                                     01418 A000000000000 0000000000001.45     01150 01500                  
06168350302140001E167590675900000002881800888800000010100E0F8C80012 00000000000.004040404040404040404040404040404040404040404040404006011203A0A000000000000000000000404040404040404040404040404040  0000084018008080008000230613F8E67F510CA39E264C916736404040400840A0000000031010000000000000000000B13192281582A95E30300000000000004040401E40404040 000000113.23 000000000.001E00000000000000000000    80                                                                                                                                                                                                                                                                                                                  
06168360302140002G2675906759000000028818008888000000101SEVIERVILLE              TN           5 P                00                                      NNNN00 N 00                   000000000000                                                                   76487158                                                                                                                                                                                                                                                                                                                                                                                                                                               
06168370302140030DT67590675900000002881800888800000010180088877287283164900014600057061320230000000246816423000000000026620514377XXXXXX0825       MS02WI09          NY 1 0 AMDJVBEDT70613  N840000000002468          07DNHAPPY HIPPIE             159XRV    MD84000000002468 N  549976487158                            000000000+M10101M0034C    MDJ  00402                     000000000  N                0000000000000.00 0000000.00   0000000.00                             000000000000000                                                                                                                                                   B101418  000000000000 0000000000000.41     01050 01500                  
06168380302140001E16759067590000000288180088880000001010000084800F4 00000000000.00404040404040404040404040404040404040404040404040400110A04001220000000000000000000000FF00000000000000000000000000  00010840198000000080012306138C695E58C7321F3243BC7753404040400840A0000000041010000000000000000000404040404040404040404040404040404040401F40404040 000000024.68 000000000.001F03020000000000000000    80                                                                                                                                                                                                                                                                                                                  
06168390302140002G2675906759000000028818008888000000101SEVIERVILLE              TN           5 J                                                        NNNN              000000000000000000000000       03               7                                          76487158                                                                                                                                                                                                                                                                                                                                                                                                                                               
06168400302140031DT67590675900000002881800888800000010180088824001193164900014600063061320230000000691216423000000000026620410039XXXXXX5113       VS11    0001111   NYV1 A E463164765259079N8400000000069122CRT00    05DNHAPPY HIPPIE             68688D    VS84000000006912 N  549976487158                            000000000+                D CD 12113                     000000000  N000000000 499   0000000000000.00 0000000.00   0000000.00                             000000000000000                                                                                                                                                     01418 A000000000000 0000000000001.55     02100 01000                  
06168410302140001E167590675900000002881800888800000010100E0F8C800AB 00000000000.004040404040404040404040404040404040404040404040404006011203A0A000000000000000000000404040404040404040404040404040  00030840180080800080002306131022B2F489BB4C0E6DB3CF11404040400840A000000003101000000000000000000073DDE2CE0086000000000000000000004040401E40404040 000000069.12 000000000.001E03000000000000000000    80                                                                                                                                                                                                                                                                                                                  
06168420302140002G2675906759000000028818008888000000101SEVIERVILLE              TN           5 C                00                                      NNNN00 Y 00                   000000000000                                                                   76487158                                                                                                                                                                                                                                                                                                                                                                                                                                               
06168430302140032BH6759067590000000288180088880000090170613202316423000000000140417    0000090001380029N8008886759C06142023138                                                                                                                                                                                                                                                                                                                                                                                                                                                                                                                                                                                              
06168440302140033DT67590675900000002881800888800000010180088824001193164900013800011061320230000000098816423000000000140417480639XXXXXX8415       VK04VS111111111   NYV1 A E303164519384055N840000000000988H6GJ00    05DNHAPPY HIPPIE             047597    VD84000000000988 N  549976487134                            000000000+                F DF 00451                     000000000  N000000000 214   0000000000000.00 0000000.00   0000000.00                             000000000000000                                                                                                                                                     01418 F000000000000 0000000000000.19     01550 00400                  
06168450302140001E167590675900000002881800888800000010100E0F8C80059 00000000000.004040404040404040404040404040404040404040404040404006011203A0A000000000000000000000404040404040404040404040404040  0000084018008080008000230613DB697E09E5BCCEB3739FACEC404040400840A00000000310100000000000000000009F3F2BAA0080000000000000000000004040401E40404040 000000009.88 000000000.001E00000000000000000000    80                                                                                                                                                                                                                                                                                                                  
06168460302140002G2675906759000000028818008888000000101SEVIERVILLE              TN           5 D                00                                      NNNN00 N 00                   000000000000                                                                   76487134                                                                                                                                                                                                                                                                                                                                                                                                                                               
06168470302140034DT67590675900000002881800888800000010180088824001193164900013800029061320230000000592516423000000000140417419090XXXXXX5979       VS11    0001111   NYV1 A E463164525484065N840000000005925LNNR00    05DNHAPPY HIPPIE             985906    VD84000000005925 N  549976487134                            000000000+                F DF 00381                     000000000  N000000000       0000000000000.00 0000000.00   0000000.00                             000000000000000                                                                                                                                                     01418 A000000000000 0000000000000.62     00800 01500                  
06168480302140001E167590675900000002881800888800000010100E0F8C800FF 00000000000.004040404040404040404040404040404040404040404040404006011203A0A000000000000000000000404040404040404040404040404040  000108401800808000800023061399390598FC1457534C0CEFDB404040400840A00000000310100000000000000000002D04B3F70080000000000000000000004040401E40404040 000000059.25 000000000.001E00000000000000000000    80                                                                                                                                                                                                                                                                                                                  
06168490302140002G2675906759000000028818008888000000101SEVIERVILLE              TN           5 D                00                                      NNNN00 N 00                   000000000000                                                                   76487134                                                                                                                                                                                                                                                                                                                                                                                                                                               
06168500302140035DT67590675900000002881800888800000010180088824001193164900013800037061320230000000395116423000000000140417449052XXXXXX7044       VS11    0001111   NYV1 A E583164531886750N840000000003951V93K00    05DNHAPPY HIPPIE             094628    VD84000000003951 N  549976487134                            000000000+                F DF 00381                     000000000  N000000000       0000000000000.00 0000000.00   0000000.00                             000000000000000                                                                                                                                                     01418 A000000000000 0000000000000.47     00800 01500                  
06168510302140001E167590675900000002881800888800000010100E0F8C800C4 00000000000.004040404040404040404040404040404040404040404040404006011203A0A000000000000000000000404040404040404040404040404040  0000084018008080008000230613178D43C29445D9C369D07EA4404040400840A00000000310100000000000000000001CEEB7990080000000000000000000004040401E40404040 000000039.51 000000000.001E00000000000000000000    80                                                                                                                                                                                                                                                                                                                  
06168520302140002G2675906759000000028818008888000000101SEVIERVILLE              TN           5 D                00                                      NNNN00 N 00                   000000000000                                                                   76487134                                                                                                                                                                                                                                                                                                                                                                                                                                               
06168530302140036DT67590675900000002881800888800000010180088824001193164900013800045061320230000000492516423000000000140417443264XXXXXX3780       VS11    0001111   NYV1 A E583164535265027N840000000004925LNTP00    05DNHAPPY HIPPIE             018714    VD84000000004925 N  549976487134                            000000000+                F DF 10433                     000000000  Y000000000 338   0000000000000.00 0000000.00   0000000.00                             000000000000000                                                                                                                                                     01418 A000000000000 0000000000000.24     00050 02200                  
06168540302140001E167590675900000002881800888800000010100E0F8C80240 00000000000.004040404040404040404040404040404040404040404040404006011203A08000000000000000000000404040404040404040404040404040  0000084018008080008000230613082B8BD0C62A549BF199CB96404040400840A00000000310100000000000000000005D3F25470080000000000000000000004040401E40404040 000000049.25 000000000.001E00000000000000000000    80                                                                                                                                                                                                                                                                                                                  
06168550302140002G2675906759000000028818008888000000101SEVIERVILLE              TN           5 D                00                                      NNNN00 N 00                   000000000000                                                                   76487134                                                                                                                                                                                                                                                                                                                                                                                                                                               
06168560302140037DT67590675900000002881800888800000010180088824001193164900013800052061320230000000048516423000000000140417486897XXXXXX8737       VK04VS111111111   NYV1 A E383164538034878N840000000000485NJP300    07DNHAPPY HIPPIE             049825    VD84000000000485 N  549976487134                            000000000+                F DF 10439                     000000000  Y000000000 331   0000000000000.00 0000000.00   0000000.00                             000000000000000                                                                                                                                                     01418 F000000000000 0000000000000.22     00050 02200                  
06168570302140001E167590675900000002881800888800000010100E068C800A5 00000000000.00404040404040404040404040404040404040404040404040401F4AFF32A00000000010030273000000004000000000000000000000000000  000008400040000000000023061347DC74E099E35867C143EDEB404040400840A000000003101000000000000000000055350BBA4AE1EB4730300000000000004040404040404040 000000004.85 000000000.004040400000000000000000    80                                                                                                                                                                                                                                                                                                                  
06168580302140002G2675906759000000028818008888000000101SEVIERVILLE              TN           5 D                00                                      NNNN00 N 00                   000000000000                                                                   76487134                                                                                                                                                                                                                                                                                                                                                                                                                                               
06168590302140038DT67590675900000002881800888800000010180088824001193164900013800060061320230000000246816423000000000140417422921XXXXXX7381       VS11    0001111   NYV1 A E383164540133330N840000000002468BPSX00    07DNHAPPY HIPPIE             039614    VD84000000002468 N  549976487134                            000000000+                F DF 00381                     000000000  N000000000       0000000000000.00 0000000.00   0000000.00                             000000000000000                                                                                                                                                     01418 A000000000000 0000000000000.35     00800 01500                  
06168600302140001E167590675900000002881800888800000010100E068C80063 00000000000.004040404040404040404040404040404040404040404040404006011203A00000000000000000000000404040404040404040404040404040  00000840000000000000002306131930355B81159BA6E3732ED4404040400840A00000000310100000000000000000005900D2E20382000000000000000000004040404040404040 000000024.68 000000000.004040400000000000000000    80                                                                                                                                                                                                                                                                                                                  
06168610302140002G2675906759000000028818008888000000101SEVIERVILLE              TN           5 D                00                                      NNNN00 N 00                   000000000000                                                                   76487134                                                                                                                                                                                                                                                                                                                                                                                                                                               
06168620302140039DT67590675900000002881800888800000010180088824001193164900013800078061320230000000395016423000000000140417422921XXXXXX4761       VS11    0001111   NYV1 A E303164544397644N8400000000039503VNR00    07DNHAPPY HIPPIE             040040    VD84000000003950 N  549976487134                            000000000+                F DF 00381                     000000000  N000000000       0000000000000.00 0000000.00   0000000.00                             000000000000000                                                                                                                                                     01418 A000000000000 0000000000000.47     00800 01500                  
06168630302140001E167590675900000002881800888800000010100E068C8015C 00000000000.004040404040404040404040404040404040404040404040404006011203A00000000000000000000000404040404040404040404040404040  00000840200000000000002306134CC97350C7EB22FAD2CC8BD2404040400840A00000000310100000000000000000006C31117E0382000000000000000000004040404040404040 000000039.50 000000000.004040400000000000000000    80                                                                                                                                                                                                                                                                                                                  
