02406940080197333AD675906759000000151648008888000009071900012025610000002487004032023NYY09323ND6759800888040520232023093029570                                                                                                                                                                                                                                                                                                                                                                                                                                                                                                                                                                                              
02406950080197336AD675906759000000151648008888000009071900012029310000002255004032023NYY09323ND6759800888040520232023093029571                                                                                                                                                                                                                                                                                                                                                                                                                                                                                                                                                                                              
02406960080197339AD675906759000000198288001098000009071900010203920000001987004032023NYY09323ND6759800109040520232023093029572                                                                                                                                                                                                                                                                                                                                                                                                                                                                                                                                                                                              
02406970080197342AD675906759000000151648008888000009071900011512920000000654804032023NYY09323ND6759800888040520232023093029573                                                                                                                                                                                                                                                                                                                                                                                                                                                                                                                                                                                              
02406980080197345AD675906759000000151648008888000009071900012666050000001987004032023NYY09323ND6759800888040520232023093029574                                                                                                                                                                                                                                                                                                                                                                                                                                                                                                                                                                                              
02406990080197348AD675906759000000151648008888000009071900011718320000002487004032023NYY09323ND6759800888040520232023093029575                                                                                                                                                                                                                                                                                                                                                                                                                                                                                                                                                                                              
02407000080197351AD675906759000000151648008888000009071900011822360000002487004032023NYY09323ND6759800888040520232023093029576                                                                                                                                                                                                                                                                                                                                                                                                                                                                                                                                                                                              
02407010080197354AD675906759000000142748001028000009071900013732240000002255004032023NYY09323ND6759800102040520232023093029577                                                                                                                                                                                                                                                                                                                                                                                                                                                                                                                                                                                              
02407020080197357AD675906759000000142748001028000009071900013933320000002126104032023NYY09323ND6759800102040520232023093029578                                                                                                                                                                                                                                                                                                                                                                                                                                                                                                                                                                                              
02407030080197360AD675906759000000151648008888000009071900010901380000000654804032023NYY09323ND6759800888040520232023093029579                                                                                                                                                                                                                                                                                                                                                                                                                                                                                                                                                                                              
02407040080197363AD675906759000000151648008888000009071900010901370000002487004032023NYY09323ND6759800888040520232023093029580                                                                                                                                                                                                                                                                                                                                                                                                                                                                                                                                                                                              
02407050080197366AD675906759000000151648008888000009071900012350820000001799104032023NYY09323ND6759800888040520232023093029581                                                                                                                                                                                                                                                                                                                                                                                                                                                                                                                                                                                              
02407060080197369AD675906759000000151648008888000009071900012234830000001987004032023NYY09323ND6759800888040520232023093029582                                                                                                                                                                                                                                                                                                                                                                                                                                                                                                                                                                                              
02407070080197372AD675906759000000151648008888000009071900012561540000001987004032023NYY09323ND6759800888040520232023093029583                                                                                                                                                                                                                                                                                                                                                                                                                                                                                                                                                                                              
02407080080197375AD675906759000000151648008888000009071900011510650000000519004032023NYY09323ND6759800888040520232023093029584                                                                                                                                                                                                                                                                                                                                                                                                                                                                                                                                                                                              
02407090080197378AD675906759000000151648008888000009071900011510640000001987004032023NYY09323ND6759800888040520232023093029585                                                                                                                                                                                                                                                                                                                                                                                                                                                                                                                                                                                              
02407100080197381AD675906759000000151648008888000009071900012772530000002487004032023NYY09323ND6759800888040520232023093029586                                                                                                                                                                                                                                                                                                                                                                                                                                                                                                                                                                                              
02407110080197384AD675906759000000151648008888000009071900012772550000000654804032023NYY09323ND6759800888040520232023093029587                                                                                                                                                                                                                                                                                                                                                                                                                                                                                                                                                                                              
02407120080197387AD675906759000000151648008888000009071900012240150000002255004032023NYY09323ND6759800888040520232023093029588                                                                                                                                                                                                                                                                                                                                                                                                                                                                                                                                                                                              
02407130082850002BH6759067590000000215480088880000090170404202309423000000000606050    0000090001522150N8008886759C04052023                                                                                                                                                                                                                                                                                                                                                                                                                                                                                                                                                                                                 
02407140082850003DT67590675900000002154800888800000010180088824001193094900015287055040420230000007200009423000000000606050424631XXXXXX8969               2111111   NYV4 A7W383094783426454N840000000072000TW7M00    01DNDRIP DROP DISTRO LLC     06270G    VB84000000072000 NP1519971004114   INV-000401               000000000+                G1CG108010                     000000000  N000000000 390   0000000000000.00 0000000.00   0000000.00                             000000000000000                                                                                                                                                     01418 G000000072000 0000000000020.62     02850 01000                  
02407150082850001P16759067590000000215480088880000001010000000000000000    44040494204              2000000000000000000000000              000000000000                    0000000000000000000000000                    000000000000                                                                                                                                                                                                                                                                                                                                                                                                                                                                                        
02407160082850004DT67590675900000002154800888800000010180088824001193094900015256134040420230000006000009423000000000606050464018XXXXXX9401               2111111   NYV4 A7W383094721176325N840000000060000XM9N00    01DNDRIP DROP DISTRO LLC     04719D    VS84000000060000 NP1519971004114   INV-001485               000000000+                D CD 12109                     000000000  N000000000 498   0000000000000.00 0000000.00   0000000.00                             000000000000000                                                                                                                                                     01418 G000000060000 0000000000015.10     02500 01000                  
02407170082850001P16759067590000000215480088880000001010000000000000000                             2000000000000000000000000              000000000000                    0000000000000000000000000                    000000000000                                                                                                                                                                                                                                                                                                                                                                                                                                                                                        
02407180082850005DT67590675900000002154800888800000010180088824001193094900015221500040420230000047405009423000000000606050424631XXXXXX0145               2111111   NYV4 A7W583094642832345N840000000474050GM8600    01DNDRIP DROP DISTRO LLC     03707G    VB84000000474050 NP1519971004114   INV-001484               000000000+                G5CG511887                     000000000  N000000000 163   0000000000000.00 0000000.00   0000000.00                             000000000000000                                                                                                                                                     01418 G000000474050 0000000000142.32     03000 01000                  
02407190082850001P16759067590000000215480088880000001010000000000000000    44039973913              2000000000000000000000000              000000000000                    0000000000000000000000000                    000000000000                                                                                                                                                                                                                                                                                                                                                                                                                                                                                        
02407200082850006BH6759067590000000288180088880000090170404202309423000000000184258    0000090001880028N8008886759C04052023                                                                                                                                                                                                                                                                                                                                                                                                                                                                                                                                                                                                 
02407210082850007DT67590675900000002881800888800000010180088824001193094900018800011040420230000000444409423000000000184258404227XXXXXX7619       VS11    0001111   NYV1 A E383094512147709N840000000004444GZVX00    05DNHAPPY HIPPIE             980758    VD84000000004444 N  549976487158                            000000000+                F DF 00381                     000000000  N000000000       0000000000000.00 0000000.00   0000000.00                             000000000000000                                                                                                                                                     01418 A000000000000 0000000000000.51     00800 01500                  
02407220082850008DT67590675900000002881800888800000010180088824001193094900018800029040420230000002370309423000000000184258439707XXXXXX3810       VS11    0001111   NYV1 A E383094515904650N84000000002370353TZ00    05DNHAPPY HIPPIE             08525C    VS84000000023703 N  549976487158                            000000000+                C CC 12112                     000000000  N000000000 497   0000000000000.00 0000000.00   0000000.00                             000000000000000                                                                                                                                                     01418 A000000000000 0000000000004.01     01650 01000                  
02407230082850009DT67590675900000002881800888800000010180088824001193094900018800037040420230000000570609423000000000184258439707XXXXXX3810       VS11    0001111   NYV1 A E383094516772802N840000000005706STR500    05DNHAPPY HIPPIE             03529C    VS84000000005706 N  549976487158                            000000000+                C CC 12112                     000000000  N000000000 497   0000000000000.00 0000000.00   0000000.00                             000000000000000                                                                                                                                                     01418 A000000000000 0000000000001.04     01650 01000                  
02407240082850010DT67590675900000002881800888800000010180088824001193094900018800045040420230000000720909423000000000184258438857XXXXXX7405       VS11    0001111   NYV1 A E303094518117469N84000000000720926LR00    05DNHAPPY HIPPIE             09961D    VS84000000007209 N  549976487158                            000000000+                D CD 12113                     000000000  N000000000 499   0000000000000.00 0000000.00   0000000.00                             000000000000000                                                                                                                                                     01418 A000000000000 0000000000001.61     02100 01000                  
02407250082850011DT67590675900000002881800888800000010180088824001193094900018800052040420230000000548609423000000000184258414720XXXXXX1536       VS11    0001111   NYV1 A E463094527980517N840000000005486Q6NQ00    05DNHAPPY HIPPIE             08753C    VS84000000005486 N  549976487158                            000000000+                C CC 12112                     000000000  N000000000 497   0000000000000.00 0000000.00   0000000.00                             000000000000000                                                                                                                                                     01418 A000000000000 0000000000001.01     01650 01000                  
02407260082850012DT67590675900000002881800888800000010180088824001193094900018800060040420230000000197409423000000000184258419090XXXXXX6750       VS11    0001111   NYV1 A E463094536340264N840000000001974VDJ800    05DNHAPPY HIPPIE             978078    VD84000000001974 N  549976487158                            000000000+                F DF 00381                     000000000  N000000000       0000000000000.00 0000000.00   0000000.00                             000000000000000                                                                                                                                                     01418 A000000000000 0000000000000.31     00800 01500                  
02407270082850013DT67590675900000002881800888800000010180088824001193094900018800078040420230000000651709423000000000184258480639XXXXXX6395       VS11    0001111   NYV1 A E303094550973507N840000000006517DWML00    05DNHAPPY HIPPIE             337601    VD84000000006517 N  549976487158                            000000000+                F DF 00381                     000000000  N000000000       0000000000000.00 0000000.00   0000000.00                             000000000000000                                                                                                                                                     01418 A000000000000 0000000000000.67     00800 01500                  
02407280082850014DT67590675900000002881800888800000010180088824001193094900018800086040420230000000713209423000000000184258473702XXXXXX1142       VS11    0001111   NYV1 A E463094556237131N840000000007132DVZB00    07DNHAPPY HIPPIE             030748    VD84000000007132 N  549976487158                            000000000+                F DF 10433                     000000000  Y000000000 338   0000000000000.00 0000000.00   0000000.00                             000000000000000                                                                                                                                                     01418 A000000000000 0000000000000.26     00050 02200                  
02407290082850015DT67590675900000002881800888800000010180088824001193094900018800094040420230000000274309423000000000184258424018XXXXXX8521       VS11    0001111   NYV1 A E383094572131493N840000000002743SSFV00    05DNHAPPY HIPPIE             015333    VD84000000002743 N  549976487158                            000000000+                F DF 10433                     000000000  Y000000000 338   0000000000000.00 0000000.00   0000000.00                             000000000000000                                                                                                                                                     01418 A000000000000 0000000000000.23     00050 02200                  
02407300082850016DT67590675900000002881800888800000010180088877287283094900018800104040420230000000118409423000000000184258517805XXXXXX5135       MS02WI09          NY 1 0 AMPLZB54MR0404  N840000000001184          07DNHAPPY HIPPIE             05968B    MC84000000001184 N  549976487158                            000000000+M10101M0034C    MPL  00364                     000000000  N                0000000000000.00 0000000.00   0000000.00                             000000000000000                                                                                                                                                   B101418  000000000000 0000000000000.25     01800 00400                  
02407310082850017DT67590675900000002881800888800000010180088824001193094900018800110040420230000000395009423000000000184258422921XXXXXX0454       VS11    0001111   NYV1 A E303094602603447N840000000003950CJ8J00    05DNHAPPY HIPPIE             045861    VD84000000003950 N  549976487158                            000000000+                F DF 00381                     000000000  N000000000       0000000000000.00 0000000.00   0000000.00                             000000000000000                                                                                                                                                     01418 A000000000000 0000000000000.47     00800 01500                  
02407320082850018DT67590675900000002881800888800000010180088877287283094900018800120040420230000000439009423000000000184258551571XXXXXX4045       MS02WI09          NY 2 0 AMDJK0BTX50404  N840000000004390          05DNHAPPY HIPPIE             664010    MD84000000004390 N  549976487158                            000000000+M10101C1334C    MDJ  00402                     000000000  N                0000000000000.00 0000000.00   0000000.00                             000000000000000                                                                                                                                                   B101418  000000000000 0000000000000.61     01050 01500                  
02407330082850019DT67590675900000002881800888800000010180088824001193094900018800136040420230000000790009423000000000184258473916XXXXXX6307       VS11    0001111   NYV1 A E383094641996145N8400000000079009C6Q00    05DNHAPPY HIPPIE             034959    VD84000000007900 N  549976487158                            000000000+                G DG 08704                     000000000  N000000000       0000000000000.00 0000000.00   0000000.00                             000000000000000                                                                                                                                                     01418 A000000000000 0000000000001.44     01700 01000                  
02407340082850020DT67590675900000002881800888800000010180088824001193094900018800144040420230000000976609423000000000184258422921XXXXXX4105       VS11    0001111   NYV1 A E383094665869348N840000000009766ZKZB00    07DNHAPPY HIPPIE             052187    VD84000000009766 N  549976487158                            000000000+                F DF 00381                     000000000  N000000000       0000000000000.00 0000000.00   0000000.00                             000000000000000                                                                                                                                                     01418 A000000000000 0000000000000.93     00800 01500                  
02407350082850021DT67590675900000002881800888800000010180088824001193094900018800151040420230000000740609423000000000184258435546XXXXXX8931       VS11    0001111   NYV1 A E583094668518629N840000000007406F5Q800    07DNHAPPY HIPPIE             060037    VD84000000007406 N  549976487158                            000000000+                F DF 10433                     000000000  Y000000000 338   0000000000000.00 0000000.00   0000000.00                             000000000000000                                                                                                                                                     01418 A000000000000 0000000000000.26     00050 02200                  
02407360082850022DT67590675900000002881800888800000010180088824001193094900018800169040420230000000571609423000000000184258419090XXXXXX4827       VS11    0001111   NYV1 A E583094672385172N840000000005716LLBL00    05DNHAPPY HIPPIE             985640    VD84000000005716 N  549976487158                            000000000+                F DF 00381                     000000000  N000000000       0000000000000.00 0000000.00   0000000.00                             000000000000000                                                                                                                                                     01418 A000000000000 0000000000000.61     00800 01500                  
02407370082850023DT67590675900000002881800888800000010180088877287283094900018800179040420230000000384009423000000000184258515676XXXXXX9094       MS02WI09          NY 1 0 AMWESMT3X50404  N840000000003840          07DNHAPPY HIPPIE             03545Z    MC84000000003840 N  549976487158                            000000000+M10101M0034C    MWE  00743                     000000000  N                0000000000000.00 0000000.00   0000000.00                             000000000000000                                                                                                                                                   B101418  000000000000 0000000000000.92     02300 00400                  
02407380082850024DT67590675900000002881800888800000010180088824001193094900018800185040420230000000395009423000000000184258423223XXXXXX5969       VS11    0001111   NYV1 A E583094681995865N840000000003950ZJHX00    05DNHAPPY HIPPIE             056607    VD84000000003950 N  549976487158                            000000000+                F DF 00381                     000000000  N000000000       0000000000000.00 0000000.00   0000000.00                             000000000000000                                                                                                                                                     01418 A000000000000 0000000000000.47     00800 01500                  
02407390082850025DT67590675900000002881800888800000010180088824001193094900018800193040420230000000439009423000000000184258415978XXXXXX0021       VS11    0001111   NYV1 A E583094719896867N840000000004390RV3C00    07DNHAPPY HIPPIE             021200    VD84000000004390 N  549976487158                            000000000+                F DF 10433                     000000000  Y000000000 338   0000000000000.00 0000000.00   0000000.00                             000000000000000                                                                                                                                                     01418 A000000000000 0000000000000.24     00050 02200                  
02407400082850026DT67590675900000002881800888800000010180088877287283094900018800203040420230000000888909423000000000184258517805XXXXXX3570       MS02WI09          NY 1 0 AMPLONFMX50404  N840000000008889          07DNHAPPY HIPPIE             07262B    MC84000000008889 N  549976487158                            000000000+M10101M5434C    MPL  00364                     000000000  N                0000000000000.00 0000000.00   0000000.00                             000000000000000                                                                                                                                                   B101418  000000000000 0000000000001.64     01800 00400                  
02407410082850027DT67590675900000002881800888800000010180088824001193094900018800219040420230000000355509423000000000184258443264XXXXXX3780       VS11    0001111   NYV1 A E583094738348706N840000000003555CC8W00    05DNHAPPY HIPPIE             012015    VD84000000003555 N  549976487158                            000000000+                F DF 10433                     000000000  Y000000000 338   0000000000000.00 0000000.00   0000000.00                             000000000000000                                                                                                                                                     01418 A000000000000 0000000000000.24     00050 02200                  
02407420082850028DT67590675900000002881800888800000010180088824001193094900018800227040420230000000246809423000000000184258422921XXXXXX2248       VS11    0001111   NYV1 A E463094743065387N840000000002468P2JQ00    05DNHAPPY HIPPIE             059907    VD84000000002468 N  549976487158                            000000000+                F DF 00381                     000000000  N000000000       0000000000000.00 0000000.00   0000000.00                             000000000000000                                                                                                                                                     01418 A000000000000 0000000000000.35     00800 01500                  
02407430082850029DT67590675900000002881800888800000010180088824001193094900018800235040420230000000444409423000000000184258473703XXXXXX0043       VS11    0001111   NYV1 A E583094750420796N840000000004444DBML00    05DNHAPPY HIPPIE             093874    VD84000000004444 N  549976487158                            000000000+                F DF 10433                     000000000  Y000000000 338   0000000000000.00 0000000.00   0000000.00                             000000000000000                                                                                                                                                     01418 A000000000000 0000000000000.24     00050 02200                  
02407440082850030DT67590675900000002881800888800000010180088824001193094900018800243040420230000000680209423000000000184258422921XXXXXX8232       VS11    0001111   NYV1 A E463094759734686N84000000000680232W500    05DNHAPPY HIPPIE             061574    VD84000000006802 N  549976487158                            000000000+                F DF 00381                     000000000  N000000000       0000000000000.00 0000000.00   0000000.00                             000000000000000                                                                                                                                                     01418 A000000000000 0000000000000.69     00800 01500                  
02407450082850031DT67590675900000002881800888800000010180088824001193094900018800250040420230000001431009423000000000184258419090XXXXXX2246       VS11    0001111   NYV1 A E583094761098545N840000000014310TSJT00    05DNHAPPY HIPPIE             990585    VD84000000014310 N  549976487158                            000000000+                F DF 00381                     000000000  N000000000       0000000000000.00 0000000.00   0000000.00                             000000000000000                                                                                                                                                     01418 A000000000000 0000000000001.29     00800 01500                  
02407460082850032DT67590675900000002881800888800000010180088824001193094900018800268040420230000000351009423000000000184258415977XXXXXX2545       VS11    0001111   NYV1 A E463094772371517N840000000003510LW3Z00    07DNHAPPY HIPPIE             089653    VD84000000003510 N  549976487158                            000000000+                F DF 10433                     000000000  Y000000000 338   0000000000000.00 0000000.00   0000000.00                             000000000000000                                                                                                                                                     01418 A000000000000 0000000000000.24     00050 02200                  
02407470082850033DT67590675900000002881800888800000010180088877287283094900018800278040420230000002260309423000000000184258531257XXXXXX1210       MS02WI09          NY 1 0 AMDJ8UJV190404  N840000000022603          05DNHAPPY HIPPIE             144391    MD84000000022603 N  549976487158                            000000000+M10101C5434C    MDJ  10815                     000000000  1                0000000000000.00 0000000.00   0000000.00                             000000000000000                                                                                                                                                   B101418  000000000000 0000000000000.33     00050 02200                  
02407480082850034DT67590675900000002881800888800000010180088824001193094900018800284040420230000000027109423000000000184258494146XXXXXX6733       VK04VS111111111   NYV1 A E583094788124208N8400000000002713D8D00    07DNHAPPY HIPPIE             125339    VD84000000000271 N  549976487158                            000000000+                F DF 10439                     000000000  Y000000000 331   0000000000000.00 0000000.00   0000000.00                             000000000000000                                                                                                                                                     01418 F000000000000 0000000000000.22     00050 02200                  
02407490082850035BH6759067590000000766680010180000090170404202309423000000000045803    0000090001180017N8001016759C04052023                                                                                                                                                                                                                                                                                                                                                                                                                                                                                                                                                                                                 
02407500082850036DT67590675900000007666800101800000010180010124001193094900011800018040420230000000323709423000000000045803473703XXXXXX7953       VS11    0001111   NYV1 A E583094546010381N840000000003237WMVN00    05DNPLANET VAPOR INC #300    071258    VD84000000003237 N  599977384654                            000000000+                F DF 10433                     000000000  Y000000000 338   0000000000000.00 0000000.00   0000000.00                             000000000000000                                                                                                                                                     01418 A000000000000 0000000000000.24     00050 02200                  
02407510082850037DT67590675900000007666800101800000010180010176509753094900011800024040420230000000215909423000000000045803601101XXXXXX4038   BA50                  NY41 0 N753080759880757N840000000002159    00    05DNPLANET VAPOR INC #300    00441R    DS84000000002159 N  599977384654050                         000000000+0000004910H00   DCCDI01000665038  111948000000 000000000  0          112   0000000000000.00 0000000.00   0000000.00                             000000000000000                                                                                                                                                     01418  000000000000 0000000000000.47     01720 01000                  
02407520082850038DT67590675900000007666800101800000010180010124001193094900011800034040420230000000323809423000000000045803423223XXXXXX0360       VS11    0001111   NYV1 A E463094588487790N84000000000323849VD00    05DNPLANET VAPOR INC #300    058380    VD84000000003238 N  599977384654                            000000000+                F DF 00381                     000000000  N000000000       0000000000000.00 0000000.00   0000000.00                             000000000000000                                                                                                                                                     01418 A000000000000 0000000000000.41     00800 01500                  
02407530082850039DT67590675900000007666800101800000010180010124001193094900011800042040420230000000292309423000000000045803440393XXXXXX3723       VS11    0001111   NYV1 A E463094648268868N840000000002923Q8ZX00    05DNPLANET VAPOR INC #300    773007    VD84000000002923 N  599977384654                            000000000+                F PF 08170                     000000000  N000000000       0000000000000.00 0000000.00   0000000.00                             000000000000000                                                                                                                                                     01418 A000000000000 0000000000000.49     01150 01500                  
02407540082850040DT67590675900000007666800101800000010180010176509753094900011800057040420230000000161909423000000000045803601100XXXXXX1368   BA50                  NY41 0 N803080858740716N840000000001619    00    05DNPLANET VAPOR INC #300    00460R    DS84000000001619 N  599977384654050                         000000000+0000004910H00   DCCDI01000003190  140434000000 000000000  0          112   0000000000000.00 0000000.00   0000000.00                             000000000000000                                                                                                                                                     01418  000000000000 0000000000000.38     01720 01000                  
02407550082850041DT67590675900000007666800101800000010180010124001193094900011800067040420230000000464209423000000000045803473703XXXXXX9276       VS11    0001111   NYV1 A E383094662413074N84000000000464236L700    05DNPLANET VAPOR INC #300    059040    VD84000000004642 N  599977384654                            000000000+                F DF 10433                     000000000  Y000000000 338   0000000000000.00 0000000.00   0000000.00                             000000000000000                                                                                                                                                     01418 A000000000000 0000000000000.24     00050 02200                  
02407560082850042DT67590675900000007666800101800000010180010177287283094900011800077040420230000000237509423000000000045803517805XXXXXX6852       MS02WI09          NY 1 0 AMPLMUARX50404  N840000000002375          05DNPLANET VAPOR INC #300    09477B    MC84000000002375 N  599977384654                            000000000+M10101C5434C    MPL  00353                     000000000  N                0000000000000.00 0000000.00   0000000.00                             000000000000000                                                                                                                                                   B101418  000000000000 0000000000000.53     01800 01000                  
02407570082850043DT67590675900000007666800101800000010180010124001193094900011800083040420230000000323809423000000000045803437307XXXXXX9580       VS11    0001111   NYV1 A E383094691284157N840000000003238XCVL00    05DNPLANET VAPOR INC #300    213038    VD84000000003238 N  599977384654                            000000000+                F PF 08170                     000000000  N000000000       0000000000000.00 0000000.00   0000000.00                             000000000000000                                                                                                                                                     01418 A000000000000 0000000000000.52     01150 01500                  
02407580082850044DT67590675900000007666800101800000010180010124001193094900011800091040420230000000064809423000000000045803438419XXXXXX6657       VK04VS111111111   NYV1 A E303094740351516N840000000000648KGMC00    05DNPLANET VAPOR INC #300    063355    VD84000000000648 N  599977384654                            000000000+                F DF 00451                     000000000  N000000000 214   0000000000000.00 0000000.00   0000000.00                             000000000000000                                                                                                                                                     01418 F000000000000 0000000000000.14     01550 00400                  
02407590082850045DT67590675900000007666800101800000010180010176509753094900011800107040420230000000215909423000000000045803601101XXXXXX7103   BA50                  NY41 0 N813080952162081N840000000002159    00    05DNPLANET VAPOR INC #300    00439R    DS84000000002159 N  599977384654050                         000000000+0000004910H00   DCCDI01000335428  164016000000 000000000  0          112   0000000000000.00 0000000.00   0000000.00                             000000000000000                                                                                                                                                     01418  000000000000 0000000000000.47     01720 01000                  
02407600082850046DT67590675900000007666800101800000010180010176509753094900011800115040420230000000367009423000000000045803653949XXXXXX4635   BA82                  NY41 0 N813080990395607N840000000003670    00    07DNPLANET VAPOR INC #300    00477R    DS84000000003670 N  599977384654830                         000000000+0000004910H00   DCCDI01000333456  174359000000 000000000  0          112   0000000000000.00 0000000.00   0000000.00                             000000000000000                                                                                                                                                     01418  000000000000 0000000000000.73     01720 01000                  
02407610082850047DT67590675900000007666800101800000010180010124001193094900011800125040420230000000326409423000000000045803436172XXXXXX1633       VS11    0001111   NYV1 A E383094787806687N8400000000032645MN200    05DNPLANET VAPOR INC #300    065301    VD84000000003264 N  599977384654                            000000000+                F DF 00381                     000000000  N000000000       0000000000000.00 0000000.00   0000000.00                             000000000000000                                                                                                                                                     01418 A000000000000 0000000000000.41     00800 01500                  
02407620082850048DT67590675900000007666800101800000010180010177287283094900011800135040420230000000237509423000000000045803528149XXXXXX0173       MS02WI09          NY 1 0 AMDJAF5V1Q0404  N840000000002375          05DNPLANET VAPOR INC #300    066036    MD84000000002375 N  599977384654                            000000000+M10101C5434C    MDJ  00402                     000000000  N                0000000000000.00 0000000.00   0000000.00                             000000000000000                                                                                                                                                   B101418  000000000000 0000000000000.40     01050 01500                  
02407630082850049DT67590675900000007666800101800000010180010124001193094900011800141040420230000000269909423000000000045803473703XXXXXX4205       VS11    0001111   NYV1 A E303094805114069N8400000000026998NNQ00    05DNPLANET VAPOR INC #300    040700    VD84000000002699 N  599977384654                            000000000+                F DF 10433                     000000000  Y000000000 338   0000000000000.00 0000000.00   0000000.00                             000000000000000                                                                                                                                                     01418 A000000000000 0000000000000.23     00050 02200                  
02407640082850050DT67590675900000007666800101800000010180010124001193094900011800158040420230000000539909423000000000045803409311XXXXXX2303       VS11    0001111   NYV1 A E383094809124200N840000000005399SH6B00    05DNPLANET VAPOR INC #300    086615    VD84000000005399 N  599977384654                            000000000+                F DF 10433                     000000000  Y000000000 338   0000000000000.00 0000000.00   0000000.00                             000000000000000                                                                                                                                                     01418 A000000000000 0000000000000.25     00050 02200                  
02407650082850051DT67590675900000007666800101800000010180010177287283094900011800168040420230000000161909423000000000045803531257XXXXXX9326       MS02WI09          NY 1 0 AMDJABA5200404  N840000000001619          05DNPLANET VAPOR INC #300    145623    MD84000000001619 N  599977384654                            000000000+M10101C5434C    MDJ  10815                     000000000  1                0000000000000.00 0000000.00   0000000.00                             000000000000000                                                                                                                                                   B101418  000000000000 0000000000000.23     00050 02200                  
02407660082850052DT67590675900000007666800101800000010180010177287283094900011800176040420230000000053909423000000000045803514759XXXXXX5846       MS02WI09          NY 1 0 AMDJBD4U1Q0404  N840000000000539          05DNPLANET VAPOR INC #300    075731    MD84000000000539 N  599977384654                            000000000+M10101C5434C    MDJ  10815                     000000000  1                0000000000000.00 0000000.00   0000000.00                             000000000000000                                                                                                                                                   B101418  000000000000 0000000000000.22     00050 02200                  
02407670082850053BH6759067590000001094280010180000090170404202309423000000000059279    0000090001200016N8001016759C04052023                                                                                                                                                                                                                                                                                                                                                                                                                                                                                                                                                                                                 
02407680082850054DT67590675900000010942800101800000010180010124001193094900012000014040420230000000213909423000000000059279430602XXXXXX9601       VS11    0001111   NYV1 A E583094552022205N840000000002139CWXH00    05DNPLANET VAPOR INC #800    638826    VD84000000002139 N  599971384997                            000000000+                F DF 00381                     000000000  N000000000       0000000000000.00 0000000.00   0000000.00                             000000000000000                                                                                                                                                     01418 A000000000000 0000000000000.32     00800 01500                  
02407690082850055DT67590675900000010942800101800000010180010124001193094900012000022040420230000000149609423000000000059279461675XXXXXX5574       VK04VS111111111   NYV1 A E383094564458406N840000000001496SCR800    05DNPLANET VAPOR INC #800    408750    VD84000000001496 N  599971384997                            000000000+                F DF 00451                     000000000  N000000000 214   0000000000000.00 0000000.00   0000000.00                             000000000000000                                                                                                                                                     01418 F000000000000 0000000000000.27     01550 00400                  
02407700082850056DT67590675900000010942800101800000010180010124001193094900012000030040420230000000240609423000000000059279461675XXXXXX3608       VS11    0001111   NYV1 A E463094599342532N840000000002406KZ2500    05DNPLANET VAPOR INC #800    452950    VD84000000002406 N  599971384997                            000000000+                F DF 00381                     000000000  N000000000       0000000000000.00 0000000.00   0000000.00                             000000000000000                                                                                                                                                     01418 A000000000000 0000000000000.34     00800 01500                  
02407710082850057DT67590675900000010942800101800000010180010124001193094900012000048040420230000000385009423000000000059279473703XXXXXX8043       VS11    0001111   NYV1 A E383094631920890N8400000000038502NJF00    05DNPLANET VAPOR INC #800    038561    VD84000000003850 N  599971384997                            000000000+                F DF 10433                     000000000  Y000000000 338   0000000000000.00 0000000.00   0000000.00                             000000000000000                                                                                                                                                     01418 A000000000000 0000000000000.24     00050 02200                  
02407720082850058DT67590675900000010942800101800000010180010124001193094900012000055040420230000000556209423000000000059279474475XXXXXX1749       VS11    0001111   NYV1 A E583094638059995N840000000005562J72300    05DNPLANET VAPOR INC #800    144135    VD84000000005562 N  599971384997                            000000000+                F DF 10433                     000000000  Y000000000 338   0000000000000.00 0000000.00   0000000.00                             000000000000000                                                                                                                                                     01418 A000000000000 0000000000000.25     00050 02200                  
02407730082850059DT67590675900000010942800101800000010180010124001193094900012000063040420230000000545309423000000000059279410702XXXXXX8612       VS11    0001111   NYV1 A E383094664371319N840000000005453SXSS00    05DNPLANET VAPOR INC #800    138563    VD84000000005453 N  599971384997                            000000000+                F DF 00381                     000000000  N000000000       0000000000000.00 0000000.00   0000000.00                             000000000000000                                                                                                                                                     01418 A000000000000 0000000000000.59     00800 01500                  
02407740082850060DT67590675900000010942800101800000010180010176509753094900012000079040420230000000288709423000000000059279601100XXXXXX1020   BA50                  NY41 0 N863080873748174N840000000002887    00    05DNPLANET VAPOR INC #800    00406R    DS84000000002887 N  599971384997050                         000000000+0000004910H00   DCCDI01000498169  142934000000 000000000  0          112   0000000000000.00 0000000.00   0000000.00                             000000000000000                                                                                                                                                     01418  000000000000 0000000000000.60     01720 01000                  
02407750082850061DT67590675900000010942800101800000010180010177287283094900012000081040420230000000320909423000000000059279546645XXXXXX8927       MS02WI09          NY 1 0 AMPLFXZSYE0404  N840000000003209          05DNPLANET VAPOR INC #800    004797    MC84000000003209 N  599971384997                            000000000+M10101C5434C    MPL  00015                     000000000  N                0000000000000.00 0000000.00   0000000.00                             000000000000000                                                                                                                                                   B101418  000000000000 0000000000000.63     01650 01000                  
02407760082850062DT67590675900000010942800101800000010180010124001193094900012000097040420230000000173109423000000000059279414740XXXXXX1675       VS11    0001111   NYV1 A E383094687385275N840000000001731V55S00    05DNPLANET VAPOR INC #800    06156C    VS84000000001731 N  599971384997                            000000000+                C CC 12112                     000000000  N000000000 497   0000000000000.00 0000000.00   0000000.00                             000000000000000                                                                                                                                                     01418 A000000000000 0000000000000.39     01650 01000                  
02407770082850063DT67590675900000010942800101800000010180010177287283094900012000107040420230000000481309423000000000059279515676XXXXXX2070       MS02WI09          NY 1 0 AMWEZMMUX50404  N840000000004813          05DNPLANET VAPOR INC #800    08677Z    MC84000000004813 N  599971384997                            000000000+M10101C5434C    MWE  00739                     000000000  N                0000000000000.00 0000000.00   0000000.00                             000000000000000                                                                                                                                                   B101418  000000000000 0000000000001.21     02300 01000                  
02407780082850064DT67590675900000010942800101800000010180010124001193094900012000113040420230000000577709423000000000059279402020XXXXXX7231       VS11    0001111   NYV1 A E583094707309594N8400000000057774GWZ00    05DNPLANET VAPOR INC #800    728819    VD84000000005777 N  599971384997                            000000000+                F DF 00381                     000000000  N000000000       0000000000000.00 0000000.00   0000000.00                             000000000000000                                                                                                                                                     01418 A000000000000 0000000000000.61     00800 01500                  
02407790082850065DT67590675900000010942800101800000010180010124001193094900012000121040420230000000320809423000000000059279474166XXXXXX4959       VS11    0001111   NYV1 A E583094726634154N840000000003208H63L00    07DNPLANET VAPOR INC #800    027275    VD84000000003208 N  599971384997                            000000000+                G DG 10351                     000000000  Y000000000 338   0000000000000.00 0000000.00   0000000.00                             000000000000000                                                                                                                                                     01418 A000000000000 0000000000000.24     00050 02200                  
02407800082850066DT67590675900000010942800101800000010180010177287283094900012000131040420230000000481209423000000000059279531258XXXXXX9262       MS02WI09          NY 1 0 AMDJUJ24X50404  N840000000004812          07DNPLANET VAPOR INC #800    121354    MD84000000004812 N  599971384997                            000000000+M10101M0034C    MDJ  10815                     000000000  1                0000000000000.00 0000000.00   0000000.00                             000000000000000                                                                                                                                                   B101418  000000000000 0000000000000.24     00050 02200                  
02407810082850067DT67590675900000010942800101800000010180010124001193094900012000147040420230000000235309423000000000059279441707XXXXXX7169       VS11    0001111   NYV1 A E463094775135965N840000000002353TZPQ00    07DNPLANET VAPOR INC #800    583965    VD84000000002353 N  599971384997                            000000000+                F PF 08170                     000000000  N000000000       0000000000000.00 0000000.00   0000000.00                             000000000000000                                                                                                                                                     01418 A000000000000 0000000000000.42     01150 01500                  
02407820082850068DT67590675900000010942800101800000010180010177287283094900012000156040420230000000534809423000000000059279531258XXXXXX2589       MS02WI09          NY 1 0 AMDJO6TA200404  N840000000005348          07DNPLANET VAPOR INC #800    113124    MD84000000005348 N  599971384997                            000000000+M10101M5434C    MDJ  10815                     000000000  1                0000000000000.00 0000000.00   0000000.00                             000000000000000                                                                                                                                                   B101418  000000000000 0000000000000.25     00050 02200                  
02407830082850069DT67590675900000010942800101800000010180010124001193094900012000162040420230000000423509423000000000059279438419XXXXXX7229       VS11    0001111   NYV1 A E583094850299231N8400000000042355K8B00    05DNPLANET VAPOR INC #800    093710    VD84000000004235 N  599971384997                            000000000+                F DF 00381                     000000000  N000000000       0000000000000.00 0000000.00   0000000.00                             000000000000000                                                                                                                                                     01418 A000000000000 0000000000000.49     00800 01500                  
02407840082850070BH6759067590000001129680010180000090170404202309423000000000036283    0000090001190012N8001016759C04052023                                                                                                                                                                                                                                                                                                                                                                                                                                                                                                                                                                                                 
02407850082850071DT67590675900000011296800101800000010180010124001193094900011900016040420230000000169909423000000000036283408138XXXXXX4066       VS11    0001111   NYV1 A E303094511040521N840000000001699ZDLS00    07DNPLANET VAPOR INC #900    330279    VD84000000001699 N  599977385017                            000000000+                F PF 08170                     000000000  N000000000       0000000000000.00 0000000.00   0000000.00                             000000000000000                                                                                                                                                     01418 A000000000000 0000000000000.35     01150 01500                  
02407860082850072DT67590675900000011296800101800000010180010177287283094900011900026040420230000000453409423000000000036283530264XXXXXX0812       MS02WI09          NY 1 0 AMDHXFXUVC0404  N840000000004534          07DNPLANET VAPOR INC #900    793982    MD84000000004534 N  599977385017                            000000000+M10101M0034C    MDH  00402                     000000000  N                0000000000000.00 0000000.00   0000000.00                             000000000000000                                                                                                                                                   B101418  000000000000 0000000000000.63     01050 01500                  
02407870082850073DT67590675900000011296800101800000010180010124001193094900011900032040420230000000582909423000000000036283473702XXXXXX3191       VS11    0001111   NYV1 A E383094674062194N840000000005829K7X900    05DNPLANET VAPOR INC #900    095135    VD84000000005829 N  599977385017                            000000000+                F DF 10433                     000000000  Y000000000 338   0000000000000.00 0000000.00   0000000.00                             000000000000000                                                                                                                                                     01418 A000000000000 0000000000000.25     00050 02200                  
02407880082850074DT67590675900000011296800101800000010680010177287283094900011900042040420230000000242909423000000000036283512230XXXXXX6303                         NY91 0 N         0404  N840000000000000          01CNPLANET VAPOR INC #900              MC84000000002429 N  599977385017                            000000000+M1010115414C    MWE  00564                     000000000  N                0000000000000.00 0000000.00   0000000.00                             000000000000000                                                                                                                                                     01418  000000000000-0000000000000.43     01750 00000                  
02407890082850075DT67590675900000011296800101800000010180010124001193094900011900057040420230000000135909423000000000036283474474XXXXXX0215       VK04VS111111111   NYV1 A E583094697233125N840000000001359N6KH00    07DNPLANET VAPOR INC #900    112229    VD84000000001359 N  599977385017                            000000000+                F DF 10439                     000000000  Y000000000 331   0000000000000.00 0000000.00   0000000.00                             000000000000000                                                                                                                                                     01418 F000000000000 0000000000000.23     00050 02200                  
02407900082850076DT67590675900000011296800101800000010180010124001193094900011900065040420230000000269909423000000000036283475818XXXXXX4146       VS11    0001111   NYV1 A E383094698729445N840000000002699SWH200    05DNPLANET VAPOR INC #900    167116    VD84000000002699 N  599977385017                            000000000+                F DF 00381                     000000000  N000000000       0000000000000.00 0000000.00   0000000.00                             000000000000000                                                                                                                                                     01418 A000000000000 0000000000000.37     00800 01500                  
02407910082850077DT67590675900000011296800101800000010180010124001193094900011900073040420230000000446909423000000000036283448232XXXXXX9915       VS11    0001111   NYV1 A E583094732780185N840000000004469ZPJ500    05DNPLANET VAPOR INC #900    062110    VD84000000004469 N  599977385017                            000000000+                F DF 00381                     000000000  N000000000       0000000000000.00 0000000.00   0000000.00                             000000000000000                                                                                                                                                     01418 A000000000000 0000000000000.51     00800 01500                  
02407920082850078DT67590675900000011296800101800000010180010124001193094900011900081040420230000000237509423000000000036283410039XXXXXX0442       VS11    0001111   NYV1 A E383094770828537N840000000002375R4HZ00    07DNPLANET VAPOR INC #900    98290D    VS84000000002375 N  599977385017                            000000000+                D CD 12113                     000000000  N000000000 499   0000000000000.00 0000000.00   0000000.00                             000000000000000                                                                                                                                                     01418 A000000000000 0000000000000.60     02100 01000                  
02407930082850079DT67590675900000011296800101800000010180010124001193094900011900099040420230000000890709423000000000036283448261XXXXXX9745       VS11    0001111   NYV1 A E463094794536804N840000000008907FBXW00    07DNPLANET VAPOR INC #900    831413    VD84000000008907 N  599977385017                            000000000+                F DF 10433                     000000000  Y000000000 338   0000000000000.00 0000000.00   0000000.00                             000000000000000                                                                                                                                                     01418 A000000000000 0000000000000.26     00050 02200                  
02407940082850080DT67590675900000011296800101800000010180010177287283094900011900109040420230000000269909423000000000036283542418XXXXXX5398       MS02WI09          NY 1 0 AMPLNLPD200404  N840000000002699          07DNPLANET VAPOR INC #900    46735B    MC84000000002699 N  599977385017                            000000000+M10101M0034C    MPL  00353                     000000000  N                0000000000000.00 0000000.00   0000000.00                             000000000000000                                                                                                                                                   B101418  000000000000 0000000000000.59     01800 01000                  
02407950082850081DT67590675900000011296800101800000010180010177287283094900011900117040420230000000280709423000000000036283531258XXXXXX4741       MS02WI09          NY 1 0 AMDJAKLL1Q0404  N840000000002807          05DNPLANET VAPOR INC #900    132652    MD84000000002807 N  599977385017                            000000000+M10101C5434C    MDJ  10815                     000000000  1                0000000000000.00 0000000.00   0000000.00                             000000000000000                                                                                                                                                   B101418  000000000000 0000000000000.23     00050 02200                  
02407960082850082DT67590675900000011296800101800000010180010124001193094900011900123040420230000000133509423000000000036283483316XXXXXX2370       VK04VS111111111   NYV1 A E303094840935517N840000000001335RJNK00    07DNPLANET VAPOR INC #900    042119    VD84000000001335 N  599977385017                            000000000+                F DF 10439                     000000000  Y000000000 331   0000000000000.00 0000000.00   0000000.00                             000000000000000                                                                                                                                                     01418 F000000000000 0000000000000.23     00050 02200                  
02407970082850083BH6759067590000001956280010180000090170404202309423000000000010525    0000090001070004N8001016759C04052023                                                                                                                                                                                                                                                                                                                                                                                                                                                                                                                                                                                                 
02407980082850084DT67590675900000019562800101800000010180010124001193094900010700011040420230000000064709423000000000010525435630XXXXXX2729       VK04VS111111111   NYV1 A E463094556509889N840000000000647FPQ500    05DNPLANET VAPOR #1100       142272    VD84000000000647 N  599977439645                            000000000+                F DF 10439                     000000000  Y000000000 331   0000000000000.00 0000000.00   0000000.00                             000000000000000                                                                                                                                                     01418 F000000000000 0000000000000.22     00050 02200                  
02407990082850085DT67590675900000019562800101800000010180010124001193094900010700029040420230000000242909423000000000010525442756XXXXXX7907       VS11    0001111   NYV1 A E383094655081624N840000000002429ZQXW00    05DNPLANET VAPOR #1100       091114    VD84000000002429 N  599977439645                            000000000+                F DF 10433                     000000000  Y000000000 338   0000000000000.00 0000000.00   0000000.00                             000000000000000                                                                                                                                                     01418 A000000000000 0000000000000.23     00050 02200                  
02408000082850086DT67590675900000019562800101800000010180010124001193094900010700037040420230000000475009423000000000010525461675XXXXXX0446       VS11    0001111   NYV1 A E583094655841334N840000000004750H6KD00    05DNPLANET VAPOR #1100       518640    VD84000000004750 N  599977439645                            000000000+                F DF 00381                     000000000  N000000000       0000000000000.00 0000000.00   0000000.00                             000000000000000                                                                                                                                                     01418 A000000000000 0000000000000.53     00800 01500                  
02408010082850087DT67590675900000019562800101800000010180010177287283094900010700047040420230000000269909423000000000010525515676XXXXXX6693       MS02WI09          NY 1 0 AMWE7MB6190404  N840000000002699          05DNPLANET VAPOR #1100       00738Z    MC84000000002699 N  599977439645                            000000000+M10101C5434C    MWE  00739                     000000000  N                0000000000000.00 0000000.00   0000000.00                             000000000000000                                                                                                                                                   B101418  000000000000 0000000000000.72     02300 01000                  
02408020082850088BH6759067590000000708880010180000090170404202309423000000000055194    0000090001200020N8001016759C04052023                                                                                                                                                                                                                                                                                                                                                                                                                                                                                                                                                                                                 
02408030082850089DT67590675900000007088800101800000010180010177287283094900012000016040420230000000242909423000000000055194515676XXXXXX6250       MS02WI09          NY 1 0 AMWEZ0VN0J0404  N840000000002429          05DNPLANET VAPOR INC #200    05859Z    MC84000000002429 N  599977384620                            000000000+M10101C5434C    MWE  00739                     000000000  N                0000000000000.00 0000000.00   0000000.00                             000000000000000                                                                                                                                                   B101418  000000000000 0000000000000.66     02300 01000                  
02408040082850090DT67590675900000007088800101800000010180010124001193094900012000022040420230000000242909423000000000055194441707XXXXXX2367       VS11    0001111   NYV1 A E463094605678988N840000000002429749K00    07DNPLANET VAPOR INC #200    364545    VD84000000002429 N  599977384620                            000000000+                F PF 08170                     000000000  N000000000       0000000000000.00 0000000.00   0000000.00                             000000000000000                                                                                                                                                     01418 A000000000000 0000000000000.43     01150 01500                  
02408050082850091DT67590675900000007088800101800000010180010124001193094900012000030040420230000000237509423000000000055194466189XXXXXX2453       VS11    0001111   NYV1 A E583094637993781N8400000000023755V5G00    07DNPLANET VAPOR INC #200    024417    VD84000000002375 N  599977384620                            000000000+                F DF 10433                     000000000  Y000000000 338   0000000000000.00 0000000.00   0000000.00                             000000000000000                                                                                                                                                     01418 A000000000000 0000000000000.23     00050 02200                  
02408060082850092DT67590675900000007088800101800000010180010124001193094900012000048040420230000000242909423000000000055194473702XXXXXX4666       VS11    0001111   NYV1 A E383094644674357N840000000002429G5M900    07DNPLANET VAPOR INC #200    057176    VD84000000002429 N  599977384620                            000000000+                F DF 10433                     000000000  Y000000000 338   0000000000000.00 0000000.00   0000000.00                             000000000000000                                                                                                                                                     01418 A000000000000 0000000000000.23     00050 02200                  
02408070082850093DT67590675900000007088800101800000010180010124001193094900012000055040420230000000151109423000000000055194400022XXXXXX1698       VS11    0001111   NYV1 A E303094674826505N840000000001511BF6500    07DNPLANET VAPOR INC #200    811887    VD84000000001511 N  599977384620                            000000000+                F DF 10433                     000000000  Y000000000 338   0000000000000.00 0000000.00   0000000.00                             000000000000000                                                                                                                                                     01418 A000000000000 0000000000000.23     00050 02200                  
02408080082850094DT67590675900000007088800101800000010180010124001193094900012000063040420230000000237509423000000000055194444796XXXXXX4593       VS11    0001111   NYV1 A E583094706696551N840000000002375MF7P00    05DNPLANET VAPOR INC #200    004946    VS84000000002375 N  599977384620                            000000000+                A CA 12110                     000000000  N000000000 493   0000000000000.00 0000000.00   0000000.00                             000000000000000                                                                                                                                                     01418 A000000000000 0000000000000.46     01510 01000                  
02408090082850095DT67590675900000007088800101800000010180010124001193094900012000071040420230000000136009423000000000055194473703XXXXXX0370       VK04VS111111111   NYV1 A E463094718024419N84000000000136095N900    07DNPLANET VAPOR INC #200    030665    VD84000000001360 N  599977384620                            000000000+                F DF 10439                     000000000  Y000000000 331   0000000000000.00 0000000.00   0000000.00                             000000000000000                                                                                                                                                     01418 F000000000000 0000000000000.23     00050 02200                  
02408100082850096DT67590675900000007088800101800000010180010124001193094900012000089040420230000000188909423000000000055194400022XXXXXX0450       VS11    0001111   NYV1 A E583094718940476N840000000001889DJ7500    05DNPLANET VAPOR INC #200    613504    VD84000000001889 N  599977384620                            000000000+                F DF 10433                     000000000  Y000000000 338   0000000000000.00 0000000.00   0000000.00                             000000000000000                                                                                                                                                     01418 A000000000000 0000000000000.23     00050 02200                  
02408110082850097DT67590675900000007088800101800000010180010177287283094900012000099040420230000001074109423000000000055194531258XXXXXX2839       MS02WI09          NY 1 0 AMDJOFWHX50404  N840000000010741          05DNPLANET VAPOR INC #200    111201    MD84000000010741 N  599977384620                            000000000+M10101C5434C    MDJ  10815                     000000000  1                0000000000000.00 0000000.00   0000000.00                             000000000000000                                                                                                                                                   B101418  000000000000 0000000000000.27     00050 02200                  
02408120082850098DT67590675900000007088800101800000010180010124001193094900012000105040420230000000252609423000000000055194455225XXXXXX3784       VS11    0001111   NYV1 A E463094751834665N840000000002526MJTQ00    05DNPLANET VAPOR INC #200    H57894    VD84000000002526 N  599977384620                            000000000+                F DF 10433                     000000000  Y000000000 338   0000000000000.00 0000000.00   0000000.00                             000000000000000                                                                                                                                                     01418 A000000000000 0000000000000.23     00050 02200                  
02408130082850099DT67590675900000007088800101800000010180010124001193094900012000113040420230000000076309423000000000055194440393XXXXXX2254       VK04VS111111111   NYV1 A E583094770236339N8400000000007637TTJ00    05DNPLANET VAPOR INC #200    533889    VD84000000000763 N  599977384620                            000000000+                F PF 08165                     000000000  N000000000       0000000000000.00 0000000.00   0000000.00                             000000000000000                                                                                                                                                     01418 F000000000000 0000000000000.17     01600 00500                  
02408140082850100DT67590675900000007088800101800000010180010177287283094900012000123040420230000000669309423000000000055194552433XXXXXX0703       MS02WI09          NY 1 0 AMPLD1RE7B0404  N840000000006693          07DNPLANET VAPOR INC #200    09113M    MC84000000006693 N  599977384620                            000000000+M10101M5434C    MPL  00353                     000000000  N                0000000000000.00 0000000.00   0000000.00                             000000000000000                                                                                                                                                   B101418  000000000000 0000000000001.30     01800 01000                  
02408150082850101DT67590675900000007088800101800000010180010124001193094900012000139040420230000000184909423000000000055194414740XXXXXX9202       VS11    0001111   NYV1 A E303094775294324N8400000000018494V7500    05DNPLANET VAPOR INC #200    06280D    VS84000000001849 N  599977384620                            000000000+                D CD 12113                     000000000  N000000000 499   0000000000000.00 0000000.00   0000000.00                             000000000000000                                                                                                                                                     01418 A000000000000 0000000000000.49     02100 01000                  
02408160082850102DT67590675900000007088800101800000010180010124001193094900012000147040420230000000215909423000000000055194440886XXXXXX1572       VS11    0001111   NYV1 A E463094780298406N840000000002159T9VN00    05DNPLANET VAPOR INC #200    661800    VS84000000002159 N  599977384620                            000000000+                B CB 12111                     000000000  N000000000 495   0000000000000.00 0000000.00   0000000.00                             000000000000000                                                                                                                                                     01418 A000000000000 0000000000000.46     01650 01000                  
02408170082850103DT67590675900000007088800101800000010180010177287283094900012000156040420230000000086309423000000000055194517805XXXXXX2042       MS02WI09          NY 1 0 AMPL8RII190404  N840000000000863          05DNPLANET VAPOR INC #200    06776B    MC84000000000863 N  599977384620                            000000000+M10101C5434C    MPL  00353                     000000000  N                0000000000000.00 0000000.00   0000000.00                             000000000000000                                                                                                                                                   B101418  000000000000 0000000000000.26     01800 01000                  
02408180082850104DT67590675900000007088800101800000010180010124001193094900012000162040420230000000377909423000000000055194446542XXXXXX5916       VS11    0001111   NYV1 A E303094789517765N8400000000037797FXC00    05DNPLANET VAPOR INC #200    004174    VS84000000003779 N  599977384620                            000000000+                D CD 12113                     000000000  N000000000 499   0000000000000.00 0000000.00   0000000.00                             000000000000000                                                                                                                                                     01418 A000000000000 0000000000000.89     02100 01000                  
02408190082850105DT67590675900000007088800101800000010180010177287283094900012000172040420230000000213709423000000000055194531258XXXXXX8992       MS02WI09          NY 1 0 AMDJG098200404  N840000000002137          05DNPLANET VAPOR INC #200    144601    MD84000000002137 N  599977384620                            000000000+M10101C5434C    MDJ  10815                     000000000  1                0000000000000.00 0000000.00   0000000.00                             000000000000000                                                                                                                                                   B101418  000000000000 0000000000000.23     00050 02200                  
02408200082850106DT67590675900000007088800101800000010180010124001193094900012000188040420230000000213709423000000000055194400022XXXXXX4255       VS11    0001111   NYV1 A E303094823904477N840000000002137R5WC00    05DNPLANET VAPOR INC #200    105893    VD84000000002137 N  599977384620                            000000000+                F DF 10433                     000000000  Y000000000 338   0000000000000.00 0000000.00   0000000.00                             000000000000000                                                                                                                                                     01418 A000000000000 0000000000000.23     00050 02200                  
02408210082850107DT67590675900000007088800101800000010180010177287283094900012000198040420230000000237509423000000000055194531258XXXXXX5241       MS02WI09          NY 1 0 AMDJAHT8200404  N840000000002375          07DNPLANET VAPOR INC #200    110308    MD84000000002375 N  599977384620                            000000000+M10101M0034C    MDJ  10815                     000000000  1                0000000000000.00 0000000.00   0000000.00                             000000000000000                                                                                                                                                   B101418  000000000000 0000000000000.23     00050 02200                  
02408220082850108DT67590675900000007088800101800000010180010124001193094900012000204040420230000000237509423000000000055194403766XXXXXX6106       VS11    0001111   NYV1 A E383094841871685N840000000002375XBRP00    07DNPLANET VAPOR INC #200    814032    VS84000000002375 N  599977384620                            000000000+                A CA 12110                     000000000  N000000000 493   0000000000000.00 0000000.00   0000000.00                             000000000000000                                                                                                                                                     01418 A000000000000 0000000000000.46     01510 01000                  
02408230082850109BH6759067590000000995180010180000090170404202309423000000000042756    0000090001190009N8001016759C04052023                                                                                                                                                                                                                                                                                                                                                                                                                                                                                                                                                                                                 
02408240082850110DT67590675900000009951800101800000010180010177287283094900011900018040420230000000205109423000000000042756542418XXXXXX4229       MS02WI09          NY 1 0 AMWEKBCTI20404  N840000000002051          07DNPLANET VAPOR INC #600    61239P    MC84000000002051 N  599977384956                            000000000+M10101M0034C    MWE  00739                     000000000  N                0000000000000.00 0000000.00   0000000.00                             000000000000000                                                                                                                                                   B101418  000000000000 0000000000000.57     02300 01000                  
02408250082850111DT67590675900000009951800101800000010180010124001193094900011900024040420230000000215909423000000000042756473703XXXXXX8080       VS11    0001111   NYV1 A E463094649266442N84000000000215958ZZ00    07DNPLANET VAPOR INC #600    065397    VD84000000002159 N  599977384956                            000000000+                F DF 10433                     000000000  Y000000000 338   0000000000000.00 0000000.00   0000000.00                             000000000000000                                                                                                                                                     01418 A000000000000 0000000000000.23     00050 02200                  
02408260082850112DT67590675900000009951800101800000010180010124001193094900011900032040420230000000993209423000000000042756433477XXXXXX4140       VS11    0001111   NYV1 A E583094711033863N840000000009932QTRW00    05DNPLANET VAPOR INC #600    001982    VD84000000009932 N  599977384956                            000000000+                F DF 10433                     000000000  Y000000000 338   0000000000000.00 0000000.00   0000000.00                             000000000000000                                                                                                                                                     01418 A000000000000 0000000000000.27     00050 02200                  
02408270082850113DT67590675900000009951800101800000010180010124001193094900011900040040420230000000831309423000000000042756443047XXXXXX7894       VS11    0001111   NYV1 A E463094740071728N840000000008313CQHN00    05DNPLANET VAPOR INC #600    660817    VD84000000008313 N  599977384956                            000000000+                F DF 10433                     000000000  Y000000000 338   0000000000000.00 0000000.00   0000000.00                             000000000000000                                                                                                                                                     01418 A000000000000 0000000000000.26     00050 02200                  
02408280082850114DT67590675900000009951800101800000010180010124001193094900011900057040420230000000680209423000000000042756449370XXXXXX2387       VS11    0001111   NYV1 A E303094802613009N8400000000068025QDH00    05DNPLANET VAPOR INC #600    678637    VD84000000006802 N  599977384956                            000000000+                F DF 00381                     000000000  N000000000       0000000000000.00 0000000.00   0000000.00                             000000000000000                                                                                                                                                     01418 A000000000000 0000000000000.69     00800 01500                  
02408290082850115DT67590675900000009951800101800000010180010124001193094900011900065040420230000000237509423000000000042756410881XXXXXX1140       VS11    0001111   NYV1 A E583094840838891N8400000000023756W9G00    05DNPLANET VAPOR INC #600    350472    VD84000000002375 N  599977384956                            000000000+                F DF 00381                     000000000  N000000000       0000000000000.00 0000000.00   0000000.00                             000000000000000                                                                                                                                                     01418 A000000000000 0000000000000.34     00800 01500                  
02408300082850116DT67590675900000009951800101800000010180010124001193094900011900073040420230000000237509423000000000042756440393XXXXXX5050       VS11    0001111   NYV1 A E583094852188293N8400000000023754MWS00    07DNPLANET VAPOR INC #600    268406    VD84000000002375 N  599977384956                            000000000+                F PF 08170                     000000000  N000000000       0000000000000.00 0000000.00   0000000.00                             000000000000000                                                                                                                                                     01418 A000000000000 0000000000000.42     01150 01500                  
02408310082850117DT67590675900000009951800101800000010180010124001193094900011900081040420230000000863709423000000000042756448261XXXXXX4942       VS11    0001111   NYV1 A E303094856826103N8400000000086379RXM00    07DNPLANET VAPOR INC #600    332441    VD84000000008637 N  599977384956                            000000000+                F DF 10433                     000000000  Y000000000 338   0000000000000.00 0000000.00   0000000.00                             000000000000000                                                                                                                                                     01418 A000000000000 0000000000000.26     00050 02200                  
02408320082850118DT67590675900000009951800101800000010180010124001193094900011900099040420230000000011209423000000000042756433477XXXXXX4005       VK04VS111111111   NYV1 A E463094858313991N840000000000112CPWC00    05DNPLANET VAPOR INC #600    231572    VD84000000000112 N  599977384956                            000000000+                F DF 10439                     000000000  Y000000000 331   0000000000000.00 0000000.00   0000000.00                             000000000000000                                                                                                                                                     01418 F000000000000 0000000000000.22     00050 02200                  
02408330082850119BH6759067590000001090080010180000090170404202309423000000000076580    0000090001200020N8001016759C04052023                                                                                                                                                                                                                                                                                                                                                                                                                                                                                                                                                                                                 
02408340082850120DT67590675900000010900800101800000010180010124001193094900012000014040420230000000923009423000000000076580441839XXXXXX3143       VS11    0001111   NYV1 A E303094513240844N840000000009230M3RS00    05DNPLANET VAPOR INC #700    487608    VS84000000009230 N  599977384978                            000000000+                C CC 12112                     000000000  N000000000 497   0000000000000.00 0000000.00   0000000.00                             000000000000000                                                                                                                                                     01418 A000000000000 0000000000001.62     01650 01000                  
02408350082850121DT67590675900000010900800101800000010180010124001193094900012000022040420230000000863609423000000000076580458643XXXXXX3991       VS11    0001111   NYV1 A E583094582428328N840000000008636VD6S00    05DNPLANET VAPOR INC #700    H19757    VD84000000008636 N  599977384978                            000000000+                F DF 10433                     000000000  Y000000000 338   0000000000000.00 0000000.00   0000000.00                             000000000000000                                                                                                                                                     01418 A000000000000 0000000000000.26     00050 02200                  
