00011070609010002BH6759067590000000995180010180000090170524202314423000000000016284    0000090001690006Y8001016759C05252023069                                                                                                                                                                                                                                                                                                                                                                                                                                                                                                                                                                                              
00011080609010003DT67590675900000009951800101800000010180010177287283144900016900013052420230000000388714423000000000016284543668XXXXXX2658       MS02WI09          NY 1 0 AMCSYEG6440524  N840000000003887          05DNPLANET VAPOR INC #600    024933    MC84000000003887 N  599977384956                            000000000+M10101C5434C    MCS  00015                     000000000  N                0000000000000.00 0000000.00   0000000.00                             000000000000000                                                                                                                                                   B101424  000000000000 0000000000000.74     01650 01000                  
00011090609010001E167590675900000009951800101800000010100E0F8C80001 00000000000.00404040404040404040404040404040404040404040404040400110A00001220000000000000000000000FF00000000000000000000000000  000108401800800000800023052472057BD26219131BBB031C8B404040400840A00000000410100000000000000000008018947BD253CBED00120000000000004040401E40404040 000000038.87 000000000.001E03000000000000000000    80                                                                                                                                                                                                                                                                                                                  
00011100609010002G2675906759000000099518001018000000101FLORENCE                 SC           5 S                                                        NNNN              000000000000000000000000                                                                   77384956                                                                                                                                                                                                                                                                                                                                                                                                                                               
00011110609010004DT67590675900000009951800101800000010180010124001193144900016900029052420230000000191414423000000000016284434769XXXXXX9289       VS11    0001111   NYV1 A E303144689952949N840000000001914T76F00    05DNPLANET VAPOR INC #600    050915    VD84000000001914 N  599977384956                            000000000+                F DF 10433                     000000000  Y000000000 338   0000000000000.00 0000000.00   0000000.00                             000000000000000                                                                                                                                                     01424 A000000000000 0000000000000.23     00050 02200                  
00011120609010001E167590675900000009951800101800000010100E0F8C803BE 00000000000.004040404040404040404040404040404040404040404040404006011203A08000000000000000000000404040404040404040404040404040  0000084018008080008000230524B6C9BFF5D0A2B9E5BC69B0D5404040400840A000000003101000000000000000000010E0A0A00080000020200000000000004040401E40404040 000000019.14 000000000.001E00000000000000000000    80                                                                                                                                                                                                                                                                                                                  
00011130609010002G2675906759000000099518001018000000101FLORENCE                 SC           5 D                00                                      NNNN00 N 00                   000000000000                                                                   77384956                                                                                                                                                                                                                                                                                                                                                                                                                                               
00011140609010005DT67590675900000009951800101800000010180010124001193144900016900037052420230000000275314423000000000016284434769XXXXXX9289       VS11    0001111   NYV1 A E463144740050027N840000000002753M66T00    05DNPLANET VAPOR INC #600    053316    VD84000000002753 N  599977384956                            000000000+                F DF 10433                     000000000  Y000000000 338   0000000000000.00 0000000.00   0000000.00                             000000000000000                                                                                                                                                     01424 A000000000000 0000000000000.23     00050 02200                  
00011150609010001E167590675900000009951800101800000010100E0F8C803BF 00000000000.004040404040404040404040404040404040404040404040404006011203A08000000000000000000000404040404040404040404040404040  0000084018008080008000230524945EB425FEAB71ED255D4283404040400840A0000000031010000000000000000000D05020100080000020200000000000004040401E40404040 000000027.53 000000000.001E00000000000000000000    80                                                                                                                                                                                                                                                                                                                  
00011160609010002G2675906759000000099518001018000000101FLORENCE                 SC           5 D                00                                      NNNN00 N 00                   000000000000                                                                   77384956                                                                                                                                                                                                                                                                                                                                                                                                                                               
00011170609010006DT67590675900000009951800101800000010180010177287283144900016900047052420230000000539714423000000000016284517862XXXXXX5671       MS02WI09          NY 1 0 AMDJTRMLEE0524  N840000000005397          05DNPLANET VAPOR INC #600    056335    MD84000000005397 N  599977384956                            000000000+M10101C5434C    MDJ  10715                     000000000  B                0000000000000.00 0000000.00   0000000.00                             000000000000000                                                                                                                                                   B101424  000000000000 0000000000000.24     00050 02100                  
00011180609010001E167590675900000009951800101800000010100E0F8C804A0 00000000000.00404040404040404040404040404040404040404040404040400110A00001220000000000000000000000FF00000000000000000000000000  00000840180080000080002305249266B1B7CCBAD7FAC5D50D68404040400840A00000000410100000000000000000001C40DD6D7D0BFAEE031A0000000000004040401E40404040 000000053.97 000000000.001E03000000000000000000    80                                                                                                                                                                                                                                                                                                                  
00011190609010002G2675906759000000099518001018000000101FLORENCE                 SC           5 J                                                        NNNN              000000000000000000000000                        7                                          77384956                                                                                                                                                                                                                                                                                                                                                                                                                                               
00011200609010007DT67590675900000009951800101800000010180010124001193144900016900052052420230000000108014423000000000016284493478XXXXXX6383       VK04VS111111111   NYV1 A E303144787660950N8400000000010804SCG00    90DNPLANET VAPOR INC #600    828293    VD84000000001080 N  599977384956                            000000000+                F PF 10474                     000000000  Y000000000 331   0000000000000.00 0000000.00   0000000.00                             000000000000000                                                                                                                                                     01424 F000000000000 0000000000000.23     00050 02200                  
00011210609010001G2675906759000000099518001018000000101FLORENCE                 SC           5 P                00                                      NNNN00 N 00                   000000000000                                                                   77384956                                                                                                                                                                                                                                                                                                                                                                                                                                               
00011220609010008DT67590675900000009951800101800000010180010124001193144900016900060052420230000000125314423000000000016284448233XXXXXX9834       VK04VS111111111   NYV1 A E383144847415678N840000000001253PZSD00    07DNPLANET VAPOR INC #600    083221    VD84000000001253 N  599977384956                            000000000+                F DF 10439                     000000000  Y000000000 331   0000000000000.00 0000000.00   0000000.00                             000000000000000                                                                                                                                                     01424 F000000000000 0000000000000.23     00050 02200                  
00011230609010001E167590675900000009951800101800000010100E068C80196 00000000000.004040404040404040404040404040404040404040404040404006011203A00000000000000000000000404040404040404040404040404040  00000840200000000000002305247449577EB231FB22997D883E404040400840A0000000031010000000000000000000404040404040404040404040404040404040404040404040 000000012.53 000000000.004040400000000000000000    80                                                                                                                                                                                                                                                                                                                  
00011240609010002G2675906759000000099518001018000000101FLORENCE                 SC           5 D                00                                      NNNN00 N 00                   000000000000                                                                   77384956                                                                                                                                                                                                                                                                                                                                                                                                                                               
00011250609010009BH6759067590000000370780088880000090170524202314423000000000107158    0000090001180932Y8008886759C05252023118                                                                                                                                                                                                                                                                                                                                                                                                                                                                                                                                                                                              
00011260609010010DT67590675900000003707800888800000010180088887287283144900011809192052320230000001379514423000000000107158524366XXXXXX1697       ME03KE06MS02      NY 4607AMPLHEMOUU0523  N840000000013795          81DNMR HEMP FLOWER           02317B    MC84000000013795 NDR549976053336   90000                    000000000+600450S00130    MPL  00580                     000000000  N                0000000000000.00 0000000.00   0000000.00                             000000000000000                                                                                                                                                   U001424  000000000000 0000000000003.00     02100 01000                  
00011270609010010DR67590675900000003707800888800000010190000                    Y000000000000                                                                                                                                                                                                                                                                                                                                                                                                                                                                                                                                                                                                                               
00011280609010001G2675906759000000037078008888000000101833-3877579              FL           9 L               210                                      NNNN           210000000000000000000000000                        7                                          76053336                                                                                                                                                                                                                                                                                                                                                                                                                                               
00011290609010011DT67590675900000003707800888800000010180088824001193144900011809209052420230000000549714423000000000107158473703XXXXXX6167               2111111   NYV4 A7W463144433941438N840000000005497PK3700    01DNMR HEMP FLOWER           057177    VD84000000005497 NDR549976053336   90004                    000000000+                F DF 10420                     000000000  Y000000000 338   0000000000000.00 0000000.00   0000000.00                             000000000000000                                                                                                                                                     01424 G000000005497 0000000000000.25     00050 02200                  
00011300609010011DR67590675900000003707800888800000010190004                    Y000000005497                 P1                                                                                                                                                                                                                                                                                                                                                                                                                                                                                                                                                                                                            
00011310609010001P16759067590000000370780088880000001010000000000000000                             2000000000000000000000000              000000000000                    0000000000000000000000000                    000000000000                                                                                                                                                                                                                                                                                                                                                                                                                                                                                        
00011320609010002G2675906759000000037078008888000000101833-3877579              FL           9 D                00                                      NNNN   N                      000000000000                                                                   76053336                                                                                                                                                                                                                                                                                                                                                                                                                                               
00011330609010012DT67590675900000003707800888800000010180088824001193144900011809217052420230000001269814423000000000107158479853XXXXXX8299               2111111   NYV4 A7W303144491172988N840000000012698HK6L00    01DNMR HEMP FLOWER           804283    VB84000000012698 NDR549976053336   90005                    000000000+                G4CG411355                     000000000  N000000000 377   0000000000000.00 0000000.00   0000000.00                             000000000000000                                                                                                                                                     01424 G000000012698 0000000000003.85     02950 01000                  
00011340609010012DR67590675900000003707800888800000010190005                    Y000000012698                 P1                                                                                                                                                                                                                                                                                                                                                                                                                                                                                                                                                                                                            
00011350609010001P16759067590000000370780088880000001010000000000000000                             2000000000000000000000000              000000000000                    0000000000000000000000000                    000000000000                                                                                                                                                                                                                                                                                                                                                                                                                                                                                        
00011360609010002G2675906759000000037078008888000000101833-3877579              FL           9 C                00                                      NNNN   Y                      000000000000                                                                   76053336                                                                                                                                                                                                                                                                                                                                                                                                                                               
00011370609010013DT67590675900000003707800888800000010180088887287283144900011809226052420230000000199814423000000000107158523914XXXXXX9790       ME03KE06PT01      NY 4607AMCWLTX8Y60524  N840000000001998          81DNMR HEMP FLOWER           01308Z    MC84000000001998 NDR549976053336   90012                    000000000+600450S00130    MCW  00642                     000000000  N                0000000000000.00 0000000.00   0000000.00                             000000000000000                                                                                                                                                   U001424  000000000000 0000000000000.54     02200 01000                  
00011380609010013DR67590675900000003707800888800000010190012                    Y000000000000                                                                                                                                                                                                                                                                                                                                                                                                                                                                                                                                                                                                                               
00011390609010001G2675906759000000037078008888000000101833-3877579              FL           9 W               210                                      NNNN           210000000000000000000000000                        7                                          76053336                                                                                                                                                                                                                                                                                                                                                                                                                                               
00011400609010014DT67590675900000003707800888800000010180088887287283144900011809234052420230000001429914423000000000107158520069XXXXXX3709       ME03KE06PT01      NY 4607AMCWLVJ7Y60524  N840000000014299          81DNMR HEMP FLOWER           024730    MC84000000014299 NDR549976053336   90014                    000000000+600450S00130    MCW  00642                     000000000  N                0000000000000.00 0000000.00   0000000.00                             000000000000000                                                                                                                                                   U001424  000000000000 0000000000003.25     02200 01000                  
00011410609010014DR67590675900000003707800888800000010190014                    Y000000000000                                                                                                                                                                                                                                                                                                                                                                                                                                                                                                                                                                                                                               
00011420609010001G2675906759000000037078008888000000101833-3877579              FL           9 W               210                                      NNNN           210000000000000000000000000                        7                                          76053336                                                                                                                                                                                                                                                                                                                                                                                                                                               
00011430609010015DT67590675900000003707800888800000010180088824001193144900011809241052420230000000769814423000000000107158473702XXXXXX0985               2111111   NYV4 A7W583144542928489N840000000007698Z2G300    01DNMR HEMP FLOWER           037033    VD84000000007698 NDR549976053336   90015                    000000000+                F DF 10420                     000000000  Y000000000 338   0000000000000.00 0000000.00   0000000.00                             000000000000000                                                                                                                                                     01424 G000000007698 0000000000000.26     00050 02200                  
00011440609010015DR67590675900000003707800888800000010190015                    Y000000007698                 P1                                                                                                                                                                                                                                                                                                                                                                                                                                                                                                                                                                                                            
00011450609010001P16759067590000000370780088880000001010000000000000000                             2000000000000000000000000              000000000000                    0000000000000000000000000                    000000000000                                                                                                                                                                                                                                                                                                                                                                                                                                                                                        
00011460609010002G2675906759000000037078008888000000101833-3877579              FL           9 D                00                                      NNNN   N                      000000000000                                                                   76053336                                                                                                                                                                                                                                                                                                                                                                                                                                               
00011470609010016DT67590675900000003707800888800000010180088887287283144900011809259052420230000001600014423000000000107158552433XXXXXX3004       ME03KE06MS02      NY 4607AMPL2SQS180524  N840000000016000          81DNMR HEMP FLOWER           00047M    MC84000000016000 NDR549976053336   90016                    000000000+600450S00130    MPL  00580                     000000000  N                0000000000000.00 0000000.00   0000000.00                             000000000000000                                                                                                                                                   U001424  000000000000 0000000000003.46     02100 01000                  
00011480609010016DR67590675900000003707800888800000010190016                    Y000000000000                                                                                                                                                                                                                                                                                                                                                                                                                                                                                                                                                                                                                               
00011490609010001G2675906759000000037078008888000000101833-3877579              FL           9 L               210                                      NNNN           210000000000000000000000000                        7                                          76053336                                                                                                                                                                                                                                                                                                                                                                                                                                               
00011500609010017DT67590675900000003707800888800000010680088887287283144900011809267052420230000001899814423000000000107158527854XXXXXX3114                         NY 4607AMWE08MZ440524  N840000000018998          81CNMR HEMP FLOWER           014255    MC84000000018998 NDR549976053336   89988                    000000000+600450S00130    MWE  00565                     000000000  N                0000000000000.00 0000000.00   0000000.00                             000000000000000                                                                                                                                                     01424  000000000000-0000000000003.32     01750 00000                  
00011510609010017DR67590675900000003707800888800000010689988                    Y000000000000                                                                                                                                                                                                                                                                                                                                                                                                                                                                                                                                                                                                                               
00011520609010001G2675906759000000037078008888000000106833-3877579              FL           9 E               210                                      NNNN           210000000000000000000000000                        7                                          76053336                                                                                                                                                                                                                                                                                                                                                                                                                                               
00011530609010018DT67590675900000003707800888800000010180088887287283144900011809275052420230000001199914423000000000107158549460XXXXXX1114       ME03KE06MS02      NY 4607AMWEBSDTCM0524  N840000000011999          81DNMR HEMP FLOWER           02454P    MC84000000011999 NDR549976053336   90024                    000000000+600450S00130    MWE  00737                     000000000  N                0000000000000.00 0000000.00   0000000.00                             000000000000000                                                                                                                                                   U001424  000000000000 0000000000003.22     02600 01000                  
00011540609010018DR67590675900000003707800888800000010190024                    Y000000000000                                                                                                                                                                                                                                                                                                                                                                                                                                                                                                                                                                                                                               
00011550609010001G2675906759000000037078008888000000101833-3877579              FL           9 E               210                                      NNNN           210000000000000000000000000                        7                                          76053336                                                                                                                                                                                                                                                                                                                                                                                                                                               
00011560609010019DT67590675900000003707800888800000010180088824001193144900011809282052420230000001487514423000000000107158426684XXXXXX0049               2111111   NYV4 A7W463144653928580N840000000014875SBL300    01DNMR HEMP FLOWER           08578D    VS84000000014875 NDR549976053336   90026                    000000000+                D CD 12109                     000000000  N000000000 498   0000000000000.00 0000000.00   0000000.00                             000000000000000                                                                                                                                                     01424 G000000014875 0000000000003.82     02500 01000                  
00011570609010019DR67590675900000003707800888800000010190026                    Y000000014875                 P1                                                                                                                                                                                                                                                                                                                                                                                                                                                                                                                                                                                                            
00011580609010001P16759067590000000370780088880000001010000000000000000                             2000000000000000000000000              000000000000                    0000000000000000000000000                    000000000000                                                                                                                                                                                                                                                                                                                                                                                                                                                                                        
00011590609010002G2675906759000000037078008888000000101833-3877579              FL           9 C                00                                      NNNN   Y                      000000000000                                                                   76053336                                                                                                                                                                                                                                                                                                                                                                                                                                               
00011600609010020DT67590675900000003707800888800000010180088824001193144900011809290052420230000000649914423000000000107158483312XXXXXX1589               2111111   NYV4 A7W383144677327357N8400000000064994QFG00    01DNMR HEMP FLOWER           024814    VD84000000006499 NDR549976053336   90027                    000000000+                F DF 10420                     000000000  Y000000000 338   0000000000000.00 0000000.00   0000000.00                             000000000000000                                                                                                                                                     01424 G000000006499 0000000000000.25     00050 02200                  
00011610609010020DR67590675900000003707800888800000010190027                    Y000000006499                 P1                                                                                                                                                                                                                                                                                                                                                                                                                                                                                                                                                                                                            
00011620609010001P16759067590000000370780088880000001010000000000000000                             2000000000000000000000000              000000000000                    0000000000000000000000000                    000000000000                                                                                                                                                                                                                                                                                                                                                                                                                                                                                        
00011630609010002G2675906759000000037078008888000000101833-3877579              FL           9 D                00                                      NNNN   N                      000000000000                                                                   76053336                                                                                                                                                                                                                                                                                                                                                                                                                                               
00011640609010021DT67590675900000003707800888800000010180088824001193144900011809308052420230000000079914423000000000107158440393XXXXXX0801               2111111   NYV4 A7W583144678224174N840000000000799VVXB00    01DNMR HEMP FLOWER           782730    VD84000000000799 NDR549976053336   90028                    000000000+                F PF 08175                     000000000  N000000000       0000000000000.00 0000000.00   0000000.00                             000000000000000                                                                                                                                                     01424 G000000000799 0000000000000.34     01750 02000                  
00011650609010021DR67590675900000003707800888800000010190028                    Y000000000799                 P1                                                                                                                                                                                                                                                                                                                                                                                                                                                                                                                                                                                                            
00011660609010001P16759067590000000370780088880000001010000000000000000                             2000000000000000000000000              000000000000                    0000000000000000000000000                    000000000000                                                                                                                                                                                                                                                                                                                                                                                                                                                                                        
00011670609010002G2675906759000000037078008888000000101833-3877579              FL           9 P                00                                      NNNN   N                      000000000000                                                                   76053336                                                                                                                                                                                                                                                                                                                                                                                                                                               
00011680609010022DT67590675900000003707800888800000010180088887287283144900011809317052420230000001450014423000000000107158539680XXXXXX4041       ME03KE06PT01      NY 4607AMCWOL47580524  N840000000014500          81DNMR HEMP FLOWER           17654P    MC84000000014500 NDR549976053336   90035                    000000000+600450S00130    MCW  00642                     000000000  N                0000000000000.00 0000000.00   0000000.00                             000000000000000                                                                                                                                                   U001424  000000000000 0000000000003.29     02200 01000                  
00011690609010022DR67590675900000003707800888800000010190035                    Y000000000000                                                                                                                                                                                                                                                                                                                                                                                                                                                                                                                                                                                                                               
00011700609010001G2675906759000000037078008888000000101833-3877579              FL           9 W               210                                      NNNN           210000000000000000000000000                        7                                          76053336                                                                                                                                                                                                                                                                                                                                                                                                                                               
00011710609010023DT67590675900000003707800888800000010180088824001193144900011809324052420230000000549914423000000000107158453597XXXXXX8015               2111111   NYV4 A7W583144786624049N8400000000054993QBZ00    01DNMR HEMP FLOWER           335490    VD84000000005499 NDR549976053336   90036                    000000000+                F DF 00415                     000000000  N000000000       0000000000000.00 0000000.00   0000000.00                             000000000000000                                                                                                                                                     01424 G000000005499 0000000000001.06     01650 01500                  
00011720609010023DR67590675900000003707800888800000010190036                    Y000000005499                 P1                                                                                                                                                                                                                                                                                                                                                                                                                                                                                                                                                                                                            
00011730609010001P16759067590000000370780088880000001010000000000000000                             2000000000000000000000000              000000000000                    0000000000000000000000000                    000000000000                                                                                                                                                                                                                                                                                                                                                                                                                                                                                        
00011740609010002G2675906759000000037078008888000000101833-3877579              FL           9 D                00                                      NNNN   N                      000000000000                                                                   76053336                                                                                                                                                                                                                                                                                                                                                                                                                                               
00011750609010024BH6759067590000001516480088880000090170524202314423000000000228050    0000090001887843Y8008886759C05252023088                                                                                                                                                                                                                                                                                                                                                                                                                                                                                                                                                                                              
00011760609010025DT67590675900000015164800888800000010180088824001193144900018877159052320230000001987014423000000000228050408881XXXXXX0412               2111111   NYV4 A7W583140184414947N840000000019870LX2M00    01DNKETOFUSION833-923-3587   664834    VD84000000019870 NDR599977360677   6FEE24FDEFTA46584FFE1C5  000000000+                F DF 00415                     000000000  N000000000       0000000000000.00 0000000.00   0000000.00                             000000000000000                                                                                                                                                     01424 G000000019870 0000000000003.43     01650 01500                  
00011770609010025DR6759067590000001516480088880000001016FEE24FDEFTA46584FFE1C5  Y000000019870                 P1                                                                                                                                                                                                                                                                                                                                                                                                                                                                                                                                                                                                            
00011780609010001P16759067590000001516480088880000001010000000000000000                             2000000000000000000000000              000000000000                    0000000000000000000000000                    000000000000                                                                                                                                                                                                                                                                                                                                                                                                                                                                                        
00011790609010002G2675906759000000151648008888000000101801-4041097              UT           9 D                00                                      NNNN   N                      000000000000                                                                   77360677                                                                                                                                                                                                                                                                                                                                                                                                                                               
00011800609010026DT67590675900000015164800888800000010180088824001193144900018877175052320230000001194814423000000000228050441855XXXXXX3244               2111111   NYV4 A7W303140399133171N84000000001194835SF00    01DNKETOFUSION833-923-3587   964424    VS84000000011948 NDR599977360677   2286391F3DT9A50929A8DDA  000000000+                A CA 12106                     000000000  N000000000 492   0000000000000.00 0000000.00   0000000.00                             000000000000000                                                                                                                                                     01424 G000000011948 0000000000002.36     01890 01000                  
00011810609010026DR6759067590000001516480088880000001012286391F3DT9A50929A8DDA  Y000000011948                 P1                                                                                                                                                                                                                                                                                                                                                                                                                                                                                                                                                                                                            
00011820609010001P16759067590000001516480088880000001010000000000000000                             2000000000000000000000000              000000000000                    0000000000000000000000000                    000000000000                                                                                                                                                                                                                                                                                                                                                                                                                                                                                        
00011830609010002G2675906759000000151648008888000000101801-4041097              UT           9 C                00                                      NNNN   Y                      000000000000                                                                   77360677                                                                                                                                                                                                                                                                                                                                                                                                                                               
00011840609010027DT67590675900000015164800888800000010180088887287283144900018877200052320230000002487014423000000000228050552433XXXXXX5260       ME03KE06PT01      NY 4607AMCWJOSMRK0520  N840000000024870          81DNKETOFUSION833-923-3587   00315S    MC84000000024870 NDR599977360677   14FCD6DFAETB0771A6D0522  000000000+600450S00130    MCW  02182                     000000000  N                0000000000000.00 0000000.00   0000000.00                             000000000000000                                                                                                                                                   U001424  000000000000 0000000000006.57     02600 01000                  
00011850609010027DR67590675900000015164800888800000010114FCD6DFAETB0771A6D0522  Y000000000000                                                                                                                                                                                                                                                                                                                                                                                                                                                                                                                                                                                                                               
00011860609010001G2675906759000000151648008888000000101833-9233587              UT           9 W               210                                      NNNN           210000000000000000000000000                        7                                          77360677                                                                                                                                                                                                                                                                                                                                                                                                                                               
00011870609010028DT67590675900000015164800888800000010180088824001193144900018877217052320230000001987014423000000000228050410039XXXXXX9990               2111111   NYV4 A7W383140420054567N840000000019870L74L00    01DNKETOFUSION833-923-3587   11778C    VS84000000019870 NDR599977360677   93FD6B66C2TA27835D97427  000000000+                C CC 12108                     000000000  N000000000 496   0000000000000.00 0000000.00   0000000.00                             000000000000000                                                                                                                                                     01424 G000000019870 0000000000004.17     02050 01000                  
00011880609010028DR67590675900000015164800888800000010193FD6B66C2TA27835D97427  Y000000019870                 P1                                                                                                                                                                                                                                                                                                                                                                                                                                                                                                                                                                                                            
00011890609010001P16759067590000001516480088880000001010000000000000000                             2000000000000000000000000              000000000000                    0000000000000000000000000                    000000000000                                                                                                                                                                                                                                                                                                                                                                                                                                                                                        
00011900609010002G2675906759000000151648008888000000101801-4041097              UT           9 C                00                                      NNNN   Y                      000000000000                                                                   77360677                                                                                                                                                                                                                                                                                                                                                                                                                                               
00011910609010029DT67590675900000015164800888800000010180088824001193144900018877233052320230000001194814423000000000228050413588XXXXXX6298               2111111   NYV4 A7W463140507043108N840000000011948T2JH00    01DNKETOFUSION833-923-3587   987397    VD84000000011948 NDR599977360677   72C7266349T112EA4D726DA  000000000+                F DF 00415                     000000000  N000000000       0000000000000.00 0000000.00   0000000.00                             000000000000000                                                                                                                                                     01424 G000000011948 0000000000002.12     01650 01500                  
00011920609010029DR67590675900000015164800888800000010172C7266349T112EA4D726DA  Y000000011948                 P1                                                                                                                                                                                                                                                                                                                                                                                                                                                                                                                                                                                                            
00011930609010001P16759067590000001516480088880000001010000000000000000                             2000000000000000000000000              000000000000                    0000000000000000000000000                    000000000000                                                                                                                                                                                                                                                                                                                                                                                                                                                                                        
00011940609010002G2675906759000000151648008888000000101801-4041097              UT           9 D                00                                      NNNN   N                      000000000000                                                                   77360677                                                                                                                                                                                                                                                                                                                                                                                                                                               
00011950609010030DT67590675900000015164800888800000010180088887287283144900018877358052320230000001987014423000000000228050538710XXXXXX1815       ME03KE06MS02      NY 4607AMDJPPTJRK0520  N840000000019870          81DNKETOFUSION833-923-3587   008539    MD84000000019870 NDR599977360677   3E72721817T533E6020BB13  000000000+600450S00130    MDJ  00401                     000000000  N                0000000000000.00 0000000.00   0000000.00                             000000000000000                                                                                                                                                   U001424  000000000000 0000000000003.43     01650 01500                  
00011960609010030DR6759067590000001516480088880000001013E72721817T533E6020BB13  Y000000000000                                                                                                                                                                                                                                                                                                                                                                                                                                                                                                                                                                                                                               
00011970609010001G2675906759000000151648008888000000101833-9233587              UT           9 J               210                                      NNNN           210000000000000000000000000                                                                   77360677                                                                                                                                                                                                                                                                                                                                                                                                                                               
00011980609010031DT67590675900000015164800888800000010180088887287283144900018877374052320230000001499014423000000000228050552486XXXXXX2240       ME03KE06MS02      NY 4607AMWEK7IWS40520  N840000000014990          81DNKETOFUSION833-923-3587   00185Z    MC84000000014990 NDR599977360677   576B1EDF64T1CCC631156E8  000000000+600450S00130    MWE  00737                     000000000  N                0000000000000.00 0000000.00   0000000.00                             000000000000000                                                                                                                                                   U001424  000000000000 0000000000004.00     02600 01000                  
00011990609010031DR675906759000000151648008888000000101576B1EDF64T1CCC631156E8  Y000000000000                                                                                                                                                                                                                                                                                                                                                                                                                                                                                                                                                                                                                               
00012000609010001G2675906759000000151648008888000000101833-9233587              UT           9 E               210                                      NNNN           210000000000000000000000000                        7                                          77360677                                                                                                                                                                                                                                                                                                                                                                                                                                               
00012010609010032DT67590675900000015164800888800000010180088824001193144900018877381052320230000001987014423000000000228050443044XXXXXX3833               2111111   NYV4 A7W463140630056985N840000000019870D62G00    01DNKETOFUSION833-923-3587   418059    VD84000000019870 NDR599977360677   3B91EE4757TB6F5A271C165  000000000+                F DF 10420                     000000000  Y000000000 338   0000000000000.00 0000000.00   0000000.00                             000000000000000                                                                                                                                                     01424 G000000019870 0000000000000.32     00050 02200                  
00012020609010032DR6759067590000001516480088880000001013B91EE4757TB6F5A271C165  Z000000019870                 P1                                                                                                                                                                                                                                                                                                                                                                                                                                                                                                                                                                                                            
00012030609010001P16759067590000001516480088880000001010000000000000000                             2000000000000000000000000              000000000000                    0000000000000000000000000                    000000000000                                                                                                                                                                                                                                                                                                                                                                                                                                                                                        
00012040609010002G2675906759000000151648008888000000101801-4041097              UT           9 D                00                                      NNNN   N                      000000000000                                                                   77360677                                                                                                                                                                                                                                                                                                                                                                                                                                               
00012050609010033DT67590675900000015164800888800000010180088887287283144900018877390052320230000002487014423000000000228050552486XXXXXX1720       ME03KE06MS02      NY 4607AMWEZ7EMS40520  N840000000024870          81DNKETOFUSION833-923-3587   05281Z    MC84000000024870 NDR599977360677   54D8C10CB1TCB33A1457835  000000000+600450S00130    MWE  00737                     000000000  N                0000000000000.00 0000000.00   0000000.00                             000000000000000                                                                                                                                                   U001424  000000000000 0000000000006.57     02600 01000                  
00012060609010033DR67590675900000015164800888800000010154D8C10CB1TCB33A1457835  Y000000000000                                                                                                                                                                                                                                                                                                                                                                                                                                                                                                                                                                                                                               
00012070609010001G2675906759000000151648008888000000101833-9233587              UT           9 E               210                                      NNNN           210000000000000000000000000                        7                                          77360677                                                                                                                                                                                                                                                                                                                                                                                                                                               
00012080609010034DT67590675900000015164800888800000010180088824001193144900018877423052320230000001987014423000000000228050415384XXXXXX1266               2111111   NYV4 A7W303140724412017N840000000019870T9KD00    01DNKETOFUSION833-923-3587   981140    VD84000000019870 NDR599977360677   721EE23D36TDD77F7FB3FF2  000000000+                F DF 00415                     000000000  N000000000       0000000000000.00 0000000.00   0000000.00                             000000000000000                                                                                                                                                     01424 G000000019870 0000000000003.43     01650 01500                  
00012090609010034DR675906759000000151648008888000000101721EE23D36TDD77F7FB3FF2  Z000000019870                 P1                                                                                                                                                                                                                                                                                                                                                                                                                                                                                                                                                                                                            
00012100609010001P16759067590000001516480088880000001010000000000000000                             2000000000000000000000000              000000000000                    0000000000000000000000000                    000000000000                                                                                                                                                                                                                                                                                                                                                                                                                                                                                        
00012110609010002G2675906759000000151648008888000000101801-4041097              UT           9 D                00                                      NNNN   N                      000000000000                                                                   77360677                                                                                                                                                                                                                                                                                                                                                                                                                                               
00012120609010035DT67590675900000015164800888800000010180088824001193144900018877431052320230000001987014423000000000228050429435XXXXXX0646               2111111   NYV4 A7W303140760394757N840000000019870FZWD00    01DNKETOFUSION833-923-3587   020990    VS84000000019870 NDR599977360677   3AA14EA098T3B473B726DE0  000000000+                A CA 12106                     000000000  N000000000 492   0000000000000.00 0000000.00   0000000.00                             000000000000000                                                                                                                                                     01424 G000000019870 0000000000003.86     01890 01000                  
00012130609010035DR6759067590000001516480088880000001013AA14EA098T3B473B726DE0  Y000000019870                 P1                                                                                                                                                                                                                                                                                                                                                                                                                                                                                                                                                                                                            
00012140609010001P16759067590000001516480088880000001010000000000000000                             2000000000000000000000000              000000000000                    0000000000000000000000000                    000000000000                                                                                                                                                                                                                                                                                                                                                                                                                                                                                        
00012150609010002G2675906759000000151648008888000000101801-4041097              UT           9 C                00                                      NNNN   Y                      000000000000                                                                   77360677                                                                                                                                                                                                                                                                                                                                                                                                                                               
00012160609010036DT67590675900000015164800888800000010180088887287283144900018877440052320230000001987014423000000000228050518941XXXXXX8022       ME03KE06MS02      NY 4607AMWEDKFK120520  N840000000019870          81DNKETOFUSION833-923-3587   36612Z    MC84000000019870 NDR599977360677   EB03D3AD46TF6475D163A4F  000000000+600450S00130    MWE  00737                     000000000  N                0000000000000.00 0000000.00   0000000.00                             000000000000000                                                                                                                                                   U001424  000000000000 0000000000005.27     02600 01000                  
00012170609010036DR675906759000000151648008888000000101EB03D3AD46TF6475D163A4F  Y000000000000                                                                                                                                                                                                                                                                                                                                                                                                                                                                                                                                                                                                                               
00012180609010001G2675906759000000151648008888000000101833-9233587              UT           9 E               210                                      NNNN           210000000000000000000000000                        7                                          77360677                                                                                                                                                                                                                                                                                                                                                                                                                                               
00012190609010037DT67590675900000015164800888800000010180088824001193144900018877456052320230000002487014423000000000228050410039XXXXXX4409               2111111   NYV4 A7W383140771059386N840000000024870PH4G00    01DNKETOFUSION833-923-3587   26322D    VS84000000024870 NDR599977360677   0E75A557E5TC3A20C39BCD0  000000000+                D CD 12109                     000000000  N000000000 498   0000000000000.00 0000000.00   0000000.00                             000000000000000                                                                                                                                                     01424 G000000024870 0000000000006.32     02500 01000                  
00012200609010037DR6759067590000001516480088880000001010E75A557E5TC3A20C39BCD0  Y000000024870                 P1                                                                                                                                                                                                                                                                                                                                                                                                                                                                                                                                                                                                            
00012210609010001P16759067590000001516480088880000001010000000000000000                             2000000000000000000000000              000000000000                    0000000000000000000000000                    000000000000                                                                                                                                                                                                                                                                                                                                                                                                                                                                                        
00012220609010002G2675906759000000151648008888000000101801-4041097              UT           9 C                00                                      NNNN   Y                      000000000000                                                                   77360677                                                                                                                                                                                                                                                                                                                                                                                                                                               
00012230609010038DT67590675900000015164800888800000010180088824001193144900018877480052320230000001799114423000000000228050447404XXXXXX2139               2111111   NYV4 A7W583141003095501N840000000017991CDLZ00    01DNKETOFUSION833-923-3587   169966    VD84000000017991 NDR599977360677   9B5A3E620CT408AACC5CEE5  000000000+                F DF 10420                     000000000  Y000000000 338   0000000000000.00 0000000.00   0000000.00                             000000000000000                                                                                                                                                     01424 G000000017991 0000000000000.31     00050 02200                  
00012240609010038DR6759067590000001516480088880000001019B5A3E620CT408AACC5CEE5  Y000000017991                 P1                                                                                                                                                                                                                                                                                                                                                                                                                                                                                                                                                                                                            
00012250609010001P16759067590000001516480088880000001010000000000000000                             2000000000000000000000000              000000000000                    0000000000000000000000000                    000000000000                                                                                                                                                                                                                                                                                                                                                                                                                                                                                        
00012260609010002G2675906759000000151648008888000000101801-4041097              UT           9 D                00                                      NNNN   N                      000000000000                                                                   77360677                                                                                                                                                                                                                                                                                                                                                                                                                                               
00012270609010039DT67590675900000015164800888800000010180088824001193144900018877498052320230000001987014423000000000228050423223XXXXXX6757               2111111   NYV4 A7W583141033056190N8400000000198706MKR00    01DNKETOFUSION833-923-3587   076528    VD84000000019870 NDR599977360677   647C894702T51D2E39E09BA  000000000+                F DF 00415                     000000000  N000000000       0000000000000.00 0000000.00   0000000.00                             000000000000000                                                                                                                                                     01424 G000000019870 0000000000003.43     01650 01500                  
00012280609010039DR675906759000000151648008888000000101647C894702T51D2E39E09BA  Y000000019870                 P1                                                                                                                                                                                                                                                                                                                                                                                                                                                                                                                                                                                                            
00012290609010001P16759067590000001516480088880000001010000000000000000                             2000000000000000000000000              000000000000                    0000000000000000000000000                    000000000000                                                                                                                                                                                                                                                                                                                                                                                                                                                                                        
00012300609010002G2675906759000000151648008888000000101801-4041097              UT           9 D                00                                      NNNN   N                      000000000000                                                                   77360677                                                                                                                                                                                                                                                                                                                                                                                                                                               
00012310609010040DT67590675900000015164800888800000010680088874001193144900018878350052420230000000695414423000000000228050432672XXXXXX0088               0000000   NYV4 07T303144479331255N840000000006954L95H00    01CNKETOFUSION833-923-3587   091853    VD84000000006954 NDR599977360677   01B53A8D16TE6CA2CD5C9B5  000000000+                F DF 08168                     000000000  N000000000 369   0000000000000.00 0000000.00   0000000.00                             000000000000000                                                                                                                                                     01424  000000006954 0000000000000.00     00000 00000                  
00012320609010040DR67590675900000015164800888800000010601B53A8D16TE6CA2CD5C9B5  Y000000006954                 P1                                                                                                                                                                                                                                                                                                                                                                                                                                                                                                                                                                                                            
00012330609010001P16759067590000001516480088880000001060000000000000000                             2000000000000000000000000              000000000000                    0000000000000000000000000                    000000000000                                                                                                                                                                                                                                                                                                                                                                                                                                                                                        
00012340609010002G2675906759000000151648008888000000106801-4041097              UT           9 D                00                                      NNNN   N                      000000000000                                                                   77360677                                                                                                                                                                                                                                                                                                                                                                                                                                               
00012350609010041DT67590675900000015164800888800000010680088874001193144900018878376052420230000000643414423000000000228050438857XXXXXX9952               0000000   NYV4 07T463144623948586N840000000006434LDL900    01CNKETOFUSION833-923-3587   08628D    VS84000000006434 NDR599977360677   19DF566076TC096DDBB94B3  000000000+                D CD 00245                     000000000  N000000000 166   0000000000000.00 0000000.00   0000000.00                             000000000000000                                                                                                                                                     01424  000000006434-0000000000001.13     01760 00000                  
00012360609010041DR67590675900000015164800888800000010619DF566076TC096DDBB94B3  Y000000006434                 P1                                                                                                                                                                                                                                                                                                                                                                                                                                                                                                                                                                                                            
00012370609010001P16759067590000001516480088880000001060000000000000000                             2000000000000000000000000              000000000000                    0000000000000000000000000                    000000000000                                                                                                                                                                                                                                                                                                                                                                                                                                                                                        
00012380609010002G2675906759000000151648008888000000106801-4041097              UT           9 C                00                                      NNNN   Y                      000000000000                                                                   77360677                                                                                                                                                                                                                                                                                                                                                                                                                                               
00012390609010042DT67590675900000015164800888800000010680088887287283144900018878398052420230000001194814423000000000228050552736XXXXXX1331                         NY 4607AMPLGQRQCZ0524  N840000000011948          81CNKETOFUSION833-923-3587   093459    MC84000000011948 NDR599977360677   FFB40725CAT5BDCBA70795D  000000000+600450S00130    MPL  00564                     000000000  N                0000000000000.00 0000000.00   0000000.00                             000000000000000                                                                                                                                                     01424  000000000000-0000000000002.09     01750 00000                  
00012400609010042DR675906759000000151648008888000000106FFB40725CAT5BDCBA70795D  N000000000000                                                                                                                                                                                                                                                                                                                                                                                                                                                                                                                                                                                                                               
00012410609010001G2675906759000000151648008888000000106833-9233587              UT           9 L               210                                      NNNN           210000000000000000000000000                        7                                          77360677                                                                                                                                                                                                                                                                                                                                                                                                                                               
00012420609010043DT67590675900000015164800888800000010680088874001193144900018878400052420230000000348714423000000000228050448915XXXXXX0175               0000000   NYV4 07T383144754629110N840000000003487GK8H00    01CNKETOFUSION833-923-3587   024958    VS84000000003487 NDR599977360677   0F2458AC25TFCABF1798E72  000000000+                D CD 00245                     000000000  N000000000 166   0000000000000.00 0000000.00   0000000.00                             000000000000000                                                                                                                                                     01424  000000003487-0000000000000.61     01760 00000                  
00012430609010043DR6759067590000001516480088880000001060F2458AC25TFCABF1798E72  U000000003487                 P1                                                                                                                                                                                                                                                                                                                                                                                                                                                                                                                                                                                                            
00012440609010001P16759067590000001516480088880000001060000000000000000                             2000000000000000000000000              000000000000                    0000000000000000000000000                    000000000000                                                                                                                                                                                                                                                                                                                                                                                                                                                                                        
00012450609010002G2675906759000000151648008888000000106801-4041097              UT           9 C                00                                      NNNN   Y                      000000000000                                                                   77360677                                                                                                                                                                                                                                                                                                                                                                                                                                               
00012460609010044DT67590675900000015164800888800000010680088887287283144900018878414052420230000002487014423000000000228050542539XXXXXX4148                         NY 4607AMPLNSYVEE0524  N840000000024870          81CNKETOFUSION833-923-3587   024137    MC84000000024870 NDR599977360677   A272E8C118TF68740CCCD2F  000000000+600450S00130    MPL  00564                     000000000  N                0000000000000.00 0000000.00   0000000.00                             000000000000000                                                                                                                                                     01424  000000000000-0000000000004.35     01750 00000                  
00012470609010044DR675906759000000151648008888000000106A272E8C118TF68740CCCD2F  R000000000000                                                                                                                                                                                                                                                                                                                                                                                                                                                                                                                                                                                                                               
00012480609010001G2675906759000000151648008888000000106833-9233587              UT           9 L               210                                      NNNN           210000000000000000000000000                        7                                          77360677                                                                                                                                                                                                                                                                                                                                                                                                                                               
