01951890184190002BH6759067590000000096880088880000090171208202234222000000000000568    0000090001020001N8008886759C12092022                                                                                                                                                                                                                                                                                                                                                                                                                                                                                                                                                                                                 
01951900184190003DT67590675900000000968800888800000010180088877287282342900010200016120820220000000056834222000000000000568521333XXXXXX4224       MS02WI09          NY 1 0 AMWEFGITQ61208  N840000000000568          05DNHIGHER FLOUR LLC         00865P    MC84000000000568 N  546276194488                            000000000+M10101C5434C    MWE  00739                     000000000  N                0000000000000.00 0000000.00   0000000.00                             000000000000000                                                                                                                                                   B101418  000000000000 0000000000000.23     02300 01000                  
01951910184190004BH6759067590000000215480088880000090171208202234222000000001896400    0000090001571719N8008886759C12092022                                                                                                                                                                                                                                                                                                                                                                                                                                                                                                                                                                                                 
01951920184190005DT67590675900000002154800888800000010180088824001192342900015778493120820220000012760034222000000001896400431231XXXXXX0822               2111111   NYV4 A7W582342666552437N840000000127600P2LZ00    01DNDRIP DROP DISTRO LLC     053013    VD84000000127600 NP1519971004114   INV-27765                000000000+                G DG 10352                     000000000  Y000000000 338   0000000000000.00 0000000.00   0000000.00                             000000000000000                                                                                                                                                     01418 G000000127600 0000000000000.86     00050 02200                  
01951930184190001P16759067590000000215480088880000001010000000000000000    43809529667              2000000000000000000000000              000000000000                    0000000000000000000000000                    000000000000                                                                                                                                                                                                                                                                                                                                                                                                                                                                                        
01951940184190006DT67590675900000002154800888800000010180088824001192342900015779673120820220000012760034222000000001896400431231XXXXXX0822               2111111   NYV4 A7W462342667335567N8400000001276003XFN00    01DNDRIP DROP DISTRO LLC     033213    VD84000000127600 NP1519971004114   INV-27766                000000000+                G DG 10352                     000000000  Y000000000 338   0000000000000.00 0000000.00   0000000.00                             000000000000000                                                                                                                                                     01418 G000000127600 0000000000000.86     00050 02200                  
01951950184190001P16759067590000000215480088880000001010000000000000000    43809532641              2000000000000000000000000              000000000000                    0000000000000000000000000                    000000000000                                                                                                                                                                                                                                                                                                                                                                                                                                                                                        
01951960184190007DT67590675900000002154800888800000010180088824001192342900015795455120820220000138600034222000000001896400486697XXXXXX8448               2111111   NYV4 A7W462342632669330N8400000013860004Q7F00    01DNDRIP DROP DISTRO LLC     008409    VB84000001386000 NP1519971004114   INV-27759                000000000+                S CS 00692                     000000000  N000000000 237   0000000000000.00 0000000.00   0000000.00                             000000000000000                                                                                                                                                     01418 G000001386000 0000000000374.32     02700 01000                  
01951970184190001P16759067590000000215480088880000001010000000000000000    43809400110              2000000000000000000000000              000000000000                    0000000000000000000000000                    000000000000                                                                                                                                                                                                                                                                                                                                                                                                                                                                                        
01951980184190008DT67590675900000002154800888800000010180088824001192342900015780853120820220000012760034222000000001896400431231XXXXXX0822               2111111   NYV4 A7W582342665212231N840000000127600WBWZ00    01DNDRIP DROP DISTRO LLC     012813    VD84000000127600 NP1519971004114   INV-27769                000000000+                G DG 10352                     000000000  Y000000000 338   0000000000000.00 0000000.00   0000000.00                             000000000000000                                                                                                                                                     01418 G000000127600 0000000000000.86     00050 02200                  
01951990184190001P16759067590000000215480088880000001010000000000000000    43809524458              2000000000000000000000000              000000000000                    0000000000000000000000000                    000000000000                                                                                                                                                                                                                                                                                                                                                                                                                                                                                        
01952000184190009DT67590675900000002154800888800000010180088824001192342900015717194120820220000012760034222000000001896400431231XXXXXX0822               2111111   NYV4 A7W302342667666204N840000000127600ZL2X00    01DNDRIP DROP DISTRO LLC     073213    VD84000000127600 NP1519971004114   INV-27767                000000000+                G DG 10352                     000000000  Y000000000 338   0000000000000.00 0000000.00   0000000.00                             000000000000000                                                                                                                                                     01418 G000000127600 0000000000000.86     00050 02200                  
01952010184190001P16759067590000000215480088880000001010000000000000000    43809533937              2000000000000000000000000              000000000000                    0000000000000000000000000                    000000000000                                                                                                                                                                                                                                                                                                                                                                                                                                                                                        
01952020184190010BH6759067590000000096880088880000090171208202234222000000000003655    0000090001047442N8008886759C12092022                                                                                                                                                                                                                                                                                                                                                                                                                                                                                                                                                                                                 
01952030184190011DT67590675900000000968800888800000010180088824001192342900010474429120820220000000365534222000000000003655401171XXXXXX5034               2111111   NYV4 A7W382342462108747N840000000003655V8JM00    01DNHIGHER FLOUR LLC         075010    VD84000000003655 NP1546271004114   R57GNYBD9P2WHM2NINF7     000000000+                F DF 00415                     000000000  N000000000       0000000000000.00 0000000.00   0000000.00                             000000000000000                                                                                                                                                     01418 G000000003655 0000000000000.75     01650 01500                  
01952040184190001P16759067590000000096880088880000001010000000000000000                             2000000000000000000000000              000000000000                    0000000000000000000000000                    000000000000                                                                                                                                                                                                                                                                                                                                                                                                                                                                                        
