08170620021587386AD675906759000000198288001098000009077900011829360000000327405312023NYY15123YC6759800109060220232023130004974                                                                                                                                                                                                                                                                                                                                                                                                                                                                                                                                                                                              
08170630021587392AD675906759000000198288001098000009077900011829370000000259505312023NYY15123YC6759800109060220232023130004976                                                                                                                                                                                                                                                                                                                                                                                                                                                                                                                                                                                              
08170640021587398AD675906759000000198288001098000009077900013469610000001987005312023NYY15123YC6759800109060220232023130004993                                                                                                                                                                                                                                                                                                                                                                                                                                                                                                                                                                                              
08170650021587401AD675906759000000176738001068000009071900013814890000002178905312023NYY15123ND6759800106060220232023151016545                                                                                                                                                                                                                                                                                                                                                                                                                                                                                                                                                                                              
08170660021587404AD675906759000000198288001098000009071900013053600000001394805312023NYY15123ND6759800109060220232023151016546                                                                                                                                                                                                                                                                                                                                                                                                                                                                                                                                                                                              
08170670021587407AD675906759000000198288001098000009071900013362820000002255005312023NYY15123ND6759800109060220232023151016547                                                                                                                                                                                                                                                                                                                                                                                                                                                                                                                                                                                              
08170680021587410AD675906759000000268498001258000009071900012981370000001977005312023NYY15123ND6759800125060220232023151016548                                                                                                                                                                                                                                                                                                                                                                                                                                                                                                                                                                                              
08170690021587413AD675906759000000176738001068000009071900013312630000002178905312023NYY15123ND6759800106060220232023151016549                                                                                                                                                                                                                                                                                                                                                                                                                                                                                                                                                                                              
08170700021587416AD675906759000000176738001068000009071900013312640000000544905312023NYY15123ND6759800106060220232023151016550                                                                                                                                                                                                                                                                                                                                                                                                                                                                                                                                                                                              
08170710021587419AD675906759000000151648008888000009071900012236140000002255005312023NYY15123ND6759800888060220232023151016551                                                                                                                                                                                                                                                                                                                                                                                                                                                                                                                                                                                              
08170720021587422AD675906759000000151648008888000009071900011822420000002487005312023NYY15123ND6759800888060220232023151023732                                                                                                                                                                                                                                                                                                                                                                                                                                                                                                                                                                                              
08170730021911263AD675906759000000198288001098000009071231470011400000002487005312023NYY15123ND6759800109060220232023147001140                                                                                                                                                                                                                                                                                                                                                                                                                                                                                                                                                                                              
08170740021911266AD675906759000000198288001098000009071231470011420000000519005312023NYY15123ND6759800109060220232023147001142                                                                                                                                                                                                                                                                                                                                                                                                                                                                                                                                                                                              
08170750021911269AD675906759000000198288001098000009071231470011430000000654805312023NYY15123ND6759800109060220232023147001143                                                                                                                                                                                                                                                                                                                                                                                                                                                                                                                                                                                              
08170760024100002BH6759067590000000288180088880000090170601202315223000000000062108    0000090001250010N8008886759C06022023025                                                                                                                                                                                                                                                                                                                                                                                                                                                                                                                                                                                              
08170770024100003DT67590675900000002881800888800000010180088824001193152900012500012060120230000000927815223000000000062108498503XXXXXX9797       VS11    0001111   NYV1 A E463152522529850N8400000000092783V4S00    05DNHAPPY HIPPIE             086089    VD84000000009278 N  549976487169                            000000000+                F DF 00381                     000000000  N000000000       0000000000000.00 0000000.00   0000000.00                             000000000000000                                                                                                                                                     01418 A000000000000 0000000000000.89     00800 01500                  
08170780024100001E167590675900000002881800888800000010100E0F8C80124 00000000000.004040404040404040404040404040404040404040404040404006011203A00000000000000000000000404040404040404040404040404040  00000840180080800080002306016D413235CFA71A41F43D3DC2404040400840A00000000310100000000000000000000FF5DF600080000000000000000000004040401E40404040 000000092.78 000000000.001E00000000000000000000    80                                                                                                                                                                                                                                                                                                                  
08170790024100002G2675906759000000028818008888000000101SEVIERVILLE              TN           5 D                00                                      NNNN00 N 00                   000000000000                                                                   76487169                                                                                                                                                                                                                                                                                                                                                                                                                                               
08170800024100004DT67590675900000002881800888800000010180088824001193152900012500020060120230000001688615223000000000062108480639XXXXXX5051       VS11    0001111   NYV1 A E583152530655638N840000000016886BSX600    05DNHAPPY HIPPIE             750621    VD84000000016886 N  549976487169                            000000000+                F DF 00381                     000000000  N000000000       0000000000000.00 0000000.00   0000000.00                             000000000000000                                                                                                                                                     01418 A000000000000 0000000000001.50     00800 01500                  
08170810024100001E167590675900000002881800888800000010100E0F8C80043 00000000000.004040404040404040404040404040404040404040404040404006011203A0A000000000000000000000404040404040404040404040404040  0000084018008080008000230601F5474B77C0DB0C71D36DFD45404040400840A00000000310100000000000000000001F91760B0080000000000000000000004040401E40404040 000000168.86 000000000.001E00000000000000000000    80                                                                                                                                                                                                                                                                                                                  
08170820024100002G2675906759000000028818008888000000101SEVIERVILLE              TN           5 D                00                                      NNNN00 N 00                   000000000000                                                                   76487169                                                                                                                                                                                                                                                                                                                                                                                                                                               
08170830024100005DT67590675900000002881800888800000010180088877287283152900012500030060120230000000691115223000000000062108527854XXXXXX2182       MS02WI09          NY 1 0 AMWEIKJ8JH0601  N840000000006911          07DNHAPPY HIPPIE             21104Z    MC84000000006911 N  549976487169                            000000000+M10101M5434C    MWE  00743                     000000000  N                0000000000000.00 0000000.00   0000000.00                             000000000000000                                                                                                                                                   B101418  000000000000 0000000000001.63     02300 00400                  
08170840024100001E1675906759000000028818008888000000101000060C8011E 00000000000.00404040404040404040404040404040404040404040404040400110A04001220000000000000000000000FF00000000000000000000000000  00010840198000000080012306018B0FDA24EE36C19CC7BF6E27404040400840A000000004101000000000000000000049224D04528CE81500120000000000004040401E40404040 000000069.11 000000000.001E03000000000000000000    80                                                                                                                                                                                                                                                                                                                  
08170850024100002G2675906759000000028818008888000000101SEVIERVILLE              TN           5 E                                                        NNNN              000000000000000000000000       03               7                                          76487169                                                                                                                                                                                                                                                                                                                                                                                                                                               
08170860024100006DT67590675900000002881800888800000010180088824001193152900012500046060120230000000219515223000000000062108408138XXXXXX5652       VS11    0001111   NYV1 A E463152630566462N840000000002195SP4C00    07DNHAPPY HIPPIE             714230    VD84000000002195 N  549976487169                            000000000+                F PF 08170                     000000000  N000000000       0000000000000.00 0000000.00   0000000.00                             000000000000000                                                                                                                                                     01418 A000000000000 0000000000000.40     01150 01500                  
08170870024100001E167590675900000002881800888800000010100E068C80003 00000000000.00404040404040404040404040404040404040404040404040401F43FE51200000000000000000033626000000000000000000000000000000  000008400040000000000023060105A7BCBD015B9C944A2141D3404040400840A0000000031010000000000000000000404040404040404040404040404040404040404040404040 000000021.95 000000000.004040400000000000000000    80                                                                                                                                                                                                                                                                                                                  
08170880024100002G2675906759000000028818008888000000101SEVIERVILLE              TN           5 P                00                                      NNNN00 N 00                   000000000000                                                                   76487169                                                                                                                                                                                                                                                                                                                                                                                                                                               
08170890024100007DT67590675900000002881800888800000010180088824001193152900012500053060120230000000246815223000000000062108419090XXXXXX8251       VS11    0001111   NYV1 A E463152636992251N8400000000024682ZWF00    05DNHAPPY HIPPIE             646786    VD84000000002468 N  549976487169                            000000000+                F DF 00381                     000000000  N000000000       0000000000000.00 0000000.00   0000000.00                             000000000000000                                                                                                                                                     01418 A000000000000 0000000000000.35     00800 01500                  
08170900024100001E167590675900000002881800888800000010100E0F8C80182 00000000000.004040404040404040404040404040404040404040404040404006011203A02000000000000000000000404040404040404040404040404040  0001084018008080008000230601C5E8BE305D42F5E4BD0D8E2C404040400840A00000000310100000000000000000009A32253E0082000000000000000000004040401E40404040 000000024.68 000000000.001E00000000000000000000    80                                                                                                                                                                                                                                                                                                                  
08170910024100002G2675906759000000028818008888000000101SEVIERVILLE              TN           5 D                00                                      NNNN00 N 00                   000000000000                                                                   76487169                                                                                                                                                                                                                                                                                                                                                                                                                                               
08170920024100008DT67590675900000002881800888800000010180088824001193152900012500061060120230000000395115223000000000062108400022XXXXXX0750       VS11    0001111   NYV1 A E583152639804320N840000000003951RQ7P00    07DNHAPPY HIPPIE             368225    VD84000000003951 N  549976487169                            000000000+                F DF 10433                     000000000  Y000000000 338   0000000000000.00 0000000.00   0000000.00                             000000000000000                                                                                                                                                     01418 A000000000000 0000000000000.24     00050 02200                  
08170930024100001E167590675900000002881800888800000010100E068C801C0 00000000000.004040404040404040404040404040404040404040404040404006021203A00000000000000000000000404040404040404040404040404040  0000084000000000000000230601734083989A9EB81FF41F144A404040400840A0000000031010000000000000000000404040404040404040404040404040404040404040404040 000000039.51 000000000.004040400000000000000000    80                                                                                                                                                                                                                                                                                                                  
08170940024100002G2675906759000000028818008888000000101SEVIERVILLE              TN           5 D                00                                      NNNN00 N 00                   000000000000                                                                   76487169                                                                                                                                                                                                                                                                                                                                                                                                                                               
08170950024100009DT67590675900000002881800888800000010180088877287283152900012500071060120230000000795515223000000000062108514022XXXXXX4740       MS02WI09          NY 1 0 AMPLZG20XB0601  N840000000007955          07DNHAPPY HIPPIE             00914Z    MC84000000007955 N  549976487169                            000000000+M10101M5434C    MPL  00043                     000000000  N                0000000000000.00 0000000.00   0000000.00                             000000000000000                                                                                                                                                   B101418  000000000000 0000000000001.35     01650 00400                  
08170960024100001E1675906759000000028818008888000000101000060C800B9 00000000000.00404040404040404040404040404040404040404040404040400110A04003220000000000000000000000FF00000000000000000000000000  000108401980000000800123060159BC2737BABCE55296CCB045404040400840A0000000041010000000000000000000404040404040404040404040404040404040401E40404040 000000079.55 000000000.001E03000000000000000000    80                                                                                                                                                                                                                                                                                                                  
08170970024100002G2675906759000000028818008888000000101SEVIERVILLE              TN           5 L                                                        NNNN              000000000000000000000000       03               7                                          76487169                                                                                                                                                                                                                                                                                                                                                                                                                                               
08170980024100010DT67590675900000002881800888800000010180088877287283152900012500089060120230000000225815223000000000062108515676XXXXXX0299       MS02WI09          NY 1 0 AMWEZ4CIXB0601  N840000000002258          07DNHAPPY HIPPIE             08068Z    MC84000000002258 N  549976487169                            000000000+M10101M0034C    MWE  00743                     000000000  N                0000000000000.00 0000000.00   0000000.00                             000000000000000                                                                                                                                                   B101418  000000000000 0000000000000.56     02300 00400                  
08170990024100001E1675906759000000028818008888000000101000008480782 00000000000.00404040404040404040404040404040404040404040404040400110A04001220000000000000000000000FF00000000000000000000000000  0001084019800000008001230601F432C3CAF7894A9B84DF04FB404040400840A0000000041010000000000000000000404040404040404040404040404040404040401F40404040 000000022.58 000000000.001F03020000000000000000    80                                                                                                                                                                                                                                                                                                                  
08171000024100002G2675906759000000028818008888000000101SEVIERVILLE              TN           5 E                                                        NNNN              000000000000000000000000       03               7                                          76487169                                                                                                                                                                                                                                                                                                                                                                                                                                               
08171010024100011DT67590675900000002881800888800000010180088824001193152900012500095060120230000000658515223000000000062108445101XXXXXX0323       VS11    0001111   NYV1 A E583152691727404N840000000006585LCXH00    05DNHAPPY HIPPIE             117993    VD84000000006585 N  549976487169                            000000000+                F DF 10433                     000000000  Y000000000 338   0000000000000.00 0000000.00   0000000.00                             000000000000000                                                                                                                                                     01418 A000000000000 0000000000000.25     00050 02200                  
08171020024100001E167590675900000002881800888800000010100E0F8C80553 00000000000.004040404040404040404040404040404040404040404040404006011203A08000000000000000000000404040404040404040404040404040  0001084018008080008000230601B14FD6E279707E9E2BB53E13404040400840A00000000310100000000000000000008CD736720082000000000000000000004040401E40404040 000000065.85 000000000.001E00000000000000000000    80                                                                                                                                                                                                                                                                                                                  
08171030024100002G2675906759000000028818008888000000101SEVIERVILLE              TN           5 D                00                                      NNNN00 N 00                   000000000000                                                                   76487169                                                                                                                                                                                                                                                                                                                                                                                                                                               
08171040024100012DT67590675900000002881800888800000010180088877287283152900012500105060120230000000362115223000000000062108514377XXXXXX3166       MS02WI09          NY 1 0 AMDJP6XKWV0601  N840000000003621          07DNHAPPY HIPPIE             2HYULD    MD84000000003621 N  549976487169                            000000000+M10101M0034C    MDJ  00402                     000000000  N                0000000000000.00 0000000.00   0000000.00                             000000000000000                                                                                                                                                   B101418  000000000000 0000000000000.53     01050 01500                  
08171050024100001E16759067590000000288180088880000001010000084800CA 00000000000.00404040404040404040404040404040404040404040404040400110A04001220000000000000000000000FF00000000000000000000000000  00010840198000000080012306017DF7B0EC913FD254E7691F77404040400840A0000000041010000000000000000000404040404040404040404040404040404040401F40404040 000000036.21 000000000.001F03020000000000000000    80                                                                                                                                                                                                                                                                                                                  
08171060024100002G2675906759000000028818008888000000101SEVIERVILLE              TN           5 J                                                        NNNN              000000000000000000000000       03               7                                          76487169                                                                                                                                                                                                                                                                                                                                                                                                                                               
08171070024100013BH6759067590000000215480088880000090170601202315223000000001293800    0000090001983732N8008886759C06022023798                                                                                                                                                                                                                                                                                                                                                                                                                                                                                                                                                                                              
08171080024100014DT67590675900000002154800888800000010180088887287283152900019808542060120230000007135015223000000001293800529712XXXXXX0633                         NY 4607AMDBOQ3FI50601  N840000000071350          81DNDRIP DROP DISTRO LLC     867216    MD84000000071350 NDR519900000001   17881                    000000000+600450S00140    MDB  00062                     000000000  N                0000000000000.00 0000000.00   0000000.00                             000000000000000                                                                                                                                                   U001418  000000000000 0000000000019.01     02650 01000                  
08171090024100014DR67590675900000002154800888800000010117881                    Y000000000000                 P1                                                                                                                                                                                                                                                                                                                                                                                                                                                                                                                                                                                                            
08171100024100001P1675906759000000021548008888000000101                                                          000000000000          8000            471534935                                                                                                                                                                                                                                                                                                                                                                                                                                                                                                                                                            
08171110024100002G2675906759000000021548008888000000101208-7033453              ID           9 B               210                  471534935           YNNN           210000000000000000000000000                        7                                          71004114                                                                                                                                                                                                                                                                                                                                                                                                                                               
08171120024100015DT67590675900000002154800888800000010180088824001193152900019836344060120230000005850015223000000001293800425797XXXXXX7646               2111111   NYV4 A7W303152142089055N840000000058500FMJ600    01DNDRIP DROP DISTRO LLC     053194    VD84000000058500 NDR519971004114   INV-002164               000000000+                G DG 08705                     000000000  N000000000       0000000000000.00 0000000.00   0000000.00                             000000000000000                                                                                                                                                     01418 G000000058500 0000000000014.43     02450 01000                  
08171130024100015DR675906759000000021548008888000000101INV-002164               Y000000058500                 P1                                                                                                                                                                                                                                                                                                                                                                                                                                                                                                                                                                                                            
08171140024100001P16759067590000000215480088880000001010000000000000000    44132315607              2000000000000000000000000              000000000000                    0000000000000000000000000                    000000000000                                                                                                                                                                                                                                                                                                                                                                                                                                                                                        
08171150024100002G2675906759000000021548008888000000101800-9833326              ID           9 D                00                                      NNNN   N                      000000000000                                                                   71004114                                                                                                                                                                                                                                                                                                                                                                                                                                               
08171160024100016DT67590675900000002154800888800000010180088824001193152900019886901060120230000006725015223000000001293800449254XXXXXX7409               2111111   NYV4 A7W463151800343914N840000000067250CHGL00    01DNDRIP DROP DISTRO LLC     343110    VD84000000067250 NDR519971004114   INV-002445               000000000+                F DF 00415                     000000000  N000000000       0000000000000.00 0000000.00   0000000.00                             000000000000000                                                                                                                                                     01418 G000000067250 0000000000011.25     01650 01500                  
08171170024100016DR675906759000000021548008888000000101INV-002445               Z000000067250                 P1                                                                                                                                                                                                                                                                                                                                                                                                                                                                                                                                                                                                            
08171180024100001P16759067590000000215480088880000001010000000000000000                             2000000000000000000000000              000000000000                    0000000000000000000000000                    000000000000                                                                                                                                                                                                                                                                                                                                                                                                                                                                                        
08171190024100002G2675906759000000021548008888000000101800-9833326              ID           9 D                00                                      NNNN   N                      000000000000                                                                   71004114                                                                                                                                                                                                                                                                                                                                                                                                                                               
08171200024100017DT67590675900000002154800888800000010180088824001193152900019838969060120230000008480015223000000001293800480213XXXXXX7422               2111111   NYV4 A7W303152623519772N8400000000848008MGN00    01DNDRIP DROP DISTRO LLC     073610    VB84000000084800 NDR519971004114   INV-002328               000000000+                G4CG411355                     000000000  N000000000 377   0000000000000.00 0000000.00   0000000.00                             000000000000000                                                                                                                                                     01418 G000000084800 0000000000025.12     02950 01000                  
08171210024100017DR675906759000000021548008888000000101INV-002328               Y000000084800                 P1                                                                                                                                                                                                                                                                                                                                                                                                                                                                                                                                                                                                            
08171220024100001P16759067590000000215480088880000001010000000000000000    44133743208              2000000000000000000000000              000000000000                    0000000000000000000000000                    000000000000                                                                                                                                                                                                                                                                                                                                                                                                                                                                                        
08171230024100002G2675906759000000021548008888000000101800-9833326              ID           9 C                00                                      NNNN   Y                      000000000000                                                                   71004114                                                                                                                                                                                                                                                                                                                                                                                                                                               
08171240024100018DT67590675900000002154800888800000010180088887287283152900019876382060120230000093750015223000000001293800547415XXXXXX6981                         NY 4607AMEBFDBR6A0601  N840000000937500          81DNDRIP DROP DISTRO LLC     09466Q    MB84000000937500 NDR519900000001   INV-002444               000000000+600450S00140    MEB  11637                     000000000  N                0000000000000.00 0000000.00   0000000.00                             000000000000000                                                                                                                                                   U001418  000000000000 0000000000281.35     03000 01000                  
08171250024100018DR675906759000000021548008888000000101INV-002444               Y000000000000                 P1                                                                                                                                                                                                                                                                                                                                                                                                                                                                                                                                                                                                            
08171260024100001P1675906759000000021548008888000000101                                                          000000000000          8000            471534935                                                                                                                                                                                                                                                                                                                                                                                                                                                                                                                                                            
08171270024100002G2675906759000000021548008888000000101208-7033453              ID           9 B               210                  471534935           YNNN           210000000000000000000000000                        7                                          71004114                                                                                                                                                                                                                                                                                                                                                                                                                                               
08171280024100019DT67590675900000002154800888800000010180088887287283152900019807742060120230000005040015223000000001293800543244XXXXXX3699       ME03KE06MS02      NY 4607AMDJEMO2NH0531  N840000000050400          81DNDRIP DROP DISTRO LLC     832107    MD84000000050400 NDR519900000001   17880                    000000000+600450S00140    MDJ  00401                     000000000  N                0000000000000.00 0000000.00   0000000.00                             000000000000000                                                                                                                                                   U001418  000000000000 0000000000008.47     01650 01500                  
08171290024100019DR67590675900000002154800888800000010117880                    Y000000000000                                                                                                                                                                                                                                                                                                                                                                                                                                                                                                                                                                                                                               
08171300024100001G2675906759000000021548008888000000101208-7033453              ID           9 J               210                                      NNNN           210000000000000000000000000                        7                                          71004114                                                                                                                                                                                                                                                                                                                                                                                                                                               
08171310024100020DT67590675900000002154800888800000010180088824001193152900019837326060120230000002400015223000000001293800425797XXXXXX7646               2111111   NYV4 A7W583152141585103N840000000024000V2HR00    01DNDRIP DROP DISTRO LLC     053192    VD84000000024000 NDR519971004114   INV-002447               000000000+                G DG 08705                     000000000  N000000000       0000000000000.00 0000000.00   0000000.00                             000000000000000                                                                                                                                                     01418 G000000024000 0000000000005.98     02450 01000                  
08171320024100020DR675906759000000021548008888000000101INV-002447               Y000000024000                 P1                                                                                                                                                                                                                                                                                                                                                                                                                                                                                                                                                                                                            
08171330024100001P16759067590000000215480088880000001010000000000000000    44132315109              2000000000000000000000000              000000000000                    0000000000000000000000000                    000000000000                                                                                                                                                                                                                                                                                                                                                                                                                                                                                        
08171340024100002G2675906759000000021548008888000000101800-9833326              ID           9 D                00                                      NNNN   N                      000000000000                                                                   71004114                                                                                                                                                                                                                                                                                                                                                                                                                                               
08171350024100021BH6759067590000000288180088880000090170601202315223000000000129355    0000090001280027N8008886759C06022023128                                                                                                                                                                                                                                                                                                                                                                                                                                                                                                                                                                                              
08171360024100022DT67590675900000002881800888800000010180088824001193152900012800016060120230000000109815223000000000129355403784XXXXXX0895       VK04VS111111111   NYV1 A E463152514050092N840000000001098NH2500    05DNHAPPY HIPPIE             901061    VS84000000001098 N  549976487134                            000000000+                A CA 12053                     000000000  N000000000 450   0000000000000.00 0000000.00   0000000.00                             000000000000000                                                                                                                                                     01418 F000000000000 0000000000000.21     01900 00000                  
08171370024100001E167590675900000002881800888800000010100E0F8C800FE 00000000000.004040404040404040404040404040404040404040404040404006011203A0A000000000000000000000404040404040404040404040404040  000108401800808000800023060162A173D559DAFC03D6FAFF47404040400840A00000000310100000000000000000002E41BFC622D8060930300000000000004040401E40404040 000000010.98 000000000.001E00000000000000000000    80                                                                                                                                                                                                                                                                                                                  
08171380024100002G2675906759000000028818008888000000101SEVIERVILLE              TN           5 C                00                                      NNNN00 Y 00                   000000000000                                                                   76487134                                                                                                                                                                                                                                                                                                                                                                                                                                               
08171390024100023DT67590675900000002881800888800000010180088824001193152900012800024060120230000000148215223000000000129355451440XXXXXX1209       VK04VS111111111   NYV1 A E463152542649699N840000000001482HF6900    05DNHAPPY HIPPIE             080425    VD84000000001482 N  549976487134                            000000000+                F PF 08165                     000000000  N000000000       0000000000000.00 0000000.00   0000000.00                             000000000000000                                                                                                                                                     01418 F000000000000 0000000000000.29     01600 00500                  
08171400024100001E167590675900000002881800888800000010100E0F8C80013 00000000000.004040404040404040404040404040404040404040404040404006011203A08000000000000000000000404040404040404040404040404040  000008401800808000800023060149F837BC6885B9504C6D47DF404040400840A0000000031010000000000000000000404040404040404040404040404040404040401E40404040 000000014.82 000000000.001E00000000000000000000    80                                                                                                                                                                                                                                                                                                                  
08171410024100002G2675906759000000028818008888000000101SEVIERVILLE              TN           5 P                00                                      NNNN00 N 00                   000000000000                                                                   76487134                                                                                                                                                                                                                                                                                                                                                                                                                                               
08171420024100024DT67590675900000002881800888800000010180088877287283152900012800034060120230000000493815223000000000129355539689XXXXXX1882       MS02WI09          NY 1 0 AMDHRVNXJH0601  N840000000004938          05DNHAPPY HIPPIE             854031    MD84000000004938 N  549976487134                            000000000+M10101C5434C    MDH  00402                     000000000  N                0000000000000.00 0000000.00   0000000.00                             000000000000000                                                                                                                                                   B101418  000000000000 0000000000000.67     01050 01500                  
08171430024100001E167590675900000002881800888800000010100E0F8C80016 00000000000.00404040404040404040404040404040404040404040404040400114A04001220000000000000000000000FF00000000000000000000000000  000008403900000000800023060188EB79D6F25F2B08DCF298DB404040400840A000000004101000000000000000000027751DDC94344B9700120000000000004040401E40404040 000000049.38 000000000.001E03000000000000000000    80                                                                                                                                                                                                                                                                                                                  
08171440024100002G2675906759000000028818008888000000101SEVIERVILLE              TN           5 H                                                        NNNN              000000000000000000000000                        7                                          76487134                                                                                                                                                                                                                                                                                                                                                                                                                                               
08171450024100025DT67590675900000002881800888800000010180088824001193152900012800040060120230000000307615223000000000129355443238XXXXXX7228       VS11    0001111   NYV1 A E383152566731336N8400000000030766F3L00    05DNHAPPY HIPPIE             014433    VD84000000003076 N  549976487134                            000000000+                F DF 00381                     000000000  N000000000       0000000000000.00 0000000.00   0000000.00                             000000000000000                                                                                                                                                     01418 A000000000000 0000000000000.40     00800 01500                  
08171460024100001E167590675900000002881800888800000010100E0F8C801F2 00000000000.004040404040404040404040404040404040404040404040404006011203A02000000000000000000000404040404040404040404040404040  00000840180080800080002306017D761F605A02B150B4C41C60404040400840A0000000031010000000000000000000404040404040404040404040404040404040401E40404040 000000030.76 000000000.001E00000000000000000000    80                                                                                                                                                                                                                                                                                                                  
08171470024100002G2675906759000000028818008888000000101SEVIERVILLE              TN           5 D                00                                      NNNN00 N 00                   000000000000                                                                   76487134                                                                                                                                                                                                                                                                                                                                                                                                                                               
08171480024100026DT67590675900000002881800888800000010180088824001193152900012800057060120230000000078915223000000000129355437303XXXXXX1202       VK04VS111111111   NYV1 A E303152584642116N840000000000789K57P00    05DNHAPPY HIPPIE             999668    VD84000000000789 N  549976487134                            000000000+                F PF 08165                     000000000  N000000000       0000000000000.00 0000000.00   0000000.00                             000000000000000                                                                                                                                                     01418 F000000000000 0000000000000.18     01600 00500                  
08171490024100001E167590675900000002881800888800000010100E0F8C80474 00000000000.004040404040404040404040404040404040404040404040404006010A03A08000000000000000000000404040404040404040404040404040  0000084018008080008000230601F0D13D47EE5FE2D24102719C404040400840A0000000031010000000000000000000834C98F0E8D4584330300000000000004040401E40404040 000000007.89 000000000.001E00000000000000000000    80                                                                                                                                                                                                                                                                                                                  
08171500024100002G2675906759000000028818008888000000101SEVIERVILLE              TN           5 P                00                                      NNNN00 N 00                   000000000000                                                                   76487134                                                                                                                                                                                                                                                                                                                                                                                                                                               
08171510024100027DT67590675900000002881800888800000010180088824001193152900012800065060120230000000246815223000000000129355442793XXXXXX0095       VS11    0001111   NYV1 A E303152593002164N8400000000024689X9Q00    05DNHAPPY HIPPIE             106538    VD84000000002468 N  549976487134                            000000000+                F DF 10433                     000000000  Y000000000 338   0000000000000.00 0000000.00   0000000.00                             000000000000000                                                                                                                                                     01418 A000000000000 0000000000000.23     00050 02200                  
08171520024100001E167590675900000002881800888800000010100E0F8C8005B 00000000000.004040404040404040404040404040404040404040404040404006021203A02000000000000000000000404040404040404040404040404040  0001084018008080008000230601EC2DA8EC39BFCD327D6B32C4404040400840A000000003101000000000000000000003DCE5E20082000000000000000000004040401E40404040 000000024.68 000000000.001E00000000000000000000    80                                                                                                                                                                                                                                                                                                                  
08171530024100002G2675906759000000028818008888000000101SEVIERVILLE              TN           5 D                00                                      NNNN00 N 00                   000000000000                                                                   76487134                                                                                                                                                                                                                                                                                                                                                                                                                                               
08171540024100028DT67590675900000002881800888800000010180088877287283152900012800075060120230000000252315223000000000129355517805XXXXXX1039       MS02WI09          NY 1 0 AMPLUNR9JH0601  N840000000002523          05DNHAPPY HIPPIE             03925B    MC84000000002523 N  549976487134                            000000000+M10101C5434C    MPL  00364                     000000000  N                0000000000000.00 0000000.00   0000000.00                             000000000000000                                                                                                                                                   B101418  000000000000 0000000000000.49     01800 00400                  
08171550024100001E167590675900000002881800888800000010100E0F8C80007 00000000000.00404040404040404040404040404040404040404040404040400110A04001220000000000000000000000FF00000000000000000000000000  00020840390000000080002306010A7053FBDC21F26B9E184301404040400840A0000000041010000000000000000000625134677CCED79A00120000000000004040401E40404040 000000025.23 000000000.001E03000000000000000000    80                                                                                                                                                                                                                                                                                                                  
08171560024100002G2675906759000000028818008888000000101SEVIERVILLE              TN           5 L                                                        NNNN              000000000000000000000000                        7                                          76487134                                                                                                                                                                                                                                                                                                                                                                                                                                               
08171570024100029DT67590675900000002881800888800000010180088824001193152900012800081060120230000000325815223000000000129355404227XXXXXX6955       VS11    0001111   NYV1 A E303152612543765N840000000003258CLWP00    07DNHAPPY HIPPIE             294807    VD84000000003258 N  549976487134                            000000000+                F DF 00381                     000000000  N000000000       0000000000000.00 0000000.00   0000000.00                             000000000000000                                                                                                                                                     01418 A000000000000 0000000000000.41     00800 01500                  
08171580024100001E167590675900000002881800888800000010100E068C80088 00000000000.004040404040404040404040404040404040404040404040404006011203A00000000000000000000000404040404040404040404040404040  000008402000000000000023060114547209ED2A7B53DE5EC924404040400840A000000003101000000000000000000068D599030382000000000000000000004040404040404040 000000032.58 000000000.004040400000000000000000    80                                                                                                                                                                                                                                                                                                                  
08171590024100002G2675906759000000028818008888000000101SEVIERVILLE              TN           5 D                00                                      NNNN00 N 00                   000000000000                                                                   76487134                                                                                                                                                                                                                                                                                                                                                                                                                                               
08171600024100030DT67590675900000002881800888800000010180088824001193152900012800099060120230000001283915223000000000129355419090XXXXXX4427       VS11    0001111   NYV1 A E463152654423582N8400000000128393KRT00    05DNHAPPY HIPPIE             647982    VD84000000012839 N  549976487134                            000000000+                F DF 00381                     000000000  N000000000       0000000000000.00 0000000.00   0000000.00                             000000000000000                                                                                                                                                     01418 A000000000000 0000000000001.18     00800 01500                  
08171610024100001E167590675900000002881800888800000010100E0F8C8053C 00000000000.004040404040404040404040404040404040404040404040404006010A03A0A000000000000000000000404040404040404040404040404040  0002084018008080008000230601DA646876D70398709AECF0AF404040400840A000000003101000000000000000000073A024AA99AE106830300000000000004040401E40404040 000000128.39 000000000.001E00000000000000000000    80                                                                                                                                                                                                                                                                                                                  
08171620024100002G2675906759000000028818008888000000101SEVIERVILLE              TN           5 D                00                                      NNNN00 N 00                   000000000000                                                                   76487134                                                                                                                                                                                                                                                                                                                                                                                                                                               
08171630024100031DT67590675900000002881800888800000010180088824001193152900012800107060120230000000658515223000000000129355415978XXXXXX9354       VS11    0001111   NYV1 A E383152659333269N840000000006585X73W00    05DNHAPPY HIPPIE             046208    VD84000000006585 N  549976487134                            000000000+                F DF 10433                     000000000  Y000000000 338   0000000000000.00 0000000.00   0000000.00                             000000000000000                                                                                                                                                     01418 A000000000000 0000000000000.25     00050 02200                  
08171640024100001E167590675900000002881800888800000010100E0F8C80112 00000000000.004040404040404040404040404040404040404040404040404006011203A02000000000000000000000404040404040404040404040404040  000008401800808000800023060119110111343BEC5AEC24F36E404040400840A0000000031010000000000000000000B776EC1DC0678A4830300000000000004040401E40404040 000000065.85 000000000.001E00000000000000000000    80                                                                                                                                                                                                                                                                                                                  
08171650024100002G2675906759000000028818008888000000101SEVIERVILLE              TN           5 D                00                                      NNNN00 N 00                   000000000000                                                                   76487134                                                                                                                                                                                                                                                                                                                                                                                                                                               
08171660024100032DT67590675900000002881800888800000010180088824001193152900012800115060120230000000713315223000000000129355401171XXXXXX6460       VS11    0001111   NYV1 A E303152678015868N840000000007133HCCM00    05DNHAPPY HIPPIE             045001    VD84000000007133 N  549976487134                            000000000+                F DF 00381                     000000000  N000000000       0000000000000.00 0000000.00   0000000.00                             000000000000000                                                                                                                                                     01418 A000000000000 0000000000000.72     00800 01500                  
08171670024100001E167590675900000002881800888800000010100E0F8C80221 00000000000.004040404040404040404040404040404040404040404040404006011203A0A000000000000000000000404040404040404040404040404040  0000084018008080008000230601205B2126B96DA6792C09D50C404040400840A0000000031010000000000000000000404040404040404040404040404040404040401E40404040 000000071.33 000000000.001E00000000000000000000    80                                                                                                                                                                                                                                                                                                                  
08171680024100002G2675906759000000028818008888000000101SEVIERVILLE              TN           5 D                00                                      NNNN00 N 00                   000000000000                                                                   76487134                                                                                                                                                                                                                                                                                                                                                                                                                                               
08171690024100033DT67590675900000002881800888800000010180088824001193152900012800123060120230000000395015223000000000129355422921XXXXXX2443       VS11    0001111   NYV1 A E383152696258160N840000000003950RWK900    05DNHAPPY HIPPIE             055226    VD84000000003950 N  549976487134                            000000000+                F DF 00381                     000000000  N000000000       0000000000000.00 0000000.00   0000000.00                             000000000000000                                                                                                                                                     01418 A000000000000 0000000000000.47     00800 01500                  
08171700024100001E167590675900000002881800888800000010100E0F8C8042D 00000000000.004040404040404040404040404040404040404040404040404006011203A08000000000000000000000404040404040404040404040404040  0000084018008080008000230601DC128B65F4B068E6C98E29AC404040400840A0000000031010000000000000000000CA2B078D0382000000000000000000004040401E40404040 000000039.50 000000000.001E00000000000000000000    80                                                                                                                                                                                                                                                                                                                  
08171710024100002G2675906759000000028818008888000000101SEVIERVILLE              TN           5 D                00                                      NNNN00 N 00                   000000000000                                                                   76487134                                                                                                                                                                                                                                                                                                                                                                                                                                               
08171720024100034DT67590675900000002881800888800000010180088824001193152900012800131060120230000000098715223000000000129355419090XXXXXX1578       VK04VS111111111   NYV1 A E463152698043080N8400000000009874GKS00    05DNHAPPY HIPPIE             650764    VD84000000000987 N  549976487134                            000000000+                F DF 00451                     000000000  N000000000 214   0000000000000.00 0000000.00   0000000.00                             000000000000000                                                                                                                                                     01418 F000000000000 0000000000000.19     01550 00400                  
08171730024100001E167590675900000002881800888800000010100E0F8C80122 00000000000.004040404040404040404040404040404040404040404040404006011203A02000000000000000000000404040404040404040404040404040  0002084018008080008000230601B3FFAC8F45A7BA4638AFF039404040400840A000000003101000000000000000000068750D6F0082000000000000000000004040401E40404040 000000009.87 000000000.001E00000000000000000000    80                                                                                                                                                                                                                                                                                                                  
08171740024100002G2675906759000000028818008888000000101SEVIERVILLE              TN           5 D                00                                      NNNN00 N 00                   000000000000                                                                   76487134                                                                                                                                                                                                                                                                                                                                                                                                                                               
08171750024100035DT67590675900000002881800888800000010180088824001193152900012800149060120230000001371215223000000000129355435546XXXXXX4516       VS11    0001111   NYV1 A E383152700861822N840000000013712KMN600    05DNHAPPY HIPPIE             083039    VD84000000013712 N  549976487134                            000000000+                F DF 10433                     000000000  Y000000000 338   0000000000000.00 0000000.00   0000000.00                             000000000000000                                                                                                                                                     01418 A000000000000 0000000000000.29     00050 02200                  
08171760024100001E167590675900000002881800888800000010100E0F8C8032D 00000000000.004040404040404040404040404040404040404040404040404006011203A08000000000000000000000404040404040404040404040404040  0001084018008080008000230601558472096DA2DF5BBB7C7151404040400840A00000000310100000000000000000009EC82BCB0082000000000000000000004040401E40404040 000000137.12 000000000.001E00000000000000000000    80                                                                                                                                                                                                                                                                                                                  
08171770024100002G2675906759000000028818008888000000101SEVIERVILLE              TN           5 D                00                                      NNNN00 N 00                   000000000000                                                                   76487134                                                                                                                                                                                                                                                                                                                                                                                                                                               
08171780024100036DT67590675900000002881800888800000010180088824001193152900012800156060120230000000039415223000000000129355419090XXXXXX7245       VK04VS111111111   NYV1 A E303152707364914N840000000000394QRMW00    05DNHAPPY HIPPIE             651385    VD84000000000394 N  549976487134                            000000000+                F DF 00451                     000000000  N000000000 214   0000000000000.00 0000000.00   0000000.00                             000000000000000                                                                                                                                                     01418 F000000000000 0000000000000.10     01550 00400                  
08171790024100001E167590675900000002881800888800000010100E0F8C800C8 00000000000.004040404040404040404040404040404040404040404040404006011203A0A000000000000000000000404040404040404040404040404040  00010840180080800080002306016A2DE01C7A06948812B657C1404040400840A0000000031010000000000000000000DB926F550080000000000000000000004040401E40404040 000000003.94 000000000.001E00000000000000000000    80                                                                                                                                                                                                                                                                                                                  
08171800024100002G2675906759000000028818008888000000101SEVIERVILLE              TN           5 D                00                                      NNNN00 N 00                   000000000000                                                                   76487134                                                                                                                                                                                                                                                                                                                                                                                                                                               
08171810024100037DT67590675900000002881800888800000010180088824001193152900012800164060120230000001184215223000000000129355414720XXXXXX3452       VS11    0001111   NYV1 A E583152710095678N8400000000118425NCD00    05DNHAPPY HIPPIE             09880D    VS84000000011842 N  549976487134                            000000000+                D CD 12113                     000000000  N000000000 499   0000000000000.00 0000000.00   0000000.00                             000000000000000                                                                                                                                                     01418 A000000000000 0000000000002.59     02100 01000                  
08171820024100001E167590675900000002881800888800000010100E0F8C80015 00000000000.004040404040404040404040404040404040404040404040404006021203A0A002000000000000000000404040404040404040404040404040  00010840380000800080002306013455F1DB61C4A6C16C5C219E404040400840A0000000031010000000000000000000D7152E9C0082000000000000000000004040401E40404040 000000118.42 000000000.001E00000000000000000000    80                                                                                                                                                                                                                                                                                                                  
08171830024100002G2675906759000000028818008888000000101SEVIERVILLE              TN           5 C                00                                      NNNN00 Y 00                   000000000000                                                                   76487134                                                                                                                                                                                                                                                                                                                                                                                                                                               
08171840024100038DT67590675900000002881800888800000010180088824001193152900012800172060120230000000164615223000000000129355408138XXXXXX9598       VS11    0001111   NYV1 A E463152729010623N840000000001646LX5Q00    07DNHAPPY HIPPIE             122928    VD84000000001646 N  549976487134                            000000000+                F PF 08170                     000000000  N000000000       0000000000000.00 0000000.00   0000000.00                             000000000000000                                                                                                                                                     01418 A000000000000 0000000000000.34     01150 01500                  
08171850024100001E167590675900000002881800888800000010100E068C80007 00000000000.00404040404040404040404040404040404040404040404040401F42FF32A00000000010030273000000004000000000000000000000000000  00000840006000000000002306017F84FF03FCED032D7C5CC02B404040400840A0000000031010000000000000000000CA2BD7EC0086000000000000000000004040404040404040 000000016.46 000000000.004040400000000000000000    80                                                                                                                                                                                                                                                                                                                  
08171860024100002G2675906759000000028818008888000000101SEVIERVILLE              TN           5 P                00                                      NNNN00 N 00                   000000000000                                                                   76487134                                                                                                                                                                                                                                                                                                                                                                                                                                               
08171870024100039DT67590675900000002881800888800000010180088877287283152900012800182060120230000001282615223000000000129355511953XXXXXX5690       MS02WI09          NY 1 0 AMDJF4DJ6A0601  N840000000012826          05DNHAPPY HIPPIE             068512    MD84000000012826 N  549976487134                            000000000+M10101C5434C    MDJ  00402                     000000000  N                0000000000000.00 0000000.00   0000000.00                             000000000000000                                                                                                                                                   B101418  000000000000 0000000000001.50     01050 01500                  
08171880024100001E167590675900000002881800888800000010100E0F8C800B3 00000000000.00404040404040404040404040404040404040404040404040400110A04001220000000000000000000000FF00000000000000000000000000  0001084039000000008000230601F0B4A4BFB767A86DBBC6A5D0404040400840A00000000410100000000000000000006A5FD79573BA38BD031A0000000000004040401E40404040 000000128.26 000000000.001E03000000000000000000    80                                                                                                                                                                                                                                                                                                                  
08171890024100002G2675906759000000028818008888000000101SEVIERVILLE              TN           5 J                                                        NNNN              000000000000000000000000                        7                                          76487134                                                                                                                                                                                                                                                                                                                                                                                                                                               
08171900024100040DT67590675900000002881800888800000010180088824001193152900012800198060120230000000246815223000000000129355422921XXXXXX3724       VS11    0001111   NYV1 A E463152738081161N840000000002468XXR200    05DNHAPPY HIPPIE             059410    VD84000000002468 N  549976487134                            000000000+                F DF 00381                     000000000  N000000000       0000000000000.00 0000000.00   0000000.00                             000000000000000                                                                                                                                                     01418 A000000000000 0000000000000.35     00800 01500                  
08171910024100001E167590675900000002881800888800000010100E0F8C80131 00000000000.004040404040404040404040404040404040404040404040404006011203A08000000000000000000000404040404040404040404040404040  0000084018008080008000230601D9D4E54CD9924D6887AD20E8404040400840A000000003101000000000000000000053B4A69A0382000000000000000000004040401E40404040 000000024.68 000000000.001E00000000000000000000    80                                                                                                                                                                                                                                                                                                                  
08171920024100002G2675906759000000028818008888000000101SEVIERVILLE              TN           5 D                00                                      NNNN00 N 00                   000000000000                                                                   76487134                                                                                                                                                                                                                                                                                                                                                                                                                                               
08171930024100041DT67590675900000002881800888800000010180088824001193152900012800206060120230000000243815223000000000129355419090XXXXXX0226       VS11    0001111   NYV1 A E583152740105707N840000000002438N87G00    05DNHAPPY HIPPIE             653388    VD84000000002438 N  549976487134                            000000000+                F DF 00381                     000000000  N000000000       0000000000000.00 0000000.00   0000000.00                             000000000000000                                                                                                                                                     01418 A000000000000 0000000000000.35     00800 01500                  
08171940024100001E167590675900000002881800888800000010100E0F8C8015C 00000000000.004040404040404040404040404040404040404040404040404006011203A02000000000000000000000404040404040404040404040404040  0001084018008080008000230601521D485CA8ABA38FCEB269DE404040400840A00000000310100000000000000000004229EE810080000000000000000000004040401E40404040 000000024.38 000000000.001E00000000000000000000    80                                                                                                                                                                                                                                                                                                                  
08171950024100002G2675906759000000028818008888000000101SEVIERVILLE              TN           5 D                00                                      NNNN00 N 00                   000000000000                                                                   76487134                                                                                                                                                                                                                                                                                                                                                                                                                                               
08171960024100042DT67590675900000002881800888800000010180088824001193152900012800214060120230000000362115223000000000129355455328XXXXXX5021       VS11    0001111   NYV1 A E303152741315264N840000000003621SCW400    05DNHAPPY HIPPIE             001895    VS84000000003621 N  549976487134                            000000000+                D CD 12113                     000000000  N000000000 499   0000000000000.00 0000000.00   0000000.00                             000000000000000                                                                                                                                                     01418 A000000000000 0000000000000.86     02100 01000                  
08171970024100001E167590675900000002881800888800000010100E0F8C80040 00000000000.004040404040404040404040404040404040404040404040404006011203A02000000000000000000000404040404040404040404040404040  0001084018008080008000230601E3D9E8109A78EE15C32600B6404040400840A00000000310100000000000000000001789CEC00082000000000000000000004040401E40404040 000000036.21 000000000.001E00000000000000000000    80                                                                                                                                                                                                                                                                                                                  
08171980024100002G2675906759000000028818008888000000101SEVIERVILLE              TN           5 C                00                                      NNNN00 Y 00                   000000000000                                                                   76487134                                                                                                                                                                                                                                                                                                                                                                                                                                               
08171990024100043DT67590675900000002881800888800000010180088824001193152900012800222060120230000000345515223000000000129355443238XXXXXX0990       VS11    0001111   NYV1 A E463152748232276N840000000003455K49500    05DNHAPPY HIPPIE             064703    VD84000000003455 N  549976487134                            000000000+                F DF 00381                     000000000  N000000000       0000000000000.00 0000000.00   0000000.00                             000000000000000                                                                                                                                                     01418 A000000000000 0000000000000.43     00800 01500                  
08172000024100001E167590675900000002881800888800000010100E0F8C801C9 00000000000.004040404040404040404040404040404040404040404040404006011203A0A000000000000000000000404040404040404040404040404040  0000084018008080008000230601B4B405DE336D800D38A14E67404040400840A0000000031010000000000000000000404040404040404040404040404040404040401E40404040 000000034.55 000000000.001E00000000000000000000    80                                                                                                                                                                                                                                                                                                                  
08172010024100002G2675906759000000028818008888000000101SEVIERVILLE              TN           5 D                00                                      NNNN00 N 00                   000000000000                                                                   76487134                                                                                                                                                                                                                                                                                                                                                                                                                                               
08172020024100044DT67590675900000002881800888800000010180088824001193152900012800230060120230000000404715223000000000129355419090XXXXXX9272       VS11    0001111   NYV1 A E463152750437665N8400000000040477B2H00    05DNHAPPY HIPPIE             654043    VD84000000004047 N  549976487134                            000000000+                F DF 00381                     000000000  N000000000       0000000000000.00 0000000.00   0000000.00                             000000000000000                                                                                                                                                     01418 A000000000000 0000000000000.47     00800 01500                  
08172030024100001E167590675900000002881800888800000010100E0F8C8010E 00000000000.004040404040404040404040404040404040404040404040404006011203A0A000000000000000000000404040404040404040404040404040  0001084018008080008000230601768B466195A4DCB1C4F89554404040400840A0000000031010000000000000000000F2E853C20080000000000000000000004040401E40404040 000000040.47 000000000.001E00000000000000000000    80                                                                                                                                                                                                                                                                                                                  
