01966000480570002BH6759067590000000215480088880000090171221202235522000000000121808    0000090001642665N8008886759C12222022                                                                                                                                                                                                                                                                                                                                                                                                                                                                                                                                                                                                 
01966010480570003DT67590675900000002154800888800000010180088824001192355900016456812122120220000007175035522000000000121808460367XXXXXX1971               2111111   NYV4 A7W582355771448521N840000000071750VFVR00    01DNDRIP DROP DISTRO LLC     002011    VD84000000071750 NP1519971004114   17149                    000000000+                G DG 08705                     000000000  N000000000       0000000000000.00 0000000.00   0000000.00                             000000000000000                                                                                                                                                     01418 G000000071750 0000000000017.68     02450 01000                  
01966020480570001P16759067590000000215480088880000001010000000000000000    43834184629              2000000000000000000000000              000000000000                    0000000000000000000000000                    000000000000                                                                                                                                                                                                                                                                                                                                                                                                                                                                                        
01966030480570004DT67590675900000002154800888800000010180088887287282355900016426659122120220000005005835522000000000121808518941XXXXXX5089       ME03KE06MS02      NY 4607AMWELBRRPQ1221  N840000000050058          81DNDRIP DROP DISTRO LLC     72971Z    MC84000000050058 N  519900000001   17148                    000000000+600450S00140    MWE  00737                     000000000  N                0000000000000.00 0000000.00   0000000.00                             000000000000000                                                                                                                                                   U001418  000000000000 0000000000013.12     02600 01000                  
01966040480570005BH6759067590000000096880088880000090171221202235522000000000008620    0000090001110760N8008886759C12222022                                                                                                                                                                                                                                                                                                                                                                                                                                                                                                                                                                                                 
01966050480570006DT67590675900000000968800888800000010180088887287282355900011107601122120220000000862035522000000000008620525363XXXXXX7484       ME03KE06MS02      NY 4607AMWEDTGMLI1221  N840000000008620          81DNHIGHER FLOUR LLC         18097Z    MC84000000008620 N  546200000001   rl0oF7ZV7WikZKb3Jkjv     000000000+600450S00140    MWE  00737                     000000000  N                0000000000000.00 0000000.00   0000000.00                             000000000000000                                                                                                                                                   U001418  000000000000 0000000000002.34     02600 01000                  
