00002700511950002BH6759067590000000288180088880000090171222202235622000000000009181    0000090001270073Y8008886759C12232022                                                                                                                                                                                                                                                                                                                                                                                                                                                                                                                                                                                                 
00002710511950003DT67590675900000002881800888800000010180088824001192356900012700725122120220000000448435622000000000009181445115XXXXXX2560               2111111   NYV4 A7W582356083649020N840000000004484W98700    01DNHAPPY HIPPIE             011956    VD84000000004484 NP1549976044904   1890                     000000000+                F DF 10420                     000000000  Y000000000 338   0000000000000.00 0000000.00   0000000.00                             000000000000000                                                                                                                                                     01424 G000000004484 0000000000000.24     00050 02200                  
00002720511950001P16759067590000000288180088880000001010000000000000000                             2000000000000000000000000              000000000000                    0000000000000000000000000                    000000000000                                                                                                                                                                                                                                                                                                                                                                                                                                                                                        
00002730511950004DT67590675900000002881800888800000010180088824001192356900012700733122220220000000469735622000000000009181435934XXXXXX1713               2111111   NYV4 A7W302356259083051N84000000000469756LG00    01DNHAPPY HIPPIE             004309    VD84000000004697 NP1549976044904   1891                     000000000+                F DF 00415                     000000000  N000000000       0000000000000.00 0000000.00   0000000.00                             000000000000000                                                                                                                                                     01424 G000000004697 0000000000000.93     01650 01500                  
00002740511950001P16759067590000000288180088880000001010000000000000000                             2000000000000000000000000              000000000000                    0000000000000000000000000                    000000000000                                                                                                                                                                                                                                                                                                                                                                                                                                                                                        
