03727860655722305AD675906759000000151648008888000009077900011924780000001987004272023NYY11723YC6759800888043020232023093033789                                                                                                                                                                                                                                                                                                                                                                                                                                                                                                                                                                                              
03727870655722311AD675906759000000198288001098000009077900010201470000001987004272023NYY11723YC6759800109043020232023097005993                                                                                                                                                                                                                                                                                                                                                                                                                                                                                                                                                                                              
03727880655722317AD675906759000000151648008888000009077900011719540000001987004272023NYY11723YC6759800888043020232023093034001                                                                                                                                                                                                                                                                                                                                                                                                                                                                                                                                                                                              
03727890655722326AD675906759000000151648008888000009077900012981820000001987004272023NYY11723YC6759800888043020232023117021835                                                                                                                                                                                                                                                                                                                                                                                                                                                                                                                                                                                              
03727900655722329AD675906759000000151648008888000009071900013445540000002487004272023NYY11723ND6759800888043020232023117021827                                                                                                                                                                                                                                                                                                                                                                                                                                                                                                                                                                                              
03727910655722332AD675906759000000268498001258000009071900010200990000001977004272023NYY11723ND6759800125043020232023117021828                                                                                                                                                                                                                                                                                                                                                                                                                                                                                                                                                                                              
03727920655722335AD675906759000000151648008888000009071900014266620000002487004272023NYY11723ND6759800888043020232023117021829                                                                                                                                                                                                                                                                                                                                                                                                                                                                                                                                                                                              
03727930655722338AD675906759000000176738001068000009071900010300130000001379004272023NYY11723ND6759800106043020232023117021830                                                                                                                                                                                                                                                                                                                                                                                                                                                                                                                                                                                              
03727940655722341AD675906759000000133008001028000009071900016689250000002692204272023NYY11723ND6759800102043020232023117021831                                                                                                                                                                                                                                                                                                                                                                                                                                                                                                                                                                                              
03727950655722344AD675906759000000198288001098000009071900013259690000001987004272023NYY11723ND6759800109043020232023117021832                                                                                                                                                                                                                                                                                                                                                                                                                                                                                                                                                                                              
03727960655722347AD675906759000000232598001168000009071900012010320000002178904272023NYY11723ND6759800116043020232023117021833                                                                                                                                                                                                                                                                                                                                                                                                                                                                                                                                                                                              
03727970655722350AD675906759000000232598001168000009071900011408640000000544904272023NYY11723ND6759800116043020232023117021836                                                                                                                                                                                                                                                                                                                                                                                                                                                                                                                                                                                              
03727980655722353AD675906759000000151648008888000009071900014268930000001987004272023NYY11723ND6759800888043020232023117021837                                                                                                                                                                                                                                                                                                                                                                                                                                                                                                                                                                                              
03727990655722356AD675906759000000198288001098000009071900013155780000002487004272023NYY11723ND6759800109043020232023117021838                                                                                                                                                                                                                                                                                                                                                                                                                                                                                                                                                                                              
03728000655722359AD675906759000000198288001098000009071900013155790000000327404272023NYY11723ND6759800109043020232023117021839                                                                                                                                                                                                                                                                                                                                                                                                                                                                                                                                                                                              
03728010658110002BH6759067590000000215480088880000090170428202311823000000000448150    0000090001711413N8008886759C04302023                                                                                                                                                                                                                                                                                                                                                                                                                                                                                                                                                                                                 
03728020658110003DT67590675900000002154800888800000010180088873011003118900017108554042820230000018900011823000000000448150376747XXXXX5003                          NY 4 07N004902295091303N840000000189000          01DNDRIP DROP DISTRO LLC     264210    AM84000000189000 N  519971004114                            000000000+6004S0S00140 258     11244                     000000000                   0000000000000.00 0000000.00   0000000.00                             000000000000000 61248972736759675900000002154 DRIP DROP DISTRO LLC     1445 W COMMERCE AVE SUITE2087248209      83705     TROY@DRIPDROPDISTRO.COM                   01418  000000000000 0000000000036.01     01900 00000                  
03728030658110004DT67590675900000002154800888800000010180088887287283118900017125033042820230000004140011823000000000448150529712XXXXXX0633                         NY 4607AMDBS6J9PP0428  N840000000041400          81DNDRIP DROP DISTRO LLC     954852    MD84000000041400 NP1519900000001   17742                    000000000+600450S00140    MDB  00062                     000000000  N                0000000000000.00 0000000.00   0000000.00                             000000000000000                                                                                                                                                   U001418  000000000000 0000000000011.07     02650 01000                  
03728040658110001P1675906759000000021548008888000000101                                                          000000000000          8000            471534935                                                                                                                                                                                                                                                                                                                                                                                                                                                                                                                                                            
03728050658110005DT67590675900000002154800888800000010180088887287283118900017172134042820230000007470011823000000000448150552869XXXXXX5002                         NY 4607AMABWK6KPP0428  N840000000074700          81DNDRIP DROP DISTRO LLC     07939Q    MB84000000074700 NP1519900000001   17745                    000000000+600450S00140    MAB  11637                     000000000  N                0000000000000.00 0000000.00   0000000.00                             000000000000000                                                                                                                                                   U001418  000000000000 0000000000022.51     03000 01000                  
03728060658110001P1675906759000000021548008888000000101                                                          000000000000          8000            471534935                                                                                                                                                                                                                                                                                                                                                                                                                                                                                                                                                            
03728070658110006DT67590675900000002154800888800000010180088887287283118900017144091042820230000002250011823000000000448150547415XXXXXX7571                         NY 4607AMEBPQHEH00428  N840000000022500          81DNDRIP DROP DISTRO LLC     04902Q    MB84000000022500 NP1519900000001   17743                    000000000+600450S00140    MEB  11637                     000000000  N                0000000000000.00 0000000.00   0000000.00                             000000000000000                                                                                                                                                   U001418  000000000000 0000000000006.85     03000 01000                  
03728080658110001P1675906759000000021548008888000000101                                                          000000000000          8000            471534935                                                                                                                                                                                                                                                                                                                                                                                                                                                                                                                                                            
03728090658110007DT67590675900000002154800888800000010180088873011003118900017147214042820230000005760011823000000000448150376747XXXXX5003                          NY 4 07N004903494024301N840000000057600          01DNDRIP DROP DISTRO LLC     200133    AM84000000057600 N  519971004114                            000000000+6004S0S00140 258     11244                     000000000                   0000000000000.00 0000000.00   0000000.00                             000000000000000 61248972736759675900000002154 DRIP DROP DISTRO LLC     1445 W COMMERCE AVE SUITE2087248209      83705     TROY@DRIPDROPDISTRO.COM                   01418  000000000000 0000000000011.04     01900 00000                  
03728100658110008DT67590675900000002154800888800000010180088887287283118900017155287042820230000004950011823000000000448150547415XXXXXX6095                         NY 4607AMEBNGIEPP0428  N840000000049500          81DNDRIP DROP DISTRO LLC     02023Q    MB84000000049500 NP1519900000001   17744                    000000000+600450S00140    MEB  11637                     000000000  N                0000000000000.00 0000000.00   0000000.00                             000000000000000                                                                                                                                                   U001418  000000000000 0000000000014.95     03000 01000                  
03728110658110001P1675906759000000021548008888000000101                                                          000000000000          8000            471534935                                                                                                                                                                                                                                                                                                                                                                                                                                                                                                                                                            
03728120658110009DT67590675900000002154800888800000010180088824001193118900017114135042820230000001345011823000000000448150449254XXXXXX7409               2111111   NYV4 A7W463118677162172N840000000013450S3MK00    01DNDRIP DROP DISTRO LLC     808800    VD84000000013450 NP1519971004114   INV-001932               000000000+                F DF 00415                     000000000  N000000000       0000000000000.00 0000000.00   0000000.00                             000000000000000                                                                                                                                                     01418 G000000013450 0000000000002.37     01650 01500                  
03728130658110001P16759067590000000215480088880000001010000000000000000                             2000000000000000000000000              000000000000                    0000000000000000000000000                    000000000000                                                                                                                                                                                                                                                                                                                                                                                                                                                                                        
03728140658110010BH6759067590000000288180088880000090170428202311823000000000027857    0000090001070007N8008886759C04302023                                                                                                                                                                                                                                                                                                                                                                                                                                                                                                                                                                                                 
03728150658110011DT67590675900000002881800888800000010180088824001193118900010700013042820230000000128311823000000000027857419090XXXXXX0264       VK04VS111111111   NYV1 A E463118679254050N840000000001283F7B200    05DNHAPPY HIPPIE             672766    VD84000000001283 N  549976487158                            000000000+                F DF 00451                     000000000  N000000000 214   0000000000000.00 0000000.00   0000000.00                             000000000000000                                                                                                                                                     01418 F000000000000 0000000000000.24     01550 00400                  
03728160658110012DT67590675900000002881800888800000010180088824001193118900010700021042820230000000822911823000000000027857429413XXXXXX8768       VS11    0001111   NYV1 A E383118705723048N840000000008229LBZH00    07DNHAPPY HIPPIE             420399    VD84000000008229 N  549976487158                            000000000+                F DF 00381                     000000000  N000000000       0000000000000.00 0000000.00   0000000.00                             000000000000000                                                                                                                                                     01418 A000000000000 0000000000000.81     00800 01500                  
03728170658110013DT67590675900000002881800888800000010180088824001193118900010700039042820230000000471811823000000000027857414709XXXXXX3162       VS11    0001111   NYV1 A E583118718188467N8400000000047188K5X00    05DNHAPPY HIPPIE             09777D    VS84000000004718 N  549976487158                            000000000+                D CD 12113                     000000000  N000000000 499   0000000000000.00 0000000.00   0000000.00                             000000000000000                                                                                                                                                     01418 A000000000000 0000000000001.09     02100 01000                  
03728180658110014DT67590675900000002881800888800000010180088824001193118900010700047042820230000000286211823000000000027857441707XXXXXX0805       VS11    0001111   NYV1 A E463118719891927N840000000002862HHX900    07DNHAPPY HIPPIE             820238    VD84000000002862 N  549976487158                            000000000+                F PF 08170                     000000000  N000000000       0000000000000.00 0000000.00   0000000.00                             000000000000000                                                                                                                                                     01418 A000000000000 0000000000000.48     01150 01500                  
03728190658110015DT67590675900000002881800888800000010180088824001193118900010700054042820230000000636311823000000000027857403537XXXXXX0668       VS11    0001111   NYV1 A E383118730543809N8400000000063634M4P00    07DNHAPPY HIPPIE             014623    VD84000000006363 N  549976487158                            000000000+                F DF 10433                     000000000  Y000000000 338   0000000000000.00 0000000.00   0000000.00                             000000000000000                                                                                                                                                     01418 A000000000000 0000000000000.25     00050 02200                  
03728200658110016DT67590675900000002881800888800000010180088824001193118900010700062042820230000000407411823000000000027857423223XXXXXX2227       VS11    0001111   NYV1 A E303118779617202N840000000004074PLTC00    05DNHAPPY HIPPIE             060100    VD84000000004074 N  549976487158                            000000000+                F DF 00381                     000000000  N000000000       0000000000000.00 0000000.00   0000000.00                             000000000000000                                                                                                                                                     01418 A000000000000 0000000000000.48     00800 01500                  
03728210658110017DT67590675900000002881800888800000010180088824001193118900010700070042820230000000032811823000000000027857440393XXXXXX2204       VK04VS111111111   NYV1 A E383118792831145N840000000000328BZP700    05DNHAPPY HIPPIE             960764    VD84000000000328 N  549976487158                            000000000+                F PF 08165                     000000000  N000000000       0000000000000.00 0000000.00   0000000.00                             000000000000000                                                                                                                                                     01418 F000000000000 0000000000000.10     01600 00500                  
03728220658110018BH6759067590000000288180088880000090170428202311823000000000130703    0000090001010023N8008886759C04302023                                                                                                                                                                                                                                                                                                                                                                                                                                                                                                                                                                                                 
03728230658110019DT67590675900000002881800888800000010180088824001193118900010100016042820230000000658511823000000000130703400022XXXXXX0750       VS11    0001111   NYV1 A E583118515130997N840000000006585SW9R00    07DNHAPPY HIPPIE             471468    VD84000000006585 N  549976487134                            000000000+                F DF 10433                     000000000  Y000000000 338   0000000000000.00 0000000.00   0000000.00                             000000000000000                                                                                                                                                     01418 A000000000000 0000000000000.25     00050 02200                  
03728240658110020DT67590675900000002881800888800000010180088824001193118900010100024042820230000000048111823000000000130703400022XXXXXX0750       VK04VS111111111   NYV1 A E463118516486866N840000000000481H45S00    07DNHAPPY HIPPIE             399237    VD84000000000481 N  549976487134                            000000000+                F DF 10439                     000000000  Y000000000 331   0000000000000.00 0000000.00   0000000.00                             000000000000000                                                                                                                                                     01418 F000000000000 0000000000000.22     00050 02200                  
03728250658110021DT67590675900000002881800888800000010180088877287283118900010100034042820230000000887511823000000000130703514377XXXXXX8235       MS02WI09          NY 1 0 AMDJTD6GPP0428  N840000000008875          05DNHAPPY HIPPIE             2ZOLIB    MD84000000008875 N  549976487134                            000000000+M10101C5434C    MDJ  00402                     000000000  N                0000000000000.00 0000000.00   0000000.00                             000000000000000                                                                                                                                                   B101418  000000000000 0000000000001.08     01050 01500                  
03728260658110022DT67590675900000002881800888800000010180088824001193118900010100040042820230000000168611823000000000130703485628XXXXXX6673       VS11    0001111   NYV1 A E303118548611623N8400000000016868LRM00    07DNHAPPY HIPPIE             018241    VS84000000001686 N  549976487134                            000000000+                A CA 12110                     000000000  N000000000 493   0000000000000.00 0000000.00   0000000.00                             000000000000000                                                                                                                                                     01418 A000000000000 0000000000000.35     01510 01000                  
03728270658110023DT67590675900000002881800888800000010180088824001193118900010100057042820230000000373711823000000000130703481852XXXXXX3515       VS11    0001111   NYV1 A E463118552437331N840000000003737B22W00    07DNHAPPY HIPPIE             082043    VD84000000003737 N  549976487134                            000000000+                F PF 08170                     000000000  N000000000       0000000000000.00 0000000.00   0000000.00                             000000000000000                                                                                                                                                     01418 A000000000000 0000000000000.58     01150 01500                  
03728280658110024DT67590675900000002881800888800000010180088824001193118900010100065042820230000000246811823000000000130703480639XXXXXX3229       VS11    0001111   NYV1 A E583118560296537N840000000002468GF5S00    05DNHAPPY HIPPIE             917734    VD84000000002468 N  549976487134                            000000000+                F DF 00381                     000000000  N000000000       0000000000000.00 0000000.00   0000000.00                             000000000000000                                                                                                                                                     01418 A000000000000 0000000000000.35     00800 01500                  
03728290658110025DT67590675900000002881800888800000010180088877287283118900010100075042820230000000296011823000000000130703548974XXXXXX2406       MS02WI09          NY 1 0 AMPACM9PPQ0428  N840000000002960          07DNHAPPY HIPPIE             025669    MD84000000002960 N  549976487134                            000000000+M10101M0034C    MPA  11964                     000000000  N                0000000000000.00 0000000.00   0000000.00                             000000000000000                                                                                                                                                   A101418  000000000000 0000000000000.49     01150 01500                  
03728300658110026DT67590675900000002881800888800000010180088877287283118900010100083042820230000002133311823000000000130703511975XXXXXX4657                         NY 1 0 AMDBKS4FPU0428  N840000000021333          05DNHAPPY HIPPIE             047631    MD84000000021333 NP1549976487134                            000000000+M10101C5434C    MDB  00062                     000000000  N                0000000000000.00 0000000.00   0000000.00                             000000000000000                                                                                                                                                   B101418  000000000000 0000000000005.75     02650 01000                  
03728310658110001P1675906759000000028818008888000000101                                                          000000000000          3000            814767769                                                                                                                                                                                                                                                                                                                                                                                                                                                                                                                                                            
03728320658110027DT67590675900000002881800888800000010180088824001193118900010100099042820230000000743911823000000000130703443264XXXXXX1243       VS11    0001111   NYV1 A E463118582105052N840000000007439WBGN00    05DNHAPPY HIPPIE             028865    VD84000000007439 N  549976487134                            000000000+                F DF 10433                     000000000  Y000000000 338   0000000000000.00 0000000.00   0000000.00                             000000000000000                                                                                                                                                     01418 A000000000000 0000000000000.26     00050 02200                  
03728330658110028DT67590675900000002881800888800000010180088877287283118900010100109042820230000000148111823000000000130703511953XXXXXX5008       MS02WI09          NY 1 0 AMDJJNDQK80428  N840000000001481          05DNHAPPY HIPPIE             076042    MD84000000001481 N  549976487134                            000000000+M10101C5434C    MDJ  00505                     000000000  N                0000000000000.00 0000000.00   0000000.00                             000000000000000                                                                                                                                                   B101418  000000000000 0000000000000.27     01550 00400                  
03728340658110029DT67590675900000002881800888800000010180088824001193118900010100115042820230000000227011823000000000130703465992XXXXXX8596       VS11    0001111   NYV1 A E583118638100580N840000000002270LSKG00    07DNHAPPY HIPPIE             230133    VD84000000002270 N  549976487134                            000000000+                F DF 00381                     000000000  N000000000       0000000000000.00 0000000.00   0000000.00                             000000000000000                                                                                                                                                     01418 A000000000000 0000000000000.33     00800 01500                  
03728350658110030DT67590675900000002881800888800000010180088824001193118900010100123042820230000000683211823000000000130703419090XXXXXX3689       VS11    0001111   NYV1 A E463118643291348N840000000006832S22B00    05DNHAPPY HIPPIE             670373    VD84000000006832 N  549976487134                            000000000+                F DF 00381                     000000000  N000000000       0000000000000.00 0000000.00   0000000.00                             000000000000000                                                                                                                                                     01418 A000000000000 0000000000000.70     00800 01500                  
03728360658110031DT67590675900000002881800888800000010180088824001193118900010100131042820230000000790111823000000000130703422921XXXXXX0638       VS11    0001111   NYV1 A E383118660587665N840000000007901W8SM00    05DNHAPPY HIPPIE             051659    VD84000000007901 N  549976487134                            000000000+                F DF 00381                     000000000  N000000000       0000000000000.00 0000000.00   0000000.00                             000000000000000                                                                                                                                                     01418 A000000000000 0000000000000.78     00800 01500                  
03728370658110032DT67590675900000002881800888800000010180088824001193118900010100149042820230000000987611823000000000130703422921XXXXXX0521       VS11    0001111   NYV1 A E583118674258069N840000000009876T6RT00    05DNHAPPY HIPPIE             053026    VD84000000009876 N  549976487134                            000000000+                F DF 00381                     000000000  N000000000       0000000000000.00 0000000.00   0000000.00                             000000000000000                                                                                                                                                     01418 A000000000000 0000000000000.94     00800 01500                  
03728380658110033DT67590675900000002881800888800000010180088824001193118900010100156042820230000000122911823000000000130703419090XXXXXX0264       VK04VS111111111   NYV1 A E303118676607929N840000000001229LL3P00    05DNHAPPY HIPPIE             672592    VD84000000001229 N  549976487134                            000000000+                F DF 00451                     000000000  N000000000 214   0000000000000.00 0000000.00   0000000.00                             000000000000000                                                                                                                                                     01418 F000000000000 0000000000000.23     01550 00400                  
03728390658110034DT67590675900000002881800888800000010180088877287283118900010100166042820230000000967711823000000000130703511953XXXXXX9825       MS02WI09          NY 1 0 AMDJDJWYK80428  N840000000009677          05DNHAPPY HIPPIE             064354    MD84000000009677 N  549976487134                            000000000+M10101C5434C    MDJ  00402                     000000000  N                0000000000000.00 0000000.00   0000000.00                             000000000000000                                                                                                                                                   B101418  000000000000 0000000000001.17     01050 01500                  
03728400658110035DT67590675900000002881800888800000010180088877287283118900010100174042820230000000439011823000000000130703517800XXXXXX8586       MS02WI09          NY 2 0 AMCSORQ9K80428  N840000000004390          05DNHAPPY HIPPIE             028103    MC84000000004390 N  549976487134                            000000000+M10101C1334C    MCS  00043                     000000000  N                0000000000000.00 0000000.00   0000000.00                             000000000000000                                                                                                                                                   B101418  000000000000 0000000000000.76     01650 00400                  
03728410658110036DT67590675900000002881800888800000010180088824001193118900010100180042820230000000295711823000000000130703434769XXXXXX7926       VS11    0001111   NYV1 A E383118731789574N840000000002957SX3X00    05DNHAPPY HIPPIE             081916    VD84000000002957 N  549976487134                            000000000+                F DF 10433                     000000000  Y000000000 338   0000000000000.00 0000000.00   0000000.00                             000000000000000                                                                                                                                                     01418 A000000000000 0000000000000.23     00050 02200                  
03728420658110037DT67590675900000002881800888800000010180088824001193118900010100198042820230000000778011823000000000130703443238XXXXXX1385       VS11    0001111   NYV1 A E303118735946616N840000000007780FXSN00    05DNHAPPY HIPPIE             062634    VD84000000007780 N  549976487134                            000000000+                F DF 00381                     000000000  N000000000       0000000000000.00 0000000.00   0000000.00                             000000000000000                                                                                                                                                     01418 A000000000000 0000000000000.77     00800 01500                  
03728430658110038DT67590675900000002881800888800000010180088824001193118900010100206042820230000000548811823000000000130703445101XXXXXX0323       VS11    0001111   NYV1 A E383118759055430N840000000005488MDBM00    05DNHAPPY HIPPIE             592070    VD84000000005488 N  549976487134                            000000000+                F DF 10433                     000000000  Y000000000 338   0000000000000.00 0000000.00   0000000.00                             000000000000000                                                                                                                                                     01418 A000000000000 0000000000000.25     00050 02200                  
03728440658110039DT67590675900000002881800888800000010180088877287283118900010100216042820230000000217211823000000000130703511953XXXXXX4908       MS02WI09          NY 1 0 AMDJXTY6KY0428  N840000000002172          07DNHAPPY HIPPIE             051688    MD84000000002172 N  549976487134                            000000000+M10101M0034C    MDJ  00402                     000000000  N                0000000000000.00 0000000.00   0000000.00                             000000000000000                                                                                                                                                   B101418  000000000000 0000000000000.38     01050 01500                  
03728450658110040DT67590675900000002881800888800000010180088824001193118900010100222042820230000001086511823000000000130703440393XXXXXX2204       VS11    0001111   NYV1 A E383118790359523N8400000000108654LVC00    05DNHAPPY HIPPIE             205275    VD84000000010865 N  549976487134                            000000000+                F PF 08170                     000000000  N000000000       0000000000000.00 0000000.00   0000000.00                             000000000000000                                                                                                                                                     01418 A000000000000 0000000000001.40     01150 01500                  
03728460658110041DT67590675900000002881800888800000010180088877287283118900010100232042820230000000222111823000000000130703542432XXXXXX2389       MS02WI09          NY 1 0 AMDJA3CR1K0428  N840000000002221          07DNHAPPY HIPPIE             637685    MD84000000002221 N  549976487134                            000000000+M10101M0034C    MDJ  10815                     000000000  1                0000000000000.00 0000000.00   0000000.00                             000000000000000                                                                                                                                                   B101418  000000000000 0000000000000.23     00050 02200                  
03728470658110042BH6759067590000000096880111580000090170428202311823000000000017686    0000090001874426N8011156759C04302023                                                                                                                                                                                                                                                                                                                                                                                                                                                                                                                                                                                                 
03728480658110043DT67590675900000000968801115800000010180111524001193118900018749632042820230000001123511823000000000017686435545XXXXXX2725               2111111   NYV4 A7W303118723249288N840000000011235JWM600    01DNHIGHER FLOUR LLC         104114    VD84000000011235 NP1546271004114   RRCWGKAEK1ORVPNO7Y2P     000000000+                F DF 10420                     000000000  Y000000000 338   0000000000000.00 0000000.00   0000000.00                             000000000000000                                                                                                                                                     01418 G000000011235 0000000000000.28     00050 02200                  
03728490658110001P16759067590000000096880111580000001010000000000000000                             2000000000000000000000000              000000000000                    0000000000000000000000000                    000000000000                                                                                                                                                                                                                                                                                                                                                                                                                                                                                        
03728500658110044DT67590675900000000968801115800000010180111524001193118900018744260042820230000000645111823000000000017686417903XXXXXX0492               2111111   NYV4 A7W383118065321765N840000000006451BLS400    01DNHIGHER FLOUR LLC         027284    VS84000000006451 NP1546271004114   RTFBMDJAKWFP7Z4KNIS8     000000000+                D CD 12109                     000000000  N000000000 498   0000000000000.00 0000000.00   0000000.00                             000000000000000                                                                                                                                                     01418 G000000006451 0000000000001.71     02500 01000                  
03728510658110001P16759067590000000096880111580000001010000000000000000                             2000000000000000000000000              000000000000                    0000000000000000000000000                    000000000000                                                                                                                                                                                                                                                                                                                                                                                                                                                                                        
03728520658110045BH6759067590000001094280010180000090170428202311823000000000057155    0000090001430008N8001016759C04302023                                                                                                                                                                                                                                                                                                                                                                                                                                                                                                                                                                                                 
03728530658110046DT67590675900000010942800101800000010180010124001193118900014300018042820230000002695411823000000000057155438419XXXXXX8553       VS11    0001111   NYV1 A E583118580395004N840000000026954RBBN00    05DNPLANET VAPOR INC #800    020719    VD84000000026954 N  599971384997                            000000000+                F DF 00381                     000000000  N000000000       0000000000000.00 0000000.00   0000000.00                             000000000000000                                                                                                                                                     01418 A000000000000 0000000000002.31     00800 01500                  
03728540658110047DT67590675900000010942800101800000010180010176509753118900014300024042820230000000363611823000000000057155653949XXXXXX5378   BA81                  NY 1 0 N743101598174600N840000000003636    00    07DNPLANET VAPOR INC #800    02899R    DS84000000003636 N  599971384997830                         000000000+0000004910H00   DCCDI01000501406  141016000000 000000000  0          112   0000000000000.00 0000000.00   0000000.00                             000000000000000                                                                                                                                                     01418  000000000000 0000000000000.73     01720 01000                  
03728550658110048DT67590675900000010942800101800000010180010124001193118900014300034042820230000000644911823000000000057155427178XXXXXX3225       VS11    0001111   NYV1 A E383118687131364N8400000000064492FQ600    05DNPLANET VAPOR INC #800    039140    VD84000000006449 N  599971384997                            000000000+                F DF 10433                     000000000  Y000000000 338   0000000000000.00 0000000.00   0000000.00                             000000000000000                                                                                                                                                     01418 A000000000000 0000000000000.25     00050 02200                  
03728560658110049DT67590675900000010942800101800000010180010177287283118900014300044042820230000000417011823000000000057155517805XXXXXX0553       MS02WI09          NY 1 0 AMWEFC5SK80428  N840000000004170          05DNPLANET VAPOR INC #800    06799P    MC84000000004170 N  599971384997                            000000000+M10101C5434C    MWE  00739                     000000000  N                0000000000000.00 0000000.00   0000000.00                             000000000000000                                                                                                                                                   B101418  000000000000 0000000000001.06     02300 01000                  
03728570658110050DT67590675900000010942800101800000010180010124001193118900014300059042820230000000054511823000000000057155444811XXXXXX0311       VK04VS111111111   NYV1 A E303118741326684N840000000000545SRKF00    07DNPLANET VAPOR INC #800    416800    VD84000000000545 N  599971384997                            000000000+                F DF 00451                     000000000  N000000000 214   0000000000000.00 0000000.00   0000000.00                             000000000000000                                                                                                                                                     01418 F000000000000 0000000000000.12     01550 00400                  
03728580658110051DT67590675900000010942800101800000010180010124001193118900014300067042820230000000641711823000000000057155430602XXXXXX6256       VS11    0001111   NYV1 A E583118755279209N840000000006417P57K00    05DNPLANET VAPOR INC #800    766416    VD84000000006417 N  599971384997                            000000000+                F DF 00381                     000000000  N000000000       0000000000000.00 0000000.00   0000000.00                             000000000000000                                                                                                                                                     01418 A000000000000 0000000000000.66     00800 01500                  
03728590658110052DT67590675900000010942800101800000010180010124001193118900014300075042820230000000427811823000000000057155473703XXXXXX7514       VS11    0001111   NYV1 A E583118809541055N840000000004278QVNK00    05DNPLANET VAPOR INC #800    084817    VD84000000004278 N  599971384997                            000000000+                F DF 10433                     000000000  Y000000000 338   0000000000000.00 0000000.00   0000000.00                             000000000000000                                                                                                                                                     01418 A000000000000 0000000000000.24     00050 02200                  
03728600658110053DT67590675900000010942800101800000010180010124001193118900014300083042820230000000470611823000000000057155435716XXXXXX8651       VS11    0001111   NYV1 A E463118829750052N840000000004706PZB200    05DNPLANET VAPOR INC #800    090255    VD84000000004706 N  599971384997                            000000000+                F DF 00381                     000000000  N000000000       0000000000000.00 0000000.00   0000000.00                             000000000000000                                                                                                                                                     01418 A000000000000 0000000000000.53     00800 01500                  
03728610658110054BH6759067590000000909280010180000090170428202311823000000000211708    0000090001430051N8001016759C04302023                                                                                                                                                                                                                                                                                                                                                                                                                                                                                                                                                                                                 
03728620658110055DT67590675900000009092800101800000010180010124001193118900014300018042820230000000200011823000000000211708410881XXXXXX2994       VS11    0001111   NYV1 A E583118530204954N840000000002000P57R00    07DNPLANET VAPOR INC #500    571176    VD84000000002000 N  599977384801                            000000000+                F DF 00381                     000000000  N000000000       0000000000000.00 0000000.00   0000000.00                             000000000000000                                                                                                                                                     01418 A000000000000 0000000000000.31     00800 01500                  
03728630658110056DT67590675900000009092800101800000010180010124001193118900014300026042820230000000232211823000000000211708473703XXXXXX5815       VS11    0001111   NYV1 A E463118530482287N840000000002322NM7F00    07DNPLANET VAPOR INC #500    021869    VD84000000002322 N  599977384801                            000000000+                F DF 10433                     000000000  Y000000000 338   0000000000000.00 0000000.00   0000000.00                             000000000000000                                                                                                                                                     01418 A000000000000 0000000000000.23     00050 02200                  
03728640658110057DT67590675900000009092800101800000010180010124001193118900014300034042820230000000184611823000000000211708400022XXXXXX7575       VS11    0001111   NYV1 A E463118533485210N840000000001846JM4300    07DNPLANET VAPOR INC #500    322305    VD84000000001846 N  599977384801                            000000000+                F DF 10433                     000000000  Y000000000 338   0000000000000.00 0000000.00   0000000.00                             000000000000000                                                                                                                                                     01418 A000000000000 0000000000000.23     00050 02200                  
03728650658110058DT67590675900000009092800101800000010180010124001193118900014300042042820230000000245611823000000000211708426684XXXXXX8771       VS11    0001111   NYV1 A E383118542020692N8400000000024566BDC00    05DNPLANET VAPOR INC #500    09680B    VS84000000002456 N  599977384801                            000000000+                B CB 12111                     000000000  N000000000 495   0000000000000.00 0000000.00   0000000.00                             000000000000000                                                                                                                                                     01418 A000000000000 0000000000000.51     01650 01000                  
03728660658110059DT67590675900000009092800101800000010180010177287283118900014300051042820230000000427511823000000000211708517805XXXXXX5801       MS02WI09          NY 1 0 AMPLMA8UPP0428  N840000000004275          05DNPLANET VAPOR INC #500    08872B    MC84000000004275 N  599977384801                            000000000+M10101C5434C    MPL  00353                     000000000  N                0000000000000.00 0000000.00   0000000.00                             000000000000000                                                                                                                                                   B101418  000000000000 0000000000000.87     01800 01000                  
03728670658110060DT67590675900000009092800101800000010180010177287283118900014300069042820230000000286811823000000000211708510805XXXXXX3814       MS02WI09          NY 1 0 AMDJQZH0PU0428  N840000000002868          07DNPLANET VAPOR INC #500    003049    MD84000000002868 N  599977384801                            000000000+M10101M0034C    MDJ  10815                     000000000  1                0000000000000.00 0000000.00   0000000.00                             000000000000000                                                                                                                                                   B101418  000000000000 0000000000000.23     00050 02200                  
03728680658110061DT67590675900000009092800101800000010180010177287283118900014300077042820230000000069311823000000000211708510805XXXXXX3814       MS02WI09          NY 1 0 AMDJMG2VPP0428  N840000000000693          07DNPLANET VAPOR INC #500    003217    MD84000000000693 N  599977384801                            000000000+M10101M0034C    MDJ  10815                     000000000  1                0000000000000.00 0000000.00   0000000.00                             000000000000000                                                                                                                                                   B101418  000000000000 0000000000000.22     00050 02200                  
03728690658110062DT67590675900000009092800101800000010180010124001193118900014300083042820230000000853211823000000000211708434257XXXXXX0670       VS11    0001111   NYV1 A E303118564848308N840000000008532JKCS00    07DNPLANET VAPOR INC #500    063310    VD84000000008532 N  599977384801                            000000000+                F DF 10433                     000000000  Y000000000 338   0000000000000.00 0000000.00   0000000.00                             000000000000000                                                                                                                                                     01418 A000000000000 0000000000000.26     00050 02200                  
03728700658110063DT67590675900000009092800101800000010180010124001193118900014300091042820230000000377911823000000000211708435640XXXXXX0553       VS11    0001111   NYV1 A E383118567371515N840000000003779HWCN00    05DNPLANET VAPOR INC #500    124156    VD84000000003779 N  599977384801                            000000000+                F DF 10433                     000000000  Y000000000 338   0000000000000.00 0000000.00   0000000.00                             000000000000000                                                                                                                                                     01418 A000000000000 0000000000000.24     00050 02200                  
03728710658110064DT67590675900000009092800101800000010180010124001193118900014300109042820230000000323811823000000000211708406502XXXXXX2537       VS11    0001111   NYV1 A E463118579810592N840000000003238SHLZ00    07DNPLANET VAPOR INC #500    015143    VD84000000003238 N  599977384801                            000000000+                F DF 10433                     000000000  Y000000000 338   0000000000000.00 0000000.00   0000000.00                             000000000000000                                                                                                                                                     01418 A000000000000 0000000000000.24     00050 02200                  
03728720658110065DT67590675900000009092800101800000010180010124001193118900014300117042820230000000323811823000000000211708440393XXXXXX8008       VS11    0001111   NYV1 A E383118581889675N840000000003238G8V700    07DNPLANET VAPOR INC #500    168566    VD84000000003238 N  599977384801                            000000000+                F PF 08170                     000000000  N000000000       0000000000000.00 0000000.00   0000000.00                             000000000000000                                                                                                                                                     01418 A000000000000 0000000000000.52     01150 01500                  
03728730658110066DT67590675900000009092800101800000010180010124001193118900014300125042820230000001123011823000000000211708448233XXXXXX7905       VS11    0001111   NYV1 A E583118593043893N840000000011230MQ4H00    05DNPLANET VAPOR INC #500    012825    VD84000000011230 N  599977384801                            000000000+                F DF 10433                     000000000  Y000000000 338   0000000000000.00 0000000.00   0000000.00                             000000000000000                                                                                                                                                     01418 A000000000000 0000000000000.28     00050 02200                  
03728740658110067DT67590675900000009092800101800000010180010124001193118900014300133042820230000000205111823000000000211708473703XXXXXX8578       VS11    0001111   NYV1 A E583118622682339N8400000000020517LX300    07DNPLANET VAPOR INC #500    060884    VD84000000002051 N  599977384801                            000000000+                F DF 10433                     000000000  Y000000000 338   0000000000000.00 0000000.00   0000000.00                             000000000000000                                                                                                                                                     01418 A000000000000 0000000000000.23     00050 02200                  
03728750658110068DT67590675900000009092800101800000010180010124001193118900014300141042820230000000690911823000000000211708458643XXXXXX2527       VS11    0001111   NYV1 A E303118637940433N840000000006909FWR900    05DNPLANET VAPOR INC #500    H31298    VD84000000006909 N  599977384801                            000000000+                F DF 10433                     000000000  Y000000000 338   0000000000000.00 0000000.00   0000000.00                             000000000000000                                                                                                                                                     01418 A000000000000 0000000000000.25     00050 02200                  
03728760658110069DT67590675900000009092800101800000010180010177287283118900014300150042820230000000647611823000000000211708520760XXXXXX0273       MS02WI09          NY 1 0 AMDJJXKVK80428  N840000000006476          05DNPLANET VAPOR INC #500    034518    MD84000000006476 N  599977384801                            000000000+M10101C5434C    MDJ  00402                     000000000  N                0000000000000.00 0000000.00   0000000.00                             000000000000000                                                                                                                                                   B101418  000000000000 0000000000000.83     01050 01500                  
03728770658110070DT67590675900000009092800101800000010180010124001193118900014300166042820230000000828311823000000000211708430602XXXXXX2992       VS11    0001111   NYV1 A E463118646122827N840000000008283JXG800    05DNPLANET VAPOR INC #500    719955    VD84000000008283 N  599977384801                            000000000+                F DF 00381                     000000000  N000000000       0000000000000.00 0000000.00   0000000.00                             000000000000000                                                                                                                                                     01418 A000000000000 0000000000000.81     00800 01500                  
03728780658110071DT67590675900000009092800101800000010180010124001193118900014300174042820230000000215911823000000000211708410064XXXXXX6210       VS11    0001111   NYV1 A E303118650294481N8400000000021594K4500    05DNPLANET VAPOR INC #500    00489D    VS84000000002159 N  599977384801                            000000000+                D CD 12113                     000000000  N000000000 499   0000000000000.00 0000000.00   0000000.00                             000000000000000                                                                                                                                                     01418 A000000000000 0000000000000.55     02100 01000                  
03728790658110072DT67590675900000009092800101800000010180010124001193118900014300182042820230000000215911823000000000211708414776XXXXXX2635       VS11    0001111   NYV1 A E583118651581465N840000000002159X76N00    05DNPLANET VAPOR INC #500    318250    VS84000000002159 N  599977384801                            000000000+                D CD 12113                     000000000  N000000000 499   0000000000000.00 0000000.00   0000000.00                             000000000000000                                                                                                                                                     01418 A000000000000 0000000000000.55     02100 01000                  
03728800658110073DT67590675900000009092800101800000010180010124001193118900014300190042820230000000301111823000000000211708473703XXXXXX0148       VS11    0001111   NYV1 A E583118655404837N840000000003011PPTK00    05DNPLANET VAPOR INC #500    059391    VD84000000003011 N  599977384801                            000000000+                F DF 10433                     000000000  Y000000000 338   0000000000000.00 0000000.00   0000000.00                             000000000000000                                                                                                                                                     01418 A000000000000 0000000000000.24     00050 02200                  
03728810658110074DT67590675900000009092800101800000010180010124001193118900014300208042820230000000698911823000000000211708434258XXXXXX7212       VS11    0001111   NYV1 A E383118661005206N8400000000069892PHF00    05DNPLANET VAPOR INC #500    043316    VD84000000006989 N  599977384801                            000000000+                F DF 10433                     000000000  Y000000000 338   0000000000000.00 0000000.00   0000000.00                             000000000000000                                                                                                                                                     01418 A000000000000 0000000000000.25     00050 02200                  
03728820658110075DT67590675900000009092800101800000010180010124001193118900014300216042820230000000485911823000000000211708435546XXXXXX6986       VS11    0001111   NYV1 A E383118662727659N840000000004859SB5R00    05DNPLANET VAPOR INC #500    101154    VD84000000004859 N  599977384801                            000000000+                F DF 10433                     000000000  Y000000000 338   0000000000000.00 0000000.00   0000000.00                             000000000000000                                                                                                                                                     01418 A000000000000 0000000000000.24     00050 02200                  
03728830658110076DT67590675900000009092800101800000010180010124001193118900014300224042820230000000242911823000000000211708498503XXXXXX1514       VS11    0001111   NYV1 A E463118666392032N840000000002429FV7S00    05DNPLANET VAPOR INC #500    025456    VD84000000002429 N  599977384801                            000000000+                F DF 00381                     000000000  N000000000       0000000000000.00 0000000.00   0000000.00                             000000000000000                                                                                                                                                     01418 A000000000000 0000000000000.34     00800 01500                  
03728840658110077DT67590675900000009092800101800000010180010124001193118900014300232042820230000000340111823000000000211708423223XXXXXX6629       VS11    0001111   NYV1 A E583118668406648N840000000003401QDDK00    05DNPLANET VAPOR INC #500    092511    VD84000000003401 N  599977384801                            000000000+                F DF 00381                     000000000  N000000000       0000000000000.00 0000000.00   0000000.00                             000000000000000                                                                                                                                                     01418 A000000000000 0000000000000.42     00800 01500                  
03728850658110078DT67590675900000009092800101800000010180010124001193118900014300240042820230000000777411823000000000211708466189XXXXXX9582       VS11    0001111   NYV1 A E383118669685621N8400000000077747SZK00    05DNPLANET VAPOR INC #500    030965    VD84000000007774 N  599977384801                            000000000+                F DF 10433                     000000000  Y000000000 338   0000000000000.00 0000000.00   0000000.00                             000000000000000                                                                                                                                                     01418 A000000000000 0000000000000.26     00050 02200                  
03728860658110079DT67590675900000009092800101800000010180010177287283118900014300259042820230000000398311823000000000211708531258XXXXXX4192       MS02WI09          NY 1 0 AMDJCCGIKZ0428  N840000000003983          07DNPLANET VAPOR INC #500    124652    MD84000000003983 N  599977384801                            000000000+M10101M0034C    MDJ  10815                     000000000  1                0000000000000.00 0000000.00   0000000.00                             000000000000000                                                                                                                                                   B101418  000000000000 0000000000000.24     00050 02200                  
03728870658110080DT67590675900000009092800101800000010180010124001193118900014300265042820230000000388611823000000000211708448233XXXXXX7707       VS11    0001111   NYV1 A E383118676223003N840000000003886KVST00    07DNPLANET VAPOR INC #500    034702    VD84000000003886 N  599977384801                            000000000+                F DF 10433                     000000000  Y000000000 338   0000000000000.00 0000000.00   0000000.00                             000000000000000                                                                                                                                                     01418 A000000000000 0000000000000.24     00050 02200                  
03728880658110081DT67590675900000009092800101800000010180010124001193118900014300273042820230000000641211823000000000211708400022XXXXXX8950       VS11    0001111   NYV1 A E583118678270824N840000000006412CP5G00    07DNPLANET VAPOR INC #500    098293    VD84000000006412 N  599977384801                            000000000+                F DF 10433                     000000000  Y000000000 338   0000000000000.00 0000000.00   0000000.00                             000000000000000                                                                                                                                                     01418 A000000000000 0000000000000.25     00050 02200                  
03728890658110082DT67590675900000009092800101800000010180010124001193118900014300281042820230000000539711823000000000211708453506XXXXXX6452       VS11    0001111   NYV1 A E383118682934628N840000000005397W2ZP00    07DNPLANET VAPOR INC #500    H41271    VD84000000005397 N  599977384801                            000000000+                F DF 10433                     000000000  Y000000000 338   0000000000000.00 0000000.00   0000000.00                             000000000000000                                                                                                                                                     01418 A000000000000 0000000000000.25     00050 02200                  
03728900658110083DT67590675900000009092800101800000010180010124001193118900014300299042820230000000593811823000000000211708474474XXXXXX5032       VS11    0001111   NYV1 A E383118698674028N840000000005938TXC200    05DNPLANET VAPOR INC #500    132140    VD84000000005938 N  599977384801                            000000000+                F DF 10433                     000000000  Y000000000 338   0000000000000.00 0000000.00   0000000.00                             000000000000000                                                                                                                                                     01418 A000000000000 0000000000000.25     00050 02200                  
03728910658110084DT67590675900000009092800101800000010180010177287283118900014300309042820230000000323811823000000000211708531260XXXXXX4054       MS02WI09          NY 1 0 AMDJNY7ZK80428  N840000000003238          07DNPLANET VAPOR INC #500    164184    MD84000000003238 N  599977384801                            000000000+M10101M0034C    MDJ  10815                     000000000  1                0000000000000.00 0000000.00   0000000.00                             000000000000000                                                                                                                                                   B101418  000000000000 0000000000000.24     00050 02200                  
03728920658110085DT67590675900000009092800101800000010180010173011003118900014300311042820230000000504411823000000000211708371303XXXXX2014                          NY 1 0 N004906112072305N840000000005044          07DNPLANET VAPOR #500        853980    AM84000000005044 N  599977384801                            000000000+51010X55434C 258     11261                     000000000                   0000000000000.00 0000000.00   0000000.00                             000000000000000 61248972086759675900000009092 PLANET VAPOR #500        1001 KINLEY RD UNIT A    8035462263      29063     KEVIN@MOOREDISTRO.COM                     01418  000000000000 0000000000000.91     01600 00000                  
03728930658110086DT67590675900000009092800101800000010180010124001193118900014300323042820230000000269911823000000000211708474474XXXXXX8505       VS11    0001111   NYV1 A E463118734640095N8400000000026993SBQ00    05DNPLANET VAPOR INC #500    142948    VD84000000002699 N  599977384801                            000000000+                F DF 10433                     000000000  Y000000000 338   0000000000000.00 0000000.00   0000000.00                             000000000000000                                                                                                                                                     01418 A000000000000 0000000000000.23     00050 02200                  
03728940658110087DT67590675900000009092800101800000010180010124001193118900014300331042820230000000453411823000000000211708401099XXXXXX6863       VS11    0001111   NYV1 A E383118740964760N840000000004534NQQF00    05DNPLANET VAPOR INC #500    215324    VS84000000004534 N  599977384801                            000000000+                A CA 12110                     000000000  N000000000 493   0000000000000.00 0000000.00   0000000.00                             000000000000000                                                                                                                                                     01418 A000000000000 0000000000000.78     01510 01000                  
03728950658110088DT67590675900000009092800101800000010180010124001193118900014300349042820230000000107911823000000000211708461675XXXXXX6464       VK04VS111111111   NYV1 A E583118745458635N840000000001079T6NZ00    05DNPLANET VAPOR INC #500    422600    VD84000000001079 N  599977384801                            000000000+                F DF 00451                     000000000  N000000000 214   0000000000000.00 0000000.00   0000000.00                             000000000000000                                                                                                                                                     01418 F000000000000 0000000000000.21     01550 00400                  
03728960658110089DT67590675900000009092800101800000010180010124001193118900014300356042820230000000280711823000000000211708403446XXXXXX5483       VS11    0001111   NYV1 A E303118751998444N840000000002807CBFS00    90DNPLANET VAPOR INC #500    415178    VD84000000002807 N  599977384801                            000000000+                F PF 08170                     000000000  N000000000       0000000000000.00 0000000.00   0000000.00                             000000000000000                                                                                                                                                     01418 A000000000000 0000000000000.47     01150 01500                  
03728970658110090DT67590675900000009092800101800000010180010177287283118900014300366042820230000000712611823000000000211708531258XXXXXX3298       MS02WI09          NY 1 0 AMDJQOPFK80428  N840000000007126          05DNPLANET VAPOR INC #500    121932    MD84000000007126 N  599977384801                            000000000+M10101C5434C    MDJ  10815                     000000000  1                0000000000000.00 0000000.00   0000000.00                             000000000000000                                                                                                                                                   B101418  000000000000 0000000000000.26     00050 02200                  
03728980658110091DT67590675900000009092800101800000010180010124001193118900014300372042820230000000280711823000000000211708440393XXXXXX4789       VS11    0001111   NYV1 A E583118765980873N8400000000028077BVJ00    05DNPLANET VAPOR INC #500    004214    VD84000000002807 N  599977384801                            000000000+                F PF 08170                     000000000  N000000000       0000000000000.00 0000000.00   0000000.00                             000000000000000                                                                                                                                                     01418 A000000000000 0000000000000.47     01150 01500                  
03728990658110092DT67590675900000009092800101800000010180010124001193118900014300380042820230000000205111823000000000211708410039XXXXXX1589       VS11    0001111   NYV1 A E583118767072493N840000000002051FMKT00    07DNPLANET VAPOR INC #500    12040D    VS84000000002051 N  599977384801                            000000000+                D CD 12113                     000000000  N000000000 499   0000000000000.00 0000000.00   0000000.00                             000000000000000                                                                                                                                                     01418 A000000000000 0000000000000.53     02100 01000                  
03729000658110093DT67590675900000009092800101800000010180010124001193118900014300398042820230000000161911823000000000211708414709XXXXXX6747       VS11    0001111   NYV1 A E303118769607868N8400000000016198V9800    05DNPLANET VAPOR INC #500    07227D    VS84000000001619 N  599977384801                            000000000+                D CD 12113                     000000000  N000000000 499   0000000000000.00 0000000.00   0000000.00                             000000000000000                                                                                                                                                     01418 A000000000000 0000000000000.44     02100 01000                  
03729010658110094DT67590675900000009092800101800000010180010124001193118900014300406042820230000000604511823000000000211708433477XXXXXX7893       VS11    0001111   NYV1 A E303118776748535N840000000006045QFGW00    05DNPLANET VAPOR INC #500    785261    VD84000000006045 N  599977384801                            000000000+                F DF 10433                     000000000  Y000000000 338   0000000000000.00 0000000.00   0000000.00                             000000000000000                                                                                                                                                     01418 A000000000000 0000000000000.25     00050 02200                  
03729020658110095DT67590675900000009092800101800000010180010124001193118900014300414042820230000000566811823000000000211708473703XXXXXX5107       VS11    0001111   NYV1 A E303118778323192N840000000005668SW9500    05DNPLANET VAPOR INC #500    045280    VD84000000005668 N  599977384801                            000000000+                F DF 10433                     000000000  Y000000000 338   0000000000000.00 0000000.00   0000000.00                             000000000000000                                                                                                                                                     01418 A000000000000 0000000000000.25     00050 02200                  
03729030658110096DT67590675900000009092800101800000010180010177287283118900014300424042820230000000431911823000000000211708534942XXXXXX6773       MS02WI09          NY 1 0 AMDJNU8AS00428  N840000000004319          07DNPLANET VAPOR INC #500    339600    MD84000000004319 N  599977384801                            000000000+M10101M0034C    MDJ  00402                     000000000  N                0000000000000.00 0000000.00   0000000.00                             000000000000000                                                                                                                                                   A101418  000000000000 0000000000000.60     01050 01500                  
03729040658110097DT67590675900000009092800101800000010180010124001193118900014300430042820230000000075511823000000000211708473703XXXXXX4281       VK04VS111111111   NYV1 A E463118783245428N840000000000755GD7Z00    05DNPLANET VAPOR INC #500    060460    VD84000000000755 N  599977384801                            000000000+                F DF 10439                     000000000  Y000000000 331   0000000000000.00 0000000.00   0000000.00                             000000000000000                                                                                                                                                     01418 F000000000000 0000000000000.22     00050 02200                  
03729050658110098DT67590675900000009092800101800000010180010124001193118900014300448042820230000000323811823000000000211708473703XXXXXX2766       VS11    0001111   NYV1 A E383118787765048N840000000003238DWBV00    07DNPLANET VAPOR INC #500    046756    VD84000000003238 N  599977384801                            000000000+                F DF 10433                     000000000  Y000000000 338   0000000000000.00 0000000.00   0000000.00                             000000000000000                                                                                                                                                     01418 A000000000000 0000000000000.24     00050 02200                  
03729060658110099DT67590675900000009092800101800000010180010177287283118900014300457042820230000000507411823000000000211708531258XXXXXX5088       MS02WI09          NY 1 0 AMDJF3PZVZ0428  N840000000005074          07DNPLANET VAPOR INC #500    162298    MD84000000005074 N  599977384801                            000000000+M10101M5434C    MDJ  10815                     000000000  1                0000000000000.00 0000000.00   0000000.00                             000000000000000                                                                                                                                                   B101418  000000000000 0000000000000.25     00050 02200                  
03729070658110100DT67590675900000009092800101800000010180010124001193118900014300463042820230000000150511823000000000211708440393XXXXXX2483       VS11    0001111   NYV1 A E303118830123768N8400000000015057T4K00    05DNPLANET VAPOR INC #500    538536    VD84000000001505 N  599977384801                            000000000+                F PF 08170                     000000000  N000000000       0000000000000.00 0000000.00   0000000.00                             000000000000000                                                                                                                                                     01418 A000000000000 0000000000000.32     01150 01500                  
03729080658110101DT67590675900000009092800101800000010180010124001193118900014300471042820230000000215911823000000000211708440066XXXXXX4791       VS11    0001111   NYV1 A E303118831991823N840000000002159B2LG00    05DNPLANET VAPOR INC #500    05490D    VS84000000002159 N  599977384801                            000000000+                D CD 12113                     000000000  N000000000 499   0000000000000.00 0000000.00   0000000.00                             000000000000000                                                                                                                                                     01418 A000000000000 0000000000000.55     02100 01000                  
03729090658110102DT67590675900000009092800101800000010180010124001193118900014300489042820230000000410211823000000000211708433477XXXXXX8461       VS11    0001111   NYV1 A E303118833542664N840000000004102WB8W00    05DNPLANET VAPOR INC #500    888609    VD84000000004102 N  599977384801                            000000000+                F DF 10433                     000000000  Y000000000 338   0000000000000.00 0000000.00   0000000.00                             000000000000000                                                                                                                                                     01418 A000000000000 0000000000000.24     00050 02200                  
03729100658110103DT67590675900000009092800101800000010180010124001193118900014300497042820230000000377911823000000000211708472816XXXXXX9100       VS11    0001111   NYV1 A E303118842693458N8400000000037798LR300    07DNPLANET VAPOR INC #500    031897    VD84000000003779 N  599977384801                            000000000+                F DF 10433                     000000000  Y000000000 338   0000000000000.00 0000000.00   0000000.00                             000000000000000                                                                                                                                                     01418 A000000000000 0000000000000.24     00050 02200                  
03729110658110104DT67590675900000009092800101800000010180010124001193118900014300505042820230000000677311823000000000211708473703XXXXXX3526       VS11    0001111   NYV1 A E303118845881755N8400000000067735Q7800    05DNPLANET VAPOR INC #500    013853    VD84000000006773 N  599977384801                            000000000+                F DF 10433                     000000000  Y000000000 338   0000000000000.00 0000000.00   0000000.00                             000000000000000                                                                                                                                                     01418 A000000000000 0000000000000.25     00050 02200                  
03729120658110105DT67590675900000009092800101800000010180010124001193118900014300513042820230000000669411823000000000211708427199XXXXXX7619       VS11    0001111   NYV1 A E463118847322985N840000000006694P8CT00    05DNPLANET VAPOR INC #500    471500    VD84000000006694 N  599977384801                            000000000+                F DF 00381                     000000000  N000000000       0000000000000.00 0000000.00   0000000.00                             000000000000000                                                                                                                                                     01418 A000000000000 0000000000000.69     00800 01500                  
03729130658110106BH6759067590000001090080010180000090170428202311823000000000075153    0000090001430017N8001016759C04302023                                                                                                                                                                                                                                                                                                                                                                                                                                                                                                                                                                                                 
03729140658110107DT67590675900000010900800101800000010180010124001193118900014300018042820230000000183511823000000000075153459954XXXXXX8147       VS11    0001111   NYV1 A E383118513597726N84000000000183564F200    05DNPLANET VAPOR INC #700    H93477    VD84000000001835 N  599977384978                            000000000+                F DF 10433                     000000000  Y000000000 338   0000000000000.00 0000000.00   0000000.00                             000000000000000                                                                                                                                                     01418 A000000000000 0000000000000.23     00050 02200                  
03729150658110108DT67590675900000010900800101800000010180010124001193118900014300026042820230000000485911823000000000075153458643XXXXXX8297       VS11    0001111   NYV1 A E463118521130866N8400000000048592XD600    05DNPLANET VAPOR INC #700    H97778    VD84000000004859 N  599977384978                            000000000+                F DF 10433                     000000000  Y000000000 338   0000000000000.00 0000000.00   0000000.00                             000000000000000                                                                                                                                                     01418 A000000000000 0000000000000.24     00050 02200                  
03729160658110109DT67590675900000010900800101800000010180010177287283118900014300036042820230000000485911823000000000075153527515XXXXXX2175       MS02WI09          NY 1 0 AMDJRLVJPU0428  N840000000004859          05DNPLANET VAPOR INC #700    145439    MD84000000004859 N  599977384978                            000000000+M10101C5434C    MDJ  10815                     000000000  1                0000000000000.00 0000000.00   0000000.00                             000000000000000                                                                                                                                                   B101418  000000000000 0000000000000.24     00050 02200                  
03729170658110110DT67590675900000010900800101800000010180010177287283118900014300044042820230000000194311823000000000075153526226XXXXXX3361       MS02WI09          NY 1 0 AMDSNQB2PP0428  N840000000001943          05DNPLANET VAPOR INC #700    92253Z    MD84000000001943 N  599977384978                            000000000+M10101C5434C    MDS  10815                     000000000  1                0000000000000.00 0000000.00   0000000.00                             000000000000000                                                                                                                                                   B101418  000000000000 0000000000000.23     00050 02200                  
03729180658110111DT67590675900000010900800101800000010180010124001193118900014300059042820230000000378011823000000000075153400022XXXXXX1264       VS11    0001111   NYV1 A E383118628665987N840000000003780RHHK00    07DNPLANET VAPOR INC #700    490688    VD84000000003780 N  599977384978                            000000000+                F DF 10433                     000000000  Y000000000 338   0000000000000.00 0000000.00   0000000.00                             000000000000000                                                                                                                                                     01418 A000000000000 0000000000000.24     00050 02200                  
03729190658110112DT67590675900000010900800101800000010180010124001193118900014300067042820230000000583011823000000000075153474474XXXXXX8545       VS11    0001111   NYV1 A E463118663427434N840000000005830VMQJ00    05DNPLANET VAPOR INC #700    122659    VD84000000005830 N  599977384978                            000000000+                F DF 10433                     000000000  Y000000000 338   0000000000000.00 0000000.00   0000000.00                             000000000000000                                                                                                                                                     01418 A000000000000 0000000000000.25     00050 02200                  
03729200658110113DT67590675900000010900800101800000010180010124001193118900014300075042820230000000238911823000000000075153438419XXXXXX1355       VS11    0001111   NYV1 A E383118677639317N8400000000023892LG500    05DNPLANET VAPOR INC #700    044923    VD84000000002389 N  599977384978                            000000000+                F DF 00381                     000000000  N000000000       0000000000000.00 0000000.00   0000000.00                             000000000000000                                                                                                                                                     01418 A000000000000 0000000000000.34     00800 01500                  
03729210658110114DT67590675900000010900800101800000010180010124001193118900014300083042820230000000874611823000000000075153473703XXXXXX9832       VS11    0001111   NYV1 A E303118683975330N840000000008746XR8C00    05DNPLANET VAPOR INC #700    068479    VD84000000008746 N  599977384978                            000000000+                F DF 10433                     000000000  Y000000000 338   0000000000000.00 0000000.00   0000000.00                             000000000000000                                                                                                                                                     01418 A000000000000 0000000000000.26     00050 02200                  
03729220658110115DT67590675900000010900800101800000010180010124001193118900014300091042820230000000453711823000000000075153438419XXXXXX0777       VS11    0001111   NYV1 A E303118697500995N840000000004537R98800    05DNPLANET VAPOR INC #700    052230    VD84000000004537 N  599977384978                            000000000+                F DF 00381                     000000000  N000000000       0000000000000.00 0000000.00   0000000.00                             000000000000000                                                                                                                                                     01418 A000000000000 0000000000000.51     00800 01500                  
03729230658110116DT67590675900000010900800101800000010180010124001193118900014300109042820230000000213711823000000000075153473703XXXXXX0134       VS11    0001111   NYV1 A E303118711195244N840000000002137TCP400    05DNPLANET VAPOR INC #700    053750    VD84000000002137 N  599977384978                            000000000+                F DF 10433                     000000000  Y000000000 338   0000000000000.00 0000000.00   0000000.00                             000000000000000                                                                                                                                                     01418 A000000000000 0000000000000.23     00050 02200                  
03729240658110117DT67590675900000010900800101800000010180010124001193118900014300117042820230000000432211823000000000075153473703XXXXXX4393       VS11    0001111   NYV1 A E383118753141253N840000000004322JFLW00    05DNPLANET VAPOR INC #700    013022    VD84000000004322 N  599977384978                            000000000+                F DF 10433                     000000000  Y000000000 338   0000000000000.00 0000000.00   0000000.00                             000000000000000                                                                                                                                                     01418 A000000000000 0000000000000.24     00050 02200                  
03729250658110118DT67590675900000010900800101800000010180010124001193118900014300125042820230000000269911823000000000075153453506XXXXXX7631       VS11    0001111   NYV1 A E463118810882815N840000000002699XSSM00    05DNPLANET VAPOR INC #700    H75892    VD84000000002699 N  599977384978                            000000000+                F DF 10433                     000000000  Y000000000 338   0000000000000.00 0000000.00   0000000.00                             000000000000000                                                                                                                                                     01418 A000000000000 0000000000000.23     00050 02200                  
03729260658110119DT67590675900000010900800101800000010180010176509753118900014300131042820230000000496611823000000000075153601100XXXXXX7078   BA50                  NY41 0 N753101760423026N840000000004966    00    05DNPLANET VAPOR INC #700    02885R    DS84000000004966 N  599977384978050                         000000000+0000004910H00   DCCDI01000833635  184042000000 000000000  0          112   0000000000000.00 0000000.00   0000000.00                             000000000000000                                                                                                                                                     01418  000000000000 0000000000000.95     01720 01000                  
03729270658110120DT67590675900000010900800101800000010180010124001193118900014300141042820230000000118611823000000000075153440393XXXXXX4134       VK04VS111111111   NYV1 A E383118835745655N840000000001186MNTJ00    05DNPLANET VAPOR INC #700    298843    VD84000000001186 N  599977384978                            000000000+                F PF 08165                     000000000  N000000000       0000000000000.00 0000000.00   0000000.00                             000000000000000                                                                                                                                                     01418 F000000000000 0000000000000.24     01600 00500                  
