00002970213270002BH6759067590000000051380000180000090171109202231322000000000000055    0000090001015510Y8000016759C11102022                                                                                                                                                                                                                                                                                                                                                                                                                                                                                                                                                                                                 
00002980213270003DT67590675900000000513800001800000010180000187287282313900010155107110920220000000005531322000000000000055558158XXXXXX7298                         NY 4 01AMDBR1HQ1O1109  N840000000000055          01DNVERMONT STATE BANK2      2P1FYW    MD84000000000055 NP1549917161166                            000000000+600030100100    MDB  00063                     000000000  N                0000000000000.00 0000000.00   0000000.00 000000000002                000000000000000                                                                                                                                                   U001424  000000000000 0000000000000.11     02050 01000                  
00002990213270001P1675906759000000005138000018000000101                                                 000000000000000000000          1000   000000000390335740            000000000000                                                                                                                                                                                                                                                                                                                                                                                                                                                                                                                                    
