00002860397310002BH6759067590000000370780088880000090170117202301723000000000033901    0000090001200145Y8008886759C01182023                                                                                                                                                                                                                                                                                                                                                                                                                                                                                                                                                                                                 
00002870397310003DT67590675900000003707800888800000010180088887287283017900012001421011620230000000497801723000000000033901546196XXXXXX9122       ME03KE06MS02      NY 4607AMDJLZNH3Z0116  N840000000004978          81DNMR HEMP FLOWER           048039    MD84000000004978 N  549976053336   84312                    000000000+600450S00130    MDJ  00401                     000000000  N                0000000000000.00 0000000.00   0000000.00                             000000000000000                                                                                                                                                   U001424  000000000000 0000000000000.97     01650 01500                  
00002880397310004DT67590675900000003707800888800000010180088876509753017900012001436011620230000000749701723000000000033901601101XXXXXX5494   BA00                  NY 4 07N753013741455060N840000000007497    00    01DNMR HEMP FLOWER           01617B    DZ84000000007497 N  549976053336070                         000000000+1015104910600   DMCDI01012201040  204225000000 000000000  0          124   0000000000000.00 0000000.00   0000000.00                             000000000000000                                                                                                                                                     01424  000000000000 0000000000001.99     02450 01500                  
00002890397310005DT67590675900000003707800888800000010180088887287283017900012001447011720230000001497801723000000000033901517057XXXXXX7741       ME03KE06MS02      NY 4607AMDJB8EMDW0117  N840000000014978          81DNMR HEMP FLOWER           089290    MD84000000014978 N  549976053336   84310                    000000000+600450S00130    MDJ  00401                     000000000  N                0000000000000.00 0000000.00   0000000.00                             000000000000000                                                                                                                                                   U001424  000000000000 0000000000002.62     01650 01500                  
00002900397310006DT67590675900000003707800888800000010180088824001193017900012001453011720230000000644801723000000000033901438857XXXXXX9525               2111111   NYV4 A7W383017615049326N840000000006448P2M500    01DNMR HEMP FLOWER           05148D    VS84000000006448 NP1549976053336   84324                    000000000+                D CD 12109                     000000000  N000000000 498   0000000000000.00 0000000.00   0000000.00                             000000000000000                                                                                                                                                     01424 G000000006448 0000000000001.71     02500 01000                  
00002910397310001P16759067590000000370780088880000001010000000000000000                             2000000000000000000000000              000000000000                    0000000000000000000000000                    000000000000                                                                                                                                                                                                                                                                                                                                                                                                                                                                                        
