07693300513859795AD675906759000000268498001258000009077900013907490000001977006212023NYY17223YC6759800125062320232023172026857                                                                                                                                                                                                                                                                                                                                                                                                                                                                                                                                                                                              
07693310513859798AD675906759000000268498001258000009071900011323080000002245006212023NYY17223ND6759800125062320232023172024060                                                                                                                                                                                                                                                                                                                                                                                                                                                                                                                                                                                              
07693320513859801AD675906759000000133008001028000009071900011553440000001400806212023NYY17223ND6759800102062320232023172024061                                                                                                                                                                                                                                                                                                                                                                                                                                                                                                                                                                                              
07693330513859804AD675906759000000268498001258000009071900014245160000002245006212023NYY17223ND6759800125062320232023172024062                                                                                                                                                                                                                                                                                                                                                                                                                                                                                                                                                                                              
07693340513859807AD675906759000000232598001168000009071900010402450000001742606212023NYY17223ND6759800116062320232023172024063                                                                                                                                                                                                                                                                                                                                                                                                                                                                                                                                                                                              
07693350514190947AD675906759000000151648008888000009077231220555110000001147506212023NYY17223YC6759800888062320232023122055511                                                                                                                                                                                                                                                                                                                                                                                                                                                                                                                                                                                              
07693360514190950AD675906759000000133008001028000009077231360062440000002121106212023NYY17223YC6759800102062320232023136006244                                                                                                                                                                                                                                                                                                                                                                                                                                                                                                                                                                                              
07693370514190953AD675906759000000198288001098000009077231440044480000002487006212023NYY17223YC6759800109062320232023144004448                                                                                                                                                                                                                                                                                                                                                                                                                                                                                                                                                                                              
07693380516040681BH6759067590000002325980011680000090170622202317323000000000021789    0000090001722331N8001166759D06232023072                                                                                                                                                                                                                                                                                                                                                                                                                                                                                                                                                                                              
07693390516040682DT67590675900000023259800116800000010680011687287283173900017223319062120230000002178917323000000000021789551683XXXXXX4174                         YY94607N         0621  N840000000000000          81CNGFORCEHEMP844-258-9322             MD84000000021789 N  549977768166   D29AFCBD9CTC3004EF1DBDD  000000000+600450S00130    MDS  00560                     000000000  N                0000000000000.00 0000000.00   0000000.00                             000000000000000                                                                                                                                                     015WPE 000000000000 0000000000000.00     00000 00000                  
07693400516040001G26759067590000002325980011680000001068442589322               CA           9 S               210                                      NNNN           210000000000000000000000000                        7                                          77768166                                                                                                                                                                                                                                                                                                                                                                                                                                               
07693410516040685BH6759067590000003201180013680000090170622202317323000000000943275    0000090001375552N8001366759C06232023000                                                                                                                                                                                                                                                                                                                                                                                                                                                                                                                                                                                              
07693420516040686DT67590675900000032011800136800000010180013673011003173900013725403062120230000094327517323000000000943275376752XXXXX2005                          YY 4 07N005358013648321N840000000943275          01DNCHOICE BOTANICALS INC    132500    AM84000000943275 N  549971004114                            000000000+6004S0600140 258     11263                     000000000                   0000000000000.00 0000000.00   0000000.00                             000000000000000 61248972086759675900000032011                          5390 GREENS RD                           77032                                               015WPE 000000000000 0000000000226.49     02400 00000                  
07693430516040001G2675906759000000320118001368000000101HOUSTON                  TX           9                  00                                      NNNN                          000000000000                                                                   71004114                                                                                                                                                                                                                                                                                                                                                                                                                                               
07693440516040689BH6759067590000003201180013680000090170622202317323000000000945375    0000090001375552N8001366759C06232023000                                                                                                                                                                                                                                                                                                                                                                                                                                                                                                                                                                                              
07693450516040690DT67590675900000032011800136800000010180013673011003173900013722525062120230000094537517323000000000945375376752XXXXX2005                          YY 4 07N005357974410325N840000000945375          01DNCHOICE BOTANICALS INC    191239    AM84000000945375 N  549971004114                            000000000+6004S0600140 258     11263                     000000000                   0000000000000.00 0000000.00   0000000.00                             000000000000000 61248972086759675900000032011                          5390 GREENS RD                           77032                                               015WPE 000000000000 0000000000226.99     02400 00000                  
07693460516040001G2675906759000000320118001368000000101HOUSTON                  TX           9                  00                                      NNNN                          000000000000                                                                   71004114                                                                                                                                                                                                                                                                                                                                                                                                                                               
07693470516040693BH6759067590000003201180013680000090170622202317323000000000906975    0000090001375552N8001366759C06232023000                                                                                                                                                                                                                                                                                                                                                                                                                                                                                                                                                                                              
07693480516040694DT67590675900000032011800136800000010180013673011003173900013731054062120230000090697517323000000000906975376752XXXXX2005                          YY 4 07N005379516298307N840000000906975          01DNCHOICE BOTANICALS INC    186086    AM84000000906975 N  549971004114                            000000000+6004S0600140 258     11263                     000000000                   0000000000000.00 0000000.00   0000000.00                             000000000000000 61248972086759675900000032011                          5390 GREENS RD                           77032                                               015WPE 000000000000 0000000000217.77     02400 00000                  
07693490516040001G2675906759000000320118001368000000101HOUSTON                  TX           9                  00                                      NNNN                          000000000000                                                                   71004114                                                                                                                                                                                                                                                                                                                                                                                                                                               
07693500516770002BH6759067590000000288180088880000090170622202317323000000000054423    0000090001540013N8008886759C06232023154                                                                                                                                                                                                                                                                                                                                                                                                                                                                                                                                                                                              
07693510516770003DT67590675900000002881800888800000010180088824001193173900015400017062220230000000658117323000000000054423412777XXXXXX1899       VS11    0001111   NYV1 A E303173512197554N8400000000065816CZL00    05DNHAPPY HIPPIE             002360    VS84000000006581 N  549976487158                            000000000+                C CC 12112                     000000000  N000000000 497   0000000000000.00 0000000.00   0000000.00                             000000000000000                                                                                                                                                     01418 A000000000000 0000000000001.19     01650 01000                  
07693520516770001E167590675900000002881800888800000010100E0F8C80027 00000000000.004040404040404040404040404040404040404040404040404006011203A0A000000000000000000000404040404040404040404040404040  00010840180080800080002306228EFE9DB1CFF5143C178F0933404040400840A0000000031010000000000000000000AEAAED4A0082000000000000000000004040401E40404040 000000065.81 000000000.001E00000000000000000000    80                                                                                                                                                                                                                                                                                                                  
07693530516770002G2675906759000000028818008888000000101SEVIERVILLE              TN           5 C                00                                      NNNN00 Y 00                   000000000000                                                                   76487158                                                                                                                                                                                                                                                                                                                                                                                                                                               
07693540516770004DT67590675900000002881800888800000010180088824001193173900015400025062220230000000885417323000000000054423419090XXXXXX7537       VS11    0001111   NYV1 A E583173523469766N840000000008854L92800    05DNHAPPY HIPPIE             241659    VD84000000008854 N  549976487158                            000000000+                F DF 00381                     000000000  N000000000       0000000000000.00 0000000.00   0000000.00                             000000000000000                                                                                                                                                     01418 A000000000000 0000000000000.86     00800 01500                  
07693550516770001E167590675900000002881800888800000010100E0F8C802B7 00000000000.004040404040404040404040404040404040404040404040404006010A03A02000000000000000000000404040404040404040404040404040  00010840180080800080002306220975A7743C78C5495C7334E7404040400840A00000000310100000000000000000007A42B55BEFA55A3C30300000000000004040401E40404040 000000088.54 000000000.001E00000000000000000000    80                                                                                                                                                                                                                                                                                                                  
07693560516770002G2675906759000000028818008888000000101SEVIERVILLE              TN           5 D                00                                      NNNN00 N 00                   000000000000                                                                   76487158                                                                                                                                                                                                                                                                                                                                                                                                                                               
07693570516770005DT67590675900000002881800888800000010180088824001193173900015400033062220230000000024717323000000000054423402047XXXXXX8472       VK04VS111111111   NYV1 A E463173524693983N840000000000247ZW3B00    07DNHAPPY HIPPIE             120170    VD84000000000247 N  549976487158                            000000000+                F DF 00451                     000000000  N000000000 214   0000000000000.00 0000000.00   0000000.00                             000000000000000                                                                                                                                                     01418 F000000000000 0000000000000.08     01550 00400                  
07693580516770001E167590675900000002881800888800000010100E068C80191 00000000000.004040404040404040404040404040404040404040404040404006011203A00000000000000000000000404040404040404040404040404040  00000840000000000000002306227CFCD1B80BF2903D5049F3B1404040400840A00000000310100000000000000000009090A0215F8237B830300000000000004040404040404040 000000002.47 000000000.004040400000000000000000    80                                                                                                                                                                                                                                                                                                                  
07693590516770002G2675906759000000028818008888000000101SEVIERVILLE              TN           5 D                00                                      NNNN00 N 00                   000000000000                                                                   76487158                                                                                                                                                                                                                                                                                                                                                                                                                                               
07693600516770006DT67590675900000002881800888800000010180088824001193173900015400041062220230000000068617323000000000054423402047XXXXXX2777       VK04VS111111111   NYV1 A E583173525230442N840000000000686KBWW00    07DNHAPPY HIPPIE             122821    VD84000000000686 N  549976487158                            000000000+                F DF 00451                     000000000  N000000000 214   0000000000000.00 0000000.00   0000000.00                             000000000000000                                                                                                                                                     01418 F000000000000 0000000000000.15     01550 00400                  
07693610516770001E167590675900000002881800888800000010100E068C800B1 00000000000.004040404040404040404040404040404040404040404040404006011203A00000000000000000000000404040404040404040404040404040  00000840000000000000002306228C72A23A137BF50140CCAA2A404040400840A000000003101000000000000000000048CAFD8D1A75141C30300000000000004040404040404040 000000006.86 000000000.004040400000000000000000    80                                                                                                                                                                                                                                                                                                                  
07693620516770002G2675906759000000028818008888000000101SEVIERVILLE              TN           5 D                00                                      NNNN00 N 00                   000000000000                                                                   76487158                                                                                                                                                                                                                                                                                                                                                                                                                                               
07693630516770007DT67590675900000002881800888800000010180088824001193173900015400058062220230000000065617323000000000054423402047XXXXXX2827       VK04VS111111111   NYV1 A E303173526315393N8400000000006566GDQ00    05DNHAPPY HIPPIE             128203    VD84000000000656 N  549976487158                            000000000+                F DF 00451                     000000000  N000000000 214   0000000000000.00 0000000.00   0000000.00                             000000000000000                                                                                                                                                     01418 F000000000000 0000000000000.14     01550 00400                  
07693640516770001E167590675900000002881800888800000010100E0F8C802C0 00000000000.004040404040404040404040404040404040404040404040404006010A03A0A000000000000000000000404040404040404040404040404040  00000840180080800080002306221023821BD36B799A22FF6E1E404040400840A0000000031010000000000000000000C82DEBB70707373330300000000000004040401E40404040 000000006.56 000000000.001E00000000000000000000    80                                                                                                                                                                                                                                                                                                                  
07693650516770002G2675906759000000028818008888000000101SEVIERVILLE              TN           5 D                00                                      NNNN00 N 00                   000000000000                                                                   76487158                                                                                                                                                                                                                                                                                                                                                                                                                                               
07693660516770008DT67590675900000002881800888800000010180088824001193173900015400066062220230000000427717323000000000054423419090XXXXXX4157       VS11    0001111   NYV1 A E463173536868838N840000000004277MTCX00    05DNHAPPY HIPPIE             242270    VD84000000004277 N  549976487158                            000000000+                F DF 00381                     000000000  N000000000       0000000000000.00 0000000.00   0000000.00                             000000000000000                                                                                                                                                     01418 A000000000000 0000000000000.49     00800 01500                  
07693670516770001E167590675900000002881800888800000010100E0F8C801F8 00000000000.004040404040404040404040404040404040404040404040404006011203A02000000000000000000000404040404040404040404040404040  0001084018008080008000230622B38B15982D4540ABD2008F89404040400840A0000000031010000000000000000000573E44D80080000000000000000000004040401E40404040 000000042.77 000000000.001E00000000000000000000    80                                                                                                                                                                                                                                                                                                                  
07693680516770002G2675906759000000028818008888000000101SEVIERVILLE              TN           5 D                00                                      NNNN00 N 00                   000000000000                                                                   76487158                                                                                                                                                                                                                                                                                                                                                                                                                                               
07693690516770009DT67590675900000002881800888800000010180088824001193173900015400074062220230000000513217323000000000054423435546XXXXXX4132       VS11    0001111   NYV1 A E583173550978013N840000000005132PRZG00    05DNHAPPY HIPPIE             078141    VD84000000005132 N  549976487158                            000000000+                F DF 10433                     000000000  Y000000000 338   0000000000000.00 0000000.00   0000000.00                             000000000000000                                                                                                                                                     01418 A000000000000 0000000000000.25     00050 02200                  
07693700516770001E167590675900000002881800888800000010100E0F8C80073 00000000000.004040404040404040404040404040404040404040404040404006011203A00000000000000000000000404040404040404040404040404040  0001084018008080008000230622360C9B7A9C5A283C49AF1234404040400840A0000000031010000000000000000000362A72170082000000000000000000004040401E40404040 000000051.32 000000000.001E00000000000000000000    80                                                                                                                                                                                                                                                                                                                  
07693710516770002G2675906759000000028818008888000000101SEVIERVILLE              TN           5 D                00                                      NNNN00 N 00                   000000000000                                                                   76487158                                                                                                                                                                                                                                                                                                                                                                                                                                               
07693720516770010DT67590675900000002881800888800000010180088824001193173900015400082062220230000000325617323000000000054423483950XXXXXX4838       VS11    0001111   NYV1 A E383173552491721N84000000000325662F200    05DNHAPPY HIPPIE             01481D    VS84000000003256 N  549976487158                            000000000+                D CD 12113                     000000000  N000000000 499   0000000000000.00 0000000.00   0000000.00                             000000000000000                                                                                                                                                     01418 A000000000000 0000000000000.78     02100 01000                  
07693730516770001E167590675900000002881800888800000010100E0F8C80625 00000000000.004040404040404040404040404040404040404040404040404006060A03A00000000000000000000000404040404040404040404040404040  0002084018008080008000230622EF00FBC4A94497149E8BF504404040400840A00000000310100000000000000000007928B77F39C74A8D30300000000000004040401E40404040 000000032.56 000000000.001E00000000000000000000    80                                                                                                                                                                                                                                                                                                                  
07693740516770002G2675906759000000028818008888000000101SEVIERVILLE              TN           5 C                00                                      NNNN00 Y 00                   000000000000                                                                   76487158                                                                                                                                                                                                                                                                                                                                                                                                                                               
07693750516770011DT67590675900000002881800888800000010180088824001193173900015400090062220230000001177517323000000000054423473703XXXXXX9118       VS11    0001111   NYV1 A E383173573631072N840000000011775QP9P00    05DNHAPPY HIPPIE             049432    VD84000000011775 N  549976487158                            000000000+                F DF 10433                     000000000  Y000000000 338   0000000000000.00 0000000.00   0000000.00                             000000000000000                                                                                                                                                     01418 A000000000000 0000000000000.28     00050 02200                  
07693760516770001E167590675900000002881800888800000010100E0F8C800A2 00000000000.004040404040404040404040404040404040404040404040404006061203A0A000000000000000000000404040404040404040404040404040  000008401800808000800023062224A244A17C23B9F3015DBBB6404040400840A0000000031010000000000000000000A0E0404030F0401020200000000000004040401E40404040 000000117.75 000000000.001E00000000000000000000    80                                                                                                                                                                                                                                                                                                                  
07693770516770002G2675906759000000028818008888000000101SEVIERVILLE              TN           5 D                00                                      NNNN00 N 00                   000000000000                                                                   76487158                                                                                                                                                                                                                                                                                                                                                                                                                                               
07693780516770012DT67590675900000002881800888800000010180088824001193173900015400108062220230000000526617323000000000054423421783XXXXXX2426       VS11    0001111   NYV1 A E583173601632556N8400000000052667BQM00    07DNHAPPY HIPPIE             058973    VS84000000005266 N  549976487158                            000000000+                A CA 12110                     000000000  N000000000 493   0000000000000.00 0000000.00   0000000.00                             000000000000000                                                                                                                                                     01418 A000000000000 0000000000000.90     01510 01000                  
07693790516770001E167590675900000002881800888800000010100E068C80032 00000000000.004040404040404040404040404040404040404040404040404006011203A00000000000000000000000404040404040404040404040404040  0000084020000000000000230622770CD722ADA3605C885CA35E404040400840A0000000031010000000000000000000E1FB30460080000000000000000000004040404040404040 000000052.66 000000000.004040400000000000000000    80                                                                                                                                                                                                                                                                                                                  
07693800516770002G2675906759000000028818008888000000101SEVIERVILLE              TN           5 C                00                                      NNNN00 N 00                   000000000000                                                                   76487158                                                                                                                                                                                                                                                                                                                                                                                                                                               
07693810516770013DT67590675900000002881800888800000010180088824001193173900015400116062220230000000394817323000000000054423423223XXXXXX3743       VS11    0001111   NYV1 A E463173757616023N8400000000039487V8H00    05DNHAPPY HIPPIE             040143    VD84000000003948 N  549976487158                            000000000+                F DF 00381                     000000000  N000000000       0000000000000.00 0000000.00   0000000.00                             000000000000000                                                                                                                                                     01418 A000000000000 0000000000000.47     00800 01500                  
07693820516770001E167590675900000002881800888800000010100E0F8C80154 00000000000.004040404040404040404040404040404040404040404040404006011203A00000000000000000000000404040404040404040404040404040  0000084018008080008000230622E5AA75F561251AD855D563E5404040400840A00000000310100000000000000000008E3312310080000000000000000000004040401E40404040 000000039.48 000000000.001E00000000000000000000    80                                                                                                                                                                                                                                                                                                                  
07693830516770002G2675906759000000028818008888000000101SEVIERVILLE              TN           5 D                00                                      NNNN00 N 00                   000000000000                                                                   76487158                                                                                                                                                                                                                                                                                                                                                                                                                                               
07693840516770014DT67590675900000002881800888800000010180088824001193173900015400124062220230000000256317323000000000054423422921XXXXXX1496       VS11    0001111   NYV1 A E383173782377627N84000000000256332P900    07DNHAPPY HIPPIE             063838    VD84000000002563 N  549976487158                            000000000+                F DF 00381                     000000000  N000000000       0000000000000.00 0000000.00   0000000.00                             000000000000000                                                                                                                                                     01418 A000000000000 0000000000000.36     00800 01500                  
07693850516770001E167590675900000002881800888800000010100E068C80314 00000000000.004040404040404040404040404040404040404040404040404006011203A00000000000000000000000404040404040404040404040404040  000008402000000000000023062292DC4F45E5FFCF22A97A02BB404040400840A0000000031010000000000000000000D36339260382000000000000000000004040404040404040 000000025.63 000000000.004040400000000000000000    80                                                                                                                                                                                                                                                                                                                  
07693860516770002G2675906759000000028818008888000000101SEVIERVILLE              TN           5 D                00                                      NNNN00 N 00                   000000000000                                                                   76487158                                                                                                                                                                                                                                                                                                                                                                                                                                               
07693870516770015DT67590675900000002881800888800000010180088824001193173900015400132062220230000000118217323000000000054423451723XXXXXX0898       VK04VS111111111   NYV1 A E463173798654692N840000000001182RHM700    07DNHAPPY HIPPIE             278579    VD84000000001182 N  549976487158                            000000000+                F DF 00451                     000000000  N000000000 214   0000000000000.00 0000000.00   0000000.00                             000000000000000                                                                                                                                                     01418 F000000000000 0000000000000.22     01550 00400                  
07693880516770001E167590675900000002881800888800000010100E068C800E3 00000000000.00404040404040404040404040404040404040404040404040401F4AFF32A00000000010030273000000004000000000000000000000000000  000008400040000000000023062219FF08B031A22B783BBF4524404040400840A0000000031010000000000000000000B8B1CEC398A8B59F30300000000000004040404040404040 000000011.82 000000000.004040400000000000000000    80                                                                                                                                                                                                                                                                                                                  
07693890516770002G2675906759000000028818008888000000101SEVIERVILLE              TN           5 D                00                                      NNNN00 N 00                   000000000000                                                                   76487158                                                                                                                                                                                                                                                                                                                                                                                                                                               
07693900516770016BH6759067590000000215480088880000090170622202317323000000000473750    0000090001142840N8008886759C06232023814                                                                                                                                                                                                                                                                                                                                                                                                                                                                                                                                                                                              
07693910516770017DT67590675900000002154800888800000010180088873011003173900011448628062220230000020000017323000000000473750372728XXXXX2008                          NY 4 07N005380801799322N840000000200000          01DNDRIP DROP DISTRO LLC     228415    AM84000000200000 N  519971004114                            000000000+6004S0S00140 258     11244                     000000000                   0000000000000.00 0000000.00   0000000.00                             000000000000000 61248972736759675900000002154 DRIP DROP DISTRO LLC     1445 W COMMERCE AVE SUITE2087248209      83705     TROY@DRIPDROPDISTRO.COM                   01418  000000000000 0000000000038.10     01900 00000                  
07693920516770001G2675906759000000021548008888000000101BOISE                    ID           9                  00                                      NNNN                          000000000000                                                                   71004114                                                                                                                                                                                                                                                                                                                                                                                                                                               
07693930516770018DT67590675900000002154800888800000010180088824001193173900011428400062220230000027375017323000000000473750408540XXXXXX3940               2111111   NYV4 A7W383173636592264N840000000273750LLBL00    01DNDRIP DROP DISTRO LLC     024059    VD84000000273750 NDR519971004114   INV-002822               000000000+                G DG 10352                     000000000  Y000000000 338   0000000000000.00 0000000.00   0000000.00                             000000000000000                                                                                                                                                     01418 G000000273750 0000000000001.59     00050 02200                  
07693940516770018DR675906759000000021548008888000000101INV-002822               Y000000273750                 P1                                                                                                                                                                                                                                                                                                                                                                                                                                                                                                                                                                                                            
07693950516770001P16759067590000000215480088880000001010000000000000000    44164343060              2000000000000000000000000              000000000000                    0000000000000000000000000                    000000000000                                                                                                                                                                                                                                                                                                                                                                                                                                                                                        
07693960516770002G2675906759000000021548008888000000101800-9833326              ID           9 D                00                                      NNNN   N                      000000000000                                                                   71004114                                                                                                                                                                                                                                                                                                                                                                                                                                               
07693970516770019BH6759067590000000288180088880000090170622202317323000000000074156    0000090001430014N8008886759C06232023043                                                                                                                                                                                                                                                                                                                                                                                                                                                                                                                                                                                              
07693980516770020DT67590675900000002881800888800000010180088824001193173900014300010062220230000000400017323000000000074156440393XXXXXX3297       VS11    0001111   NYV1 A E583173581249126N840000000004000SQ9T00    07DNHAPPY HIPPIE             486814    VD84000000004000 N  549976487169                            000000000+                F PF 08170                     000000000  N000000000       0000000000000.00 0000000.00   0000000.00                             000000000000000                                                                                                                                                     01418 A000000000000 0000000000000.61     01150 01500                  
07693990516770001E167590675900000002881800888800000010100E068C80003 00000000000.004040404040404040404040404040404040404040404040404006011203A00000000000000000000000404040404040404040404040404040  00000840200000000000002306224358A4274CE5976CAB06663D404040400840A0000000031010000000000000000000F982040C90E11CA130300000000000004040404040404040 000000040.00 000000000.004040400000000000000000    80                                                                                                                                                                                                                                                                                                                  
07694000516770002G2675906759000000028818008888000000101SEVIERVILLE              TN           5 P                00                                      NNNN00 N 00                   000000000000                                                                   76487169                                                                                                                                                                                                                                                                                                                                                                                                                                               
07694010516770021DT67590675900000002881800888800000010180088824001193173900014300028062220230000000390017323000000000074156443264XXXXXX4743       VS11    0001111   NYV1 A E383173581501907N840000000003900VNSM00    07DNHAPPY HIPPIE             011010    VD84000000003900 N  549976487169                            000000000+                F DF 10433                     000000000  Y000000000 338   0000000000000.00 0000000.00   0000000.00                             000000000000000                                                                                                                                                     01418 A000000000000 0000000000000.24     00050 02200                  
07694020516770001E167590675900000002881800888800000010100E068C800C7 00000000000.004040404040404040404040404040404040404040404040404006011203A00000000000000000000000404040404040404040404040404040  0000084020000000000000230622633C71111CC63124F74064AC404040400840A0000000031010000000000000000000404040404040404040404040404040404040404040404040 000000039.00 000000000.004040400000000000000000    80                                                                                                                                                                                                                                                                                                                  
07694030516770002G2675906759000000028818008888000000101SEVIERVILLE              TN           5 D                00                                      NNNN00 N 00                   000000000000                                                                   76487169                                                                                                                                                                                                                                                                                                                                                                                                                                               
07694040516770022DT67590675900000002881800888800000010180088824001193173900014300036062220230000000325817323000000000074156445100XXXXXX6278       VS11    0001111   NYV1 A E383173603847993N840000000003258HM4Q00    05DNHAPPY HIPPIE             171846    VD84000000003258 N  549976487169                            000000000+                F DF 10433                     000000000  Y000000000 338   0000000000000.00 0000000.00   0000000.00                             000000000000000                                                                                                                                                     01418 A000000000000 0000000000000.24     00050 02200                  
07694050516770001E167590675900000002881800888800000010100E0F8C80977 00000000000.004040404040404040404040404040404040404040404040404006010A03A08000000000000000000000404040404040404040404040404040  00010840180080800080002306227D57E138FC91A44F9ACF7E5A404040400840A00000000310100000000000000000002F5B7550FF41790E30300000000000004040401E40404040 000000032.58 000000000.001E00000000000000000000    80                                                                                                                                                                                                                                                                                                                  
07694060516770002G2675906759000000028818008888000000101SEVIERVILLE              TN           5 D                00                                      NNNN00 N 00                   000000000000                                                                   76487169                                                                                                                                                                                                                                                                                                                                                                                                                                               
07694070516770023DT67590675900000002881800888800000010180088824001193173900014300044062220230000000372917323000000000074156461046XXXXXX2531       VS11    0001111   NYV1 A E583173605009567N84000000000372975MF00    07DNHAPPY HIPPIE             014812    VD84000000003729 N  549976487169                            000000000+                F DF 10433                     000000000  Y000000000 338   0000000000000.00 0000000.00   0000000.00                             000000000000000                                                                                                                                                     01418 A000000000000 0000000000000.24     00050 02200                  
07694080516770001E167590675900000002881800888800000010100E068C80265 00000000000.004040404040404040404040404040404040404040404040404006011203A00000000000000000000000404040404040404040404040404040  0000084000000000000000230622CA7D648E880A584D1CCF7640404040400840A0000000031010000000000000000000404040404040404040404040404040404040404040404040 000000037.29 000000000.004040400000000000000000    80                                                                                                                                                                                                                                                                                                                  
07694090516770002G2675906759000000028818008888000000101SEVIERVILLE              TN           5 D                00                                      NNNN00 N 00                   000000000000                                                                   76487169                                                                                                                                                                                                                                                                                                                                                                                                                                               
07694100516770024DT67590675900000002881800888800000010180088877287283173900014300053062220230000001009517323000000000074156544927XXXXXX0920       MS02WI09          NY 2 0 AMDJMAI7HY0622  N840000000010095          05DNHAPPY HIPPIE             H52271    MD84000000010095 N  549976487169                            000000000+M10101C1334C    MDJ  10815                     000000000  1                0000000000000.00 0000000.00   0000000.00                             000000000000000                                                                                                                                                   B101418  000000000000 0000000000000.27     00050 02200                  
07694110516770001E167590675900000002881800888800000010100E0F8C80009 00000000000.00404040404040404040404040404040404040404040404040400110A04003220000000000000000000000FF00000000000000000000000000  00000840390000000480002306228D027987996E652B36027C01404040400840A00000000410100000000000000000001FBE780B0BABD44A00120000000000004040400240404040 000000100.95 000000000.000203000000000000000000    80                                                                                                                                                                                                                                                                                                                  
07694120516770002G2675906759000000028818008888000000101SEVIERVILLE              TN           5 J                                                        NNNN              000000000000000000000000                        7                                          76487169                                                                                                                                                                                                                                                                                                                                                                                                                                               
07694130516770025DT67590675900000002881800888800000010180088824001193173900014300069062220230000000622017323000000000074156445101XXXXXX2144       VS11    0001111   NYV1 A E463173710388037N840000000006220DGGV00    05DNHAPPY HIPPIE             271348    VD84000000006220 N  549976487169                            000000000+                F DF 10433                     000000000  Y000000000 338   0000000000000.00 0000000.00   0000000.00                             000000000000000                                                                                                                                                     01418 A000000000000 0000000000000.25     00050 02200                  
07694140516770001E167590675900000002881800888800000010100E0F8C80126 00000000000.004040404040404040404040404040404040404040404040404006010A03A0A000000000000000000000404040404040404040404040404040  0002084018008080008000230622EB9ABF9CDDF31791AE3AE3C0404040400840A0000000031010000000000000000000BE5B8654E3612DC630300000000000004040401E40404040 000000062.20 000000000.001E00000000000000000000    80                                                                                                                                                                                                                                                                                                                  
07694150516770002G2675906759000000028818008888000000101SEVIERVILLE              TN           5 D                00                                      NNNN00 N 00                   000000000000                                                                   76487169                                                                                                                                                                                                                                                                                                                                                                                                                                               
07694160516770026DT67590675900000002881800888800000010180088876509753173900014300075062220230000000246817323000000000074156601195XXXXXX4435   BA50                  NY41 0 N813149177118552N840000000002468    00    05DNHAPPY HIPPIE             668296    DD84000000002468 N  549976487169050                         000000000+0000004910H00   DCDDI01001668296  154831000000 000000000  0          113   0000000000000.00 0000000.00   0000000.00                             000000000000000                                                                                                                                                     01418  000000000000 0000000000000.43     01100 01600                  
07694170516770001E167590675900000002881800888800000010100E0F8C8011A 00000000000.00404040404040404040404040404040404040404040404040400106A000008000010000000000000000404040404040404040404040404040  00010840180080000080002306227938DD6D13487AE14CE25F41404040400840A00000015230100000000000000000002D0D59D58CDB575C00100000000000004040401E40404040 000000024.68 000000000.001E03000000000000000000    80                                                                                                                                                                                                                                                                                                                  
07694180516770002G2675906759000000028818008888000000101SEVIERVILLE              TN           5 D                00                                      NNNN                          000000000000                         00000650975601179750000063                76487169                                                                                                                                                                                                                                                                                                                                                                                                                                               
07694190516770027DT67590675900000002881800888800000010180088824001193173900014300085062220230000000256617323000000000074156435547XXXXXX9872       VS11    0001111   NYV1 A E303173717801320N840000000002566L6QW00    07DNHAPPY HIPPIE             048087    VD84000000002566 N  549976487169                            000000000+                F DF 10433                     000000000  Y000000000 338   0000000000000.00 0000000.00   0000000.00                             000000000000000                                                                                                                                                     01418 A000000000000 0000000000000.23     00050 02200                  
07694200516770001E167590675900000002881800888800000010100E068C8029F 00000000000.004040404040404040404040404040404040404040404040404006011203A00000000000000000000000404040404040404040404040404040  000108402000000000000023062214AD0259BEE527F59167D6A6404040400840A00000000310100000000000000000000D8A63360082000000000000000000004040404040404040 000000025.66 000000000.004040400000000000000000    80                                                                                                                                                                                                                                                                                                                  
07694210516770002G2675906759000000028818008888000000101SEVIERVILLE              TN           5 D                00                                      NNNN00 N 00                   000000000000                                                                   76487169                                                                                                                                                                                                                                                                                                                                                                                                                                               
07694220516770028DT67590675900000002881800888800000010180088824001193173900014300093062220230000000356717323000000000074156485671XXXXXX3668       VS11    0001111   NYV1 A E463173721205688N840000000003567J28V00    07DNHAPPY HIPPIE             20018C    VS84000000003567 N  549976487169                            000000000+                C CC 12112                     000000000  N000000000 497   0000000000000.00 0000000.00   0000000.00                             000000000000000                                                                                                                                                     01418 A000000000000 0000000000000.69     01650 01000                  
07694230516770001E167590675900000002881800888800000010100E068C80056 00000000000.004040404040404040404040404040404040404040404040404006011203A00000000000000000000000404040404040404040404040404040  0005084020000000000000230622BE1888279F00E9D667F44D09404040400840A0000000031010000000000000000000224EAB460392000000000000000000004040404040404040 000000035.67 000000000.004040400000000000000000    80                                                                                                                                                                                                                                                                                                                  
07694240516770002G2675906759000000028818008888000000101SEVIERVILLE              TN           5 C                00                                      NNNN00 Y 00                   000000000000                                                                   76487169                                                                                                                                                                                                                                                                                                                                                                                                                                               
07694250516770029DT67590675900000002881800888800000010180088824001193173900014300101062220230000001152317323000000000074156451440XXXXXX1209       VS11    0001111   NYV1 A E303173735309582N840000000011523XZSS00    05DNHAPPY HIPPIE             132530    VD84000000011523 N  549976487169                            000000000+                F PF 08170                     000000000  N000000000       0000000000000.00 0000000.00   0000000.00                             000000000000000                                                                                                                                                     01418 A000000000000 0000000000001.48     01150 01500                  
07694260516770001E167590675900000002881800888800000010100E0F8C80015 00000000000.004040404040404040404040404040404040404040404040404006011203A08000000000000000000000404040404040404040404040404040  00000840180080800080002306228E62C0B56D647C58D80DDCBE404040400840A0000000031010000000000000000000404040404040404040404040404040404040401E40404040 000000115.23 000000000.001E00000000000000000000    80                                                                                                                                                                                                                                                                                                                  
07694270516770002G2675906759000000028818008888000000101SEVIERVILLE              TN           5 P                00                                      NNNN00 N 00                   000000000000                                                                   76487169                                                                                                                                                                                                                                                                                                                                                                                                                                               
07694280516770030DT67590675900000002881800888800000010180088877287283173900014300111062220230000000296117323000000000074156517805XXXXXX9632       MS02WI09          NY 1 0 AMPLGWXVHY0622  N840000000002961          05DNHAPPY HIPPIE             09085B    MC84000000002961 N  549976487169                            000000000+M10101C5434C    MPL  00364                     000000000  N                0000000000000.00 0000000.00   0000000.00                             000000000000000                                                                                                                                                   B101418  000000000000 0000000000000.57     01800 00400                  
07694290516770001E167590675900000002881800888800000010100E0F8C8028B 00000000000.00404040404040404040404040404040404040404040404040400110A04001220000000000000000000000FF00000000000000000000000000  0002084039000000008000230622E6F82324161B1EE270A12A9C404040400840A0000000041010000000000000000000E5B0934DF41A363100120000000000004040401E40404040 000000029.61 000000000.001E03000000000000000000    80                                                                                                                                                                                                                                                                                                                  
07694300516770002G2675906759000000028818008888000000101SEVIERVILLE              TN           5 L                                                        NNNN              000000000000000000000000                        7                                          76487169                                                                                                                                                                                                                                                                                                                                                                                                                                               
07694310516770031DT67590675900000002881800888800000010180088824001193173900014300127062220230000000466417323000000000074156419090XXXXXX2900       VS11    0001111   NYV1 A E463173776016430N840000000004664HPDC00    05DNHAPPY HIPPIE             256055    VD84000000004664 N  549976487169                            000000000+                F DF 00381                     000000000  N000000000       0000000000000.00 0000000.00   0000000.00                             000000000000000                                                                                                                                                     01418 A000000000000 0000000000000.52     00800 01500                  
07694320516770001E167590675900000002881800888800000010100E0F8C80053 00000000000.004040404040404040404040404040404040404040404040404006011203A0A000000000000000000000404040404040404040404040404040  0001084018008080008000230622377CE4E65FFD739F36DFDA96404040400840A0000000031010000000000000000000AAE8C5B50080000000000000000000004040401E40404040 000000046.64 000000000.001E00000000000000000000    80                                                                                                                                                                                                                                                                                                                  
07694330516770002G2675906759000000028818008888000000101SEVIERVILLE              TN           5 D                00                                      NNNN00 N 00                   000000000000                                                                   76487169                                                                                                                                                                                                                                                                                                                                                                                                                                               
07694340516770032DT67590675900000002881800888800000010180088877287283173900014300137062220230000001096017323000000000074156528072XXXXXX5032       MS02WI09          NY 1 0 AMCWR97WVM0622  N840000000010960          05DNHAPPY HIPPIE             07899Z    MC84000000010960 N  549976487169                            000000000+M10101C5434C    MCW  00646                     000000000  N                0000000000000.00 0000000.00   0000000.00                             000000000000000                                                                                                                                                   B101418  000000000000 0000000000002.12     01900 00400                  
07694350516770001E167590675900000002881800888800000010100E0F8C80039 00000000000.00404040404040404040404040404040404040404040404040400110A00001220000000000000000000000FF00000000000000000000000000  00020840180080000080002306221D651A3B77CABEB7E0F1B231404040400840A0000000041010000000000000000000F3A8FA6EA490EF6800120000000000004040401E40404040 000000109.60 000000000.001E03000000000000000000    80                                                                                                                                                                                                                                                                                                                  
07694360516770002G2675906759000000028818008888000000101SEVIERVILLE              TN           5 W                                                        NNNN              000000000000000000000000                        7                                          76487169                                                                                                                                                                                                                                                                                                                                                                                                                                               
07694370516770033DT67590675900000002881800888800000010180088824001193173900014300143062220230000000424517323000000000074156419090XXXXXX9272       VS11    0001111   NYV1 A E303173800630515N840000000004245HSHF00    05DNHAPPY HIPPIE             257456    VD84000000004245 N  549976487169                            000000000+                F DF 00381                     000000000  N000000000       0000000000000.00 0000000.00   0000000.00                             000000000000000                                                                                                                                                     01418 A000000000000 0000000000000.49     00800 01500                  
07694380516770001E167590675900000002881800888800000010100E0F8C80128 00000000000.004040404040404040404040404040404040404040404040404006011203A02000000000000000000000404040404040404040404040404040  0001084018008080008000230622B6924FD7F73B2330312FF05A404040400840A0000000031010000000000000000000F3DBCC010080000000000000000000004040401E40404040 000000042.45 000000000.001E00000000000000000000    80                                                                                                                                                                                                                                                                                                                  
07694390516770002G2675906759000000028818008888000000101SEVIERVILLE              TN           5 D                00                                      NNNN00 N 00                   000000000000                                                                   76487169                                                                                                                                                                                                                                                                                                                                                                                                                                               
07694400516770034BH6759067590000000288180088880000090170622202317323000000000150666    0000090001460037N8008886759C06232023146                                                                                                                                                                                                                                                                                                                                                                                                                                                                                                                                                                                              
07694410516770035DT67590675900000002881800888800000010180088824001193173900014600013062220230000001234317323000000000150666480639XXXXXX9991       VS11    0001111   NYV1 A E583173534323520N840000000012343KJKL00    05DNHAPPY HIPPIE             265951    VD84000000012343 N  549976487134                            000000000+                F DF 00381                     000000000  N000000000       0000000000000.00 0000000.00   0000000.00                             000000000000000                                                                                                                                                     01418 A000000000000 0000000000001.14     00800 01500                  
07694420516770001E167590675900000002881800888800000010100E0F8C8007F 00000000000.004040404040404040404040404040404040404040404040404006011203A0A000000000000000000000404040404040404040404040404040  00000840180080800080002306220F22E512A7DC2EC2AC983DB0404040400840A000000003101000000000000000000034A65CA40080000000000000000000004040401E40404040 000000123.43 000000000.001E00000000000000000000    80                                                                                                                                                                                                                                                                                                                  
07694430516770002G2675906759000000028818008888000000101SEVIERVILLE              TN           5 D                00                                      NNNN00 N 00                   000000000000                                                                   76487134                                                                                                                                                                                                                                                                                                                                                                                                                                               
07694440516770036DT67590675900000002881800888800000010180088824001193173900014600021062220230000000197417323000000000150666480639XXXXXX7424       VS11    0001111   NYV1 A E583173535538281N8400000000019746VVB00    05DNHAPPY HIPPIE             266012    VD84000000001974 N  549976487134                            000000000+                F DF 00381                     000000000  N000000000       0000000000000.00 0000000.00   0000000.00                             000000000000000                                                                                                                                                     01418 A000000000000 0000000000000.31     00800 01500                  
07694450516770001E167590675900000002881800888800000010100E0F8C800D5 00000000000.004040404040404040404040404040404040404040404040404006011203A0A000000000000000000000404040404040404040404040404040  0000084018008080008000230622A4CE19CD609091449A663CF9404040400840A000000003101000000000000000000076D9BF780080000000000000000000004040401E40404040 000000019.74 000000000.001E00000000000000000000    80                                                                                                                                                                                                                                                                                                                  
07694460516770002G2675906759000000028818008888000000101SEVIERVILLE              TN           5 D                00                                      NNNN00 N 00                   000000000000                                                                   76487134                                                                                                                                                                                                                                                                                                                                                                                                                                               
07694470516770037DT67590675900000002881800888800000010180088824001193173900014600039062220230000000343717323000000000150666449507XXXXXX6177       VS11    0001111   NYV1 A E583173538292723N8400000000034375QWL00    05DNHAPPY HIPPIE             005709    VD84000000003437 N  549976487134                            000000000+                F DF 00381                     000000000  N000000000       0000000000000.00 0000000.00   0000000.00                             000000000000000                                                                                                                                                     01418 A000000000000 0000000000000.42     00800 01500                  
07694480516770001E167590675900000002881800888800000010100E0F8C8000C 00000000000.004040404040404040404040404040404040404040404040404006011203A00000000000000000000000404040404040404040404040404040  0000084018008080008000230622FF071BE12A5298D7AE6F3E77404040400840A0000000031010000000000000000000404040404040404040404040404040404040401E40404040 000000034.37 000000000.001E00000000000000000000    80                                                                                                                                                                                                                                                                                                                  
07694490516770002G2675906759000000028818008888000000101SEVIERVILLE              TN           5 D                00                                      NNNN00 N 00                   000000000000                                                                   76487134                                                                                                                                                                                                                                                                                                                                                                                                                                               
07694500516770038DT67590675900000002881800888800000010180088824001193173900014600047062220230000002195017323000000000150666443041XXXXXX7024       VS11    0001111   NYV1 A E383173541191602N8400000000219504VSV00    05DNHAPPY HIPPIE             713324    VD84000000021950 N  549976487134                            000000000+                F DF 10433                     000000000  Y000000000 338   0000000000000.00 0000000.00   0000000.00                             000000000000000                                                                                                                                                     01418 A000000000000 0000000000000.33     00050 02200                  
07694510516770001E167590675900000002881800888800000010100E0F8C80037 00000000000.004040404040404040404040404040404040404040404040404006011203A0A000000000000000000000404040404040404040404040404040  0002084018008080008000230622FA79936222DCA9648C6C203F404040400840A00000000310100000000000000000009AE109020082000000000000000000004040401E40404040 000000219.50 000000000.001E00000000000000000000    80                                                                                                                                                                                                                                                                                                                  
07694520516770002G2675906759000000028818008888000000101SEVIERVILLE              TN           5 D                00                                      NNNN00 N 00                   000000000000                                                                   76487134                                                                                                                                                                                                                                                                                                                                                                                                                                               
07694530516770039DT67590675900000002881800888800000010180088824001193173900014600054062220230000000394717323000000000150666422921XXXXXX2443       VS11    0001111   NYV1 A E583173546093399N840000000003947J4HH00    05DNHAPPY HIPPIE             040210    VD84000000003947 N  549976487134                            000000000+                F DF 00381                     000000000  N000000000       0000000000000.00 0000000.00   0000000.00                             000000000000000                                                                                                                                                     01418 A000000000000 0000000000000.47     00800 01500                  
07694540516770001E167590675900000002881800888800000010100E0F8C8044F 00000000000.004040404040404040404040404040404040404040404040404006011203A08000000000000000000000404040404040404040404040404040  0000084018008080008000230622B0A4D8941C41BAA4EA2A4ED6404040400840A0000000031010000000000000000000BB59F8520382000000000000000000004040401E40404040 000000039.47 000000000.001E00000000000000000000    80                                                                                                                                                                                                                                                                                                                  
07694550516770002G2675906759000000028818008888000000101SEVIERVILLE              TN           5 D                00                                      NNNN00 N 00                   000000000000                                                                   76487134                                                                                                                                                                                                                                                                                                                                                                                                                                               
07694560516770040DT67590675900000002881800888800000010680088874001193173900014600067062220230000000394717323000000000150666422921XXXXXX2443               0000000   NYV1 0 T583173546334050N840000000003947K9TT85    05CNHAPPY HIPPIE             060290    VD84000000003947 N  549976487134                            000000000+                F DF 08168                     000000000  N000000000 369   0000000000000.00 0000000.00   0000000.00                             000000000000000                                                                                                                                                     01418  000000000000 0000000000000.00     00000 00000                  
07694570516770001G2675906759000000028818008888000000106SEVIERVILLE              TN           5 D                00                                      NNNN00 N 00                   000000000000                                                                   76487134                                                                                                                                                                                                                                                                                                                                                                                                                                               
07694580516770041DT67590675900000002881800888800000010180088824001193173900014600070062220230000000493717323000000000150666422921XXXXXX2443       VS11    0001111   NYV1 A E383173546606324N840000000004937QZZ500    05DNHAPPY HIPPIE             040261    VD84000000004937 N  549976487134                            000000000+                F DF 00381                     000000000  N000000000       0000000000000.00 0000000.00   0000000.00                             000000000000000                                                                                                                                                     01418 A000000000000 0000000000000.54     00800 01500                  
07694590516770001E167590675900000002881800888800000010100E0F8C80451 00000000000.004040404040404040404040404040404040404040404040404006011203A08000000000000000000000404040404040404040404040404040  00000840180080800080002306227E7B79485B93464B90AA5C6E404040400840A00000000310100000000000000000005A095CAC0382000000000000000000004040401E40404040 000000049.37 000000000.001E00000000000000000000    80                                                                                                                                                                                                                                                                                                                  
07694600516770002G2675906759000000028818008888000000101SEVIERVILLE              TN           5 D                00                                      NNNN00 N 00                   000000000000                                                                   76487134                                                                                                                                                                                                                                                                                                                                                                                                                                               
07694610516770042DT67590675900000002881800888800000010680088874001193173900014600083062220230000000098817323000000000150666422921XXXXXX2443               0000000   NYV1 0 T583173554994383N840000000000988BS9X85    05CNHAPPY HIPPIE             080216    VD84000000000988 N  549976487134                            000000000+                F DF 08168                     000000000  N000000000 369   0000000000000.00 0000000.00   0000000.00                             000000000000000                                                                                                                                                     01418  000000000000 0000000000000.00     00000 00000                  
07694620516770001G2675906759000000028818008888000000106SEVIERVILLE              TN           5 D                00                                      NNNN00 N 00                   000000000000                                                                   76487134                                                                                                                                                                                                                                                                                                                                                                                                                                               
07694630516770043DT67590675900000002881800888800000010180088824001193173900014600096062220230000000444317323000000000150666445101XXXXXX6963       VS11    0001111   NYV1 A E463173562404247N840000000004443DPWW00    05DNHAPPY HIPPIE             131974    VD84000000004443 N  549976487134                            000000000+                F DF 10433                     000000000  Y000000000 338   0000000000000.00 0000000.00   0000000.00                             000000000000000                                                                                                                                                     01418 A000000000000 0000000000000.24     00050 02200                  
07694640516770001E167590675900000002881800888800000010100E0F8C80008 00000000000.004040404040404040404040404040404040404040404040404006011203A00000000000000000000000404040404040404040404040404040  0001084018008080008000230622686B739E7D6D1BE68BD52EF5404040400840A0000000031010000000000000000000C00690170082000000000000000000004040401E40404040 000000044.43 000000000.001E00000000000000000000    80                                                                                                                                                                                                                                                                                                                  
07694650516770002G2675906759000000028818008888000000101SEVIERVILLE              TN           5 D                00                                      NNNN00 N 00                   000000000000                                                                   76487134                                                                                                                                                                                                                                                                                                                                                                                                                                               
07694660516770044DT67590675900000002881800888800000010180088824001193173900014600104062220230000000246817323000000000150666437303XXXXXX1202       VS11    0001111   NYV1 A E383173563155736N840000000002468637X00    05DNHAPPY HIPPIE             643561    VD84000000002468 N  549976487134                            000000000+                F PF 08170                     000000000  N000000000       0000000000000.00 0000000.00   0000000.00                             000000000000000                                                                                                                                                     01418 A000000000000 0000000000000.43     01150 01500                  
07694670516770001E167590675900000002881800888800000010100E0F8C804A2 00000000000.004040404040404040404040404040404040404040404040404006010A03A08000000000000000000000404040404040404040404040404040  0000084018008080008000230622840302FBA35B076DC4FE237D404040400840A00000000310100000000000000000004EADCFFD26CD2AF430300000000000004040401E40404040 000000024.68 000000000.001E00000000000000000000    80                                                                                                                                                                                                                                                                                                                  
07694680516770002G2675906759000000028818008888000000101SEVIERVILLE              TN           5 P                00                                      NNNN00 N 00                   000000000000                                                                   76487134                                                                                                                                                                                                                                                                                                                                                                                                                                               
07694690516770045DT67590675900000002881800888800000010180088824001193173900014600112062220230000000296017323000000000150666421783XXXXXX6107       VS11    0001111   NYV1 A E383173565116708N840000000002960GGQC00    05DNHAPPY HIPPIE             050532    VS84000000002960 N  549976487134                            000000000+                A CA 12110                     000000000  N000000000 493   0000000000000.00 0000000.00   0000000.00                             000000000000000                                                                                                                                                     01418 A000000000000 0000000000000.55     01510 01000                  
07694700516770001E167590675900000002881800888800000010100E0F8C80039 00000000000.004040404040404040404040404040404040404040404040404006010A03A0A000000000000000000000404040404040404040404040404040  00000840180080800080002306226D9A341ACB44C42D5FBC1DED404040400840A0000000031010000000000000000000DAB26A743077C65F30300000000000004040401E40404040 000000029.60 000000000.001E00000000000000000000    80                                                                                                                                                                                                                                                                                                                  
07694710516770002G2675906759000000028818008888000000101SEVIERVILLE              TN           5 C                00                                      NNNN00 N 00                   000000000000                                                                   76487134                                                                                                                                                                                                                                                                                                                                                                                                                                               
