00347840039130002BH6759067590000013846189002189000090170701202418324000000000031988    0000090001620463N8900216759C07012024062                                                                                                                                                                                                                                                                                                                                                                                                                                                                                                                                                                                              
00347850039130003DT67590675900000138461890021890000033089002176759004183900016204625063020240000001170018324000000000031988415977XXXXXX1899                         NY 2 0 N               N840000000011700      IL  05DNVERIFYVEND855-5539974    080739    DB84000000011700 N  654078362619                            000000000+                     09580                                Y          342   0000000000000.00 0000000.00   0000000.00                             000000000000000                                                                                                                                                     01424  000000000000 0000000000000.28     00050 00000                  
00347860039130001G2675906759000001384618900218900000330PROVIDENCE               RI           5 D                00                                      NNNN                          000000000000                                                                   78362619                                                                                                                                                                                                                                                                                                                                                                                                                                               
00347870039130004DT67590675900000138461890021890000033089002176759004183900016204633063020240000002028818324000000000031988448233XXXXXX6529                         NY 2 0 N               N840000000020288      IL  05DNVERIFYVEND855-5539974    094924    DB84000000020288 N  654078362619                            000000000+                     09584                                Y          273   0000000000000.00 0000000.00   0000000.00                             000000000000000                                                                                                                                                     01424  000000000000 0000000000000.32     00050 00000                  
00347880039130001G2675906759000001384618900218900000330PROVIDENCE               RI           5 D                00                                      NNNN                          000000000000                                                                   78362619                                                                                                                                                                                                                                                                                                                                                                                                                                               
00347890039130005BH6759067590000013846189002189000090170701202418324000000000021557    0000090001250139N8900216759C07012024025                                                                                                                                                                                                                                                                                                                                                                                                                                                                                                                                                                                              
00347900039130006DT67590675900000138461890021890000033089002176759004183900012501370063020240000000685018324000000000021557419455XXXXXX7855                         NY 2 0 N               N840000000006850      IL  05DNVERIFYVEND855-5539974    004259    DB84000000006850 N  654078383941                            000000000+                     09573                                N          121   0000000000000.00 0000000.00   0000000.00                             000000000000000                                                                                                                                                     01424  000000000000 0000000000000.70     00800 00000                  
00347910039130001G2675906759000001384618900218900000330PROVIDENCE               RI           5 D                00                                      NNNN                          000000000000                                                                   78383941                                                                                                                                                                                                                                                                                                                                                                                                                                               
00347920039130007DT67590675900000138461890021890000033089002176759004183900012501388063020240000000210118324000000000021557434256XXXXXX1594                         NY 2 0 N               N840000000002101      IL  05DNVERIFYVEND855-5539974    085675    DB84000000002101 N  654078383941                            000000000+                     09580                                Y          342   0000000000000.00 0000000.00   0000000.00                             000000000000000                                                                                                                                                     01424  000000000000 0000000000000.23     00050 00000                  
00347930039130001G2675906759000001384618900218900000330PROVIDENCE               RI           5 D                00                                      NNNN                          000000000000                                                                   78383941                                                                                                                                                                                                                                                                                                                                                                                                                                               
00347940039130008DT67590675900000138461890021890000033089002176759004183900012501396063020240000001260618324000000000021557436618XXXXXX9246                         NY 2 0 N               N840000000012606      IL  05DNVERIFYVEND855-5539974    020126    DB84000000012606 N  654078383941                            000000000+                     09580                                Y          342   0000000000000.00 0000000.00   0000000.00                             000000000000000                                                                                                                                                     01424  000000000000 0000000000000.28     00050 00000                  
00347950039130001G2675906759000001384618900218900000330PROVIDENCE               RI           5 D                00                                      NNNN                          000000000000                                                                   78383941                                                                                                                                                                                                                                                                                                                                                                                                                                               
00347960039130009BH6759067590000013846189002189000090170701202418324000000000001367    0000090001400260N8900216759C07012024040                                                                                                                                                                                                                                                                                                                                                                                                                                                                                                                                                                                              
00347970039130010DT67590675900000138461890021890000033089002176759004183900014002609063020240000000136718324000000000001367473702XXXXXX6531                         NY 2 0 N               N840000000001367      IL  05DNVERIFYVEND855-5539974    055601    DB84000000001367 N  654078381422                            000000000+                     09580                                Y          342   0000000000000.00 0000000.00   0000000.00                             000000000000000                                                                                                                                                     01424  000000000000 0000000000000.23     00050 00000                  
00347980039130001G2675906759000001384618900218900000330PROVIDENCE               RI           5 D                00                                      NNNN                          000000000000                                                                   78381422                                                                                                                                                                                                                                                                                                                                                                                                                                               
00347990039130011BH6759067590000013846189002189000090170701202418324000000000022300    0000090001290198N8900216759C07012024029                                                                                                                                                                                                                                                                                                                                                                                                                                                                                                                                                                                              
00348000039130012DT67590675900000138461890021890000033089002176759004183900012901950063020240000000685018324000000000022300434256XXXXXX3944                         NY 2 0 N               N840000000006850      IL  05DNVERIFYVEND855-5539974    011639    DB84000000006850 N  654078383477                            000000000+                     09580                                Y          342   0000000000000.00 0000000.00   0000000.00                             000000000000000                                                                                                                                                     01424  000000000000 0000000000000.25     00050 00000                  
00348010039130001G2675906759000001384618900218900000330PROVIDENCE               RI           5 D                00                                      NNNN                          000000000000                                                                   78383477                                                                                                                                                                                                                                                                                                                                                                                                                                               
00348020039130013DT67590675900000138461890021890000033089002176759004183900012901968063020240000000345018324000000000022300483316XXXXXX3875                         NY 2 0 N               N840000000003450      IL  05DNVERIFYVEND855-5539974    015620    DB84000000003450 N  654078383477                            000000000+                     09580                                Y          342   0000000000000.00 0000000.00   0000000.00                             000000000000000                                                                                                                                                     01424  000000000000 0000000000000.24     00050 00000                  
00348030039130001G2675906759000001384618900218900000330PROVIDENCE               RI           5 D                00                                      NNNN                          000000000000                                                                   78383477                                                                                                                                                                                                                                                                                                                                                                                                                                               
00348040039130014DT67590675900000138461890021890000033089002176759004183900012901976063020240000000885018324000000000022300521105XXXXXX7954                         NY 2 0 N               N840000000008850      IL  05DNVERIFYVEND855-5539974    095931    DB84000000008850 N  654078383477                            000000000+                     09580                                1          342   0000000000000.00 0000000.00   0000000.00                             000000000000000                                                                                                                                                     01424  000000000000 0000000000000.26     00050 00000                  
00348050039130001G2675906759000001384618900218900000330PROVIDENCE               RI           5 D                00                                      NNNN                          000000000000                                                                   78383477                                                                                                                                                                                                                                                                                                                                                                                                                                               
00348060039130015DT67590675900000138461890021890000033089002176759004183900012901984063020240000000315018324000000000022300449465XXXXXX1228                         NY42 0 N               N840000000003150      XL  05DNVERIFYVEND855-5539974    389167    DB84000000003150 N  654078383477                            000000000+                     11566                                Y          A1K   0000000000000.00 0000000.00   0000000.00                             000000000000000                                                                                                                                                     01424  000000000000 0000000000000.24     00050 00000                  
00348070039130001G2675906759000001384618900218900000330PROVIDENCE               RI           5 D                00                                      NNNN                          000000000000                                                                   78383477                                                                                                                                                                                                                                                                                                                                                                                                                                               
00348080039130016BH6759067590000013846189002189000090170701202418324000000000008330    0000090001090036N8900216759C07012024009                                                                                                                                                                                                                                                                                                                                                                                                                                                                                                                                                                                              
00348090039130017DT67590675900000138461890021890000033089002176759004183900010900368063020240000000833018324000000000008330419455XXXXXX7200                         NY 2 0 N               N840000000008330      IL  05DNVERIFYVEND855-5539974    003933    DB84000000008330 N  654078383863                            000000000+                     09573                                N          121   0000000000000.00 0000000.00   0000000.00                             000000000000000                                                                                                                                                     01424  000000000000 0000000000000.82     00800 00000                  
00348100039130001G2675906759000001384618900218900000330PROVIDENCE               RI           5 D                00                                      NNNN                          000000000000                                                                   78383863                                                                                                                                                                                                                                                                                                                                                                                                                                               
00348110039130018BH6759067590000013846189002189000090170701202418324000000000002450    0000090001260144N8900216759C07012024026                                                                                                                                                                                                                                                                                                                                                                                                                                                                                                                                                                                              
00348120039130019DT67590675900000138461890021890000033089002176759004183900012601444063020240000000245018324000000000002450483316XXXXXX3001                         NY 2 0 N               N840000000002450      IL  05DNVERIFYVEND855-5539974    054721    DB84000000002450 N  654078383858                            000000000+                     09580                                Y          342   0000000000000.00 0000000.00   0000000.00                             000000000000000                                                                                                                                                     01424  000000000000 0000000000000.23     00050 00000                  
00348130039130001G2675906759000001384618900218900000330PROVIDENCE               RI           5 D                00                                      NNNN                          000000000000                                                                   78383858                                                                                                                                                                                                                                                                                                                                                                                                                                               
00348140039130020BH6759067590000013846189002189000090170701202418324000000000004920    0000090001640472N8900216759C07012024064                                                                                                                                                                                                                                                                                                                                                                                                                                                                                                                                                                                              
00348150039130021DT67590675900000138461890021890000033089002176759004183900016404720063020240000000492018324000000000004920420767XXXXXX1737                         NY 2 0 N               N840000000004920      IL  05DNVERIFYVEND855-5539974    073421    DB84000000004920 N  654078362619                            000000000+                     09580                                Y          342   0000000000000.00 0000000.00   0000000.00                             000000000000000                                                                                                                                                     01424  000000000000 0000000000000.24     00050 00000                  
00348160039130001G2675906759000001384618900218900000330PROVIDENCE               RI           5 D                00                                      NNNN                          000000000000                                                                   78362619                                                                                                                                                                                                                                                                                                                                                                                                                                               
00348170039130022BH6759067590000013846189002189000090170701202418324000000000035202    0000090001310215N8900216759C07012024031                                                                                                                                                                                                                                                                                                                                                                                                                                                                                                                                                                                              
00348180039130023DT67590675900000138461890021890000033089002176759004183900013102103063020240000000205018324000000000035202449465XXXXXX8562                         NY42 0 N               N840000000002050      XL  05DNVERIFYVEND855-5539974    440562    DB84000000002050 N  654078383477                            000000000+                     11566                                Y          A1K   0000000000000.00 0000000.00   0000000.00                             000000000000000                                                                                                                                                     01424  000000000000 0000000000000.23     00050 00000                  
00348190039130001G2675906759000001384618900218900000330PROVIDENCE               RI           5 D                00                                      NNNN                          000000000000                                                                   78383477                                                                                                                                                                                                                                                                                                                                                                                                                                               
00348200039130024DT67590675900000138461890021890000033089002176759004183900013102111063020240000000347718324000000000035202440393XXXXXX7279                         NY42 0 N               N840000000003477      PL  05DNVERIFYVEND855-5539974    557896    DB84000000003477 N  654078383477                            000000000+                     09631                                N          PU0   0000000000000.00 0000000.00   0000000.00                             000000000000000                                                                                                                                                     01424  000000000000 0000000000000.43     00800 00000                  
00348210039130001G2675906759000001384618900218900000330PROVIDENCE               RI           5 P                00                                      NNNN                          000000000000                                                                   78383477                                                                                                                                                                                                                                                                                                                                                                                                                                               
00348220039130025DT67590675900000138461890021890000033089002176759004183900013102129063020240000000297518324000000000035202481582XXXXXX3694                         NY42 0 N               N840000000002975      PL  05DNVERIFYVEND855-5539974    124132    DB84000000002975 N  654078383477                            000000000+                     09635                                Y          PU1   0000000000000.00 0000000.00   0000000.00                             000000000000000                                                                                                                                                     01424  000000000000 0000000000000.23     00050 00000                  
00348230039130001G2675906759000001384618900218900000330PROVIDENCE               RI           5 D                00                                      NNNN                          000000000000                                                                   78383477                                                                                                                                                                                                                                                                                                                                                                                                                                               
00348240039130026DT67590675900000138461890021890000033089002176759004183900013102145063020240000001135018324000000000035202481582XXXXXX4965                         NY42 0 N               N840000000011350      PL  05DNVERIFYVEND855-5539974    124164    DB84000000011350 N  654078383477                            000000000+                     09635                                Y          PU1   0000000000000.00 0000000.00   0000000.00                             000000000000000                                                                                                                                                     01424  000000000000 0000000000000.28     00050 00000                  
00348250039130001G2675906759000001384618900218900000330PROVIDENCE               RI           5 D                00                                      NNNN                          000000000000                                                                   78383477                                                                                                                                                                                                                                                                                                                                                                                                                                               
00348260039130027DT67590675900000138461890021890000033089002176759004183900013102152063020240000001535018324000000000035202449465XXXXXX0824                         NY42 0 N               N840000000015350      XL  05DNVERIFYVEND855-5539974    441437    DB84000000015350 N  654078383477                            000000000+                     11566                                Y          A1K   0000000000000.00 0000000.00   0000000.00                             000000000000000                                                                                                                                                     01424  000000000000 0000000000000.30     00050 00000                  
00348270039130001G2675906759000001384618900218900000330PROVIDENCE               RI           5 D                00                                      NNNN                          000000000000                                                                   78383477                                                                                                                                                                                                                                                                                                                                                                                                                                               
00348280039130028BH6759067590000013846189002189000090170701202418324000000000009849    0000090001320164N8900216759C07012024032                                                                                                                                                                                                                                                                                                                                                                                                                                                                                                                                                                                              
00348290039130029DT67590675900000138461890021890000033089002176759004183900013201640063020240000000984918324000000000009849419455XXXXXX1293                         NY 2 0 N               N840000000009849      IL  05DNVERIFYVEND855-5539974    992450    DB84000000009849 N  654078383823                            000000000+                     09573                                N          121   0000000000000.00 0000000.00   0000000.00                             000000000000000                                                                                                                                                     01424  000000000000 0000000000000.94     00800 00000                  
00348300039130001G2675906759000001384618900218900000330PROVIDENCE               RI           5 D                00                                      NNNN                          000000000000                                                                   78383823                                                                                                                                                                                                                                                                                                                                                                                                                                               
00348310039130030BH6759067590000013846189002189000090170701202418324000000000023303    0000090001100040N8900216759C07012024010                                                                                                                                                                                                                                                                                                                                                                                                                                                                                                                                                                                              
00348320039130031DT67590675900000138461890021890000033089002176759004183900011000382063020240000001336718324000000000023303449465XXXXXX8705                         NY42 0 N               N840000000013367      XL  05DNVERIFYVEND855-5539974    440997    DB84000000013367 N  654078383863                            000000000+                     11566                                Y          A1K   0000000000000.00 0000000.00   0000000.00                             000000000000000                                                                                                                                                     01424  000000000000 0000000000000.29     00050 00000                  
00348330039130001G2675906759000001384618900218900000330PROVIDENCE               RI           5 D                00                                      NNNN                          000000000000                                                                   78383863                                                                                                                                                                                                                                                                                                                                                                                                                                               
00348340039130032DT67590675900000138461890021890000033089002176759004183900011000390063020240000000316418324000000000023303400022XXXXXX1250                         NY 2 0 N               N840000000003164      IL  05DNVERIFYVEND855-5539974    611073    DB84000000003164 N  654078383863                            000000000+                     09580                                Y          342   0000000000000.00 0000000.00   0000000.00                             000000000000000                                                                                                                                                     01424  000000000000 0000000000000.24     00050 00000                  
00348350039130001G2675906759000001384618900218900000330PROVIDENCE               RI           5 D                00                                      NNNN                          000000000000                                                                   78383863                                                                                                                                                                                                                                                                                                                                                                                                                                               
00348360039130033DT67590675900000138461890021890000033089002176759004183900011000408063020240000000677218324000000000023303480209XXXXXX0807                         NY41 0 N               N840000000006772      ME  07DNVERIFYVEND855-5539974    007110    DB84000000006772 N  654078383863                            000000000+                     09601                                Y          MA1   0000000000000.00 0000000.00   0000000.00                             000000000000000                                                                                                                                                     01424  000000000000 0000000000000.25     00050 00000                  
00348370039130001G2675906759000001384618900218900000330PROVIDENCE               RI           5 D                00                                      NNNN                          000000000000                                                                   78383863                                                                                                                                                                                                                                                                                                                                                                                                                                               
00348380039130034BH6759067590000013846189002189000090170701202418324000000000016394    0000090001920472N8900216759C07012024092                                                                                                                                                                                                                                                                                                                                                                                                                                                                                                                                                                                              
00348390039130035DT67590675900000138461890021890000033089002176759004183900019204713063020240000001034418324000000000016394532569XXXXXX6791                         NY42 0 N               N840000000010344      XL  05DNVERIFYVEND855-5539974    391435    DB84000000010344 N  654078345846                            000000000+                     11589                                B          A2I   0000000000000.00 0000000.00   0000000.00                             000000000000000                                                                                                                                                     01424  000000000000 0000000000000.26     00050 00000                  
00348400039130001G2675906759000001384618900218900000330PROVIDENCE               RI           5 D                00                                      NNNN                          000000000000                                                                   78345846                                                                                                                                                                                                                                                                                                                                                                                                                                               
00348410039130036DT67590675900000138461890021890000033089002176759004183900019204721063020240000000605018324000000000016394429420XXXXXX2990                         NY 2 0 N               N840000000006050      IL  05DNVERIFYVEND855-5539974    215847    DB84000000006050 N  654078345846                            000000000+                     09584                                Y          273   0000000000000.00 0000000.00   0000000.00                             000000000000000                                                                                                                                                     01424  000000000000 0000000000000.25     00050 00000                  
00348420039130001G2675906759000001384618900218900000330PROVIDENCE               RI           5 D                00                                      NNNN                          000000000000                                                                   78345846                                                                                                                                                                                                                                                                                                                                                                                                                                               
00348430039130037BH6759067590000013846189002189000090170701202418324000000000015055    0000090001120049N8900216759C07012024012                                                                                                                                                                                                                                                                                                                                                                                                                                                                                                                                                                                              
00348440039130038DT67590675900000138461890021890000033089002176759004183900011200479063020240000000185018324000000000015055434256XXXXXX3392                         NY 2 0 N               N840000000001850      IL  05DNVERIFYVEND855-5539974    030864    DB84000000001850 N  654078383863                            000000000+                     09580                                Y          342   0000000000000.00 0000000.00   0000000.00                             000000000000000                                                                                                                                                     01424  000000000000 0000000000000.23     00050 00000                  
00348450039130001G2675906759000001384618900218900000330PROVIDENCE               RI           5 D                00                                      NNNN                          000000000000                                                                   78383863                                                                                                                                                                                                                                                                                                                                                                                                                                               
00348460039130039DT67590675900000138461890021890000033089002176759004183900011200487063020240000000997918324000000000015055434256XXXXXX9008                         NY 2 0 N               N840000000009979      IL  05DNVERIFYVEND855-5539974    040167    DB84000000009979 N  654078383863                            000000000+                     09580                                Y          342   0000000000000.00 0000000.00   0000000.00                             000000000000000                                                                                                                                                     01424  000000000000 0000000000000.27     00050 00000                  
00348470039130001G2675906759000001384618900218900000330PROVIDENCE               RI           5 D                00                                      NNNN                          000000000000                                                                   78383863                                                                                                                                                                                                                                                                                                                                                                                                                                               
00348480039130040DT67590675900000138461890021890000033089002176759004183900011200495063020240000000322618324000000000015055537032XXXXXX3126                         NY42 0 N               N840000000003226      XL  05DNVERIFYVEND855-5539974    442915    DB84000000003226 N  654078383863                            000000000+                     12709                                N          A2E   0000000000000.00 0000000.00   0000000.00                             000000000000000                                                                                                                                                     01424  000000000000 0000000000000.92     01450 00000                  
00348490039130001G2675906759000001384618900218900000330PROVIDENCE               RI           5 D                00                                      NNNN                          000000000000                                                                   78383863                                                                                                                                                                                                                                                                                                                                                                                                                                               
00348500039130041BH6759067590000013846189002189000090170701202418324000000000020253    0000090001130056N8900216759C07012024013                                                                                                                                                                                                                                                                                                                                                                                                                                                                                                                                                                                              
00348510039130042DT67590675900000138461890021890000033089002176759004183900011300519063020240000000285318324000000000020253481582XXXXXX7421                         NY42 0 N               N840000000002853      PL  05DNVERIFYVEND855-5539974    101501    DB84000000002853 N  654078383863                            000000000+                     09635                                Y          PU1   0000000000000.00 0000000.00   0000000.00                             000000000000000                                                                                                                                                     01424  000000000000 0000000000000.23     00050 00000                  
00348520039130001G2675906759000001384618900218900000330PROVIDENCE               RI           5 D                00                                      NNNN                          000000000000                                                                   78383863                                                                                                                                                                                                                                                                                                                                                                                                                                               
00348530039130043DT67590675900000138461890021890000033089002176759004183900011300535063020240000000302018324000000000020253449465XXXXXX2679                         NY42 0 N               N840000000003020      XL  05DNVERIFYVEND855-5539974    393346    DB84000000003020 N  654078383863                            000000000+                     11566                                Y          A1K   0000000000000.00 0000000.00   0000000.00                             000000000000000                                                                                                                                                     01424  000000000000 0000000000000.24     00050 00000                  
00348540039130001G2675906759000001384618900218900000330PROVIDENCE               RI           5 D                00                                      NNNN                          000000000000                                                                   78383863                                                                                                                                                                                                                                                                                                                                                                                                                                               
00348550039130044DT67590675900000138461890021890000033089002176759004183900011300543063020240000000655018324000000000020253419455XXXXXX2300                         NY 2 0 N               N840000000006550      IL  05DNVERIFYVEND855-5539974    041970    DB84000000006550 N  654078383863                            000000000+                     09573                                N          121   0000000000000.00 0000000.00   0000000.00                             000000000000000                                                                                                                                                     01424  000000000000 0000000000000.67     00800 00000                  
00348560039130001G2675906759000001384618900218900000330PROVIDENCE               RI           5 D                00                                      NNNN                          000000000000                                                                   78383863                                                                                                                                                                                                                                                                                                                                                                                                                                               
00348570039130045DT67590675900000138461890021890000033089002176759004183900011300568063020240000000783018324000000000020253514377XXXXXX4718                         NY42 0 N               N840000000007830      PL  05DNVERIFYVEND855-5539974    24EH24    DB84000000007830 N  654078383863                            000000000+                     09631                                N          PU0   0000000000000.00 0000000.00   0000000.00                             000000000000000                                                                                                                                                     01424  000000000000 0000000000000.78     00800 00000                  
00348580039130001G2675906759000001384618900218900000330PROVIDENCE               RI           5 D                00                                      NNNN                          000000000000                                                                   78383863                                                                                                                                                                                                                                                                                                                                                                                                                                               
00348590039130046BH6759067590000005226680016880000090170701202418324000000000012839    0000090001740001N8001686759C07012024174                                                                                                                                                                                                                                                                                                                                                                                                                                                                                                                                                                                              
00348600039130047DT67590675900000052266800168800000010180016877287284183900017400013063020240000001283918324000000000012839515676XXXXXX2915       MS02WI09          NY 1 0 AMWENBWBKK0630  N840000000012839          05DNYOGA SMOKES              05531Z    MC84000000012839 N  599975076893                            000000000+M10101C5434C    MWE  00739                     000000000  N                0000000000000.00 0000000.00   0000000.00                             000000000000000                                                                                                                                                   B101424  000000000000 0000000000003.05     02300 01000                  
00348610039130001E167590675900000052266800168800000010100E0F8C800B0 00000000000.00404040404040404040404040404040404040404040404040400110A04001220000000000000000000000FF00000000000000000000000000  00010840390000000080002406300FDF439CBB54151FE509BFBE404040400840A0000000041010000000000000000000BF3D5062985FB28D00120000000000004040401E40404040 000000128.39 000000000.001E03000000000000000000    80                                                                                                                                                                                                                                                                                                                  
00348620039130002G2675906759000000522668001688000000101PORT SAINT LU            FL           5 E                                                        NNNN              000000000000000000000000                        7                                          75076893                                                                                                                                                                                                                                                                                                                                                                                                                                               
00348630039130048BH6759067590000013846189002189000090170701202418324000000000056650    0000090001350176N8900216759C07012024035                                                                                                                                                                                                                                                                                                                                                                                                                                                                                                                                                                                              
00348640039130049DT67590675900000138461890021890000033089002176759004183900013501718063020240000000915018324000000000056650477351XXXXXX4304                         NY 2 0 N               N840000000009150      IL  05DNVERIFYVEND855-5539974    377712    DB84000000009150 N  654078383823                            000000000+                     09584                                Y          273   0000000000000.00 0000000.00   0000000.00                             000000000000000                                                                                                                                                     01424  000000000000 0000000000000.27     00050 00000                  
00348650039130001G2675906759000001384618900218900000330PROVIDENCE               RI           5 D                00                                      NNNN                          000000000000                                                                   78383823                                                                                                                                                                                                                                                                                                                                                                                                                                               
00348660039130050DT67590675900000138461890021890000033089002176759004183900013501734063020240000002255018324000000000056650546213XXXXXX0269                         NY42 0 N               N840000000022550      ST  05DNVERIFYVEND855-5539974    801888    DB84000000022550 N  654078383823                            000000000+                     09615                                1          ST1   0000000000000.00 0000000.00   0000000.00                             000000000000000                                                                                                                                                     01424  000000000000 0000000000000.34     00050 00000                  
00348670039130001G2675906759000001384618900218900000330PROVIDENCE               RI           5 D                00                                      NNNN                          000000000000                                                                   78383823                                                                                                                                                                                                                                                                                                                                                                                                                                               
00348680039130051DT67590675900000138461890021890000033089002176759004183900013501742063020240000001115018324000000000056650419455XXXXXX2195                         NY 2 0 N               N840000000011150      IL  05DNVERIFYVEND855-5539974    042124    DB84000000011150 N  654078383823                            000000000+                     09573                                N          121   0000000000000.00 0000000.00   0000000.00                             000000000000000                                                                                                                                                     01424  000000000000 0000000000001.04     00800 00000                  
00348690039130001G2675906759000001384618900218900000330PROVIDENCE               RI           5 D                00                                      NNNN                          000000000000                                                                   78383823                                                                                                                                                                                                                                                                                                                                                                                                                                               
00348700039130052DT67590675900000138461890021890000033089002176759004183900013501759063020240000000845018324000000000056650483316XXXXXX5238                         NY 2 0 N               N840000000008450      IL  05DNVERIFYVEND855-5539974    072623    DB84000000008450 N  654078383823                            000000000+                     09580                                Y          342   0000000000000.00 0000000.00   0000000.00                             000000000000000                                                                                                                                                     01424  000000000000 0000000000000.26     00050 00000                  
00348710039130001G2675906759000001384618900218900000330PROVIDENCE               RI           5 D                00                                      NNNN                          000000000000                                                                   78383823                                                                                                                                                                                                                                                                                                                                                                                                                                               
00348720039130053DT67590675900000138461890021890000033089002176759004183900013501767063020240000000535018324000000000056650481582XXXXXX6454                         NY42 0 N               N840000000005350      PL  05DNVERIFYVEND855-5539974    112796    DB84000000005350 N  654078383823                            000000000+                     09635                                Y          PU1   0000000000000.00 0000000.00   0000000.00                             000000000000000                                                                                                                                                     01424  000000000000 0000000000000.25     00050 00000                  
00348730039130001G2675906759000001384618900218900000330PROVIDENCE               RI           5 D                00                                      NNNN                          000000000000                                                                   78383823                                                                                                                                                                                                                                                                                                                                                                                                                                               
00348740039130054BH6759067590000013846189002189000090170701202418324000000000025684    0000090001410269N8900216759C07012024041                                                                                                                                                                                                                                                                                                                                                                                                                                                                                                                                                                                              
00348750039130055DT67590675900000138461890021890000033089002176759004183900014102672063020240000000136718324000000000025684486796XXXXXX2231                         NY42 0 N               N840000000001367      PL  05DNVERIFYVEND855-5539974    074622    DB84000000001367 N  654078381422                            000000000+                     09635                                Y          PU1   0000000000000.00 0000000.00   0000000.00                             000000000000000                                                                                                                                                     01424  000000000000 0000000000000.23     00050 00000                  
00348760039130001G2675906759000001384618900218900000330PROVIDENCE               RI           5 D                00                                      NNNN                          000000000000                                                                   78381422                                                                                                                                                                                                                                                                                                                                                                                                                                               
00348770039130056DT67590675900000138461890021890000033089002176759004183900014102680063020240000000136718324000000000025684413037XXXXXX9606                         NY 2 0 N               N840000000001367      IL  05DNVERIFYVEND855-5539974    013399    DB84000000001367 N  654078381422                            000000000+                     09580                                Y          342   0000000000000.00 0000000.00   0000000.00                             000000000000000                                                                                                                                                     01424  000000000000 0000000000000.23     00050 00000                  
00348780039130001G2675906759000001384618900218900000330PROVIDENCE               RI           5 D                00                                      NNNN                          000000000000                                                                   78381422                                                                                                                                                                                                                                                                                                                                                                                                                                               
00348790039130057DT67590675900000138461890021890000033089002176759004183900014102698063020240000002295018324000000000025684490070XXXXXX6340                         NY42 0 N               N840000000022950      PL  05DNVERIFYVEND855-5539974    014922    DB84000000022950 N  654078381422                            000000000+                     09635                                Y          PU1   0000000000000.00 0000000.00   0000000.00                             000000000000000                                                                                                                                                     01424  000000000000 0000000000000.33     00050 00000                  
00348800039130001G2675906759000001384618900218900000330PROVIDENCE               RI           5 D                00                                      NNNN                          000000000000                                                                   78381422                                                                                                                                                                                                                                                                                                                                                                                                                                               
00348810039130058BH6759067590000008506880021380000090170701202418324000000000498847    0000090001660092N8002136759C07012024166                                                                                                                                                                                                                                                                                                                                                                                                                                                                                                                                                                                              
00348820039130059DT67590675900000085068800213800000010180021324001194183900016600017063020240000000872918324000000000498847474473XXXXXX8164       VS11    0001111   NYV1 A E384182540751612N840000000008729Q9GL00    05DNAD FORWARD SOLUTIONS     130219    VD84000000008729 N  599975184809                            000000000+                F DF 10433                     000000000  Y000000000 338   0000000000000.00 0000000.00   0000000.00                             000000000000000                                                                                                                                                     01424 A000000000000 0000000000000.26     00050 02200                  
00348830039130001E167590675900000085068800213800000010100E0F8C805CD 00000000000.004040404040404040404040404040404040404040404040404006011203A08000000000000000000000404040404040404040404040404040  00000840180080800080002406302EE3EF525633F85CE8FCC437404040400840A0000000031010000000000000000000704050E00080000020200000000000004040401E40404040 000000087.29 000000000.001E00000000000000000000    80                                                                                                                                                                                                                                                                                                                  
00348840039130002G2675906759000000850688002138000000101ASHEVILLE                NC           5 D                00                                      NNNN00 N 00                   000000000000                                                                   75184809                                                                                                                                                                                                                                                                                                                                                                                                                                               
00348850039130060DT67590675900000085068800213800000010180021324001194183900016600025063020240000000769918324000000000498847466188XXXXXX3176       VS11    0001111   NYV1 A E464182547685304N840000000007699XML500    05DNAD FORWARD SOLUTIONS     033072    VD84000000007699 N  599975184809                            000000000+                F DF 10433                     000000000  Y000000000 338   0000000000000.00 0000000.00   0000000.00                             000000000000000                                                                                                                                                     01424 A000000000000 0000000000000.26     00050 02200                  
00348860039130001E167590675900000085068800213800000010100E0F8C80256 00000000000.004040404040404040404040404040404040404040404040404006011203A0A000000000000000000000404040404040404040404040404040  0000084018008080008000240630C791F1183AFC2BAC2499D70B404040400840A000000003101000000000000000000022875B73CD70284230300000000000004040401E40404040 000000076.99 000000000.001E00000000000000000000    80                                                                                                                                                                                                                                                                                                                  
00348870039130002G2675906759000000850688002138000000101ASHEVILLE                NC           5 D                00                                      NNNN00 N 00                   000000000000                                                                   75184809                                                                                                                                                                                                                                                                                                                                                                                                                                               
00348880039130061DT67590675900000085068800213800000010180021324001194183900016600033063020240000000535318324000000000498847413037XXXXXX3267       VS11    0001111   NYV1 A E584182550757207N840000000005353C9VW00    05DNAD FORWARD SOLUTIONS     029781    VD84000000005353 N  599975184809                            000000000+                F DF 10433                     000000000  Y000000000 338   0000000000000.00 0000000.00   0000000.00                             000000000000000                                                                                                                                                     01424 A000000000000 0000000000000.25     00050 02200                  
00348890039130001E167590675900000085068800213800000010100E0F8C80078 00000000000.004040404040404040404040404040404040404040404040404006011203A0A000000000000000000000404040404040404040404040404040  00000840180080800080002406303BADEB4F8CF3AD6673D2E818404040400840A0000000031010000000000000000000B9B1DBF8B4C4F6FC30300000000000004040401E40404040 000000053.53 000000000.001E00000000000000000000    80                                                                                                                                                                                                                                                                                                                  
00348900039130002G2675906759000000850688002138000000101ASHEVILLE                NC           5 D                00                                      NNNN00 N 00                   000000000000                                                                   75184809                                                                                                                                                                                                                                                                                                                                                                                                                                               
00348910039130062DT67590675900000085068800213800000010180021324001194183900016600041063020240000000202618324000000000498847402047XXXXXX4432       VS11    0001111   NYV1 A E384182553405636N840000000002026P87500    05DNAD FORWARD SOLUTIONS     245291    VD84000000002026 N  599975184809                            000000000+                F DF 00381                     000000000  N000000000       0000000000000.00 0000000.00   0000000.00                             000000000000000                                                                                                                                                     01424 A000000000000 0000000000000.31     00800 01500                  
00348920039130001E167590675900000085068800213800000010100E0F8C8073D 00000000000.004040404040404040404040404040404040404040404040404006011203A0A000000000000000000000404040404040404040404040404040  0000084018008080008000240630DFD3EC3F82DD8B56A0BB4B2A404040400840A0000000031010000000000000000000CBBCCB440732BDEC30300000000000004040401E40404040 000000020.26 000000000.001E00000000000000000000    80                                                                                                                                                                                                                                                                                                                  
00348930039130002G2675906759000000850688002138000000101ASHEVILLE                NC           5 D                00                                      NNNN00 N 00                   000000000000                                                                   75184809                                                                                                                                                                                                                                                                                                                                                                                                                                               
00348940039130063DT67590675900000085068800213800000010180021324001194183900016600058063020240000001329018324000000000498847434256XXXXXX9771       VS11    0001111   NYV1 A E384182560326839N84000000001329029JW00    05DNAD FORWARD SOLUTIONS     039314    VD84000000013290 N  599975184809                            000000000+                F DF 10433                     000000000  Y000000000 338   0000000000000.00 0000000.00   0000000.00                             000000000000000                                                                                                                                                     01424 A000000000000 0000000000000.29     00050 02200                  
00348950039130001E167590675900000085068800213800000010100E0F8C800F4 00000000000.004040404040404040404040404040404040404040404040404006061203A0A000000000000000000000404040404040404040404040404040  00000840180080800080002406300F2F1CD7AC648E879E13085F404040400840A000000003101000000000000000000040F0E05080F0703020200000000000004040401E40404040 000000132.90 000000000.001E00000000000000000000    80                                                                                                                                                                                                                                                                                                                  
00348960039130002G2675906759000000850688002138000000101ASHEVILLE                NC           5 D                00                                      NNNN00 N 00                   000000000000                                                                   75184809                                                                                                                                                                                                                                                                                                                                                                                                                                               
00348970039130064DT67590675900000085068800213800000010180021324001194183900016600066063020240000000130818324000000000498847432739XXXXXX8973       VK04VS111111111   NYV1 A E384182563448500N840000000001308XFD600    05DNAD FORWARD SOLUTIONS     291928    VD84000000001308 N  599975184809                            000000000+                F DF 10439                     000000000  Y000000000 331   0000000000000.00 0000000.00   0000000.00                             000000000000000                                                                                                                                                     01424 F000000000000 0000000000000.23     00050 02200                  
00348980039130001E167590675900000085068800213800000010100E0F8C80511 00000000000.004040404040404040404040404040404040404040404040404006011203A02000000000000000000000404040404040404040404040404040  000008401800808000800024063086FBBB828F4C65B4E8FA7B26404040400840A0000000031010000000000000000000BB52A1BEB3DD985830300000000000004040401E40404040 000000013.08 000000000.001E00000000000000000000    80                                                                                                                                                                                                                                                                                                                  
00348990039130002G2675906759000000850688002138000000101ASHEVILLE                NC           5 D                00                                      NNNN00 N 00                   000000000000                                                                   75184809                                                                                                                                                                                                                                                                                                                                                                                                                                               
00349000039130065DT67590675900000085068800213800000010180021324001194183900016600074063020240000000671118324000000000498847434256XXXXXX8552       VS11    0001111   NYV1 A E304182571002621N840000000006711HVM400    05DNAD FORWARD SOLUTIONS     015227    VD84000000006711 N  599975184809                            000000000+                F DF 10433                     000000000  Y000000000 338   0000000000000.00 0000000.00   0000000.00                             000000000000000                                                                                                                                                     01424 A000000000000 0000000000000.25     00050 02200                  
00349010039130001E167590675900000085068800213800000010100E0F8C80242 00000000000.004040404040404040404040404040404040404040404040404006061203A0A000000000000000000000404040404040404040404040404040  00000840180080800080002406301F1287AA23B0D9FFB48B74E3404040400840A00000000310100000000000000000001070E01030D0F0F020200000000000004040401E40404040 000000067.11 000000000.001E00000000000000000000    80                                                                                                                                                                                                                                                                                                                  
00349020039130002G2675906759000000850688002138000000101ASHEVILLE                NC           5 D                00                                      NNNN00 N 00                   000000000000                                                                   75184809                                                                                                                                                                                                                                                                                                                                                                                                                                               
00349030039130066DT67590675900000085068800213800000010180021324001194183900016600082063020240000000110418324000000000498847473703XXXXXX7497       VK04VS111111111   NYV1 A E584182572585917N840000000001104M68M00    05DNAD FORWARD SOLUTIONS     019288    VD84000000001104 N  599975184809                            000000000+                F DF 10439                     000000000  Y000000000 331   0000000000000.00 0000000.00   0000000.00                             000000000000000                                                                                                                                                     01424 F000000000000 0000000000000.23     00050 02200                  
00349040039130001E167590675900000085068800213800000010100E0F8C80163 00000000000.004040404040404040404040404040404040404040404040404006061203A0A000000000000000000000404040404040404040404040404040  0000084018008080008000240630CAA677D05C53A40AE98CC235404040400840A0000000031010000000000000000000B060702080A0A02020200000000000004040401E40404040 000000011.04 000000000.001E00000000000000000000    80                                                                                                                                                                                                                                                                                                                  
00349050039130002G2675906759000000850688002138000000101ASHEVILLE                NC           5 D                00                                      NNNN00 N 00                   000000000000                                                                   75184809                                                                                                                                                                                                                                                                                                                                                                                                                                               
00349060039130067DT67590675900000085068800213800000010180021324001194183900016600090063020240000002106318324000000000498847411870XXXXXX8672       VS11    0001111   NYV1 A E584182576090234N840000000021063SJ4T00    05DNAD FORWARD SOLUTIONS     030477    VS84000000021063 N  599975184809                            000000000+                C CC 12112                     000000000  N000000000 497   0000000000000.00 0000000.00   0000000.00                             000000000000000                                                                                                                                                     01424 A000000000000 0000000000003.58     01650 01000                  
00349070039130001E167590675900000085068800213800000010100E0F8C80013 00000000000.004040404040404040404040404040404040404040404040404006011203A0A000000000000000000000404040404040404040404040404040  000108401800808000800024063008D5BE755D04681CF9A5BE91404040400840A0000000031010000000000000000000AEA9C1AB0082000000000000000000004040401E40404040 000000210.63 000000000.001E00000000000000000000    80                                                                                                                                                                                                                                                                                                                  
00349080039130002G2675906759000000850688002138000000101ASHEVILLE                NC           5 C                00                                      NNNN00 Y 00                   000000000000                                                                   75184809                                                                                                                                                                                                                                                                                                                                                                                                                                               
00349090039130068DT67590675900000085068800213800000010180021324001194183900016600108063020240000002892718324000000000498847433477XXXXXX9545       VS11    0001111   NYV1 A E304182576792778N840000000028927VNS500    05DNAD FORWARD SOLUTIONS     635792    VD84000000028927 N  599975184809                            000000000+                F DF 10433                     000000000  Y000000000 338   0000000000000.00 0000000.00   0000000.00                             000000000000000                                                                                                                                                     01424 A000000000000 0000000000000.36     00050 02200                  
00349100039130001E167590675900000085068800213800000010100E0F8C8012D 00000000000.004040404040404040404040404040404040404040404040404006011203A0A000000000000000000000404040404040404040404040404040  00010840180080800080002406304F60A82FD312B663EC569F9E404040400840A00000000310100000000000000000002C1B56E20082000000000000000000004040401E40404040 000000289.27 000000000.001E00000000000000000000    80                                                                                                                                                                                                                                                                                                                  
00349110039130002G2675906759000000850688002138000000101ASHEVILLE                NC           5 D                00                                      NNNN00 N 00                   000000000000                                                                   75184809                                                                                                                                                                                                                                                                                                                                                                                                                                               
00349120039130069DT67590675900000085068800213800000010180021324001194183900016600116063020240000000073818324000000000498847492125XXXXXX4634       VK04VS111111111   NYV1 A E304182581825837N840000000000738FHLV00    07DNAD FORWARD SOLUTIONS     521853    VD84000000000738 N  599975184809                            000000000+                F DF 00451                     000000000  N000000000 214   0000000000000.00 0000000.00   0000000.00                             000000000000000                                                                                                                                                     01424 F000000000000 0000000000000.15     01550 00400                  
00349130039130001E167590675900000085068800213800000010100E068C80328 00000000000.00404040404040404040404040404040404040404040404040401F42FF31A00000000010030273000000004000000000000000000000000000  00000840006000000000002406307BE51F57BB8B6A167E834406404040400840A0000000031010000000000000000000F7A74A270086000000000000000000004040404040404040 000000007.38 000000000.004040400000000000000000    80                                                                                                                                                                                                                                                                                                                  
00349140039130002G2675906759000000850688002138000000101ASHEVILLE                NC           5 D                00                                      NNNN00 N 00                   000000000000                                                                   75184809                                                                                                                                                                                                                                                                                                                                                                                                                                               
00349150039130070DT67590675900000085068800213800000010180021324001194183900016600124063020240000000541618324000000000498847441103XXXXXX9018       VS11    0001111   NYV1 A E584182582800274N8400000000054166NB700    05DNAD FORWARD SOLUTIONS     001112    VD84000000005416 N  599975184809                            000000000+                F DF 10433                     000000000  Y000000000 338   0000000000000.00 0000000.00   0000000.00                             000000000000000                                                                                                                                                     01424 A000000000000 0000000000000.25     00050 02200                  
00349160039130001E167590675900000085068800213800000010100E0F8C8016C 00000000000.004040404040404040404040404040404040404040404040404006011203A08000000000000000000000404040404040404040404040404040  000008401800808000800024063076DDF1215D53F689F9978C10404040400840A0000000031010000000000000000000F030F0A00040903020200000000000004040401E40404040 000000054.16 000000000.001E00000000000000000000    80                                                                                                                                                                                                                                                                                                                  
00349170039130002G2675906759000000850688002138000000101ASHEVILLE                NC           5 D                00                                      NNNN00 N 00                   000000000000                                                                   75184809                                                                                                                                                                                                                                                                                                                                                                                                                                               
00349180039130071DT67590675900000085068800213800000010180021324001194183900016600132063020240000000074918324000000000498847403163XXXXXX5034       VK04VS111111111   NYV1 A E304182586036712N840000000000749G2ZP00    05DNAD FORWARD SOLUTIONS     406993    VD84000000000749 N  599975184809                            000000000+                F PF 08165                     000000000  N000000000       0000000000000.00 0000000.00   0000000.00                             000000000000000                                                                                                                                                     01424 F000000000000 0000000000000.17     01600 00500                  
00349190039130001E167590675900000085068800213800000010100E0F8C8006C 00000000000.004040404040404040404040404040404040404040404040404006011203A02000000000000000000000404040404040404040404040404040  0000084018008080008000240630784EB3775077710D04DA3118404040400840A00000000310100000000000000000002DF05D74F24B3C9430300000000000004040401E40404040 000000007.49 000000000.001E00000000000000000000    80                                                                                                                                                                                                                                                                                                                  
00349200039130002G2675906759000000850688002138000000101ASHEVILLE                NC           5 P                00                                      NNNN00 N 00                   000000000000                                                                   75184809                                                                                                                                                                                                                                                                                                                                                                                                                                               
00349210039130072DT67590675900000085068800213800000010180021324001194183900016600140063020240000000875018324000000000498847466189XXXXXX6741       VS11    0001111   NYV1 A E384182587672833N840000000008750B9TQ00    05DNAD FORWARD SOLUTIONS     029746    VD84000000008750 N  599975184809                            000000000+                F DF 10433                     000000000  Y000000000 338   0000000000000.00 0000000.00   0000000.00                             000000000000000                                                                                                                                                     01424 A000000000000 0000000000000.26     00050 02200                  
00349220039130001E167590675900000085068800213800000010100E0F8C802E8 00000000000.004040404040404040404040404040404040404040404040404006011203A0A000000000000000000000404040404040404040404040404040  0000084018008080008000240630604E1FCA5EDE9B988F7953B5404040400840A00000000310100000000000000000006EFE759319D2658930300000000000004040401E40404040 000000087.50 000000000.001E00000000000000000000    80                                                                                                                                                                                                                                                                                                                  
00349230039130002G2675906759000000850688002138000000101ASHEVILLE                NC           5 D                00                                      NNNN00 N 00                   000000000000                                                                   75184809                                                                                                                                                                                                                                                                                                                                                                                                                                               
00349240039130073DT67590675900000085068800213800000010180021376509754183900016600155063020240000000734318324000000000498847601100XXXXXX6232   BA50                  NY41 0 N754156828772109N840000000007343    00    05DNAD FORWARD SOLUTIONS     03099R    DS84000000007343 N  599975184809050                         000000000+0000004910H00   DCCDI01000831186  122117000000 000000000  0          112   0000000000000.00 0000000.00   0000000.00                             000000000000000                                                                                                                                                     01424  000000000000 0000000000001.36     01720 01000                  
00349250039130001E167590675900000085068800213800000010100E0F8C80103 00000000000.00404040404040404040404040404040404040404040404040400105A080038000000000000000000000404040404040404040404040404040  000208407800000000800024063098BF688562CB4E220EBAC70B404040400840A00000015230100000000000000000002E7262B26D01D61500320000000000004040401E40404040 000000073.43 000000000.001E03000000000000000000    80                                                                                                                                                                                                                                                                                                                  
