01677410106490002BH6759067590000000215480088880000090171205202233922000000000000000    0000090001010001N8008886759C12062022                                                                                                                                                                                                                                                                                                                                                                                                                                                                                                                                                                                                 
01677420106490003DT67590675900000002154800888800000010680088877287282339900010100021120520220000000050033922000000000000000558158XXXXXX7298                         NY91 0 N         1205  N840000000000000          01CNDRIP DROP DISTRO LLC               MD84000000000500 NP1519976225652                            000000000+M1010115414C    MDB  00568                     000000000  N                0000000000000.00 0000000.00   0000000.00                             000000000000000                                                                                                                                                     01418  000000000000-0000000000000.11     02210 00000                  
01677430106490001P1675906759000000021548008888000000106                                                 000000000000000000000          8000   000000000471534935            000000000000                                                                                                                                                                                                                                                                                                                                                                                                                                                                                                                                    
01677440106490004DT67590675900000002154800888800000010180088877287282339900010100039120520220000000050033922000000000000000558158XXXXXX7298                         NY 1 0 AMDBEG9O6W1205  N840000000000500          05DNDRIP DROP DISTRO LLC     2TTHMX    MD84000000000500 NP1519976225652                            000000000+M10101C5434C    MDB  00062                     000000000  N                0000000000000.00 0000000.00   0000000.00                             000000000000000                                                                                                                                                   B101418  000000000000 0000000000000.23     02650 01000                  
01677450106490001P1675906759000000021548008888000000101                                                 000000000000000000000          8000   000000000471534935            000000000000                                                                                                                                                                                                                                                                                                                                                                                                                                                                                                                                    
01677460106490005DT67590675900000002154800888800000010680088877287282339900010100047120520220000000050033922000000000000000558158XXXXXX7298                         NY91 0 N         1205  N840000000000000          01CNDRIP DROP DISTRO LLC               MD84000000000500 NP1519976225652                            000000000+M1010115414C    MDB  00568                     000000000  N                0000000000000.00 0000000.00   0000000.00                             000000000000000                                                                                                                                                     01418  000000000000-0000000000000.11     02210 00000                  
01677470106490001P1675906759000000021548008888000000106                                                 000000000000000000000          8000   000000000471534935            000000000000                                                                                                                                                                                                                                                                                                                                                                                                                                                                                                                                    
01677480106490006DT67590675900000002154800888800000033080088876759002339900010100016120520220000000050033922000000000000000558158XXXXXX7298                         NY42 0 N               N840000000000500      ME  05DNDRIP DROP DISTRO LLC     25G26F    DB84000000000500 N  519976225652                            000000000+                     09597                                N                0000000000000.00 0000000.00   0000000.00                             000000000000000                                                                                                                                                     01418  000000000000 0000000000000.20     00900 00000                  
01677490106490007BH6759067590000000215480088880000090171205202233922000000000236320    0000090001548391N8008886759C12062022                                                                                                                                                                                                                                                                                                                                                                                                                                                                                                                                                                                                 
01677500106490008DT67590675900000002154800888800000010180088824001192339900015400994120520220000006400033922000000000236320444395XXXXXX6374               2111111   NYV4 A7W382339716592342N840000000064000HNV400    01DNDRIP DROP DISTRO LLC     06711G    VB84000000064000 NP1519971004114   INV-27645                000000000+                G5CG511887                     000000000  N000000000 163   0000000000000.00 0000000.00   0000000.00                             000000000000000                                                                                                                                                     01418 G000000064000 0000000000019.30     03000 01000                  
01677510106490001P16759067590000000215480088880000001010000000000000000    43803449599              2000000000000000000000000              000000000000                    0000000000000000000000000                    000000000000                                                                                                                                                                                                                                                                                                                                                                                                                                                                                        
01677520106490009DT67590675900000002154800888800000010180088824001192339900015489674120520220000005832033922000000000236320426930XXXXXX0531               2111111   NYV4 A7W302339688100333N840000000058320DWN700    01DNDRIP DROP DISTRO LLC     09532G    VB84000000058320 NP1519971004114   INV-27663                000000000+                G5CG511887                     000000000  N000000000 163   0000000000000.00 0000000.00   0000000.00                             000000000000000                                                                                                                                                     01418 G000000058320 0000000000017.60     03000 01000                  
01677530106490001P16759067590000000215480088880000001010000000000000000    43803319958              2000000000000000000000000              000000000000                    0000000000000000000000000                    000000000000                                                                                                                                                                                                                                                                                                                                                                                                                                                                                        
01677540106490010DT67590675900000002154800888800000010180088887287282339900015483918120520220000011400033922000000000236320547415XXXXXX3768                         NY 4607AMEBKRS9YO1205  N840000000114000          81DNDRIP DROP DISTRO LLC     09112Q    MB84000000114000 NP1519900000001   INV-27662                000000000+600450S00140    MEB  11637                     000000000  N                0000000000000.00 0000000.00   0000000.00                             000000000000000                                                                                                                                                   U001418  000000000000 0000000000034.30     03000 01000                  
01677550106490001P1675906759000000021548008888000000101                                                          000000000000          8000            471534935                                                                                                                                                                                                                                                                                                                                                                                                                                                                                                                                                            
