00004950036970002BH6759067590000002604780012480000090170501202312123000000000162770    0000090001130012N8001246759C05012023                                                                                                                                                                                                                                                                                                                                                                                                                                                                                                                                                                                                 
00004960036970003DT67590675900000026047800124800000010180012476509753121900011300014043020230000001447812123000000000162770601101XXXXXX6635   BA50                  NY41 0 N803103267025451N840000000014478    00    05DNHPPYC                    03064R    DS84000000014478 N  599978201978050                         000000000+0000004910H00   DCCDI01000002401  123142000000 000000000  0          112   0000000000000.00 0000000.00   0000000.00                             000000000000000                                                                                                                                                     01424  000000000000 0000000000002.59     01720 01000                  
00004970036970004DT67590675900000026047800124800000010180012424001193121900011300024043020230000000752212123000000000162770404657XXXXXX0002       VS11    0001111   NYV1 A E463120632426606N840000000007522ZB5D00    05DNHPPYC                    030142    VS84000000007522 N  599978201978                            000000000+                A CA 12110                     000000000  N000000000 493   0000000000000.00 0000000.00   0000000.00                             000000000000000                                                                                                                                                     01424 A000000000000 0000000000001.24     01510 01000                  
00004980036970005DT67590675900000026047800124800000010180012424001193121900011300032043020230000001844512123000000000162770414720XXXXXX6667       VS11    0001111   NYV1 A E303120634469742N840000000018445ZMSL00    05DNHPPYC                    01787I    VS84000000018445 N  599978201978                            000000000+                I CI 12777                     000000000  N000000000 690   0000000000000.00 0000000.00   0000000.00                             000000000000000                                                                                                                                                     01424 A000000000000 0000000000003.97     02100 01000                  
00004990036970006DT67590675900000026047800124800000010180012473011003121900011300046043020230000001233312123000000000162770371389XXXXX8017                          NY 1 0 N004936354358302N840000000012333          05DNHPPYC LLC                821131    AM84000000012333 N  599978201978                            000000000+51010155434C 258     11262                     000000000                   0000000000000.00 0000000.00   0000000.00                             000000000000000 61248972086759675900000026047 HPPYC LLC                401 HAWTHORNE LN 110263  9802368861      28204     TORI@SMOKEMFG.COM                         01424  000000000000 0000000000002.50     01950 00000                  
00005000036970007DT67590675900000026047800124800000010180012424001193121900011300057043020230000000257412123000000000162770448210XXXXXX1927       VS11    0001111   NYV1 A E463120657391216N840000000002574SK7N00    05DNHPPYC                    000383    VD84000000002574 N  599978201978                            000000000+                F DF 00381                     000000000  N000000000       0000000000000.00 0000000.00   0000000.00                             000000000000000                                                                                                                                                     01424 A000000000000 0000000000000.36     00800 01500                  
00005010036970008DT67590675900000026047800124800000010180012424001193121900011300065043020230000000107212123000000000162770473703XXXXXX2124       VK04VS111111111   NYV1 A E303120676000622N8400000000010729R6K00    05DNHPPYC                    096577    VD84000000001072 N  599978201978                            000000000+                F DF 10439                     000000000  Y000000000 331   0000000000000.00 0000000.00   0000000.00                             000000000000000                                                                                                                                                     01424 F000000000000 0000000000000.23     00050 02200                  
00005020036970009DT67590675900000026047800124800000010180012473011003121900011300079043020230000000993712123000000000162770370034XXXXX0927                          NY 1 0 N004937928817302N840000000009937          05DNHPPYC LLC                775030    AM84000000009937 N  599978201978                            000000000+51010155434C 258     11262                     000000000                   0000000000000.00 0000000.00   0000000.00                             000000000000000 61248972086759675900000026047 HPPYC LLC                401 HAWTHORNE LN 110263  9802368861      28204     TORI@SMOKEMFG.COM                         01424  000000000000 0000000000002.04     01950 00000                  
00005030036970010DT67590675900000026047800124800000010180012424001193121900011300081043020230000000589812123000000000162770480990XXXXXX9119       VS11    0001111   NYV1 A E383120709145163N840000000005898HJM300    05DNHPPYC                    071370    VD84000000005898 N  599978201978                            000000000+                F DF 10433                     000000000  Y000000000 338   0000000000000.00 0000000.00   0000000.00                             000000000000000                                                                                                                                                     01424 A000000000000 0000000000000.25     00050 02200                  
00005040036970011DT67590675900000026047800124800000010180012476509753121900011300097043020230000000662212123000000000162770601100XXXXXX9266   BA50                  NY41 0 N803103387840299N840000000006622    00    05DNHPPYC                    03054R    DS84000000006622 N  599978201978050                         000000000+0000004910H00   DCCDI01000501566  155304000000 000000000  0          112   0000000000000.00 0000000.00   0000000.00                             000000000000000                                                                                                                                                     01424  000000000000 0000000000001.24     01720 01000                  
00005050036970012DT67590675900000026047800124800000010180012424001193121900011300107043020230000000707612123000000000162770440066XXXXXX9907       VS11    0001111   NYV1 A E463120745738101N840000000007076HVMD00    05DNHPPYC                    05909D    VS84000000007076 N  599978201978                            000000000+                D CD 12113                     000000000  N000000000 499   0000000000000.00 0000000.00   0000000.00                             000000000000000                                                                                                                                                     01424 A000000000000 0000000000001.59     02100 01000                  
00005060036970013DT67590675900000026047800124800000010180012424001193121900011300115043020230000000804312123000000000162770414720XXXXXX0924       VS11    0001111   NYV1 A E303120750927660N840000000008043H85700    05DNHPPYC                    03982C    VS84000000008043 N  599978201978                            000000000+                C CC 12112                     000000000  N000000000 497   0000000000000.00 0000000.00   0000000.00                             000000000000000                                                                                                                                                     01424 A000000000000 0000000000001.43     01650 01000                  
00005070036970014DT67590675900000026047800124800000010180012477287283121900011300133043020230000000493212123000000000162770544412XXXXXX9987       MS02WI09          NY 1 0 AMWEIJQ65K0430  N840000000004932          07DNHPPYC                    40451Z    MC84000000004932 N  599978201978                            000000000+M10101M0034C    MWE  00739                     000000000  N                0000000000000.00 0000000.00   0000000.00                             000000000000000                                                                                                                                                   A101424  000000000000 0000000000001.23     02300 01000                  
00005080036970015DT67590675900000026047800124800000010180012424001193121900011300149043020230000000369712123000000000162770432739XXXXXX7910       VS11    0001111   NYV1 A E463120809879841N840000000003697QHNH00    07DNHPPYC                    532919    VD84000000003697 N  599978201978                            000000000+                F DF 10433                     000000000  Y000000000 338   0000000000000.00 0000000.00   0000000.00                             000000000000000                                                                                                                                                     01424 A000000000000 0000000000000.24     00050 02200                  
00005090036970016DT67590675900000026047800124800000010180012477287283121900011300158043020230000000772212123000000000162770531257XXXXXX1253       MS02WI09          NY 1 0 AMDJS4QW610430  N840000000007722          07DNHPPYC                    144227    MD84000000007722 N  599978201978                            000000000+M10101M5434C    MDJ  10815                     000000000  1                0000000000000.00 0000000.00   0000000.00                             000000000000000                                                                                                                                                   B101424  000000000000 0000000000000.26     00050 02200                  
00005100036970017DT67590675900000026047800124800000010180012424001193121900011300164043020230000001179512123000000000162770466188XXXXXX4336       VS11    0001111   NYV1 A E463120835684418N8400000000117959WQS00    05DNHPPYC                    021924    VD84000000011795 N  599978201978                            000000000+                F DF 10433                     000000000  Y000000000 338   0000000000000.00 0000000.00   0000000.00                             000000000000000                                                                                                                                                     01424 A000000000000 0000000000000.28     00050 02200                  
00005110036970018DT67590675900000026047800124800000010180012424001193121900011300172043020230000002198512123000000000162770471876XXXXXX6880       VS11    0001111   NYV1 A E303120858162316N840000000021985P6JT00    05DNHPPYC                    095017    VD84000000021985 N  599978201978                            000000000+                F DF 00381                     000000000  N000000000       0000000000000.00 0000000.00   0000000.00                             000000000000000                                                                                                                                                     01424 A000000000000 0000000000001.91     00800 01500                  
00005120036970019DT67590675900000026047800124800000010180012424001193121900011300180043020230000000362512123000000000162770414724XXXXXX6191       VS11    0001111   NYV1 A E303120860230072N840000000003625VRG600    05DNHPPYC                    34383D    VS84000000003625 N  599978201978                            000000000+                D CD 12113                     000000000  N000000000 499   0000000000000.00 0000000.00   0000000.00                             000000000000000                                                                                                                                                     01424 A000000000000 0000000000000.86     02100 01000                  
00005130036970020DT67590675900000026047800124800000010180012477287283121900011300190043020230000000643412123000000000162770542418XXXXXX8365       MS02WI09          NY 1 0 AMWEN3CPDB0430  N840000000006434          07DNHPPYC                    56448P    MC84000000006434 N  599978201978                            000000000+M10101M5434C    MWE  00739                     000000000  N                0000000000000.00 0000000.00   0000000.00                             000000000000000                                                                                                                                                   B101424  000000000000 0000000000001.58     02300 01000                  
00005140036970021DT67590675900000026047800124800000033080012476759003121900011300128043020230000000858012123000000000162770442797XXXXXX1443                         NY 2 0 N               N840000000008580      IL  05DNHPPYC                    877401    DB84000000008580 N  599978201978                            000000000+                     09584                                Y          273   0000000000000.00 0000000.00   0000000.00                             000000000000000                                                                                                                                                     01424  000000000000 0000000000000.26     00050 00000                  
00005150036970022BH6759067590000000708880010180000090170501202312123000000000079431    0000090001450021N8001016759C05012023                                                                                                                                                                                                                                                                                                                                                                                                                                                                                                                                                                                                 
00005160036970023DT67590675900000007088800101800000010180010124001193121900014500018043020230000000485812123000000000079431400022XXXXXX0816       VS11    0001111   NYV1 A E383120574692625N840000000004858BG4500    05DNPLANET VAPOR INC #200    178210    VD84000000004858 N  599977384620                            000000000+                F DF 10433                     000000000  Y000000000 338   0000000000000.00 0000000.00   0000000.00                             000000000000000                                                                                                                                                     01424 A000000000000 0000000000000.24     00050 02200                  
00005170036970024DT67590675900000007088800101800000010180010124001193121900014500026043020230000000377812123000000000079431400022XXXXXX7132       VS11    0001111   NYV1 A E303120583631503N840000000003778VB8N00    05DNPLANET VAPOR INC #200    343355    VD84000000003778 N  599977384620                            000000000+                F DF 10433                     000000000  Y000000000 338   0000000000000.00 0000000.00   0000000.00                             000000000000000                                                                                                                                                     01424 A000000000000 0000000000000.24     00050 02200                  
00005180036970025DT67590675900000007088800101800000010180010124001193121900014500034043020230000001079712123000000000079431453506XXXXXX6182       VS11    0001111   NYV1 A E583120591715827N840000000010797V2MG00    05DNPLANET VAPOR INC #200    H23462    VD84000000010797 N  599977384620                            000000000+                F DF 10433                     000000000  Y000000000 338   0000000000000.00 0000000.00   0000000.00                             000000000000000                                                                                                                                                     01424 A000000000000 0000000000000.27     00050 02200                  
00005190036970026DT67590675900000007088800101800000010180010124001193121900014500042043020230000000269912123000000000079431440393XXXXXX8179       VS11    0001111   NYV1 A E303120593526718N8400000000026993SPR00    05DNPLANET VAPOR INC #200    600983    VD84000000002699 N  599977384620                            000000000+                F PF 08170                     000000000  N000000000       0000000000000.00 0000000.00   0000000.00                             000000000000000                                                                                                                                                     01424 A000000000000 0000000000000.46     01150 01500                  
00005200036970027DT67590675900000007088800101800000010180010124001193121900014500059043020230000000215912123000000000079431475465XXXXXX7332       VS11    0001111   NYV1 A E383120600202409N840000000002159BLMQ00    05DNPLANET VAPOR INC #200    664398    VD84000000002159 N  599977384620                            000000000+                F PF 08170                     000000000  N000000000       0000000000000.00 0000000.00   0000000.00                             000000000000000                                                                                                                                                     01424 A000000000000 0000000000000.40     01150 01500                  
00005210036970028DT67590675900000007088800101800000010180010124001193121900014500067043020230000000194312123000000000079431459954XXXXXX9476       VS11    0001111   NYV1 A E303120603102965N840000000001943BTSS00    05DNPLANET VAPOR INC #200    H16526    VD84000000001943 N  599977384620                            000000000+                F DF 10433                     000000000  Y000000000 338   0000000000000.00 0000000.00   0000000.00                             000000000000000                                                                                                                                                     01424 A000000000000 0000000000000.23     00050 02200                  
00005220036970029DT67590675900000007088800101800000010180010124001193121900014500075043020230000000615412123000000000079431414776XXXXXX2815       VS11    0001111   NYV1 A E303120611746601N8400000000061546KZC00    05DNPLANET VAPOR INC #200    110395    VS84000000006154 N  599977384620                            000000000+                D CD 12113                     000000000  N000000000 499   0000000000000.00 0000000.00   0000000.00                             000000000000000                                                                                                                                                     01424 A000000000000 0000000000001.39     02100 01000                  
00005230036970030DT67590675900000007088800101800000010180010124001193121900014500083043020230000000218612123000000000079431453506XXXXXX1503       VS11    0001111   NYV1 A E383120626415775N840000000002186WRRW00    05DNPLANET VAPOR INC #200    H24630    VD84000000002186 N  599977384620                            000000000+                F DF 10433                     000000000  Y000000000 338   0000000000000.00 0000000.00   0000000.00                             000000000000000                                                                                                                                                     01424 A000000000000 0000000000000.23     00050 02200                  
00005240036970031DT67590675900000007088800101800000010180010124001193121900014500091043020230000000136012123000000000079431448251XXXXXX8614       VK04VS111111111   NYV1 A E383120631576948N840000000001360PCH800    05DNPLANET VAPOR INC #200    033237    VD84000000001360 N  599977384620                            000000000+                F DF 00451                     000000000  N000000000 214   0000000000000.00 0000000.00   0000000.00                             000000000000000                                                                                                                                                     01424 F000000000000 0000000000000.25     01550 00400                  
00005250036970032DT67590675900000007088800101800000010180010124001193121900014500109043020230000000539812123000000000079431444796XXXXXX1264       VS11    0001111   NYV1 A E463120642158790N840000000005398XDQH00    05DNPLANET VAPOR INC #200    030924    VS84000000005398 N  599977384620                            000000000+                A CA 12110                     000000000  N000000000 493   0000000000000.00 0000000.00   0000000.00                             000000000000000                                                                                                                                                     01424 A000000000000 0000000000000.92     01510 01000                  
00005260036970033DT67590675900000007088800101800000010180010124001193121900014500117043020230000000399412123000000000079431466189XXXXXX2442       VS11    0001111   NYV1 A E583120654658976N840000000003994BGRP00    07DNPLANET VAPOR INC #200    081102    VD84000000003994 N  599977384620                            000000000+                F DF 10433                     000000000  Y000000000 338   0000000000000.00 0000000.00   0000000.00                             000000000000000                                                                                                                                                     01424 A000000000000 0000000000000.24     00050 02200                  
00005270036970034DT67590675900000007088800101800000010180010124001193121900014500125043020230000000237512123000000000079431498503XXXXXX7649       VS11    0001111   NYV1 A E303120658790793N840000000002375GNC300    05DNPLANET VAPOR INC #200    009681    VD84000000002375 N  599977384620                            000000000+                F DF 00381                     000000000  N000000000       0000000000000.00 0000000.00   0000000.00                             000000000000000                                                                                                                                                     01424 A000000000000 0000000000000.34     00800 01500                  
00005280036970035DT67590675900000007088800101800000010180010124001193121900014500133043020230000000518212123000000000079431400022XXXXXX5987       VS11    0001111   NYV1 A E583120664875859N840000000005182KB4900    07DNPLANET VAPOR INC #200    481167    VD84000000005182 N  599977384620                            000000000+                F DF 10433                     000000000  Y000000000 338   0000000000000.00 0000000.00   0000000.00                             000000000000000                                                                                                                                                     01424 A000000000000 0000000000000.25     00050 02200                  
00005290036970036DT67590675900000007088800101800000010180010124001193121900014500141043020230000000437212123000000000079431400022XXXXXX3752       VS11    0001111   NYV1 A E383120677074181N840000000004372Q22G00    07DNPLANET VAPOR INC #200    048544    VD84000000004372 N  599977384620                            000000000+                F DF 10433                     000000000  Y000000000 338   0000000000000.00 0000000.00   0000000.00                             000000000000000                                                                                                                                                     01424 A000000000000 0000000000000.24     00050 02200                  
00005300036970037DT67590675900000007088800101800000010180010124001193121900014500158043020230000000280712123000000000079431473703XXXXXX5066       VS11    0001111   NYV1 A E303120678064782N840000000002807FVNX00    07DNPLANET VAPOR INC #200    037263    VD84000000002807 N  599977384620                            000000000+                F DF 10433                     000000000  Y000000000 338   0000000000000.00 0000000.00   0000000.00                             000000000000000                                                                                                                                                     01424 A000000000000 0000000000000.23     00050 02200                  
00005310036970038DT67590675900000007088800101800000010180010124001193121900014500166043020230000000356212123000000000079431401099XXXXXX2339       VS11    0001111   NYV1 A E463120689845445N840000000003562RNCZ00    05DNPLANET VAPOR INC #200    994679    VS84000000003562 N  599977384620                            000000000+                A CA 12110                     000000000  N000000000 493   0000000000000.00 0000000.00   0000000.00                             000000000000000                                                                                                                                                     01424 A000000000000 0000000000000.64     01510 01000                  
00005320036970039DT67590675900000007088800101800000010180010124001193121900014500174043020230000000161912123000000000079431429449XXXXXX0280       VS11    0001111   NYV1 A E583120697205708N8400000000016197LBD00    05DNPLANET VAPOR INC #200    756364    VD84000000001619 N  599977384620                            000000000+                F DF 00381                     000000000  N000000000       0000000000000.00 0000000.00   0000000.00                             000000000000000                                                                                                                                                     01424 A000000000000 0000000000000.28     00800 01500                  
00005330036970040DT67590675900000007088800101800000010180010124001193121900014500182043020230000000238312123000000000079431440393XXXXXX3723       VS11    0001111   NYV1 A E463120709504143N840000000002383DZKD00    05DNPLANET VAPOR INC #200    702853    VD84000000002383 N  599977384620                            000000000+                F PF 08170                     000000000  N000000000       0000000000000.00 0000000.00   0000000.00                             000000000000000                                                                                                                                                     01424 A000000000000 0000000000000.42     01150 01500                  
00005340036970041DT67590675900000007088800101800000010180010177287283121900014500192043020230000000134912123000000000079431514377XXXXXX7581       MS02WI09          NY 1 0 AMDJJBWADB0430  N840000000001349          07DNPLANET VAPOR INC #200    1BHWA8    MD84000000001349 N  599977384620                            000000000+M10101M0034C    MDJ  00402                     000000000  N                0000000000000.00 0000000.00   0000000.00                             000000000000000                                                                                                                                                   B101424  000000000000 0000000000000.29     01050 01500                  
00005350036970042DT67590675900000007088800101800000010180010173011003121900014500204043020230000000539912123000000000079431379365XXXXX9486                          NY 1 0 N004939044470305N840000000005399          05DNPLANET VAPOR INC #200    739030    AM84000000005399 N  599977384620                            000000000+51010155434C 258     11261                     000000000                   0000000000000.00 0000000.00   0000000.00                             000000000000000 61248972086759675900000007088 PLANET VAPOR INC #200    7457 PATTERSON RD STE 1098035462263      29209     KEVIN@MOOREDISTRO.COM                     01424  000000000000 0000000000000.96     01600 00000                  
00005360036970043DT67590675900000007088800101800000010180010124001193121900014500216043020230000000505712123000000000079431400022XXXXXX8876       VS11    0001111   NYV1 A E303120787742367N840000000005057S3NM00    07DNPLANET VAPOR INC #200    371981    VD84000000005057 N  599977384620                            000000000+                F DF 10433                     000000000  Y000000000 338   0000000000000.00 0000000.00   0000000.00                             000000000000000                                                                                                                                                     01424 A000000000000 0000000000000.25     00050 02200                  
00005370036970044BH6759067590000001857280010580000090170501202312123000000000017867    0000090001540004N8001056759C05012023                                                                                                                                                                                                                                                                                                                                                                                                                                                                                                                                                                                                 
00005380036970045DT67590675900000018572800105800000010180010524001193121900015400028043020230000000577612123000000000017867435546XXXXXX8430       VS11    0001111   NYV1 A E583120616533883N8400000000057763JTV00    05DNGALLERY SMOKE SHOP LLC   120123    VD84000000005776 N  599977453598                            000000000+                F DF 10433                     000000000  Y000000000 338   0000000000000.00 0000000.00   0000000.00                             000000000000000                                                                                                                                                     01424 A000000000000 0000000000000.25     00050 02200                  
00005390036970046DT67590675900000018572800105800000033080010576759003121900015400015043020230000000577512123000000000017867547519XXXXXX7067                         NY42 0 N               N840000000005775      PL  90DNGALLERY SMOKE SHOP LLC   069266    DB84000000005775 N  599977453598                            000000000+                     11020                                N          PU5   0000000000000.00 0000000.00   0000000.00                             000000000000000                                                                                                                                                     01424  000000000000 0000000000000.81     01150 00000                  
00005400036970047DT67590675900000018572800105800000033080010576759003121900015400031043020230000000227312123000000000017867420767XXXXXX5865                         NY 2 0 N               N840000000002273      IL  05DNGALLERY SMOKE SHOP LLC   021315    DB84000000002273 N  599977453598                            000000000+                     09580                                Y          342   0000000000000.00 0000000.00   0000000.00                             000000000000000                                                                                                                                                     01424  000000000000 0000000000000.23     00050 00000                  
00005410036970048DT67590675900000018572800105800000033080010576759003121900015400049043020230000000404312123000000000017867428190XXXXXX7368                         NY 2 0 N               N840000000004043      IL  90DNGALLERY SMOKE SHOP LLC   976311    DB84000000004043 N  599977453598                            000000000+                     09576                                N          346   0000000000000.00 0000000.00   0000000.00                             000000000000000                                                                                                                                                     01424  000000000000 0000000000000.61     01150 00000                  
00005420036970049BH6759067590000001165080088880000090170501202312123000000000045606    0000090001800013N8008886759C05012023                                                                                                                                                                                                                                                                                                                                                                                                                                                                                                                                                                                                 
00005430036970050DT67590675900000011650800888800000010180088824001193121900018000015042920230000000679512123000000000045606478200XXXXXX4194       VS11    0001111   NYV1 A E583120166543928N840000000006795XVTG00    05DNVPODS HOLDING INC        043700    VD84000000006795 N  599977032122                            000000000+                F DF 10433                     000000000  Y000000000 338   0000000000000.00 0000000.00   0000000.00                             000000000000000                                                                                                                                                     01424 A000000000000 0000000000000.25     00050 02200                  
00005440036970051DT67590675900000011650800888800000010180088877287283121900018000025043020230000000149912123000000000045606514752XXXXXX0114       MS02WI09          NY 1 0 AMDJA2P35K0430  N840000000001499          07DNVPODS HOLDING INC        336146    MD84000000001499 N  599977032122                            000000000+M10101M0034C    MDJ  10815                     000000000  1                0000000000000.00 0000000.00   0000000.00                             000000000000000                                                                                                                                                   B101424  000000000000 0000000000000.23     00050 02200                  
00005450036970052DT67590675900000011650800888800000010180088824001193121900018000031043020230000000453012123000000000045606414720XXXXXX5263       VS11    0001111   NYV1 A E383120610261497N840000000004530449900    07DNVPODS HOLDING INC        01190D    VS84000000004530 N  599977032122                            000000000+                D CD 12113                     000000000  N000000000 499   0000000000000.00 0000000.00   0000000.00                             000000000000000                                                                                                                                                     01424 A000000000000 0000000000001.05     02100 01000                  
00005460036970053DT67590675900000011650800888800000010180088824001193121900018000049043020230000000305712123000000000045606478200XXXXXX8631       VS11    0001111   NYV1 A E383120614440493N840000000003057BXKV00    07DNVPODS HOLDING INC        050413    VD84000000003057 N  599977032122                            000000000+                F DF 10433                     000000000  Y000000000 338   0000000000000.00 0000000.00   0000000.00                             000000000000000                                                                                                                                                     01424 A000000000000 0000000000000.24     00050 02200                  
00005470036970054DT67590675900000011650800888800000010180088824001193121900018000056043020230000000905812123000000000045606489750XXXXXX4401       VS11    0001111   NYV1 A E303120645589627N840000000009058FD2D00    07DNVPODS HOLDING INC        085513    VD84000000009058 N  599977032122                            000000000+                F DF 10433                     000000000  Y000000000 338   0000000000000.00 0000000.00   0000000.00                             000000000000000                                                                                                                                                     01424 A000000000000 0000000000000.27     00050 02200                  
00005480036970055DT67590675900000011650800888800000010180088824001193121900018000064043020230000000305712123000000000045606424018XXXXXX1452       VS11    0001111   NYV1 A E383120662614773N840000000003057ZHB700    05DNVPODS HOLDING INC        042421    VD84000000003057 N  599977032122                            000000000+                F DF 10433                     000000000  Y000000000 338   0000000000000.00 0000000.00   0000000.00                             000000000000000                                                                                                                                                     01424 A000000000000 0000000000000.24     00050 02200                  
00005490036970056DT67590675900000011650800888800000010180088824001193121900018000072043020230000000067612123000000000045606473702XXXXXX8724       VK04VS111111111   NYV1 A E383120704985656N8400000000006766JZC00    07DNVPODS HOLDING INC        038620    VD84000000000676 N  599977032122                            000000000+                F DF 10439                     000000000  Y000000000 331   0000000000000.00 0000000.00   0000000.00                             000000000000000                                                                                                                                                     01424 F000000000000 0000000000000.22     00050 02200                  
00005500036970057DT67590675900000011650800888800000010180088824001193121900018000080043020230000000278112123000000000045606478858XXXXXX3667       VS11    0001111   NYV1 A E463120752025881N8400000000027813F3P00    07DNVPODS HOLDING INC        09674C    VS84000000002781 N  599977032122                            000000000+                C CC 12112                     000000000  N000000000 497   0000000000000.00 0000000.00   0000000.00                             000000000000000                                                                                                                                                     01424 A000000000000 0000000000000.56     01650 01000                  
00005510036970058DT67590675900000011650800888800000010180088873011003121900018000094043020230000000101712123000000000045606372241XXXXX1007                          NY 1 0 N004758134873321N840000000001017          05DNVPODS HOLDINGS INC       835561    AM84000000001017 N  599977032122                            000000000+51010155434C 258     11261                     000000000                   0000000000000.00 0000000.00   0000000.00                             000000000000000 61248972086759675900000011650 VPODS HOLDINGS INC       2527 N LINCOLN AVE       7732092463      60614     SMOKEDREAMS2@ICLOUD.COM                   01424  000000000000 0000000000000.26     01600 00000                  
00005520036970059DT67590675900000011650800888800000010180088824001193121900018000106043020230000000305712123000000000045606434256XXXXXX7009       VS11    0001111   NYV1 A E583120789289323N840000000003057XMVH00    07DNVPODS HOLDING INC        019982    VD84000000003057 N  599977032122                            000000000+                F DF 10433                     000000000  Y000000000 338   0000000000000.00 0000000.00   0000000.00                             000000000000000                                                                                                                                                     01424 A000000000000 0000000000000.24     00050 02200                  
00005530036970060DT67590675900000011650800888800000010180088824001193121900018000114043020230000000242912123000000000045606476892XXXXXX5997       VS11    0001111   NYV1 A E383120793763573N840000000002429D3H700    07DNVPODS HOLDING INC        060218    VD84000000002429 N  599977032122                            000000000+                F DF 10433                     000000000  Y000000000 338   0000000000000.00 0000000.00   0000000.00                             000000000000000                                                                                                                                                     01424 A000000000000 0000000000000.23     00050 02200                  
00005540036970061DT67590675900000011650800888800000010180088824001193121900018000122043020230000000250012123000000000045606476892XXXXXX5997       VS11    0001111   NYV1 A E383120795152845N8400000000025005WKZ00    07DNVPODS HOLDING INC        050518    VD84000000002500 N  599977032122                            000000000+                F DF 10433                     000000000  Y000000000 338   0000000000000.00 0000000.00   0000000.00                             000000000000000                                                                                                                                                     01424 A000000000000 0000000000000.23     00050 02200                  
00005550036970062DT67590675900000011650800888800000010180088877287283121900018000132043020230000000515012123000000000045606522914XXXXXX3384       MS02WI09          NY 2 0 AMDJYSPLDA0430  N840000000005150          07DNVPODS HOLDING INC        074440    MD84000000005150 N  599977032122                            000000000+M10101M1334C    MDJ  10815                     000000000  1                0000000000000.00 0000000.00   0000000.00                             000000000000000                                                                                                                                                   B101424  000000000000 0000000000000.25     00050 02200                  
