00004040226880002BH6759067590000000370780088880000090170508202312823000000000079392    0000090001020742Y8008886759C05092023                                                                                                                                                                                                                                                                                                                                                                                                                                                                                                                                                                                                 
00004050226880003DT67590675900000003707800888800000010180088887287283128900010207356050820230000002099612823000000000079392527854XXXXXX3114       ME03KE06MS02      NY 4607AMWETZK7U20508  N840000000020996          81DNMR HEMP FLOWER           90807Z    MC84000000020996 N  549976053336   89446                    000000000+600450S00130    MWE  00737                     000000000  N                0000000000000.00 0000000.00   0000000.00                             000000000000000                                                                                                                                                   U001424  000000000000 0000000000005.56     02600 01000                  
00004060226880004DT67590675900000003707800888800000010180088887287283128900010207364050820230000001360012823000000000079392552433XXXXXX2432       ME03KE06PT01      NY 4607AMCWLP4YTP0508  N840000000013600          81DNMR HEMP FLOWER           08229Z    MC84000000013600 N  549976053336   89447                    000000000+600450S00130    MCW  00642                     000000000  N                0000000000000.00 0000000.00   0000000.00                             000000000000000                                                                                                                                                   U001424  000000000000 0000000000003.09     02200 01000                  
00004070226880005DT67590675900000003707800888800000010180088887287283128900010207372050820230000000799912823000000000079392542000XXXXXX7507       ME03KE06MS02      NY 4607AMDJU6I0U20508  N840000000007999          81DNMR HEMP FLOWER           095241    MD84000000007999 N  549976053336   89448                    000000000+600450S00130    MDJ  00401                     000000000  N                0000000000000.00 0000000.00   0000000.00                             000000000000000                                                                                                                                                   U001424  000000000000 0000000000001.47     01650 01500                  
00004080226880006DT67590675900000003707800888800000010180088824001193128900010207389050820230000000199812823000000000079392442756XXXXXX8660               2111111   NYV4 A7W583128567552012N840000000001998G4ZZ00    01DNMR HEMP FLOWER           054511    VD84000000001998 NP1549976053336   89449                    000000000+                F DF 10420                     000000000  Y000000000 338   0000000000000.00 0000000.00   0000000.00                             000000000000000                                                                                                                                                     01424 G000000001998 0000000000000.23     00050 02200                  
00004090226880001P16759067590000000370780088880000001010000000000000000                             2000000000000000000000000              000000000000                    0000000000000000000000000                    000000000000                                                                                                                                                                                                                                                                                                                                                                                                                                                                                        
00004100226880007DT67590675900000003707800888800000010680088874001193128900010207392050820230000000060012823000000000079392445100XXXXXX7316               0000000   NYV4 07T383128683785115N840000000000600F4LM00    01CNMR HEMP FLOWER           008751    VD84000000000600 NP1549976053336   89410                    000000000+                F DF 08168                     000000000  Y000000000 369   0000000000000.00 0000000.00   0000000.00                             000000000000000                                                                                                                                                     01424  000000000600 0000000000000.00     00000 00000                  
00004110226880001P16759067590000000370780088880000001060000000000000000                             2000000000000000000000000              000000000000                    0000000000000000000000000                    000000000000                                                                                                                                                                                                                                                                                                                                                                                                                                                                                        
00004120226880008DT67590675900000003707800888800000010180088824001193128900010207405050820230000001300012823000000000079392413331XXXXXX8236               2111111   NYV4 A7W583128691059392N840000000013000339Z00    01DNMR HEMP FLOWER           889323    VD84000000013000 NP1549976053336   89457                    000000000+                F DF 00415                     000000000  N000000000       0000000000000.00 0000000.00   0000000.00                             000000000000000                                                                                                                                                     01424 G000000013000 0000000000002.30     01650 01500                  
00004130226880001P16759067590000000370780088880000001010000000000000000                             2000000000000000000000000              000000000000                    0000000000000000000000000                    000000000000                                                                                                                                                                                                                                                                                                                                                                                                                                                                                        
00004140226880009DT67590675900000003707800888800000010180088824001193128900010207413050820230000001850012823000000000079392480990XXXXXX1225               2111111   NYV4 A7W463128805626811N840000000018500B5TF00    01DNMR HEMP FLOWER           003609    VD84000000018500 NP1549976053336   89460                    000000000+                F DF 10420                     000000000  Y000000000 338   0000000000000.00 0000000.00   0000000.00                             000000000000000                                                                                                                                                     01424 G000000018500 0000000000000.31     00050 02200                  
00004150226880001P16759067590000000370780088880000001010000000000000000                             2000000000000000000000000              000000000000                    0000000000000000000000000                    000000000000                                                                                                                                                                                                                                                                                                                                                                                                                                                                                        
00004160226880010DT67590675900000003707800888800000010180088876509753128900010207429050820230000000389912823000000000079392601100XXXXXX7280   BA00                  NY 4 07N873110392385162N840000000003899    00    01DNMR HEMP FLOWER           00806R    DS84000000003899 N  549976053336070                         000000000+1015104910600   DCCDI11325166036  172718000000 000000000  0          460   0000000000000.00 0000000.00   0000000.00                             000000000000000                                                                                                                                                     01424  000000000000 0000000000000.89     02030 01000                  
00004170226880011BH6759067590000001427480010280000090170508202312823000000000416790    0000090001820566Y8001026759C05092023                                                                                                                                                                                                                                                                                                                                                                                                                                                                                                                                                                                                 
00004180226880012DT67590675900000014274800102800000010180010287287283128900018200619050720230000001799112823000000000416790537811XXXXXX1955       ME03KE06MS02      NY 4607AMWE1X2TGQ0504  N840000000017991          81DNCBD8666317293            02105Z    MC84000000017991 N  549977145232   E90D87A37CT79017A36D65A  000000000+600450S00130    MWE  00737                     000000000  N                0000000000000.00 0000000.00   0000000.00                             000000000000000                                                                                                                                                   U001424  000000000000 0000000000004.78     02600 01000                  
00004190226880013DT67590675900000014274800102800000010180010224001193128900018200725050720230000001499112823000000000416790441843XXXXXX4321               2111111   NYV4 A7W383124327061722N8400000000149919WCH00    01DNCBD8666317293            084550    VD84000000014991 NP1549977145232   7A00223E3FT9B1FC87D18B3  000000000+                F DF 00415                     000000000  N000000000       0000000000000.00 0000000.00   0000000.00                             000000000000000                                                                                                                                                     01424 G000000014991 0000000000002.62     01650 01500                  
00004200226880001P16759067590000001427480010280000001010000000000000000                             2000000000000000000000000              000000000000                    0000000000000000000000000                    000000000000                                                                                                                                                                                                                                                                                                                                                                                                                                                                                        
00004210226880014DT67590675900000014274800102800000010180010224001193128900018201566050720230000001987012823000000000416790484738XXXXXX2286               2111111   NYV4 A7W583124777053437N8400000000198703PWB00    01DNCBD8666317293            05183G    VB84000000019870 NP1549977145232   D0FF8B0FD1TAF92C9EF10FC  000000000+                G3CG308002                     000000000  N000000000 381   0000000000000.00 0000000.00   0000000.00                             000000000000000                                                                                                                                                     01424 G000000019870 0000000000005.66     02800 01000                  
00004220226880001P16759067590000001427480010280000001010000000000000000                             2000000000000000000000000              000000000000                    0000000000000000000000000                    000000000000                                                                                                                                                                                                                                                                                                                                                                                                                                                                                        
00004230226880015DT67590675900000014274800102800000010180010224001193128900018201673050720230000002604212823000000000416790463895XXXXXX9652               2111111   NYV4 A7W583124849054470N840000000026042B8VG00    01DNCBD8666317293            814350    VD84000000026042 NP1549977145232   801EC38395TA017A9E84BBB  000000000+                F DF 00415                     000000000  N000000000       0000000000000.00 0000000.00   0000000.00                             000000000000000                                                                                                                                                     01424 G000000026042 0000000000004.45     01650 01500                  
00004240226880001P16759067590000001427480010280000001010000000000000000                             2000000000000000000000000              000000000000                    0000000000000000000000000                    000000000000                                                                                                                                                                                                                                                                                                                                                                                                                                                                                        
00004250226880016DT67590675900000014274800102800000010180010224001193128900018201699050720230000000700412823000000000416790455530XXXXXX5879               2111111   NYV4 A7W463125024054195N840000000007004FL8600    01DNCBD8666317293            194006    VS84000000007004 NP1549977145232   808796CE94T0B9F31FD4D65  000000000+                C CC 12108                     000000000  N000000000 496   0000000000000.00 0000000.00   0000000.00                             000000000000000                                                                                                                                                     01424 G000000007004 0000000000001.54     02050 01000                  
00004260226880001P16759067590000001427480010280000001010000000000000000                             2000000000000000000000000              000000000000                    0000000000000000000000000                    000000000000                                                                                                                                                                                                                                                                                                                                                                                                                                                                                        
00004270226880017DT67590675900000014274800102800000010180010287287283128900018201724050720230000001609712823000000000416790537668XXXXXX8778       ME03KE06MS02      NY 4607AMDJVOPHBY0504  N840000000016097          81DNCBD8666317293            700388    MD84000000016097 N  549977145232   4A56C102CBTF0F69F553436  000000000+600450S00130    MDJ  00401                     000000000  N                0000000000000.00 0000000.00   0000000.00                             000000000000000                                                                                                                                                   U001424  000000000000 0000000000002.81     01650 01500                  
00004280226880018DT67590675900000014274800102800000010180010287287283128900018201757050720230000001987012823000000000416790524306XXXXXX5222       ME03KE06MS02      NY 4607AMPLK2E35O0504  N840000000019870          81DNCBD8666317293            00440B    MC84000000019870 N  549977145232   087E156E85T33E63E9B5A26  000000000+600450S00130    MPL  00580                     000000000  N                0000000000000.00 0000000.00   0000000.00                             000000000000000                                                                                                                                                     01424  000000000000 0000000000004.27     02100 01000                  
00004290226880019DT67590675900000014274800102800000010680010287287283128900018204207050720230000002686012823000000000416790552851XXXXXX4266                         NY 4607AMPCH1G2OQ0507  N840000000026860          81CNCBD8666317293            003070    MB84000000026860 NP1549977145232                            000000000+600450S00130    MCB  00566                     000000000  N                0000000000000.00 0000000.00   0000000.00                             000000000000000                                                                                                                                                     01424  000000000000-0000000000006.37     02370 00000                  
00004300226880001P1675906759000000142748001028000000106                                                 000000000000000000000          8000   000000000871584967            000000000000                                                                                                                                                                                                                                                                                                                                                                                                                                                                                                                                    
00004310226880020DT67590675900000014274800102800000010180010224001193128900018204297050720230000002255012823000000000416790441105XXXXXX2087               2111111   NYV4 A7W463128156048596N8400000000225506SMM00    01DNCBD8666317293            042000    VD84000000022550 NP1549977145232   889B3DA263TD7CF1DDD5291  000000000+                F DF 10420                     000000000  Y000000000 338   0000000000000.00 0000000.00   0000000.00                             000000000000000                                                                                                                                                     01424 G000000022550 0000000000000.33     00050 02200                  
00004320226880001P16759067590000001427480010280000001010000000000000000                             2000000000000000000000000              000000000000                    0000000000000000000000000                    000000000000                                                                                                                                                                                                                                                                                                                                                                                                                                                                                        
00004330226880021DT67590675900000014274800102800000010180010224001193128900018204305050820230000000159412823000000000416790473702XXXXXX8834               2111111   NYV4 A7W583128257376753N840000000001594THDP00    01DNCBD8666317293            035857    VD84000000001594 NP1549977145232   E61D6B121AT8EE18BC3A249  000000000+                F DF 10420                     000000000  Y000000000 338   0000000000000.00 0000000.00   0000000.00                             000000000000000                                                                                                                                                     01424 G000000001594 0000000000000.23     00050 02200                  
00004340226880001P16759067590000001427480010280000001010000000000000000                             2000000000000000000000000              000000000000                    0000000000000000000000000                    000000000000                                                                                                                                                                                                                                                                                                                                                                                                                                                                                        
00004350226880022DT67590675900000014274800102800000010180010224001193128900018204412050820230000001062312823000000000416790426752XXXXXX9344               2111111   NYV4 A7W303128379098674N840000000010623JBHV00    01DNCBD8666317293            553556    VD84000000010623 NP1549977145232   E5326A192FTB430D3DA78C0  000000000+                F PF 08175                     000000000  N000000000       0000000000000.00 0000000.00   0000000.00                             000000000000000                                                                                                                                                     01424 G000000010623 0000000000002.06     01750 02000                  
00004360226880001P16759067590000001427480010280000001010000000000000000                             2000000000000000000000000              000000000000                    0000000000000000000000000                    000000000000                                                                                                                                                                                                                                                                                                                                                                                                                                                                                        
00004370226880023DT67590675900000014274800102800000010180010224001193128900018204420050820230000000341112823000000000416790401106XXXXXX8185               2111111   NYV4 A7W303128381447951N840000000003411NZKW00    01DNCBD8666317293            185329    VD84000000003411 NP1549977145232   8082B05E01T50CA400D4694  000000000+                F DF 00415                     000000000  N000000000       0000000000000.00 0000000.00   0000000.00                             000000000000000                                                                                                                                                     01424 G000000003411 0000000000000.71     01650 01500                  
00004380226880001P16759067590000001427480010280000001010000000000000000                             2000000000000000000000000              000000000000                    0000000000000000000000000                    000000000000                                                                                                                                                                                                                                                                                                                                                                                                                                                                                        
00004390226880024DT67590675900000014274800102800000010680010274001193128900018204458050820230000000950112823000000000416790476970XXXXXX9418               0000000   NYV4 07T583128476064912N840000000009501BCCD00    01CNCBD8666317293            000020    VD84000000009501 NP1549977145232   CBF268D1BFT5EBEB42F0CE6  000000000+                F PF 08168                     000000000  N000000000 369   0000000000000.00 0000000.00   0000000.00                             000000000000000                                                                                                                                                     01424  000000009501 0000000000000.00     00000 00000                  
00004400226880001P16759067590000001427480010280000001060000000000000000                             2000000000000000000000000              000000000000                    0000000000000000000000000                    000000000000                                                                                                                                                                                                                                                                                                                                                                                                                                                                                        
00004410226880025DT67590675900000014274800102800000010680010274001193128900018204482050820230000001604012823000000000416790414709XXXXXX9058               0000000   NYV4 07T583128494166709N8400000000160403FLX85    01CNCBD8666317293            088067    VS84000000016040 NP1549977145232   9E55DEC9CETE015D9C61B95  000000000+                D CD 00245                     000000000  N000000000 166   0000000000000.00 0000000.00   0000000.00                             000000000000000                                                                                                                                                     01424  000000016040-0000000000002.82     01760 00000                  
00004420226880001P16759067590000001427480010280000001060000000000000000                             2000000000000000000000000              000000000000                    0000000000000000000000000                    000000000000                                                                                                                                                                                                                                                                                                                                                                                                                                                                                        
00004430226880026DT67590675900000014274800102800000010680010287287283128900018204496050820230000000671112823000000000416790529149XXXXXX6278                         NY 4607AMPLN7F6U20508  N840000000006711          81CNCBD8666317293            081340    MC84000000006711 N  549977145232   FC672F40A5T44CE2F8A8EE4  000000000+600450S00130    MPL  00565                     000000000  N                0000000000000.00 0000000.00   0000000.00                             000000000000000                                                                                                                                                     01424  000000000000-0000000000001.17     01750 00000                  
00004440226880027DT67590675900000014274800102800000010180010287287283128900018204504050820230000002980412823000000000416790512992XXXXXX0654       ME03KE06MS02      NY 4607AMDJL8V1M50508  N840000000029804          81DNCBD8666317293            729603    MD84000000029804 N  549977145232   4620BD5E95TE8705E4708DA  000000000+600450S00130    MDJ  10813                     000000000  1                0000000000000.00 0000000.00   0000000.00                             000000000000000                                                                                                                                                   U001424  000000000000 0000000000000.37     00050 02200                  
00004450226880028DT67590675900000014274800102800000010180010224001193128900018204560050820230000002126112823000000000416790426684XXXXXX6435               2111111   NYV4 A7W303128571485859N840000000021261B8DR00    01DNCBD8666317293            06858A    VS84000000021261 NP1549977145232   501573681CT55FE0FD15EB7  000000000+                A CA 12106                     000000000  N000000000 492   0000000000000.00 0000000.00   0000000.00                             000000000000000                                                                                                                                                     01424 G000000021261 0000000000004.12     01890 01000                  
00004460226880001P16759067590000001427480010280000001010000000000000000                             2000000000000000000000000              000000000000                    0000000000000000000000000                    000000000000                                                                                                                                                                                                                                                                                                                                                                                                                                                                                        
00004470226880029DT67590675900000014274800102800000010180010287287283128900018204637050820230000002487012823000000000416790511236XXXXXX4526       ME03KE06MS02      NY 4607AMDJWXGVU20508  N840000000024870          81DNCBD8666317293            013520    MD84000000024870 N  549977145232   C228898570TDDBFE1F0DEB0  000000000+600450S00130    MDJ  00401                     000000000  N                0000000000000.00 0000000.00   0000000.00                             000000000000000                                                                                                                                                   U001424  000000000000 0000000000004.25     01650 01500                  
00004480226880030DT67590675900000014274800102800000010680010274001193128900018204672050820230000001987012823000000000416790448233XXXXXX6303               0000000   NYV4 07T583128624292942N840000000019870FJ7200    01CNCBD8666317293            022029    VD84000000019870 NP1549977145232   30F194E6FBT538DE4AD3224  000000000+                F DF 08168                     000000000  Y000000000 369   0000000000000.00 0000000.00   0000000.00                             000000000000000                                                                                                                                                     01424  000000019870 0000000000000.00     00000 00000                  
00004490226880001P16759067590000001427480010280000001060000000000000000                             2000000000000000000000000              000000000000                    0000000000000000000000000                    000000000000                                                                                                                                                                                                                                                                                                                                                                                                                                                                                        
00004500226880031DT67590675900000014274800102800000010680010274001193128900018204680050820230000000499912823000000000416790400022XXXXXX8973               0000000   NYV4 07T463128627641603N84000000000499993TX00    01CNCBD8666317293            126228    VD84000000004999 NP1549977145232   668AC2FBCFTAAB027842410  000000000+                F DF 08168                     000000000  Y000000000 369   0000000000000.00 0000000.00   0000000.00                             000000000000000                                                                                                                                                     01424  000000004999 0000000000000.00     00000 00000                  
00004510226880001P16759067590000001427480010280000001060000000000000000                             2000000000000000000000000              000000000000                    0000000000000000000000000                    000000000000                                                                                                                                                                                                                                                                                                                                                                                                                                                                                        
00004520226880032DT67590675900000014274800102800000010680010287287283128900018204702050820230000000500012823000000000416790511236XXXXXX4526                         NY 4607AMDJFC066E0508  N840000000005000          81CNCBD8666317293            008918    MD84000000005000 N  549977145232   C228898570TDDBFE1F0DEB0  000000000+600450S00130    MDJ  00560                     000000000  N                0000000000000.00 0000000.00   0000000.00                             000000000000000                                                                                                                                                     01424  000000000000 0000000000000.00     00000 00000                  
00004530226880033DT67590675900000014274800102800000010180010224001193128900018204818050820230000001723512823000000000416790480694XXXXXX6173               2111111   NYV4 A7W303128643803936N840000000017235G6Q800    01DNCBD8666317293            025300    VD84000000017235 NP1549977145232   80D1E610F1T3433D6EB5486  000000000+                F DF 00415                     000000000  N000000000       0000000000000.00 0000000.00   0000000.00                             000000000000000                                                                                                                                                     01424 G000000017235 0000000000002.99     01650 01500                  
00004540226880001P16759067590000001427480010280000001010000000000000000                             2000000000000000000000000              000000000000                    0000000000000000000000000                    000000000000                                                                                                                                                                                                                                                                                                                                                                                                                                                                                        
00004550226880034DT67590675900000014274800102800000010180010287287283128900018204843050820230000002106212823000000000416790533318XXXXXX6543       ME03KE06MS02      NY 4607AMDJODDH6E0508  N840000000021062          81DNCBD8666317293            000012    MD84000000021062 N  549977145232   E553E7E5FET4B2C4F9F3545  000000000+600450S00130    MDJ  00401                     000000000  N                0000000000000.00 0000000.00   0000000.00                             000000000000000                                                                                                                                                   U001424  000000000000 0000000000003.63     01650 01500                  
00004560226880035DT67590675900000014274800102800000010180010224001193128900018204917050820230000001987012823000000000416790402464XXXXXX9230               2111111   NYV4 A7W383128663034756N84000000001987079KL00    01DNCBD8666317293            001025    VD84000000019870 NP1549977145232   3D9D5B376BT8C344F95F506  000000000+                F DF 10420                     000000000  Y000000000 338   0000000000000.00 0000000.00   0000000.00                             000000000000000                                                                                                                                                     01424 G000000019870 0000000000000.32     00050 02200                  
00004570226880001P16759067590000001427480010280000001010000000000000000                             2000000000000000000000000              000000000000                    0000000000000000000000000                    000000000000                                                                                                                                                                                                                                                                                                                                                                                                                                                                                        
00004580226880036DT67590675900000014274800102800000010180010224001193128900018204933050820230000000159612823000000000416790473703XXXXXX2329               2111111   NYV4 A7W463128664216770N840000000001596CZZB00    01DNCBD8666317293            098366    VD84000000001596 NP1549977145232   F4FC79D544T41BA675ED164  000000000+                F DF 10420                     000000000  Y000000000 338   0000000000000.00 0000000.00   0000000.00                             000000000000000                                                                                                                                                     01424 G000000001596 0000000000000.23     00050 02200                  
00004590226880001P16759067590000001427480010280000001010000000000000000                             2000000000000000000000000              000000000000                    0000000000000000000000000                    000000000000                                                                                                                                                                                                                                                                                                                                                                                                                                                                                        
00004600226880037DT67590675900000014274800102800000010180010287287283128900018204975050820230000000658512823000000000416790516488XXXXXX3712       ME03KE06MS02      NY 4607AMPFHHCB6E0508  N840000000006585          81DNCBD8666317293            141799    MD84000000006585 N  549977145232   70C4457FFFT37780A956326  000000000+600450S00130    MPF  09899                     000000000  N                0000000000000.00 0000000.00   0000000.00                             000000000000000                                                                                                                                                   U001424  000000000000 0000000000001.36     01760 02000                  
00004610226880038DT67590675900000014274800102800000010680010287287283128900018205055050820230000002947912823000000000416790517805XXXXXX8959                         NY 4607AMPLQI0T6E0508  N840000000029479          81CNCBD8666317293            073130    MC84000000029479 N  549977145232   BA2E600C0CTCFD6A91951A2  000000000+600450S00130    MPL  00565                     000000000  N                0000000000000.00 0000000.00   0000000.00                             000000000000000                                                                                                                                                     01424  000000000000-0000000000005.16     01750 00000                  
00004620226880039DT67590675900000014274800102800000010680010287287283128900018205162050820230000001200812823000000000416790517805XXXXXX9394                         NY 4607AMPLIJ7VXQ0508  N840000000012008          81CNCBD8666317293            007238    MC84000000012008 N  549977145232   3254DEC709T8575CEE5D1DC  000000000+600450S00130    MPL  00565                     000000000  N                0000000000000.00 0000000.00   0000000.00                             000000000000000                                                                                                                                                     01424  000000000000-0000000000002.10     01750 00000                  
00004630226880040DT67590675900000014274800102800000010180010224001193128900018205187050820230000001498912823000000000416790410039XXXXXX7753               2111111   NYV4 A7W463128721763730N840000000014989KGZB00    01DNCBD8666317293            71262D    VS84000000014989 NP1549977145232   59B0B662B8TC59C155B301B  000000000+                D CD 12109                     000000000  N000000000 498   0000000000000.00 0000000.00   0000000.00                             000000000000000                                                                                                                                                     01424 G000000014989 0000000000003.85     02500 01000                  
00004640226880001P16759067590000001427480010280000001010000000000000000                             2000000000000000000000000              000000000000                    0000000000000000000000000                    000000000000                                                                                                                                                                                                                                                                                                                                                                                                                                                                                        
00004650226880041DT67590675900000014274800102800000010180010224001193128900018205211050820230000002142012823000000000416790486796XXXXXX7464               2111111   NYV4 A7W583128723078026N8400000000214202QPR00    01DNCBD8666317293            070516    VD84000000021420 NP1549977145232   866AC84146T0489EE4CF08F  000000000+                F DF 10420                     000000000  Y000000000 338   0000000000000.00 0000000.00   0000000.00                             000000000000000                                                                                                                                                     01424 G000000021420 0000000000000.33     00050 02200                  
00004660226880001P16759067590000001427480010280000001010000000000000000                             2000000000000000000000000              000000000000                    0000000000000000000000000                    000000000000                                                                                                                                                                                                                                                                                                                                                                                                                                                                                        
00004670226880042DT67590675900000014274800102800000010180010224001193128900018205229050820230000002121112823000000000416790408682XXXXXX9529               2111111   NYV4 A7W383128726042990N840000000021211SLX700    01DNCBD8666317293            418880    VS84000000021211 NP1549977145232   07CE2D9F73T6D26C36D2D71  000000000+                B CB 12107                     000000000  N000000000 494   0000000000000.00 0000000.00   0000000.00                             000000000000000                                                                                                                                                     01424 G000000021211 0000000000004.43     02040 01000                  
00004680226880001P16759067590000001427480010280000001010000000000000000                             2000000000000000000000000              000000000000                    0000000000000000000000000                    000000000000                                                                                                                                                                                                                                                                                                                                                                                                                                                                                        
00004690226880043DT67590675900000014274800102800000010180010224001193128900018205237050820230000002487012823000000000416790424631XXXXXX5557               2111111   NYV4 A7W583128729043343N840000000024870NPKL00    01DNCBD8666317293            05141G    VB84000000024870 NP1549977145232   E0B7C6C5A7TA88871B1570E  000000000+                G3CG308002                     000000000  N000000000 381   0000000000000.00 0000000.00   0000000.00                             000000000000000                                                                                                                                                     01424 G000000024870 0000000000007.06     02800 01000                  
00004700226880001P16759067590000001427480010280000001010000000000000000                             2000000000000000000000000              000000000000                    0000000000000000000000000                    000000000000                                                                                                                                                                                                                                                                                                                                                                                                                                                                                        
00004710226880044DT67590675900000014274800102800000010180010224001193128900018205252050820230000001987012823000000000416790442742XXXXXX0037               2111111   NYV4 A7W583128732043308N840000000019870XG6J00    01DNCBD8666317293            042016    VD84000000019870 NP1549977145232   BA21087272TE7D9E11C65E4  000000000+                G DG 10352                     000000000  Y000000000 338   0000000000000.00 0000000.00   0000000.00                             000000000000000                                                                                                                                                     01424 G000000019870 0000000000000.32     00050 02200                  
00004720226880001P16759067590000001427480010280000001010000000000000000                             2000000000000000000000000              000000000000                    0000000000000000000000000                    000000000000                                                                                                                                                                                                                                                                                                                                                                                                                                                                                        
00004730226880045DT67590675900000014274800102800000010180010224001193128900018205294050820230000001987012823000000000416790486236XXXXXX4283               2111111   NYV4 A7W463128741047681N8400000000198703FJ700    01DNCBD8666317293            05149A    VS84000000019870 NP1549977145232   107C841F92TC48A121219C3  000000000+                A CA 12106                     000000000  N000000000 492   0000000000000.00 0000000.00   0000000.00                             000000000000000                                                                                                                                                     01424 G000000019870 0000000000003.86     01890 01000                  
00004740226880001P16759067590000001427480010280000001010000000000000000                             2000000000000000000000000              000000000000                    0000000000000000000000000                    000000000000                                                                                                                                                                                                                                                                                                                                                                                                                                                                                        
00004750226880046DT67590675900000014274800102800000010180010224001193128900018205369050820230000001400812823000000000416790410039XXXXXX6412               2111111   NYV4 A7W583128763912735N840000000014008XPJ400    01DNCBD8666317293            75802C    VS84000000014008 NP1549977145232   35D3DEB39BT02E1063C6FDB  000000000+                C CC 12108                     000000000  N000000000 496   0000000000000.00 0000000.00   0000000.00                             000000000000000                                                                                                                                                     01424 G000000014008 0000000000002.97     02050 01000                  
00004760226880001P16759067590000001427480010280000001010000000000000000                             2000000000000000000000000              000000000000                    0000000000000000000000000                    000000000000                                                                                                                                                                                                                                                                                                                                                                                                                                                                                        
00004770226880047DT67590675900000014274800102800000010180010287287283128900018205527050820230000001499112823000000000416790551220XXXXXX1707       ME03KE06MS02      NY 4607AMDJRPKSZ50508  N840000000014991          81DNCBD8666317293            186282    MD84000000014991 N  549977145232   2052D5EE7ETDD8006F20CB9  000000000+600450S00130    MDJ  00401                     000000000  N                0000000000000.00 0000000.00   0000000.00                             000000000000000                                                                                                                                                   U001424  000000000000 0000000000002.62     01650 01500                  
00004780226880048DT67590675900000014274800102800000010180010287287283128900018205592050820230000001580812823000000000416790517805XXXXXX0194       ME03KE06MS02      NY 4607AMWECGK2Z80508  N840000000015808          81DNCBD8666317293            05158P    MC84000000015808 N  549977145232   DC7F2543CBT6D53CC9FAF7C  000000000+600450S00130    MWE  00737                     000000000  N                0000000000000.00 0000000.00   0000000.00                             000000000000000                                                                                                                                                   U001424  000000000000 0000000000004.21     02600 01000                  
00004790226880049DT67590675900000014274800102800000010180010224001193128900018205625050820230000001604012823000000000416790443045XXXXXX4776               2111111   NYV4 A7W303128830369954N840000000016040MF3J00    01DNCBD8666317293            491836    VD84000000016040 NP1549977145232   574E09D5A7TD3E9DE52D79A  000000000+                F DF 10420                     000000000  Y000000000 338   0000000000000.00 0000000.00   0000000.00                             000000000000000                                                                                                                                                     01424 G000000016040 0000000000000.30     00050 02200                  
00004800226880001P16759067590000001427480010280000001010000000000000000                             2000000000000000000000000              000000000000                    0000000000000000000000000                    000000000000                                                                                                                                                                                                                                                                                                                                                                                                                                                                                        
00004810226880050DT67590675900000014274800102800000010180010287287283128900018205634050820230000002092312823000000000416790510805XXXXXX3563       ME03KE06MS02      NY 4607AMDJLCUP390508  N840000000020923          81DNCBD8666317293            081505    MD84000000020923 N  549977145232   3BF5905858T781BDFDE3947  000000000+600450S00130    MDJ  10813                     000000000  1                0000000000000.00 0000000.00   0000000.00                             000000000000000                                                                                                                                                   U001424  000000000000 0000000000000.32     00050 02200                  
00004820226880051DT67590675900000014274800102800000010180010287287283128900018205642050820230000001987012823000000000416790517800XXXXXX7260       ME03KE06MS02      NY 4607AMCSTDOKZ50508  N840000000019870          81DNCBD8666317293            008036    MC84000000019870 N  549977145232   BA3A012144TFDB84BE1DD48  000000000+600450S00130    MCS  00013                     000000000  N                0000000000000.00 0000000.00   0000000.00                             000000000000000                                                                                                                                                   U001424  000000000000 0000000000003.97     01950 01000                  
00004830226880052DT67590675900000014274800102800000010180010224001193128900018205666050820230000002106212823000000000416790480312XXXXXX4087               2111111   NYV4 A7W463128846044288N840000000021062XTDB00    01DNCBD8666317293            183004    VD84000000021062 NP1549977145232   DF88A0C983T8A6210E1821F  000000000+                F DF 00415                     000000000  N000000000       0000000000000.00 0000000.00   0000000.00                             000000000000000                                                                                                                                                     01424 G000000021062 0000000000003.63     01650 01500                  
00004840226880001P16759067590000001427480010280000001010000000000000000                             2000000000000000000000000              000000000000                    0000000000000000000000000                    000000000000                                                                                                                                                                                                                                                                                                                                                                                                                                                                                        
00004850226880053BH6759067590000000288180088880000090170508202312823000000000015337    0000090001150227Y8008886759C05092023                                                                                                                                                                                                                                                                                                                                                                                                                                                                                                                                                                                                 
00004860226880054DT67590675900000002881800888800000010180088824001193128900011502267050820230000000733812823000000000015337435544XXXXXX3632               2111111   NYV4 A7W583128481296276N840000000007338LDBD00    01DNHAPPY HIPPIE             033059    VD84000000007338 NP1549976044904   2041                     000000000+                F DF 10420                     000000000  Y000000000 338   0000000000000.00 0000000.00   0000000.00                             000000000000000                                                                                                                                                     01424 G000000007338 0000000000000.26     00050 02200                  
00004870226880001P16759067590000000288180088880000001010000000000000000                             2000000000000000000000000              000000000000                    0000000000000000000000000                    000000000000                                                                                                                                                                                                                                                                                                                                                                                                                                                                                        
00004880226880055DT67590675900000002881800888800000010180088824001193128900011502275050820230000000799912823000000000015337414740XXXXXX4389               2111111   NYV4 A7W303128524138487N840000000007999N7GH00    01DNHAPPY HIPPIE             00001D    VS84000000007999 NP1549976044904   2042                     000000000+                D CD 12109                     000000000  N000000000 498   0000000000000.00 0000000.00   0000000.00                             000000000000000                                                                                                                                                     01424 G000000007999 0000000000002.10     02500 01000                  
00004890226880001P16759067590000000288180088880000001010000000000000000                             2000000000000000000000000              000000000000                    0000000000000000000000000                    000000000000                                                                                                                                                                                                                                                                                                                                                                                                                                                                                        
00004900226880056BH6759067590000001516480088880000090170508202312823000000000338296    0000090001727049Y8008886759C05092023                                                                                                                                                                                                                                                                                                                                                                                                                                                                                                                                                                                                 
00004910226880057DT67590675900000015164800888800000010180088824001193128900017266230050720230000001394812823000000000338296414709XXXXXX1492               2111111   NYV4 A7W583124192083501N840000000013948SCLD00    01DNKETOFUSION833-923-3587   00251D    VS84000000013948 NP1599977360677   2483037E8ET036A77627A41  000000000+                D CD 12109                     000000000  N000000000 498   0000000000000.00 0000000.00   0000000.00                             000000000000000                                                                                                                                                     01424 G000000013948 0000000000003.59     02500 01000                  
00004920226880001P16759067590000001516480088880000001010000000000000000                             2000000000000000000000000              000000000000                    0000000000000000000000000                    000000000000                                                                                                                                                                                                                                                                                                                                                                                                                                                                                        
00004930226880058DT67590675900000015164800888800000010180088887287283128900017266314050720230000002487012823000000000338296546162XXXXXX3401       ME03KE06MS02      NY 4607AMDJF366VD0504  N840000000024870          81DNKETOFUSION833-923-3587   305245    MD84000000024870 N  599977360677   D43D5C066AT4B6277201B15  000000000+600450S00130    MDJ  00401                     000000000  N                0000000000000.00 0000000.00   0000000.00                             000000000000000                                                                                                                                                   U001424  000000000000 0000000000004.25     01650 01500                  
00004940226880059DT67590675900000015164800888800000010180088887287283128900017266306050720230000002487012823000000000338296524400XXXXXX4714       ME03KE06PT01      NY 4607AMCWY335VC0504  N840000000024870          81DNKETOFUSION833-923-3587   70229Z    MC84000000024870 N  599977360677   EBBB2A531ET3FCE6C8F7A5C  000000000+600450S00130    MCW  00642                     000000000  N                0000000000000.00 0000000.00   0000000.00                             000000000000000                                                                                                                                                   U001424  000000000000 0000000000005.57     02200 01000                  
00004950226880060DT67590675900000015164800888800000010180088887287283128900017266330050720230000001799112823000000000338296517546XXXXXX4497       ME03KE06MS02      NY 4607AMDJF38OVD0504  N840000000017991          81DNKETOFUSION833-923-3587   004155    MD84000000017991 N  599977360677   52AFEC735DTCB2AF7669FA1  000000000+600450S00130    MDJ  10813                     000000000  1                0000000000000.00 0000000.00   0000000.00                             000000000000000                                                                                                                                                   U001424  000000000000 0000000000000.31     00050 02200                  
00004960226880061DT67590675900000015164800888800000010180088887287283128900017266355050720230000001194812823000000000338296552465XXXXXX1058       ME03KE06PT01      NY 4607AMCWXCGBRD0504  N840000000011948          81DNKETOFUSION833-923-3587   60405S    MC84000000011948 N  599977360677   86E532E94CT7A92200B28C8  000000000+600450S00130    MCW  02182                     000000000  N                0000000000000.00 0000000.00   0000000.00                             000000000000000                                                                                                                                                   U001424  000000000000 0000000000003.21     02600 01000                  
00004970226880062DT67590675900000015164800888800000010180088887287283128900017266371050720230000001394812823000000000338296510875XXXXXX3653       ME03KE06PT01      NY 4607AMCWDFLNQQ0504  N840000000013948          81DNKETOFUSION833-923-3587   05189S    MC84000000013948 N  599977360677   F9CF82C027TF0BA08B2349D  000000000+600450S00130    MCW  02182                     000000000  N                0000000000000.00 0000000.00   0000000.00                             000000000000000                                                                                                                                                   U001424  000000000000 0000000000003.73     02600 01000                  
00004980226880063DT67590675900000015164800888800000010180088887287283128900017266389050720230000001987012823000000000338296537802XXXXXX9912       ME03KE06MS02      NY 4607AMWEXIU5RD0504  N840000000019870          81DNKETOFUSION833-923-3587   05196Z    MC84000000019870 N  599977360677   C1F4A5FBA5TB5AC59BDE312  000000000+600450S00130    MWE  00737                     000000000  N                0000000000000.00 0000000.00   0000000.00                             000000000000000                                                                                                                                                   U001424  000000000000 0000000000005.27     02600 01000                  
00004990226880064DT67590675900000015164800888800000010180088824001193128900017266396050720230000001987012823000000000338296488839XXXXXX2077               2111111   NYV4 A7W383124420069859N840000000019870GQ9D00    01DNKETOFUSION833-923-3587   083281    VD84000000019870 NP1599977360677   6A9FD24DB3TEB632AA69E73  000000000+                F DF 00415                     000000000  N000000000       0000000000000.00 0000000.00   0000000.00                             000000000000000                                                                                                                                                     01424 G000000019870 0000000000003.43     01650 01500                  
00005000226880001P16759067590000001516480088880000001010000000000000000                             2000000000000000000000000              000000000000                    0000000000000000000000000                    000000000000                                                                                                                                                                                                                                                                                                                                                                                                                                                                                        
00005010226880065DT67590675900000015164800888800000010180088824001193128900017266438050720230000001987012823000000000338296445372XXXXXX5829               2111111   NYV4 A7W583124472393990N840000000019870F8SW00    01DNKETOFUSION833-923-3587   664246    VD84000000019870 NP1599977360677   44FC80CFA8TCF08F32857B1  000000000+                F DF 00415                     000000000  N000000000       0000000000000.00 0000000.00   0000000.00                             000000000000000                                                                                                                                                     01424 G000000019870 0000000000003.43     01650 01500                  
00005020226880001P16759067590000001516480088880000001010000000000000000                             2000000000000000000000000              000000000000                    0000000000000000000000000                    000000000000                                                                                                                                                                                                                                                                                                                                                                                                                                                                                        
00005030226880066DT67590675900000015164800888800000010180088887287283128900017266447050720230000002487012823000000000338296549113XXXXXX9460       ME03KE06PT01      NY 4607AMCWOIQDVD0504  N840000000024870          81DNKETOFUSION833-923-3587   91170P    MC84000000024870 N  599977360677   9B713D509CT2A25377309DF  000000000+600450S00130    MCW  00642                     000000000  N                0000000000000.00 0000000.00   0000000.00                             000000000000000                                                                                                                                                   U001424  000000000000 0000000000005.57     02200 01000                  
00005040226880067DT67590675900000015164800888800000010180088824001193128900017266487050720230000001987012823000000000338296419032XXXXXX9639               2111111   NYV4 A7W303124498057497N840000000019870N6T400    01DNKETOFUSION833-923-3587   085005    VD84000000019870 NP1599977360677   4F9E5D61B4T5B49C231FFD5  000000000+                F DF 10420                     000000000  Y000000000 338   0000000000000.00 0000000.00   0000000.00                             000000000000000                                                                                                                                                     01424 G000000019870 0000000000000.32     00050 02200                  
00005050226880001P16759067590000001516480088880000001010000000000000000                             2000000000000000000000000              000000000000                    0000000000000000000000000                    000000000000                                                                                                                                                                                                                                                                                                                                                                                                                                                                                        
00005060226880068DT67590675900000015164800888800000010180088824001193128900017266511050720230000001987012823000000000338296410040XXXXXX8332               2111111   NYV4 A7W303124519057318N840000000019870JTCZ00    01DNKETOFUSION833-923-3587   57696G    VB84000000019870 NP1599977360677   4CE41AB690T9834B8476F55  000000000+                G4CG411355                     000000000  N000000000 377   0000000000000.00 0000000.00   0000000.00                             000000000000000                                                                                                                                                     01424 G000000019870 0000000000005.96     02950 01000                  
00005070226880001P16759067590000001516480088880000001010000000000000000                             2000000000000000000000000              000000000000                    0000000000000000000000000                    000000000000                                                                                                                                                                                                                                                                                                                                                                                                                                                                                        
00005080226880069DT67590675900000015164800888800000010180088887287283128900017266546050720230000002487012823000000000338296546325XXXXXX6585       ME03KE06MS02      NY 4607AMWECNC7VD0504  N840000000024870          81DNKETOFUSION833-923-3587   01650P    MC84000000024870 N  599977360677   4AF3F17F6BTCF7B073B071F  000000000+600450S00130    MWE  00737                     000000000  N                0000000000000.00 0000000.00   0000000.00                             000000000000000                                                                                                                                                   U001424  000000000000 0000000000006.57     02600 01000                  
00005090226880070DT67590675900000015164800888800000010180088824001193128900017266594050720230000001499012823000000000338296403213XXXXXX1341               2111111   NYV4 A7W303124558074137N840000000014990PK3D00    01DNKETOFUSION833-923-3587   00242D    VS84000000014990 NP1599977360677   41C3E09876T3765F34E9D46  000000000+                D CD 12109                     000000000  N000000000 498   0000000000000.00 0000000.00   0000000.00                             000000000000000                                                                                                                                                     01424 G000000014990 0000000000003.85     02500 01000                  
00005100226880001P16759067590000001516480088880000001010000000000000000                             2000000000000000000000000              000000000000                    0000000000000000000000000                    000000000000                                                                                                                                                                                                                                                                                                                                                                                                                                                                                        
00005110226880071DT67590675900000015164800888800000010180088824001193128900017266602050720230000001194812823000000000338296449036XXXXXX7484               2111111   NYV4 A7W583124567076212N840000000011948SMCN00    01DNKETOFUSION833-923-3587   654496    VS84000000011948 NP1599977360677   B583B0D813TD62ED274F28B  000000000+                A CA 12106                     000000000  N000000000 492   0000000000000.00 0000000.00   0000000.00                             000000000000000                                                                                                                                                     01424 G000000011948 0000000000002.36     01890 01000                  
00005120226880001P16759067590000001516480088880000001010000000000000000                             2000000000000000000000000              000000000000                    0000000000000000000000000                    000000000000                                                                                                                                                                                                                                                                                                                                                                                                                                                                                        
00005130226880072DT67590675900000015164800888800000010180088824001193128900017266636050720230000002487012823000000000338296448233XXXXXX2654               2111111   NYV4 A7W303124573091873N840000000024870QB5400    01DNKETOFUSION833-923-3587   005509    VD84000000024870 NP1599977360677   9C937C8CEETF436D4E81327  000000000+                F DF 10420                     000000000  Y000000000 338   0000000000000.00 0000000.00   0000000.00                             000000000000000                                                                                                                                                     01424 G000000024870 0000000000000.34     00050 02200                  
00005140226880001P16759067590000001516480088880000001010000000000000000                             2000000000000000000000000              000000000000                    0000000000000000000000000                    000000000000                                                                                                                                                                                                                                                                                                                                                                                                                                                                                        
00005150226880073DT67590675900000015164800888800000010180088824001193128900017266644050720230000001499012823000000000338296434769XXXXXX8819               2111111   NYV4 A7W583124580537719N8400000000149905PN300    01DNKETOFUSION833-923-3587   040712    VD84000000014990 NP1599977360677   1CD5083407TFCE8D5F68DCC  000000000+                F DF 10420                     000000000  Y000000000 338   0000000000000.00 0000000.00   0000000.00                             000000000000000                                                                                                                                                     01424 G000000014990 0000000000000.29     00050 02200                  
00005160226880001P16759067590000001516480088880000001010000000000000000                             2000000000000000000000000              000000000000                    0000000000000000000000000                    000000000000                                                                                                                                                                                                                                                                                                                                                                                                                                                                                        
00005170226880074DT67590675900000015164800888800000010180088887287283128900017266686050720230000001499012823000000000338296555832XXXXXX2666       ME03KE06MS02      NY 4607AMDJI5JDZU0504  N840000000014990          81DNKETOFUSION833-923-3587   032006    MD84000000014990 N  599977360677   1326D031EET7F80E2790E88  000000000+600450S00130    MDJ  00401                     000000000  N                0000000000000.00 0000000.00   0000000.00                             000000000000000                                                                                                                                                   U001424  000000000000 0000000000002.62     01650 01500                  
00005180226880075DT67590675900000015164800888800000010180088824001193128900017266792050720230000001987012823000000000338296414718XXXXXX4706               2111111   NYV4 A7W583124660056539N840000000019870WNH800    01DNKETOFUSION833-923-3587   004720    VS84000000019870 NP1599977360677   8FFB8770DDT137A64D35414  000000000+                D CD 12109                     000000000  N000000000 498   0000000000000.00 0000000.00   0000000.00                             000000000000000                                                                                                                                                     01424 G000000019870 0000000000005.07     02500 01000                  
00005190226880001P16759067590000001516480088880000001010000000000000000                             2000000000000000000000000              000000000000                    0000000000000000000000000                    000000000000                                                                                                                                                                                                                                                                                                                                                                                                                                                                                        
00005200226880076DT67590675900000015164800888800000010180088887287283128900017266876050720230000001394812823000000000338296542418XXXXXX4329       ME03KE06MS02      NY 4607AMWEN9WK480504  N840000000013948          81DNKETOFUSION833-923-3587   45740P    MC84000000013948 N  599977360677   46FE060308TE40AF030A5C2  000000000+600450S00130    MWE  00737                     000000000  N                0000000000000.00 0000000.00   0000000.00                             000000000000000                                                                                                                                                   U001424  000000000000 0000000000003.73     02600 01000                  
00005210226880077DT67590675900000015164800888800000010180088887287283128900017266942050720230000002487012823000000000338296531515XXXXXX8702       ME03KE06MS02      NY 4607AMDJP60YZU0504  N840000000024870          81DNKETOFUSION833-923-3587   500733    MD84000000024870 N  599977360677   07CF3BD3BBT1734B882C5EA  000000000+600450S00130    MDJ  00401                     000000000  N                0000000000000.00 0000000.00   0000000.00                             000000000000000                                                                                                                                                   U001424  000000000000 0000000000004.25     01650 01500                  
00005220226880078DT67590675900000015164800888800000010180088824001193128900017266966050720230000001987012823000000000338296414718XXXXXX4480               2111111   NYV4 A7W383124797849068N8400000000198702MF800    01DNKETOFUSION833-923-3587   004741    VS84000000019870 NP1599977360677   AF4A6A62BFTF7C02C98FEA3  000000000+                D CD 12109                     000000000  N000000000 498   0000000000000.00 0000000.00   0000000.00                             000000000000000                                                                                                                                                     01424 G000000019870 0000000000005.07     02500 01000                  
00005230226880001P16759067590000001516480088880000001010000000000000000                             2000000000000000000000000              000000000000                    0000000000000000000000000                    000000000000                                                                                                                                                                                                                                                                                                                                                                                                                                                                                        
00005240226880079DT67590675900000015164800888800000010180088887287283128900017267007050720230000001987012823000000000338296546325XXXXXX9358       ME03KE06MS02      NY 4607AMWEIQDI5O0504  N840000000019870          81DNKETOFUSION833-923-3587   01664P    MC84000000019870 N  599977360677   1326C4BBA2T42FDEF09227F  000000000+600450S00130    MWE  00737                     000000000  N                0000000000000.00 0000000.00   0000000.00                             000000000000000                                                                                                                                                   U001424  000000000000 0000000000005.27     02600 01000                  
00005250226880080DT67590675900000015164800888800000010180088824001193128900017267071050720230000002487012823000000000338296473702XXXXXX1143               2111111   NYV4 A7W463125063051661N840000000024870KVX300    01DNKETOFUSION833-923-3587   032929    VD84000000024870 NP1599977360677   1DC3B47855TC6507DCD1882  000000000+                F DF 10420                     000000000  Y000000000 338   0000000000000.00 0000000.00   0000000.00                             000000000000000                                                                                                                                                     01424 G000000024870 0000000000000.34     00050 02200                  
00005260226880001P16759067590000001516480088880000001010000000000000000                             2000000000000000000000000              000000000000                    0000000000000000000000000                    000000000000                                                                                                                                                                                                                                                                                                                                                                                                                                                                                        
00005270226880081DT67590675900000015164800888800000010180088824001193128900017267105050720230000001499012823000000000338296455225XXXXXX2729               2111111   NYV4 A7W383125081060757N840000000014990M5H600    01DNKETOFUSION833-923-3587   H26565    VD84000000014990 NP1599977360677   B54CC5919CT3C9D4CB5A9D4  000000000+                F DF 10420                     000000000  Y000000000 338   0000000000000.00 0000000.00   0000000.00                             000000000000000                                                                                                                                                     01424 G000000014990 0000000000000.29     00050 02200                  
00005280226880001P16759067590000001516480088880000001010000000000000000                             2000000000000000000000000              000000000000                    0000000000000000000000000                    000000000000                                                                                                                                                                                                                                                                                                                                                                                                                                                                                        
00005290226880082DT67590675900000015164800888800000010180088887287283128900017269771050720230000001206612823000000000338296551771XXXXXX8953       ME03KE06MS02      NY 4607AMDSX210NR0507  N840000000012066          81DNKETOFUSION833-923-3587   003768    MD84000000012066 N  599977360677   7792C9CDFETEEE95D638E6A  000000000+600450S00130    MDS  00401                     000000000  N                0000000000000.00 0000000.00   0000000.00                             000000000000000                                                                                                                                                   U001424  000000000000 0000000000002.14     01650 01500                  
00005300226880083DT67590675900000015164800888800000010180088824001193128900017269796050720230000000327412823000000000338296414720XXXXXX4741               2111111   NYV4 A7W583128044499391N840000000003274XSZT00    01DNKETOFUSION833-923-3587   02299D    VS84000000003274 NP1599977360677   13F6AA5BC8T6B2C660381B1  000000000+                D CD 12109                     000000000  N000000000 498   0000000000000.00 0000000.00   0000000.00                             000000000000000                                                                                                                                                     01424 G000000003274 0000000000000.92     02500 01000                  
00005310226880001P16759067590000001516480088880000001010000000000000000                             2000000000000000000000000              000000000000                    0000000000000000000000000                    000000000000                                                                                                                                                                                                                                                                                                                                                                                                                                                                                        
00005320226880084DT67590675900000015164800888800000010180088887287283128900017269862050720230000001194812823000000000338296536062XXXXXX4288       ME03KE06MS02      NY 4607AMDJTKYONR0507  N840000000011948          81DNKETOFUSION833-923-3587   850813    MD84000000011948 N  599977360677   91BCB80D1FT2554EC9516BB  000000000+600450S00130    MDJ  10813                     000000000  1                0000000000000.00 0000000.00   0000000.00                             000000000000000                                                                                                                                                   U001424  000000000000 0000000000000.28     00050 02200                  
00005330226880085DT67590675900000015164800888800000010180088824001193128900017269903050720230000001987012823000000000338296433477XXXXXX4573               2111111   NYV4 A7W463128069652860N840000000019870J6PF00    01DNKETOFUSION833-923-3587   050022    VD84000000019870 NP1599977360677   6EF9287DC2T69F9D7449886  000000000+                F DF 10420                     000000000  Y000000000 338   0000000000000.00 0000000.00   0000000.00                             000000000000000                                                                                                                                                     01424 G000000019870 0000000000000.32     00050 02200                  
00005340226880001P16759067590000001516480088880000001010000000000000000                             2000000000000000000000000              000000000000                    0000000000000000000000000                    000000000000                                                                                                                                                                                                                                                                                                                                                                                                                                                                                        
00005350226880086DT67590675900000015164800888800000010680088874001193128900017269965050720230000002487012823000000000338296453506XXXXXX4206               0000000   NYV4 07T463128132018037N840000000024870DCQR00    01CNKETOFUSION833-923-3587   H48924    VD84000000024870 NP1599977360677   BB90AE01EFTD14E060E6148  000000000+                F DF 08168                     000000000  Y000000000 369   0000000000000.00 0000000.00   0000000.00                             000000000000000                                                                                                                                                     01424  000000024870 0000000000000.00     00000 00000                  
00005360226880001P16759067590000001516480088880000001060000000000000000                             2000000000000000000000000              000000000000                    0000000000000000000000000                    000000000000                                                                                                                                                                                                                                                                                                                                                                                                                                                                                        
00005370226880087DT67590675900000015164800888800000010680088874001193128900017269973050720230000000519012823000000000338296453506XXXXXX4206               0000000   NYV4 07T383128132146947N840000000005190GQ8200    01CNKETOFUSION833-923-3587   H29258    VD84000000005190 NP1599977360677   BB90AE01EFTB156BFA5F298  000000000+                F DF 08168                     000000000  Y000000000 369   0000000000000.00 0000000.00   0000000.00                             000000000000000                                                                                                                                                     01424  000000005190 0000000000000.00     00000 00000                  
00005380226880001P16759067590000001516480088880000001060000000000000000                             2000000000000000000000000              000000000000                    0000000000000000000000000                    000000000000                                                                                                                                                                                                                                                                                                                                                                                                                                                                                        
00005390226880088DT67590675900000015164800888800000010680088874001193128900017269981050720230000001194812823000000000338296414718XXXXXX4153               0000000   NYV4 07T463128136907924N840000000011948NQWH00    01CNKETOFUSION833-923-3587   007096    VS84000000011948 NP1599977360677   FCBBC54CB9TC1E0DF34EE46  000000000+                D CD 00245                     000000000  N000000000 166   0000000000000.00 0000000.00   0000000.00                             000000000000000                                                                                                                                                     01424  000000011948-0000000000002.10     01760 00000                  
00005400226880001P16759067590000001516480088880000001060000000000000000                             2000000000000000000000000              000000000000                    0000000000000000000000000                    000000000000                                                                                                                                                                                                                                                                                                                                                                                                                                                                                        
00005410226880089DT67590675900000015164800888800000010680088887287283128900017269995050720230000000987012823000000000338296521333XXXXXX3746                         NY 4607AMPLKN51G10507  N840000000009870          81CNKETOFUSION833-923-3587   007732    MC84000000009870 N  599977360677   01EEE8F77DT5392548B3E13  000000000+600450S00130    MPL  00564                     000000000  N                0000000000000.00 0000000.00   0000000.00                             000000000000000                                                                                                                                                     01424  000000000000-0000000000001.73     01750 00000                  
00005420226880090DT67590675900000015164800888800000010680088887287283128900017270001050720230000000654812823000000000338296521333XXXXXX3746                         NY 4607AMPLMN5DG10507  N840000000006548          81CNKETOFUSION833-923-3587   007755    MC84000000006548 N  599977360677   01EEE8F77DTC406146A3BAE  000000000+600450S00130    MPL  00564                     000000000  N                0000000000000.00 0000000.00   0000000.00                             000000000000000                                                                                                                                                     01424  000000000000-0000000000001.15     01750 00000                  
00005430226880091DT67590675900000015164800888800000010680088874001193128900017270187050820230000002023512823000000000338296432626XXXXXX6980               0000000   NYV4 07T463128507845387N840000000020235Q49300    01CNKETOFUSION833-923-3587   437960    VD84000000020235 NP1599977360677   B9A293CF47T0FFAE58B3F65  000000000+                F DF 08168                     000000000  Y000000000 369   0000000000000.00 0000000.00   0000000.00                             000000000000000                                                                                                                                                     01424  000000020235 0000000000000.00     00000 00000                  
00005440226880001P16759067590000001516480088880000001060000000000000000                             2000000000000000000000000              000000000000                    0000000000000000000000000                    000000000000                                                                                                                                                                                                                                                                                                                                                                                                                                                                                        
00005450226880092DT67590675900000015164800888800000010680088874001193128900017270203050820230000001200012823000000000338296410040XXXXXX3390               0000000   NYV4 07T303128519719632N840000000012000XLB400    01CNKETOFUSION833-923-3587   19284G    VB84000000012000 NP1599977360677   D14FE9D607T9CAFF5F44704  000000000+                G1CG100246                     000000000  N000000000 167   0000000000000.00 0000000.00   0000000.00                             000000000000000                                                                                                                                                     01424  000000012000-0000000000002.82     02350 00000                  
