01509390129977343AD675906759000000028818008888000009071900010500220000001071912052022NYY33922ND6759800888120720222022339017100                                                                                                                                                                                                                                                                                                                                                                                                                                                                                                                                                                                              
01509400132350002BH6759067590000000215480088880000090171206202234022000000000133400    0000090001551877N8008886759C12072022                                                                                                                                                                                                                                                                                                                                                                                                                                                                                                                                                                                                 
01509410132350003DT67590675900000002154800888800000010180088873011002340900015537640120620220000010400034022000000000133400372729XXXXX2012                          NY 4 07N003461396777329N840000000104000          01DNDRIP DROP DISTRO LLC     264473    AM84000000104000 N  519971004114                            000000000+6004S0S00140 258     11244                     000000000                   0000000000000.00 0000000.00   0000000.00                             000000000000000 61248972736759675900000002154 DRIP DROP DISTRO LLC     1445 W COMMERCE AVE SUITE2087248209      83705     TROY@DRIPDROPDISTRO.COM                   01418  000000000000 0000000000019.86     01900 00000                  
01509420132350004DT67590675900000002154800888800000010180088887287282340900015518777120620220000002940034022000000000133400554090XXXXXX4531                         NY 4607AMDBE328JR1206  N840000000029400          81DNDRIP DROP DISTRO LLC     003000    MD84000000029400 NP1519900000001   INV-27693                000000000+600450S00140    MDB  00062                     000000000  N                0000000000000.00 0000000.00   0000000.00                             000000000000000                                                                                                                                                   U001418  000000000000 0000000000007.89     02650 01000                  
01509430132350001P1675906759000000021548008888000000101                                                          000000000000          8000            471534935                                                                                                                                                                                                                                                                                                                                                                                                                                                                                                                                                            
