02190810286770002BH6759067590000000288180088880000090170112202301223000000000092533    0000090001170019N8008886759C01132023                                                                                                                                                                                                                                                                                                                                                                                                                                                                                                                                                                                                 
02190820286770003DT67590675900000002881800888800000010180088824001193012900011700019011220230000000691301223000000000092533419090XXXXXX2243       VS11    0001111   NYV1 A E383012579571233N840000000006913JF7J00    05DNHAPPY HIPPIE             685750    VD84000000006913 N  549976487134                            000000000+                F DF 00381                     000000000  N000000000       0000000000000.00 0000000.00   0000000.00                             000000000000000                                                                                                                                                     01418 A000000000000 0000000000000.70     00800 01500                  
02190830286770004DT67590675900000002881800888800000010180088824001193012900011700027011220230000000295001223000000000092533419090XXXXXX5725       VS11    0001111   NYV1 A E463012580842507N840000000002950RCZK00    05DNHAPPY HIPPIE             685813    VD84000000002950 N  549976487134                            000000000+                F DF 00381                     000000000  N000000000       0000000000000.00 0000000.00   0000000.00                             000000000000000                                                                                                                                                     01418 A000000000000 0000000000000.39     00800 01500                  
02190840286770005DT67590675900000002881800888800000010180088824001193012900011700035011220230000000691201223000000000092533480639XXXXXX6310       VS11    0001111   NYV1 A E463012599052985N840000000006912TKF300    05DNHAPPY HIPPIE             404248    VD84000000006912 N  549976487134                            000000000+                F DF 00381                     000000000  N000000000       0000000000000.00 0000000.00   0000000.00                             000000000000000                                                                                                                                                     01418 A000000000000 0000000000000.70     00800 01500                  
02190850286770006DT67590675900000002881800888800000010180088824001193012900011700043011220230000000316101223000000000092533422921XXXXXX6466       VS11    0001111   NYV1 A E383012607099418N84000000000316156RG00    05DNHAPPY HIPPIE             042710    VD84000000003161 N  549976487134                            000000000+                F DF 00381                     000000000  N000000000       0000000000000.00 0000000.00   0000000.00                             000000000000000                                                                                                                                                     01418 A000000000000 0000000000000.40     00800 01500                  
02190860286770007DT67590675900000002881800888800000010180088824001193012900011700050011220230000000107301223000000000092533419090XXXXXX5979       VK04VS111111111   NYV1 A E383012608898271N840000000001073K5WK00    05DNHAPPY HIPPIE             687355    VD84000000001073 N  549976487134                            000000000+                F DF 00451                     000000000  N000000000 214   0000000000000.00 0000000.00   0000000.00                             000000000000000                                                                                                                                                     01418 F000000000000 0000000000000.21     01550 00400                  
02190870286770008DT67590675900000002881800888800000010180088824001193012900011700068011220230000000225801223000000000092533419090XXXXXX2477       VS11    0001111   NYV1 A E463012628237080N840000000002258R6VG00    05DNHAPPY HIPPIE             688608    VD84000000002258 N  549976487134                            000000000+                F DF 00381                     000000000  N000000000       0000000000000.00 0000000.00   0000000.00                             000000000000000                                                                                                                                                     01418 A000000000000 0000000000000.33     00800 01500                  
02190880286770009DT67590675900000002881800888800000010180088877287283012900011700078011220230000000232601223000000000092533518941XXXXXX4253       MS02WI09          NY 1 0 AMWEEQ0SZE0112  N840000000002326          05DNHAPPY HIPPIE             33787Z    MC84000000002326 N  549976487134                            000000000+M10101C5434C    MWE  00743                     000000000  N                0000000000000.00 0000000.00   0000000.00                             000000000000000                                                                                                                                                   B101418  000000000000 0000000000000.57     02300 00400                  
02190890286770010DT67590675900000002881800888800000010180088824001193012900011700084011220230000000032801223000000000092533443057XXXXXX7724       VK04VS111111111   NYV1 A E463012641258885N840000000000328XBS200    05DNHAPPY HIPPIE             457264    VD84000000000328 N  549976487134                            000000000+                F DF 10439                     000000000  Y000000000 331   0000000000000.00 0000000.00   0000000.00                             000000000000000                                                                                                                                                     01418 F000000000000 0000000000000.22     00050 02200                  
02190900286770011DT67590675900000002881800888800000010180088824001193012900011700092011220230000000256601223000000000092533422921XXXXXX1293       VS11    0001111   NYV1 A E583012701278441N840000000002566DC9F00    05DNHAPPY HIPPIE             052128    VD84000000002566 N  549976487134                            000000000+                F DF 00381                     000000000  N000000000       0000000000000.00 0000000.00   0000000.00                             000000000000000                                                                                                                                                     01418 A000000000000 0000000000000.36     00800 01500                  
02190910286770012DT67590675900000002881800888800000010180088824001193012900011700100011220230000000316101223000000000092533415978XXXXXX3096       VS11    0001111   NYV1 A E583012738333597N840000000003161RQ6X00    05DNHAPPY HIPPIE             021668    VD84000000003161 N  549976487134                            000000000+                F DF 10433                     000000000  Y000000000 338   0000000000000.00 0000000.00   0000000.00                             000000000000000                                                                                                                                                     01418 A000000000000 0000000000000.24     00050 02200                  
02190920286770013DT67590675900000002881800888800000010180088824001193012900011700118011220230000000888901223000000000092533415978XXXXXX1112       VS11    0001111   NYV1 A E303012742840899N840000000008889Z46G00    05DNHAPPY HIPPIE             005594    VD84000000008889 N  549976487134                            000000000+                F DF 10433                     000000000  Y000000000 338   0000000000000.00 0000000.00   0000000.00                             000000000000000                                                                                                                                                     01418 A000000000000 0000000000000.26     00050 02200                  
02190930286770014DT67590675900000002881800888800000010180088824001193012900011700126011220230000000987601223000000000092533498503XXXXXX5806       VS11    0001111   NYV1 A E383012744472310N840000000009876HBNB00    05DNHAPPY HIPPIE             040547    VD84000000009876 N  549976487134                            000000000+                F DF 00381                     000000000  N000000000       0000000000000.00 0000000.00   0000000.00                             000000000000000                                                                                                                                                     01418 A000000000000 0000000000000.94     00800 01500                  
02190940286770015DT67590675900000002881800888800000010180088876509753012900011700132011220230000000636301223000000000092533601101XXXXXX2618   BA50                  NY41 0 N813010084377934N840000000006363    00    05DNHAPPY HIPPIE             01238B    DZ84000000006363 N  549976487134050                         000000000+0000004910H00   DMCDI01012602003  140717000000 000000000  0          124   0000000000000.00 0000000.00   0000000.00                             000000000000000                                                                                                                                                     01418  000000000000 0000000000001.71     02450 01500                  
02190950286770016DT67590675900000002881800888800000010180088824001193012900011700142011220230000000658301223000000000092533473702XXXXXX3211       VS11    0001111   NYV1 A E463012763990654N840000000006583FXCD00    05DNHAPPY HIPPIE             041033    VD84000000006583 N  549976487134                            000000000+                F DF 10433                     000000000  Y000000000 338   0000000000000.00 0000000.00   0000000.00                             000000000000000                                                                                                                                                     01418 A000000000000 0000000000000.25     00050 02200                  
02190960286770017DT67590675900000002881800888800000010180088824001193012900011700159011220230000000355501223000000000092533443238XXXXXX4706       VS11    0001111   NYV1 A E303012770611076N840000000003555LV6800    05DNHAPPY HIPPIE             062421    VD84000000003555 N  549976487134                            000000000+                F DF 00381                     000000000  N000000000       0000000000000.00 0000000.00   0000000.00                             000000000000000                                                                                                                                                     01418 A000000000000 0000000000000.43     00800 01500                  
02190970286770018DT67590675900000002881800888800000010180088824001193012900011700167011220230000001199701223000000000092533474476XXXXXX4203               1001111   NYV1 A K383012773391370N8400000000119976M9J00    01DNHAPPY HIPPIE             102281    VD84000000011997 N  549976487134                            000000000+                F DF 10436                     000000000  Y000000000 338   0000000000000.00 0000000.00   0000000.00                             000000000000000                                                                                                                                                     01418 E000000000000 0000000000000.28     00050 02200                  
02190980286770019DT67590675900000002881800888800000010180088824001193012900011700175011220230000000068601223000000000092533498503XXXXXX6417       VK04VS111111111   NYV1 A E583012790502946N8400000000006866RDD00    05DNHAPPY HIPPIE             060381    VD84000000000686 N  549976487134                            000000000+                F DF 00451                     000000000  N000000000 214   0000000000000.00 0000000.00   0000000.00                             000000000000000                                                                                                                                                     01418 F000000000000 0000000000000.15     01550 00400                  
02190990286770020DT67590675900000002881800888800000010180088877287283012900011700185011220230000000622101223000000000092533517805XXXXXX9741       MS02WI09          NY 1 0 AMWESXAO1K0112  N840000000006221          07DNHAPPY HIPPIE             01074P    MC84000000006221 N  549976487134                            000000000+M10101M5434C    MWE  00743                     000000000  N                0000000000000.00 0000000.00   0000000.00                             000000000000000                                                                                                                                                   B101418  000000000000 0000000000001.47     02300 00400                  
02191000286770021DT67590675900000002881800888800000010180088824001193012900011700191011220230000000671501223000000000092533419090XXXXXX6750       VS11    0001111   NYV1 A E583012818777451N840000000006715GL6600    05DNHAPPY HIPPIE             698951    VD84000000006715 N  549976487134                            000000000+                F DF 00381                     000000000  N000000000       0000000000000.00 0000000.00   0000000.00                             000000000000000                                                                                                                                                     01418 A000000000000 0000000000000.69     00800 01500                  
02191010286770022BH6759067590000000288180088880000090170112202301223000000000115088    0000090001170024N8008886759C01132023                                                                                                                                                                                                                                                                                                                                                                                                                                                                                                                                                                                                 
02191020286770023DT67590675900000002881800888800000010180088877287283012900011700011011220230000000548801223000000000115088551571XXXXXX4045       MS02WI09          NY 2 0 AMDJA655ZE0112  N840000000005488          05DNHAPPY HIPPIE             064103    MD84000000005488 N  549976487158                            000000000+M10101C1334C    MDJ  00402                     000000000  N                0000000000000.00 0000000.00   0000000.00                             000000000000000                                                                                                                                                   B101418  000000000000 0000000000000.73     01050 01500                  
02191030286770024DT67590675900000002881800888800000010180088824001193012900011700027011220230000000134401223000000000115088465026XXXXXX2512       VK04VS111111111   NYV1 A E383012544643515N8400000000013444HM700    07DNHAPPY HIPPIE             008732    VD84000000001344 N  549976487158                            000000000+                F DF 10439                     000000000  Y000000000 331   0000000000000.00 0000000.00   0000000.00                             000000000000000                                                                                                                                                     01418 F000000000000 0000000000000.23     00050 02200                  
02191040286770025DT67590675900000002881800888800000010180088877287283012900011700037011220230000000362101223000000000115088521322XXXXXX0712       MS02WI09          NY 1 0 AMCWPH44LQ0112  N840000000003621          05DNHAPPY HIPPIE             11747T    MC84000000003621 N  549976487158                            000000000+M10101C5434C    MCW  02188                     000000000  N                0000000000000.00 0000000.00   0000000.00                             000000000000000                                                                                                                                                   B101418  000000000000 0000000000000.87     02300 00400                  
02191050286770026DT67590675900000002881800888800000010180088877287283012900011700045011220230000000362101223000000000115088517546XXXXXX6909       MS02WI09          NY 2 0 AMDJBR9LZE0112  N840000000003621          05DNHAPPY HIPPIE             012013    MD84000000003621 N  549976487158                            000000000+M10101C1334C    MDJ  10815                     000000000  1                0000000000000.00 0000000.00   0000000.00                             000000000000000                                                                                                                                                   B101418  000000000000 0000000000000.24     00050 02200                  
02191060286770027DT67590675900000002881800888800000010180088824001193012900011700050011220230000000329101223000000000115088443264XXXXXX3883       VS11    0001111   NYV1 A E303012564280113N840000000003291CZ8W00    05DNHAPPY HIPPIE             009763    VD84000000003291 N  549976487158                            000000000+                F DF 10433                     000000000  Y000000000 338   0000000000000.00 0000000.00   0000000.00                             000000000000000                                                                                                                                                     01418 A000000000000 0000000000000.24     00050 02200                  
02191070286770028DT67590675900000002881800888800000010180088824001193012900011700068011220230000000090401223000000000115088443238XXXXXX1211       VK04VS111111111   NYV1 A E463012566287666N8400000000009049MV900    05DNHAPPY HIPPIE             004348    VD84000000000904 N  549976487158                            000000000+                F DF 00451                     000000000  N000000000 214   0000000000000.00 0000000.00   0000000.00                             000000000000000                                                                                                                                                     01418 F000000000000 0000000000000.18     01550 00400                  
02191080286770029DT67590675900000002881800888800000010180088877287283012900011700078011220230000000098401223000000000115088545313XXXXXX1126       MS02WI09          NY 1 0 AMDJHB7DZE0112  N840000000000984          05DNHAPPY HIPPIE             063803    MD84000000000984 N  549976487158                            000000000+M10101C5434C    MDJ  00505                     000000000  N                0000000000000.00 0000000.00   0000000.00                             000000000000000                                                                                                                                                   B101418  000000000000 0000000000000.19     01550 00400                  
02191090286770030DT67590675900000002881800888800000010180088824001193012900011700084011220230000000032801223000000000115088400022XXXXXX0055       VK04VS111111111   NYV1 A E303012587172622N840000000000328HDJK00    05DNHAPPY HIPPIE             111338    VD84000000000328 N  549976487158                            000000000+                F DF 10439                     000000000  Y000000000 331   0000000000000.00 0000000.00   0000000.00                             000000000000000                                                                                                                                                     01418 F000000000000 0000000000000.22     00050 02200                  
02191100286770031DT67590675900000002881800888800000010180088824001193012900011700092011220230000000839501223000000000115088420767XXXXXX6556       VS11    0001111   NYV1 A E383012646619720N840000000008395TXVM00    05DNHAPPY HIPPIE             015712    VD84000000008395 N  549976487158                            000000000+                F DF 10433                     000000000  Y000000000 338   0000000000000.00 0000000.00   0000000.00                             000000000000000                                                                                                                                                     01418 A000000000000 0000000000000.26     00050 02200                  
02191110286770032DT67590675900000002881800888800000010180088824001193012900011700100011220230000000041201223000000000115088420767XXXXXX6556       VK04VS111111111   NYV1 A E583012650078751N840000000000412246N00    05DNHAPPY HIPPIE             080313    VD84000000000412 N  549976487158                            000000000+                F DF 10439                     000000000  Y000000000 331   0000000000000.00 0000000.00   0000000.00                             000000000000000                                                                                                                                                     01418 F000000000000 0000000000000.22     00050 02200                  
02191120286770033DT67590675900000002881800888800000010180088824001193012900011700118011220230000000591301223000000000115088480639XXXXXX9981       VS11    0001111   NYV1 A E463012651319201N840000000005913SGGK00    05DNHAPPY HIPPIE             406931    VD84000000005913 N  549976487158                            000000000+                F DF 00381                     000000000  N000000000       0000000000000.00 0000000.00   0000000.00                             000000000000000                                                                                                                                                     01418 A000000000000 0000000000000.62     00800 01500                  
02191130286770034DT67590675900000002881800888800000010180088824001193012900011700126011220230000000454301223000000000115088480639XXXXXX3336       VS11    0001111   NYV1 A E463012651995568N840000000004543MMQC00    05DNHAPPY HIPPIE             406969    VD84000000004543 N  549976487158                            000000000+                F DF 00381                     000000000  N000000000       0000000000000.00 0000000.00   0000000.00                             000000000000000                                                                                                                                                     01418 A000000000000 0000000000000.51     00800 01500                  
02191140286770035DT67590675900000002881800888800000010180088824001193012900011700134011220230000000788901223000000000115088415978XXXXXX2713       VS11    0001111   NYV1 A E383012667544832N84000000000788979KB00    05DNHAPPY HIPPIE             033973    VD84000000007889 N  549976487158                            000000000+                F DF 10433                     000000000  Y000000000 338   0000000000000.00 0000000.00   0000000.00                             000000000000000                                                                                                                                                     01418 A000000000000 0000000000000.26     00050 02200                  
02191150286770036DT67590675900000002881800888800000010180088877287283012900011700144011220230000000439001223000000000115088550943XXXXXX6151       MS02WI09          NY 1 0 AMDJFICS2B0112  N840000000004390          05DNHAPPY HIPPIE             005442    MD84000000004390 N  549976487158                            000000000+M10101C5434C    MDJ  00402                     000000000  N                0000000000000.00 0000000.00   0000000.00                             000000000000000                                                                                                                                                   B101418  000000000000 0000000000000.61     01050 01500                  
02191160286770037DT67590675900000002881800888800000010180088824001193012900011700159011220230000000424501223000000000115088443238XXXXXX9381       VS11    0001111   NYV1 A E383012698078025N840000000004245MKZV00    05DNHAPPY HIPPIE             042327    VD84000000004245 N  549976487158                            000000000+                F DF 00381                     000000000  N000000000       0000000000000.00 0000000.00   0000000.00                             000000000000000                                                                                                                                                     01418 A000000000000 0000000000000.49     00800 01500                  
02191170286770038DT67590675900000002881800888800000010180088824001193012900011700167011220230000000437801223000000000115088485671XXXXXX3668       VS11    0001111   NYV1 A E463012707314159N840000000004378SQZL00    05DNHAPPY HIPPIE             85202C    VS84000000004378 N  549976487158                            000000000+                C CC 12112                     000000000  N000000000 497   0000000000000.00 0000000.00   0000000.00                             000000000000000                                                                                                                                                     01418 A000000000000 0000000000000.82     01650 01000                  
02191180286770039DT67590675900000002881800888800000010180088877287283012900011700177011220230000000591301223000000000115088511953XXXXXX2849       MS02WI09          NY 1 0 AMDJP1X31K0112  N840000000005913          05DNHAPPY HIPPIE             064100    MD84000000005913 N  549976487158                            000000000+M10101C5434C    MDJ  00402                     000000000  N                0000000000000.00 0000000.00   0000000.00                             000000000000000                                                                                                                                                   B101418  000000000000 0000000000000.77     01050 01500                  
02191190286770040DT67590675900000002881800888800000010180088824001193012900011700183011220230000000562801223000000000115088480639XXXXXX0039       VS11    0001111   NYV1 A E383012732710206N8400000000056287ZQF00    05DNHAPPY HIPPIE             410044    VD84000000005628 N  549976487158                            000000000+                F DF 00381                     000000000  N000000000       0000000000000.00 0000000.00   0000000.00                             000000000000000                                                                                                                                                     01418 A000000000000 0000000000000.60     00800 01500                  
02191200286770041DT67590675900000002881800888800000010180088824001193012900011700191011220230000000943501223000000000115088445101XXXXXX8548       VS11    0001111   NYV1 A E583012767506667N8400000000094355TCT00    05DNHAPPY HIPPIE             537609    VD84000000009435 N  549976487158                            000000000+                F DF 10433                     000000000  Y000000000 338   0000000000000.00 0000000.00   0000000.00                             000000000000000                                                                                                                                                     01418 A000000000000 0000000000000.27     00050 02200                  
02191210286770042DT67590675900000002881800888800000010180088824001193012900011700209011220230000000592401223000000000115088435547XXXXXX4208       VS11    0001111   NYV1 A E383012768640578N840000000005924ZLV800    05DNHAPPY HIPPIE             054120    VD84000000005924 N  549976487158                            000000000+                F DF 10433                     000000000  Y000000000 338   0000000000000.00 0000000.00   0000000.00                             000000000000000                                                                                                                                                     01418 A000000000000 0000000000000.25     00050 02200                  
02191220286770043DT67590675900000002881800888800000010180088824001193012900011700217011220230000001195001223000000000115088445100XXXXXX4756               1001111   NYV1 A K583012771063311N8400000000119509CXS00    01DNHAPPY HIPPIE             540325    VD84000000011950 N  549976487158                            000000000+                F DF 10436                     000000000  Y000000000 338   0000000000000.00 0000000.00   0000000.00                             000000000000000                                                                                                                                                     01418 E000000000000 0000000000000.28     00050 02200                  
02191230286770044DT67590675900000002881800888800000010180088824001193012900011700225011220230000000266601223000000000115088410492XXXXXX9980       VS11    0001111   NYV1 A E383012774148906N840000000002666Q28T00    07DNHAPPY HIPPIE             495499    VD84000000002666 N  549976487158                            000000000+                F DF 10433                     000000000  Y000000000 338   0000000000000.00 0000000.00   0000000.00                             000000000000000                                                                                                                                                     01418 A000000000000 0000000000000.23     00050 02200                  
02191240286770045DT67590675900000002881800888800000010180088877287283012900011700235011220230000000493701223000000000115088529580XXXXXX3575       MS02WI09          NY 1 0 AMDJS4491K0112  N840000000004937          05DNHAPPY HIPPIE             097144    MD84000000004937 N  549976487158                            000000000+M10101C5434C    MDJ  00402                     000000000  N                0000000000000.00 0000000.00   0000000.00                             000000000000000                                                                                                                                                   B101418  000000000000 0000000000000.67     01050 01500                  
02191250286770046DT67590675900000002881800888800000010180088824001193012900011700241011220230000000888901223000000000115088419090XXXXXX4467       VS11    0001111   NYV1 A E463012825569932N840000000008889FTC200    05DNHAPPY HIPPIE             699341    VD84000000008889 N  549976487158                            000000000+                F DF 00381                     000000000  N000000000       0000000000000.00 0000000.00   0000000.00                             000000000000000                                                                                                                                                     01418 A000000000000 0000000000000.86     00800 01500                  
02191260286770047BH6759067590000000215480088880000090170112202301223000000000009270    0000090001805003N8008886759C01132023                                                                                                                                                                                                                                                                                                                                                                                                                                                                                                                                                                                                 
02191270286770048DT67590675900000002154800888800000010180088824001193012900018050038011220230000000927001223000000000009270433993XXXXXX5370               2111111   NYV4 A7W303012819433949N840000000009270LPFN00    01DNDRIP DROP DISTRO LLC     01109G    VB84000000009270 NP1519971004114   INV-000217               000000000+                G5CG511887                     000000000  N000000000 163   0000000000000.00 0000000.00   0000000.00                             000000000000000                                                                                                                                                     01418 G000000009270 0000000000002.88     03000 01000                  
02191280286770001P16759067590000000215480088880000001010000000000000000    43874571131              2000000000000000000000000              000000000000                    0000000000000000000000000                    000000000000                                                                                                                                                                                                                                                                                                                                                                                                                                                                                        
