02595100156470002BH6759067590000000370780088880000090170106202300623000000000167188    0000090001090062Y8008886759C01092023                                                                                                                                                                                                                                                                                                                                                                                                                                                                                                                                                                                                 
02595110156470003DT67590675900000003707800888800000010180088824001193006900010900451010520230000001676900623000000000167188464018XXXXXX4821               2111111   NYV4 A7W303006117449891N840000000016769J49V00    01DNMR HEMP FLOWER           06329D    VS84000000016769 NP1549976053336   83833                    000000000+                D CD 12109                     000000000  N000000000 498   0000000000000.00 0000000.00   0000000.00                             000000000000000                                                                                                                                                     01424 G000000016769 0000000000004.29     02500 01000                  
02595120156470001P16759067590000000370780088880000001010000000000000000                             2000000000000000000000000              000000000000                    0000000000000000000000000                    000000000000                                                                                                                                                                                                                                                                                                                                                                                                                                                                                        
02595130156470004DT67590675900000003707800888800000010180088824001193006900010900469010520230000001200000623000000000167188448233XXXXXX5357               2111111   NYV4 A7W383006137013389N840000000012000V7GX00    01DNMR HEMP FLOWER           014821    VD84000000012000 NP1549976053336   83834                    000000000+                F DF 10420                     000000000  Y000000000 338   0000000000000.00 0000000.00   0000000.00                             000000000000000                                                                                                                                                     01424 G000000012000 0000000000000.28     00050 02200                  
02595140156470001P16759067590000000370780088880000001010000000000000000                             2000000000000000000000000              000000000000                    0000000000000000000000000                    000000000000                                                                                                                                                                                                                                                                                                                                                                                                                                                                                        
02595150156470005DT67590675900000003707800888800000010180088887287283006900010900478010620230000002000000623000000000167188553879XXXXXX9252       ME03KE06MS02      NY 4607AMDSMTKRRC0106  N840000000020000          81DNMR HEMP FLOWER           085558    MD84000000020000 N  549976053336   83842                    000000000+600450S00130    MDS  10813                     000000000  1                0000000000000.00 0000000.00   0000000.00                             000000000000000                                                                                                                                                   U001424  000000000000 0000000000000.32     00050 02200                  
02595160156470006DT67590675900000003707800888800000010180088824001193006900010900485010620230000001000000623000000000167188414720XXXXXX1165               2111111   NYV4 A7W583006548249121N840000000010000H7J400    01DNMR HEMP FLOWER           00358D    VS84000000010000 NP1549976053336   83843                    000000000+                D CD 12109                     000000000  N000000000 498   0000000000000.00 0000000.00   0000000.00                             000000000000000                                                                                                                                                     01424 G000000010000 0000000000002.60     02500 01000                  
02595170156470001P16759067590000000370780088880000001010000000000000000                             2000000000000000000000000              000000000000                    0000000000000000000000000                    000000000000                                                                                                                                                                                                                                                                                                                                                                                                                                                                                        
02595180156470007DT67590675900000003707800888800000010180088824001193006900010900501010620230000000249900623000000000167188403784XXXXXX1765               2111111   NYV4 A7W463006585975253N8400000000024999JR900    01DNMR HEMP FLOWER           016061    VS84000000002499 NP1549976053336   83854                    000000000+                D CD 12109                     000000000  N000000000 498   0000000000000.00 0000000.00   0000000.00                             000000000000000                                                                                                                                                     01424 G000000002499 0000000000000.72     02500 01000                  
02595190156470001P16759067590000000370780088880000001010000000000000000                             2000000000000000000000000              000000000000                    0000000000000000000000000                    000000000000                                                                                                                                                                                                                                                                                                                                                                                                                                                                                        
02595200156470008DT67590675900000003707800888800000010180088824001193006900010900535010620230000001042400623000000000167188414709XXXXXX7956               2111111   NYV4 A7W463006590275987N840000000010424BV4X00    01DNMR HEMP FLOWER           00432D    VS84000000010424 NP1549976053336   83855                    000000000+                D CD 12109                     000000000  N000000000 498   0000000000000.00 0000000.00   0000000.00                             000000000000000                                                                                                                                                     01424 G000000010424 0000000000002.71     02500 01000                  
02595210156470001P16759067590000000370780088880000001010000000000000000                             2000000000000000000000000              000000000000                    0000000000000000000000000                    000000000000                                                                                                                                                                                                                                                                                                                                                                                                                                                                                        
02595220156470009DT67590675900000003707800888800000010180088887287283006900010900544010620230000001049900623000000000167188542418XXXXXX1924       ME03KE06PT01      NY 4607AMCWTP54U10106  N840000000010499          81DNMR HEMP FLOWER           93120P    MC84000000010499 N  549976053336   83865                    000000000+600450S00130    MCW  00642                     000000000  N                0000000000000.00 0000000.00   0000000.00                             000000000000000                                                                                                                                                   U001424  000000000000 0000000000002.41     02200 01000                  
02595230156470010DT67590675900000003707800888800000010180088824001193006900010900550010620230000001150000623000000000167188406095XXXXXX1968               2111111   NYV4 A7W383006636911308N840000000011500CMW400    01DNMR HEMP FLOWER           03941C    VS84000000011500 NP1549976053336   83867                    000000000+                C CC 12108                     000000000  N000000000 496   0000000000000.00 0000000.00   0000000.00                             000000000000000                                                                                                                                                     01424 G000000011500 0000000000002.46     02050 01000                  
02595240156470001P16759067590000000370780088880000001010000000000000000                             2000000000000000000000000              000000000000                    0000000000000000000000000                    000000000000                                                                                                                                                                                                                                                                                                                                                                                                                                                                                        
02595250156470011DT67590675900000003707800888800000010180088887287283006900010900569010620230000001000000623000000000167188547018XXXXXX2316       ME03KE06PT01      NY 4607AMCWIU6YXE0106  N840000000010000          81DNMR HEMP FLOWER           65245Z    MC84000000010000 N  549976053336   83878                    000000000+600450S00130    MCW  00642                     000000000  N                0000000000000.00 0000000.00   0000000.00                             000000000000000                                                                                                                                                   U001424  000000000000 0000000000002.30     02200 01000                  
02595260156470012DT67590675900000003707800888800000010180088887287283006900010900585010620230000002900000623000000000167188521131XXXXXX8591       ME03KE06MS02      NY 4607AMWEJE5MXE0106  N840000000029000          81DNMR HEMP FLOWER           07429Z    MC84000000029000 N  549976053336   83879                    000000000+600450S00130    MWE  00737                     000000000  N                0000000000000.00 0000000.00   0000000.00                             000000000000000                                                                                                                                                   U001424  000000000000 0000000000007.64     02600 01000                  
02595270156470013DT67590675900000003707800888800000010180088824001193006900010900592010620230000001449700623000000000167188434258XXXXXX0218               2111111   NYV4 A7W303006778532209N840000000014497L7RW00    01DNMR HEMP FLOWER           029095    VD84000000014497 NP1549976053336   83888                    000000000+                F DF 10420                     000000000  Y000000000 338   0000000000000.00 0000000.00   0000000.00                             000000000000000                                                                                                                                                     01424 G000000014497 0000000000000.29     00050 02200                  
02595280156470001P16759067590000000370780088880000001010000000000000000                             2000000000000000000000000              000000000000                    0000000000000000000000000                    000000000000                                                                                                                                                                                                                                                                                                                                                                                                                                                                                        
02595290156470014DT67590675900000003707800888800000010180088824001193006900010900600010620230000001000000623000000000167188473972XXXXXX1516               2111111   NYV4 A7W383006789611341N840000000010000H35500    01DNMR HEMP FLOWER           006627    VS84000000010000 NP1549976053336   83889                    000000000+                A CA 12106                     000000000  N000000000 492   0000000000000.00 0000000.00   0000000.00                             000000000000000                                                                                                                                                     01424 G000000010000 0000000000001.99     01890 01000                  
02595300156470001P16759067590000000370780088880000001010000000000000000                             2000000000000000000000000              000000000000                    0000000000000000000000000                    000000000000                                                                                                                                                                                                                                                                                                                                                                                                                                                                                        
02595310156470015DT67590675900000003707800888800000010180088824001193006900010900626010620230000001000000623000000000167188426684XXXXXX8076               2111111   NYV4 A7W463007006002138N840000000010000B2HK00    01DNMR HEMP FLOWER           00015B    VS84000000010000 NP1549976053336   83896                    000000000+                B CB 12107                     000000000  N000000000 494   0000000000000.00 0000000.00   0000000.00                             000000000000000                                                                                                                                                     01424 G000000010000 0000000000002.14     02040 01000                  
02595320156470001P16759067590000000370780088880000001010000000000000000                             2000000000000000000000000              000000000000                    0000000000000000000000000                    000000000000                                                                                                                                                                                                                                                                                                                                                                                                                                                                                        
02595330169710002BH6759067590000000096880088880000090170108202300823000000000004838    0000090001183575N8008886759C01092023                                                                                                                                                                                                                                                                                                                                                                                                                                                                                                                                                                                                 
02595340169710003DT67590675900000000968800888800000010180088824001193008900011835753010720230000000483800823000000000004838401171XXXXXX5034               2111111   NYV4 A7W383007766404622N840000000004838BJDZ00    01DNHIGHER FLOUR LLC         061720    VD84000000004838 NP1546271004114   RBOIRX6BB8UPQGG44RA7     000000000+                F DF 00415                     000000000  N000000000       0000000000000.00 0000000.00   0000000.00                             000000000000000                                                                                                                                                     01418 G000000004838 0000000000000.95     01650 01500                  
02595350169710001P16759067590000000096880088880000001010000000000000000                             2000000000000000000000000              000000000000                    0000000000000000000000000                    000000000000                                                                                                                                                                                                                                                                                                                                                                                                                                                                                        
02595360169710004BH6759067590000000288180088880000090170108202300823000000000005797    0000090001360083N8008886759C01092023                                                                                                                                                                                                                                                                                                                                                                                                                                                                                                                                                                                                 
02595370169710005DT67590675900000002881800888800000010180088824001193008900013600833010720230000000579700823000000000005797427178XXXXXX8540               2111111   NYV4 A7W583007771795878N840000000005797BKW500    01DNHAPPY HIPPIE             132065    VD84000000005797 NP1549976044904   1901                     000000000+                F DF 10420                     000000000  Y000000000 338   0000000000000.00 0000000.00   0000000.00                             000000000000000                                                                                                                                                     01418 G000000005797 0000000000000.25     00050 02200                  
02595380169710001P16759067590000000288180088880000001010000000000000000                             2000000000000000000000000              000000000000                    0000000000000000000000000                    000000000000                                                                                                                                                                                                                                                                                                                                                                                                                                                                                        
02595390169710006BH6759067590000000370780088880000090170108202300823000000000033496    0000090001100066N8008886759C01092023                                                                                                                                                                                                                                                                                                                                                                                                                                                                                                                                                                                                 
02595400169710007DT67590675900000003707800888800000010180088887287283007900011000632010620230000000719900823000000000033496514377XXXXXX8525       ME03KE06MS02      NY 4607AMDJU7VPL40106  N840000000007199          81DNMR HEMP FLOWER           2IR9Q9    MD84000000007199 N  549976053336   83906                    000000000+600450S00130    MDJ  00401                     000000000  N                0000000000000.00 0000000.00   0000000.00                             000000000000000                                                                                                                                                   U001418  000000000000 0000000000001.34     01650 01500                  
02595410169710008DT67590675900000003707800888800000010180088824001193008900011000648010620230000000699800823000000000033496420767XXXXXX8577               2111111   NYV4 A7W303007118173638N840000000006998HW3P00    01DNMR HEMP FLOWER           071622    VD84000000006998 NP1549976053336   83907                    000000000+                F DF 10420                     000000000  Y000000000 338   0000000000000.00 0000000.00   0000000.00                             000000000000000                                                                                                                                                     01418 G000000006998 0000000000000.25     00050 02200                  
02595420169710001P16759067590000000370780088880000001010000000000000000                             2000000000000000000000000              000000000000                    0000000000000000000000000                    000000000000                                                                                                                                                                                                                                                                                                                                                                                                                                                                                        
02595430169710009DT67590675900000003707800888800000010180088824001193008900011000655010720230000000500000823000000000033496443238XXXXXX4249               2111111   NYV4 A7W303007457937391N840000000005000K8XG00    01DNMR HEMP FLOWER           074313    VD84000000005000 NP1549976053336   83916                    000000000+                F DF 00415                     000000000  N000000000       0000000000000.00 0000000.00   0000000.00                             000000000000000                                                                                                                                                     01418 G000000005000 0000000000000.98     01650 01500                  
02595440169710001P16759067590000000370780088880000001010000000000000000                             2000000000000000000000000              000000000000                    0000000000000000000000000                    000000000000                                                                                                                                                                                                                                                                                                                                                                                                                                                                                        
02595450169710010DT67590675900000003707800888800000010180088887287283007900011000665010720230000001429900823000000000033496544974XXXXXX2007       ME03KE06MS02      NY 4607AMCGB6UVCH0107  N840000000014299          81DNMR HEMP FLOWER           60179B    MC84000000014299 N  549976053336   83917                    000000000+600450S00130    MCG  00580                     000000000  N                0000000000000.00 0000000.00   0000000.00                             000000000000000                                                                                                                                                   U001418  000000000000 0000000000003.10     02100 01000                  
02595460185320002BH6759067590000000288180088880000090170108202300823000000000058445    0000090001130015N8008886759C01092023                                                                                                                                                                                                                                                                                                                                                                                                                                                                                                                                                                                                 
02595470185320003DT67590675900000002881800888800000010180088824001193008900011300014010820230000000316100823000000000058445449507XXXXXX0245       VS11    0001111   NYV1 A E383008573322496N840000000003161PVG500    05DNHAPPY HIPPIE             005532    VD84000000003161 N  549976487134                            000000000+                F DF 00381                     000000000  N000000000       0000000000000.00 0000000.00   0000000.00                             000000000000000                                                                                                                                                     01418 A000000000000 0000000000000.40     00800 01500                  
02595480185320004DT67590675900000002881800888800000010180088824001193008900011300022010820230000000316100823000000000058445415978XXXXXX3096       VS11    0001111   NYV1 A E463008573881411N840000000003161QC7W00    05DNHAPPY HIPPIE             035966    VD84000000003161 N  549976487134                            000000000+                F DF 10433                     000000000  Y000000000 338   0000000000000.00 0000000.00   0000000.00                             000000000000000                                                                                                                                                     01418 A000000000000 0000000000000.24     00050 02200                  
02595490185320005DT67590675900000002881800888800000010180088824001193008900011300030010820230000000641800823000000000058445449507XXXXXX3418       VS11    0001111   NYV1 A E303008608170613N840000000006418FBL700    05DNHAPPY HIPPIE             015337    VD84000000006418 N  549976487134                            000000000+                F DF 00381                     000000000  N000000000       0000000000000.00 0000000.00   0000000.00                             000000000000000                                                                                                                                                     01418 A000000000000 0000000000000.66     00800 01500                  
02595500185320006DT67590675900000002881800888800000010180088877287283008900011300040010820230000000177600823000000000058445542418XXXXXX3463       MS02WI09          NY 1 0 AMWELZ1J8V0108  N840000000001776          05DNHAPPY HIPPIE             05960P    MC84000000001776 N  549976487134                            000000000+M10101C5434C    MWE  00743                     000000000  N                0000000000000.00 0000000.00   0000000.00                             000000000000000                                                                                                                                                   B101418  000000000000 0000000000000.45     02300 00400                  
02595510185320007DT67590675900000002881800888800000010180088824001193008900011300055010820230000000078800823000000000058445417021XXXXXX5685       VK04VS111111111   NYV1 A E583008611979414N84000000000078897DF00    05DNHAPPY HIPPIE             725054    VD84000000000788 N  549976487134                            000000000+                F PF 08165                     000000000  N000000000       0000000000000.00 0000000.00   0000000.00                             000000000000000                                                                                                                                                     01418 F000000000000 0000000000000.18     01600 00500                  
02595520185320008DT67590675900000002881800888800000010180088824001193008900011300063010820230000000395000823000000000058445422921XXXXXX9546       VS11    0001111   NYV1 A E383008623329478N840000000003950NCSM00    05DNHAPPY HIPPIE             044333    VD84000000003950 N  549976487134                            000000000+                F DF 00381                     000000000  N000000000       0000000000000.00 0000000.00   0000000.00                             000000000000000                                                                                                                                                     01418 A000000000000 0000000000000.47     00800 01500                  
02595530185320009DT67590675900000002881800888800000010180088824001193008900011300071010820230000000157900823000000000058445403216XXXXXX5866       VS11    0001111   NYV1 A E303008632755968N840000000001579L4JB00    05DNHAPPY HIPPIE             030820    VS84000000001579 N  549976487134                            000000000+                A CA 12110                     000000000  N000000000 493   0000000000000.00 0000000.00   0000000.00                             000000000000000                                                                                                                                                     01418 A000000000000 0000000000000.34     01510 01000                  
02595540185320010DT67590675900000002881800888800000010180088824001193008900011300089010820230000000395000823000000000058445403216XXXXXX5866       VS11    0001111   NYV1 A E383008634309498N8400000000039505X9700    05DNHAPPY HIPPIE             013326    VS84000000003950 N  549976487134                            000000000+                A CA 12110                     000000000  N000000000 493   0000000000000.00 0000000.00   0000000.00                             000000000000000                                                                                                                                                     01418 A000000000000 0000000000000.70     01510 01000                  
02595550185320011DT67590675900000002881800888800000010180088877287283008900011300099010820230000001035600823000000000058445515068XXXXXX3788       MS02WI09          NY 2 0 AMDJT0TT7B0108  N840000000010356          05DNHAPPY HIPPIE             RUZQFY    MD84000000010356 N  549976487134                            000000000+M10101C1334C    MDJ  00402                     000000000  N                0000000000000.00 0000000.00   0000000.00                             000000000000000                                                                                                                                                     01418  000000000000 0000000000001.24     01050 01500                  
02595560185320012DT67590675900000002881800888800000010180088824001193008900011300105010820230000000158000823000000000058445486796XXXXXX5127       VS11    0001111   NYV1 A E303008645498743N840000000001580HR5P00    05DNHAPPY HIPPIE             095512    VD84000000001580 N  549976487134                            000000000+                F DF 10433                     000000000  Y000000000 338   0000000000000.00 0000000.00   0000000.00                             000000000000000                                                                                                                                                     01418 A000000000000 0000000000000.23     00050 02200                  
02595570185320013DT67590675900000002881800888800000010180088824001193008900011300113010820230000000296200823000000000058445498503XXXXXX6779       VS11    0001111   NYV1 A E383008711553408N84000000000296233CB00    05DNHAPPY HIPPIE             058530    VD84000000002962 N  549976487134                            000000000+                F DF 00381                     000000000  N000000000       0000000000000.00 0000000.00   0000000.00                             000000000000000                                                                                                                                                     01418 A000000000000 0000000000000.39     00800 01500                  
02595580185320014DT67590675900000002881800888800000010180088824001193008900011300121010820230000000877900823000000000058445419090XXXXXX1975       VS11    0001111   NYV1 A E303008718511289N840000000008779JF4500    05DNHAPPY HIPPIE             588190    VD84000000008779 N  549976487134                            000000000+                F DF 00381                     000000000  N000000000       0000000000000.00 0000000.00   0000000.00                             000000000000000                                                                                                                                                     01418 A000000000000 0000000000000.85     00800 01500                  
02595590185320015DT67590675900000002881800888800000010180088824001193008900011300139010820230000000362100823000000000058445431196XXXXXX8178       VS11    0001111   NYV1 A E463008741531452N8400000000036217DK700    05DNHAPPY HIPPIE             008866    VS84000000003621 N  549976487134                            000000000+                A CA 12110                     000000000  N000000000 493   0000000000000.00 0000000.00   0000000.00                             000000000000000                                                                                                                                                     01418 A000000000000 0000000000000.65     01510 01000                  
02595600185320016DT67590675900000002881800888800000010180088824001193008900011300147010820230000000197400823000000000058445461675XXXXXX4197       VS11    0001111   NYV1 A E383008747988917N8400000000019748BKZ00    05DNHAPPY HIPPIE             041980    VD84000000001974 N  549976487134                            000000000+                F DF 00381                     000000000  N000000000       0000000000000.00 0000000.00   0000000.00                             000000000000000                                                                                                                                                     01418 A000000000000 0000000000000.31     00800 01500                  
02595610185320017DT67590675900000002881800888800000010180088824001193008900011300154010820230000000439000823000000000058445443238XXXXXX5023       VS11    0001111   NYV1 A E583008758858047N840000000004390VVZB00    05DNHAPPY HIPPIE             060445    VD84000000004390 N  549976487134                            000000000+                F DF 00381                     000000000  N000000000       0000000000000.00 0000000.00   0000000.00                             000000000000000                                                                                                                                                     01418 A000000000000 0000000000000.50     00800 01500                  
02595620185320018BH6759067590000000288180088880000090170108202300823000000000031422    0000090001130009N8008886759C01092023                                                                                                                                                                                                                                                                                                                                                                                                                                                                                                                                                                                                 
02595630185320019DT67590675900000002881800888800000010180088876509753008900011300012010820230000000822900823000000000031422601100XXXXXX4557   BA50                  NY41 0 N873006439861653N840000000008229    00    05DNHAPPY HIPPIE             00835R    DS84000000008229 N  549976487158050                         000000000+0000004910H00   DCCDI01000601060  085306000000 000000000  0          112   0000000000000.00 0000000.00   0000000.00                             000000000000000                                                                                                                                                     01418  000000000000 0000000000001.52     01720 01000                  
02595640185320020DT67590675900000002881800888800000010180088824001193008900011300022010820230000000115200823000000000031422443264XXXXXX5230       VK04VS111111111   NYV1 A E583008591611351N840000000001152KSNR00    07DNHAPPY HIPPIE             008885    VD84000000001152 N  549976487158                            000000000+                F DF 10439                     000000000  Y000000000 331   0000000000000.00 0000000.00   0000000.00                             000000000000000                                                                                                                                                     01418 F000000000000 0000000000000.23     00050 02200                  
02595650185320021DT67590675900000002881800888800000010180088824001193008900011300030010820230000000592500823000000000031422415978XXXXXX2199       VS11    0001111   NYV1 A E583008596142712N8400000000059255LVP00    07DNHAPPY HIPPIE             041521    VD84000000005925 N  549976487158                            000000000+                F DF 10433                     000000000  Y000000000 338   0000000000000.00 0000000.00   0000000.00                             000000000000000                                                                                                                                                     01418 A000000000000 0000000000000.25     00050 02200                  
02595660185320022DT67590675900000002881800888800000010180088877287283008900011300040010820230000000493700823000000000031422558158XXXXXX8211                         NY 1 0 AMDBDN387E0108  N840000000004937          07DNHAPPY HIPPIE             2QBFSF    MD84000000004937 NP1549976487158                            000000000+M10101M0034C    MDB  00062                     000000000  N                0000000000000.00 0000000.00   0000000.00                             000000000000000                                                                                                                                                   B101418  000000000000 0000000000001.41     02650 01000                  
02595670185320001P1675906759000000028818008888000000101                                                          000000000000          3000            814767769                                                                                                                                                                                                                                                                                                                                                                                                                                                                                                                                                            
02595680185320023DT67590675900000002881800888800000010180088877287283008900011300057010820230000000087700823000000000031422523707XXXXXX9976       MS02WI09          NY 1 0 AMDJSA2U8Z0108  N840000000000877          05DNHAPPY HIPPIE             041289    MD84000000000877 N  549976487158                            000000000+M10101C5434C    MDJ  00505                     000000000  N                0000000000000.00 0000000.00   0000000.00                             000000000000000                                                                                                                                                   B101418  000000000000 0000000000000.18     01550 00400                  
02595690185320024DT67590675900000002881800888800000010180088824001193008900011300063010820230000000438900823000000000031422422921XXXXXX7123       VS11    0001111   NYV1 A E583008684612634N840000000004389DVGX00    07DNHAPPY HIPPIE             050462    VD84000000004389 N  549976487158                            000000000+                F DF 00381                     000000000  N000000000       0000000000000.00 0000000.00   0000000.00                             000000000000000                                                                                                                                                     01418 A000000000000 0000000000000.50     00800 01500                  
02595700185320025DT67590675900000002881800888800000010180088877287283008900011300073010820230000000263400823000000000031422542432XXXXXX9219       MS02WI09          NY 1 0 AMDJPDSYN70108  N840000000002634          07DNHAPPY HIPPIE             074287    MD84000000002634 N  549976487158                            000000000+M10101M0034C    MDJ  10815                     000000000  1                0000000000000.00 0000000.00   0000000.00                             000000000000000                                                                                                                                                   B101418  000000000000 0000000000000.23     00050 02200                  
02595710185320026DT67590675900000002881800888800000010180088877287283008900011300081010820230000000254300823000000000031422525363XXXXXX0616       MS02WI09          NY 1 0 AMWEP6BIN70108  N840000000002543          05DNHAPPY HIPPIE             82995Z    MC84000000002543 N  549976487158                            000000000+M10101C0034C    MWE  00743                     000000000  N                0000000000000.00 0000000.00   0000000.00                             000000000000000                                                                                                                                                   B101418  000000000000 0000000000000.62     02300 00400                  
02595720185320027DT67590675900000002881800888800000010180088824001193008900011300097010820230000000073600823000000000031422491523XXXXXX7823       VK04VS111111111   NYV1 A E383008829906141N8400000000007368KDF00    07DNHAPPY HIPPIE             017471    VD84000000000736 N  549976487158                            000000000+                F DF 10439                     000000000  Y000000000 331   0000000000000.00 0000000.00   0000000.00                             000000000000000                                                                                                                                                     01418 F000000000000 0000000000000.22     00050 02200                  
02595730185320028BH6759067590000000370780088880000090170108202300823000000000056821    0000090001110076N8008886759C01092023                                                                                                                                                                                                                                                                                                                                                                                                                                                                                                                                                                                                 
02595740185320029DT67590675900000003707800888800000010180088887287283008900011100696010720230000001000000823000000000056821544183XXXXXX8237       ME03KE06MS02      NY 4607AMCGU26SH80107  N840000000010000          81DNMR HEMP FLOWER           06553B    MC84000000010000 N  549976053336   83928                    000000000+600450S00130    MCG  00580                     000000000  N                0000000000000.00 0000000.00   0000000.00                             000000000000000                                                                                                                                                   U001418  000000000000 0000000000002.20     02100 01000                  
02595750185320030DT67590675900000003707800888800000010180088824001193008900011100703010720230000001232500823000000000056821427082XXXXXX0475               2111111   NYV4 A7W463008098483729N8400000000123253T7400    01DNMR HEMP FLOWER           007565    VS84000000012325 NP1549976053336   83929                    000000000+                D CD 12109                     000000000  N000000000 498   0000000000000.00 0000000.00   0000000.00                             000000000000000                                                                                                                                                     01418 G000000012325 0000000000003.18     02500 01000                  
02595760185320001P16759067590000000370780088880000001010000000000000000                             2000000000000000000000000              000000000000                    0000000000000000000000000                    000000000000                                                                                                                                                                                                                                                                                                                                                                                                                                                                                        
02595770185320031DT67590675900000003707800888800000010180088887287283008900011100720010820230000000899900823000000000056821546630XXXXXX0830       ME03KE06MS02      NY 4607AMWECY1Q7E0108  N840000000008999          81DNMR HEMP FLOWER           07792P    MC84000000008999 N  549976053336   83941                    000000000+600450S00130    MWE  00737                     000000000  N                0000000000000.00 0000000.00   0000000.00                             000000000000000                                                                                                                                                   U001418  000000000000 0000000000002.44     02600 01000                  
02595780185320032DT67590675900000003707800888800000010180088824001193008900011100745010820230000000549700823000000000056821473703XXXXXX6167               2111111   NYV4 A7W383008861064507N840000000005497NX9W00    01DNMR HEMP FLOWER           047283    VD84000000005497 NP1549976053336   83951                    000000000+                F DF 10420                     000000000  Y000000000 338   0000000000000.00 0000000.00   0000000.00                             000000000000000                                                                                                                                                     01418 G000000005497 0000000000000.25     00050 02200                  
02595790185320001P16759067590000000370780088880000001010000000000000000                             2000000000000000000000000              000000000000                    0000000000000000000000000                    000000000000                                                                                                                                                                                                                                                                                                                                                                                                                                                                                        
02595800185320033DT67590675900000003707800888800000010180088824001193008900011100760010820230000002000000823000000000056821414709XXXXXX9677               2111111   NYV4 A7W463009006675289N8400000000200004WJT00    01DNMR HEMP FLOWER           03221D    VS84000000020000 NP1549976053336   83954                    000000000+                D CD 12109                     000000000  N000000000 498   0000000000000.00 0000000.00   0000000.00                             000000000000000                                                                                                                                                     01418 G000000020000 0000000000005.10     02500 01000                  
02595810185320001P16759067590000000370780088880000001010000000000000000                             2000000000000000000000000              000000000000                    0000000000000000000000000                    000000000000                                                                                                                                                                                                                                                                                                                                                                                                                                                                                        
02595820185320034BH6759067590000000288180088880000090170108202300823000000000003286    0000090001370084N8008886759C01092023                                                                                                                                                                                                                                                                                                                                                                                                                                                                                                                                                                                                 
02595830185320035DT67590675900000002881800888800000010180088824001193008900013700849010720230000000328600823000000000003286434256XXXXXX2670               2111111   NYV4 A7W583008074617394N840000000003286V6LW00    01DNHAPPY HIPPIE             037128    VD84000000003286 NP1549976044904   1902                     000000000+                F DF 10420                     000000000  Y000000000 338   0000000000000.00 0000000.00   0000000.00                             000000000000000                                                                                                                                                     01418 G000000003286 0000000000000.24     00050 02200                  
02595840185320001P16759067590000000288180088880000001010000000000000000                             2000000000000000000000000              000000000000                    0000000000000000000000000                    000000000000                                                                                                                                                                                                                                                                                                                                                                                                                                                                                        
