02566280346366798AD675906759000000142748001028000009077900010504510000001855103142023NYY07323YC6759800102031620232023067034300                                                                                                                                                                                                                                                                                                                                                                                                                                                                                                                                                                                              
02566290346366801AD675906759000000133008001028000009071900012118000000002487003142023NYY07323ND6759800102031620232023073032007                                                                                                                                                                                                                                                                                                                                                                                                                                                                                                                                                                                              
02566300346366804AD675906759000000142748001028000009071900012115350000000499903142023NYY07323ND6759800102031620232023073032008                                                                                                                                                                                                                                                                                                                                                                                                                                                                                                                                                                                              
02566310346366807AD675906759000000142748001028000009071900011812200000001077103142023NYY07323ND6759800102031620232023073032009                                                                                                                                                                                                                                                                                                                                                                                                                                                                                                                                                                                              
02566320346366810AD675906759000000083348001018000009071900010700400000000246003142023NYY07323ND6759800101031620232023073032122                                                                                                                                                                                                                                                                                                                                                                                                                                                                                                                                                                                              
02566330346366813AD675906759000000142748001028000009071900011912760000001580503142023NYY07323ND6759800102031620232023073032123                                                                                                                                                                                                                                                                                                                                                                                                                                                                                                                                                                                              
02566340346366816AD675906759000000142748001028000009071900011912800000002487003142023NYY07323ND6759800102031620232023073032124                                                                                                                                                                                                                                                                                                                                                                                                                                                                                                                                                                                              
02566350346366819AD675906759000000142748001028000009071900011912810000000499903142023NYY07323ND6759800102031620232023073032125                                                                                                                                                                                                                                                                                                                                                                                                                                                                                                                                                                                              
02566360346366822AD675906759000000133008001028000009071900012117330000001499103142023NYY07323ND6759800102031620232023073039560                                                                                                                                                                                                                                                                                                                                                                                                                                                                                                                                                                                              
02566370346366825AD675906759000000133008001028000009071900012117890000002126103142023NYY07323ND6759800102031620232023073039561                                                                                                                                                                                                                                                                                                                                                                                                                                                                                                                                                                                              
02566380346366828AD675906759000000142748001028000009071900011710560000002080603142023NYY07323ND6759800102031620232023073039562                                                                                                                                                                                                                                                                                                                                                                                                                                                                                                                                                                                              
02566390348910002BH6759067590000000288180088880000090170315202307423000000000021871    0000090001690006N8008886759C03162023                                                                                                                                                                                                                                                                                                                                                                                                                                                                                                                                                                                                 
02566400348910003DT67590675900000002881800888800000010180088824001193074900016900015031520230000000325807423000000000021871480639XXXXXX6834       VS11    0001111   NYV1 A E303074619575243N840000000003258ZVWZ00    05DNHAPPY HIPPIE             860234    VD84000000003258 N  549976487134                            000000000+                F DF 00381                     000000000  N000000000       0000000000000.00 0000000.00   0000000.00                             000000000000000                                                                                                                                                     01418 A000000000000 0000000000000.41     00800 01500                  
02566410348910004DT67590675900000002881800888800000010180088877287283074900016900025031520230000000158007423000000000021871517805XXXXXX5462       MS02WI09          NY 1 0 AMPLG6U04A0315  N840000000001580          05DNHAPPY HIPPIE             01145B    MC84000000001580 N  549976487134                            000000000+M10101C5434C    MPL  00364                     000000000  N                0000000000000.00 0000000.00   0000000.00                             000000000000000                                                                                                                                                   B101418  000000000000 0000000000000.32     01800 00400                  
02566420348910005DT67590675900000002881800888800000010180088824001193074900016900031031520230000001322907423000000000021871486796XXXXXX7754       VS11    0001111   NYV1 A E463074628060164N8400000000132296BNK00    05DNHAPPY HIPPIE             062613    VD84000000013229 N  549976487134                            000000000+                F DF 10433                     000000000  Y000000000 338   0000000000000.00 0000000.00   0000000.00                             000000000000000                                                                                                                                                     01418 A000000000000 0000000000000.29     00050 02200                  
02566430348910006DT67590675900000002881800888800000010180088824001193074900016900049031520230000000205807423000000000021871443264XXXXXX5230       VS11    0001111   NYV1 A E463074725255798N840000000002058NS2B00    05DNHAPPY HIPPIE             030251    VD84000000002058 N  549976487134                            000000000+                F DF 10433                     000000000  Y000000000 338   0000000000000.00 0000000.00   0000000.00                             000000000000000                                                                                                                                                     01418 A000000000000 0000000000000.23     00050 02200                  
02566440348910007DT67590675900000002881800888800000010180088877287283074900016900058031520230000000149707423000000000021871518941XXXXXX4253       MS02WI09          NY 1 0 AMWEVAPW640315  N840000000001497          05DNHAPPY HIPPIE             43032Z    MC84000000001497 N  549976487134                            000000000+M10101C5434C    MWE  00743                     000000000  N                0000000000000.00 0000000.00   0000000.00                             000000000000000                                                                                                                                                   B101418  000000000000 0000000000000.38     02300 00400                  
02566450348910008DT67590675900000002881800888800000010180088824001193074900016900064031520230000000024907423000000000021871491523XXXXXX7823       VK04VS111111111   NYV1 A E303074766885673N840000000000249NGQG00    07DNHAPPY HIPPIE             008914    VD84000000000249 N  549976487134                            000000000+                F DF 10439                     000000000  Y000000000 331   0000000000000.00 0000000.00   0000000.00                             000000000000000                                                                                                                                                     01418 F000000000000 0000000000000.22     00050 02200                  
02566460348910009BH6759067590000000288180088880000090170315202307423000000000069365    0000090001710016N8008886759C03162023                                                                                                                                                                                                                                                                                                                                                                                                                                                                                                                                                                                                 
02566470348910010DT67590675900000002881800888800000010180088824001193074900017100011031520230000000324807423000000000069365480639XXXXXX6147       VS11    0001111   NYV1 A E383074520521572N840000000003248WK9W00    05DNHAPPY HIPPIE             855422    VD84000000003248 N  549976487158                            000000000+                F DF 00381                     000000000  N000000000       0000000000000.00 0000000.00   0000000.00                             000000000000000                                                                                                                                                     01418 A000000000000 0000000000000.41     00800 01500                  
02566480348910011DT67590675900000002881800888800000010180088824001193074900017100029031520230000000562907423000000000069365419090XXXXXX9633       VS11    0001111   NYV1 A E463074601930318N8400000000056296WNL00    05DNHAPPY HIPPIE             408779    VD84000000005629 N  549976487158                            000000000+                F DF 00381                     000000000  N000000000       0000000000000.00 0000000.00   0000000.00                             000000000000000                                                                                                                                                     01418 A000000000000 0000000000000.60     00800 01500                  
02566490348910012DT67590675900000002881800888800000010180088876509753074900017100035031520230000001299807423000000000069365601120XXXXXX7832   BA00                  NY 1 0 N803063556744437N840000000012998    00    01DNHAPPY HIPPIE             01585R    DS84000000012998 N  549976487158010                         000000000+0000004910H00   DCCDI01010003838  102754000000 000000000  0          122   0000000000000.00 0000000.00   0000000.00                             000000000000000                                                                                                                                                     01418  000000000000 0000000000002.74     02030 01000                  
02566500348910013DT67590675900000002881800888800000010180088824001193074900017100045031520230000000325807423000000000069365480639XXXXXX6856       VS11    0001111   NYV1 A E583074641227393N840000000003258Z3D300    05DNHAPPY HIPPIE             861349    VD84000000003258 N  549976487158                            000000000+                F DF 00381                     000000000  N000000000       0000000000000.00 0000000.00   0000000.00                             000000000000000                                                                                                                                                     01418 A000000000000 0000000000000.41     00800 01500                  
02566510348910014DT67590675900000002881800888800000010180088877287283074900017100054031520230000000043807423000000000069365515237XXXXXX1711       MS02WI09          NY 1 0 AMDJOJAX9V0315  N840000000000438          05DNHAPPY HIPPIE             693298    MD84000000000438 N  549976487158                            000000000+M10101C5434C    MDJ  00505                     000000000  N                0000000000000.00 0000000.00   0000000.00                             000000000000000                                                                                                                                                   B101418  000000000000 0000000000000.11     01550 00400                  
02566520348910015DT67590675900000002881800888800000010180088824001193074900017100060031520230000000552807423000000000069365444796XXXXXX9955       VS11    0001111   NYV1 A E583074650079096N840000000005528WLPN00    05DNHAPPY HIPPIE             015939    VS84000000005528 N  549976487158                            000000000+                A CA 12110                     000000000  N000000000 493   0000000000000.00 0000000.00   0000000.00                             000000000000000                                                                                                                                                     01418 A000000000000 0000000000000.93     01510 01000                  
02566530348910016DT67590675900000002881800888800000010180088824001193074900017100078031520230000000081207423000000000069365491523XXXXXX7823       VK04VS111111111   NYV1 A E463074678495328N84000000000081252WF00    07DNHAPPY HIPPIE             021428    VD84000000000812 N  549976487158                            000000000+                F DF 10439                     000000000  Y000000000 331   0000000000000.00 0000000.00   0000000.00                             000000000000000                                                                                                                                                     01418 F000000000000 0000000000000.22     00050 02200                  
02566540348910017DT67590675900000002881800888800000010180088877287283074900017100088031520230000000395007423000000000069365511953XXXXXX8729       MS02WI09          NY 1 0 AMDJEO8Y520315  N840000000003950          07DNHAPPY HIPPIE             007036    MD84000000003950 N  549976487158                            000000000+M10101M0034C    MDJ  00402                     000000000  N                0000000000000.00 0000000.00   0000000.00                             000000000000000                                                                                                                                                   B101418  000000000000 0000000000000.56     01050 01500                  
02566550348910018DT67590675900000002881800888800000010180088824001193074900017100094031520230000000246807423000000000069365480639XXXXXX6856       VS11    0001111   NYV1 A E303074691047437N840000000002468RTF800    05DNHAPPY HIPPIE             863868    VD84000000002468 N  549976487158                            000000000+                F DF 00381                     000000000  N000000000       0000000000000.00 0000000.00   0000000.00                             000000000000000                                                                                                                                                     01418 A000000000000 0000000000000.35     00800 01500                  
02566560348910019DT67590675900000002881800888800000010180088824001193074900017100102031520230000000128307423000000000069365422921XXXXXX7216       VK04VS111111111   NYV1 A E303074700379185N840000000001283V46D00    05DNHAPPY HIPPIE             055638    VD84000000001283 N  549976487158                            000000000+                F DF 00451                     000000000  N000000000 214   0000000000000.00 0000000.00   0000000.00                             000000000000000                                                                                                                                                     01418 F000000000000 0000000000000.24     01550 00400                  
02566570348910020DT67590675900000002881800888800000010180088824001193074900017100110031520230000000681207423000000000069365449507XXXXXX2913       VS11    0001111   NYV1 A E303074703858523N840000000006812373C00    05DNHAPPY HIPPIE             053305    VD84000000006812 N  549976487158                            000000000+                F DF 00381                     000000000  N000000000       0000000000000.00 0000000.00   0000000.00                             000000000000000                                                                                                                                                     01418 A000000000000 0000000000000.69     00800 01500                  
02566580348910021DT67590675900000002881800888800000010180088824001193074900017100128031520230000000740607423000000000069365422921XXXXXX7391       VS11    0001111   NYV1 A E583074727398105N840000000007406H8LC00    05DNHAPPY HIPPIE             058340    VD84000000007406 N  549976487158                            000000000+                F DF 00381                     000000000  N000000000       0000000000000.00 0000000.00   0000000.00                             000000000000000                                                                                                                                                     01418 A000000000000 0000000000000.74     00800 01500                  
02566590348910022DT67590675900000002881800888800000010180088824001193074900017100136031520230000000274307423000000000069365432739XXXXXX3439       VS11    0001111   NYV1 A E463074737794886N840000000002743NZJ400    05DNHAPPY HIPPIE             143993    VD84000000002743 N  549976487158                            000000000+                F DF 10433                     000000000  Y000000000 338   0000000000000.00 0000000.00   0000000.00                             000000000000000                                                                                                                                                     01418 A000000000000 0000000000000.23     00050 02200                  
02566600348910023DT67590675900000002881800888800000010180088824001193074900017100144031520230000000805307423000000000069365459954XXXXXX5604       VS11    0001111   NYV1 A E383074749118525N840000000008053HJCW00    05DNHAPPY HIPPIE             H62949    VD84000000008053 N  549976487158                            000000000+                F DF 10433                     000000000  Y000000000 338   0000000000000.00 0000000.00   0000000.00                             000000000000000                                                                                                                                                     01418 A000000000000 0000000000000.26     00050 02200                  
02566610348910024DT67590675900000002881800888800000010180088877287283074900017100153031520230000000148107423000000000069365511953XXXXXX8105       MS02WI09          NY 1 0 AMDJTHYH9V0315  N840000000001481          07DNHAPPY HIPPIE             074182    MD84000000001481 N  549976487158                            000000000+M10101M0034C    MDJ  00505                     000000000  N                0000000000000.00 0000000.00   0000000.00                             000000000000000                                                                                                                                                   B101418  000000000000 0000000000000.27     01550 00400                  
02566620348910025DT67590675900000002881800888800000010180088824001193074900017100169031520230000000325807423000000000069365445100XXXXXX4661       VS11    0001111   NYV1 A E383074755914994N840000000003258K5CJ00    05DNHAPPY HIPPIE             370379    VD84000000003258 N  549976487158                            000000000+                F DF 10433                     000000000  Y000000000 338   0000000000000.00 0000000.00   0000000.00                             000000000000000                                                                                                                                                     01418 A000000000000 0000000000000.24     00050 02200                  
02566630348910026BH6759067590000000215480088880000090170315202307423000000003756277    0000090001337574N8008886759C03162023                                                                                                                                                                                                                                                                                                                                                                                                                                                                                                                                                                                                 
02566640348910027DT67590675900000002154800888800000010180088824001193074900013385368031520230000002700007423000000003756277486796XXXXXX2033               2111111   NYV4 A7W383074626369466N840000000027000ZRQ500    01DNDRIP DROP DISTRO LLC     062313    VD84000000027000 NP1519971004114   INV-001183               000000000+                F DF 10420                     000000000  Y000000000 338   0000000000000.00 0000000.00   0000000.00                             000000000000000                                                                                                                                                     01418 G000000027000 0000000000000.36     00050 02200                  
02566650348910001P16759067590000000215480088880000001010000000000000000                             2000000000000000000000000              000000000000                    0000000000000000000000000                    000000000000                                                                                                                                                                                                                                                                                                                                                                                                                                                                                        
02566660348910028DT67590675900000002154800888800000010180088887287283074900013389007031520230000343693007423000000003756277547415XXXXXX7255                         NY 4607AMEBOM1H9V0315  N840000003436930          81DNDRIP DROP DISTRO LLC     08751Q    MB84000003436930 NP1519900000001   INV-001182               000000000+600450S00140    MEB  11637                     000000000  N                0000000000000.00 0000000.00   0000000.00                             000000000000000                                                                                                                                                   U001418  000000000000 0000000001031.18     03000 01000                  
02566670348910001P1675906759000000021548008888000000101                                                          000000000000          8000            471534935                                                                                                                                                                                                                                                                                                                                                                                                                                                                                                                                                            
02566680348910029DT67590675900000002154800888800000010180088887287283074900013338301031520230000003429907423000000003756277547415XXXXXX7571                         NY 4607AMEBHZN5RX0314  N840000000034299          81DNDRIP DROP DISTRO LLC     09490Q    MB84000000034299 NP1519900000001   17551                    000000000+600450S00140    MEB  11637                     000000000  N                0000000000000.00 0000000.00   0000000.00                             000000000000000                                                                                                                                                   U001418  000000000000 0000000000010.39     03000 01000                  
02566690348910001P1675906759000000021548008888000000101                                                          000000000000          8000            471534935                                                                                                                                                                                                                                                                                                                                                                                                                                                                                                                                                            
02566700348910030DT67590675900000002154800888800000010180088887287283074900013389155031520230000011494807423000000003756277547415XXXXXX6818                         NY 4607AMEBPU01HS0314  N840000000114948          81DNDRIP DROP DISTRO LLC     00736Q    MB84000000114948 NP1519900000001   17552                    000000000+600450S00140    MEB  11637                     000000000  N                0000000000000.00 0000000.00   0000000.00                             000000000000000                                                                                                                                                   U001418  000000000000 0000000000034.58     03000 01000                  
02566710348910001P1675906759000000021548008888000000101                                                          000000000000          8000            471534935                                                                                                                                                                                                                                                                                                                                                                                                                                                                                                                                                            
02566720348910031DT67590675900000002154800888800000010180088824001193074900013375740031520230000014310007423000000003756277414775XXXXXX7017               2111111   NYV4 A7W303074619156490N840000000143100PDXN00    01DNDRIP DROP DISTRO LLC     215111    VS84000000143100 NP1519971004114   INV-001180               000000000+                D CD 12109                     000000000  N000000000 498   0000000000000.00 0000000.00   0000000.00                             000000000000000                                                                                                                                                     01418 G000000143100 0000000000035.88     02500 01000                  
02566730348910001P16759067590000000215480088880000001010000000000000000                             2000000000000000000000000              000000000000                    0000000000000000000000000                    000000000000                                                                                                                                                                                                                                                                                                                                                                                                                                                                                        
02566740348910032BH6759067590000000995180010180000090170315202307423000000000027875    0000090001360008N8001016759C03162023                                                                                                                                                                                                                                                                                                                                                                                                                                                                                                                                                                                                 
02566750348910033DT67590675900000009951800101800000010180010124001193074900013600014031520230000000213707423000000000027875448261XXXXXX0352       VS11    0001111   NYV1 A E303074547924316N840000000002137KGWK00    05DNPLANET VAPOR #500        667833    VD84000000002137 N  599976923295                            000000000+                F DF 10433                     000000000  Y000000000 338   0000000000000.00 0000000.00   0000000.00                             000000000000000                                                                                                                                                     01418 A000000000000 0000000000000.23     00050 02200                  
02566760348910034DT67590675900000009951800101800000010180010124001193074900013600022031520230000001187707423000000000027875453506XXXXXX8764       VS11    0001111   NYV1 A E303074673339084N840000000011877B56200    05DNPLANET VAPOR #500        H46158    VD84000000011877 N  599976923295                            000000000+                F DF 10433                     000000000  Y000000000 338   0000000000000.00 0000000.00   0000000.00                             000000000000000                                                                                                                                                     01418 A000000000000 0000000000000.28     00050 02200                  
02566770348910035DT67590675900000009951800101800000010180010177287283074900013600032031520230000000242907423000000000027875528149XXXXXX5549       MS02WI09          NY 1 0 AMDJQ5EF9V0315  N840000000002429          05DNPLANET VAPOR #500        055917    MD84000000002429 N  599976923295                            000000000+M10101C5434C    MDJ  00402                     000000000  N                0000000000000.00 0000000.00   0000000.00                             000000000000000                                                                                                                                                   B101418  000000000000 0000000000000.41     01050 01500                  
02566780348910036DT67590675900000009951800101800000010180010124001193074900013600048031520230000000252607423000000000027875438419XXXXXX7384       VS11    0001111   NYV1 A E583074754280871N840000000002526BHJZ00    05DNPLANET VAPOR #500        065708    VD84000000002526 N  599976923295                            000000000+                F DF 00381                     000000000  N000000000       0000000000000.00 0000000.00   0000000.00                             000000000000000                                                                                                                                                     01418 A000000000000 0000000000000.35     00800 01500                  
02566790348910037DT67590675900000009951800101800000010180010124001193074900013600055031520230000000242907423000000000027875474166XXXXXX6211       VS11    0001111   NYV1 A E583074773852532N8400000000024296H5K00    05DNPLANET VAPOR #500        081213    VD84000000002429 N  599976923295                            000000000+                G DG 10351                     000000000  Y000000000 338   0000000000000.00 0000000.00   0000000.00                             000000000000000                                                                                                                                                     01418 A000000000000 0000000000000.23     00050 02200                  
02566800348910038DT67590675900000009951800101800000010180010124001193074900013600063031520230000000399407423000000000027875438419XXXXXX7860       VS11    0001111   NYV1 A E463074785211901N840000000003994L54N00    05DNPLANET VAPOR #500        074841    VD84000000003994 N  599976923295                            000000000+                F DF 00381                     000000000  N000000000       0000000000000.00 0000000.00   0000000.00                             000000000000000                                                                                                                                                     01418 A000000000000 0000000000000.47     00800 01500                  
02566810348910039DT67590675900000009951800101800000010180010124001193074900013600071031520230000000097207423000000000027875440393XXXXXX4062       VK04VS111111111   NYV1 A E383074843606442N840000000000972XXZS00    05DNPLANET VAPOR #500        973736    VD84000000000972 N  599976923295                            000000000+                F PF 08165                     000000000  N000000000       0000000000000.00 0000000.00   0000000.00                             000000000000000                                                                                                                                                     01418 F000000000000 0000000000000.21     01600 00500                  
02566820348910040DT67590675900000009951800101800000010180010124001193074900013600089031520230000000151107423000000000027875466189XXXXXX3002       VS11    0001111   NYV1 A E303074855474856N840000000001511TJ5R00    05DNPLANET VAPOR #500        005493    VD84000000001511 N  599976923295                            000000000+                F DF 10433                     000000000  Y000000000 338   0000000000000.00 0000000.00   0000000.00                             000000000000000                                                                                                                                                     01418 A000000000000 0000000000000.23     00050 02200                  
02566830348910041BH6759067590000001090080010180000090170315202307423000000000219027    0000090001330050N8001016759C03162023                                                                                                                                                                                                                                                                                                                                                                                                                                                                                                                                                                                                 
02566840348910042DT67590675900000010900800101800000010180010124001193074900013300011031420230000000377907423000000000219027408138XXXXXX1901       VS11    0001111   NYV1 A E583073514320224N8400000000037795CK800    07DNPLANET VAPOR #700        478109    VD84000000003779 N  599976923375                            000000000+                F PF 08170                     000000000  N000000000       0000000000000.00 0000000.00   0000000.00                             000000000000000                                                                                                                                                     01418 A000000000000 0000000000000.58     01150 01500                  
02566850348910043DT67590675900000010900800101800000010180010124001193074900013300029031420230000000269907423000000000219027440393XXXXXX1054       VS11    0001111   NYV1 A E383073591066242N840000000002699C72F00    05DNPLANET VAPOR #700        019036    VD84000000002699 N  599976923375                            000000000+                F PF 08170                     000000000  N000000000       0000000000000.00 0000000.00   0000000.00                             000000000000000                                                                                                                                                     01418 A000000000000 0000000000000.46     01150 01500                  
02566860348910044DT67590675900000010900800101800000010180010177287283074900013300039031420230000000237507423000000000219027545443XXXXXX2172       MS02WI09          NY 1 0 AMDJW4O5NU0314  N840000000002375          05DNPLANET VAPOR #700        061850    MD84000000002375 N  599976923375                            000000000+M10101C5434C    MDJ  00402                     000000000  N                0000000000000.00 0000000.00   0000000.00                             000000000000000                                                                                                                                                   B101418  000000000000 0000000000000.40     01050 01500                  
02566870348910045DT67590675900000010900800101800000010180010177287283074900013300047031420230000000550607423000000000219027531258XXXXXX2499       MS02WI09          NY 1 0 AMDJZCQ5EE0314  N840000000005506          05DNPLANET VAPOR #700        170904    MD84000000005506 N  599976923375                            000000000+M10101C5434C    MDJ  10815                     000000000  1                0000000000000.00 0000000.00   0000000.00                             000000000000000                                                                                                                                                   B101418  000000000000 0000000000000.25     00050 02200                  
02566880348910046DT67590675900000010900800101800000010180010124001193074900013300052031420230000000647607423000000000219027465998XXXXXX4555       VS11    0001111   NYV1 A E583073669757758N8400000000064763NSS00    05DNPLANET VAPOR #700        014173    VS84000000006476 N  599976923375                            000000000+                A CA 12110                     000000000  N000000000 493   0000000000000.00 0000000.00   0000000.00                             000000000000000                                                                                                                                                     01418 A000000000000 0000000000001.08     01510 01000                  
02566890348910047DT67590675900000010900800101800000010180010124001193074900013300060031420230000000213707423000000000219027433477XXXXXX1985       VS11    0001111   NYV1 A E303073684655398N8400000000021375H8W00    05DNPLANET VAPOR #700        672420    VD84000000002137 N  599976923375                            000000000+                F DF 10433                     000000000  Y000000000 338   0000000000000.00 0000000.00   0000000.00                             000000000000000                                                                                                                                                     01418 A000000000000 0000000000000.23     00050 02200                  
02566900348910048DT67590675900000010900800101800000010180010177287283074900013300070031420230000000626007423000000000219027510805XXXXXX5123       MS02WI09          NY 1 0 AMDJWSL4EE0314  N840000000006260          05DNPLANET VAPOR #700        041339    MD84000000006260 N  599976923375                            000000000+M10101C5434C    MDJ  10815                     000000000  1                0000000000000.00 0000000.00   0000000.00                             000000000000000                                                                                                                                                   B101418  000000000000 0000000000000.25     00050 02200                  
02566910348910049DT67590675900000010900800101800000010180010124001193074900013300086031420230000000528807423000000000219027406049XXXXXX8760       VS11    0001111   NYV1 A E303073697156003N840000000005288ZGBV00    05DNPLANET VAPOR #700        042155    VD84000000005288 N  599976923375                            000000000+                F DF 10433                     000000000  Y000000000 338   0000000000000.00 0000000.00   0000000.00                             000000000000000                                                                                                                                                     01418 A000000000000 0000000000000.25     00050 02200                  
02566920348910050DT67590675900000010900800101800000010180010124001193074900013300094031420230000000213707423000000000219027410492XXXXXX0041       VS11    0001111   NYV1 A E383073700729726N840000000002137TGR900    07DNPLANET VAPOR #700        729493    VD84000000002137 N  599976923375                            000000000+                F DF 10433                     000000000  Y000000000 338   0000000000000.00 0000000.00   0000000.00                             000000000000000                                                                                                                                                     01418 A000000000000 0000000000000.23     00050 02200                  
02566930348910051DT67590675900000010900800101800000010180010124001193074900013300102031420230000000475007423000000000219027440393XXXXXX1560       VS11    0001111   NYV1 A E463073721740654N840000000004750JDXF00    05DNPLANET VAPOR #700        121370    VD84000000004750 N  599976923375                            000000000+                F PF 08170                     000000000  N000000000       0000000000000.00 0000000.00   0000000.00                             000000000000000                                                                                                                                                     01418 A000000000000 0000000000000.70     01150 01500                  
02566940348910052DT67590675900000010900800101800000010180010177287283074900013300112031420230000000215907423000000000219027523957XXXXXX3195       MS02WI09          NY 1 0 AMDJD1BGEF0314  N840000000002159          05DNPLANET VAPOR #700        213610    MD84000000002159 N  599976923375                            000000000+M10101C5434C    MDJ  00402                     000000000  N                0000000000000.00 0000000.00   0000000.00                             000000000000000                                                                                                                                                   B101418  000000000000 0000000000000.38     01050 01500                  
02566950348910053DT67590675900000010900800101800000010180010124001193074900013300128031420230000000237507423000000000219027433477XXXXXX3642       VS11    0001111   NYV1 A E583073743238878N840000000002375HB4800    05DNPLANET VAPOR #700        764712    VD84000000002375 N  599976923375                            000000000+                F DF 10433                     000000000  Y000000000 338   0000000000000.00 0000000.00   0000000.00                             000000000000000                                                                                                                                                     01418 A000000000000 0000000000000.23     00050 02200                  
02566960348910054DT67590675900000010900800101800000010180010124001193074900013300136031420230000000151107423000000000219027448233XXXXXX6283       VS11    0001111   NYV1 A E463073760753105N840000000001511WHZN00    05DNPLANET VAPOR #700        060756    VD84000000001511 N  599976923375                            000000000+                F DF 10433                     000000000  Y000000000 338   0000000000000.00 0000000.00   0000000.00                             000000000000000                                                                                                                                                     01418 A000000000000 0000000000000.23     00050 02200                  
02566970348910055DT67590675900000010900800101800000010180010124001193074900013300144031420230000000215907423000000000219027410702XXXXXX8873       VS11    0001111   NYV1 A E583073761456688N8400000000021595ZKD00    05DNPLANET VAPOR #700        161837    VD84000000002159 N  599976923375                            000000000+                F DF 00381                     000000000  N000000000       0000000000000.00 0000000.00   0000000.00                             000000000000000                                                                                                                                                     01418 A000000000000 0000000000000.32     00800 01500                  
02566980348910056DT67590675900000010900800101800000010180010124001193074900013300151031420230000000439907423000000000219027433477XXXXXX6585       VS11    0001111   NYV1 A E303073771633239N8400000000043995MV500    05DNPLANET VAPOR #700        811159    VD84000000004399 N  599976923375                            000000000+                F DF 10433                     000000000  Y000000000 338   0000000000000.00 0000000.00   0000000.00                             000000000000000                                                                                                                                                     01418 A000000000000 0000000000000.24     00050 02200                  
02566990348910057DT67590675900000010900800101800000010180010124001193074900013300169031420230000000213707423000000000219027438419XXXXXX9236       VS11    0001111   NYV1 A E583073777055229N8400000000021376PGV00    05DNPLANET VAPOR #700        073505    VD84000000002137 N  599976923375                            000000000+                F DF 00381                     000000000  N000000000       0000000000000.00 0000000.00   0000000.00                             000000000000000                                                                                                                                                     01418 A000000000000 0000000000000.32     00800 01500                  
02567000348910058DT67590675900000010900800101800000010180010124001193074900013300177031420230000000485907423000000000219027458643XXXXXX8297       VS11    0001111   NYV1 A E463073791946557N840000000004859C3N800    05DNPLANET VAPOR #700        H70900    VD84000000004859 N  599976923375                            000000000+                F DF 10433                     000000000  Y000000000 338   0000000000000.00 0000000.00   0000000.00                             000000000000000                                                                                                                                                     01418 A000000000000 0000000000000.24     00050 02200                  
02567010348910059DT67590675900000010900800101800000010180010177287283074900013300203031420230000000625807423000000000219027531258XXXXXX5799       MS02WI09          NY 1 0 AMDJCWK6RX0314  N840000000006258          05DNPLANET VAPOR #700        194159    MD84000000006258 N  599976923375                            000000000+M10101C5434C    MDJ  10815                     000000000  1                0000000000000.00 0000000.00   0000000.00                             000000000000000                                                                                                                                                   B101418  000000000000 0000000000000.25     00050 02200                  
02567020348910060DT67590675900000010900800101800000010180010124001193074900013300219031420230000001411807423000000000219027466189XXXXXX1326       VS11    0001111   NYV1 A E303073825664223N840000000014118XT9800    05DNPLANET VAPOR #700        046613    VD84000000014118 N  599976923375                            000000000+                F DF 10433                     000000000  Y000000000 338   0000000000000.00 0000000.00   0000000.00                             000000000000000                                                                                                                                                     01418 A000000000000 0000000000000.29     00050 02200                  
02567030348910061DT67590675900000010900800101800000010180010124001193074900013300227031420230000000269907423000000000219027440393XXXXXX8748       VS11    0001111   NYV1 A E583073859926234N8400000000026996DQP00    05DNPLANET VAPOR #700        854355    VD84000000002699 N  599976923375                            000000000+                F PF 08170                     000000000  N000000000       0000000000000.00 0000000.00   0000000.00                             000000000000000                                                                                                                                                     01418 A000000000000 0000000000000.46     01150 01500                  
02567040348910062DT67590675900000010900800101800000010180010124001193074900013300235031520230000000194307423000000000219027453506XXXXXX6829       VS11    0001111   NYV1 A E583074534812124N840000000001943PQN900    05DNPLANET VAPOR #700        H97135    VD84000000001943 N  599976923375                            000000000+                F DF 10433                     000000000  Y000000000 338   0000000000000.00 0000000.00   0000000.00                             000000000000000                                                                                                                                                     01418 A000000000000 0000000000000.23     00050 02200                  
02567050348910063DT67590675900000010900800101800000010180010124001193074900013300243031520230000000131707423000000000219027410702XXXXXX6814       VK04VS111111111   NYV1 A E583074554758645N840000000001317ZKCB00    05DNPLANET VAPOR #700        106407    VD84000000001317 N  599976923375                            000000000+                F DF 00451                     000000000  N000000000 214   0000000000000.00 0000000.00   0000000.00                             000000000000000                                                                                                                                                     01418 F000000000000 0000000000000.24     01550 00400                  
02567060348910064DT67590675900000010900800101800000010180010124001193074900013300250031520230000000563507423000000000219027438419XXXXXX8335       VS11    0001111   NYV1 A E463074563705778N840000000005635XN5Z00    07DNPLANET VAPOR #700        013930    VD84000000005635 N  599976923375                            000000000+                F DF 00381                     000000000  N000000000       0000000000000.00 0000000.00   0000000.00                             000000000000000                                                                                                                                                     01418 A000000000000 0000000000000.60     00800 01500                  
02567070348910065DT67590675900000010900800101800000010180010124001193074900013300268031520230000000987707423000000000219027458643XXXXXX4882       VS11    0001111   NYV1 A E383074568727522N8400000000098776Z8Q00    05DNPLANET VAPOR #700        H14702    VD84000000009877 N  599976923375                            000000000+                F DF 10433                     000000000  Y000000000 338   0000000000000.00 0000000.00   0000000.00                             000000000000000                                                                                                                                                     01418 A000000000000 0000000000000.27     00050 02200                  
02567080348910066DT67590675900000010900800101800000010180010124001193074900013300276031520230000000067907423000000000219027438419XXXXXX7006       VK04VS111111111   NYV1 A E583074572997696N840000000000679RLDZ00    05DNPLANET VAPOR #700        015500    VD84000000000679 N  599976923375                            000000000+                F DF 00451                     000000000  N000000000 214   0000000000000.00 0000000.00   0000000.00                             000000000000000                                                                                                                                                     01418 F000000000000 0000000000000.15     01550 00400                  
02567090348910067DT67590675900000010900800101800000010180010124001193074900013300284031520230000000496507423000000000219027438419XXXXXX8335       VS11    0001111   NYV1 A E383074577237383N840000000004965GW8K00    07DNPLANET VAPOR #700        020203    VD84000000004965 N  599976923375                            000000000+                F DF 00381                     000000000  N000000000       0000000000000.00 0000000.00   0000000.00                             000000000000000                                                                                                                                                     01418 A000000000000 0000000000000.55     00800 01500                  
02567100348910068DT67590675900000010900800101800000010180010124001193074900013300292031520230000000709707423000000000219027441839XXXXXX3143       VS11    0001111   NYV1 A E583074578974852N8400000000070977XHX00    07DNPLANET VAPOR #700        429188    VS84000000007097 N  599976923375                            000000000+                C CC 12112                     000000000  N000000000 497   0000000000000.00 0000000.00   0000000.00                             000000000000000                                                                                                                                                     01418 A000000000000 0000000000001.27     01650 01000                  
02567110348910069DT67590675900000010900800101800000010180010177287283074900013300302031520230000000213707423000000000219027514377XXXXXX3789       MS02WI09          NY 1 0 AMDJW6WV1N0315  N840000000002137          07DNPLANET VAPOR #700        1MR6VW    MD84000000002137 N  599976923375                            000000000+M10101M0034C    MDJ  00402                     000000000  N                0000000000000.00 0000000.00   0000000.00                             000000000000000                                                                                                                                                   B101418  000000000000 0000000000000.37     01050 01500                  
02567120348910070DT67590675900000010900800101800000010180010124001193074900013300318031520230000000269907423000000000219027440393XXXXXX5198       VS11    0001111   NYV1 A E303074584550583N840000000002699T84D00    07DNPLANET VAPOR #700        659384    VD84000000002699 N  599976923375                            000000000+                F PF 08170                     000000000  N000000000       0000000000000.00 0000000.00   0000000.00                             000000000000000                                                                                                                                                     01418 A000000000000 0000000000000.46     01150 01500                  
02567130348910071DT67590675900000010900800101800000010180010124001193074900013300326031520230000000070207423000000000219027440393XXXXXX5198       VK04VS111111111   NYV1 A E463074586125070N840000000000702SSDL00    07DNPLANET VAPOR #700        315441    VD84000000000702 N  599976923375                            000000000+                F PF 08165                     000000000  N000000000       0000000000000.00 0000000.00   0000000.00                             000000000000000                                                                                                                                                     01418 F000000000000 0000000000000.16     01600 00500                  
02567140348910072DT67590675900000010900800101800000010180010177287283074900013300336031520230000000242907423000000000219027523957XXXXXX1781       MS02WI09          NY 1 0 AMDJHWCW0T0315  N840000000002429          05DNPLANET VAPOR #700        746640    MD84000000002429 N  599976923375                            000000000+M10101C5434C    MDJ  00402                     000000000  N                0000000000000.00 0000000.00   0000000.00                             000000000000000                                                                                                                                                   B101418  000000000000 0000000000000.41     01050 01500                  
02567150348910073DT67590675900000010900800101800000010180010124001193074900013300342031520230000001532807423000000000219027411870XXXXXX1961       VS11    0001111   NYV1 A E583074622648853N840000000015328JMGQ00    05DNPLANET VAPOR #700        015854    VS84000000015328 N  599976923375                            000000000+                C CC 12112                     000000000  N000000000 497   0000000000000.00 0000000.00   0000000.00                             000000000000000                                                                                                                                                     01418 A000000000000 0000000000002.63     01650 01000                  
02567160348910074DT67590675900000010900800101800000010180010124001193074900013300359031520230000000194307423000000000219027438419XXXXXX3021       VS11    0001111   NYV1 A E463074630728152N840000000001943QK4G00    05DNPLANET VAPOR #700        033112    VD84000000001943 N  599976923375                            000000000+                F DF 00381                     000000000  N000000000       0000000000000.00 0000000.00   0000000.00                             000000000000000                                                                                                                                                     01418 A000000000000 0000000000000.31     00800 01500                  
02567170348910075DT67590675900000010900800101800000010180010173011003074900013300363031520230000000917707423000000000219027371697XXXXX1007                          NY 1 0 N004449277120320N840000000009177          07DNPLANET VAPOR INC #700    801856    AM84000000009177 N  599976923375                            000000000+51010X55434C 258     11262                     000000000                   0000000000000.00 0000000.00   0000000.00                             000000000000000 61248972086759675900000010900 PLANET VAPOR INC #700    718 HWY 1 SOUTH UNIT B   8035462263      29078     KEVIN@MOOREDISTRO.COM                     01418  000000000000 0000000000001.89     01950 00000                  
02567180348910076DT67590675900000010900800101800000010180010177287283074900013300377031520230000000136007423000000000219027517805XXXXXX8490       MS02WI09          NY 1 0 AMPLWXUP9V0315  N840000000001360          07DNPLANET VAPOR #700        04416B    MC84000000001360 N  599976923375                            000000000+M10101M0034C    MPL  00353                     000000000  N                0000000000000.00 0000000.00   0000000.00                             000000000000000                                                                                                                                                   B101418  000000000000 0000000000000.34     01800 01000                  
02567190348910077DT67590675900000010900800101800000010180010124001193074900013300383031520230000000437307423000000000219027474474XXXXXX1232       VS11    0001111   NYV1 A E303074676809218N8400000000043736LBP00    07DNPLANET VAPOR #700        184079    VD84000000004373 N  599976923375                            000000000+                F DF 10433                     000000000  Y000000000 338   0000000000000.00 0000000.00   0000000.00                             000000000000000                                                                                                                                                     01418 A000000000000 0000000000000.24     00050 02200                  
02567200348910078DT67590675900000010900800101800000010180010124001193074900013300391031520230000000420807423000000000219027473702XXXXXX9763       VS11    0001111   NYV1 A E463074696201864N840000000004208MFMP00    05DNPLANET VAPOR #700        005081    VD84000000004208 N  599976923375                            000000000+                F DF 10433                     000000000  Y000000000 338   0000000000000.00 0000000.00   0000000.00                             000000000000000                                                                                                                                                     01418 A000000000000 0000000000000.24     00050 02200                  
02567210348910079DT67590675900000010900800101800000010180010124001193074900013300409031520230000001360607423000000000219027466189XXXXXX1326       VS11    0001111   NYV1 A E303074703651164N840000000013606X4MK00    05DNPLANET VAPOR #700        053957    VD84000000013606 N  599976923375                            000000000+                F DF 10433                     000000000  Y000000000 338   0000000000000.00 0000000.00   0000000.00                             000000000000000                                                                                                                                                     01418 A000000000000 0000000000000.29     00050 02200                  
02567220348910080DT67590675900000010900800101800000010180010177287283074900013300419031520230000000215907423000000000219027514377XXXXXX5635       MS02WI09          NY 1 0 AMDJ7ST4510315  N840000000002159          07DNPLANET VAPOR #700        223INP    MD84000000002159 N  599976923375                            000000000+M10101M0034C    MDJ  00402                     000000000  N                0000000000000.00 0000000.00   0000000.00                             000000000000000                                                                                                                                                   B101418  000000000000 0000000000000.38     01050 01500                  
02567230348910081DT67590675900000010900800101800000010180010124001193074900013300425031520230000000583107423000000000219027463405XXXXXX0301       VS11    0001111   NYV1 A E303074729969510N8400000000058316R7X00    07DNPLANET VAPOR #700        039967    VD84000000005831 N  599976923375                            000000000+                F DF 10433                     000000000  Y000000000 338   0000000000000.00 0000000.00   0000000.00                             000000000000000                                                                                                                                                     01418 A000000000000 0000000000000.25     00050 02200                  
02567240348910082DT67590675900000010900800101800000010180010124001193074900013300433031520230000000466307423000000000219027461675XXXXXX1204       VS11    0001111   NYV1 A E463074731262292N8400000000046636KPT00    05DNPLANET VAPOR #700        191360    VD84000000004663 N  599976923375                            000000000+                F DF 00381                     000000000  N000000000       0000000000000.00 0000000.00   0000000.00                             000000000000000                                                                                                                                                     01418 A000000000000 0000000000000.52     00800 01500                  
02567250348910083DT67590675900000010900800101800000010180010177287283074900013300443031520230000000712507423000000000219027534774XXXXXX7783                         NY 1 0 AMDBUMFH640315  N840000000007125          05DNPLANET VAPOR #700        612366    MD84000000007125 NP1599976923375                            000000000+M10101C5434C    MDB  00062                     000000000  N                0000000000000.00 0000000.00   0000000.00                             000000000000000                                                                                                                                                   B101418  000000000000 0000000000001.99     02650 01000                  
02567260348910001P1675906759000000109008001018000000101                                                          000000000000          1000            472803059                                                                                                                                                                                                                                                                                                                                                                                                                                                                                                                                                            
02567270348910084DT67590675900000010900800101800000010180010124001193074900013300458031520230000000369107423000000000219027438419XXXXXX9572       VS11    0001111   NYV1 A E583074779256541N840000000003691D45X00    05DNPLANET VAPOR #700        073846    VD84000000003691 N  599976923375                            000000000+                F DF 00381                     000000000  N000000000       0000000000000.00 0000000.00   0000000.00                             000000000000000                                                                                                                                                     01418 A000000000000 0000000000000.45     00800 01500                  
02567280348910085DT67590675900000010900800101800000010180010124001193074900013300466031520230000000748207423000000000219027440393XXXXXX6128       VS11    0001111   NYV1 A E303074809429914N840000000007482SMB200    07DNPLANET VAPOR #700        474635    VD84000000007482 N  599976923375                            000000000+                F PF 08170                     000000000  N000000000       0000000000000.00 0000000.00   0000000.00                             000000000000000                                                                                                                                                     01418 A000000000000 0000000000001.01     01150 01500                  
02567290348910086DT67590675900000010900800101800000010180010124001193074900013300474031520230000000242907423000000000219027433477XXXXXX2220       VS11    0001111   NYV1 A E463074857524463N840000000002429MMPQ00    05DNPLANET VAPOR #700        825615    VD84000000002429 N  599976923375                            000000000+                F DF 10433                     000000000  Y000000000 338   0000000000000.00 0000000.00   0000000.00                             000000000000000                                                                                                                                                     01418 A000000000000 0000000000000.23     00050 02200                  
02567300348910087DT67590675900000010900800101800000010180010124001193074900013300482031520230000000215907423000000000219027440393XXXXXX4664       VS11    0001111   NYV1 A E303074859512086N840000000002159T6G800    07DNPLANET VAPOR #700        214400    VD84000000002159 N  599976923375                            000000000+                F PF 08170                     000000000  N000000000       0000000000000.00 0000000.00   0000000.00                             000000000000000                                                                                                                                                     01418 A000000000000 0000000000000.40     01150 01500                  
02567310348910088DT67590675900000010900800101800000010180010124001193074900013300490031520230000000237507423000000000219027438419XXXXXX2105       VS11    0001111   NYV1 A E463074860488243N840000000002375F5GQ00    07DNPLANET VAPOR #700        095408    VD84000000002375 N  599976923375                            000000000+                F DF 00381                     000000000  N000000000       0000000000000.00 0000000.00   0000000.00                             000000000000000                                                                                                                                                     01418 A000000000000 0000000000000.34     00800 01500                  
02567320348910089DT67590675900000010900800101800000010180010124001193074900013300508031520230000000755707423000000000219027433477XXXXXX4606       VS11    0001111   NYV1 A E383074862284706N840000000007557NZ5Z00    05DNPLANET VAPOR #700        831277    VD84000000007557 N  599976923375                            000000000+                F DF 10433                     000000000  Y000000000 338   0000000000000.00 0000000.00   0000000.00                             000000000000000                                                                                                                                                     01418 A000000000000 0000000000000.26     00050 02200                  
02567330348910090BH6759067590000001094280010180000090170315202307423000000000121263    0000090001350026N8001016759C03162023                                                                                                                                                                                                                                                                                                                                                                                                                                                                                                                                                                                                 
02567340348910091DT67590675900000010942800101800000010180010124001193074900013500016031520230000000278107423000000000121263433477XXXXXX9923       VS11    0001111   NYV1 A E303074528896121N840000000002781NGMP00    05DNPLANET VAPOR #800        292112    VD84000000002781 N  599976923545                            000000000+                F DF 10433                     000000000  Y000000000 338   0000000000000.00 0000000.00   0000000.00                             000000000000000                                                                                                                                                     01418 A000000000000 0000000000000.23     00050 02200                  
02567350348910092DT67590675900000010942800101800000010180010124001193074900013500024031520230000000251207423000000000121263400022XXXXXX7674       VS11    0001111   NYV1 A E463074533552287N8400000000025128Z3300    05DNPLANET VAPOR #800        881057    VD84000000002512 N  599976923545                            000000000+                F DF 10433                     000000000  Y000000000 338   0000000000000.00 0000000.00   0000000.00                             000000000000000                                                                                                                                                     01418 A000000000000 0000000000000.23     00050 02200                  
02567360348910093DT67590675900000010942800101800000010180010124001193074900013500032031520230000001518707423000000000121263440066XXXXXX8418       VS11    0001111   NYV1 A E303074572761048N840000000015187858F00    05DNPLANET VAPOR #800        07059D    VS84000000015187 N  599976923545                            000000000+                D CD 12113                     000000000  N000000000 499   0000000000000.00 0000000.00   0000000.00                             000000000000000                                                                                                                                                     01418 A000000000000 0000000000003.29     02100 01000                  
02567370348910094DT67590675900000010942800101800000010180010124001193074900013500040031520230000000363607423000000000121263440066XXXXXX8418       VS11    0001111   NYV1 A E583074573541837N8400000000036367CZB00    07DNPLANET VAPOR #800        04914D    VS84000000003636 N  599976923545                            000000000+                D CD 12113                     000000000  N000000000 499   0000000000000.00 0000000.00   0000000.00                             000000000000000                                                                                                                                                     01418 A000000000000 0000000000000.86     02100 01000                  
02567380348910095DT67590675900000010942800101800000010180010124001193074900013500057031520230000000470607423000000000121263410894XXXXXX8986       VS11    0001111   NYV1 A E583074574817406N8400000000047064J7F00    07DNPLANET VAPOR #800        003165    VD84000000004706 N  599976923545                            000000000+                F DF 10433                     000000000  Y000000000 338   0000000000000.00 0000000.00   0000000.00                             000000000000000                                                                                                                                                     01418 A000000000000 0000000000000.24     00050 02200                  
02567390348910096DT67590675900000010942800101800000010180010124001193074900013500065031520230000000556207423000000000121263455225XXXXXX6997       VS11    0001111   NYV1 A E463074611398341N840000000005562X3KW00    05DNPLANET VAPOR #800        H21486    VD84000000005562 N  599976923545                            000000000+                F DF 10433                     000000000  Y000000000 338   0000000000000.00 0000000.00   0000000.00                             000000000000000                                                                                                                                                     01418 A000000000000 0000000000000.25     00050 02200                  
02567400348910097DT67590675900000010942800101800000010180010177287283074900013500075031520230000000235307423000000000121263514377XXXXXX9975       MS02WI09          NY 1 0 AMDJGOWI3H0315  N840000000002353          05DNPLANET VAPOR #800        1MOCKG    MD84000000002353 N  599976923545                            000000000+M10101C5434C    MDJ  00402                     000000000  N                0000000000000.00 0000000.00   0000000.00                             000000000000000                                                                                                                                                   B101418  000000000000 0000000000000.40     01050 01500                  
02567410348910098DT67590675900000010942800101800000010180010177287283074900013500083031520230000000149707423000000000121263559898XXXXXX2147       MS02WI09          NY 1 0 AMDJGT2Y3H0315  N840000000001497          07DNPLANET VAPOR #800        182540    MD84000000001497 N  599976923545                            000000000+M10101M0034C    MDJ  10815                     000000000  1                0000000000000.00 0000000.00   0000000.00                             000000000000000                                                                                                                                                   A101418  000000000000 0000000000000.23     00050 02200                  
02567420348910099DT67590675900000010942800101800000010180010177287283074900013500091031520230000000406407423000000000121263531258XXXXXX3162       MS02WI09          NY 1 0 AMDJG1QF3H0315  N840000000004064          05DNPLANET VAPOR #800        173816    MD84000000004064 N  599976923545                            000000000+M10101C5434C    MDJ  10815                     000000000  1                0000000000000.00 0000000.00   0000000.00                             000000000000000                                                                                                                                                   B101418  000000000000 0000000000000.24     00050 02200                  
02567430348910100DT67590675900000010942800101800000010180010124001193074900013500107031520230000001037507423000000000121263448232XXXXXX4495       VS11    0001111   NYV1 A E383074641084493N840000000010375Z2G200    05DNPLANET VAPOR #800        034821    VD84000000010375 N  599976923545                            000000000+                F DF 00381                     000000000  N000000000       0000000000000.00 0000000.00   0000000.00                             000000000000000                                                                                                                                                     01418 A000000000000 0000000000000.98     00800 01500                  
02567440348910101DT67590675900000010942800101800000010180010124001193074900013500115031520230000000727407423000000000121263466189XXXXXX1969       VS11    0001111   NYV1 A E383074659046438N840000000007274WPXG00    07DNPLANET VAPOR #800        027738    VD84000000007274 N  599976923545                            000000000+                F DF 10433                     000000000  Y000000000 338   0000000000000.00 0000000.00   0000000.00                             000000000000000                                                                                                                                                     01418 A000000000000 0000000000000.26     00050 02200                  
02567450348910102DT67590675900000010942800101800000010180010177287283074900013500125031520230000000663107423000000000121263531258XXXXXX2503       MS02WI09          NY 1 0 AMDJDMEL520315  N840000000006631          05DNPLANET VAPOR #800        172839    MD84000000006631 N  599976923545                            000000000+M10101C5434C    MDJ  10815                     000000000  1                0000000000000.00 0000000.00   0000000.00                             000000000000000                                                                                                                                                   B101418  000000000000 0000000000000.25     00050 02200                  
02567460348910103DT67590675900000010942800101800000010180010124001193074900013500131031520230000000470507423000000000121263434236XXXXXX1486       VS11    0001111   NYV1 A E383074672305644N840000000004705VLK700    07DNPLANET VAPOR #800        025277    VD84000000004705 N  599976923545                            000000000+                F DF 00381                     000000000  N000000000       0000000000000.00 0000000.00   0000000.00                             000000000000000                                                                                                                                                     01418 A000000000000 0000000000000.53     00800 01500                  
02567470348910104DT67590675900000010942800101800000010180010124001193074900013500149031520230000000534807423000000000121263434236XXXXXX1486       VS11    0001111   NYV1 A E303074675890017N840000000005348DK4X00    07DNPLANET VAPOR #800        075924    VD84000000005348 N  599976923545                            000000000+                F DF 00381                     000000000  N000000000       0000000000000.00 0000000.00   0000000.00                             000000000000000                                                                                                                                                     01418 A000000000000 0000000000000.58     00800 01500                  
02567480348910105DT67590675900000010942800101800000010180010176509753074900013500154031520230000000475707423000000000121263601100XXXXXX1020   BA50                  NY41 0 N753063626032013N840000000004757    00    05DNPLANET VAPOR #800        01517R    DS84000000004757 N  599976923545050                         000000000+0000004910H00   DCCDI01000336819  152323000000 000000000  0          112   0000000000000.00 0000000.00   0000000.00                             000000000000000                                                                                                                                                     01418  000000000000 0000000000000.92     01720 01000                  
02567490348910106DT67590675900000010942800101800000010180010124001193074900013500164031520230000000320807423000000000121263438419XXXXXX3166       VS11    0001111   NYV1 A E383074719801000N840000000003208KX8N00    05DNPLANET VAPOR #800        055940    VD84000000003208 N  599976923545                            000000000+                F DF 00381                     000000000  N000000000       0000000000000.00 0000000.00   0000000.00                             000000000000000                                                                                                                                                     01418 A000000000000 0000000000000.41     00800 01500                  
02567500348910107DT67590675900000010942800101800000010180010124001193074900013500172031520230000000534807423000000000121263433477XXXXXX2593       VS11    0001111   NYV1 A E303074726591764N840000000005348DPNS00    05DNPLANET VAPOR #800        621094    VD84000000005348 N  599976923545                            000000000+                F DF 10433                     000000000  Y000000000 338   0000000000000.00 0000000.00   0000000.00                             000000000000000                                                                                                                                                     01418 A000000000000 0000000000000.25     00050 02200                  
02567510348910108DT67590675900000010942800101800000010180010177287283074900013500182031520230000000556207423000000000121263515676XXXXXX7398       MS02WI09          NY 1 0 AMWES4999V0315  N840000000005562          07DNPLANET VAPOR #800        00785Z    MC84000000005562 N  599976923545                            000000000+M10101M5434C    MWE  00739                     000000000  N                0000000000000.00 0000000.00   0000000.00                             000000000000000                                                                                                                                                   B101418  000000000000 0000000000001.38     02300 01000                  
02567520348910109DT67590675900000010942800101800000010180010124001193074900013500198031520230000000534907423000000000121263410881XXXXXX2030       VS11    0001111   NYV1 A E463074777301295N840000000005349GG7V00    05DNPLANET VAPOR #800        519915    VD84000000005349 N  599976923545                            000000000+                F DF 00381                     000000000  N000000000       0000000000000.00 0000000.00   0000000.00                             000000000000000                                                                                                                                                     01418 A000000000000 0000000000000.58     00800 01500                  
02567530348910110DT67590675900000010942800101800000010180010177287283074900013500208031520230000000374407423000000000121263531258XXXXXX3266       MS02WI09          NY 1 0 AMDJWA0S640315  N840000000003744          05DNPLANET VAPOR #800        185639    MD84000000003744 N  599976923545                            000000000+M10101C5434C    MDJ  10815                     000000000  1                0000000000000.00 0000000.00   0000000.00                             000000000000000                                                                                                                                                   B101418  000000000000 0000000000000.24     00050 02200                  
02567540348910111DT67590675900000010942800101800000010180010124001193074900013500214031520230000000534907423000000000121263400344XXXXXX4049       VS11    0001111   NYV1 A E303074795742969N840000000005349BNRD00    07DNPLANET VAPOR #800        08457D    VS84000000005349 N  599976923545                            000000000+                D CD 12113                     000000000  N000000000 499   0000000000000.00 0000000.00   0000000.00                             000000000000000                                                                                                                                                     01418 A000000000000 0000000000001.22     02100 01000                  
02567550348910112DT67590675900000010942800101800000010180010124001193074900013500222031520230000000320807423000000000121263473703XXXXXX7935       VS11    0001111   NYV1 A E303074800172667N8400000000032083BZL00    05DNPLANET VAPOR #800        008658    VD84000000003208 N  599976923545                            000000000+                F DF 10433                     000000000  Y000000000 338   0000000000000.00 0000000.00   0000000.00                             000000000000000                                                                                                                                                     01418 A000000000000 0000000000000.24     00050 02200                  
02567560348910113DT67590675900000010942800101800000010180010124001193074900013500230031520230000000211807423000000000121263430602XXXXXX4427       VS11    0001111   NYV1 A E583074842988134N840000000002118G35P00    05DNPLANET VAPOR #800        300606    VD84000000002118 N  599976923545                            000000000+                F DF 00381                     000000000  N000000000       0000000000000.00 0000000.00   0000000.00                             000000000000000                                                                                                                                                     01418 A000000000000 0000000000000.32     00800 01500                  
02567570348910114DT67590675900000010942800101800000010180010177287283074900013500240031520230000000235307423000000000121263511541XXXXXX3563       MS02WI09          NY 1 0 AMDJYSB1640315  N840000000002353          05DNPLANET VAPOR #800        039377    MD84000000002353 N  599976923545                            000000000+M10101C5434C    MDJ  00402                     000000000  N                0000000000000.00 0000000.00   0000000.00                             000000000000000                                                                                                                                                   B101418  000000000000 0000000000000.40     01050 01500                  
02567580348910115DT67590675900000010942800101800000010180010124001193074900013500255031520230000000213907423000000000121263430602XXXXXX0938       VS11    0001111   NYV1 A E383074850572385N840000000002139ZB5500    05DNPLANET VAPOR #800        303007    VD84000000002139 N  599976923545                            000000000+                F DF 00381                     000000000  N000000000       0000000000000.00 0000000.00   0000000.00                             000000000000000                                                                                                                                                     01418 A000000000000 0000000000000.32     00800 01500                  
02567590348910116DT67590675900000010942800101800000010180010124001193074900013500263031520230000000149707423000000000121263403784XXXXXX2912       VK04VS111111111   NYV1 A E463074856763367N840000000001497MT3C00    05DNPLANET VAPOR #800        815174    VS84000000001497 N  599976923545                            000000000+                C CC 12112                     000000000  N000000000 497   0000000000000.00 0000000.00   0000000.00                             000000000000000                                                                                                                                                     01418 F000000000000 0000000000000.35     01650 01000                  
02567600348910117BH6759067590000000708880010180000090170315202307423000000000096070    0000090001350028N8001016759C03162023                                                                                                                                                                                                                                                                                                                                                                                                                                                                                                                                                                                                 
02567610348910118DT67590675900000007088800101800000010180010124001193074900013500016031520230000001133607423000000000096070400022XXXXXX7426       VS11    0001111   NYV1 A E303074520591717N84000000001133646VW00    05DNPLANET VAPOR #200        747123    VD84000000011336 N  599976770268                            000000000+                F DF 10433                     000000000  Y000000000 338   0000000000000.00 0000000.00   0000000.00                             000000000000000                                                                                                                                                     01418 A000000000000 0000000000000.28     00050 02200                  
02567620348910119DT67590675900000007088800101800000010180010124001193074900013500024031520230000000367007423000000000096070440066XXXXXX3722       VS11    0001111   NYV1 A E463074544841159N840000000003670JX8P00    05DNPLANET VAPOR #200        02350D    VS84000000003670 N  599976770268                            000000000+                D CD 12113                     000000000  N000000000 499   0000000000000.00 0000000.00   0000000.00                             000000000000000                                                                                                                                                     01418 A000000000000 0000000000000.87     02100 01000                  
02567630348910120DT67590675900000007088800101800000010180010124001193074900013500032031520230000000188907423000000000096070440393XXXXXX9963       VS11    0001111   NYV1 A E383074553188756N840000000001889NTN900    05DNPLANET VAPOR #200        435869    VD84000000001889 N  599976770268                            000000000+                F PF 08170                     000000000  N000000000       0000000000000.00 0000000.00   0000000.00                             000000000000000                                                                                                                                                     01418 A000000000000 0000000000000.37     01150 01500                  
02567640348910121DT67590675900000007088800101800000010180010124001193074900013500040031520230000000356207423000000000096070430602XXXXXX1216       VS11    0001111   NYV1 A E463074553832615N840000000003562CRH300    05DNPLANET VAPOR #200        219717    VD84000000003562 N  599976770268                            000000000+                F DF 00381                     000000000  N000000000       0000000000000.00 0000000.00   0000000.00                             000000000000000                                                                                                                                                     01418 A000000000000 0000000000000.43     00800 01500                  
02567650348910122DT67590675900000007088800101800000010180010124001193074900013500057031520230000000291407423000000000096070430602XXXXXX1235       VS11    0001111   NYV1 A E463074554630402N840000000002914FPPM00    05DNPLANET VAPOR #200        219883    VD84000000002914 N  599976770268                            000000000+                F DF 00381                     000000000  N000000000       0000000000000.00 0000000.00   0000000.00                             000000000000000                                                                                                                                                     01418 A000000000000 0000000000000.38     00800 01500                  
02567660348910123DT67590675900000007088800101800000010180010124001193074900013500065031520230000000213707423000000000096070474474XXXXXX8992       VS11    0001111   NYV1 A E463074567999831N840000000002137GF9V00    05DNPLANET VAPOR #200        184061    VD84000000002137 N  599976770268                            000000000+                F DF 10433                     000000000  Y000000000 338   0000000000000.00 0000000.00   0000000.00                             000000000000000                                                                                                                                                     01418 A000000000000 0000000000000.23     00050 02200                  
02567670348910124DT67590675900000007088800101800000010180010124001193074900013500073031520230000000064707423000000000096070440393XXXXXX9596       VK04VS111111111   NYV1 A E463074569872340N840000000000647WR6K00    05DNPLANET VAPOR #200        334390    VD84000000000647 N  599976770268                            000000000+                F PF 08165                     000000000  N000000000       0000000000000.00 0000000.00   0000000.00                             000000000000000                                                                                                                                                     01418 F000000000000 0000000000000.15     01600 00500                  
02567680348910125DT67590675900000007088800101800000010180010177287283074900013500083031520230000000205107423000000000096070553781XXXXXX7382       MS02WI09          NY 1 0 AMDSS8DH4A0315  N840000000002051          05DNPLANET VAPOR #200        682419    MD84000000002051 N  599976770268                            000000000+M10101C5434C    MDS  00402                     000000000  N                0000000000000.00 0000000.00   0000000.00                             000000000000000                                                                                                                                                   B101418  000000000000 0000000000000.37     01050 01500                  
02567690348910126DT67590675900000007088800101800000010180010124001193074900013500099031520230000000252607423000000000096070453506XXXXXX7975       VS11    0001111   NYV1 A E463074585605335N8400000000025269TH400    05DNPLANET VAPOR #200        H14157    VD84000000002526 N  599976770268                            000000000+                F DF 10433                     000000000  Y000000000 338   0000000000000.00 0000000.00   0000000.00                             000000000000000                                                                                                                                                     01418 A000000000000 0000000000000.23     00050 02200                  
