06878810383666599AD675906759000000268498001258000009071900014348100000000979807162023NYY19723ND6759800125071820232023195030593                                                                                                                                                                                                                                                                                                                                                                                                                                                                                                                                                                                              
06878820383666602AD675906759000000268498001258000009071900014348110000000619807162023NYY19723ND6759800125071820232023195030594                                                                                                                                                                                                                                                                                                                                                                                                                                                                                                                                                                                              
06878830383666605AD675906759000000268498001258000009071900014348090000001977007162023NYY19723ND6759800125071820232023195030595                                                                                                                                                                                                                                                                                                                                                                                                                                                                                                                                                                                              
06878840383666608AD675906759000000268498001258000009071900017268690000001280307162023NYY19723ND6759800125071820232023195031141                                                                                                                                                                                                                                                                                                                                                                                                                                                                                                                                                                                              
06878850383666611AD675906759000000142748001028000009071900018503920000001243507162023NYY19723ND6759800102071820232023188018187                                                                                                                                                                                                                                                                                                                                                                                                                                                                                                                                                                                              
06878860383666614AD675906759000000161968001028000009071900018159820000001987007162023NYY19723ND6759800102071820232023195025010                                                                                                                                                                                                                                                                                                                                                                                                                                                                                                                                                                                              
06878870383666617AD675906759000000161968001028000009071900018154420000001537407162023NYY19723ND6759800102071820232023195025011                                                                                                                                                                                                                                                                                                                                                                                                                                                                                                                                                                                              
06878880383666620AD675906759000000151648008888000009071900012388960000001194807162023NYY19723ND6759800888071820232023195025012                                                                                                                                                                                                                                                                                                                                                                                                                                                                                                                                                                                              
06878890383666623AD675906759000000161968001028000009071900017350920000001987007162023NYY19723ND6759800102071820232023195025013                                                                                                                                                                                                                                                                                                                                                                                                                                                                                                                                                                                              
06878900383666626AD675906759000000151648008888000009071900010884160000001667007162023NYY19723ND6759800888071820232023195025014                                                                                                                                                                                                                                                                                                                                                                                                                                                                                                                                                                                              
06878910383666629AD675906759000000109428001018000009071900010000070000000556107162023NYY19723ND6759800101071820232023195025015                                                                                                                                                                                                                                                                                                                                                                                                                                                                                                                                                                                              
06878920383666647AD675906759000000268498001258000009077900012872410000001977007162023NYY19723YC6759800125071820232023186027166                                                                                                                                                                                                                                                                                                                                                                                                                                                                                                                                                                                              
06878930385538039BH6759067590000003201180013680000090170717202319823000000004334449    0000090001685886N8001366759D07182023068                                                                                                                                                                                                                                                                                                                                                                                                                                                                                                                                                                                              
06878940385538040DT67590675900000032011800136800000010680013673011003198900016819634071320230000063127519823000000004334449371536XXXXX3000                          YY 4 07N008334292749061N840000000631275          01CNCHOICE BOTANICALS INC    101888    AM84000000631275 N  549971004114                            000000000+6004S0600140 258     11314                     000000000                   0000000000000.00 0000000.00   0000000.00                             000000000000000 61248972086759675900000032011                          5390 GREENS RD                           77032                                               015WPE 000000000000 0000000000000.00     00000 00000                  
06878950385530001G2675906759000000320118001368000000106HOUSTON                  TX           9                  00                                      NNNN                          000000000000                                                                   71004114                                                                                                                                                                                                                                                                                                                                                                                                                                               
06878960385538041DT67590675900000032011800136800000010680013673011003198900016817794071320230000175500019823000000004334449371536XXXXX3000                          YY 4 07N007615560517078N840000001755000          01CNCHOICE BOTANICALS INC    183754    AM84000001755000 N  549971004114                            000000000+6004S0600140 258     11314                     000000000                   0000000000000.00 0000000.00   0000000.00                             000000000000000 61248972086759675900000032011                          5390 GREENS RD                           77032                                               015WPE 000000000000 0000000000000.00     00000 00000                  
06878970385530001G2675906759000000320118001368000000106HOUSTON                  TX           9                  00                                      NNNN                          000000000000                                                                   71004114                                                                                                                                                                                                                                                                                                                                                                                                                                               
06878980385538042DT67590675900000032011800136800000010180013624001193198900016849056071320230000002773219823000000004334449448233XXXXXX7644       PS01    2111111   YYV4 J7N463194748883843N8400000000277326XK600    01DNCHOICE BOTANICALS INC    054808    VD84000000027732 NDR549971004114   RWWA3PPNAADJMV1ZB9XR     000000000+                F DF 10425                     000000000  Y000000010 338   0000000000000.00 0000000.00   0000000.00                             000000000000000                                                                                                                                                     015WPE 000000027732 0000000000000.36     00050 02200                  
06878990385538042DR675906759000000320118001368000000101RWWA3PPNAADJMV1ZB9XR     Y000000027732                 P1                                                                                                                                                                                                                                                                                                                                                                                                                                                                                                                                                                                                            
06879000385530001P16759067590000003201180013680000001010000000000000000                             2000000000000000000000000              000000000000                    0000000000000000000000000                    000000000000                                                                                                                                                                                                                                                                                                                                                                                                                                                                                        
06879010385530002G2675906759000000320118001368000000101888-4377779              TX           9 D                00                                      NNNN   N                      000000000000                                                                   71004114                                                                                                                                                                                                                                                                                                                                                                                                                                               
06879020385538043DT67590675900000032011800136800000010180013673011003198900016865140071320230000009822219823000000004334449376749XXXXX2011                          YY 4 07N008337620974061N840000000098222          01DNCHOICE BOTANICALS INC    180512    AM84000000098222 N  549971004114                            000000000+6004S0600140 258     11262                     000000000                   0000000000000.00 0000000.00   0000000.00                             000000000000000 61248972086759675900000032011                          5390 GREENS RD                           77032                                               015WPE 000000000000 0000000000019.25     01950 00000                  
06879030385530001G2675906759000000320118001368000000101HOUSTON                  TX           9                  00                                      NNNN                          000000000000                                                                   71004114                                                                                                                                                                                                                                                                                                                                                                                                                                               
06879040385538044DT67590675900000032011800136800000010180013624001193198900016895745071320230000002492519823000000004334449447404XXXXXX7020       PS01    2111111   YYV4 J7N383194118065019N8400000000249257D4X00    01DNCHOICE BOTANICALS INC    832554    VD84000000024925 NDR549971004114   RDMV2ENIAINPGWQRVYHA     000000000+                F DF 10425                     000000000  Y000000010 338   0000000000000.00 0000000.00   0000000.00                             000000000000000                                                                                                                                                     015WPE 000000024925 0000000000000.34     00050 02200                  
06879050385538044DR675906759000000320118001368000000101RDMV2ENIAINPGWQRVYHA     Y000000024925                 P1                                                                                                                                                                                                                                                                                                                                                                                                                                                                                                                                                                                                            
06879060385530001P16759067590000003201180013680000001010000000000000000                             2000000000000000000000000              000000000000                    0000000000000000000000000                    000000000000                                                                                                                                                                                                                                                                                                                                                                                                                                                                                        
06879070385530002G2675906759000000320118001368000000101888-4377779              TX           9 D                00                                      NNNN   N                      000000000000                                                                   71004114                                                                                                                                                                                                                                                                                                                                                                                                                                               
06879080385538045DT67590675900000032011800136800000010180013624001193198900016890787071320230000002094419823000000004334449425828XXXXXX9617       PS01    2111111   YYV4 J7N383194615956537N84000000002094424FL00    01DNCHOICE BOTANICALS INC    046139    VD84000000020944 NDR549971004114   RWGPWDQASSPI9A09DG71     000000000+                F DF 10425                     000000000  Y000000010 338   0000000000000.00 0000000.00   0000000.00                             000000000000000                                                                                                                                                     015WPE 000000020944 0000000000000.32     00050 02200                  
06879090385538045DR675906759000000320118001368000000101RWGPWDQASSPI9A09DG71     Y000000020944                 P1                                                                                                                                                                                                                                                                                                                                                                                                                                                                                                                                                                                                            
06879100385530001P16759067590000003201180013680000001010000000000000000                             2000000000000000000000000              000000000000                    0000000000000000000000000                    000000000000                                                                                                                                                                                                                                                                                                                                                                                                                                                                                        
06879110385530002G2675906759000000320118001368000000101888-4377779              TX           9 D                00                                      NNNN   N                      000000000000                                                                   71004114                                                                                                                                                                                                                                                                                                                                                                                                                                               
06879120385538046DT67590675900000032011800136800000010680013673011003198900016818156071320230000161385719823000000004334449371536XXXXX3000                          YY 4 07N007615529212076N840000001613857          01CNCHOICE BOTANICALS INC    127000    AM84000001613857 N  549971004114                            000000000+6004S0600140 258     11314                     000000000                   0000000000000.00 0000000.00   0000000.00                             000000000000000 61248972086759675900000032011                          5390 GREENS RD                           77032                                               015WPE 000000000000 0000000000000.00     00000 00000                  
06879130385530001G2675906759000000320118001368000000106HOUSTON                  TX           9                  00                                      NNNN                          000000000000                                                                   71004114                                                                                                                                                                                                                                                                                                                                                                                                                                               
06879140385538047DT67590675900000032011800136800000010680013673011003198900016817299071320230000058987519823000000004334449371536XXXXX3000                          YY 4 07N007615577603077N840000000589875          01CNCHOICE BOTANICALS INC    164103    AM84000000589875 N  549971004114                            000000000+6004S0600140 258     11314                     000000000                   0000000000000.00 0000000.00   0000000.00                             000000000000000 61248972086759675900000032011                          5390 GREENS RD                           77032                                               015WPE 000000000000 0000000000000.00     00000 00000                  
06879150385530001G2675906759000000320118001368000000106HOUSTON                  TX           9                  00                                      NNNN                          000000000000                                                                   71004114                                                                                                                                                                                                                                                                                                                                                                                                                                               
06879160385538048DT67590675900000032011800136800000010180013687287283198900016830214071320230000007385319823000000004334449532231XXXXXX3156                         YY 4607AMDBI6LGRE0713  N840000000073853          81DNCHOICE BOTANICALS INC    335350    MD84000000073853 NP1549971004114   2764                     000000000+600450S00140    MDB  10802                     000000000  1                0000000000000.00 0000000.00   0000000.00                             000000000000000                                                                                                                                                   U0015WPE 000000000000 0000000000000.59     00050 02200                  
06879170385530001P1675906759000000320118001368000000101                                                          000000000000          8000            471128992                                                                                                                                                                                                                                                                                                                                                                                                                                                                                                                                                            
06879180385530002G26759067590000003201180013680000001018884377779               TX           9 B               210                  471128992           YNNN           210000000000000000000000000                        7                                          71004114                                                                                                                                                                                                                                                                                                                                                                                                                                               
06879190385538049DT67590675900000032011800136800000010180013624001193198900016858867071320230000000988219823000000004334449473702XXXXXX8449       PS01    2111111   YYV4 J7N583194777926747N84000000000988232HH00    01DNCHOICE BOTANICALS INC    065235    VD84000000009882 NDR549971004114   RVZ2DOE2EYYHAXZRNB4F     000000000+                F DF 10425                     000000000  Y000000010 338   0000000000000.00 0000000.00   0000000.00                             000000000000000                                                                                                                                                     015WPE 000000009882 0000000000000.27     00050 02200                  
06879200385538049DR675906759000000320118001368000000101RVZ2DOE2EYYHAXZRNB4F     Y000000009882                 P1                                                                                                                                                                                                                                                                                                                                                                                                                                                                                                                                                                                                            
06879210385530001P16759067590000003201180013680000001010000000000000000                             2000000000000000000000000              000000000000                    0000000000000000000000000                    000000000000                                                                                                                                                                                                                                                                                                                                                                                                                                                                                        
06879220385530002G2675906759000000320118001368000000101888-4377779              TX           9 D                00                                      NNNN   N                      000000000000                                                                   71004114                                                                                                                                                                                                                                                                                                                                                                                                                                               
06879230385538052BH6759067590000001330080010280000090170717202319823000000000034861    0000090001491186N8001026759D07182023149                                                                                                                                                                                                                                                                                                                                                                                                                                                                                                                                                                                              
06879240385538053DT67590675900000013300800102800000010180010224001193198900014911569071320230000002146019823000000000034861443044XXXXXX0706       PS01    2111111   YYV4 J7N383191256636895N840000000021460JXC400    01DNCBD8666317293            515285    VD84000000021460 NDR549977133133   C2486E8851T961F9EEF8034  000000000+                F DF 10425                     000000000  Y000000010 338   0000000000000.00 0000000.00   0000000.00                             000000000000000                                                                                                                                                     015WPE 000000021460 0000000000000.33     00050 02200                  
06879250385538053DR675906759000000133008001028000000101C2486E8851T961F9EEF8034  Y000000021460                 P1                                                                                                                                                                                                                                                                                                                                                                                                                                                                                                                                                                                                            
06879260385530001P16759067590000001330080010280000001010000000000000000                             2000000000000000000000000              000000000000                    0000000000000000000000000                    000000000000                                                                                                                                                                                                                                                                                                                                                                                                                                                                                        
06879270385530002G2675906759000000133008001028000000101866-6317293              GA           9 D                00                                      NNNN   N                      000000000000                                                                   77133133                                                                                                                                                                                                                                                                                                                                                                                                                                               
06879280385538054DT67590675900000013300800102800000010680010287287283198900014911883071420230000001499119823000000000034861545510XXXXXX9211                         YY94607N         0714  N840000000000000          81CNCBD8666317293                      MD84000000014991 N  549977133133   974898FDFFTCBC422C97498  000000000+600450S00130    MDS  10828                     000000000  1                0000000000000.00 0000000.00   0000000.00                             000000000000000                                                                                                                                                     015WPE 000000000000 0000000000000.00     00000 00000                  
06879290385530001G26759067590000001330080010280000001068666317293               GA           9 S               210                                      NNNN           210000000000000000000000000                                                                   77133133                                                                                                                                                                                                                                                                                                                                                                                                                                               
06879300385538055DT67590675900000013300800102800000010680010287287283198900014911859071420230000002146019823000000000034861517805XXXXXX9712                         YY 4607AMPLJC1TMD0714  N840000000021460          81CNCBD8666317293            041477    MC84000000021460 NDR549977133133   89086FA232T498FC98E51AA  000000000+600450S00130    MPL  00565                     000000000  N                0000000000000.00 0000000.00   0000000.00                             000000000000000                                                                                                                                                     015WPE 000000000000-0000000000003.76     01750 00000                  
06879310385538055DR67590675900000013300800102800000010689086FA232T498FC98E51AA  Y000000000000                                                                                                                                                                                                                                                                                                                                                                                                                                                                                                                                                                                                                               
06879320385530001G26759067590000001330080010280000001068666317293               GA           9 L               210                                      NNNN           210000000000000000000000000                        7                                          77133133                                                                                                                                                                                                                                                                                                                                                                                                                                               
06879330385538056DT67590675900000013300800102800000010680010287287283198900014911867071420230000001987019823000000000034861517805XXXXXX6142                         YY 4607AMPLPXX9ME0714  N840000000019870          81CNCBD8666317293            014843    MC84000000019870 NDR549977133133   6FDA93012DT31D3355FD9FD  000000000+600450S00130    MPL  00565                     000000000  N                0000000000000.00 0000000.00   0000000.00                             000000000000000                                                                                                                                                     015WPE 000000000000-0000000000003.48     01750 00000                  
06879340385538056DR6759067590000001330080010280000001066FDA93012DT31D3355FD9FD  Y000000000000                                                                                                                                                                                                                                                                                                                                                                                                                                                                                                                                                                                                                               
06879350385530001G26759067590000001330080010280000001068666317293               GA           9 L               210                                      NNNN           210000000000000000000000000                        7                                          77133133                                                                                                                                                                                                                                                                                                                                                                                                                                               
06879360385538059BH6759067590000001982880010980000090170717202319823000000000044740    0000090001070805N8001096759D07182023107                                                                                                                                                                                                                                                                                                                                                                                                                                                                                                                                                                                              
06879370385538060DT67590675900000019828800109800000010680010987287283198900010708044071420230000001987019823000000000044740555426XXXXXX6394                         YY 4607AMPGDBYMXK0714  N840000000019870          81CNKETOFUSION 8885968154    090626    MD84000000019870 NDR599977547467   70CE8495BDT0265582BC792  000000000+600450S00130    MPG  00560                     000000000  N                0000000000000.00 0000000.00   0000000.00                             000000000000000                                                                                                                                                     015WPE 000000000000 0000000000000.00     00000 00000                  
06879380385538060DR67590675900000019828800109800000010670CE8495BDT0265582BC792  N000000000000                                                                                                                                                                                                                                                                                                                                                                                                                                                                                                                                                                                                                               
06879390385530001G26759067590000001982880010980000001068885968154               UT           9 G               210                                      NNNN           210000000000000000000000000                                                                   77547467                                                                                                                                                                                                                                                                                                                                                                                                                                               
06879400385538061DT67590675900000019828800109800000010680010987287283198900010708051071420230000002487019823000000000044740511786XXXXXX8554                         YY 4607AMCSMDENXK0714  N840000000024870          81CNKETOFUSION 8885968154    043902    MC84000000024870 NDR599977547467   BBDE5AA9E9T0565B3A4319D  000000000+600450S00130    MCS  00564                     000000000  N                0000000000000.00 0000000.00   0000000.00                             000000000000000                                                                                                                                                     015WPE 000000000000-0000000000004.35     01750 00000                  
06879410385538061DR675906759000000198288001098000000106BBDE5AA9E9T0565B3A4319D  N000000000000                                                                                                                                                                                                                                                                                                                                                                                                                                                                                                                                                                                                                               
06879420385530001G26759067590000001982880010980000001068885968154               UT           9 S               210                                      NNNN           210000000000000000000000000                        7                                          77547467                                                                                                                                                                                                                                                                                                                                                                                                                                               
06879430385538064BH6759067590000002684980012580000090170717202319823000000000109094    0000090001938142N8001256759D07182023093                                                                                                                                                                                                                                                                                                                                                                                                                                                                                                                                                                                              
06879440385538065DT67590675900000026849800125800000010180012587287283198900019381355071420230000000779919823000000000109094546616XXXXXX5966       ME01KE01PT01      YY 4607AMCWCI33HH0714  N840000000007799          81DNCBD8885133385            80833S    MC84000000007799 NDR599978220273   CF686AFDB2TEE50CBECFE3F  000000000+600450S00130    MCW  02182                     000000000  N                0000000000000.00 0000000.00   0000000.00                             000000000000000                                                                                                                                                   U0015WPE 000000000000 0000000000002.13     02600 01000                  
06879450385538065DR675906759000000268498001258000000101CF686AFDB2TEE50CBECFE3F  Y000000000000                                                                                                                                                                                                                                                                                                                                                                                                                                                                                                                                                                                                                               
06879460385530001G26759067590000002684980012580000001018885133385               WY           9 W               210                                      NNNN           210000000000000000000000000                        7                                          78220273                                                                                                                                                                                                                                                                                                                                                                                                                                               
06879470385538066DT67590675900000026849800125800000010680012587287283198900019381363071420230000002477019823000000000109094549460XXXXXX6992                         YY 4607AMCWYKRSXH0714  N840000000024770          81CNCBD8885133385            014917    MC84000000024770 NDR599978220273   0E532A3873T6432624CBD56  000000000+600450S00130    MCW  00564                     000000000  N                0000000000000.00 0000000.00   0000000.00                             000000000000000                                                                                                                                                     015WPE 000000000000-0000000000004.33     01750 00000                  
06879480385538066DR6759067590000002684980012580000001060E532A3873T6432624CBD56  R000000000000                                                                                                                                                                                                                                                                                                                                                                                                                                                                                                                                                                                                                               
06879490385530001G26759067590000002684980012580000001068885133385               WY           9 W               210                                      NNNN           210000000000000000000000000                        7                                          78220273                                                                                                                                                                                                                                                                                                                                                                                                                                               
06879500385538067DT67590675900000026849800125800000010680012587287283198900019381371071420230000000979819823000000000109094549460XXXXXX6992                         YY 4607AMCWYMIVXH0714  N840000000009798          81CNCBD8885133385            014372    MC84000000009798 NDR599978220273   0E532A3873TFD2AC45EA928  000000000+600450S00130    MCW  00564                     000000000  N                0000000000000.00 0000000.00   0000000.00                             000000000000000                                                                                                                                                     015WPE 000000000000-0000000000001.71     01750 00000                  
06879510385538067DR6759067590000002684980012580000001060E532A3873TFD2AC45EA928  R000000000000                                                                                                                                                                                                                                                                                                                                                                                                                                                                                                                                                                                                                               
06879520385530001G26759067590000002684980012580000001068885133385               WY           9 W               210                                      NNNN           210000000000000000000000000                        7                                          78220273                                                                                                                                                                                                                                                                                                                                                                                                                                               
06879530385538068DT67590675900000026849800125800000010680012587287283198900019381389071420230000002245019823000000000109094537800XXXXXX1126                         YY 4607AMWED6ZEHH0714  N840000000022450          81CNCBD8885133385            012774    MC84000000022450 NDR599978220273   1E2D964E2DTC703E74EA089  000000000+600450S00130    MWE  00564                     000000000  N                0000000000000.00 0000000.00   0000000.00                             000000000000000                                                                                                                                                     015WPE 000000000000-0000000000003.93     01750 00000                  
06879540385538068DR6759067590000002684980012580000001061E2D964E2DTC703E74EA089  Y000000000000                                                                                                                                                                                                                                                                                                                                                                                                                                                                                                                                                                                                                               
06879550385530001G26759067590000002684980012580000001068885133385               WY           9 E               210                                      NNNN           210000000000000000000000000                        7                                          78220273                                                                                                                                                                                                                                                                                                                                                                                                                                               
06879560385538069DT67590675900000026849800125800000010680012574001193198900019381391071420230000001977019823000000000109094475824XXXXXX5490               0000000   YYV4 07T303195536476827N840000000019770FNX800    01CNCBD8885133385            014613    VD84000000019770 NDR599978220273   9E3D1A5580T9F2B06ADCB1E  000000000+                F DF 08168                     000000000  Y000000000 369   0000000000000.00 0000000.00   0000000.00                             000000000000000                                                                                                                                                     015WPE 000000019770 0000000000000.00     00000 00000                  
06879570385538069DR6759067590000002684980012580000001069E3D1A5580T9F2B06ADCB1E  U000000019770                 P1                                                                                                                                                                                                                                                                                                                                                                                                                                                                                                                                                                                                            
06879580385530001P16759067590000002684980012580000001060000000000000000                             2000000000000000000000000              000000000000                    0000000000000000000000000                    000000000000                                                                                                                                                                                                                                                                                                                                                                                                                                                                                        
06879590385530002G2675906759000000268498001258000000106888-5133385              WY           9 D                00                                      NNNN   N                      000000000000                                                                   78220273                                                                                                                                                                                                                                                                                                                                                                                                                                               
06879600385538070DT67590675900000026849800125800000010680012587287283198900019381405071420230000002245019823000000000109094551750XXXXXX0922                         YY 4607AMDSLE6TXI0714  N840000000022450          81CNCBD8885133385            113015    MD84000000022450 NDR599978220273   323C6BB27DT476612D15D5E  000000000+600450S00130    MDS  00560                     000000000  N                0000000000000.00 0000000.00   0000000.00                             000000000000000                                                                                                                                                     015WPE 000000000000 0000000000000.00     00000 00000                  
06879610385538070DR675906759000000268498001258000000106323C6BB27DT476612D15D5E  U000000000000                                                                                                                                                                                                                                                                                                                                                                                                                                                                                                                                                                                                                               
06879620385530001G26759067590000002684980012580000001068885133385               WY           9 S               210                                      NNNN           210000000000000000000000000                        7                                          78220273                                                                                                                                                                                                                                                                                                                                                                                                                                               
06879630385538071DT67590675900000026849800125800000010680012587287283198900019381413071420230000000692019823000000000109094518941XXXXXX4449                         YY 4607AMWEBHIW4M0714  N840000000006920          81CNCBD8885133385            326418    MC84000000006920 NDR599978220273   2820C59EB2T2A988341ACA6  000000000+600450S00130    MWE  00564                     000000000  N                0000000000000.00 0000000.00   0000000.00                             000000000000000                                                                                                                                                     015WPE 000000000000-0000000000001.21     01750 00000                  
06879640385538071DR6759067590000002684980012580000001062820C59EB2T2A988341ACA6  U000000000000                                                                                                                                                                                                                                                                                                                                                                                                                                                                                                                                                                                                                               
06879650385530001G26759067590000002684980012580000001068885133385               WY           9 E               210                                      NNNN           210000000000000000000000000                        7                                          78220273                                                                                                                                                                                                                                                                                                                                                                                                                                               
06879660385538072DT67590675900000026849800125800000010680012587287283198900019381421071420230000001073519823000000000109094538141XXXXXX6728                         YY 4607AMDJLCN6930714  N840000000010735          81CNCBD8885133385            025183    MD84000000010735 NDR599978220273   D6FAB8EF4DT7F96FD498ADA  000000000+600450S00130    MDJ  00560                     000000000  N                0000000000000.00 0000000.00   0000000.00                             000000000000000                                                                                                                                                     015WPE 000000000000 0000000000000.00     00000 00000                  
06879670385538072DR675906759000000268498001258000000106D6FAB8EF4DT7F96FD498ADA  U000000000000                                                                                                                                                                                                                                                                                                                                                                                                                                                                                                                                                                                                                               
06879680385530001G26759067590000002684980012580000001068885133385               WY           9 J               210                                      NNNN           210000000000000000000000000                        7                                          78220273                                                                                                                                                                                                                                                                                                                                                                                                                                               
06879690385538075BH6759067590000001619680010280000090170717202319823000000000041131    0000090001966874N8001026759D07182023096                                                                                                                                                                                                                                                                                                                                                                                                                                                                                                                                                                                              
06879700385538076DT67590675900000016196800102800000010680010287287283198900019668736071520230000002126119823000000000041131531260XXXXXX8579                         YY 4607AMDJMOTTPY0715  N840000000021261          81CNGREEN OTTER LLC          691447    MD84000000021261 NDR549977424386   0339A9C7FCT39EADDAE03A6  000000000+600450S00130    MDJ  10828                     000000000  1                0000000000000.00 0000000.00   0000000.00                             000000000000000                                                                                                                                                     015WPE 000000000000 0000000000000.00     00000 00000                  
06879710385538076DR6759067590000001619680010280000001060339A9C7FCT39EADDAE03A6  N000000000000                                                                                                                                                                                                                                                                                                                                                                                                                                                                                                                                                                                                                               
06879720385530001G26759067590000001619680010280000001068666317293               GA           9 J               210                                      NNNN           210000000000000000000000000                        7                                          77424386                                                                                                                                                                                                                                                                                                                                                                                                                                               
06879730385538077DT67590675900000016196800102800000010680010274001193198900019668748071520230000001987019823000000000041131409451XXXXXX7992               0000000   YYV4 07T303196744133799N8400000000198709FTH00    01CNGREEN OTTER LLC          515104    VS84000000019870 NDR549977424386   74F89861EFT22C09D338DBE  000000000+                D CD 00245                     000000000  N000000000 166   0000000000000.00 0000000.00   0000000.00                             000000000000000                                                                                                                                                     015WPE 000000019870-0000000000003.50     01760 00000                  
06879740385538077DR67590675900000016196800102800000010674F89861EFT22C09D338DBE  Y000000019870                 P1                                                                                                                                                                                                                                                                                                                                                                                                                                                                                                                                                                                                            
06879750385530001P16759067590000001619680010280000001060000000000000000                             2000000000000000000000000              000000000000                    0000000000000000000000000                    000000000000                                                                                                                                                                                                                                                                                                                                                                                                                                                                                        
06879760385530002G2675906759000000161968001028000000106866-6317293              GA           9 C                00                                      NNNN   Y                      000000000000                                                                   77424386                                                                                                                                                                                                                                                                                                                                                                                                                                               
06879770385538080BH6759067590000002684980012580000090170717202319823000000000017136    0000090001948143N8001256759D07182023094                                                                                                                                                                                                                                                                                                                                                                                                                                                                                                                                                                                              
06879780385538081DT67590675900000026849800125800000010680012574001193198900019481431071520230000001713619823000000000017136443041XXXXXX9453               0000000   YYV4 07T583196365479739N840000000017136R4GC00    01CNCBD8885133385            015020    VD84000000017136 NDR599978220273   439FF9D061T8A9EE2E555EF  000000000+                F DF 08168                     000000000  Y000000000 369   0000000000000.00 0000000.00   0000000.00                             000000000000000                                                                                                                                                     015WPE 000000017136 0000000000000.00     00000 00000                  
06879790385538081DR675906759000000268498001258000000106439FF9D061T8A9EE2E555EF  U000000017136                 P1                                                                                                                                                                                                                                                                                                                                                                                                                                                                                                                                                                                                            
06879800385530001P16759067590000002684980012580000001060000000000000000                             2000000000000000000000000              000000000000                    0000000000000000000000000                    000000000000                                                                                                                                                                                                                                                                                                                                                                                                                                                                                        
06879810385530002G2675906759000000268498001258000000106888-5133385              WY           9 D                00                                      NNNN   N                      000000000000                                                                   78220273                                                                                                                                                                                                                                                                                                                                                                                                                                               
06879820385538084BH6759067590000001982880010980000090170717202319823000000000005869    0000090001080807N8001096759D07182023108                                                                                                                                                                                                                                                                                                                                                                                                                                                                                                                                                                                              
06879830385538085DT67590675900000019828800109800000010680010987287283198900010808067071620230000000327419823000000000005869552187XXXXXX7286                         YY 4607AMWEE025K00716  N840000000003274          81CNKETOFUSION 8885968154    016515    MC84000000003274FNDR599977547467   0F12D31411T7EB1F45200BD  000000000+600450S00130    MWE  12236                     000000000  N                0000000000000.00 0000000.00   0000000.00                             000000000000000                                                                                                                                                     015WPE 000000000000-0000000000000.33     01000 00000                  
06879840385538085DR6759067590000001982880010980000001060F12D31411T7EB1F45200BD  R000000000000                                                                                                                                                                                                                                                                                                                                                                                                                                                                                                                                                                                                                               
06879850385530001G26759067590000001982880010980000001068885968154               UT           9 E               210                                      NNNN           210000000000000000000000000                        7                                          77547467                                                                                                                                                                                                                                                                                                                                                                                                                                               
06879860385538086DT67590675900000019828800109800000010680010987287283198900010808075071620230000000259519823000000000005869552187XXXXXX7286                         YY 4607AMWEUDJEKW0716  N840000000002595          81CNKETOFUSION 8885968154    016291    MC84000000002595FNDR599977547467   0F12D31411T8652ABABF8B8  000000000+600450S00130    MWE  12236                     000000000  N                0000000000000.00 0000000.00   0000000.00                             000000000000000                                                                                                                                                     015WPE 000000000000-0000000000000.26     01000 00000                  
06879870385538086DR6759067590000001982880010980000001060F12D31411T8652ABABF8B8  R000000000000                                                                                                                                                                                                                                                                                                                                                                                                                                                                                                                                                                                                                               
06879880385530001G26759067590000001982880010980000001068885968154               UT           9 E               210                                      NNNN           210000000000000000000000000                        7                                          77547467                                                                                                                                                                                                                                                                                                                                                                                                                                               
06879890385538089BH6759067590000001516480088880000090170717202319823000000000024870    0000090001389107N8008886759D07182023138                                                                                                                                                                                                                                                                                                                                                                                                                                                                                                                                                                                              
06879900385538090DT67590675900000015164800888800000010680088887287283198900013891078071620230000002487019823000000000024870552187XXXXXX7286                         YY 4607AMWEIDEVKX0716  N840000000024870          81CNKETOFUSION833-923-3587   016204    MC84000000024870FNDR599977360677   0F12D31411T477C709C6145  000000000+600450S00130    MWE  12236                     000000000  N                0000000000000.00 0000000.00   0000000.00                             000000000000000                                                                                                                                                     015WPE 000000000000-0000000000002.49     01000 00000                  
06879910385538090DR6759067590000001516480088880000001060F12D31411T477C709C6145  R000000000000                                                                                                                                                                                                                                                                                                                                                                                                                                                                                                                                                                                                                               
06879920385530001G26759067590000001516480088880000001068014041097               UT           9 E               210                                      NNNN           210000000000000000000000000                        7                                          77360677                                                                                                                                                                                                                                                                                                                                                                                                                                               
06879930386120002BH6759067590000004108780015180000090170717202319823000000000007300    0000090001020001N8001516759C07182023002                                                                                                                                                                                                                                                                                                                                                                                                                                                                                                                                                                                              
06879940386120003DT67590675900000041087800151800000010180015124001193198900010200017071520230000000730019823000000000007300414709XXXXXX2502       VS11    0001111   NYV1 A E303197028495490N8400000000073007KHR00    05DNROCK STAR ROLL ON LLC    01880D    VS84000000007300 N  599978703154                            000000000+                D CD 12113                     000000000  N000000000 499   0000000000000.00 0000000.00   0000000.00                             000000000000000                                                                                                                                                     01418 A000000000000 0000000000001.63     02100 01000                  
06879950386120001E167590675900000041087800151800000010100E0F8C8062C 00000000000.004040404040404040404040404040404040404040404040404006011203A02002000000000000000000404040404040404040404040404040  0001084038000080008000230715308BE2976D066BEF16AA9627404040400840A0000000031010000000000000000000477609F40082000000000000000000004040401E40404040 000000073.00 000000000.001E00000000000000000000    80                                                                                                                                                                                                                                                                                                                  
06879960386120002G2675906759000000410878001518000000101SARASOTA                 FL           5 C                00                                      NNNN00 Y 00                   000000000000                                                                   78703154                                                                                                                                                                                                                                                                                                                                                                                                                                               
06879970386120004BH6759067590000000288180088880000090170717202319823000000000141219    0000090001630025N8008886759C07182023163                                                                                                                                                                                                                                                                                                                                                                                                                                                                                                                                                                                              
06879980386120005DT67590675900000002881800888800000010180088824001193198900016300019071720230000001273319823000000000141219463405XXXXXX9574       VS11    0001111   NYV1 A E463198508838577N8400000000127336BQP00    05DNHAPPY HIPPIE             016140    VD84000000012733 N  549976487134                            000000000+                F DF 10433                     000000000  Y000000000 338   0000000000000.00 0000000.00   0000000.00                             000000000000000                                                                                                                                                     01418 A000000000000 0000000000000.28     00050 02200                  
06879990386120001E167590675900000002881800888800000010100E0F8C800F4 00000000000.004040404040404040404040404040404040404040404040404006011203A0A000000000000000000000404040404040404040404040404040  000008401800808000800023071771BDD09E96F0D28EFDB4E729404040400840A00000000310100000000000000000002AB9C95BA8F416AD30300000000000004040401E40404040 000000127.33 000000000.001E00000000000000000000    80                                                                                                                                                                                                                                                                                                                  
06880000386120002G2675906759000000028818008888000000101SEVIERVILLE              TN           5 D                00                                      NNNN00 N 00                   000000000000                                                                   76487134                                                                                                                                                                                                                                                                                                                                                                                                                                               
06880010386120006DT67590675900000002881800888800000010180088824001193198900016300027071720230000000694419823000000000141219443044XXXXXX0696       VS11    0001111   NYV1 A E383198514078720N8400000000069444ZBG00    07DNHAPPY HIPPIE             461298    VD84000000006944 N  549976487134                            000000000+                F DF 10433                     000000000  Y000000000 338   0000000000000.00 0000000.00   0000000.00                             000000000000000                                                                                                                                                     01418 A000000000000 0000000000000.25     00050 02200                  
06880020386120001E167590675900000002881800888800000010100E068C80134 00000000000.004040404040404040404040404040404040404040404040404006011203A00000000000000000000000404040404040404040404040404040  0001084000200000000000230717E240481D3473BCA06B1EEDDC404040400840A0000000031010000000000000000000404040404040404040404040404040404040404040404040 000000069.44 000000000.004040400000000000000000    80                                                                                                                                                                                                                                                                                                                  
06880030386120002G2675906759000000028818008888000000101SEVIERVILLE              TN           5 D                00                                      NNNN00 N 00                   000000000000                                                                   76487134                                                                                                                                                                                                                                                                                                                                                                                                                                               
06880040386120007DT67590675900000002881800888800000010180088824001193198900016300035071720230000000485919823000000000141219410064XXXXXX4817       VS11    0001111   NYV1 A E463198561066966N840000000004859KM9D00    07DNHAPPY HIPPIE             05199D    VS84000000004859 N  549976487134                            000000000+                D CD 12113                     000000000  N000000000 499   0000000000000.00 0000000.00   0000000.00                             000000000000000                                                                                                                                                     01418 A000000000000 0000000000001.12     02100 01000                  
06880050386120001E167590675900000002881800888800000010100E068C800BC 00000000000.004040404040404040404040404040404040404040404040404006011203A00000000000000000000000404040404040404040404040404040  0003084020000000000000230717F699CD87B955592B34611ECE404040400840A0000000031010000000000000000000404040404040404040404040404040404040404040404040 000000048.59 000000000.004040400000000000000000    80                                                                                                                                                                                                                                                                                                                  
06880060386120002G2675906759000000028818008888000000101SEVIERVILLE              TN           5 C                00                                      NNNN00 Y 00                   000000000000                                                                   76487134                                                                                                                                                                                                                                                                                                                                                                                                                                               
06880070386120008DT67590675900000002881800888800000010180088824001193198900016300043071720230000000520819823000000000141219419090XXXXXX6199       VS11    0001111   NYV1 A E463198575197413N840000000005208TNK200    05DNHAPPY HIPPIE             962279    VD84000000005208 N  549976487134                            000000000+                F DF 00381                     000000000  N000000000       0000000000000.00 0000000.00   0000000.00                             000000000000000                                                                                                                                                     01418 A000000000000 0000000000000.57     00800 01500                  
06880080386120001E167590675900000002881800888800000010100E0F8C800A6 00000000000.004040404040404040404040404040404040404040404040404006011203A02000000000000000000000404040404040404040404040404040  0001084018008080008000230717293A3300307A1883BB9A25CE404040400840A000000003101000000000000000000071CEBBA10082000000000000000000004040401E40404040 000000052.08 000000000.001E00000000000000000000    80                                                                                                                                                                                                                                                                                                                  
06880090386120002G2675906759000000028818008888000000101SEVIERVILLE              TN           5 D                00                                      NNNN00 N 00                   000000000000                                                                   76487134                                                                                                                                                                                                                                                                                                                                                                                                                                               
06880100386120009DT67590675900000002881800888800000010180088824001193198900016300050071720230000000347319823000000000141219461046XXXXXX3043       VS11    0001111   NYV1 A E463198588651335N840000000003473J6L200    07DNHAPPY HIPPIE             062112    VD84000000003473 N  549976487134                            000000000+                F DF 10433                     000000000  Y000000000 338   0000000000000.00 0000000.00   0000000.00                             000000000000000                                                                                                                                                     01418 A000000000000 0000000000000.24     00050 02200                  
06880110386120001E167590675900000002881800888800000010100E068C80024 00000000000.004040404040404040404040404040404040404040404040404006011203A00000000000000000000000404040404040404040404040404040  000008400000000000000023071791234479A7F6977E9C92A3C2404040400840A0000000031010000000000000000000404040404040404040404040404040404040404040404040 000000034.73 000000000.004040400000000000000000    80                                                                                                                                                                                                                                                                                                                  
06880120386120002G2675906759000000028818008888000000101SEVIERVILLE              TN           5 D                00                                      NNNN00 N 00                   000000000000                                                                   76487134                                                                                                                                                                                                                                                                                                                                                                                                                                               
06880130386120010DT67590675900000002881800888800000010180088824001193198900016300068071720230000000260319823000000000141219422921XXXXXX2751       VS11    0001111   NYV1 A E583198616290635N840000000002603LHH300    07DNHAPPY HIPPIE             047230    VD84000000002603 N  549976487134                            000000000+                F DF 00381                     000000000  N000000000       0000000000000.00 0000000.00   0000000.00                             000000000000000                                                                                                                                                     01418 A000000000000 0000000000000.36     00800 01500                  
06880140386120001E167590675900000002881800888800000010100E068C80038 00000000000.004040404040404040404040404040404040404040404040404006011203A00000000000000000000000404040404040404040404040404040  000008400000000000000023071793F64AA0D3CFC3A856DA94D1404040400840A0000000031010000000000000000000581E85030382000000000000000000004040404040404040 000000026.03 000000000.004040400000000000000000    80                                                                                                                                                                                                                                                                                                                  
06880150386120002G2675906759000000028818008888000000101SEVIERVILLE              TN           5 D                00                                      NNNN00 N 00                   000000000000                                                                   76487134                                                                                                                                                                                                                                                                                                                                                                                                                                               
06880160386120011DT67590675900000002881800888800000010180088877287283198900016300078071720230000000260319823000000000141219544579XXXXXX2333       MS02WI09          NY 1 0 AMDJLG5TFO0717  N840000000002603          07DNHAPPY HIPPIE             332067    MD84000000002603 N  549976487134                            000000000+M10101M0034C    MDJ  10815                     000000000  1                0000000000000.00 0000000.00   0000000.00                             000000000000000                                                                                                                                                   B101418  000000000000 0000000000000.23     00050 02200                  
06880170386120001E167590675900000002881800888800000010100000848008F 00000000000.00404040404040404040404040404040404040404040404040400110A04001220000000000000000000000FF00000000000000000000000000  00000840198000000080012307175B763B6334B63B5B31721103404040400840A00000000410100000000000000000004E7C9A646B8E02F903120000000000004040401F40404040 000000026.03 000000000.001F03020000000000000000    80                                                                                                                                                                                                                                                                                                                  
06880180386120002G2675906759000000028818008888000000101SEVIERVILLE              TN           5 J                                                        NNNN              000000000000000000000000       03               7                                          76487134                                                                                                                                                                                                                                                                                                                                                                                                                                               
06880190386120012DT67590675900000002881800888800000010180088824001193198900016300084071720230000000687319823000000000141219486533XXXXXX6351       VS11    0001111   NYV1 A E463198632978734N840000000006873Q7BC00    07DNHAPPY HIPPIE             218118    VB84000000006873 N  549976487134                            000000000+                S CS 00695                     000000000  N000000000 238   0000000000000.00 0000000.00   0000000.00                             000000000000000                                                                                                                                                     01418 A000000000000 0000000000001.82     02500 01000                  
06880200386120001E167590675900000002881800888800000010100E068C8006A 00000000000.00404040404040404040404040404040404040404040404040401F43FE51200000000000000000034698000000000000000000000000000000  0000084000400000000000230717E5353821E54B9A1BC42AF8AC404040400840A0000000031010000000000000000000404040404040404040404040404040404040404040404040 000000068.73 000000000.004040400000000000000000    80                                                                                                                                                                                                                                                                                                                  
06880210386120002G2675906759000000028818008888000000101SEVIERVILLE              TN           5 C                00                                      NNNN00 N 00                   000000000000                                                                   76487134                                                                                                                                                                                                                                                                                                                                                                                                                                               
06880220386120013DT67590675900000002881800888800000010180088824001193198900016300092071720230000001133819823000000000141219478373XXXXXX1799       VS11    0001111   NYV1 A E383198635620563N840000000011338FVF800    05DNHAPPY HIPPIE             023922    VD84000000011338 N  549976487134                            000000000+                F DF 10433                     000000000  Y000000000 338   0000000000000.00 0000000.00   0000000.00                             000000000000000                                                                                                                                                     01418 A000000000000 0000000000000.28     00050 02200                  
