00020130635360002BH6759067590000001619680010280000090170627202317823000000000284109    0000090001785534Y8001026759C06282023078                                                                                                                                                                                                                                                                                                                                                                                                                                                                                                                                                                                              
00020140635360003DT67590675900000016196800102800000010180010287287283178900017851585062620230000001200817823000000000284109544448XXXXXX4097       ME03KE06MS02      NY 4607AMDJC77U490623  N840000000012008          81DNGREEN OTTER LLC          492443    MD84000000012008 NDR549977424386   5AB9B75F6ATB01D7CECF0BD  000000000+600450S00130    MDJ  10813                     000000000  1                0000000000000.00 0000000.00   0000000.00                             000000000000000                                                                                                                                                   U001424  000000000000 0000000000000.28     00050 02200                  
00020150635360003DR6759067590000001619680010280000001015AB9B75F6ATB01D7CECF0BD  Y000000000000                                                                                                                                                                                                                                                                                                                                                                                                                                                                                                                                                                                                                               
00020160635360001G2675906759000000161968001028000000101866-6317293              GA           9 J               210                                      NNNN           210000000000000000000000000                                                                   77424386                                                                                                                                                                                                                                                                                                                                                                                                                                               
00020170635360004DT67590675900000016196800102800000010180010287287283178900017851692062620230000001987017823000000000284109521333XXXXXX7941       ME03KE06MS02      NY 4607AMWE5COP480623  N840000000019870          81DNGREEN OTTER LLC          02335P    MC84000000019870 NDR549977424386   9692A3BB57TECDE4CB2B834  000000000+600450S00130    MWE  00737                     000000000  N                0000000000000.00 0000000.00   0000000.00                             000000000000000                                                                                                                                                   U001424  000000000000 0000000000005.27     02600 01000                  
00020180635360004DR6759067590000001619680010280000001019692A3BB57TECDE4CB2B834  Z000000000000                                                                                                                                                                                                                                                                                                                                                                                                                                                                                                                                                                                                                               
00020190635360001G2675906759000000161968001028000000101866-6317293              GA           9 E               210                                      NNNN           210000000000000000000000000                        7                                          77424386                                                                                                                                                                                                                                                                                                                                                                                                                                               
00020200635360005DT67590675900000016196800102800000010180010287287283178900017851759062620230000001400817823000000000284109551046XXXXXX5497       ME03KE06MS02      NY 4607AMDJKPOS480623  N840000000014008          81DNGREEN OTTER LLC          844345    MD84000000014008 NDR549977424386   00424CBBFET2AC092425912  000000000+600450S00130    MDJ  00401                     000000000  N                0000000000000.00 0000000.00   0000000.00                             000000000000000                                                                                                                                                   U001424  000000000000 0000000000002.46     01650 01500                  
00020210635360005DR67590675900000016196800102800000010100424CBBFET2AC092425912  Y000000000000                                                                                                                                                                                                                                                                                                                                                                                                                                                                                                                                                                                                                               
00020220635360001G2675906759000000161968001028000000101866-6317293              GA           9 J               210                                      NNNN           210000000000000000000000000                        7                                          77424386                                                                                                                                                                                                                                                                                                                                                                                                                                               
00020230635360006DT67590675900000016196800102800000010180010287287283178900017851809062620230000001987017823000000000284109525437XXXXXX4574       ME03KE06PT01      NY 4607AMCWQEAMN80623  N840000000019870          81DNGREEN OTTER LLC          91320P    MC84000000019870 NDR549977424386   444686E07FT84BE2AFC8F17  000000000+600450S00130    MCW  00642                     000000000  N                0000000000000.00 0000000.00   0000000.00                             000000000000000                                                                                                                                                   U001424  000000000000 0000000000004.47     02200 01000                  
00020240635360006DR675906759000000161968001028000000101444686E07FT84BE2AFC8F17  Y000000000000                                                                                                                                                                                                                                                                                                                                                                                                                                                                                                                                                                                                                               
00020250635360001G2675906759000000161968001028000000101866-6317293              GA           9 W               210                                      NNNN           210000000000000000000000000                        7                                          77424386                                                                                                                                                                                                                                                                                                                                                                                                                                               
00020260635360007DT67590675900000016196800102800000010180010224001193178900017851816062620230000002146017823000000000284109434769XXXXXX0880               2111111   NYV4 A7W383175009058893N840000000021460J63X00    01DNGREEN OTTER LLC          061520    VD84000000021460 NDR549977424386   2520534B75TBF4A36C65514  000000000+                F DF 10420                     000000000  Y000000000 338   0000000000000.00 0000000.00   0000000.00                             000000000000000                                                                                                                                                     01424 G000000021460 0000000000000.33     00050 02200                  
00020270635360007DR6759067590000001619680010280000001012520534B75TBF4A36C65514  Y000000021460                 P1                                                                                                                                                                                                                                                                                                                                                                                                                                                                                                                                                                                                            
00020280635360001P16759067590000001619680010280000001010000000000000000                             2000000000000000000000000              000000000000                    0000000000000000000000000                    000000000000                                                                                                                                                                                                                                                                                                                                                                                                                                                                                        
00020290635360002G2675906759000000161968001028000000101866-6317293              GA           9 D                00                                      NNNN   N                      000000000000                                                                   77424386                                                                                                                                                                                                                                                                                                                                                                                                                                               
00020300635360008DT67590675900000016196800102800000010180010287287283178900017851825062620230000001561617823000000000284109546616XXXXXX7593       ME03KE06MS02      NY 4607AMWESN94N80623  N840000000015616          81DNGREEN OTTER LLC          03250P    MC84000000015616 NDR549977424386   DC70C21A93T7A1851827095  000000000+600450S00130    MWE  00737                     000000000  N                0000000000000.00 0000000.00   0000000.00                             000000000000000                                                                                                                                                   U001424  000000000000 0000000000004.16     02600 01000                  
00020310635360008DR675906759000000161968001028000000101DC70C21A93T7A1851827095  Z000000000000                                                                                                                                                                                                                                                                                                                                                                                                                                                                                                                                                                                                                               
00020320635360001G2675906759000000161968001028000000101866-6317293              GA           9 E               210                                      NNNN           210000000000000000000000000                        7                                          77424386                                                                                                                                                                                                                                                                                                                                                                                                                                               
00020330635360009DT67590675900000016196800102800000010180010287287283178900017851841062620230000001987017823000000000284109510888XXXXXX0663       ME03KE06MS02      NY 4607AMDJVKUKPV0623  N840000000019870          81DNGREEN OTTER LLC          961280    MD84000000019870 NDR549977424386   29BFF4EBFDT426AA85F801F  000000000+600450S00130    MDJ  00401                     000000000  N                0000000000000.00 0000000.00   0000000.00                             000000000000000                                                                                                                                                   U001424  000000000000 0000000000003.43     01650 01500                  
00020340635360009DR67590675900000016196800102800000010129BFF4EBFDT426AA85F801F  Y000000000000                                                                                                                                                                                                                                                                                                                                                                                                                                                                                                                                                                                                                               
00020350635360001G2675906759000000161968001028000000101866-6317293              GA           9 J               210                                      NNNN           210000000000000000000000000                        7                                          77424386                                                                                                                                                                                                                                                                                                                                                                                                                                               
00020360635360010DT67590675900000016196800102800000010180010224001193178900017854497062620230000001987017823000000000284109470793XXXXXX5136               2111111   NYV4 A7W583178129045205N840000000019870NJ7600    01DNGREEN OTTER LLC          026754    VS84000000019870 NDR549977424386   38B07BA9C4TCF1FE1D31BB4  000000000+                B CB 12107                     000000000  N000000000 494   0000000000000.00 0000000.00   0000000.00                             000000000000000                                                                                                                                                     01424 G000000019870 0000000000004.15     02040 01000                  
00020370635360010DR67590675900000016196800102800000010138B07BA9C4TCF1FE1D31BB4  Z000000019870                 P1                                                                                                                                                                                                                                                                                                                                                                                                                                                                                                                                                                                                            
00020380635360001P16759067590000001619680010280000001010000000000000000                             2000000000000000000000000              000000000000                    0000000000000000000000000                    000000000000                                                                                                                                                                                                                                                                                                                                                                                                                                                                                        
00020390635360002G2675906759000000161968001028000000101866-6317293              GA           9 C                00                                      NNNN   N                      000000000000                                                                   77424386                                                                                                                                                                                                                                                                                                                                                                                                                                               
00020400635360011DT67590675900000016196800102800000010180010287287283178900017854621062720230000002661117823000000000284109544348XXXXXX4161       ME03KE06MS02      NY 4607AMDSB1OC4Z0627  N840000000026611          81DNGREEN OTTER LLC          151996    MD84000000026611 NDR549977424386   64DC6AF318TCDC0F74D96B2  000000000+600450S00130    MDS  00401                     000000000  N                0000000000000.00 0000000.00   0000000.00                             000000000000000                                                                                                                                                   U001424  000000000000 0000000000004.54     01650 01500                  
00020410635360011DR67590675900000016196800102800000010164DC6AF318TCDC0F74D96B2  Y000000000000                                                                                                                                                                                                                                                                                                                                                                                                                                                                                                                                                                                                                               
00020420635360001G2675906759000000161968001028000000101866-6317293              GA           9 S               210                                      NNNN           210000000000000000000000000                                                                   77424386                                                                                                                                                                                                                                                                                                                                                                                                                                               
00020430635360012DT67590675900000016196800102800000010180010224001193178900017854661062720230000000149517823000000000284109444796XXXXXX4296               2111111   NYV4 A7W303178516962738N840000000001495FJR500    01DNGREEN OTTER LLC          027561    VS84000000001495 NDR549977424386   707AC90180T28833DEB637F  000000000+                A CA 12106                     000000000  N000000000 492   0000000000000.00 0000000.00   0000000.00                             000000000000000                                                                                                                                                     01424 G000000001495 0000000000000.38     01890 01000                  
00020440635360012DR675906759000000161968001028000000101707AC90180T28833DEB637F  Y000000001495                 P1                                                                                                                                                                                                                                                                                                                                                                                                                                                                                                                                                                                                            
00020450635360001P16759067590000001619680010280000001010000000000000000                             2000000000000000000000000              000000000000                    0000000000000000000000000                    000000000000                                                                                                                                                                                                                                                                                                                                                                                                                                                                                        
00020460635360002G2675906759000000161968001028000000101866-6317293              GA           9 C                00                                      NNNN   N                      000000000000                                                                   77424386                                                                                                                                                                                                                                                                                                                                                                                                                                               
00020470635360013DT67590675900000016196800102800000010180010224001193178900017854810062720230000002686617823000000000284109434257XXXXXX1952               2111111   NYV4 A7W583178585850294N840000000026866FJN300    01DNGREEN OTTER LLC          096082    VD84000000026866 NDR549977424386   49D1D47F02T43EC19BFCABA  000000000+                F DF 10420                     000000000  Y000000000 338   0000000000000.00 0000000.00   0000000.00                             000000000000000                                                                                                                                                     01424 G000000026866 0000000000000.35     00050 02200                  
00020480635360013DR67590675900000016196800102800000010149D1D47F02T43EC19BFCABA  Y000000026866                 P1                                                                                                                                                                                                                                                                                                                                                                                                                                                                                                                                                                                                            
00020490635360001P16759067590000001619680010280000001010000000000000000                             2000000000000000000000000              000000000000                    0000000000000000000000000                    000000000000                                                                                                                                                                                                                                                                                                                                                                                                                                                                                        
00020500635360002G2675906759000000161968001028000000101866-6317293              GA           9 D                00                                      NNNN   N                      000000000000                                                                   77424386                                                                                                                                                                                                                                                                                                                                                                                                                                               
00020510635360014DT67590675900000016196800102800000010680010274001193178900017855572062720230000002661117823000000000284109413037XXXXXX2751               0000000   NY94 07N000000000000000N   000000000000          01CNGREEN OTTER LLC                    VD84000000026611 N  549977424386                            000000000+                F DF 08168                     000000000  Y000000000 369   0000000000000.00 0000000.00   0000000.00                             000000000000000                                                                                                                                                     01424  000000000000 0000000000000.00     00000 00000                  
00020520635360001G2675906759000000161968001028000000106866-6317293              GA           9 D                00                                      NNNN00 N 00                   000000000000                                                                   77424386                                                                                                                                                                                                                                                                                                                                                                                                                                               
00020530635360015DT67590675900000016196800102800000010180010224001193178900017855098062720230000002151917823000000000284109479853XXXXXX2061       EF10    2111111   NYV4 A7W463178676546190N8400000000215195HJ400    01DNGREEN OTTER LLC          317274    VB84000000021519 NDR549977424386   2DD3A30848T4C5B0259FFC7  000000000+                G CG 00476                     000000000  N000000000 170   0000000000000.00 0000000.00   0000000.00                             000000000000000                                                                                                                                                     01424 G000000021519 0000000000004.19     01900 01000                  
00020540635360015DR6759067590000001619680010280000001012DD3A30848T4C5B0259FFC7  Y000000021519                 P1                                                                                                                                                                                                                                                                                                                                                                                                                                                                                                                                                                                                            
00020550635360001P16759067590000001619680010280000001010000000000000000                             1000000001649000000000000              000000000000                    0000000000000000000000000                    000000000000                                                                                                                                                                                                                                                                                                                                                                                                                                                                                        
00020560635360002G2675906759000000161968001028000000101866-6317293              GA           9 C                00                                      NNNN   Y                      000000000000                                                                   77424386                                                                                                                                                                                                                                                                                                                                                                                                                                               
00020570635360016DT67590675900000016196800102800000010180010224001193178900017855163062720230000000642817823000000000284109409970XXXXXX8788               2111111   NYV4 A7W463178707947938N840000000006428RQSB00    01DNGREEN OTTER LLC          08627A    VS84000000006428 NDR549977424386   7AF1391466T49E6722564EF  000000000+                A CA 12106                     000000000  N000000000 492   0000000000000.00 0000000.00   0000000.00                             000000000000000                                                                                                                                                     01424 G000000006428 0000000000001.31     01890 01000                  
00020580635360016DR6759067590000001619680010280000001017AF1391466T49E6722564EF  Y000000006428                 P1                                                                                                                                                                                                                                                                                                                                                                                                                                                                                                                                                                                                            
00020590635360001P16759067590000001619680010280000001010000000000000000                             2000000000000000000000000              000000000000                    0000000000000000000000000                    000000000000                                                                                                                                                                                                                                                                                                                                                                                                                                                                                        
00020600635360002G2675906759000000161968001028000000101866-6317293              GA           9 C                00                                      NNNN   Y                      000000000000                                                                   77424386                                                                                                                                                                                                                                                                                                                                                                                                                                               
00020610635360017DT67590675900000016196800102800000010680010287287283178900017855214062720230000001987017823000000000284109521333XXXXXX7941                         NY 4607AMPLZIKSD00627  N840000000019870          81CNGREEN OTTER LLC          027784    MC84000000019870 NDR549977424386   9692A3BB57TECDE4CB2B834  000000000+600450S00130    MPL  00565                     000000000  N                0000000000000.00 0000000.00   0000000.00                             000000000000000                                                                                                                                                     01424  000000000000-0000000000003.48     01750 00000                  
00020620635360017DR6759067590000001619680010280000001069692A3BB57TECDE4CB2B834  R000000000000                                                                                                                                                                                                                                                                                                                                                                                                                                                                                                                                                                                                                               
00020630635360001G2675906759000000161968001028000000106866-6317293              GA           9 L               210                                      NNNN           210000000000000000000000000                        7                                          77424386                                                                                                                                                                                                                                                                                                                                                                                                                                               
00020640635360018DT67590675900000016196800102800000010180010224001193178900017855247062720230000001499117823000000000284109400022XXXXXX4141               2111111   NYV4 A7W583178735044371N8400000000149917GW700    01DNGREEN OTTER LLC          547561    VD84000000014991 NDR549977424386   0A734766C0TF03B4BA1CCFB  000000000+                F DF 10420                     000000000  Y000000000 338   0000000000000.00 0000000.00   0000000.00                             000000000000000                                                                                                                                                     01424 G000000014991 0000000000000.29     00050 02200                  
00020650635360018DR6759067590000001619680010280000001010A734766C0TF03B4BA1CCFB  Y000000014991                 P1                                                                                                                                                                                                                                                                                                                                                                                                                                                                                                                                                                                                            
00020660635360001P16759067590000001619680010280000001010000000000000000                             2000000000000000000000000              000000000000                    0000000000000000000000000                    000000000000                                                                                                                                                                                                                                                                                                                                                                                                                                                                                        
00020670635360002G2675906759000000161968001028000000101866-6317293              GA           9 D                00                                      NNNN   N                      000000000000                                                                   77424386                                                                                                                                                                                                                                                                                                                                                                                                                                               
00020680635360019DT67590675900000016196800102800000010180010224001193178900017855270062720230000002667317823000000000284109480209XXXXXX3344               2111111   NYV4 A7W383178759138698N840000000026673C42C00    01DNGREEN OTTER LLC          012211    VD84000000026673 NDR549977424386   D1A85EA5A0TB0F7DCED95F2  000000000+                G DG 10352                     000000000  Y000000000 338   0000000000000.00 0000000.00   0000000.00                             000000000000000                                                                                                                                                     01424 G000000026673 0000000000000.35     00050 02200                  
00020690635360019DR675906759000000161968001028000000101D1A85EA5A0TB0F7DCED95F2  Y000000026673                 P1                                                                                                                                                                                                                                                                                                                                                                                                                                                                                                                                                                                                            
00020700635360001P16759067590000001619680010280000001010000000000000000                             1000000001803000000000000              000000000000                    0000000000000000000000000                    000000000000                                                                                                                                                                                                                                                                                                                                                                                                                                                                                        
00020710635360002G2675906759000000161968001028000000101866-6317293              GA           9 D                00                                      NNNN   N                      000000000000                                                                   77424386                                                                                                                                                                                                                                                                                                                                                                                                                                               
00020720635360020DT67590675900000016196800102800000010180010224001193178900017855288062720230000002175817823000000000284109402240XXXXXX5234               2111111   NYV4 A7W303178765051747N8400000000217588SSM00    01DNGREEN OTTER LLC          192973    VD84000000021758 NDR549977424386   F132B9A5C4TBC24A523C6F2  000000000+                F PF 08175                     000000000  N000000000       0000000000000.00 0000000.00   0000000.00                             000000000000000                                                                                                                                                     01424 G000000021758 0000000000004.01     01750 02000                  
00020730635360020DR675906759000000161968001028000000101F132B9A5C4TBC24A523C6F2  Y000000021758                 P1                                                                                                                                                                                                                                                                                                                                                                                                                                                                                                                                                                                                            
00020740635360001P16759067590000001619680010280000001010000000000000000                             2000000000000000000000000              000000000000                    0000000000000000000000000                    000000000000                                                                                                                                                                                                                                                                                                                                                                                                                                                                                        
00020750635360002G2675906759000000161968001028000000101866-6317293              GA           9 P                00                                      NNNN   N                      000000000000                                                                   77424386                                                                                                                                                                                                                                                                                                                                                                                                                                               
00020760635360021DT67590675900000016196800102800000010180010224001193178900017855312062720230000002180717823000000000284109467364XXXXXX0647               2111111   NYV4 A7W463178774320244N840000000021807RT8Z00    01DNGREEN OTTER LLC          027485    VS84000000021807 NDR549977424386   E90BA20E60TE2B7586C9258  000000000+                A CA 12106                     000000000  N000000000 492   0000000000000.00 0000000.00   0000000.00                             000000000000000                                                                                                                                                     01424 G000000021807 0000000000004.22     01890 01000                  
00020770635360021DR675906759000000161968001028000000101E90BA20E60TE2B7586C9258  Y000000021807                 P1                                                                                                                                                                                                                                                                                                                                                                                                                                                                                                                                                                                                            
00020780635360001P16759067590000001619680010280000001010000000000000000                             2000000000000000000000000              000000000000                    0000000000000000000000000                    000000000000                                                                                                                                                                                                                                                                                                                                                                                                                                                                                        
00020790635360002G2675906759000000161968001028000000101866-6317293              GA           9 C                00                                      NNNN   N                      000000000000                                                                   77424386                                                                                                                                                                                                                                                                                                                                                                                                                                               
00020800635360022DT67590675900000016196800102800000010180010224001193178900017855346062720230000001987017823000000000284109435544XXXXXX2704               2111111   NYV4 A7W583178817133113N840000000019870BZ7B00    01DNGREEN OTTER LLC          118048    VD84000000019870 NDR549977424386   2D107B7D5CT2A5F89AB5929  000000000+                F DF 10420                     000000000  Y000000000 338   0000000000000.00 0000000.00   0000000.00                             000000000000000                                                                                                                                                     01424 G000000019870 0000000000000.32     00050 02200                  
00020810635360022DR6759067590000001619680010280000001012D107B7D5CT2A5F89AB5929  Y000000019870                 P1                                                                                                                                                                                                                                                                                                                                                                                                                                                                                                                                                                                                            
00020820635360001P16759067590000001619680010280000001010000000000000000                             2000000000000000000000000              000000000000                    0000000000000000000000000                    000000000000                                                                                                                                                                                                                                                                                                                                                                                                                                                                                        
00020830635360002G2675906759000000161968001028000000101866-6317293              GA           9 D                00                                      NNNN   N                      000000000000                                                                   77424386                                                                                                                                                                                                                                                                                                                                                                                                                                               
00020840635360023BH6759067590000003008080013280000090170627202317823000000000033773    0000090001070159Y8001326759C06282023007                                                                                                                                                                                                                                                                                                                                                                                                                                                                                                                                                                                              
00020850635360024DT67590675900000030080800132800000010180013224001193178900010701570062620230000000690417823000000000033773414778XXXXXX7940               2111111   NYV4 A7W583178003356142N8400000000069042WBP00    01DNCBD18882414921           916250    VS84000000006904 NDR549978391202   4FA55A5D36T9E4B96DE0D4B  000000000+                D CD 12109                     000000000  N000000000 498   0000000000000.00 0000000.00   0000000.00                             000000000000000                                                                                                                                                     01424 G000000006904 0000000000001.83     02500 01000                  
00020860635360024DR6759067590000003008080013280000001014FA55A5D36T9E4B96DE0D4B  Y000000006904                 P1                                                                                                                                                                                                                                                                                                                                                                                                                                                                                                                                                                                                            
00020870635360001P16759067590000003008080013280000001010000000000000000                             2000000000000000000000000              000000000000                    0000000000000000000000000                    000000000000                                                                                                                                                                                                                                                                                                                                                                                                                                                                                        
00020880635360002G2675906759000000300808001328000000101844-5754156              CA           9 C                00                                      NNNN   Y                      000000000000                                                                   78391202                                                                                                                                                                                                                                                                                                                                                                                                                                               
00020890635360025DT67590675900000030080800132800000010180013287287283178900010701597062720230000002686917823000000000033773542418XXXXXX0428       ME03KE06PT01      NY 4607AMCWP9997H0627  N840000000026869          81DNCBD18882414921           25863P    MC84000000026869 NDR549978391202   F6E285DE2ETFFB95C9F4759  000000000+600450S00130    MCW  00642                     000000000  N                0000000000000.00 0000000.00   0000000.00                             000000000000000                                                                                                                                                   U001424  000000000000 0000000000006.01     02200 01000                  
00020900635360025DR675906759000000300808001328000000101F6E285DE2ETFFB95C9F4759  Y000000000000                                                                                                                                                                                                                                                                                                                                                                                                                                                                                                                                                                                                                               
00020910635360001G2675906759000000300808001328000000101188-82414921             CA           9 W               210                                      NNNN           210000000000000000000000000                        7                                          78391202                                                                                                                                                                                                                                                                                                                                                                                                                                               
00020920635360026BH675906759000000198288001098000009017062720231782300000000013464701970000090001930646N8001096759D06282023093                                                                                                                                                                                                                                                                                                                                                                                                                                                                                                                                                                                              
00020930635360027DT67590675900000019828800109800000010680010987287283178900019306356062720230000000198817823000000000134647540656XXXXXX6240                         NN 4607AMCGFDLZ4Z0627  N840000000001988          81CNKETOFUSION 8885968154    0272920197MC84000000001988 NDR599977547467   A6BE571810T3CA2016400CD  000000000+600450S00130    MCG  00000                     000000000  N                0000000000000.00 0000000.00   0000000.00             000000000001988C000000000000000                                                                                                                                                     01424  000000000000 0000000000000.00     00000 00000                  
00020940635360027DR675906759000000198288001098000000106A6BE571810T3CA2016400CD  R000000000000                                                                                                                                                                                                                                                                                                                                                                                                                                                                                                                                                                                                                               
00020950635360001G2675906759000000198288001098000000106888-5968154              UT           9 G               210                                      NNNN           210000000000000000000000000                        7                                          77547467                                                                                                                                                                                                                                                                                                                                                                                                                                               
00020960635360028DT67590675900000019828800109800000010680010987287283178900019306364062720230000000519017823000000000134647540656XXXXXX6240                         NN 4607AMCGIE4B940627  N840000000005190          81CNKETOFUSION 8885968154    0277260197MC84000000005190 NDR599977547467   A6BE571810TDC8263E989EF  000000000+600450S00130    MCG  00000                     000000000  N                0000000000000.00 0000000.00   0000000.00             000000000005190C000000000000000                                                                                                                                                     01424  000000000000 0000000000000.00     00000 00000                  
00020970635360028DR675906759000000198288001098000000106A6BE571810TDC8263E989EF  R000000000000                                                                                                                                                                                                                                                                                                                                                                                                                                                                                                                                                                                                                               
00020980635360001G2675906759000000198288001098000000106888-5968154              UT           9 G               210                                      NNNN           210000000000000000000000000                        7                                          77547467                                                                                                                                                                                                                                                                                                                                                                                                                                               
00020990635360029DT67590675900000019828800109800000010680010987287283178900019306372062720230000002487017823000000000134647542418XXXXXX8448                         NN 4607AMPLFHHM4Z0627  N840000000024870          81CNKETOFUSION 8885968154    4855370197MC84000000024870 NDR599977547467   1001CEC022TB43D84DA2A76  000000000+600450S00130    MPL  00000                     000000000  N                0000000000000.00 0000000.00   0000000.00             000000000024870C000000000000000                                                                                                                                                     01424  000000000000 0000000000000.00     00000 00000                  
00021000635360029DR6759067590000001982880010980000001061001CEC022TB43D84DA2A76  U000000000000                                                                                                                                                                                                                                                                                                                                                                                                                                                                                                                                                                                                                               
00021010635360001G2675906759000000198288001098000000106888-5968154              UT           9 L               210                                      NNNN           210000000000000000000000000                        7                                          77547467                                                                                                                                                                                                                                                                                                                                                                                                                                               
00021020635360030DT67590675900000019828800109800000010680010987287283178900019306398062720230000001987017823000000000134647542418XXXXXX7587                         NN 4607AMPLTKHTC10627  N840000000019870          81CNKETOFUSION 8885968154    2657510197MC84000000019870 NDR599977547467   E52018EE7BTEF6D26527EC9  000000000+600450S00130    MPL  00000                     000000000  N                0000000000000.00 0000000.00   0000000.00             000000000019870C000000000000000                                                                                                                                                     01424  000000000000 0000000000000.00     00000 00000                  
00021030635360030DR675906759000000198288001098000000106E52018EE7BTEF6D26527EC9  U000000000000                                                                                                                                                                                                                                                                                                                                                                                                                                                                                                                                                                                                                               
00021040635360001G2675906759000000198288001098000000106888-5968154              UT           9 L               210                                      NNNN           210000000000000000000000000                        7                                          77547467                                                                                                                                                                                                                                                                                                                                                                                                                                               
00021050635360031DT67590675900000019828800109800000010680010987287283178900019306406062720230000000654817823000000000134647542418XXXXXX8190                         NN 4607AMPLREUR7H0627  N840000000006548          81CNKETOFUSION 8885968154    9482900197MC84000000006548 NDR599977547467   2A29B87F43TD29894C2CD99  000000000+600450S00130    MPL  00000                     000000000  N                0000000000000.00 0000000.00   0000000.00             000000000006548C000000000000000                                                                                                                                                     01424  000000000000 0000000000000.00     00000 00000                  
00021060635360031DR6759067590000001982880010980000001062A29B87F43TD29894C2CD99  U000000000000                                                                                                                                                                                                                                                                                                                                                                                                                                                                                                                                                                                                                               
00021070635360001G2675906759000000198288001098000000106888-5968154              UT           9 L               210                                      NNNN           210000000000000000000000000                        7                                          77547467                                                                                                                                                                                                                                                                                                                                                                                                                                               
00021080635360032DT67590675900000019828800109800000010680010987287283178900019306414062720230000000198817823000000000134647542418XXXXXX8190                         NN 4607AMPLKM2LOW0627  N840000000001988          81CNKETOFUSION 8885968154    8241290197MC84000000001988 NDR599977547467   2A29B87F43TD215E98AAD56  000000000+600450S00130    MPL  00000                     000000000  N                0000000000000.00 0000000.00   0000000.00             000000000001988C000000000000000                                                                                                                                                     01424  000000000000 0000000000000.00     00000 00000                  
00021090635360032DR6759067590000001982880010980000001062A29B87F43TD215E98AAD56  U000000000000                                                                                                                                                                                                                                                                                                                                                                                                                                                                                                                                                                                                                               
00021100635360001G2675906759000000198288001098000000106888-5968154              UT           9 L               210                                      NNNN           210000000000000000000000000                        7                                          77547467                                                                                                                                                                                                                                                                                                                                                                                                                                               
00021110635360033DT67590675900000019828800109800000010680010987287283178900019306539062720230000002487017823000000000134647545510XXXXXX9373                         NN94607N         0627  N840000000000000          81CNKETOFUSION 8885968154          0197MD84000000024870 N  599977547467   0F8F4D8E5CT93DA18E500B7  000000000+600450S00130    MDS  00000                     000000000  1                0000000000000.00 0000000.00   0000000.00             000000000024870C000000000000000                                                                                                                                                     01424  000000000000 0000000000000.00     00000 00000                  
00021120635360001G2675906759000000198288001098000000106888-5968154              UT           9 S               210                                      NNNN           210000000000000000000000000                                                                   77547467                                                                                                                                                                                                                                                                                                                                                                                                                                               
00021130635360034DT67590675900000019828800109800000010680010987287283178900019306547062720230000002487017823000000000134647545510XXXXXX9373                         NN94607N         0627  N840000000000000          81CNKETOFUSION 8885968154          0197MD84000000024870 N  599977547467   58720BB29AT7AF9007726A4  000000000+600450S00130    MDS  00000                     000000000  1                0000000000000.00 0000000.00   0000000.00             000000000024870C000000000000000                                                                                                                                                     01424  000000000000 0000000000000.00     00000 00000                  
00021140635360001G2675906759000000198288001098000000106888-5968154              UT           9 S               210                                      NNNN           210000000000000000000000000                                                                   77547467                                                                                                                                                                                                                                                                                                                                                                                                                                               
00021150635360035DT67590675900000019828800109800000010680010987287283178900019306554062720230000001987017823000000000134647544448XXXXXX3244                         NN94607N         0627  N840000000000000          81CNKETOFUSION 8885968154          0197MD84000000019870 N  599977547467   621D052700TF51098402A8E  000000000+600450S00130    MDJ  00000                     000000000  1                0000000000000.00 0000000.00   0000000.00             000000000019870C000000000000000                                                                                                                                                     01424  000000000000 0000000000000.00     00000 00000                  
00021160635360001G2675906759000000198288001098000000106888-5968154              UT           9 J               210                                      NNNN           210000000000000000000000000                                                                   77547467                                                                                                                                                                                                                                                                                                                                                                                                                                               
00021170635360036DT67590675900000019828800109800000010680010987287283178900019306455062720230000000198817823000000000134647517282XXXXXX2100                         NN 4607AMDJN9MBP70627  N840000000001988          81CNKETOFUSION 8885968154    0237790197MD84000000001988 NDR599977547467   BB92D1A8F2TDEDA7ECAEFC2  000000000+600450S00130    MDJ  00000                     000000000  N                0000000000000.00 0000000.00   0000000.00             000000000001988C000000000000000                                                                                                                                                     01424  000000000000 0000000000000.00     00000 00000                  
00021180635360036DR675906759000000198288001098000000106BB92D1A8F2TDEDA7ECAEFC2  U000000000000                                                                                                                                                                                                                                                                                                                                                                                                                                                                                                                                                                                                                               
00021190635360001G2675906759000000198288001098000000106888-5968154              UT           9 J               210                                      NNNN           210000000000000000000000000                                                                   77547467                                                                                                                                                                                                                                                                                                                                                                                                                                               
00021200635360037DT67590675900000019828800109800000010680010987287283178900019306463062720230000000259517823000000000134647517282XXXXXX2100                         NN 4607AMDJBAHVD10627  N840000000002595          81CNKETOFUSION 8885968154    0237900197MD84000000002595 NDR599977547467   BB92D1A8F2T2ED395D6FB76  000000000+600450S00130    MDJ  00000                     000000000  N                0000000000000.00 0000000.00   0000000.00             000000000002595C000000000000000                                                                                                                                                     01424  000000000000 0000000000000.00     00000 00000                  
00021210635360037DR675906759000000198288001098000000106BB92D1A8F2T2ED395D6FB76  U000000000000                                                                                                                                                                                                                                                                                                                                                                                                                                                                                                                                                                                                                               
00021220635360001G2675906759000000198288001098000000106888-5968154              UT           9 J               210                                      NNNN           210000000000000000000000000                                                                   77547467                                                                                                                                                                                                                                                                                                                                                                                                                                               
00021230635360038BH6759067590000002092580011280000090170627202317823000000000003000    0000090001450107Y8001126759C06282023045                                                                                                                                                                                                                                                                                                                                                                                                                                                                                                                                                                                              
00021240635360039DT67590675900000020925800112800000010180011287287283178900014501076062720230000000300017823000000000003000527519XXXXXX6014       ME03KE06MS02      NY 4607AMDJHXPEQT0627  N840000000003000          81DNJ K DISTRIBUTION INC     105355    MD84000000003000 NDR549977712156   8479810950               000000000+600450S00130    MDJ  10813                     000000000  1                0000000000000.00 0000000.00   0000000.00                             000000000000000                                                                                                                                                   U001424  000000000000 0000000000000.24     00050 02200                  
00021250635360039DR6759067590000002092580011280000001018479810950               N000000000000                                                                                                                                                                                                                                                                                                                                                                                                                                                                                                                                                                                                                               
00021260635360001G2675906759000000209258001128000000101860-8957639              CT           9 J               210                                      NNNN           210000000000000000000000000                        7                                          77712156                                                                                                                                                                                                                                                                                                                                                                                                                                               
00021270635360040BH6759067590000003469480014280000090170627202317823000000000140000    0000090001080017Y8001426759C06282023008                                                                                                                                                                                                                                                                                                                                                                                                                                                                                                                                                                                              
00021280635360041DT67590675900000034694800142800000010180014273011003178900010800170062720230000014000017823000000000140000371557XXXXX4011                          NY 4 07N005491385228305N840000000140000          01DNHORIZON WHOLESALE LLC    263246    AM84000000140000 Y  549978512084                            000000000+6004S0S00130 258     11263                     000000000                   0000000000000.00 0000000.00   0000000.00                             000000000000000 61248972086759675900000034694 HORIZON WHOLESALE LLC    2559 W STATEHOOD DR      8015186233      84065     HORIZONWHOLESALE2@GMAIL.COM               01324  000000000000 0000000000033.70     02400 00000                  
00021290635360001G2675906759000000346948001428000000101BLUFFDALE                UT           0                  00                                      NNNN                          000000000000                                                                   78512084                                                                                                                                                                                                                                                                                                                                                                                                                                               
00021300635360042BH6759067590000001857280010580000090170627202317823000000000032052    0000090001100005Y8001056759C06282023110                                                                                                                                                                                                                                                                                                                                                                                                                                                                                                                                                                                              
00021310635360043DT67590675900000018572800105800000010180010524001193178900011000030062720230000000278117823000000000032052444938XXXXXX4998       VS11    0001111   NYV1 A E583178815517103N840000000002781NQ7G00    05DNGALLERY SMOKE SHOP LLC   083911    VS84000000002781 N  599977453598                            000000000+                B CB 12111                     000000000  N000000000 495   0000000000000.00 0000000.00   0000000.00                             000000000000000                                                                                                                                                     01424 A000000000000 0000000000000.56     01650 01000                  
00021320635360001E167590675900000018572800105800000010100E0F8C800DA 00000000000.004040404040404040404040404040404040404040404040404006011203A0A000000000000000000000404040404040404040404040404040  0000084018008000008000230627AC6A86D4E956D589415AA7BF404040400840A0000000031010000000000000000000404040404040404040404040404040404040405E40404040 000000027.81 000000000.005E00000000000000000000    80                                                                                                                                                                                                                                                                                                                  
00021330635360002G2675906759000000185728001058000000101SEMINOLE                 FL           5 C                00                                      NNNN00 N 00                   000000000000                                                                   77453598                                                                                                                                                                                                                                                                                                                                                                                                                                               
00021340635360044DT67590675900000018572800105800000033080010576759003178900011000019062720230000000505417823000000000032052402944XXXXXX1988                         NY 2 0 N               N840000000005054      IL  05DNGALLERY SMOKE SHOP LLC   062912    DB84000000005054 N  599977453598                            000000000+                     09584                                Y          273   0000000000000.00 0000000.00   0000000.00                             000000000000000                                                                                                                                                     01424  000000000000 0000000000000.25     00050 00000                  
00021350635360001G2675906759000000185728001058000000330SEMINOLE                 FL           5 D                00                                      NNNN                          000000000000                                                                   77453598                                                                                                                                                                                                                                                                                                                                                                                                                                               
00021360635360045DT67590675900000018572800105800000033080010576759003178900011000027062720230000000139017823000000000032052440393XXXXXX0840                         NY 2 0 N               N840000000001390      IL  05DNGALLERY SMOKE SHOP LLC   587715    DB84000000001390 N  599977453598                            000000000+                     09576                                N          346   0000000000000.00 0000000.00   0000000.00                             000000000000000                                                                                                                                                     01424  000000000000 0000000000000.31     01150 00000                  
00021370635360001G2675906759000000185728001058000000330SEMINOLE                 FL           5 P                00                                      NNNN                          000000000000                                                                   77453598                                                                                                                                                                                                                                                                                                                                                                                                                                               
00021380635360046DT67590675900000018572800105800000033080010576759003178900011000043062720230000000822317823000000000032052426207XXXXXX5325                         NY 2 0 N               N840000000008223      IL  05DNGALLERY SMOKE SHOP LLC   004258    DB84000000008223 N  599977453598                            000000000+                     09573                                N          121   0000000000000.00 0000000.00   0000000.00                             000000000000000                                                                                                                                                     01424  000000000000 0000000000000.81     00800 00000                  
00021390635360001G2675906759000000185728001058000000330SEMINOLE                 FL           5 D                00                                      NNNN                          000000000000                                                                   77453598                                                                                                                                                                                                                                                                                                                                                                                                                                               
00021400635360047DT67590675900000018572800105800000033080010576759003178900011000050062720230000001460417823000000000032052453506XXXXXX4478                         NY 2 0 N               N840000000014604      IL  05DNGALLERY SMOKE SHOP LLC   H97704    DB84000000014604 N  599977453598                            000000000+                     09580                                Y          342   0000000000000.00 0000000.00   0000000.00                             000000000000000                                                                                                                                                     01424  000000000000 0000000000000.29     00050 00000                  
00021410635360001G2675906759000000185728001058000000330SEMINOLE                 FL           5 D                00                                      NNNN                          000000000000                                                                   77453598                                                                                                                                                                                                                                                                                                                                                                                                                                               
00021420635360048BH6759067590000003377980013880000090170627202317823000000000018841    0000090001090007Y8001386759C06282023009                                                                                                                                                                                                                                                                                                                                                                                                                                                                                                                                                                                              
00021430635360049DT67590675900000033779800138800000010180013824001193178900010900016062720230000000148817823000000000018841416469XXXXXX4303       VK04VS111111111   NYV1 A E463178527196144N840000000001488M2MX00    07DNSLOW PUFFS LLC           103087    VD84000000001488 N  599378415682                            000000000+                F DF 10439                     000000000  Y000000000 331   0000000000000.00 0000000.00   0000000.00                             000000000000000                                                                                                                                                     01424 F000000000000 0000000000000.23     00050 02200                  
00021440635360001E167590675900000033779800138800000010100E068C80004 00000000000.00404040404040404040404040404040404040404040404040401F4A0132A00000000010030273000000004000000000000000000000000000  00000840004000000000002306274D1282622ED076B8AA9349E3404040400840A00000000310100000000000000000002DA50F7F614533C530300000000000004040404040404040 000000014.88 000000000.004040400000000000000000    80                                                                                                                                                                                                                                                                                                                  
00021450635360002G2675906759000000337798001388000000101HAMDEN                   CT           5 D                00                                      NNNN00 N 00                   000000000000                                                                   78415682                                                                                                                                                                                                                                                                                                                                                                                                                                               
00021460635360050DT67590675900000033779800138800000010180013824001193178900010900024062720230000000906517823000000000018841420767XXXXXX9318       VS11    0001111   NYV1 A E383178557670198N8400000000090656M3X00    07DNSLOW PUFFS LLC           082911    VD84000000009065 N  599378415682                            000000000+                F DF 10433                     000000000  Y000000000 338   0000000000000.00 0000000.00   0000000.00                             000000000000000                                                                                                                                                     01424 A000000000000 0000000000000.27     00050 02200                  
00021470635360001E167590675900000033779800138800000010100E068C80066 00000000000.004040404040404040404040404040404040404040404040404006011203A00000000000000000000000404040404040404040404040404040  000008400000000000000023062706A4D794D8C7F716DF050641404040400840A0000000031010000000000000000000404040404040404040404040404040404040404040404040 000000090.65 000000000.004040400000000000000000    80                                                                                                                                                                                                                                                                                                                  
00021480635360002G2675906759000000337798001388000000101HAMDEN                   CT           5 D                00                                      NNNN00 N 00                   000000000000                                                                   78415682                                                                                                                                                                                                                                                                                                                                                                                                                                               
00021490635360051DT67590675900000033779800138800000010180013824001193178900010900032062720230000000085017823000000000018841473702XXXXXX1206       VK04VS111111111   NYV1 A E303178606552913N840000000000850GZ8400    05DNSLOW PUFFS LLC           031887    VD84000000000850 N  599378415682                            000000000+                F DF 10439                     000000000  Y000000000 331   0000000000000.00 0000000.00   0000000.00                             000000000000000                                                                                                                                                     01424 F000000000000 0000000000000.22     00050 02200                  
00021500635360001E167590675900000033779800138800000010100E0F8C80094 00000000000.004040404040404040404040404040404040404040404040404006061203A0A000000000000000000000404040404040404040404040404040  00000840180080800080002306278D5DE8EB9DBB426836AD5C21404040400840A00000000310100000000000000000001010E0A030E0709020200000000000004040401E40404040 000000008.50 000000000.001E00000000000000000000    80                                                                                                                                                                                                                                                                                                                  
00021510635360002G2675906759000000337798001388000000101HAMDEN                   CT           5 D                00                                      NNNN00 N 00                   000000000000                                                                   78415682                                                                                                                                                                                                                                                                                                                                                                                                                                               
00021520635360052DT67590675900000033779800138800000010180013824001193178900010900040062720230000000159317823000000000018841414718XXXXXX3582       VS11    0001111   NYV1 A E583178637378797N84000000000159395GQ00    07DNSLOW PUFFS LLC           027824    VS84000000001593 N  599378415682                            000000000+                D CD 12113                     000000000  N000000000 499   0000000000000.00 0000000.00   0000000.00                             000000000000000                                                                                                                                                     01424 A000000000000 0000000000000.43     02100 01000                  
00021530635360001E167590675900000033779800138800000010100E068C80071 00000000000.004040404040404040404040404040404040404040404040404006031203A00000000000000000000000404040404040404040404040404040  0001084020000000000000230627787C0CF0BDBE34B2C4BF9A91404040400840A0000000031010000000000000000000404040404040404040404040404040404040404040404040 000000015.93 000000000.004040400000000000000000    80                                                                                                                                                                                                                                                                                                                  
00021540635360002G2675906759000000337798001388000000101HAMDEN                   CT           5 C                00                                      NNNN00 Y 00                   000000000000                                                                   78415682                                                                                                                                                                                                                                                                                                                                                                                                                                               
