00014810717390002BH6759067590000002773080012680000090170529202314923000000000067104    0000090001090047Y8001266759C05302023009                                                                                                                                                                                                                                                                                                                                                                                                                                                                                                                                                                                              
00014820717390003DT67590675900000027730800126800000010180012624001193149900010900434052920230000001148814923000000000067104401183XXXXXX3662               2111111   NYV4 A7W303149559315485N840000000011488KGBG00    01DNMODERNMANE833-714-2479   103211    VD84000000011488 NDR596978265659   B7F69EBE5AT3434BC577408  000000000+                F DF 00415                     000000000  N000000000       0000000000000.00 0000000.00   0000000.00                             000000000000000                                                                                                                                                     01424 G000000011488 0000000000002.05     01650 01500                  
00014830717390003DR675906759000000277308001268000000101B7F69EBE5AT3434BC577408  Y000000011488                 P1                                                                                                                                                                                                                                                                                                                                                                                                                                                                                                                                                                                                            
00014840717390001P16759067590000002773080012680000001010000000000000000                             2000000000000000000000000              000000000000                    0000000000000000000000000                    000000000000                                                                                                                                                                                                                                                                                                                                                                                                                                                                                        
00014850717390002G2675906759000000277308001268000000101833-7142479              UT           9 D                00                                      NNNN   N                      000000000000                                                                   78265659                                                                                                                                                                                                                                                                                                                                                                                                                                               
00014860717390004DT67590675900000027730800126800000010180012687287283149900010900443052920230000002391014923000000000067104546616XXXXXX8483       ME07KE06PT01      NY 4607AMCWT478370529  N840000000023910          81DNMODERNMANE833-714-2479   89016S    MC84000000023910 NDR596978265659   837613EA04TA2151DD30B17  000000000+600450S00130    MCW  02182                     000000000  N                0000000000000.00 0000000.00   0000000.00                             000000000000000                                                                                                                                                   U001424  000000000000 0000000000006.32     02600 01000                  
00014870717390004DR675906759000000277308001268000000101837613EA04TA2151DD30B17  Y000000000000                                                                                                                                                                                                                                                                                                                                                                                                                                                                                                                                                                                                                               
00014880717390001G2675906759000000277308001268000000101833-7142479              UT           9 W               210                                      NNNN           210000000000000000000000000                        7                                          78265659                                                                                                                                                                                                                                                                                                                                                                                                                                               
00014890717390005DT67590675900000027730800126800000010180012687287283149900010900450052920230000000394014923000000000067104546616XXXXXX8483       ME07KE06PT01      NY 4607AMCWY5MI370529  N840000000003940          81DNMODERNMANE833-714-2479   25698S    MC84000000003940 NDR596978265659   837613EA04TBF8BB5401755  000000000+600450S00130    MCW  02182                     000000000  N                0000000000000.00 0000000.00   0000000.00                             000000000000000                                                                                                                                                   U001424  000000000000 0000000000001.12     02600 01000                  
00014900717390005DR675906759000000277308001268000000101837613EA04TBF8BB5401755  Y000000000000                                                                                                                                                                                                                                                                                                                                                                                                                                                                                                                                                                                                                               
00014910717390001G2675906759000000277308001268000000101833-7142479              UT           9 W               210                                      NNNN           210000000000000000000000000                        7                                          78265659                                                                                                                                                                                                                                                                                                                                                                                                                                               
00014920717390006DT67590675900000027730800126800000010180012687287283149900010900468052920230000002391014923000000000067104521853XXXXXX6496       ME07KE06PT01      NY 4607AMCWPIMVCU0529  N840000000023910          81DNMODERNMANE833-714-2479   02905T    MC84000000023910 NDR596978265659   109C7C14A1T1C9645DE3561  000000000+600450S00130    MCW  02182                     000000000  N                0000000000000.00 0000000.00   0000000.00                             000000000000000                                                                                                                                                   U001424  000000000000 0000000000006.32     02600 01000                  
00014930717390006DR675906759000000277308001268000000101109C7C14A1T1C9645DE3561  Y000000000000                                                                                                                                                                                                                                                                                                                                                                                                                                                                                                                                                                                                                               
00014940717390001G2675906759000000277308001268000000101833-7142479              UT           9 W               210                                      NNNN           210000000000000000000000000                        7                                          78265659                                                                                                                                                                                                                                                                                                                                                                                                                                               
00014950717390007DT67590675900000027730800126800000010180012687287283149900010900476052920230000000385614923000000000067104521853XXXXXX6496       ME07KE06PT01      NY 4607AMCWGI6J5X0529  N840000000003856          81DNMODERNMANE833-714-2479   02968T    MC84000000003856 NDR596978265659   109C7C14A1T630D135B40C4  000000000+600450S00130    MCW  02182                     000000000  N                0000000000000.00 0000000.00   0000000.00                             000000000000000                                                                                                                                                   U001424  000000000000 0000000000001.10     02600 01000                  
00014960717390007DR675906759000000277308001268000000101109C7C14A1T630D135B40C4  Y000000000000                                                                                                                                                                                                                                                                                                                                                                                                                                                                                                                                                                                                                               
00014970717390001G2675906759000000277308001268000000101833-7142479              UT           9 W               210                                      NNNN           210000000000000000000000000                        7                                          78265659                                                                                                                                                                                                                                                                                                                                                                                                                                               
00014980717390008BH6759067590000002604780012480000090170529202314923000000000190922    0000090001120036Y8001246759C05302023012                                                                                                                                                                                                                                                                                                                                                                                                                                                                                                                                                                                              
00014990717390009DT67590675900000026047800124800000010180012424001193149900011200016052920230000001072314923000000000190922446540XXXXXX9436       VS11    0001111   NYV1 A E583149542979532N840000000010723HFZT00    05DNHPPYC                    029510    VS84000000010723 N  599978202445                            000000000+                C CC 12112                     000000000  N000000000 497   0000000000000.00 0000000.00   0000000.00                             000000000000000                                                                                                                                                     01424 A000000000000 0000000000001.87     01650 01000                  
00015000717390001E167590675900000026047800124800000010100E0F8C800F2 00000000000.004040404040404040404040404040404040404040404040404006011203A0A000000000000000000000404040404040404040404040404040  0003084018008080008000230529EE10BAA66AD7BEFDC5DA35E2404040400840A0000000031010000000000000000000222FF4E00082000000000000000000004040401E40404040 000000107.23 000000000.001E00000000000000000000    80                                                                                                                                                                                                                                                                                                                  
00015010717390002G2675906759000000260478001248000000101CHARLOTTE                NC           5 C                00                                      NNNN00 Y 00                   000000000000                                                                   78202445                                                                                                                                                                                                                                                                                                                                                                                                                                               
00015020717390010DT67590675900000026047800124800000010180012477287283149900011200026052920230000000160814923000000000190922514377XXXXXX3310       MS02WI09          NY 1 0 AMDJXCZN370529  N840000000001608          05DNHPPYC                    18MWO4    MD84000000001608 N  599978202445                            000000000+M10101C5434C    MDJ  00402                     000000000  N                0000000000000.00 0000000.00   0000000.00                             000000000000000                                                                                                                                                   B101424  000000000000 0000000000000.32     01050 01500                  
00015030717390001E167590675900000026047800124800000010100E0F8C802F3 00000000000.00404040404040404040404040404040404040404040404040400110A04001220000000000000000000000FF00000000000000000000000000  0001084039000000008000230529CF44CC02A2D97689F9A6443F404040400840A000000004101000000000000000000035AE91912A9E3F7B00100000000000004040401E40404040 000000016.08 000000000.001E03000000000000000000    80                                                                                                                                                                                                                                                                                                                  
00015040717390002G2675906759000000260478001248000000101CHARLOTTE                NC           5 J                                                        NNNN              000000000000000000000000                        7                                          78202445                                                                                                                                                                                                                                                                                                                                                                                                                                               
00015050717390011DT67590675900000026047800124800000010180012477287283149900011200034052920230000000050014923000000000190922517805XXXXXX5804                         NY 1 0 AMPLKCBZXW0529  N840000000000500          05DNHPPYC                    07358B    MC84000000000500 N  599978202445                            000000000+M10101C5434C    MPL  12144                     000000000  N                0000000000000.00 0000000.00   0000000.00                             000000000000000                                                                                                                                                   B101424  000000000000 0000000000000.11     01800 00200                  
00015060717390001E167590675900000026047800124800000010100E0F8C8001C 00000000000.00404040404040404040404040404040404040404040404040400110A04001220000000000000000000000FF00000000000000000000000000  0001084039000000008000230529AD21A2DF44D3B13221F3E2DD404040400840A000000004101000000000000000000046EFD1009B5BD54500120000000000004040401E40404040 000000005.00 000000000.001E03000000000000000000    80                                                                                                                                                                                                                                                                                                                  
00015070717390002G2675906759000000260478001248000000101CHARLOTTE                NC           5 L                                                        NNNN              000000000000000000000000                        7                                          78202445                                                                                                                                                                                                                                                                                                                                                                                                                                               
00015080717390012DT67590675900000026047800124800000010180012473011003149900011200046052920230000001558014923000000000190922376786XXXXX1008                          NY 1 0 N007270413945074N840000000015580          05DNHPPYC LLC                846722    AM84000000015580 Y  599978202445                            000000000+51010155434C 258     11262                     000000000                   0000000000000.00 0000000.00   0000000.00                             000000000000000 61248972086759675900000026047 HPPYC LLC                401 HAWTHORNE LN 110263  9802368861      28204     TORI@SMOKEMFG.COM                         01324  000000000000 0000000000003.14     01950 00000                  
00015090717390001E167590675900000026047800124800000010100E0F8C80502 00000000000.004040404040404040404040404040404040404040404040404006460103A0A002000000000000000000404040404040404040404040404040  000008403C000000008000230529713FFDA2E5C2D8F3AF4A4CDC404040400840A0000000250108010000000000000000DD3C2E95852709FC30300000000000004040401E40404040 000000155.80 000000000.001E03000000000000000000    80                                                                                                                                                                                                                                                                                                                  
00015100717390002G2675906759000000260478001248000000101CHARLOTTE                NC           5                  00                                      NNNN                          000000000000                                                                   78202445                                                                                                                                                                                                                                                                                                                                                                                                                                               
00015110717390013DT67590675900000026047800124800000010180012473011003149900011200053052920230000000536214923000000000190922371243XXXXX3008                          NY 1 0 N008035942339068N840000000005362          05DNHPPYC LLC                817368    AM84000000005362 Y  599978202445                            000000000+51010155434C 258     11261                     000000000                   0000000000000.00 0000000.00   0000000.00                             000000000000000 61248972086759675900000026047 HPPYC LLC                401 HAWTHORNE LN 110263  9802368861      28204     TORI@SMOKEMFG.COM                         01324  000000000000 0000000000000.96     01600 00000                  
00015120717390001E167590675900000026047800124800000010100E0F8C802FB 00000000000.0040404040404040404040404040404040404040404040404040065A0103A0A006000000000000000000404040404040404040404040404040  000008403C000000008000230529D08B1061CD14734B340C9C1C404040400840A0000000250108010000000000000000CD018E7D660BF02030300000000000004040401E40404040 000000053.62 000000000.001E03000000000000000000    80                                                                                                                                                                                                                                                                                                                  
00015130717390002G2675906759000000260478001248000000101CHARLOTTE                NC           5                  00                                      NNNN                          000000000000                                                                   78202445                                                                                                                                                                                                                                                                                                                                                                                                                                               
00015140717390014DT67590675900000026047800124800000010180012424001193149900011200065052920230000000375414923000000000190922497966XXXXXX7633       VS11    0001111   NYV1 A E463149591861438N840000000003754ZC3K00    07DNHPPYC                    192568    VD84000000003754 N  599978202445                            000000000+                F DF 10433                     000000000  Y000000000 338   0000000000000.00 0000000.00   0000000.00                             000000000000000                                                                                                                                                     01424 A000000000000 0000000000000.24     00050 02200                  
00015150717390001E167590675900000026047800124800000010100E068C80166 00000000000.00404040404040404040404040404040404040404040404040401F4A0132A00000000010030273000000004000000000000000000000000000  000008400040000000000023052964F46E0BC7C627E68ECD42AE404040400840A00000000310100000000000000000001F91479076716BD630300000000000004040404040404040 000000037.54 000000000.004040400000000000000000    80                                                                                                                                                                                                                                                                                                                  
00015160717390002G2675906759000000260478001248000000101CHARLOTTE                NC           5 D                00                                      NNNN00 N 00                   000000000000                                                                   78202445                                                                                                                                                                                                                                                                                                                                                                                                                                               
00015170717390015DT67590675900000026047800124800000010180012476509753149900011200071052920230000000375414923000000000190922601100XXXXXX6620   BA50                  NY41 0 N803128338693535N840000000003754    00    05DNHPPYC                    02965R    DS84000000003754 N  599978202445050                         000000000+0000004910H00   DCCDI01000000561  125749000000 000000000  0          112   0000000000000.00 0000000.00   0000000.00                             000000000000000                                                                                                                                                     01424  000000000000 0000000000000.75     01720 01000                  
00015180717390001E167590675900000026047800124800000010100E0F8C80191 00000000000.00404040404040404040404040404040404040404040404040400105A0800F8000000000000000000000404040404040404040404040404040  0002084078000000008000230529E6A61E7D8E857075114753EF404040400840A00000015230100000000000000000008C47A005E25858FD00320000000000004040401E40404040 000000037.54 000000000.001E03000000000000000000    80                                                                                                                                                                                                                                                                                                                  
00015190717390002G2675906759000000260478001248000000101CHARLOTTE                NC           5 C                00                                      NNNN                          000000000000                         00000650975601179750000535                78202445                                                                                                                                                                                                                                                                                                                                                                                                                                               
00015200717390016DT67590675900000026047800124800000010180012477287283149900011200083052920230000000100014923000000000190922542543XXXXXX6347       MS02WI09          NY 1 0 AMDHTID7370529  N840000000001000          05DNHPPYC                    094702    MD84000000001000 N  599978202445                            000000000+M10101C5434C    MDH  00402                     000000000  N                0000000000000.00 0000000.00   0000000.00                             000000000000000                                                                                                                                                   B101424  000000000000 0000000000000.26     01050 01500                  
00015210717390001E167590675900000026047800124800000010100E0F8C8019F 00000000000.00404040404040404040404040404040404040404040404040400110A04003220000000000000000000000FF00000000000000000000000000  0000084039000000008000230529C066B8DE4A692FAE293C4421404040400840A00000000410100000000000000000007FE2D2509DEACF2D00120000000000004040401E40404040 000000010.00 000000000.001E03000000000000000000    80                                                                                                                                                                                                                                                                                                                  
00015220717390002G2675906759000000260478001248000000101CHARLOTTE                NC           5 H                                                        NNNN              000000000000000000000000                        7                                          78202445                                                                                                                                                                                                                                                                                                                                                                                                                                               
00015230717390017DT67590675900000026047800124800000010180012424001193149900011200099052920230000000375414923000000000190922414720XXXXXX7765       VS11    0001111   NYV1 A E383149621307332N840000000003754M4V300    05DNHPPYC                    05932D    VS84000000003754 N  599978202445                            000000000+                D CD 12113                     000000000  N000000000 499   0000000000000.00 0000000.00   0000000.00                             000000000000000                                                                                                                                                     01424 A000000000000 0000000000000.89     02100 01000                  
00015240717390001E167590675900000026047800124800000010100E0F8C8020E 00000000000.004040404040404040404040404040404040404040404040404006021203A0A002000000000000000000404040404040404040404040404040  0002084038000080008000230529F23BFB7F93236C541F4DADD4404040400840A00000000310100000000000000000008A0456910082000000000000000000004040401E40404040 000000037.54 000000000.001E00000000000000000000    80                                                                                                                                                                                                                                                                                                                  
00015250717390002G2675906759000000260478001248000000101CHARLOTTE                NC           5 C                00                                      NNNN00 Y 00                   000000000000                                                                   78202445                                                                                                                                                                                                                                                                                                                                                                                                                                               
00015260717390018DT67590675900000026047800124800000010180012424001193149900011200107052920230000000064214923000000000190922442958XXXXXX5444       VK04VS111111111   NYV1 A E303149628148609N840000000000642B7GL00    05DNHPPYC                    728010    VD84000000000642 N  599978202445                            000000000+                F DF 00451                     000000000  N000000000 214   0000000000000.00 0000000.00   0000000.00                             000000000000000                                                                                                                                                     01424 F000000000000 0000000000000.14     01550 00400                  
00015270717390001E167590675900000026047800124800000010100E0F8C802A5 00000000000.004040404040404040404040404040404040404040404040404006011203A0A000000000000000000000404040404040404040404040404040  0000084018008080008000230529C92B66A92A8658948F6E2F01404040400840A0000000031010000000000000000000404040404040404040404040404040404040401E40404040 000000006.42 000000000.001E00000000000000000000    80                                                                                                                                                                                                                                                                                                                  
00015280717390002G2675906759000000260478001248000000101CHARLOTTE                NC           5 D                00                                      NNNN00 N 00                   000000000000                                                                   78202445                                                                                                                                                                                                                                                                                                                                                                                                                                               
00015290717390019DT67590675900000026047800124800000010180012477287283149900011200117052920230000000171614923000000000190922531257XXXXXX0896       MS02WI09          NY 1 0 AMDJL6B1XW0529  N840000000001716          05DNHPPYC                    154507    MD84000000001716 N  599978202445                            000000000+M10101C5434C    MDJ  10815                     000000000  1                0000000000000.00 0000000.00   0000000.00                             000000000000000                                                                                                                                                   B101424  000000000000 0000000000000.23     00050 02200                  
00015300717390001E167590675900000026047800124800000010100E0F8C80180 00000000000.00404040404040404040404040404040404040404040404040400414A00201220000000000000000000000FF00000000000000000000000000  000008401800800000800023052990D81AA5D761539EDFCDEEF6404040400840A00000000410100000000000000000007C37E44ADD719EC200100000000000004040401E40404040 000000017.16 000000000.001E03000000000000000000    80                                                                                                                                                                                                                                                                                                                  
00015310717390002G2675906759000000260478001248000000101CHARLOTTE                NC           5 J                                                        NNNN              000000000000000000000000                        7                                          78202445                                                                                                                                                                                                                                                                                                                                                                                                                                               
00015320717390020DT67590675900000026047800124800000010180012424001193149900011200123052920230000001286814923000000000190922466188XXXXXX4814       VS11    0001111   NYV1 A E383149648027744N840000000012868V87600    05DNHPPYC                    045829    VD84000000012868 N  599978202445                            000000000+                F DF 10433                     000000000  Y000000000 338   0000000000000.00 0000000.00   0000000.00                             000000000000000                                                                                                                                                     01424 A000000000000 0000000000000.28     00050 02200                  
00015330717390001E167590675900000026047800124800000010100E0F8C800CC 00000000000.004040404040404040404040404040404040404040404040404006011203A02000000000000000000000404040404040404040404040404040  00000840180080800080002305290ADB11C529D58A4DEE9AE7DD404040400840A0000000031010000000000000000000EBB32604824FE4C430300000000000004040401E40404040 000000128.68 000000000.001E00000000000000000000    80                                                                                                                                                                                                                                                                                                                  
00015340717390002G2675906759000000260478001248000000101CHARLOTTE                NC           5 D                00                                      NNNN00 N 00                   000000000000                                                                   78202445                                                                                                                                                                                                                                                                                                                                                                                                                                               
00015350717390021DT67590675900000026047800124800000010180012424001193149900011200131052920230000000536114923000000000190922473703XXXXXX8702       VS11    0001111   NYV1 A E583149653165172N840000000005361PV4400    05DNHPPYC                    064114    VD84000000005361 N  599978202445                            000000000+                F DF 10433                     000000000  Y000000000 338   0000000000000.00 0000000.00   0000000.00                             000000000000000                                                                                                                                                     01424 A000000000000 0000000000000.25     00050 02200                  
00015360717390001E167590675900000026047800124800000010100E0F8C803F1 00000000000.004040404040404040404040404040404040404040404040404006061203A02000000000000000000000404040404040404040404040404040  000008401800808000800023052902FEBA369235D1AFFE30BAF5404040400840A00000000310100000000000000000000040E02040F0007020200000000000004040401E40404040 000000053.61 000000000.001E00000000000000000000    80                                                                                                                                                                                                                                                                                                                  
00015370717390002G2675906759000000260478001248000000101CHARLOTTE                NC           5 D                00                                      NNNN00 N 00                   000000000000                                                                   78202445                                                                                                                                                                                                                                                                                                                                                                                                                                               
00015380717390022DT67590675900000026047800124800000010180012424001193149900011200149052920230000000268014923000000000190922473703XXXXXX4557       VS11    0001111   NYV1 A E383149665719214N8400000000026806SG300    05DNHPPYC                    032415    VD84000000002680 N  599978202445                            000000000+                F DF 10433                     000000000  Y000000000 338   0000000000000.00 0000000.00   0000000.00                             000000000000000                                                                                                                                                     01424 A000000000000 0000000000000.23     00050 02200                  
00015390717390001E167590675900000026047800124800000010100E0F8C8006F 00000000000.004040404040404040404040404040404040404040404040404006061203A0A000000000000000000000404040404040404040404040404040  0000084018008080008000230529570BE1A91D07B4CD74211A8F404040400840A00000000310100000000000000000008080E0102010602020200000000000004040401E40404040 000000026.80 000000000.001E00000000000000000000    80                                                                                                                                                                                                                                                                                                                  
00015400717390002G2675906759000000260478001248000000101CHARLOTTE                NC           5 D                00                                      NNNN00 N 00                   000000000000                                                                   78202445                                                                                                                                                                                                                                                                                                                                                                                                                                               
00015410717390023DT67590675900000026047800124800000010180012424001193149900011200156052920230000001233114923000000000190922414709XXXXXX7864       VS11    0001111   NYV1 A E463149675722063N840000000012331ZV2L00    05DNHPPYC                    08398I    VS84000000012331 N  599978202445                            000000000+                I CI 12777                     000000000  N000000000 690   0000000000000.00 0000000.00   0000000.00                             000000000000000                                                                                                                                                     01424 A000000000000 0000000000002.69     02100 01000                  
00015420717390001E167590675900000026047800124800000010100E0F8C800A4 00000000000.004040404040404040404040404040404040404040404040404006011203A02002000000000000000000404040404040404040404040404040  000108403800008000800023052941A16E0FDAD9AD1C2B9DBAFE404040400840A00000000310100000000000000000005AFA3D800082000000000000000000004040401E40404040 000000123.31 000000000.001E00000000000000000000    80                                                                                                                                                                                                                                                                                                                  
00015430717390002G2675906759000000260478001248000000101CHARLOTTE                NC           5 C                00                                      NNNN00QY 00                   000000000000                                                                   78202445                                                                                                                                                                                                                                                                                                                                                                                                                                               
00015440717390024DT67590675900000026047800124800000010180012424001193149900011200164052920230000000536214923000000000190922414720XXXXXX0051       VS11    0001111   NYV1 A E463149676394241N840000000005362GTCK00    05DNHPPYC                    01588C    VS84000000005362 N  599978202445                            000000000+                C CC 12112                     000000000  N000000000 497   0000000000000.00 0000000.00   0000000.00                             000000000000000                                                                                                                                                     01424 A000000000000 0000000000000.98     01650 01000                  
00015450717390001E167590675900000026047800124800000010100E0F8C80073 00000000000.004040404040404040404040404040404040404040404040404006021203A02002000000000000000000404040404040404040404040404040  000108403800008000800023052949B7259F96F1851633DE6EB2404040400840A0000000031010000000000000000000882641320082000000000000000000004040401E40404040 000000053.62 000000000.001E00000000000000000000    80                                                                                                                                                                                                                                                                                                                  
00015460717390002G2675906759000000260478001248000000101CHARLOTTE                NC           5 C                00                                      NNNN00 Y 00                   000000000000                                                                   78202445                                                                                                                                                                                                                                                                                                                                                                                                                                               
00015470717390025DT67590675900000026047800124800000010180012424001193149900011200172052920230000000191614923000000000190922436698XXXXXX5628       VS11    0001111   NYV1 A E463149677539736N84000000000191672RB00    05DNHPPYC                    044913    VD84000000001916 N  599978202445                            000000000+                F DF 00381                     000000000  N000000000       0000000000000.00 0000000.00   0000000.00                             000000000000000                                                                                                                                                     01424 A000000000000 0000000000000.30     00800 01500                  
00015480717390001E167590675900000026047800124800000010100E0F8C800CD 00000000000.004040404040404040404040404040404040404040404040404006011203A08000000000000000000000404040404040404040404040404040  00000840180080800080002305298FBB2E7D1B283DD2E3A30FAA404040400840A0000000031010000000000000000000404040404040404040404040404040404040401E40404040 000000019.16 000000000.001E00000000000000000000    80                                                                                                                                                                                                                                                                                                                  
00015490717390002G2675906759000000260478001248000000101CHARLOTTE                NC           5 D                00                                      NNNN00 N 00                   000000000000                                                                   78202445                                                                                                                                                                                                                                                                                                                                                                                                                                               
00015500717390026DT67590675900000026047800124800000010180012424001193149900011200180052920230000001058614923000000000190922448233XXXXXX9345       VS11    0001111   NYV1 A E583149681797148N840000000010586S82400    05DNHPPYC                    035619    VD84000000010586 N  599978202445                            000000000+                F DF 10433                     000000000  Y000000000 338   0000000000000.00 0000000.00   0000000.00                             000000000000000                                                                                                                                                     01424 A000000000000 0000000000000.27     00050 02200                  
00015510717390001E167590675900000026047800124800000010100E0F8C8000F 00000000000.004040404040404040404040404040404040404040404040404006011203A02000000000000000000000404040404040404040404040404040  0000084018008080008000230529D1A137AC2C6A722E3EAC8063404040400840A00000000310100000000000000000003CBD3A770080000000000000000000004040401E40404040 000000105.86 000000000.001E00000000000000000000    80                                                                                                                                                                                                                                                                                                                  
00015520717390002G2675906759000000260478001248000000101CHARLOTTE                NC           5 D                00                                      NNNN00 N 00                   000000000000                                                                   78202445                                                                                                                                                                                                                                                                                                                                                                                                                                               
00015530717390027DT67590675900000026047800124800000010180012424001193149900011200198052920230000000128514923000000000190922473703XXXXXX9836       VK04VS111111111   NYV1 A E303149682386447N840000000001285MN3J00    05DNHPPYC                    034938    VD84000000001285 N  599978202445                            000000000+                F DF 10439                     000000000  Y000000000 331   0000000000000.00 0000000.00   0000000.00                             000000000000000                                                                                                                                                     01424 F000000000000 0000000000000.23     00050 02200                  
00015540717390001E167590675900000026047800124800000010100E0F8C802F5 00000000000.004040404040404040404040404040404040404040404040404006061203A0A000000000000000000000404040404040404040404040404040  00000840180080800080002305293593306E8D53B948BD756000404040400840A000000003101000000000000000000090C080B000E0506020200000000000004040401E40404040 000000012.85 000000000.001E00000000000000000000    80                                                                                                                                                                                                                                                                                                                  
00015550717390002G2675906759000000260478001248000000101CHARLOTTE                NC           5 D                00                                      NNNN00 N 00                   000000000000                                                                   78202445                                                                                                                                                                                                                                                                                                                                                                                                                                               
00015560717390028DT67590675900000026047800124800000010180012473011003149900011200202052920230000000214514923000000000190922373778XXXXX0614                          NY 1 0 N007274511041075N840000000002145          90DNHPPYC LLC                289869    AM84000000002145 Y  599978202445                            000000000+51010125434C 258SV   11273                     000000000                   0000000000000.00 0000000.00   0000000.00                             000000000000000 61248972086759675900000026047 HPPYC LLC                401 HAWTHORNE LN 110263  9802368861      28204     TORI@SMOKEMFG.COM                         01324  000000000000 0000000000000.39     01350 00000                  
00015570717390001G2675906759000000260478001248000000101CHARLOTTE                NC           5                  00                                      NNNN                          000000000000                                                                   78202445                                                                                                                                                                                                                                                                                                                                                                                                                                               
00015580717390029DT67590675900000026047800124800000010180012424001193149900011200214052920230000000160814923000000000190922424840XXXXXX1541       VS11    0001111   NYV1 A E303149727498128N840000000001608PLVQ00    05DNHPPYC                    006244    VD84000000001608 N  599978202445                            000000000+                F PF 08170                     000000000  N000000000       0000000000000.00 0000000.00   0000000.00                             000000000000000                                                                                                                                                     01424 A000000000000 0000000000000.33     01150 01500                  
00015590717390001E167590675900000026047800124800000010100E0F8C8005D 00000000000.004040404040404040404040404040404040404040404040404006011203A0A000000000000000000000404040404040404040404040404040  000008401800808000800023052954D13775A4130A51CE4779C7404040400840A000000003101000000000000000000068EF78E00080000000000000000000004040401E40404040 000000016.08 000000000.001E00000000000000000000    80                                                                                                                                                                                                                                                                                                                  
00015600717390002G2675906759000000260478001248000000101CHARLOTTE                NC           5 P                00                                      NNNN00 N 00                   000000000000                                                                   78202445                                                                                                                                                                                                                                                                                                                                                                                                                                               
00015610717390030DT67590675900000026047800124800000010180012473011003149900011200228052920230000000578914923000000000190922372273XXXXX1003                          NY 1 0 N007274634030070N840000000005789          05DNHPPYC LLC                847028    AM84000000005789 Y  599978202445                            000000000+51010155434C 258     11261                     000000000                   0000000000000.00 0000000.00   0000000.00                             000000000000000 61248972086759675900000026047 HPPYC LLC                401 HAWTHORNE LN 110263  9802368861      28204     TORI@SMOKEMFG.COM                         01324  000000000000 0000000000001.03     01600 00000                  
00015620717390001E167590675900000026047800124800000010100E0F8C8028E 00000000000.004040404040404040404040404040404040404040404040404006570103A0A002000000000000000000404040404040404040404040404040  000008403C000000008000230529E34F24D80FF22982FA5E4468404040400840A0000000250108010000000000000000C77128CE293BC38830300000000000004040401E40404040 000000057.89 000000000.001E03000000000000000000    80                                                                                                                                                                                                                                                                                                                  
00015630717390002G2675906759000000260478001248000000101CHARLOTTE                NC           5                  00                                      NNNN                          000000000000                                                                   78202445                                                                                                                                                                                                                                                                                                                                                                                                                                               
00015640717390031DT67590675900000026047800124800000010180012477287283149900011200232052920230000000160814923000000000190922552433XXXXXX9570       MS02WI09          NY 1 0 AMCWS91C6R0529  N840000000001608          05DNHPPYC                    00521S    MC84000000001608 N  599978202445                            000000000+M10101C5434C    MCW  02184                     000000000  N                0000000000000.00 0000000.00   0000000.00                             000000000000000                                                                                                                                                   B101424  000000000000 0000000000000.47     02300 01000                  
00015650717390001E167590675900000026047800124800000010100E0F8C80027 00000000000.00404040404040404040404040404040404040404040404040400110A00001220000000000000000000000FF00000000000000000000000000  00010840180080000080002305292F65564648CE9D8FBBCC21FF404040400840A00000000410100000000000000000009CF2C29C3877254100120000000000004040401E40404040 000000016.08 000000000.001E03000000000000000000    80                                                                                                                                                                                                                                                                                                                  
00015660717390002G2675906759000000260478001248000000101CHARLOTTE                NC           5 W                                                        NNNN              000000000000000000000000                        7                                          78202445                                                                                                                                                                                                                                                                                                                                                                                                                                               
00015670717390032DT67590675900000026047800124800000010180012424001193149900011200248052920230000000643314923000000000190922473703XXXXXX5216       VS11    0001111   NYV1 A E583149733336089N8400000000064339HZZ00    05DNHPPYC                    018848    VD84000000006433 N  599978202445                            000000000+                F DF 10433                     000000000  Y000000000 338   0000000000000.00 0000000.00   0000000.00                             000000000000000                                                                                                                                                     01424 A000000000000 0000000000000.25     00050 02200                  
00015680717390001E167590675900000026047800124800000010100E0F8C80352 00000000000.004040404040404040404040404040404040404040404040404006061203A0A000000000000000000000404040404040404040404040404040  000008401800808000800023052951383D78FE35EAF6AAB9D918404040400840A00000000310100000000000000000008090C0006050100020200000000000004040401E40404040 000000064.33 000000000.001E00000000000000000000    80                                                                                                                                                                                                                                                                                                                  
00015690717390002G2675906759000000260478001248000000101CHARLOTTE                NC           5 D                00                                      NNNN00 N 00                   000000000000                                                                   78202445                                                                                                                                                                                                                                                                                                                                                                                                                                               
00015700717390033DT67590675900000026047800124800000010180012424001193149900011200255052920230000001608614923000000000190922442644XXXXXX8977       VS11    0001111   NYV1 A E383149739696401N840000000016086JLPR00    05DNHPPYC                    029852    VS84000000016086 N  599978202445                            000000000+                D CD 12113                     000000000  N000000000 499   0000000000000.00 0000000.00   0000000.00                             000000000000000                                                                                                                                                     01424 A000000000000 0000000000003.48     02100 01000                  
00015710717390001E167590675900000026047800124800000010100E0F8C800A0 00000000000.004040404040404040404040404040404040404040404040404006011203A0A000000000000000000000404040404040404040404040404040  0003084018008080008000230529FAD0A1631CD84E1C21F450A7404040400840A0000000031010000000000000000000468066360082000000000000000000004040401E40404040 000000160.86 000000000.001E00000000000000000000    80                                                                                                                                                                                                                                                                                                                  
00015720717390002G2675906759000000260478001248000000101CHARLOTTE                NC           5 C                00                                      NNNN00 Y 00                   000000000000                                                                   78202445                                                                                                                                                                                                                                                                                                                                                                                                                                               
00015730717390034DT67590675900000026047800124800000010180012424001193149900011200263052920230000000375414923000000000190922440393XXXXXX3767       VS11    0001111   NYV1 A E383149763449738N8400000000037546CR700    05DNHPPYC                    010564    VD84000000003754 N  599978202445                            000000000+                F PF 08170                     000000000  N000000000       0000000000000.00 0000000.00   0000000.00                             000000000000000                                                                                                                                                     01424 A000000000000 0000000000000.58     01150 01500                  
00015740717390001E167590675900000026047800124800000010100E0F8C80001 00000000000.004040404040404040404040404040404040404040404040404006011203A01000000000000000000000404040404040404040404040404040  0000084018008080008000230529A43B465447C3CD9760CF0A66404040400840A00000000310100000000000000000008CF5A106BCBD83CC30300000000000004040401E40404040 000000037.54 000000000.001E00000000000000000000    80                                                                                                                                                                                                                                                                                                                  
00015750717390002G2675906759000000260478001248000000101CHARLOTTE                NC           5 P                00                                      NNNN00 N 00                   000000000000                                                                   78202445                                                                                                                                                                                                                                                                                                                                                                                                                                               
00015760717390035DT67590675900000026047800124800000010180012424001193149900011200271052920230000001839114923000000000190922400022XXXXXX9834       VS11    0001111   NYV1 A E583149814893594N840000000018391J35W00    05DNHPPYC                    417515    VD84000000018391 N  599978202445                            000000000+                F DF 10433                     000000000  Y000000000 338   0000000000000.00 0000000.00   0000000.00                             000000000000000                                                                                                                                                     01424 A000000000000 0000000000000.31     00050 02200                  
00015770717390001E167590675900000026047800124800000010100E0F8C8018D 00000000000.004040404040404040404040404040404040404040404040404006021203A0A000000000000000000000404040404040404040404040404040  0000084018008080008000230529CC1533F7B83FACB3A0F8A9A7404040400840A0000000031010000000000000000000404040404040404040404040404040404040401E40404040 000000183.91 000000000.001E00000000000000000000    80                                                                                                                                                                                                                                                                                                                  
00015780717390002G2675906759000000260478001248000000101CHARLOTTE                NC           5 D                00                                      NNNN00 N 00                   000000000000                                                                   78202445                                                                                                                                                                                                                                                                                                                                                                                                                                               
00015790717390036DT67590675900000026047800124800000010180012424001193149900011200289052920230000000214514923000000000190922400022XXXXXX6297       VS11    0001111   NYV1 A E303149815934808N8400000000021459CQ300    05DNHPPYC                    325002    VD84000000002145 N  599978202445                            000000000+                F DF 10433                     000000000  Y000000000 338   0000000000000.00 0000000.00   0000000.00                             000000000000000                                                                                                                                                     01424 A000000000000 0000000000000.23     00050 02200                  
00015800717390001E167590675900000026047800124800000010100E0F8C80088 00000000000.004040404040404040404040404040404040404040404040404006021203A0A000000000000000000000404040404040404040404040404040  0000084018008080008000230529D2DCF2A8985E6B8AA8B37098404040400840A0000000031010000000000000000000404040404040404040404040404040404040401E40404040 000000021.45 000000000.001E00000000000000000000    80                                                                                                                                                                                                                                                                                                                  
00015810717390002G2675906759000000260478001248000000101CHARLOTTE                NC           5 D                00                                      NNNN00 N 00                   000000000000                                                                   78202445                                                                                                                                                                                                                                                                                                                                                                                                                                               
00015820717390037DT67590675900000026047800124800000010180012424001193149900011200297052920230000000718414923000000000190922440393XXXXXX7489       VS11    0001111   NYV1 A E463149822038932N8400000000071845SC800    05DNHPPYC                    577395    VD84000000007184 N  599978202445                            000000000+                F PF 08170                     000000000  N000000000       0000000000000.00 0000000.00   0000000.00                             000000000000000                                                                                                                                                     01424 A000000000000 0000000000000.98     01150 01500                  
00015830717390001E167590675900000026047800124800000010100E0F8C80351 00000000000.004040404040404040404040404040404040404040404040404006011203A0A000000000000000000000404040404040404040404040404040  0000084018008080008000230529CE0A7158A0E1D9BDDAC893E2404040400840A0000000031010000000000000000000286CA1BD8C2A7F3130300000000000004040401E40404040 000000071.84 000000000.001E00000000000000000000    80                                                                                                                                                                                                                                                                                                                  
00015840717390002G2675906759000000260478001248000000101CHARLOTTE                NC           5 P                00                                      NNNN00 N 00                   000000000000                                                                   78202445                                                                                                                                                                                                                                                                                                                                                                                                                                               
00015850717390038DT67590675900000026047800124800000010180012424001193149900011200305052920230000000107214923000000000190922414724XXXXXX2052       VK04VS111111111   NYV1 A E463149826086826N8400000000010728MPQ00    05DNHPPYC                    64899D    VS84000000001072 N  599978202445                            000000000+                D CD 12113                     000000000  N000000000 499   0000000000000.00 0000000.00   0000000.00                             000000000000000                                                                                                                                                     01424 F000000000000 0000000000000.33     02100 01000                  
00015860717390001E167590675900000026047800124800000010100E0F8C8036B 00000000000.004040404040404040404040404040404040404040404040404006011203A0A000000000000000000000404040404040404040404040404040  0001084018008080008000230529DD7CD4A95D8756417CE57FFD404040400840A00000000310100000000000000000003C97A5BB0392000000000000000000004040401E40404040 000000010.72 000000000.001E00000000000000000000    80                                                                                                                                                                                                                                                                                                                  
00015870717390002G2675906759000000260478001248000000101CHARLOTTE                NC           5 C                00                                      NNNN00 Y 00                   000000000000                                                                   78202445                                                                                                                                                                                                                                                                                                                                                                                                                                               
00015880717390039DT67590675900000026047800124800000010180012424001193149900011200313052920230000000321514923000000000190922474481XXXXXX4080       VS11    0001111   NYV1 A E463149832071693N840000000003215WHB500    05DNHPPYC                    150869    VD84000000003215 N  599978202445                            000000000+                F DF 10433                     000000000  Y000000000 338   0000000000000.00 0000000.00   0000000.00                             000000000000000                                                                                                                                                     01424 A000000000000 0000000000000.24     00050 02200                  
00015890717390001E167590675900000026047800124800000010100E0F8C8016B 00000000000.004040404040404040404040404040404040404040404040404006011203A00000000000000000000000404040404040404040404040404040  0000084018008080008000230529EA50C90F21F833147EF41AC9404040400840A0000000031010000000000000000000A05040B00080000020200000000000004040401E40404040 000000032.15 000000000.001E00000000000000000000    80                                                                                                                                                                                                                                                                                                                  
00015900717390002G2675906759000000260478001248000000101CHARLOTTE                NC           5 D                00                                      NNNN00 N 00                   000000000000                                                                   78202445                                                                                                                                                                                                                                                                                                                                                                                                                                               
00015910717390040DT67590675900000026047800124800000010180012477287283149900011200323052920230000000086014923000000000190922542543XXXXXX6347       MS02WI09          NY 1 0 AMDHWDU76R0529  N840000000000860          05DNHPPYC                    026402    MD84000000000860 N  599978202445                            000000000+M10101C5434C    MDH  00402                     000000000  N                0000000000000.00 0000000.00   0000000.00                             000000000000000                                                                                                                                                   B101424  000000000000 0000000000000.24     01050 01500                  
00015920717390001E167590675900000026047800124800000010100E0F8C801A1 00000000000.00404040404040404040404040404040404040404040404040400110A04003220000000000000000000000FF00000000000000000000000000  0000084039000000008000230529B06963B59BC9B3C90EA15965404040400840A00000000410100000000000000000006C2199B4C9274A2100120000000000004040401E40404040 000000008.60 000000000.001E03000000000000000000    80                                                                                                                                                                                                                                                                                                                  
00015930717390002G2675906759000000260478001248000000101CHARLOTTE                NC           5 H                                                        NNNN              000000000000000000000000                        7                                          78202445                                                                                                                                                                                                                                                                                                                                                                                                                                               
00015940717390041DT67590675900000026047800124800000010180012477287283149900011200331052920230000000160814923000000000190922514377XXXXXX3310       MS02WI09          NY 1 0 AMDJDXKX5X0529  N840000000001608          05DNHPPYC                    1SIIR7    MD84000000001608 N  599978202445                            000000000+M10101C5434C    MDJ  00402                     000000000  N                0000000000000.00 0000000.00   0000000.00                             000000000000000                                                                                                                                                   B101424  000000000000 0000000000000.32     01050 01500                  
00015950717390001E167590675900000026047800124800000010100E0F8C802F6 00000000000.00404040404040404040404040404040404040404040404040400110A04001220000000000000000000000FF00000000000000000000000000  00010840390000000080002305295FA0978C26C1D92AFA7DCC75404040400840A0000000041010000000000000000000B393AC47C615F71500100000000000004040401E40404040 000000016.08 000000000.001E03000000000000000000    80                                                                                                                                                                                                                                                                                                                  
00015960717390002G2675906759000000260478001248000000101CHARLOTTE                NC           5 J                                                        NNNN              000000000000000000000000                        7                                          78202445                                                                                                                                                                                                                                                                                                                                                                                                                                               
00015970717390042DT67590675900000026047800124800000010180012477287283149900011200349052920230000001206214923000000000190922517805XXXXXX0503       MS02WI09          NY 1 0 AMWE8B0Y740529  N840000000012062          05DNHPPYC                    05417P    MC84000000012062 N  599978202445                            000000000+M10101C5434C    MWE  00739                     000000000  N                0000000000000.00 0000000.00   0000000.00                             000000000000000                                                                                                                                                   B101424  000000000000 0000000000002.87     02300 01000                  
00015980717390001E167590675900000026047800124800000010100E0F8C80055 00000000000.00404040404040404040404040404040404040404040404040400110A04001220000000000000000000000FF00000000000000000000000000  0001084039000000008000230529912D60358D0404B4247040F6404040400840A00000000410100000000000000000005228928ECE399F5900120000000000004040401E40404040 000000120.62 000000000.001E03000000000000000000    80                                                                                                                                                                                                                                                                                                                  
00015990717390002G2675906759000000260478001248000000101CHARLOTTE                NC           5 E                                                        NNNN              000000000000000000000000                        7                                          78202445                                                                                                                                                                                                                                                                                                                                                                                                                                               
00016000717390043DT67590675900000026047800124800000010180012477287283149900011200356052920230000000350014923000000000190922545756XXXXXX9050                         NY 1 0 AMCGV3ZQEY0529  N840000000003500          07DNHPPYC                    06530Z    MC84000000003500FN  599978202445                            000000000+M10101M0034C    MCG  12229                     0000000211 N                0000000000000.00 0000000.00   0000000.00                             000000000000000                                                                                                                                                     01424  000000000000 0000000000000.39     01100 00000                  
00016010717390001E167590675900000026047800124800000010100000848001E 00000000000.00404040404040404040404040404040404040404040404040400110A04003240000000000000000000000FF00000000000000000000000000  0001084019800000008001230529A9C5DB081B5A0138F2AE490E404040400840A0000000041010000000000000000000404040404040404040404040404040404040401F40404040 000000035.00 000000000.001F03020000000000000000    80                                                                                                                                                                                                                                                                                                                  
00016020717390002G2675906759000000260478001248000000101CHARLOTTE                NC           5 G                                                        NNNN              000000000000000000000000       03                                                          78202445                                                                                                                                                                                                                                                                                                                                                                                                                                               
00016030717390044DT67590675900000026047800124800000010180012477287283149900011200364052920230000000268014923000000000190922517604XXXXXX8544       MS02WI09          NY 1 0 AMWEZ9R4EY0529  N840000000002680          07DNHPPYC                    75323Z    MC84000000002680 N  599978202445                            000000000+M10101M0034C    MWE  00739                     000000000  N                0000000000000.00 0000000.00   0000000.00                             000000000000000                                                                                                                                                   A101424  000000000000 0000000000000.72     02300 01000                  
00016040717390001E167590675900000026047800124800000010100000848016F 00000000000.00404040404040404040404040404040404040404040404040400114A14003020000000000000000000000FF00000000000000000000000000  000008401B8000000080012305296D413831B1C1E2AE2BB3C17E404040400840A0000000041010000000000000000000404040404040404040404040404040404040403F40404040 000000026.80 000000000.003F00020000000000000000    80                                                                                                                                                                                                                                                                                                                  
00016050717390002G2675906759000000260478001248000000101CHARLOTTE                NC           5 E                                                        NNNN              000000000000000000000000       03               C                                          78202445                                                                                                                                                                                                                                                                                                                                                                                                                                               
00016060717390045BH6759067590000002684980012580000090170529202314923000000000036523    0000090001475077Y8001256759C05302023047                                                                                                                                                                                                                                                                                                                                                                                                                                                                                                                                                                                              
00016070717390046DT67590675900000026849800125800000010180012576509753149900014747292052820230000001489214923000000000036523601197XXXXXX3672   BA00                  NY 4 07N873124672773182N840000000014892    00    01DNCBD8885133385            051250    DD84000000014892 NDR599978220273070                         000000000+1015104910600   DCDDI11326333628  060757000000 000000000  0          461   0000000000000.00 0000000.00   0000000.00                             000000000000000                                                                                                                                                     01424  000000000000 0000000000002.81     01750 02000                  
00016080717390046DR675906759000000268498001258000000101                         Y                                                                                                                                                                                                                                                                                                                                                                                                                                                                                                                                                                                                                                           
00016090717390001G2675906759000000268498001258000000101855-4401547              WY           9 D                00                                      NNNN                          000000000000                         00000650975601179750000543                78220273                                                                                                                                                                                                                                                                                                                                                                                                                                               
00016100717390047DT67590675900000026849800125800000010180012576509753149900014747359052820230000001280314923000000000036523601100XXXXXX7449   BA00                  NY 4 07N813124745098752N840000000012803    00    01DNCBD8885133385            02508R    DS84000000012803 NDR599978220273070                         000000000+1015104910600   DCCDI11325333630  080829000000 000000000  0          460   0000000000000.00 0000000.00   0000000.00                             000000000000000                                                                                                                                                     01424  000000000000 0000000000002.70     02030 01000                  
00016110717390047DR675906759000000268498001258000000101                         Y                                                                                                                                                                                                                                                                                                                                                                                                                                                                                                                                                                                                                                           
00016120717390001G2675906759000000268498001258000000101855-4401547              WY           9 C                00                                      NNNN                          000000000000                         00000650975601179750000543                78220273                                                                                                                                                                                                                                                                                                                                                                                                                                               
00016130717390048DT67590675900000026849800125800000010180012587287283149900014747873052820230000001977014923000000000036523516714XXXXXX7571       ME03KE06MS02      NY 4607AMDSS98ORQ0525  N840000000019770          81DNCBD8885133385            128788    MD84000000019770 NDR599978220273   34E4207F9ET2EF8AF1229B3  000000000+600450S00130    MDS  00401                     000000000  N                0000000000000.00 0000000.00   0000000.00                             000000000000000                                                                                                                                                   U001424  000000000000 0000000000003.41     01650 01500                  
00016140717390048DR67590675900000026849800125800000010134E4207F9ET2EF8AF1229B3  Z000000000000                                                                                                                                                                                                                                                                                                                                                                                                                                                                                                                                                                                                                               
00016150717390001G2675906759000000268498001258000000101855-4401547              WY           9 S               210                                      NNNN           210000000000000000000000000                                                                   78220273                                                                                                                                                                                                                                                                                                                                                                                                                                               
00016160717390049DT67590675900000026849800125800000010180012576509753149900014747888052820230000001977014923000000000036523601100XXXXXX3372   BA00                  NY 4 07N873124817416798N840000000019770    00    01DNCBD8885133385            02571R    DS84000000019770 NDR599978220273070                         000000000+1015104910600   DCCDI11325666371  100901000000 000000000  0          460   0000000000000.00 0000000.00   0000000.00                             000000000000000                                                                                                                                                     01424  000000000000 0000000000004.11     02030 01000                  
00016170717390049DR675906759000000268498001258000000101                         A                                                                                                                                                                                                                                                                                                                                                                                                                                                                                                                                                                                                                                           
00016180717390001G2675906759000000268498001258000000101855-4401547              WY           9 C                00                                      NNNN                          000000000000                         00000650975601179750000543                78220273                                                                                                                                                                                                                                                                                                                                                                                                                                               
00016190717390050DT67590675900000026849800125800000010180012576509753149900014749009052820230000001977014923000000000036523601120XXXXXX7684   BA00                  NY 4 07N743125140651242N840000000019770    00    01DNCBD8885133385            02559P    DS84000000019770 NDR599978220273070                         000000000+1015104910600   DCPDI11327499092  190745000000 000000000  0          462   0000000000000.00 0000000.00   0000000.00                             000000000000000                                                                                                                                                     01424  000000000000 0000000000004.15     02050 01000                  
00016200717390050DR675906759000000268498001258000000101                         Y                                                                                                                                                                                                                                                                                                                                                                                                                                                                                                                                                                                                                                           
00016210717390001G2675906759000000268498001258000000101855-4401547              WY           9 P                00                                      NNNN                          000000000000                         00000650975601179750000543                78220273                                                                                                                                                                                                                                                                                                                                                                                                                                               
00016220717390051DT67590675900000026849800125800000010180012587287283149900014750448052920230000001460314923000000000036523534348XXXXXX8875       ME03KE06MS02      NY 4607AMPL1Q2MGQ0529  N840000000014603          81DNCBD8885133385            029350    MC84000000014603 NDR599978220273   BF5E6B39D6T9B14A172381B  000000000+600450S00130    MPL  00013                     000000000  N                0000000000000.00 0000000.00   0000000.00                             000000000000000                                                                                                                                                   U001424  000000000000 0000000000002.95     01950 01000                  
