00016470278010002BH6759067590000001982880010980000090170712202319323000000000009121    0000090001050801Y8001096759C07132023105                                                                                                                                                                                                                                                                                                                                                                                                                                                                                                                                                                                              
00016480278010003DT67590675900000019828800109800000010180010924001193193900010507887071120230000001499019323000000000009121403766XXXXXX6401               2111111   NYV4 A7W463189795056167N840000000014990NP4G00    01DNKETOFUSION 8885968154    718050    VS84000000014990 NDR599977547467   ADA11DE7B2T00E2FBB1766F  000000000+                C CC 12108                     000000000  N000000000 496   0000000000000.00 0000000.00   0000000.00                             000000000000000                                                                                                                                                     01424 G000000014990 0000000000003.17     02050 01000                  
00016490278010003DR675906759000000198288001098000000101ADA11DE7B2T00E2FBB1766F  Y000000014990                 P1                                                                                                                                                                                                                                                                                                                                                                                                                                                                                                                                                                                                            
00016500278010001P16759067590000001982880010980000001010000000000000000                             2000000000000000000000000              000000000000                    0000000000000000000000000                    000000000000                                                                                                                                                                                                                                                                                                                                                                                                                                                                                        
00016510278010002G2675906759000000198288001098000000101888-5968154              UT           9 C                00                                      NNNN   Y                      000000000000                                                                   77547467                                                                                                                                                                                                                                                                                                                                                                                                                                               
00016520278010004DT67590675900000019828800109800000010680010974001193193900010508005071220230000000327419323000000000009121443047XXXXXX6711               0000000   NYV4 07T583193647767864N840000000003274S7QJ00    01CNKETOFUSION 8885968154    012293    VD84000000003274 NDR599977547467   47145009A1T30A85C535B4D  000000000+                F DF 08168                     000000000  Y000000000 369   0000000000000.00 0000000.00   0000000.00                             000000000000000                                                                                                                                                     01424  000000003274 0000000000000.00     00000 00000                  
00016530278010004DR67590675900000019828800109800000010647145009A1T30A85C535B4D  U000000003274                 P1                                                                                                                                                                                                                                                                                                                                                                                                                                                                                                                                                                                                            
00016540278010001P16759067590000001982880010980000001060000000000000000                             2000000000000000000000000              000000000000                    0000000000000000000000000                    000000000000                                                                                                                                                                                                                                                                                                                                                                                                                                                                                        
00016550278010002G2675906759000000198288001098000000106888-5968154              UT           9 D                00                                      NNNN   N                      000000000000                                                                   77547467                                                                                                                                                                                                                                                                                                                                                                                                                                               
00016560278010005DT67590675900000019828800109800000010680010974001193193900010508013071220230000000259519323000000000009121443047XXXXXX6711               0000000   NYV4 07T463193725022371N840000000002595VKTF00    01CNKETOFUSION 8885968154    012352    VD84000000002595 NDR599977547467   47145009A1T1513A0B1B998  000000000+                F DF 08168                     000000000  Y000000000 369   0000000000000.00 0000000.00   0000000.00                             000000000000000                                                                                                                                                     01424  000000002595 0000000000000.00     00000 00000                  
00016570278010005DR67590675900000019828800109800000010647145009A1T1513A0B1B998  U000000002595                 P1                                                                                                                                                                                                                                                                                                                                                                                                                                                                                                                                                                                                            
00016580278010001P16759067590000001982880010980000001060000000000000000                             2000000000000000000000000              000000000000                    0000000000000000000000000                    000000000000                                                                                                                                                                                                                                                                                                                                                                                                                                                                                        
00016590278010002G2675906759000000198288001098000000106888-5968154              UT           9 D                00                                      NNNN   N                      000000000000                                                                   77547467                                                                                                                                                                                                                                                                                                                                                                                                                                               
00016600278010006BH6759067590000001619680010280000090170712202319323000000000031590    0000090001936867Y8001026759C07132023093                                                                                                                                                                                                                                                                                                                                                                                                                                                                                                                                                                                              
00016610278010007DT67590675900000016196800102800000010180010224001193193900019367101071120230000002643719323000000000031590416053XXXXXX2994               2111111   NYV4 A7W303189660055291N840000000026437LKNH00    01DNGREEN OTTER LLC          008291    VS84000000026437 NDR549977424386   E1C85CA6A1TACA49F15F969  000000000+                B CB 12107                     000000000  N000000000 494   0000000000000.00 0000000.00   0000000.00                             000000000000000                                                                                                                                                     01424 G000000026437 0000000000005.49     02040 01000                  
00016620278010007DR675906759000000161968001028000000101E1C85CA6A1TACA49F15F969  Y000000026437                 P1                                                                                                                                                                                                                                                                                                                                                                                                                                                                                                                                                                                                            
00016630278010001P16759067590000001619680010280000001010000000000000000                             2000000000000000000000000              000000000000                    0000000000000000000000000                    000000000000                                                                                                                                                                                                                                                                                                                                                                                                                                                                                        
00016640278010002G2675906759000000161968001028000000101866-6317293              GA           9 C                00                                      NNNN   N                      000000000000                                                                   77424386                                                                                                                                                                                                                                                                                                                                                                                                                                               
00016650278010008DT67590675900000016196800102800000010180010224001193193900019367283071120230000002141019323000000000031590451676XXXXXX1101               2111111   NYV4 A7W303189729057707N8400000000214109BQ800    01DNGREEN OTTER LLC          151353    VD84000000021410 NDR549977424386   DA4872960AT51CC713DC600  000000000+                F DF 00415                     000000000  N000000000       0000000000000.00 0000000.00   0000000.00                             000000000000000                                                                                                                                                     01424 G000000021410 0000000000003.68     01650 01500                  
00016660278010008DR675906759000000161968001028000000101DA4872960AT51CC713DC600  Z000000021410                 P1                                                                                                                                                                                                                                                                                                                                                                                                                                                                                                                                                                                                            
00016670278010001P16759067590000001619680010280000001010000000000000000                             2000000000000000000000000              000000000000                    0000000000000000000000000                    000000000000                                                                                                                                                                                                                                                                                                                                                                                                                                                                                        
00016680278010002G2675906759000000161968001028000000101866-6317293              GA           9 D                00                                      NNNN   N                      000000000000                                                                   77424386                                                                                                                                                                                                                                                                                                                                                                                                                                               
00016690278010009DT67590675900000016196800102800000010180010287287283193900019367292071120230000002636219323000000000031590546616XXXXXX8470       ME03KE06PT01      NY 4607AMCWI6IMI50708  N840000000026362          81DNGREEN OTTER LLC          93621Z    MC84000000026362 NDR549977424386   2ED20D2145T17DF4D65A2A5  000000000+600450S00130    MCW  00642                     000000000  N                0000000000000.00 0000000.00   0000000.00                             000000000000000                                                                                                                                                   U001424  000000000000 0000000000005.90     02200 01000                  
00016700278010009DR6759067590000001619680010280000001012ED20D2145T17DF4D65A2A5  Y000000000000                                                                                                                                                                                                                                                                                                                                                                                                                                                                                                                                                                                                                               
00016710278010001G2675906759000000161968001028000000101866-6317293              GA           9 W               210                                      NNNN           210000000000000000000000000                        7                                          77424386                                                                                                                                                                                                                                                                                                                                                                                                                                               
00016720278010010DT67590675900000016196800102800000010180010287287283193900019367383071120230000002487019323000000000031590512230XXXXXX5778       ME03KE06MS02      NY 4607AMWEWR17XE0708  N840000000024870          81DNGREEN OTTER LLC          80482Z    MC84000000024870 NDR549977424386   117C9485DET13F8A43FFCAA  000000000+600450S00130    MWE  00737                     000000000  N                0000000000000.00 0000000.00   0000000.00                             000000000000000                                                                                                                                                   U001424  000000000000 0000000000006.57     02600 01000                  
00016730278010010DR675906759000000161968001028000000101117C9485DET13F8A43FFCAA  Y000000000000                                                                                                                                                                                                                                                                                                                                                                                                                                                                                                                                                                                                                               
00016740278010001G2675906759000000161968001028000000101866-6317293              GA           9 E               210                                      NNNN           210000000000000000000000000                                                                   77424386                                                                                                                                                                                                                                                                                                                                                                                                                                               
00016750278010011DT67590675900000016196800102800000010180010287287283193900019367409071120230000002729519323000000000031590544579XXXXXX6282       ME03KE06MS02      NY 4607AMDJV62IZX0708  N840000000027295          81DNGREEN OTTER LLC          831425    MD84000000027295 NDR549977424386   B2CFF3DC2CTA73A37FFCF68  000000000+600450S00130    MDJ  10813                     000000000  1                0000000000000.00 0000000.00   0000000.00                             000000000000000                                                                                                                                                   U001424  000000000000 0000000000000.36     00050 02200                  
00016760278010011DR675906759000000161968001028000000101B2CFF3DC2CTA73A37FFCF68  Y000000000000                                                                                                                                                                                                                                                                                                                                                                                                                                                                                                                                                                                                                               
00016770278010001G2675906759000000161968001028000000101866-6317293              GA           9 J               210                                      NNNN           210000000000000000000000000                        7                                          77424386                                                                                                                                                                                                                                                                                                                                                                                                                                               
00016780278010012DT67590675900000016196800102800000010680010274001193193900019368625071220230000001284919323000000000031590427082XXXXXX1162               0000000   NYV4 07T303193438268274N840000000012849HV7700    01CNGREEN OTTER LLC          012883    VS84000000012849 NDR549977424386   60EEE25A61T59155BDEA8BF  000000000+                C CC 00245                     000000000  N000000000 166   0000000000000.00 0000000.00   0000000.00                             000000000000000                                                                                                                                                     01424  000000012849-0000000000002.26     01760 00000                  
00016790278010012DR67590675900000016196800102800000010660EEE25A61T59155BDEA8BF  U000000012849                 P1                                                                                                                                                                                                                                                                                                                                                                                                                                                                                                                                                                                                            
00016800278010001P16759067590000001619680010280000001060000000000000000                             2000000000000000000000000              000000000000                    0000000000000000000000000                    000000000000                                                                                                                                                                                                                                                                                                                                                                                                                                                                                        
00016810278010002G2675906759000000161968001028000000106866-6317293              GA           9 C                00                                      NNNN   Y                      000000000000                                                                   77424386                                                                                                                                                                                                                                                                                                                                                                                                                                               
00016820278010013DT67590675900000016196800102800000010680010287287283193900019368639071220230000001200819323000000000031590542418XXXXXX2742                         NY 4607AMPLH5OOJF0712  N840000000012008          81CNGREEN OTTER LLC          212563    MC84000000012008 NDR549977424386   EE4EEBDFCDT6CC8EB332138  000000000+600450S00130    MPL  00565                     000000000  N                0000000000000.00 0000000.00   0000000.00                             000000000000000                                                                                                                                                     01424  000000000000-0000000000002.10     01750 00000                  
00016830278010013DR675906759000000161968001028000000106EE4EEBDFCDT6CC8EB332138  U000000000000                                                                                                                                                                                                                                                                                                                                                                                                                                                                                                                                                                                                                               
00016840278010001G2675906759000000161968001028000000106866-6317293              GA           9 L               210                                      NNNN           210000000000000000000000000                        7                                          77424386                                                                                                                                                                                                                                                                                                                                                                                                                                               
00016850278010014DT67590675900000016196800102800000010680010274001193193900019368641071220230000002482819323000000000031590414734XXXXXX8334               0000000   NYV4 07T383193641959439N840000000024828N7L600    01CNGREEN OTTER LLC          03490D    VS84000000024828 NDR549977424386   8D5A4DB5CDT60E90F44D5A6  000000000+                D CD 00245                     000000000  N000000000 166   0000000000000.00 0000000.00   0000000.00                             000000000000000                                                                                                                                                     01424  000000024828-0000000000004.37     01760 00000                  
00016860278010014DR6759067590000001619680010280000001068D5A4DB5CDT60E90F44D5A6  Z000000024828                 P1                                                                                                                                                                                                                                                                                                                                                                                                                                                                                                                                                                                                            
00016870278010001P16759067590000001619680010280000001060000000000000000                             2000000000000000000000000              000000000000                    0000000000000000000000000                    000000000000                                                                                                                                                                                                                                                                                                                                                                                                                                                                                        
00016880278010002G2675906759000000161968001028000000106866-6317293              GA           9 C                00                                      NNNN   Y                      000000000000                                                                   77424386                                                                                                                                                                                                                                                                                                                                                                                                                                               
00016890278010015DT67590675900000016196800102800000010680010287287283193900019368654071220230000001322119323000000000031590510277XXXXXX3349                         NY 4607AMDJAKLTZO0712  N840000000013221          81CNGREEN OTTER LLC          H67339    MD84000000013221 NDR549977424386   E0EFFD8768TE0C60D7BCFCB  000000000+600450S00130    MDJ  10828                     000000000  1                0000000000000.00 0000000.00   0000000.00                             000000000000000                                                                                                                                                     01424  000000000000 0000000000000.00     00000 00000                  
00016900278010015DR675906759000000161968001028000000106E0EFFD8768TE0C60D7BCFCB  U000000000000                                                                                                                                                                                                                                                                                                                                                                                                                                                                                                                                                                                                                               
00016910278010001G2675906759000000161968001028000000106866-6317293              GA           9 J               210                                      NNNN           210000000000000000000000000                        7                                          77424386                                                                                                                                                                                                                                                                                                                                                                                                                                               
00016920278010016DT67590675900000016196800102800000010680010287287283193900019368662071220230000001987019323000000000031590527515XXXXXX6189                         NY 4607AMDJLA5R2P0712  N840000000019870          81CNGREEN OTTER LLC          953103    MD84000000019870 NDR549977424386   8405FC3B01T8FE7D0C647A4  000000000+600450S00130    MDJ  10828                     000000000  1                0000000000000.00 0000000.00   0000000.00                             000000000000000                                                                                                                                                     01424  000000000000 0000000000000.00     00000 00000                  
00016930278010016DR6759067590000001619680010280000001068405FC3B01T8FE7D0C647A4  Y000000000000                                                                                                                                                                                                                                                                                                                                                                                                                                                                                                                                                                                                                               
00016940278010001G2675906759000000161968001028000000106866-6317293              GA           9 J               210                                      NNNN           210000000000000000000000000                        7                                          77424386                                                                                                                                                                                                                                                                                                                                                                                                                                               
00016950278010017DT67590675900000016196800102800000010680010287287283193900019368670071220230000001200819323000000000031590552433XXXXXX5701                         NY 4607AMCWE3WQL10712  N840000000012008          81CNGREEN OTTER LLC          098134    MC84000000012008 NDR549977424386   099736B0D6TEB722574F7D0  000000000+600450S00130    MCW  00565                     000000000  N                0000000000000.00 0000000.00   0000000.00                             000000000000000                                                                                                                                                     01424  000000000000-0000000000002.10     01750 00000                  
00016960278010017DR675906759000000161968001028000000106099736B0D6TEB722574F7D0  Y000000000000                                                                                                                                                                                                                                                                                                                                                                                                                                                                                                                                                                                                                               
00016970278010001G2675906759000000161968001028000000106866-6317293              GA           9 W               210                                      NNNN           210000000000000000000000000                        7                                          77424386                                                                                                                                                                                                                                                                                                                                                                                                                                               
00016980278010018BH6759067590000002092580011280000090170712202319323000000000184199    0000090001530124Y8001126759C07132023053                                                                                                                                                                                                                                                                                                                                                                                                                                                                                                                                                                                              
00016990278010019DT67590675900000020925800112800000010180011224001193193900015301237071220230000010019919323000000000184199442732XXXXXX0177               2111111   NYV4 A7W303193625905310N84000000010019939DV00    01DNJ K DISTRIBUTION INC     002313    VD84000000100199 NDR549977712156   8524133489               000000000+                G DG 10352                     000000000  Y000000000 338   0000000000000.00 0000000.00   0000000.00                             000000000000000                                                                                                                                                     01424 G000000100199 0000000000000.72     00050 02200                  
00017000278010019DR6759067590000002092580011280000001018524133489               Z000000100199                 P1                                                                                                                                                                                                                                                                                                                                                                                                                                                                                                                                                                                                            
00017010278010001P16759067590000002092580011280000001010000000000000000                             2000000000000000000000000              000000000000                    0000000000000000000000000                    000000000000                                                                                                                                                                                                                                                                                                                                                                                                                                                                                        
00017020278010002G2675906759000000209258001128000000101203-8159817              CT           9 D                00                                      NNNN   N                      000000000000                                                                   77712156                                                                                                                                                                                                                                                                                                                                                                                                                                               
00017030278010020DT67590675900000020925800112800000010180011224001193193900015301245071220230000008400019323000000000184199414720XXXXXX3597               2111111   NYV4 A7W303193811899872N840000000084000942N00    01DNJ K DISTRIBUTION INC     09296D    VS84000000084000 NDR549977712156   8525025010               000000000+                D CD 12109                     000000000  N000000000 498   0000000000000.00 0000000.00   0000000.00                             000000000000000                                                                                                                                                     01424 G000000084000 0000000000021.10     02500 01000                  
00017040278010020DR6759067590000002092580011280000001018525025010               Z000000084000                 P1                                                                                                                                                                                                                                                                                                                                                                                                                                                                                                                                                                                                            
00017050278010001P16759067590000002092580011280000001010000000000000000                             2000000000000000000000000              000000000000                    0000000000000000000000000                    000000000000                                                                                                                                                                                                                                                                                                                                                                                                                                                                                        
00017060278010002G2675906759000000209258001128000000101203-8159817              CT           9 C                00                                      NNNN   Y                      000000000000                                                                   77712156                                                                                                                                                                                                                                                                                                                                                                                                                                               
00017070278010021BH6759067590000001516480088880000090170712202319323000000000036860    0000090001359091Y8008886759C07132023135                                                                                                                                                                                                                                                                                                                                                                                                                                                                                                                                                                                              
00017080278010022DT67590675900000015164800888800000010180088824001193193900013590328071120230000001394819323000000000036860464363XXXXXX0813               2111111   NYV4 A7W463189771047534N8400000000139484GWJ00    01DNKETOFUSION833-923-3587   171986    VD84000000013948 NDR599977360677   CF7803D7CET84BE69AD21A8  000000000+                F DF 00415                     000000000  N000000000       0000000000000.00 0000000.00   0000000.00                             000000000000000                                                                                                                                                     01424 G000000013948 0000000000002.45     01650 01500                  
00017090278010022DR675906759000000151648008888000000101CF7803D7CET84BE69AD21A8  Y000000013948                 P1                                                                                                                                                                                                                                                                                                                                                                                                                                                                                                                                                                                                            
00017100278010001P16759067590000001516480088880000001010000000000000000                             2000000000000000000000000              000000000000                    0000000000000000000000000                    000000000000                                                                                                                                                                                                                                                                                                                                                                                                                                                                                        
00017110278010002G2675906759000000151648008888000000101801-4041097              UT           9 D                00                                      NNNN   N                      000000000000                                                                   77360677                                                                                                                                                                                                                                                                                                                                                                                                                                               
00017120278010023DT67590675900000015164800888800000010180088824001193193900013590369071120230000001499019323000000000036860438857XXXXXX4076               2111111   NYV4 A7W303190076373245N840000000014990H7LH00    01DNKETOFUSION833-923-3587   01519D    VS84000000014990 NDR599977360677   310B0E3DABT3C075FCD12E8  000000000+                D CD 12109                     000000000  N000000000 498   0000000000000.00 0000000.00   0000000.00                             000000000000000                                                                                                                                                     01424 G000000014990 0000000000003.85     02500 01000                  
00017130278010023DR675906759000000151648008888000000101310B0E3DABT3C075FCD12E8  Y000000014990                 P1                                                                                                                                                                                                                                                                                                                                                                                                                                                                                                                                                                                                            
00017140278010001P16759067590000001516480088880000001010000000000000000                             2000000000000000000000000              000000000000                    0000000000000000000000000                    000000000000                                                                                                                                                                                                                                                                                                                                                                                                                                                                                        
00017150278010002G2675906759000000151648008888000000101801-4041097              UT           9 C                00                                      NNNN   Y                      000000000000                                                                   77360677                                                                                                                                                                                                                                                                                                                                                                                                                                               
00017160278010024DT67590675900000015164800888800000010180088876509753193900013590375071120230000002487019323000000000036860601120XXXXXX2619   BA00                  NY 4 07N753163245068232N840000000024870    00    01DNKETOFUSION833-923-3587   00801R    DS84000000024870 NDR599977360677070                         000000000+1015104910600   DCCDI11325333160  213506000000 000000000  0          460   0000000000000.00 0000000.00   0000000.00                             000000000000000                                                                                                                                                     01424  000000000000 0000000000005.15     02030 01000                  
00017170278010024DR675906759000000151648008888000000101                         N                                                                                                                                                                                                                                                                                                                                                                                                                                                                                                                                                                                                                                           
00017180278010001G2675906759000000151648008888000000101833-9233587              UT           9 C                00                                      NNNN                          000000000000                         00000650975601179750000311                77360677                                                                                                                                                                                                                                                                                                                                                                                                                                               
00017190278010025DT67590675900000015164800888800000010180088887287283193900013590386071120230000001987019323000000000036860525475XXXXXX1124       ME03KE06MS02      NY 4607AMWEA4K7KY0708  N840000000019870          81DNKETOFUSION833-923-3587   30634Z    MC84000000019870 NDR599977360677   C563827344T8D7496B959B9  000000000+600450S00130    MWE  00737                     000000000  N                0000000000000.00 0000000.00   0000000.00                             000000000000000                                                                                                                                                   U001424  000000000000 0000000000005.27     02600 01000                  
00017200278010025DR675906759000000151648008888000000101C563827344T8D7496B959B9  Z000000000000                                                                                                                                                                                                                                                                                                                                                                                                                                                                                                                                                                                                                               
00017210278010001G2675906759000000151648008888000000101833-9233587              UT           9 E               210                                      NNNN           210000000000000000000000000                        7                                          77360677                                                                                                                                                                                                                                                                                                                                                                                                                                               
00017220278010026DT67590675900000015164800888800000010680088887287283193900013590949071220230000001194819323000000000036860544448XXXXXX9045                         NY94607N         0712  N840000000000000          81CNKETOFUSION833-923-3587             MD84000000011948 N  599977360677   F2BD746E29T61F8BE2DDECC  000000000+600450S00130    MDJ  10828                     000000000  1                0000000000000.00 0000000.00   0000000.00                             000000000000000                                                                                                                                                     01424  000000000000 0000000000000.00     00000 00000                  
00017230278010001G2675906759000000151648008888000000106833-9233587              UT           9 J               210                                      NNNN           210000000000000000000000000                                                                   77360677                                                                                                                                                                                                                                                                                                                                                                                                                                               
00017240278010027DT67590675900000015164800888800000010680088887287283193900013590915071220230000002487019323000000000036860512295XXXXXX1560                         NY 4607AMBKUOPHU60712  N840000000024870          81CNKETOFUSION833-923-3587   672887    MC84000000024870FNDR599977360677   23F6222C6CT03F74280B2F1  000000000+600450S00130    MBK  12237                     000000000  N                0000000000000.00 0000000.00   0000000.00                             000000000000000                                                                                                                                                     01424  000000000000-0000000000002.49     01000 00000                  
00017250278010027DR67590675900000015164800888800000010623F6222C6CT03F74280B2F1  S000000000000                                                                                                                                                                                                                                                                                                                                                                                                                                                                                                                                                                                                                               
00017260278010001G2675906759000000151648008888000000106833-9233587              UT           9 K               210                                      NNNN           210000000000000000000000000                                                                   77360677                                                                                                                                                                                                                                                                                                                                                                                                                                               
00017270278010028BH6759067590000003785380014480000090170712202319323000000000249600    0000090001010001Y8001446759C07132023001                                                                                                                                                                                                                                                                                                                                                                                                                                                                                                                                                                                              
00017280278010029DT67590675900000037853800144800000010180014473011003193900010100010071220230000024960019323000000000249600376741XXXXX4002                          NY 4 07N007599670850076N840000000249600          01DNJABAR HOLDINGS LLC       160685    AM84000000249600 Y  519978597348                            000000000+6004S0000130 258     11244                     000000000                   0000000000000.00 0000000.00   0000000.00                             000000000000000 61248972736759675900000037853 JABAR HOLDINGS LLC       12417 NE 13TH AVE        9547436506      33161     JABARHOLDINGSLLC@GMAIL.COM                01324  000000000000 0000000000047.52     01900 00000                  
00017290278010001G2675906759000000378538001448000000101MIAMI                    FL           0                  00                                      NNNN                          000000000000                                                                   78597348                                                                                                                                                                                                                                                                                                                                                                                                                                               
00017300278010030BH6759067590000002773080012680000090170712202319323000000000011500    0000090001240148Y8001266759C07132023024                                                                                                                                                                                                                                                                                                                                                                                                                                                                                                                                                                                              
00017310278010031DT67590675900000027730800126800000010180012624001193193900012401485071120230000001150019323000000000011500417095XXXXXX3673               2111111   NYV4 A7W303189537057896N84000000001150083BJ00    01DNMODERNMANE833-714-2479   05158A    VS84000000011500 NDR596978265659   A1CC93E1AAT65FFAA20F492  000000000+                A CA 12380                     000000000  N000000000 625   0000000000000.00 0000000.00   0000000.00                             000000000000000                                                                                                                                                     01424 G000000011500 0000000000002.00     01650 01000                  
00017320278010031DR675906759000000277308001268000000101A1CC93E1AAT65FFAA20F492  Y000000011500                 P1                                                                                                                                                                                                                                                                                                                                                                                                                                                                                                                                                                                                            
00017330278010001P16759067590000002773080012680000001010000000000000000                             2000000000000000000000000              000000000000                    0000000000000000000000000                    000000000000                                                                                                                                                                                                                                                                                                                                                                                                                                                                                        
00017340278010002G2675906759000000277308001268000000101833-7142479              UT           9 C                00                                      NNNN   Y                      000000000000                                                                   78265659                                                                                                                                                                                                                                                                                                                                                                                                                                               
00017350278010032BH675906759000000268498001258000009017071220231932300000000000988501970000090001918121N8001256759D07132023091                                                                                                                                                                                                                                                                                                                                                                                                                                                                                                                                                                                              
00017360278010033DT67590675900000026849800125800000010680012587287283193900019181214071220230000000988519323000000000009885539241XXXXXX7063                         NN 4607AMPLY22QZN0712  N840000000009885          81CNCBD8885133385            1242500197MC84000000009885 NDR599978220273   881FCC92F6TE543CB7E2708  000000000+600450S00130    MPL  00000                     000000000  N                0000000000000.00 0000000.00   0000000.00             000000000009885C000000000000000                                                                                                                                                     01424  000000000000 0000000000000.00     00000 00000                  
00017370278010033DR675906759000000268498001258000000106881FCC92F6TE543CB7E2708  U000000000000                                                                                                                                                                                                                                                                                                                                                                                                                                                                                                                                                                                                                               
00017380278010001G2675906759000000268498001258000000106855-4401547              WY           9 L               210                                      NNNN           210000000000000000000000000                                                                   78220273                                                                                                                                                                                                                                                                                                                                                                                                                                               
00017390278010034BH6759067590000003433080014180000090170712202319323000000000121802    0000090001100039Y8001416759C07132023010                                                                                                                                                                                                                                                                                                                                                                                                                                                                                                                                                                                              
00017400278010035DT67590675900000034330800141800000010180014124001193193900011000015071220230000000406419323000000000121802484608XXXXXX0289       VS11    0001111   NYV1 A E463193542194991N840000000004064H2P200    05DNJBLISS LLC               194991    VD84000000004064 N  599978512540                            000000000+                F DF 00381                     000000000  N000000000       0000000000000.00 0000000.00   0000000.00                             000000000000000                                                                                                                                                     01424 A000000000000 0000000000000.48     00800 01500                  
00017410278010001E167590675900000034330800141800000010100E0F8C8007B 00000000000.004040404040404040404040404040404040404040404040404006011203A02000000000000000000000404040404040404040404040404040  0000084018008080008000230712DD3004FA42A3A3D99B52DE3F404040400840A000000003101000000000000000000029D264AB0382000000000000000000004040401E40404040 000000040.64 000000000.001E00000000000000000000    80                                                                                                                                                                                                                                                                                                                  
00017420278010002G2675906759000000343308001418000000101GREENWOOD                SC           5 D                00                                      NNNN00 N 00                   000000000000                                                                   78512540                                                                                                                                                                                                                                                                                                                                                                                                                                               
00017430278010036DT67590675900000034330800141800000010180014124001193193900011000023071220230000000203219323000000000121802427199XXXXXX8638       VS11    0001111   NYV1 A E383193555249233N8400000000020323GN200    05DNJBLISS LLC               015906    VD84000000002032 N  599978512540                            000000000+                F DF 00381                     000000000  N000000000       0000000000000.00 0000000.00   0000000.00                             000000000000000                                                                                                                                                     01424 A000000000000 0000000000000.31     00800 01500                  
00017440278010001E167590675900000034330800141800000010100E0F8C8000E 00000000000.004040404040404040404040404040404040404040404040404006011203A0A000000000000000000000404040404040404040404040404040  0001084018008080008000230712792B2D43707F715134D91161404040400840A0000000031010000000000000000000404040404040404040404040404040404040401E40404040 000000020.32 000000000.001E00000000000000000000    80                                                                                                                                                                                                                                                                                                                  
00017450278010002G2675906759000000343308001418000000101GREENWOOD                SC           5 D                00                                      NNNN00 N 00                   000000000000                                                                   78512540                                                                                                                                                                                                                                                                                                                                                                                                                                               
00017460278010037DT67590675900000034330800141800000010180014124001193193900011000031071220230000000160419323000000000121802400022XXXXXX4898       VS11    0001111   NYV1 A E303193570684238N840000000001604MQGZ00    07DNJBLISS LLC               348027    VD84000000001604 N  599978512540                            000000000+                F DF 10433                     000000000  Y000000000 338   0000000000000.00 0000000.00   0000000.00                             000000000000000                                                                                                                                                     01424 A000000000000 0000000000000.23     00050 02200                  
00017470278010001E167590675900000034330800141800000010100E068C80048 00000000000.004040404040404040404040404040404040404040404040404006021203A00000000000000000000000404040404040404040404040404040  0000084000000000000000230712FCA3C812D932DD6D9D735881404040400840A0000000031010000000000000000000404040404040404040404040404040404040404040404040 000000016.04 000000000.004040400000000000000000    80                                                                                                                                                                                                                                                                                                                  
00017480278010002G2675906759000000343308001418000000101GREENWOOD                SC           5 D                00                                      NNNN00 N 00                   000000000000                                                                   78512540                                                                                                                                                                                                                                                                                                                                                                                                                                               
00017490278010038DT67590675900000034330800141800000010180014124001193193900011000049071220230000000267219323000000000121802411399XXXXXX0879       VS11    0001111   NYV1 A E383193581527433N840000000002672N7NV00    05DNJBLISS LLC               060913    VD84000000002672 N  599978512540                            000000000+                F DF 00381                     000000000  N000000000       0000000000000.00 0000000.00   0000000.00                             000000000000000                                                                                                                                                     01424 A000000000000 0000000000000.36     00800 01500                  
00017500278010001E167590675900000034330800141800000010100E0F8C80002 00000000000.004040404040404040404040404040404040404040404040404006011203A0B000000000000000000000404040404040404040404040404040  00000840180080800080002307121A4AE2BE68DB9EA91091B7F6404040400840A00000000310100000000000000000004A146EAC0382000000000000000000004040401E40404040 000000026.72 000000000.001E00000000000000000000    80                                                                                                                                                                                                                                                                                                                  
00017510278010002G2675906759000000343308001418000000101GREENWOOD                SC           5 D                00                                      NNNN00 N 00                   000000000000                                                                   78512540                                                                                                                                                                                                                                                                                                                                                                                                                                               
00017520278010039DT67590675900000034330800141800000010180014124001193193900011000056071220230000000032019323000000000121802485320XXXXXX5358       VK04VS111111111   NYV1 A E463193593140797N840000000000320SS7R00    90DNJBLISS LLC               000014    VD84000000000320 N  599978512540                            000000000+                F PF 08165                     000000000  N000000000       0000000000000.00 0000000.00   0000000.00                             000000000000000                                                                                                                                                     01424 F000000000000 0000000000000.10     01600 00500                  
00017530278010001G2675906759000000343308001418000000101GREENWOOD                SC           5 P                00                                      NNNN00 N 00                   000000000000                                                                   78512540                                                                                                                                                                                                                                                                                                                                                                                                                                               
00017540278010040DT67590675900000034330800141800000010180014124001193193900011000064071220230000000181619323000000000121802411600XXXXXX6065       VS11    0001111   NYV1 A E463193599340413N840000000001816HBLL00    05DNJBLISS LLC               093854    VD84000000001816 N  599978512540                            000000000+                F PF 08170                     000000000  N000000000       0000000000000.00 0000000.00   0000000.00                             000000000000000                                                                                                                                                     01424 A000000000000 0000000000000.36     01150 01500                  
00017550278010001E167590675900000034330800141800000010100E0F8C8007F 00000000000.004040404040404040404040404040404040404040404040404006011203A00000000000000000000000404040404040404040404040404040  0000084018008080008000230712A1124328CFCF941E8B7242A8404040400840A0000000031010000000000000000000404040404040404040404040404040404040401E40404040 000000018.16 000000000.001E00000000000000000000    80                                                                                                                                                                                                                                                                                                                  
00017560278010002G2675906759000000343308001418000000101GREENWOOD                SC           5 P                00                                      NNNN00 N 00                   000000000000                                                                   78512540                                                                                                                                                                                                                                                                                                                                                                                                                                               
00017570278010041DT67590675900000034330800141800000010180014124001193193900011000072071220230000000203219323000000000121802408138XXXXXX8151       VS11    0001111   NYV1 A E303193611926121N840000000002032XC5V00    07DNJBLISS LLC               304339    VD84000000002032 N  599978512540                            000000000+                F PF 08170                     000000000  N000000000       0000000000000.00 0000000.00   0000000.00                             000000000000000                                                                                                                                                     01424 A000000000000 0000000000000.38     01150 01500                  
00017580278010001E167590675900000034330800141800000010100E068C80008 00000000000.00404040404040404040404040404040404040404040404040401F42FF32A00000000010030273000000004000000000000000000000000000  0000084000600000000000230712533CCD9730ED882A7874B3E8404040400840A0000000031010000000000000000000FFBDFECD0086000000000000000000004040404040404040 000000020.32 000000000.004040400000000000000000    80                                                                                                                                                                                                                                                                                                                  
00017590278010002G2675906759000000343308001418000000101GREENWOOD                SC           5 P                00                                      NNNN00 N 00                   000000000000                                                                   78512540                                                                                                                                                                                                                                                                                                                                                                                                                                               
00017600278010042DT67590675900000034330800141800000010180014124001193193900011000080071220230000000545519323000000000121802473703XXXXXX3319       VS11    0001111   NYV1 A E383193619591304N840000000005455WD2600    07DNJBLISS LLC               023570    VD84000000005455 N  599978512540                            000000000+                F DF 10433                     000000000  Y000000000 338   0000000000000.00 0000000.00   0000000.00                             000000000000000                                                                                                                                                     01424 A000000000000 0000000000000.25     00050 02200                  
00017610278010001E167590675900000034330800141800000010100E068C8001A 00000000000.004040404040404040404040404040404040404040404040404006061203A00000000000000000000000404040404040404040404040404040  00000840000000000000002307125C92E03DB5FE925892AE85DD404040400840A000000003101000000000000000000040B0C08040C0807020200000000000004040404040404040 000000054.55 000000000.004040400000000000000000    80                                                                                                                                                                                                                                                                                                                  
00017620278010002G2675906759000000343308001418000000101GREENWOOD                SC           5 D                00                                      NNNN00 N 00                   000000000000                                                                   78512540                                                                                                                                                                                                                                                                                                                                                                                                                                               
00017630278010043DT67590675900000034330800141800000010180014124001193193900011000098071220230000000042419323000000000121802475833XXXXXX4539       VK04VS111111111   NYV1 A E303193631669353N840000000000424GZ9C00    07DNJBLISS LLC               810578    VD84000000000424 N  599978512540                            000000000+                F DF 00451                     000000000  N000000000 214   0000000000000.00 0000000.00   0000000.00                             000000000000000                                                                                                                                                     01424 F000000000000 0000000000000.11     01550 00400                  
00017640278010001E167590675900000034330800141800000010100E068C80026 00000000000.004040404040404040404040404040404040404040404040404006011203A00000000000000000000000404040404040404040404040404040  00000840200000000000002307120D164442F4F5C8D6EB3A49A9404040400840A0000000031010000000000000000000404040404040404040404040404040404040404040404040 000000004.24 000000000.004040400000000000000000    80                                                                                                                                                                                                                                                                                                                  
00017650278010002G2675906759000000343308001418000000101GREENWOOD                SC           5 D                00                                      NNNN00 N 00                   000000000000                                                                   78512540                                                                                                                                                                                                                                                                                                                                                                                                                                               
00017660278010044DT67590675900000034330800141800000010180014177287283193900011000108071220230000000342319323000000000121802517805XXXXXX4671       MS02WI09          NY 1 0 AMPLU8EJZN0712  N840000000003423          07DNJBLISS LLC               05270B    MC84000000003423 N  599978512540                            000000000+M10101M0034C    MPL  00353                     000000000  N                0000000000000.00 0000000.00   0000000.00                             000000000000000                                                                                                                                                   B101424  000000000000 0000000000000.72     01800 01000                  
00017670278010001E167590675900000034330800141800000010100000848016B 00000000000.00404040404040404040404040404040404040404040404040400110A04001220000000000000000000000FF00000000000000000000000000  0001084019800000008001230712E593A6EDAFE449E892FCBAE1404040400840A0000000041010000000000000000000404040404040404040404040404040404040401F40404040 000000034.23 000000000.001F03020000000000000000    80                                                                                                                                                                                                                                                                                                                  
00017680278010002G2675906759000000343308001418000000101GREENWOOD                SC           5 L                                                        NNNN              000000000000000000000000       03               7                                          78512540                                                                                                                                                                                                                                                                                                                                                                                                                                               
00017690278010045DT67590675900000034330800141800000010180014177287283193900011000116071220230000000203219323000000000121802531258XXXXXX1732       MS02WI09          NY 1 0 AMDJJA9RJ00712  N840000000002032          07DNJBLISS LLC               153778    MD84000000002032 N  599978512540                            000000000+M10101M0034C    MDJ  10815                     000000000  1                0000000000000.00 0000000.00   0000000.00                             000000000000000                                                                                                                                                   B101424  000000000000 0000000000000.23     00050 02200                  
00017700278010001E16759067590000003433080014180000001010000084802A9 00000000000.00404040404040404040404040404040404040404040404040400114A04301220000000000000000000000FF00000000000000000000000000  0000084019800000008001230712926C04BFB041B66DFECB3B1C404040400840A0000000041010000000000000000000404040404040404040404040404040404040401F40404040 000000020.32 000000000.001F03020000000000000000    80                                                                                                                                                                                                                                                                                                                  
00017710278010002G2675906759000000343308001418000000101GREENWOOD                SC           5 J                                                        NNNN              000000000000000000000000       03               7                                          78512540                                                                                                                                                                                                                                                                                                                                                                                                                                               
00017720278010046DT67590675900000034330800141800000010180014177287283193900011000124071220230000000128319323000000000121802514230XXXXXX2905       MS02WI09          NY 1 0 AMDJYFHBJZ0712  N840000000001283          05DNJBLISS LLC               422406    MD84000000001283 N  599978512540                            000000000+M10101C5434C    MDJ  00402                     000000000  N                0000000000000.00 0000000.00   0000000.00                             000000000000000                                                                                                                                                   B101424  000000000000 0000000000000.28     01050 01500                  
00017730278010001E167590675900000034330800141800000010100E0F8C80105 00000000000.00404040404040404040404040404040404040404040404040400110A04001220000000000000000000000FF00000000000000000000000000  00010840390000000080002307120338AC1BB4D633435F954143404040400840A0000000041010000000000000000000847FA69B94E6E24C00120000000000004040401E40404040 000000012.83 000000000.001E03000000000000000000    80                                                                                                                                                                                                                                                                                                                  
00017740278010002G2675906759000000343308001418000000101GREENWOOD                SC           5 J                                                        NNNN              000000000000000000000000                        7                                          78512540                                                                                                                                                                                                                                                                                                                                                                                                                                               
00017750278010047DT67590675900000034330800141800000010180014124001193193900011000130071220230000000770119323000000000121802440393XXXXXX1517       VS11    0001111   NYV1 A E383193659500751N840000000007701RBVF00    07DNJBLISS LLC               826169    VD84000000007701 N  599978512540                            000000000+                F PF 08170                     000000000  N000000000       0000000000000.00 0000000.00   0000000.00                             000000000000000                                                                                                                                                     01424 A000000000000 0000000000001.04     01150 01500                  
00017760278010001E167590675900000034330800141800000010100E068C8002F 00000000000.004040404040404040404040404040404040404040404040404006011203A00000000000000000000000404040404040404040404040404040  00000840200000000000002307123A6DD091A3EAC0506909FE9B404040400840A0000000031010000000000000000000391507E25D69EA0D30300000000000004040404040404040 000000077.01 000000000.004040400000000000000000    80                                                                                                                                                                                                                                                                                                                  
00017770278010002G2675906759000000343308001418000000101GREENWOOD                SC           5 P                00                                      NNNN00 N 00                   000000000000                                                                   78512540                                                                                                                                                                                                                                                                                                                                                                                                                                               
00017780278010048DT67590675900000034330800141800000010180014124001193193900011000148071220230000000106819323000000000121802448261XXXXXX9990       VK04VS111111111   NYV1 A E383193665261859N8400000000010686X9400    07DNJBLISS LLC               000741    VD84000000001068 N  599978512540                            000000000+                F DF 10439                     000000000  Y000000000 331   0000000000000.00 0000000.00   0000000.00                             000000000000000                                                                                                                                                     01424 F000000000000 0000000000000.23     00050 02200                  
00017790278010001E167590675900000034330800141800000010100E068C801D4 00000000000.004040404040404040404040404040404040404040404040404006011203A00000000000000000000000404040404040404040404040404040  00010840000000000000002307122AACF108DC8DEC09E5EBA0FC404040400840A00000000310100000000000000000001B5B5A610382000000000000000000004040404040404040 000000010.68 000000000.004040400000000000000000    80                                                                                                                                                                                                                                                                                                                  
00017800278010002G2675906759000000343308001418000000101GREENWOOD                SC           5 D                00                                      NNNN00 N 00                   000000000000                                                                   78512540                                                                                                                                                                                                                                                                                                                                                                                                                                               
00017810278010049DT67590675900000034330800141800000010180014124001193193900011000155071220230000000224319323000000000121802421783XXXXXX6337       VS11    0001111   NYV1 A E303193680096703N840000000002243JBC700    05DNJBLISS LLC               093327    VS84000000002243 N  599978512540                            000000000+                A CA 12110                     000000000  N000000000 493   0000000000000.00 0000000.00   0000000.00                             000000000000000                                                                                                                                                     01424 A000000000000 0000000000000.44     01510 01000                  
00017820278010001E167590675900000034330800141800000010100E0F8C80028 00000000000.004040404040404040404040404040404040404040404040404006011203A0A000000000000000000000404040404040404040404040404040  0000084018008080008000230712776970E4FAF7874E44BA4599404040400840A000000003101000000000000000000001E3F4080080000000000000000000004040401E40404040 000000022.43 000000000.001E00000000000000000000    80                                                                                                                                                                                                                                                                                                                  
00017830278010002G2675906759000000343308001418000000101GREENWOOD                SC           5 C                00                                      NNNN00 N 00                   000000000000                                                                   78512540                                                                                                                                                                                                                                                                                                                                                                                                                                               
00017840278010050DT67590675900000034330800141800000010180014124001193193900011000163071220230000000053419323000000000121802421783XXXXXX6337       VK04VS111111111   NYV1 A E583193681849273N840000000000534TWRZ00    05DNJBLISS LLC               066746    VS84000000000534 N  599978512540                            000000000+                A CA 12110                     000000000  N000000000 493   0000000000000.00 0000000.00   0000000.00                             000000000000000                                                                                                                                                     01424 F000000000000 0000000000000.18     01510 01000                  
00017850278010001E167590675900000034330800141800000010100E0F8C80029 00000000000.004040404040404040404040404040404040404040404040404006011203A0A000000000000000000000404040404040404040404040404040  00000840180080800080002307122E5F2B8B5E9379635D16619C404040400840A0000000031010000000000000000000EE183CCD0080000000000000000000004040401E40404040 000000005.34 000000000.001E00000000000000000000    80                                                                                                                                                                                                                                                                                                                  
00017860278010002G2675906759000000343308001418000000101GREENWOOD                SC           5 C                00                                      NNNN00 N 00                   000000000000                                                                   78512540                                                                                                                                                                                                                                                                                                                                                                                                                                               
00017870278010051DT67590675900000034330800141800000010180014124001193193900011000171071220230000000855819323000000000121802408138XXXXXX5745       VS11    0001111   NYV1 A E463193683563908N840000000008558BQMP00    07DNJBLISS LLC               412928    VD84000000008558 N  599978512540                            000000000+                F PF 08170                     000000000  N000000000       0000000000000.00 0000000.00   0000000.00                             000000000000000                                                                                                                                                     01424 A000000000000 0000000000001.13     01150 01500                  
00017880278010001E167590675900000034330800141800000010100E068C80044 00000000000.00404040404040404040404040404040404040404040404040401F43FE51200000000000000000034524000000000000000000000000000000  00000840004000000000002307129A4A4FE63BC44DA07CB9A0FA404040400840A0000000031010000000000000000000404040404040404040404040404040404040404040404040 000000085.58 000000000.004040400000000000000000    80                                                                                                                                                                                                                                                                                                                  
