00038330115620002BH6759067590000005735680017480000090171004202327723000000000081915    0000090001312295Y8001746759C10052023031                                                                                                                                                                                                                                                                                                                                                                                                                                                                                                                                                                                              
00038340115620003DT67590675900000057356800174800000010180017487287283277900013122676100320230000001699527723000000000081915546616XXXXXX7473       ME07KE06PT01      NY 4607AMCWP5DIP21003  N840000000016995          81DNECHYLON JETTED PUBLISHING39013Z    MC84000000016995 NDR596975168271   NMI4412256               000000000+600450S00130    MCW  00642                     000000000  N                0000000000000.00 0000000.00   0000000.00                             000000000000000                                                                                                                                                   U001424  000000000000 0000000000003.84     02200 01000                  
00038350115620003DR675906759000000573568001748000000101NMI4412256               Y000000000000                                                                                                                                                                                                                                                                                                                                                                                                                                                                                                                                                                                                                               
00038360115620001G2675906759000000573568001748000000101941-2910013              FL           9 W               210                                      NNNN           210000000000000000000000000                        7                                          75168271                                                                                                                                                                                                                                                                                                                                                                                                                                               
00038370115620004DT67590675900000057356800174800000010180017487287283277900013122692100320230000000299527723000000000081915524760XXXXXX2277       ME07KE06MS02      NY 4607AMPLREDRPV1003  N840000000002995          81DNECHYLON JETTED PUBLISHING00336Z    MC84000000002995 NDR596975168271   NMI4412323               000000000+600450S00130    MPL  00013                     000000000  N                0000000000000.00 0000000.00   0000000.00                             000000000000000                                                                                                                                                   U001424  000000000000 0000000000000.68     01950 01000                  
00038380115620004DR675906759000000573568001748000000101NMI4412323               Y000000000000                                                                                                                                                                                                                                                                                                                                                                                                                                                                                                                                                                                                                               
00038390115620001G2675906759000000573568001748000000101941-2910013              FL           9 L               210                                      NNNN           210000000000000000000000000                                                                   75168271                                                                                                                                                                                                                                                                                                                                                                                                                                               
00038400115620005DT67590675900000057356800174800000010180017424001193277900013122709100320230000000299527723000000000081915446542XXXXXX5446               2111111   NYV4 A7W303277157359407N840000000002995BQXP00    01DNECHYLON JETTED PUBLISHING003117    VS84000000002995 NDR596975168271   NMI4412327               000000000+                D CD 12109                     000000000  N000000000 498   0000000000000.00 0000000.00   0000000.00                             000000000000000                                                                                                                                                     01424 G000000002995 0000000000000.85     02500 01000                  
00038410115620005DR675906759000000573568001748000000101NMI4412327               Y000000002995                 P1                                                                                                                                                                                                                                                                                                                                                                                                                                                                                                                                                                                                            
00038420115620001P16759067590000005735680017480000001010000000000000000                             2000000000000000000000000              000000000000                    0000000000000000000000000                    000000000000                                                                                                                                                                                                                                                                                                                                                                                                                                                                                        
00038430115620002G2675906759000000573568001748000000101800-2036524              FL           9 C                00                                      NNNN   Y                      000000000000                                                                   75168271                                                                                                                                                                                                                                                                                                                                                                                                                                               
00038440115620006DT67590675900000057356800174800000010180017487287283277900013122718100320230000001999527723000000000081915524760XXXXXX2277       ME07KE06MS02      NY 4607AMPLQEOFP21003  N840000000019995          81DNECHYLON JETTED PUBLISHING00324Z    MC84000000019995 NDR596975168271   NMI4412340               000000000+600450S00130    MPL  00013                     000000000  N                0000000000000.00 0000000.00   0000000.00                             000000000000000                                                                                                                                                   U001424  000000000000 0000000000004.00     01950 01000                  
00038450115620006DR675906759000000573568001748000000101NMI4412340               Y000000000000                                                                                                                                                                                                                                                                                                                                                                                                                                                                                                                                                                                                                               
00038460115620001G2675906759000000573568001748000000101941-2910013              FL           9 L               210                                      NNNN           210000000000000000000000000                                                                   75168271                                                                                                                                                                                                                                                                                                                                                                                                                                               
00038470115620007DT67590675900000057356800174800000010180017424001193277900013122741100420230000000299527723000000000081915435546XXXXXX7575               2111111   NYV4 A7W303277295964283N8400000000029957DCQ00    01DNECHYLON JETTED PUBLISHING093125    VD84000000002995 NDR596975168271   NMI4412527               000000000+                F DF 10420                     000000000  Y000000000 338   0000000000000.00 0000000.00   0000000.00                             000000000000000                                                                                                                                                     01424 G000000002995 0000000000000.23     00050 02200                  
00038480115620007DR675906759000000573568001748000000101NMI4412527               Y000000002995                 P1                                                                                                                                                                                                                                                                                                                                                                                                                                                                                                                                                                                                            
00038490115620001P16759067590000005735680017480000001010000000000000000                             2000000000000000000000000              000000000000                    0000000000000000000000000                    000000000000                                                                                                                                                                                                                                                                                                                                                                                                                                                                                        
00038500115620002G2675906759000000573568001748000000101800-2036524              FL           9 D                00                                      NNNN   N                      000000000000                                                                   75168271                                                                                                                                                                                                                                                                                                                                                                                                                                               
00038510115620008DT67590675900000057356800174800000010180017424001193277900013122766100420230000000299527723000000000081915410039XXXXXX1305               2111111   NYV4 A7W463277364106525N8400000000029955FP900    01DNECHYLON JETTED PUBLISHING19583D    VS84000000002995 NDR596975168271   NMI4412622               000000000+                D CD 12109                     000000000  N000000000 498   0000000000000.00 0000000.00   0000000.00                             000000000000000                                                                                                                                                     01424 G000000002995 0000000000000.85     02500 01000                  
00038520115620008DR675906759000000573568001748000000101NMI4412622               Y000000002995                 P1                                                                                                                                                                                                                                                                                                                                                                                                                                                                                                                                                                                                            
00038530115620001P16759067590000005735680017480000001010000000000000000                             2000000000000000000000000              000000000000                    0000000000000000000000000                    000000000000                                                                                                                                                                                                                                                                                                                                                                                                                                                                                        
00038540115620002G2675906759000000573568001748000000101800-2036524              FL           9 C                00                                      NNNN   Y                      000000000000                                                                   75168271                                                                                                                                                                                                                                                                                                                                                                                                                                               
00038550115620009DT67590675900000057356800174800000010180017424001193277900013122790100420230000000299527723000000000081915434769XXXXXX0748               2111111   NYV4 A7W463277409938732N8400000000029959H8C00    01DNECHYLON JETTED PUBLISHING042307    VD84000000002995 NDR596975168271   NMI4412729               000000000+                F DF 10420                     000000000  Y000000000 338   0000000000000.00 0000000.00   0000000.00                             000000000000000                                                                                                                                                     01424 G000000002995 0000000000000.23     00050 02200                  
00038560115620009DR675906759000000573568001748000000101NMI4412729               Y000000002995                 P1                                                                                                                                                                                                                                                                                                                                                                                                                                                                                                                                                                                                            
00038570115620001P16759067590000005735680017480000001010000000000000000                             2000000000000000000000000              000000000000                    0000000000000000000000000                    000000000000                                                                                                                                                                                                                                                                                                                                                                                                                                                                                        
00038580115620002G2675906759000000573568001748000000101800-2036524              FL           9 D                00                                      NNNN   N                      000000000000                                                                   75168271                                                                                                                                                                                                                                                                                                                                                                                                                                               
00038590115620010DT67590675900000057356800174800000010180017424001193277900013122808100420230000000299527723000000000081915414724XXXXXX5648               2111111   NYV4 A7W583277428660714N840000000002995DS5D00    01DNECHYLON JETTED PUBLISHING02791C    VS84000000002995 NDR596975168271   NMI4412794               000000000+                C CC 12108                     000000000  N000000000 496   0000000000000.00 0000000.00   0000000.00                             000000000000000                                                                                                                                                     01424 G000000002995 0000000000000.71     02050 01000                  
00038600115620010DR675906759000000573568001748000000101NMI4412794               Y000000002995                 P1                                                                                                                                                                                                                                                                                                                                                                                                                                                                                                                                                                                                            
00038610115620001P16759067590000005735680017480000001010000000000000000                             2000000000000000000000000              000000000000                    0000000000000000000000000                    000000000000                                                                                                                                                                                                                                                                                                                                                                                                                                                                                        
00038620115620002G2675906759000000573568001748000000101800-2036524              FL           9 C                00                                      NNNN   Y                      000000000000                                                                   75168271                                                                                                                                                                                                                                                                                                                                                                                                                                               
00038630115620011DT67590675900000057356800174800000010180017487287283277900013122841100420230000000299527723000000000081915550114XXXXXX4710       ME07KE06MS02      NY 4607AMCSXFEITV1004  N840000000002995          81DNECHYLON JETTED PUBLISHING004920    MC84000000002995 NDR596975168271   NMI4413058               000000000+600450S00130    MCS  00013                     000000000  N                0000000000000.00 0000000.00   0000000.00                             000000000000000                                                                                                                                                   U001424  000000000000 0000000000000.68     01950 01000                  
00038640115620011DR675906759000000573568001748000000101NMI4413058               Y000000000000                                                                                                                                                                                                                                                                                                                                                                                                                                                                                                                                                                                                                               
00038650115620001G2675906759000000573568001748000000101941-2910013              FL           9 S               210                                      NNNN           210000000000000000000000000                        7                                          75168271                                                                                                                                                                                                                                                                                                                                                                                                                                               
00038660115620012DT67590675900000057356800174800000010180017424001193277900013122873100420230000000299527723000000000081915414718XXXXXX0233               2111111   NYV4 A7W463277485452054N84000000000299587LR00    01DNECHYLON JETTED PUBLISHING004188    VS84000000002995 NDR596975168271   NMI4413240               000000000+                D CD 12109                     000000000  N000000000 498   0000000000000.00 0000000.00   0000000.00                             000000000000000                                                                                                                                                     01424 G000000002995 0000000000000.85     02500 01000                  
00038670115620012DR675906759000000573568001748000000101NMI4413240               Y000000002995                 P1                                                                                                                                                                                                                                                                                                                                                                                                                                                                                                                                                                                                            
00038680115620001P16759067590000005735680017480000001010000000000000000                             2000000000000000000000000              000000000000                    0000000000000000000000000                    000000000000                                                                                                                                                                                                                                                                                                                                                                                                                                                                                        
00038690115620002G2675906759000000573568001748000000101800-2036524              FL           9 C                00                                      NNNN   Y                      000000000000                                                                   75168271                                                                                                                                                                                                                                                                                                                                                                                                                                               
00038700115620013DT67590675900000057356800174800000010180017424001193277900013122881100420230000000299527723000000000081915415455XXXXXX5243               2111111   NYV4 A7W583277498247607N840000000002995LJKP00    01DNECHYLON JETTED PUBLISHING012762    VD84000000002995 NDR596975168271   NMI4413363               000000000+                F DF 00415                     000000000  N000000000       0000000000000.00 0000000.00   0000000.00                             000000000000000                                                                                                                                                     01424 G000000002995 0000000000000.64     01650 01500                  
00038710115620013DR675906759000000573568001748000000101NMI4413363               Y000000002995                 P1                                                                                                                                                                                                                                                                                                                                                                                                                                                                                                                                                                                                            
00038720115620001P16759067590000005735680017480000001010000000000000000                             2000000000000000000000000              000000000000                    0000000000000000000000000                    000000000000                                                                                                                                                                                                                                                                                                                                                                                                                                                                                        
00038730115620002G2675906759000000573568001748000000101800-2036524              FL           9 D                00                                      NNNN   N                      000000000000                                                                   75168271                                                                                                                                                                                                                                                                                                                                                                                                                                               
00038740115620014DT67590675900000057356800174800000010180017424001193277900013122899100420230000000299527723000000000081915440393XXXXXX2935               2111111   NYV4 A7W583277498744299N8400000000029955KSV00    01DNECHYLON JETTED PUBLISHING371902    VD84000000002995 NDR596975168271   NMI4413368               000000000+                F PF 08175                     000000000  N000000000       0000000000000.00 0000000.00   0000000.00                             000000000000000                                                                                                                                                     01424 G000000002995 0000000000000.72     01750 02000                  
00038750115620014DR675906759000000573568001748000000101NMI4413368               Y000000002995                 P1                                                                                                                                                                                                                                                                                                                                                                                                                                                                                                                                                                                                            
00038760115620001P16759067590000005735680017480000001010000000000000000                             2000000000000000000000000              000000000000                    0000000000000000000000000                    000000000000                                                                                                                                                                                                                                                                                                                                                                                                                                                                                        
00038770115620002G2675906759000000573568001748000000101800-2036524              FL           9 P                00                                      NNNN   N                      000000000000                                                                   75168271                                                                                                                                                                                                                                                                                                                                                                                                                                               
00038780115620015DT67590675900000057356800174800000010180017424001193277900013122907100420230000000299527723000000000081915410039XXXXXX8923               2111111   NYV4 A7W463277506946329N840000000002995Q6DG00    01DNECHYLON JETTED PUBLISHING48616D    VS84000000002995 NDR596975168271   NMI4413444               000000000+                D CD 12109                     000000000  N000000000 498   0000000000000.00 0000000.00   0000000.00                             000000000000000                                                                                                                                                     01424 G000000002995 0000000000000.85     02500 01000                  
00038790115620015DR675906759000000573568001748000000101NMI4413444               Y000000002995                 P1                                                                                                                                                                                                                                                                                                                                                                                                                                                                                                                                                                                                            
00038800115620001P16759067590000005735680017480000001010000000000000000                             2000000000000000000000000              000000000000                    0000000000000000000000000                    000000000000                                                                                                                                                                                                                                                                                                                                                                                                                                                                                        
00038810115620002G2675906759000000573568001748000000101800-2036524              FL           9 C                00                                      NNNN   Y                      000000000000                                                                   75168271                                                                                                                                                                                                                                                                                                                                                                                                                                               
00038820115620016DT67590675900000057356800174800000010180017424001193277900013122915100420230000000299527723000000000081915443045XXXXXX8835               2111111   NYV4 A7W383277509141104N8400000000029958G2C00    01DNECHYLON JETTED PUBLISHING736178    VD84000000002995 NDR596975168271   NMI4413469               000000000+                F DF 10420                     000000000  Y000000000 338   0000000000000.00 0000000.00   0000000.00                             000000000000000                                                                                                                                                     01424 G000000002995 0000000000000.23     00050 02200                  
00038830115620016DR675906759000000573568001748000000101NMI4413469               Y000000002995                 P1                                                                                                                                                                                                                                                                                                                                                                                                                                                                                                                                                                                                            
00038840115620001P16759067590000005735680017480000001010000000000000000                             2000000000000000000000000              000000000000                    0000000000000000000000000                    000000000000                                                                                                                                                                                                                                                                                                                                                                                                                                                                                        
00038850115620002G2675906759000000573568001748000000101800-2036524              FL           9 D                00                                      NNNN   N                      000000000000                                                                   75168271                                                                                                                                                                                                                                                                                                                                                                                                                                               
00038860115620017DT67590675900000057356800174800000010180017424001193277900013122923100420230000000299527723000000000081915420767XXXXXX5187               2111111   NYV4 A7W583277515884003N840000000002995XDRN00    01DNECHYLON JETTED PUBLISHING081910    VD84000000002995 NDR596975168271   NMI4413557               000000000+                F DF 10420                     000000000  Y000000000 338   0000000000000.00 0000000.00   0000000.00                             000000000000000                                                                                                                                                     01424 G000000002995 0000000000000.23     00050 02200                  
00038870115620017DR675906759000000573568001748000000101NMI4413557               Y000000002995                 P1                                                                                                                                                                                                                                                                                                                                                                                                                                                                                                                                                                                                            
00038880115620001P16759067590000005735680017480000001010000000000000000                             2000000000000000000000000              000000000000                    0000000000000000000000000                    000000000000                                                                                                                                                                                                                                                                                                                                                                                                                                                                                        
00038890115620002G2675906759000000573568001748000000101800-2036524              FL           9 D                00                                      NNNN   N                      000000000000                                                                   75168271                                                                                                                                                                                                                                                                                                                                                                                                                                               
00038900115620018DT67590675900000057356800174800000010180017424001193277900013122931100420230000000299527723000000000081915443512XXXXXX2696               2111111   NYV4 A7W583277520131736N840000000002995FZGG00    01DNECHYLON JETTED PUBLISHING549525    VD84000000002995 NDR596975168271   NMI4413619               000000000+                F DF 00415                     000000000  N000000000       0000000000000.00 0000000.00   0000000.00                             000000000000000                                                                                                                                                     01424 G000000002995 0000000000000.64     01650 01500                  
00038910115620018DR675906759000000573568001748000000101NMI4413619               Y000000002995                 P1                                                                                                                                                                                                                                                                                                                                                                                                                                                                                                                                                                                                            
00038920115620001P16759067590000005735680017480000001010000000000000000                             2000000000000000000000000              000000000000                    0000000000000000000000000                    000000000000                                                                                                                                                                                                                                                                                                                                                                                                                                                                                        
00038930115620002G2675906759000000573568001748000000101800-2036524              FL           9 D                00                                      NNNN   N                      000000000000                                                                   75168271                                                                                                                                                                                                                                                                                                                                                                                                                                               
00038940115620019DT67590675900000057356800174800000010180017424001193277900013122956100420230000000299527723000000000081915416046XXXXXX2711               2111111   NYV4 A7W583277531030886N840000000002995D82C00    01DNECHYLON JETTED PUBLISHING094504    VD84000000002995 NDR596975168271   NMI4413741               000000000+                F DF 10420                     000000000  Y000000000 338   0000000000000.00 0000000.00   0000000.00                             000000000000000                                                                                                                                                     01424 G000000002995 0000000000000.23     00050 02200                  
00038950115620019DR675906759000000573568001748000000101NMI4413741               Y000000002995                 P1                                                                                                                                                                                                                                                                                                                                                                                                                                                                                                                                                                                                            
00038960115620001P16759067590000005735680017480000001010000000000000000                             2000000000000000000000000              000000000000                    0000000000000000000000000                    000000000000                                                                                                                                                                                                                                                                                                                                                                                                                                                                                        
00038970115620002G2675906759000000573568001748000000101800-2036524              FL           9 D                00                                      NNNN   N                      000000000000                                                                   75168271                                                                                                                                                                                                                                                                                                                                                                                                                                               
00038980115620020BH6759067590000006883380018980000090171004202327723000000000022215    0000090001170066Y8001896759C10052023017                                                                                                                                                                                                                                                                                                                                                                                                                                                                                                                                                                                              
00038990115620021DT67590675900000068833800189800000010180018973011003277900011700668100420230000002221527723000000000022215376778XXXXX1002                          NY 4 07N008597744399079N840000000022215          01DNLEARN EUPHORIA LLC       208093    AM84000000022215 Y  599975836485                            000000000+6004S0S00130 258     11262                     000000000                   0000000000000.00 0000000.00   0000000.00                             000000000000000 61248972086759675900000068833 LEARN EUPHORIA LLC       1916 CENTRAL AVE UNIT B  7273553626      33712     INFO@CHILLUMGLASS.COM                     01324  000000000000 0000000000004.43     01950 00000                  
00039000115620001G2675906759000000688338001898000000101ST PETERSBURG            FL           0                  00                                      NNNN                          000000000000                                                                   75836485                                                                                                                                                                                                                                                                                                                                                                                                                                               
00039010115620022BH6759067590000005778680017780000090171004202327723000000000244865    0000090001261732Y8001776759C10052023026                                                                                                                                                                                                                                                                                                                                                                                                                                                                                                                                                                                              
00039020115620023DT67590675900000057786800177800000010180017724001193277900012616768100320230000001699527723000000000244865420254XXXXXX2269               2111111   NYV4 A7W463277082305971N840000000016995DD3200    01DNSTRENGTH ONE - 57786     301290    VS84000000016995 NDR596975172130   NMI4411749               000000000+                B CB 12381                     000000000  N000000000 626   0000000000000.00 0000000.00   0000000.00                             000000000000000                                                                                                                                                     01424 G000000016995 0000000000003.16     01800 01000                  
00039030115620023DR675906759000000577868001778000000101NMI4411749               Y000000016995                 P1                                                                                                                                                                                                                                                                                                                                                                                                                                                                                                                                                                                                            
00039040115620001P16759067590000005778680017780000001010000000000000000                             2000000000000000000000000              000000000000                    0000000000000000000000000                    000000000000                                                                                                                                                                                                                                                                                                                                                                                                                                                                                        
00039050115620002G2675906759000000577868001778000000101800-5797126              FL           9 C                00                                      NNNN   Y                      000000000000                                                                   75172130                                                                                                                                                                                                                                                                                                                                                                                                                                               
00039060115620024DT67590675900000057786800177800000010180017724001193277900012616776100320230000001699527723000000000244865411776XXXXXX3765               2111111   NYV4 A7W303277087737004N8400000000169956P7600    01DNSTRENGTH ONE - 57786     172669    VD84000000016995 NDR596975172130   NMI4411796               000000000+                F DF 10420                     000000000  Y000000000 338   0000000000000.00 0000000.00   0000000.00                             000000000000000                                                                                                                                                     01424 G000000016995 0000000000000.30     00050 02200                  
00039070115620024DR675906759000000577868001778000000101NMI4411796               Y000000016995                 P1                                                                                                                                                                                                                                                                                                                                                                                                                                                                                                                                                                                                            
00039080115620001P16759067590000005778680017780000001010000000000000000                             2000000000000000000000000              000000000000                    0000000000000000000000000                    000000000000                                                                                                                                                                                                                                                                                                                                                                                                                                                                                        
00039090115620002G2675906759000000577868001778000000101800-5797126              FL           9 D                00                                      NNNN   N                      000000000000                                                                   75172130                                                                                                                                                                                                                                                                                                                                                                                                                                               
00039100115620025DT67590675900000057786800177800000010180017724001193277900012616784100320230000000299527723000000000244865410039XXXXXX0388               2111111   NYV4 A7W383277093727128N8400000000029953WDR00    01DNSTRENGTH ONE - 57786     02679D    VS84000000002995 NDR596975172130   NMI4411857               000000000+                D CD 12109                     000000000  N000000000 498   0000000000000.00 0000000.00   0000000.00                             000000000000000                                                                                                                                                     01424 G000000002995 0000000000000.85     02500 01000                  
00039110115620025DR675906759000000577868001778000000101NMI4411857               Y000000002995                 P1                                                                                                                                                                                                                                                                                                                                                                                                                                                                                                                                                                                                            
00039120115620001P16759067590000005778680017780000001010000000000000000                             2000000000000000000000000              000000000000                    0000000000000000000000000                    000000000000                                                                                                                                                                                                                                                                                                                                                                                                                                                                                        
00039130115620002G2675906759000000577868001778000000101800-5797126              FL           9 C                00                                      NNNN   Y                      000000000000                                                                   75172130                                                                                                                                                                                                                                                                                                                                                                                                                                               
00039140115620026DT67590675900000057786800177800000010180017787287283277900012616835100320230000000299527723000000000244865551263XXXXXX9188       ME07KE06MS02      NY 4607AMDJBN3AB01003  N840000000002995          81DNSTRENGTH ONE - 57786     014808    MD84000000002995 NDR596975172130   NMI4411942               000000000+600450S00130    MDJ  10813                     000000000  1                0000000000000.00 0000000.00   0000000.00                             000000000000000                                                                                                                                                   U001424  000000000000 0000000000000.23     00050 02200                  
00039150115620026DR675906759000000577868001778000000101NMI4411942               Z000000000000                                                                                                                                                                                                                                                                                                                                                                                                                                                                                                                                                                                                                               
00039160115620001G2675906759000000577868001778000000101561-2920184              FL           9 J               210                                      NNNN           210000000000000000000000000                        7                                          75172130                                                                                                                                                                                                                                                                                                                                                                                                                                               
00039170115620027DT67590675900000057786800177800000010180017787287283277900012616868100320230000000299527723000000000244865531106XXXXXX4687       ME07KE06MS02      NY 4607AMPGQO81PV1003  N840000000002995          81DNSTRENGTH ONE - 57786     000353    MD84000000002995 NDR596975172130   NMI4411975               000000000+600450S00130    MPG  09899                     000000000  N                0000000000000.00 0000000.00   0000000.00                             000000000000000                                                                                                                                                   U001424  000000000000 0000000000000.73     01760 02000                  
00039180115620027DR675906759000000577868001778000000101NMI4411975               Y000000000000                                                                                                                                                                                                                                                                                                                                                                                                                                                                                                                                                                                                                               
00039190115620001G2675906759000000577868001778000000101561-2920184              FL           9 G               210                                      NNNN           210000000000000000000000000                                                                   75172130                                                                                                                                                                                                                                                                                                                                                                                                                                               
00039200115620028DT67590675900000057786800177800000010180017787287283277900012616876100320230000001999527723000000000244865551263XXXXXX9188       ME07KE06MS02      NY 4607AMDJZP8QBV1003  N840000000019995          81DNSTRENGTH ONE - 57786     015604    MD84000000019995 NDR596975172130   NMI4411988               000000000+600450S00130    MDJ  10813                     000000000  1                0000000000000.00 0000000.00   0000000.00                             000000000000000                                                                                                                                                   U001424  000000000000 0000000000000.32     00050 02200                  
00039210115620028DR675906759000000577868001778000000101NMI4411988               Z000000000000                                                                                                                                                                                                                                                                                                                                                                                                                                                                                                                                                                                                                               
00039220115620001G2675906759000000577868001778000000101561-2920184              FL           9 J               210                                      NNNN           210000000000000000000000000                        7                                          75172130                                                                                                                                                                                                                                                                                                                                                                                                                                               
00039230115620029DT67590675900000057786800177800000010180017787287283277900012616892100320230000000299527723000000000244865511959XXXXXX9140       ME07KE06MS02      NY 4607AMDSIROQPV1003  N840000000002995          81DNSTRENGTH ONE - 57786     843787    MD84000000002995 NDR596975172130   NMI4412009               000000000+600450S00130    MDS  00401                     000000000  N                0000000000000.00 0000000.00   0000000.00                             000000000000000                                                                                                                                                   U001424  000000000000 0000000000000.64     01650 01500                  
00039240115620029DR675906759000000577868001778000000101NMI4412009               A000000000000                                                                                                                                                                                                                                                                                                                                                                                                                                                                                                                                                                                                                               
00039250115620001G2675906759000000577868001778000000101561-2920184              FL           9 S               210                                      NNNN           210000000000000000000000000                                                                   75172130                                                                                                                                                                                                                                                                                                                                                                                                                                               
00039260115620030DT67590675900000057786800177800000010180017724001193277900012616917100320230000000299527723000000000244865432739XXXXXX7289               2111111   NYV4 A7W383277110650711N840000000002995LD5G00    01DNSTRENGTH ONE - 57786     084733    VD84000000002995 NDR596975172130   NMI4412034               000000000+                F DF 10420                     000000000  Y000000000 338   0000000000000.00 0000000.00   0000000.00                             000000000000000                                                                                                                                                     01424 G000000002995 0000000000000.23     00050 02200                  
00039270115620030DR675906759000000577868001778000000101NMI4412034               Y000000002995                 P1                                                                                                                                                                                                                                                                                                                                                                                                                                                                                                                                                                                                            
00039280115620001P16759067590000005778680017780000001010000000000000000                             2000000000000000000000000              000000000000                    0000000000000000000000000                    000000000000                                                                                                                                                                                                                                                                                                                                                                                                                                                                                        
00039290115620002G2675906759000000577868001778000000101800-5797126              FL           9 D                00                                      NNNN   N                      000000000000                                                                   75172130                                                                                                                                                                                                                                                                                                                                                                                                                                               
00039300115620031DT67590675900000057786800177800000010180017724001193277900012616925100320230000000299527723000000000244865456331XXXXXX4895               2111111   NYV4 A7W383277110708899N8400000000029952XKB00    01DNSTRENGTH ONE - 57786     000423    VD84000000002995 NDR596975172130   NMI4412036               000000000+                G DG 10352                     000000000  Y000000000 338   0000000000000.00 0000000.00   0000000.00                             000000000000000                                                                                                                                                     01424 G000000002995 0000000000000.23     00050 02200                  
00039310115620031DR675906759000000577868001778000000101NMI4412036               Y000000002995                 P1                                                                                                                                                                                                                                                                                                                                                                                                                                                                                                                                                                                                            
00039320115620001P16759067590000005778680017780000001010000000000000000    NMI4412036               2000000000000000000000000              000000000000                    0000000000000000000000000                    000000000000                                                                                                                                                                                                                                                                                                                                                                                                                                                                                        
00039330115620002G2675906759000000577868001778000000101800-5797126              FL           9 D                00                                      NNNN   N                      000000000000                                                                   75172130                                                                                                                                                                                                                                                                                                                                                                                                                                               
00039340115620032DT67590675900000057786800177800000010180017787287283277900012616934100320230000001999527723000000000244865511959XXXXXX9140       ME07KE06MS02      NY 4607AMDSBTR3B01003  N840000000019995          81DNSTRENGTH ONE - 57786     843801    MD84000000019995 NDR596975172130   NMI4412046               000000000+600450S00130    MDS  00401                     000000000  N                0000000000000.00 0000000.00   0000000.00                             000000000000000                                                                                                                                                   U001424  000000000000 0000000000003.45     01650 01500                  
00039350115620032DR675906759000000577868001778000000101NMI4412046               A000000000000                                                                                                                                                                                                                                                                                                                                                                                                                                                                                                                                                                                                                               
00039360115620001G2675906759000000577868001778000000101561-2920184              FL           9 S               210                                      NNNN           210000000000000000000000000                                                                   75172130                                                                                                                                                                                                                                                                                                                                                                                                                                               
00039370115620033DT67590675900000057786800177800000010180017724001193277900012616958100320230000001999527723000000000244865432739XXXXXX7289               2111111   NYV4 A7W463277116460749N840000000019995CWP300    01DNSTRENGTH ONE - 57786     091640    VD84000000019995 NDR596975172130   NMI4412081               000000000+                F DF 10420                     000000000  Y000000000 338   0000000000000.00 0000000.00   0000000.00                             000000000000000                                                                                                                                                     01424 G000000019995 0000000000000.32     00050 02200                  
00039380115620033DR675906759000000577868001778000000101NMI4412081               Y000000019995                 P1                                                                                                                                                                                                                                                                                                                                                                                                                                                                                                                                                                                                            
00039390115620001P16759067590000005778680017780000001010000000000000000                             2000000000000000000000000              000000000000                    0000000000000000000000000                    000000000000                                                                                                                                                                                                                                                                                                                                                                                                                                                                                        
00039400115620002G2675906759000000577868001778000000101800-5797126              FL           9 D                00                                      NNNN   N                      000000000000                                                                   75172130                                                                                                                                                                                                                                                                                                                                                                                                                                               
00039410115620034DT67590675900000057786800177800000010180017724001193277900012616990100320230000000299527723000000000244865421783XXXXXX9296               2111111   NYV4 A7W383277128537602N840000000002995XK3V00    01DNSTRENGTH ONE - 57786     024908    VS84000000002995 NDR596975172130   NMI4412178               000000000+                A CA 12106                     000000000  N000000000 492   0000000000000.00 0000000.00   0000000.00                             000000000000000                                                                                                                                                     01424 G000000002995 0000000000000.67     01890 01000                  
00039420115620034DR675906759000000577868001778000000101NMI4412178               Y000000002995                 P1                                                                                                                                                                                                                                                                                                                                                                                                                                                                                                                                                                                                            
00039430115620001P16759067590000005778680017780000001010000000000000000                             2000000000000000000000000              000000000000                    0000000000000000000000000                    000000000000                                                                                                                                                                                                                                                                                                                                                                                                                                                                                        
00039440115620002G2675906759000000577868001778000000101800-5797126              FL           9 C                00                                      NNNN   N                      000000000000                                                                   75172130                                                                                                                                                                                                                                                                                                                                                                                                                                               
00039450115620035DT67590675900000057786800177800000010180017787287283277900012617015100320230000000299527723000000000244865510805XXXXXX8769       ME07KE06MS02      NY 4607AMDJQ3CIPV1003  N840000000002995          81DNSTRENGTH ONE - 57786     023939    MD84000000002995 NDR596975172130   NMI4412205               000000000+600450S00130    MDJ  10813                     000000000  1                0000000000000.00 0000000.00   0000000.00                             000000000000000                                                                                                                                                   U001424  000000000000 0000000000000.23     00050 02200                  
00039460115620035DR675906759000000577868001778000000101NMI4412205               Y000000000000                                                                                                                                                                                                                                                                                                                                                                                                                                                                                                                                                                                                                               
00039470115620001G2675906759000000577868001778000000101561-2920184              FL           9 J               210                                      NNNN           210000000000000000000000000                        7                                          75172130                                                                                                                                                                                                                                                                                                                                                                                                                                               
00039480115620036DT67590675900000057786800177800000010180017787287283277900012617031100320230000001999527723000000000244865510805XXXXXX8769       ME07KE06MS02      NY 4607AMDJU419BZ1003  N840000000019995          81DNSTRENGTH ONE - 57786     025004    MD84000000019995 NDR596975172130   NMI4412248               000000000+600450S00130    MDJ  10813                     000000000  1                0000000000000.00 0000000.00   0000000.00                             000000000000000                                                                                                                                                   U001424  000000000000 0000000000000.32     00050 02200                  
00039490115620036DR675906759000000577868001778000000101NMI4412248               Y000000000000                                                                                                                                                                                                                                                                                                                                                                                                                                                                                                                                                                                                                               
00039500115620001G2675906759000000577868001778000000101561-2920184              FL           9 J               210                                      NNNN           210000000000000000000000000                        7                                          75172130                                                                                                                                                                                                                                                                                                                                                                                                                                               
00039510115620037DT67590675900000057786800177800000010180017787287283277900012617080100420230000001999527723000000000244865542432XXXXXX6646       ME07KE06MS02      NY 4607AMDJ1NUPGQ1004  N840000000019995          81DNSTRENGTH ONE - 57786     881735    MD84000000019995 NDR596975172130   NMI4412466               000000000+600450S00130    MDJ  10813                     000000000  1                0000000000000.00 0000000.00   0000000.00                             000000000000000                                                                                                                                                   U001424  000000000000 0000000000000.32     00050 02200                  
00039520115620037DR675906759000000577868001778000000101NMI4412466               Z000000000000                                                                                                                                                                                                                                                                                                                                                                                                                                                                                                                                                                                                                               
00039530115620001G2675906759000000577868001778000000101561-2920184              FL           9 J               210                                      NNNN           210000000000000000000000000                        7                                          75172130                                                                                                                                                                                                                                                                                                                                                                                                                                               
00039540115620038DT67590675900000057786800177800000010180017724001193277900012617121100420230000000299527723000000000244865442755XXXXXX8404               2111111   NYV4 A7W303277362724003N84000000000299543HJ00    01DNSTRENGTH ONE - 57786     030406    VD84000000002995 NDR596975172130   NMI4412619               000000000+                F DF 10420                     000000000  Y000000000 338   0000000000000.00 0000000.00   0000000.00                             000000000000000                                                                                                                                                     01424 G000000002995 0000000000000.23     00050 02200                  
00039550115620038DR675906759000000577868001778000000101NMI4412619               Y000000002995                 P1                                                                                                                                                                                                                                                                                                                                                                                                                                                                                                                                                                                                            
00039560115620001P16759067590000005778680017780000001010000000000000000                             2000000000000000000000000              000000000000                    0000000000000000000000000                    000000000000                                                                                                                                                                                                                                                                                                                                                                                                                                                                                        
00039570115620002G2675906759000000577868001778000000101800-5797126              FL           9 D                00                                      NNNN   N                      000000000000                                                                   75172130                                                                                                                                                                                                                                                                                                                                                                                                                                               
00039580115620039DT67590675900000057786800177800000010180017724001193277900012617139100420230000000299527723000000000244865446705XXXXXX0284               2111111   NYV4 A7W463277397285709N840000000002995H9WB00    01DNSTRENGTH ONE - 57786     070208    VD84000000002995 NDR596975172130   NMI4412689               000000000+                F DF 00415                     000000000  N000000000       0000000000000.00 0000000.00   0000000.00                             000000000000000                                                                                                                                                     01424 G000000002995 0000000000000.64     01650 01500                  
00039590115620039DR675906759000000577868001778000000101NMI4412689               Y000000002995                 P1                                                                                                                                                                                                                                                                                                                                                                                                                                                                                                                                                                                                            
00039600115620001P16759067590000005778680017780000001010000000000000000                             2000000000000000000000000              000000000000                    0000000000000000000000000                    000000000000                                                                                                                                                                                                                                                                                                                                                                                                                                                                                        
00039610115620002G2675906759000000577868001778000000101800-5797126              FL           9 D                00                                      NNNN   N                      000000000000                                                                   75172130                                                                                                                                                                                                                                                                                                                                                                                                                                               
00039620115620040DT67590675900000057786800177800000010180017787287283277900012617148100420230000001999527723000000000244865552499XXXXXX9332       ME07KE06MS02      NY 4607AMWENDYTFU1004  N840000000019995          81DNSTRENGTH ONE - 57786     00443P    MC84000000019995 NDR596975172130   NMI4412694               000000000+600450S00130    MWE  00737                     000000000  N                0000000000000.00 0000000.00   0000000.00                             000000000000000                                                                                                                                                   U001424  000000000000 0000000000005.30     02600 01000                  
00039630115620040DR675906759000000577868001778000000101NMI4412694               Y000000000000                                                                                                                                                                                                                                                                                                                                                                                                                                                                                                                                                                                                                               
00039640115620001G2675906759000000577868001778000000101561-2920184              FL           9 E               210                                      NNNN           210000000000000000000000000                        7                                          75172130                                                                                                                                                                                                                                                                                                                                                                                                                                               
00039650115620041DT67590675900000057786800177800000010180017724001193277900012617188100420230000001999527723000000000244865432739XXXXXX7169               2111111   NYV4 A7W463277464464955N840000000019995T5QN00    01DNSTRENGTH ONE - 57786     593760    VD84000000019995 NDR596975172130   NMI4413007               000000000+                F DF 10420                     000000000  Y000000000 338   0000000000000.00 0000000.00   0000000.00                             000000000000000                                                                                                                                                     01424 G000000019995 0000000000000.32     00050 02200                  
00039660115620041DR675906759000000577868001778000000101NMI4413007               Y000000019995                 P1                                                                                                                                                                                                                                                                                                                                                                                                                                                                                                                                                                                                            
00039670115620001P16759067590000005778680017780000001010000000000000000                             2000000000000000000000000              000000000000                    0000000000000000000000000                    000000000000                                                                                                                                                                                                                                                                                                                                                                                                                                                                                        
00039680115620002G2675906759000000577868001778000000101800-5797126              FL           9 D                00                                      NNNN   N                      000000000000                                                                   75172130                                                                                                                                                                                                                                                                                                                                                                                                                                               
00039690115620042DT67590675900000057786800177800000010180017724001193277900012617196100420230000000299527723000000000244865414740XXXXXX2121               2111111   NYV4 A7W463277469014754N840000000002995CXTK00    01DNSTRENGTH ONE - 57786     04253D    VS84000000002995 NDR596975172130   NMI4413052               000000000+                D CD 12109                     000000000  N000000000 498   0000000000000.00 0000000.00   0000000.00                             000000000000000                                                                                                                                                     01424 G000000002995 0000000000000.85     02500 01000                  
00039700115620042DR675906759000000577868001778000000101NMI4413052               Y000000002995                 P1                                                                                                                                                                                                                                                                                                                                                                                                                                                                                                                                                                                                            
00039710115620001P16759067590000005778680017780000001010000000000000000                             2000000000000000000000000              000000000000                    0000000000000000000000000                    000000000000                                                                                                                                                                                                                                                                                                                                                                                                                                                                                        
00039720115620002G2675906759000000577868001778000000101800-5797126              FL           9 C                00                                      NNNN   Y                      000000000000                                                                   75172130                                                                                                                                                                                                                                                                                                                                                                                                                                               
00039730115620043DT67590675900000057786800177800000010180017724001193277900012617212100420230000000299527723000000000244865443044XXXXXX2193               2111111   NYV4 A7W383277482480221N840000000002995CQTW00    01DNSTRENGTH ONE - 57786     583417    VD84000000002995 NDR596975172130   NMI4413204               000000000+                F DF 10420                     000000000  Y000000000 338   0000000000000.00 0000000.00   0000000.00                             000000000000000                                                                                                                                                     01424 G000000002995 0000000000000.23     00050 02200                  
00039740115620043DR675906759000000577868001778000000101NMI4413204               Y000000002995                 P1                                                                                                                                                                                                                                                                                                                                                                                                                                                                                                                                                                                                            
