00019600688600002BH6759067590000001619680010280000090170629202318023000000000315236    0000090001805808Y8001026759C06302023080                                                                                                                                                                                                                                                                                                                                                                                                                                                                                                                                                                                              
00019610688600003DT67590675900000016196800102800000010180010287287283180900018052593062820230000000652018023000000000315236551568XXXXXX1013       ME03KE06MS02      NY 4607AMDJHHX56Q0625  N840000000006520          81DNGREEN OTTER LLC          286100    MD84000000006520 NDR549977424386   E486DDF2E8T65903523A166  000000000+600450S00130    MDJ  00401                     000000000  N                0000000000000.00 0000000.00   0000000.00                             000000000000000                                                                                                                                                   U001424  000000000000 0000000000001.23     01650 01500                  
00019620688600003DR675906759000000161968001028000000101E486DDF2E8T65903523A166  Y000000000000                                                                                                                                                                                                                                                                                                                                                                                                                                                                                                                                                                                                                               
00019630688600001G2675906759000000161968001028000000101866-6317293              GA           9 J               210                                      NNNN           210000000000000000000000000                        7                                          77424386                                                                                                                                                                                                                                                                                                                                                                                                                                               
00019640688600004DT67590675900000016196800102800000010180010287287283180900018052957062820230000002111218023000000000315236558168XXXXXX7457                         NY 4607AMDBG2YL6P0625  N840000000021112          81DNGREEN OTTER LLC          167477    MD84000000021112 NDR549977424386                            000000000+600450S00130    MDB  00063                     000000000  N                0000000000000.00 0000000.00   0000000.00                             000000000000000                                                                                                                                                   U001424  000000000000 0000000000004.43     02050 01000                  
00019650688600004DR675906759000000161968001028000000101                         Z000000000000                 P1                                                                                                                                                                                                                                                                                                                                                                                                                                                                                                                                                                                                            
00019660688600001P1675906759000000161968001028000000101                                                 000001242000000000000          8000   000000000871584967            000000000000                                                                                                                                                                                                                                                                                                                                                                                                                                                                                                                                    
00019670688600002G2675906759000000161968001028000000101866-6317293              GA           9 B               210                  871584967           YNNN           210000000000000000000000000                        7                                          77424386                                                                                                                                                                                                                                                                                                                                                                                                                                               
00019680688600005DT67590675900000016196800102800000010180010287287283180900018052981062820230000001987018023000000000315236516278XXXXXX5564       ME03KE06MS02      NY 4607AMDJJW83D10625  N840000000019870          81DNGREEN OTTER LLC          170505    MD84000000019870 NDR549977424386   0BF2B64E65T7CE8D1868A6A  000000000+600450S00130    MDJ  00401                     000000000  N                0000000000000.00 0000000.00   0000000.00                             000000000000000                                                                                                                                                   U001424  000000000000 0000000000003.43     01650 01500                  
00019690688600005DR6759067590000001619680010280000001010BF2B64E65T7CE8D1868A6A  Y000000000000                                                                                                                                                                                                                                                                                                                                                                                                                                                                                                                                                                                                                               
00019700688600001G2675906759000000161968001028000000101866-6317293              GA           9 J               210                                      NNNN           210000000000000000000000000                                                                   77424386                                                                                                                                                                                                                                                                                                                                                                                                                                               
00019710688600006DT67590675900000016196800102800000010680010287287283180900018057188062920230000000157918023000000000315236511786XXXXXX3201                         NY 4607AMCSJEBT630629  N840000000001579          81CNGREEN OTTER LLC          074442    MC84000000001579 NDR549977424386   686124DF0ATAD75EDA95A1E  000000000+600450S00130    MCS  00565                     000000000  N                0000000000000.00 0000000.00   0000000.00                             000000000000000                                                                                                                                                     01424  000000000000-0000000000000.28     01750 00000                  
00019720688600006DR675906759000000161968001028000000106686124DF0ATAD75EDA95A1E  Y000000000000                                                                                                                                                                                                                                                                                                                                                                                                                                                                                                                                                                                                                               
00019730688600001G2675906759000000161968001028000000106866-6317293              GA           9 S               210                                      NNNN           210000000000000000000000000                        7                                          77424386                                                                                                                                                                                                                                                                                                                                                                                                                                               
00019740688600007DT67590675900000016196800102800000010180010224001193180900018057302062920230000001987018023000000000315236461046XXXXXX3460               2111111   NYV4 A7W583180557562089N8400000000198707RC600    01DNGREEN OTTER LLC          062911    VD84000000019870 NDR549977424386   6A933DBE8CTA6853207BE5C  000000000+                F DF 10420                     000000000  Y000000000 338   0000000000000.00 0000000.00   0000000.00                             000000000000000                                                                                                                                                     01424 G000000019870 0000000000000.32     00050 02200                  
00019750688600007DR6759067590000001619680010280000001016A933DBE8CTA6853207BE5C  Y000000019870                 P1                                                                                                                                                                                                                                                                                                                                                                                                                                                                                                                                                                                                            
00019760688600001P16759067590000001619680010280000001010000000000000000                             2000000000000000000000000              000000000000                    0000000000000000000000000                    000000000000                                                                                                                                                                                                                                                                                                                                                                                                                                                                                        
00019770688600002G2675906759000000161968001028000000101866-6317293              GA           9 D                00                                      NNNN   N                      000000000000                                                                   77424386                                                                                                                                                                                                                                                                                                                                                                                                                                               
00019780688600008DT67590675900000016196800102800000010180010287287283180900018057386062920230000001200818023000000000315236524008XXXXXX1982       ME03KE06MS02      NY 4607AMPL26SC350629  N840000000012008          81DNGREEN OTTER LLC          02904B    MC84000000012008 NDR549977424386   052706CF4ET0041B7AAAD13  000000000+600450S00130    MPL  00580                     000000000  N                0000000000000.00 0000000.00   0000000.00                             000000000000000                                                                                                                                                   U001424  000000000000 0000000000002.62     02100 01000                  
00019790688600008DR675906759000000161968001028000000101052706CF4ET0041B7AAAD13  Y000000000000                                                                                                                                                                                                                                                                                                                                                                                                                                                                                                                                                                                                                               
00019800688600001G2675906759000000161968001028000000101866-6317293              GA           9 L               210                                      NNNN           210000000000000000000000000                        7                                          77424386                                                                                                                                                                                                                                                                                                                                                                                                                                               
00019810688600009DT67590675900000016196800102800000010180010224001193180900018057518062920230000001987018023000000000315236417903XXXXXX5004               2111111   NYV4 A7W583180673236808N840000000019870XGKX00    01DNGREEN OTTER LLC          319224    VS84000000019870 NDR549977424386   CC9A7F1B4BTEEA550F1C68C  000000000+                D CD 12109                     000000000  N000000000 498   0000000000000.00 0000000.00   0000000.00                             000000000000000                                                                                                                                                     01424 G000000019870 0000000000005.07     02500 01000                  
00019820688600009DR675906759000000161968001028000000101CC9A7F1B4BTEEA550F1C68C  Y000000019870                 P1                                                                                                                                                                                                                                                                                                                                                                                                                                                                                                                                                                                                            
00019830688600001P16759067590000001619680010280000001010000000000000000                             2000000000000000000000000              000000000000                    0000000000000000000000000                    000000000000                                                                                                                                                                                                                                                                                                                                                                                                                                                                                        
00019840688600002G2675906759000000161968001028000000101866-6317293              GA           9 C                00                                      NNNN   Y                      000000000000                                                                   77424386                                                                                                                                                                                                                                                                                                                                                                                                                                               
00019850688600010DT67590675900000016196800102800000010180010224001193180900018057542062920230000001987018023000000000315236462192XXXXXX1704               2111111   NYV4 A7W383180679893632N840000000019870WFQG00    01DNGREEN OTTER LLC          029093    VS84000000019870 NDR549977424386   FBC9E8B6A7TD950346F20A5  000000000+                A CA 12106                     000000000  N000000000 492   0000000000000.00 0000000.00   0000000.00                             000000000000000                                                                                                                                                     01424 G000000019870 0000000000003.86     01890 01000                  
00019860688600010DR675906759000000161968001028000000101FBC9E8B6A7TD950346F20A5  Y000000019870                 P1                                                                                                                                                                                                                                                                                                                                                                                                                                                                                                                                                                                                            
00019870688600001P16759067590000001619680010280000001010000000000000000                             2000000000000000000000000              000000000000                    0000000000000000000000000                    000000000000                                                                                                                                                                                                                                                                                                                                                                                                                                                                                        
00019880688600002G2675906759000000161968001028000000101866-6317293              GA           9 C                00                                      NNNN   N                      000000000000                                                                   77424386                                                                                                                                                                                                                                                                                                                                                                                                                                               
00019890688600011DT67590675900000016196800102800000010180010224001193180900018057609062920230000000149518023000000000315236440066XXXXXX1104               2111111   NYV4 A7W583180709473961N840000000001495RBMM00    01DNGREEN OTTER LLC          01929D    VS84000000001495 NDR549977424386   A105F4F578TAD830AE1F823  000000000+                D CD 12109                     000000000  N000000000 498   0000000000000.00 0000000.00   0000000.00                             000000000000000                                                                                                                                                     01424 G000000001495 0000000000000.47     02500 01000                  
00019900688600011DR675906759000000161968001028000000101A105F4F578TAD830AE1F823  Y000000001495                 P1                                                                                                                                                                                                                                                                                                                                                                                                                                                                                                                                                                                                            
00019910688600001P16759067590000001619680010280000001010000000000000000                             2000000000000000000000000              000000000000                    0000000000000000000000000                    000000000000                                                                                                                                                                                                                                                                                                                                                                                                                                                                                        
00019920688600002G2675906759000000161968001028000000101866-6317293              GA           9 C                00                                      NNNN   Y                      000000000000                                                                   77424386                                                                                                                                                                                                                                                                                                                                                                                                                                               
00019930688600012DT67590675900000016196800102800000010180010224001193180900018057625062920230000002121118023000000000315236419047XXXXXX4317               2111111   NYV4 A7W303180721295679N840000000021211NG9H00    01DNGREEN OTTER LLC          111900    VD84000000021211 NDR549977424386   65CC105B8FT7C5ADEBE0960  000000000+                F DF 00415                     000000000  N000000000       0000000000000.00 0000000.00   0000000.00                             000000000000000                                                                                                                                                     01424 G000000021211 0000000000003.65     01650 01500                  
00019940688600012DR67590675900000016196800102800000010165CC105B8FT7C5ADEBE0960  Y000000021211                 P1                                                                                                                                                                                                                                                                                                                                                                                                                                                                                                                                                                                                            
00019950688600001P16759067590000001619680010280000001010000000000000000                             2000000000000000000000000              000000000000                    0000000000000000000000000                    000000000000                                                                                                                                                                                                                                                                                                                                                                                                                                                                                        
00019960688600002G2675906759000000161968001028000000101866-6317293              GA           9 D                00                                      NNNN   N                      000000000000                                                                   77424386                                                                                                                                                                                                                                                                                                                                                                                                                                               
00019970688600013DT67590675900000016196800102800000010680010274001193180900018057646062920230000000500018023000000000315236419047XXXXXX4317               0000000   NYV4 07T303180726317051N840000000005000P4NL85    01CNGREEN OTTER LLC          021624    VD84000000005000 NDR549977424386   65CC105B8FT7C5ADEBE0960  000000000+                F DF 08168                     000000000  N000000000 369   0000000000000.00 0000000.00   0000000.00                             000000000000000                                                                                                                                                     01424  000000005000 0000000000000.00     00000 00000                  
00019980688600013DR67590675900000016196800102800000010665CC105B8FT7C5ADEBE0960  R000000005000                 P1                                                                                                                                                                                                                                                                                                                                                                                                                                                                                                                                                                                                            
00019990688600001P16759067590000001619680010280000001060000000000000000                             2000000000000000000000000              000000000000                    0000000000000000000000000                    000000000000                                                                                                                                                                                                                                                                                                                                                                                                                                                                                        
00020000688600002G2675906759000000161968001028000000106866-6317293              GA           9 D                00                                      NNNN   N                      000000000000                                                                   77424386                                                                                                                                                                                                                                                                                                                                                                                                                                               
00020010688600014DT67590675900000016196800102800000010180010224001193180900018057674062920230000002636218023000000000315236433743XXXXXX7676               2111111   NYV4 A7W463180737528438N840000000026362WDKL00    01DNGREEN OTTER LLC          062913    VD84000000026362 NDR549977424386   B9710F1EA7T1430921C493E  000000000+                F DF 00415                     000000000  N000000000       0000000000000.00 0000000.00   0000000.00                             000000000000000                                                                                                                                                     01424 G000000026362 0000000000004.50     01650 01500                  
00020020688600014DR675906759000000161968001028000000101B9710F1EA7T1430921C493E  Y000000026362                 P1                                                                                                                                                                                                                                                                                                                                                                                                                                                                                                                                                                                                            
00020030688600001P16759067590000001619680010280000001010000000000000000                             2000000000000000000000000              000000000000                    0000000000000000000000000                    000000000000                                                                                                                                                                                                                                                                                                                                                                                                                                                                                        
00020040688600002G2675906759000000161968001028000000101866-6317293              GA           9 D                00                                      NNNN   N                      000000000000                                                                   77424386                                                                                                                                                                                                                                                                                                                                                                                                                                               
00020050688600015DT67590675900000016196800102800000010180010224001193180900018057716062920230000001987018023000000000315236444796XXXXXX7602               2111111   NYV4 A7W583180750465539N84000000001987047PH00    01DNGREEN OTTER LLC          029504    VS84000000019870 NDR549977424386   5EA89D9E07T68D7E21E3AD2  000000000+                A CA 12106                     000000000  N000000000 492   0000000000000.00 0000000.00   0000000.00                             000000000000000                                                                                                                                                     01424 G000000019870 0000000000003.86     01890 01000                  
00020060688600015DR6759067590000001619680010280000001015EA89D9E07T68D7E21E3AD2  Y000000019870                 P1                                                                                                                                                                                                                                                                                                                                                                                                                                                                                                                                                                                                            
00020070688600001P16759067590000001619680010280000001010000000000000000                             2000000000000000000000000              000000000000                    0000000000000000000000000                    000000000000                                                                                                                                                                                                                                                                                                                                                                                                                                                                                        
00020080688600002G2675906759000000161968001028000000101866-6317293              GA           9 C                00                                      NNNN   N                      000000000000                                                                   77424386                                                                                                                                                                                                                                                                                                                                                                                                                                               
00020090688600016DT67590675900000016196800102800000010180010224001193180900018057765062920230000001499118023000000000315236402126XXXXXX5875               2111111   NYV4 A7W383180769957486N8400000000149912FWH00    01DNGREEN OTTER LLC          062315    VD84000000014991 NDR549977424386   9A8429F2EDTCB36409E3D1F  000000000+                F DF 00415                     000000000  N000000000       0000000000000.00 0000000.00   0000000.00                             000000000000000                                                                                                                                                     01424 G000000014991 0000000000002.62     01650 01500                  
00020100688600016DR6759067590000001619680010280000001019A8429F2EDTCB36409E3D1F  Y000000014991                 P1                                                                                                                                                                                                                                                                                                                                                                                                                                                                                                                                                                                                            
00020110688600001P16759067590000001619680010280000001010000000000000000                             2000000000000000000000000              000000000000                    0000000000000000000000000                    000000000000                                                                                                                                                                                                                                                                                                                                                                                                                                                                                        
00020120688600002G2675906759000000161968001028000000101866-6317293              GA           9 D                00                                      NNNN   N                      000000000000                                                                   77424386                                                                                                                                                                                                                                                                                                                                                                                                                                               
00020130688600017DT67590675900000016196800102800000010180010224001193180900018057773062920230000000341118023000000000315236412628XXXXXX2692               2111111   NYV4 A7W303180773944392N840000000003411SKGQ00    01DNGREEN OTTER LLC          922412    VD84000000003411 NDR549977424386   188CBEE8FATA9F0A751039F  000000000+                G DG 08705                     000000000  N000000000       0000000000000.00 0000000.00   0000000.00                             000000000000000                                                                                                                                                     01424 G000000003411 0000000000000.94     02450 01000                  
00020140688600017DR675906759000000161968001028000000101188CBEE8FATA9F0A751039F  Z000000003411                 P1                                                                                                                                                                                                                                                                                                                                                                                                                                                                                                                                                                                                            
00020150688600001P16759067590000001619680010280000001010000000000000000                             1000000000212000000000000              000000000000                    0000000000000000000000000                    000000000000                                                                                                                                                                                                                                                                                                                                                                                                                                                                                        
00020160688600002G2675906759000000161968001028000000101866-6317293              GA           9 D                00                                      NNNN   N                      000000000000                                                                   77424386                                                                                                                                                                                                                                                                                                                                                                                                                                               
00020170688600018DT67590675900000016196800102800000010180010287287283180900018057857062920230000001578518023000000000315236517805XXXXXX9554       ME03KE06MS02      NY 4607AMPLJ6Q4FL0629  N840000000015785          81DNGREEN OTTER LLC          08890B    MC84000000015785 NDR549977424386   44C7EE069CT8FEF586F4AB7  000000000+600450S00130    MPL  00580                     000000000  N                0000000000000.00 0000000.00   0000000.00                             000000000000000                                                                                                                                                   U001424  000000000000 0000000000003.41     02100 01000                  
00020180688600018DR67590675900000016196800102800000010144C7EE069CT8FEF586F4AB7  Y000000000000                                                                                                                                                                                                                                                                                                                                                                                                                                                                                                                                                                                                                               
00020190688600001G2675906759000000161968001028000000101866-6317293              GA           9 L               210                                      NNNN           210000000000000000000000000                        7                                          77424386                                                                                                                                                                                                                                                                                                                                                                                                                                               
00020200688600019DT67590675900000016196800102800000010180010287287283180900018057873062920230000001200818023000000000315236514759XXXXXX5836       ME03KE06MS02      NY 4607AMDJKGE8FL0629  N840000000012008          81DNGREEN OTTER LLC          070710    MD84000000012008 NDR549977424386   B651BB5D27T06A7F6E3B77E  000000000+600450S00130    MDJ  10813                     000000000  1                0000000000000.00 0000000.00   0000000.00                             000000000000000                                                                                                                                                   U001424  000000000000 0000000000000.28     00050 02200                  
00020210688600019DR675906759000000161968001028000000101B651BB5D27T06A7F6E3B77E  Y000000000000                                                                                                                                                                                                                                                                                                                                                                                                                                                                                                                                                                                                                               
00020220688600001G2675906759000000161968001028000000101866-6317293              GA           9 J               210                                      NNNN           210000000000000000000000000                        7                                          77424386                                                                                                                                                                                                                                                                                                                                                                                                                                               
00020230688600020DT67590675900000016196800102800000010180010224001193180900018057898062920230000001296918023000000000315236410039XXXXXX9411               2111111   NYV4 A7W383180800453825N840000000012969WQ8D00    01DNGREEN OTTER LLC          99208D    VS84000000012969 NDR549977424386   976F58E6FATBC7DA2C0C4DE  000000000+                D CD 12109                     000000000  N000000000 498   0000000000000.00 0000000.00   0000000.00                             000000000000000                                                                                                                                                     01424 G000000012969 0000000000003.34     02500 01000                  
00020240688600020DR675906759000000161968001028000000101976F58E6FATBC7DA2C0C4DE  Y000000012969                 P1                                                                                                                                                                                                                                                                                                                                                                                                                                                                                                                                                                                                            
00020250688600001P16759067590000001619680010280000001010000000000000000                             2000000000000000000000000              000000000000                    0000000000000000000000000                    000000000000                                                                                                                                                                                                                                                                                                                                                                                                                                                                                        
00020260688600002G2675906759000000161968001028000000101866-6317293              GA           9 C                00                                      NNNN   Y                      000000000000                                                                   77424386                                                                                                                                                                                                                                                                                                                                                                                                                                               
00020270688600021DT67590675900000016196800102800000010180010224001193180900018057963062920230000002121118023000000000315236414720XXXXXX0157               2111111   NYV4 A7W463180808992033N8400000000212112JWN00    01DNGREEN OTTER LLC          04576D    VS84000000021211 NDR549977424386   81C9F12499TE537E3AF4AD3  000000000+                D CD 12109                     000000000  N000000000 498   0000000000000.00 0000000.00   0000000.00                             000000000000000                                                                                                                                                     01424 G000000021211 0000000000005.40     02500 01000                  
00020280688600021DR67590675900000016196800102800000010181C9F12499TE537E3AF4AD3  Y000000021211                 P1                                                                                                                                                                                                                                                                                                                                                                                                                                                                                                                                                                                                            
00020290688600001P16759067590000001619680010280000001010000000000000000                             2000000000000000000000000              000000000000                    0000000000000000000000000                    000000000000                                                                                                                                                                                                                                                                                                                                                                                                                                                                                        
00020300688600002G2675906759000000161968001028000000101866-6317293              GA           9 C                00                                      NNNN   Y                      000000000000                                                                   77424386                                                                                                                                                                                                                                                                                                                                                                                                                                               
00020310688600022DT67590675900000016196800102800000010180010224001193180900018058003062920230000002146018023000000000315236449497XXXXXX1380               2111111   NYV4 A7W383180825047801N8400000000214602HLH00    01DNGREEN OTTER LLC          232960    VD84000000021460 NDR549977424386   F8CD6D6B5ETDCACA919C1FA  000000000+                F DF 00415                     000000000  N000000000       0000000000000.00 0000000.00   0000000.00                             000000000000000                                                                                                                                                     01424 G000000021460 0000000000003.69     01650 01500                  
00020320688600022DR675906759000000161968001028000000101F8CD6D6B5ETDCACA919C1FA  Y000000021460                 P1                                                                                                                                                                                                                                                                                                                                                                                                                                                                                                                                                                                                            
00020330688600001P16759067590000001619680010280000001010000000000000000                             2000000000000000000000000              000000000000                    0000000000000000000000000                    000000000000                                                                                                                                                                                                                                                                                                                                                                                                                                                                                        
00020340688600002G2675906759000000161968001028000000101866-6317293              GA           9 D                00                                      NNNN   N                      000000000000                                                                   77424386                                                                                                                                                                                                                                                                                                                                                                                                                                               
00020350688600023DT67590675900000016196800102800000010180010224001193180900018058011062920230000000531118023000000000315236454951XXXXXX1138               2111111   NYV4 07W583180828084146N840000000005311BDS700    01DNGREEN OTTER LLC          163228    VD84000000005311FNDR549977424386   8BF06B3E4BT66E413498715  000000000+                F DF 10574                     000000000  Y000000000 603   0000000000000.00 0000000.0000 0000000.53D                            000000000000000                                                                                                                                                     01424 G000000005311 0000000000000.25     00050 02200                  
00020360688600023DR6759067590000001619680010280000001018BF06B3E4BT66E413498715  Z000000005311                 P1                                                                                                                                                                                                                                                                                                                                                                                                                                                                                                                                                                                                            
00020370688600001P16759067590000001619680010280000001010000000000000000                             2000000000000000000000000              000000000000                    0000000000000000000000000                    000000000000                                                                                                                                                                                                                                                                                                                                                                                                                                                                                        
00020380688600002G2675906759000000161968001028000000101866-6317293              GA           9 D                00                                      NNNN   N                      000000000000                                                                   77424386                                                                                                                                                                                                                                                                                                                                                                                                                                               
00020390688600024DT67590675900000016196800102800000010180010224001193180900018058086062920230000002661118023000000000315236457680XXXXXX1998               2111111   NYV4 07W383180837821638N840000000026611NLPS00    01DNGREEN OTTER LLC          086764    VS84000000026611FNDR549977424386   2876128CC7T276F5AEAFF49  000000000+                N CN 02828                     000000000  N000000000       0000000000000.00 0000000.0000 0000002.66D                            000000000000000                                                                                                                                                     01424 G000000026611 0000000000004.79     01800 00000                  
00020400688600024DR6759067590000001619680010280000001012876128CC7T276F5AEAFF49  U000000026611                 P1                                                                                                                                                                                                                                                                                                                                                                                                                                                                                                                                                                                                            
00020410688600001P16759067590000001619680010280000001010000000000000000                             2000000000000000000000000              000000000000                    0000000000000000000000000                    000000000000                                                                                                                                                                                                                                                                                                                                                                                                                                                                                        
00020420688600002G2675906759000000161968001028000000101866-6317293              GA           9 C                00                                      NNNN   N                      000000000000                                                                   77424386                                                                                                                                                                                                                                                                                                                                                                                                                                               
00020430688600025BH6759067590000003976880014580000090170629202318023000000000000100    0000090001010001Y8001456759C06302023001                                                                                                                                                                                                                                                                                                                                                                                                                                                                                                                                                                                              
00020440688600026DT67590675900000039768800145800000010180014524001193180900010100019062720230000000010018023000000000000100473703XXXXXX1671       VK04VS111111111   NYV1 A E303178689685022N840000000000100V73T00    05DNDELTA ELEV8 LLC          014166    VD84000000000100 N  599978542082                            000000000+                F DF 10439                     000000000  Y000000000 331   0000000000000.00 0000000.00   0000000.00                             000000000000000                                                                                                                                                     01424 F000000000000 0000000000000.22     00050 02200                  
00020450688600001E167590675900000039768800145800000010100E0F8C80113 00000000000.004040404040404040404040404040404040404040404040404006061203A0A000000000000000000000404040404040404040404040404040  0000084018008080008000230627412E5D45652D6BF7FE54FCF5404040400840A000000003101000000000000000000050504080A01030A020200000000000004040401E40404040 000000001.00 000000000.001E00000000000000000000    80                                                                                                                                                                                                                                                                                                                  
00020460688600002G2675906759000000397688001458000000101WILMINGTON               NC           5 D                00                                      NNNN00 N 00                   000000000000                                                                   78542082                                                                                                                                                                                                                                                                                                                                                                                                                                               
00020470688600027BH6759067590000001857280010580000090170629202318023000000000023034    0000090001120006Y8001056759C06302023112                                                                                                                                                                                                                                                                                                                                                                                                                                                                                                                                                                                              
00020480688600028DT67590675900000018572800105800000010180010524001193180900011200016062920230000000070818023000000000023034453506XXXXXX5259       VK04VS111111111   NYV1 A E463180692206925N840000000000708DMGC00    07DNGALLERY SMOKE SHOP LLC   H42109    VD84000000000708 N  599977453598                            000000000+                F DF 10439                     000000000  Y000000000 331   0000000000000.00 0000000.00   0000000.00                             000000000000000                                                                                                                                                     01424 F000000000000 0000000000000.22     00050 02200                  
00020490688600001E167590675900000018572800105800000010100404040001A 00000000000.004040404040404040404040404040404040404040404040404006011203A00000000000000000000000404040404040404040404040404040  0000084020000000000000230629262967A06578F759AFDD54A2404040400840A0000000031010000000000000000000404040404040404040404040404040404040404040404040 000000007.08 000000000.004040400000000000000000    80                                                                                                                                                                                                                                                                                                                  
00020500688600002G2675906759000000185728001058000000101SEMINOLE                 FL           5 D                00                                      NNNN00 N 00                   000000000000                                                                   77453598                                                                                                                                                                                                                                                                                                                                                                                                                                               
00020510688600029DT67590675900000018572800105800000010180010524001193180900011200032062920230000000984018023000000000023034440066XXXXXX4688       VS11    0001111   NYV1 A E463180780900953N840000000009840H2F400    05DNGALLERY SMOKE SHOP LLC   04431D    VS84000000009840 N  599977453598                            000000000+                D CD 12113                     000000000  N000000000 499   0000000000000.00 0000000.00   0000000.00                             000000000000000                                                                                                                                                     01424 A000000000000 0000000000002.17     02100 01000                  
00020520688600001E167590675900000018572800105800000010100E0F8C8019F 00000000000.004040404040404040404040404040404040404040404040404006011203A0A000000000000000000000404040404040404040404040404040  0001084018008000008000230629E4E39E0AE6035840F3371B98404040400840A00000000310100000000000000000001D0E33560082000000000000000000004040401E40404040 000000098.40 000000000.001E03000000000000000000    80                                                                                                                                                                                                                                                                                                                  
00020530688600002G2675906759000000185728001058000000101SEMINOLE                 FL           5 C                00                                      NNNN00 Y 00                   000000000000                                                                   77453598                                                                                                                                                                                                                                                                                                                                                                                                                                               
00020540688600030DT67590675900000018572800105800000010180010524001193180900011200057062920230000000208518023000000000023034444938XXXXXX4998       VS11    0001111   NYV1 A E383181000341385N8400000000020858W5S00    05DNGALLERY SMOKE SHOP LLC   000034    VS84000000002085 N  599977453598                            000000000+                B CB 12111                     000000000  N000000000 495   0000000000000.00 0000000.00   0000000.00                             000000000000000                                                                                                                                                     01424 A000000000000 0000000000000.44     01650 01000                  
00020550688600001E167590675900000018572800105800000010100E0F8C800E0 00000000000.004040404040404040404040404040404040404040404040404006011203A0A000000000000000000000404040404040404040404040404040  0000084018008000008000230629FD4A82B5B9E9CF03779FEDBE404040400840A0000000031010000000000000000000404040404040404040404040404040404040405E40404040 000000020.85 000000000.005E00000000000000000000    80                                                                                                                                                                                                                                                                                                                  
00020560688600002G2675906759000000185728001058000000101SEMINOLE                 FL           5 C                00                                      NNNN00 N 00                   000000000000                                                                   77453598                                                                                                                                                                                                                                                                                                                                                                                                                                               
00020570688600031DT67590675900000018572800105800000033080010576759003180900011200029062920230000000222518023000000000023034531260XXXXXX9855                         NY42 0 N               N840000000002225      ME  05DNGALLERY SMOKE SHOP LLC   191084    DB84000000002225 N  599977453598                            000000000+                     09601                                1          MA1   0000000000000.00 0000000.00   0000000.00                             000000000000000                                                                                                                                                     01424  000000000000 0000000000000.23     00050 00000                  
00020580688600001G2675906759000000185728001058000000330SEMINOLE                 FL           5 D                00                                      NNNN                          000000000000                                                                   77453598                                                                                                                                                                                                                                                                                                                                                                                                                                               
00020590688600032DT67590675900000018572800105800000033080010576759003180900011200045062920230000000267118023000000000023034441707XXXXXX5243                         NY 2 0 N               N840000000002671      IL  07DNGALLERY SMOKE SHOP LLC   054852    DB84000000002671 N  599977453598                            000000000+                     09576                                N          346   0000000000000.00 0000000.00   0000000.00                             000000000000000                                                                                                                                                     01424  000000000000 0000000000000.46     01150 00000                  
00020600688600001G2675906759000000185728001058000000330SEMINOLE                 FL           5 P                00                                      NNNN                          000000000000                                                                   77453598                                                                                                                                                                                                                                                                                                                                                                                                                                               
00020610688600033DT67590675900000018572800105800000033080010576759003180900011200060062920230000000550518023000000000023034545555XXXXXX4942                         NY42 0 N               N840000000005505      ME  05DNGALLERY SMOKE SHOP LLC   975276    DB84000000005505 N  599977453598                            000000000+                     09597                                N                0000000000000.00 0000000.00   0000000.00                             000000000000000                                                                                                                                                     01424  000000000000 0000000000000.65     00900 00000                  
00020620688600001G2675906759000000185728001058000000330SEMINOLE                 FL           5 D                00                                      NNNN                          000000000000                                                                   77453598                                                                                                                                                                                                                                                                                                                                                                                                                                               
00020630688600034BH6759067590000002962980013180000090170629202318023000000000219345    0000090001380015Y8001316759C06302023038                                                                                                                                                                                                                                                                                                                                                                                                                                                                                                                                                                                              
00020640688600035DT67590675900000029629800131800000010180013124001193180900013800011062920230000000695518023000000000219345435546XXXXXX8767       VS11    0001111   NYV1 A E303180534855152N840000000006955X4WD00    05DNPAK VENTURES             071095    VD84000000006955 N  599978419189                            000000000+                F DF 10433                     000000000  Y000000000 338   0000000000000.00 0000000.00   0000000.00                             000000000000000                                                                                                                                                     01424 A000000000000 0000000000000.25     00050 02200                  
00020650688600001E167590675900000029629800131800000010100E0F8C8025F 00000000000.004040404040404040404040404040404040404040404040404006011203A08000000000000000000000404040404040404040404040404040  0001084018008080008000230629406554A52C4143CBB25493A3404040400840A000000003101000000000000000000058D6218A0082000000000000000000004040401E40404040 000000069.55 000000000.001E00000000000000000000    80                                                                                                                                                                                                                                                                                                                  
00020660688600002G2675906759000000296298001318000000101MILTON                   FL           5 D                00                                      NNNN00 N 00                   000000000000                                                                   78419189                                                                                                                                                                                                                                                                                                                                                                                                                                               
00020670688600036DT67590675900000029629800131800000010180013124001193180900013800029062920230000000695518023000000000219345400022XXXXXX8582       VS11    0001111   NYV1 A E303180542867883N840000000006955DFQW00    05DNPAK VENTURES             747410    VD84000000006955 N  599978419189                            000000000+                F DF 10433                     000000000  Y000000000 338   0000000000000.00 0000000.00   0000000.00                             000000000000000                                                                                                                                                     01424 A000000000000 0000000000000.25     00050 02200                  
00020680688600001E167590675900000029629800131800000010100E0F8C80892 00000000000.004040404040404040404040404040404040404040404040404006021203A0A000000000000000000000404040404040404040404040404040  000008401800808000800023062985B75693324503B110C30912404040400840A0000000031010000000000000000000404040404040404040404040404040404040401E40404040 000000069.55 000000000.001E00000000000000000000    80                                                                                                                                                                                                                                                                                                                  
00020690688600002G2675906759000000296298001318000000101MILTON                   FL           5 D                00                                      NNNN00 N 00                   000000000000                                                                   78419189                                                                                                                                                                                                                                                                                                                                                                                                                                               
00020700688600037DT67590675900000029629800131800000010180013124001193180900013800037062920230000000749018023000000000219345400022XXXXXX0576       VS11    0001111   NYV1 A E583180597770251N84000000000749037MX00    05DNPAK VENTURES             395861    VD84000000007490 N  599978419189                            000000000+                F DF 10433                     000000000  Y000000000 338   0000000000000.00 0000000.00   0000000.00                             000000000000000                                                                                                                                                     01424 A000000000000 0000000000000.26     00050 02200                  
00020710688600001E167590675900000029629800131800000010100E0F8C8030C 00000000000.004040404040404040404040404040404040404040404040404006021203A0A000000000000000000000404040404040404040404040404040  00000840180080800080002306292AEA98FC52FB108210CA8CC3404040400840A0000000031010000000000000000000404040404040404040404040404040404040401E40404040 000000074.90 000000000.001E00000000000000000000    80                                                                                                                                                                                                                                                                                                                  
00020720688600002G2675906759000000296298001318000000101MILTON                   FL           5 D                00                                      NNNN00 N 00                   000000000000                                                                   78419189                                                                                                                                                                                                                                                                                                                                                                                                                                               
00020730688600038DT67590675900000029629800131800000010180013124001193180900013800045062920230000000963018023000000000219345459954XXXXXX8760       VS11    0001111   NYV1 A E463180626410338N840000000009630H9MG00    05DNPAK VENTURES             H32098    VD84000000009630 N  599978419189                            000000000+                F DF 10433                     000000000  Y000000000 338   0000000000000.00 0000000.00   0000000.00                             000000000000000                                                                                                                                                     01424 A000000000000 0000000000000.27     00050 02200                  
00020740688600001E167590675900000029629800131800000010100E0F8C803F1 00000000000.004040404040404040404040404040404040404040404040404006010A03A0A812000000000000000000404040404040404040404040404040  000008403D000080008000230629BCD19B18C9743055DF7AF886404040400840A0000000031010000000000000000000C7BDA66ED57F28F530300000000000004040401E40404040 000000096.30 000000000.001E03000000000000000000    80                                                                                                                                                                                                                                                                                                                  
00020750688600002G2675906759000000296298001318000000101MILTON                   FL           5 D                00                                      NNNN00 N 00                   000000000000                                                                   78419189                                                                                                                                                                                                                                                                                                                                                                                                                                               
00020760688600039DT67590675900000029629800131800000010180013124001193180900013800052062920230000001123518023000000000219345400022XXXXXX1987               1001111   NYV1 A K383180659965783N8400000000112354W7500    01DNPAK VENTURES             555892    VD84000000011235 NDR599978419189                            000000000+                F DF 10436                     000000000  Y000000000 338   0000000000000.00 0000000.00   0000000.00                             000000000000000                                                                                                                                                     01424 E000000000000 0000000000000.28     00050 02200                  
00020770688600039DR675906759000000296298001318000000101                         Z000000000000                                                                                                                                                                                                                                                                                                                                                                                                                                                                                                                                                                                                                               
00020780688600001G2675906759000000296298001318000000101850-3618878              FL           5 D                00                                      NNNN   N                      000000000000                                                                   78419189                                                                                                                                                                                                                                                                                                                                                                                                                                               
00020790688600040DT67590675900000029629800131800000010180013124001193180900013800060062920230000000535018023000000000219345483332XXXXXX5263       VS11    0001111   NYV1 A E383180696655332N8400000000053503JDX00    05DNPAK VENTURES             142106    VD84000000005350 N  599978419189                            000000000+                F DF 00381                     000000000  N000000000       0000000000000.00 0000000.00   0000000.00                             000000000000000                                                                                                                                                     01424 A000000000000 0000000000000.58     00800 01500                  
00020800688600001E167590675900000029629800131800000010100E0F8C80092 00000000000.004040404040404040404040404040404040404040404040404006011203A00000000000000000000000404040404040404040404040404040  0000084018008080008000230629798DAFD44121281AA47CCE13404040400840A00000000310100000000000000000001797F1180382000000000000000000004040401E40404040 000000053.50 000000000.001E00000000000000000000    80                                                                                                                                                                                                                                                                                                                  
00020810688600002G2675906759000000296298001318000000101MILTON                   FL           5 D                00                                      NNNN00 N 00                   000000000000                                                                   78419189                                                                                                                                                                                                                                                                                                                                                                                                                                               
00020820688600041DT67590675900000029629800131800000010180013124001193180900013800078062920230000001819018023000000000219345479154XXXXXX1234       VS11    0001111   NYV1 A E583180745849558N840000000018190ZFZC00    05DNPAK VENTURES             154305    VD84000000018190 N  599978419189                            000000000+                F DF 00381                     000000000  N000000000       0000000000000.00 0000000.00   0000000.00                             000000000000000                                                                                                                                                     01424 A000000000000 0000000000001.61     00800 01500                  
00020830688600001E167590675900000029629800131800000010100E0F8C8022A 00000000000.004040404040404040404040404040404040404040404040404006011203A02000000000000000000000404040404040404040404040404040  0000084018008080008000230629A542DECCF071E91F95E15C16404040400840A0000000031010000000000000000000685836E60382000000000000000000004040401E40404040 000000181.90 000000000.001E00000000000000000000    80                                                                                                                                                                                                                                                                                                                  
00020840688600002G2675906759000000296298001318000000101MILTON                   FL           5 D                00                                      NNNN00 N 00                   000000000000                                                                   78419189                                                                                                                                                                                                                                                                                                                                                                                                                                               
00020850688600042DT67590675900000029629800131800000010180013124001193180900013800086062920230000001177018023000000000219345483332XXXXXX4171       VS11    0001111   NYV1 A E303180750541500N8400000000117702F4X00    05DNPAK VENTURES             155054    VD84000000011770 N  599978419189                            000000000+                F DF 00381                     000000000  N000000000       0000000000000.00 0000000.00   0000000.00                             000000000000000                                                                                                                                                     01424 A000000000000 0000000000001.09     00800 01500                  
00020860688600001E167590675900000029629800131800000010100E0F8C80020 00000000000.004040404040404040404040404040404040404040404040404006011203A00000000000000000000000404040404040404040404040404040  0000084018008080008000230629FF49C787EE0492E019B2D217404040400840A00000000310100000000000000000005C1465FA0382000000000000000000004040401E40404040 000000117.70 000000000.001E00000000000000000000    80                                                                                                                                                                                                                                                                                                                  
00020870688600002G2675906759000000296298001318000000101MILTON                   FL           5 D                00                                      NNNN00 N 00                   000000000000                                                                   78419189                                                                                                                                                                                                                                                                                                                                                                                                                                               
00020880688600043DT67590675900000029629800131800000010180013177287283180900013800096062920230000001070018023000000000219345514230XXXXXX2287       MS02WI09          NY 1 0 AMDJJDFGFL0629  N840000000010700          05DNPAK VENTURES             2E6692    MD84000000010700 N  599978419189                            000000000+M10101C5434C    MDJ  00402                     000000000  N                0000000000000.00 0000000.00   0000000.00                             000000000000000                                                                                                                                                   B101424  000000000000 0000000000001.27     01050 01500                  
00020890688600001E167590675900000029629800131800000010100E0F8C806A2 00000000000.00404040404040404040404040404040404040404040404040400110A04001220000000000000000000000FF00000000000000000000000000  00010840390000000080002306298E78ED3A6D0B9E4689A8E901404040400840A0000000041010000000000000000000AF919E16627F396900120000000000004040401E40404040 000000107.00 000000000.001E03000000000000000000    80                                                                                                                                                                                                                                                                                                                  
00020900688600002G2675906759000000296298001318000000101MILTON                   FL           5 J                                                        NNNN              000000000000000000000000                        7                                          78419189                                                                                                                                                                                                                                                                                                                                                                                                                                               
00020910688600044DT67590675900000029629800131800000010180013124001193180900013800102062920230000000160018023000000000219345465992XXXXXX4378       VS11    0001111   NYV1 A E303180767629646N840000000001600GG4900    07DNPAK VENTURES             405576    VD84000000001600 N  599978419189                            000000000+                F DF 00381                     000000000  N000000000       0000000000000.00 0000000.00   0000000.00                             000000000000000                                                                                                                                                     01424 A000000000000 0000000000000.28     00800 01500                  
00020920688600001E167590675900000029629800131800000010100E068C80002 00000000000.00404040404040404040404040404040404040404040404040401F42FF32A00000000010030273000000004000000000000000000000000000  00000840004000000000002306297B9AD7CB2BD344BCDB99D426404040400840A0000000031010000000000000000000154FF1E10086000000000000000000004040404040404040 000000016.00 000000000.004040400000000000000000    80                                                                                                                                                                                                                                                                                                                  
00020930688600002G2675906759000000296298001318000000101MILTON                   FL           5 D                00                                      NNNN00 N 00                   000000000000                                                                   78419189                                                                                                                                                                                                                                                                                                                                                                                                                                               
00020940688600045DT67590675900000029629800131800000010180013176509753180900013800118062920230000000642018023000000000219345601101XXXXXX4275   BA50                  NY41 0 N813155287122225N840000000006420    00    05DNPAK VENTURES             02913R    DS84000000006420 N  599978419189050                         000000000+0000004910H00   DCCDI01000832861  173152000000 000000000  0          112   0000000000000.00 0000000.00   0000000.00                             000000000000000                                                                                                                                                     01424  000000000000 0000000000001.20     01720 01000                  
00020950688600001E167590675900000029629800131800000010100E0F8C8002B 00000000000.00404040404040404040404040404040404040404040404040400105A080030000000000000000000000404040404040404040404040404040  0001084078000000008000230629AB04494E9198ADA75242E7AB404040400840A00000015230100000000000000000009B8D08372536769500320000000000004040401E40404040 000000064.20 000000000.001E03000000000000000000    80                                                                                                                                                                                                                                                                                                                  
00020960688600002G2675906759000000296298001318000000101MILTON                   FL           5 C                00                                      NNNN                          000000000000                         00000650975601179750000600                78419189                                                                                                                                                                                                                                                                                                                                                                                                                                               
00020970688600046DT67590675900000029629800131800000010180013177287283180900013800120062920230000000481518023000000000219345514978XXXXXX7076       MS02WI09          NY 2 0 AMDJU9KEQC0629  N840000000004815          05DNPAK VENTURES             065202    MD84000000004815 N  599978419189                            000000000+M10101C1334C    MDJ  10815                     000000000  1                0000000000000.00 0000000.00   0000000.00                             000000000000000                                                                                                                                                   B101424  000000000000 0000000000000.24     00050 02200                  
00020980688600001E167590675900000029629800131800000010100E0F8C80589 00000000000.00404040404040404040404040404040404040404040404040400110A00001220000000000000000000000FF00000000000000000000000000  000008401800800004800023062968951945722238694A1F1D02404040400840A0000000041010000000000000000000D5CB915431896548031A0000000000004040400240404040 000000048.15 000000000.000203000000000000000000    80                                                                                                                                                                                                                                                                                                                  
00020990688600002G2675906759000000296298001318000000101MILTON                   FL           5 J                                                        NNNN              000000000000000000000000                        7                                          78419189                                                                                                                                                                                                                                                                                                                                                                                                                                               
00021000688600047DT67590675900000029629800131800000010180013177287283180900013800138062920230000000267518023000000000219345514978XXXXXX7076       MS02WI09          NY 1 0 AMDJP3KNR00629  N840000000002675          05DNPAK VENTURES             065254    MD84000000002675 N  599978419189                            000000000+M10101C5434C    MDJ  10815                     000000000  1                0000000000000.00 0000000.00   0000000.00                             000000000000000                                                                                                                                                   B101424  000000000000 0000000000000.23     00050 02200                  
00021010688600001E167590675900000029629800131800000010100E0F8C8058A 00000000000.00404040404040404040404040404040404040404040404040400110A00001220000000000000000000000FF00000000000000000000000000  0000084018008000088000230629682F5C070B375A5E60DDB6C8404040400840A00000000410100000000000000000000859C690CA5F8011031A0000000000004040401E40404040 000000026.75 000000000.001E03000000000000000000    80                                                                                                                                                                                                                                                                                                                  
