01989880479350002BH6759067590000001165080088880000090170221202305223000000000038140    0000090001100011N8008886759C02222023                                                                                                                                                                                                                                                                                                                                                                                                                                                                                                                                                                                                 
01989890479350003DT67590675900000011650800888800000010180088824001193052900011000015022020230000000363105223000000000038140426684XXXXXX8815       VS11    0001111   NYV1 A E303051620068582N8400000000036317WJ700    07DNVPODS HOLDING INC        09794B    VS84000000003631 N  599977032122                            000000000+                B CB 12111                     000000000  N000000000 495   0000000000000.00 0000000.00   0000000.00                             000000000000000                                                                                                                                                     01418 A000000000000 0000000000000.70     01650 01000                  
01989900479350004DT67590675900000011650800888800000010180088824001193052900011000023022020230000000102105223000000000038140483313XXXXXX4929       VK04VS111111111   NYV1 A E383051646209220N840000000001021BG3H00    05DNVPODS HOLDING INC        005712    VD84000000001021 N  599977032122                            000000000+                F DF 10439                     000000000  Y000000000 331   0000000000000.00 0000000.00   0000000.00                             000000000000000                                                                                                                                                     01418 F000000000000 0000000000000.23     00050 02200                  
01989910479350005DT67590675900000011650800888800000010180088873011003052900011000037022020230000000283805223000000000038140372241XXXXX1007                          NY 1 0 N006586553372071N840000000002838          07DNVPODS HOLDINGS INC       896434    AM84000000002838 N  599977032122                            000000000+51010X50034C 258     11261                     000000000                   0000000000000.00 0000000.00   0000000.00                             000000000000000 61248972086759675900000011650 VPODS HOLDINGS INC       2527 N LINCOLN AVE       7732092463      60614     SMOKEDREAMS2@ICLOUD.COM                   01418  000000000000 0000000000000.55     01600 00000                  
01989920479350006DT67590675900000011650800888800000010180088824001193052900011000049022020230000000283805223000000000038140414720XXXXXX7669       VS11    0001111   NYV1 A E463051749976304N840000000002838MS2D00    07DNVPODS HOLDING INC        08742I    VS84000000002838 N  599977032122                            000000000+                I CI 12113                     000000000  N000000000 499   0000000000000.00 0000000.00   0000000.00                             000000000000000                                                                                                                                                     01418 A000000000000 0000000000000.70     02100 01000                  
01989930479350007DT67590675900000011650800888800000010180088877287283052900011000058022020230000000283805223000000000038140514377XXXXXX0804       MS02WI09          NY 1 0 AMDJOS4GAE0220  N840000000002838          07DNVPODS HOLDING INC        1OGJ6K    MD84000000002838 N  599977032122                            000000000+M10101M0034C    MDJ  00402                     000000000  N                0000000000000.00 0000000.00   0000000.00                             000000000000000                                                                                                                                                   B101418  000000000000 0000000000000.45     01050 01500                  
01989940479350008DT67590675900000011650800888800000010180088824001193052900011000064022020230000000283805223000000000038140441707XXXXXX5657       VS11    0001111   NYV1 A E463051796860847N840000000002838PPTQ00    07DNVPODS HOLDING INC        755074    VD84000000002838 N  599977032122                            000000000+                F PF 08170                     000000000  N000000000       0000000000000.00 0000000.00   0000000.00                             000000000000000                                                                                                                                                     01418 A000000000000 0000000000000.48     01150 01500                  
01989950479350009DT67590675900000011650800888800000010180088824001193052900011000072022020230000000617905223000000000038140483316XXXXXX1863       VS11    0001111   NYV1 A E583051862621726N840000000006179VSQ400    07DNVPODS HOLDING INC        025718    VD84000000006179 N  599977032122                            000000000+                F DF 10433                     000000000  Y000000000 338   0000000000000.00 0000000.00   0000000.00                             000000000000000                                                                                                                                                     01418 A000000000000 0000000000000.25     00050 02200                  
01989960479350010DT67590675900000011650800888800000010180088824001193052900011000080022020230000000567705223000000000038140465098XXXXXX8973       VS11    0001111   NYV1 A E383052047526980N840000000005677DTBB00    07DNVPODS HOLDING INC        020735    VD84000000005677 N  599977032122                            000000000+                F DF 10433                     000000000  Y000000000 338   0000000000000.00 0000000.00   0000000.00                             000000000000000                                                                                                                                                     01418 A000000000000 0000000000000.25     00050 02200                  
01989970479350011DT67590675900000011650800888800000010180088877287283052900011000090022020230000000226905223000000000038140537177XXXXXX2292       MS02WI09          NY 1 0 AMDJTHNECD0220  N840000000002269          07DNVPODS HOLDING INC        003309    MD84000000002269 N  599977032122                            000000000+M10101M0034C    MDJ  10815                     000000000  1                0000000000000.00 0000000.00   0000000.00                             000000000000000                                                                                                                                                   B101418  000000000000 0000000000000.23     00050 02200                  
01989980479350012DT67590675900000011650800888800000010180088824001193052900011000106022020230000000340505223000000000038140419002XXXXXX7545       VS11    0001111   NYV1 A E463052133530833N840000000003405MQ5D00    07DNVPODS HOLDING INC        021512    VD84000000003405 N  599977032122                            000000000+                F DF 10433                     000000000  Y000000000 338   0000000000000.00 0000000.00   0000000.00                             000000000000000                                                                                                                                                     01418 A000000000000 0000000000000.24     00050 02200                  
01989990479350013DT67590675900000011650800888800000010180088877287283052900011000116022020230000000460605223000000000038140517546XXXXXX5470       MS02WI09          NY 2 0 AMDJJB16OX0220  N840000000004606          05DNVPODS HOLDING INC        020508    MD84000000004606 N  599977032122                            000000000+M10101C1334C    MDJ  10815                     000000000  1                0000000000000.00 0000000.00   0000000.00                             000000000000000                                                                                                                                                   B101418  000000000000 0000000000000.24     00050 02200                  
01990000479350014BH6759067590000000215480088880000090170221202305223000000000443490    0000090001142374N8008886759C02222023                                                                                                                                                                                                                                                                                                                                                                                                                                                                                                                                                                                                 
01990010479350015DT67590675900000002154800888800000010180088887287283052900011430833022120230000006180005223000000000443490534875XXXXXX2952                         NY 4607AMDBNY1UK40221  N840000000061800          81DNDRIP DROP DISTRO LLC     103808    MD84000000061800 NP1519900000001   INV-000824               000000000+600450S00140    MDB  10786                     000000000  1                0000000000000.00 0000000.00   0000000.00                             000000000000000                                                                                                                                                   U001418  000000000000 0000000000000.53     00050 02200                  
01990020479350001P1675906759000000021548008888000000101                                                          000000000000          8000            471534935                                                                                                                                                                                                                                                                                                                                                                                                                                                                                                                                                            
01990030479350016DT67590675900000002154800888800000010180088887287283052900011427813022120230000008909505223000000000443490534875XXXXXX8445                         NY 4607AMDBDZFYXH0221  N840000000089095          81DNDRIP DROP DISTRO LLC     102896    MD84000000089095 NP1519900000001   INV-000822               000000000+600450S00140    MDB  10786                     000000000  1                0000000000000.00 0000000.00   0000000.00                             000000000000000                                                                                                                                                   U001418  000000000000 0000000000000.67     00050 02200                  
01990040479350001P1675906759000000021548008888000000101                                                          000000000000          8000            471534935                                                                                                                                                                                                                                                                                                                                                                                                                                                                                                                                                            
01990050479350017DT67590675900000002154800888800000010180088887287283052900011435766022120230000005970005223000000000443490543840XXXXXX6093                         NY 4607AMDBFL6LXH0221  N840000000059700          81DNDRIP DROP DISTRO LLC     030711    MD84000000059700 NP1519900000001   INV-000826               000000000+600450S00140    MDB  00062                     000000000  N                0000000000000.00 0000000.00   0000000.00                             000000000000000                                                                                                                                                   U001418  000000000000 0000000000015.92     02650 01000                  
01990060479350001P1675906759000000021548008888000000101                                                          000000000000          8000            471534935                                                                                                                                                                                                                                                                                                                                                                                                                                                                                                                                                            
01990070479350018DT67590675900000002154800888800000010180088824001193052900011436961022120230000008200005223000000000443490415417XXXXXX8676               2111111   NYV4 A7W303052823555608N840000000082000PJVD00    01DNDRIP DROP DISTRO LLC     07081G    VB84000000082000 NP1519971004114   INV-000838               000000000+                G4CG411355                     000000000  N000000000 377   0000000000000.00 0000000.00   0000000.00                             000000000000000                                                                                                                                                     01418 G000000082000 0000000000024.29     02950 01000                  
01990080479350001P16759067590000000215480088880000001010000000000000000    43954625586              2000000000000000000000000              000000000000                    0000000000000000000000000                    000000000000                                                                                                                                                                                                                                                                                                                                                                                                                                                                                        
01990090479350019DT67590675900000002154800888800000010180088887287283052900011430312022120230000006180005223000000000443490534875XXXXXX8445                         NY 4607AMDBNXG2K40221  N840000000061800          81DNDRIP DROP DISTRO LLC     102982    MD84000000061800 NP1519900000001   INV-000825               000000000+600450S00140    MDB  10786                     000000000  1                0000000000000.00 0000000.00   0000000.00                             000000000000000                                                                                                                                                   U001418  000000000000 0000000000000.53     00050 02200                  
01990100479350001P1675906759000000021548008888000000101                                                          000000000000          8000            471534935                                                                                                                                                                                                                                                                                                                                                                                                                                                                                                                                                            
01990110479350020DT67590675900000002154800888800000010180088887287283052900011423747022120230000008909505223000000000443490534875XXXXXX2952                         NY 4607AMDBCYXTTZ0221  N840000000089095          81DNDRIP DROP DISTRO LLC     113201    MD84000000089095 NP1519900000001   INV-000823               000000000+600450S00140    MDB  10786                     000000000  1                0000000000000.00 0000000.00   0000000.00                             000000000000000                                                                                                                                                   U001418  000000000000 0000000000000.67     00050 02200                  
01990120479350001P1675906759000000021548008888000000101                                                          000000000000          8000            471534935                                                                                                                                                                                                                                                                                                                                                                                                                                                                                                                                                            
01990130479350021BH6759067590000000288180088880000090170221202305223000000000044285    0000090001500015N8008886759C02222023                                                                                                                                                                                                                                                                                                                                                                                                                                                                                                                                                                                                 
01990140479350022DT67590675900000002881800888800000010180088824001193052900015000011022120230000000987805223000000000044285480639XXXXXX6940       VS11    0001111   NYV1 A E383052555424161N840000000009878WM4300    05DNHAPPY HIPPIE             320544    VD84000000009878 N  549976487134                            000000000+                F DF 00381                     000000000  N000000000       0000000000000.00 0000000.00   0000000.00                             000000000000000                                                                                                                                                     01418 A000000000000 0000000000000.94     00800 01500                  
01990150479350023DT67590675900000002881800888800000010180088824001193052900015000029022120230000000548605223000000000044285423223XXXXXX6726       VS11    0001111   NYV1 A E383052563512017N840000000005486L82400    05DNHAPPY HIPPIE             065658    VD84000000005486 N  549976487134                            000000000+                F DF 00381                     000000000  N000000000       0000000000000.00 0000000.00   0000000.00                             000000000000000                                                                                                                                                     01418 A000000000000 0000000000000.59     00800 01500                  
01990160479350024DT67590675900000002881800888800000010180088877287283052900015000039022120230000000262405223000000000044285518941XXXXXX4253       MS02WI09          NY 1 0 AMWEC8L4XH0221  N840000000002624          05DNHAPPY HIPPIE             35883Z    MC84000000002624 N  549976487134                            000000000+M10101C5434C    MWE  00743                     000000000  N                0000000000000.00 0000000.00   0000000.00                             000000000000000                                                                                                                                                   B101418  000000000000 0000000000000.64     02300 00400                  
01990170479350025DT67590675900000002881800888800000010180088877287283052900015000047022120230000000355405223000000000044285521333XXXXXX1895       MS02WI09          NY 1 0 AMWEHRXEK80221  N840000000003554          05DNHAPPY HIPPIE             02174P    MC84000000003554 N  549976487134                            000000000+M10101C5434C    MWE  00743                     000000000  N                0000000000000.00 0000000.00   0000000.00                             000000000000000                                                                                                                                                   B101418  000000000000 0000000000000.86     02300 00400                  
01990180479350026DT67590675900000002881800888800000010180088824001193052900015000052022120230000000444405223000000000044285419090XXXXXX4359       VS11    0001111   NYV1 A E463052609715879N840000000004444DJLH00    05DNHAPPY HIPPIE             764638    VD84000000004444 N  549976487134                            000000000+                F DF 00381                     000000000  N000000000       0000000000000.00 0000000.00   0000000.00                             000000000000000                                                                                                                                                     01418 A000000000000 0000000000000.51     00800 01500                  
01990190479350027DT67590675900000002881800888800000010180088877287283052900015000062022120230000000158005223000000000044285517805XXXXXX9154       MS02WI09          NY 1 0 AMPLFBRZXH0221  N840000000001580          05DNHAPPY HIPPIE             01286B    MC84000000001580 N  549976487134                            000000000+M10101C5434C    MPL  00364                     000000000  N                0000000000000.00 0000000.00   0000000.00                             000000000000000                                                                                                                                                   B101418  000000000000 0000000000000.32     01800 00400                  
01990200479350028DT67590675900000002881800888800000010180088824001193052900015000078022120230000000325805223000000000044285480639XXXXXX5057       VS11    0001111   NYV1 A E383052638615696N840000000003258FGZ800    05DNHAPPY HIPPIE             324490    VD84000000003258 N  549976487134                            000000000+                F DF 00381                     000000000  N000000000       0000000000000.00 0000000.00   0000000.00                             000000000000000                                                                                                                                                     01418 A000000000000 0000000000000.41     00800 01500                  
01990210479350029DT67590675900000002881800888800000010180088824001193052900015000086022120230000000033105223000000000044285445101XXXXXX8489       VK04VS111111111   NYV1 A E583052647746375N840000000000331FVM700    05DNHAPPY HIPPIE             286603    VD84000000000331 N  549976487134                            000000000+                F DF 10439                     000000000  Y000000000 331   0000000000000.00 0000000.00   0000000.00                             000000000000000                                                                                                                                                     01418 F000000000000 0000000000000.22     00050 02200                  
01990220479350030DT67590675900000002881800888800000010180088824001193052900015000094022120230000000197405223000000000044285440393XXXXXX1688       VS11    0001111   NYV1 A E383052670556112N8400000000019745RTD00    05DNHAPPY HIPPIE             393645    VD84000000001974 N  549976487134                            000000000+                F PF 08170                     000000000  N000000000       0000000000000.00 0000000.00   0000000.00                             000000000000000                                                                                                                                                     01418 A000000000000 0000000000000.38     01150 01500                  
01990230479350031DT67590675900000002881800888800000010180088824001193052900015000102022120230000000438905223000000000044285458453XXXXXX8106       VS11    0001111   NYV1 A E583052742630595N840000000004389D84800    05DNHAPPY HIPPIE             133743    VD84000000004389 N  549976487134                            000000000+                F DF 10433                     000000000  Y000000000 338   0000000000000.00 0000000.00   0000000.00                             000000000000000                                                                                                                                                     01418 A000000000000 0000000000000.24     00050 02200                  
01990240479350032DT67590675900000002881800888800000010180088877287283052900015000112022120230000000186505223000000000044285515676XXXXXX6475       MS02WI09          NY 1 0 AMWEMBOLZT0221  N840000000001865          05DNHAPPY HIPPIE             02923Z    MC84000000001865 N  549976487134                            000000000+M10101C5434C    MWE  00743                     000000000  N                0000000000000.00 0000000.00   0000000.00                             000000000000000                                                                                                                                                   B101418  000000000000 0000000000000.47     02300 00400                  
01990250479350033DT67590675900000002881800888800000010180088824001193052900015000128022120230000000164605223000000000044285480639XXXXXX0734       VS11    0001111   NYV1 A E463052802873912N840000000001646V3WS00    05DNHAPPY HIPPIE             332207    VD84000000001646 N  549976487134                            000000000+                F DF 00381                     000000000  N000000000       0000000000000.00 0000000.00   0000000.00                             000000000000000                                                                                                                                                     01418 A000000000000 0000000000000.28     00800 01500                  
01990260479350034DT67590675900000002881800888800000010180088824001193052900015000136022120230000000108505223000000000044285480639XXXXXX0734       VK04VS111111111   NYV1 A E463052803845723N8400000000010857QVX00    05DNHAPPY HIPPIE             332239    VD84000000001085 N  549976487134                            000000000+                F DF 00451                     000000000  N000000000 214   0000000000000.00 0000000.00   0000000.00                             000000000000000                                                                                                                                                     01418 F000000000000 0000000000000.21     01550 00400                  
01990270479350035DT67590675900000002881800888800000010180088824001193052900015000144022120230000000177705223000000000044285440393XXXXXX3866       VS11    0001111   NYV1 A E463052807029269N840000000001777D3BW00    05DNHAPPY HIPPIE             974669    VD84000000001777 N  549976487134                            000000000+                F PF 08170                     000000000  N000000000       0000000000000.00 0000000.00   0000000.00                             000000000000000                                                                                                                                                     01418 A000000000000 0000000000000.35     01150 01500                  
01990280479350036DT67590675900000002881800888800000010180088824001193052900015000151022120230000000039405223000000000044285440393XXXXXX3866       VK04VS111111111   NYV1 A E583052808392250N840000000000394LHXF00    05DNHAPPY HIPPIE             097592    VD84000000000394 N  549976487134                            000000000+                F PF 08165                     000000000  N000000000       0000000000000.00 0000000.00   0000000.00                             000000000000000                                                                                                                                                     01418 F000000000000 0000000000000.11     01600 00500                  
01990290479350037BH6759067590000000288180088880000090170221202305223000000000043439    0000090001510011N8008886759C02222023                                                                                                                                                                                                                                                                                                                                                                                                                                                                                                                                                                                                 
01990300479350038DT67590675900000002881800888800000010180088877287283052900015100011022120230000000862005223000000000043439542432XXXXXX6544       MS02WI09          NY 1 0 AMDJBA0WK80221  N840000000008620          05DNHAPPY HIPPIE             183243    MD84000000008620 N  549976487158                            000000000+M10101C5434C    MDJ  10815                     000000000  1                0000000000000.00 0000000.00   0000000.00                             000000000000000                                                                                                                                                   B101418  000000000000 0000000000000.26     00050 02200                  
01990310479350039DT67590675900000002881800888800000010180088877287283052900015100029022120230000000119905223000000000043439517805XXXXXX2716       ME03MS02WI09      NY 1 0 AMWEBVODTZ0221  N840000000001199          01DNHAPPY HIPPIE             04780P    MC84000000001199 N  549976487158                            000000000+M1010115434C    MWE  00738                     000000000  N                0000000000000.00 0000000.00   0000000.00                             000000000000000                                                                                                                                                   E101418  000000000000 0000000000000.41     02600 01000                  
01990320479350040DT67590675900000002881800888800000010180088877287283052900015100037022120230000000237105223000000000043439511953XXXXXX4908       MS02WI09          NY 1 0 AMDJCNVPK80221  N840000000002371          05DNHAPPY HIPPIE             043548    MD84000000002371 N  549976487158                            000000000+M10101C5434C    MDJ  00402                     000000000  N                0000000000000.00 0000000.00   0000000.00                             000000000000000                                                                                                                                                   B101418  000000000000 0000000000000.40     01050 01500                  
01990330479350041DT67590675900000002881800888800000010180088877287283052900015100045022120230000000296205223000000000043439517805XXXXXX3734       MS02WI09          NY 1 0 AMPLE3Q9XH0221  N840000000002962          05DNHAPPY HIPPIE             02033B    MC84000000002962 N  549976487158                            000000000+M10101C5434C    MPL  00364                     000000000  N                0000000000000.00 0000000.00   0000000.00                             000000000000000                                                                                                                                                   B101418  000000000000 0000000000000.57     01800 00400                  
01990340479350042DT67590675900000002881800888800000010180088877287283052900015100052022120230000000395005223000000000043439511953XXXXXX0011       MS02WI09          NY 1 0 AMDJVYNZXL0221  N840000000003950          05DNHAPPY HIPPIE             001360    MD84000000003950 N  549976487158                            000000000+M10101C5434C    MDJ  00402                     000000000  N                0000000000000.00 0000000.00   0000000.00                             000000000000000                                                                                                                                                   B101418  000000000000 0000000000000.56     01050 01500                  
01990350479350043DT67590675900000002881800888800000010180088877287283052900015100060022120230000000276405223000000000043439520943XXXXXX1724       MS02WI09          NY 1 0 AMCWMCN3ZW0221  N840000000002764          05DNHAPPY HIPPIE             00995Z    MC84000000002764 N  549976487158                            000000000+M10101C5434C    MCW  00646                     000000000  N                0000000000000.00 0000000.00   0000000.00                             000000000000000                                                                                                                                                   B101418  000000000000 0000000000000.57     01900 00400                  
01990360479350044DT67590675900000002881800888800000010180088824001193052900015100076022120230000000720805223000000000043439480639XXXXXX7211       PS01    0000000   NYV1 J N303052663993949N8400000000072084LTN00    01DNHAPPY HIPPIE             325664    VD84000000007208 N  549976487158                            000000000+                F DF 00425                     000000000  N000000010       0000000000000.00 0000000.00   0000000.00                             000000000000000                                                                                                                                                     01418  000000000000 0000000000001.46     01750 02000                  
01990370479350045DT67590675900000002881800888800000010180088877287283052900015100086022120230000000591305223000000000043439517805XXXXXX9973       MS02WI09          NY 1 0 AMPLVM1EM90221  N840000000005913          05DNHAPPY HIPPIE             01333B    MC84000000005913 N  549976487158                            000000000+M10101C5434C    MPL  00364                     000000000  N                0000000000000.00 0000000.00   0000000.00                             000000000000000                                                                                                                                                   B101418  000000000000 0000000000001.10     01800 00400                  
01990380479350046DT67590675900000002881800888800000010180088824001193052900015100092022120230000000300305223000000000043439419090XXXXXX3689       VS11    0001111   NYV1 A E383052678079628N840000000003003BKZX00    05DNHAPPY HIPPIE             768654    VD84000000003003 N  549976487158                            000000000+                F DF 00381                     000000000  N000000000       0000000000000.00 0000000.00   0000000.00                             000000000000000                                                                                                                                                     01418 A000000000000 0000000000000.39     00800 01500                  
01990390479350047DT67590675900000002881800888800000010180088824001193052900015100100022120230000000228805223000000000043439423223XXXXXX6921       VS11    0001111   NYV1 A E583052765966550N8400000000022889GFW00    05DNHAPPY HIPPIE             076445    VD84000000002288 N  549976487158                            000000000+                F DF 00381                     000000000  N000000000       0000000000000.00 0000000.00   0000000.00                             000000000000000                                                                                                                                                     01418 A000000000000 0000000000000.33     00800 01500                  
01990400479350048DT67590675900000002881800888800000010180088877287283052900015100110022120230000000316105223000000000043439511953XXXXXX9431       MS02WI09          NY 1 0 AMDJREFM2D0221  N840000000003161          05DNHAPPY HIPPIE             039266    MD84000000003161 N  549976487158                            000000000+M10101C5434C    MDJ  00402                     000000000  N                0000000000000.00 0000000.00   0000000.00                             000000000000000                                                                                                                                                   B101418  000000000000 0000000000000.48     01050 01500                  
01990410479350049BH6759067590000000096880088880000090170221202305223000000000007200    0000090001466658N8008886759C02222023                                                                                                                                                                                                                                                                                                                                                                                                                                                                                                                                                                                                 
01990420479350050DT67590675900000000968800888800000010180088824001193052900014666580022120230000000720005223000000000007200403929XXXXXX1371               2111111   NYV4 A7W303052091075076N8400000000072007DJQ00    01DNHIGHER FLOUR LLC         614732    VS84000000007200 NP1546271004114   RKZ7VWEVRHILMN5ZJYJG     000000000+                A CA 12106                     000000000  N000000000 492   0000000000000.00 0000000.00   0000000.00                             000000000000000                                                                                                                                                     01418 G000000007200 0000000000001.46     01890 01000                  
01990430479350001P16759067590000000096880088880000001010000000000000000                             2000000000000000000000000              000000000000                    0000000000000000000000000                    000000000000                                                                                                                                                                                                                                                                                                                                                                                                                                                                                        
01990440479350051BH6759067590000000561180088880000090170221202305223000000000012986    0000090001158309N8008886759C02222023                                                                                                                                                                                                                                                                                                                                                                                                                                                                                                                                                                                                 
01990450479350052DT67590675900000005611800888800000010180088824001193052900011582103022120230000000698805223000000000012986464018XXXXXX3687               2111111   NYV4 A7W463052642350565N840000000006988KTXH00    01DNK DIVINE 503-689-7182    01077D    VS84000000006988 NP1549971004114   5240                     000000000+                D CD 12109                     000000000  N000000000 498   0000000000000.00 0000000.00   0000000.00                             000000000000000                                                                                                                                                     01418 G000000006988 0000000000001.85     02500 01000                  
01990460479350001P16759067590000000561180088880000001010000000000000000                             2000000000000000000000000              000000000000                    0000000000000000000000000                    000000000000                                                                                                                                                                                                                                                                                                                                                                                                                                                                                        
01990470479350053DT67590675900000005611800888800000010180088887287283052900011583094022120230000000599805223000000000012986525363XXXXXX9832       ME03KE06MS02      NY 4607AMWEM3J6O20220  N840000000005998          81DNK DIVINE 503-689-7182    59805Z    MC84000000005998 N  549900000001   5239                     000000000+600450S00140    MWE  00737                     000000000  N                0000000000000.00 0000000.00   0000000.00                             000000000000000                                                                                                                                                   U001418  000000000000 0000000000001.66     02600 01000                  
01990480479350054BH6759067590000001107280010180000090170221202305223000000000013644    0000090001160004N8001016759C02222023                                                                                                                                                                                                                                                                                                                                                                                                                                                                                                                                                                                                 
01990490479350055DT67590675900000011072800101800000010180010124001193052900011600012022120230000000423505223000000000013644474166XXXXXX1229       VS11    0001111   NYV1 A E303052594655799N840000000004235DGF700    07DNPLANET VAPOR #900        021937    VD84000000004235 N  599976923588                            000000000+                G DG 10351                     000000000  Y000000000 338   0000000000000.00 0000000.00   0000000.00                             000000000000000                                                                                                                                                     01418 A000000000000 0000000000000.24     00050 02200                  
01990500479350056DT67590675900000011072800101800000010180010124001193052900011600012022120230000000438405223000000000013644432825XXXXXX1546       VS11    0001111   NYV1 A E583052749465810N840000000004384GCDD00    05DNPLANET VAPOR #900        641480    VD84000000004384 N  599976923588                            000000000+                F DF 00381                     000000000  N000000000       0000000000000.00 0000000.00   0000000.00                             000000000000000                                                                                                                                                     01418 A000000000000 0000000000000.50     00800 01500                  
01990510479350057DT67590675900000011072800101800000010180010124001193052900011600020022120230000000267405223000000000013644430602XXXXXX9659       VS11    0001111   NYV1 A E383052774024599N840000000002674R6SV00    07DNPLANET VAPOR #900        461073    VD84000000002674 N  599976923588                            000000000+                F DF 00381                     000000000  N000000000       0000000000000.00 0000000.00   0000000.00                             000000000000000                                                                                                                                                     01418 A000000000000 0000000000000.36     00800 01500                  
01990520479350058DT67590675900000011072800101800000010180010177287283052900011600030022120230000000171105223000000000013644534942XXXXXX4497       MS02WI09          NY 1 0 AMDHRV0E2D0221  N840000000001711          07DNPLANET VAPOR #900        035945    MD84000000001711 N  599976923588                            000000000+M10101M0034C    MDH  00402                     000000000  N                0000000000000.00 0000000.00   0000000.00                             000000000000000                                                                                                                                                   A101418  000000000000 0000000000000.33     01050 01500                  
01990530479350059DT67590675900000011072800101800000010180010177287283052900011600048022120230000000064005223000000000013644514230XXXXXX6300       MS02WI09          NY 1 0 AMDJEKDW4K0221  N840000000000640          07DNPLANET VAPOR #900        7055D9    MD84000000000640 N  599976923588                            000000000+M10101M0034C    MDJ  00402                     000000000  N                0000000000000.00 0000000.00   0000000.00                             000000000000000                                                                                                                                                   B101418  000000000000 0000000000000.22     01050 01500                  
01990540479350060BH6759067590000001129680010180000090170221202305223000000000029039    0000090001180011N8001016759C02222023                                                                                                                                                                                                                                                                                                                                                                                                                                                                                                                                                                                                 
01990550479350061DT67590675900000011296800101800000010180010177287283052900011800010022120230000000058305223000000000029039542432XXXXXX9862       MS02WI09          NY 1 0 AMDJP13CK40221  N840000000000583          05DNPLANET VAPOR #1000       320183    MD84000000000583 N  599976923732                            000000000+M10101C5434C    MDJ  10815                     000000000  1                0000000000000.00 0000000.00   0000000.00                             000000000000000                                                                                                                                                   B101418  000000000000 0000000000000.22     00050 02200                  
01990560479350062DT67590675900000011296800101800000010180010124001193052900011800026022120230000000431805223000000000029039446542XXXXXX0505       VS11    0001111   NYV1 A E303052642327963N8400000000043183C6W00    05DNPLANET VAPOR #1000       021547    VS84000000004318 N  599976923732                            000000000+                B CB 12111                     000000000  N000000000 495   0000000000000.00 0000000.00   0000000.00                             000000000000000                                                                                                                                                     01418 A000000000000 0000000000000.81     01650 01000                  
01990570479350063DT67590675900000011296800101800000010180010124001193052900011800034022120230000000240405223000000000029039448232XXXXXX8603       VS11    0001111   NYV1 A E303052672972954N8400000000024044LWX00    05DNPLANET VAPOR #1000       034131    VD84000000002404 N  599976923732                            000000000+                F DF 00381                     000000000  N000000000       0000000000000.00 0000000.00   0000000.00                             000000000000000                                                                                                                                                     01418 A000000000000 0000000000000.34     00800 01500                  
01990580479350064DT67590675900000011296800101800000010180010173011003052900011800048022120230000000242905223000000000029039372246XXXXX1004                          NY 1 0 N006603879775075N840000000002429          07DNPLANET VAPOR INC #900    860137    AM84000000002429 N  599976923732                            000000000+51010X50034C 258     11261                     000000000                   0000000000000.00 0000000.00   0000000.00                             000000000000000 61248972086759675900000011296 PLANET VAPOR INC #900    222 EDGEFIELD RD         8035462263      29841     KEVIN@MOOREDISTRO.COM                     01418  000000000000 0000000000000.49     01600 00000                  
01990590479350065DT67590675900000011296800101800000010180010177287283052900011800051022120230000000213705223000000000029039510805XXXXXX9243       MS02WI09          NY 2 0 AMDJJ6H2ZT0221  N840000000002137          05DNPLANET VAPOR #1000       034034    MD84000000002137 N  599976923732                            000000000+M10101C1334C    MDJ  10815                     000000000  1                0000000000000.00 0000000.00   0000000.00                             000000000000000                                                                                                                                                   B101418  000000000000 0000000000000.23     00050 02200                  
01990600479350066DT67590675900000011296800101800000010180010177287283052900011800069022120230000000777405223000000000029039542418XXXXXX4671       MS02WI09          NY 1 0 AMPLYHVDM90221  N840000000007774          07DNPLANET VAPOR #1000       04183B    MC84000000007774 N  599976923732                            000000000+M10101M5434C    MPL  00353                     000000000  N                0000000000000.00 0000000.00   0000000.00                             000000000000000                                                                                                                                                   B101418  000000000000 0000000000001.50     01800 01000                  
01990610479350067DT67590675900000011296800101800000010180010124001193052900011800075022120230000000242805223000000000029039448232XXXXXX9255       VS11    0001111   NYV1 A E383052753270027N840000000002428M6P400    05DNPLANET VAPOR #1000       055521    VD84000000002428 N  599976923732                            000000000+                F DF 00381                     000000000  N000000000       0000000000000.00 0000000.00   0000000.00                             000000000000000                                                                                                                                                     01418 A000000000000 0000000000000.34     00800 01500                  
01990620479350068DT67590675900000011296800101800000010180010124001193052900011800083022120230000000213705223000000000029039444607XXXXXX8369       VS11    0001111   NYV1 A E583052755439597N8400000000021373ZSQ00    05DNPLANET VAPOR #1000       TQ31KY    VD84000000002137 N  599976923732                            000000000+                G PG 10178                     000000000  N000000000 363   0000000000000.00 0000000.00   0000000.00                             000000000000000                                                                                                                                                     01418 A000000000000 0000000000000.56     02150 01000                  
01990630479350069DT67590675900000011296800101800000010180010124001193052900011800091022120230000000245405223000000000029039433477XXXXXX2574       VS11    0001111   NYV1 A E383052758109436N840000000002454VLHT00    05DNPLANET VAPOR #1000       720462    VD84000000002454 N  599976923732                            000000000+                F DF 10433                     000000000  Y000000000 338   0000000000000.00 0000000.00   0000000.00                             000000000000000                                                                                                                                                     01418 A000000000000 0000000000000.23     00050 02200                  
01990640479350070DT67590675900000011296800101800000010180010124001193052900011800109022120230000000048605223000000000029039498503XXXXXX2294       VK04VS111111111   NYV1 A E303052824419494N840000000000486LZ7900    05DNPLANET VAPOR #1000       035593    VD84000000000486 N  599976923732                            000000000+                F DF 00451                     000000000  N000000000 214   0000000000000.00 0000000.00   0000000.00                             000000000000000                                                                                                                                                     01418 F000000000000 0000000000000.12     01550 00400                  
01990650479350071DT67590675900000011296800101800000010180010124001193052900011800117022120230000000188905223000000000029039448232XXXXXX4856       VS11    0001111   NYV1 A E463052833777207N840000000001889N2BP00    05DNPLANET VAPOR #1000       080930    VD84000000001889 N  599976923732                            000000000+                F DF 00381                     000000000  N000000000       0000000000000.00 0000000.00   0000000.00                             000000000000000                                                                                                                                                     01418 A000000000000 0000000000000.30     00800 01500                  
01990660479350072BH6759067590000000708880010180000090170221202305223000000000086762    0000090001130024N8001016759C02222023                                                                                                                                                                                                                                                                                                                                                                                                                                                                                                                                                                                                 
01990670479350073DT67590675900000007088800101800000010180010124001193052900011300019022120230000001127305223000000000086762400022XXXXXX8780       VS11    0001111   NYV1 A E383052550608687N840000000011273HCWW00    05DNPLANET VAPOR #200        755697    VD84000000011273 N  599976770268                            000000000+                F DF 10433                     000000000  Y000000000 338   0000000000000.00 0000000.00   0000000.00                             000000000000000                                                                                                                                                     01418 A000000000000 0000000000000.28     00050 02200                  
01990680479350074DT67590675900000007088800101800000010180010124001193052900011300027022120230000000213705223000000000086762426684XXXXXX8131       VS11    0001111   NYV1 A E583052551575584N840000000002137K22200    05DNPLANET VAPOR #200        07528C    VS84000000002137 N  599976770268                            000000000+                C CC 12112                     000000000  N000000000 497   0000000000000.00 0000000.00   0000000.00                             000000000000000                                                                                                                                                     01418 A000000000000 0000000000000.45     01650 01000                  
01990690479350075DT67590675900000007088800101800000010180010124001193052900011300035022120230000000269905223000000000086762443047XXXXXX5058       VS11    0001111   NYV1 A E583052552275879N840000000002699M8K400    05DNPLANET VAPOR #200        284034    VD84000000002699 N  599976770268                            000000000+                F DF 10433                     000000000  Y000000000 338   0000000000000.00 0000000.00   0000000.00                             000000000000000                                                                                                                                                     01418 A000000000000 0000000000000.23     00050 02200                  
01990700479350076DT67590675900000007088800101800000010180010124001193052900011300043022120230000000269905223000000000086762479285XXXXXX2080       VS11    0001111   NYV1 A E463052553049713N840000000002699CWKZ00    05DNPLANET VAPOR #200        111350    VD84000000002699 N  599976770268                            000000000+                F DF 00381                     000000000  N000000000       0000000000000.00 0000000.00   0000000.00                             000000000000000                                                                                                                                                     01418 A000000000000 0000000000000.37     00800 01500                  
01990710479350077DT67590675900000007088800101800000010180010124001193052900011300050022120230000001252605223000000000086762440393XXXXXX7324               1001111   NYV1 A K303052585228449N840000000012526M7MX00    01DNPLANET VAPOR #200        106884    VD84000000012526 N  599976770268                            000000000+                F PF 08171                     000000000  N000000000       0000000000000.00 0000000.00   0000000.00                             000000000000000                                                                                                                                                     01418 E000000000000 0000000000002.39     01750 02000                  
01990720479350078DT67590675900000007088800101800000010180010124001193052900011300068022120230000000184605223000000000086762474474XXXXXX8992       VS11    0001111   NYV1 A E383052590984965N8400000000018464N6S00    05DNPLANET VAPOR #200        102848    VD84000000001846 N  599976770268                            000000000+                F DF 10433                     000000000  Y000000000 338   0000000000000.00 0000000.00   0000000.00                             000000000000000                                                                                                                                                     01418 A000000000000 0000000000000.23     00050 02200                  
01990730479350079DT67590675900000007088800101800000010180010177287283052900011300078022120230000000690905223000000000086762529099XXXXXX1788       MS02WI09          NY 1 0 AMDJIRG1K80221  N840000000006909          05DNPLANET VAPOR #200        156936    MD84000000006909 N  599976770268                            000000000+M10101C5434C    MDJ  10815                     000000000  1                0000000000000.00 0000000.00   0000000.00                             000000000000000                                                                                                                                                   B101418  000000000000 0000000000000.25     00050 02200                  
01990740479350080DT67590675900000007088800101800000010180010124001193052900011300084022120230000000323805223000000000086762406049XXXXXX8784       VS11    0001111   NYV1 A E583052623905155N840000000003238HLRC00    05DNPLANET VAPOR #200        011951    VD84000000003238 N  599976770268                            000000000+                F DF 10433                     000000000  Y000000000 338   0000000000000.00 0000000.00   0000000.00                             000000000000000                                                                                                                                                     01418 A000000000000 0000000000000.24     00050 02200                  
01990750479350081DT67590675900000007088800101800000010180010177287283052900011300094022120230000000180705223000000000086762531258XXXXXX5660       MS02WI09          NY 1 0 AMDJY36O0C0221  N840000000001807          05DNPLANET VAPOR #200        103997    MD84000000001807 N  599976770268                            000000000+M10101C5434C    MDJ  10815                     000000000  1                0000000000000.00 0000000.00   0000000.00                             000000000000000                                                                                                                                                   B101418  000000000000 0000000000000.23     00050 02200                  
01990760479350082DT67590675900000007088800101800000010180010124001193052900011300100022120230000000242905223000000000086762474474XXXXXX0612       VS11    0001111   NYV1 A E583052719540596N840000000002429RNF900    05DNPLANET VAPOR #200        105990    VD84000000002429 N  599976770268                            000000000+                F DF 10433                     000000000  Y000000000 338   0000000000000.00 0000000.00   0000000.00                             000000000000000                                                                                                                                                     01418 A000000000000 0000000000000.23     00050 02200                  
01990770479350083DT67590675900000007088800101800000010180010124001193052900011300118022120230000001117405223000000000086762430602XXXXXX0547       VS11    0001111   NYV1 A E303052729661976N84000000001117468HK00    05DNPLANET VAPOR #200        450559    VD84000000011174 N  599976770268                            000000000+                F DF 00381                     000000000  N000000000       0000000000000.00 0000000.00   0000000.00                             000000000000000                                                                                                                                                     01418 A000000000000 0000000000001.04     00800 01500                  
01990780479350084DT67590675900000007088800101800000010180010124001193052900011300126022120230000000252605223000000000086762473702XXXXXX3847       VS11    0001111   NYV1 A E383052732945965N84000000000252648SC00    05DNPLANET VAPOR #200        025313    VD84000000002526 N  599976770268                            000000000+                F DF 10433                     000000000  Y000000000 338   0000000000000.00 0000000.00   0000000.00                             000000000000000                                                                                                                                                     01418 A000000000000 0000000000000.23     00050 02200                  
01990790479350085DT67590675900000007088800101800000010180010124001193052900011300134022120230000000188905223000000000086762473703XXXXXX1968       VS11    0001111   NYV1 A E583052736414077N840000000001889338G00    05DNPLANET VAPOR #200        001663    VD84000000001889 N  599976770268                            000000000+                F DF 10433                     000000000  Y000000000 338   0000000000000.00 0000000.00   0000000.00                             000000000000000                                                                                                                                                     01418 A000000000000 0000000000000.23     00050 02200                  
01990800479350086DT67590675900000007088800101800000010180010124001193052900011300142022120230000000323905223000000000086762400022XXXXXX7059       VS11    0001111   NYV1 A E303052737657336N840000000003239C8RX00    05DNPLANET VAPOR #200        425079    VD84000000003239 N  599976770268                            000000000+                F DF 10433                     000000000  Y000000000 338   0000000000000.00 0000000.00   0000000.00                             000000000000000                                                                                                                                                     01418 A000000000000 0000000000000.24     00050 02200                  
01990810479350087DT67590675900000007088800101800000010180010124001193052900011300159022120230000000427505223000000000086762423223XXXXXX1945       VS11    0001111   NYV1 A E383052766776476N84000000000427532J600    05DNPLANET VAPOR #200        037881    VD84000000004275 N  599976770268                            000000000+                F DF 00381                     000000000  N000000000       0000000000000.00 0000000.00   0000000.00                             000000000000000                                                                                                                                                     01418 A000000000000 0000000000000.49     00800 01500                  
01990820479350088DT67590675900000007088800101800000010180010124001193052900011300167022120230000000269905223000000000086762448233XXXXXX2896       VS11    0001111   NYV1 A E583052772575033N8400000000026994RCP00    05DNPLANET VAPOR #200        052738    VD84000000002699 N  599976770268                            000000000+                F DF 10433                     000000000  Y000000000 338   0000000000000.00 0000000.00   0000000.00                             000000000000000                                                                                                                                                     01418 A000000000000 0000000000000.23     00050 02200                  
01990830479350089DT67590675900000007088800101800000010180010177287283052900011300177022120230000000237505223000000000086762546199XXXXXX7086       MS02WI09          NY 1 0 AMDSREN02D0221  N840000000002375          05DNPLANET VAPOR #200        840376    MD84000000002375 N  599976770268                            000000000+M10101C5434C    MDS  00402                     000000000  N                0000000000000.00 0000000.00   0000000.00                             000000000000000                                                                                                                                                   B101418  000000000000 0000000000000.40     01050 01500                  
01990840479350090DT67590675900000007088800101800000010180010177287283052900011300185022120230000000134905223000000000086762539113XXXXXX3601       MS02WI09          NY 1 0 AMDJR7JD2D0221  N840000000001349          07DNPLANET VAPOR #200        102909    MD84000000001349 N  599976770268                            000000000+M10101M0034C    MDJ  10815                     000000000  1                0000000000000.00 0000000.00   0000000.00                             000000000000000                                                                                                                                                   A101418  000000000000 0000000000000.23     00050 02200                  
01990850479350091DT67590675900000007088800101800000010180010177287283052900011300193022120230000000134905223000000000086762539113XXXXXX3601       MS02WI09          NY 1 0 AMDJZLZRZW0221  N840000000001349          07DNPLANET VAPOR #200        102909    MD84000000001349 N  599976770268                            000000000+M10101M0034C    MDJ  10815                     000000000  1                0000000000000.00 0000000.00   0000000.00                             000000000000000                                                                                                                                                   A101418  000000000000 0000000000000.23     00050 02200                  
01990860479350092DT67590675900000007088800101800000010180010124001193052900011300209022120230000000215905223000000000086762473703XXXXXX5066       VS11    0001111   NYV1 A E583052810213878N8400000000021596PHQ00    05DNPLANET VAPOR #200        015884    VD84000000002159 N  599976770268                            000000000+                F DF 10433                     000000000  Y000000000 338   0000000000000.00 0000000.00   0000000.00                             000000000000000                                                                                                                                                     01418 A000000000000 0000000000000.23     00050 02200                  
01990870479350093DT67590675900000007088800101800000010180010177287283052900011300219022120230000000269905223000000000086762539113XXXXXX3601       MS02WI09          NY 1 0 AMDJVZAN4S0221  N840000000002699          07DNPLANET VAPOR #200        101989    MD84000000002699 N  599976770268                            000000000+M10101M0034C    MDJ  10815                     000000000  1                0000000000000.00 0000000.00   0000000.00                             000000000000000                                                                                                                                                   A101418  000000000000 0000000000000.23     00050 02200                  
01990880479350094DT67590675900000007088800101800000010180010124001193052900011300225022120230000000237505223000000000086762438419XXXXXX9197       VS11    0001111   NYV1 A E463052850421837N840000000002375HZPX00    05DNPLANET VAPOR #200        083723    VD84000000002375 N  599976770268                            000000000+                F DF 00381                     000000000  N000000000       0000000000000.00 0000000.00   0000000.00                             000000000000000                                                                                                                                                     01418 A000000000000 0000000000000.34     00800 01500                  
01990890479350095DT67590675900000007088800101800000010180010124001193052900011300233022120230000000033605223000000000086762430602XXXXXX0018       VK04VS111111111   NYV1 A E303053035093970N840000000000336DPXF00    05DNPLANET VAPOR #200        490654    VD84000000000336 N  599976770268                            000000000+                F DF 00451                     000000000  N000000000 214   0000000000000.00 0000000.00   0000000.00                             000000000000000                                                                                                                                                     01418 F000000000000 0000000000000.09     01550 00400                  
01990900479350096DT67590675900000007088800101800000010180010177287283052900011300243022120230000000075505223000000000086762547519XXXXXX4806       MS02WI09          NY 1 0 AMDSX7GU4S0221  N840000000000755          90DNPLANET VAPOR #200        000106    MD84000000000755 N  599976770268                            000000000+M10101B5434C    MDS  00402                     000000000  N                0000000000000.00 0000000.00   0000000.00                             000000000000000                                                                                                                                                   C101418  000000000000 0000000000000.23     01050 01500                  
01990910479350097BH6759067590000001090080010180000090170221202305223000000000119383    0000090001110025N8001016759C02222023                                                                                                                                                                                                                                                                                                                                                                                                                                                                                                                                                                                                 
01990920479350098DT67590675900000010900800101800000010180010124001193052900011100013022120230000000539805223000000000119383434257XXXXXX8389       VS11    0001111   NYV1 A E383052561977873N840000000005398MVBN00    07DNPLANET VAPOR #700        056160    VD84000000005398 N  599976923375                            000000000+                F DF 10433                     000000000  Y000000000 338   0000000000000.00 0000000.00   0000000.00                             000000000000000                                                                                                                                                     01418 A000000000000 0000000000000.25     00050 02200                  
01990930479350099DT67590675900000010900800101800000010180010173011003052900011100027022120230000000145705223000000000119383372244XXXXX1000                          NY 1 0 N006601112289078N840000000001457          05DNPLANET VAPOR INC #700    893431    AM84000000001457 N  599976923375                            000000000+51010155434C 258     11261                     000000000                   0000000000000.00 0000000.00   0000000.00                             000000000000000 61248972086759675900000010900 PLANET VAPOR INC #700    718 HWY 1 SOUTH UNIT B   8035462263      29078     KEVIN@MOOREDISTRO.COM                     01418  000000000000 0000000000000.33     01600 00000                  
01990940479350100DT67590675900000010900800101800000010180010124001193052900011100039022120230000000269905223000000000119383413037XXXXXX9341       VS11    0001111   NYV1 A E383052598169773N8400000000026999WFR00    07DNPLANET VAPOR #700        058270    VD84000000002699 N  599976923375                            000000000+                F DF 10433                     000000000  Y000000000 338   0000000000000.00 0000000.00   0000000.00                             000000000000000                                                                                                                                                     01418 A000000000000 0000000000000.23     00050 02200                  
01990950479350101DT67590675900000010900800101800000010180010177287283052900011100049022120230000000421005223000000000119383523957XXXXXX0718       MS02WI09          NY 1 0 AMDJEGCFK80221  N840000000004210          05DNPLANET VAPOR #700        408140    MD84000000004210 N  599976923375                            000000000+M10101C5434C    MDJ  00402                     000000000  N                0000000000000.00 0000000.00   0000000.00                             000000000000000                                                                                                                                                   B101418  000000000000 0000000000000.59     01050 01500                  
01990960479350102DT67590675900000010900800101800000010180010124001193052900011100054022120230000000475005223000000000119383448233XXXXXX0902       VS11    0001111   NYV1 A E303052636479948N8400000000047508ZL400    07DNPLANET VAPOR #700        014047    VD84000000004750 N  599976923375                            000000000+                F DF 10433                     000000000  Y000000000 338   0000000000000.00 0000000.00   0000000.00                             000000000000000                                                                                                                                                     01418 A000000000000 0000000000000.24     00050 02200                  
01990970479350103DT67590675900000010900800101800000010180010177287283052900011100064022120230000000388605223000000000119383523957XXXXXX0718       MS02WI09          NY 1 0 AMDJJMDFK80221  N840000000003886          05DNPLANET VAPOR #700        422900    MD84000000003886 N  599976923375                            000000000+M10101C5434C    MDJ  00402                     000000000  N                0000000000000.00 0000000.00   0000000.00                             000000000000000                                                                                                                                                   B101418  000000000000 0000000000000.56     01050 01500                  
01990980479350104DT67590675900000010900800101800000010180010124001193052900011100070022120230000000280705223000000000119383438419XXXXXX7968       VS11    0001111   NYV1 A E383052667307988N840000000002807CB4S00    05DNPLANET VAPOR #700        033210    VD84000000002807 N  599976923375                            000000000+                F DF 00381                     000000000  N000000000       0000000000000.00 0000000.00   0000000.00                             000000000000000                                                                                                                                                     01418 A000000000000 0000000000000.37     00800 01500                  
01990990479350105DT67590675900000010900800101800000010180010124001193052900011100088022120230000000505205223000000000119383453506XXXXXX0391       VS11    0001111   NYV1 A E383052689281820N840000000005052S6KD00    07DNPLANET VAPOR #700        H35959    VD84000000005052 N  599976923375                            000000000+                F DF 10433                     000000000  Y000000000 338   0000000000000.00 0000000.00   0000000.00                             000000000000000                                                                                                                                                     01418 A000000000000 0000000000000.25     00050 02200                  
01991000479350106DT67590675900000010900800101800000010180010124001193052900011100096022120230000000982405223000000000119383487917XXXXXX4724       VS11    0001111   NYV1 A E383052694560468N840000000009824JDF700    05DNPLANET VAPOR #700        021457    VD84000000009824 N  599976923375                            000000000+                F DF 00381                     000000000  N000000000       0000000000000.00 0000000.00   0000000.00                             000000000000000                                                                                                                                                     01418 A000000000000 0000000000000.94     00800 01500                  
01991010479350107DT67590675900000010900800101800000010180010124001193052900011100104022120230000000237505223000000000119383402944XXXXXX8379       VS11    0001111   NYV1 A E463052718176897N840000000002375K99B00    07DNPLANET VAPOR #700        035658    VD84000000002375 N  599976923375                            000000000+                F DF 10433                     000000000  Y000000000 338   0000000000000.00 0000000.00   0000000.00                             000000000000000                                                                                                                                                     01418 A000000000000 0000000000000.23     00050 02200                  
01991020479350108DT67590675900000010900800101800000010180010124001193052900011100112022120230000000518205223000000000119383492125XXXXXX3302       VS11    0001111   NYV1 A E583052740332017N840000000005182DMR500    07DNPLANET VAPOR #700        021289    VD84000000005182 N  599976923375                            000000000+                F DF 10433                     000000000  Y000000000 338   0000000000000.00 0000000.00   0000000.00                             000000000000000                                                                                                                                                     01418 A000000000000 0000000000000.25     00050 02200                  
01991030479350109DT67590675900000010900800101800000010180010124001193052900011100120022120230000000237505223000000000119383430602XXXXXX4727       VS11    0001111   NYV1 A E583052753716156N840000000002375ZSKP00    07DNPLANET VAPOR #700        456078    VD84000000002375 N  599976923375                            000000000+                F DF 00381                     000000000  N000000000       0000000000000.00 0000000.00   0000000.00                             000000000000000                                                                                                                                                     01418 A000000000000 0000000000000.34     00800 01500                  
01991040479350110DT67590675900000010900800101800000010180010177287283052900011100130022120230000000650805223000000000119383531258XXXXXX4899       MS02WI09          NY 1 0 AMDJC00L0D0221  N840000000006508          07DNPLANET VAPOR #700        111166    MD84000000006508 N  599976923375                            000000000+M10101M5434C    MDJ  10815                     000000000  1                0000000000000.00 0000000.00   0000000.00                             000000000000000                                                                                                                                                   B101418  000000000000 0000000000000.25     00050 02200                  
01991050479350111DT67590675900000010900800101800000010180010124001193052900011100146022120230000000377805223000000000119383474488XXXXXX3017       VS11    0001111   NYV1 A E303052777502676N840000000003778W6HZ00    07DNPLANET VAPOR #700        103956    VD84000000003778 N  599976923375                            000000000+                F DF 10433                     000000000  Y000000000 338   0000000000000.00 0000000.00   0000000.00                             000000000000000                                                                                                                                                     01418 A000000000000 0000000000000.24     00050 02200                  
01991060479350112DT67590675900000010900800101800000010180010124001193052900011100153022120230000000431805223000000000119383438854XXXXXX7840       VS11    0001111   NYV1 A E383052792387102N8400000000043186CJN00    07DNPLANET VAPOR #700        01158D    VS84000000004318 N  599976923375                            000000000+                D CD 12113                     000000000  N000000000 499   0000000000000.00 0000000.00   0000000.00                             000000000000000                                                                                                                                                     01418 A000000000000 0000000000001.01     02100 01000                  
01991070479350113DT67590675900000010900800101800000010180010177287283052900011100163022120230000000248305223000000000119383514377XXXXXX9430       MS02WI09          NY 1 0 AMDJA32M0A0221  N840000000002483          05DNPLANET VAPOR #700        18E2FB    MD84000000002483 N  599976923375                            000000000+M10101C5434C    MDJ  00402                     000000000  N                0000000000000.00 0000000.00   0000000.00                             000000000000000                                                                                                                                                   B101418  000000000000 0000000000000.41     01050 01500                  
01991080479350114DT67590675900000010900800101800000010180010124001193052900011100179022120230000001560005223000000000119383448233XXXXXX4927       VS11    0001111   NYV1 A E463052837935508N840000000015600VT2200    05DNPLANET VAPOR #700        071633    VD84000000015600 N  599976923375                            000000000+                F DF 10433                     000000000  Y000000000 338   0000000000000.00 0000000.00   0000000.00                             000000000000000                                                                                                                                                     01418 A000000000000 0000000000000.30     00050 02200                  
01991090479350115DT67590675900000010900800101800000010180010124001193052900011100187022120230000000701905223000000000119383466189XXXXXX2235       VS11    0001111   NYV1 A E383052840431408N840000000007019MWND00    05DNPLANET VAPOR #700        086608    VD84000000007019 N  599976923375                            000000000+                F DF 10433                     000000000  Y000000000 338   0000000000000.00 0000000.00   0000000.00                             000000000000000                                                                                                                                                     01418 A000000000000 0000000000000.26     00050 02200                  
01991100479350116DT67590675900000010900800101800000010180010124001193052900011100195022120230000000431905223000000000119383415158XXXXXX3718       VS11    0001111   NYV1 A E583052848543859N840000000004319LDW600    90DNPLANET VAPOR #700        000053    VD84000000004319 N  599976923375                            000000000+                F DF 00381                     000000000  N000000000       0000000000000.00 0000000.00   0000000.00                             000000000000000                                                                                                                                                     01418 A000000000000 0000000000000.50     00800 01500                  
01991110479350117DT67590675900000010900800101800000010180010124001193052900011100203022120230000000194305223000000000119383453506XXXXXX1413       VS11    0001111   NYV1 A E383052854024184N840000000001943WVW400    07DNPLANET VAPOR #700        H76317    VD84000000001943 N  599976923375                            000000000+                F DF 10433                     000000000  Y000000000 338   0000000000000.00 0000000.00   0000000.00                             000000000000000                                                                                                                                                     01418 A000000000000 0000000000000.23     00050 02200                  
01991120479350118DT67590675900000010900800101800000010180010124001193052900011100211022120230000000269905223000000000119383488893XXXXXX0568       VS11    0001111   NYV1 A E583052856860902N840000000002699WX2N00    07DNPLANET VAPOR #700        02400C    VS84000000002699 N  599976923375                            000000000+                C CC 12112                     000000000  N000000000 497   0000000000000.00 0000000.00   0000000.00                             000000000000000                                                                                                                                                     01418 A000000000000 0000000000000.55     01650 01000                  
01991130479350119DT67590675900000010900800101800000010180010177287283052900011100221022120230000000183505223000000000119383533248XXXXXX8557       MS02WI09          NY 1 0 AMPVX3L45E0221  N840000000001835          05DNPLANET VAPOR #700        JV75AJ    MD84000000001835 N  599976923375                            000000000+M10101C5434C    MPV  11964                     000000000  N                0000000000000.00 0000000.00   0000000.00                             000000000000000                                                                                                                                                   B101418  000000000000 0000000000000.36     01150 01500                  
01991140479350120DT67590675900000010900800101800000010180010177287283052900011100239022120230000000593805223000000000119383523957XXXXXX5605       MS02WI09          NY 1 0 AMDJFUEW4K0221  N840000000005938          05DNPLANET VAPOR #700        307320    MD84000000005938 N  599976923375                            000000000+M10101C5434C    MDJ  00402                     000000000  N                0000000000000.00 0000000.00   0000000.00                             000000000000000                                                                                                                                                   B101418  000000000000 0000000000000.77     01050 01500                  
01991150479350121DT67590675900000010900800101800000010180010124001193052900011100245022120230000001022905223000000000119383463405XXXXXX7157       VS11    0001111   NYV1 A E463053012781242N840000000010229WT6500    05DNPLANET VAPOR #700        069299    VD84000000010229 N  599976923375                            000000000+                F DF 10433                     000000000  Y000000000 338   0000000000000.00 0000000.00   0000000.00                             000000000000000                                                                                                                                                     01418 A000000000000 0000000000000.27     00050 02200                  
01991160479350122DT67590675900000010900800101800000010180010124001193052900011100252022120230000000269905223000000000119383414709XXXXXX1434       VS11    0001111   NYV1 A E383053014826808N840000000002699GWKR00    07DNPLANET VAPOR #700        03281D    VS84000000002699 N  599976923375                            000000000+                D CD 12113                     000000000  N000000000 499   0000000000000.00 0000000.00   0000000.00                             000000000000000                                                                                                                                                     01418 A000000000000 0000000000000.67     02100 01000                  
01991170479350123BH6759067590000001094280010180000090170221202305223000000000030464    0000090001130010N8001016759C02222023                                                                                                                                                                                                                                                                                                                                                                                                                                                                                                                                                                                                 
01991180479350124DT67590675900000010942800101800000010180010177287283052900011300011022120230000000325205223000000000030464553781XXXXXX4416       MS02WI09          NY 1 0 AMDSA7NBK80221  N840000000003252          05DNPLANET VAPOR #800        591113    MD84000000003252 N  599976923545                            000000000+M10101C5434C    MDS  00402                     000000000  N                0000000000000.00 0000000.00   0000000.00                             000000000000000                                                                                                                                                   B101418  000000000000 0000000000000.49     01050 01500                  
01991190479350125DT67590675900000010942800101800000010180010124001193052900011300027022120230000000492005223000000000030464401723XXXXXX7492       VS11    0001111   NYV1 A E463052650105982N840000000004920X9BN00    05DNPLANET VAPOR #800        030330    VS84000000004920 N  599976923545                            000000000+                A CA 12110                     000000000  N000000000 493   0000000000000.00 0000000.00   0000000.00                             000000000000000                                                                                                                                                     01418 A000000000000 0000000000000.84     01510 01000                  
01991200479350126DT67590675900000010942800101800000010180010124001193052900011300035022120230000000224405223000000000030464461675XXXXXX1003       VS11    0001111   NYV1 A E583052718074840N840000000002244LVNK00    05DNPLANET VAPOR #800        531180    VD84000000002244 N  599976923545                            000000000+                F DF 00381                     000000000  N000000000       0000000000000.00 0000000.00   0000000.00                             000000000000000                                                                                                                                                     01418 A000000000000 0000000000000.33     00800 01500                  
01991210479350127DT67590675900000010942800101800000010180010124001193052900011300043022120230000000140605223000000000030464423223XXXXXX6746       VK04VS111111111   NYV1 A E383052740780307N840000000001406ZF2N00    05DNPLANET VAPOR #800        026427    VD84000000001406 N  599976923545                            000000000+                F DF 00451                     000000000  N000000000 214   0000000000000.00 0000000.00   0000000.00                             000000000000000                                                                                                                                                     01418 F000000000000 0000000000000.26     01550 00400                  
01991220479350128DT67590675900000010942800101800000010180010124001193052900011300050022120230000000659405223000000000030464434769XXXXXX1391       VS11    0001111   NYV1 A E583052768607948N840000000006594MG5600    07DNPLANET VAPOR #800        012116    VD84000000006594 N  599976923545                            000000000+                F DF 10433                     000000000  Y000000000 338   0000000000000.00 0000000.00   0000000.00                             000000000000000                                                                                                                                                     01418 A000000000000 0000000000000.25     00050 02200                  
01991230479350129DT67590675900000010942800101800000010180010124001193052900011300068022120230000000641905223000000000030464430602XXXXXX5623       VS11    0001111   NYV1 A E583052786916176N840000000006419874T00    07DNPLANET VAPOR #800        464738    VD84000000006419 N  599976923545                            000000000+                F DF 00381                     000000000  N000000000       0000000000000.00 0000000.00   0000000.00                             000000000000000                                                                                                                                                     01418 A000000000000 0000000000000.66     00800 01500                  
01991240479350130DT67590675900000010942800101800000010180010124001193052900011300076022120230000000235305223000000000030464466189XXXXXX2032       VS11    0001111   NYV1 A E303052801994760N840000000002353GLHM00    05DNPLANET VAPOR #800        024338    VD84000000002353 N  599976923545                            000000000+                F DF 10433                     000000000  Y000000000 338   0000000000000.00 0000000.00   0000000.00                             000000000000000                                                                                                                                                     01418 A000000000000 0000000000000.23     00050 02200                  
01991250479350131DT67590675900000010942800101800000010180010124001193052900011300084022120230000000060405223000000000030464427178XXXXXX3225       VK04VS111111111   NYV1 A E583052811874344N840000000000604D3Q700    05DNPLANET VAPOR #800        112096    VD84000000000604 N  599976923545                            000000000+                F DF 10439                     000000000  Y000000000 331   0000000000000.00 0000000.00   0000000.00                             000000000000000                                                                                                                                                     01418 F000000000000 0000000000000.22     00050 02200                  
01991260479350132DT67590675900000010942800101800000010180010124001193052900011300092022120230000000211805223000000000030464430602XXXXXX4427       VS11    0001111   NYV1 A E463052861435573N8400000000021183MKJ00    07DNPLANET VAPOR #800        483197    VD84000000002118 N  599976923545                            000000000+                F DF 00381                     000000000  N000000000       0000000000000.00 0000000.00   0000000.00                             000000000000000                                                                                                                                                     01418 A000000000000 0000000000000.32     00800 01500                  
01991270479350133DT67590675900000010942800101800000010180010124001193052900011300100022120230000000055405223000000000030464473703XXXXXX9655       VK04VS111111111   NYV1 A E463053014882453N8400000000005546MK500    07DNPLANET VAPOR #800        087225    VD84000000000554 N  599976923545                            000000000+                F DF 10439                     000000000  Y000000000 331   0000000000000.00 0000000.00   0000000.00                             000000000000000                                                                                                                                                     01418 F000000000000 0000000000000.22     00050 02200                  
01991280479350134BH6759067590000000995180010180000090170221202305223000000000042777    0000090001130009N8001016759C02222023                                                                                                                                                                                                                                                                                                                                                                                                                                                                                                                                                                                                 
01991290479350135DT67590675900000009951800101800000010180010177287283052900011300011022120230000000107805223000000000042777514230XXXXXX9720       MS02WI09          NY 1 0 AMDJCUYAXH0221  N840000000001078          05DNPLANET VAPOR #500        962B6E    MD84000000001078 N  599976923295                            000000000+M10101C5434C    MDJ  00402                     000000000  N                0000000000000.00 0000000.00   0000000.00                             000000000000000                                                                                                                                                   B101418  000000000000 0000000000000.26     01050 01500                  
