11452250003140002BH6759067590000003376180013780000090170630202318123000000000030436    0000090001510536Y8001376759C07032023051                                                                                                                                                                                                                                                                                                                                                                                                                                                                                                                                                                                              
11452260003140003DT67590675900000033761800137800000010180013724001193181900015188802063020230000000301018123000000000030436473702XXXXXX0159       PS01    0000000   NYV4 J1N463181705616304N840000000003010FCL900    01DNSIESTA G GLOBAL DISTRIBUT016212    VD84000000003010 N  549971004114                            000000000+                F DF 10425                     000000000  Y000000010 338   0000000000000.00 0000000.00   0000000.00                             000000000000000                                                                                                                                                     01424  000000000000 0000000000000.24     00050 02200                  
11452270003140001G2675906759000000337618001378000000101813-4448886              FL           9 D                00                                      NNNN00 N 00                   000000000000                                                                   71004114                                                                                                                                                                                                                                                                                                                                                                                                                                               
11452280003140004DT67590675900000033761800137800000010180013724001193181900015181393063020230000000716718123000000000030436448233XXXXXX1967       PS01    0000000   NYV4 J1N583181674151954N840000000007167PJV300    01DNSIESTA G GLOBAL DISTRIBUT034335    VD84000000007167 N  549971004114                            000000000+                F DF 10425                     000000000  Y000000010 338   0000000000000.00 0000000.00   0000000.00                             000000000000000                                                                                                                                                     01424  000000000000 0000000000000.26     00050 02200                  
11452290003140001G2675906759000000337618001378000000101813-4448886              FL           9 D                00                                      NNNN00 N 00                   000000000000                                                                   71004114                                                                                                                                                                                                                                                                                                                                                                                                                                               
11452300003140005DT67590675900000033761800137800000010180013724001193181900015192358063020230000000746718123000000000030436448233XXXXXX1967       PS01    0000000   NYV4 J1N583181518684493N840000000007467QKN400    01DNSIESTA G GLOBAL DISTRIBUT092429    VD84000000007467 N  549971004114                            000000000+                F DF 10425                     000000000  Y000000010 338   0000000000000.00 0000000.00   0000000.00                             000000000000000                                                                                                                                                     01424  000000000000 0000000000000.26     00050 02200                  
11452310003140001G2675906759000000337618001378000000101813-4448886              FL           9 D                00                                      NNNN00 N 00                   000000000000                                                                   71004114                                                                                                                                                                                                                                                                                                                                                                                                                                               
11452320003140006DT67590675900000033761800137800000010180013724001193181900015199791063020230000000188118123000000000030436443512XXXXXX5213       PS01    0000000   NYV4 J1N583181527822651N840000000001881QFMK00    01DNSIESTA G GLOBAL DISTRIBUT421021    VD84000000001881 N  549971004114                            000000000+                F DF 00425                     000000000  N000000010       0000000000000.00 0000000.00   0000000.00                             000000000000000                                                                                                                                                     01424  000000000000 0000000000000.53     01750 02000                  
11452330003140001G2675906759000000337618001378000000101813-4448886              FL           9 D                00                                      NNNN00 N 00                   000000000000                                                                   71004114                                                                                                                                                                                                                                                                                                                                                                                                                                               
11452340003140007DT67590675900000033761800137800000010180013724001193181900015193505063020230000000301018123000000000030436498503XXXXXX5375       PS01    0000000   NYV4 J1N583181711193764N840000000003010PRXV00    01DNSIESTA G GLOBAL DISTRIBUT013804    VD84000000003010 N  549971004114                            000000000+                F DF 00425                     000000000  N000000010       0000000000000.00 0000000.00   0000000.00                             000000000000000                                                                                                                                                     01424  000000000000 0000000000000.73     01750 02000                  
11452350003140001G2675906759000000337618001378000000101813-4448886              FL           9 D                00                                      NNNN00 N 00                   000000000000                                                                   71004114                                                                                                                                                                                                                                                                                                                                                                                                                                               
11452360003140008DT67590675900000033761800137800000010180013724001193181900015105368063020230000000790118123000000000030436473702XXXXXX5894       PS01    0000000   NYV4 J1N303181745041048N840000000007901MQ7W00    01DNSIESTA G GLOBAL DISTRIBUT010429    VD84000000007901 N  549971004114                            000000000+                F DF 10425                     000000000  Y000000010 338   0000000000000.00 0000000.00   0000000.00                             000000000000000                                                                                                                                                     01424  000000000000 0000000000000.26     00050 02200                  
11452370003140001G2675906759000000337618001378000000101813-4448886              FL           9 D                00                                      NNNN00 N 00                   000000000000                                                                   71004114                                                                                                                                                                                                                                                                                                                                                                                                                                               
11452380003140009BH6759067590000001619680010280000090170630202318123000000000628057    0000090001816044Y8001026759C07032023081                                                                                                                                                                                                                                                                                                                                                                                                                                                                                                                                                                                              
11452390003140010DT67590675900000016196800102800000010180010287287283181900018153242062920230000001987018123000000000628057525475XXXXXX6148       ME03KE06MS02      NY 4607AMWEMI0WHG0626  N840000000019870          81DNGREEN OTTER LLC          19829Z    MC84000000019870 NDR549977424386   25EE44C586T54E6C909384D  000000000+600450S00130    MWE  00737                     000000000  N                0000000000000.00 0000000.00   0000000.00                             000000000000000                                                                                                                                                   U001424  000000000000 0000000000005.27     02600 01000                  
11452400003140010DR67590675900000016196800102800000010125EE44C586T54E6C909384D  N000000000000                                                                                                                                                                                                                                                                                                                                                                                                                                                                                                                                                                                                                               
11452410003140001G2675906759000000161968001028000000101866-6317293              GA           9 E               210                                      NNNN           210000000000000000000000000                        7                                          77424386                                                                                                                                                                                                                                                                                                                                                                                                                                               
11452420003140011DT67590675900000016196800102800000010180010224001193181900018153290062920230000000600418123000000000628057413013XXXXXX0589               2111111   NYV4 A7W463177361869183N840000000006004N2RW00    01DNGREEN OTTER LLC          060306    VD84000000006004 NDR549977424386   84A9F66AFBT748388FB8E5D  000000000+                F DF 00415                     000000000  N000000000       0000000000000.00 0000000.00   0000000.00                             000000000000000                                                                                                                                                     01424 G000000006004 0000000000001.14     01650 01500                  
11452430003140011DR67590675900000016196800102800000010184A9F66AFBT748388FB8E5D  Y000000006004                 P1                                                                                                                                                                                                                                                                                                                                                                                                                                                                                                                                                                                                            
11452440003140001P16759067590000001619680010280000001010000000000000000                             2000000000000000000000000              000000000000                    0000000000000000000000000                    000000000000                                                                                                                                                                                                                                                                                                                                                                                                                                                                                        
11452450003140002G2675906759000000161968001028000000101866-6317293              GA           9 D                00                                      NNNN   N                      000000000000                                                                   77424386                                                                                                                                                                                                                                                                                                                                                                                                                                               
11452460003140012DT67590675900000016196800102800000010180010224001193181900018154363062920230000002661118123000000000628057444796XXXXXX3732               2111111   NYV4 A7W583177793927977N840000000026611WM5T00    01DNGREEN OTTER LLC          026807    VS84000000026611 NDR549977424386   6E2C3AB518TB866775C4E12  000000000+                A CA 12106                     000000000  N000000000 492   0000000000000.00 0000000.00   0000000.00                             000000000000000                                                                                                                                                     01424 G000000026611 0000000000005.13     01890 01000                  
11452470003140012DR6759067590000001619680010280000001016E2C3AB518TB866775C4E12  Y000000026611                 P1                                                                                                                                                                                                                                                                                                                                                                                                                                                                                                                                                                                                            
11452480003140001P16759067590000001619680010280000001010000000000000000                             2000000000000000000000000              000000000000                    0000000000000000000000000                    000000000000                                                                                                                                                                                                                                                                                                                                                                                                                                                                                        
11452490003140002G2675906759000000161968001028000000101866-6317293              GA           9 C                00                                      NNNN   N                      000000000000                                                                   77424386                                                                                                                                                                                                                                                                                                                                                                                                                                               
11452500003140013DT67590675900000016196800102800000010180010224001193181900018154405062920230000002146018123000000000628057431231XXXXXX4319               2111111   NYV4 A7W583177843075897N840000000021460TXHR00    01DNGREEN OTTER LLC          072519    VD84000000021460 NDR549977424386   931FAC6654T59D518E88B65  000000000+                G DG 10352                     000000000  Y000000000 338   0000000000000.00 0000000.00   0000000.00                             000000000000000                                                                                                                                                     01424 G000000021460 0000000000000.33     00050 02200                  
11452510003140013DR675906759000000161968001028000000101931FAC6654T59D518E88B65  Y000000021460                 P1                                                                                                                                                                                                                                                                                                                                                                                                                                                                                                                                                                                                            
11452520003140001P16759067590000001619680010280000001010000000000000000                             1000000001590000000000000              000000000000                    0000000000000000000000000                    000000000000                                                                                                                                                                                                                                                                                                                                                                                                                                                                                        
11452530003140002G2675906759000000161968001028000000101866-6317293              GA           9 D                00                                      NNNN   N                      000000000000                                                                   77424386                                                                                                                                                                                                                                                                                                                                                                                                                                               
11452540003140014DT67590675900000016196800102800000010180010287287283181900018154414062920230000001987018123000000000628057531481XXXXXX3002       ME03KE06MS02      NY 4607AMPLIOBO1A0626  N840000000019870          81DNGREEN OTTER LLC          31492B    MC84000000019870 NDR549977424386   46663A00BAT7BDEE48D9943  000000000+600450S00130    MPL  00580                     000000000  N                0000000000000.00 0000000.00   0000000.00                             000000000000000                                                                                                                                                   U001424  000000000000 0000000000004.27     02100 01000                  
11452550003140014DR67590675900000016196800102800000010146663A00BAT7BDEE48D9943  Y000000000000                                                                                                                                                                                                                                                                                                                                                                                                                                                                                                                                                                                                                               
11452560003140001G2675906759000000161968001028000000101866-6317293              GA           9 L               210                                      NNNN           210000000000000000000000000                        7                                          77424386                                                                                                                                                                                                                                                                                                                                                                                                                                               
11452570003140015DT67590675900000016196800102800000010180010224001193181900018154421062920230000001537418123000000000628057414718XXXXXX0869               2111111   NYV4 A7W303178015093260N840000000015374NVRM00    01DNGREEN OTTER LLC          026508    VS84000000015374 NDR549977424386   62E1CFBD11T50988734A1B1  000000000+                D CD 12109                     000000000  N000000000 498   0000000000000.00 0000000.00   0000000.00                             000000000000000                                                                                                                                                     01424 G000000015374 0000000000003.94     02500 01000                  
11452580003140015DR67590675900000016196800102800000010162E1CFBD11T50988734A1B1  Y000000015374                 P1                                                                                                                                                                                                                                                                                                                                                                                                                                                                                                                                                                                                            
11452590003140001P16759067590000001619680010280000001010000000000000000                             2000000000000000000000000              000000000000                    0000000000000000000000000                    000000000000                                                                                                                                                                                                                                                                                                                                                                                                                                                                                        
11452600003140002G2675906759000000161968001028000000101866-6317293              GA           9 C                00                                      NNNN   Y                      000000000000                                                                   77424386                                                                                                                                                                                                                                                                                                                                                                                                                                               
11452610003140016DT67590675900000016196800102800000010180010224001193181900018154447062920230000002106218123000000000628057419310XXXXXX3445       EF10    2111111   NYV4 A7W463178081067962N840000000021062MKH900    01DNGREEN OTTER LLC          05211G    VB84000000021062 NDR549977424386   9559F5D0B8TCBC59AF2117C  000000000+                G CG 00476                     000000000  N000000000 170   0000000000000.00 0000000.00   0000000.00                             000000000000000                                                                                                                                                     01424 G000000021062 0000000000004.10     01900 01000                  
11452620003140016DR6759067590000001619680010280000001019559F5D0B8TCBC59AF2117C  Y000000021062                 P1                                                                                                                                                                                                                                                                                                                                                                                                                                                                                                                                                                                                            
11452630003140001P16759067590000001619680010280000001010000000000000000                             1000000001192000000000000              000000000000                    0000000000000000000000000                    000000000000                                                                                                                                                                                                                                                                                                                                                                                                                                                                                        
11452640003140002G2675906759000000161968001028000000101866-6317293              GA           9 C                00                                      NNNN   N                      000000000000                                                                   77424386                                                                                                                                                                                                                                                                                                                                                                                                                                               
11452650003140017DT67590675900000016196800102800000010180010287287283181900018158134062920230000002704618123000000000628057512106XXXXXX5063       ME03KE06PT01      NY 4607AMCWSE8BGE0629  N840000000027046          81DNGREEN OTTER LLC          02963T    MC84000000027046 NDR549977424386   800268EE01T7A1B4FA7FDD2  000000000+600450S00130    MCW  02182                     000000000  N                0000000000000.00 0000000.00   0000000.00                             000000000000000                                                                                                                                                   U001424  000000000000 0000000000007.13     02600 01000                  
11452660003140017DR675906759000000161968001028000000101800268EE01T7A1B4FA7FDD2  Y000000000000                                                                                                                                                                                                                                                                                                                                                                                                                                                                                                                                                                                                                               
11452670003140001G2675906759000000161968001028000000101866-6317293              GA           9 W               210                                      NNNN           210000000000000000000000000                        7                                          77424386                                                                                                                                                                                                                                                                                                                                                                                                                                               
11452680003140018DT67590675900000016196800102800000010180010224001193181900018158158062920230000000999818123000000000628057489631XXXXXX2931               2111111   NYV4 A7W383181011590914N8400000000099989HQ200    01DNGREEN OTTER LLC          615280    VD84000000009998 NDR549977424386   0CEF8ED301TAB1207B22C02  000000000+                F DF 00415                     000000000  N000000000       0000000000000.00 0000000.00   0000000.00                             000000000000000                                                                                                                                                     01424 G000000009998 0000000000001.80     01650 01500                  
11452690003140018DR6759067590000001619680010280000001010CEF8ED301TAB1207B22C02  Z000000009998                 P1                                                                                                                                                                                                                                                                                                                                                                                                                                                                                                                                                                                                            
11452700003140001P16759067590000001619680010280000001010000000000000000                             2000000000000000000000000              000000000000                    0000000000000000000000000                    000000000000                                                                                                                                                                                                                                                                                                                                                                                                                                                                                        
11452710003140002G2675906759000000161968001028000000101866-6317293              GA           9 D                00                                      NNNN   N                      000000000000                                                                   77424386                                                                                                                                                                                                                                                                                                                                                                                                                                               
11452720003140019DT67590675900000016196800102800000010180010224001193181900018158257062920230000001499118123000000000628057409451XXXXXX7956               2111111   NYV4 A7W383181034820738N840000000014991CRD400    01DNGREEN OTTER LLC          919285    VS84000000014991 NDR549977424386   93FB8B25E9TE668C88878B6  000000000+                D CD 12109                     000000000  N000000000 498   0000000000000.00 0000000.00   0000000.00                             000000000000000                                                                                                                                                     01424 G000000014991 0000000000003.85     02500 01000                  
11452730003140019DR67590675900000016196800102800000010193FB8B25E9TE668C88878B6  Y000000014991                 P1                                                                                                                                                                                                                                                                                                                                                                                                                                                                                                                                                                                                            
11452740003140001P16759067590000001619680010280000001010000000000000000                             2000000000000000000000000              000000000000                    0000000000000000000000000                    000000000000                                                                                                                                                                                                                                                                                                                                                                                                                                                                                        
11452750003140002G2675906759000000161968001028000000101866-6317293              GA           9 C                00                                      NNNN   Y                      000000000000                                                                   77424386                                                                                                                                                                                                                                                                                                                                                                                                                                               
11452760003140020DT67590675900000016196800102800000010180010287287283181900018158290062920230000001611518123000000000628057517805XXXXXX8067       ME03KE06MS02      NY 4607AMPLOTT9FL0629  N840000000016115          81DNGREEN OTTER LLC          00152B    MC84000000016115 NDR549977424386   B4F521DA7ET3009AAB5D028  000000000+600450S00130    MPL  00580                     000000000  N                0000000000000.00 0000000.00   0000000.00                             000000000000000                                                                                                                                                   U001424  000000000000 0000000000003.48     02100 01000                  
11452770003140020DR675906759000000161968001028000000101B4F521DA7ET3009AAB5D028  Z000000000000                                                                                                                                                                                                                                                                                                                                                                                                                                                                                                                                                                                                                               
11452780003140001G2675906759000000161968001028000000101866-6317293              GA           9 L               210                                      NNNN           210000000000000000000000000                        7                                          77424386                                                                                                                                                                                                                                                                                                                                                                                                                                               
11452790003140021DT67590675900000016196800102800000010180010224001193181900018158851063020230000000413418123000000000628057440393XXXXXX9196               2111111   NYV4 A7W463181517784960N840000000004134HXQQ00    01DNGREEN OTTER LLC          548070    VD84000000004134 NDR549977424386   5774EB5242T904F1CB30850  000000000+                F PF 08175                     000000000  N000000000       0000000000000.00 0000000.00   0000000.00                             000000000000000                                                                                                                                                     01424 G000000004134 0000000000000.92     01750 02000                  
11452800003140021DR6759067590000001619680010280000001015774EB5242T904F1CB30850  Y000000004134                 P1                                                                                                                                                                                                                                                                                                                                                                                                                                                                                                                                                                                                            
11452810003140001P16759067590000001619680010280000001010000000000000000                             2000000000000000000000000              000000000000                    0000000000000000000000000                    000000000000                                                                                                                                                                                                                                                                                                                                                                                                                                                                                        
11452820003140002G2675906759000000161968001028000000101866-6317293              GA           9 P                00                                      NNNN   N                      000000000000                                                                   77424386                                                                                                                                                                                                                                                                                                                                                                                                                                               
11452830003140022DT67590675900000016196800102800000010180010287287283181900018158977063020230000001067318123000000000628057542432XXXXXX9778       ME03KE06MS02      NY 4607AMDJHQCAJY0630  N840000000010673          81DNGREEN OTTER LLC          210170    MD84000000010673 NDR549977424386   2B50EF6E9BTE713AD4609C4  000000000+600450S00130    MDJ  10813                     000000000  1                0000000000000.00 0000000.00   0000000.00                             000000000000000                                                                                                                                                   U001424  000000000000 0000000000000.27     00050 02200                  
11452840003140022DR6759067590000001619680010280000001012B50EF6E9BTE713AD4609C4  Y000000000000                                                                                                                                                                                                                                                                                                                                                                                                                                                                                                                                                                                                                               
11452850003140001G2675906759000000161968001028000000101866-6317293              GA           9 J               210                                      NNNN           210000000000000000000000000                        7                                          77424386                                                                                                                                                                                                                                                                                                                                                                                                                                               
11452860003140023DT67590675900000016196800102800000010180010224001193181900018159040063020230000000499918123000000000628057449477XXXXXX3768               2111111   NYV4 A7W583181547636398N840000000004999CG8600    01DNGREEN OTTER LLC          001243    VD84000000004999 NDR549977424386   2631ECF7B7T70F1D8C890DF  000000000+                F DF 00415                     000000000  N000000000       0000000000000.00 0000000.00   0000000.00                             000000000000000                                                                                                                                                     01424 G000000004999 0000000000000.97     01650 01500                  
11452870003140023DR6759067590000001619680010280000001012631ECF7B7T70F1D8C890DF  Y000000004999                 P1                                                                                                                                                                                                                                                                                                                                                                                                                                                                                                                                                                                                            
11452880003140001P16759067590000001619680010280000001010000000000000000                             2000000000000000000000000              000000000000                    0000000000000000000000000                    000000000000                                                                                                                                                                                                                                                                                                                                                                                                                                                                                        
11452890003140002G2675906759000000161968001028000000101866-6317293              GA           9 D                00                                      NNNN   N                      000000000000                                                                   77424386                                                                                                                                                                                                                                                                                                                                                                                                                                               
11452900003140024DT67590675900000016196800102800000010180010224001193181900018159057063020230000000319918123000000000628057449477XXXXXX3768               2111111   NYV4 A7W383181548222888N840000000003199JTSQ00    01DNGREEN OTTER LLC          001342    VD84000000003199 NDR549977424386   2631ECF7B7T1ED5F284FF25  000000000+                F DF 00415                     000000000  N000000000       0000000000000.00 0000000.00   0000000.00                             000000000000000                                                                                                                                                     01424 G000000003199 0000000000000.68     01650 01500                  
11452910003140024DR6759067590000001619680010280000001012631ECF7B7T1ED5F284FF25  Y000000003199                 P1                                                                                                                                                                                                                                                                                                                                                                                                                                                                                                                                                                                                            
11452920003140001P16759067590000001619680010280000001010000000000000000                             2000000000000000000000000              000000000000                    0000000000000000000000000                    000000000000                                                                                                                                                                                                                                                                                                                                                                                                                                                                                        
11452930003140002G2675906759000000161968001028000000101866-6317293              GA           9 D                00                                      NNNN   N                      000000000000                                                                   77424386                                                                                                                                                                                                                                                                                                                                                                                                                                               
11452940003140025DT67590675900000016196800102800000010180010224001193181900018159099063020230000000801918123000000000628057410039XXXXXX5829               2111111   NYV4 A7W303181551391880N8400000000080194LTS00    01DNGREEN OTTER LLC          27126D    VS84000000008019 NDR549977424386   A2DE64F7A0TD0CB84D3CE54  000000000+                D CD 12109                     000000000  N000000000 498   0000000000000.00 0000000.00   0000000.00                             000000000000000                                                                                                                                                     01424 G000000008019 0000000000002.10     02500 01000                  
11452950003140025DR675906759000000161968001028000000101A2DE64F7A0TD0CB84D3CE54  Y000000008019                 P1                                                                                                                                                                                                                                                                                                                                                                                                                                                                                                                                                                                                            
11452960003140001P16759067590000001619680010280000001010000000000000000                             2000000000000000000000000              000000000000                    0000000000000000000000000                    000000000000                                                                                                                                                                                                                                                                                                                                                                                                                                                                                        
11452970003140002G2675906759000000161968001028000000101866-6317293              GA           9 C                00                                      NNNN   Y                      000000000000                                                                   77424386                                                                                                                                                                                                                                                                                                                                                                                                                                               
11452980003140026DT67590675900000016196800102800000010180010224001193181900018159180063020230000001987018123000000000628057465345XXXXXX9491               2111111   NYV4 A7W583181568928702N84000000001987038QD00    01DNGREEN OTTER LLC          804610    VD84000000019870 NDR549977424386   B28FECE123TC76781CE7593  000000000+                F DF 10420                     000000000  Y000000000 338   0000000000000.00 0000000.00   0000000.00                             000000000000000                                                                                                                                                     01424 G000000019870 0000000000000.32     00050 02200                  
11452990003140026DR675906759000000161968001028000000101B28FECE123TC76781CE7593  Y000000019870                 P1                                                                                                                                                                                                                                                                                                                                                                                                                                                                                                                                                                                                            
11453000003140001P16759067590000001619680010280000001010000000000000000                             2000000000000000000000000              000000000000                    0000000000000000000000000                    000000000000                                                                                                                                                                                                                                                                                                                                                                                                                                                                                        
11453010003140002G2675906759000000161968001028000000101866-6317293              GA           9 D                00                                      NNNN   N                      000000000000                                                                   77424386                                                                                                                                                                                                                                                                                                                                                                                                                                               
11453020003140027DT67590675900000016196800102800000010680010274001193181900018159219063020230000001327118123000000000628057465345XXXXXX9491               0000000   NYV4 07T383181573440061N840000000013271P82S00    01CNGREEN OTTER LLC          808561    VD84000000013271 NDR549977424386   B28FECE123TC76781CE7593  000000000+                F DF 08168                     000000000  Y000000000 369   0000000000000.00 0000000.00   0000000.00                             000000000000000                                                                                                                                                     01424  000000013271 0000000000000.00     00000 00000                  
11453030003140027DR675906759000000161968001028000000106B28FECE123TC76781CE7593  Y000000013271                 P1                                                                                                                                                                                                                                                                                                                                                                                                                                                                                                                                                                                                            
11453040003140001P16759067590000001619680010280000001060000000000000000                             2000000000000000000000000              000000000000                    0000000000000000000000000                    000000000000                                                                                                                                                                                                                                                                                                                                                                                                                                                                                        
11453050003140002G2675906759000000161968001028000000106866-6317293              GA           9 D                00                                      NNNN   N                      000000000000                                                                   77424386                                                                                                                                                                                                                                                                                                                                                                                                                                               
11453060003140028DT67590675900000016196800102800000010180010224001193181900018159321063020230000001499118123000000000628057474165XXXXXX3577               2111111   NYV4 A7W303181587343164N8400000000149918BCQ00    01DNGREEN OTTER LLC          082903    VD84000000014991 NDR549977424386   B04C201AC6T4E9678339F44  000000000+                G DG 10352                     000000000  Y000000000 338   0000000000000.00 0000000.00   0000000.00                             000000000000000                                                                                                                                                     01424 G000000014991 0000000000000.29     00050 02200                  
11453070003140028DR675906759000000161968001028000000101B04C201AC6T4E9678339F44  Y000000014991                 P1                                                                                                                                                                                                                                                                                                                                                                                                                                                                                                                                                                                                            
11453080003140001P16759067590000001619680010280000001010000000000000000                             2000000000000000000000000              000000000000                    0000000000000000000000000                    000000000000                                                                                                                                                                                                                                                                                                                                                                                                                                                                                        
11453090003140002G2675906759000000161968001028000000101866-6317293              GA           9 D                00                                      NNNN   N                      000000000000                                                                   77424386                                                                                                                                                                                                                                                                                                                                                                                                                                               
11453100003140029DT67590675900000016196800102800000010180010224001193181900018159347063020230000001200818123000000000628057414720XXXXXX1622               2111111   NYV4 A7W303181597040428N840000000012008RHT600    01DNGREEN OTTER LLC          05145C    VS84000000012008 NDR549977424386   500EDF3C5CTE728BD5AF106  000000000+                C CC 12108                     000000000  N000000000 496   0000000000000.00 0000000.00   0000000.00                             000000000000000                                                                                                                                                     01424 G000000012008 0000000000002.56     02050 01000                  
11453110003140029DR675906759000000161968001028000000101500EDF3C5CTE728BD5AF106  Y000000012008                 P1                                                                                                                                                                                                                                                                                                                                                                                                                                                                                                                                                                                                            
11453120003140001P16759067590000001619680010280000001010000000000000000                             2000000000000000000000000              000000000000                    0000000000000000000000000                    000000000000                                                                                                                                                                                                                                                                                                                                                                                                                                                                                        
11453130003140002G2675906759000000161968001028000000101866-6317293              GA           9 C                00                                      NNNN   Y                      000000000000                                                                   77424386                                                                                                                                                                                                                                                                                                                                                                                                                                               
11453140003140030DT67590675900000016196800102800000010180010224001193181900018159388063020230000002170818123000000000628057445115XXXXXX4649               2111111   NYV4 A7W463181611862838N8400000000217084Z3P00    01DNGREEN OTTER LLC          067825    VD84000000021708 NDR549977424386   1B5BBD7DE3TD72886D0A202  000000000+                F DF 10420                     000000000  Y000000000 338   0000000000000.00 0000000.00   0000000.00                             000000000000000                                                                                                                                                     01424 G000000021708 0000000000000.33     00050 02200                  
11453150003140030DR6759067590000001619680010280000001011B5BBD7DE3TD72886D0A202  Y000000021708                 P1                                                                                                                                                                                                                                                                                                                                                                                                                                                                                                                                                                                                            
11453160003140001P16759067590000001619680010280000001010000000000000000                             2000000000000000000000000              000000000000                    0000000000000000000000000                    000000000000                                                                                                                                                                                                                                                                                                                                                                                                                                                                                        
11453170003140002G2675906759000000161968001028000000101866-6317293              GA           9 D                00                                      NNNN   N                      000000000000                                                                   77424386                                                                                                                                                                                                                                                                                                                                                                                                                                               
11453180003140031DT67590675900000016196800102800000010180010287287283181900018159405063020230000000542818123000000000628057514104XXXXXX6719       ME03KE06MS02      NY 4607AMPGF0224C0630  N840000000005428          81DNGREEN OTTER LLC          W86PU4    MD84000000005428 NDR549977424386   28F080F9AET022B74F8B645  000000000+600450S00130    MPG  09899                     000000000  N                0000000000000.00 0000000.00   0000000.00                             000000000000000                                                                                                                                                   U001424  000000000000 0000000000001.16     01760 02000                  
11453190003140031DR67590675900000016196800102800000010128F080F9AET022B74F8B645  Y000000000000                                                                                                                                                                                                                                                                                                                                                                                                                                                                                                                                                                                                                               
11453200003140001G2675906759000000161968001028000000101866-6317293              GA           9 G               210                                      NNNN           210000000000000000000000000                                                                   77424386                                                                                                                                                                                                                                                                                                                                                                                                                                               
11453210003140032DT67590675900000016196800102800000010180010287287283181900018159512063020230000002126118123000000000628057517546XXXXXX3162       ME03KE06MS02      NY 4607AMDJHJEU4C0630  N840000000021261          81DNGREEN OTTER LLC          030644    MD84000000021261 NDR549977424386   11E1E0B661TCD78ABCFCC43  000000000+600450S00130    MDJ  10813                     000000000  1                0000000000000.00 0000000.00   0000000.00                             000000000000000                                                                                                                                                   U001424  000000000000 0000000000000.33     00050 02200                  
11453220003140032DR67590675900000016196800102800000010111E1E0B661TCD78ABCFCC43  Y000000000000                                                                                                                                                                                                                                                                                                                                                                                                                                                                                                                                                                                                                               
11453230003140001G2675906759000000161968001028000000101866-6317293              GA           9 J               210                                      NNNN           210000000000000000000000000                        7                                          77424386                                                                                                                                                                                                                                                                                                                                                                                                                                               
11453240003140033DT67590675900000016196800102800000010180010287287283181900018159603063020230000002111218123000000000628057559591XXXXXX8041       ME03KE06PT01      NY 4607AMCWN2U83Q0630  N840000000021112          81DNGREEN OTTER LLC          05248S    MC84000000021112 NDR549977424386   A8F38F94B3TAE6486C11902  000000000+600450S00130    MCW  02182                     000000000  N                0000000000000.00 0000000.00   0000000.00                             000000000000000                                                                                                                                                   U001424  000000000000 0000000000005.59     02600 01000                  
11453250003140033DR675906759000000161968001028000000101A8F38F94B3TAE6486C11902  Y000000000000                                                                                                                                                                                                                                                                                                                                                                                                                                                                                                                                                                                                                               
11453260003140001G2675906759000000161968001028000000101866-6317293              GA           9 W               210                                      NNNN           210000000000000000000000000                        7                                          77424386                                                                                                                                                                                                                                                                                                                                                                                                                                               
11453270003140034DT67590675900000016196800102800000010180010287287283181900018159769063020230000002636218123000000000628057517546XXXXXX3689       ME03KE06MS02      NY 4607AMDJJQ1I4C0630  N840000000026362          81DNGREEN OTTER LLC          030079    MD84000000026362 NDR549977424386   275B83CAB0TC205681F4C88  000000000+600450S00130    MDJ  10813                     000000000  1                0000000000000.00 0000000.00   0000000.00                             000000000000000                                                                                                                                                   U001424  000000000000 0000000000000.35     00050 02200                  
11453280003140034DR675906759000000161968001028000000101275B83CAB0TC205681F4C88  Y000000000000                                                                                                                                                                                                                                                                                                                                                                                                                                                                                                                                                                                                                               
11453290003140001G2675906759000000161968001028000000101866-6317293              GA           9 J               210                                      NNNN           210000000000000000000000000                        7                                          77424386                                                                                                                                                                                                                                                                                                                                                                                                                                               
11453300003140035DT67590675900000016196800102800000010180010224001193181900018159800063020230000002255018123000000000628057414709XXXXXX4304               2111111   NYV4 A7W303181684415853N840000000022550FZW600    01DNGREEN OTTER LLC          01253B    VS84000000022550 NDR549977424386   1882234598T57723D914C6B  000000000+                B CB 12107                     000000000  N000000000 494   0000000000000.00 0000000.00   0000000.00                             000000000000000                                                                                                                                                     01424 G000000022550 0000000000004.70     02040 01000                  
11453310003140035DR6759067590000001619680010280000001011882234598T57723D914C6B  Y000000022550                 P1                                                                                                                                                                                                                                                                                                                                                                                                                                                                                                                                                                                                            
11453320003140001P16759067590000001619680010280000001010000000000000000                             2000000000000000000000000              000000000000                    0000000000000000000000000                    000000000000                                                                                                                                                                                                                                                                                                                                                                                                                                                                                        
11453330003140002G2675906759000000161968001028000000101866-6317293              GA           9 C                00                                      NNNN   Y                      000000000000                                                                   77424386                                                                                                                                                                                                                                                                                                                                                                                                                                               
11453340003140036DT67590675900000016196800102800000010180010224001193181900018159826063020230000001987018123000000000628057414718XXXXXX3186               2111111   NYV4 A7W583181693052022N840000000019870TQNR00    01DNGREEN OTTER LLC          030544    VS84000000019870 NDR549977424386   1FB7BDF666T511A22076963  000000000+                D CD 12109                     000000000  N000000000 498   0000000000000.00 0000000.00   0000000.00                             000000000000000                                                                                                                                                     01424 G000000019870 0000000000005.07     02500 01000                  
11453350003140036DR6759067590000001619680010280000001011FB7BDF666T511A22076963  Y000000019870                 P1                                                                                                                                                                                                                                                                                                                                                                                                                                                                                                                                                                                                            
11453360003140001P16759067590000001619680010280000001010000000000000000                             2000000000000000000000000              000000000000                    0000000000000000000000000                    000000000000                                                                                                                                                                                                                                                                                                                                                                                                                                                                                        
11453370003140002G2675906759000000161968001028000000101866-6317293              GA           9 C                00                                      NNNN   Y                      000000000000                                                                   77424386                                                                                                                                                                                                                                                                                                                                                                                                                                               
11453380003140037DT67590675900000016196800102800000010180010224001193181900018159834063020230000002487018123000000000628057427082XXXXXX3356               2111111   NYV4 A7W303181700430641N840000000024870586900    01DNGREEN OTTER LLC          030880    VS84000000024870 NDR549977424386   DC2B7CF7BDT0B5E5D198A89  000000000+                A CA 12106                     000000000  N000000000 492   0000000000000.00 0000000.00   0000000.00                             000000000000000                                                                                                                                                     01424 G000000024870 0000000000004.80     01890 01000                  
11453390003140037DR675906759000000161968001028000000101DC2B7CF7BDT0B5E5D198A89  Y000000024870                 P1                                                                                                                                                                                                                                                                                                                                                                                                                                                                                                                                                                                                            
11453400003140001P16759067590000001619680010280000001010000000000000000                             2000000000000000000000000              000000000000                    0000000000000000000000000                    000000000000                                                                                                                                                                                                                                                                                                                                                                                                                                                                                        
11453410003140002G2675906759000000161968001028000000101866-6317293              GA           9 C                00                                      NNNN   Y                      000000000000                                                                   77424386                                                                                                                                                                                                                                                                                                                                                                                                                                               
11453420003140038DT67590675900000016196800102800000010680010274001193181900018159888063020230000002151218123000000000628057410039XXXXXX6740               0000000   NYV4 07T303181720123651N840000000021512PSPS00    01CNGREEN OTTER LLC          15884D    VS84000000021512 NDR549977424386   810981FE43T4FB380F8D0C4  000000000+                D CD 00245                     000000000  N000000000 166   0000000000000.00 0000000.00   0000000.00                             000000000000000                                                                                                                                                     01424  000000021512-0000000000003.79     01760 00000                  
11453430003140038DR675906759000000161968001028000000106810981FE43T4FB380F8D0C4  U000000021512                 P1                                                                                                                                                                                                                                                                                                                                                                                                                                                                                                                                                                                                            
11453440003140001P16759067590000001619680010280000001060000000000000000                             2000000000000000000000000              000000000000                    0000000000000000000000000                    000000000000                                                                                                                                                                                                                                                                                                                                                                                                                                                                                        
11453450003140002G2675906759000000161968001028000000106866-6317293              GA           9 C                00                                      NNNN   Y                      000000000000                                                                   77424386                                                                                                                                                                                                                                                                                                                                                                                                                                               
11453460003140039DT67590675900000016196800102800000010680010287287283181900018159892063020230000001738918123000000000628057517546XXXXXX3689                         NY 4607AMDJR6Q53Q0630  N840000000017389          81CNGREEN OTTER LLC          030249    MD84000000017389 NDR549977424386   275B83CAB0TC205681F4C88  000000000+600450S00130    MDJ  10828                     000000000  1                0000000000000.00 0000000.00   0000000.00                             000000000000000                                                                                                                                                     01424  000000000000 0000000000000.00     00000 00000                  
11453470003140039DR675906759000000161968001028000000106275B83CAB0TC205681F4C88  R000000000000                                                                                                                                                                                                                                                                                                                                                                                                                                                                                                                                                                                                                               
11453480003140001G2675906759000000161968001028000000106866-6317293              GA           9 J               210                                      NNNN           210000000000000000000000000                        7                                          77424386                                                                                                                                                                                                                                                                                                                                                                                                                                               
11453490003140040DT67590675900000016196800102800000010180010224001193181900018160014063020230000001200818123000000000628057427082XXXXXX9393               2111111   NYV4 A7W383181734825490N840000000012008GVV200    01DNGREEN OTTER LLC          030345    VS84000000012008 NDR549977424386   8966CEDB5ATD33833C45946  000000000+                C CC 12108                     000000000  N000000000 496   0000000000000.00 0000000.00   0000000.00                             000000000000000                                                                                                                                                     01424 G000000012008 0000000000002.56     02050 01000                  
11453500003140040DR6759067590000001619680010280000001018966CEDB5ATD33833C45946  Y000000012008                 P1                                                                                                                                                                                                                                                                                                                                                                                                                                                                                                                                                                                                            
11453510003140001P16759067590000001619680010280000001010000000000000000                             2000000000000000000000000              000000000000                    0000000000000000000000000                    000000000000                                                                                                                                                                                                                                                                                                                                                                                                                                                                                        
11453520003140002G2675906759000000161968001028000000101866-6317293              GA           9 C                00                                      NNNN   Y                      000000000000                                                                   77424386                                                                                                                                                                                                                                                                                                                                                                                                                                               
11453530003140041DT67590675900000016196800102800000010180010287287283181900018160023063020230000001589018123000000000628057549170XXXXXX7313       ME03KE06MS02      NY 4607AMDJSP2B3Q0630  N840000000015890          81DNGREEN OTTER LLC          192340    MD84000000015890 NDR549977424386   9D69F2AEE2TBFC25956652A  000000000+600450S00130    MDJ  10813                     000000000  1                0000000000000.00 0000000.00   0000000.00                             000000000000000                                                                                                                                                   U001424  000000000000 0000000000000.30     00050 02200                  
11453540003140041DR6759067590000001619680010280000001019D69F2AEE2TBFC25956652A  Y000000000000                                                                                                                                                                                                                                                                                                                                                                                                                                                                                                                                                                                                                               
11453550003140001G2675906759000000161968001028000000101866-6317293              GA           9 J               210                                      NNNN           210000000000000000000000000                        7                                          77424386                                                                                                                                                                                                                                                                                                                                                                                                                                               
11453560003140042DT67590675900000016196800102800000010180010224001193181900018160048063020230000001987018123000000000628057460516XXXXXX0234               2111111   NYV4 A7W303181746437241N8400000000198703VGL00    01DNGREEN OTTER LLC          54403B    VS84000000019870 NDR549977424386   1AF88BC032T6F1057CC383B  000000000+                B CB 12107                     000000000  N000000000 494   0000000000000.00 0000000.00   0000000.00                             000000000000000                                                                                                                                                     01424 G000000019870 0000000000004.15     02040 01000                  
11453570003140042DR6759067590000001619680010280000001011AF88BC032T6F1057CC383B  Y000000019870                 P1                                                                                                                                                                                                                                                                                                                                                                                                                                                                                                                                                                                                            
11453580003140001P16759067590000001619680010280000001010000000000000000                             2000000000000000000000000              000000000000                    0000000000000000000000000                    000000000000                                                                                                                                                                                                                                                                                                                                                                                                                                                                                        
11453590003140002G2675906759000000161968001028000000101866-6317293              GA           9 C                00                                      NNNN   N                      000000000000                                                                   77424386                                                                                                                                                                                                                                                                                                                                                                                                                                               
11453600003140043DT67590675900000016196800102800000010180010224001193181900018160055063020230000002487018123000000000628057414720XXXXXX2481               2111111   NYV4 A7W583181750040825N840000000024870CNMN00    01DNGREEN OTTER LLC          00144D    VS84000000024870 NDR549977424386   717F721935T1C886F3F3BD1  000000000+                D CD 12109                     000000000  N000000000 498   0000000000000.00 0000000.00   0000000.00                             000000000000000                                                                                                                                                     01424 G000000024870 0000000000006.32     02500 01000                  
11453610003140043DR675906759000000161968001028000000101717F721935T1C886F3F3BD1  Y000000024870                 P1                                                                                                                                                                                                                                                                                                                                                                                                                                                                                                                                                                                                            
11453620003140001P16759067590000001619680010280000001010000000000000000                             2000000000000000000000000              000000000000                    0000000000000000000000000                    000000000000                                                                                                                                                                                                                                                                                                                                                                                                                                                                                        
11453630003140002G2675906759000000161968001028000000101866-6317293              GA           9 C                00                                      NNNN   Y                      000000000000                                                                   77424386                                                                                                                                                                                                                                                                                                                                                                                                                                               
11453640003140044DT67590675900000016196800102800000010180010224001193181900018160121063020230000002180718123000000000628057425142XXXXXX5224               2111111   NYV4 A7W583181758683798N840000000021807XC4S00    01DNGREEN OTTER LLC          060229    VD84000000021807 NDR549977424386   839A3089BCTD7AE8E6F4897  000000000+                F DF 00415                     000000000  N000000000       0000000000000.00 0000000.00   0000000.00                             000000000000000                                                                                                                                                     01424 G000000021807 0000000000003.75     01650 01500                  
11453650003140044DR675906759000000161968001028000000101839A3089BCTD7AE8E6F4897  Y000000021807                 P1                                                                                                                                                                                                                                                                                                                                                                                                                                                                                                                                                                                                            
11453660003140001P16759067590000001619680010280000001010000000000000000                             2000000000000000000000000              000000000000                    0000000000000000000000000                    000000000000                                                                                                                                                                                                                                                                                                                                                                                                                                                                                        
