02792180650010002BH6759067590000000288180088880000090170129202302923000000000007084    0000090001490105N8008886759C01302023                                                                                                                                                                                                                                                                                                                                                                                                                                                                                                                                                                                                 
02792190650010003DT67590675900000002881800888800000010180088824001193029900014901045012820230000000399902923000000000007084448261XXXXXX2015               2111111   NYV4 A7W383028685652504N840000000003999C89B00    01DNHAPPY HIPPIE             403111    VD84000000003999 NP1549976044904   1921                     000000000+                F DF 10420                     000000000  Y000000000 338   0000000000000.00 0000000.00   0000000.00                             000000000000000                                                                                                                                                     01418 G000000003999 0000000000000.24     00050 02200                  
02792200650010001P16759067590000000288180088880000001010000000000000000                             2000000000000000000000000              000000000000                    0000000000000000000000000                    000000000000                                                                                                                                                                                                                                                                                                                                                                                                                                                                                        
02792210650010004DT67590675900000002881800888800000010180088824001193029900014901052012820230000000308502923000000000007084419090XXXXXX1839               2111111   NYV4 A7W383028729221378N8400000000030859DVM00    01DNHAPPY HIPPIE             116914    VD84000000003085 NP1549976044904   1922                     000000000+                F DF 00415                     000000000  N000000000       0000000000000.00 0000000.00   0000000.00                             000000000000000                                                                                                                                                     01418 G000000003085 0000000000000.66     01650 01500                  
02792220650010001P16759067590000000288180088880000001010000000000000000                             2000000000000000000000000              000000000000                    0000000000000000000000000                    000000000000                                                                                                                                                                                                                                                                                                                                                                                                                                                                                        
02792230665850002BH6759067590000000215480088880000090170129202302923000000000007725    0000090001944420N8008886759C01302023                                                                                                                                                                                                                                                                                                                                                                                                                                                                                                                                                                                                 
02792240665850003DT67590675900000002154800888800000010180088824001193029900019444207012920230000000772502923000000000007725410881XXXXXX5692               2111111   NYV4 A7W303029625619694N8400000000077255QVQ00    01DNDRIP DROP DISTRO LLC     295733    VD84000000007725 NP1519971004114   17369                    000000000+                F DF 00415                     000000000  N000000000       0000000000000.00 0000000.00   0000000.00                             000000000000000                                                                                                                                                     01418 G000000007725 0000000000001.42     01650 01500                  
02792250665850001P16759067590000000215480088880000001010000000000000000                             2000000000000000000000000              000000000000                    0000000000000000000000000                    000000000000                                                                                                                                                                                                                                                                                                                                                                                                                                                                                        
02792260665850004BH6759067590000000288180088880000090170129202302923000000000185760    0000090001310036N8008886759C01302023                                                                                                                                                                                                                                                                                                                                                                                                                                                                                                                                                                                                 
02792270665850005DT67590675900000002881800888800000010180088824001193029900013100011012920230000000216102923000000000185760449507XXXXXX0245       VS11    0001111   NYV1 A E583029557682015N840000000002161H7HZ00    05DNHAPPY HIPPIE             002928    VD84000000002161 N  549976487158                            000000000+                F DF 00381                     000000000  N000000000       0000000000000.00 0000000.00   0000000.00                             000000000000000                                                                                                                                                     01418 A000000000000 0000000000000.32     00800 01500                  
02792280665850006DT67590675900000002881800888800000010180088877287283029900013100021012920230000001618002923000000000185760510805XXXXXX7683       MS02WI09          NY 2 0 AMDJML044W0129  N840000000016180          05DNHAPPY HIPPIE             095018    MD84000000016180 N  549976487158                            000000000+M10101C1334C    MDJ  10815                     000000000  1                0000000000000.00 0000000.00   0000000.00                             000000000000000                                                                                                                                                   B101418  000000000000 0000000000000.30     00050 02200                  
02792290665850007DT67590675900000002881800888800000010180088824001193029900013100037012920230000000027402923000000000185760411600XXXXXX5950       VK04VS111111111   NYV1 A E303029592324129N840000000000274XPX900    05DNHAPPY HIPPIE             082713    VD84000000000274 N  549976487158                            000000000+                F PF 08165                     000000000  N000000000       0000000000000.00 0000000.00   0000000.00                             000000000000000                                                                                                                                                     01418 F000000000000 0000000000000.09     01600 00500                  
02792300665850008DT67590675900000002881800888800000010180088824001193029900013100045012920230000000636702923000000000185760487917XXXXXX5992       VS11    0001111   NYV1 A E383029596551591N8400000000063674WM200    07DNHAPPY HIPPIE             061655    VD84000000006367 N  549976487158                            000000000+                F DF 00381                     000000000  N000000000       0000000000000.00 0000000.00   0000000.00                             000000000000000                                                                                                                                                     01418 A000000000000 0000000000000.66     00800 01500                  
02792310665850009DT67590675900000002881800888800000010180088877287283029900013100054012920230000000125002923000000000185760511953XXXXXX0600       MS02WI09          NY 1 0 AMDJM88Y4W0129  N840000000001250          07DNHAPPY HIPPIE             074932    MD84000000001250 N  549976487158                            000000000+M10101M0034C    MDJ  00505                     000000000  N                0000000000000.00 0000000.00   0000000.00                             000000000000000                                                                                                                                                   B101418  000000000000 0000000000000.23     01550 00400                  
02792320665850010DT67590675900000002881800888800000010180088824001193029900013100060012920230000000690002923000000000185760473336XXXXXX5051       VS11    0001111   NYV1 A E583029608888686N840000000006900D89300    05DNHAPPY HIPPIE             095449    VD84000000006900 N  549976487158                            000000000+                F DF 00381                     000000000  N000000000       0000000000000.00 0000000.00   0000000.00                             000000000000000                                                                                                                                                     01418 A000000000000 0000000000000.70     00800 01500                  
02792330665850011DT67590675900000002881800888800000010180088824001193029900013100078012920230000000246802923000000000185760445101XXXXXX0964       VS11    0001111   NYV1 A E463029610189879N840000000002468GXGG00    05DNHAPPY HIPPIE             360876    VD84000000002468 N  549976487158                            000000000+                F DF 10433                     000000000  Y000000000 338   0000000000000.00 0000000.00   0000000.00                             000000000000000                                                                                                                                                     01418 A000000000000 0000000000000.23     00050 02200                  
02792340665850012DT67590675900000002881800888800000010180088877287283029900013100088012920230000000439002923000000000185760527854XXXXXX5939       MS02WI09          NY 1 0 AMWEIMO14W0129  N840000000004390          07DNHAPPY HIPPIE             11924Z    MC84000000004390 N  549976487158                            000000000+M10101M0034C    MWE  00743                     000000000  N                0000000000000.00 0000000.00   0000000.00                             000000000000000                                                                                                                                                   B101418  000000000000 0000000000001.05     02300 00400                  
02792350665850013DT67590675900000002881800888800000010180088824001193029900013100094012920230000000888802923000000000185760419090XXXXXX9868       VS11    0001111   NYV1 A E463029623800401N840000000008888D75W00    05DNHAPPY HIPPIE             134394    VD84000000008888 N  549976487158                            000000000+                F DF 00381                     000000000  N000000000       0000000000000.00 0000000.00   0000000.00                             000000000000000                                                                                                                                                     01418 A000000000000 0000000000000.86     00800 01500                  
02792360665850014DT67590675900000002881800888800000010180088824001193029900013100102012920230000001195102923000000000185760435142XXXXXX8500       VS11    0001111   NYV1 A E383029631638845N840000000011951HR7C00    05DNHAPPY HIPPIE             077824    VD84000000011951 N  549976487158                            000000000+                F DF 10433                     000000000  Y000000000 338   0000000000000.00 0000000.00   0000000.00                             000000000000000                                                                                                                                                     01418 A000000000000 0000000000000.28     00050 02200                  
02792370665850015DT67590675900000002881800888800000010180088824001193029900013100110012920230000000098802923000000000185760474487XXXXXX6085       VK04VS111111111   NYV1 A E303029633487718N8400000000009889QXT00    05DNHAPPY HIPPIE             113353    VD84000000000988 N  549976487158                            000000000+                F DF 10439                     000000000  Y000000000 331   0000000000000.00 0000000.00   0000000.00                             000000000000000                                                                                                                                                     01418 F000000000000 0000000000000.22     00050 02200                  
02792380665850016DT67590675900000002881800888800000010180088824001193029900013100128012920230000001015802923000000000185760419090XXXXXX7320       VS11    0001111   NYV1 A E383029639403759N840000000010158SSGN00    05DNHAPPY HIPPIE             135118    VD84000000010158 N  549976487158                            000000000+                F DF 00381                     000000000  N000000000       0000000000000.00 0000000.00   0000000.00                             000000000000000                                                                                                                                                     01418 A000000000000 0000000000000.96     00800 01500                  
02792390665850017DT67590675900000002881800888800000010180088824001193029900013100136012920230000000329302923000000000185760445100XXXXXX5955       VS11    0001111   NYV1 A E463029641430686N840000000003293BXF900    05DNHAPPY HIPPIE             383183    VD84000000003293 N  549976487158                            000000000+                F DF 10433                     000000000  Y000000000 338   0000000000000.00 0000000.00   0000000.00                             000000000000000                                                                                                                                                     01418 A000000000000 0000000000000.24     00050 02200                  
02792400665850018DT67590675900000002881800888800000010180088877287283029900013100146012920230000000887702923000000000185760527520XXXXXX0811       MS02WI09          NY 1 0 AMDJJQZR4W0129  N840000000008877          05DNHAPPY HIPPIE             110137    MD84000000008877 N  549976487158                            000000000+M10101C5434C    MDJ  10815                     000000000  1                0000000000000.00 0000000.00   0000000.00                             000000000000000                                                                                                                                                   B101418  000000000000 0000000000000.26     00050 02200                  
02792410665850019DT67590675900000002881800888800000010180088824001193029900013100151012920230000000548802923000000000185760435547XXXXXX9872       VS11    0001111   NYV1 A E583029651291167N840000000005488CGHG00    05DNHAPPY HIPPIE             052164    VD84000000005488 N  549976487158                            000000000+                F DF 10433                     000000000  Y000000000 338   0000000000000.00 0000000.00   0000000.00                             000000000000000                                                                                                                                                     01418 A000000000000 0000000000000.25     00050 02200                  
02792420665850020DT67590675900000002881800888800000010180088824001193029900013100169012920230000000395102923000000000185760422921XXXXXX6466       VS11    0001111   NYV1 A E583029655172062N840000000003951WKRJ00    07DNHAPPY HIPPIE             047518    VD84000000003951 N  549976487158                            000000000+                F DF 00381                     000000000  N000000000       0000000000000.00 0000000.00   0000000.00                             000000000000000                                                                                                                                                     01418 A000000000000 0000000000000.47     00800 01500                  
02792430665850021DT67590675900000002881800888800000010180088824001193029900013100177012920230000000246802923000000000185760437303XXXXXX1202       VS11    0001111   NYV1 A E583029658087273N840000000002468DB9P00    05DNHAPPY HIPPIE             777163    VD84000000002468 N  549976487158                            000000000+                F PF 08170                     000000000  N000000000       0000000000000.00 0000000.00   0000000.00                             000000000000000                                                                                                                                                     01418 A000000000000 0000000000000.43     01150 01500                  
02792440665850022DT67590675900000002881800888800000010180088824001193029900013100185012920230000000128302923000000000185760415978XXXXXX7335       VK04VS111111111   NYV1 A E583029664514040N840000000001283ZQS300    07DNHAPPY HIPPIE             087681    VD84000000001283 N  549976487158                            000000000+                F DF 10439                     000000000  Y000000000 331   0000000000000.00 0000000.00   0000000.00                             000000000000000                                                                                                                                                     01418 F000000000000 0000000000000.23     00050 02200                  
02792450665850023DT67590675900000002881800888800000010180088824001193029900013100193012920230000000237102923000000000185760415978XXXXXX3096       VS11    0001111   NYV1 A E303029676605526N840000000002371285Z00    05DNHAPPY HIPPIE             025006    VD84000000002371 N  549976487158                            000000000+                F DF 10433                     000000000  Y000000000 338   0000000000000.00 0000000.00   0000000.00                             000000000000000                                                                                                                                                     01418 A000000000000 0000000000000.23     00050 02200                  
02792460665850024DT67590675900000002881800888800000010180088824001193029900013100201012920230000000987602923000000000185760498503XXXXXX4032       VS11    0001111   NYV1 A E303029688611913N840000000009876DWWM00    05DNHAPPY HIPPIE             000860    VD84000000009876 N  549976487158                            000000000+                F DF 00381                     000000000  N000000000       0000000000000.00 0000000.00   0000000.00                             000000000000000                                                                                                                                                     01418 A000000000000 0000000000000.94     00800 01500                  
02792470665850025DT67590675900000002881800888800000010180088824001193029900013100219012920230000000331202923000000000185760443264XXXXXX5230       VS11    0001111   NYV1 A E383029692343712N840000000003312WC2K00    07DNHAPPY HIPPIE             013618    VD84000000003312 N  549976487158                            000000000+                F DF 10433                     000000000  Y000000000 338   0000000000000.00 0000000.00   0000000.00                             000000000000000                                                                                                                                                     01418 A000000000000 0000000000000.24     00050 02200                  
02792480665850026DT67590675900000002881800888800000010180088877287283029900013100229012920230000000237102923000000000185760511953XXXXXX9431       MS02WI09          NY 1 0 AMDJLJA34W0129  N840000000002371          05DNHAPPY HIPPIE             026698    MD84000000002371 N  549976487158                            000000000+M10101C5434C    MDJ  00402                     000000000  N                0000000000000.00 0000000.00   0000000.00                             000000000000000                                                                                                                                                   B101418  000000000000 0000000000000.40     01050 01500                  
02792490665850027DT67590675900000002881800888800000010180088824001193029900013100235012920230000000548802923000000000185760480639XXXXXX3210       VS11    0001111   NYV1 A E583029701554285N840000000005488RG9400    05DNHAPPY HIPPIE             794215    VD84000000005488 N  549976487158                            000000000+                F DF 00381                     000000000  N000000000       0000000000000.00 0000000.00   0000000.00                             000000000000000                                                                                                                                                     01418 A000000000000 0000000000000.59     00800 01500                  
02792500665850028DT67590675900000002881800888800000010180088877287283029900013100245012920230000000424602923000000000185760515307XXXXXX9367       MS02WI09          NY 1 0 AMCWQVIH4W0129  N840000000004246          05DNHAPPY HIPPIE             04345Z    MC84000000004246 N  549976487158                            000000000+M10101C5434C    MCW  00646                     000000000  N                0000000000000.00 0000000.00   0000000.00                             000000000000000                                                                                                                                                   B101418  000000000000 0000000000000.85     01900 00400                  
02792510665850029DT67590675900000002881800888800000010180088824001193029900013100250012920230000000548802923000000000185760480639XXXXXX1059       VS11    0001111   NYV1 A E383029717780877N84000000000548834DD00    05DNHAPPY HIPPIE             794931    VD84000000005488 N  549976487158                            000000000+                F DF 00381                     000000000  N000000000       0000000000000.00 0000000.00   0000000.00                             000000000000000                                                                                                                                                     01418 A000000000000 0000000000000.59     00800 01500                  
02792520665850030DT67590675900000002881800888800000010180088824001193029900013100268012920230000000493802923000000000185760422921XXXXXX7391       VS11    0001111   NYV1 A E383029724938651N8400000000049387JTV00    05DNHAPPY HIPPIE             054494    VD84000000004938 N  549976487158                            000000000+                F DF 00381                     000000000  N000000000       0000000000000.00 0000000.00   0000000.00                             000000000000000                                                                                                                                                     01418 A000000000000 0000000000000.55     00800 01500                  
02792530665850031DT67590675900000002881800888800000010180088824001193029900013100276012920230000000339902923000000000185760410881XXXXXX4200       VS11    0001111   NYV1 A E463029730106964N840000000003399TZXL00    05DNHAPPY HIPPIE             555062    VD84000000003399 N  549976487158                            000000000+                F DF 00381                     000000000  N000000000       0000000000000.00 0000000.00   0000000.00                             000000000000000                                                                                                                                                     01418 A000000000000 0000000000000.42     00800 01500                  
02792540665850032DT67590675900000002881800888800000010180088824001193029900013100284012920230000000229902923000000000185760429413XXXXXX7578       VS11    0001111   NYV1 A E383029734501115N8400000000022994ZBL00    05DNHAPPY HIPPIE             015724    VD84000000002299 N  549976487158                            000000000+                F DF 00381                     000000000  N000000000       0000000000000.00 0000000.00   0000000.00                             000000000000000                                                                                                                                                     01418 A000000000000 0000000000000.33     00800 01500                  
02792550665850033DT67590675900000002881800888800000010180088824001193029900013100292012920230000000207102923000000000185760480639XXXXXX2886       VS11    0001111   NYV1 A E463029746592355N840000000002071R7SH00    05DNHAPPY HIPPIE             796005    VD84000000002071 N  549976487158                            000000000+                F DF 00381                     000000000  N000000000       0000000000000.00 0000000.00   0000000.00                             000000000000000                                                                                                                                                     01418 A000000000000 0000000000000.32     00800 01500                  
02792560665850034DT67590675900000002881800888800000010180088824001193029900013100300012920230000000849102923000000000185760419090XXXXXX6772       VS11    0001111   NYV1 A E583029776277492N8400000000084917GQM00    05DNHAPPY HIPPIE             141325    VD84000000008491 N  549976487158                            000000000+                F DF 00381                     000000000  N000000000       0000000000000.00 0000000.00   0000000.00                             000000000000000                                                                                                                                                     01418 A000000000000 0000000000000.83     00800 01500                  
02792570665850035DT67590675900000002881800888800000010180088824001193029900013100318012920230000000079002923000000000185760480639XXXXXX9883       VK04VS111111111   NYV1 A E583029785969420N840000000000790F4VN00    05DNHAPPY HIPPIE             797472    VD84000000000790 N  549976487158                            000000000+                F DF 00451                     000000000  N000000000 214   0000000000000.00 0000000.00   0000000.00                             000000000000000                                                                                                                                                     01418 F000000000000 0000000000000.16     01550 00400                  
02792580665850036DT67590675900000002881800888800000010180088824001193029900013100326012920230000000448802923000000000185760445101XXXXXX0323       VS11    0001111   NYV1 A E303029787911072N8400000000044884KJD00    05DNHAPPY HIPPIE             494678    VD84000000004488 N  549976487158                            000000000+                F DF 10433                     000000000  Y000000000 338   0000000000000.00 0000000.00   0000000.00                             000000000000000                                                                                                                                                     01418 A000000000000 0000000000000.24     00050 02200                  
02792590665850037DT67590675900000002881800888800000010180088824001193029900013100334012920230000000591002923000000000185760419090XXXXXX7120       VS11    0001111   NYV1 A E583029795252621N8400000000059109Q6C00    05DNHAPPY HIPPIE             142086    VD84000000005910 N  549976487158                            000000000+                F DF 00381                     000000000  N000000000       0000000000000.00 0000000.00   0000000.00                             000000000000000                                                                                                                                                     01418 A000000000000 0000000000000.62     00800 01500                  
02792600665850038DT67590675900000002881800888800000010180088824001193029900013100342012920230000000345602923000000000185760414718XXXXXX2671       VS11    0001111   NYV1 A E463029798455541N840000000003456DWJN00    07DNHAPPY HIPPIE             029255    VS84000000003456 N  549976487158                            000000000+                D CD 12113                     000000000  N000000000 499   0000000000000.00 0000000.00   0000000.00                             000000000000000                                                                                                                                                     01418 A000000000000 0000000000000.83     02100 01000                  
02792610665850039DT67590675900000002881800888800000010180088824001193029900013100359012920230000001490202923000000000185760449507XXXXXX4920       VS11    0001111   NYV1 A E383029816421021N840000000014902Q46H00    05DNHAPPY HIPPIE             074043    VD84000000014902 N  549976487158                            000000000+                F DF 00381                     000000000  N000000000       0000000000000.00 0000000.00   0000000.00                             000000000000000                                                                                                                                                     01418 A000000000000 0000000000001.34     00800 01500                  
02792620665850040DT67590675900000002881800888800000010180088824001193029900013100367012920230000000452902923000000000185760419090XXXXXX8251       VS11    0001111   NYV1 A E583029825474841N8400000000045297R7800    05DNHAPPY HIPPIE             143355    VD84000000004529 N  549976487158                            000000000+                F DF 00381                     000000000  N000000000       0000000000000.00 0000000.00   0000000.00                             000000000000000                                                                                                                                                     01418 A000000000000 0000000000000.51     00800 01500                  
02792630665850041BH6759067590000000288180088880000090170129202302923000000000005948    0000090001310003N8008886759C01302023                                                                                                                                                                                                                                                                                                                                                                                                                                                                                                                                                                                                 
02792640665850042DT67590675900000002881800888800000010180088824001193029900013100011012920230000000395002923000000000005948443238XXXXXX1211       VS11    0001111   NYV1 A E463029566828817N840000000003950H96K00    05DNHAPPY HIPPIE             004443    VD84000000003950 N  549976487134                            000000000+                F DF 00381                     000000000  N000000000       0000000000000.00 0000000.00   0000000.00                             000000000000000                                                                                                                                                     01418 A000000000000 0000000000000.47     00800 01500                  
02792650665850043DT67590675900000002881800888800000010180088824001193029900013100029012920230000000124902923000000000005948491523XXXXXX7823       VK04VS111111111   NYV1 A E463029813174073N840000000001249CJ8600    07DNHAPPY HIPPIE             022479    VD84000000001249 N  549976487134                            000000000+                F DF 10439                     000000000  Y000000000 331   0000000000000.00 0000000.00   0000000.00                             000000000000000                                                                                                                                                     01418 F000000000000 0000000000000.23     00050 02200                  
02792660665850044DT67590675900000002881800888800000010180088824001193029900013100037012920230000000074902923000000000005948491523XXXXXX7823       VK04VS111111111   NYV1 A E583029815805007N840000000000749VM6200    07DNHAPPY HIPPIE             005907    VD84000000000749 N  549976487134                            000000000+                F DF 10439                     000000000  Y000000000 331   0000000000000.00 0000000.00   0000000.00                             000000000000000                                                                                                                                                     01418 F000000000000 0000000000000.22     00050 02200                  
02792670665850045BH6759067590000000096880088880000090170129202302923000000000004500    0000090001319436N8008886759C01302023                                                                                                                                                                                                                                                                                                                                                                                                                                                                                                                                                                                                 
02792680665850046DT67590675900000000968800888800000010180088824001193029900013194360012920230000000450002923000000000004500474476XXXXXX5195               2111111   NYV4 A7W463029800034523N840000000004793DG3L00    01DNHIGHER FLOUR LLC         101535    VD84000000004500 NP1546271004114   R0IDYQVUKQ9BUKHCFSG4     000000000+                F DF 10420                     000000000  Y000000000 338   0000000000000.00 0000000.00   0000000.00                             000000000000000                                                                                                                                                     01418 G000000004500 0000000000000.24     00050 02200                  
02792690665850001P16759067590000000096880088880000001010000000000000000                             2000000000000000000000000              000000000000                    0000000000000000000000000                    000000000000                                                                                                                                                                                                                                                                                                                                                                                                                                                                                        
