00002530163880002BH6759067590000000370780088880000090170207202303823000000000072960    0000090001250184Y8008886759C02082023                                                                                                                                                                                                                                                                                                                                                                                                                                                                                                                                                                                                 
00002540163880003DT67590675900000003707800888800000010180088824001193038900012501754020720230000000517303823000000000072960414720XXXXXX8750               2111111   NYV4 A7W463038226240866N840000000005173MTQT00    01DNMR HEMP FLOWER           01122C    VS84000000005173 NP1549976053336   85383                    000000000+                C CC 12108                     000000000  N000000000 496   0000000000000.00 0000000.00   0000000.00                             000000000000000                                                                                                                                                     01424 G000000005173 0000000000001.16     02050 01000                  
00002550163880001P16759067590000000370780088880000001010000000000000000                             2000000000000000000000000              000000000000                    0000000000000000000000000                    000000000000                                                                                                                                                                                                                                                                                                                                                                                                                                                                                        
00002560163880004DT67590675900000003707800888800000010180088824001193038900012501762020720230000000249803823000000000072960416085XXXXXX8514               2111111   NYV4 A7W383038279352945N840000000002498WLWN00    01DNMR HEMP FLOWER           665030    VD84000000002498 NP1549976053336   85384                    000000000+                F DF 10420                     000000000  Y000000000 338   0000000000000.00 0000000.00   0000000.00                             000000000000000                                                                                                                                                     01424 G000000002498 0000000000000.23     00050 02200                  
00002570163880001P16759067590000000370780088880000001010000000000000000                             2000000000000000000000000              000000000000                    0000000000000000000000000                    000000000000                                                                                                                                                                                                                                                                                                                                                                                                                                                                                        
00002580163880005DT67590675900000003707800888800000010180088824001193038900012501770020720230000001450003823000000000072960434257XXXXXX8389               2111111   NYV4 A7W463038565957909N840000000014500VF2P00    01DNMR HEMP FLOWER           054829    VD84000000014500 NP1549976053336   85392                    000000000+                F DF 10420                     000000000  Y000000000 338   0000000000000.00 0000000.00   0000000.00                             000000000000000                                                                                                                                                     01424 G000000014500 0000000000000.29     00050 02200                  
00002590163880001P16759067590000000370780088880000001010000000000000000                             2000000000000000000000000              000000000000                    0000000000000000000000000                    000000000000                                                                                                                                                                                                                                                                                                                                                                                                                                                                                        
00002600163880006DT67590675900000003707800888800000010180088824001193038900012501788020720230000000412003823000000000072960448859XXXXXX5281               2111111   NYV4 A7W583038576539952N840000000004120M86500    01DNMR HEMP FLOWER           670440    VD84000000004120 NP1549976053336   85395                    000000000+                F DF 00415                     000000000  N000000000       0000000000000.00 0000000.00   0000000.00                             000000000000000                                                                                                                                                     01424 G000000004120 0000000000000.83     01650 01500                  
00002610163880001P16759067590000000370780088880000001010000000000000000                             2000000000000000000000000              000000000000                    0000000000000000000000000                    000000000000                                                                                                                                                                                                                                                                                                                                                                                                                                                                                        
00002620163880007DT67590675900000003707800888800000010680088876509753038900012501794020720230000000250003823000000000072960601120XXXXXX7929   BA00                  NY 4 07N803032440890025N840000000002500    00    01CNMR HEMP FLOWER           00730B    DZ84000000002500 N  549976053336070                         000000000+1015104910600   DMCDI01024499023  120809200000 000000000  0          136   0000000000000.00 0000000.00   0000000.00                             000000000000000                                                                                                                                                     01424  000000000000-0000000000000.56     02250 00000                  
00002630163880008DT67590675900000003707800888800000010180088824001193038900012501804020720230000001647503823000000000072960419002XXXXXX0503               2111111   NYV4 A7W463038702760410N840000000016475K2QL00    01DNMR HEMP FLOWER           032110    VD84000000016475 NP1549976053336   85429                    000000000+                F DF 10420                     000000000  Y000000000 338   0000000000000.00 0000000.00   0000000.00                             000000000000000                                                                                                                                                     01424 G000000016475 0000000000000.30     00050 02200                  
00002640163880001P16759067590000000370780088880000001010000000000000000                             2000000000000000000000000              000000000000                    0000000000000000000000000                    000000000000                                                                                                                                                                                                                                                                                                                                                                                                                                                                                        
00002650163880009DT67590675900000003707800888800000010180088824001193038900012501812020720230000002019703823000000000072960440330XXXXXX3796               2111111   NYV4 A7W463038713018342N8400000000201977RVC00    01DNMR HEMP FLOWER           246472    VD84000000020197 NP1549976053336   85433                    000000000+                F DF 00415                     000000000  N000000000       0000000000000.00 0000000.00   0000000.00                             000000000000000                                                                                                                                                     01424 G000000020197 0000000000003.48     01650 01500                  
00002660163880001P16759067590000000370780088880000001010000000000000000                             2000000000000000000000000              000000000000                    0000000000000000000000000                    000000000000                                                                                                                                                                                                                                                                                                                                                                                                                                                                                        
00002670163880010DT67590675900000003707800888800000010180088824001193038900012501820020720230000000899903823000000000072960426684XXXXXX4002               2111111   NYV4 A7W383038713976363N840000000008999PXVG00    01DNMR HEMP FLOWER           08712B    VS84000000008999 NP1549976053336   85434                    000000000+                B CB 12107                     000000000  N000000000 494   0000000000000.00 0000000.00   0000000.00                             000000000000000                                                                                                                                                     01424 G000000008999 0000000000001.94     02040 01000                  
00002680163880001P16759067590000000370780088880000001010000000000000000                             2000000000000000000000000              000000000000                    0000000000000000000000000                    000000000000                                                                                                                                                                                                                                                                                                                                                                                                                                                                                        
00002690163880011DT67590675900000003707800888800000010180088824001193038900012501846020720230000000349803823000000000072960419002XXXXXX4509               2111111   NYV4 A7W303039026538518N840000000003498XWBW00    01DNMR HEMP FLOWER           032071    VD84000000003498 NP1549976053336   85442                    000000000+                F DF 10420                     000000000  Y000000000 338   0000000000000.00 0000000.00   0000000.00                             000000000000000                                                                                                                                                     01424 G000000003498 0000000000000.24     00050 02200                  
00002700163880001P16759067590000000370780088880000001010000000000000000                             2000000000000000000000000              000000000000                    0000000000000000000000000                    000000000000                                                                                                                                                                                                                                                                                                                                                                                                                                                                                        
00002710163880012BH6759067590000000051380000180000090170207202303823000000000000207    0000090001530001Y8000016759C02082023                                                                                                                                                                                                                                                                                                                                                                                                                                                                                                                                                                                                 
00002720163880013DT67590675900000000513800001800000010180000124001193038900015300014020720230000000020703823000000000000207474489XXXXXX3159       VK04VS111111111   NYV1 A E303038856342849N8400000000002073N9G00    07DNVERMONT STATE BANK2      104370    VD84000000000207 N  549975705321                            000000000+                F DF 10439                     000000000  Y000000000 331   0000000000000.00 0000000.00   0000000.00                             000000000000000                                                                                                                                                     01424 F000000000000 0000000000000.22     00050 02200                  
