00003210486260002BH6759067590000000288180088880000090171221202235522000000000008392    0000090001260071Y8008886759C12222022                                                                                                                                                                                                                                                                                                                                                                                                                                                                                                                                                                                                 
00003220486260003DT67590675900000002881800888800000010180088824001192355900012600686122020220000000298135522000000000008392424631XXXXXX4300               2111111   NYV4 A7W302355097803269N840000000002981VXQD00    01DNHAPPY HIPPIE             09034G    VB84000000002981 NP1549976044904   1887                     000000000+                G CG 00690                     000000000  N000000000 231   0000000000000.00 0000000.00   0000000.00                             000000000000000                                                                                                                                                     01424 G000000002981 0000000000000.89     02650 01000                  
00003230486260001P16759067590000000288180088880000001010000000000000000                             2000000000000000000000000              000000000000                    0000000000000000000000000                    000000000000                                                                                                                                                                                                                                                                                                                                                                                                                                                                                        
00003240486260004DT67590675900000002881800888800000010680088874001192355900012600699122120220000000298135522000000000008392424631XXXXXX4300               0000000   NYV4 07T462355553782748N840000000002981LL5700    01CNHAPPY HIPPIE             07762G    VB84000000002981 NP1549976044904   1887                     000000000+                G CG 00246                     000000000  N000000000 167   0000000000000.00 0000000.00   0000000.00                             000000000000000                                                                                                                                                     01424  000000002981-0000000000000.70     02350 00000                  
00003250486260001P16759067590000000288180088880000001060000000000000000                             2000000000000000000000000              000000000000                    0000000000000000000000000                    000000000000                                                                                                                                                                                                                                                                                                                                                                                                                                                                                        
00003260486260005DT67590675900000002881800888800000010180088887287282355900012600703122120220000000378535522000000000008392518941XXXXXX4403       ME03KE06MS02      NY 4607AMWEDZ8ZLG1221  N840000000003785          81DNHAPPY HIPPIE             75487Z    MC84000000003785 N  549976044904   1888                     000000000+600450S00130    MWE  00737                     000000000  N                0000000000000.00 0000000.00   0000000.00                             000000000000000                                                                                                                                                   U001424  000000000000 0000000000001.08     02600 01000                  
00003270486260006DT67590675900000002881800888800000010180088824001192355900012600710122120220000000460735522000000000008392434257XXXXXX3468               2111111   NYV4 A7W382355804023583N840000000004607C8J300    01DNHAPPY HIPPIE             016573    VD84000000004607 NP1549976044904   1889                     000000000+                F DF 10420                     000000000  Y000000000 338   0000000000000.00 0000000.00   0000000.00                             000000000000000                                                                                                                                                     01424 G000000004607 0000000000000.24     00050 02200                  
00003280486260001P16759067590000000288180088880000001010000000000000000                             2000000000000000000000000              000000000000                    0000000000000000000000000                    000000000000                                                                                                                                                                                                                                                                                                                                                                                                                                                                                        
