08764460663370002BH675906759000000239118001208000009017052620231462300000000001830701970000090001220403N8001206759D05292023022                                                                                                                                                                                                                                                                                                                                                                                                                                                                                                                                                                                              
08764470663370003DT67590675900000023911800120800000010680012074001193146900012204056052620230000000544714623000000000018307425416XXXXXX3286               0000000   NN94 07N000000000000000N   000000000000          01CN8442835587VITASUREMEDICAL      0197VD84000000005447 N  599977875615                            000000000+                F DF 00000                     000000000  N000000000 369   0000000000000.00 0000000.00   0000000.00             000000000005447C000000000000000                                                                                                                                                     01424  000000000000 0000000000000.00     00000 00000                  
08764480663370001G2675906759000000239118001208000000106844-2835587              CA           9 D                00                                      NNNN00 N 00                   000000000000                                                                   77875615                                                                                                                                                                                                                                                                                                                                                                                                                                               
08764490663370004DT67590675900000023911800120800000010680012074001193146900012204064052620230000000435914623000000000018307425416XXXXXX3286               0000000   NN94 07N000000000000000N   000000000000          01CN8442835587VITASUREMEDICAL      0197VD84000000004359 N  599977875615                            000000000+                F DF 00000                     000000000  N000000000 369   0000000000000.00 0000000.00   0000000.00             000000000004359C000000000000000                                                                                                                                                     01424  000000000000 0000000000000.00     00000 00000                  
08764500663370001G2675906759000000239118001208000000106844-2835587              CA           9 D                00                                      NNNN00 N 00                   000000000000                                                                   77875615                                                                                                                                                                                                                                                                                                                                                                                                                                               
08764510663370005DT67590675900000023911800120800000010680012074001193146900012204031052620230000000850114623000000000018307403784XXXXXX3493               0000000   NNV4 07T383146849622884N840000000008501F6J700    01CN8442835587VITASUREMEDICAL8162630197VS84000000008501 NDR599977875615   6AAD4BD0F4TEA72307E6A03  000000000+                D CD 00000                     000000000  N000000000 166   0000000000000.00 0000000.00   0000000.00             000000000008501C000000000000000                                                                                                                                                     01424  000000008501 0000000000000.00     00000 00000                  
08764520663370005DR6759067590000002391180012080000001066AAD4BD0F4TEA72307E6A03  Y000000008501                 P1                                                                                                                                                                                                                                                                                                                                                                                                                                                                                                                                                                                                            
08764530663370001P16759067590000002391180012080000001060000000000000000                             2000000000000000000000000              000000000000                    0000000000000000000000000                    000000000000                                                                                                                                                                                                                                                                                                                                                                                                                                                                                        
08764540663370002G2675906759000000239118001208000000106844-2835587              CA           9 C                00                                      NNNN   Y                      000000000000                                                                   77875615                                                                                                                                                                                                                                                                                                                                                                                                                                               
08764550663370006BH6759067590000001767380010680000090170526202314623000000000069724    0000090001572117Y8001066759C05292023057                                                                                                                                                                                                                                                                                                                                                                                                                                                                                                                                                                                              
08764560663370007DT67590675900000017673800106800000010180010624001193146900015721127052620230000002178914623000000000069724410039XXXXXX5568               2111111   NYV4 A7W583146616539642N840000000021789ZGFC00    01DNVGHEMP.COM833-246-5225   21972D    VS84000000021789 NDR549977427364   8D90CB9A0FT4C1F39271D63  000000000+                D CD 12109                     000000000  N000000000 498   0000000000000.00 0000000.00   0000000.00                             000000000000000                                                                                                                                                     01424 G000000021789 0000000000005.55     02500 01000                  
08764570663370007DR6759067590000001767380010680000001018D90CB9A0FT4C1F39271D63  N000000021789                 P1                                                                                                                                                                                                                                                                                                                                                                                                                                                                                                                                                                                                            
08764580663370001P16759067590000001767380010680000001010000000000000000                             2000000000000000000000000              000000000000                    0000000000000000000000000                    000000000000                                                                                                                                                                                                                                                                                                                                                                                                                                                                                        
08764590663370002G2675906759000000176738001068000000101720-3077930              CA           9 C                00                                      NNNN   Y                      000000000000                                                                   77427364                                                                                                                                                                                                                                                                                                                                                                                                                                               
08764600663370008DT67590675900000017673800106800000010180010624001193146900015721143052620230000001306714623000000000069724443047XXXXXX0758               2111111   NYV4 A7W383146688411551N8400000000130678D4P00    01DNVGHEMP.COM833-246-5225   269893    VD84000000013067 NDR549977427364   3638EEDC66TA1C1B94F66C7  000000000+                F DF 10420                     000000000  Y000000000 338   0000000000000.00 0000000.00   0000000.00                             000000000000000                                                                                                                                                     01424 G000000013067 0000000000000.29     00050 02200                  
08764610663370008DR6759067590000001767380010680000001013638EEDC66TA1C1B94F66C7  Y000000013067                 P1                                                                                                                                                                                                                                                                                                                                                                                                                                                                                                                                                                                                            
08764620663370001P16759067590000001767380010680000001010000000000000000                             2000000000000000000000000              000000000000                    0000000000000000000000000                    000000000000                                                                                                                                                                                                                                                                                                                                                                                                                                                                                        
08764630663370002G2675906759000000176738001068000000101720-3077930              CA           9 D                00                                      NNNN   N                      000000000000                                                                   77427364                                                                                                                                                                                                                                                                                                                                                                                                                                               
08764640663370009DT67590675900000017673800106800000010180010687287283146900015721169052620230000001307914623000000000069724540997XXXXXX9023       ME03KE06MS02      NY 4607AMDJPYDGNI0526  N840000000013079          81DNVGHEMP.COM833-246-5225   885921    MD84000000013079 NDR549977427364   1C27E88B00TFAA5C738BC3A  000000000+600450S00130    MDJ  10813                     000000000  1                0000000000000.00 0000000.00   0000000.00                             000000000000000                                                                                                                                                   U001424  000000000000 0000000000000.29     00050 02200                  
08764650663370009DR6759067590000001767380010680000001011C27E88B00TFAA5C738BC3A  U000000000000                                                                                                                                                                                                                                                                                                                                                                                                                                                                                                                                                                                                                               
08764660663370001G2675906759000000176738001068000000101833-2465225              CA           9 J               210                                      NNNN           210000000000000000000000000                        7                                          77427364                                                                                                                                                                                                                                                                                                                                                                                                                                               
08764670663370010DT67590675900000017673800106800000010180010624001193146900015721176052620230000002178914623000000000069724498563XXXXXX3151               2111111   NYV4 A7W463146724473038N840000000021789WHFM00    01DNVGHEMP.COM833-246-5225   026681    VS84000000021789 NDR549977427364   F77AC7C65FT7CF85398DB72  000000000+                C CC 12108                     000000000  N000000000 496   0000000000000.00 0000000.00   0000000.00                             000000000000000                                                                                                                                                     01424 G000000021789 0000000000004.57     02050 01000                  
08764680663370010DR675906759000000176738001068000000101F77AC7C65FT7CF85398DB72  Y000000021789                 P1                                                                                                                                                                                                                                                                                                                                                                                                                                                                                                                                                                                                            
08764690663370001P16759067590000001767380010680000001010000000000000000                             2000000000000000000000000              000000000000                    0000000000000000000000000                    000000000000                                                                                                                                                                                                                                                                                                                                                                                                                                                                                        
08764700663370002G2675906759000000176738001068000000101720-3077930              CA           9 C                00                                      NNNN   Y                      000000000000                                                                   77427364                                                                                                                                                                                                                                                                                                                                                                                                                                               
08764710663370011BH6759067590000000288180088880000090170526202314623000000000034658    0000090001260248Y8008886759C05292023126                                                                                                                                                                                                                                                                                                                                                                                                                                                                                                                                                                                              
08764720663370012DT67590675900000002881800888800000010180088824001193146900012602452052620230000000729814623000000000034658448261XXXXXX2015               2111111   NYV4 A7W303146414375783N840000000007298B6FX00    01DNHAPPY HIPPIE             666427    VD84000000007298 NDR549976044904   2061                     000000000+                F DF 10420                     000000000  Y000000000 338   0000000000000.00 0000000.00   0000000.00                             000000000000000                                                                                                                                                     01424 G000000007298 0000000000000.26     00050 02200                  
08764730663370012DR6759067590000000288180088880000001012061                     N000000007298                 P1                                                                                                                                                                                                                                                                                                                                                                                                                                                                                                                                                                                                            
08764740663370001P16759067590000000288180088880000001010000000000000000                             2000000000000000000000000              000000000000                    0000000000000000000000000                    000000000000                                                                                                                                                                                                                                                                                                                                                                                                                                                                                        
08764750663370002G2675906759000000028818008888000000101865-3663142              TN           9 D                00                                      NNNN   N                      000000000000                                                                   76044904                                                                                                                                                                                                                                                                                                                                                                                                                                               
08764760663370013DT67590675900000002881800888800000010180088824001193146900012602478052620230000000987614623000000000034658413037XXXXXX0228               2111111   NYV4 A7W463146621260466N840000000009876PJQH00    01DNHAPPY HIPPIE             071309    VD84000000009876 NDR549976044904   2063                     000000000+                F DF 10420                     000000000  Y000000000 338   0000000000000.00 0000000.00   0000000.00                             000000000000000                                                                                                                                                     01424 G000000009876 0000000000000.27     00050 02200                  
08764770663370013DR6759067590000000288180088880000001012063                     Y000000009876                 P1                                                                                                                                                                                                                                                                                                                                                                                                                                                                                                                                                                                                            
08764780663370001P16759067590000000288180088880000001010000000000000000                             2000000000000000000000000              000000000000                    0000000000000000000000000                    000000000000                                                                                                                                                                                                                                                                                                                                                                                                                                                                                        
08764790663370002G2675906759000000028818008888000000101865-3663142              TN           9 D                00                                      NNNN   N                      000000000000                                                                   76044904                                                                                                                                                                                                                                                                                                                                                                                                                                               
08764800663370014DT67590675900000002881800888800000010180088876509753146900012602484052620230000001748414623000000000034658601100XXXXXX1511   BA00                  NY 4 07N803125974279207N840000000017484    00    01DNHAPPY HIPPIE             02678R    DS84000000017484 NDR549976044904070                         000000000+1015104910600   DCCDI11325002458  181707000000 000000000  0          460   0000000000000.00 0000000.00   0000000.00                             000000000000000                                                                                                                                                     01424  000000000000 0000000000003.65     02030 01000                  
08764810663370014DR675906759000000028818008888000000101                         Y                                                                                                                                                                                                                                                                                                                                                                                                                                                                                                                                                                                                                                           
08764820663370001G2675906759000000028818008888000000101865-3663142              TN           9 C                00                                      NNNN                          000000000000                         00000650975601179750000063                76044904                                                                                                                                                                                                                                                                                                                                                                                                                                               
08764830663370015BH6759067590000000370780088880000090170526202314623000000000146212    0000090001200962Y8008886759C05292023120                                                                                                                                                                                                                                                                                                                                                                                                                                                                                                                                                                                              
08764840663370016DT67590675900000003707800888800000010180088824001193146900012009476052520230000000755114623000000000146212459954XXXXXX4910               2111111   NYV4 A7W583146080611194N840000000007551HV2300    01DNMR HEMP FLOWER           H19039    VD84000000007551 NDR549976053336   90073                    000000000+                F DF 10420                     000000000  Y000000000 338   0000000000000.00 0000000.00   0000000.00                             000000000000000                                                                                                                                                     01424 G000000007551 0000000000000.26     00050 02200                  
08764850663370016DR67590675900000003707800888800000010190073                    Y000000007551                 P1                                                                                                                                                                                                                                                                                                                                                                                                                                                                                                                                                                                                            
08764860663370001P16759067590000000370780088880000001010000000000000000                             2000000000000000000000000              000000000000                    0000000000000000000000000                    000000000000                                                                                                                                                                                                                                                                                                                                                                                                                                                                                        
08764870663370002G2675906759000000037078008888000000101833-3877579              FL           9 D                00                                      NNNN   N                      000000000000                                                                   76053336                                                                                                                                                                                                                                                                                                                                                                                                                                               
08764880663370017DT67590675900000003707800888800000010180088824001193146900012009484052520230000000229914623000000000146212427178XXXXXX5706               2111111   NYV4 A7W383146097950190N840000000002299QH2L00    01DNMR HEMP FLOWER           102150    VD84000000002299 NDR549976053336   90074                    000000000+                F DF 10420                     000000000  Y000000000 338   0000000000000.00 0000000.00   0000000.00                             000000000000000                                                                                                                                                     01424 G000000002299 0000000000000.23     00050 02200                  
08764890663370017DR67590675900000003707800888800000010190074                    Y000000002299                 P1                                                                                                                                                                                                                                                                                                                                                                                                                                                                                                                                                                                                            
08764900663370001P16759067590000000370780088880000001010000000000000000                             2000000000000000000000000              000000000000                    0000000000000000000000000                    000000000000                                                                                                                                                                                                                                                                                                                                                                                                                                                                                        
08764910663370002G2675906759000000037078008888000000101833-3877579              FL           9 D                00                                      NNNN   N                      000000000000                                                                   76053336                                                                                                                                                                                                                                                                                                                                                                                                                                               
08764920663370018DT67590675900000003707800888800000010180088887287283146900012009493052520230000001280014623000000000146212529149XXXXXX2891       ME03KE06PT01      NY 4607AMCWUGX1Y00525  N840000000012800          81DNMR HEMP FLOWER           05724T    MC84000000012800 NDR549976053336   90075                    000000000+600450S00130    MCW  02182                     000000000  N                0000000000000.00 0000000.00   0000000.00                             000000000000000                                                                                                                                                   U001424  000000000000 0000000000003.43     02600 01000                  
08764930663370018DR67590675900000003707800888800000010190075                    Y000000000000                                                                                                                                                                                                                                                                                                                                                                                                                                                                                                                                                                                                                               
08764940663370001G2675906759000000037078008888000000101833-3877579              FL           9 W               210                                      NNNN           210000000000000000000000000                        7                                          76053336                                                                                                                                                                                                                                                                                                                                                                                                                                               
08764950663370019DT67590675900000003707800888800000010180088824001193146900012009500052520230000001129914623000000000146212485953XXXXXX0789               2111111   NYV4 A7W303146128382937N840000000011299VNWQ00    01DNMR HEMP FLOWER           S24405    VB84000000011299 NDR549976053336   90076                    000000000+                S CS 00692                     000000000  N000000000 237   0000000000000.00 0000000.00   0000000.00                             000000000000000                                                                                                                                                     01424 G000000011299 0000000000003.15     02700 01000                  
08764960663370019DR67590675900000003707800888800000010190076                    Y000000011299                 P1                                                                                                                                                                                                                                                                                                                                                                                                                                                                                                                                                                                                            
08764970663370001P16759067590000000370780088880000001010000000000000000                             2000000000000000000000000              000000000000                    0000000000000000000000000                    000000000000                                                                                                                                                                                                                                                                                                                                                                                                                                                                                        
08764980663370002G2675906759000000037078008888000000101833-3877579              FL           9 C                00                                      NNNN   N                      000000000000                                                                   76053336                                                                                                                                                                                                                                                                                                                                                                                                                                               
08764990663370020DT67590675900000003707800888800000010180088824001193146900012009518052520230000000469914623000000000146212440066XXXXXX9083               2111111   NYV4 A7W383146145010578N84000000000469945ZT00    01DNMR HEMP FLOWER           09665D    VS84000000004699 NDR549976053336   90077                    000000000+                D CD 12109                     000000000  N000000000 498   0000000000000.00 0000000.00   0000000.00                             000000000000000                                                                                                                                                     01424 G000000004699 0000000000001.27     02500 01000                  
08765000663370020DR67590675900000003707800888800000010190077                    Y000000004699                 P1                                                                                                                                                                                                                                                                                                                                                                                                                                                                                                                                                                                                            
08765010663370001P16759067590000000370780088880000001010000000000000000                             2000000000000000000000000              000000000000                    0000000000000000000000000                    000000000000                                                                                                                                                                                                                                                                                                                                                                                                                                                                                        
08765020663370002G2675906759000000037078008888000000101833-3877579              FL           9 C                00                                      NNNN   Y                      000000000000                                                                   76053336                                                                                                                                                                                                                                                                                                                                                                                                                                               
08765030663370021DT67590675900000003707800888800000010180088824001193146900012009526052620230000000228414623000000000146212451440XXXXXX2186               2111111   NYV4 A7W303146183188696N840000000002284DDD800    01DNMR HEMP FLOWER           220518    VD84000000002284 NDR549976053336   90078                    000000000+                F PF 08175                     000000000  N000000000       0000000000000.00 0000000.00   0000000.00                             000000000000000                                                                                                                                                     01424 G000000002284 0000000000000.60     01750 02000                  
08765040663370021DR67590675900000003707800888800000010190078                    Y000000002284                 P1                                                                                                                                                                                                                                                                                                                                                                                                                                                                                                                                                                                                            
08765050663370001P16759067590000000370780088880000001010000000000000000                             2000000000000000000000000              000000000000                    0000000000000000000000000                    000000000000                                                                                                                                                                                                                                                                                                                                                                                                                                                                                        
08765060663370002G2675906759000000037078008888000000101833-3877579              FL           9 P                00                                      NNNN   N                      000000000000                                                                   76053336                                                                                                                                                                                                                                                                                                                                                                                                                                               
08765070663370022DT67590675900000003707800888800000010180088887287283146900012009535052620230000001087514623000000000146212527519XXXXXX1093       ME03KE06MS02      NY 4607AMDJG94FCH0526  N840000000010875          81DNMR HEMP FLOWER           164261    MD84000000010875 NDR549976053336   90090                    000000000+600450S00130    MDJ  10813                     000000000  1                0000000000000.00 0000000.00   0000000.00                             000000000000000                                                                                                                                                   U001424  000000000000 0000000000000.27     00050 02200                  
08765080663370022DR67590675900000003707800888800000010190090                    Y000000000000                                                                                                                                                                                                                                                                                                                                                                                                                                                                                                                                                                                                                               
08765090663370001G2675906759000000037078008888000000101833-3877579              FL           9 J               210                                      NNNN           210000000000000000000000000                        7                                          76053336                                                                                                                                                                                                                                                                                                                                                                                                                                               
08765100663370023DT67590675900000003707800888800000010180088824001193146900012009542052620230000000724914623000000000146212405037XXXXXX5310               2111111   NYV4 A7W583146541264969N840000000007249PPPV00    01DNMR HEMP FLOWER           06203C    VS84000000007249 NDR549976053336   90091                    000000000+                C CC 12108                     000000000  N000000000 496   0000000000000.00 0000000.00   0000000.00                             000000000000000                                                                                                                                                     01424 G000000007249 0000000000001.59     02050 01000                  
08765110663370023DR67590675900000003707800888800000010190091                    Y000000007249                 P1                                                                                                                                                                                                                                                                                                                                                                                                                                                                                                                                                                                                            
08765120663370001P16759067590000000370780088880000001010000000000000000                             2000000000000000000000000              000000000000                    0000000000000000000000000                    000000000000                                                                                                                                                                                                                                                                                                                                                                                                                                                                                        
08765130663370002G2675906759000000037078008888000000101833-3877579              FL           9 C                00                                      NNNN   Y                      000000000000                                                                   76053336                                                                                                                                                                                                                                                                                                                                                                                                                                               
08765140663370024DT67590675900000003707800888800000010180088824001193146900012009559052620230000001125014623000000000146212414709XXXXXX9909               2111111   NYV4 A7W383146558637464N840000000011250538R00    01DNMR HEMP FLOWER           03121D    VS84000000011250 NDR549976053336   90097                    000000000+                D CD 12109                     000000000  N000000000 498   0000000000000.00 0000000.00   0000000.00                             000000000000000                                                                                                                                                     01424 G000000011250 0000000000002.91     02500 01000                  
08765150663370024DR67590675900000003707800888800000010190097                    Y000000011250                 P1                                                                                                                                                                                                                                                                                                                                                                                                                                                                                                                                                                                                            
08765160663370001P16759067590000000370780088880000001010000000000000000                             2000000000000000000000000              000000000000                    0000000000000000000000000                    000000000000                                                                                                                                                                                                                                                                                                                                                                                                                                                                                        
08765170663370002G2675906759000000037078008888000000101833-3877579              FL           9 C                00                                      NNNN   Y                      000000000000                                                                   76053336                                                                                                                                                                                                                                                                                                                                                                                                                                               
08765180663370025DT67590675900000003707800888800000010180088824001193146900012009567052620230000001849914623000000000146212414720XXXXXX0118               2111111   NYV4 A7W583146582639254N8400000000184992BWN00    01DNMR HEMP FLOWER           03106D    VS84000000018499 NDR549976053336   90098                    000000000+                D CD 12109                     000000000  N000000000 498   0000000000000.00 0000000.00   0000000.00                             000000000000000                                                                                                                                                     01424 G000000018499 0000000000004.72     02500 01000                  
08765190663370025DR67590675900000003707800888800000010190098                    Y000000018499                 P1                                                                                                                                                                                                                                                                                                                                                                                                                                                                                                                                                                                                            
08765200663370001P16759067590000000370780088880000001010000000000000000                             2000000000000000000000000              000000000000                    0000000000000000000000000                    000000000000                                                                                                                                                                                                                                                                                                                                                                                                                                                                                        
08765210663370002G2675906759000000037078008888000000101833-3877579              FL           9 C                00                                      NNNN   Y                      000000000000                                                                   76053336                                                                                                                                                                                                                                                                                                                                                                                                                                               
08765220663370026DT67590675900000003707800888800000010180088887287283146900012009576052620230000001087514623000000000146212552433XXXXXX3004       ME03KE06MS02      NY 4607AMPLL7XY6W0526  N840000000010875          81DNMR HEMP FLOWER           00769M    MC84000000010875 NDR549976053336   90099                    000000000+600450S00130    MPL  00580                     000000000  N                0000000000000.00 0000000.00   0000000.00                             000000000000000                                                                                                                                                   U001424  000000000000 0000000000002.38     02100 01000                  
08765230663370026DR67590675900000003707800888800000010190099                    Y000000000000                                                                                                                                                                                                                                                                                                                                                                                                                                                                                                                                                                                                                               
08765240663370001G2675906759000000037078008888000000101833-3877579              FL           9 L               210                                      NNNN           210000000000000000000000000                        7                                          76053336                                                                                                                                                                                                                                                                                                                                                                                                                                               
08765250663370027DT67590675900000003707800888800000010180088887287283146900012009584052620230000001049914623000000000146212552433XXXXXX2652       ME03KE06MS02      NY 4607AMPLJSFZNI0526  N840000000010499          81DNMR HEMP FLOWER           06049M    MC84000000010499 NDR549976053336   90106                    000000000+600450S00130    MPL  00580                     000000000  N                0000000000000.00 0000000.00   0000000.00                             000000000000000                                                                                                                                                   U001424  000000000000 0000000000002.30     02100 01000                  
08765260663370027DR67590675900000003707800888800000010190106                    Y000000000000                                                                                                                                                                                                                                                                                                                                                                                                                                                                                                                                                                                                                               
08765270663370001G2675906759000000037078008888000000101833-3877579              FL           9 L               210                                      NNNN           210000000000000000000000000                        7                                          76053336                                                                                                                                                                                                                                                                                                                                                                                                                                               
08765280663370028DT67590675900000003707800888800000010180088887287283146900012009592052620230000001087514623000000000146212540653XXXXXX0216       ME03KE06MS02      NY 4607AMDJG6ZMNT0526  N840000000010875          81DNMR HEMP FLOWER           021834    MD84000000010875 NDR549976053336   90107                    000000000+600450S00130    MDJ  10713                     000000000  B                0000000000000.00 0000000.00   0000000.00                             000000000000000                                                                                                                                                   U001424  000000000000 0000000000000.26     00050 02100                  
08765290663370028DR67590675900000003707800888800000010190107                    Y000000000000                                                                                                                                                                                                                                                                                                                                                                                                                                                                                                                                                                                                                               
08765300663370001G2675906759000000037078008888000000101833-3877579              FL           9 J               210                                      NNNN           210000000000000000000000000                                                                   76053336                                                                                                                                                                                                                                                                                                                                                                                                                                               
08765310663370029DT67590675900000003707800888800000010180088887287283146900012009600052620230000000459714623000000000146212530152XXXXXX5380       ME03KE06MS02      NY 4607AMDJV4ZUNX0526  N840000000004597          81DNMR HEMP FLOWER           906111    MD84000000004597 NDR549976053336   90108                    000000000+600450S00130    MDJ  00401                     000000000  N                0000000000000.00 0000000.00   0000000.00                             000000000000000                                                                                                                                                   U001424  000000000000 0000000000000.91     01650 01500                  
08765320663370029DR67590675900000003707800888800000010190108                    Y000000000000                                                                                                                                                                                                                                                                                                                                                                                                                                                                                                                                                                                                                               
08765330663370001G2675906759000000037078008888000000101833-3877579              FL           9 J               210                                      NNNN           210000000000000000000000000                        7                                          76053336                                                                                                                                                                                                                                                                                                                                                                                                                                               
08765340663370030DT67590675900000003707800888800000010180088887287283146900012009618052620230000001200014623000000000146212517805XXXXXX1250       ME03KE06MS02      NY 4607AMWEH3R7NT0526  N840000000012000          81DNMR HEMP FLOWER           02209P    MC84000000012000 NDR549976053336   90109                    000000000+600450S00130    MWE  00737                     000000000  N                0000000000000.00 0000000.00   0000000.00                             000000000000000                                                                                                                                                   U001424  000000000000 0000000000003.22     02600 01000                  
08765350663370030DR67590675900000003707800888800000010190109                    Y000000000000                                                                                                                                                                                                                                                                                                                                                                                                                                                                                                                                                                                                                               
08765360663370001G2675906759000000037078008888000000101833-3877579              FL           9 E               210                                      NNNN           210000000000000000000000000                        7                                          76053336                                                                                                                                                                                                                                                                                                                                                                                                                                               
08765370663370031DT67590675900000003707800888800000010180088887287283146900012009626052620230000000856114623000000000146212550114XXXXXX7851       ME03KE06MS02      NY 4607AMCSPA4XGU0526  N840000000008561          81DNMR HEMP FLOWER           026571    MC84000000008561 NDR549976053336   90110                    000000000+600450S00130    MCS  00013                     000000000  N                0000000000000.00 0000000.00   0000000.00                             000000000000000                                                                                                                                                   U001424  000000000000 0000000000001.77     01950 01000                  
08765380663370031DR67590675900000003707800888800000010190110                    Y000000000000                                                                                                                                                                                                                                                                                                                                                                                                                                                                                                                                                                                                                               
08765390663370001G2675906759000000037078008888000000101833-3877579              FL           9 S               210                                      NNNN           210000000000000000000000000                        7                                          76053336                                                                                                                                                                                                                                                                                                                                                                                                                                               
08765400663370032BH6759067590000002325980011680000090170526202314623000000000021789    0000090001542191Y8001166759C05292023054                                                                                                                                                                                                                                                                                                                                                                                                                                                                                                                                                                                              
08765410663370033DT67590675900000023259800116800000010180011687287283146900015421919052620230000002178914623000000000021789550114XXXXXX4363       ME03KE06MS02      NY 4607AMCSE4X5GV0526  N840000000021789          81DNGFORCEHEMP844-258-9322   026824    MC84000000021789 NDR549977768166   6E18A40EE6T9D897C392086  000000000+600450S00130    MCS  00013                     000000000  N                0000000000000.00 0000000.00   0000000.00                             000000000000000                                                                                                                                                   U001424  000000000000 0000000000004.35     01950 01000                  
08765420663370033DR6759067590000002325980011680000001016E18A40EE6T9D897C392086  Y000000000000                                                                                                                                                                                                                                                                                                                                                                                                                                                                                                                                                                                                                               
08765430663370001G2675906759000000232598001168000000101844-2589322              CA           9 S               210                                      NNNN           210000000000000000000000000                        7                                          77768166                                                                                                                                                                                                                                                                                                                                                                                                                                               
08765440663370034BH6759067590000001330080010280000090170526202314623000000000187885    0000090001004137Y8001026759C05292023100                                                                                                                                                                                                                                                                                                                                                                                                                                                                                                                                                                                              
08765450663370035DT67590675900000013300800102800000010180010276509753146900010031595052520230000001987014623000000000187885601100XXXXXX0457   BA00                  NY 4 07N873121936369614N840000000019870    00    01DNCBD8666317293            02263R    DS84000000019870 NDR549977133133070                         000000000+1015104910600   DCCDI11325831366  020716000000 000000000  0          460   0000000000000.00 0000000.00   0000000.00                             000000000000000                                                                                                                                                     01424  000000000000 0000000000004.13     02030 01000                  
08765460663370035DR675906759000000133008001028000000101                         Z                                                                                                                                                                                                                                                                                                                                                                                                                                                                                                                                                                                                                                           
08765470663370001G2675906759000000133008001028000000101866-6317293              GA           9 C                00                                      NNNN                          000000000000                         00000650975601179750000261                77133133                                                                                                                                                                                                                                                                                                                                                                                                                                               
08765480663370036DT67590675900000013300800102800000010180010287287283146900010031663052520230000001200814623000000000187885518941XXXXXX8840       ME03KE06MS02      NY 4607AMWEVIDNLK0522  N840000000012008          81DNCBD8666317293            56480Z    MC84000000012008 NDR549977133133   33BBC366C9TB852CAA0EA77  000000000+600450S00130    MWE  00737                     000000000  N                0000000000000.00 0000000.00   0000000.00                             000000000000000                                                                                                                                                   U001424  000000000000 0000000000003.22     02600 01000                  
08765490663370036DR67590675900000013300800102800000010133BBC366C9TB852CAA0EA77  Y000000000000                                                                                                                                                                                                                                                                                                                                                                                                                                                                                                                                                                                                                               
08765500663370001G2675906759000000133008001028000000101866-6317293              GA           9 E               210                                      NNNN           210000000000000000000000000                        7                                          77133133                                                                                                                                                                                                                                                                                                                                                                                                                                               
08765510663370037DT67590675900000013300800102800000010180010276509753146900010031678052520230000000642414623000000000187885601101XXXXXX8778   BA00                  NY 4 07N753122006528501N840000000006424    00    01DNCBD8666317293            02214R    DS84000000006424 NDR549977133133070                         000000000+1015104910600   DCCDI11325169049  040412000000 000000000  0          460   0000000000000.00 0000000.00   0000000.00                             000000000000000                                                                                                                                                     01424  000000000000 0000000000001.40     02030 01000                  
08765520663370037DR675906759000000133008001028000000101                         Y                                                                                                                                                                                                                                                                                                                                                                                                                                                                                                                                                                                                                                           
08765530663370001G2675906759000000133008001028000000101866-6317293              GA           9 C                00                                      NNNN                          000000000000                         00000650975601179750000261                77133133                                                                                                                                                                                                                                                                                                                                                                                                                                               
08765540663370038DT67590675900000013300800102800000010180010287287283146900010031754052520230000001200814623000000000187885552356XXXXXX0483       ME03KE06PT01      NY 4607AMCWJIWOSS0522  N840000000012008          81DNCBD8666317293            08226S    MC84000000012008 NDR549977133133   0B5ED17D4DTE4864AFBDEF5  000000000+600450S00130    MCW  02182                     000000000  N                0000000000000.00 0000000.00   0000000.00                             000000000000000                                                                                                                                                   U001424  000000000000 0000000000003.22     02600 01000                  
08765550663370038DR6759067590000001330080010280000001010B5ED17D4DTE4864AFBDEF5  Z000000000000                                                                                                                                                                                                                                                                                                                                                                                                                                                                                                                                                                                                                               
08765560663370001G2675906759000000133008001028000000101866-6317293              GA           9 W               210                                      NNNN           210000000000000000000000000                        7                                          77133133                                                                                                                                                                                                                                                                                                                                                                                                                                               
08765570663370039DT67590675900000013300800102800000010180010224001193146900010031910052520230000000700414623000000000187885441712XXXXXX3336               2111111   NYV4 A7W303142361448262N840000000007004JXBC00    01DNCBD8666317293            06732C    VS84000000007004 NDR549977133133   7E8241E264T741386ED2D37  000000000+                C CC 12108                     000000000  N000000000 496   0000000000000.00 0000000.00   0000000.00                             000000000000000                                                                                                                                                     01424 G000000007004 0000000000001.54     02050 01000                  
08765580663370039DR6759067590000001330080010280000001017E8241E264T741386ED2D37  Y000000007004                 P1                                                                                                                                                                                                                                                                                                                                                                                                                                                                                                                                                                                                            
08765590663370001P16759067590000001330080010280000001010000000000000000                             2000000000000000000000000              000000000000                    0000000000000000000000000                    000000000000                                                                                                                                                                                                                                                                                                                                                                                                                                                                                        
08765600663370002G2675906759000000133008001028000000101866-6317293              GA           9 C                00                                      NNNN   Y                      000000000000                                                                   77133133                                                                                                                                                                                                                                                                                                                                                                                                                                               
08765610663370040DT67590675900000013300800102800000010180010224001193146900010032074052520230000001799114623000000000187885414720XXXXXX0060               2111111   NYV4 A7W463142489069928N8400000000179913WSG00    01DNCBD8666317293            05185D    VS84000000017991 NDR549977133133   DE49439E83TEC47FFAAA57C  000000000+                D CD 12109                     000000000  N000000000 498   0000000000000.00 0000000.00   0000000.00                             000000000000000                                                                                                                                                     01424 G000000017991 0000000000004.60     02500 01000                  
08765620663370040DR675906759000000133008001028000000101DE49439E83TEC47FFAAA57C  Z000000017991                 P1                                                                                                                                                                                                                                                                                                                                                                                                                                                                                                                                                                                                            
08765630663370001P16759067590000001330080010280000001010000000000000000                             2000000000000000000000000              000000000000                    0000000000000000000000000                    000000000000                                                                                                                                                                                                                                                                                                                                                                                                                                                                                        
08765640663370002G2675906759000000133008001028000000101866-6317293              GA           9 C                00                                      NNNN   Y                      000000000000                                                                   77133133                                                                                                                                                                                                                                                                                                                                                                                                                                               
08765650663370041DT67590675900000013300800102800000010180010224001193146900010032256052520230000000600414623000000000187885440393XXXXXX3455               2111111   NYV4 A7W303142522113506N8400000000060047PZR00    01DNCBD8666317293            606437    VD84000000006004 NDR549977133133   F18B377426TB5E73B856203  000000000+                F PF 08175                     000000000  N000000000       0000000000000.00 0000000.00   0000000.00                             000000000000000                                                                                                                                                     01424 G000000006004 0000000000001.25     01750 02000                  
08765660663370041DR675906759000000133008001028000000101F18B377426TB5E73B856203  N000000006004                 P1                                                                                                                                                                                                                                                                                                                                                                                                                                                                                                                                                                                                            
08765670663370001P16759067590000001330080010280000001010000000000000000                             2000000000000000000000000              000000000000                    0000000000000000000000000                    000000000000                                                                                                                                                                                                                                                                                                                                                                                                                                                                                        
08765680663370002G2675906759000000133008001028000000101866-6317293              GA           9 P                00                                      NNNN   N                      000000000000                                                                   77133133                                                                                                                                                                                                                                                                                                                                                                                                                                               
08765690663370042DT67590675900000013300800102800000010180010224001193146900010032512052520230000002126114623000000000187885432739XXXXXX7843               2111111   NYV4 A7W303142590816254N840000000021261SP6C00    01DNCBD8666317293            503072    VD84000000021261 NDR549977133133   7A4181B337TFFC36E9A653C  000000000+                F DF 10420                     000000000  Y000000000 338   0000000000000.00 0000000.00   0000000.00                             000000000000000                                                                                                                                                     01424 G000000021261 0000000000000.33     00050 02200                  
08765700663370042DR6759067590000001330080010280000001017A4181B337TFFC36E9A653C  A000000021261                 P1                                                                                                                                                                                                                                                                                                                                                                                                                                                                                                                                                                                                            
08765710663370001P16759067590000001330080010280000001010000000000000000                             2000000000000000000000000              000000000000                    0000000000000000000000000                    000000000000                                                                                                                                                                                                                                                                                                                                                                                                                                                                                        
08765720663370002G2675906759000000133008001028000000101866-6317293              GA           9 D                00                                      NNNN   N                      000000000000                                                                   77133133                                                                                                                                                                                                                                                                                                                                                                                                                                               
08765730663370043DT67590675900000013300800102800000010180010224001193146900010032801052520230000000628714623000000000187885414580XXXXXX6072               2111111   NYV4 A7W383142666068027N840000000006287M9GX00    01DNCBD8666317293            525598    VD84000000006287 NDR549977133133   597BF4BA5CTB9FD98A56C3B  000000000+                F DF 10420                     000000000  Y000000000 338   0000000000000.00 0000000.00   0000000.00                             000000000000000                                                                                                                                                     01424 G000000006287 0000000000000.25     00050 02200                  
08765740663370043DR675906759000000133008001028000000101597BF4BA5CTB9FD98A56C3B  Z000000006287                 P1                                                                                                                                                                                                                                                                                                                                                                                                                                                                                                                                                                                                            
08765750663370001P16759067590000001330080010280000001010000000000000000                             2000000000000000000000000              000000000000                    0000000000000000000000000                    000000000000                                                                                                                                                                                                                                                                                                                                                                                                                                                                                        
08765760663370002G2675906759000000133008001028000000101866-6317293              GA           9 D                00                                      NNNN   N                      000000000000                                                                   77133133                                                                                                                                                                                                                                                                                                                                                                                                                                               
08765770663370044DT67590675900000013300800102800000010180010224001193146900010032876052520230000001284914623000000000187885440393XXXXXX0361               2111111   NYV4 A7W383142675054723N840000000012849P27H00    01DNCBD8666317293            669917    VD84000000012849 NDR549977133133   137585AE10T64E9421E22C4  000000000+                F PF 08175                     000000000  N000000000       0000000000000.00 0000000.00   0000000.00                             000000000000000                                                                                                                                                     01424 G000000012849 0000000000002.45     01750 02000                  
08765780663370044DR675906759000000133008001028000000101137585AE10T64E9421E22C4  Y000000012849                 P1                                                                                                                                                                                                                                                                                                                                                                                                                                                                                                                                                                                                            
08765790663370001P16759067590000001330080010280000001010000000000000000                             2000000000000000000000000              000000000000                    0000000000000000000000000                    000000000000                                                                                                                                                                                                                                                                                                                                                                                                                                                                                        
08765800663370002G2675906759000000133008001028000000101866-6317293              GA           9 P                00                                      NNNN   N                      000000000000                                                                   77133133                                                                                                                                                                                                                                                                                                                                                                                                                                               
08765810663370045DT67590675900000013300800102800000010180010224001193146900010033122052520230000001499114623000000000187885439885XXXXXX1679               2111111   NYV4 A7W583142729058673N840000000014991TCJ300    01DNCBD8666317293            833465    VD84000000014991 NDR549977133133   4380FD2B9AT6CC5E0F7E9BA  000000000+                F DF 00415                     000000000  N000000000       0000000000000.00 0000000.00   0000000.00                             000000000000000                                                                                                                                                     01424 G000000014991 0000000000002.62     01650 01500                  
08765820663370045DR6759067590000001330080010280000001014380FD2B9AT6CC5E0F7E9BA  Y000000014991                 P1                                                                                                                                                                                                                                                                                                                                                                                                                                                                                                                                                                                                            
08765830663370001P16759067590000001330080010280000001010000000000000000                             2000000000000000000000000              000000000000                    0000000000000000000000000                    000000000000                                                                                                                                                                                                                                                                                                                                                                                                                                                                                        
08765840663370002G2675906759000000133008001028000000101866-6317293              GA           9 D                00                                      NNNN   N                      000000000000                                                                   77133133                                                                                                                                                                                                                                                                                                                                                                                                                                               
08765850663370046DT67590675900000013300800102800000010180010287287283146900010033206052520230000001987014623000000000187885557567XXXXXX0930       ME03KE06MS02      NY 4607AMDJZPLKZA0522  N840000000019870          81DNCBD8666317293            049206    MD84000000019870 NDR549977133133   10D56570D6T4BF3B46BF86D  000000000+600450S00130    MDJ  00401                     000000000  N                0000000000000.00 0000000.00   0000000.00                             000000000000000                                                                                                                                                   U001424  000000000000 0000000000003.43     01650 01500                  
08765860663370046DR67590675900000013300800102800000010110D56570D6T4BF3B46BF86D  Y000000000000                                                                                                                                                                                                                                                                                                                                                                                                                                                                                                                                                                                                                               
08765870663370001G2675906759000000133008001028000000101866-6317293              GA           9 J               210                                      NNNN           210000000000000000000000000                        7                                          77133133                                                                                                                                                                                                                                                                                                                                                                                                                                               
