02027420125620002BH6759067590000000288180088880000090170105202300523000000000134324    0000090001110024N8008886759C01062023                                                                                                                                                                                                                                                                                                                                                                                                                                                                                                                                                                                                 
02027430125620003DT67590675900000002881800888800000010180088877287283005900011100013010520230000000888800523000000000134324517805XXXXXX8726       MS02WI09          NY 1 0 AMWEHOY4IZ0105  N840000000008888          07DNHAPPY HIPPIE             02786P    MC84000000008888 N  549976487158                            000000000+M10101M5434C    MWE  00743                     000000000  N                0000000000000.00 0000000.00   0000000.00                             000000000000000                                                                                                                                                   B101418  000000000000 0000000000002.08     02300 00400                  
02027440125620004DT67590675900000002881800888800000010180088824001193005900011100029010520230000000395000523000000000134324419090XXXXXX4015       VS11    0001111   NYV1 A E463005558103297N840000000003950KM4500    05DNHAPPY HIPPIE             497302    VD84000000003950 N  549976487158                            000000000+                F DF 00381                     000000000  N000000000       0000000000000.00 0000000.00   0000000.00                             000000000000000                                                                                                                                                     01418 A000000000000 0000000000000.47     00800 01500                  
02027450125620005DT67590675900000002881800888800000010180088824001193005900011100037010520230000000443000523000000000134324480639XXXXXX5051       VS11    0001111   NYV1 A E463005573230164N840000000004430GLJG00    05DNHAPPY HIPPIE             244155    VD84000000004430 N  549976487158                            000000000+                F DF 00381                     000000000  N000000000       0000000000000.00 0000000.00   0000000.00                             000000000000000                                                                                                                                                     01418 A000000000000 0000000000000.50     00800 01500                  
02027460125620006DT67590675900000002881800888800000010180088824001193005900011100045010520230000000548800523000000000134324400022XXXXXX0750       VS11    0001111   NYV1 A E583005581075191N84000000000548855CS00    05DNHAPPY HIPPIE             517981    VD84000000005488 N  549976487158                            000000000+                F DF 10433                     000000000  Y000000000 338   0000000000000.00 0000000.00   0000000.00                             000000000000000                                                                                                                                                     01418 A000000000000 0000000000000.25     00050 02200                  
02027470125620007DT67590675900000002881800888800000010180088824001193005900011100052010520230000000325800523000000000134324480639XXXXXX3152       VS11    0001111   NYV1 A E583005593628597N8400000000032586FRJ00    05DNHAPPY HIPPIE             245077    VD84000000003258 N  549976487158                            000000000+                F DF 00381                     000000000  N000000000       0000000000000.00 0000000.00   0000000.00                             000000000000000                                                                                                                                                     01418 A000000000000 0000000000000.41     00800 01500                  
02027480125620008DT67590675900000002881800888800000010180088824001193005900011100060010520230000000414600523000000000134324422921XXXXXX9232       VS11    0001111   NYV1 A E303005594470809N840000000004146XGLH00    05DNHAPPY HIPPIE             041448    VD84000000004146 N  549976487158                            000000000+                F DF 00381                     000000000  N000000000       0000000000000.00 0000000.00   0000000.00                             000000000000000                                                                                                                                                     01418 A000000000000 0000000000000.48     00800 01500                  
02027490125620009DT67590675900000002881800888800000010180088824001193005900011100078010520230000000730700523000000000134324419090XXXXXX2477       VS11    0001111   NYV1 A E303005602400659N840000000007307TCF800    05DNHAPPY HIPPIE             499535    VD84000000007307 N  549976487158                            000000000+                F DF 00381                     000000000  N000000000       0000000000000.00 0000000.00   0000000.00                             000000000000000                                                                                                                                                     01418 A000000000000 0000000000000.73     00800 01500                  
02027500125620010DT67590675900000002881800888800000010180088877287283005900011100088010520230000000785300523000000000134324533248XXXXXX4906       MS02WI09          NY 2 0 AMPVKA6XZV0105  N840000000007853          05DNHAPPY HIPPIE             FT8JZJ    MD84000000007853 N  549976487158                            000000000+M10101C1334C    MPV  11964                     000000000  N                0000000000000.00 0000000.00   0000000.00                             000000000000000                                                                                                                                                     01418  000000000000 0000000000001.05     01150 01500                  
02027510125620011DT67590675900000002881800888800000010180088824001193005900011100094010520230000000790000523000000000134324448261XXXXXX9227       VS11    0001111   NYV1 A E583005636197308N8400000000079004VDB00    05DNHAPPY HIPPIE             002031    VD84000000007900 N  549976487158                            000000000+                F DF 10433                     000000000  Y000000000 338   0000000000000.00 0000000.00   0000000.00                             000000000000000                                                                                                                                                     01418 A000000000000 0000000000000.26     00050 02200                  
02027520125620012DT67590675900000002881800888800000010180088877287283005900011100104010520230000001025100523000000000134324511975XXXXXX4657                         NY 1 0 AMDBM6GLMH0105  N840000000010251          05DNHAPPY HIPPIE             077480    MD84000000010251 NP1549976487158                            000000000+M10101C5434C    MDB  00062                     000000000  N                0000000000000.00 0000000.00   0000000.00                             000000000000000                                                                                                                                                   B101418  000000000000 0000000000002.82     02650 01000                  
02027530125620001P1675906759000000028818008888000000101                                                          000000000000          3000            814767769                                                                                                                                                                                                                                                                                                                                                                                                                                                                                                                                                            
02027540125620013DT67590675900000002881800888800000010180088824001193005900011100110010520230000000237100523000000000134324415978XXXXXX3096       VS11    0001111   NYV1 A E303005655639758N840000000002371WXLL00    05DNHAPPY HIPPIE             014078    VD84000000002371 N  549976487158                            000000000+                F DF 10433                     000000000  Y000000000 338   0000000000000.00 0000000.00   0000000.00                             000000000000000                                                                                                                                                     01418 A000000000000 0000000000000.23     00050 02200                  
02027550125620014DT67590675900000002881800888800000010180088877287283005900011100120010520230000000453000523000000000134324546616XXXXXX8203       MS02WI09          NY 1 0 AMCWGTS34E0105  N840000000004530          05DNHAPPY HIPPIE             27075Z    MC84000000004530 N  549976487158                            000000000+M10101C5434C    MCW  00646                     000000000  N                0000000000000.00 0000000.00   0000000.00                             000000000000000                                                                                                                                                   B101418  000000000000 0000000000000.90     01900 00400                  
02027560125620015DT67590675900000002881800888800000010180088824001193005900011100136010520230000000325800523000000000134324480639XXXXXX4543       VS11    0001111   NYV1 A E463005693872876N840000000003258HVHZ00    05DNHAPPY HIPPIE             250358    VD84000000003258 N  549976487158                            000000000+                F DF 00381                     000000000  N000000000       0000000000000.00 0000000.00   0000000.00                             000000000000000                                                                                                                                                     01418 A000000000000 0000000000000.41     00800 01500                  
02027570125620016DT67590675900000002881800888800000010180088824001193005900011100144010520230000000335700523000000000134324443238XXXXXX9717       VS11    0001111   NYV1 A E583005696604944N840000000003357SDLX00    05DNHAPPY HIPPIE             042100    VD84000000003357 N  549976487158                            000000000+                F DF 00381                     000000000  N000000000       0000000000000.00 0000000.00   0000000.00                             000000000000000                                                                                                                                                     01418 A000000000000 0000000000000.42     00800 01500                  
02027580125620017DT67590675900000002881800888800000010180088824001193005900011100151010520230000000591300523000000000134324414398XXXXXX4037       VS11    0001111   NYV1 A E303005727812881N840000000005913JM6800    05DNHAPPY HIPPIE             624181    VD84000000005913 N  549976487158                            000000000+                F DF 00381                     000000000  N000000000       0000000000000.00 0000000.00   0000000.00                             000000000000000                                                                                                                                                     01418 A000000000000 0000000000000.62     00800 01500                  
02027590125620018DT67590675900000002881800888800000010180088877287283005900011100161010520230000000237100523000000000134324542432XXXXXX9219       MS02WI09          NY 1 0 AMDJNJRT5A0105  N840000000002371          05DNHAPPY HIPPIE             229931    MD84000000002371 N  549976487158                            000000000+M10101C5434C    MDJ  10815                     000000000  1                0000000000000.00 0000000.00   0000000.00                             000000000000000                                                                                                                                                   B101418  000000000000 0000000000000.23     00050 02200                  
02027600125620019DT67590675900000002881800888800000010180088824001193005900011100177010520230000000059000523000000000134324422921XXXXXX1946       VK04VS111111111   NYV1 A E463005740251322N840000000000590DHVN00    05DNHAPPY HIPPIE             056026    VD84000000000590 N  549976487158                            000000000+                F DF 00451                     000000000  N000000000 214   0000000000000.00 0000000.00   0000000.00                             000000000000000                                                                                                                                                     01418 F000000000000 0000000000000.13     01550 00400                  
02027610125620020DT67590675900000002881800888800000010180088876509753005900011100183010520230000001677600523000000000134324601100XXXXXX3102   BA50                  NY41 0 N873004033951433N840000000016776    00    05DNHAPPY HIPPIE             00508P    DS84000000016776 N  549976487158050                         000000000+0000004910H00   DCPDI01118202056  140315000000 000000000  0          146   0000000000000.00 0000000.00   0000000.00                             000000000000000                                                                                                                                                     01418  000000000000 0000000000003.02     01740 01000                  
02027620125620021DT67590675900000002881800888800000010180088877287283005900011100195010520230000000248000523000000000134324542418XXXXXX5033       MS02WI09          NY 1 0 AMWEZV2C6P0105  N840000000002480          05DNHAPPY HIPPIE             72392P    MC84000000002480 N  549976487158                            000000000+M10101C5434C    MWE  00743                     000000000  N                0000000000000.00 0000000.00   0000000.00                             000000000000000                                                                                                                                                   B101418  000000000000 0000000000000.61     02300 00400                  
02027630125620022DT67590675900000002881800888800000010180088824001193005900011100201010520230000000696100523000000000134324419090XXXXXX2898       VS11    0001111   NYV1 A E303005780163539N8400000000069612WJW00    05DNHAPPY HIPPIE             510376    VD84000000006961 N  549976487158                            000000000+                F DF 00381                     000000000  N000000000       0000000000000.00 0000000.00   0000000.00                             000000000000000                                                                                                                                                     01418 A000000000000 0000000000000.71     00800 01500                  
02027640125620023DT67590675900000002881800888800000010180088824001193005900011100219010520230000000039000523000000000134324470793XXXXXX1849       VK04VS111111111   NYV1 A E303005782248698N840000000000390B3GM00    05DNHAPPY HIPPIE             005289    VS84000000000390 N  549976487158                            000000000+                B CB 12053                     000000000  N000000000 450   0000000000000.00 0000000.00   0000000.00                             000000000000000                                                                                                                                                     01418 F000000000000 0000000000000.07     01900 00000                  
02027650125620024DT67590675900000002881800888800000010180088824001193005900011100227010520230000000592400523000000000134324443238XXXXXX6669       VS11    0001111   NYV1 A E583005790038268N840000000005924TPBP00    05DNHAPPY HIPPIE             065643    VD84000000005924 N  549976487158                            000000000+                F DF 00381                     000000000  N000000000       0000000000000.00 0000000.00   0000000.00                             000000000000000                                                                                                                                                     01418 A000000000000 0000000000000.62     00800 01500                  
02027660125620025DT67590675900000002881800888800000010180088877287283005900011100237010520230000000986200523000000000134324552486XXXXXX3000       MS02WI09          NY 1 0 AMWEMLZ36U0105  N840000000009862          05DNHAPPY HIPPIE             06511Z    MC84000000009862 N  549976487158                            000000000+M10101C5434C    MWE  00743                     000000000  N                0000000000000.00 0000000.00   0000000.00                             000000000000000                                                                                                                                                   B101418  000000000000 0000000000002.31     02300 00400                  
02027670125620026DT67590675900000002881800888800000010180088877287283005900011100245010520230000000607000523000000000134324531260XXXXXX9498       MS02WI09          NY 1 0 AMDJKP0E200105  N840000000006070          05DNHAPPY HIPPIE             105584    MD84000000006070 N  549976487158                            000000000+M10101C5434C    MDJ  10815                     000000000  1                0000000000000.00 0000000.00   0000000.00                             000000000000000                                                                                                                                                   B101418  000000000000 0000000000000.25     00050 02200                  
02027680125620027BH675906759000000021548008888000009017010520230052300000000001678901970000090001749552N8008886759D01062023                                                                                                                                                                                                                                                                                                                                                                                                                                                                                                                                                                                                 
02027690125620028DT67590675900000002154800888800000010680088874001193005900017400329010520230000002966400523000000000016789400567XXXXXX0996               0000000   NN94 07N000000000000000N   000000000000          01CNDRIP DROP DISTRO LLC           0197VD84000000029664 N  519971004114                            000000000+                G DG 00000                     000000000  N000000000 369   0000000000000.00 0000000.00   0000000.00             000000000029664C000000000000000                                                                                                                                                     01418  000000000000 0000000000000.00     00000 00000                  
02027700125620029DT67590675900000002154800888800000010180088877287283005900017495524010520230000001287500523000000000016789527864XXXXXX6008                         NN 4607AMDBGD3T6U0105  N840000000012875          81DNDRIP DROP DISTRO LLC     3620360197MD84000000012875 NP1519900000001   17208                    000000000+600450S00140    MDB  00000                     000000000  N                0000000000000.00 0000000.00   0000000.00             000000000012875D000000000000000                                                                                                                                                   U001418  000000000000 0000000000000.00     00000 00000                  
02027710125620001P1675906759000000021548008888000000101                                                          000000000000          8000            471534935                                                                                                                                                                                                                                                                                                                                                                                                                                                                                                                                                            
02027720125620030BH6759067590000000288180088880000090170105202300523000000000102189    0000090001110009N8008886759C01062023                                                                                                                                                                                                                                                                                                                                                                                                                                                                                                                                                                                                 
02027730125620031DT67590675900000002881800888800000010180088824001193005900011100011010520230000000395000523000000000102189445101XXXXXX3060       VS11    0001111   NYV1 A E463005546330598N840000000003950K99600    05DNHAPPY HIPPIE             124403    VD84000000003950 N  549976487134                            000000000+                F DF 10433                     000000000  Y000000000 338   0000000000000.00 0000000.00   0000000.00                             000000000000000                                                                                                                                                     01418 A000000000000 0000000000000.24     00050 02200                  
02027740125620032DT67590675900000002881800888800000010180088824001193005900011100029010520230000000325800523000000000102189480639XXXXXX0039       VS11    0001111   NYV1 A E583005625182918N8400000000032586JB700    05DNHAPPY HIPPIE             246737    VD84000000003258 N  549976487134                            000000000+                F DF 00381                     000000000  N000000000       0000000000000.00 0000000.00   0000000.00                             000000000000000                                                                                                                                                     01418 A000000000000 0000000000000.41     00800 01500                  
02027750125620033DT67590675900000002881800888800000010180088824001193005900011100037010520230000000325800523000000000102189480639XXXXXX0790       VS11    0001111   NYV1 A E303005629818726N84000000000325839WJ00    05DNHAPPY HIPPIE             246963    VD84000000003258 N  549976487134                            000000000+                F DF 00381                     000000000  N000000000       0000000000000.00 0000000.00   0000000.00                             000000000000000                                                                                                                                                     01418 A000000000000 0000000000000.41     00800 01500                  
02027760125620034DT67590675900000002881800888800000010180088824001193005900011100045010520230000000977500523000000000102189438857XXXXXX7405       VS11    0001111   NYV1 A E303005642393398N840000000009775R48F00    05DNHAPPY HIPPIE             01182D    VS84000000009775 N  549976487134                            000000000+                D CD 12113                     000000000  N000000000 499   0000000000000.00 0000000.00   0000000.00                             000000000000000                                                                                                                                                     01418 A000000000000 0000000000002.15     02100 01000                  
02027770125620035DT67590675900000002881800888800000010180088824001193005900011100052010520230000001327500523000000000102189473703XXXXXX4847       VS11    0001111   NYV1 A E583005644370728N840000000013275289L00    05DNHAPPY HIPPIE             071713    VD84000000013275 N  549976487134                            000000000+                F DF 10433                     000000000  Y000000000 338   0000000000000.00 0000000.00   0000000.00                             000000000000000                                                                                                                                                     01418 A000000000000 0000000000000.29     00050 02200                  
02027780125620036DT67590675900000002881800888800000010180088824001193005900011100060010520230000000118200523000000000102189480639XXXXXX8006       VK04VS111111111   NYV1 A E583005649732617N840000000001182V3QF00    05DNHAPPY HIPPIE             248051    VD84000000001182 N  549976487134                            000000000+                F DF 00451                     000000000  N000000000 214   0000000000000.00 0000000.00   0000000.00                             000000000000000                                                                                                                                                     01418 F000000000000 0000000000000.22     01550 00400                  
02027790125620037DT67590675900000002881800888800000010180088824001193005900011100078010520230000000790100523000000000102189480639XXXXXX6162       VS11    0001111   NYV1 A E303005654069754N840000000007901CXJP00    05DNHAPPY HIPPIE             248283    VD84000000007901 N  549976487134                            000000000+                F DF 00381                     000000000  N000000000       0000000000000.00 0000000.00   0000000.00                             000000000000000                                                                                                                                                     01418 A000000000000 0000000000000.78     00800 01500                  
02027800125620038DT67590675900000002881800888800000010180088824001193005900011100102010520230000000355500523000000000102189473702XXXXXX3234       VS11    0001111   NYV1 A E583005679564438N840000000003555QQNR00    05DNHAPPY HIPPIE             044451    VD84000000003555 N  549976487134                            000000000+                F DF 10433                     000000000  Y000000000 338   0000000000000.00 0000000.00   0000000.00                             000000000000000                                                                                                                                                     01418 A000000000000 0000000000000.24     00050 02200                  
02027810125620039DT67590675900000002881800888800000010180088877287283005900011100112010520230000000691300523000000000102189511953XXXXXX6970       MS02WI09          NY 1 0 AMDJXXMH6P0105  N840000000006913          05DNHAPPY HIPPIE             096256    MD84000000006913 N  549976487134                            000000000+M10101C5434C    MDJ  00402                     000000000  N                0000000000000.00 0000000.00   0000000.00                             000000000000000                                                                                                                                                   B101418  000000000000 0000000000000.88     01050 01500                  
02027820125620040DT67590675900000002881800888800000010180088824001193005900011100128010520230000000236800523000000000102189419090XXXXXX9355       VS11    0001111   NYV1 A E303005717729034N840000000002368HKPN00    05DNHAPPY HIPPIE             506666    VD84000000002368 N  549976487134                            000000000+                F DF 00381                     000000000  N000000000       0000000000000.00 0000000.00   0000000.00                             000000000000000                                                                                                                                                     01418 A000000000000 0000000000000.34     00800 01500                  
02027830125620041DT67590675900000002881800888800000010180088824001193005900011100136010520230000002231700523000000000102189419090XXXXXX9527       VS11    0001111   NYV1 A E583005722369754N840000000022317KBMQ00    05DNHAPPY HIPPIE             506941    VD84000000022317 N  549976487134                            000000000+                F DF 00381                     000000000  N000000000       0000000000000.00 0000000.00   0000000.00                             000000000000000                                                                                                                                                     01418 A000000000000 0000000000001.94     00800 01500                  
02027840125620042DT67590675900000002881800888800000010180088824001193005900011100144010520230000000790000523000000000102189463405XXXXXX6925       VS11    0001111   NYV1 A E463005723858208N840000000007900FWFL00    05DNHAPPY HIPPIE             017162    VD84000000007900 N  549976487134                            000000000+                F DF 10433                     000000000  Y000000000 338   0000000000000.00 0000000.00   0000000.00                             000000000000000                                                                                                                                                     01418 A000000000000 0000000000000.26     00050 02200                  
02027850125620043DT67590675900000002881800888800000010180088824001193005900011100151010520230000000522900523000000000102189422921XXXXXX4105       VS11    0001111   NYV1 A E583005727753614N8400000000052297DBX00    05DNHAPPY HIPPIE             054776    VD84000000005229 N  549976487134                            000000000+                F DF 00381                     000000000  N000000000       0000000000000.00 0000000.00   0000000.00                             000000000000000                                                                                                                                                     01418 A000000000000 0000000000000.57     00800 01500                  
02027860125620044DT67590675900000002881800888800000010180088824001193005900011100169010520230000000187600523000000000102189422921XXXXXX9423       VS11    0001111   NYV1 A E463005794693817N840000000001876KFSF00    05DNHAPPY HIPPIE             061470    VD84000000001876 N  549976487134                            000000000+                F DF 00381                     000000000  N000000000       0000000000000.00 0000000.00   0000000.00                             000000000000000                                                                                                                                                     01418 A000000000000 0000000000000.30     00800 01500                  
02027870125620045DT67590675900000002881800888800000010180088877287283005900011100179010520230000000021800523000000000102189531260XXXXXX9498       MS02WI09          NY 1 0 AMDJKUGC200105  N840000000000218          05DNHAPPY HIPPIE             100335    MD84000000000218 N  549976487134                            000000000+M10101C5434C    MDJ  10831                     000000000  1                0000000000000.00 0000000.00   0000000.00                             000000000000000                                                                                                                                                   B101418  000000000000 0000000000000.22     00050 02200                  
02027880125620046DT67590675900000002881800888800000033080088876759003005900011100081010520230000000746000523000000000102189427088XXXXXX0748                         NY 2 0 N               N840000000007460      IL  05DNHAPPY HIPPIE             422990    DB84000000007460 N  549976487134                            000000000+                     09580                                Y          342   0000000000000.00 0000000.00   0000000.00                             000000000000000                                                                                                                                                     01418  000000000000 0000000000000.26     00050 00000                  
02027890125620047DT67590675900000002881800888800000033080088876759003005900011100099010520230000000175400523000000000102189480639XXXXXX6446                         NY 2 0 N               N840000000001754      IL  05DNHAPPY HIPPIE             249022    DB84000000001754 N  549976487134                            000000000+                     09590                                N          279   0000000000000.00 0000000.00   0000000.00                             000000000000000                                                                                                                                                     01418  000000000000 0000000000000.29     00800 00000                  
