03014790399620002BH6759067590000001165080088880000090170217202304823000000000070089    0000090001060019N8008886759C02192023                                                                                                                                                                                                                                                                                                                                                                                                                                                                                                                                                                                                 
03014800399620003DT67590675900000011650800888800000010180088824001193048900010600010021620230000000283904823000000000070089414720XXXXXX9764       VS11    0001111   NYV1 A E383047637907251N8400000000028397WPZ00    07DNVPODS HOLDING INC        09316C    VS84000000002839 N  599977032122                            000000000+                C CC 12112                     000000000  N000000000 497   0000000000000.00 0000000.00   0000000.00                             000000000000000                                                                                                                                                     01418 A000000000000 0000000000000.57     01650 01000                  
03014810399620004DT67590675900000011650800888800000010180088824001193048900010600028021620230000001022004823000000000070089483313XXXXXX1677       VS11    0001111   NYV1 A E463047666012279N8400000000102202JTZ00    05DNVPODS HOLDING INC        013013    VD84000000010220 N  599977032122                            000000000+                F DF 10433                     000000000  Y000000000 338   0000000000000.00 0000000.00   0000000.00                             000000000000000                                                                                                                                                     01418 A000000000000 0000000000000.27     00050 02200                  
03014820399620005DT67590675900000011650800888800000010180088824001193048900010600036021620230000000283904823000000000070089408138XXXXXX9540       VS11    0001111   NYV1 A E583047669547262N840000000002839KXV800    07DNVPODS HOLDING INC        457122    VD84000000002839 N  599977032122                            000000000+                F PF 08170                     000000000  N000000000       0000000000000.00 0000000.00   0000000.00                             000000000000000                                                                                                                                                     01418 A000000000000 0000000000000.48     01150 01500                  
03014830399620006DT67590675900000011650800888800000010180088876509753048900010600042021620230000000283804823000000000070089601101XXXXXX8951   BA05                  NY41 0 N873040292218217N840000000002838    00    07DNVPODS HOLDING INC        01604R    DS84000000002838 N  599977032122830                         000000000+0000004910H00   DCCDI01000666189  141341000000 000000000  0          112   0000000000000.00 0000000.00   0000000.00                             000000000000000                                                                                                                                                     01418  000000000000 0000000000000.59     01720 01000                  
03014840399620007DT67590675900000011650800888800000010180088824001193048900010600051021620230000000227004823000000000070089487000XXXXXX0952       VS11    0001111   NYV1 A E583047771237026N84000000000227069NK00    07DNVPODS HOLDING INC        042516    VD84000000002270 N  599977032122                            000000000+                F DF 10433                     000000000  Y000000000 338   0000000000000.00 0000000.00   0000000.00                             000000000000000                                                                                                                                                     01418 A000000000000 0000000000000.23     00050 02200                  
03014850399620008DT67590675900000011650800888800000010180088824001193048900010600069021620230000000340504823000000000070089438857XXXXXX6363       VS11    0001111   NYV1 A E463047788081017N840000000003405S6VW00    07DNVPODS HOLDING INC        09871D    VS84000000003405 N  599977032122                            000000000+                D CD 12113                     000000000  N000000000 499   0000000000000.00 0000000.00   0000000.00                             000000000000000                                                                                                                                                     01418 A000000000000 0000000000000.82     02100 01000                  
03014860399620009DT67590675900000011650800888800000010180088824001193048900010600077021620230000000567504823000000000070089426684XXXXXX3513       VS11    0001111   NYV1 A E583047793980061N840000000005675QTHB00    07DNVPODS HOLDING INC        09550B    VS84000000005675 N  599977032122                            000000000+                B CB 12111                     000000000  N000000000 495   0000000000000.00 0000000.00   0000000.00                             000000000000000                                                                                                                                                     01418 A000000000000 0000000000001.04     01650 01000                  
03014870399620010DT67590675900000011650800888800000010180088824001193048900010600085021620230000000618004823000000000070089422968XXXXXX3803       VS11    0001111   NYV1 A E463047830503857N840000000006180F6R200    05DNVPODS HOLDING INC        B76651    VD84000000006180 N  599977032122                            000000000+                F DF 10433                     000000000  Y000000000 338   0000000000000.00 0000000.00   0000000.00                             000000000000000                                                                                                                                                     01418 A000000000000 0000000000000.25     00050 02200                  
03014880399620011DT67590675900000011650800888800000010180088824001193048900010600093021620230000000340504823000000000070089482406XXXXXX6706       VS11    0001111   NYV1 A E383047836258864N840000000003405D3JL00    07DNVPODS HOLDING INC        051318    VD84000000003405 N  599977032122                            000000000+                F DF 10433                     000000000  Y000000000 338   0000000000000.00 0000000.00   0000000.00                             000000000000000                                                                                                                                                     01418 A000000000000 0000000000000.24     00050 02200                  
03014890399620012DT67590675900000011650800888800000010180088824001193048900010600101021620230000000340504823000000000070089426684XXXXXX1439       VS11    0001111   NYV1 A E383047840360662N8400000000034053LJC00    07DNVPODS HOLDING INC        01112D    VS84000000003405 N  599977032122                            000000000+                D CD 12113                     000000000  N000000000 499   0000000000000.00 0000000.00   0000000.00                             000000000000000                                                                                                                                                     01418 A000000000000 0000000000000.82     02100 01000                  
03014900399620013DT67590675900000011650800888800000010180088824001193048900010600119021620230000000351304823000000000070089491712XXXXXX1435       VS11    0001111   NYV1 A E463047852426272N840000000003513PR3C00    07DNVPODS HOLDING INC        024018    VD84000000003513 N  599977032122                            000000000+                F DF 10433                     000000000  Y000000000 338   0000000000000.00 0000000.00   0000000.00                             000000000000000                                                                                                                                                     01418 A000000000000 0000000000000.24     00050 02200                  
03014910399620014DT67590675900000011650800888800000010180088824001193048900010600127021620230000000113404823000000000070089491712XXXXXX1435       VK04VS111111111   NYV1 A E463047853713253N840000000001134P3HJ00    07DNVPODS HOLDING INC        014218    VD84000000001134 N  599977032122                            000000000+                F DF 10439                     000000000  Y000000000 331   0000000000000.00 0000000.00   0000000.00                             000000000000000                                                                                                                                                     01418 F000000000000 0000000000000.23     00050 02200                  
03014920399620015DT67590675900000011650800888800000010180088873011003048900010600131021620230000000544704823000000000070089374645XXXXX1007                          NY 1 0 N006526621891074N840000000005447          07DNVPODS HOLDINGS INC       886454    AM84000000005447 N  599977032122                            000000000+51010X55434C 258     11261                     000000000                   0000000000000.00 0000000.00   0000000.00                             000000000000000 61248972086759675900000011650 VPODS HOLDINGS INC       2527 N LINCOLN AVE       7732092463      60614     SMOKEDREAMS2@ICLOUD.COM                   01418  000000000000 0000000000000.97     01600 00000                  
03014930399620016DT67590675900000011650800888800000010180088824001193048900010600143021620230000000272304823000000000070089403784XXXXXX8243       VS11    0001111   NYV1 A E383048040831168N840000000002723TDMD00    07DNVPODS HOLDING INC        916180    VS84000000002723 N  599977032122                            000000000+                C CC 12112                     000000000  N000000000 497   0000000000000.00 0000000.00   0000000.00                             000000000000000                                                                                                                                                     01418 A000000000000 0000000000000.55     01650 01000                  
03014940399620017DT67590675900000011650800888800000010180088824001193048900010600150021620230000000465004823000000000070089482915XXXXXX8273       VS11    0001111   NYV1 A E463048047246555N840000000004650KFJT00    07DNVPODS HOLDING INC        051820    VD84000000004650 N  599977032122                            000000000+                F DF 10433                     000000000  Y000000000 338   0000000000000.00 0000000.00   0000000.00                             000000000000000                                                                                                                                                     01418 A000000000000 0000000000000.24     00050 02200                  
03014950399620018DT67590675900000011650800888800000010180088877287283048900010600160021620230000000313204823000000000070089515676XXXXXX0524       MS02WI09          NY 1 0 AMWECRSRQQ0216  N840000000003132          07DNVPODS HOLDING INC        00133Z    MC84000000003132 N  599977032122                            000000000+M10101M0034C    MWE  00739                     000000000  N                0000000000000.00 0000000.00   0000000.00                             000000000000000                                                                                                                                                   B101418  000000000000 0000000000000.82     02300 01000                  
03014960399620019DT67590675900000011650800888800000010180088824001193048900010600176021620230000000283804823000000000070089414720XXXXXX7669       VS11    0001111   NYV1 A E583048101906629N840000000002838C9X800    07DNVPODS HOLDING INC        08513I    VS84000000002838 N  599977032122                            000000000+                I CI 12113                     000000000  N000000000 499   0000000000000.00 0000000.00   0000000.00                             000000000000000                                                                                                                                                     01418 A000000000000 0000000000000.70     02100 01000                  
03014970399620020DT67590675900000011650800888800000010180088824001193048900010600184021620230000000100104823000000000070089414720XXXXXX1859       VK04VS111111111   NYV1 A E583048115938678N840000000001001DMKJ00    07DNVPODS HOLDING INC        09412I    VS84000000001001 N  599977032122                            000000000+                I CI 12113                     000000000  N000000000 499   0000000000000.00 0000000.00   0000000.00                             000000000000000                                                                                                                                                     01418 F000000000000 0000000000000.31     02100 01000                  
03014980399620021DT67590675900000011650800888800000010180088824001193048900010600192021620230000000257504823000000000070089420767XXXXXX9555       VS11    0001111   NYV1 A E583048128913822N840000000002575VQHH00    07DNVPODS HOLDING INC        013422    VD84000000002575 N  599977032122                            000000000+                F DF 10433                     000000000  Y000000000 338   0000000000000.00 0000000.00   0000000.00                             000000000000000                                                                                                                                                     01418 A000000000000 0000000000000.23     00050 02200                  
03014990399620022BH6759067590000000288180088880000090170217202304823000000000035019    0000090001470009N8008886759C02192023                                                                                                                                                                                                                                                                                                                                                                                                                                                                                                                                                                                                 
03015000399620023DT67590675900000002881800888800000010180088824001193048900014700014021720230000000158004823000000000035019486897XXXXXX8737       VS11    0001111   NYV1 A E303048587305260N840000000001580KQJL00    07DNHAPPY HIPPIE             081745    VD84000000001580 N  549976487134                            000000000+                F DF 10433                     000000000  Y000000000 338   0000000000000.00 0000000.00   0000000.00                             000000000000000                                                                                                                                                     01418 A000000000000 0000000000000.23     00050 02200                  
03015010399620024DT67590675900000002881800888800000010180088824001193048900014700022021720230000000195004823000000000035019443264XXXXXX3780       VS11    0001111   NYV1 A E383048606015255N840000000001950DNDQ00    05DNHAPPY HIPPIE             007269    VD84000000001950 N  549976487134                            000000000+                F DF 10433                     000000000  Y000000000 338   0000000000000.00 0000000.00   0000000.00                             000000000000000                                                                                                                                                     01418 A000000000000 0000000000000.23     00050 02200                  
03015020399620025DT67590675900000002881800888800000010180088824001193048900014700030021720230000000493804823000000000035019461608XXXXXX6824       VS11    0001111   NYV1 A E583048617528150N840000000004938DJVC00    05DNHAPPY HIPPIE             91241A    VS84000000004938 N  549976487134                            000000000+                A CA 12110                     000000000  N000000000 493   0000000000000.00 0000000.00   0000000.00                             000000000000000                                                                                                                                                     01418 A000000000000 0000000000000.85     01510 01000                  
03015030399620026DT67590675900000002881800888800000010180088824001193048900014700048021720230000000329104823000000000035019415977XXXXXX4472       VS11    0001111   NYV1 A E463048623824600N840000000003291P4WR00    05DNHAPPY HIPPIE             062473    VD84000000003291 N  549976487134                            000000000+                F DF 10433                     000000000  Y000000000 338   0000000000000.00 0000000.00   0000000.00                             000000000000000                                                                                                                                                     01418 A000000000000 0000000000000.24     00050 02200                  
03015040399620027DT67590675900000002881800888800000010180088824001193048900014700055021720230000000691304823000000000035019449507XXXXXX6597       VS11    0001111   NYV1 A E463048660298788N840000000006913WQDW00    05DNHAPPY HIPPIE             032029    VD84000000006913 N  549976487134                            000000000+                F DF 00381                     000000000  N000000000       0000000000000.00 0000000.00   0000000.00                             000000000000000                                                                                                                                                     01418 A000000000000 0000000000000.70     00800 01500                  
03015050399620028DT67590675900000002881800888800000010180088877287283048900014700065021720230000000350904823000000000035019536901XXXXXX3841       MS02WI09          NY 1 0 AMDJF2515D0217  N840000000003509          05DNHAPPY HIPPIE             018008    MD84000000003509 N  549976487134                            000000000+M10101C5434C    MDJ  00402                     000000000  N                0000000000000.00 0000000.00   0000000.00                             000000000000000                                                                                                                                                   B101418  000000000000 0000000000000.52     01050 01500                  
03015060399620029DT67590675900000002881800888800000010180088824001193048900014700071021720230000000395004823000000000035019419090XXXXXX3459       VS11    0001111   NYV1 A E303048666993069N840000000003950LB8500    05DNHAPPY HIPPIE             662829    VD84000000003950 N  549976487134                            000000000+                F DF 00381                     000000000  N000000000       0000000000000.00 0000000.00   0000000.00                             000000000000000                                                                                                                                                     01418 A000000000000 0000000000000.47     00800 01500                  
03015070399620030DT67590675900000002881800888800000010180088877287283048900014700081021720230000000395004823000000000035019523914XXXXXX8023       MS02WI09          NY 1 0 AMCWFD2C6Q0217  N840000000003950          05DNHAPPY HIPPIE             09612W    MC84000000003950 N  549976487134                            000000000+M10101C5434C    MCW  00364                     000000000  N                0000000000000.00 0000000.00   0000000.00                             000000000000000                                                                                                                                                   B101418  000000000000 0000000000000.75     01800 00400                  
03015080399620031DT67590675900000002881800888800000010180088877287283048900014700099021720230000000493804823000000000035019511953XXXXXX4892       MS02WI09          NY 1 0 AMDJXU2P6P0217  N840000000004938          05DNHAPPY HIPPIE             061131    MD84000000004938 N  549976487134                            000000000+M10101C5434C    MDJ  00402                     000000000  N                0000000000000.00 0000000.00   0000000.00                             000000000000000                                                                                                                                                   B101418  000000000000 0000000000000.67     01050 01500                  
03015090399620032BH6759067590000000288180088880000090170217202304823000000000177009    0000090001480032N8008886759C02192023                                                                                                                                                                                                                                                                                                                                                                                                                                                                                                                                                                                                 
03015100399620033DT67590675900000002881800888800000010180088824001193048900014800012021720230000003180204823000000000177009421069XXXXXX7446       PS01    0000000   NYV1 J N383048548940875N840000000031802L4MQ00    01DNHAPPY HIPPIE             002300    VD84000000031802 N  549976487158                            000000000+                F DF 00425                     000000000  N000000010       0000000000000.00 0000000.00   0000000.00                             000000000000000                                                                                                                                                     01418  000000000000 0000000000005.77     01750 02000                  
03015110399620034DT67590675900000002881800888800000010180088824001193048900014800020021720230000000444404823000000000177009472776XXXXXX6709       VS11    0001111   NYV1 A E583048568800830N840000000004444K5WZ00    90DNHAPPY HIPPIE             044227    VD84000000004444 N  549976487158                            000000000+                F PF 08170                     000000000  N000000000       0000000000000.00 0000000.00   0000000.00                             000000000000000                                                                                                                                                     01418 A000000000000 0000000000000.66     01150 01500                  
03015120399620035DT67590675900000002881800888800000010180088877287283048900014800030021720230000000362104823000000000177009515676XXXXXX9384       MS02WI09          NY 1 0 AMWEUUQ1L90217  N840000000003621          05DNHAPPY HIPPIE             04598Z    MC84000000003621 N  549976487158                            000000000+M10101C5434C    MWE  00743                     000000000  N                0000000000000.00 0000000.00   0000000.00                             000000000000000                                                                                                                                                   B101418  000000000000 0000000000000.87     02300 00400                  
03015130399620036DT67590675900000002881800888800000010180088877287283048900014800048021720230000000591304823000000000177009511953XXXXXX6375       MS02WI09          NY 1 0 AMDJD6K5L90217  N840000000005913          05DNHAPPY HIPPIE             049548    MD84000000005913 N  549976487158                            000000000+M10101C5434C    MDJ  00402                     000000000  N                0000000000000.00 0000000.00   0000000.00                             000000000000000                                                                                                                                                   B101418  000000000000 0000000000000.77     01050 01500                  
03015140399620037DT67590675900000002881800888800000010180088877287283048900014800055021720230000000581504823000000000177009511301XXXXXX7975       MS02WI09          NY 1 0 AMDJYCV6L80217  N840000000005815          05DNHAPPY HIPPIE             010756    MD84000000005815 N  549976487158                            000000000+M10101C5434C    MDJ  00402                     000000000  N                0000000000000.00 0000000.00   0000000.00                             000000000000000                                                                                                                                                   B101418  000000000000 0000000000000.76     01050 01500                  
03015150399620038DT67590675900000002881800888800000010180088877287283048900014800063021720230000000329104823000000000177009553811XXXXXX0873       MS02WI09          NY 1 0 AMDSLATH6P0217  N840000000003291          05DNHAPPY HIPPIE             627262    MD84000000003291 N  549976487158                            000000000+M10101C5434C    MDS  00402                     000000000  N                0000000000000.00 0000000.00   0000000.00                             000000000000000                                                                                                                                                   B101418  000000000000 0000000000000.50     01050 01500                  
03015160399620039DT67590675900000002881800888800000010180088824001193048900014800079021720230000000197404823000000000177009422921XXXXXX2053       VS11    0001111   NYV1 A E383048646788455N8400000000019748C8J00    05DNHAPPY HIPPIE             046680    VD84000000001974 N  549976487158                            000000000+                F DF 00381                     000000000  N000000000       0000000000000.00 0000000.00   0000000.00                             000000000000000                                                                                                                                                     01418 A000000000000 0000000000000.31     00800 01500                  
03015170399620040DT67590675900000002881800888800000010180088877287283048900014800089021720230000000592404823000000000177009511953XXXXXX9825       MS02WI09          NY 1 0 AMDJV7L26P0217  N840000000005924          05DNHAPPY HIPPIE             053965    MD84000000005924 N  549976487158                            000000000+M10101C5434C    MDJ  00402                     000000000  N                0000000000000.00 0000000.00   0000000.00                             000000000000000                                                                                                                                                   B101418  000000000000 0000000000000.77     01050 01500                  
03015180399620041DT67590675900000002881800888800000010180088824001193048900014800095021720230000000246804823000000000177009443238XXXXXX9381       VS11    0001111   NYV1 A E303048681711836N840000000002468JPVH00    07DNHAPPY HIPPIE             035611    VD84000000002468 N  549976487158                            000000000+                F DF 00381                     000000000  N000000000       0000000000000.00 0000000.00   0000000.00                             000000000000000                                                                                                                                                     01418 A000000000000 0000000000000.35     00800 01500                  
03015190399620042DT67590675900000002881800888800000010180088824001193048900014800103021720230000000987604823000000000177009422921XXXXXX2826       VS11    0001111   NYV1 A E463048684264617N84000000000987675P600    05DNHAPPY HIPPIE             050427    VD84000000009876 N  549976487158                            000000000+                F DF 00381                     000000000  N000000000       0000000000000.00 0000000.00   0000000.00                             000000000000000                                                                                                                                                     01418 A000000000000 0000000000000.94     00800 01500                  
03015200399620043DT67590675900000002881800888800000010180088873011003048900014800117021720230000000651704823000000000177009379282XXXXX1017                          NY 1 0 N007116668083063N840000000006517          05DNHAPPY HIPPIE             857360    AM84000000006517 N  549976487158                            000000000+51010155434C 258     11261                     000000000                   0000000000000.00 0000000.00   0000000.00                             000000000000000 61248972086759675900000002881 HAPPY HIPPIE             832 PARKWAY              8656540830      37862     HAPPYHIPPIE832@GMAIL.COM                  01418  000000000000 0000000000001.14     01600 00000                  
03015210399620044DT67590675900000002881800888800000010180088824001193048900014800129021720230000000114804823000000000177009421783XXXXXX0286       VK04VS111111111   NYV1 A E303048691125731N840000000001148FLD400    05DNHAPPY HIPPIE             016374    VS84000000001148 N  549976487158                            000000000+                A CA 12053                     000000000  N000000000 450   0000000000000.00 0000000.00   0000000.00                             000000000000000                                                                                                                                                     01418 F000000000000 0000000000000.22     01900 00000                  
03015220399620045DT67590675900000002881800888800000010180088824001193048900014800137021720230000000256604823000000000177009445101XXXXXX9188       VS11    0001111   NYV1 A E383048691790317N8400000000025669RHV00    05DNHAPPY HIPPIE             472934    VD84000000002566 N  549976487158                            000000000+                F DF 10433                     000000000  Y000000000 338   0000000000000.00 0000000.00   0000000.00                             000000000000000                                                                                                                                                     01418 A000000000000 0000000000000.23     00050 02200                  
03015230399620046DT67590675900000002881800888800000010180088824001193048900014800145021720230000000087704823000000000177009429413XXXXXX2653       VK04VS111111111   NYV1 A E383048699789147N8400000000008776N2N00    05DNHAPPY HIPPIE             257785    VD84000000000877 N  549976487158                            000000000+                F DF 00451                     000000000  N000000000 214   0000000000000.00 0000000.00   0000000.00                             000000000000000                                                                                                                                                     01418 F000000000000 0000000000000.18     01550 00400                  
03015240399620047DT67590675900000002881800888800000010180088824001193048900014800152021720230000000316104823000000000177009419090XXXXXX5725       VS11    0001111   NYV1 A E463048701442542N8400000000031613T2C00    05DNHAPPY HIPPIE             664866    VD84000000003161 N  549976487158                            000000000+                F DF 00381                     000000000  N000000000       0000000000000.00 0000000.00   0000000.00                             000000000000000                                                                                                                                                     01418 A000000000000 0000000000000.40     00800 01500                  
03015250399620048DT67590675900000002881800888800000010180088824001193048900014800160021720230000000039404823000000000177009419090XXXXXX5725       VK04VS111111111   NYV1 A E303048702030179N840000000000394BJCS00    05DNHAPPY HIPPIE             664908    VD84000000000394 N  549976487158                            000000000+                F DF 00451                     000000000  N000000000 214   0000000000000.00 0000000.00   0000000.00                             000000000000000                                                                                                                                                     01418 F000000000000 0000000000000.10     01550 00400                  
03015260399620049DT67590675900000002881800888800000010180088824001193048900014800178021720230000000448804823000000000177009445101XXXXXX0323       VS11    0001111   NYV1 A E303048718563785N840000000004488DFH500    05DNHAPPY HIPPIE             501174    VD84000000004488 N  549976487158                            000000000+                F DF 10433                     000000000  Y000000000 338   0000000000000.00 0000000.00   0000000.00                             000000000000000                                                                                                                                                     01418 A000000000000 0000000000000.24     00050 02200                  
03015270399620050DT67590675900000002881800888800000010180088824001193048900014800186021720230000000493804823000000000177009402087XXXXXX5512       VS11    0001111   NYV1 A E463048720736814N840000000004938THKR00    05DNHAPPY HIPPIE             691633    VD84000000004938 N  549976487158                            000000000+                F DF 00381                     000000000  N000000000       0000000000000.00 0000000.00   0000000.00                             000000000000000                                                                                                                                                     01418 A000000000000 0000000000000.55     00800 01500                  
03015280399620051DT67590675900000002881800888800000010180088824001193048900014800194021720230000000224804823000000000177009498503XXXXXX3051       VS11    0001111   NYV1 A E383048727689630N840000000002248VWTG00    05DNHAPPY HIPPIE             080848    VD84000000002248 N  549976487158                            000000000+                F DF 00381                     000000000  N000000000       0000000000000.00 0000000.00   0000000.00                             000000000000000                                                                                                                                                     01418 A000000000000 0000000000000.33     00800 01500                  
03015290399620052DT67590675900000002881800888800000010180088877287283048900014800204021720230000000207304823000000000177009517282XXXXXX6952       MS02WI09          NY 1 0 AMDJNO9C6O0217  N840000000002073          05DNHAPPY HIPPIE             068095    MD84000000002073 N  549976487158                            000000000+M10101C5434C    MDJ  00402                     000000000  N                0000000000000.00 0000000.00   0000000.00                             000000000000000                                                                                                                                                   B101418  000000000000 0000000000000.37     01050 01500                  
03015300399620053DT67590675900000002881800888800000010180088824001193048900014800210021720230000000493504823000000000177009480639XXXXXX4200       VS11    0001111   NYV1 A E583048735485123N840000000004935XRKV00    05DNHAPPY HIPPIE             239830    VD84000000004935 N  549976487158                            000000000+                F DF 00381                     000000000  N000000000       0000000000000.00 0000000.00   0000000.00                             000000000000000                                                                                                                                                     01418 A000000000000 0000000000000.54     00800 01500                  
03015310399620054DT67590675900000002881800888800000010180088824001193048900014800228021720230000000146804823000000000177009435547XXXXXX9872       VK04VS111111111   NYV1 A E303048741145962N840000000001468PCGT00    05DNHAPPY HIPPIE             072083    VD84000000001468 N  549976487158                            000000000+                F DF 10439                     000000000  Y000000000 331   0000000000000.00 0000000.00   0000000.00                             000000000000000                                                                                                                                                     01418 F000000000000 0000000000000.23     00050 02200                  
03015320399620055DT67590675900000002881800888800000010180088824001193048900014800236021720230000000592404823000000000177009422921XXXXXX9546       VS11    0001111   NYV1 A E583048749518700N840000000005924NDJV00    05DNHAPPY HIPPIE             056952    VD84000000005924 N  549976487158                            000000000+                F DF 00381                     000000000  N000000000       0000000000000.00 0000000.00   0000000.00                             000000000000000                                                                                                                                                     01418 A000000000000 0000000000000.62     00800 01500                  
03015330399620056DT67590675900000002881800888800000010180088824001193048900014800244021720230000000691304823000000000177009415978XXXXXX1455       VS11    0001111   NYV1 A E583048753754515N840000000006913K6PM00    05DNHAPPY HIPPIE             023439    VD84000000006913 N  549976487158                            000000000+                F DF 10433                     000000000  Y000000000 338   0000000000000.00 0000000.00   0000000.00                             000000000000000                                                                                                                                                     01418 A000000000000 0000000000000.25     00050 02200                  
03015340399620057DT67590675900000002881800888800000010180088824001193048900014800251021720230000000404804823000000000177009480639XXXXXX8681       VS11    0001111   NYV1 A E303048761523949N840000000004048CF9R00    05DNHAPPY HIPPIE             241202    VD84000000004048 N  549976487158                            000000000+                F DF 00381                     000000000  N000000000       0000000000000.00 0000000.00   0000000.00                             000000000000000                                                                                                                                                     01418 A000000000000 0000000000000.47     00800 01500                  
03015350399620058DT67590675900000002881800888800000010180088824001193048900014800269021720230000001255604823000000000177009443264XXXXXX7710       VS11    0001111   NYV1 A E303048770219601N8400000000125567C3Q00    05DNHAPPY HIPPIE             015528    VD84000000012556 N  549976487158                            000000000+                F DF 10433                     000000000  Y000000000 338   0000000000000.00 0000000.00   0000000.00                             000000000000000                                                                                                                                                     01418 A000000000000 0000000000000.28     00050 02200                  
03015360399620059DT67590675900000002881800888800000010180088824001193048900014800277021720230000000768104823000000000177009435546XXXXXX4639       VS11    0001111   NYV1 A E463048778748252N840000000007681268H00    05DNHAPPY HIPPIE             033073    VD84000000007681 N  549976487158                            000000000+                F DF 10433                     000000000  Y000000000 338   0000000000000.00 0000000.00   0000000.00                             000000000000000                                                                                                                                                     01418 A000000000000 0000000000000.26     00050 02200                  
03015370399620060DT67590675900000002881800888800000010180088824001193048900014800285021720230000000632104823000000000177009415978XXXXXX3096       VS11    0001111   NYV1 A E463048795226459N840000000006321PPHZ00    05DNHAPPY HIPPIE             024994    VD84000000006321 N  549976487158                            000000000+                F DF 10433                     000000000  Y000000000 338   0000000000000.00 0000000.00   0000000.00                             000000000000000                                                                                                                                                     01418 A000000000000 0000000000000.25     00050 02200                  
03015380399620061DT67590675900000002881800888800000010180088824001193048900014800293021720230000000319604823000000000177009443238XXXXXX6040       VS11    0001111   NYV1 A E463048797546350N8400000000031966STN00    05DNHAPPY HIPPIE             070914    VD84000000003196 N  549976487158                            000000000+                F DF 00381                     000000000  N000000000       0000000000000.00 0000000.00   0000000.00                             000000000000000                                                                                                                                                     01418 A000000000000 0000000000000.41     00800 01500                  
03015390399620062DT67590675900000002881800888800000010180088824001193048900014800301021720230000000541804823000000000177009445102XXXXXX6903       VS11    0001111   NYV1 A E463048801458076N840000000005418KT2D00    05DNHAPPY HIPPIE             583485    VD84000000005418 N  549976487158                            000000000+                F DF 10433                     000000000  Y000000000 338   0000000000000.00 0000000.00   0000000.00                             000000000000000                                                                                                                                                     01418 A000000000000 0000000000000.25     00050 02200                  
03015400399620063DT67590675900000002881800888800000010180088824001193048900014800319021720230000001185004823000000000177009463405XXXXXX6925       VS11    0001111   NYV1 A E383048810341063N8400000000118505XBZ00    05DNHAPPY HIPPIE             030417    VD84000000011850 N  549976487158                            000000000+                F DF 10433                     000000000  Y000000000 338   0000000000000.00 0000000.00   0000000.00                             000000000000000                                                                                                                                                     01418 A000000000000 0000000000000.28     00050 02200                  
03015410399620064DT67590675900000002881800888800000010180088824001193048900014800327021720230000000316104823000000000177009419090XXXXXX6367       VS11    0001111   NYV1 A E583048824519896N840000000003161JMW700    05DNHAPPY HIPPIE             672201    VD84000000003161 N  549976487158                            000000000+                F DF 00381                     000000000  N000000000       0000000000000.00 0000000.00   0000000.00                             000000000000000                                                                                                                                                     01418 A000000000000 0000000000000.40     00800 01500                  
03015420399620065BH6759067590000000215480088880000090170217202304823000000000092320    0000090001110215N8008886759C02192023                                                                                                                                                                                                                                                                                                                                                                                                                                                                                                                                                                                                 
03015430399620066DT67590675900000002154800888800000010180088824001193048900011125272021720230000003400004823000000000092320463589XXXXXX3991               2111111   NYV4 A7W383048450484764N840000000034000KXMD00    01DNDRIP DROP DISTRO LLC     123108    VD84000000034000 NP1519971004114   INV-000657               000000000+                G DG 10352                     000000000  Y000000000 338   0000000000000.00 0000000.00   0000000.00                             000000000000000                                                                                                                                                     01418 G000000034000 0000000000000.39     00050 02200                  
03015440399620001P16759067590000000215480088880000001010000000000000000    43946543242              2000000000000000000000000              000000000000                    0000000000000000000000000                    000000000000                                                                                                                                                                                                                                                                                                                                                                                                                                                                                        
03015450399620067DT67590675900000002154800888800000010180088824001193048900011102156021720230000005832004823000000000092320426930XXXXXX0531               2111111   NYV4 A7W303048612408324N840000000058320PMBB00    01DNDRIP DROP DISTRO LLC     01236G    VB84000000058320 NP1519971004114   INV-000793               000000000+                G5CG511887                     000000000  N000000000 163   0000000000000.00 0000000.00   0000000.00                             000000000000000                                                                                                                                                     01418 G000000058320 0000000000017.60     03000 01000                  
03015460399620001P16759067590000000215480088880000001010000000000000000    43947089661              2000000000000000000000000              000000000000                    0000000000000000000000000                    000000000000                                                                                                                                                                                                                                                                                                                                                                                                                                                                                        
03015470399620068BH6759067590000000096880088880000090170217202304823000000000007735    0000090001443038N8008886759C02192023                                                                                                                                                                                                                                                                                                                                                                                                                                                                                                                                                                                                 
03015480399620069DT67590675900000000968800888800000010180088887287283048900014497554021720230000000128404823000000000007735521333XXXXXX4224       ME03KE06MS02      NY 4607AMWEG5KKMA0217  N840000000001284          81DNHIGHER FLOUR LLC         01704P    MC84000000001284 N  546200000001   r8lsNbP8HRLfE5QHVHvn     000000000+600450S00140    MWE  00737                     000000000  N                0000000000000.00 0000000.00   0000000.00                             000000000000000                                                                                                                                                   U001418  000000000000 0000000000000.43     02600 01000                  
03015490399620070DT67590675900000000968800888800000010180088824001193048900014430380021720230000000645104823000000000007735473702XXXXXX4584               2111111   NYV4 A7W583048675988430N840000000006451JVH700    01DNHIGHER FLOUR LLC         052488    VD84000000006451 NP1546271004114   R5PAIXF5OMGCSKQMWIVV     000000000+                F DF 10420                     000000000  Y000000000 338   0000000000000.00 0000000.00   0000000.00                             000000000000000                                                                                                                                                     01418 G000000006451 0000000000000.25     00050 02200                  
03015500399620001P16759067590000000096880088880000001010000000000000000                             2000000000000000000000000              000000000000                    0000000000000000000000000                    000000000000                                                                                                                                                                                                                                                                                                                                                                                                                                                                                        
03015510399620071BH6759067590000000708880010180000090170217202304823000000000124728    0000090001090042N8001016759C02192023                                                                                                                                                                                                                                                                                                                                                                                                                                                                                                                                                                                                 
03015520399620072DT67590675900000007088800101800000010180010124001193048900010900014021720230000000184604823000000000124728423223XXXXXX2802       VS11    0001111   NYV1 A E583048545465016N84000000000184699QF00    05DNPLANET VAPOR #200        013291    VD84000000001846 N  599976770268                            000000000+                F DF 00381                     000000000  N000000000       0000000000000.00 0000000.00   0000000.00                             000000000000000                                                                                                                                                     01418 A000000000000 0000000000000.30     00800 01500                  
03015530399620073DT67590675900000007088800101800000010180010124001193048900010900022021720230000000205104823000000000124728408138XXXXXX8709       VS11    0001111   NYV1 A E463048547447706N840000000002051DKCB00    07DNPLANET VAPOR #200        948172    VD84000000002051 N  599976770268                            000000000+                F PF 08170                     000000000  N000000000       0000000000000.00 0000000.00   0000000.00                             000000000000000                                                                                                                                                     01418 A000000000000 0000000000000.39     01150 01500                  
03015540399620074DT67590675900000007088800101800000010180010124001193048900010900030021720230000000356204823000000000124728434256XXXXXX4405       VS11    0001111   NYV1 A E303048558752804N840000000003562VTHG00    05DNPLANET VAPOR #200        082240    VD84000000003562 N  599976770268                            000000000+                F DF 10433                     000000000  Y000000000 338   0000000000000.00 0000000.00   0000000.00                             000000000000000                                                                                                                                                     01418 A000000000000 0000000000000.24     00050 02200                  
03015550399620075DT67590675900000007088800101800000010180010124001193048900010900048021720230000000097104823000000000124728440393XXXXXX2897       VK04VS111111111   NYV1 A E583048564468528N8400000000009715WV500    05DNPLANET VAPOR #200        542530    VD84000000000971 N  599976770268                            000000000+                F PF 08165                     000000000  N000000000       0000000000000.00 0000000.00   0000000.00                             000000000000000                                                                                                                                                     01418 F000000000000 0000000000000.21     01600 00500                  
03015560399620076DT67590675900000007088800101800000010180010124001193048900010900055021720230000000505204823000000000124728453506XXXXXX2088       VS11    0001111   NYV1 A E383048585472095N840000000005052XJSC00    05DNPLANET VAPOR #200        H06647    VD84000000005052 N  599976770268                            000000000+                F DF 10433                     000000000  Y000000000 338   0000000000000.00 0000000.00   0000000.00                             000000000000000                                                                                                                                                     01418 A000000000000 0000000000000.25     00050 02200                  
03015570399620077DT67590675900000007088800101800000010180010124001193048900010900063021720230000000213704823000000000124728400022XXXXXX8223       VS11    0001111   NYV1 A E583048609755075N840000000002137DX5Q00    05DNPLANET VAPOR #200        503181    VD84000000002137 N  599976770268                            000000000+                F DF 10433                     000000000  Y000000000 338   0000000000000.00 0000000.00   0000000.00                             000000000000000                                                                                                                                                     01418 A000000000000 0000000000000.23     00050 02200                  
03015580399620078DT67590675900000007088800101800000010180010124001193048900010900071021720230000000252604823000000000124728407535XXXXXX4287       VS11    0001111   NYV1 A E303048611852233N840000000002526SB4L00    90DNPLANET VAPOR #200        648931    VD84000000002526 N  599976770268                            000000000+                F PF 08170                     000000000  N000000000       0000000000000.00 0000000.00   0000000.00                             000000000000000                                                                                                                                                     01418 A000000000000 0000000000000.44     01150 01500                  
03015590399620079DT67590675900000007088800101800000010180010124001193048900010900089021720230000000446904823000000000124728440393XXXXXX5446       VS11    0001111   NYV1 A E583048616378396N840000000004469JXVK00    05DNPLANET VAPOR #200        399686    VD84000000004469 N  599976770268                            000000000+                F PF 08170                     000000000  N000000000       0000000000000.00 0000000.00   0000000.00                             000000000000000                                                                                                                                                     01418 A000000000000 0000000000000.66     01150 01500                  
03015600399620080DT67590675900000007088800101800000010180010124001193048900010900097021720230000000539704823000000000124728427199XXXXXX0117       VS11    0001111   NYV1 A E463048643482165N8400000000053979HNB00    05DNPLANET VAPOR #200        279374    VD84000000005397 N  599976770268                            000000000+                F DF 00381                     000000000  N000000000       0000000000000.00 0000000.00   0000000.00                             000000000000000                                                                                                                                                     01418 A000000000000 0000000000000.58     00800 01500                  
03015610399620081DT67590675900000007088800101800000010180010124001193048900010900105021720230000000237504823000000000124728410881XXXXXX8092       VS11    0001111   NYV1 A E303048649050973N840000000002375JPL400    05DNPLANET VAPOR #200        665305    VD84000000002375 N  599976770268                            000000000+                F DF 00381                     000000000  N000000000       0000000000000.00 0000000.00   0000000.00                             000000000000000                                                                                                                                                     01418 A000000000000 0000000000000.34     00800 01500                  
03015620399620082DT67590675900000007088800101800000010180010177287283048900010900115021720230000000313004823000000000124728539113XXXXXX3601       MS02WI09          NY 1 0 AMDJGCEF5D0217  N840000000003130          07DNPLANET VAPOR #200        123278    MD84000000003130 N  599976770268                            000000000+M10101M0034C    MDJ  10815                     000000000  1                0000000000000.00 0000000.00   0000000.00                             000000000000000                                                                                                                                                   A101418  000000000000 0000000000000.24     00050 02200                  
03015630399620083DT67590675900000007088800101800000010180010177287283048900010900123021720230000000067704823000000000124728531257XXXXXX7550       MS02WI09          NY 1 0 AMDJGNGU5D0217  N840000000000677          05DNPLANET VAPOR #200        124261    MD84000000000677 N  599976770268                            000000000+M10101C5434C    MDJ  10815                     000000000  1                0000000000000.00 0000000.00   0000000.00                             000000000000000                                                                                                                                                   B101418  000000000000 0000000000000.22     00050 02200                  
03015640399620084DT67590675900000007088800101800000010180010177287283048900010900131021720230000000184604823000000000124728514230XXXXXX2701       MS02WI09          NY 1 0 AMDJG1W15D0217  N840000000001846          05DNPLANET VAPOR #200        9C5703    MD84000000001846 N  599976770268                            000000000+M10101C5434C    MDJ  00402                     000000000  N                0000000000000.00 0000000.00   0000000.00                             000000000000000                                                                                                                                                   B101418  000000000000 0000000000000.34     01050 01500                  
03015650399620085DT67590675900000007088800101800000010180010124001193048900010900147021720230000000777404823000000000124728445785XXXXXX6950       VS11    0001111   NYV1 A E383048691297167N8400000000077749MLH00    05DNPLANET VAPOR #200        111209    VD84000000007774 N  599976770268                            000000000+                F PF 08170                     000000000  N000000000       0000000000000.00 0000000.00   0000000.00                             000000000000000                                                                                                                                                     01418 A000000000000 0000000000001.04     01150 01500                  
03015660399620086DT67590675900000007088800101800000010180010124001193048900010900154021720230000000375004823000000000124728438419XXXXXX3232       VS11    0001111   NYV1 A E463048693718736N840000000003750XF6H00    05DNPLANET VAPOR #200        041612    VD84000000003750 N  599976770268                            000000000+                F DF 00381                     000000000  N000000000       0000000000000.00 0000000.00   0000000.00                             000000000000000                                                                                                                                                     01418 A000000000000 0000000000000.45     00800 01500                  
03015670399620087DT67590675900000007088800101800000010180010124001193048900010900162021720230000000247604823000000000124728440393XXXXXX1700       VS11    0001111   NYV1 A E583048697324907N840000000002476LC2N00    05DNPLANET VAPOR #200        848401    VD84000000002476 N  599976770268                            000000000+                F PF 08170                     000000000  N000000000       0000000000000.00 0000000.00   0000000.00                             000000000000000                                                                                                                                                     01418 A000000000000 0000000000000.43     01150 01500                  
03015680399620088DT67590675900000007088800101800000010180010124001193048900010900170021720230000000427504823000000000124728400022XXXXXX0534       VS11    0001111   NYV1 A E583048709252000N840000000004275VL8W00    05DNPLANET VAPOR #200        632476    VD84000000004275 N  599976770268                            000000000+                F DF 10433                     000000000  Y000000000 338   0000000000000.00 0000000.00   0000000.00                             000000000000000                                                                                                                                                     01418 A000000000000 0000000000000.24     00050 02200                  
03015690399620089DT67590675900000007088800101800000010180010177287283048900010900180021720230000000194204823000000000124728525363XXXXXX2607       MS02WI09          NY 1 0 AMWEYQLA6P0217  N840000000001942          05DNPLANET VAPOR #200        22485Z    MC84000000001942 N  599976770268                            000000000+M10101C0034C    MWE  00739                     000000000  N                0000000000000.00 0000000.00   0000000.00                             000000000000000                                                                                                                                                   B101418  000000000000 0000000000000.55     02300 01000                  
03015700399620090DT67590675900000007088800101800000010180010124001193048900010900196021720230000000323804823000000000124728473703XXXXXX2355       VS11    0001111   NYV1 A E463048719975555N840000000003238B4C400    05DNPLANET VAPOR #200        039739    VD84000000003238 N  599976770268                            000000000+                F DF 10433                     000000000  Y000000000 338   0000000000000.00 0000000.00   0000000.00                             000000000000000                                                                                                                                                     01418 A000000000000 0000000000000.24     00050 02200                  
03015710399620091DT67590675900000007088800101800000010180010124001193048900010900204021720230000000213704823000000000124728483312XXXXXX6506       VS11    0001111   NYV1 A E303048725044571N840000000002137SCX500    05DNPLANET VAPOR #200        040815    VD84000000002137 N  599976770268                            000000000+                F DF 10433                     000000000  Y000000000 338   0000000000000.00 0000000.00   0000000.00                             000000000000000                                                                                                                                                     01418 A000000000000 0000000000000.23     00050 02200                  
03015720399620092DT67590675900000007088800101800000010180010124001193048900010900212021720230000000213704823000000000124728453506XXXXXX2781       VS11    0001111   NYV1 A E303048725809188N840000000002137DZ3500    05DNPLANET VAPOR #200        H43134    VD84000000002137 N  599976770268                            000000000+                F DF 10433                     000000000  Y000000000 338   0000000000000.00 0000000.00   0000000.00                             000000000000000                                                                                                                                                     01418 A000000000000 0000000000000.23     00050 02200                  
03015730399620093DT67590675900000007088800101800000010180010124001193048900010900220021720230000000437204823000000000124728418953XXXXXX1168       VS11    0001111   NYV1 A E463048727732187N840000000004372ZHPV00    05DNPLANET VAPOR #200        157631    VD84000000004372 N  599976770268                            000000000+                F DF 00381                     000000000  N000000000       0000000000000.00 0000000.00   0000000.00                             000000000000000                                                                                                                                                     01418 A000000000000 0000000000000.50     00800 01500                  
03015740399620094DT67590675900000007088800101800000010180010124001193048900010900238021720230000000647804823000000000124728400022XXXXXX0450       VS11    0001111   NYV1 A E303048731352337N840000000006478B83K00    05DNPLANET VAPOR #200        193706    VD84000000006478 N  599976770268                            000000000+                F DF 10433                     000000000  Y000000000 338   0000000000000.00 0000000.00   0000000.00                             000000000000000                                                                                                                                                     01418 A000000000000 0000000000000.25     00050 02200                  
03015750399620095DT67590675900000007088800101800000010180010124001193048900010900246021720230000000349704823000000000124728433477XXXXXX6849       VS11    0001111   NYV1 A E303048737518204N840000000003497HSRD00    05DNPLANET VAPOR #200        515654    VD84000000003497 N  599976770268                            000000000+                F DF 10433                     000000000  Y000000000 338   0000000000000.00 0000000.00   0000000.00                             000000000000000                                                                                                                                                     01418 A000000000000 0000000000000.24     00050 02200                  
03015760399620096DT67590675900000007088800101800000010180010177287283048900010900255021720230000000242904823000000000124728555832XXXXXX5402       MS02WI09          NY 1 0 AMDJZVEY6P0217  N840000000002429          05DNPLANET VAPOR #200        053432    MD84000000002429 N  599976770268                            000000000+M10101C5434C    MDJ  00402                     000000000  N                0000000000000.00 0000000.00   0000000.00                             000000000000000                                                                                                                                                   B101418  000000000000 0000000000000.41     01050 01500                  
03015770399620097DT67590675900000007088800101800000010180010124001193048900010900261021720230000000375004823000000000124728439808XXXXXX9652       VS11    0001111   NYV1 A E583048742588830N840000000003750DWKJ00    05DNPLANET VAPOR #200        053738    VD84000000003750 N  599976770268                            000000000+                F DF 00381                     000000000  N000000000       0000000000000.00 0000000.00   0000000.00                             000000000000000                                                                                                                                                     01418 A000000000000 0000000000000.45     00800 01500                  
03015780399620098DT67590675900000007088800101800000010180010124001193048900010900279021720230000000427504823000000000124728478357XXXXXX2836       VS11    0001111   NYV1 A E583048745774143N840000000004275ZLRW00    07DNPLANET VAPOR #200        078955    VD84000000004275 N  599976770268                            000000000+                F DF 00381                     000000000  N000000000       0000000000000.00 0000000.00   0000000.00                             000000000000000                                                                                                                                                     01418 A000000000000 0000000000000.49     00800 01500                  
03015790399620099DT67590675900000007088800101800000010180010124001193048900010900287021720230000000377904823000000000124728440393XXXXXX4027       VS11    0001111   NYV1 A E303048790652491N84000000000377989RV00    05DNPLANET VAPOR #200        373812    VD84000000003779 N  599976770268                            000000000+                F PF 08170                     000000000  N000000000       0000000000000.00 0000000.00   0000000.00                             000000000000000                                                                                                                                                     01418 A000000000000 0000000000000.58     01150 01500                  
03015800399620100DT67590675900000007088800101800000010180010124001193048900010900295021720230000000427504823000000000124728458643XXXXXX2146       VS11    0001111   NYV1 A E303048813001960N840000000004275FVVL00    05DNPLANET VAPOR #200        H67793    VD84000000004275 N  599976770268                            000000000+                F DF 10433                     000000000  Y000000000 338   0000000000000.00 0000000.00   0000000.00                             000000000000000                                                                                                                                                     01418 A000000000000 0000000000000.24     00050 02200                  
03015810399620101DT67590675900000007088800101800000010180010124001193048900010900303021720230000000446904823000000000124728415978XXXXXX2133       VS11    0001111   NYV1 A E583048825019425N8400000000044696RS400    05DNPLANET VAPOR #200        073441    VD84000000004469 N  599976770268                            000000000+                F DF 10433                     000000000  Y000000000 338   0000000000000.00 0000000.00   0000000.00                             000000000000000                                                                                                                                                     01418 A000000000000 0000000000000.24     00050 02200                  
03015820399620102DT67590675900000007088800101800000010180010177287283048900010900313021720230000000312904823000000000124728545443XXXXXX7336       MS02WI09          NY 1 0 AMDJFFVV320217  N840000000003129          05DNPLANET VAPOR #200        047205    MD84000000003129 N  599976770268                            000000000+M10101C5434C    MDJ  00402                     000000000  N                0000000000000.00 0000000.00   0000000.00                             000000000000000                                                                                                                                                   B101418  000000000000 0000000000000.48     01050 01500                  
03015830399620103DT67590675900000007088800101800000010180010124001193048900010900329021720230000000280704823000000000124728408540XXXXXX6786       VS11    0001111   NYV1 A E583048828053062N8400000000028072T8600    05DNPLANET VAPOR #200        070005    VD84000000002807 N  599976770268                            000000000+                G DG 10351                     000000000  Y000000000 338   0000000000000.00 0000000.00   0000000.00                             000000000000000                                                                                                                                                     01418 A000000000000 0000000000000.23     00050 02200                  
03015840399620104DT67590675900000007088800101800000010180010177287283048900010900339021720230000000256104823000000000124728531258XXXXXX4392       MS02WI09          NY 1 0 AMDJ6VAD850217  N840000000002561          05DNPLANET VAPOR #200        121435    MD84000000002561 N  599976770268                            000000000+M10101C5434C    MDJ  10815                     000000000  1                0000000000000.00 0000000.00   0000000.00                             000000000000000                                                                                                                                                   B101418  000000000000 0000000000000.23     00050 02200                  
03015850399620105DT67590675900000007088800101800000010180010124001193048900010900345021720230000000242904823000000000124728442755XXXXXX7025       VS11    0001111   NYV1 A E383048840885195N84000000000242945P200    05DNPLANET VAPOR #200        082118    VD84000000002429 N  599976770268                            000000000+                F DF 10433                     000000000  Y000000000 338   0000000000000.00 0000000.00   0000000.00                             000000000000000                                                                                                                                                     01418 A000000000000 0000000000000.23     00050 02200                  
03015860399620106DT67590675900000007088800101800000010180010124001193048900010900352021720230000000237504823000000000124728440393XXXXXX3767       VS11    0001111   NYV1 A E463048849331457N840000000002375PW9F00    05DNPLANET VAPOR #200        766239    VD84000000002375 N  599976770268                            000000000+                F PF 08170                     000000000  N000000000       0000000000000.00 0000000.00   0000000.00                             000000000000000                                                                                                                                                     01418 A000000000000 0000000000000.42     01150 01500                  
03015870399620107DT67590675900000007088800101800000010180010124001193048900010900360021720230000000237504823000000000124728440393XXXXXX3767       VS11    0001111   NYV1 A E383048850407715N840000000002375B4R300    05DNPLANET VAPOR #200        090787    VD84000000002375 N  599976770268                            000000000+                F PF 08170                     000000000  N000000000       0000000000000.00 0000000.00   0000000.00                             000000000000000                                                                                                                                                     01418 A000000000000 0000000000000.42     01150 01500                  
03015880399620108DT67590675900000007088800101800000010180010124001193048900010900378021720230000000021504823000000000124728474474XXXXXX1132       VK04VS111111111   NYV1 A E463048863132877N8400000000002155SJM00    05DNPLANET VAPOR #200        125484    VD84000000000215 N  599976770268                            000000000+                F DF 10439                     000000000  Y000000000 331   0000000000000.00 0000000.00   0000000.00                             000000000000000                                                                                                                                                     01418 F000000000000 0000000000000.22     00050 02200                  
03015890399620109DT67590675900000007088800101800000010180010124001193048900010900386021720230000000085304823000000000124728441707XXXXXX4904       VK04VS111111111   NYV1 A E303049004750898N840000000000853ZJ7G00    07DNPLANET VAPOR #200        145671    VD84000000000853 N  599976770268                            000000000+                F PF 08165                     000000000  N000000000       0000000000000.00 0000000.00   0000000.00                             000000000000000                                                                                                                                                     01418 F000000000000 0000000000000.19     01600 00500                  
03015900399620110DT67590675900000007088800101800000010180010124001193048900010900394021720230000000408004823000000000124728459954XXXXXX9476       VS11    0001111   NYV1 A E583049006597174N840000000004080GPXD00    05DNPLANET VAPOR #200        H85211    VD84000000004080 N  599976770268                            000000000+                F DF 10433                     000000000  Y000000000 338   0000000000000.00 0000000.00   0000000.00                             000000000000000                                                                                                                                                     01418 A000000000000 0000000000000.24     00050 02200                  
03015910399620111DT67590675900000007088800101800000010180010124001193048900010900402021720230000000064604823000000000124728438419XXXXXX0852       VK04VS111111111   NYV1 A E463049007880435N840000000000646ZDQ400    05DNPLANET VAPOR #200        091308    VD84000000000646 N  599976770268                            000000000+                F DF 00451                     000000000  N000000000 214   0000000000000.00 0000000.00   0000000.00                             000000000000000                                                                                                                                                     01418 F000000000000 0000000000000.14     01550 00400                  
03015920399620112DT67590675900000007088800101800000010180010124001193048900010900410021720230000000053904823000000000124728400022XXXXXX1852       VK04VS111111111   NYV1 A E583049012839922N840000000000539F9NQ00    05DNPLANET VAPOR #200        564344    VD84000000000539 N  599976770268                            000000000+                F DF 10439                     000000000  Y000000000 331   0000000000000.00 0000000.00   0000000.00                             000000000000000                                                                                                                                                     01418 F000000000000 0000000000000.22     00050 02200                  
03015930399620113DT67590675900000007088800101800000010180010124001193048900010900428021720230000000162704823000000000124728427199XXXXXX2124       VS11    0001111   NYV1 A E303049023389415N8400000000016275VB200    05DNPLANET VAPOR #200        318898    VD84000000001627 N  599976770268                            000000000+                F DF 00381                     000000000  N000000000       0000000000000.00 0000000.00   0000000.00                             000000000000000                                                                                                                                                     01418 A000000000000 0000000000000.28     00800 01500                  
03015940399620114BH6759067590000000766680010180000090170217202304823000000000119800    0000090001150034N8001016759C02192023                                                                                                                                                                                                                                                                                                                                                                                                                                                                                                                                                                                                 
03015950399620115DT67590675900000007666800101800000010180010124001193048900011500011021720230000000809804823000000000119800458643XXXXXX3825       VS11    0001111   NYV1 A E463048550010633N840000000008098TSJD00    05DNPLANET VAPOR #300        H99813    VD84000000008098 N  599976777836                            000000000+                F DF 10433                     000000000  Y000000000 338   0000000000000.00 0000000.00   0000000.00                             000000000000000                                                                                                                                                     01418 A000000000000 0000000000000.26     00050 02200                  
03015960399620116DT67590675900000007666800101800000010180010124001193048900011500029021720230000000518204823000000000119800427199XXXXXX0359       VS11    0001111   NYV1 A E383048558244173N8400000000051828NBG00    05DNPLANET VAPOR #300        266529    VD84000000005182 N  599976777836                            000000000+                F DF 00381                     000000000  N000000000       0000000000000.00 0000000.00   0000000.00                             000000000000000                                                                                                                                                     01418 A000000000000 0000000000000.56     00800 01500                  
03015970399620117DT67590675900000007666800101800000010180010177287283048900011500039021720230000000323804823000000000119800552433XXXXXX9286       MS02WI09          NY 1 0 AMCWB5UTL90217  N840000000003238          07DNPLANET VAPOR #300        09055S    MC84000000003238 N  599976777836                            000000000+M10101M0034C    MCW  02184                     000000000  N                0000000000000.00 0000000.00   0000000.00                             000000000000000                                                                                                                                                   B101418  000000000000 0000000000000.84     02300 01000                  
03015980399620118DT67590675900000007666800101800000010180010177287283048900011500047021720230000000134904823000000000119800552433XXXXXX9286       MS02WI09          NY 1 0 AMCWL2F8MA0217  N840000000001349          07DNPLANET VAPOR #300        00856S    MC84000000001349 N  599976777836                            000000000+M10101M0034C    MCW  02184                     000000000  N                0000000000000.00 0000000.00   0000000.00                             000000000000000                                                                                                                                                   B101418  000000000000 0000000000000.41     02300 01000                  
03015990399620119DT67590675900000007666800101800000010180010124001193048900011500052021720230000000539804823000000000119800474476XXXXXX2053       VS11    0001111   NYV1 A E383048576159415N8400000000053983VKM00    07DNPLANET VAPOR #300        100903    VD84000000005398 N  599976777836                            000000000+                F DF 10433                     000000000  Y000000000 338   0000000000000.00 0000000.00   0000000.00                             000000000000000                                                                                                                                                     01418 A000000000000 0000000000000.25     00050 02200                  
03016000399620120DT67590675900000007666800101800000010180010124001193048900011500060021720230000000086304823000000000119800474476XXXXXX2053       VK04VS111111111   NYV1 A E303048576696836N840000000000863LSKW00    07DNPLANET VAPOR #300        100817    VD84000000000863 N  599976777836                            000000000+                F DF 10439                     000000000  Y000000000 331   0000000000000.00 0000000.00   0000000.00                             000000000000000                                                                                                                                                     01418 F000000000000 0000000000000.22     00050 02200                  
03016010399620121DT67590675900000007666800101800000010180010177287283048900011500070021720230000000377904823000000000119800523957XXXXXX8542       MS02WI09          NY 1 0 AMDJVUF6ZU0217  N840000000003779          05DNPLANET VAPOR #300        998080    MD84000000003779 N  599976777836                            000000000+M10101C5434C    MDJ  00402                     000000000  N                0000000000000.00 0000000.00   0000000.00                             000000000000000                                                                                                                                                   B101418  000000000000 0000000000000.55     01050 01500                  
03016020399620122DT67590675900000007666800101800000010180010177287283048900011500088021720230000000582904823000000000119800515676XXXXXX3216       MS02WI09          NY 1 0 AMWEC4APL90217  N840000000005829          07DNPLANET VAPOR #300        00624Z    MC84000000005829 N  599976777836                            000000000+M10101M5434C    MWE  00739                     000000000  N                0000000000000.00 0000000.00   0000000.00                             000000000000000                                                                                                                                                   B101418  000000000000 0000000000001.44     02300 01000                  
03016030399620123DT67590675900000007666800101800000010180010177287283048900011500096021720230000000550504823000000000119800531258XXXXXX4752       MS02WI09          NY 1 0 AMDJV6WOZU0217  N840000000005505          07DNPLANET VAPOR #300        122062    MD84000000005505 N  599976777836                            000000000+M10101M5434C    MDJ  10815                     000000000  1                0000000000000.00 0000000.00   0000000.00                             000000000000000                                                                                                                                                   B101418  000000000000 0000000000000.25     00050 02200                  
03016040399620124DT67590675900000007666800101800000010180010124001193048900011500102021720230000000302204823000000000119800440393XXXXXX1795       VS11    0001111   NYV1 A E383048593075843N840000000003022R2Q400    07DNPLANET VAPOR #300        523330    VD84000000003022 N  599976777836                            000000000+                F PF 08170                     000000000  N000000000       0000000000000.00 0000000.00   0000000.00                             000000000000000                                                                                                                                                     01418 A000000000000 0000000000000.50     01150 01500                  
03016050399620125DT67590675900000007666800101800000010180010124001193048900011500110021720230000000215904823000000000119800474474XXXXXX5027       VS11    0001111   NYV1 A E303048606533753N840000000002159PHMT00    07DNPLANET VAPOR #300        105901    VD84000000002159 N  599976777836                            000000000+                F DF 10433                     000000000  Y000000000 338   0000000000000.00 0000000.00   0000000.00                             000000000000000                                                                                                                                                     01418 A000000000000 0000000000000.23     00050 02200                  
03016060399620126DT67590675900000007666800101800000010180010177287283048900011500120021720230000000267204823000000000119800531258XXXXXX1859       MS02WI09          NY 1 0 AMDJOK2PMA0217  N840000000002672          07DNPLANET VAPOR #300        121282    MD84000000002672 N  599976777836                            000000000+M10101M0034C    MDJ  10815                     000000000  1                0000000000000.00 0000000.00   0000000.00                             000000000000000                                                                                                                                                   B101418  000000000000 0000000000000.23     00050 02200                  
03016070399620127DT67590675900000007666800101800000010180010177287283048900011500138021720230000000323804823000000000119800531258XXXXXX2165       MS02WI09          NY 1 0 AMDJW1AUL90217  N840000000003238          07DNPLANET VAPOR #300        123429    MD84000000003238 N  599976777836                            000000000+M10101M0034C    MDJ  10815                     000000000  1                0000000000000.00 0000000.00   0000000.00                             000000000000000                                                                                                                                                   B101418  000000000000 0000000000000.24     00050 02200                  
03016080399620128DT67590675900000007666800101800000010180010124001193048900011500144021720230000000237504823000000000119800427082XXXXXX6197       VS11    0001111   NYV1 A E383048644967525N840000000002375MKQP00    07DNPLANET VAPOR #300        017649    VS84000000002375 N  599976777836                            000000000+                D CD 12113                     000000000  N000000000 499   0000000000000.00 0000000.00   0000000.00                             000000000000000                                                                                                                                                     01418 A000000000000 0000000000000.60     02100 01000                  
03016090399620129DT67590675900000007666800101800000010180010124001193048900011500151021720230000000836604823000000000119800423223XXXXXX6534       VS11    0001111   NYV1 A E583048645924139N840000000008366SCJN00    05DNPLANET VAPOR #300        017512    VD84000000008366 N  599976777836                            000000000+                F DF 00381                     000000000  N000000000       0000000000000.00 0000000.00   0000000.00                             000000000000000                                                                                                                                                     01418 A000000000000 0000000000000.82     00800 01500                  
03016100399620130DT67590675900000007666800101800000010180010124001193048900011500169021720230000000269904823000000000119800419032XXXXXX9052       VS11    0001111   NYV1 A E383048652035816N840000000002699J64Z00    05DNPLANET VAPOR #300        020643    VD84000000002699 N  599976777836                            000000000+                F DF 10433                     000000000  Y000000000 338   0000000000000.00 0000000.00   0000000.00                             000000000000000                                                                                                                                                     01418 A000000000000 0000000000000.23     00050 02200                  
03016110399620131DT67590675900000007666800101800000010180010124001193048900011500177021720230000000183504823000000000119800406049XXXXXX0067       VS11    0001111   NYV1 A E383048669698793N840000000001835C7GM00    07DNPLANET VAPOR #300        023609    VD84000000001835 N  599976777836                            000000000+                F DF 10433                     000000000  Y000000000 338   0000000000000.00 0000000.00   0000000.00                             000000000000000                                                                                                                                                     01418 A000000000000 0000000000000.23     00050 02200                  
03016120399620132DT67590675900000007666800101800000010180010124001193048900011500185021720230000000489604823000000000119800474474XXXXXX1247       VS11    0001111   NYV1 A E583048672283350N840000000004896QL8C00    07DNPLANET VAPOR #300        104904    VD84000000004896 N  599976777836                            000000000+                F DF 10433                     000000000  Y000000000 338   0000000000000.00 0000000.00   0000000.00                             000000000000000                                                                                                                                                     01418 A000000000000 0000000000000.24     00050 02200                  
03016130399620133DT67590675900000007666800101800000010180010124001193048900011500193021720230000000237504823000000000119800457431XXXXXX1315       VS11    0001111   NYV1 A E583048678250948N840000000002375FXKJ00    05DNPLANET VAPOR #300        H27457    VD84000000002375 N  599976777836                            000000000+                F DF 10433                     000000000  Y000000000 338   0000000000000.00 0000000.00   0000000.00                             000000000000000                                                                                                                                                     01418 A000000000000 0000000000000.23     00050 02200                  
03016140399620134DT67590675900000007666800101800000010180010124001193048900011500201021720230000000505204823000000000119800459954XXXXXX6726       VS11    0001111   NYV1 A E383048707427120N8400000000050529VQW00    07DNPLANET VAPOR #300        H39040    VD84000000005052 N  599976777836                            000000000+                F DF 10433                     000000000  Y000000000 338   0000000000000.00 0000000.00   0000000.00                             000000000000000                                                                                                                                                     01418 A000000000000 0000000000000.25     00050 02200                  
03016150399620135DT67590675900000007666800101800000010180010124001193048900011500219021720230000000399304823000000000119800473703XXXXXX0467       VS11    0001111   NYV1 A E383048744296954N840000000003993DSVD00    07DNPLANET VAPOR #300        031897    VD84000000003993 N  599976777836                            000000000+                F DF 10433                     000000000  Y000000000 338   0000000000000.00 0000000.00   0000000.00                             000000000000000                                                                                                                                                     01418 A000000000000 0000000000000.24     00050 02200                  
03016160399620136DT67590675900000007666800101800000010180010124001193048900011500227021720230000000699504823000000000119800410492XXXXXX7932       VS11    0001111   NYV1 A E583048749082703N840000000006995QVJX00    07DNPLANET VAPOR #300        139600    VD84000000006995 N  599976777836                            000000000+                F DF 10433                     000000000  Y000000000 338   0000000000000.00 0000000.00   0000000.00                             000000000000000                                                                                                                                                     01418 A000000000000 0000000000000.25     00050 02200                  
03016170399620137DT67590675900000007666800101800000010180010124001193048900011500235021720230000000053904823000000000119800430602XXXXXX1265       VK04VS111111111   NYV1 A E463048765440623N840000000000539SXR500    07DNPLANET VAPOR #300        846437    VD84000000000539 N  599976777836                            000000000+                F DF 00451                     000000000  N000000000 214   0000000000000.00 0000000.00   0000000.00                             000000000000000                                                                                                                                                     01418 F000000000000 0000000000000.12     01550 00400                  
03016180399620138DT67590675900000007666800101800000010180010124001193048900011500243021720230000000075504823000000000119800400022XXXXXX8972       VK04VS111111111   NYV1 A E303048775977056N8400000000007555GTD00    07DNPLANET VAPOR #300        179215    VD84000000000755 N  599976777836                            000000000+                F DF 10439                     000000000  Y000000000 331   0000000000000.00 0000000.00   0000000.00                             000000000000000                                                                                                                                                     01418 F000000000000 0000000000000.22     00050 02200                  
03016190399620139DT67590675900000007666800101800000010180010124001193048900011500250021720230000000561304823000000000119800400022XXXXXX8972       VS11    0001111   NYV1 A E463048777486129N8400000000056137XXK00    07DNPLANET VAPOR #300        822003    VD84000000005613 N  599976777836                            000000000+                F DF 10433                     000000000  Y000000000 338   0000000000000.00 0000000.00   0000000.00                             000000000000000                                                                                                                                                     01418 A000000000000 0000000000000.25     00050 02200                  
03016200399620140DT67590675900000007666800101800000010180010177287283048900011500260021720230000000107904823000000000119800531258XXXXXX6210       MS02WI09          NY 1 0 AMDJCB3R6Q0217  N840000000001079          07DNPLANET VAPOR #300        115052    MD84000000001079 N  599976777836                            000000000+M10101M0034C    MDJ  10815                     000000000  1                0000000000000.00 0000000.00   0000000.00                             000000000000000                                                                                                                                                   B101418  000000000000 0000000000000.23     00050 02200                  
