02640810210327623AD675906759000000133008001028000009071900011305700000001723503082023NYY06723ND6759800102031020232023067022504                                                                                                                                                                                                                                                                                                                                                                                                                                                                                                                                                                                              
02640820212880002BH6759067590000000288180088880000090170309202306823000000000058542    0000090001660016N8008886759C03102023                                                                                                                                                                                                                                                                                                                                                                                                                                                                                                                                                                                                 
02640830212880003DT67590675900000002881800888800000010180088824001193068900016600019030920230000000296206823000000000058542415978XXXXXX3505       VS11    0001111   NYV1 A E383068543757197N840000000002962JB7300    05DNHAPPY HIPPIE             053203    VD84000000002962 N  549976487158                            000000000+                F DF 10433                     000000000  Y000000000 338   0000000000000.00 0000000.00   0000000.00                             000000000000000                                                                                                                                                     01418 A000000000000 0000000000000.23     00050 02200                  
02640840212880004DT67590675900000002881800888800000010180088824001193068900016600027030920230000001292606823000000000058542419090XXXXXX9589       VS11    0001111   NYV1 A E463068545865183N84000000001292674NG00    05DNHAPPY HIPPIE             236367    VD84000000012926 N  549976487158                            000000000+                F DF 00381                     000000000  N000000000       0000000000000.00 0000000.00   0000000.00                             000000000000000                                                                                                                                                     01418 A000000000000 0000000000001.18     00800 01500                  
02640850212880005DT67590675900000002881800888800000010180088824001193068900016600035030920230000000028306823000000000058542443264XXXXXX1793       VK04VS111111111   NYV1 A E383068547834124N8400000000002836GXM00    05DNHAPPY HIPPIE             029674    VD84000000000283 N  549976487158                            000000000+                F DF 10439                     000000000  Y000000000 331   0000000000000.00 0000000.00   0000000.00                             000000000000000                                                                                                                                                     01418 F000000000000 0000000000000.22     00050 02200                  
02640860212880006DT67590675900000002881800888800000010180088877287283068900016600045030920230000000158006823000000000058542511953XXXXXX4908       MS02WI09          NY 1 0 AMDJBONAI50309  N840000000001580          05DNHAPPY HIPPIE             007416    MD84000000001580 N  549976487158                            000000000+M10101C5434C    MDJ  00402                     000000000  N                0000000000000.00 0000000.00   0000000.00                             000000000000000                                                                                                                                                   B101418  000000000000 0000000000000.32     01050 01500                  
02640870212880007DT67590675900000002881800888800000010180088877287283068900016600052030920230000000325806823000000000058542542418XXXXXX8849       MS02WI09          NY 1 0 AMPLAIY2UI0309  N840000000003258          05DNHAPPY HIPPIE             63936B    MC84000000003258 N  549976487158                            000000000+M10101C5434C    MPL  00364                     000000000  N                0000000000000.00 0000000.00   0000000.00                             000000000000000                                                                                                                                                   B101418  000000000000 0000000000000.63     01800 00400                  
02640880212880008DT67590675900000002881800888800000010180088824001193068900016600068030920230000000153506823000000000058542415978XXXXXX5598       VS11    0001111   NYV1 A E383068631546616N840000000001535W55J00    05DNHAPPY HIPPIE             047473    VD84000000001535 N  549976487158                            000000000+                F DF 10433                     000000000  Y000000000 338   0000000000000.00 0000000.00   0000000.00                             000000000000000                                                                                                                                                     01418 A000000000000 0000000000000.23     00050 02200                  
02640890212880009DT67590675900000002881800888800000010180088824001193068900016600076030920230000000296206823000000000058542498503XXXXXX6779       VS11    0001111   NYV1 A E303068636001004N840000000002962PSQP00    05DNHAPPY HIPPIE             046637    VD84000000002962 N  549976487158                            000000000+                F DF 00381                     000000000  N000000000       0000000000000.00 0000000.00   0000000.00                             000000000000000                                                                                                                                                     01418 A000000000000 0000000000000.39     00800 01500                  
02640900212880010DT67590675900000002881800888800000010180088824001193068900016600084030920230000000079006823000000000058542423223XXXXXX8288       VK04VS111111111   NYV1 A E463068642337327N840000000000790LC7M00    05DNHAPPY HIPPIE             027219    VD84000000000790 N  549976487158                            000000000+                F DF 00451                     000000000  N000000000 214   0000000000000.00 0000000.00   0000000.00                             000000000000000                                                                                                                                                     01418 F000000000000 0000000000000.16     01550 00400                  
02640910212880011DT67590675900000002881800888800000010180088876509753068900016600090030920230000000790006823000000000058542601100XXXXXX4729   BA50                  NY41 0 N743058413003988N840000000007900    00    05DNHAPPY HIPPIE             00930R    DS84000000007900 N  549976487158050                         000000000+0000004910H00   DCCDI01000003589  123500000000 000000000  0          112   0000000000000.00 0000000.00   0000000.00                             000000000000000                                                                                                                                                     01418  000000000000 0000000000001.46     01720 01000                  
02640920212880012DT67590675900000002881800888800000010180088824001193068900016600100030920230000000138106823000000000058542421783XXXXXX7388       VK04VS111111111   NYV1 A E583068708017598N840000000001381TX6P00    05DNHAPPY HIPPIE             081622    VS84000000001381 N  549976487158                            000000000+                A CA 12053                     000000000  N000000000 450   0000000000000.00 0000000.00   0000000.00                             000000000000000                                                                                                                                                     01418 F000000000000 0000000000000.26     01900 00000                  
02640930212880013DT67590675900000002881800888800000010180088824001193068900016600118030920230000000493806823000000000058542423223XXXXXX7930       VS11    0001111   NYV1 A E463068735919558N840000000004938HLRJ00    05DNHAPPY HIPPIE             085539    VD84000000004938 N  549976487158                            000000000+                F DF 00381                     000000000  N000000000       0000000000000.00 0000000.00   0000000.00                             000000000000000                                                                                                                                                     01418 A000000000000 0000000000000.55     00800 01500                  
02640940212880014DT67590675900000002881800888800000010180088824001193068900016600126030920230000000395006823000000000058542449507XXXXXX1292       VS11    0001111   NYV1 A E463068760680222N840000000003950G7F300    05DNHAPPY HIPPIE             060748    VD84000000003950 N  549976487158                            000000000+                F DF 00381                     000000000  N000000000       0000000000000.00 0000000.00   0000000.00                             000000000000000                                                                                                                                                     01418 A000000000000 0000000000000.47     00800 01500                  
02640950212880015DT67590675900000002881800888800000010180088824001193068900016600134030920230000000079006823000000000058542415978XXXXXX3096       VK04VS111111111   NYV1 A E583068801615385N840000000000790GVX800    05DNHAPPY HIPPIE             016070    VD84000000000790 N  549976487158                            000000000+                F DF 10439                     000000000  Y000000000 331   0000000000000.00 0000000.00   0000000.00                             000000000000000                                                                                                                                                     01418 F000000000000 0000000000000.22     00050 02200                  
02640960212880016DT67590675900000002881800888800000010180088824001193068900016600142030920230000000607906823000000000058542415978XXXXXX1976       VS11    0001111   NYV1 A E303068818864706N8400000000060793KGF00    05DNHAPPY HIPPIE             049087    VD84000000006079 N  549976487158                            000000000+                F DF 10433                     000000000  Y000000000 338   0000000000000.00 0000000.00   0000000.00                             000000000000000                                                                                                                                                     01418 A000000000000 0000000000000.25     00050 02200                  
02640970212880017DT67590675900000002881800888800000010180088824001193068900016600159030920230000000325806823000000000058542415978XXXXXX1976       VS11    0001111   NYV1 A E583068819443004N840000000003258MP5600    05DNHAPPY HIPPIE             060233    VD84000000003258 N  549976487158                            000000000+                F DF 10433                     000000000  Y000000000 338   0000000000000.00 0000000.00   0000000.00                             000000000000000                                                                                                                                                     01418 A000000000000 0000000000000.24     00050 02200                  
02640980212880018DT67590675900000002881800888800000010180088877287283068900016600169030920230000000395006823000000000058542511953XXXXXX9006       MS02WI09          NY 1 0 AMDJE9I9YZ0309  N840000000003950          05DNHAPPY HIPPIE             004531    MD84000000003950 N  549976487158                            000000000+M10101C5434C    MDJ  00402                     000000000  N                0000000000000.00 0000000.00   0000000.00                             000000000000000                                                                                                                                                   B101418  000000000000 0000000000000.56     01050 01500                  
02640990212880019BH6759067590000000288180088880000090170309202306823000000000055125    0000090001640015N8008886759C03102023                                                                                                                                                                                                                                                                                                                                                                                                                                                                                                                                                                                                 
02641000212880020DT67590675900000002881800888800000010180088824001193068900016400014030920230000000801006823000000000055125432651XXXXXX3137       VS11    0001111   NYV1 A E303068588001700N840000000008010ZHLZ00    05DNHAPPY HIPPIE             002000    VD84000000008010 N  549976487134                            000000000+                F DF 00381                     000000000  N000000000       0000000000000.00 0000000.00   0000000.00                             000000000000000                                                                                                                                                     01418 A000000000000 0000000000000.79     00800 01500                  
02641010212880021DT67590675900000002881800888800000010180088824001193068900016400022030920230000001053306823000000000055125434257XXXXXX3468       VS11    0001111   NYV1 A E303068591804228N840000000010533ZWPF00    05DNHAPPY HIPPIE             014388    VD84000000010533 N  549976487134                            000000000+                F DF 10433                     000000000  Y000000000 338   0000000000000.00 0000000.00   0000000.00                             000000000000000                                                                                                                                                     01418 A000000000000 0000000000000.27     00050 02200                  
02641020212880022DT67590675900000002881800888800000010180088824001193068900016400030030920230000000148106823000000000055125480639XXXXXX6856       VK04VS111111111   NYV1 A E303068593337735N840000000001481M4RX00    05DNHAPPY HIPPIE             716375    VD84000000001481 N  549976487134                            000000000+                F DF 00451                     000000000  N000000000 214   0000000000000.00 0000000.00   0000000.00                             000000000000000                                                                                                                                                     01418 F000000000000 0000000000000.27     01550 00400                  
02641030212880023DT67590675900000002881800888800000010180088877287283068900016400040030920230000000266606823000000000055125511953XXXXXX6197       MS02WI09          NY 1 0 AMDJHQ3YJG0309  N840000000002666          05DNHAPPY HIPPIE             090716    MD84000000002666 N  549976487134                            000000000+M10101C5434C    MDJ  00402                     000000000  N                0000000000000.00 0000000.00   0000000.00                             000000000000000                                                                                                                                                   B101418  000000000000 0000000000000.43     01050 01500                  
02641040212880024DT67590675900000002881800888800000010180088824001193068900016400055030920230000000058906823000000000055125480639XXXXXX0512       VK04VS111111111   NYV1 A E383068623350428N840000000000589RNMB00    05DNHAPPY HIPPIE             717926    VD84000000000589 N  549976487134                            000000000+                F DF 00451                     000000000  N000000000 214   0000000000000.00 0000000.00   0000000.00                             000000000000000                                                                                                                                                     01418 F000000000000 0000000000000.13     01550 00400                  
02641050212880025DT67590675900000002881800888800000010180088824001193068900016400063030920230000000246806823000000000055125480639XXXXXX6039       VS11    0001111   NYV1 A E583068661387748N840000000002468RV2600    05DNHAPPY HIPPIE             720005    VD84000000002468 N  549976487134                            000000000+                F DF 00381                     000000000  N000000000       0000000000000.00 0000000.00   0000000.00                             000000000000000                                                                                                                                                     01418 A000000000000 0000000000000.35     00800 01500                  
02641060212880026DT67590675900000002881800888800000010180088824001193068900016400071030920230000000246806823000000000055125443238XXXXXX9381       VS11    0001111   NYV1 A E583068667792633N840000000002468JWW800    05DNHAPPY HIPPIE             033259    VD84000000002468 N  549976487134                            000000000+                F DF 00381                     000000000  N000000000       0000000000000.00 0000000.00   0000000.00                             000000000000000                                                                                                                                                     01418 A000000000000 0000000000000.35     00800 01500                  
02641070212880027DT67590675900000002881800888800000010180088824001193068900016400089030920230000000144106823000000000055125480639XXXXXX0039       VK04VS111111111   NYV1 A E303068682791426N8400000000014414Z8J00    05DNHAPPY HIPPIE             721082    VD84000000001441 N  549976487134                            000000000+                F DF 00451                     000000000  N000000000 214   0000000000000.00 0000000.00   0000000.00                             000000000000000                                                                                                                                                     01418 F000000000000 0000000000000.26     01550 00400                  
02641080212880028DT67590675900000002881800888800000010180088877287283068900016400099030920230000000073806823000000000055125540653XXXXXX8391       MS02WI09          NY 1 0 AMDJT04KWR0309  N840000000000738          05DNHAPPY HIPPIE             030602    MD84000000000738 N  549976487134                            000000000+M10101C5434C    MDJ  10731                     000000000  B                0000000000000.00 0000000.00   0000000.00                             000000000000000                                                                                                                                                   B101418  000000000000 0000000000000.21     00050 02100                  
02641090212880029DT67590675900000002881800888800000010180088877287283068900016400107030920230000000350006823000000000055125517805XXXXXX1173       MS02WI09          NY 1 0 AMWEDNA2WS0309  N840000000003500          05DNHAPPY HIPPIE             02594P    MC84000000003500 N  549976487134                            000000000+M10101C5434C    MWE  00743                     000000000  N                0000000000000.00 0000000.00   0000000.00                             000000000000000                                                                                                                                                   B101418  000000000000 0000000000000.85     02300 00400                  
02641100212880030DT67590675900000002881800888800000010180088824001193068900016400113030920230000000045006823000000000055125415978XXXXXX6755       VK04VS111111111   NYV1 A E383068722807146N840000000000450368400    05DNHAPPY HIPPIE             078457    VD84000000000450 N  549976487134                            000000000+                F DF 10439                     000000000  Y000000000 331   0000000000000.00 0000000.00   0000000.00                             000000000000000                                                                                                                                                     01418 F000000000000 0000000000000.22     00050 02200                  
02641110212880031DT67590675900000002881800888800000010180088877287283068900016400123030920230000000296206823000000000055125511953XXXXXX9825       MS02WI09          NY 1 0 AMDJNJDM0C0309  N840000000002962          05DNHAPPY HIPPIE             019263    MD84000000002962 N  549976487134                            000000000+M10101C5434C    MDJ  00402                     000000000  N                0000000000000.00 0000000.00   0000000.00                             000000000000000                                                                                                                                                   B101418  000000000000 0000000000000.46     01050 01500                  
02641120212880032DT67590675900000002881800888800000010180088824001193068900016400139030920230000000938106823000000000055125480639XXXXXX9303       VS11    0001111   NYV1 A E303068801131386N8400000000093817SBL00    05DNHAPPY HIPPIE             726797    VD84000000009381 N  549976487134                            000000000+                F DF 00381                     000000000  N000000000       0000000000000.00 0000000.00   0000000.00                             000000000000000                                                                                                                                                     01418 A000000000000 0000000000000.90     00800 01500                  
02641130212880033DT67590675900000002881800888800000010180088877287283068900016400149030920230000000448806823000000000055125537993XXXXXX2557       MS02WI09          NY 1 0 AMPLUNLFL50309  N840000000004488          05DNHAPPY HIPPIE             00918B    MC84000000004488 N  549976487134                            000000000+M10101C5434C    MPL  00364                     000000000  N                0000000000000.00 0000000.00   0000000.00                             000000000000000                                                                                                                                                   B101418  000000000000 0000000000000.85     01800 00400                  
02641140212880034DT67590675900000002881800888800000010180088877287283068900016400156030920230000000395006823000000000055125517148XXXXXX8059       MS02WI09          NY 1 0 AMWEX0CA1B0309  N840000000003950          05DNHAPPY HIPPIE             05561Z    MC84000000003950 N  549976487134                            000000000+M10101C5434C    MWE  00743                     000000000  N                0000000000000.00 0000000.00   0000000.00                             000000000000000                                                                                                                                                   B101418  000000000000 0000000000000.95     02300 00400                  
02641150212880035BH6759067590000000215480088880000090170309202306823000000000601530    0000090001294591N8008886759C03102023                                                                                                                                                                                                                                                                                                                                                                                                                                                                                                                                                                                                 
02641160212880036DT67590675900000002154800888800000010180088824001193068900012960532030920230000046350006823000000000601530424631XXXXXX6849               2111111   NYV4 A7W463068723633800N840000000463500SBGJ00    01DNDRIP DROP DISTRO LLC     08114G    VB84000000463500 NP1519971004114   INV-001107               000000000+                G5CG511887                     000000000  N000000000 163   0000000000000.00 0000000.00   0000000.00                             000000000000000                                                                                                                                                     01418 G000000463500 0000000000139.15     03000 01000                  
02641170212880001P16759067590000000215480088880000001010000000000000000    43986476904              2000000000000000000000000              000000000000                    0000000000000000000000000                    000000000000                                                                                                                                                                                                                                                                                                                                                                                                                                                                                        
02641180212880037DT67590675900000002154800888800000010180088824001193068900012945913030920230000013803006823000000000601530415417XXXXXX9595               2111111   NYV4 A7W583068508561647N840000000138030JGMS00    01DNDRIP DROP DISTRO LLC     02114G    VB84000000138030 NP1519971004114   INV-001103               000000000+                G4CG411355                     000000000  N000000000 377   0000000000000.00 0000000.00   0000000.00                             000000000000000                                                                                                                                                     01418 G000000138030 0000000000040.82     02950 01000                  
02641190212880001P16759067590000000215480088880000001010000000000000000    43985656142              2000000000000000000000000              000000000000                    0000000000000000000000000                    000000000000                                                                                                                                                                                                                                                                                                                                                                                                                                                                                        
02641200212880038BH6759067590000001435780088880000090170309202306823000000000007165    0000090001038579N8008886759C03102023                                                                                                                                                                                                                                                                                                                                                                                                                                                                                                                                                                                                 
02641210212880039DT67590675900000014357800888800000010180088887287283068900010385790030920230000000716506823000000000007165513638XXXXXX1129       ME03KE06MS02      NY 4607AMPLI8VC590308  N840000000007165          81DNJUST DO IT PROS LLC      008032    MC84000000007165 N  599900000001   rntfzHzVkFMb6G5SQAvL     000000000+600450S00140    MPL  00013                     000000000  N                0000000000000.00 0000000.00   0000000.00                             000000000000000                                                                                                                                                   U001418  000000000000 0000000000001.50     01950 01000                  
02641220212880040BH6759067590000000561180088880000090170309202306823000000000005988    0000090001264032N8008886759C03102023                                                                                                                                                                                                                                                                                                                                                                                                                                                                                                                                                                                                 
02641230212880041DT67590675900000005611800888800000010180088824001193068900012640324030920230000000598806823000000000005988407624XXXXXX4925               2111111   NYV4 A7W583068361760077N840000000005988LVD600    01DNK DIVINE 503-689-7182    113196    VD84000000005988 NP1549971004114   5293                     000000000+                F DF 00415                     000000000  N000000000       0000000000000.00 0000000.00   0000000.00                             000000000000000                                                                                                                                                     01418 G000000005988 0000000000001.14     01650 01500                  
02641240212880001P16759067590000000561180088880000001010000000000000000                             2000000000000000000000000              000000000000                    0000000000000000000000000                    000000000000                                                                                                                                                                                                                                                                                                                                                                                                                                                                                        
02641250212880042BH6759067590000000570280088880000090170309202306823000000000387221    0000090001145986N8008886759C03102023                                                                                                                                                                                                                                                                                                                                                                                                                                                                                                                                                                                                 
02641260212880043DT67590675900000005702800888800000010180088876509753068900011452554030920230000000599706823000000000387221601100XXXXXX3989   BA00                  NY 4 07N803058450989185N840000000005997    00    01DNPSILOMART                00960R    DS84000000005997 N  549971004114010                         000000000+1015104910600   DCCDI01008501667  123818000000 000000000  0          120   0000000000000.00 0000000.00   0000000.00                             000000000000000                                                                                                                                                     01418  000000000000 0000000000001.32     02030 01000                  
02641270212880044DT67590675900000005702800888800000010180088824001193068900011475599030920230000001006606823000000000387221400765XXXXXX7008               2111111   NYV4 A7W463068799513838N840000000010066Z8XD00    01DNPSILOMART                061232    VD84000000010066 NP1549971004114   RE6CSOKOYMFOVMG12SQ9     000000000+                F DF 00415                     000000000  N000000000       0000000000000.00 0000000.00   0000000.00                             000000000000000                                                                                                                                                     01418 G000000010066 0000000000001.81     01650 01500                  
02641280212880001P16759067590000000570280088880000001010000000000000000                             2000000000000000000000000              000000000000                    0000000000000000000000000                    000000000000                                                                                                                                                                                                                                                                                                                                                                                                                                                                                        
02641290212880045DT67590675900000005702800888800000010180088887287283068900011411181030920230000000209906823000000000387221514348XXXXXX2061       ME03KE06MS02      NY 4607AMDJUYAYAJ0308  N840000000002099          81DNPSILOMART                000034    MD84000000002099 N  549900000001   rroKVD0QW240GZBPrdfk     000000000+600450S00140    MDJ  00401                     000000000  N                0000000000000.00 0000000.00   0000000.00                             000000000000000                                                                                                                                                   U001418  000000000000 0000000000000.50     01650 01500                  
02641300212880046DT67590675900000005702800888800000010180088824001193068900011415496030920230000000769806823000000000387221474472XXXXXX6479               2111111   NYV4 A7W383068172788516N840000000007698MZBT00    01DNPSILOMART                144978    VD84000000007698 NP1549971004114   RVBSFQMMZYYT9FJBXYLU     000000000+                F DF 10420                     000000000  Y000000000 338   0000000000000.00 0000000.00   0000000.00                             000000000000000                                                                                                                                                     01418 G000000007698 0000000000000.26     00050 02200                  
02641310212880001P16759067590000000570280088880000001010000000000000000                             2000000000000000000000000              000000000000                    0000000000000000000000000                    000000000000                                                                                                                                                                                                                                                                                                                                                                                                                                                                                        
02641320212880047DT67590675900000005702800888800000010180088824001193068900011423805030920230000000380006823000000000387221463405XXXXXX7688               2111111   NYV4 A7W583068205452862N840000000003800RB8600    01DNPSILOMART                028921    VD84000000003800 NP1549971004114   R0JIHW43DRPQT4EJMNF2     000000000+                F DF 10420                     000000000  Y000000000 338   0000000000000.00 0000000.00   0000000.00                             000000000000000                                                                                                                                                     01418 G000000003800 0000000000000.24     00050 02200                  
02641330212880001P16759067590000000570280088880000001010000000000000000                             2000000000000000000000000              000000000000                    0000000000000000000000000                    000000000000                                                                                                                                                                                                                                                                                                                                                                                                                                                                                        
02641340212880048DT67590675900000005702800888800000010180088887287283068900011465146030920230000000200006823000000000387221528740XXXXXX8388       ME03KE06MS02      NY 4607AMDJTWBBI40309  N840000000002000          81DNPSILOMART                333239    MD84000000002000 N  549900000001   rbyLfO81oaLT6xcEI4pl     000000000+600450S00140    MDJ  00401                     000000000  N                0000000000000.00 0000000.00   0000000.00                             000000000000000                                                                                                                                                   U001418  000000000000 0000000000000.48     01650 01500                  
02641350212880049DT67590675900000005702800888800000010180088824001193068900011482041030920230000000239906823000000000387221423223XXXXXX2198               2111111   NYV4 A7W463068558250802N840000000002399CWNT00    01DNPSILOMART                099755    VD84000000002399 NP1549971004114   RMGRCM19PCLI8RAFVG0B     000000000+                F DF 00415                     000000000  N000000000       0000000000000.00 0000000.00   0000000.00                             000000000000000                                                                                                                                                     01418 G000000002399 0000000000000.55     01650 01500                  
02641360212880001P16759067590000000570280088880000001010000000000000000                             2000000000000000000000000              000000000000                    0000000000000000000000000                    000000000000                                                                                                                                                                                                                                                                                                                                                                                                                                                                                        
02641370212880050DT67590675900000005702800888800000010180088824001193068900011491323030920230000000759906823000000000387221465345XXXXXX1435               2111111   NYV4 A7W583068583943847N840000000007599JT8W00    01DNPSILOMART                272842    VD84000000007599 NP1549971004114   RSAOLJSIKDWTENOMUN3J     000000000+                F DF 10420                     000000000  Y000000000 338   0000000000000.00 0000000.00   0000000.00                             000000000000000                                                                                                                                                     01418 G000000007599 0000000000000.26     00050 02200                  
02641380212880001P16759067590000000570280088880000001010000000000000000                             2000000000000000000000000              000000000000                    0000000000000000000000000                    000000000000                                                                                                                                                                                                                                                                                                                                                                                                                                                                                        
02641390212880051DT67590675900000005702800888800000010180088824001193068900011450915030920230000000399906823000000000387221427178XXXXXX6504               2111111   NYV4 A7W583068730541929N8400000000039997FGF00    01DNPSILOMART                079152    VD84000000003999 NP1549971004114   RWKCI3ZJA2NNDA7PGNTR     000000000+                F DF 10420                     000000000  Y000000000 338   0000000000000.00 0000000.00   0000000.00                             000000000000000                                                                                                                                                     01418 G000000003999 0000000000000.24     00050 02200                  
02641400212880001P16759067590000000570280088880000001010000000000000000                             2000000000000000000000000              000000000000                    0000000000000000000000000                    000000000000                                                                                                                                                                                                                                                                                                                                                                                                                                                                                        
02641410212880052DT67590675900000005702800888800000010180088824001193068900011480789030920230000000459906823000000000387221414720XXXXXX6739               2111111   NYV4 A7W583068820675089N8400000000045994NBH00    01DNPSILOMART                02425D    VS84000000004599 NP1549971004114   RM2GXQAUALSXGLXNHY9W     000000000+                D CD 12109                     000000000  N000000000 498   0000000000000.00 0000000.00   0000000.00                             000000000000000                                                                                                                                                     01418 G000000004599 0000000000001.25     02500 01000                  
02641420212880001P16759067590000000570280088880000001010000000000000000                             2000000000000000000000000              000000000000                    0000000000000000000000000                    000000000000                                                                                                                                                                                                                                                                                                                                                                                                                                                                                        
02641430212880053DT67590675900000005702800888800000010180088824001193068900011492503030920230000000320006823000000000387221435983XXXXXX5202               2111111   NYV4 A7W303068850159314N8400000000032003TZ600    01DNPSILOMART                719063    VS84000000003200 NP1549971004114   RUA8JN9KTO1SWRGNWW1B     000000000+                C CC 12108                     000000000  N000000000 496   0000000000000.00 0000000.00   0000000.00                             000000000000000                                                                                                                                                     01418 G000000003200 0000000000000.76     02050 01000                  
02641440212880001P16759067590000000570280088880000001010000000000000000                             2000000000000000000000000              000000000000                    0000000000000000000000000                    000000000000                                                                                                                                                                                                                                                                                                                                                                                                                                                                                        
02641450212880054DT67590675900000005702800888800000010180088887287283068900011481432030920230000001999506823000000000387221546604XXXXXX4741       ME03KE06MS02      NY 4607AMWERLUTAJ0308  N840000000019995          81DNPSILOMART                06710P    MC84000000019995 N  549900000001   rnmb3z7pNPZvDWlYvYV8     000000000+600450S00140    MWE  00737                     000000000  N                0000000000000.00 0000000.00   0000000.00                             000000000000000                                                                                                                                                   U001418  000000000000 0000000000005.30     02600 01000                  
02641460212880055DT67590675900000005702800888800000010180088887287283068900011404079030920230000000329906823000000000387221510805XXXXXX7402       ME03KE06MS02      NY 4607AMDJK7UZ590308  N840000000003299          81DNPSILOMART                004513    MD84000000003299 N  549900000001   rwItBuloxaJAc9qZZLfv     000000000+600450S00140    MDJ  10813                     000000000  1                0000000000000.00 0000000.00   0000000.00                             000000000000000                                                                                                                                                   U001418  000000000000 0000000000000.24     00050 02200                  
02641470212880056DT67590675900000005702800888800000010180088824001193068900011412121030920230000000509806823000000000387221414718XXXXXX4989               2111111   NYV4 A7W583068150152118N840000000005098J35N00    01DNPSILOMART                008453    VS84000000005098 NP1549971004114   RU1CULJ3PHLEPYAISKG9     000000000+                D CD 12109                     000000000  N000000000 498   0000000000000.00 0000000.00   0000000.00                             000000000000000                                                                                                                                                     01418 G000000005098 0000000000001.37     02500 01000                  
02641480212880001P16759067590000000570280088880000001010000000000000000                             2000000000000000000000000              000000000000                    0000000000000000000000000                    000000000000                                                                                                                                                                                                                                                                                                                                                                                                                                                                                        
02641490212880057DT67590675900000005702800888800000010180088887287283068900011416149030920230000000599706823000000000387221546616XXXXXX9333       ME03KE06PT01      NY 4607AMCWTJ8C590308  N840000000005997          81DNPSILOMART                50992S    MC84000000005997 N  549900000001   rcv3JzgDWwfklPGWPwgt     000000000+600450S00140    MCW  02182                     000000000  N                0000000000000.00 0000000.00   0000000.00                             000000000000000                                                                                                                                                   U001418  000000000000 0000000000001.66     02600 01000                  
02641500212880058DT67590675900000005702800888800000010180088824001193068900011436583030920230000000575606823000000000387221426684XXXXXX7795               2111111   NYV4 A7W303068365210152N840000000005756S24M00    01DNPSILOMART                05244B    VS84000000005756 NP1549971004114   R6D8BMMDCQNOUNQPRTWN     000000000+                B CB 12107                     000000000  N000000000 494   0000000000000.00 0000000.00   0000000.00                             000000000000000                                                                                                                                                     01418 G000000005756 0000000000001.27     02040 01000                  
02641510212880001P16759067590000000570280088880000001010000000000000000                             2000000000000000000000000              000000000000                    0000000000000000000000000                    000000000000                                                                                                                                                                                                                                                                                                                                                                                                                                                                                        
02641520212880059DT67590675900000005702800888800000010180088824001193068900011487438030920230000000479906823000000000387221435716XXXXXX6658               2111111   NYV4 A7W583068568272295N840000000004799KQMH00    01DNPSILOMART                004708    VD84000000004799 NP1549971004114   RM2FL8L3LHOZFALPEOWG     000000000+                F DF 00415                     000000000  N000000000       0000000000000.00 0000000.00   0000000.00                             000000000000000                                                                                                                                                     01418 G000000004799 0000000000000.94     01650 01500                  
02641530212880001P16759067590000000570280088880000001010000000000000000                             2000000000000000000000000              000000000000                    0000000000000000000000000                    000000000000                                                                                                                                                                                                                                                                                                                                                                                                                                                                                        
02641540212880060DT67590675900000005702800888800000010180088887287283068900011404194030920230000000600006823000000000387221514377XXXXXX8627       ME03KE06MS02      NY 4607AMDJJME2T90309  N840000000006000          81DNPSILOMART                183DVG    MD84000000006000 N  549900000001   rVN9tkQpfoBW20c0xqWk     000000000+600450S00140    MDJ  00401                     000000000  N                0000000000000.00 0000000.00   0000000.00                             000000000000000                                                                                                                                                   U001418  000000000000 0000000000001.14     01650 01500                  
02641550212880061DT67590675900000005702800888800000010180088887287283068900011408815030920230000000298306823000000000387221519452XXXXXX8956       ME03KE06PT01      NY 4607AMCWA6R6UI0309  N840000000002983          81DNPSILOMART                04043Z    MC84000000002983 N  549900000001   rvb0GSvZwQeZjyetlAHx     000000000+600450S00140    MCW  00642                     000000000  N                0000000000000.00 0000000.00   0000000.00                             000000000000000                                                                                                                                                   U001418  000000000000 0000000000000.76     02200 01000                  
02641560212880062DT67590675900000005702800888800000010180088887287283068900011419283030920230000000727906823000000000387221517805XXXXXX8155       ME03KE06MS02      NY 4607AMWESSTVWR0309  N840000000007279          81DNPSILOMART                03116P    MC84000000007279 N  549900000001   raaNlwhPVfhgVcY5s0JD     000000000+600450S00140    MWE  00737                     000000000  N                0000000000000.00 0000000.00   0000000.00                             000000000000000                                                                                                                                                   U001418  000000000000 0000000000001.99     02600 01000                  
02641570212880063DT67590675900000005702800888800000010180088887287283068900011472985030920230000000559906823000000000387221525363XXXXXX2198       ME03KE06MS02      NY 4607AMWETPHML50309  N840000000005599          81DNPSILOMART                64414Z    MC84000000005599 N  549900000001   rnMqPNawFSVtLPGBFhCP     000000000+600450S00140    MWE  00737                     000000000  N                0000000000000.00 0000000.00   0000000.00                             000000000000000                                                                                                                                                   U001418  000000000000 0000000000001.56     02600 01000                  
02641580212880064DT67590675900000005702800888800000010180088873011003068900011479951030920230000000529806823000000000387221371716XXXXX2009                          NY 4 07N004629772333300N840000000005298          01DNTRADE READY LLC          229867    AM84000000005298 N  549971004114                            000000000+6004S0S00140 258     11261                     000000000                   0000000000000.00 0000000.00   0000000.00                             000000000000000 61248972086759675900000005702 TRADE READY LLC          4744 PARADISE RD         7023386941      89169     PSILOMART@GMAIL.COM                       01418  000000000000 0000000000000.95     01600 00000                  
02641590212880065DT67590675900000005702800888800000010180088824001193068900011492420030920230000001599806823000000000387221473703XXXXXX3855               2111111   NYV4 A7W383068854203448N8400000000159985J4P00    01DNPSILOMART                019149    VD84000000015998 NP1549971004114   RNV5GGQUPYY7HMOC9QSZ     000000000+                F DF 10420                     000000000  Y000000000 338   0000000000000.00 0000000.00   0000000.00                             000000000000000                                                                                                                                                     01418 G000000015998 0000000000000.30     00050 02200                  
02641600212880001P16759067590000000570280088880000001010000000000000000                             2000000000000000000000000              000000000000                    0000000000000000000000000                    000000000000                                                                                                                                                                                                                                                                                                                                                                                                                                                                                        
02641610212880066DT67590675900000005702800888800000010180088887287283068900011493072030920230000000455706823000000000387221514750XXXXXX4949       ME03KE06MS02      NY 4607AMDJZMMJ1B0309  N840000000004557          81DNPSILOMART                001582    MD84000000004557 N  549900000001   rVmYhdZ7xTK9M26guwGe     000000000+600450S00140    MDJ  10813                     000000000  1                0000000000000.00 0000000.00   0000000.00                             000000000000000                                                                                                                                                   U001418  000000000000 0000000000000.24     00050 02200                  
02641620212880067DT67590675900000005702800888800000010180088887287283068900011401513030920230000000183906823000000000387221517805XXXXXX2376       ME03KE06MS02      NY 4607AMPLTTP3AJ0308  N840000000001839          81DNPSILOMART                05306B    MC84000000001839 N  549900000001   r02XjDzbgNugAiIS8CfQ     000000000+600450S00140    MPL  00580                     000000000  N                0000000000000.00 0000000.00   0000000.00                             000000000000000                                                                                                                                                   U001418  000000000000 0000000000000.49     02100 01000                  
02641630212880068DT67590675900000005702800888800000010180088824001193068900011403401030920230000000509806823000000000387221414740XXXXXX6765               2111111   NYV4 A7W303068093821143N840000000005098NCB400    01DNPSILOMART                08670D    VS84000000005098 NP1549971004114   RBQ7U3RJRO8BCYVIFWDJ     000000000+                D CD 12109                     000000000  N000000000 498   0000000000000.00 0000000.00   0000000.00                             000000000000000                                                                                                                                                     01418 G000000005098 0000000000001.37     02500 01000                  
02641640212880001P16759067590000000570280088880000001010000000000000000                             2000000000000000000000000              000000000000                    0000000000000000000000000                    000000000000                                                                                                                                                                                                                                                                                                                                                                                                                                                                                        
02641650212880069DT67590675900000005702800888800000010180088824001193068900011429109030920230000000479906823000000000387221415342XXXXXX7626               2111111   NYV4 A7W463068272689567N8400000000047995LZV00    01DNPSILOMART                033428    VD84000000004799 NP1549971004114   R2YVCKQ4TBSXZ36FHOWO     000000000+                F DF 00415                     000000000  N000000000       0000000000000.00 0000000.00   0000000.00                             000000000000000                                                                                                                                                     01418 G000000004799 0000000000000.94     01650 01500                  
02641660212880001P16759067590000000570280088880000001010000000000000000                             2000000000000000000000000              000000000000                    0000000000000000000000000                    000000000000                                                                                                                                                                                                                                                                                                                                                                                                                                                                                        
02641670212880070DT67590675900000005702800888800000010180088824001193068900011452937030920230000000529806823000000000387221474440XXXXXX7763               2111111   NYV4 A7W303068475350378N840000000005298WT4F00    01DNPSILOMART                069421    VD84000000005298 NP1549971004114   RT6SCUBVYVL6PAQTKIJR     000000000+                F DF 00415                     000000000  N000000000       0000000000000.00 0000000.00   0000000.00                             000000000000000                                                                                                                                                     01418 G000000005298 0000000000001.02     01650 01500                  
02641680212880001P16759067590000000570280088880000001010000000000000000                             2000000000000000000000000              000000000000                    0000000000000000000000000                    000000000000                                                                                                                                                                                                                                                                                                                                                                                                                                                                                        
02641690212880071DT67590675900000005702800888800000010180088824001193068900011475938030920230000000230006823000000000387221402347XXXXXX7874               2111111   NYV4 A7W463068544190016N8400000000023006KNT00    01DNPSILOMART                080659    VD84000000002300 NP1549971004114   RIQFRTCJPQCZJ6TAMN20     000000000+                F DF 10420                     000000000  Y000000000 338   0000000000000.00 0000000.00   0000000.00                             000000000000000                                                                                                                                                     01418 G000000002300 0000000000000.23     00050 02200                  
02641700212880001P16759067590000000570280088880000001010000000000000000                             2000000000000000000000000              000000000000                    0000000000000000000000000                    000000000000                                                                                                                                                                                                                                                                                                                                                                                                                                                                                        
02641710212880072DT67590675900000005702800888800000010180088887287283068900011478321030920230000000639606823000000000387221517805XXXXXX8839       ME03KE06MS02      NY 4607AMWEX5H2UH0309  N840000000006396          81DNPSILOMART                06597P    MC84000000006396 N  549900000001   rxYKkTwuaf9PdHjz9GlS     000000000+600450S00140    MWE  00737                     000000000  N                0000000000000.00 0000000.00   0000000.00                             000000000000000                                                                                                                                                   U001418  000000000000 0000000000001.76     02600 01000                  
02641720212880073DT67590675900000005702800888800000010180088887287283068900011481879030920230000000299906823000000000387221544504XXXXXX0927       ME03KE06MS02      NY 4607AMDJMHXZQO0309  N840000000002999          81DNPSILOMART                352296    MD84000000002999 N  549900000001   rct1kLk7OYGuEqkp4CMI     000000000+600450S00140    MDJ  00401                     000000000  N                0000000000000.00 0000000.00   0000000.00                             000000000000000                                                                                                                                                   U001418  000000000000 0000000000000.64     01650 01500                  
02641730212880074DT67590675900000005702800888800000010180088824001193068900011488154030920230000000609806823000000000387221434258XXXXXX6491               2111111   NYV4 A7W383068570801288N840000000006098QKQC00    01DNPSILOMART                078549    VD84000000006098 NP1549971004114   RLZLNXM3C8B4WCVHNBMC     000000000+                F DF 10420                     000000000  Y000000000 338   0000000000000.00 0000000.00   0000000.00                             000000000000000                                                                                                                                                     01418 G000000006098 0000000000000.25     00050 02200                  
02641740212880001P16759067590000000570280088880000001010000000000000000                             2000000000000000000000000              000000000000                    0000000000000000000000000                    000000000000                                                                                                                                                                                                                                                                                                                                                                                                                                                                                        
02641750212880075DT67590675900000005702800888800000010180088887287283068900011485334030920230000000250006823000000000387221542418XXXXXX9825       ME03KE06MS02      NY 4607AMPLHL7BT90309  N840000000002500          81DNPSILOMART                52774B    MC84000000002500 N  549900000001   rWiz7X8Y9D56ZTgUltUn     000000000+600450S00140    MPL  00580                     000000000  N                0000000000000.00 0000000.00   0000000.00                             000000000000000                                                                                                                                                   U001418  000000000000 0000000000000.63     02100 01000                  
02641760212880076DT67590675900000005702800888800000010180088824001193068900011496496030920230000000380006823000000000387221427082XXXXXX0134               2111111   NYV4 A7W463068591741384N84000000000380043NS00    01DNPSILOMART                009123    VS84000000003800 NP1549971004114   RS92VN4FG1BIOWZEXTQD     000000000+                D CD 12109                     000000000  N000000000 498   0000000000000.00 0000000.00   0000000.00                             000000000000000                                                                                                                                                     01418 G000000003800 0000000000001.05     02500 01000                  
02641770212880001P16759067590000000570280088880000001010000000000000000                             2000000000000000000000000              000000000000                    0000000000000000000000000                    000000000000                                                                                                                                                                                                                                                                                                                                                                                                                                                                                        
02641780212880077DT67590675900000005702800888800000010180088824001193068900011498732030920230000000459906823000000000387221414720XXXXXX5614               2111111   NYV4 A7W383068603664098N8400000000045994CBR00    01DNPSILOMART                08189I    VS84000000004599 NP1549971004114   RVYTY1RPTTHJHZGJFUGK     000000000+                I CI 12109                     000000000  N000000000 498   0000000000000.00 0000000.00   0000000.00                             000000000000000                                                                                                                                                     01418 G000000004599 0000000000001.25     02500 01000                  
02641790212880001P16759067590000000570280088880000001010000000000000000                             2000000000000000000000000              000000000000                    0000000000000000000000000                    000000000000                                                                                                                                                                                                                                                                                                                                                                                                                                                                                        
02641800212880078DT67590675900000005702800888800000010180088824001193068900011496702030920230000000350006823000000000387221446542XXXXXX5055               2111111   NYV4 A7W463068604428804N840000000003500NHM700    01DNPSILOMART                009356    VS84000000003500 NP1549971004114   REJR10QAU9GFS0LRSEML     000000000+                D CD 12109                     000000000  N000000000 498   0000000000000.00 0000000.00   0000000.00                             000000000000000                                                                                                                                                     01418 G000000003500 0000000000000.98     02500 01000                  
02641810212880001P16759067590000000570280088880000001010000000000000000                             2000000000000000000000000              000000000000                    0000000000000000000000000                    000000000000                                                                                                                                                                                                                                                                                                                                                                                                                                                                                        
02641820212880079DT67590675900000005702800888800000010180088887287283068900011401463030920230000001279706823000000000387221531260XXXXXX0176       ME03KE06MS02      NY 4607AMDJW6LTI40309  N840000000012797          81DNPSILOMART                155372    MD84000000012797 N  549900000001   rLxSXVRVr003kVzSrm5Z     000000000+600450S00140    MDJ  10813                     000000000  1                0000000000000.00 0000000.00   0000000.00                             000000000000000                                                                                                                                                   U001418  000000000000 0000000000000.28     00050 02200                  
02641830212880080DT67590675900000005702800888800000010180088824001193068900011404292030920230000000269906823000000000387221420767XXXXXX7340               2111111   NYV4 A7W583068619634423N8400000000026999M6C00    01DNPSILOMART                031212    VD84000000002699 NP1549971004114   RYJ9AK7GGFM3EILIYVF1     000000000+                F DF 10420                     000000000  Y000000000 338   0000000000000.00 0000000.00   0000000.00                             000000000000000                                                                                                                                                     01418 G000000002699 0000000000000.23     00050 02200                  
02641840212880001P16759067590000000570280088880000001010000000000000000                             2000000000000000000000000              000000000000                    0000000000000000000000000                    000000000000                                                                                                                                                                                                                                                                                                                                                                                                                                                                                        
02641850212880081DT67590675900000005702800888800000010180088824001193068900011407956030920230000000479906823000000000387221442755XXXXXX7020               2111111   NYV4 A7W383068627430843N840000000004799WPXG00    01DNPSILOMART                042512    VD84000000004799 NP1549971004114   RY64N1QY4CFFD82CIS7B     000000000+                F DF 10420                     000000000  Y000000000 338   0000000000000.00 0000000.00   0000000.00                             000000000000000                                                                                                                                                     01418 G000000004799 0000000000000.24     00050 02200                  
02641860212880001P16759067590000000570280088880000001010000000000000000                             2000000000000000000000000              000000000000                    0000000000000000000000000                    000000000000                                                                                                                                                                                                                                                                                                                                                                                                                                                                                        
02641870212880082DT67590675900000005702800888800000010180088824001193068900011412154030920230000004080006823000000000387221403623XXXXXX6208               2111111   NYV4 A7W303068633967471N8400000000408007MDZ00    01DNPSILOMART                021169    VD84000000040800 NP1549971004114   RXRYAPE9ZWWTOTLPTWIP     000000000+                G DG 10352                     000000000  Y000000000 338   0000000000000.00 0000000.00   0000000.00                             000000000000000                                                                                                                                                     01418 G000000040800 0000000000000.42     00050 02200                  
02641880212880001P16759067590000000570280088880000001010000000000000000    64244572013              2000000000000000000000000              000000000000                    0000000000000000000000000                    000000000000                                                                                                                                                                                                                                                                                                                                                                                                                                                                                        
02641890212880083DT67590675900000005702800888800000010180088887287283068900011415869030920230000000900006823000000000387221517805XXXXXX8155       ME03KE06MS02      NY 4607AMWER85KWR0309  N840000000009000          81DNPSILOMART                01249P    MC84000000009000 N  549900000001   rUb9imSRmnuoL0qV4UfU     000000000+600450S00140    MWE  00737                     000000000  N                0000000000000.00 0000000.00   0000000.00                             000000000000000                                                                                                                                                   U001418  000000000000 0000000000002.44     02600 01000                  
02641900212880084DT67590675900000005702800888800000010180088887287283068900011424440030920230000000289806823000000000387221531262XXXXXX2146       ME03KE06MS02      NY 4607AMDJV2PCLB0309  N840000000002898          81DNPSILOMART                163428    MD84000000002898 N  549900000001   rw3t9ojZtehMcpGUX8Hv     000000000+600450S00140    MDJ  10813                     000000000  1                0000000000000.00 0000000.00   0000000.00                             000000000000000                                                                                                                                                   U001418  000000000000 0000000000000.23     00050 02200                  
02641910212880085DT67590675900000005702800888800000010180088873011003068900011430756030920230000010000006823000000000387221372728XXXXX2015                          NY 4 07N004625841172307N840000000100000          01DNTRADE READY LLC          213915    AM84000000100000 N  549971004114                            000000000+6004S0S00140 258     11262                     000000000                   0000000000000.00 0000000.00   0000000.00                             000000000000000 61248972086759675900000005702 TRADE READY LLC          4744 PARADISE RD         7023386941      89169     PSILOMART@GMAIL.COM                       01418  000000000000 0000000000019.60     01950 00000                  
02641920212880086DT67590675900000005702800888800000010180088824001193068900011437029030920230000000535406823000000000387221414720XXXXXX8823               2111111   NYV4 A7W583068696520253N8400000000053544FND00    01DNPSILOMART                01564I    VS84000000005354 NP1549971004114   RWMI5LSYSJDLYPBZWK6D     000000000+                I CI 12109                     000000000  N000000000 498   0000000000000.00 0000000.00   0000000.00                             000000000000000                                                                                                                                                     01418 G000000005354 0000000000001.44     02500 01000                  
02641930212880001P16759067590000000570280088880000001010000000000000000                             2000000000000000000000000              000000000000                    0000000000000000000000000                    000000000000                                                                                                                                                                                                                                                                                                                                                                                                                                                                                        
02641940212880087DT67590675900000005702800888800000010180088824001193068900011448455030920230000000449806823000000000387221481588XXXXXX9639               2111111   NYV4 A7W463068732214299N8400000000044989ZBD00    01DNPSILOMART                162604    VD84000000004498 NP1549971004114   RUHOZ1OH7JIHNOSJF5JT     000000000+                G DG 10352                     000000000  Y000000000 338   0000000000000.00 0000000.00   0000000.00                             000000000000000                                                                                                                                                     01418 G000000004498 0000000000000.24     00050 02200                  
02641950212880001P16759067590000000570280088880000001010000000000000000    64244889012              2000000000000000000000000              000000000000                    0000000000000000000000000                    000000000000                                                                                                                                                                                                                                                                                                                                                                                                                                                                                        
02641960212880088DT67590675900000005702800888800000010180088824001193068900011459866030920230000000903606823000000000387221400022XXXXXX2863               2111111   NYV4 A7W463068756807553N840000000009036JZQL00    01DNPSILOMART                059498    VD84000000009036 NP1549971004114   R7NKKCAMRRATJLVU3DOX     000000000+                F DF 10420                     000000000  Y000000000 338   0000000000000.00 0000000.00   0000000.00                             000000000000000                                                                                                                                                     01418 G000000009036 0000000000000.27     00050 02200                  
02641970212880001P16759067590000000570280088880000001010000000000000000                             2000000000000000000000000              000000000000                    0000000000000000000000000                    000000000000                                                                                                                                                                                                                                                                                                                                                                                                                                                                                        
02641980212880089BH6759067590000000570280088880000090170309202306823000000000277500    0000090001157513N8008886759C03102023                                                                                                                                                                                                                                                                                                                                                                                                                                                                                                                                                                                                 
02641990212880090DT67590675900000005702800888800000010180088824001193068900011575133030920230000027750006823000000000277500431231XXXXXX0332               1001111   NYV4 A1V303068794121620N840000000277500PN2300    01DNPSILOMART                020317    VD84000000277500 NDR549971004114   C24734632968251.1        000000000+                G DG 10352                     000000000  Y000000000 338   0000000000000.00 0000000.00   0000000.00                             000000000000000                                                                                                                                                     01418 7000000277500 0000000000001.61     00050 02200                  
02642000212880090DR675906759000000057028008888000000101C24734632968251.1        A000000277500                 P1                                                                                                                                                                                                                                                                                                                                                                                                                                                                                                                                                                                                            
02642010212880001P16759067590000000570280088880000001010000000000000000    64245074194              2000000000000000000000000              000000000000                    0000000000000000000000000                    000000000000                                                                                                                                                                                                                                                                                                                                                                                                                                                                                        
02642020212880091BH6759067590000001129680010180000090170309202306823000000000067904    0000090001340012N8001016759C03102023                                                                                                                                                                                                                                                                                                                                                                                                                                                                                                                                                                                                 
02642030212880092DT67590675900000011296800101800000010180010177287283068900013400019030920230000001187706823000000000067904541413XXXXXX3585       MS02WI09          NY 1 0 AMCWRU56WR0309  N840000000011877          05DNPLANET VAPOR #1000       02957S    MC84000000011877 N  599976923732                            000000000+M10101C5434C    MCW  02184                     000000000  N                0000000000000.00 0000000.00   0000000.00                             000000000000000                                                                                                                                                   B101418  000000000000 0000000000002.83     02300 01000                  
02642040212880093DT67590675900000011296800101800000010180010124001193068900013400025030920230000000406706823000000000067904448232XXXXXX7000       VS11    0001111   NYV1 A E303068688618473N840000000004067988600    05DNPLANET VAPOR #1000       040735    VD84000000004067 N  599976923732                            000000000+                F DF 00381                     000000000  N000000000       0000000000000.00 0000000.00   0000000.00                             000000000000000                                                                                                                                                     01418 A000000000000 0000000000000.48     00800 01500                  
02642050212880094DT67590675900000011296800101800000010180010124001193068900013400033030920230000000641206823000000000067904415977XXXXXX7679       VS11    0001111   NYV1 A E463068716484216N8400000000064128HWN00    07DNPLANET VAPOR #1000       084827    VD84000000006412 N  599976923732                            000000000+                F DF 10433                     000000000  Y000000000 338   0000000000000.00 0000000.00   0000000.00                             000000000000000                                                                                                                                                     01418 A000000000000 0000000000000.25     00050 02200                  
02642060212880095DT67590675900000011296800101800000010180010173011003068900013400047030920230000000593906823000000000067904376747XXXXX1014                          NY 1 0 N004627721460307N840000000005939          05DNPLANET VAPOR INC #900    809725    AM84000000005939 N  599976923732                            000000000+51010155434C 258     11261                     000000000                   0000000000000.00 0000000.00   0000000.00                             000000000000000 61248972086759675900000011296 PLANET VAPOR INC #900    222 EDGEFIELD RD         8035462263      29841     KEVIN@MOOREDISTRO.COM                     01418  000000000000 0000000000001.05     01600 00000                  
02642070212880096DT67590675900000011296800101800000010180010124001193068900013400058030920230000000593806823000000000067904448232XXXXXX8659       VS11    0001111   NYV1 A E583068756168624N840000000005938G2F500    05DNPLANET VAPOR #1000       060009    VD84000000005938 N  599976923732                            000000000+                F DF 00381                     000000000  N000000000       0000000000000.00 0000000.00   0000000.00                             000000000000000                                                                                                                                                     01418 A000000000000 0000000000000.63     00800 01500                  
02642080212880097DT67590675900000011296800101800000010180010124001193068900013400066030920230000000777206823000000000067904473702XXXXXX3191       VS11    0001111   NYV1 A E583068758051637N840000000007772TQBS00    05DNPLANET VAPOR #1000       040368    VD84000000007772 N  599976923732                            000000000+                F DF 10433                     000000000  Y000000000 338   0000000000000.00 0000000.00   0000000.00                             000000000000000                                                                                                                                                     01418 A000000000000 0000000000000.26     00050 02200                  
02642090212880098DT67590675900000011296800101800000010180010124001193068900013400074030920230000000213706823000000000067904449996XXXXXX9036       VS11    0001111   NYV1 A E383068759630027N840000000002137N8LW00    05DNPLANET VAPOR #1000       060604    VD84000000002137 N  599976923732                            000000000+                F DF 00381                     000000000  N000000000       0000000000000.00 0000000.00   0000000.00                             000000000000000                                                                                                                                                     01418 A000000000000 0000000000000.32     00800 01500                  
02642100212880099DT67590675900000011296800101800000010180010124001193068900013400082030920230000000280706823000000000067904473703XXXXXX3345       VS11    0001111   NYV1 A E583068793945846N840000000002807WWTX00    07DNPLANET VAPOR #1000       054993    VD84000000002807 N  599976923732                            000000000+                F DF 10433                     000000000  Y000000000 338   0000000000000.00 0000000.00   0000000.00                             000000000000000                                                                                                                                                     01418 A000000000000 0000000000000.23     00050 02200                  
02642110212880100DT67590675900000011296800101800000010180010124001193068900013400090030920230000000174906823000000000067904440393XXXXXX6832       VS11    0001111   NYV1 A E303068816403800N840000000001749P7C300    07DNPLANET VAPOR #1000       430404    VD84000000001749 N  599976923732                            000000000+                F PF 08170                     000000000  N000000000       0000000000000.00 0000000.00   0000000.00                             000000000000000                                                                                                                                                     01418 A000000000000 0000000000000.35     01150 01500                  
02642120212880101DT67590675900000011296800101800000010180010124001193068900013400108030920230000000755806823000000000067904481566XXXXXX1013       VS11    0001111   NYV1 A E303068837225851N840000000007558WHNS00    07DNPLANET VAPOR #1000       H79134    VD84000000007558 N  599976923732                            000000000+                F DF 10433                     000000000  Y000000000 338   0000000000000.00 0000000.00   0000000.00                             000000000000000                                                                                                                                                     01418 A000000000000 0000000000000.26     00050 02200                  
02642130212880102DT67590675900000011296800101800000010180010124001193068900013400116030920230000000475006823000000000067904467403XXXXXX1729       VS11    0001111   NYV1 A E463068841074106N840000000004750T85700    07DNPLANET VAPOR #1000       010373    VS84000000004750 N  599976923732                            000000000+                A CA 12110                     000000000  N000000000 493   0000000000000.00 0000000.00   0000000.00                             000000000000000                                                                                                                                                     01418 A000000000000 0000000000000.82     01510 01000                  
02642140212880103DT67590675900000011296800101800000010180010124001193068900013400124030920230000000689806823000000000067904448232XXXXXX9512       VS11    0001111   NYV1 A E303069025215058N840000000006898GMGB00    05DNPLANET VAPOR #1000       094154    VD84000000006898 N  599976923732                            000000000+                F DF 00381                     000000000  N000000000       0000000000000.00 0000000.00   0000000.00                             000000000000000                                                                                                                                                     01418 A000000000000 0000000000000.70     00800 01500                  
02642150212880104BH6759067590000000833480010180000090170309202306823000000000238067    0000090001290058N8001016759C03102023                                                                                                                                                                                                                                                                                                                                                                                                                                                                                                                                                                                                 
02642160212880105DT67590675900000008334800101800000010180010124001193068900012900017030920230000000427806823000000000238067473703XXXXXX7708       VS11    0001111   NYV1 A E583068536814941N840000000004278NHVP00    05DNPLANET VAPOR #400        037894    VD84000000004278 N  599976779447                            000000000+                F DF 10433                     000000000  Y000000000 338   0000000000000.00 0000000.00   0000000.00                             000000000000000                                                                                                                                                     01418 A000000000000 0000000000000.24     00050 02200                  
02642170212880106DT67590675900000008334800101800000010180010124001193068900012900025030920230000000374306823000000000238067473703XXXXXX7302       VS11    0001111   NYV1 A E303068539165109N840000000003743N9DF00    05DNPLANET VAPOR #400        091763    VD84000000003743 N  599976779447                            000000000+                F DF 10433                     000000000  Y000000000 338   0000000000000.00 0000000.00   0000000.00                             000000000000000                                                                                                                                                     01418 A000000000000 0000000000000.24     00050 02200                  
02642180212880107DT67590675900000008334800101800000010180010124001193068900012900033030920230000000406406823000000000238067403623XXXXXX9722       VS11    0001111   NYV1 A E463068550310855N840000000004064PXSC00    05DNPLANET VAPOR #400        011716    VD84000000004064 N  599976779447                            000000000+                G DG 10351                     000000000  Y000000000 338   0000000000000.00 0000000.00   0000000.00                             000000000000000                                                                                                                                                     01418 A000000000000 0000000000000.24     00050 02200                  
02642190212880108DT67590675900000008334800101800000010180010177287283068900012900043030920230000000470606823000000000238067514616XXXXXX6027       MS02WI09          NY 1 0 AMDJZ36II40309  N840000000004706          05DNPLANET VAPOR #400        092658    MD84000000004706 N  599976779447                            000000000+M10101C5434C    MDJ  00402                     000000000  N                0000000000000.00 0000000.00   0000000.00                             000000000000000                                                                                                                                                   B101418  000000000000 0000000000000.64     01050 01500                  
02642200212880109DT67590675900000008334800101800000010180010124001193068900012900058030920230000000288706823000000000238067466189XXXXXX0145       VS11    0001111   NYV1 A E303068559675902N840000000002887SVV600    05DNPLANET VAPOR #400        043645    VD84000000002887 N  599976779447                            000000000+                F DF 10433                     000000000  Y000000000 338   0000000000000.00 0000000.00   0000000.00                             000000000000000                                                                                                                                                     01418 A000000000000 0000000000000.23     00050 02200                  
02642210212880110DT67590675900000008334800101800000010180010124001193068900012900066030920230000000748806823000000000238067463895XXXXXX2890       VS11    0001111   NYV1 A E463068582361537N840000000007488BPRQ00    05DNPLANET VAPOR #400        964290    VD84000000007488 N  599976779447                            000000000+                F DF 00381                     000000000  N000000000       0000000000000.00 0000000.00   0000000.00                             000000000000000                                                                                                                                                     01418 A000000000000 0000000000000.75     00800 01500                  
02642220212880111DT67590675900000008334800101800000010180010124001193068900012900074030920230000001112606823000000000238067414740XXXXXX9306       VS11    0001111   NYV1 A E463068583277453N840000000011126296K00    05DNPLANET VAPOR #400        06226D    VS84000000011126 N  599976779447                            000000000+                D CD 12113                     000000000  N000000000 499   0000000000000.00 0000000.00   0000000.00                             000000000000000                                                                                                                                                     01418 A000000000000 0000000000002.44     02100 01000                  
