05772760273214309AD675906759000000161968001028000009071900013813560000002424106112023NYY16223ND6759800102061320232023160022966                                                                                                                                                                                                                                                                                                                                                                                                                                                                                                                                                                                              
05772770273214312AD675906759000000151648008888000009071900016665940000000654806112023NYY16223ND6759800888061320232023160022967                                                                                                                                                                                                                                                                                                                                                                                                                                                                                                                                                                                              
05772780273214315AD675906759000000058928001018000009071900014621680000002250006112023NYY16223ND6759800101061320232023160022968                                                                                                                                                                                                                                                                                                                                                                                                                                                                                                                                                                                              
05772790273214318AD675906759000000198288001098000009077900012032630000001499006112023NYY16223YC6759800109061320232023160022970                                                                                                                                                                                                                                                                                                                                                                                                                                                                                                                                                                                              
05772800273214321AD675906759000000133008001028000009071900010948040000001400806112023NYY16223ND6759800102061320232023160022969                                                                                                                                                                                                                                                                                                                                                                                                                                                                                                                                                                                              
05772810273214324AD675906759000000268498001258000009071900013909070000001977006112023NYY16223ND6759800125061320232023160022972                                                                                                                                                                                                                                                                                                                                                                                                                                                                                                                                                                                              
05772820273214327AD675906759000000198288001098000009071900012136820000001987006112023NYY16223ND6759800109061320232023160022973                                                                                                                                                                                                                                                                                                                                                                                                                                                                                                                                                                                              
05772830273214330AD675906759000000198288001098000009071900015797770000001987006112023NYY16223ND6759800109061320232023160022974                                                                                                                                                                                                                                                                                                                                                                                                                                                                                                                                                                                              
05772840273214336AD675906759000000198288001098000009077900013261630000000654806112023NYY16223YC6759800109061320232023145027434                                                                                                                                                                                                                                                                                                                                                                                                                                                                                                                                                                                              
05772850273214342AD675906759000000198288001098000009077900013261620000000542806112023NYY16223YC6759800109061320232023144004527                                                                                                                                                                                                                                                                                                                                                                                                                                                                                                                                                                                              
05772860273214348AD675906759000000198288001098000009077900013890450000002487006112023NYY16223YC6759800109061320232023143047199                                                                                                                                                                                                                                                                                                                                                                                                                                                                                                                                                                                              
05772870273214354AD675906759000000268498001258000009077900011423580000001977006112023NYY16223YC6759800125061320232023151021307                                                                                                                                                                                                                                                                                                                                                                                                                                                                                                                                                                                              
05772880273541881AD675906759000000198288001098000009071231350374160000001987006092023NYY16023ND6759800109061320232023135037416                                                                                                                                                                                                                                                                                                                                                                                                                                                                                                                                                                                              
05772890273541884AD675906759000000151648008888000009071231390034740000001187206092023NYY16023ND6759800888061320232023139003474                                                                                                                                                                                                                                                                                                                                                                                                                                                                                                                                                                                              
05772900273541887AD675906759000000198288001098000009071231420024280000001578606092023NYY16023ND6759800109061320232023142002428                                                                                                                                                                                                                                                                                                                                                                                                                                                                                                                                                                                              
05772910275820002BH6759067590000001165080088880000090170612202316323000000000073786    0000090001220016N8008886759C06132023122                                                                                                                                                                                                                                                                                                                                                                                                                                                                                                                                                                                              
05772920275820003DT67590675900000011650800888800000010180088824001193163900012200016061020230000000305716323000000000073786414720XXXXXX2105       VS11    0001111   NYV1 A E383162130436669N840000000003057S8BR00    07DNVPODS HOLDING INC        01718C    VS84000000003057 N  599977032122                            000000000+                C CC 12112                     000000000  N000000000 497   0000000000000.00 0000000.00   0000000.00                             000000000000000                                                                                                                                                     01418 A000000000000 0000000000000.60     01650 01000                  
05772930275820001E167590675900000011650800888800000010100E068C8004F 00000000000.004040404040404040404040404040404040404040404040404006021203A00000000000000000000000404040404040404040404040404040  0002084020000000000000230610000000007ED29BED9F51F0A6404040400840A000000003101000000000000000000073A632660082000000000000000000004040404040404040 000000030.57 000000000.004040400000000000000000    80                                                                                                                                                                                                                                                                                                                  
05772940275820002G2675906759000000116508008888000000101CHICAGO                  IL           5 C                00                                      NNNN00 Y 00                   000000000000                                                                   77032122                                                                                                                                                                                                                                                                                                                                                                                                                                               
05772950275820004DT67590675900000011650800888800000010180088824001193163900012200024061020230000000305716323000000000073786414720XXXXXX2941       VS11    0001111   NYV1 A E383162133038381N840000000003057P2KV00    05DNVPODS HOLDING INC        04297C    VS84000000003057 N  599977032122                            000000000+                C CC 12112                     000000000  N000000000 497   0000000000000.00 0000000.00   0000000.00                             000000000000000                                                                                                                                                     01418 A000000000000 0000000000000.60     01650 01000                  
05772960275820001E167590675900000011650800888800000010100E0F8C80118 00000000000.004040404040404040404040404040404040404040404040404006021203A02002000000000000000000404040404040404040404040404040  00010840380000800080002306104B60464D26005B46315396F9404040400840A000000003101000000000000000000084A9790D0082000000000000000000004040401E40404040 000000030.57 000000000.001E00000000000000000000    80                                                                                                                                                                                                                                                                                                                  
05772970275820002G2675906759000000116508008888000000101CHICAGO                  IL           5 C                00                                      NNNN00 Y 00                   000000000000                                                                   77032122                                                                                                                                                                                                                                                                                                                                                                                                                                               
05772980275820005DT67590675900000011650800888800000010180088877287283163900012200034061020230000001188816323000000000073786521307XXXXXX8537       MS02WI09          NY 1 0 AMWE79P2970610  N840000000011888          05DNVPODS HOLDING INC        05026Z    MC84000000011888 N  599977032122                            000000000+M10101C5434C    MWE  00739                     000000000  N                0000000000000.00 0000000.00   0000000.00                             000000000000000                                                                                                                                                   B101418  000000000000 0000000000002.83     02300 01000                  
05772990275820001E167590675900000011650800888800000010100E0F8C80038 00000000000.00404040404040404040404040404040404040404040404040400214A04203A20000000000000000000000FF00000000000000000000000000  0001084039000000008000230611D34BCDB25E4FD0CDE098021B404040400840A000000004101000000000000000000098B6B16F4BC8722300120000000000004040401E40404040 000000118.88 000000000.001E03000000000000000000    80                                                                                                                                                                                                                                                                                                                  
05773000275820002G2675906759000000116508008888000000101CHICAGO                  IL           5 E                                                        NNNN              000000000000000000000000                        7                                          77032122                                                                                                                                                                                                                                                                                                                                                                                                                                               
05773010275820006DT67590675900000011650800888800000010180088824001193163900012200040061120230000000305716323000000000073786406095XXXXXX3225       VS11    0001111   NYV1 A E583162631276637N8400000000030577QTN00    07DNVPODS HOLDING INC        06240D    VS84000000003057 N  599977032122                            000000000+                D CD 12113                     000000000  N000000000 499   0000000000000.00 0000000.00   0000000.00                             000000000000000                                                                                                                                                     01418 A000000000000 0000000000000.74     02100 01000                  
05773020275820001E167590675900000011650800888800000010100E068C80097 00000000000.004040404040404040404040404040404040404040404040404006011203A00000000000000000000000404040404040404040404040404040  000108402000000000000023061132D8B0E172ADD444AA4D8DC5404040400840A0000000031010000000000000000000404040404040404040404040404040404040404040404040 000000030.57 000000000.004040400000000000000000    80                                                                                                                                                                                                                                                                                                                  
05773030275820002G2675906759000000116508008888000000101CHICAGO                  IL           5 C                00                                      NNNN00 Y 00                   000000000000                                                                   77032122                                                                                                                                                                                                                                                                                                                                                                                                                                               
05773040275820007DT67590675900000011650800888800000010180088824001193163900012200057061120230000000257416323000000000073786465992XXXXXX9037       VS11    0001111   NYV1 A E303162676036535N840000000002574ZV8T00    07DNVPODS HOLDING INC        189281    VD84000000002574 N  599977032122                            000000000+                F DF 00381                     000000000  N000000000       0000000000000.00 0000000.00   0000000.00                             000000000000000                                                                                                                                                     01418 A000000000000 0000000000000.36     00800 01500                  
05773050275820001E167590675900000011650800888800000010100E068C80004 00000000000.00404040404040404040404040404040404040404040404040401F42FF31A00000000010030273000000004000000000000000000000000000  0000084000400000000000230611735684B359A10288391C15C8404040400840A0000000031010000000000000000000065620D60086000000000000000000004040404040404040 000000025.74 000000000.004040400000000000000000    80                                                                                                                                                                                                                                                                                                                  
05773060275820002G2675906759000000116508008888000000101CHICAGO                  IL           5 D                00                                      NNNN00 N 00                   000000000000                                                                   77032122                                                                                                                                                                                                                                                                                                                                                                                                                                               
05773070275820008DT67590675900000011650800888800000010180088877287283163900012200067061120230000000079216323000000000073786527520XXXXXX8308       MS02WI09          NY 1 0 AMDJW121FA0611  N840000000000792          07DNVPODS HOLDING INC        140208    MD84000000000792 N  599977032122                            000000000+M10101M0034C    MDJ  10815                     000000000  1                0000000000000.00 0000000.00   0000000.00                             000000000000000                                                                                                                                                   B101418  000000000000 0000000000000.22     00050 02200                  
05773080275820001E16759067590000001165080088880000001010000084800D8 00000000000.00404040404040404040404040404040404040404040404040400414A04301220000000000000000000000FF00000000000000000000000000  00000840198000000080012306119886E6F6D4DECA95C98854AF404040400840A0000000041010000000000000000000404040404040404040404040404040404040401F40404040 000000007.92 000000000.001F03020000000000000000    80                                                                                                                                                                                                                                                                                                                  
05773090275820002G2675906759000000116508008888000000101CHICAGO                  IL           5 J                                                        NNNN              000000000000000000000000       03               7                                          77032122                                                                                                                                                                                                                                                                                                                                                                                                                                               
05773100275820009DT67590675900000011650800888800000010180088877287283163900012200075061120230000001358816323000000000073786525475XXXXXX3984       MS02WI09          NY 1 0 AMWEMJ47PC0611  N840000000013588          05DNVPODS HOLDING INC        65128Z    MC84000000013588 N  599977032122                            000000000+M10101C5434C    MWE  00739                     000000000  N                0000000000000.00 0000000.00   0000000.00                             000000000000000                                                                                                                                                   B101418  000000000000 0000000000003.23     02300 01000                  
05773110275820001E167590675900000011650800888800000010100E0F8C80033 00000000000.00404040404040404040404040404040404040404040404040400110A04001220000000000000000000000FF00000000000000000000000000  00010840390000000080002306115C06D624A32F4AFC2E2BD06A404040400840A00000000410100000000000000000008F63871F38270FC200120000000000004040401E40404040 000000135.88 000000000.001E03000000000000000000    80                                                                                                                                                                                                                                                                                                                  
05773120275820002G2675906759000000116508008888000000101CHICAGO                  IL           5 E                                                        NNNN              000000000000000000000000                        7                                          77032122                                                                                                                                                                                                                                                                                                                                                                                                                                               
05773130275820010DT67590675900000011650800888800000010180088824001193163900012200081061120230000001057416323000000000073786406032XXXXXX5055       VS11    0001111   NYV1 A E303162746230370N8400000000105749G4Q00    05DNVPODS HOLDING INC        034316    VD84000000010574 N  599977032122                            000000000+                F DF 10433                     000000000  Y000000000 338   0000000000000.00 0000000.00   0000000.00                             000000000000000                                                                                                                                                     01418 A000000000000 0000000000000.27     00050 02200                  
05773140275820001E167590675900000011650800888800000010100E0F8C80350 00000000000.004040404040404040404040404040404040404040404040404006011203A08000000000000000000000404040404040404040404040404040  0000084018008080008000230611E1F99D7EEC31837D636B3686404040400840A0000000031010000000000000000000F06090700080000020200000000000004040401E40404040 000000105.74 000000000.001E00000000000000000000    80                                                                                                                                                                                                                                                                                                                  
05773150275820002G2675906759000000116508008888000000101CHICAGO                  IL           5 D                00                                      NNNN00 N 00                   000000000000                                                                   77032122                                                                                                                                                                                                                                                                                                                                                                                                                                               
05773160275820011DT67590675900000011650800888800000010180088824001193163900012200099061120230000000226416323000000000073786426684XXXXXX6882       VS11    0001111   NYV1 A E583162857913698N840000000002264WB2L00    07DNVPODS HOLDING INC        08545C    VS84000000002264 N  599977032122                            000000000+                C CC 12112                     000000000  N000000000 497   0000000000000.00 0000000.00   0000000.00                             000000000000000                                                                                                                                                     01418 A000000000000 0000000000000.47     01650 01000                  
05773170275820001E167590675900000011650800888800000010100E068C800D3 00000000000.004040404040404040404040404040404040404040404040404006021203A00000000000000000000000404040404040404040404040404040  0001084020000000000000230611342BBBC4CAC7A832CE410211404040400840A00000000310100000000000000000009625C0B50082000000000000000000004040404040404040 000000022.64 000000000.004040400000000000000000    80                                                                                                                                                                                                                                                                                                                  
05773180275820002G2675906759000000116508008888000000101CHICAGO                  IL           5 C                00                                      NNNN00 Y 00                   000000000000                                                                   77032122                                                                                                                                                                                                                                                                                                                                                                                                                                               
05773190275820012DT67590675900000011650800888800000010180088877287283163900012200109061120230000000283016323000000000073786542432XXXXXX4408       MS02WI09          NY 1 0 AMDJGUABK60611  N840000000002830          07DNVPODS HOLDING INC        741091    MD84000000002830 N  599977032122                            000000000+M10101M0034C    MDJ  10815                     000000000  1                0000000000000.00 0000000.00   0000000.00                             000000000000000                                                                                                                                                   B101418  000000000000 0000000000000.23     00050 02200                  
05773200275820001E167590675900000011650800888800000010100000848021F 00000000000.00404040404040404040404040404040404040404040404040400110A04001220000000000000000000000FF00000000000000000000000000  0000084019800000008001230611AB2B403437D60D0F5DD24158404040400840A0000000041010000000000000000000404040404040404040404040404040404040401F40404040 000000028.30 000000000.001F03020000000000000000    80                                                                                                                                                                                                                                                                                                                  
05773210275820002G2675906759000000116508008888000000101CHICAGO                  IL           5 J                                                        NNNN              000000000000000000000000       03               7                                          77032122                                                                                                                                                                                                                                                                                                                                                                                                                                               
05773220275820013DT67590675900000011650800888800000010180088877287283163900012200117061120230000000283016323000000000073786535412XXXXXX6513       MS02WI09          NY 1 0 AMDJGVUJK60611  N840000000002830          07DNVPODS HOLDING INC        011784    MD84000000002830 N  599977032122                            000000000+M10101M0034C    MDJ  10815                     000000000  1                0000000000000.00 0000000.00   0000000.00                             000000000000000                                                                                                                                                   A101418  000000000000 0000000000000.23     00050 02200                  
05773230275820001E167590675900000011650800888800000010100000848010B 00000000000.00404040404040404040404040404040404040404040404040400114A14003020000000000000000000000FF00000000000000000000000000  000008401B80000000800123061105719BD2B3FB1A0221620E0B404040400840A0000000041010000000000000000000404040404040404040404040404040404040403F40404040 000000028.30 000000000.003F00020000000000000000    80                                                                                                                                                                                                                                                                                                                  
05773240275820002G2675906759000000116508008888000000101CHICAGO                  IL           5 J                                                        NNNN              000000000000000000000000       03               C                                          77032122                                                                                                                                                                                                                                                                                                                                                                                                                                               
05773250275820014DT67590675900000011650800888800000010180088877287283163900012200125061120230000000384816323000000000073786551153XXXXXX8137       MS02WI09          NY 1 0 AMDSSI42VH0611  N840000000003848          05DNVPODS HOLDING INC        092532    MD84000000003848 N  599977032122                            000000000+M10101C5434C    MDS  10815                     000000000  1                0000000000000.00 0000000.00   0000000.00                             000000000000000                                                                                                                                                   B101418  000000000000 0000000000000.24     00050 02200                  
05773260275820001E167590675900000011650800888800000010100E0F8C80176 00000000000.00404040404040404040404040404040404040404040404040400110A00001220000000000000000000000FF00000000000000000000000000  0000084018008000008000230611F80F396E0709EA7F86EDEF6E404040400840A0000000041010000000000000000000E729AA6070CF18EF031A0000000000004040401E40404040 000000038.48 000000000.001E03000000000000000000    80                                                                                                                                                                                                                                                                                                                  
05773270275820002G2675906759000000116508008888000000101CHICAGO                  IL           5 S                                                        NNNN              000000000000000000000000                        7                                          77032122                                                                                                                                                                                                                                                                                                                                                                                                                                               
05773280275820015DT67590675900000011650800888800000010180088824001193163900012200131061120230000000305716323000000000073786482914XXXXXX7647       VS11    0001111   NYV1 A E383163016319286N8400000000030578ZZ300    07DNVPODS HOLDING INC        177433    VD84000000003057 N  599977032122                            000000000+                F DF 10433                     000000000  Y000000000 338   0000000000000.00 0000000.00   0000000.00                             000000000000000                                                                                                                                                     01418 A000000000000 0000000000000.24     00050 02200                  
05773290275820001E167590675900000011650800888800000010100E068C8007A 00000000000.00404040404040404040404040404040404040404040404040401F4AFF32A00000000010030273000000004000000000000000000000000000  00000840004000000000002306112DAF9E16C2BB89159DCE3F64404040400840A00000000310100000000000000000005DFB84383144151730300000000000004040404040404040 000000030.57 000000000.004040400000000000000000    80                                                                                                                                                                                                                                                                                                                  
05773300275820002G2675906759000000116508008888000000101CHICAGO                  IL           5 D                00                                      NNNN00 N 00                   000000000000                                                                   77032122                                                                                                                                                                                                                                                                                                                                                                                                                                               
05773310275820016DT67590675900000011650800888800000010180088824001193163900012200149061120230000000226416323000000000073786407123XXXXXX4465       VS11    0001111   NYV1 A E383163020024773N8400000000022644M7300    07DNVPODS HOLDING INC        09680D    VS84000000002264 N  599977032122                            000000000+                D CD 12113                     000000000  N000000000 499   0000000000000.00 0000000.00   0000000.00                             000000000000000                                                                                                                                                     01418 A000000000000 0000000000000.58     02100 01000                  
05773320275820001E167590675900000011650800888800000010100E068C801CA 00000000000.00404040404040404040404040404040404040404040404040401F420132A00000000010030273000000004000000000000000000000000000  00000840006000000000002306111C1E486EB69DF55BBB452C8E404040400840A00000000310100000000000000000000A5166240086000000000000000000004040404040404040 000000022.64 000000000.004040400000000000000000    80                                                                                                                                                                                                                                                                                                                  
05773330275820002G2675906759000000116508008888000000101CHICAGO                  IL           5 C                00                                      NNNN00 N 00                   000000000000                                                                   77032122                                                                                                                                                                                                                                                                                                                                                                                                                                               
05773340275820017DT67590675900000011650800888800000010180088877287283163900012200158061120230000000735916323000000000073786522914XXXXXX3384       MS02WI09          NY 2 0 AMDJHSWJK60611  N840000000007359          07DNVPODS HOLDING INC        000137    MD84000000007359 N  599977032122                            000000000+M10101M1334C    MDJ  10815                     000000000  1                0000000000000.00 0000000.00   0000000.00                             000000000000000                                                                                                                                                   B101418  000000000000 0000000000000.26     00050 02200                  
05773350275820001E1675906759000000116508008888000000101000060C800B6 00000000000.00404040404040404040404040404040404040404040404040400110A04001220000000000000000000000FF00000000000000000000000000  0000084019800000048001230611C1017C7411FD230DE2406FC8404040400840A0000000041010000000000000000000404040404040404040404040404040404040404240404040 000000073.59 000000000.004203000000000000000000    80                                                                                                                                                                                                                                                                                                                  
05773360275820002G2675906759000000116508008888000000101CHICAGO                  IL           5 J                                                        NNNN              000000000000000000000000       03               7                                          77032122                                                                                                                                                                                                                                                                                                                                                                                                                                               
05773370275820018DT67590675900000011650800888800000010180088824001193163900012200164061120230000000074716323000000000073786411770XXXXXX0119       VK04VS111111111   NYV1 A E383163057315435N840000000000747CFHZ00    07DNVPODS HOLDING INC        143458    VD84000000000747 N  599977032122                            000000000+                F DF 10439                     000000000  Y000000000 331   0000000000000.00 0000000.00   0000000.00                             000000000000000                                                                                                                                                     01418 F000000000000 0000000000000.22     00050 02200                  
05773380275820001E167590675900000011650800888800000010100E068C8002E 00000000000.004040404040404040404040404040404040404040404040404006021203A00000000000000000000000404040404040404040404040404040  000008402000000000000023061101495D321B5F9D19909D7C3F404040400840A0000000031010000000000000000000404040404040404040404040404040404040404040404040 000000007.47 000000000.004040400000000000000000    80                                                                                                                                                                                                                                                                                                                  
05773390275820002G2675906759000000116508008888000000101CHICAGO                  IL           5 D                00                                      NNNN00 N 00                   000000000000                                                                   77032122                                                                                                                                                                                                                                                                                                                                                                                                                                               
05773400275820019BH6759067590000000215480088880000090170612202316323000000000129180    0000090001067674N8008886759C06132023806                                                                                                                                                                                                                                                                                                                                                                                                                                                                                                                                                                                              
05773410275820020DT67590675900000002154800888800000010180088887287283163900010642970061220230000004950016323000000000129180520711XXXXXX6682                         NY 4607AMDBFX0CK60611  N840000000049500          81DNDRIP DROP DISTRO LLC     258987    MD84000000049500 NDR519900000001   INV-002476               000000000+600450S00140    MDB  00062                     000000000  N                0000000000000.00 0000000.00   0000000.00                             000000000000000                                                                                                                                                   U001418  000000000000 0000000000013.22     02650 01000                  
05773420275820020DR675906759000000021548008888000000101INV-002476               Y000000000000                 P1                                                                                                                                                                                                                                                                                                                                                                                                                                                                                                                                                                                                            
05773430275820001P1675906759000000021548008888000000101                                                          000000000000          8000            471534935                                                                                                                                                                                                                                                                                                                                                                                                                                                                                                                                                            
05773440275820002G2675906759000000021548008888000000101208-7033453              ID           9 B               210                  471534935           YNNN           210000000000000000000000000                        7                                          71004114                                                                                                                                                                                                                                                                                                                                                                                                                                               
05773450275820021DT67590675900000002154800888800000010180088824001193163900010649487061220230000003888016323000000000129180426930XXXXXX0531               2111111   NYV4 A7W383163773731146N84000000003888074Z500    01DNDRIP DROP DISTRO LLC     08000G    VB84000000038880 NDR519971004114   INV-002699               000000000+                G5CG511887                     000000000  N000000000 163   0000000000000.00 0000000.00   0000000.00                             000000000000000                                                                                                                                                     01418 G000000038880 0000000000011.76     03000 01000                  
05773460275820021DR675906759000000021548008888000000101INV-002699               A000000038880                 P1                                                                                                                                                                                                                                                                                                                                                                                                                                                                                                                                                                                                            
05773470275820001P16759067590000000215480088880000001010000000000000000    44149624919              2000000000000000000000000              000000000000                    0000000000000000000000000                    000000000000                                                                                                                                                                                                                                                                                                                                                                                                                                                                                        
05773480275820002G2675906759000000021548008888000000101800-9833326              ID           9 C                00                                      NNNN   Y                      000000000000                                                                   71004114                                                                                                                                                                                                                                                                                                                                                                                                                                               
05773490275820022DT67590675900000002154800888800000010180088824001193163900010676746061220230000004080016323000000000129180415417XXXXXX1825               2111111   NYV4 A7W303163596737733N840000000040800P34600    01DNDRIP DROP DISTRO LLC     03018G    VB84000000040800 NDR519971004114   INV-002689               000000000+                G5CG511887                     000000000  N000000000 163   0000000000000.00 0000000.00   0000000.00                             000000000000000                                                                                                                                                     01418 G000000040800 0000000000012.34     03000 01000                  
05773500275820022DR675906759000000021548008888000000101INV-002689               Y000000040800                 P1                                                                                                                                                                                                                                                                                                                                                                                                                                                                                                                                                                                                            
05773510275820001P16759067590000000215480088880000001010000000000000000    44149079244              2000000000000000000000000              000000000000                    0000000000000000000000000                    000000000000                                                                                                                                                                                                                                                                                                                                                                                                                                                                                        
05773520275820002G2675906759000000021548008888000000101800-9833326              ID           9 C                00                                      NNNN   Y                      000000000000                                                                   71004114                                                                                                                                                                                                                                                                                                                                                                                                                                               
05773530275820023BH6759067590000000288180088880000090170612202316323000000000084402    0000090001370024N8008886759C06132023137                                                                                                                                                                                                                                                                                                                                                                                                                                                                                                                                                                                              
05773540275820024DT67590675900000002881800888800000010180088877287283163900013700016061220230000000295016323000000000084402511953XXXXXX5061       MS02WI09          NY 1 0 AMDJM3XP3B0612  N840000000002950          07DNHAPPY HIPPIE             044269    MD84000000002950 N  549976487134                            000000000+M10101M0034C    MDJ  00402                     000000000  N                0000000000000.00 0000000.00   0000000.00                             000000000000000                                                                                                                                                   B101418  000000000000 0000000000000.46     01050 01500                  
05773550275820001E1675906759000000028818008888000000101000008480008 00000000000.00404040404040404040404040404040404040404040404040400110A04001220000000000000000000000FF00000000000000000000000000  0001084019800000008001230612354432FFCA2A7B0E2B7E5B67404040400840A0000000041010000000000000000000404040404040404040404040404040404040401F40404040 000000029.50 000000000.001F03020000000000000000    80                                                                                                                                                                                                                                                                                                                  
05773560275820002G2675906759000000028818008888000000101SEVIERVILLE              TN           5 J                                                        NNNN              000000000000000000000000       03               7                                          76487134                                                                                                                                                                                                                                                                                                                                                                                                                                               
05773570275820025DT67590675900000002881800888800000010180088824001193163900013700022061220230000000059016323000000000084402409451XXXXXX2359       VK04VS111111111   NYV1 A E383163525773186N840000000000590PMJ800    05DNHAPPY HIPPIE             902163    VS84000000000590 N  549976487134                            000000000+                D CD 12057                     000000000  N000000000 452   0000000000000.00 0000000.00   0000000.00                             000000000000000                                                                                                                                                     01418 F000000000000 0000000000000.13     02200 00000                  
05773580275820001E167590675900000002881800888800000010100E0F8C8023C 00000000000.004040404040404040404040404040404040404040404040404006011203A0A000000000000000000000404040404040404040404040404040  00010840180080800080002306121D936D5991CFC98E8EE68391404040400840A00000000310100000000000000000007B35703909C13E2E30300000000000004040401E40404040 000000005.90 000000000.001E00000000000000000000    80                                                                                                                                                                                                                                                                                                                  
05773590275820002G2675906759000000028818008888000000101SEVIERVILLE              TN           5 C                00                                      NNNN00 Y 00                   000000000000                                                                   76487134                                                                                                                                                                                                                                                                                                                                                                                                                                               
05773600275820026DT67590675900000002881800888800000010180088876509753163900013700038061220230000000449616323000000000084402601101XXXXXX5593   BA05                  NY41 0 N873140361697144N840000000004496    00    07DNHAPPY HIPPIE             01265R    DS84000000004496 N  549976487134830                         000000000+0000004910H00   DCCDI01000334462  075609000000 000000000  0          112   0000000000000.00 0000000.00   0000000.00                             000000000000000                                                                                                                                                     01418  000000000000 0000000000000.87     01720 01000                  
05773610275820001E167590675900000002881800888800000010100E068C80042 00000000000.00404040404040404040404040404040404040404040404040400115E09000003500B800010000000044960000000000000000000000000000  000108401900800000800023061285FFC850619AE80CDE83E790404040400840A000000152301000000000000000000000D8DCB61C81BF7500320000000000004040403F40404040 000000044.96 000000000.003F00000000000000000000    80                                                                                                                                                                                                                                                                                                                  
05773620275820002G2675906759000000028818008888000000101SEVIERVILLE              TN           5 C                00                                      NNNN                          000000000000                         00000650975601179750000063                76487134                                                                                                                                                                                                                                                                                                                                                                                                                                               
05773630275820027DT67590675900000002881800888800000010180088824001193163900013700048061220230000000658316323000000000084402474476XXXXXX7720       VS11    0001111   NYV1 A E383163551172595N840000000006583BDKJ00    05DNHAPPY HIPPIE             141086    VD84000000006583 N  549976487134                            000000000+                F DF 10433                     000000000  Y000000000 338   0000000000000.00 0000000.00   0000000.00                             000000000000000                                                                                                                                                     01418 A000000000000 0000000000000.25     00050 02200                  
05773640275820001E167590675900000002881800888800000010100E0F8C80162 00000000000.004040404040404040404040404040404040404040404040404006011203A08000000000000000000000404040404040404040404040404040  00000840180080800080002306123EC82A056A8434813D193438404040400840A0000000031010000000000000000000F0D000A00080000020200000000000004040401E40404040 000000065.83 000000000.001E00000000000000000000    80                                                                                                                                                                                                                                                                                                                  
05773650275820002G2675906759000000028818008888000000101SEVIERVILLE              TN           5 D                00                                      NNNN00 N 00                   000000000000                                                                   76487134                                                                                                                                                                                                                                                                                                                                                                                                                                               
05773660275820028DT67590675900000002881800888800000010180088824001193163900013700055061220230000000128316323000000000084402435546XXXXXX4132       VK04VS111111111   NYV1 A E463163552143876N840000000001283VKCT00    07DNHAPPY HIPPIE             118090    VD84000000001283 N  549976487134                            000000000+                F DF 10439                     000000000  Y000000000 331   0000000000000.00 0000000.00   0000000.00                             000000000000000                                                                                                                                                     01418 F000000000000 0000000000000.23     00050 02200                  
05773670275820001E167590675900000002881800888800000010100E068C80062 00000000000.004040404040404040404040404040404040404040404040404006011203A00000000000000000000000404040404040404040404040404040  0001084000000000000000230612E3D2851B6F7F2CD6EB38BF83404040400840A0000000031010000000000000000000ADD0FC450082000000000000000000004040404040404040 000000012.83 000000000.004040400000000000000000    80                                                                                                                                                                                                                                                                                                                  
05773680275820002G2675906759000000028818008888000000101SEVIERVILLE              TN           5 D                00                                      NNNN00 N 00                   000000000000                                                                   76487134                                                                                                                                                                                                                                                                                                                                                                                                                                               
05773690275820029DT67590675900000002881800888800000010180088824001193163900013700063061220230000000322116323000000000084402491216XXXXXX0040       VS11    0001111   NYV1 A E463163578200216N840000000003221QZ7400    07DNHAPPY HIPPIE             DV5LX1    VD84000000003221 N  549976487134                            000000000+                G PG 10178                     000000000  N000000000 363   0000000000000.00 0000000.00   0000000.00                             000000000000000                                                                                                                                                     01418 A000000000000 0000000000000.79     02150 01000                  
05773700275820001E167590675900000002881800888800000010100E068C8002D 00000000000.00404040404040404040404040404040404040404040404040401F42FF60A00000000010030273000000004000000000000000000000000000  0000084000400000000000230612A064138D5AD22500B03FEE16404040400840A000000003101000000000000000000080D7B1160086000000000000000000004040404040404040 000000032.21 000000000.004040400000000000000000    80                                                                                                                                                                                                                                                                                                                  
05773710275820002G2675906759000000028818008888000000101SEVIERVILLE              TN           5 P                00                                      NNNN00 N 00                   000000000000                                                                   76487134                                                                                                                                                                                                                                                                                                                                                                                                                                               
05773720275820030DT67590675900000002881800888800000010180088877287283163900013700073061220230000000296316323000000000084402511953XXXXXX8888       MS02WI09          NY 1 0 AMDJBSPM3L0612  N840000000002963          07DNHAPPY HIPPIE             090261    MD84000000002963 N  549976487134                            000000000+M10101M0034C    MDJ  00402                     000000000  N                0000000000000.00 0000000.00   0000000.00                             000000000000000                                                                                                                                                   B101418  000000000000 0000000000000.46     01050 01500                  
05773730275820001E167590675900000002881800888800000010100000848000F 00000000000.00404040404040404040404040404040404040404040404040400110A04001220000000000000000000000FF00000000000000000000000000  00010840198000000080012306122C23C719C1BD02BBC94FA924404040400840A0000000041010000000000000000000404040404040404040404040404040404040401F40404040 000000029.63 000000000.001F03020000000000000000    80                                                                                                                                                                                                                                                                                                                  
05773740275820002G2675906759000000028818008888000000101SEVIERVILLE              TN           5 J                                                        NNNN              000000000000000000000000       03               7                                          76487134                                                                                                                                                                                                                                                                                                                                                                                                                                               
05773750275820031DT67590675900000002881800888800000010180088824001193163900013700089061220230000000197616323000000000084402443264XXXXXX1233       VS11    0001111   NYV1 A E463163594763290N8400000000019763X6K00    07DNHAPPY HIPPIE             025584    VD84000000001976 N  549976487134                            000000000+                F DF 10433                     000000000  Y000000000 338   0000000000000.00 0000000.00   0000000.00                             000000000000000                                                                                                                                                     01418 A000000000000 0000000000000.23     00050 02200                  
05773760275820001E167590675900000002881800888800000010100E068C8000A 00000000000.004040404040404040404040404040404040404040404040404006011203A00000000000000000000000404040404040404040404040404040  00000840200000000000002306126E34A981FD240A5FC6A5037E404040400840A0000000031010000000000000000000404040404040404040404040404040404040404040404040 000000019.76 000000000.004040400000000000000000    80                                                                                                                                                                                                                                                                                                                  
05773770275820002G2675906759000000028818008888000000101SEVIERVILLE              TN           5 D                00                                      NNNN00 N 00                   000000000000                                                                   76487134                                                                                                                                                                                                                                                                                                                                                                                                                                               
05773780275820032DT67590675900000002881800888800000010180088824001193163900013700097061220230000001282516323000000000084402422921XXXXXX3999       VS11    0001111   NYV1 A E303163616119957N840000000012825V4HN00    05DNHAPPY HIPPIE             047212    VD84000000012825 N  549976487134                            000000000+                F DF 00381                     000000000  N000000000       0000000000000.00 0000000.00   0000000.00                             000000000000000                                                                                                                                                     01418 A000000000000 0000000000001.18     00800 01500                  
05773790275820001E167590675900000002881800888800000010100E0F8C80023 00000000000.004040404040404040404040404040404040404040404040404006011203A08000000000000000000000404040404040404040404040404040  000008401800808000800023061282EB3F0DD3763482E68F26E2404040400840A00000000310100000000000000000000F63893A0382000000000000000000004040401E40404040 000000128.25 000000000.001E00000000000000000000    80                                                                                                                                                                                                                                                                                                                  
05773800275820002G2675906759000000028818008888000000101SEVIERVILLE              TN           5 D                00                                      NNNN00 N 00                   000000000000                                                                   76487134                                                                                                                                                                                                                                                                                                                                                                                                                                               
05773810275820033DT67590675900000002881800888800000010180088824001193163900013700105061220230000000325816323000000000084402415978XXXXXX1443       VS11    0001111   NYV1 A E383163640941658N840000000003258VQ4K00    07DNHAPPY HIPPIE             098393    VD84000000003258 N  549976487134                            000000000+                F DF 10433                     000000000  Y000000000 338   0000000000000.00 0000000.00   0000000.00                             000000000000000                                                                                                                                                     01418 A000000000000 0000000000000.24     00050 02200                  
05773820275820001E167590675900000002881800888800000010100E068C805E4 00000000000.004040404040404040404040404040404040404040404040404006011203A00000000000000000000000404040404040404040404040404040  0000084000000000000000230612B02268D5504D415D27861911404040400840A0000000031010000000000000000000A09AE71CFC7CB71F30300000000000004040404040404040 000000032.58 000000000.004040400000000000000000    80                                                                                                                                                                                                                                                                                                                  
05773830275820002G2675906759000000028818008888000000101SEVIERVILLE              TN           5 D                00                                      NNNN00 N 00                   000000000000                                                                   76487134                                                                                                                                                                                                                                                                                                                                                                                                                                               
05773840275820034DT67590675900000002881800888800000010180088824001193163900013700113061220230000000256616323000000000084402419090XXXXXX5879       VS11    0001111   NYV1 A E463163644575639N8400000000025662CQV00    05DNHAPPY HIPPIE             964466    VD84000000002566 N  549976487134                            000000000+                F DF 00381                     000000000  N000000000       0000000000000.00 0000000.00   0000000.00                             000000000000000                                                                                                                                                     01418 A000000000000 0000000000000.36     00800 01500                  
05773850275820001E167590675900000002881800888800000010100E0F8C8059F 00000000000.004040404040404040404040404040404040404040404040404006010A03A0A000000000000000000000404040404040404040404040404040  000308401800808000800023061239EBDE24FBB04D1386C0B6B9404040400840A0000000031010000000000000000000B77A21A874BA64A430300000000000004040401E40404040 000000025.66 000000000.001E00000000000000000000    80                                                                                                                                                                                                                                                                                                                  
05773860275820002G2675906759000000028818008888000000101SEVIERVILLE              TN           5 D                00                                      NNNN00 N 00                   000000000000                                                                   76487134                                                                                                                                                                                                                                                                                                                                                                                                                                               
05773870275820035DT67590675900000002881800888800000010180088824001193163900013700121061220230000000098816323000000000084402443238XXXXXX2579       VK04VS111111111   NYV1 A E303163652519343N840000000000988BKP400    07DNHAPPY HIPPIE             040732    VD84000000000988 N  549976487134                            000000000+                F DF 00451                     000000000  N000000000 214   0000000000000.00 0000000.00   0000000.00                             000000000000000                                                                                                                                                     01418 F000000000000 0000000000000.19     01550 00400                  
05773880275820001E167590675900000002881800888800000010100E068C80109 00000000000.004040404040404040404040404040404040404040404040404006011203A00000000000000000000000404040404040404040404040404040  00000840000000000000002306125DBE0BB9E4577781C38BBA29404040400840A0000000031010000000000000000000404040404040404040404040404040404040404040404040 000000009.88 000000000.004040400000000000000000    80                                                                                                                                                                                                                                                                                                                  
05773890275820002G2675906759000000028818008888000000101SEVIERVILLE              TN           5 D                00                                      NNNN00 N 00                   000000000000                                                                   76487134                                                                                                                                                                                                                                                                                                                                                                                                                                               
05773900275820036DT67590675900000002881800888800000010180088824001193163900013700139061220230000000153616323000000000084402426684XXXXXX1402       VS11    0001111   NYV1 A E463163659528304N840000000001536W5D400    07DNHAPPY HIPPIE             07364C    VS84000000001536 N  549976487134                            000000000+                C CC 12112                     000000000  N000000000 497   0000000000000.00 0000000.00   0000000.00                             000000000000000                                                                                                                                                     01418 A000000000000 0000000000000.35     01650 01000                  
05773910275820001E167590675900000002881800888800000010100E068C80137 00000000000.004040404040404040404040404040404040404040404040404006021203A00000000000000000000000404040404040404040404040404040  00010840200000000000002306129D67B8DB7143EFEED4CA6FA0404040400840A0000000031010000000000000000000AA1802490082000000000000000000004040404040404040 000000015.36 000000000.004040400000000000000000    80                                                                                                                                                                                                                                                                                                                  
05773920275820002G2675906759000000028818008888000000101SEVIERVILLE              TN           5 C                00                                      NNNN00 Y 00                   000000000000                                                                   76487134                                                                                                                                                                                                                                                                                                                                                                                                                                               
05773930275820037DT67590675900000002881800888800000010180088824001193163900013700147061220230000000658516323000000000084402419090XXXXXX3984       VS11    0001111   NYV1 A E383163712351385N840000000006585JFVB00    05DNHAPPY HIPPIE             968214    VD84000000006585 N  549976487134                            000000000+                F DF 00381                     000000000  N000000000       0000000000000.00 0000000.00   0000000.00                             000000000000000                                                                                                                                                     01418 A000000000000 0000000000000.68     00800 01500                  
05773940275820001E167590675900000002881800888800000010100E0F8C8048A 00000000000.004040404040404040404040404040404040404040404040404006011203A0A000000000000000000000404040404040404040404040404040  00010840180080800080002306124950522CF019033D5C701F56404040400840A0000000031010000000000000000000CD8D491A0080000000000000000000004040401E40404040 000000065.85 000000000.001E00000000000000000000    80                                                                                                                                                                                                                                                                                                                  
05773950275820002G2675906759000000028818008888000000101SEVIERVILLE              TN           5 D                00                                      NNNN00 N 00                   000000000000                                                                   76487134                                                                                                                                                                                                                                                                                                                                                                                                                                               
05773960275820038DT67590675900000002881800888800000010180088824001193163900013700154061220230000000444416323000000000084402419090XXXXXX3984       VS11    0001111   NYV1 A E383163715482504N840000000004444NXRQ00    05DNHAPPY HIPPIE             968389    VD84000000004444 N  549976487134                            000000000+                F DF 00381                     000000000  N000000000       0000000000000.00 0000000.00   0000000.00                             000000000000000                                                                                                                                                     01418 A000000000000 0000000000000.51     00800 01500                  
05773970275820001E167590675900000002881800888800000010100E0F8C8048B 00000000000.004040404040404040404040404040404040404040404040404006011203A0A000000000000000000000404040404040404040404040404040  000108401800808000800023061206CFB2E040E589D9131EFE45404040400840A0000000031010000000000000000000E28D14200080000000000000000000004040401E40404040 000000044.44 000000000.001E00000000000000000000    80                                                                                                                                                                                                                                                                                                                  
05773980275820002G2675906759000000028818008888000000101SEVIERVILLE              TN           5 D                00                                      NNNN00 N 00                   000000000000                                                                   76487134                                                                                                                                                                                                                                                                                                                                                                                                                                               
05773990275820039DT67590675900000002881800888800000010180088824001193163900013700162061220230000000109816323000000000084402440393XXXXXX9574       VK04VS111111111   NYV1 A E583163718076354N84000000000109828HK00    05DNHAPPY HIPPIE             939398    VD84000000001098 N  549976487134                            000000000+                F PF 08165                     000000000  N000000000       0000000000000.00 0000000.00   0000000.00                             000000000000000                                                                                                                                                     01418 F000000000000 0000000000000.23     01600 00500                  
05774000275820001E167590675900000002881800888800000010100E0F8C80178 00000000000.004040404040404040404040404040404040404040404040404006011203A0A000000000000000000000404040404040404040404040404040  0000084018008080008000230612C169792F17036810BE19A1C4404040400840A0000000031010000000000000000000BC83DBCE4A34DD9D30300000000000004040401E40404040 000000010.98 000000000.001E00000000000000000000    80                                                                                                                                                                                                                                                                                                                  
05774010275820002G2675906759000000028818008888000000101SEVIERVILLE              TN           5 P                00                                      NNNN00 N 00                   000000000000                                                                   76487134                                                                                                                                                                                                                                                                                                                                                                                                                                               
05774020275820040DT67590675900000002881800888800000010180088824001193163900013700170061220230000000493816323000000000084402422921XXXXXX1799       VS11    0001111   NYV1 A E463163743279737N8400000000049383WN700    05DNHAPPY HIPPIE             059928    VD84000000004938 N  549976487134                            000000000+                F DF 00381                     000000000  N000000000       0000000000000.00 0000000.00   0000000.00                             000000000000000                                                                                                                                                     01418 A000000000000 0000000000000.55     00800 01500                  
05774030275820001E167590675900000002881800888800000010100E0F8C80012 00000000000.004040404040404040404040404040404040404040404040404006011203A08000000000000000000000404040404040404040404040404040  000008401800808000800023061263CCE2EF6856813283E26EDB404040400840A00000000310100000000000000000009C5DE76D0382000000000000000000004040401E40404040 000000049.38 000000000.001E00000000000000000000    80                                                                                                                                                                                                                                                                                                                  
05774040275820002G2675906759000000028818008888000000101SEVIERVILLE              TN           5 D                00                                      NNNN00 N 00                   000000000000                                                                   76487134                                                                                                                                                                                                                                                                                                                                                                                                                                               
05774050275820041DT67590675900000002881800888800000010180088877287283163900013700180061220230000000439016323000000000084402546196XXXXXX7167       MS02WI09          NY 1 0 AMDJZ9QM6Y0612  N840000000004390          07DNHAPPY HIPPIE             081271    MD84000000004390 N  549976487134                            000000000+M10101M0034C    MDJ  00402                     000000000  N                0000000000000.00 0000000.00   0000000.00                             000000000000000                                                                                                                                                   B101418  000000000000 0000000000000.61     01050 01500                  
05774060275820001E167590675900000002881800888800000010100000848012C 00000000000.00404040404040404040404040404040404040404040404040400110A04001220000000000000000000000FF00000000000000000000000000  0001084019800000008001230612F7467016A7A8031B0ED3980D404040400840A0000000041010000000000000000000404040404040404040404040404040404040401F40404040 000000043.90 000000000.001F03020000000000000000    80                                                                                                                                                                                                                                                                                                                  
05774070275820002G2675906759000000028818008888000000101SEVIERVILLE              TN           5 J                                                        NNNN              000000000000000000000000       03               7                                          76487134                                                                                                                                                                                                                                                                                                                                                                                                                                               
05774080275820042DT67590675900000002881800888800000010180088824001193163900013700196061220230000000325816323000000000084402421783XXXXXX6602       VS11    0001111   NYV1 A E383163767155992N8400000000032586CVX00    07DNHAPPY HIPPIE             047271    VS84000000003258 N  549976487134                            000000000+                A CA 12110                     000000000  N000000000 493   0000000000000.00 0000000.00   0000000.00                             000000000000000                                                                                                                                                     01418 A000000000000 0000000000000.59     01510 01000                  
05774090275820001E167590675900000002881800888800000010100E068C80034 00000000000.004040404040404040404040404040404040404040404040404006011203A00000000000000000000000404040404040404040404040404040  00000840200000000000002306123A69131958E8B6FAC879ED29404040400840A00000000310100000000000000000002FF7A94C0080000000000000000000004040404040404040 000000032.58 000000000.004040400000000000000000    80                                                                                                                                                                                                                                                                                                                  
05774100275820002G2675906759000000028818008888000000101SEVIERVILLE              TN           5 C                00                                      NNNN00 N 00                   000000000000                                                                   76487134                                                                                                                                                                                                                                                                                                                                                                                                                                               
05774110275820043DT67590675900000002881800888800000010180088824001193163900013700204061220230000000098616323000000000084402422921XXXXXX6443       VK04VS111111111   NYV1 A E583163778217161N8400000000009863T6800    07DNHAPPY HIPPIE             063422    VD84000000000986 N  549976487134                            000000000+                F DF 00451                     000000000  N000000000 214   0000000000000.00 0000000.00   0000000.00                             000000000000000                                                                                                                                                     01418 F000000000000 0000000000000.19     01550 00400                  
05774120275820001E167590675900000002881800888800000010100E068C800EC 00000000000.004040404040404040404040404040404040404040404040404006011203A00000000000000000000000404040404040404040404040404040  00000840000000000000002306122EC1D8BF3CE45CBB1128007D404040400840A0000000031010000000000000000000FFF33FE70382000000000000000000004040404040404040 000000009.86 000000000.004040400000000000000000    80                                                                                                                                                                                                                                                                                                                  
05774130275820002G2675906759000000028818008888000000101SEVIERVILLE              TN           5 D                00                                      NNNN00 N 00                   000000000000                                                                   76487134                                                                                                                                                                                                                                                                                                                                                                                                                                               
05774140275820044DT67590675900000002881800888800000010180088824001193163900013700212061220230000000444416323000000000084402445101XXXXXX1483       VS11    0001111   NYV1 A E303163781732695N840000000004444B7KS00    05DNHAPPY HIPPIE             577968    VD84000000004444 N  549976487134                            000000000+                F DF 10433                     000000000  Y000000000 338   0000000000000.00 0000000.00   0000000.00                             000000000000000                                                                                                                                                     01418 A000000000000 0000000000000.24     00050 02200                  
05774150275820001E167590675900000002881800888800000010100E0F8C8075C 00000000000.004040404040404040404040404040404040404040404040404006010A03A08000000000000000000000404040404040404040404040404040  00010840180080800080002306129FAA6F15B03316D6BAC2DA26404040400840A0000000031010000000000000000000E5499EDF109C2F9930300000000000004040401E40404040 000000044.44 000000000.001E00000000000000000000    80                                                                                                                                                                                                                                                                                                                  
05774160275820002G2675906759000000028818008888000000101SEVIERVILLE              TN           5 D                00                                      NNNN00 N 00                   000000000000                                                                   76487134                                                                                                                                                                                                                                                                                                                                                                                                                                               
05774170275820045DT67590675900000002881800888800000010180088877287283163900013700222061220230000000438816323000000000084402515676XXXXXX7779       MS02WI09          NY 1 0 AMWEJBOQBX0612  N840000000004388          05DNHAPPY HIPPIE             01725Z    MC84000000004388 N  549976487134                            000000000+M10101C5434C    MWE  00743                     000000000  N                0000000000000.00 0000000.00   0000000.00                             000000000000000                                                                                                                                                   B101418  000000000000 0000000000001.05     02300 00400                  
