00003690105070002BH6759067590000000370780088880000090170104202300423000000000074725    0000090001070035Y8008886759C01052023                                                                                                                                                                                                                                                                                                                                                                                                                                                                                                                                                                                                 
00003700105070003DT67590675900000003707800888800000010180088824001193004900010700291010320230000001093000423000000000074725498503XXXXXX7639               2111111   NYV4 A7W383004140125128N840000000010930M7FW00    01DNMR HEMP FLOWER           058730    VD84000000010930 NP1549976053336   83764                    000000000+                F DF 00415                     000000000  N000000000       0000000000000.00 0000000.00   0000000.00                             000000000000000                                                                                                                                                     01424 G000000010930 0000000000001.95     01650 01500                  
00003710105070001P16759067590000000370780088880000001010000000000000000                             2000000000000000000000000              000000000000                    0000000000000000000000000                    000000000000                                                                                                                                                                                                                                                                                                                                                                                                                                                                                        
00003720105070004DT67590675900000003707800888800000010180088824001193004900010700309010320230000001500000423000000000074725473703XXXXXX9767               2111111   NYV4 A7W463004148350118N84000000001500063JS00    01DNMR HEMP FLOWER           072491    VD84000000015000 NP1549976053336   83765                    000000000+                F DF 10420                     000000000  Y000000000 338   0000000000000.00 0000000.00   0000000.00                             000000000000000                                                                                                                                                     01424 G000000015000 0000000000000.30     00050 02200                  
00003730105070001P16759067590000000370780088880000001010000000000000000                             2000000000000000000000000              000000000000                    0000000000000000000000000                    000000000000                                                                                                                                                                                                                                                                                                                                                                                                                                                                                        
00003740105070005DT67590675900000003707800888800000010180088887287283004900010700318010320230000000849900423000000000074725542418XXXXXX6215       ME03KE06MS02      NY 4607AMWEAUAOJE0103  N840000000008499          81DNMR HEMP FLOWER           44916P    MC84000000008499 N  549976053336   83766                    000000000+600450S00130    MWE  00737                     000000000  N                0000000000000.00 0000000.00   0000000.00                             000000000000000                                                                                                                                                   U001424  000000000000 0000000000002.31     02600 01000                  
00003750105070006DT67590675900000003707800888800000010180088824001193004900010700325010420230000001749900423000000000074725473137XXXXXX6002               2111111   NYV4 A7W303004719927784N840000000017499H9S500    01DNMR HEMP FLOWER           363905    VD84000000017499 NP1549976053336   83784                    000000000+                F DF 10420                     000000000  Y000000000 338   0000000000000.00 0000000.00   0000000.00                             000000000000000                                                                                                                                                     01424 G000000017499 0000000000000.31     00050 02200                  
00003760105070001P16759067590000000370780088880000001010000000000000000                             2000000000000000000000000              000000000000                    0000000000000000000000000                    000000000000                                                                                                                                                                                                                                                                                                                                                                                                                                                                                        
00003770105070007DT67590675900000003707800888800000010180088887287283004900010700334010420230000000049900423000000000074725515676XXXXXX4169       ME03KE06MS02      NY 4607AMWETNTRPL0104  N840000000000499          81DNMR HEMP FLOWER           05055Z    MC84000000000499 N  549976053336   83785                    000000000+600450S00130    MWE  00737                     000000000  N                0000000000000.00 0000000.00   0000000.00                             000000000000000                                                                                                                                                   U001424  000000000000 0000000000000.23     02600 01000                  
00003780105070008DT67590675900000003707800888800000010180088824001193004900010700341010420230000000799900423000000000074725443045XXXXXX9462               2111111   NYV4 A7W383005010913165N840000000007999548T00    01DNMR HEMP FLOWER           796026    VD84000000007999 NP1549976053336   83788                    000000000+                F DF 10420                     000000000  Y000000000 338   0000000000000.00 0000000.00   0000000.00                             000000000000000                                                                                                                                                     01424 G000000007999 0000000000000.26     00050 02200                  
00003790105070001P16759067590000000370780088880000001010000000000000000                             2000000000000000000000000              000000000000                    0000000000000000000000000                    000000000000                                                                                                                                                                                                                                                                                                                                                                                                                                                                                        
00003800105070009DT67590675900000003707800888800000010180088824001193004900010700358010420230000001429900423000000000074725460728XXXXXX6641               2111111   NYV4 A7W463005011787207N8400000000142996FGN00    01DNMR HEMP FLOWER           027532    VD84000000014299 NP1549976053336   83789                    000000000+                F DF 10420                     000000000  Y000000000 338   0000000000000.00 0000000.00   0000000.00                             000000000000000                                                                                                                                                     01424 G000000014299 0000000000000.29     00050 02200                  
00003810105070001P16759067590000000370780088880000001010000000000000000                             2000000000000000000000000              000000000000                    0000000000000000000000000                    000000000000                                                                                                                                                                                                                                                                                                                                                                                                                                                                                        
