00002780379810002BH6759067590000001330080010280000090170316202307523000000000185410    0000090001293140Y8001026759C03172023                                                                                                                                                                                                                                                                                                                                                                                                                                                                                                                                                                                                 
00002790379810003DT67590675900000013300800102800000010180010224001193075900012924968031520230000000600407523000000000185410448233XXXXXX1231               2111111   NYV4 A7W303071597055119N840000000006004RVF700    01DNCBD8666317293            013505    VD84000000006004 NP1549977133133   DD9B597FA1T5819DAD3D668  000000000+                F DF 10420                     000000000  Y000000000 338   0000000000000.00 0000000.00   0000000.00                             000000000000000                                                                                                                                                     01424 G000000006004 0000000000000.25     00050 02200                  
00002800379810001P16759067590000001330080010280000001010000000000000000                             2000000000000000000000000              000000000000                    0000000000000000000000000                    000000000000                                                                                                                                                                                                                                                                                                                                                                                                                                                                                        
00002810379810004DT67590675900000013300800102800000010180010287287283075900012924993031520230000001987007523000000000185410542418XXXXXX9986       ME03KE06MS02      NY 4607AMWEDN71ZN0312  N840000000019870          81DNCBD8666317293            59780P    MC84000000019870 N  549977133133   87B93B6B82TBBE222D48DF6  000000000+600450S00130    MWE  00737                     000000000  N                0000000000000.00 0000000.00   0000000.00                             000000000000000                                                                                                                                                   U001424  000000000000 0000000000005.27     02600 01000                  
00002820379810005DT67590675900000013300800102800000010180010224001193075900012925478031520230000002487007523000000000185410441830XXXXXX2426               2111111   NYV4 A7W463071771042329N8400000000248709ZVP00    01DNCBD8666317293            650473    VS84000000024870 NP1549977133133   5C1F2E18E2T13D00B206834  000000000+                B CB 12107                     000000000  N000000000 494   0000000000000.00 0000000.00   0000000.00                             000000000000000                                                                                                                                                     01424 G000000024870 0000000000005.17     02040 01000                  
00002830379810001P16759067590000001330080010280000001010000000000000000                             2000000000000000000000000              000000000000                    0000000000000000000000000                    000000000000                                                                                                                                                                                                                                                                                                                                                                                                                                                                                        
00002840379810006DT67590675900000013300800102800000010180010224001193075900012925551031520230000001499107523000000000185410414734XXXXXX5843               2111111   NYV4 A7W583071813055734N8400000000149918PT400    01DNCBD8666317293            00163D    VS84000000014991 NP1549977133133   67A16CF895TD2F2933CC028  000000000+                D CD 12109                     000000000  N000000000 498   0000000000000.00 0000000.00   0000000.00                             000000000000000                                                                                                                                                     01424 G000000014991 0000000000003.85     02500 01000                  
00002850379810001P16759067590000001330080010280000001010000000000000000                             2000000000000000000000000              000000000000                    0000000000000000000000000                    000000000000                                                                                                                                                                                                                                                                                                                                                                                                                                                                                        
00002860379810007DT67590675900000013300800102800000010180010224001193075900012925601031520230000000652007523000000000185410412185XXXXXX8371               2111111   NYV4 A7W463071858053243N840000000006520V3R900    01DNCBD8666317293            012684    VS84000000006520 NP1549977133133   BB40BA0654T4435106668C4  000000000+                A CA 12106                     000000000  N000000000 492   0000000000000.00 0000000.00   0000000.00                             000000000000000                                                                                                                                                     01424 G000000006520 0000000000001.33     01890 01000                  
00002870379810001P16759067590000001330080010280000001010000000000000000                             2000000000000000000000000              000000000000                    0000000000000000000000000                    000000000000                                                                                                                                                                                                                                                                                                                                                                                                                                                                                        
00002880379810008DT67590675900000013300800102800000010180010287287283075900012925628031520230000002126107523000000000185410510805XXXXXX9835       ME03KE06MS02      NY 4607AMDJZES0480312  N840000000021261          81DNCBD8666317293            085507    MD84000000021261 N  549977133133   6EA517CC82T55CCA066B7E2  000000000+600450S00130    MDJ  10813                     000000000  1                0000000000000.00 0000000.00   0000000.00                             000000000000000                                                                                                                                                   U001424  000000000000 0000000000000.33     00050 02200                  
00002890379810009DT67590675900000013300800102800000010180010224001193075900012930882031520230000000019907523000000000185410441112XXXXXX3368               2111111   NYV4 A7W383075028909845N840000000000199HPWB00    01DNCBD8666317293            DUWAX1    VD84000000000199 NP1549977133133   B16091E387TF84ED766D8CD  000000000+                S PS 10179                     000000000  N000000000 364   0000000000000.00 0000000.00   0000000.00                             000000000000000                                                                                                                                                     01424 G000000000199 0000000000000.15     02650 01000                  
00002900379810001P16759067590000001330080010280000001010000000000000000                             2000000000000000000000000              000000000000                    0000000000000000000000000                    000000000000                                                                                                                                                                                                                                                                                                                                                                                                                                                                                        
00002910379810010DT67590675900000013300800102800000010180010287287283075900012930891031520230000000019907523000000000185410524897XXXXXX0381                         NY 4607AMCPXENBN80315  N840000000000199          81DNCBD8666317293            HBVBWV    MB84000000000199 NP1549977133133   8A730C0CCET76A146F49D52  000000000+600450S00130    MCP  00303                     000000000  N                0000000000000.00 0000000.00   0000000.00                             000000000000000                                                                                                                                                   U001424  000000000000 0000000000000.15     02700 01000                  
00002920379810001P1675906759000000133008001028000000101                                                          000000000000          8000            871584967                                                                                                                                                                                                                                                                                                                                                                                                                                                                                                                                                            
00002930379810011DT67590675900000013300800102800000010180010224001193075900012930908031520230000000019907523000000000185410428803XXXXXX9464               2111111   NYV4 A7W583075035503223N840000000000199ZTF200    01DNCBD8666317293            671156    VD84000000000199 NP1549977133133   B1E49AA6F5T28B3AB633449  000000000+                S PS 10179                     000000000  N000000000 364   0000000000000.00 0000000.00   0000000.00                             000000000000000                                                                                                                                                     01424 G000000000199 0000000000000.15     02650 01000                  
00002940379810001P16759067590000001330080010280000001010000000000000000                             2000000000000000000000000              000000000000                    0000000000000000000000000                    000000000000                                                                                                                                                                                                                                                                                                                                                                                                                                                                                        
00002950379810012DT67590675900000013300800102800000010180010224001193075900012930957031520230000000019907523000000000185410428813XXXXXX1711               2111111   NYV4 A7W383075075078196N840000000000199VFZN00    01DNCBD8666317293            862454    VB84000000000199 NP1549977133133   015BEC6799T9CE686A9F75E  000000000+                S CS 00692                     000000000  N000000000 237   0000000000000.00 0000000.00   0000000.00                             000000000000000                                                                                                                                                     01424 G000000000199 0000000000000.15     02700 01000                  
00002960379810001P16759067590000001330080010280000001010000000000000000                             2000000000000000000000000              000000000000                    0000000000000000000000000                    000000000000                                                                                                                                                                                                                                                                                                                                                                                                                                                                                        
00002970379810013DT67590675900000013300800102800000010180010224001193075900012930965031520230000000019907523000000000185410428813XXXXXX2343               2111111   NYV4 A7W463075081164726N84000000000019923D400    01DNCBD8666317293            008672    VB84000000000199 NP1549977133133   5CEB5A9CD3TAD4D9DAF8223  000000000+                S CS 00692                     000000000  N000000000 237   0000000000000.00 0000000.00   0000000.00                             000000000000000                                                                                                                                                     01424 G000000000199 0000000000000.15     02700 01000                  
00002980379810001P16759067590000001330080010280000001010000000000000000                             2000000000000000000000000              000000000000                    0000000000000000000000000                    000000000000                                                                                                                                                                                                                                                                                                                                                                                                                                                                                        
00002990379810014DT67590675900000013300800102800000010180010224001193075900012930973031520230000000019907523000000000185410408544XXXXXX5381               2111111   NYV4 A7W383075081674117N8400000000001999FL700    01DNCBD8666317293            481300    VB84000000000199 NP1549977133133   DD3ECFDC0DT8C09D0AF4982  000000000+                K CK 00691                     000000000  N000000000 234   0000000000000.00 0000000.00   0000000.00                             000000000000000                                                                                                                                                     01424 G000000000199 0000000000000.15     02700 01000                  
00003000379810001P16759067590000001330080010280000001010000000000000000                             2000000000000000000000000              000000000000                    0000000000000000000000000                    000000000000                                                                                                                                                                                                                                                                                                                                                                                                                                                                                        
00003010379810015DT67590675900000013300800102800000010680010287287283075900012931089031620230000000529907523000000000185410550929XXXXXX0943                         NY 4607AMDJYCR4V10316  N840000000005299          81CNCBD8666317293            086078    MD84000000005299 N  549977133133   15B57024ADTB78BC110A707  000000000+600450S00130    MDJ  00560                     000000000  N                0000000000000.00 0000000.00   0000000.00                             000000000000000                                                                                                                                                     01424  000000000000 0000000000000.00     00000 00000                  
00003020379810016DT67590675900000013300800102800000010680010287287283075900012931097031620230000000339107523000000000185410550929XXXXXX0943                         NY 4607AMDJB4SMV70316  N840000000003391          81CNCBD8666317293            086779    MD84000000003391 N  549977133133   15B57024ADT5F7BD2BEE691  000000000+600450S00130    MDJ  00560                     000000000  N                0000000000000.00 0000000.00   0000000.00                             000000000000000                                                                                                                                                     01424  000000000000 0000000000000.00     00000 00000                  
00003030379810017DT67590675900000013300800102800000010180010273011003075900012931118031620230000001500007523000000000185410372725XXXXX1000                          NY 4 07N004739829145308N840000000015000          01DNCBD8666317293            247316    AM84000000015000 Y  549977133133                            000000000+6004S0S00130 258     11262                     000000000                   0000000000000.00 0000000.00   0000000.00                             000000000000000 61248972086759675900000013300 CBD8666317293            2993 SANDY PLAINS RD STE 6787614584      30066     EMORRIS@GREENOTTERCBD.COM                 01324  000000000000 0000000000003.03     01950 00000                  
00003040379810018DT67590675900000013300800102800000010180010287287283075900012931204031620230000001490207523000000000185410524905XXXXXX2169       ME03KE06MS02      NY 4607AMPGENMDV70316  N840000000014902          81DNCBD8666317293            352844    MD84000000014902 N  549977133133   6C43D33D8CT6DE415ADB7C4  000000000+600450S00130    MPG  09899                     000000000  N                0000000000000.00 0000000.00   0000000.00                             000000000000000                                                                                                                                                   U001424  000000000000 0000000000002.82     01760 02000                  
00003050379810019DT67590675900000013300800102800000010180010224001193075900012931237031620230000001260307523000000000185410414734XXXXXX6144               2111111   NYV4 A7W303075632766474N840000000012603H5TN00    01DNCBD8666317293            02969C    VS84000000012603 NP1549977133133   BE3D0B424CT9730A0848150  000000000+                C CC 12108                     000000000  N000000000 496   0000000000000.00 0000000.00   0000000.00                             000000000000000                                                                                                                                                     01424 G000000012603 0000000000002.68     02050 01000                  
00003060379810001P16759067590000001330080010280000001010000000000000000                             2000000000000000000000000              000000000000                    0000000000000000000000000                    000000000000                                                                                                                                                                                                                                                                                                                                                                                                                                                                                        
00003070379810020DT67590675900000013300800102800000010180010224001193075900012931302031620230000000129507523000000000185410410039XXXXXX9328               2111111   NYV4 A7W583075712430296N840000000001295JZSP00    01DNCBD8666317293            12620D    VS84000000001295 NP1549977133133   066EEAB289TB9B74EB8F96D  000000000+                D CD 12109                     000000000  N000000000 498   0000000000000.00 0000000.00   0000000.00                             000000000000000                                                                                                                                                     01424 G000000001295 0000000000000.42     02500 01000                  
00003080379810001P16759067590000001330080010280000001010000000000000000                             2000000000000000000000000              000000000000                    0000000000000000000000000                    000000000000                                                                                                                                                                                                                                                                                                                                                                                                                                                                                        
00003090379810021DT67590675900000013300800102800000010180010224001193075900012931328031620230000002487007523000000000185410414720XXXXXX8287               2111111   NYV4 A7W583075724421814N840000000024870RT4L00    01DNCBD8666317293            01677I    VS84000000024870 NP1549977133133   B5C23C091CT338B3F2490F6  000000000+                I CI 12109                     000000000  N000000000 498   0000000000000.00 0000000.00   0000000.00                             000000000000000                                                                                                                                                     01424 G000000024870 0000000000006.32     02500 01000                  
00003100379810001P16759067590000001330080010280000001010000000000000000                             2000000000000000000000000              000000000000                    0000000000000000000000000                    000000000000                                                                                                                                                                                                                                                                                                                                                                                                                                                                                        
00003110379810022DT67590675900000013300800102800000010180010224001193075900012931369031620230000000345507523000000000185410410464XXXXXX0705               2111111   NYV4 A7W463075741054179N840000000003455NBVZ00    01DNCBD8666317293            559706    VS84000000003455 NP1549977133133   101835040ET55346D1EABDF  000000000+                A CA 12106                     000000000  N000000000 492   0000000000000.00 0000000.00   0000000.00                             000000000000000                                                                                                                                                     01424 G000000003455 0000000000000.75     01890 01000                  
00003120379810001P16759067590000001330080010280000001010000000000000000                             2000000000000000000000000              000000000000                    0000000000000000000000000                    000000000000                                                                                                                                                                                                                                                                                                                                                                                                                                                                                        
00003130379810023DT67590675900000013300800102800000010180010224001193075900012931377031620230000000607907523000000000185410423223XXXXXX9760               2111111   NYV4 A7W303075755357038N840000000006079T2ZQ00    01DNCBD8666317293            063016    VD84000000006079 NP1549977133133   DEF2393668T86F4476919AE  000000000+                F DF 00415                     000000000  N000000000       0000000000000.00 0000000.00   0000000.00                             000000000000000                                                                                                                                                     01424 G000000006079 0000000000001.15     01650 01500                  
00003140379810001P16759067590000001330080010280000001010000000000000000                             2000000000000000000000000              000000000000                    0000000000000000000000000                    000000000000                                                                                                                                                                                                                                                                                                                                                                                                                                                                                        
00003150379810024DT67590675900000013300800102800000010180010224001193075900012931401031620230000002118607523000000000185410444796XXXXXX6064               2111111   NYV4 A7W303075781682760N840000000021186VWVS00    01DNCBD8666317293            016426    VS84000000021186 NP1549977133133   43A79EB0C1T54EF320280C6  000000000+                A CA 12106                     000000000  N000000000 492   0000000000000.00 0000000.00   0000000.00                             000000000000000                                                                                                                                                     01424 G000000021186 0000000000004.10     01890 01000                  
00003160379810001P16759067590000001330080010280000001010000000000000000                             2000000000000000000000000              000000000000                    0000000000000000000000000                    000000000000                                                                                                                                                                                                                                                                                                                                                                                                                                                                                        
00003170379810025BH6759067590000000570280088880000090170316202307523000000000728943    0000090001221775Y8008886759C03172023                                                                                                                                                                                                                                                                                                                                                                                                                                                                                                                                                                                                 
00003180379810026DT67590675900000005702800888800000010180088887287283075900012275834031620230000003453007523000000000728943529393XXXXXX7985                         NY 4607AMDBDV97V70316  N840000000034530          81DNPSILOMART                001512    MD84000000034530 NP1549900000001   raIXZnuiq89SpJys6znU     000000000+600450S00140    MDB  10786                     000000000  1                0000000000000.00 0000000.00   0000000.00                             000000000000000                                                                                                                                                   U001424  000000000000 0000000000000.39     00050 02200                  
00003190379810001P1675906759000000057028008888000000101                                                          000000000000          8000            881060599                                                                                                                                                                                                                                                                                                                                                                                                                                                                                                                                                            
00003200379810027DT67590675900000005702800888800000010180088887287283075900012218537031620230000000840007523000000000728943550633XXXXXX3103       ME03KE06MS02      NY 4607AMDJSK91RK0316  N840000000008400          81DNPSILOMART                033023    MD84000000008400 N  549900000001   rpbHtT7kTjMK0HTT0bqd     000000000+600450S00140    MDJ  00401                     000000000  N                0000000000000.00 0000000.00   0000000.00                             000000000000000                                                                                                                                                   U001424  000000000000 0000000000001.54     01650 01500                  
00003210379810028DT67590675900000005702800888800000010180088887287283075900012254847031620230000000800007523000000000728943546126XXXXXX9898       ME03KE06MS02      NY 4607AMDJZHS9M50316  N840000000008000          81DNPSILOMART                061210    MD84000000008000 N  549900000001   r0TUkJoDT6qmJubd32jk     000000000+600450S00140    MDJ  00401                     000000000  N                0000000000000.00 0000000.00   0000000.00                             000000000000000                                                                                                                                                   U001424  000000000000 0000000000001.47     01650 01500                  
00003220379810029DT67590675900000005702800888800000010180088824001193075900012262773031620230000000759807523000000000728943440066XXXXXX7556               2111111   NYV4 A7W583075043404732N8400000000075989XXV00    01DNPSILOMART                00636A    VS84000000007598 NP1549971004114   ROHO3ZCY6T0OJGKOXQOJ     000000000+                A CA 12106                     000000000  N000000000 492   0000000000000.00 0000000.00   0000000.00                             000000000000000                                                                                                                                                     01424 G000000007598 0000000000001.54     01890 01000                  
00003230379810001P16759067590000000570280088880000001010000000000000000                             2000000000000000000000000              000000000000                    0000000000000000000000000                    000000000000                                                                                                                                                                                                                                                                                                                                                                                                                                                                                        
00003240379810030DT67590675900000005702800888800000010180088824001193075900012283670031620230000000239907523000000000728943423855XXXXXX7783               2111111   NYV4 A7W463075091856981N840000000002399LLV900    01DNPSILOMART                223305    VD84000000002399 NP1549971004114   RRRKC0N0MYI78VCBK27X     000000000+                F DF 00415                     000000000  N000000000       0000000000000.00 0000000.00   0000000.00                             000000000000000                                                                                                                                                     01424 G000000002399 0000000000000.55     01650 01500                  
00003250379810001P16759067590000000570280088880000001010000000000000000                             2000000000000000000000000              000000000000                    0000000000000000000000000                    000000000000                                                                                                                                                                                                                                                                                                                                                                                                                                                                                        
00003260379810031DT67590675900000005702800888800000010180088824001193075900012282433031620230000000479807523000000000728943473702XXXXXX9162               2111111   NYV4 A7W583075098386455N8400000000047985KXD00    01DNPSILOMART                068734    VD84000000004798 NP1549971004114   R72QWZRAMGVJHFRRRWG6     000000000+                F DF 10420                     000000000  Y000000000 338   0000000000000.00 0000000.00   0000000.00                             000000000000000                                                                                                                                                     01424 G000000004798 0000000000000.24     00050 02200                  
00003270379810001P16759067590000000570280088880000001010000000000000000                             2000000000000000000000000              000000000000                    0000000000000000000000000                    000000000000                                                                                                                                                                                                                                                                                                                                                                                                                                                                                        
00003280379810032DT67590675900000005702800888800000010180088824001193075900012217769031620230000000399907523000000000728943435546XXXXXX9664               2111111   NYV4 A7W303075312654828N840000000003999HGRS00    01DNPSILOMART                124037    VD84000000003999 NP1549971004114   RAKURT49Y8FBQ5YLRY5S     000000000+                F DF 10420                     000000000  Y000000000 338   0000000000000.00 0000000.00   0000000.00                             000000000000000                                                                                                                                                     01424 G000000003999 0000000000000.24     00050 02200                  
00003290379810001P16759067590000000570280088880000001010000000000000000                             2000000000000000000000000              000000000000                    0000000000000000000000000                    000000000000                                                                                                                                                                                                                                                                                                                                                                                                                                                                                        
00003300379810033DT67590675900000005702800888800000010180088824001193075900012281054031620230000000527607523000000000728943443113XXXXXX1288               2111111   NYV4 A7W383075558929290N840000000005276S3CK00    01DNPSILOMART                083132    VD84000000005276 NP1549971004114   RBIUMBR0OQWUDWQT06OD     000000000+                F DF 00415                     000000000  N000000000       0000000000000.00 0000000.00   0000000.00                             000000000000000                                                                                                                                                     01424 G000000005276 0000000000001.02     01650 01500                  
00003310379810001P16759067590000000570280088880000001010000000000000000                             2000000000000000000000000              000000000000                    0000000000000000000000000                    000000000000                                                                                                                                                                                                                                                                                                                                                                                                                                                                                        
00003320379810034DT67590675900000005702800888800000010180088873011003075900012269246031620230000043750007523000000000728943376743XXXXX3003                          NY 4 07N004748289439309N840000000437500          01DNTRADE READY LLC          284439    AM84000000437500 Y  549971004114                            000000000+6004S0S00140 258     11263                     000000000                   0000000000000.00 0000000.00   0000000.00                             000000000000000 61248972086759675900000005702 TRADE READY LLC          4744 PARADISE RD         7023386941      89169     PSILOMART@GMAIL.COM                       01324  000000000000 0000000000105.10     02400 00000                  
00003330379810035DT67590675900000005702800888800000010180088887287283075900012272849031620230000000639807523000000000728943517805XXXXXX8943       ME03KE06MS02      NY 4607AMPLL5044N0316  N840000000006398          81DNPSILOMART                06012B    MC84000000006398 N  549900000001   rROoB9AkIIPAXcoVMc2p     000000000+600450S00140    MPL  00580                     000000000  N                0000000000000.00 0000000.00   0000000.00                             000000000000000                                                                                                                                                   U001424  000000000000 0000000000001.44     02100 01000                  
00003340379810036DT67590675900000005702800888800000010180088824001193075900012266907031620230000001399607523000000000728943443264XXXXXX1897               2111111   NYV4 A7W383075018060268N840000000013996VN4B00    01DNPSILOMART                016323    VD84000000013996 NP1549971004114   RPAF6DEDUWD3X8OBKZYW     000000000+                F DF 10420                     000000000  Y000000000 338   0000000000000.00 0000000.00   0000000.00                             000000000000000                                                                                                                                                     01424 G000000013996 0000000000000.29     00050 02200                  
00003350379810001P16759067590000000570280088880000001010000000000000000                             2000000000000000000000000              000000000000                    0000000000000000000000000                    000000000000                                                                                                                                                                                                                                                                                                                                                                                                                                                                                        
00003360379810037DT67590675900000005702800888800000010180088824001193075900012264753031620230000000519907523000000000728943449210XXXXXX1617               2111111   NYV4 A7W583075028648172N840000000005199CNPX00    01DNPSILOMART                064744    VD84000000005199 NP1549971004114   RVUWIX0BP5ZMYBTVXDYQ     000000000+                F DF 10420                     000000000  Y000000000 338   0000000000000.00 0000000.00   0000000.00                             000000000000000                                                                                                                                                     01424 G000000005199 0000000000000.25     00050 02200                  
00003370379810001P16759067590000000570280088880000001010000000000000000                             2000000000000000000000000              000000000000                    0000000000000000000000000                    000000000000                                                                                                                                                                                                                                                                                                                                                                                                                                                                                        
00003380379810038DT67590675900000005702800888800000010180088824001193075900012276476031620230000000298407523000000000728943458643XXXXXX2640               2111111   NYV4 A7W303075056356427N840000000002984KVQ500    01DNPSILOMART                H06407    VD84000000002984 NP1549971004114   RZYZLFHXRMIJOKAYCV7K     000000000+                F DF 10420                     000000000  Y000000000 338   0000000000000.00 0000000.00   0000000.00                             000000000000000                                                                                                                                                     01424 G000000002984 0000000000000.23     00050 02200                  
00003390379810001P16759067590000000570280088880000001010000000000000000                             2000000000000000000000000              000000000000                    0000000000000000000000000                    000000000000                                                                                                                                                                                                                                                                                                                                                                                                                                                                                        
00003400379810039DT67590675900000005702800888800000010180088824001193075900012280718031620230000000500007523000000000728943474476XXXXXX0298               2111111   NYV4 A7W583075079024000N8400000000050008J6X00    01DNPSILOMART                181810    VD84000000005000 NP1549971004114   RFMEG2YAFGRB9NBAA096     000000000+                F DF 10420                     000000000  Y000000000 338   0000000000000.00 0000000.00   0000000.00                             000000000000000                                                                                                                                                     01424 G000000005000 0000000000000.25     00050 02200                  
00003410379810001P16759067590000000570280088880000001010000000000000000                             2000000000000000000000000              000000000000                    0000000000000000000000000                    000000000000                                                                                                                                                                                                                                                                                                                                                                                                                                                                                        
00003420379810040DT67590675900000005702800888800000010180088824001193075900012281773031620230000000200007523000000000728943423223XXXXXX6351               2111111   NYV4 A7W383075079131597N840000000002000FRHW00    01DNPSILOMART                043678    VD84000000002000 NP1549971004114   RJSMJAT7QLTOXDZEUS5Y     000000000+                F DF 00415                     000000000  N000000000       0000000000000.00 0000000.00   0000000.00                             000000000000000                                                                                                                                                     01424 G000000002000 0000000000000.48     01650 01500                  
00003430379810001P16759067590000000570280088880000001010000000000000000                             2000000000000000000000000              000000000000                    0000000000000000000000000                    000000000000                                                                                                                                                                                                                                                                                                                                                                                                                                                                                        
00003440379810041DT67590675900000005702800888800000010180088887287283075900012214395031620230000000364907523000000000728943514377XXXXXX2190       ME03KE06MS02      NY 4607AMDJWHL0DN0316  N840000000003649          81DNPSILOMART                2K1KCP    MD84000000003649 N  549900000001   r6aORJO7mRbq2lmkqAA7     000000000+600450S00140    MDJ  00401                     000000000  N                0000000000000.00 0000000.00   0000000.00                             000000000000000                                                                                                                                                   U001424  000000000000 0000000000000.75     01650 01500                  
00003450379810042DT67590675900000005702800888800000010180088887287283075900012297325031620230000001199707523000000000728943514887XXXXXX0430       ME03KE06PT01      NY 4607AMCWQZTGJ20316  N840000000011997          81DNPSILOMART                08252P    MC84000000011997 N  549900000001   rh5IeNUpJbmRhXHiuUq6     000000000+600450S00140    MCW  00642                     000000000  N                0000000000000.00 0000000.00   0000000.00                             000000000000000                                                                                                                                                   U001424  000000000000 0000000000002.74     02200 01000                  
00003460379810043DT67590675900000005702800888800000010180088824001193075900012211523031620230000000503807523000000000728943435547XXXXXX6333               2111111   NYV4 A7W583075638670370N84000000000503823RV00    01DNPSILOMART                111080    VD84000000005038 NP1549971004114   RVKULEK2GGICZX7QY4KN     000000000+                F DF 10420                     000000000  Y000000000 338   0000000000000.00 0000000.00   0000000.00                             000000000000000                                                                                                                                                     01424 G000000005038 0000000000000.25     00050 02200                  
00003470379810001P16759067590000000570280088880000001010000000000000000                             2000000000000000000000000              000000000000                    0000000000000000000000000                    000000000000                                                                                                                                                                                                                                                                                                                                                                                                                                                                                        
00003480379810044DT67590675900000005702800888800000010180088887287283075900012227769031620230000003999907523000000000728943520711XXXXXX5326                         NY 4607AMDBFBVUM00316  N840000000039999          81DNPSILOMART                509966    MD84000000039999 NP1549900000001   rbaYBYjxciyaL5JEIs8D     000000000+600450S00140    MDB  00062                     000000000  N                0000000000000.00 0000000.00   0000000.00                             000000000000000                                                                                                                                                   U001424  000000000000 0000000000010.70     02650 01000                  
00003490379810001P1675906759000000057028008888000000101                                                          000000000000          8000            881060599                                                                                                                                                                                                                                                                                                                                                                                                                                                                                                                                                            
00003500379810045DT67590675900000005702800888800000010180088887287283075900012250332031620230000000317407523000000000728943517805XXXXXX8476       ME03KE06MS02      NY 4607AMPLB7L1Y20316  N840000000003174          81DNPSILOMART                09094B    MC84000000003174 N  549900000001   rN9vAd482UOJOO6MCzXA     000000000+600450S00140    MPL  00580                     000000000  N                0000000000000.00 0000000.00   0000000.00                             000000000000000                                                                                                                                                   U001424  000000000000 0000000000000.77     02100 01000                  
00003510379810046DT67590675900000005702800888800000010180088824001193075900012251537031620230000000339807523000000000728943423999XXXXXX3617               2111111   NYV4 A7W303075759281329N84000000000339887HJ00    01DNPSILOMART                027280    VD84000000003398 NP1549971004114   RKJ9HKPWFI98MF0WNKHR     000000000+                F DF 00415                     000000000  N000000000       0000000000000.00 0000000.00   0000000.00                             000000000000000                                                                                                                                                     01424 G000000003398 0000000000000.71     01650 01500                  
00003520379810001P16759067590000000570280088880000001010000000000000000                             2000000000000000000000000              000000000000                    0000000000000000000000000                    000000000000                                                                                                                                                                                                                                                                                                                                                                                                                                                                                        
00003530379810047DT67590675900000005702800888800000010180088824001193075900012255421031620230000000209907523000000000728943412174XXXXXX0854               2111111   NYV4 A7W383074842607280N8400000000020996NTX00    01DNPSILOMART                02630A    VS84000000002099 NP1549971004114   RFDPXD2DTGYUYYLPXDQR     000000000+                A CA 12106                     000000000  N000000000 492   0000000000000.00 0000000.00   0000000.00                             000000000000000                                                                                                                                                     01424 G000000002099 0000000000000.50     01890 01000                  
00003540379810001P16759067590000000570280088880000001010000000000000000                             2000000000000000000000000              000000000000                    0000000000000000000000000                    000000000000                                                                                                                                                                                                                                                                                                                                                                                                                                                                                        
00003550379810048DT67590675900000005702800888800000010180088887287283075900012255414031620230000000919607523000000000728943552433XXXXXX7813       ME03KE06PT01      NY 4607AMCWEXUGNV0315  N840000000009196          81DNPSILOMART                02917Z    MC84000000009196 N  549900000001   rLBm64WuuzBCMcIqxV9s     000000000+600450S00140    MCW  00642                     000000000  N                0000000000000.00 0000000.00   0000000.00                             000000000000000                                                                                                                                                   U001424  000000000000 0000000000002.12     02200 01000                  
00003560379810049DT67590675900000005702800888800000010180088824001193075900012263714031620230000000600007523000000000728943443264XXXXXX1897               2111111   NYV4 A7W383075022121946N840000000006000NKRL00    01DNPSILOMART                015181    VD84000000006000 NP1549971004114   RO8FXMLB2TZJZ4FE7LBG     000000000+                F DF 10420                     000000000  Y000000000 338   0000000000000.00 0000000.00   0000000.00                             000000000000000                                                                                                                                                     01424 G000000006000 0000000000000.25     00050 02200                  
00003570379810001P16759067590000000570280088880000001010000000000000000                             2000000000000000000000000              000000000000                    0000000000000000000000000                    000000000000                                                                                                                                                                                                                                                                                                                                                                                                                                                                                        
00003580379810050DT67590675900000005702800888800000010180088887287283075900012207522031620230000000615707523000000000728943517805XXXXXX6509       ME03KE06MS02      NY 4607AMPLTKTPM50316  N840000000006157          81DNPSILOMART                09864B    MC84000000006157 N  549900000001   rccJwFfu9CCqzlunPYia     000000000+600450S00140    MPL  00580                     000000000  N                0000000000000.00 0000000.00   0000000.00                             000000000000000                                                                                                                                                   U001424  000000000000 0000000000001.39     02100 01000                  
00003590379810051DT67590675900000005702800888800000010180088824001193075900012217751031620230000009015907523000000000728943403490XXXXXX6861               2111111   NYV4 A7W303075660760860N8400000000901597FTT00    01DNPSILOMART                399094    VD84000000090159 NP1549971004114   RLLTUL2ADNT06IBO4Y68     000000000+                G DG 10352                     000000000  Y000000000 338   0000000000000.00 0000000.00   0000000.00                             000000000000000                                                                                                                                                     01424 G000000090159 0000000000000.67     00050 02200                  
00003600379810001P16759067590000000570280088880000001010000000000000000    64254826349              2000000000000000000000000              000000000000                    0000000000000000000000000                    000000000000                                                                                                                                                                                                                                                                                                                                                                                                                                                                                        
00003610379810052BH6759067590000000370780088880000090170316202307523000000000113683    0000090001620419Y8008886759C03172023                                                                                                                                                                                                                                                                                                                                                                                                                                                                                                                                                                                                 
00003620379810053DT67590675900000003707800888800000010180088887287283075900016204095031520230000000749907523000000000113683519906XXXXXX6397       ME03KE06MS02      NY 4607AMDJCEICN90315  N840000000007499          81DNMR HEMP FLOWER           732506    MD84000000007499 N  549976053336   87203                    000000000+600450S00130    MDJ  00401                     000000000  N                0000000000000.00 0000000.00   0000000.00                             000000000000000                                                                                                                                                   U001424  000000000000 0000000000001.39     01650 01500                  
00003630379810054DT67590675900000003707800888800000010180088824001193075900016204102031520230000000549907523000000000113683425907XXXXXX6587               2111111   NYV4 A7W463075002561734N840000000005499XRL800    01DNMR HEMP FLOWER           038374    VD84000000005499 NP1549976053336   87204                    000000000+                G DG 10352                     000000000  Y000000000 338   0000000000000.00 0000000.00   0000000.00                             000000000000000                                                                                                                                                     01424 G000000005499 0000000000000.25     00050 02200                  
00003640379810001P16759067590000000370780088880000001010000000000000000                             2000000000000000000000000              000000000000                    0000000000000000000000000                    000000000000                                                                                                                                                                                                                                                                                                                                                                                                                                                                                        
00003650379810055DT67590675900000003707800888800000010180088824001193075900016204110031520230000001300007523000000000113683466189XXXXXX4978               2111111   NYV4 A7W583075065279900N8400000000130002STC00    01DNMR HEMP FLOWER           078582    VD84000000013000 NP1549976053336   87214                    000000000+                F DF 10420                     000000000  Y000000000 338   0000000000000.00 0000000.00   0000000.00                             000000000000000                                                                                                                                                     01424 G000000013000 0000000000000.29     00050 02200                  
00003660379810001P16759067590000000370780088880000001010000000000000000                             2000000000000000000000000              000000000000                    0000000000000000000000000                    000000000000                                                                                                                                                                                                                                                                                                                                                                                                                                                                                        
00003670379810056DT67590675900000003707800888800000010180088824001193075900016204128031620230000001175007523000000000113683443041XXXXXX0621               2111111   NYV4 A7W463075305661428N840000000011750B9ZJ00    01DNMR HEMP FLOWER           373231    VD84000000011750 NP1549976053336   87222                    000000000+                F DF 10420                     000000000  Y000000000 338   0000000000000.00 0000000.00   0000000.00                             000000000000000                                                                                                                                                     01424 G000000011750 0000000000000.28     00050 02200                  
00003680379810001P16759067590000000370780088880000001010000000000000000                             2000000000000000000000000              000000000000                    0000000000000000000000000                    000000000000                                                                                                                                                                                                                                                                                                                                                                                                                                                                                        
00003690379810057DT67590675900000003707800888800000010180088876509753075900016204134031620230000000219807523000000000113683601100XXXXXX7075   BA00                  NY 4 07N863064283406789N840000000002198    00    01DNMR HEMP FLOWER           01644R    DS84000000002198 N  549976053336070                         000000000+1015104910600   DCCDI11325500950  083900000000 000000000  0          460   0000000000000.00 0000000.00   0000000.00                             000000000000000                                                                                                                                                     01424  000000000000 0000000000000.55     02030 01000                  
00003700379810058DT67590675900000003707800888800000010180088887287283075900016204145031620230000000749907523000000000113683530706XXXXXX5433       ME03KE06MS02      NY 4607AMPAP6AGV80316  N840000000007499          81DNMR HEMP FLOWER           194041    MD84000000007499 N  549976053336   87243                    000000000+600450S00130    MPA  09899                     000000000  N                0000000000000.00 0000000.00   0000000.00                             000000000000000                                                                                                                                                   U001424  000000000000 0000000000001.52     01760 02000                  
00003710379810059DT67590675900000003707800888800000010180088887287283075900016204152031620230000003439307523000000000113683514736XXXXXX7403       ME03KE06PT01      NY 4607AMCWEJ8GV70316  N840000000034393          81DNMR HEMP FLOWER           03581Z    MC84000000034393 N  549976053336   87244                    000000000+600450S00130    MCW  00642                     000000000  N                0000000000000.00 0000000.00   0000000.00                             000000000000000                                                                                                                                                   U001424  000000000000 0000000000007.67     02200 01000                  
00003720379810060DT67590675900000003707800888800000010180088824001193075900016204169031620230000001600007523000000000113683440066XXXXXX2744               2111111   NYV4 A7W583075661808709N840000000016000BXXL00    01DNMR HEMP FLOWER           09149D    VS84000000016000 NP1549976053336   87257                    000000000+                D CD 12109                     000000000  N000000000 498   0000000000000.00 0000000.00   0000000.00                             000000000000000                                                                                                                                                     01424 G000000016000 0000000000004.10     02500 01000                  
00003730379810001P16759067590000000370780088880000001010000000000000000                             2000000000000000000000000              000000000000                    0000000000000000000000000                    000000000000                                                                                                                                                                                                                                                                                                                                                                                                                                                                                        
00003740379810061DT67590675900000003707800888800000010180088824001193075900016204177031620230000000349807523000000000113683414720XXXXXX7325               2111111   NYV4 A7W463075678615777N8400000000034989GHG00    01DNMR HEMP FLOWER           03051D    VS84000000003498 NP1549976053336   87261                    000000000+                D CD 12109                     000000000  N000000000 498   0000000000000.00 0000000.00   0000000.00                             000000000000000                                                                                                                                                     01424 G000000003498 0000000000000.97     02500 01000                  
00003750379810001P16759067590000000370780088880000001010000000000000000                             2000000000000000000000000              000000000000                    0000000000000000000000000                    000000000000                                                                                                                                                                                                                                                                                                                                                                                                                                                                                        
00003760379810062DT67590675900000003707800888800000010180088887287283075900016204186031620230000000374907523000000000113683521844XXXXXX7928       ME03KE06MS02      NY 4607AMDJZCV4M50316  N840000000003749          81DNMR HEMP FLOWER           591671    MD84000000003749 N  549976053336   87271                    000000000+600450S00130    MDJ  00401                     000000000  N                0000000000000.00 0000000.00   0000000.00                             000000000000000                                                                                                                                                     01424  000000000000 0000000000000.77     01650 01500                  
00003770379810063DT67590675900000003707800888800000010180088887287283075900016204194031620230000000859807523000000000113683528072XXXXXX6601       ME03KE06PT01      NY 4607AMCWHEFWM60316  N840000000008598          81DNMR HEMP FLOWER           09575S    MC84000000008598 N  549976053336   87272                    000000000+600450S00130    MCW  02182                     000000000  N                0000000000000.00 0000000.00   0000000.00                             000000000000000                                                                                                                                                   U001424  000000000000 0000000000002.34     02600 01000                  
00003780379810064BH6759067590000001427480010280000090170316202307523000000000125026    0000090001292508Y8001026759C03172023                                                                                                                                                                                                                                                                                                                                                                                                                                                                                                                                                                                                 
00003790379810065DT67590675900000014274800102800000010180010224001193075900012919919031520230000000643207523000000000125026442644XXXXXX4539               2111111   NYV4 A7W583071333069188N840000000006432V5MZ00    01DNCBD8666317293            012304    VS84000000006432 NP1549977145232   1994CAFDD1T05CBF6B76970  000000000+                A CA 12106                     000000000  N000000000 492   0000000000000.00 0000000.00   0000000.00                             000000000000000                                                                                                                                                     01424 G000000006432 0000000000001.32     01890 01000                  
00003800379810001P16759067590000001427480010280000001010000000000000000                             2000000000000000000000000              000000000000                    0000000000000000000000000                    000000000000                                                                                                                                                                                                                                                                                                                                                                                                                                                                                        
00003810379810066DT67590675900000014274800102800000010180010224001193075900012920685031520230000001499107523000000000125026461046XXXXXX9828               2111111   NYV4 A7W583071651041668N840000000014991DDQ400    01DNCBD8666317293            040514    VD84000000014991 NP1549977145232   3CCB6E4EA4T6C791E90C3A4  000000000+                F DF 10420                     000000000  Y000000000 338   0000000000000.00 0000000.00   0000000.00                             000000000000000                                                                                                                                                     01424 G000000014991 0000000000000.29     00050 02200                  
00003820379810001P16759067590000001427480010280000001010000000000000000                             2000000000000000000000000              000000000000                    0000000000000000000000000                    000000000000                                                                                                                                                                                                                                                                                                                                                                                                                                                                                        
00003830379810067DT67590675900000014274800102800000010180010224001193075900012920909031520230000001799107523000000000125026434258XXXXXX5947               2111111   NYV4 A7W383071828958196N840000000017991PT3P00    01DNCBD8666317293            056069    VD84000000017991 NP1549977145232   918D03F0C5T73E70149B078  000000000+                F DF 10420                     000000000  Y000000000 338   0000000000000.00 0000000.00   0000000.00                             000000000000000                                                                                                                                                     01424 G000000017991 0000000000000.31     00050 02200                  
00003840379810001P16759067590000001427480010280000001010000000000000000                             2000000000000000000000000              000000000000                    0000000000000000000000000                    000000000000                                                                                                                                                                                                                                                                                                                                                                                                                                                                                        
00003850379810068DT67590675900000014274800102800000010180010287287283075900012921015031520230000002111207523000000000125026511413XXXXXX3734       ME03KE06MS02      NY 4607AMDJEUUA490312  N840000000021112          81DNCBD8666317293            029503    MD84000000021112 N  549977145232   F71BE4F206TA77FAC4B8C0B  000000000+600450S00130    MDJ  10813                     000000000  1                0000000000000.00 0000000.00   0000000.00                             000000000000000                                                                                                                                                   U001424  000000000000 0000000000000.33     00050 02200                  
00003860379810069DT67590675900000014274800102800000010180010224001193075900012924703031520230000001206607523000000000125026436618XXXXXX1186               2111111   NYV4 A7W303075018224059N84000000001206695G900    01DNCBD8666317293            001876    VD84000000012066 NP1549977145232   86AE2CFFA8TE2135B14DEAB  000000000+                F DF 10420                     000000000  Y000000000 338   0000000000000.00 0000000.00   0000000.00                             000000000000000                                                                                                                                                     01424 G000000012066 0000000000000.28     00050 02200                  
00003870379810001P16759067590000001427480010280000001010000000000000000                             2000000000000000000000000              000000000000                    0000000000000000000000000                    000000000000                                                                                                                                                                                                                                                                                                                                                                                                                                                                                        
00003880379810070DT67590675900000014274800102800000010180010224001193075900012924752031520230000002106207523000000000125026423817XXXXXX1903               2111111   NYV4 A7W383075088640673N840000000021062J3ZD00    01DNCBD8666317293            022744    VD84000000021062 NP1549977145232   DC383128BFTCCF232E3F9D1  000000000+                F DF 00415                     000000000  N000000000       0000000000000.00 0000000.00   0000000.00                             000000000000000                                                                                                                                                     01424 G000000021062 0000000000003.63     01650 01500                  
00003890379810001P16759067590000001427480010280000001010000000000000000                             2000000000000000000000000              000000000000                    0000000000000000000000000                    000000000000                                                                                                                                                                                                                                                                                                                                                                                                                                                                                        
00003900379810071DT67590675900000014274800102800000010680010287287283075900012924779031520230000001987007523000000000125026521333XXXXXX0393                         NY 4607AMPLH1RSB80315  N840000000019870          81CNCBD8666317293            015278    MC84000000019870 N  549977145232   8599B3F805T093B2B646814  000000000+600450S00130    MPL  00565                     000000000  N                0000000000000.00 0000000.00   0000000.00                             000000000000000                                                                                                                                                     01424  000000000000-0000000000003.48     01750 00000                  
00003910379810072DT67590675900000014274800102800000010680010274001193075900012925143031520230000002255007523000000000125026411774XXXXXX7301               0000000   NY94 07N000000000000000N   000000000000          01CNCBD8666317293                      VD84000000022550 N  549977145232                            000000000+                F DF 08168                     000000000  Y000000000 369   0000000000000.00 0000000.00   0000000.00                             000000000000000                                                                                                                                                     01424  000000000000 0000000000000.00     00000 00000                  
00003920379810073DT67590675900000014274800102800000010180010287287283075900012924860031620230000002717007523000000000125026521876XXXXXX6082       ME03KE06MS02      NY 4607AMWET351RK0316  N840000000027170          81DNCBD8666317293            22603Z    MC84000000027170 N  549977145232   8BBECBEC24TE984045D7E16  000000000+600450S00130    MWE  00737                     000000000  N                0000000000000.00 0000000.00   0000000.00                             000000000000000                                                                                                                                                   U001424  000000000000 0000000000007.16     02600 01000                  
00003930379810074DT67590675900000014274800102800000010680010274001193075900012924906031620230000002106207523000000000125026423817XXXXXX1903               0000000   NYV4 07T303075520640956N840000000021062GXLH00    01CNCBD8666317293            002744    VD84000000021062 NP1549977145232   DC383128BFTCCF232E3F9D1  000000000+                F DF 08168                     000000000  N000000000 369   0000000000000.00 0000000.00   0000000.00                             000000000000000                                                                                                                                                     01424  000000021062 0000000000000.00     00000 00000                  
00003940379810001P16759067590000001427480010280000001060000000000000000                             2000000000000000000000000              000000000000                    0000000000000000000000000                    000000000000                                                                                                                                                                                                                                                                                                                                                                                                                                                                                        
00003950379810075DT67590675900000014274800102800000010180010224001193075900012924950031620230000002122807523000000000125026414709XXXXXX3122               2111111   NYV4 A7W303075584285283N840000000021228HMQW00    01DNCBD8666317293            00475D    VS84000000021228 NP1549977145232   E60FDA851CT402D76FA0A3E  000000000+                D CD 12109                     000000000  N000000000 498   0000000000000.00 0000000.00   0000000.00                             000000000000000                                                                                                                                                     01424 G000000021228 0000000000005.41     02500 01000                  
00003960379810001P16759067590000001427480010280000001010000000000000000                             2000000000000000000000000              000000000000                    0000000000000000000000000                    000000000000                                                                                                                                                                                                                                                                                                                                                                                                                                                                                        
00003970379810076DT67590675900000014274800102800000010680010274001193075900012924971031620230000000319907523000000000125026414720XXXXXX5249               0000000   NYV4 07T383075691182587N840000000003199BPT600    01CNCBD8666317293            04750C    VS84000000003199 NP1549977145232   33B5DA8628TDED006B9931F  000000000+                C CC 00245                     000000000  N000000000 166   0000000000000.00 0000000.00   0000000.00                             000000000000000                                                                                                                                                     01424  000000003199-0000000000000.56     01760 00000                  
00003980379810001P16759067590000001427480010280000001060000000000000000                             2000000000000000000000000              000000000000                    0000000000000000000000000                    000000000000                                                                                                                                                                                                                                                                                                                                                                                                                                                                                        
00003990379810077DT67590675900000014274800102800000010180010287287283075900012924985031620230000001506607523000000000125026514819XXXXXX0618       ME03KE06MS02      NY 4607AMDJZ7C8Y10316  N840000000015066          81DNCBD8666317293            212822    MD84000000015066 N  549977145232   24FD3D19A5TFC24D0E7ADA3  000000000+600450S00130    MDJ  00401                     000000000  N                0000000000000.00 0000000.00   0000000.00                             000000000000000                                                                                                                                                   U001424  000000000000 0000000000002.64     01650 01500                  
00004000379810078DT67590675900000014274800102800000010680010274001193075900012924997031620230000000700007523000000000125026410898XXXXXX6405               0000000   NYV4 07T303075699636442N840000000007000J8HN00    01CNCBD8666317293            023919    VS84000000007000 NP1549977145232   88E2AF538FT5C6B278D9B00  000000000+                A CA 00245                     000000000  N000000000 166   0000000000000.00 0000000.00   0000000.00                             000000000000000                                                                                                                                                     01424  000000007000-0000000000001.23     01760 00000                  
00004010379810001P16759067590000001427480010280000001060000000000000000                             2000000000000000000000000              000000000000                    0000000000000000000000000                    000000000000                                                                                                                                                                                                                                                                                                                                                                                                                                                                                        
00004020379810079DT67590675900000014274800102800000010180010224001193075900012925023031620230000002435407523000000000125026410464XXXXXX0705               2111111   NYV4 A7W383075740573978N840000000024354M38T00    01DNCBD8666317293            559658    VS84000000024354 NP1549977145232   101835040ET38A5E0068CEA  000000000+                A CA 12106                     000000000  N000000000 492   0000000000000.00 0000000.00   0000000.00                             000000000000000                                                                                                                                                     01424 G000000024354 0000000000004.70     01890 01000                  
00004030379810001P16759067590000001427480010280000001010000000000000000                             2000000000000000000000000              000000000000                    0000000000000000000000000                    000000000000                                                                                                                                                                                                                                                                                                                                                                                                                                                                                        
00004040379810080DT67590675900000014274800102800000010180010224001193075900012925080031620230000001723507523000000000125026434258XXXXXX6600               2111111   NYV4 A7W303075836911304N840000000017235XSN500    01DNCBD8666317293            016702    VD84000000017235 NP1549977145232   38C2383EEDT2FFCE2DC92C8  000000000+                F DF 10420                     000000000  Y000000000 338   0000000000000.00 0000000.00   0000000.00                             000000000000000                                                                                                                                                     01424 G000000017235 0000000000000.31     00050 02200                  
00004050379810001P16759067590000001427480010280000001010000000000000000                             2000000000000000000000000              000000000000                    0000000000000000000000000                    000000000000                                                                                                                                                                                                                                                                                                                                                                                                                                                                                        
00004060379810081BH6759067590000001516480088880000090170316202307523000000001440862    0000090001161537Y8008886759C03172023                                                                                                                                                                                                                                                                                                                                                                                                                                                                                                                                                                                                 
00004070379810082DT67590675900000015164800888800000010180088887287283075900011613068031520230000001987007523000000001440862542432XXXXXX5663       ME03KE06MS02      NY 4607AMDJCI0MN90315  N840000000019870          81DNKETOFUSION833-923-3587   342173    MD84000000019870 N  599977360677   585E33467DT7ECD140325AF  000000000+600450S00130    MDJ  10813                     000000000  1                0000000000000.00 0000000.00   0000000.00                             000000000000000                                                                                                                                                   U001424  000000000000 0000000000000.32     00050 02200                  
00004080379810083DT67590675900000015164800888800000010180088824001193075900011613075031520230000002255007523000000001440862427082XXXXXX9613               2111111   NYV4 A7W303075006963710N840000000022550M7VX00    01DNKETOFUSION833-923-3587   015904    VS84000000022550 NP1599977360677   1B4D133B64TE099221FA3DC  000000000+                A CA 12106                     000000000  N000000000 492   0000000000000.00 0000000.00   0000000.00                             000000000000000                                                                                                                                                     01424 G000000022550 0000000000004.36     01890 01000                  
00004090379810001P16759067590000001516480088880000001010000000000000000                             2000000000000000000000000              000000000000                    0000000000000000000000000                    000000000000                                                                                                                                                                                                                                                                                                                                                                                                                                                                                        
00004100379810084DT67590675900000015164800888800000010180088887287283075900011613100031520230000001499007523000000001440862511795XXXXXX5417       ME03KE06MS02      NY 4607AMDJFFR9B80315  N840000000014990          81DNKETOFUSION833-923-3587   043832    MD84000000014990 N  599977360677   F26980ADE1T35F21A7604AC  000000000+600450S00130    MDJ  00401                     000000000  N                0000000000000.00 0000000.00   0000000.00                             000000000000000                                                                                                                                                   U001424  000000000000 0000000000002.62     01650 01500                  
00004110379810085DT67590675900000015164800888800000010180088887287283075900011613118031520230000000654807523000000001440862511795XXXXXX5417       ME03KE06MS02      NY 4607AMDJSU8HCP0315  N840000000006548          81DNKETOFUSION833-923-3587   044155    MD84000000006548 N  599977360677   F26980ADE1T32C99BA4FCC9  000000000+600450S00130    MDJ  00401                     000000000  N                0000000000000.00 0000000.00   0000000.00                             000000000000000                                                                                                                                                   U001424  000000000000 0000000000001.23     01650 01500                  
00004120379810086DT67590675900000015164800888800000010180088824001193075900011613158031520230000002487007523000000001440862473702XXXXXX2310               2111111   NYV4 A7W463075024963794N840000000024870TLZ900    01DNKETOFUSION833-923-3587   038530    VD84000000024870 NP1599977360677   1B4089B393TAF87B2E9628A  000000000+                F DF 10420                     000000000  Y000000000 338   0000000000000.00 0000000.00   0000000.00                             000000000000000                                                                                                                                                     01424 G000000024870 0000000000000.34     00050 02200                  
00004130379810001P16759067590000001516480088880000001010000000000000000                             2000000000000000000000000              000000000000                    0000000000000000000000000                    000000000000                                                                                                                                                                                                                                                                                                                                                                                                                                                                                        
00004140379810087DT67590675900000015164800888800000010180088876509753075900011613164031520230000000654807523000000001440862601100XXXXXX1809   BA00                  NY 4 07N813063825890422N840000000006548    00    01DNKETOFUSION833-923-3587   01523R    DS84000000006548 N  599977360677070                         000000000+1015104910600   DCCDI11325336841  195629000000 000000000  0          460   0000000000000.00 0000000.00   0000000.00                             000000000000000                                                                                                                                                     01424  000000000000 0000000000001.43     02030 01000                  
00004150379810088DT67590675900000015164800888800000010180088876509753075900011613172031520230000000519007523000000001440862601100XXXXXX1809   BA00                  NY 4 07N743063825974111N840000000005190    00    01DNKETOFUSION833-923-3587   01537R    DS84000000005190 N  599977360677070                         000000000+1015104910600   DCCDI11325004825  195637000000 000000000  0          460   0000000000000.00 0000000.00   0000000.00                             000000000000000                                                                                                                                                     01424  000000000000 0000000000001.15     02030 01000                  
00004160379810089DT67590675900000015164800888800000010180088824001193075900011613182031520230000001499007523000000001440862415417XXXXXX0283               2111111   NYV4 A7W583075039396345N840000000014990MNSH00    01DNKETOFUSION833-923-3587   06205G    VB84000000014990 NP1599977360677   640EF1FE68TE6B5A3BC81C5  000000000+                G4CG411355                     000000000  N000000000 377   0000000000000.00 0000000.00   0000000.00                             000000000000000                                                                                                                                                     01424 G000000014990 0000000000004.52     02950 01000                  
00004170379810001P16759067590000001516480088880000001010000000000000000                             2000000000000000000000000              000000000000                    0000000000000000000000000                    000000000000                                                                                                                                                                                                                                                                                                                                                                                                                                                                                        
00004180379810090DT67590675900000015164800888800000010180088824001193075900011613190031520230000000654807523000000001440862415417XXXXXX0283               2111111   NYV4 A7W303075039677731N840000000006548249600    01DNKETOFUSION833-923-3587   08243G    VB84000000006548 NP1599977360677   640EF1FE68TA65AE3C881BA  000000000+                G4CG411355                     000000000  N000000000 377   0000000000000.00 0000000.00   0000000.00                             000000000000000                                                                                                                                                     01424 G000000006548 0000000000002.03     02950 01000                  
00004190379810001P16759067590000001516480088880000001010000000000000000                             2000000000000000000000000              000000000000                    0000000000000000000000000                    000000000000                                                                                                                                                                                                                                                                                                                                                                                                                                                                                        
