08974600548300002BH6759067590000001619680010280000090170623202317423000000000178281    0000090001745178Y8001026759C06262023074                                                                                                                                                                                                                                                                                                                                                                                                                                                                                                                                                                                              
08974610548300003DT67590675900000016196800102800000010180010287287283174900017446893062220230000001272817423000000000178281548006XXXXXX2717                         NY 4607AMDBI90O2P0619  N840000000012728          81DNGREEN OTTER LLC          H43039    MD84000000012728 NDR549977424386                            000000000+600450S00130    MDB  10788                     000000000  1                0000000000000.00 0000000.00   0000000.00                             000000000000000                                                                                                                                                   U001424  000000000000 0000000000000.28     00050 02200                  
08974620548300003DR675906759000000161968001028000000101                         Y000000000000                 P1                                                                                                                                                                                                                                                                                                                                                                                                                                                                                                                                                                                                            
08974630548300001P1675906759000000161968001028000000101                                                 000000720000000000000          8000   000000000871584967            000000000000                                                                                                                                                                                                                                                                                                                                                                                                                                                                                                                                    
08974640548300002G2675906759000000161968001028000000101866-6317293              GA           9 B               210                  871584967           YNNN           210000000000000000000000000                        7                                          77424386                                                                                                                                                                                                                                                                                                                                                                                                                                               
08974650548300004DT67590675900000016196800102800000010180010287287283174900017447073062220230000002704617423000000000178281546234XXXXXX0057       ME03KE06MS02      NY 4607AMDSD2612P0619  N840000000027046          81DNGREEN OTTER LLC          808205    MD84000000027046 NDR549977424386   38F6B167F6TBE78128AC8E3  000000000+600450S00130    MDS  00401                     000000000  N                0000000000000.00 0000000.00   0000000.00                             000000000000000                                                                                                                                                   U001424  000000000000 0000000000004.61     01650 01500                  
08974660548300004DR67590675900000016196800102800000010138F6B167F6TBE78128AC8E3  Y000000000000                                                                                                                                                                                                                                                                                                                                                                                                                                                                                                                                                                                                                               
08974670548300001G2675906759000000161968001028000000101866-6317293              GA           9 S               210                                      NNNN           210000000000000000000000000                        7                                          77424386                                                                                                                                                                                                                                                                                                                                                                                                                                               
08974680548300005DT67590675900000016196800102800000010180010287287283174900017451265062220230000002686017423000000000178281511829XXXXXX9165       ME03KE06MS02      NY 4607AMDJE58SV10622  N840000000026860          81DNGREEN OTTER LLC          886125    MD84000000026860 NDR549977424386   BB5842BECAT2CA8C69589AF  000000000+600450S00130    MDJ  00401                     000000000  N                0000000000000.00 0000000.00   0000000.00                             000000000000000                                                                                                                                                   U001424  000000000000 0000000000004.58     01650 01500                  
08974690548300005DR675906759000000161968001028000000101BB5842BECAT2CA8C69589AF  Y000000000000                                                                                                                                                                                                                                                                                                                                                                                                                                                                                                                                                                                                                               
08974700548300001G2675906759000000161968001028000000101866-6317293              GA           9 J               210                                      NNNN           210000000000000000000000000                        7                                          77424386                                                                                                                                                                                                                                                                                                                                                                                                                                               
08974710548300006DT67590675900000016196800102800000010180010287287283174900017451281062220230000002106217423000000000178281534740XXXXXX2008                         NY 4607AMDBORGCVM0622  N840000000021062          81DNGREEN OTTER LLC          022005    MD84000000021062 NDR549977424386                            000000000+600450S00130    MDB  10788                     000000000  1                0000000000000.00 0000000.00   0000000.00                             000000000000000                                                                                                                                                   U001424  000000000000 0000000000000.33     00050 02200                  
08974720548300006DR675906759000000161968001028000000101                         Y000000000000                 P1                                                                                                                                                                                                                                                                                                                                                                                                                                                                                                                                                                                                            
08974730548300001P1675906759000000161968001028000000101                                                 000001192000000000000          8000   000000000871584967            000000000000                                                                                                                                                                                                                                                                                                                                                                                                                                                                                                                                    
08974740548300002G2675906759000000161968001028000000101866-6317293              GA           9 B               210                  871584967           YNNN           210000000000000000000000000                        7                                          77424386                                                                                                                                                                                                                                                                                                                                                                                                                                               
08974750548300007DT67590675900000016196800102800000010180010224001193174900017451389062320230000001099817423000000000178281440393XXXXXX1858               2111111   NYV4 A7W383174408767969N840000000010998VW2N00    01DNGREEN OTTER LLC          324526    VD84000000010998 NDR549977424386   0C47A5FFE2TF04B45347E1D  000000000+                F PF 08175                     000000000  N000000000       0000000000000.00 0000000.00   0000000.00                             000000000000000                                                                                                                                                     01424 G000000010998 0000000000002.12     01750 02000                  
08974760548300007DR6759067590000001619680010280000001010C47A5FFE2TF04B45347E1D  Y000000010998                 P1                                                                                                                                                                                                                                                                                                                                                                                                                                                                                                                                                                                                            
08974770548300001P16759067590000001619680010280000001010000000000000000                             2000000000000000000000000              000000000000                    0000000000000000000000000                    000000000000                                                                                                                                                                                                                                                                                                                                                                                                                                                                                        
08974780548300002G2675906759000000161968001028000000101866-6317293              GA           9 P                00                                      NNNN   N                      000000000000                                                                   77424386                                                                                                                                                                                                                                                                                                                                                                                                                                               
08974790548300008DT67590675900000016196800102800000010180010287287283174900017451398062320230000000999817423000000000178281521333XXXXXX9229       ME03KE06MS02      NY 4607AMWED5L4Y60623  N840000000009998          81DNGREEN OTTER LLC          02318P    MC84000000009998 NDR549977424386   EDA57CC24BT7B05ACFBD757  000000000+600450S00130    MWE  00737                     000000000  N                0000000000000.00 0000000.00   0000000.00                             000000000000000                                                                                                                                                   U001424  000000000000 0000000000002.70     02600 01000                  
08974800548300008DR675906759000000161968001028000000101EDA57CC24BT7B05ACFBD757  Y000000000000                                                                                                                                                                                                                                                                                                                                                                                                                                                                                                                                                                                                                               
08974810548300001G2675906759000000161968001028000000101866-6317293              GA           9 E               210                                      NNNN           210000000000000000000000000                        7                                          77424386                                                                                                                                                                                                                                                                                                                                                                                                                                               
08974820548300009DT67590675900000016196800102800000010680010274001193174900017451400062320230000002155917423000000000178281487468XXXXXX4759               0000000   NYV4 07T383174481422577N840000000021559LBCH00    01CNGREEN OTTER LLC          152998    VD84000000021559 NDR549977424386   9AAF37D71FTC07B004E1372  000000000+                F DF 08168                     000000000  N000000000 369   0000000000000.00 0000000.00   0000000.00                             000000000000000                                                                                                                                                     01424  000000021559 0000000000000.00     00000 00000                  
08974830548300009DR6759067590000001619680010280000001069AAF37D71FTC07B004E1372  Y000000021559                 P1                                                                                                                                                                                                                                                                                                                                                                                                                                                                                                                                                                                                            
08974840548300001P16759067590000001619680010280000001060000000000000000                             2000000000000000000000000              000000000000                    0000000000000000000000000                    000000000000                                                                                                                                                                                                                                                                                                                                                                                                                                                                                        
08974850548300002G2675906759000000161968001028000000106866-6317293              GA           9 D                00                                      NNNN   N                      000000000000                                                                   77424386                                                                                                                                                                                                                                                                                                                                                                                                                                               
08974860548300010DT67590675900000016196800102800000010680010287287283174900017451422062320230000002092317423000000000178281514616XXXXXX1149                         NY 4607AMDJP840Y60623  N840000000020923          81CNGREEN OTTER LLC          E5B9D6    MD84000000020923 NDR549977424386   F184555D2BT056C5CCA4C68  000000000+600450S00130    MDJ  00560                     000000000  N                0000000000000.00 0000000.00   0000000.00                             000000000000000                                                                                                                                                     01424  000000000000 0000000000000.00     00000 00000                  
08974870548300010DR675906759000000161968001028000000106F184555D2BT056C5CCA4C68  Y000000000000                                                                                                                                                                                                                                                                                                                                                                                                                                                                                                                                                                                                                               
08974880548300001G2675906759000000161968001028000000106866-6317293              GA           9 J               210                                      NNNN           210000000000000000000000000                        7                                          77424386                                                                                                                                                                                                                                                                                                                                                                                                                                               
08974890548300011DT67590675900000016196800102800000010180010224001193174900017451454062320230000001200817423000000000178281426684XXXXXX6847               2111111   NYV4 A7W583174584090605N840000000012008VD3K00    01DNGREEN OTTER LLC          09897C    VS84000000012008 NDR549977424386   4A21DE07E4T0A3D3554FE96  000000000+                C CC 12108                     000000000  N000000000 496   0000000000000.00 0000000.00   0000000.00                             000000000000000                                                                                                                                                     01424 G000000012008 0000000000002.56     02050 01000                  
08974900548300011DR6759067590000001619680010280000001014A21DE07E4T0A3D3554FE96  Y000000012008                 P1                                                                                                                                                                                                                                                                                                                                                                                                                                                                                                                                                                                                            
08974910548300001P16759067590000001619680010280000001010000000000000000                             2000000000000000000000000              000000000000                    0000000000000000000000000                    000000000000                                                                                                                                                                                                                                                                                                                                                                                                                                                                                        
08974920548300002G2675906759000000161968001028000000101866-6317293              GA           9 C                00                                      NNNN   Y                      000000000000                                                                   77424386                                                                                                                                                                                                                                                                                                                                                                                                                                               
08974930548300012DT67590675900000016196800102800000010180010287287283174900017451513062320230000002623817423000000000178281521333XXXXXX5301       ME03KE06MS02      NY 4607AMWEW96T580623  N840000000026238          81DNGREEN OTTER LLC          02349Y    MC84000000026238 NDR549977424386   F549CB96B5T790838BCC982  000000000+600450S00130    MWE  00642                     000000000  N                0000000000000.00 0000000.00   0000000.00                             000000000000000                                                                                                                                                   U001424  000000000000 0000000000005.87     02200 01000                  
08974940548300012DR675906759000000161968001028000000101F549CB96B5T790838BCC982  Y000000000000                                                                                                                                                                                                                                                                                                                                                                                                                                                                                                                                                                                                                               
08974950548300001G2675906759000000161968001028000000101866-6317293              GA           9 E               210                                      NNNN           210000000000000000000000000                        7                                          77424386                                                                                                                                                                                                                                                                                                                                                                                                                                               
08974960548300013DT67590675900000016196800102800000010180010224001193174900017451603062320230000000149517423000000000178281448233XXXXXX8555               2111111   NYV4 A7W583174700837636N840000000001495ZGL600    01DNGREEN OTTER LLC          042803    VD84000000001495 NDR549977424386   E356292E7BTB45DD60E0B5A  000000000+                F DF 10420                     000000000  Y000000000 338   0000000000000.00 0000000.00   0000000.00                             000000000000000                                                                                                                                                     01424 G000000001495 0000000000000.23     00050 02200                  
08974970548300013DR675906759000000161968001028000000101E356292E7BTB45DD60E0B5A  Y000000001495                 P1                                                                                                                                                                                                                                                                                                                                                                                                                                                                                                                                                                                                            
08974980548300001P16759067590000001619680010280000001010000000000000000                             2000000000000000000000000              000000000000                    0000000000000000000000000                    000000000000                                                                                                                                                                                                                                                                                                                                                                                                                                                                                        
08974990548300002G2675906759000000161968001028000000101866-6317293              GA           9 D                00                                      NNNN   N                      000000000000                                                                   77424386                                                                                                                                                                                                                                                                                                                                                                                                                                               
08975000548300014DT67590675900000016196800102800000010180010224001193174900017451645062320230000002126117423000000000178281414734XXXXXX6833               2111111   NYV4 A7W383174704958589N840000000021261BVRM00    01DNGREEN OTTER LLC          08721D    VS84000000021261 NDR549977424386   1A884A3A17T3680E45AC778  000000000+                D CD 12109                     000000000  N000000000 498   0000000000000.00 0000000.00   0000000.00                             000000000000000                                                                                                                                                     01424 G000000021261 0000000000005.42     02500 01000                  
08975010548300014DR6759067590000001619680010280000001011A884A3A17T3680E45AC778  Y000000021261                 P1                                                                                                                                                                                                                                                                                                                                                                                                                                                                                                                                                                                                            
08975020548300001P16759067590000001619680010280000001010000000000000000                             2000000000000000000000000              000000000000                    0000000000000000000000000                    000000000000                                                                                                                                                                                                                                                                                                                                                                                                                                                                                        
08975030548300002G2675906759000000161968001028000000101866-6317293              GA           9 C                00                                      NNNN   Y                      000000000000                                                                   77424386                                                                                                                                                                                                                                                                                                                                                                                                                                               
08975040548300015DT67590675900000016196800102800000010680010287287283174900017451653062320230000001987017423000000000178281546249XXXXXX3885                         NY 4607AMDJG7PR480623  N840000000019870          81CNGREEN OTTER LLC          044004    MD84000000019870 NDR549977424386   7B29717540T360987DB0BFA  000000000+600450S00130    MDJ  10828                     000000000  1                0000000000000.00 0000000.00   0000000.00                             000000000000000                                                                                                                                                     01424  000000000000 0000000000000.00     00000 00000                  
08975050548300015DR6759067590000001619680010280000001067B29717540T360987DB0BFA  Y000000000000                                                                                                                                                                                                                                                                                                                                                                                                                                                                                                                                                                                                                               
08975060548300001G2675906759000000161968001028000000106866-6317293              GA           9 J               210                                      NNNN           210000000000000000000000000                                                                   77424386                                                                                                                                                                                                                                                                                                                                                                                                                                               
08975070548300016DT67590675900000016196800102800000010180010287287283174900017451679062320230000002729517423000000000178281552321XXXXXX4490       ME03KE06PT01      NY 4607AMCWE0IH490623  N840000000027295          81DNGREEN OTTER LLC          00143Z    MC84000000027295 NDR549977424386   950C6E6D5FTD6A986074308  000000000+600450S00130    MCW  00642                     000000000  N                0000000000000.00 0000000.00   0000000.00                             000000000000000                                                                                                                                                   U001424  000000000000 0000000000006.10     02200 01000                  
08975080548300016DR675906759000000161968001028000000101950C6E6D5FTD6A986074308  Y000000000000                                                                                                                                                                                                                                                                                                                                                                                                                                                                                                                                                                                                                               
08975090548300001G2675906759000000161968001028000000101866-6317293              GA           9 W               210                                      NNNN           210000000000000000000000000                        7                                          77424386                                                                                                                                                                                                                                                                                                                                                                                                                                               
08975100548300017DT67590675900000016196800102800000010180010224001193174900017451736062320230000002163817423000000000178281409970XXXXXX0240               2111111   NYV4 A7W303174743476757N840000000021638D8XS00    01DNGREEN OTTER LLC          07221D    VS84000000021638 NDR549977424386   A2D12FBA99TBA75F07271E3  000000000+                D CD 12109                     000000000  N000000000 498   0000000000000.00 0000000.00   0000000.00                             000000000000000                                                                                                                                                     01424 G000000021638 0000000000005.51     02500 01000                  
08975110548300017DR675906759000000161968001028000000101A2D12FBA99TBA75F07271E3  Y000000021638                 P1                                                                                                                                                                                                                                                                                                                                                                                                                                                                                                                                                                                                            
08975120548300001P16759067590000001619680010280000001010000000000000000                             2000000000000000000000000              000000000000                    0000000000000000000000000                    000000000000                                                                                                                                                                                                                                                                                                                                                                                                                                                                                        
08975130548300002G2675906759000000161968001028000000101866-6317293              GA           9 C                00                                      NNNN   Y                      000000000000                                                                   77424386                                                                                                                                                                                                                                                                                                                                                                                                                                               
08975140548300018DT67590675900000016196800102800000010180010287287283174900017451778062320230000001200817423000000000178281512107XXXXXX7962       ME03KE06PT01      NY 4607AMCWYGV1OC0623  N840000000012008          81DNGREEN OTTER LLC          02379P    MC84000000012008 NDR549977424386   700D1FFB0BTDFB729C9139C  000000000+600450S00130    MCW  00642                     000000000  N                0000000000000.00 0000000.00   0000000.00                             000000000000000                                                                                                                                                   U001424  000000000000 0000000000002.74     02200 01000                  
08975150548300018DR675906759000000161968001028000000101700D1FFB0BTDFB729C9139C  Y000000000000                                                                                                                                                                                                                                                                                                                                                                                                                                                                                                                                                                                                                               
08975160548300001G2675906759000000161968001028000000101866-6317293              GA           9 W               210                                      NNNN           210000000000000000000000000                        7                                          77424386                                                                                                                                                                                                                                                                                                                                                                                                                                               
08975170548300019DT67590675900000016196800102800000010180010287287283174900017451786062320230000000999817423000000000178281551257XXXXXX6586       ME03KE06MS02      NY 4607AMDSYIN2OC0623  N840000000009998          81DNGREEN OTTER LLC          618959    MD84000000009998 NDR549977424386   4B6761A168T1830E82D20BE  000000000+600450S00130    MDS  00401                     000000000  N                0000000000000.00 0000000.00   0000000.00                             000000000000000                                                                                                                                                   U001424  000000000000 0000000000001.80     01650 01500                  
08975180548300019DR6759067590000001619680010280000001014B6761A168T1830E82D20BE  Y000000000000                                                                                                                                                                                                                                                                                                                                                                                                                                                                                                                                                                                                                               
08975190548300001G2675906759000000161968001028000000101866-6317293              GA           9 S               210                                      NNNN           210000000000000000000000000                        7                                          77424386                                                                                                                                                                                                                                                                                                                                                                                                                                               
08975200548300020BH6759067590000003469480014280000090170623202317423000000000061459    0000090001060011Y8001426759C06262023006                                                                                                                                                                                                                                                                                                                                                                                                                                                                                                                                                                                              
08975210548300021DT67590675900000034694800142800000010180014273011003174900010600111062320230000006145917423000000000061459372738XXXXX7018                          NY 4 07N005416717927308N840000000061459          01DNHORIZON WHOLESALE LLC    276130    AM84000000061459 Y  549978512084                            000000000+6004S0S00130 258     11262                     000000000                   0000000000000.00 0000000.00   0000000.00                             000000000000000 61248972086759675900000034694 HORIZON WHOLESALE LLC    2559 W STATEHOOD DR      8015186233      84065     HORIZONWHOLESALE2@GMAIL.COM               01324  000000000000 0000000000012.08     01950 00000                  
08975220548300001G2675906759000000346948001428000000101BLUFFDALE                UT           0                  00                                      NNNN                          000000000000                                                                   78512084                                                                                                                                                                                                                                                                                                                                                                                                                                               
08975230548300022BH675906759000000232598001168000009017062320231742300000000001638901970000090001742335N8001166759D06262023074                                                                                                                                                                                                                                                                                                                                                                                                                                                                                                                                                                                              
08975240548300023DT67590675900000023259800116800000010680011674001193174900017423359062220230000001638917423000000000016389440393XXXXXX9791               0000000   NN94 07N000000000000000N   000000000000          01CNGFORCEHEMP844-258-9322         0197VD84000000016389 N  549977768166                            000000000+                F PF 00000                     000000000  N000000000 369   0000000000000.00 0000000.00   0000000.00             000000000016389C000000000000000                                                                                                                                                     01424  000000000000 0000000000000.00     00000 00000                  
08975250548300001G2675906759000000232598001168000000106844-2589322              CA           9 P                00                                      NNNN00 N 00                   000000000000                                                                   77768166                                                                                                                                                                                                                                                                                                                                                                                                                                               
08975260548300024BH6759067590000002338280011780000090170623202317423000000000009063    0000090001040010Y8001176759C06262023004                                                                                                                                                                                                                                                                                                                                                                                                                                                                                                                                                                                              
08975270548300025DT67590675900000023382800117800000010180011776509753174900010400100062320230000000906317423000000000009063601100XXXXXX1501   BA00                  NY 4 07N803149121732964N840000000019950    00    01DNKDISP                    02206R    DS84000000009063 NDR549977811439070                         000000000+1015104910600   DCCDI01015498307  131613000000 000000000  0          127   0000000000000.00 0000000.00   0000000.00                             000000000000000                                                                                                                                                     01424  000000000000 0000000000002.86     03050 01000                  
08975280548300025DR675906759000000233828001178000000101                         Y                                                                                                                                                                                                                                                                                                                                                                                                                                                                                                                                                                                                                                           
08975290548300001G2675906759000000233828001178000000101888-2784204              FL           0 C                00                                      NNNN                          000000000000                         00000650975601179750000477                77811439                                                                                                                                                                                                                                                                                                                                                                                                                                               
08975300548300026BH6759067590000002092580011280000090170623202317423000000000182250    0000090001430104Y8001126759C06262023043                                                                                                                                                                                                                                                                                                                                                                                                                                                                                                                                                                                              
08975310548300027DT67590675900000020925800112800000010180011276509753174900014301015062320230000006925017423000000000182250601100XXXXXX4709   BA00                  NY 4 07N873149939965018N840000000069250    00    01DNJ K DISTRIBUTION INC     02369R    DS84000000069250 NDR549977712156070                         000000000+1015104910600   DCCDI11325336350  115956000000 000000000  0          460   0000000000000.00 0000000.00   0000000.00                             000000000000000                                                                                                                                                     01424  000000000000 0000000000014.16     02030 01000                  
08975320548300027DR675906759000000209258001128000000101                         Z                                                                                                                                                                                                                                                                                                                                                                                                                                                                                                                                                                                                                                           
08975330548300001G2675906759000000209258001128000000101860-8957639              CT           9 C                00                                      NNNN                          000000000000                         00000650975601179750000428                77712156                                                                                                                                                                                                                                                                                                                                                                                                                                               
08975340548300028DT67590675900000020925800112800000010180011224001193174900014301025062320230000004350017423000000000182250440066XXXXXX7237       PS01    0000000   NYV4 07N463174621502787N840000000043500MKZC00    01DNJ K DISTRIBUTION INC     09063D    VS84000000043500 N  549977712156                            000000000+                D CD 11868                     000000000  N000000010 105   0000000000000.00 0000000.00   0000000.00                             000000000000000                                                                                                                                                     01424  000000000000 0000000000013.80     03150 01000                  
08975350548300001G2675906759000000209258001128000000101860-8957639              CT           9 C                00                                      NNNN00 Y 00                   000000000000                                                                   77712156                                                                                                                                                                                                                                                                                                                                                                                                                                               
08975360548300029DT67590675900000020925800112800000010180011287287283174900014301034062320230000004860017423000000000182250547415XXXXXX2431                         NY 4607AMEBNSPT480623  N840000000048600          81DNJ K DISTRIBUTION INC     09748J    MB84000000048600 NP1549977712156   INV001846                000000000+600450S00130    MEB  10992                     000000000  N                0000000000000.00 0000000.00   0000000.00                             000000000000000                                                                                                                                                   U001424  000000000000 0000000000010.79     02200 01000                  
08975370548300001P1675906759000000209258001128000000101                    INV001846                    000000000000000000000          1000   000000000850871923            000000000000                                                                                                                                                                                                                                                                                                                                                                                                                                                                                                                                    
08975380548300002G2675906759000000209258001128000000101860-8957639              CT           9 B               210                  850871923           YNNN           210000000000000000000000000                        7                                          77712156                                                                                                                                                                                                                                                                                                                                                                                                                                               
08975390548300030DT67590675900000020925800112800000010180011224001193174900014301041062320230000002090017423000000000182250424631XXXXXX5085       PS01EF100000000   NYV4 07N463174663391732N840000000020900MN8Z00    01DNJ K DISTRIBUTION INC     06175G    VB84000000020900 NP1549977712156   MICHAELHURFF             000000000+                G5CG511885                     000000000  N000000010 148   0000000000000.00 0000000.00   0000000.00                             000000000000000                                                                                                                                                     01424  000000000000 0000000000006.78     03150 02000                  
08975400548300001P16759067590000002092580011280000001010000000000000000    INV002118                2000000000000000000000000              000000000000                    0000000000000000000000000                    000000000000                                                                                                                                                                                                                                                                                                                                                                                                                                                                                        
08975410548300002G2675906759000000209258001128000000101203-8159817              CT           9 C                00                                      NNNN   Y                      000000000000                                                                   77712156                                                                                                                                                                                                                                                                                                                                                                                                                                               
08975420548300031BH6759067590000001982880010980000090170623202317423000000000029765    0000090001890502Y8001096759C06262023089                                                                                                                                                                                                                                                                                                                                                                                                                                                                                                                                                                                              
08975430548300032DT67590675900000019828800109800000010180010987287283174900018904932062220230000001987017423000000000029765517800XXXXXX5702       ME03KE06MS02      NY 4607AMCSBY4VLY0622  N840000000019870          81DNKETOFUSION 8885968154    022916    MC84000000019870 NDR599977547467   AB44A6943CT73E917C445C2  000000000+600450S00130    MCS  00013                     000000000  N                0000000000000.00 0000000.00   0000000.00                             000000000000000                                                                                                                                                   U001424  000000000000 0000000000003.97     01950 01000                  
08975440548300032DR675906759000000198288001098000000101AB44A6943CT73E917C445C2  Y000000000000                                                                                                                                                                                                                                                                                                                                                                                                                                                                                                                                                                                                                               
08975450548300001G2675906759000000198288001098000000101888-5968154              UT           9 S               210                                      NNNN           210000000000000000000000000                        7                                          77547467                                                                                                                                                                                                                                                                                                                                                                                                                                               
08975460548300033DT67590675900000019828800109800000010680010987287283174900018905046062320230000002487017423000000000029765526219XXXXXX0522                         NY94607N         0623  N840000000000000          81CNKETOFUSION 8885968154              MD84000000024870 N  599977547467   6420B26A56T26920D651821  000000000+600450S00130    MDS  10828                     000000000  1                0000000000000.00 0000000.00   0000000.00                             000000000000000                                                                                                                                                     01424  000000000000 0000000000000.00     00000 00000                  
08975470548300001G2675906759000000198288001098000000106888-5968154              UT           9 S               210                                      NNNN           210000000000000000000000000                        7                                          77547467                                                                                                                                                                                                                                                                                                                                                                                                                                               
08975480548300034DT67590675900000019828800109800000010680010987287283174900018905053062320230000000198817423000000000029765541071XXXXXX1039                         NY94607N         0623  N840000000000000          81CNKETOFUSION 8885968154              MC84000000001988 N  599977547467   86C9D22D00T9A8AB867D779  000000000+600450S00130    MCW  00564                     000000000  N                0000000000000.00 0000000.00   0000000.00                             000000000000000                                                                                                                                                     01424  000000000000-0000000000000.35     01750 00000                  
08975490548300001G2675906759000000198288001098000000106888-5968154              UT           9 W               210                                      NNNN           210000000000000000000000000                        7                                          77547467                                                                                                                                                                                                                                                                                                                                                                                                                                               
08975500548300035DT67590675900000019828800109800000010180010924001193174900018904972062320230000001987017423000000000029765478200XXXXXX5485               2111111   NYV4 A7W303174677207450N840000000019870Z4PB00    01DNKETOFUSION 8885968154    004814    VD84000000019870 NDR599977547467   C16B2C9150T0935FB386988  000000000+                F DF 10420                     000000000  Y000000000 338   0000000000000.00 0000000.00   0000000.00                             000000000000000                                                                                                                                                     01424 G000000019870 0000000000000.32     00050 02200                  
08975510548300035DR675906759000000198288001098000000101C16B2C9150T0935FB386988  Y000000019870                 P1                                                                                                                                                                                                                                                                                                                                                                                                                                                                                                                                                                                                            
08975520548300001P16759067590000001982880010980000001010000000000000000                             2000000000000000000000000              000000000000                    0000000000000000000000000                    000000000000                                                                                                                                                                                                                                                                                                                                                                                                                                                                                        
08975530548300002G2675906759000000198288001098000000101888-5968154              UT           9 D                00                                      NNNN   N                      000000000000                                                                   77547467                                                                                                                                                                                                                                                                                                                                                                                                                                               
08975540548300036DT67590675900000019828800109800000010180010987287283174900018905012062320230000001987017423000000000029765521333XXXXXX2187       ME03KE06MS02      NY 4607AMPLOS9J490623  N840000000019870          81DNKETOFUSION 8885968154    02379B    MC84000000019870 NDR599977547467   20A90CE25BTE98D748BB006  000000000+600450S00130    MPL  00580                     000000000  N                0000000000000.00 0000000.00   0000000.00                             000000000000000                                                                                                                                                   U001424  000000000000 0000000000004.27     02100 01000                  
08975550548300036DR67590675900000019828800109800000010120A90CE25BTE98D748BB006  Y000000000000                                                                                                                                                                                                                                                                                                                                                                                                                                                                                                                                                                                                                               
08975560548300001G2675906759000000198288001098000000101888-5968154              UT           9 L               210                                      NNNN           210000000000000000000000000                        7                                          77547467                                                                                                                                                                                                                                                                                                                                                                                                                                               
08975570548300037DT67590675900000019828800109800000010680010974001193174900018905024062320230000000298717423000000000029765444796XXXXXX9319               0000000   NYV4 07T383174842379122N840000000002987KHXC00    01CNKETOFUSION 8885968154    023952    VS84000000002987 NDR599977547467   FF969024FFT825B8DC51482  000000000+                A CA 00245                     000000000  N000000000 166   0000000000000.00 0000000.00   0000000.00                             000000000000000                                                                                                                                                     01424  000000002987-0000000000000.53     01760 00000                  
08975580548300037DR675906759000000198288001098000000106FF969024FFT825B8DC51482  U000000002987                 P1                                                                                                                                                                                                                                                                                                                                                                                                                                                                                                                                                                                                            
08975590548300001P16759067590000001982880010980000001060000000000000000                             2000000000000000000000000              000000000000                    0000000000000000000000000                    000000000000                                                                                                                                                                                                                                                                                                                                                                                                                                                                                        
08975600548300002G2675906759000000198288001098000000106888-5968154              UT           9 C                00                                      NNNN   N                      000000000000                                                                   77547467                                                                                                                                                                                                                                                                                                                                                                                                                                               
08975610548300038BH6759067590000001857280010580000090170623202317423000000000039744    0000090001060011Y8001056759C06262023106                                                                                                                                                                                                                                                                                                                                                                                                                                                                                                                                                                                              
08975620548300039DT67590675900000018572800105800000010180010524001193174900010600032062320230000000898617423000000000039744414720XXXXXX9234       VS11    0001111   NYV1 A E583174635337988N840000000008986JR7800    05DNGALLERY SMOKE SHOP LLC   05598C    VS84000000008986 N  599977453598                            000000000+                C CC 12112                     000000000  N000000000 497   0000000000000.00 0000000.00   0000000.00                             000000000000000                                                                                                                                                     01424 A000000000000 0000000000001.58     01650 01000                  
08975630548300001E167590675900000018572800105800000010100E0F8C80005 00000000000.004040404040404040404040404040404040404040404040404006021203A02002000000000000000000404040404040404040404040404040  00020840380000000080002306230B70CB4AD42EA435F5E086E8404040400840A00000000310100000000000000000008CB87DA70082000000000000000000004040405E40404040 000000089.86 000000000.005E00000000000000000000    80                                                                                                                                                                                                                                                                                                                  
08975640548300002G2675906759000000185728001058000000101SEMINOLE                 FL           5 C                00                                      NNNN00 Y 00                   000000000000                                                                   77453598                                                                                                                                                                                                                                                                                                                                                                                                                                               
08975650548300040DT67590675900000018572800105800000010680010574001193174900010600045062320230000000577717423000000000039744414720XXXXXX9234               0000000   NYV1 0 T303174662829491N840000000005777W76K00    05CNGALLERY SMOKE SHOP LLC   03287C    VS84000000005777 N  599977453598                            000000000+                C CC 00245                     000000000  N000000000 166   0000000000000.00 0000000.00   0000000.00                             000000000000000                                                                                                                                                     01424  000000000000-0000000000001.02     01760 00000                  
08975660548300001G2675906759000000185728001058000000106SEMINOLE                 FL           5 C                00                                      NNNN00 Y 00                   000000000000                                                                   77453598                                                                                                                                                                                                                                                                                                                                                                                                                                               
08975670548300041DT67590675900000018572800105800000010180010524001193174900010600057062320230000001245417423000000000039744414720XXXXXX9234       VS11    0001111   NYV1 A E463174663196111N840000000012454D3WQ00    05DNGALLERY SMOKE SHOP LLC   05597C    VS84000000012454 N  599977453598                            000000000+                C CC 12112                     000000000  N000000000 497   0000000000000.00 0000000.00   0000000.00                             000000000000000                                                                                                                                                     01424 A000000000000 0000000000002.15     01650 01000                  
08975680548300001E167590675900000018572800105800000010100E0F8C80007 00000000000.004040404040404040404040404040404040404040404040404006021203A0A002000000000000000000404040404040404040404040404040  0002084038000000008000230623BD961F121D820CF0D94F471C404040400840A0000000031010000000000000000000E833732C0082000000000000000000004040405E40404040 000000124.54 000000000.005E00000000000000000000    80                                                                                                                                                                                                                                                                                                                  
08975690548300002G2675906759000000185728001058000000101SEMINOLE                 FL           5 C                00                                      NNNN00 Y 00                   000000000000                                                                   77453598                                                                                                                                                                                                                                                                                                                                                                                                                                               
08975700548300042DT67590675900000018572800105800000010180010524001193174900010600065062320230000000120617423000000000039744453506XXXXXX5259       VK04VS111111111   NYV1 A E303174713047588N840000000001206FJ2G00    05DNGALLERY SMOKE SHOP LLC   H46092    VD84000000001206 N  599977453598                            000000000+                F DF 10439                     000000000  Y000000000 331   0000000000000.00 0000000.00   0000000.00                             000000000000000                                                                                                                                                     01424 F000000000000 0000000000000.23     00050 02200                  
08975710548300001E167590675900000018572800105800000010100E0F8C80016 00000000000.004040404040404040404040404040404040404040404040404006011203A08018000000000000000000404040404040404040404040404040  00000840180080000080002306231E3FA89E1FC0CE0CD75E9A02404040400840A000000003101000000000000000000046990BB70082000000000000000000004040405E40404040 000000012.06 000000000.005E00000000000000000000    80                                                                                                                                                                                                                                                                                                                  
08975720548300002G2675906759000000185728001058000000101SEMINOLE                 FL           5 D                00                                      NNNN00 N 00                   000000000000                                                                   77453598                                                                                                                                                                                                                                                                                                                                                                                                                                               
08975730548300043DT67590675900000018572800105800000010180010524001193174900010600099062320230000000668617423000000000039744426938XXXXXX0963       VS11    0001111   NYV1 A E303174768758061N8400000000066869KKD00    05DNGALLERY SMOKE SHOP LLC   023724    VS84000000006686 N  599977453598                            000000000+                B CB 12111                     000000000  N000000000 495   0000000000000.00 0000000.00   0000000.00                             000000000000000                                                                                                                                                     01424 A000000000000 0000000000001.20     01650 01000                  
08975740548300001E167590675900000018572800105800000010100E0F8C80013 00000000000.004040404040404040404040404040404040404040404040404006011203A08000000000000000000000404040404040404040404040404040  0001084018008000008000230623C5825EB17898090C083E493D404040400840A0000000031010000000000000000000639E56060082000000000000000000004040405E40404040 000000066.86 000000000.005E00000000000000000000    80                                                                                                                                                                                                                                                                                                                  
08975750548300002G2675906759000000185728001058000000101SEMINOLE                 FL           5 C                00                                      NNNN00 Y 00                   000000000000                                                                   77453598                                                                                                                                                                                                                                                                                                                                                                                                                                               
08975760548300044DT67590675900000018572800105800000033080010576759003174900010600011062320230000000421117423000000000039744428190XXXXXX7368                         NY 2 0 N               N840000000004211      IL  90DNGALLERY SMOKE SHOP LLC   060754    DB84000000004211 N  599977453598                            000000000+                     09576                                N          346   0000000000000.00 0000000.00   0000000.00                             000000000000000                                                                                                                                                     01424  000000000000 0000000000000.63     01150 00000                  
08975770548300001G2675906759000000185728001058000000330SEMINOLE                 FL           5 P                00                                      NNNN                          000000000000                                                                   77453598                                                                                                                                                                                                                                                                                                                                                                                                                                               
08975780548300045DT67590675900000018572800105800000033080010576759003174900010600029062320230000000377817423000000000039744443040XXXXXX0667                         NY 2 0 N               N840000000003778      IL  05DNGALLERY SMOKE SHOP LLC   390443    DB84000000003778 N  599977453598                            000000000+                     09580                                Y          342   0000000000000.00 0000000.00   0000000.00                             000000000000000                                                                                                                                                     01424  000000000000 0000000000000.24     00050 00000                  
08975790548300001G2675906759000000185728001058000000330SEMINOLE                 FL           5 D                00                                      NNNN                          000000000000                                                                   77453598                                                                                                                                                                                                                                                                                                                                                                                                                                               
08975800548300046DT67590675900000018572800105800000033080010576759003174900010600078062320230000000008017423000000000039744443041XXXXXX7318                         NY 2 0 N               N840000000000080      IL  05DNGALLERY SMOKE SHOP LLC   430823    DB84000000000080 N  599977453598                            000000000+                     09580                                Y          342   0000000000000.00 0000000.00   0000000.00                             000000000000000                                                                                                                                                     01424  000000000000 0000000000000.22     00050 00000                  
08975810548300001G2675906759000000185728001058000000330SEMINOLE                 FL           5 D                00                                      NNNN                          000000000000                                                                   77453598                                                                                                                                                                                                                                                                                                                                                                                                                                               
08975820548300047DT67590675900000018572800105800000033080010576759003174900010600086062320230000000136417423000000000039744440393XXXXXX1572                         NY 2 0 N               N840000000001364      IL  05DNGALLERY SMOKE SHOP LLC   781384    DB84000000001364 N  599977453598                            000000000+                     09576                                N          346   0000000000000.00 0000000.00   0000000.00                             000000000000000                                                                                                                                                     01424  000000000000 0000000000000.31     01150 00000                  
08975830548300001G2675906759000000185728001058000000330SEMINOLE                 FL           5 P                00                                      NNNN                          000000000000                                                                   77453598                                                                                                                                                                                                                                                                                                                                                                                                                                               
08975840548300048DT67590675900000018572800105800000033080010576759003174900010600102062320230000000175117423000000000039744443041XXXXXX7318                         NY 2 0 N               N840000000001751      IL  05DNGALLERY SMOKE SHOP LLC   455432    DB84000000001751 N  599977453598                            000000000+                     09580                                Y          342   0000000000000.00 0000000.00   0000000.00                             000000000000000                                                                                                                                                     01424  000000000000 0000000000000.23     00050 00000                  
08975850548300001G2675906759000000185728001058000000330SEMINOLE                 FL           5 D                00                                      NNNN                          000000000000                                                                   77453598                                                                                                                                                                                                                                                                                                                                                                                                                                               
08975860548300049DT67590675900000018572800105800000033080010576759003174900010600110062320230000000500517423000000000039744473702XXXXXX4572                         NY 2 0 N               N840000000005005      IL  05DNGALLERY SMOKE SHOP LLC   009201    DB84000000005005 N  599977453598                            000000000+                     09580                                Y          342   0000000000000.00 0000000.00   0000000.00                             000000000000000                                                                                                                                                     01424  000000000000 0000000000000.25     00050 00000                  
08975870548300001G2675906759000000185728001058000000330SEMINOLE                 FL           5 D                00                                      NNNN                          000000000000                                                                   77453598                                                                                                                                                                                                                                                                                                                                                                                                                                               
08975880548300050BH6759067590000003377980013880000090170623202317423000000000013168    0000090001050005Y8001386759C06262023005                                                                                                                                                                                                                                                                                                                                                                                                                                                                                                                                                                                              
08975890548300051DT67590675900000033779800138800000010180013824001193174900010500018062320230000000148817423000000000013168411776XXXXXX1935       VK04VS111111111   NYV1 A E303174576161547N8400000000014886GQ200    07DNSLOW PUFFS LLC           130801    VD84000000001488 N  599378415682                            000000000+                F DF 10439                     000000000  Y000000000 331   0000000000000.00 0000000.00   0000000.00                             000000000000000                                                                                                                                                     01424 F000000000000 0000000000000.23     00050 02200                  
08975900548300001E167590675900000033779800138800000010100E068C80565 00000000000.004040404040404040404040404040404040404040404040404006011203A00000000000000000000000404040404040404040404040404040  000008402000000000000023062377F85390457FD81CE2AA4F14404040400840A0000000031010000000000000000000404040404040404040404040404040404040404040404040 000000014.88 000000000.004040400000000000000000    80                                                                                                                                                                                                                                                                                                                  
08975910548300002G2675906759000000337798001388000000101HAMDEN                   CT           5 D                00                                      NNNN00 N 00                   000000000000                                                                   78415682                                                                                                                                                                                                                                                                                                                                                                                                                                               
08975920548300052DT67590675900000033779800138800000010180013824001193174900010500026062320230000000430517423000000000013168421755XXXXXX6795       VS11    0001111   NYV1 A E583174732403506N8400000000043059GQB00    07DNSLOW PUFFS LLC           940991    VD84000000004305 N  599378415682                            000000000+                F DF 00381                     000000000  N000000000       0000000000000.00 0000000.00   0000000.00                             000000000000000                                                                                                                                                     01424 A000000000000 0000000000000.49     00800 01500                  
08975930548300001E167590675900000033779800138800000010100E068C80150 00000000000.00404040404040404040404040404040404040404040404040401F4AFE32A00000000010030273000000004000000000000000000000000000  000008400040000000000023062331585A7ECB0B31FB2DE24FB9404040400840A000000003101000000000000000000027A3BFB5B96431CD30300000000000004040404040404040 000000043.05 000000000.004040400000000000000000    80                                                                                                                                                                                                                                                                                                                  
08975940548300002G2675906759000000337798001388000000101HAMDEN                   CT           5 D                00                                      NNNN00 N 00                   000000000000                                                                   78415682                                                                                                                                                                                                                                                                                                                                                                                                                                               
08975950548300053DT67590675900000033779800138800000010180013877287283174900010500036062320230000000451817423000000000013168517805XXXXXX5462       MS02WI09          NY 1 0 AMPL2JWP580623  N840000000004518          07DNSLOW PUFFS LLC           01965B    MC84000000004518 N  599378415682                            000000000+M10101M0034C    MPL  00353                     000000000  N                0000000000000.00 0000000.00   0000000.00                             000000000000000                                                                                                                                                   B101424  000000000000 0000000000000.91     01800 01000                  
08975960548300001E167590675900000033779800138800000010100000848000A 00000000000.00404040404040404040404040404040404040404040404040400110A04001220000000000000000000000FF00000000000000000000000000  00010840198000000080012306231A3230318974142578573E53404040400840A0000000041010000000000000000000404040404040404040404040404040404040401F40404040 000000045.18 000000000.001F03020000000000000000    80                                                                                                                                                                                                                                                                                                                  
08975970548300002G2675906759000000337798001388000000101HAMDEN                   CT           5 L                                                        NNNN              000000000000000000000000       03               7                                          78415682                                                                                                                                                                                                                                                                                                                                                                                                                                               
08975980548300054DT67590675900000033779800138800000010180013877287283174900010500044062320230000000233917423000000000013168510805XXXXXX1437       MS02WI09          NY 1 0 AMDJQ9XM490623  N840000000002339          07DNSLOW PUFFS LLC           060944    MD84000000002339 N  599378415682                            000000000+M10101M0034C    MDJ  10815                     000000000  1                0000000000000.00 0000000.00   0000000.00                             000000000000000                                                                                                                                                   B101424  000000000000 0000000000000.23     00050 02200                  
08975990548300001E1675906759000000337798001388000000101000008480209 00000000000.00404040404040404040404040404040404040404040404040400110A04001220000000000000000000000FF00000000000000000000000000  0000084019800000008001230623EE8A51169C8AC8802325F68E404040400840A0000000041010000000000000000000404040404040404040404040404040404040401F40404040 000000023.39 000000000.001F03020000000000000000    80                                                                                                                                                                                                                                                                                                                  
08976000548300002G2675906759000000337798001388000000101HAMDEN                   CT           5 J                                                        NNNN              000000000000000000000000       03               7                                          78415682                                                                                                                                                                                                                                                                                                                                                                                                                                               
08976010548300055DT67590675900000033779800138800000010180013824001193174900010500059062320230000000051817423000000000013168498503XXXXXX9508       VK04VS111111111   NYV1 A E583175059706097N840000000000518MT3P00    05DNSLOW PUFFS LLC           064801    VD84000000000518 N  599378415682                            000000000+                F DF 00451                     000000000  N000000000 214   0000000000000.00 0000000.00   0000000.00                             000000000000000                                                                                                                                                     01424 F000000000000 0000000000000.12     01550 00400                  
