02241060134450002BH6759067590000000288180088880000090170306202306523000000000112825    0000090001610022N8008886759C03072023                                                                                                                                                                                                                                                                                                                                                                                                                                                                                                                                                                                                 
02241070134450003DT67590675900000002881800888800000010180088824001193065900016100013030620230000000158006523000000000112825481852XXXXXX3515       VS11    0001111   NYV1 A E303065551347656N840000000001580SP7J00    07DNHAPPY HIPPIE             071854    VD84000000001580 N  549976487134                            000000000+                F PF 08170                     000000000  N000000000       0000000000000.00 0000000.00   0000000.00                             000000000000000                                                                                                                                                     01418 A000000000000 0000000000000.33     01150 01500                  
02241080134450004DT67590675900000002881800888800000010180088824001193065900016100021030620230000000663806523000000000112825438854XXXXXX8166       VS11    0001111   NYV1 A E383065556233201N840000000006638F3TG00    05DNHAPPY HIPPIE             01114D    VS84000000006638 N  549976487134                            000000000+                D CD 12113                     000000000  N000000000 499   0000000000000.00 0000000.00   0000000.00                             000000000000000                                                                                                                                                     01418 A000000000000 0000000000001.49     02100 01000                  
02241090134450005DT67590675900000002881800888800000010180088824001193065900016100039030620230000000266606523000000000112825423223XXXXXX1655       VS11    0001111   NYV1 A E583065557080139N840000000002666PZ8S00    05DNHAPPY HIPPIE             079379    VD84000000002666 N  549976487134                            000000000+                F DF 00381                     000000000  N000000000       0000000000000.00 0000000.00   0000000.00                             000000000000000                                                                                                                                                     01418 A000000000000 0000000000000.36     00800 01500                  
02241100134450006DT67590675900000002881800888800000010180088824001193065900016100047030620230000000395006523000000000112825459954XXXXXX4624       VS11    0001111   NYV1 A E383065588913470N840000000003950DNHF00    07DNHAPPY HIPPIE             H06158    VD84000000003950 N  549976487134                            000000000+                F DF 10433                     000000000  Y000000000 338   0000000000000.00 0000000.00   0000000.00                             000000000000000                                                                                                                                                     01418 A000000000000 0000000000000.24     00050 02200                  
02241110134450007DT67590675900000002881800888800000010180088824001193065900016100054030620230000000518506523000000000112825433419XXXXXX4929       VS11    0001111   NYV1 A E463065607219472N840000000005185B27900    05DNHAPPY HIPPIE             312721    VS84000000005185 N  549976487134                            000000000+                A CA 12110                     000000000  N000000000 493   0000000000000.00 0000000.00   0000000.00                             000000000000000                                                                                                                                                     01418 A000000000000 0000000000000.88     01510 01000                  
02241120134450008DT67590675900000002881800888800000010180088824001193065900016100062030620230000001185106523000000000112825408039XXXXXX1487       VS11    0001111   NYV1 A E383065611042061N840000000011851KJ7F00    05DNHAPPY HIPPIE             016085    VS84000000011851 N  549976487134                            000000000+                D CD 12113                     000000000  N000000000 499   0000000000000.00 0000000.00   0000000.00                             000000000000000                                                                                                                                                     01418 A000000000000 0000000000002.59     02100 01000                  
02241130134450009DT67590675900000002881800888800000010180088824001193065900016100070030620230000000197406523000000000112825413037XXXXXX7929       VS11    0001111   NYV1 A E463065620902913N840000000001974NTH900    07DNHAPPY HIPPIE             047365    VD84000000001974 N  549976487134                            000000000+                F DF 10433                     000000000  Y000000000 338   0000000000000.00 0000000.00   0000000.00                             000000000000000                                                                                                                                                     01418 A000000000000 0000000000000.23     00050 02200                  
02241140134450010DT67590675900000002881800888800000010180088877287283065900016100080030620230000000075606523000000000112825546616XXXXXX8203       MS02WI09          NY 1 0 AMCWKFQMFF0306  N840000000000756          05DNHAPPY HIPPIE             82517Z    MC84000000000756 N  549976487134                            000000000+M10101C5434C    MCW  00646                     000000000  N                0000000000000.00 0000000.00   0000000.00                             000000000000000                                                                                                                                                   B101418  000000000000 0000000000000.18     01900 00400                  
02241150134450011DT67590675900000002881800888800000010180088824001193065900016100096030620230000000768306523000000000112825414709XXXXXX5731       VS11    0001111   NYV1 A E463065638470639N840000000007683BR7T00    07DNHAPPY HIPPIE             02219D    VS84000000007683 N  549976487134                            000000000+                D CD 12113                     000000000  N000000000 499   0000000000000.00 0000000.00   0000000.00                             000000000000000                                                                                                                                                     01418 A000000000000 0000000000001.71     02100 01000                  
02241160134450012DT67590675900000002881800888800000010180088824001193065900016100104030620230000000163306523000000000112825410881XXXXXX1024       VS11    0001111   NYV1 A E583065713227576N840000000001633TTFM00    05DNHAPPY HIPPIE             913235    VD84000000001633 N  549976487134                            000000000+                F DF 00381                     000000000  N000000000       0000000000000.00 0000000.00   0000000.00                             000000000000000                                                                                                                                                     01418 A000000000000 0000000000000.28     00800 01500                  
02241170134450013DT67590675900000002881800888800000010180088824001193065900016100112030620230000000304406523000000000112825435547XXXXXX9872       VS11    0001111   NYV1 A E383065752393048N840000000003044PF2400    05DNHAPPY HIPPIE             097084    VD84000000003044 N  549976487134                            000000000+                F DF 10433                     000000000  Y000000000 338   0000000000000.00 0000000.00   0000000.00                             000000000000000                                                                                                                                                     01418 A000000000000 0000000000000.24     00050 02200                  
02241180134450014DT67590675900000002881800888800000010180088877287283065900016100122030620230000000610606523000000000112825537993XXXXXX2557       MS02WI09          NY 1 0 AMPLW61KHL0306  N840000000006106          05DNHAPPY HIPPIE             00650B    MC84000000006106 N  549976487134                            000000000+M10101C5434C    MPL  00364                     000000000  N                0000000000000.00 0000000.00   0000000.00                             000000000000000                                                                                                                                                   B101418  000000000000 0000000000001.14     01800 00400                  
02241190134450015DT67590675900000002881800888800000010180088824001193065900016100138030620230000000088806523000000000112825422921XXXXXX2909       VK04VS111111111   NYV1 A E383065774719971N840000000000888PFC900    05DNHAPPY HIPPIE             059473    VD84000000000888 N  549976487134                            000000000+                F DF 00451                     000000000  N000000000 214   0000000000000.00 0000000.00   0000000.00                             000000000000000                                                                                                                                                     01418 F000000000000 0000000000000.18     01550 00400                  
02241200134450016DT67590675900000002881800888800000010180088824001193065900016100146030620230000001317006523000000000112825443238XXXXXX5023       VS11    0001111   NYV1 A E463065781767980N840000000013170JPMP00    05DNHAPPY HIPPIE             064256    VD84000000013170 N  549976487134                            000000000+                F DF 00381                     000000000  N000000000       0000000000000.00 0000000.00   0000000.00                             000000000000000                                                                                                                                                     01418 A000000000000 0000000000001.20     00800 01500                  
02241210134450017DT67590675900000002881800888800000010180088824001193065900016100153030620230000000987506523000000000112825450265XXXXXX7470       VS11    0001111   NYV1 A E383065782421389N840000000009875TRQZ00    05DNHAPPY HIPPIE             600735    VD84000000009875 N  549976487134                            000000000+                F DF 00381                     000000000  N000000000       0000000000000.00 0000000.00   0000000.00                             000000000000000                                                                                                                                                     01418 A000000000000 0000000000000.94     00800 01500                  
02241220134450018DT67590675900000002881800888800000010180088824001193065900016100161030620230000000098706523000000000112825434769XXXXXX9124       VK04VS111111111   NYV1 A E463065782924102N840000000000987Q3VS00    05DNHAPPY HIPPIE             024416    VD84000000000987 N  549976487134                            000000000+                F DF 10439                     000000000  Y000000000 331   0000000000000.00 0000000.00   0000000.00                             000000000000000                                                                                                                                                     01418 F000000000000 0000000000000.22     00050 02200                  
02241230134450019DT67590675900000002881800888800000010180088876509753065900016100177030620230000000474006523000000000112825601100XXXXXX8123   BA50                  NY41 0 N803055909217886N840000000004740    00    05DNHAPPY HIPPIE             00698R    DS84000000004740 N  549976487134050                         000000000+0000004910H00   DCCDI01000001444  150201000000 000000000  0          112   0000000000000.00 0000000.00   0000000.00                             000000000000000                                                                                                                                                     01418  000000000000 0000000000000.92     01720 01000                  
02241240134450020DT67590675900000002881800888800000010180088824001193065900016100187030620230000000493806523000000000112825449507XXXXXX6597       VS11    0001111   NYV1 A E583065799735511N840000000004938738L00    05DNHAPPY HIPPIE             071253    VD84000000004938 N  549976487134                            000000000+                F DF 00381                     000000000  N000000000       0000000000000.00 0000000.00   0000000.00                             000000000000000                                                                                                                                                     01418 A000000000000 0000000000000.55     00800 01500                  
02241250134450021DT67590675900000002881800888800000010180088824001193065900016100195030620230000000493806523000000000112825422921XXXXXX7159       VS11    0001111   NYV1 A E383065802172138N8400000000049382C2200    05DNHAPPY HIPPIE             062219    VD84000000004938 N  549976487134                            000000000+                F DF 00381                     000000000  N000000000       0000000000000.00 0000000.00   0000000.00                             000000000000000                                                                                                                                                     01418 A000000000000 0000000000000.55     00800 01500                  
02241260134450022DT67590675900000002881800888800000010180088877287283065900016100205030620230000000883306523000000000112825514377XXXXXX0825       MS02WI09          NY 1 0 AMDJVGPIU30306  N840000000008833          07DNHAPPY HIPPIE             165ZYR    MD84000000008833 N  549976487134                            000000000+M10101M5434C    MDJ  00402                     000000000  N                0000000000000.00 0000000.00   0000000.00                             000000000000000                                                                                                                                                   B101418  000000000000 0000000000001.08     01050 01500                  
02241270134450023DT67590675900000002881800888800000010180088824001193065900016100211030620230000000250106523000000000112825491523XXXXXX7823       VS11    0001111   NYV1 A E463065807090468N8400000000025012LNF00    07DNHAPPY HIPPIE             002994    VD84000000002501 N  549976487134                            000000000+                F DF 10433                     000000000  Y000000000 338   0000000000000.00 0000000.00   0000000.00                             000000000000000                                                                                                                                                     01418 A000000000000 0000000000000.23     00050 02200                  
02241280134450024DT67590675900000002881800888800000010180088824001193065900016100229030620230000000888906523000000000112825473965XXXXXX8289       VS11    0001111   NYV1 A E303065813222214N840000000008889WF9F00    05DNHAPPY HIPPIE             073522    VD84000000008889 N  549976487134                            000000000+                G DG 08704                     000000000  N000000000       0000000000000.00 0000000.00   0000000.00                             000000000000000                                                                                                                                                     01418 A000000000000 0000000000001.61     01700 01000                  
02241290134450025BH6759067590000000288180088880000090170306202306523000000000114522    0000090001620018N8008886759C03072023                                                                                                                                                                                                                                                                                                                                                                                                                                                                                                                                                                                                 
02241300134450026DT67590675900000002881800888800000010180088877287283065900016200013030620230000000493806523000000000114522515676XXXXXX9094       ME03MS02WI09      NY 1 0 AMWEMI7OFF0306  N840000000004938          01DNHAPPY HIPPIE             09686Z    MC84000000004938 N  549976487158                            000000000+M1010115434C    MWE  00738                     000000000  N                0000000000000.00 0000000.00   0000000.00                             000000000000000                                                                                                                                                   E101418  000000000000 0000000000001.38     02600 01000                  
02241310134450027DT67590675900000002881800888800000010180088824001193065900016200029030620230000000295006523000000000114522445101XXXXXX2081       VS11    0001111   NYV1 A E303065594673853N840000000002950MZRQ00    05DNHAPPY HIPPIE             852933    VD84000000002950 N  549976487158                            000000000+                F DF 10433                     000000000  Y000000000 338   0000000000000.00 0000000.00   0000000.00                             000000000000000                                                                                                                                                     01418 A000000000000 0000000000000.23     00050 02200                  
02241320134450028DT67590675900000002881800888800000010180088824001193065900016200037030620230000001677606523000000000114522419090XXXXXX4359       VS11    0001111   NYV1 A E383065639210252N840000000016776JRBN00    05DNHAPPY HIPPIE             154132    VD84000000016776 N  549976487158                            000000000+                F DF 00381                     000000000  N000000000       0000000000000.00 0000000.00   0000000.00                             000000000000000                                                                                                                                                     01418 A000000000000 0000000000001.49     00800 01500                  
02241330134450029DT67590675900000002881800888800000010180088877287283065900016200047030620230000000987606523000000000114522517805XXXXXX0214       MS02WI09          NY 1 0 AMCWJDNZSY0306  N840000000009876          05DNHAPPY HIPPIE             06861P    MC84000000009876 N  549976487158                            000000000+M10101C5434C    MCW  00646                     000000000  N                0000000000000.00 0000000.00   0000000.00                             000000000000000                                                                                                                                                   B101418  000000000000 0000000000001.92     01900 00400                  
02241340134450030DT67590675900000002881800888800000010180088877287283065900016200054030620230000000730706523000000000114522527854XXXXXX5924       MS02WI09          NY 1 0 AMWEBA9UHM0306  N840000000007307          05DNHAPPY HIPPIE             21600Z    MC84000000007307 N  549976487158                            000000000+M10101C5434C    MWE  00743                     000000000  N                0000000000000.00 0000000.00   0000000.00                             000000000000000                                                                                                                                                   B101418  000000000000 0000000000001.72     02300 00400                  
02241350134450031DT67590675900000002881800888800000010180088877287283065900016200062030620230000001185106523000000000114522546630XXXXXX9919       MS02WI09          NY 1 0 AMWEC7PKSY0306  N840000000011851          05DNHAPPY HIPPIE             09969P    MC84000000011851 N  549976487158                            000000000+M10101C5434C    MWE  00743                     000000000  N                0000000000000.00 0000000.00   0000000.00                             000000000000000                                                                                                                                                   B101418  000000000000 0000000000002.77     02300 00400                  
02241360134450032DT67590675900000002881800888800000010180088877287283065900016200070030620230000000128306523000000000114522511953XXXXXX1769       MS02WI09          NY 1 0 AMDJT7AEHL0306  N840000000001283          05DNHAPPY HIPPIE             056652    MD84000000001283 N  549976487158                            000000000+M10101C5434C    MDJ  00505                     000000000  N                0000000000000.00 0000000.00   0000000.00                             000000000000000                                                                                                                                                   B101418  000000000000 0000000000000.24     01550 00400                  
02241370134450033DT67590675900000002881800888800000010180088877287283065900016200088030620230000000296106523000000000114522544927XXXXXX7907       MS02WI09          NY 2 0 AMDJIFAWSQ0306  N840000000002961          05DNHAPPY HIPPIE             H34689    MD84000000002961 N  549976487158                            000000000+M10101C1334C    MDJ  10815                     000000000  1                0000000000000.00 0000000.00   0000000.00                             000000000000000                                                                                                                                                   B101418  000000000000 0000000000000.23     00050 02200                  
02241380134450034DT67590675900000002881800888800000010180088877287283065900016200096030620230000000700606523000000000114522544927XXXXXX9805       MS02WI09          NY 2 0 AMDJKQBDSY0306  N840000000007006          05DNHAPPY HIPPIE             H39420    MD84000000007006 N  549976487158                            000000000+M10101C1334C    MDJ  10815                     000000000  1                0000000000000.00 0000000.00   0000000.00                             000000000000000                                                                                                                                                   B101418  000000000000 0000000000000.26     00050 02200                  
02241390134450035DT67590675900000002881800888800000010180088824001193065900016200102030620230000000353906523000000000114522443238XXXXXX6040       VS11    0001111   NYV1 A E463065699337515N840000000003539XNBS00    05DNHAPPY HIPPIE             042533    VD84000000003539 N  549976487158                            000000000+                F DF 00381                     000000000  N000000000       0000000000000.00 0000000.00   0000000.00                             000000000000000                                                                                                                                                     01418 A000000000000 0000000000000.43     00800 01500                  
02241400134450036DT67590675900000002881800888800000010180088824001193065900016200110030620230000000740606523000000000114522435546XXXXXX8931       VS11    0001111   NYV1 A E463065703006510N84000000000740646FX00    05DNHAPPY HIPPIE             116115    VD84000000007406 N  549976487158                            000000000+                F DF 10433                     000000000  Y000000000 338   0000000000000.00 0000000.00   0000000.00                             000000000000000                                                                                                                                                     01418 A000000000000 0000000000000.26     00050 02200                  
02241410134450037DT67590675900000002881800888800000010180088824001193065900016200128030620230000000740606523000000000114522429413XXXXXX3038       VS11    0001111   NYV1 A E303065704285988N840000000007406PVWL00    05DNHAPPY HIPPIE             054660    VD84000000007406 N  549976487158                            000000000+                F DF 00381                     000000000  N000000000       0000000000000.00 0000000.00   0000000.00                             000000000000000                                                                                                                                                     01418 A000000000000 0000000000000.74     00800 01500                  
02241420134450038DT67590675900000002881800888800000010180088877287283065900016200138030620230000000167706523000000000114522528072XXXXXX9544       MS02WI09          NY 1 0 AMCWLGWDSY0306  N840000000001677          05DNHAPPY HIPPIE             04804Z    MC84000000001677 N  549976487158                            000000000+M10101C5434C    MCW  00646                     000000000  N                0000000000000.00 0000000.00   0000000.00                             000000000000000                                                                                                                                                   B101418  000000000000 0000000000000.36     01900 00400                  
02241430134450039DT67590675900000002881800888800000010180088824001193065900016200144030620230000000329306523000000000114522410881XXXXXX1024       VS11    0001111   NYV1 A E303065717457941N840000000003293CN2800    05DNHAPPY HIPPIE             925175    VD84000000003293 N  549976487158                            000000000+                F DF 00381                     000000000  N000000000       0000000000000.00 0000000.00   0000000.00                             000000000000000                                                                                                                                                     01418 A000000000000 0000000000000.41     00800 01500                  
02241440134450040DT67590675900000002881800888800000010180088824001193065900016200151030620230000000691306523000000000114522422921XXXXXX2163       VS11    0001111   NYV1 A E303065730342218N840000000006913ZXWZ00    05DNHAPPY HIPPIE             055036    VD84000000006913 N  549976487158                            000000000+                F DF 00381                     000000000  N000000000       0000000000000.00 0000000.00   0000000.00                             000000000000000                                                                                                                                                     01418 A000000000000 0000000000000.70     00800 01500                  
02241450134450041DT67590675900000002881800888800000010180088824001193065900016200169030620230000000987806523000000000114522480639XXXXXX6940       VS11    0001111   NYV1 A E383065738043733N840000000009878W68R00    05DNHAPPY HIPPIE             651964    VD84000000009878 N  549976487158                            000000000+                F DF 00381                     000000000  N000000000       0000000000000.00 0000000.00   0000000.00                             000000000000000                                                                                                                                                     01418 A000000000000 0000000000000.94     00800 01500                  
02241460134450042DT67590675900000002881800888800000010180088824001193065900016200177030620230000000699406523000000000114522419090XXXXXX0995       VS11    0001111   NYV1 A E383065742116043N840000000006994FKR800    05DNHAPPY HIPPIE             159980    VD84000000006994 N  549976487158                            000000000+                F DF 00381                     000000000  N000000000       0000000000000.00 0000000.00   0000000.00                             000000000000000                                                                                                                                                     01418 A000000000000 0000000000000.71     00800 01500                  
02241470134450043DT67590675900000002881800888800000010180088824001193065900016200185030620230000000246806523000000000114522441776XXXXXX9544       VS11    0001111   NYV1 A E383065789252364N8400000000024683C5H00    07DNHAPPY HIPPIE             162657    VD84000000002468 N  549976487158                            000000000+                F DF 00381                     000000000  N000000000       0000000000000.00 0000000.00   0000000.00                             000000000000000                                                                                                                                                     01418 A000000000000 0000000000000.35     00800 01500                  
02241480134450044BH6759067590000000215480088880000090170306202306523000000001552832    0000090001268041N8008886759C03072023                                                                                                                                                                                                                                                                                                                                                                                                                                                                                                                                                                                                 
02241490134450045DT67590675900000002154800888800000010180088824001193065900012601204030620230000004017006523000000001552832474165XXXXXX8767               2111111   NYV4 A7W583065810141218N840000000040170V65600    01DNDRIP DROP DISTRO LLC     074614    VD84000000040170 NP1519971004114   17512                    000000000+                G DG 10352                     000000000  Y000000000 338   0000000000000.00 0000000.00   0000000.00                             000000000000000                                                                                                                                                     01418 G000000040170 0000000000000.42     00050 02200                  
02241500134450001P16759067590000000215480088880000001010000000000000000    43980254331              2000000000000000000000000              000000000000                    0000000000000000000000000                    000000000000                                                                                                                                                                                                                                                                                                                                                                                                                                                                                        
02241510134450046DT67590675900000002154800888800000010180088873011003065900012662889030620230000009760006523000000001552832376746XXXXX1002                          NY 4 07N004577384134303N840000000097600          01DNDRIP DROP DISTRO LLC     290951    AM84000000097600 N  519971004114                            000000000+6004S0S00140 258     11244                     000000000                   0000000000000.00 0000000.00   0000000.00                             000000000000000 61248972736759675900000002154 DRIP DROP DISTRO LLC     1445 W COMMERCE AVE SUITE2087248209      83705     TROY@DRIPDROPDISTRO.COM                   01418  000000000000 0000000000018.64     01900 00000                  
02241520134450047DT67590675900000002154800888800000010180088824001193065900012663923030620230000003888006523000000001552832426930XXXXXX0531               2111111   NYV4 A7W303065571971287N840000000038880T7NP00    01DNDRIP DROP DISTRO LLC     09535G    VB84000000038880 NP1519971004114   INV-001026               000000000+                G5CG511887                     000000000  N000000000 163   0000000000000.00 0000000.00   0000000.00                             000000000000000                                                                                                                                                     01418 G000000038880 0000000000011.76     03000 01000                  
02241530134450001P16759067590000000215480088880000001010000000000000000    43979221015              2000000000000000000000000              000000000000                    0000000000000000000000000                    000000000000                                                                                                                                                                                                                                                                                                                                                                                                                                                                                        
02241540134450048DT67590675900000002154800888800000010180088824001193065900012636929030620230000003296006523000000001552832481588XXXXXX6773               2111111   NYV4 A7W463065660248594N8400000000329607F5S00    01DNDRIP DROP DISTRO LLC     142501    VD84000000032960 NP1519971004114   17509                    000000000+                G DG 10352                     000000000  Y000000000 338   0000000000000.00 0000000.00   0000000.00                             000000000000000                                                                                                                                                     01418 G000000032960 0000000000000.38     00050 02200                  
02241550134450001P16759067590000000215480088880000001010000000000000000    43979612581              2000000000000000000000000              000000000000                    0000000000000000000000000                    000000000000                                                                                                                                                                                                                                                                                                                                                                                                                                                                                        
02241560134450049DT67590675900000002154800888800000010180088873011003065900012662111030620230000010520006523000000001552832376746XXXXX1002                          NY 4 07N004577339289301N840000000105200          01DNDRIP DROP DISTRO LLC     298491    AM84000000105200 N  519971004114                            000000000+6004S0S00140 258     11244                     000000000                   0000000000000.00 0000000.00   0000000.00                             000000000000000 61248972736759675900000002154 DRIP DROP DISTRO LLC     1445 W COMMERCE AVE SUITE2087248209      83705     TROY@DRIPDROPDISTRO.COM                   01418  000000000000 0000000000020.09     01900 00000                  
02241570134450050DT67590675900000002154800888800000010180088887287283065900012672396030620230000017242206523000000001552832547415XXXXXX7571                         NY 4607AMEBF3HASY0306  N840000000172422          81DNDRIP DROP DISTRO LLC     03401Q    MB84000000172422 NP1519900000001   17510                    000000000+600450S00140    MEB  11637                     000000000  N                0000000000000.00 0000000.00   0000000.00                             000000000000000                                                                                                                                                   U001418  000000000000 0000000000051.83     03000 01000                  
02241580134450001P1675906759000000021548008888000000101                                                          000000000000          8000            471534935                                                                                                                                                                                                                                                                                                                                                                                                                                                                                                                                                            
02241590134450051DT67590675900000002154800888800000010180088824001193065900012680414030620230000106560006523000000001552832446542XXXXXX3824               2111111   NYV4 A7W583065769960291N840000001065600XHV200    01DNDRIP DROP DISTRO LLC     006753    VS84000001065600 NP1519971004114   INV-001001               000000000+                D CD 12109                     000000000  N000000000 498   0000000000000.00 0000000.00   0000000.00                             000000000000000                                                                                                                                                     01418 G000001065600 0000000000266.50     02500 01000                  
02241600134450001P16759067590000000215480088880000001010000000000000000                             2000000000000000000000000              000000000000                    0000000000000000000000000                    000000000000                                                                                                                                                                                                                                                                                                                                                                                                                                                                                        
02241610134450052BH6759067590000000561180088880000090170306202306523000000000019784    0000090001237620N8008886759C03072023                                                                                                                                                                                                                                                                                                                                                                                                                                                                                                                                                                                                 
02241620134450053DT67590675900000005611800888800000010180088824001193065900012349622030620230000000338906523000000000019784400022XXXXXX2689               2111111   NYV4 A7W463065148331744N840000000003389SRVF00    01DNK DIVINE 503-689-7182    831114    VD84000000003389 NP1549971004114   5267                     000000000+                F DF 10420                     000000000  Y000000000 338   0000000000000.00 0000000.00   0000000.00                             000000000000000                                                                                                                                                     01418 G000000003389 0000000000000.24     00050 02200                  
02241630134450001P16759067590000000561180088880000001010000000000000000                             2000000000000000000000000              000000000000                    0000000000000000000000000                    000000000000                                                                                                                                                                                                                                                                                                                                                                                                                                                                                        
02241640134450054DT67590675900000005611800888800000010180088824001193065900012376203030620230000001639506523000000000019784438857XXXXXX6480               2111111   NYV4 A7W583065674778119N840000000016395FG3R00    01DNK DIVINE 503-689-7182    03136D    VS84000000016395 NP1549971004114   5271                     000000000+                D CD 12109                     000000000  N000000000 498   0000000000000.00 0000000.00   0000000.00                             000000000000000                                                                                                                                                     01418 G000000016395 0000000000004.20     02500 01000                  
02241650134450001P16759067590000000561180088880000001010000000000000000                             2000000000000000000000000              000000000000                    0000000000000000000000000                    000000000000                                                                                                                                                                                                                                                                                                                                                                                                                                                                                        
02241660134450055BH6759067590000000570280088880000090170306202306523000000001203372    0000090001113955N8008886759C03072023                                                                                                                                                                                                                                                                                                                                                                                                                                                                                                                                                                                                 
02241670134450056DT67590675900000005702800888800000010180088824001193065900011104648030620230000000399906523000000001203372480209XXXXXX8483               2111111   NYV4 A7W303065511349468N8400000000039994PKQ00    01DNPSILOMART                014730    VD84000000003999 NP1549971004114   RVP1TTTNAVAXVKDWORXF     000000000+                G DG 10352                     000000000  Y000000000 338   0000000000000.00 0000000.00   0000000.00                             000000000000000                                                                                                                                                     01418 G000000003999 0000000000000.24     00050 02200                  
02241680134450001P16759067590000000570280088880000001010000000000000000    64239029602              2000000000000000000000000              000000000000                    0000000000000000000000000                    000000000000                                                                                                                                                                                                                                                                                                                                                                                                                                                                                        
02241690134450057DT67590675900000005702800888800000010180088824001193065900011126526030620230000000639906523000000001203372443264XXXXXX8878               2111111   NYV4 A7W583065024538745N840000000006399W4DM00    01DNPSILOMART                023859    VD84000000006399 NP1549971004114   RKIB3EB4H3AJVOMU9DFK     000000000+                F DF 10420                     000000000  Y000000000 338   0000000000000.00 0000000.00   0000000.00                             000000000000000                                                                                                                                                     01418 G000000006399 0000000000000.25     00050 02200                  
02241700134450001P16759067590000000570280088880000001010000000000000000                             2000000000000000000000000              000000000000                    0000000000000000000000000                    000000000000                                                                                                                                                                                                                                                                                                                                                                                                                                                                                        
02241710134450058DT67590675900000005702800888800000010180088877287283065900011142772030620230000000399906523000000001203372516693XXXXXX2863       ME03KE06MS02      NY 4607AMDSEBJ2HL0305  N840000000003999          81DNPSILOMART                004599    MD84000000003999 N  549900000001   rFyJh2nAmjK1pnImQETp     000000000+600450S00140    MDS  00401                     000000000  N                0000000000000.00 0000000.00   0000000.00                             000000000000000                                                                                                                                                   U001418  000000000000 0000000000000.81     01650 01500                  
02241720134450059DT67590675900000005702800888800000010180088824001193065900011189896030620230000000399906523000000001203372415976XXXXXX7188               2111111   NYV4 A7W583065709980451N840000000003999QD7F00    01DNPSILOMART                023701    VD84000000003999 NP1549971004114   R1IDMPGDXGGADHONSZKT     000000000+                F DF 10420                     000000000  Y000000000 338   0000000000000.00 0000000.00   0000000.00                             000000000000000                                                                                                                                                     01418 G000000003999 0000000000000.24     00050 02200                  
02241730134450001P16759067590000000570280088880000001010000000000000000                             2000000000000000000000000              000000000000                    0000000000000000000000000                    000000000000                                                                                                                                                                                                                                                                                                                                                                                                                                                                                        
02241740134450060DT67590675900000005702800888800000010180088824001193065900011132763030620230000001299006523000000001203372438857XXXXXX7642               2111111   NYV4 A7W303065055054665N840000000012990CPTM00    01DNPSILOMART                04352D    VS84000000012990 NP1549971004114   RUDTKBWXPLF7MIN9DOK8     000000000+                D CD 12109                     000000000  N000000000 498   0000000000000.00 0000000.00   0000000.00                             000000000000000                                                                                                                                                     01418 G000000012990 0000000000003.35     02500 01000                  
02241750134450001P16759067590000000570280088880000001010000000000000000                             2000000000000000000000000              000000000000                    0000000000000000000000000                    000000000000                                                                                                                                                                                                                                                                                                                                                                                                                                                                                        
02241760134450061DT67590675900000005702800888800000010180088824001193065900011115206030620230000000759806523000000001203372474475XXXXXX4034               2111111   NYV4 A7W583065540960247N840000000007598C9DF00    01DNPSILOMART                130916    VD84000000007598 NP1549971004114   RDB0FQAD1CKW4TR8D3UP     000000000+                F DF 10420                     000000000  Y000000000 338   0000000000000.00 0000000.00   0000000.00                             000000000000000                                                                                                                                                     01418 G000000007598 0000000000000.26     00050 02200                  
02241770134450001P16759067590000000570280088880000001010000000000000000                             2000000000000000000000000              000000000000                    0000000000000000000000000                    000000000000                                                                                                                                                                                                                                                                                                                                                                                                                                                                                        
02241780134450062DT67590675900000005702800888800000010180088877287283065900011158331030620230000075000006523000000001203372534860XXXXXX7708                         NY 4607AMDBFDF0SQ0306  N840000000750000          81DNPSILOMART                143149    MD84000000750000 NP1549900000001   rqvr4l2wDYFEwz9Jcxlk     000000000+600450S00140    MDB  10786                     000000000  1                0000000000000.00 0000000.00   0000000.00                             000000000000000                                                                                                                                                   U001418  000000000000 0000000000003.97     00050 02200                  
02241790134450001P1675906759000000057028008888000000101                                                          000000000000          8000            881060599                                                                                                                                                                                                                                                                                                                                                                                                                                                                                                                                                            
02241800134450063DT67590675900000005702800888800000010180088877287283065900011165898030620230000000599806523000000001203372542418XXXXXX9825       ME03KE06MS02      NY 4607AMPLX2BQQU0306  N840000000005998          81DNPSILOMART                16549B    MC84000000005998 N  549900000001   rIZ2luSEJ6geoGkxOmR9     000000000+600450S00140    MPL  00580                     000000000  N                0000000000000.00 0000000.00   0000000.00                             000000000000000                                                                                                                                                   U001418  000000000000 0000000000001.36     02100 01000                  
02241810134450064DT67590675900000005702800888800000010180088824001193065900011143380030620230000028300006523000000001203372427535XXXXXX3912               2111111   NYV4 A7W583065849528612N840000000283000586N00    01DNPSILOMART                627513    VD84000000283000 NP1549971004114   RXTRPYXXLDKISH56YHKW     000000000+                G DG 10352                     000000000  Y000000000 338   0000000000000.00 0000000.00   0000000.00                             000000000000000                                                                                                                                                     01418 G000000283000 0000000000001.64     00050 02200                  
02241820134450001P16759067590000000570280088880000001010000000000000000    64240206397              2000000000000000000000000              000000000000                    0000000000000000000000000                    000000000000                                                                                                                                                                                                                                                                                                                                                                                                                                                                                        
02241830134450065DT67590675900000005702800888800000010180088877287283065900011119465030620230000000529806523000000001203372517805XXXXXX5981       ME03KE06MS02      NY 4607AMWEOR3C3B0305  N840000000005298          81DNPSILOMART                02325P    MC84000000005298 N  549900000001   r8rM0d7y69msZgxy90cw     000000000+600450S00140    MWE  00737                     000000000  N                0000000000000.00 0000000.00   0000000.00                             000000000000000                                                                                                                                                   U001418  000000000000 0000000000001.48     02600 01000                  
02241840134450066DT67590675900000005702800888800000010180088824001193065900011128761030620230000000719806523000000001203372498503XXXXXX6670               2111111   NYV4 A7W383065041648003N840000000007198NTHS00    01DNPSILOMART                032678    VD84000000007198 NP1549971004114   R7FJ6THGV4I6NAGENWXD     000000000+                F DF 00415                     000000000  N000000000       0000000000000.00 0000000.00   0000000.00                             000000000000000                                                                                                                                                     01418 G000000007198 0000000000001.34     01650 01500                  
02241850134450001P16759067590000000570280088880000001010000000000000000                             2000000000000000000000000              000000000000                    0000000000000000000000000                    000000000000                                                                                                                                                                                                                                                                                                                                                                                                                                                                                        
02241860134450067DT67590675900000005702800888800000010180088824001193065900011142804030620230000000569806523000000001203372473702XXXXXX9162               2111111   NYV4 A7W383065124011774N840000000005698BHGQ00    01DNPSILOMART                025679    VD84000000005698 NP1549971004114   RIH4ZM9O1DNYSW73CD1S     000000000+                F DF 10420                     000000000  Y000000000 338   0000000000000.00 0000000.00   0000000.00                             000000000000000                                                                                                                                                     01418 G000000005698 0000000000000.25     00050 02200                  
02241870134450001P16759067590000000570280088880000001010000000000000000                             2000000000000000000000000              000000000000                    0000000000000000000000000                    000000000000                                                                                                                                                                                                                                                                                                                                                                                                                                                                                        
02241880134450068DT67590675900000005702800888800000010180088824001193065900011151011030620230000000350006523000000001203372483313XXXXXX3127               2111111   NYV4 A7W303065153314525N840000000003500QX6G00    01DNPSILOMART                021523    VD84000000003500 NP1549971004114   RHMQSRGQWYIEMAFG7F5E     000000000+                F DF 10420                     000000000  Y000000000 338   0000000000000.00 0000000.00   0000000.00                             000000000000000                                                                                                                                                     01418 G000000003500 0000000000000.24     00050 02200                  
02241890134450001P16759067590000000570280088880000001010000000000000000                             2000000000000000000000000              000000000000                    0000000000000000000000000                    000000000000                                                                                                                                                                                                                                                                                                                                                                                                                                                                                        
02241900134450069DT67590675900000005702800888800000010180088877287283065900011162887030620230000000600006523000000001203372542418XXXXXX8166       ME03KE06PT01      NY 4607AMCW1J37GP0306  N840000000006000          81DNPSILOMART                61677P    MC84000000006000 N  549900000001   ru4JT7yf7gQQZCe89DB1     000000000+600450S00140    MCW  00642                     000000000  N                0000000000000.00 0000000.00   0000000.00                             000000000000000                                                                                                                                                   U001418  000000000000 0000000000001.42     02200 01000                  
02241910134450070DT67590675900000005702800888800000010180088824001193065900011166621030620230000000263806523000000001203372474481XXXXXX6529               2111111   NYV4 A7W383065284918030N840000000002638JW2D00    01DNPSILOMART                155048    VD84000000002638 NP1549971004114   RV6KOBBAYDSAMBL19MXA     000000000+                F DF 10420                     000000000  Y000000000 338   0000000000000.00 0000000.00   0000000.00                             000000000000000                                                                                                                                                     01418 G000000002638 0000000000000.23     00050 02200                  
02241920134450001P16759067590000000570280088880000001010000000000000000                             2000000000000000000000000              000000000000                    0000000000000000000000000                    000000000000                                                                                                                                                                                                                                                                                                                                                                                                                                                                                        
02241930134450071DT67590675900000005702800888800000010180088877287283065900011171235030620230000002900006523000000001203372514377XXXXXX9494       ME03KE06MS02      NY 4607AMDJ07WM5I0306  N840000000029000          81DNPSILOMART                11NKWZ    MD84000000029000 N  549900000001   rMc2d2OW7QGv06rN3mXc     000000000+600450S00140    MDJ  00401                     000000000  N                0000000000000.00 0000000.00   0000000.00                             000000000000000                                                                                                                                                   U001418  000000000000 0000000000004.94     01650 01500                  
02241940134450072DT67590675900000005702800888800000010180088877287283065900011176788030620230000000329906523000000001203372542418XXXXXX0428       ME03KE06MS02      NY 4607AMPLUE6I4W0306  N840000000003299          81DNPSILOMART                60511B    MC84000000003299 N  549900000001   r4jwa4oo1v5bPJaf5KtL     000000000+600450S00140    MPL  00580                     000000000  N                0000000000000.00 0000000.00   0000000.00                             000000000000000                                                                                                                                                   U001418  000000000000 0000000000000.79     02100 01000                  
02241950134450073DT67590675900000005702800888800000010180088824001193065900011108896030620230000000367706523000000001203372434769XXXXXX3111               2111111   NYV4 A7W383065522758991N840000000003677WQ2H00    01DNPSILOMART                053109    VD84000000003677 NP1549971004114   R8YN9LBEVBVCNMPBBXRZ     000000000+                F DF 10420                     000000000  Y000000000 338   0000000000000.00 0000000.00   0000000.00                             000000000000000                                                                                                                                                     01418 G000000003677 0000000000000.24     00050 02200                  
02241960134450001P16759067590000000570280088880000001010000000000000000                             2000000000000000000000000              000000000000                    0000000000000000000000000                    000000000000                                                                                                                                                                                                                                                                                                                                                                                                                                                                                        
02241970134450074DT67590675900000005702800888800000010180088877287283065900011147839030620230000001799506523000000001203372525363XXXXXX8035       ME03KE06MS02      NY 4607AMWEFNXRQR0306  N840000000017995          81DNPSILOMART                80230Z    MC84000000017995 N  549900000001   rG9jJXqqKWaMXUpcYjIv     000000000+600450S00140    MWE  00737                     000000000  N                0000000000000.00 0000000.00   0000000.00                             000000000000000                                                                                                                                                   U001418  000000000000 0000000000004.78     02600 01000                  
02241980134450075DT67590675900000005702800888800000010180088824001193065900011170458030620230000000535606523000000001203372478200XXXXXX1346               2111111   NYV4 A7W383065654051894N840000000005356RQKJ00    01DNPSILOMART                051013    VD84000000005356 NP1549971004114   RS6ZOGERVTIDULW65R7W     000000000+                F DF 10420                     000000000  Y000000000 338   0000000000000.00 0000000.00   0000000.00                             000000000000000                                                                                                                                                     01418 G000000005356 0000000000000.25     00050 02200                  
02241990134450001P16759067590000000570280088880000001010000000000000000                             2000000000000000000000000              000000000000                    0000000000000000000000000                    000000000000                                                                                                                                                                                                                                                                                                                                                                                                                                                                                        
02242000134450076DT67590675900000005702800888800000010180088824001193065900011182214030620230000000639806523000000001203372426684XXXXXX4875               2111111   NYV4 A7W303065690075763N840000000006398PKN600    01DNPSILOMART                00228D    VS84000000006398 NP1549971004114   RIYXXDVL92NUXRNVM6HX     000000000+                D CD 12109                     000000000  N000000000 498   0000000000000.00 0000000.00   0000000.00                             000000000000000                                                                                                                                                     01418 G000000006398 0000000000001.70     02500 01000                  
02242010134450001P16759067590000000570280088880000001010000000000000000                             2000000000000000000000000              000000000000                    0000000000000000000000000                    000000000000                                                                                                                                                                                                                                                                                                                                                                                                                                                                                        
02242020134450077DT67590675900000005702800888800000010180088824001193065900011108839030620230000000583706523000000001203372411395XXXXXX8148               2111111   NYV4 A7W383065736867589N840000000005837SJS800    01DNPSILOMART                032806    VD84000000005837 NP1549971004114   RHI2HCEB9N81ICSEVDYE     000000000+                F DF 00415                     000000000  N000000000       0000000000000.00 0000000.00   0000000.00                             000000000000000                                                                                                                                                     01418 G000000005837 0000000000001.11     01650 01500                  
02242030134450001P16759067590000000570280088880000001010000000000000000                             2000000000000000000000000              000000000000                    0000000000000000000000000                    000000000000                                                                                                                                                                                                                                                                                                                                                                                                                                                                                        
02242040134450078DT67590675900000005702800888800000010180088824001193065900011144495030620230000000720006523000000001203372406095XXXXXX8370               2111111   NYV4 A7W383065133500768N8400000000072005Z8L00    01DNPSILOMART                06921D    VS84000000007200 NP1549971004114   RLZIHEAHZMIZQ1V3BUZG     000000000+                D CD 12109                     000000000  N000000000 498   0000000000000.00 0000000.00   0000000.00                             000000000000000                                                                                                                                                     01418 G000000007200 0000000000001.90     02500 01000                  
02242050134450001P16759067590000000570280088880000001010000000000000000                             2000000000000000000000000              000000000000                    0000000000000000000000000                    000000000000                                                                                                                                                                                                                                                                                                                                                                                                                                                                                        
02242060134450079DT67590675900000005702800888800000010180088824001193065900011162661030620230000000230006523000000001203372480011XXXXXX9527               2111111   NYV4 A7W463065633616740N840000000002300VP8M00    01DNPSILOMART                01498A    VS84000000002300 NP1549971004114   RVVYSFZNA7XAFYIXWQ9E     000000000+                A CA 12106                     000000000  N000000000 492   0000000000000.00 0000000.00   0000000.00                             000000000000000                                                                                                                                                     01418 G000000002300 0000000000000.53     01890 01000                  
02242070134450001P16759067590000000570280088880000001010000000000000000                             2000000000000000000000000              000000000000                    0000000000000000000000000                    000000000000                                                                                                                                                                                                                                                                                                                                                                                                                                                                                        
02242080134450080DT67590675900000005702800888800000010680088874001193065900011100047030620230000000329906523000000001203372440393XXXXXX7683               0000000   NY94 07N000000000000000N   000000000000          01CNPSILOMART                          VD84000000003299 N  549971004114                            000000000+                F PF 08168                     000000000  N000000000 369   0000000000000.00 0000000.00   0000000.00                             000000000000000                                                                                                                                                     01418  000000000000 0000000000000.00     00000 00000                  
02242090134450081DT67590675900000005702800888800000010180088824001193065900011170631030620230000000999706523000000001203372474476XXXXXX3909               2111111   NYV4 A7W463065654669274N840000000009997GTN400    01DNPSILOMART                141316    VD84000000009997 NP1549971004114   RBCS2BPSLWLISWZWJG8E     000000000+                F DF 10420                     000000000  Y000000000 338   0000000000000.00 0000000.00   0000000.00                             000000000000000                                                                                                                                                     01418 G000000009997 0000000000000.27     00050 02200                  
02242100134450001P16759067590000000570280088880000001010000000000000000                             2000000000000000000000000              000000000000                    0000000000000000000000000                    000000000000                                                                                                                                                                                                                                                                                                                                                                                                                                                                                        
02242110134450082DT67590675900000005702800888800000010180088877287283065900011196083030620230000000329906523000000001203372510805XXXXXX2771       ME03KE06MS02      NY 4607AMDJC6OOHM0306  N840000000003299          81DNPSILOMART                034607    MD84000000003299 N  549900000001   rUH0irL0lz1V1KaDas9O     000000000+600450S00140    MDJ  10813                     000000000  1                0000000000000.00 0000000.00   0000000.00                             000000000000000                                                                                                                                                   U001418  000000000000 0000000000000.24     00050 02200                  
02242120134450083DT67590675900000005702800888800000010180088824001193065900011139552030620230000000399906523000000001203372480213XXXXXX0176               2111111   NYV4 A7W463065826945840N8400000000039994VRT00    01DNPSILOMART                044266    VB84000000003999 NP1549971004114   R8IGLEBOAUFHTGYIJRWR     000000000+                G CG 00690                     000000000  N000000000 231   0000000000000.00 0000000.00   0000000.00                             000000000000000                                                                                                                                                     01418 G000000003999 0000000000001.16     02650 01000                  
02242130134450001P16759067590000000570280088880000001010000000000000000    64240146484              2000000000000000000000000              000000000000                    0000000000000000000000000                    000000000000                                                                                                                                                                                                                                                                                                                                                                                                                                                                                        
02242140134450084BH6759067590000001266680088880000090170306202306523000000000900000    0000090001023552N8008886759C03072023                                                                                                                                                                                                                                                                                                                                                                                                                                                                                                                                                                                                 
02242150134450085DT67590675900000012666800888800000010180088824001193065900010211998030620230000005000006523000000000900000414740XXXXXX5245               1001111   NYV4 A1V383063022978303N840000000050000SWXV00    01DNB AND L VENTURES         04531D    VS84000000050000 NDR829971004114   43975624781              000000000+                D CD 12367                     000000000  N000000000 624   0000000000000.00 0000000.00   0000000.00                             000000000000000                                                                                                                                                     01418 7000000050000 0000000000011.35     02250 01000                  
02242160134450085DR67590675900000012666800888800000010143975624781              Y000000050000                 P1                                                                                                                                                                                                                                                                                                                                                                                                                                                                                                                                                                                                            
02242170134450001P16759067590000001266680088880000001010000000000000000                             2000000000000000000000000              000000000000                    0000000000000000000000000                    000000000000                                                                                                                                                                                                                                                                                                                                                                                                                                                                                        
02242180134450086DT67590675900000012666800888800000010180088873011003065900010235522030620230000085000006523000000000900000379569XXXXX3003                          NY 4 01N004541741381304N840000000850000          01DNB&L VENTURES             125588    AM84000000850000 N  829971004114                            000000000+600320600140 258     11533                     000000000                   0000000000000.00 0000000.00   0000000.00                             000000000000000 61248973236759675900000012666 B&L VENTURES             3430 E FLAMINGO RD STE 328014044287      89121     SUPPORT@BANDLVENTURES.COM                 01418  000000000000 0000000000144.60     01700 00000                  
02242190134450087BH6759067590000000833480010180000090170306202306523000000000177215    0000090001260041N8001016759C03072023                                                                                                                                                                                                                                                                                                                                                                                                                                                                                                                                                                                                 
02242200134450088DT67590675900000008334800101800000010180010124001193065900012600016030620230000000227306523000000000177215466189XXXXXX1969       VS11    0001111   NYV1 A E383065529002035N840000000002273NK5400    07DNPLANET VAPOR #400        097644    VD84000000002273 N  599976779447                            000000000+                F DF 10433                     000000000  Y000000000 338   0000000000000.00 0000000.00   0000000.00                             000000000000000                                                                                                                                                     01418 A000000000000 0000000000000.23     00050 02200                  
02242210134450089DT67590675900000008334800101800000010180010124001193065900012600024030620230000000545606523000000000177215465998XXXXXX5343       VS11    0001111   NYV1 A E303065539855344N840000000005456C83700    05DNPLANET VAPOR #400        006421    VS84000000005456 N  599976779447                            000000000+                B CB 12111                     000000000  N000000000 495   0000000000000.00 0000000.00   0000000.00                             000000000000000                                                                                                                                                     01418 A000000000000 0000000000001.00     01650 01000                  
02242220134450090DT67590675900000008334800101800000010180010124001193065900012600032030620230000000188706523000000000177215466189XXXXXX0145       VS11    0001111   NYV1 A E383065555486303N840000000001887GWSJ00    07DNPLANET VAPOR #400        058580    VD84000000001887 N  599976779447                            000000000+                F DF 10433                     000000000  Y000000000 338   0000000000000.00 0000000.00   0000000.00                             000000000000000                                                                                                                                                     01418 A000000000000 0000000000000.23     00050 02200                  
02242230134450091DT67590675900000008334800101800000010180010124001193065900012600040030620230000000235306523000000000177215440886XXXXXX0473       VS11    0001111   NYV1 A E583065563117265N840000000002353294H00    05DNPLANET VAPOR #400        967590    VS84000000002353 N  599976779447                            000000000+                B CB 12111                     000000000  N000000000 495   0000000000000.00 0000000.00   0000000.00                             000000000000000                                                                                                                                                     01418 A000000000000 0000000000000.49     01650 01000                  
02242240134450092DT67590675900000008334800101800000010180010177287283065900012600059030620230000000454506523000000000177215545443XXXXXX3592       MS02WI09          NY 1 0 AMDJJI9VQR0306  N840000000004545          05DNPLANET VAPOR #400        004607    MD84000000004545 N  599976779447                            000000000+M10101C5434C    MDJ  00402                     000000000  N                0000000000000.00 0000000.00   0000000.00                             000000000000000                                                                                                                                                   B101418  000000000000 0000000000000.63     01050 01500                  
02242250134450093DT67590675900000008334800101800000010180010124001193065900012600065030620230000000374306523000000000177215402347XXXXXX7104       VS11    0001111   NYV1 A E303065579530613N840000000003743M6Q500    05DNPLANET VAPOR #400        090554    VD84000000003743 N  599976779447                            000000000+                F DF 10433                     000000000  Y000000000 338   0000000000000.00 0000000.00   0000000.00                             000000000000000                                                                                                                                                     01418 A000000000000 0000000000000.24     00050 02200                  
02242260134450094DT67590675900000008334800101800000010180010177287283065900012600075030620230000000320806523000000000177215529099XXXXXX3071       MS02WI09          NY 1 0 AMDJE01TQR0306  N840000000003208          05DNPLANET VAPOR #400        635679    MD84000000003208 N  599976779447                            000000000+M10101C5434C    MDJ  10815                     000000000  1                0000000000000.00 0000000.00   0000000.00                             000000000000000                                                                                                                                                   B101418  000000000000 0000000000000.24     00050 02200                  
02242270134450095DT67590675900000008334800101800000010180010124001193065900012600081030620230000000135306523000000000177215438419XXXXXX6941       VK04VS111111111   NYV1 A E583065600180588N840000000001353GQX400    07DNPLANET VAPOR #400        014018    VD84000000001353 N  599976779447                            000000000+                F DF 00451                     000000000  N000000000 214   0000000000000.00 0000000.00   0000000.00                             000000000000000                                                                                                                                                     01418 F000000000000 0000000000000.25     01550 00400                  
02242280134450096DT67590675900000008334800101800000010180010177287283065900012600091030620230000000235306523000000000177215527519XXXXXX1614       MS02WI09          NY 1 0 AMDJFV9ZQR0306  N840000000002353          05DNPLANET VAPOR #400        144459    MD84000000002353 N  599976779447                            000000000+M10101C5434C    MDJ  10815                     000000000  1                0000000000000.00 0000000.00   0000000.00                             000000000000000                                                                                                                                                   B101418  000000000000 0000000000000.23     00050 02200                  
02242290134450097DT67590675900000008334800101800000010180010124001193065900012600107030620230000000481206523000000000177215446542XXXXXX6336       VS11    0001111   NYV1 A E303065617858453N840000000004812JTFP00    05DNPLANET VAPOR #400        006811    VS84000000004812 N  599976779447                            000000000+                D CD 12113                     000000000  N000000000 499   0000000000000.00 0000000.00   0000000.00                             000000000000000                                                                                                                                                     01418 A000000000000 0000000000001.11     02100 01000                  
02242300134450098DT67590675900000008334800101800000010180010124001193065900012600115030620230000000235306523000000000177215483312XXXXXX1635       VS11    0001111   NYV1 A E383065625165491N840000000002353KBHX00    05DNPLANET VAPOR #400        062112    VD84000000002353 N  599976779447                            000000000+                F DF 10433                     000000000  Y000000000 338   0000000000000.00 0000000.00   0000000.00                             000000000000000                                                                                                                                                     01418 A000000000000 0000000000000.23     00050 02200                  
02242310134450099DT67590675900000008334800101800000010180010124001193065900012600123030620230000000256606523000000000177215430602XXXXXX8189       VS11    0001111   NYV1 A E463065627002527N840000000002566GW8900    07DNPLANET VAPOR #400        747244    VD84000000002566 N  599976779447                            000000000+                F DF 00381                     000000000  N000000000       0000000000000.00 0000000.00   0000000.00                             000000000000000                                                                                                                                                     01418 A000000000000 0000000000000.36     00800 01500                  
02242320134450100DT67590675900000008334800101800000010180010177287283065900012600133030620230000000167306523000000000177215531258XXXXXX1859       MS02WI09          NY 1 0 AMDJPMRBFF0306  N840000000001673          05DNPLANET VAPOR #400        142496    MD84000000001673 N  599976779447                            000000000+M10101C5434C    MDJ  10815                     000000000  1                0000000000000.00 0000000.00   0000000.00                             000000000000000                                                                                                                                                   B101418  000000000000 0000000000000.23     00050 02200                  
02242330134450101DT67590675900000008334800101800000010180010124001193065900012600149030620230000000058906523000000000177215440393XXXXXX5374       VK04VS111111111   NYV1 A E383065652271940N8400000000005893T8H00    05DNPLANET VAPOR #400        082191    VD84000000000589 N  599976779447                            000000000+                F PF 08165                     000000000  N000000000       0000000000000.00 0000000.00   0000000.00                             000000000000000                                                                                                                                                     01418 F000000000000 0000000000000.14     01600 00500                  
02242340134450102DT67590675900000008334800101800000010180010124001193065900012600156030620230000000171106523000000000177215433477XXXXXX2574       VS11    0001111   NYV1 A E303065653020169N8400000000017115CQH00    05DNPLANET VAPOR #400        895130    VD84000000001711 N  599976779447                            000000000+                F DF 10433                     000000000  Y000000000 338   0000000000000.00 0000000.00   0000000.00                             000000000000000                                                                                                                                                     01418 A000000000000 0000000000000.23     00050 02200                  
02242350134450103DT67590675900000008334800101800000010180010124001193065900012600164030620230000000111406523000000000177215498503XXXXXX5581       VK04VS111111111   NYV1 A E583065668330481N8400000000011145TTK00    05DNPLANET VAPOR #400        024331    VD84000000001114 N  599976779447                            000000000+                F DF 00451                     000000000  N000000000 214   0000000000000.00 0000000.00   0000000.00                             000000000000000                                                                                                                                                     01418 F000000000000 0000000000000.21     01550 00400                  
02242360134450104DT67590675900000008334800101800000010180010124001193065900012600172030620230000000449206523000000000177215430602XXXXXX9992       VS11    0001111   NYV1 A E303065675984455N8400000000044922XBC00    05DNPLANET VAPOR #400        759160    VD84000000004492 N  599976779447                            000000000+                F DF 00381                     000000000  N000000000       0000000000000.00 0000000.00   0000000.00                             000000000000000                                                                                                                                                     01418 A000000000000 0000000000000.51     00800 01500                  
02242370134450105DT67590675900000008334800101800000010180010124001193065900012600180030620230000000323406523000000000177215430602XXXXXX9506       VS11    0001111   NYV1 A E383065695280671N84000000000323486H600    05DNPLANET VAPOR #400        763867    VD84000000003234 N  599976779447                            000000000+                F DF 00381                     000000000  N000000000       0000000000000.00 0000000.00   0000000.00                             000000000000000                                                                                                                                                     01418 A000000000000 0000000000000.41     00800 01500                  
02242380134450106DT67590675900000008334800101800000010180010124001193065900012600198030620230000000424106523000000000177215473703XXXXXX6514       VS11    0001111   NYV1 A E583065708169321N84000000000424158ST00    05DNPLANET VAPOR #400        044345    VD84000000004241 N  599976779447                            000000000+                F DF 10433                     000000000  Y000000000 338   0000000000000.00 0000000.00   0000000.00                             000000000000000                                                                                                                                                     01418 A000000000000 0000000000000.24     00050 02200                  
02242390134450107DT67590675900000008334800101800000010180010124001193065900012600206030620230000001005406523000000000177215430602XXXXXX6504       VS11    0001111   NYV1 A E383065718422032N840000000010054XF4900    05DNPLANET VAPOR #400        769425    VD84000000010054 N  599976779447                            000000000+                F DF 00381                     000000000  N000000000       0000000000000.00 0000000.00   0000000.00                             000000000000000                                                                                                                                                     01418 A000000000000 0000000000000.95     00800 01500                  
02242400134450108DT67590675900000008334800101800000010180010124001193065900012600214030620230000000240506523000000000177215440393XXXXXX4543       VS11    0001111   NYV1 A E303065722430495N8400000000024054B4S00    05DNPLANET VAPOR #400        138259    VD84000000002405 N  599976779447                            000000000+                F PF 08170                     000000000  N000000000       0000000000000.00 0000000.00   0000000.00                             000000000000000                                                                                                                                                     01418 A000000000000 0000000000000.43     01150 01500                  
02242410134450109DT67590675900000008334800101800000010180010177287283065900012600224030620230000000595106523000000000177215552433XXXXXX8514       MS02WI09          NY 1 0 AMPLDUGAHM0306  N840000000005951          05DNPLANET VAPOR #400        05422M    MC84000000005951 N  599976779447                            000000000+M10101C5434C    MPL  00353                     000000000  N                0000000000000.00 0000000.00   0000000.00                             000000000000000                                                                                                                                                   B101418  000000000000 0000000000001.17     01800 01000                  
02242420134450110DT67590675900000008334800101800000010180010124001193065900012600230030620230000000144306523000000000177215440393XXXXXX3717       VK04VS111111111   NYV1 A E303065726968024N8400000000014439PLZ00    05DNPLANET VAPOR #400        909087    VD84000000001443 N  599976779447                            000000000+                F PF 08165                     000000000  N000000000       0000000000000.00 0000000.00   0000000.00                             000000000000000                                                                                                                                                     01418 F000000000000 0000000000000.28     01600 00500                  
02242430134450111DT67590675900000008334800101800000010180010124001193065900012600248030620230000000235306523000000000177215486796XXXXXX6370       VS11    0001111   NYV1 A E383065735458196N8400000000023533BSZ00    07DNPLANET VAPOR #400        062515    VD84000000002353 N  599976779447                            000000000+                F DF 10433                     000000000  Y000000000 338   0000000000000.00 0000000.00   0000000.00                             000000000000000                                                                                                                                                     01418 A000000000000 0000000000000.23     00050 02200                  
02242440134450112DT67590675900000008334800101800000010180010124001193065900012600255030620230000001251206523000000000177215445256XXXXXX7033       VS11    0001111   NYV1 A E583065737309824N840000000012512V29C00    05DNPLANET VAPOR #400        682877    VD84000000012512 N  599976779447                            000000000+                F DF 00381                     000000000  N000000000       0000000000000.00 0000000.00   0000000.00                             000000000000000                                                                                                                                                     01418 A000000000000 0000000000001.15     00800 01500                  
02242450134450113DT67590675900000008334800101800000010180010124001193065900012600263030620230000003059206523000000000177215426684XXXXXX3307       VS11    0001111   NYV1 A E583065757264478N840000000030592SLTJ00    05DNPLANET VAPOR #400        06207B    VS84000000030592 N  599976779447                            000000000+                B CB 12111                     000000000  N000000000 495   0000000000000.00 0000000.00   0000000.00                             000000000000000                                                                                                                                                     01418 A000000000000 0000000000005.15     01650 01000                  
02242460134450114DT67590675900000008334800101800000010180010124001193065900012600271030620230000000462006523000000000177215453506XXXXXX3610       VS11    0001111   NYV1 A E383065758619845N8400000000046205C3N00    05DNPLANET VAPOR #400        H55096    VD84000000004620 N  599976779447                            000000000+                F DF 10433                     000000000  Y000000000 338   0000000000000.00 0000000.00   0000000.00                             000000000000000                                                                                                                                                     01418 A000000000000 0000000000000.24     00050 02200                  
02242470134450115DT67590675900000008334800101800000010180010177287283065900012600281030620230000000502706523000000000177215530680XXXXXX0498       MS02WI09          NY 1 0 AMPANDQ6SY0306  N840000000005027          90DNPLANET VAPOR #400        000011    MD84000000005027 N  599976779447                            000000000+M10101B5434C    MPA  11964                     000000000  N                0000000000000.00 0000000.00   0000000.00                             000000000000000                                                                                                                                                   C101418  000000000000 0000000000000.73     01150 01500                  
