02193750619635442AD675906759000000151648008888000009071900011715820000000654803262023NYY08523ND6759800888032820232023083021920                                                                                                                                                                                                                                                                                                                                                                                                                                                                                                                                                                                              
02193760619635445AD675906759000000151648008888000009071900011715810000001987003262023NYY08523ND6759800888032820232023083021921                                                                                                                                                                                                                                                                                                                                                                                                                                                                                                                                                                                              
02193770619635448AD675906759000000151648008888000009071900011511300000001687503262023NYY08523ND6759800888032820232023083021922                                                                                                                                                                                                                                                                                                                                                                                                                                                                                                                                                                                              
02193780619635451AD675906759000000133008001028000009071900010500070000001619003262023NYY08523ND6759800102032820232023083021923                                                                                                                                                                                                                                                                                                                                                                                                                                                                                                                                                                                              
02193790619635454AD675906759000000151648008888000009077900011409270000001394803262023NYY08523YC6759800888032820232023083021925                                                                                                                                                                                                                                                                                                                                                                                                                                                                                                                                                                                              
02193800619635457AD675906759000000142748001028000009071900012418820000002487003262023NYY08523ND6759800102032820232023083021924                                                                                                                                                                                                                                                                                                                                                                                                                                                                                                                                                                                              
02193810619635460AD675906759000000151648008888000009071900010901820000001987003262023NYY08523ND6759800888032820232023083021926                                                                                                                                                                                                                                                                                                                                                                                                                                                                                                                                                                                              
02193820619635463AD675906759000000151648008888000009071900010901830000000654803262023NYY08523ND6759800888032820232023083021927                                                                                                                                                                                                                                                                                                                                                                                                                                                                                                                                                                                              
02193830619635466AD675906759000000151648008888000009071900010901840000000519003262023NYY08523ND6759800888032820232023083021928                                                                                                                                                                                                                                                                                                                                                                                                                                                                                                                                                                                              
02193840619635469AD675906759000000151648008888000009071900011104680000000519003262023NYY08523ND6759800888032820232023083027250                                                                                                                                                                                                                                                                                                                                                                                                                                                                                                                                                                                              
02193850619635472AD675906759000000151648008888000009071900011104660000002487003262023NYY08523ND6759800888032820232023083027476                                                                                                                                                                                                                                                                                                                                                                                                                                                                                                                                                                                              
02193860619635475AD675906759000000151648008888000009071900011104670000000654803262023NYY08523ND6759800888032820232023083027477                                                                                                                                                                                                                                                                                                                                                                                                                                                                                                                                                                                              
02193870619635478AD675906759000000151648008888000009071900011718010000001987003262023NYY08523ND6759800888032820232023083027527                                                                                                                                                                                                                                                                                                                                                                                                                                                                                                                                                                                              
02193880619973144AD675906759000000142748001028000009078123456789100000021763203272023NYY08623ND675980010203282023                                                                                                                                                                                                                                                                                                                                                                                                                                                                                                                                                                                                           
02193890621211033BH6759067590000001982880010980000090170327202308623000000000008141    0000090001060963N8001096759D03282023                                                                                                                                                                                                                                                                                                                                                                                                                                                                                                                                                                                                 
02193900621211034DT67590675900000019828800109800000010180010987287283086900010609577032420230000000029908623000000000008141534786XXXXXX5517                         YY 4607AMCOOSICX50324  N840000000000299          81DNKETOFUSION 8885968154    FKJQPK    MB84000000000299 NP1599977547467   79BA81AD03T4FBD5210C697  000000000+600450S00130    MCO  00303                     000000000  N                0000000000000.00 0000000.00   0000000.00                             000000000000000                                                                                                                                                   U0015WPE 000000000000 0000000000000.18     02700 01000                  
02193910621210001P1675906759000000198288001098000000101                                                          000000000000          8000            884295529                                                                                                                                                                                                                                                                                                                                                                                                                                                                                                                                                            
02193920621211035DT67590675900000019828800109800000010180010924001193086900010609584032420230000000029908623000000000008141404038XXXXXX7665               2111111   YYV4 A7W583084052340853N840000000000299QRJ200    01DNKETOFUSION 8885968154    ZJARZV    VD84000000000299 NP1599977547467   DE3B4143FETDD88890FFB9F  000000000+                S PS 10179                     000000000  N000000000 364   0000000000000.00 0000000.00   0000000.00                             000000000000000                                                                                                                                                     015WPEG000000000299 0000000000000.18     02650 01000                  
02193930621210001P16759067590000001982880010980000001010000000000000000                             2000000000000000000000000              000000000000                    0000000000000000000000000                    000000000000                                                                                                                                                                                                                                                                                                                                                                                                                                                                                        
02193940621211036DT67590675900000019828800109800000010180010924001193086900010609592032420230000000029908623000000000008141408544XXXXXX7079               2111111   YYV4 A7W303084052836466N840000000000299RWN700    01DNKETOFUSION 8885968154    459546    VB84000000000299 NP1599977547467   45D9DD4556T2D4224BDAEF6  000000000+                K CK 00691                     000000000  N000000000 234   0000000000000.00 0000000.00   0000000.00                             000000000000000                                                                                                                                                     015WPEG000000000299 0000000000000.18     02700 01000                  
02193950621210001P16759067590000001982880010980000001010000000000000000                             2000000000000000000000000              000000000000                    0000000000000000000000000                    000000000000                                                                                                                                                                                                                                                                                                                                                                                                                                                                                        
02193960621211037DT67590675900000019828800109800000010180010924001193086900010609600032420230000000029908623000000000008141441112XXXXXX1183               2111111   YYV4 A7W383084075071058N840000000000299XFKJ00    01DNKETOFUSION 8885968154    K3JAV0    VD84000000000299 NP1599977547467   4DE3E91D6AT59A3F1451C12  000000000+                S PS 10179                     000000000  N000000000 364   0000000000000.00 0000000.00   0000000.00                             000000000000000                                                                                                                                                     015WPEG000000000299 0000000000000.18     02650 01000                  
02193970621210001P16759067590000001982880010980000001010000000000000000                             2000000000000000000000000              000000000000                    0000000000000000000000000                    000000000000                                                                                                                                                                                                                                                                                                                                                                                                                                                                                        
02193980621211038DT67590675900000019828800109800000010180010924001193086900010609618032420230000000029908623000000000008141433451XXXXXX3893               2111111   YYV4 A7W303084075787431N840000000000299HCXG00    01DNKETOFUSION 8885968154    WK61MJ    VD84000000000299 NP1599977547467   BA55193421T8156CF9E92F4  000000000+                S PS 10179                     000000000  N000000000 364   0000000000000.00 0000000.00   0000000.00                             000000000000000                                                                                                                                                     015WPEG000000000299 0000000000000.18     02650 01000                  
02193990621210001P16759067590000001982880010980000001010000000000000000                             2000000000000000000000000              000000000000                    0000000000000000000000000                    000000000000                                                                                                                                                                                                                                                                                                                                                                                                                                                                                        
02194000621211039DT67590675900000019828800109800000010180010924001193086900010609626032420230000000029908623000000000008141433451XXXXXX8603               2111111   YYV4 A7W303084099109365N8400000000002995JP200    01DNKETOFUSION 8885968154    3OPEUW    VD84000000000299 NP1599977547467   8400928D62T11F90F0A7EC9  000000000+                S PS 10179                     000000000  N000000000 364   0000000000000.00 0000000.00   0000000.00                             000000000000000                                                                                                                                                     015WPEG000000000299 0000000000000.18     02650 01000                  
02194010621210001P16759067590000001982880010980000001010000000000000000                             2000000000000000000000000              000000000000                    0000000000000000000000000                    000000000000                                                                                                                                                                                                                                                                                                                                                                                                                                                                                        
02194020621211040DT67590675900000019828800109800000010680010974001193086900010609639032520230000000993508623000000000008141403784XXXXXX1654               0000000   YYV4 07T463084686963963N840000000009935N3W400    01CNKETOFUSION 8885968154    415240    VS84000000009935 NP1599977547467   E60E07E91ATC3F6E0021B56  000000000+                A CA 00245                     000000000  N000000000 166   0000000000000.00 0000000.00   0000000.00                             000000000000000                                                                                                                                                     015WPE 000000009935-0000000000001.75     01760 00000                  
02194030621210001P16759067590000001982880010980000001060000000000000000                             2000000000000000000000000              000000000000                    0000000000000000000000000                    000000000000                                                                                                                                                                                                                                                                                                                                                                                                                                                                                        
02194040621211043BH6759067590000001982880010980000090170327202308623000000000022667    0000090001070966N8001096759D03282023                                                                                                                                                                                                                                                                                                                                                                                                                                                                                                                                                                                                 
02194050621211044DT67590675900000019828800109800000010680010976509753086900010709648032520230000000327408623000000000022667601101XXXXXX2277   BA00                  YY 4 07N743072586937827N840000000003274    00    01CNKETOFUSION 8885968154    02650B    DZ84000000003274 N  599977547467070                         000000000+1015104910600   DMCDI01024500341  231813200000 000000000  0          136   0000000000000.00 0000000.00   0000000.00                             000000000000000                                                                                                                                                     015WPE 000000000000-0000000000000.74     02250 00000                  
02194060621211045DT67590675900000019828800109800000010680010976509753086900010709655032520230000000259508623000000000022667601101XXXXXX2277   BA00                  YY 4 07N873072587156980N840000000002595    00    01CNKETOFUSION 8885968154    02602B    DZ84000000002595 N  599977547467070                         000000000+1015104910600   DMCDI01024168457  231835200000 000000000  0          136   0000000000000.00 0000000.00   0000000.00                             000000000000000                                                                                                                                                     015WPE 000000000000-0000000000000.58     02250 00000                  
02194070621211046DT67590675900000019828800109800000010680010974001193086900010709660032620230000001679808623000000000022667414776XXXXXX5184               0000000   YYV4 07T303085548958094N840000000016798MP3R00    01CNKETOFUSION 8885968154    016241    VS84000000016798 NP1599977547467   C1764AAB67TFF5A2A343620  000000000+                A CA 00245                     000000000  N000000000 166   0000000000000.00 0000000.00   0000000.00                             000000000000000                                                                                                                                                     015WPE 000000016798-0000000000002.96     01760 00000                  
02194080621210001P16759067590000001982880010980000001060000000000000000                             2000000000000000000000000              000000000000                    0000000000000000000000000                    000000000000                                                                                                                                                                                                                                                                                                                                                                                                                                                                                        
02194090622120002BH6759067590000000215480088880000090170327202308623000000000370230    0000090001441279N8008886759C03282023                                                                                                                                                                                                                                                                                                                                                                                                                                                                                                                                                                                                 
02194100622120003DT67590675900000002154800888800000010180088824001193086900014456214032720230000014240008623000000000370230414734XXXXXX5386               2111111   NYV4 A7W583086518190379N840000000142400VGMQ00    01DNDRIP DROP DISTRO LLC     09812B    VS84000000142400 NP1519971004114   INV-001318               000000000+                B CB 12107                     000000000  N000000000 494   0000000000000.00 0000000.00   0000000.00                             000000000000000                                                                                                                                                     01418 G000000142400 0000000000029.15     02040 01000                  
02194110622120001P16759067590000000215480088880000001010000000000000000                             2000000000000000000000000              000000000000                    0000000000000000000000000                    000000000000                                                                                                                                                                                                                                                                                                                                                                                                                                                                                        
02194120622120004DT67590675900000002154800888800000010180088824001193086900014468292032720230000001890008623000000000370230424631XXXXXX1220               2111111   NYV4 A7W383086540806268N840000000018900ZSLL00    01DNDRIP DROP DISTRO LLC     03613G    VB84000000018900 NP1519971004114   17601                    000000000+                G5CG511887                     000000000  N000000000 163   0000000000000.00 0000000.00   0000000.00                             000000000000000                                                                                                                                                     01418 G000000018900 0000000000005.77     03000 01000                  
02194130622120001P16759067590000000215480088880000001010000000000000000    44023337403              2000000000000000000000000              000000000000                    0000000000000000000000000                    000000000000                                                                                                                                                                                                                                                                                                                                                                                                                                                                                        
02194140622120005DT67590675900000002154800888800000010180088873011003086900014453431032720230000010368008623000000000370230371583XXXXX3005                          NY 4 07N007368323261069N840000000103680          01DNDRIP DROP DISTRO LLC     264225    AM84000000103680 N  519971004114                            000000000+6004S0S00140 258     11244                     000000000                   0000000000000.00 0000000.00   0000000.00                             000000000000000 61248972736759675900000002154 DRIP DROP DISTRO LLC     1445 W COMMERCE AVE SUITE2087248209      83705     TROY@DRIPDROPDISTRO.COM                   01418  000000000000 0000000000019.80     01900 00000                  
02194150622120006DT67590675900000002154800888800000010180088824001193086900014492250032720230000006250008623000000000370230424631XXXXXX5557               2111111   NYV4 A7W463086585512240N840000000062500435700    01DNDRIP DROP DISTRO LLC     06560G    VB84000000062500 NP1519971004114   17602                    000000000+                G4CG411355                     000000000  N000000000 377   0000000000000.00 0000000.00   0000000.00                             000000000000000                                                                                                                                                     01418 G000000062500 0000000000018.54     02950 01000                  
02194160622120001P16759067590000000215480088880000001010000000000000000    44023514058              2000000000000000000000000              000000000000                    0000000000000000000000000                    000000000000                                                                                                                                                                                                                                                                                                                                                                                                                                                                                        
02194170622120007DT67590675900000002154800888800000010180088873011003086900014412791032720230000004275008623000000000370230371304XXXXX5009                          NY 4 07N006822976826074N840000000042750          01DNDRIP DROP DISTRO LLC     261596    AM84000000042750 N  519971004114                            000000000+6004S0S00140 258     11244                     000000000                   0000000000000.00 0000000.00   0000000.00                             000000000000000 61248972736759675900000002154 DRIP DROP DISTRO LLC     1445 W COMMERCE AVE SUITE2087248209      83705     TROY@DRIPDROPDISTRO.COM                   01418  000000000000 0000000000008.22     01900 00000                  
02194180622120008BH6759067590000000288180088880000090170327202308623000000000080076    0000090001810016N8008886759C03282023                                                                                                                                                                                                                                                                                                                                                                                                                                                                                                                                                                                                 
02194190622120009DT67590675900000002881800888800000010180088824001193086900018100016032720230000000395008623000000000080076480639XXXXXX4242       VS11    0001111   NYV1 A E303086544345280N840000000003950K9G700    05DNHAPPY HIPPIE             142631    VD84000000003950 N  549976487158                            000000000+                F DF 00381                     000000000  N000000000       0000000000000.00 0000000.00   0000000.00                             000000000000000                                                                                                                                                     01418 A000000000000 0000000000000.47     00800 01500                  
02194200622120010DT67590675900000002881800888800000010180088877287283086900018100026032720230000000237108623000000000080076511953XXXXXX4908       MS02WI09          NY 1 0 AMDJDITZM60327  N840000000002371          07DNHAPPY HIPPIE             041270    MD84000000002371 N  549976487158                            000000000+M10101M0034C    MDJ  00402                     000000000  N                0000000000000.00 0000000.00   0000000.00                             000000000000000                                                                                                                                                   B101418  000000000000 0000000000000.40     01050 01500                  
02194210622120011DT67590675900000002881800888800000010180088824001193086900018100032032720230000000325808623000000000080076475644XXXXXX6150       VS11    0001111   NYV1 A E303086620271658N840000000003258G7MN00    05DNHAPPY HIPPIE             903807    VD84000000003258 N  549976487158                            000000000+                F DF 00381                     000000000  N000000000       0000000000000.00 0000000.00   0000000.00                             000000000000000                                                                                                                                                     01418 A000000000000 0000000000000.41     00800 01500                  
02194220622120012DT67590675900000002881800888800000010180088824001193086900018100040032720230000000395008623000000000080076445102XXXXXX5402       VS11    0001111   NYV1 A E303086637066088N840000000003950KHMD00    05DNHAPPY HIPPIE             067456    VD84000000003950 N  549976487158                            000000000+                F DF 10433                     000000000  Y000000000 338   0000000000000.00 0000000.00   0000000.00                             000000000000000                                                                                                                                                     01418 A000000000000 0000000000000.24     00050 02200                  
02194230622120013DT67590675900000002881800888800000010180088824001193086900018100057032720230000000329308623000000000080076426684XXXXXX4583       VS11    0001111   NYV1 A E583086640034707N8400000000032938THH00    07DNHAPPY HIPPIE             09320B    VS84000000003293 N  549976487158                            000000000+                B CB 12111                     000000000  N000000000 495   0000000000000.00 0000000.00   0000000.00                             000000000000000                                                                                                                                                     01418 A000000000000 0000000000000.64     01650 01000                  
02194240622120014DT67590675900000002881800888800000010180088824001193086900018100065032720230000000296208623000000000080076414720XXXXXX9640       VS11    0001111   NYV1 A E463086692219771N840000000002962MGL900    07DNHAPPY HIPPIE             00260D    VS84000000002962 N  549976487158                            000000000+                D CD 12113                     000000000  N000000000 499   0000000000000.00 0000000.00   0000000.00                             000000000000000                                                                                                                                                     01418 A000000000000 0000000000000.72     02100 01000                  
02194250622120015DT67590675900000002881800888800000010180088824001193086900018100073032720230000000395008623000000000080076480639XXXXXX9186       VS11    0001111   NYV1 A E383086715304482N8400000000039508XB300    05DNHAPPY HIPPIE             150809    VD84000000003950 N  549976487158                            000000000+                F DF 00381                     000000000  N000000000       0000000000000.00 0000000.00   0000000.00                             000000000000000                                                                                                                                                     01418 A000000000000 0000000000000.47     00800 01500                  
02194260622120016DT67590675900000002881800888800000010180088824001193086900018100081032720230000001233308623000000000080076419090XXXXXX9424       VS11    0001111   NYV1 A E303086742066473N840000000012333CRZ600    05DNHAPPY HIPPIE             756582    VD84000000012333 N  549976487158                            000000000+                F DF 00381                     000000000  N000000000       0000000000000.00 0000000.00   0000000.00                             000000000000000                                                                                                                                                     01418 A000000000000 0000000000001.14     00800 01500                  
02194270622120017DT67590675900000002881800888800000010180088824001193086900018100099032720230000000523408623000000000080076415978XXXXXX9559       VS11    0001111   NYV1 A E583086751532678N840000000005234PQKH00    07DNHAPPY HIPPIE             071535    VD84000000005234 N  549976487158                            000000000+                F DF 10433                     000000000  Y000000000 338   0000000000000.00 0000000.00   0000000.00                             000000000000000                                                                                                                                                     01418 A000000000000 0000000000000.25     00050 02200                  
02194280622120018DT67590675900000002881800888800000010180088877287283086900018100109032720230000000474108623000000000080076511953XXXXXX9431       MS02WI09          NY 1 0 AMDJZ69R4M0327  N840000000004741          05DNHAPPY HIPPIE             074222    MD84000000004741 N  549976487158                            000000000+M10101C5434C    MDJ  00402                     000000000  N                0000000000000.00 0000000.00   0000000.00                             000000000000000                                                                                                                                                   B101418  000000000000 0000000000000.65     01050 01500                  
02194290622120019DT67590675900000002881800888800000010180088824001193086900018100115032720230000000252308623000000000080076486796XXXXXX5449       VS11    0001111   NYV1 A E383086754684407N840000000002523S4P600    07DNHAPPY HIPPIE             085716    VD84000000002523 N  549976487158                            000000000+                F DF 10433                     000000000  Y000000000 338   0000000000000.00 0000000.00   0000000.00                             000000000000000                                                                                                                                                     01418 A000000000000 0000000000000.23     00050 02200                  
02194300622120020DT67590675900000002881800888800000010180088824001193086900018100123032720230000001472308623000000000080076411600XXXXXX3425       VS11    0001111   NYV1 A E583086779036027N840000000014723JZQ300    05DNHAPPY HIPPIE             143823    VD84000000014723 N  549976487158                            000000000+                F PF 08170                     000000000  N000000000       0000000000000.00 0000000.00   0000000.00                             000000000000000                                                                                                                                                     01418 A000000000000 0000000000001.84     01150 01500                  
02194310622120021DT67590675900000002881800888800000010180088877287283086900018100133032720230000000474108623000000000080076542432XXXXXX6544       MS02WI09          NY 1 0 AMDJICXC120327  N840000000004741          07DNHAPPY HIPPIE             580833    MD84000000004741 N  549976487158                            000000000+M10101M0034C    MDJ  10815                     000000000  1                0000000000000.00 0000000.00   0000000.00                             000000000000000                                                                                                                                                   B101418  000000000000 0000000000000.24     00050 02200                  
02194320622120022DT67590675900000002881800888800000010180088824001193086900018100149032720230000000394908623000000000080076441707XXXXXX4230       VS11    0001111   NYV1 A E583086782115954N840000000003949X4BN00    07DNHAPPY HIPPIE             753657    VD84000000003949 N  549976487158                            000000000+                F PF 08170                     000000000  N000000000       0000000000000.00 0000000.00   0000000.00                             000000000000000                                                                                                                                                     01418 A000000000000 0000000000000.60     01150 01500                  
02194330622120023DT67590675900000002881800888800000010180088824001193086900018100156032720230000000106208623000000000080076491523XXXXXX7823       VK04VS111111111   NYV1 A E303086792783988N8400000000010622QV700    07DNHAPPY HIPPIE             032431    VD84000000001062 N  549976487158                            000000000+                F DF 10439                     000000000  Y000000000 331   0000000000000.00 0000000.00   0000000.00                             000000000000000                                                                                                                                                     01418 F000000000000 0000000000000.23     00050 02200                  
02194340622120024DT67590675900000002881800888800000010180088877287283086900018100166032720230000000703608623000000000080076511953XXXXXX0600       MS02WI09          NY 1 0 AMDJIXWD120327  N840000000007036          07DNHAPPY HIPPIE             099579    MD84000000007036 N  549976487158                            000000000+M10101M5434C    MDJ  00402                     000000000  N                0000000000000.00 0000000.00   0000000.00                             000000000000000                                                                                                                                                   B101418  000000000000 0000000000000.89     01050 01500                  
02194350622120025BH6759067590000000288180088880000090170327202308623000000000066625    0000090001790014N8008886759C03282023                                                                                                                                                                                                                                                                                                                                                                                                                                                                                                                                                                                                 
02194360622120026DT67590675900000002881800888800000010180088877287283086900017900012032720230000000434408623000000000066625558158XXXXXX8211                         NY 1 0 AMDBO20LMX0327  N840000000004344          05DNHAPPY HIPPIE             2OWOQH    MD84000000004344 NP1549976487134                            000000000+M10101C5434C    MDB  00062                     000000000  N                0000000000000.00 0000000.00   0000000.00                             000000000000000                                                                                                                                                   B101418  000000000000 0000000000001.25     02650 01000                  
02194370622120001P1675906759000000028818008888000000101                                                          000000000000          3000            814767769                                                                                                                                                                                                                                                                                                                                                                                                                                                                                                                                                            
02194380622120027DT67590675900000002881800888800000010180088824001193086900017900028032720230000000395008623000000000066625443264XXXXXX3780       VS11    0001111   NYV1 A E463086611863009N840000000003950H6Q300    07DNHAPPY HIPPIE             025260    VD84000000003950 N  549976487134                            000000000+                F DF 10433                     000000000  Y000000000 338   0000000000000.00 0000000.00   0000000.00                             000000000000000                                                                                                                                                     01418 A000000000000 0000000000000.24     00050 02200                  
02194390622120028DT67590675900000002881800888800000010180088877287283086900017900038032720230000000877908623000000000066625517805XXXXXX0214       MS02WI09          NY 1 0 AMCWRV12YR0327  N840000000008779          05DNHAPPY HIPPIE             01492P    MC84000000008779 N  549976487134                            000000000+M10101C5434C    MCW  00646                     000000000  N                0000000000000.00 0000000.00   0000000.00                             000000000000000                                                                                                                                                   B101418  000000000000 0000000000001.71     01900 00400                  
02194400622120029DT67590675900000002881800888800000010180088824001193086900017900044032720230000000891808623000000000066625409595XXXXXX2134       VS11    0001111   NYV1 A E383086636030120N840000000008918NPMX00    05DNHAPPY HIPPIE             492126    VS84000000008918 N  549976487134                            000000000+                C CC 12112                     000000000  N000000000 497   0000000000000.00 0000000.00   0000000.00                             000000000000000                                                                                                                                                     01418 A000000000000 0000000000001.57     01650 01000                  
02194410622120030DT67590675900000002881800888800000010180088824001193086900017900051032720230000000582208623000000000066625478357XXXXXX0299       VS11    0001111   NYV1 A E583086661410749N8400000000058222GP400    07DNHAPPY HIPPIE             046706    VD84000000005822 N  549976487134                            000000000+                F DF 00381                     000000000  N000000000       0000000000000.00 0000000.00   0000000.00                             000000000000000                                                                                                                                                     01418 A000000000000 0000000000000.62     00800 01500                  
02194420622120031DT67590675900000002881800888800000010180088877287283086900017900061032720230000001244208623000000000066625518941XXXXXX8199       MS02WI09          NY 1 0 AMWEFPS1YR0327  N840000000012442          05DNHAPPY HIPPIE             42656Z    MC84000000012442 N  549976487134                            000000000+M10101C5434C    MWE  00743                     000000000  N                0000000000000.00 0000000.00   0000000.00                             000000000000000                                                                                                                                                   B101418  000000000000 0000000000002.90     02300 00400                  
02194430622120032DT67590675900000002881800888800000010180088824001193086900017900077032720230000000438908623000000000066625474487XXXXXX3342       VS11    0001111   NYV1 A E383086672580064N840000000004389Z5QJ00    05DNHAPPY HIPPIE             164307    VD84000000004389 N  549976487134                            000000000+                F DF 10433                     000000000  Y000000000 338   0000000000000.00 0000000.00   0000000.00                             000000000000000                                                                                                                                                     01418 A000000000000 0000000000000.24     00050 02200                  
02194440622120033DT67590675900000002881800888800000010180088824001193086900017900085032720230000000076708623000000000066625419090XXXXXX2283       VK04VS111111111   NYV1 A E583086676261492N840000000000767ZQZ800    05DNHAPPY HIPPIE             753048    VD84000000000767 N  549976487134                            000000000+                F DF 00451                     000000000  N000000000 214   0000000000000.00 0000000.00   0000000.00                             000000000000000                                                                                                                                                     01418 F000000000000 0000000000000.16     01550 00400                  
02194450622120034DT67590675900000002881800888800000010180088877287283086900017900095032720230000000581608623000000000066625511953XXXXXX5690       MS02WI09          NY 1 0 AMDJMZT7YR0327  N840000000005816          05DNHAPPY HIPPIE             091354    MD84000000005816 N  549976487134                            000000000+M10101C5434C    MDJ  00402                     000000000  N                0000000000000.00 0000000.00   0000000.00                             000000000000000                                                                                                                                                   B101418  000000000000 0000000000000.76     01050 01500                  
02194460622120035DT67590675900000002881800888800000010180088824001193086900017900101032720230000000158008623000000000066625415978XXXXXX3184       VS11    0001111   NYV1 A E383086681391726N8400000000015805P7L00    05DNHAPPY HIPPIE             037649    VD84000000001580 N  549976487134                            000000000+                F DF 10433                     000000000  Y000000000 338   0000000000000.00 0000000.00   0000000.00                             000000000000000                                                                                                                                                     01418 A000000000000 0000000000000.23     00050 02200                  
02194470622120036DT67590675900000002881800888800000010180088873011003086900017900115032720230000000438908623000000000066625379844XXXXX2005                          NY 1 0 N006824828294071N840000000004389          05DNHAPPY HIPPIE             884381    AM84000000004389 N  549976487134                            000000000+51010155434C 258     11261                     000000000                   0000000000000.00 0000000.00   0000000.00                             000000000000000 61248972086759675900000002881 HAPPY HIPPIE             832 PARKWAY              8656540830      37862     HAPPYHIPPIE832@GMAIL.COM                  01418  000000000000 0000000000000.80     01600 00000                  
02194480622120037DT67590675900000002881800888800000010180088824001193086900017900127032720230000000158008623000000000066625480639XXXXXX4015       VS11    0001111   NYV1 A E303086732287039N8400000000015805VJT00    05DNHAPPY HIPPIE             151643    VD84000000001580 N  549976487134                            000000000+                F DF 00381                     000000000  N000000000       0000000000000.00 0000000.00   0000000.00                             000000000000000                                                                                                                                                     01418 A000000000000 0000000000000.28     00800 01500                  
02194490622120038DT67590675900000002881800888800000010180088824001193086900017900135032720230000000138108623000000000066625419090XXXXXX3071       VK04VS111111111   NYV1 A E303086741495864N840000000001381TJ7N00    05DNHAPPY HIPPIE             756546    VD84000000001381 N  549976487134                            000000000+                F DF 00451                     000000000  N000000000 214   0000000000000.00 0000000.00   0000000.00                             000000000000000                                                                                                                                                     01418 F000000000000 0000000000000.25     01550 00400                  
02194500622120039DT67590675900000002881800888800000010180088824001193086900017900143032720230000000246808623000000000066625435687XXXXXX6025       VS11    0001111   NYV1 A E583086768661859N840000000002468NB3300    05DNHAPPY HIPPIE             152318    VD84000000002468 N  549976487134                            000000000+                F DF 10433                     000000000  Y000000000 338   0000000000000.00 0000000.00   0000000.00                             000000000000000                                                                                                                                                     01418 A000000000000 0000000000000.23     00050 02200                  
02194510622120040BH6759067590000001107280010180000090170327202308623000000000019064    0000090001110009N8001016759C03282023                                                                                                                                                                                                                                                                                                                                                                                                                                                                                                                                                                                                 
02194520622120041DT67590675900000011072800101800000010180010124001193086900011100013032720230000000534808623000000000019064433477XXXXXX6339       VS11    0001111   NYV1 A E463086526951925N840000000005348ZL7G00    05DNPLANET VAPOR INC #1000   589552    VD84000000005348 N  599977385027                            000000000+                F DF 10433                     000000000  Y000000000 338   0000000000000.00 0000000.00   0000000.00                             000000000000000                                                                                                                                                     01418 A000000000000 0000000000000.25     00050 02200                  
02194530622120042DT67590675900000011072800101800000010180010124001193086900011100021032720230000000320808623000000000019064440393XXXXXX2648       VS11    0001111   NYV1 A E463086591850921N840000000003208DHPT00    05DNPLANET VAPOR INC #1000   291767    VD84000000003208 N  599977385027                            000000000+                F PF 08170                     000000000  N000000000       0000000000000.00 0000000.00   0000000.00                             000000000000000                                                                                                                                                     01418 A000000000000 0000000000000.52     01150 01500                  
02194540622120043DT67590675900000011072800101800000010180010124001193086900011100039032720230000000192508623000000000019064459954XXXXXX5064       VS11    0001111   NYV1 A E463086610150415N840000000001925NHC400    05DNPLANET VAPOR INC #1000   H17641    VD84000000001925 N  599977385027                            000000000+                F DF 10433                     000000000  Y000000000 338   0000000000000.00 0000000.00   0000000.00                             000000000000000                                                                                                                                                     01418 A000000000000 0000000000000.23     00050 02200                  
02194550622120044DT67590675900000011072800101800000010180010124001193086900011100047032720230000000240608623000000000019064430602XXXXXX3486       VS11    0001111   NYV1 A E583086618495203N840000000002406CNJM00    05DNPLANET VAPOR INC #1000   264360    VD84000000002406 N  599977385027                            000000000+                F DF 00381                     000000000  N000000000       0000000000000.00 0000000.00   0000000.00                             000000000000000                                                                                                                                                     01418 A000000000000 0000000000000.34     00800 01500                  
02194560622120045DT67590675900000011072800101800000010180010124001193086900011100054032720230000000187108623000000000019064473703XXXXXX8353       VS11    0001111   NYV1 A E383086699139147N840000000001871D6JR00    05DNPLANET VAPOR INC #1000   025596    VD84000000001871 N  599977385027                            000000000+                F DF 10433                     000000000  Y000000000 338   0000000000000.00 0000000.00   0000000.00                             000000000000000                                                                                                                                                     01418 A000000000000 0000000000000.23     00050 02200                  
02194570622120046DT67590675900000011072800101800000010180010124001193086900011100062032720230000000102108623000000000019064473703XXXXXX0712       VK04VS111111111   NYV1 A E463086713335018N840000000001021ZM9700    05DNPLANET VAPOR INC #1000   086786    VD84000000001021 N  599977385027                            000000000+                F DF 10439                     000000000  Y000000000 331   0000000000000.00 0000000.00   0000000.00                             000000000000000                                                                                                                                                     01418 F000000000000 0000000000000.23     00050 02200                  
02194580622120047DT67590675900000011072800101800000010180010124001193086900011100070032720230000000274308623000000000019064430602XXXXXX3823       VS11    0001111   NYV1 A E303086754002231N840000000002743KCDP00    05DNPLANET VAPOR INC #1000   298160    VD84000000002743 N  599977385027                            000000000+                F DF 00381                     000000000  N000000000       0000000000000.00 0000000.00   0000000.00                             000000000000000                                                                                                                                                     01418 A000000000000 0000000000000.37     00800 01500                  
02194590622120048DT67590675900000011072800101800000010180010124001193086900011100088032720230000000032008623000000000019064408138XXXXXX1451       VK04VS111111111   NYV1 A E383086791649940N8400000000003206RJG00    07DNPLANET VAPOR INC #1000   019426    VD84000000000320 N  599977385027                            000000000+                F PF 08165                     000000000  N000000000       0000000000000.00 0000000.00   0000000.00                             000000000000000                                                                                                                                                     01418 F000000000000 0000000000000.10     01600 00500                  
02194600622120049DT67590675900000011072800101800000010180010124001193086900011100096032720230000000022208623000000000019064408138XXXXXX7369       VK04VS111111111   NYV1 A E383086838802212N840000000000222SWNK00    07DNPLANET VAPOR INC #1000   917862    VD84000000000222 N  599977385027                            000000000+                F PF 08165                     000000000  N000000000       0000000000000.00 0000000.00   0000000.00                             000000000000000                                                                                                                                                     01418 F000000000000 0000000000000.09     01600 00500                  
02194610622120050BH6759067590000001129680010180000090170327202308623000000000038185    0000090001110010N8001016759C03282023                                                                                                                                                                                                                                                                                                                                                                                                                                                                                                                                                                                                 
02194620622120051DT67590675900000011296800101800000010180010177287283086900011100015032720230000000041308623000000000038185527519XXXXXX6975       MS02WI09          NY 1 0 AMDJAUCHM60327  N840000000000413          07DNPLANET VAPOR INC #900    145583    MD84000000000413 N  599977385017                            000000000+M10101M0034C    MDJ  10815                     000000000  1                0000000000000.00 0000000.00   0000000.00                             000000000000000                                                                                                                                                   B101418  000000000000 0000000000000.22     00050 02200                  
02194630622120052DT67590675900000011296800101800000010180010124001193086900011100021032720230000000734008623000000000038185448232XXXXXX7567       VS11    0001111   NYV1 A E583086548266221N840000000007340P6CS00    05DNPLANET VAPOR INC #900    011339    VD84000000007340 N  599977385017                            000000000+                F DF 00381                     000000000  N000000000       0000000000000.00 0000000.00   0000000.00                             000000000000000                                                                                                                                                     01418 A000000000000 0000000000000.74     00800 01500                  
02194640622120053DT67590675900000011296800101800000010180010124001193086900011100039032720230000000215908623000000000038185440393XXXXXX1872       VS11    0001111   NYV1 A E463086589950116N840000000002159QQR200    05DNPLANET VAPOR INC #900    827617    VD84000000002159 N  599977385017                            000000000+                F PF 08170                     000000000  N000000000       0000000000000.00 0000000.00   0000000.00                             000000000000000                                                                                                                                                     01418 A000000000000 0000000000000.40     01150 01500                  
02194650622120054DT67590675900000011296800101800000010180010124001193086900011100047032720230000000215908623000000000038185473703XXXXXX2534       VS11    0001111   NYV1 A E383086613311308N840000000002159PLPR00    05DNPLANET VAPOR INC #900    028062    VD84000000002159 N  599977385017                            000000000+                F DF 10433                     000000000  Y000000000 338   0000000000000.00 0000000.00   0000000.00                             000000000000000                                                                                                                                                     01418 A000000000000 0000000000000.23     00050 02200                  
02194660622120055DT67590675900000011296800101800000010180010177287283086900011100056032720230000000458808623000000000038185517546XXXXXX3674       MS02WI09          NY 1 0 AMDJULW64M0327  N840000000004588          05DNPLANET VAPOR INC #900    027383    MD84000000004588 N  599977385017                            000000000+M10101C5434C    MDJ  10815                     000000000  1                0000000000000.00 0000000.00   0000000.00                             000000000000000                                                                                                                                                   B101418  000000000000 0000000000000.24     00050 02200                  
02194670622120056DT67590675900000011296800101800000010180010124001193086900011100062032720230000000047508623000000000038185486299XXXXXX9933       VK04VS111111111   NYV1 A E303086676495907N840000000000475M67C00    07DNPLANET VAPOR INC #900    144872    VD84000000000475 N  599977385017                            000000000+                F DF 10439                     000000000  Y000000000 331   0000000000000.00 0000000.00   0000000.00                             000000000000000                                                                                                                                                     01418 F000000000000 0000000000000.22     00050 02200                  
02194680622120057DT67590675900000011296800101800000010180010177287283086900011100072032720230000000917608623000000000038185531258XXXXXX4741       MS02WI09          NY 1 0 AMDJMEEQYY0327  N840000000009176          05DNPLANET VAPOR INC #900    160002    MD84000000009176 N  599977385017                            000000000+M10101C5434C    MDJ  10815                     000000000  1                0000000000000.00 0000000.00   0000000.00                             000000000000000                                                                                                                                                   B101418  000000000000 0000000000000.27     00050 02200                  
02194690622120058DT67590675900000011296800101800000010180010124001193086900011100088032720230000000194308623000000000038185440393XXXXXX0196       VS11    0001111   NYV1 A E383086686678109N840000000001943L74C00    07DNPLANET VAPOR INC #900    647003    VD84000000001943 N  599977385017                            000000000+                F PF 08170                     000000000  N000000000       0000000000000.00 0000000.00   0000000.00                             000000000000000                                                                                                                                                     01418 A000000000000 0000000000000.37     01150 01500                  
02194700622120059DT67590675900000011296800101800000010180010124001193086900011100096032720230000000583008623000000000038185481749XXXXXX7294       VS11    0001111   NYV1 A E303086689588460N8400000000058308KWV00    07DNPLANET VAPOR INC #900    120918    VD84000000005830 N  599977385017                            000000000+                F PF 08170                     000000000  N000000000       0000000000000.00 0000000.00   0000000.00                             000000000000000                                                                                                                                                     01418 A000000000000 0000000000000.82     01150 01500                  
02194710622120060DT67590675900000011296800101800000010180010177287283086900011100106032720230000000410208623000000000038185519836XXXXXX2454       MS02WI09          NY 1 0 AMDJ4CMF110327  N840000000004102          05DNPLANET VAPOR INC #900    577759    MD84000000004102 N  599977385017                            000000000+M10101C5434C    MDJ  00402                     000000000  N                0000000000000.00 0000000.00   0000000.00                             000000000000000                                                                                                                                                   B101418  000000000000 0000000000000.58     01050 01500                  
02194720622120061BH6759067590000000659380010180000090170327202308623000000000113579    0000090001110027N8001016759C03282023                                                                                                                                                                                                                                                                                                                                                                                                                                                                                                                                                                                                 
02194730622120062DT67590675900000006593800101800000010180010173011003086900011100019032720230000000647608623000000000113579372243XXXXX3018                          NY 1 0 N006819750881077N840000000006476          05DNPLANET VAPOR INC #100    833966    AM84000000006476 N  599977384444                            000000000+51010155434C 258     11261                     000000000                   0000000000000.00 0000000.00   0000000.00                             000000000000000 61248972086759675900000006593 PLANET VAPOR INC #100    9300 TOP NOTCH RD STE 1  8035462263      29223     KEVIN@MOOREDISTRO.COM                     01418  000000000000 0000000000001.14     01600 00000                  
02194740622120063DT67590675900000006593800101800000010180010173011003086900011100027032720230000000194308623000000000113579370382XXXXX9995                          NY 1 0 N007368744368063N840000000001943          07DNPLANET VAPOR INC #100    803238    AM84000000001943 N  599977384444                            000000000+51010X50034C 258     11261                     000000000                   0000000000000.00 0000000.00   0000000.00                             000000000000000 61248972086759675900000006593 PLANET VAPOR INC #100    9300 TOP NOTCH RD STE 1  8035462263      29223     KEVIN@MOOREDISTRO.COM                     01418  000000000000 0000000000000.41     01600 00000                  
02194750622120064DT67590675900000006593800101800000010180010124001193086900011100039032720230000000340008623000000000113579400022XXXXXX2807       VS11    0001111   NYV1 A E383086559035680N840000000003400VD8C00    05DNPLANET VAPOR INC #100    087398    VD84000000003400 N  599977384444                            000000000+                F DF 10433                     000000000  Y000000000 338   0000000000000.00 0000000.00   0000000.00                             000000000000000                                                                                                                                                     01418 A000000000000 0000000000000.24     00050 02200                  
02194760622120065DT67590675900000006593800101800000010180010124001193086900011100047032720230000001122708623000000000113579434292XXXXXX8979       VS11    0001111   NYV1 A E383086566707515N840000000011227Q5RC00    05DNPLANET VAPOR INC #100    07993D    VS84000000011227 N  599977384444                            000000000+                D CD 12113                     000000000  N000000000 499   0000000000000.00 0000000.00   0000000.00                             000000000000000                                                                                                                                                     01418 A000000000000 0000000000002.46     02100 01000                  
02194770622120066DT67590675900000006593800101800000010180010177287283086900011100056032720230000000053908623000000000113579510805XXXXXX1762       MS02WI09          NY 1 0 AMDJG9PQM60327  N840000000000539          05DNPLANET VAPOR INC #100    005406    MD84000000000539 N  599977384444                            000000000+M10101C5434C    MDJ  10815                     000000000  1                0000000000000.00 0000000.00   0000000.00                             000000000000000                                                                                                                                                   B101418  000000000000 0000000000000.22     00050 02200                  
02194780622120067DT67590675900000006593800101800000010180010177287283086900011100064032720230000000161908623000000000113579522355XXXXXX7508       MS02WI09          NY 1 0 AMWELCJDM60327  N840000000001619          07DNPLANET VAPOR INC #100    37138Z    MC84000000001619 N  599977384444                            000000000+M10101M0034C    MWE  00739                     000000000  N                0000000000000.00 0000000.00   0000000.00                             000000000000000                                                                                                                                                   A101418  000000000000 0000000000000.47     02300 01000                  
02194790622120068DT67590675900000006593800101800000010180010124001193086900011100070032720230000001317008623000000000113579438419XXXXXX6621       VS11    0001111   NYV1 A E303086591492164N8400000000131705PLJ00    05DNPLANET VAPOR INC #100    022549    VD84000000013170 N  599977384444                            000000000+                F DF 00381                     000000000  N000000000       0000000000000.00 0000000.00   0000000.00                             000000000000000                                                                                                                                                     01418 A000000000000 0000000000001.20     00800 01500                  
02194800622120069DT67590675900000006593800101800000010180010177287283086900011100080032720230000000151108623000000000113579534774XXXXXX5730                         NY 1 0 AMDBO84HMX0327  N840000000001511          05DNPLANET VAPOR INC #100    675684    MD84000000001511 NP1599977384444                            000000000+M10101C5434C    MDB  00062                     000000000  N                0000000000000.00 0000000.00   0000000.00                             000000000000000                                                                                                                                                   B101418  000000000000 0000000000000.50     02650 01000                  
02194810622120001P1675906759000000065938001018000000101                                                          000000000000          1000            472803059                                                                                                                                                                                                                                                                                                                                                                                                                                                                                                                                                            
02194820622120070DT67590675900000006593800101800000010180010124001193086900011100096032720230000000981208623000000000113579412185XXXXXX6976       VS11    0001111   NYV1 A E583086641083705N840000000009812N59W00    05DNPLANET VAPOR INC #100    027942    VS84000000009812 N  599977384444                            000000000+                C CC 12112                     000000000  N000000000 497   0000000000000.00 0000000.00   0000000.00                             000000000000000                                                                                                                                                     01418 A000000000000 0000000000001.72     01650 01000                  
02194830622120071DT67590675900000006593800101800000010180010124001193086900011100104032720230000000064708623000000000113579412185XXXXXX6976       VK04VS111111111   NYV1 A E583086642442233N840000000000647FVXV00    05DNPLANET VAPOR INC #100    027317    VS84000000000647 N  599977384444                            000000000+                C CC 12112                     000000000  N000000000 497   0000000000000.00 0000000.00   0000000.00                             000000000000000                                                                                                                                                     01418 F000000000000 0000000000000.21     01650 01000                  
02194840622120072DT67590675900000006593800101800000010180010124001193086900011100112032720230000000064708623000000000113579461675XXXXXX2284       VK04VS111111111   NYV1 A E383086645801331N840000000000647TLZQ00    05DNPLANET VAPOR INC #100    911440    VD84000000000647 N  599977384444                            000000000+                F DF 00451                     000000000  N000000000 214   0000000000000.00 0000000.00   0000000.00                             000000000000000                                                                                                                                                     01418 F000000000000 0000000000000.14     01550 00400                  
02194850622120073DT67590675900000006593800101800000010180010124001193086900011100120032720230000000323808623000000000113579430602XXXXXX2638       VS11    0001111   NYV1 A E303086670390058N8400000000032383HF300    05DNPLANET VAPOR INC #100    276612    VD84000000003238 N  599977384444                            000000000+                F DF 00381                     000000000  N000000000       0000000000000.00 0000000.00   0000000.00                             000000000000000                                                                                                                                                     01418 A000000000000 0000000000000.41     00800 01500                  
02194860622120074DT67590675900000006593800101800000010180010177287283086900011100130032720230000000475008623000000000113579522355XXXXXX0732       MS02WI09          NY 1 0 AMWED9WU5A0327  N840000000004750          07DNPLANET VAPOR INC #100    99596Z    MC84000000004750 N  599977384444                            000000000+M10101M0034C    MWE  00739                     000000000  N                0000000000000.00 0000000.00   0000000.00                             000000000000000                                                                                                                                                   A101418  000000000000 0000000000001.19     02300 01000                  
02194870622120075DT67590675900000006593800101800000010180010176509753086900011100144032720230000000561408623000000000113579601100XXXXXX7078   BA50                  NY41 0 N753073978605782N840000000005614    00    05DNPLANET VAPOR INC #100    02712R    DS84000000005614 N  599977384444050                         000000000+0000004910H00   DCCDI01000668373  145740000000 000000000  0          112   0000000000000.00 0000000.00   0000000.00                             000000000000000                                                                                                                                                     01418  000000000000 0000000000001.07     01720 01000                  
02194880622120076DT67590675900000006593800101800000010180010124001193086900011100153032720230000000291408623000000000113579473703XXXXXX0875       VS11    0001111   NYV1 A E383086723525672N840000000002914T8L300    05DNPLANET VAPOR INC #100    066078    VD84000000002914 N  599977384444                            000000000+                F DF 10433                     000000000  Y000000000 338   0000000000000.00 0000000.00   0000000.00                             000000000000000                                                                                                                                                     01418 A000000000000 0000000000000.23     00050 02200                  
02194890622120077DT67590675900000006593800101800000010180010124001193086900011100161032720230000000475008623000000000113579435716XXXXXX8651       VS11    0001111   NYV1 A E383086727703130N840000000004750Z5VW00    05DNPLANET VAPOR INC #100    061250    VD84000000004750 N  599977384444                            000000000+                F DF 00381                     000000000  N000000000       0000000000000.00 0000000.00   0000000.00                             000000000000000                                                                                                                                                     01418 A000000000000 0000000000000.53     00800 01500                  
02194900622120078DT67590675900000006593800101800000010180010124001193086900011100179032720230000000446908623000000000113579499159XXXXXX8785       VS11    0001111   NYV1 A E303086737630238N8400000000044697SRH00    05DNPLANET VAPOR INC #100    027949    VS84000000004469 N  599977384444                            000000000+                B CB 12111                     000000000  N000000000 495   0000000000000.00 0000000.00   0000000.00                             000000000000000                                                                                                                                                     01418 A000000000000 0000000000000.84     01650 01000                  
02194910622120079DT67590675900000006593800101800000010180010124001193086900011100187032720230000000349708623000000000113579430602XXXXXX6476       VS11    0001111   NYV1 A E463086739933682N840000000003497N28F00    05DNPLANET VAPOR INC #100    294102    VD84000000003497 N  599977384444                            000000000+                F DF 00381                     000000000  N000000000       0000000000000.00 0000000.00   0000000.00                             000000000000000                                                                                                                                                     01418 A000000000000 0000000000000.43     00800 01500                  
02194920622120080DT67590675900000006593800101800000010180010124001193086900011100195032720230000000377908623000000000113579474474XXXXXX8349       VS11    0001111   NYV1 A E463086770146099N840000000003779PVD400    05DNPLANET VAPOR INC #100    132939    VD84000000003779 N  599977384444                            000000000+                F DF 10433                     000000000  Y000000000 338   0000000000000.00 0000000.00   0000000.00                             000000000000000                                                                                                                                                     01418 A000000000000 0000000000000.24     00050 02200                  
02194930622120081DT67590675900000006593800101800000010180010124001193086900011100203032720230000000213708623000000000113579410492XXXXXX3634       VS11    0001111   NYV1 A E583086774137765N840000000002137DCHR00    07DNPLANET VAPOR INC #100    032168    VD84000000002137 N  599977384444                            000000000+                F DF 10433                     000000000  Y000000000 338   0000000000000.00 0000000.00   0000000.00                             000000000000000                                                                                                                                                     01418 A000000000000 0000000000000.23     00050 02200                  
02194940622120082DT67590675900000006593800101800000010180010124001193086900011100211032720230000000323808623000000000113579434256XXXXXX6208       VS11    0001111   NYV1 A E303086779481774N840000000003238KS4Q00    05DNPLANET VAPOR INC #100    098951    VD84000000003238 N  599977384444                            000000000+                F DF 10433                     000000000  Y000000000 338   0000000000000.00 0000000.00   0000000.00                             000000000000000                                                                                                                                                     01418 A000000000000 0000000000000.24     00050 02200                  
02194950622120083DT67590675900000006593800101800000010180010124001193086900011100229032720230000000359408623000000000113579453506XXXXXX4281       VS11    0001111   NYV1 A E383086796984782N840000000003594QCQ500    05DNPLANET VAPOR INC #100    H74473    VD84000000003594 N  599977384444                            000000000+                F DF 10433                     000000000  Y000000000 338   0000000000000.00 0000000.00   0000000.00                             000000000000000                                                                                                                                                     01418 A000000000000 0000000000000.24     00050 02200                  
02194960622120084DT67590675900000006593800101800000010180010124001193086900011100237032720230000000912208623000000000113579440393XXXXXX0626       VS11    0001111   NYV1 A E383086799399676N840000000009122DTLT00    05DNPLANET VAPOR INC #100    194359    VD84000000009122 N  599977384444                            000000000+                F PF 08170                     000000000  N000000000       0000000000000.00 0000000.00   0000000.00                             000000000000000                                                                                                                                                     01418 A000000000000 0000000000001.20     01150 01500                  
02194970622120085DT67590675900000006593800101800000010180010124001193086900011100245032720230000000323808623000000000113579400022XXXXXX5600       VS11    0001111   NYV1 A E303086804990995N840000000003238SX8X00    05DNPLANET VAPOR INC #100    069409    VD84000000003238 N  599977384444                            000000000+                F DF 10433                     000000000  Y000000000 338   0000000000000.00 0000000.00   0000000.00                             000000000000000                                                                                                                                                     01418 A000000000000 0000000000000.24     00050 02200                  
02194980622120086DT67590675900000006593800101800000010180010177287283086900011100254032720230000000280708623000000000113579514230XXXXXX9310       MS02WI09          NY 1 0 AMDJMF4P1X0327  N840000000002807          05DNPLANET VAPOR INC #100    FA17FC    MD84000000002807 N  599977384444                            000000000+M10101C5434C    MDJ  00402                     000000000  N                0000000000000.00 0000000.00   0000000.00                             000000000000000                                                                                                                                                   B101418  000000000000 0000000000000.44     01050 01500                  
02194990622120087DT67590675900000006593800101800000010180010124001193086900011100260032720230000000301208623000000000113579459954XXXXXX5899       VS11    0001111   NYV1 A E583086838671946N840000000003012RCTM00    05DNPLANET VAPOR INC #100    H84848    VD84000000003012 N  599977384444                            000000000+                F DF 10433                     000000000  Y000000000 338   0000000000000.00 0000000.00   0000000.00                             000000000000000                                                                                                                                                     01418 A000000000000 0000000000000.24     00050 02200                  
02195000622120088DT67590675900000006593800101800000010180010124001193086900011100278032720230000000242908623000000000113579440393XXXXXX0006       VS11    0001111   NYV1 A E383086862832568N840000000002429G36B00    05DNPLANET VAPOR INC #100    207722    VD84000000002429 N  599977384444                            000000000+                F PF 08170                     000000000  N000000000       0000000000000.00 0000000.00   0000000.00                             000000000000000                                                                                                                                                     01418 A000000000000 0000000000000.43     01150 01500                  
02195010622120089BH6759067590000001090080010180000090170327202308623000000000060005    0000090001120020N8001016759C03282023                                                                                                                                                                                                                                                                                                                                                                                                                                                                                                                                                                                                 
02195020622120090DT67590675900000010900800101800000010180010124001193086900011200011032720230000000054708623000000000060005438419XXXXXX4949       VK04VS111111111   NYV1 A E303086555073807N840000000000547PV2J00    05DNPLANET VAPOR INC #700    012507    VD84000000000547 N  599977384978                            000000000+                F DF 00451                     000000000  N000000000 214   0000000000000.00 0000000.00   0000000.00                             000000000000000                                                                                                                                                     01418 F000000000000 0000000000000.12     01550 00400                  
02195030622120091DT67590675900000010900800101800000010180010177287283086900011200021032720230000000453308623000000000060005531258XXXXXX7005       MS02WI09          NY 1 0 AMDJO7XBWL0327  N840000000004533          05DNPLANET VAPOR INC #700    144603    MD84000000004533 N  599977384978                            000000000+M10101C5434C    MDJ  10815                     000000000  1                0000000000000.00 0000000.00   0000000.00                             000000000000000                                                                                                                                                   B101418  000000000000 0000000000000.24     00050 02200                  
02195040622120092DT67590675900000010900800101800000010180010124001193086900011200037032720230000000237508623000000000060005430602XXXXXX6597       VS11    0001111   NYV1 A E303086570054912N840000000002375NHJP00    05DNPLANET VAPOR INC #700    253278    VD84000000002375 N  599977384978                            000000000+                F DF 00381                     000000000  N000000000       0000000000000.00 0000000.00   0000000.00                             000000000000000                                                                                                                                                     01418 A000000000000 0000000000000.34     00800 01500                  
02195050622120093DT67590675900000010900800101800000010180010124001193086900011200045032720230000000326408623000000000060005433477XXXXXX5551       VS11    0001111   NYV1 A E303086579977076N840000000003264ZW6J00    05DNPLANET VAPOR INC #700    666695    VD84000000003264 N  599977384978                            000000000+                F DF 10433                     000000000  Y000000000 338   0000000000000.00 0000000.00   0000000.00                             000000000000000                                                                                                                                                     01418 A000000000000 0000000000000.24     00050 02200                  
02195060622120094DT67590675900000010900800101800000010180010124001193086900011200052032720230000000647708623000000000060005402944XXXXXX2518       VS11    0001111   NYV1 A E463086582061873N840000000006477S6PS00    05DNPLANET VAPOR INC #700    011007    VD84000000006477 N  599977384978                            000000000+                F DF 10433                     000000000  Y000000000 338   0000000000000.00 0000000.00   0000000.00                             000000000000000                                                                                                                                                     01418 A000000000000 0000000000000.25     00050 02200                  
02195070622120095DT67590675900000010900800101800000010180010177287283086900011200062032720230000000075508623000000000060005517805XXXXXX7244       MS02WI09          NY 1 0 AMPLVFJSWL0327  N840000000000755          05DNPLANET VAPOR INC #700    07176B    MC84000000000755 N  599977384978                            000000000+M10101C5434C    MPL  00353                     000000000  N                0000000000000.00 0000000.00   0000000.00                             000000000000000                                                                                                                                                   B101418  000000000000 0000000000000.24     01800 01000                  
02195080622120096DT67590675900000010900800101800000010180010124001193086900011200078032720230000000269908623000000000060005466189XXXXXX2636       VS11    0001111   NYV1 A E463086618009981N840000000002699B7QL00    05DNPLANET VAPOR INC #700    029620    VD84000000002699 N  599977384978                            000000000+                F DF 10433                     000000000  Y000000000 338   0000000000000.00 0000000.00   0000000.00                             000000000000000                                                                                                                                                     01418 A000000000000 0000000000000.23     00050 02200                  
02195090622120097DT67590675900000010900800101800000010180010124001193086900011200086032720230000000631608623000000000060005455225XXXXXX8745       VS11    0001111   NYV1 A E463086646841587N840000000006316CZZZ00    05DNPLANET VAPOR INC #700    H32181    VD84000000006316 N  599977384978                            000000000+                F DF 10433                     000000000  Y000000000 338   0000000000000.00 0000000.00   0000000.00                             000000000000000                                                                                                                                                     01418 A000000000000 0000000000000.25     00050 02200                  
02195100622120098DT67590675900000010900800101800000010180010124001193086900011200094032720230000000826008623000000000060005455225XXXXXX8745       VS11    0001111   NYV1 A E583086650332681N8400000000082606B9700    05DNPLANET VAPOR INC #700    H38674    VD84000000008260 N  599977384978                            000000000+                F DF 10433                     000000000  Y000000000 338   0000000000000.00 0000000.00   0000000.00                             000000000000000                                                                                                                                                     01418 A000000000000 0000000000000.26     00050 02200                  
02195110622120099DT67590675900000010900800101800000010180010124001193086900011200102032720230000000237508623000000000060005438854XXXXXX0365       VS11    0001111   NYV1 A E303086694228721N840000000002375326P00    05DNPLANET VAPOR INC #700    01076D    VS84000000002375 N  599977384978                            000000000+                D CD 12113                     000000000  N000000000 499   0000000000000.00 0000000.00   0000000.00                             000000000000000                                                                                                                                                     01418 A000000000000 0000000000000.60     02100 01000                  
02195120622120100DT67590675900000010900800101800000010180010124001193086900011200110032720230000000215908623000000000060005452293XXXXXX2630       VS11    0001111   NYV1 A E583086707012239N840000000002159ZWV900    07DNPLANET VAPOR INC #700    053821    VD84000000002159 N  599977384978                            000000000+                F DF 00381                     000000000  N000000000       0000000000000.00 0000000.00   0000000.00                             000000000000000                                                                                                                                                     01418 A000000000000 0000000000000.32     00800 01500                  
02195130622120101DT67590675900000010900800101800000010180010124001193086900011200128032720230000000194308623000000000060005473703XXXXXX3582       VS11    0001111   NYV1 A E583086718733834N840000000001943XMLG00    05DNPLANET VAPOR INC #700    063010    VD84000000001943 N  599977384978                            000000000+                F DF 10433                     000000000  Y000000000 338   0000000000000.00 0000000.00   0000000.00                             000000000000000                                                                                                                                                     01418 A000000000000 0000000000000.23     00050 02200                  
02195140622120102DT67590675900000010900800101800000010180010124001193086900011200136032720230000000151008623000000000060005400022XXXXXX1158       VS11    0001111   NYV1 A E383086722255669N840000000001510Z7FJ00    05DNPLANET VAPOR INC #700    743135    VD84000000001510 N  599977384978                            000000000+                F DF 10433                     000000000  Y000000000 338   0000000000000.00 0000000.00   0000000.00                             000000000000000                                                                                                                                                     01418 A000000000000 0000000000000.23     00050 02200                  
02195150622120103DT67590675900000010900800101800000010180010124001193086900011200144032720230000000302208623000000000060005441732XXXXXX7884       VS11    0001111   NYV1 A E383086723386434N840000000003022FVSZ00    07DNPLANET VAPOR INC #700    155131    VD84000000003022 N  599977384978                            000000000+                F DF 00381                     000000000  N000000000       0000000000000.00 0000000.00   0000000.00                             000000000000000                                                                                                                                                     01418 A000000000000 0000000000000.39     00800 01500                  
02195160622120104DT67590675900000010900800101800000010180010124001193086900011200151032720230000000087108623000000000060005473703XXXXXX5115       VK04VS111111111   NYV1 A E383086749868256N8400000000008712QZP00    05DNPLANET VAPOR INC #700    054649    VD84000000000871 N  599977384978                            000000000+                F DF 10439                     000000000  Y000000000 331   0000000000000.00 0000000.00   0000000.00                             000000000000000                                                                                                                                                     01418 F000000000000 0000000000000.22     00050 02200                  
