00001210111820002BH6759067590000000288180088880000090171205202233922000000000008229    0000090001130045Y8008886759C12062022                                                                                                                                                                                                                                                                                                                                                                                                                                                                                                                                                                                                 
00001220111820003DT67590675900000002881800888800000010180088824001192339900011300446120420220000000384033922000000000008229422921XXXXXX2523               2111111   NYV4 A7W382339082961927N840000000003840ZG3H00    01DNTENNESSEE TRADING POST   076697    VD84000000003840 NP1549976044904   1863                     000000000+                F DF 00415                     000000000  N000000000       0000000000000.00 0000000.00   0000000.00                             000000000000000                                                                                                                                                     01424 G000000003840 0000000000000.78     01650 01500                  
00001230111820001P16759067590000000288180088880000001010000000000000000                             2000000000000000000000000              000000000000                    0000000000000000000000000                    000000000000                                                                                                                                                                                                                                                                                                                                                                                                                                                                                        
00001240111820004DT67590675900000002881800888800000010180088873011002339900011300459120520220000000438933922000000000008229379363XXXXX5881                          NY 4 07N003661360985309N840000000004389          01DNHAPPY HIPPIE             678005    AM84000000004389 Y  549976044904                            000000000+6004S0000130 258     11261                     000000000                   0000000000000.00 0000000.00   0000000.00                             000000000000000 61248972086759675900000002881 HAPPY HIPPIE             832 PARKWAY              8656540830      37862     HAPPYHIPPIE832@GMAIL.COM                  01324  000000000000 0000000000000.80     01600 00000                  
