00003650471160002BH6759067590000000909280010180000090170420202311023000000000238165    0000090001350049Y8001016759C04212023                                                                                                                                                                                                                                                                                                                                                                                                                                                                                                                                                                                                 
00003660471160003DT67590675900000009092800101800000010180010124001193110900013500012042020230000000213711023000000000238165440393XXXXXX1903       VS11    0001111   NYV1 A E303110502685014N840000000002137NRFV00    05DNPLANET VAPOR INC #500    138932    VD84000000002137 N  599977384801                            000000000+                F PF 08170                     000000000  N000000000       0000000000000.00 0000000.00   0000000.00                             000000000000000                                                                                                                                                     01424 A000000000000 0000000000000.40     01150 01500                  
00003670471160004DT67590675900000009092800101800000010180010124001193110900013500020042020230000000213711023000000000238165402282XXXXXX5495       VS11    0001111   NYV1 A E463110512713426N840000000002137THS500    07DNPLANET VAPOR INC #500    001431    VD84000000002137 N  599977384801                            000000000+                F DF 00381                     000000000  N000000000       0000000000000.00 0000000.00   0000000.00                             000000000000000                                                                                                                                                     01424 A000000000000 0000000000000.32     00800 01500                  
00003680471160005DT67590675900000009092800101800000010180010124001193110900013500038042020230000000151111023000000000238165400022XXXXXX7780       VS11    0001111   NYV1 A E463110535114715N840000000001511SZKG00    07DNPLANET VAPOR INC #500    776943    VD84000000001511 N  599977384801                            000000000+                F DF 10433                     000000000  Y000000000 338   0000000000000.00 0000000.00   0000000.00                             000000000000000                                                                                                                                                     01424 A000000000000 0000000000000.23     00050 02200                  
00003690471160006DT67590675900000009092800101800000010180010124001193110900013500046042020230000000184611023000000000238165430602XXXXXX0949       VS11    0001111   NYV1 A E303110564314283N8400000000018464P8500    07DNPLANET VAPOR INC #500    333430    VD84000000001846 N  599977384801                            000000000+                F DF 00381                     000000000  N000000000       0000000000000.00 0000000.00   0000000.00                             000000000000000                                                                                                                                                     01424 A000000000000 0000000000000.30     00800 01500                  
00003700471160007DT67590675900000009092800101800000010180010124001193110900013500053042020230000001025711023000000000238165433477XXXXXX3151       VS11    0001111   NYV1 A E303110573730025N8400000000102577KM600    05DNPLANET VAPOR INC #500    491236    VD84000000010257 N  599977384801                            000000000+                F DF 10433                     000000000  Y000000000 338   0000000000000.00 0000000.00   0000000.00                             000000000000000                                                                                                                                                     01424 A000000000000 0000000000000.27     00050 02200                  
00003710471160008DT67590675900000009092800101800000010180010124001193110900013500061042020230000000229411023000000000238165430602XXXXXX9016       VS11    0001111   NYV1 A E463110575029101N840000000002294DX4600    07DNPLANET VAPOR INC #500    336495    VD84000000002294 N  599977384801                            000000000+                F DF 00381                     000000000  N000000000       0000000000000.00 0000000.00   0000000.00                             000000000000000                                                                                                                                                     01424 A000000000000 0000000000000.33     00800 01500                  
00003720471160009DT67590675900000009092800101800000010180010124001193110900013500079042020230000000119211023000000000238165458643XXXXXX2527       VK04VS111111111   NYV1 A E303110577505285N840000000001192RQLL00    05DNPLANET VAPOR INC #500    H11497    VD84000000001192 N  599977384801                            000000000+                F DF 10439                     000000000  Y000000000 331   0000000000000.00 0000000.00   0000000.00                             000000000000000                                                                                                                                                     01424 F000000000000 0000000000000.23     00050 02200                  
00003730471160010DT67590675900000009092800101800000010180010124001193110900013500087042020230000000604611023000000000238165466189XXXXXX3241       VS11    0001111   NYV1 A E303110578123386N840000000006046H5JJ00    05DNPLANET VAPOR INC #500    061318    VD84000000006046 N  599977384801                            000000000+                F DF 10433                     000000000  Y000000000 338   0000000000000.00 0000000.00   0000000.00                             000000000000000                                                                                                                                                     01424 A000000000000 0000000000000.25     00050 02200                  
00003740471160011DT67590675900000009092800101800000010180010173011003110900013500091042020230000000458911023000000000238165379267XXXXX1006                          NY 1 0 N004593052563327N840000000004589          05DNPLANET VAPOR #500        882392    AM84000000004589 Y  599977384801                            000000000+51010155434C 258     11261                     000000000                   0000000000000.00 0000000.00   0000000.00                             000000000000000 61248972086759675900000009092 PLANET VAPOR #500        1001 KINLEY RD UNIT A    8035462263      29063     KEVIN@MOOREDISTRO.COM                     01324  000000000000 0000000000000.83     01600 00000                  
00003750471160012DT67590675900000009092800101800000010180010124001193110900013500103042020230000000194311023000000000238165430602XXXXXX0043       VS11    0001111   NYV1 A E583110587082447N840000000001943N92400    05DNPLANET VAPOR INC #500    341007    VD84000000001943 N  599977384801                            000000000+                F DF 00381                     000000000  N000000000       0000000000000.00 0000000.00   0000000.00                             000000000000000                                                                                                                                                     01424 A000000000000 0000000000000.31     00800 01500                  
00003760471160013DT67590675900000009092800101800000010180010124001193110900013500111042020230000000950011023000000000238165433477XXXXXX1899       VS11    0001111   NYV1 A E383110590628103N8400000000095007SX300    05DNPLANET VAPOR INC #500    522896    VD84000000009500 N  599977384801                            000000000+                F DF 10433                     000000000  Y000000000 338   0000000000000.00 0000000.00   0000000.00                             000000000000000                                                                                                                                                     01424 A000000000000 0000000000000.27     00050 02200                  
00003770471160014DT67590675900000009092800101800000010180010124001193110900013500129042020230000000205111023000000000238165491793XXXXXX0862       VS11    0001111   NYV1 A E383110593463163N840000000002051TCKX00    07DNPLANET VAPOR INC #500    012906    VD84000000002051 N  599977384801                            000000000+                F DF 10433                     000000000  Y000000000 338   0000000000000.00 0000000.00   0000000.00                             000000000000000                                                                                                                                                     01424 A000000000000 0000000000000.23     00050 02200                  
00003780471160015DT67590675900000009092800101800000010180010124001193110900013500137042020230000000410211023000000000238165430602XXXXXX8189       VS11    0001111   NYV1 A E583110594290955N840000000004102HVWR00    07DNPLANET VAPOR INC #500    343485    VD84000000004102 N  599977384801                            000000000+                F DF 00381                     000000000  N000000000       0000000000000.00 0000000.00   0000000.00                             000000000000000                                                                                                                                                     01424 A000000000000 0000000000000.48     00800 01500                  
00003790471160016DT67590675900000009092800101800000010180010124001193110900013500145042020230000000863711023000000000238165448233XXXXXX7707       VS11    0001111   NYV1 A E463110600650685N840000000008637KGPB00    05DNPLANET VAPOR INC #500    014105    VD84000000008637 N  599977384801                            000000000+                F DF 10433                     000000000  Y000000000 338   0000000000000.00 0000000.00   0000000.00                             000000000000000                                                                                                                                                     01424 A000000000000 0000000000000.26     00050 02200                  
00003800471160017DT67590675900000009092800101800000010180010124001193110900013500152042020230000000648011023000000000238165438419XXXXXX3012       VS11    0001111   NYV1 A E303110632565682N840000000006480Z4NF00    07DNPLANET VAPOR INC #500    033416    VD84000000006480 N  599977384801                            000000000+                F DF 00381                     000000000  N000000000       0000000000000.00 0000000.00   0000000.00                             000000000000000                                                                                                                                                     01424 A000000000000 0000000000000.67     00800 01500                  
00003810471160018DT67590675900000009092800101800000010180010124001193110900013500160042020230000001101411023000000000238165448233XXXXXX4927       VS11    0001111   NYV1 A E583110637377425N8400000000110148JRR00    05DNPLANET VAPOR INC #500    024217    VD84000000011014 N  599977384801                            000000000+                F DF 10433                     000000000  Y000000000 338   0000000000000.00 0000000.00   0000000.00                             000000000000000                                                                                                                                                     01424 A000000000000 0000000000000.28     00050 02200                  
00003820471160019DT67590675900000009092800101800000010180010124001193110900013500178042020230000001931411023000000000238165427082XXXXXX4724       VS11    0001111   NYV1 A E383110638266593N840000000019314CTKX00    05DNPLANET VAPOR INC #500    020433    VS84000000019314 N  599977384801                            000000000+                D CD 12113                     000000000  N000000000 499   0000000000000.00 0000000.00   0000000.00                             000000000000000                                                                                                                                                     01424 A000000000000 0000000000004.16     02100 01000                  
00003830471160020DT67590675900000009092800101800000010180010124001193110900013500186042020230000000188911023000000000238165440393XXXXXX6240       VS11    0001111   NYV1 A E383110643237403N840000000001889W64M00    05DNPLANET VAPOR INC #500    339610    VD84000000001889 N  599977384801                            000000000+                F PF 08170                     000000000  N000000000       0000000000000.00 0000000.00   0000000.00                             000000000000000                                                                                                                                                     01424 A000000000000 0000000000000.37     01150 01500                  
00003840471160021DT67590675900000009092800101800000010180010177287283110900013500196042020230000000269911023000000000238165517805XXXXXX9215       MS02WI09          NY 1 0 AMWEAHSV0F0420  N840000000002699          05DNPLANET VAPOR INC #500    08114P    MC84000000002699 N  599977384801                            000000000+M10101C5434C    MWE  00739                     000000000  N                0000000000000.00 0000000.00   0000000.00                             000000000000000                                                                                                                                                   B101424  000000000000 0000000000000.72     02300 01000                  
00003850471160022DT67590675900000009092800101800000010180010177287283110900013500204042020230000000137611023000000000238165514377XXXXXX7410       MS02WI09          NY 1 0 AMDJSKA5UC0420  N840000000001376          05DNPLANET VAPOR INC #500    15SLNU    MD84000000001376 N  599977384801                            000000000+M10101C5434C    MDJ  00402                     000000000  N                0000000000000.00 0000000.00   0000000.00                             000000000000000                                                                                                                                                   B101424  000000000000 0000000000000.29     01050 01500                  
00003860471160023DT67590675900000009092800101800000010180010124001193110900013500210042020230000000275211023000000000238165433477XXXXXX4438       VS11    0001111   NYV1 A E583110675757542N8400000000027524M3700    05DNPLANET VAPOR INC #500    666468    VD84000000002752 N  599977384801                            000000000+                F DF 10433                     000000000  Y000000000 338   0000000000000.00 0000000.00   0000000.00                             000000000000000                                                                                                                                                     01424 A000000000000 0000000000000.23     00050 02200                  
00003870471160024DT67590675900000009092800101800000010180010124001193110900013500228042020230000000439911023000000000238165466189XXXXXX1969       VS11    0001111   NYV1 A E583110679551642N840000000004399JCTW00    07DNPLANET VAPOR INC #500    052813    VD84000000004399 N  599977384801                            000000000+                F DF 10433                     000000000  Y000000000 338   0000000000000.00 0000000.00   0000000.00                             000000000000000                                                                                                                                                     01424 A000000000000 0000000000000.24     00050 02200                  
00003880471160025DT67590675900000009092800101800000010180010124001193110900013500236042020230000000302711023000000000238165448968XXXXXX9753       VS11    0001111   NYV1 A E463110700637249N840000000003027K26S00    07DNPLANET VAPOR INC #500    378522    VD84000000003027 N  599977384801                            000000000+                F DF 00381                     000000000  N000000000       0000000000000.00 0000000.00   0000000.00                             000000000000000                                                                                                                                                     01424 A000000000000 0000000000000.39     00800 01500                  
00003890471160026DT67590675900000009092800101800000010180010124001193110900013500244042020230000000826111023000000000238165433477XXXXXX5059       VS11    0001111   NYV1 A E383110705196379N840000000008261FR2H00    05DNPLANET VAPOR INC #500    714935    VD84000000008261 N  599977384801                            000000000+                F DF 10433                     000000000  Y000000000 338   0000000000000.00 0000000.00   0000000.00                             000000000000000                                                                                                                                                     01424 A000000000000 0000000000000.26     00050 02200                  
00003900471160027DT67590675900000009092800101800000010180010124001193110900013500251042020230000000269811023000000000238165433477XXXXXX5059       VS11    0001111   NYV1 A E383110705790759N8400000000026985GTB00    05DNPLANET VAPOR INC #500    715932    VD84000000002698 N  599977384801                            000000000+                F DF 10433                     000000000  Y000000000 338   0000000000000.00 0000000.00   0000000.00                             000000000000000                                                                                                                                                     01424 A000000000000 0000000000000.23     00050 02200                  
00003910471160028DT67590675900000009092800101800000010180010177287283110900013500261042020230000000215811023000000000238165531258XXXXXX3856       MS02WI09          NY 1 0 AMDJVZYK0E0420  N840000000002158          07DNPLANET VAPOR INC #500    134309    MD84000000002158 N  599977384801                            000000000+M10101M0034C    MDJ  10815                     000000000  1                0000000000000.00 0000000.00   0000000.00                             000000000000000                                                                                                                                                   B101424  000000000000 0000000000000.23     00050 02200                  
00003920471160029DT67590675900000009092800101800000010180010124001193110900013500277042020230000000636911023000000000238165441707XXXXXX5214       VS11    0001111   NYV1 A E383110711128984N840000000006369D2SP00    07DNPLANET VAPOR INC #500    258202    VD84000000006369 N  599977384801                            000000000+                F PF 08170                     000000000  N000000000       0000000000000.00 0000000.00   0000000.00                             000000000000000                                                                                                                                                     01424 A000000000000 0000000000000.88     01150 01500                  
00003930471160030DT67590675900000009092800101800000010180010124001193110900013500285042020230000000421011023000000000238165433477XXXXXX4394       VS11    0001111   NYV1 A E303110712366185N840000000004210XGJD00    05DNPLANET VAPOR INC #500    726866    VD84000000004210 N  599977384801                            000000000+                F DF 10433                     000000000  Y000000000 338   0000000000000.00 0000000.00   0000000.00                             000000000000000                                                                                                                                                     01424 A000000000000 0000000000000.24     00050 02200                  
00003940471160031DT67590675900000009092800101800000010180010124001193110900013500293042020230000000596511023000000000238165478373XXXXXX5339       VS11    0001111   NYV1 A E303110734428044N840000000005965QDQQ00    05DNPLANET VAPOR INC #500    052403    VD84000000005965 N  599977384801                            000000000+                F DF 10433                     000000000  Y000000000 338   0000000000000.00 0000000.00   0000000.00                             000000000000000                                                                                                                                                     01424 A000000000000 0000000000000.25     00050 02200                  
00003950471160032DT67590675900000009092800101800000010180010124001193110900013500301042020230000000480811023000000000238165430602XXXXXX9696       VS11    0001111   NYV1 A E583110735934819N8400000000048084NTB00    05DNPLANET VAPOR INC #500    388885    VD84000000004808 N  599977384801                            000000000+                F DF 00381                     000000000  N000000000       0000000000000.00 0000000.00   0000000.00                             000000000000000                                                                                                                                                     01424 A000000000000 0000000000000.53     00800 01500                  
00003960471160033DT67590675900000009092800101800000010180010124001193110900013500319042020230000000432211023000000000238165410039XXXXXX1558       VS11    0001111   NYV1 A E463110744426885N840000000004322BN8600    07DNPLANET VAPOR INC #500    71014D    VS84000000004322 N  599977384801                            000000000+                D CD 12113                     000000000  N000000000 499   0000000000000.00 0000000.00   0000000.00                             000000000000000                                                                                                                                                     01424 A000000000000 0000000000001.01     02100 01000                  
00003970471160034DT67590675900000009092800101800000010180010177287283110900013500329042020230000000237411023000000000238165517805XXXXXX9659       MS02WI09          NY 1 0 AMPLXTJJ0E0420  N840000000002374          07DNPLANET VAPOR INC #500    01328B    MC84000000002374 N  599977384801                            000000000+M10101M0034C    MPL  00353                     000000000  N                0000000000000.00 0000000.00   0000000.00                             000000000000000                                                                                                                                                   B101424  000000000000 0000000000000.53     01800 01000                  
00003980471160035DT67590675900000009092800101800000010180010124001193110900013500335042020230000000269911023000000000238165473703XXXXXX3919       VS11    0001111   NYV1 A E303110756575048N84000000000269936CF00    07DNPLANET VAPOR INC #500    031133    VD84000000002699 N  599977384801                            000000000+                F DF 10433                     000000000  Y000000000 338   0000000000000.00 0000000.00   0000000.00                             000000000000000                                                                                                                                                     01424 A000000000000 0000000000000.23     00050 02200                  
00003990471160036DT67590675900000009092800101800000010180010177287283110900013500345042020230000000323811023000000000238165546616XXXXXX0398       MS02WI09          NY 1 0 AMCWDI9A1A0420  N840000000003238          05DNPLANET VAPOR INC #500    04592Z    MC84000000003238 N  599977384801                            000000000+M10101C5434C    MCW  00644                     000000000  N                0000000000000.00 0000000.00   0000000.00                             000000000000000                                                                                                                                                   B101424  000000000000 0000000000000.72     01900 01000                  
00004000471160037DT67590675900000009092800101800000010180010124001193110900013500350042020230000000323811023000000000238165474166XXXXXX8305       VS11    0001111   NYV1 A E303110773639589N840000000003238TJH900    05DNPLANET VAPOR INC #500    028800    VD84000000003238 N  599977384801                            000000000+                G DG 10351                     000000000  Y000000000 338   0000000000000.00 0000000.00   0000000.00                             000000000000000                                                                                                                                                     01424 A000000000000 0000000000000.24     00050 02200                  
00004010471160038DT67590675900000009092800101800000010180010124001193110900013500368042020230000000237511023000000000238165478975XXXXXX3801       VS11    0001111   NYV1 A E583110788184327N840000000002375LGTX00    05DNPLANET VAPOR INC #500    075338    VD84000000002375 N  599977384801                            000000000+                F DF 00381                     000000000  N000000000       0000000000000.00 0000000.00   0000000.00                             000000000000000                                                                                                                                                     01424 A000000000000 0000000000000.34     00800 01500                  
00004020471160039DT67590675900000009092800101800000010180010176509753110900013500374042020230000000075511023000000000238165601120XXXXXX8429   BA50                  NY41 0 N813094822892707N840000000000755    00    05DNPLANET VAPOR INC #500    02009B    DZ84000000000755 N  599977384801050                         000000000+0000004910H00   DMCDI01012664448  175809000000 000000000  0          124   0000000000000.00 0000000.00   0000000.00                             000000000000000                                                                                                                                                     01424  000000000000 0000000000000.33     02450 01500                  
00004030471160040DT67590675900000009092800101800000010180010124001193110900013500384042020230000001711311023000000000238165433477XXXXXX2677       VS11    0001111   NYV1 A E303110809961947N840000000017113X64G00    05DNPLANET VAPOR INC #500    890662    VD84000000017113 N  599977384801                            000000000+                F DF 10433                     000000000  Y000000000 338   0000000000000.00 0000000.00   0000000.00                             000000000000000                                                                                                                                                     01424 A000000000000 0000000000000.31     00050 02200                  
00004040471160041DT67590675900000009092800101800000010180010124001193110900013500392042020230000000237511023000000000238165438419XXXXXX6276       VS11    0001111   NYV1 A E383110813496264N840000000002375GPTK00    05DNPLANET VAPOR INC #500    083550    VD84000000002375 N  599977384801                            000000000+                F DF 00381                     000000000  N000000000       0000000000000.00 0000000.00   0000000.00                             000000000000000                                                                                                                                                     01424 A000000000000 0000000000000.34     00800 01500                  
00004050471160042DT67590675900000009092800101800000010180010173011003110900013500406042020230000000475011023000000000238165377481XXXXX1229                          NY 1 0 N004800640833306N840000000004750          05DNPLANET VAPOR #500        323020    AM84000000004750 Y  599977384801                            000000000+51010155434C 258     11261                     000000000                   0000000000000.00 0000000.00   0000000.00                             000000000000000 61248972086759675900000009092 PLANET VAPOR #500        1001 KINLEY RD UNIT A    8035462263      29063     KEVIN@MOOREDISTRO.COM                     01324  000000000000 0000000000000.86     01600 00000                  
00004060471160043DT67590675900000009092800101800000010180010173011003110900013500414042020230000001101211023000000000238165377481XXXXX1229                          NY 1 0 N007796077173066N840000000011012          05DNPLANET VAPOR #500        815020    AM84000000011012 Y  599977384801                            000000000+51010155434C 258     11262                     000000000                   0000000000000.00 0000000.00   0000000.00                             000000000000000 61248972086759675900000009092 PLANET VAPOR #500        1001 KINLEY RD UNIT A    8035462263      29063     KEVIN@MOOREDISTRO.COM                     01324  000000000000 0000000000002.25     01950 00000                  
00004070471160044DT67590675900000009092800101800000010180010124001193110900013500426042020230000000714711023000000000238165474474XXXXXX6904       VS11    0001111   NYV1 A E383110822878901N84000000000714746F700    05DNPLANET VAPOR INC #500    135610    VD84000000007147 N  599977384801                            000000000+                F DF 10433                     000000000  Y000000000 338   0000000000000.00 0000000.00   0000000.00                             000000000000000                                                                                                                                                     01424 A000000000000 0000000000000.26     00050 02200                  
00004080471160045DT67590675900000009092800101800000010180010124001193110900013500434042020230000000566711023000000000238165474474XXXXXX2230       VS11    0001111   NYV1 A E383110830277064N8400000000056674VVM00    05DNPLANET VAPOR INC #500    150332    VD84000000005667 N  599977384801                            000000000+                F DF 10433                     000000000  Y000000000 338   0000000000000.00 0000000.00   0000000.00                             000000000000000                                                                                                                                                     01424 A000000000000 0000000000000.25     00050 02200                  
00004090471160046DT67590675900000009092800101800000010180010177287283110900013500444042020230000000458911023000000000238165531258XXXXXX7836       MS02WI09          NY 1 0 AMDJJKU4XB0420  N840000000004589          05DNPLANET VAPOR INC #500    141647    MD84000000004589 N  599977384801                            000000000+M10101C5434C    MDJ  10815                     000000000  1                0000000000000.00 0000000.00   0000000.00                             000000000000000                                                                                                                                                   B101424  000000000000 0000000000000.24     00050 02200                  
00004100471160047DT67590675900000009092800101800000010180010177287283110900013500451042020230000000277911023000000000238165528680XXXXXX5925       MS02WI09          NY 1 0 AMDJM2F4WJ0420  N840000000002779          05DNPLANET VAPOR INC #500    166364    MD84000000002779 N  599977384801                            000000000+M10101C5434C    MDJ  00402                     000000000  N                0000000000000.00 0000000.00   0000000.00                             000000000000000                                                                                                                                                   B101424  000000000000 0000000000000.44     01050 01500                  
00004110471160048DT67590675900000009092800101800000010180010177287283110900013500469042020230000000475011023000000000238165528149XXXXXX4072       MS02WI09          NY 1 0 AMDJT4F6WJ0420  N840000000004750          05DNPLANET VAPOR INC #500    070652    MD84000000004750 N  599977384801                            000000000+M10101C5434C    MDJ  00402                     000000000  N                0000000000000.00 0000000.00   0000000.00                             000000000000000                                                                                                                                                   B101424  000000000000 0000000000000.65     01050 01500                  
00004120471160049DT67590675900000009092800101800000010180010124001193110900013500475042020230000000349711023000000000238165461675XXXXXX6294       VS11    0001111   NYV1 A E383110852886553N840000000003497H4QD00    05DNPLANET VAPOR INC #500    886420    VD84000000003497 N  599977384801                            000000000+                F DF 00381                     000000000  N000000000       0000000000000.00 0000000.00   0000000.00                             000000000000000                                                                                                                                                     01424 A000000000000 0000000000000.43     00800 01500                  
00004130471160050DT67590675900000009092800101800000010180010124001193110900013500483042020230000000475011023000000000238165400022XXXXXX9353       VS11    0001111   NYV1 A E383110853884662N840000000004750K6VZ00    05DNPLANET VAPOR INC #500    496131    VD84000000004750 N  599977384801                            000000000+                F DF 10433                     000000000  Y000000000 338   0000000000000.00 0000000.00   0000000.00                             000000000000000                                                                                                                                                     01424 A000000000000 0000000000000.24     00050 02200                  
00004140471160051DT67590675900000009092800101800000010180010124001193110900013500491042020230000000507411023000000000238165473703XXXXXX9895       VS11    0001111   NYV1 A E583110854822821N840000000005074478200    05DNPLANET VAPOR INC #500    093801    VD84000000005074 N  599977384801                            000000000+                F DF 10433                     000000000  Y000000000 338   0000000000000.00 0000000.00   0000000.00                             000000000000000                                                                                                                                                     01424 A000000000000 0000000000000.25     00050 02200                  
00004150471160052BH6759067590000001619680010280000090170420202311023000000000198125    0000090001100116Y8001026759C04212023                                                                                                                                                                                                                                                                                                                                                                                                                                                                                                                                                                                                 
00004160471160053DT67590675900000016196800102800000010180010287287283110900011000628041920230000001987011023000000000198125555426XXXXXX2148       ME03KE06MS02      NY 4607AMPGZ1J5BP0419  N840000000019870          81DNGREEN OTTER LLC          090436    MD84000000019870 N  549977424386   2D1EDF6879T397878162A0E  000000000+600450S00130    MPG  09899                     000000000  N                0000000000000.00 0000000.00   0000000.00                             000000000000000                                                                                                                                                   U001424  000000000000 0000000000003.70     01760 02000                  
00004170471160054DT67590675900000016196800102800000010180010224001193110900011000650041920230000001281911023000000000198125400767XXXXXX3826               2111111   NYV4 A7W463110060661514N8400000000128196MG700    01DNGREEN OTTER LLC          000155    VD84000000012819 NP1549977424386   71B57B3643T6133F27D96D0  000000000+                F PF 08175                     000000000  N000000000       0000000000000.00 0000000.00   0000000.00                             000000000000000                                                                                                                                                     01424 G000000012819 0000000000002.44     01750 02000                  
00004180471160001P16759067590000001619680010280000001010000000000000000                             2000000000000000000000000              000000000000                    0000000000000000000000000                    000000000000                                                                                                                                                                                                                                                                                                                                                                                                                                                                                        
00004190471160055DT67590675900000016196800102800000010180010224001193110900011000718042020230000001987011023000000000198125461100XXXXXX6816               2111111   NYV4 A7W383110540113100N840000000019870BBMV00    01DNGREEN OTTER LLC          155806    VD84000000019870 NP1549977424386   D9CE1D5E75T0E022F348BA4  000000000+                F DF 10420                     000000000  Y000000000 338   0000000000000.00 0000000.00   0000000.00                             000000000000000                                                                                                                                                     01424 G000000019870 0000000000000.32     00050 02200                  
00004200471160001P16759067590000001619680010280000001010000000000000000                             2000000000000000000000000              000000000000                    0000000000000000000000000                    000000000000                                                                                                                                                                                                                                                                                                                                                                                                                                                                                        
00004210471160056DT67590675900000016196800102800000010180010224001193110900011000783042020230000001589011023000000000198125474478XXXXXX5718               2111111   NYV4 A7W583110558629397N8400000000158907ZB200    01DNGREEN OTTER LLC          143412    VD84000000015890 NP1549977424386   532D058B2DT6466CB4DFEF9  000000000+                F DF 10420                     000000000  Y000000000 338   0000000000000.00 0000000.00   0000000.00                             000000000000000                                                                                                                                                     01424 G000000015890 0000000000000.30     00050 02200                  
00004220471160001P16759067590000001619680010280000001010000000000000000                             2000000000000000000000000              000000000000                    0000000000000000000000000                    000000000000                                                                                                                                                                                                                                                                                                                                                                                                                                                                                        
00004230471160057DT67590675900000016196800102800000010180010224001193110900011000791042020230000001987011023000000000198125473702XXXXXX4277               2111111   NYV4 A7W383110561040536N840000000019870TZ6900    01DNGREEN OTTER LLC          007916    VD84000000019870 NP1549977424386   3F03E0DCBAT21C688072F0B  000000000+                F DF 10420                     000000000  Y000000000 338   0000000000000.00 0000000.00   0000000.00                             000000000000000                                                                                                                                                     01424 G000000019870 0000000000000.32     00050 02200                  
00004240471160001P16759067590000001619680010280000001010000000000000000                             2000000000000000000000000              000000000000                    0000000000000000000000000                    000000000000                                                                                                                                                                                                                                                                                                                                                                                                                                                                                        
00004250471160058DT67590675900000016196800102800000010680010274001193110900011000812042020230000000499711023000000000198125474478XXXXXX5718               0000000   NYV4 07T303110585155435N84000000000499798BF00    01CNGREEN OTTER LLC          959886    VD84000000004997 NP1549977424386   532D058B2DT6466CB4DFEF9  000000000+                F DF 08168                     000000000  Y000000000 369   0000000000000.00 0000000.00   0000000.00                             000000000000000                                                                                                                                                     01424  000000004997 0000000000000.00     00000 00000                  
00004260471160001P16759067590000001619680010280000001060000000000000000                             2000000000000000000000000              000000000000                    0000000000000000000000000                    000000000000                                                                                                                                                                                                                                                                                                                                                                                                                                                                                        
00004270471160059DT67590675900000016196800102800000010180010287287283110900011000826042020230000000599911023000000000198125514750XXXXXX8066       ME03KE06MS02      NY 4607AMDJP4W4RN0420  N840000000005999          81DNGREEN OTTER LLC          013621    MD84000000005999 N  549977424386   A0D8F485DATAAAFBEEB7503  000000000+600450S00130    MDJ  10813                     000000000  1                0000000000000.00 0000000.00   0000000.00                             000000000000000                                                                                                                                                   U001424  000000000000 0000000000000.25     00050 02200                  
00004280471160060DT67590675900000016196800102800000010180010287287283110900011000834042020230000001380811023000000000198125542179XXXXXX9080       ME03KE06MS02      NY 4607AMDJQ7PURN0420  N840000000013808          81DNGREEN OTTER LLC          715572    MD84000000013808 N  549977424386   91E63C38D1T2BA4D58AE4F5  000000000+600450S00130    MDJ  10813                     000000000  1                0000000000000.00 0000000.00   0000000.00                             000000000000000                                                                                                                                                   U001424  000000000000 0000000000000.29     00050 02200                  
00004290471160061DT67590675900000016196800102800000010180010287287283110900011000867042020230000001200811023000000000198125542418XXXXXX2742       ME03KE06MS02      NY 4607AMPLUAXQ0A0420  N840000000012008          81DNGREEN OTTER LLC          39348B    MC84000000012008 N  549977424386   2DDC0D9CF4TA2C2CF39C2AA  000000000+600450S00130    MPL  00580                     000000000  N                0000000000000.00 0000000.00   0000000.00                             000000000000000                                                                                                                                                   U001424  000000000000 0000000000002.62     02100 01000                  
00004300471160062DT67590675900000016196800102800000010180010224001193110900011000916042020230000001314911023000000000198125423223XXXXXX2302               2111111   NYV4 A7W463110675052833N840000000013149N58J00    01DNGREEN OTTER LLC          083378    VD84000000013149 NP1549977424386   98084B14AETF58AD762EC94  000000000+                F DF 00415                     000000000  N000000000       0000000000000.00 0000000.00   0000000.00                             000000000000000                                                                                                                                                     01424 G000000013149 0000000000002.32     01650 01500                  
00004310471160001P16759067590000001619680010280000001010000000000000000                             2000000000000000000000000              000000000000                    0000000000000000000000000                    000000000000                                                                                                                                                                                                                                                                                                                                                                                                                                                                                        
00004320471160063DT67590675900000016196800102800000010180010224001193110900011000965042020230000001272811023000000000198125470793XXXXXX9449               2111111   NYV4 A7W303110685602896N840000000012728BGV500    01DNGREEN OTTER LLC          020422    VS84000000012728 NP1549977424386   6291A1E152T01425BC706AD  000000000+                B CB 12107                     000000000  N000000000 494   0000000000000.00 0000000.00   0000000.00                             000000000000000                                                                                                                                                     01424 G000000012728 0000000000002.70     02040 01000                  
00004330471160001P16759067590000001619680010280000001010000000000000000                             2000000000000000000000000              000000000000                    0000000000000000000000000                    000000000000                                                                                                                                                                                                                                                                                                                                                                                                                                                                                        
00004340471160064DT67590675900000016196800102800000010180010224001193110900011000973042020230000001799111023000000000198125434257XXXXXX8778               2111111   NYV4 A7W583110690042094N840000000017991HDW900    01DNGREEN OTTER LLC          013972    VD84000000017991 NP1549977424386   9CE5082129T22FECB977ACF  000000000+                F DF 10420                     000000000  Y000000000 338   0000000000000.00 0000000.00   0000000.00                             000000000000000                                                                                                                                                     01424 G000000017991 0000000000000.31     00050 02200                  
00004350471160001P16759067590000001619680010280000001010000000000000000                             2000000000000000000000000              000000000000                    0000000000000000000000000                    000000000000                                                                                                                                                                                                                                                                                                                                                                                                                                                                                        
00004360471160065DT67590675900000016196800102800000010180010224001193110900011001062042020230000001925011023000000000198125410274XXXXXX9441               2111111   NYV4 A7W383110725804376N840000000019250MRM300    01DNGREEN OTTER LLC          498426    VD84000000019250 NP1549977424386   7BF9DFDFB4TFC8870357C78  000000000+                G DG 08705                     000000000  N000000000       0000000000000.00 0000000.00   0000000.00                             000000000000000                                                                                                                                                     01424 G000000019250 0000000000004.82     02450 01000                  
00004370471160001P16759067590000001619680010280000001010000000000000000                             1000000001259000000000000              000000000000                    0000000000000000000000000                    000000000000                                                                                                                                                                                                                                                                                                                                                                                                                                                                                        
00004380471160066DT67590675900000016196800102800000010180010224001193110900011001161042020230000001987011023000000000198125426938XXXXXX4895               2111111   NYV4 A7W583110863089832N8400000000198703RJ600    01DNGREEN OTTER LLC          020962    VS84000000019870 NP1549977424386   31CAA047E7TE4B9F0998388  000000000+                B CB 12107                     000000000  N000000000 494   0000000000000.00 0000000.00   0000000.00                             000000000000000                                                                                                                                                     01424 G000000019870 0000000000004.15     02040 01000                  
00004390471160001P16759067590000001619680010280000001010000000000000000                             2000000000000000000000000              000000000000                    0000000000000000000000000                    000000000000                                                                                                                                                                                                                                                                                                                                                                                                                                                                                        
00004400471160067BH6759067590000001767380010680000090170420202311023000000000166362    0000090001241014Y8001066759C04212023                                                                                                                                                                                                                                                                                                                                                                                                                                                                                                                                                                                                 
00004410471160068DT67590675900000017673800106800000010180010624001193110900012409926042020230000002396911023000000000166362414718XXXXXX3664               2111111   NYV4 A7W463110181720633N8400000000239694Q3400    01DNVGHEMP.COM833-246-5225   020968    VS84000000023969 NP1549977427364   A97954AA1DT0BE23AF4B61F  000000000+                D CD 12109                     000000000  N000000000 498   0000000000000.00 0000000.00   0000000.00                             000000000000000                                                                                                                                                     01424 G000000023969 0000000000006.09     02500 01000                  
00004420471160001P16759067590000001767380010680000001010000000000000000                             2000000000000000000000000              000000000000                    0000000000000000000000000                    000000000000                                                                                                                                                                                                                                                                                                                                                                                                                                                                                        
00004430471160069DT67590675900000017673800106800000010180010624001193110900012409934042020230000000544911023000000000166362414718XXXXXX3664               2111111   NYV4 A7W463110182014294N840000000005449X68200    01DNVGHEMP.COM833-246-5225   020257    VS84000000005449 NP1549977427364   A97954AA1DT230E0533861E  000000000+                D CD 12109                     000000000  N000000000 498   0000000000000.00 0000000.00   0000000.00                             000000000000000                                                                                                                                                     01424 G000000005449 0000000000001.46     02500 01000                  
00004440471160001P16759067590000001767380010680000001010000000000000000                             2000000000000000000000000              000000000000                    0000000000000000000000000                    000000000000                                                                                                                                                                                                                                                                                                                                                                                                                                                                                        
00004450471160070DT67590675900000017673800106800000010180010624001193110900012409967042020230000002178911023000000000166362414720XXXXXX8594               2111111   NYV4 A7W463110509406707N8400000000217895JHK00    01DNVGHEMP.COM833-246-5225   07032C    VS84000000021789 NP1549977427364   F83A928C1ET1AB9EE8CEB7A  000000000+                C CC 12108                     000000000  N000000000 496   0000000000000.00 0000000.00   0000000.00                             000000000000000                                                                                                                                                     01424 G000000021789 0000000000004.57     02050 01000                  
00004460471160001P16759067590000001767380010680000001010000000000000000                             2000000000000000000000000              000000000000                    0000000000000000000000000                    000000000000                                                                                                                                                                                                                                                                                                                                                                                                                                                                                        
00004470471160071DT67590675900000017673800106800000010180010624001193110900012409975042020230000002037411023000000000166362439707XXXXXX7824               2111111   NYV4 A7W583110533510343N840000000020374LMXN00    01DNVGHEMP.COM833-246-5225   07358C    VS84000000020374 NP1549977427364   79ABADC8E5T4B3522256D3A  000000000+                C CC 12108                     000000000  N000000000 496   0000000000000.00 0000000.00   0000000.00                             000000000000000                                                                                                                                                     01424 G000000020374 0000000000004.28     02050 01000                  
00004480471160001P16759067590000001767380010680000001010000000000000000                             2000000000000000000000000              000000000000                    0000000000000000000000000                    000000000000                                                                                                                                                                                                                                                                                                                                                                                                                                                                                        
00004490471160072DT67590675900000017673800106800000010180010624001193110900012410031042020230000002178911023000000000166362426290XXXXXX7297               2111111   NYV4 A7W583110608291980N840000000021789B5VB00    01DNVGHEMP.COM833-246-5225   00495B    VS84000000021789 NP1549977427364   C8DAB3A1B0TE01B0D4474CD  000000000+                B CB 12107                     000000000  N000000000 494   0000000000000.00 0000000.00   0000000.00                             000000000000000                                                                                                                                                     01424 G000000021789 0000000000004.54     02040 01000                  
00004500471160001P16759067590000001767380010680000001010000000000000000                             2000000000000000000000000              000000000000                    0000000000000000000000000                    000000000000                                                                                                                                                                                                                                                                                                                                                                                                                                                                                        
00004510471160073DT67590675900000017673800106800000010180010687287283110900012410081042020230000002178911023000000000166362525475XXXXXX2604       ME03KE06MS02      NY 4607AMWEW8D00A0420  N840000000021789          81DNVGHEMP.COM833-246-5225   37690Z    MC84000000021789 N  549977427364   36A3C30A9FT83E156AE6458  000000000+600450S00130    MWE  00737                     000000000  N                0000000000000.00 0000000.00   0000000.00                             000000000000000                                                                                                                                                   U001424  000000000000 0000000000005.77     02600 01000                  
00004520471160074DT67590675900000017673800106800000010180010687287283110900012410099042020230000000544911023000000000166362525475XXXXXX2604       ME03KE06MS02      NY 4607AMWEUMTBUC0420  N840000000005449          81DNVGHEMP.COM833-246-5225   74428Z    MC84000000005449 N  549977427364   36A3C30A9FTC24657D9D7BE  000000000+600450S00130    MWE  00737                     000000000  N                0000000000000.00 0000000.00   0000000.00                             000000000000000                                                                                                                                                   U001424  000000000000 0000000000001.52     02600 01000                  
00004530471160075DT67590675900000017673800106800000010180010624001193110900012410106042020230000002178911023000000000166362438919XXXXXX6756               2111111   NYV4 A7W303110734801679N840000000021789KVX600    01DNVGHEMP.COM833-246-5225   052440    VD84000000021789 NP1549977427364   0A39E25C75TF6262171458F  000000000+                F DF 00415                     000000000  N000000000       0000000000000.00 0000000.00   0000000.00                             000000000000000                                                                                                                                                     01424 G000000021789 0000000000003.75     01650 01500                  
00004540471160001P16759067590000001767380010680000001010000000000000000                             2000000000000000000000000              000000000000                    0000000000000000000000000                    000000000000                                                                                                                                                                                                                                                                                                                                                                                                                                                                                        
00004550471160076DT67590675900000017673800106800000010180010624001193110900012410114042020230000000544911023000000000166362438919XXXXXX6756               2111111   NYV4 A7W303110735013891N840000000005449B8ZX00    01DNVGHEMP.COM833-246-5225   052501    VD84000000005449 NP1549977427364   0A39E25C75T01B57490B305  000000000+                F DF 00415                     000000000  N000000000       0000000000000.00 0000000.00   0000000.00                             000000000000000                                                                                                                                                     01424 G000000005449 0000000000001.05     01650 01500                  
00004560471160001P16759067590000001767380010680000001010000000000000000                             2000000000000000000000000              000000000000                    0000000000000000000000000                    000000000000                                                                                                                                                                                                                                                                                                                                                                                                                                                                                        
00004570471160077DT67590675900000017673800106800000010180010624001193110900012410130042020230000001306711023000000000166362467055XXXXXX1112               2111111   NYV4 A7W383110747256384N840000000013067QSLX00    01DNVGHEMP.COM833-246-5225   157683    VD84000000013067 NP1549977427364   19F605D2D5TF3922FF235C0  000000000+                F DF 00415                     000000000  N000000000       0000000000000.00 0000000.00   0000000.00                             000000000000000                                                                                                                                                     01424 G000000013067 0000000000002.31     01650 01500                  
00004580471160001P16759067590000001767380010680000001010000000000000000                             2000000000000000000000000              000000000000                    0000000000000000000000000                    000000000000                                                                                                                                                                                                                                                                                                                                                                                                                                                                                        
00004590471160078DT67590675900000017673800106800000010180010624001193110900012410148042020230000000544911023000000000166362467055XXXXXX1112               2111111   NYV4 A7W383110747538930N840000000005449N6PW00    01DNVGHEMP.COM833-246-5225   158179    VD84000000005449 NP1549977427364   19F605D2D5T40F4CE099087  000000000+                F DF 00415                     000000000  N000000000       0000000000000.00 0000000.00   0000000.00                             000000000000000                                                                                                                                                     01424 G000000005449 0000000000001.05     01650 01500                  
00004600471160001P16759067590000001767380010680000001010000000000000000                             2000000000000000000000000              000000000000                    0000000000000000000000000                    000000000000                                                                                                                                                                                                                                                                                                                                                                                                                                                                                        
00004610471160079BH6759067590000001330080010280000090170420202311023000000000476249    0000090001648298Y8001026759C04212023                                                                                                                                                                                                                                                                                                                                                                                                                                                                                                                                                                                                 
00004620471160080DT67590675900000013300800102800000010180010287287283110900016475296041920230000002174811023000000000476249510805XXXXXX4430       ME03KE06MS02      NY 4607AMDJ08K15J0416  N840000000021748          81DNCBD8666317293            020727    MD84000000021748 N  549977133133   4165D265A1T3EB249070E4B  000000000+600450S00130    MDJ  10813                     000000000  1                0000000000000.00 0000000.00   0000000.00                             000000000000000                                                                                                                                                   U001424  000000000000 0000000000000.33     00050 02200                  
00004630471160081DT67590675900000013300800102800000010180010224001193110900016475410041920230000000600411023000000000476249422323XXXXXX4158               2111111   NYV4 A7W463106354049747N840000000006004883P00    01DNCBD8666317293            405297    VD84000000006004 NP1549977133133   815B674E5CTBA593BEDEFB7  000000000+                F DF 10420                     000000000  Y000000000 338   0000000000000.00 0000000.00   0000000.00                             000000000000000                                                                                                                                                     01424 G000000006004 0000000000000.25     00050 02200                  
00004640471160001P16759067590000001330080010280000001010000000000000000                             2000000000000000000000000              000000000000                    0000000000000000000000000                    000000000000                                                                                                                                                                                                                                                                                                                                                                                                                                                                                        
00004650471160082DT67590675900000013300800102800000010180010287287283110900016476203041920230000001987011023000000000476249546184XXXXXX7605       ME03KE06MS02      NY 4607AMDJR2X7XY0416  N840000000019870          81DNCBD8666317293            041626    MD84000000019870 N  549977133133   864DC41337T4E3231C51273  000000000+600450S00130    MDJ  00401                     000000000  N                0000000000000.00 0000000.00   0000000.00                             000000000000000                                                                                                                                                   U001424  000000000000 0000000000003.43     01650 01500                  
00004660471160083DT67590675900000013300800102800000010180010287287283110900016476237041920230000000600411023000000000476249521333XXXXXX4762       ME03KE06MS02      NY 4607AMWETG4HXY0416  N840000000006004          81DNCBD8666317293            01694Y    MC84000000006004 N  549977133133   9D461517A5T6208BC72991B  000000000+600450S00130    MWE  00642                     000000000  N                0000000000000.00 0000000.00   0000000.00                             000000000000000                                                                                                                                                   U001424  000000000000 0000000000001.42     02200 01000                  
00004670471160084DT67590675900000013300800102800000010180010287287283110900016476336041920230000001589011023000000000476249518941XXXXXX1159       ME03KE06MS02      NY 4607AMWEZ6OKXY0416  N840000000015890          81DNCBD8666317293            20750Z    MC84000000015890 N  549977133133   F54441AFDFT575D56D75263  000000000+600450S00130    MWE  00737                     000000000  N                0000000000000.00 0000000.00   0000000.00                             000000000000000                                                                                                                                                   U001424  000000000000 0000000000004.23     02600 01000                  
00004680471160085DT67590675900000013300800102800000010180010224001193110900016476343041920230000000700411023000000000476249429475XXXXXX6551               2111111   NYV4 A7W383106774044826N840000000007004N3R900    01DNCBD8666317293            067045    VD84000000007004 NP1549977133133   11EB4E40FCT56D703B13F4A  000000000+                G DG 10352                     000000000  Y000000000 338   0000000000000.00 0000000.00   0000000.00                             000000000000000                                                                                                                                                     01424 G000000007004 0000000000000.26     00050 02200                  
00004690471160001P16759067590000001330080010280000001010000000000000000                             2000000000000000000000000              000000000000                    0000000000000000000000000                    000000000000                                                                                                                                                                                                                                                                                                                                                                                                                                                                                        
00004700471160086DT67590675900000013300800102800000010180010287287283110900016476385041920230000001799111023000000000476249512107XXXXXX1028       ME03KE06PT01      NY 4607AMCWAB5J8E0416  N840000000017991          81DNCBD8666317293            01622T    MC84000000017991 N  549977133133   842A32C30BT4FA86453DBA0  000000000+600450S00130    MCW  02182                     000000000  N                0000000000000.00 0000000.00   0000000.00                             000000000000000                                                                                                                                                   U001424  000000000000 0000000000004.78     02600 01000                  
00004710471160087DT67590675900000013300800102800000010180010287287283110900016476864041920230000001499111023000000000476249517800XXXXXX4612       ME03KE06MS02      NY 4607AMCSU83NZN0416  N840000000014991          81DNCBD8666317293            016317    MC84000000014991 N  549977133133   6CA7D0FDB4TAEDA55B5FE0D  000000000+600450S00130    MCS  00013                     000000000  N                0000000000000.00 0000000.00   0000000.00                             000000000000000                                                                                                                                                   U001424  000000000000 0000000000003.02     01950 01000                  
00004720471160088DT67590675900000013300800102800000010180010224001193110900016476889041920230000000700411023000000000476249414720XXXXXX7678               2111111   NYV4 A7W583107102032800N8400000000070045C4500    01DNCBD8666317293            00112D    VS84000000007004 NP1549977133133   10CF00437AT39CC3B4C6C8C  000000000+                D CD 12109                     000000000  N000000000 498   0000000000000.00 0000000.00   0000000.00                             000000000000000                                                                                                                                                     01424 G000000007004 0000000000001.85     02500 01000                  
00004730471160001P16759067590000001330080010280000001010000000000000000                             2000000000000000000000000              000000000000                    0000000000000000000000000                    000000000000                                                                                                                                                                                                                                                                                                                                                                                                                                                                                        
00004740471160089DT67590675900000013300800102800000010180010224001193110900016480782041920230000000319911023000000000476249430665XXXXXX0620               2111111   NYV4 A7W583110006563066N840000000003199WLR700    01DNCBD8666317293            071056    VD84000000003199 NP1549977133133   9E86F5F989T3464FE78BE2F  000000000+                F DF 00415                     000000000  N000000000       0000000000000.00 0000000.00   0000000.00                             000000000000000                                                                                                                                                     01424 G000000003199 0000000000000.68     01650 01500                  
00004750471160001P16759067590000001330080010280000001010000000000000000                             2000000000000000000000000              000000000000                    0000000000000000000000000                    000000000000                                                                                                                                                                                                                                                                                                                                                                                                                                                                                        
00004760471160090DT67590675900000013300800102800000010180010287287283110900016480791041920230000001987011023000000000476249525363XXXXXX2481       ME03KE06MS02      NY 4607AMWELN4ZBD0419  N840000000019870          81DNCBD8666317293            31774Z    MC84000000019870 N  549977133133   11899B9491T07CF1BD515FC  000000000+600450S00130    MWE  00737                     000000000  N                0000000000000.00 0000000.00   0000000.00                             000000000000000                                                                                                                                                   U001424  000000000000 0000000000005.27     02600 01000                  
00004770471160091DT67590675900000013300800102800000010180010287287283110900016480841041920230000000552411023000000000476249528749XXXXXX0707       ME03KE06MS02      NY 4607AMDJUK5Q2X0419  N840000000005524          81DNCBD8666317293            288073    MD84000000005524 N  549977133133   7CF13640D6T675C2CFF0279  000000000+600450S00130    MDJ  10813                     000000000  1                0000000000000.00 0000000.00   0000000.00                             000000000000000                                                                                                                                                   U001424  000000000000 0000000000000.25     00050 02200                  
00004780471160092DT67590675900000013300800102800000010180010224001193110900016480881041920230000001284911023000000000476249485340XXXXXX4086               2111111   NYV4 A7W383110041935460N8400000000128496XWS00    01DNCBD8666317293            180953    VD84000000012849 NP1549977133133   01DFC496C2TD9BC379DB3A6  000000000+                F PF 08175                     000000000  N000000000       0000000000000.00 0000000.00   0000000.00                             000000000000000                                                                                                                                                     01424 G000000012849 0000000000002.45     01750 02000                  
00004790471160001P16759067590000001330080010280000001010000000000000000                             2000000000000000000000000              000000000000                    0000000000000000000000000                    000000000000                                                                                                                                                                                                                                                                                                                                                                                                                                                                                        
00004800471160093DT67590675900000013300800102800000010180010287287283110900016480999041920230000001844111023000000000476249511308XXXXXX8714       ME03KE06MS02      NY 4607AMDJFHNG6Y0419  N840000000018441          81DNCBD8666317293            010725    MD84000000018441 N  549977133133   C1F361A8FCTBE91E00945E3  000000000+600450S00130    MDJ  10813                     000000000  1                0000000000000.00 0000000.00   0000000.00                             000000000000000                                                                                                                                                   U001424  000000000000 0000000000000.31     00050 02200                  
00004810471160094DT67590675900000013300800102800000010180010224001193110900016481046041920230000002118611023000000000476249443051XXXXXX6990               2111111   NYV4 A7W463110093056739N840000000021186BFTN00    01DNCBD8666317293            831892    VD84000000021186 NP1549977133133   E268816F1ETFE9800CD58F6  000000000+                F DF 10420                     000000000  Y000000000 338   0000000000000.00 0000000.00   0000000.00                             000000000000000                                                                                                                                                     01424 G000000021186 0000000000000.33     00050 02200                  
00004820471160001P16759067590000001330080010280000001010000000000000000                             2000000000000000000000000              000000000000                    0000000000000000000000000                    000000000000                                                                                                                                                                                                                                                                                                                                                                                                                                                                                        
00004830471160095DT67590675900000013300800102800000010180010224001193110900016481319042020230000001987011023000000000476249474472XXXXXX0662               2111111   NYV4 A7W583110198045276N84000000001987042GH00    01DNCBD8666317293            143601    VD84000000019870 NP1549977133133   C96247C9C1T1E8BF50B541D  000000000+                F DF 10420                     000000000  Y000000000 338   0000000000000.00 0000000.00   0000000.00                             000000000000000                                                                                                                                                     01424 G000000019870 0000000000000.32     00050 02200                  
00004840471160001P16759067590000001330080010280000001010000000000000000                             2000000000000000000000000              000000000000                    0000000000000000000000000                    000000000000                                                                                                                                                                                                                                                                                                                                                                                                                                                                                        
00004850471160096DT67590675900000013300800102800000010680010287287283110900016481518042020230000001499111023000000000476249542418XXXXXX7800                         NY 4607AMPLP3S3DK0420  N840000000014991          81CNCBD8666317293            822975    MC84000000014991 N  549977133133   79E5881D66TEEE422DE67BB  000000000+600450S00130    MPL  00565                     000000000  N                0000000000000.00 0000000.00   0000000.00                             000000000000000                                                                                                                                                     01424  000000000000-0000000000002.62     01750 00000                  
00004860471160097DT67590675900000013300800102800000010180010224001193110900016481525042020230000001600311023000000000476249474643XXXXXX4384               2111111   NYV4 A7W463110363040359N840000000016003P7NP00    01DNCBD8666317293            022065    VD84000000016003 NP1549977133133   F87B5AB5C6T35EDED16C78A  000000000+                F DF 00415                     000000000  N000000000       0000000000000.00 0000000.00   0000000.00                             000000000000000                                                                                                                                                     01424 G000000016003 0000000000002.79     01650 01500                  
00004870471160001P16759067590000001330080010280000001010000000000000000                             2000000000000000000000000              000000000000                    0000000000000000000000000                    000000000000                                                                                                                                                                                                                                                                                                                                                                                                                                                                                        
00004880471160098DT67590675900000013300800102800000010180010224001193110900016481616042020230000001062311023000000000476249444796XXXXXX3956               2111111   NYV4 A7W583110516068038N8400000000106235JT900    01DNCBD8666317293            020753    VS84000000010623 NP1549977133133   3FA85F3966TAC7A7C11CB6F  000000000+                A CA 12106                     000000000  N000000000 492   0000000000000.00 0000000.00   0000000.00                             000000000000000                                                                                                                                                     01424 G000000010623 0000000000002.11     01890 01000                  
00004890471160001P16759067590000001330080010280000001010000000000000000                             2000000000000000000000000              000000000000                    0000000000000000000000000                    000000000000                                                                                                                                                                                                                                                                                                                                                                                                                                                                                        
00004900471160099DT67590675900000013300800102800000010180010224001193110900016481665042020230000001502411023000000000476249475824XXXXXX7061               2111111   NYV4 A7W303110569710757N84000000001502498HB00    01DNCBD8666317293            020797    VD84000000015024 NP1549977133133   B6115FFF6ET7FDD7F0FAD28  000000000+                F DF 10420                     000000000  Y000000000 338   0000000000000.00 0000000.00   0000000.00                             000000000000000                                                                                                                                                     01424 G000000015024 0000000000000.30     00050 02200                  
00004910471160001P16759067590000001330080010280000001010000000000000000                             2000000000000000000000000              000000000000                    0000000000000000000000000                    000000000000                                                                                                                                                                                                                                                                                                                                                                                                                                                                                        
00004920471160100DT67590675900000013300800102800000010180010224001193110900016481673042020230000001324311023000000000476249498503XXXXXX3293               2111111   NYV4 A7W463110571856725N840000000013243L6WP00    01DNCBD8666317293            099119    VD84000000013243 NP1549977133133   4526C82705T2A5E1AFC2FCD  000000000+                F DF 00415                     000000000  N000000000       0000000000000.00 0000000.00   0000000.00                             000000000000000                                                                                                                                                     01424 G000000013243 0000000000002.34     01650 01500                  
00004930471160001P16759067590000001330080010280000001010000000000000000                             2000000000000000000000000              000000000000                    0000000000000000000000000                    000000000000                                                                                                                                                                                                                                                                                                                                                                                                                                                                                        
00004940471160101DT67590675900000013300800102800000010180010224001193110900016481707042020230000000999811023000000000476249425836XXXXXX8083               2111111   NYV4 A7W463110583242606N840000000009998J7MZ00    01DNCBD8666317293            053120    VD84000000009998 NP1549977133133   64C7634FA8T3ADE8CF850EC  000000000+                F DF 10420                     000000000  Y000000000 338   0000000000000.00 0000000.00   0000000.00                             000000000000000                                                                                                                                                     01424 G000000009998 0000000000000.27     00050 02200                  
00004950471160001P16759067590000001330080010280000001010000000000000000                             2000000000000000000000000              000000000000                    0000000000000000000000000                    000000000000                                                                                                                                                                                                                                                                                                                                                                                                                                                                                        
00004960471160102DT67590675900000013300800102800000010180010224001193110900016481715042020230000000709411023000000000476249473702XXXXXX7293               2111111   NYV4 A7W383110587800710N840000000007094VQXJ00    01DNCBD8666317293            086848    VD84000000007094 NP1549977133133   6746E9B47BT6FFCDDCD567B  000000000+                F DF 10420                     000000000  Y000000000 338   0000000000000.00 0000000.00   0000000.00                             000000000000000                                                                                                                                                     01424 G000000007094 0000000000000.26     00050 02200                  
00004970471160001P16759067590000001330080010280000001010000000000000000                             2000000000000000000000000              000000000000                    0000000000000000000000000                    000000000000                                                                                                                                                                                                                                                                                                                                                                                                                                                                                        
00004980471160103DT67590675900000013300800102800000010180010287287283110900016481724042020230000001987011023000000000476249517279XXXXXX4934       ME03KE06MS02      NY 4607AMDJTYPCK20420  N840000000019870          81DNCBD8666317293            072983    MD84000000019870 N  549977133133   6B37B2A2AFT189DE761FD5B  000000000+600450S00130    MDJ  00401                     000000000  N                0000000000000.00 0000000.00   0000000.00                             000000000000000                                                                                                                                                   U001424  000000000000 0000000000003.43     01650 01500                  
00004990471160104DT67590675900000013300800102800000010180010287287283110900016481732042020230000002126111023000000000476249531462XXXXXX7149       ME03KE06MS02      NY 4607AMPARE6B0E0420  N840000000021261          81DNCBD8666317293            940516    MD84000000021261 N  549977133133   704C89CA73TA89AF1578750  000000000+600450S00130    MPA  09899                     000000000  N                0000000000000.00 0000000.00   0000000.00                             000000000000000                                                                                                                                                   U001424  000000000000 0000000000003.94     01760 02000                  
00005000471160105DT67590675900000013300800102800000010180010224001193110900016481889042020230000001499111023000000000476249414512XXXXXX9557               2111111   NYV4 A7W463110651057247N8400000000149915JNJ00    01DNCBD8666317293            000599    VS84000000014991 NP1549977133133   50343DE9D3T6605136A4774  000000000+                D CD 12109                     000000000  N000000000 498   0000000000000.00 0000000.00   0000000.00                             000000000000000                                                                                                                                                     01424 G000000014991 0000000000003.85     02500 01000                  
00005010471160001P16759067590000001330080010280000001010000000000000000                             2000000000000000000000000              000000000000                    0000000000000000000000000                    000000000000                                                                                                                                                                                                                                                                                                                                                                                                                                                                                        
00005020471160106DT67590675900000013300800102800000010180010224001193110900016481962042020230000001323911023000000000476249478200XXXXXX8634               2111111   NYV4 A7W383110654065117N840000000013239QJC900    01DNCBD8666317293            061014    VD84000000013239 NP1549977133133   8E88435937T6C855D19B212  000000000+                F DF 10420                     000000000  Y000000000 338   0000000000000.00 0000000.00   0000000.00                             000000000000000                                                                                                                                                     01424 G000000013239 0000000000000.29     00050 02200                  
00005030471160001P16759067590000001330080010280000001010000000000000000                             2000000000000000000000000              000000000000                    0000000000000000000000000                    000000000000                                                                                                                                                                                                                                                                                                                                                                                                                                                                                        
00005040471160107DT67590675900000013300800102800000010180010287287283110900016482029042020230000002187711023000000000476249544928XXXXXX6172       ME03KE06MS02      NY 4607AMDJATJS0F0420  N840000000021877          81DNCBD8666317293            H53697    MD84000000021877 N  549977133133   A7DB7803B6TD4F89C9BCC5F  000000000+600450S00130    MDJ  10813                     000000000  1                0000000000000.00 0000000.00   0000000.00                             000000000000000                                                                                                                                                   U001424  000000000000 0000000000000.33     00050 02200                  
00005050471160108DT67590675900000013300800102800000010180010287287283110900016482037042020230000001987011023000000000476249517805XXXXXX7627       ME03KE06MS02      NY 4607AMPLDADH0B0420  N840000000019870          81DNCBD8666317293            00241B    MC84000000019870 N  549977133133   079EC7428CT6C772502A611  000000000+600450S00130    MPL  00580                     000000000  N                0000000000000.00 0000000.00   0000000.00                             000000000000000                                                                                                                                                   U001424  000000000000 0000000000004.27     02100 01000                  
00005060471160109DT67590675900000013300800102800000010180010224001193110900016482101042020230000000160711023000000000476249400519XXXXXX6749               2111111   NYV4 A7W463110668497679N840000000001607XDHT00    01DNCBD8666317293            020640    VS84000000001607 NP1549977133133   F72B37ED60T7B95EA6EBE48  000000000+                A CA 12106                     000000000  N000000000 492   0000000000000.00 0000000.00   0000000.00                             000000000000000                                                                                                                                                     01424 G000000001607 0000000000000.40     01890 01000                  
