03277200561294622AD675906759000000151648008888000009071900011406430000000654803232023NYY08223ND6759800888032620232023082014620                                                                                                                                                                                                                                                                                                                                                                                                                                                                                                                                                                                              
03277210561294625AD675906759000000133008001028000009077900010500050000000700403232023NYY08223YC6759800102032620232023082014625                                                                                                                                                                                                                                                                                                                                                                                                                                                                                                                                                                                              
03277220561294628AD675906759000000133008001028000009071900012524420000002648703232023NYY08223ND6759800102032620232023082014621                                                                                                                                                                                                                                                                                                                                                                                                                                                                                                                                                                                              
03277230561294631AD675906759000000151648008888000009071900011614130000000654803232023NYY08223ND6759800888032620232023082014622                                                                                                                                                                                                                                                                                                                                                                                                                                                                                                                                                                                              
03277240561294634AD675906759000000151648008888000009071900011614120000001987003232023NYY08223ND6759800888032620232023082014623                                                                                                                                                                                                                                                                                                                                                                                                                                                                                                                                                                                              
03277250561294637AD675906759000000151648008888000009071900011820810000001987003232023NYY08223ND6759800888032620232023082014624                                                                                                                                                                                                                                                                                                                                                                                                                                                                                                                                                                                              
03277260562867961BH6759067590000001982880010980000090170324202308323000000000011997    0000090001040852N8001096759D03262023                                                                                                                                                                                                                                                                                                                                                                                                                                                                                                                                                                                                 
03277270562867962DT67590675900000019828800109800000010180010924001193083900010407107032220230000000029908323000000000011997433451XXXXXX8384               2111111   YYV4 A7W303082008434415N8400000000002994JZ900    01DNKETOFUSION 8885968154    C057CS    VD84000000000299 NP1599977547467   6539F01374T12D7E602957E  000000000+                S PS 10179                     000000000  N000000000 364   0000000000000.00 0000000.00   0000000.00                             000000000000000                                                                                                                                                     015WPEG000000000299 0000000000000.18     02650 01000                  
03277280562860001P16759067590000001982880010980000001010000000000000000                             2000000000000000000000000              000000000000                    0000000000000000000000000                    000000000000                                                                                                                                                                                                                                                                                                                                                                                                                                                                                        
03277290562867963DT67590675900000019828800109800000010180010924001193083900010407115032220230000000029908323000000000011997404038XXXXXX5102               2111111   YYV4 A7W303082013864411N840000000000299NMZS00    01DNKETOFUSION 8885968154    NXJV5B    VD84000000000299 NP1599977547467   E8FBB1A925T5F9A9AE081CB  000000000+                S PS 10179                     000000000  N000000000 364   0000000000000.00 0000000.00   0000000.00                             000000000000000                                                                                                                                                     015WPEG000000000299 0000000000000.18     02650 01000                  
03277300562860001P16759067590000001982880010980000001010000000000000000                             2000000000000000000000000              000000000000                    0000000000000000000000000                    000000000000                                                                                                                                                                                                                                                                                                                                                                                                                                                                                        
03277310562867964DT67590675900000019828800109800000010180010987287283083900010407124032220230000000029908323000000000011997556150XXXXXX8440                         YY 4607AMCFL4AEED0322  N840000000000299          81DNKETOFUSION 8885968154    ZE6MP9    MB84000000000299 NP1599977547467   CB442B6217T734A38DCEB64  000000000+600450S00130    MCF  00303                     000000000  N                0000000000000.00 0000000.00   0000000.00                             000000000000000                                                                                                                                                     015WPE 000000000000 0000000000000.18     02700 01000                  
03277320562860001P1675906759000000198288001098000000101                                                          000000000000          8000            884295529                                                                                                                                                                                                                                                                                                                                                                                                                                                                                                                                                            
03277330562867965DT67590675900000019828800109800000010180010987287283083900010407132032220230000000029908323000000000011997531993XXXXXX6765                         YY 4607AMCPL6Z0ED0322  N840000000000299          81DNKETOFUSION 8885968154    31P8FD    MB84000000000299 NP1599977547467   17B17863F3TD6674C6D3A7B  000000000+600450S00130    MCP  00303                     000000000  N                0000000000000.00 0000000.00   0000000.00                             000000000000000                                                                                                                                                   U0015WPE 000000000000 0000000000000.18     02700 01000                  
03277340562860001P1675906759000000198288001098000000101                                                          000000000000          8000            884295529                                                                                                                                                                                                                                                                                                                                                                                                                                                                                                                                                            
03277350562867966DT67590675900000019828800109800000010180010924001193083900010407149032220230000000029908323000000000011997412076XXXXXX3189               2111111   YYV4 A7W303082018756388N8400000000002994XPV00    01DNKETOFUSION 8885968154    345852    VS84000000000299 NP1599977547467   21128D2B09T2676BA724302  000000000+                A CA 12106                     000000000  N000000000 492   0000000000000.00 0000000.00   0000000.00                             000000000000000                                                                                                                                                     015WPEG000000000299 0000000000000.16     01890 01000                  
03277360562860001P16759067590000001982880010980000001010000000000000000                             2000000000000000000000000              000000000000                    0000000000000000000000000                    000000000000                                                                                                                                                                                                                                                                                                                                                                                                                                                                                        
03277370562867967DT67590675900000019828800109800000010180010987287283083900010407157032220230000000029908323000000000011997524897XXXXXX8709                         YY 4607AMCOCA6BPA0322  N840000000000299          81DNKETOFUSION 8885968154    X52G2R    MB84000000000299 NP1599977547467   E9602AE90ET269CB511942A  000000000+600450S00130    MCO  00303                     000000000  N                0000000000000.00 0000000.00   0000000.00                             000000000000000                                                                                                                                                   U0015WPE 000000000000 0000000000000.18     02700 01000                  
03277380562860001P1675906759000000198288001098000000101                                                          000000000000          8000            884295529                                                                                                                                                                                                                                                                                                                                                                                                                                                                                                                                                            
03277390562867968DT67590675900000019828800109800000010180010924001193083900010407164032220230000000029908323000000000011997433451XXXXXX7967               2111111   YYV4 A7W383082020437693N840000000000299F65M00    01DNKETOFUSION 8885968154    P33GU2    VD84000000000299 NP1599977547467   37A32EA1A8TE4B3280027FA  000000000+                S PS 10179                     000000000  N000000000 364   0000000000000.00 0000000.00   0000000.00                             000000000000000                                                                                                                                                     015WPEG000000000299 0000000000000.18     02650 01000                  
03277400562860001P16759067590000001982880010980000001010000000000000000                             2000000000000000000000000              000000000000                    0000000000000000000000000                    000000000000                                                                                                                                                                                                                                                                                                                                                                                                                                                                                        
03277410562867969DT67590675900000019828800109800000010180010987287283083900010407173032220230000000029908323000000000011997524897XXXXXX6746                         YY 4607AMCPWGJ1O40322  N840000000000299          81DNKETOFUSION 8885968154    7XNZHG    MB84000000000299 NP1599977547467   1297AB1D34T6BF0CD2C70F5  000000000+600450S00130    MCP  00303                     000000000  N                0000000000000.00 0000000.00   0000000.00                             000000000000000                                                                                                                                                   U0015WPE 000000000000 0000000000000.18     02700 01000                  
03277420562860001P1675906759000000198288001098000000101                                                          000000000000          8000            884295529                                                                                                                                                                                                                                                                                                                                                                                                                                                                                                                                                            
03277430562867970DT67590675900000019828800109800000010180010924001193083900010407180032220230000000029908323000000000011997485932XXXXXX8515               2111111   YYV4 A7W303082026507504N840000000000299RT9J00    01DNKETOFUSION 8885968154    279848    VB84000000000299 NP1599977547467   828EBD2D88TDDB9E11745E2  000000000+                S CS 00692                     000000000  N000000000 237   0000000000000.00 0000000.00   0000000.00                             000000000000000                                                                                                                                                     015WPEG000000000299 0000000000000.18     02700 01000                  
03277440562860001P16759067590000001982880010980000001010000000000000000                             2000000000000000000000000              000000000000                    0000000000000000000000000                    000000000000                                                                                                                                                                                                                                                                                                                                                                                                                                                                                        
03277450562867971DT67590675900000019828800109800000010180010924001193083900010407198032220230000000029908323000000000011997485932XXXXXX5011               2111111   YYV4 A7W383082028326946N840000000000299H4KQ00    01DNKETOFUSION 8885968154    644904    VB84000000000299 NP1599977547467   E6CEF071BDTCD5F35357BFB  000000000+                S CS 00692                     000000000  N000000000 237   0000000000000.00 0000000.00   0000000.00                             000000000000000                                                                                                                                                     015WPEG000000000299 0000000000000.18     02700 01000                  
03277460562860001P16759067590000001982880010980000001010000000000000000                             2000000000000000000000000              000000000000                    0000000000000000000000000                    000000000000                                                                                                                                                                                                                                                                                                                                                                                                                                                                                        
03277470562867972DT67590675900000019828800109800000010180010924001193083900010407206032220230000000029908323000000000011997428813XXXXXX9909               2111111   YYV4 A7W303082030756663N8400000000002993WCT00    01DNKETOFUSION 8885968154    170154    VB84000000000299 NP1599977547467   4AB3522A4ATBF1D45C7AEDE  000000000+                S CS 00692                     000000000  N000000000 237   0000000000000.00 0000000.00   0000000.00                             000000000000000                                                                                                                                                     015WPEG000000000299 0000000000000.18     02700 01000                  
03277480562860001P16759067590000001982880010980000001010000000000000000                             2000000000000000000000000              000000000000                    0000000000000000000000000                    000000000000                                                                                                                                                                                                                                                                                                                                                                                                                                                                                        
03277490562867973DT67590675900000019828800109800000010180010924001193083900010407214032220230000000029908323000000000011997412076XXXXXX8306               2111111   YYV4 A7W583082033648029N840000000000299FTT600    01DNKETOFUSION 8885968154    249444    VS84000000000299 NP1599977547467   730552B082TE62D5C842504  000000000+                A CA 12106                     000000000  N000000000 492   0000000000000.00 0000000.00   0000000.00                             000000000000000                                                                                                                                                     015WPEG000000000299 0000000000000.16     01890 01000                  
03277500562860001P16759067590000001982880010980000001010000000000000000                             2000000000000000000000000              000000000000                    0000000000000000000000000                    000000000000                                                                                                                                                                                                                                                                                                                                                                                                                                                                                        
03277510562867974DT67590675900000019828800109800000010180010924001193083900010407222032220230000000029908323000000000011997440393XXXXXX7666               2111111   YYV4 A7W463082036082681N8400000000002995CDD00    01DNKETOFUSION 8885968154    038262    VD84000000000299 NP1599977547467   D1676F4CC3T4B14C8E91A4E  000000000+                F PF 08175                     000000000  N000000000       0000000000000.00 0000000.00   0000000.00                             000000000000000                                                                                                                                                     015WPEG000000000299 0000000000000.25     01750 02000                  
03277520562860001P16759067590000001982880010980000001010000000000000000                             2000000000000000000000000              000000000000                    0000000000000000000000000                    000000000000                                                                                                                                                                                                                                                                                                                                                                                                                                                                                        
03277530562867975DT67590675900000019828800109800000010180010924001193083900010407230032220230000000029908323000000000011997433451XXXXXX7486               2111111   YYV4 A7W383082039048671N84000000000029982JP00    01DNKETOFUSION 8885968154    GTDBBT    VD84000000000299 NP1599977547467   A67338DB95TFC47FF19D839  000000000+                S PS 10179                     000000000  N000000000 364   0000000000000.00 0000000.00   0000000.00                             000000000000000                                                                                                                                                     015WPEG000000000299 0000000000000.18     02650 01000                  
03277540562860001P16759067590000001982880010980000001010000000000000000                             2000000000000000000000000              000000000000                    0000000000000000000000000                    000000000000                                                                                                                                                                                                                                                                                                                                                                                                                                                                                        
03277550562867976DT67590675900000019828800109800000010180010924001193083900010407248032220230000000029908323000000000011997404038XXXXXX2353               2111111   YYV4 A7W583082040243400N840000000000299JSSG00    01DNKETOFUSION 8885968154    1FMS2B    VD84000000000299 NP1599977547467   D9CDA12503T301901D09602  000000000+                S PS 10179                     000000000  N000000000 364   0000000000000.00 0000000.00   0000000.00                             000000000000000                                                                                                                                                     015WPEG000000000299 0000000000000.18     02650 01000                  
03277560562860001P16759067590000001982880010980000001010000000000000000                             2000000000000000000000000              000000000000                    0000000000000000000000000                    000000000000                                                                                                                                                                                                                                                                                                                                                                                                                                                                                        
03277570562867977DT67590675900000019828800109800000010180010924001193083900010407255032220230000000029908323000000000011997412076XXXXXX8359               2111111   YYV4 A7W463082041439786N840000000000299X2LP00    01DNKETOFUSION 8885968154    547650    VS84000000000299 NP1599977547467   6127548152TE02A2E93AF4F  000000000+                A CA 12106                     000000000  N000000000 492   0000000000000.00 0000000.00   0000000.00                             000000000000000                                                                                                                                                     015WPEG000000000299 0000000000000.16     01890 01000                  
03277580562860001P16759067590000001982880010980000001010000000000000000                             2000000000000000000000000              000000000000                    0000000000000000000000000                    000000000000                                                                                                                                                                                                                                                                                                                                                                                                                                                                                        
03277590562867978DT67590675900000019828800109800000010180010924001193083900010407263032220230000000029908323000000000011997428813XXXXXX7893               2111111   YYV4 A7W383082044358892N840000000000299VW9R00    01DNKETOFUSION 8885968154    057418    VB84000000000299 NP1599977547467   9366A0B54CT4DC384A89121  000000000+                S CS 00692                     000000000  N000000000 237   0000000000000.00 0000000.00   0000000.00                             000000000000000                                                                                                                                                     015WPEG000000000299 0000000000000.18     02700 01000                  
03277600562860001P16759067590000001982880010980000001010000000000000000                             2000000000000000000000000              000000000000                    0000000000000000000000000                    000000000000                                                                                                                                                                                                                                                                                                                                                                                                                                                                                        
03277610562867979DT67590675900000019828800109800000010180010924001193083900010407271032220230000000029908323000000000011997404038XXXXXX4218               2111111   YYV4 A7W463082044496339N840000000000299QH4J00    01DNKETOFUSION 8885968154    NGGZ3K    VD84000000000299 NP1599977547467   549B37272BTBD1126BCE4DF  000000000+                S PS 10179                     000000000  N000000000 364   0000000000000.00 0000000.00   0000000.00                             000000000000000                                                                                                                                                     015WPEG000000000299 0000000000000.18     02650 01000                  
03277620562860001P16759067590000001982880010980000001010000000000000000                             2000000000000000000000000              000000000000                    0000000000000000000000000                    000000000000                                                                                                                                                                                                                                                                                                                                                                                                                                                                                        
03277630562867980DT67590675900000019828800109800000010180010924001193083900010407289032220230000000029908323000000000011997412076XXXXXX9911               2111111   YYV4 A7W463082047470926N840000000000299SGBQ00    01DNKETOFUSION 8885968154    656379    VS84000000000299 NP1599977547467   7CA08A5326T75D50FEFCACA  000000000+                A CA 12106                     000000000  N000000000 492   0000000000000.00 0000000.00   0000000.00                             000000000000000                                                                                                                                                     015WPEG000000000299 0000000000000.16     01890 01000                  
03277640562860001P16759067590000001982880010980000001010000000000000000                             2000000000000000000000000              000000000000                    0000000000000000000000000                    000000000000                                                                                                                                                                                                                                                                                                                                                                                                                                                                                        
03277650562867981DT67590675900000019828800109800000010180010924001193083900010407297032220230000000029908323000000000011997428813XXXXXX9160               2111111   YYV4 A7W303082048714826N840000000000299DQNP00    01DNKETOFUSION 8885968154    786507    VB84000000000299 NP1599977547467   06404D5B00T4FD285EE6A5A  000000000+                S CS 00692                     000000000  N000000000 237   0000000000000.00 0000000.00   0000000.00                             000000000000000                                                                                                                                                     015WPEG000000000299 0000000000000.18     02700 01000                  
03277660562860001P16759067590000001982880010980000001010000000000000000                             2000000000000000000000000              000000000000                    0000000000000000000000000                    000000000000                                                                                                                                                                                                                                                                                                                                                                                                                                                                                        
03277670562867982DT67590675900000019828800109800000010180010924001193083900010407305032220230000000029908323000000000011997408544XXXXXX3778               2111111   YYV4 A7W303082055908365N840000000000299WSK600    01DNKETOFUSION 8885968154    482147    VB84000000000299 NP1599977547467   E29831C60ET07BC2386049D  000000000+                K CK 00691                     000000000  N000000000 234   0000000000000.00 0000000.00   0000000.00                             000000000000000                                                                                                                                                     015WPEG000000000299 0000000000000.18     02700 01000                  
03277680562860001P16759067590000001982880010980000001010000000000000000                             2000000000000000000000000              000000000000                    0000000000000000000000000                    000000000000                                                                                                                                                                                                                                                                                                                                                                                                                                                                                        
03277690562867983DT67590675900000019828800109800000010180010924001193083900010407313032220230000000029908323000000000011997428813XXXXXX3102               2111111   YYV4 A7W463082056441676N840000000000299TLKP00    01DNKETOFUSION 8885968154    174280    VB84000000000299 NP1599977547467   B659FB9E65T338FD94F28B7  000000000+                S CS 00692                     000000000  N000000000 237   0000000000000.00 0000000.00   0000000.00                             000000000000000                                                                                                                                                     015WPEG000000000299 0000000000000.18     02700 01000                  
03277700562860001P16759067590000001982880010980000001010000000000000000                             2000000000000000000000000              000000000000                    0000000000000000000000000                    000000000000                                                                                                                                                                                                                                                                                                                                                                                                                                                                                        
03277710562867984DT67590675900000019828800109800000010180010924001193083900010407321032220230000000029908323000000000011997408544XXXXXX2743               2111111   YYV4 A7W303082057070707N840000000000299PX9400    01DNKETOFUSION 8885968154    995931    VB84000000000299 NP1599977547467   10AAB24D09T95D93FE72F2D  000000000+                K CK 00691                     000000000  N000000000 234   0000000000000.00 0000000.00   0000000.00                             000000000000000                                                                                                                                                     015WPEG000000000299 0000000000000.18     02700 01000                  
03277720562860001P16759067590000001982880010980000001010000000000000000                             2000000000000000000000000              000000000000                    0000000000000000000000000                    000000000000                                                                                                                                                                                                                                                                                                                                                                                                                                                                                        
03277730562867985DT67590675900000019828800109800000010180010924001193083900010407339032220230000000029908323000000000011997489683XXXXXX6091               2111111   YYV4 A7W383082060737406N8400000000002999S6S00    01DNKETOFUSION 8885968154    LD6F1V    VD84000000000299 NP1599977547467   BC0660F788TFFCA5548762C  000000000+                S PS 10179                     000000000  N000000000 364   0000000000000.00 0000000.00   0000000.00                             000000000000000                                                                                                                                                     015WPEG000000000299 0000000000000.18     02650 01000                  
03277740562860001P16759067590000001982880010980000001010000000000000000                             2000000000000000000000000              000000000000                    0000000000000000000000000                    000000000000                                                                                                                                                                                                                                                                                                                                                                                                                                                                                        
03277750562867986DT67590675900000019828800109800000010180010987287283083900010407348032220230000000029908323000000000011997515177XXXXXX8108                         YY 4607AMPLDIMWPA0322  N840000000000299          81DNKETOFUSION 8885968154    629805    MC84000000000299 N  599977547467   4EE35B9066T5356BCF75294  000000000+600450S00130    MPL  12148                     000000000  N                0000000000000.00 0000000.00   0000000.00                             000000000000000                                                                                                                                                   U0015WPE 000000000000 0000000000000.08     01950 00200                  
03277760562867987DT67590675900000019828800109800000010180010924001193083900010407354032220230000000029908323000000000011997428813XXXXXX3419               2111111   YYV4 A7W303082064833288N840000000000299Z3Q500    01DNKETOFUSION 8885968154    426868    VB84000000000299 NP1599977547467   6B24909506T6FC8EDD003B1  000000000+                S CS 00692                     000000000  N000000000 237   0000000000000.00 0000000.00   0000000.00                             000000000000000                                                                                                                                                     015WPEG000000000299 0000000000000.18     02700 01000                  
03277770562860001P16759067590000001982880010980000001010000000000000000                             2000000000000000000000000              000000000000                    0000000000000000000000000                    000000000000                                                                                                                                                                                                                                                                                                                                                                                                                                                                                        
03277780562867988DT67590675900000019828800109800000010180010924001193083900010407362032220230000000029908323000000000011997404038XXXXXX1068               2111111   YYV4 A7W383082064851470N840000000000299WPS900    01DNKETOFUSION 8885968154    K5OXC9    VD84000000000299 NP1599977547467   5D9188C2A4TBEF7D03291F2  000000000+                S PS 10179                     000000000  N000000000 364   0000000000000.00 0000000.00   0000000.00                             000000000000000                                                                                                                                                     015WPEG000000000299 0000000000000.18     02650 01000                  
03277790562860001P16759067590000001982880010980000001010000000000000000                             2000000000000000000000000              000000000000                    0000000000000000000000000                    000000000000                                                                                                                                                                                                                                                                                                                                                                                                                                                                                        
03277800562867989DT67590675900000019828800109800000010180010924001193083900010407370032220230000000029908323000000000011997428803XXXXXX1602               2111111   YYV4 A7W383082064909961N840000000000299ZZPG00    01DNKETOFUSION 8885968154    639989    VD84000000000299 NP1599977547467   5E53826F30T32BD8B1A1324  000000000+                S PS 10179                     000000000  N000000000 364   0000000000000.00 0000000.00   0000000.00                             000000000000000                                                                                                                                                     015WPEG000000000299 0000000000000.18     02650 01000                  
03277810562860001P16759067590000001982880010980000001010000000000000000                             2000000000000000000000000              000000000000                    0000000000000000000000000                    000000000000                                                                                                                                                                                                                                                                                                                                                                                                                                                                                        
03277820562867990DT67590675900000019828800109800000010180010924001193083900010407388032220230000000029908323000000000011997412076XXXXXX0979               2111111   YYV4 A7W303082066906525N840000000000299MSN600    01DNKETOFUSION 8885968154    846250    VS84000000000299 NP1599977547467   36548CF991T5FF96A13FB9D  000000000+                A CA 12106                     000000000  N000000000 492   0000000000000.00 0000000.00   0000000.00                             000000000000000                                                                                                                                                     015WPEG000000000299 0000000000000.16     01890 01000                  
03277830562860001P16759067590000001982880010980000001010000000000000000                             2000000000000000000000000              000000000000                    0000000000000000000000000                    000000000000                                                                                                                                                                                                                                                                                                                                                                                                                                                                                        
03277840562867991DT67590675900000019828800109800000010180010924001193083900010407396032220230000000029908323000000000011997412076XXXXXX3746               2111111   YYV4 A7W463082068446907N840000000000299PJZZ00    01DNKETOFUSION 8885968154    750411    VS84000000000299 NP1599977547467   DA7ECBF379TEC372B519098  000000000+                A CA 12106                     000000000  N000000000 492   0000000000000.00 0000000.00   0000000.00                             000000000000000                                                                                                                                                     015WPEG000000000299 0000000000000.16     01890 01000                  
03277850562860001P16759067590000001982880010980000001010000000000000000                             2000000000000000000000000              000000000000                    0000000000000000000000000                    000000000000                                                                                                                                                                                                                                                                                                                                                                                                                                                                                        
03277860562867992DT67590675900000019828800109800000010180010924001193083900010407404032220230000000029908323000000000011997428803XXXXXX5579               2111111   YYV4 A7W383082068452916N840000000000299S82S00    01DNKETOFUSION 8885968154    361519    VD84000000000299 NP1599977547467   4AEC77EBF1T67DBF9F8312B  000000000+                S PS 10179                     000000000  N000000000 364   0000000000000.00 0000000.00   0000000.00                             000000000000000                                                                                                                                                     015WPEG000000000299 0000000000000.18     02650 01000                  
03277870562860001P16759067590000001982880010980000001010000000000000000                             2000000000000000000000000              000000000000                    0000000000000000000000000                    000000000000                                                                                                                                                                                                                                                                                                                                                                                                                                                                                        
03277880562867993DT67590675900000019828800109800000010180010924001193083900010407412032220230000000029908323000000000011997485932XXXXXX7539               2111111   YYV4 A7W383082071464724N840000000000299LDT600    01DNKETOFUSION 8885968154    019469    VB84000000000299 NP1599977547467   73F805C6DDTECDE2B946E03  000000000+                S CS 00692                     000000000  N000000000 237   0000000000000.00 0000000.00   0000000.00                             000000000000000                                                                                                                                                     015WPEG000000000299 0000000000000.18     02700 01000                  
03277890562860001P16759067590000001982880010980000001010000000000000000                             2000000000000000000000000              000000000000                    0000000000000000000000000                    000000000000                                                                                                                                                                                                                                                                                                                                                                                                                                                                                        
03277900562867994DT67590675900000019828800109800000010180010924001193083900010407420032220230000000029908323000000000011997428813XXXXXX0381               2111111   YYV4 A7W303082072036179N840000000000299QTRL00    01DNKETOFUSION 8885968154    766900    VB84000000000299 NP1599977547467   C13DEFE54DTA6698DCC1CF8  000000000+                S CS 00692                     000000000  N000000000 237   0000000000000.00 0000000.00   0000000.00                             000000000000000                                                                                                                                                     015WPEG000000000299 0000000000000.18     02700 01000                  
03277910562860001P16759067590000001982880010980000001010000000000000000                             2000000000000000000000000              000000000000                    0000000000000000000000000                    000000000000                                                                                                                                                                                                                                                                                                                                                                                                                                                                                        
03277920562867995DT67590675900000019828800109800000010180010924001193083900010407438032220230000000029908323000000000011997408544XXXXXX6965               2111111   YYV4 A7W583082073248402N8400000000002999WDX00    01DNKETOFUSION 8885968154    689880    VB84000000000299 NP1599977547467   46663BBB2FTD2AA2F89BBE0  000000000+                K CK 00691                     000000000  N000000000 234   0000000000000.00 0000000.00   0000000.00                             000000000000000                                                                                                                                                     015WPEG000000000299 0000000000000.18     02700 01000                  
03277930562860001P16759067590000001982880010980000001010000000000000000                             2000000000000000000000000              000000000000                    0000000000000000000000000                    000000000000                                                                                                                                                                                                                                                                                                                                                                                                                                                                                        
03277940562867996DT67590675900000019828800109800000010180010924001193083900010407446032220230000000029908323000000000011997408544XXXXXX8402               2111111   YYV4 A7W383082074438952N840000000000299CKLT00    01DNKETOFUSION 8885968154    801966    VB84000000000299 NP1599977547467   59C98E3751TAC76A36E2DEE  000000000+                K CK 00691                     000000000  N000000000 234   0000000000000.00 0000000.00   0000000.00                             000000000000000                                                                                                                                                     015WPEG000000000299 0000000000000.18     02700 01000                  
03277950562860001P16759067590000001982880010980000001010000000000000000                             2000000000000000000000000              000000000000                    0000000000000000000000000                    000000000000                                                                                                                                                                                                                                                                                                                                                                                                                                                                                        
03277960562867997DT67590675900000019828800109800000010180010924001193083900010407453032220230000000029908323000000000011997433451XXXXXX8556               2111111   YYV4 A7W463082078675526N840000000000299VL9400    01DNKETOFUSION 8885968154    GC0V0V    VD84000000000299 NP1599977547467   8B6D8C50FBT0444A25FD026  000000000+                S PS 10179                     000000000  N000000000 364   0000000000000.00 0000000.00   0000000.00                             000000000000000                                                                                                                                                     015WPEG000000000299 0000000000000.18     02650 01000                  
03277970562860001P16759067590000001982880010980000001010000000000000000                             2000000000000000000000000              000000000000                    0000000000000000000000000                    000000000000                                                                                                                                                                                                                                                                                                                                                                                                                                                                                        
03277980562867998DT67590675900000019828800109800000010180010924001193083900010407461032220230000000029908323000000000011997489683XXXXXX2782               2111111   YYV4 A7W583082080485324N840000000000299G2KM00    01DNKETOFUSION 8885968154    DX9WFN    VD84000000000299 NP1599977547467   7ACA424016T3DFCFBB9E7B1  000000000+                S PS 10179                     000000000  N000000000 364   0000000000000.00 0000000.00   0000000.00                             000000000000000                                                                                                                                                     015WPEG000000000299 0000000000000.18     02650 01000                  
03277990562860001P16759067590000001982880010980000001010000000000000000                             2000000000000000000000000              000000000000                    0000000000000000000000000                    000000000000                                                                                                                                                                                                                                                                                                                                                                                                                                                                                        
03278000562867999DT67590675900000019828800109800000010180010924001193083900010407479032220230000000029908323000000000011997408544XXXXXX5929               2111111   YYV4 A7W303082092471885N840000000000299F5WN00    01DNKETOFUSION 8885968154    945085    VB84000000000299 NP1599977547467   E199F65A95T866ABF31F72B  000000000+                K CK 00691                     000000000  N000000000 234   0000000000000.00 0000000.00   0000000.00                             000000000000000                                                                                                                                                     015WPEG000000000299 0000000000000.18     02700 01000                  
03278010562860001P16759067590000001982880010980000001010000000000000000                             2000000000000000000000000              000000000000                    0000000000000000000000000                    000000000000                                                                                                                                                                                                                                                                                                                                                                                                                                                                                        
03278020562868000DT67590675900000019828800109800000010180010924001193083900010407487032220230000000029908323000000000011997408544XXXXXX5643               2111111   YYV4 A7W583082094887331N840000000000299TW2Z00    01DNKETOFUSION 8885968154    418059    VB84000000000299 NP1599977547467   B999C95435T06BA73421BCA  000000000+                K CK 00691                     000000000  N000000000 234   0000000000000.00 0000000.00   0000000.00                             000000000000000                                                                                                                                                     015WPEG000000000299 0000000000000.18     02700 01000                  
03278030562860001P16759067590000001982880010980000001010000000000000000                             2000000000000000000000000              000000000000                    0000000000000000000000000                    000000000000                                                                                                                                                                                                                                                                                                                                                                                                                                                                                        
03278040562868001DT67590675900000019828800109800000010180010924001193083900010407495032220230000000029908323000000000011997428803XXXXXX3896               2111111   YYV4 A7W383082095533895N840000000000299M8BJ00    01DNKETOFUSION 8885968154    142355    VD84000000000299 NP1599977547467   122DFD57F7T3D61F8417CC7  000000000+                S PS 10179                     000000000  N000000000 364   0000000000000.00 0000000.00   0000000.00                             000000000000000                                                                                                                                                     015WPEG000000000299 0000000000000.18     02650 01000                  
03278050562860001P16759067590000001982880010980000001010000000000000000                             2000000000000000000000000              000000000000                    0000000000000000000000000                    000000000000                                                                                                                                                                                                                                                                                                                                                                                                                                                                                        
03278060562868002DT67590675900000019828800109800000010180010924001193083900010407503032220230000000029908323000000000011997489683XXXXXX5240               2111111   YYV4 A7W463082097230369N840000000000299WKF900    01DNKETOFUSION 8885968154    SY9CDA    VD84000000000299 NP1599977547467   B84E62E024TCAE3203E110C  000000000+                S PS 10179                     000000000  N000000000 364   0000000000000.00 0000000.00   0000000.00                             000000000000000                                                                                                                                                     015WPEG000000000299 0000000000000.18     02650 01000                  
03278070562860001P16759067590000001982880010980000001010000000000000000                             2000000000000000000000000              000000000000                    0000000000000000000000000                    000000000000                                                                                                                                                                                                                                                                                                                                                                                                                                                                                        
03278080562868003DT67590675900000019828800109800000010180010924001193083900010407511032220230000000029908323000000000011997428803XXXXXX2103               2111111   YYV4 A7W303082099633868N840000000000299XSGT00    01DNKETOFUSION 8885968154    531988    VD84000000000299 NP1599977547467   0FA9F19762T4DC77413BC96  000000000+                S PS 10179                     000000000  N000000000 364   0000000000000.00 0000000.00   0000000.00                             000000000000000                                                                                                                                                     015WPEG000000000299 0000000000000.18     02650 01000                  
03278090562860001P16759067590000001982880010980000001010000000000000000                             2000000000000000000000000              000000000000                    0000000000000000000000000                    000000000000                                                                                                                                                                                                                                                                                                                                                                                                                                                                                        
03278100562868004DT67590675900000019828800109800000010180010924001193083900010407529032220230000000029908323000000000011997485932XXXXXX6815               2111111   YYV4 A7W303082102074230N8400000000002999CFL00    01DNKETOFUSION 8885968154    882503    VB84000000000299 NP1599977547467   9BDC192392T3158D154AFCA  000000000+                S CS 00692                     000000000  N000000000 237   0000000000000.00 0000000.00   0000000.00                             000000000000000                                                                                                                                                     015WPEG000000000299 0000000000000.18     02700 01000                  
03278110562860001P16759067590000001982880010980000001010000000000000000                             2000000000000000000000000              000000000000                    0000000000000000000000000                    000000000000                                                                                                                                                                                                                                                                                                                                                                                                                                                                                        
03278120562868005DT67590675900000019828800109800000010180010924001193083900010407537032220230000000029908323000000000011997404038XXXXXX5045               2111111   YYV4 A7W383082102632097N840000000000299NDDN00    01DNKETOFUSION 8885968154    X5Y4WC    VD84000000000299 NP1599977547467   90E4CEA19FT73113E3A170D  000000000+                S PS 10179                     000000000  N000000000 364   0000000000000.00 0000000.00   0000000.00                             000000000000000                                                                                                                                                     015WPEG000000000299 0000000000000.18     02650 01000                  
03278130562860001P16759067590000001982880010980000001010000000000000000                             2000000000000000000000000              000000000000                    0000000000000000000000000                    000000000000                                                                                                                                                                                                                                                                                                                                                                                                                                                                                        
03278140562868006DT67590675900000019828800109800000010180010924001193083900010407545032220230000000029908323000000000011997428813XXXXXX1525               2111111   YYV4 A7W583082102643955N840000000000299LV5500    01DNKETOFUSION 8885968154    211362    VB84000000000299 NP1599977547467   BF9F872E4BT89C3F6E1DD54  000000000+                S CS 00692                     000000000  N000000000 237   0000000000000.00 0000000.00   0000000.00                             000000000000000                                                                                                                                                     015WPEG000000000299 0000000000000.18     02700 01000                  
03278150562860001P16759067590000001982880010980000001010000000000000000                             2000000000000000000000000              000000000000                    0000000000000000000000000                    000000000000                                                                                                                                                                                                                                                                                                                                                                                                                                                                                        
03278160562868007DT67590675900000019828800109800000010180010987287283083900010407553032220230000000029908323000000000011997524897XXXXXX1760                         YY 4607AMCPX7O2O40322  N840000000000299          81DNKETOFUSION 8885968154    EYXQ1L    MB84000000000299 NP1599977547467   6B8D3A8FE4TF261885A6B51  000000000+600450S00130    MCP  00303                     000000000  N                0000000000000.00 0000000.00   0000000.00                             000000000000000                                                                                                                                                   U0015WPE 000000000000 0000000000000.18     02700 01000                  
03278170562860001P1675906759000000198288001098000000101                                                          000000000000          8000            884295529                                                                                                                                                                                                                                                                                                                                                                                                                                                                                                                                                            
03278180562868008DT67590675900000019828800109800000010180010924001193083900010407560032220230000000029908323000000000011997441112XXXXXX2522               2111111   YYV4 A7W303082147698815N840000000000299FX3S00    01DNKETOFUSION 8885968154    F5L69U    VD84000000000299 NP1599977547467   7C931CB7F6TCA4B016ACF78  000000000+                S PS 10179                     000000000  N000000000 364   0000000000000.00 0000000.00   0000000.00                             000000000000000                                                                                                                                                     015WPEG000000000299 0000000000000.18     02650 01000                  
03278190562860001P16759067590000001982880010980000001010000000000000000                             2000000000000000000000000              000000000000                    0000000000000000000000000                    000000000000                                                                                                                                                                                                                                                                                                                                                                                                                                                                                        
03278200562868009DT67590675900000019828800109800000010180010987287283083900010407579032320230000000029908323000000000011997534786XXXXXX1950                         YY 4607AMCO1AY5GR0323  N840000000000299          81DNKETOFUSION 8885968154    UWFTX5    MB84000000000299 NP1599977547467   AAA5085BD3T74C114316A82  000000000+600450S00130    MCO  00303                     000000000  N                0000000000000.00 0000000.00   0000000.00                             000000000000000                                                                                                                                                   U0015WPE 000000000000 0000000000000.18     02700 01000                  
03278210562860001P1675906759000000198288001098000000101                                                          000000000000          8000            884295529                                                                                                                                                                                                                                                                                                                                                                                                                                                                                                                                                            
03278220562868010DT67590675900000019828800109800000010180010924001193083900010407586032320230000000029908323000000000011997412076XXXXXX7833               2111111   YYV4 A7W583082183042391N840000000000299P6NZ00    01DNKETOFUSION 8885968154    686934    VS84000000000299 NP1599977547467   9D65936C2ET3D7723375857  000000000+                A CA 12106                     000000000  N000000000 492   0000000000000.00 0000000.00   0000000.00                             000000000000000                                                                                                                                                     015WPEG000000000299 0000000000000.16     01890 01000                  
03278230562860001P16759067590000001982880010980000001010000000000000000                             2000000000000000000000000              000000000000                    0000000000000000000000000                    000000000000                                                                                                                                                                                                                                                                                                                                                                                                                                                                                        
03278240562868011DT67590675900000019828800109800000010180010924001193083900010407594032320230000000029908323000000000011997412076XXXXXX3562               2111111   YYV4 A7W463082190915268N8400000000002996JVC00    01DNKETOFUSION 8885968154    470882    VS84000000000299 NP1599977547467   3168DC66ACT398156449B7A  000000000+                A CA 12106                     000000000  N000000000 492   0000000000000.00 0000000.00   0000000.00                             000000000000000                                                                                                                                                     015WPEG000000000299 0000000000000.16     01890 01000                  
03278250562860001P16759067590000001982880010980000001010000000000000000                             2000000000000000000000000              000000000000                    0000000000000000000000000                    000000000000                                                                                                                                                                                                                                                                                                                                                                                                                                                                                        
03278260562868012DT67590675900000019828800109800000010180010987287283083900010407603032320230000000029908323000000000011997524897XXXXXX5925                         YY 4607AMCO0HGP5I0323  N840000000000299          81DNKETOFUSION 8885968154    7OOJOW    MB84000000000299 NP1599977547467   30A8253316TBF916DD511F6  000000000+600450S00130    MCO  00303                     000000000  N                0000000000000.00 0000000.00   0000000.00                             000000000000000                                                                                                                                                   U0015WPE 000000000000 0000000000000.18     02700 01000                  
03278270562860001P1675906759000000198288001098000000101                                                          000000000000          8000            884295529                                                                                                                                                                                                                                                                                                                                                                                                                                                                                                                                                            
03278280562868013DT67590675900000019828800109800000010180010924001193083900010407610032320230000000029908323000000000011997441112XXXXXX6267               2111111   YYV4 A7W383082220366622N8400000000002999J3300    01DNKETOFUSION 8885968154    OHL74V    VD84000000000299 NP1599977547467   08E8A5B4F5T97789F7497E4  000000000+                S PS 10179                     000000000  N000000000 364   0000000000000.00 0000000.00   0000000.00                             000000000000000                                                                                                                                                     015WPEG000000000299 0000000000000.18     02650 01000                  
03278290562860001P16759067590000001982880010980000001010000000000000000                             2000000000000000000000000              000000000000                    0000000000000000000000000                    000000000000                                                                                                                                                                                                                                                                                                                                                                                                                                                                                        
03278300562868014DT67590675900000019828800109800000010180010924001193083900010407628032320230000000029908323000000000011997408544XXXXXX1227               2111111   YYV4 A7W383082222031515N840000000000299SS9M00    01DNKETOFUSION 8885968154    778385    VB84000000000299 NP1599977547467   D195AC7FBET72D21910468F  000000000+                K CK 00691                     000000000  N000000000 234   0000000000000.00 0000000.00   0000000.00                             000000000000000                                                                                                                                                     015WPEG000000000299 0000000000000.18     02700 01000                  
03278310562860001P16759067590000001982880010980000001010000000000000000                             2000000000000000000000000              000000000000                    0000000000000000000000000                    000000000000                                                                                                                                                                                                                                                                                                                                                                                                                                                                                        
03278320562868015DT67590675900000019828800109800000010180010924001193083900010407636032320230000000029908323000000000011997428813XXXXXX9078               2111111   YYV4 A7W303082226269145N840000000000299KK6V00    01DNKETOFUSION 8885968154    905675    VB84000000000299 NP1599977547467   D7416344B8T9438B659FE12  000000000+                S CS 00692                     000000000  N000000000 237   0000000000000.00 0000000.00   0000000.00                             000000000000000                                                                                                                                                     015WPEG000000000299 0000000000000.18     02700 01000                  
03278330562860001P16759067590000001982880010980000001010000000000000000                             2000000000000000000000000              000000000000                    0000000000000000000000000                    000000000000                                                                                                                                                                                                                                                                                                                                                                                                                                                                                        
03278340562868016DT67590675900000019828800109800000010180010924001193083900010407644032320230000000029908323000000000011997441112XXXXXX5165               2111111   YYV4 A7W383082229884812N840000000000299PRWF00    01DNKETOFUSION 8885968154    S5KE6N    VD84000000000299 NP1599977547467   A13CE6C869T41CC89D588F9  000000000+                S PS 10179                     000000000  N000000000 364   0000000000000.00 0000000.00   0000000.00                             000000000000000                                                                                                                                                     015WPEG000000000299 0000000000000.18     02650 01000                  
03278350562860001P16759067590000001982880010980000001010000000000000000                             2000000000000000000000000              000000000000                    0000000000000000000000000                    000000000000                                                                                                                                                                                                                                                                                                                                                                                                                                                                                        
03278360562868017DT67590675900000019828800109800000010180010924001193083900010407651032320230000000029908323000000000011997485932XXXXXX6587               2111111   YYV4 A7W383082234690184N840000000000299397400    01DNKETOFUSION 8885968154    577969    VB84000000000299 NP1599977547467   79CD47258FT5FE71371BB8B  000000000+                S CS 00692                     000000000  N000000000 237   0000000000000.00 0000000.00   0000000.00                             000000000000000                                                                                                                                                     015WPEG000000000299 0000000000000.18     02700 01000                  
03278370562860001P16759067590000001982880010980000001010000000000000000                             2000000000000000000000000              000000000000                    0000000000000000000000000                    000000000000                                                                                                                                                                                                                                                                                                                                                                                                                                                                                        
03278380562868018DT67590675900000019828800109800000010180010924001193083900010407669032320230000000029908323000000000011997485932XXXXXX1114               2111111   YYV4 A7W303082245443838N840000000000299G64V00    01DNKETOFUSION 8885968154    197237    VB84000000000299 NP1599977547467   B7490C3CCCT1A1D4A053545  000000000+                S CS 00692                     000000000  N000000000 237   0000000000000.00 0000000.00   0000000.00                             000000000000000                                                                                                                                                     015WPEG000000000299 0000000000000.18     02700 01000                  
03278390562860001P16759067590000001982880010980000001010000000000000000                             2000000000000000000000000              000000000000                    0000000000000000000000000                    000000000000                                                                                                                                                                                                                                                                                                                                                                                                                                                                                        
03278400562868019DT67590675900000019828800109800000010180010924001193083900010407677032320230000000029908323000000000011997428803XXXXXX6247               2111111   YYV4 A7W303082249655062N840000000000299P2FT00    01DNKETOFUSION 8885968154    960180    VD84000000000299 NP1599977547467   0BEDDA0786T17F36BC41117  000000000+                S PS 10179                     000000000  N000000000 364   0000000000000.00 0000000.00   0000000.00                             000000000000000                                                                                                                                                     015WPEG000000000299 0000000000000.18     02650 01000                  
03278410562860001P16759067590000001982880010980000001010000000000000000                             2000000000000000000000000              000000000000                    0000000000000000000000000                    000000000000                                                                                                                                                                                                                                                                                                                                                                                                                                                                                        
03278420562868020DT67590675900000019828800109800000010180010924001193083900010407685032320230000000029908323000000000011997428813XXXXXX9411               2111111   YYV4 A7W463082255717467N840000000000299DW6H00    01DNKETOFUSION 8885968154    497708    VB84000000000299 NP1599977547467   14225766B4TB5935021865A  000000000+                S CS 00692                     000000000  N000000000 237   0000000000000.00 0000000.00   0000000.00                             000000000000000                                                                                                                                                     015WPEG000000000299 0000000000000.18     02700 01000                  
03278430562860001P16759067590000001982880010980000001010000000000000000                             2000000000000000000000000              000000000000                    0000000000000000000000000                    000000000000                                                                                                                                                                                                                                                                                                                                                                                                                                                                                        
03278440562868021DT67590675900000019828800109800000010180010924001193083900010407693032320230000000029908323000000000011997428813XXXXXX2220               2111111   YYV4 A7W383082262245075N840000000000299DT8C00    01DNKETOFUSION 8885968154    118955    VB84000000000299 NP1599977547467   35E186ECD2TACBB6F9C5359  000000000+                S CS 00692                     000000000  N000000000 237   0000000000000.00 0000000.00   0000000.00                             000000000000000                                                                                                                                                     015WPEG000000000299 0000000000000.18     02700 01000                  
03278450562860001P16759067590000001982880010980000001010000000000000000                             2000000000000000000000000              000000000000                    0000000000000000000000000                    000000000000                                                                                                                                                                                                                                                                                                                                                                                                                                                                                        
03278460562868022DT67590675900000019828800109800000010180010924001193083900010407701032320230000000029908323000000000011997485932XXXXXX9824               2111111   YYV4 A7W463082268333550N840000000000299JVFG00    01DNKETOFUSION 8885968154    770434    VB84000000000299 NP1599977547467   0AD066A559T1B9E3D991DB7  000000000+                S CS 00692                     000000000  N000000000 237   0000000000000.00 0000000.00   0000000.00                             000000000000000                                                                                                                                                     015WPEG000000000299 0000000000000.18     02700 01000                  
03278470562860001P16759067590000001982880010980000001010000000000000000                             2000000000000000000000000              000000000000                    0000000000000000000000000                    000000000000                                                                                                                                                                                                                                                                                                                                                                                                                                                                                        
03278480562868023DT67590675900000019828800109800000010180010924001193083900010407719032320230000000029908323000000000011997428813XXXXXX8536               2111111   YYV4 A7W463082271894278N840000000000299LQW500    01DNKETOFUSION 8885968154    185097    VB84000000000299 NP1599977547467   2D60E4220ET44157075341E  000000000+                S CS 00692                     000000000  N000000000 237   0000000000000.00 0000000.00   0000000.00                             000000000000000                                                                                                                                                     015WPEG000000000299 0000000000000.18     02700 01000                  
03278490562860001P16759067590000001982880010980000001010000000000000000                             2000000000000000000000000              000000000000                    0000000000000000000000000                    000000000000                                                                                                                                                                                                                                                                                                                                                                                                                                                                                        
03278500562868024DT67590675900000019828800109800000010180010924001193083900010407727032320230000000029908323000000000011997408544XXXXXX2896               2111111   YYV4 A7W383082273048480N840000000000299D47P00    01DNKETOFUSION 8885968154    869408    VB84000000000299 NP1599977547467   E68924DA28T67E90B72CC73  000000000+                K CK 00691                     000000000  N000000000 234   0000000000000.00 0000000.00   0000000.00                             000000000000000                                                                                                                                                     015WPEG000000000299 0000000000000.18     02700 01000                  
03278510562860001P16759067590000001982880010980000001010000000000000000                             2000000000000000000000000              000000000000                    0000000000000000000000000                    000000000000                                                                                                                                                                                                                                                                                                                                                                                                                                                                                        
03278520562868025DT67590675900000019828800109800000010180010987287283083900010407736032320230000000029908323000000000011997556150XXXXXX1267                         YY 4607AMCF1ZE2GP0323  N840000000000299          81DNKETOFUSION 8885968154    HABRDA    MB84000000000299 NP1599977547467   4AFCBCC81CTE0B39A464A77  000000000+600450S00130    MCF  00303                     000000000  N                0000000000000.00 0000000.00   0000000.00                             000000000000000                                                                                                                                                     015WPE 000000000000 0000000000000.18     02700 01000                  
03278530562860001P1675906759000000198288001098000000101                                                          000000000000          8000            884295529                                                                                                                                                                                                                                                                                                                                                                                                                                                                                                                                                            
03278540562868026DT67590675900000019828800109800000010180010987287283083900010407744032320230000000029908323000000000011997553231XXXXXX0249                         YY 4607AMCF14JTGR0323  N840000000000299          81DNKETOFUSION 8885968154    X1F11B    MB84000000000299 NP1599977547467   6A3964708CT4B1F9DCC0E2E  000000000+600450S00130    MCF  00303                     000000000  N                0000000000000.00 0000000.00   0000000.00                             000000000000000                                                                                                                                                   U0015WPE 000000000000 0000000000000.18     02700 01000                  
03278550562860001P1675906759000000198288001098000000101                                                          000000000000          8000            884295529                                                                                                                                                                                                                                                                                                                                                                                                                                                                                                                                                            
03278560562868027DT67590675900000019828800109800000010180010924001193083900010407750032320230000000029908323000000000011997489683XXXXXX2373               2111111   YYV4 A7W463082301232849N8400000000002992PQ500    01DNKETOFUSION 8885968154    FFH9TG    VD84000000000299 NP1599977547467   958AE86704TEF1F8210AB5D  000000000+                S PS 10179                     000000000  N000000000 364   0000000000000.00 0000000.00   0000000.00                             000000000000000                                                                                                                                                     015WPEG000000000299 0000000000000.18     02650 01000                  
03278570562860001P16759067590000001982880010980000001010000000000000000                             2000000000000000000000000              000000000000                    0000000000000000000000000                    000000000000                                                                                                                                                                                                                                                                                                                                                                                                                                                                                        
03278580562868028DT67590675900000019828800109800000010180010924001193083900010407768032320230000000029908323000000000011997412076XXXXXX8257               2111111   YYV4 A7W383082315640257N840000000000299TVJD00    01DNKETOFUSION 8885968154    717857    VS84000000000299 NP1599977547467   BD07DB69D0T8FA5D94363F5  000000000+                A CA 12106                     000000000  N000000000 492   0000000000000.00 0000000.00   0000000.00                             000000000000000                                                                                                                                                     015WPEG000000000299 0000000000000.16     01890 01000                  
03278590562860001P16759067590000001982880010980000001010000000000000000                             2000000000000000000000000              000000000000                    0000000000000000000000000                    000000000000                                                                                                                                                                                                                                                                                                                                                                                                                                                                                        
03278600562868029DT67590675900000019828800109800000010180010924001193083900010407776032320230000000029908323000000000011997489683XXXXXX0933               2111111   YYV4 A7W303082324751614N840000000000299N2PD00    01DNKETOFUSION 8885968154    MSR9T3    VD84000000000299 NP1599977547467   4D72210C6BT0C1A90E08D30  000000000+                S PS 10179                     000000000  N000000000 364   0000000000000.00 0000000.00   0000000.00                             000000000000000                                                                                                                                                     015WPEG000000000299 0000000000000.18     02650 01000                  
03278610562860001P16759067590000001982880010980000001010000000000000000                             2000000000000000000000000              000000000000                    0000000000000000000000000                    000000000000                                                                                                                                                                                                                                                                                                                                                                                                                                                                                        
