01938330454280002BH6759067590000001165080088880000090170220202305123000000000047514    0000090001090014N8008886759C02212023                                                                                                                                                                                                                                                                                                                                                                                                                                                                                                                                                                                                 
01938340454280003DT67590675900000011650800888800000010180088873011003051900010900014021920230000000283805123000000000047514372298XXXXX1002                          NY 1 0 N007148144577061N840000000002838          07DNVPODS HOLDINGS INC       826732    AM84000000002838 N  599977032122                            000000000+51010X50034C 258     11261                     000000000                   0000000000000.00 0000000.00   0000000.00                             000000000000000 61248972086759675900000011650 VPODS HOLDINGS INC       2527 N LINCOLN AVE       7732092463      60614     SMOKEDREAMS2@ICLOUD.COM                   01418  000000000000 0000000000000.55     01600 00000                  
01938350454280004DT67590675900000011650800888800000010180088877287283051900010900028021920230000000284205123000000000047514517805XXXXXX5402       MS02WI09          NY 1 0 AMCWIWVJQD0219  N840000000002842          05DNVPODS HOLDING INC        04030P    MC84000000002842 N  599977032122                            000000000+M10101C5434C    MCW  00644                     000000000  N                0000000000000.00 0000000.00   0000000.00                             000000000000000                                                                                                                                                   B101418  000000000000 0000000000000.64     01900 01000                  
01938360454280005DT67590675900000011650800888800000010180088824001193051900010900034021920230000000257505123000000000047514414720XXXXXX5495       VS11    0001111   NYV1 A E583050767297348N840000000002575WWKN00    07DNVPODS HOLDING INC        05478D    VS84000000002575 N  599977032122                            000000000+                D CD 12113                     000000000  N000000000 499   0000000000000.00 0000000.00   0000000.00                             000000000000000                                                                                                                                                     01418 A000000000000 0000000000000.64     02100 01000                  
01938370454280006DT67590675900000011650800888800000010180088824001193051900010900042021920230000000350005123000000000047514434236XXXXXX9826       VS11    0001111   NYV1 A E583050797163038N840000000003500474N00    07DNVPODS HOLDING INC        041829    VD84000000003500 N  599977032122                            000000000+                F DF 00381                     000000000  N000000000       0000000000000.00 0000000.00   0000000.00                             000000000000000                                                                                                                                                     01418 A000000000000 0000000000000.43     00800 01500                  
01938380454280007DT67590675900000011650800888800000010180088824001193051900010900059021920230000000283805123000000000047514471724XXXXXX5688       VS11    0001111   NYV1 A E303050802261539N840000000002838J7JP00    07DNVPODS HOLDING INC        101676    VD84000000002838 N  599977032122                            000000000+                F DF 10433                     000000000  Y000000000 338   0000000000000.00 0000000.00   0000000.00                             000000000000000                                                                                                                                                     01418 A000000000000 0000000000000.23     00050 02200                  
01938390454280008DT67590675900000011650800888800000010180088877287283051900010900069021920230000000033705123000000000047514534970XXXXXX9049       MS02WI09          NY 1 0 AMDJTB78IW0219  N840000000000337          07DNVPODS HOLDING INC        084224    MD84000000000337 N  599977032122                            000000000+M10101M0034C    MDJ  10815                     000000000  1                0000000000000.00 0000000.00   0000000.00                             000000000000000                                                                                                                                                   A101418  000000000000 0000000000000.22     00050 02200                  
01938400454280009DT67590675900000011650800888800000010180088824001193051900010900075021920230000000283805123000000000047514483313XXXXXX4088       VS11    0001111   NYV1 A E583051025994485N840000000002838H9G500    07DNVPODS HOLDING INC        094319    VD84000000002838 N  599977032122                            000000000+                F DF 10433                     000000000  Y000000000 338   0000000000000.00 0000000.00   0000000.00                             000000000000000                                                                                                                                                     01418 A000000000000 0000000000000.23     00050 02200                  
01938410454280010DT67590675900000011650800888800000010180088877287283051900010900085021920230000000567505123000000000047514544372XXXXXX8302       MS02WI09          NY 1 0 AMDSPIQJIW0219  N840000000005675          05DNVPODS HOLDING INC        396819    MD84000000005675 N  599977032122                            000000000+M10101C5434C    MDS  00402                     000000000  N                0000000000000.00 0000000.00   0000000.00                             000000000000000                                                                                                                                                   B101418  000000000000 0000000000000.75     01050 01500                  
01938420454280011DT67590675900000011650800888800000010180088877287283051900010900093021920230000000595905123000000000047514517805XXXXXX0277       MS02WI09          NY 1 0 AMCWGMK5AQ0219  N840000000005959          05DNVPODS HOLDING INC        01306P    MC84000000005959 N  599977032122                            000000000+M10101C5434C    MCW  00644                     000000000  N                0000000000000.00 0000000.00   0000000.00                             000000000000000                                                                                                                                                   B101418  000000000000 0000000000001.23     01900 01000                  
01938430454280012DT67590675900000011650800888800000010180088824001193051900010900109021920230000000340305123000000000047514427082XXXXXX8570       VS11    0001111   NYV1 A E303051040687153N840000000003403LJP500    07DNVPODS HOLDING INC        019123    VS84000000003403 N  599977032122                            000000000+                D CD 12113                     000000000  N000000000 499   0000000000000.00 0000000.00   0000000.00                             000000000000000                                                                                                                                                     01418 A000000000000 0000000000000.81     02100 01000                  
01938440454280013DT67590675900000011650800888800000010180088824001193051900010900117021920230000000404005123000000000047514403784XXXXXX6849       VS11    0001111   NYV1 A E383051051422300N840000000004040PG5R00    07DNVPODS HOLDING INC        919152    VS84000000004040 N  599977032122                            000000000+                B CB 12111                     000000000  N000000000 495   0000000000000.00 0000000.00   0000000.00                             000000000000000                                                                                                                                                     01418 A000000000000 0000000000000.77     01650 01000                  
01938450454280014DT67590675900000011650800888800000010180088824001193051900010900125021920230000000238205123000000000047514443045XXXXXX1394       VS11    0001111   NYV1 A E463051083466619N840000000002382ZHRX00    07DNVPODS HOLDING INC        653510    VD84000000002382 N  599977032122                            000000000+                F DF 10433                     000000000  Y000000000 338   0000000000000.00 0000000.00   0000000.00                             000000000000000                                                                                                                                                     01418 A000000000000 0000000000000.23     00050 02200                  
01938460454280015DT67590675900000011650800888800000010180088824001193051900010900133021920230000000261105123000000000047514414709XXXXXX4736       VS11    0001111   NYV1 A E463051094441059N840000000002611C3M900    07DNVPODS HOLDING INC        01736D    VS84000000002611 N  599977032122                            000000000+                D CD 12113                     000000000  N000000000 499   0000000000000.00 0000000.00   0000000.00                             000000000000000                                                                                                                                                     01418 A000000000000 0000000000000.65     02100 01000                  
01938470454280016DT67590675900000011650800888800000010180088877287283051900010900143021920230000000567605123000000000047514522355XXXXXX9570       MS02WI09          NY 1 0 AMWEZLLWVH0219  N840000000005676          07DNVPODS HOLDING INC        61855Z    MC84000000005676 N  599977032122                            000000000+M10101M1134C    MWE  00739                     000000000  N                0000000000000.00 0000000.00   0000000.00                             000000000000000                                                                                                                                                   A101418  000000000000 0000000000001.41     02300 01000                  
01938480454280017BH6759067590000000288180088880000090170220202305123000000000104846    0000090001500019N8008886759C02212023                                                                                                                                                                                                                                                                                                                                                                                                                                                                                                                                                                                                 
01938490454280018DT67590675900000002881800888800000010180088824001193051900015000012022020230000000651705123000000000104846419090XXXXXX9424       VS11    0001111   NYV1 A E583051542036558N8400000000065173FJ600    05DNHAPPY HIPPIE             734783    VD84000000006517 N  549976487158                            000000000+                F DF 00381                     000000000  N000000000       0000000000000.00 0000000.00   0000000.00                             000000000000000                                                                                                                                                     01418 A000000000000 0000000000000.67     00800 01500                  
01938500454280019DT67590675900000002881800888800000010180088824001193051900015000020022020230000000296205123000000000104846415978XXXXXX3505       VS11    0001111   NYV1 A E583051542995094N840000000002962TJJQ00    05DNHAPPY HIPPIE             046186    VD84000000002962 N  549976487158                            000000000+                F DF 10433                     000000000  Y000000000 338   0000000000000.00 0000000.00   0000000.00                             000000000000000                                                                                                                                                     01418 A000000000000 0000000000000.23     00050 02200                  
01938510454280020DT67590675900000002881800888800000010180088824001193051900015000038022020230000000677005123000000000104846481852XXXXXX3515       VS11    0001111   NYV1 A E383051558681929N84000000000677098QM00    07DNHAPPY HIPPIE             073108    VD84000000006770 N  549976487158                            000000000+                F PF 08170                     000000000  N000000000       0000000000000.00 0000000.00   0000000.00                             000000000000000                                                                                                                                                     01418 A000000000000 0000000000000.93     01150 01500                  
01938520454280021DT67590675900000002881800888800000010180088824001193051900015000046022020230000000395105123000000000104846415978XXXXXX3184       VS11    0001111   NYV1 A E583051563911782N8400000000039517C7M00    07DNHAPPY HIPPIE             010955    VD84000000003951 N  549976487158                            000000000+                F DF 10433                     000000000  Y000000000 338   0000000000000.00 0000000.00   0000000.00                             000000000000000                                                                                                                                                     01418 A000000000000 0000000000000.24     00050 02200                  
01938530454280022DT67590675900000002881800888800000010180088824001193051900015000053022020230000001392605123000000000104846445101XXXXXX1029       VS11    0001111   NYV1 A E463051589864080N840000000013926G94S00    05DNHAPPY HIPPIE             783499    VD84000000013926 N  549976487158                            000000000+                F DF 10433                     000000000  Y000000000 338   0000000000000.00 0000000.00   0000000.00                             000000000000000                                                                                                                                                     01418 A000000000000 0000000000000.29     00050 02200                  
01938540454280023DT67590675900000002881800888800000010180088824001193051900015000061022020230000000237105123000000000104846419090XXXXXX5725       VS11    0001111   NYV1 A E463051617275071N840000000002371BHWX00    05DNHAPPY HIPPIE             738195    VD84000000002371 N  549976487158                            000000000+                F DF 00381                     000000000  N000000000       0000000000000.00 0000000.00   0000000.00                             000000000000000                                                                                                                                                     01418 A000000000000 0000000000000.34     00800 01500                  
01938550454280024DT67590675900000002881800888800000010180088877287283051900015000071022020230000000216105123000000000104846542432XXXXXX6544       MS02WI09          NY 1 0 AMDJF5C78Q0220  N840000000002161          07DNHAPPY HIPPIE             860793    MD84000000002161 N  549976487158                            000000000+M10101M0034C    MDJ  10815                     000000000  1                0000000000000.00 0000000.00   0000000.00                             000000000000000                                                                                                                                                   B101418  000000000000 0000000000000.23     00050 02200                  
01938560454280025DT67590675900000002881800888800000010180088873011003051900015000083022020230000000669305123000000000104846373498XXXXX4006                          NY 1 0 N006585916503075N840000000006693          07DNHAPPY HIPPIE             838560    AM84000000006693 N  549976487158                            000000000+51010X55434C 258     11261                     000000000                   0000000000000.00 0000000.00   0000000.00                             000000000000000 61248972086759675900000002881 HAPPY HIPPIE             832 PARKWAY              8656540830      37862     HAPPYHIPPIE832@GMAIL.COM                  01418  000000000000 0000000000001.17     01600 00000                  
01938570454280026DT67590675900000002881800888800000010180088877287283051900015000097022020230000000206105123000000000104846511953XXXXXX4293       MS02WI09          NY 1 0 AMDJE7Y0AE0220  N840000000002061          05DNHAPPY HIPPIE             006215    MD84000000002061 N  549976487158                            000000000+M10101C5434C    MDJ  00402                     000000000  N                0000000000000.00 0000000.00   0000000.00                             000000000000000                                                                                                                                                   B101418  000000000000 0000000000000.37     01050 01500                  
01938580454280027DT67590675900000002881800888800000010180088824001193051900015000103022020230000000923905123000000000104846480639XXXXXX5534       VS11    0001111   NYV1 A E463051705120513N840000000009239G73K00    05DNHAPPY HIPPIE             305370    VD84000000009239 N  549976487158                            000000000+                F DF 00381                     000000000  N000000000       0000000000000.00 0000000.00   0000000.00                             000000000000000                                                                                                                                                     01418 A000000000000 0000000000000.89     00800 01500                  
01938590454280028DT67590675900000002881800888800000010180088824001193051900015000111022020230000000296205123000000000104846498503XXXXXX6779       VS11    0001111   NYV1 A E383051706101967N840000000002962D3SP00    05DNHAPPY HIPPIE             077956    VD84000000002962 N  549976487158                            000000000+                F DF 00381                     000000000  N000000000       0000000000000.00 0000000.00   0000000.00                             000000000000000                                                                                                                                                     01418 A000000000000 0000000000000.39     00800 01500                  
01938600454280029DT67590675900000002881800888800000010180088824001193051900015000129022020230000001075305123000000000104846440066XXXXXX2710       VS11    0001111   NYV1 A E383051710665273N840000000010753232B00    05DNHAPPY HIPPIE             08456D    VS84000000010753 N  549976487158                            000000000+                D CD 12113                     000000000  N000000000 499   0000000000000.00 0000000.00   0000000.00                             000000000000000                                                                                                                                                     01418 A000000000000 0000000000002.36     02100 01000                  
01938610454280030DT67590675900000002881800888800000010180088877287283051900015000139022020230000000632105123000000000104846546616XXXXXX8203       MS02WI09          NY 1 0 AMCWHUYMAG0220  N840000000006321          05DNHAPPY HIPPIE             53667Z    MC84000000006321 N  549976487158                            000000000+M10101C5434C    MCW  00646                     000000000  N                0000000000000.00 0000000.00   0000000.00                             000000000000000                                                                                                                                                   B101418  000000000000 0000000000001.24     01900 00400                  
01938620454280031DT67590675900000002881800888800000010180088824001193051900015000145022020230000000849205123000000000104846409970XXXXXX9864       VS11    0001111   NYV1 A E583051731475121N840000000008492FXPG00    05DNHAPPY HIPPIE             07241D    VS84000000008492 N  549976487158                            000000000+                D CD 12113                     000000000  N000000000 499   0000000000000.00 0000000.00   0000000.00                             000000000000000                                                                                                                                                     01418 A000000000000 0000000000001.88     02100 01000                  
01938630454280032DT67590675900000002881800888800000010180088824001193051900015000152022020230000000614505123000000000104846422921XXXXXX3026       VS11    0001111   NYV1 A E303051749469482N840000000006145DKZG00    05DNHAPPY HIPPIE             056947    VD84000000006145 N  549976487158                            000000000+                F DF 00381                     000000000  N000000000       0000000000000.00 0000000.00   0000000.00                             000000000000000                                                                                                                                                     01418 A000000000000 0000000000000.64     00800 01500                  
01938640454280033DT67590675900000002881800888800000010180088824001193051900015000160022020230000000345605123000000000104846410801XXXXXX2523       VS11    0001111   NYV1 A E383051768517567N840000000003456BCG500    05DNHAPPY HIPPIE             062051    VD84000000003456 N  549976487158                            000000000+                F DF 00381                     000000000  N000000000       0000000000000.00 0000000.00   0000000.00                             000000000000000                                                                                                                                                     01418 A000000000000 0000000000000.43     00800 01500                  
01938650454280034DT67590675900000002881800888800000010180088824001193051900015000178022020230000000175605123000000000104846445101XXXXXX3988       VS11    0001111   NYV1 A E383051790433026N840000000001756ZZVG00    05DNHAPPY HIPPIE             061693    VD84000000001756 N  549976487158                            000000000+                F DF 10433                     000000000  Y000000000 338   0000000000000.00 0000000.00   0000000.00                             000000000000000                                                                                                                                                     01418 A000000000000 0000000000000.23     00050 02200                  
01938660454280035DT67590675900000002881800888800000010180088824001193051900015000186022020230000000468905123000000000104846429136XXXXXX3697               1001111   NYV1 A K383051818675213N840000000004689CBG800    01DNHAPPY HIPPIE             174427    VD84000000004689 N  549976487158                            000000000+                F DF 00412                     000000000  N000000000       0000000000000.00 0000000.00   0000000.00                             000000000000000                                                                                                                                                     01418 E000000000000 0000000000000.92     01650 01500                  
01938670454280036DT67590675900000002881800888800000010180088877287283051900015000196022020230000000362105123000000000104846517805XXXXXX2725       MS02WI09          NY 1 0 AMPLXBHQOW0220  N840000000003621          05DNHAPPY HIPPIE             01830B    MC84000000003621 N  549976487158                            000000000+M10101C5434C    MPL  00364                     000000000  N                0000000000000.00 0000000.00   0000000.00                             000000000000000                                                                                                                                                   B101418  000000000000 0000000000000.69     01800 00400                  
01938680454280037BH6759067590000000288180088880000090170220202305123000000000058467    0000090001490015N8008886759C02212023                                                                                                                                                                                                                                                                                                                                                                                                                                                                                                                                                                                                 
01938690454280038DT67590675900000002881800888800000010180088824001193051900014900014022020230000000790005123000000000058467473336XXXXXX5051       VS11    0001111   NYV1 A E303051575711947N8400000000079009DQL00    05DNHAPPY HIPPIE             085932    VD84000000007900 N  549976487134                            000000000+                F DF 00381                     000000000  N000000000       0000000000000.00 0000000.00   0000000.00                             000000000000000                                                                                                                                                     01418 A000000000000 0000000000000.78     00800 01500                  
01938700454280039DT67590675900000002881800888800000010180088824001193051900014900022022020230000000395005123000000000058467443264XXXXXX3780       VS11    0001111   NYV1 A E463051623904185N840000000003950ZDKW00    07DNHAPPY HIPPIE             002375    VD84000000003950 N  549976487134                            000000000+                F DF 10433                     000000000  Y000000000 338   0000000000000.00 0000000.00   0000000.00                             000000000000000                                                                                                                                                     01418 A000000000000 0000000000000.24     00050 02200                  
01938710454280040DT67590675900000002881800888800000010180088824001193051900014900030022020230000000295105123000000000058467400022XXXXXX0750       VS11    0001111   NYV1 A E303051625263819N840000000002951FBZS00    07DNHAPPY HIPPIE             565887    VD84000000002951 N  549976487134                            000000000+                F DF 10433                     000000000  Y000000000 338   0000000000000.00 0000000.00   0000000.00                             000000000000000                                                                                                                                                     01418 A000000000000 0000000000000.23     00050 02200                  
01938720454280041DT67590675900000002881800888800000010180088877287283051900014900040022020230000000325805123000000000058467552433XXXXXX2850       MS02WI09          NY 1 0 AMPLB7SQ8L0220  N840000000003258          07DNHAPPY HIPPIE             04929M    MC84000000003258 N  549976487134                            000000000+M10101M0034C    MPL  00364                     000000000  N                0000000000000.00 0000000.00   0000000.00                             000000000000000                                                                                                                                                   B101418  000000000000 0000000000000.63     01800 00400                  
01938730454280042DT67590675900000002881800888800000010180088824001193051900014900055022020230000000636305123000000000058467466189XXXXXX2808       VS11    0001111   NYV1 A E583051641790684N840000000006363V47G00    07DNHAPPY HIPPIE             036098    VD84000000006363 N  549976487134                            000000000+                F DF 10433                     000000000  Y000000000 338   0000000000000.00 0000000.00   0000000.00                             000000000000000                                                                                                                                                     01418 A000000000000 0000000000000.25     00050 02200                  
01938740454280043DT67590675900000002881800888800000010180088877287283051900014900065022020230000000439005123000000000058467539277XXXXXX2706       MS02WI09          NY 1 0 AMWECEJDAE0220  N840000000004390          05DNHAPPY HIPPIE             09076Z    MC84000000004390 N  549976487134                            000000000+M10101C5434C    MWE  00743                     000000000  N                0000000000000.00 0000000.00   0000000.00                             000000000000000                                                                                                                                                   B101418  000000000000 0000000000001.05     02300 00400                  
01938750454280044DT67590675900000002881800888800000010180088824001193051900014900071022020230000000131305123000000000058467445101XXXXXX3624       VK04VS111111111   NYV1 A E303051678483173N840000000001313KNJX00    05DNHAPPY HIPPIE             867189    VD84000000001313 N  549976487134                            000000000+                F DF 10439                     000000000  Y000000000 331   0000000000000.00 0000000.00   0000000.00                             000000000000000                                                                                                                                                     01418 F000000000000 0000000000000.23     00050 02200                  
01938760454280045DT67590675900000002881800888800000010180088824001193051900014900089022020230000000219405123000000000058467422919XXXXXX4686       VS11    0001111   NYV1 A E583051679529003N840000000002194WF5H00    07DNHAPPY HIPPIE             025232    VD84000000002194 N  549976487134                            000000000+                F DF 00381                     000000000  N000000000       0000000000000.00 0000000.00   0000000.00                             000000000000000                                                                                                                                                     01418 A000000000000 0000000000000.33     00800 01500                  
01938770454280046DT67590675900000002881800888800000010180088824001193051900014900097022020230000000720805123000000000058467414718XXXXXX8851       VS11    0001111   NYV1 A E303051692838082N840000000007208NXJQ00    07DNHAPPY HIPPIE             020321    VS84000000007208 N  549976487134                            000000000+                D CD 12113                     000000000  N000000000 499   0000000000000.00 0000000.00   0000000.00                             000000000000000                                                                                                                                                     01418 A000000000000 0000000000001.61     02100 01000                  
01938780454280047DT67590675900000002881800888800000010180088824001193051900014900105022020230000000225805123000000000058467480639XXXXXX7751       VS11    0001111   NYV1 A E463051693418905N8400000000022587RWV00    05DNHAPPY HIPPIE             304816    VD84000000002258 N  549976487134                            000000000+                F DF 00381                     000000000  N000000000       0000000000000.00 0000000.00   0000000.00                             000000000000000                                                                                                                                                     01418 A000000000000 0000000000000.33     00800 01500                  
01938790454280048DT67590675900000002881800888800000010180088824001193051900014900113022020230000000339005123000000000058467482851XXXXXX7023       VS11    0001111   NYV1 A E383051771278900N840000000003390F75J00    05DNHAPPY HIPPIE             031482    VD84000000003390 N  549976487134                            000000000+                F DF 10433                     000000000  Y000000000 338   0000000000000.00 0000000.00   0000000.00                             000000000000000                                                                                                                                                     01418 A000000000000 0000000000000.24     00050 02200                  
01938800454280049DT67590675900000002881800888800000010180088877287283051900014900123022020230000000472705123000000000058467517805XXXXXX7988       MS02WI09          NY 1 0 AMPLGNJ5950220  N840000000004727          07DNHAPPY HIPPIE             00872B    MC84000000004727 N  549976487134                            000000000+M10101M0034C    MPL  00364                     000000000  N                0000000000000.00 0000000.00   0000000.00                             000000000000000                                                                                                                                                   B101418  000000000000 0000000000000.89     01800 00400                  
01938810454280050DT67590675900000002881800888800000010180088824001193051900014900139022020230000000115005123000000000058467453506XXXXXX9482       VK04VS111111111   NYV1 A E463051801966695N8400000000011505CHG00    05DNHAPPY HIPPIE             H62843    VD84000000001150 N  549976487134                            000000000+                F DF 10439                     000000000  Y000000000 331   0000000000000.00 0000000.00   0000000.00                             000000000000000                                                                                                                                                     01418 F000000000000 0000000000000.23     00050 02200                  
01938820454280051DT67590675900000002881800888800000010180088824001193051900014900147022020230000000164605123000000000058467410889XXXXXX9092       VS11    0001111   NYV1 A E583051803491515N840000000001646JVK600    05DNHAPPY HIPPIE             562350    VS84000000001646 N  549976487134                            000000000+                B CB 12111                     000000000  N000000000 495   0000000000000.00 0000000.00   0000000.00                             000000000000000                                                                                                                                                     01418 A000000000000 0000000000000.37     01650 01000                  
01938830454280052DT67590675900000002881800888800000010180088824001193051900014900154022020230000000576905123000000000058467480639XXXXXX7590       VS11    0001111   NYV1 A E303051812975098N8400000000057692SM700    05DNHAPPY HIPPIE             310229    VD84000000005769 N  549976487134                            000000000+                F DF 00381                     000000000  N000000000       0000000000000.00 0000000.00   0000000.00                             000000000000000                                                                                                                                                     01418 A000000000000 0000000000000.61     00800 01500                  
01938840454280053BH6759067590000000215480088880000090170220202305123000000000254259    0000090001135613N8008886759C02212023                                                                                                                                                                                                                                                                                                                                                                                                                                                                                                                                                                                                 
01938850454280054DT67590675900000002154800888800000010180088887287283051900011364595022020230000014580005123000000000254259542418XXXXXX9220       ME03KE06MS02      NY 4607AMWEFKNA8Q0220  N840000000145800          81DNDRIP DROP DISTRO LLC     73960P    MC84000000145800 N  519900000001   INV-000812               000000000+600450S00140    MWE  00737                     000000000  N                0000000000000.00 0000000.00   0000000.00                             000000000000000                                                                                                                                                   U001418  000000000000 0000000000038.01     02600 01000                  
01938860454280055DT67590675900000002154800888800000010180088887287283051900011394618022020230000002039405123000000000254259547415XXXXXX7571                         NY 4607AMEBJ0J0AE0220  N840000000020394          81DNDRIP DROP DISTRO LLC     00127Q    MB84000000020394 NP1519900000001   17456                    000000000+600450S00140    MEB  11637                     000000000  N                0000000000000.00 0000000.00   0000000.00                             000000000000000                                                                                                                                                   U001418  000000000000 0000000000006.22     03000 01000                  
01938870454280001P1675906759000000021548008888000000101                                                          000000000000          8000            471534935                                                                                                                                                                                                                                                                                                                                                                                                                                                                                                                                                            
01938880454280056DT67590675900000002154800888800000010180088824001193051900011356137022020230000008806505123000000000254259442742XXXXXX8167               2111111   NYV4 A7W383051793865406N840000000088065JLX600    01DNDRIP DROP DISTRO LLC     060317    VD84000000088065 NP1519971004114   17457                    000000000+                G DG 10352                     000000000  Y000000000 338   0000000000000.00 0000000.00   0000000.00                             000000000000000                                                                                                                                                     01418 G000000088065 0000000000000.66     00050 02200                  
01938890454280001P16759067590000000215480088880000001010000000000000000    43952534581              2000000000000000000000000              000000000000                    0000000000000000000000000                    000000000000                                                                                                                                                                                                                                                                                                                                                                                                                                                                                        
01938900454280057BH6759067590000000589280010180000090170220202305123000000000025097    0000090001092564N8001016759C02212023                                                                                                                                                                                                                                                                                                                                                                                                                                                                                                                                                                                                 
01938910454280058DT67590675900000005892800101800000010180010124001193051900010981125022020230000002350005123000000000025097408540XXXXXX7511               2111111   NYV4 A7W383051630990714N840000000023500D56Q00    01DNPLANET VAPOR INC         013140    VD84000000023500 NP1599971004114   220000622159             000000000+                G DG 10352                     000000000  Y000000000 338   0000000000000.00 0000000.00   0000000.00                             000000000000000                                                                                                                                                     01418 G000000023500 0000000000000.34     00050 02200                  
01938920454280001P16759067590000000589280010180000001010000000000000000    43951936004              2000000000000000000000000              000000000000                    0000000000000000000000000                    000000000000                                                                                                                                                                                                                                                                                                                                                                                                                                                                                        
01938930454280059DT67590675900000005892800101800000010180010187287283051900010925644022020230000000159705123000000000025097553934XXXXXX9788       ME03KE06MS02      NY 4607AMDSZJNCAF0220  N840000000001597          81DNPLANET VAPOR INC         382261    MD84000000001597 N  599900000001   14358915                 000000000+600450S00140    MDS  00401                     000000000  N                0000000000000.00 0000000.00   0000000.00                             000000000000000                                                                                                                                                   U001418  000000000000 0000000000000.41     01650 01500                  
01938940454280060BH6759067590000001090080010180000090170220202305123000000000089458    0000090001100023N8001016759C02212023                                                                                                                                                                                                                                                                                                                                                                                                                                                                                                                                                                                                 
01938950454280061DT67590675900000010900800101800000010180010177287283051900011000018022020230000000323805123000000000089458517800XXXXXX0234       MS02WI09          NY 1 0 AMCSBDN58L0220  N840000000003238          05DNPLANET VAPOR #700        020987    MC84000000003238 N  599976923375                            000000000+M10101C5434C    MCS  00015                     000000000  N                0000000000000.00 0000000.00   0000000.00                             000000000000000                                                                                                                                                   B101418  000000000000 0000000000000.63     01650 01000                  
01938960454280062DT67590675900000010900800101800000010180010124001193051900011000024022020230000000647705123000000000089458448233XXXXXX0400       VS11    0001111   NYV1 A E383051618689066N840000000006477CP3F00    05DNPLANET VAPOR #700        011108    VD84000000006477 N  599976923375                            000000000+                F DF 10433                     000000000  Y000000000 338   0000000000000.00 0000000.00   0000000.00                             000000000000000                                                                                                                                                     01418 A000000000000 0000000000000.25     00050 02200                  
01938970454280063DT67590675900000010900800101800000010180010124001193051900011000032022020230000000453405123000000000089458440066XXXXXX2150       VS11    0001111   NYV1 A E463051629114927N840000000004534BKT300    05DNPLANET VAPOR #700        09186D    VS84000000004534 N  599976923375                            000000000+                D CD 12113                     000000000  N000000000 499   0000000000000.00 0000000.00   0000000.00                             000000000000000                                                                                                                                                     01418 A000000000000 0000000000001.05     02100 01000                  
01938980454280064DT67590675900000010900800101800000010180010124001193051900011000040022020230000000215905123000000000089458459954XXXXXX3834       VS11    0001111   NYV1 A E583051641283254N840000000002159Z8N300    05DNPLANET VAPOR #700        H17087    VD84000000002159 N  599976923375                            000000000+                F DF 10433                     000000000  Y000000000 338   0000000000000.00 0000000.00   0000000.00                             000000000000000                                                                                                                                                     01418 A000000000000 0000000000000.23     00050 02200                  
01938990454280065DT67590675900000010900800101800000010180010124001193051900011000057022020230000000593705123000000000089458430602XXXXXX6597       VS11    0001111   NYV1 A E463051655939819N840000000005937DFHZ00    05DNPLANET VAPOR #700        285942    VD84000000005937 N  599976923375                            000000000+                F DF 00381                     000000000  N000000000       0000000000000.00 0000000.00   0000000.00                             000000000000000                                                                                                                                                     01418 A000000000000 0000000000000.62     00800 01500                  
01939000454280066DT67590675900000010900800101800000010180010124001193051900011000065022020230000000734005123000000000089458461675XXXXXX6780       VS11    0001111   NYV1 A E383051659205291N840000000007340X8T600    05DNPLANET VAPOR #700        957960    VD84000000007340 N  599976923375                            000000000+                F DF 00381                     000000000  N000000000       0000000000000.00 0000000.00   0000000.00                             000000000000000                                                                                                                                                     01418 A000000000000 0000000000000.74     00800 01500                  
01939010454280067DT67590675900000010900800101800000010180010177287283051900011000075022020230000000237505123000000000089458531258XXXXXX7357       MS02WI09          NY 1 0 AMDJEYPBAG0220  N840000000002375          05DNPLANET VAPOR #700        102776    MD84000000002375 N  599976923375                            000000000+M10101C5434C    MDJ  10815                     000000000  1                0000000000000.00 0000000.00   0000000.00                             000000000000000                                                                                                                                                   B101418  000000000000 0000000000000.23     00050 02200                  
01939020454280068DT67590675900000010900800101800000010180010177287283051900011000083022020230000000269805123000000000089458553818XXXXXX4910       MS02WI09          NY 1 0 AMDSBRQW950220  N840000000002698          05DNPLANET VAPOR #700        135822    MD84000000002698 N  599976923375                            000000000+M10101C5434C    MDS  00402                     000000000  N                0000000000000.00 0000000.00   0000000.00                             000000000000000                                                                                                                                                   B101418  000000000000 0000000000000.43     01050 01500                  
01939030454280069DT67590675900000010900800101800000010180010124001193051900011000099022020230000000097105123000000000089458488853XXXXXX4889       VK04VS111111111   NYV1 A E463051690419713N840000000000971Q9QP00    05DNPLANET VAPOR #700        122975    VD84000000000971 N  599976923375                            000000000+                G DG 08704                     000000000  N000000000       0000000000000.00 0000000.00   0000000.00                             000000000000000                                                                                                                                                     01418 F000000000000 0000000000000.27     01700 01000                  
01939040454280070DT67590675900000010900800101800000010180010124001193051900011000107022020230000000340105123000000000089458430602XXXXXX7053       VS11    0001111   NYV1 A E303051720225894N840000000003401QC2500    05DNPLANET VAPOR #700        302439    VD84000000003401 N  599976923375                            000000000+                F DF 00381                     000000000  N000000000       0000000000000.00 0000000.00   0000000.00                             000000000000000                                                                                                                                                     01418 A000000000000 0000000000000.42     00800 01500                  
01939050454280071DT67590675900000010900800101800000010180010124001193051900011000115022020230000000269905123000000000089458408881XXXXXX4540       VS11    0001111   NYV1 A E383051756411033N840000000002699ZH5X00    05DNPLANET VAPOR #700        335088    VD84000000002699 N  599976923375                            000000000+                F DF 00381                     000000000  N000000000       0000000000000.00 0000000.00   0000000.00                             000000000000000                                                                                                                                                     01418 A000000000000 0000000000000.37     00800 01500                  
01939060454280072DT67590675900000010900800101800000010180010124001193051900011000123022020230000000215905123000000000089458438419XXXXXX7518       VS11    0001111   NYV1 A E583051757329347N840000000002159FPHX00    05DNPLANET VAPOR #700        060212    VD84000000002159 N  599976923375                            000000000+                F DF 00381                     000000000  N000000000       0000000000000.00 0000000.00   0000000.00                             000000000000000                                                                                                                                                     01418 A000000000000 0000000000000.32     00800 01500                  
01939070454280073DT67590675900000010900800101800000010180010124001193051900011000131022020230000000302205123000000000089458453506XXXXXX5562       VS11    0001111   NYV1 A E383051770716457N840000000003022T5XW00    05DNPLANET VAPOR #700        H55507    VD84000000003022 N  599976923375                            000000000+                F DF 10433                     000000000  Y000000000 338   0000000000000.00 0000000.00   0000000.00                             000000000000000                                                                                                                                                     01418 A000000000000 0000000000000.24     00050 02200                  
01939080454280074DT67590675900000010900800101800000010180010124001193051900011000149022020230000000242905123000000000089458444796XXXXXX9127       VS11    0001111   NYV1 A E303051778535966N840000000002429GHTQ00    05DNPLANET VAPOR #700        020081    VS84000000002429 N  599976923375                            000000000+                A CA 12110                     000000000  N000000000 493   0000000000000.00 0000000.00   0000000.00                             000000000000000                                                                                                                                                     01418 A000000000000 0000000000000.47     01510 01000                  
01939090454280075DT67590675900000010900800101800000010180010124001193051900011000156022020230000000495505123000000000089458430602XXXXXX5240       VS11    0001111   NYV1 A E463051780356314N840000000004955LX4L00    05DNPLANET VAPOR #700        316643    VD84000000004955 N  599976923375                            000000000+                F DF 00381                     000000000  N000000000       0000000000000.00 0000000.00   0000000.00                             000000000000000                                                                                                                                                     01418 A000000000000 0000000000000.55     00800 01500                  
01939100454280076DT67590675900000010900800101800000010180010177287283051900011000166022020230000000388605123000000000089458531258XXXXXX1047       MS02WI09          NY 1 0 AMDJOEB8CD0220  N840000000003886          05DNPLANET VAPOR #700        100674    MD84000000003886 N  599976923375                            000000000+M10101C5434C    MDJ  10815                     000000000  1                0000000000000.00 0000000.00   0000000.00                             000000000000000                                                                                                                                                   B101418  000000000000 0000000000000.24     00050 02200                  
01939110454280077DT67590675900000010900800101800000010180010177287283051900011000174022020230000000165105123000000000089458526185XXXXXX3234       MS02WI09          NY 1 0 AMPLDD35OX0220  N840000000001651          07DNPLANET VAPOR #700        05399B    MC84000000001651 N  599976923375                            000000000+M10101M0034C    MPL  00353                     000000000  N                0000000000000.00 0000000.00   0000000.00                             000000000000000                                                                                                                                                   A101418  000000000000 0000000000000.40     01800 01000                  
01939120454280078DT67590675900000010900800101800000010180010177287283051900011000182022020230000000971905123000000000089458528197XXXXXX5070       MS02WI09          NY 1 0 AMPAD3ISOX0220  N840000000009719          90DNPLANET VAPOR #700        143718    MD84000000009719 N  599976923375                            000000000+M10101B5434C    MPA  11964                     000000000  N                0000000000000.00 0000000.00   0000000.00                             000000000000000                                                                                                                                                   C101418  000000000000 0000000000001.27     01150 01500                  
01939130454280079DT67590675900000010900800101800000010180010177287283051900011000190022020230000000539905123000000000089458517800XXXXXX0234       MS02WI09          NY 1 0 AMCSXY4ROW0220  N840000000005399          05DNPLANET VAPOR #700        020399    MC84000000005399 N  599976923375                            000000000+M10101C5434C    MCS  00015                     000000000  N                0000000000000.00 0000000.00   0000000.00                             000000000000000                                                                                                                                                   B101418  000000000000 0000000000000.99     01650 01000                  
01939140454280080DT67590675900000010900800101800000010180010124001193051900011000206022020230000000269905123000000000089458407227XXXXXX8578       VS11    0001111   NYV1 A E463051839484172N840000000002699K9VZ00    05DNPLANET VAPOR #700        500079    VD84000000002699 N  599976923375                            000000000+                F DF 00381                     000000000  N000000000       0000000000000.00 0000000.00   0000000.00                             000000000000000                                                                                                                                                     01418 A000000000000 0000000000000.37     00800 01500                  
01939150454280081DT67590675900000010900800101800000010180010124001193051900011000214022020230000000453405123000000000089458433477XXXXXX4713       VS11    0001111   NYV1 A E583051848667023N840000000004534XTCZ00    05DNPLANET VAPOR #700        103604    VD84000000004534 N  599976923375                            000000000+                F DF 10433                     000000000  Y000000000 338   0000000000000.00 0000000.00   0000000.00                             000000000000000                                                                                                                                                     01418 A000000000000 0000000000000.24     00050 02200                  
01939160454280082DT67590675900000010900800101800000010180010124001193051900011000222022020230000000339705123000000000089458434256XXXXXX7969       VS11    0001111   NYV1 A E463051862129046N8400000000033975KRL00    05DNPLANET VAPOR #700        004638    VD84000000003397 N  599976923375                            000000000+                F DF 10433                     000000000  Y000000000 338   0000000000000.00 0000000.00   0000000.00                             000000000000000                                                                                                                                                     01418 A000000000000 0000000000000.24     00050 02200                  
01939170454280083DT67590675900000010900800101800000010180010177287283051900011000232022020230000000377905123000000000089458531258XXXXXX2499       MS02WI09          NY 1 0 AMDJYV2TOW0220  N840000000003779          05DNPLANET VAPOR #700        105786    MD84000000003779 N  599976923375                            000000000+M10101C5434C    MDJ  10815                     000000000  1                0000000000000.00 0000000.00   0000000.00                             000000000000000                                                                                                                                                   B101418  000000000000 0000000000000.24     00050 02200                  
01939180454280084BH6759067590000000708880010180000090170220202305123000000000085659    0000090001120028N8001016759C02212023                                                                                                                                                                                                                                                                                                                                                                                                                                                                                                                                                                                                 
01939190454280085DT67590675900000007088800101800000010180010124001193051900011200012022020230000000340005123000000000085659433477XXXXXX6625       VS11    0001111   NYV1 A E383051550664761N840000000003400NCW500    05DNPLANET VAPOR #200        623556    VD84000000003400 N  599976770268                            000000000+                F DF 10433                     000000000  Y000000000 338   0000000000000.00 0000000.00   0000000.00                             000000000000000                                                                                                                                                     01418 A000000000000 0000000000000.24     00050 02200                  
01939200454280086DT67590675900000007088800101800000010180010177287283051900011200022022020230000000205105123000000000085659523914XXXXXX2225       MS02WI09          NY 1 0 AMCWUNO98P0220  N840000000002051          05DNPLANET VAPOR #200        04068Z    MC84000000002051 N  599976770268                            000000000+M10101C5434C    MCW  00644                     000000000  N                0000000000000.00 0000000.00   0000000.00                             000000000000000                                                                                                                                                   B101418  000000000000 0000000000000.49     01900 01000                  
01939210454280087DT67590675900000007088800101800000010180010173011003051900011200034022020230000000205105123000000000085659372270XXXXX2008                          NY 1 0 N007162407489062N840000000002051          05DNPLANET VAPOR INC #200    842216    AM84000000002051 N  599976770268                            000000000+51010155434C 258     11261                     000000000                   0000000000000.00 0000000.00   0000000.00                             000000000000000 61248972086759675900000007088 PLANET VAPOR INC #200    7457 PATTERSON RD STE 1098035462263      29209     KEVIN@MOOREDISTRO.COM                     01418  000000000000 0000000000000.43     01600 00000                  
01939220454280088DT67590675900000007088800101800000010180010177287283051900011200048022020230000000237505123000000000085659555426XXXXXX1334       MS02WI09          NY 1 0 AMPGW6P68K0220  N840000000002375          90DNPLANET VAPOR #200        011235    MD84000000002375 N  599976770268                            000000000+M10101B5434C    MPG  11964                     000000000  N                0000000000000.00 0000000.00   0000000.00                             000000000000000                                                                                                                                                   C101418  000000000000 0000000000000.42     01150 01500                  
01939230454280089DT67590675900000007088800101800000010180010124001193051900011200053022020230000000259005123000000000085659410881XXXXXX7015       VS11    0001111   NYV1 A E583051645259837N8400000000025908LQ800    05DNPLANET VAPOR #200        698182    VD84000000002590 N  599976770268                            000000000+                F DF 00381                     000000000  N000000000       0000000000000.00 0000000.00   0000000.00                             000000000000000                                                                                                                                                     01418 A000000000000 0000000000000.36     00800 01500                  
01939240454280090DT67590675900000007088800101800000010180010177287283051900011200063022020230000000863605123000000000085659531258XXXXXX1853       MS02WI09          NY 1 0 AMDJECYHAG0220  N840000000008636          05DNPLANET VAPOR #200        100863    MD84000000008636 N  599976770268                            000000000+M10101C5434C    MDJ  10815                     000000000  1                0000000000000.00 0000000.00   0000000.00                             000000000000000                                                                                                                                                   B101418  000000000000 0000000000000.26     00050 02200                  
01939250454280091DT67590675900000007088800101800000010180010124001193051900011200079022020230000000301105123000000000085659455225XXXXXX4003       VS11    0001111   NYV1 A E303051668830078N840000000003011B28400    05DNPLANET VAPOR #200        H26505    VD84000000003011 N  599976770268                            000000000+                F DF 10433                     000000000  Y000000000 338   0000000000000.00 0000000.00   0000000.00                             000000000000000                                                                                                                                                     01418 A000000000000 0000000000000.24     00050 02200                  
01939260454280092DT67590675900000007088800101800000010180010124001193051900011200087022020230000000194305123000000000085659473703XXXXXX5913       VS11    0001111   NYV1 A E583051686823643N840000000001943FXNG00    05DNPLANET VAPOR #200        046117    VD84000000001943 N  599976770268                            000000000+                F DF 10433                     000000000  Y000000000 338   0000000000000.00 0000000.00   0000000.00                             000000000000000                                                                                                                                                     01418 A000000000000 0000000000000.23     00050 02200                  
01939270454280093DT67590675900000007088800101800000010180010124001193051900011200095022020230000000107905123000000000085659423223XXXXXX1032       VK04VS111111111   NYV1 A E303051721315542N840000000001079R93H00    05DNPLANET VAPOR #200        069984    VD84000000001079 N  599976770268                            000000000+                F DF 00451                     000000000  N000000000 214   0000000000000.00 0000000.00   0000000.00                             000000000000000                                                                                                                                                     01418 F000000000000 0000000000000.21     01550 00400                  
01939280454280094DT67590675900000007088800101800000010180010124001193051900011200103022020230000000080905123000000000085659423223XXXXXX1032       VK04VS111111111   NYV1 A E583051721937333N840000000000809453R00    05DNPLANET VAPOR #200        073669    VD84000000000809 N  599976770268                            000000000+                F DF 00451                     000000000  N000000000 214   0000000000000.00 0000000.00   0000000.00                             000000000000000                                                                                                                                                     01418 F000000000000 0000000000000.17     01550 00400                  
01939290454280095DT67590675900000007088800101800000010180010124001193051900011200111022020230000000102605123000000000085659448261XXXXXX1609       VK04VS111111111   NYV1 A E463051730030407N840000000001026KSPX00    05DNPLANET VAPOR #200        500072    VD84000000001026 N  599976770268                            000000000+                F DF 10439                     000000000  Y000000000 331   0000000000000.00 0000000.00   0000000.00                             000000000000000                                                                                                                                                     01418 F000000000000 0000000000000.23     00050 02200                  
01939300454280096DT67590675900000007088800101800000010180010124001193051900011200129022020230000000323805123000000000085659430602XXXXXX4690       VS11    0001111   NYV1 A E463051758071029N840000000003238M2ZB00    05DNPLANET VAPOR #200        311339    VD84000000003238 N  599976770268                            000000000+                F DF 00381                     000000000  N000000000       0000000000000.00 0000000.00   0000000.00                             000000000000000                                                                                                                                                     01418 A000000000000 0000000000000.41     00800 01500                  
01939310454280097DT67590675900000007088800101800000010180010124001193051900011200137022020230000000145705123000000000085659430602XXXXXX4690       VK04VS111111111   NYV1 A E383051759067111N840000000001457B9VZ00    05DNPLANET VAPOR #200        311531    VD84000000001457 N  599976770268                            000000000+                F DF 00451                     000000000  N000000000 214   0000000000000.00 0000000.00   0000000.00                             000000000000000                                                                                                                                                     01418 F000000000000 0000000000000.27     01550 00400                  
01939320454280098DT67590675900000007088800101800000010180010124001193051900011200145022020230000000323805123000000000085659402944XXXXXX6079       VS11    0001111   NYV1 A E303051762297087N840000000003238D24600    05DNPLANET VAPOR #200        051029    VD84000000003238 N  599976770268                            000000000+                F DF 10433                     000000000  Y000000000 338   0000000000000.00 0000000.00   0000000.00                             000000000000000                                                                                                                                                     01418 A000000000000 0000000000000.24     00050 02200                  
01939330454280099DT67590675900000007088800101800000010180010124001193051900011200152022020230000000427505123000000000085659400022XXXXXX2079       VS11    0001111   NYV1 A E303051767008886N8400000000042753ZJR00    05DNPLANET VAPOR #200        501164    VD84000000004275 N  599976770268                            000000000+                F DF 10433                     000000000  Y000000000 338   0000000000000.00 0000000.00   0000000.00                             000000000000000                                                                                                                                                     01418 A000000000000 0000000000000.24     00050 02200                  
01939340454280100DT67590675900000007088800101800000010180010124001193051900011200160022020230000000782605123000000000085659453506XXXXXX0580       VS11    0001111   NYV1 A E463051770769080N8400000000078263QXM00    05DNPLANET VAPOR #200        H60317    VD84000000007826 N  599976770268                            000000000+                F DF 10433                     000000000  Y000000000 338   0000000000000.00 0000000.00   0000000.00                             000000000000000                                                                                                                                                     01418 A000000000000 0000000000000.26     00050 02200                  
01939350454280101DT67590675900000007088800101800000010180010124001193051900011200178022020230000000323805123000000000085659453506XXXXXX0580       VS11    0001111   NYV1 A E383051771346814N840000000003238Q5GF00    05DNPLANET VAPOR #200        H55827    VD84000000003238 N  599976770268                            000000000+                F DF 10433                     000000000  Y000000000 338   0000000000000.00 0000000.00   0000000.00                             000000000000000                                                                                                                                                     01418 A000000000000 0000000000000.24     00050 02200                  
01939360454280102DT67590675900000007088800101800000010180010124001193051900011200186022020230000000408005123000000000085659427199XXXXXX6296       VS11    0001111   NYV1 A E583051772307915N840000000004080RM2Z00    05DNPLANET VAPOR #200        549721    VD84000000004080 N  599976770268                            000000000+                F DF 00381                     000000000  N000000000       0000000000000.00 0000000.00   0000000.00                             000000000000000                                                                                                                                                     01418 A000000000000 0000000000000.48     00800 01500                  
01939370454280103DT67590675900000007088800101800000010180010124001193051900011200194022020230000000124005123000000000085659448233XXXXXX1679       VK04VS111111111   NYV1 A E303051774394261N8400000000012407SS700    05DNPLANET VAPOR #200        053040    VD84000000001240 N  599976770268                            000000000+                F DF 10439                     000000000  Y000000000 331   0000000000000.00 0000000.00   0000000.00                             000000000000000                                                                                                                                                     01418 F000000000000 0000000000000.23     00050 02200                  
01939380454280104DT67590675900000007088800101800000010180010124001193051900011200202022020230000000242905123000000000085659474474XXXXXX3249       VS11    0001111   NYV1 A E383051775563721N840000000002429X8WG00    05DNPLANET VAPOR #200        103829    VD84000000002429 N  599976770268                            000000000+                F DF 10433                     000000000  Y000000000 338   0000000000000.00 0000000.00   0000000.00                             000000000000000                                                                                                                                                     01418 A000000000000 0000000000000.23     00050 02200                  
01939390454280105DT67590675900000007088800101800000010180010124001193051900011200210022020230000000136005123000000000085659465124XXXXXX2590       VK04VS111111111   NYV1 A E463051777509655N840000000001360ZDXP00    07DNPLANET VAPOR #200        081667    VD84000000001360 N  599976770268                            000000000+                F DF 10439                     000000000  Y000000000 331   0000000000000.00 0000000.00   0000000.00                             000000000000000                                                                                                                                                     01418 F000000000000 0000000000000.23     00050 02200                  
01939400454280106DT67590675900000007088800101800000010180010124001193051900011200228022020230000000242805123000000000085659402944XXXXXX0108       VS11    0001111   NYV1 A E463051793085300N840000000002428X94W00    05DNPLANET VAPOR #200        060148    VD84000000002428 N  599976770268                            000000000+                F DF 10433                     000000000  Y000000000 338   0000000000000.00 0000000.00   0000000.00                             000000000000000                                                                                                                                                     01418 A000000000000 0000000000000.23     00050 02200                  
01939410454280107DT67590675900000007088800101800000010180010177287283051900011200238022020230000000475005123000000000085659559898XXXXXX6652       MS02WI09          NY 1 0 AMDJGWUH950220  N840000000004750          07DNPLANET VAPOR #200        102711    MD84000000004750 N  599976770268                            000000000+M10101M0034C    MDJ  10815                     000000000  1                0000000000000.00 0000000.00   0000000.00                             000000000000000                                                                                                                                                   A101418  000000000000 0000000000000.24     00050 02200                  
01939420454280108DT67590675900000007088800101800000010180010124001193051900011200244022020230000000323805123000000000085659434769XXXXXX7639       VS11    0001111   NYV1 A E463051806280654N8400000000032385W6R00    05DNPLANET VAPOR #200        082317    VD84000000003238 N  599976770268                            000000000+                F DF 10433                     000000000  Y000000000 338   0000000000000.00 0000000.00   0000000.00                             000000000000000                                                                                                                                                     01418 A000000000000 0000000000000.24     00050 02200                  
01939430454280109DT67590675900000007088800101800000010180010124001193051900011200251022020230000000271905123000000000085659400022XXXXXX8550       VS11    0001111   NYV1 A E583051818262620N840000000002719NCR600    05DNPLANET VAPOR #200        331765    VD84000000002719 N  599976770268                            000000000+                F DF 10433                     000000000  Y000000000 338   0000000000000.00 0000000.00   0000000.00                             000000000000000                                                                                                                                                     01418 A000000000000 0000000000000.23     00050 02200                  
01939440454280110DT67590675900000007088800101800000010180010124001193051900011200269022020230000000194305123000000000085659427082XXXXXX5345       VS11    0001111   NYV1 A E383051826000021N840000000001943W3SK00    05DNPLANET VAPOR #200        020248    VS84000000001943 N  599976770268                            000000000+                A CA 12110                     000000000  N000000000 493   0000000000000.00 0000000.00   0000000.00                             000000000000000                                                                                                                                                     01418 A000000000000 0000000000000.39     01510 01000                  
01939450454280111DT67590675900000007088800101800000010180010173011003051900011200273022020230000000495405123000000000085659372657XXXXX1008                          NY 1 0 N006592436497077N840000000004954          05DNPLANET VAPOR INC #200    863746    AM84000000004954 N  599976770268                            000000000+51010155434C 258     11261                     000000000                   0000000000000.00 0000000.00   0000000.00                             000000000000000 61248972086759675900000007088 PLANET VAPOR INC #200    7457 PATTERSON RD STE 1098035462263      29209     KEVIN@MOOREDISTRO.COM                     01418  000000000000 0000000000000.89     01600 00000                  
01939460454280112DT67590675900000007088800101800000010180010124001193051900011200285022020230000000427505123000000000085659433477XXXXXX2737       VS11    0001111   NYV1 A E583052019811734N840000000004275D89800    05DNPLANET VAPOR #200        144340    VD84000000004275 N  599976770268                            000000000+                F DF 10433                     000000000  Y000000000 338   0000000000000.00 0000000.00   0000000.00                             000000000000000                                                                                                                                                     01418 A000000000000 0000000000000.24     00050 02200                  
01939470454280113BH6759067590000001107280010180000090170220202305123000000000016985    0000090001150007N8001016759C02212023                                                                                                                                                                                                                                                                                                                                                                                                                                                                                                                                                                                                 
01939480454280114DT67590675900000011072800101800000010180010124001193051900011500015022020230000000188705123000000000016985433477XXXXXX6745       VS11    0001111   NYV1 A E583051614420473N840000000001887SFQ700    05DNPLANET VAPOR #900        713572    VD84000000001887 N  599976923588                            000000000+                F DF 10433                     000000000  Y000000000 338   0000000000000.00 0000000.00   0000000.00                             000000000000000                                                                                                                                                     01418 A000000000000 0000000000000.23     00050 02200                  
01939490454280115DT67590675900000011072800101800000010180010124001193051900011500023022020230000000556105123000000000016985458643XXXXXX9273       VS11    0001111   NYV1 A E383051637393313N840000000005561KQ5F00    05DNPLANET VAPOR #900        H19855    VD84000000005561 N  599976923588                            000000000+                F DF 10433                     000000000  Y000000000 338   0000000000000.00 0000000.00   0000000.00                             000000000000000                                                                                                                                                     01418 A000000000000 0000000000000.25     00050 02200                  
01939500454280116DT67590675900000011072800101800000010180010124001193051900011500031022020230000000127205123000000000016985441707XXXXXX5655       VK04VS111111111   NYV1 A E383051644246102N8400000000012725TR500    07DNPLANET VAPOR #900        092021    VD84000000001272 N  599976923588                            000000000+                F PF 08165                     000000000  N000000000       0000000000000.00 0000000.00   0000000.00                             000000000000000                                                                                                                                                     01418 F000000000000 0000000000000.25     01600 00500                  
01939510454280117DT67590675900000011072800101800000010180010124001193051900011500049022020230000000235305123000000000016985430602XXXXXX8438       VS11    0001111   NYV1 A E463051750778919N8400000000023532WT400    07DNPLANET VAPOR #900        309855    VD84000000002353 N  599976923588                            000000000+                F DF 00381                     000000000  N000000000       0000000000000.00 0000000.00   0000000.00                             000000000000000                                                                                                                                                     01418 A000000000000 0000000000000.34     00800 01500                  
01939520454280118DT67590675900000011072800101800000010180010124001193051900011500056022020230000000067105123000000000016985498503XXXXXX7388       VK04VS111111111   NYV1 A E303051800511758N840000000000671KJ3500    05DNPLANET VAPOR #900        031157    VD84000000000671 N  599976923588                            000000000+                F DF 00451                     000000000  N000000000 214   0000000000000.00 0000000.00   0000000.00                             000000000000000                                                                                                                                                     01418 F000000000000 0000000000000.14     01550 00400                  
01939530454280119DT67590675900000011072800101800000010180010124001193051900011500064022020230000000320905123000000000016985461675XXXXXX9426       VS11    0001111   NYV1 A E383051827110013N8400000000032093CMS00    05DNPLANET VAPOR #900        138560    VD84000000003209 N  599976923588                            000000000+                F DF 00381                     000000000  N000000000       0000000000000.00 0000000.00   0000000.00                             000000000000000                                                                                                                                                     01418 A000000000000 0000000000000.41     00800 01500                  
01939540454280120DT67590675900000011072800101800000010180010177287283051900011500074022020230000000203205123000000000016985517805XXXXXX5575       MS02WI09          NY 1 0 AMWEENZNOX0220  N840000000002032          07DNPLANET VAPOR #900        01577P    MC84000000002032 N  599976923588                            000000000+M10101M0034C    MWE  00739                     000000000  N                0000000000000.00 0000000.00   0000000.00                             000000000000000                                                                                                                                                   B101418  000000000000 0000000000000.57     02300 01000                  
01939550454280121BH6759067590000000995180010180000090170220202305123000000000047879    0000090001120012N8001016759C02212023                                                                                                                                                                                                                                                                                                                                                                                                                                                                                                                                                                                                 
01939560454280122DT67590675900000009951800101800000010180010124001193051900011200012022020230000000570205123000000000047879498503XXXXXX5336       VS11    0001111   NYV1 A E383051556527038N840000000005702MTRD00    05DNPLANET VAPOR #500        060482    VD84000000005702 N  599976923295                            000000000+                F DF 00381                     000000000  N000000000       0000000000000.00 0000000.00   0000000.00                             000000000000000                                                                                                                                                     01418 A000000000000 0000000000000.61     00800 01500                  
01939570454280123DT67590675900000009951800101800000010180010177287283051900011200022022020230000000345405123000000000047879510805XXXXXX6566       MS02WI09          NY 1 0 AMDJZHXZ8P0220  N840000000003454          05DNPLANET VAPOR #500        000611    MD84000000003454 N  599976923295                            000000000+M10101C5434C    MDJ  10815                     000000000  1                0000000000000.00 0000000.00   0000000.00                             000000000000000                                                                                                                                                   B101418  000000000000 0000000000000.24     00050 02200                  
01939580454280124DT67590675900000009951800101800000010180010124001193051900011200038022020230000000518205123000000000047879473703XXXXXX7331       VS11    0001111   NYV1 A E583051683982801N840000000005182K86D00    05DNPLANET VAPOR #500        086448    VD84000000005182 N  599976923295                            000000000+                F DF 10433                     000000000  Y000000000 338   0000000000000.00 0000000.00   0000000.00                             000000000000000                                                                                                                                                     01418 A000000000000 0000000000000.25     00050 02200                  
01939590454280125DT67590675900000009951800101800000010180010177287283051900011200048022020230000000644905123000000000047879514230XXXXXX5502       MS02WI09          NY 1 0 AMDJG73SAG0220  N840000000006449          05DNPLANET VAPOR #500        1E0558    MD84000000006449 N  599976923295                            000000000+M10101C5434C    MDJ  00402                     000000000  N                0000000000000.00 0000000.00   0000000.00                             000000000000000                                                                                                                                                   B101418  000000000000 0000000000000.83     01050 01500                  
01939600454280126DT67590675900000009951800101800000010180010124001193051900011200053022020230000000161905123000000000047879448261XXXXXX9880       VS11    0001111   NYV1 A E303051720350368N840000000001619CCDT00    05DNPLANET VAPOR #500        500070    VD84000000001619 N  599976923295                            000000000+                F DF 10433                     000000000  Y000000000 338   0000000000000.00 0000000.00   0000000.00                             000000000000000                                                                                                                                                     01418 A000000000000 0000000000000.23     00050 02200                  
01939610454280127DT67590675900000009951800101800000010180010124001193051900011200061022020230000000561205123000000000047879478967XXXXXX0662       VS11    0001111   NYV1 A E383051738763737N8400000000056126JW300    05DNPLANET VAPOR #500        133808    VD84000000005612 N  599976923295                            000000000+                F DF 00381                     000000000  N000000000       0000000000000.00 0000000.00   0000000.00                             000000000000000                                                                                                                                                     01418 A000000000000 0000000000000.60     00800 01500                  
01939620454280128DT67590675900000009951800101800000010180010124001193051900011200079022020230000000280705123000000000047879415975XXXXXX6067       VS11    0001111   NYV1 A E463051787378988N84000000000280725NT00    05DNPLANET VAPOR #500        068873    VD84000000002807 N  599976923295                            000000000+                F DF 10433                     000000000  Y000000000 338   0000000000000.00 0000000.00   0000000.00                             000000000000000                                                                                                                                                     01418 A000000000000 0000000000000.23     00050 02200                  
01939630454280129DT67590675900000009951800101800000010180010124001193051900011200087022020230000000205905123000000000047879440393XXXXXX2165       VS11    0001111   NYV1 A E463051857763361N8400000000020598HMN00    05DNPLANET VAPOR #500        286865    VD84000000002059 N  599976923295                            000000000+                F PF 08170                     000000000  N000000000       0000000000000.00 0000000.00   0000000.00                             000000000000000                                                                                                                                                     01418 A000000000000 0000000000000.39     01150 01500                  
01939640454280130DT67590675900000009951800101800000010180010124001193051900011200095022020230000000431805123000000000047879449370XXXXXX9947       VS11    0001111   NYV1 A E383052008214489N840000000004318CHXX00    05DNPLANET VAPOR #500        925575    VD84000000004318 N  599976923295                            000000000+                F DF 00381                     000000000  N000000000       0000000000000.00 0000000.00   0000000.00                             000000000000000                                                                                                                                                     01418 A000000000000 0000000000000.50     00800 01500                  
01939650454280131DT67590675900000009951800101800000010180010124001193051900011200103022020230000000215905123000000000047879448261XXXXXX5566       VS11    0001111   NYV1 A E463052011090485N8400000000021596CXH00    05DNPLANET VAPOR #500        332085    VD84000000002159 N  599976923295                            000000000+                F DF 10433                     000000000  Y000000000 338   0000000000000.00 0000000.00   0000000.00                             000000000000000                                                                                                                                                     01418 A000000000000 0000000000000.23     00050 02200                  
01939660454280132DT67590675900000009951800101800000010180010124001193051900011200111022020230000000064705123000000000047879400022XXXXXX7252       VK04VS111111111   NYV1 A E583052014375265N8400000000006474BPH00    05DNPLANET VAPOR #500        532751    VD84000000000647 N  599976923295                            000000000+                F DF 10439                     000000000  Y000000000 331   0000000000000.00 0000000.00   0000000.00                             000000000000000                                                                                                                                                     01418 F000000000000 0000000000000.22     00050 02200                  
01939670454280133DT67590675900000009951800101800000010180010124001193051900011200129022020230000000787105123000000000047879448261XXXXXX7315       VS11    0001111   NYV1 A E303052019471509N840000000007871GSGN00    07DNPLANET VAPOR #500        001075    VD84000000007871 N  599976923295                            000000000+                F DF 10433                     000000000  Y000000000 338   0000000000000.00 0000000.00   0000000.00                             000000000000000                                                                                                                                                     01418 A000000000000 0000000000000.26     00050 02200                  
01939680454280134BH6759067590000000370780088880000090170220202305123000000000027388    0000090001380266N8008886759C02212023                                                                                                                                                                                                                                                                                                                                                                                                                                                                                                                                                                                                 
01939690454280135DT67590675900000003707800888800000010180088824001193051900013802641021920230000000289805123000000000027388473703XXXXXX4316               2111111   NYV4 A7W303051157898943N840000000002898GHLH00    01DNMR HEMP FLOWER           030013    VD84000000002898 NP1549976053336   86085                    000000000+                F DF 10420                     000000000  Y000000000 338   0000000000000.00 0000000.00   0000000.00                             000000000000000                                                                                                                                                     01418 G000000002898 0000000000000.23     00050 02200                  
01939700454280001P16759067590000000370780088880000001010000000000000000                             2000000000000000000000000              000000000000                    0000000000000000000000000                    000000000000                                                                                                                                                                                                                                                                                                                                                                                                                                                                                        
01939710454280136DT67590675900000003707800888800000010180088824001193051900013802658022020230000001749205123000000000027388400022XXXXXX9687               2111111   NYV4 A7W463051779268768N840000000017492L6D900    01DNMR HEMP FLOWER           630236    VD84000000017492 NP1549976053336   86106                    000000000+                F DF 10420                     000000000  Y000000000 338   0000000000000.00 0000000.00   0000000.00                             000000000000000                                                                                                                                                     01418 G000000017492 0000000000000.31     00050 02200                  
01939720454280001P16759067590000000370780088880000001010000000000000000                             2000000000000000000000000              000000000000                    0000000000000000000000000                    000000000000                                                                                                                                                                                                                                                                                                                                                                                                                                                                                        
01939730454280137DT67590675900000003707800888800000010180088824001193051900013802666022020230000000699805123000000000027388461100XXXXXX2139               2111111   NYV4 A7W383051786604323N840000000006998VLT500    01DNMR HEMP FLOWER           487846    VD84000000006998 NP1549976053336   86107                    000000000+                F DF 10420                     000000000  Y000000000 338   0000000000000.00 0000000.00   0000000.00                             000000000000000                                                                                                                                                     01418 G000000006998 0000000000000.25     00050 02200                  
01939740454280001P16759067590000000370780088880000001010000000000000000                             2000000000000000000000000              000000000000                    0000000000000000000000000                    000000000000                                                                                                                                                                                                                                                                                                                                                                                                                                                                                        
