02882240079590002BH6759067590000000370780088880000090170203202303423000000000079671    0000090001210157Y8008886759C02062023                                                                                                                                                                                                                                                                                                                                                                                                                                                                                                                                                                                                 
02882250079590003DT67590675900000003707800888800000010180088824001193034900012101468020320230000000449803423000000000079671473703XXXXXX6167               2111111   NYV4 A7W383034551333805N8400000000044988D8T00    01DNMR HEMP FLOWER           011364    VD84000000004498 NP1549976053336   85180                    000000000+                F DF 10420                     000000000  Y000000000 338   0000000000000.00 0000000.00   0000000.00                             000000000000000                                                                                                                                                     01424 G000000004498 0000000000000.24     00050 02200                  
02882260079590001P16759067590000000370780088880000001010000000000000000                             2000000000000000000000000              000000000000                    0000000000000000000000000                    000000000000                                                                                                                                                                                                                                                                                                                                                                                                                                                                                        
02882270079590004DT67590675900000003707800888800000010180088824001193034900012101476020320230000000576703423000000000079671427081XXXXXX3244               2111111   NYV4 A7W303034551956454N8400000000057678DD700    01DNMR HEMP FLOWER           003216    VS84000000005767 NP1549976053336   85181                    000000000+                A CA 12106                     000000000  N000000000 492   0000000000000.00 0000000.00   0000000.00                             000000000000000                                                                                                                                                     01424 G000000005767 0000000000001.19     01890 01000                  
02882280079590001P16759067590000000370780088880000001010000000000000000                             2000000000000000000000000              000000000000                    0000000000000000000000000                    000000000000                                                                                                                                                                                                                                                                                                                                                                                                                                                                                        
02882290079590005DT67590675900000003707800888800000010180088824001193034900012101484020320230000003000003423000000000079671481582XXXXXX0736               2111111   NYV4 A7W583034636455845N840000000030000J4B200    01DNMR HEMP FLOWER           104103    VD84000000030000 NP1549976053336   85191                    000000000+                F DF 10420                     000000000  Y000000000 338   0000000000000.00 0000000.00   0000000.00                             000000000000000                                                                                                                                                     01424 G000000030000 0000000000000.37     00050 02200                  
02882300079590001P16759067590000000370780088880000001010000000000000000                             2000000000000000000000000              000000000000                    0000000000000000000000000                    000000000000                                                                                                                                                                                                                                                                                                                                                                                                                                                                                        
02882310079590006DT67590675900000003707800888800000010180088887287283034900012101493020320230000000849903423000000000079671515327XXXXXX4891       ME03KE06MS02      NY 4607AMDJZXECW90203  N840000000008499          81DNMR HEMP FLOWER           796989    MD84000000008499 N  549976053336   85200                    000000000+600450S00130    MDJ  00401                     000000000  N                0000000000000.00 0000000.00   0000000.00                             000000000000000                                                                                                                                                   U001424  000000000000 0000000000001.55     01650 01500                  
02882320079590007DT67590675900000003707800888800000010180088887287283034900012101501020320230000000849903423000000000079671533248XXXXXX1201       ME03KE06MS02      NY 4607AMPVPIQHW90203  N840000000008499          81DNMR HEMP FLOWER           I9O08V    MD84000000008499 N  549976053336   85201                    000000000+600450S00130    MPV  09899                     000000000  N                0000000000000.00 0000000.00   0000000.00                             000000000000000                                                                                                                                                   U001424  000000000000 0000000000001.70     01760 02000                  
02882330079590008DT67590675900000003707800888800000010180088876509753034900012101540020320230000000984803423000000000079671601101XXXXXX5251   BA00                  NY 4 07N753029131418930N840000000009848    00    01DNMR HEMP FLOWER           00380B    DZ84000000009848 N  549976053336070                         000000000+1015104910600   DMCDI01012167017  161221000000 000000000  0          124   0000000000000.00 0000000.00   0000000.00                             000000000000000                                                                                                                                                     01424  000000000000 0000000000002.56     02450 01500                  
02882340079590009DT67590675900000003707800888800000010180088887287283034900012101550020320230000000319903423000000000079671533267XXXXXX4852       ME03KE06MS02      NY 4607AMDJF2TZJF0203  N840000000003199          81DNMR HEMP FLOWER           002019    MD84000000003199 N  549976053336   85217                    000000000+600450S00130    MDJ  00401                     000000000  N                0000000000000.00 0000000.00   0000000.00                             000000000000000                                                                                                                                                   U001424  000000000000 0000000000000.68     01650 01500                  
02882350079590010DT67590675900000003707800888800000010180088887287283034900012101568020320230000000386303423000000000079671542543XXXXXX3290       ME03KE06MS02      NY 4607AMDHUZESZV0203  N840000000003863          81DNMR HEMP FLOWER           098566    MD84000000003863 N  549976053336   85225                    000000000+600450S00130    MDH  00401                     000000000  N                0000000000000.00 0000000.00   0000000.00                             000000000000000                                                                                                                                                   U001424  000000000000 0000000000000.79     01650 01500                  
02882360079590011DT67590675900000003707800888800000010180088887287283034900012101576020320230000000549803423000000000079671553822XXXXXX2573       ME03KE06MS02      NY 4607AMDJC2P9ZW0203  N840000000005498          81DNMR HEMP FLOWER           104107    MD84000000005498 N  549976053336   85226                    000000000+600450S00130    MDJ  10813                     000000000  1                0000000000000.00 0000000.00   0000000.00                             000000000000000                                                                                                                                                   U001424  000000000000 0000000000000.25     00050 02200                  
02882370079590012BH6759067590000000288180088880000090170203202303423000000000014880    0000090001520110Y8008886759C02062023                                                                                                                                                                                                                                                                                                                                                                                                                                                                                                                                                                                                 
02882380079590013DT67590675900000002881800888800000010180088887287283034900015201092020220230000000448503423000000000014880542418XXXXXX6557       ME03KE06MS02      NY 4607AMPLDEAU7H0202  N840000000004485          81DNHAPPY HIPPIE             33065B    MC84000000004485 N  549976044904   1926                     000000000+600450S00130    MPL  00580                     000000000  N                0000000000000.00 0000000.00   0000000.00                             000000000000000                                                                                                                                                   U001424  000000000000 0000000000001.04     02100 01000                  
02882390079590014DT67590675900000002881800888800000010180088824001193034900015201109020320230000001039503423000000000014880414720XXXXXX4660               2111111   NYV4 A7W463034681348126N8400000000103953DJL00    01DNHAPPY HIPPIE             06024D    VS84000000010395 NP1549976044904   1927                     000000000+                D CD 12109                     000000000  N000000000 498   0000000000000.00 0000000.00   0000000.00                             000000000000000                                                                                                                                                     01424 G000000010395 0000000000002.70     02500 01000                  
02882400079590001P16759067590000000288180088880000001010000000000000000                             2000000000000000000000000              000000000000                    0000000000000000000000000                    000000000000                                                                                                                                                                                                                                                                                                                                                                                                                                                                                        
02882410079590015BH6759067590000000051380000180000090170203202303423000000000000203    0000090001510001Y8000016759C02062023                                                                                                                                                                                                                                                                                                                                                                                                                                                                                                                                                                                                 
02882420079590016DT67590675900000000513800001800000010180000124001193034900015100012020320230000000020303423000000000000203474489XXXXXX3159       VK04VS111111111   NYV1 A E583035001952314N840000000000203KB6R00    07DNVERMONT STATE BANK2      100231    VD84000000000203 N  549975705321                            000000000+                F DF 10439                     000000000  Y000000000 331   0000000000000.00 0000000.00   0000000.00                             000000000000000                                                                                                                                                     01424 F000000000000 0000000000000.22     00050 02200                  
02882430093040002BH6759067590000000370780088880000090170205202303623000000000030698    0000090001220161N8008886759C02062023                                                                                                                                                                                                                                                                                                                                                                                                                                                                                                                                                                                                 
02882440093040003DT67590675900000003707800888800000010180088824001193036900012201589020420230000000899803623000000000030698438709XXXXXX0078               2111111   NYV4 A7W383035222419350N840000000008998NGRH00    01DNMR HEMP FLOWER           623389    VD84000000008998 NP1549976053336   85237                    000000000+                F DF 00415                     000000000  N000000000       0000000000000.00 0000000.00   0000000.00                             000000000000000                                                                                                                                                     01418 G000000008998 0000000000001.63     01650 01500                  
02882450093040001P16759067590000000370780088880000001010000000000000000                             2000000000000000000000000              000000000000                    0000000000000000000000000                    000000000000                                                                                                                                                                                                                                                                                                                                                                                                                                                                                        
02882460093040004DT67590675900000003707800888800000010180088824001193036900012201597020420230000001065003623000000000030698426938XXXXXX2496               2111111   NYV4 A7W303035585001041N840000000010650M6XS00    01DNMR HEMP FLOWER           004743    VS84000000010650 NP1549976053336   85248                    000000000+                B CB 12107                     000000000  N000000000 494   0000000000000.00 0000000.00   0000000.00                             000000000000000                                                                                                                                                     01418 G000000010650 0000000000002.27     02040 01000                  
02882470093040001P16759067590000000370780088880000001010000000000000000                             2000000000000000000000000              000000000000                    0000000000000000000000000                    000000000000                                                                                                                                                                                                                                                                                                                                                                                                                                                                                        
02882480093040005DT67590675900000003707800888800000010180088887287283035900012201615020420230000001105003623000000000030698512230XXXXXX2054       ME03KE06MS02      NY 4607AMWETXL3GW0204  N840000000011050          81DNMR HEMP FLOWER           41679Z    MC84000000011050 N  549976053336   85265                    000000000+600450S00130    MWE  00737                     000000000  N                0000000000000.00 0000000.00   0000000.00                             000000000000000                                                                                                                                                   U001418  000000000000 0000000000002.97     02600 01000                  
02882490108930002BH6759067590000000288180088880000090170205202303623000000000119111    0000090001370024N8008886759C02062023                                                                                                                                                                                                                                                                                                                                                                                                                                                                                                                                                                                                 
02882500108930003DT67590675900000002881800888800000010180088824001193036900013700019020520230000000414703623000000000119111449507XXXXXX0245       VS11    0001111   NYV1 A E383036543035157N840000000004147QRX200    05DNHAPPY HIPPIE             000503    VD84000000004147 N  549976487158                            000000000+                F DF 00381                     000000000  N000000000       0000000000000.00 0000000.00   0000000.00                             000000000000000                                                                                                                                                     01418 A000000000000 0000000000000.48     00800 01500                  
02882510108930004DT67590675900000002881800888800000010180088824001193036900013700027020520230000000671503623000000000119111480639XXXXXX6163       VS11    0001111   NYV1 A E303036545016323N8400000000067155HJL00    05DNHAPPY HIPPIE             951057    VD84000000006715 N  549976487158                            000000000+                F DF 00381                     000000000  N000000000       0000000000000.00 0000000.00   0000000.00                             000000000000000                                                                                                                                                     01418 A000000000000 0000000000000.69     00800 01500                  
02882520108930005DT67590675900000002881800888800000010180088824001193036900013700035020520230000000325803623000000000119111480639XXXXXX9756       VS11    0001111   NYV1 A E463036545812153N840000000003258CM8N00    05DNHAPPY HIPPIE             951079    VD84000000003258 N  549976487158                            000000000+                F DF 00381                     000000000  N000000000       0000000000000.00 0000000.00   0000000.00                             000000000000000                                                                                                                                                     01418 A000000000000 0000000000000.41     00800 01500                  
02882530108930006DT67590675900000002881800888800000010180088877287283036900013700045020520230000000196203623000000000119111511953XXXXXX9825       MS02WI09          NY 1 0 AMDJYBH6670205  N840000000001962          05DNHAPPY HIPPIE             010040    MD84000000001962 N  549976487158                            000000000+M10101C5434C    MDJ  00402                     000000000  N                0000000000000.00 0000000.00   0000000.00                             000000000000000                                                                                                                                                   B101418  000000000000 0000000000000.36     01050 01500                  
02882540108930007DT67590675900000002881800888800000010180088877287283036900013700052020520230000000019603623000000000119111511953XXXXXX9825       MS02WI09          NY 1 0 AMDJ2CJ0120205  N840000000000196          05DNHAPPY HIPPIE             013762    MD84000000000196 N  549976487158                            000000000+M10101C5434C    MDJ  00505                     000000000  N                0000000000000.00 0000000.00   0000000.00                             000000000000000                                                                                                                                                   B101418  000000000000 0000000000000.07     01550 00400                  
02882550108930008DT67590675900000002881800888800000010180088877287283036900013700060020520230000000128303623000000000119111511953XXXXXX9825       MS02WI09          NY 1 0 AMDJAHLU9J0205  N840000000001283          05DNHAPPY HIPPIE             016766    MD84000000001283 N  549976487158                            000000000+M10101C5434C    MDJ  00505                     000000000  N                0000000000000.00 0000000.00   0000000.00                             000000000000000                                                                                                                                                   B101418  000000000000 0000000000000.24     01550 00400                  
02882560108930009DT67590675900000002881800888800000010180088877287283036900013700078020520230000000125003623000000000119111511953XXXXXX0600       MS02WI09          NY 1 0 AMDJYNVZ670205  N840000000001250          07DNHAPPY HIPPIE             052395    MD84000000001250 N  549976487158                            000000000+M10101M0034C    MDJ  00505                     000000000  N                0000000000000.00 0000000.00   0000000.00                             000000000000000                                                                                                                                                   B101418  000000000000 0000000000000.23     01550 00400                  
02882570108930010DT67590675900000002881800888800000010180088824001193036900013700084020520230000000965603623000000000119111419090XXXXXX5725       VS11    0001111   NYV1 A E303036586961123N840000000009656FVF200    05DNHAPPY HIPPIE             325555    VD84000000009656 N  549976487158                            000000000+                F DF 00381                     000000000  N000000000       0000000000000.00 0000000.00   0000000.00                             000000000000000                                                                                                                                                     01418 A000000000000 0000000000000.92     00800 01500                  
02882580108930011DT67590675900000002881800888800000010180088877287283036900013700094020520230000000087803623000000000119111550827XXXXXX2606       MS02WI09          NY 1 0 AMDSIZYM9J0205  N840000000000878          05DNHAPPY HIPPIE             113112    MD84000000000878 N  549976487158                            000000000+M10101C5434C    MDS  00505                     000000000  N                0000000000000.00 0000000.00   0000000.00                             000000000000000                                                                                                                                                   B101418  000000000000 0000000000000.18     01550 00400                  
02882590108930012DT67590675900000002881800888800000010180088824001193036900013700100020520230000000316103623000000000119111443264XXXXXX4906       VS11    0001111   NYV1 A E583036595903082N8400000000031614W6S00    07DNHAPPY HIPPIE             009549    VD84000000003161 N  549976487158                            000000000+                F DF 10433                     000000000  Y000000000 338   0000000000000.00 0000000.00   0000000.00                             000000000000000                                                                                                                                                     01418 A000000000000 0000000000000.24     00050 02200                  
02882600108930013DT67590675900000002881800888800000010180088824001193036900013700118020520230000000444403623000000000119111443264XXXXXX1793       VS11    0001111   NYV1 A E383036607661487N840000000004444TX8300    07DNHAPPY HIPPIE             000303    VD84000000004444 N  549976487158                            000000000+                F DF 10433                     000000000  Y000000000 338   0000000000000.00 0000000.00   0000000.00                             000000000000000                                                                                                                                                     01418 A000000000000 0000000000000.24     00050 02200                  
02882610108930014DT67590675900000002881800888800000010180088824001193036900013700126020520230000000691303623000000000119111419090XXXXXX7320       VS11    0001111   NYV1 A E303036608495095N840000000006913WRCX00    05DNHAPPY HIPPIE             326342    VD84000000006913 N  549976487158                            000000000+                F DF 00381                     000000000  N000000000       0000000000000.00 0000000.00   0000000.00                             000000000000000                                                                                                                                                     01418 A000000000000 0000000000000.70     00800 01500                  
02882620108930015DT67590675900000002881800888800000010180088824001193036900013700134020520230000001261703623000000000119111442793XXXXXX8658       VS11    0001111   NYV1 A E383036637073649N840000000012617FSSX00    05DNHAPPY HIPPIE             698439    VD84000000012617 N  549976487158                            000000000+                F DF 10433                     000000000  Y000000000 338   0000000000000.00 0000000.00   0000000.00                             000000000000000                                                                                                                                                     01418 A000000000000 0000000000000.28     00050 02200                  
02882630108930016DT67590675900000002881800888800000010180088824001193036900013700142020520230000000241903623000000000119111421783XXXXXX4327       VS11    0001111   NYV1 A E583036655657231N840000000002419PT9Z00    05DNHAPPY HIPPIE             018284    VS84000000002419 N  549976487158                            000000000+                A CA 12110                     000000000  N000000000 493   0000000000000.00 0000000.00   0000000.00                             000000000000000                                                                                                                                                     01418 A000000000000 0000000000000.47     01510 01000                  
02882640108930017DT67590675900000002881800888800000010180088877287283036900013700151020520230000001214603623000000000119111515068XXXXXX3788       ME03MS02WI09      NY 1 0 AMDJ1J5I670205  N840000000012146          01DNHAPPY HIPPIE             T1P1YH    MD84000000012146 N  549976487158                            000000000+M1010115434C    MDJ  00399                     000000000  N                0000000000000.00 0000000.00   0000000.00                             000000000000000                                                                                                                                                   E101418  000000000000 0000000000002.15     01650 01500                  
02882650108930018DT67590675900000002881800888800000010180088824001193036900013700167020520230000000760103623000000000119111443238XXXXXX6669       VS11    0001111   NYV1 A E303036667271270N840000000007601R3HP00    05DNHAPPY HIPPIE             033207    VD84000000007601 N  549976487158                            000000000+                F DF 00381                     000000000  N000000000       0000000000000.00 0000000.00   0000000.00                             000000000000000                                                                                                                                                     01418 A000000000000 0000000000000.76     00800 01500                  
02882660108930019DT67590675900000002881800888800000010180088877287283036900013700177020520230000000031203623000000000119111511953XXXXXX0600       MS02WI09          NY 1 0 AMDJL0TS9J0205  N840000000000312          07DNHAPPY HIPPIE             045396    MD84000000000312 N  549976487158                            000000000+M10101M0034C    MDJ  00505                     000000000  N                0000000000000.00 0000000.00   0000000.00                             000000000000000                                                                                                                                                   B101418  000000000000 0000000000000.09     01550 00400                  
02882670108930020DT67590675900000002881800888800000010180088824001193036900013700183020520230000000945303623000000000119111427569XXXXXX5111       VS11    0001111   NYV1 A E383036732599772N840000000009453GGVM00    07DNHAPPY HIPPIE             175376    VD84000000009453 N  549976487158                            000000000+                F DF 00381                     000000000  N000000000       0000000000000.00 0000000.00   0000000.00                             000000000000000                                                                                                                                                     01418 A000000000000 0000000000000.91     00800 01500                  
02882680108930021DT67590675900000002881800888800000010180088824001193036900013700191020520230000000768303623000000000119111443238XXXXXX5023       VS11    0001111   NYV1 A E383036748746785N840000000007683WF7K00    05DNHAPPY HIPPIE             054754    VD84000000007683 N  549976487158                            000000000+                F DF 00381                     000000000  N000000000       0000000000000.00 0000000.00   0000000.00                             000000000000000                                                                                                                                                     01418 A000000000000 0000000000000.76     00800 01500                  
02882690108930022DT67590675900000002881800888800000010180088877287283036900013700201020520230000000157803623000000000119111555426XXXXXX7294       MS02WI09          NY 1 0 AMPGJHBBPB0205  N840000000001578          90DNHAPPY HIPPIE             050759    MD84000000001578 N  549976487158                            000000000+M10101B5434C    MPG  11964                     000000000  N                0000000000000.00 0000000.00   0000000.00                             000000000000000                                                                                                                                                   C101418  000000000000 0000000000000.33     01150 01500                  
02882700108930023DT67590675900000002881800888800000010180088824001193036900013700217020520230000000230303623000000000119111446086XXXXXX2152       VS11    0001111   NYV1 A E303036766855886N840000000002303KW7900    05DNHAPPY HIPPIE             151805    VD84000000002303 N  549976487158                            000000000+                F DF 00381                     000000000  N000000000       0000000000000.00 0000000.00   0000000.00                             000000000000000                                                                                                                                                     01418 A000000000000 0000000000000.33     00800 01500                  
02882710108930024DT67590675900000002881800888800000010180088824001193036900013700225020520230000000120603623000000000119111473702XXXXXX2522       VK04VS111111111   NYV1 A E303036774137534N840000000001206DLCR00    05DNHAPPY HIPPIE             073237    VD84000000001206 N  549976487158                            000000000+                F DF 10439                     000000000  Y000000000 331   0000000000000.00 0000000.00   0000000.00                             000000000000000                                                                                                                                                     01418 F000000000000 0000000000000.23     00050 02200                  
02882720108930025DT67590675900000002881800888800000010180088824001193036900013700233020520230000001546203623000000000119111400022XXXXXX5698       VS11    0001111   NYV1 A E303036777763964N840000000015462S83T00    05DNHAPPY HIPPIE             808190    VD84000000015462 N  549976487158                            000000000+                F DF 10433                     000000000  Y000000000 338   0000000000000.00 0000000.00   0000000.00                             000000000000000                                                                                                                                                     01418 A000000000000 0000000000000.30     00050 02200                  
02882730108930026DT67590675900000002881800888800000010180088824001193036900013700241020520230000000246803623000000000119111419090XXXXXX6639       VS11    0001111   NYV1 A E303036805527054N840000000002468M7SH00    05DNHAPPY HIPPIE             336203    VD84000000002468 N  549976487158                            000000000+                F DF 00381                     000000000  N000000000       0000000000000.00 0000000.00   0000000.00                             000000000000000                                                                                                                                                     01418 A000000000000 0000000000000.35     00800 01500                  
02882740108930027BH6759067590000000288180088880000090170205202303623000000000144562    0000090001370028N8008886759C02062023                                                                                                                                                                                                                                                                                                                                                                                                                                                                                                                                                                                                 
02882750108930028DT67590675900000002881800888800000010180088824001193036900013700019020520230000000284303623000000000144562491523XXXXXX5551       VS11    0001111   NYV1 A E383036547778370N840000000002843DMZQ00    07DNHAPPY HIPPIE             019146    VD84000000002843 N  549976487134                            000000000+                F DF 10433                     000000000  Y000000000 338   0000000000000.00 0000000.00   0000000.00                             000000000000000                                                                                                                                                     01418 A000000000000 0000000000000.23     00050 02200                  
02882760108930029DT67590675900000002881800888800000010180088824001193036900013700027020520230000000307103623000000000144562425907XXXXXX2195       VS11    0001111   NYV1 A E583036578968228N840000000003071WHHP00    05DNHAPPY HIPPIE             067555    VD84000000003071 N  549976487134                            000000000+                G DG 10351                     000000000  Y000000000 338   0000000000000.00 0000000.00   0000000.00                             000000000000000                                                                                                                                                     01418 A000000000000 0000000000000.24     00050 02200                  
02882770108930030DT67590675900000002881800888800000010180088824001193036900013700035020520230000000043803623000000000144562441707XXXXXX7375       VK04VS111111111   NYV1 A E383036586946488N840000000000438Q4L800    07DNHAPPY HIPPIE             604851    VD84000000000438 N  549976487134                            000000000+                F PF 08165                     000000000  N000000000       0000000000000.00 0000000.00   0000000.00                             000000000000000                                                                                                                                                     01418 F000000000000 0000000000000.12     01600 00500                  
02882780108930031DT67590675900000002881800888800000010180088877287283036900013700045020520230000000395103623000000000144562511953XXXXXX4908       MS02WI09          NY 1 0 AMDJIV3I9J0205  N840000000003951          05DNHAPPY HIPPIE             083509    MD84000000003951 N  549976487134                            000000000+M10101C5434C    MDJ  00402                     000000000  N                0000000000000.00 0000000.00   0000000.00                             000000000000000                                                                                                                                                   B101418  000000000000 0000000000000.56     01050 01500                  
02882790108930032DT67590675900000002881800888800000010180088877287283036900013700052020520230000000164503623000000000144562542432XXXXXX1590       MS02WI09          NY 2 0 AMDJA3G99J0205  N840000000001645          05DNHAPPY HIPPIE             994604    MD84000000001645 N  549976487134                            000000000+M10101C1334C    MDJ  10815                     000000000  1                0000000000000.00 0000000.00   0000000.00                             000000000000000                                                                                                                                                   B101418  000000000000 0000000000000.23     00050 02200                  
02882800108930033DT67590675900000002881800888800000010180088824001193036900013700068020520230000000158003623000000000144562480639XXXXXX6147       VS11    0001111   NYV1 A E303036609647423N84000000000158029PW00    05DNHAPPY HIPPIE             952996    VD84000000001580 N  549976487134                            000000000+                F DF 00381                     000000000  N000000000       0000000000000.00 0000000.00   0000000.00                             000000000000000                                                                                                                                                     01418 A000000000000 0000000000000.28     00800 01500                  
02882810108930034DT67590675900000002881800888800000010180088824001193036900013700076020520230000000098403623000000000144562449507XXXXXX1139       VK04VS111111111   NYV1 A E303036611931919N840000000000984VQ3V00    05DNHAPPY HIPPIE             015953    VD84000000000984 N  549976487134                            000000000+                F DF 00451                     000000000  N000000000 214   0000000000000.00 0000000.00   0000000.00                             000000000000000                                                                                                                                                     01418 F000000000000 0000000000000.19     01550 00400                  
02882820108930035DT67590675900000002881800888800000010180088824001193036900013700084020520230000000380103623000000000144562414720XXXXXX0036       VS11    0001111   NYV1 A E303036621248870N840000000003801WLKP00    05DNHAPPY HIPPIE             05746C    VS84000000003801 N  549976487134                            000000000+                C CC 12112                     000000000  N000000000 497   0000000000000.00 0000000.00   0000000.00                             000000000000000                                                                                                                                                     01418 A000000000000 0000000000000.73     01650 01000                  
02882830108930036DT67590675900000002881800888800000010180088824001193036900013700092020520230000001340303623000000000144562419090XXXXXX0995       VS11    0001111   NYV1 A E303036626481898N840000000013403JMS900    05DNHAPPY HIPPIE             327228    VD84000000013403 N  549976487134                            000000000+                F DF 00381                     000000000  N000000000       0000000000000.00 0000000.00   0000000.00                             000000000000000                                                                                                                                                     01418 A000000000000 0000000000001.22     00800 01500                  
02882840108930037DT67590675900000002881800888800000010180088824001193036900013700100020520230000000362103623000000000144562400899XXXXXX6019       VS11    0001111   NYV1 A E303036633078008N840000000003621JLTF00    05DNHAPPY HIPPIE             005039    VS84000000003621 N  549976487134                            000000000+                B CB 12111                     000000000  N000000000 495   0000000000000.00 0000000.00   0000000.00                             000000000000000                                                                                                                                                     01418 A000000000000 0000000000000.70     01650 01000                  
02882850108930038DT67590675900000002881800888800000010180088824001193036900013700118020520230000000087703623000000000144562400899XXXXXX6019       VK04VS111111111   NYV1 A E583036638212048N8400000000008773JR400    05DNHAPPY HIPPIE             005854    VS84000000000877 N  549976487134                            000000000+                B CB 12053                     000000000  N000000000 450   0000000000000.00 0000000.00   0000000.00                             000000000000000                                                                                                                                                     01418 F000000000000 0000000000000.17     01900 00000                  
02882860108930039DT67590675900000002881800888800000010180088824001193036900013700126020520230000000438903623000000000144562422496XXXXXX5783       VS11    0001111   NYV1 A E303036641696657N840000000004389NFV800    05DNHAPPY HIPPIE             077290    VD84000000004389 N  549976487134                            000000000+                F DF 00381                     000000000  N000000000       0000000000000.00 0000000.00   0000000.00                             000000000000000                                                                                                                                                     01418 A000000000000 0000000000000.50     00800 01500                  
02882870108930040DT67590675900000002881800888800000010180088824001193036900013700134020520230000000439003623000000000144562445102XXXXXX8888       VS11    0001111   NYV1 A E383036644985651N8400000000043907TJV00    05DNHAPPY HIPPIE             713596    VD84000000004390 N  549976487134                            000000000+                F DF 10433                     000000000  Y000000000 338   0000000000000.00 0000000.00   0000000.00                             000000000000000                                                                                                                                                     01418 A000000000000 0000000000000.24     00050 02200                  
02882880108930041DT67590675900000002881800888800000010180088877287283036900013700144020520230000000439003623000000000144562552736XXXXXX1488       MS02WI09          NY 1 0 AMPL00RX670205  N840000000004390          05DNHAPPY HIPPIE             02752B    MC84000000004390 N  549976487134                            000000000+M10101C5434C    MPL  00364                     000000000  N                0000000000000.00 0000000.00   0000000.00                             000000000000000                                                                                                                                                   B101418  000000000000 0000000000000.83     01800 00400                  
02882890108930042DT67590675900000002881800888800000010180088824001193036900013700159020520230000000958003623000000000144562480639XXXXXX8686       VS11    0001111   NYV1 A E303036670866163N840000000009580RDZX00    05DNHAPPY HIPPIE             955710    VD84000000009580 N  549976487134                            000000000+                F DF 00381                     000000000  N000000000       0000000000000.00 0000000.00   0000000.00                             000000000000000                                                                                                                                                     01418 A000000000000 0000000000000.92     00800 01500                  
02882900108930043DT67590675900000002881800888800000010180088824001193036900013700167020520230000000625203623000000000144562498503XXXXXX8947       VS11    0001111   NYV1 A E383036671792112N8400000000062528N8R00    05DNHAPPY HIPPIE             002787    VD84000000006252 N  549976487134                            000000000+                F DF 00381                     000000000  N000000000       0000000000000.00 0000000.00   0000000.00                             000000000000000                                                                                                                                                     01418 A000000000000 0000000000000.65     00800 01500                  
02882910108930044DT67590675900000002881800888800000010180088824001193036900013700175020520230000000548203623000000000144562474475XXXXXX1974       VS11    0001111   NYV1 A E383036688986348N840000000005482DHZW00    05DNHAPPY HIPPIE             100283    VD84000000005482 N  549976487134                            000000000+                F DF 10433                     000000000  Y000000000 338   0000000000000.00 0000000.00   0000000.00                             000000000000000                                                                                                                                                     01418 A000000000000 0000000000000.25     00050 02200                  
02882920108930045DT67590675900000002881800888800000010180088824001193036900013700183020520230000000818403623000000000144562445102XXXXXX3812       VS11    0001111   NYV1 A E303036712948764N8400000000081845T2900    05DNHAPPY HIPPIE             773608    VD84000000008184 N  549976487134                            000000000+                F DF 10433                     000000000  Y000000000 338   0000000000000.00 0000000.00   0000000.00                             000000000000000                                                                                                                                                     01418 A000000000000 0000000000000.26     00050 02200                  
02882930108930046DT67590675900000002881800888800000010180088824001193036900013700191020520230000000987803623000000000144562419090XXXXXX1975       VS11    0001111   NYV1 A E583036725930852N840000000009878MDS400    05DNHAPPY HIPPIE             332406    VD84000000009878 N  549976487134                            000000000+                F DF 00381                     000000000  N000000000       0000000000000.00 0000000.00   0000000.00                             000000000000000                                                                                                                                                     01418 A000000000000 0000000000000.94     00800 01500                  
02882940108930047DT67590675900000002881800888800000010180088824001193036900013700209020520230000000207403623000000000144562415978XXXXXX0021       VS11    0001111   NYV1 A E463036727594550N840000000002074LDJQ00    05DNHAPPY HIPPIE             055733    VD84000000002074 N  549976487134                            000000000+                F DF 10433                     000000000  Y000000000 338   0000000000000.00 0000000.00   0000000.00                             000000000000000                                                                                                                                                     01418 A000000000000 0000000000000.23     00050 02200                  
02882950108930048DT67590675900000002881800888800000010180088824001193036900013700217020520230000000691303623000000000144562449507XXXXXX6597       VS11    0001111   NYV1 A E303036731518669N840000000006913C58W00    05DNHAPPY HIPPIE             051911    VD84000000006913 N  549976487134                            000000000+                F DF 00381                     000000000  N000000000       0000000000000.00 0000000.00   0000000.00                             000000000000000                                                                                                                                                     01418 A000000000000 0000000000000.70     00800 01500                  
02882960108930049DT67590675900000002881800888800000010180088824001193036900013700225020520230000000068603623000000000144562480639XXXXXX8059       VK04VS111111111   NYV1 A E383036753815388N8400000000006869BSN00    05DNHAPPY HIPPIE             959207    VD84000000000686 N  549976487134                            000000000+                F DF 00451                     000000000  N000000000 214   0000000000000.00 0000000.00   0000000.00                             000000000000000                                                                                                                                                     01418 F000000000000 0000000000000.15     01550 00400                  
02882970108930050DT67590675900000002881800888800000010180088824001193036900013700233020520230000000372903623000000000144562417021XXXXXX3594       VS11    0001111   NYV1 A E303036761021784N840000000003729LDX700    05DNHAPPY HIPPIE             953563    VD84000000003729 N  549976487134                            000000000+                F PF 08170                     000000000  N000000000       0000000000000.00 0000000.00   0000000.00                             000000000000000                                                                                                                                                     01418 A000000000000 0000000000000.58     01150 01500                  
02882980108930051DT67590675900000002881800888800000010180088824001193036900013700241020520230000001180303623000000000144562473702XXXXXX6611       VS11    0001111   NYV1 A E303036776781124N84000000001180353ZV00    05DNHAPPY HIPPIE             037678    VD84000000011803 N  549976487134                            000000000+                F DF 10433                     000000000  Y000000000 338   0000000000000.00 0000000.00   0000000.00                             000000000000000                                                                                                                                                     01418 A000000000000 0000000000000.28     00050 02200                  
02882990108930052DT67590675900000002881800888800000010180088877287283036900013700250020520230000001659203623000000000144562517805XXXXXX7988       MS02WI09          NY 1 0 AMPLUBY1B70205  N840000000016592          05DNHAPPY HIPPIE             01805B    MC84000000016592 N  549976487134                            000000000+M10101C5434C    MPL  00364                     000000000  N                0000000000000.00 0000000.00   0000000.00                             000000000000000                                                                                                                                                   B101418  000000000000 0000000000003.03     01800 00400                  
02883000108930053DT67590675900000002881800888800000010180088877287283036900013700268020520230000000462803623000000000144562552225XXXXXX7295       MS02WI09          NY 1 0 AMPLKKR0PB0205  N840000000004628          05DNHAPPY HIPPIE             51509Z    MC84000000004628 N  549976487134                            000000000+M10101C5434C    MPL  00043                     000000000  N                0000000000000.00 0000000.00   0000000.00                             000000000000000                                                                                                                                                   B101418  000000000000 0000000000000.80     01650 00400                  
02883010108930054DT67590675900000002881800888800000010180088877287283036900013700276020520230000000612003623000000000144562511953XXXXXX3299       MS02WI09          NY 1 0 AMDJUMONB70205  N840000000006120          05DNHAPPY HIPPIE             053165    MD84000000006120 N  549976487134                            000000000+M10101C5434C    MDJ  00402                     000000000  N                0000000000000.00 0000000.00   0000000.00                             000000000000000                                                                                                                                                   B101418  000000000000 0000000000000.79     01050 01500                  
02883020108930055DT67590675900000002881800888800000010180088873011003036900013700288020520230000000325803623000000000144562371726XXXXX3010                          NY 1 0 N006370253254073N840000000003258          05DNHAPPY HIPPIE             835158    AM84000000003258 N  549976487134                            000000000+51010155434C 258     11261                     000000000                   0000000000000.00 0000000.00   0000000.00                             000000000000000 61248972086759675900000002881 HAPPY HIPPIE             832 PARKWAY              8656540830      37862     HAPPYHIPPIE832@GMAIL.COM                  01418  000000000000 0000000000000.62     01600 00000                  
02883030108930056BH6759067590000000589280088880000090170205202303623000000000006944    0000090001028024N8008886759C02062023                                                                                                                                                                                                                                                                                                                                                                                                                                                                                                                                                                                                 
02883040108930057DT67590675900000005892800888800000010180088887287283036900010209163020520230000000359803623000000000006944531260XXXXXX6133       ME03KE06MS02      NY 4607AMDJSP5NPW0205  N840000000003598          81DNPLANET VAPOR INC         105224    MD84000000003598 N  599900000001   14256214                 000000000+600450S00140    MDJ  10813                     000000000  1                0000000000000.00 0000000.00   0000000.00                             000000000000000                                                                                                                                                   U001418  000000000000 0000000000000.24     00050 02200                  
02883050108930058DT67590675900000005892800888800000010180088824001193036900010280247020520230000000334603623000000000006944430602XXXXXX0938               2111111   NYV4 A7W383036044532228N840000000003346Q4MX00    01DNPLANET VAPOR INC         812545    VD84000000003346 NP1599971004114   14250800                 000000000+                F DF 00415                     000000000  N000000000       0000000000000.00 0000000.00   0000000.00                             000000000000000                                                                                                                                                     01418 G000000003346 0000000000000.70     01650 01500                  
02883060108930001P16759067590000000589280088880000001010000000000000000                             2000000000000000000000000              000000000000                    0000000000000000000000000                    000000000000                                                                                                                                                                                                                                                                                                                                                                                                                                                                                        
02883070108930059BH6759067590000000096880088880000090170205202303623000000000010500    0000090001360760N8008886759C02062023                                                                                                                                                                                                                                                                                                                                                                                                                                                                                                                                                                                                 
02883080108930060DT67590675900000000968800888800000010180088824001193036900013607602020520230000001050003623000000000010500426684XXXXXX9782               2111111   NYV4 A7W303036813507876N840000000010500DHM400    01DNHIGHER FLOUR LLC         06532B    VS84000000010500 NP1546271004114   RX1VZKOWCBKP6NRA7WPL     000000000+                B CB 12107                     000000000  N000000000 494   0000000000000.00 0000000.00   0000000.00                             000000000000000                                                                                                                                                     01418 G000000010500 0000000000002.24     02040 01000                  
02883090108930001P16759067590000000096880088880000001010000000000000000                             2000000000000000000000000              000000000000                    0000000000000000000000000                    000000000000                                                                                                                                                                                                                                                                                                                                                                                                                                                                                        
02883100108930061BH6759067590000000561180088880000090170205202303623000000000003989    0000090001087373N8008886759C02062023                                                                                                                                                                                                                                                                                                                                                                                                                                                                                                                                                                                                 
02883110108930062DT67590675900000005611800888800000010180088887287283036900010873737020520230000000398903623000000000003989525363XXXXXX7282       ME03KE06MS02      NY 4607AMWE10TZ670205  N840000000003989          81DNK DIVINE 503-689-7182    24288Z    MC84000000003989 N  549900000001   5186                     000000000+600450S00140    MWE  00737                     000000000  N                0000000000000.00 0000000.00   0000000.00                             000000000000000                                                                                                                                                   U001418  000000000000 0000000000001.14     02600 01000                  
02883120108930063BH6759067590000000288180088880000090170205202303623000000000003999    0000090001530111N8008886759C02062023                                                                                                                                                                                                                                                                                                                                                                                                                                                                                                                                                                                                 
02883130108930064DT67590675900000002881800888800000010180088824001193036900015301113020520230000000399903623000000000003999448261XXXXXX2015               2111111   NYV4 A7W463036401322388N8400000000039995QBF00    01DNHAPPY HIPPIE             498022    VD84000000003999 NP1549976044904   1928                     000000000+                F DF 10420                     000000000  Y000000000 338   0000000000000.00 0000000.00   0000000.00                             000000000000000                                                                                                                                                     01418 G000000003999 0000000000000.24     00050 02200                  
02883140108930001P16759067590000000288180088880000001010000000000000000                             2000000000000000000000000              000000000000                    0000000000000000000000000                    000000000000                                                                                                                                                                                                                                                                                                                                                                                                                                                                                        
02883150108930065BH6759067590000000370780088880000090170205202303623000000000079164    0000090001230168N8008886759C02062023                                                                                                                                                                                                                                                                                                                                                                                                                                                                                                                                                                                                 
02883160108930066DT67590675900000003707800888800000010180088824001193036900012301629020420230000001019703623000000000079164440393XXXXXX6504               2111111   NYV4 A7W583036137736011N840000000010197KRVR00    01DNMR HEMP FLOWER           974075    VD84000000010197 NP1549976053336   85273                    000000000+                F PF 08175                     000000000  N000000000       0000000000000.00 0000000.00   0000000.00                             000000000000000                                                                                                                                                     01418 G000000010197 0000000000001.98     01750 02000                  
02883170108930001P16759067590000000370780088880000001010000000000000000                             2000000000000000000000000              000000000000                    0000000000000000000000000                    000000000000                                                                                                                                                                                                                                                                                                                                                                                                                                                                                        
02883180108930067DT67590675900000003707800888800000010180088824001193036900012301637020420230000000474903623000000000079164415977XXXXXX1036               2111111   NYV4 A7W303036158208011N840000000004749XLTB00    01DNMR HEMP FLOWER           095149    VD84000000004749 NP1549976053336   85275                    000000000+                F DF 10420                     000000000  Y000000000 338   0000000000000.00 0000000.00   0000000.00                             000000000000000                                                                                                                                                     01418 G000000004749 0000000000000.24     00050 02200                  
02883190108930001P16759067590000000370780088880000001010000000000000000                             2000000000000000000000000              000000000000                    0000000000000000000000000                    000000000000                                                                                                                                                                                                                                                                                                                                                                                                                                                                                        
02883200108930068DT67590675900000003707800888800000010180088887287283036900012301646020520230000000474703623000000000079164527515XXXXXX4947       ME03KE06MS02      NY 4607AMDJHB949J0205  N840000000004747          81DNMR HEMP FLOWER           105200    MD84000000004747 N  549976053336   85284                    000000000+600450S00130    MDJ  10813                     000000000  1                0000000000000.00 0000000.00   0000000.00                             000000000000000                                                                                                                                                   U001418  000000000000 0000000000000.24     00050 02200                  
02883210108930069DT67590675900000003707800888800000010180088887287283036900012301653020520230000001729903623000000000079164514759XXXXXX1402       ME03KE06MS02      NY 4607AMDJNRL6620205  N840000000017299          81DNMR HEMP FLOWER           084530    MD84000000017299 N  549976053336   85285                    000000000+600450S00130    MDJ  10813                     000000000  1                0000000000000.00 0000000.00   0000000.00                             000000000000000                                                                                                                                                   U001418  000000000000 0000000000000.31     00050 02200                  
02883220108930070DT67590675900000003707800888800000010180088876509753036900012301668020520230000002557303623000000000079164601120XXXXXX9356   BA00                  NY 4 07N863030831787532N840000000025573    00    01DNMR HEMP FLOWER           00524B    DZ84000000025573 N  549976053336070                         000000000+1015104910600   DMCDI01012002024  152618000000 000000000  0          124   0000000000000.00 0000000.00   0000000.00                             000000000000000                                                                                                                                                     01418  000000000000 0000000000006.42     02450 01500                  
02883230108930071DT67590675900000003707800888800000010180088824001193036900012301678020520230000001450003623000000000079164435541XXXXXX4665               2111111   NYV4 A7W303036781661565N840000000014500KND900    01DNMR HEMP FLOWER           149077    VD84000000014500 NP1549976053336   85296                    000000000+                F PF 08175                     000000000  N000000000       0000000000000.00 0000000.00   0000000.00                             000000000000000                                                                                                                                                     01418 G000000014500 0000000000002.74     01750 02000                  
02883240108930001P16759067590000000370780088880000001010000000000000000                             2000000000000000000000000              000000000000                    0000000000000000000000000                    000000000000                                                                                                                                                                                                                                                                                                                                                                                                                                                                                        
02883250108930072DT67590675900000003707800888800000010180088824001193036900012301686020520230000000209903623000000000079164473702XXXXXX7424               2111111   NYV4 A7W303037012535751N840000000002099TTS500    01DNMR HEMP FLOWER           034224    VD84000000002099 NP1549976053336   85305                    000000000+                F DF 10420                     000000000  Y000000000 338   0000000000000.00 0000000.00   0000000.00                             000000000000000                                                                                                                                                     01418 G000000002099 0000000000000.23     00050 02200                  
02883260108930001P16759067590000000370780088880000001010000000000000000                             2000000000000000000000000              000000000000                    0000000000000000000000000                    000000000000                                                                                                                                                                                                                                                                                                                                                                                                                                                                                        
