02667110376100002BH6759067590000000288180088880000090171216202235022000000000014857    0000090001220061Y8008886759C12192022                                                                                                                                                                                                                                                                                                                                                                                                                                                                                                                                                                                                 
02667120376100003DT67590675900000002881800888800000010180088824001192350900012200599121620220000000399935022000000000014857406042XXXXXX4097               2111111   NYV4 A7W382350595370723N840000000003999T5J800    01DNHAPPY HIPPIE             073211    VD84000000003999 NP1549976044904   1878                     000000000+                F DF 10420                     000000000  Y000000000 338   0000000000000.00 0000000.00   0000000.00                             000000000000000                                                                                                                                                     01424 G000000003999 0000000000000.24     00050 02200                  
02667130376100001P16759067590000000288180088880000001010000000000000000                             2000000000000000000000000              000000000000                    0000000000000000000000000                    000000000000                                                                                                                                                                                                                                                                                                                                                                                                                                                                                        
02667140376100004DT67590675900000002881800888800000010180088824001192350900012200607121620220000000427435022000000000014857459954XXXXXX1899               2111111   NYV4 A7W382350666958612N840000000004274RRZF00    01DNHAPPY HIPPIE             H27496    VD84000000004274 NP1549976044904   1879                     000000000+                F DF 10420                     000000000  Y000000000 338   0000000000000.00 0000000.00   0000000.00                             000000000000000                                                                                                                                                     01424 G000000004274 0000000000000.24     00050 02200                  
02667150376100001P16759067590000000288180088880000001010000000000000000                             2000000000000000000000000              000000000000                    0000000000000000000000000                    000000000000                                                                                                                                                                                                                                                                                                                                                                                                                                                                                        
02667160376100005DT67590675900000002881800888800000010180088824001192350900012200615121620220000000658435022000000000014857419090XXXXXX2226               2111111   NYV4 A7W582350757013717N840000000006584VD7600    01DNHAPPY HIPPIE             979599    VD84000000006584 NP1549976044904   1880                     000000000+                F DF 00415                     000000000  N000000000       0000000000000.00 0000000.00   0000000.00                             000000000000000                                                                                                                                                     01424 G000000006584 0000000000001.24     01650 01500                  
02667170376100001P16759067590000000288180088880000001010000000000000000                             2000000000000000000000000              000000000000                    0000000000000000000000000                    000000000000                                                                                                                                                                                                                                                                                                                                                                                                                                                                                        
02667180389460002BH6759067590000000215480088880000090171218202235222000000000024102    0000090001627212N8008886759C12192022                                                                                                                                                                                                                                                                                                                                                                                                                                                                                                                                                                                                 
02667190389460003DT67590675900000002154800888800000010180088887287282351900016242522121720220000002101235222000000000024102547415XXXXXX7076                         NY 4607AMEBD2KM9S1217  N840000000021012          81DNDRIP DROP DISTRO LLC     08164Q    MB84000000021012 NP1519900000001   17114                    000000000+600450S00140    MEB  11637                     000000000  N                0000000000000.00 0000000.00   0000000.00                             000000000000000                                                                                                                                                   U001418  000000000000 0000000000006.40     03000 01000                  
02667200389460001P1675906759000000021548008888000000101                                                          000000000000          8000            471534935                                                                                                                                                                                                                                                                                                                                                                                                                                                                                                                                                            
02667210389460004DT67590675900000002154800888800000010180088824001192352900016272121121720220000000309035222000000000024102414709XXXXXX5655               2111111   NYV4 A7W302351678675713N840000000003090ST5N00    01DNDRIP DROP DISTRO LLC     03226B    VS84000000003090 NP1519971004114   17117                    000000000+                B CB 12107                     000000000  N000000000 494   0000000000000.00 0000000.00   0000000.00                             000000000000000                                                                                                                                                     01418 G000000003090 0000000000000.73     02040 01000                  
02667220389460001P16759067590000000215480088880000001010000000000000000                             2000000000000000000000000              000000000000                    0000000000000000000000000                    000000000000                                                                                                                                                                                                                                                                                                                                                                                                                                                                                        
02667230389460005BH6759067590000000096880088880000090171218202235222000000000013500    0000090001082907N8008886759C12192022                                                                                                                                                                                                                                                                                                                                                                                                                                                                                                                                                                                                 
02667240389460006DT67590675900000000968800888800000010180088824001192352900010898640121720220000000600035222000000000013500443046XXXXXX0998               2111111   NYV4 A7W582351563118207N840000000006000XTTW00    01DNHIGHER FLOUR LLC         650243    VD84000000006000 NP1546271004114   RCHT0O1YZLS7BLIKVWXG     000000000+                F DF 10420                     000000000  Y000000000 338   0000000000000.00 0000000.00   0000000.00                             000000000000000                                                                                                                                                     01418 G000000006000 0000000000000.25     00050 02200                  
02667250389460001P16759067590000000096880088880000001010000000000000000                             2000000000000000000000000              000000000000                    0000000000000000000000000                    000000000000                                                                                                                                                                                                                                                                                                                                                                                                                                                                                        
02667260389460007DT67590675900000000968800888800000010180088824001192352900010829074121720220000000750035222000000000013500400022XXXXXX1696               2111111   NYV4 A7W462351057821169N840000000007500GHVD00    01DNHIGHER FLOUR LLC         408946    VD84000000007500 NP1546271004114   REZ4O5VXBZQZYBYLQ49R     000000000+                F DF 10420                     000000000  Y000000000 338   0000000000000.00 0000000.00   0000000.00                             000000000000000                                                                                                                                                     01418 G000000007500 0000000000000.26     00050 02200                  
02667270389460001P16759067590000000096880088880000001010000000000000000                             2000000000000000000000000              000000000000                    0000000000000000000000000                    000000000000                                                                                                                                                                                                                                                                                                                                                                                                                                                                                        
02667280405030002BH6759067590000000288180088880000090171218202235222000000000006288    0000090001230063N8008886759C12192022                                                                                                                                                                                                                                                                                                                                                                                                                                                                                                                                                                                                 
02667290405030003DT67590675900000002881800888800000010180088824001192352900012300629121820220000000328635222000000000006288404657XXXXXX4088               2111111   NYV4 A7W462352654706050N840000000003286KB5800    01DNHAPPY HIPPIE             018080    VS84000000003286 NP1549976044904   1881                     000000000+                A CA 12106                     000000000  N000000000 492   0000000000000.00 0000000.00   0000000.00                             000000000000000                                                                                                                                                     01418 G000000003286 0000000000000.72     01890 01000                  
02667300405030001P16759067590000000288180088880000001010000000000000000                             2000000000000000000000000              000000000000                    0000000000000000000000000                    000000000000                                                                                                                                                                                                                                                                                                                                                                                                                                                                                        
02667310405030004DT67590675900000002881800888800000010180088824001192352900012300637121820220000000300235222000000000006288404227XXXXXX6748               2111111   NYV4 A7W382352702011150N8400000000030028B4200    01DNHAPPY HIPPIE             465455    VD84000000003002 NP1549976044904   1882                     000000000+                F DF 00415                     000000000  N000000000       0000000000000.00 0000000.00   0000000.00                             000000000000000                                                                                                                                                     01418 G000000003002 0000000000000.65     01650 01500                  
02667320405030001P16759067590000000288180088880000001010000000000000000                             2000000000000000000000000              000000000000                    0000000000000000000000000                    000000000000                                                                                                                                                                                                                                                                                                                                                                                                                                                                                        
