06407980576438776AD675906759000000176738001068000009077900014116240000002178907242023NYY20523YC6759800106072620232023180030474                                                                                                                                                                                                                                                                                                                                                                                                                                                                                                                                                                                              
06407990576438782AD675906759000000232598001168000009077900014319000000001306707242023NYY20523YC6759800116072620232023180030449                                                                                                                                                                                                                                                                                                                                                                                                                                                                                                                                                                                              
06408000576438788AD675906759000000239118001208000009077900010701650000002179907242023NYY20523YC6759800120072620232023180030462                                                                                                                                                                                                                                                                                                                                                                                                                                                                                                                                                                                              
06408010576438791AD675906759000000151648008888000009071900014162170000001987007242023NYY20523ND6759800888072620232023205033899                                                                                                                                                                                                                                                                                                                                                                                                                                                                                                                                                                                              
06408020576438794AD675906759000000133008001028000009071900014209190000002180707242023NYY20523ND6759800102072620232023205018647                                                                                                                                                                                                                                                                                                                                                                                                                                                                                                                                                                                              
06408030576438797AD675906759000000198288001098000009071900017902140000001987007242023NYY20523ND6759800109072620232023205018648                                                                                                                                                                                                                                                                                                                                                                                                                                                                                                                                                                                              
06408040576438800AD675906759000000142748001028000009071900014194470000002126107242023NYY20523ND6759800102072620232023205018649                                                                                                                                                                                                                                                                                                                                                                                                                                                                                                                                                                                              
06408050576438803AD675906759000000133008001028000009071900018313180000001604007242023NYY20523ND6759800102072620232023205018650                                                                                                                                                                                                                                                                                                                                                                                                                                                                                                                                                                                              
06408060576438806AD675906759000000239118001208000009071900010902810000000763007242023NYY20523ND6759800120072620232023205018651                                                                                                                                                                                                                                                                                                                                                                                                                                                                                                                                                                                              
06408070576438809AD675906759000000151648008888000009071900014164210000000259507242023NYY20523ND6759800888072620232023205018652                                                                                                                                                                                                                                                                                                                                                                                                                                                                                                                                                                                              
06408080576438812AD675906759000000151648008888000009071900014164190000001987007242023NYY20523ND6759800888072620232023205018653                                                                                                                                                                                                                                                                                                                                                                                                                                                                                                                                                                                              
06408090576438815AD675906759000000151648008888000009071900014164200000000327407242023NYY20523ND6759800888072620232023205018654                                                                                                                                                                                                                                                                                                                                                                                                                                                                                                                                                                                              
06408100576901632AD675906759000000232598001168000009077231780533210000001202607242023NYY20523YC6759800116072620232023178053321                                                                                                                                                                                                                                                                                                                                                                                                                                                                                                                                                                                              
06408110578120230BH6759067590000002684980012580000090170725202320623000000000019770    0000090001008171N8001256759D07262023100                                                                                                                                                                                                                                                                                                                                                                                                                                                                                                                                                                                              
06408120578120231DT67590675900000026849800125800000010680012587287283206900010081715072320230000001977020623000000000019770552393XXXXXX6286                         YY 4607AMCWDBYBZG0723  N840000000019770          81CNCBD8885133385            072180    MC84000000019770 NDR599978220273   D061470110TF28DA2C50917  000000000+600450S00130    MCW  00564                     000000000  N                0000000000000.00 0000000.00   0000000.00                             000000000000000                                                                                                                                                     015WPE 000000000000-0000000000003.46     01750 00000                  
06408130578120231DR675906759000000268498001258000000106D061470110TF28DA2C50917  Z000000000000                                                                                                                                                                                                                                                                                                                                                                                                                                                                                                                                                                                                                               
06408140578120001G26759067590000002684980012580000001068885133385               WY           9 W               210                                      NNNN           210000000000000000000000000                        7                                          78220273                                                                                                                                                                                                                                                                                                                                                                                                                                               
06408150578120234BH6759067590000002872080012780000090170725202320623000000000999700    0000090001158641N8001276759D07262023015                                                                                                                                                                                                                                                                                                                                                                                                                                                                                                                                                                                              
06408160578120235DT67590675900000028720800127800000010680012773011003206900011586410072420230000099970020623000000000999700379576XXXXX4016                          YY 4 01N008498905089064N840000000999700          01CNLIFE SURGE LLC           102371    AM84000000999700 N  899971004114                            000000000+600320600140 258     11314                     000000000                   0000000000000.00 0000000.00   0000000.00                             000000000000000 61248972736759675900000028720                          1401 MANATEE AVE W STE 12                34205                                               015WPE 000000000000 0000000000000.00     00000 00000                  
06408170578120001G2675906759000000287208001278000000106BRADENTON                FL           0                  00                                      NNNN                          000000000000                                                                   71004114                                                                                                                                                                                                                                                                                                                                                                                                                                               
06408180578120238BH6759067590000002684980012580000090170725202320623000000000041138    0000090001018175N8001256759D07262023101                                                                                                                                                                                                                                                                                                                                                                                                                                                                                                                                                                                              
06408190578120239DT67590675900000026849800125800000010680012574001193206900010181725072420230000000149520623000000000041138446619XXXXXX3045               0000000   YYV4 07T583205351086569N8400000000014955FP500    01CNCBD8885133385            024474    VB84000000001495 NDR599978220273   E3A4BA7D03T702C1E5BE24A  000000000+                G CG 00246                     000000000  N000000000 167   0000000000000.00 0000000.00   0000000.00                             000000000000000                                                                                                                                                     015WPE 000000001495-0000000000000.35     02350 00000                  
06408200578120239DR675906759000000268498001258000000106E3A4BA7D03T702C1E5BE24A  U000000001495                 P1                                                                                                                                                                                                                                                                                                                                                                                                                                                                                                                                                                                                            
06408210578120001P16759067590000002684980012580000001060000000000000000                             2000000000000000000000000              000000000000                    0000000000000000000000000                    000000000000                                                                                                                                                                                                                                                                                                                                                                                                                                                                                        
06408220578120002G2675906759000000268498001258000000106888-5133385              WY           9 C                00                                      NNNN   Y                      000000000000                                                                   78220273                                                                                                                                                                                                                                                                                                                                                                                                                                               
06408230578120240DT67590675900000026849800125800000010680012574001193206900010181733072420230000001977020623000000000041138446619XXXXXX3045               0000000   YYV4 07T383205352862989N8400000000197706PJC00    01CNCBD8885133385            024854    VB84000000019770 NDR599978220273   E3A4BA7D03T6289D0C4E91C  000000000+                G CG 00246                     000000000  N000000000 167   0000000000000.00 0000000.00   0000000.00                             000000000000000                                                                                                                                                     015WPE 000000019770-0000000000004.65     02350 00000                  
06408240578120240DR675906759000000268498001258000000106E3A4BA7D03T6289D0C4E91C  U000000019770                 P1                                                                                                                                                                                                                                                                                                                                                                                                                                                                                                                                                                                                            
06408250578120001P16759067590000002684980012580000001060000000000000000                             2000000000000000000000000              000000000000                    0000000000000000000000000                    000000000000                                                                                                                                                                                                                                                                                                                                                                                                                                                                                        
06408260578120002G2675906759000000268498001258000000106888-5133385              WY           9 C                00                                      NNNN   Y                      000000000000                                                                   78220273                                                                                                                                                                                                                                                                                                                                                                                                                                               
06408270578120241DT67590675900000026849800125800000010680012587287283206900010181770072420230000000129520623000000000041138546213XXXXXX8321                         YY94607N         0724  N840000000000000          81CNCBD8885133385                      MD84000000001295 N  599978220273   73E0E993D7T4B30F86291A9  000000000+600450S00130    MDJ  10828                     000000000  1                0000000000000.00 0000000.00   0000000.00                             000000000000000                                                                                                                                                     015WPE 000000000000 0000000000000.00     00000 00000                  
06408280578120001G26759067590000002684980012580000001068885133385               WY           9 J               210                                      NNNN           210000000000000000000000000                                                                   78220273                                                                                                                                                                                                                                                                                                                                                                                                                                               
06408290578120242DT67590675900000026849800125800000010680012587287283206900010181754072420230000001857820623000000000041138542418XXXXXX5025                         YY 4607AMPLBVNKWI0724  N840000000018578          81CNCBD8885133385            520810    MC84000000018578 NDR599978220273   65399091FAT847B517DEF2F  000000000+600450S00130    MPL  00564                     000000000  N                0000000000000.00 0000000.00   0000000.00                             000000000000000                                                                                                                                                     015WPE 000000000000-0000000000003.25     01750 00000                  
06408300578120242DR67590675900000026849800125800000010665399091FAT847B517DEF2F  U000000000000                                                                                                                                                                                                                                                                                                                                                                                                                                                                                                                                                                                                                               
06408310578120001G26759067590000002684980012580000001068885133385               WY           9 L               210                                      NNNN           210000000000000000000000000                        7                                          78220273                                                                                                                                                                                                                                                                                                                                                                                                                                               
06408320579050002BH6759067590000002148580111380000090170725202320623000000000931900    0000090001088236N8011136759C07262023008                                                                                                                                                                                                                                                                                                                                                                                                                                                                                                                                                                                              
06408330579050003DT67590675900000021485801113800000010180111387287283206900010864466072520230000006000020623000000000931900547415XXXXXX2954                         NY 4607AMEBRQSQUL0724  N840000000060000          81DNFED CONTRACTING CTR INC  03872Q    MB84000000060000 NDR739200000001   3414                     000000000+600450S00140    MEB  11637                     000000000  N                0000000000000.00 0000000.00   0000000.00                             000000000000000                                                                                                                                                   U001418  000000000000 0000000000018.10     03000 01000                  
06408340579050003DR6759067590000002148580111380000001013414                     Y000000000000                 P1                                                                                                                                                                                                                                                                                                                                                                                                                                                                                                                                                                                                            
06408350579050001P1675906759000000214858011138000000101                                                          000000000000          1000            871304360                                                                                                                                                                                                                                                                                                                                                                                                                                                                                                                                                            
06408360579050002G2675906759000000214858011138000000101727-8515483              FL           9 B               210                  871304360           YNNN           210000000000000000000000000                        7                                          71004114                                                                                                                                                                                                                                                                                                                                                                                                                                               
06408370579050004DT67590675900000021485801113800000010180111376509753206900010888314072520230000006000020623000000000931900601101XXXXXX9207   BA00                  NY 4 07N753176797383043N840000000060000    00    01DNFED CONTRACTING CTR INC  02469P    DS84000000060000 NDR739271004114010                         000000000+1015104910600   DCPDI01122167283  120218000000 000000000  0          150   0000000000000.00 0000000.00   0000000.00                             000000000000000                                                                                                                                                     01418  000000000000 0000000000012.40     02050 01000                  
06408380579050004DR675906759000000214858011138000000101                         Y                                                                                                                                                                                                                                                                                                                                                                                                                                                                                                                                                                                                                                           
06408390579050001G2675906759000000214858011138000000101727-8515483              FL           9 P                00                                      NNNN                          000000000000                         00000650975601179750000436                71004114                                                                                                                                                                                                                                                                                                                                                                                                                                               
06408400579050005DT67590675900000021485801113800000010180111373011003206900010893890072520230000031190020623000000000931900371544XXXXX5003                          NY 4 07N007812250602076N840000000311900          01DNFED CONTRACTING CTR INC  106009    AM84000000311900 N  739271004114                            000000000+6004S0600140 258     11244                     000000000                   0000000000000.00 0000000.00   0000000.00                             000000000000000 61248972736759675900000021485 FED CONTRACTING CTR INC  15500 ROOSEVELT BLVD STE 8557005143      33760     MIKE@FEDERALCONTRACTINGCENTER.COM         01418  000000000000 0000000000059.36     01900 00000                  
06408410579050001G2675906759000000214858011138000000101CLEARWATER               FL           9                  00                                      NNNN                          000000000000                                                                   71004114                                                                                                                                                                                                                                                                                                                                                                                                                                               
06408420579050006DT67590675900000021485801113800000010180111373011003206900010854678072520230000015000020623000000000931900379839XXXXX1018                          NY 4 07N008503142034060N840000000150000          01DNFED CONTRACTING CTR INC  185427    AM84000000150000 N  739271004114                            000000000+6004S0600140 258     11244                     000000000                   0000000000000.00 0000000.00   0000000.00                             000000000000000 61248972736759675900000021485 FED CONTRACTING CTR INC  15500 ROOSEVELT BLVD STE 8557005143      33760     MIKE@FEDERALCONTRACTINGCENTER.COM         01418  000000000000 0000000000028.60     01900 00000                  
06408430579050001G2675906759000000214858011138000000101CLEARWATER               FL           9                  00                                      NNNN                          000000000000                                                                   71004114                                                                                                                                                                                                                                                                                                                                                                                                                                               
06408440579050007DT67590675900000021485801113800000010180111324001193206900010882368072520230000035000020623000000000931900424631XXXXXX2814               2111111   NYV4 A7W383205674222733N840000000350000HNQG00    01DNFED CONTRACTING CTR INC  00271G    VB84000000350000 NDR739271004114   3416                     000000000+                G3CG308002                     000000000  N000000000 381   0000000000000.00 0000000.00   0000000.00                             000000000000000                                                                                                                                                     01418 G000000350000 0000000000098.10     02800 01000                  
06408450579050007DR6759067590000002148580111380000001013416                     Y000000350000                 P1                                                                                                                                                                                                                                                                                                                                                                                                                                                                                                                                                                                                            
06408460579050001P16759067590000002148580111380000001010000000000000000    64500389888              2000000000000000000000000              000000000000                    0000000000000000000000000                    000000000000                                                                                                                                                                                                                                                                                                                                                                                                                                                                                        
06408470579050002G2675906759000000214858011138000000101855-7005143              FL           9 C                00                                      NNNN   Y                      000000000000                                                                   71004114                                                                                                                                                                                                                                                                                                                                                                                                                                               
06408480579050008BH6759067590000000288180088880000090170725202320623000000000070839    0000090001820010N8008886759C07262023182                                                                                                                                                                                                                                                                                                                                                                                                                                                                                                                                                                                              
06408490579050009DT67590675900000002881800888800000010180088824001193206900018200019072520230000000405720623000000000070839422921XXXXXX8629       VS11    0001111   NYV1 A E463206542398900N8400000000040579RLD00    05DNHAPPY HIPPIE             039841    VD84000000004057 N  549976487158                            000000000+                F DF 00381                     000000000  N000000000       0000000000000.00 0000000.00   0000000.00                             000000000000000                                                                                                                                                     01418 A000000000000 0000000000000.47     00800 01500                  
06408500579050001E167590675900000002881800888800000010100E0F8C80086 00000000000.004040404040404040404040404040404040404040404040404006011203A08000000000000000000000404040404040404040404040404040  0000084018008080008000230725F36D1834AE91F4428ACB60E1404040400840A00000000310100000000000000000008C36FD230382000000000000000000004040401E40404040 000000040.57 000000000.001E00000000000000000000    80                                                                                                                                                                                                                                                                                                                  
06408510579050002G2675906759000000028818008888000000101SEVIERVILLE              TN           5 D                00                                      NNNN00 N 00                   000000000000                                                                   76487158                                                                                                                                                                                                                                                                                                                                                                                                                                               
06408520579050010DT67590675900000002881800888800000010180088877287283206900018200029072520230000000274320623000000000070839511271XXXXXX2765       MS02WI09          NY 1 0 AMDJLQ020P0725  N840000000002743          05DNHAPPY HIPPIE             0783FF    MD84000000002743 N  549976487158                            000000000+M10101C5434C    MDJ  10815                     000000000  1                0000000000000.00 0000000.00   0000000.00                             000000000000000                                                                                                                                                   B101418  000000000000 0000000000000.23     00050 02200                  
06408530579050001E167590675900000002881800888800000010100E0F8C80330 00000000000.00404040404040404040404040404040404040404040404040400110A04003220000000000000000000000FF00000000000000000000000000  0000084039000000088000230725060E7C1A3E3E7264EB3C9EAF404040400840A0000000041010000000000000000000C045AD142554FD3C00120000000000004040401E40404040 000000027.43 000000000.001E03000000000000000000    80                                                                                                                                                                                                                                                                                                                  
06408540579050002G2675906759000000028818008888000000101SEVIERVILLE              TN           5 J                                                        NNNN              000000000000000000000000                                                                   76487158                                                                                                                                                                                                                                                                                                                                                                                                                                               
06408550579050011DT67590675900000002881800888800000010180088877287283206900018200037072520230000000115120623000000000070839533248XXXXXX6968       MS02WI09          NY 2 0 AMPVTWW4HX0725  N840000000001151          05DNHAPPY HIPPIE             KCKFRZ    MD84000000001151 N  549976487158                            000000000+M10101C1334C    MPV  00505                     000000000  N                0000000000000.00 0000000.00   0000000.00                             000000000000000                                                                                                                                                     01418  000000000000 0000000000000.22     01550 00400                  
06408560579050001E167590675900000002881800888800000010100E0F8C800FA 00000000000.00404040404040404040404040404040404040404040404040400110A00001220000000000000000000000FF00000000000000000000000000  0000084018008000048000230725C7656D094B5E0AD8E3A88597404040400840A0000000041010000000000000000000734EFEB5FF2C7FA700100000000000004040400240404040 000000011.51 000000000.000203000000000000000000    80                                                                                                                                                                                                                                                                                                                  
06408570579050002G2675906759000000028818008888000000101SEVIERVILLE              TN           5 V                                                        NNNN              000000000000000000000000                                                                   76487158                                                                                                                                                                                                                                                                                                                                                                                                                                               
06408580579050012DT67590675900000002881800888800000010180088877287283206900018200045072520230000003731520623000000000070839528149XXXXXX4489       MS02WI09          NY 1 0 AMDJHCYA690725  N840000000037315          05DNHAPPY HIPPIE             043969    MD84000000037315 N  549976487158                            000000000+M10101C5434C    MDJ  00402                     000000000  N                0000000000000.00 0000000.00   0000000.00                             000000000000000                                                                                                                                                   B101418  000000000000 0000000000004.07     01050 01500                  
06408590579050001E167590675900000002881800888800000010100E0F8C8008F 00000000000.00404040404040404040404040404040404040404040404040400110A00001220000000000000000000000FF00000000000000000000000000  000008401800800000800023072539A558D81A428C51D2017795404040400840A0000000041010000000000000000000DDAA0B1E0F42BED603120000000000004040401E40404040 000000373.15 000000000.001E03000000000000000000    80                                                                                                                                                                                                                                                                                                                  
06408600579050002G2675906759000000028818008888000000101SEVIERVILLE              TN           5 J                                                        NNNN              000000000000000000000000                        7                                          76487158                                                                                                                                                                                                                                                                                                                                                                                                                                               
06408610579050013DT67590675900000002881800888800000010180088877287283206900018200052072520230000000263220623000000000070839549099XXXXXX9996       MS02WI09          NY 1 0 AMPLICBH690725  N840000000002632          05DNHAPPY HIPPIE             03728B    MC84000000002632 N  549976487158                            000000000+M10101C5434C    MPL  00364                     000000000  N                0000000000000.00 0000000.00   0000000.00                             000000000000000                                                                                                                                                   B101418  000000000000 0000000000000.51     01800 00400                  
06408620579050001E167590675900000002881800888800000010100E0F8C801BF 00000000000.00404040404040404040404040404040404040404040404040400110A00003220000000000000000000000FF00000000000000000000000000  0002084018008000008000230725F88C0BBD78B5BFAF73A345D3404040400840A000000004101000000000000000000039F3EEC73335FD3F00120000000000004040401E40404040 000000026.32 000000000.001E03000000000000000000    80                                                                                                                                                                                                                                                                                                                  
06408630579050002G2675906759000000028818008888000000101SEVIERVILLE              TN           5 L                                                        NNNN              000000000000000000000000                                                                   76487158                                                                                                                                                                                                                                                                                                                                                                                                                                               
06408640579050014DT67590675900000002881800888800000010180088824001193206900018200068072520230000000347320623000000000070839443041XXXXXX6524       VS11    0001111   NYV1 A E463206634398978N8400000000034739LN300    07DNHAPPY HIPPIE             532282    VD84000000003473 N  549976487158                            000000000+                F DF 10433                     000000000  Y000000000 338   0000000000000.00 0000000.00   0000000.00                             000000000000000                                                                                                                                                     01418 A000000000000 0000000000000.24     00050 02200                  
06408650579050001E167590675900000002881800888800000010100E068C800C0 00000000000.004040404040404040404040404040404040404040404040404006011203A00000000000000000000000404040404040404040404040404040  0001084000200000000000230725A3922A1BB90DDC4D7E4762BC404040400840A0000000031010000000000000000000404040404040404040404040404040404040404040404040 000000034.73 000000000.004040400000000000000000    80                                                                                                                                                                                                                                                                                                                  
06408660579050002G2675906759000000028818008888000000101SEVIERVILLE              TN           5 D                00                                      NNNN00 N 00                   000000000000                                                                   76487158                                                                                                                                                                                                                                                                                                                                                                                                                                               
06408670579050015DT67590675900000002881800888800000010180088824001193206900018200076072520230000000495620623000000000070839400022XXXXXX0750       VS11    0001111   NYV1 A E303206689796915N840000000004956NKHV00    07DNHAPPY HIPPIE             101966    VD84000000004956 N  549976487158                            000000000+                F DF 10433                     000000000  Y000000000 338   0000000000000.00 0000000.00   0000000.00                             000000000000000                                                                                                                                                     01418 A000000000000 0000000000000.24     00050 02200                  
06408680579050001E167590675900000002881800888800000010100E068C80239 00000000000.004040404040404040404040404040404040404040404040404006021203A00000000000000000000000404040404040404040404040404040  000008400000000000000023072559C7C023DBE848D0AED83803404040400840A0000000031010000000000000000000404040404040404040404040404040404040404040404040 000000049.56 000000000.004040400000000000000000    80                                                                                                                                                                                                                                                                                                                  
06408690579050002G2675906759000000028818008888000000101SEVIERVILLE              TN           5 D                00                                      NNNN00 N 00                   000000000000                                                                   76487158                                                                                                                                                                                                                                                                                                                                                                                                                                               
06408700579050016DT67590675900000002881800888800000010180088824001193206900018200084072520230000000860520623000000000070839461627XXXXXX1588       VS11    0001111   NYV1 A E383206771925315N8400000000086053PJN00    05DNHAPPY HIPPIE             200338    VD84000000008605 N  549976487158                            000000000+                G DG 08704                     000000000  N000000000       0000000000000.00 0000000.00   0000000.00                             000000000000000                                                                                                                                                     01418 A000000000000 0000000000001.56     01700 01000                  
06408710579050001E167590675900000002881800888800000010100E0F8C80036 00000000000.004040404040404040404040404040404040404040404040404006011203A0A000000000000000000000404040404040404040404040404040  00010840180080800080002307250C5F370A35FDC7F7FF6A306B404040400840A00000000310100000000000000000000113D39F0080000000000000000000004040401E40404040 000000086.05 000000000.001E00000000000000000000    80                                                                                                                                                                                                                                                                                                                  
06408720579050002G2675906759000000028818008888000000101SEVIERVILLE              TN           5 D                00                                      NNNN00 N 00                   000000000000                                                                   76487158                                                                                                                                                                                                                                                                                                                                                                                                                                               
06408730579050017DT67590675900000002881800888800000010180088824001193206900018200092072520230000000574220623000000000070839474480XXXXXX9233       VS11    0001111   NYV1 A E583206776149345N840000000005742NTZ900    07DNHAPPY HIPPIE             103036    VD84000000005742 N  549976487158                            000000000+                F DF 10433                     000000000  Y000000000 338   0000000000000.00 0000000.00   0000000.00                             000000000000000                                                                                                                                                     01418 A000000000000 0000000000000.25     00050 02200                  
06408740579050001E167590675900000002881800888800000010100E068C800DF 00000000000.004040404040404040404040404040404040404040404040404006021203A00000000000000000000000404040404040404040404040404040  0000084020000000000000230725D699C01FE2BAEB96BC3E6DFA404040400840A0000000031010000000000000000000404040404040404040404040404040404040404040404040 000000057.42 000000000.004040400000000000000000    80                                                                                                                                                                                                                                                                                                                  
06408750579050002G2675906759000000028818008888000000101SEVIERVILLE              TN           5 D                00                                      NNNN00 N 00                   000000000000                                                                   76487158                                                                                                                                                                                                                                                                                                                                                                                                                                               
06408760579050018DT67590675900000002881800888800000010180088824001193206900018200100072520230000000016520623000000000070839429413XXXXXX1338       VK04VS111111111   NYV1 A E303206796373163N840000000000165WTHK00    07DNHAPPY HIPPIE             587252    VD84000000000165 N  549976487158                            000000000+                F DF 00451                     000000000  N000000000 214   0000000000000.00 0000000.00   0000000.00                             000000000000000                                                                                                                                                     01418 F000000000000 0000000000000.07     01550 00400                  
06408770579050001E167590675900000002881800888800000010100E068C800EA 00000000000.004040404040404040404040404040404040404040404040404006011203A00000000000000000000000404040404040404040404040404040  0000084020000000000000230725FF5F6D107F274A7955AFB95B404040400840A0000000031010000000000000000000404040404040404040404040404040404040404040404040 000000001.65 000000000.004040400000000000000000    80                                                                                                                                                                                                                                                                                                                  
06408780579050002G2675906759000000028818008888000000101SEVIERVILLE              TN           5 D                00                                      NNNN00 N 00                   000000000000                                                                   76487158                                                                                                                                                                                                                                                                                                                                                                                                                                               
06408790579050019BH6759067590000000288180088880000090170725202320623000000000082934    0000090001710016N8008886759C07262023071                                                                                                                                                                                                                                                                                                                                                                                                                                                                                                                                                                                              
06408800579050020DT67590675900000002881800888800000010180088824001193206900017100012072520230000001100020623000000000082934423534XXXXXX7604               1001111   NYV1 A K463206509929059N840000000011000TMXT00    01DNHAPPY HIPPIE             000952    VS84000000011000 NDR549976487169                            000000000+                C CC 12108                     000000000  N000000000 496   0000000000000.00 0000000.00   0000000.00                             000000000000000                                                                                                                                                     01418 E000000000000 0000000000002.36     02050 01000                  
06408810579050020DR675906759000000028818008888000000101                         Z000000000000                                                                                                                                                                                                                                                                                                                                                                                                                                                                                                                                                                                                                               
06408820579050001G2675906759000000028818008888000000101865-3663142              TN           5 C                00                                      NNNN   N                      000000000000                                                                   76487169                                                                                                                                                                                                                                                                                                                                                                                                                                               
06408830579050021DT67590675900000002881800888800000010180088873011003206900017100026072520230000002215020623000000000082934379295XXXXX3003                          NY 1 0 N008521908407064N840000000022150          05DNHAPPY HIPPIE             806678    AM84000000022150 N  549976487169                            000000000+51010155434C 258     11262                     000000000                   0000000000000.00 0000000.00   0000000.00                             000000000000000 61248972086759675900000002881 HAPPY HIPPIE             832 PARKWAY              8656540830      37862     HAPPYHIPPIE832@GMAIL.COM                  01418  000000000000 0000000000004.42     01950 00000                  
06408840579050001E167590675900000002881800888800000010100E0F8C8006A 00000000000.004040404040404040404040404040404040404040404040404006550103A0A006000000000000000000404040404040404040404040404040  000008403C000000008000230725BB3E189013B86709EAA37B50404040400840A0000000250108010000000000000000AA26C2679F8E879130300000000000004040401E40404040 000000221.50 000000000.001E03000000000000000000    80                                                                                                                                                                                                                                                                                                                  
06408850579050002G2675906759000000028818008888000000101SEVIERVILLE              TN           5                  00                                      NNNN                          000000000000                                                                   76487169                                                                                                                                                                                                                                                                                                                                                                                                                                               
06408860579050022DT67590675900000002881800888800000010180088824001193206900017100038072520230000000416620623000000000082934422921XXXXXX7381       VS11    0001111   NYV1 A E463206545756129N840000000004166RJD800    07DNHAPPY HIPPIE             040176    VD84000000004166 N  549976487169                            000000000+                F DF 00381                     000000000  N000000000       0000000000000.00 0000000.00   0000000.00                             000000000000000                                                                                                                                                     01418 A000000000000 0000000000000.48     00800 01500                  
06408870579050001E167590675900000002881800888800000010100E068C800A0 00000000000.004040404040404040404040404040404040404040404040404006011203A00000000000000000000000404040404040404040404040404040  0000084000000000000000230725201C0549A51B8DBE553CAA65404040400840A00000000310100000000000000000006796BFD50382000000000000000000004040404040404040 000000041.66 000000000.004040400000000000000000    80                                                                                                                                                                                                                                                                                                                  
06408880579050002G2675906759000000028818008888000000101SEVIERVILLE              TN           5 D                00                                      NNNN00 N 00                   000000000000                                                                   76487169                                                                                                                                                                                                                                                                                                                                                                                                                                               
06408890579050023DT67590675900000002881800888800000010180088877287283206900017100048072520230000000682320623000000000082934542418XXXXXX2398       MS02WI09          NY 1 0 AMCWTVPVHX0725  N840000000006823          05DNHAPPY HIPPIE             44537P    MC84000000006823 N  549976487169                            000000000+M10101C5434C    MCW  00646                     000000000  N                0000000000000.00 0000000.00   0000000.00                             000000000000000                                                                                                                                                   B101418  000000000000 0000000000001.34     01900 00400                  
06408900579050001E167590675900000002881800888800000010100E0F8C8008E 00000000000.00404040404040404040404040404040404040404040404040400110A04001220000000000000000000000FF00000000000000000000000000  0002084039000000008000230725EC45397AD03099511464B358404040400840A000000004101000000000000000000040D35757F081D44E00120000000000004040401E40404040 000000068.23 000000000.001E03000000000000000000    80                                                                                                                                                                                                                                                                                                                  
06408910579050002G2675906759000000028818008888000000101SEVIERVILLE              TN           5 W                                                        NNNN              000000000000000000000000                        7                                          76487169                                                                                                                                                                                                                                                                                                                                                                                                                                               
06408920579050024DT67590675900000002881800888800000010180088824001193206900017100053072520230000000175120623000000000082934435546XXXXXX5822               1001111   NYV1 A K303206556171564N840000000001751T27G00    01DNHAPPY HIPPIE             084113    VD84000000001751 NDR549976487169                            000000000+                F DF 10436                     000000000  Y000000000 338   0000000000000.00 0000000.00   0000000.00                             000000000000000                                                                                                                                                     01418 E000000000000 0000000000000.23     00050 02200                  
06408930579050024DR675906759000000028818008888000000101                         Z000000000000                                                                                                                                                                                                                                                                                                                                                                                                                                                                                                                                                                                                                               
06408940579050001G2675906759000000028818008888000000101865-3663142              TN           5 D                00                                      NNNN   N                      000000000000                                                                   76487169                                                                                                                                                                                                                                                                                                                                                                                                                                               
06408950579050025DT67590675900000002881800888800000010180088877287283206900017100063072520230000000347320623000000000082934536062XXXXXX5079       MS02WI09          NY 1 0 AMDJUME0HX0725  N840000000003473          05DNHAPPY HIPPIE             206287    MD84000000003473 N  549976487169                            000000000+M10101C5434C    MDJ  10815                     000000000  1                0000000000000.00 0000000.00   0000000.00                             000000000000000                                                                                                                                                   B101418  000000000000 0000000000000.24     00050 02200                  
06408960579050001E167590675900000002881800888800000010100E0F8C80176 00000000000.00404040404040404040404040404040404040404040404040400110A04001220000000000000000000000FF00000000000000000000000000  000108403900000000800023072585EC70BD83E11F7438208A67404040400840A00000000410100000000000000000003DF9B562E252EEE000120000000000004040401E40404040 000000034.73 000000000.001E03000000000000000000    80                                                                                                                                                                                                                                                                                                                  
06408970579050002G2675906759000000028818008888000000101SEVIERVILLE              TN           5 J                                                        NNNN              000000000000000000000000                        7                                          76487169                                                                                                                                                                                                                                                                                                                                                                                                                                               
06408980579050026DT67590675900000002881800888800000010180088876509753206900017100077072520230000000462920623000000000082934601100XXXXXX0671   BA05                  NY41 0 N873177611991509N840000000004629    00    07DNHAPPY HIPPIE             02595R    DS84000000004629 N  549976487169830                         000000000+0000004910H00   DCCDI01000834432  133959000000 000000000  0          112   0000000000000.00 0000000.00   0000000.00                             000000000000000                                                                                                                                                     01418  000000000000 0000000000000.90     01720 01000                  
06408990579050001E167590675900000002881800888800000010100E068C800A3 00000000000.00404040404040404040404040404040404040404040404040400115209000003500B800010000000046290000000000000000000000000000  0001084019008000008000230725B212DE5F4A18769A7D8F11F6404040400840A00000015230100000000000000000000F4CE0B52AAD0A9C00320000000000004040403F40404040 000000046.29 000000000.003F00000000000000000000    80                                                                                                                                                                                                                                                                                                                  
06409000579050002G2675906759000000028818008888000000101SEVIERVILLE              TN           5 C                00                                      NNNN                          000000000000                         00000650975601179750000063                76487169                                                                                                                                                                                                                                                                                                                                                                                                                                               
06409010579050027DT67590675900000002881800888800000010180088824001193206900017100087072520230000000307220623000000000082934420767XXXXXX2125       VS11    0001111   NYV1 A E463206642151329N840000000003072HZQ400    07DNHAPPY HIPPIE             589585    VD84000000003072 N  549976487169                            000000000+                F DF 10433                     000000000  Y000000000 338   0000000000000.00 0000000.00   0000000.00                             000000000000000                                                                                                                                                     01418 A000000000000 0000000000000.24     00050 02200                  
06409020579050001E167590675900000002881800888800000010100E068C802F2 00000000000.004040404040404040404040404040404040404040404040404006011203A00000000000000000000000404040404040404040404040404040  0000084000000000000000230725FC5DFC54FE41D13578D85051404040400840A0000000031010000000000000000000404040404040404040404040404040404040404040404040 000000030.72 000000000.004040400000000000000000    80                                                                                                                                                                                                                                                                                                                  
06409030579050002G2675906759000000028818008888000000101SEVIERVILLE              TN           5 D                00                                      NNNN00 N 00                   000000000000                                                                   76487169                                                                                                                                                                                                                                                                                                                                                                                                                                               
06409040579050028DT67590675900000002881800888800000010180088824001193206900017100095072520230000000416620623000000000082934419090XXXXXX6607       VS11    0001111   NYV1 A E383206647222820N840000000004166B5QH00    05DNHAPPY HIPPIE             193397    VD84000000004166 N  549976487169                            000000000+                F DF 00381                     000000000  N000000000       0000000000000.00 0000000.00   0000000.00                             000000000000000                                                                                                                                                     01418 A000000000000 0000000000000.48     00800 01500                  
06409050579050001E167590675900000002881800888800000010100E0F8C8001F 00000000000.004040404040404040404040404040404040404040404040404006010A03A0A000000000000000000000404040404040404040404040404040  00020840180080800080002307256428668C693C53D8B6B7E60E404040400840A000000003101000000000000000000008E79810D1689BCD30300000000000004040401E40404040 000000041.66 000000000.001E00000000000000000000    80                                                                                                                                                                                                                                                                                                                  
06409060579050002G2675906759000000028818008888000000101SEVIERVILLE              TN           5 D                00                                      NNNN00 N 00                   000000000000                                                                   76487169                                                                                                                                                                                                                                                                                                                                                                                                                                               
06409070579050029DT67590675900000002881800888800000010180088824001193206900017100103072520230000000126020623000000000082934449210XXXXXX3344       VK04VS111111111   NYV1 A E583206650337008N8400000000012605PHR00    07DNHAPPY HIPPIE             000353    VD84000000001260 N  549976487169                            000000000+                F DF 10439                     000000000  Y000000000 331   0000000000000.00 0000000.00   0000000.00                             000000000000000                                                                                                                                                     01418 F000000000000 0000000000000.23     00050 02200                  
06409080579050001E167590675900000002881800888800000010100E068C80379 00000000000.004040404040404040404040404040404040404040404040404006011203A00000000000000000000000404040404040404040404040404040  0000084020000000000000230725969CA5CB30DDC2C0EBA5B1D3404040400840A0000000031010000000000000000000404040404040404040404040404040404040404040404040 000000012.60 000000000.004040400000000000000000    80                                                                                                                                                                                                                                                                                                                  
06409090579050002G2675906759000000028818008888000000101SEVIERVILLE              TN           5 D                00                                      NNNN00 N 00                   000000000000                                                                   76487169                                                                                                                                                                                                                                                                                                                                                                                                                                               
06409100579050030DT67590675900000002881800888800000010180088824001193206900017100111072520230000000364520623000000000082934422921XXXXXX2523       VS11    0001111   NYV1 A E383206677139353N840000000003645WVJ300    07DNHAPPY HIPPIE             053315    VD84000000003645 N  549976487169                            000000000+                F DF 00381                     000000000  N000000000       0000000000000.00 0000000.00   0000000.00                             000000000000000                                                                                                                                                     01418 A000000000000 0000000000000.44     00800 01500                  
06409110579050001E167590675900000002881800888800000010100E068C80200 00000000000.004040404040404040404040404040404040404040404040404006011203A00000000000000000000000404040404040404040404040404040  00000840000000000000002307252546312A1F036279EB02789B404040400840A00000000310100000000000000000007F48EB080382000000000000000000004040404040404040 000000036.45 000000000.004040400000000000000000    80                                                                                                                                                                                                                                                                                                                  
06409120579050002G2675906759000000028818008888000000101SEVIERVILLE              TN           5 D                00                                      NNNN00 N 00                   000000000000                                                                   76487169                                                                                                                                                                                                                                                                                                                                                                                                                                               
06409130579050031DT67590675900000002881800888800000010180088824001193206900017100129072520230000000243120623000000000082934422921XXXXXX2419       VS11    0001111   NYV1 A E303206702325616N840000000002431M9FG00    05DNHAPPY HIPPIE             055833    VD84000000002431 N  549976487169                            000000000+                F DF 00381                     000000000  N000000000       0000000000000.00 0000000.00   0000000.00                             000000000000000                                                                                                                                                     01418 A000000000000 0000000000000.34     00800 01500                  
06409140579050001E167590675900000002881800888800000010100E0F8C80049 00000000000.004040404040404040404040404040404040404040404040404006011203A08000000000000000000000404040404040404040404040404040  0000084018008080008000230725F71090ED420DD9543B815058404040400840A0000000031010000000000000000000308BA08A0382000000000000000000004040401E40404040 000000024.31 000000000.001E00000000000000000000    80                                                                                                                                                                                                                                                                                                                  
06409150579050002G2675906759000000028818008888000000101SEVIERVILLE              TN           5 D                00                                      NNNN00 N 00                   000000000000                                                                   76487169                                                                                                                                                                                                                                                                                                                                                                                                                                               
06409160579050032DT67590675900000002881800888800000010180088824001193206900017100137072520230000000144620623000000000082934443238XXXXXX9152       VK04VS111111111   NYV1 A E583206730295970N840000000001446TFF800    05DNHAPPY HIPPIE             061709    VD84000000001446 N  549976487169                            000000000+                F DF 00451                     000000000  N000000000 214   0000000000000.00 0000000.00   0000000.00                             000000000000000                                                                                                                                                     01418 F000000000000 0000000000000.26     01550 00400                  
06409170579050001E167590675900000002881800888800000010100E0F8C8005C 00000000000.004040404040404040404040404040404040404040404040404006011203A0A000000000000000000000404040404040404040404040404040  0000084018008080008000230725413D8372EA07D0F05704BF64404040400840A0000000031010000000000000000000404040404040404040404040404040404040401E40404040 000000014.46 000000000.001E00000000000000000000    80                                                                                                                                                                                                                                                                                                                  
06409180579050002G2675906759000000028818008888000000101SEVIERVILLE              TN           5 D                00                                      NNNN00 N 00                   000000000000                                                                   76487169                                                                                                                                                                                                                                                                                                                                                                                                                                               
06409190579050033DT67590675900000002881800888800000010180088824001193206900017100145072520230000000312420623000000000082934443238XXXXXX5847       VS11    0001111   NYV1 A E383206775940250N840000000003124VRRV00    07DNHAPPY HIPPIE             073314    VD84000000003124 N  549976487169                            000000000+                F DF 00381                     000000000  N000000000       0000000000000.00 0000000.00   0000000.00                             000000000000000                                                                                                                                                     01418 A000000000000 0000000000000.40     00800 01500                  
06409200579050001E167590675900000002881800888800000010100E068C80089 00000000000.004040404040404040404040404040404040404040404040404006011203A00000000000000000000000404040404040404040404040404040  00000840000000000000002307250149143A9FD57D0E1470E194404040400840A0000000031010000000000000000000404040404040404040404040404040404040404040404040 000000031.24 000000000.004040400000000000000000    80                                                                                                                                                                                                                                                                                                                  
06409210579050002G2675906759000000028818008888000000101SEVIERVILLE              TN           5 D                00                                      NNNN00 N 00                   000000000000                                                                   76487169                                                                                                                                                                                                                                                                                                                                                                                                                                               
06409220579050034DT67590675900000002881800888800000010180088824001193206900017100152072520230000000260320623000000000082934480639XXXXXX5004       VS11    0001111   NYV1 A E463206784876928N840000000002603TNB200    05DNHAPPY HIPPIE             088905    VD84000000002603 N  549976487169                            000000000+                F DF 00381                     000000000  N000000000       0000000000000.00 0000000.00   0000000.00                             000000000000000                                                                                                                                                     01418 A000000000000 0000000000000.36     00800 01500                  
06409230579050001E167590675900000002881800888800000010100E0F8C803B8 00000000000.004040404040404040404040404040404040404040404040404006010A03A0A000000000000000000000404040404040404040404040404040  00000840180080800080002307253F65A567BA8A58A6A9E34E94404040400840A0000000031010000000000000000000D0BD08A70FA31DC730300000000000004040401E40404040 000000026.03 000000000.001E00000000000000000000    80                                                                                                                                                                                                                                                                                                                  
06409240579050002G2675906759000000028818008888000000101SEVIERVILLE              TN           5 D                00                                      NNNN00 N 00                   000000000000                                                                   76487169                                                                                                                                                                                                                                                                                                                                                                                                                                               
06409250579050035DT67590675900000002881800888800000010180088824001193206900017100160072520230000000719520623000000000082934480639XXXXXX9303       VS11    0001111   NYV1 A E583206790756067N840000000007195RR9500    05DNHAPPY HIPPIE             089166    VD84000000007195 N  549976487169                            000000000+                F DF 00381                     000000000  N000000000       0000000000000.00 0000000.00   0000000.00                             000000000000000                                                                                                                                                     01418 A000000000000 0000000000000.73     00800 01500                  
06409260579050001E167590675900000002881800888800000010100E0F8C8027D 00000000000.004040404040404040404040404040404040404040404040404006011203A02000000000000000000000404040404040404040404040404040  0000084018008080008000230725026F042C17461EA72578D95F404040400840A0000000031010000000000000000000B82980980080000000000000000000004040401E40404040 000000071.95 000000000.001E00000000000000000000    80                                                                                                                                                                                                                                                                                                                  
06409270579050002G2675906759000000028818008888000000101SEVIERVILLE              TN           5 D                00                                      NNNN00 N 00                   000000000000                                                                   76487169                                                                                                                                                                                                                                                                                                                                                                                                                                               
06409280579050036BH6759067590000000215480088880000090170725202320623000000000070320    0000090001405482N8008886759C07262023840                                                                                                                                                                                                                                                                                                                                                                                                                                                                                                                                                                                              
06409290579050037DT67590675900000002154800888800000010180088887287283206900014016212072520230000001200020623000000000070320525363XXXXXX3266       ME03KE06MS02      NY 4607AMWE3CQ9690725  N840000000012000          81DNDRIP DROP DISTRO LLC     61551Z    MC84000000012000 NDR519900000001   INV-003277               000000000+600450S00140    MWE  00737                     000000000  N                0000000000000.00 0000000.00   0000000.00                             000000000000000                                                                                                                                                   U001418  000000000000 0000000000003.22     02600 01000                  
06409300579050037DR675906759000000021548008888000000101INV-003277               Y000000000000                                                                                                                                                                                                                                                                                                                                                                                                                                                                                                                                                                                                                               
06409310579050001G2675906759000000021548008888000000101208-7033453              ID           9 E               210                                      NNNN           210000000000000000000000000                                                                   71004114                                                                                                                                                                                                                                                                                                                                                                                                                                               
06409320579050038DT67590675900000002154800888800000010180088824001193206900014054824072520230000005832020623000000000070320426930XXXXXX0531               2111111   NYV4 A7W383206772595688N840000000058320BF2M00    01DNDRIP DROP DISTRO LLC     02203G    VB84000000058320 NDR519971004114   INV-003304               000000000+                G5CG511887                     000000000  N000000000 163   0000000000000.00 0000000.00   0000000.00                             000000000000000                                                                                                                                                     01418 G000000058320 0000000000017.60     03000 01000                  
06409330579050038DR675906759000000021548008888000000101INV-003304               Y000000058320                 P1                                                                                                                                                                                                                                                                                                                                                                                                                                                                                                                                                                                                            
06409340579050001P16759067590000000215480088880000001010000000000000000    44211060764              2000000000000000000000000              000000000000                    0000000000000000000000000                    000000000000                                                                                                                                                                                                                                                                                                                                                                                                                                                                                        
06409350579050002G2675906759000000021548008888000000101800-9833326              ID           9 C                00                                      NNNN   Y                      000000000000                                                                   71004114                                                                                                                                                                                                                                                                                                                                                                                                                                               
06409360579050039BH6759067590000000288180088880000090170725202320623000000000173303    0000090001700024N8008886759C07262023170                                                                                                                                                                                                                                                                                                                                                                                                                                                                                                                                                                                              
06409370579050040DT67590675900000002881800888800000010180088877287283206900017000016072520230000000325820623000000000173303511953XXXXXX8148       MS02WI09          NY 1 0 AMDJKOGN0P0725  N840000000003258          05DNHAPPY HIPPIE             095512    MD84000000003258 N  549976487134                            000000000+M10101C5434C    MDJ  00402                     000000000  N                0000000000000.00 0000000.00   0000000.00                             000000000000000                                                                                                                                                   B101418  000000000000 0000000000000.49     01050 01500                  
06409380579050001E167590675900000002881800888800000010100E0F8C800C2 00000000000.00404040404040404040404040404040404040404040404040400110A04001220000000000000000000000FF00000000000000000000000000  0000084039000000008000230725115BCA8C188E0FAFEDDD7B01404040400840A000000004101000000000000000000077D20F2B4CEB4132031A0000000000004040401E40404040 000000032.58 000000000.001E03000000000000000000    80                                                                                                                                                                                                                                                                                                                  
06409390579050002G2675906759000000028818008888000000101SEVIERVILLE              TN           5 J                                                        NNNN              000000000000000000000000                        7                                          76487134                                                                                                                                                                                                                                                                                                                                                                                                                                               
