03766340706843663AD675906759000000198288001098000009077900015797600000001987006292023NYY18023YC6759800109070220232023157004072                                                                                                                                                                                                                                                                                                                                                                                                                                                                                                                                                                                              
03766350706843666AD675906759000000151648008888000009071900011484700000001499006292023NYY18023ND6759800888070220232023180022706                                                                                                                                                                                                                                                                                                                                                                                                                                                                                                                                                                                              
03766360706843669AD675906759000000151648008888000009071900018072710000001499006292023NYY18023ND6759800888070220232023180022707                                                                                                                                                                                                                                                                                                                                                                                                                                                                                                                                                                                              
03766370706843672AD675906759000000142748001028000009071900012673230000000999806292023NYY18023ND6759800102070220232023180022708                                                                                                                                                                                                                                                                                                                                                                                                                                                                                                                                                                                              
03766380706843675AD675906759000000198288001098000009071900018904970000001987006292023NYY18023ND6759800109070220232023180022709                                                                                                                                                                                                                                                                                                                                                                                                                                                                                                                                                                                              
03766390706843678AD675906759000000133008001028000009071900012782320000002151206292023NYY18023ND6759800102070220232023180022710                                                                                                                                                                                                                                                                                                                                                                                                                                                                                                                                                                                              
03766400706843681AD675906759000000161968001028000009071900016435120000001578606292023NYY18023ND6759800102070220232023180022711                                                                                                                                                                                                                                                                                                                                                                                                                                                                                                                                                                                              
03766410706843684AD675906759000000142748001028000009071900010739520000002487006292023NYY18023ND6759800102070220232023180022712                                                                                                                                                                                                                                                                                                                                                                                                                                                                                                                                                                                              
03766420706843687AD675906759000000142748001028000009071900010940690000001059806292023NYY18023ND6759800102070220232023180022713                                                                                                                                                                                                                                                                                                                                                                                                                                                                                                                                                                                              
03766430707141323AD675906759000000198288001098000009071231580027380000001243506292023NYY18023ND6759800109070220232023158002738                                                                                                                                                                                                                                                                                                                                                                                                                                                                                                                                                                                              
03766440707141326AD675906759000000198288001098000009071231650025200000001987006292023NYY18023ND6759800109070220232023165002520                                                                                                                                                                                                                                                                                                                                                                                                                                                                                                                                                                                              
03766450709410002BH6759067590000003284780013580000090170630202318123000000000025602    0000090001390010N8001356759C07022023039                                                                                                                                                                                                                                                                                                                                                                                                                                                                                                                                                                                              
03766460709410003DT67590675900000032847800135800000010180013524001193181900013900091063020230000000054018123000000000025602407535XXXXXX8900       VK04VS111111111   NYV1 A E383181181833581N840000000000540PHPF00    90DNDAYDREAMS SMOKE WORLD LLC864899    VD84000000000540 N  599378480415                            000000000+                F PF 08165                     000000000  N000000000       0000000000000.00 0000000.00   0000000.00                             000000000000000                                                                                                                                                     01418 F000000000000 0000000000000.14     01600 00500                  
03766470709410001G2675906759000000328478001358000000101MCALLEN                  TX           5 P                00                                      NNNN00 N 00                   000000000000                                                                   78480415                                                                                                                                                                                                                                                                                                                                                                                                                                               
03766480709410004DT67590675900000032847800135800000033080013576759003181900013900013062920230000000097218123000000000025602430754XXXXXX3929                         NY 2 0 N               N840000000000972      IL  05DNDAYDREAMS SMOKE WORLD LLC640261    DB84000000000972 N  599378480415                            000000000+                     09590                                N          279   0000000000000.00 0000000.00   0000000.00                             000000000000000                                                                                                                                                     01418  000000000000 0000000000000.23     00800 00000                  
03766490709410001G2675906759000000328478001358000000330MCALLEN                  TX           5 D                00                                      NNNN                          000000000000                                                                   78480415                                                                                                                                                                                                                                                                                                                                                                                                                                               
03766500709410005DT67590675900000032847800135800000033080013576759003181900013900021062920230000000487018123000000000025602407535XXXXXX7985                         NY42 0 N               N840000000004870      IL  90DNDAYDREAMS SMOKE WORLD LLC319433    DB84000000004870 N  599378480415                            000000000+                     09576                                N          346   0000000000000.00 0000000.00   0000000.00                             000000000000000                                                                                                                                                     01418  000000000000 0000000000000.71     01150 00000                  
03766510709410001G2675906759000000328478001358000000330MCALLEN                  TX           5 P                00                                      NNNN                          000000000000                                                                   78480415                                                                                                                                                                                                                                                                                                                                                                                                                                               
03766520709410006DT67590675900000032847800135800000033080013576759003181900013900039062920230000000298618123000000000025602442742XXXXXX7332                         NY 2 0 N               N840000000002986      IL  05DNDAYDREAMS SMOKE WORLD LLC040015    DB84000000002986 N  599378480415                            000000000+                     09580                                Y          342   0000000000000.00 0000000.00   0000000.00                             000000000000000                                                                                                                                                     01418  000000000000 0000000000000.23     00050 00000                  
03766530709410001G2675906759000000328478001358000000330MCALLEN                  TX           5 D                00                                      NNNN                          000000000000                                                                   78480415                                                                                                                                                                                                                                                                                                                                                                                                                                               
03766540709410007DT67590675900000032847800135800000033080013576759003181900013900047062920230000000324618123000000000025602510805XXXXXX4794                         NY 2 0 N               N840000000003246      IL  05DNDAYDREAMS SMOKE WORLD LLC044920    DB84000000003246 N  599378480415                            000000000+                     09580                                1          342   0000000000000.00 0000000.00   0000000.00                             000000000000000                                                                                                                                                     01418  000000000000 0000000000000.24     00050 00000                  
03766550709410001G2675906759000000328478001358000000330MCALLEN                  TX           5 D                00                                      NNNN                          000000000000                                                                   78480415                                                                                                                                                                                                                                                                                                                                                                                                                                               
03766560709410008DT67590675900000032847800135800000033080013576759003181900013900054062920230000000281318123000000000025602467010XXXXXX9377                         NY 2 0 N               N840000000002813      IL  05DNDAYDREAMS SMOKE WORLD LLC873096    DB84000000002813 N  599378480415                            000000000+                     09580                                Y          342   0000000000000.00 0000000.00   0000000.00                             000000000000000                                                                                                                                                     01418  000000000000 0000000000000.23     00050 00000                  
03766570709410001G2675906759000000328478001358000000330MCALLEN                  TX           5 D                00                                      NNNN                          000000000000                                                                   78480415                                                                                                                                                                                                                                                                                                                                                                                                                                               
03766580709410009DT67590675900000032847800135800000033080013576759003181900013900062062920230000000421318123000000000025602408138XXXXXX4501                         NY 2 0 N               N840000000004213      IL  07DNDAYDREAMS SMOKE WORLD LLC822760    DB84000000004213 N  599378480415                            000000000+                     09576                                N          346   0000000000000.00 0000000.00   0000000.00                             000000000000000                                                                                                                                                     01418  000000000000 0000000000000.63     01150 00000                  
03766590709410001G2675906759000000328478001358000000330MCALLEN                  TX           5 P                00                                      NNNN                          000000000000                                                                   78480415                                                                                                                                                                                                                                                                                                                                                                                                                                               
03766600709410010DT67590675900000032847800135800000033080013576759003181900013900070062920230000000032418123000000000025602434258XXXXXX5370                         NY 2 0 N               N840000000000324      IL  07DNDAYDREAMS SMOKE WORLD LLC064181    DB84000000000324 N  599378480415                            000000000+                     09580                                Y          342   0000000000000.00 0000000.00   0000000.00                             000000000000000                                                                                                                                                     01418  000000000000 0000000000000.22     00050 00000                  
03766610709410001G2675906759000000328478001358000000330MCALLEN                  TX           5 D                00                                      NNNN                          000000000000                                                                   78480415                                                                                                                                                                                                                                                                                                                                                                                                                                               
03766620709410011DT67590675900000032847800135800000033080013576759003181900013900088062920230000000477318123000000000025602461046XXXXXX4769                         NY 2 0 N               N840000000004773      IL  07DNDAYDREAMS SMOKE WORLD LLC064022    DB84000000004773 N  599378480415                            000000000+                     09580                                Y          342   0000000000000.00 0000000.00   0000000.00                             000000000000000                                                                                                                                                     01418  000000000000 0000000000000.24     00050 00000                  
03766630709410001G2675906759000000328478001358000000330MCALLEN                  TX           5 D                00                                      NNNN                          000000000000                                                                   78480415                                                                                                                                                                                                                                                                                                                                                                                                                                               
03766640709410012DT67590675900000032847800135800000033080013576759003181900013900104063020230000000086518123000000000025602467010XXXXXX5897                         NY 2 0 N               N840000000000865      IL  07DNDAYDREAMS SMOKE WORLD LLC560407    DB84000000000865 N  599378480415                            000000000+                     09580                                Y          342   0000000000000.00 0000000.00   0000000.00                             000000000000000                                                                                                                                                     01418  000000000000 0000000000000.22     00050 00000                  
03766650709410001G2675906759000000328478001358000000330MCALLEN                  TX           5 D                00                                      NNNN                          000000000000                                                                   78480415                                                                                                                                                                                                                                                                                                                                                                                                                                               
03766660709410013BH6759067590000003284780013580000090170630202318123000000000026852    0000090001110016N8001356759C07022023011                                                                                                                                                                                                                                                                                                                                                                                                                                                                                                                                                                                              
03766670709410014DT67590675900000032847800135800000010180013524001193181900011100017062920230000000041918123000000000026852440393XXXXXX5758       VK04VS111111111   NYV1 A E303180573642839N840000000000419N93X00    05DNDAYDREAMS SMOKE WORLD LLC275902    VD84000000000419 N  599378639007                            000000000+                F PF 08165                     000000000  N000000000       0000000000000.00 0000000.00   0000000.00                             000000000000000                                                                                                                                                     01418 F000000000000 0000000000000.12     01600 00500                  
03766680709410001E167590675900000032847800135800000010100E0F8C8003F 00000000000.004040404040404040404040404040404040404040404040404006011203A0A000000000000000000000404040404040404040404040404040  0000084018008000008000230629FB1EE3A90C06D63FD70944A1404040400840A0000000031010000000000000000000AFEEFED2599F6E2730300000000000004040405E40404040 000000004.19 000000000.005E00000000000000000000    80                                                                                                                                                                                                                                                                                                                  
03766690709410002G2675906759000000328478001358000000101MCALLEN                  TX           5 P                00                                      NNNN00 N 00                   000000000000                                                                   78639007                                                                                                                                                                                                                                                                                                                                                                                                                                               
03766700709410015DT67590675900000032847800135800000010180013524001193181900011100025062920230000000216318123000000000026852409637XXXXXX0985       VS11    0001111   NYV1 A E383180690859174N84000000000216335L600    07DNDAYDREAMS SMOKE WORLD LLC051115    VD84000000002163 N  599378639007                            000000000+                F DF 10433                     000000000  Y000000000 338   0000000000000.00 0000000.00   0000000.00                             000000000000000                                                                                                                                                     01418 A000000000000 0000000000000.23     00050 02200                  
03766710709410001E1675906759000000328478001358000000101004040400001 00000000000.00404040404040404040404040404040404040404040404040401F420131A00000000010030273000000004000000000000000000000000000  00000840006000000000002306299B38FDE8E1732D00461CB72E404040400840A000000003101000000000000000000078508EB30086000000000000000000004040404040404040 000000021.63 000000000.004040400000000000000000    80                                                                                                                                                                                                                                                                                                                  
03766720709410002G2675906759000000328478001358000000101MCALLEN                  TX           5 D                00                                      NNNN00 N 00                   000000000000                                                                   78639007                                                                                                                                                                                                                                                                                                                                                                                                                                               
03766730709410016DT67590675900000032847800135800000010180013577287283181900011100035062920230000000106418123000000000026852517800XXXXXX5225       MS02WI09          NY 1 0 AMCSLZU1D50629  N840000000001064          05DNDAYDREAMS SMOKE WORLD LLC029584    MC84000000001064 N  599378639007                            000000000+M10101C5434C    MCS  00015                     000000000  N                0000000000000.00 0000000.00   0000000.00                             000000000000000                                                                                                                                                   B101418  000000000000 0000000000000.28     01650 01000                  
03766740709410001E167590675900000032847800135800000010100E0F8C80044 00000000000.00404040404040404040404040404040404040404040404040401710A04003220000000000000000000000FF00000000000000000000000000  0001084039000000088000230629C26254080D9F55C4B2C075FF404040400840A0000000041010000000000000000000CBDC69CE7EB56BD200120000000000004040401E40404040 000000010.64 000000000.001E03000000000000000000    80                                                                                                                                                                                                                                                                                                                  
03766750709410002G2675906759000000328478001358000000101MCALLEN                  TX           5 S                                                        NNNN              000000000000000000000000                        7                                          78639007                                                                                                                                                                                                                                                                                                                                                                                                                                               
03766760709410017DT67590675900000032847800135800000010180013577287283181900011100084062920230000000249918123000000000026852517805XXXXXX8978       MS02WI09          NY 1 0 AMPLQWS3SL0629  N840000000002499          05DNDAYDREAMS SMOKE WORLD LLC06171B    MC84000000002499 N  599378639007                            000000000+M10101C5434C    MPL  00353                     000000000  N                0000000000000.00 0000000.00   0000000.00                             000000000000000                                                                                                                                                   B101418  000000000000 0000000000000.55     01800 01000                  
03766770709410001E167590675900000032847800135800000010100E0F8C80015 00000000000.00404040404040404040404040404040404040404040404040400110A04001220000000000000000000000FF00000000000000000000000000  00010840390000000080002306290D50B7D7C6363C10B114D2AA404040400840A0000000041010000000000000000000E6A04DC099522D7E00120000000000004040401E40404040 000000024.99 000000000.001E03000000000000000000    80                                                                                                                                                                                                                                                                                                                  
03766780709410002G2675906759000000328478001358000000101MCALLEN                  TX           5 L                                                        NNNN              000000000000000000000000                        7                                          78639007                                                                                                                                                                                                                                                                                                                                                                                                                                               
03766790709410018DT67590675900000032847800135800000010180013524001193181900011100090062920230000000086518123000000000026852409947XXXXXX4690       VK04VS111111111   NYV1 A E303181089358175N840000000000865N85L00    07DNDAYDREAMS SMOKE WORLD LLC052822    VD84000000000865 N  599378639007                            000000000+                F DF 10439                     000000000  Y000000000 331   0000000000000.00 0000000.00   0000000.00                             000000000000000                                                                                                                                                     01418 F000000000000 0000000000000.22     00050 02200                  
03766800709410001E1675906759000000328478001358000000101004040400036 00000000000.00404040404040404040404040404040404040404040404040401F4A0132A00000000010030273000000004000000000000000000000000000  000008400040000000000023062940855EF8A636B61D3CC76A15404040400840A0000000031010000000000000000000DC6EEECF3A7DB82F30300000000000004040404040404040 000000008.65 000000000.004040400000000000000000    80                                                                                                                                                                                                                                                                                                                  
03766810709410002G2675906759000000328478001358000000101MCALLEN                  TX           5 D                00                                      NNNN00 N 00                   000000000000                                                                   78639007                                                                                                                                                                                                                                                                                                                                                                                                                                               
03766820709410019DT67590675900000032847800135800000010180013524001193181900011100116062920230000000216418123000000000026852448101XXXXXX8977       VS11    0001111   NYV1 A E583181126504156N840000000002164MSLX00    05DNDAYDREAMS SMOKE WORLD LLC664626    VD84000000002164 N  599378639007                            000000000+                F DF 00381                     000000000  N000000000       0000000000000.00 0000000.00   0000000.00                             000000000000000                                                                                                                                                     01418 A000000000000 0000000000000.32     00800 01500                  
03766830709410001E167590675900000032847800135800000010100E0F8C802AA 00000000000.004040404040404040404040404040404040404040404040404006011203A0A000000000000000000000404040404040404040404040404040  00010840180080000080002306295D8905B11DA2EC4250778185404040400840A00000000310100000000000000000007C1038B30082000000000000000000004040405E40404040 000000021.64 000000000.005E00000000000000000000    80                                                                                                                                                                                                                                                                                                                  
03766840709410002G2675906759000000328478001358000000101MCALLEN                  TX           5 D                00                                      NNNN00 N 00                   000000000000                                                                   78639007                                                                                                                                                                                                                                                                                                                                                                                                                                               
03766850709410020DT67590675900000032847800135800000033080013576759003181900011100046062920230000000023518123000000000026852423259XXXXXX5979                         NY 2 0 N               N840000000000235      IL  05DNDAYDREAMS SMOKE WORLD LLC506351    DB84000000000235 N  599378639007                            000000000+                     09586                                N          275   0000000000000.00 0000000.00   0000000.00                             000000000000000                                                                                                                                                     01418  000000000000 0000000000000.14     01700 00000                  
03766860709410001G2675906759000000328478001358000000330MCALLEN                  TX           5 D                00                                      NNNN                          000000000000                                                                   78639007                                                                                                                                                                                                                                                                                                                                                                                                                                               
03766870709410021DT67590675900000032847800135800000033080013576759003181900011100053062920230000000324618123000000000026852517279XXXXXX7103                         NY42 0 N               N840000000003246      ME  05DNDAYDREAMS SMOKE WORLD LLC264002    DB84000000003246 N  599378639007                            000000000+                     09597                                N                0000000000000.00 0000000.00   0000000.00                             000000000000000                                                                                                                                                     01418  000000000000 0000000000000.44     00900 00000                  
03766880709410001G2675906759000000328478001358000000330MCALLEN                  TX           5 D                00                                      NNNN                          000000000000                                                                   78639007                                                                                                                                                                                                                                                                                                                                                                                                                                               
03766890709410022DT67590675900000032847800135800000033080013576759003181900011100061062920230000000037118123000000000026852434258XXXXXX1837                         NY 2 0 N               N840000000000371      IL  05DNDAYDREAMS SMOKE WORLD LLC012580    DB84000000000371 N  599378639007                            000000000+                     09580                                Y          342   0000000000000.00 0000000.00   0000000.00                             000000000000000                                                                                                                                                     01418  000000000000 0000000000000.22     00050 00000                  
03766900709410001G2675906759000000328478001358000000330MCALLEN                  TX           5 D                00                                      NNNN                          000000000000                                                                   78639007                                                                                                                                                                                                                                                                                                                                                                                                                                               
03766910709410023DT67590675900000032847800135800000033080013576759003181900011100079062920230000000010718123000000000026852409177XXXXXX4487                         NY 2 0 N               N840000000000107      IL  05DNDAYDREAMS SMOKE WORLD LLC071787    DB84000000000107 N  599378639007                            000000000+                     09573                                N          121   0000000000000.00 0000000.00   0000000.00                             000000000000000                                                                                                                                                     01418  000000000000 0000000000000.16     00800 00000                  
03766920709410001G2675906759000000328478001358000000330MCALLEN                  TX           5 D                00                                      NNNN                          000000000000                                                                   78639007                                                                                                                                                                                                                                                                                                                                                                                                                                               
03766930709410024DT67590675900000032847800135800000033080013576759003181900011100103062920230000000357118123000000000026852434258XXXXXX4691                         NY 2 0 N               N840000000003571      IL  05DNDAYDREAMS SMOKE WORLD LLC035239    DB84000000003571 N  599378639007                            000000000+                     09580                                Y          342   0000000000000.00 0000000.00   0000000.00                             000000000000000                                                                                                                                                     01418  000000000000 0000000000000.24     00050 00000                  
03766940709410001G2675906759000000328478001358000000330MCALLEN                  TX           5 D                00                                      NNNN                          000000000000                                                                   78639007                                                                                                                                                                                                                                                                                                                                                                                                                                               
03766950709410025DT67590675900000032847800135800000033080013576759003181900011100129062920230000000075018123000000000026852555753XXXXXX4258                         NY 2 0 N               N840000000000750      IL  05DNDAYDREAMS SMOKE WORLD LLC098805    DB84000000000750 N  599378639007                            000000000+                     09573                                N          121   0000000000000.00 0000000.00   0000000.00                             000000000000000                                                                                                                                                     01418  000000000000 0000000000000.21     00800 00000                  
03766960709410001G2675906759000000328478001358000000330MCALLEN                  TX           5                  00                                      NNNN                          000000000000                                                                   78639007                                                                                                                                                                                                                                                                                                                                                                                                                                               
03766970709410026DT67590675900000032847800135800000033080013576759003181900011100137063020230000000200018123000000000026852408138XXXXXX3724                         NY 2 0 N               N840000000002000      IL  07DNDAYDREAMS SMOKE WORLD LLC649960    DB84000000002000 N  599378639007                            000000000+                     09576                                N          346   0000000000000.00 0000000.00   0000000.00                             000000000000000                                                                                                                                                     01418  000000000000 0000000000000.38     01150 00000                  
03766980709410001G2675906759000000328478001358000000330MCALLEN                  TX           5 P                00                                      NNNN                          000000000000                                                                   78639007                                                                                                                                                                                                                                                                                                                                                                                                                                               
03766990709410027DT67590675900000032847800135800000033080013576759003181900011100145063020230000000054118123000000000026852423223XXXXXX9168                         NY 2 0 N               N840000000000541      IL  05DNDAYDREAMS SMOKE WORLD LLC033418    DB84000000000541 N  599378639007                            000000000+                     09573                                N          121   0000000000000.00 0000000.00   0000000.00                             000000000000000                                                                                                                                                     01418  000000000000 0000000000000.19     00800 00000                  
03767000709410001G2675906759000000328478001358000000330MCALLEN                  TX           5 D                00                                      NNNN                          000000000000                                                                   78639007                                                                                                                                                                                                                                                                                                                                                                                                                                               
03767010709410028DT67590675900000032847800135800000033080013576759003181900011100152063020230000000328818123000000000026852559915XXXXXX8071                         NY41 0 N               N840000000003288      ME  07DNDAYDREAMS SMOKE WORLD LLC100279    DB84000000003288 N  599378639007                            000000000+                     09601                                1          MA1   0000000000000.00 0000000.00   0000000.00                             000000000000000                                                                                                                                                     01418  000000000000 0000000000000.24     00050 00000                  
03767020709410001G2675906759000000328478001358000000330MCALLEN                  TX           5 D                00                                      NNNN                          000000000000                                                                   78639007                                                                                                                                                                                                                                                                                                                                                                                                                                               
03767030709410029DT67590675900000032847800135800000033080013576759003181900011100160063020230000000356918123000000000026852408138XXXXXX5211                         NY 2 0 N               N840000000003569      IL  07DNDAYDREAMS SMOKE WORLD LLC109219    DB84000000003569 N  599378639007                            000000000+                     09576                                N          346   0000000000000.00 0000000.00   0000000.00                             000000000000000                                                                                                                                                     01418  000000000000 0000000000000.56     01150 00000                  
03767040709410001G2675906759000000328478001358000000330MCALLEN                  TX           5 P                00                                      NNNN                          000000000000                                                                   78639007                                                                                                                                                                                                                                                                                                                                                                                                                                               
03767050709410030BH6759067590000003284780013580000090170630202318123000000000044638    0000090001110014N8001356759C07022023011                                                                                                                                                                                                                                                                                                                                                                                                                                                                                                                                                                                              
03767060709410031DT67590675900000032847800135800000010180013573011003181900011100070062920230000000172918123000000000044638379365XXXXX7758                          NY 1 0 N005530841716302N840000000001729          05DNDAYDREAMS SMOKE WORLD LLC743029    AM84000000001729 N  599378639041                            000000000+51010155434C 258     11261                     000000000                   0000000000000.00 0000000.00   0000000.00                             000000000000000 61248972086759675900000032847 DAYDREAMS SMOKE WORLD LLC900 N 10TH ST            9563387102      78501     DAYDREAMSSMOKEWORLD@GMAIL.COM             01418  000000000000 0000000000000.38     01600 00000                  
03767070709410001E167590675900000032847800135800000010100E0F8C80199 00000000000.004040404040404040404040404040404040404040404040404006010103A0A006000000000000000000404040404040404040404040404040  000108403D000000008000230629B272C2C42C671B3216FD509D404040400840A0000000250104020000000000000000F9E97058C597119730300000000000004040405E40404040 000000017.29 000000000.005E03000000000000000000    80                                                                                                                                                                                                                                                                                                                  
03767080709410002G2675906759000000328478001358000000101MCALLEN                  TX           0                  00                                      NNNN                          000000000000                                                                   78639041                                                                                                                                                                                                                                                                                                                                                                                                                                               
03767090709410032DT67590675900000032847800135800000033080013576759003181900011100012062920230000000178518123000000000044638440393XXXXXX1720                         NY 2 0 N               N840000000001785      IL  05DNDAYDREAMS SMOKE WORLD LLC948031    DB84000000001785 N  599378639041                            000000000+                     09576                                N          346   0000000000000.00 0000000.00   0000000.00                             000000000000000                                                                                                                                                     01418  000000000000 0000000000000.36     01150 00000                  
03767100709410001G2675906759000000328478001358000000330MCALLEN                  TX           5 P                00                                      NNNN                          000000000000                                                                   78639041                                                                                                                                                                                                                                                                                                                                                                                                                                               
03767110709410033DT67590675900000032847800135800000033080013576759003181900011100020062920230000000238018123000000000044638461046XXXXXX0226                         NY 2 0 N               N840000000002380      IL  05DNDAYDREAMS SMOKE WORLD LLC001012    DB84000000002380 N  599378639041                            000000000+                     09580                                Y          342   0000000000000.00 0000000.00   0000000.00                             000000000000000                                                                                                                                                     01418  000000000000 0000000000000.23     00050 00000                  
03767120709410001G2675906759000000328478001358000000330MCALLEN                  TX           5 D                00                                      NNNN                          000000000000                                                                   78639041                                                                                                                                                                                                                                                                                                                                                                                                                                               
03767130709410034DT67590675900000032847800135800000033080013576759003181900011100038062920230000000324618123000000000044638441707XXXXXX9740                         NY 2 0 N               N840000000003246      IL  07DNDAYDREAMS SMOKE WORLD LLC517201    DB84000000003246 N  599378639041                            000000000+                     09576                                N          346   0000000000000.00 0000000.00   0000000.00                             000000000000000                                                                                                                                                     01418  000000000000 0000000000000.52     01150 00000                  
03767140709410001G2675906759000000328478001358000000330MCALLEN                  TX           5 P                00                                      NNNN                          000000000000                                                                   78639041                                                                                                                                                                                                                                                                                                                                                                                                                                               
03767150709410035DT67590675900000032847800135800000033080013576759003181900011100046062920230000000324618123000000000044638442756XXXXXX6848                         NY 2 0 N               N840000000003246      IL  07DNDAYDREAMS SMOKE WORLD LLC022513    DB84000000003246 N  599378639041                            000000000+                     09580                                Y          342   0000000000000.00 0000000.00   0000000.00                             000000000000000                                                                                                                                                     01418  000000000000 0000000000000.24     00050 00000                  
03767160709410001G2675906759000000328478001358000000330MCALLEN                  TX           5 D                00                                      NNNN                          000000000000                                                                   78639041                                                                                                                                                                                                                                                                                                                                                                                                                                               
03767170709410036DT67590675900000032847800135800000033080013576759003181900011100053062920230000000032418123000000000044638434258XXXXXX0256                         NY 2 0 N               N840000000000324      IL  05DNDAYDREAMS SMOKE WORLD LLC029439    DB84000000000324 N  599378639041                            000000000+                     09580                                Y          342   0000000000000.00 0000000.00   0000000.00                             000000000000000                                                                                                                                                     01418  000000000000 0000000000000.22     00050 00000                  
03767180709410001G2675906759000000328478001358000000330MCALLEN                  TX           5 D                00                                      NNNN                          000000000000                                                                   78639041                                                                                                                                                                                                                                                                                                                                                                                                                                               
03767190709410037DT67590675900000032847800135800000033080013576759003181900011100061062920230000000108118123000000000044638414446XXXXXX3296                         NY 2 0 N               N840000000001081      IL  05DNDAYDREAMS SMOKE WORLD LLC500609    DB84000000001081 N  599378639041                            000000000+                     09590                                N          279   0000000000000.00 0000000.00   0000000.00                             000000000000000                                                                                                                                                     01418  000000000000 0000000000000.24     00800 00000                  
03767200709410001G2675906759000000328478001358000000330MCALLEN                  TX           5 D                00                                      NNNN                          000000000000                                                                   78639041                                                                                                                                                                                                                                                                                                                                                                                                                                               
03767210709410038DT67590675900000032847800135800000033080013576759003181900011100087062920230000000410618123000000000044638551791XXXXXX3369                         NY42 0 N               N840000000004106      ME  05DNDAYDREAMS SMOKE WORLD LLC092054    DB84000000004106 N  599378639041                            000000000+                     09601                                1          MA1   0000000000000.00 0000000.00   0000000.00                             000000000000000                                                                                                                                                     01418  000000000000 0000000000000.24     00050 00000                  
03767220709410001G2675906759000000328478001358000000330MCALLEN                  TX           5 D                00                                      NNNN                          000000000000                                                                   78639041                                                                                                                                                                                                                                                                                                                                                                                                                                               
03767230709410039DT67590675900000032847800135800000033080013576759003181900011100095062920230000000064818123000000000044638420413XXXXXX8111                         NY 2 0 N               N840000000000648      IL  05DNDAYDREAMS SMOKE WORLD LLC049118    DB84000000000648 N  599378639041                            000000000+                     09573                                N          121   0000000000000.00 0000000.00   0000000.00                             000000000000000                                                                                                                                                     01418  000000000000 0000000000000.20     00800 00000                  
03767240709410001G2675906759000000328478001358000000330MCALLEN                  TX           5 D                00                                      NNNN                          000000000000                                                                   78639041                                                                                                                                                                                                                                                                                                                                                                                                                                               
03767250709410040DT67590675900000032847800135800000033080013576759003181900011100103062920230000000032218123000000000044638548974XXXXXX1945                         NY41 0 N               N840000000000322      ME  07DNDAYDREAMS SMOKE WORLD LLC034461    DB84000000000322 N  599378639041                            000000000+                     09597                                N                0000000000000.00 0000000.00   0000000.00                             000000000000000                                                                                                                                                     01418  000000000000 0000000000000.18     00900 00000                  
03767260709410001G2675906759000000328478001358000000330MCALLEN                  TX           5 D                00                                      NNNN                          000000000000                                                                   78639041                                                                                                                                                                                                                                                                                                                                                                                                                                               
03767270709410041DT67590675900000032847800135800000033080013576759003181900011100111062920230000000280818123000000000044638411606XXXXXX1628                         NY 2 0 N               N840000000002808      IL  05DNDAYDREAMS SMOKE WORLD LLC785575    DB84000000002808 N  599378639041                            000000000+                     09590                                N          279   0000000000000.00 0000000.00   0000000.00                             000000000000000                                                                                                                                                     01418  000000000000 0000000000000.37     00800 00000                  
03767280709410001G2675906759000000328478001358000000330MCALLEN                  TX           5 D                00                                      NNNN                          000000000000                                                                   78639041                                                                                                                                                                                                                                                                                                                                                                                                                                               
03767290709410042DT67590675900000032847800135800000033080013576759003181900011100129062920230000000043218123000000000044638434258XXXXXX7034                         NY 2 0 N               N840000000000432      IL  07DNDAYDREAMS SMOKE WORLD LLC031847    DB84000000000432 N  599378639041                            000000000+                     09580                                Y          342   0000000000000.00 0000000.00   0000000.00                             000000000000000                                                                                                                                                     01418  000000000000 0000000000000.22     00050 00000                  
03767300709410001G2675906759000000328478001358000000330MCALLEN                  TX           5 D                00                                      NNNN                          000000000000                                                                   78639041                                                                                                                                                                                                                                                                                                                                                                                                                                               
03767310709410043DT67590675900000032847800135800000033080013576759003181900011100137062920230000002201418123000000000044638474472XXXXXX2651                         NY 2 0 N               N840000000022014      IL  05DNDAYDREAMS SMOKE WORLD LLC113930    DB84000000022014 N  599378639041                            000000000+                     09580                                Y          342   0000000000000.00 0000000.00   0000000.00                             000000000000000                                                                                                                                                     01418  000000000000 0000000000000.33     00050 00000                  
03767320709410001G2675906759000000328478001358000000330MCALLEN                  TX           5 D                00                                      NNNN                          000000000000                                                                   78639041                                                                                                                                                                                                                                                                                                                                                                                                                                               
03767330709410044DT67590675900000032847800135800000033080013576759003181900011100145063020230000000051718123000000000044638408138XXXXXX8747                         NY 2 0 N               N840000000000517      IL  07DNDAYDREAMS SMOKE WORLD LLC937600    DB84000000000517 N  599378639041                            000000000+                     09576                                N          346   0000000000000.00 0000000.00   0000000.00                             000000000000000                                                                                                                                                     01418  000000000000 0000000000000.21     01150 00000                  
03767340709410001G2675906759000000328478001358000000330MCALLEN                  TX           5 P                00                                      NNNN                          000000000000                                                                   78639041                                                                                                                                                                                                                                                                                                                                                                                                                                               
03767350709410045BH6759067590000003976880014580000090170630202318123000000000000421    0000090001020003N8001456759C07022023002                                                                                                                                                                                                                                                                                                                                                                                                                                                                                                                                                                                              
03767360709410046DT67590675900000039768800145800000010180014524001193181900010200016063020230000000032118123000000000000421404657XXXXXX4579       VK04VS111111111   NYV1 A E463181674915255N8400000000003212VGT00    05DNDELTA ELEV8 LLC          030032    VS84000000000321 N  599978542082                            000000000+                A CA 12110                     000000000  N000000000 493   0000000000000.00 0000000.00   0000000.00                             000000000000000                                                                                                                                                     01418 F000000000000 0000000000000.15     01510 01000                  
03767370709410001E167590675900000039768800145800000010100E0F8C8000F 00000000000.004040404040404040404040404040404040404040404040404006011203A0A000000000000000000000404040404040404040404040404040  0000084018008080008000230630009C33187F62FC964C7CD6E9404040400840A0000000031010000000000000000000DF85A35F0086000000000000000000004040401E40404040 000000003.21 000000000.001E00000000000000000000    80                                                                                                                                                                                                                                                                                                                  
03767380709410002G2675906759000000397688001458000000101WILMINGTON               NC           5 C                00                                      NNNN00 N 00                   000000000000                                                                   78542082                                                                                                                                                                                                                                                                                                                                                                                                                                               
03767390709410047DT67590675900000039768800145800000010180014524001193181900010200024063020230000000005018123000000000000421404657XXXXXX4579       VK04VS111111111   NYV1 A E583181682928169N840000000000050BN9G00    05DNDELTA ELEV8 LLC          030942    VS84000000000050 N  599978542082                            000000000+                A CA 12110                     000000000  N000000000 493   0000000000000.00 0000000.00   0000000.00                             000000000000000                                                                                                                                                     01418 F000000000000 0000000000000.11     01510 01000                  
03767400709410001E167590675900000039768800145800000010100E0F8C80010 00000000000.004040404040404040404040404040404040404040404040404006011203A0A000000000000000000000404040404040404040404040404040  0000084018008080008000230630C1AA30C70F94DB3998F25D3E404040400840A0000000031010000000000000000000C456C04C0086000000000000000000004040401E40404040 000000000.50 000000000.001E00000000000000000000    80                                                                                                                                                                                                                                                                                                                  
03767410709410002G2675906759000000397688001458000000101WILMINGTON               NC           5 C                00                                      NNNN00 N 00                   000000000000                                                                   78542082                                                                                                                                                                                                                                                                                                                                                                                                                                               
03767420709410048DT67590675900000039768800145800000033080014576759003181900010200037063020230000000005018123000000000000421432739XXXXXX6261                         NY 2 0 N               N840000000000050      IL  05DNDELTA ELEV8 LLC          550515    DB84000000000050 N  599978542082                            000000000+                     09580                                Y          342   0000000000000.00 0000000.00   0000000.00                             000000000000000                                                                                                                                                     01418  000000000000 0000000000000.22     00050 00000                  
03767430709410001G2675906759000000397688001458000000330WILMINGTON               NC           5 D                00                                      NNNN                          000000000000                                                                   78542082                                                                                                                                                                                                                                                                                                                                                                                                                                               
03767440709410049BH6759067590000000288180088880000090170630202318123000000000256796    0000090001500043N8008886759C07022023050                                                                                                                                                                                                                                                                                                                                                                                                                                                                                                                                                                                              
03767450709410050DT67590675900000002881800888800000010180088824001193181900015000015063020230000001207318123000000000256796419090XXXXXX6665       PS01    0000000   NYV1 J N383181517283170N840000000012073SHT400    01DNHAPPY HIPPIE             472055    VD84000000012073 N  549976487169                            000000000+                F DF 00425                     000000000  N000000010       0000000000000.00 0000000.00   0000000.00                             000000000000000                                                                                                                                                     01418  000000000000 0000000000002.31     01750 02000                  
03767460709410001G2675906759000000028818008888000000101SEVIERVILLE              TN           5 D                00                                      NNNN00 N 00                   000000000000                                                                   76487169                                                                                                                                                                                                                                                                                                                                                                                                                                               
03767470709410051DT67590675900000002881800888800000010180088824001193181900015000023063020230000000896618123000000000256796422921XXXXXX9409       VS11    0001111   NYV1 A E303181521922031N84000000000896657S800    05DNHAPPY HIPPIE             037793    VD84000000008966 N  549976487169                            000000000+                F DF 00381                     000000000  N000000000       0000000000000.00 0000000.00   0000000.00                             000000000000000                                                                                                                                                     01418 A000000000000 0000000000000.87     00800 01500                  
03767480709410001E167590675900000002881800888800000010100E0F8C80283 00000000000.004040404040404040404040404040404040404040404040404006011203A08000000000000000000000404040404040404040404040404040  00000840180080800080002306307D1BEA340BEC0955A8A4FE6C404040400840A0000000031010000000000000000000579DB9480382000000000000000000004040401E40404040 000000089.66 000000000.001E00000000000000000000    80                                                                                                                                                                                                                                                                                                                  
03767490709410002G2675906759000000028818008888000000101SEVIERVILLE              TN           5 D                00                                      NNNN00 N 00                   000000000000                                                                   76487169                                                                                                                                                                                                                                                                                                                                                                                                                                               
03767500709410052DT67590675900000002881800888800000010180088824001193181900015000031063020230000001207318123000000000256796445101XXXXXX7152       VS11    0001111   NYV1 A E463181533857928N84000000001207358M800    05DNHAPPY HIPPIE             079304    VD84000000012073 N  549976487169                            000000000+                F DF 10433                     000000000  Y000000000 338   0000000000000.00 0000000.00   0000000.00                             000000000000000                                                                                                                                                     01418 A000000000000 0000000000000.28     00050 02200                  
03767510709410001E167590675900000002881800888800000010100E0F8C800F7 00000000000.004040404040404040404040404040404040404040404040404006011203A00000000000000000000000404040404040404040404040404040  0001084018008080008000230630999F686714860E2A4A2DE8E9404040400840A00000000310100000000000000000006EA564530082000000000000000000004040401E40404040 000000120.73 000000000.001E00000000000000000000    80                                                                                                                                                                                                                                                                                                                  
03767520709410002G2675906759000000028818008888000000101SEVIERVILLE              TN           5 D                00                                      NNNN00 N 00                   000000000000                                                                   76487169                                                                                                                                                                                                                                                                                                                                                                                                                                               
03767530709410053DT67590675900000002881800888800000010180088824001193181900015000049063020230000001095018123000000000256796473702XXXXXX7425       VS11    0001111   NYV1 A E383181541909412N840000000010950GZ2K00    05DNHAPPY HIPPIE             072166    VD84000000010950 N  549976487169                            000000000+                F DF 10433                     000000000  Y000000000 338   0000000000000.00 0000000.00   0000000.00                             000000000000000                                                                                                                                                     01418 A000000000000 0000000000000.27     00050 02200                  
03767540709410001E167590675900000002881800888800000010100E0F8C80348 00000000000.004040404040404040404040404040404040404040404040404006061203A02000000000000000000000404040404040404040404040404040  0000084018008080008000230630EBC991686061EF87EB9356D5404040400840A0000000031010000000000000000000A05030909010301020200000000000004040401E40404040 000000109.50 000000000.001E00000000000000000000    80                                                                                                                                                                                                                                                                                                                  
03767550709410002G2675906759000000028818008888000000101SEVIERVILLE              TN           5 D                00                                      NNNN00 N 00                   000000000000                                                                   76487169                                                                                                                                                                                                                                                                                                                                                                                                                                               
03767560709410054DT67590675900000002881800888800000010180088877287283181900015000058063020230000000900718123000000000256796534996XXXXXX3830       MS02WI09          NY 1 0 AMDJI7Q1V60630  N840000000009007          07DNHAPPY HIPPIE             000944    MD84000000009007 N  549976487169                            000000000+M10101M1134C    MDJ  10815                     000000000  1                0000000000000.00 0000000.00   0000000.00                             000000000000000                                                                                                                                                   A101418  000000000000 0000000000000.27     00050 02200                  
03767570709410001E1675906759000000028818008888000000101000060C8002A 00000000000.00404040404040404040404040404040404040404040404040400314A541000200000000000FA405BB4300FF00000000000000000000000000  000008401B8000200080012306308E605340306C9FA251315D96404040400840A0000000041010000000000000000000404040404040404040404040404040404040400140404040 000000090.07 000000000.000100020000000000000000    80                                                                                                                                                                                                                                                                                                                  
03767580709410002G2675906759000000028818008888000000101SEVIERVILLE              TN           5 J                                                        NNNN              000000000000000000000000       03               C                                          76487169                                                                                                                                                                                                                                                                                                                                                                                                                                               
03767590709410055DT67590675900000002881800888800000010180088824001193181900015000064063020230000000245518123000000000256796415978XXXXXX3166       VS11    0001111   NYV1 A E303181550561014N840000000002455VZVM00    05DNHAPPY HIPPIE             057641    VD84000000002455 N  549976487169                            000000000+                F DF 10433                     000000000  Y000000000 338   0000000000000.00 0000000.00   0000000.00                             000000000000000                                                                                                                                                     01418 A000000000000 0000000000000.23     00050 02200                  
03767600709410001E167590675900000002881800888800000010100E0F8C800C3 00000000000.004040404040404040404040404040404040404040404040404006011203A0A000000000000000000000404040404040404040404040404040  0000084018008080008000230630149B0AD95A9BC3A4187E9BE1404040400840A0000000031010000000000000000000E78AA384E851098230300000000000004040401E40404040 000000024.55 000000000.001E00000000000000000000    80                                                                                                                                                                                                                                                                                                                  
03767610709410002G2675906759000000028818008888000000101SEVIERVILLE              TN           5 D                00                                      NNNN00 N 00                   000000000000                                                                   76487169                                                                                                                                                                                                                                                                                                                                                                                                                                               
03767620709410056DT67590675900000002881800888800000010180088824001193181900015000072063020230000000325818123000000000256796414724XXXXXX8791       VS11    0001111   NYV1 A E583181567770414N840000000003258Q7JW00    05DNHAPPY HIPPIE             61772D    VS84000000003258 N  549976487169                            000000000+                D CD 12113                     000000000  N000000000 499   0000000000000.00 0000000.00   0000000.00                             000000000000000                                                                                                                                                     01418 A000000000000 0000000000000.78     02100 01000                  
03767630709410001E167590675900000002881800888800000010100E0F8C800B7 00000000000.004040404040404040404040404040404040404040404040404006011203A0A000000000000000000000404040404040404040404040404040  00010840180080800080002306300B46B236D0609322892E7197404040400840A0000000031010000000000000000000282507440392000000000000000000004040401E40404040 000000032.58 000000000.001E00000000000000000000    80                                                                                                                                                                                                                                                                                                                  
03767640709410002G2675906759000000028818008888000000101SEVIERVILLE              TN           5 C                00                                      NNNN00 Y 00                   000000000000                                                                   76487169                                                                                                                                                                                                                                                                                                                                                                                                                                               
03767650709410057DT67590675900000002881800888800000010180088824001193181900015000080063020230000000197618123000000000256796480639XXXXXX8415       VS11    0001111   NYV1 A E583181570639192N840000000001976ZHGF00    05DNHAPPY HIPPIE             461467    VD84000000001976 N  549976487169                            000000000+                F DF 00381                     000000000  N000000000       0000000000000.00 0000000.00   0000000.00                             000000000000000                                                                                                                                                     01418 A000000000000 0000000000000.31     00800 01500                  
03767660709410001E167590675900000002881800888800000010100E0F8C80074 00000000000.004040404040404040404040404040404040404040404040404006011203A0A000000000000000000000404040404040404040404040404040  000008401800808000800023063063B270C19D509481A903E6BE404040400840A0000000031010000000000000000000908023100080000000000000000000004040401E40404040 000000019.76 000000000.001E00000000000000000000    80                                                                                                                                                                                                                                                                                                                  
03767670709410002G2675906759000000028818008888000000101SEVIERVILLE              TN           5 D                00                                      NNNN00 N 00                   000000000000                                                                   76487169                                                                                                                                                                                                                                                                                                                                                                                                                                               
03767680709410058DT67590675900000002881800888800000010180088824001193181900015000098063020230000000591418123000000000256796443041XXXXXX1765       VS11    0001111   NYV1 A E383181571363717N840000000005914MQZH00    05DNHAPPY HIPPIE             334030    VD84000000005914 N  549976487169                            000000000+                F DF 10433                     000000000  Y000000000 338   0000000000000.00 0000000.00   0000000.00                             000000000000000                                                                                                                                                     01418 A000000000000 0000000000000.25     00050 02200                  
03767690709410001E167590675900000002881800888800000010100E0F8C80081 00000000000.004040404040404040404040404040404040404040404040404006011203A0A000000000000000000000404040404040404040404040404040  000108401800808000800023063097234BE403C12C7F039ED312404040400840A0000000031010000000000000000000F87A150C0082000000000000000000004040401E40404040 000000059.14 000000000.001E00000000000000000000    80                                                                                                                                                                                                                                                                                                                  
03767700709410002G2675906759000000028818008888000000101SEVIERVILLE              TN           5 D                00                                      NNNN00 N 00                   000000000000                                                                   76487169                                                                                                                                                                                                                                                                                                                                                                                                                                               
03767710709410059DT67590675900000002881800888800000010180088824001193181900015000106063020230000000252218123000000000256796427153XXXXXX8631       VS11    0001111   NYV1 A E583181578978945N8400000000025224KQM00    05DNHAPPY HIPPIE             499764    VD84000000002522 N  549976487169                            000000000+                F DF 00381                     000000000  N000000000       0000000000000.00 0000000.00   0000000.00                             000000000000000                                                                                                                                                     01418 A000000000000 0000000000000.35     00800 01500                  
03767720709410001E167590675900000002881800888800000010100E0F8C80055 00000000000.004040404040404040404040404040404040404040404040404006011203A0A000000000000000000000404040404040404040404040404040  000008401800808000800023063032E36F93BF3F5021785A4A9F404040400840A000000003101000000000000000000080FBDB020382000000000000000000004040401E40404040 000000025.22 000000000.001E00000000000000000000    80                                                                                                                                                                                                                                                                                                                  
03767730709410002G2675906759000000028818008888000000101SEVIERVILLE              TN           5 D                00                                      NNNN00 N 00                   000000000000                                                                   76487169                                                                                                                                                                                                                                                                                                                                                                                                                                               
03767740709410060DT67590675900000002881800888800000010180088824001193181900015000114063020230000000987518123000000000256796445101XXXXXX8489       VS11    0001111   NYV1 A E303181594030665N840000000009875WKMC00    05DNHAPPY HIPPIE             045111    VD84000000009875 N  549976487169                            000000000+                F DF 10433                     000000000  Y000000000 338   0000000000000.00 0000000.00   0000000.00                             000000000000000                                                                                                                                                     01418 A000000000000 0000000000000.27     00050 02200                  
03767750709410001E167590675900000002881800888800000010100E0F8C8044C 00000000000.004040404040404040404040404040404040404040404040404006010A03A00000000000000000000000404040404040404040404040404040  0001084018008080008000230630921F225444B9BE60820A248B404040400840A0000000031010000000000000000000B0B7EC1670695D6630300000000000004040401E40404040 000000098.75 000000000.001E00000000000000000000    80                                                                                                                                                                                                                                                                                                                  
