00003050439800002BH6759067590000001857280010580000090170320202307923000000000043730    0000090001120010N8001056759C03202023                                                                                                                                                                                                                                                                                                                                                                                                                                                                                                                                                                                                 
00003060439800003DT67590675900000018572800105800000010180010524001193079900011200028031920230000000042607923000000000043730440066XXXXXX4526       VK04VS111111111   NYV1 A E303078609465725N8400000000004268MWP00    05DNGALLERY SMOKE SHOP LLC   06464D    VS84000000000426 N  599977453598                            000000000+                D CD 12113                     000000000  N000000000 499   0000000000000.00 0000000.00   0000000.00                             000000000000000                                                                                                                                                     01424 F000000000000 0000000000000.19     02100 01000                  
00003070439800004DT67590675900000018572800105800000010180010577287283079900011200053031920230000001322607923000000000043730542418XXXXXX6587       MS02WI09          NY 1 0 AMPLT0CZ7G0319  N840000000013226          05DNGALLERY SMOKE SHOP LLC   82265B    MC84000000013226 N  599977453598                            000000000+M10101C5434C    MPL  00353                     000000000  N                0000000000000.00 0000000.00   0000000.00                             000000000000000                                                                                                                                                   B101424  000000000000 0000000000002.48     01800 01000                  
00003080439800005DT67590675900000018572800105800000010180010524001193079900011200119031920230000000574007923000000000043730430455XXXXXX9818       VS11    0001111   NYV1 A E383078847250997N840000000005740BSFC00    07DNGALLERY SMOKE SHOP LLC   06164C    VS84000000005740 N  599977453598                            000000000+                C CC 12112                     000000000  N000000000 497   0000000000000.00 0000000.00   0000000.00                             000000000000000                                                                                                                                                     01424 A000000000000 0000000000001.05     01650 01000                  
00003090439800006DT67590675900000018572800105800000033080010576759003079900011200015031920230000000008007923000000000043730443041XXXXXX7318                         NY 2 0 N               N840000000000080      IL  05DNGALLERY SMOKE SHOP LLC   546660    DB84000000000080 N  599977453598                            000000000+                     09580                                Y          342   0000000000000.00 0000000.00   0000000.00                             000000000000000                                                                                                                                                     01424  000000000000 0000000000000.22     00050 00000                  
00003100439800007DT67590675900000018572800105800000033080010576759003079900011200031031920230000001337307923000000000043730458643XXXXXX1046                         NY 2 0 N               N840000000013373      IL  05DNGALLERY SMOKE SHOP LLC   H35374    DB84000000013373 N  599977453598                            000000000+                     09580                                Y          342   0000000000000.00 0000000.00   0000000.00                             000000000000000                                                                                                                                                     01424  000000000000 0000000000000.29     00050 00000                  
00003110439800008DT67590675900000018572800105800000033080010576759003079900011200049031920230000000015007923000000000043730411752XXXXXX4930                         NY 2 0 N               N840000000000150      IL  07DNGALLERY SMOKE SHOP LLC   565630    DB84000000000150 N  599977453598                            000000000+                     09580                                Y          342   0000000000000.00 0000000.00   0000000.00                             000000000000000                                                                                                                                                     01424  000000000000 0000000000000.22     00050 00000                  
00003120439800009DT67590675900000018572800105800000033080010576759003079900011200064031920230000000118107923000000000043730443041XXXXXX7318                         NY 2 0 N               N840000000001181      IL  05DNGALLERY SMOKE SHOP LLC   550272    DB84000000001181 N  599977453598                            000000000+                     09580                                Y          342   0000000000000.00 0000000.00   0000000.00                             000000000000000                                                                                                                                                     01424  000000000000 0000000000000.23     00050 00000                  
00003130439800010DT67590675900000018572800105800000033080010576759003079900011200072031920230000000020007923000000000043730443041XXXXXX7318                         NY 2 0 N               N840000000000200      IL  05DNGALLERY SMOKE SHOP LLC   596844    DB84000000000200 N  599977453598                            000000000+                     09580                                Y          342   0000000000000.00 0000000.00   0000000.00                             000000000000000                                                                                                                                                     01424  000000000000 0000000000000.22     00050 00000                  
00003140439800011DT67590675900000018572800105800000033080010576759003079900011200080031920230000000625707923000000000043730533098XXXXXX8239                         NY42 0 N               N840000000006257      ME  05DNGALLERY SMOKE SHOP LLC   358888    DB84000000006257 N  599977453598                            000000000+                     09597                                N                0000000000000.00 0000000.00   0000000.00                             000000000000000                                                                                                                                                     01424  000000000000 0000000000000.71     00900 00000                  
00003150439800012DT67590675900000018572800105800000033080010576759003079900011200098031920230000000044007923000000000043730443041XXXXXX7318                         NY 2 0 N               N840000000000440      IL  05DNGALLERY SMOKE SHOP LLC   609463    DB84000000000440 N  599977453598                            000000000+                     09580                                Y          342   0000000000000.00 0000000.00   0000000.00                             000000000000000                                                                                                                                                     01424  000000000000 0000000000000.22     00050 00000                  
00003160439800013DT67590675900000018572800105800000033080010576759003079900011200106031920230000000265707923000000000043730473702XXXXXX7444                         NY 2 0 N               N840000000002657      IL  05DNGALLERY SMOKE SHOP LLC   035407    DB84000000002657 N  599977453598                            000000000+                     09580                                Y          342   0000000000000.00 0000000.00   0000000.00                             000000000000000                                                                                                                                                     01424  000000000000 0000000000000.23     00050 00000                  
00003170439800014BH6759067590000001165080088880000090170320202307923000000000030129    0000090001370010N8008886759C03202023                                                                                                                                                                                                                                                                                                                                                                                                                                                                                                                                                                                                 
00003180439800015DT67590675900000011650800888800000010180088877287283079900013700019031920230000000283007923000000000030129517546XXXXXX3333       MS02WI09          NY 2 0 AMDJDY1E2P0319  N840000000002830          05DNVPODS HOLDING INC        019861    MD84000000002830 N  599977032122                            000000000+M10101C1334C    MDJ  10815                     000000000  1                0000000000000.00 0000000.00   0000000.00                             000000000000000                                                                                                                                                   B101424  000000000000 0000000000000.23     00050 02200                  
00003190439800016DT67590675900000011650800888800000010180088873011003079900013700021031920230000000283907923000000000030129372241XXXXX1007                          NY 1 0 N007249622834063N840000000002839          07DNVPODS HOLDINGS INC       886049    AM84000000002839 N  599977032122                            000000000+51010X50034C 258     11261                     000000000                   0000000000000.00 0000000.00   0000000.00                             000000000000000 61248972086759675900000011650 VPODS HOLDINGS INC       2527 N LINCOLN AVE       7732092463      60614     SMOKEDREAMS2@ICLOUD.COM                   01424  000000000000 0000000000000.55     01600 00000                  
00003200439800017DT67590675900000011650800888800000010180088877287283079900013700035031920230000000283007923000000000030129512992XXXXXX3954       MS02WI09          NY 1 0 AMDJQ17G6K0319  N840000000002830          05DNVPODS HOLDING INC        067513    MD84000000002830 N  599977032122                            000000000+M10101C5434C    MDJ  10815                     000000000  1                0000000000000.00 0000000.00   0000000.00                             000000000000000                                                                                                                                                   B101424  000000000000 0000000000000.23     00050 02200                  
00003210439800018DT67590675900000011650800888800000010180088824001193079900013700041031920230000000283907923000000000030129481931XXXXXX7215       VS11    0001111   NYV1 A E463078660793851N840000000002839C3ZN00    07DNVPODS HOLDING INC        03585D    VS84000000002839 N  599977032122                            000000000+                D CD 12113                     000000000  N000000000 499   0000000000000.00 0000000.00   0000000.00                             000000000000000                                                                                                                                                     01424 A000000000000 0000000000000.70     02100 01000                  
00003220439800019DT67590675900000011650800888800000010180088877287283079900013700050031920230000000283107923000000000030129517805XXXXXX0277       MS02WI09          NY 1 0 AMCWXAIF2O0319  N840000000002831          07DNVPODS HOLDING INC        09736P    MC84000000002831 N  599977032122                            000000000+M10101M0034C    MCW  00644                     000000000  N                0000000000000.00 0000000.00   0000000.00                             000000000000000                                                                                                                                                   B101424  000000000000 0000000000000.64     01900 01000                  
00003230439800020DT67590675900000011650800888800000010180088877287283079900013700068031920230000000339607923000000000030129555753XXXXXX3146       MS02WI09          NY 1 0 AMDHLT3N7J0319  N840000000003396          05DNVPODS HOLDING INC        036649    MD84000000003396 N  599977032122                            000000000+M10101C5434C    MDH  00402                     000000000  N                0000000000000.00 0000000.00   0000000.00                             000000000000000                                                                                                                                                   B101424  000000000000 0000000000000.51     01050 01500                  
00003240439800021DT67590675900000011650800888800000010180088824001193079900013700074031920230000000100007923000000000030129465992XXXXXX7422       VK04VS111111111   NYV1 A E463078733650081N840000000001000GTGK00    07DNVPODS HOLDING INC        628234    VD84000000001000 N  599977032122                            000000000+                F DF 00451                     000000000  N000000000 214   0000000000000.00 0000000.00   0000000.00                             000000000000000                                                                                                                                                     01424 F000000000000 0000000000000.20     01550 00400                  
00003250439800022DT67590675900000011650800888800000010180088824001193079900013700082031920230000000157507923000000000030129434236XXXXXX1523       VS11    0001111   NYV1 A E583078733802523N840000000001575GHJV00    07DNVPODS HOLDING INC        001535    VD84000000001575 N  599977032122                            000000000+                F DF 00381                     000000000  N000000000       0000000000000.00 0000000.00   0000000.00                             000000000000000                                                                                                                                                     01424 A000000000000 0000000000000.28     00800 01500                  
00003260439800023DT67590675900000011650800888800000010180088824001193079900013700090031920230000000226407923000000000030129483313XXXXXX2613       VS11    0001111   NYV1 A E383078740642980N840000000002264WB8K00    07DNVPODS HOLDING INC        043416    VD84000000002264 N  599977032122                            000000000+                F DF 10433                     000000000  Y000000000 338   0000000000000.00 0000000.00   0000000.00                             000000000000000                                                                                                                                                     01424 A000000000000 0000000000000.23     00050 02200                  
00003270439800024DT67590675900000011650800888800000010180088824001193079900013700108031920230000000772507923000000000030129426684XXXXXX1439       VS11    0001111   NYV1 A E463079006622826N8400000000077252PVR00    07DNVPODS HOLDING INC        03084D    VS84000000007725 N  599977032122                            000000000+                D CD 12113                     000000000  N000000000 499   0000000000000.00 0000000.00   0000000.00                             000000000000000                                                                                                                                                     01424 A000000000000 0000000000001.72     02100 01000                  
