01747000158950002BH6759067590000000766680088880000090170207202303823000000000003397    0000090001010001N8008886759C02082023                                                                                                                                                                                                                                                                                                                                                                                                                                                                                                                                                                                                 
01747010158950003DT67590675900000007666800888800000010180088824001193038900010100013020720230000000339703823000000000003397465638XXXXXX7919       VS11    0001111   NYV1 A E583038547783848N840000000003397JXXM00    05DNPLANET VAPOR #300        635370    VS84000000003397 N  599976777836                            000000000+                B CB 12111                     000000000  N000000000 495   0000000000000.00 0000000.00   0000000.00                             000000000000000                                                                                                                                                     01418 A000000000000 0000000000000.66     01650 01000                  
01747020158950004BH6759067590000000288180088880000090170207202303823000000000044322    0000090001390011N8008886759C02082023                                                                                                                                                                                                                                                                                                                                                                                                                                                                                                                                                                                                 
01747030158950005DT67590675900000002881800888800000010180088824001193038900013900013020720230000000197303823000000000044322449052XXXXXX4848       VS11    0001111   NYV1 A E303038568727864N840000000001973X3C300    05DNHAPPY HIPPIE             094752    VD84000000001973 N  549976487134                            000000000+                F DF 00381                     000000000  N000000000       0000000000000.00 0000000.00   0000000.00                             000000000000000                                                                                                                                                     01418 A000000000000 0000000000000.31     00800 01500                  
01747040158950006DT67590675900000002881800888800000010180088824001193038900013900021020720230000000325803823000000000044322483950XXXXXX4838       VS11    0001111   NYV1 A E303038577925195N840000000003258B2LP00    05DNHAPPY HIPPIE             09369D    VS84000000003258 N  549976487134                            000000000+                D CD 12113                     000000000  N000000000 499   0000000000000.00 0000000.00   0000000.00                             000000000000000                                                                                                                                                     01418 A000000000000 0000000000000.78     02100 01000                  
01747050158950007DT67590675900000002881800888800000010180088877287283038900013900031020720230000001084903823000000000044322517805XXXXXX6562       MS02WI09          NY 1 0 AMWEEX81PS0207  N840000000010849          05DNHAPPY HIPPIE             03499P    MC84000000010849 N  549976487134                            000000000+M10101C5434C    MWE  00743                     000000000  N                0000000000000.00 0000000.00   0000000.00                             000000000000000                                                                                                                                                   B101418  000000000000 0000000000002.54     02300 00400                  
01747060158950008DT67590675900000002881800888800000010180088824001193038900013900047020720230000000790103823000000000044322415978XXXXXX2405       VS11    0001111   NYV1 A E463038612719613N8400000000079013P6G00    05DNHAPPY HIPPIE             065972    VD84000000007901 N  549976487134                            000000000+                F DF 10433                     000000000  Y000000000 338   0000000000000.00 0000000.00   0000000.00                             000000000000000                                                                                                                                                     01418 A000000000000 0000000000000.26     00050 02200                  
01747070158950009DT67590675900000002881800888800000010180088824001193038900013900054020720230000000690103823000000000044322415978XXXXXX0956       VS11    0001111   NYV1 A E463038630089073N840000000006901VKWP00    05DNHAPPY HIPPIE             084711    VD84000000006901 N  549976487134                            000000000+                F DF 10433                     000000000  Y000000000 338   0000000000000.00 0000000.00   0000000.00                             000000000000000                                                                                                                                                     01418 A000000000000 0000000000000.25     00050 02200                  
01747080158950010DT67590675900000002881800888800000010180088824001193038900013900062020720230000000241203823000000000044322435547XXXXXX0480       VS11    0001111   NYV1 A E463038653391342N8400000000024124FS600    05DNHAPPY HIPPIE             048043    VD84000000002412 N  549976487134                            000000000+                F DF 10433                     000000000  Y000000000 338   0000000000000.00 0000000.00   0000000.00                             000000000000000                                                                                                                                                     01418 A000000000000 0000000000000.23     00050 02200                  
01747090158950011DT67590675900000002881800888800000010180088824001193038900013900070020720230000000296203823000000000044322445102XXXXXX1667       VS11    0001111   NYV1 A E303038711112080N84000000000296252CL00    05DNHAPPY HIPPIE             680846    VD84000000002962 N  549976487134                            000000000+                F DF 10433                     000000000  Y000000000 338   0000000000000.00 0000000.00   0000000.00                             000000000000000                                                                                                                                                     01418 A000000000000 0000000000000.23     00050 02200                  
01747100158950012DT67590675900000002881800888800000010180088877287283038900013900080020720230000000203503823000000000044322518941XXXXXX4253       MS02WI09          NY 1 0 AMWEUY35WA0207  N840000000002035          07DNHAPPY HIPPIE             58270Z    MC84000000002035 N  549976487134                            000000000+M10101M0034C    MWE  00743                     000000000  N                0000000000000.00 0000000.00   0000000.00                             000000000000000                                                                                                                                                   B101418  000000000000 0000000000000.51     02300 00400                  
01747110158950013DT67590675900000002881800888800000010180088877287283038900013900098020720230000000040603823000000000044322518941XXXXXX4253                         NY 1 0 AMWEL09VPS0207  N840000000000406          05DNHAPPY HIPPIE             31759Z    MC84000000000406 N  549976487134                            000000000+M10101C5434C    MWE  12147                     000000000  N                0000000000000.00 0000000.00   0000000.00                             000000000000000                                                                                                                                                   B101418  000000000000 0000000000000.11     02300 00200                  
01747120158950014DT67590675900000002881800888800000010180088824001193038900013900104020720230000000515603823000000000044322422921XXXXXX2446       VS11    0001111   NYV1 A E383038751841655N84000000000515648T900    05DNHAPPY HIPPIE             057185    VD84000000005156 N  549976487134                            000000000+                F DF 00381                     000000000  N000000000       0000000000000.00 0000000.00   0000000.00                             000000000000000                                                                                                                                                     01418 A000000000000 0000000000000.56     00800 01500                  
01747130158950015DT67590675900000002881800888800000010180088877287283038900013900114020720230000000046903823000000000044322518941XXXXXX4253                         NY 1 0 AMWEBYTQIN0207  N840000000000469          05DNHAPPY HIPPIE             73721Z    MC84000000000469 N  549976487134                            000000000+M10101C5434C    MWE  12147                     000000000  N                0000000000000.00 0000000.00   0000000.00                             000000000000000                                                                                                                                                   B101418  000000000000 0000000000000.13     02300 00200                  
01747140158950016BH6759067590000000288180088880000090170207202303823000000000072809    0000090001390021N8008886759C02082023                                                                                                                                                                                                                                                                                                                                                                                                                                                                                                                                                                                                 
01747150158950017DT67590675900000002881800888800000010180088824001193038900013900013020720230000000888903823000000000072809419090XXXXXX4359       VS11    0001111   NYV1 A E583038541655811N840000000008889KC6P00    05DNHAPPY HIPPIE             375854    VD84000000008889 N  549976487158                            000000000+                F DF 00381                     000000000  N000000000       0000000000000.00 0000000.00   0000000.00                             000000000000000                                                                                                                                                     01418 A000000000000 0000000000000.86     00800 01500                  
01747160158950018DT67590675900000002881800888800000010180088824001193038900013900021020720230000000296203823000000000072809423223XXXXXX1655       VS11    0001111   NYV1 A E383038564942930N840000000002962NXMH00    05DNHAPPY HIPPIE             031481    VD84000000002962 N  549976487158                            000000000+                F DF 00381                     000000000  N000000000       0000000000000.00 0000000.00   0000000.00                             000000000000000                                                                                                                                                     01418 A000000000000 0000000000000.39     00800 01500                  
01747170158950019DT67590675900000002881800888800000010180088824001193038900013900039020720230000000158003823000000000072809449052XXXXXX4848       VS11    0001111   NYV1 A E463038570463266N840000000001580MZQM00    05DNHAPPY HIPPIE             095046    VD84000000001580 N  549976487158                            000000000+                F DF 00381                     000000000  N000000000       0000000000000.00 0000000.00   0000000.00                             000000000000000                                                                                                                                                     01418 A000000000000 0000000000000.28     00800 01500                  
01747180158950020DT67590675900000002881800888800000010180088824001193038900013900047020720230000000395003823000000000072809411770XXXXXX9776       VS11    0001111   NYV1 A E583038575880289N840000000003950752200    05DNHAPPY HIPPIE             105291    VD84000000003950 N  549976487158                            000000000+                F DF 10433                     000000000  Y000000000 338   0000000000000.00 0000000.00   0000000.00                             000000000000000                                                                                                                                                     01418 A000000000000 0000000000000.24     00050 02200                  
01747190158950021DT67590675900000002881800888800000010180088824001193038900013900054020720230000000295003823000000000072809419090XXXXXX3821       VS11    0001111   NYV1 A E383038585761973N8400000000029505GSW00    05DNHAPPY HIPPIE             377773    VD84000000002950 N  549976487158                            000000000+                F DF 00381                     000000000  N000000000       0000000000000.00 0000000.00   0000000.00                             000000000000000                                                                                                                                                     01418 A000000000000 0000000000000.39     00800 01500                  
01747200158950022DT67590675900000002881800888800000010180088824001193038900013900062020720230000000395103823000000000072809400022XXXXXX0750       VS11    0001111   NYV1 A E583038592578184N840000000003951RGQ500    05DNHAPPY HIPPIE             063730    VD84000000003951 N  549976487158                            000000000+                F DF 10433                     000000000  Y000000000 338   0000000000000.00 0000000.00   0000000.00                             000000000000000                                                                                                                                                     01418 A000000000000 0000000000000.24     00050 02200                  
01747210158950023DT67590675900000002881800888800000010180088877287283038900013900072020720230000000148103823000000000072809548974XXXXXX2406       MS02WI09          NY 1 0 AMPALL1QGE0207  N840000000001481          07DNHAPPY HIPPIE             008766    MD84000000001481 N  549976487158                            000000000+M10101M0034C    MPA  00505                     000000000  N                0000000000000.00 0000000.00   0000000.00                             000000000000000                                                                                                                                                   A101418  000000000000 0000000000000.27     01550 00400                  
01747220158950024DT67590675900000002881800888800000010180088877287283038900013900080020720230000000176403823000000000072809510404XXXXXX1791       MS02WI09          NY 1 0 AMDJV276TX0207  N840000000001764          05DNHAPPY HIPPIE             095318    MD84000000001764 N  549976487158                            000000000+M10101C5434C    MDJ  00402                     000000000  N                0000000000000.00 0000000.00   0000000.00                             000000000000000                                                                                                                                                   B101418  000000000000 0000000000000.34     01050 01500                  
01747230158950025DT67590675900000002881800888800000010180088824001193038900013900096020720230000000167803823000000000072809415978XXXXXX0956       VS11    0001111   NYV1 A E583038633425498N840000000001678N4MJ00    05DNHAPPY HIPPIE             049611    VD84000000001678 N  549976487158                            000000000+                F DF 10433                     000000000  Y000000000 338   0000000000000.00 0000000.00   0000000.00                             000000000000000                                                                                                                                                     01418 A000000000000 0000000000000.23     00050 02200                  
01747240158950026DT67590675900000002881800888800000010180088824001193038900013900104020720230000000986603823000000000072809419090XXXXXX6158       VS11    0001111   NYV1 A E383038644312670N840000000009866BSTP00    05DNHAPPY HIPPIE             381149    VD84000000009866 N  549976487158                            000000000+                F DF 00381                     000000000  N000000000       0000000000000.00 0000000.00   0000000.00                             000000000000000                                                                                                                                                     01418 A000000000000 0000000000000.94     00800 01500                  
01747250158950027DT67590675900000002881800888800000010180088877287283038900013900114020720230000000197603823000000000072809521870XXXXXX2521       MS02WI09          NY 1 0 AMDJZH3AF20207  N840000000001976          90DNHAPPY HIPPIE             000789    MD84000000001976 N  549976487158                            000000000+M10101B5434C    MDJ  00402                     000000000  N                0000000000000.00 0000000.00   0000000.00                             000000000000000                                                                                                                                                   C101418  000000000000 0000000000000.36     01050 01500                  
01747260158950028DT67590675900000002881800888800000010180088824001193038900013900120020720230000000157603823000000000072809415978XXXXXX3096       VS11    0001111   NYV1 A E463038654495815N840000000001576Z6ZR00    05DNHAPPY HIPPIE             060436    VD84000000001576 N  549976487158                            000000000+                F DF 10433                     000000000  Y000000000 338   0000000000000.00 0000000.00   0000000.00                             000000000000000                                                                                                                                                     01418 A000000000000 0000000000000.23     00050 02200                  
01747270158950029DT67590675900000002881800888800000010180088824001193038900013900138020720230000000689803823000000000072809415978XXXXXX1455       VS11    0001111   NYV1 A E583038657379527N8400000000068986M8T00    05DNHAPPY HIPPIE             013436    VD84000000006898 N  549976487158                            000000000+                F DF 10433                     000000000  Y000000000 338   0000000000000.00 0000000.00   0000000.00                             000000000000000                                                                                                                                                     01418 A000000000000 0000000000000.25     00050 02200                  
01747280158950030DT67590675900000002881800888800000010180088824001193038900013900146020720230000000049903823000000000072809491523XXXXXX7823       VK04VS111111111   NYV1 A E383038665895106N8400000000004993Z3K00    07DNHAPPY HIPPIE             006081    VD84000000000499 N  549976487158                            000000000+                F DF 10439                     000000000  Y000000000 331   0000000000000.00 0000000.00   0000000.00                             000000000000000                                                                                                                                                     01418 F000000000000 0000000000000.22     00050 02200                  
01747290158950031DT67590675900000002881800888800000010180088824001193038900013900153020720230000000548803823000000000072809419090XXXXXX0577       VS11    0001111   NYV1 A E583038675864574N840000000005488QLSQ00    05DNHAPPY HIPPIE             382855    VD84000000005488 N  549976487158                            000000000+                F DF 00381                     000000000  N000000000       0000000000000.00 0000000.00   0000000.00                             000000000000000                                                                                                                                                     01418 A000000000000 0000000000000.59     00800 01500                  
01747300158950032DT67590675900000002881800888800000010180088824001193038900013900161020720230000000329303823000000000072809422921XXXXXX2053       VS11    0001111   NYV1 A E463038720604026N840000000003293Q8TR00    05DNHAPPY HIPPIE             054061    VD84000000003293 N  549976487158                            000000000+                F DF 00381                     000000000  N000000000       0000000000000.00 0000000.00   0000000.00                             000000000000000                                                                                                                                                     01418 A000000000000 0000000000000.41     00800 01500                  
01747310158950033DT67590675900000002881800888800000010180088824001193038900013900179020720230000000049303823000000000072809422921XXXXXX2018       VK04VS111111111   NYV1 A E303038721389417N840000000000493CFJT00    05DNHAPPY HIPPIE             054139    VD84000000000493 N  549976487158                            000000000+                F DF 00451                     000000000  N000000000 214   0000000000000.00 0000000.00   0000000.00                             000000000000000                                                                                                                                                     01418 F000000000000 0000000000000.12     01550 00400                  
01747320158950034DT67590675900000002881800888800000010180088824001193038900013900187020720230000000245603823000000000072809473702XXXXXX6085       VS11    0001111   NYV1 A E383038722511972N840000000002456J8MV00    05DNHAPPY HIPPIE             079768    VD84000000002456 N  549976487158                            000000000+                F DF 10433                     000000000  Y000000000 338   0000000000000.00 0000000.00   0000000.00                             000000000000000                                                                                                                                                     01418 A000000000000 0000000000000.23     00050 02200                  
01747330158950035DT67590675900000002881800888800000010180088824001193038900013900195020720230000000691303823000000000072809491305XXXXXX5501       VS11    0001111   NYV1 A E383038730425861N8400000000069134HL400    07DNHAPPY HIPPIE             720469    VD84000000006913 N  549976487158                            000000000+                F PF 08170                     000000000  N000000000       0000000000000.00 0000000.00   0000000.00                             000000000000000                                                                                                                                                     01418 A000000000000 0000000000000.94     01150 01500                  
01747340158950036DT67590675900000002881800888800000010180088824001193038900013900203020720230000000158003823000000000072809498503XXXXXX0161       VS11    0001111   NYV1 A E303038789522699N8400000000015809TDV00    05DNHAPPY HIPPIE             082359    VD84000000001580 N  549976487158                            000000000+                F DF 00381                     000000000  N000000000       0000000000000.00 0000000.00   0000000.00                             000000000000000                                                                                                                                                     01418 A000000000000 0000000000000.28     00800 01500                  
01747350158950037DT67590675900000002881800888800000010180088824001193038900013900211020720230000000256603823000000000072809419090XXXXXX9355       VS11    0001111   NYV1 A E303038791527802N84000000000256623H600    05DNHAPPY HIPPIE             389176    VD84000000002566 N  549976487158                            000000000+                F DF 00381                     000000000  N000000000       0000000000000.00 0000000.00   0000000.00                             000000000000000                                                                                                                                                     01418 A000000000000 0000000000000.36     00800 01500                  
01747360158950038BH6759067590000000215480088880000090170207202303823000000000038213    0000090001013483N8008886759C02082023                                                                                                                                                                                                                                                                                                                                                                                                                                                                                                                                                                                                 
01747370158950039DT67590675900000002154800888800000010180088824001193038900010134830020720230000003821303823000000000038213433993XXXXXX7424               2111111   NYV4 A7W583038698017871N8400000000382133Q6M00    01DNDRIP DROP DISTRO LLC     05588G    VB84000000038213 NP1519971004114   17414                    000000000+                G3CG308002                     000000000  N000000000 381   0000000000000.00 0000000.00   0000000.00                             000000000000000                                                                                                                                                     01418 G000000038213 0000000000010.80     02800 01000                  
01747380158950001P16759067590000000215480088880000001010000000000000000    43927540853              2000000000000000000000000              000000000000                    0000000000000000000000000                    000000000000                                                                                                                                                                                                                                                                                                                                                                                                                                                                                        
01747390158950040BH6759067590000000766680088880000090170207202303823000000000047066    0000090001020020N8008886759C02082023                                                                                                                                                                                                                                                                                                                                                                                                                                                                                                                                                                                                 
01747400158950041DT67590675900000007666800888800000010180088824001193038900010200011020720230000000377703823000000000047066474474XXXXXX4907       VS11    0001111   NYV1 A E383038558251429N840000000003777VH8M00    05DNPLANET VAPOR #300        103205    VD84000000003777 N  599976777836                            000000000+                F DF 10433                     000000000  Y000000000 338   0000000000000.00 0000000.00   0000000.00                             000000000000000                                                                                                                                                     01418 A000000000000 0000000000000.24     00050 02200                  
01747410158950042DT67590675900000007666800888800000010180088824001193038900010200029020720230000000320503823000000000047066402642XXXXXX2149       VS11    0001111   NYV1 A E303038602263914N840000000003205HXG400    90DNPLANET VAPOR #300        004346    VD84000000003205 N  599976777836                            000000000+                F PF 08170                     000000000  N000000000       0000000000000.00 0000000.00   0000000.00                             000000000000000                                                                                                                                                     01418 A000000000000 0000000000000.52     01150 01500                  
01747420158950043DT67590675900000007666800888800000010180088824001193038900010200037020720230000000057303823000000000047066478357XXXXXX5328       VK04VS111111111   NYV1 A E583038608414558N840000000000573PCVR00    07DNPLANET VAPOR #300        048562    VD84000000000573 N  599976777836                            000000000+                F DF 00451                     000000000  N000000000 214   0000000000000.00 0000000.00   0000000.00                             000000000000000                                                                                                                                                     01418 F000000000000 0000000000000.13     01550 00400                  
01747430158950044DT67590675900000007666800888800000010180088824001193038900010200045020720230000000326403823000000000047066473703XXXXXX8450       VS11    0001111   NYV1 A E463038622029903N840000000003264XW2M00    07DNPLANET VAPOR #300        060671    VD84000000003264 N  599976777836                            000000000+                F DF 10433                     000000000  Y000000000 338   0000000000000.00 0000000.00   0000000.00                             000000000000000                                                                                                                                                     01418 A000000000000 0000000000000.24     00050 02200                  
01747440158950045DT67590675900000007666800888800000010180088824001193038900010200052020720230000000323903823000000000047066415977XXXXXX4588       VS11    0001111   NYV1 A E383038654316615N840000000003239RQ3Z00    05DNPLANET VAPOR #300        057323    VD84000000003239 N  599976777836                            000000000+                F DF 10433                     000000000  Y000000000 338   0000000000000.00 0000000.00   0000000.00                             000000000000000                                                                                                                                                     01418 A000000000000 0000000000000.24     00050 02200                  
01747450158950046DT67590675900000007666800888800000010180088824001193038900010200060020720230000000323803823000000000047066461675XXXXXX7640       VS11    0001111   NYV1 A E583038658050327N840000000003238GNZZ00    05DNPLANET VAPOR #300        749060    VD84000000003238 N  599976777836                            000000000+                F DF 00381                     000000000  N000000000       0000000000000.00 0000000.00   0000000.00                             000000000000000                                                                                                                                                     01418 A000000000000 0000000000000.41     00800 01500                  
01747460158950047DT67590675900000007666800888800000010180088824001193038900010200078020720230000000151103823000000000047066445203XXXXXX0897       VS11    0001111   NYV1 A E383038667720656N8400000000015116BCT00    05DNPLANET VAPOR #300        295821    VD84000000001511 N  599976777836                            000000000+                F DF 00381                     000000000  N000000000       0000000000000.00 0000000.00   0000000.00                             000000000000000                                                                                                                                                     01418 A000000000000 0000000000000.27     00800 01500                  
01747470158950048DT67590675900000007666800888800000010180088877287283038900010200088020720230000000280703823000000000047066517805XXXXXX7349       MS02WI09          NY 1 0 AMWEZKZTWA0207  N840000000002807          07DNPLANET VAPOR #300        02175P    MC84000000002807 N  599976777836                            000000000+M10101M0034C    MWE  00739                     000000000  N                0000000000000.00 0000000.00   0000000.00                             000000000000000                                                                                                                                                   B101418  000000000000 0000000000000.75     02300 01000                  
01747480158950049DT67590675900000007666800888800000010180088824001193038900010200094020720230000000242903823000000000047066433477XXXXXX2724       VS11    0001111   NYV1 A E383038670170686N840000000002429QNZ200    07DNPLANET VAPOR #300        138122    VD84000000002429 N  599976777836                            000000000+                F DF 10433                     000000000  Y000000000 338   0000000000000.00 0000000.00   0000000.00                             000000000000000                                                                                                                                                     01418 A000000000000 0000000000000.23     00050 02200                  
01747490158950050DT67590675900000007666800888800000010180088824001193038900010200102020720230000000485703823000000000047066431243XXXXXX0542       VS11    0001111   NYV1 A E383038691373227N8400000000048576QBS00    07DNPLANET VAPOR #300        007500    VS84000000004857 N  599976777836                            000000000+                A CA 12110                     000000000  N000000000 493   0000000000000.00 0000000.00   0000000.00                             000000000000000                                                                                                                                                     01418 A000000000000 0000000000000.83     01510 01000                  
01747500158950051DT67590675900000007666800888800000010180088824001193038900010200110020720230000000252603823000000000047066430602XXXXXX7069       VS11    0001111   NYV1 A E303038718699275N840000000002526K8WL00    07DNPLANET VAPOR #300        195929    VD84000000002526 N  599976777836                            000000000+                F DF 00381                     000000000  N000000000       0000000000000.00 0000000.00   0000000.00                             000000000000000                                                                                                                                                     01418 A000000000000 0000000000000.35     00800 01500                  
01747510158950052DT67590675900000007666800888800000010180088824001193038900010200128020720230000000323803823000000000047066427199XXXXXX1794       VS11    0001111   NYV1 A E303038744420182N840000000003238ZNKK00    05DNPLANET VAPOR #300        448014    VD84000000003238 N  599976777836                            000000000+                F DF 00381                     000000000  N000000000       0000000000000.00 0000000.00   0000000.00                             000000000000000                                                                                                                                                     01418 A000000000000 0000000000000.41     00800 01500                  
01747520158950053DT67590675900000007666800888800000010180088824001193038900010200136020720230000000194303823000000000047066498503XXXXXX0946       VS11    0001111   NYV1 A E583038747246796N840000000001943S2CG00    05DNPLANET VAPOR #300        009002    VD84000000001943 N  599976777836                            000000000+                F DF 00381                     000000000  N000000000       0000000000000.00 0000000.00   0000000.00                             000000000000000                                                                                                                                                     01418 A000000000000 0000000000000.31     00800 01500                  
01747530158950054DT67590675900000007666800888800000010180088824001193038900010200144020720230000000194303823000000000047066474474XXXXXX4762       VS11    0001111   NYV1 A E303038760741941N8400000000019437S7B00    07DNPLANET VAPOR #300        100374    VD84000000001943 N  599976777836                            000000000+                F DF 10433                     000000000  Y000000000 338   0000000000000.00 0000000.00   0000000.00                             000000000000000                                                                                                                                                     01418 A000000000000 0000000000000.23     00050 02200                  
01747540158950055DT67590675900000007666800888800000010180088877287283038900010200153020720230000000058203823000000000047066535410XXXXXX2051       MS02WI09          NY 1 0 AMDJWBOZWA0207  N840000000000582          07DNPLANET VAPOR #300        U3M0DE    MD84000000000582 N  599976777836                            000000000+M10101M0034C    MDJ  00402                     000000000  N                0000000000000.00 0000000.00   0000000.00                             000000000000000                                                                                                                                                   A101418  000000000000 0000000000000.21     01050 01500                  
01747550158950056DT67590675900000007666800888800000010180088824001193038900010200169020720230000000205103823000000000047066400022XXXXXX1675       VS11    0001111   NYV1 A E303038811984048N840000000002051HS8C00    07DNPLANET VAPOR #300        458486    VD84000000002051 N  599976777836                            000000000+                F DF 10433                     000000000  Y000000000 338   0000000000000.00 0000000.00   0000000.00                             000000000000000                                                                                                                                                     01418 A000000000000 0000000000000.23     00050 02200                  
01747560158950057DT67590675900000007666800888800000010180088824001193038900010200177020720230000000242903823000000000047066474474XXXXXX4518       VS11    0001111   NYV1 A E463038825105201N8400000000024294MBX00    07DNPLANET VAPOR #300        105359    VD84000000002429 N  599976777836                            000000000+                F DF 10433                     000000000  Y000000000 338   0000000000000.00 0000000.00   0000000.00                             000000000000000                                                                                                                                                     01418 A000000000000 0000000000000.23     00050 02200                  
01747570158950058DT67590675900000007666800888800000010180088877287283038900010200187020720230000000237503823000000000047066515676XXXXXX3216       MS02WI09          NY 1 0 AMWEYZYNWA0207  N840000000002375          07DNPLANET VAPOR #300        00241Z    MC84000000002375 N  599976777836                            000000000+M10101M0034C    MWE  00739                     000000000  N                0000000000000.00 0000000.00   0000000.00                             000000000000000                                                                                                                                                   B101418  000000000000 0000000000000.65     02300 01000                  
01747580158950059DT67590675900000007666800888800000010180088824001193038900010200193020720230000000053903823000000000047066433477XXXXXX4852       VK04VS111111111   NYV1 A E303038844352810N840000000000539P6SR00    07DNPLANET VAPOR #300        404854    VD84000000000539 N  599976777836                            000000000+                F DF 10439                     000000000  Y000000000 331   0000000000000.00 0000000.00   0000000.00                             000000000000000                                                                                                                                                     01418 F000000000000 0000000000000.22     00050 02200                  
01747590158950060DT67590675900000007666800888800000010180088824001193038900010200201020720230000000054003823000000000047066433477XXXXXX4852       VK04VS111111111   NYV1 A E583038846283493N840000000000540LC3R00    07DNPLANET VAPOR #300        407478    VD84000000000540 N  599976777836                            000000000+                F DF 10439                     000000000  Y000000000 331   0000000000000.00 0000000.00   0000000.00                             000000000000000                                                                                                                                                     01418 F000000000000 0000000000000.22     00050 02200                  
01747600158950061BH6759067590000000096880088880000090170207202303823000000000006000    0000090001382955N8008886759C02082023                                                                                                                                                                                                                                                                                                                                                                                                                                                                                                                                                                                                 
01747610158950062DT67590675900000000968800888800000010180088876509753038900013829558020720230000000600003823000000000006000601100XXXXXX5130   BA00                  NY 4 07N863032593978166N840000000006000    00    01DNHIGHER FLOUR LLC         00798R    DS84000000006000 N  546271004114010                         000000000+1015104910600   DCCDI01008499026  142317000000 000000000  0          120   0000000000000.00 0000000.00   0000000.00                             000000000000000                                                                                                                                                     01418  000000000000 0000000000001.32     02030 01000                  
01747620158950063BH6759067590000000561180088880000090170207202303823000000000030573    0000090001091319N8008886759C02082023                                                                                                                                                                                                                                                                                                                                                                                                                                                                                                                                                                                                 
01747630158950064DT67590675900000005611800888800000010180088887287283038900010974988020720230000000558903823000000000030573515676XXXXXX9407       ME03KE06MS02      NY 4607AMWEX6A5IM0207  N840000000005589          81DNK DIVINE 503-689-7182    04662Z    MC84000000005589 N  549900000001   5198                     000000000+600450S00140    MWE  00737                     000000000  N                0000000000000.00 0000000.00   0000000.00                             000000000000000                                                                                                                                                   U001418  000000000000 0000000000001.55     02600 01000                  
01747640158950065DT67590675900000005611800888800000010180088887287283038900010971927020720230000000398903823000000000030573542418XXXXXX7225       ME03KE06MS02      NY 4607AMPLZ7AYF20207  N840000000003989          81DNK DIVINE 503-689-7182    17545B    MC84000000003989 N  549900000001   5196                     000000000+600450S00140    MPL  00580                     000000000  N                0000000000000.00 0000000.00   0000000.00                             000000000000000                                                                                                                                                   U001418  000000000000 0000000000000.94     02100 01000                  
01747650158950066DT67590675900000005611800888800000010180088887287283038900010913192020720230000002099503823000000000030573542418XXXXXX8509       ME03KE06MS02      NY 4607AMWEC8LNPS0207  N840000000020995          81DNK DIVINE 503-689-7182    33692P    MC84000000020995 N  549900000001   5193                     000000000+600450S00140    MWE  00737                     000000000  N                0000000000000.00 0000000.00   0000000.00                             000000000000000                                                                                                                                                   U001418  000000000000 0000000000005.56     02600 01000                  
