01825260418360002BH6759067590000000288180088880000090170118202301823000000000106986    0000090001220021N8008886759C01192023                                                                                                                                                                                                                                                                                                                                                                                                                                                                                                                                                                                                 
01825270418360003DT67590675900000002881800888800000010180088824001193018900012200013011820230000000385101823000000000106986415978XXXXXX3184       VS11    0001111   NYV1 A E583018543742216N840000000003851JG9F00    05DNHAPPY HIPPIE             041789    VD84000000003851 N  549976487158                            000000000+                F DF 10433                     000000000  Y000000000 338   0000000000000.00 0000000.00   0000000.00                             000000000000000                                                                                                                                                     01418 A000000000000 0000000000000.24     00050 02200                  
01825280418360004DT67590675900000002881800888800000010180088824001193018900012200021011820230000000999801823000000000106986430208XXXXXX6083       PS01    0000000   NYV1 J N303018574016357N840000000009998MX5R00    01DNHAPPY HIPPIE             313910    VD84000000009998 N  549976487158                            000000000+                F DF 00425                     000000000  N000000010       0000000000000.00 0000000.00   0000000.00                             000000000000000                                                                                                                                                     01418  000000000000 0000000000001.95     01750 02000                  
01825290418360005DT67590675900000002881800888800000010180088824001193018900012200039011820230000000197401823000000000106986410801XXXXXX9683       VS11    0001111   NYV1 A E383018599213672N840000000001974R46W00    05DNHAPPY HIPPIE             013841    VD84000000001974 N  549976487158                            000000000+                F DF 00381                     000000000  N000000000       0000000000000.00 0000000.00   0000000.00                             000000000000000                                                                                                                                                     01418 A000000000000 0000000000000.31     00800 01500                  
01825300418360006DT67590675900000002881800888800000010180088877287283018900012200049011820230000000355501823000000000106986511953XXXXXX6228       MS02WI09          NY 1 0 AMDJ2I0C610118  N840000000003555          05DNHAPPY HIPPIE             004065    MD84000000003555 N  549976487158                            000000000+M10101C5434C    MDJ  00402                     000000000  N                0000000000000.00 0000000.00   0000000.00                             000000000000000                                                                                                                                                   B101418  000000000000 0000000000000.52     01050 01500                  
01825310418360007DT67590675900000002881800888800000010180088824001193018900012200054011820230000000438901823000000000106986434258XXXXXX9570       VS11    0001111   NYV1 A E463018624941933N840000000004389GZJ400    05DNHAPPY HIPPIE             075223    VD84000000004389 N  549976487158                            000000000+                F DF 10433                     000000000  Y000000000 338   0000000000000.00 0000000.00   0000000.00                             000000000000000                                                                                                                                                     01418 A000000000000 0000000000000.24     00050 02200                  
01825320418360008DT67590675900000002881800888800000010180088824001193018900012200062011820230000000237101823000000000106986480639XXXXXX2564       VS11    0001111   NYV1 A E303018631770278N840000000002371RNM800    05DNHAPPY HIPPIE             539753    VD84000000002371 N  549976487158                            000000000+                F DF 00381                     000000000  N000000000       0000000000000.00 0000000.00   0000000.00                             000000000000000                                                                                                                                                     01418 A000000000000 0000000000000.34     00800 01500                  
01825330418360009DT67590675900000002881800888800000010180088824001193018900012200070011820230000000620801823000000000106986480639XXXXXX7211       VS11    0001111   NYV1 A E463018640609886N8400000000062086LX300    05DNHAPPY HIPPIE             540167    VD84000000006208 N  549976487158                            000000000+                F DF 00381                     000000000  N000000000       0000000000000.00 0000000.00   0000000.00                             000000000000000                                                                                                                                                     01418 A000000000000 0000000000000.65     00800 01500                  
01825340418360010DT67590675900000002881800888800000010180088824001193018900012200088011820230000000081201823000000000106986419090XXXXXX1409       VK04VS111111111   NYV1 A E463018663468220N840000000000812WF4V00    05DNHAPPY HIPPIE             844466    VD84000000000812 N  549976487158                            000000000+                F DF 00451                     000000000  N000000000 214   0000000000000.00 0000000.00   0000000.00                             000000000000000                                                                                                                                                     01418 F000000000000 0000000000000.17     01550 00400                  
01825350418360011DT67590675900000002881800888800000010180088824001193018900012200096011820230000000088801823000000000106986480639XXXXXX8297       VK04VS111111111   NYV1 A E463018672452832N840000000000888SPCX00    05DNHAPPY HIPPIE             541769    VD84000000000888 N  549976487158                            000000000+                F DF 00451                     000000000  N000000000 214   0000000000000.00 0000000.00   0000000.00                             000000000000000                                                                                                                                                     01418 F000000000000 0000000000000.18     01550 00400                  
01825360418360012DT67590675900000002881800888800000010180088876509753018900012200102011820230000000228801823000000000106986601100XXXXXX3102   BA50                  NY41 0 N743015193081566N840000000002288    00    05DNHAPPY HIPPIE             01863P    DS84000000002288 N  549976487158050                         000000000+0000004910H00   DCPDI01118400076  120148000000 000000000  0          146   0000000000000.00 0000000.00   0000000.00                             000000000000000                                                                                                                                                     01418  000000000000 0000000000000.50     01740 01000                  
01825370418360013DT67590675900000002881800888800000010180088877287283018900012200114011820230000001580001823000000000106986546633XXXXXX1395       ME03PT01MS02      NY 1 0 AMCWLO08AF0118  N840000000015800          01DNHAPPY HIPPIE             07522Z    MC84000000015800 N  549976487158                            000000000+M1010115434C    MCW  00643                     000000000  N                0000000000000.00 0000000.00   0000000.00                             000000000000000                                                                                                                                                   E101418  000000000000 0000000000003.58     02200 01000                  
01825380418360014DT67590675900000002881800888800000010180088824001193018900012200120011820230000001020801823000000000106986429475XXXXXX4315       VS11    0001111   NYV1 A E463018698174841N84000000001020872H800    05DNHAPPY HIPPIE             058129    VD84000000010208 N  549976487158                            000000000+                G DG 10351                     000000000  Y000000000 338   0000000000000.00 0000000.00   0000000.00                             000000000000000                                                                                                                                                     01418 A000000000000 0000000000000.27     00050 02200                  
01825390418360015DT67590675900000002881800888800000010180088824001193018900012200138011820230000000142101823000000000106986491523XXXXXX8164       VK04VS111111111   NYV1 A E383018777614113N840000000001421J93300    07DNHAPPY HIPPIE             017075    VD84000000001421 N  549976487158                            000000000+                F DF 10439                     000000000  Y000000000 331   0000000000000.00 0000000.00   0000000.00                             000000000000000                                                                                                                                                     01418 F000000000000 0000000000000.23     00050 02200                  
01825400418360016DT67590675900000002881800888800000010180088824001193018900012200146011820230000000691301823000000000106986449507XXXXXX6597       PS01    0000000   NYV1 J N303018779520767N840000000006913NHGD00    01DNHAPPY HIPPIE             063912    VD84000000006913 N  549976487158                            000000000+                F DF 00425                     000000000  N000000010       0000000000000.00 0000000.00   0000000.00                             000000000000000                                                                                                                                                     01418  000000000000 0000000000001.41     01750 02000                  
01825410418360017DT67590675900000002881800888800000010180088824001193018900012200153011820230000000448501823000000000106986415978XXXXXX3096       VS11    0001111   NYV1 A E383018780632495N840000000004485ZVDJ00    05DNHAPPY HIPPIE             040251    VD84000000004485 N  549976487158                            000000000+                F DF 10433                     000000000  Y000000000 338   0000000000000.00 0000000.00   0000000.00                             000000000000000                                                                                                                                                     01418 A000000000000 0000000000000.24     00050 02200                  
01825420418360018DT67590675900000002881800888800000010180088824001193018900012200161011820230000000493801823000000000106986419090XXXXXX5029       VS11    0001111   NYV1 A E463018783838850N840000000004938WG3M00    05DNHAPPY HIPPIE             850785    VD84000000004938 N  549976487158                            000000000+                F DF 00381                     000000000  N000000000       0000000000000.00 0000000.00   0000000.00                             000000000000000                                                                                                                                                     01418 A000000000000 0000000000000.55     00800 01500                  
01825430418360019DT67590675900000002881800888800000010180088824001193018900012200179011820230000000987801823000000000106986498503XXXXXX9797       VS11    0001111   NYV1 A E303018799227058N840000000009878L7LT00    05DNHAPPY HIPPIE             099399    VD84000000009878 N  549976487158                            000000000+                F DF 00381                     000000000  N000000000       0000000000000.00 0000000.00   0000000.00                             000000000000000                                                                                                                                                     01418 A000000000000 0000000000000.94     00800 01500                  
01825440418360020DT67590675900000002881800888800000010180088824001193018900012200187011820230000000991401823000000000106986419090XXXXXX5638       VS11    0001111   NYV1 A E303018803505305N840000000009914J2T200    05DNHAPPY HIPPIE             851866    VD84000000009914 N  549976487158                            000000000+                F DF 00381                     000000000  N000000000       0000000000000.00 0000000.00   0000000.00                             000000000000000                                                                                                                                                     01418 A000000000000 0000000000000.94     00800 01500                  
01825450418360021DT67590675900000002881800888800000010180088877287283018900012200197011820230000000295001823000000000106986511953XXXXXX9825       MS02WI09          NY 1 0 AMDJQBYTAF0118  N840000000002950          05DNHAPPY HIPPIE             089531    MD84000000002950 N  549976487158                            000000000+M10101C5434C    MDJ  00402                     000000000  N                0000000000000.00 0000000.00   0000000.00                             000000000000000                                                                                                                                                   B101418  000000000000 0000000000000.46     01050 01500                  
01825460418360022DT67590675900000002881800888800000010180088824001193018900012200203011820230000000164601823000000000106986419090XXXXXX5638       VS11    0001111   NYV1 A E463018807462700N840000000001646M22L00    05DNHAPPY HIPPIE             852093    VD84000000001646 N  549976487158                            000000000+                F DF 00381                     000000000  N000000000       0000000000000.00 0000000.00   0000000.00                             000000000000000                                                                                                                                                     01418 A000000000000 0000000000000.28     00800 01500                  
01825470418360023DT67590675900000002881800888800000010180088877287283018900012200213011820230000000249901823000000000106986527854XXXXXX2252       ME03MS02WI09      NY 1 0 AMWEMTRSOI0118  N840000000002499          01DNHAPPY HIPPIE             61814W    MC84000000002499 N  549976487158                            000000000+M1010115434C    MWE  00643                     000000000  N                0000000000000.00 0000000.00   0000000.00                             000000000000000                                                                                                                                                   E101418  000000000000 0000000000000.65     02200 01000                  
01825480418360024BH6759067590000000288180088880000090170118202301823000000000090238    0000090001220014N8008886759C01192023                                                                                                                                                                                                                                                                                                                                                                                                                                                                                                                                                                                                 
01825490418360025DT67590675900000002881800888800000010180088824001193018900012200013011820230000000641801823000000000090238480639XXXXXX5504       VS11    0001111   NYV1 A E463018580823145N840000000006418JZZJ00    05DNHAPPY HIPPIE             537252    VD84000000006418 N  549976487134                            000000000+                F DF 00381                     000000000  N000000000       0000000000000.00 0000000.00   0000000.00                             000000000000000                                                                                                                                                     01418 A000000000000 0000000000000.66     00800 01500                  
01825500418360026DT67590675900000002881800888800000010180088877287283018900012200023011820230000000439001823000000000090238515676XXXXXX2805       MS02WI09          NY 1 0 AMWETFT69B0118  N840000000004390          05DNHAPPY HIPPIE             09305Z    MC84000000004390 N  549976487134                            000000000+M10101C5434C    MWE  00743                     000000000  N                0000000000000.00 0000000.00   0000000.00                             000000000000000                                                                                                                                                   B101418  000000000000 0000000000001.05     02300 00400                  
01825510418360027DT67590675900000002881800888800000010180088824001193018900012200039011820230000000612101823000000000090238443044XXXXXX4097       VS11    0001111   NYV1 A E303018628670376N840000000006121P85P00    05DNHAPPY HIPPIE             227054    VD84000000006121 N  549976487134                            000000000+                F DF 10433                     000000000  Y000000000 338   0000000000000.00 0000000.00   0000000.00                             000000000000000                                                                                                                                                     01418 A000000000000 0000000000000.25     00050 02200                  
01825520418360028DT67590675900000002881800888800000010180088824001193018900012200047011820230000000375301823000000000090238420767XXXXXX6556       VS11    0001111   NYV1 A E583018640125687N840000000003753G59500    05DNHAPPY HIPPIE             024612    VD84000000003753 N  549976487134                            000000000+                F DF 10433                     000000000  Y000000000 338   0000000000000.00 0000000.00   0000000.00                             000000000000000                                                                                                                                                     01418 A000000000000 0000000000000.24     00050 02200                  
01825530418360029DT67590675900000002881800888800000010180088824001193018900012200054011820230000001035701823000000000090238440066XXXXXX3921       VS11    0001111   NYV1 A E583018641020875N8400000000103575LWK00    05DNHAPPY HIPPIE             00051D    VS84000000010357 N  549976487134                            000000000+                D CD 12113                     000000000  N000000000 499   0000000000000.00 0000000.00   0000000.00                             000000000000000                                                                                                                                                     01418 A000000000000 0000000000002.27     02100 01000                  
01825540418360030DT67590675900000002881800888800000010180088824001193018900012200062011820230000000690001823000000000090238473916XXXXXX6307       VS11    0001111   NYV1 A E463018647831846N840000000006900QRXR00    05DNHAPPY HIPPIE             025943    VD84000000006900 N  549976487134                            000000000+                G DG 08704                     000000000  N000000000       0000000000000.00 0000000.00   0000000.00                             000000000000000                                                                                                                                                     01418 A000000000000 0000000000001.27     01700 01000                  
01825550418360031DT67590675900000002881800888800000010180088824001193018900012200070011820230000000158001823000000000090238422921XXXXXX4190       VS11    0001111   NYV1 A E303018649092055N8400000000015807SXH00    05DNHAPPY HIPPIE             046910    VD84000000001580 N  549976487134                            000000000+                F DF 00381                     000000000  N000000000       0000000000000.00 0000000.00   0000000.00                             000000000000000                                                                                                                                                     01418 A000000000000 0000000000000.28     00800 01500                  
01825560418360032DT67590675900000002881800888800000010180088824001193018900012200088011820230000000661601823000000000090238426684XXXXXX1922       VS11    0001111   NYV1 A E463018725847781N840000000006616H9ND00    05DNHAPPY HIPPIE             08336B    VS84000000006616 N  549976487134                            000000000+                B CB 12111                     000000000  N000000000 495   0000000000000.00 0000000.00   0000000.00                             000000000000000                                                                                                                                                     01418 A000000000000 0000000000001.19     01650 01000                  
01825570418360033DT67590675900000002881800888800000010180088824001193018900012200096011820230000000325801823000000000090238443238XXXXXX0990       VS11    0001111   NYV1 A E383018728478776N840000000003258MJX500    05DNHAPPY HIPPIE             051407    VD84000000003258 N  549976487134                            000000000+                F DF 00381                     000000000  N000000000       0000000000000.00 0000000.00   0000000.00                             000000000000000                                                                                                                                                     01418 A000000000000 0000000000000.41     00800 01500                  
01825580418360034DT67590675900000002881800888800000010180088824001193018900012200104011820230000002633301823000000000090238410894XXXXXX7228       VS11    0001111   NYV1 A E583018739489286N840000000026333FK4H00    05DNHAPPY HIPPIE             028310    VD84000000026333 N  549976487134                            000000000+                F DF 10433                     000000000  Y000000000 338   0000000000000.00 0000000.00   0000000.00                             000000000000000                                                                                                                                                     01418 A000000000000 0000000000000.35     00050 02200                  
01825590418360035DT67590675900000002881800888800000010180088824001193018900012200112011820230000000681001823000000000090238459954XXXXXX5604       VS11    0001111   NYV1 A E303018794958455N84000000000681053PH00    05DNHAPPY HIPPIE             H67331    VD84000000006810 N  549976487134                            000000000+                F DF 10433                     000000000  Y000000000 338   0000000000000.00 0000000.00   0000000.00                             000000000000000                                                                                                                                                     01418 A000000000000 0000000000000.25     00050 02200                  
01825600418360036DT67590675900000002881800888800000010180088877287283018900012200122011820230000000187501823000000000090238548974XXXXXX2406       MS02WI09          NY 1 0 AMPAVD4TOH0118  N840000000001875          07DNHAPPY HIPPIE             006720    MD84000000001875 N  549976487134                            000000000+M10101M0034C    MPA  11964                     000000000  N                0000000000000.00 0000000.00   0000000.00                             000000000000000                                                                                                                                                   A101418  000000000000 0000000000000.37     01150 01500                  
01825610418360037DT67590675900000002881800888800000010180088877287283018900012200130011820230000000316101823000000000090238542418XXXXXX5033       MS02WI09          NY 1 0 AMWEIMLFAE0118  N840000000003161          05DNHAPPY HIPPIE             19234P    MC84000000003161 N  549976487134                            000000000+M10101C5434C    MWE  00743                     000000000  N                0000000000000.00 0000000.00   0000000.00                             000000000000000                                                                                                                                                   B101418  000000000000 0000000000000.77     02300 00400                  
01825620418360038DT67590675900000002881800888800000010180088877287283018900012200148011820230000000266601823000000000090238517805XXXXXX6048       MS02WI09          NY 1 0 AMWEMUZVOI0118  N840000000002666          05DNHAPPY HIPPIE             08515P    MC84000000002666 N  549976487134                            000000000+M10101C5434C    MWE  00743                     000000000  N                0000000000000.00 0000000.00   0000000.00                             000000000000000                                                                                                                                                   B101418  000000000000 0000000000000.65     02300 00400                  
01825630418360039BH6759067590000000215480088880000090170118202301823000000000189592    0000090001851399N8008886759C01192023                                                                                                                                                                                                                                                                                                                                                                                                                                                                                                                                                                                                 
01825640418360040DT67590675900000002154800888800000010180088887287283018900018512537011820230000004078801823000000000189592547415XXXXXX6095                         NY 4607AMEBV5IEOH0118  N840000000040788          81DNDRIP DROP DISTRO LLC     06846Q    MB84000000040788 NP1519900000001   17278                    000000000+600450S00140    MEB  11637                     000000000  N                0000000000000.00 0000000.00   0000000.00                             000000000000000                                                                                                                                                   U001418  000000000000 0000000000012.34     03000 01000                  
01825650418360001P1675906759000000021548008888000000101                                                          000000000000          8000            471534935                                                                                                                                                                                                                                                                                                                                                                                                                                                                                                                                                            
01825660418360041DT67590675900000002154800888800000010180088824001193018900018577885011820230000002657401823000000000189592481588XXXXXX7710               2111111   NYV4 A7W583018543102971N840000000026574D6J500    01DNDRIP DROP DISTRO LLC     100457    VD84000000026574 NP1519971004114   17273                    000000000+                G DG 10352                     000000000  Y000000000 338   0000000000000.00 0000000.00   0000000.00                             000000000000000                                                                                                                                                     01418 G000000026574 0000000000000.35     00050 02200                  
01825670418360001P16759067590000000215480088880000001010000000000000000    43884315179              2000000000000000000000000              000000000000                    0000000000000000000000000                    000000000000                                                                                                                                                                                                                                                                                                                                                                                                                                                                                        
01825680418360042DT67590675900000002154800888800000010180088824001193018900018581705011820230000003888001823000000000189592426930XXXXXX0531               2111111   NYV4 A7W583018546605195N840000000038880WHGT00    01DNDRIP DROP DISTRO LLC     03034G    VB84000000038880 NP1519971004114   INV-000264               000000000+                G5CG511887                     000000000  N000000000 163   0000000000000.00 0000000.00   0000000.00                             000000000000000                                                                                                                                                     01418 G000000038880 0000000000011.76     03000 01000                  
01825690418360001P16759067590000000215480088880000001010000000000000000    43884326030              2000000000000000000000000              000000000000                    0000000000000000000000000                    000000000000                                                                                                                                                                                                                                                                                                                                                                                                                                                                                        
01825700418360043DT67590675900000002154800888800000010180088876509753018900018513995011820230000008335001823000000000189592601101XXXXXX7158   BA00                  NY 4 07N813015133869008N840000000083350    00    01DNDRIP DROP DISTRO LLC     01823R    DS84000000083350 N  519971004114010                         000000000+1015104910600   DCCDI01008201049  092306000000 000000000  0          120   0000000000000.00 0000000.00   0000000.00                             000000000000000                                                                                                                                                     01418  000000000000 0000000000017.02     02030 01000                  
01825710418360044BH6759067590000000096880088880000090170118202301823000000000008988    0000090001231538N8008886759C01192023                                                                                                                                                                                                                                                                                                                                                                                                                                                                                                                                                                                                 
01825720418360045DT67590675900000000968800888800000010180088887287283018900012315382011820230000000898801823000000000008988540219XXXXXX8908       ME03KE06MS02      NY 4607AMDJMB4KJN0118  N840000000008988          81DNHIGHER FLOUR LLC         739267    MD84000000008988 N  546200000001   rfdwtFYVzeALqlJ0Yoa4     000000000+600450S00140    MDJ  00401                     000000000  N                0000000000000.00 0000000.00   0000000.00                             000000000000000                                                                                                                                                   U001418  000000000000 0000000000001.63     01650 01500                  
01825730418360046BH6759067590000000561180088880000090170118202301823000000000003498    0000090001014783N8008886759C01192023                                                                                                                                                                                                                                                                                                                                                                                                                                                                                                                                                                                                 
01825740418360047DT67590675900000005611800888800000010180088873011003018900010147832011820230000000349801823000000000003498376742XXXXX1001                          NY 4 07N004366314766305N840000000003498          01DNK DIVINE                 248106    AM84000000003498 N  549971004114                            000000000+6004S0S00140 258     11261                     000000000                   0000000000000.00 0000000.00   0000000.00                             000000000000000 61248972086759675900000005611 K DIVINE                 43798 MCKENZIE HWY       5036897182      97489     KRATOMDIVINE@GMAIL.COM                    01418  000000000000 0000000000000.66     01600 00000                  
