01835020528540002BH6759067590000000288180088880000090170123202302323000000000043481    0000090001260010N8008886759C01242023                                                                                                                                                                                                                                                                                                                                                                                                                                                                                                                                                                                                 
01835030528540003DT67590675900000002881800888800000010180088824001193023900012600017012320230000000493802323000000000043481415978XXXXXX0635               1001111   NYV1 A K583023628319521N840000000004938Z39K00    01DNHAPPY HIPPIE             088658    VD84000000004938 N  549976487158                            000000000+                F DF 10436                     000000000  Y000000000 338   0000000000000.00 0000000.00   0000000.00                             000000000000000                                                                                                                                                     01418 E000000000000 0000000000000.24     00050 02200                  
01835040528540004DT67590675900000002881800888800000010180088824001193023900012600025012320230000000533202323000000000043481414709XXXXXX4150       VS11    0001111   NYV1 A E463023633008629N840000000005332GSXX00    07DNHAPPY HIPPIE             05028D    VS84000000005332 N  549976487158                            000000000+                D CD 12113                     000000000  N000000000 499   0000000000000.00 0000000.00   0000000.00                             000000000000000                                                                                                                                                     01418 A000000000000 0000000000001.22     02100 01000                  
01835050528540005DT67590675900000002881800888800000010180088824001193023900012600033012320230000000433802323000000000043481440393XXXXXX7120               1001111   NYV1 A K303023667912043N840000000004338XVSZ00    01DNHAPPY HIPPIE             515855    VD84000000004338 N  549976487158                            000000000+                F PF 08171                     000000000  N000000000       0000000000000.00 0000000.00   0000000.00                             000000000000000                                                                                                                                                     01418 E000000000000 0000000000000.96     01750 02000                  
01835060528540006DT67590675900000002881800888800000010180088873011003023900012600047012320230000000128302323000000000043481379364XXXXX7256                          NY 1 0 N006723754542067N840000000001283          07DNHAPPY HIPPIE             740023    AM84000000001283 N  549976487158                            000000000+51010X50034C 258     11261                     000000000                   0000000000000.00 0000000.00   0000000.00                             000000000000000 61248972086759675900000002881 HAPPY HIPPIE             832 PARKWAY              8656540830      37862     HAPPYHIPPIE832@GMAIL.COM                  01418  000000000000 0000000000000.31     01600 00000                  
01835070528540007DT67590675900000002881800888800000010180088824001193023900012600058012320230000000325802323000000000043481415976XXXXXX7965       VS11    0001111   NYV1 A E583023721237409N840000000003258BCGF00    07DNHAPPY HIPPIE             095775    VD84000000003258 N  549976487158                            000000000+                F DF 10433                     000000000  Y000000000 338   0000000000000.00 0000000.00   0000000.00                             000000000000000                                                                                                                                                     01418 A000000000000 0000000000000.24     00050 02200                  
01835080528540008DT67590675900000002881800888800000010180088824001193023900012600066012320230000000691202323000000000043481414709XXXXXX7367       VS11    0001111   NYV1 A E303023732479376N840000000006912GVFD00    05DNHAPPY HIPPIE             01421D    VS84000000006912 N  549976487158                            000000000+                D CD 12113                     000000000  N000000000 499   0000000000000.00 0000000.00   0000000.00                             000000000000000                                                                                                                                                     01418 A000000000000 0000000000001.55     02100 01000                  
01835090528540009DT67590675900000002881800888800000010180088824001193023900012600074012320230000000790102323000000000043481422921XXXXXX4626       VS11    0001111   NYV1 A E583023734248001N8400000000079012NBP00    05DNHAPPY HIPPIE             055425    VD84000000007901 N  549976487158                            000000000+                F DF 00381                     000000000  N000000000       0000000000000.00 0000000.00   0000000.00                             000000000000000                                                                                                                                                     01418 A000000000000 0000000000000.78     00800 01500                  
01835100528540010DT67590675900000002881800888800000010180088824001193023900012600082012320230000000156302323000000000043481445102XXXXXX1026       VS11    0001111   NYV1 A E583023736184025N840000000001563KCGX00    05DNHAPPY HIPPIE             654696    VD84000000001563 N  549976487158                            000000000+                F DF 10433                     000000000  Y000000000 338   0000000000000.00 0000000.00   0000000.00                             000000000000000                                                                                                                                                     01418 A000000000000 0000000000000.23     00050 02200                  
01835110528540011DT67590675900000002881800888800000010180088824001193023900012600090012320230000000548802323000000000043481419090XXXXXX1975       VS11    0001111   NYV1 A E463023757824056N840000000005488XR5200    05DNHAPPY HIPPIE             981956    VD84000000005488 N  549976487158                            000000000+                F DF 00381                     000000000  N000000000       0000000000000.00 0000000.00   0000000.00                             000000000000000                                                                                                                                                     01418 A000000000000 0000000000000.59     00800 01500                  
01835120528540012DT67590675900000002881800888800000010180088824001193023900012600108012320230000000246802323000000000043481480639XXXXXX6865       VS11    0001111   NYV1 A E303023816603717N840000000002468NB9X00    05DNHAPPY HIPPIE             661828    VD84000000002468 N  549976487158                            000000000+                F DF 00381                     000000000  N000000000       0000000000000.00 0000000.00   0000000.00                             000000000000000                                                                                                                                                     01418 A000000000000 0000000000000.35     00800 01500                  
01835130528540013BH6759067590000000288180088880000090170123202302323000000000102418    0000090001260019N8008886759C01242023                                                                                                                                                                                                                                                                                                                                                                                                                                                                                                                                                                                                 
01835140528540014DT67590675900000002881800888800000010180088824001193023900012600017012320230000001580202323000000000102418445102XXXXXX0401       VS11    0001111   NYV1 A E383023550070503N84000000001580254TZ00    05DNHAPPY HIPPIE             502631    VD84000000015802 N  549976487134                            000000000+                F DF 10433                     000000000  Y000000000 338   0000000000000.00 0000000.00   0000000.00                             000000000000000                                                                                                                                                     01418 A000000000000 0000000000000.30     00050 02200                  
01835150528540015DT67590675900000002881800888800000010180088824001193023900012600025012320230000000246802323000000000102418415978XXXXXX3281       VS11    0001111   NYV1 A E303023559403454N8400000000024687P7500    05DNHAPPY HIPPIE             003194    VD84000000002468 N  549976487134                            000000000+                F DF 10433                     000000000  Y000000000 338   0000000000000.00 0000000.00   0000000.00                             000000000000000                                                                                                                                                     01418 A000000000000 0000000000000.23     00050 02200                  
01835160528540016DT67590675900000002881800888800000010180088824001193023900012600033012320230000000069002323000000000102418415978XXXXXX3281       VK04VS111111111   NYV1 A E303023559779016N840000000000690HFKV00    05DNHAPPY HIPPIE             008103    VD84000000000690 N  549976487134                            000000000+                F DF 10439                     000000000  Y000000000 331   0000000000000.00 0000000.00   0000000.00                             000000000000000                                                                                                                                                     01418 F000000000000 0000000000000.22     00050 02200                  
01835170528540017DT67590675900000002881800888800000010180088824001193023900012600041012320230000000591302323000000000102418449507XXXXXX6597       VS11    0001111   NYV1 A E583023562676624N84000000000591334F700    05DNHAPPY HIPPIE             003747    VD84000000005913 N  549976487134                            000000000+                F DF 00381                     000000000  N000000000       0000000000000.00 0000000.00   0000000.00                             000000000000000                                                                                                                                                     01418 A000000000000 0000000000000.62     00800 01500                  
01835180528540018DT67590675900000002881800888800000010180088877287283023900012600050012320230000001064402323000000000102418530589XXXXXX0181       MS02WI09          NY 1 0 AMPLGKM0V90123  N840000000010644          05DNHAPPY HIPPIE             74410Z    MC84000000010644 N  549976487134                            000000000+M10101C5434C    MPL  00043                     000000000  N                0000000000000.00 0000000.00   0000000.00                             000000000000000                                                                                                                                                   B101418  000000000000 0000000000001.80     01650 00400                  
01835190528540019DT67590675900000002881800888800000010180088877287283023900012600068012320230000000438902323000000000102418530589XXXXXX0181       MS02WI09          NY 1 0 AMPLCM99V90123  N840000000004389          05DNHAPPY HIPPIE             74806Z    MC84000000004389 N  549976487134                            000000000+M10101C5434C    MPL  00043                     000000000  N                0000000000000.00 0000000.00   0000000.00                             000000000000000                                                                                                                                                   B101418  000000000000 0000000000000.76     01650 00400                  
01835200528540020DT67590675900000002881800888800000010180088824001193023900012600074012320230000000493802323000000000102418415978XXXXXX1455       VS11    0001111   NYV1 A E303023582708980N840000000004938L2ZV00    07DNHAPPY HIPPIE             017855    VD84000000004938 N  549976487134                            000000000+                F DF 10433                     000000000  Y000000000 338   0000000000000.00 0000000.00   0000000.00                             000000000000000                                                                                                                                                     01418 A000000000000 0000000000000.24     00050 02200                  
01835210528540021DT67590675900000002881800888800000010180088824001193023900012600082012320230000001490202323000000000102418406032XXXXXX5726       VS11    0001111   NYV1 A E303023587124922N840000000014902TLJS00    05DNHAPPY HIPPIE             021811    VD84000000014902 N  549976487134                            000000000+                F DF 10433                     000000000  Y000000000 338   0000000000000.00 0000000.00   0000000.00                             000000000000000                                                                                                                                                     01418 A000000000000 0000000000000.29     00050 02200                  
01835220528540022DT67590675900000002881800888800000010180088824001193023900012600090012320230000000493802323000000000102418461608XXXXXX3532       VS11    0001111   NYV1 A E583023591972432N840000000004938CFF500    05DNHAPPY HIPPIE             63796B    VS84000000004938 N  549976487134                            000000000+                B CB 12111                     000000000  N000000000 495   0000000000000.00 0000000.00   0000000.00                             000000000000000                                                                                                                                                     01418 A000000000000 0000000000000.91     01650 01000                  
01835230528540023DT67590675900000002881800888800000010180088824001193023900012600108012320230000000444402323000000000102418415978XXXXXX6173       VS11    0001111   NYV1 A E303023595833084N840000000004444M83Z00    07DNHAPPY HIPPIE             021867    VD84000000004444 N  549976487134                            000000000+                F DF 10433                     000000000  Y000000000 338   0000000000000.00 0000000.00   0000000.00                             000000000000000                                                                                                                                                     01418 A000000000000 0000000000000.24     00050 02200                  
01835240528540024DT67590675900000002881800888800000010180088824001193023900012600116012320230000000107202323000000000102418415978XXXXXX0909       VK04VS111111111   NYV1 A E463023628986995N840000000001072CBG300    07DNHAPPY HIPPIE             000743    VD84000000001072 N  549976487134                            000000000+                F DF 10439                     000000000  Y000000000 331   0000000000000.00 0000000.00   0000000.00                             000000000000000                                                                                                                                                     01418 F000000000000 0000000000000.23     00050 02200                  
01835250528540025DT67590675900000002881800888800000010180088824001193023900012600124012320230000000559602323000000000102418415978XXXXXX3096       VS11    0001111   NYV1 A E583023660818405N8400000000055965W5S00    07DNHAPPY HIPPIE             069662    VD84000000005596 N  549976487134                            000000000+                F DF 10433                     000000000  Y000000000 338   0000000000000.00 0000000.00   0000000.00                             000000000000000                                                                                                                                                     01418 A000000000000 0000000000000.25     00050 02200                  
01835260528540026DT67590675900000002881800888800000010180088824001193023900012600132012320230000000088602323000000000102418415978XXXXXX6862       VK04VS111111111   NYV1 A E383023745101818N840000000000886BHJR00    07DNHAPPY HIPPIE             049856    VD84000000000886 N  549976487134                            000000000+                F DF 10439                     000000000  Y000000000 331   0000000000000.00 0000000.00   0000000.00                             000000000000000                                                                                                                                                     01418 F000000000000 0000000000000.22     00050 02200                  
01835270528540027DT67590675900000002881800888800000010180088824001193023900012600140012320230000000395002323000000000102418480639XXXXXX5504       VS11    0001111   NYV1 A E463023745598761N8400000000039507JF800    05DNHAPPY HIPPIE             658603    VD84000000003950 N  549976487134                            000000000+                F DF 00381                     000000000  N000000000       0000000000000.00 0000000.00   0000000.00                             000000000000000                                                                                                                                                     01418 A000000000000 0000000000000.47     00800 01500                  
01835280528540028DT67590675900000002881800888800000010180088824001193023900012600157012320230000000622102323000000000102418480639XXXXXX0039       VS11    0001111   NYV1 A E383023752047793N84000000000622143P400    05DNHAPPY HIPPIE             658866    VD84000000006221 N  549976487134                            000000000+                F DF 00381                     000000000  N000000000       0000000000000.00 0000000.00   0000000.00                             000000000000000                                                                                                                                                     01418 A000000000000 0000000000000.65     00800 01500                  
01835290528540029DT67590675900000002881800888800000010180088824001193023900012600165012320230000000439002323000000000102418435546XXXXXX4585       VS11    0001111   NYV1 A E303023757262670N840000000004390RMQ400    07DNHAPPY HIPPIE             042110    VD84000000004390 N  549976487134                            000000000+                F DF 10433                     000000000  Y000000000 338   0000000000000.00 0000000.00   0000000.00                             000000000000000                                                                                                                                                     01418 A000000000000 0000000000000.24     00050 02200                  
01835300528540030DT67590675900000002881800888800000010180088824001193023900012600173012320230000000197402323000000000102418460730XXXXXX9043       VS11    0001111   NYV1 A E463023762523290N840000000001974TSTZ00    05DNHAPPY HIPPIE             675061    VD84000000001974 N  549976487134                            000000000+                G DG 10351                     000000000  Y000000000 338   0000000000000.00 0000000.00   0000000.00                             000000000000000                                                                                                                                                     01418 A000000000000 0000000000000.23     00050 02200                  
01835310528540031DT67590675900000002881800888800000010180088824001193023900012600181012320230000000325802323000000000102418410801XXXXXX9806       VS11    0001111   NYV1 A E463023773404254N8400000000032588JLM00    05DNHAPPY HIPPIE             062900    VD84000000003258 N  549976487134                            000000000+                F DF 00381                     000000000  N000000000       0000000000000.00 0000000.00   0000000.00                             000000000000000                                                                                                                                                     01418 A000000000000 0000000000000.41     00800 01500                  
01835320528540032DT67590675900000002881800888800000010180088824001193023900012600199012320230000000594302323000000000102418498503XXXXXX1552       VS11    0001111   NYV1 A E383023812389811N840000000005943G4L200    05DNHAPPY HIPPIE             079313    VD84000000005943 N  549976487134                            000000000+                F DF 00381                     000000000  N000000000       0000000000000.00 0000000.00   0000000.00                             000000000000000                                                                                                                                                     01418 A000000000000 0000000000000.63     00800 01500                  
01835330528540033BH6759067590000000215480088880000090170123202302323000000000147330    0000090001890190N8008886759C01242023                                                                                                                                                                                                                                                                                                                                                                                                                                                                                                                                                                                                 
01835340528540034DT67590675900000002154800888800000010180088887287283023900018901907012320230000014733002323000000000147330546633XXXXXX7206       ME03KE06PT01      NY 4607AMCWOE1BK40123  N840000000147330          81DNDRIP DROP DISTRO LLC     09851S    MC84000000147330 N  519900000001   INV-000335               000000000+600450S00140    MCW  02182                     000000000  N                0000000000000.00 0000000.00   0000000.00                             000000000000000                                                                                                                                                   U001418  000000000000 0000000000038.41     02600 01000                  
01835350528540035BH6759067590000000096880088880000090170123202302323000000000010321    0000090001278858N8008886759C01242023                                                                                                                                                                                                                                                                                                                                                                                                                                                                                                                                                                                                 
01835360528540036DT67590675900000000968800888800000010180088824001193023900012788580012320230000001032102323000000000010321473702XXXXXX4584               2111111   NYV4 A7W463023023768122N8400000000103216JPZ00    01DNHIGHER FLOUR LLC         060537    VD84000000010321 NP1546271004114   RRFG7WUMKNIDDLDTKJEX     000000000+                F DF 10420                     000000000  Y000000000 338   0000000000000.00 0000000.00   0000000.00                             000000000000000                                                                                                                                                     01418 G000000010321 0000000000000.27     00050 02200                  
01835370528540001P16759067590000000096880088880000001010000000000000000                             2000000000000000000000000              000000000000                    0000000000000000000000000                    000000000000                                                                                                                                                                                                                                                                                                                                                                                                                                                                                        
