00002310298610002BH6759067590000000370780088880000090171213202234722000000000038498    0000090001020005Y8008886759C12142022                                                                                                                                                                                                                                                                                                                                                                                                                                                                                                                                                                                                 
00002320298610003DT67590675900000003707800888800000010180088824001192347900010200027121320220000000139934722000000000038498464873XXXXXX4161               2111111   NYV4 A7W462347774741766N840000000001399P2HD00    01DNMR HEMP FLOWER           103019    VD84000000001399 NP1549976053336   83011                    000000000+                G DG 10352                     000000000  Y000000000 338   0000000000000.00 0000000.00   0000000.00                             000000000000000                                                                                                                                                     01424 G000000001399 0000000000000.23     00050 02200                  
00002330298610001P16759067590000000370780088880000001010000000000000000                             2000000000000000000000000              000000000000                    0000000000000000000000000                    000000000000                                                                                                                                                                                                                                                                                                                                                                                                                                                                                        
00002340298610004DT67590675900000003707800888800000010680088874001192347900010200030121320220000000139934722000000000038498464873XXXXXX4161               0000000   NYV4 07T382347814210201N840000000001399L6NS85    01CNMR HEMP FLOWER           099283    VD84000000001399 NP1549976053336   83011                    000000000+                G DG 08168                     000000000  Y000000000 369   0000000000000.00 0000000.00   0000000.00                             000000000000000                                                                                                                                                     01424  000000001399 0000000000000.00     00000 00000                  
00002350298610001P16759067590000000370780088880000001060000000000000000                             2000000000000000000000000              000000000000                    0000000000000000000000000                    000000000000                                                                                                                                                                                                                                                                                                                                                                                                                                                                                        
00002360298610005DT67590675900000003707800888800000010180088824001192347900010200043121320220000003200034722000000000038498414776XXXXXX4037               2111111   NYV4 A7W462347857063623N840000000032000VK9D00    01DNMR HEMP FLOWER           713184    VS84000000032000 NP1549976053336   83023                    000000000+                D CD 12109                     000000000  N000000000 498   0000000000000.00 0000000.00   0000000.00                             000000000000000                                                                                                                                                     01424 G000000032000 0000000000008.10     02500 01000                  
00002370298610001P16759067590000000370780088880000001010000000000000000                             2000000000000000000000000              000000000000                    0000000000000000000000000                    000000000000                                                                                                                                                                                                                                                                                                                                                                                                                                                                                        
00002380298610006DT67590675900000003707800888800000010180088887287282347900010200051121320220000000649834722000000000038498521333XXXXXX6030       ME03KE06MS02      NY 4607AMWE3F0Z101213  N840000000006498          81DNMR HEMP FLOWER           01355Y    MC84000000006498 N  549976053336   83024                    000000000+600450S00130    MWE  00642                     000000000  N                0000000000000.00 0000000.00   0000000.00                             000000000000000                                                                                                                                                   U001424  000000000000 0000000000001.53     02200 01000                  
00002390298610007BH6759067590000000288180088880000090171213202234722000000000010465    0000090001200057Y8008886759C12142022                                                                                                                                                                                                                                                                                                                                                                                                                                                                                                                                                                                                 
00002400298610008DT67590675900000002881800888800000010180088824001192347900012000565121320220000000248234722000000000010465414720XXXXXX0625               2111111   NYV4 A7W462347593692628N840000000002482455J00    01DNHAPPY HIPPIE             07881D    VS84000000002482 NP1549976044904   1875                     000000000+                D CD 12109                     000000000  N000000000 498   0000000000000.00 0000000.00   0000000.00                             000000000000000                                                                                                                                                     01424 G000000002482 0000000000000.72     02500 01000                  
00002410298610001P16759067590000000288180088880000001010000000000000000                             2000000000000000000000000              000000000000                    0000000000000000000000000                    000000000000                                                                                                                                                                                                                                                                                                                                                                                                                                                                                        
00002420298610009DT67590675900000002881800888800000010180088824001192347900012000573121320220000000798334722000000000010465463034XXXXXX7407               2111111   NYV4 A7W302347759602180N840000000007983PH2400    01DNHAPPY HIPPIE             013703    VS84000000007983 NP1549976044904   1876                     000000000+                C CC 12108                     000000000  N000000000 496   0000000000000.00 0000000.00   0000000.00                             000000000000000                                                                                                                                                     01424 G000000007983 0000000000001.74     02050 01000                  
00002430298610001P16759067590000000288180088880000001010000000000000000                             2000000000000000000000000              000000000000                    0000000000000000000000000                    000000000000                                                                                                                                                                                                                                                                                                                                                                                                                                                                                        
