08418080680550834AD675906759000000198288001098000009077900013472250000001587506282023NYY17923YC6759800109063020232023166024714                                                                                                                                                                                                                                                                                                                                                                                                                                                                                                                                                                                              
08418090680550837AD675906759000000142748001028000009071900012769060000002487006282023NYY17923ND6759800102063020232023179022351                                                                                                                                                                                                                                                                                                                                                                                                                                                                                                                                                                                              
08418100680550840AD675906759000000133008001028000009071900012680230000002255006282023NYY17923ND6759800102063020232023179022352                                                                                                                                                                                                                                                                                                                                                                                                                                                                                                                                                                                              
08418110680550843AD675906759000000133008001028000009071900018209420000002106206282023NYY17923ND6759800102063020232023179022353                                                                                                                                                                                                                                                                                                                                                                                                                                                                                                                                                                                              
08418120680550846AD675906759000000161968001028000009071900016438680000000999806282023NYY17923ND6759800102063020232023179022354                                                                                                                                                                                                                                                                                                                                                                                                                                                                                                                                                                                              
08418130680921339AD675906759000000198288001098000009071231540013830000000993506282023NYY17923ND6759800109063020232023154001383                                                                                                                                                                                                                                                                                                                                                                                                                                                                                                                                                                                              
08418140680921342AD675906759000000151648008888000009071231780046360000001499106282023NYY17923ND6759800888063020232023178004636                                                                                                                                                                                                                                                                                                                                                                                                                                                                                                                                                                                              
08418150682667452BH6759067590000001982880010980000090170629202318023000000000064610    0000090001940664N8001096759D06302023094                                                                                                                                                                                                                                                                                                                                                                                                                                                                                                                                                                                              
08418160682667453DT67590675900000019828800109800000010180010924001193180900019405161062720230000002487018023000000000064610427514XXXXXX2423               2111111   YYV4 A7W583175525058754N840000000024870CLP900    01DNKETOFUSION 8885968154    292516    VD84000000024870 NDR599977547467   2A9FFB668FT9622296E8730  000000000+                F DF 10420                     000000000  Y000000000 338   0000000000000.00 0000000.00   0000000.00                             000000000000000                                                                                                                                                     015WPEG000000024870 0000000000000.34     00050 02200                  
08418170682667453DR6759067590000001982880010980000001012A9FFB668FT9622296E8730  Y000000024870                 P1                                                                                                                                                                                                                                                                                                                                                                                                                                                                                                                                                                                                            
08418180682660001P16759067590000001982880010980000001010000000000000000                             2000000000000000000000000              000000000000                    0000000000000000000000000                    000000000000                                                                                                                                                                                                                                                                                                                                                                                                                                                                                        
08418190682660002G2675906759000000198288001098000000101888-5968154              UT           9 D                00                                      NNNN   N                      000000000000                                                                   77547467                                                                                                                                                                                                                                                                                                                                                                                                                                               
08418200682667454DT67590675900000019828800109800000010680010987287283180900019406707062820230000002487018023000000000064610514759XXXXXX2272                         YY94607N         0628  N840000000000000          81CNKETOFUSION 8885968154              MD84000000024870 N  599977547467   40430B44B8T3F7423092308  000000000+600450S00130    MDJ  10828                     000000000  1                0000000000000.00 0000000.00   0000000.00                             000000000000000                                                                                                                                                     015WPE 000000000000 0000000000000.00     00000 00000                  
08418210682660001G26759067590000001982880010980000001068885968154               UT           9 J               210                                      NNNN           210000000000000000000000000                        7                                          77547467                                                                                                                                                                                                                                                                                                                                                                                                                                               
08418220682667455DT67590675900000019828800109800000010680010987287283180900019406715062820230000001987018023000000000064610548013XXXXXX0979                         YY94607N         0628  N840000000000000          81CNKETOFUSION 8885968154              MD84000000019870 NP1599977547467   C09E09EB7ET8C05E63BE51B  000000000+600450S00130    MDB  10800                     000000000  1                0000000000000.00 0000000.00   0000000.00                             000000000000000                                                                                                                                                     015WPE 000000000000 0000000000000.00     00000 00000                  
08418230682660001P1675906759000000198288001098000000106                                                          000000000000          8000            884295529                                                                                                                                                                                                                                                                                                                                                                                                                                                                                                                                                            
08418240682660002G26759067590000001982880010980000001068885968154               UT           9 B               210                  884295529           YNNN           210000000000000000000000000                                                                   77547467                                                                                                                                                                                                                                                                                                                                                                                                                                               
08418250682667456DT67590675900000019828800109800000010680010987287283180900019406632062820230000002487018023000000000064610546234XXXXXX9684                         YY 4607AMDSX83GYO0628  N840000000024870          81CNKETOFUSION 8885968154    028473    MD84000000024870 NDR599977547467   E5A8224FDET3E3BDF40BD68  000000000+600450S00130    MDS  00560                     000000000  N                0000000000000.00 0000000.00   0000000.00                             000000000000000                                                                                                                                                     015WPE 000000000000 0000000000000.00     00000 00000                  
08418260682667456DR675906759000000198288001098000000106E5A8224FDET3E3BDF40BD68  R000000000000                                                                                                                                                                                                                                                                                                                                                                                                                                                                                                                                                                                                                               
08418270682660001G26759067590000001982880010980000001068885968154               UT           9 S               210                                      NNNN           210000000000000000000000000                        7                                          77547467                                                                                                                                                                                                                                                                                                                                                                                                                                               
08418280682667457DT67590675900000019828800109800000010680010987287283180900019406640062820230000001987018023000000000064610534303XXXXXX9370                         YY 4607AMDSGIOQX90628  N840000000019870          81CNKETOFUSION 8885968154    000570    MD84000000019870 NDR599977547467   F6EF901FA8TFB902CE65C27  000000000+600450S00130    MDS  00560                     000000000  N                0000000000000.00 0000000.00   0000000.00                             000000000000000                                                                                                                                                     015WPE 000000000000 0000000000000.00     00000 00000                  
08418290682667457DR675906759000000198288001098000000106F6EF901FA8TFB902CE65C27  Y000000000000                                                                                                                                                                                                                                                                                                                                                                                                                                                                                                                                                                                                                               
08418300682660001G26759067590000001982880010980000001068885968154               UT           9 S               210                                      NNNN           210000000000000000000000000                        7                                          77547467                                                                                                                                                                                                                                                                                                                                                                                                                                               
08418310682667460BH6759067590000001516480088880000090170629202318023000000000017138    0000090001218852N8008886759D06302023121                                                                                                                                                                                                                                                                                                                                                                                                                                                                                                                                                                                              
08418320682667461DT67590675900000015164800888800000010680088887287283180900012188427062820230000001194818023000000000017138546633XXXXXX4611                         YY 4607AMCWWC82T10628  N840000000011948          81CNKETOFUSION833-923-3587   064523    MC84000000011948 NDR599977360677   14FE1C6A71T6D912C2853CC  000000000+600450S00130    MCW  00564                     000000000  N                0000000000000.00 0000000.00   0000000.00                             000000000000000                                                                                                                                                     015WPE 000000000000-0000000000002.09     01750 00000                  
08418330682667461DR67590675900000015164800888800000010614FE1C6A71T6D912C2853CC  Y000000000000                                                                                                                                                                                                                                                                                                                                                                                                                                                                                                                                                                                                                               
08418340682660001G26759067590000001516480088880000001068014041097               UT           9 W               210                                      NNNN           210000000000000000000000000                        7                                          77360677                                                                                                                                                                                                                                                                                                                                                                                                                                               
08418350682667462DT67590675900000015164800888800000010680088887287283180900012188526062820230000000519018023000000000017138548013XXXXXX0979                         YY94607N         0628  N840000000000000          81CNKETOFUSION833-923-3587             MD84000000005190 NP1599977360677   C09E09EB7ET555B28BB0287  000000000+600450S00130    MDB  10800                     000000000  1                0000000000000.00 0000000.00   0000000.00                             000000000000000                                                                                                                                                     015WPE 000000000000 0000000000000.00     00000 00000                  
08418360682660001P1675906759000000151648008888000000106                                                          000000000000          8000            884295529                                                                                                                                                                                                                                                                                                                                                                                                                                                                                                                                                            
08418370682660002G26759067590000001516480088880000001068014041097               UT           9 B               210                  884295529           YNNN           210000000000000000000000000                                                                   77360677                                                                                                                                                                                                                                                                                                                                                                                                                                               
08418380682667465BH6759067590000001767380010680000090170629202318023000000000031589    0000090001742198N8001066759D06302023074                                                                                                                                                                                                                                                                                                                                                                                                                                                                                                                                                                                              
08418390682667466DT67590675900000017673800106800000010680010687287283180900017421971062720230000001416318023000000000031589517552XXXXXX6958                         YY 4607AMDJU7KLF50627  N840000000014163          81CNVGHEMP.COM833-246-5225   027221    MD84000000014163 NDR549977427364   057FCFD7D0T603C1EF06FF8  000000000+600450S00130    MDJ  00560                     000000000  N                0000000000000.00 0000000.00   0000000.00                             000000000000000                                                                                                                                                     015WPE 000000000000 0000000000000.00     00000 00000                  
08418400682667466DR675906759000000176738001068000000106057FCFD7D0T603C1EF06FF8  R000000000000                                                                                                                                                                                                                                                                                                                                                                                                                                                                                                                                                                                                                               
08418410682660001G26759067590000001767380010680000001067203077930               CA           9 J               210                                      NNNN           210000000000000000000000000                        7                                          77427364                                                                                                                                                                                                                                                                                                                                                                                                                                               
08418420682667467DT67590675900000017673800106800000010680010687287283180900017421989062820230000001742618023000000000031589517805XXXXXX2808                         YY 4607AMPLGLZMX90628  N840000000017426          81CNVGHEMP.COM833-246-5225   007494    MC84000000017426 NDR549977427364   D385AC5CE2T443170573D32  000000000+600450S00130    MPL  00565                     000000000  N                0000000000000.00 0000000.00   0000000.00                             000000000000000                                                                                                                                                     015WPE 000000000000-0000000000003.05     01750 00000                  
08418430682667467DR675906759000000176738001068000000106D385AC5CE2T443170573D32  Y000000000000                                                                                                                                                                                                                                                                                                                                                                                                                                                                                                                                                                                                                               
08418440682660001G26759067590000001767380010680000001067203077930               CA           9 L               210                                      NNNN           210000000000000000000000000                        7                                          77427364                                                                                                                                                                                                                                                                                                                                                                                                                                               
08418450683410002BH6759067590000000288180088880000090170629202318023000000000088417    0000090001600018N8008886759C06302023160                                                                                                                                                                                                                                                                                                                                                                                                                                                                                                                                                                                              
08418460683410003DT67590675900000002881800888800000010180088824001193180900016000015062920230000000558518023000000000088417422921XXXXXX5630       VS11    0001111   NYV1 A E463180511840976N840000000005585SD4K00    05DNHAPPY HIPPIE             036785    VD84000000005585 N  549976487158                            000000000+                F DF 00381                     000000000  N000000000       0000000000000.00 0000000.00   0000000.00                             000000000000000                                                                                                                                                     01418 A000000000000 0000000000000.60     00800 01500                  
08418470683410001E167590675900000002881800888800000010100E0F8C80181 00000000000.004040404040404040404040404040404040404040404040404006011203A08000000000000000000000404040404040404040404040404040  0000084018008080008000230629ACFB5C5EBB377D33E0744FE1404040400840A00000000310100000000000000000002BC132820382000000000000000000004040401E40404040 000000055.85 000000000.001E00000000000000000000    80                                                                                                                                                                                                                                                                                                                  
08418480683410002G2675906759000000028818008888000000101SEVIERVILLE              TN           5 D                00                                      NNNN00 N 00                   000000000000                                                                   76487158                                                                                                                                                                                                                                                                                                                                                                                                                                               
08418490683410004DT67590675900000002881800888800000010180088824001193180900016000023062920230000000361718023000000000088417440066XXXXXX9336       VS11    0001111   NYV1 A E383180512709526N840000000003617BG8M00    05DNHAPPY HIPPIE             06053D    VS84000000003617 N  549976487158                            000000000+                D CD 12113                     000000000  N000000000 499   0000000000000.00 0000000.00   0000000.00                             000000000000000                                                                                                                                                     01418 A000000000000 0000000000000.86     02100 01000                  
08418500683410001E167590675900000002881800888800000010100E0F8C80174 00000000000.004040404040404040404040404040404040404040404040404006011203A0A000000000000000000000404040404040404040404040404040  00010840180080800080002306295FB01F5230C0BEDEE5BCD003404040400840A000000003101000000000000000000032587B580082000000000000000000004040401E40404040 000000036.17 000000000.001E03000000000000000000    80                                                                                                                                                                                                                                                                                                                  
08418510683410002G2675906759000000028818008888000000101SEVIERVILLE              TN           5 C                00                                      NNNN00 Y 00                   000000000000                                                                   76487158                                                                                                                                                                                                                                                                                                                                                                                                                                               
08418520683410005DT67590675900000002881800888800000010180088824001193180900016000031062920230000000651918023000000000088417401154XXXXXX4204       VS11    0001111   NYV1 A E383180517515254N840000000006519LH5800    05DNHAPPY HIPPIE             098684    VD84000000006519 N  549976487158                            000000000+                F DF 10433                     000000000  Y000000000 338   0000000000000.00 0000000.00   0000000.00                             000000000000000                                                                                                                                                     01418 A000000000000 0000000000000.25     00050 02200                  
08418530683410001E167590675900000002881800888800000010100E0F8C805E8 00000000000.004040404040404040404040404040404040404040404040404006010A03A08000000000000000000000404040404040404040404040404040  00000840180080800080002306292C1B2E8B582657094D241F80404040400840A0000000031010000000000000000000EA28A5F129F7FDDE30300000000000004040401E40404040 000000065.19 000000000.001E00000000000000000000    80                                                                                                                                                                                                                                                                                                                  
08418540683410002G2675906759000000028818008888000000101SEVIERVILLE              TN           5 D                00                                      NNNN00 N 00                   000000000000                                                                   76487158                                                                                                                                                                                                                                                                                                                                                                                                                                               
08418550683410006DT67590675900000002881800888800000010180088877287283180900016000041062920230000000625418023000000000088417517805XXXXXX3729       MS02WI09          NY 1 0 AMPLJLOY630629  N840000000006254          07DNHAPPY HIPPIE             00704B    MC84000000006254 N  549976487158                            000000000+M10101M5434C    MPL  00364                     000000000  N                0000000000000.00 0000000.00   0000000.00                             000000000000000                                                                                                                                                   B101418  000000000000 0000000000001.17     01800 00400                  
08418560683410001E1675906759000000028818008888000000101000060C8000B 00000000000.00404040404040404040404040404040404040404040404040400110A04001220000000000000000000000FF00000000000000000000000000  0001084019800000008001230629770AB750671D26B5E9030035404040400840A0000000041010000000000000000000404040404040404040404040404040404040401E40404040 000000062.54 000000000.001E03000000000000000000    80                                                                                                                                                                                                                                                                                                                  
08418570683410002G2675906759000000028818008888000000101SEVIERVILLE              TN           5 L                                                        NNNN              000000000000000000000000       03               7                                          76487158                                                                                                                                                                                                                                                                                                                                                                                                                                               
08418580683410007DT67590675900000002881800888800000010180088877287283180900016000058062920230000000241118023000000000088417514517XXXXXX5063       MS02WI09          NY 1 0 AMDSRABN350629  N840000000002411          05DNHAPPY HIPPIE             833782    MD84000000002411 N  549976487158                            000000000+M10101C5434C    MDS  00402                     000000000  N                0000000000000.00 0000000.00   0000000.00                             000000000000000                                                                                                                                                   B101418  000000000000 0000000000000.40     01050 01500                  
08418590683410001E167590675900000002881800888800000010100E0F8C80191 00000000000.00404040404040404040404040404040404040404040404040400110A00001220000000000000000000000FF00000000000000000000000000  00010840180080000080002306292242C1B4FD96A6F8C08E28EF404040400840A0000000041010000000000000000000714CEEC360FA86ED03120000000000004040401E40404040 000000024.11 000000000.001E03000000000000000000    80                                                                                                                                                                                                                                                                                                                  
08418600683410002G2675906759000000028818008888000000101SEVIERVILLE              TN           5 S                                                        NNNN              000000000000000000000000                                                                   76487158                                                                                                                                                                                                                                                                                                                                                                                                                                               
08418610683410008DT67590675900000002881800888800000010180088824001193180900016000064062920230000000192118023000000000088417419090XXXXXX5864       VS11    0001111   NYV1 A E383180524993404N840000000001921H6LH00    05DNHAPPY HIPPIE             439484    VD84000000001921 N  549976487158                            000000000+                F DF 00381                     000000000  N000000000       0000000000000.00 0000000.00   0000000.00                             000000000000000                                                                                                                                                     01418 A000000000000 0000000000000.30     00800 01500                  
08418620683410001E167590675900000002881800888800000010100E0F8C802F7 00000000000.004040404040404040404040404040404040404040404040404006010A03A0A000000000000000000000404040404040404040404040404040  0001084018008080008000230629EC864CD0BB6DC885371DBE4E404040400840A00000000310100000000000000000008F30456D8CA6D32A30300000000000004040401E40404040 000000019.21 000000000.001E00000000000000000000    80                                                                                                                                                                                                                                                                                                                  
08418630683410002G2675906759000000028818008888000000101SEVIERVILLE              TN           5 D                00                                      NNNN00 N 00                   000000000000                                                                   76487158                                                                                                                                                                                                                                                                                                                                                                                                                                               
08418640683410009DT67590675900000002881800888800000010180088877287283180900016000074062920230000000246818023000000000088417539689XXXXXX1882       MS02WI09          NY 1 0 AMDHJXI0630629  N840000000002468          05DNHAPPY HIPPIE             833320    MD84000000002468 N  549976487158                            000000000+M10101C5434C    MDH  00402                     000000000  N                0000000000000.00 0000000.00   0000000.00                             000000000000000                                                                                                                                                   B101418  000000000000 0000000000000.41     01050 01500                  
08418650683410001E167590675900000002881800888800000010100E0F8C8002E 00000000000.00404040404040404040404040404040404040404040404040400114A04001220000000000000000000000FF00000000000000000000000000  00000840390000000080002306294C2795BB8B6186105D13FAD8404040400840A00000000410100000000000000000004B9337A628921E8A00120000000000004040401E40404040 000000024.68 000000000.001E03000000000000000000    80                                                                                                                                                                                                                                                                                                                  
08418660683410002G2675906759000000028818008888000000101SEVIERVILLE              TN           5 H                                                        NNNN              000000000000000000000000                        7                                          76487158                                                                                                                                                                                                                                                                                                                                                                                                                                               
08418670683410010DT67590675900000002881800888800000010180088824001193180900016000080062920230000000877218023000000000088417449507XXXXXX2935       VS11    0001111   NYV1 A E303180577447427N840000000008772QV5H00    07DNHAPPY HIPPIE             020224    VD84000000008772 N  549976487158                            000000000+                F DF 00381                     000000000  N000000000       0000000000000.00 0000000.00   0000000.00                             000000000000000                                                                                                                                                     01418 A000000000000 0000000000000.85     00800 01500                  
08418680683410001E167590675900000002881800888800000010100E068C8007B 00000000000.004040404040404040404040404040404040404040404040404006011203A00000000000000000000000404040404040404040404040404040  0000084020000000000000230629FA4C22E34F575E253B807084404040400840A0000000031010000000000000000000404040404040404040404040404040404040404040404040 000000087.72 000000000.004040400000000000000000    80                                                                                                                                                                                                                                                                                                                  
08418690683410002G2675906759000000028818008888000000101SEVIERVILLE              TN           5 D                00                                      NNNN00 N 00                   000000000000                                                                   76487158                                                                                                                                                                                                                                                                                                                                                                                                                                               
08418700683410011DT67590675900000002881800888800000010180088824001193180900016000098062920230000000246818023000000000088417437303XXXXXX1202       VS11    0001111   NYV1 A E303180582582310N840000000002468DHMM00    05DNHAPPY HIPPIE             029811    VD84000000002468 N  549976487158                            000000000+                F PF 08170                     000000000  N000000000       0000000000000.00 0000000.00   0000000.00                             000000000000000                                                                                                                                                     01418 A000000000000 0000000000000.43     01150 01500                  
08418710683410001E167590675900000002881800888800000010100E0F8C804AF 00000000000.004040404040404040404040404040404040404040404040404006010A03A08000000000000000000000404040404040404040404040404040  0000084018008080008000230629B31879A1C60FA942D00AD826404040400840A00000000310100000000000000000008CF299AAFDE3D8FE30300000000000004040401E40404040 000000024.68 000000000.001E00000000000000000000    80                                                                                                                                                                                                                                                                                                                  
08418720683410002G2675906759000000028818008888000000101SEVIERVILLE              TN           5 P                00                                      NNNN00 N 00                   000000000000                                                                   76487158                                                                                                                                                                                                                                                                                                                                                                                                                                               
08418730683410012DT67590675900000002881800888800000010180088824001193180900016000106062920230000000454118023000000000088417404227XXXXXX9324       VS11    0001111   NYV1 A E583180617647354N8400000000045418XZL00    05DNHAPPY HIPPIE             401813    VD84000000004541 N  549976487158                            000000000+                F DF 00381                     000000000  N000000000       0000000000000.00 0000000.00   0000000.00                             000000000000000                                                                                                                                                     01418 A000000000000 0000000000000.51     00800 01500                  
08418740683410001E167590675900000002881800888800000010100E0F8C80376 00000000000.004040404040404040404040404040404040404040404040404006011203A02000000000000000000000404040404040404040404040404040  0000084018008080008000230629C61F5DFD77A5541D59636095404040400840A0000000031010000000000000000000B8F254000382000000000000000000004040401E40404040 000000045.41 000000000.001E00000000000000000000    80                                                                                                                                                                                                                                                                                                                  
08418750683410002G2675906759000000028818008888000000101SEVIERVILLE              TN           5 D                00                                      NNNN00 N 00                   000000000000                                                                   76487158                                                                                                                                                                                                                                                                                                                                                                                                                                               
08418760683410013DT67590675900000002881800888800000010180088824001193180900016000114062920230000000658518023000000000088417473703XXXXXX9569       VS11    0001111   NYV1 A E383180619035342N840000000006585NP4G00    07DNHAPPY HIPPIE             031919    VD84000000006585 N  549976487158                            000000000+                F DF 10433                     000000000  Y000000000 338   0000000000000.00 0000000.00   0000000.00                             000000000000000                                                                                                                                                     01418 A000000000000 0000000000000.25     00050 02200                  
08418770683410001E167590675900000002881800888800000010100E068C80356 00000000000.004040404040404040404040404040404040404040404040404006061203A00000000000000000000000404040404040404040404040404040  0000084000000000000000230629765505F11E67394508CB02A3404040400840A000000003101000000000000000000090A020408040400020200000000000004040404040404040 000000065.85 000000000.004040400000000000000000    80                                                                                                                                                                                                                                                                                                                  
08418780683410002G2675906759000000028818008888000000101SEVIERVILLE              TN           5 D                00                                      NNNN00 N 00                   000000000000                                                                   76487158                                                                                                                                                                                                                                                                                                                                                                                                                                               
08418790683410014DT67590675900000002881800888800000010180088876509753180900016000120062920230000001447918023000000000088417601100XXXXXX2796   BA50                  NY41 0 N873155223811022N840000000014479    00    05DNHAPPY HIPPIE             02908R    DS84000000014479 N  549976487158050                         000000000+0000004910H00   DCCDI01000166125  124621000000 000000000  0          112   0000000000000.00 0000000.00   0000000.00                             000000000000000                                                                                                                                                     01418  000000000000 0000000000002.59     01720 01000                  
08418800683410001E167590675900000002881800888800000010100E0F8C80086 00000000000.00404040404040404040404040404040404040404040404040400105A080038000000000000000000000404040404040404040404040404040  0001084078000000008000230629ADF8C8D8B8340F78D804D5F5404040400840A0000001523010000000000000000000B97023ED2302927500320000000000004040401E40404040 000000144.79 000000000.001E03000000000000000000    80                                                                                                                                                                                                                                                                                                                  
08418810683410002G2675906759000000028818008888000000101SEVIERVILLE              TN           5 C                00                                      NNNN                          000000000000                         00000650975601179750000063                76487158                                                                                                                                                                                                                                                                                                                                                                                                                                               
08418820683410015DT67590675900000002881800888800000010180088824001193180900016000130062920230000000635918023000000000088417425828XXXXXX7084       VS11    0001111   NYV1 A E303180715424005N8400000000063595JM300    07DNHAPPY HIPPIE             069083    VD84000000006359 N  549976487158                            000000000+                F DF 10433                     000000000  Y000000000 338   0000000000000.00 0000000.00   0000000.00                             000000000000000                                                                                                                                                     01418 A000000000000 0000000000000.25     00050 02200                  
08418830683410001E167590675900000002881800888800000010100E068C8003D 00000000000.004040404040404040404040404040404040404040404040404006011203A00000000000000000000000404040404040404040404040404040  0000084020000000000000230629276B9F68232BA0FF2B62F2DC404040400840A00000000310100000000000000000006C382D290086000000000000000000004040404040404040 000000063.59 000000000.004040400000000000000000    80                                                                                                                                                                                                                                                                                                                  
08418840683410002G2675906759000000028818008888000000101SEVIERVILLE              TN           5 D                00                                      NNNN00 N 00                   000000000000                                                                   76487158                                                                                                                                                                                                                                                                                                                                                                                                                                               
08418850683410016DT67590675900000002881800888800000010180088877287283180900016000140062920230000000641818023000000000088417511953XXXXXX7703       MS02WI09          NY 1 0 AMDJSSKIQC0629  N840000000006418          05DNHAPPY HIPPIE             095248    MD84000000006418 N  549976487158                            000000000+M10101C5434C    MDJ  00402                     000000000  N                0000000000000.00 0000000.00   0000000.00                             000000000000000                                                                                                                                                   B101418  000000000000 0000000000000.82     01050 01500                  
08418860683410001E167590675900000002881800888800000010100E0F8C800BB 00000000000.00404040404040404040404040404040404040404040404040400110A04001220000000000000000000000FF00000000000000000000000000  000008403900000000800023062918A97BB1526558695B287D57404040400840A0000000041010000000000000000000A3440A288033FFF2031A0000000000004040401E40404040 000000064.18 000000000.001E03000000000000000000    80                                                                                                                                                                                                                                                                                                                  
08418870683410002G2675906759000000028818008888000000101SEVIERVILLE              TN           5 J                                                        NNNN              000000000000000000000000                        7                                          76487158                                                                                                                                                                                                                                                                                                                                                                                                                                               
08418880683410017DT67590675900000002881800888800000010180088877287283180900016000157062920230000000169718023000000000088417536759XXXXXX8354       MS02WI09          NY 1 0 AMDJIJM8FL0629  N840000000001697          05DNHAPPY HIPPIE             039139    MD84000000001697 N  549976487158                            000000000+M10101C5434C    MDJ  10815                     000000000  1                0000000000000.00 0000000.00   0000000.00                             000000000000000                                                                                                                                                   B101418  000000000000 0000000000000.23     00050 02200                  
08418890683410001E167590675900000002881800888800000010100E0F8C8024F 00000000000.00404040404040404040404040404040404040404040404040400110A04001220000000000000000000000FF00000000000000000000000000  00000840390000000080002306295E37EDE750C27BB7747E30E1404040400840A0000000041010000000000000000000DD9B250F27D7FD90031A0000000000004040401E40404040 000000016.97 000000000.001E03000000000000000000    80                                                                                                                                                                                                                                                                                                                  
08418900683410002G2675906759000000028818008888000000101SEVIERVILLE              TN           5 J                                                        NNNN              000000000000000000000000                        7                                          76487158                                                                                                                                                                                                                                                                                                                                                                                                                                               
08418910683410018DT67590675900000002881800888800000010180088824001193180900016000163062920230000000088818023000000000088417480639XXXXXX3046       VK04VS111111111   NYV1 A E383180748866720N840000000000888QPP300    05DNHAPPY HIPPIE             444376    VD84000000000888 N  549976487158                            000000000+                F DF 00451                     000000000  N000000000 214   0000000000000.00 0000000.00   0000000.00                             000000000000000                                                                                                                                                     01418 F000000000000 0000000000000.18     01550 00400                  
08418920683410001E167590675900000002881800888800000010100E0F8C80104 00000000000.004040404040404040404040404040404040404040404040404006011203A0A000000000000000000000404040404040404040404040404040  00000840180080800080002306294756F6D3FCA98774F697779D404040400840A0000000031010000000000000000000C80166D50080000000000000000000004040401E40404040 000000008.88 000000000.001E00000000000000000000    80                                                                                                                                                                                                                                                                                                                  
08418930683410002G2675906759000000028818008888000000101SEVIERVILLE              TN           5 D                00                                      NNNN00 N 00                   000000000000                                                                   76487158                                                                                                                                                                                                                                                                                                                                                                                                                                               
08418940683410019DT67590675900000002881800888800000010180088877287283180900016000173062920230000000438618023000000000088417518941XXXXXX5348       MS02WI09          NY 1 0 AMWEPFCJR00629  N840000000004386          07DNHAPPY HIPPIE             38070Z    MC84000000004386 N  549976487158                            000000000+M10101M0034C    MWE  00743                     000000000  N                0000000000000.00 0000000.00   0000000.00                             000000000000000                                                                                                                                                   B101418  000000000000 0000000000001.05     02300 00400                  
08418950683410001E1675906759000000028818008888000000101000008480269 00000000000.00404040404040404040404040404040404040404040404040400110A04001220000000000000000000000FF00000000000000000000000000  000108401980000000800123062998CDC0120BB47DBD96041681404040400840A000000004101000000000000000000055749A14C130EB0900120000000000004040401F40404040 000000043.86 000000000.001F03020000000000000000    80                                                                                                                                                                                                                                                                                                                  
08418960683410002G2675906759000000028818008888000000101SEVIERVILLE              TN           5 E                                                        NNNN              000000000000000000000000       03               7                                          76487158                                                                                                                                                                                                                                                                                                                                                                                                                                               
08418970683410020DT67590675900000002881800888800000010180088824001193180900016000189062920230000000304918023000000000088417414718XXXXXX1080       VS11    0001111   NYV1 A E463180791663483N840000000003049XS7F00    05DNHAPPY HIPPIE             029267    VS84000000003049 N  549976487158                            000000000+                D CD 12113                     000000000  N000000000 499   0000000000000.00 0000000.00   0000000.00                             000000000000000                                                                                                                                                     01418 A000000000000 0000000000000.74     02100 01000                  
08418980683410001E167590675900000002881800888800000010100E0F8C80028 00000000000.004040404040404040404040404040404040404040404040404006031203A0A000000000000000000000404040404040404040404040404040  0002084018008080008000230629897C4F7436F12255F024CA8E404040400840A000000003101000000000000000000012F15D9C0082000000000000000000004040401E40404040 000000030.49 000000000.001E00000000000000000000    80                                                                                                                                                                                                                                                                                                                  
08418990683410002G2675906759000000028818008888000000101SEVIERVILLE              TN           5 C                00                                      NNNN00 Y 00                   000000000000                                                                   76487158                                                                                                                                                                                                                                                                                                                                                                                                                                               
08419000683410021BH6759067590000000288180088880000090170629202318023000000000222206    0000090001490038N8008886759C06302023049                                                                                                                                                                                                                                                                                                                                                                                                                                                                                                                                                                                              
08419010683410022DT67590675900000002881800888800000010180088824001193180900014900018062920230000000548618023000000000222206440393XXXXXX5401       VS11    0001111   NYV1 A E383180521372395N840000000005486FD2D00    05DNHAPPY HIPPIE             074783    VD84000000005486 N  549976487169                            000000000+                F PF 08170                     000000000  N000000000       0000000000000.00 0000000.00   0000000.00                             000000000000000                                                                                                                                                     01418 A000000000000 0000000000000.78     01150 01500                  
08419020683410001E167590675900000002881800888800000010100E0F8C801C6 00000000000.004040404040404040404040404040404040404040404040404006011203A08000000000000000000000404040404040404040404040404040  00000840180080800080002306297E64C5CD6D04716EE7E1B0B4404040400840A0000000031010000000000000000000BC4EAA71C704F2D130300000000000004040401E40404040 000000054.86 000000000.001E00000000000000000000    80                                                                                                                                                                                                                                                                                                                  
08419030683410002G2675906759000000028818008888000000101SEVIERVILLE              TN           5 P                00                                      NNNN00 N 00                   000000000000                                                                   76487169                                                                                                                                                                                                                                                                                                                                                                                                                                               
08419040683410023DT67590675900000002881800888800000010180088877287283180900014900028062920230000000438918023000000000222206523914XXXXXX5349       MS02WI09          NY 1 0 AMCWUAPT560629  N840000000004389          05DNHAPPY HIPPIE             07182Z    MC84000000004389 N  549976487169                            000000000+M10101C5434C    MCW  00646                     000000000  N                0000000000000.00 0000000.00   0000000.00                             000000000000000                                                                                                                                                   B101418  000000000000 0000000000000.87     01900 00400                  
08419050683410001E167590675900000002881800888800000010100E0F8C80013 00000000000.00404040404040404040404040404040404040404040404040401910A04001220000000000000000000000FF00000000000000000000000000  0001084039000000008000230629BACB642C08833E0DF8BD4B49404040400840A00000000410100000000000000000008A97CEF199B5373F00120000000000004040401E40404040 000000043.89 000000000.001E03000000000000000000    80                                                                                                                                                                                                                                                                                                                  
08419060683410002G2675906759000000028818008888000000101SEVIERVILLE              TN           5 W                                                        NNNN              000000000000000000000000                        7                                          76487169                                                                                                                                                                                                                                                                                                                                                                                                                                               
08419070683410024DT67590675900000002881800888800000010180088877287283180900014900036062920230000000246818023000000000222206511953XXXXXX5791       MS02WI09          NY 1 0 AMDJSOSZ470629  N840000000002468          05DNHAPPY HIPPIE             091597    MD84000000002468 N  549976487169                            000000000+M10101C5434C    MDJ  00402                     000000000  N                0000000000000.00 0000000.00   0000000.00                             000000000000000                                                                                                                                                   B101418  000000000000 0000000000000.41     01050 01500                  
08419080683410001E167590675900000002881800888800000010100E0F8C80385 00000000000.00404040404040404040404040404040404040404040404040400110A00001220000000000000000000000FF00000000000000000000000000  0001084018008000008000230629C6E8BCB62E895C22CEF605C9404040400840A00000000410100000000000000000005B1D9767B6CA1BB4031A0000000000004040401E40404040 000000024.68 000000000.001E03000000000000000000    80                                                                                                                                                                                                                                                                                                                  
08419090683410002G2675906759000000028818008888000000101SEVIERVILLE              TN           5 J                                                        NNNN              000000000000000000000000                        7                                          76487169                                                                                                                                                                                                                                                                                                                                                                                                                                               
08419100683410025DT67590675900000002881800888800000010180088877287283180900014900044062920230000000246818023000000000222206515676XXXXXX2737       MS02WI09          NY 1 0 AMWEZL6S350629  N840000000002468          07DNHAPPY HIPPIE             01887Z    MC84000000002468 N  549976487169                            000000000+M10101M0034C    MWE  00743                     000000000  N                0000000000000.00 0000000.00   0000000.00                             000000000000000                                                                                                                                                   B101418  000000000000 0000000000000.61     02300 00400                  
08419110683410001E1675906759000000028818008888000000101000008480007 00000000000.00404040404040404040404040404040404040404040404040400110A04001220000000000000000000000FF00000000000000000000000000  0001084019800000008001230629B6B6E5705C1956CF0DE0705A404040400840A0000000041010000000000000000000404040404040404040404040404040404040401F40404040 000000024.68 000000000.001F03020000000000000000    80                                                                                                                                                                                                                                                                                                                  
08419120683410002G2675906759000000028818008888000000101SEVIERVILLE              TN           5 E                                                        NNNN              000000000000000000000000       03               7                                          76487169                                                                                                                                                                                                                                                                                                                                                                                                                                               
08419130683410026DT67590675900000002881800888800000010180088824001193180900014900059062920230000000345518023000000000222206415978XXXXXX3166       VS11    0001111   NYV1 A E303180544642620N840000000003455FGBQ00    05DNHAPPY HIPPIE             005718    VD84000000003455 N  549976487169                            000000000+                F DF 10433                     000000000  Y000000000 338   0000000000000.00 0000000.00   0000000.00                             000000000000000                                                                                                                                                     01418 A000000000000 0000000000000.24     00050 02200                  
08419140683410001E167590675900000002881800888800000010100E0F8C800C1 00000000000.004040404040404040404040404040404040404040404040404006011203A0A000000000000000000000404040404040404040404040404040  00000840180080800080002306299E6D3EB91BAB3287E2FB7649404040400840A000000003101000000000000000000011DCB51800C74BB330300000000000004040401E40404040 000000034.55 000000000.001E00000000000000000000    80                                                                                                                                                                                                                                                                                                                  
08419150683410002G2675906759000000028818008888000000101SEVIERVILLE              TN           5 D                00                                      NNNN00 N 00                   000000000000                                                                   76487169                                                                                                                                                                                                                                                                                                                                                                                                                                               
08419160683410027DT67590675900000002881800888800000010180088824001193180900014900067062920230000000362118023000000000222206443238XXXXXX4331       VS11    0001111   NYV1 A E303180559074952N8400000000036217PJ600    07DNHAPPY HIPPIE             013147    VD84000000003621 N  549976487169                            000000000+                F DF 00381                     000000000  N000000000       0000000000000.00 0000000.00   0000000.00                             000000000000000                                                                                                                                                     01418 A000000000000 0000000000000.44     00800 01500                  
08419170683410001E167590675900000002881800888800000010100E068C80038 00000000000.004040404040404040404040404040404040404040404040404006011203A00000000000000000000000404040404040404040404040404040  000008400000000000000023062965765DABE1CA506FE1A1842A404040400840A0000000031010000000000000000000404040404040404040404040404040404040404040404040 000000036.21 000000000.004040400000000000000000    80                                                                                                                                                                                                                                                                                                                  
08419180683410002G2675906759000000028818008888000000101SEVIERVILLE              TN           5 D                00                                      NNNN00 N 00                   000000000000                                                                   76487169                                                                                                                                                                                                                                                                                                                                                                                                                                               
08419190683410028DT67590675900000002881800888800000010180088824001193180900014900075062920230000000373018023000000000222206448261XXXXXX4150       VS11    0001111   NYV1 A E463180566859678N840000000003730H6VJ00    07DNHAPPY HIPPIE             664566    VD84000000003730 N  549976487169                            000000000+                F DF 10433                     000000000  Y000000000 338   0000000000000.00 0000000.00   0000000.00                             000000000000000                                                                                                                                                     01418 A000000000000 0000000000000.24     00050 02200                  
08419200683410001E167590675900000002881800888800000010100E068C80236 00000000000.004040404040404040404040404040404040404040404040404006011203A00000000000000000000000404040404040404040404040404040  00020840000000000000002306298ED2BA4272A92CC6221A2473404040400840A0000000031010000000000000000000ED7592160382000000000000000000004040404040404040 000000037.30 000000000.004040400000000000000000    80                                                                                                                                                                                                                                                                                                                  
08419210683410002G2675906759000000028818008888000000101SEVIERVILLE              TN           5 D                00                                      NNNN00 N 00                   000000000000                                                                   76487169                                                                                                                                                                                                                                                                                                                                                                                                                                               
08419220683410029DT67590675900000002881800888800000010180088824001193180900014900083062920230000000735018023000000000222206415978XXXXXX7766       VS11    0001111   NYV1 A E383180570855541N840000000007350Z73700    05DNHAPPY HIPPIE             021274    VD84000000007350 N  549976487169                            000000000+                F DF 10433                     000000000  Y000000000 338   0000000000000.00 0000000.00   0000000.00                             000000000000000                                                                                                                                                     01418 A000000000000 0000000000000.26     00050 02200                  
08419230683410001E167590675900000002881800888800000010100E0F8C80235 00000000000.004040404040404040404040404040404040404040404040404006011203A0A000000000000000000000404040404040404040404040404040  0000084018008080008000230629E0C795471C76E9E4453A34D0404040400840A00000000310100000000000000000004F6BC1AA182C391530300000000000004040401E40404040 000000073.50 000000000.001E00000000000000000000    80                                                                                                                                                                                                                                                                                                                  
08419240683410002G2675906759000000028818008888000000101SEVIERVILLE              TN           5 D                00                                      NNNN00 N 00                   000000000000                                                                   76487169                                                                                                                                                                                                                                                                                                                                                                                                                                               
08419250683410030DT67590675900000002881800888800000010180088876509753180900014900099062920230000000395018023000000000222206601101XXXXXX0517   BA50                  NY41 0 N873155091277324N840000000003950    00    05DNHAPPY HIPPIE             02940P    DS84000000003950 N  549976487169050                         000000000+0000004910H00   DCPDI01118333146  120527000000 000000000  0          146   0000000000000.00 0000000.00   0000000.00                             000000000000000                                                                                                                                                     01418  000000000000 0000000000000.79     01740 01000                  
08419260683410001E167590675900000002881800888800000010100E0F8C80003 00000000000.00404040404040404040404040404040404040404040404040400105A080030000000000000000000000404040404040404040404040404040  000108407800000000800023062922F81F35D907F0AD3355CA96404040400840A000000152301000000000000000000079B63A186BDD086200320000000000004040401E40404040 000000039.50 000000000.001E03000000000000000000    80                                                                                                                                                                                                                                                                                                                  
08419270683410002G2675906759000000028818008888000000101SEVIERVILLE              TN           5 P                00                                      NNNN                          000000000000                         00000650975601179750000063                76487169                                                                                                                                                                                                                                                                                                                                                                                                                                               
08419280683410031DT67590675900000002881800888800000010180088824001193180900014900109062920230000000098818023000000000222206419090XXXXXX1964       VK04VS111111111   NYV1 A E303180580844445N840000000000988ZN3P00    05DNHAPPY HIPPIE             442869    VD84000000000988 N  549976487169                            000000000+                F DF 00451                     000000000  N000000000 214   0000000000000.00 0000000.00   0000000.00                             000000000000000                                                                                                                                                     01418 F000000000000 0000000000000.19     01550 00400                  
08419290683410001E167590675900000002881800888800000010100E0F8C8004A 00000000000.004040404040404040404040404040404040404040404040404006011203A0A000000000000000000000404040404040404040404040404040  0001084018008080008000230629EEC2A9970A3F22DEDA7D15EC404040400840A00000000310100000000000000000008478810B0080000000000000000000004040401E40404040 000000009.88 000000000.001E00000000000000000000    80                                                                                                                                                                                                                                                                                                                  
08419300683410002G2675906759000000028818008888000000101SEVIERVILLE              TN           5 D                00                                      NNNN00 N 00                   000000000000                                                                   76487169                                                                                                                                                                                                                                                                                                                                                                                                                                               
08419310683410032DT67590675900000002881800888800000010180088824001193180900014900117062920230000000504718023000000000222206415978XXXXXX6979       VS11    0001111   NYV1 A E583180582182018N840000000005047MZKF00    05DNHAPPY HIPPIE             005768    VD84000000005047 N  549976487169                            000000000+                F DF 10433                     000000000  Y000000000 338   0000000000000.00 0000000.00   0000000.00                             000000000000000                                                                                                                                                     01418 A000000000000 0000000000000.25     00050 02200                  
08419320683410001E167590675900000002881800888800000010100E0F8C803F6 00000000000.004040404040404040404040404040404040404040404040404006011203A0A000000000000000000000404040404040404040404040404040  0000084018008080008000230629DC85F3C36A7F4C48B2B48AB7404040400840A000000003101000000000000000000020E92BAAD270C21E30300000000000004040401E40404040 000000050.47 000000000.001E00000000000000000000    80                                                                                                                                                                                                                                                                                                                  
08419330683410002G2675906759000000028818008888000000101SEVIERVILLE              TN           5 D                00                                      NNNN00 N 00                   000000000000                                                                   76487169                                                                                                                                                                                                                                                                                                                                                                                                                                               
08419340683410033DT67590675900000002881800888800000010180088824001193180900014900125062920230000000517818023000000000222206422921XXXXXX2053       VS11    0001111   NYV1 A E583180598401844N840000000005178ZV4B00    05DNHAPPY HIPPIE             045441    VD84000000005178 N  549976487169                            000000000+                F DF 00381                     000000000  N000000000       0000000000000.00 0000000.00   0000000.00                             000000000000000                                                                                                                                                     01418 A000000000000 0000000000000.56     00800 01500                  
08419350683410001E167590675900000002881800888800000010100E0F8C802E4 00000000000.004040404040404040404040404040404040404040404040404006011203A08000000000000000000000404040404040404040404040404040  0000084018008080008000230629BBE126A5D98EC45E7C8CD5E3404040400840A0000000031010000000000000000000137F36F20382000000000000000000004040401E40404040 000000051.78 000000000.001E00000000000000000000    80                                                                                                                                                                                                                                                                                                                  
08419360683410002G2675906759000000028818008888000000101SEVIERVILLE              TN           5 D                00                                      NNNN00 N 00                   000000000000                                                                   76487169                                                                                                                                                                                                                                                                                                                                                                                                                                               
08419370683410034DT67590675900000002881800888800000010180088824001193180900014900133062920230000000596618023000000000222206473702XXXXXX6085       VS11    0001111   NYV1 A E463180599987609N8400000000059662BL200    05DNHAPPY HIPPIE             034427    VD84000000005966 N  549976487169                            000000000+                F DF 10433                     000000000  Y000000000 338   0000000000000.00 0000000.00   0000000.00                             000000000000000                                                                                                                                                     01418 A000000000000 0000000000000.25     00050 02200                  
08419380683410001E167590675900000002881800888800000010100E0F8C80192 00000000000.004040404040404040404040404040404040404040404040404006061203A0A000000000000000000000404040404040404040404040404040  0000084018008080008000230629F201659035128DCD39AECD81404040400840A0000000031010000000000000000000D0B020A03050B06020200000000000004040401E40404040 000000059.66 000000000.001E00000000000000000000    80                                                                                                                                                                                                                                                                                                                  
08419390683410002G2675906759000000028818008888000000101SEVIERVILLE              TN           5 D                00                                      NNNN00 N 00                   000000000000                                                                   76487169                                                                                                                                                                                                                                                                                                                                                                                                                                               
08419400683410035DT67590675900000002881800888800000010180088824001193180900014900141062920230000000790118023000000000222206422921XXXXXX4626       VS11    0001111   NYV1 A E583180601419404N840000000007901FZ4L00    07DNHAPPY HIPPIE             045742    VD84000000007901 N  549976487169                            000000000+                F DF 00381                     000000000  N000000000       0000000000000.00 0000000.00   0000000.00                             000000000000000                                                                                                                                                     01418 A000000000000 0000000000000.78     00800 01500                  
08419410683410001E167590675900000002881800888800000010100E068C80101 00000000000.004040404040404040404040404040404040404040404040404006011203A00000000000000000000000404040404040404040404040404040  000008402000000000000023062962E0C4E90A17B4A0FFB05F7D404040400840A0000000031010000000000000000000C2774DA10382000000000000000000004040404040404040 000000079.01 000000000.004040400000000000000000    80                                                                                                                                                                                                                                                                                                                  
08419420683410002G2675906759000000028818008888000000101SEVIERVILLE              TN           5 D                00                                      NNNN00 N 00                   000000000000                                                                   76487169                                                                                                                                                                                                                                                                                                                                                                                                                                               
08419430683410036DT67590675900000002881800888800000010180088824001193180900014900158062920230000000343718023000000000222206422921XXXXXX1911       VS11    0001111   NYV1 A E383180607524142N8400000000034376T3300    07DNHAPPY HIPPIE             046353    VD84000000003437 N  549976487169                            000000000+                F DF 00381                     000000000  N000000000       0000000000000.00 0000000.00   0000000.00                             000000000000000                                                                                                                                                     01418 A000000000000 0000000000000.42     00800 01500                  
08419440683410001E167590675900000002881800888800000010100E068C80117 00000000000.004040404040404040404040404040404040404040404040404006011203A00000000000000000000000404040404040404040404040404040  000008402000000000000023062964DAB55972FDFB8E214AC913404040400840A000000003101000000000000000000099E9DBA20382000000000000000000004040404040404040 000000034.37 000000000.004040400000000000000000    80                                                                                                                                                                                                                                                                                                                  
08419450683410002G2675906759000000028818008888000000101SEVIERVILLE              TN           5 D                00                                      NNNN00 N 00                   000000000000                                                                   76487169                                                                                                                                                                                                                                                                                                                                                                                                                                               
08419460683410037DT67590675900000002881800888800000010180088824001193180900014900166062920230000000719618023000000000222206435546XXXXXX8931       VS11    0001111   NYV1 A E463180608183942N840000000007196ZHKW00    05DNHAPPY HIPPIE             128119    VD84000000007196 N  549976487169                            000000000+                F DF 10433                     000000000  Y000000000 338   0000000000000.00 0000000.00   0000000.00                             000000000000000                                                                                                                                                     01418 A000000000000 0000000000000.26     00050 02200                  
08419470683410001E167590675900000002881800888800000010100E0F8C80967 00000000000.004040404040404040404040404040404040404040404040404006011203A08000000000000000000000404040404040404040404040404040  0001084018008080008000230629E1166F022A233C4613AB8988404040400840A00000000310100000000000000000001237469A0082000000000000000000004040401E40404040 000000071.96 000000000.001E00000000000000000000    80                                                                                                                                                                                                                                                                                                                  
08419480683410002G2675906759000000028818008888000000101SEVIERVILLE              TN           5 D                00                                      NNNN00 N 00                   000000000000                                                                   76487169                                                                                                                                                                                                                                                                                                                                                                                                                                               
08419490683410038DT67590675900000002881800888800000010180088824001193180900014900174062920230000000345718023000000000222206481852XXXXXX3515       VS11    0001111   NYV1 A E583180614933068N840000000003457B7DL00    07DNHAPPY HIPPIE             100453    VD84000000003457 N  549976487169                            000000000+                F PF 08170                     000000000  N000000000       0000000000000.00 0000000.00   0000000.00                             000000000000000                                                                                                                                                     01418 A000000000000 0000000000000.55     01150 01500                  
