00003340511040002BH6759067590000001427480010280000090170222202305323000000000185540    0000090001070552Y8001026759C02232023                                                                                                                                                                                                                                                                                                                                                                                                                                                                                                                                                                                                 
00003350511040003DT67590675900000014274800102800000010180010287287283053900010700888022120230000001925005323000000000185540545981XXXXXX7093       ME03KE06MS02      NY 4607AMDJYDIPBG0218  N840000000019250          81DNCBD8666317293            YDIPBG    MD84000000019250 N  549977145232   9DA7F41664T5CEDC1C7DB60  000000000+600450S00130    MDJ  00401                     000000000  N                0000000000000.00 0000000.00   0000000.00                             000000000000000                                                                                                                                                   U001424  000000000000 0000000000003.33     01650 01500                  
00003360511040004DT67590675900000014274800102800000010180010224001193053900010701117022120230000002118605323000000000185540443051XXXXXX3272               2111111   NYV4 A7W463049666059996N840000000021186KKNK00    01DNCBD8666317293            165011    VD84000000021186 NP1549977145232   65505A1307T49780FDD1F33  000000000+                F DF 10420                     000000000  Y000000000 338   0000000000000.00 0000000.00   0000000.00                             000000000000000                                                                                                                                                     01424 G000000021186 0000000000000.33     00050 02200                  
00003370511040001P16759067590000001427480010280000001010000000000000000                             2000000000000000000000000              000000000000                    0000000000000000000000000                    000000000000                                                                                                                                                                                                                                                                                                                                                                                                                                                                                        
00003380511040005DT67590675900000014274800102800000010180010287287283053900010701191022120230000001158805323000000000185540554085XXXXXX1607       ME03KE06MS02      NY 4607AMDJBHKBLP0218  N840000000011588          81DNCBD8666317293            042506    MD84000000011588 N  549977145232   0E61A4335AT35247EF15641  000000000+600450S00130    MDJ  00401                     000000000  N                0000000000000.00 0000000.00   0000000.00                             000000000000000                                                                                                                                                   U001424  000000000000 0000000000002.06     01650 01500                  
00003390511040006DT67590675900000014274800102800000010180010224001193053900010701265022120230000000641805323000000000185540440066XXXXXX7890               2111111   NYV4 A7W583049757162542N840000000006418X96V00    01DNCBD8666317293            09193D    VS84000000006418 NP1549977145232   6805069151T98DC533FC296  000000000+                D CD 12109                     000000000  N000000000 498   0000000000000.00 0000000.00   0000000.00                             000000000000000                                                                                                                                                     01424 G000000006418 0000000000001.70     02500 01000                  
00003400511040001P16759067590000001427480010280000001010000000000000000                             2000000000000000000000000              000000000000                    0000000000000000000000000                    000000000000                                                                                                                                                                                                                                                                                                                                                                                                                                                                                        
00003410511040007DT67590675900000014274800102800000010180010287287283053900010701340022120230000000747705323000000000185540514616XXXXXX2762       ME03KE06MS02      NY 4607AMDJEYS8LP0218  N840000000007477          81DNCBD8666317293            724C8A    MD84000000007477 N  549977145232   E7C5A0A191T1B039D07FCB0  000000000+600450S00130    MDJ  00401                     000000000  N                0000000000000.00 0000000.00   0000000.00                             000000000000000                                                                                                                                                   U001424  000000000000 0000000000001.38     01650 01500                  
00003420511040008DT67590675900000014274800102800000010180010224001193053900010701422022120230000001987005323000000000185540429819XXXXXX6269               2111111   NYV4 A7W463049786043743N840000000019870RP9Z00    01DNCBD8666317293            306808    VD84000000019870 NP1549977145232   0826A2E15ET57F4171E8669  000000000+                F DF 00415                     000000000  N000000000       0000000000000.00 0000000.00   0000000.00                             000000000000000                                                                                                                                                     01424 G000000019870 0000000000003.43     01650 01500                  
00003430511040001P16759067590000001427480010280000001010000000000000000                             2000000000000000000000000              000000000000                    0000000000000000000000000                    000000000000                                                                                                                                                                                                                                                                                                                                                                                                                                                                                        
00003440511040009DT67590675900000014274800102800000010180010224001193053900010701513022120230000000700405323000000000185540449465XXXXXX3981               2111111   NYV4 A7W303049831058464N840000000007004KXTL00    01DNCBD8666317293            831119    VD84000000007004 NP1549977145232   740659817DT0B69A4EDA12B  000000000+                F DF 10420                     000000000  Y000000000 338   0000000000000.00 0000000.00   0000000.00                             000000000000000                                                                                                                                                     01424 G000000007004 0000000000000.26     00050 02200                  
00003450511040001P16759067590000001427480010280000001010000000000000000                             2000000000000000000000000              000000000000                    0000000000000000000000000                    000000000000                                                                                                                                                                                                                                                                                                                                                                                                                                                                                        
00003460511040010DT67590675900000014274800102800000010180010287287283053900010701522022120230000001987005323000000000185540515676XXXXXX9131       ME03KE06MS02      NY 4607AMWERWQ12X0218  N840000000019870          81DNCBD8666317293            05352Z    MC84000000019870 N  549977145232   313A042DA0TB930DEFB092A  000000000+600450S00130    MWE  00737                     000000000  N                0000000000000.00 0000000.00   0000000.00                             000000000000000                                                                                                                                                   U001424  000000000000 0000000000005.27     02600 01000                  
00003470511040011DT67590675900000014274800102800000010180010224001193053900010705449022220230000002126105323000000000185540481573XXXXXX6531               2111111   NYV4 A7W583053569660732N840000000021261S2JV00    01DNCBD8666317293            008606    VS84000000021261 NP1549977145232   E4B1C32C7ET3B3F819999F2  000000000+                B CB 12107                     000000000  N000000000 494   0000000000000.00 0000000.00   0000000.00                             000000000000000                                                                                                                                                     01424 G000000021261 0000000000004.44     02040 01000                  
00003480511040001P16759067590000001427480010280000001010000000000000000                             2000000000000000000000000              000000000000                    0000000000000000000000000                    000000000000                                                                                                                                                                                                                                                                                                                                                                                                                                                                                        
00003490511040012DT67590675900000014274800102800000010680010274001193053900010705469022220230000001326105323000000000185540481573XXXXXX6531               0000000   NYV4 07T303053576866949N840000000013261R8NC00    01CNCBD8666317293            005850    VS84000000013261 NP1549977145232   E4B1C32C7ET3B3F819999F2  000000000+                B CB 00245                     000000000  N000000000 166   0000000000000.00 0000000.00   0000000.00                             000000000000000                                                                                                                                                     01424  000000013261-0000000000002.33     01760 00000                  
00003500511040001P16759067590000001427480010280000001060000000000000000                             2000000000000000000000000              000000000000                    0000000000000000000000000                    000000000000                                                                                                                                                                                                                                                                                                                                                                                                                                                                                        
00003510511040013DT67590675900000014274800102800000010180010224001193053900010705472022220230000002106205323000000000185540400022XXXXXX1305               2111111   NYV4 A7W463053645605994N840000000021062525Q00    01DNCBD8666317293            662403    VD84000000021062 NP1549977145232   4936748485TA512883F467E  000000000+                F DF 10420                     000000000  Y000000000 338   0000000000000.00 0000000.00   0000000.00                             000000000000000                                                                                                                                                     01424 G000000021062 0000000000000.33     00050 02200                  
00003520511040001P16759067590000001427480010280000001010000000000000000                             2000000000000000000000000              000000000000                    0000000000000000000000000                    000000000000                                                                                                                                                                                                                                                                                                                                                                                                                                                                                        
00003530511040014DT67590675900000014274800102800000010180010224001193053900010705506022220230000001894505323000000000185540405960XXXXXX3258               2111111   NYV4 A7W303053779354404N840000000018945DGVL00    01DNCBD8666317293            275753    VD84000000018945 NP1549977145232   7DF467DD31T12183F6B4FAA  000000000+                F DF 00415                     000000000  N000000000       0000000000000.00 0000000.00   0000000.00                             000000000000000                                                                                                                                                     01424 G000000018945 0000000000003.28     01650 01500                  
00003540511040001P16759067590000001427480010280000001010000000000000000                             2000000000000000000000000              000000000000                    0000000000000000000000000                    000000000000                                                                                                                                                                                                                                                                                                                                                                                                                                                                                        
00003550511040015DT67590675900000014274800102800000010180010287287283053900010705523022220230000002487005323000000000185540512107XXXXXX5026       ME03KE06MS02      NY 4607AMCCAR5PUC0222  N840000000024870          81DNCBD8666317293            02276B    MC84000000024870 N  549977145232   DFE30D5ED9T87ED97937AF9  000000000+600450S00130    MCC  00580                     000000000  N                0000000000000.00 0000000.00   0000000.00                             000000000000000                                                                                                                                                   U001424  000000000000 0000000000005.32     02100 01000                  
00003560511040016BH6759067590000001330080010280000090170222202305323000000000194031    0000090001070439Y8001026759C02232023                                                                                                                                                                                                                                                                                                                                                                                                                                                                                                                                                                                                 
00003570511040017DT67590675900000013300800102800000010180010224001193053900010701034022120230000001499105323000000000194031444796XXXXXX8725               2111111   NYV4 A7W583049292442906N840000000014991J5HQ00    01DNCBD8666317293            018292    VS84000000014991 NP1549977133133   DA0414F825TAE3DD3054227  000000000+                A CA 12106                     000000000  N000000000 492   0000000000000.00 0000000.00   0000000.00                             000000000000000                                                                                                                                                     01424 G000000014991 0000000000002.93     01890 01000                  
00003580511040001P16759067590000001330080010280000001010000000000000000                             2000000000000000000000000              000000000000                    0000000000000000000000000                    000000000000                                                                                                                                                                                                                                                                                                                                                                                                                                                                                        
00003590511040018DT67590675900000013300800102800000010180010224001193053900010701141022120230000000600405323000000000194031400570XXXXXX3001               2111111   NYV4 A7W583049564054385N840000000006004QL9B00    01DNCBD8666317293            955781    VD84000000006004 NP1549977133133   A456E30E41T13477A4AD29A  000000000+                F DF 10420                     000000000  Y000000000 338   0000000000000.00 0000000.00   0000000.00                             000000000000000                                                                                                                                                     01424 G000000006004 0000000000000.25     00050 02200                  
00003600511040001P16759067590000001330080010280000001010000000000000000                             2000000000000000000000000              000000000000                    0000000000000000000000000                    000000000000                                                                                                                                                                                                                                                                                                                                                                                                                                                                                        
00003610511040019DT67590675900000013300800102800000010180010287287283053900010701290022120230000000648405323000000000194031515327XXXXXX7092       ME03KE06MS02      NY 4607AMDJSEFVIJ0218  N840000000006484          81DNCBD8666317293            783650    MD84000000006484 N  549977133133   423C1E007ET6E928F603863  000000000+600450S00130    MDJ  00401                     000000000  N                0000000000000.00 0000000.00   0000000.00                             000000000000000                                                                                                                                                   U001424  000000000000 0000000000001.22     01650 01500                  
00003620511040020DT67590675900000013300800102800000010180010224001193053900010701307022120230000001628005323000000000194031475056XXXXXX4047               2111111   NYV4 A7W463049657042368N840000000016280JK7600    01DNCBD8666317293            041513    VD84000000016280 NP1549977133133   4E7DBB7333TDA4ADCA970E0  000000000+                F DF 10420                     000000000  Y000000000 338   0000000000000.00 0000000.00   0000000.00                             000000000000000                                                                                                                                                     01424 G000000016280 0000000000000.30     00050 02200                  
00003630511040001P16759067590000001330080010280000001010000000000000000                             2000000000000000000000000              000000000000                    0000000000000000000000000                    000000000000                                                                                                                                                                                                                                                                                                                                                                                                                                                                                        
00003640511040021DT67590675900000013300800102800000010180010224001193053900010701380022120230000001592805323000000000194031444796XXXXXX1263               2111111   NYV4 A7W463049696215552N840000000015928Z85L00    01DNCBD8666317293            018899    VS84000000015928 NP1549977133133   07A08AAB02TA7D0429CA6BC  000000000+                A CA 12106                     000000000  N000000000 492   0000000000000.00 0000000.00   0000000.00                             000000000000000                                                                                                                                                     01424 G000000015928 0000000000003.11     01890 01000                  
00003650511040001P16759067590000001330080010280000001010000000000000000                             2000000000000000000000000              000000000000                    0000000000000000000000000                    000000000000                                                                                                                                                                                                                                                                                                                                                                                                                                                                                        
00003660511040022DT67590675900000013300800102800000010180010287287283053900010701431022120230000002487005323000000000194031542539XXXXXX0506       ME03KE06MS02      NY 4607AMPLHR54YZ0218  N840000000024870          81DNCBD8666317293            018963    MC84000000024870 N  549977133133   BC09307AD9TDA93FF7DEAFD  000000000+600450S00130    MPL  00013                     000000000  N                0000000000000.00 0000000.00   0000000.00                             000000000000000                                                                                                                                                   U001424  000000000000 0000000000004.95     01950 01000                  
00003670511040023DT67590675900000013300800102800000010180010224001193053900010701539022120230000000640905323000000000194031414709XXXXXX6742               2111111   NYV4 A7W303049759108358N840000000006409NBDM00    01DNCBD8666317293            05310A    VS84000000006409 NP1549977133133   43F376F0D1T9DF460D9ED22  000000000+                A CA 12106                     000000000  N000000000 492   0000000000000.00 0000000.00   0000000.00                             000000000000000                                                                                                                                                     01424 G000000006409 0000000000001.31     01890 01000                  
00003680511040001P16759067590000001330080010280000001010000000000000000                             2000000000000000000000000              000000000000                    0000000000000000000000000                    000000000000                                                                                                                                                                                                                                                                                                                                                                                                                                                                                        
00003690511040024DT67590675900000013300800102800000010180010287287283053900010701605022120230000002146005323000000000194031517835XXXXXX8047       ME03KE06MS02      NY 4607AMPLW63CLY0218  N840000000021460          81DNCBD8666317293            600591    MC84000000021460 N  549977133133   A517A43040T01BC2ECF5D0B  000000000+600450S00130    MPL  00013                     000000000  N                0000000000000.00 0000000.00   0000000.00                             000000000000000                                                                                                                                                   U001424  000000000000 0000000000004.28     01950 01000                  
00003700511040025DT67590675900000013300800102800000010180010224001193053900010701737022120230000001589005323000000000194031480641XXXXXX5741               2111111   NYV4 A7W583049829168937N8400000000158907S5S00    01DNCBD8666317293            080157    VD84000000015890 NP1549977133133   E2C3446137T950162558904  000000000+                F DF 00415                     000000000  N000000000       0000000000000.00 0000000.00   0000000.00                             000000000000000                                                                                                                                                     01424 G000000015890 0000000000002.77     01650 01500                  
00003710511040001P16759067590000001330080010280000001010000000000000000                             2000000000000000000000000              000000000000                    0000000000000000000000000                    000000000000                                                                                                                                                                                                                                                                                                                                                                                                                                                                                        
00003720511040026DT67590675900000013300800102800000010180010224001193053900010704335022220230000002126105323000000000194031474487XXXXXX6234               2111111   NYV4 A7W303053574949252N8400000000212616FG300    01DNCBD8666317293            115084    VD84000000021261 NP1549977133133   508BC526D3TC69565EEB0C6  000000000+                F DF 10420                     000000000  Y000000000 338   0000000000000.00 0000000.00   0000000.00                             000000000000000                                                                                                                                                     01424 G000000021261 0000000000000.33     00050 02200                  
00003730511040001P16759067590000001330080010280000001010000000000000000                             2000000000000000000000000              000000000000                    0000000000000000000000000                    000000000000                                                                                                                                                                                                                                                                                                                                                                                                                                                                                        
00003740511040027DT67590675900000013300800102800000010180010224001193053900010704343022220230000000158505323000000000194031400022XXXXXX1305               2111111   NYV4 A7W303053646156156N8400000000015853LTK00    01DNCBD8666317293            857798    VD84000000001585 NP1549977133133   4936748485T4FE14388D714  000000000+                F DF 10420                     000000000  Y000000000 338   0000000000000.00 0000000.00   0000000.00                             000000000000000                                                                                                                                                     01424 G000000001585 0000000000000.23     00050 02200                  
00003750511040001P16759067590000001330080010280000001010000000000000000                             2000000000000000000000000              000000000000                    0000000000000000000000000                    000000000000                                                                                                                                                                                                                                                                                                                                                                                                                                                                                        
00003760511040028DT67590675900000013300800102800000010180010287287283053900010704369022220230000002180705323000000000194031532205XXXXXX2442                         NY 4607AMDBWKS1HG0222  N840000000021807          81DNCBD8666317293            834096    MD84000000021807 NP1549977133133                            000000000+600450S00130    MDB  10788                     000000000  1                0000000000000.00 0000000.00   0000000.00                             000000000000000                                                                                                                                                   U001424  000000000000 0000000000000.33     00050 02200                  
00003770511040001P1675906759000000133008001028000000101                                                 000001937000000000000          8000   000000000871584967            000000000000                                                                                                                                                                                                                                                                                                                                                                                                                                                                                                                                    
00003780511040029DT67590675900000013300800102800000010180010224001193053900010704392022220230000002106205323000000000194031431196XXXXXX8178               2111111   NYV4 A7W463054023166098N840000000021062PTHP00    01DNCBD8666317293            022803    VS84000000021062 NP1549977133133   9D8ADFE001T1E10A98177BE  000000000+                D CD 12109                     000000000  N000000000 498   0000000000000.00 0000000.00   0000000.00                             000000000000000                                                                                                                                                     01424 G000000021062 0000000000005.37     02500 01000                  
00003790511040001P16759067590000001330080010280000001010000000000000000                             2000000000000000000000000              000000000000                    0000000000000000000000000                    000000000000                                                                                                                                                                                                                                                                                                                                                                                                                                                                                        
