00004630218320002BH6759067590000001516480088880000090170309202306823000000000651664    0000090001090223Y8008886759C03102023                                                                                                                                                                                                                                                                                                                                                                                                                                                                                                                                                                                                 
00004640218320003DT67590675900000015164800888800000010180088824001193068900010901348030820230000001987006823000000000651664438852XXXXXX8004               2111111   NYV4 A7W463068056188176N8400000000198703GRF00    01DNKETOFUSION477.COM        00152D    VS84000000019870 NP1599977360677   C3A06D04B5TF8901FDCE1BE  000000000+                D CD 12109                     000000000  N000000000 498   0000000000000.00 0000000.00   0000000.00                             000000000000000                                                                                                                                                     01424 G000000019870 0000000000005.07     02500 01000                  
00004650218320001P16759067590000001516480088880000001010000000000000000                             2000000000000000000000000              000000000000                    0000000000000000000000000                    000000000000                                                                                                                                                                                                                                                                                                                                                                                                                                                                                        
00004660218320004DT67590675900000015164800888800000010180088824001193068900010901355030820230000000654806823000000000651664438852XXXXXX8004               2111111   NYV4 A7W583068056482363N840000000006548ZH2T00    01DNKETOFUSION477.COM        02254D    VS84000000006548 NP1599977360677   C3A06D04B5T6752C8FCF7BC  000000000+                D CD 12109                     000000000  N000000000 498   0000000000000.00 0000000.00   0000000.00                             000000000000000                                                                                                                                                     01424 G000000006548 0000000000001.74     02500 01000                  
00004670218320001P16759067590000001516480088880000001010000000000000000                             2000000000000000000000000              000000000000                    0000000000000000000000000                    000000000000                                                                                                                                                                                                                                                                                                                                                                                                                                                                                        
00004680218320005DT67590675900000015164800888800000010180088824001193068900010901363030820230000000519006823000000000651664438852XXXXXX8004               2111111   NYV4 A7W583068056662367N840000000005190XPGC00    01DNKETOFUSION477.COM        02793D    VS84000000005190 NP1599977360677   C3A06D04B5T9AD762BA0F98  000000000+                D CD 12109                     000000000  N000000000 498   0000000000000.00 0000000.00   0000000.00                             000000000000000                                                                                                                                                     01424 G000000005190 0000000000001.40     02500 01000                  
00004690218320001P16759067590000001516480088880000001010000000000000000                             2000000000000000000000000              000000000000                    0000000000000000000000000                    000000000000                                                                                                                                                                                                                                                                                                                                                                                                                                                                                        
00004700218320006DT67590675900000015164800888800000010180088824001193068900010901371030820230000002487006823000000000651664424018XXXXXX3722               2111111   NYV4 A7W383068060736981N840000000024870NW8J00    01DNKETOFUSION477.COM        004113    VD84000000024870 NP1599977360677   7B035560F5TC4FA115E479B  000000000+                F DF 10420                     000000000  Y000000000 338   0000000000000.00 0000000.00   0000000.00                             000000000000000                                                                                                                                                     01424 G000000024870 0000000000000.34     00050 02200                  
00004710218320001P16759067590000001516480088880000001010000000000000000                             2000000000000000000000000              000000000000                    0000000000000000000000000                    000000000000                                                                                                                                                                                                                                                                                                                                                                                                                                                                                        
00004720218320007DT67590675900000015164800888800000010180088824001193068900010901389030820230000000654806823000000000651664424018XXXXXX3722               2111111   NYV4 A7W303068060889484N8400000000065487J5G00    01DNKETOFUSION477.COM        004128    VD84000000006548 NP1599977360677   7B035560F5T10604028E669  000000000+                F DF 10420                     000000000  Y000000000 338   0000000000000.00 0000000.00   0000000.00                             000000000000000                                                                                                                                                     01424 G000000006548 0000000000000.25     00050 02200                  
00004730218320001P16759067590000001516480088880000001010000000000000000                             2000000000000000000000000              000000000000                    0000000000000000000000000                    000000000000                                                                                                                                                                                                                                                                                                                                                                                                                                                                                        
00004740218320008DT67590675900000015164800888800000010180088824001193068900010901397030820230000001987006823000000000651664442743XXXXXX7418               2111111   NYV4 A7W383068111247423N840000000019870QJG700    01DNKETOFUSION477.COM        777678    VD84000000019870 NP1599977360677   E537114B98T17F57830FE37  000000000+                F PF 08175                     000000000  N000000000       0000000000000.00 0000000.00   0000000.00                             000000000000000                                                                                                                                                     01424 G000000019870 0000000000003.68     01750 02000                  
00004750218320001P16759067590000001516480088880000001010000000000000000                             2000000000000000000000000              000000000000                    0000000000000000000000000                    000000000000                                                                                                                                                                                                                                                                                                                                                                                                                                                                                        
00004760218320009DT67590675900000015164800888800000010180088887287283068900010901455030920230000002487006823000000000651664517800XXXXXX4402       ME03KE06MS02      NY 4607AMCSJIR3PY0309  N840000000024870          81DNKETOFUSION477.COM        009517    MC84000000024870 N  599977360677   B8EF72908ATEC219730211F  000000000+600450S00130    MCS  00013                     000000000  N                0000000000000.00 0000000.00   0000000.00                             000000000000000                                                                                                                                                   U001424  000000000000 0000000000004.95     01950 01000                  
00004770218320010DT67590675900000015164800888800000010180088887287283068900010901463030920230000000654806823000000000651664517800XXXXXX4402       ME03KE06MS02      NY 4607AMCSJI1OPY0309  N840000000006548          81DNKETOFUSION477.COM        009380    MC84000000006548 N  599977360677   B8EF72908AT6AEC12D882D7  000000000+600450S00130    MCS  00013                     000000000  N                0000000000000.00 0000000.00   0000000.00                             000000000000000                                                                                                                                                   U001424  000000000000 0000000000001.38     01950 01000                  
00004780218320011DT67590675900000015164800888800000010180088887287283068900010901471030920230000000519006823000000000651664517800XXXXXX4402       ME03KE06MS02      NY 4607AMCSF15L930309  N840000000005190          81DNKETOFUSION477.COM        009236    MC84000000005190 N  599977360677   B8EF72908ATCCFB1CC8AE86  000000000+600450S00130    MCS  00013                     000000000  N                0000000000000.00 0000000.00   0000000.00                             000000000000000                                                                                                                                                   U001424  000000000000 0000000000001.11     01950 01000                  
00004790218320012DT67590675900000015164800888800000010180088824001193068900010901488030920230000002255006823000000000651664438482XXXXXX6986               2111111   NYV4 A7W303068482133971N8400000000225504TDZ00    01DNKETOFUSION477.COM        666585    VD84000000022550 NP1599977360677   7E0F48F22CTA45BC7A59192  000000000+                F DF 00415                     000000000  N000000000       0000000000000.00 0000000.00   0000000.00                             000000000000000                                                                                                                                                     01424 G000000022550 0000000000003.87     01650 01500                  
00004800218320001P16759067590000001516480088880000001010000000000000000                             2000000000000000000000000              000000000000                    0000000000000000000000000                    000000000000                                                                                                                                                                                                                                                                                                                                                                                                                                                                                        
00004810218320013DT67590675900000015164800888800000010180088824001193068900010901496030920230000000654806823000000000651664438482XXXXXX6986               2111111   NYV4 A7W583068482391770N840000000006548TT3200    01DNKETOFUSION477.COM        667557    VD84000000006548 NP1599977360677   7E0F48F22CT657BCCCAD7C3  000000000+                F DF 00415                     000000000  N000000000       0000000000000.00 0000000.00   0000000.00                             000000000000000                                                                                                                                                     01424 G000000006548 0000000000001.23     01650 01500                  
00004820218320001P16759067590000001516480088880000001010000000000000000                             2000000000000000000000000              000000000000                    0000000000000000000000000                    000000000000                                                                                                                                                                                                                                                                                                                                                                                                                                                                                        
00004830218320014DT67590675900000015164800888800000010180088824001193068900010901504030920230000000519006823000000000651664438482XXXXXX6986               2111111   NYV4 A7W583068482507171N840000000005190WCXM00    01DNKETOFUSION477.COM        830506    VD84000000005190 NP1599977360677   7E0F48F22CTABEBD432213A  000000000+                F DF 00415                     000000000  N000000000       0000000000000.00 0000000.00   0000000.00                             000000000000000                                                                                                                                                     01424 G000000005190 0000000000001.01     01650 01500                  
00004840218320001P16759067590000001516480088880000001010000000000000000                             2000000000000000000000000              000000000000                    0000000000000000000000000                    000000000000                                                                                                                                                                                                                                                                                                                                                                                                                                                                                        
00004850218320015DT67590675900000015164800888800000010180088824001193068900010901520030920230000002487006823000000000651664438857XXXXXX6155               2111111   NYV4 A7W383068500007911N840000000024870FMHV00    01DNKETOFUSION477.COM        09618D    VS84000000024870 NP1599977360677   657BE44D41T4C5565C17073  000000000+                D CD 12109                     000000000  N000000000 498   0000000000000.00 0000000.00   0000000.00                             000000000000000                                                                                                                                                     01424 G000000024870 0000000000006.32     02500 01000                  
00004860218320001P16759067590000001516480088880000001010000000000000000                             2000000000000000000000000              000000000000                    0000000000000000000000000                    000000000000                                                                                                                                                                                                                                                                                                                                                                                                                                                                                        
00004870218320016DT67590675900000015164800888800000010180088824001193068900010901538030920230000000654806823000000000651664438857XXXXXX6155               2111111   NYV4 A7W463068500110452N84000000000654862ZH00    01DNKETOFUSION477.COM        09940D    VS84000000006548 NP1599977360677   657BE44D41T3B750D72BB45  000000000+                D CD 12109                     000000000  N000000000 498   0000000000000.00 0000000.00   0000000.00                             000000000000000                                                                                                                                                     01424 G000000006548 0000000000001.74     02500 01000                  
00004880218320001P16759067590000001516480088880000001010000000000000000                             2000000000000000000000000              000000000000                    0000000000000000000000000                    000000000000                                                                                                                                                                                                                                                                                                                                                                                                                                                                                        
00004890218320017DT67590675900000015164800888800000010180088824001193068900010901546030920230000000519006823000000000651664438857XXXXXX6155               2111111   NYV4 A7W463068500236567N840000000005190GH7R00    01DNKETOFUSION477.COM        00303D    VS84000000005190 NP1599977360677   657BE44D41T1CEEF1B198AC  000000000+                D CD 12109                     000000000  N000000000 498   0000000000000.00 0000000.00   0000000.00                             000000000000000                                                                                                                                                     01424 G000000005190 0000000000001.40     02500 01000                  
00004900218320001P16759067590000001516480088880000001010000000000000000                             2000000000000000000000000              000000000000                    0000000000000000000000000                    000000000000                                                                                                                                                                                                                                                                                                                                                                                                                                                                                        
00004910218320018DT67590675900000015164800888800000010180088887287283068900010901554030920230000001987006823000000000651664540707XXXXXX3081       ME03KE06PT01      NY 4607AMCWTJMCI40309  N840000000019870          81DNKETOFUSION477.COM        07420P    MC84000000019870 N  599977360677   F92E17F666T523C78DAB79F  000000000+600450S00130    MCW  00642                     000000000  N                0000000000000.00 0000000.00   0000000.00                             000000000000000                                                                                                                                                   U001424  000000000000 0000000000004.47     02200 01000                  
00004920218320019DT67590675900000015164800888800000010180088887287283068900010901570030920230000000654806823000000000651664540707XXXXXX3081       ME03KE06PT01      NY 4607AMCWYMY4I40309  N840000000006548          81DNKETOFUSION477.COM        03239P    MC84000000006548 N  599977360677   F92E17F666T60AB1D32A7A8  000000000+600450S00130    MCW  00642                     000000000  N                0000000000000.00 0000000.00   0000000.00                             000000000000000                                                                                                                                                   U001424  000000000000 0000000000001.54     02200 01000                  
00004930218320020DT67590675900000015164800888800000010180088887287283068900010901588030920230000000519006823000000000651664540707XXXXXX3081       ME03KE06PT01      NY 4607AMCWK5D7QO0309  N840000000005190          81DNKETOFUSION477.COM        04336P    MC84000000005190 N  599977360677   F92E17F666TDA8A1A3637A5  000000000+600450S00130    MCW  00642                     000000000  N                0000000000000.00 0000000.00   0000000.00                             000000000000000                                                                                                                                                   U001424  000000000000 0000000000001.24     02200 01000                  
00004940218320021DT67590675900000015164800888800000010180088824001193068900010901637030920230000001987006823000000000651664407020XXXXXX2315               2111111   NYV4 A7W463068531137097N840000000019870TCBJ00    01DNKETOFUSION477.COM        810689    VD84000000019870 NP1599977360677   DB717BB15BT1FF400C6E169  000000000+                F DF 00415                     000000000  N000000000       0000000000000.00 0000000.00   0000000.00                             000000000000000                                                                                                                                                     01424 G000000019870 0000000000003.43     01650 01500                  
00004950218320001P16759067590000001516480088880000001010000000000000000                             2000000000000000000000000              000000000000                    0000000000000000000000000                    000000000000                                                                                                                                                                                                                                                                                                                                                                                                                                                                                        
00004960218320022DT67590675900000015164800888800000010180088824001193068900010901694030920230000001987006823000000000651664414718XXXXXX7035               2111111   NYV4 A7W583068574677284N840000000019870Z28H00    01DNKETOFUSION477.COM        009462    VS84000000019870 NP1599977360677   053C852164T8FBE676D63CD  000000000+                D CD 12109                     000000000  N000000000 498   0000000000000.00 0000000.00   0000000.00                             000000000000000                                                                                                                                                     01424 G000000019870 0000000000005.07     02500 01000                  
00004970218320001P16759067590000001516480088880000001010000000000000000                             2000000000000000000000000              000000000000                    0000000000000000000000000                    000000000000                                                                                                                                                                                                                                                                                                                                                                                                                                                                                        
00004980218320023DT67590675900000015164800888800000010180088824001193068900010901702030920230000001987006823000000000651664410039XXXXXX1555               2111111   NYV4 A7W583068575332745N840000000019870QSBF00    01DNKETOFUSION477.COM        21494C    VS84000000019870 NP1599977360677   C050F0ACFAT3B87A2793AC1  000000000+                C CC 12108                     000000000  N000000000 496   0000000000000.00 0000000.00   0000000.00                             000000000000000                                                                                                                                                     01424 G000000019870 0000000000004.17     02050 01000                  
00004990218320001P16759067590000001516480088880000001010000000000000000                             2000000000000000000000000              000000000000                    0000000000000000000000000                    000000000000                                                                                                                                                                                                                                                                                                                                                                                                                                                                                        
00005000218320024DT67590675900000015164800888800000010180088824001193068900010901710030920230000000654806823000000000651664410039XXXXXX1555               2111111   NYV4 A7W303068575536536N840000000006548S74X00    01DNKETOFUSION477.COM        42136C    VS84000000006548 NP1599977360677   C050F0ACFAT857C7753A8A2  000000000+                C CC 12108                     000000000  N000000000 496   0000000000000.00 0000000.00   0000000.00                             000000000000000                                                                                                                                                     01424 G000000006548 0000000000001.44     02050 01000                  
00005010218320001P16759067590000001516480088880000001010000000000000000                             2000000000000000000000000              000000000000                    0000000000000000000000000                    000000000000                                                                                                                                                                                                                                                                                                                                                                                                                                                                                        
00005020218320025DT67590675900000015164800888800000010180088824001193068900010901736030920230000001987006823000000000651664464018XXXXXX4099               2111111   NYV4 A7W383068575759614N8400000000198708K8L00    01DNKETOFUSION477.COM        08076D    VS84000000019870 NP1599977360677   A1DF02CB25T264A66841658  000000000+                D CD 12109                     000000000  N000000000 498   0000000000000.00 0000000.00   0000000.00                             000000000000000                                                                                                                                                     01424 G000000019870 0000000000005.07     02500 01000                  
00005030218320001P16759067590000001516480088880000001010000000000000000                             2000000000000000000000000              000000000000                    0000000000000000000000000                    000000000000                                                                                                                                                                                                                                                                                                                                                                                                                                                                                        
00005040218320026DT67590675900000015164800888800000010180088887287283068900010901778030920230000001394806823000000000651664517805XXXXXX8415       ME03KE06MS02      NY 4607AMPLHUAGT90309  N840000000013948          81DNKETOFUSION477.COM        06633B    MC84000000013948 N  599977360677   39D1DF5DA6TFE02795A3601  000000000+600450S00130    MPL  00580                     000000000  N                0000000000000.00 0000000.00   0000000.00                             000000000000000                                                                                                                                                   U001424  000000000000 0000000000003.03     02100 01000                  
00005050218320027DT67590675900000015164800888800000010180088887287283068900010901786030920230000000198806823000000000651664517805XXXXXX8415       ME03KE06MS02      NY 4607AMPLY3F9UH0309  N840000000001988          81DNKETOFUSION477.COM        07651B    MC84000000001988 N  599977360677   39D1DF5DA6TABC4F7C99E00  000000000+600450S00130    MPL  00580                     000000000  N                0000000000000.00 0000000.00   0000000.00                             000000000000000                                                                                                                                                   U001424  000000000000 0000000000000.52     02100 01000                  
00005060218320028DT67590675900000015164800888800000010180088887287283068900010901794030920230000000542806823000000000651664552486XXXXXX8495       ME03KE06MS02      NY 4607AMWEM6MUQO0309  N840000000005428          81DNKETOFUSION477.COM        05950Z    MC84000000005428 N  599977360677   019DC14EAETBF2AD328EDFE  000000000+600450S00130    MWE  00737                     000000000  N                0000000000000.00 0000000.00   0000000.00                             000000000000000                                                                                                                                                   U001424  000000000000 0000000000001.51     02600 01000                  
00005070218320029DT67590675900000015164800888800000010180088887287283068900010901828030920230000001987006823000000000651664557729XXXXXX9538                         NY 4607AMABZAKYUH0309  N840000000019870          81DNKETOFUSION477.COM        51319E    MB84000000019870 NP1599977360677   21B0E455E8T9BDB79F2DCB1  000000000+600450S00130    MAB  02663                     000000000  N                0000000000000.00 0000000.00   0000000.00                             000000000000000                                                                                                                                                   U001424  000000000000 0000000000005.66     02800 01000                  
00005080218320001P1675906759000000151648008888000000101                                                          000000000000          8000            884295529                                                                                                                                                                                                                                                                                                                                                                                                                                                                                                                                                            
00005090218320030DT67590675900000015164800888800000010180088887287283068900010901836030920230000000654806823000000000651664557729XXXXXX9538                         NY 4607AMABA2MJI50309  N840000000006548          81DNKETOFUSION477.COM        85304E    MB84000000006548 NP1599977360677   21B0E455E8T2C54E1D3EB5C  000000000+600450S00130    MAB  02663                     000000000  N                0000000000000.00 0000000.00   0000000.00                             000000000000000                                                                                                                                                   U001424  000000000000 0000000000001.93     02800 01000                  
00005100218320001P1675906759000000151648008888000000101                                                          000000000000          8000            884295529                                                                                                                                                                                                                                                                                                                                                                                                                                                                                                                                                            
00005110218320031DT67590675900000015164800888800000010180088887287283068900010901844030920230000000519006823000000000651664557729XXXXXX9538                         NY 4607AMABNCG4QO0309  N840000000005190          81DNKETOFUSION477.COM        06280E    MB84000000005190 NP1599977360677   21B0E455E8T46BE18A53993  000000000+600450S00130    MAB  02663                     000000000  N                0000000000000.00 0000000.00   0000000.00                             000000000000000                                                                                                                                                   U001424  000000000000 0000000000001.55     02800 01000                  
00005120218320001P1675906759000000151648008888000000101                                                          000000000000          8000            884295529                                                                                                                                                                                                                                                                                                                                                                                                                                                                                                                                                            
00005130218320032DT67590675900000015164800888800000010180088824001193068900010901850030920230000001987006823000000000651664403766XXXXXX1165               2111111   NYV4 A7W383068588784358N8400000000198703HQS00    01DNKETOFUSION477.COM        019012    VS84000000019870 NP1599977360677   C2D1FA4905TBF912C703161  000000000+                A CA 12106                     000000000  N000000000 492   0000000000000.00 0000000.00   0000000.00                             000000000000000                                                                                                                                                     01424 G000000019870 0000000000003.86     01890 01000                  
00005140218320001P16759067590000001516480088880000001010000000000000000                             2000000000000000000000000              000000000000                    0000000000000000000000000                    000000000000                                                                                                                                                                                                                                                                                                                                                                                                                                                                                        
00005150218320033DT67590675900000015164800888800000010180088824001193068900010901868030920230000002487006823000000000651664470523XXXXXX2374               2111111   NYV4 A7W583068603190472N84000000002487086WV00    01DNKETOFUSION477.COM        084519    VD84000000024870 NP1599977360677   510EA700E3T382E138CC210  000000000+                F DF 00415                     000000000  N000000000       0000000000000.00 0000000.00   0000000.00                             000000000000000                                                                                                                                                     01424 G000000024870 0000000000004.25     01650 01500                  
00005160218320001P16759067590000001516480088880000001010000000000000000                             2000000000000000000000000              000000000000                    0000000000000000000000000                    000000000000                                                                                                                                                                                                                                                                                                                                                                                                                                                                                        
00005170218320034DT67590675900000015164800888800000010180088824001193068900010901876030920230000000654806823000000000651664470523XXXXXX2374               2111111   NYV4 A7W383068603288933N840000000006548FGT500    01DNKETOFUSION477.COM        084528    VD84000000006548 NP1599977360677   510EA700E3TBD34F9B1618B  000000000+                F DF 00415                     000000000  N000000000       0000000000000.00 0000000.00   0000000.00                             000000000000000                                                                                                                                                     01424 G000000006548 0000000000001.23     01650 01500                  
00005180218320001P16759067590000001516480088880000001010000000000000000                             2000000000000000000000000              000000000000                    0000000000000000000000000                    000000000000                                                                                                                                                                                                                                                                                                                                                                                                                                                                                        
00005190218320035DT67590675900000015164800888800000010180088887287283068900010901927030920230000001578506823000000000651664515676XXXXXX1496       ME03KE06MS02      NY 4607AMWEZAS9WR0309  N840000000015785          81DNKETOFUSION477.COM        06718Z    MC84000000015785 N  599977360677   4F50E30079TC2756CEA2F48  000000000+600450S00130    MWE  00737                     000000000  N                0000000000000.00 0000000.00   0000000.00                             000000000000000                                                                                                                                                   U001424  000000000000 0000000000004.20     02600 01000                  
00005200218320036DT67590675900000015164800888800000010180088824001193068900010901934030920230000001194806823000000000651664461098XXXXXX0320               2111111   NYV4 A7W303068641360900N840000000011948NGX200    01DNKETOFUSION477.COM        05710C    VS84000000011948 NP1599977360677   038B56C8EET9E66EC084D9A  000000000+                C CC 12108                     000000000  N000000000 496   0000000000000.00 0000000.00   0000000.00                             000000000000000                                                                                                                                                     01424 G000000011948 0000000000002.55     02050 01000                  
00005210218320001P16759067590000001516480088880000001010000000000000000                             2000000000000000000000000              000000000000                    0000000000000000000000000                    000000000000                                                                                                                                                                                                                                                                                                                                                                                                                                                                                        
00005220218320037DT67590675900000015164800888800000010180088824001193068900010901942030920230000000654806823000000000651664461098XXXXXX0320               2111111   NYV4 A7W303068641483517N840000000006548SBHW00    01DNKETOFUSION477.COM        07254C    VS84000000006548 NP1599977360677   038B56C8EET15FB1949E802  000000000+                C CC 12108                     000000000  N000000000 496   0000000000000.00 0000000.00   0000000.00                             000000000000000                                                                                                                                                     01424 G000000006548 0000000000001.44     02050 01000                  
00005230218320001P16759067590000001516480088880000001010000000000000000                             2000000000000000000000000              000000000000                    0000000000000000000000000                    000000000000                                                                                                                                                                                                                                                                                                                                                                                                                                                                                        
00005240218320038DT67590675900000015164800888800000010180088824001193068900010901959030920230000000519006823000000000651664461098XXXXXX0320               2111111   NYV4 A7W383068641696215N840000000005190LWTG00    01DNKETOFUSION477.COM        07888C    VS84000000005190 NP1599977360677   038B56C8EETBE3ED596913A  000000000+                C CC 12108                     000000000  N000000000 496   0000000000000.00 0000000.00   0000000.00                             000000000000000                                                                                                                                                     01424 G000000005190 0000000000001.16     02050 01000                  
00005250218320001P16759067590000001516480088880000001010000000000000000                             2000000000000000000000000              000000000000                    0000000000000000000000000                    000000000000                                                                                                                                                                                                                                                                                                                                                                                                                                                                                        
00005260218320039DT67590675900000015164800888800000010180088824001193068900010901967030920230000001987006823000000000651664414721XXXXXX7996               2111111   NYV4 A7W383068649178656N84000000001987024D200    01DNKETOFUSION477.COM        009029    VS84000000019870 NP1599977360677   8EF5CD2A2BT76BDEDB16AB2  000000000+                D CD 12109                     000000000  N000000000 498   0000000000000.00 0000000.00   0000000.00                             000000000000000                                                                                                                                                     01424 G000000019870 0000000000005.07     02500 01000                  
00005270218320001P16759067590000001516480088880000001010000000000000000                             2000000000000000000000000              000000000000                    0000000000000000000000000                    000000000000                                                                                                                                                                                                                                                                                                                                                                                                                                                                                        
00005280218320040DT67590675900000015164800888800000010180088824001193068900010901975030920230000000654806823000000000651664414721XXXXXX7996               2111111   NYV4 A7W463068649489175N840000000006548FNRP00    01DNKETOFUSION477.COM        009435    VS84000000006548 NP1599977360677   8EF5CD2A2BT83851685DCF1  000000000+                D CD 12109                     000000000  N000000000 498   0000000000000.00 0000000.00   0000000.00                             000000000000000                                                                                                                                                     01424 G000000006548 0000000000001.74     02500 01000                  
00005290218320001P16759067590000001516480088880000001010000000000000000                             2000000000000000000000000              000000000000                    0000000000000000000000000                    000000000000                                                                                                                                                                                                                                                                                                                                                                                                                                                                                        
00005300218320041DT67590675900000015164800888800000010180088824001193068900010901983030920230000001499006823000000000651664410039XXXXXX5893               2111111   NYV4 A7W303068650039314N840000000014990PWCM00    01DNKETOFUSION477.COM        80525D    VS84000000014990 NP1599977360677   FD5CC78F38TEA6D64F8FE26  000000000+                D CD 12109                     000000000  N000000000 498   0000000000000.00 0000000.00   0000000.00                             000000000000000                                                                                                                                                     01424 G000000014990 0000000000003.85     02500 01000                  
00005310218320001P16759067590000001516480088880000001010000000000000000                             2000000000000000000000000              000000000000                    0000000000000000000000000                    000000000000                                                                                                                                                                                                                                                                                                                                                                                                                                                                                        
00005320218320042DT67590675900000015164800888800000010180088824001193068900010901991030920230000000654806823000000000651664410039XXXXXX5893               2111111   NYV4 A7W383068650214835N840000000006548XPBN00    01DNKETOFUSION477.COM        18806D    VS84000000006548 NP1599977360677   FD5CC78F38TD11976B7504E  000000000+                D CD 12109                     000000000  N000000000 498   0000000000000.00 0000000.00   0000000.00                             000000000000000                                                                                                                                                     01424 G000000006548 0000000000001.74     02500 01000                  
00005330218320001P16759067590000001516480088880000001010000000000000000                             2000000000000000000000000              000000000000                    0000000000000000000000000                    000000000000                                                                                                                                                                                                                                                                                                                                                                                                                                                                                        
00005340218320043DT67590675900000015164800888800000010180088824001193068900010902007030920230000000519006823000000000651664410039XXXXXX5893               2111111   NYV4 A7W463068650303067N8400000000051908DXV00    01DNKETOFUSION477.COM        37752D    VS84000000005190 NP1599977360677   FD5CC78F38TC7DD20AFDF1D  000000000+                D CD 12109                     000000000  N000000000 498   0000000000000.00 0000000.00   0000000.00                             000000000000000                                                                                                                                                     01424 G000000005190 0000000000001.40     02500 01000                  
00005350218320001P16759067590000001516480088880000001010000000000000000                             2000000000000000000000000              000000000000                    0000000000000000000000000                    000000000000                                                                                                                                                                                                                                                                                                                                                                                                                                                                                        
00005360218320044DT67590675900000015164800888800000010180088824001193068900010902023030920230000000642806823000000000651664447669XXXXXX8876               2111111   NYV4 A7W303068676202172N840000000006428XW3S00    01DNKETOFUSION477.COM        271228    VD84000000006428 NP1599977360677   BC760AB80BTD42A84E7A9F8  000000000+                F DF 00415                     000000000  N000000000       0000000000000.00 0000000.00   0000000.00                             000000000000000                                                                                                                                                     01424 G000000006428 0000000000001.21     01650 01500                  
00005370218320001P16759067590000001516480088880000001010000000000000000                             2000000000000000000000000              000000000000                    0000000000000000000000000                    000000000000                                                                                                                                                                                                                                                                                                                                                                                                                                                                                        
00005380218320045DT67590675900000015164800888800000010180088887287283068900010902065030920230000001987006823000000000651664555426XXXXXX3278       ME03KE06MS02      NY 4607AMPGTT20WR0309  N840000000019870          81DNKETOFUSION477.COM        025927    MD84000000019870 N  599977360677   D61F73C9B5TBD9944C73B64  000000000+600450S00130    MPG  09899                     000000000  N                0000000000000.00 0000000.00   0000000.00                             000000000000000                                                                                                                                                   U001424  000000000000 0000000000003.70     01760 02000                  
00005390218320046DT67590675900000015164800888800000010180088887287283068900010902073030920230000000654806823000000000651664555426XXXXXX3278       ME03KE06MS02      NY 4607AMPGRVVZQO0309  N840000000006548          81DNKETOFUSION477.COM        030002    MD84000000006548 N  599977360677   D61F73C9B5TBA5E4DD799A4  000000000+600450S00130    MPG  09899                     000000000  N                0000000000000.00 0000000.00   0000000.00                             000000000000000                                                                                                                                                   U001424  000000000000 0000000000001.35     01760 02000                  
00005400218320047DT67590675900000015164800888800000010180088824001193068900010902114030920230000001987006823000000000651664434256XXXXXX7073               2111111   NYV4 A7W303068700406627N840000000019870P2RL00    01DNKETOFUSION477.COM        079458    VD84000000019870 NP1599977360677   12A23FB207TC352428B8842  000000000+                F DF 10420                     000000000  Y000000000 338   0000000000000.00 0000000.00   0000000.00                             000000000000000                                                                                                                                                     01424 G000000019870 0000000000000.32     00050 02200                  
00005410218320001P16759067590000001516480088880000001010000000000000000                             2000000000000000000000000              000000000000                    0000000000000000000000000                    000000000000                                                                                                                                                                                                                                                                                                                                                                                                                                                                                        
00005420218320048DT67590675900000015164800888800000010180088824001193068900010902130030920230000001499106823000000000651664441103XXXXXX1250               2111111   NYV4 A7W383068722696412N840000000014991P9KP00    01DNKETOFUSION477.COM        090415    VD84000000014991 NP1599977360677   704679ED08T7876F719FA1E  000000000+                F DF 10420                     000000000  Y000000000 338   0000000000000.00 0000000.00   0000000.00                             000000000000000                                                                                                                                                     01424 G000000014991 0000000000000.29     00050 02200                  
00005430218320001P16759067590000001516480088880000001010000000000000000                             2000000000000000000000000              000000000000                    0000000000000000000000000                    000000000000                                                                                                                                                                                                                                                                                                                                                                                                                                                                                        
00005440218320049DT67590675900000015164800888800000010180088824001193068900010902148030920230000001987006823000000000651664427122XXXXXX6802               2111111   NYV4 A7W583068723516728N840000000019870BRVM00    01DNKETOFUSION477.COM        394513    VD84000000019870 NP1599977360677   B1A6698CE4TFCAFC7A008EF  000000000+                F DF 10420                     000000000  Y000000000 338   0000000000000.00 0000000.00   0000000.00                             000000000000000                                                                                                                                                     01424 G000000019870 0000000000000.32     00050 02200                  
00005450218320001P16759067590000001516480088880000001010000000000000000                             2000000000000000000000000              000000000000                    0000000000000000000000000                    000000000000                                                                                                                                                                                                                                                                                                                                                                                                                                                                                        
00005460218320050DT67590675900000015164800888800000010180088824001193068900010902155030920230000000519006823000000000651664427122XXXXXX6802               2111111   NYV4 A7W463068724125946N8400000000051903FN300    01DNKETOFUSION477.COM        963479    VD84000000005190 NP1599977360677   B1A6698CE4T7F32155F25B3  000000000+                F DF 10420                     000000000  Y000000000 338   0000000000000.00 0000000.00   0000000.00                             000000000000000                                                                                                                                                     01424 G000000005190 0000000000000.25     00050 02200                  
00005470218320001P16759067590000001516480088880000001010000000000000000                             2000000000000000000000000              000000000000                    0000000000000000000000000                    000000000000                                                                                                                                                                                                                                                                                                                                                                                                                                                                                        
00005480218320051DT67590675900000015164800888800000010180088887287283068900010902172030920230000001194806823000000000651664527515XXXXXX5847       ME03KE06MS02      NY 4607AMDJZSKMLB0309  N840000000011948          81DNKETOFUSION477.COM        155729    MD84000000011948 N  599977360677   73127FFBE7T7103D2970BAB  000000000+600450S00130    MDJ  10813                     000000000  1                0000000000000.00 0000000.00   0000000.00                             000000000000000                                                                                                                                                   U001424  000000000000 0000000000000.28     00050 02200                  
00005490218320052DT67590675900000015164800888800000010180088824001193068900010902205030920230000000542806823000000000651664474476XXXXXX4763               2111111   NYV4 A7W383068758981422N8400000000054287T8P00    01DNKETOFUSION477.COM        150248    VD84000000005428 NP1599977360677   51AE0AEFC8T53949D4908AE  000000000+                F DF 10420                     000000000  Y000000000 338   0000000000000.00 0000000.00   0000000.00                             000000000000000                                                                                                                                                     01424 G000000005428 0000000000000.25     00050 02200                  
00005500218320001P16759067590000001516480088880000001010000000000000000                             2000000000000000000000000              000000000000                    0000000000000000000000000                    000000000000                                                                                                                                                                                                                                                                                                                                                                                                                                                                                        
00005510218320053DT67590675900000015164800888800000010180088824001193068900010902213030920230000000654806823000000000651664474476XXXXXX4763               2111111   NYV4 A7W463068759121449N840000000006548WQS600    01DNKETOFUSION477.COM        150958    VD84000000006548 NP1599977360677   51AE0AEFC8TA1AF8A2512CA  000000000+                F DF 10420                     000000000  Y000000000 338   0000000000000.00 0000000.00   0000000.00                             000000000000000                                                                                                                                                     01424 G000000006548 0000000000000.25     00050 02200                  
00005520218320001P16759067590000001516480088880000001010000000000000000                             2000000000000000000000000              000000000000                    0000000000000000000000000                    000000000000                                                                                                                                                                                                                                                                                                                                                                                                                                                                                        
00005530218320054DT67590675900000015164800888800000010180088824001193068900010902221030920230000000519006823000000000651664474476XXXXXX4763               2111111   NYV4 A7W463068759247135N84000000000519069DF00    01DNKETOFUSION477.COM        160653    VD84000000005190 NP1599977360677   51AE0AEFC8T0FF60BF53176  000000000+                F DF 10420                     000000000  Y000000000 338   0000000000000.00 0000000.00   0000000.00                             000000000000000                                                                                                                                                     01424 G000000005190 0000000000000.25     00050 02200                  
00005540218320001P16759067590000001516480088880000001010000000000000000                             2000000000000000000000000              000000000000                    0000000000000000000000000                    000000000000                                                                                                                                                                                                                                                                                                                                                                                                                                                                                        
00005550218320055DT67590675900000015164800888800000010180088876509753068900010902237030920230000002487006823000000000651664601100XXXXXX5646   BA00                  NY 4 07N803058468746180N840000000024870    00    01DNKETOFUSION477.COM        00963R    DS84000000024870 N  599977360677070                         000000000+1015104910600   DCCDI11325500664  150754000000 000000000  0          460   0000000000000.00 0000000.00   0000000.00                             000000000000000                                                                                                                                                     01424  000000000000 0000000000005.15     02030 01000                  
00005560218320056BH6759067590000000370780088880000090170309202306823000000000057434    0000090001550373Y8008886759C03102023                                                                                                                                                                                                                                                                                                                                                                                                                                                                                                                                                                                                 
00005570218320057DT67590675900000003707800888800000010180088824001193068900015503685030820230000001667606823000000000057434405610XXXXXX9855               2111111   NYV4 A7W383068050519308N840000000016676B3KF00    01DNMR HEMP FLOWER           497332    VD84000000016676 NP1549976053336   86889                    000000000+                F DF 00415                     000000000  N000000000       0000000000000.00 0000000.00   0000000.00                             000000000000000                                                                                                                                                     01424 G000000016676 0000000000002.90     01650 01500                  
00005580218320001P16759067590000000370780088880000001010000000000000000                             2000000000000000000000000              000000000000                    0000000000000000000000000                    000000000000                                                                                                                                                                                                                                                                                                                                                                                                                                                                                        
00005590218320058DT67590675900000003707800888800000010180088824001193068900015503693030820230000001190006823000000000057434468005XXXXXX6345               2111111   NYV4 A7W583068072077688N840000000011900SKKF00    01DNMR HEMP FLOWER           070021    VD84000000011900 NP1549976053336   86890                    000000000+                F DF 10420                     000000000  Y000000000 338   0000000000000.00 0000000.00   0000000.00                             000000000000000                                                                                                                                                     01424 G000000011900 0000000000000.28     00050 02200                  
00005600218320001P16759067590000000370780088880000001010000000000000000                             2000000000000000000000000              000000000000                    0000000000000000000000000                    000000000000                                                                                                                                                                                                                                                                                                                                                                                                                                                                                        
00005610218320059DT67590675900000003707800888800000010180088824001193068900015503701030820230000001020006823000000000057434440393XXXXXX0245               2111111   NYV4 A7W583068178539448N840000000010200LW3Z00    01DNMR HEMP FLOWER           951802    VD84000000010200 NP1549976053336   86899                    000000000+                F PF 08175                     000000000  N000000000       0000000000000.00 0000000.00   0000000.00                             000000000000000                                                                                                                                                     01424 G000000010200 0000000000001.99     01750 02000                  
00005620218320001P16759067590000000370780088880000001010000000000000000                             2000000000000000000000000              000000000000                    0000000000000000000000000                    000000000000                                                                                                                                                                                                                                                                                                                                                                                                                                                                                        
00005630218320060DT67590675900000003707800888800000010180088824001193068900015503719030920230000000865806823000000000057434426684XXXXXX9891               2111111   NYV4 A7W303068252685060N8400000000086589M7V00    01DNMR HEMP FLOWER           03272C    VS84000000008658 NP1549976053336   86900                    000000000+                C CC 12108                     000000000  N000000000 496   0000000000000.00 0000000.00   0000000.00                             000000000000000                                                                                                                                                     01424 G000000008658 0000000000001.87     02050 01000                  
00005640218320001P16759067590000000370780088880000001010000000000000000                             2000000000000000000000000              000000000000                    0000000000000000000000000                    000000000000                                                                                                                                                                                                                                                                                                                                                                                                                                                                                        
00005650218320061DT67590675900000003707800888800000010180088824001193068900015503735030920230000001000006823000000000057434466188XXXXXX1564               2111111   NYV4 A7W463068719999761N840000000010000BNJ400    01DNMR HEMP FLOWER           011782    VD84000000010000 NP1549976053336   86936                    000000000+                F DF 10420                     000000000  Y000000000 338   0000000000000.00 0000000.00   0000000.00                             000000000000000                                                                                                                                                     01424 G000000010000 0000000000000.27     00050 02200                  
00005660218320001P16759067590000000370780088880000001010000000000000000                             2000000000000000000000000              000000000000                    0000000000000000000000000                    000000000000                                                                                                                                                                                                                                                                                                                                                                                                                                                                                        
00005670218320062BH6759067590000000288180088880000090170309202306823000000000006598    0000090001730148Y8008886759C03102023                                                                                                                                                                                                                                                                                                                                                                                                                                                                                                                                                                                                 
00005680218320063DT67590675900000002881800888800000010180088824001193068900017301484030920230000000659806823000000000006598427178XXXXXX8540               2111111   NYV4 A7W383068685899544N840000000006598ZVDX00    01DNHAPPY HIPPIE             054107    VD84000000006598 NP1549976044904   1966                     000000000+                F DF 10420                     000000000  Y000000000 338   0000000000000.00 0000000.00   0000000.00                             000000000000000                                                                                                                                                     01424 G000000006598 0000000000000.25     00050 02200                  
00005690218320001P16759067590000000288180088880000001010000000000000000                             2000000000000000000000000              000000000000                    0000000000000000000000000                    000000000000                                                                                                                                                                                                                                                                                                                                                                                                                                                                                        
00005700218320064BH6759067590000001330080010280000090170309202306823000000000794924    0000090001222109Y8001026759C03102023                                                                                                                                                                                                                                                                                                                                                                                                                                                                                                                                                                                                 
00005710218320065DT67590675900000013300800102800000010180010224001193068900012213122030820230000000744206823000000000794924400899XXXXXX4481               2111111   NYV4 A7W463064609050964N840000000007442C3NM00    01DNCBD8666317293            005506    VS84000000007442 NP1549977133133   B44701ABECT92824F48EF3F  000000000+                C CC 12108                     000000000  N000000000 496   0000000000000.00 0000000.00   0000000.00                             000000000000000                                                                                                                                                     01424 G000000007442 0000000000001.63     02050 01000                  
00005720218320001P16759067590000001330080010280000001010000000000000000                             2000000000000000000000000              000000000000                    0000000000000000000000000                    000000000000                                                                                                                                                                                                                                                                                                                                                                                                                                                                                        
00005730218320066DT67590675900000013300800102800000010180010224001193068900012213270030820230000000640906823000000000794924403490XXXXXX8551               2111111   NYV4 A7W383064693065329N840000000006409QPHQ00    01DNCBD8666317293            388192    VD84000000006409 NP1549977133133   B2B1E65A26T3999A8C3BE12  000000000+                G DG 10352                     000000000  Y000000000 338   0000000000000.00 0000000.00   0000000.00                             000000000000000                                                                                                                                                     01424 G000000006409 0000000000000.25     00050 02200                  
00005740218320001P16759067590000001330080010280000001010000000000000000                             1000000000405000000000000              000000000000                    0000000000000000000000000                    000000000000                                                                                                                                                                                                                                                                                                                                                                                                                                                                                        
00005750218320067DT67590675900000013300800102800000010180010287287283068900012213370030820230000002487006823000000000794924521876XXXXXX6194       ME03KE06MS02      NY 4607AMWEWJFOHK0305  N840000000024870          81DNCBD8666317293            64914Z    MC84000000024870 N  549977133133   3F05DD11E7T63E7B3576BAE  000000000+600450S00130    MWE  00737                     000000000  N                0000000000000.00 0000000.00   0000000.00                             000000000000000                                                                                                                                                   U001424  000000000000 0000000000006.57     02600 01000                  
00005760218320068DT67590675900000013300800102800000010180010287287283068900012213990030820230000001987006823000000000794924546208XXXXXX4807       ME03KE06MS02      NY 4607AMDJHOWMZU0305  N840000000019870          81DNCBD8666317293            167398    MD84000000019870 N  549977133133   2D764019F0T10819857A7C8  000000000+600450S00130    MDJ  00401                     000000000  N                0000000000000.00 0000000.00   0000000.00                             000000000000000                                                                                                                                                   U001424  000000000000 0000000000003.43     01650 01500                  
00005770218320069DT67590675900000013300800102800000010180010224001193068900012219186030820230000000720906823000000000794924489929XXXXXX7619               2111111   NYV4 A7W583068037263537N840000000007209MSQJ00    01DNCBD8666317293            190206    VD84000000007209 NP1549977133133   AF884ECD24T9CDCA1D468C0  000000000+                F DF 00415                     000000000  N000000000       0000000000000.00 0000000.00   0000000.00                             000000000000000                                                                                                                                                     01424 G000000007209 0000000000001.34     01650 01500                  
00005780218320001P16759067590000001330080010280000001010000000000000000                             2000000000000000000000000              000000000000                    0000000000000000000000000                    000000000000                                                                                                                                                                                                                                                                                                                                                                                                                                                                                        
00005790218320070DT67590675900000013300800102800000010180010224001193068900012219228030820230000002487006823000000000794924481582XXXXXX2053               2111111   NYV4 A7W303068060439385N840000000024870K8KF00    01DNCBD8666317293            154606    VD84000000024870 NP1549977133133   D992E9C9F4TC24B7A1F0559  000000000+                F DF 10420                     000000000  Y000000000 338   0000000000000.00 0000000.00   0000000.00                             000000000000000                                                                                                                                                     01424 G000000024870 0000000000000.34     00050 02200                  
00005800218320001P16759067590000001330080010280000001010000000000000000                             2000000000000000000000000              000000000000                    0000000000000000000000000                    000000000000                                                                                                                                                                                                                                                                                                                                                                                                                                                                                        
00005810218320071DT67590675900000013300800102800000010180010224001193068900012219236030820230000000149506823000000000794924429475XXXXXX1079               2111111   NYV4 A7W383068068570600N840000000001495FDFN00    01DNCBD8666317293            075126    VD84000000001495 NP1549977133133   404BBA7D08T3F1685DDFAE5  000000000+                G DG 10352                     000000000  Y000000000 338   0000000000000.00 0000000.00   0000000.00                             000000000000000                                                                                                                                                     01424 G000000001495 0000000000000.23     00050 02200                  
00005820218320001P16759067590000001330080010280000001010000000000000000                             2000000000000000000000000              000000000000                    0000000000000000000000000                    000000000000                                                                                                                                                                                                                                                                                                                                                                                                                                                                                        
00005830218320072DT67590675900000013300800102800000010180010224001193068900012219244030820230000001944806823000000000794924427082XXXXXX7613               2111111   NYV4 A7W463068081613579N840000000019448337200    01DNCBD8666317293            008571    VS84000000019448 NP1549977133133   D39CFD633AT9E5680B4AD37  000000000+                D CD 12109                     000000000  N000000000 498   0000000000000.00 0000000.00   0000000.00                             000000000000000                                                                                                                                                     01424 G000000019448 0000000000004.96     02500 01000                  
00005840218320001P16759067590000001330080010280000001010000000000000000                             2000000000000000000000000              000000000000                    0000000000000000000000000                    000000000000                                                                                                                                                                                                                                                                                                                                                                                                                                                                                        
00005850218320073DT67590675900000013300800102800000010180010224001193068900012219269030820230000000159606823000000000794924444796XXXXXX8688               2111111   NYV4 A7W583068093697750N840000000001596QW2400    01DNCBD8666317293            008255    VS84000000001596 NP1549977133133   9C63717E4ET4B42EA140B5C  000000000+                A CA 12106                     000000000  N000000000 492   0000000000000.00 0000000.00   0000000.00                             000000000000000                                                                                                                                                     01424 G000000001596 0000000000000.40     01890 01000                  
00005860218320001P16759067590000001330080010280000001010000000000000000                             2000000000000000000000000              000000000000                    0000000000000000000000000                    000000000000                                                                                                                                                                                                                                                                                                                                                                                                                                                                                        
00005870218320074DT67590675900000013300800102800000010180010224001193068900012219277030820230000002255006823000000000794924430679XXXXXX0540               2111111   NYV4 A7W463068093865955N840000000022550HC5800    01DNCBD8666317293            008157    VS84000000022550 NP1549977133133   9387FB8E4CT7A4402364410  000000000+                D CD 12109                     000000000  N000000000 498   0000000000000.00 0000000.00   0000000.00                             000000000000000                                                                                                                                                     01424 G000000022550 0000000000005.74     02500 01000                  
00005880218320001P16759067590000001330080010280000001010000000000000000                             2000000000000000000000000              000000000000                    0000000000000000000000000                    000000000000                                                                                                                                                                                                                                                                                                                                                                                                                                                                                        
00005890218320075DT67590675900000013300800102800000010180010287287283068900012219294030820230000001987006823000000000794924551088XXXXXX4663       ME03KE06MS02      NY 4607AMDJID6C500308  N840000000019870          81DNCBD8666317293            502646    MD84000000019870 N  549977133133   3E0646EFC1T9EBABE468180  000000000+600450S00130    MDJ  00401                     000000000  N                0000000000000.00 0000000.00   0000000.00                             000000000000000                                                                                                                                                   U001424  000000000000 0000000000003.43     01650 01500                  
00005900218320076DT67590675900000013300800102800000010180010224001193068900012219335030820230000002146006823000000000794924478200XXXXXX6746               2111111   NYV4 A7W383068144163391N8400000000214602LR400    01DNCBD8666317293            060023    VD84000000021460 NP1549977133133   2173F59A18T2F238323558C  000000000+                F DF 10420                     000000000  Y000000000 338   0000000000000.00 0000000.00   0000000.00                             000000000000000                                                                                                                                                     01424 G000000021460 0000000000000.33     00050 02200                  
00005910218320001P16759067590000001330080010280000001010000000000000000                             2000000000000000000000000              000000000000                    0000000000000000000000000                    000000000000                                                                                                                                                                                                                                                                                                                                                                                                                                                                                        
00005920218320077DT67590675900000013300800102800000010180010287287283068900012219344030820230000001604006823000000000794924524300XXXXXX3753       ME03KE06MS02      NY 4607AMPLTFD1590308  N840000000016040          81DNCBD8666317293            00879Z    MC84000000016040 N  549977133133   B5B0CEC56FTDCFB3496B78B  000000000+600450S00130    MPL  00013                     000000000  N                0000000000000.00 0000000.00   0000000.00                             000000000000000                                                                                                                                                   U001424  000000000000 0000000000003.23     01950 01000                  
00005930218320078DT67590675900000013300800102800000010180010224001193068900012219418030920230000002136006823000000000794924429819XXXXXX2034               2111111   NYV4 A7W303068248084331N84000000002136074LQ00    01DNCBD8666317293            123158    VD84000000021360 NP1549977133133   F75287777CT318546C8FDD6  000000000+                F DF 00415                     000000000  N000000000       0000000000000.00 0000000.00   0000000.00                             000000000000000                                                                                                                                                     01424 G000000021360 0000000000003.67     01650 01500                  
00005940218320001P16759067590000001330080010280000001010000000000000000                             2000000000000000000000000              000000000000                    0000000000000000000000000                    000000000000                                                                                                                                                                                                                                                                                                                                                                                                                                                                                        
00005950218320079DT67590675900000013300800102800000010180010287287283068900012219443030920230000002487006823000000000794924542418XXXXXX0179       ME03KE06MS02      NY 4607AMPL07975I0309  N840000000024870          81DNCBD8666317293            34529B    MC84000000024870 N  549977133133   EB92C3C4A4T62747A04A446  000000000+600450S00130    MPL  00580                     000000000  N                0000000000000.00 0000000.00   0000000.00                             000000000000000                                                                                                                                                   U001424  000000000000 0000000000005.32     02100 01000                  
00005960218320080DT67590675900000013300800102800000010180010287287283068900012219450030920230000002487006823000000000794924510429XXXXXX4216       ME03KE06MS02      NY 4607AMDJ10X6GR0309  N840000000024870          81DNCBD8666317293            667554    MD84000000024870 N  549977133133   A65F097B63T3CFAE193482B  000000000+600450S00130    MDJ  00401                     000000000  N                0000000000000.00 0000000.00   0000000.00                             000000000000000                                                                                                                                                   U001424  000000000000 0000000000004.25     01650 01500                  
00005970218320081DT67590675900000013300800102800000010680010274001193068900012219462030920230000002118606823000000000794924410039XXXXXX8523               0000000   NYV4 07T583068369525252N840000000021186HJCJ00    01CNCBD8666317293            50728D    VS84000000021186 NP1549977133133   9CF5A79147T3B448D849BA6  000000000+                D CD 00245                     000000000  N000000000 166   0000000000000.00 0000000.00   0000000.00                             000000000000000                                                                                                                                                     01424  000000021186-0000000000003.73     01760 00000                  
00005980218320001P16759067590000001330080010280000001060000000000000000                             2000000000000000000000000              000000000000                    0000000000000000000000000                    000000000000                                                                                                                                                                                                                                                                                                                                                                                                                                                                                        
00005990218320082DT67590675900000013300800102800000010180010224001193068900012219533030920230000001499106823000000000794924426684XXXXXX1617               2111111   NYV4 A7W383068426569225N840000000014991FDJ600    01DNCBD8666317293            01705C    VS84000000014991 NP1549977133133   E054E91B12T71B95AA2B3E1  000000000+                C CC 12108                     000000000  N000000000 496   0000000000000.00 0000000.00   0000000.00                             000000000000000                                                                                                                                                     01424 G000000014991 0000000000003.17     02050 01000                  
00006000218320001P16759067590000001330080010280000001010000000000000000                             2000000000000000000000000              000000000000                    0000000000000000000000000                    000000000000                                                                                                                                                                                                                                                                                                                                                                                                                                                                                        
00006010218320083DT67590675900000013300800102800000010180010224001193068900012219640030920230000002118606823000000000794924440066XXXXXX0232               2111111   NYV4 A7W583068468196549N840000000021186DNNS00    01DNCBD8666317293            02209D    VS84000000021186 NP1549977133133   DFDB3C0DC4T387692F1D3AA  000000000+                D CD 12109                     000000000  N000000000 498   0000000000000.00 0000000.00   0000000.00                             000000000000000                                                                                                                                                     01424 G000000021186 0000000000005.40     02500 01000                  
00006020218320001P16759067590000001330080010280000001010000000000000000                             2000000000000000000000000              000000000000                    0000000000000000000000000                    000000000000                                                                                                                                                                                                                                                                                                                                                                                                                                                                                        
00006030218320084DT67590675900000013300800102800000010180010287287283068900012219674030920230000000160006823000000000794924524008XXXXXX8796       ME03KE06MS02      NY 4607AMPLKHKBQO0309  N840000000001600          81DNCBD8666317293            00915B    MC84000000001600 N  549977133133   96B06C9D53T3180E1AA4622  000000000+600450S00130    MPL  00580                     000000000  N                0000000000000.00 0000000.00   0000000.00                             000000000000000                                                                                                                                                   U001424  000000000000 0000000000000.44     02100 01000                  
00006040218320085DT67590675900000013300800102800000010180010224001193068900012219780030920230000002401606823000000000794924401154XXXXXX7321               2111111   NYV4 A7W303068518482473N840000000024016CC9R00    01DNCBD8666317293            066587    VD84000000024016 NP1549977133133   621CAE4D82TA4087FC67550  000000000+                F DF 10420                     000000000  Y000000000 338   0000000000000.00 0000000.00   0000000.00                             000000000000000                                                                                                                                                     01424 G000000024016 0000000000000.34     00050 02200                  
