03173050568050002BH6759067590000000288180088880000090170324202308323000000000004389    0000090001840163Y8008886759C03272023                                                                                                                                                                                                                                                                                                                                                                                                                                                                                                                                                                                                 
03173060568050003DT67590675900000002881800888800000010180088876509753083900018401639032420230000000438908323000000000004389601100XXXXXX2159   BA00                  NY 4 07N813071504176016N840000000004389    00    01DNHAPPY HIPPIE             02437R    DS84000000004389 N  549976044904070                         000000000+1015104910600   DCCDI11325168400  171337000000 000000000  0          460   0000000000000.00 0000000.00   0000000.00                             000000000000000                                                                                                                                                     01424  000000000000 0000000000000.99     02030 01000                  
03173070568050004BH6759067590000001427480010280000090170324202308323000000000603866    0000090001373224Y8001026759C03272023                                                                                                                                                                                                                                                                                                                                                                                                                                                                                                                                                                                                 
03173080568050005DT67590675900000014274800102800000010180010287287283083900013728484032320230000000700408323000000000603866538067XXXXXX6259       ME03KE06MS02      NY 4607AMDJ1VRXGQ0320  N840000000007004          81DNCBD8666317293            288222    MD84000000007004 N  549977145232   99F2F1AEB0TA0FBFA4DDFBD  000000000+600450S00130    MDJ  00401                     000000000  N                0000000000000.00 0000000.00   0000000.00                             000000000000000                                                                                                                                                   U001424  000000000000 0000000000001.31     01650 01500                  
03173090568050006DT67590675900000014274800102800000010180010287287283083900013728526032320230000000700408323000000000603866517279XXXXXX0637       ME03KE06MS02      NY 4607AMDJTKP7DX0320  N840000000007004          81DNCBD8666317293            034551    MD84000000007004 N  549977145232   F81FDEB721TD2AB57B027A0  000000000+600450S00130    MDJ  00401                     000000000  N                0000000000000.00 0000000.00   0000000.00                             000000000000000                                                                                                                                                   U001424  000000000000 0000000000001.31     01650 01500                  
03173100568050007DT67590675900000014274800102800000010180010287287283083900013729151032320230000002126108323000000000603866559013XXXXXX5125                         NY 4607AMDBYXTG0V0320  N840000000021261          81DNCBD8666317293            002505    MD84000000021261 NP1549977145232                            000000000+600450S00130    MDB  00063                     000000000  N                0000000000000.00 0000000.00   0000000.00                             000000000000000                                                                                                                                                   U001424  000000000000 0000000000004.46     02050 01000                  
03173110568050001P1675906759000000142748001028000000101                                                 000001391000000000000          8000   000000000871584967            000000000000                                                                                                                                                                                                                                                                                                                                                                                                                                                                                                                                    
03173120568050008DT67590675900000014274800102800000010180010287287283083900013731116032420230000002654908323000000000603866517546XXXXXX4264       ME03KE06MS02      NY 4607AMDJTAMYCY0324  N840000000026549          81DNCBD8666317293            024356    MD84000000026549 N  549977145232   B59EDD4BE4TF190CDD66D2E  000000000+600450S00130    MDJ  10813                     000000000  1                0000000000000.00 0000000.00   0000000.00                             000000000000000                                                                                                                                                   U001424  000000000000 0000000000000.35     00050 02200                  
03173130568050009DT67590675900000014274800102800000010680010274001193083900013731136032420230000000499908323000000000603866471529XXXXXX5964               0000000   NYV4 07T303083366461235N8400000000049999JDR00    01CNCBD8666317293            005302    VB84000000004999 NP1549977145232   FC1B619080TEDD5C9FBF653  000000000+                S CS 10188                    L000000000  N000000000 357   0000000000000.00 0000000.00   0000000.00                             000000000000000                                                                                                                                                     01424  000000004999-0000000000001.20     02400 00000                  
03173140568050001P16759067590000001427480010280000001060000000000000000                             2000000000000000000000000              000000000000                    0000000000000000000000000                    000000000000                                                                                                                                                                                                                                                                                                                                                                                                                                                                                        
03173150568050010DT67590675900000014274800102800000010680010274001193083900013731144032420230000000319908323000000000603866471529XXXXXX5964               0000000   NYV4 07T583083366546385N8400000000031992Z6200    01CNCBD8666317293            080563    VB84000000003199 NP1549977145232   FC1B619080T8EE60F0C5BD2  000000000+                S CS 10188                    L000000000  N000000000 357   0000000000000.00 0000000.00   0000000.00                             000000000000000                                                                                                                                                     01424  000000003199-0000000000000.77     02400 00000                  
03173160568050001P16759067590000001427480010280000001060000000000000000                             2000000000000000000000000              000000000000                    0000000000000000000000000                    000000000000                                                                                                                                                                                                                                                                                                                                                                                                                                                                                        
03173170568050011DT67590675900000014274800102800000010680010274001193083900013731151032420230000000129508323000000000603866471529XXXXXX5964               0000000   NYV4 07T303083366625424N840000000001295W8DH00    01CNCBD8666317293            075269    VB84000000001295 NP1549977145232   FC1B619080TC63BB3FD05A6  000000000+                S CS 10188                    L000000000  N000000000 357   0000000000000.00 0000000.00   0000000.00                             000000000000000                                                                                                                                                     01424  000000001295-0000000000000.31     02400 00000                  
03173180568050001P16759067590000001427480010280000001060000000000000000                             2000000000000000000000000              000000000000                    0000000000000000000000000                    000000000000                                                                                                                                                                                                                                                                                                                                                                                                                                                                                        
03173190568050012DT67590675900000014274800102800000010180010224001193083900013731172032420230000001499108323000000000603866476516XXXXXX7679               2111111   NYV4 A7W383083413288047N840000000014991BGRT00    01DNCBD8666317293            784290    VD84000000014991 NP1549977145232   E26267B2FETF18E3556F4B0  000000000+                F DF 00415                     000000000  N000000000       0000000000000.00 0000000.00   0000000.00                             000000000000000                                                                                                                                                     01424 G000000014991 0000000000002.62     01650 01500                  
03173200568050001P16759067590000001427480010280000001010000000000000000                             2000000000000000000000000              000000000000                    0000000000000000000000000                    000000000000                                                                                                                                                                                                                                                                                                                                                                                                                                                                                        
03173210568050013DT67590675900000014274800102800000010180010287287283083900013731231032420230000002106208323000000000603866549170XXXXXX1979       ME03KE06MS02      NY 4607AMDJBNMTH60324  N840000000021062          81DNCBD8666317293            132083    MD84000000021062 N  549977145232   C854E5FDA2T44E77540A8E9  000000000+600450S00130    MDJ  10813                     000000000  1                0000000000000.00 0000000.00   0000000.00                             000000000000000                                                                                                                                                   U001424  000000000000 0000000000000.33     00050 02200                  
03173220568050014DT67590675900000014274800102800000010180010224001193083900013731248032420230000001484808323000000000603866424631XXXXXX0054               2111111   NYV4 A7W463083456060608N840000000014848GQT200    01DNCBD8666317293            00206G    VB84000000014848 NP1549977145232   4F5F733DB5T99718FAFAEB4  000000000+                G4CG411356                     000000000  N000000000 398   0000000000000.00 0000000.00   0000000.00                             000000000000000                                                                                                                                                     01424 G000000014848 0000000000003.37     02200 01000                  
03173230568050001P16759067590000001427480010280000001010000000000000000                             1000000000840000000000000              000000000000                    0000000000000000000000000                    000000000000                                                                                                                                                                                                                                                                                                                                                                                                                                                                                        
03173240568050015DT67590675900000014274800102800000010180010224001193083900013731255032420230000000551108323000000000603866474481XXXXXX3165               2111111   NYV4 A7W583083459473886N840000000005511XRK800    01DNCBD8666317293            124758    VD84000000005511 NP1549977145232   4C2EB55859T4B2050024953  000000000+                F DF 10420                     000000000  Y000000000 338   0000000000000.00 0000000.00   0000000.00                             000000000000000                                                                                                                                                     01424 G000000005511 0000000000000.25     00050 02200                  
03173250568050001P16759067590000001427480010280000001010000000000000000                             2000000000000000000000000              000000000000                    0000000000000000000000000                    000000000000                                                                                                                                                                                                                                                                                                                                                                                                                                                                                        
03173260568050016DT67590675900000014274800102800000010180010287287283083900013731322032420230000002106208323000000000603866528149XXXXXX1093       ME03KE06MS02      NY 4607AMDJGUWZSS0324  N840000000021062          81DNCBD8666317293            032120    MD84000000021062 N  549977145232   AC56FF043FT59CE1FF23037  000000000+600450S00130    MDJ  00401                     000000000  N                0000000000000.00 0000000.00   0000000.00                             000000000000000                                                                                                                                                   U001424  000000000000 0000000000003.63     01650 01500                  
03173270568050017DT67590675900000014274800102800000010180010224001193083900013731347032420230000001059808323000000000603866424631XXXXXX0054               2111111   NYV4 A7W303083469423747N8400000000105987XZC00    01DNCBD8666317293            06690G    VB84000000010598 NP1549977145232   C37BB14170T7D8CF6535558  000000000+                G4CG411356                     000000000  N000000000 398   0000000000000.00 0000000.00   0000000.00                             000000000000000                                                                                                                                                     01424 G000000010598 0000000000002.43     02200 01000                  
03173280568050001P16759067590000001427480010280000001010000000000000000                             1000000000600000000000000              000000000000                    0000000000000000000000000                    000000000000                                                                                                                                                                                                                                                                                                                                                                                                                                                                                        
03173290568050018DT67590675900000014274800102800000010680010274001193083900013731359032420230000001059808323000000000603866424631XXXXXX0054               0000000   NYV4 07T303083473187537N8400000000105989DNT00    01CNCBD8666317293            05150G    VB84000000010598 NP1549977145232   C37BB14170T7D8CF6535558  000000000+                G4CG400246                     000000000  N000000000 167   0000000000000.00 0000000.00   0000000.00                             000000000000000                                                                                                                                                     01424  000000010598-0000000000002.49     02350 00000                  
03173300568050001P16759067590000001427480010280000001060000000000000000                             2000000000000000000000000              000000000000                    0000000000000000000000000                    000000000000                                                                                                                                                                                                                                                                                                                                                                                                                                                                                        
03173310568050019DT67590675900000014274800102800000010180010287287283083900013731371032420230000002111208323000000000603866524366XXXXXX9301       ME03KE06PT01      NY 4607AMCWVCJ3H50324  N840000000021112          81DNCBD8666317293            02449P    MC84000000021112 N  549977145232   839154598DT0EC46102FB06  000000000+600450S00130    MCW  00642                     000000000  N                0000000000000.00 0000000.00   0000000.00                             000000000000000                                                                                                                                                   U001424  000000000000 0000000000004.74     02200 01000                  
03173320568050020DT67590675900000014274800102800000010180010224001193083900013731388032420230000001200808323000000000603866414740XXXXXX1096               2111111   NYV4 A7W583083475686564N84000000001200857BF00    01DNCBD8666317293            07444D    VS84000000012008 NP1549977145232   E58F5EE66AT5BF7E15704DB  000000000+                D CD 12109                     000000000  N000000000 498   0000000000000.00 0000000.00   0000000.00                             000000000000000                                                                                                                                                     01424 G000000012008 0000000000003.10     02500 01000                  
03173330568050001P16759067590000001427480010280000001010000000000000000                             2000000000000000000000000              000000000000                    0000000000000000000000000                    000000000000                                                                                                                                                                                                                                                                                                                                                                                                                                                                                        
03173340568050021DT67590675900000014274800102800000010180010224001193083900013731396032420230000002121108323000000000603866473703XXXXXX4595               2111111   NYV4 A7W583083477105784N8400000000212113KXN00    01DNCBD8666317293            006808    VD84000000021211 NP1549977145232   EE17A9159ATE5DAA64A6777  000000000+                F DF 10420                     000000000  Y000000000 338   0000000000000.00 0000000.00   0000000.00                             000000000000000                                                                                                                                                     01424 G000000021211 0000000000000.33     00050 02200                  
03173350568050001P16759067590000001427480010280000001010000000000000000                             2000000000000000000000000              000000000000                    0000000000000000000000000                    000000000000                                                                                                                                                                                                                                                                                                                                                                                                                                                                                        
03173360568050022DT67590675900000014274800102800000010680010287287283083900013731413032420230000001053108323000000000603866549170XXXXXX1979                         NY 4607AMDJVO5IEX0324  N840000000010531          81CNCBD8666317293            147068    MD84000000010531 N  549977145232   C854E5FDA2T44E77540A8E9  000000000+600450S00130    MDJ  10828                     000000000  1                0000000000000.00 0000000.00   0000000.00                             000000000000000                                                                                                                                                     01424  000000000000 0000000000000.00     00000 00000                  
03173370568050023DT67590675900000014274800102800000010180010224001193083900013731420032420230000001192208323000000000603866483950XXXXXX8453               2111111   NYV4 A7W383083497944565N840000000011922RPRZ00    01DNCBD8666317293            08626D    VS84000000011922 NP1549977145232   DBB2FE8483TF9E1BA3B8EF5  000000000+                D CD 12109                     000000000  N000000000 498   0000000000000.00 0000000.00   0000000.00                             000000000000000                                                                                                                                                     01424 G000000011922 0000000000003.08     02500 01000                  
03173380568050001P16759067590000001427480010280000001010000000000000000                             2000000000000000000000000              000000000000                    0000000000000000000000000                    000000000000                                                                                                                                                                                                                                                                                                                                                                                                                                                                                        
03173390568050024DT67590675900000014274800102800000010180010224001193083900013731453032420230000002126108323000000000603866409970XXXXXX3979               2111111   NYV4 A7W383083502197890N840000000021261FRXH00    01DNCBD8666317293            09786D    VS84000000021261 NP1549977145232   6AAA97A250T7031CA01C597  000000000+                D CD 12109                     000000000  N000000000 498   0000000000000.00 0000000.00   0000000.00                             000000000000000                                                                                                                                                     01424 G000000021261 0000000000005.42     02500 01000                  
03173400568050001P16759067590000001427480010280000001010000000000000000                             2000000000000000000000000              000000000000                    0000000000000000000000000                    000000000000                                                                                                                                                                                                                                                                                                                                                                                                                                                                                        
03173410568050025DT67590675900000014274800102800000010180010287287283083900013731512032420230000002126108323000000000603866514491XXXXXX4983       ME03KE06MS02      NY 4607AMDSHZ3QSS0324  N840000000021261          81DNCBD8666317293            116540    MD84000000021261 N  549977145232   5996329FA1T159B8681881A  000000000+600450S00130    MDS  00401                     000000000  N                0000000000000.00 0000000.00   0000000.00                             000000000000000                                                                                                                                                   U001424  000000000000 0000000000003.66     01650 01500                  
03173420568050026DT67590675900000014274800102800000010180010224001193083900013731537032420230000002146008323000000000603866403766XXXXXX4630               2111111   NYV4 A7W463083513025704N840000000021460JQ5V00    01DNCBD8666317293            904251    VS84000000021460 NP1549977145232   C035F3CBB8T3999E4792FBE  000000000+                C CC 12108                     000000000  N000000000 496   0000000000000.00 0000000.00   0000000.00                             000000000000000                                                                                                                                                     01424 G000000021460 0000000000004.50     02050 01000                  
03173430568050001P16759067590000001427480010280000001010000000000000000                             2000000000000000000000000              000000000000                    0000000000000000000000000                    000000000000                                                                                                                                                                                                                                                                                                                                                                                                                                                                                        
03173440568050027DT67590675900000014274800102800000010180010287287283083900013731546032420230000001987008323000000000603866522906XXXXXX5672       ME03KE06MS02      NY 4607AMPLAK2USM0324  N840000000019870          81DNCBD8666317293            024916    MC84000000019870 N  549977145232   DA6706967DTDC314CB5F331  000000000+600450S00130    MPL  00013                     000000000  N                0000000000000.00 0000000.00   0000000.00                             000000000000000                                                                                                                                                   U001424  000000000000 0000000000003.97     01950 01000                  
03173450568050028DT67590675900000014274800102800000010680010274001193083900013731557032420230000001073008323000000000603866403766XXXXXX4630               0000000   NYV4 07T463083519168381N840000000010730CHKK00    01CNCBD8666317293            904252    VS84000000010730 NP1549977145232   C035F3CBB8T3999E4792FBE  000000000+                C CC 00245                     000000000  N000000000 166   0000000000000.00 0000000.00   0000000.00                             000000000000000                                                                                                                                                     01424  000000010730-0000000000001.89     01760 00000                  
03173460568050001P16759067590000001427480010280000001060000000000000000                             2000000000000000000000000              000000000000                    0000000000000000000000000                    000000000000                                                                                                                                                                                                                                                                                                                                                                                                                                                                                        
03173470568050029DT67590675900000014274800102800000010180010224001193083900013731610032420230000001987008323000000000603866444796XXXXXX8671               2111111   NYV4 A7W383083544127987N840000000019870LB3C00    01DNCBD8666317293            024937    VS84000000019870 NP1549977145232   02DD96CD5BT34EC2661F9D7  000000000+                A CA 12106                     000000000  N000000000 492   0000000000000.00 0000000.00   0000000.00                             000000000000000                                                                                                                                                     01424 G000000019870 0000000000003.86     01890 01000                  
03173480568050001P16759067590000001427480010280000001010000000000000000                             2000000000000000000000000              000000000000                    0000000000000000000000000                    000000000000                                                                                                                                                                                                                                                                                                                                                                                                                                                                                        
03173490568050030DT67590675900000014274800102800000010680010274001193083900013731623032420230000000794508323000000000603866400022XXXXXX0497               0000000   NYV4 07T383083549571707N840000000007945Q9N700    01CNCBD8666317293            543714    VD84000000007945 NP1549977145232   EE7C0FAC6ET5D95B2BE2124  000000000+                F DF 08168                     000000000  Y000000000 369   0000000000000.00 0000000.00   0000000.00                             000000000000000                                                                                                                                                     01424  000000007945 0000000000000.00     00000 00000                  
03173500568050001P16759067590000001427480010280000001060000000000000000                             2000000000000000000000000              000000000000                    0000000000000000000000000                    000000000000                                                                                                                                                                                                                                                                                                                                                                                                                                                                                        
03173510568050031DT67590675900000014274800102800000010180010224001193083900013731644032420230000002661108323000000000603866414720XXXXXX5880               2111111   NYV4 A7W303083558052262N8400000000266112K5C00    01DNCBD8666317293            00172D    VS84000000026611 NP1549977145232   55B96EB05ETD754BC260992  000000000+                D CD 12109                     000000000  N000000000 498   0000000000000.00 0000000.00   0000000.00                             000000000000000                                                                                                                                                     01424 G000000026611 0000000000006.75     02500 01000                  
03173520568050001P16759067590000001427480010280000001010000000000000000                             2000000000000000000000000              000000000000                    0000000000000000000000000                    000000000000                                                                                                                                                                                                                                                                                                                                                                                                                                                                                        
03173530568050032DT67590675900000014274800102800000010180010224001193083900013731651032420230000001987008323000000000603866410039XXXXXX5589               2111111   NYV4 A7W303083558385503N840000000019870QPMK00    01DNCBD8666317293            89042D    VS84000000019870 NP1549977145232   1360F0A7F7T343590B244AA  000000000+                D CD 12109                     000000000  N000000000 498   0000000000000.00 0000000.00   0000000.00                             000000000000000                                                                                                                                                     01424 G000000019870 0000000000005.07     02500 01000                  
03173540568050001P16759067590000001427480010280000001010000000000000000                             2000000000000000000000000              000000000000                    0000000000000000000000000                    000000000000                                                                                                                                                                                                                                                                                                                                                                                                                                                                                        
03173550568050033DT67590675900000014274800102800000010180010224001193083900013731685032420230000001987008323000000000603866422646XXXXXX3624               2111111   NYV4 A7W383083566706608N8400000000198706SC600    01DNCBD8666317293            653627    VS84000000019870 NP1549977145232   924CBB8FA4T0EE0D1879812  000000000+                C CC 12108                     000000000  N000000000 496   0000000000000.00 0000000.00   0000000.00                             000000000000000                                                                                                                                                     01424 G000000019870 0000000000004.17     02050 01000                  
03173560568050001P16759067590000001427480010280000001010000000000000000                             2000000000000000000000000              000000000000                    0000000000000000000000000                    000000000000                                                                                                                                                                                                                                                                                                                                                                                                                                                                                        
03173570568050034DT67590675900000014274800102800000010180010224001193083900013731701032420230000001079808323000000000603866444796XXXXXX9593               2111111   NYV4 A7W463083576318489N840000000010798C5CB00    01DNCBD8666317293            024677    VS84000000010798 NP1549977145232   8BF83D5296TF46640ECBC35  000000000+                A CA 12106                     000000000  N000000000 492   0000000000000.00 0000000.00   0000000.00                             000000000000000                                                                                                                                                     01424 G000000010798 0000000000002.14     01890 01000                  
03173580568050001P16759067590000001427480010280000001010000000000000000                             2000000000000000000000000              000000000000                    0000000000000000000000000                    000000000000                                                                                                                                                                                                                                                                                                                                                                                                                                                                                        
03173590568050035DT67590675900000014274800102800000010180010224001193083900013731750032420230000001799108323000000000603866421783XXXXXX5514               2111111   NYV4 A7W583083580915355N84000000001799193C700    01DNCBD8666317293            062909    VS84000000017991 NP1549977145232   227F74E2DFT2482FD3D29A5  000000000+                A CA 12106                     000000000  N000000000 492   0000000000000.00 0000000.00   0000000.00                             000000000000000                                                                                                                                                     01424 G000000017991 0000000000003.50     01890 01000                  
03173600568050001P16759067590000001427480010280000001010000000000000000                             2000000000000000000000000              000000000000                    0000000000000000000000000                    000000000000                                                                                                                                                                                                                                                                                                                                                                                                                                                                                        
03173610568050036DT67590675900000014274800102800000010180010273011003083900013731772032420230000002126108323000000000603866379568XXXXX6000                          NY 4 07N007326369865060N840000000021261          01DNCBD8666317293            240410    AM84000000021261 Y  549977145232                            000000000+6004S0S00130 258     11262                     000000000                   0000000000000.00 0000000.00   0000000.00                             000000000000000 61248972086759675900000014274 CBD8666317293            2993 SANDY PLAINS RD STE 6787614584      30066     EMORRIS@GREENOTTERCBD.COM                 01324  000000000000 0000000000004.25     01950 00000                  
03173620568050037DT67590675900000014274800102800000010180010224001193083900013731792032420230000000659808323000000000603866444796XXXXXX2343               2111111   NYV4 A7W303083596258413N840000000006598PKZ700    01DNCBD8666317293            024086    VS84000000006598 NP1549977145232   801969F8E9T48B660AB6EA1  000000000+                A CA 12106                     000000000  N000000000 492   0000000000000.00 0000000.00   0000000.00                             000000000000000                                                                                                                                                     01424 G000000006598 0000000000001.35     01890 01000                  
03173630568050001P16759067590000001427480010280000001010000000000000000                             2000000000000000000000000              000000000000                    0000000000000000000000000                    000000000000                                                                                                                                                                                                                                                                                                                                                                                                                                                                                        
03173640568050038DT67590675900000014274800102800000010180010287287283083900013731801032420230000000163208323000000000603866524366XXXXXX3992       ME03KE06MS02      NY 4607AMPLLZ31SS0324  N840000000001632          81DNCBD8666317293            02492B    MC84000000001632 N  549977145232   598FAEC620T4AD8BBE4F215  000000000+600450S00130    MPL  00580                     000000000  N                0000000000000.00 0000000.00   0000000.00                             000000000000000                                                                                                                                                   U001424  000000000000 0000000000000.44     02100 01000                  
03173650568050039DT67590675900000014274800102800000010180010287287283083900013731868032420230000001987008323000000000603866552433XXXXXX8493       ME03KE06MS02      NY 4607AMPLZ442EX0324  N840000000019870          81DNCBD8666317293            03555M    MC84000000019870 N  549977145232   B71E3C0B1ET5ED19D884CD1  000000000+600450S00130    MPL  00580                     000000000  N                0000000000000.00 0000000.00   0000000.00                             000000000000000                                                                                                                                                   U001424  000000000000 0000000000004.27     02100 01000                  
03173660568050040DT67590675900000014274800102800000010180010287287283083900013731892032420230000001987008323000000000603866537835XXXXXX8634                         NY 4607AMDBHJQ2H60324  N840000000019870          81DNCBD8666317293            001334    MD84000000019870 NP1549977145232   3EF354A16ETFDCD9FE176CB  000000000+600450S00130    MDB  00062                     000000000  N                0000000000000.00 0000000.00   0000000.00                             000000000000000                                                                                                                                                   U001424  000000000000 0000000000005.37     02650 01000                  
03173670568050001P1675906759000000142748001028000000101                                                          000000000000          8000            871584967                                                                                                                                                                                                                                                                                                                                                                                                                                                                                                                                                            
03173680568050041DT67590675900000014274800102800000010680010287287283083900013731926032420230000001327408323000000000603866517546XXXXXX4264                         NY 4607AMDJRLKBKU0324  N840000000013274          81CNCBD8666317293            024414    MD84000000013274 N  549977145232   B59EDD4BE4TF190CDD66D2E  000000000+600450S00130    MDJ  10828                     000000000  1                0000000000000.00 0000000.00   0000000.00                             000000000000000                                                                                                                                                     01424  000000000000 0000000000000.00     00000 00000                  
03173690568050042DT67590675900000014274800102800000010180010273011003083900013731939032420230000002126108323000000000603866372820XXXXX3003                          NY 4 07N006767401693070N840000000021261          01DNCBD8666317293            262576    AM84000000021261 Y  549977145232                            000000000+6004S0S00130 258     11262                     000000000                   0000000000000.00 0000000.00   0000000.00                             000000000000000 61248972086759675900000014274 CBD8666317293            2993 SANDY PLAINS RD STE 6787614584      30066     EMORRIS@GREENOTTERCBD.COM                 01324  000000000000 0000000000004.25     01950 00000                  
03173700568050043DT67590675900000014274800102800000010180010224001193083900013731966032420230000002451208323000000000603866434258XXXXXX2749               2111111   NYV4 A7W463083616847689N840000000024512CKMS00    01DNCBD8666317293            090091    VD84000000024512 NP1549977145232   9EC69FC1FCT376C87E4B6C3  000000000+                F DF 10420                     000000000  Y000000000 338   0000000000000.00 0000000.00   0000000.00                             000000000000000                                                                                                                                                     01424 G000000024512 0000000000000.34     00050 02200                  
03173710568050001P16759067590000001427480010280000001010000000000000000                             2000000000000000000000000              000000000000                    0000000000000000000000000                    000000000000                                                                                                                                                                                                                                                                                                                                                                                                                                                                                        
03173720568050044DT67590675900000014274800102800000010180010287287283083900013731975032420230000001600308323000000000603866521322XXXXXX1509       ME03KE06PT01      NY 4607AMCWVR0TVP0324  N840000000016003          81DNCBD8666317293            68183P    MC84000000016003 N  549977145232   82F21B610BT68EBC028B9DB  000000000+600450S00130    MCW  00642                     000000000  N                0000000000000.00 0000000.00   0000000.00                             000000000000000                                                                                                                                                   U001424  000000000000 0000000000003.62     02200 01000                  
03173730568050045DT67590675900000014274800102800000010680010274001193083900013731987032420230000000952108323000000000603866434258XXXXXX2749               0000000   NYV4 07T463083629585085N840000000009521J8L200    01CNCBD8666317293            081732    VD84000000009521 NP1549977145232   9EC69FC1FCT376C87E4B6C3  000000000+                F DF 08168                     000000000  Y000000000 369   0000000000000.00 0000000.00   0000000.00                             000000000000000                                                                                                                                                     01424  000000009521 0000000000000.00     00000 00000                  
03173740568050001P16759067590000001427480010280000001060000000000000000                             2000000000000000000000000              000000000000                    0000000000000000000000000                    000000000000                                                                                                                                                                                                                                                                                                                                                                                                                                                                                        
03173750568050046DT67590675900000014274800102800000010180010224001193083900013732006032420230000002661108323000000000603866469451XXXXXX5730               2111111   NYV4 A7W583083635003800N840000000026611Z3FP00    01DNCBD8666317293            622549    VS84000000026611 NP1549977145232   CE5AB28640T107D798E3EE8  000000000+                B CB 12107                     000000000  N000000000 494   0000000000000.00 0000000.00   0000000.00                             000000000000000                                                                                                                                                     01424 G000000026611 0000000000005.53     02040 01000                  
03173760568050001P16759067590000001427480010280000001010000000000000000                             2000000000000000000000000              000000000000                    0000000000000000000000000                    000000000000                                                                                                                                                                                                                                                                                                                                                                                                                                                                                        
03173770568050047DT67590675900000014274800102800000010180010287287283083900013732015032420230000001272808323000000000603866531254XXXXXX3368       ME03KE06MS02      NY 4607AMDJWW87VP0324  N840000000012728          81DNCBD8666317293            135922    MD84000000012728 N  549977145232   5A427A1BD4T801B383B4F0E  000000000+600450S00130    MDJ  10813                     000000000  1                0000000000000.00 0000000.00   0000000.00                             000000000000000                                                                                                                                                   U001424  000000000000 0000000000000.28     00050 02200                  
03173780568050048DT67590675900000014274800102800000010180010287287283083900013732064032420230000002636208323000000000603866521131XXXXXX7779       ME03KE06MS02      NY 4607AMWET679KU0324  N840000000026362          81DNCBD8666317293            04583Z    MC84000000026362 N  549977145232   D9010A1E00TA03565FDF0B1  000000000+600450S00130    MWE  00737                     000000000  N                0000000000000.00 0000000.00   0000000.00                             000000000000000                                                                                                                                                   U001424  000000000000 0000000000006.95     02600 01000                  
03173790568050049DT67590675900000014274800102800000010180010287287283083900013732080032420230000000160008323000000000603866517542XXXXXX4334       ME03KE06MS02      NY 4607AMDJXPGHVP0324  N840000000001600          81DNCBD8666317293            898204    MD84000000001600 N  549977145232   3D4A536F07TBB9F204A6CC3  000000000+600450S00130    MDJ  00401                     000000000  N                0000000000000.00 0000000.00   0000000.00                             000000000000000                                                                                                                                                   U001424  000000000000 0000000000000.41     01650 01500                  
03173800568050050DT67590675900000014274800102800000010180010224001193083900013732097032420230000001604008323000000000603866481109XXXXXX6866               2111111   NYV4 A7W303083658067135N840000000016040XKVZ00    01DNCBD8666317293            024474    VS84000000016040 NP1549977145232   4DA3D4998ETBF8DE0144E66  000000000+                C CC 12108                     000000000  N000000000 496   0000000000000.00 0000000.00   0000000.00                             000000000000000                                                                                                                                                     01424 G000000016040 0000000000003.39     02050 01000                  
03173810568050001P16759067590000001427480010280000001010000000000000000                             2000000000000000000000000              000000000000                    0000000000000000000000000                    000000000000                                                                                                                                                                                                                                                                                                                                                                                                                                                                                        
03173820568050051DT67590675900000014274800102800000010180010287287283083900013732122032420230000001086808323000000000603866552433XXXXXX2885       ME03KE06PT01      NY 4607AMCWICXNK40324  N840000000010868          81DNCBD8666317293            04881S    MC84000000010868 N  549977145232   FB170E5222TEA353C1D7D7F  000000000+600450S00130    MCW  02182                     000000000  N                0000000000000.00 0000000.00   0000000.00                             000000000000000                                                                                                                                                   U001424  000000000000 0000000000002.93     02600 01000                  
03173830568050052DT67590675900000014274800102800000010180010224001193083900013732139032420230000001460008323000000000603866440066XXXXXX4977               2111111   NYV4 A7W583083672047129N840000000014600VXRT00    01DNCBD8666317293            01917B    VS84000000014600 NP1549977145232   49BB2742DBTC9FC800D928D  000000000+                B CB 12107                     000000000  N000000000 494   0000000000000.00 0000000.00   0000000.00                             000000000000000                                                                                                                                                     01424 G000000014600 0000000000003.08     02040 01000                  
03173840568050001P16759067590000001427480010280000001010000000000000000                             2000000000000000000000000              000000000000                    0000000000000000000000000                    000000000000                                                                                                                                                                                                                                                                                                                                                                                                                                                                                        
03173850568050053DT67590675900000014274800102800000010180010224001193083900013732147032420230000001272808323000000000603866414718XXXXXX7319               2111111   NYV4 A7W383083672046017N840000000012728MK6Z00    01DNCBD8666317293            024532    VS84000000012728 NP1549977145232   7AE5BFD6E0T0CE454615E64  000000000+                D CD 12109                     000000000  N000000000 498   0000000000000.00 0000000.00   0000000.00                             000000000000000                                                                                                                                                     01424 G000000012728 0000000000003.28     02500 01000                  
03173860568050001P16759067590000001427480010280000001010000000000000000                             2000000000000000000000000              000000000000                    0000000000000000000000000                    000000000000                                                                                                                                                                                                                                                                                                                                                                                                                                                                                        
03173870568050054DT67590675900000014274800102800000010180010224001193083900013732162032420230000002106208323000000000603866412422XXXXXX0445               2111111   NYV4 A7W583083680731674N840000000021062CNT900    01DNCBD8666317293            643396    VS84000000021062 NP1549977145232   75A56429D2TC9C736CBA2BD  000000000+                B CB 12107                     000000000  N000000000 494   0000000000000.00 0000000.00   0000000.00                             000000000000000                                                                                                                                                     01424 G000000021062 0000000000004.40     02040 01000                  
03173880568050001P16759067590000001427480010280000001010000000000000000                             2000000000000000000000000              000000000000                    0000000000000000000000000                    000000000000                                                                                                                                                                                                                                                                                                                                                                                                                                                                                        
03173890568050055DT67590675900000014274800102800000010680010274001193083900013732175032420230000000600008323000000000603866444796XXXXXX8671               0000000   NYV4 07T583083685208969N8400000000060004H6N00    01CNCBD8666317293            024020    VS84000000006000 NP1549977145232   02DD96CD5BT34EC2661F9D7  000000000+                A CA 00245                     000000000  N000000000 166   0000000000000.00 0000000.00   0000000.00                             000000000000000                                                                                                                                                     01424  000000006000-0000000000001.06     01760 00000                  
03173900568050001P16759067590000001427480010280000001060000000000000000                             2000000000000000000000000              000000000000                    0000000000000000000000000                    000000000000                                                                                                                                                                                                                                                                                                                                                                                                                                                                                        
03173910568050056DT67590675900000014274800102800000010680010287287283083900013732205032420230000002920308323000000000603866552433XXXXXX0090                         NY 4607AMCWYIP7KU0324  N840000000029203          81CNCBD8666317293            046866    MC84000000029203 N  549977145232   966EB911CDT7EACAAC6E225  000000000+600450S00130    MCW  00565                     000000000  N                0000000000000.00 0000000.00   0000000.00                             000000000000000                                                                                                                                                     01424  000000000000-0000000000005.11     01750 00000                  
03173920568050057DT67590675900000014274800102800000010180010224001193083900013732246032420230000002255008323000000000603866434256XXXXXX4281               2111111   NYV4 A7W583083771042703N840000000022550T4ZB00    01DNCBD8666317293            043979    VD84000000022550 NP1549977145232   85943EB6EFT65282C96E25A  000000000+                F DF 10420                     000000000  Y000000000 338   0000000000000.00 0000000.00   0000000.00                             000000000000000                                                                                                                                                     01424 G000000022550 0000000000000.33     00050 02200                  
03173930568050001P16759067590000001427480010280000001010000000000000000                             2000000000000000000000000              000000000000                    0000000000000000000000000                    000000000000                                                                                                                                                                                                                                                                                                                                                                                                                                                                                        
03173940568050058BH6759067590000001330080010280000090170324202308323000000000696300    0000090001373867Y8001026759C03272023                                                                                                                                                                                                                                                                                                                                                                                                                                                                                                                                                                                                 
03173950568050059DT67590675900000013300800102800000010180010287287283083900013733427032320230000001604008323000000000696300537993XXXXXX8299       ME03KE06MS02      NY 4607AMPLBNPER20320  N840000000016040          81DNCBD8666317293            02053Z    MC84000000016040 N  549977133133   A66D95CC1FT45B44570447A  000000000+600450S00130    MPL  00013                     000000000  N                0000000000000.00 0000000.00   0000000.00                             000000000000000                                                                                                                                                   U001424  000000000000 0000000000003.23     01950 01000                  
03173960568050060DT67590675900000013300800102800000010180010287287283083900013734003032320230000000700408323000000000696300517805XXXXXX4619       ME03KE06MS02      NY 4607AMPLSUENM40320  N840000000007004          81DNCBD8666317293            05415B    MC84000000007004 N  549977133133   F613710134TCD9F51F5CA71  000000000+600450S00130    MPL  00580                     000000000  N                0000000000000.00 0000000.00   0000000.00                             000000000000000                                                                                                                                                   U001424  000000000000 0000000000001.57     02100 01000                  
03173970568050061DT67590675900000013300800102800000010180010287287283083900013734318032320230000000600408323000000000696300550114XXXXXX2838       ME03KE06MS02      NY 4607AMCSP9UAZS0320  N840000000006004          81DNCBD8666317293            020761    MC84000000006004 N  549977133133   FD46F1458DTB9AF66AE1EBD  000000000+600450S00130    MCS  00013                     000000000  N                0000000000000.00 0000000.00   0000000.00                             000000000000000                                                                                                                                                   U001424  000000000000 0000000000001.27     01950 01000                  
03173980568050062DT67590675900000013300800102800000010180010224001193083900013736510032320230000000019908323000000000696300428821XXXXXX6992               2111111   NYV4 A7W383083008501290N840000000000199G4ZB00    01DNCBD8666317293            536950    VB84000000000199 NP1549977133133   D14B1706EAT0220CB8C1B63  000000000+                S CS 00692                     000000000  N000000000 237   0000000000000.00 0000000.00   0000000.00                             000000000000000                                                                                                                                                     01424 G000000000199 0000000000000.15     02700 01000                  
03173990568050001P16759067590000001330080010280000001010000000000000000                             2000000000000000000000000              000000000000                    0000000000000000000000000                    000000000000                                                                                                                                                                                                                                                                                                                                                                                                                                                                                        
03174000568050063DT67590675900000013300800102800000010180010287287283083900013736529032320230000000019908323000000000696300556150XXXXXX6206                         NY 4607AMCFRRL55O0323  N840000000000199          81DNCBD8666317293            PAFD7X    MB84000000000199 NP1549977133133   79732EBCD1T46EB7AADDB5D  000000000+600450S00130    MCF  00060                     000000000  N                0000000000000.00 0000000.00   0000000.00                             000000000000000                                                                                                                                                     01424  000000000000 0000000000000.16     02950 01000                  
03174010568050001P1675906759000000133008001028000000101                                                          000000000000          8000            871584967                                                                                                                                                                                                                                                                                                                                                                                                                                                                                                                                                            
03174020568050064DT67590675900000013300800102800000010180010224001193083900013736536032320230000000019908323000000000696300428813XXXXXX2114               2111111   NYV4 A7W583083016320366N840000000000199RVCK00    01DNCBD8666317293            891811    VB84000000000199 NP1549977133133   B732B75C2BT1DD63283FBDA  000000000+                S CS 00692                     000000000  N000000000 237   0000000000000.00 0000000.00   0000000.00                             000000000000000                                                                                                                                                     01424 G000000000199 0000000000000.15     02700 01000                  
03174030568050001P16759067590000001330080010280000001010000000000000000                             2000000000000000000000000              000000000000                    0000000000000000000000000                    000000000000                                                                                                                                                                                                                                                                                                                                                                                                                                                                                        
03174040568050065DT67590675900000013300800102800000010180010224001193083900013736544032320230000000019908323000000000696300412076XXXXXX6055               2111111   NYV4 A7W463083018044037N840000000000199MS6K00    01DNCBD8666317293            157762    VS84000000000199 NP1549977133133   B2503590CFT38E61893B128  000000000+                A CA 12106                     000000000  N000000000 492   0000000000000.00 0000000.00   0000000.00                             000000000000000                                                                                                                                                     01424 G000000000199 0000000000000.14     01890 01000                  
03174050568050001P16759067590000001330080010280000001010000000000000000                             2000000000000000000000000              000000000000                    0000000000000000000000000                    000000000000                                                                                                                                                                                                                                                                                                                                                                                                                                                                                        
03174060568050066DT67590675900000013300800102800000010180010224001193083900013736585032320230000000019908323000000000696300428813XXXXXX1652               2111111   NYV4 A7W463083045052537N840000000000199357H00    01DNCBD8666317293            077760    VB84000000000199 NP1549977133133   261EE1161AT69A9C9C470A2  000000000+                S CS 00692                     000000000  N000000000 237   0000000000000.00 0000000.00   0000000.00                             000000000000000                                                                                                                                                     01424 G000000000199 0000000000000.15     02700 01000                  
03174070568050001P16759067590000001330080010280000001010000000000000000                             2000000000000000000000000              000000000000                    0000000000000000000000000                    000000000000                                                                                                                                                                                                                                                                                                                                                                                                                                                                                        
03174080568050067DT67590675900000013300800102800000010180010224001193083900013736593032320230000000019908323000000000696300485932XXXXXX4102               2111111   NYV4 A7W303083046843194N8400000000001999KXF00    01DNCBD8666317293            229423    VB84000000000199 NP1549977133133   18CB68A075T967E0537EB2C  000000000+                S CS 00692                     000000000  N000000000 237   0000000000000.00 0000000.00   0000000.00                             000000000000000                                                                                                                                                     01424 G000000000199 0000000000000.15     02700 01000                  
03174090568050001P16759067590000001330080010280000001010000000000000000                             2000000000000000000000000              000000000000                    0000000000000000000000000                    000000000000                                                                                                                                                                                                                                                                                                                                                                                                                                                                                        
03174100568050068DT67590675900000013300800102800000010180010224001193083900013736601032320230000000019908323000000000696300428821XXXXXX5225               2111111   NYV4 A7W303083050453767N840000000000199VSBS00    01DNCBD8666317293            548394    VB84000000000199 NP1549977133133   035663C89DT49427F8DDA3A  000000000+                S CS 00692                     000000000  N000000000 237   0000000000000.00 0000000.00   0000000.00                             000000000000000                                                                                                                                                     01424 G000000000199 0000000000000.15     02700 01000                  
03174110568050001P16759067590000001330080010280000001010000000000000000                             2000000000000000000000000              000000000000                    0000000000000000000000000                    000000000000                                                                                                                                                                                                                                                                                                                                                                                                                                                                                        
03174120568050069DT67590675900000013300800102800000010180010224001193083900013736619032320230000000019908323000000000696300428821XXXXXX5135               2111111   NYV4 A7W463083053458121N840000000000199ZGSP00    01DNCBD8666317293            011061    VB84000000000199 NP1549977133133   10160D39D5T33331B49EE55  000000000+                S CS 00692                     000000000  N000000000 237   0000000000000.00 0000000.00   0000000.00                             000000000000000                                                                                                                                                     01424 G000000000199 0000000000000.15     02700 01000                  
03174130568050001P16759067590000001330080010280000001010000000000000000                             2000000000000000000000000              000000000000                    0000000000000000000000000                    000000000000                                                                                                                                                                                                                                                                                                                                                                                                                                                                                        
03174140568050070DT67590675900000013300800102800000010180010224001193083900013736650032320230000002700908323000000000696300475055XXXXXX6681               2111111   NYV4 A7W463083057810910N840000000027009LWC700    01DNCBD8666317293            013621    VD84000000027009 NP1549977133133   DAEB7AFAF5TF30F9CFB3875  000000000+                F DF 10420                     000000000  Y000000000 338   0000000000000.00 0000000.00   0000000.00                             000000000000000                                                                                                                                                     01424 G000000027009 0000000000000.36     00050 02200                  
03174150568050001P16759067590000001330080010280000001010000000000000000                             2000000000000000000000000              000000000000                    0000000000000000000000000                    000000000000                                                                                                                                                                                                                                                                                                                                                                                                                                                                                        
03174160568050071DT67590675900000013300800102800000010180010224001193083900013736668032320230000000019908323000000000696300433451XXXXXX1080               2111111   NYV4 A7W303083073246256N840000000000199FGDV00    01DNCBD8666317293            BSXVDB    VD84000000000199 NP1549977133133   5AC8AE19B3T896313C0B6AE  000000000+                S PS 10179                     000000000  N000000000 364   0000000000000.00 0000000.00   0000000.00                             000000000000000                                                                                                                                                     01424 G000000000199 0000000000000.15     02650 01000                  
03174170568050001P16759067590000001330080010280000001010000000000000000                             2000000000000000000000000              000000000000                    0000000000000000000000000                    000000000000                                                                                                                                                                                                                                                                                                                                                                                                                                                                                        
03174180568050072DT67590675900000013300800102800000010180010224001193083900013736676032320230000000019908323000000000696300412076XXXXXX7503               2111111   NYV4 A7W583083087633346N840000000000199HJVN00    01DNCBD8666317293            887044    VS84000000000199 NP1549977133133   E4B23F906BT2C9ED917F0F1  000000000+                A CA 12106                     000000000  N000000000 492   0000000000000.00 0000000.00   0000000.00                             000000000000000                                                                                                                                                     01424 G000000000199 0000000000000.14     01890 01000                  
03174190568050001P16759067590000001330080010280000001010000000000000000                             2000000000000000000000000              000000000000                    0000000000000000000000000                    000000000000                                                                                                                                                                                                                                                                                                                                                                                                                                                                                        
03174200568050073DT67590675900000013300800102800000010180010224001193083900013736692032320230000000019908323000000000696300440393XXXXXX0505               2111111   NYV4 A7W303083093644988N840000000000199GP7D00    01DNCBD8666317293            413016    VD84000000000199 NP1549977133133   B7A6AF00FBTAE7D894813E4  000000000+                F PF 08175                     000000000  N000000000       0000000000000.00 0000000.00   0000000.00                             000000000000000                                                                                                                                                     01424 G000000000199 0000000000000.23     01750 02000                  
03174210568050001P16759067590000001330080010280000001010000000000000000                             2000000000000000000000000              000000000000                    0000000000000000000000000                    000000000000                                                                                                                                                                                                                                                                                                                                                                                                                                                                                        
03174220568050074DT67590675900000013300800102800000010180010287287283083900013736727032320230000000019908323000000000696300512507XXXXXX5934                         NY 4607AMCPXTU39R0323  N840000000000199          81DNCBD8666317293            526825    MB84000000000199 NP1549977133133   76C303D9A7T50EC9AD6794E  000000000+600450S00130    MCP  00303                     000000000  N                0000000000000.00 0000000.00   0000000.00                             000000000000000                                                                                                                                                   U001424  000000000000 0000000000000.15     02700 01000                  
03174230568050001P1675906759000000133008001028000000101                                                          000000000000          8000            871584967                                                                                                                                                                                                                                                                                                                                                                                                                                                                                                                                                            
03174240568050075DT67590675900000013300800102800000010180010224001193083900013736734032320230000000019908323000000000696300441112XXXXXX0109               2111111   NYV4 A7W583083104430872N840000000000199DXHL00    01DNCBD8666317293            LOGBSW    VD84000000000199 NP1549977133133   DC6ED90BBBT54FCBEC7B497  000000000+                S PS 10179                     000000000  N000000000 364   0000000000000.00 0000000.00   0000000.00                             000000000000000                                                                                                                                                     01424 G000000000199 0000000000000.15     02650 01000                  
03174250568050001P16759067590000001330080010280000001010000000000000000                             2000000000000000000000000              000000000000                    0000000000000000000000000                    000000000000                                                                                                                                                                                                                                                                                                                                                                                                                                                                                        
03174260568050076DT67590675900000013300800102800000010180010287287283083900013736768032320230000000019908323000000000696300524897XXXXXX9433                         NY 4607AMCPUO4Q9R0323  N840000000000199          81DNCBD8666317293            P13EVO    MB84000000000199 NP1549977133133   5335713808T561EF13EE6BE  000000000+600450S00130    MCP  00303                     000000000  N                0000000000000.00 0000000.00   0000000.00                             000000000000000                                                                                                                                                   U001424  000000000000 0000000000000.15     02700 01000                  
03174270568050001P1675906759000000133008001028000000101                                                          000000000000          8000            871584967                                                                                                                                                                                                                                                                                                                                                                                                                                                                                                                                                            
03174280568050077DT67590675900000013300800102800000010180010224001193083900013736775032420230000000019908323000000000696300441112XXXXXX5916               2111111   NYV4 A7W583083182434176N840000000000199Q8T600    01DNCBD8666317293            G2ROLB    VD84000000000199 NP1549977133133   DC29FC766FT1AF295E908DF  000000000+                S PS 10179                     000000000  N000000000 364   0000000000000.00 0000000.00   0000000.00                             000000000000000                                                                                                                                                     01424 G000000000199 0000000000000.15     02650 01000                  
03174290568050001P16759067590000001330080010280000001010000000000000000                             2000000000000000000000000              000000000000                    0000000000000000000000000                    000000000000                                                                                                                                                                                                                                                                                                                                                                                                                                                                                        
03174300568050078DT67590675900000013300800102800000010180010224001193083900013736783032420230000000019908323000000000696300412076XXXXXX5014               2111111   NYV4 A7W583083183692056N840000000000199M4JC00    01DNCBD8666317293            327315    VS84000000000199 NP1549977133133   7D4E9EC8A1T07460D3A0EEA  000000000+                A CA 12106                     000000000  N000000000 492   0000000000000.00 0000000.00   0000000.00                             000000000000000                                                                                                                                                     01424 G000000000199 0000000000000.14     01890 01000                  
03174310568050001P16759067590000001330080010280000001010000000000000000                             2000000000000000000000000              000000000000                    0000000000000000000000000                    000000000000                                                                                                                                                                                                                                                                                                                                                                                                                                                                                        
03174320568050079DT67590675900000013300800102800000010180010224001193083900013736791032420230000000019908323000000000696300408544XXXXXX0295               2111111   NYV4 A7W463083232945616N8400000000001998NRJ00    01DNCBD8666317293            779081    VB84000000000199 NP1549977133133   28619A8C80T82FA054768FA  000000000+                K CK 00691                     000000000  N000000000 234   0000000000000.00 0000000.00   0000000.00                             000000000000000                                                                                                                                                     01424 G000000000199 0000000000000.15     02700 01000                  
03174330568050001P16759067590000001330080010280000001010000000000000000                             2000000000000000000000000              000000000000                    0000000000000000000000000                    000000000000                                                                                                                                                                                                                                                                                                                                                                                                                                                                                        
03174340568050080DT67590675900000013300800102800000010180010224001193083900013736809032420230000000019908323000000000696300428813XXXXXX6248               2111111   NYV4 A7W383083241282009N840000000000199MGNL00    01DNCBD8666317293            564804    VB84000000000199 NP1549977133133   849CC45B46TD2B99F5875C1  000000000+                S CS 00692                     000000000  N000000000 237   0000000000000.00 0000000.00   0000000.00                             000000000000000                                                                                                                                                     01424 G000000000199 0000000000000.15     02700 01000                  
03174350568050001P16759067590000001330080010280000001010000000000000000                             2000000000000000000000000              000000000000                    0000000000000000000000000                    000000000000                                                                                                                                                                                                                                                                                                                                                                                                                                                                                        
03174360568050081DT67590675900000013300800102800000010180010224001193083900013736825032420230000000019908323000000000696300485932XXXXXX8042               2111111   NYV4 A7W463083308447007N840000000000199MBVW00    01DNCBD8666317293            155529    VB84000000000199 NP1549977133133   3F4C75577DT54159603BD8D  000000000+                S CS 00692                     000000000  N000000000 237   0000000000000.00 0000000.00   0000000.00                             000000000000000                                                                                                                                                     01424 G000000000199 0000000000000.15     02700 01000                  
03174370568050001P16759067590000001330080010280000001010000000000000000                             2000000000000000000000000              000000000000                    0000000000000000000000000                    000000000000                                                                                                                                                                                                                                                                                                                                                                                                                                                                                        
03174380568050082DT67590675900000013300800102800000010180010224001193083900013736833032420230000000019908323000000000696300485932XXXXXX5961               2111111   NYV4 A7W583083310837391N840000000000199SC2Z00    01DNCBD8666317293            860464    VB84000000000199 NP1549977133133   6BD6FE52F6T1C10FA9C588C  000000000+                S CS 00692                     000000000  N000000000 237   0000000000000.00 0000000.00   0000000.00                             000000000000000                                                                                                                                                     01424 G000000000199 0000000000000.15     02700 01000                  
03174390568050001P16759067590000001330080010280000001010000000000000000                             2000000000000000000000000              000000000000                    0000000000000000000000000                    000000000000                                                                                                                                                                                                                                                                                                                                                                                                                                                                                        
03174400568050083DT67590675900000013300800102800000010180010224001193083900013736841032420230000000019908323000000000696300428813XXXXXX3148               2111111   NYV4 A7W303083319869224N84000000000019926PC00    01DNCBD8666317293            590336    VB84000000000199 NP1549977133133   4CD328A77AT9CBD21BF13CA  000000000+                S CS 00692                     000000000  N000000000 237   0000000000000.00 0000000.00   0000000.00                             000000000000000                                                                                                                                                     01424 G000000000199 0000000000000.15     02700 01000                  
03174410568050001P16759067590000001330080010280000001010000000000000000                             2000000000000000000000000              000000000000                    0000000000000000000000000                    000000000000                                                                                                                                                                                                                                                                                                                                                                                                                                                                                        
03174420568050084DT67590675900000013300800102800000010180010287287283083900013736875032420230000000019908323000000000696300531993XXXXXX7264                         NY 4607AMCPTTAACY0324  N840000000000199          81DNCBD8666317293            UUWFCR    MB84000000000199 NP1549977133133   45A8F834AET19E0F2EE1773  000000000+600450S00130    MCP  00303                     000000000  N                0000000000000.00 0000000.00   0000000.00                             000000000000000                                                                                                                                                   U001424  000000000000 0000000000000.15     02700 01000                  
03174430568050001P1675906759000000133008001028000000101                                                          000000000000          8000            871584967                                                                                                                                                                                                                                                                                                                                                                                                                                                                                                                                                            
03174440568050085DT67590675900000013300800102800000010180010287287283083900013736883032420230000001484808323000000000696300542418XXXXXX1742       ME03KE06MS02      NY 4607AMWESVSAEX0324  N840000000014848          81DNCBD8666317293            10457P    MC84000000014848 N  549977133133   D97F49F30CT0F40D6998403  000000000+600450S00130    MWE  00737                     000000000  N                0000000000000.00 0000000.00   0000000.00                             000000000000000                                                                                                                                                   U001424  000000000000 0000000000003.96     02600 01000                  
03174450568050086DT67590675900000013300800102800000010180010224001193083900013736890032420230000000019908323000000000696300404038XXXXXX0375               2111111   NYV4 A7W383083361244491N84000000000019967DS00    01DNCBD8666317293            65KT4C    VD84000000000199 NP1549977133133   88047C5599TBFDECA180AF3  000000000+                S PS 10179                     000000000  N000000000 364   0000000000000.00 0000000.00   0000000.00                             000000000000000                                                                                                                                                     01424 G000000000199 0000000000000.15     02650 01000                  
03174460568050001P16759067590000001330080010280000001010000000000000000                             2000000000000000000000000              000000000000                    0000000000000000000000000                    000000000000                                                                                                                                                                                                                                                                                                                                                                                                                                                                                        
