00012380190510002BH6759067590000000370780088880000090170208202303923000000000017115    0000090001260188Y8008886759C02092023                                                                                                                                                                                                                                                                                                                                                                                                                                                                                                                                                                                                 
00012390190510003DT67590675900000003707800888800000010180088887287283039900012601851020820230000000449903923000000000017115551398XXXXXX7304       ME03KE06MS02      NY 4607AMDS0LHB5H0208  N840000000004499          81DNMR HEMP FLOWER           0LHB5H    MD84000000004499 N  549976053336   85450                    000000000+600450S00130    MDS  00401                     000000000  N                0000000000000.00 0000000.00   0000000.00                             000000000000000                                                                                                                                                   U001424  000000000000 0000000000000.89     01650 01500                  
00012400190510004DT67590675900000003707800888800000010180088824001193039900012601868020820230000000289903923000000000017115409561XXXXXX2581               2111111   NYV4 A7W303039414610255N8400000000028995HV300    01DNMR HEMP FLOWER           001021    VS84000000002899 NP1549976053336   85451                    000000000+                A CA 12106                     000000000  N000000000 492   0000000000000.00 0000000.00   0000000.00                             000000000000000                                                                                                                                                     01424 G000000002899 0000000000000.65     01890 01000                  
00012410190510001P16759067590000000370780088880000001010000000000000000                             2000000000000000000000000              000000000000                    0000000000000000000000000                    000000000000                                                                                                                                                                                                                                                                                                                                                                                                                                                                                        
00012420190510005DT67590675900000003707800888800000010180088824001193039900012601876020820230000000179803923000000000017115440066XXXXXX6214               2111111   NYV4 A7W383039768591864N840000000001798VC8S00    01DNMR HEMP FLOWER           00949A    VS84000000001798 NP1549976053336   85476                    000000000+                A CA 12106                     000000000  N000000000 492   0000000000000.00 0000000.00   0000000.00                             000000000000000                                                                                                                                                     01424 G000000001798 0000000000000.44     01890 01000                  
00012430190510001P16759067590000000370780088880000001010000000000000000                             2000000000000000000000000              000000000000                    0000000000000000000000000                    000000000000                                                                                                                                                                                                                                                                                                                                                                                                                                                                                        
00012440190510006DT67590675900000003707800888800000010180088824001193039900012601884020820230000000791903923000000000017115483312XXXXXX9162               2111111   NYV4 A7W583039778537552N840000000007919VCZ700    01DNMR HEMP FLOWER           033716    VD84000000007919 NP1549976053336   85477                    000000000+                F DF 10420                     000000000  Y000000000 338   0000000000000.00 0000000.00   0000000.00                             000000000000000                                                                                                                                                     01424 G000000007919 0000000000000.26     00050 02200                  
00012450190510001P16759067590000000370780088880000001010000000000000000                             2000000000000000000000000              000000000000                    0000000000000000000000000                    000000000000                                                                                                                                                                                                                                                                                                                                                                                                                                                                                        
00012460190510007BH6759067590000000215480088880000090170208202303923000000000055000    0000090001050001Y8008886759C02092023                                                                                                                                                                                                                                                                                                                                                                                                                                                                                                                                                                                                 
00012470190510008DT67590675900000002154800888800000010180088824001193039900010500013020820230000005500003923000000000055000474165XXXXXX4004       VS11    0001111   NYV1 A E383039859954516N840000000055000NGJ800    05DNDRIP DROP DISTRO LLC     013935    VD84000000055000 N  519976225826                            000000000+                G DG 10351                     000000000  Y000000000 338   0000000000000.00 0000000.00   0000000.00                             000000000000000                                                                                                                                                     01424 A000000000000 0000000000000.50     00050 02200                  
00012480190510009BH6759067590000000051380000180000090170208202303923000000000000208    0000090001540001Y8000016759C02092023                                                                                                                                                                                                                                                                                                                                                                                                                                                                                                                                                                                                 
00012490190510010DT67590675900000000513800001800000033080000176759003039900015400016020920230000000020803923000000000000208474489XXXXXX3159                         NY 2 0 N               N840000000000208      IL  07DNVERMONT STATE BANK2      102051    DB84000000000208 N  549975705321                            000000000+                     09580                                Y          342   0000000000000.00 0000000.00   0000000.00                             000000000000000                                                                                                                                                     01424  000000000000 0000000000000.22     00050 00000                  
