06187520550534952AD675906759000000232598001168000009077900016322120000002178907232023NYY20423YC6759800116072520232023194023503                                                                                                                                                                                                                                                                                                                                                                                                                                                                                                                                                                                              
06187530550534955AD675906759000000133008001028000009071900011564500000002106207232023NYY20423ND6759800102072520232023202019394                                                                                                                                                                                                                                                                                                                                                                                                                                                                                                                                                                                              
06187540550534958AD675906759000000151648008888000009071900010884030000000654807232023NYY20423ND6759800888072520232023202019395                                                                                                                                                                                                                                                                                                                                                                                                                                                                                                                                                                                              
06187550550534961AD675906759000000151648008888000009071900010884040000000519007232023NYY20423ND6759800888072520232023202019396                                                                                                                                                                                                                                                                                                                                                                                                                                                                                                                                                                                              
06187560550534964AD675906759000000151648008888000009071900010884020000000198807232023NYY20423ND6759800888072520232023202019397                                                                                                                                                                                                                                                                                                                                                                                                                                                                                                                                                                                              
06187570550534967AD675906759000000142748001028000009071900014194150000001987007232023NYY20423ND6759800102072520232023202019398                                                                                                                                                                                                                                                                                                                                                                                                                                                                                                                                                                                              
06187580552133821BH6759067590000001516480088880000090170724202320523000000000019870    0000090001439117N8008886759D07252023143                                                                                                                                                                                                                                                                                                                                                                                                                                                                                                                                                                                              
06187590552133822DT67590675900000015164800888800000010680088874001193205900014391172072120230000001987020523000000000019870443044XXXXXX8237               0000000   YYV4 07T383202485713656N840000000019870R52R00    01CNKETOFUSION833-923-3587   021929    VD84000000019870 NDR599977360677   9DE8F7F441T6FB3B0562498  000000000+                F DF 08168                     000000000  Y000000000 369   0000000000000.00 0000000.00   0000000.00                             000000000000000                                                                                                                                                     015WPE 000000019870 0000000000000.00     00000 00000                  
06187600552133822DR6759067590000001516480088880000001069DE8F7F441T6FB3B0562498  U000000019870                 P1                                                                                                                                                                                                                                                                                                                                                                                                                                                                                                                                                                                                            
06187610552130001P16759067590000001516480088880000001060000000000000000                             2000000000000000000000000              000000000000                    0000000000000000000000000                    000000000000                                                                                                                                                                                                                                                                                                                                                                                                                                                                                        
06187620552130002G2675906759000000151648008888000000106801-4041097              UT           9 D                00                                      NNNN   N                      000000000000                                                                   77360677                                                                                                                                                                                                                                                                                                                                                                                                                                               
06187630552133825BH6759067590000001982880010980000090170724202320523000000000024870    0000090001110813N8001096759D07252023111                                                                                                                                                                                                                                                                                                                                                                                                                                                                                                                                                                                              
06187640552133826DT67590675900000019828800109800000010680010987287283205900011108138072120230000002487020523000000000024870550883XXXXXX3633                         YY94607N         0721  N840000000000000          81CNKETOFUSION 8885968154              MD84000000024870 N  599977547467   DADCB6DE1FT8F4FC4FF557F  000000000+600450S00130    MDS  00560                     000000000  N                0000000000000.00 0000000.00   0000000.00                             000000000000000                                                                                                                                                     015WPE 000000000000 0000000000000.00     00000 00000                  
06187650552130001G26759067590000001982880010980000001068885968154               UT           9 S               210                                      NNNN           210000000000000000000000000                        7                                          77547467                                                                                                                                                                                                                                                                                                                                                                                                                                               
06187660552133829BH6759067590000002684980012580000090170724202320523000000000080592    0000090001988162N8001256759D07252023098                                                                                                                                                                                                                                                                                                                                                                                                                                                                                                                                                                                              
06187670552133830DT67590675900000026849800125800000010680012574001193205900019881557072120230000001280320523000000000080592403766XXXXXX2519               0000000   YYV4 07T583202221561887N840000000012803JPRX00    01CNCBD8885133385            101290    VS84000000012803 NDR599978220273   FFC91802ABT23CA9F8E09BA  000000000+                A CA 00245                     000000000  N000000000 166   0000000000000.00 0000000.00   0000000.00                             000000000000000                                                                                                                                                     015WPE 000000012803-0000000000002.25     01760 00000                  
06187680552133830DR675906759000000268498001258000000106FFC91802ABT23CA9F8E09BA  Y000000012803                 P1                                                                                                                                                                                                                                                                                                                                                                                                                                                                                                                                                                                                            
06187690552130001P16759067590000002684980012580000001060000000000000000                             2000000000000000000000000              000000000000                    0000000000000000000000000                    000000000000                                                                                                                                                                                                                                                                                                                                                                                                                                                                                        
06187700552130002G2675906759000000268498001258000000106888-5133385              WY           9 C                00                                      NNNN   Y                      000000000000                                                                   78220273                                                                                                                                                                                                                                                                                                                                                                                                                                               
06187710552133831DT67590675900000026849800125800000010680012587287283205900019881645072120230000000979820523000000000080592531490XXXXXX1071                         YY94607N         0721  N840000000000000          81CNCBD8885133385                      MC84000000009798 N  599978220273   5252BC66FBTED05873A7680  000000000+600450S00130    MPL  00564                     000000000  N                0000000000000.00 0000000.00   0000000.00                             000000000000000                                                                                                                                                     015WPE 000000000000-0000000000001.71     01750 00000                  
06187720552130001G26759067590000002684980012580000001068885133385               WY           9 L               210                                      NNNN           210000000000000000000000000                        7                                          78220273                                                                                                                                                                                                                                                                                                                                                                                                                                               
06187730552133832DT67590675900000026849800125800000010680012587287283205900019881652072120230000000619820523000000000080592531490XXXXXX1071                         YY94607N         0721  N840000000000000          81CNCBD8885133385                      MC84000000006198 N  599978220273   5252BC66FBTCA4DC21640BB  000000000+600450S00130    MPL  00564                     000000000  N                0000000000000.00 0000000.00   0000000.00                             000000000000000                                                                                                                                                     015WPE 000000000000-0000000000001.08     01750 00000                  
06187740552130001G26759067590000002684980012580000001068885133385               WY           9 L               210                                      NNNN           210000000000000000000000000                        7                                          78220273                                                                                                                                                                                                                                                                                                                                                                                                                                               
06187750552133833DT67590675900000026849800125800000010680012587287283205900019881660072120230000001977020523000000000080592531490XXXXXX1071                         YY94607N         0721  N840000000000000          81CNCBD8885133385                      MC84000000019770 N  599978220273   5252BC66FBT189FC6EEC28B  000000000+600450S00130    MPL  00564                     000000000  N                0000000000000.00 0000000.00   0000000.00                             000000000000000                                                                                                                                                     015WPE 000000000000-0000000000003.46     01750 00000                  
06187760552130001G26759067590000002684980012580000001068885133385               WY           9 L               210                                      NNNN           210000000000000000000000000                        7                                          78220273                                                                                                                                                                                                                                                                                                                                                                                                                                               
06187770552133834DT67590675900000026849800125800000010680012587287283205900019881678072120230000000129520523000000000080592531490XXXXXX1071                         YY94607N         0721  N840000000000000          81CNCBD8885133385                      MC84000000001295 N  599978220273   5252BC66FBT80CEDA0A1EDD  000000000+600450S00130    MPL  00564                     000000000  N                0000000000000.00 0000000.00   0000000.00                             000000000000000                                                                                                                                                     015WPE 000000000000-0000000000000.23     01750 00000                  
06187780552130001G26759067590000002684980012580000001068885133385               WY           9 L               210                                      NNNN           210000000000000000000000000                        7                                          78220273                                                                                                                                                                                                                                                                                                                                                                                                                                               
06187790552133835DT67590675900000026849800125800000010680012587287283205900019881603072120230000000619820523000000000080592546130XXXXXX3852                         YY 4607AMDSDY7XI20721  N840000000006198          81CNCBD8885133385            003157    MD84000000006198 NDR599978220273   B815B3481DTDBB2A2D1A8A0  000000000+600450S00130    MDS  00560                     000000000  N                0000000000000.00 0000000.00   0000000.00                             000000000000000                                                                                                                                                     015WPE 000000000000 0000000000000.00     00000 00000                  
06187800552133835DR675906759000000268498001258000000106B815B3481DTDBB2A2D1A8A0  U000000000000                                                                                                                                                                                                                                                                                                                                                                                                                                                                                                                                                                                                                               
06187810552130001G26759067590000002684980012580000001068885133385               WY           9 S               210                                      NNNN           210000000000000000000000000                        7                                          78220273                                                                                                                                                                                                                                                                                                                                                                                                                                               
06187820552133836DT67590675900000026849800125800000010680012587287283205900019881611072120230000001489220523000000000080592546130XXXXXX3852                         YY 4607AMDSU9EBI40721  N840000000014892          81CNCBD8885133385            028578    MD84000000014892 NDR599978220273   B815B3481DTDF880636E683  000000000+600450S00130    MDS  00560                     000000000  N                0000000000000.00 0000000.00   0000000.00                             000000000000000                                                                                                                                                     015WPE 000000000000 0000000000000.00     00000 00000                  
06187830552133836DR675906759000000268498001258000000106B815B3481DTDF880636E683  U000000000000                                                                                                                                                                                                                                                                                                                                                                                                                                                                                                                                                                                                                               
06187840552130001G26759067590000002684980012580000001068885133385               WY           9 S               210                                      NNNN           210000000000000000000000000                        7                                          78220273                                                                                                                                                                                                                                                                                                                                                                                                                                               
06187850552133837DT67590675900000026849800125800000010680012587287283205900019881629072120230000000963820523000000000080592552433XXXXXX3123                         YY 4607AMCWF745L60721  N840000000009638          81CNCBD8885133385            073121    MC84000000009638 NDR599978220273   164BCB4C30T915EC7DA3B9A  000000000+600450S00130    MCW  00564                     000000000  N                0000000000000.00 0000000.00   0000000.00                             000000000000000                                                                                                                                                     015WPE 000000000000-0000000000001.69     01750 00000                  
06187860552133837DR675906759000000268498001258000000106164BCB4C30T915EC7DA3B9A  Y000000000000                                                                                                                                                                                                                                                                                                                                                                                                                                                                                                                                                                                                                               
06187870552130001G26759067590000002684980012580000001068885133385               WY           9 W               210                                      NNNN           210000000000000000000000000                        7                                          78220273                                                                                                                                                                                                                                                                                                                                                                                                                                               
06187880552133840BH6759067590000002684980012580000090170724202320523000000000039224    0000090001998170N8001256759D07252023099                                                                                                                                                                                                                                                                                                                                                                                                                                                                                                                                                                                              
06187890552133841DT67590675900000026849800125800000010680012587287283205900019981676072220230000001977020523000000000039224525475XXXXXX4188                         YY 4607AMWEAWJ65C0722  N840000000019770          81CNCBD8885133385            451258    MC84000000019770 NDR599978220273   6C2135A7FET7CA56F72540E  000000000+600450S00130    MWE  00564                     000000000  N                0000000000000.00 0000000.00   0000000.00                             000000000000000                                                                                                                                                     015WPE 000000000000-0000000000003.46     01750 00000                  
06187900552133841DR6759067590000002684980012580000001066C2135A7FET7CA56F72540E  U000000000000                                                                                                                                                                                                                                                                                                                                                                                                                                                                                                                                                                                                                               
06187910552130001G26759067590000002684980012580000001068885133385               WY           9 E               210                                      NNNN           210000000000000000000000000                        7                                          78220273                                                                                                                                                                                                                                                                                                                                                                                                                                               
06187920552133842DT67590675900000026849800125800000010680012574001193205900019981688072220230000000642120523000000000039224474475XXXXXX8599               0000000   YYV4 07T583203575396223N8400000000064212WRN00    01CNCBD8885133385            727973    VD84000000006421 NDR599978220273   754EAF4706TE6CC8CB228B5  000000000+                F DF 08168                     000000000  Y000000000 369   0000000000000.00 0000000.00   0000000.00                             000000000000000                                                                                                                                                     015WPE 000000006421 0000000000000.00     00000 00000                  
06187930552133842DR675906759000000268498001258000000106754EAF4706TE6CC8CB228B5  U000000006421                 P1                                                                                                                                                                                                                                                                                                                                                                                                                                                                                                                                                                                                            
06187940552130001P16759067590000002684980012580000001060000000000000000                             2000000000000000000000000              000000000000                    0000000000000000000000000                    000000000000                                                                                                                                                                                                                                                                                                                                                                                                                                                                                        
06187950552130002G2675906759000000268498001258000000106888-5133385              WY           9 D                00                                      NNNN   N                      000000000000                                                                   78220273                                                                                                                                                                                                                                                                                                                                                                                                                                               
06187960552133843DT67590675900000026849800125800000010680012574001193205900019981696072220230000000314820523000000000039224474475XXXXXX8599               0000000   YYV4 07T303203577031589N840000000003148F4FK00    01CNCBD8885133385            316444    VD84000000003148 NDR599978220273   754EAF4706TB5C880CE6995  000000000+                F DF 08168                     000000000  Y000000000 369   0000000000000.00 0000000.00   0000000.00                             000000000000000                                                                                                                                                     015WPE 000000003148 0000000000000.00     00000 00000                  
06187970552133843DR675906759000000268498001258000000106754EAF4706TB5C880CE6995  U000000003148                 P1                                                                                                                                                                                                                                                                                                                                                                                                                                                                                                                                                                                                            
06187980552130001P16759067590000002684980012580000001060000000000000000                             2000000000000000000000000              000000000000                    0000000000000000000000000                    000000000000                                                                                                                                                                                                                                                                                                                                                                                                                                                                                        
06187990552130002G2675906759000000268498001258000000106888-5133385              WY           9 D                00                                      NNNN   N                      000000000000                                                                   78220273                                                                                                                                                                                                                                                                                                                                                                                                                                               
06188000552133844DT67590675900000026849800125800000010680012574001193205900019981704072220230000000988520523000000000039224438857XXXXXX2516               0000000   YYV4 07T463203647125864N840000000009885SX9400    01CNCBD8885133385            04985A    VS84000000009885 NDR599978220273   41C09D8778T187DE5B92752  000000000+                A CA 00245                     000000000  N000000000 166   0000000000000.00 0000000.00   0000000.00                             000000000000000                                                                                                                                                     015WPE 000000009885-0000000000001.74     01760 00000                  
06188010552133844DR67590675900000026849800125800000010641C09D8778T187DE5B92752  Y000000009885                 P1                                                                                                                                                                                                                                                                                                                                                                                                                                                                                                                                                                                                            
06188020552130001P16759067590000002684980012580000001060000000000000000                             2000000000000000000000000              000000000000                    0000000000000000000000000                    000000000000                                                                                                                                                                                                                                                                                                                                                                                                                                                                                        
06188030552130002G2675906759000000268498001258000000106888-5133385              WY           9 C                00                                      NNNN   Y                      000000000000                                                                   78220273                                                                                                                                                                                                                                                                                                                                                                                                                                               
06188040552133847BH6759067590000003201180013680000090170724202320523000000001041900    0000090001755246N8001366759C07252023000                                                                                                                                                                                                                                                                                                                                                                                                                                                                                                                                                                                              
06188050552133848DT67590675900000032011800136800000010180013673011003205900017552466071920230000104190020523000000001041900372725XXXXX3004                          YY 4 07N007730843937074N840000001041900          01DNCHOICE BOTANICALS INC    128074    AM84000001041900 N  549971004114                            000000000+6004S0600140 258     11263                     000000000                   0000000000000.00 0000000.00   0000000.00                             000000000000000 61248972086759675900000032011                          6300 ROTHWAY ST STE 100A                 77032                                               015WPE 000000000000 0000000000250.16     02400 00000                  
06188060552130001G2675906759000000320118001368000000101HOUSTON                  TX           9                  00                                      NNNN                          000000000000                                                                   71004114                                                                                                                                                                                                                                                                                                                                                                                                                                               
06188070552890002BH6759067590000004566680015680000090170724202320523000000000011799    0000090001020003N8001566759C07252023002                                                                                                                                                                                                                                                                                                                                                                                                                                                                                                                                                                                              
06188080552890003DT67590675900000045666800156800000010180015677287283205900010200010072220230000000350020523000000000011799517800XXXXXX1337       ME03MS02WI09      NY 1 0 AMCSHZE95C0722  N840000000003500          01DNTHE DOSE LLC             022336    MC84000000003500 N  599978722488                            000000000+M1010115434C    MCS  00059                     000000000  N                0000000000000.00 0000000.00   0000000.00                             000000000000000                                                                                                                                                   E101418  000000000000 0000000000000.78     01950 01000                  
06188090552890001G2675906759000000456668001568000000101LAS VEGAS                NV           5 S                                                        NNNN              000000000000000000000000                        7                                          78722488                                                                                                                                                                                                                                                                                                                                                                                                                                               
06188100552890004DT67590675900000045666800156800000010180015624001193205900010200026072220230000000700020523000000000011799414720XXXXXX6914       VS11    0001111   NYV1 A E583203744009393N840000000007000R5LF00    07DNTHE DOSE LLC             00026C    VS84000000007000 N  599978722488                            000000000+                C CC 12112                     000000000  N000000000 497   0000000000000.00 0000000.00   0000000.00                             000000000000000                                                                                                                                                     01418 A000000000000 0000000000001.26     01650 01000                  
06188110552890001E16759067590000004566680015680000001010040404000A9 00000000000.004040404040404040404040404040404040404040404040404006021203A00000000000000000000000404040404040404040404040404040  0001084020000000000000230722112010D902FB348CAC4B61BA404040400840A0000000031010000000000000000000DE0B75CA0082000000000000000000004040404040404040 000000070.00 000000000.004040400000000000000000    80                                                                                                                                                                                                                                                                                                                  
06188120552890002G2675906759000000456668001568000000101LAS VEGAS                NV           5 C                00                                      NNNN00 Y 00                   000000000000                                                                   78722488                                                                                                                                                                                                                                                                                                                                                                                                                                               
06188130552890005DT67590675900000045666800156800000010180015624001193205900010200034072220230000000129920523000000000011799440393XXXXXX4354       VK04VS111111111   NYV1 A E463203770076095N8400000000012992PS500    05DNTHE DOSE LLC             525981    VD84000000001299 N  599978722488                            000000000+                F PF 08165                     000000000  N000000000       0000000000000.00 0000000.00   0000000.00                             000000000000000                                                                                                                                                     01418 F000000000000 0000000000000.26     01600 00500                  
06188140552890001E167590675900000045666800156800000010100E0F8C80109 00000000000.004040404040404040404040404040404040404040404040404006010A03A08000000000000000000000404040404040404040404040404040  0000084018008000008000230722734851DCEF29EF1A75A41178404040400840A0000000031010000000000000000000F2D4A7F42A401FB830300000000000004040405E40404040 000000012.99 000000000.005E00000000000000000000    80                                                                                                                                                                                                                                                                                                                  
06188150552890002G2675906759000000456668001568000000101LAS VEGAS                NV           5 P                00                                      NNNN00 N 00                   000000000000                                                                   78722488                                                                                                                                                                                                                                                                                                                                                                                                                                               
06188160552890006BH6759067590000000288180088880000090170724202320523000000000102975    0000090001810014N8008886759C07252023181                                                                                                                                                                                                                                                                                                                                                                                                                                                                                                                                                                                              
06188170552890007DT67590675900000002881800888800000010180088877287283205900018100014072420230000000999920523000000000102975542432XXXXXX4007       ME03MS02WI09      NY 1 0 AMDJWFLEQL0724  N840000000009999          01DNHAPPY HIPPIE             178529    MD84000000009999 N  549976487158                            000000000+M1010115434C    MDJ  10811                     000000000  1                0000000000000.00 0000000.00   0000000.00                             000000000000000                                                                                                                                                   E101418  000000000000 0000000000000.27     00050 02200                  
06188180552890001G2675906759000000028818008888000000101SEVIERVILLE              TN           5 J                                                        NNNN              000000000000000000000000                        7                                          76487158                                                                                                                                                                                                                                                                                                                                                                                                                                               
06188190552890008DT67590675900000002881800888800000010180088877287283205900018100022072420230000001865820523000000000102975518941XXXXXX0346       ME03MS02WI09      NY 1 0 AMWEX3WYQL0724  N840000000018658          01DNHAPPY HIPPIE             12094Z    MC84000000018658 N  549976487158                            000000000+M1010115434C    MWE  00738                     000000000  N                0000000000000.00 0000000.00   0000000.00                             000000000000000                                                                                                                                                   E101418  000000000000 0000000000004.95     02600 01000                  
06188200552890001G2675906759000000028818008888000000101SEVIERVILLE              TN           5 E                                                        NNNN              000000000000000000000000                        7                                          76487158                                                                                                                                                                                                                                                                                                                                                                                                                                               
06188210552890009DT67590675900000002881800888800000010180088877287283205900018100030072420230000001250120523000000000102975517805XXXXXX1769       MS02WI09          NY 1 0 AMWEWWH89I0724  N840000000012501          05DNHAPPY HIPPIE             09730P    MC84000000012501 N  549976487158                            000000000+M10101C5434C    MWE  00743                     000000000  N                0000000000000.00 0000000.00   0000000.00                             000000000000000                                                                                                                                                   B101418  000000000000 0000000000002.92     02300 00400                  
06188220552890001E167590675900000002881800888800000010100E0F8C8013E 00000000000.00404040404040404040404040404040404040404040404040400110A04001220000000000000000000000FF00000000000000000000000000  00030840390000000080002307240B6B71EEB1953869A016DB87404040400840A00000000410100000000000000000002733E9D990AA409D00120000000000004040401E40404040 000000125.01 000000000.001E03000000000000000000    80                                                                                                                                                                                                                                                                                                                  
06188230552890002G2675906759000000028818008888000000101SEVIERVILLE              TN           5 E                                                        NNNN              000000000000000000000000                        7                                          76487158                                                                                                                                                                                                                                                                                                                                                                                                                                               
06188240552890010DT67590675900000002881800888800000010180088873011003205900018100042072420230000000441520523000000000102975372898XXXXX4001                          NY 1 0 N008501805993069N840000000004415          07DNHAPPY HIPPIE             866214    AM84000000004415 N  549976487158                            000000000+51010X50034C 258     11261                     000000000                   0000000000000.00 0000000.00   0000000.00                             000000000000000 61248972086759675900000002881 HAPPY HIPPIE             832 PARKWAY              8656540830      37862     HAPPYHIPPIE832@GMAIL.COM                  01418  000000000000 0000000000000.81     01600 00000                  
06188250552890001E167590675900000002881800888800000010100E0E8C802AB 00000000000.004040404040404040404040404040404040404040404040404006550103A08006000000000000000000404040404040404040404040404040  00000840198000000080002307240173062A8EDE2C7537210D92404040400840A000000025010801000000000000000047B6F078FF5673A330300000000000004040401F40404040 000000044.15 000000000.001F02020000000000000000    80                                                                                                                                                                                                                                                                                                                  
06188260552890002G2675906759000000028818008888000000101SEVIERVILLE              TN           5                  00                                      NNNN                          000000000000                                                                   76487158                                                                                                                                                                                                                                                                                                                                                                                                                                               
06188270552890011DT67590675900000002881800888800000010180088877287283205900018100055072420230000000578620523000000000102975514348XXXXXX0533       MS02WI09          NY 2 0 AMDJIDEZUL0724  N840000000005786          05DNHAPPY HIPPIE             026939    MD84000000005786 N  549976487158                            000000000+M10101C1334C    MDJ  00402                     000000000  N                0000000000000.00 0000000.00   0000000.00                             000000000000000                                                                                                                                                   B101418  000000000000 0000000000000.76     01050 01500                  
06188280552890001E167590675900000002881800888800000010100E0F8C8008F 00000000000.00404040404040404040404040404040404040404040404040400110A00001220800000000000000000000FF00000000000000000000000000  0001084018008000048000230724A542AA5F5F8F107131A82D25404040400840A00000000410100000000000000000008725CAC61559167C00140000000000004040400240404040 000000057.86 000000000.000203000000000000000000    80                                                                                                                                                                                                                                                                                                                  
06188290552890002G2675906759000000028818008888000000101SEVIERVILLE              TN           5 J                                                        NNNN              000000000000000000000000                                                                   76487158                                                                                                                                                                                                                                                                                                                                                                                                                                               
06188300552890012DT67590675900000002881800888800000010180088824001193205900018100061072420230000000858620523000000000102975473905XXXXXX2067       VS11    0001111   NYV1 A E463205624078551N840000000008586SVF200    07DNHAPPY HIPPIE             446048    VD84000000008586 N  549976487158                            000000000+                F DF 00381                     000000000  N000000000       0000000000000.00 0000000.00   0000000.00                             000000000000000                                                                                                                                                     01418 A000000000000 0000000000000.84     00800 01500                  
06188310552890001E167590675900000002881800888800000010100E068C80390 00000000000.004040404040404040404040404040404040404040404040404006011203A00000000000000000000000404040404040404040404040404040  0000084000000000000000230724ECEE53CC9F9ED3F690B99CBC404040400840A0000000031010000000000000000000724965F10082000000000000000000004040404040404040 000000085.86 000000000.004040400000000000000000    80                                                                                                                                                                                                                                                                                                                  
06188320552890002G2675906759000000028818008888000000101SEVIERVILLE              TN           5 D                00                                      NNNN00 N 00                   000000000000                                                                   76487158                                                                                                                                                                                                                                                                                                                                                                                                                                               
06188330552890013DT67590675900000002881800888800000010180088824001193205900018100079072420230000000087420523000000000102975415978XXXXXX7995       VK04VS111111111   NYV1 A E383205644533557N840000000000874GQT800    07DNHAPPY HIPPIE             048381    VD84000000000874 N  549976487158                            000000000+                F DF 10439                     000000000  Y000000000 331   0000000000000.00 0000000.00   0000000.00                             000000000000000                                                                                                                                                     01418 F000000000000 0000000000000.22     00050 02200                  
06188340552890001E167590675900000002881800888800000010100E068C80107 00000000000.004040404040404040404040404040404040404040404040404006011203A00000000000000000000000404040404040404040404040404040  000008400000000000000023072424D0C621210B05B30E08AA3F404040400840A0000000031010000000000000000000B8C22E07FE9C0C9A30300000000000004040404040404040 000000008.74 000000000.004040400000000000000000    80                                                                                                                                                                                                                                                                                                                  
06188350552890002G2675906759000000028818008888000000101SEVIERVILLE              TN           5 D                00                                      NNNN00 N 00                   000000000000                                                                   76487158                                                                                                                                                                                                                                                                                                                                                                                                                                               
06188360552890014DT67590675900000002881800888800000010180088824001193205900018100087072420230000000088820523000000000102975423223XXXXXX3867       VK04VS111111111   NYV1 A E583205652562824N8400000000008882C2W00    05DNHAPPY HIPPIE             019043    VD84000000000888 N  549976487158                            000000000+                F DF 00451                     000000000  N000000000 214   0000000000000.00 0000000.00   0000000.00                             000000000000000                                                                                                                                                     01418 F000000000000 0000000000000.18     01550 00400                  
06188370552890001E167590675900000002881800888800000010100E0F8C80509 00000000000.004040404040404040404040404040404040404040404040404006011203A00000000000000000000000404040404040404040404040404040  00000840180080800080002307242EA1BD28D33F6B80F3562345404040400840A00000000310100000000000000000002A171F7F0080000000000000000000004040401E40404040 000000008.88 000000000.001E00000000000000000000    80                                                                                                                                                                                                                                                                                                                  
06188380552890002G2675906759000000028818008888000000101SEVIERVILLE              TN           5 D                00                                      NNNN00 N 00                   000000000000                                                                   76487158                                                                                                                                                                                                                                                                                                                                                                                                                                               
06188390552890015DT67590675900000002881800888800000010180088877287283205900018100097072420230000000382320523000000000102975514274XXXXXX1986       MS02WI09          NY 2 0 AMDJTAKIUL0724  N840000000003823          05DNHAPPY HIPPIE             098105    MD84000000003823 N  549976487158                            000000000+M10101C1334C    MDJ  00402                     000000000  N                0000000000000.00 0000000.00   0000000.00                             000000000000000                                                                                                                                                   B101418  000000000000 0000000000000.55     01050 01500                  
06188400552890001E167590675900000002881800888800000010100E0F8C800B9 00000000000.00404040404040404040404040404040404040404040404040400114A00001220000000000000000000000FF00000000000000000000000000  00000840180080000480002307244EC35FA7502B8CAEECD18797404040400840A00000000410100000000000000000005BCC1D7FA2F4918300100000000000004040400240404040 000000038.23 000000000.000203000000000000000000    80                                                                                                                                                                                                                                                                                                                  
06188410552890002G2675906759000000028818008888000000101SEVIERVILLE              TN           5 J                                                        NNNN              000000000000000000000000                                                                   76487158                                                                                                                                                                                                                                                                                                                                                                                                                                               
06188420552890016DT67590675900000002881800888800000010180088824001193205900018100103072420230000000355520523000000000102975411600XXXXXX5243       VS11    0001111   NYV1 A E383205736364466N840000000003555PQ3Z00    90DNHAPPY HIPPIE             132717    VD84000000003555 N  549976487158                            000000000+                F PF 08170                     000000000  N000000000       0000000000000.00 0000000.00   0000000.00                             000000000000000                                                                                                                                                     01418 A000000000000 0000000000000.56     01150 01500                  
06188430552890001G2675906759000000028818008888000000101SEVIERVILLE              TN           5 P                00                                      NNNN00 N 00                   000000000000                                                                   76487158                                                                                                                                                                                                                                                                                                                                                                                                                                               
06188440552890017DT67590675900000002881800888800000010180088824001193205900018100111072420230000002226220523000000000102975415793XXXXXX9955       VS11    0001111   NYV1 A E303205744540288N840000000022262CGQ200    05DNHAPPY HIPPIE             001283    VD84000000022262 N  549976487158                            000000000+                F DF 00381                     000000000  N000000000       0000000000000.00 0000000.00   0000000.00                             000000000000000                                                                                                                                                     01418 A000000000000 0000000000001.93     00800 01500                  
06188450552890001E167590675900000002881800888800000010100E0F8C8038F 00000000000.004040404040404040404040404040404040404040404040404006010A03A00000000000000000000000404040404040404040404040404040  0001084018008080008000230724C8F500E5E7C6734F301370E5404040400840A0000000031010000000000000000000412874944E0165FB30300000000000004040401E40404040 000000222.62 000000000.001E00000000000000000000    80                                                                                                                                                                                                                                                                                                                  
06188460552890002G2675906759000000028818008888000000101SEVIERVILLE              TN           5 D                00                                      NNNN00 N 00                   000000000000                                                                   76487158                                                                                                                                                                                                                                                                                                                                                                                                                                               
06188470552890018DT67590675900000002881800888800000010180088876509753205900018100127072420230000000647220523000000000102975601198XXXXXX8876   BA50                  NY41 0 N873176858421611N840000000006472    00    05DNHAPPY HIPPIE             731584    DD84000000006472 N  549976487158050                         000000000+0000004910H00   DCDDI01001167287  134402000000 000000000  0          113   0000000000000.00 0000000.00   0000000.00                             000000000000000                                                                                                                                                     01418  000000000000 0000000000000.87     01100 01600                  
06188480552890001E167590675900000002881800888800000010100E0F8C800EA 00000000000.00404040404040404040404040404040404040404040404040400106A000038000000000000000000000404040404040404040404040404040  0000084018008000088000230724174702579EFAF1A25810F261404040400840A0000001523010000000000000000000EB19376064B97D6100120000000000004040401E40404040 000000064.72 000000000.001E03000000000000000000    80                                                                                                                                                                                                                                                                                                                  
06188490552890002G2675906759000000028818008888000000101SEVIERVILLE              TN           5 D                00                                      NNNN                          000000000000                         00000650975601179750000063                76487158                                                                                                                                                                                                                                                                                                                                                                                                                                               
06188500552890019DT67590675900000002881800888800000010180088824001193205900018100137072420230000000120520523000000000102975449619XXXXXX5869       VK04VS111111111   NYV1 A E303205747746764N840000000001205666800    05DNHAPPY HIPPIE             164614    VD84000000001205 N  549976487158                            000000000+                F DF 00451                     000000000  N000000000 214   0000000000000.00 0000000.00   0000000.00                             000000000000000                                                                                                                                                     01418 F000000000000 0000000000000.23     01550 00400                  
06188510552890001E167590675900000002881800888800000010100E0F8C80035 00000000000.004040404040404040404040404040404040404040404040404006011203A0A000000000000000000000404040404040404040404040404040  0001084018008080008000230724FC5EB6946F95BC2257742E73404040400840A000000003101000000000000000000024A3599C0382000000000000000000004040401E40404040 000000012.05 000000000.001E00000000000000000000    80                                                                                                                                                                                                                                                                                                                  
06188520552890002G2675906759000000028818008888000000101SEVIERVILLE              TN           5 D                00                                      NNNN00 N 00                   000000000000                                                                   76487158                                                                                                                                                                                                                                                                                                                                                                                                                                               
06188530552890020DT67590675900000002881800888800000010180088877287283205900018100147072420230000000395120523000000000102975511953XXXXXX9431       MS02WI09          NY 1 0 AMDJSM8JD10724  N840000000003951          07DNHAPPY HIPPIE             004118    MD84000000003951 N  549976487158                            000000000+M10101M0034C    MDJ  00402                     000000000  N                0000000000000.00 0000000.00   0000000.00                             000000000000000                                                                                                                                                   B101418  000000000000 0000000000000.56     01050 01500                  
06188540552890001E16759067590000000288180088880000001010000084800A7 00000000000.00404040404040404040404040404040404040404040404040400110A04001220000000000000000000000FF00000000000000000000000000  00000840198000000080012307248609B85C73A679F601607134404040400840A0000000041010000000000000000000404040404040404040404040404040404040401F40404040 000000039.51 000000000.001F03020000000000000000    80                                                                                                                                                                                                                                                                                                                  
06188550552890002G2675906759000000028818008888000000101SEVIERVILLE              TN           5 J                                                        NNNN              000000000000000000000000       03               7                                          76487158                                                                                                                                                                                                                                                                                                                                                                                                                                               
06188560552890021BH6759067590000000288180088880000090170724202320523000000000110062    0000090001700020N8008886759C07252023070                                                                                                                                                                                                                                                                                                                                                                                                                                                                                                                                                                                              
06188570552890022DT67590675900000002881800888800000010180088824001193205900017000015072420230000000888620523000000000110062422921XXXXXX6179       VS11    0001111   NYV1 A E583205541057448N840000000008886K5GC00    05DNHAPPY HIPPIE             039706    VD84000000008886 N  549976487169                            000000000+                F DF 00381                     000000000  N000000000       0000000000000.00 0000000.00   0000000.00                             000000000000000                                                                                                                                                     01418 A000000000000 0000000000000.86     00800 01500                  
06188580552890001E167590675900000002881800888800000010100E0F8C800B0 00000000000.004040404040404040404040404040404040404040404040404006011203A08000000000000000000000404040404040404040404040404040  00000840180080800080002307249F8700B293E9694576F5A8C5404040400840A000000003101000000000000000000027FB69D60382000000000000000000004040401E40404040 000000088.86 000000000.001E00000000000000000000    80                                                                                                                                                                                                                                                                                                                  
06188590552890002G2675906759000000028818008888000000101SEVIERVILLE              TN           5 D                00                                      NNNN00 N 00                   000000000000                                                                   76487169                                                                                                                                                                                                                                                                                                                                                                                                                                               
06188600552890023DT67590675900000002881800888800000010180088873011003205900017000029072420230000000343720523000000000110062378339XXXXX2003                          NY 1 0 N008500839850063N840000000003437          05DNHAPPY HIPPIE             813107    AM84000000003437 N  549976487169                            000000000+51010155434C 258     11261                     000000000                   0000000000000.00 0000000.00   0000000.00                             000000000000000 61248972086759675900000002881 HAPPY HIPPIE             832 PARKWAY              8656540830      37862     HAPPYHIPPIE832@GMAIL.COM                  01418  000000000000 0000000000000.65     01600 00000                  
06188610552890001E167590675900000002881800888800000010100E0F8C80281 00000000000.004040404040404040404040404040404040404040404040404006480103A0A002000000000000000000404040404040404040404040404040  000008403C00000000800023072443896ACFC50182B5A497EC42404040400840A000000025010801000000000000000082F6B53E7E476D0730300000000000004040401E40404040 000000034.37 000000000.001E03000000000000000000    80                                                                                                                                                                                                                                                                                                                  
06188620552890002G2675906759000000028818008888000000101SEVIERVILLE              TN           5                  00                                      NNNN                          000000000000                                                                   76487169                                                                                                                                                                                                                                                                                                                                                                                                                                               
06188630552890024DT67590675900000002881800888800000010180088824001193205900017000031072420230000000479120523000000000110062480639XXXXXX7556       VS11    0001111   NYV1 A E383205549525343N840000000004791XQH300    05DNHAPPY HIPPIE             052052    VD84000000004791 N  549976487169                            000000000+                F DF 00381                     000000000  N000000000       0000000000000.00 0000000.00   0000000.00                             000000000000000                                                                                                                                                     01418 A000000000000 0000000000000.53     00800 01500                  
06188640552890001E167590675900000002881800888800000010100E0F8C80010 00000000000.004040404040404040404040404040404040404040404040404006011203A0A000000000000000000000404040404040404040404040404040  000008401800808000800023072487660FE9D0263245E05296DE404040400840A0000000031010000000000000000000866411100080000000000000000000004040401E40404040 000000047.91 000000000.001E00000000000000000000    80                                                                                                                                                                                                                                                                                                                  
06188650552890002G2675906759000000028818008888000000101SEVIERVILLE              TN           5 D                00                                      NNNN00 N 00                   000000000000                                                                   76487169                                                                                                                                                                                                                                                                                                                                                                                                                                               
06188660552890025DT67590675900000002881800888800000010180088824001193205900017000049072420230000000833220523000000000110062480639XXXXXX3437       VS11    0001111   NYV1 A E463205555945951N840000000008332833W00    05DNHAPPY HIPPIE             052348    VD84000000008332 N  549976487169                            000000000+                F DF 00381                     000000000  N000000000       0000000000000.00 0000000.00   0000000.00                             000000000000000                                                                                                                                                     01418 A000000000000 0000000000000.82     00800 01500                  
06188670552890001E167590675900000002881800888800000010100E0F8C80003 00000000000.004040404040404040404040404040404040404040404040404006011203A0A000000000000000000000404040404040404040404040404040  00000840180080800080002307247840586AD9255E5F0B1CDF02404040400840A0000000031010000000000000000000EB2102E10080000000000000000000004040401E40404040 000000083.32 000000000.001E00000000000000000000    80                                                                                                                                                                                                                                                                                                                  
06188680552890002G2675906759000000028818008888000000101SEVIERVILLE              TN           5 D                00                                      NNNN00 N 00                   000000000000                                                                   76487169                                                                                                                                                                                                                                                                                                                                                                                                                                               
06188690552890026DT67590675900000002881800888800000010180088824001193205900017000056072420230000000270620523000000000110062480639XXXXXX0039       VS11    0001111   NYV1 A E383205562105839N840000000002706TTPR00    05DNHAPPY HIPPIE             052646    VD84000000002706 N  549976487169                            000000000+                F DF 00381                     000000000  N000000000       0000000000000.00 0000000.00   0000000.00                             000000000000000                                                                                                                                                     01418 A000000000000 0000000000000.37     00800 01500                  
06188700552890001E167590675900000002881800888800000010100E0F8C80150 00000000000.004040404040404040404040404040404040404040404040404006011203A0A000000000000000000000404040404040404040404040404040  00000840180080800080002307240639D667C7F645AC46A948EF404040400840A00000000310100000000000000000008BF10F320080000000000000000000004040401E40404040 000000027.06 000000000.001E00000000000000000000    80                                                                                                                                                                                                                                                                                                                  
06188710552890002G2675906759000000028818008888000000101SEVIERVILLE              TN           5 D                00                                      NNNN00 N 00                   000000000000                                                                   76487169                                                                                                                                                                                                                                                                                                                                                                                                                                               
06188720552890027DT67590675900000002881800888800000010180088877287283205900017000066072420230000000114320523000000000110062511820XXXXXX3529       MS02WI09          NY 1 0 AMDSSGECQL0724  N840000000001143          05DNHAPPY HIPPIE             333336    MD84000000001143 N  549976487169                            000000000+M10101C5434C    MDS  00505                     000000000  N                0000000000000.00 0000000.00   0000000.00                             000000000000000                                                                                                                                                   B101418  000000000000 0000000000000.22     01550 00400                  
06188730552890001E167590675900000002881800888800000010100E0F8C80021 00000000000.00404040404040404040404040404040404040404040404040400110A00001220000000000000000000000FF00000000000000000000000000  0000084018008000008000230724AC1822A0EF82BAFBA50591B1404040400840A0000000041010000000000000000000F80968D35C9AC5E503120000000000004040401E40404040 000000011.43 000000000.001E03000000000000000000    80                                                                                                                                                                                                                                                                                                                  
06188740552890002G2675906759000000028818008888000000101SEVIERVILLE              TN           5 S                                                        NNNN              000000000000000000000000                        7                                          76487169                                                                                                                                                                                                                                                                                                                                                                                                                                               
06188750552890028DT67590675900000002881800888800000010180088824001193205900017000072072420230000000307020523000000000110062419090XXXXXX4298       VS11    0001111   NYV1 A E303205577898627N840000000003070RQ2800    05DNHAPPY HIPPIE             160928    VD84000000003070 N  549976487169                            000000000+                F DF 00381                     000000000  N000000000       0000000000000.00 0000000.00   0000000.00                             000000000000000                                                                                                                                                     01418 A000000000000 0000000000000.40     00800 01500                  
06188760552890001E167590675900000002881800888800000010100E0F8C8004B 00000000000.004040404040404040404040404040404040404040404040404006011203A0A000000000000000000000404040404040404040404040404040  000308401800808000800023072492391165F00DB19268C100B0404040400840A0000000031010000000000000000000DD4AEBA90082000000000000000000004040401E40404040 000000030.70 000000000.001E00000000000000000000    80                                                                                                                                                                                                                                                                                                                  
06188770552890002G2675906759000000028818008888000000101SEVIERVILLE              TN           5 D                00                                      NNNN00 N 00                   000000000000                                                                   76487169                                                                                                                                                                                                                                                                                                                                                                                                                                               
06188780552890029DT67590675900000002881800888800000010180088824001193205900017000080072420230000000743120523000000000110062422921XXXXXX0362       VS11    0001111   NYV1 A E303205590765070N84000000000743124MB00    05DNHAPPY HIPPIE             044677    VD84000000007431 N  549976487169                            000000000+                F DF 00381                     000000000  N000000000       0000000000000.00 0000000.00   0000000.00                             000000000000000                                                                                                                                                     01418 A000000000000 0000000000000.74     00800 01500                  
06188790552890001E167590675900000002881800888800000010100E0F8C8005C 00000000000.004040404040404040404040404040404040404040404040404006011203A08000000000000000000000404040404040404040404040404040  00000840180080800080002307243719B6D7A60134C545DB8C81404040400840A000000003101000000000000000000033B960570382000000000000000000004040401E40404040 000000074.31 000000000.001E00000000000000000000    80                                                                                                                                                                                                                                                                                                                  
06188800552890002G2675906759000000028818008888000000101SEVIERVILLE              TN           5 D                00                                      NNNN00 N 00                   000000000000                                                                   76487169                                                                                                                                                                                                                                                                                                                                                                                                                                               
06188810552890030DT67590675900000002881800888800000010180088824001193205900017000098072420230000000405120523000000000110062440393XXXXXX5310       VS11    0001111   NYV1 A E463205602958271N840000000004051TWJX00    05DNHAPPY HIPPIE             200864    VD84000000004051 N  549976487169                            000000000+                F PF 08170                     000000000  N000000000       0000000000000.00 0000000.00   0000000.00                             000000000000000                                                                                                                                                     01418 A000000000000 0000000000000.62     01150 01500                  
06188820552890001E167590675900000002881800888800000010100E0F8C801CF 00000000000.004040404040404040404040404040404040404040404040404006011203A0A000000000000000000000404040404040404040404040404040  00000840180080800080002307240528106A2A75B2EFB0042A2E404040400840A000000003101000000000000000000042A306F16DF6977B30300000000000004040401E40404040 000000040.51 000000000.001E00000000000000000000    80                                                                                                                                                                                                                                                                                                                  
06188830552890002G2675906759000000028818008888000000101SEVIERVILLE              TN           5 P                00                                      NNNN00 N 00                   000000000000                                                                   76487169                                                                                                                                                                                                                                                                                                                                                                                                                                               
06188840552890031DT67590675900000002881800888800000010180088824001193205900017000106072420230000000479120523000000000110062426690XXXXXX2975       VS11    0001111   NYV1 A E583205641602463N8400000000047913ZN700    05DNHAPPY HIPPIE             07613D    VS84000000004791 N  549976487169                            000000000+                D CD 12113                     000000000  N000000000 499   0000000000000.00 0000000.00   0000000.00                             000000000000000                                                                                                                                                     01418 A000000000000 0000000000001.11     02100 01000                  
06188850552890001E167590675900000002881800888800000010100E0F8C802D3 00000000000.004040404040404040404040404040404040404040404040404006021203A0A006000000000000000000404040404040404040404040404040  0002084038000080008000230724C5192B0F3978E6DF9ACD027C404040400840A00000000310100000000000000000008AA7F6CE0082000000000000000000004040401E40404040 000000047.91 000000000.001E00000000000000000000    80                                                                                                                                                                                                                                                                                                                  
06188860552890002G2675906759000000028818008888000000101SEVIERVILLE              TN           5 C                00                                      NNNN00 Y 00                   000000000000                                                                   76487169                                                                                                                                                                                                                                                                                                                                                                                                                                               
06188870552890032DT67590675900000002881800888800000010180088824001193205900017000114072420230000000867820523000000000110062422919XXXXXX7864       VS11    0001111   NYV1 A E463205711237091N840000000008678HNSN00    05DNHAPPY HIPPIE             044523    VD84000000008678 N  549976487169                            000000000+                F DF 00381                     000000000  N000000000       0000000000000.00 0000000.00   0000000.00                             000000000000000                                                                                                                                                     01418 A000000000000 0000000000000.84     00800 01500                  
06188880552890001E167590675900000002881800888800000010100E0F8C80044 00000000000.004040404040404040404040404040404040404040404040404006011203A00000000000000000000000404040404040404040404040404040  0000084018008080008000230724E8567B6F6B83E133DD2FE970404040400840A0000000031010000000000000000000447C7CE60080000000000000000000004040401E40404040 000000086.78 000000000.001E00000000000000000000    80                                                                                                                                                                                                                                                                                                                  
06188890552890002G2675906759000000028818008888000000101SEVIERVILLE              TN           5 D                00                                      NNNN00 N 00                   000000000000                                                                   76487169                                                                                                                                                                                                                                                                                                                                                                                                                                               
06188900552890033DT67590675900000002881800888800000010180088824001193205900017000122072420230000000104220523000000000110062422921XXXXXX4240       VK04VS111111111   NYV1 A E383205712240426N840000000001042GCFJ00    05DNHAPPY HIPPIE             056826    VD84000000001042 N  549976487169                            000000000+                F DF 00451                     000000000  N000000000 214   0000000000000.00 0000000.00   0000000.00                             000000000000000                                                                                                                                                     01418 F000000000000 0000000000000.20     01550 00400                  
06188910552890001E167590675900000002881800888800000010100E0F8C80171 00000000000.004040404040404040404040404040404040404040404040404006011203A08000000000000000000000404040404040404040404040404040  0000084018008080008000230724968B603C1B3D9823B06DD440404040400840A00000000310100000000000000000005929E5FA0382000000000000000000004040401E40404040 000000010.42 000000000.001E00000000000000000000    80                                                                                                                                                                                                                                                                                                                  
06188920552890002G2675906759000000028818008888000000101SEVIERVILLE              TN           5 D                00                                      NNNN00 N 00                   000000000000                                                                   76487169                                                                                                                                                                                                                                                                                                                                                                                                                                               
06188930552890034DT67590675900000002881800888800000010180088824001193205900017000130072420230000000104220523000000000110062480639XXXXXX8415       VK04VS111111111   NYV1 A E463205727516587N840000000001042P44Q00    05DNHAPPY HIPPIE             060857    VD84000000001042 N  549976487169                            000000000+                F DF 00451                     000000000  N000000000 214   0000000000000.00 0000000.00   0000000.00                             000000000000000                                                                                                                                                     01418 F000000000000 0000000000000.20     01550 00400                  
