00016570028990002BH6759067590000000589280010180000090170601202315223000000000008421    0000090001536652Y8001016759C06022023053                                                                                                                                                                                                                                                                                                                                                                                                                                                                                                                                                                                              
00016580028990003DT67590675900000005892800101800000010180010124001193152900015366528060120230000000842115223000000000008421448232XXXXXX8553               2111111   NYV4 A7W583152558696440N840000000008421F3SL00    01DNPLANET VAPOR INC         013100    VD84000000008421 NDR599971004114   15067900                 000000000+                F DF 00415                     000000000  N000000000       0000000000000.00 0000000.00   0000000.00                             000000000000000                                                                                                                                                     01424 G000000008421 0000000000001.54     01650 01500                  
00016590028990003DR67590675900000005892800101800000010115067900                 Y000000008421                 P1                                                                                                                                                                                                                                                                                                                                                                                                                                                                                                                                                                                                            
00016600028990001P16759067590000000589280010180000001010000000000000000                             2000000000000000000000000              000000000000                    0000000000000000000000000                    000000000000                                                                                                                                                                                                                                                                                                                                                                                                                                                                                        
00016610028990002G2675906759000000058928001018000000101803-5462263              SC           9 D                00                                      NNNN   N                      000000000000                                                                   71004114                                                                                                                                                                                                                                                                                                                                                                                                                                               
00016620028990004BH6759067590000003376180013780000090170601202315223000000000021913    0000090001235863Y8001376759C06022023023                                                                                                                                                                                                                                                                                                                                                                                                                                                                                                                                                                                              
00016630028990005DT67590675900000033761800137800000010180013724001193152900012309059060120230000000820615223000000000021913403042XXXXXX3914               2111111   NYV4 A7W463152364570694N840000000008206NK9Z00    01DNSIESTA G GLOBAL DISTRIBUT050738    VD84000000008206 NDR549971004114   RNQOETUIDGJ4DRYVB2WT     000000000+                F DF 00415                     000000000  N000000000       0000000000000.00 0000000.00   0000000.00                             000000000000000                                                                                                                                                     01424 G000000008206 0000000000001.50     01650 01500                  
00016640028990005DR675906759000000337618001378000000101RNQOETUIDGJ4DRYVB2WT     Y000000008206                 P1                                                                                                                                                                                                                                                                                                                                                                                                                                                                                                                                                                                                            
00016650028990001P16759067590000003376180013780000001010000000000000000                             2000000000000000000000000              000000000000                    0000000000000000000000000                    000000000000                                                                                                                                                                                                                                                                                                                                                                                                                                                                                        
00016660028990002G2675906759000000337618001378000000101813-4448886              FL           9 D                00                                      NNNN   N                      000000000000                                                                   71004114                                                                                                                                                                                                                                                                                                                                                                                                                                               
00016670028990006DT67590675900000033761800137800000010180013724001193152900012389200060120230000000940715223000000000021913430651XXXXXX9266               2111111   NYV4 A7W303152726933527N840000000009407SFBB00    01DNSIESTA G GLOBAL DISTRIBUT570506    VD84000000009407 NDR549971004114   RBFJPPXC1WAAM6QXISOP     000000000+                F DF 00415                     000000000  N000000000       0000000000000.00 0000000.00   0000000.00                             000000000000000                                                                                                                                                     01424 G000000009407 0000000000001.70     01650 01500                  
00016680028990006DR675906759000000337618001378000000101RBFJPPXC1WAAM6QXISOP     Y000000009407                 P1                                                                                                                                                                                                                                                                                                                                                                                                                                                                                                                                                                                                            
00016690028990001P16759067590000003376180013780000001010000000000000000                             2000000000000000000000000              000000000000                    0000000000000000000000000                    000000000000                                                                                                                                                                                                                                                                                                                                                                                                                                                                                        
00016700028990002G2675906759000000337618001378000000101813-4448886              FL           9 D                00                                      NNNN   N                      000000000000                                                                   71004114                                                                                                                                                                                                                                                                                                                                                                                                                                               
00016710028990007DT67590675900000033761800137800000010180013724001193152900012358635060120230000000430015223000000000021913440393XXXXXX6403               2111111   NYV4 A7W383152677520049N84000000000430068K400    01DNSIESTA G GLOBAL DISTRIBUT502421    VD84000000004300 NDR549971004114   RPHMD3MHIBRODA8LFESD     000000000+                F PF 08175                     000000000  N000000000       0000000000000.00 0000000.00   0000000.00                             000000000000000                                                                                                                                                     01424 G000000004300 0000000000000.95     01750 02000                  
00016720028990007DR675906759000000337618001378000000101RPHMD3MHIBRODA8LFESD     Y000000004300                 P1                                                                                                                                                                                                                                                                                                                                                                                                                                                                                                                                                                                                            
00016730028990001P16759067590000003376180013780000001010000000000000000                             2000000000000000000000000              000000000000                    0000000000000000000000000                    000000000000                                                                                                                                                                                                                                                                                                                                                                                                                                                                                        
00016740028990002G2675906759000000337618001378000000101813-4448886              FL           9 P                00                                      NNNN   N                      000000000000                                                                   71004114                                                                                                                                                                                                                                                                                                                                                                                                                                               
00016750028990008BH6759067590000001427480010280000090170601202315223000000000302340    0000090001063891Y8001026759C06022023106                                                                                                                                                                                                                                                                                                                                                                                                                                                                                                                                                                                              
00016760028990009DT67590675900000014274800102800000010180010224001193152900010633476053120230000001987015223000000000302340425838XXXXXX0285               2111111   NYV4 A7W303148469606858N840000000019870M7ZV00    01DNCBD8666317293            059150    VD84000000019870 NDR549977145232   8D10C37088T0743BD5870C6  000000000+                F DF 10420                     000000000  Y000000000 338   0000000000000.00 0000000.00   0000000.00                             000000000000000                                                                                                                                                     01424 G000000019870 0000000000000.32     00050 02200                  
00016770028990009DR6759067590000001427480010280000001018D10C37088T0743BD5870C6  N000000019870                 P1                                                                                                                                                                                                                                                                                                                                                                                                                                                                                                                                                                                                            
00016780028990001P16759067590000001427480010280000001010000000000000000                             2000000000000000000000000              000000000000                    0000000000000000000000000                    000000000000                                                                                                                                                                                                                                                                                                                                                                                                                                                                                        
00016790028990002G2675906759000000142748001028000000101866-6317293              GA           9 D                00                                      NNNN   N                      000000000000                                                                   77145232                                                                                                                                                                                                                                                                                                                                                                                                                                               
00016800028990010DT67590675900000014274800102800000010180010224001193152900010633567053120230000001284915223000000000302340451938XXXXXX3095               2111111   NYV4 A7W463148505471424N8400000000128496P5Z00    01DNCBD8666317293            092788    VD84000000012849 NDR549977145232   58FE187076TBCE6267CC8C8  000000000+                F DF 00415                     000000000  N000000000       0000000000000.00 0000000.00   0000000.00                             000000000000000                                                                                                                                                     01424 G000000012849 0000000000002.27     01650 01500                  
00016810028990010DR67590675900000014274800102800000010158FE187076TBCE6267CC8C8  Y000000012849                 P1                                                                                                                                                                                                                                                                                                                                                                                                                                                                                                                                                                                                            
00016820028990001P16759067590000001427480010280000001010000000000000000                             2000000000000000000000000              000000000000                    0000000000000000000000000                    000000000000                                                                                                                                                                                                                                                                                                                                                                                                                                                                                        
00016830028990002G2675906759000000142748001028000000101866-6317293              GA           9 D                00                                      NNNN   N                      000000000000                                                                   77145232                                                                                                                                                                                                                                                                                                                                                                                                                                               
00016840028990011DT67590675900000014274800102800000010180010224001193152900010634144053120230000001799115223000000000302340441839XXXXXX6774               2111111   NYV4 A7W583148693047460N8400000000179913DZW00    01DNCBD8666317293            738907    VS84000000017991 NDR549977145232   D0A62351FET648D740453CF  000000000+                C CC 12108                     000000000  N000000000 496   0000000000000.00 0000000.00   0000000.00                             000000000000000                                                                                                                                                     01424 G000000017991 0000000000003.79     02050 01000                  
00016850028990011DR675906759000000142748001028000000101D0A62351FET648D740453CF  Y000000017991                 P1                                                                                                                                                                                                                                                                                                                                                                                                                                                                                                                                                                                                            
00016860028990001P16759067590000001427480010280000001010000000000000000                             2000000000000000000000000              000000000000                    0000000000000000000000000                    000000000000                                                                                                                                                                                                                                                                                                                                                                                                                                                                                        
00016870028990002G2675906759000000142748001028000000101866-6317293              GA           9 C                00                                      NNNN   Y                      000000000000                                                                   77145232                                                                                                                                                                                                                                                                                                                                                                                                                                               
00016880028990012DT67590675900000014274800102800000010180010224001193152900010634250053120230000001987015223000000000302340410039XXXXXX5569               2111111   NYV4 A7W463148735045549N84000000001987092FQ00    01DNCBD8666317293            49384D    VS84000000019870 NDR549977145232   4A1E85F3E7T782460A4A223  000000000+                D CD 12109                     000000000  N000000000 498   0000000000000.00 0000000.00   0000000.00                             000000000000000                                                                                                                                                     01424 G000000019870 0000000000005.07     02500 01000                  
00016890028990012DR6759067590000001427480010280000001014A1E85F3E7T782460A4A223  Y000000019870                 P1                                                                                                                                                                                                                                                                                                                                                                                                                                                                                                                                                                                                            
00016900028990001P16759067590000001427480010280000001010000000000000000                             2000000000000000000000000              000000000000                    0000000000000000000000000                    000000000000                                                                                                                                                                                                                                                                                                                                                                                                                                                                                        
00016910028990002G2675906759000000142748001028000000101866-6317293              GA           9 C                00                                      NNNN   Y                      000000000000                                                                   77145232                                                                                                                                                                                                                                                                                                                                                                                                                                               
00016920028990013DT67590675900000014274800102800000010180010287287283152900010634293053120230000001987015223000000000302340552433XXXXXX2333       ME03KE06MS02      NY 4607AMPLZWHSG70528  N840000000019870          81DNCBD8666317293            08343M    MC84000000019870 NDR549977145232   2211C54746T1F2B66D68773  000000000+600450S00130    MPL  00580                     000000000  N                0000000000000.00 0000000.00   0000000.00                             000000000000000                                                                                                                                                   U001424  000000000000 0000000000004.27     02100 01000                  
00016930028990013DR6759067590000001427480010280000001012211C54746T1F2B66D68773  Y000000000000                                                                                                                                                                                                                                                                                                                                                                                                                                                                                                                                                                                                                               
00016940028990001G2675906759000000142748001028000000101866-6317293              GA           9 L               210                                      NNNN           210000000000000000000000000                        7                                          77145232                                                                                                                                                                                                                                                                                                                                                                                                                                               
00016950028990014DT67590675900000014274800102800000010180010287287283152900010634319053120230000000648415223000000000302340510807XXXXXX3073       ME03KE06MS02      NY 4607AMDSIPUSSZ0528  N840000000006484          81DNCBD8666317293            077671    MD84000000006484 NDR549977145232   BE6B1FF360TFF15F6C4C660  000000000+600450S00130    MDS  00401                     000000000  N                0000000000000.00 0000000.00   0000000.00                             000000000000000                                                                                                                                                   U001424  000000000000 0000000000001.22     01650 01500                  
00016960028990014DR675906759000000142748001028000000101BE6B1FF360TFF15F6C4C660  Y000000000000                                                                                                                                                                                                                                                                                                                                                                                                                                                                                                                                                                                                                               
00016970028990001G2675906759000000142748001028000000101866-6317293              GA           9 S               210                                      NNNN           210000000000000000000000000                                                                   77145232                                                                                                                                                                                                                                                                                                                                                                                                                                               
00016980028990015DT67590675900000014274800102800000010180010287287283152900010634756053120230000000600415223000000000302340559460XXXXXX8963       ME03KE06MS02      NY 4607AMDJB7Q3M90528  N840000000006004          81DNCBD8666317293            731180    MD84000000006004 NDR549977145232   DD908C9285T21A67B43CA5A  000000000+600450S00130    MDJ  10813                     000000000  1                0000000000000.00 0000000.00   0000000.00                             000000000000000                                                                                                                                                   U001424  000000000000 0000000000000.25     00050 02200                  
00016990028990015DR675906759000000142748001028000000101DD908C9285T21A67B43CA5A  Y000000000000                                                                                                                                                                                                                                                                                                                                                                                                                                                                                                                                                                                                                               
00017000028990001G2675906759000000142748001028000000101866-6317293              GA           9 J               210                                      NNNN           210000000000000000000000000                                                                   77145232                                                                                                                                                                                                                                                                                                                                                                                                                                               
00017010028990016DT67590675900000014274800102800000010180010224001193152900010637766053120230000002255015223000000000302340440066XXXXXX2784               2111111   NYV4 A7W583152006046848N840000000022550FX5F00    01DNCBD8666317293            08045C    VS84000000022550 NDR549977145232   FC14E61235T5D2497C97360  000000000+                C CC 12108                     000000000  N000000000 496   0000000000000.00 0000000.00   0000000.00                             000000000000000                                                                                                                                                     01424 G000000022550 0000000000004.72     02050 01000                  
00017020028990016DR675906759000000142748001028000000101FC14E61235T5D2497C97360  Y000000022550                 P1                                                                                                                                                                                                                                                                                                                                                                                                                                                                                                                                                                                                            
00017030028990001P16759067590000001427480010280000001010000000000000000                             2000000000000000000000000              000000000000                    0000000000000000000000000                    000000000000                                                                                                                                                                                                                                                                                                                                                                                                                                                                                        
00017040028990002G2675906759000000142748001028000000101866-6317293              GA           9 C                00                                      NNNN   Y                      000000000000                                                                   77145232                                                                                                                                                                                                                                                                                                                                                                                                                                               
00017050028990017DT67590675900000014274800102800000010180010287287283152900010637841053120230000002636215223000000000302340551769XXXXXX6674       ME03KE06MS02      NY 4607AMDJAIQFFY0531  N840000000026362          81DNCBD8666317293            192549    MD84000000026362 NDR549977145232   6F7DFC5547TEDAED376C544  000000000+600450S00130    MDJ  00401                     000000000  N                0000000000000.00 0000000.00   0000000.00                             000000000000000                                                                                                                                                   U001424  000000000000 0000000000004.50     01650 01500                  
00017060028990017DR6759067590000001427480010280000001016F7DFC5547TEDAED376C544  Y000000000000                                                                                                                                                                                                                                                                                                                                                                                                                                                                                                                                                                                                                               
00017070028990001G2675906759000000142748001028000000101866-6317293              GA           9 J               210                                      NNNN           210000000000000000000000000                        7                                          77145232                                                                                                                                                                                                                                                                                                                                                                                                                                               
00017080028990018DT67590675900000014274800102800000010180010224001193152900010637907053120230000000687815223000000000302340432739XXXXXX3844               2111111   NYV4 A7W383152040301076N840000000006878ZVHJ00    01DNCBD8666317293            730142    VD84000000006878 NDR549977145232   6AD338ED59T0451D5786214  000000000+                F DF 10420                     000000000  Y000000000 338   0000000000000.00 0000000.00   0000000.00                             000000000000000                                                                                                                                                     01424 G000000006878 0000000000000.25     00050 02200                  
00017090028990018DR6759067590000001427480010280000001016AD338ED59T0451D5786214  N000000006878                 P1                                                                                                                                                                                                                                                                                                                                                                                                                                                                                                                                                                                                            
00017100028990001P16759067590000001427480010280000001010000000000000000                             2000000000000000000000000              000000000000                    0000000000000000000000000                    000000000000                                                                                                                                                                                                                                                                                                                                                                                                                                                                                        
00017110028990002G2675906759000000142748001028000000101866-6317293              GA           9 D                00                                      NNNN   N                      000000000000                                                                   77145232                                                                                                                                                                                                                                                                                                                                                                                                                                               
00017120028990019DT67590675900000014274800102800000010180010287287283152900010637932053120230000000149515223000000000302340536740XXXXXX4092       ME03KE06MS02      NY 4607AMDJBNMMFY0531  N840000000001495          81DNCBD8666317293            569579    MD84000000001495 NDR549977145232   15EBE3632CTFB75EF03E438  000000000+600450S00130    MDJ  00401                     000000000  N                0000000000000.00 0000000.00   0000000.00                             000000000000000                                                                                                                                                   U001424  000000000000 0000000000000.40     01650 01500                  
00017130028990019DR67590675900000014274800102800000010115EBE3632CTFB75EF03E438  Y000000000000                                                                                                                                                                                                                                                                                                                                                                                                                                                                                                                                                                                                                               
00017140028990001G2675906759000000142748001028000000101866-6317293              GA           9 J               210                                      NNNN           210000000000000000000000000                        7                                          77145232                                                                                                                                                                                                                                                                                                                                                                                                                                               
00017150028990020DT67590675900000014274800102800000010180010224001193152900010637949053120230000002487015223000000000302340434256XXXXXX5943               2111111   NYV4 A7W463152052430108N84000000002487076QP00    01DNCBD8666317293            008785    VD84000000024870 NDR549977145232   CBC1477792T9CCA98FC3268  000000000+                F DF 10420                     000000000  Y000000000 338   0000000000000.00 0000000.00   0000000.00                             000000000000000                                                                                                                                                     01424 G000000024870 0000000000000.34     00050 02200                  
00017160028990020DR675906759000000142748001028000000101CBC1477792T9CCA98FC3268  Y000000024870                 P1                                                                                                                                                                                                                                                                                                                                                                                                                                                                                                                                                                                                            
00017170028990001P16759067590000001427480010280000001010000000000000000                             2000000000000000000000000              000000000000                    0000000000000000000000000                    000000000000                                                                                                                                                                                                                                                                                                                                                                                                                                                                                        
00017180028990002G2675906759000000142748001028000000101866-6317293              GA           9 D                00                                      NNNN   N                      000000000000                                                                   77145232                                                                                                                                                                                                                                                                                                                                                                                                                                               
00017190028990021DT67590675900000014274800102800000010180010224001193152900010637964053120230000000149515223000000000302340481588XXXXXX7481               2111111   NYV4 A7W583152076007222N840000000001495TQ5600    01DNCBD8666317293            190667    VD84000000001495 NDR549977145232   DB8A9F6972T4E9C6BC1FABD  000000000+                G DG 10352                     000000000  Y000000000 338   0000000000000.00 0000000.00   0000000.00                             000000000000000                                                                                                                                                     01424 G000000001495 0000000000000.23     00050 02200                  
00017200028990021DR675906759000000142748001028000000101DB8A9F6972T4E9C6BC1FABD  Y000000001495                 P1                                                                                                                                                                                                                                                                                                                                                                                                                                                                                                                                                                                                            
00017210028990001P16759067590000001427480010280000001010000000000000000                             2000000000000000000000000              000000000000                    0000000000000000000000000                    000000000000                                                                                                                                                                                                                                                                                                                                                                                                                                                                                        
00017220028990002G2675906759000000142748001028000000101866-6317293              GA           9 D                00                                      NNNN   N                      000000000000                                                                   77145232                                                                                                                                                                                                                                                                                                                                                                                                                                               
00017230028990022DT67590675900000014274800102800000010180010224001193152900010638012053120230000001200815223000000000302340414734XXXXXX7281               2111111   NYV4 A7W303152108045798N8400000000120083HNM00    01DNCBD8666317293            03960D    VS84000000012008 NDR549977145232   CFC770C826T21D2EA975B55  000000000+                D CD 12109                     000000000  N000000000 498   0000000000000.00 0000000.00   0000000.00                             000000000000000                                                                                                                                                     01424 G000000012008 0000000000003.10     02500 01000                  
00017240028990022DR675906759000000142748001028000000101CFC770C826T21D2EA975B55  Y000000012008                 P1                                                                                                                                                                                                                                                                                                                                                                                                                                                                                                                                                                                                            
00017250028990001P16759067590000001427480010280000001010000000000000000                             2000000000000000000000000              000000000000                    0000000000000000000000000                    000000000000                                                                                                                                                                                                                                                                                                                                                                                                                                                                                        
00017260028990002G2675906759000000142748001028000000101866-6317293              GA           9 C                00                                      NNNN   Y                      000000000000                                                                   77145232                                                                                                                                                                                                                                                                                                                                                                                                                                               
00017270028990023DT67590675900000014274800102800000010180010224001193152900010638038060120230000000160715223000000000302340416785XXXXXX8755               2111111   NYV4 A7W583152194116990N840000000001607599J00    01DNCBD8666317293            333973    VD84000000001607 NDR549977145232   13F6D6D9D6T74FA94755980  000000000+                G DG 08705                     000000000  N000000000       0000000000000.00 0000000.00   0000000.00                             000000000000000                                                                                                                                                     01424 G000000001607 0000000000000.49     02450 01000                  
00017280028990023DR67590675900000014274800102800000010113F6D6D9D6T74FA94755980  Y000000001607                 P1                                                                                                                                                                                                                                                                                                                                                                                                                                                                                                                                                                                                            
00017290028990001P16759067590000001427480010280000001010000000000000000                             1000000000112000000000000              000000000000                    0000000000000000000000000                    000000000000                                                                                                                                                                                                                                                                                                                                                                                                                                                                                        
00017300028990002G2675906759000000142748001028000000101866-6317293              GA           9 D                00                                      NNNN   N                      000000000000                                                                   77145232                                                                                                                                                                                                                                                                                                                                                                                                                                               
00017310028990024DT67590675900000014274800102800000010180010287287283152900010638104060120230000001200815223000000000302340512230XXXXXX1616       ME03KE06MS02      NY 4607AMWEIN7CI50601  N840000000012008          81DNCBD8666317293            55833Z    MC84000000012008 NDR549977145232   BDD3313444T253631BD6E09  000000000+600450S00130    MWE  00737                     000000000  N                0000000000000.00 0000000.00   0000000.00                             000000000000000                                                                                                                                                   U001424  000000000000 0000000000003.22     02600 01000                  
00017320028990024DR675906759000000142748001028000000101BDD3313444T253631BD6E09  Y000000000000                                                                                                                                                                                                                                                                                                                                                                                                                                                                                                                                                                                                                               
00017330028990001G2675906759000000142748001028000000101866-6317293              GA           9 E               210                                      NNNN           210000000000000000000000000                                                                   77145232                                                                                                                                                                                                                                                                                                                                                                                                                                               
00017340028990025DT67590675900000014274800102800000010180010224001193152900010638111060120230000001987015223000000000302340425808XXXXXX1614               2111111   NYV4 A7W383152418385337N840000000019870BKRX00    01DNCBD8666317293            010101    VD84000000019870 NDR549977145232   CAC46BFE6FT5F61CF121132  000000000+                F DF 10420                     000000000  Y000000000 338   0000000000000.00 0000000.00   0000000.00                             000000000000000                                                                                                                                                     01424 G000000019870 0000000000000.32     00050 02200                  
00017350028990025DR675906759000000142748001028000000101CAC46BFE6FT5F61CF121132  Z000000019870                 P1                                                                                                                                                                                                                                                                                                                                                                                                                                                                                                                                                                                                            
00017360028990001P16759067590000001427480010280000001010000000000000000                             2000000000000000000000000              000000000000                    0000000000000000000000000                    000000000000                                                                                                                                                                                                                                                                                                                                                                                                                                                                                        
00017370028990002G2675906759000000142748001028000000101866-6317293              GA           9 D                00                                      NNNN   N                      000000000000                                                                   77145232                                                                                                                                                                                                                                                                                                                                                                                                                                               
00017380028990026DT67590675900000014274800102800000010680010274001193152900010638132060120230000002106215223000000000302340410039XXXXXX7563               0000000   NYV4 07T383152501187963N8400000000210626HX500    01CNCBD8666317293            54178C    VS84000000021062 NDR549977145232   753A5140DAT415DFD519B8A  000000000+                C CC 00245                     000000000  N000000000 166   0000000000000.00 0000000.00   0000000.00                             000000000000000                                                                                                                                                     01424  000000021062-0000000000003.71     01760 00000                  
00017390028990026DR675906759000000142748001028000000106753A5140DAT415DFD519B8A  U000000021062                 P1                                                                                                                                                                                                                                                                                                                                                                                                                                                                                                                                                                                                            
00017400028990001P16759067590000001427480010280000001060000000000000000                             2000000000000000000000000              000000000000                    0000000000000000000000000                    000000000000                                                                                                                                                                                                                                                                                                                                                                                                                                                                                        
00017410028990002G2675906759000000142748001028000000106866-6317293              GA           9 C                00                                      NNNN   Y                      000000000000                                                                   77145232                                                                                                                                                                                                                                                                                                                                                                                                                                               
00017420028990027DT67590675900000014274800102800000010680010274001193152900010638140060120230000001925215223000000000302340410039XXXXXX7563               0000000   NYV4 07T303152506395398N840000000019252S6XT00    01CNCBD8666317293            47506C    VS84000000019252 NDR549977145232   7FE2330738TF0106BE93476  000000000+                C CC 00245                     000000000  N000000000 166   0000000000000.00 0000000.00   0000000.00                             000000000000000                                                                                                                                                     01424  000000019252-0000000000003.39     01760 00000                  
00017430028990027DR6759067590000001427480010280000001067FE2330738TF0106BE93476  U000000019252                 P1                                                                                                                                                                                                                                                                                                                                                                                                                                                                                                                                                                                                            
00017440028990001P16759067590000001427480010280000001060000000000000000                             2000000000000000000000000              000000000000                    0000000000000000000000000                    000000000000                                                                                                                                                                                                                                                                                                                                                                                                                                                                                        
00017450028990002G2675906759000000142748001028000000106866-6317293              GA           9 C                00                                      NNNN   Y                      000000000000                                                                   77145232                                                                                                                                                                                                                                                                                                                                                                                                                                               
00017460028990028DT67590675900000014274800102800000010180010224001193152900010638160060120230000002487015223000000000302340438857XXXXXX4067               2111111   NYV4 A7W463152543772019N840000000024870G7FN00    01DNCBD8666317293            08538D    VS84000000024870 NDR549977145232   D2A5375C5CT9E239595E82F  000000000+                D CD 12109                     000000000  N000000000 498   0000000000000.00 0000000.00   0000000.00                             000000000000000                                                                                                                                                     01424 G000000024870 0000000000006.32     02500 01000                  
00017470028990028DR675906759000000142748001028000000101D2A5375C5CT9E239595E82F  Y000000024870                 P1                                                                                                                                                                                                                                                                                                                                                                                                                                                                                                                                                                                                            
00017480028990001P16759067590000001427480010280000001010000000000000000                             2000000000000000000000000              000000000000                    0000000000000000000000000                    000000000000                                                                                                                                                                                                                                                                                                                                                                                                                                                                                        
00017490028990002G2675906759000000142748001028000000101866-6317293              GA           9 C                00                                      NNNN   Y                      000000000000                                                                   77145232                                                                                                                                                                                                                                                                                                                                                                                                                                               
00017500028990029DT67590675900000014274800102800000010180010224001193152900010638178060120230000000129515223000000000302340426684XXXXXX7873               2111111   NYV4 A7W383152559437620N840000000001295J33700    01DNCBD8666317293            06701C    VS84000000001295 NDR549977145232   3E642A94A8T830AF46AE665  000000000+                C CC 12108                     000000000  N000000000 496   0000000000000.00 0000000.00   0000000.00                             000000000000000                                                                                                                                                     01424 G000000001295 0000000000000.37     02050 01000                  
00017510028990029DR6759067590000001427480010280000001013E642A94A8T830AF46AE665  Y000000001295                 P1                                                                                                                                                                                                                                                                                                                                                                                                                                                                                                                                                                                                            
00017520028990001P16759067590000001427480010280000001010000000000000000                             2000000000000000000000000              000000000000                    0000000000000000000000000                    000000000000                                                                                                                                                                                                                                                                                                                                                                                                                                                                                        
00017530028990002G2675906759000000142748001028000000101866-6317293              GA           9 C                00                                      NNNN   Y                      000000000000                                                                   77145232                                                                                                                                                                                                                                                                                                                                                                                                                                               
00017540028990030DT67590675900000014274800102800000010180010224001193152900010638186060120230000000149515223000000000302340426684XXXXXX7873               2111111   NYV4 A7W463152559552185N840000000001495BMJ400    01DNCBD8666317293            07073C    VS84000000001495 NDR549977145232   3E642A94A8TF3AE5E3C419C  000000000+                C CC 12108                     000000000  N000000000 496   0000000000000.00 0000000.00   0000000.00                             000000000000000                                                                                                                                                     01424 G000000001495 0000000000000.41     02050 01000                  
00017550028990030DR6759067590000001427480010280000001013E642A94A8TF3AE5E3C419C  Y000000001495                 P1                                                                                                                                                                                                                                                                                                                                                                                                                                                                                                                                                                                                            
00017560028990001P16759067590000001427480010280000001010000000000000000                             2000000000000000000000000              000000000000                    0000000000000000000000000                    000000000000                                                                                                                                                                                                                                                                                                                                                                                                                                                                                        
00017570028990002G2675906759000000142748001028000000101866-6317293              GA           9 C                00                                      NNNN   Y                      000000000000                                                                   77145232                                                                                                                                                                                                                                                                                                                                                                                                                                               
00017580028990031DT67590675900000014274800102800000010180010287287283152900010638195060120230000002106215223000000000302340510571XXXXXX9637       ME03KE06MS02      NY 4607AMDJFDOFI60601  N840000000021062          81DNCBD8666317293            499394    MD84000000021062 NDR549977145232   A64049D1F1TE06FC217E3EA  000000000+600450S00130    MDJ  00401                     000000000  N                0000000000000.00 0000000.00   0000000.00                             000000000000000                                                                                                                                                   U001424  000000000000 0000000000003.63     01650 01500                  
00017590028990031DR675906759000000142748001028000000101A64049D1F1TE06FC217E3EA  Y000000000000                                                                                                                                                                                                                                                                                                                                                                                                                                                                                                                                                                                                                               
00017600028990001G2675906759000000142748001028000000101866-6317293              GA           9 J               210                                      NNNN           210000000000000000000000000                                                                   77145232                                                                                                                                                                                                                                                                                                                                                                                                                                               
00017610028990032DT67590675900000014274800102800000010680010274001193152900010638207060120230000002136015223000000000302340419162XXXXXX7601               0000000   NYV4 07T383152586317220N84000000002136067S700    01CNCBD8666317293            021711    VD84000000021360 NDR549977145232   B2BEF6BB33T831D62F660A3  000000000+                F DF 08168                     000000000  N000000000 369   0000000000000.00 0000000.00   0000000.00                             000000000000000                                                                                                                                                     01424  000000021360 0000000000000.00     00000 00000                  
00017620028990032DR675906759000000142748001028000000106B2BEF6BB33T831D62F660A3  Y000000021360                 P1                                                                                                                                                                                                                                                                                                                                                                                                                                                                                                                                                                                                            
00017630028990001P16759067590000001427480010280000001060000000000000000                             2000000000000000000000000              000000000000                    0000000000000000000000000                    000000000000                                                                                                                                                                                                                                                                                                                                                                                                                                                                                        
00017640028990002G2675906759000000142748001028000000106866-6317293              GA           9 D                00                                      NNNN   N                      000000000000                                                                   77145232                                                                                                                                                                                                                                                                                                                                                                                                                                               
00017650028990033DT67590675900000014274800102800000010180010287287283152900010638237060120230000000158515223000000000302340550883XXXXXX1508       ME03KE06MS02      NY 4607AMDSPIBZLI0601  N840000000001585          81DNCBD8666317293            071280    MD84000000001585 NDR549977145232   99CBDFAD18TC1A7ECB59C1E  000000000+600450S00130    MDS  00401                     000000000  N                0000000000000.00 0000000.00   0000000.00                             000000000000000                                                                                                                                                   U001424  000000000000 0000000000000.41     01650 01500                  
00017660028990033DR67590675900000014274800102800000010199CBDFAD18TC1A7ECB59C1E  Y000000000000                                                                                                                                                                                                                                                                                                                                                                                                                                                                                                                                                                                                                               
00017670028990001G2675906759000000142748001028000000101866-6317293              GA           9 S               210                                      NNNN           210000000000000000000000000                        7                                          77145232                                                                                                                                                                                                                                                                                                                                                                                                                                               
00017680028990034DT67590675900000014274800102800000010180010224001193152900010638244060120230000002710815223000000000302340448261XXXXXX1310               2111111   NYV4 A7W463152588180147N840000000027108XJDS00    01DNCBD8666317293            664643    VD84000000027108 NDR549977145232   13A6090E5ATCF163A359DC2  000000000+                F DF 10420                     000000000  Y000000000 338   0000000000000.00 0000000.00   0000000.00                             000000000000000                                                                                                                                                     01424 G000000027108 0000000000000.36     00050 02200                  
00017690028990034DR67590675900000014274800102800000010113A6090E5ATCF163A359DC2  Y000000027108                 P1                                                                                                                                                                                                                                                                                                                                                                                                                                                                                                                                                                                                            
00017700028990001P16759067590000001427480010280000001010000000000000000                             2000000000000000000000000              000000000000                    0000000000000000000000000                    000000000000                                                                                                                                                                                                                                                                                                                                                                                                                                                                                        
00017710028990002G2675906759000000142748001028000000101866-6317293              GA           9 D                00                                      NNNN   N                      000000000000                                                                   77145232                                                                                                                                                                                                                                                                                                                                                                                                                                               
00017720028990035DT67590675900000014274800102800000010680010274001193152900010638256060120230000001059315223000000000302340414709XXXXXX2436               0000000   NYV4 07T383152592066588N8400000000105939VXM85    01CNCBD8666317293            077471    VS84000000010593 NDR549977145232   59563F760BT9A3A3CE00B33  000000000+                C CC 00245                     000000000  N000000000 166   0000000000000.00 0000000.00   0000000.00                             000000000000000                                                                                                                                                     01424  000000010593-0000000000001.86     01760 00000                  
00017730028990035DR67590675900000014274800102800000010659563F760BT9A3A3CE00B33  R000000010593                 P1                                                                                                                                                                                                                                                                                                                                                                                                                                                                                                                                                                                                            
00017740028990001P16759067590000001427480010280000001060000000000000000                             2000000000000000000000000              000000000000                    0000000000000000000000000                    000000000000                                                                                                                                                                                                                                                                                                                                                                                                                                                                                        
00017750028990002G2675906759000000142748001028000000106866-6317293              GA           9 C                00                                      NNNN   Y                      000000000000                                                                   77145232                                                                                                                                                                                                                                                                                                                                                                                                                                               
00017760028990036DT67590675900000014274800102800000010680010287287283152900010638278060120230000000905415223000000000302340510571XXXXXX9637                         NY 4607AMDJQE79LI0601  N840000000009054          81CNCBD8666317293            499398    MD84000000009054 NDR549977145232   A64049D1F1TE06FC217E3EA  000000000+600450S00130    MDJ  00560                     000000000  N                0000000000000.00 0000000.00   0000000.00                             000000000000000                                                                                                                                                     01424  000000000000 0000000000000.00     00000 00000                  
00017770028990036DR675906759000000142748001028000000106A64049D1F1TE06FC217E3EA  Y000000000000                                                                                                                                                                                                                                                                                                                                                                                                                                                                                                                                                                                                                               
00017780028990001G2675906759000000142748001028000000106866-6317293              GA           9 J               210                                      NNNN           210000000000000000000000000                                                                   77145232                                                                                                                                                                                                                                                                                                                                                                                                                                               
00017790028990037DT67590675900000014274800102800000010180010273011003152900010638299060120230000002937515223000000000302340379288XXXXX1000                          NY 4 07N008091168213065N840000000029375          01DNCBD8666317293            211951    AM84000000029375 Y  549977145232                            000000000+6004S0S00130 258     11262                     000000000                   0000000000000.00 0000000.00   0000000.00                             000000000000000 61248972086759675900000014274 CBD8666317293            2993 SANDY PLAINS RD STE 6787614584      30066     EMORRIS@GREENOTTERCBD.COM                 01324  000000000000 0000000000005.83     01950 00000                  
00017800028990001G2675906759000000142748001028000000101MARIETTA                 GA           9                  00                                      NNNN                          000000000000                                                                   77145232                                                                                                                                                                                                                                                                                                                                                                                                                                               
00017810028990038DT67590675900000014274800102800000010680010273011003152900010639206060120230000002188015223000000000302340379288XXXXX1000                          NY94 07N000000000000000N840000000000000          01CNCBD8666317293                      AM84000000021880 Y  549977145232                            000000000+6004S0000130 258     11314                     000000000                   0000000000000.00 0000000.00   0000000.00                             000000000000000 61248972086759675900000014274 CBD8666317293            2993 SANDY PLAINS RD STE 6787614584      30066     EMORRIS@GREENOTTERCBD.COM                 01324  000000000000 0000000000000.00     00000 00000                  
00017820028990001G2675906759000000142748001028000000106MARIETTA                 GA           9                  00                                      NNNN                          000000000000                                                                   77145232                                                                                                                                                                                                                                                                                                                                                                                                                                               
00017830028990039DT67590675900000014274800102800000010180010224001193152900010638400060120230000002146015223000000000302340448232XXXXXX2978               2111111   NYV4 A7W303152684151932N840000000021460M7WR00    01DNCBD8666317293            050006    VD84000000021460 NDR549977145232   98D7E04CD5TF948A934C4FF  000000000+                F DF 00415                     000000000  N000000000       0000000000000.00 0000000.00   0000000.00                             000000000000000                                                                                                                                                     01424 G000000021460 0000000000003.69     01650 01500                  
00017840028990039DR67590675900000014274800102800000010198D7E04CD5TF948A934C4FF  Y000000021460                 P1                                                                                                                                                                                                                                                                                                                                                                                                                                                                                                                                                                                                            
00017850028990001P16759067590000001427480010280000001010000000000000000                             2000000000000000000000000              000000000000                    0000000000000000000000000                    000000000000                                                                                                                                                                                                                                                                                                                                                                                                                                                                                        
00017860028990002G2675906759000000142748001028000000101866-6317293              GA           9 D                00                                      NNNN   N                      000000000000                                                                   77145232                                                                                                                                                                                                                                                                                                                                                                                                                                               
00017870028990040DT67590675900000014274800102800000010680010274001193152900010638439060120230000002920315223000000000302340476970XXXXXX7084               0000000   NYV4 07T303152692021178N840000000029203RGT300    01CNCBD8666317293            000073    VD84000000029203 NDR549977145232   18D276B291T5E83A96FE9E9  000000000+                F PF 08168                     000000000  N000000000 369   0000000000000.00 0000000.00   0000000.00                             000000000000000                                                                                                                                                     01424  000000029203 0000000000000.00     00000 00000                  
00017880028990040DR67590675900000014274800102800000010618D276B291T5E83A96FE9E9  N000000029203                 P1                                                                                                                                                                                                                                                                                                                                                                                                                                                                                                                                                                                                            
00017890028990001P16759067590000001427480010280000001060000000000000000                             2000000000000000000000000              000000000000                    0000000000000000000000000                    000000000000                                                                                                                                                                                                                                                                                                                                                                                                                                                                                        
00017900028990002G2675906759000000142748001028000000106866-6317293              GA           9 P                00                                      NNNN   N                      000000000000                                                                   77145232                                                                                                                                                                                                                                                                                                                                                                                                                                               
00017910028990041DT67590675900000014274800102800000010180010287287283152900010638575060120230000001284915223000000000302340531266XXXXXX5461       ME03KE06MS02      NY 4607AMDJMV8MX10601  N840000000012849          81DNCBD8666317293            131599    MD84000000012849 NDR549977145232   11E1FD74F9TBE845C20CAE9  000000000+600450S00130    MDJ  10813                     000000000  1                0000000000000.00 0000000.00   0000000.00                             000000000000000                                                                                                                                                   U001424  000000000000 0000000000000.28     00050 02200                  
00017920028990041DR67590675900000014274800102800000010111E1FD74F9TBE845C20CAE9  Y000000000000                                                                                                                                                                                                                                                                                                                                                                                                                                                                                                                                                                                                                               
00017930028990001G2675906759000000142748001028000000101866-6317293              GA           9 J               210                                      NNNN           210000000000000000000000000                        7                                          77145232                                                                                                                                                                                                                                                                                                                                                                                                                                               
00017940028990042DT67590675900000014274800102800000010680010274001193152900010638595060120230000001484815223000000000302340443047XXXXXX9838               0000000   NYV4 07T383152736276507N840000000014848F2KF00    01CNCBD8666317293            001790    VD84000000014848 NDR549977145232   3F2A80C4CET06AB4559942D  000000000+                F DF 08168                     000000000  Y000000000 369   0000000000000.00 0000000.00   0000000.00                             000000000000000                                                                                                                                                     01424  000000014848 0000000000000.00     00000 00000                  
00017950028990042DR6759067590000001427480010280000001063F2A80C4CET06AB4559942D  U000000014848                 P1                                                                                                                                                                                                                                                                                                                                                                                                                                                                                                                                                                                                            
00017960028990001P16759067590000001427480010280000001060000000000000000                             2000000000000000000000000              000000000000                    0000000000000000000000000                    000000000000                                                                                                                                                                                                                                                                                                                                                                                                                                                                                        
00017970028990002G2675906759000000142748001028000000106866-6317293              GA           9 D                00                                      NNNN   N                      000000000000                                                                   77145232                                                                                                                                                                                                                                                                                                                                                                                                                                               
00017980028990043DT67590675900000014274800102800000010680010274001193152900010638645060120230000001987015223000000000302340410039XXXXXX3360               0000000   NYV4 07T463152750093226N840000000019870CXK400    01CNCBD8666317293            07327C    VS84000000019870 NDR549977145232   A3A13FFA32T6D9ADEF31B27  000000000+                C CC 00245                     000000000  N000000000 166   0000000000000.00 0000000.00   0000000.00                             000000000000000                                                                                                                                                     01424  000000019870-0000000000003.50     01760 00000                  
