02913450632010002BH6759067590000000288180088880000090170127202302723000000000013024    0000090001300004N8008886759C01292023                                                                                                                                                                                                                                                                                                                                                                                                                                                                                                                                                                                                 
02913460632010003DT67590675900000002881800888800000010180088824001193027900013000015012720230000000384002723000000000013024410801XXXXXX2409       VS11    0001111   NYV1 A E583027555922541N8400000000038408PG900    05DNHAPPY HIPPIE             002632    VD84000000003840 N  549976487134                            000000000+                F DF 00381                     000000000  N000000000       0000000000000.00 0000000.00   0000000.00                             000000000000000                                                                                                                                                     01418 A000000000000 0000000000000.46     00800 01500                  
02913470632010004DT67590675900000002881800888800000010180088824001193027900013000023012720230000000493802723000000000013024473703XXXXXX1411       VS11    0001111   NYV1 A E303027646368595N840000000004938DXCT00    07DNHAPPY HIPPIE             047435    VD84000000004938 N  549976487134                            000000000+                F DF 10433                     000000000  Y000000000 338   0000000000000.00 0000000.00   0000000.00                             000000000000000                                                                                                                                                     01418 A000000000000 0000000000000.24     00050 02200                  
02913480632010005DT67590675900000002881800888800000010180088824001193027900013000031012720230000000227002723000000000013024419090XXXXXX5725       VS11    0001111   NYV1 A E303027650682430N8400000000022709F5500    05DNHAPPY HIPPIE             084374    VD84000000002270 N  549976487134                            000000000+                F DF 00381                     000000000  N000000000       0000000000000.00 0000000.00   0000000.00                             000000000000000                                                                                                                                                     01418 A000000000000 0000000000000.33     00800 01500                  
02913490632010006DT67590675900000002881800888800000010180088824001193027900013000049012720230000000197602723000000000013024480639XXXXXX8050               1001111   NYV1 A K303027797770080N8400000000019762Z4W00    01DNHAPPY HIPPIE             753782    VD84000000001976 N  549976487134                            000000000+                F DF 00412                     000000000  N000000000       0000000000000.00 0000000.00   0000000.00                             000000000000000                                                                                                                                                     01418 E000000000000 0000000000000.48     01650 01500                  
02913500632010007BH6759067590000000288180088880000090170127202302723000000000172271    0000090001300035N8008886759C01292023                                                                                                                                                                                                                                                                                                                                                                                                                                                                                                                                                                                                 
02913510632010008DT67590675900000002881800888800000010180088824001193027900013000015012720230000000492402723000000000172271443264XXXXXX6212       VS11    0001111   NYV1 A E303027545839552N8400000000049244MD200    05DNHAPPY HIPPIE             021853    VD84000000004924 N  549976487158                            000000000+                F DF 10433                     000000000  Y000000000 338   0000000000000.00 0000000.00   0000000.00                             000000000000000                                                                                                                                                     01418 A000000000000 0000000000000.24     00050 02200                  
02913520632010009DT67590675900000002881800888800000010180088824001193027900013000023012720230000000325802723000000000172271483950XXXXXX4838       VS11    0001111   NYV1 A E583027567287863N8400000000032586GPM00    05DNHAPPY HIPPIE             05875D    VS84000000003258 N  549976487158                            000000000+                D CD 12113                     000000000  N000000000 499   0000000000000.00 0000000.00   0000000.00                             000000000000000                                                                                                                                                     01418 A000000000000 0000000000000.78     02100 01000                  
02913530632010010DT67590675900000002881800888800000010180088877287283027900013000033012720230000000439002723000000000172271539277XXXXXX2706       MS02WI09          NY 1 0 AMWERZL5SE0127  N840000000004390          05DNHAPPY HIPPIE             03231Z    MC84000000004390 N  549976487158                            000000000+M10101C5434C    MWE  00743                     000000000  N                0000000000000.00 0000000.00   0000000.00                             000000000000000                                                                                                                                                   B101418  000000000000 0000000000001.05     02300 00400                  
02913540632010011DT67590675900000002881800888800000010180088824001193027900013000049012720230000000137002723000000000172271443238XXXXXX0397       VK04VS111111111   NYV1 A E463027597891613N840000000001370H37J00    05DNHAPPY HIPPIE             013629    VD84000000001370 N  549976487158                            000000000+                F DF 00451                     000000000  N000000000 214   0000000000000.00 0000000.00   0000000.00                             000000000000000                                                                                                                                                     01418 F000000000000 0000000000000.25     01550 00400                  
02913550632010012DT67590675900000002881800888800000010180088877287283027900013000058012720230000000790002723000000000172271511975XXXXXX8906                         NY 1 0 AMDBZNI2E90127  N840000000007900          05DNHAPPY HIPPIE             043718    MD84000000007900 NP1549976487158                            000000000+M10101C5434C    MDB  00062                     000000000  N                0000000000000.00 0000000.00   0000000.00                             000000000000000                                                                                                                                                   B101418  000000000000 0000000000002.19     02650 01000                  
02913560632010001P1675906759000000028818008888000000101                                                          000000000000          3000            814767769                                                                                                                                                                                                                                                                                                                                                                                                                                                                                                                                                            
02913570632010013DT67590675900000002881800888800000010180088824001193027900013000064012720230000000197402723000000000172271422921XXXXXX5252       VS11    0001111   NYV1 A E583027611284513N840000000001974K4G500    05DNHAPPY HIPPIE             043129    VD84000000001974 N  549976487158                            000000000+                F DF 00381                     000000000  N000000000       0000000000000.00 0000000.00   0000000.00                             000000000000000                                                                                                                                                     01418 A000000000000 0000000000000.31     00800 01500                  
02913580632010014DT67590675900000002881800888800000010180088824001193027900013000072012720230000000049402723000000000172271422921XXXXXX5252       VK04VS111111111   NYV1 A E383027613270935N840000000000494J49300    05DNHAPPY HIPPIE             043329    VD84000000000494 N  549976487158                            000000000+                F DF 00451                     000000000  N000000000 214   0000000000000.00 0000000.00   0000000.00                             000000000000000                                                                                                                                                     01418 F000000000000 0000000000000.12     01550 00400                  
02913590632010015DT67590675900000002881800888800000010180088824001193027900013000080012720230000000315902723000000000172271406042XXXXXX5421       VS11    0001111   NYV1 A E583027630357988N840000000003159F4BZ00    05DNHAPPY HIPPIE             063012    VD84000000003159 N  549976487158                            000000000+                F DF 10433                     000000000  Y000000000 338   0000000000000.00 0000000.00   0000000.00                             000000000000000                                                                                                                                                     01418 A000000000000 0000000000000.24     00050 02200                  
02913600632010016DT67590675900000002881800888800000010180088824001193027900013000098012720230000000483502723000000000172271419090XXXXXX5616       VS11    0001111   NYV1 A E463027633379840N840000000004835BSQF00    05DNHAPPY HIPPIE             083326    VD84000000004835 N  549976487158                            000000000+                F DF 00381                     000000000  N000000000       0000000000000.00 0000000.00   0000000.00                             000000000000000                                                                                                                                                     01418 A000000000000 0000000000000.54     00800 01500                  
02913610632010017DT67590675900000002881800888800000010180088877287283027900013000108012720230000000553002723000000000172271546616XXXXXX8203       MS02WI09          NY 1 0 AMCWU5N2E90127  N840000000005530          05DNHAPPY HIPPIE             59297Z    MC84000000005530 N  549976487158                            000000000+M10101C5434C    MCW  00646                     000000000  N                0000000000000.00 0000000.00   0000000.00                             000000000000000                                                                                                                                                   B101418  000000000000 0000000000001.09     01900 00400                  
02913620632010018DT67590675900000002881800888800000010180088824001193027900013000114012720230000000335702723000000000172271419090XXXXXX4109       VS11    0001111   NYV1 A E383027646526593N840000000003357QWPS00    05DNHAPPY HIPPIE             084126    VD84000000003357 N  549976487158                            000000000+                F DF 00381                     000000000  N000000000       0000000000000.00 0000000.00   0000000.00                             000000000000000                                                                                                                                                     01418 A000000000000 0000000000000.42     00800 01500                  
02913630632010019DT67590675900000002881800888800000010180088824001193027900013000122012720230000000325802723000000000172271449374XXXXXX1276       VS11    0001111   NYV1 A E303027653676155N8400000000032587QTV00    05DNHAPPY HIPPIE             400108    VD84000000003258 N  549976487158                            000000000+                F DF 00381                     000000000  N000000000       0000000000000.00 0000000.00   0000000.00                             000000000000000                                                                                                                                                     01418 A000000000000 0000000000000.41     00800 01500                  
02913640632010020DT67590675900000002881800888800000010180088877287283027900013000132012720230000000819502723000000000172271558158XXXXXX8211                         NY 1 0 AMDBH034VE0127  N840000000008195          05DNHAPPY HIPPIE             2JFKOV    MD84000000008195 NP1549976487158                            000000000+M10101C5434C    MDB  00062                     000000000  N                0000000000000.00 0000000.00   0000000.00                             000000000000000                                                                                                                                                   B101418  000000000000 0000000000002.27     02650 01000                  
02913650632010001P1675906759000000028818008888000000101                                                          000000000000          3000            814767769                                                                                                                                                                                                                                                                                                                                                                                                                                                                                                                                                            
02913660632010021DT67590675900000002881800888800000010180088824001193027900013000148012720230000001382402723000000000172271421783XXXXXX7044       VS11    0001111   NYV1 A E383027667377170N840000000013824VZ2R00    05DNHAPPY HIPPIE             013472    VS84000000013824 N  549976487158                            000000000+                A CA 12110                     000000000  N000000000 493   0000000000000.00 0000000.00   0000000.00                             000000000000000                                                                                                                                                     01418 A000000000000 0000000000002.19     01510 01000                  
02913670632010022DT67590675900000002881800888800000010180088824001193027900013000155012720230000000296202723000000000172271443238XXXXXX9381       VS11    0001111   NYV1 A E303027676290135N840000000002962DCQH00    05DNHAPPY HIPPIE             034709    VD84000000002962 N  549976487158                            000000000+                F DF 00381                     000000000  N000000000       0000000000000.00 0000000.00   0000000.00                             000000000000000                                                                                                                                                     01418 A000000000000 0000000000000.39     00800 01500                  
02913680632010023DT67590675900000002881800888800000010180088824001193027900013000163012720230000000142102723000000000172271443264XXXXXX5230       VK04VS111111111   NYV1 A E463027677077326N840000000001421F9PS00    05DNHAPPY HIPPIE             008011    VD84000000001421 N  549976487158                            000000000+                F DF 10439                     000000000  Y000000000 331   0000000000000.00 0000000.00   0000000.00                             000000000000000                                                                                                                                                     01418 F000000000000 0000000000000.23     00050 02200                  
02913690632010024DT67590675900000002881800888800000010180088824001193027900013000171012720230000000493902723000000000172271435546XXXXXX6856       VS11    0001111   NYV1 A E583027687322888N840000000004939244B00    05DNHAPPY HIPPIE             064102    VD84000000004939 N  549976487158                            000000000+                F DF 10433                     000000000  Y000000000 338   0000000000000.00 0000000.00   0000000.00                             000000000000000                                                                                                                                                     01418 A000000000000 0000000000000.24     00050 02200                  
02913700632010025DT67590675900000002881800888800000010180088824001193027900013000189012720230000000142602723000000000172271435546XXXXXX6856       VK04VS111111111   NYV1 A E463027687913571N840000000001426XWZF00    05DNHAPPY HIPPIE             112143    VD84000000001426 N  549976487158                            000000000+                F DF 10439                     000000000  Y000000000 331   0000000000000.00 0000000.00   0000000.00                             000000000000000                                                                                                                                                     01418 F000000000000 0000000000000.23     00050 02200                  
02913710632010026DT67590675900000002881800888800000010180088824001193027900013000197012720230000000438802723000000000172271414740XXXXXX8108       VS11    0001111   NYV1 A E583027690269700N8400000000043888SWW00    07DNHAPPY HIPPIE             00813D    VS84000000004388 N  549976487158                            000000000+                D CD 12113                     000000000  N000000000 499   0000000000000.00 0000000.00   0000000.00                             000000000000000                                                                                                                                                     01418 A000000000000 0000000000001.02     02100 01000                  
02913720632010027DT67590675900000002881800888800000010180088824001193027900013000205012720230000000274302723000000000172271476516XXXXXX1956       VS11    0001111   NYV1 A E383027698009694N840000000002743JM8G00    05DNHAPPY HIPPIE             227496    VD84000000002743 N  549976487158                            000000000+                F DF 00381                     000000000  N000000000       0000000000000.00 0000000.00   0000000.00                             000000000000000                                                                                                                                                     01418 A000000000000 0000000000000.37     00800 01500                  
02913730632010028DT67590675900000002881800888800000010180088824001193027900013000213012720230000000362102723000000000172271427178XXXXXX1139       VS11    0001111   NYV1 A E383027703225728N840000000003621KHB500    07DNHAPPY HIPPIE             086063    VD84000000003621 N  549976487158                            000000000+                F DF 10433                     000000000  Y000000000 338   0000000000000.00 0000000.00   0000000.00                             000000000000000                                                                                                                                                     01418 A000000000000 0000000000000.24     00050 02200                  
02913740632010029DT67590675900000002881800888800000010180088824001193027900013000221012720230000000250102723000000000172271445101XXXXXX1443       VS11    0001111   NYV1 A E463027707303153N8400000000025012B4800    05DNHAPPY HIPPIE             497819    VD84000000002501 N  549976487158                            000000000+                F DF 10433                     000000000  Y000000000 338   0000000000000.00 0000000.00   0000000.00                             000000000000000                                                                                                                                                     01418 A000000000000 0000000000000.23     00050 02200                  
02913750632010030DT67590675900000002881800888800000010180088824001193027900013000239012720230000000325802723000000000172271480639XXXXXX1655       VS11    0001111   NYV1 A E583027707795052N840000000003258S26Q00    05DNHAPPY HIPPIE             748930    VD84000000003258 N  549976487158                            000000000+                F DF 00381                     000000000  N000000000       0000000000000.00 0000000.00   0000000.00                             000000000000000                                                                                                                                                     01418 A000000000000 0000000000000.41     00800 01500                  
02913760632010031DT67590675900000002881800888800000010180088824001193027900013000247012720230000000325802723000000000172271422921XXXXXX4895       VS11    0001111   NYV1 A E583027735419637N840000000003258V9N200    05DNHAPPY HIPPIE             055542    VD84000000003258 N  549976487158                            000000000+                F DF 00381                     000000000  N000000000       0000000000000.00 0000000.00   0000000.00                             000000000000000                                                                                                                                                     01418 A000000000000 0000000000000.41     00800 01500                  
02913770632010032DT67590675900000002881800888800000010180088824001193027900013000254012720230000000515702723000000000172271486895XXXXXX8824       VS11    0001111   NYV1 A E583027736855452N840000000005157GP4Z00    05DNHAPPY HIPPIE             04178B    VS84000000005157 N  549976487158                            000000000+                B CB 12111                     000000000  N000000000 495   0000000000000.00 0000000.00   0000000.00                             000000000000000                                                                                                                                                     01418 A000000000000 0000000000000.95     01650 01000                  
02913780632010033DT67590675900000002881800888800000010180088824001193027900013000262012720230000000548802723000000000172271480639XXXXXX6147       VS11    0001111   NYV1 A E463027743246203N840000000005488J85V00    05DNHAPPY HIPPIE             750868    VD84000000005488 N  549976487158                            000000000+                F DF 00381                     000000000  N000000000       0000000000000.00 0000000.00   0000000.00                             000000000000000                                                                                                                                                     01418 A000000000000 0000000000000.59     00800 01500                  
02913790632010034DT67590675900000002881800888800000010180088824001193027900013000270012720230000000691302723000000000172271415978XXXXXX1455       VS11    0001111   NYV1 A E303027748392970N840000000006913KZSS00    05DNHAPPY HIPPIE             005305    VD84000000006913 N  549976487158                            000000000+                F DF 10433                     000000000  Y000000000 338   0000000000000.00 0000000.00   0000000.00                             000000000000000                                                                                                                                                     01418 A000000000000 0000000000000.25     00050 02200                  
02913800632010035DT67590675900000002881800888800000010180088824001193027900013000288012720230000001580002723000000000172271461608XXXXXX1580       VS11    0001111   NYV1 A E583027752316607N840000000015800HPP800    05DNHAPPY HIPPIE             35172D    VS84000000015800 N  549976487158                            000000000+                D CD 12113                     000000000  N000000000 499   0000000000000.00 0000000.00   0000000.00                             000000000000000                                                                                                                                                     01418 A000000000000 0000000000003.42     02100 01000                  
02913810632010036DT67590675900000002881800888800000010180088824001193027900013000296012720230000001667502723000000000172271419090XXXXXX9527       VS11    0001111   NYV1 A E383027754424338N84000000001667597Z300    05DNHAPPY HIPPIE             090405    VD84000000016675 N  549976487158                            000000000+                F DF 00381                     000000000  N000000000       0000000000000.00 0000000.00   0000000.00                             000000000000000                                                                                                                                                     01418 A000000000000 0000000000001.48     00800 01500                  
02913820632010037DT67590675900000002881800888800000010180088824001193027900013000304012720230000000492102723000000000172271443238XXXXXX6669       VS11    0001111   NYV1 A E583027755783074N840000000004921D87F00    07DNHAPPY HIPPIE             055938    VD84000000004921 N  549976487158                            000000000+                F DF 00381                     000000000  N000000000       0000000000000.00 0000000.00   0000000.00                             000000000000000                                                                                                                                                     01418 A000000000000 0000000000000.54     00800 01500                  
02913830632010038DT67590675900000002881800888800000010180088877287283027900013000314012720230000000395002723000000000172271511953XXXXXX9825       MS02WI09          NY 1 0 AMDJNAVGVE0127  N840000000003950          05DNHAPPY HIPPIE             063723    MD84000000003950 N  549976487158                            000000000+M10101C5434C    MDJ  00402                     000000000  N                0000000000000.00 0000000.00   0000000.00                             000000000000000                                                                                                                                                   B101418  000000000000 0000000000000.56     01050 01500                  
02913840632010039DT67590675900000002881800888800000010180088824001193027900013000320012720230000000207402723000000000172271415978XXXXXX0021       VS11    0001111   NYV1 A E303027778655996N840000000002074QL8900    07DNHAPPY HIPPIE             076022    VD84000000002074 N  549976487158                            000000000+                F DF 10433                     000000000  Y000000000 338   0000000000000.00 0000000.00   0000000.00                             000000000000000                                                                                                                                                     01418 A000000000000 0000000000000.23     00050 02200                  
02913850632010040DT67590675900000002881800888800000010180088877287283027900013000330012720230000000877802723000000000172271545958XXXXXX1103       MS02WI09          NY 2 0 AMDJN1R4VE0127  N840000000008778          05DNHAPPY HIPPIE             054236    MD84000000008778 N  549976487158                            000000000+M10101C1334C    MDJ  10815                     000000000  1                0000000000000.00 0000000.00   0000000.00                             000000000000000                                                                                                                                                   B101418  000000000000 0000000000000.26     00050 02200                  
02913860632010041DT67590675900000002881800888800000010180088824001193027900013000346012720230000000395002723000000000172271480639XXXXXX7642       VS11    0001111   NYV1 A E583027784215829N8400000000039509CP200    05DNHAPPY HIPPIE             753077    VD84000000003950 N  549976487158                            000000000+                F DF 00381                     000000000  N000000000       0000000000000.00 0000000.00   0000000.00                             000000000000000                                                                                                                                                     01418 A000000000000 0000000000000.47     00800 01500                  
02913870632010042DT67590675900000002881800888800000010180088877287283027900013000355012720230000000158002723000000000172271537664XXXXXX7357       MS02WI09          NY 1 0 AMPASA0UHP0127  N840000000001580          90DNHAPPY HIPPIE             000178    MD84000000001580 N  549976487158                            000000000+M10101B5434C    MPA  11964                     000000000  N                0000000000000.00 0000000.00   0000000.00                             000000000000000                                                                                                                                                   C101418  000000000000 0000000000000.33     01150 01500                  
02913880632010043BH6759067590000000215480088880000090170127202302723000000000228969    0000090001939405N8008886759C01292023                                                                                                                                                                                                                                                                                                                                                                                                                                                                                                                                                                                                 
02913890632010044DT67590675900000002154800888800000010180088824001193027900019306754012720230000018725402723000000000228969433993XXXXXX7007               2111111   NYV4 A7W303027688840550N8400000001872545B6900    01DNDRIP DROP DISTRO LLC     08837G    VB84000000187254 NP1519971004114   17364                    000000000+                G5CG511887                     000000000  N000000000 163   0000000000000.00 0000000.00   0000000.00                             000000000000000                                                                                                                                                     01418 G000000187254 0000000000056.28     03000 01000                  
02913900632010001P16759067590000000215480088880000001010000000000000000    43901265919              2000000000000000000000000              000000000000                    0000000000000000000000000                    000000000000                                                                                                                                                                                                                                                                                                                                                                                                                                                                                        
02913910632010045DT67590675900000002154800888800000010180088887287283027900019394058012720230000004171502723000000000228969557158XXXXXX5866                         NY 4607AMDBVM1TVB0127  N840000000041715          81DNDRIP DROP DISTRO LLC     669699    MD84000000041715 NP1519900000001   17365                    000000000+600450S00140    MDB  00062                     000000000  N                0000000000000.00 0000000.00   0000000.00                             000000000000000                                                                                                                                                   U001418  000000000000 0000000000011.15     02650 01000                  
02913920632010001P1675906759000000021548008888000000101                                                          000000000000          8000            471534935                                                                                                                                                                                                                                                                                                                                                                                                                                                                                                                                                            
02913930632010046BH6759067590000000096880088880000090170127202302723000000000027150    0000090001302361N8008886759C01292023                                                                                                                                                                                                                                                                                                                                                                                                                                                                                                                                                                                                 
02913940632010047DT67590675900000000968800888800000010180088887287283027900013023612012720230000002715002723000000000027150515676XXXXXX6824       ME03KE06MS02      NY 4607AMWEDUMDVC0127  N840000000027150          81DNHIGHER FLOUR LLC         03454Z    MC84000000027150 N  546200000001   rLlDo2nUsLnPoSkN2ttq     000000000+600450S00140    MWE  00737                     000000000  N                0000000000000.00 0000000.00   0000000.00                             000000000000000                                                                                                                                                   U001418  000000000000 0000000000007.16     02600 01000                  
