02792820317290002BH6759067590000000370780088880000090170113202301323000000000080696    0000090001160122Y8008886759C01162023                                                                                                                                                                                                                                                                                                                                                                                                                                                                                                                                                                                                 
02792830317290003DT67590675900000003707800888800000010180088824001193013900011601075011220230000001600001323000000000080696414720XXXXXX4847               2111111   NYV4 A7W303013045755562N840000000016000QXV700    01DNMR HEMP FLOWER           08460D    VS84000000016000 NP1549976053336   84151                    000000000+                D CD 12109                     000000000  N000000000 498   0000000000000.00 0000000.00   0000000.00                             000000000000000                                                                                                                                                     01424 G000000016000 0000000000004.10     02500 01000                  
02792840317290001P16759067590000000370780088880000001010000000000000000                             2000000000000000000000000              000000000000                    0000000000000000000000000                    000000000000                                                                                                                                                                                                                                                                                                                                                                                                                                                                                        
02792850317290004DT67590675900000003707800888800000010180088824001193013900011601083011320230000000649901323000000000080696440393XXXXXX0162               2111111   NYV4 A7W383013447256873N84000000000649995MJ00    01DNMR HEMP FLOWER           487948    VD84000000006499 NP1549976053336   84161                    000000000+                F PF 08175                     000000000  N000000000       0000000000000.00 0000000.00   0000000.00                             000000000000000                                                                                                                                                     01424 G000000006499 0000000000001.34     01750 02000                  
02792860317290001P16759067590000000370780088880000001010000000000000000                             2000000000000000000000000              000000000000                    0000000000000000000000000                    000000000000                                                                                                                                                                                                                                                                                                                                                                                                                                                                                        
02792870317290005DT67590675900000003707800888800000010180088887287283013900011601092011320230000001339801323000000000080696530706XXXXXX3343       ME03KE06MS02      NY 4607AMPAQ0IG920113  N840000000013398          81DNMR HEMP FLOWER           264449    MD84000000013398 N  549976053336   84162                    000000000+600450S00130    MPA  09899                     000000000  N                0000000000000.00 0000000.00   0000000.00                             000000000000000                                                                                                                                                   U001424  000000000000 0000000000002.56     01760 02000                  
02792880317290006DT67590675900000003707800888800000010180088887287283013900011601100011320230000000199901323000000000080696517546XXXXXX2883       ME03KE06MS02      NY 4607AMDJJWWBTV0113  N840000000001999          81DNMR HEMP FLOWER           013995    MD84000000001999 N  549976053336   84174                    000000000+600450S00130    MDJ  10813                     000000000  1                0000000000000.00 0000000.00   0000000.00                             000000000000000                                                                                                                                                   U001424  000000000000 0000000000000.23     00050 02200                  
02792890317290007DT67590675900000003707800888800000010180088824001193013900011601117011320230000000449901323000000000080696419002XXXXXX7742               2111111   NYV4 A7W303013597617996N8400000000044993G8800    01DNMR HEMP FLOWER           011181    VD84000000004499 NP1549976053336   84175                    000000000+                F DF 10420                     000000000  Y000000000 338   0000000000000.00 0000000.00   0000000.00                             000000000000000                                                                                                                                                     01424 G000000004499 0000000000000.24     00050 02200                  
02792900317290001P16759067590000000370780088880000001010000000000000000                             2000000000000000000000000              000000000000                    0000000000000000000000000                    000000000000                                                                                                                                                                                                                                                                                                                                                                                                                                                                                        
02792910317290008DT67590675900000003707800888800000010180088887287283013900011601134011320230000001278001323000000000080696517805XXXXXX2850       ME03KE06MS02      NY 4607AMPLPPX3WN0113  N840000000012780          81DNMR HEMP FLOWER           01785B    MC84000000012780 N  549976053336   84184                    000000000+600450S00130    MPL  00580                     000000000  N                0000000000000.00 0000000.00   0000000.00                             000000000000000                                                                                                                                                   U001424  000000000000 0000000000002.78     02100 01000                  
02792920317290009DT67590675900000003707800888800000010180088824001193013900011601141011320230000000852301323000000000080696414720XXXXXX9050               2111111   NYV4 A7W583013696592386N840000000008523X2LG00    01DNMR HEMP FLOWER           01786C    VS84000000008523 NP1549976053336   84185                    000000000+                C CC 12108                     000000000  N000000000 496   0000000000000.00 0000000.00   0000000.00                             000000000000000                                                                                                                                                     01424 G000000008523 0000000000001.85     02050 01000                  
02792930317290001P16759067590000000370780088880000001010000000000000000                             2000000000000000000000000              000000000000                    0000000000000000000000000                    000000000000                                                                                                                                                                                                                                                                                                                                                                                                                                                                                        
02792940317290010DT67590675900000003707800888800000010180088876509753013900011601180011320230000000649901323000000000080696601101XXXXXX4269   BA00                  NY 4 07N863011068180806N840000000006499    00    01DNMR HEMP FLOWER           01398B    DZ84000000006499 N  549976053336070                         000000000+1015104910600   DMCDI01012000063  182658000000 000000000  0          124   0000000000000.00 0000000.00   0000000.00                             000000000000000                                                                                                                                                     01424  000000000000 0000000000001.74     02450 01500                  
02792950317290011DT67590675900000003707800888800000010180088824001193013900011601224011320230000001049901323000000000080696414720XXXXXX2762               2111111   NYV4 A7W463014028305761N840000000010499ZQNJ00    01DNMR HEMP FLOWER           01311I    VS84000000010499 NP1549976053336   84208                    000000000+                I CI 12109                     000000000  N000000000 498   0000000000000.00 0000000.00   0000000.00                             000000000000000                                                                                                                                                     01424 G000000010499 0000000000002.72     02500 01000                  
02792960317290001P16759067590000000370780088880000001010000000000000000                             2000000000000000000000000              000000000000                    0000000000000000000000000                    000000000000                                                                                                                                                                                                                                                                                                                                                                                                                                                                                        
02792970330750002BH6759067590000000215480088880000090170115202301523000000000171225    0000090001821142N8008886759C01162023                                                                                                                                                                                                                                                                                                                                                                                                                                                                                                                                                                                                 
02792980330750003DT67590675900000002154800888800000010180088824001193015900018223319011420230000004377501523000000000171225433993XXXXXX7007               2111111   NYV4 A7W383013847904785N840000000043775ZCGC00    01DNDRIP DROP DISTRO LLC     06196G    VB84000000043775 NP1519971004114   17257                    000000000+                G5CG511887                     000000000  N000000000 163   0000000000000.00 0000000.00   0000000.00                             000000000000000                                                                                                                                                     01418 G000000043775 0000000000013.23     03000 01000                  
02792990330750001P16759067590000000215480088880000001010000000000000000    43876724126              2000000000000000000000000              000000000000                    0000000000000000000000000                    000000000000                                                                                                                                                                                                                                                                                                                                                                                                                                                                                        
02793000330750004DT67590675900000002154800888800000010180088824001193015900018211421011420230000012745001523000000000171225423884XXXXXX3564               2111111   NYV4 A7W463013837396552N840000000127450SZG900    01DNDRIP DROP DISTRO LLC     339375    VD84000000127450 NP1519971004114   INV-000227               000000000+                G DG 10352                     000000000  Y000000000 338   0000000000000.00 0000000.00   0000000.00                             000000000000000                                                                                                                                                     01418 G000000127450 0000000000000.86     00050 02200                  
02793010330750001P16759067590000000215480088880000001010000000000000000    43876696291              2000000000000000000000000              000000000000                    0000000000000000000000000                    000000000000                                                                                                                                                                                                                                                                                                                                                                                                                                                                                        
02793020330750005BH6759067590000000288180088880000090170115202301523000000000003098    0000090001410090N8008886759C01162023                                                                                                                                                                                                                                                                                                                                                                                                                                                                                                                                                                                                 
02793030330750006DT67590675900000002881800888800000010180088873011003015900014100905011420230000000309801523000000000003098371334XXXXX4008                          NY 4 07N004307531406309N840000000003098          01DNHAPPY HIPPIE             191492    AM84000000003098 N  549976044904                            000000000+6004S0000130 258     11261                     000000000                   0000000000000.00 0000000.00   0000000.00                             000000000000000 61248972086759675900000002881 HAPPY HIPPIE             832 PARKWAY              8656540830      37862     HAPPYHIPPIE832@GMAIL.COM                  01418  000000000000 0000000000000.60     01600 00000                  
02793040330750007BH6759067590000000370780088880000090170115202301523000000000039693    0000090001170128N8008886759C01162023                                                                                                                                                                                                                                                                                                                                                                                                                                                                                                                                                                                                 
02793050330750008DT67590675900000003707800888800000010180088824001193015900011701238011320230000000499701523000000000039693402348XXXXXX7594               2111111   NYV4 A7W383014197090927N84000000000499794X600    01DNMR HEMP FLOWER           22829B    VS84000000004997 NP1549976053336   84220                    000000000+                B CB 12107                     000000000  N000000000 494   0000000000000.00 0000000.00   0000000.00                             000000000000000                                                                                                                                                     01418 G000000004997 0000000000001.12     02040 01000                  
02793060330750001P16759067590000000370780088880000001010000000000000000                             2000000000000000000000000              000000000000                    0000000000000000000000000                    000000000000                                                                                                                                                                                                                                                                                                                                                                                                                                                                                        
02793070330750009DT67590675900000003707800888800000010180088824001193015900011701246011320230000000299701523000000000039693473702XXXXXX5262               2111111   NYV4 A7W463014207186444N840000000002997LVB600    01DNMR HEMP FLOWER           006522    VD84000000002997 NP1549976053336   84221                    000000000+                F DF 10420                     000000000  Y000000000 338   0000000000000.00 0000000.00   0000000.00                             000000000000000                                                                                                                                                     01418 G000000002997 0000000000000.23     00050 02200                  
02793080330750001P16759067590000000370780088880000001010000000000000000                             2000000000000000000000000              000000000000                    0000000000000000000000000                    000000000000                                                                                                                                                                                                                                                                                                                                                                                                                                                                                        
02793090330750010DT67590675900000003707800888800000010180088887287283014900011701263011420230000000569901523000000000039693517805XXXXXX0781       ME03KE06MS02      NY 4607AMPLUMR3BO0114  N840000000005699          81DNMR HEMP FLOWER           04748B    MC84000000005699 N  549976053336   84233                    000000000+600450S00130    MPL  00580                     000000000  N                0000000000000.00 0000000.00   0000000.00                             000000000000000                                                                                                                                                   U001418  000000000000 0000000000001.30     02100 01000                  
02793100330750011DT67590675900000003707800888800000010180088824001193015900011701287011420230000002600001523000000000039693473703XXXXXX5469               2111111   NYV4 A7W303014666546581N84000000002600093P600    01DNMR HEMP FLOWER           010025    VD84000000026000 NP1549976053336   84243                    000000000+                F DF 10420                     000000000  Y000000000 338   0000000000000.00 0000000.00   0000000.00                             000000000000000                                                                                                                                                     01418 G000000026000 0000000000000.35     00050 02200                  
02793110330750001P16759067590000000370780088880000001010000000000000000                             2000000000000000000000000              000000000000                    0000000000000000000000000                    000000000000                                                                                                                                                                                                                                                                                                                                                                                                                                                                                        
02793120346610002BH6759067590000000288180088880000090170115202301523000000000088718    0000090001190016N8008886759C01162023                                                                                                                                                                                                                                                                                                                                                                                                                                                                                                                                                                                                 
02793130346610003DT67590675900000002881800888800000010180088824001193015900011900012011520230000000651701523000000000088718443264XXXXXX6212       VS11    0001111   NYV1 A E383015544244246N840000000006517FVBW00    05DNHAPPY HIPPIE             012026    VD84000000006517 N  549976487158                            000000000+                F DF 10433                     000000000  Y000000000 338   0000000000000.00 0000000.00   0000000.00                             000000000000000                                                                                                                                                     01418 A000000000000 0000000000000.25     00050 02200                  
02793140346610004DT67590675900000002881800888800000010180088824001193015900011900020011520230000000216101523000000000088718415978XXXXXX3184       VS11    0001111   NYV1 A E303015554131188N840000000002161KW3X00    05DNHAPPY HIPPIE             090169    VD84000000002161 N  549976487158                            000000000+                F DF 10433                     000000000  Y000000000 338   0000000000000.00 0000000.00   0000000.00                             000000000000000                                                                                                                                                     01418 A000000000000 0000000000000.23     00050 02200                  
02793150346610005DT67590675900000002881800888800000010180088824001193015900011900038011520230000000395101523000000000088718422921XXXXXX6466       VS11    0001111   NYV1 A E583015602130663N840000000003951225R00    07DNHAPPY HIPPIE             042214    VD84000000003951 N  549976487158                            000000000+                F DF 00381                     000000000  N000000000       0000000000000.00 0000000.00   0000000.00                             000000000000000                                                                                                                                                     01418 A000000000000 0000000000000.47     00800 01500                  
02793160346610006DT67590675900000002881800888800000010180088877287283015900011900048011520230000000987201523000000000088718543703XXXXXX0629       MS02WI09          NY 1 0 AMWEGYJ56Y0115  N840000000009872          05DNHAPPY HIPPIE             85195Z    MC84000000009872 N  549976487158                            000000000+M10101C5434C    MWE  00743                     000000000  N                0000000000000.00 0000000.00   0000000.00                             000000000000000                                                                                                                                                   B101418  000000000000 0000000000002.31     02300 00400                  
02793170346610007DT67590675900000002881800888800000010180088876509753015900011900051011520230000000395001523000000000088718601120XXXXXX3706   BA50                  NY41 0 N743012543940453N840000000003950    00    05DNHAPPY HIPPIE             01513B    DZ84000000003950 N  549976487158050                         000000000+0000004910H00   DMCDI01012001066  102634000000 000000000  0          124   0000000000000.00 0000000.00   0000000.00                             000000000000000                                                                                                                                                     01418  000000000000 0000000000001.12     02450 01500                  
02793180346610008DT67590675900000002881800888800000010180088824001193015900011900061011520230000000058901523000000000088718480639XXXXXX0512       VK04VS111111111   NYV1 A E303015641584600N840000000000589XWTM00    05DNHAPPY HIPPIE             474485    VD84000000000589 N  549976487158                            000000000+                F DF 00451                     000000000  N000000000 214   0000000000000.00 0000000.00   0000000.00                             000000000000000                                                                                                                                                     01418 F000000000000 0000000000000.13     01550 00400                  
02793190346610009DT67590675900000002881800888800000010180088824001193015900011900079011520230000000237101523000000000088718498503XXXXXX9797       VS11    0001111   NYV1 A E303015644978362N840000000002371LGH200    05DNHAPPY HIPPIE             032700    VD84000000002371 N  549976487158                            000000000+                F DF 00381                     000000000  N000000000       0000000000000.00 0000000.00   0000000.00                             000000000000000                                                                                                                                                     01418 A000000000000 0000000000000.34     00800 01500                  
02793200346610010DT67590675900000002881800888800000010180088824001193015900011900087011520230000000888801523000000000088718422921XXXXXX6692       VS11    0001111   NYV1 A E583015646761448N84000000000888897SV00    05DNHAPPY HIPPIE             046677    VD84000000008888 N  549976487158                            000000000+                F DF 00381                     000000000  N000000000       0000000000000.00 0000000.00   0000000.00                             000000000000000                                                                                                                                                     01418 A000000000000 0000000000000.86     00800 01500                  
02793210346610011DT67590675900000002881800888800000010180088824001193015900011900095011520230000001875401523000000000088718480639XXXXXX3658       VS11    0001111   NYV1 A E383015672042108N8400000000187542R6700    05DNHAPPY HIPPIE             475925    VD84000000018754 N  549976487158                            000000000+                F DF 00381                     000000000  N000000000       0000000000000.00 0000000.00   0000000.00                             000000000000000                                                                                                                                                     01418 A000000000000 0000000000001.65     00800 01500                  
02793220346610012DT67590675900000002881800888800000010180088824001193015900011900103011520230000000296201523000000000088718498503XXXXXX6779       VS11    0001111   NYV1 A E463015687332539N840000000002962V3PQ00    05DNHAPPY HIPPIE             025506    VD84000000002962 N  549976487158                            000000000+                F DF 00381                     000000000  N000000000       0000000000000.00 0000000.00   0000000.00                             000000000000000                                                                                                                                                     01418 A000000000000 0000000000000.39     00800 01500                  
02793230346610013DT67590675900000002881800888800000010180088877287283015900011900113011520230000001292601523000000000088718544544XXXXXX6270       MS02WI09          NY 1 0 AMPMK4UG6Y0115  N840000000012926          90DNHAPPY HIPPIE             015711    MD84000000012926 N  549976487158                            000000000+M10101B5434C    MPM  11964                     000000000  N                0000000000000.00 0000000.00   0000000.00                             000000000000000                                                                                                                                                   C101418  000000000000 0000000000001.64     01150 01500                  
02793240346610014DT67590675900000002881800888800000010180088877287283015900011900121011520230000000148101523000000000088718548974XXXXXX2406       MS02WI09          NY 1 0 AMPAU6SE3F0115  N840000000001481          07DNHAPPY HIPPIE             039989    MD84000000001481 N  549976487158                            000000000+M10101M0034C    MPA  00505                     000000000  N                0000000000000.00 0000000.00   0000000.00                             000000000000000                                                                                                                                                   A101418  000000000000 0000000000000.27     01550 00400                  
02793250346610015DT67590675900000002881800888800000010180088824001193015900011900137011520230000000395001523000000000088718406032XXXXXX7138       VS11    0001111   NYV1 A E583015786412620N840000000003950HDLZ00    05DNHAPPY HIPPIE             015016    VD84000000003950 N  549976487158                            000000000+                F DF 10433                     000000000  Y000000000 338   0000000000000.00 0000000.00   0000000.00                             000000000000000                                                                                                                                                     01418 A000000000000 0000000000000.24     00050 02200                  
02793260346610016DT67590675900000002881800888800000010180088824001193015900011900145011520230000000165601523000000000088718429136XXXXXX3315       VS11    0001111   NYV1 A E383015789962534N8400000000016565WMG00    05DNHAPPY HIPPIE             165636    VD84000000001656 N  549976487158                            000000000+                F DF 00381                     000000000  N000000000       0000000000000.00 0000000.00   0000000.00                             000000000000000                                                                                                                                                     01418 A000000000000 0000000000000.28     00800 01500                  
02793270346610017DT67590675900000002881800888800000010180088824001193015900011900152011520230000000079001523000000000088718422921XXXXXX1677       VK04VS111111111   NYV1 A E303015801407571N840000000000790V89N00    05DNHAPPY HIPPIE             062142    VD84000000000790 N  549976487158                            000000000+                F DF 00451                     000000000  N000000000 214   0000000000000.00 0000000.00   0000000.00                             000000000000000                                                                                                                                                     01418 F000000000000 0000000000000.16     01550 00400                  
02793280346610018DT67590675900000002881800888800000010180088824001193015900011900160011520230000000790001523000000000088718445101XXXXXX8489       VS11    0001111   NYV1 A E303015807040242N840000000007900M8MW00    05DNHAPPY HIPPIE             034784    VD84000000007900 N  549976487158                            000000000+                F DF 10433                     000000000  Y000000000 338   0000000000000.00 0000000.00   0000000.00                             000000000000000                                                                                                                                                     01418 A000000000000 0000000000000.26     00050 02200                  
02793290346610019BH6759067590000000288180088880000090170115202301523000000000077893    0000090001190020N8008886759C01162023                                                                                                                                                                                                                                                                                                                                                                                                                                                                                                                                                                                                 
02793300346610020DT67590675900000002881800888800000010180088824001193015900011900012011520230000000017301523000000000077893491523XXXXXX7823       VK04VS111111111   NYV1 A E463015584580995N840000000000173DFBG00    07DNHAPPY HIPPIE             000310    VD84000000000173 N  549976487134                            000000000+                F DF 10439                     000000000  Y000000000 331   0000000000000.00 0000000.00   0000000.00                             000000000000000                                                                                                                                                     01418 F000000000000 0000000000000.22     00050 02200                  
02793310346610021DT67590675900000002881800888800000010180088824001193015900011900020011520230000001677701523000000000077893415978XXXXXX7833       VS11    0001111   NYV1 A E463015597099051N840000000016777HZKD00    05DNHAPPY HIPPIE             059253    VD84000000016777 N  549976487134                            000000000+                F DF 10433                     000000000  Y000000000 338   0000000000000.00 0000000.00   0000000.00                             000000000000000                                                                                                                                                     01418 A000000000000 0000000000000.30     00050 02200                  
02793320346610022DT67590675900000002881800888800000010180088824001193015900011900038011520230000000197401523000000000077893440393XXXXXX5388       VS11    0001111   NYV1 A E583015621367702N840000000001974ZVZF00    05DNHAPPY HIPPIE             240263    VD84000000001974 N  549976487134                            000000000+                F PF 08170                     000000000  N000000000       0000000000000.00 0000000.00   0000000.00                             000000000000000                                                                                                                                                     01418 A000000000000 0000000000000.38     01150 01500                  
02793330346610023DT67590675900000002881800888800000010180088824001193015900011900046011520230000000167801523000000000077893414398XXXXXX6363       VS11    0001111   NYV1 A E583015623906575N840000000001678G26X00    05DNHAPPY HIPPIE             746410    VD84000000001678 N  549976487134                            000000000+                F DF 00381                     000000000  N000000000       0000000000000.00 0000000.00   0000000.00                             000000000000000                                                                                                                                                     01418 A000000000000 0000000000000.28     00800 01500                  
02793340346610024DT67590675900000002881800888800000010180088824001193015900011900053011520230000000691301523000000000077893449507XXXXXX6597       VS11    0001111   NYV1 A E463015627969959N840000000006913LSKW00    05DNHAPPY HIPPIE             022636    VD84000000006913 N  549976487134                            000000000+                F DF 00381                     000000000  N000000000       0000000000000.00 0000000.00   0000000.00                             000000000000000                                                                                                                                                     01418 A000000000000 0000000000000.70     00800 01500                  
02793350346610025DT67590675900000002881800888800000010180088824001193015900011900061011520230000000158001523000000000077893419090XXXXXX5725       VS11    0001111   NYV1 A E303015647320818N840000000001580RL4200    05DNHAPPY HIPPIE             768607    VD84000000001580 N  549976487134                            000000000+                F DF 00381                     000000000  N000000000       0000000000000.00 0000000.00   0000000.00                             000000000000000                                                                                                                                                     01418 A000000000000 0000000000000.28     00800 01500                  
02793360346610026DT67590675900000002881800888800000010180088824001193015900011900079011520230000000768301523000000000077893443238XXXXXX8270       VS11    0001111   NYV1 A E583015660418977N840000000007683547200    05DNHAPPY HIPPIE             032041    VD84000000007683 N  549976487134                            000000000+                F DF 00381                     000000000  N000000000       0000000000000.00 0000000.00   0000000.00                             000000000000000                                                                                                                                                     01418 A000000000000 0000000000000.76     00800 01500                  
02793370346610027DT67590675900000002881800888800000010180088824001193015900011900087011520230000000790001523000000000077893474487XXXXXX1417       VS11    0001111   NYV1 A E463015673568474N840000000007900572600    05DNHAPPY HIPPIE             104627    VD84000000007900 N  549976487134                            000000000+                F DF 10433                     000000000  Y000000000 338   0000000000000.00 0000000.00   0000000.00                             000000000000000                                                                                                                                                     01418 A000000000000 0000000000000.26     00050 02200                  
02793380346610028DT67590675900000002881800888800000010180088877287283015900011900097011520230000000375201523000000000077893543362XXXXXX8559       MS02WI09          NY 1 0 AMCSKHQP7O0115  N840000000003752          05DNHAPPY HIPPIE             015928    MC84000000003752 N  549976487134                            000000000+M10101C5434C    MCS  00043                     000000000  N                0000000000000.00 0000000.00   0000000.00                             000000000000000                                                                                                                                                   B101418  000000000000 0000000000000.66     01650 00400                  
02793390346610029DT67590675900000002881800888800000010180088877287283015900011900105011520230000000385101523000000000077893511953XXXXXX9431       MS02WI09          NY 1 0 AMDJJ6K73F0115  N840000000003851          05DNHAPPY HIPPIE             082625    MD84000000003851 N  549976487134                            000000000+M10101C5434C    MDJ  00402                     000000000  N                0000000000000.00 0000000.00   0000000.00                             000000000000000                                                                                                                                                   B101418  000000000000 0000000000000.55     01050 01500                  
02793400346610030DT67590675900000002881800888800000010180088824001193015900011900111011520230000000276101523000000000077893419090XXXXXX5693       VS11    0001111   NYV1 A E303015733017412N840000000002761CS5V00    05DNHAPPY HIPPIE             772739    VD84000000002761 N  549976487134                            000000000+                F DF 00381                     000000000  N000000000       0000000000000.00 0000000.00   0000000.00                             000000000000000                                                                                                                                                     01418 A000000000000 0000000000000.37     00800 01500                  
02793410346610031DT67590675900000002881800888800000010180088824001193015900011900129011520230000000079001523000000000077893415978XXXXXX6979       VK04VS111111111   NYV1 A E583015753130754N84000000000079057ML00    05DNHAPPY HIPPIE             059677    VD84000000000790 N  549976487134                            000000000+                F DF 10439                     000000000  Y000000000 331   0000000000000.00 0000000.00   0000000.00                             000000000000000                                                                                                                                                     01418 F000000000000 0000000000000.22     00050 02200                  
02793420346610032DT67590675900000002881800888800000010180088824001193015900011900137011520230000000158001523000000000077893480639XXXXXX7661       VS11    0001111   NYV1 A E463015754699313N8400000000015807ZXP00    05DNHAPPY HIPPIE             479541    VD84000000001580 N  549976487134                            000000000+                F DF 00381                     000000000  N000000000       0000000000000.00 0000000.00   0000000.00                             000000000000000                                                                                                                                                     01418 A000000000000 0000000000000.28     00800 01500                  
02793430346610033DT67590675900000002881800888800000010180088824001193015900011900145011520230000000276601523000000000077893445101XXXXXX0323       VS11    0001111   NYV1 A E583015756339039N8400000000027664Z4D00    05DNHAPPY HIPPIE             098331    VD84000000002766 N  549976487134                            000000000+                F DF 10433                     000000000  Y000000000 338   0000000000000.00 0000000.00   0000000.00                             000000000000000                                                                                                                                                     01418 A000000000000 0000000000000.23     00050 02200                  
02793440346610034DT67590675900000002881800888800000010180088824001193015900011900152011520230000000197301523000000000077893421783XXXXXX9591       VS11    0001111   NYV1 A E463015758578055N840000000001973LXZJ00    05DNHAPPY HIPPIE             014555    VS84000000001973 N  549976487134                            000000000+                A CA 12110                     000000000  N000000000 493   0000000000000.00 0000000.00   0000000.00                             000000000000000                                                                                                                                                     01418 A000000000000 0000000000000.40     01510 01000                  
02793450346610035DT67590675900000002881800888800000010180088824001193015900011900160011520230000000098701523000000000077893421783XXXXXX9591       VK04VS111111111   NYV1 A E303015759159592N840000000000987TKVH00    05DNHAPPY HIPPIE             027619    VS84000000000987 N  549976487134                            000000000+                A CA 12053                     000000000  N000000000 450   0000000000000.00 0000000.00   0000000.00                             000000000000000                                                                                                                                                     01418 F000000000000 0000000000000.19     01900 00000                  
02793460346610036DT67590675900000002881800888800000010180088824001193015900011900178011520230000000221601523000000000077893443264XXXXXX5230       VS11    0001111   NYV1 A E383015761685559N840000000002216CKPR00    05DNHAPPY HIPPIE             018461    VD84000000002216 N  549976487134                            000000000+                F DF 10433                     000000000  Y000000000 338   0000000000000.00 0000000.00   0000000.00                             000000000000000                                                                                                                                                     01418 A000000000000 0000000000000.23     00050 02200                  
02793470346610037DT67590675900000002881800888800000010180088877287283015900011900188011520230000000938101523000000000077893517805XXXXXX4285       MS02WI09          NY 1 0 AMWEZJQROJ0115  N840000000009381          05DNHAPPY HIPPIE             00059P    MC84000000009381 N  549976487134                            000000000+M10101C5434C    MWE  00743                     000000000  N                0000000000000.00 0000000.00   0000000.00                             000000000000000                                                                                                                                                   B101418  000000000000 0000000000002.20     02300 00400                  
02793480346610038DT67590675900000002881800888800000010180088824001193015900011900194011520230000000118401523000000000077893415978XXXXXX3096       VK04VS111111111   NYV1 A E583015816438631N840000000001184TQQF00    05DNHAPPY HIPPIE             009589    VD84000000001184 N  549976487134                            000000000+                F DF 10439                     000000000  Y000000000 331   0000000000000.00 0000000.00   0000000.00                             000000000000000                                                                                                                                                     01418 F000000000000 0000000000000.23     00050 02200                  
02793490346610039DT67590675900000002881800888800000010180088824001193015900011900202011520230000000197401523000000000077893473703XXXXXX3208       VS11    0001111   NYV1 A E463015820981794N840000000001974KHN400    05DNHAPPY HIPPIE             016251    VD84000000001974 N  549976487134                            000000000+                F DF 10433                     000000000  Y000000000 338   0000000000000.00 0000000.00   0000000.00                             000000000000000                                                                                                                                                     01418 A000000000000 0000000000000.23     00050 02200                  
02793500346610040BH6759067590000000288180088880000090170115202301523000000000014583    0000090001420092N8008886759C01162023                                                                                                                                                                                                                                                                                                                                                                                                                                                                                                                                                                                                 
02793510346610041DT67590675900000002881800888800000010180088824001193015900014200915011520230000000658401523000000000014583419090XXXXXX2226               2111111   NYV4 A7W383015821007476N8400000000065848WNR00    01DNHAPPY HIPPIE             776684    VD84000000006584 NP1549976044904   1908                     000000000+                F DF 00415                     000000000  N000000000       0000000000000.00 0000000.00   0000000.00                             000000000000000                                                                                                                                                     01418 G000000006584 0000000000001.24     01650 01500                  
02793520346610001P16759067590000000288180088880000001010000000000000000                             2000000000000000000000000              000000000000                    0000000000000000000000000                    000000000000                                                                                                                                                                                                                                                                                                                                                                                                                                                                                        
02793530346610042DT67590675900000002881800888800000010180088887287283015900014200924011520230000000799901523000000000014583529149XXXXXX2698       ME03KE06MS02      NY 4607AMPLCCLYAK0115  N840000000007999          81DNHAPPY HIPPIE             04057B    MC84000000007999 N  549976044904   1909                     000000000+600450S00130    MPL  00580                     000000000  N                0000000000000.00 0000000.00   0000000.00                             000000000000000                                                                                                                                                   U001418  000000000000 0000000000001.78     02100 01000                  
02793540346610043BH6759067590000000370780088880000090170115202301523000000000061151    0000090001180137N8008886759C01162023                                                                                                                                                                                                                                                                                                                                                                                                                                                                                                                                                                                                 
02793550346610044DT67590675900000003707800888800000010180088887287283015900011801294011420230000001499701523000000000061151512230XXXXXX1540       ME03KE06MS02      NY 4607AMWES0E0HM0114  N840000000014997          81DNMR HEMP FLOWER           34902Z    MC84000000014997 N  549976053336   84253                    000000000+600450S00130    MWE  00737                     000000000  N                0000000000000.00 0000000.00   0000000.00                             000000000000000                                                                                                                                                   U001418  000000000000 0000000000004.00     02600 01000                  
02793560346610045DT67590675900000003707800888800000010180088887287283015900011801302011420230000000849901523000000000061151527519XXXXXX6796       ME03KE06MS02      NY 4607AMDJI0QPVL0114  N840000000008499          81DNMR HEMP FLOWER           104604    MD84000000008499 N  549976053336   84254                    000000000+600450S00130    MDJ  10813                     000000000  1                0000000000000.00 0000000.00   0000000.00                             000000000000000                                                                                                                                                   U001418  000000000000 0000000000000.26     00050 02200                  
02793570346610046DT67590675900000003707800888800000010180088887287283015900011801310011520230000000865901523000000000061151518725XXXXXX8153       ME03KE06MS02      NY 4607AMWEPGSO3F0115  N840000000008659          81DNMR HEMP FLOWER           02705Z    MC84000000008659 N  549976053336   84262                    000000000+600450S00130    MWE  00737                     000000000  N                0000000000000.00 0000000.00   0000000.00                             000000000000000                                                                                                                                                   U001418  000000000000 0000000000002.35     02600 01000                  
02793580346610047DT67590675900000003707800888800000010180088824001193015900011801343011520230000000449901523000000000061151419002XXXXXX7742               2111111   NYV4 A7W463015569516270N840000000004499WVWR00    01DNMR HEMP FLOWER           018095    VD84000000004499 NP1549976053336   84263                    000000000+                F DF 10420                     000000000  Y000000000 338   0000000000000.00 0000000.00   0000000.00                             000000000000000                                                                                                                                                     01418 G000000004499 0000000000000.24     00050 02200                  
02793590346610001P16759067590000000370780088880000001010000000000000000                             2000000000000000000000000              000000000000                    0000000000000000000000000                    000000000000                                                                                                                                                                                                                                                                                                                                                                                                                                                                                        
02793600346610048DT67590675900000003707800888800000010180088887287283015900011801351011520230000001749901523000000000061151515676XXXXXX5208       ME03KE06MS02      NY 4607AMWEPVNC3F0115  N840000000017499          81DNMR HEMP FLOWER           08072Z    MC84000000017499 N  549976053336   84264                    000000000+600450S00130    MWE  00737                     000000000  N                0000000000000.00 0000000.00   0000000.00                             000000000000000                                                                                                                                                   U001418  000000000000 0000000000004.65     02600 01000                  
02793610346610049DT67590675900000003707800888800000010180088824001193015900011801368011520230000000249901523000000000061151410039XXXXXX7202               2111111   NYV4 A7W463015733174928N840000000002499CQGX00    01DNMR HEMP FLOWER           00618D    VS84000000002499 NP1549976053336   84277                    000000000+                D CD 12109                     000000000  N000000000 498   0000000000000.00 0000000.00   0000000.00                             000000000000000                                                                                                                                                     01418 G000000002499 0000000000000.72     02500 01000                  
02793620346610001P16759067590000000370780088880000001010000000000000000                             2000000000000000000000000              000000000000                    0000000000000000000000000                    000000000000                                                                                                                                                                                                                                                                                                                                                                                                                                                                                        
02793630346610050DT67590675900000003707800888800000010180088824001193015900011801376011520230000000449901523000000000061151409758XXXXXX4766               2111111   NYV4 A7W303015739760685N840000000004499VM5S00    01DNMR HEMP FLOWER           654036    VD84000000004499 NP1549976053336   84278                    000000000+                F PF 08175                     000000000  N000000000       0000000000000.00 0000000.00   0000000.00                             000000000000000                                                                                                                                                     01418 G000000004499 0000000000000.99     01750 02000                  
02793640346610001P16759067590000000370780088880000001010000000000000000                             2000000000000000000000000              000000000000                    0000000000000000000000000                    000000000000                                                                                                                                                                                                                                                                                                                                                                                                                                                                                        
