01915220579830002BH6759067590000000288180088880000090170125202302523000000000092876    0000090001280018N8008886759C01262023                                                                                                                                                                                                                                                                                                                                                                                                                                                                                                                                                                                                 
01915230579830003DT67590675900000002881800888800000010180088824001193025900012800011012520230000000325802523000000000092876444796XXXXXX6574       VS11    0001111   NYV1 A E583025580306282N840000000003258VCMF00    05DNHAPPY HIPPIE             025345    VS84000000003258 N  549976487134                            000000000+                A CA 12110                     000000000  N000000000 493   0000000000000.00 0000000.00   0000000.00                             000000000000000                                                                                                                                                     01418 A000000000000 0000000000000.59     01510 01000                  
01915240579830004DT67590675900000002881800888800000010180088824001193025900012800029012520230000000944802523000000000092876473702XXXXXX1507       VS11    0001111   NYV1 A E303025583489721N840000000009448VG5Z00    05DNHAPPY HIPPIE             064813    VD84000000009448 N  549976487134                            000000000+                F DF 10433                     000000000  Y000000000 338   0000000000000.00 0000000.00   0000000.00                             000000000000000                                                                                                                                                     01418 A000000000000 0000000000000.27     00050 02200                  
01915250579830005DT67590675900000002881800888800000010180088824001193025900012800037012520230000000790002523000000000092876406042XXXXXX3727       VS11    0001111   NYV1 A E303025591131233N840000000007900TJ6900    07DNHAPPY HIPPIE             042511    VD84000000007900 N  549976487134                            000000000+                F DF 10433                     000000000  Y000000000 338   0000000000000.00 0000000.00   0000000.00                             000000000000000                                                                                                                                                     01418 A000000000000 0000000000000.26     00050 02200                  
01915260579830006DT67590675900000002881800888800000010180088824001193025900012800045012520230000000790002523000000000092876461627XXXXXX2694       VS11    0001111   NYV1 A E463025604465888N840000000007900VDFK00    05DNHAPPY HIPPIE             025468    VD84000000007900 N  549976487134                            000000000+                G DG 08704                     000000000  N000000000       0000000000000.00 0000000.00   0000000.00                             000000000000000                                                                                                                                                     01418 A000000000000 0000000000001.44     01700 01000                  
01915270579830007DT67590675900000002881800888800000010180088824001193025900012800052012520230000000394902523000000000092876415978XXXXXX3281       VS11    0001111   NYV1 A E303025612271213N840000000003949NLKH00    07DNHAPPY HIPPIE             044362    VD84000000003949 N  549976487134                            000000000+                F DF 10433                     000000000  Y000000000 338   0000000000000.00 0000000.00   0000000.00                             000000000000000                                                                                                                                                     01418 A000000000000 0000000000000.24     00050 02200                  
01915280579830008DT67590675900000002881800888800000010180088877287283025900012800062012520230000000372702523000000000092876518941XXXXXX1505       MS02WI09          NY 1 0 AMWEQZCE8V0125  N840000000003727          05DNHAPPY HIPPIE             69161Z    MC84000000003727 N  549976487134                            000000000+M10101C5434C    MWE  00743                     000000000  N                0000000000000.00 0000000.00   0000000.00                             000000000000000                                                                                                                                                   B101418  000000000000 0000000000000.90     02300 00400                  
01915290579830009DT67590675900000002881800888800000010180088824001193025900012800078012520230000000768302523000000000092876449507XXXXXX3418       VS11    0001111   NYV1 A E303025707445949N840000000007683MTDJ00    05DNHAPPY HIPPIE             043905    VD84000000007683 N  549976487134                            000000000+                F DF 00381                     000000000  N000000000       0000000000000.00 0000000.00   0000000.00                             000000000000000                                                                                                                                                     01418 A000000000000 0000000000000.76     00800 01500                  
01915300579830010DT67590675900000002881800888800000010180088877287283025900012800088012520230000000164502523000000000092876548974XXXXXX2406       MS02WI09          NY 1 0 AMPAMXESNS0125  N840000000001645          07DNHAPPY HIPPIE             025726    MD84000000001645 N  549976487134                            000000000+M10101M0034C    MPA  11964                     000000000  N                0000000000000.00 0000000.00   0000000.00                             000000000000000                                                                                                                                                   A101418  000000000000 0000000000000.34     01150 01500                  
01915310579830011DT67590675900000002881800888800000010180088824001193025900012800094012520230000000482702523000000000092876415978XXXXXX2322       VS11    0001111   NYV1 A E383025737886798N840000000004827X24G00    07DNHAPPY HIPPIE             041502    VD84000000004827 N  549976487134                            000000000+                F DF 10433                     000000000  Y000000000 338   0000000000000.00 0000000.00   0000000.00                             000000000000000                                                                                                                                                     01418 A000000000000 0000000000000.24     00050 02200                  
01915320579830012DT67590675900000002881800888800000010180088824001193025900012800102012520230000000131402523000000000092876434769XXXXXX4070       VK04VS111111111   NYV1 A E383025738459788N840000000001314VP2K00    07DNHAPPY HIPPIE             053015    VD84000000001314 N  549976487134                            000000000+                F DF 10439                     000000000  Y000000000 331   0000000000000.00 0000000.00   0000000.00                             000000000000000                                                                                                                                                     01418 F000000000000 0000000000000.23     00050 02200                  
01915330579830013DT67590675900000002881800888800000010180088824001193025900012800110012520230000000683702523000000000092876414709XXXXXX9024       VS11    0001111   NYV1 A E383025739426799N8400000000068376XRL00    05DNHAPPY HIPPIE             06689C    VS84000000006837 N  549976487134                            000000000+                C CC 12112                     000000000  N000000000 497   0000000000000.00 0000000.00   0000000.00                             000000000000000                                                                                                                                                     01418 A000000000000 0000000000001.23     01650 01000                  
01915340579830014DT67590675900000002881800888800000010180088824001193025900012800128012520230000001252202523000000000092876440393XXXXXX5864       VS11    0001111   NYV1 A E303025749967078N840000000012522K2BZ00    05DNHAPPY HIPPIE             199413    VD84000000012522 N  549976487134                            000000000+                F PF 08170                     000000000  N000000000       0000000000000.00 0000000.00   0000000.00                             000000000000000                                                                                                                                                     01418 A000000000000 0000000000001.59     01150 01500                  
01915350579830015DT67590675900000002881800888800000010180088824001193025900012800136012520230000000325802523000000000092876470122XXXXXX3220       VS11    0001111   NYV1 A E383025751735389N840000000003258QJTC00    05DNHAPPY HIPPIE             055253    VS84000000003258 N  549976487134                            000000000+                B CB 12111                     000000000  N000000000 495   0000000000000.00 0000000.00   0000000.00                             000000000000000                                                                                                                                                     01418 A000000000000 0000000000000.64     01650 01000                  
01915360579830016DT67590675900000002881800888800000010180088824001193025900012800144012520230000000806702523000000000092876419090XXXXXX3405       VS11    0001111   NYV1 A E383025762642494N840000000008067KWVJ00    05DNHAPPY HIPPIE             033821    VD84000000008067 N  549976487134                            000000000+                F DF 00381                     000000000  N000000000       0000000000000.00 0000000.00   0000000.00                             000000000000000                                                                                                                                                     01418 A000000000000 0000000000000.80     00800 01500                  
01915370579830017DT67590675900000002881800888800000010180088877287283025900012800153012520230000000059002523000000000092876511953XXXXXX5324       MS02WI09          NY 1 0 AMDJDCHY460125  N840000000000590          07DNHAPPY HIPPIE             057668    MD84000000000590 N  549976487134                            000000000+M10101M0034C    MDJ  00505                     000000000  N                0000000000000.00 0000000.00   0000000.00                             000000000000000                                                                                                                                                   B101418  000000000000 0000000000000.13     01550 00400                  
01915380579830018DT67590675900000002881800888800000010180088824001193025900012800169012520230000000395002523000000000092876434769XXXXXX6440       VS11    0001111   NYV1 A E463025812268572N840000000003950LGDS00    05DNHAPPY HIPPIE             063317    VD84000000003950 N  549976487134                            000000000+                F DF 10433                     000000000  Y000000000 338   0000000000000.00 0000000.00   0000000.00                             000000000000000                                                                                                                                                     01418 A000000000000 0000000000000.24     00050 02200                  
01915390579830019DT67590675900000002881800888800000010180088824001193025900012800177012520230000000325802523000000000092876443238XXXXXX7857       VS11    0001111   NYV1 A E463025823274532N840000000003258RVRL00    07DNHAPPY HIPPIE             075207    VD84000000003258 N  549976487134                            000000000+                F DF 00381                     000000000  N000000000       0000000000000.00 0000000.00   0000000.00                             000000000000000                                                                                                                                                     01418 A000000000000 0000000000000.41     00800 01500                  
01915400579830020DT67590675900000002881800888800000010180088824001193025900012800185012520230000000274302523000000000092876423223XXXXXX8765       VS11    0001111   NYV1 A E583025828649029N840000000002743NHKB00    05DNHAPPY HIPPIE             006180    VD84000000002743 N  549976487134                            000000000+                F DF 00381                     000000000  N000000000       0000000000000.00 0000000.00   0000000.00                             000000000000000                                                                                                                                                     01418 A000000000000 0000000000000.37     00800 01500                  
01915410579830021BH6759067590000000288180088880000090170125202302523000000000068400    0000090001280010N8008886759C01262023                                                                                                                                                                                                                                                                                                                                                                                                                                                                                                                                                                                                 
01915420579830022DT67590675900000002881800888800000010180088824001193025900012800011012520230000000167802523000000000068400443238XXXXXX8708       VS11    0001111   NYV1 A E303025611584898N840000000001678B7QR00    05DNHAPPY HIPPIE             015918    VD84000000001678 N  549976487158                            000000000+                F DF 00381                     000000000  N000000000       0000000000000.00 0000000.00   0000000.00                             000000000000000                                                                                                                                                     01418 A000000000000 0000000000000.28     00800 01500                  
01915430579830023DT67590675900000002881800888800000010180088824001193025900012800029012520230000001392602523000000000068400414398XXXXXX4037       VS11    0001111   NYV1 A E383025670108576N840000000013926CFCR00    05DNHAPPY HIPPIE             369432    VD84000000013926 N  549976487158                            000000000+                F DF 00381                     000000000  N000000000       0000000000000.00 0000000.00   0000000.00                             000000000000000                                                                                                                                                     01418 A000000000000 0000000000001.26     00800 01500                  
01915440579830024DT67590675900000002881800888800000010180088824001193025900012800037012520230000000592502523000000000068400480639XXXXXX2489       VS11    0001111   NYV1 A E303025713854849N840000000005925F8VK00    05DNHAPPY HIPPIE             701219    VD84000000005925 N  549976487158                            000000000+                F DF 00381                     000000000  N000000000       0000000000000.00 0000000.00   0000000.00                             000000000000000                                                                                                                                                     01418 A000000000000 0000000000000.62     00800 01500                  
01915450579830025DT67590675900000002881800888800000010180088824001193025900012800045012520230000001382602523000000000068400426684XXXXXX6627       VS11    0001111   NYV1 A E583025716946150N840000000013826GSGX00    05DNHAPPY HIPPIE             03638A    VS84000000013826 N  549976487158                            000000000+                A CA 12110                     000000000  N000000000 493   0000000000000.00 0000000.00   0000000.00                             000000000000000                                                                                                                                                     01418 A000000000000 0000000000002.19     01510 01000                  
01915460579830026DT67590675900000002881800888800000010180088824001193025900012800052012520230000000345602523000000000068400414709XXXXXX9676       VS11    0001111   NYV1 A E463025721558314N840000000003456942700    05DNHAPPY HIPPIE             07075D    VS84000000003456 N  549976487158                            000000000+                D CD 12113                     000000000  N000000000 499   0000000000000.00 0000000.00   0000000.00                             000000000000000                                                                                                                                                     01418 A000000000000 0000000000000.83     02100 01000                  
01915470579830027DT67590675900000002881800888800000010180088877287283025900012800062012520230000000800802523000000000068400531258XXXXXX7483       MS02WI09          NY 1 0 AMDJNLSANS0125  N840000000008008          05DNHAPPY HIPPIE             114095    MD84000000008008 N  549976487158                            000000000+M10101C5434C    MDJ  10815                     000000000  1                0000000000000.00 0000000.00   0000000.00                             000000000000000                                                                                                                                                   B101418  000000000000 0000000000000.26     00050 02200                  
01915480579830028DT67590675900000002881800888800000010180088824001193025900012800078012520230000000163502523000000000068400429413XXXXXX6900       VS11    0001111   NYV1 A E383025758799686N840000000001635DVRQ00    05DNHAPPY HIPPIE             272168    VD84000000001635 N  549976487158                            000000000+                F DF 00381                     000000000  N000000000       0000000000000.00 0000000.00   0000000.00                             000000000000000                                                                                                                                                     01418 A000000000000 0000000000000.28     00800 01500                  
01915490579830029DT67590675900000002881800888800000010180088824001193025900012800086012520230000000790002523000000000068400473336XXXXXX5051       VS11    0001111   NYV1 A E303025793285966N840000000007900PT2600    05DNHAPPY HIPPIE             050208    VD84000000007900 N  549976487158                            000000000+                F DF 00381                     000000000  N000000000       0000000000000.00 0000000.00   0000000.00                             000000000000000                                                                                                                                                     01418 A000000000000 0000000000000.78     00800 01500                  
01915500579830030DT67590675900000002881800888800000010180088824001193025900012800094012520230000000316102523000000000068400449507XXXXXX0245       VS11    0001111   NYV1 A E383025798737840N840000000003161HGTN00    05DNHAPPY HIPPIE             071113    VD84000000003161 N  549976487158                            000000000+                F DF 00381                     000000000  N000000000       0000000000000.00 0000000.00   0000000.00                             000000000000000                                                                                                                                                     01418 A000000000000 0000000000000.40     00800 01500                  
01915510579830031DT67590675900000002881800888800000010180088824001193025900012800102012520230000000888502523000000000068400419090XXXXXX5638       VS11    0001111   NYV1 A E303025812366718N840000000008885KQRT00    05DNHAPPY HIPPIE             036499    VD84000000008885 N  549976487158                            000000000+                F DF 00381                     000000000  N000000000       0000000000000.00 0000000.00   0000000.00                             000000000000000                                                                                                                                                     01418 A000000000000 0000000000000.86     00800 01500                  
01915520579830032BH6759067590000000215480088880000090170125202302523000000005525000    0000090001917578N8008886759C01262023                                                                                                                                                                                                                                                                                                                                                                                                                                                                                                                                                                                                 
01915530579830033DT67590675900000002154800888800000010180088873011003025900019175785012520230000552500002523000000005525000372728XXXXX1075                          NY 4 07N006746657746063N840000005525000          01DNDRIP DROP DISTRO LLC     264592    AM84000005525000 N  519971004114                            000000000+6004S0S00140 258     11245                     000000000                   0000000000000.00 0000000.00   0000000.00                             000000000000000 61248972736759675900000002154 DRIP DROP DISTRO LLC     1445 W COMMERCE AVE SUITE2087248209      83705     TROY@DRIPDROPDISTRO.COM                   01418  000000000000 0000000001298.48     02350 00000                  
