02044270295410002BH6759067590000001165080088880000090170213202304423000000000005838    0000090001010004N8008886759C02142023                                                                                                                                                                                                                                                                                                                                                                                                                                                                                                                                                                                                 
02044280295410003DT67590675900000011650800888800000010180088877287283044900010100017021320230000000021904423000000000005838522914XXXXXX8308       MS02WI09          NY 1 0 AMDJW9UB8K0213  N840000000000219          07DNVPODS HOLDING INC        024649    MD84000000000219 N  599977032122                            000000000+M10101M0034C    MDJ  10815                     000000000  1                0000000000000.00 0000000.00   0000000.00                             000000000000000                                                                                                                                                   B101418  000000000000 0000000000000.22     00050 02200                  
02044290295410004DT67590675900000011650800888800000010180088824001193044900010100023021320230000000066004423000000000005838476892XXXXXX4651       VK04VS111111111   NYV1 A E463044699187510N840000000000660TPJ700    07DNVPODS HOLDING INC        082514    VD84000000000660 N  599977032122                            000000000+                F DF 10439                     000000000  Y000000000 331   0000000000000.00 0000000.00   0000000.00                             000000000000000                                                                                                                                                     01418 F000000000000 0000000000000.22     00050 02200                  
02044300295410005DT67590675900000011650800888800000010180088824001193044900010100031021320230000000275504423000000000005838414720XXXXXX7669       VS11    0001111   NYV1 A E463044722722437N840000000002755ZJH400    07DNVPODS HOLDING INC        02984I    VS84000000002755 N  599977032122                            000000000+                I CI 12113                     000000000  N000000000 499   0000000000000.00 0000000.00   0000000.00                             000000000000000                                                                                                                                                     01418 A000000000000 0000000000000.68     02100 01000                  
02044310295410006DT67590675900000011650800888800000010180088873011003044900010100045021320230000000220404423000000000005838370382XXXXX8925                          NY 1 0 N007054764972063N840000000002204          07DNVPODS HOLDINGS INC       864299    AM84000000002204 N  599977032122                            000000000+51010X50034C 258     11261                     000000000                   0000000000000.00 0000000.00   0000000.00                             000000000000000 61248972086759675900000011650 VPODS HOLDINGS INC       2527 N LINCOLN AVE       7732092463      60614     SMOKEDREAMS2@ICLOUD.COM                   01418  000000000000 0000000000000.45     01600 00000                  
02044320295410007BH6759067590000000215480088880000090170213202304423000000000060300    0000090001080002N8008886759C02142023                                                                                                                                                                                                                                                                                                                                                                                                                                                                                                                                                                                                 
02044330295410008DT67590675900000002154800888800000010180088877287283044900010800012021120230000001030004423000000000060300547464XXXXXX0446                         NY 1 0 AMCBNOHSWB0211  N840000000010300          05DNDRIP DROP DISTRO LLC     01117Q    MB84000000010300 NP1519976225826                            000000000+M10101C5434C    MCB  11637                     000000000  N                0000000000000.00 0000000.00   0000000.00                             000000000000000                                                                                                                                                   B101418  000000000000 0000000000003.19     03000 01000                  
02044340295410001P1675906759000000021548008888000000101                                                          000000000000          8000            471534935                                                                                                                                                                                                                                                                                                                                                                                                                                                                                                                                                            
02044350295410009DT67590675900000002154800888800000010180088877287283044900010800020021120230000005000004423000000000060300553106XXXXXX9347                         NY 1 0 AMDBVCYIX50211  N840000000050000          05DNDRIP DROP DISTRO LLC     011611    MD84000000050000FNP1519976225826                            000000000+M10101C1134C    MDB  00071                     0000003001 N                0000000000000.00 0000000.00   0000000.00                             000000000000000                                                                                                                                                     01418  000000000000 0000000000010.00     02000 00000                  
02044360295410001P1675906759000000021548008888000000101                                                          000000000000          8000            471534935                                                                                                                                                                                                                                                                                                                                                                                                                                                                                                                                                            
02044370295410010BH6759067590000000288180088880000090170213202304423000000000050466    0000090001430013N8008886759C02142023                                                                                                                                                                                                                                                                                                                                                                                                                                                                                                                                                                                                 
02044380295410011DT67590675900000002881800888800000010180088824001193044900014300017021320230000000750404423000000000050466419090XXXXXX0995       VS11    0001111   NYV1 A E583044656877427N840000000007504R5W300    05DNHAPPY HIPPIE             546673    VD84000000007504 N  549976487134                            000000000+                F DF 00381                     000000000  N000000000       0000000000000.00 0000000.00   0000000.00                             000000000000000                                                                                                                                                     01418 A000000000000 0000000000000.75     00800 01500                  
02044390295410012DT67590675900000002881800888800000010180088877287283044900014300027021320230000000887804423000000000050466517805XXXXXX7723       MS02WI09          NY 1 0 AMWEERJK8L0213  N840000000008878          07DNHAPPY HIPPIE             09210P    MC84000000008878 N  549976487134                            000000000+M10101M5434C    MWE  00743                     000000000  N                0000000000000.00 0000000.00   0000000.00                             000000000000000                                                                                                                                                   B101418  000000000000 0000000000002.08     02300 00400                  
02044400295410013DT67590675900000002881800888800000010180088877287283044900014300035021320230000000227104423000000000050466511953XXXXXX5008       MS02WI09          NY 1 0 AMDJESFW8L0213  N840000000002271          07DNHAPPY HIPPIE             049603    MD84000000002271 N  549976487134                            000000000+M10101M0034C    MDJ  00402                     000000000  N                0000000000000.00 0000000.00   0000000.00                             000000000000000                                                                                                                                                   B101418  000000000000 0000000000000.39     01050 01500                  
02044410295410014DT67590675900000002881800888800000010180088876509753044900014300049021320230000000750604423000000000050466601120XXXXXX1954   BA50                  NY41 0 N743037664883090N840000000007506    00    05DNHAPPY HIPPIE             01323B    DZ84000000007506 N  549976487134050                         000000000+0000004910H00   DMCDI01012499140  121448000000 000000000  0          124   0000000000000.00 0000000.00   0000000.00                             000000000000000                                                                                                                                                     01418  000000000000 0000000000001.99     02450 01500                  
02044420295410015DT67590675900000002881800888800000010180088824001193044900014300058021320230000000447304423000000000050466419090XXXXXX0193       VS11    0001111   NYV1 A E303044700740044N840000000004473XQVJ00    05DNHAPPY HIPPIE             549103    VD84000000004473 N  549976487134                            000000000+                F DF 00381                     000000000  N000000000       0000000000000.00 0000000.00   0000000.00                             000000000000000                                                                                                                                                     01418 A000000000000 0000000000000.51     00800 01500                  
02044430295410016DT67590675900000002881800888800000010180088877287283044900014300068021320230000000306004423000000000050466511953XXXXXX9086       MS02WI09          NY 1 0 AMDJYD778K0213  N840000000003060          05DNHAPPY HIPPIE             021578    MD84000000003060 N  549976487134                            000000000+M10101C5434C    MDJ  00402                     000000000  N                0000000000000.00 0000000.00   0000000.00                             000000000000000                                                                                                                                                   B101418  000000000000 0000000000000.47     01050 01500                  
02044440295410017DT67590675900000002881800888800000010180088824001193044900014300074021320230000000164504423000000000050466486796XXXXXX0310       VS11    0001111   NYV1 A E303044786080701N840000000001645R7K300    05DNHAPPY HIPPIE             085016    VD84000000001645 N  549976487134                            000000000+                F DF 10433                     000000000  Y000000000 338   0000000000000.00 0000000.00   0000000.00                             000000000000000                                                                                                                                                     01418 A000000000000 0000000000000.23     00050 02200                  
02044450295410018DT67590675900000002881800888800000010180088877287283044900014300084021320230000000149804423000000000050466518941XXXXXX4253       MS02WI09          NY 1 0 AMWEUE667Z0213  N840000000001498          05DNHAPPY HIPPIE             88750Z    MC84000000001498 N  549976487134                            000000000+M10101C5434C    MWE  00743                     000000000  N                0000000000000.00 0000000.00   0000000.00                             000000000000000                                                                                                                                                   B101418  000000000000 0000000000000.38     02300 00400                  
02044460295410019DT67590675900000002881800888800000010180088824001193044900014300090021320230000000591304423000000000050466419090XXXXXX2243       VS11    0001111   NYV1 A E583044800705594N840000000005913WBKP00    05DNHAPPY HIPPIE             554773    VD84000000005913 N  549976487134                            000000000+                F DF 00381                     000000000  N000000000       0000000000000.00 0000000.00   0000000.00                             000000000000000                                                                                                                                                     01418 A000000000000 0000000000000.62     00800 01500                  
02044470295410020DT67590675900000002881800888800000010180088824001193044900014300108021320230000000211504423000000000050466419090XXXXXX3176       VS11    0001111   NYV1 A E303044806120304N8400000000021153LZ700    05DNHAPPY HIPPIE             555087    VD84000000002115 N  549976487134                            000000000+                F DF 00381                     000000000  N000000000       0000000000000.00 0000000.00   0000000.00                             000000000000000                                                                                                                                                     01418 A000000000000 0000000000000.32     00800 01500                  
02044480295410021DT67590675900000002881800888800000010180088824001193044900014300116021320230000000295004423000000000050466419090XXXXXX9713       VS11    0001111   NYV1 A E463044810555746N840000000002950457F00    05DNHAPPY HIPPIE             555335    VD84000000002950 N  549976487134                            000000000+                F DF 00381                     000000000  N000000000       0000000000000.00 0000000.00   0000000.00                             000000000000000                                                                                                                                                     01418 A000000000000 0000000000000.39     00800 01500                  
02044490295410022DT67590675900000002881800888800000010180088824001193044900014300124021320230000000078804423000000000050466419090XXXXXX9713       VK04VS111111111   NYV1 A E463044812047697N8400000000007888RN900    05DNHAPPY HIPPIE             555418    VD84000000000788 N  549976487134                            000000000+                F DF 00451                     000000000  N000000000 214   0000000000000.00 0000000.00   0000000.00                             000000000000000                                                                                                                                                     01418 F000000000000 0000000000000.16     01550 00400                  
02044500295410023DT67590675900000002881800888800000010180088824001193044900014300132021320230000000186504423000000000050466429136XXXXXX4775       VS11    0001111   NYV1 A E583044820782454N840000000001865RHDK00    05DNHAPPY HIPPIE             174758    VD84000000001865 N  549976487134                            000000000+                F DF 00381                     000000000  N000000000       0000000000000.00 0000000.00   0000000.00                             000000000000000                                                                                                                                                     01418 A000000000000 0000000000000.30     00800 01500                  
02044510295410024BH6759067590000000288180088880000090170213202304423000000000069772    0000090001440018N8008886759C02142023                                                                                                                                                                                                                                                                                                                                                                                                                                                                                                                                                                                                 
02044520295410025DT67590675900000002881800888800000010180088824001193044900014400015021320230000000158004423000000000069772419090XXXXXX6367       VS11    0001111   NYV1 A E383044571027990N8400000000015808ZCQ00    05DNHAPPY HIPPIE             541978    VD84000000001580 N  549976487158                            000000000+                F DF 00381                     000000000  N000000000       0000000000000.00 0000000.00   0000000.00                             000000000000000                                                                                                                                                     01418 A000000000000 0000000000000.28     00800 01500                  
02044530295410026DT67590675900000002881800888800000010180088877287283044900014400025021320230000000395004423000000000069772523914XXXXXX8023       MS02WI09          NY 1 0 AMCWL8LS2C0213  N840000000003950          05DNHAPPY HIPPIE             06717W    MC84000000003950 N  549976487158                            000000000+M10101C5434C    MCW  00364                     000000000  N                0000000000000.00 0000000.00   0000000.00                             000000000000000                                                                                                                                                   B101418  000000000000 0000000000000.75     01800 00400                  
02044540295410027DT67590675900000002881800888800000010180088824001193044900014400031021320230000000206304423000000000069772415978XXXXXX3096       VS11    0001111   NYV1 A E303044611940865N840000000002063THXG00    05DNHAPPY HIPPIE             015325    VD84000000002063 N  549976487158                            000000000+                F DF 10433                     000000000  Y000000000 338   0000000000000.00 0000000.00   0000000.00                             000000000000000                                                                                                                                                     01418 A000000000000 0000000000000.23     00050 02200                  
02044550295410028DT67590675900000002881800888800000010180088824001193044900014400049021320230000000197604423000000000069772400022XXXXXX0750       VS11    0001111   NYV1 A E463044613111527N840000000001976RKNS00    05DNHAPPY HIPPIE             795969    VD84000000001976 N  549976487158                            000000000+                F DF 10433                     000000000  Y000000000 338   0000000000000.00 0000000.00   0000000.00                             000000000000000                                                                                                                                                     01418 A000000000000 0000000000000.23     00050 02200                  
02044560295410029DT67590675900000002881800888800000010180088824001193044900014400056021320230000000274304423000000000069772459954XXXXXX6423       VS11    0001111   NYV1 A E463044617213400N840000000002743QRBX00    05DNHAPPY HIPPIE             H13655    VD84000000002743 N  549976487158                            000000000+                F DF 10433                     000000000  Y000000000 338   0000000000000.00 0000000.00   0000000.00                             000000000000000                                                                                                                                                     01418 A000000000000 0000000000000.23     00050 02200                  
02044570295410030DT67590675900000002881800888800000010180088824001193044900014400064021320230000000087704423000000000069772423223XXXXXX4855       VK04VS111111111   NYV1 A E583044618330353N840000000000877PXXT00    05DNHAPPY HIPPIE             031999    VD84000000000877 N  549976487158                            000000000+                F DF 00451                     000000000  N000000000 214   0000000000000.00 0000000.00   0000000.00                             000000000000000                                                                                                                                                     01418 F000000000000 0000000000000.18     01550 00400                  
02044580295410031DT67590675900000002881800888800000010180088876509753044900014400070021320230000000109804423000000000069772601101XXXXXX7582   BA50                  NY41 0 N873037592815108N840000000001098    00    05DNHAPPY HIPPIE             01327R    DS84000000001098 N  549976487158050                         000000000+0000004910H00   DCCDI00996166134  101441000000 000000000  0          108   0000000000000.00 0000000.00   0000000.00                             000000000000000                                                                                                                                                     01418  000000000000 0000000000000.21     01950 00000                  
02044590295410032DT67590675900000002881800888800000010180088824001193044900014400080021320230000000658504423000000000069772445100XXXXXX5955       VS11    0001111   NYV1 A E303044633863612N8400000000065857WGT00    05DNHAPPY HIPPIE             450899    VD84000000006585 N  549976487158                            000000000+                F DF 10433                     000000000  Y000000000 338   0000000000000.00 0000000.00   0000000.00                             000000000000000                                                                                                                                                     01418 A000000000000 0000000000000.25     00050 02200                  
02044600295410033DT67590675900000002881800888800000010180088877287283044900014400090021320230000000316104423000000000069772542432XXXXXX6544       MS02WI09          NY 2 0 AMDJC3ZN1Y0213  N840000000003161          05DNHAPPY HIPPIE             314178    MD84000000003161 N  549976487158                            000000000+M10101C1334C    MDJ  10815                     000000000  1                0000000000000.00 0000000.00   0000000.00                             000000000000000                                                                                                                                                   B101418  000000000000 0000000000000.24     00050 02200                  
02044610295410034DT67590675900000002881800888800000010180088824001193044900014400106021320230000000723904423000000000069772435547XXXXXX7787       VS11    0001111   NYV1 A E303044664638135N840000000007239XMWW00    05DNHAPPY HIPPIE             098103    VD84000000007239 N  549976487158                            000000000+                F DF 10433                     000000000  Y000000000 338   0000000000000.00 0000000.00   0000000.00                             000000000000000                                                                                                                                                     01418 A000000000000 0000000000000.26     00050 02200                  
02044620295410035DT67590675900000002881800888800000010180088824001193044900014400114021320230000000691304423000000000069772419090XXXXXX2474       VS11    0001111   NYV1 A E303044685329483N8400000000069134X8R00    05DNHAPPY HIPPIE             548241    VD84000000006913 N  549976487158                            000000000+                F DF 00381                     000000000  N000000000       0000000000000.00 0000000.00   0000000.00                             000000000000000                                                                                                                                                     01418 A000000000000 0000000000000.70     00800 01500                  
02044630295410036DT67590675900000002881800888800000010180088824001193044900014400122021320230000000246804423000000000069772461627XXXXXX1679       VS11    0001111   NYV1 A E583044716784784N8400000000024683XKD00    05DNHAPPY HIPPIE             550017    VD84000000002468 N  549976487158                            000000000+                G DG 08704                     000000000  N000000000       0000000000000.00 0000000.00   0000000.00                             000000000000000                                                                                                                                                     01418 A000000000000 0000000000000.52     01700 01000                  
02044640295410037DT67590675900000002881800888800000010180088824001193044900014400130021320230000000054904423000000000069772440393XXXXXX9579       VK04VS111111111   NYV1 A E463044719512390N840000000000549HJD800    05DNHAPPY HIPPIE             545864    VD84000000000549 N  549976487158                            000000000+                F PF 08165                     000000000  N000000000       0000000000000.00 0000000.00   0000000.00                             000000000000000                                                                                                                                                     01418 F000000000000 0000000000000.14     01600 00500                  
02044650295410038DT67590675900000002881800888800000010180088824001193044900014400148021320230000000658304423000000000069772422921XXXXXX9550       VS11    0001111   NYV1 A E383044733902204N840000000006583ZBTZ00    05DNHAPPY HIPPIE             055391    VD84000000006583 N  549976487158                            000000000+                F DF 00381                     000000000  N000000000       0000000000000.00 0000000.00   0000000.00                             000000000000000                                                                                                                                                     01418 A000000000000 0000000000000.68     00800 01500                  
02044660295410039DT67590675900000002881800888800000010180088824001193044900014400155021320230000000592504423000000000069772422921XXXXXX8880       VS11    0001111   NYV1 A E583044758941648N840000000005925MLDG00    05DNHAPPY HIPPIE             057895    VD84000000005925 N  549976487158                            000000000+                F DF 00381                     000000000  N000000000       0000000000000.00 0000000.00   0000000.00                             000000000000000                                                                                                                                                     01418 A000000000000 0000000000000.62     00800 01500                  
02044670295410040DT67590675900000002881800888800000010180088824001193044900014400163021320230000000065604423000000000069772480639XXXXXX1156       VK04VS111111111   NYV1 A E383044766285132N840000000000656LZ4Z00    05DNHAPPY HIPPIE             144492    VD84000000000656 N  549976487158                            000000000+                F DF 00451                     000000000  N000000000 214   0000000000000.00 0000000.00   0000000.00                             000000000000000                                                                                                                                                     01418 F000000000000 0000000000000.14     01550 00400                  
02044680295410041DT67590675900000002881800888800000010180088824001193044900014400171021320230000000325804423000000000069772415976XXXXXX7965       VS11    0001111   NYV1 A E303044767683801N840000000003258K22M00    05DNHAPPY HIPPIE             038557    VD84000000003258 N  549976487158                            000000000+                F DF 10433                     000000000  Y000000000 338   0000000000000.00 0000000.00   0000000.00                             000000000000000                                                                                                                                                     01418 A000000000000 0000000000000.24     00050 02200                  
02044690295410042DT67590675900000002881800888800000010180088877287283044900014400181021320230000001214804423000000000069772527520XXXXXX0811       MS02WI09          NY 1 0 AMDJSBTT8J0213  N840000000012148          05DNHAPPY HIPPIE             100029    MD84000000012148 N  549976487158                            000000000+M10101C5434C    MDJ  10815                     000000000  1                0000000000000.00 0000000.00   0000000.00                             000000000000000                                                                                                                                                   B101418  000000000000 0000000000000.28     00050 02200                  
02044700295410043BH6759067590000000215480088880000090170213202304423000000000304350    0000090001070929N8008886759C02142023                                                                                                                                                                                                                                                                                                                                                                                                                                                                                                                                                                                                 
02044710295410044DT67590675900000002154800888800000010180088824001193044900010711035021320230000002317504423000000000304350463577XXXXXX6617               2111111   NYV4 A7W583044586527730N840000000023175RN6300    01DNDRIP DROP DISTRO LLC     111476    VD84000000023175 NP1519971004114   17427                    000000000+                G DG 10352                     000000000  Y000000000 338   0000000000000.00 0000000.00   0000000.00                             000000000000000                                                                                                                                                     01418 G000000023175 0000000000000.34     00050 02200                  
02044720295410001P16759067590000000215480088880000001010000000000000000    43937914771              2000000000000000000000000              000000000000                    0000000000000000000000000                    000000000000                                                                                                                                                                                                                                                                                                                                                                                                                                                                                        
02044730295410045DT67590675900000002154800888800000010180088873011003044900010780937021320230000000600004423000000000304350372723XXXXX1013                          NY 4 07N007054020936068N840000000006000          01DNDRIP DROP DISTRO LLC     136998    AM84000000006000 N  519971004114                            000000000+6004S0600140 258     11243                     000000000                   0000000000000.00 0000000.00   0000000.00                             000000000000000 61248972736759675900000002154 DRIP DROP DISTRO LLC     1445 W COMMERCE AVE SUITE2087248209      83705     TROY@DRIPDROPDISTRO.COM                   01418  000000000000 0000000000001.09     01650 00000                  
02044740295410046DT67590675900000002154800888800000010180088873011003044900010709290021320230000027517504423000000000304350376742XXXXX2007                          NY 4 07N007055847598064N840000000275175          01DNDRIP DROP DISTRO LLC     286455    AM84000000275175 N  519971004114                            000000000+6004S0S00140 258     11244                     000000000                   0000000000000.00 0000000.00   0000000.00                             000000000000000 61248972736759675900000002154 DRIP DROP DISTRO LLC     1445 W COMMERCE AVE SUITE2087248209      83705     TROY@DRIPDROPDISTRO.COM                   01418  000000000000 0000000000052.38     01900 00000                  
02044750295410047BH6759067590000000096880088880000090170213202304423000000000004500    0000090001409700N8008886759C02142023                                                                                                                                                                                                                                                                                                                                                                                                                                                                                                                                                                                                 
02044760295410048DT67590675900000000968800888800000010180088824001193044900014097001021320230000000450004423000000000004500474476XXXXXX5195               2111111   NYV4 A7W583044812482440N840000000004793XGXZ00    01DNHIGHER FLOUR LLC         113541    VD84000000004500 NP1546271004114   R0SHKPWBUJRIPKZG0ZTP     000000000+                F DF 10420                     000000000  Y000000000 338   0000000000000.00 0000000.00   0000000.00                             000000000000000                                                                                                                                                     01418 G000000004500 0000000000000.24     00050 02200                  
02044770295410001P16759067590000000096880088880000001010000000000000000                             2000000000000000000000000              000000000000                    0000000000000000000000000                    000000000000                                                                                                                                                                                                                                                                                                                                                                                                                                                                                        
02044780295410049BH6759067590000000561180088880000090170213202304423000000000020987    0000090001128043N8008886759C02142023                                                                                                                                                                                                                                                                                                                                                                                                                                                                                                                                                                                                 
02044790295410050DT67590675900000005611800888800000010180088824001193044900011206621021320230000001599804423000000000020987411774XXXXXX7913               2111111   NYV4 A7W463044847708648N8400000000159989G5T00    01DNK DIVINE 503-689-7182    113523    VD84000000015998 NP1549971004114   5220                     000000000+                F DF 10420                     000000000  Y000000000 338   0000000000000.00 0000000.00   0000000.00                             000000000000000                                                                                                                                                     01418 G000000015998 0000000000000.30     00050 02200                  
02044800295410001P16759067590000000561180088880000001010000000000000000                             2000000000000000000000000              000000000000                    0000000000000000000000000                    000000000000                                                                                                                                                                                                                                                                                                                                                                                                                                                                                        
02044810295410051DT67590675900000005611800888800000010180088824001193044900011280436021320230000000498904423000000000020987415977XXXXXX9297               2111111   NYV4 A7W383044769061822N84000000000498952GS00    01DNK DIVINE 503-689-7182    012803    VD84000000004989 NP1549971004114   5218                     000000000+                F DF 10420                     000000000  Y000000000 338   0000000000000.00 0000000.00   0000000.00                             000000000000000                                                                                                                                                     01418 G000000004989 0000000000000.24     00050 02200                  
02044820295410001P16759067590000000561180088880000001010000000000000000                             2000000000000000000000000              000000000000                    0000000000000000000000000                    000000000000                                                                                                                                                                                                                                                                                                                                                                                                                                                                                        
02044830295410052BH6759067590000001090080088880000090170213202304423000000000095381    0000090001030020N8008886759C02142023                                                                                                                                                                                                                                                                                                                                                                                                                                                                                                                                                                                                 
02044840295410053DT67590675900000010900800888800000010180088877287283044900010300013021320230000000235304423000000000095381532211XXXXXX1479       MS02WI09          NY 1 0 AMPLLA8I2C0213  N840000000002353          05DNPLANET VAPOR #700        013431    MC84000000002353 N  599976923375                            000000000+M10101C5434C    MPL  00015                     000000000  N                0000000000000.00 0000000.00   0000000.00                             000000000000000                                                                                                                                                   B101418  000000000000 0000000000000.49     01650 01000                  
02044850295410054DT67590675900000010900800888800000010180088824001193044900010300029021320230000000663604423000000000095381473703XXXXXX0494       VS11    0001111   NYV1 A E303044623842623N840000000006636S6TW00    07DNPLANET VAPOR #700        085191    VD84000000006636 N  599976923375                            000000000+                F DF 10433                     000000000  Y000000000 338   0000000000000.00 0000000.00   0000000.00                             000000000000000                                                                                                                                                     01418 A000000000000 0000000000000.25     00050 02200                  
02044860295410055DT67590675900000010900800888800000010180088824001193044900010300037021320230000000135304423000000000095381473703XXXXXX8024       VK04VS111111111   NYV1 A E463044624839137N840000000001353CNHX00    07DNPLANET VAPOR #700        005411    VD84000000001353 N  599976923375                            000000000+                F DF 10439                     000000000  Y000000000 331   0000000000000.00 0000000.00   0000000.00                             000000000000000                                                                                                                                                     01418 F000000000000 0000000000000.23     00050 02200                  
02044870295410056DT67590675900000010900800888800000010180088824001193044900010300045021320230000000211804423000000000095381453506XXXXXX0391       VS11    0001111   NYV1 A E583044637548856N8400000000021189TXG00    07DNPLANET VAPOR #700        H16410    VD84000000002118 N  599976923375                            000000000+                F DF 10433                     000000000  Y000000000 338   0000000000000.00 0000000.00   0000000.00                             000000000000000                                                                                                                                                     01418 A000000000000 0000000000000.23     00050 02200                  
02044880295410057DT67590675900000010900800888800000010180088877287283044900010300054021320230000000299204423000000000095381515676XXXXXX2089       MS02WI09          NY 1 0 AMWEUR5O8J0213  N840000000002992          07DNPLANET VAPOR #700        06292Z    MC84000000002992 N  599976923375                            000000000+M10101M0034C    MWE  00739                     000000000  N                0000000000000.00 0000000.00   0000000.00                             000000000000000                                                                                                                                                   B101418  000000000000 0000000000000.79     02300 01000                  
02044890295410058DT67590675900000010900800888800000010180088824001193044900010300060021320230000000676204423000000000095381438419XXXXXX5857       VS11    0001111   NYV1 A E583044728019684N840000000006762HRCS00    05DNPLANET VAPOR #700        051322    VD84000000006762 N  599976923375                            000000000+                F DF 00381                     000000000  N000000000       0000000000000.00 0000000.00   0000000.00                             000000000000000                                                                                                                                                     01418 A000000000000 0000000000000.69     00800 01500                  
02044900295410059DT67590675900000010900800888800000010180088824001193044900010300078021320230000000280704423000000000095381401105XXXXXX5154       VS11    0001111   NYV1 A E383044750834869N840000000002807DBST00    07DNPLANET VAPOR #700        013976    VD84000000002807 N  599976923375                            000000000+                F DF 10433                     000000000  Y000000000 338   0000000000000.00 0000000.00   0000000.00                             000000000000000                                                                                                                                                     01418 A000000000000 0000000000000.23     00050 02200                  
02044910295410060DT67590675900000010900800888800000010180088824001193044900010300086021320230000000909104423000000000095381438419XXXXXX4187       VS11    0001111   NYV1 A E303044759893197N840000000009091SKDC00    07DNPLANET VAPOR #700        060630    VD84000000009091 N  599976923375                            000000000+                F DF 00381                     000000000  N000000000       0000000000000.00 0000000.00   0000000.00                             000000000000000                                                                                                                                                     01418 A000000000000 0000000000000.88     00800 01500                  
02044920295410061DT67590675900000010900800888800000010180088824001193044900010300094021320230000000404204423000000000095381438419XXXXXX1511       VS11    0001111   NYV1 A E463044765621278N840000000004042NLCN00    05DNPLANET VAPOR #700        061602    VD84000000004042 N  599976923375                            000000000+                F DF 00381                     000000000  N000000000       0000000000000.00 0000000.00   0000000.00                             000000000000000                                                                                                                                                     01418 A000000000000 0000000000000.47     00800 01500                  
02044930295410062DT67590675900000010900800888800000010180088877287283044900010300104021320230000000420404423000000000095381518221XXXXXX5459       MS02WI09          NY 1 0 AMPAPHVH8L0213  N840000000004204          90DNPLANET VAPOR #700        022768    MD84000000004204 N  599976923375                            000000000+M10101B5434C    MPA  11965                     000000000  B                0000000000000.00 0000000.00   0000000.00                             000000000000000                                                                                                                                                   C101418  000000000000 0000000000000.23     00050 02100                  
02044940295410063DT67590675900000010900800888800000010180088876509753044900010300118021320230000000545504423000000000095381601101XXXXXX6986   BA50                  NY41 0 N753037764239064N840000000005455    00    05DNPLANET VAPOR #700        01304R    DS84000000005455 N  599976923375050                         000000000+0000004910H00   DCCDI01000831008  170023000000 000000000  0          112   0000000000000.00 0000000.00   0000000.00                             000000000000000                                                                                                                                                     01418  000000000000 0000000000001.04     01720 01000                  
02044950295410064DT67590675900000010900800888800000010180088877287283044900010300120021320230000000374404423000000000095381527368XXXXXX3976       MS02WI09          NY 1 0 AMPGP7EI8L0213  N840000000003744          05DNPLANET VAPOR #700        209221    MD84000000003744 N  599976923375                            000000000+M10101C5434C    MPG  11964                     000000000  N                0000000000000.00 0000000.00   0000000.00                             000000000000000                                                                                                                                                   B101418  000000000000 0000000000000.58     01150 01500                  
02044960295410065DT67590675900000010900800888800000010180088824001193044900010300136021320230000000321604423000000000095381441707XXXXXX0962       VS11    0001111   NYV1 A E383044818616171N840000000003216PWSV00    07DNPLANET VAPOR #700        717443    VD84000000003216 N  599976923375                            000000000+                F PF 08170                     000000000  N000000000       0000000000000.00 0000000.00   0000000.00                             000000000000000                                                                                                                                                     01418 A000000000000 0000000000000.52     01150 01500                  
02044970295410066DT67590675900000010900800888800000010180088877287283044900010300146021320230000000470604423000000000095381517805XXXXXX9019       MS02WI09          NY 1 0 AMWEQ6MM8L0213  N840000000004706          05DNPLANET VAPOR #700        07240P    MC84000000004706 N  599976923375                            000000000+M10101C5434C    MWE  00739                     000000000  N                0000000000000.00 0000000.00   0000000.00                             000000000000000                                                                                                                                                   B101418  000000000000 0000000000001.18     02300 01000                  
02044980295410067DT67590675900000010900800888800000010180088824001193044900010300151021320230000000492004423000000000095381410894XXXXXX1657       VS11    0001111   NYV1 A E303044827902177N8400000000049204L6X00    07DNPLANET VAPOR #700        044040    VD84000000004920 N  599976923375                            000000000+                F DF 10433                     000000000  Y000000000 338   0000000000000.00 0000000.00   0000000.00                             000000000000000                                                                                                                                                     01418 A000000000000 0000000000000.24     00050 02200                  
02044990295410068DT67590675900000010900800888800000010180088824001193044900010300169021320230000002339204423000000000095381433477XXXXXX9384       VS11    0001111   NYV1 A E383044843424436N840000000023392798W00    05DNPLANET VAPOR #700        292982    VD84000000023392 N  599976923375                            000000000+                F DF 10433                     000000000  Y000000000 338   0000000000000.00 0000000.00   0000000.00                             000000000000000                                                                                                                                                     01418 A000000000000 0000000000000.34     00050 02200                  
02045000295410069DT67590675900000010900800888800000010180088824001193044900010300177021320230000000320704423000000000095381438419XXXXXX2294       VS11    0001111   NYV1 A E463044846899305N840000000003207WXM700    07DNPLANET VAPOR #700        083129    VD84000000003207 N  599976923375                            000000000+                F DF 00381                     000000000  N000000000       0000000000000.00 0000000.00   0000000.00                             000000000000000                                                                                                                                                     01418 A000000000000 0000000000000.41     00800 01500                  
02045010295410070DT67590675900000010900800888800000010180088824001193044900010300185021320230000000053404423000000000095381461675XXXXXX7722       VK04VS111111111   NYV1 A E303044861244037N840000000000534SF5J00    05DNPLANET VAPOR #700        231690    VD84000000000534 N  599976923375                            000000000+                F DF 00451                     000000000  N000000000 214   0000000000000.00 0000000.00   0000000.00                             000000000000000                                                                                                                                                     01418 F000000000000 0000000000000.12     01550 00400                  
02045020295410071DT67590675900000010900800888800000010180088824001193044900010300193021320230000000235304423000000000095381433477XXXXXX9551       VS11    0001111   NYV1 A E463044862591432N840000000002353S36Q00    05DNPLANET VAPOR #700        320079    VD84000000002353 N  599976923375                            000000000+                F DF 10433                     000000000  Y000000000 338   0000000000000.00 0000000.00   0000000.00                             000000000000000                                                                                                                                                     01418 A000000000000 0000000000000.23     00050 02200                  
02045030295410072DT67590675900000010900800888800000010180088824001193044900010300201021320230000000149604423000000000095381438419XXXXXX4949       VK04VS111111111   NYV1 A E583045025506939N840000000001496P4MD00    07DNPLANET VAPOR #700        094231    VD84000000001496 N  599976923375                            000000000+                F DF 00451                     000000000  N000000000 214   0000000000000.00 0000000.00   0000000.00                             000000000000000                                                                                                                                                     01418 F000000000000 0000000000000.27     01550 00400                  
02045040295410073BH6759067590000000659380088880000090170213202304423000000000105967    0000090001050032N8008886759C02142023                                                                                                                                                                                                                                                                                                                                                                                                                                                                                                                                                                                                 
02045050295410074DT67590675900000006593800888800000010180088824001193044900010500016021320230000000669304423000000000105967440393XXXXXX6228       VS11    0001111   NYV1 A E463044590947875N8400000000066937RQD00    05DNPLANET VAPOR #100        839340    VD84000000006693 N  599976768560                            000000000+                F PF 08170                     000000000  N000000000       0000000000000.00 0000000.00   0000000.00                             000000000000000                                                                                                                                                     01418 A000000000000 0000000000000.92     01150 01500                  
02045060295410075DT67590675900000006593800888800000010180088824001193044900010500024021320230000000323804423000000000105967466189XXXXXX5288       VS11    0001111   NYV1 A E383044603591526N840000000003238Z35H00    05DNPLANET VAPOR #100        066984    VD84000000003238 N  599976768560                            000000000+                F DF 10433                     000000000  Y000000000 338   0000000000000.00 0000000.00   0000000.00                             000000000000000                                                                                                                                                     01418 A000000000000 0000000000000.24     00050 02200                  
02045070295410076DT67590675900000006593800888800000010180088824001193044900010500032021320230000000053904423000000000105967481667XXXXXX6487       VK04VS111111111   NYV1 A E303044605661349N840000000000539LQKD00    07DNPLANET VAPOR #100        H05529    VD84000000000539 N  599976768560                            000000000+                F DF 10439                     000000000  Y000000000 331   0000000000000.00 0000000.00   0000000.00                             000000000000000                                                                                                                                                     01418 F000000000000 0000000000000.22     00050 02200                  
02045080295410077DT67590675900000006593800888800000010180088824001193044900010500040021320230000000129504423000000000105967448261XXXXXX7040       VK04VS111111111   NYV1 A E463044635405383N8400000000012955X2300    07DNPLANET VAPOR #100        498159    VD84000000001295 N  599976768560                            000000000+                F DF 10439                     000000000  Y000000000 331   0000000000000.00 0000000.00   0000000.00                             000000000000000                                                                                                                                                     01418 F000000000000 0000000000000.23     00050 02200                  
02045090295410078DT67590675900000006593800888800000010180088877287283044900010500059021320230000000268804423000000000105967552433XXXXXX0391       MS02WI09          NY 1 0 AMPLU6CD2N0213  N840000000002688          05DNPLANET VAPOR #100        00448M    MC84000000002688 N  599976768560                            000000000+M10101C5434C    MPL  00353                     000000000  N                0000000000000.00 0000000.00   0000000.00                             000000000000000                                                                                                                                                   B101418  000000000000 0000000000000.58     01800 01000                  
02045100295410079DT67590675900000006593800888800000010180088824001193044900010500065021320230000000453404423000000000105967473703XXXXXX8749       VS11    0001111   NYV1 A E583044658817048N84000000000453492Z300    05DNPLANET VAPOR #100        060998    VD84000000004534 N  599976768560                            000000000+                F DF 10433                     000000000  Y000000000 338   0000000000000.00 0000000.00   0000000.00                             000000000000000                                                                                                                                                     01418 A000000000000 0000000000000.24     00050 02200                  
02045110295410080DT67590675900000006593800888800000010180088873011003044900010500079021320230000000377904423000000000105967371701XXXXX9002                          NY 1 0 N007052527469062N840000000003779          05DNPLANET VAPOR INC #100    879617    AM84000000003779 N  599976768560                            000000000+51010155434C 258     11261                     000000000                   0000000000000.00 0000000.00   0000000.00                             000000000000000 61248972086759675900000006593 PLANET VAPOR INC #100    9300 TOP NOTCH RD STE 1  8035462263      29223     KEVIN@MOOREDISTRO.COM                     01418  000000000000 0000000000000.70     01600 00000                  
02045120295410081DT67590675900000006593800888800000010180088824001193044900010500081021320230000000269904423000000000105967448233XXXXXX3767       VS11    0001111   NYV1 A E583044666306748N840000000002699QBR600    05DNPLANET VAPOR #100        023031    VD84000000002699 N  599976768560                            000000000+                F DF 10433                     000000000  Y000000000 338   0000000000000.00 0000000.00   0000000.00                             000000000000000                                                                                                                                                     01418 A000000000000 0000000000000.23     00050 02200                  
02045130295410082DT67590675900000006593800888800000010180088824001193044900010500099021320230000000528704423000000000105967441103XXXXXX1579       VS11    0001111   NYV1 A E383044669860406N840000000005287BRLZ00    05DNPLANET VAPOR #100        063613    VD84000000005287 N  599976768560                            000000000+                F DF 10433                     000000000  Y000000000 338   0000000000000.00 0000000.00   0000000.00                             000000000000000                                                                                                                                                     01418 A000000000000 0000000000000.25     00050 02200                  
02045140295410083DT67590675900000006593800888800000010180088824001193044900010500107021320230000000064704423000000000105967440393XXXXXX4323       VK04VS111111111   NYV1 A E303044673583003N840000000000647CS3L00    05DNPLANET VAPOR #100        996341    VD84000000000647 N  599976768560                            000000000+                F PF 08165                     000000000  N000000000       0000000000000.00 0000000.00   0000000.00                             000000000000000                                                                                                                                                     01418 F000000000000 0000000000000.15     01600 00500                  
02045150295410084DT67590675900000006593800888800000010180088877287283044900010500117021320230000000169904423000000000105967522355XXXXXX7508       MS02WI09          NY 1 0 AMWEPA4M7Z0213  N840000000001699          07DNPLANET VAPOR #100        62140Z    MC84000000001699 N  599976768560                            000000000+M10101M0034C    MWE  00739                     000000000  N                0000000000000.00 0000000.00   0000000.00                             000000000000000                                                                                                                                                   A101418  000000000000 0000000000000.49     02300 01000                  
02045160295410085DT67590675900000006593800888800000010180088877287283044900010500125021320230000000237504423000000000105967531258XXXXXX0183       MS02WI09          NY 1 0 AMDJNXJT8J0213  N840000000002375          05DNPLANET VAPOR #100        110575    MD84000000002375 N  599976768560                            000000000+M10101C5434C    MDJ  10815                     000000000  1                0000000000000.00 0000000.00   0000000.00                             000000000000000                                                                                                                                                   B101418  000000000000 0000000000000.23     00050 02200                  
02045170295410086DT67590675900000006593800888800000010180088824001193044900010500131021320230000000340104423000000000105967421783XXXXXX7062       VS11    0001111   NYV1 A E463044690811705N840000000003401WZ6C00    05DNPLANET VAPOR #100        021975    VS84000000003401 N  599976768560                            000000000+                A CA 12110                     000000000  N000000000 493   0000000000000.00 0000000.00   0000000.00                             000000000000000                                                                                                                                                     01418 A000000000000 0000000000000.61     01510 01000                  
02045180295410087DT67590675900000006593800888800000010180088877287283044900010500141021320230000000431604423000000000105967552433XXXXXX0482       MS02WI09          NY 1 0 AMPLE2038L0213  N840000000004316          05DNPLANET VAPOR #100        02786M    MC84000000004316 N  599976768560                            000000000+M10101C5434C    MPL  00353                     000000000  N                0000000000000.00 0000000.00   0000000.00                             000000000000000                                                                                                                                                   B101418  000000000000 0000000000000.88     01800 01000                  
02045190295410088DT67590675900000006593800888800000010180088824001193044900010500156021320230000000431804423000000000105967449210XXXXXX6243       VS11    0001111   NYV1 A E583044704578714N84000000000431874FM00    05DNPLANET VAPOR #100        003418    VD84000000004318 N  599976768560                            000000000+                F DF 10433                     000000000  Y000000000 338   0000000000000.00 0000000.00   0000000.00                             000000000000000                                                                                                                                                     01418 A000000000000 0000000000000.24     00050 02200                  
02045200295410089DT67590675900000006593800888800000010180088824001193044900010500164021320230000000323804423000000000105967473703XXXXXX6675       VS11    0001111   NYV1 A E383044715637969N840000000003238WSZD00    05DNPLANET VAPOR #100        063470    VD84000000003238 N  599976768560                            000000000+                F DF 10433                     000000000  Y000000000 338   0000000000000.00 0000000.00   0000000.00                             000000000000000                                                                                                                                                     01418 A000000000000 0000000000000.24     00050 02200                  
02045210295410090DT67590675900000006593800888800000010180088877287283044900010500174021320230000000194304423000000000105967531258XXXXXX9889       MS02WI09          NY 1 0 AMDJQJMY8J0213  N840000000001943          05DNPLANET VAPOR #100        115506    MD84000000001943 N  599976768560                            000000000+M10101C5434C    MDJ  10815                     000000000  1                0000000000000.00 0000000.00   0000000.00                             000000000000000                                                                                                                                                   B101418  000000000000 0000000000000.23     00050 02200                  
02045220295410091DT67590675900000006593800888800000010180088824001193044900010500180021320230000000237504423000000000105967400022XXXXXX2469       VS11    0001111   NYV1 A E463044757010310N840000000002375SP3W00    07DNPLANET VAPOR #100        303255    VD84000000002375 N  599976768560                            000000000+                F DF 10433                     000000000  Y000000000 338   0000000000000.00 0000000.00   0000000.00                             000000000000000                                                                                                                                                     01418 A000000000000 0000000000000.23     00050 02200                  
02045230295410092DT67590675900000006593800888800000010180088824001193044900010500198021320230000000215904423000000000105967403623XXXXXX4094       VS11    0001111   NYV1 A E583044762266978N8400000000021597B8900    05DNPLANET VAPOR #100        080243    VD84000000002159 NP1599976768560                            000000000+                G DG 10351                     000000000  Y000000000 338   0000000000000.00 0000000.00   0000000.00                             000000000000000                                                                                                                                                     01418 A000000000000 0000000000000.23     00050 02200                  
02045240295410001P16759067590000000659380088880000001010000000000000000                             1000000000160000000000000              000000000000                    0000000000000000000000000                    000000000000                                                                                                                                                                                                                                                                                                                                                                                                                                                                                        
02045250295410093DT67590675900000006593800888800000010180088824001193044900010500206021320230000000215904423000000000105967448233XXXXXX8735       VS11    0001111   NYV1 A E463044774844726N840000000002159H9CD00    05DNPLANET VAPOR #100        053124    VD84000000002159 N  599976768560                            000000000+                F DF 10433                     000000000  Y000000000 338   0000000000000.00 0000000.00   0000000.00                             000000000000000                                                                                                                                                     01418 A000000000000 0000000000000.23     00050 02200                  
02045260295410094DT67590675900000006593800888800000010180088824001193044900010500214021320230000000323804423000000000105967430602XXXXXX2638       VS11    0001111   NYV1 A E463044781028480N840000000003238GJRS00    05DNPLANET VAPOR #100        171448    VD84000000003238 N  599976768560                            000000000+                F DF 00381                     000000000  N000000000       0000000000000.00 0000000.00   0000000.00                             000000000000000                                                                                                                                                     01418 A000000000000 0000000000000.41     00800 01500                  
02045270295410095DT67590675900000006593800888800000010180088824001193044900010500222021320230000000169904423000000000105967430602XXXXXX2638       VS11    0001111   NYV1 A E463044781704109N840000000001699K7KC00    05DNPLANET VAPOR #100        171677    VD84000000001699 N  599976768560                            000000000+                F DF 00381                     000000000  N000000000       0000000000000.00 0000000.00   0000000.00                             000000000000000                                                                                                                                                     01418 A000000000000 0000000000000.29     00800 01500                  
02045280295410096DT67590675900000006593800888800000010180088824001193044900010500230021320230000000269704423000000000105967473703XXXXXX1007       VS11    0001111   NYV1 A E303044790830599N840000000002697W5HB00    05DNPLANET VAPOR #100        074083    VD84000000002697 N  599976768560                            000000000+                F DF 10433                     000000000  Y000000000 338   0000000000000.00 0000000.00   0000000.00                             000000000000000                                                                                                                                                     01418 A000000000000 0000000000000.23     00050 02200                  
02045290295410097DT67590675900000006593800888800000010180088824001193044900010500248021320230000000257704423000000000105967454796XXXXXX7537       VS11    0001111   NYV1 A E583044794494175N840000000002577NDTV00    07DNPLANET VAPOR #100        721660    VD84000000002577 N  599976768560                            000000000+                F DF 00381                     000000000  N000000000       0000000000000.00 0000000.00   0000000.00                             000000000000000                                                                                                                                                     01418 A000000000000 0000000000000.36     00800 01500                  
02045300295410098DT67590675900000006593800888800000010180088824001193044900010500255021320230000000602304423000000000105967456367XXXXXX8638       VS11    0001111   NYV1 A E303044797836542N840000000006023JKQG00    07DNPLANET VAPOR #100        H67043    VD84000000006023 N  599976768560                            000000000+                F DF 10433                     000000000  Y000000000 338   0000000000000.00 0000000.00   0000000.00                             000000000000000                                                                                                                                                     01418 A000000000000 0000000000000.25     00050 02200                  
02045310295410099DT67590675900000006593800888800000010180088824001193044900010500263021320230000000237504423000000000105967422921XXXXXX2073       VS11    0001111   NYV1 A E303044817080485N840000000002375D95N00    05DNPLANET VAPOR #100        063709    VD84000000002375 N  599976768560                            000000000+                F DF 00381                     000000000  N000000000       0000000000000.00 0000000.00   0000000.00                             000000000000000                                                                                                                                                     01418 A000000000000 0000000000000.34     00800 01500                  
02045320295410100DT67590675900000006593800888800000010180088877287283044900010500273021320230000000242904423000000000105967553818XXXXXX4910       MS02WI09          NY 1 0 AMDSQW9U890213  N840000000002429          05DNPLANET VAPOR #100        181029    MD84000000002429 N  599976768560                            000000000+M10101C5434C    MDS  00402                     000000000  N                0000000000000.00 0000000.00   0000000.00                             000000000000000                                                                                                                                                   B101418  000000000000 0000000000000.41     01050 01500                  
02045330295410101DT67590675900000006593800888800000010180088824001193044900010500289021320230000000809804423000000000105967414720XXXXXX5115       VS11    0001111   NYV1 A E463044838766026N840000000008098PGFX00    05DNPLANET VAPOR #100        02715C    VS84000000008098 N  599976768560                            000000000+                C CC 12112                     000000000  N000000000 497   0000000000000.00 0000000.00   0000000.00                             000000000000000                                                                                                                                                     01418 A000000000000 0000000000001.44     01650 01000                  
02045340295410102DT67590675900000006593800888800000010180088824001193044900010500297021320230000000475004423000000000105967408138XXXXXX9365       VS11    0001111   NYV1 A E383044849250772N840000000004750845300    07DNPLANET VAPOR #100        372911    VD84000000004750 N  599976768560                            000000000+                F PF 08170                     000000000  N000000000       0000000000000.00 0000000.00   0000000.00                             000000000000000                                                                                                                                                     01418 A000000000000 0000000000000.70     01150 01500                  
02045350295410103DT67590675900000006593800888800000010180088824001193044900010500305021320230000000539904423000000000105967414740XXXXXX4750       VS11    0001111   NYV1 A E383044854447710N8400000000053998FQL00    05DNPLANET VAPOR #100        02135D    VS84000000005399 N  599976768560                            000000000+                D CD 12113                     000000000  N000000000 499   0000000000000.00 0000000.00   0000000.00                             000000000000000                                                                                                                                                     01418 A000000000000 0000000000001.23     02100 01000                  
02045360295410104DT67590675900000006593800888800000010180088824001193044900010500313021320230000000647704423000000000105967448233XXXXXX2809       VS11    0001111   NYV1 A E583045002250753N840000000006477CM4B00    07DNPLANET VAPOR #100        080345    VD84000000006477 N  599976768560                            000000000+                F DF 10433                     000000000  Y000000000 338   0000000000000.00 0000000.00   0000000.00                             000000000000000                                                                                                                                                     01418 A000000000000 0000000000000.25     00050 02200                  
02045370295410105DT67590675900000006593800888800000010180088824001193044900010500321021320230000000082304423000000000105967412004XXXXXX7260       VK04VS111111111   NYV1 A E303045027876737N8400000000008233J7W00    07DNPLANET VAPOR #100        108883    VD84000000000823 N  599976768560                            000000000+                F DF 10439                     000000000  Y000000000 331   0000000000000.00 0000000.00   0000000.00                             000000000000000                                                                                                                                                     01418 F000000000000 0000000000000.22     00050 02200                  
02045380295410106BH6759067590000000995180088880000090170213202304423000000000057219    0000090001050011N8008886759C02142023                                                                                                                                                                                                                                                                                                                                                                                                                                                                                                                                                                                                 
02045390295410107DT67590675900000009951800888800000010180088824001193044900010500016021320230000000485804423000000000057219473703XXXXXX7331       VS11    0001111   NYV1 A E383044600659677N840000000004858S5ND00    05DNPLANET VAPOR #500        008215    VD84000000004858 N  599976923295                            000000000+                F DF 10433                     000000000  Y000000000 338   0000000000000.00 0000000.00   0000000.00                             000000000000000                                                                                                                                                     01418 A000000000000 0000000000000.24     00050 02200                  
02045400295410108DT67590675900000009951800888800000010180088824001193044900010500024021320230000000470604423000000000057219414709XXXXXX6734       VS11    0001111   NYV1 A E303044795090397N840000000004706359G00    05DNPLANET VAPOR #500        05289D    VS84000000004706 N  599976923295                            000000000+                D CD 12113                     000000000  N000000000 499   0000000000000.00 0000000.00   0000000.00                             000000000000000                                                                                                                                                     01418 A000000000000 0000000000001.09     02100 01000                  
02045410295410109DT67590675900000009951800888800000010180088824001193044900010500032021320230000000723404423000000000057219438419XXXXXX4326       VS11    0001111   NYV1 A E463044854319277N840000000007234PN8T00    05DNPLANET VAPOR #500        084351    VD84000000007234 N  599976923295                            000000000+                F DF 00381                     000000000  N000000000       0000000000000.00 0000000.00   0000000.00                             000000000000000                                                                                                                                                     01418 A000000000000 0000000000000.73     00800 01500                  
02045420295410110DT67590675900000009951800888800000010180088824001193044900010500040021320230000000709704423000000000057219466189XXXXXX4127       VS11    0001111   NYV1 A E303045005019306N840000000007097NC5Q00    05DNPLANET VAPOR #500        050619    VD84000000007097 N  599976923295                            000000000+                F DF 10433                     000000000  Y000000000 338   0000000000000.00 0000000.00   0000000.00                             000000000000000                                                                                                                                                     01418 A000000000000 0000000000000.26     00050 02200                  
02045430295410111DT67590675900000009951800888800000010180088824001193044900010500057021320230000000427504423000000000057219473703XXXXXX2366       VS11    0001111   NYV1 A E463045007653044N840000000004275VKBF00    05DNPLANET VAPOR #500        025508    VD84000000004275 N  599976923295                            000000000+                F DF 10433                     000000000  Y000000000 338   0000000000000.00 0000000.00   0000000.00                             000000000000000                                                                                                                                                     01418 A000000000000 0000000000000.24     00050 02200                  
02045440295410112DT67590675900000009951800888800000010180088824001193044900010500065021320230000000213704423000000000057219429416XXXXXX4665       VS11    0001111   NYV1 A E383045015472446N840000000002137J3FW00    05DNPLANET VAPOR #500        472446    VD84000000002137 N  599976923295                            000000000+                F DF 00381                     000000000  N000000000       0000000000000.00 0000000.00   0000000.00                             000000000000000                                                                                                                                                     01418 A000000000000 0000000000000.32     00800 01500                  
02045450295410113DT67590675900000009951800888800000010180088824001193044900010500073021320230000000058204423000000000057219473703XXXXXX2366       VK04VS111111111   NYV1 A E303045016661242N840000000000582M3DS00    07DNPLANET VAPOR #500        087461    VD84000000000582 N  599976923295                            000000000+                F DF 10439                     000000000  Y000000000 331   0000000000000.00 0000000.00   0000000.00                             000000000000000                                                                                                                                                     01418 F000000000000 0000000000000.22     00050 02200                  
02045460295410114DT67590675900000009951800888800000010180088824001193044900010500081021320230000001496104423000000000057219433477XXXXXX4192       VS11    0001111   NYV1 A E463045020891702N840000000014961NQQ300    05DNPLANET VAPOR #500        348223    VD84000000014961 N  599976923295                            000000000+                F DF 10433                     000000000  Y000000000 338   0000000000000.00 0000000.00   0000000.00                             000000000000000                                                                                                                                                     01418 A000000000000 0000000000000.29     00050 02200                  
02045470295410115DT67590675900000009951800888800000010180088824001193044900010500099021320230000000719104423000000000057219433477XXXXXX9700       VS11    0001111   NYV1 A E583045022134508N840000000007191MVJT00    05DNPLANET VAPOR #500        349589    VD84000000007191 N  599976923295                            000000000+                F DF 10433                     000000000  Y000000000 338   0000000000000.00 0000000.00   0000000.00                             000000000000000                                                                                                                                                     01418 A000000000000 0000000000000.26     00050 02200                  
02045480295410116DT67590675900000009951800888800000010180088824001193044900010500107021320230000000242904423000000000057219440393XXXXXX4340       VS11    0001111   NYV1 A E583045023155040N840000000002429X7JR00    07DNPLANET VAPOR #500        646937    VD84000000002429 N  599976923295                            000000000+                F PF 08170                     000000000  N000000000       0000000000000.00 0000000.00   0000000.00                             000000000000000                                                                                                                                                     01418 A000000000000 0000000000000.43     01150 01500                  
02045490295410117DT67590675900000009951800888800000010180088824001193044900010500115021320230000000174904423000000000057219434769XXXXXX4701       VS11    0001111   NYV1 A E463045035743396N840000000001749Q62B00    05DNPLANET VAPOR #500        045919    VD84000000001749 N  599976923295                            000000000+                F DF 10433                     000000000  Y000000000 338   0000000000000.00 0000000.00   0000000.00                             000000000000000                                                                                                                                                     01418 A000000000000 0000000000000.23     00050 02200                  
02045500295410118BH6759067590000000833480088880000090170213202304423000000000203602    0000090001050050N8008886759C02142023                                                                                                                                                                                                                                                                                                                                                                                                                                                                                                                                                                                                 
02045510295410119DT67590675900000008334800888800000010180088824001193044900010500016021320230000001283404423000000000203602451440XXXXXX6929       VS11    0001111   NYV1 A E383044539695843N8400000000128347CNJ00    90DNPLANET VAPOR #400        065929    VD84000000012834 N  599976779447                            000000000+                F PF 08170                     000000000  N000000000       0000000000000.00 0000000.00   0000000.00                             000000000000000                                                                                                                                                     01418 A000000000000 0000000000001.63     01150 01500                  
02045520295410120DT67590675900000008334800888800000010180088824001193044900010500024021320230000000427804423000000000203602451440XXXXXX6929       VS11    0001111   NYV1 A E583044540217750N8400000000042784G3S00    90DNPLANET VAPOR #400        070021    VD84000000004278 N  599976779447                            000000000+                F PF 08170                     000000000  N000000000       0000000000000.00 0000000.00   0000000.00                             000000000000000                                                                                                                                                     01418 A000000000000 0000000000000.64     01150 01500                  
02045530295410121DT67590675900000008334800888800000010180088824001193044900010500032021320230000000064004423000000000203602466189XXXXXX0732       VK04VS111111111   NYV1 A E583044541402686N840000000000640QHQV00    07DNPLANET VAPOR #400        043549    VD84000000000640 N  599976779447                            000000000+                F DF 10439                     000000000  Y000000000 331   0000000000000.00 0000000.00   0000000.00                             000000000000000                                                                                                                                                     01418 F000000000000 0000000000000.22     00050 02200                  
02045540295410122DT67590675900000008334800888800000010180088824001193044900010500040021320230000000500004423000000000203602409758XXXXXX3263       VS11    0001111   NYV1 A E463044554157706N840000000005000TPG300    90DNPLANET VAPOR #400        588527    VD84000000005000 N  599976779447                            000000000+                F PF 08170                     000000000  N000000000       0000000000000.00 0000000.00   0000000.00                             000000000000000                                                                                                                                                     01418 A000000000000 0000000000000.73     01150 01500                  
02045550295410123DT67590675900000008334800888800000010180088824001193044900010500057021320230000000056104423000000000203602433477XXXXXX2574       VK04VS111111111   NYV1 A E383044554325194N84000000000056167GW00    05DNPLANET VAPOR #400        812007    VD84000000000561 N  599976779447                            000000000+                F DF 10439                     000000000  Y000000000 331   0000000000000.00 0000000.00   0000000.00                             000000000000000                                                                                                                                                     01418 F000000000000 0000000000000.22     00050 02200                  
02045560295410124DT67590675900000008334800888800000010180088824001193044900010500065021320230000000235304423000000000203602474474XXXXXX5104       VS11    0001111   NYV1 A E303044557701293N840000000002353WVJS00    07DNPLANET VAPOR #400        112391    VD84000000002353 N  599976779447                            000000000+                F DF 10433                     000000000  Y000000000 338   0000000000000.00 0000000.00   0000000.00                             000000000000000                                                                                                                                                     01418 A000000000000 0000000000000.23     00050 02200                  
02045570295410125DT67590675900000008334800888800000010180088824001193044900010500073021320230000000160504423000000000203602400022XXXXXX3599       VS11    0001111   NYV1 A E583044565300424N8400000000016054HMM00    07DNPLANET VAPOR #400        110223    VD84000000001605 N  599976779447                            000000000+                F DF 10433                     000000000  Y000000000 338   0000000000000.00 0000000.00   0000000.00                             000000000000000                                                                                                                                                     01418 A000000000000 0000000000000.23     00050 02200                  
02045580295410126DT67590675900000008334800888800000010180088824001193044900010500081021320230000000427804423000000000203602403623XXXXXX4094       VS11    0001111   NYV1 A E303044566314656N840000000004278HCGJ00    07DNPLANET VAPOR #400        036385    VD84000000004278 NP1599976779447                            000000000+                G DG 10351                     000000000  Y000000000 338   0000000000000.00 0000000.00   0000000.00                             000000000000000                                                                                                                                                     01418 A000000000000 0000000000000.24     00050 02200                  
02045590295410001P16759067590000000833480088880000001010000000000000000                             2000000000000000000000000              000000000000                    0000000000000000000000000                    000000000000                                                                                                                                                                                                                                                                                                                                                                                                                                                                                        
02045600295410127DT67590675900000008334800888800000010180088824001193044900010500099021320230000001026804423000000000203602459954XXXXXX2049       VS11    0001111   NYV1 A E463044574105692N8400000000102682W6Z00    05DNPLANET VAPOR #400        H05990    VD84000000010268 N  599976779447                            000000000+                F DF 10433                     000000000  Y000000000 338   0000000000000.00 0000000.00   0000000.00                             000000000000000                                                                                                                                                     01418 A000000000000 0000000000000.27     00050 02200                  
02045610295410128DT67590675900000008334800888800000010180088877287283044900010500109021320230000000181804423000000000203602514230XXXXXX7035       MS02WI09          NY 1 0 AMDJACV91Y0213  N840000000001818          05DNPLANET VAPOR #400        8BBA9E    MD84000000001818 N  599976779447                            000000000+M10101C5434C    MDJ  00402                     000000000  N                0000000000000.00 0000000.00   0000000.00                             000000000000000                                                                                                                                                   B101418  000000000000 0000000000000.34     01050 01500                  
02045620295410129DT67590675900000008334800888800000010180088877287283044900010500117021320230000000235304423000000000203602517805XXXXXX3857       MS02WI09          NY 1 0 AMPLNCW82N0213  N840000000002353          07DNPLANET VAPOR #400        06015B    MC84000000002353 N  599976779447                            000000000+M10101M0034C    MPL  00353                     000000000  N                0000000000000.00 0000000.00   0000000.00                             000000000000000                                                                                                                                                   B101418  000000000000 0000000000000.52     01800 01000                  
02045630295410130DT67590675900000008334800888800000010180088824001193044900010500123021320230000000181804423000000000203602494359XXXXXX5234       VS11    0001111   NYV1 A E583044594232759N840000000001818ZF8800    05DNPLANET VAPOR #400        134795    VD84000000001818 N  599976779447                            000000000+                F DF 00381                     000000000  N000000000       0000000000000.00 0000000.00   0000000.00                             000000000000000                                                                                                                                                     01418 A000000000000 0000000000000.30     00800 01500                  
02045640295410131DT67590675900000008334800888800000010180088824001193044900010500131021320230000000663204423000000000203602473702XXXXXX4726       VS11    0001111   NYV1 A E463044605591536N840000000006632KD4F00    07DNPLANET VAPOR #400        032619    VD84000000006632 N  599976779447                            000000000+                F DF 10433                     000000000  Y000000000 338   0000000000000.00 0000000.00   0000000.00                             000000000000000                                                                                                                                                     01418 A000000000000 0000000000000.25     00050 02200                  
02045650295410132DT67590675900000008334800888800000010180088824001193044900010500149021320230000000235304423000000000203602430602XXXXXX5859       VS11    0001111   NYV1 A E583044610855694N8400000000023536M4800    07DNPLANET VAPOR #400        130114    VD84000000002353 N  599976779447                            000000000+                F DF 00381                     000000000  N000000000       0000000000000.00 0000000.00   0000000.00                             000000000000000                                                                                                                                                     01418 A000000000000 0000000000000.34     00800 01500                  
02045660295410133DT67590675900000008334800888800000010180088824001193044900010500156021320230000000032104423000000000203602430602XXXXXX5859       VK04VS111111111   NYV1 A E383044611990651N840000000000321278V00    07DNPLANET VAPOR #400        130426    VD84000000000321 N  599976779447                            000000000+                F DF 00451                     000000000  N000000000 214   0000000000000.00 0000000.00   0000000.00                             000000000000000                                                                                                                                                     01418 F000000000000 0000000000000.09     01550 00400                  
02045670295410134DT67590675900000008334800888800000010180088824001193044900010500164021320230000000135304423000000000203602465078XXXXXX6042       VK04VS111111111   NYV1 A E383044616385585N84000000000135379ML00    07DNPLANET VAPOR #400        110477    VD84000000001353 N  599976779447                            000000000+                F DF 10439                     000000000  Y000000000 331   0000000000000.00 0000000.00   0000000.00                             000000000000000                                                                                                                                                     01418 F000000000000 0000000000000.23     00050 02200                  
02045680295410135DT67590675900000008334800888800000010180088877287283044900010500174021320230000000470604423000000000203602515307XXXXXX4222       MS02WI09          NY 1 0 AMCWON3M2N0213  N840000000004706          07DNPLANET VAPOR #400        08227W    MC84000000004706 N  599976779447                            000000000+M10101M0034C    MCW  00353                     000000000  N                0000000000000.00 0000000.00   0000000.00                             000000000000000                                                                                                                                                   B101418  000000000000 0000000000000.95     01800 01000                  
