00003350418750002BH6759067590000000370780088880000090170516202313623000000000062975    0000090001100822Y8008886759C05172023                                                                                                                                                                                                                                                                                                                                                                                                                                                                                                                                                                                                 
00003360418750003DT67590675900000003707800888800000010180088824001193136900011008166051620230000000829513623000000000062975434258XXXXXX6994               2111111   NYV4 A7W583136447903100N840000000008295P3TJ00    01DNMR HEMP FLOWER           064699    VD84000000008295 NP1549976053336   89705                    000000000+                F DF 10420                     000000000  Y000000000 338   0000000000000.00 0000000.00   0000000.00                             000000000000000                                                                                                                                                     01424 G000000008295 0000000000000.26     00050 02200                  
00003370418750001P16759067590000000370780088880000001010000000000000000                             2000000000000000000000000              000000000000                    0000000000000000000000000                    000000000000                                                                                                                                                                                                                                                                                                                                                                                                                                                                                        
00003380418750004DT67590675900000003707800888800000010180088887287283136900011008175051620230000002500013623000000000062975515676XXXXXX7904       ME03KE06MS02      NY 4607AMWEG1UU520516  N840000000025000          81DNMR HEMP FLOWER           06666Z    MC84000000025000 N  549976053336   89706                    000000000+600450S00130    MWE  00737                     000000000  N                0000000000000.00 0000000.00   0000000.00                             000000000000000                                                                                                                                                   U001424  000000000000 0000000000006.60     02600 01000                  
00003390418750005DT67590675900000003707800888800000010180088824001193136900011008182051620230000003690713623000000000062975440330XXXXXX5949               2111111   NYV4 A7W463136505068461N840000000036907C5WF00    01DNMR HEMP FLOWER           908822    VD84000000036907 NP1549976053336   89707                    000000000+                F DF 00415                     000000000  N000000000       0000000000000.00 0000000.00   0000000.00                             000000000000000                                                                                                                                                     01424 G000000036907 0000000000006.24     01650 01500                  
00003400418750001P16759067590000000370780088880000001010000000000000000                             2000000000000000000000000              000000000000                    0000000000000000000000000                    000000000000                                                                                                                                                                                                                                                                                                                                                                                                                                                                                        
00003410418750006DT67590675900000003707800888800000010180088876509753136900011008198051620230000000517313623000000000062975601142XXXXXX0050   BA00                  NY 4 07N873117022773110N840000000005173    00    01DNMR HEMP FLOWER           143514    DD84000000005173 N  549976053336070                         000000000+1015104910600   DCDDI11326832618  093757000000 000000000  0          461   0000000000000.00 0000000.00   0000000.00                             000000000000000                                                                                                                                                     01424  000000000000 0000000000001.11     01750 02000                  
00003420418750007DT67590675900000003707800888800000010180088824001193136900011008208051620230000000549913623000000000062975414709XXXXXX0370               2111111   NYV4 A7W463136629094082N840000000005499C4LT00    01DNMR HEMP FLOWER           04894C    VS84000000005499 NP1549976053336   89710                    000000000+                C CC 12108                     000000000  N000000000 496   0000000000000.00 0000000.00   0000000.00                             000000000000000                                                                                                                                                     01424 G000000005499 0000000000001.23     02050 01000                  
00003430418750001P16759067590000000370780088880000001010000000000000000                             2000000000000000000000000              000000000000                    0000000000000000000000000                    000000000000                                                                                                                                                                                                                                                                                                                                                                                                                                                                                        
00003440418750008DT67590675900000003707800888800000010680088887287283136900011008217051620230000002099613623000000000062975527854XXXXXX3114                         NY 4607AMWEJ6MWEW0516  N840000000020996          81CNMR HEMP FLOWER           216105    MC84000000020996 N  549976053336   89446                    000000000+600450S00130    MWE  00565                     000000000  N                0000000000000.00 0000000.00   0000000.00                             000000000000000                                                                                                                                                     01424  000000000000-0000000000003.67     01750 00000                  
00003450418750009DT67590675900000003707800888800000010180088824001193136900011008224051620230000000309713623000000000062975434258XXXXXX5889               2111111   NYV4 A7W463136808417707N840000000003097XRTM00    01DNMR HEMP FLOWER           049793    VD84000000003097 NP1549976053336   89718                    000000000+                F DF 10420                     000000000  Y000000000 338   0000000000000.00 0000000.00   0000000.00                             000000000000000                                                                                                                                                     01424 G000000003097 0000000000000.24     00050 02200                  
00003460418750001P16759067590000000370780088880000001010000000000000000                             2000000000000000000000000              000000000000                    0000000000000000000000000                    000000000000                                                                                                                                                                                                                                                                                                                                                                                                                                                                                        
00003470418750010BH6759067590000000288180088880000090170516202313623000000000003512    0000090001190231Y8008886759C05172023                                                                                                                                                                                                                                                                                                                                                                                                                                                                                                                                                                                                 
00003480418750011DT67590675900000002881800888800000010180088876509753136900011902317051520230000000351213623000000000003512601101XXXXXX1573   BA00                  NY 4 07N873116565373610N840000000003512    00    01DNHAPPY HIPPIE             01586R    DS84000000003512 N  549976044904070                         000000000+1015104910600   DCCDI11325668507  205537000000 000000000  0          460   0000000000000.00 0000000.00   0000000.00                             000000000000000                                                                                                                                                     01424  000000000000 0000000000000.81     02030 01000                  
00003490418750012BH6759067590000001982880010980000090170516202313623000000000286571    0000090001569880Y8001096759C05172023                                                                                                                                                                                                                                                                                                                                                                                                                                                                                                                                                                                                 
00003500418750013DT67590675900000019828800109800000010180010924001193136900015696891051520230000001499013623000000000286571449247XXXXXX3708               2111111   NYV4 A7W583132411051134N840000000014990JCV900    01DNKETOFUSION 8885968154    072505    VD84000000014990 NP1599977547467   7C3D67233ATAD821CBF12E8  000000000+                F DF 00415                     000000000  N000000000       0000000000000.00 0000000.00   0000000.00                             000000000000000                                                                                                                                                     01424 G000000014990 0000000000002.62     01650 01500                  
00003510418750001P16759067590000001982880010980000001010000000000000000                             2000000000000000000000000              000000000000                    0000000000000000000000000                    000000000000                                                                                                                                                                                                                                                                                                                                                                                                                                                                                        
00003520418750014DT67590675900000019828800109800000010180010924001193136900015696909051520230000001987013623000000000286571433821XXXXXX4502               2111111   NYV4 A7W583132411052051N840000000019870FV5500    01DNKETOFUSION 8885968154    012336    VS84000000019870 NP1599977547467   3C8CA9A654T07D0D766E4FC  000000000+                B CB 12107                     000000000  N000000000 494   0000000000000.00 0000000.00   0000000.00                             000000000000000                                                                                                                                                     01424 G000000019870 0000000000004.15     02040 01000                  
00003530418750001P16759067590000001982880010980000001010000000000000000                             2000000000000000000000000              000000000000                    0000000000000000000000000                    000000000000                                                                                                                                                                                                                                                                                                                                                                                                                                                                                        
00003540418750015DT67590675900000019828800109800000010180010987287283136900015696934051520230000001394813623000000000286571542539XXXXXX2270       ME03KE06MS02      NY 4607AMPLX5L0PB0512  N840000000013948          81DNKETOFUSION 8885968154    012143    MC84000000013948 N  599977547467   7FA4F8AE45TE601A13F7707  000000000+600450S00130    MPL  00013                     000000000  N                0000000000000.00 0000000.00   0000000.00                             000000000000000                                                                                                                                                   U001424  000000000000 0000000000002.82     01950 01000                  
00003550418750016DT67590675900000019828800109800000010180010987287283136900015696959051520230000002487013623000000000286571528072XXXXXX2566       ME03KE06PT01      NY 4607AMCWMPWPPB0512  N840000000024870          81DNKETOFUSION 8885968154    06450S    MC84000000024870 N  599977547467   0B0C2F1497T423C48BFCB3B  000000000+600450S00130    MCW  02182                     000000000  N                0000000000000.00 0000000.00   0000000.00                             000000000000000                                                                                                                                                   U001424  000000000000 0000000000006.57     02600 01000                  
00003560418750017DT67590675900000019828800109800000010180010924001193136900015696966051520230000001194813623000000000286571427082XXXXXX2788               2111111   NYV4 A7W463132516071054N840000000011948GPFQ00    01DNKETOFUSION 8885968154    012916    VS84000000011948 NP1599977547467   B2B79EE21ET93FBF3341379  000000000+                D CD 12109                     000000000  N000000000 498   0000000000000.00 0000000.00   0000000.00                             000000000000000                                                                                                                                                     01424 G000000011948 0000000000003.09     02500 01000                  
00003570418750001P16759067590000001982880010980000001010000000000000000                             2000000000000000000000000              000000000000                    0000000000000000000000000                    000000000000                                                                                                                                                                                                                                                                                                                                                                                                                                                                                        
00003580418750018DT67590675900000019828800109800000010180010987287283136900015696983051520230000001499013623000000000286571542432XXXXXX3738       ME03KE06MS02      NY 4607AMDJKYNJFN0512  N840000000014990          81DNKETOFUSION 8885968154    155577    MD84000000014990 N  599977547467   D0ADBB2A80T6DD92631FC95  000000000+600450S00130    MDJ  10813                     000000000  1                0000000000000.00 0000000.00   0000000.00                             000000000000000                                                                                                                                                   U001424  000000000000 0000000000000.29     00050 02200                  
00003590418750019DT67590675900000019828800109800000010180010924001193136900015696990051520230000001499013623000000000286571410039XXXXXX8453               2111111   NYV4 A7W383132555051018N8400000000149905K6D00    01DNKETOFUSION 8885968154    08868D    VS84000000014990 NP1599977547467   DBFF5D0E3DT6027C9E5A9CC  000000000+                D CD 12109                     000000000  N000000000 498   0000000000000.00 0000000.00   0000000.00                             000000000000000                                                                                                                                                     01424 G000000014990 0000000000003.85     02500 01000                  
00003600418750001P16759067590000001982880010980000001010000000000000000                             2000000000000000000000000              000000000000                    0000000000000000000000000                    000000000000                                                                                                                                                                                                                                                                                                                                                                                                                                                                                        
00003610418750020DT67590675900000019828800109800000010180010924001193136900015697030051520230000002487013623000000000286571410039XXXXXX2838               2111111   NYV4 A7W303132594063089N84000000002487047ZP00    01DNKETOFUSION 8885968154    21935D    VS84000000024870 NP1599977547467   091FD7FFCFTADF54C8E4BA2  000000000+                D CD 12109                     000000000  N000000000 498   0000000000000.00 0000000.00   0000000.00                             000000000000000                                                                                                                                                     01424 G000000024870 0000000000006.32     02500 01000                  
00003620418750001P16759067590000001982880010980000001010000000000000000                             2000000000000000000000000              000000000000                    0000000000000000000000000                    000000000000                                                                                                                                                                                                                                                                                                                                                                                                                                                                                        
00003630418750021DT67590675900000019828800109800000010180010987287283136900015697080051520230000001987013623000000000286571558210XXXXXX0086                         NY 4607AMDBLB97J70512  N840000000019870          81DNKETOFUSION 8885968154    FCFB82    MD84000000019870 NP1599977547467   31D4554D9DTA6847D72E28F  000000000+600450S00130    MDB  00062                     000000000  N                0000000000000.00 0000000.00   0000000.00                             000000000000000                                                                                                                                                   U001424  000000000000 0000000000005.37     02650 01000                  
00003640418750001P1675906759000000198288001098000000101                                                          000000000000          8000            884295529                                                                                                                                                                                                                                                                                                                                                                                                                                                                                                                                                            
00003650418750022DT67590675900000019828800109800000010180010976509753136900015697095051520230000001987013623000000000286571601100XXXXXX0059   BA00                  NY 4 07N803113715060647N840000000019870    00    01DNKETOFUSION 8885968154    01221R    DS84000000019870 N  599977547467070                         000000000+1015104910600   DCCDI11325500301  134506000000 000000000  0          460   0000000000000.00 0000000.00   0000000.00                             000000000000000                                                                                                                                                     01424  000000000000 0000000000004.13     02030 01000                  
00003660418750023DT67590675900000019828800109800000010180010987287283136900015697106051520230000001987013623000000000286571521333XXXXXX0195       ME03KE06MS02      NY 4607AMWEO23OS20512  N840000000019870          81DNKETOFUSION 8885968154    01228P    MC84000000019870 N  599977547467   9193ADF26ETBC7848D19F3B  000000000+600450S00130    MWE  00737                     000000000  N                0000000000000.00 0000000.00   0000000.00                             000000000000000                                                                                                                                                   U001424  000000000000 0000000000005.27     02600 01000                  
00003670418750024DT67590675900000019828800109800000010180010987287283136900015697155051520230000002487013623000000000286571510942XXXXXX1499       ME03KE06MS02      NY 4607AMDSVB96MY0512  N840000000024870          81DNKETOFUSION 8885968154    634719    MD84000000024870 N  599977547467   79550EC8CCTC861ACBA238A  000000000+600450S00130    MDS  00401                     000000000  N                0000000000000.00 0000000.00   0000000.00                             000000000000000                                                                                                                                                   U001424  000000000000 0000000000004.25     01650 01500                  
00003680418750025DT67590675900000019828800109800000010180010924001193136900015697170051520230000001394813623000000000286571483316XXXXXX8605               2111111   NYV4 A7W463132783142740N840000000013948XL7X00    01DNKETOFUSION 8885968154    044517    VD84000000013948 NP1599977547467   FB9C8E494DT91CF6ECCB4C8  000000000+                F DF 10420                     000000000  Y000000000 338   0000000000000.00 0000000.00   0000000.00                             000000000000000                                                                                                                                                     01424 G000000013948 0000000000000.29     00050 02200                  
00003690418750001P16759067590000001982880010980000001010000000000000000                             2000000000000000000000000              000000000000                    0000000000000000000000000                    000000000000                                                                                                                                                                                                                                                                                                                                                                                                                                                                                        
00003700418750026DT67590675900000019828800109800000010180010924001193136900015697212051520230000002487013623000000000286571483370XXXXXX0528               2111111   NYV4 A7W303132807074777N840000000024870N2C800    01DNKETOFUSION 8885968154    012721    VS84000000024870 NP1599977547467   F2C9674DE9T838300877A7C  000000000+                A CA 12106                     000000000  N000000000 492   0000000000000.00 0000000.00   0000000.00                             000000000000000                                                                                                                                                     01424 G000000024870 0000000000004.80     01890 01000                  
00003710418750001P16759067590000001982880010980000001010000000000000000                             2000000000000000000000000              000000000000                    0000000000000000000000000                    000000000000                                                                                                                                                                                                                                                                                                                                                                                                                                                                                        
00003720418750027DT67590675900000019828800109800000010180010924001193136900015697238051520230000001799113623000000000286571410039XXXXXX1303               2111111   NYV4 A7W383132813053691N840000000017991Q8P600    01DNKETOFUSION 8885968154    65037C    VS84000000017991 NP1599977547467   15CE697568T83589BD327F4  000000000+                C CC 12108                     000000000  N000000000 496   0000000000000.00 0000000.00   0000000.00                             000000000000000                                                                                                                                                     01424 G000000017991 0000000000003.79     02050 01000                  
00003730418750001P16759067590000001982880010980000001010000000000000000                             2000000000000000000000000              000000000000                    0000000000000000000000000                    000000000000                                                                                                                                                                                                                                                                                                                                                                                                                                                                                        
00003740418750028DT67590675900000019828800109800000010180010976509753136900015697269051520230000001987013623000000000286571601101XXXXXX8437   BA00                  NY 4 07N813113937058477N840000000019870    00    01DNKETOFUSION 8885968154    01249R    DS84000000019870 N  599977547467070                         000000000+1015104910600   DCCDI11325831427  195505000000 000000000  0          460   0000000000000.00 0000000.00   0000000.00                             000000000000000                                                                                                                                                     01424  000000000000 0000000000004.13     02030 01000                  
00003750418750029DT67590675900000019828800109800000010180010924001193136900015697279051520230000002487013623000000000286571436618XXXXXX6252               2111111   NYV4 A7W463133060057847N840000000024870RTLD00    01DNKETOFUSION 8885968154    002790    VD84000000024870 NP1599977547467   78E42FDB28T6B5675BF9F85  000000000+                F DF 10420                     000000000  Y000000000 338   0000000000000.00 0000000.00   0000000.00                             000000000000000                                                                                                                                                     01424 G000000024870 0000000000000.34     00050 02200                  
00003760418750001P16759067590000001982880010980000001010000000000000000                             2000000000000000000000000              000000000000                    0000000000000000000000000                    000000000000                                                                                                                                                                                                                                                                                                                                                                                                                                                                                        
00003770418750030DT67590675900000019828800109800000010180010987287283136900015697288051520230000001499013623000000000286571540653XXXXXX5415       ME03KE06MS02      NY 4607AMDJP0XA1E0512  N840000000014990          81DNKETOFUSION 8885968154    004510    MD84000000014990 N  599977547467   33009820A9TC1CB5CF9F778  000000000+600450S00130    MDJ  10713                     000000000  B                0000000000000.00 0000000.00   0000000.00                             000000000000000                                                                                                                                                   U001424  000000000000 0000000000000.28     00050 02100                  
00003780418750031DT67590675900000019828800109800000010180010987287283136900015697296051520230000001987013623000000000286571518941XXXXXX7801       ME03KE06MS02      NY 4607AMWEF41J1F0512  N840000000019870          81DNKETOFUSION 8885968154    72969Z    MC84000000019870 N  599977547467   2CB6BADFAET3E9381F4C439  000000000+600450S00130    MWE  00737                     000000000  N                0000000000000.00 0000000.00   0000000.00                             000000000000000                                                                                                                                                   U001424  000000000000 0000000000005.27     02600 01000                  
00003790418750032DT67590675900000019828800109800000010180010924001193136900015697337051520230000002487013623000000000286571410040XXXXXX0330               2111111   NYV4 A7W303133126055795N840000000024870F64300    01DNKETOFUSION 8885968154    68197G    VB84000000024870 NP1599977547467   BE5D50F87DT1EC4BD057FA8  000000000+                G1CG108010                     000000000  N000000000 390   0000000000000.00 0000000.00   0000000.00                             000000000000000                                                                                                                                                     01424 G000000024870 0000000000007.19     02850 01000                  
00003800418750001P16759067590000001982880010980000001010000000000000000                             2000000000000000000000000              000000000000                    0000000000000000000000000                    000000000000                                                                                                                                                                                                                                                                                                                                                                                                                                                                                        
00003810418750033DT67590675900000019828800109800000010680010987287283136900015698690051620230000000406613623000000000286571546632XXXXXX7036                         NY 4607AMCWIIMJ520516  N840000000004066          81CNKETOFUSION 8885968154    017260    MC84000000004066 N  599977547467   2FBB388C09TBA42ED444A3D  000000000+600450S00130    MCW  00564                     000000000  N                0000000000000.00 0000000.00   0000000.00                             000000000000000                                                                                                                                                     01424  000000000000-0000000000000.71     01750 00000                  
00003820418750034DT67590675900000019828800109800000010680010974001193136900015698702051620230000001987013623000000000286571412777XXXXXX7088               0000000   NYV4 07T583136519139360N8400000000198702SBX00    01CNKETOFUSION 8885968154    006206    VS84000000019870 NP1599977547467   3F3FE1910ET1AD3AE0E0200  000000000+                D CD 00245                     000000000  N000000000 166   0000000000000.00 0000000.00   0000000.00                             000000000000000                                                                                                                                                     01424  000000019870-0000000000003.50     01760 00000                  
00003830418750001P16759067590000001982880010980000001060000000000000000                             2000000000000000000000000              000000000000                    0000000000000000000000000                    000000000000                                                                                                                                                                                                                                                                                                                                                                                                                                                                                        
00003840418750035DT67590675900000019828800109800000010680010987287283136900015698716051620230000001987013623000000000286571515676XXXXXX2449                         NY 4607AMWEQZWX0O0516  N840000000019870          81CNKETOFUSION 8885968154    096682    MC84000000019870 N  599977547467   4240F63BB7T9D1FD59DBDB5  000000000+600450S00130    MWE  00564                     000000000  N                0000000000000.00 0000000.00   0000000.00                             000000000000000                                                                                                                                                     01424  000000000000-0000000000003.48     01750 00000                  
00003850418750036DT67590675900000019828800109800000010680010974001193136900015698728051620230000000259513623000000000286571410039XXXXXX1243               0000000   NYV4 07T463136524717185N840000000002595TLVP00    01CNKETOFUSION 8885968154    12196A    VS84000000002595 NP1599977547467   32AC46DE29TDDACDD733294  000000000+                A CA 00245                     000000000  N000000000 166   0000000000000.00 0000000.00   0000000.00                             000000000000000                                                                                                                                                     01424  000000002595-0000000000000.46     01760 00000                  
00003860418750001P16759067590000001982880010980000001060000000000000000                             2000000000000000000000000              000000000000                    0000000000000000000000000                    000000000000                                                                                                                                                                                                                                                                                                                                                                                                                                                                                        
00003870418750037DT67590675900000019828800109800000010680010974001193136900015698736051620230000000327413623000000000286571410039XXXXXX1243               0000000   NYV4 07T583136525240687N840000000003274945H00    01CNKETOFUSION 8885968154    66559A    VS84000000003274 NP1599977547467   32AC46DE29T9029C7823C49  000000000+                A CA 00245                     000000000  N000000000 166   0000000000000.00 0000000.00   0000000.00                             000000000000000                                                                                                                                                     01424  000000003274-0000000000000.58     01760 00000                  
00003880418750001P16759067590000001982880010980000001060000000000000000                             2000000000000000000000000              000000000000                    0000000000000000000000000                    000000000000                                                                                                                                                                                                                                                                                                                                                                                                                                                                                        
00003890418750038DT67590675900000019828800109800000010680010987287283136900015698773051620230000001194813623000000000286571542418XXXXXX7695                         NY 4607AMPLET84BU0516  N840000000011948          81CNKETOFUSION 8885968154    585115    MC84000000011948 N  599977547467   0A5CAA00B6T215FA27D00B2  000000000+600450S00130    MPL  00564                     000000000  N                0000000000000.00 0000000.00   0000000.00                             000000000000000                                                                                                                                                     01424  000000000000-0000000000002.09     01750 00000                  
00003900418750039DT67590675900000019828800109800000010680010974001193136900015698785051620230000000621713623000000000286571483370XXXXXX0528               0000000   NYV4 07T303136652276602N8400000000062176JS400    01CNKETOFUSION 8885968154    016201    VS84000000006217 NP1599977547467   F2C9674DE9T838300877A7C  000000000+                A CA 00245                     000000000  N000000000 166   0000000000000.00 0000000.00   0000000.00                             000000000000000                                                                                                                                                     01424  000000006217-0000000000001.09     01760 00000                  
00003910418750001P16759067590000001982880010980000001060000000000000000                             2000000000000000000000000              000000000000                    0000000000000000000000000                    000000000000                                                                                                                                                                                                                                                                                                                                                                                                                                                                                        
00003920418750040DT67590675900000019828800109800000010680010974001193136900015698793051620230000002487013623000000000286571410039XXXXXX1243               0000000   NYV4 07T383136770795740N840000000024870MVK500    01CNKETOFUSION 8885968154    28745A    VS84000000024870 NP1599977547467   32AC46DE29TB46FCC98FFCE  000000000+                A CA 00245                     000000000  N000000000 166   0000000000000.00 0000000.00   0000000.00                             000000000000000                                                                                                                                                     01424  000000024870-0000000000004.38     01760 00000                  
00003930418750001P16759067590000001982880010980000001060000000000000000                             2000000000000000000000000              000000000000                    0000000000000000000000000                    000000000000                                                                                                                                                                                                                                                                                                                                                                                                                                                                                        
00003940418750041DT67590675900000019828800109800000010680010987287283136900015698807051620230000000695413623000000000286571525475XXXXXX6395                         NY 4607AMWETTB1N60516  N840000000006954          81CNKETOFUSION 8885968154    526016    MC84000000006954 N  599977547467   E53E0EA8A0T8165D224168F  000000000+600450S00130    MWE  00564                     000000000  N                0000000000000.00 0000000.00   0000000.00                             000000000000000                                                                                                                                                     01424  000000000000-0000000000001.22     01750 00000                  
00003950418750042BH6759067590000001330080010280000090170516202313623000000000211172    0000090001902295Y8001026759C05172023                                                                                                                                                                                                                                                                                                                                                                                                                                                                                                                                                                                                 
00003960418750043DT67590675900000013300800102800000010180010224001193136900019017276051520230000001604013623000000000211172426684XXXXXX6301               2111111   NYV4 A7W303132609053655N840000000016040SKQQ00    01DNCBD8666317293            05169A    VS84000000016040 NP1549977133133   B515DF45B1T5F48B107228C  000000000+                A CA 12106                     000000000  N000000000 492   0000000000000.00 0000000.00   0000000.00                             000000000000000                                                                                                                                                     01424 G000000016040 0000000000003.13     01890 01000                  
00003970418750001P16759067590000001330080010280000001010000000000000000                             2000000000000000000000000              000000000000                    0000000000000000000000000                    000000000000                                                                                                                                                                                                                                                                                                                                                                                                                                                                                        
00003980418750044DT67590675900000013300800102800000010180010287287283136900019017301051520230000001987013623000000000211172526218XXXXXX8987       ME03KE06MS02      NY 4607AMDSOLIXS20512  N840000000019870          81DNCBD8666317293            33329Z    MD84000000019870 N  549977133133   4095250BB3T5C741ECBFB6C  000000000+600450S00130    MDS  10813                     000000000  1                0000000000000.00 0000000.00   0000000.00                             000000000000000                                                                                                                                                   U001424  000000000000 0000000000000.32     00050 02200                  
00003990418750045DT67590675900000013300800102800000010180010287287283136900019017657051520230000001499113623000000000211172510392XXXXXX0142       ME03KE06MS02      NY 4607AMDSB67XMZ0512  N840000000014991          81DNCBD8666317293            831428    MD84000000014991 N  549977133133   906CE5FF30T565AD1BE0DAF  000000000+600450S00130    MDS  10813                     000000000  1                0000000000000.00 0000000.00   0000000.00                             000000000000000                                                                                                                                                   U001424  000000000000 0000000000000.29     00050 02200                  
00004000418750046DT67590675900000013300800102800000010180010287287283136900019022038051520230000002136013623000000000211172542000XXXXXX1676       ME03KE06MS02      NY 4607AMDJRJEWVF0515  N840000000021360          81DNCBD8666317293            227495    MD84000000021360 N  549977133133   9D00D9AD47TEF4A3D2642F5  000000000+600450S00130    MDJ  00401                     000000000  N                0000000000000.00 0000000.00   0000000.00                             000000000000000                                                                                                                                                   U001424  000000000000 0000000000003.67     01650 01500                  
00004010418750047DT67590675900000013300800102800000010180010287287283136900019022087051520230000001272813623000000000211172519955XXXXXX7523       ME03KE06MS02      NY 4607AMWEZYZP1A0515  N840000000012728          81DNCBD8666317293            00158Z    MC84000000012728 N  549977133133   8245C16743TF0E1B12F7033  000000000+600450S00130    MWE  00737                     000000000  N                0000000000000.00 0000000.00   0000000.00                             000000000000000                                                                                                                                                   U001424  000000000000 0000000000003.41     02600 01000                  
00004020418750048DT67590675900000013300800102800000010180010224001193136900019022102051520230000002190713623000000000211172483313XXXXXX5882               2111111   NYV4 A7W463136027049107N840000000021907HXX800    01DNCBD8666317293            054520    VD84000000021907 NP1549977133133   501C9DC672T2CEA7256DE0D  000000000+                F DF 10420                     000000000  Y000000000 338   0000000000000.00 0000000.00   0000000.00                             000000000000000                                                                                                                                                     01424 G000000021907 0000000000000.33     00050 02200                  
00004030418750001P16759067590000001330080010280000001010000000000000000                             2000000000000000000000000              000000000000                    0000000000000000000000000                    000000000000                                                                                                                                                                                                                                                                                                                                                                                                                                                                                        
00004040418750049DT67590675900000013300800102800000010180010287287283136900019022145051520230000001400813623000000000211172517805XXXXXX2577       ME03KE06MS02      NY 4607AMPLTVZIVP0515  N840000000014008          81DNCBD8666317293            01158B    MC84000000014008 N  549977133133   0FF470AA52T3D3BD7B029F3  000000000+600450S00130    MPL  00580                     000000000  N                0000000000000.00 0000000.00   0000000.00                             000000000000000                                                                                                                                                   U001424  000000000000 0000000000003.04     02100 01000                  
00004050418750050DT67590675900000013300800102800000010180010224001193136900019022169051520230000002106213623000000000211172483950XXXXXX6306               2111111   NYV4 A7W463136059919109N840000000021062PJG800    01DNCBD8666317293            08564B    VS84000000021062 NP1549977133133   5FC9FF2385T907D95AC28EA  000000000+                B CB 12107                     000000000  N000000000 494   0000000000000.00 0000000.00   0000000.00                             000000000000000                                                                                                                                                     01424 G000000021062 0000000000004.40     02040 01000                  
00004060418750001P16759067590000001330080010280000001010000000000000000                             2000000000000000000000000              000000000000                    0000000000000000000000000                    000000000000                                                                                                                                                                                                                                                                                                                                                                                                                                                                                        
00004070418750051DT67590675900000013300800102800000010180010224001193136900019022193051520230000002255013623000000000211172413022XXXXXX1389               2111111   NYV4 A7W303136072630477N84000000002255045QD00    01DNCBD8666317293            666009    VD84000000022550 NP1549977133133   4EC8B0762CTB9E4089B740A  000000000+                F DF 00415                     000000000  N000000000       0000000000000.00 0000000.00   0000000.00                             000000000000000                                                                                                                                                     01424 G000000022550 0000000000003.87     01650 01500                  
00004080418750001P16759067590000001330080010280000001010000000000000000                             2000000000000000000000000              000000000000                    0000000000000000000000000                    000000000000                                                                                                                                                                                                                                                                                                                                                                                                                                                                                        
00004090418750052DT67590675900000013300800102800000010180010287287283136900019022277051520230000002661113623000000000211172526227XXXXXX0664       ME03KE06MS02      NY 4607AMDSBKD41B0515  N840000000026611          81DNCBD8666317293            28142Z    MD84000000026611 N  549977133133   23F0025A13TADCAC36A8C31  000000000+600450S00130    MDS  10813                     000000000  1                0000000000000.00 0000000.00   0000000.00                             000000000000000                                                                                                                                                   U001424  000000000000 0000000000000.35     00050 02200                  
00004100418750053DT67590675900000013300800102800000010180010224001193136900019022300051520230000002255013623000000000211172486732XXXXXX6800               2111111   NYV4 A7W583136107540016N8400000000225504J5D00    01DNCBD8666317293            045922    VD84000000022550 NP1549977133133   4C4F00D94AT03968DF644CB  000000000+                F DF 10420                     000000000  Y000000000 338   0000000000000.00 0000000.00   0000000.00                             000000000000000                                                                                                                                                     01424 G000000022550 0000000000000.33     00050 02200                  
00004110418750001P16759067590000001330080010280000001010000000000000000                             2000000000000000000000000              000000000000                    0000000000000000000000000                    000000000000                                                                                                                                                                                                                                                                                                                                                                                                                                                                                        
00004120418750054DT67590675900000013300800102800000010180010224001193136900019022391051620230000001499113623000000000211172481582XXXXXX7205               2111111   NYV4 A7W583136199061141N840000000014991V24S00    01DNCBD8666317293            163511    VD84000000014991 NP1549977133133   6054A8382DTE5572F2BBD64  000000000+                F DF 10420                     000000000  Y000000000 338   0000000000000.00 0000000.00   0000000.00                             000000000000000                                                                                                                                                     01424 G000000014991 0000000000000.29     00050 02200                  
00004130418750001P16759067590000001330080010280000001010000000000000000                             2000000000000000000000000              000000000000                    0000000000000000000000000                    000000000000                                                                                                                                                                                                                                                                                                                                                                                                                                                                                        
00004140418750055DT67590675900000013300800102800000010180010287287283136900019022459051620230000002118613623000000000211172536192XXXXXX7827       ME03KE06MS02      NY 4607AMDJ0QXK5J0516  N840000000021186          81DNCBD8666317293            439217    MD84000000021186 N  549977133133   523C9A90E4T9A6592B7EBDB  000000000+600450S00130    MDJ  00401                     000000000  N                0000000000000.00 0000000.00   0000000.00                             000000000000000                                                                                                                                                   U001424  000000000000 0000000000003.65     01650 01500                  
00004150418750056DT67590675900000013300800102800000010680010274001193136900019022560051620230000002146013623000000000211172444796XXXXXX1346               0000000   NYV4 07T463136470519679N840000000021460G6NW00    01CNCBD8666317293            016654    VS84000000021460 NP1549977133133   BDD55533F0T0280AF140A95  000000000+                A CA 00245                     000000000  N000000000 166   0000000000000.00 0000000.00   0000000.00                             000000000000000                                                                                                                                                     01424  000000021460-0000000000003.78     01760 00000                  
00004160418750001P16759067590000001330080010280000001060000000000000000                             2000000000000000000000000              000000000000                    0000000000000000000000000                    000000000000                                                                                                                                                                                                                                                                                                                                                                                                                                                                                        
00004170418750057DT67590675900000013300800102800000010680010274001193136900019022578051620230000001606213623000000000211172483950XXXXXX6306               0000000   NYV4 07T463136495441057N8400000000160625SMH00    01CNCBD8666317293            06347B    VS84000000016062 NP1549977133133   5FC9FF2385T907D95AC28EA  000000000+                B CB 00245                     000000000  N000000000 166   0000000000000.00 0000000.00   0000000.00                             000000000000000                                                                                                                                                     01424  000000016062-0000000000002.83     01760 00000                  
00004180418750001P16759067590000001330080010280000001060000000000000000                             2000000000000000000000000              000000000000                    0000000000000000000000000                    000000000000                                                                                                                                                                                                                                                                                                                                                                                                                                                                                        
00004190418750058DT67590675900000013300800102800000010680010274001193136900019022594051620230000001755113623000000000211172486732XXXXXX6800               0000000   NYV4 07T303136542517499N840000000017551C3WR85    01CNCBD8666317293            072088    VD84000000017551 NP1549977133133   4C4F00D94AT03968DF644CB  000000000+                F DF 08168                     000000000  Y000000000 369   0000000000000.00 0000000.00   0000000.00                             000000000000000                                                                                                                                                     01424  000000017551 0000000000000.00     00000 00000                  
00004200418750001P16759067590000001330080010280000001060000000000000000                             2000000000000000000000000              000000000000                    0000000000000000000000000                    000000000000                                                                                                                                                                                                                                                                                                                                                                                                                                                                                        
00004210418750059DT67590675900000013300800102800000010180010224001193136900019022631051620230000002136013623000000000211172438854XXXXXX4285               2111111   NYV4 A7W463136546104434N8400000000213603VJ500    01DNCBD8666317293            00313D    VS84000000021360 NP1549977133133   8B8B8DF78CT5969C49426D5  000000000+                D CD 12109                     000000000  N000000000 498   0000000000000.00 0000000.00   0000000.00                             000000000000000                                                                                                                                                     01424 G000000021360 0000000000005.44     02500 01000                  
00004220418750001P16759067590000001330080010280000001010000000000000000                             2000000000000000000000000              000000000000                    0000000000000000000000000                    000000000000                                                                                                                                                                                                                                                                                                                                                                                                                                                                                        
00004230418750060DT67590675900000013300800102800000010680010287287283136900019022640051620230000002147913623000000000211172515678XXXXXX5497                         NY 4607AMWECTYKBU0516  N840000000021479          81CNCBD8666317293            006760    MC84000000021479 N  549977133133   A3ABF6B6B9TC98FACF5710D  000000000+600450S00130    MWE  00565                     000000000  N                0000000000000.00 0000000.00   0000000.00                             000000000000000                                                                                                                                                     01424  000000000000-0000000000003.76     01750 00000                  
00004240418750061DT67590675900000013300800102800000010680010274001193136900019022693051620230000001640813623000000000211172414709XXXXXX0538               0000000   NYV4 07T303136564187038N840000000016408WW6L85    01CNCBD8666317293            053977    VS84000000016408 NP1549977133133   E38BD0BC75T2FCE2D8BB60F  000000000+                D CD 00245                     000000000  N000000000 166   0000000000000.00 0000000.00   0000000.00                             000000000000000                                                                                                                                                     01424  000000016408-0000000000002.89     01760 00000                  
00004250418750001P16759067590000001330080010280000001060000000000000000                             2000000000000000000000000              000000000000                    0000000000000000000000000                    000000000000                                                                                                                                                                                                                                                                                                                                                                                                                                                                                        
00004260418750062DT67590675900000013300800102800000010180010287287283136900019022707051620230000001987013623000000000211172527519XXXXXX4989       ME03KE06MS02      NY 4607AMDJSKGP0O0516  N840000000019870          81DNCBD8666317293            154834    MD84000000019870 N  549977133133   CE97CD6495TCF0F6D716307  000000000+600450S00130    MDJ  10813                     000000000  1                0000000000000.00 0000000.00   0000000.00                             000000000000000                                                                                                                                                   U001424  000000000000 0000000000000.32     00050 02200                  
00004270418750063DT67590675900000013300800102800000010180010224001193136900019022730051620230000001604013623000000000211172426684XXXXXX9517               2111111   NYV4 A7W303136570097256N840000000016040M37B00    01DNCBD8666317293            00299C    VS84000000016040 NP1549977133133   4F04F53BB8T0D67AEBF71FD  000000000+                C CC 12108                     000000000  N000000000 496   0000000000000.00 0000000.00   0000000.00                             000000000000000                                                                                                                                                     01424 G000000016040 0000000000003.39     02050 01000                  
00004280418750001P16759067590000001330080010280000001010000000000000000                             2000000000000000000000000              000000000000                    0000000000000000000000000                    000000000000                                                                                                                                                                                                                                                                                                                                                                                                                                                                                        
00004290418750064DT67590675900000013300800102800000010180010224001193136900019022771051620230000001596513623000000000211172474643XXXXXX2555               2111111   NYV4 A7W583136587952809N840000000015965X8F900    01DNCBD8666317293            282297    VD84000000015965 NP1549977133133   367A3816CDTE4F8BD59EF40  000000000+                F DF 00415                     000000000  N000000000       0000000000000.00 0000000.00   0000000.00                             000000000000000                                                                                                                                                     01424 G000000015965 0000000000002.78     01650 01500                  
00004300418750001P16759067590000001330080010280000001010000000000000000                             2000000000000000000000000              000000000000                    0000000000000000000000000                    000000000000                                                                                                                                                                                                                                                                                                                                                                                                                                                                                        
00004310418750065DT67590675900000013300800102800000010180010287287283136900019022780051620230000001987013623000000000211172515676XXXXXX1795       ME03KE06MS02      NY 4607AMWELJKX520516  N840000000019870          81DNCBD8666317293            00157Z    MC84000000019870 N  549977133133   F2DBFF1165T8A33F23EDC89  000000000+600450S00130    MWE  00737                     000000000  N                0000000000000.00 0000000.00   0000000.00                             000000000000000                                                                                                                                                   U001424  000000000000 0000000000005.27     02600 01000                  
00004320418750066DT67590675900000013300800102800000010680010287287283136900019022798051620230000001484813623000000000211172552433XXXXXX9059                         NY 4607AMCWEW8VBU0516  N840000000014848          81CNCBD8666317293            041352    MC84000000014848 N  549977133133   38223CA583T95EE493E0232  000000000+600450S00130    MCW  00565                     000000000  N                0000000000000.00 0000000.00   0000000.00                             000000000000000                                                                                                                                                     01424  000000000000-0000000000002.60     01750 00000                  
00004330418750067DT67590675900000013300800102800000010680010287287283136900019022806051620230000002255013623000000000211172527515XXXXXX0399                         NY 4607AMDJBWM55N0516  N840000000022550          81CNCBD8666317293            994905    MD84000000022550 N  549977133133   87CAAA20A8T556BDAEBD794  000000000+600450S00130    MDJ  10828                     000000000  1                0000000000000.00 0000000.00   0000000.00                             000000000000000                                                                                                                                                     01424  000000000000 0000000000000.00     00000 00000                  
00004340418750068DT67590675900000013300800102800000010180010287287283136900019022822051620230000001844113623000000000211172517805XXXXXX6149       ME03KE06MS02      NY 4607AMPLCD790P0516  N840000000018441          81DNCBD8666317293            00152B    MC84000000018441 N  549977133133   B3BAEA15A3TA107D1E676F8  000000000+600450S00130    MPL  00580                     000000000  N                0000000000000.00 0000000.00   0000000.00                             000000000000000                                                                                                                                                   U001424  000000000000 0000000000003.97     02100 01000                  
00004350418750069DT67590675900000013300800102800000010680010274001193136900019022958051620230000001987013623000000000211172462140XXXXXX2545               0000000   NYV4 07T383136756099713N840000000019870VSCM00    01CNCBD8666317293            019757    VS84000000019870 NP1549977133133   F1DBE25DAFTCE65DB641B75  000000000+                B CB 00245                     000000000  N000000000 166   0000000000000.00 0000000.00   0000000.00                             000000000000000                                                                                                                                                     01424  000000019870-0000000000003.50     01760 00000                  
00004360418750001P16759067590000001330080010280000001060000000000000000                             2000000000000000000000000              000000000000                    0000000000000000000000000                    000000000000                                                                                                                                                                                                                                                                                                                                                                                                                                                                                        
00004370418750070BH6759067590000001767380010680000090170516202313623000000000074892    0000090001482053Y8001066759C05172023                                                                                                                                                                                                                                                                                                                                                                                                                                                                                                                                                                                                 
00004380418750071DT67590675900000017673800106800000010680010674001193136900014819721051520230000000354213623000000000074892434256XXXXXX4056               0000000   NYV4 07T303136054575324N840000000003542VLT800    01CNVGHEMP.COM833-246-5225   036348    VD84000000003542 NP1549977427364   0AA238A3D6TDE1F13C4C3D1  000000000+                F DF 08168                     000000000  Y000000000 369   0000000000000.00 0000000.00   0000000.00                             000000000000000                                                                                                                                                     01424  000000003542 0000000000000.00     00000 00000                  
00004390418750001P16759067590000001767380010680000001060000000000000000                             2000000000000000000000000              000000000000                    0000000000000000000000000                    000000000000                                                                                                                                                                                                                                                                                                                                                                                                                                                                                        
00004400418750072DT67590675900000017673800106800000010180010624001193136900014820054051620230000002178913623000000000074892460224XXXXXX2554               2111111   NYV4 A7W303136472486515N840000000021789K4GL00    01DNVGHEMP.COM833-246-5225   060728    VS84000000021789 NP1549977427364   090E403CBCT500CA2043029  000000000+                A CA 12106                     000000000  N000000000 492   0000000000000.00 0000000.00   0000000.00                             000000000000000                                                                                                                                                     01424 G000000021789 0000000000004.22     01890 01000                  
00004410418750001P16759067590000001767380010680000001010000000000000000                             2000000000000000000000000              000000000000                    0000000000000000000000000                    000000000000                                                                                                                                                                                                                                                                                                                                                                                                                                                                                        
00004420418750073DT67590675900000017673800106800000010180010624001193136900014820138051620230000001306713623000000000074892448261XXXXXX2669               2111111   NYV4 A7W303136508741269N840000000013067MGT300    01DNVGHEMP.COM833-246-5225   336571    VD84000000013067 NP1549977427364   5210209408TA6D16829492E  000000000+                F DF 10420                     000000000  Y000000000 338   0000000000000.00 0000000.00   0000000.00                             000000000000000                                                                                                                                                     01424 G000000013067 0000000000000.29     00050 02200                  
00004430418750001P16759067590000001767380010680000001010000000000000000                             2000000000000000000000000              000000000000                    0000000000000000000000000                    000000000000                                                                                                                                                                                                                                                                                                                                                                                                                                                                                        
00004440418750074DT67590675900000017673800106800000010180010687287283136900014820527051620230000002178913623000000000074892529107XXXXXX5043       ME03KE06MS02      NY 4607AMPLM88HEI0516  N840000000021789          81DNVGHEMP.COM833-246-5225   04730B    MC84000000021789 N  549977427364   2813C58E24TE68453594B2E  000000000+600450S00130    MPL  00580                     000000000  N                0000000000000.00 0000000.00   0000000.00                             000000000000000                                                                                                                                                   U001424  000000000000 0000000000004.68     02100 01000                  
00004450418750075DT67590675900000017673800106800000010180010687287283136900014820535051620230000002178913623000000000074892517800XXXXXX2172       ME03KE06MS02      NY 4607AMCSIT07EW0516  N840000000021789          81DNVGHEMP.COM833-246-5225   016273    MC84000000021789 N  549977427364   B9B6E4EADETC8590F0F44FB  000000000+600450S00130    MCS  00013                     000000000  N                0000000000000.00 0000000.00   0000000.00                             000000000000000                                                                                                                                                   U001424  000000000000 0000000000004.35     01950 01000                  
00004460418750076BH6759067590000002325980011680000090170516202313623000000000058200    0000090001452110Y8001166759C05172023                                                                                                                                                                                                                                                                                                                                                                                                                                                                                                                                                                                                 
00004470418750077DT67590675900000023259800116800000010180011687287283136900014520176051520230000000881913623000000000058200510805XXXXXX0897       ME03KE06MS02      NY 4607AMDJRCSLVF0515  N840000000008819          81DNGFORCEHEMP844-258-9322   090742    MD84000000008819 N  549977768166   2324B3FDC3TBF4283D82989  000000000+600450S00130    MDJ  10813                     000000000  1                0000000000000.00 0000000.00   0000000.00                             000000000000000                                                                                                                                                   U001424  000000000000 0000000000000.26     00050 02200                  
00004480418750078DT67590675900000023259800116800000010180011687287283136900014520465051620230000001306713623000000000058200517479XXXXXX2771       ME03KE06MS02      NY 4607AMPLOGT35D0516  N840000000013067          81DNGFORCEHEMP844-258-9322   01637B    MC84000000013067 N  549977768166   FC8BA576EET9CCA89DCD989  000000000+600450S00130    MPL  00580                     000000000  N                0000000000000.00 0000000.00   0000000.00                             000000000000000                                                                                                                                                   U001424  000000000000 0000000000002.84     02100 01000                  
00004490418750079DT67590675900000023259800116800000010180011687287283136900014520473051620230000000544913623000000000058200517479XXXXXX2771       ME03KE06MS02      NY 4607AMPLGKIM520516  N840000000005449          81DNGFORCEHEMP844-258-9322   01615B    MC84000000005449 N  549977768166   FC8BA576EET8E7D65DC298E  000000000+600450S00130    MPL  00580                     000000000  N                0000000000000.00 0000000.00   0000000.00                             000000000000000                                                                                                                                                   U001424  000000000000 0000000000001.24     02100 01000                  
00004500418750080DT67590675900000023259800116800000010180011687287283136900014520515051620230000002178913623000000000058200552433XXXXXX9458       ME03KE06PT01      NY 4607AMCWHB8M520516  N840000000021789          81DNGFORCEHEMP844-258-9322   00932Z    MC84000000021789 N  549977768166   FDA36CD8BBT3973ABF0FD53  000000000+600450S00130    MCW  00642                     000000000  N                0000000000000.00 0000000.00   0000000.00                             000000000000000                                                                                                                                                   U001424  000000000000 0000000000004.89     02200 01000                  
00004510418750081DT67590675900000023259800116800000010180011687287283136900014520754051620230000001162613623000000000058200553681XXXXXX4035       ME03KE06MS02      NY 4607AMDHROZ70O0516  N840000000011626          81DNGFORCEHEMP844-258-9322   195021    MD84000000011626 N  549977768166   099A61DDC9T1382FB63B16B  000000000+600450S00130    MDH  10813                     000000000  1                0000000000000.00 0000000.00   0000000.00                             000000000000000                                                                                                                                                   U001424  000000000000 0000000000000.28     00050 02200                  
00004520418750082DT67590675900000023259800116800000010680011687287283136900014520812051620230000000544913623000000000058200515678XXXXXX8286                         NY 4607AMWEZ83G0O0516  N840000000005449          81CNGFORCEHEMP844-258-9322   011980    MC84000000005449 N  549977768166   ECC1060835TC0F8500CE758  000000000+600450S00130    MWE  00565                     000000000  N                0000000000000.00 0000000.00   0000000.00                             000000000000000                                                                                                                                                     01424  000000000000-0000000000000.95     01750 00000                  
00004530418750083DT67590675900000023259800116800000010180011687287283136900014520911051620230000002178913623000000000058200523707XXXXXX2457       ME03KE06MS02      NY 4607AMDJK6S5520516  N840000000021789          81DNGFORCEHEMP844-258-9322   074985    MD84000000021789 N  549977768166   CA5C4E8B66T16B7E8A97B57  000000000+600450S00130    MDJ  00401                     000000000  N                0000000000000.00 0000000.00   0000000.00                             000000000000000                                                                                                                                                   U001424  000000000000 0000000000003.75     01650 01500                  
00004540418750084DT67590675900000023259800116800000010680011674001193136900014520931051620230000000799613623000000000058200403766XXXXXX3870               0000000   NYV4 07T583136590169375N840000000007996D9XK00    01CNGFORCEHEMP844-258-9322   116132    VS84000000007996 NP1549977768166   374E4E1A2FTB4063E0F7EC3  000000000+                A CA 00245                     000000000  N000000000 166   0000000000000.00 0000000.00   0000000.00                             000000000000000                                                                                                                                                     01424  000000007996-0000000000001.41     01760 00000                  
00004550418750001P16759067590000002325980011680000001060000000000000000                             2000000000000000000000000              000000000000                    0000000000000000000000000                    000000000000                                                                                                                                                                                                                                                                                                                                                                                                                                                                                        
00004560418750085DT67590675900000023259800116800000010180011624001193136900014520977051620230000001306713623000000000058200477349XXXXXX1543               2111111   NYV4 A7W303136616390228N840000000013067MFT900    01DNGFORCEHEMP844-258-9322   343813    VD84000000013067 NP1549977768166   A44F8C7100T1A4CEB0C1499  000000000+                F DF 00415                     000000000  N000000000       0000000000000.00 0000000.00   0000000.00                             000000000000000                                                                                                                                                     01424 G000000013067 0000000000002.31     01650 01500                  
00004570418750001P16759067590000002325980011680000001010000000000000000                             2000000000000000000000000              000000000000                    0000000000000000000000000                    000000000000                                                                                                                                                                                                                                                                                                                                                                                                                                                                                        
00004580418750086DT67590675900000023259800116800000010180011687287283136900014521042051620230000002178913623000000000058200555687XXXXXX5061       ME03KE06MS02      NY 4607AMDJNTNJEW0516  N840000000021789          81DNGFORCEHEMP844-258-9322   707312    MD84000000021789 N  549977768166   8F90987A63T5612D28A7637  000000000+600450S00130    MDJ  00401                     000000000  N                0000000000000.00 0000000.00   0000000.00                             000000000000000                                                                                                                                                   U001424  000000000000 0000000000003.75     01650 01500                  
00004590418750087DT67590675900000023259800116800000010680011674001193136900014521053051620230000002178913623000000000058200419742XXXXXX3046               0000000   NYV4 07T383136731188875N8400000000217895JSC00    01CNGFORCEHEMP844-258-9322   05163D    VS84000000021789 NP1549977768166   6B25AA9E5ET00C48C1ABFCA  000000000+                D CD 00245                     000000000  N000000000 166   0000000000000.00 0000000.00   0000000.00                             000000000000000                                                                                                                                                     01424  000000021789-0000000000003.83     01760 00000                  
00004600418750001P16759067590000002325980011680000001060000000000000000                             2000000000000000000000000              000000000000                    0000000000000000000000000                    000000000000                                                                                                                                                                                                                                                                                                                                                                                                                                                                                        
00004610418750088DT67590675900000023259800116800000010680011674001193136900014521061051620230000000544913623000000000058200419742XXXXXX3046               0000000   NYV4 07T583136731317470N840000000005449H48N00    01CNGFORCEHEMP844-258-9322   05547D    VS84000000005449 NP1549977768166   BCC8938E52T4DF4440BEF86  000000000+                D CD 00245                     000000000  N000000000 166   0000000000000.00 0000000.00   0000000.00                             000000000000000                                                                                                                                                     01424  000000005449-0000000000000.96     01760 00000                  
00004620418750001P16759067590000002325980011680000001060000000000000000                             2000000000000000000000000              000000000000                    0000000000000000000000000                    000000000000                                                                                                                                                                                                                                                                                                                                                                                                                                                                                        
00004630418750089DT67590675900000023259800116800000010680011674001193136900014521079051620230000002178913623000000000058200419742XXXXXX3046               0000000   NYV4 07T383136731412747N8400000000217896SHW00    01CNGFORCEHEMP844-258-9322   07059D    VS84000000021789 NP1549977768166   BCC8938E52T0A4A19E13F9D  000000000+                D CD 00245                     000000000  N000000000 166   0000000000000.00 0000000.00   0000000.00                             000000000000000                                                                                                                                                     01424  000000021789-0000000000003.83     01760 00000                  
00004640418750001P16759067590000002325980011680000001060000000000000000                             2000000000000000000000000              000000000000                    0000000000000000000000000                    000000000000                                                                                                                                                                                                                                                                                                                                                                                                                                                                                        
00004650418750090DT67590675900000023259800116800000010180011624001193136900014521082051620230000001307713623000000000058200462161XXXXXX3762               2111111   NYV4 A7W303136761010008N8400000000130778LFT00    01DNGFORCEHEMP844-258-9322   832665    VD84000000013077 NP1549977768166   5F8496ACECTF53F81721A31  000000000+                F DF 00415                     000000000  N000000000       0000000000000.00 0000000.00   0000000.00                             000000000000000                                                                                                                                                     01424 G000000013077 0000000000002.31     01650 01500                  
00004660418750001P16759067590000002325980011680000001010000000000000000                             2000000000000000000000000              000000000000                    0000000000000000000000000                    000000000000                                                                                                                                                                                                                                                                                                                                                                                                                                                                                        
00004670418750091DT67590675900000023259800116800000010680011674001193136900014521103051620230000000980013623000000000058200462161XXXXXX3762               0000000   NYV4 07T303136787553483N840000000009800CBXB00    01CNGFORCEHEMP844-258-9322   005422    VD84000000009800 NP1549977768166   455DAE22E7T77F13E86EE4F  000000000+                F DF 08168                     000000000  N000000000 369   0000000000000.00 0000000.00   0000000.00                             000000000000000                                                                                                                                                     01424  000000009800 0000000000000.00     00000 00000                  
00004680418750001P16759067590000002325980011680000001060000000000000000                             2000000000000000000000000              000000000000                    0000000000000000000000000                    000000000000                                                                                                                                                                                                                                                                                                                                                                                                                                                                                        
00004690418750092BH6759067590000002391180012080000090170516202313623000000000063216    0000090001170366Y8001206759C05172023                                                                                                                                                                                                                                                                                                                                                                                                                                                                                                                                                                                                 
00004700418750093DT67590675900000023911800120800000010180012087287283136900011703635051620230000002179913623000000000063216521876XXXXXX4110       ME03KE06MS02      NY 4607AMWEK8CX740516  N840000000021799          81DN8442835587VITASUREMEDICAL62050Z    MC84000000021799 N  599977875615   D658BE371DTCD92BB62ECDE  000000000+600450S00130    MWE  00737                     000000000  N                0000000000000.00 0000000.00   0000000.00                             000000000000000                                                                                                                                                   U001424  000000000000 0000000000005.77     02600 01000                  
00004710418750094DT67590675900000023911800120800000010180012024001193136900011703642051620230000001307913623000000000063216435173XXXXXX6250               2111111   NYV4 A7W383136760811481N840000000013079TGST00    01DN8442835587VITASUREMEDICAL077050    VD84000000013079 NP1599977875615   0A8405E6E3T395467762649  000000000+                F DF 10420                     000000000  Y000000000 338   0000000000000.00 0000000.00   0000000.00                             000000000000000                                                                                                                                                     01424 G000000013079 0000000000000.29     00050 02200                  
00004720418750001P16759067590000002391180012080000001010000000000000000                             2000000000000000000000000              000000000000                    0000000000000000000000000                    000000000000                                                                                                                                                                                                                                                                                                                                                                                                                                                                                        
00004730418750095DT67590675900000023911800120800000010180012024001193136900011703659051620230000002179913623000000000063216414709XXXXXX2963               2111111   NYV4 A7W463136761224557N840000000021799NXRP00    01DN8442835587VITASUREMEDICAL05278D    VS84000000021799 NP1599977875615   CC1DEB685BT12416ED7DD9C  000000000+                D CD 12109                     000000000  N000000000 498   0000000000000.00 0000000.00   0000000.00                             000000000000000                                                                                                                                                     01424 G000000021799 0000000000005.55     02500 01000                  
00004740418750001P16759067590000002391180012080000001010000000000000000                             2000000000000000000000000              000000000000                    0000000000000000000000000                    000000000000                                                                                                                                                                                                                                                                                                                                                                                                                                                                                        
00004750418750096DT67590675900000023911800120800000010180012087287283136900011703668051620230000000653913623000000000063216552393XXXXXX6238       ME03KE06PT01      NY 4607AMCW0C6L840516  N840000000006539          81DN8442835587VITASUREMEDICAL05472Z    MC84000000006539 N  599977875615   7777DE5455T160BEE0D5618  000000000+600450S00130    MCW  00642                     000000000  N                0000000000000.00 0000000.00   0000000.00                             000000000000000                                                                                                                                                   U001424  000000000000 0000000000001.54     02200 01000                  
00004760418750097BH6759067590000001427480010280000090170516202313623000000000587493    0000090001901671Y8001026759C05172023                                                                                                                                                                                                                                                                                                                                                                                                                                                                                                                                                                                                 
