00021400137640002BH6759067590000001516480088880000090170706202318723000000000031818    0000090001299015Y8008886759C07072023129                                                                                                                                                                                                                                                                                                                                                                                                                                                                                                                                                                                              
00021410137640003DT67590675900000015164800888800000010180088887287283187900012989421070520230000001987018723000000000031818542418XXXXXX8307       ME03KE06MS02      NY 4607AMWEV2KR4O0702  N840000000019870          81DNKETOFUSION833-923-3587   75108P    MC84000000019870 NDR599977360677   3B924CF151TF5060FC185D2  000000000+600450S00130    MWE  00737                     000000000  N                0000000000000.00 0000000.00   0000000.00                             000000000000000                                                                                                                                                   U001424  000000000000 0000000000005.27     02600 01000                  
00021420137640003DR6759067590000001516480088880000001013B924CF151TF5060FC185D2  Y000000000000                                                                                                                                                                                                                                                                                                                                                                                                                                                                                                                                                                                                                               
00021430137640001G2675906759000000151648008888000000101833-9233587              UT           9 E               210                                      NNNN           210000000000000000000000000                        7                                          77360677                                                                                                                                                                                                                                                                                                                                                                                                                                               
00021440137640004DT67590675900000015164800888800000010180088887287283187900012990155070620230000001194818723000000000031818523914XXXXXX2253       ME03KE06PT01      NY 4607AMCWGOZHE10706  N840000000011948          81DNKETOFUSION833-923-3587   04485Z    MC84000000011948 NDR599977360677   9DE2FFC0FATCEC809B9D4F6  000000000+600450S00130    MCW  00642                     000000000  N                0000000000000.00 0000000.00   0000000.00                             000000000000000                                                                                                                                                   U001424  000000000000 0000000000002.73     02200 01000                  
00021450137640004DR6759067590000001516480088880000001019DE2FFC0FATCEC809B9D4F6  Y000000000000                                                                                                                                                                                                                                                                                                                                                                                                                                                                                                                                                                                                                               
00021460137640001G2675906759000000151648008888000000101833-9233587              UT           9 W               210                                      NNNN           210000000000000000000000000                        7                                          77360677                                                                                                                                                                                                                                                                                                                                                                                                                                               
00021470137640005BH6759067590000003469480014280000090170706202318723000000000150000    0000090001110027Y8001426759C07072023011                                                                                                                                                                                                                                                                                                                                                                                                                                                                                                                                                                                              
00021480137640006DT67590675900000034694800142800000010180014224001193187900011100276070620230000015000018723000000000150000415417XXXXXX3561       PS01EF100000000   NYV4 07N463187670237199N8400000001500007JWN00    01DNHORIZON WHOLESALE LLC    01102G    VB84000000150000 N  549978512084                            000000000+                G1CG111885                     000000000  N000000010 148   0000000000000.00 0000000.00   0000000.00                             000000000000000                                                                                                                                                     01424  000000000000 0000000000047.45     03150 02000                  
00021490137640001G2675906759000000346948001428000000101801-5186233              UT           9 C                00                                      NNNN00 Y 00                   000000000000                                                                   78512084                                                                                                                                                                                                                                                                                                                                                                                                                                               
00021500137640007BH6759067590000000370780088880000090170706202318723000000000157638    0000090001311202Y8008886759C07072023131                                                                                                                                                                                                                                                                                                                                                                                                                                                                                                                                                                                              
00021510137640008DT67590675900000003707800888800000010180088824001193187900013111867070520230000002030018723000000000157638432739XXXXXX6815               2111111   NYV4 A7W583187021275823N8400000000203004CWX00    01DNMR HEMP FLOWER           824310    VD84000000020300 NDR549976053336   91817                    000000000+                F DF 10420                     000000000  Y000000000 338   0000000000000.00 0000000.00   0000000.00                             000000000000000                                                                                                                                                     01424 G000000020300 0000000000000.32     00050 02200                  
00021520137640008DR67590675900000003707800888800000010191817                    Z000000020300                 P1                                                                                                                                                                                                                                                                                                                                                                                                                                                                                                                                                                                                            
00021530137640001P16759067590000000370780088880000001010000000000000000                             2000000000000000000000000              000000000000                    0000000000000000000000000                    000000000000                                                                                                                                                                                                                                                                                                                                                                                                                                                                                        
00021540137640002G2675906759000000037078008888000000101833-3877579              FL           9 D                00                                      NNNN   N                      000000000000                                                                   76053336                                                                                                                                                                                                                                                                                                                                                                                                                                               
00021550137640009DT67590675900000003707800888800000010180088887287283187900013111876070520230000001009718723000000000157638521267XXXXXX0638       ME03KE06MS02      NY 4607AMWEE5UNM30705  N840000000010097          81DNMR HEMP FLOWER           11565Z    MC84000000010097 NDR549976053336   91818                    000000000+600450S00130    MWE  00737                     000000000  N                0000000000000.00 0000000.00   0000000.00                             000000000000000                                                                                                                                                   U001424  000000000000 0000000000002.73     02600 01000                  
00021560137640009DR67590675900000003707800888800000010191818                    Y000000000000                                                                                                                                                                                                                                                                                                                                                                                                                                                                                                                                                                                                                               
00021570137640001G2675906759000000037078008888000000101833-3877579              FL           9 E               210                                      NNNN           210000000000000000000000000                                                                   76053336                                                                                                                                                                                                                                                                                                                                                                                                                                               
00021580137640010DT67590675900000003707800888800000010180088824001193187900013111883070520230000001624918723000000000157638426684XXXXXX0049               2111111   NYV4 A7W303187023451712N840000000016249DZ7R00    01DNMR HEMP FLOWER           07174D    VS84000000016249 NDR549976053336   91819                    000000000+                D CD 12109                     000000000  N000000000 498   0000000000000.00 0000000.00   0000000.00                             000000000000000                                                                                                                                                     01424 G000000016249 0000000000004.16     02500 01000                  
00021590137640010DR67590675900000003707800888800000010191819                    Y000000016249                 P1                                                                                                                                                                                                                                                                                                                                                                                                                                                                                                                                                                                                            
00021600137640001P16759067590000000370780088880000001010000000000000000                             2000000000000000000000000              000000000000                    0000000000000000000000000                    000000000000                                                                                                                                                                                                                                                                                                                                                                                                                                                                                        
00021610137640002G2675906759000000037078008888000000101833-3877579              FL           9 C                00                                      NNNN   Y                      000000000000                                                                   76053336                                                                                                                                                                                                                                                                                                                                                                                                                                               
00021620137640011DT67590675900000003707800888800000010180088824001193187900013111891070520230000000582418723000000000157638433477XXXXXX0992               2111111   NYV4 A7W583187026144801N840000000005824PCVJ00    01DNMR HEMP FLOWER           816804    VD84000000005824 NDR549976053336   833                      000000000+                F DF 10420                     000000000  Y000000000 338   0000000000000.00 0000000.00   0000000.00                             000000000000000                                                                                                                                                     01424 G000000005824 0000000000000.25     00050 02200                  
00021630137640011DR675906759000000037078008888000000101833                      Y000000005824                 P1                                                                                                                                                                                                                                                                                                                                                                                                                                                                                                                                                                                                            
00021640137640001P16759067590000000370780088880000001010000000000000000                             2000000000000000000000000              000000000000                    0000000000000000000000000                    000000000000                                                                                                                                                                                                                                                                                                                                                                                                                                                                                        
00021650137640002G2675906759000000037078008888000000101833-3877579              FL           9 D                00                                      NNNN   N                      000000000000                                                                   76053336                                                                                                                                                                                                                                                                                                                                                                                                                                               
00021660137640012DT67590675900000003707800888800000010180088824001193187900013111909070520230000001427218723000000000157638438854XXXXXX3584               2111111   NYV4 A7W583187042552187N840000000014272TR3J00    01DNMR HEMP FLOWER           01668D    VS84000000014272 NDR549976053336   91820                    000000000+                D CD 12109                     000000000  N000000000 498   0000000000000.00 0000000.00   0000000.00                             000000000000000                                                                                                                                                     01424 G000000014272 0000000000003.67     02500 01000                  
00021670137640012DR67590675900000003707800888800000010191820                    Y000000014272                 P1                                                                                                                                                                                                                                                                                                                                                                                                                                                                                                                                                                                                            
00021680137640001P16759067590000000370780088880000001010000000000000000                             2000000000000000000000000              000000000000                    0000000000000000000000000                    000000000000                                                                                                                                                                                                                                                                                                                                                                                                                                                                                        
00021690137640002G2675906759000000037078008888000000101833-3877579              FL           9 C                00                                      NNNN   Y                      000000000000                                                                   76053336                                                                                                                                                                                                                                                                                                                                                                                                                                               
00021700137640013DT67590675900000003707800888800000010180088824001193187900013111917070520230000001274818723000000000157638432739XXXXXX3119               2111111   NYV4 A7W583187064306814N840000000012748ZV6T00    01DNMR HEMP FLOWER           957179    VD84000000012748 NDR549976053336   91821                    000000000+                F DF 10420                     000000000  Y000000000 338   0000000000000.00 0000000.00   0000000.00                             000000000000000                                                                                                                                                     01424 G000000012748 0000000000000.28     00050 02200                  
00021710137640013DR67590675900000003707800888800000010191821                    Y000000012748                 P1                                                                                                                                                                                                                                                                                                                                                                                                                                                                                                                                                                                                            
00021720137640001P16759067590000000370780088880000001010000000000000000                             2000000000000000000000000              000000000000                    0000000000000000000000000                    000000000000                                                                                                                                                                                                                                                                                                                                                                                                                                                                                        
00021730137640002G2675906759000000037078008888000000101833-3877579              FL           9 D                00                                      NNNN   N                      000000000000                                                                   76053336                                                                                                                                                                                                                                                                                                                                                                                                                                               
00021740137640014DT67590675900000003707800888800000010180088824001193187900013111925070520230000001295018723000000000157638426684XXXXXX0111               2111111   NYV4 A7W383187132312024N840000000012950Z8FH00    01DNMR HEMP FLOWER           00956C    VS84000000012950 NDR549976053336   91828                    000000000+                C CC 12108                     000000000  N000000000 496   0000000000000.00 0000000.00   0000000.00                             000000000000000                                                                                                                                                     01424 G000000012950 0000000000002.75     02050 01000                  
00021750137640014DR67590675900000003707800888800000010191828                    Y000000012950                 P1                                                                                                                                                                                                                                                                                                                                                                                                                                                                                                                                                                                                            
00021760137640001P16759067590000000370780088880000001010000000000000000                             2000000000000000000000000              000000000000                    0000000000000000000000000                    000000000000                                                                                                                                                                                                                                                                                                                                                                                                                                                                                        
00021770137640002G2675906759000000037078008888000000101833-3877579              FL           9 C                00                                      NNNN   Y                      000000000000                                                                   76053336                                                                                                                                                                                                                                                                                                                                                                                                                                               
00021780137640015DT67590675900000003707800888800000010180088887287283187900013111934070520230000001077918723000000000157638518725XXXXXX1627       ME03KE06MS02      NY 4607AMWEFERG7S0705  N840000000010779          81DNMR HEMP FLOWER           06947Z    MC84000000010779 NDR549976053336   91829                    000000000+600450S00130    MWE  00737                     000000000  N                0000000000000.00 0000000.00   0000000.00                             000000000000000                                                                                                                                                   U001424  000000000000 0000000000002.90     02600 01000                  
00021790137640015DR67590675900000003707800888800000010191829                    Y000000000000                                                                                                                                                                                                                                                                                                                                                                                                                                                                                                                                                                                                                               
00021800137640001G2675906759000000037078008888000000101833-3877579              FL           9 E               210                                      NNNN           210000000000000000000000000                        7                                          76053336                                                                                                                                                                                                                                                                                                                                                                                                                                               
00021810137640016DT67590675900000003707800888800000010180088824001193187900013111941070620230000001322918723000000000157638400022XXXXXX1853               2111111   NYV4 A7W383187536976485N8400000000132298PPL00    01DNMR HEMP FLOWER           445554    VD84000000013229 NDR549976053336   91849                    000000000+                F DF 10420                     000000000  Y000000000 338   0000000000000.00 0000000.00   0000000.00                             000000000000000                                                                                                                                                     01424 G000000013229 0000000000000.29     00050 02200                  
00021820137640016DR67590675900000003707800888800000010191849                    Y000000013229                 P1                                                                                                                                                                                                                                                                                                                                                                                                                                                                                                                                                                                                            
00021830137640001P16759067590000000370780088880000001010000000000000000                             2000000000000000000000000              000000000000                    0000000000000000000000000                    000000000000                                                                                                                                                                                                                                                                                                                                                                                                                                                                                        
00021840137640002G2675906759000000037078008888000000101833-3877579              FL           9 D                00                                      NNNN   N                      000000000000                                                                   76053336                                                                                                                                                                                                                                                                                                                                                                                                                                               
00021850137640017DT67590675900000003707800888800000010180088824001193187900013111958070620230000001029918723000000000157638425131XXXXXX8220               2111111   NYV4 A7W463187575831128N840000000010299J3FR00    01DNMR HEMP FLOWER           006496    VD84000000010299 NDR549976053336   91852                    000000000+                F DF 10420                     000000000  Y000000000 338   0000000000000.00 0000000.00   0000000.00                             000000000000000                                                                                                                                                     01424 G000000010299 0000000000000.27     00050 02200                  
00021860137640017DR67590675900000003707800888800000010191852                    Y000000010299                 P1                                                                                                                                                                                                                                                                                                                                                                                                                                                                                                                                                                                                            
00021870137640001P16759067590000000370780088880000001010000000000000000                             2000000000000000000000000              000000000000                    0000000000000000000000000                    000000000000                                                                                                                                                                                                                                                                                                                                                                                                                                                                                        
00021880137640002G2675906759000000037078008888000000101833-3877579              FL           9 D                00                                      NNNN   N                      000000000000                                                                   76053336                                                                                                                                                                                                                                                                                                                                                                                                                                               
00021890137640018DT67590675900000003707800888800000010180088887287283187900013111967070620230000000219918723000000000157638520602XXXXXX8875       ME03KE06MS02      NY 4607AMWER0M5080706  N840000000002199          81DNMR HEMP FLOWER           54649Z    MC84000000002199 NDR549976053336   91853                    000000000+600450S00130    MWE  00737                     000000000  N                0000000000000.00 0000000.00   0000000.00                             000000000000000                                                                                                                                                   U001424  000000000000 0000000000000.67     02600 01000                  
00021900137640018DR67590675900000003707800888800000010191853                    Y000000000000                                                                                                                                                                                                                                                                                                                                                                                                                                                                                                                                                                                                                               
00021910137640001G2675906759000000037078008888000000101833-3877579              FL           9 E               210                                      NNNN           210000000000000000000000000                        7                                          76053336                                                                                                                                                                                                                                                                                                                                                                                                                                               
00021920137640019DT67590675900000003707800888800000010180088824001193187900013111982070620230000000389718723000000000157638483313XXXXXX6764               2111111   NYV4 A7W383187636195647N8400000000038973VHM00    01DNMR HEMP FLOWER           094013    VD84000000003897 NDR549976053336   91855                    000000000+                F DF 10420                     000000000  Y000000000 338   0000000000000.00 0000000.00   0000000.00                             000000000000000                                                                                                                                                     01424 G000000003897 0000000000000.24     00050 02200                  
00021930137640019DR67590675900000003707800888800000010191855                    N000000003897                 P1                                                                                                                                                                                                                                                                                                                                                                                                                                                                                                                                                                                                            
00021940137640001P16759067590000000370780088880000001010000000000000000                             2000000000000000000000000              000000000000                    0000000000000000000000000                    000000000000                                                                                                                                                                                                                                                                                                                                                                                                                                                                                        
00021950137640002G2675906759000000037078008888000000101833-3877579              FL           9 D                00                                      NNNN   N                      000000000000                                                                   76053336                                                                                                                                                                                                                                                                                                                                                                                                                                               
00021960137640020DT67590675900000003707800888800000010180088824001193187900013111990070620230000000249918723000000000157638473702XXXXXX3735               2111111   NYV4 A7W583187783557363N8400000000024992PZW00    01DNMR HEMP FLOWER           029571    VD84000000002499 NDR549976053336   91870                    000000000+                F DF 10420                     000000000  Y000000000 338   0000000000000.00 0000000.00   0000000.00                             000000000000000                                                                                                                                                     01424 G000000002499 0000000000000.23     00050 02200                  
00021970137640020DR67590675900000003707800888800000010191870                    Y000000002499                 P1                                                                                                                                                                                                                                                                                                                                                                                                                                                                                                                                                                                                            
00021980137640001P16759067590000000370780088880000001010000000000000000                             2000000000000000000000000              000000000000                    0000000000000000000000000                    000000000000                                                                                                                                                                                                                                                                                                                                                                                                                                                                                        
00021990137640002G2675906759000000037078008888000000101833-3877579              FL           9 D                00                                      NNNN   N                      000000000000                                                                   76053336                                                                                                                                                                                                                                                                                                                                                                                                                                               
00022000137640021DT67590675900000003707800888800000010180088824001193187900013112006070620230000000449918723000000000157638415746XXXXXX8557               2111111   NYV4 A7W583187838822416N8400000000044996QKM00    01DNMR HEMP FLOWER           938840    VD84000000004499 NDR549976053336   91871                    000000000+                F DF 00415                     000000000  N000000000       0000000000000.00 0000000.00   0000000.00                             000000000000000                                                                                                                                                     01424 G000000004499 0000000000000.89     01650 01500                  
00022010137640021DR67590675900000003707800888800000010191871                    Y000000004499                 P1                                                                                                                                                                                                                                                                                                                                                                                                                                                                                                                                                                                                            
00022020137640001P16759067590000000370780088880000001010000000000000000                             2000000000000000000000000              000000000000                    0000000000000000000000000                    000000000000                                                                                                                                                                                                                                                                                                                                                                                                                                                                                        
00022030137640002G2675906759000000037078008888000000101833-3877579              FL           9 D                00                                      NNNN   N                      000000000000                                                                   76053336                                                                                                                                                                                                                                                                                                                                                                                                                                               
00022040137640022DT67590675900000003707800888800000010180088887287283187900013112015070620230000000889818723000000000157638548042XXXXXX2154       ME03KE06MS02      NY 4607AMCCMG26TY0706  N840000000008898          81DNMR HEMP FLOWER           09037B    MC84000000008898 NDR549976053336   91824                    000000000+600450S00130    MCC  00580                     000000000  N                0000000000000.00 0000000.00   0000000.00                             000000000000000                                                                                                                                                   U001424  000000000000 0000000000001.97     02100 01000                  
00022050137640022DR67590675900000003707800888800000010191824                    N000000000000                                                                                                                                                                                                                                                                                                                                                                                                                                                                                                                                                                                                                               
00022060137640001G2675906759000000037078008888000000101833-3877579              FL           9 C               210                                      NNNN           210000000000000000000000000                        7                                          76053336                                                                                                                                                                                                                                                                                                                                                                                                                                               
00022070137640023DT67590675900000003707800888800000010180088824001193187900013112022070620230000000889918723000000000157638433477XXXXXX8881               2111111   NYV4 A7W383187861597245N840000000008899FP3600    01DNMR HEMP FLOWER           667228    VD84000000008899 NDR549976053336   91872                    000000000+                F DF 10420                     000000000  Y000000000 338   0000000000000.00 0000000.00   0000000.00                             000000000000000                                                                                                                                                     01424 G000000008899 0000000000000.26     00050 02200                  
00022080137640023DR67590675900000003707800888800000010191872                    Y000000008899                 P1                                                                                                                                                                                                                                                                                                                                                                                                                                                                                                                                                                                                            
00022090137640001P16759067590000000370780088880000001010000000000000000                             2000000000000000000000000              000000000000                    0000000000000000000000000                    000000000000                                                                                                                                                                                                                                                                                                                                                                                                                                                                                        
00022100137640002G2675906759000000037078008888000000101833-3877579              FL           9 D                00                                      NNNN   N                      000000000000                                                                   76053336                                                                                                                                                                                                                                                                                                                                                                                                                                               
00022110137640024BH6759067590000001619680010280000090170706202318723000000000313479    0000090001876596Y8001026759C07072023087                                                                                                                                                                                                                                                                                                                                                                                                                                                                                                                                                                                              
00022120137640025DT67590675900000016196800102800000010180010287287283187900018761717070520230000001589018723000000000313479550883XXXXXX1754       ME03KE06MS02      NY 4607AMDSIW394P0702  N840000000015890          81DNGREEN OTTER LLC          565080    MD84000000015890 NDR549977424386   C7A4F32F3AT9D36A641C6A8  000000000+600450S00130    MDS  00401                     000000000  N                0000000000000.00 0000000.00   0000000.00                             000000000000000                                                                                                                                                   U001424  000000000000 0000000000002.77     01650 01500                  
00022130137640025DR675906759000000161968001028000000101C7A4F32F3AT9D36A641C6A8  N000000000000                                                                                                                                                                                                                                                                                                                                                                                                                                                                                                                                                                                                                               
00022140137640001G2675906759000000161968001028000000101866-6317293              GA           9 S               210                                      NNNN           210000000000000000000000000                        7                                          77424386                                                                                                                                                                                                                                                                                                                                                                                                                                               
00022150137640026DT67590675900000016196800102800000010180010287287283187900018761790070520230000000600418723000000000313479557619XXXXXX3484       ME03KE06MS02      NY 4607AMDJY61O2C0702  N840000000006004          81DNGREEN OTTER LLC          013603    MD84000000006004 NDR549977424386   035B1B0365T81892C7BDBEE  000000000+600450S00130    MDJ  00401                     000000000  N                0000000000000.00 0000000.00   0000000.00                             000000000000000                                                                                                                                                   U001424  000000000000 0000000000001.14     01650 01500                  
00022160137640026DR675906759000000161968001028000000101035B1B0365T81892C7BDBEE  Z000000000000                                                                                                                                                                                                                                                                                                                                                                                                                                                                                                                                                                                                                               
00022170137640001G2675906759000000161968001028000000101866-6317293              GA           9 J               210                                      NNNN           210000000000000000000000000                        7                                          77424386                                                                                                                                                                                                                                                                                                                                                                                                                                               
00022180137640027DT67590675900000016196800102800000010180010287287283187900018761832070520230000002686018723000000000313479515165XXXXXX1103       ME03KE06MS02      NY 4607AMDSCC8V4P0702  N840000000026860          81DNGREEN OTTER LLC          692384    MD84000000026860 NDR549977424386   8584A89250T151DA82BBD2D  000000000+600450S00130    MDS  00401                     000000000  N                0000000000000.00 0000000.00   0000000.00                             000000000000000                                                                                                                                                   U001424  000000000000 0000000000004.58     01650 01500                  
00022190137640027DR6759067590000001619680010280000001018584A89250T151DA82BBD2D  Y000000000000                                                                                                                                                                                                                                                                                                                                                                                                                                                                                                                                                                                                                               
00022200137640001G2675906759000000161968001028000000101866-6317293              GA           9 S               210                                      NNNN           210000000000000000000000000                                                                   77424386                                                                                                                                                                                                                                                                                                                                                                                                                                               
00022210137640028DT67590675900000016196800102800000010180010224001193187900018762193070520230000001484818723000000000313479448915XXXXXX6060               2111111   NYV4 A7W463184114045064N8400000000148484PBG00    01DNGREEN OTTER LLC          002077    VS84000000014848 NDR549977424386   5BF79BCB42T25AEF0C30939  000000000+                C CC 12108                     000000000  N000000000 496   0000000000000.00 0000000.00   0000000.00                             000000000000000                                                                                                                                                     01424 G000000014848 0000000000003.14     02050 01000                  
00022220137640028DR6759067590000001619680010280000001015BF79BCB42T25AEF0C30939  Y000000014848                 P1                                                                                                                                                                                                                                                                                                                                                                                                                                                                                                                                                                                                            
00022230137640001P16759067590000001619680010280000001010000000000000000                             2000000000000000000000000              000000000000                    0000000000000000000000000                    000000000000                                                                                                                                                                                                                                                                                                                                                                                                                                                                                        
00022240137640002G2675906759000000161968001028000000101866-6317293              GA           9 C                00                                      NNNN   Y                      000000000000                                                                   77424386                                                                                                                                                                                                                                                                                                                                                                                                                                               
00022250137640029DT67590675900000016196800102800000010180010224001193187900018765014070520230000000158518723000000000313479419488XXXXXX9931               2111111   NYV4 A7W463187038607930N8400000000015852GB400    01DNGREEN OTTER LLC          081445    VD84000000001585 NDR549977424386   A64C236948T804DD1473CB7  000000000+                F DF 00415                     000000000  N000000000       0000000000000.00 0000000.00   0000000.00                             000000000000000                                                                                                                                                     01424 G000000001585 0000000000000.41     01650 01500                  
00022260137640029DR675906759000000161968001028000000101A64C236948T804DD1473CB7  Y000000001585                 P1                                                                                                                                                                                                                                                                                                                                                                                                                                                                                                                                                                                                            
00022270137640001P16759067590000001619680010280000001010000000000000000                             2000000000000000000000000              000000000000                    0000000000000000000000000                    000000000000                                                                                                                                                                                                                                                                                                                                                                                                                                                                                        
00022280137640002G2675906759000000161968001028000000101866-6317293              GA           9 D                00                                      NNNN   N                      000000000000                                                                   77424386                                                                                                                                                                                                                                                                                                                                                                                                                                               
00022290137640030DT67590675900000016196800102800000010180010224001193187900018765030070520230000001987018723000000000313479426684XXXXXX3898               2111111   NYV4 A7W303187052590412N840000000019870M49T00    01DNGREEN OTTER LLC          02192C    VS84000000019870 NDR549977424386   EDC9CD171BT099669A78826  000000000+                C CC 12108                     000000000  N000000000 496   0000000000000.00 0000000.00   0000000.00                             000000000000000                                                                                                                                                     01424 G000000019870 0000000000004.17     02050 01000                  
00022300137640030DR675906759000000161968001028000000101EDC9CD171BT099669A78826  Y000000019870                 P1                                                                                                                                                                                                                                                                                                                                                                                                                                                                                                                                                                                                            
00022310137640001P16759067590000001619680010280000001010000000000000000                             2000000000000000000000000              000000000000                    0000000000000000000000000                    000000000000                                                                                                                                                                                                                                                                                                                                                                                                                                                                                        
00022320137640002G2675906759000000161968001028000000101866-6317293              GA           9 C                00                                      NNNN   Y                      000000000000                                                                   77424386                                                                                                                                                                                                                                                                                                                                                                                                                                               
00022330137640031DT67590675900000016196800102800000010180010287287283187900018765080070520230000002697218723000000000313479545510XXXXXX2209       ME03KE06MS02      NY 4607AMDSK9ZV0E0705  N840000000026972          81DNGREEN OTTER LLC          076368    MD84000000026972 NDR549977424386   089035F5C8T1EF294000623  000000000+600450S00130    MDS  10813                     000000000  1                0000000000000.00 0000000.00   0000000.00                             000000000000000                                                                                                                                                   U001424  000000000000 0000000000000.35     00050 02200                  
00022340137640031DR675906759000000161968001028000000101089035F5C8T1EF294000623  Y000000000000                                                                                                                                                                                                                                                                                                                                                                                                                                                                                                                                                                                                                               
00022350137640001G2675906759000000161968001028000000101866-6317293              GA           9 S               210                                      NNNN           210000000000000000000000000                                                                   77424386                                                                                                                                                                                                                                                                                                                                                                                                                                               
00022360137640032DT67590675900000016196800102800000010180010224001193187900018765170070620230000002126118723000000000313479419509XXXXXX1940               2111111   NYV4 A7W463187444188011N840000000021261ZD4P00    01DNGREEN OTTER LLC          006846    VS84000000021261 NDR549977424386   7FD43F5595T084617EAAB38  000000000+                B CB 12107                     000000000  N000000000 494   0000000000000.00 0000000.00   0000000.00                             000000000000000                                                                                                                                                     01424 G000000021261 0000000000004.44     02040 01000                  
00022370137640032DR6759067590000001619680010280000001017FD43F5595T084617EAAB38  Y000000021261                 P1                                                                                                                                                                                                                                                                                                                                                                                                                                                                                                                                                                                                            
00022380137640001P16759067590000001619680010280000001010000000000000000                             2000000000000000000000000              000000000000                    0000000000000000000000000                    000000000000                                                                                                                                                                                                                                                                                                                                                                                                                                                                                        
00022390137640002G2675906759000000161968001028000000101866-6317293              GA           9 C                00                                      NNNN   N                      000000000000                                                                   77424386                                                                                                                                                                                                                                                                                                                                                                                                                                               
00022400137640033DT67590675900000016196800102800000010680010274001193187900018765183070620230000001484818723000000000313479448915XXXXXX6060               0000000   NYV4 07T383187502218275N84000000001484876LQ00    01CNGREEN OTTER LLC          006078    VS84000000014848 NDR549977424386   5BF79BCB42T25AEF0C30939  000000000+                C CC 00245                     000000000  N000000000 166   0000000000000.00 0000000.00   0000000.00                             000000000000000                                                                                                                                                     01424  000000014848-0000000000002.61     01760 00000                  
00022410137640033DR6759067590000001619680010280000001065BF79BCB42T25AEF0C30939  U000000014848                 P1                                                                                                                                                                                                                                                                                                                                                                                                                                                                                                                                                                                                            
00022420137640001P16759067590000001619680010280000001060000000000000000                             2000000000000000000000000              000000000000                    0000000000000000000000000                    000000000000                                                                                                                                                                                                                                                                                                                                                                                                                                                                                        
00022430137640002G2675906759000000161968001028000000106866-6317293              GA           9 C                00                                      NNNN   Y                      000000000000                                                                   77424386                                                                                                                                                                                                                                                                                                                                                                                                                                               
00022440137640034DT67590675900000016196800102800000010680010287287283187900018765197070620230000001595118723000000000313479513876XXXXXX1069                         NY 4607AMDJPI8R080706  N840000000015951          81CNGREEN OTTER LLC          003239    MD84000000015951 NDR549977424386   3F0ACC5552TD771240C036F  000000000+600450S00130    MDJ  00560                     000000000  N                0000000000000.00 0000000.00   0000000.00                             000000000000000                                                                                                                                                     01424  000000000000 0000000000000.00     00000 00000                  
00022450137640034DR6759067590000001619680010280000001063F0ACC5552TD771240C036F  U000000000000                                                                                                                                                                                                                                                                                                                                                                                                                                                                                                                                                                                                                               
00022460137640001G2675906759000000161968001028000000106866-6317293              GA           9 J               210                                      NNNN           210000000000000000000000000                        7                                          77424386                                                                                                                                                                                                                                                                                                                                                                                                                                               
00022470137640035DT67590675900000016196800102800000010180010287287283187900018765254070620230000001604018723000000000313479511374XXXXXX0034       ME03KE06MS02      NY 4607AMDJSNW7910706  N840000000016040          81DNGREEN OTTER LLC          100331    MD84000000016040 NDR549977424386   7ADB2C6D41T97C31D697891  000000000+600450S00130    MDJ  00401                     000000000  N                0000000000000.00 0000000.00   0000000.00                             000000000000000                                                                                                                                                   U001424  000000000000 0000000000002.80     01650 01500                  
00022480137640035DR6759067590000001619680010280000001017ADB2C6D41T97C31D697891  N000000000000                                                                                                                                                                                                                                                                                                                                                                                                                                                                                                                                                                                                                               
00022490137640001G2675906759000000161968001028000000101866-6317293              GA           9 J               210                                      NNNN           210000000000000000000000000                                                                   77424386                                                                                                                                                                                                                                                                                                                                                                                                                                               
00022500137640036DT67590675900000016196800102800000010680010274001193187900018765266070620230000001736118723000000000313479483312XXXXXX7987               0000000   NYV4 07T583187546813857N840000000017361RL5H85    01CNGREEN OTTER LLC          096668    VD84000000017361 NDR549977424386   9CF14DD440T88369D9F2D8E  000000000+                F DF 08168                     000000000  Y000000000 369   0000000000000.00 0000000.00   0000000.00                             000000000000000                                                                                                                                                     01424  000000017361 0000000000000.00     00000 00000                  
00022510137640036DR6759067590000001619680010280000001069CF14DD440T88369D9F2D8E  R000000017361                 P1                                                                                                                                                                                                                                                                                                                                                                                                                                                                                                                                                                                                            
00022520137640001P16759067590000001619680010280000001060000000000000000                             2000000000000000000000000              000000000000                    0000000000000000000000000                    000000000000                                                                                                                                                                                                                                                                                                                                                                                                                                                                                        
00022530137640002G2675906759000000161968001028000000106866-6317293              GA           9 D                00                                      NNNN   N                      000000000000                                                                   77424386                                                                                                                                                                                                                                                                                                                                                                                                                                               
00022540137640037DT67590675900000016196800102800000010680010287287283187900018765270070620230000001562418723000000000313479513562XXXXXX2513                         NY 4607AMDJKYAV080706  N840000000015624          81CNGREEN OTTER LLC          347511    MD84000000015624 NDR549977424386   D66373B283T6FA1FB535112  000000000+600450S00130    MDJ  00560                     000000000  N                0000000000000.00 0000000.00   0000000.00                             000000000000000                                                                                                                                                     01424  000000000000 0000000000000.00     00000 00000                  
00022550137640037DR675906759000000161968001028000000106D66373B283T6FA1FB535112  U000000000000                                                                                                                                                                                                                                                                                                                                                                                                                                                                                                                                                                                                                               
00022560137640001G2675906759000000161968001028000000106866-6317293              GA           9 J               210                                      NNNN           210000000000000000000000000                                                                   77424386                                                                                                                                                                                                                                                                                                                                                                                                                                               
00022570137640038DT67590675900000016196800102800000010180010224001193187900018765295070620230000001200818723000000000313479414720XXXXXX0302               2111111   NYV4 A7W303187552732941N840000000012008S6PS00    01DNGREEN OTTER LLC          03400C    VS84000000012008 NDR549977424386   8226CAAA5DTCE77FC213C92  000000000+                C CC 12108                     000000000  N000000000 496   0000000000000.00 0000000.00   0000000.00                             000000000000000                                                                                                                                                     01424 G000000012008 0000000000002.56     02050 01000                  
00022580137640038DR6759067590000001619680010280000001018226CAAA5DTCE77FC213C92  Y000000012008                 P1                                                                                                                                                                                                                                                                                                                                                                                                                                                                                                                                                                                                            
00022590137640001P16759067590000001619680010280000001010000000000000000                             2000000000000000000000000              000000000000                    0000000000000000000000000                    000000000000                                                                                                                                                                                                                                                                                                                                                                                                                                                                                        
00022600137640002G2675906759000000161968001028000000101866-6317293              GA           9 C                00                                      NNNN   Y                      000000000000                                                                   77424386                                                                                                                                                                                                                                                                                                                                                                                                                                               
00022610137640039DT67590675900000016196800102800000010180010287287283187900018765403070620230000002121118723000000000313479517546XXXXXX3051       ME03KE06MS02      NY 4607AMDJLP9Z860706  N840000000021211          81DNGREEN OTTER LLC          006060    MD84000000021211 NDR549977424386   68BA18BBE0T1CE92D5B3165  000000000+600450S00130    MDJ  10813                     000000000  1                0000000000000.00 0000000.00   0000000.00                             000000000000000                                                                                                                                                   U001424  000000000000 0000000000000.33     00050 02200                  
00022620137640039DR67590675900000016196800102800000010168BA18BBE0T1CE92D5B3165  Y000000000000                                                                                                                                                                                                                                                                                                                                                                                                                                                                                                                                                                                                                               
00022630137640001G2675906759000000161968001028000000101866-6317293              GA           9 J               210                                      NNNN           210000000000000000000000000                        7                                          77424386                                                                                                                                                                                                                                                                                                                                                                                                                                               
00022640137640040DT67590675900000016196800102800000010180010224001193187900018765444070620230000002147918723000000000313479473377XXXXXX3570               2111111   NYV4 A7W583187595103425N840000000021479H3RW00    01DNGREEN OTTER LLC          771292    VD84000000021479 NDR549977424386   2F45117F77TD01D5A6C3E95  000000000+                F DF 00415                     000000000  N000000000       0000000000000.00 0000000.00   0000000.00                             000000000000000                                                                                                                                                     01424 G000000021479 0000000000003.69     01650 01500                  
00022650137640040DR6759067590000001619680010280000001012F45117F77TD01D5A6C3E95  Y000000021479                 P1                                                                                                                                                                                                                                                                                                                                                                                                                                                                                                                                                                                                            
00022660137640001P16759067590000001619680010280000001010000000000000000                             2000000000000000000000000              000000000000                    0000000000000000000000000                    000000000000                                                                                                                                                                                                                                                                                                                                                                                                                                                                                        
00022670137640002G2675906759000000161968001028000000101866-6317293              GA           9 D                00                                      NNNN   N                      000000000000                                                                   77424386                                                                                                                                                                                                                                                                                                                                                                                                                                               
00022680137640041DT67590675900000016196800102800000010180010287287283187900018765452070620230000000342318723000000000313479533248XXXXXX7157       ME03KE06MS02      NY 4607AMPVZJ0YQ20706  N840000000003423          81DNGREEN OTTER LLC          IHAJW5    MD84000000003423 NDR549977424386   EF5E3B5F7BT0B20BC10C259  000000000+600450S00130    MPV  09899                     000000000  N                0000000000000.00 0000000.00   0000000.00                             000000000000000                                                                                                                                                   U001424  000000000000 0000000000000.80     01760 02000                  
00022690137640041DR675906759000000161968001028000000101EF5E3B5F7BT0B20BC10C259  Y000000000000                                                                                                                                                                                                                                                                                                                                                                                                                                                                                                                                                                                                                               
00022700137640001G2675906759000000161968001028000000101866-6317293              GA           9 V               210                                      NNNN           210000000000000000000000000                                                                   77424386                                                                                                                                                                                                                                                                                                                                                                                                                                               
00022710137640042DT67590675900000016196800102800000010180010287287283187900018765460070620230000001400818723000000000313479514230XXXXXX2775       ME03KE06MS02      NY 4607AMDJHN4XQ30706  N840000000014008          81DNGREEN OTTER LLC          6CA26C    MD84000000014008 NDR549977424386   53272CBC17T1AC8E57E608E  000000000+600450S00130    MDJ  00401                     000000000  N                0000000000000.00 0000000.00   0000000.00                             000000000000000                                                                                                                                                   U001424  000000000000 0000000000002.46     01650 01500                  
00022720137640042DR67590675900000016196800102800000010153272CBC17T1AC8E57E608E  Z000000000000                                                                                                                                                                                                                                                                                                                                                                                                                                                                                                                                                                                                                               
00022730137640001G2675906759000000161968001028000000101866-6317293              GA           9 J               210                                      NNNN           210000000000000000000000000                        7                                          77424386                                                                                                                                                                                                                                                                                                                                                                                                                                               
00022740137640043DT67590675900000016196800102800000010180010224001193187900018765519070620230000002136018723000000000313479414721XXXXXX3933               2111111   NYV4 A7W303187631466533N8400000000213606DD200    01DNGREEN OTTER LLC          006105    VS84000000021360 NDR549977424386   A9E7D00F03T0422ABF688BC  000000000+                C CC 12108                     000000000  N000000000 496   0000000000000.00 0000000.00   0000000.00                             000000000000000                                                                                                                                                     01424 G000000021360 0000000000004.48     02050 01000                  
00022750137640043DR675906759000000161968001028000000101A9E7D00F03T0422ABF688BC  Y000000021360                 P1                                                                                                                                                                                                                                                                                                                                                                                                                                                                                                                                                                                                            
00022760137640001P16759067590000001619680010280000001010000000000000000                             2000000000000000000000000              000000000000                    0000000000000000000000000                    000000000000                                                                                                                                                                                                                                                                                                                                                                                                                                                                                        
00022770137640002G2675906759000000161968001028000000101866-6317293              GA           9 C                00                                      NNNN   Y                      000000000000                                                                   77424386                                                                                                                                                                                                                                                                                                                                                                                                                                               
00022780137640044DT67590675900000016196800102800000010180010224001193187900018765618070620230000000642818723000000000313479436611XXXXXX3299               2111111   NYV4 A7W303187651145942N840000000006428N64X00    01DNGREEN OTTER LLC          05431A    VS84000000006428 NDR549977424386   CA6DF2F2B9T9D6ED16B08F5  000000000+                A CA 12106                     000000000  N000000000 492   0000000000000.00 0000000.00   0000000.00                             000000000000000                                                                                                                                                     01424 G000000006428 0000000000001.31     01890 01000                  
00022790137640044DR675906759000000161968001028000000101CA6DF2F2B9T9D6ED16B08F5  Y000000006428                 P1                                                                                                                                                                                                                                                                                                                                                                                                                                                                                                                                                                                                            
00022800137640001P16759067590000001619680010280000001010000000000000000                             2000000000000000000000000              000000000000                    0000000000000000000000000                    000000000000                                                                                                                                                                                                                                                                                                                                                                                                                                                                                        
00022810137640002G2675906759000000161968001028000000101866-6317293              GA           9 C                00                                      NNNN   Y                      000000000000                                                                   77424386                                                                                                                                                                                                                                                                                                                                                                                                                                               
