06279730133615392AD675906759000000198288001098000009077900013890700000001799106052023NYY15623YC6759800109060720232023130004839                                                                                                                                                                                                                                                                                                                                                                                                                                                                                                                                                                                              
06279740133615395AD675906759000000151648008888000009077900014162170000001987006052023NYY15623YC6759800888060720232023156031507                                                                                                                                                                                                                                                                                                                                                                                                                                                                                                                                                                                              
06279750133615398AD675906759000000268498001258000009071900014747290000001489206052023NYY15623ND6759800125060720232023156031810                                                                                                                                                                                                                                                                                                                                                                                                                                                                                                                                                                                              
06279760133615401AD675906759000000142748001028000009071900018711380000000164506052023NYY15623ND6759800102060720232023156024429                                                                                                                                                                                                                                                                                                                                                                                                                                                                                                                                                                                              
06279770133615404AD675906759000000133008001028000009071900019633340000001987006052023NYY15623ND6759800102060720232023156024430                                                                                                                                                                                                                                                                                                                                                                                                                                                                                                                                                                                              
06279780133615407AD675906759000000268498001258000009071900013911300000001480306052023NYY15623ND6759800125060720232023156024431                                                                                                                                                                                                                                                                                                                                                                                                                                                                                                                                                                                              
06279790133615410AD675906759000000198288001098000009071900013580350000002487006052023NYY15623ND6759800109060720232023156024432                                                                                                                                                                                                                                                                                                                                                                                                                                                                                                                                                                                              
06279800133615413AD675906759000000232598001168000009071900012812470000002178906052023NYY15623ND6759800116060720232023156024433                                                                                                                                                                                                                                                                                                                                                                                                                                                                                                                                                                                              
06279810133615416AD675906759000000151648008888000009077900013104710000001394806052023NYY15623YC6759800888060720232023156024435                                                                                                                                                                                                                                                                                                                                                                                                                                                                                                                                                                                              
06279820133615419AD675906759000000151648008888000009077900013104720000000654806052023NYY15623YC6759800888060720232023156024436                                                                                                                                                                                                                                                                                                                                                                                                                                                                                                                                                                                              
06279830133615422AD675906759000000151648008888000009071900015319690000001194806052023NYY15623ND6759800888060720232023156024434                                                                                                                                                                                                                                                                                                                                                                                                                                                                                                                                                                                              
06279840133615425AD675906759000000268498001258000009071900012767720000000129506052023NYY15623ND6759800125060720232023156024438                                                                                                                                                                                                                                                                                                                                                                                                                                                                                                                                                                                              
06279850133615428AD675906759000000268498001258000009071900012041050000000619806052023NYY15623ND6759800125060720232023156024439                                                                                                                                                                                                                                                                                                                                                                                                                                                                                                                                                                                              
06279860133615431AD675906759000000268498001258000009071900012041040000000979806052023NYY15623ND6759800125060720232023156024440                                                                                                                                                                                                                                                                                                                                                                                                                                                                                                                                                                                              
06279870133961744AD675906759000000151648008888000009071231320316510000000519006052023NYY15623ND6759800888060720232023132031651                                                                                                                                                                                                                                                                                                                                                                                                                                                                                                                                                                                              
06279880133961747AD675906759000000151648008888000009071231320318620000000859306052023NYY15623ND6759800888060720232023132031862                                                                                                                                                                                                                                                                                                                                                                                                                                                                                                                                                                                              
06279890133961750AD675906759000000198288001098000009071231320318760000000993506052023NYY15623ND6759800109060720232023132031876                                                                                                                                                                                                                                                                                                                                                                                                                                                                                                                                                                                              
06279900133961753AD675906759000000151648008888000009071231320318780000001987006052023NYY15623ND6759800888060720232023132031878                                                                                                                                                                                                                                                                                                                                                                                                                                                                                                                                                                                              
06279910133961756AD675906759000000151648008888000009071231320320120000000654806052023NYY15623ND6759800888060720232023132032012                                                                                                                                                                                                                                                                                                                                                                                                                                                                                                                                                                                              
06279920133961759AD675906759000000151648008888000009071231350005510000001409106052023NYY15623ND6759800888060720232023135000551                                                                                                                                                                                                                                                                                                                                                                                                                                                                                                                                                                                              
06279930133961762AD675906759000000198288001098000009071231520287420000000327406052023NYY15623ND6759800109060720232023152028742                                                                                                                                                                                                                                                                                                                                                                                                                                                                                                                                                                                              
06279940133961765AD675906759000000198288001098000009071231520287430000002487006052023NYY15623ND6759800109060720232023152028743                                                                                                                                                                                                                                                                                                                                                                                                                                                                                                                                                                                              
06279950133961768AD675906759000000198288001098000009071231540011490000001499006052023NYY15623ND6759800109060720232023154001149                                                                                                                                                                                                                                                                                                                                                                                                                                                                                                                                                                                              
06279960133961771AD675906759000000151648008888000009071231540013850000002487006052023NYY15623ND6759800888060720232023154001385                                                                                                                                                                                                                                                                                                                                                                                                                                                                                                                                                                                              
06279970133961774AD675906759000000151648008888000009071231550003610000002487006052023NYY15623ND6759800888060720232023155000361                                                                                                                                                                                                                                                                                                                                                                                                                                                                                                                                                                                              
06279980135395762BH6759067590000002962980013180000090170606202315723000000000000213    0000090001345052N8001316759D06072023034                                                                                                                                                                                                                                                                                                                                                                                                                                                                                                                                                                                              
06279990135395763DT67590675900000029629800131800000010680013174001193157900013403299060520230000001202415723000000000000213474478XXXXXX6112               0000000   YYV4 07T463156550945430N840000000012024ZP3Z00    01CNPAK VENTURES             158134    VD84000000012024 NDR599971004114   RTLG1NEVRMT4SLO4EDN4     000000000+                F DF 08168                     000000000  Y000000000 369   0000000000000.00 0000000.00   0000000.00                             000000000000000                                                                                                                                                     015WPE 000000012024 0000000000000.00     00000 00000                  
06280000135395763DR675906759000000296298001318000000106RTLG1NEVRMT4SLO4EDN4     U000000012024                 P1                                                                                                                                                                                                                                                                                                                                                                                                                                                                                                                                                                                                            
06280010135390001P16759067590000002962980013180000001060000000000000000                             2000000000000000000000000              000000000000                    0000000000000000000000000                    000000000000                                                                                                                                                                                                                                                                                                                                                                                                                                                                                        
06280020135390002G2675906759000000296298001318000000106850-3618878              FL           9 D                00                                      NNNN   N                      000000000000                                                                   71004114                                                                                                                                                                                                                                                                                                                                                                                                                                               
06280030135395764DT67590675900000029629800131800000010180013124001193157900013405703060520230000000896415723000000000000213475055XXXXXX3590               2111111   YYV4 A7W463156555683381N8400000000089648SZS00    01DNPAK VENTURES             092611    VD84000000008964 NDR599971004114   RFCGZBCYTW648ZA4SAMR     000000000+                F DF 10420                     000000000  Y000000000 338   0000000000000.00 0000000.00   0000000.00                             000000000000000                                                                                                                                                     015WPEG000000008964 0000000000000.26     00050 02200                  
06280040135395764DR675906759000000296298001318000000101RFCGZBCYTW648ZA4SAMR     Y000000008964                 P1                                                                                                                                                                                                                                                                                                                                                                                                                                                                                                                                                                                                            
06280050135390001P16759067590000002962980013180000001010000000000000000                             2000000000000000000000000              000000000000                    0000000000000000000000000                    000000000000                                                                                                                                                                                                                                                                                                                                                                                                                                                                                        
06280060135390002G2675906759000000296298001318000000101850-3618878              FL           9 D                00                                      NNNN   N                      000000000000                                                                   71004114                                                                                                                                                                                                                                                                                                                                                                                                                                               
06280070135395765DT67590675900000029629800131800000010180013187287283157900013450528060520230000000284715723000000000000213544928XXXXXX4133       ME03KE06MS02      YY 4607AMDJKGMU8Y0605  N840000000002847          81DNPAK VENTURES             H27445    MD84000000002847 NDR599971004114   rIvYY3FTT9I7aZOYGBfP     000000000+600450S00140    MDJ  10813                     000000000  1                0000000000000.00 0000000.00   0000000.00                             000000000000000                                                                                                                                                   U0015WPE 000000000000 0000000000000.23     00050 02200                  
06280080135395765DR675906759000000296298001318000000101rIvYY3FTT9I7aZOYGBfP     Z000000000000                                                                                                                                                                                                                                                                                                                                                                                                                                                                                                                                                                                                                               
06280090135390001G26759067590000002962980013180000001018503618878               FL           9 J               210                                      NNNN           210000000000000000000000000                        7                                          71004114                                                                                                                                                                                                                                                                                                                                                                                                                                               
06280100135395768BH6759067590000001767380010680000090170606202315723000000000096572    0000090001652166N8001066759D06072023065                                                                                                                                                                                                                                                                                                                                                                                                                                                                                                                                                                                              
06280110135395769DT67590675900000017673800106800000010680010674001193157900016521592060420230000001306715723000000000096572434258XXXXXX5592               0000000   YYV4 07T303156011360692N84000000001306777GJ00    01CNVGHEMP.COM833-246-5225   074318    VD84000000013067 NDR549977427364   3227131BCCT07728719019E  000000000+                F DF 08168                     000000000  Y000000000 369   0000000000000.00 0000000.00   0000000.00                             000000000000000                                                                                                                                                     015WPE 000000013067 0000000000000.00     00000 00000                  
06280120135395769DR6759067590000001767380010680000001063227131BCCT07728719019E  Y000000013067                 P1                                                                                                                                                                                                                                                                                                                                                                                                                                                                                                                                                                                                            
06280130135390001P16759067590000001767380010680000001060000000000000000                             2000000000000000000000000              000000000000                    0000000000000000000000000                    000000000000                                                                                                                                                                                                                                                                                                                                                                                                                                                                                        
06280140135390002G2675906759000000176738001068000000106720-3077930              CA           9 D                00                                      NNNN   N                      000000000000                                                                   77427364                                                                                                                                                                                                                                                                                                                                                                                                                                               
06280150135395770DT67590675900000017673800106800000010680010674001193157900016521600060420230000002178915723000000000096572473702XXXXXX6725               0000000   YYV4 07T583156013521218N8400000000217892TVB00    01CNVGHEMP.COM833-246-5225   044171    VD84000000021789 NDR549977427364   79831A0D5AT382F7B1D8731  000000000+                F DF 08168                     000000000  Y000000000 369   0000000000000.00 0000000.00   0000000.00                             000000000000000                                                                                                                                                     015WPE 000000021789 0000000000000.00     00000 00000                  
06280160135395770DR67590675900000017673800106800000010679831A0D5AT382F7B1D8731  Y000000021789                 P1                                                                                                                                                                                                                                                                                                                                                                                                                                                                                                                                                                                                            
06280170135390001P16759067590000001767380010680000001060000000000000000                             2000000000000000000000000              000000000000                    0000000000000000000000000                    000000000000                                                                                                                                                                                                                                                                                                                                                                                                                                                                                        
06280180135390002G2675906759000000176738001068000000106720-3077930              CA           9 D                00                                      NNNN   N                      000000000000                                                                   77427364                                                                                                                                                                                                                                                                                                                                                                                                                                               
06280190135395771DT67590675900000017673800106800000010680010687287283157900016521614060420230000002178915723000000000096572546379XXXXXX6581                         YY 4607AMDJWAETVM0604  N840000000021789          81CNVGHEMP.COM833-246-5225   006876    MD84000000021789 NDR549977427364   59A0BF3BE8TCBD63F888734  000000000+600450S00130    MDJ  00560                     000000000  N                0000000000000.00 0000000.00   0000000.00                             000000000000000                                                                                                                                                     015WPE 000000000000 0000000000000.00     00000 00000                  
06280200135395771DR67590675900000017673800106800000010659A0BF3BE8TCBD63F888734  U000000000000                                                                                                                                                                                                                                                                                                                                                                                                                                                                                                                                                                                                                               
06280210135390001G26759067590000001767380010680000001067203077930               CA           9 J               210                                      NNNN           210000000000000000000000000                        7                                          77427364                                                                                                                                                                                                                                                                                                                                                                                                                                               
06280220135395772DT67590675900000017673800106800000010680010674001193157900016521626060520230000001299315723000000000096572434256XXXXXX4056               0000000   YYV4 07T583156704899952N840000000012993FX7W00    01CNVGHEMP.COM833-246-5225   014614    VD84000000012993 NDR549977427364   0AA238A3D6T3007F4A6578F  000000000+                F DF 08168                     000000000  Y000000000 369   0000000000000.00 0000000.00   0000000.00                             000000000000000                                                                                                                                                     015WPE 000000012993 0000000000000.00     00000 00000                  
06280230135395772DR6759067590000001767380010680000001060AA238A3D6T3007F4A6578F  Y000000012993                 P1                                                                                                                                                                                                                                                                                                                                                                                                                                                                                                                                                                                                            
06280240135390001P16759067590000001767380010680000001060000000000000000                             2000000000000000000000000              000000000000                    0000000000000000000000000                    000000000000                                                                                                                                                                                                                                                                                                                                                                                                                                                                                        
06280250135390002G2675906759000000176738001068000000106720-3077930              CA           9 D                00                                      NNNN   N                      000000000000                                                                   77427364                                                                                                                                                                                                                                                                                                                                                                                                                                               
06280260135395773DT67590675900000017673800106800000010680010674001193157900016521634060520230000000364915723000000000096572481583XXXXXX8663               0000000   YYV4 07T303156714142437N840000000003649XC6500    01CNVGHEMP.COM833-246-5225   748363    VD84000000003649 NDR549977427364   B1CBDBF0C9T53FEB63F65FC  000000000+                F DF 08168                     000000000  Y000000000 369   0000000000000.00 0000000.00   0000000.00                             000000000000000                                                                                                                                                     015WPE 000000003649 0000000000000.00     00000 00000                  
06280270135395773DR675906759000000176738001068000000106B1CBDBF0C9T53FEB63F65FC  U000000003649                 P1                                                                                                                                                                                                                                                                                                                                                                                                                                                                                                                                                                                                            
06280280135390001P16759067590000001767380010680000001060000000000000000                             2000000000000000000000000              000000000000                    0000000000000000000000000                    000000000000                                                                                                                                                                                                                                                                                                                                                                                                                                                                                        
06280290135390002G2675906759000000176738001068000000106720-3077930              CA           9 D                00                                      NNNN   N                      000000000000                                                                   77427364                                                                                                                                                                                                                                                                                                                                                                                                                                               
06280300135395774DT67590675900000017673800106800000010680010674001193157900016521642060520230000001278915723000000000096572481583XXXXXX8663               0000000   YYV4 07T383156714397960N840000000012789RTG300    01CNVGHEMP.COM833-246-5225   461439    VD84000000012789 NDR549977427364   B1CBDBF0C9T657A25AD3F24  000000000+                F DF 08168                     000000000  Y000000000 369   0000000000000.00 0000000.00   0000000.00                             000000000000000                                                                                                                                                     015WPE 000000012789 0000000000000.00     00000 00000                  
06280310135395774DR675906759000000176738001068000000106B1CBDBF0C9T657A25AD3F24  U000000012789                 P1                                                                                                                                                                                                                                                                                                                                                                                                                                                                                                                                                                                                            
06280320135390001P16759067590000001767380010680000001060000000000000000                             2000000000000000000000000              000000000000                    0000000000000000000000000                    000000000000                                                                                                                                                                                                                                                                                                                                                                                                                                                                                        
06280330135390002G2675906759000000176738001068000000106720-3077930              CA           9 D                00                                      NNNN   N                      000000000000                                                                   77427364                                                                                                                                                                                                                                                                                                                                                                                                                                               
06280340135395775DT67590675900000017673800106800000010680010687287283157900016521655060520230000000799615723000000000096572515676XXXXXX8822                         YY 4607AMWEV78U900605  N840000000007996          81CNVGHEMP.COM833-246-5225   076217    MC84000000007996 NDR549977427364   8E7308B7F5T7546DB0D2156  000000000+600450S00130    MWE  00565                     000000000  N                0000000000000.00 0000000.00   0000000.00                             000000000000000                                                                                                                                                     015WPE 000000000000-0000000000001.40     01750 00000                  
06280350135395775DR6759067590000001767380010680000001068E7308B7F5T7546DB0D2156  Z000000000000                                                                                                                                                                                                                                                                                                                                                                                                                                                                                                                                                                                                                               
06280360135390001G26759067590000001767380010680000001067203077930               CA           9 E               210                                      NNNN           210000000000000000000000000                        7                                          77427364                                                                                                                                                                                                                                                                                                                                                                                                                                               
06280370135395776DT67590675900000017673800106800000010680010687287283157900016521663060520230000000250015723000000000096572515676XXXXXX8822                         YY 4607AMWEO8P0900605  N840000000002500          81CNVGHEMP.COM833-246-5225   097562    MC84000000002500 NDR549977427364   8E7308B7F5TCB9B8C2A3580  000000000+600450S00130    MWE  00565                     000000000  N                0000000000000.00 0000000.00   0000000.00                             000000000000000                                                                                                                                                     015WPE 000000000000-0000000000000.44     01750 00000                  
06280380135395776DR6759067590000001767380010680000001068E7308B7F5TCB9B8C2A3580  Z000000000000                                                                                                                                                                                                                                                                                                                                                                                                                                                                                                                                                                                                                               
06280390135390001G26759067590000001767380010680000001067203077930               CA           9 E               210                                      NNNN           210000000000000000000000000                        7                                          77427364                                                                                                                                                                                                                                                                                                                                                                                                                                               
06280400135395779BH6759067590000001516480088880000090170606202315723000000000027559    0000090001987896N8008886759D06072023098                                                                                                                                                                                                                                                                                                                                                                                                                                                                                                                                                                                              
06280410135395780DT67590675900000015164800888800000010680088887287283157900019878953060520230000000768915723000000000027559558936XXXXXX4701                         YY 4607AMEBM50TB80605  N840000000007689          81CNKETOFUSION833-923-3587   00000N    MB84000000007689FNDR599977360677   3BABD8F156TEFC0D87EB209  000000000+600450S00130    MEB  11811                     000000000  N                0000000000000.00 0000000.00   0000000.00                             000000000000000                                                                                                                                                     015WPE 000000000000-0000000000001.38     01800 00000                  
06280420135395780DR6759067590000001516480088880000001063BABD8F156TEFC0D87EB209  S000000000000                 P1                                                                                                                                                                                                                                                                                                                                                                                                                                                                                                                                                                                                            
06280430135390001P1675906759000000151648008888000000106                                                          000000000000          8000            884295529                                                                                                                                                                                                                                                                                                                                                                                                                                                                                                                                                            
06280440135390002G26759067590000001516480088880000001068014041097               UT           9 B               210                  884295529           YNNN           210000000000000000000000000                        7                                          77360677                                                                                                                                                                                                                                                                                                                                                                                                                                               
06280450135395781DT67590675900000015164800888800000010680088887287283157900019878961060520230000001987015723000000000027559552486XXXXXX4754                         YY 4607AMWENE3CB80605  N840000000019870          81CNKETOFUSION833-923-3587   053278    MC84000000019870 NDR599977360677   9EB38577D8T1B4D201669F0  000000000+600450S00130    MWE  00564                     000000000  N                0000000000000.00 0000000.00   0000000.00                             000000000000000                                                                                                                                                     015WPE 000000000000-0000000000003.48     01750 00000                  
06280460135395781DR6759067590000001516480088880000001069EB38577D8T1B4D201669F0  Y000000000000                                                                                                                                                                                                                                                                                                                                                                                                                                                                                                                                                                                                                               
06280470135390001G26759067590000001516480088880000001068014041097               UT           9 E               210                                      NNNN           210000000000000000000000000                        7                                          77360677                                                                                                                                                                                                                                                                                                                                                                                                                                               
06280480135395784BH6759067590000001982880010980000090170606202315723000000000023144    0000090001729967N8001096759D06072023072                                                                                                                                                                                                                                                                                                                                                                                                                                                                                                                                                                                              
06280490135395785DT67590675900000019828800109800000010680010987287283157900017299665060520230000000327415723000000000023144522269XXXXXX6459                         YY 4607AMPLON2O8Y0605  N840000000003274          81CNKETOFUSION 8885968154    005515    MC84000000003274 NDR599977547467   BECA2D3112T3FDC017F02C4  000000000+600450S00130    MPL  00564                     000000000  N                0000000000000.00 0000000.00   0000000.00                             000000000000000                                                                                                                                                     015WPE 000000000000-0000000000000.57     01750 00000                  
06280500135395785DR675906759000000198288001098000000106BECA2D3112T3FDC017F02C4  R000000000000                                                                                                                                                                                                                                                                                                                                                                                                                                                                                                                                                                                                                               
06280510135390001G26759067590000001982880010980000001068885968154               UT           9 L               210                                      NNNN           210000000000000000000000000                        7                                          77547467                                                                                                                                                                                                                                                                                                                                                                                                                                               
06280520135395786DT67590675900000019828800109800000010680010987287283157900017299673060520230000001987015723000000000023144522269XXXXXX6459                         YY 4607AMPLON8W8Y0605  N840000000019870          81CNKETOFUSION 8885968154    005991    MC84000000019870 NDR599977547467   BECA2D3112T39A8629562AE  000000000+600450S00130    MPL  00564                     000000000  N                0000000000000.00 0000000.00   0000000.00                             000000000000000                                                                                                                                                     015WPE 000000000000-0000000000003.48     01750 00000                  
06280530135395786DR675906759000000198288001098000000106BECA2D3112T39A8629562AE  R000000000000                                                                                                                                                                                                                                                                                                                                                                                                                                                                                                                                                                                                                               
06280540135390001G26759067590000001982880010980000001068885968154               UT           9 L               210                                      NNNN           210000000000000000000000000                        7                                          77547467                                                                                                                                                                                                                                                                                                                                                                                                                                               
06280550135395789BH6759067590000002325980011680000090170606202315723000000000047632    0000090001642294N8001166759D06072023064                                                                                                                                                                                                                                                                                                                                                                                                                                                                                                                                                                                              
06280560135395790DT67590675900000023259800116800000010680011674001193157900016422924060420230000002178915723000000000047632410039XXXXXX5485               0000000   YYV4 07T303156003381295N8400000000217899NKC00    01CNGFORCEHEMP844-258-9322   20973D    VS84000000021789 NDR549977768166   3A92DB8EFFTC9EA5A8BCD23  000000000+                D CD 00245                     000000000  N000000000 166   0000000000000.00 0000000.00   0000000.00                             000000000000000                                                                                                                                                     015WPE 000000021789-0000000000003.83     01760 00000                  
06280570135395790DR6759067590000002325980011680000001063A92DB8EFFTC9EA5A8BCD23  U000000021789                 P1                                                                                                                                                                                                                                                                                                                                                                                                                                                                                                                                                                                                            
06280580135390001P16759067590000002325980011680000001060000000000000000                             2000000000000000000000000              000000000000                    0000000000000000000000000                    000000000000                                                                                                                                                                                                                                                                                                                                                                                                                                                                                        
06280590135390002G2675906759000000232598001168000000106844-2589322              CA           9 C                00                                      NNNN   Y                      000000000000                                                                   77768166                                                                                                                                                                                                                                                                                                                                                                                                                                               
06280600135395791DT67590675900000023259800116800000010680011687287283157900016422938060420230000001742615723000000000047632512107XXXXXX5751                         YY 4607AMCCUWKDVX0604  N840000000017426          81CNGFORCEHEMP844-258-9322   004889    MC84000000017426 NDR549977768166   6AE0AE07C1T38906AF51B91  000000000+600450S00130    MCC  00565                     000000000  N                0000000000000.00 0000000.00   0000000.00                             000000000000000                                                                                                                                                     015WPE 000000000000-0000000000003.05     01750 00000                  
06280610135395791DR6759067590000002325980011680000001066AE0AE07C1T38906AF51B91  R000000000000                                                                                                                                                                                                                                                                                                                                                                                                                                                                                                                                                                                                                               
06280620135390001G26759067590000002325980011680000001068442589322               CA           9 C               210                                      NNNN           210000000000000000000000000                        7                                          77768166                                                                                                                                                                                                                                                                                                                                                                                                                                               
06280630135395792DT67590675900000023259800116800000010680011687287283157900016422946060520230000000841715723000000000047632545510XXXXXX7980                         YY 4607AMDSJHFIB80605  N840000000008417          81CNGFORCEHEMP844-258-9322   050233    MD84000000008417 NDR549977768166   D922244ADFTE2E71CCBCF41  000000000+600450S00130    MDS  10828                     000000000  1                0000000000000.00 0000000.00   0000000.00                             000000000000000                                                                                                                                                     015WPE 000000000000 0000000000000.00     00000 00000                  
06280640135395792DR675906759000000232598001168000000106D922244ADFTE2E71CCBCF41  Y000000000000                                                                                                                                                                                                                                                                                                                                                                                                                                                                                                                                                                                                                               
06280650135390001G26759067590000002325980011680000001068442589322               CA           9 S               210                                      NNNN           210000000000000000000000000                                                                   77768166                                                                                                                                                                                                                                                                                                                                                                                                                                               
06280660136270002BH6759067590000000288180088880000090170606202315723000000000050001    0000090001320008N8008886759C06072023132                                                                                                                                                                                                                                                                                                                                                                                                                                                                                                                                                                                              
06280670136270003DT67590675900000002881800888800000010180088824001193157900013200013060620230000000713415723000000000050001498503XXXXXX5788       VS11    0001111   NYV1 A E463157508412767N840000000007134L34J00    05DNHAPPY HIPPIE             057573    VD84000000007134 N  549976487134                            000000000+                F DF 00381                     000000000  N000000000       0000000000000.00 0000000.00   0000000.00                             000000000000000                                                                                                                                                     01418 A000000000000 0000000000000.72     00800 01500                  
06280680136270001E167590675900000002881800888800000010100E0F8C80026 00000000000.004040404040404040404040404040404040404040404040404006011203A08000000000000000000000404040404040404040404040404040  00000840180080800080002306060F1BF4A67BFDB157D32EC897404040400840A0000000031010000000000000000000318204760080000000000000000000004040401E40404040 000000071.34 000000000.001E00000000000000000000    80                                                                                                                                                                                                                                                                                                                  
06280690136270002G2675906759000000028818008888000000101SEVIERVILLE              TN           5 D                00                                      NNNN00 N 00                   000000000000                                                                   76487134                                                                                                                                                                                                                                                                                                                                                                                                                                               
06280700136270004DT67590675900000002881800888800000010180088824001193157900013200021060620230000000395015723000000000050001443264XXXXXX3780       VS11    0001111   NYV1 A E583157528631394N840000000003950FV6W00    07DNHAPPY HIPPIE             004835    VD84000000003950 N  549976487134                            000000000+                F DF 10433                     000000000  Y000000000 338   0000000000000.00 0000000.00   0000000.00                             000000000000000                                                                                                                                                     01418 A000000000000 0000000000000.24     00050 02200                  
06280710136270001E167590675900000002881800888800000010100E068C8022F 00000000000.004040404040404040404040404040404040404040404040404006011203A00000000000000000000000404040404040404040404040404040  0000084020000000000000230606E9EECB35CE30F976FA60AF25404040400840A0000000031010000000000000000000404040404040404040404040404040404040404040404040 000000039.50 000000000.004040400000000000000000    80                                                                                                                                                                                                                                                                                                                  
06280720136270002G2675906759000000028818008888000000101SEVIERVILLE              TN           5 D                00                                      NNNN00 N 00                   000000000000                                                                   76487134                                                                                                                                                                                                                                                                                                                                                                                                                                               
06280730136270005DT67590675900000002881800888800000010180088824001193157900013200039060620230000001711615723000000000050001415099XXXXXX0256       VS11    0001111   NYV1 A E583157672527464N84000000001711675RP00    05DNHAPPY HIPPIE             354077    VD84000000017116 N  549976487134                            000000000+                F DF 00381                     000000000  N000000000       0000000000000.00 0000000.00   0000000.00                             000000000000000                                                                                                                                                     01418 A000000000000 0000000000001.52     00800 01500                  
06280740136270001E167590675900000002881800888800000010100E0F8C80095 00000000000.004040404040404040404040404040404040404040404040404006011203A0A000000000000000000000404040404040404040404040404040  0001084018008080008000230606A1311F6EF02D3935CF285E31404040400840A0000000031010000000000000000000DF89306C0080000000000000000000004040401E40404040 000000171.16 000000000.001E00000000000000000000    80                                                                                                                                                                                                                                                                                                                  
06280750136270002G2675906759000000028818008888000000101SEVIERVILLE              TN           5 D                00                                      NNNN00 N 00                   000000000000                                                                   76487134                                                                                                                                                                                                                                                                                                                                                                                                                                               
06280760136270006DT67590675900000002881800888800000010180088824001193157900013200047060620230000000888615723000000000050001414740XXXXXX7701       VS11    0001111   NYV1 A E463157674088333N840000000008886PLV400    07DNHAPPY HIPPIE             09863D    VS84000000008886 N  549976487134                            000000000+                D CD 12113                     000000000  N000000000 499   0000000000000.00 0000000.00   0000000.00                             000000000000000                                                                                                                                                     01418 A000000000000 0000000000001.97     02100 01000                  
06280770136270001E167590675900000002881800888800000010100E068C80016 00000000000.004040404040404040404040404040404040404040404040404006021203A00000000000000000000000404040404040404040404040404040  00020840200000000000002306060BC1AE737CB6A595B487A84F404040400840A0000000031010000000000000000000440CC70E0082000000000000000000004040404040404040 000000088.86 000000000.004040400000000000000000    80                                                                                                                                                                                                                                                                                                                  
06280780136270002G2675906759000000028818008888000000101SEVIERVILLE              TN           5 C                00                                      NNNN00 Y 00                   000000000000                                                                   76487134                                                                                                                                                                                                                                                                                                                                                                                                                                               
06280790136270007DT67590675900000002881800888800000010180088824001193157900013200054060620230000000325815723000000000050001422921XXXXXX4244       VS11    0001111   NYV1 A E463157678381653N8400000000032583QK700    05DNHAPPY HIPPIE             053439    VD84000000003258 N  549976487134                            000000000+                F DF 00381                     000000000  N000000000       0000000000000.00 0000000.00   0000000.00                             000000000000000                                                                                                                                                     01418 A000000000000 0000000000000.41     00800 01500                  
06280800136270001E167590675900000002881800888800000010100E0F8C800C3 00000000000.004040404040404040404040404040404040404040404040404006011203A00000000000000000000000404040404040404040404040404040  0000084018008080008000230606FA32CDBFCFA59F12D7DC1769404040400840A0000000031010000000000000000000A7C2935A0382000000000000000000004040401E40404040 000000032.58 000000000.001E00000000000000000000    80                                                                                                                                                                                                                                                                                                                  
06280810136270002G2675906759000000028818008888000000101SEVIERVILLE              TN           5 D                00                                      NNNN00 N 00                   000000000000                                                                   76487134                                                                                                                                                                                                                                                                                                                                                                                                                                               
06280820136270008DT67590675900000002881800888800000010180088824001193157900013200062060620230000000197415723000000000050001473916XXXXXX9936       VS11    0001111   NYV1 A E463157686301067N8400000000019749ZNV00    05DNHAPPY HIPPIE             050351    VD84000000001974 N  549976487134                            000000000+                G DG 08704                     000000000  N000000000       0000000000000.00 0000000.00   0000000.00                             000000000000000                                                                                                                                                     01418 A000000000000 0000000000000.44     01700 01000                  
06280830136270001E167590675900000002881800888800000010100E0F8C800FA 00000000000.004040404040404040404040404040404040404040404040404006011203A08000000000000000000000404040404040404040404040404040  000008401800808000800023060628ACA058D3290F8C958E3CFE404040400840A0000000031010000000000000000000404040404040404040404040404040404040401E40404040 000000019.74 000000000.001E00000000000000000000    80                                                                                                                                                                                                                                                                                                                  
06280840136270002G2675906759000000028818008888000000101SEVIERVILLE              TN           5 D                00                                      NNNN00 N 00                   000000000000                                                                   76487134                                                                                                                                                                                                                                                                                                                                                                                                                                               
06280850136270009DT67590675900000002881800888800000010180088824001193157900013200070060620230000000658515723000000000050001419002XXXXXX4396       VS11    0001111   NYV1 A E583157688299247N840000000006585XLRV00    07DNHAPPY HIPPIE             021431    VD84000000006585 N  549976487134                            000000000+                F DF 10433                     000000000  Y000000000 338   0000000000000.00 0000000.00   0000000.00                             000000000000000                                                                                                                                                     01418 A000000000000 0000000000000.25     00050 02200                  
06280860136270001E167590675900000002881800888800000010100E068C8010F 00000000000.004040404040404040404040404040404040404040404040404006011203A00000000000000000000000404040404040404040404040404040  0000084020000000000000230606414D33CE60655592462D5392404040400840A0000000031010000000000000000000404040404040404040404040404040404040404040404040 000000065.85 000000000.004040400000000000000000    80                                                                                                                                                                                                                                                                                                                  
06280870136270002G2675906759000000028818008888000000101SEVIERVILLE              TN           5 D                00                                      NNNN00 N 00                   000000000000                                                                   76487134                                                                                                                                                                                                                                                                                                                                                                                                                                               
06280880136270010DT67590675900000002881800888800000010180088824001193157900013200088060620230000000109815723000000000050001441707XXXXXX7426       VK04VS111111111   NYV1 A E383157726640543N840000000001098R38F00    07DNHAPPY HIPPIE             972050    VD84000000001098 N  549976487134                            000000000+                F PF 08165                     000000000  N000000000       0000000000000.00 0000000.00   0000000.00                             000000000000000                                                                                                                                                     01418 F000000000000 0000000000000.23     01600 00500                  
06280890136270001E167590675900000002881800888800000010100E068C8000A 00000000000.00404040404040404040404040404040404040404040404040401F42FF32A00000000010030273000000004000000000000000000000000000  000008400060000000000023060615A1067B415168DC30820578404040400840A000000003101000000000000000000097D520580086000000000000000000004040404040404040 000000010.98 000000000.004040400000000000000000    80                                                                                                                                                                                                                                                                                                                  
06280900136270002G2675906759000000028818008888000000101SEVIERVILLE              TN           5 P                00                                      NNNN00 N 00                   000000000000                                                                   76487134                                                                                                                                                                                                                                                                                                                                                                                                                                               
06280910136270011BH6759067590000000288180088880000090170606202315723000000000084767    0000090001290014N8008886759C06072023029                                                                                                                                                                                                                                                                                                                                                                                                                                                                                                                                                                                              
06280920136270012DT67590675900000002881800888800000010180088824001193157900012900019060620230000000829815723000000000084767431243XXXXXX9763               1001111   NYV1 A K463157546683745N840000000008298VNFS00    01DNHAPPY HIPPIE             006290    VS84000000008298 NDR549976487169                            000000000+                B CB 12107                     000000000  N000000000 494   0000000000000.00 0000000.00   0000000.00                             000000000000000                                                                                                                                                     01418 E000000000000 0000000000001.79     02040 01000                  
06280930136270012DR675906759000000028818008888000000101                         Z000000000000                                                                                                                                                                                                                                                                                                                                                                                                                                                                                                                                                                                                                               
06280940136270001G2675906759000000028818008888000000101865-3663142              TN           5 C                00                                      NNNN   Y                      000000000000                                                                   76487169                                                                                                                                                                                                                                                                                                                                                                                                                                               
06280950136270013DT67590675900000002881800888800000010180088824001193157900012900027060620230000000362115723000000000084767444607XXXXXX8263       VS11    0001111   NYV1 A E383157550253766N840000000003621DNDH00    05DNHAPPY HIPPIE             SPI3A2    VD84000000003621 N  549976487169                            000000000+                G PG 10178                     000000000  N000000000 363   0000000000000.00 0000000.00   0000000.00                             000000000000000                                                                                                                                                     01418 A000000000000 0000000000000.88     02150 01000                  
06280960136270001E167590675900000002881800888800000010100E0F8C80028 00000000000.004040404040404040404040404040404040404040404040404006011203A0A000000000000000000000404040404040404040404040404040  000008401800808000800023060650F89B9CAC1836F1FD953721404040400840A0000000031010000000000000000000F91429670082000000000000000000004040401E40404040 000000036.21 000000000.001E00000000000000000000    80                                                                                                                                                                                                                                                                                                                  
06280970136270002G2675906759000000028818008888000000101SEVIERVILLE              TN           5 P                00                                      NNNN00 N 00                   000000000000                                                                   76487169                                                                                                                                                                                                                                                                                                                                                                                                                                               
06280980136270014DT67590675900000002881800888800000010180088824001193157900012900035060620230000002195015723000000000084767479011XXXXXX1383       VS11    0001111   NYV1 A E583157560331174N840000000021950GKR700    05DNHAPPY HIPPIE             006224    VD84000000021950 N  549976487169                            000000000+                F DF 10433                     000000000  Y000000000 338   0000000000000.00 0000000.00   0000000.00                             000000000000000                                                                                                                                                     01418 A000000000000 0000000000000.33     00050 02200                  
06280990136270001E167590675900000002881800888800000010100E0F8C800DC 00000000000.004040404040404040404040404040404040404040404040404006010A03A0A000000000000000000000404040404040404040404040404040  0001084018008080008000230606FD8AB32FDCC18714FECC4C95404040400840A00000000310100000000000000000001FC9F6DE808917D830300000000000004040401E40404040 000000219.50 000000000.001E00000000000000000000    80                                                                                                                                                                                                                                                                                                                  
06281000136270002G2675906759000000028818008888000000101SEVIERVILLE              TN           5 D                00                                      NNNN00 N 00                   000000000000                                                                   76487169                                                                                                                                                                                                                                                                                                                                                                                                                                               
06281010136270015DT67590675900000002881800888800000010180088824001193157900012900043060620230000000790015723000000000084767419090XXXXXX6357       VS11    0001111   NYV1 A E463157591764747N840000000007900JRNB00    05DNHAPPY HIPPIE             791850    VD84000000007900 N  549976487169                            000000000+                F DF 00381                     000000000  N000000000       0000000000000.00 0000000.00   0000000.00                             000000000000000                                                                                                                                                     01418 A000000000000 0000000000000.78     00800 01500                  
06281020136270001E167590675900000002881800888800000010100E0F8C80033 00000000000.004040404040404040404040404040404040404040404040404006011203A0A000000000000000000000404040404040404040404040404040  0001084018008080008000230606E5376DD24ECA98B18CE88952404040400840A0000000031010000000000000000000FA5632840080000000000000000000004040401E40404040 000000079.00 000000000.001E00000000000000000000    80                                                                                                                                                                                                                                                                                                                  
06281030136270002G2675906759000000028818008888000000101SEVIERVILLE              TN           5 D                00                                      NNNN00 N 00                   000000000000                                                                   76487169                                                                                                                                                                                                                                                                                                                                                                                                                                               
06281040136270016DT67590675900000002881800888800000010180088824001193157900012900050060620230000000525215723000000000084767432739XXXXXX4902       VS11    0001111   NYV1 A E463157621166978N840000000005252QK5400    07DNHAPPY HIPPIE             958194    VD84000000005252 N  549976487169                            000000000+                F DF 10433                     000000000  Y000000000 338   0000000000000.00 0000000.00   0000000.00                             000000000000000                                                                                                                                                     01418 A000000000000 0000000000000.25     00050 02200                  
06281050136270001E167590675900000002881800888800000010100E068C800C3 00000000000.004040404040404040404040404040404040404040404040404006011203A00000000000000000000000404040404040404040404040404040  0000084000000000000000230606C7AEA376257306C21D81D509404040400840A0000000031010000000000000000000893C9ABBDE3CBB5930300000000000004040404040404040 000000052.52 000000000.004040400000000000000000    80                                                                                                                                                                                                                                                                                                                  
06281060136270002G2675906759000000028818008888000000101SEVIERVILLE              TN           5 D                00                                      NNNN00 N 00                   000000000000                                                                   76487169                                                                                                                                                                                                                                                                                                                                                                                                                                               
06281070136270017DT67590675900000002881800888800000010180088824001193157900012900068060620230000000636315723000000000084767440393XXXXXX5842       VS11    0001111   NYV1 A E463157625327985N840000000006363SQB600    05DNHAPPY HIPPIE             286734    VD84000000006363 N  549976487169                            000000000+                F PF 08170                     000000000  N000000000       0000000000000.00 0000000.00   0000000.00                             000000000000000                                                                                                                                                     01418 A000000000000 0000000000000.88     01150 01500                  
06281080136270001E167590675900000002881800888800000010100E0F8C800C1 00000000000.004040404040404040404040404040404040404040404040404006011203A08000000000000000000000404040404040404040404040404040  0000084018008080008000230606D75F7BC411C5F82E54808AB2404040400840A0000000031010000000000000000000F1D25DA3366DF45D30300000000000004040401E40404040 000000063.63 000000000.001E00000000000000000000    80                                                                                                                                                                                                                                                                                                                  
06281090136270002G2675906759000000028818008888000000101SEVIERVILLE              TN           5 P                00                                      NNNN00 N 00                   000000000000                                                                   76487169                                                                                                                                                                                                                                                                                                                                                                                                                                               
06281100136270018DT67590675900000002881800888800000010180088824001193157900012900076060620230000000747415723000000000084767422921XXXXXX4978       VS11    0001111   NYV1 A E303157627947456N840000000007474L3C700    05DNHAPPY HIPPIE             048396    VD84000000007474 N  549976487169                            000000000+                F DF 00381                     000000000  N000000000       0000000000000.00 0000000.00   0000000.00                             000000000000000                                                                                                                                                     01418 A000000000000 0000000000000.75     00800 01500                  
06281110136270001E167590675900000002881800888800000010100E0F8C80054 00000000000.004040404040404040404040404040404040404040404040404006011203A08000000000000000000000404040404040404040404040404040  0000084018008080008000230606AF79C6AD6AAB8BD8CBD6FD4C404040400840A00000000310100000000000000000004FB38E250382000000000000000000004040401E40404040 000000074.74 000000000.001E00000000000000000000    80                                                                                                                                                                                                                                                                                                                  
06281120136270002G2675906759000000028818008888000000101SEVIERVILLE              TN           5 D                00                                      NNNN00 N 00                   000000000000                                                                   76487169                                                                                                                                                                                                                                                                                                                                                                                                                                               
06281130136270019DT67590675900000002881800888800000010180088824001193157900012900084060620230000000393915723000000000084767443264XXXXXX7034       VS11    0001111   NYV1 A E383157631572448N840000000003939KC5B00    07DNHAPPY HIPPIE             000508    VD84000000003939 N  549976487169                            000000000+                F DF 10433                     000000000  Y000000000 338   0000000000000.00 0000000.00   0000000.00                             000000000000000                                                                                                                                                     01418 A000000000000 0000000000000.24     00050 02200                  
06281140136270001E167590675900000002881800888800000010100E068C80025 00000000000.004040404040404040404040404040404040404040404040404006011203A00000000000000000000000404040404040404040404040404040  0000084020000000000000230606B783DC3770551F619A0AD532404040400840A0000000031010000000000000000000404040404040404040404040404040404040404040404040 000000039.39 000000000.004040400000000000000000    80                                                                                                                                                                                                                                                                                                                  
