02334840505540002BH6759067590000001165080088880000090170222202305323000000000059331    0000090001110018N8008886759C02232023                                                                                                                                                                                                                                                                                                                                                                                                                                                                                                                                                                                                 
02334850505540003DT67590675900000011650800888800000010180088824001193053900011100012022120230000000408605323000000000059331443044XXXXXX4101       VS11    0001111   NYV1 A E303052637143239N84000000000408687RN00    07DNVPODS HOLDING INC        702259    VD84000000004086 N  599977032122                            000000000+                F DF 10433                     000000000  Y000000000 338   0000000000000.00 0000000.00   0000000.00                             000000000000000                                                                                                                                                     01418 A000000000000 0000000000000.24     00050 02200                  
02334860505540004DT67590675900000011650800888800000010180088824001193053900011100020022120230000000530005323000000000059331408138XXXXXX9540       VS11    0001111   NYV1 A E383052669461493N840000000005300V5FK00    07DNVPODS HOLDING INC        408621    VD84000000005300 N  599977032122                            000000000+                F PF 08170                     000000000  N000000000       0000000000000.00 0000000.00   0000000.00                             000000000000000                                                                                                                                                     01418 A000000000000 0000000000000.76     01150 01500                  
02334870505540005DT67590675900000011650800888800000010180088877287283053900011100030022120230000000136205323000000000059331528071XXXXXX2285       MS02WI09          NY 1 0 AMCSLHJ5ZT0221  N840000000001362          05DNVPODS HOLDING INC        09774B    MC84000000001362 N  599977032122                            000000000+M10101C5434C    MCS  00353                     000000000  N                0000000000000.00 0000000.00   0000000.00                             000000000000000                                                                                                                                                   B101418  000000000000 0000000000000.35     01800 01000                  
02334880505540006DT67590675900000011650800888800000010180088876509753053900011100044022120230000000283805323000000000059331601100XXXXXX7033   BA05                  NY41 0 N863044633916019N840000000002838    00    07DNVPODS HOLDING INC        02119R    DS84000000002838 N  599977032122830                         000000000+0000004910H00   DCCDI01000501129  144951000000 000000000  0          112   0000000000000.00 0000000.00   0000000.00                             000000000000000                                                                                                                                                     01418  000000000000 0000000000000.59     01720 01000                  
02334890505540007DT67590675900000011650800888800000010180088824001193053900011100053022120230000000081405323000000000059331405413XXXXXX2911       VK04VS111111111   NYV1 A E303052790682837N840000000000814875500    07DNVPODS HOLDING INC        02455D    VS84000000000814 N  599977032122                            000000000+                D CD 12113                     000000000  N000000000 499   0000000000000.00 0000000.00   0000000.00                             000000000000000                                                                                                                                                     01418 F000000000000 0000000000000.27     02100 01000                  
02334900505540008DT67590675900000011650800888800000010180088824001193053900011100061022120230000000170405323000000000059331478200XXXXXX7979       VS11    0001111   NYV1 A E303052798836754N840000000001704NBCS00    05DNVPODS HOLDING INC        031117    VD84000000001704 N  599977032122                            000000000+                F DF 10433                     000000000  Y000000000 338   0000000000000.00 0000000.00   0000000.00                             000000000000000                                                                                                                                                     01418 A000000000000 0000000000000.23     00050 02200                  
02334910505540009DT67590675900000011650800888800000010180088824001193053900011100079022120230000000283805323000000000059331498422XXXXXX9071       VS11    0001111   NYV1 A E583052844843660N8400000000028382WKH00    07DNVPODS HOLDING INC        04149I    VS84000000002838 N  599977032122                            000000000+                I CI 12113                     000000000  N000000000 499   0000000000000.00 0000000.00   0000000.00                             000000000000000                                                                                                                                                     01418 A000000000000 0000000000000.70     02100 01000                  
02334920505540010DT67590675900000011650800888800000010180088824001193053900011100087022120230000000329205323000000000059331414720XXXXXX1276       VS11    0001111   NYV1 A E383052863578563N840000000003292WNDM00    07DNVPODS HOLDING INC        07529C    VS84000000003292 N  599977032122                            000000000+                C CC 12112                     000000000  N000000000 497   0000000000000.00 0000000.00   0000000.00                             000000000000000                                                                                                                                                     01418 A000000000000 0000000000000.64     01650 01000                  
02334930505540011DT67590675900000011650800888800000010180088824001193053900011100095022120230000000794605323000000000059331420767XXXXXX2070       VS11    0001111   NYV1 A E583053009747860N840000000007946RTXX00    07DNVPODS HOLDING INC        051619    VD84000000007946 N  599977032122                            000000000+                F DF 10433                     000000000  Y000000000 338   0000000000000.00 0000000.00   0000000.00                             000000000000000                                                                                                                                                     01418 A000000000000 0000000000000.26     00050 02200                  
02334940505540012DT67590675900000011650800888800000010180088824001193053900011100103022120230000000255205323000000000059331426684XXXXXX3673       VS11    0001111   NYV1 A E463053011192022N840000000002552FSSX00    05DNVPODS HOLDING INC        05173B    VS84000000002552 N  599977032122                            000000000+                B CB 12111                     000000000  N000000000 495   0000000000000.00 0000000.00   0000000.00                             000000000000000                                                                                                                                                     01418 A000000000000 0000000000000.52     01650 01000                  
02334950505540013DT67590675900000011650800888800000010180088824001193053900011100111022120230000000257405323000000000059331482915XXXXXX8273       VS11    0001111   NYV1 A E383053012489584N840000000002574VQ4N00    07DNVPODS HOLDING INC        082019    VD84000000002574 N  599977032122                            000000000+                F DF 10433                     000000000  Y000000000 338   0000000000000.00 0000000.00   0000000.00                             000000000000000                                                                                                                                                     01418 A000000000000 0000000000000.23     00050 02200                  
02334960505540014DT67590675900000011650800888800000010180088824001193053900011100129022120230000000257405323000000000059331434236XXXXXX9826       VS11    0001111   NYV1 A E303053016924386N840000000002574TK4D00    07DNVPODS HOLDING INC        076579    VD84000000002574 N  599977032122                            000000000+                F DF 00381                     000000000  N000000000       0000000000000.00 0000000.00   0000000.00                             000000000000000                                                                                                                                                     01418 A000000000000 0000000000000.36     00800 01500                  
02334970505540015DT67590675900000011650800888800000010180088824001193053900011100137022120230000000257405323000000000059331491712XXXXXX1435       VS11    0001111   NYV1 A E303053019580195N840000000002574D7ZW00    07DNVPODS HOLDING INC        083219    VD84000000002574 N  599977032122                            000000000+                F DF 10433                     000000000  Y000000000 338   0000000000000.00 0000000.00   0000000.00                             000000000000000                                                                                                                                                     01418 A000000000000 0000000000000.23     00050 02200                  
02334980505540016DT67590675900000011650800888800000010180088877287283053900011100147022120230000000567705323000000000059331522914XXXXXX3384       MS02WI09          NY 2 0 AMDJFBDG5F0221  N840000000005677          07DNVPODS HOLDING INC        090859    MD84000000005677 N  599977032122                            000000000+M10101M1334C    MDJ  10815                     000000000  1                0000000000000.00 0000000.00   0000000.00                             000000000000000                                                                                                                                                   B101418  000000000000 0000000000000.25     00050 02200                  
02334990505540017DT67590675900000011650800888800000010180088824001193053900011100152022120230000000030605323000000000059331465992XXXXXX3465       VK04VS111111111   NYV1 A E383053043165944N840000000000306ZJK400    07DNVPODS HOLDING INC        778052    VD84000000000306 N  599977032122                            000000000+                F DF 00451                     000000000  N000000000 214   0000000000000.00 0000000.00   0000000.00                             000000000000000                                                                                                                                                     01418 F000000000000 0000000000000.09     01550 00400                  
02335000505540018DT67590675900000011650800888800000010180088824001193053900011100160022120230000000097405323000000000059331447279XXXXXX9635       VK04VS111111111   NYV1 A E583053053365016N840000000000974459C00    07DNVPODS HOLDING INC        257877    VD84000000000974 N  599977032122                            000000000+                F DF 00451                     000000000  N000000000 214   0000000000000.00 0000000.00   0000000.00                             000000000000000                                                                                                                                                     01418 F000000000000 0000000000000.19     01550 00400                  
02335010505540019DT67590675900000011650800888800000010180088824001193053900011100178022120230000000283805323000000000059331447279XXXXXX9635       VS11    0001111   NYV1 A E583053053995131N8400000000028386BC500    07DNVPODS HOLDING INC        117344    VD84000000002838 N  599977032122                            000000000+                F DF 00381                     000000000  N000000000       0000000000000.00 0000000.00   0000000.00                             000000000000000                                                                                                                                                     01418 A000000000000 0000000000000.38     00800 01500                  
02335020505540020DT67590675900000011650800888800000010180088824001193053900011100186022120230000000908205323000000000059331414720XXXXXX1590       VS11    0001111   NYV1 A E463053121967450N840000000009082BRL400    07DNVPODS HOLDING INC        09497D    VS84000000009082 N  599977032122                            000000000+                D CD 12113                     000000000  N000000000 499   0000000000000.00 0000000.00   0000000.00                             000000000000000                                                                                                                                                     01418 A000000000000 0000000000002.01     02100 01000                  
02335030505540021BH6759067590000001452280088880000090170222202305323000000000000500    0000090001010001N8008886759C02232023                                                                                                                                                                                                                                                                                                                                                                                                                                                                                                                                                                                                 
02335040505540022DT67590675900000014522800888800000010180088877287283053900010100015022120230000000050005323000000000000500558158XXXXXX7298                         NY 1 0 AMDBHWCEK80221  N840000000000500          05DNRIP STRIPS LLC           22ABKK    MD84000000000500 NP1549977185156                            000000000+M10101C5434C    MDB  00062                     000000000  N                0000000000000.00 0000000.00   0000000.00                             000000000000000                                                                                                                                                   B101418  000000000000 0000000000000.23     02650 01000                  
02335050505540001P1675906759000000145228008888000000101                                                          000000000000          8000            921936836                                                                                                                                                                                                                                                                                                                                                                                                                                                                                                                                                            
02335060505540023BH6759067590000000288180088880000090170222202305323000000000040124    0000090001510018N8008886759C02232023                                                                                                                                                                                                                                                                                                                                                                                                                                                                                                                                                                                                 
02335070505540024DT67590675900000002881800888800000010180088824001193053900015100018022220230000000395005323000000000040124480639XXXXXX6310       VS11    0001111   NYV1 A E383053565946352N840000000003950LLKF00    05DNHAPPY HIPPIE             344632    VD84000000003950 N  549976487134                            000000000+                F DF 00381                     000000000  N000000000       0000000000000.00 0000000.00   0000000.00                             000000000000000                                                                                                                                                     01418 A000000000000 0000000000000.47     00800 01500                  
02335080505540025DT67590675900000002881800888800000010180088824001193053900015100026022220230000000316005323000000000040124419090XXXXXX8877       VS11    0001111   NYV1 A E383053569644307N840000000003160HD5400    05DNHAPPY HIPPIE             791247    VD84000000003160 N  549976487134                            000000000+                F DF 00381                     000000000  N000000000       0000000000000.00 0000000.00   0000000.00                             000000000000000                                                                                                                                                     01418 A000000000000 0000000000000.40     00800 01500                  
02335090505540026DT67590675900000002881800888800000010180088824001193053900015100034022220230000000246805323000000000040124487917XXXXXX3512       VS11    0001111   NYV1 A E463053598274577N8400000000024684GG800    07DNHAPPY HIPPIE             651827    VD84000000002468 N  549976487134                            000000000+                F DF 00381                     000000000  N000000000       0000000000000.00 0000000.00   0000000.00                             000000000000000                                                                                                                                                     01418 A000000000000 0000000000000.35     00800 01500                  
02335100505540027DT67590675900000002881800888800000010180088824001193053900015100042022220230000000225805323000000000040124410801XXXXXX9806       VS11    0001111   NYV1 A E463053627819790N840000000002258GTQT00    05DNHAPPY HIPPIE             022621    VD84000000002258 N  549976487134                            000000000+                F DF 00381                     000000000  N000000000       0000000000000.00 0000000.00   0000000.00                             000000000000000                                                                                                                                                     01418 A000000000000 0000000000000.33     00800 01500                  
02335110505540028DT67590675900000002881800888800000010180088876509753053900015100057022220230000000251505323000000000040124601100XXXXXX4030   BA50                  NY41 0 N753045386258780N840000000002515    00    05DNHAPPY HIPPIE             02228R    DS84000000002515 N  549976487134050                         000000000+0000004910H00   DCCDI01000336119  104345000000 000000000  0          112   0000000000000.00 0000000.00   0000000.00                             000000000000000                                                                                                                                                     01418  000000000000 0000000000000.53     01720 01000                  
02335120505540029DT67590675900000002881800888800000010180088824001193053900015100067022220230000000219505323000000000040124440393XXXXXX7736       VS11    0001111   NYV1 A E383053650698620N840000000002195WRLP00    05DNHAPPY HIPPIE             153839    VD84000000002195 N  549976487134                            000000000+                F PF 08170                     000000000  N000000000       0000000000000.00 0000000.00   0000000.00                             000000000000000                                                                                                                                                     01418 A000000000000 0000000000000.40     01150 01500                  
02335130505540030DT67590675900000002881800888800000010180088824001193053900015100075022220230000000167805323000000000040124449507XXXXXX7637       VS11    0001111   NYV1 A E383053653683386N840000000001678G2XL00    05DNHAPPY HIPPIE             030929    VD84000000001678 N  549976487134                            000000000+                F DF 00381                     000000000  N000000000       0000000000000.00 0000000.00   0000000.00                             000000000000000                                                                                                                                                     01418 A000000000000 0000000000000.28     00800 01500                  
02335140505540031DT67590675900000002881800888800000010180088877287283053900015100085022220230000000158005323000000000040124542418XXXXXX2456       MS02WI09          NY 1 0 AMWEUM58UB0222  N840000000001580          07DNHAPPY HIPPIE             60105P    MC84000000001580 N  549976487134                            000000000+M10101M0034C    MWE  00743                     000000000  N                0000000000000.00 0000000.00   0000000.00                             000000000000000                                                                                                                                                   B101418  000000000000 0000000000000.40     02300 00400                  
02335150505540032DT67590675900000002881800888800000010180088824001193053900015100091022220230000000276605323000000000040124419090XXXXXX5725       VS11    0001111   NYV1 A E383053675759287N8400000000027665XDX00    05DNHAPPY HIPPIE             797475    VD84000000002766 N  549976487134                            000000000+                F DF 00381                     000000000  N000000000       0000000000000.00 0000000.00   0000000.00                             000000000000000                                                                                                                                                     01418 A000000000000 0000000000000.37     00800 01500                  
02335160505540033DT67590675900000002881800888800000010180088877287283053900015100101022220230000000079805323000000000040124518941XXXXXX4253       MS02WI09          NY 1 0 AMWED8FXHK0222  N840000000000798          05DNHAPPY HIPPIE             40070Z    MC84000000000798 N  549976487134                            000000000+M10101C5434C    MWE  00743                     000000000  N                0000000000000.00 0000000.00   0000000.00                             000000000000000                                                                                                                                                   B101418  000000000000 0000000000000.22     02300 00400                  
02335170505540034DT67590675900000002881800888800000010180088824001193053900015100117022220230000000153705323000000000040124422921XXXXXX2042       VS11    0001111   NYV1 A E583053681702608N840000000001537WK8700    05DNHAPPY HIPPIE             050171    VD84000000001537 N  549976487134                            000000000+                F DF 00381                     000000000  N000000000       0000000000000.00 0000000.00   0000000.00                             000000000000000                                                                                                                                                     01418 A000000000000 0000000000000.27     00800 01500                  
02335180505540035DT67590675900000002881800888800000010180088824001193053900015100125022220230000000054805323000000000040124445101XXXXXX6075       VK04VS111111111   NYV1 A E303053726386172N840000000000548TLQT00    05DNHAPPY HIPPIE             819988    VD84000000000548 N  549976487134                            000000000+                F DF 10439                     000000000  Y000000000 331   0000000000000.00 0000000.00   0000000.00                             000000000000000                                                                                                                                                     01418 F000000000000 0000000000000.22     00050 02200                  
02335190505540036DT67590675900000002881800888800000010180088877287283053900015100135022220230000000522705323000000000040124511953XXXXXX0097       MS02WI09          NY 1 0 AMDJGU2OHK0222  N840000000005227          07DNHAPPY HIPPIE             074051    MD84000000005227 N  549976487134                            000000000+M10101M5434C    MDJ  00402                     000000000  N                0000000000000.00 0000000.00   0000000.00                             000000000000000                                                                                                                                                   B101418  000000000000 0000000000000.70     01050 01500                  
02335200505540037DT67590675900000002881800888800000010180088824001193053900015100141022220230000000153005323000000000040124419090XXXXXX1223       VS11    0001111   NYV1 A E583053753951601N840000000001530K69800    05DNHAPPY HIPPIE             801827    VD84000000001530 N  549976487134                            000000000+                F DF 00381                     000000000  N000000000       0000000000000.00 0000000.00   0000000.00                             000000000000000                                                                                                                                                     01418 A000000000000 0000000000000.27     00800 01500                  
02335210505540038DT67590675900000002881800888800000010180088824001193053900015100158022220230000000079005323000000000040124419090XXXXXX1223       VK04VS111111111   NYV1 A E583053757195574N840000000000790CZLT00    05DNHAPPY HIPPIE             802023    VD84000000000790 N  549976487134                            000000000+                F DF 00451                     000000000  N000000000 214   0000000000000.00 0000000.00   0000000.00                             000000000000000                                                                                                                                                     01418 F000000000000 0000000000000.16     01550 00400                  
02335220505540039DT67590675900000002881800888800000010180088824001193053900015100166022220230000000079005323000000000040124419090XXXXXX6367       VK04VS111111111   NYV1 A E303053758446197N8400000000007907JDX00    05DNHAPPY HIPPIE             802101    VD84000000000790 N  549976487134                            000000000+                F DF 00451                     000000000  N000000000 214   0000000000000.00 0000000.00   0000000.00                             000000000000000                                                                                                                                                     01418 F000000000000 0000000000000.16     01550 00400                  
02335230505540040DT67590675900000002881800888800000010180088877287283053900015100176022220230000000112305323000000000040124518941XXXXXX4253       MS02WI09          NY 1 0 AMWEHOPKHK0222  N840000000001123          05DNHAPPY HIPPIE             82212Z    MC84000000001123 N  549976487134                            000000000+M10101C5434C    MWE  00743                     000000000  N                0000000000000.00 0000000.00   0000000.00                             000000000000000                                                                                                                                                   B101418  000000000000 0000000000000.30     02300 00400                  
02335240505540041DT67590675900000002881800888800000010180088824001193053900015100182022220230000000521105323000000000040124459954XXXXXX5604       VS11    0001111   NYV1 A E303053808076702N840000000005211SPVB00    05DNHAPPY HIPPIE             H67924    VD84000000005211 N  549976487134                            000000000+                F DF 10433                     000000000  Y000000000 338   0000000000000.00 0000000.00   0000000.00                             000000000000000                                                                                                                                                     01418 A000000000000 0000000000000.25     00050 02200                  
02335250505540042BH6759067590000000288180088880000090170222202305323000000000081257    0000090001520019N8008886759C02232023                                                                                                                                                                                                                                                                                                                                                                                                                                                                                                                                                                                                 
02335260505540043DT67590675900000002881800888800000010180088824001193053900015200016022220230000000444405323000000000081257443264XXXXXX1793       VS11    0001111   NYV1 A E383053542802542N840000000004444J3BT00    05DNHAPPY HIPPIE             010453    VD84000000004444 N  549976487158                            000000000+                F DF 10433                     000000000  Y000000000 338   0000000000000.00 0000000.00   0000000.00                             000000000000000                                                                                                                                                     01418 A000000000000 0000000000000.24     00050 02200                  
02335270505540044DT67590675900000002881800888800000010180088824001193053900015200024022220230000000086105323000000000081257419090XXXXXX0995       VK04VS111111111   NYV1 A E303053567747662N840000000000861BL4700    05DNHAPPY HIPPIE             791164    VD84000000000861 N  549976487158                            000000000+                F DF 00451                     000000000  N000000000 214   0000000000000.00 0000000.00   0000000.00                             000000000000000                                                                                                                                                     01418 F000000000000 0000000000000.17     01550 00400                  
02335280505540045DT67590675900000002881800888800000010180088824001193053900015200032022220230000000789905323000000000081257419090XXXXXX3821       VS11    0001111   NYV1 A E583053586488906N840000000007899RDKM00    05DNHAPPY HIPPIE             792097    VD84000000007899 N  549976487158                            000000000+                F DF 00381                     000000000  N000000000       0000000000000.00 0000000.00   0000000.00                             000000000000000                                                                                                                                                     01418 A000000000000 0000000000000.78     00800 01500                  
02335290505540046DT67590675900000002881800888800000010180088824001193053900015200040022220230000000266305323000000000081257415978XXXXXX6979       VS11    0001111   NYV1 A E583053610437586N8400000000026633K3300    05DNHAPPY HIPPIE             095810    VD84000000002663 N  549976487158                            000000000+                F DF 10433                     000000000  Y000000000 338   0000000000000.00 0000000.00   0000000.00                             000000000000000                                                                                                                                                     01418 A000000000000 0000000000000.23     00050 02200                  
02335300505540047DT67590675900000002881800888800000010180088824001193053900015200057022220230000001181905323000000000081257419090XXXXXX6158       VS11    0001111   NYV1 A E383053613976101N8400000000118197ZKG00    05DNHAPPY HIPPIE             793812    VD84000000011819 N  549976487158                            000000000+                F DF 00381                     000000000  N000000000       0000000000000.00 0000000.00   0000000.00                             000000000000000                                                                                                                                                     01418 A000000000000 0000000000001.10     00800 01500                  
02335310505540048DT67590675900000002881800888800000010180088877287283053900015200067022220230000000784305323000000000081257546412XXXXXX2354       MS02WI09          NY 2 0 AMDJDYIDR70222  N840000000007843          05DNHAPPY HIPPIE             080034    MD84000000007843 N  549976487158                            000000000+M10101C1334C    MDJ  00402                     000000000  N                0000000000000.00 0000000.00   0000000.00                             000000000000000                                                                                                                                                     01418  000000000000 0000000000000.97     01050 01500                  
02335320505540049DT67590675900000002881800888800000010180088824001193053900015200073022220230000000548805323000000000081257445101XXXXXX0323       VS11    0001111   NYV1 A E383053639564612N8400000000054885PXG00    05DNHAPPY HIPPIE             738814    VD84000000005488 N  549976487158                            000000000+                F DF 10433                     000000000  Y000000000 338   0000000000000.00 0000000.00   0000000.00                             000000000000000                                                                                                                                                     01418 A000000000000 0000000000000.25     00050 02200                  
02335330505540050DT67590675900000002881800888800000010180088824001193053900015200081022220230000000710005323000000000081257435547XXXXXX9872       VS11    0001111   NYV1 A E383053647281586N840000000007100QCZV00    05DNHAPPY HIPPIE             038038    VD84000000007100 N  549976487158                            000000000+                F DF 10433                     000000000  Y000000000 338   0000000000000.00 0000000.00   0000000.00                             000000000000000                                                                                                                                                     01418 A000000000000 0000000000000.26     00050 02200                  
02335340505540051DT67590675900000002881800888800000010180088877287283053900015200091022220230000000329105323000000000081257546617XXXXXX9758       MS02WI09          NY 1 0 AMCWWB6YHF0222  N840000000003291          05DNHAPPY HIPPIE             36747Z    MC84000000003291 N  549976487158                            000000000+M10101C5434C    MCW  00646                     000000000  N                0000000000000.00 0000000.00   0000000.00                             000000000000000                                                                                                                                                   B101418  000000000000 0000000000000.67     01900 00400                  
02335350505540052DT67590675900000002881800888800000010180088873011003053900015200103022220230000000444405323000000000081257379254XXXXX1011                          NY 1 0 N007196948228068N840000000004444          05DNHAPPY HIPPIE             842815    AM84000000004444 N  549976487158                            000000000+51010155434C 258     11261                     000000000                   0000000000000.00 0000000.00   0000000.00                             000000000000000 61248972086759675900000002881 HAPPY HIPPIE             832 PARKWAY              8656540830      37862     HAPPYHIPPIE832@GMAIL.COM                  01418  000000000000 0000000000000.81     01600 00000                  
02335360505540053DT67590675900000002881800888800000010180088877287283053900015200117022220230000000414505323000000000081257514377XXXXXX8098       MS02WI09          NY 1 0 AMDJFEY9HH0222  N840000000004145          05DNHAPPY HIPPIE             15A75V    MD84000000004145 N  549976487158                            000000000+M10101C5434C    MDJ  00402                     000000000  N                0000000000000.00 0000000.00   0000000.00                             000000000000000                                                                                                                                                   B101418  000000000000 0000000000000.59     01050 01500                  
02335370505540054DT67590675900000002881800888800000010180088876509753053900015200121022220230000000395005323000000000081257601100XXXXXX4729   BA50                  NY41 0 N813045463910961N840000000003950    00    05DNHAPPY HIPPIE             02214R    DS84000000003950 N  549976487158050                         000000000+0000004910H00   DCCDI01000833123  125311000000 000000000  0          112   0000000000000.00 0000000.00   0000000.00                             000000000000000                                                                                                                                                     01418  000000000000 0000000000000.78     01720 01000                  
02335380505540055DT67590675900000002881800888800000010180088877287283053900015200133022220230000000246705323000000000081257534961XXXXXX5054       MS02WI09          NY 1 0 AMDJWS0OUB0222  N840000000002467          07DNHAPPY HIPPIE             1K3F1D    MD84000000002467 N  549976487158                            000000000+M10101M0034C    MDJ  00402                     000000000  N                0000000000000.00 0000000.00   0000000.00                             000000000000000                                                                                                                                                   A101418  000000000000 0000000000000.41     01050 01500                  
02335390505540056DT67590675900000002881800888800000010180088824001193053900015200149022220230000000028005323000000000081257443238XXXXXX7317       VK04VS111111111   NYV1 A E463053756386481N840000000000280F7DG00    05DNHAPPY HIPPIE             060038    VD84000000000280 N  549976487158                            000000000+                F DF 00451                     000000000  N000000000 214   0000000000000.00 0000000.00   0000000.00                             000000000000000                                                                                                                                                     01418 F000000000000 0000000000000.08     01550 00400                  
02335400505540057DT67590675900000002881800888800000010180088824001193053900015200156022220230000000325805323000000000081257480639XXXXXX6834       VS11    0001111   NYV1 A E383053785641726N84000000000325868DZ00    05DNHAPPY HIPPIE             355129    VD84000000003258 N  549976487158                            000000000+                F DF 00381                     000000000  N000000000       0000000000000.00 0000000.00   0000000.00                             000000000000000                                                                                                                                                     01418 A000000000000 0000000000000.41     00800 01500                  
02335410505540058DT67590675900000002881800888800000010180088824001193053900015200164022220230000000128105323000000000081257440393XXXXXX0535       VK04VS111111111   NYV1 A E583053807920232N840000000001281NW9Z00    05DNHAPPY HIPPIE             681570    VD84000000001281 N  549976487158                            000000000+                F PF 08165                     000000000  N000000000       0000000000000.00 0000000.00   0000000.00                             000000000000000                                                                                                                                                     01418 F000000000000 0000000000000.25     01600 00500                  
02335420505540059DT67590675900000002881800888800000010180088824001193053900015200172022220230000000740405323000000000081257419090XXXXXX5215       VS11    0001111   NYV1 A E463053815232250N8400000000074047VNL00    05DNHAPPY HIPPIE             805569    VD84000000007404 N  549976487158                            000000000+                F DF 00381                     000000000  N000000000       0000000000000.00 0000000.00   0000000.00                             000000000000000                                                                                                                                                     01418 A000000000000 0000000000000.74     00800 01500                  
02335430505540060DT67590675900000002881800888800000010180088824001193053900015200180022220230000000024905323000000000081257491523XXXXXX7823       VK04VS111111111   NYV1 A E303053821157086N840000000000249SW4200    07DNHAPPY HIPPIE             003042    VD84000000000249 N  549976487158                            000000000+                F DF 10439                     000000000  Y000000000 331   0000000000000.00 0000000.00   0000000.00                             000000000000000                                                                                                                                                     01418 F000000000000 0000000000000.22     00050 02200                  
02335440505540061DT67590675900000002881800888800000010180088824001193053900015200198022220230000000237105323000000000081257413037XXXXXX4265       VS11    0001111   NYV1 A E303053822179629N84000000000237177CD00    07DNHAPPY HIPPIE             012330    VD84000000002371 N  549976487158                            000000000+                F DF 10433                     000000000  Y000000000 338   0000000000000.00 0000000.00   0000000.00                             000000000000000                                                                                                                                                     01418 A000000000000 0000000000000.23     00050 02200                  
02335450505540062BH6759067590000000215480088880000090170222202305323000000003688890    0000090001159491N8008886759C02232023                                                                                                                                                                                                                                                                                                                                                                                                                                                                                                                                                                                                 
02335460505540063DT67590675900000002154800888800000010180088824001193053900011502183022220230000005000005323000000003688890415417XXXXXX8676               2111111   NYV4 A7W463053666236138N8400000000500002HK400    01DNDRIP DROP DISTRO LLC     00716G    VB84000000050000 NP1519971004114   INV-000844               000000000+                G4CG411355                     000000000  N000000000 377   0000000000000.00 0000000.00   0000000.00                             000000000000000                                                                                                                                                     01418 G000000050000 0000000000014.85     02950 01000                  
02335470505540001P16759067590000000215480088880000001010000000000000000    43956047240              2000000000000000000000000              000000000000                    0000000000000000000000000                    000000000000                                                                                                                                                                                                                                                                                                                                                                                                                                                                                        
02335480505540064DT67590675900000002154800888800000010180088824001193053900011583274022220230000091930005323000000003688890463589XXXXXX7811               2111111   NYV4 A7W383053791517544N840000000919300M9DN00    01DNDRIP DROP DISTRO LLC     115390    VD84000000919300 NP1519971004114   INV-000854               000000000+                G DG 10352                     000000000  Y000000000 338   0000000000000.00 0000000.00   0000000.00                             000000000000000                                                                                                                                                     01418 G000000919300 0000000000004.82     00050 02200                  
02335490505540001P16759067590000000215480088880000001010000000000000000    43956532056              2000000000000000000000000              000000000000                    0000000000000000000000000                    000000000000                                                                                                                                                                                                                                                                                                                                                                                                                                                                                        
02335500505540065DT67590675900000002154800888800000010180088887287283053900011596830022220230000003708005323000000003688890547415XXXXXX7571                         NY 4607AMEBFYLC4K0221  N840000000037080          81DNDRIP DROP DISTRO LLC     07235Q    MB84000000037080 NP1519900000001   17459                    000000000+600450S00140    MEB  11637                     000000000  N                0000000000000.00 0000000.00   0000000.00                             000000000000000                                                                                                                                                   U001418  000000000000 0000000000011.22     03000 01000                  
02335510505540001P1675906759000000021548008888000000101                                                          000000000000          8000            471534935                                                                                                                                                                                                                                                                                                                                                                                                                                                                                                                                                            
02335520505540066DT67590675900000002154800888800000010180088873011003053900011565517022220230000157750005323000000003688890377987XXXXX1008                          NY 4 07N007198567247064N840000001577500          01DNDRIP DROP DISTRO LLC     168283    AM84000001577500 N  519971004114                            000000000+6004S0600140 258     11245                     000000000                   0000000000000.00 0000000.00   0000000.00                             000000000000000 61248972736759675900000002154 DRIP DROP DISTRO LLC     1445 W COMMERCE AVE SUITE2087248209      83705     TROY@DRIPDROPDISTRO.COM                   01418  000000000000 0000000000370.81     02350 00000                  
02335530505540067DT67590675900000002154800888800000010180088873011003053900011577488022220230000106881005323000000003688890372724XXXXX3018                          NY 4 07N006622998668078N840000001068810          01DNDRIP DROP DISTRO LLC     168235    AM84000001068810 N  519971004114                            000000000+6004S0600140 258     11245                     000000000                   0000000000000.00 0000000.00   0000000.00                             000000000000000 61248972736759675900000002154 DRIP DROP DISTRO LLC     1445 W COMMERCE AVE SUITE2087248209      83705     TROY@DRIPDROPDISTRO.COM                   01418  000000000000 0000000000251.27     02350 00000                  
02335540505540068DT67590675900000002154800888800000010180088824001193053900011593935022220230000003420005323000000003688890415417XXXXXX5644               2111111   NYV4 A7W583053809853709N840000000034200D9SS00    01DNDRIP DROP DISTRO LLC     08371G    VB84000000034200 NP1519971004114   INV-000856               000000000+                G5CG511887                     000000000  N000000000 163   0000000000000.00 0000000.00   0000000.00                             000000000000000                                                                                                                                                     01418 G000000034200 0000000000010.36     03000 01000                  
02335550505540001P16759067590000000215480088880000001010000000000000000    43956590633              2000000000000000000000000              000000000000                    0000000000000000000000000                    000000000000                                                                                                                                                                                                                                                                                                                                                                                                                                                                                        
02335560505540069DT67590675900000002154800888800000010180088873011003053900011594913022220230000000200005323000000003688890372724XXXXX3025                          NY 4 07N007200343472063N840000000002000          01DNDRIP DROP DISTRO LLC     207189    AM84000000002000 N  519971004114                            000000000+6004S0S00140 258     11243                     000000000                   0000000000000.00 0000000.00   0000000.00                             000000000000000 61248972736759675900000002154 DRIP DROP DISTRO LLC     1445 W COMMERCE AVE SUITE2087248209      83705     TROY@DRIPDROPDISTRO.COM                   01418  000000000000 0000000000000.43     01650 00000                  
02335570505540070BH6759067590000000561180088880000090170222202305323000000000005289    0000090001167424N8008886759C02232023                                                                                                                                                                                                                                                                                                                                                                                                                                                                                                                                                                                                 
02335580505540071DT67590675900000005611800888800000010180088824001193053900011674248022220230000000528905323000000000005289429420XXXXXX2704               2111111   NYV4 A7W383053685844004N840000000005289THCX00    01DNK DIVINE 503-689-7182    087901    VD84000000005289 NP1549971004114   5242                     000000000+                F DF 00415                     000000000  N000000000       0000000000000.00 0000000.00   0000000.00                             000000000000000                                                                                                                                                     01418 G000000005289 0000000000001.02     01650 01500                  
02335590505540001P16759067590000000561180088880000001010000000000000000                             2000000000000000000000000              000000000000                    0000000000000000000000000                    000000000000                                                                                                                                                                                                                                                                                                                                                                                                                                                                                        
02335600505540072BH6759067590000001090080010180000090170222202305323000000000093646    0000090001120029N8001016759C02232023                                                                                                                                                                                                                                                                                                                                                                                                                                                                                                                                                                                                 
02335610505540073DT67590675900000010900800101800000010180010124001193053900011200010022220230000000237505323000000000093646438419XXXXXX7509       VS11    0001111   NYV1 A E303053545571714N840000000002375TKQW00    05DNPLANET VAPOR #700        000917    VD84000000002375 N  599976923375                            000000000+                F DF 00381                     000000000  N000000000       0000000000000.00 0000000.00   0000000.00                             000000000000000                                                                                                                                                     01418 A000000000000 0000000000000.34     00800 01500                  
02335620505540074DT67590675900000010900800101800000010180010124001193053900011200028022220230000000086305323000000000093646410702XXXXXX1438       VK04VS111111111   NYV1 A E303053555947340N840000000000863X7GZ00    05DNPLANET VAPOR #700        094343    VD84000000000863 N  599976923375                            000000000+                F DF 00451                     000000000  N000000000 214   0000000000000.00 0000000.00   0000000.00                             000000000000000                                                                                                                                                     01418 F000000000000 0000000000000.17     01550 00400                  
02335630505540075DT67590675900000010900800101800000010180010124001193053900011200036022220230000000269905323000000000093646410702XXXXXX5190       VS11    0001111   NYV1 A E583053559688679N840000000002699F67N00    05DNPLANET VAPOR #700        099283    VD84000000002699 N  599976923375                            000000000+                F DF 00381                     000000000  N000000000       0000000000000.00 0000000.00   0000000.00                             000000000000000                                                                                                                                                     01418 A000000000000 0000000000000.37     00800 01500                  
02335640505540076DT67590675900000010900800101800000010180010124001193053900011200044022220230000000172705323000000000093646433477XXXXXX4259       VS11    0001111   NYV1 A E383053569866472N8400000000017279ZQL00    05DNPLANET VAPOR #700        234343    VD84000000001727 N  599976923375                            000000000+                F DF 10433                     000000000  Y000000000 338   0000000000000.00 0000000.00   0000000.00                             000000000000000                                                                                                                                                     01418 A000000000000 0000000000000.23     00050 02200                  
02335650505540077DT67590675900000010900800101800000010180010124001193053900011200051022220230000000267005323000000000093646410702XXXXXX5339       VS11    0001111   NYV1 A E383053613072916N8400000000026706ST600    05DNPLANET VAPOR #700        111693    VD84000000002670 N  599976923375                            000000000+                F DF 00381                     000000000  N000000000       0000000000000.00 0000000.00   0000000.00                             000000000000000                                                                                                                                                     01418 A000000000000 0000000000000.36     00800 01500                  
02335660505540078DT67590675900000010900800101800000010180010124001193053900011200069022220230000000213705323000000000093646434236XXXXXX2340       VS11    0001111   NYV1 A E463053618837773N840000000002137QSTR00    07DNPLANET VAPOR #700        056969    VD84000000002137 N  599976923375                            000000000+                F DF 00381                     000000000  N000000000       0000000000000.00 0000000.00   0000000.00                             000000000000000                                                                                                                                                     01418 A000000000000 0000000000000.32     00800 01500                  
02335670505540079DT67590675900000010900800101800000010180010124001193053900011200077022220230000000539705323000000000093646410702XXXXXX0616       VS11    0001111   NYV1 A E303053662606959N8400000000053975NHT00    05DNPLANET VAPOR #700        124609    VD84000000005397 N  599976923375                            000000000+                F DF 00381                     000000000  N000000000       0000000000000.00 0000000.00   0000000.00                             000000000000000                                                                                                                                                     01418 A000000000000 0000000000000.58     00800 01500                  
02335680505540080DT67590675900000010900800101800000010180010177287283053900011200087022220230000000151105323000000000093646531258XXXXXX8470       MS02WI09          NY 1 0 AMDJWZU9UB0222  N840000000001511          05DNPLANET VAPOR #700        110232    MD84000000001511 N  599976923375                            000000000+M10101C5434C    MDJ  10815                     000000000  1                0000000000000.00 0000000.00   0000000.00                             000000000000000                                                                                                                                                   B101418  000000000000 0000000000000.23     00050 02200                  
02335690505540081DT67590675900000010900800101800000010180010177287283053900011200095022220230000000269905323000000000093646523957XXXXXX6040       MS02WI09          NY 1 0 AMDJFTY3HH0222  N840000000002699          05DNPLANET VAPOR #700        712580    MD84000000002699 N  599976923375                            000000000+M10101C5434C    MDJ  00402                     000000000  N                0000000000000.00 0000000.00   0000000.00                             000000000000000                                                                                                                                                   B101418  000000000000 0000000000000.43     01050 01500                  
02335700505540082DT67590675900000010900800101800000010180010124001193053900011200101022220230000000269905323000000000093646438419XXXXXX7771       VS11    0001111   NYV1 A E383053731121001N840000000002699ZL4600    05DNPLANET VAPOR #700        051832    VD84000000002699 N  599976923375                            000000000+                F DF 00381                     000000000  N000000000       0000000000000.00 0000000.00   0000000.00                             000000000000000                                                                                                                                                     01418 A000000000000 0000000000000.37     00800 01500                  
02335710505540083DT67590675900000010900800101800000010180010124001193053900011200119022220230000000075505323000000000093646400022XXXXXX1158       VK04VS111111111   NYV1 A E303053735307022N840000000000755V4ZZ00    05DNPLANET VAPOR #700        477138    VD84000000000755 N  599976923375                            000000000+                F DF 10439                     000000000  Y000000000 331   0000000000000.00 0000000.00   0000000.00                             000000000000000                                                                                                                                                     01418 F000000000000 0000000000000.22     00050 02200                  
02335720505540084DT67590675900000010900800101800000010180010124001193053900011200127022220230000000269905323000000000093646438419XXXXXX6689       VS11    0001111   NYV1 A E583053753388042N84000000000269967LK00    05DNPLANET VAPOR #700        055538    VD84000000002699 N  599976923375                            000000000+                F DF 00381                     000000000  N000000000       0000000000000.00 0000000.00   0000000.00                             000000000000000                                                                                                                                                     01418 A000000000000 0000000000000.37     00800 01500                  
02335730505540085DT67590675900000010900800101800000010180010177287283053900011200137022220230000000242905323000000000093646553818XXXXXX4910       MS02WI09          NY 1 0 AMDSX8CLUB0222  N840000000002429          05DNPLANET VAPOR #700        155629    MD84000000002429 N  599976923375                            000000000+M10101C5434C    MDS  00402                     000000000  N                0000000000000.00 0000000.00   0000000.00                             000000000000000                                                                                                                                                   B101418  000000000000 0000000000000.41     01050 01500                  
02335740505540086DT67590675900000010900800101800000010180010124001193053900011200143022220230000000323805323000000000093646438419XXXXXX4187       VS11    0001111   NYV1 A E383053758695358N840000000003238LGK200    05DNPLANET VAPOR #700        060429    VD84000000003238 N  599976923375                            000000000+                F DF 00381                     000000000  N000000000       0000000000000.00 0000000.00   0000000.00                             000000000000000                                                                                                                                                     01418 A000000000000 0000000000000.41     00800 01500                  
02335750505540087DT67590675900000010900800101800000010180010124001193053900011200150022220230000000237505323000000000093646438419XXXXXX4535       VS11    0001111   NYV1 A E303053776962351N8400000000023753SKL00    05DNPLANET VAPOR #700        063456    VD84000000002375 N  599976923375                            000000000+                F DF 00381                     000000000  N000000000       0000000000000.00 0000000.00   0000000.00                             000000000000000                                                                                                                                                     01418 A000000000000 0000000000000.34     00800 01500                  
02335760505540088DT67590675900000010900800101800000010180010177287283053900011200160022220230000000232805323000000000093646531258XXXXXX2178       MS02WI09          NY 1 0 AMDJI02LHK0222  N840000000002328          05DNPLANET VAPOR #700        111021    MD84000000002328 N  599976923375                            000000000+M10101C5434C    MDJ  10815                     000000000  1                0000000000000.00 0000000.00   0000000.00                             000000000000000                                                                                                                                                   B101418  000000000000 0000000000000.23     00050 02200                  
02335770505540089DT67590675900000010900800101800000010180010124001193053900011200176022220230000000582805323000000000093646473703XXXXXX4140       VS11    0001111   NYV1 A E303053805044388N8400000000058288RZP00    05DNPLANET VAPOR #700        031942    VD84000000005828 N  599976923375                            000000000+                F DF 10433                     000000000  Y000000000 338   0000000000000.00 0000000.00   0000000.00                             000000000000000                                                                                                                                                     01418 A000000000000 0000000000000.25     00050 02200                  
02335780505540090DT67590675900000010900800101800000010180010124001193053900011200184022220230000000053905323000000000093646473703XXXXXX4140       VK04VS111111111   NYV1 A E303053805535579N840000000000539Q73X00    05DNPLANET VAPOR #700        023480    VD84000000000539 N  599976923375                            000000000+                F DF 10439                     000000000  Y000000000 331   0000000000000.00 0000000.00   0000000.00                             000000000000000                                                                                                                                                     01418 F000000000000 0000000000000.22     00050 02200                  
02335790505540091DT67590675900000010900800101800000010180010124001193053900011200192022220230000000237505323000000000093646414720XXXXXX3804       VS11    0001111   NYV1 A E463053816297346N840000000002375PVTK00    05DNPLANET VAPOR #700        00901C    VS84000000002375 N  599976923375                            000000000+                C CC 12112                     000000000  N000000000 497   0000000000000.00 0000000.00   0000000.00                             000000000000000                                                                                                                                                     01418 A000000000000 0000000000000.49     01650 01000                  
02335800505540092DT67590675900000010900800101800000010180010124001193053900011200200022220230000000507305323000000000093646427082XXXXXX5061       VS11    0001111   NYV1 A E583053817346259N840000000005073S4NT00    05DNPLANET VAPOR #700        022616    VS84000000005073 N  599976923375                            000000000+                D CD 12113                     000000000  N000000000 499   0000000000000.00 0000000.00   0000000.00                             000000000000000                                                                                                                                                     01418 A000000000000 0000000000001.17     02100 01000                  
02335810505540093DT67590675900000010900800101800000010180010177287283053900011200210022220230000000237505323000000000093646531257XXXXXX5592       MS02WI09          NY 1 0 AMDJKSHUV70222  N840000000002375          05DNPLANET VAPOR #700        114586    MD84000000002375 N  599976923375                            000000000+M10101C5434C    MDJ  10815                     000000000  1                0000000000000.00 0000000.00   0000000.00                             000000000000000                                                                                                                                                   B101418  000000000000 0000000000000.23     00050 02200                  
02335820505540094DT67590675900000010900800101800000010180010124001193053900011200226022220230000000269905323000000000093646410702XXXXXX2542       VS11    0001111   NYV1 A E583053821604710N840000000002699CK6D00    05DNPLANET VAPOR #700        165740    VD84000000002699 N  599976923375                            000000000+                F DF 00381                     000000000  N000000000       0000000000000.00 0000000.00   0000000.00                             000000000000000                                                                                                                                                     01418 A000000000000 0000000000000.37     00800 01500                  
02335830505540095DT67590675900000010900800101800000010180010124001193053900011200234022220230000000539905323000000000093646413022XXXXXX9721       VS11    0001111   NYV1 A E383053833957196N840000000005399MQ3W00    05DNPLANET VAPOR #700        801817    VD84000000005399 N  599976923375                            000000000+                F DF 00381                     000000000  N000000000       0000000000000.00 0000000.00   0000000.00                             000000000000000                                                                                                                                                     01418 A000000000000 0000000000000.58     00800 01500                  
02335840505540096DT67590675900000010900800101800000010180010177287283053900011200244022220230000000377905323000000000093646514230XXXXXX8063       MS02WI09          NY 1 0 AMDJSHZPV70222  N840000000003779          05DNPLANET VAPOR #700        7B9F62    MD84000000003779 N  599976923375                            000000000+M10101C5434C    MDJ  00402                     000000000  N                0000000000000.00 0000000.00   0000000.00                             000000000000000                                                                                                                                                   B101418  000000000000 0000000000000.55     01050 01500                  
02335850505540097DT67590675900000010900800101800000010180010124001193053900011200259022220230000000641205323000000000093646438419XXXXXX7916       VS11    0001111   NYV1 A E303053844096235N840000000006412PQBQ00    05DNPLANET VAPOR #700        082649    VD84000000006412 N  599976923375                            000000000+                F DF 00381                     000000000  N000000000       0000000000000.00 0000000.00   0000000.00                             000000000000000                                                                                                                                                     01418 A000000000000 0000000000000.66     00800 01500                  
02335860505540098DT67590675900000010900800101800000010180010124001193053900011200267022220230000000593805323000000000093646461675XXXXXX7722       VS11    0001111   NYV1 A E303053860008780N840000000005938B7SV00    05DNPLANET VAPOR #700        221940    VD84000000005938 N  599976923375                            000000000+                F DF 00381                     000000000  N000000000       0000000000000.00 0000000.00   0000000.00                             000000000000000                                                                                                                                                     01418 A000000000000 0000000000000.63     00800 01500                  
02335870505540099DT67590675900000010900800101800000010180010124001193053900011200275022220230000000566805323000000000093646433477XXXXXX9809       VS11    0001111   NYV1 A E303054000007165N840000000005668DP2J00    05DNPLANET VAPOR #700        693811    VD84000000005668 N  599976923375                            000000000+                F DF 10433                     000000000  Y000000000 338   0000000000000.00 0000000.00   0000000.00                             000000000000000                                                                                                                                                     01418 A000000000000 0000000000000.25     00050 02200                  
02335880505540100DT67590675900000010900800101800000010180010124001193053900011200283022220230000000237505323000000000093646473702XXXXXX6279       VS11    0001111   NYV1 A E463054010052845N840000000002375TLX200    05DNPLANET VAPOR #700        024213    VD84000000002375 N  599976923375                            000000000+                F DF 10433                     000000000  Y000000000 338   0000000000000.00 0000000.00   0000000.00                             000000000000000                                                                                                                                                     01418 A000000000000 0000000000000.23     00050 02200                  
02335890505540101DT67590675900000010900800101800000010180010124001193053900011200291022220230000000658505323000000000093646486775XXXXXX2737       VS11    0001111   NYV1 A E583054023812573N8400000000065859NJZ00    07DNPLANET VAPOR #700        113394    VD84000000006585 N  599976923375                            000000000+                F DF 10433                     000000000  Y000000000 338   0000000000000.00 0000000.00   0000000.00                             000000000000000                                                                                                                                                     01418 A000000000000 0000000000000.25     00050 02200                  
02335900505540102BH6759067590000001094280010180000090170222202305323000000000063612    0000090001140020N8001016759C02232023                                                                                                                                                                                                                                                                                                                                                                                                                                                                                                                                                                                                 
02335910505540103DT67590675900000010942800101800000010180010177287283053900011400018022220230000000267405323000000000063612542418XXXXXX7589       MS02WI09          NY 1 0 AMWES96HR50222  N840000000002674          05DNPLANET VAPOR #800        23995P    MC84000000002674 N  599976923545                            000000000+M10101C5434C    MWE  00739                     000000000  N                0000000000000.00 0000000.00   0000000.00                             000000000000000                                                                                                                                                   B101418  000000000000 0000000000000.72     02300 01000                  
02335920505540104DT67590675900000010942800101800000010180010177287283053900011400026022220230000000235305323000000000063612517805XXXXXX6574       MS02WI09          NY 1 0 AMPLQNYSE00222  N840000000002353          07DNPLANET VAPOR #800        07723B    MC84000000002353 N  599976923545                            000000000+M10101M0034C    MPL  00353                     000000000  N                0000000000000.00 0000000.00   0000000.00                             000000000000000                                                                                                                                                   B101418  000000000000 0000000000000.52     01800 01000                  
02335930505540105DT67590675900000010942800101800000010180010124001193053900011400032022220230000000256605323000000000063612473702XXXXXX9398       VS11    0001111   NYV1 A E583053616014868N84000000000256648C800    05DNPLANET VAPOR #800        031158    VD84000000002566 N  599976923545                            000000000+                F DF 10433                     000000000  Y000000000 338   0000000000000.00 0000000.00   0000000.00                             000000000000000                                                                                                                                                     01418 A000000000000 0000000000000.23     00050 02200                  
02335940505540106DT67590675900000010942800101800000010180010124001193053900011400040022220230000000203205323000000000063612438419XXXXXX4101       VS11    0001111   NYV1 A E463053622492812N8400000000020325DRF00    05DNPLANET VAPOR #800        021730    VD84000000002032 N  599976923545                            000000000+                F DF 00381                     000000000  N000000000       0000000000000.00 0000000.00   0000000.00                             000000000000000                                                                                                                                                     01418 A000000000000 0000000000000.31     00800 01500                  
02335950505540107DT67590675900000010942800101800000010180010177287283053900011400059022220230000000984005323000000000063612531258XXXXXX2333       MS02WI09          NY 1 0 AMDJNBSDE00222  N840000000009840          05DNPLANET VAPOR #800        113095    MD84000000009840 N  599976923545                            000000000+M10101C5434C    MDJ  10815                     000000000  1                0000000000000.00 0000000.00   0000000.00                             000000000000000                                                                                                                                                   B101418  000000000000 0000000000000.27     00050 02200                  
02335960505540108DT67590675900000010942800101800000010180010124001193053900011400065022220230000000160405323000000000063612432739XXXXXX9603       VS11    0001111   NYV1 A E383053636638330N8400000000016044X8Z00    07DNPLANET VAPOR #800        755556    VD84000000001604 N  599976923545                            000000000+                F DF 10433                     000000000  Y000000000 338   0000000000000.00 0000000.00   0000000.00                             000000000000000                                                                                                                                                     01418 A000000000000 0000000000000.23     00050 02200                  
02335970505540109DT67590675900000010942800101800000010180010124001193053900011400073022220230000000235305323000000000063612408639XXXXXX8469       VS11    0001111   NYV1 A E303053641831343N840000000002353Q6DQ00    05DNPLANET VAPOR #800        980260    VS84000000002353 N  599976923545                            000000000+                B CB 12111                     000000000  N000000000 495   0000000000000.00 0000000.00   0000000.00                             000000000000000                                                                                                                                                     01418 A000000000000 0000000000000.49     01650 01000                  
02335980505540110DT67590675900000010942800101800000010180010124001193053900011400081022220230000000192505323000000000063612473703XXXXXX1745       VS11    0001111   NYV1 A E383053654178653N840000000001925C2SP00    05DNPLANET VAPOR #800        050883    VD84000000001925 N  599976923545                            000000000+                F DF 10433                     000000000  Y000000000 338   0000000000000.00 0000000.00   0000000.00                             000000000000000                                                                                                                                                     01418 A000000000000 0000000000000.23     00050 02200                  
02335990505540111DT67590675900000010942800101800000010180010124001193053900011400099022220230000000149605323000000000063612461675XXXXXX1003       VK04VS111111111   NYV1 A E383053747476530N840000000001496ZQ7W00    05DNPLANET VAPOR #800        091580    VD84000000001496 N  599976923545                            000000000+                F DF 00451                     000000000  N000000000 214   0000000000000.00 0000000.00   0000000.00                             000000000000000                                                                                                                                                     01418 F000000000000 0000000000000.27     01550 00400                  
02336000505540112DT67590675900000010942800101800000010180010124001193053900011400107022220230000000211805323000000000063612443047XXXXXX1134       VS11    0001111   NYV1 A E583053758074826N840000000002118DCXZ00    07DNPLANET VAPOR #800        743552    VD84000000002118 N  599976923545                            000000000+                F DF 10433                     000000000  Y000000000 338   0000000000000.00 0000000.00   0000000.00                             000000000000000                                                                                                                                                     01418 A000000000000 0000000000000.23     00050 02200                  
02336010505540113DT67590675900000010942800101800000010180010124001193053900011400115022220230000000064105323000000000063612441707XXXXXX6459       VK04VS111111111   NYV1 A E383053761682608N84000000000064125ST00    07DNPLANET VAPOR #800        416249    VD84000000000641 N  599976923545                            000000000+                F PF 08165                     000000000  N000000000       0000000000000.00 0000000.00   0000000.00                             000000000000000                                                                                                                                                     01418 F000000000000 0000000000000.15     01600 00500                  
02336020505540114DT67590675900000010942800101800000010180010124001193053900011400123022220230000000213905323000000000063612400022XXXXXX9878       VS11    0001111   NYV1 A E383053789193201N840000000002139FKXR00    05DNPLANET VAPOR #800        703234    VD84000000002139 N  599976923545                            000000000+                F DF 10433                     000000000  Y000000000 338   0000000000000.00 0000000.00   0000000.00                             000000000000000                                                                                                                                                     01418 A000000000000 0000000000000.23     00050 02200                  
02336030505540115DT67590675900000010942800101800000010180010124001193053900011400131022220230000000187105323000000000063612461675XXXXXX8222       VS11    0001111   NYV1 A E463053792506129N840000000001871P74Q00    05DNPLANET VAPOR #800        140960    VD84000000001871 N  599976923545                            000000000+                F DF 00381                     000000000  N000000000       0000000000000.00 0000000.00   0000000.00                             000000000000000                                                                                                                                                     01418 A000000000000 0000000000000.30     00800 01500                  
02336040505540116DT67590675900000010942800101800000010180010124001193053900011400149022220230000000320805323000000000063612427199XXXXXX4253       VS11    0001111   NYV1 A E583053811686849N840000000003208KBS200    05DNPLANET VAPOR #800        714395    VD84000000003208 N  599976923545                            000000000+                F DF 00381                     000000000  N000000000       0000000000000.00 0000000.00   0000000.00                             000000000000000                                                                                                                                                     01418 A000000000000 0000000000000.41     00800 01500                  
02336050505540117DT67590675900000010942800101800000010180010177287283053900011400158022220230000001059005323000000000063612528149XXXXXX1462       MS02WI09          NY 1 0 AMDJKYERV70222  N840000000010590          05DNPLANET VAPOR #800        064550    MD84000000010590 N  599976923545                            000000000+M10101C5434C    MDJ  00402                     000000000  N                0000000000000.00 0000000.00   0000000.00                             000000000000000                                                                                                                                                   B101418  000000000000 0000000000001.26     01050 01500                  
02336060505540118DT67590675900000010942800101800000010180010124001193053900011400164022220230000000374305323000000000063612438419XXXXXX0025       VS11    0001111   NYV1 A E463053851189658N840000000003743LKJJ00    05DNPLANET VAPOR #800        083838    VD84000000003743 N  599976923545                            000000000+                F DF 00381                     000000000  N000000000       0000000000000.00 0000000.00   0000000.00                             000000000000000                                                                                                                                                     01418 A000000000000 0000000000000.45     00800 01500                  
02336070505540119DT67590675900000010942800101800000010180010124001193053900011400172022220230000000267405323000000000063612483950XXXXXX7258       VS11    0001111   NYV1 A E463053858467156N8400000000026749RTC00    07DNPLANET VAPOR #800        01404D    VS84000000002674 N  599976923545                            000000000+                D CD 12113                     000000000  N000000000 499   0000000000000.00 0000000.00   0000000.00                             000000000000000                                                                                                                                                     01418 A000000000000 0000000000000.66     02100 01000                  
02336080505540120DT67590675900000010942800101800000010180010124001193053900011400180022220230000000235305323000000000063612473703XXXXXX1240       VS11    0001111   NYV1 A E383054004786843N840000000002353995X00    05DNPLANET VAPOR #800        080116    VD84000000002353 N  599976923545                            000000000+                F DF 10433                     000000000  Y000000000 338   0000000000000.00 0000000.00   0000000.00                             000000000000000                                                                                                                                                     01418 A000000000000 0000000000000.23     00050 02200                  
02336090505540121DT67590675900000010942800101800000010180010124001193053900011400198022220230000000069305323000000000063612440393XXXXXX2407               1001111   NYV1 A K583054018688067N840000000000693LC5C00    01DNPLANET VAPOR #800        707679    VD84000000000693 N  599976923545                            000000000+                F PF 08171                     000000000  N000000000       0000000000000.00 0000000.00   0000000.00                             000000000000000                                                                                                                                                     01418 E000000000000 0000000000000.32     01750 02000                  
02336100505540122DT67590675900000010942800101800000010180010124001193053900011400206022220230000000673905323000000000063612414740XXXXXX8825       VS11    0001111   NYV1 A E583054030105427N84000000000673982V500    05DNPLANET VAPOR #800        00326D    VS84000000006739 N  599976923545                            000000000+                D CD 12113                     000000000  N000000000 499   0000000000000.00 0000000.00   0000000.00                             000000000000000                                                                                                                                                     01418 A000000000000 0000000000001.52     02100 01000                  
02336110505540123BH6759067590000000995180010180000090170222202305323000000000037130    0000090001140013N8001016759C02232023                                                                                                                                                                                                                                                                                                                                                                                                                                                                                                                                                                                                 
02336120505540124DT67590675900000009951800101800000010180010177287283053900011400018022220230000000097005323000000000037130528149XXXXXX4750       MS02WI09          NY 1 0 AMDJPERAE00222  N840000000000970          05DNPLANET VAPOR #500        037466    MD84000000000970 N  599976923295                            000000000+M10101C5434C    MDJ  00402                     000000000  N                0000000000000.00 0000000.00   0000000.00                             000000000000000                                                                                                                                                   B101418  000000000000 0000000000000.25     01050 01500                  
02336130505540125DT67590675900000009951800101800000010180010124001193053900011400024022220230000000366805323000000000037130448233XXXXXX2643       VS11    0001111   NYV1 A E583053575296876N840000000003668565Z00    07DNPLANET VAPOR #500        095849    VD84000000003668 N  599976923295                            000000000+                F DF 10433                     000000000  Y000000000 338   0000000000000.00 0000000.00   0000000.00                             000000000000000                                                                                                                                                     01418 A000000000000 0000000000000.24     00050 02200                  
02336140505540126DT67590675900000009951800101800000010180010177287283053900011400034022220230000000183505323000000000037130528847XXXXXX5837                         NY 1 0 AMPWC77OR70222  N840000000001835          90DNPLANET VAPOR #500        154237    MD84000000001835 NP1599976923295                            000000000+M10101B5434C    MPW  00062                     000000000  N                0000000000000.00 0000000.00   0000000.00                             000000000000000                                                                                                                                                   C101418  000000000000 0000000000000.59     02650 01000                  
02336150505540001P1675906759000000099518001018000000101                                                          000000000000          1000            472803059                                                                                                                                                                                                                                                                                                                                                                                                                                                                                                                                                            
02336160505540127DT67590675900000009951800101800000010180010124001193053900011400040022220230000000205105323000000000037130415967XXXXXX6086       VS11    0001111   NYV1 A E583053708148875N840000000002051JF2G00    05DNPLANET VAPOR #500        160946    VD84000000002051 N  599976923295                            000000000+                F DF 00381                     000000000  N000000000       0000000000000.00 0000000.00   0000000.00                             000000000000000                                                                                                                                                     01418 A000000000000 0000000000000.31     00800 01500                  
02336170505540128DT67590675900000009951800101800000010180010124001193053900011400057022220230000000087505323000000000037130473703XXXXXX8073       VK04VS111111111   NYV1 A E303053718162806N8400000000008758DNN00    07DNPLANET VAPOR #500        036258    VD84000000000875 N  599976923295                            000000000+                F DF 10439                     000000000  Y000000000 331   0000000000000.00 0000000.00   0000000.00                             000000000000000                                                                                                                                                     01418 F000000000000 0000000000000.22     00050 02200                  
02336180505540129DT67590675900000009951800101800000010180010124001193053900011400065022220230000000237505323000000000037130400022XXXXXX1676       VS11    0001111   NYV1 A E463053754827650N840000000002375LC6F00    07DNPLANET VAPOR #500        507804    VD84000000002375 N  599976923295                            000000000+                F DF 10433                     000000000  Y000000000 338   0000000000000.00 0000000.00   0000000.00                             000000000000000                                                                                                                                                     01418 A000000000000 0000000000000.23     00050 02200                  
02336190505540130DT67590675900000009951800101800000010180010124001193053900011400073022220230000000079805323000000000037130473703XXXXXX2484       VK04VS111111111   NYV1 A E303053769462367N8400000000007982DSV00    07DNPLANET VAPOR #500        004569    VD84000000000798 N  599976923295                            000000000+                F DF 10439                     000000000  Y000000000 331   0000000000000.00 0000000.00   0000000.00                             000000000000000                                                                                                                                                     01418 F000000000000 0000000000000.22     00050 02200                  
02336200505540131DT67590675900000009951800101800000010180010124001193053900011400081022220230000000809705323000000000037130473703XXXXXX1569       VS11    0001111   NYV1 A E463053779527988N840000000008097PL9M00    07DNPLANET VAPOR #500        030004    VD84000000008097 N  599976923295                            000000000+                F DF 10433                     000000000  Y000000000 338   0000000000000.00 0000000.00   0000000.00                             000000000000000                                                                                                                                                     01418 A000000000000 0000000000000.26     00050 02200                  
02336210505540132DT67590675900000009951800101800000010180010124001193053900011400099022220230000000118705323000000000037130429416XXXXXX4187       VK04VS111111111   NYV1 A E463053791670317N840000000001187995C00    05DNPLANET VAPOR #500        670317    VD84000000001187 N  599976923295                            000000000+                F DF 00451                     000000000  N000000000 214   0000000000000.00 0000000.00   0000000.00                             000000000000000                                                                                                                                                     01418 F000000000000 0000000000000.22     01550 00400                  
02336220505540133DT67590675900000009951800101800000010180010124001193053900011400107022220230000000242905323000000000037130457431XXXXXX2893       VS11    0001111   NYV1 A E383053805844984N840000000002429J3K800    05DNPLANET VAPOR #500        H64801    VD84000000002429 N  599976923295                            000000000+                F DF 10433                     000000000  Y000000000 338   0000000000000.00 0000000.00   0000000.00                             000000000000000                                                                                                                                                     01418 A000000000000 0000000000000.23     00050 02200                  
02336230505540134DT67590675900000009951800101800000010180010124001193053900011400115022220230000000496605323000000000037130448261XXXXXX2796       VS11    0001111   NYV1 A E383053816672675N840000000004966DJ4M00    07DNPLANET VAPOR #500        004098    VD84000000004966 N  599976923295                            000000000+                F DF 10433                     000000000  Y000000000 338   0000000000000.00 0000000.00   0000000.00                             000000000000000                                                                                                                                                     01418 A000000000000 0000000000000.24     00050 02200                  
02336240505540135DT67590675900000009951800101800000010180010177287283053900011400125022220230000000388605323000000000037130517805XXXXXX3107       MS02WI09          NY 1 0 AMPLMXAJV70222  N840000000003886          07DNPLANET VAPOR #500        05458B    MC84000000003886 N  599976923295                            000000000+M10101M0034C    MPL  00353                     000000000  N                0000000000000.00 0000000.00   0000000.00                             000000000000000                                                                                                                                                   B101418  000000000000 0000000000000.80     01800 01000                  
02336250505540136DT67590675900000009951800101800000010180010124001193053900011400131022220230000000399305323000000000037130473703XXXXXX5106       VS11    0001111   NYV1 A E383054016366881N8400000000039935ZN700    07DNPLANET VAPOR #500        037773    VD84000000003993 N  599976923295                            000000000+                F DF 10433                     000000000  Y000000000 338   0000000000000.00 0000000.00   0000000.00                             000000000000000                                                                                                                                                     01418 A000000000000 0000000000000.24     00050 02200                  
