08744890387120002BH6759067590000001427480010280000090170616202316723000000000613844    0000090001216644Y8001026759C06192023121                                                                                                                                                                                                                                                                                                                                                                                                                                                                                                                                                                                              
08744900387120003DT67590675900000014274800102800000010180010224001193167900012157550061520230000002661116723000000000613844471777XXXXXX1252               2111111   NYV4 A7W303163326223222N8400000000266113LLK00    01DNCBD8666317293            064307    VD84000000026611 NDR549977145232   7D145C59ADTD8E09B230495  000000000+                G DG 08705                     000000000  N000000000       0000000000000.00 0000000.00   0000000.00                             000000000000000                                                                                                                                                     01424 G000000026611 0000000000006.62     02450 01000                  
08744910387120003DR6759067590000001427480010280000001017D145C59ADTD8E09B230495  Y000000026611                 P1                                                                                                                                                                                                                                                                                                                                                                                                                                                                                                                                                                                                            
08744920387120001P16759067590000001427480010280000001010000000000000000                             1000000001741000000000000              000000000000                    0000000000000000000000000                    000000000000                                                                                                                                                                                                                                                                                                                                                                                                                                                                                        
08744930387120002G2675906759000000142748001028000000101866-6317293              GA           9 D                00                                      NNNN   N                      000000000000                                                                   77145232                                                                                                                                                                                                                                                                                                                                                                                                                                               
08744940387120004DT67590675900000014274800102800000010180010287287283167900012157569061520230000002136016723000000000613844524366XXXXXX9545       ME03KE06PT01      NY 4607AMCWVK423A0612  N840000000021360          81DNCBD8666317293            01259P    MC84000000021360 NDR549977145232   C1B914E1B3TB9F022C9EB57  000000000+600450S00130    MCW  00642                     000000000  N                0000000000000.00 0000000.00   0000000.00                             000000000000000                                                                                                                                                   U001424  000000000000 0000000000004.80     02200 01000                  
08744950387120004DR675906759000000142748001028000000101C1B914E1B3TB9F022C9EB57  Y000000000000                                                                                                                                                                                                                                                                                                                                                                                                                                                                                                                                                                                                                               
08744960387120001G2675906759000000142748001028000000101866-6317293              GA           9 W               210                                      NNNN           210000000000000000000000000                        7                                          77145232                                                                                                                                                                                                                                                                                                                                                                                                                                               
08744970387120005DT67590675900000014274800102800000010180010287287283167900012157593061520230000001484816723000000000613844527845XXXXXX9371       ME03KE06MS02      NY 4607AMWETJSEYT0612  N840000000014848          81DNCBD8666317293            012670    MC84000000014848 NDR549977145232   9C64C66FC2T55FB90D52596  000000000+600450S00130    MWE  00737                     000000000  N                0000000000000.00 0000000.00   0000000.00                             000000000000000                                                                                                                                                   U001424  000000000000 0000000000003.96     02600 01000                  
08744980387120005DR6759067590000001427480010280000001019C64C66FC2T55FB90D52596  Y000000000000                                                                                                                                                                                                                                                                                                                                                                                                                                                                                                                                                                                                                               
08744990387120001G2675906759000000142748001028000000101866-6317293              GA           9 E               210                                      NNNN           210000000000000000000000000                        7                                          77145232                                                                                                                                                                                                                                                                                                                                                                                                                                               
08745000387120006DT67590675900000014274800102800000010180010224001193167900012157659061520230000000600416723000000000613844425808XXXXXX9677               2111111   NYV4 A7W463163522049957N84000000000600456Q200    01DNCBD8666317293            068084    VD84000000006004 NDR549977145232   1FAF542E51TF1EE109E31DC  000000000+                F DF 10420                     000000000  Y000000000 338   0000000000000.00 0000000.00   0000000.00                             000000000000000                                                                                                                                                     01424 G000000006004 0000000000000.25     00050 02200                  
08745010387120006DR6759067590000001427480010280000001011FAF542E51TF1EE109E31DC  Z000000006004                 P1                                                                                                                                                                                                                                                                                                                                                                                                                                                                                                                                                                                                            
08745020387120001P16759067590000001427480010280000001010000000000000000                             2000000000000000000000000              000000000000                    0000000000000000000000000                    000000000000                                                                                                                                                                                                                                                                                                                                                                                                                                                                                        
08745030387120002G2675906759000000142748001028000000101866-6317293              GA           9 D                00                                      NNNN   N                      000000000000                                                                   77145232                                                                                                                                                                                                                                                                                                                                                                                                                                               
08745040387120007DT67590675900000014274800102800000010180010224001193167900012159465061520230000002661116723000000000613844410039XXXXXX3629               2111111   NYV4 A7W463164105044080N840000000026611X7HK00    01DNCBD8666317293            61781D    VS84000000026611 NDR549977145232   25134D0F00T629F05030EDB  000000000+                D CD 12109                     000000000  N000000000 498   0000000000000.00 0000000.00   0000000.00                             000000000000000                                                                                                                                                     01424 G000000026611 0000000000006.75     02500 01000                  
08745050387120007DR67590675900000014274800102800000010125134D0F00T629F05030EDB  Z000000026611                 P1                                                                                                                                                                                                                                                                                                                                                                                                                                                                                                                                                                                                            
08745060387120001P16759067590000001427480010280000001010000000000000000                             2000000000000000000000000              000000000000                    0000000000000000000000000                    000000000000                                                                                                                                                                                                                                                                                                                                                                                                                                                                                        
08745070387120002G2675906759000000142748001028000000101866-6317293              GA           9 C                00                                      NNNN   Y                      000000000000                                                                   77145232                                                                                                                                                                                                                                                                                                                                                                                                                                               
08745080387120008DT67590675900000014274800102800000010180010287287283167900012164755061520230000001506616723000000000613844552486XXXXXX4726       ME03KE06MS02      NY 4607AMWEVCHUYC0615  N840000000015066          81DNCBD8666317293            06304Z    MC84000000015066 NDR549977145232   36DC40DC9AT40DC20663DE4  000000000+600450S00130    MWE  00737                     000000000  N                0000000000000.00 0000000.00   0000000.00                             000000000000000                                                                                                                                                   U001424  000000000000 0000000000004.02     02600 01000                  
08745090387120008DR67590675900000014274800102800000010136DC40DC9AT40DC20663DE4  Y000000000000                                                                                                                                                                                                                                                                                                                                                                                                                                                                                                                                                                                                                               
08745100387120001G2675906759000000142748001028000000101866-6317293              GA           9 E               210                                      NNNN           210000000000000000000000000                        7                                          77145232                                                                                                                                                                                                                                                                                                                                                                                                                                               
08745110387120009DT67590675900000014274800102800000010180010287287283167900012164821061520230000002131116723000000000613844515678XXXXXX9673       ME03KE06MS02      NY 4607AMWEDSBMYD0615  N840000000021311          81DNCBD8666317293            00167Z    MC84000000021311 NDR549977145232   3472771920TDAB4201C83F4  000000000+600450S00130    MWE  00737                     000000000  N                0000000000000.00 0000000.00   0000000.00                             000000000000000                                                                                                                                                   U001424  000000000000 0000000000005.64     02600 01000                  
08745120387120009DR6759067590000001427480010280000001013472771920TDAB4201C83F4  Y000000000000                                                                                                                                                                                                                                                                                                                                                                                                                                                                                                                                                                                                                               
08745130387120001G2675906759000000142748001028000000101866-6317293              GA           9 E               210                                      NNNN           210000000000000000000000000                        7                                          77145232                                                                                                                                                                                                                                                                                                                                                                                                                                               
08745140387120010DT67590675900000014274800102800000010180010224001193167900012164838061520230000002136016723000000000613844414709XXXXXX4194               2111111   NYV4 A7W303167018544417N840000000021360MP6700    01DNCBD8666317293            01650D    VS84000000021360 NDR549977145232   108BA5D856T655C80ADCD77  000000000+                D CD 12109                     000000000  N000000000 498   0000000000000.00 0000000.00   0000000.00                             000000000000000                                                                                                                                                     01424 G000000021360 0000000000005.44     02500 01000                  
08745150387120010DR675906759000000142748001028000000101108BA5D856T655C80ADCD77  Y000000021360                 P1                                                                                                                                                                                                                                                                                                                                                                                                                                                                                                                                                                                                            
08745160387120001P16759067590000001427480010280000001010000000000000000                             2000000000000000000000000              000000000000                    0000000000000000000000000                    000000000000                                                                                                                                                                                                                                                                                                                                                                                                                                                                                        
08745170387120002G2675906759000000142748001028000000101866-6317293              GA           9 C                00                                      NNNN   Y                      000000000000                                                                   77145232                                                                                                                                                                                                                                                                                                                                                                                                                                               
08745180387120011DT67590675900000014274800102800000010180010224001193167900012164846061520230000000019916723000000000613844428813XXXXXX1904               2111111   NYV4 A7W463167025897225N84000000000019923CQ00    01DNCBD8666317293            616852    VB84000000000199 NDR549977145232   09EFADBD6ATF2CF12E246FF  000000000+                S CS 00692                     000000000  N000000000 237   0000000000000.00 0000000.00   0000000.00                             000000000000000                                                                                                                                                     01424 G000000000199 0000000000000.15     02700 01000                  
08745190387120011DR67590675900000014274800102800000010109EFADBD6ATF2CF12E246FF  Y000000000199                 P1                                                                                                                                                                                                                                                                                                                                                                                                                                                                                                                                                                                                            
08745200387120001P16759067590000001427480010280000001010000000000000000                             2000000000000000000000000              000000000000                    0000000000000000000000000                    000000000000                                                                                                                                                                                                                                                                                                                                                                                                                                                                                        
08745210387120002G2675906759000000142748001028000000101866-6317293              GA           9 C                00                                      NNNN   N                      000000000000                                                                   77145232                                                                                                                                                                                                                                                                                                                                                                                                                                               
08745220387120012DT67590675900000014274800102800000010180010224001193167900012164903061520230000002143516723000000000613844426938XXXXXX5993               2111111   NYV4 A7W583167054197742N840000000021435LQNG00    01DNCBD8666317293            015581    VS84000000021435 NDR549977145232   387CFB1809T500840C65646  000000000+                B CB 12107                     000000000  N000000000 494   0000000000000.00 0000000.00   0000000.00                             000000000000000                                                                                                                                                     01424 G000000021435 0000000000004.47     02040 01000                  
08745230387120012DR675906759000000142748001028000000101387CFB1809T500840C65646  Y000000021435                 P1                                                                                                                                                                                                                                                                                                                                                                                                                                                                                                                                                                                                            
08745240387120001P16759067590000001427480010280000001010000000000000000                             2000000000000000000000000              000000000000                    0000000000000000000000000                    000000000000                                                                                                                                                                                                                                                                                                                                                                                                                                                                                        
08745250387120002G2675906759000000142748001028000000101866-6317293              GA           9 C                00                                      NNNN   Y                      000000000000                                                                   77145232                                                                                                                                                                                                                                                                                                                                                                                                                                               
08745260387120013DT67590675900000014274800102800000010180010224001193167900012164960061520230000001987016723000000000613844426290XXXXXX5114               2111111   NYV4 A7W583167090047963N840000000019870ZK6200    01DNCBD8666317293            00151A    VS84000000019870 NDR549977145232   BD501EF2CCTB220CF43CF0C  000000000+                A CA 12106                     000000000  N000000000 492   0000000000000.00 0000000.00   0000000.00                             000000000000000                                                                                                                                                     01424 G000000019870 0000000000003.86     01890 01000                  
08745270387120013DR675906759000000142748001028000000101BD501EF2CCTB220CF43CF0C  Y000000019870                 P1                                                                                                                                                                                                                                                                                                                                                                                                                                                                                                                                                                                                            
08745280387120001P16759067590000001427480010280000001010000000000000000                             2000000000000000000000000              000000000000                    0000000000000000000000000                    000000000000                                                                                                                                                                                                                                                                                                                                                                                                                                                                                        
08745290387120002G2675906759000000142748001028000000101866-6317293              GA           9 C                00                                      NNNN   Y                      000000000000                                                                   77145232                                                                                                                                                                                                                                                                                                                                                                                                                                               
08745300387120014DT67590675900000014274800102800000010180010224001193167900012164986061520230000002126116723000000000613844441839XXXXXX1243               2111111   NYV4 A7W383167096080403N840000000021261K6BZ00    01DNCBD8666317293            161252    VS84000000021261 NDR549977145232   FD6AA9B109TD0C651A79FDD  000000000+                B CB 12107                     000000000  N000000000 494   0000000000000.00 0000000.00   0000000.00                             000000000000000                                                                                                                                                     01424 G000000021261 0000000000004.44     02040 01000                  
08745310387120014DR675906759000000142748001028000000101FD6AA9B109TD0C651A79FDD  Y000000021261                 P1                                                                                                                                                                                                                                                                                                                                                                                                                                                                                                                                                                                                            
08745320387120001P16759067590000001427480010280000001010000000000000000                             2000000000000000000000000              000000000000                    0000000000000000000000000                    000000000000                                                                                                                                                                                                                                                                                                                                                                                                                                                                                        
08745330387120002G2675906759000000142748001028000000101866-6317293              GA           9 C                00                                      NNNN   Y                      000000000000                                                                   77145232                                                                                                                                                                                                                                                                                                                                                                                                                                               
08745340387120015DT67590675900000014274800102800000010180010287287283167900012165000061520230000000019916723000000000613844524897XXXXXX8008                         NY 4607AMCOYJXAYC0615  N840000000000199          81DNCBD8666317293            9VYTZY    MB84000000000199 NDR549977145232   E54B1C0F16TD3B8A6700A30  000000000+600450S00130    MCO  00303                     000000000  N                0000000000000.00 0000000.00   0000000.00                             000000000000000                                                                                                                                                   U001424  000000000000 0000000000000.15     02700 01000                  
08745350387120015DR675906759000000142748001028000000101E54B1C0F16TD3B8A6700A30  Y000000000000                 P1                                                                                                                                                                                                                                                                                                                                                                                                                                                                                                                                                                                                            
08745360387120001P1675906759000000142748001028000000101                                                          000000000000          8000            871584967                                                                                                                                                                                                                                                                                                                                                                                                                                                                                                                                                            
08745370387120002G2675906759000000142748001028000000101866-6317293              GA           9 O               210                  871584967           YNNN           210000000000000000000000000                                                                   77145232                                                                                                                                                                                                                                                                                                                                                                                                                                               
08745380387120016DT67590675900000014274800102800000010180010287287283167900012165018061520230000000158816723000000000613844546316XXXXXX5967       ME03KE06MS02      NY 4607AMPLSUXG1M0615  N840000000001588          81DNCBD8666317293            015408    MC84000000001588 NDR549977145232   C457A4C92BTAB1575BB75A5  000000000+600450S00130    MPL  00013                     000000000  N                0000000000000.00 0000000.00   0000000.00                             000000000000000                                                                                                                                                   U001424  000000000000 0000000000000.41     01950 01000                  
08745390387120016DR675906759000000142748001028000000101C457A4C92BTAB1575BB75A5  Z000000000000                                                                                                                                                                                                                                                                                                                                                                                                                                                                                                                                                                                                                               
08745400387120001G2675906759000000142748001028000000101866-6317293              GA           9 L               210                                      NNNN           210000000000000000000000000                        7                                          77145232                                                                                                                                                                                                                                                                                                                                                                                                                                               
08745410387120017DT67590675900000014274800102800000010180010287287283167900012165034061520230000001400816723000000000613844546325XXXXXX1970       ME03KE06MS02      NY 4607AMWEGO2CYD0615  N840000000014008          81DNCBD8666317293            03334P    MC84000000014008 NDR549977145232   E666367BCBTF7A4F34BEDF0  000000000+600450S00130    MWE  00737                     000000000  N                0000000000000.00 0000000.00   0000000.00                             000000000000000                                                                                                                                                   U001424  000000000000 0000000000003.74     02600 01000                  
08745420387120017DR675906759000000142748001028000000101E666367BCBTF7A4F34BEDF0  Y000000000000                                                                                                                                                                                                                                                                                                                                                                                                                                                                                                                                                                                                                               
08745430387120001G2675906759000000142748001028000000101866-6317293              GA           9 E               210                                      NNNN           210000000000000000000000000                        7                                          77145232                                                                                                                                                                                                                                                                                                                                                                                                                                               
08745440387120018DT67590675900000014274800102800000010180010224001193167900012165041061520230000000019916723000000000613844408544XXXXXX8042               2111111   NYV4 A7W463167146463721N840000000000199LJT200    01DNCBD8666317293            792265    VB84000000000199 NDR549977145232   B2344B2E7ATAB2810510A87  000000000+                K CK 00691                     000000000  N000000000 234   0000000000000.00 0000000.00   0000000.00                             000000000000000                                                                                                                                                     01424 G000000000199 0000000000000.15     02700 01000                  
08745450387120018DR675906759000000142748001028000000101B2344B2E7ATAB2810510A87  Y000000000199                 P1                                                                                                                                                                                                                                                                                                                                                                                                                                                                                                                                                                                                            
08745460387120001P16759067590000001427480010280000001010000000000000000                             2000000000000000000000000              000000000000                    0000000000000000000000000                    000000000000                                                                                                                                                                                                                                                                                                                                                                                                                                                                                        
08745470387120002G2675906759000000142748001028000000101866-6317293              GA           9 C                00                                      NNNN   N                      000000000000                                                                   77145232                                                                                                                                                                                                                                                                                                                                                                                                                                               
08745480387120019DT67590675900000014274800102800000010180010287287283167900012165059061520230000000019916723000000000613844514376XXXXXX5402                         NY 4607AMPWG2PIYD0615  N840000000000199          81DNCBD8666317293            435930    MD84000000000199 NDR549977145232   E69CB60BB2T004CA53E6B89  000000000+600450S00130    MPW  00062                     000000000  N                0000000000000.00 0000000.00   0000000.00                             000000000000000                                                                                                                                                   U001424  000000000000 0000000000000.15     02650 01000                  
08745490387120019DR675906759000000142748001028000000101E69CB60BB2T004CA53E6B89  Y000000000000                 P1                                                                                                                                                                                                                                                                                                                                                                                                                                                                                                                                                                                                            
08745500387120001P1675906759000000142748001028000000101                                                          000000000000          8000            871584967                                                                                                                                                                                                                                                                                                                                                                                                                                                                                                                                                            
08745510387120002G2675906759000000142748001028000000101866-6317293              GA           9 W               210                  871584967           YNNN           210000000000000000000000000                                                                   77145232                                                                                                                                                                                                                                                                                                                                                                                                                                               
08745520387120020DT67590675900000014274800102800000010180010287287283167900012165075061620230000000019916723000000000613844553370XXXXXX1762                         NY 4607AMCF0E125H0616  N840000000000199          81DNCBD8666317293            A6LAJ3    MB84000000000199 NDR549977145232   61EDF87D88T14BE7C103946  000000000+600450S00130    MCF  00060                     000000000  N                0000000000000.00 0000000.00   0000000.00                             000000000000000                                                                                                                                                   U001424  000000000000 0000000000000.16     02950 01000                  
08745530387120020DR67590675900000014274800102800000010161EDF87D88T14BE7C103946  Y000000000000                 P1                                                                                                                                                                                                                                                                                                                                                                                                                                                                                                                                                                                                            
08745540387120001P1675906759000000142748001028000000101                                                          000000000000          8000            871584967                                                                                                                                                                                                                                                                                                                                                                                                                                                                                                                                                            
08745550387120002G2675906759000000142748001028000000101866-6317293              GA           9 F               210                  871584967           YNNN           210000000000000000000000000                                                                   77145232                                                                                                                                                                                                                                                                                                                                                                                                                                               
08745560387120021DT67590675900000014274800102800000010180010224001193167900012165082061620230000000019916723000000000613844440393XXXXXX5806               2111111   NYV4 A7W583167230520120N8400000000001994DNW00    01DNCBD8666317293            509926    VD84000000000199 NDR549977145232   BD7E92EE3FTFDD32ACD2FFB  000000000+                F PF 08175                     000000000  N000000000       0000000000000.00 0000000.00   0000000.00                             000000000000000                                                                                                                                                     01424 G000000000199 0000000000000.23     01750 02000                  
08745570387120021DR675906759000000142748001028000000101BD7E92EE3FTFDD32ACD2FFB  Y000000000199                 P1                                                                                                                                                                                                                                                                                                                                                                                                                                                                                                                                                                                                            
08745580387120001P16759067590000001427480010280000001010000000000000000                             2000000000000000000000000              000000000000                    0000000000000000000000000                    000000000000                                                                                                                                                                                                                                                                                                                                                                                                                                                                                        
08745590387120002G2675906759000000142748001028000000101866-6317293              GA           9 P                00                                      NNNN   N                      000000000000                                                                   77145232                                                                                                                                                                                                                                                                                                                                                                                                                                               
08745600387120022DT67590675900000014274800102800000010180010224001193167900012165132061620230000000019916723000000000613844408544XXXXXX5261               2111111   NYV4 A7W463167259413108N840000000000199G6BD00    01DNCBD8666317293            571290    VB84000000000199 NDR549977145232   09EA718F16T78A25AD12459  000000000+                K CK 00691                     000000000  N000000000 234   0000000000000.00 0000000.00   0000000.00                             000000000000000                                                                                                                                                     01424 G000000000199 0000000000000.15     02700 01000                  
08745610387120022DR67590675900000014274800102800000010109EA718F16T78A25AD12459  Y000000000199                 P1                                                                                                                                                                                                                                                                                                                                                                                                                                                                                                                                                                                                            
08745620387120001P16759067590000001427480010280000001010000000000000000                             2000000000000000000000000              000000000000                    0000000000000000000000000                    000000000000                                                                                                                                                                                                                                                                                                                                                                                                                                                                                        
08745630387120002G2675906759000000142748001028000000101866-6317293              GA           9 C                00                                      NNNN   N                      000000000000                                                                   77145232                                                                                                                                                                                                                                                                                                                                                                                                                                               
08745640387120023DT67590675900000014274800102800000010180010224001193167900012165165061620230000000019916723000000000613844485932XXXXXX4093               2111111   NYV4 A7W463167401497602N840000000000199T8QL00    01DNCBD8666317293            801188    VB84000000000199 NDR549977145232   5345340EB4TF08C2AD0CDAC  000000000+                S CS 00692                     000000000  N000000000 237   0000000000000.00 0000000.00   0000000.00                             000000000000000                                                                                                                                                     01424 G000000000199 0000000000000.15     02700 01000                  
08745650387120023DR6759067590000001427480010280000001015345340EB4TF08C2AD0CDAC  Y000000000199                 P1                                                                                                                                                                                                                                                                                                                                                                                                                                                                                                                                                                                                            
08745660387120001P16759067590000001427480010280000001010000000000000000                             2000000000000000000000000              000000000000                    0000000000000000000000000                    000000000000                                                                                                                                                                                                                                                                                                                                                                                                                                                                                        
08745670387120002G2675906759000000142748001028000000101866-6317293              GA           9 C                00                                      NNNN   N                      000000000000                                                                   77145232                                                                                                                                                                                                                                                                                                                                                                                                                                               
08745680387120024DT67590675900000014274800102800000010180010287287283167900012165174061620230000001484816723000000000613844517805XXXXXX5542       ME03KE06MS02      NY 4607AMWEWWYO4U0616  N840000000014848          81DNCBD8666317293            07470P    MC84000000014848 NDR549977145232   D3352498F5TE751315C8E17  000000000+600450S00130    MWE  00737                     000000000  N                0000000000000.00 0000000.00   0000000.00                             000000000000000                                                                                                                                                   U001424  000000000000 0000000000003.96     02600 01000                  
08745690387120024DR675906759000000142748001028000000101D3352498F5TE751315C8E17  N000000000000                                                                                                                                                                                                                                                                                                                                                                                                                                                                                                                                                                                                                               
08745700387120001G2675906759000000142748001028000000101866-6317293              GA           9 E               210                                      NNNN           210000000000000000000000000                        7                                          77145232                                                                                                                                                                                                                                                                                                                                                                                                                                               
08745710387120025DT67590675900000014274800102800000010180010287287283167900012165190061620230000000019916723000000000613844531993XXXXXX1209                         NY 4607AMCPOB9N4U0616  N840000000000199          81DNCBD8666317293            9N12CU    MB84000000000199 NDR549977145232   8D5DF26B2ET94BBE12D1C0C  000000000+600450S00130    MCP  00303                     000000000  N                0000000000000.00 0000000.00   0000000.00                             000000000000000                                                                                                                                                   U001424  000000000000 0000000000000.15     02700 01000                  
08745720387120025DR6759067590000001427480010280000001018D5DF26B2ET94BBE12D1C0C  Y000000000000                 P1                                                                                                                                                                                                                                                                                                                                                                                                                                                                                                                                                                                                            
08745730387120001P1675906759000000142748001028000000101                                                          000000000000          8000            871584967                                                                                                                                                                                                                                                                                                                                                                                                                                                                                                                                                            
08745740387120002G2675906759000000142748001028000000101866-6317293              GA           9 P               210                  871584967           YNNN           210000000000000000000000000                                                                   77145232                                                                                                                                                                                                                                                                                                                                                                                                                                               
08745750387120026DT67590675900000014274800102800000010180010287287283167900012165224061620230000002180716723000000000613844531259XXXXXX6481       ME03KE06MS02      NY 4607AMDJO5MF4U0616  N840000000021807          81DNCBD8666317293            160038    MD84000000021807 NDR549977145232   FD3EF2603CT4680DDD3C0A3  000000000+600450S00130    MDJ  10813                     000000000  1                0000000000000.00 0000000.00   0000000.00                             000000000000000                                                                                                                                                   U001424  000000000000 0000000000000.33     00050 02200                  
08745760387120026DR675906759000000142748001028000000101FD3EF2603CT4680DDD3C0A3  Z000000000000                                                                                                                                                                                                                                                                                                                                                                                                                                                                                                                                                                                                                               
08745770387120001G2675906759000000142748001028000000101866-6317293              GA           9 J               210                                      NNNN           210000000000000000000000000                        7                                          77145232                                                                                                                                                                                                                                                                                                                                                                                                                                               
08745780387120027DT67590675900000014274800102800000010180010224001193167900012165231061620230000000019916723000000000613844428813XXXXXX6329               2111111   NYV4 A7W383167479514634N840000000000199QDSK00    01DNCBD8666317293            528269    VB84000000000199 NDR549977145232   BDFFD6EFF0T97E61D822DE2  000000000+                S CS 00692                     000000000  N000000000 237   0000000000000.00 0000000.00   0000000.00                             000000000000000                                                                                                                                                     01424 G000000000199 0000000000000.15     02700 01000                  
08745790387120027DR675906759000000142748001028000000101BDFFD6EFF0T97E61D822DE2  Y000000000199                 P1                                                                                                                                                                                                                                                                                                                                                                                                                                                                                                                                                                                                            
08745800387120001P16759067590000001427480010280000001010000000000000000                             2000000000000000000000000              000000000000                    0000000000000000000000000                    000000000000                                                                                                                                                                                                                                                                                                                                                                                                                                                                                        
08745810387120002G2675906759000000142748001028000000101866-6317293              GA           9 C                00                                      NNNN   N                      000000000000                                                                   77145232                                                                                                                                                                                                                                                                                                                                                                                                                                               
08745820387120028DT67590675900000014274800102800000010680010274001193167900012165244061620230000000517116723000000000613844463405XXXXXX7530               0000000   NYV4 07T583167493660112N84000000000517188KL00    01CNCBD8666317293            034760    VD84000000005171 NDR549977145232   5E5A373807T450DBDCA84BC  000000000+                F DF 08168                     000000000  Y000000000 369   0000000000000.00 0000000.00   0000000.00                             000000000000000                                                                                                                                                     01424  000000005171 0000000000000.00     00000 00000                  
08745830387120028DR6759067590000001427480010280000001065E5A373807T450DBDCA84BC  Y000000005171                 P1                                                                                                                                                                                                                                                                                                                                                                                                                                                                                                                                                                                                            
08745840387120001P16759067590000001427480010280000001060000000000000000                             2000000000000000000000000              000000000000                    0000000000000000000000000                    000000000000                                                                                                                                                                                                                                                                                                                                                                                                                                                                                        
08745850387120002G2675906759000000142748001028000000106866-6317293              GA           9 D                00                                      NNNN   N                      000000000000                                                                   77145232                                                                                                                                                                                                                                                                                                                                                                                                                                               
08745860387120029DT67590675900000014274800102800000010180010287287283167900012165273061620230000001987016723000000000613844546213XXXXXX0824       ME03KE06MS02      NY 4607AMDJHX80120616  N840000000019870          81DNCBD8666317293            578340    MD84000000019870 NDR549977145232   B5054D7F67TA3228FB58F2C  000000000+600450S00130    MDJ  10813                     000000000  1                0000000000000.00 0000000.00   0000000.00                             000000000000000                                                                                                                                                   U001424  000000000000 0000000000000.32     00050 02200                  
08745870387120029DR675906759000000142748001028000000101B5054D7F67TA3228FB58F2C  Y000000000000                                                                                                                                                                                                                                                                                                                                                                                                                                                                                                                                                                                                                               
08745880387120001G2675906759000000142748001028000000101866-6317293              GA           9 J               210                                      NNNN           210000000000000000000000000                                                                   77145232                                                                                                                                                                                                                                                                                                                                                                                                                                               
08745890387120030DT67590675900000014274800102800000010180010287287283167900012165299061620230000002121116723000000000613844552433XXXXXX5949       ME03KE06MS02      NY 4607AMPLI428110616  N840000000021211          81DNCBD8666317293            07131M    MC84000000021211 NDR549977145232   1BF0F02827TDD22DE50A54B  000000000+600450S00130    MPL  00580                     000000000  N                0000000000000.00 0000000.00   0000000.00                             000000000000000                                                                                                                                                   U001424  000000000000 0000000000004.55     02100 01000                  
08745900387120030DR6759067590000001427480010280000001011BF0F02827TDD22DE50A54B  Y000000000000                                                                                                                                                                                                                                                                                                                                                                                                                                                                                                                                                                                                                               
08745910387120001G2675906759000000142748001028000000101866-6317293              GA           9 L               210                                      NNNN           210000000000000000000000000                        7                                          77145232                                                                                                                                                                                                                                                                                                                                                                                                                                               
08745920387120031DT67590675900000014274800102800000010180010224001193167900012165306061620230000001578516723000000000613844444796XXXXXX9572               2111111   NYV4 A7W383167529534661N840000000015785XR3G00    01DNCBD8666317293            016773    VS84000000015785 NDR549977145232   655F6C986ET62EA6910BC92  000000000+                A CA 12106                     000000000  N000000000 492   0000000000000.00 0000000.00   0000000.00                             000000000000000                                                                                                                                                     01424 G000000015785 0000000000003.08     01890 01000                  
08745930387120031DR675906759000000142748001028000000101655F6C986ET62EA6910BC92  Z000000015785                 P1                                                                                                                                                                                                                                                                                                                                                                                                                                                                                                                                                                                                            
08745940387120001P16759067590000001427480010280000001010000000000000000                             2000000000000000000000000              000000000000                    0000000000000000000000000                    000000000000                                                                                                                                                                                                                                                                                                                                                                                                                                                                                        
08745950387120002G2675906759000000142748001028000000101866-6317293              GA           9 C                00                                      NNNN   N                      000000000000                                                                   77145232                                                                                                                                                                                                                                                                                                                                                                                                                                               
08745960387120032DT67590675900000014274800102800000010180010224001193167900012165314061620230000000161616723000000000613844442868XXXXXX4669               2111111   NYV4 A7W583167533396075N840000000001616X2M600    01DNCBD8666317293            016237    VS84000000001616 NDR549977145232   8A8C512602T975A8BCE6B94  000000000+                D CD 12109                     000000000  N000000000 498   0000000000000.00 0000000.00   0000000.00                             000000000000000                                                                                                                                                     01424 G000000001616 0000000000000.50     02500 01000                  
08745970387120032DR6759067590000001427480010280000001018A8C512602T975A8BCE6B94  Y000000001616                 P1                                                                                                                                                                                                                                                                                                                                                                                                                                                                                                                                                                                                            
08745980387120001P16759067590000001427480010280000001010000000000000000                             2000000000000000000000000              000000000000                    0000000000000000000000000                    000000000000                                                                                                                                                                                                                                                                                                                                                                                                                                                                                        
08745990387120002G2675906759000000142748001028000000101866-6317293              GA           9 C                00                                      NNNN   Y                      000000000000                                                                   77145232                                                                                                                                                                                                                                                                                                                                                                                                                                               
08746000387120033DT67590675900000014274800102800000010180010224001193167900012165355061620230000000342316723000000000613844400022XXXXXX1354               2111111   NYV4 A7W383167537428436N840000000003423GMFX00    01DNCBD8666317293            552904    VD84000000003423 NDR549977145232   5764B3D387T9A89122B8D17  000000000+                F DF 10420                     000000000  Y000000000 338   0000000000000.00 0000000.00   0000000.00                             000000000000000                                                                                                                                                     01424 G000000003423 0000000000000.24     00050 02200                  
08746010387120033DR6759067590000001427480010280000001015764B3D387T9A89122B8D17  Y000000003423                 P1                                                                                                                                                                                                                                                                                                                                                                                                                                                                                                                                                                                                            
08746020387120001P16759067590000001427480010280000001010000000000000000                             2000000000000000000000000              000000000000                    0000000000000000000000000                    000000000000                                                                                                                                                                                                                                                                                                                                                                                                                                                                                        
08746030387120002G2675906759000000142748001028000000101866-6317293              GA           9 D                00                                      NNNN   N                      000000000000                                                                   77145232                                                                                                                                                                                                                                                                                                                                                                                                                                               
08746040387120034DT67590675900000014274800102800000010180010287287283167900012165406061620230000002106216723000000000613844527519XXXXXX2255       ME03KE06MS02      NY 4607AMDJJ6VC110616  N840000000021062          81DNCBD8666317293            140358    MD84000000021062 NDR549977145232   F04232750FTDA2AC9E0AC1E  000000000+600450S00130    MDJ  10813                     000000000  1                0000000000000.00 0000000.00   0000000.00                             000000000000000                                                                                                                                                   U001424  000000000000 0000000000000.33     00050 02200                  
08746050387120034DR675906759000000142748001028000000101F04232750FTDA2AC9E0AC1E  Y000000000000                                                                                                                                                                                                                                                                                                                                                                                                                                                                                                                                                                                                                               
08746060387120001G2675906759000000142748001028000000101866-6317293              GA           9 J               210                                      NNNN           210000000000000000000000000                        7                                          77145232                                                                                                                                                                                                                                                                                                                                                                                                                                               
08746070387120035DT67590675900000014274800102800000010180010224001193167900012165512061620230000000019916723000000000613844489607XXXXXX8101               2111111   NYV4 A7W463167580271938N8400000000001995PH600    01DNCBD8666317293            AKDGMT    VD84000000000199 NDR549977145232   C9A80C7DCETA93FD49FAEE6  000000000+                S PS 10179                     000000000  N000000000 364   0000000000000.00 0000000.00   0000000.00                             000000000000000                                                                                                                                                     01424 G000000000199 0000000000000.15     02650 01000                  
08746080387120035DR675906759000000142748001028000000101C9A80C7DCETA93FD49FAEE6  Y000000000199                 P1                                                                                                                                                                                                                                                                                                                                                                                                                                                                                                                                                                                                            
08746090387120001P16759067590000001427480010280000001010000000000000000                             2000000000000000000000000              000000000000                    0000000000000000000000000                    000000000000                                                                                                                                                                                                                                                                                                                                                                                                                                                                                        
08746100387120002G2675906759000000142748001028000000101866-6317293              GA           9 P                00                                      NNNN   N                      000000000000                                                                   77145232                                                                                                                                                                                                                                                                                                                                                                                                                                               
08746110387120036DT67590675900000014274800102800000010180010224001193167900012165546061620230000001670716723000000000613844424744XXXXXX7089               2111111   NYV4 A7W383167585617287N840000000016707TQQK00    01DNCBD8666317293            111601    VD84000000016707 NDR549977145232   FD79B7A6ADT1BC6EC0327FB  000000000+                F DF 00415                     000000000  N000000000       0000000000000.00 0000000.00   0000000.00                             000000000000000                                                                                                                                                     01424 G000000016707 0000000000002.91     01650 01500                  
08746120387120036DR675906759000000142748001028000000101FD79B7A6ADT1BC6EC0327FB  Y000000016707                 P1                                                                                                                                                                                                                                                                                                                                                                                                                                                                                                                                                                                                            
08746130387120001P16759067590000001427480010280000001010000000000000000                             2000000000000000000000000              000000000000                    0000000000000000000000000                    000000000000                                                                                                                                                                                                                                                                                                                                                                                                                                                                                        
08746140387120002G2675906759000000142748001028000000101866-6317293              GA           9 D                00                                      NNNN   N                      000000000000                                                                   77145232                                                                                                                                                                                                                                                                                                                                                                                                                                               
08746150387120037DT67590675900000014274800102800000010180010287287283167900012165612061620230000001987016723000000000613844545958XXXXXX7143       ME03KE06MS02      NY 4607AMDJUQ394U0616  N840000000019870          81DNCBD8666317293            014005    MD84000000019870 NDR549977145232   979D3CB9DDT103CCFFB0FD5  000000000+600450S00130    MDJ  10813                     000000000  1                0000000000000.00 0000000.00   0000000.00                             000000000000000                                                                                                                                                   U001424  000000000000 0000000000000.32     00050 02200                  
08746160387120037DR675906759000000142748001028000000101979D3CB9DDT103CCFFB0FD5  Z000000000000                                                                                                                                                                                                                                                                                                                                                                                                                                                                                                                                                                                                                               
08746170387120001G2675906759000000142748001028000000101866-6317293              GA           9 J               210                                      NNNN           210000000000000000000000000                        7                                          77145232                                                                                                                                                                                                                                                                                                                                                                                                                                               
08746180387120038DT67590675900000014274800102800000010680010287287283167900012165620061620230000001943016723000000000613844512106XXXXXX4305                         NY 4607AMPLM8VL110616  N840000000019430          81CNCBD8666317293            016765    MC84000000019430 NDR549977145232   1EDE3B505ET65715BC1542F  000000000+600450S00130    MPL  00565                     000000000  N                0000000000000.00 0000000.00   0000000.00                             000000000000000                                                                                                                                                     01424  000000000000-0000000000003.40     01750 00000                  
08746190387120038DR6759067590000001427480010280000001061EDE3B505ET65715BC1542F  R000000000000                                                                                                                                                                                                                                                                                                                                                                                                                                                                                                                                                                                                                               
08746200387120001G2675906759000000142748001028000000106866-6317293              GA           9 L               210                                      NNNN           210000000000000000000000000                        7                                          77145232                                                                                                                                                                                                                                                                                                                                                                                                                                               
08746210387120039DT67590675900000014274800102800000010180010287287283167900012165646061620230000001604016723000000000613844518941XXXXXX5923       ME03KE06MS02      NY 4607AMWEYCA1N80616  N840000000016040          81DNCBD8666317293            99760Z    MC84000000016040 NDR549977145232   7C11341085T0BBF84FE103D  000000000+600450S00130    MWE  00737                     000000000  N                0000000000000.00 0000000.00   0000000.00                             000000000000000                                                                                                                                                   U001424  000000000000 0000000000004.27     02600 01000                  
08746220387120039DR6759067590000001427480010280000001017C11341085T0BBF84FE103D  Y000000000000                                                                                                                                                                                                                                                                                                                                                                                                                                                                                                                                                                                                                               
08746230387120001G2675906759000000142748001028000000101866-6317293              GA           9 E               210                                      NNNN           210000000000000000000000000                        7                                          77145232                                                                                                                                                                                                                                                                                                                                                                                                                                               
08746240387120040DT67590675900000014274800102800000010180010287287283167900012165687061620230000000499916723000000000613844514750XXXXXX1065       ME03KE06MS02      NY 4607AMDJZCNXN80616  N840000000004999          81DNCBD8666317293            223957    MD84000000004999 NDR549977145232   778EFFDCBETC915DAA545C0  000000000+600450S00130    MDJ  10813                     000000000  1                0000000000000.00 0000000.00   0000000.00                             000000000000000                                                                                                                                                   U001424  000000000000 0000000000000.24     00050 02200                  
08746250387120040DR675906759000000142748001028000000101778EFFDCBETC915DAA545C0  Y000000000000                                                                                                                                                                                                                                                                                                                                                                                                                                                                                                                                                                                                                               
08746260387120001G2675906759000000142748001028000000101866-6317293              GA           9 J               210                                      NNNN           210000000000000000000000000                        7                                          77145232                                                                                                                                                                                                                                                                                                                                                                                                                                               
08746270387120041DT67590675900000014274800102800000010180010224001193167900012165728061620230000000158516723000000000613844444796XXXXXX7394               2111111   NYV4 A7W383167628037630N840000000001585PHSS00    01DNCBD8666317293            016733    VS84000000001585 NDR549977145232   B0DFCFBBFBT19C2B7E12F6E  000000000+                A CA 12106                     000000000  N000000000 492   0000000000000.00 0000000.00   0000000.00                             000000000000000                                                                                                                                                     01424 G000000001585 0000000000000.40     01890 01000                  
08746280387120041DR675906759000000142748001028000000101B0DFCFBBFBT19C2B7E12F6E  Z000000001585                 P1                                                                                                                                                                                                                                                                                                                                                                                                                                                                                                                                                                                                            
08746290387120001P16759067590000001427480010280000001010000000000000000                             2000000000000000000000000              000000000000                    0000000000000000000000000                    000000000000                                                                                                                                                                                                                                                                                                                                                                                                                                                                                        
08746300387120002G2675906759000000142748001028000000101866-6317293              GA           9 C                00                                      NNNN   N                      000000000000                                                                   77145232                                                                                                                                                                                                                                                                                                                                                                                                                                               
