07924150129699609AD675906759000000176738001068000009071900015721120000002178907052023NYY18623ND6759800106070720232023186018767                                                                                                                                                                                                                                                                                                                                                                                                                                                                                                                                                                                              
07924160129699612AD675906759000000176738001068000009071900013011370000002178907052023NYY18623ND6759800106070720232023186018768                                                                                                                                                                                                                                                                                                                                                                                                                                                                                                                                                                                              
07924170129699615AD675906759000000268498001258000009071900017776610000001280307052023NYY18623ND6759800125070720232023186018769                                                                                                                                                                                                                                                                                                                                                                                                                                                                                                                                                                                              
07924180129699618AD675906759000000142748001028000009071900010432170000000600407052023NYY18623ND6759800102070720232023186018770                                                                                                                                                                                                                                                                                                                                                                                                                                                                                                                                                                                              
07924190129699621AD675906759000000268498001258000009071900013004090000001571507052023NYY18623ND6759800125070720232023186018771                                                                                                                                                                                                                                                                                                                                                                                                                                                                                                                                                                                              
07924200129699624AD675906759000000239118001208000009071900010400560000002179907052023NYY18623ND6759800120070720232023186018772                                                                                                                                                                                                                                                                                                                                                                                                                                                                                                                                                                                              
07924210129699627AD675906759000000239118001208000009071900010400570000000544907052023NYY18623ND6759800120070720232023186018773                                                                                                                                                                                                                                                                                                                                                                                                                                                                                                                                                                                              
07924220132077207BH6759067590000002684980012580000090170706202318723000000000038847    0000090001848064N8001256759D07072023084                                                                                                                                                                                                                                                                                                                                                                                                                                                                                                                                                                                              
07924230132077208DT67590675900000026849800125800000010180012587287283187900018480102070420230000001789218723000000000038847511201XXXXXX1495       ME03KE06MS02      YY 4607AMDJON4MC10701  N840000000017892          81DNCBD8885133385            794210    MD84000000017892 NDR599978220273   9E3AF1B957TB3AA5B008515  000000000+600450S00130    MDJ  00401                     000000000  N                0000000000000.00 0000000.00   0000000.00                             000000000000000                                                                                                                                                   U0015WPE 000000000000 0000000000003.10     01650 01500                  
07924240132077208DR6759067590000002684980012580000001019E3AF1B957TB3AA5B008515  Y000000000000                                                                                                                                                                                                                                                                                                                                                                                                                                                                                                                                                                                                                               
07924250132070001G26759067590000002684980012580000001018885133385               WY           9 J               210                                      NNNN           210000000000000000000000000                        7                                          78220273                                                                                                                                                                                                                                                                                                                                                                                                                                               
07924260132077209DT67590675900000026849800125800000010180012524001193187900018480127070420230000001977018723000000000038847441297XXXXXX2710               2111111   YYV4 A7W383182688542523N840000000019770RHBM00    01DNCBD8885133385            968356    VS84000000019770 NDR599978220273   F9E6F28FEETDDB34FBD0A49  000000000+                D CD 12109                     000000000  N000000000 498   0000000000000.00 0000000.00   0000000.00                             000000000000000                                                                                                                                                     015WPEG000000019770 0000000000005.04     02500 01000                  
07924270132077209DR675906759000000268498001258000000101F9E6F28FEETDDB34FBD0A49  Y000000019770                 P1                                                                                                                                                                                                                                                                                                                                                                                                                                                                                                                                                                                                            
07924280132070001P16759067590000002684980012580000001010000000000000000                             2000000000000000000000000              000000000000                    0000000000000000000000000                    000000000000                                                                                                                                                                                                                                                                                                                                                                                                                                                                                        
07924290132070002G2675906759000000268498001258000000101888-5133385              WY           9 C                00                                      NNNN   Y                      000000000000                                                                   78220273                                                                                                                                                                                                                                                                                                                                                                                                                                               
07924300132077210DT67590675900000026849800125800000010180012587287283187900018480136070420230000001977018723000000000038847552322XXXXXX1321       ME03KE06PT01      YY 4607AMCWUA9LWR0701  N840000000019770          81DNCBD8885133385            01945S    MC84000000019770 NDR599978220273   04E06E3CC8TCDD144B929B7  000000000+600450S00130    MCW  02182                     000000000  N                0000000000000.00 0000000.00   0000000.00                             000000000000000                                                                                                                                                   U0015WPE 000000000000 0000000000005.24     02600 01000                  
07924310132077210DR67590675900000026849800125800000010104E06E3CC8TCDD144B929B7  Y000000000000                                                                                                                                                                                                                                                                                                                                                                                                                                                                                                                                                                                                                               
07924320132070001G26759067590000002684980012580000001018885133385               WY           9 W               210                                      NNNN           210000000000000000000000000                        7                                          78220273                                                                                                                                                                                                                                                                                                                                                                                                                                               
07924330132077211DT67590675900000026849800125800000010180012524001193187900018480143070420230000001280318723000000000038847436802XXXXXX7942               2111111   YYV4 A7W583182760545895N840000000012803Q77W00    01DNCBD8885133385            130070    VD84000000012803 NDR599978220273   F4413A9C7AT166B07E6025C  000000000+                F DF 10420                     000000000  Y000000000 338   0000000000000.00 0000000.00   0000000.00                             000000000000000                                                                                                                                                     015WPEG000000012803 0000000000000.28     00050 02200                  
07924340132077211DR675906759000000268498001258000000101F4413A9C7AT166B07E6025C  Y000000012803                 P1                                                                                                                                                                                                                                                                                                                                                                                                                                                                                                                                                                                                            
07924350132070001P16759067590000002684980012580000001010000000000000000                             2000000000000000000000000              000000000000                    0000000000000000000000000                    000000000000                                                                                                                                                                                                                                                                                                                                                                                                                                                                                        
07924360132070002G2675906759000000268498001258000000101888-5133385              WY           9 D                00                                      NNNN   N                      000000000000                                                                   78220273                                                                                                                                                                                                                                                                                                                                                                                                                                               
07924370132077212DT67590675900000026849800125800000010680012587287283187900018480441070520230000000370718723000000000038847543362XXXXXX1723                         YY 4607AMCSBFERUI0705  N840000000003707          81CNCBD8885133385            005978    MC84000000003707 NDR599978220273   F384A6E017TC6240285A5DC  000000000+600450S00130    MCS  00564                     000000000  N                0000000000000.00 0000000.00   0000000.00                             000000000000000                                                                                                                                                     015WPE 000000000000-0000000000000.65     01750 00000                  
07924380132077212DR675906759000000268498001258000000106F384A6E017TC6240285A5DC  R000000000000                                                                                                                                                                                                                                                                                                                                                                                                                                                                                                                                                                                                                               
07924390132070001G26759067590000002684980012580000001068885133385               WY           9 S               210                                      NNNN           210000000000000000000000000                        7                                          78220273                                                                                                                                                                                                                                                                                                                                                                                                                                               
07924400132077213DT67590675900000026849800125800000010680012587287283187900018480466070520230000001122518723000000000038847517546XXXXXX9122                         YY 4607AMDJWZL9G70705  N840000000011225          81CNCBD8885133385            005635    MD84000000011225 NDR599978220273   63B837E25CTEA5B932A63B9  000000000+600450S00130    MDJ  10828                     000000000  1                0000000000000.00 0000000.00   0000000.00                             000000000000000                                                                                                                                                     015WPE 000000000000 0000000000000.00     00000 00000                  
07924410132077213DR67590675900000026849800125800000010663B837E25CTEA5B932A63B9  R000000000000                                                                                                                                                                                                                                                                                                                                                                                                                                                                                                                                                                                                                               
07924420132070001G26759067590000002684980012580000001068885133385               WY           9 J               210                                      NNNN           210000000000000000000000000                        7                                          78220273                                                                                                                                                                                                                                                                                                                                                                                                                                               
07924430132077214DT67590675900000026849800125800000010680012587287283187900018480474070520230000001977018723000000000038847524656XXXXXX3384                         YY 4607AMPLXAHDG70705  N840000000019770          81CNCBD8885133385            005600    MC84000000019770 NDR599978220273   4AFA476C45T7045463CDA0E  000000000+600450S00130    MPL  00564                     000000000  N                0000000000000.00 0000000.00   0000000.00                             000000000000000                                                                                                                                                     015WPE 000000000000-0000000000003.46     01750 00000                  
07924440132077214DR6759067590000002684980012580000001064AFA476C45T7045463CDA0E  R000000000000                                                                                                                                                                                                                                                                                                                                                                                                                                                                                                                                                                                                                               
07924450132070001G26759067590000002684980012580000001068885133385               WY           9 L               210                                      NNNN           210000000000000000000000000                        7                                          78220273                                                                                                                                                                                                                                                                                                                                                                                                                                               
07924460132077215DT67590675900000026849800125800000010680012587287283187900018480482070520230000000979818723000000000038847524656XXXXXX3384                         YY 4607AMPLRAETU00705  N840000000009798          81CNCBD8885133385            005311    MC84000000009798 NDR599978220273   4AFA476C45T726F0735DAC8  000000000+600450S00130    MPL  00564                     000000000  N                0000000000000.00 0000000.00   0000000.00                             000000000000000                                                                                                                                                     015WPE 000000000000-0000000000001.71     01750 00000                  
07924470132077215DR6759067590000002684980012580000001064AFA476C45T726F0735DAC8  R000000000000                                                                                                                                                                                                                                                                                                                                                                                                                                                                                                                                                                                                                               
07924480132070001G26759067590000002684980012580000001068885133385               WY           9 L               210                                      NNNN           210000000000000000000000000                        7                                          78220273                                                                                                                                                                                                                                                                                                                                                                                                                                               
07924490132077216DT67590675900000026849800125800000010680012576509753187900018480497070520230000000625918723000000000038847601100XXXXXX1687   BA00                  YY 4 07N753160253747379N840000000006259    00    01CNCBD8885133385            00568R    DS84000000006259 NDR599978220273070                         000000000+1015104910600   DCCDI01022168457  102934200000 000000000  0          134   0000000000000.00 0000000.00   0000000.00                             000000000000000                                                                                                                                                     015WPE 000000000000-0000000000001.10     01750 00000                  
07924500132077216DR675906759000000268498001258000000106                         R                                                                                                                                                                                                                                                                                                                                                                                                                                                                                                                                                                                                                                           
07924510132070001G2675906759000000268498001258000000106855-4401547              WY           9 C                00                                      NNNN                          000000000000                         00000650975601179750000543                78220273                                                                                                                                                                                                                                                                                                                                                                                                                                               
07924520132077217DT67590675900000026849800125800000010680012574001193187900018480502070520230000001977018723000000000038847410039XXXXXX1560               0000000   YYV4 07T303186571993075N8400000000197707K2F00    01CNCBD8885133385            02580D    VS84000000019770 NDR599978220273   8249DF1585T2007716D0064  000000000+                D CD 00245                     000000000  N000000000 166   0000000000000.00 0000000.00   0000000.00                             000000000000000                                                                                                                                                     015WPE 000000019770-0000000000003.48     01760 00000                  
07924530132077217DR6759067590000002684980012580000001068249DF1585T2007716D0064  U000000019770                 P1                                                                                                                                                                                                                                                                                                                                                                                                                                                                                                                                                                                                            
07924540132070001P16759067590000002684980012580000001060000000000000000                             2000000000000000000000000              000000000000                    0000000000000000000000000                    000000000000                                                                                                                                                                                                                                                                                                                                                                                                                                                                                        
07924550132070002G2675906759000000268498001258000000106888-5133385              WY           9 C                00                                      NNNN   Y                      000000000000                                                                   78220273                                                                                                                                                                                                                                                                                                                                                                                                                                               
07924560132077218DT67590675900000026849800125800000010680012574001193187900018480536070520230000000692018723000000000038847425142XXXXXX0022               0000000   YYV4 07T583186595491677N8400000000069205P8V00    01CNCBD8885133385            013023    VD84000000006920 NDR599978220273   60D9F0A462TD90C8EE19AF5  000000000+                F DF 08168                     000000000  N000000000 369   0000000000000.00 0000000.00   0000000.00                             000000000000000                                                                                                                                                     015WPE 000000006920 0000000000000.00     00000 00000                  
07924570132077218DR67590675900000026849800125800000010660D9F0A462TD90C8EE19AF5  Y000000006920                 P1                                                                                                                                                                                                                                                                                                                                                                                                                                                                                                                                                                                                            
07924580132070001P16759067590000002684980012580000001060000000000000000                             2000000000000000000000000              000000000000                    0000000000000000000000000                    000000000000                                                                                                                                                                                                                                                                                                                                                                                                                                                                                        
07924590132070002G2675906759000000268498001258000000106888-5133385              WY           9 D                00                                      NNNN   N                      000000000000                                                                   78220273                                                                                                                                                                                                                                                                                                                                                                                                                                               
07924600132077219DT67590675900000026849800125800000010680012574001193187900018480551070520230000000988518723000000000038847410039XXXXXX5879               0000000   YYV4 07T463186635860822N8400000000098853C6200    01CNCBD8885133385            60142C    VS84000000009885 NDR599978220273   270A639027T6DEF17B19A6B  000000000+                C CC 00245                     000000000  N000000000 166   0000000000000.00 0000000.00   0000000.00                             000000000000000                                                                                                                                                     015WPE 000000009885-0000000000001.74     01760 00000                  
07924610132077219DR675906759000000268498001258000000106270A639027T6DEF17B19A6B  U000000009885                 P1                                                                                                                                                                                                                                                                                                                                                                                                                                                                                                                                                                                                            
07924620132070001P16759067590000002684980012580000001060000000000000000                             2000000000000000000000000              000000000000                    0000000000000000000000000                    000000000000                                                                                                                                                                                                                                                                                                                                                                                                                                                                                        
07924630132070002G2675906759000000268498001258000000106888-5133385              WY           9 C                00                                      NNNN   Y                      000000000000                                                                   78220273                                                                                                                                                                                                                                                                                                                                                                                                                                               
07924640132077220DT67590675900000026849800125800000010680012576509753187900018480596070520230000001482818723000000000038847601149XXXXXX7589   BA00                  YY 4 07N873160420062575N840000000014828    00    01CNCBD8885133385            00506P    DS84000000014828 NDR599978220273070                         000000000+1015104910600   DCPDI01128832201  150646200000 000000000  0          156   0000000000000.00 0000000.00   0000000.00                             000000000000000                                                                                                                                                     015WPE 000000000000-0000000000002.59     01750 00000                  
07924650132077220DR675906759000000268498001258000000106                         R                                                                                                                                                                                                                                                                                                                                                                                                                                                                                                                                                                                                                                           
07924660132070001G2675906759000000268498001258000000106855-4401547              WY           9 P                00                                      NNNN                          000000000000                         00000650975601179750000543                78220273                                                                                                                                                                                                                                                                                                                                                                                                                                               
07924670132077221DT67590675900000026849800125800000010680012587287283187900018480649070520230000000692018723000000000038847539675XXXXXX8349                         YY 4607AMCWDGSNM30705  N840000000006920          81CNCBD8885133385            044280    MC84000000006920 NDR599978220273   1A86701886T366E7DBA73F2  000000000+600450S00130    MCW  00564                     000000000  N                0000000000000.00 0000000.00   0000000.00                             000000000000000                                                                                                                                                     015WPE 000000000000-0000000000001.21     01750 00000                  
07924680132077221DR6759067590000002684980012580000001061A86701886T366E7DBA73F2  Y000000000000                                                                                                                                                                                                                                                                                                                                                                                                                                                                                                                                                                                                                               
07924690132070001G26759067590000002684980012580000001068885133385               WY           9 W               210                                      NNNN           210000000000000000000000000                        7                                          78220273                                                                                                                                                                                                                                                                                                                                                                                                                                               
07924700132077224BH6759067590000003201180013680000090170706202318723000000001000000    0000090001565909N8001366759C07072023000                                                                                                                                                                                                                                                                                                                                                                                                                                                                                                                                                                                              
07924710132077225DT67590675900000032011800136800000010180013673011003187900015642014070520230000100000018723000000001000000372728XXXXX1008                          YY 4 07N007478647045070N840000001000000          01DNCHOICE BOTANICALS INC    127103    AM84000001000000 N  549971004114                            000000000+6004S0600140 258     11263                     000000000                   0000000000000.00 0000000.00   0000000.00                             000000000000000 61248972086759675900000032011                          5390 GREENS RD                           77032                                               015WPE 000000000000 0000000000240.10     02400 00000                  
07924720132070001G2675906759000000320118001368000000101HOUSTON                  TX           9                  00                                      NNNN                          000000000000                                                                   71004114                                                                                                                                                                                                                                                                                                                                                                                                                                               
07924730132390002BH6759067590000000215480088880000090170706202318723000000000688135    0000090001244762N8008886759C07072023824                                                                                                                                                                                                                                                                                                                                                                                                                                                                                                                                                                                              
07924740132390003DT67590675900000002154800888800000010180088887287283187900012449046070620230000056200018723000000000688135515119XXXXXX8145                         NY 4607AMDBES3YRE0706  N840000000562000          81DNDRIP DROP DISTRO LLC     242590    MD84000000562000 NDR519900000001   INV-001781               000000000+600450S00140    MDB  00062                     000000000  N                0000000000000.00 0000000.00   0000000.00                             000000000000000                                                                                                                                                   U001418  000000000000 0000000000149.03     02650 01000                  
07924750132390003DR675906759000000021548008888000000101INV-001781               Y000000000000                 P1                                                                                                                                                                                                                                                                                                                                                                                                                                                                                                                                                                                                            
07924760132390001P1675906759000000021548008888000000101                                                          000000000000          8000            471534935                                                                                                                                                                                                                                                                                                                                                                                                                                                                                                                                                            
07924770132390002G2675906759000000021548008888000000101208-7033453              ID           9 B               210                  471534935           YNNN           210000000000000000000000000                        7                                          71004114                                                                                                                                                                                                                                                                                                                                                                                                                                               
07924780132390004DT67590675900000002154800888800000010180088824001193187900012402861070620230000001400018723000000000688135424631XXXXXX7555               2111111   NYV4 A7W383187561376295N840000000014000C55J00    01DNDRIP DROP DISTRO LLC     06134G    VB84000000014000 NDR519971004114   INV-002987               000000000+                G1CG108010                     000000000  N000000000 390   0000000000000.00 0000000.00   0000000.00                             000000000000000                                                                                                                                                     01418 G000000014000 0000000000004.09     02850 01000                  
07924790132390004DR675906759000000021548008888000000101INV-002987               Y000000014000                 P1                                                                                                                                                                                                                                                                                                                                                                                                                                                                                                                                                                                                            
07924800132390001P16759067590000000215480088880000001010000000000000000    44184666593              2000000000000000000000000              000000000000                    0000000000000000000000000                    000000000000                                                                                                                                                                                                                                                                                                                                                                                                                                                                                        
07924810132390002G2675906759000000021548008888000000101800-9833326              ID           9 C                00                                      NNNN   Y                      000000000000                                                                   71004114                                                                                                                                                                                                                                                                                                                                                                                                                                               
07924820132390005DT67590675900000002154800888800000010180088824001193187900012408637070620230000007776018723000000000688135426930XXXXXX0531               2111111   NYV4 A7W303187637558721N84000000007776078GQ00    01DNDRIP DROP DISTRO LLC     07082G    VB84000000077760 NDR519971004114   INV-002993               000000000+                G5CG511887                     000000000  N000000000 163   0000000000000.00 0000000.00   0000000.00                             000000000000000                                                                                                                                                     01418 G000000077760 0000000000023.43     03000 01000                  
07924830132390005DR675906759000000021548008888000000101INV-002993               Y000000077760                 P1                                                                                                                                                                                                                                                                                                                                                                                                                                                                                                                                                                                                            
07924840132390001P16759067590000000215480088880000001010000000000000000    44184911973              2000000000000000000000000              000000000000                    0000000000000000000000000                    000000000000                                                                                                                                                                                                                                                                                                                                                                                                                                                                                        
07924850132390002G2675906759000000021548008888000000101800-9833326              ID           9 C                00                                      NNNN   Y                      000000000000                                                                   71004114                                                                                                                                                                                                                                                                                                                                                                                                                                               
07924860132390006DT67590675900000002154800888800000010180088887287283187900012447628070620230000003437518723000000000688135515119XXXXXX8145                         NY 4607AMDBFQ85CZ0706  N840000000034375          81DNDRIP DROP DISTRO LLC     241900    MD84000000034375 NDR519900000001   INV-001861               000000000+600450S00140    MDB  00062                     000000000  N                0000000000000.00 0000000.00   0000000.00                             000000000000000                                                                                                                                                   U001418  000000000000 0000000000009.21     02650 01000                  
07924870132390006DR675906759000000021548008888000000101INV-001861               Y000000000000                 P1                                                                                                                                                                                                                                                                                                                                                                                                                                                                                                                                                                                                            
07924880132390001P1675906759000000021548008888000000101                                                          000000000000          8000            471534935                                                                                                                                                                                                                                                                                                                                                                                                                                                                                                                                                            
07924890132390002G2675906759000000021548008888000000101208-7033453              ID           9 B               210                  471534935           YNNN           210000000000000000000000000                        7                                          71004114                                                                                                                                                                                                                                                                                                                                                                                                                                               
07924900132390007BH6759067590000000288180088880000090170706202318723000000000048981    0000090001660017N8008886759C07072023166                                                                                                                                                                                                                                                                                                                                                                                                                                                                                                                                                                                              
07924910132390008DT67590675900000002881800888800000010180088824001193187900016600015070620230000000142618723000000000048981423698XXXXXX7414       VK04VS111111111   NYV1 A E303187504778920N840000000001426CBGQ00    07DNHAPPY HIPPIE             694157    VD84000000001426 N  549976487158                            000000000+                F DF 00451                     000000000  N000000000 214   0000000000000.00 0000000.00   0000000.00                             000000000000000                                                                                                                                                     01418 F000000000000 0000000000000.26     01550 00400                  
07924920132390001E167590675900000002881800888800000010100E068C801E5 00000000000.004040404040404040404040404040404040404040404040404006011203A00000000000000000000000404040404040404040404040404040  000008402000000000000023070659D417DE0F5ADA2FA082501F404040400840A000000003101000000000000000000009EE8EDB0382000000000000000000004040404040404040 000000014.26 000000000.004040400000000000000000    80                                                                                                                                                                                                                                                                                                                  
07924930132390002G2675906759000000028818008888000000101SEVIERVILLE              TN           5 D                00                                      NNNN00 N 00                   000000000000                                                                   76487158                                                                                                                                                                                                                                                                                                                                                                                                                                               
07924940132390009DT67590675900000002881800888800000010180088824001193187900016600023070620230000000591918723000000000048981419090XXXXXX6809       VS11    0001111   NYV1 A E383187535015989N8400000000059196NLX00    05DNHAPPY HIPPIE             643301    VD84000000005919 N  549976487158                            000000000+                F DF 00381                     000000000  N000000000       0000000000000.00 0000000.00   0000000.00                             000000000000000                                                                                                                                                     01418 A000000000000 0000000000000.62     00800 01500                  
07924950132390001E167590675900000002881800888800000010100E0F8C8014E 00000000000.004040404040404040404040404040404040404040404040404006011203A02000000000000000000000404040404040404040404040404040  00010840180080800080002307063F12C6F2DDE334E43F634443404040400840A0000000031010000000000000000000A6052D2F0080000000000000000000004040401E40404040 000000059.19 000000000.001E00000000000000000000    80                                                                                                                                                                                                                                                                                                                  
07924960132390002G2675906759000000028818008888000000101SEVIERVILLE              TN           5 D                00                                      NNNN00 N 00                   000000000000                                                                   76487158                                                                                                                                                                                                                                                                                                                                                                                                                                               
07924970132390010DT67590675900000002881800888800000010180088824001193187900016600031070620230000000142618723000000000048981400022XXXXXX3387       VK04VS111111111   NYV1 A E303187556380842N8400000000014268L7900    07DNHAPPY HIPPIE             392740    VD84000000001426 N  549976487158                            000000000+                F DF 10439                     000000000  Y000000000 331   0000000000000.00 0000000.00   0000000.00                             000000000000000                                                                                                                                                     01418 F000000000000 0000000000000.23     00050 02200                  
07924980132390001E167590675900000002881800888800000010100E068C801E4 00000000000.004040404040404040404040404040404040404040404040404006021203A00000000000000000000000404040404040404040404040404040  000008400000000000000023070608326EB889ED716F8A62BF4A404040400840A0000000031010000000000000000000404040404040404040404040404040404040404040404040 000000014.26 000000000.004040400000000000000000    80                                                                                                                                                                                                                                                                                                                  
07924990132390002G2675906759000000028818008888000000101SEVIERVILLE              TN           5 D                00                                      NNNN00 N 00                   000000000000                                                                   76487158                                                                                                                                                                                                                                                                                                                                                                                                                                               
07925000132390011DT67590675900000002881800888800000010180088824001193187900016600049070620230000000241118723000000000048981410492XXXXXX9555       VS11    0001111   NYV1 A E303187557177661N840000000002411HF7200    07DNHAPPY HIPPIE             625153    VD84000000002411 N  549976487158                            000000000+                F DF 10433                     000000000  Y000000000 338   0000000000000.00 0000000.00   0000000.00                             000000000000000                                                                                                                                                     01418 A000000000000 0000000000000.23     00050 02200                  
07925010132390001E167590675900000002881800888800000010100E068C80044 00000000000.00404040404040404040404040404040404040404040404040401F4A0132A00000000010030273000000004000000000000000000000000000  0000084000400000000000230706D288776187B3F9D50970C377404040400840A0000000031010000000000000000000E5FB99EFDF810C2830300000000000004040404040404040 000000024.11 000000000.004040400000000000000000    80                                                                                                                                                                                                                                                                                                                  
07925020132390002G2675906759000000028818008888000000101SEVIERVILLE              TN           5 D                00                                      NNNN00 N 00                   000000000000                                                                   76487158                                                                                                                                                                                                                                                                                                                                                                                                                                               
07925030132390012DT67590675900000002881800888800000010180088824001193187900016600056070620230000000866718723000000000048981414709XXXXXX2225       VS11    0001111   NYV1 A E463187558546776N840000000008667HJGV00    07DNHAPPY HIPPIE             01631D    VS84000000008667 N  549976487158                            000000000+                D CD 12113                     000000000  N000000000 499   0000000000000.00 0000000.00   0000000.00                             000000000000000                                                                                                                                                     01418 A000000000000 0000000000001.92     02100 01000                  
07925040132390001E167590675900000002881800888800000010100E068C80141 00000000000.004040404040404040404040404040404040404040404040404006011203A00000000000000000000000404040404040404040404040404040  00010840200000000000002307068DD38857F6DFCBB976A31CFD404040400840A0000000031010000000000000000000404040404040404040404040404040404040404040404040 000000086.67 000000000.004040400000000000000000    80                                                                                                                                                                                                                                                                                                                  
07925050132390002G2675906759000000028818008888000000101SEVIERVILLE              TN           5 C                00                                      NNNN00 Y 00                   000000000000                                                                   76487158                                                                                                                                                                                                                                                                                                                                                                                                                                               
07925060132390013DT67590675900000002881800888800000010180088824001193187900016600064070620230000000325718723000000000048981441776XXXXXX7549       VS11    0001111   NYV1 A E383187590959333N840000000003257FS9N00    07DNHAPPY HIPPIE             646683    VD84000000003257 N  549976487158                            000000000+                F DF 00381                     000000000  N000000000       0000000000000.00 0000000.00   0000000.00                             000000000000000                                                                                                                                                     01418 A000000000000 0000000000000.41     00800 01500                  
07925070132390001E167590675900000002881800888800000010100E068C8011D 00000000000.00404040404040404040404040404040404040404040404040401F42FF32A00000000010030273000000004000000000000000000000000000  0000084000600000000000230706D83558E1FCB3DDAEEFAB4DA9404040400840A0000000031010000000000000000000BC34C4380086000000000000000000004040404040404040 000000032.57 000000000.004040400000000000000000    80                                                                                                                                                                                                                                                                                                                  
07925080132390002G2675906759000000028818008888000000101SEVIERVILLE              TN           5 D                00                                      NNNN00 N 00                   000000000000                                                                   76487158                                                                                                                                                                                                                                                                                                                                                                                                                                               
07925090132390014DT67590675900000002881800888800000010180088877287283187900016600074070620230000000493118723000000000048981555262XXXXXX1930       MS02WI09          NY 1 0 AMDJG5JLQ30706  N840000000004931          07DNHAPPY HIPPIE             550453    MD84000000004931 N  549976487158                            000000000+M10101M0034C    MDJ  00402                     000000000  N                0000000000000.00 0000000.00   0000000.00                             000000000000000                                                                                                                                                   B101418  000000000000 0000000000000.67     01050 01500                  
07925100132390001E167590675900000002881800888800000010100000848007F 00000000000.00404040404040404040404040404040404040404040404040400110A04001220000000000000000000000FF00000000000000000000000000  000008401980000000800123070691C7C79884D87CF015530130404040400840A0000000041010000000000000000000404040404040404040404040404040404040401F40404040 000000049.31 000000000.001F03020000000000000000    80                                                                                                                                                                                                                                                                                                                  
07925110132390002G2675906759000000028818008888000000101SEVIERVILLE              TN           5 J                                                        NNNN              000000000000000000000000       03               7                                          76487158                                                                                                                                                                                                                                                                                                                                                                                                                                               
07925120132390015DT67590675900000002881800888800000010180088824001193187900016600080070620230000000247818723000000000048981422921XXXXXX6738       VS11    0001111   NYV1 A E303187603522868N8400000000024784DXN00    07DNHAPPY HIPPIE             045953    VD84000000002478 N  549976487158                            000000000+                F DF 00381                     000000000  N000000000       0000000000000.00 0000000.00   0000000.00                             000000000000000                                                                                                                                                     01418 A000000000000 0000000000000.35     00800 01500                  
07925130132390001E167590675900000002881800888800000010100E068C80020 00000000000.004040404040404040404040404040404040404040404040404006011203A00000000000000000000000404040404040404040404040404040  0000084000000000000000230706974931A9AE63486AFB37CA1C404040400840A0000000031010000000000000000000C92A4BE90382000000000000000000004040404040404040 000000024.78 000000000.004040400000000000000000    80                                                                                                                                                                                                                                                                                                                  
07925140132390002G2675906759000000028818008888000000101SEVIERVILLE              TN           5 D                00                                      NNNN00 N 00                   000000000000                                                                   76487158                                                                                                                                                                                                                                                                                                                                                                                                                                               
07925150132390016DT67590675900000002881800888800000010180088824001193187900016600098070620230000000088718723000000000048981422921XXXXXX6738       VK04VS111111111   NYV1 A E583187604557094N840000000000887FM7T00    07DNHAPPY HIPPIE             046056    VD84000000000887 N  549976487158                            000000000+                F DF 00451                     000000000  N000000000 214   0000000000000.00 0000000.00   0000000.00                             000000000000000                                                                                                                                                     01418 F000000000000 0000000000000.18     01550 00400                  
07925160132390001E167590675900000002881800888800000010100E068C80021 00000000000.004040404040404040404040404040404040404040404040404006011203A00000000000000000000000404040404040404040404040404040  0000084000000000000000230706E07683A27CB4D4B33C948300404040400840A00000000310100000000000000000008C0DFA7A0382000000000000000000004040404040404040 000000008.87 000000000.004040400000000000000000    80                                                                                                                                                                                                                                                                                                                  
07925170132390002G2675906759000000028818008888000000101SEVIERVILLE              TN           5 D                00                                      NNNN00 N 00                   000000000000                                                                   76487158                                                                                                                                                                                                                                                                                                                                                                                                                                               
07925180132390017DT67590675900000002881800888800000010180088824001193187900016600106070620230000000128318723000000000048981443238XXXXXX0228       VK04VS111111111   NYV1 A E303187607684294N840000000001283HRZT00    07DNHAPPY HIPPIE             025248    VD84000000001283 N  549976487158                            000000000+                F DF 00451                     000000000  N000000000 214   0000000000000.00 0000000.00   0000000.00                             000000000000000                                                                                                                                                     01418 F000000000000 0000000000000.24     01550 00400                  
07925190132390001E167590675900000002881800888800000010100E068C8006D 00000000000.004040404040404040404040404040404040404040404040404006011203A00000000000000000000000404040404040404040404040404040  000008400000000000000023070602EFB486F62E8ADD4EB62DDD404040400840A0000000031010000000000000000000404040404040404040404040404040404040404040404040 000000012.83 000000000.004040400000000000000000    80                                                                                                                                                                                                                                                                                                                  
07925200132390002G2675906759000000028818008888000000101SEVIERVILLE              TN           5 D                00                                      NNNN00 N 00                   000000000000                                                                   76487158                                                                                                                                                                                                                                                                                                                                                                                                                                               
07925210132390018DT67590675900000002881800888800000010180088877287283187900016600116070620230000000076218723000000000048981528710XXXXXX3305       MS02WI09          NY 1 0 AMDJZS5QRD0706  N840000000000762          07DNHAPPY HIPPIE             859832    MD84000000000762 N  549976487158                            000000000+M10101M0034C    MDJ  10831                     000000000  1                0000000000000.00 0000000.00   0000000.00                             000000000000000                                                                                                                                                   B101418  000000000000 0000000000000.22     00050 02200                  
07925220132390001E1675906759000000028818008888000000101000008480184 00000000000.00404040404040404040404040404040404040404040404040400110A04001220000000000000000000000FF00000000000000000000000000  00000840198000000080012307060AFAD4E52F069B74D04CF72F404040400840A0000000041010000000000000000000404040404040404040404040404040404040401F40404040 000000007.62 000000000.001F03020000000000000000    80                                                                                                                                                                                                                                                                                                                  
07925230132390002G2675906759000000028818008888000000101SEVIERVILLE              TN           5 J                                                        NNNN              000000000000000000000000       03               7                                          76487158                                                                                                                                                                                                                                                                                                                                                                                                                                               
07925240132390019DT67590675900000002881800888800000010180088824001193187900016600122070620230000000172418723000000000048981445102XXXXXX2221       VS11    0001111   NYV1 A E463187658929028N84000000000172444NF00    05DNHAPPY HIPPIE             083260    VD84000000001724 N  549976487158                            000000000+                F DF 10433                     000000000  Y000000000 338   0000000000000.00 0000000.00   0000000.00                             000000000000000                                                                                                                                                     01418 A000000000000 0000000000000.23     00050 02200                  
07925250132390001E167590675900000002881800888800000010100E0F8C80012 00000000000.004040404040404040404040404040404040404040404040404006011203A08000000000000000000000404040404040404040404040404040  0001084018008080008000230706CE26E3EBAB73A2140918A258404040400840A00000000310100000000000000000002E8561470082000000000000000000004040401E40404040 000000017.24 000000000.001E00000000000000000000    80                                                                                                                                                                                                                                                                                                                  
07925260132390002G2675906759000000028818008888000000101SEVIERVILLE              TN           5 D                00                                      NNNN00 N 00                   000000000000                                                                   76487158                                                                                                                                                                                                                                                                                                                                                                                                                                               
07925270132390020DT67590675900000002881800888800000010180088824001193187900016600130070620230000000108418723000000000048981480639XXXXXX3046       VK04VS111111111   NYV1 A E303187660406558N840000000001084NFRZ00    05DNHAPPY HIPPIE             612014    VD84000000001084 N  549976487158                            000000000+                F DF 00451                     000000000  N000000000 214   0000000000000.00 0000000.00   0000000.00                             000000000000000                                                                                                                                                     01418 F000000000000 0000000000000.21     01550 00400                  
07925280132390001E167590675900000002881800888800000010100E0F8C80118 00000000000.004040404040404040404040404040404040404040404040404006011203A0A000000000000000000000404040404040404040404040404040  0000084018008080008000230706249D2AC418E95A1B61D76319404040400840A00000000310100000000000000000005C12B5130080000000000000000000004040401E40404040 000000010.84 000000000.001E00000000000000000000    80                                                                                                                                                                                                                                                                                                                  
07925290132390002G2675906759000000028818008888000000101SEVIERVILLE              TN           5 D                00                                      NNNN00 N 00                   000000000000                                                                   76487158                                                                                                                                                                                                                                                                                                                                                                                                                                               
07925300132390021DT67590675900000002881800888800000010180088824001193187900016600148070620230000000690818723000000000048981486883XXXXXX4594       VS11    0001111   NYV1 A E583187669823339N840000000006908M5HH00    07DNHAPPY HIPPIE             022009    VD84000000006908 N  549976487158                            000000000+                F DF 10433                     000000000  Y000000000 338   0000000000000.00 0000000.00   0000000.00                             000000000000000                                                                                                                                                     01418 A000000000000 0000000000000.25     00050 02200                  
07925310132390001E167590675900000002881800888800000010100E068C80115 00000000000.00404040404040404040404040404040404040404040404040401F4A0431A00000000010030273000000004000000000000000000000000000  00000840006000000000002307068D19747730FD3E8A637B3333404040400840A00000000310100000000000000000005759737BEA55905130300000000000004040404040404040 000000069.08 000000000.004040400000000000000000    80                                                                                                                                                                                                                                                                                                                  
07925320132390002G2675906759000000028818008888000000101SEVIERVILLE              TN           5 D                00                                      NNNN00 N 00                   000000000000                                                                   76487158                                                                                                                                                                                                                                                                                                                                                                                                                                               
07925330132390022DT67590675900000002881800888800000010180088877287283187900016600157070620230000000381918723000000000048981515676XXXXXX4653       MS02WI09          NY 1 0 AMWEL0XEQ30706  N840000000003819          07DNHAPPY HIPPIE             09374Z    MC84000000003819 N  549976487158                            000000000+M10101M0034C    MWE  00743                     000000000  N                0000000000000.00 0000000.00   0000000.00                             000000000000000                                                                                                                                                   B101418  000000000000 0000000000000.92     02300 00400                  
07925340132390001E16759067590000000288180088880000001010000084800A3 00000000000.00404040404040404040404040404040404040404040404040400110A04001220000000000000000000000FF00000000000000000000000000  00020840198000000080012307060A68B98F38B5C094BB481AA4404040400840A0000000041010000000000000000000404040404040404040404040404040404040401F40404040 000000038.19 000000000.001F03020000000000000000    80                                                                                                                                                                                                                                                                                                                  
07925350132390002G2675906759000000028818008888000000101SEVIERVILLE              TN           5 E                                                        NNNN              000000000000000000000000       03               7                                          76487158                                                                                                                                                                                                                                                                                                                                                                                                                                               
07925360132390023DT67590675900000002881800888800000010180088824001193187900016600163070620230000000087618723000000000048981414740XXXXXX0768       VK04VS111111111   NYV1 A E383187703373117N840000000000876FT3Q00    07DNHAPPY HIPPIE             06529D    VS84000000000876 N  549976487158                            000000000+                D CD 12057                     000000000  N000000000 452   0000000000000.00 0000000.00   0000000.00                             000000000000000                                                                                                                                                     01418 F000000000000 0000000000000.19     02200 00000                  
07925370132390001E167590675900000002881800888800000010100E068C8050A 00000000000.004040404040404040404040404040404040404040404040404006021203A00000000000000000000000404040404040404040404040404040  0002084020000000000000230706E2558193C0EE888AFFEE1B58404040400840A0000000031010000000000000000000E793A2A10082000000000000000000004040404040404040 000000008.76 000000000.004040400000000000000000    80                                                                                                                                                                                                                                                                                                                  
07925380132390002G2675906759000000028818008888000000101SEVIERVILLE              TN           5 C                00                                      NNNN00 Y 00                   000000000000                                                                   76487158                                                                                                                                                                                                                                                                                                                                                                                                                                               
07925390132390024DT67590675900000002881800888800000010180088824001193187900016600171070620230000000112318723000000000048981419090XXXXXX0815       VK04VS111111111   NYV1 A E383187720599965N840000000001123QN4700    05DNHAPPY HIPPIE             654536    VD84000000001123 N  549976487158                            000000000+                F DF 00451                     000000000  N000000000 214   0000000000000.00 0000000.00   0000000.00                             000000000000000                                                                                                                                                     01418 F000000000000 0000000000000.21     01550 00400                  
07925400132390001E167590675900000002881800888800000010100E0F8C8001F 00000000000.004040404040404040404040404040404040404040404040404006011203A0A000000000000000000000404040404040404040404040404040  0001084018008080008000230706AA4EEF8E47A69B8261141B8A404040400840A00000000310100000000000000000002DFC1CF30080000000000000000000004040401E40404040 000000011.23 000000000.001E00000000000000000000    80                                                                                                                                                                                                                                                                                                                  
07925410132390002G2675906759000000028818008888000000101SEVIERVILLE              TN           5 D                00                                      NNNN00 N 00                   000000000000                                                                   76487158                                                                                                                                                                                                                                                                                                                                                                                                                                               
07925420132390025BH6759067590000000288180088880000090170706202318723000000000116952    0000090001550018N8008886759C07072023155                                                                                                                                                                                                                                                                                                                                                                                                                                                                                                                                                                                              
07925430132390026DT67590675900000002881800888800000010180088824001193187900015500018070620230000003555718723000000000116952405999XXXXXX2517       VS11    0001111   NYV1 A E583187525141604N840000000035557JWVW00    05DNHAPPY HIPPIE             339277    VD84000000035557 N  549976487134                            000000000+                G DG 08704                     000000000  N000000000       0000000000000.00 0000000.00   0000000.00                             000000000000000                                                                                                                                                     01418 A000000000000 0000000000006.14     01700 01000                  
07925440132390001E167590675900000002881800888800000010100E0F8C801B5 00000000000.004040404040404040404040404040404040404040404040404006011203A00000000000000000000000404040404040404040404040404040  0000084018008080008000230706768A928E51B5370A1315ABB8404040400840A00000000310100000000000000000000EEAF9150382000000000000000000004040401E40404040 000000355.57 000000000.001E00000000000000000000    80                                                                                                                                                                                                                                                                                                                  
07925450132390002G2675906759000000028818008888000000101SEVIERVILLE              TN           5 D                00                                      NNNN00 N 00                   000000000000                                                                   76487134                                                                                                                                                                                                                                                                                                                                                                                                                                               
07925460132390027DT67590675900000002881800888800000010180088877287283187900015500028070620230000001168218723000000000116952515676XXXXXX7693       MS02WI09          NY 1 0 AMWEQICA080706  N840000000011682          05DNHAPPY HIPPIE             09120Z    MC84000000011682 N  549976487134                            000000000+M10101C5434C    MWE  00743                     000000000  N                0000000000000.00 0000000.00   0000000.00                             000000000000000                                                                                                                                                   B101418  000000000000 0000000000002.73     02300 00400                  
07925470132390001E167590675900000002881800888800000010100E0F8C8001F 00000000000.00404040404040404040404040404040404040404040404040400110A04001220000000000000000000000FF00000000000000000000000000  0001084039000000008000230706A515AF824FDE34E99A6A737E404040400840A000000004101000000000000000000092F1AD7355984D2E00120000000000004040401E40404040 000000116.82 000000000.001E03000000000000000000    80                                                                                                                                                                                                                                                                                                                  
07925480132390002G2675906759000000028818008888000000101SEVIERVILLE              TN           5 E                                                        NNNN              000000000000000000000000                        7                                          76487134                                                                                                                                                                                                                                                                                                                                                                                                                                               
07925490132390028DT67590675900000002881800888800000010180088877287283187900015500036070620230000000416618723000000000116952524300XXXXXX7501       MS02WI09          NY 1 0 AMPLKZ22080706  N840000000004166          05DNHAPPY HIPPIE             00669B    MC84000000004166 N  549976487134                            000000000+M10101C5434C    MPL  00364                     000000000  N                0000000000000.00 0000000.00   0000000.00                             000000000000000                                                                                                                                                   B101418  000000000000 0000000000000.79     01800 00400                  
07925500132390001E167590675900000002881800888800000010100E0F8C80005 00000000000.00404040404040404040404040404040404040404040404040400510A04001220000000000000000000000FF00000000000000000000000000  0001084039000000008000230706637BCF52580F82E8A800E496404040400840A000000004101000000000000000000058D31DBB32049E8E00120000000000004040401E40404040 000000041.66 000000000.001E03000000000000000000    80                                                                                                                                                                                                                                                                                                                  
07925510132390002G2675906759000000028818008888000000101SEVIERVILLE              TN           5 L                                                        NNNN              000000000000000000000000                        7                                          76487134                                                                                                                                                                                                                                                                                                                                                                                                                                               
07925520132390029DT67590675900000002881800888800000010180088824001193187900015500042070620230000000416718723000000000116952422921XXXXXX6466       VS11    0001111   NYV1 A E303187554440990N840000000004167CLVN00    05DNHAPPY HIPPIE             041045    VD84000000004167 N  549976487134                            000000000+                F DF 00381                     000000000  N000000000       0000000000000.00 0000000.00   0000000.00                             000000000000000                                                                                                                                                     01418 A000000000000 0000000000000.48     00800 01500                  
07925530132390001E167590675900000002881800888800000010100E0F8C803AA 00000000000.004040404040404040404040404040404040404040404040404006011203A00000000000000000000000404040404040404040404040404040  0000084018008080008000230706CD1AB9962082768FD35CD85B404040400840A0000000031010000000000000000000C4F232E40382000000000000000000004040401E40404040 000000041.67 000000000.001E00000000000000000000    80                                                                                                                                                                                                                                                                                                                  
07925540132390002G2675906759000000028818008888000000101SEVIERVILLE              TN           5 D                00                                      NNNN00 N 00                   000000000000                                                                   76487134                                                                                                                                                                                                                                                                                                                                                                                                                                               
07925550132390030DT67590675900000002881800888800000010180088877287283187900015500051070620230000000164518723000000000116952551650XXXXXX3494       MS02WI09          NY 1 0 AMDSK751080706  N840000000001645          05DNHAPPY HIPPIE             863958    MD84000000001645 N  549976487134                            000000000+M10101C5434C    MDS  00402                     000000000  N                0000000000000.00 0000000.00   0000000.00                             000000000000000                                                                                                                                                   B101418  000000000000 0000000000000.32     01050 01500                  
07925560132390001E167590675900000002881800888800000010100E0F8C80056 00000000000.00404040404040404040404040404040404040404040404040400110A00001220000000000000000000000FF00000000000000000000000000  00000840180080000080002307069DBBAFC6C468360384CA02C7404040400840A0000000041010000000000000000000AA4F59669A74E56400120000000000004040401E40404040 000000016.45 000000000.001E03000000000000000000    80                                                                                                                                                                                                                                                                                                                  
