00002900423780002BH6759067590000000288180088880000090170118202301823000000000003999    0000090001430093Y8008886759C01192023                                                                                                                                                                                                                                                                                                                                                                                                                                                                                                                                                                                                 
00002910423780003DT67590675900000002881800888800000010180088824001193018900014300936011820230000000399901823000000000003999448261XXXXXX2015               2111111   NYV4 A7W303018554337041N8400000000039998RSP00    01DNHAPPY HIPPIE             600024    VD84000000003999 NP1549976044904   1910                     000000000+                F DF 10420                     000000000  Y000000000 338   0000000000000.00 0000000.00   0000000.00                             000000000000000                                                                                                                                                     01424 G000000003999 0000000000000.24     00050 02200                  
00002920423780001P16759067590000000288180088880000001010000000000000000                             2000000000000000000000000              000000000000                    0000000000000000000000000                    000000000000                                                                                                                                                                                                                                                                                                                                                                                                                                                                                        
