08639490055360002BH6759067590000002092580011280000090170602202315323000000000129200    0000090001260072Y8001126759C06052023026                                                                                                                                                                                                                                                                                                                                                                                                                                                                                                                                                                                              
08639500055360003DT67590675900000020925800112800000010180011273011003153900012600684060120230000002770015323000000000129200376741XXXXX1000                          NY 4 07N007334042712071N840000000027700          01DNJ K DISTRIBUTION INC     265278    AM84000000027700 YP1549977712156   INV002063                000000000+6004S0S00130 258     11262                     000000000                   0000000000000.00 0000000.00   0000000.00                             000000000000000 61248972086759675900000020925 J K DISTRIBUTION INC     391 MAIN ST              8608957639      06492     ADMIN@GOODDISTRO.COM                      01324  000000000000 0000000000005.50     01950 00000                  
08639510055360001P1675906759000000209258001128000000101                    INV002063                             00000000000033403     1000   000000000850871923            000000000000                                                                                                      D                                                                                                                                                                                                                                                                                                                                                                                                                             
08639520055360002P2675906759000000209258001128000000101                                                                                              00000                   000000000                                                                                                                                                                                                                                                                                                                                                                                                                                                                                                                                      
08639530055360003G2675906759000000209258001128000000101WALLINGFORD              CT           9                  00                  850871923           YNNN                          000000000000                                                                   77712156                                                                                                                                                                                                                                                                                                                                                                                                                                               
08639540055360004DT67590675900000020925800112800000010180011224001193153900012600696060120230000000800015323000000000129200424631XXXXXX0362               2111111   NYV4 A7W463153060540039N840000000008000CJZT00    01DNJ K DISTRIBUTION INC     01625G    VB84000000008000 NDR549977712156   MICHAELHURFF             000000000+                G3CG308002                     000000000  N000000000 381   0000000000000.00 0000000.00   0000000.00                             000000000000000                                                                                                                                                     01424 G000000008000 0000000000002.34     02800 01000                  
08639550055360004DR675906759000000209258001128000000101MICHAELHURFF             Z000000008000                 P1                                                                                                                                                                                                                                                                                                                                                                                                                                                                                                                                                                                                            
08639560055360001P16759067590000002092580011280000001010000000000000000    INV001961                2000000000000000000000000              000000000000                    0000000000000000000000000                    000000000000                                                                                                                                                                                                                                                                                                                                                                                                                                                                                        
08639570055360002G2675906759000000209258001128000000101203-8159817              CT           9 C                00                                      NNNN   Y                      000000000000                                                                   77712156                                                                                                                                                                                                                                                                                                                                                                                                                                               
08639580055360005DT67590675900000020925800112800000010180011224001193153900012600712060120230000001350015323000000000129200424631XXXXXX5085               2111111   NYV4 A7W463153065550436N840000000013500MMBJ00    01DNJ K DISTRIBUTION INC     07467G    VB84000000013500 NDR549977712156   MICHAELHURFF             000000000+                G5CG511887                     000000000  N000000000 163   0000000000000.00 0000000.00   0000000.00                             000000000000000                                                                                                                                                     01424 G000000013500 0000000000004.15     03000 01000                  
08639590055360005DR675906759000000209258001128000000101MICHAELHURFF             Z000000013500                 P1                                                                                                                                                                                                                                                                                                                                                                                                                                                                                                                                                                                                            
08639600055360001P16759067590000002092580011280000001010000000000000000    INV002032                2000000000000000000000000              000000000000                    0000000000000000000000000                    000000000000                                                                                                                                                                                                                                                                                                                                                                                                                                                                                        
08639610055360002G2675906759000000209258001128000000101203-8159817              CT           9 C                00                                      NNNN   Y                      000000000000                                                                   77712156                                                                                                                                                                                                                                                                                                                                                                                                                                               
08639620055360006DT67590675900000020925800112800000010180011224001193153900012600720060220230000008000015323000000000129200435546XXXXXX8491               2111111   NYV4 A7W463153764496520N840000000080000KQNK00    01DNJ K DISTRIBUTION INC     103033    VD84000000080000 NDR549977712156   8405317626               000000000+                F DF 10420                     000000000  Y000000000 338   0000000000000.00 0000000.00   0000000.00                             000000000000000                                                                                                                                                     01424 G000000080000 0000000000000.62     00050 02200                  
08639630055360006DR6759067590000002092580011280000001018405317626               Z000000080000                 P1                                                                                                                                                                                                                                                                                                                                                                                                                                                                                                                                                                                                            
08639640055360001P16759067590000002092580011280000001010000000000000000                             2000000000000000000000000              000000000000                    0000000000000000000000000                    000000000000                                                                                                                                                                                                                                                                                                                                                                                                                                                                                        
08639650055360002G2675906759000000209258001128000000101203-8159817              CT           9 D                00                                      NNNN   N                      000000000000                                                                   77712156                                                                                                                                                                                                                                                                                                                                                                                                                                               
08639660055360007BH675906759000000198288001098000009017060220231532300000000007047901970000090001719965N8001096759D06052023071                                                                                                                                                                                                                                                                                                                                                                                                                                                                                                                                                                                              
08639670055360008DT67590675900000019828800109800000010680010974001193153900017199616060220230000001987015323000000000070479410039XXXXXX1484               0000000   NNV4 07T303153524455550N8400000000198708JJX00    01CNKETOFUSION 8885968154    73061A0197VS84000000019870 NDR599977547467   C5DDA97312T7AC7486BB7E6  000000000+                A CA 00000                     000000000  N000000000 166   0000000000000.00 0000000.00   0000000.00             000000000019870C000000000000000                                                                                                                                                     01424  000000019870 0000000000000.00     00000 00000                  
08639680055360008DR675906759000000198288001098000000106C5DDA97312T7AC7486BB7E6  U000000019870                 P1                                                                                                                                                                                                                                                                                                                                                                                                                                                                                                                                                                                                            
08639690055360001P16759067590000001982880010980000001060000000000000000                             2000000000000000000000000              000000000000                    0000000000000000000000000                    000000000000                                                                                                                                                                                                                                                                                                                                                                                                                                                                                        
08639700055360002G2675906759000000198288001098000000106888-5968154              UT           9 C                00                                      NNNN   Y                      000000000000                                                                   77547467                                                                                                                                                                                                                                                                                                                                                                                                                                               
08639710055360009DT67590675900000019828800109800000010680010974001193153900017199624060220230000000327415323000000000070479410039XXXXXX1484               0000000   NNV4 07T303153524985059N840000000003274LC5J00    01CNKETOFUSION 8885968154    31552A0197VS84000000003274 NDR599977547467   C5DDA97312T0A4BA84A5600  000000000+                A CA 00000                     000000000  N000000000 166   0000000000000.00 0000000.00   0000000.00             000000000003274C000000000000000                                                                                                                                                     01424  000000003274 0000000000000.00     00000 00000                  
08639720055360009DR675906759000000198288001098000000106C5DDA97312T0A4BA84A5600  U000000003274                 P1                                                                                                                                                                                                                                                                                                                                                                                                                                                                                                                                                                                                            
08639730055360001P16759067590000001982880010980000001060000000000000000                             2000000000000000000000000              000000000000                    0000000000000000000000000                    000000000000                                                                                                                                                                                                                                                                                                                                                                                                                                                                                        
08639740055360002G2675906759000000198288001098000000106888-5968154              UT           9 C                00                                      NNNN   Y                      000000000000                                                                   77547467                                                                                                                                                                                                                                                                                                                                                                                                                                               
08639750055360010DT67590675900000019828800109800000010680010974001193153900017199632060220230000000259515323000000000070479410039XXXXXX1484               0000000   NNV4 07T303153525374241N840000000002595M22F00    01CNKETOFUSION 8885968154    76532A0197VS84000000002595 NDR599977547467   C5DDA97312TD70EB1574B70  000000000+                A CA 00000                     000000000  N000000000 166   0000000000000.00 0000000.00   0000000.00             000000000002595C000000000000000                                                                                                                                                     01424  000000002595 0000000000000.00     00000 00000                  
08639760055360010DR675906759000000198288001098000000106C5DDA97312TD70EB1574B70  U000000002595                 P1                                                                                                                                                                                                                                                                                                                                                                                                                                                                                                                                                                                                            
08639770055360001P16759067590000001982880010980000001060000000000000000                             2000000000000000000000000              000000000000                    0000000000000000000000000                    000000000000                                                                                                                                                                                                                                                                                                                                                                                                                                                                                        
08639780055360002G2675906759000000198288001098000000106888-5968154              UT           9 C                00                                      NNNN   Y                      000000000000                                                                   77547467                                                                                                                                                                                                                                                                                                                                                                                                                                               
08639790055360011DT67590675900000019828800109800000010680010987287283153900017199646060220230000001987015323000000000070479512107XXXXXX8163                         NN 4607AMCCEDW1SP0602  N840000000019870          81CNKETOFUSION 8885968154    0025100197MC84000000019870 NDR599977547467   372D946DACTF36F0F9AD7E4  000000000+600450S00130    MCC  00000                     000000000  N                0000000000000.00 0000000.00   0000000.00             000000000019870C000000000000000                                                                                                                                                     01424  000000000000 0000000000000.00     00000 00000                  
08639800055360011DR675906759000000198288001098000000106372D946DACTF36F0F9AD7E4  R000000000000                                                                                                                                                                                                                                                                                                                                                                                                                                                                                                                                                                                                                               
08639810055360001G2675906759000000198288001098000000106888-5968154              UT           9 C               210                                      NNNN           210000000000000000000000000                        7                                          77547467                                                                                                                                                                                                                                                                                                                                                                                                                                               
08639820055360012DT67590675900000019828800109800000010680010974001193153900017199657060220230000002487015323000000000070479434256XXXXXX6409               0000000   NNV4 07T303153830609790N840000000024870P3F400    01CNKETOFUSION 8885968154    0884730197VD84000000024870 NDR599977547467   712045A7C3T3F8310D4BAB1  000000000+                F DF 00000                     000000000  Y000000000 369   0000000000000.00 0000000.00   0000000.00             000000000024870C000000000000000                                                                                                                                                     01424  000000024870 0000000000000.00     00000 00000                  
08639830055360012DR675906759000000198288001098000000106712045A7C3T3F8310D4BAB1  Y000000024870                 P1                                                                                                                                                                                                                                                                                                                                                                                                                                                                                                                                                                                                            
08639840055360001P16759067590000001982880010980000001060000000000000000                             2000000000000000000000000              000000000000                    0000000000000000000000000                    000000000000                                                                                                                                                                                                                                                                                                                                                                                                                                                                                        
08639850055360002G2675906759000000198288001098000000106888-5968154              UT           9 D                00                                      NNNN   N                      000000000000                                                                   77547467                                                                                                                                                                                                                                                                                                                                                                                                                                               
08639860055360013BH6759067590000001330080010280000090170602202315323000000000289269    0000090001075000Y8001026759C06052023107                                                                                                                                                                                                                                                                                                                                                                                                                                                                                                                                                                                              
08639870055360014DT67590675900000013300800102800000010180010287287283153900010743887060120230000002733215323000000000289269528749XXXXXX5506       ME03KE06MS02      NY 4607AMDJ0TXT5H0529  N840000000027332          81DNCBD8666317293            675103    MD84000000027332 NDR549977133133   66BEAE860ETD8DA706AD53F  000000000+600450S00130    MDJ  10813                     000000000  1                0000000000000.00 0000000.00   0000000.00                             000000000000000                                                                                                                                                   U001424  000000000000 0000000000000.36     00050 02200                  
08639880055360014DR67590675900000013300800102800000010166BEAE860ETD8DA706AD53F  Y000000000000                                                                                                                                                                                                                                                                                                                                                                                                                                                                                                                                                                                                                               
08639890055360001G2675906759000000133008001028000000101866-6317293              GA           9 J               210                                      NNNN           210000000000000000000000000                                                                   77133133                                                                                                                                                                                                                                                                                                                                                                                                                                               
08639900055360015DT67590675900000013300800102800000010180010224001193153900010743902060120230000002092315323000000000289269429488XXXXXX3789               2111111   NYV4 A7W463149256731455N840000000020923PCQL00    01DNCBD8666317293            095244    VD84000000020923 NDR549977133133   98EDF06560TA20C1306E4B2  000000000+                F DF 00415                     000000000  N000000000       0000000000000.00 0000000.00   0000000.00                             000000000000000                                                                                                                                                     01424 G000000020923 0000000000003.60     01650 01500                  
08639910055360015DR67590675900000013300800102800000010198EDF06560TA20C1306E4B2  Y000000020923                 P1                                                                                                                                                                                                                                                                                                                                                                                                                                                                                                                                                                                                            
08639920055360001P16759067590000001330080010280000001010000000000000000                             2000000000000000000000000              000000000000                    0000000000000000000000000                    000000000000                                                                                                                                                                                                                                                                                                                                                                                                                                                                                        
08639930055360002G2675906759000000133008001028000000101866-6317293              GA           9 D                00                                      NNNN   N                      000000000000                                                                   77133133                                                                                                                                                                                                                                                                                                                                                                                                                                               
08639940055360016DT67590675900000013300800102800000010180010224001193153900010743969060120230000000751215323000000000289269424631XXXXXX7766       EF10    2111111   NYV4 A7W583149325916765N840000000007512VF3F00    01DNCBD8666317293            09345G    VB84000000007512 NDR549977133133   E9A623AC22TCFCEF7B572F2  000000000+                G CG 00476                     000000000  N000000000 170   0000000000000.00 0000000.00   0000000.00                             000000000000000                                                                                                                                                     01424 G000000007512 0000000000001.53     01900 01000                  
08639950055360016DR675906759000000133008001028000000101E9A623AC22TCFCEF7B572F2  Y000000007512                 P1                                                                                                                                                                                                                                                                                                                                                                                                                                                                                                                                                                                                            
08639960055360001P16759067590000001330080010280000001010000000000000000                             1000000000508000000000000              000000000000                    0000000000000000000000000                    000000000000                                                                                                                                                                                                                                                                                                                                                                                                                                                                                        
08639970055360002G2675906759000000133008001028000000101866-6317293              GA           9 C                00                                      NNNN   Y                      000000000000                                                                   77133133                                                                                                                                                                                                                                                                                                                                                                                                                                               
08639980055360017DT67590675900000013300800102800000010180010287287283153900010743994060120230000002136015323000000000289269531260XXXXXX8592       ME03KE06MS02      NY 4607AMDJEOB5VS0529  N840000000021360          81DNCBD8666317293            192409    MD84000000021360 NDR549977133133   7644497C30T1187DB788C8A  000000000+600450S00130    MDJ  10813                     000000000  1                0000000000000.00 0000000.00   0000000.00                             000000000000000                                                                                                                                                   U001424  000000000000 0000000000000.33     00050 02200                  
08639990055360017DR6759067590000001330080010280000001017644497C30T1187DB788C8A  N000000000000                                                                                                                                                                                                                                                                                                                                                                                                                                                                                                                                                                                                                               
08640000055360001G2675906759000000133008001028000000101866-6317293              GA           9 J               210                                      NNNN           210000000000000000000000000                        7                                          77133133                                                                                                                                                                                                                                                                                                                                                                                                                                               
08640010055360018DT67590675900000013300800102800000010180010224001193153900010744017060120230000000600415323000000000289269449879XXXXXX8019               2111111   NYV4 A7W463149336057209N840000000006004DWHX00    01DNCBD8666317293            335894    VD84000000006004 NDR549977133133   7D36E60213T193CEA42D306  000000000+                F DF 00415                     000000000  N000000000       0000000000000.00 0000000.00   0000000.00                             000000000000000                                                                                                                                                     01424 G000000006004 0000000000001.14     01650 01500                  
08640020055360018DR6759067590000001330080010280000001017D36E60213T193CEA42D306  Y000000006004                 P1                                                                                                                                                                                                                                                                                                                                                                                                                                                                                                                                                                                                            
08640030055360001P16759067590000001330080010280000001010000000000000000                             2000000000000000000000000              000000000000                    0000000000000000000000000                    000000000000                                                                                                                                                                                                                                                                                                                                                                                                                                                                                        
08640040055360002G2675906759000000133008001028000000101866-6317293              GA           9 D                00                                      NNNN   N                      000000000000                                                                   77133133                                                                                                                                                                                                                                                                                                                                                                                                                                               
08640050055360019DT67590675900000013300800102800000010180010224001193153900010744603060120230000002674115323000000000289269435336XXXXXX2153               2111111   NYV4 A7W303149624050543N840000000026741ZXGC00    01DNCBD8666317293            022005    VD84000000026741 NDR549977133133   E66ED223A7T2BE32878E7D3  000000000+                F DF 00415                     000000000  N000000000       0000000000000.00 0000000.00   0000000.00                             000000000000000                                                                                                                                                     01424 G000000026741 0000000000004.56     01650 01500                  
08640060055360019DR675906759000000133008001028000000101E66ED223A7T2BE32878E7D3  Y000000026741                 P1                                                                                                                                                                                                                                                                                                                                                                                                                                                                                                                                                                                                            
08640070055360001P16759067590000001330080010280000001010000000000000000                             2000000000000000000000000              000000000000                    0000000000000000000000000                    000000000000                                                                                                                                                                                                                                                                                                                                                                                                                                                                                        
08640080055360002G2675906759000000133008001028000000101866-6317293              GA           9 D                00                                      NNNN   N                      000000000000                                                                   77133133                                                                                                                                                                                                                                                                                                                                                                                                                                               
08640090055360020DT67590675900000013300800102800000010180010224001193153900010745048060120230000001600315323000000000289269473703XXXXXX4489               2111111   NYV4 A7W383149750057884N840000000016003SS8W00    01DNCBD8666317293            089398    VD84000000016003 NDR549977133133   82DDCB2DF9T0CAD67DA6120  000000000+                F DF 10420                     000000000  Y000000000 338   0000000000000.00 0000000.00   0000000.00                             000000000000000                                                                                                                                                     01424 G000000016003 0000000000000.30     00050 02200                  
08640100055360020DR67590675900000013300800102800000010182DDCB2DF9T0CAD67DA6120  Y000000016003                 P1                                                                                                                                                                                                                                                                                                                                                                                                                                                                                                                                                                                                            
08640110055360001P16759067590000001330080010280000001010000000000000000                             2000000000000000000000000              000000000000                    0000000000000000000000000                    000000000000                                                                                                                                                                                                                                                                                                                                                                                                                                                                                        
08640120055360002G2675906759000000133008001028000000101866-6317293              GA           9 D                00                                      NNNN   N                      000000000000                                                                   77133133                                                                                                                                                                                                                                                                                                                                                                                                                                               
08640130055360021DT67590675900000013300800102800000010180010224001193153900010745121060120230000001987015323000000000289269423980XXXXXX9165               2111111   NYV4 A7W463149813042363N840000000019870QGFK00    01DNCBD8666317293            029280    VS84000000019870 NDR549977133133   22074905FFTE1BECD39457E  000000000+                A CA 12106                     000000000  N000000000 492   0000000000000.00 0000000.00   0000000.00                             000000000000000                                                                                                                                                     01424 G000000019870 0000000000003.86     01890 01000                  
08640140055360021DR67590675900000013300800102800000010122074905FFTE1BECD39457E  N000000019870                 P1                                                                                                                                                                                                                                                                                                                                                                                                                                                                                                                                                                                                            
08640150055360001P16759067590000001330080010280000001010000000000000000                             2000000000000000000000000              000000000000                    0000000000000000000000000                    000000000000                                                                                                                                                                                                                                                                                                                                                                                                                                                                                        
08640160055360002G2675906759000000133008001028000000101866-6317293              GA           9 C                00                                      NNNN   N                      000000000000                                                                   77133133                                                                                                                                                                                                                                                                                                                                                                                                                                               
08640170055360022DT67590675900000013300800102800000010180010224001193153900010745287060120230000002106215323000000000289269449362XXXXXX6015               2111111   NYV4 A7W303150037388325N8400000000210622LN400    01DNCBD8666317293            168581    VD84000000021062 NDR549977133133   0E778A3E15T739679F555BB  000000000+                F DF 00415                     000000000  N000000000       0000000000000.00 0000000.00   0000000.00                             000000000000000                                                                                                                                                     01424 G000000021062 0000000000003.63     01650 01500                  
08640180055360022DR6759067590000001330080010280000001010E778A3E15T739679F555BB  Z000000021062                 P1                                                                                                                                                                                                                                                                                                                                                                                                                                                                                                                                                                                                            
08640190055360001P16759067590000001330080010280000001010000000000000000                             2000000000000000000000000              000000000000                    0000000000000000000000000                    000000000000                                                                                                                                                                                                                                                                                                                                                                                                                                                                                        
08640200055360002G2675906759000000133008001028000000101866-6317293              GA           9 D                00                                      NNNN   N                      000000000000                                                                   77133133                                                                                                                                                                                                                                                                                                                                                                                                                                               
08640210055360023DT67590675900000013300800102800000010180010224001193153900010745295060120230000002146015323000000000289269401171XXXXXX7321               2111111   NYV4 A7W583150039068768N840000000021460FMP400    01DNCBD8666317293            010506    VD84000000021460 NDR549977133133   4C18AD2720T4584A69D3B22  000000000+                F DF 00415                     000000000  N000000000       0000000000000.00 0000000.00   0000000.00                             000000000000000                                                                                                                                                     01424 G000000021460 0000000000003.69     01650 01500                  
08640220055360023DR6759067590000001330080010280000001014C18AD2720T4584A69D3B22  Y000000021460                 P1                                                                                                                                                                                                                                                                                                                                                                                                                                                                                                                                                                                                            
08640230055360001P16759067590000001330080010280000001010000000000000000                             2000000000000000000000000              000000000000                    0000000000000000000000000                    000000000000                                                                                                                                                                                                                                                                                                                                                                                                                                                                                        
08640240055360002G2675906759000000133008001028000000101866-6317293              GA           9 D                00                                      NNNN   N                      000000000000                                                                   77133133                                                                                                                                                                                                                                                                                                                                                                                                                                               
08640250055360024DT67590675900000013300800102800000010180010224001193153900010745352060120230000001499115323000000000289269410039XXXXXX5890               2111111   NYV4 A7W463150069052917N840000000014991FJQN00    01DNCBD8666317293            37936D    VS84000000014991 NDR549977133133   443AEA2E63T542C8F1FD1F8  000000000+                D CD 12109                     000000000  N000000000 498   0000000000000.00 0000000.00   0000000.00                             000000000000000                                                                                                                                                     01424 G000000014991 0000000000003.85     02500 01000                  
08640260055360024DR675906759000000133008001028000000101443AEA2E63T542C8F1FD1F8  Y000000014991                 P1                                                                                                                                                                                                                                                                                                                                                                                                                                                                                                                                                                                                            
08640270055360001P16759067590000001330080010280000001010000000000000000                             2000000000000000000000000              000000000000                    0000000000000000000000000                    000000000000                                                                                                                                                                                                                                                                                                                                                                                                                                                                                        
08640280055360002G2675906759000000133008001028000000101866-6317293              GA           9 C                00                                      NNNN   Y                      000000000000                                                                   77133133                                                                                                                                                                                                                                                                                                                                                                                                                                               
08640290055360025DT67590675900000013300800102800000010180010276509753153900010745459060120230000000643915323000000000289269601101XXXXXX3115   BA00                  NY 4 07N753128715069224N840000000006439    00    01DNCBD8666317293            02940B    DZ84000000006439 NDR549977133133070                         000000000+1015104910600   DMCDI01012333854  222506000000 000000000  0          124   0000000000000.00 0000000.00   0000000.00                             000000000000000                                                                                                                                                     01424  000000000000 0000000000001.73     02450 01500                  
08640300055360025DR675906759000000133008001028000000101                         Y                                                                                                                                                                                                                                                                                                                                                                                                                                                                                                                                                                                                                                           
08640310055360001G2675906759000000133008001028000000101866-6317293              GA           9 C                00                                      NNNN                          000000000000                         00000650975601179750000261                77133133                                                                                                                                                                                                                                                                                                                                                                                                                                               
08640320055360026DT67590675900000013300800102800000010180010287287283153900010749462060120230000000499915323000000000289269517279XXXXXX8738       ME03KE06MS02      NY 4607AMDJX935XB0601  N840000000004999          81DNCBD8666317293            034875    MD84000000004999 NDR549977133133   D858C7F475T285C010D739A  000000000+600450S00130    MDJ  00401                     000000000  N                0000000000000.00 0000000.00   0000000.00                             000000000000000                                                                                                                                                   U001424  000000000000 0000000000000.97     01650 01500                  
08640330055360026DR675906759000000133008001028000000101D858C7F475T285C010D739A  Z000000000000                                                                                                                                                                                                                                                                                                                                                                                                                                                                                                                                                                                                                               
08640340055360001G2675906759000000133008001028000000101866-6317293              GA           9 J               210                                      NNNN           210000000000000000000000000                                                                   77133133                                                                                                                                                                                                                                                                                                                                                                                                                                               
08640350055360027DT67590675900000013300800102800000010680010287287283153900010749678060220230000001901215323000000000289269536759XXXXXX1494                         NY 4607AMDJO6A28P0602  N840000000019012          81CNCBD8666317293            817527    MD84000000019012 NDR549977133133   7B0C778AC2TC7CAB8949ACF  000000000+600450S00130    MDJ  10828                     000000000  1                0000000000000.00 0000000.00   0000000.00                             000000000000000                                                                                                                                                     01424  000000000000 0000000000000.00     00000 00000                  
08640360055360027DR6759067590000001330080010280000001067B0C778AC2TC7CAB8949ACF  U000000000000                                                                                                                                                                                                                                                                                                                                                                                                                                                                                                                                                                                                                               
08640370055360001G2675906759000000133008001028000000106866-6317293              GA           9 J               210                                      NNNN           210000000000000000000000000                        7                                          77133133                                                                                                                                                                                                                                                                                                                                                                                                                                               
08640380055360028DT67590675900000013300800102800000010180010224001193153900010749693060220230000000164115323000000000289269409451XXXXXX8043               2111111   NYV4 A7W583153504435099N8400000000016414C4R00    01DNCBD8666317293            902000    VS84000000001641 NDR549977133133   7F0D8E8A3DTDD45BEAAE2E6  000000000+                D CD 12109                     000000000  N000000000 498   0000000000000.00 0000000.00   0000000.00                             000000000000000                                                                                                                                                     01424 G000000001641 0000000000000.51     02500 01000                  
08640390055360028DR6759067590000001330080010280000001017F0D8E8A3DTDD45BEAAE2E6  Y000000001641                 P1                                                                                                                                                                                                                                                                                                                                                                                                                                                                                                                                                                                                            
08640400055360001P16759067590000001330080010280000001010000000000000000                             2000000000000000000000000              000000000000                    0000000000000000000000000                    000000000000                                                                                                                                                                                                                                                                                                                                                                                                                                                                                        
08640410055360002G2675906759000000133008001028000000101866-6317293              GA           9 C                00                                      NNNN   Y                      000000000000                                                                   77133133                                                                                                                                                                                                                                                                                                                                                                                                                                               
08640420055360029DT67590675900000013300800102800000010180010287287283153900010749702060220230000002153415323000000000289269546616XXXXXX4896       ME03KE06PT01      NY 4607AMCWE9678P0602  N840000000021534          81DNCBD8666317293            12592Z    MC84000000021534 NDR549977133133   C19C2FE5D9T47494011318F  000000000+600450S00130    MCW  00642                     000000000  N                0000000000000.00 0000000.00   0000000.00                             000000000000000                                                                                                                                                   U001424  000000000000 0000000000004.84     02200 01000                  
08640430055360029DR675906759000000133008001028000000101C19C2FE5D9T47494011318F  Y000000000000                                                                                                                                                                                                                                                                                                                                                                                                                                                                                                                                                                                                                               
08640440055360001G2675906759000000133008001028000000101866-6317293              GA           9 W               210                                      NNNN           210000000000000000000000000                        7                                          77133133                                                                                                                                                                                                                                                                                                                                                                                                                                               
08640450055360030DT67590675900000013300800102800000010680010287287283153900010749710060220230000001600315323000000000289269549460XXXXXX9974                         NY 4607AMCWHL3S8T0602  N840000000016003          81CNCBD8666317293            002613    MC84000000016003 NDR549977133133   5577DF3DFBTB011F87E03CA  000000000+600450S00130    MCW  00565                     000000000  N                0000000000000.00 0000000.00   0000000.00                             000000000000000                                                                                                                                                     01424  000000000000-0000000000002.80     01750 00000                  
08640460055360030DR6759067590000001330080010280000001065577DF3DFBTB011F87E03CA  R000000000000                                                                                                                                                                                                                                                                                                                                                                                                                                                                                                                                                                                                                               
08640470055360001G2675906759000000133008001028000000106866-6317293              GA           9 W               210                                      NNNN           210000000000000000000000000                        7                                          77133133                                                                                                                                                                                                                                                                                                                                                                                                                                               
08640480055360031DT67590675900000013300800102800000010180010287287283153900010749777060220230000002111215323000000000289269511413XXXXXX8425       ME03KE06MS02      NY 4607AMDJUFLZ8P0602  N840000000021112          81DNCBD8666317293            014107    MD84000000021112 NDR549977133133   A369BEDB3BT70780BA421FE  000000000+600450S00130    MDJ  10813                     000000000  1                0000000000000.00 0000000.00   0000000.00                             000000000000000                                                                                                                                                   U001424  000000000000 0000000000000.33     00050 02200                  
08640490055360031DR675906759000000133008001028000000101A369BEDB3BT70780BA421FE  Z000000000000                                                                                                                                                                                                                                                                                                                                                                                                                                                                                                                                                                                                                               
08640500055360001G2675906759000000133008001028000000101866-6317293              GA           9 J               210                                      NNNN           210000000000000000000000000                        7                                          77133133                                                                                                                                                                                                                                                                                                                                                                                                                                               
08640510055360032DT67590675900000013300800102800000010680010274001193153900010749789060220230000001987015323000000000289269425418XXXXXX3211               0000000   NYV4 07T303153599902677N840000000019870VPB485    01CNCBD8666317293            016874    VS84000000019870 NDR549977133133   F3DBAE3330T0274C8253A53  000000000+                C CC 00245                     000000000  N000000000 166   0000000000000.00 0000000.00   0000000.00                             000000000000000                                                                                                                                                     01424  000000019870-0000000000003.50     01760 00000                  
08640520055360032DR675906759000000133008001028000000106F3DBAE3330T0274C8253A53  R000000019870                 P1                                                                                                                                                                                                                                                                                                                                                                                                                                                                                                                                                                                                            
08640530055360001P16759067590000001330080010280000001060000000000000000                             2000000000000000000000000              000000000000                    0000000000000000000000000                    000000000000                                                                                                                                                                                                                                                                                                                                                                                                                                                                                        
08640540055360002G2675906759000000133008001028000000106866-6317293              GA           9 C                00                                      NNNN   Y                      000000000000                                                                   77133133                                                                                                                                                                                                                                                                                                                                                                                                                                               
08640550055360033DT67590675900000013300800102800000010180010224001193153900010749842060220230000001400815323000000000289269469451XXXXXX7432               2111111   NYV4 A7W463153662667097N840000000014008TKF500    01DNCBD8666317293            171678    VS84000000014008 NDR549977133133   1448172784TC59709030619  000000000+                C CC 12108                     000000000  N000000000 496   0000000000000.00 0000000.00   0000000.00                             000000000000000                                                                                                                                                     01424 G000000014008 0000000000002.97     02050 01000                  
08640560055360033DR6759067590000001330080010280000001011448172784TC59709030619  Y000000014008                 P1                                                                                                                                                                                                                                                                                                                                                                                                                                                                                                                                                                                                            
08640570055360001P16759067590000001330080010280000001010000000000000000                             2000000000000000000000000              000000000000                    0000000000000000000000000                    000000000000                                                                                                                                                                                                                                                                                                                                                                                                                                                                                        
08640580055360002G2675906759000000133008001028000000101866-6317293              GA           9 C                00                                      NNNN   Y                      000000000000                                                                   77133133                                                                                                                                                                                                                                                                                                                                                                                                                                               
08640590055360034DT67590675900000013300800102800000010180010224001193153900010749875060220230000001499115323000000000289269410039XXXXXX3672               2111111   NYV4 A7W383153681152339N840000000014991WS9X00    01DNCBD8666317293            66215C    VS84000000014991 NDR549977133133   66DC8E1962TD06208687EAE  000000000+                C CC 12108                     000000000  N000000000 496   0000000000000.00 0000000.00   0000000.00                             000000000000000                                                                                                                                                     01424 G000000014991 0000000000003.17     02050 01000                  
08640600055360034DR67590675900000013300800102800000010166DC8E1962TD06208687EAE  Y000000014991                 P1                                                                                                                                                                                                                                                                                                                                                                                                                                                                                                                                                                                                            
08640610055360001P16759067590000001330080010280000001010000000000000000                             2000000000000000000000000              000000000000                    0000000000000000000000000                    000000000000                                                                                                                                                                                                                                                                                                                                                                                                                                                                                        
08640620055360002G2675906759000000133008001028000000101866-6317293              GA           9 C                00                                      NNNN   Y                      000000000000                                                                   77133133                                                                                                                                                                                                                                                                                                                                                                                                                                               
08640630055360035DT67590675900000013300800102800000010180010287287283153900010749942060220230000001499115323000000000289269544927XXXXXX6412       ME03KE06MS02      NY 4607AMDJCR7OPZ0602  N840000000014991          81DNCBD8666317293            H68696    MD84000000014991 NDR549977133133   268BEAA86ET52E9F4F77EDA  000000000+600450S00130    MDJ  10813                     000000000  1                0000000000000.00 0000000.00   0000000.00                             000000000000000                                                                                                                                                   U001424  000000000000 0000000000000.29     00050 02200                  
08640640055360035DR675906759000000133008001028000000101268BEAA86ET52E9F4F77EDA  Y000000000000                                                                                                                                                                                                                                                                                                                                                                                                                                                                                                                                                                                                                               
08640650055360001G2675906759000000133008001028000000101866-6317293              GA           9 J               210                                      NNNN           210000000000000000000000000                        7                                          77133133                                                                                                                                                                                                                                                                                                                                                                                                                                               
08640660055360036DT67590675900000013300800102800000010180010287287283153900010749991060220230000001987015323000000000289269521333XXXXXX7445       ME03KE06MS02      NY 4607AMWEDL0ZSP0602  N840000000019870          81DNCBD8666317293            00264Y    MC84000000019870 NDR549977133133   FEBB243982T6CF000848DF4  000000000+600450S00130    MWE  00642                     000000000  N                0000000000000.00 0000000.00   0000000.00                             000000000000000                                                                                                                                                   U001424  000000000000 0000000000004.47     02200 01000                  
08640670055360036DR675906759000000133008001028000000101FEBB243982T6CF000848DF4  Y000000000000                                                                                                                                                                                                                                                                                                                                                                                                                                                                                                                                                                                                                               
08640680055360001G2675906759000000133008001028000000101866-6317293              GA           9 E               210                                      NNNN           210000000000000000000000000                        7                                          77133133                                                                                                                                                                                                                                                                                                                                                                                                                                               
08640690055360037DT67590675900000013300800102800000010180010287287283153900010750007060220230000002131115323000000000289269533248XXXXXX1149       ME03KE06MS02      NY 4607AMPVXFFYKV0602  N840000000021311          81DNCBD8666317293            DRHNNK    MD84000000021311 NDR549977133133   37E2DC819CT04F7D03C24E9  000000000+600450S00130    MPV  09899                     000000000  N                0000000000000.00 0000000.00   0000000.00                             000000000000000                                                                                                                                                   U001424  000000000000 0000000000003.95     01760 02000                  
08640700055360037DR67590675900000013300800102800000010137E2DC819CT04F7D03C24E9  Y000000000000                                                                                                                                                                                                                                                                                                                                                                                                                                                                                                                                                                                                                               
08640710055360001G2675906759000000133008001028000000101866-6317293              GA           9 V               210                                      NNNN           210000000000000000000000000                                                                   77133133                                                                                                                                                                                                                                                                                                                                                                                                                                               
08640720055360038BH6759067590000001427480010280000090170602202315323000000000428304    0000090001073977Y8001026759C06052023107                                                                                                                                                                                                                                                                                                                                                                                                                                                                                                                                                                                              
08640730055360039DT67590675900000014274800102800000010180010224001193153900010735106060120230000002141015323000000000428304402347XXXXXX0252               2111111   NYV4 A7W383149327079832N840000000021410WVJJ00    01DNCBD8666317293            030507    VD84000000021410 NDR549977145232   050E77A9FBT31BB0C1514CA  000000000+                F DF 10420                     000000000  Y000000000 338   0000000000000.00 0000000.00   0000000.00                             000000000000000                                                                                                                                                     01424 G000000021410 0000000000000.33     00050 02200                  
08640740055360039DR675906759000000142748001028000000101050E77A9FBT31BB0C1514CA  Y000000021410                 P1                                                                                                                                                                                                                                                                                                                                                                                                                                                                                                                                                                                                            
08640750055360001P16759067590000001427480010280000001010000000000000000                             2000000000000000000000000              000000000000                    0000000000000000000000000                    000000000000                                                                                                                                                                                                                                                                                                                                                                                                                                                                                        
08640760055360002G2675906759000000142748001028000000101866-6317293              GA           9 D                00                                      NNNN   N                      000000000000                                                                   77145232                                                                                                                                                                                                                                                                                                                                                                                                                                               
08640770055360040DT67590675900000014274800102800000010180010224001193153900010735114060120230000000742415323000000000428304449090XXXXXX3560               2111111   NYV4 A7W383149330095472N840000000007424CXD200    01DNCBD8666317293            041009    VD84000000007424 NDR549977145232   D2E61C8851T187D85204C20  000000000+                G DG 10352                     000000000  Y000000000 338   0000000000000.00 0000000.00   0000000.00                             000000000000000                                                                                                                                                     01424 G000000007424 0000000000000.26     00050 02200                  
08640780055360040DR675906759000000142748001028000000101D2E61C8851T187D85204C20  Y000000007424                 P1                                                                                                                                                                                                                                                                                                                                                                                                                                                                                                                                                                                                            
08640790055360001P16759067590000001427480010280000001010000000000000000                             1000000000420000000000000              000000000000                    0000000000000000000000000                    000000000000                                                                                                                                                                                                                                                                                                                                                                                                                                                                                        
08640800055360002G2675906759000000142748001028000000101866-6317293              GA           9 D                00                                      NNNN   N                      000000000000                                                                   77145232                                                                                                                                                                                                                                                                                                                                                                                                                                               
08640810055360041DT67590675900000014274800102800000010180010224001193153900010735148060120230000002118615323000000000428304411774XXXXXX6872               2111111   NYV4 A7W463149342184775N8400000000211865S2C00    01DNCBD8666317293            193501    VD84000000021186 NDR549977145232   2769390226TBFA84139CDC4  000000000+                F DF 10420                     000000000  Y000000000 338   0000000000000.00 0000000.00   0000000.00                             000000000000000                                                                                                                                                     01424 G000000021186 0000000000000.33     00050 02200                  
08640820055360041DR6759067590000001427480010280000001012769390226TBFA84139CDC4  Y000000021186                 P1                                                                                                                                                                                                                                                                                                                                                                                                                                                                                                                                                                                                            
08640830055360001P16759067590000001427480010280000001010000000000000000                             2000000000000000000000000              000000000000                    0000000000000000000000000                    000000000000                                                                                                                                                                                                                                                                                                                                                                                                                                                                                        
08640840055360002G2675906759000000142748001028000000101866-6317293              GA           9 D                00                                      NNNN   N                      000000000000                                                                   77145232                                                                                                                                                                                                                                                                                                                                                                                                                                               
08640850055360042DT67590675900000014274800102800000010180010287287283153900010735222060120230000002487015323000000000428304534368XXXXXX0760                         NY 4607AMDBIUZOY60529  N840000000024870          81DNCBD8666317293            764499    MD84000000024870 NDR549977145232   BD78BE956ETAED6EF6362F4  000000000+600450S00130    MDB  00062                     000000000  N                0000000000000.00 0000000.00   0000000.00                             000000000000000                                                                                                                                                   U001424  000000000000 0000000000006.69     02650 01000                  
08640860055360042DR675906759000000142748001028000000101BD78BE956ETAED6EF6362F4  N000000000000                 P1                                                                                                                                                                                                                                                                                                                                                                                                                                                                                                                                                                                                            
08640870055360001P1675906759000000142748001028000000101                                                          000000000000          8000            871584967                                                                                                                                                                                                                                                                                                                                                                                                                                                                                                                                                            
08640880055360002G2675906759000000142748001028000000101866-6317293              GA           9 B               210                  871584967           YNNN           210000000000000000000000000                        7                                          77145232                                                                                                                                                                                                                                                                                                                                                                                                                                               
08640890055360043DT67590675900000014274800102800000010180010224001193153900010735411060120230000000742415323000000000428304473310XXXXXX4677               2111111   NYV4 A7W303149759057444N8400000000074246KQT00    01DNCBD8666317293            166454    VD84000000007424 NDR549977145232   6B10DFC2DET226B6C6F0E5B  000000000+                F DF 10420                     000000000  Y000000000 338   0000000000000.00 0000000.00   0000000.00                             000000000000000                                                                                                                                                     01424 G000000007424 0000000000000.26     00050 02200                  
08640900055360043DR6759067590000001427480010280000001016B10DFC2DET226B6C6F0E5B  Y000000007424                 P1                                                                                                                                                                                                                                                                                                                                                                                                                                                                                                                                                                                                            
