00014240417840002BH675906759000000161968001028000009017071820231992300000000003637601970000090001976876N8001026759D07192023097                                                                                                                                                                                                                                                                                                                                                                                                                                                                                                                                                                                              
00014250417840003DT67590675900000016196800102800000010680010287287283199900019768758071820230000001611519923000000000036376517805XXXXXX8067                         NN 4607AMPLNBISLK0718  N840000000016115          81CNGREEN OTTER LLC          0060690197MC84000000016115 NDR549977424386   B4F521DA7ET3009AAB5D028  000000000+600450S00130    MPL  00000                     000000000  N                0000000000000.00 0000000.00   0000000.00             000000000016115C000000000000000                                                                                                                                                     01424  000000000000 0000000000000.00     00000 00000                  
00014260417840003DR675906759000000161968001028000000106B4F521DA7ET3009AAB5D028  Z000000000000                                                                                                                                                                                                                                                                                                                                                                                                                                                                                                                                                                                                                               
00014270417840001G2675906759000000161968001028000000106866-6317293              GA           9 L               210                                      NNNN           210000000000000000000000000                        7                                          77424386                                                                                                                                                                                                                                                                                                                                                                                                                                               
00014280417840004DT67590675900000016196800102800000010680010287287283199900019768766071820230000002026119923000000000036376515676XXXXXX0131                         NN 4607AMWEWNFFNS0718  N840000000020261          81CNGREEN OTTER LLC          0913170197MC84000000020261 NDR549977424386   4CAE33D6D7T50B6CA45531D  000000000+600450S00130    MWE  00000                     000000000  N                0000000000000.00 0000000.00   0000000.00             000000000020261C000000000000000                                                                                                                                                     01424  000000000000 0000000000000.00     00000 00000                  
00014290417840004DR6759067590000001619680010280000001064CAE33D6D7T50B6CA45531D  Z000000000000                                                                                                                                                                                                                                                                                                                                                                                                                                                                                                                                                                                                                               
00014300417840001G2675906759000000161968001028000000106866-6317293              GA           9 E               210                                      NNNN           210000000000000000000000000                        7                                          77424386                                                                                                                                                                                                                                                                                                                                                                                                                                               
00014310417840005BH6759067590000002092580011280000090170718202319923000000000005000    0000090001560128Y8001126759C07192023056                                                                                                                                                                                                                                                                                                                                                                                                                                                                                                                                                                                              
00014320417840006DT67590675900000020925800112800000010180011224001193199900015601283071820230000000500019923000000000005000425839XXXXXX1144               2111111   NYV4 A7W303199824397707N840000000005000BZ6900    01DNJ K DISTRIBUTION INC     031127    VD84000000005000 NDR549977712156   8542959050               000000000+                G DG 10352                     000000000  Y000000000 338   0000000000000.00 0000000.00   0000000.00                             000000000000000                                                                                                                                                     01424 G000000005000 0000000000000.25     00050 02200                  
00014330417840006DR6759067590000002092580011280000001018542959050               Z000000005000                 P1                                                                                                                                                                                                                                                                                                                                                                                                                                                                                                                                                                                                            
00014340417840001P16759067590000002092580011280000001010000000000000000                             2000000000000000000000000              000000000000                    0000000000000000000000000                    000000000000                                                                                                                                                                                                                                                                                                                                                                                                                                                                                        
00014350417840002G2675906759000000209258001128000000101203-8159817              CT           9 D                00                                      NNNN   N                      000000000000                                                                   77712156                                                                                                                                                                                                                                                                                                                                                                                                                                               
00014360417840007BH6759067590000003377980013880000090170718202319923000000000009086    0000090001300004Y8001386759C07192023030                                                                                                                                                                                                                                                                                                                                                                                                                                                                                                                                                                                              
00014370417840008DT67590675900000033779800138800000010180013877287283199900013000019071820230000000148819923000000000009086534961XXXXXX6531       MS02WI09          NY 1 0 AMDSCMMULR0718  N840000000001488          07DNSLOW PUFFS LLC           20722Z    MD84000000001488 N  599378415682                            000000000+M10101M0034C    MDS  10815                     000000000  1                0000000000000.00 0000000.00   0000000.00                             000000000000000                                                                                                                                                   A101424  000000000000 0000000000000.23     00050 02200                  
00014380417840001E167590675900000033779800138800000010100000848020F 00000000000.00404040404040404040404040404040404040404040404040400114A14003020000000000000000000000FF00000000000000000000000000  000008401B800000008001230718CCBB6567094D0D2359DE4E48404040400840A0000000041010000000000000000000404040404040404040404040404040404040403F40404040 000000014.88 000000000.003F00020000000000000000    80                                                                                                                                                                                                                                                                                                                  
00014390417840002G2675906759000000337798001388000000101HAMDEN                   CT           5 S                                                        NNNN              000000000000000000000000       03               C                                          78415682                                                                                                                                                                                                                                                                                                                                                                                                                                               
00014400417840009DT67590675900000033779800138800000010180013877287283199900013000027071820230000000143319923000000000009086559758XXXXXX7949       MS02WI09          NY 2 0 AMPVRR6I5J0718  N840000000001433          05DNSLOW PUFFS LLC           ATFBMU    MD84000000001433 N  599378415682                            000000000+M10101C1334C    MPV  11964                     000000000  N                0000000000000.00 0000000.00   0000000.00                             000000000000000                                                                                                                                                     01424  000000000000 0000000000000.31     01150 01500                  
00014410417840001E167590675900000033779800138800000010100E0F8C8003C 00000000000.00404040404040404040404040404040404040404040404040400110A00001220000000000000000000000FF00000000000000000000000000  0000084018008000048000230718DA21BA30E0C2741EC56965E1404040400840A0000000041010000000000000000000BF5D5F55A7F0801500100000000000004040400240404040 000000014.33 000000000.000203000000000000000000    80                                                                                                                                                                                                                                                                                                                  
00014420417840002G2675906759000000337798001388000000101HAMDEN                   CT           5 V                                                        NNNN              000000000000000000000000                                                                   78415682                                                                                                                                                                                                                                                                                                                                                                                                                                               
00014430417840010DT67590675900000033779800138800000010180013824001193199900013000033071820230000000191319923000000000009086411398XXXXXX7069       VS11    0001111   NYV1 A E383199692481155N840000000001913L44Q00    07DNSLOW PUFFS LLC           06933B    VS84000000001913 N  599378415682                            000000000+                B CB 12111                     000000000  N000000000 495   0000000000000.00 0000000.00   0000000.00                             000000000000000                                                                                                                                                     01424 A000000000000 0000000000000.42     01650 01000                  
00014440417840001E167590675900000033779800138800000010100E068C80049 00000000000.00404040404040404040404040404040404040404040404040401F420132A00000000010030273000000004000000000000000000000000000  00000840006000000000002307187D27962BDF87855843BF1E82404040400840A000000003101000000000000000000003C3165E0086000000000000000000004040404040404040 000000019.13 000000000.004040400000000000000000    80                                                                                                                                                                                                                                                                                                                  
00014450417840002G2675906759000000337798001388000000101HAMDEN                   CT           5 C                00                                      NNNN00 N 00                   000000000000                                                                   78415682                                                                                                                                                                                                                                                                                                                                                                                                                                               
00014460417840011DT67590675900000033779800138800000010180013824001193199900013000041071820230000000425219923000000000009086453506XXXXXX1578       VS11    0001111   NYV1 A E383200068375542N840000000004252S2MZ00    07DNSLOW PUFFS LLC           H09684    VD84000000004252 N  599378415682                            000000000+                F DF 10433                     000000000  Y000000000 338   0000000000000.00 0000000.00   0000000.00                             000000000000000                                                                                                                                                     01424 A000000000000 0000000000000.24     00050 02200                  
00014470417840001E167590675900000033779800138800000010100E068C8000D 00000000000.004040404040404040404040404040404040404040404040404006011203A00000000000000000000000404040404040404040404040404040  00000840200000000000002307183DBB3C4F3EE7B291A1D33856404040400840A0000000031010000000000000000000404040404040404040404040404040404040404040404040 000000042.52 000000000.004040400000000000000000    80                                                                                                                                                                                                                                                                                                                  
00014480417840002G2675906759000000337798001388000000101HAMDEN                   CT           5 D                00                                      NNNN00 N 00                   000000000000                                                                   78415682                                                                                                                                                                                                                                                                                                                                                                                                                                               
00014490417840012BH6759067590000002604780012480000090170718202319923000000000103980    0000090001510026Y8001246759C07192023051                                                                                                                                                                                                                                                                                                                                                                                                                                                                                                                                                                                              
00014500417840013DT67590675900000026047800124800000010180012424001193199900015100013071820230000000234319923000000000103980432739XXXXXX6744       VS11    0001111   NYV1 A E303199580102907N8400000000023434CKL00    05DNHPPYC                    896323    VD84000000002343 N  599978202445                            000000000+                F DF 10433                     000000000  Y000000000 338   0000000000000.00 0000000.00   0000000.00                             000000000000000                                                                                                                                                     01424 A000000000000 0000000000000.23     00050 02200                  
00014510417840001E167590675900000026047800124800000010100E0F8C8007E 00000000000.004040404040404040404040404040404040404040404040404006011203A02000000000000000000000404040404040404040404040404040  0000084018008080008000230718EA6FF4489294696B92A75294404040400840A0000000031010000000000000000000B7F9C72FAC39694E30300000000000004040401E40404040 000000023.43 000000000.001E00000000000000000000    80                                                                                                                                                                                                                                                                                                                  
00014520417840002G2675906759000000260478001248000000101CHARLOTTE                NC           5 D                00                                      NNNN00 N 00                   000000000000                                                                   78202445                                                                                                                                                                                                                                                                                                                                                                                                                                               
00014530417840014DT67590675900000026047800124800000010180012424001193199900015100021071820230000001340519923000000000103980414720XXXXXX0167       VS11    0001111   NYV1 A E463199584222326N840000000013405TF3Q00    05DNHPPYC                    00288C    VS84000000013405 N  599978202445                            000000000+                C CC 12112                     000000000  N000000000 497   0000000000000.00 0000000.00   0000000.00                             000000000000000                                                                                                                                                     01424 A000000000000 0000000000002.31     01650 01000                  
00014540417840001E167590675900000026047800124800000010100E0F8C8010B 00000000000.004040404040404040404040404040404040404040404040404006021203A0A002000000000000000000404040404040404040404040404040  00010840380000800080002307189A78AF399B5738A17C5BABD5404040400840A000000003101000000000000000000079C2F3E50082000000000000000000004040401E40404040 000000134.05 000000000.001E00000000000000000000    80                                                                                                                                                                                                                                                                                                                  
00014550417840002G2675906759000000260478001248000000101CHARLOTTE                NC           5 C                00                                      NNNN00 Y 00                   000000000000                                                                   78202445                                                                                                                                                                                                                                                                                                                                                                                                                                               
00014560417840015DT67590675900000026047800124800000010180012424001193199900015100039071820230000000536119923000000000103980443047XXXXXX5579       VS11    0001111   NYV1 A E463199637264602N8400000000053612B4F00    05DNHPPYC                    883867    VD84000000005361 N  599978202445                            000000000+                F DF 10433                     000000000  Y000000000 338   0000000000000.00 0000000.00   0000000.00                             000000000000000                                                                                                                                                     01424 A000000000000 0000000000000.25     00050 02200                  
00014570417840001E167590675900000026047800124800000010100E0F8C800FC 00000000000.004040404040404040404040404040404040404040404040404006011203A02000000000000000000000404040404040404040404040404040  0002084018008080008000230718DA5854E8D67D4DC897869CE4404040400840A000000003101000000000000000000065D428EA0082000000000000000000004040401E40404040 000000053.61 000000000.001E00000000000000000000    80                                                                                                                                                                                                                                                                                                                  
00014580417840002G2675906759000000260478001248000000101CHARLOTTE                NC           5 D                00                                      NNNN00 N 00                   000000000000                                                                   78202445                                                                                                                                                                                                                                                                                                                                                                                                                                               
00014590417840016DT67590675900000026047800124800000010180012424001193199900015100047071820230000000096519923000000000103980448210XXXXXX1927       VK04VS111111111   NYV1 A E463199644505247N840000000000965G3LW00    05DNHPPYC                    833098    VD84000000000965 N  599978202445                            000000000+                F DF 00451                     000000000  N000000000 214   0000000000000.00 0000000.00   0000000.00                             000000000000000                                                                                                                                                     01424 F000000000000 0000000000000.19     01550 00400                  
00014600417840001E167590675900000026047800124800000010100E0F8C8052A 00000000000.004040404040404040404040404040404040404040404040404006011203A08000000000000000000000404040404040404040404040404040  00000840180080800080002307189293DD482C10D04083992F9A404040400840A0000000031010000000000000000000F223B25F0382000000000000000000004040401E40404040 000000009.65 000000000.001E00000000000000000000    80                                                                                                                                                                                                                                                                                                                  
00014610417840002G2675906759000000260478001248000000101CHARLOTTE                NC           5 D                00                                      NNNN00 N 00                   000000000000                                                                   78202445                                                                                                                                                                                                                                                                                                                                                                                                                                               
00014620417840017DT67590675900000026047800124800000010180012424001193199900015100054071820230000000337719923000000000103980466188XXXXXX4814       VS11    0001111   NYV1 A E383199655645704N840000000003377VM9J00    05DNHPPYC                    042403    VD84000000003377 N  599978202445                            000000000+                F DF 10433                     000000000  Y000000000 338   0000000000000.00 0000000.00   0000000.00                             000000000000000                                                                                                                                                     01424 A000000000000 0000000000000.24     00050 02200                  
00014630417840001E167590675900000026047800124800000010100E0F8C80102 00000000000.004040404040404040404040404040404040404040404040404006011203A0A000000000000000000000404040404040404040404040404040  0000084018008080008000230718912A4CAAD894EC8C15B43A0D404040400840A00000000310100000000000000000008442C05855A6220C30300000000000004040401E40404040 000000033.77 000000000.001E00000000000000000000    80                                                                                                                                                                                                                                                                                                                  
00014640417840002G2675906759000000260478001248000000101CHARLOTTE                NC           5 D                00                                      NNNN00 N 00                   000000000000                                                                   78202445                                                                                                                                                                                                                                                                                                                                                                                                                                               
00014650417840018DT67590675900000026047800124800000010180012424001193199900015100062071820230000000241219923000000000103980481566XXXXXX0558       VS11    0001111   NYV1 A E463199656672986N84000000000241273RV00    07DNHPPYC                    H33890    VD84000000002412 N  599978202445                            000000000+                F DF 10433                     000000000  Y000000000 338   0000000000000.00 0000000.00   0000000.00                             000000000000000                                                                                                                                                     01424 A000000000000 0000000000000.23     00050 02200                  
00014660417840001E167590675900000026047800124800000010100E068C8001D 00000000000.00404040404040404040404040404040404040404040404040401F4AFF31A00000000010030273000000004000000000000000000000000000  0000084000400000000000230718C6F837A50A56D09252F55AEF404040400840A00000000310100000000000000000001BEA6935841BA9A730300000000000004040404040404040 000000024.12 000000000.004040400000000000000000    80                                                                                                                                                                                                                                                                                                                  
00014670417840002G2675906759000000260478001248000000101CHARLOTTE                NC           5 D                00                                      NNNN00 N 00                   000000000000                                                                   78202445                                                                                                                                                                                                                                                                                                                                                                                                                                               
00014680417840019DT67590675900000026047800124800000010180012424001193199900015100070071820230000000788219923000000000103980473703XXXXXX7336       VS11    0001111   NYV1 A E383199689172002N840000000007882F2RW00    05DNHPPYC                    048480    VD84000000007882 N  599978202445                            000000000+                F DF 10433                     000000000  Y000000000 338   0000000000000.00 0000000.00   0000000.00                             000000000000000                                                                                                                                                     01424 A000000000000 0000000000000.26     00050 02200                  
00014690417840001E167590675900000026047800124800000010100E0F8C804D3 00000000000.004040404040404040404040404040404040404040404040404006061203A0A000000000000000000000404040404040404040404040404040  0000084018008080008000230718EE36A6FD74BD7792E3968B5D404040400840A0000000031010000000000000000000E07060200070503020200000000000004040401E40404040 000000078.82 000000000.001E00000000000000000000    80                                                                                                                                                                                                                                                                                                                  
00014700417840002G2675906759000000260478001248000000101CHARLOTTE                NC           5 D                00                                      NNNN00 N 00                   000000000000                                                                   78202445                                                                                                                                                                                                                                                                                                                                                                                                                                               
00014710417840020DT67590675900000026047800124800000010180012424001193199900015100088071820230000000696919923000000000103980473703XXXXXX7775       VS11    0001111   NYV1 A E583199730882835N8400000000069694MMC00    05DNHPPYC                    020660    VD84000000006969 N  599978202445                            000000000+                F DF 10433                     000000000  Y000000000 338   0000000000000.00 0000000.00   0000000.00                             000000000000000                                                                                                                                                     01424 A000000000000 0000000000000.25     00050 02200                  
00014720417840001E167590675900000026047800124800000010100E0F8C80304 00000000000.004040404040404040404040404040404040404040404040404006061203A0A000000000000000000000404040404040404040404040404040  000008401800808000800023071826341BFDDB6E6B24D8C59DB4404040400840A0000000031010000000000000000000A0E0B0206060001020200000000000004040401E40404040 000000069.69 000000000.001E00000000000000000000    80                                                                                                                                                                                                                                                                                                                  
00014730417840002G2675906759000000260478001248000000101CHARLOTTE                NC           5 D                00                                      NNNN00 N 00                   000000000000                                                                   78202445                                                                                                                                                                                                                                                                                                                                                                                                                                               
00014740417840021DT67590675900000026047800124800000010180012473011003199900015100092071820230000000536119923000000000103980376777XXXXX1000                          NY 1 0 N008414520483061N840000000005361          05DNHPPYC LLC                804515    AM84000000005361 Y  599978202445                            000000000+51010155434C 258     11261                     000000000                   0000000000000.00 0000000.00   0000000.00                             000000000000000 61248972086759675900000026047 HPPYC LLC                401 HAWTHORNE LN 110263  9802368861      28204     TORI@SMOKEMFG.COM                         01324  000000000000 0000000000000.96     01600 00000                  
00014750417840001E167590675900000026047800124800000010100E0F8C80070 00000000000.004040404040404040404040404040404040404040404040404006550103A02002000000000000000000404040404040404040404040404040  000008403C00000000800023071881351CEB393C93772D368B9E404040400840A0000000250108010000000000000000FD64C428728E564C30300000000000004040401E40404040 000000053.61 000000000.001E03000000000000000000    80                                                                                                                                                                                                                                                                                                                  
00014760417840002G2675906759000000260478001248000000101CHARLOTTE                NC           5                  00                                      NNNN                          000000000000                                                                   78202445                                                                                                                                                                                                                                                                                                                                                                                                                                               
00014770417840022DT67590675900000026047800124800000010180012424001193199900015100104071820230000000308919923000000000103980444796XXXXXX8634       VS11    0001111   NYV1 A E463199758983114N840000000003089LSKR00    05DNHPPYC                    018119    VS84000000003089 N  599978202445                            000000000+                A CA 12110                     000000000  N000000000 493   0000000000000.00 0000000.00   0000000.00                             000000000000000                                                                                                                                                     01424 A000000000000 0000000000000.57     01510 01000                  
00014780417840001E167590675900000026047800124800000010100E0F8C80011 00000000000.004040404040404040404040404040404040404040404040404006031203A0A000000000000000000000404040404040404040404040404040  0001084018008080008000230718B44CC064423F42F3D04DF6F5404040400840A0000000031010000000000000000000DC6F33760082000000000000000000004040401E40404040 000000030.89 000000000.001E00000000000000000000    80                                                                                                                                                                                                                                                                                                                  
00014790417840002G2675906759000000260478001248000000101CHARLOTTE                NC           5 C                00                                      NNNN00 N 00                   000000000000                                                                   78202445                                                                                                                                                                                                                                                                                                                                                                                                                                               
00014800417840023DT67590675900000026047800124800000010180012477287283199900015100114071820230000000130219923000000000103980534996XXXXXX9331       MS02WI09          NY 1 0 AMDJPDW0PV0718  N840000000001302          07DNHPPYC                    060548    MD84000000001302 N  599978202445                            000000000+M10101M0034C    MDJ  10815                     000000000  1                0000000000000.00 0000000.00   0000000.00                             000000000000000                                                                                                                                                   A101424  000000000000 0000000000000.23     00050 02200                  
00014810417840001E1675906759000000260478001248000000101000008480060 00000000000.00404040404040404040404040404040404040404040404040400114A14003020000000000000000000000FF00000000000000000000000000  000008401B80000000800123071883E1901910D35A314DD890F3404040400840A0000000041010000000000000000000404040404040404040404040404040404040403F40404040 000000013.02 000000000.003F00020000000000000000    80                                                                                                                                                                                                                                                                                                                  
00014820417840002G2675906759000000260478001248000000101CHARLOTTE                NC           5 J                                                        NNNN              000000000000000000000000       03               C                                          78202445                                                                                                                                                                                                                                                                                                                                                                                                                                               
00014830417840024DT67590675900000026047800124800000010180012424001193199900015100120071820230000000156419923000000000103980430594XXXXXX7938       VS11    0001111   NYV1 A E583199760024396N840000000001564RTNB00    05DNHPPYC                    110263    VD84000000001564 N  599978202445                            000000000+                F DF 10433                     000000000  Y000000000 338   0000000000000.00 0000000.00   0000000.00                             000000000000000                                                                                                                                                     01424 A000000000000 0000000000000.23     00050 02200                  
00014840417840001E167590675900000026047800124800000010100E0F8C8033E 00000000000.004040404040404040404040404040404040404040404040404006021203A08000000000000000000000404040404040404040404040404040  0000084018008080008000230718653D218EDED8D0629DAFF250404040400840A0000000031010000000000000000000608090D00080000020200000000000004040401E40404040 000000015.64 000000000.001E00000000000000000000    80                                                                                                                                                                                                                                                                                                                  
00014850417840002G2675906759000000260478001248000000101CHARLOTTE                NC           5 D                00                                      NNNN00 N 00                   000000000000                                                                   78202445                                                                                                                                                                                                                                                                                                                                                                                                                                               
00014860417840025DT67590675900000026047800124800000010180012424001193199900015100138071820230000000375419923000000000103980443043XXXXXX0288       VS11    0001111   NYV1 A E463199764247704N840000000003754TXW200    05DNHPPYC                    408918    VD84000000003754 N  599978202445                            000000000+                F DF 10433                     000000000  Y000000000 338   0000000000000.00 0000000.00   0000000.00                             000000000000000                                                                                                                                                     01424 A000000000000 0000000000000.24     00050 02200                  
00014870417840001E167590675900000026047800124800000010100E0F8C804B7 00000000000.004040404040404040404040404040404040404040404040404006011203A0A000000000000000000000404040404040404040404040404040  0001084018008080008000230718590E43D9B5B433B7DAADCB78404040400840A0000000031010000000000000000000C47A21A20082000000000000000000004040401E40404040 000000037.54 000000000.001E00000000000000000000    80                                                                                                                                                                                                                                                                                                                  
00014880417840002G2675906759000000260478001248000000101CHARLOTTE                NC           5 D                00                                      NNNN00 N 00                   000000000000                                                                   78202445                                                                                                                                                                                                                                                                                                                                                                                                                                               
00014890417840026DT67590675900000026047800124800000010180012424001193199900015100146071820230000000643519923000000000103980417903XXXXXX0284       VS11    0001111   NYV1 A E303199776801912N840000000006435FXNW00    05DNHPPYC                    618143    VS84000000006435 N  599978202445                            000000000+                D CD 12113                     000000000  N000000000 499   0000000000000.00 0000000.00   0000000.00                             000000000000000                                                                                                                                                     01424 A000000000000 0000000000001.45     02100 01000                  
00014900417840001E167590675900000026047800124800000010100E0F8C8040B 00000000000.004040404040404040404040404040404040404040404040404006011203A0A000000000000000000000404040404040404040404040404040  0001084018008080008000230718638F029CEF27D87472766321404040400840A00000000310100000000000000000000BDBE0F5A43AC70930300000000000004040401E40404040 000000064.35 000000000.001E00000000000000000000    80                                                                                                                                                                                                                                                                                                                  
00014910417840002G2675906759000000260478001248000000101CHARLOTTE                NC           5 C                00                                      NNNN00 Y 00                   000000000000                                                                   78202445                                                                                                                                                                                                                                                                                                                                                                                                                                               
00014920417840027DT67590675900000026047800124800000010180012477287283199900015100155071820230000000260419923000000000103980542543XXXXXX6347       MS02WI09          NY 1 0 AMDH3D7X050718  N840000000002604          05DNHPPYC                    017900    MD84000000002604 N  599978202445                            000000000+M10101C5434C    MDH  00402                     000000000  N                0000000000000.00 0000000.00   0000000.00                             000000000000000                                                                                                                                                   B101424  000000000000 0000000000000.42     01050 01500                  
00014930417840001E167590675900000026047800124800000010100E0F8C801EE 00000000000.00404040404040404040404040404040404040404040404040400110A04003220000000000000000000000FF00000000000000000000000000  0000084039000000008000230718B1736554BEF35C94F94C4E04404040400840A000000004101000000000000000000026CB245F153C19FC00120000000000004040401E40404040 000000026.04 000000000.001E03000000000000000000    80                                                                                                                                                                                                                                                                                                                  
00014940417840002G2675906759000000260478001248000000101CHARLOTTE                NC           5 H                                                        NNNN              000000000000000000000000                        7                                          78202445                                                                                                                                                                                                                                                                                                                                                                                                                                               
00014950417840028DT67590675900000026047800124800000010180012424001193199900015100161071820230000000375419923000000000103980400022XXXXXX1356       VS11    0001111   NYV1 A E583199809776857N840000000003754KFTK00    07DNHPPYC                    015500    VD84000000003754 N  599978202445                            000000000+                F DF 10433                     000000000  Y000000000 338   0000000000000.00 0000000.00   0000000.00                             000000000000000                                                                                                                                                     01424 A000000000000 0000000000000.24     00050 02200                  
00014960417840001E167590675900000026047800124800000010100E068C800AE 00000000000.004040404040404040404040404040404040404040404040404006021203A00000000000000000000000404040404040404040404040404040  0000084000000000000000230718C1BFE30F92CC8973A400EB57404040400840A0000000031010000000000000000000404040404040404040404040404040404040404040404040 000000037.54 000000000.004040400000000000000000    80                                                                                                                                                                                                                                                                                                                  
00014970417840002G2675906759000000260478001248000000101CHARLOTTE                NC           5 D                00                                      NNNN00 N 00                   000000000000                                                                   78202445                                                                                                                                                                                                                                                                                                                                                                                                                                               
00014980417840029DT67590675900000026047800124800000010180012424001193199900015100179071820230000000375419923000000000103980486776XXXXXX8839       VS11    0001111   NYV1 A E303199816303314N840000000003754528200    07DNHPPYC                    114104    VD84000000003754 N  599978202445                            000000000+                F DF 10433                     000000000  Y000000000 338   0000000000000.00 0000000.00   0000000.00                             000000000000000                                                                                                                                                     01424 A000000000000 0000000000000.24     00050 02200                  
00014990417840001E167590675900000026047800124800000010100E068C80088 00000000000.00404040404040404040404040404040404040404040404040401F420132A00000000010030273000000004000000000000000000000000000  00000840006000000000002307185D7E1728D9E8B69FCF24540F404040400840A00000000310100000000000000000006C289FA80086000000000000000000004040404040404040 000000037.54 000000000.004040400000000000000000    80                                                                                                                                                                                                                                                                                                                  
00015000417840002G2675906759000000260478001248000000101CHARLOTTE                NC           5 D                00                                      NNNN00 N 00                   000000000000                                                                   78202445                                                                                                                                                                                                                                                                                                                                                                                                                                               
00015010417840030DT67590675900000026047800124800000010180012424001193199900015100187071820230000000160819923000000000103980446540XXXXXX7740       VS11    0001111   NYV1 A E303199845639741N840000000001608RF3J00    07DNHPPYC                    018407    VS84000000001608 N  599978202445                            000000000+                D CD 12113                     000000000  N000000000 499   0000000000000.00 0000000.00   0000000.00                             000000000000000                                                                                                                                                     01424 A000000000000 0000000000000.44     02100 01000                  
00015020417840001E167590675900000026047800124800000010100E068C80271 00000000000.004040404040404040404040404040404040404040404040404006011203A00000000000000000000000404040404040404040404040404040  000108402000000000000023071899DD9BB25E07A24DD5691524404040400840A0000000031010000000000000000000404040404040404040404040404040404040404040404040 000000016.08 000000000.004040400000000000000000    80                                                                                                                                                                                                                                                                                                                  
00015030417840002G2675906759000000260478001248000000101CHARLOTTE                NC           5 C                00                                      NNNN00 Y 00                   000000000000                                                                   78202445                                                                                                                                                                                                                                                                                                                                                                                                                                               
00015040417840031DT67590675900000026047800124800000010180012477287283199900015100197071820230000000268019923000000000103980515676XXXXXX6557       MS02WI09          NY 1 0 AMWEB0NT060718  N840000000002680          07DNHPPYC                    02344Z    MC84000000002680 N  599978202445                            000000000+M10101M0034C    MWE  00739                     000000000  N                0000000000000.00 0000000.00   0000000.00                             000000000000000                                                                                                                                                   B101424  000000000000 0000000000000.72     02300 01000                  
00015050417840001E1675906759000000260478001248000000101000008480027 00000000000.00404040404040404040404040404040404040404040404040400110A04001220000000000000000000000FF00000000000000000000000000  00010840198000000080012307182E71BBA1C798D39FC725276B404040400840A0000000041010000000000000000000404040404040404040404040404040404040401F40404040 000000026.80 000000000.001F03020000000000000000    80                                                                                                                                                                                                                                                                                                                  
00015060417840002G2675906759000000260478001248000000101CHARLOTTE                NC           5 E                                                        NNNN              000000000000000000000000       03               7                                          78202445                                                                                                                                                                                                                                                                                                                                                                                                                                               
00015070417840032DT67590675900000026047800124800000010180012477287283199900015100205071820230000000375419923000000000103980517805XXXXXX7979       MS02WI09          NY 1 0 AMPL5ES8050718  N840000000003754          05DNHPPYC                    06721B    MC84000000003754 N  599978202445                            000000000+M10101C5434C    MPL  00353                     000000000  N                0000000000000.00 0000000.00   0000000.00                             000000000000000                                                                                                                                                   B101424  000000000000 0000000000000.78     01800 01000                  
00015080417840001E167590675900000026047800124800000010100E0F8C80009 00000000000.00404040404040404040404040404040404040404040404040400110A04001220000000000000000000000FF00000000000000000000000000  0001084039000000008000230718E944FF312D4EA4F83E5303D3404040400840A000000004101000000000000000000051ED87E5CE68FC5200120000000000004040401E40404040 000000037.54 000000000.001E03000000000000000000    80                                                                                                                                                                                                                                                                                                                  
00015090417840002G2675906759000000260478001248000000101CHARLOTTE                NC           5 L                                                        NNNN              000000000000000000000000                        7                                          78202445                                                                                                                                                                                                                                                                                                                                                                                                                                               
00015100417840033DT67590675900000026047800124800000010180012476509753199900015100219071820230000000965119923000000000103980601100XXXXXX3357   BA50                  NY41 0 N803171800655595N840000000009651    00    05DNHPPYC                    01801R    DS84000000009651 N  599978202445050                         000000000+0000004910H00   DCCDI01000502093  201425000000 000000000  0          112   0000000000000.00 0000000.00   0000000.00                             000000000000000                                                                                                                                                     01424  000000000000 0000000000001.76     01720 01000                  
00015110417840001E167590675900000026047800124800000010100E0F8C8004D 00000000000.00404040404040404040404040404040404040404040404040400105A080038000001E03000000000000000000000000000000000000000000  000108407800000000800023071826E415833302D634A6276E19404040400840A0000001523010000000000000000000849FF6B7FD4B9B0800320000000000004040401E40404040 000000096.51 000000000.001E03000000000000000000    80                                                                                                                                                                                                                                                                                                                  
00015120417840002G2675906759000000260478001248000000101CHARLOTTE                NC           5 C                00                                      NNNN                          000000000000                         00000650975601179750000535                78202445                                                                                                                                                                                                                                                                                                                                                                                                                                               
00015130417840034DT67590675900000026047800124800000010180012424001193199900015100229071820230000000160819923000000000103980466188XXXXXX0242       VS11    0001111   NYV1 A E383200012554824N8400000000016089GL200    05DNHPPYC                    067159    VD84000000001608 N  599978202445                            000000000+                F DF 10433                     000000000  Y000000000 338   0000000000000.00 0000000.00   0000000.00                             000000000000000                                                                                                                                                     01424 A000000000000 0000000000000.23     00050 02200                  
00015140417840001E167590675900000026047800124800000010100E0F8C8001E 00000000000.004040404040404040404040404040404040404040404040404006011203A0B000000000000000000000404040404040404040404040404040  00000840180080800080002307185C335B26FE72C08E0FD46E9E404040400840A0000000031010000000000000000000C71AC176BB1697A430300000000000004040401E40404040 000000016.08 000000000.001E00000000000000000000    80                                                                                                                                                                                                                                                                                                                  
00015150417840002G2675906759000000260478001248000000101CHARLOTTE                NC           5 D                00                                      NNNN00 N 00                   000000000000                                                                   78202445                                                                                                                                                                                                                                                                                                                                                                                                                                               
00015160417840035DT67590675900000026047800124800000010180012424001193199900015100237071820230000000386019923000000000103980427178XXXXXX4417       VS11    0001111   NYV1 A E463200018836452N840000000003860P94800    05DNHPPYC                    112070    VD84000000003860 N  599978202445                            000000000+                F DF 10433                     000000000  Y000000000 338   0000000000000.00 0000000.00   0000000.00                             000000000000000                                                                                                                                                     01424 A000000000000 0000000000000.24     00050 02200                  
00015170417840001E167590675900000026047800124800000010100E0F8C804F3 00000000000.004040404040404040404040404040404040404040404040404006011203A08000000000000000000000404040404040404040404040404040  0001084018008080008000230718AC88BDD9E1D3E430AAB62EE5404040400840A0000000031010000000000000000000D08A1ACB0082000000000000000000004040401E40404040 000000038.60 000000000.001E00000000000000000000    80                                                                                                                                                                                                                                                                                                                  
00015180417840002G2675906759000000260478001248000000101CHARLOTTE                NC           5 D                00                                      NNNN00 N 00                   000000000000                                                                   78202445                                                                                                                                                                                                                                                                                                                                                                                                                                               
00015190417840036DT67590675900000026047800124800000010180012477287283199900015100247071820230000000407619923000000000103980529099XXXXXX2897       MS02WI09          NY 1 0 AMDJDBYZ060718  N840000000004076          05DNHPPYC                    382977    MD84000000004076 N  599978202445                            000000000+M10101C5434C    MDJ  10815                     000000000  1                0000000000000.00 0000000.00   0000000.00                             000000000000000                                                                                                                                                   B101424  000000000000 0000000000000.24     00050 02200                  
00015200417840001E167590675900000026047800124800000010100E0F8C8010B 00000000000.00404040404040404040404040404040404040404040404040400110A00001220000000000000000000000FF00000000000000000000000000  000008401800800008800023071898B3FE4CCA7668515A6B3CBE404040400840A00000000410100000000000000000005B411F9BA905B0C400120000000000004040401E40404040 000000040.76 000000000.001E03000000000000000000    80                                                                                                                                                                                                                                                                                                                  
00015210417840002G2675906759000000260478001248000000101CHARLOTTE                NC           5 J                                                        NNNN              000000000000000000000000                        7                                          78202445                                                                                                                                                                                                                                                                                                                                                                                                                                               
00015220417840037DT67590675900000026047800124800000010180012424001193199900015100252071820230000000096519923000000000103980408138XXXXXX3927       VK04VS111111111   NYV1 A E383200027718453N840000000000965FFTQ00    07DNHPPYC                    175149    VD84000000000965 N  599978202445                            000000000+                F PF 08165                     000000000  N000000000       0000000000000.00 0000000.00   0000000.00                             000000000000000                                                                                                                                                     01424 F000000000000 0000000000000.20     01600 00500                  
00015230417840001E167590675900000026047800124800000010100E068C8016A 00000000000.00404040404040404040404040404040404040404040404040401F42FF31A00000000010030273000000004000000000000000000000000000  0000084000400000000000230718C322BCFAAA403D1C68738463404040400840A0000000031010000000000000000000B79E1F3F0086000000000000000000004040404040404040 000000009.65 000000000.004040400000000000000000    80                                                                                                                                                                                                                                                                                                                  
00015240417840002G2675906759000000260478001248000000101CHARLOTTE                NC           5 P                00                                      NNNN00 N 00                   000000000000                                                                   78202445                                                                                                                                                                                                                                                                                                                                                                                                                                               
00015250417840038DT67590675900000026047800124800000010180012424001193199900015100260071820230000000144719923000000000103980449435XXXXXX3110       VK04VS111111111   NYV1 A E383200035849641N8400000000014472CPQ00    05DNHPPYC                    896059    VD84000000001447 N  599978202445                            000000000+                F DF 00451                     000000000  N000000000 214   0000000000000.00 0000000.00   0000000.00                             000000000000000                                                                                                                                                     01424 F000000000000 0000000000000.26     01550 00400                  
00015260417840001E167590675900000026047800124800000010100E0F8C801BA 00000000000.004040404040404040404040404040404040404040404040404006011203A08000000000000000000000404040404040404040404040404040  0000084018008080008000230718EC61BFE68374884DA6E29631404040400840A00000000310100000000000000000001AB2E58E0382000000000000000000004040401E40404040 000000014.47 000000000.001E00000000000000000000    80                                                                                                                                                                                                                                                                                                                  
00015270417840002G2675906759000000260478001248000000101CHARLOTTE                NC           5 D                00                                      NNNN00 N 00                   000000000000                                                                   78202445                                                                                                                                                                                                                                                                                                                                                                                                                                               
00015280417840039BH6759067590000003433080014180000090170718202319923000000000129014    0000090001160038Y8001416759C07192023016                                                                                                                                                                                                                                                                                                                                                                                                                                                                                                                                                                                              
00015290417840040DT67590675900000034330800141800000010180014124001193199900011600016071820230000000641719923000000000129014429977XXXXXX8902       VS11    0001111   NYV1 A E463199557653995N8400000000064178HD500    05DNJBLISS LLC               664075    VD84000000006417 N  599978503056                            000000000+                G DG 10351                     000000000  Y000000000 338   0000000000000.00 0000000.00   0000000.00                             000000000000000                                                                                                                                                     01424 A000000000000 0000000000000.25     00050 02200                  
00015300417840001E167590675900000034330800141800000010100E0F8C804C9 00000000000.004040404040404040404040404040404040404040404040404006010A03A08000000000000000000000404040404040404040404040404040  0001084018008080008000230718130CC3F6C441EF5B65ABE53E404040400840A0000000031010000000000000000000281241A389A7279030300000000000004040401E40404040 000000064.17 000000000.001E00000000000000000000    80                                                                                                                                                                                                                                                                                                                  
00015310417840002G2675906759000000343308001418000000101GREENWOOD                SC           5 D                00                                      NNNN00 N 00                   000000000000                                                                   78503056                                                                                                                                                                                                                                                                                                                                                                                                                                               
00015320417840041DT67590675900000034330800141800000010180014177287283199900011600026071820230000000192519923000000000129014510805XXXXXX0893       MS02WI09          NY 1 0 AMDJNPEC6V0718  N840000000001925          07DNJBLISS LLC               003437    MD84000000001925 N  599978503056                            000000000+M10101M0034C    MDJ  10815                     000000000  1                0000000000000.00 0000000.00   0000000.00                             000000000000000                                                                                                                                                   B101424  000000000000 0000000000000.23     00050 02200                  
00015330417840001E1675906759000000343308001418000000101000008480002 00000000000.00404040404040404040404040404040404040404040404040400110A04001220000000000000000000000FF00000000000000000000000000  0000084019800000008001230718554581E66AA3D5F9CF98B40D404040400840A0000000041010000000000000000000404040404040404040404040404040404040401F40404040 000000019.25 000000000.001F03020000000000000000    80                                                                                                                                                                                                                                                                                                                  
00015340417840002G2675906759000000343308001418000000101GREENWOOD                SC           5 J                                                        NNNN              000000000000000000000000       03               7                                          78503056                                                                                                                                                                                                                                                                                                                                                                                                                                               
00015350417840042DT67590675900000034330800141800000010180014124001193199900011600032071820230000000203219923000000000129014433477XXXXXX2242       VS11    0001111   NYV1 A E463199594198440N8400000000020322MCR00    07DNJBLISS LLC               654134    VD84000000002032 N  599978503056                            000000000+                F DF 10433                     000000000  Y000000000 338   0000000000000.00 0000000.00   0000000.00                             000000000000000                                                                                                                                                     01424 A000000000000 0000000000000.23     00050 02200                  
00015360417840001E167590675900000034330800141800000010100E068C800B8 00000000000.004040404040404040404040404040404040404040404040404006011203A00000000000000000000000404040404040404040404040404040  00010840000000000000002307186663897C52E2FE1EF17F4CBE404040400840A0000000031010000000000000000000404040404040404040404040404040404040404040404040 000000020.32 000000000.004040400000000000000000    80                                                                                                                                                                                                                                                                                                                  
00015370417840002G2675906759000000343308001418000000101GREENWOOD                SC           5 D                00                                      NNNN00 N 00                   000000000000                                                                   78503056                                                                                                                                                                                                                                                                                                                                                                                                                                               
00015380417840043DT67590675900000034330800141800000010180014124001193199900011600040071820230000000203219923000000000129014472777XXXXXX1270       VS11    0001111   NYV1 A E303199613030484N840000000002032H6JW00    90DNJBLISS LLC               300643    VD84000000002032 N  599978503056                            000000000+                F PF 08170                     000000000  N000000000       0000000000000.00 0000000.00   0000000.00                             000000000000000                                                                                                                                                     01424 A000000000000 0000000000000.38     01150 01500                  
00015390417840001G2675906759000000343308001418000000101GREENWOOD                SC           5 P                00                                      NNNN00 N 00                   000000000000                                                                   78503056                                                                                                                                                                                                                                                                                                                                                                                                                                               
00015400417840044DT67590675900000034330800141800000010180014124001193199900011600057071820230000000427919923000000000129014440393XXXXXX4392       VS11    0001111   NYV1 A E583199616617716N840000000004279P2R700    07DNJBLISS LLC               046125    VD84000000004279 N  599978503056                            000000000+                F PF 08170                     000000000  N000000000       0000000000000.00 0000000.00   0000000.00                             000000000000000                                                                                                                                                     01424 A000000000000 0000000000000.64     01150 01500                  
00015410417840001E167590675900000034330800141800000010100E068C8001E 00000000000.004040404040404040404040404040404040404040404040404006011203A00000000000000000000000404040404040404040404040404040  0000084020000000000000230718DFEE5411A36377325E1B5F07404040400840A0000000031010000000000000000000660B3CF4FB1A488830300000000000004040404040404040 000000042.79 000000000.004040400000000000000000    80                                                                                                                                                                                                                                                                                                                  
00015420417840002G2675906759000000343308001418000000101GREENWOOD                SC           5 P                00                                      NNNN00 N 00                   000000000000                                                                   78503056                                                                                                                                                                                                                                                                                                                                                                                                                                               
00015430417840045DT67590675900000034330800141800000010180014124001193199900011600065071820230000000203219923000000000129014427082XXXXXX3018       VS11    0001111   NYV1 A E303199618351052N8400000000020325WLZ00    05DNJBLISS LLC               018586    VS84000000002032 N  599978503056                            000000000+                D CD 12113                     000000000  N000000000 499   0000000000000.00 0000000.00   0000000.00                             000000000000000                                                                                                                                                     01424 A000000000000 0000000000000.53     02100 01000                  
00015440417840001E167590675900000034330800141800000010100E0F8C803AF 00000000000.004040404040404040404040404040404040404040404040404006011203A02000000000000000000000404040404040404040404040404040  000308401800808000800023071840BD566339A105D909CE6A51404040400840A000000003101000000000000000000077E7E7EF0082000000000000000000004040401E40404040 000000020.32 000000000.001E00000000000000000000    80                                                                                                                                                                                                                                                                                                                  
00015450417840002G2675906759000000343308001418000000101GREENWOOD                SC           5 C                00                                      NNNN00 Y 00                   000000000000                                                                   78503056                                                                                                                                                                                                                                                                                                                                                                                                                                               
00015460417840046DT67590675900000034330800141800000010180014124001193199900011600073071820230000000203219923000000000129014440393XXXXXX7615       VS11    0001111   NYV1 A E463199632246907N840000000002032TRP200    07DNJBLISS LLC               423911    VD84000000002032 N  599978503056                            000000000+                F PF 08170                     000000000  N000000000       0000000000000.00 0000000.00   0000000.00                             000000000000000                                                                                                                                                     01424 A000000000000 0000000000000.38     01150 01500                  
00015470417840001E167590675900000034330800141800000010100E068C80073 00000000000.004040404040404040404040404040404040404040404040404006011203A00000000000000000000000404040404040404040404040404040  00000840200000000000002307189A2817FAC6C1A2A0AF46A513404040400840A0000000031010000000000000000000CEB7EA8BD847827D30300000000000004040404040404040 000000020.32 000000000.004040400000000000000000    80                                                                                                                                                                                                                                                                                                                  
00015480417840002G2675906759000000343308001418000000101GREENWOOD                SC           5 P                00                                      NNNN00 N 00                   000000000000                                                                   78503056                                                                                                                                                                                                                                                                                                                                                                                                                                               
00015490417840047DT67590675900000034330800141800000010180014177287283199900011600083071820230000000182919923000000000129014514442XXXXXX9956       MS02WI09          NY 1 0 AMDJZBELNS0718  N840000000001829          05DNJBLISS LLC               210201    MD84000000001829 N  599978503056                            000000000+M10101C5434C    MDJ  00402                     000000000  N                0000000000000.00 0000000.00   0000000.00                             000000000000000                                                                                                                                                   B101424  000000000000 0000000000000.34     01050 01500                  
00015500417840001E167590675900000034330800141800000010100E0F8C80089 00000000000.00404040404040404040404040404040404040404040404040400110A00001220000000000000000000000FF00000000000000000000000000  00000840180080000880002307188B1E905415532322A8DB7A41404040400840A0000000041010000000000000000000F36CFCF1F82AAA8500100000000000004040401E40404040 000000018.29 000000000.001E03000000000000000000    80                                                                                                                                                                                                                                                                                                                  
00015510417840002G2675906759000000343308001418000000101GREENWOOD                SC           5 J                                                        NNNN              000000000000000000000000                                                                   78503056                                                                                                                                                                                                                                                                                                                                                                                                                                               
00015520417840048DT67590675900000034330800141800000010180014124001193199900011600099071820230000000203219923000000000129014407535XXXXXX8901       VS11    0001111   NYV1 A E383199641618919N8400000000020327Q6300    90DNJBLISS LLC               544268    VD84000000002032 N  599978503056                            000000000+                F PF 08170                     000000000  N000000000       0000000000000.00 0000000.00   0000000.00                             000000000000000                                                                                                                                                     01424 A000000000000 0000000000000.38     01150 01500                  
00015530417840001G2675906759000000343308001418000000101GREENWOOD                SC           5 P                00                                      NNNN00 N 00                   000000000000                                                                   78503056                                                                                                                                                                                                                                                                                                                                                                                                                                               
00015540417840049DT67590675900000034330800141800000010180014124001193199900011600107071820230000000128219923000000000129014466189XXXXXX1806       VK04VS111111111   NYV1 A E383199663496599N840000000001282FK6200    07DNJBLISS LLC               030070    VD84000000001282 N  599978503056                            000000000+                F DF 10439                     000000000  Y000000000 331   0000000000000.00 0000000.00   0000000.00                             000000000000000                                                                                                                                                     01424 F000000000000 0000000000000.23     00050 02200                  
00015550417840001E167590675900000034330800141800000010100E068C80148 00000000000.004040404040404040404040404040404040404040404040404006011203A00000000000000000000000404040404040404040404040404040  0000084000000000000000230718D0DA521090BA8758682E6A66404040400840A0000000031010000000000000000000F4A87DEF4ABF9DE330300000000000004040404040404040 000000012.82 000000000.004040400000000000000000    80                                                                                                                                                                                                                                                                                                                  
00015560417840002G2675906759000000343308001418000000101GREENWOOD                SC           5 D                00                                      NNNN00 N 00                   000000000000                                                                   78503056                                                                                                                                                                                                                                                                                                                                                                                                                                               
00015570417840050DT67590675900000034330800141800000010180014124001193199900011600115071820230000000449119923000000000129014440393XXXXXX1517       VS11    0001111   NYV1 A E583199669637053N840000000004491P68600    07DNJBLISS LLC               797459    VD84000000004491 N  599978503056                            000000000+                F PF 08170                     000000000  N000000000       0000000000000.00 0000000.00   0000000.00                             000000000000000                                                                                                                                                     01424 A000000000000 0000000000000.67     01150 01500                  
00015580417840001E167590675900000034330800141800000010100E068C80032 00000000000.004040404040404040404040404040404040404040404040404006011203A00000000000000000000000404040404040404040404040404040  0000084020000000000000230718FFD6253C17B3AE2E89023264404040400840A00000000310100000000000000000003A8CD4D4CF4EE86E30300000000000004040404040404040 000000044.91 000000000.004040400000000000000000    80                                                                                                                                                                                                                                                                                                                  
00015590417840002G2675906759000000343308001418000000101GREENWOOD                SC           5 P                00                                      NNNN00 N 00                   000000000000                                                                   78503056                                                                                                                                                                                                                                                                                                                                                                                                                                               
00015600417840051DT67590675900000034330800141800000010180014124001193199900011600123071820230000000203219923000000000129014449594XXXXXX2289       VS11    0001111   NYV1 A E463199671679508N840000000002032C9XM00    07DNJBLISS LLC               669087    VD84000000002032 N  599978503056                            000000000+                F DF 00381                     000000000  N000000000       0000000000000.00 0000000.00   0000000.00                             000000000000000                                                                                                                                                     01424 A000000000000 0000000000000.31     00800 01500                  
00015610417840001E167590675900000034330800141800000010100E068C80049 00000000000.004040404040404040404040404040404040404040404040404006011203A00000000000000000000000404040404040404040404040404040  0000084020000000000000230718D4A23C5C525C54D351731FFA404040400840A00000000310100000000000000000000294ACCD0382000000000000000000004040404040404040 000000020.32 000000000.004040400000000000000000    80                                                                                                                                                                                                                                                                                                                  
00015620417840002G2675906759000000343308001418000000101GREENWOOD                SC           5 D                00                                      NNNN00 N 00                   000000000000                                                                   78503056                                                                                                                                                                                                                                                                                                                                                                                                                                               
00015630417840052DT67590675900000034330800141800000010180014124001193199900011600131071820230000000203219923000000000129014440393XXXXXX3428       VS11    0001111   NYV1 A E383199671925803N840000000002032NCCL00    07DNJBLISS LLC               140935    VD84000000002032 N  599978503056                            000000000+                F PF 08170                     000000000  N000000000       0000000000000.00 0000000.00   0000000.00                             000000000000000                                                                                                                                                     01424 A000000000000 0000000000000.38     01150 01500                  
00015640417840001E167590675900000034330800141800000010100E068C80059 00000000000.004040404040404040404040404040404040404040404040404006011203A00000000000000000000000404040404040404040404040404040  0000084020000000000000230718648D636B28361DCA2531E9C2404040400840A0000000031010000000000000000000AA0159BFB6DD0A9030300000000000004040404040404040 000000020.32 000000000.004040400000000000000000    80                                                                                                                                                                                                                                                                                                                  
00015650417840002G2675906759000000343308001418000000101GREENWOOD                SC           5 P                00                                      NNNN00 N 00                   000000000000                                                                   78503056                                                                                                                                                                                                                                                                                                                                                                                                                                               
