02464170134136863AD675906759000000151648008888000009077900011406340000001637004052023NYY09523YC6759800888040720232023095005514                                                                                                                                                                                                                                                                                                                                                                                                                                                                                                                                                                                              
02464180134136869AD675906759000000151648008888000009077900011103960000000987004052023NYY09523YC6759800888040720232023095005515                                                                                                                                                                                                                                                                                                                                                                                                                                                                                                                                                                                              
02464190134136875AD675906759000000151648008888000009077900011103990000000519004052023NYY09523YC6759800888040720232023089027944                                                                                                                                                                                                                                                                                                                                                                                                                                                                                                                                                                                              
02464200134136881AD675906759000000151648008888000009077900011103980000000654804052023NYY09523YC6759800888040720232023089027948                                                                                                                                                                                                                                                                                                                                                                                                                                                                                                                                                                                              
02464210134136884AD675906759000000151648008888000009071900010901940000000654804052023NYY09523ND6759800888040720232023095018260                                                                                                                                                                                                                                                                                                                                                                                                                                                                                                                                                                                              
02464220134136887AD675906759000000151648008888000009071900010901950000000519004052023NYY09523ND6759800888040720232023095018261                                                                                                                                                                                                                                                                                                                                                                                                                                                                                                                                                                                              
02464230134136890AD675906759000000151648008888000009071900010901930000001194804052023NYY09523ND6759800888040720232023095018262                                                                                                                                                                                                                                                                                                                                                                                                                                                                                                                                                                                              
02464240134136893AD675906759000000151648008888000009071900012234740000000654804052023NYY09523ND6759800888040720232023095018263                                                                                                                                                                                                                                                                                                                                                                                                                                                                                                                                                                                              
02464250134136896AD675906759000000151648008888000009071900012234730000001799104052023NYY09523ND6759800888040720232023095018264                                                                                                                                                                                                                                                                                                                                                                                                                                                                                                                                                                                              
02464260134136899AD675906759000000151648008888000009071900012027310000001987004052023NYY09523ND6759800888040720232023095018265                                                                                                                                                                                                                                                                                                                                                                                                                                                                                                                                                                                              
02464270134136902AD675906759000000133008001028000009071900013939750000002661104052023NYY09523ND6759800102040720232023095018266                                                                                                                                                                                                                                                                                                                                                                                                                                                                                                                                                                                              
02464280134136905AD675906759000000151648008888000009071900011408710000000654804052023NYY09523ND6759800888040720232023095018267                                                                                                                                                                                                                                                                                                                                                                                                                                                                                                                                                                                              
02464290134136908AD675906759000000151648008888000009071900012875540000000654804052023NYY09523ND6759800888040720232023095018268                                                                                                                                                                                                                                                                                                                                                                                                                                                                                                                                                                                              
02464300134136911AD675906759000000151648008888000009071900012875530000001987004052023NYY09523ND6759800888040720232023095018269                                                                                                                                                                                                                                                                                                                                                                                                                                                                                                                                                                                              
02464310134136914AD675906759000000151648008888000009071900012875990000001394804052023NYY09523ND6759800888040720232023095018270                                                                                                                                                                                                                                                                                                                                                                                                                                                                                                                                                                                              
02464320134136917AD675906759000000151648008888000009071900013341000000001987004052023NYY09523ND6759800888040720232023095018271                                                                                                                                                                                                                                                                                                                                                                                                                                                                                                                                                                                              
02464330134136920AD675906759000000133008001028000009071900012321750000002418504052023NYY09523ND6759800102040720232023095018272                                                                                                                                                                                                                                                                                                                                                                                                                                                                                                                                                                                              
02464340134136923AD675906759000000133008001028000009071900012422530000001600304052023NYY09523ND6759800102040720232023095018273                                                                                                                                                                                                                                                                                                                                                                                                                                                                                                                                                                                              
02464350134136938AD675906759000000151648008888000009071900011512450000000654804052023NYY09523ND6759800888040720232023095028145                                                                                                                                                                                                                                                                                                                                                                                                                                                                                                                                                                                              
02464360136510002BH6759067590000000288180088880000090170406202309623000000000224360    0000090001900042N8008886759C04072023                                                                                                                                                                                                                                                                                                                                                                                                                                                                                                                                                                                                 
02464370136510003DT67590675900000002881800888800000010180088824001193096900019000015040620230000000158009623000000000224360413444XXXXXX7200       VS11    0001111   NYV1 A E463096506361475N8400000000015802XMF00    07DNHAPPY HIPPIE             XDBR16    VD84000000001580 N  549976487158                            000000000+                F PF 08170                     000000000  N000000000       0000000000000.00 0000000.00   0000000.00                             000000000000000                                                                                                                                                     01418 A000000000000 0000000000000.33     01150 01500                  
02464380136510004DT67590675900000002881800888800000010180088824001193096900019000023040620230000001646209623000000000224360415978XXXXXX3217       VS11    0001111   NYV1 A E303096522601439N8400000000164628QCB00    05DNHAPPY HIPPIE             016959    VD84000000016462 N  549976487158                            000000000+                F DF 10433                     000000000  Y000000000 338   0000000000000.00 0000000.00   0000000.00                             000000000000000                                                                                                                                                     01418 A000000000000 0000000000000.30     00050 02200                  
02464390136510005DT67590675900000002881800888800000010180088824001193096900019000031040620230000001332609623000000000224360421783XXXXXX1459       VS11    0001111   NYV1 A E383096529175850N840000000013326BQ3F00    05DNHAPPY HIPPIE             066141    VS84000000013326 N  549976487158                            000000000+                A CA 12110                     000000000  N000000000 493   0000000000000.00 0000000.00   0000000.00                             000000000000000                                                                                                                                                     01418 A000000000000 0000000000002.11     01510 01000                  
02464400136510006DT67590675900000002881800888800000010180088877287283096900019000041040620230000001086409623000000000224360515676XXXXXX1373       MS02WI09          NY 1 0 AMWEKBWRE00406  N840000000010864          05DNHAPPY HIPPIE             00895Z    MC84000000010864 N  549976487158                            000000000+M10101C5434C    MWE  00743                     000000000  N                0000000000000.00 0000000.00   0000000.00                             000000000000000                                                                                                                                                   B101418  000000000000 0000000000002.54     02300 00400                  
02464410136510007DT67590675900000002881800888800000010180088824001193096900019000056040620230000001480409623000000000224360406032XXXXXX5726       VS11    0001111   NYV1 A E583096564283240N840000000014804445600    05DNHAPPY HIPPIE             084011    VD84000000014804 N  549976487158                            000000000+                F DF 10433                     000000000  Y000000000 338   0000000000000.00 0000000.00   0000000.00                             000000000000000                                                                                                                                                     01418 A000000000000 0000000000000.29     00050 02200                  
02464420136510008DT67590675900000002881800888800000010180088877287283096900019000066040620230000000553409623000000000224360544579XXXXXX7743       MS02WI09          NY 1 0 AMDJ8WQ1800406  N840000000005534          07DNHAPPY HIPPIE             166073    MD84000000005534 N  549976487158                            000000000+M10101M5434C    MDJ  10815                     000000000  1                0000000000000.00 0000000.00   0000000.00                             000000000000000                                                                                                                                                   B101418  000000000000 0000000000000.25     00050 02200                  
02464430136510009DT67590675900000002881800888800000010180088824001193096900019000072040620230000000878809623000000000224360422921XXXXXX1431       VS11    0001111   NYV1 A E383096570987641N840000000008788C87L00    07DNHAPPY HIPPIE             042699    VD84000000008788 N  549976487158                            000000000+                F DF 00381                     000000000  N000000000       0000000000000.00 0000000.00   0000000.00                             000000000000000                                                                                                                                                     01418 A000000000000 0000000000000.85     00800 01500                  
02464440136510010DT67590675900000002881800888800000010180088824001193096900019000080040620230000000581609623000000000224360415978XXXXXX1455       VS11    0001111   NYV1 A E463096599253453N840000000005816DWGZ00    07DNHAPPY HIPPIE             069479    VD84000000005816 N  549976487158                            000000000+                F DF 10433                     000000000  Y000000000 338   0000000000000.00 0000000.00   0000000.00                             000000000000000                                                                                                                                                     01418 A000000000000 0000000000000.25     00050 02200                  
02464450136510011DT67590675900000002881800888800000010180088824001193096900019000098040620230000000167809623000000000224360442793XXXXXX0095       VS11    0001111   NYV1 A E463096601041741N8400000000016785Q5C00    07DNHAPPY HIPPIE             806412    VD84000000001678 N  549976487158                            000000000+                F DF 10433                     000000000  Y000000000 338   0000000000000.00 0000000.00   0000000.00                             000000000000000                                                                                                                                                     01418 A000000000000 0000000000000.23     00050 02200                  
02464460136510012DT67590675900000002881800888800000010180088824001193096900019000106040620230000000987809623000000000224360419090XXXXXX6158       VS11    0001111   NYV1 A E383096602401730N840000000009878HN4B00    05DNHAPPY HIPPIE             041374    VD84000000009878 N  549976487158                            000000000+                F DF 00381                     000000000  N000000000       0000000000000.00 0000000.00   0000000.00                             000000000000000                                                                                                                                                     01418 A000000000000 0000000000000.94     00800 01500                  
02464470136510013DT67590675900000002881800888800000010180088824001193096900019000114040620230000001239809623000000000224360434769XXXXXX5987       VS11    0001111   NYV1 A E463096604817583N840000000012398N3M200    05DNHAPPY HIPPIE             014812    VD84000000012398 N  549976487158                            000000000+                F DF 10433                     000000000  Y000000000 338   0000000000000.00 0000000.00   0000000.00                             000000000000000                                                                                                                                                     01418 A000000000000 0000000000000.28     00050 02200                  
02464480136510014DT67590675900000002881800888800000010180088824001193096900019000122040620230000000325809623000000000224360414724XXXXXX8791       VS11    0001111   NYV1 A E583096605607773N840000000003258RQ8L00    05DNHAPPY HIPPIE             92040D    VS84000000003258 N  549976487158                            000000000+                D CD 12113                     000000000  N000000000 499   0000000000000.00 0000000.00   0000000.00                             000000000000000                                                                                                                                                     01418 A000000000000 0000000000000.78     02100 01000                  
02464490136510015DT67590675900000002881800888800000010180088824001193096900019000130040620230000000177709623000000000224360414720XXXXXX7058       VS11    0001111   NYV1 A E383096613354860N84000000000177774RX00    07DNHAPPY HIPPIE             06457C    VS84000000001777 N  549976487158                            000000000+                C CC 12112                     000000000  N000000000 497   0000000000000.00 0000000.00   0000000.00                             000000000000000                                                                                                                                                     01418 A000000000000 0000000000000.39     01650 01000                  
02464500136510016DT67590675900000002881800888800000010180088877287283096900019000140040620230000000219509623000000000224360514377XXXXXX4128       MS02WI09          NY 1 0 AMDJDBWYPN0406  N840000000002195          07DNHAPPY HIPPIE             2UVIOH    MD84000000002195 N  549976487158                            000000000+M10101M0034C    MDJ  00402                     000000000  N                0000000000000.00 0000000.00   0000000.00                             000000000000000                                                                                                                                                   B101418  000000000000 0000000000000.38     01050 01500                  
02464510136510017DT67590675900000002881800888800000010180088824001193096900019000155040620230000000398209623000000000224360419090XXXXXX7685       VS11    0001111   NYV1 A E383096620814494N840000000003982TXS900    05DNHAPPY HIPPIE             042547    VD84000000003982 N  549976487158                            000000000+                F DF 00381                     000000000  N000000000       0000000000000.00 0000000.00   0000000.00                             000000000000000                                                                                                                                                     01418 A000000000000 0000000000000.47     00800 01500                  
02464520136510018DT67590675900000002881800888800000010180088824001193096900019000163040620230000000325809623000000000224360445101XXXXXX5543       VS11    0001111   NYV1 A E303096626293731N840000000003258KPSH00    05DNHAPPY HIPPIE             884135    VD84000000003258 N  549976487158                            000000000+                F DF 10433                     000000000  Y000000000 338   0000000000000.00 0000000.00   0000000.00                             000000000000000                                                                                                                                                     01418 A000000000000 0000000000000.24     00050 02200                  
02464530136510019DT67590675900000002881800888800000010680088874001193096900019000176040620230000000051509623000000000224360445101XXXXXX5543               0000000   NYV1 0 T463096628474634N840000000000515RS8T00    05CNHAPPY HIPPIE             006677    VD84000000000515 N  549976487158                            000000000+                F DF 08168                     000000000  Y000000000 369   0000000000000.00 0000000.00   0000000.00                             000000000000000                                                                                                                                                     01418  000000000000 0000000000000.00     00000 00000                  
02464540136510020DT67590675900000002881800888800000010180088824001193096900019000189040620230000000790109623000000000224360480639XXXXXX4401       VS11    0001111   NYV1 A E583096629816493N840000000007901RK7D00    05DNHAPPY HIPPIE             390670    VD84000000007901 N  549976487158                            000000000+                F DF 00381                     000000000  N000000000       0000000000000.00 0000000.00   0000000.00                             000000000000000                                                                                                                                                     01418 A000000000000 0000000000000.78     00800 01500                  
02464550136510021DT67590675900000002881800888800000010180088824001193096900019000197040620230000000268709623000000000224360478431XXXXXX9287       VS11    0001111   NYV1 A E303096644105300N840000000002687V6XB00    07DNHAPPY HIPPIE             006206    VS84000000002687 N  549976487158                            000000000+                B CB 12111                     000000000  N000000000 495   0000000000000.00 0000000.00   0000000.00                             000000000000000                                                                                                                                                     01418 A000000000000 0000000000000.54     01650 01000                  
02464560136510022DT67590675900000002881800888800000010180088824001193096900019000205040620230000000219409623000000000224360473703XXXXXX8145       VS11    0001111   NYV1 A E303096662919813N84000000000219477BX00    07DNHAPPY HIPPIE             000547    VD84000000002194 N  549976487158                            000000000+                F DF 10433                     000000000  Y000000000 338   0000000000000.00 0000000.00   0000000.00                             000000000000000                                                                                                                                                     01418 A000000000000 0000000000000.23     00050 02200                  
02464570136510023DT67590675900000002881800888800000010180088824001193096900019000213040620230000000790009623000000000224360419090XXXXXX0013       VS11    0001111   NYV1 A E303096668681151N840000000007900XJPR00    05DNHAPPY HIPPIE             045454    VD84000000007900 N  549976487158                            000000000+                F DF 00381                     000000000  N000000000       0000000000000.00 0000000.00   0000000.00                             000000000000000                                                                                                                                                     01418 A000000000000 0000000000000.78     00800 01500                  
02464580136510024DT67590675900000002881800888800000010180088824001193096900019000221040620230000000770209623000000000224360419090XXXXXX8251       VS11    0001111   NYV1 A E583096671945879N840000000007702RZVB00    05DNHAPPY HIPPIE             045679    VD84000000007702 N  549976487158                            000000000+                F DF 00381                     000000000  N000000000       0000000000000.00 0000000.00   0000000.00                             000000000000000                                                                                                                                                     01418 A000000000000 0000000000000.77     00800 01500                  
02464590136510025DT67590675900000002881800888800000010180088824001193096900019000239040620230000001283909623000000000224360480639XXXXXX6702       VS11    0001111   NYV1 A E303096679082517N840000000012839BMQ400    05DNHAPPY HIPPIE             392978    VD84000000012839 N  549976487158                            000000000+                F DF 00381                     000000000  N000000000       0000000000000.00 0000000.00   0000000.00                             000000000000000                                                                                                                                                     01418 A000000000000 0000000000001.18     00800 01500                  
02464600136510026DT67590675900000002881800888800000010180088824001193096900019000247040620230000000039509623000000000224360443264XXXXXX3780       VK04VS111111111   NYV1 A E383096688833944N840000000000395ZQKX00    05DNHAPPY HIPPIE             028686    VD84000000000395 N  549976487158                            000000000+                F DF 10439                     000000000  Y000000000 331   0000000000000.00 0000000.00   0000000.00                             000000000000000                                                                                                                                                     01418 F000000000000 0000000000000.22     00050 02200                  
02464610136510027DT67590675900000002881800888800000010180088876509753096900019000252040620230000000483809623000000000224360601100XXXXXX8123   BA50                  NY41 0 N753082636337380N840000000004838    00    05DNHAPPY HIPPIE             00649R    DS84000000004838 N  549976487158050                         000000000+0000004910H00   DCCDI01000831585  122713000000 000000000  0          112   0000000000000.00 0000000.00   0000000.00                             000000000000000                                                                                                                                                     01418  000000000000 0000000000000.93     01720 01000                  
02464620136510028DT67590675900000002881800888800000010180088824001193096900019000262040620230000000142109623000000000224360480639XXXXXX4015       VK04VS111111111   NYV1 A E463096703036470N840000000001421ZKB900    05DNHAPPY HIPPIE             394170    VD84000000001421 N  549976487158                            000000000+                F DF 00451                     000000000  N000000000 214   0000000000000.00 0000000.00   0000000.00                             000000000000000                                                                                                                                                     01418 F000000000000 0000000000000.26     01550 00400                  
02464630136510029DT67590675900000002881800888800000010180088824001193096900019000270040620230000001097509623000000000224360422921XXXXXX7774       VS11    0001111   NYV1 A E383096705976138N840000000010975LFMX00    05DNHAPPY HIPPIE             056198    VD84000000010975 N  549976487158                            000000000+                F DF 00381                     000000000  N000000000       0000000000000.00 0000000.00   0000000.00                             000000000000000                                                                                                                                                     01418 A000000000000 0000000000001.03     00800 01500                  
02464640136510030DT67590675900000002881800888800000010180088877287283096900019000280040620230000000375109623000000000224360511953XXXXXX3090       MS02WI09          NY 1 0 AMDJWMTWHU0406  N840000000003751          05DNHAPPY HIPPIE             038475    MD84000000003751 N  549976487158                            000000000+M10101C5434C    MDJ  00402                     000000000  N                0000000000000.00 0000000.00   0000000.00                             000000000000000                                                                                                                                                   B101418  000000000000 0000000000000.54     01050 01500                  
02464650136510031DT67590675900000002881800888800000010180088824001193096900019000296040620230000000098809623000000000224360415978XXXXXX6979       VK04VS111111111   NYV1 A E383096710183627N840000000000988RRRS00    07DNHAPPY HIPPIE             041841    VD84000000000988 N  549976487158                            000000000+                F DF 10439                     000000000  Y000000000 331   0000000000000.00 0000000.00   0000000.00                             000000000000000                                                                                                                                                     01418 F000000000000 0000000000000.22     00050 02200                  
02464660136510032DT67590675900000002881800888800000010180088877287283096900019000306040620230000000651709623000000000224360558158XXXXXX8211                         NY 1 0 AMDBSW5PPL0406  N840000000006517          07DNHAPPY HIPPIE             2MX0OY    MD84000000006517 NP1549976487158                            000000000+M10101M5434C    MDB  00062                     000000000  N                0000000000000.00 0000000.00   0000000.00                             000000000000000                                                                                                                                                   B101418  000000000000 0000000000001.83     02650 01000                  
02464670136510001P1675906759000000028818008888000000101                                                          000000000000          3000            814767769                                                                                                                                                                                                                                                                                                                                                                                                                                                                                                                                                            
02464680136510033DT67590675900000002881800888800000010180088824001193096900019000312040620230000000246809623000000000224360409758XXXXXX4330       VS11    0001111   NYV1 A E303096723377669N8400000000024688Q7W00    90DNHAPPY HIPPIE             750397    VD84000000002468 N  549976487158                            000000000+                F PF 08170                     000000000  N000000000       0000000000000.00 0000000.00   0000000.00                             000000000000000                                                                                                                                                     01418 A000000000000 0000000000000.43     01150 01500                  
02464690136510034DT67590675900000002881800888800000010180088824001193096900019000320040620230000000361809623000000000224360454507XXXXXX3164       VS11    0001111   NYV1 A E383096735390256N840000000003618MC8C00    90DNHAPPY HIPPIE             028381    VD84000000003618 N  549976487158                            000000000+                F DF 10433                     000000000  Y000000000 338   0000000000000.00 0000000.00   0000000.00                             000000000000000                                                                                                                                                     01418 A000000000000 0000000000000.24     00050 02200                  
02464700136510035DT67590675900000002881800888800000010180088824001193096900019000338040620230000000375209623000000000224360441776XXXXXX3231       VS11    0001111   NYV1 A E583096736471296N840000000003752NVFP00    07DNHAPPY HIPPIE             049517    VD84000000003752 N  549976487158                            000000000+                F DF 00381                     000000000  N000000000       0000000000000.00 0000000.00   0000000.00                             000000000000000                                                                                                                                                     01418 A000000000000 0000000000000.45     00800 01500                  
02464710136510036DT67590675900000002881800888800000010180088876509753096900019000344040620230000000195009623000000000224360601100XXXXXX8123   BA05                  NY41 0 N873082690987767N840000000001950    00    07DNHAPPY HIPPIE             00650R    DS84000000001950 N  549976487158830                         000000000+0000004910H00   DCCDI01000665213  135817000000 000000000  0          112   0000000000000.00 0000000.00   0000000.00                             000000000000000                                                                                                                                                     01418  000000000000 0000000000000.44     01720 01000                  
02464720136510037DT67590675900000002881800888800000010180088824001193096900019000353040620230000000279009623000000000224360443264XXXXXX8753       VS11    0001111   NYV1 A E463096756825567N840000000002790S6GK00    07DNHAPPY HIPPIE             003966    VD84000000002790 N  549976487158                            000000000+                F DF 10433                     000000000  Y000000000 338   0000000000000.00 0000000.00   0000000.00                             000000000000000                                                                                                                                                     01418 A000000000000 0000000000000.23     00050 02200                  
02464730136510038DT67590675900000002881800888800000010180088877287283096900019000363040620230000000365409623000000000224360511953XXXXXX4948       MS02WI09          NY 1 0 AMDJCL4ERS0406  N840000000003654          07DNHAPPY HIPPIE             034385    MD84000000003654 N  549976487158                            000000000+M10101M0034C    MDJ  00402                     000000000  N                0000000000000.00 0000000.00   0000000.00                             000000000000000                                                                                                                                                   B101418  000000000000 0000000000000.53     01050 01500                  
02464740136510039DT67590675900000002881800888800000010180088824001193096900019000379040620230000000192109623000000000224360400022XXXXXX9671       VS11    0001111   NYV1 A E463096761641669N840000000001921TJFV00    07DNHAPPY HIPPIE             630285    VD84000000001921 N  549976487158                            000000000+                F DF 10433                     000000000  Y000000000 338   0000000000000.00 0000000.00   0000000.00                             000000000000000                                                                                                                                                     01418 A000000000000 0000000000000.23     00050 02200                  
02464750136510040DT67590675900000002881800888800000010180088824001193096900019000387040620230000000548709623000000000224360419090XXXXXX5191       VS11    0001111   NYV1 A E383096779473141N840000000005487L7D300    05DNHAPPY HIPPIE             052249    VD84000000005487 N  549976487158                            000000000+                F DF 00381                     000000000  N000000000       0000000000000.00 0000000.00   0000000.00                             000000000000000                                                                                                                                                     01418 A000000000000 0000000000000.59     00800 01500                  
02464760136510041DT67590675900000002881800888800000010180088824001193096900019000395040620230000000581609623000000000224360449507XXXXXX6597       VS11    0001111   NYV1 A E583096780730060N8400000000058166SQK00    05DNHAPPY HIPPIE             074113    VD84000000005816 N  549976487158                            000000000+                F DF 00381                     000000000  N000000000       0000000000000.00 0000000.00   0000000.00                             000000000000000                                                                                                                                                     01418 A000000000000 0000000000000.62     00800 01500                  
02464770136510042DT67590675900000002881800888800000010180088824001193096900019000403040620230000000296309623000000000224360481667XXXXXX0012       VS11    0001111   NYV1 A E463096786586852N840000000002963ZSS500    07DNHAPPY HIPPIE             H68087    VD84000000002963 N  549976487158                            000000000+                F DF 10433                     000000000  Y000000000 338   0000000000000.00 0000000.00   0000000.00                             000000000000000                                                                                                                                                     01418 A000000000000 0000000000000.23     00050 02200                  
02464780136510043DT67590675900000002881800888800000010180088877287283096900019000413040620230000000318709623000000000224360518941XXXXXX4253       MS02WI09          NY 1 0 AMWEBKYSR90406  N840000000003187          07DNHAPPY HIPPIE             45457Z    MC84000000003187 N  549976487158                            000000000+M10101M0034C    MWE  00743                     000000000  N                0000000000000.00 0000000.00   0000000.00                             000000000000000                                                                                                                                                   B101418  000000000000 0000000000000.77     02300 00400                  
02464790136510044DT67590675900000002881800888800000010180088877287283096900019000421040620230000000156309623000000000224360518941XXXXXX4253       MS02WI09          NY 1 0 AMWEL5HGJP0406  N840000000001563          07DNHAPPY HIPPIE             53404Z    MC84000000001563 N  549976487158                            000000000+M10101M0034C    MWE  00743                     000000000  N                0000000000000.00 0000000.00   0000000.00                             000000000000000                                                                                                                                                   B101418  000000000000 0000000000000.40     02300 00400                  
02464800136510045BH6759067590000000215480088880000090170406202309623000000000369980    0000090001542927N8008886759C04072023                                                                                                                                                                                                                                                                                                                                                                                                                                                                                                                                                                                                 
02464810136510046DT67590675900000002154800888800000010180088824001193096900015499724040620230000005880009623000000000369980464888XXXXXX0250               2111111   NYV4 A7W383095816371549N840000000058800NHHW00    01DNDRIP DROP DISTRO LLC     114502    VD84000000058800 NP1519971004114   17646                    000000000+                G DG 10352                     000000000  Y000000000 338   0000000000000.00 0000000.00   0000000.00                             000000000000000                                                                                                                                                     01418 G000000058800 0000000000000.51     00050 02200                  
02464820136510001P16759067590000000215480088880000001010000000000000000    44042704660              2000000000000000000000000              000000000000                    0000000000000000000000000                    000000000000                                                                                                                                                                                                                                                                                                                                                                                                                                                                                        
02464830136510047DT67590675900000002154800888800000010180088824001193096900015430109040620230000000990009623000000000369980433993XXXXXX7424               2111111   NYV4 A7W463096500823929N8400000000099008S7200    01DNDRIP DROP DISTRO LLC     08437G    VB84000000009900 NP1519971004114   17647                    000000000+                G3CG308002                     000000000  N000000000 381   0000000000000.00 0000000.00   0000000.00                             000000000000000                                                                                                                                                     01418 G000000009900 0000000000002.87     02800 01000                  
02464840136510001P16759067590000000215480088880000001010000000000000000    44043639937              2000000000000000000000000              000000000000                    0000000000000000000000000                    000000000000                                                                                                                                                                                                                                                                                                                                                                                                                                                                                        
02464850136510048DT67590675900000002154800888800000010180088824001193096900015424524040620230000002340009623000000000369980415417XXXXXX7272               2111111   NYV4 A7W463096684543723N840000000023400MBCT00    01DNDRIP DROP DISTRO LLC     01641G    VB84000000023400 NP1519971004114   INV-001414               000000000+                G5CG511887                     000000000  N000000000 163   0000000000000.00 0000000.00   0000000.00                             000000000000000                                                                                                                                                     01418 G000000023400 0000000000007.12     03000 01000                  
02464860136510001P16759067590000000215480088880000001010000000000000000    44044321784              2000000000000000000000000              000000000000                    0000000000000000000000000                    000000000000                                                                                                                                                                                                                                                                                                                                                                                                                                                                                        
02464870136510049DT67590675900000002154800888800000010180088824001193096900015454950040620230000005453009623000000000369980440066XXXXXX9837               2111111   NYV4 A7W303096753239279N840000000054530CSX700    01DNDRIP DROP DISTRO LLC     06541D    VS84000000054530 NP1519971004114   INV-001550               000000000+                D CD 12109                     000000000  N000000000 498   0000000000000.00 0000000.00   0000000.00                             000000000000000                                                                                                                                                     01418 G000000054530 0000000000013.73     02500 01000                  
02464880136510001P16759067590000000215480088880000001010000000000000000                             2000000000000000000000000              000000000000                    0000000000000000000000000                    000000000000                                                                                                                                                                                                                                                                                                                                                                                                                                                                                        
02464890136510050DT67590675900000002154800888800000010180088824001193096900015424078040620230000000960009623000000000369980415417XXXXXX7272               2111111   NYV4 A7W303096683793068N8400000000096006DQW00    01DNDRIP DROP DISTRO LLC     08182G    VB84000000009600 NP1519971004114   INV-001519               000000000+                G5CG511887                     000000000  N000000000 163   0000000000000.00 0000000.00   0000000.00                             000000000000000                                                                                                                                                     01418 G000000009600 0000000000002.98     03000 01000                  
02464900136510001P16759067590000000215480088880000001010000000000000000    44044318536              2000000000000000000000000              000000000000                    0000000000000000000000000                    000000000000                                                                                                                                                                                                                                                                                                                                                                                                                                                                                        
02464910136510051DT67590675900000002154800888800000010180088824001193096900015429275040620230000021375009623000000000369980411402XXXXXX9292               2111111   NYV4 A7W583096693990628N840000000213750W88C00    01DNDRIP DROP DISTRO LLC     333810    VD84000000213750 NP1519971004114   17648                    000000000+                G DG 08705                     000000000  N000000000       0000000000000.00 0000000.00   0000000.00                             000000000000000                                                                                                                                                     01418 G000000213750 0000000000052.47     02450 01000                  
02464920136510001P16759067590000000215480088880000001010000000000000000    44044356744              2000000000000000000000000              000000000000                    0000000000000000000000000                    000000000000                                                                                                                                                                                                                                                                                                                                                                                                                                                                                        
02464930136510052BH6759067590000001956280010180000090170406202309623000000000057519    0000090001090016N8001016759C04072023                                                                                                                                                                                                                                                                                                                                                                                                                                                                                                                                                                                                 
02464940136510053DT67590675900000019562800101800000010180010124001193096900010900015040620230000000216109623000000000057519436668XXXXXX1002       VS11    0001111   NYV1 A E383096509105412N840000000002161TZ2F00    05DNPLANET VAPOR #1100       100830    VD84000000002161 N  599977439645                            000000000+                F DF 00381                     000000000  N000000000       0000000000000.00 0000000.00   0000000.00                             000000000000000                                                                                                                                                     01418 A000000000000 0000000000000.32     00800 01500                  
02464950136510054DT67590675900000019562800101800000010180010124001193096900010900023040620230000000213709623000000000057519473703XXXXXX4638       VS11    0001111   NYV1 A E383096519860332N8400000000021372FR300    07DNPLANET VAPOR #1100       002397    VD84000000002137 N  599977439645                            000000000+                F DF 10433                     000000000  Y000000000 338   0000000000000.00 0000000.00   0000000.00                             000000000000000                                                                                                                                                     01418 A000000000000 0000000000000.23     00050 02200                  
02464960136510055DT67590675900000019562800101800000010180010124001193096900010900031040620230000000213709623000000000057519473703XXXXXX4638       VS11    0001111   NYV1 A E463096520938618N8400000000021372WV200    07DNPLANET VAPOR #1100       029226    VD84000000002137 N  599977439645                            000000000+                F DF 10433                     000000000  Y000000000 338   0000000000000.00 0000000.00   0000000.00                             000000000000000                                                                                                                                                     01418 A000000000000 0000000000000.23     00050 02200                  
02464970136510056DT67590675900000019562800101800000010180010124001193096900010900049040620230000000446809623000000000057519427082XXXXXX3439       VS11    0001111   NYV1 A E303096544197234N8400000000044687N6500    05DNPLANET VAPOR #1100       006494    VS84000000004468 N  599977439645                            000000000+                C CC 12112                     000000000  N000000000 497   0000000000000.00 0000000.00   0000000.00                             000000000000000                                                                                                                                                     01418 A000000000000 0000000000000.84     01650 01000                  
02464980136510057DT67590675900000019562800101800000010180010124001193096900010900056040620230000000485809623000000000057519434256XXXXXX9230       VS11    0001111   NYV1 A E463096563904716N8400000000048588W4D00    05DNPLANET VAPOR #1100       072938    VD84000000004858 N  599977439645                            000000000+                F DF 10433                     000000000  Y000000000 338   0000000000000.00 0000000.00   0000000.00                             000000000000000                                                                                                                                                     01418 A000000000000 0000000000000.24     00050 02200                  
02464990136510058DT67590675900000019562800101800000010180010124001193096900010900064040620230000000242909623000000000057519421783XXXXXX7280       VS11    0001111   NYV1 A E383096571228416N8400000000024297SXW00    05DNPLANET VAPOR #1100       063496    VS84000000002429 N  599977439645                            000000000+                A CA 12110                     000000000  N000000000 493   0000000000000.00 0000000.00   0000000.00                             000000000000000                                                                                                                                                     01418 A000000000000 0000000000000.47     01510 01000                  
02465000136510059DT67590675900000019562800101800000010180010124001193096900010900072040620230000000388709623000000000057519448233XXXXXX2809       VS11    0001111   NYV1 A E383096700061015N840000000003887QXC700    05DNPLANET VAPOR #1100       042646    VD84000000003887 N  599977439645                            000000000+                F DF 10433                     000000000  Y000000000 338   0000000000000.00 0000000.00   0000000.00                             000000000000000                                                                                                                                                     01418 A000000000000 0000000000000.24     00050 02200                  
02465010136510060DT67590675900000019562800101800000010180010124001193096900010900080040620230000000864809623000000000057519426690XXXXXX6006       VS11    0001111   NYV1 A E383096701800936N840000000008648LRQS00    05DNPLANET VAPOR #1100       08208D    VS84000000008648 N  599977439645                            000000000+                D CD 12113                     000000000  N000000000 499   0000000000000.00 0000000.00   0000000.00                             000000000000000                                                                                                                                                     01418 A000000000000 0000000000001.92     02100 01000                  
02465020136510061DT67590675900000019562800101800000010180010177287283096900010900090040620230000000777409623000000000057519545443XXXXXX0933       MS02WI09          NY 1 0 AMDJOORTHU0406  N840000000007774          05DNPLANET VAPOR #1100       044390    MD84000000007774 N  599977439645                            000000000+M10101C5434C    MDJ  00402                     000000000  N                0000000000000.00 0000000.00   0000000.00                             000000000000000                                                                                                                                                   B101418  000000000000 0000000000000.97     01050 01500                  
02465030136510062DT67590675900000019562800101800000010180010124001193096900010900106040620230000000269909623000000000057519474474XXXXXX8753       VS11    0001111   NYV1 A E583096789416502N840000000002699Q98700    05DNPLANET VAPOR #1100       135852    VD84000000002699 N  599977439645                            000000000+                F DF 10433                     000000000  Y000000000 338   0000000000000.00 0000000.00   0000000.00                             000000000000000                                                                                                                                                     01418 A000000000000 0000000000000.23     00050 02200                  
02465040136510063DT67590675900000019562800101800000010180010177287283096900010900116040620230000000399309623000000000057519523957XXXXXX6527       MS02WI09          NY 1 0 AMDJISWMR90406  N840000000003993          05DNPLANET VAPOR #1100       291320    MD84000000003993 N  599977439645                            000000000+M10101C5434C    MDJ  00402                     000000000  N                0000000000000.00 0000000.00   0000000.00                             000000000000000                                                                                                                                                   B101418  000000000000 0000000000000.57     01050 01500                  
02465050136510064DT67590675900000019562800101800000010180010124001193096900010900122040620230000000169909623000000000057519430602XXXXXX7777       VS11    0001111   NYV1 A E463096798791097N840000000001699LSGV00    05DNPLANET VAPOR #1100       063869    VD84000000001699 N  599977439645                            000000000+                F DF 00381                     000000000  N000000000       0000000000000.00 0000000.00   0000000.00                             000000000000000                                                                                                                                                     01418 A000000000000 0000000000000.29     00800 01500                  
02465060136510065DT67590675900000019562800101800000010180010124001193096900010900130040620230000000064709623000000000057519430602XXXXXX7777       VK04VS111111111   NYV1 A E583096801288163N840000000000647CKS600    05DNPLANET VAPOR #1100       064550    VD84000000000647 N  599977439645                            000000000+                F DF 00451                     000000000  N000000000 214   0000000000000.00 0000000.00   0000000.00                             000000000000000                                                                                                                                                     01418 F000000000000 0000000000000.14     01550 00400                  
02465070136510066DT67590675900000019562800101800000010180010177287283096900010900140040620230000000258809623000000000057519531258XXXXXX8301       MS02WI09          NY 1 0 AMDJNSF9JP0406  N840000000002588          05DNPLANET VAPOR #1100       160210    MD84000000002588 N  599977439645                            000000000+M10101C5434C    MDJ  10815                     000000000  1                0000000000000.00 0000000.00   0000000.00                             000000000000000                                                                                                                                                   B101418  000000000000 0000000000000.23     00050 02200                  
02465080136510067DT67590675900000019562800101800000010180010124001193096900010900155040620230000000658509623000000000057519430602XXXXXX7483       VS11    0001111   NYV1 A E303096852811083N840000000006585JMV200    05DNPLANET VAPOR #1100       078930    VD84000000006585 N  599977439645                            000000000+                F DF 00381                     000000000  N000000000       0000000000000.00 0000000.00   0000000.00                             000000000000000                                                                                                                                                     01418 A000000000000 0000000000000.68     00800 01500                  
02465090136510068DT67590675900000019562800101800000010180010124001193096900010900163040620230000000080909623000000000057519421783XXXXXX8074       VK04VS111111111   NYV1 A E383096856543241N8400000000008094V2300    05DNPLANET VAPOR #1100       001772    VS84000000000809 N  599977439645                            000000000+                A CA 12110                     000000000  N000000000 493   0000000000000.00 0000000.00   0000000.00                             000000000000000                                                                                                                                                     01418 F000000000000 0000000000000.22     01510 01000                  
02465100136510069BH6759067590000000766680010180000090170406202309623000000000071268    0000090001200019N8001016759C04072023                                                                                                                                                                                                                                                                                                                                                                                                                                                                                                                                                                                                 
02465110136510070DT67590675900000007666800101800000010180010124001193096900012000012040620230000000442509623000000000071268438419XXXXXX2682       VS11    0001111   NYV1 A E463096530427394N8400000000044254W7G00    05DNPLANET VAPOR INC #300    004402    VD84000000004425 N  599977384654                            000000000+                F DF 00381                     000000000  N000000000       0000000000000.00 0000000.00   0000000.00                             000000000000000                                                                                                                                                     01418 A000000000000 0000000000000.50     00800 01500                  
02465120136510071DT67590675900000007666800101800000010180010177287283096900012000022040620230000000237509623000000000071268531258XXXXXX7748       MS02WI09          NY 1 0 AMDJKEITE00406  N840000000002375          05DNPLANET VAPOR INC #300    150733    MD84000000002375 N  599977384654                            000000000+M10101C5434C    MDJ  10815                     000000000  1                0000000000000.00 0000000.00   0000000.00                             000000000000000                                                                                                                                                   B101418  000000000000 0000000000000.23     00050 02200                  
02465130136510072DT67590675900000007666800101800000010180010124001193096900012000038040620230000000215909623000000000071268415977XXXXXX4588       VS11    0001111   NYV1 A E583096565544320N8400000000021599J6600    07DNPLANET VAPOR INC #300    050952    VD84000000002159 N  599977384654                            000000000+                F DF 10433                     000000000  Y000000000 338   0000000000000.00 0000000.00   0000000.00                             000000000000000                                                                                                                                                     01418 A000000000000 0000000000000.23     00050 02200                  
02465140136510073DT67590675900000007666800101800000010180010124001193096900012000046040620230000000418209623000000000071268433477XXXXXX1369       VS11    0001111   NYV1 A E463096570722761N840000000004182L4MD00    05DNPLANET VAPOR INC #300    518760    VD84000000004182 N  599977384654                            000000000+                F DF 10433                     000000000  Y000000000 338   0000000000000.00 0000000.00   0000000.00                             000000000000000                                                                                                                                                     01418 A000000000000 0000000000000.24     00050 02200                  
02465150136510074DT67590675900000007666800101800000010180010177287283096900012000055040620230000000593809623000000000071268557588XXXXXX8231       MS02WI09          NY 1 0 AMDJN54W880406  N840000000005938          05DNPLANET VAPOR INC #300    647216    MD84000000005938 N  599977384654                            000000000+M10101C5434C    MDJ  00402                     000000000  N                0000000000000.00 0000000.00   0000000.00                             000000000000000                                                                                                                                                   B101418  000000000000 0000000000000.77     01050 01500                  
02465160136510075DT67590675900000007666800101800000010180010124001193096900012000061040620230000000496509623000000000071268438419XXXXXX3012       VS11    0001111   NYV1 A E463096587712357N840000000004965PCJV00    05DNPLANET VAPOR INC #300    021931    VD84000000004965 N  599977384654                            000000000+                F DF 00381                     000000000  N000000000       0000000000000.00 0000000.00   0000000.00                             000000000000000                                                                                                                                                     01418 A000000000000 0000000000000.55     00800 01500                  
02465170136510076DT67590675900000007666800101800000010180010124001193096900012000079040620230000000323809623000000000071268459954XXXXXX5095       VS11    0001111   NYV1 A E303096605594108N840000000003238VC4900    05DNPLANET VAPOR INC #300    H18232    VD84000000003238 N  599977384654                            000000000+                F DF 10433                     000000000  Y000000000 338   0000000000000.00 0000000.00   0000000.00                             000000000000000                                                                                                                                                     01418 A000000000000 0000000000000.24     00050 02200                  
02465180136510077DT67590675900000007666800101800000010180010124001193096900012000087040620230000000483009623000000000071268461675XXXXXX4132       VS11    0001111   NYV1 A E463096615591487N8400000000048304LD800    05DNPLANET VAPOR INC #300    625860    VD84000000004830 N  599977384654                            000000000+                F DF 00381                     000000000  N000000000       0000000000000.00 0000000.00   0000000.00                             000000000000000                                                                                                                                                     01418 A000000000000 0000000000000.54     00800 01500                  
02465190136510078DT67590675900000007666800101800000010180010124001193096900012000095040620230000000323809623000000000071268431243XXXXXX0542       VS11    0001111   NYV1 A E383096652836923N8400000000032382SML00    07DNPLANET VAPOR INC #300    006851    VS84000000003238 N  599977384654                            000000000+                A CA 12110                     000000000  N000000000 493   0000000000000.00 0000000.00   0000000.00                             000000000000000                                                                                                                                                     01418 A000000000000 0000000000000.59     01510 01000                  
02465200136510079DT67590675900000007666800101800000010180010124001193096900012000103040620230000000151109623000000000071268473703XXXXXX2000       VS11    0001111   NYV1 A E463096654084650N840000000001511SFNQ00    05DNPLANET VAPOR INC #300    040566    VD84000000001511 N  599977384654                            000000000+                F DF 10433                     000000000  Y000000000 338   0000000000000.00 0000000.00   0000000.00                             000000000000000                                                                                                                                                     01418 A000000000000 0000000000000.23     00050 02200                  
02465210136510080DT67590675900000007666800101800000010180010177287283096900012000113040620230000000785209623000000000071268531258XXXXXX2978       MS02WI09          NY 1 0 AMDJU9YBHU0406  N840000000007852          05DNPLANET VAPOR INC #300    164196    MD84000000007852 N  599977384654                            000000000+M10101C5434C    MDJ  10815                     000000000  1                0000000000000.00 0000000.00   0000000.00                             000000000000000                                                                                                                                                   B101418  000000000000 0000000000000.26     00050 02200                  
02465220136510081DT67590675900000007666800101800000010180010124001193096900012000129040620230000000252609623000000000071268498503XXXXXX7798       VS11    0001111   NYV1 A E463096680225593N8400000000025264TDF00    05DNPLANET VAPOR INC #300    006837    VD84000000002526 N  599977384654                            000000000+                F DF 00381                     000000000  N000000000       0000000000000.00 0000000.00   0000000.00                             000000000000000                                                                                                                                                     01418 A000000000000 0000000000000.35     00800 01500                  
02465230136510082DT67590675900000007666800101800000010180010124001193096900012000137040620230000000485809623000000000071268461675XXXXXX1373       VS11    0001111   NYV1 A E383096684591314N840000000004858XJQH00    05DNPLANET VAPOR INC #300    706300    VD84000000004858 N  599977384654                            000000000+                F DF 00381                     000000000  N000000000       0000000000000.00 0000000.00   0000000.00                             000000000000000                                                                                                                                                     01418 A000000000000 0000000000000.54     00800 01500                  
02465240136510083DT67590675900000007666800101800000010180010124001193096900012000145040620230000000359409623000000000071268443040XXXXXX9168       VS11    0001111   NYV1 A E463096704813891N84000000000359437LX00    05DNPLANET VAPOR INC #300    344128    VD84000000003594 N  599977384654                            000000000+                F DF 10433                     000000000  Y000000000 338   0000000000000.00 0000000.00   0000000.00                             000000000000000                                                                                                                                                     01418 A000000000000 0000000000000.24     00050 02200                  
02465250136510084DT67590675900000007666800101800000010180010124001193096900012000152040620230000000377809623000000000071268473703XXXXXX8650       VS11    0001111   NYV1 A E383096725977741N8400000000037785PL900    05DNPLANET VAPOR INC #300    012667    VD84000000003778 N  599977384654                            000000000+                F DF 10433                     000000000  Y000000000 338   0000000000000.00 0000000.00   0000000.00                             000000000000000                                                                                                                                                     01418 A000000000000 0000000000000.24     00050 02200                  
02465260136510085DT67590675900000007666800101800000010180010124001193096900012000160040620230000000269909623000000000071268461675XXXXXX8572       VS11    0001111   NYV1 A E303096825452501N840000000002699JCPP00    05DNPLANET VAPOR INC #300    888420    VD84000000002699 N  599977384654                            000000000+                F DF 00381                     000000000  N000000000       0000000000000.00 0000000.00   0000000.00                             000000000000000                                                                                                                                                     01418 A000000000000 0000000000000.37     00800 01500                  
02465270136510086DT67590675900000007666800101800000010180010124001193096900012000178040620230000000237509623000000000071268427199XXXXXX2176       VS11    0001111   NYV1 A E463096840120840N840000000002375ZT4G00    05DNPLANET VAPOR INC #300    537788    VD84000000002375 N  599977384654                            000000000+                F DF 00381                     000000000  N000000000       0000000000000.00 0000000.00   0000000.00                             000000000000000                                                                                                                                                     01418 A000000000000 0000000000000.34     00800 01500                  
02465280136510087DT67590675900000007666800101800000010180010177287283096900012000188040620230000000213709623000000000071268531258XXXXXX0739       MS02WI09          NY 1 0 AMDJOSRXJP0406  N840000000002137          05DNPLANET VAPOR INC #300    133793    MD84000000002137 N  599977384654                            000000000+M10101C5434C    MDJ  10815                     000000000  1                0000000000000.00 0000000.00   0000000.00                             000000000000000                                                                                                                                                   B101418  000000000000 0000000000000.23     00050 02200                  
02465290136510088DT67590675900000007666800101800000010180010177287283096900012000196040620230000000458809623000000000071268515676XXXXXX8009       MS02WI09          NY 1 0 AMWELBGVR90406  N840000000004588          05DNPLANET VAPOR INC #300    06778Z    MC84000000004588 N  599977384654                            000000000+M10101C5434C    MWE  00739                     000000000  N                0000000000000.00 0000000.00   0000000.00                             000000000000000                                                                                                                                                   B101418  000000000000 0000000000001.16     02300 01000                  
02465300136510089BH6759067590000001094280010180000090170406202309623000000000126603    0000090001220032N8001016759C04072023                                                                                                                                                                                                                                                                                                                                                                                                                                                                                                                                                                                                 
02465310136510090DT67590675900000010942800101800000010180010124001193096900012200018040620230000000149609623000000000126603440066XXXXXX5263       VK04VS111111111   NYV1 A E583096508529970N8400000000014968Z8Z00    05DNPLANET VAPOR INC #800    03583D    VS84000000001496 N  599971384997                            000000000+                D CD 12113                     000000000  N000000000 499   0000000000000.00 0000000.00   0000000.00                             000000000000000                                                                                                                                                     01418 F000000000000 0000000000000.41     02100 01000                  
02465320136510091DT67590675900000010942800101800000010180010124001193096900012200026040620230000000283709623000000000126603408138XXXXXX8222       VS11    0001111   NYV1 A E383096534449322N840000000002837MLKQ00    07DNPLANET VAPOR INC #800    645712    VD84000000002837 N  599971384997                            000000000+                F PF 08170                     000000000  N000000000       0000000000000.00 0000000.00   0000000.00                             000000000000000                                                                                                                                                     01418 A000000000000 0000000000000.48     01150 01500                  
02465330136510092DT67590675900000010942800101800000010180010176509753096900012200032040620230000000154509623000000000126603653949XXXXXX4635   BA82                  NY41 0 N873082485932775N840000000001545    00    07DNPLANET VAPOR INC #800    00660R    DS84000000001545 N  599971384997830                         000000000+0000004910H00   DCCDI01000332597  111633000000 000000000  0          112   0000000000000.00 0000000.00   0000000.00                             000000000000000                                                                                                                                                     01418  000000000000 0000000000000.37     01720 01000                  
02465340136510093DT67590675900000010942800101800000010180010124001193096900012200042040620230000000320809623000000000126603473703XXXXXX1142       VS11    0001111   NYV1 A E463096582069784N840000000003208QP8S00    05DNPLANET VAPOR INC #800    072882    VD84000000003208 N  599971384997                            000000000+                F DF 10433                     000000000  Y000000000 338   0000000000000.00 0000000.00   0000000.00                             000000000000000                                                                                                                                                     01418 A000000000000 0000000000000.24     00050 02200                  
02465350136510094DT67590675900000010942800101800000010180010124001193096900012200059040620230000000235309623000000000126603466189XXXXXX2032       VS11    0001111   NYV1 A E583096588968005N84000000000235343S300    07DNPLANET VAPOR INC #800    042410    VD84000000002353 N  599971384997                            000000000+                F DF 10433                     000000000  Y000000000 338   0000000000000.00 0000000.00   0000000.00                             000000000000000                                                                                                                                                     01418 A000000000000 0000000000000.23     00050 02200                  
02465360136510095DT67590675900000010942800101800000010180010124001193096900012200067040620230000000738009623000000000126603414709XXXXXX3899       VS11    0001111   NYV1 A E303096590978809N840000000007380D4SC00    07DNPLANET VAPOR INC #800    03747D    VS84000000007380 N  599971384997                            000000000+                D CD 12113                     000000000  N000000000 499   0000000000000.00 0000000.00   0000000.00                             000000000000000                                                                                                                                                     01418 A000000000000 0000000000001.65     02100 01000                  
02465370136510096DT67590675900000010942800101800000010180010124001193096900012200075040620230000000267409623000000000126603423223XXXXXX9002       VS11    0001111   NYV1 A E383096604750704N840000000002674BK6W00    05DNPLANET VAPOR INC #800    017792    VD84000000002674 N  599971384997                            000000000+                F DF 00381                     000000000  N000000000       0000000000000.00 0000000.00   0000000.00                             000000000000000                                                                                                                                                     01418 A000000000000 0000000000000.36     00800 01500                  
02465380136510097DT67590675900000010942800101800000010180010124001193096900012200083040620230000000235309623000000000126603409742XXXXXX4473       VS11    0001111   NYV1 A E463096605190347N840000000002353927B00    07DNPLANET VAPOR INC #800    094812    VD84000000002353 N  599971384997                            000000000+                F DF 10433                     000000000  Y000000000 338   0000000000000.00 0000000.00   0000000.00                             000000000000000                                                                                                                                                     01418 A000000000000 0000000000000.23     00050 02200                  
02465390136510098DT67590675900000010942800101800000010180010124001193096900012200091040620230000000134709623000000000126603465992XXXXXX4019       VK04VS111111111   NYV1 A E303096605853103N840000000001347Z5SS00    07DNPLANET VAPOR INC #800    580234    VD84000000001347 N  599971384997                            000000000+                F DF 00451                     000000000  N000000000 214   0000000000000.00 0000000.00   0000000.00                             000000000000000                                                                                                                                                     01418 F000000000000 0000000000000.25     01550 00400                  
02465400136510099DT67590675900000010942800101800000010180010176509753096900012200107040620230000000227309623000000000126603653949XXXXXX4635   BA82                  NY41 0 N873082551645043N840000000002273    00    07DNPLANET VAPOR INC #800    00613R    DS84000000002273 N  599971384997830                         000000000+0000004910H00   DCCDI01000832520  130604000000 000000000  0          112   0000000000000.00 0000000.00   0000000.00                             000000000000000                                                                                                                                                     01418  000000000000 0000000000000.49     01720 01000                  
02465410136510100DT67590675900000010942800101800000010180010124001193096900012200117040620230000000759509623000000000126603426684XXXXXX6660       VS11    0001111   NYV1 A E463096626008509N840000000007595SQR500    07DNPLANET VAPOR INC #800    09611B    VS84000000007595 N  599971384997                            000000000+                B CB 12111                     000000000  N000000000 495   0000000000000.00 0000000.00   0000000.00                             000000000000000                                                                                                                                                     01418 A000000000000 0000000000001.35     01650 01000                  
02465420136510101DT67590675900000010942800101800000010180010124001193096900012200125040620230000000561509623000000000126603414740XXXXXX1675       VS11    0001111   NYV1 A E383096631189465N8400000000056158FTF00    05DNPLANET VAPOR INC #800    04761C    VS84000000005615 N  599971384997                            000000000+                C CC 12112                     000000000  N000000000 497   0000000000000.00 0000000.00   0000000.00                             000000000000000                                                                                                                                                     01418 A000000000000 0000000000001.03     01650 01000                  
02465430136510102DT67590675900000010942800101800000010180010173011003096900012200139040620230000000513409623000000000126603379303XXXXX1004                          NY 1 0 N007550353780064N840000000005134          07DNPLANET VAPOR INC #800    834979    AM84000000005134 N  599971384997                            000000000+51010X55434C 258     11261                     000000000                   0000000000000.00 0000000.00   0000000.00                             000000000000000 61248972086759675900000010942 PLANET VAPOR INC #800    2247 SUNSET BLVD         8035462263      29169     KEVIN@MOOREDISTRO.COM                     01418  000000000000 0000000000000.92     01600 00000                  
02465440136510103DT67590675900000010942800101800000010180010177287283096900012200143040620230000000235309623000000000126603517546XXXXXX9962       MS02WI09          NY 1 0 AMDJQZ1NHP0406  N840000000002353          05DNPLANET VAPOR INC #800    006818    MD84000000002353 N  599971384997                            000000000+M10101C5434C    MDJ  10815                     000000000  1                0000000000000.00 0000000.00   0000000.00                             000000000000000                                                                                                                                                   B101418  000000000000 0000000000000.23     00050 02200                  
02465450136510104DT67590675900000010942800101800000010180010177287283096900012200150040620230000000235309623000000000126603516403XXXXXX3229       MS02WI09          NY 1 0 AMDJLQCCHU0406  N840000000002353          05DNPLANET VAPOR INC #800    087333    MD84000000002353 N  599971384997                            000000000+M10101C5434C    MDJ  00402                     000000000  N                0000000000000.00 0000000.00   0000000.00                             000000000000000                                                                                                                                                   B101418  000000000000 0000000000000.40     01050 01500                  
02465460136510105DT67590675900000010942800101800000010180010124001193096900012200166040620230000000235309623000000000126603406049XXXXXX9283       VS11    0001111   NYV1 A E463096650853023N840000000002353WSF500    05DNPLANET VAPOR INC #800    030446    VD84000000002353 N  599971384997                            000000000+                F DF 10433                     000000000  Y000000000 338   0000000000000.00 0000000.00   0000000.00                             000000000000000                                                                                                                                                     01418 A000000000000 0000000000000.23     00050 02200                  
02465470136510106DT67590675900000010942800101800000010180010124001193096900012200174040620230000000213909623000000000126603438419XXXXXX2510       VS11    0001111   NYV1 A E463096659584510N8400000000021393ZW400    05DNPLANET VAPOR INC #800    041918    VD84000000002139 N  599971384997                            000000000+                F DF 00381                     000000000  N000000000       0000000000000.00 0000000.00   0000000.00                             000000000000000                                                                                                                                                     01418 A000000000000 0000000000000.32     00800 01500                  
02465480136510107DT67590675900000010942800101800000010180010124001193096900012200182040620230000000269509623000000000126603400022XXXXXX9374       VS11    0001111   NYV1 A E463096661708572N8400000000026953N5700    05DNPLANET VAPOR INC #800    677070    VD84000000002695 N  599971384997                            000000000+                F DF 10433                     000000000  Y000000000 338   0000000000000.00 0000000.00   0000000.00                             000000000000000                                                                                                                                                     01418 A000000000000 0000000000000.23     00050 02200                  
02465490136510108DT67590675900000010942800101800000010180010124001193096900012200190040620230000000233909623000000000126603408138XXXXXX8869       VS11    0001111   NYV1 A E383096687428886N840000000002339XFR300    07DNPLANET VAPOR INC #800    002991    VD84000000002339 N  599971384997                            000000000+                F PF 08170                     000000000  N000000000       0000000000000.00 0000000.00   0000000.00                             000000000000000                                                                                                                                                     01418 A000000000000 0000000000000.42     01150 01500                  
02465500136510109DT67590675900000010942800101800000010180010124001193096900012200208040620230000000299409623000000000126603461675XXXXXX9752       VS11    0001111   NYV1 A E383096689764270N840000000002994R7LX00    05DNPLANET VAPOR INC #800    712590    VD84000000002994 N  599971384997                            000000000+                F DF 00381                     000000000  N000000000       0000000000000.00 0000000.00   0000000.00                             000000000000000                                                                                                                                                     01418 A000000000000 0000000000000.39     00800 01500                  
02465510136510110DT67590675900000010942800101800000010180010124001193096900012200216040620230000000070409623000000000126603434256XXXXXX4687       VK04VS111111111   NYV1 A E383096701621240N840000000000704WJXW00    05DNPLANET VAPOR INC #800    027973    VD84000000000704 N  599971384997                            000000000+                F DF 10439                     000000000  Y000000000 331   0000000000000.00 0000000.00   0000000.00                             000000000000000                                                                                                                                                     01418 F000000000000 0000000000000.22     00050 02200                  
02465520136510111DT67590675900000010942800101800000010180010124001193096900012200224040620230000000235309623000000000126603445761XXXXXX4254       VS11    0001111   NYV1 A E383096703851543N840000000002353P36900    05DNPLANET VAPOR INC #800    728140    VD84000000002353 N  599971384997                            000000000+                F DF 00381                     000000000  N000000000       0000000000000.00 0000000.00   0000000.00                             000000000000000                                                                                                                                                     01418 A000000000000 0000000000000.34     00800 01500                  
02465530136510112DT67590675900000010942800101800000010180010124001193096900012200232040620230000000128309623000000000126603466188XXXXXX4728       VK04VS111111111   NYV1 A E583096722360184N840000000001283GQVC00    07DNPLANET VAPOR INC #800    075208    VD84000000001283 N  599971384997                            000000000+                F DF 10439                     000000000  Y000000000 331   0000000000000.00 0000000.00   0000000.00                             000000000000000                                                                                                                                                     01418 F000000000000 0000000000000.23     00050 02200                  
02465540136510113DT67590675900000010942800101800000010180010124001193096900012200240040620230000000909309623000000000126603483312XXXXXX7140       VS11    0001111   NYV1 A E303096743888064N8400000000090937WXN00    05DNPLANET VAPOR INC #800    083916    VD84000000009093 N  599971384997                            000000000+                F DF 10433                     000000000  Y000000000 338   0000000000000.00 0000000.00   0000000.00                             000000000000000                                                                                                                                                     01418 A000000000000 0000000000000.27     00050 02200                  
02465550136510114DT67590675900000010942800101800000010180010124001193096900012200257040620230000001069809623000000000126603411770XXXXXX4414       VS11    0001111   NYV1 A E463096769990769N840000000010698XJT500    05DNPLANET VAPOR INC #800    102937    VD84000000010698 N  599971384997                            000000000+                F DF 10433                     000000000  Y000000000 338   0000000000000.00 0000000.00   0000000.00                             000000000000000                                                                                                                                                     01418 A000000000000 0000000000000.27     00050 02200                  
02465560136510115DT67590675900000010942800101800000010180010177287283096900012200267040620230000000235309623000000000126603514377XXXXXX7410       MS02WI09          NY 1 0 AMDJKRFAPN0406  N840000000002353          05DNPLANET VAPOR INC #800    1MA4VO    MD84000000002353 N  599971384997                            000000000+M10101C5434C    MDJ  00402                     000000000  N                0000000000000.00 0000000.00   0000000.00                             000000000000000                                                                                                                                                   B101418  000000000000 0000000000000.40     01050 01500                  
02465570136510116DT67590675900000010942800101800000010180010177287283096900012200275040620230000001123209623000000000126603552486XXXXXX7066       MS02WI09          NY 1 0 AMWEZQ5WJ50406  N840000000011232          05DNPLANET VAPOR INC #800    05024Z    MC84000000011232 N  599971384997                            000000000+M10101C5434C    MWE  00739                     000000000  N                0000000000000.00 0000000.00   0000000.00                             000000000000000                                                                                                                                                   B101418  000000000000 0000000000002.68     02300 01000                  
02465580136510117DT67590675900000010942800101800000010180010124001193096900012200281040620230000000211809623000000000126603448261XXXXXX1578       VS11    0001111   NYV1 A E583096796567336N8400000000021189FX300    05DNPLANET VAPOR INC #800    332639    VD84000000002118 N  599971384997                            000000000+                F DF 10433                     000000000  Y000000000 338   0000000000000.00 0000000.00   0000000.00                             000000000000000                                                                                                                                                     01418 A000000000000 0000000000000.23     00050 02200                  
