00003340200500002BH6759067590000001857280010580000090170410202310023000000000034546    0000090001330011N8001056759C04102023                                                                                                                                                                                                                                                                                                                                                                                                                                                                                                                                                                                                 
00003350200500003DT67590675900000018572800105800000010180010576509753100900013300033040920230000000754010023000000000034546601101XXXXXX2624   BA05                  NY41 0 N863085128422767N840000000007540    00    07DNGALLERY SMOKE SHOP LLC   00913B    DZ84000000007540 N  599977453598830                         000000000+0000004910H00   DMCDI01012499533  124042000000 000000000  0          124   0000000000000.00 0000000.00   0000000.00                             000000000000000                                                                                                                                                     01424  000000000000 0000000000002.00     02450 01500                  
00003360200500004DT67590675900000018572800105800000010180010524001193100900013300050040920230000000256710023000000000034546421783XXXXXX5766       VS11    0001111   NYV1 A E583099627027046N840000000002567RF4R00    05DNGALLERY SMOKE SHOP LLC   031772    VS84000000002567 N  599977453598                            000000000+                A CA 12110                     000000000  N000000000 493   0000000000000.00 0000000.00   0000000.00                             000000000000000                                                                                                                                                     01424 A000000000000 0000000000000.49     01510 01000                  
00003370200500005DT67590675900000018572800105800000033080010576759003100900013300014040920230000000120410023000000000034546440393XXXXXX1572                         NY 2 0 N               N840000000001204      IL  05DNGALLERY SMOKE SHOP LLC   868113    DB84000000001204 N  599977453598                            000000000+                     09576                                N          346   0000000000000.00 0000000.00   0000000.00                             000000000000000                                                                                                                                                     01424  000000000000 0000000000000.29     01150 00000                  
00003380200500006DT67590675900000018572800105800000033080010576759003100900013300022040920230000000455610023000000000034546443041XXXXXX7318                         NY 2 0 N               N840000000004556      IL  05DNGALLERY SMOKE SHOP LLC   498852    DB84000000004556 N  599977453598                            000000000+                     09580                                Y          342   0000000000000.00 0000000.00   0000000.00                             000000000000000                                                                                                                                                     01424  000000000000 0000000000000.24     00050 00000                  
00003390200500007DT67590675900000018572800105800000033080010576759003100900013300048040920230000000008010023000000000034546443041XXXXXX7318                         NY 2 0 N               N840000000000080      IL  05DNGALLERY SMOKE SHOP LLC   510244    DB84000000000080 N  599977453598                            000000000+                     09580                                Y          342   0000000000000.00 0000000.00   0000000.00                             000000000000000                                                                                                                                                     01424  000000000000 0000000000000.22     00050 00000                  
00003400200500008DT67590675900000018572800105800000033080010576759003100900013300063040920230000000008010023000000000034546443041XXXXXX7318                         NY 2 0 N               N840000000000080      IL  05DNGALLERY SMOKE SHOP LLC   525592    DB84000000000080 N  599977453598                            000000000+                     09580                                Y          342   0000000000000.00 0000000.00   0000000.00                             000000000000000                                                                                                                                                     01424  000000000000 0000000000000.22     00050 00000                  
00003410200500009DT67590675900000018572800105800000033080010576759003100900013300071040920230000000599010023000000000034546443512XXXXXX2194                         NY 2 0 N               N840000000005990      IL  05DNGALLERY SMOKE SHOP LLC   987850    DB84000000005990 N  599977453598                            000000000+                     09590                                N          279   0000000000000.00 0000000.00   0000000.00                             000000000000000                                                                                                                                                     01424  000000000000 0000000000000.63     00800 00000                  
00003420200500010DT67590675900000018572800105800000033080010576759003100900013300089040920230000000240610023000000000034546531260XXXXXX9855                         NY42 0 N               N840000000002406      ME  05DNGALLERY SMOKE SHOP LLC   184944    DB84000000002406 N  599977453598                            000000000+                     09601                                1          MA1   0000000000000.00 0000000.00   0000000.00                             000000000000000                                                                                                                                                     01424  000000000000 0000000000000.23     00050 00000                  
00003430200500011DT67590675900000018572800105800000033080010576759003100900013300097040920230000000030110023000000000034546443041XXXXXX7318                         NY 2 0 N               N840000000000301      IL  05DNGALLERY SMOKE SHOP LLC   567145    DB84000000000301 N  599977453598                            000000000+                     09580                                Y          342   0000000000000.00 0000000.00   0000000.00                             000000000000000                                                                                                                                                     01424  000000000000 0000000000000.22     00050 00000                  
00003440200500012DT67590675900000018572800105800000033080010576759003100900013300105040920230000000597110023000000000034546473702XXXXXX4572                         NY 2 0 N               N840000000005971      IL  07DNGALLERY SMOKE SHOP LLC   048886    DB84000000005971 N  599977453598                            000000000+                     09580                                Y          342   0000000000000.00 0000000.00   0000000.00                             000000000000000                                                                                                                                                     01424  000000000000 0000000000000.25     00050 00000                  
00003450200500013DT67590675900000018572800105800000033080010576759003100900013300113040920230000000385110023000000000034546472815XXXXXX5066                         NY 2 0 N               N840000000003851      IL  07DNGALLERY SMOKE SHOP LLC   084718    DB84000000003851 N  599977453598                            000000000+                     09580                                Y          342   0000000000000.00 0000000.00   0000000.00                             000000000000000                                                                                                                                                     01424  000000000000 0000000000000.24     00050 00000                  
00003460200500014BH6759067590000001165080088880000090170410202310023000000000079981    0000090001580014N8008886759C04102023                                                                                                                                                                                                                                                                                                                                                                                                                                                                                                                                                                                                 
00003470200500015DT67590675900000011650800888800000010180088824001193100900015800016040820230000000290010023000000000079981491712XXXXXX1435       VS11    0001111   NYV1 A E463099138716887N840000000002900LVMR00    07DNVPODS HOLDING INC        015123    VD84000000002900 N  599977032122                            000000000+                F DF 10433                     000000000  Y000000000 338   0000000000000.00 0000000.00   0000000.00                             000000000000000                                                                                                                                                     01424 A000000000000 0000000000000.23     00050 02200                  
00003480200500016DT67590675900000011650800888800000010180088824001193100900015800024040820230000000226410023000000000079981427082XXXXXX8570       VS11    0001111   NYV1 A E383099143705771N840000000002264BXJ200    07DNVPODS HOLDING INC        008380    VS84000000002264 N  599977032122                            000000000+                D CD 12113                     000000000  N000000000 499   0000000000000.00 0000000.00   0000000.00                             000000000000000                                                                                                                                                     01424 A000000000000 0000000000000.58     02100 01000                  
00003490200500017DT67590675900000011650800888800000010180088824001193100900015800032040820230000000305710023000000000079981414720XXXXXX8385       VS11    0001111   NYV1 A E583099147098819N8400000000030575H9700    05DNVPODS HOLDING INC        05280D    VS84000000003057 N  599977032122                            000000000+                D CD 12113                     000000000  N000000000 499   0000000000000.00 0000000.00   0000000.00                             000000000000000                                                                                                                                                     01424 A000000000000 0000000000000.74     02100 01000                  
00003500200500018DT67590675900000011650800888800000010180088824001193100900015800040040920230000001267110023000000000079981414720XXXXXX2105       VS11    0001111   NYV1 A E303099645850424N840000000012671LPFS00    05DNVPODS HOLDING INC        08760C    VS84000000012671 N  599977032122                            000000000+                C CC 12112                     000000000  N000000000 497   0000000000000.00 0000000.00   0000000.00                             000000000000000                                                                                                                                                     01424 A000000000000 0000000000002.19     01650 01000                  
00003510200500019DT67590675900000011650800888800000010180088877287283100900015800059040920230000000099910023000000000079981559619XXXXXX6366       MS02WI09          NY 1 0 AMDJDKPPKO0409  N840000000000999          07DNVPODS HOLDING INC        190068    MD84000000000999 N  599977032122                            000000000+M10101M0034C    MDJ  10815                     000000000  1                0000000000000.00 0000000.00   0000000.00                             000000000000000                                                                                                                                                   A101424  000000000000 0000000000000.22     00050 02200                  
00003520200500020DT67590675900000011650800888800000010180088824001193100900015800065040920230000002575010023000000000079981423223XXXXXX9330       VS11    0001111   NYV1 A E303099671686420N8400000000257504NW400    05DNVPODS HOLDING INC        001567    VD84000000025750 N  599977032122                            000000000+                F DF 00381                     000000000  N000000000       0000000000000.00 0000000.00   0000000.00                             000000000000000                                                                                                                                                     01424 A000000000000 0000000000002.21     00800 01500                  
00003530200500021DT67590675900000011650800888800000010180088877287283100900015800075040920230000000962510023000000000079981521730XXXXXX1811       MS02WI09          NY 2 0 AMDJJAS4KU0409  N840000000009625          07DNVPODS HOLDING INC        041657    MD84000000009625 N  599977032122                            000000000+M10101M1334C    MDJ  10815                     000000000  1                0000000000000.00 0000000.00   0000000.00                             000000000000000                                                                                                                                                   B101424  000000000000 0000000000000.27     00050 02200                  
00003540200500022DT67590675900000011650800888800000010180088877287283100900015800083040920230000000226510023000000000079981517805XXXXXX0277       MS02WI09          NY 1 0 AMCWSVFFPI0409  N840000000002265          05DNVPODS HOLDING INC        01118P    MC84000000002265 N  599977032122                            000000000+M10101C5434C    MCW  00644                     000000000  N                0000000000000.00 0000000.00   0000000.00                             000000000000000                                                                                                                                                   B101424  000000000000 0000000000000.53     01900 01000                  
00003550200500023DT67590675900000011650800888800000010180088877287283100900015800091040920230000000029910023000000000079981515026XXXXXX3801       MS02WI09          NY 1 0 AMDSIAKV1H0409  N840000000000299          07DNVPODS HOLDING INC        166322    MD84000000000299 N  599977032122                            000000000+M10101M0034C    MDS  00402                     000000000  N                0000000000000.00 0000000.00   0000000.00                             000000000000000                                                                                                                                                   B101424  000000000000 0000000000000.18     01050 01500                  
00003560200500024DT67590675900000011650800888800000010180088824001193100900015800107040920230000000305710023000000000079981419002XXXXXX0040       VS11    0001111   NYV1 A E463099805616789N8400000000030573D8L00    07DNVPODS HOLDING INC        032248    VD84000000003057 N  599977032122                            000000000+                F DF 10433                     000000000  Y000000000 338   0000000000000.00 0000000.00   0000000.00                             000000000000000                                                                                                                                                     01424 A000000000000 0000000000000.24     00050 02200                  
00003570200500025DT67590675900000011650800888800000010180088824001193100900015800115040920230000000339610023000000000079981447639XXXXXX1710               0001111   NYV1 B E463099834596376N8400000000033964FSP00    07DNVPODS HOLDING INC        011059    VD84000000003396FN  599977032122                            000000000+                F DF 00022                     000000000  N000000000       0000000000000.00 0000000.0000 0000000.34D                            000000000000000                                                                                                                                                     01424 A000000000000 0000000000000.37     01100 00000                  
00003580200500026DT67590675900000011650800888800000010180088877287283100900015800125040920230000000283010023000000000079981542543XXXXXX5460       MS02WI09          NY 1 0 AMDHU3UTPI0409  N840000000002830          07DNVPODS HOLDING INC        014789    MD84000000002830 N  599977032122                            000000000+M10101M0034C    MDH  00402                     000000000  N                0000000000000.00 0000000.00   0000000.00                             000000000000000                                                                                                                                                   B101424  000000000000 0000000000000.45     01050 01500                  
00003590200500027DT67590675900000011650800888800000010180088824001193100900015800131040920230000000679310023000000000079981489750XXXXXX4401       VS11    0001111   NYV1 A E583099863838902N840000000006793J48400    07DNVPODS HOLDING INC        035919    VD84000000006793 N  599977032122                            000000000+                F DF 10433                     000000000  Y000000000 338   0000000000000.00 0000000.00   0000000.00                             000000000000000                                                                                                                                                     01424 A000000000000 0000000000000.25     00050 02200                  
00003600200500028DT67590675900000011650800888800000010180088824001193100900015800149040920230000000407510023000000000079981426684XXXXXX8694       VS11    0001111   NYV1 A E583100017707162N840000000004075L9HQ00    07DNVPODS HOLDING INC        07924C    VS84000000004075 N  599977032122                            000000000+                C CC 12112                     000000000  N000000000 497   0000000000000.00 0000000.00   0000000.00                             000000000000000                                                                                                                                                     01424 A000000000000 0000000000000.77     01650 01000                  
