00001570161680002BH6759067590000000017480000180000090171107202231122000000000000100    0000090001150001Y8000016759C11082022                                                                                                                                                                                                                                                                                                                                                                                                                                                                                                                                                                                                 
00001580161680003DT67590675900000000174800001800000010180000177287282311900011500015110720220000000010031122000000000000100558158XXXXXX7298                         NY 1 0 AMDBH4NDTS1107  N840000000000100          05DNVERMONT STATE BANK       2FFD4P    MD84000000000100 NP1549975549271                            000000000+M10101C5434C    MDB  00063                     000000000  N                0000000000000.00 0000000.00   0000000.00                             000000000000000                                                                                                                                                   B101424  000000000000 0000000000000.12     02050 01000                  
00001590161680001P1675906759000000001748000018000000101                                                 000000000000000000000          1000   000000000390335740            000000000000                                                                                                                                                                                                                                                                                                                                                                                                                                                                                                                                    
