03069960532040002BH6759067590000001165080088880000090170223202305423000000000020635    0000090001120007N8008886759C02242023                                                                                                                                                                                                                                                                                                                                                                                                                                                                                                                                                                                                 
03069970532040003DT67590675900000011650800888800000010180088824001193054900011200019022220230000000283805423000000000020635465992XXXXXX5013       VS11    0001111   NYV1 A E303053625479345N840000000002838CJMJ00    07DNVPODS HOLDING INC        548271    VD84000000002838 N  599977032122                            000000000+                F DF 00381                     000000000  N000000000       0000000000000.00 0000000.00   0000000.00                             000000000000000                                                                                                                                                     01418 A000000000000 0000000000000.38     00800 01500                  
03069980532040004DT67590675900000011650800888800000010180088824001193054900011200027022220230000000057405423000000000020635419002XXXXXX5021       VK04VS111111111   NYV1 A E583053670995448N8400000000005744XLH00    07DNVPODS HOLDING INC        011761    VD84000000000574 N  599977032122                            000000000+                F DF 10439                     000000000  Y000000000 331   0000000000000.00 0000000.00   0000000.00                             000000000000000                                                                                                                                                     01418 F000000000000 0000000000000.22     00050 02200                  
03069990532040005DT67590675900000011650800888800000010180088824001193054900011200035022220230000000360405423000000000020635434236XXXXXX9826       VS11    0001111   NYV1 A E303053674284856N840000000003604QLFW00    07DNVPODS HOLDING INC        063963    VD84000000003604 N  599977032122                            000000000+                F DF 00381                     000000000  N000000000       0000000000000.00 0000000.00   0000000.00                             000000000000000                                                                                                                                                     01418 A000000000000 0000000000000.44     00800 01500                  
03070000532040006DT67590675900000011650800888800000010180088824001193054900011200043022220230000000567505423000000000020635426684XXXXXX3513       VS11    0001111   NYV1 A E583053772120654N840000000005675PFDL00    07DNVPODS HOLDING INC        09591B    VS84000000005675 N  599977032122                            000000000+                B CB 12111                     000000000  N000000000 495   0000000000000.00 0000000.00   0000000.00                             000000000000000                                                                                                                                                     01418 A000000000000 0000000000001.04     01650 01000                  
03070010532040007DT67590675900000011650800888800000010180088824001193054900011200050022220230000000113405423000000000020635414720XXXXXX1709       VK04VS111111111   NYV1 A E463053780151515N840000000001134CQVP00    07DNVPODS HOLDING INC        00460C    VS84000000001134 N  599977032122                            000000000+                C CC 12112                     000000000  N000000000 497   0000000000000.00 0000000.00   0000000.00                             000000000000000                                                                                                                                                     01418 F000000000000 0000000000000.29     01650 01000                  
03070020532040008DT67590675900000011650800888800000010180088824001193054900011200068022220230000000340505423000000000020635426684XXXXXX8852       VS11    0001111   NYV1 A E583053801001810N8400000000034055WRH00    07DNVPODS HOLDING INC        05012C    VS84000000003405 N  599977032122                            000000000+                C CC 12112                     000000000  N000000000 497   0000000000000.00 0000000.00   0000000.00                             000000000000000                                                                                                                                                     01418 A000000000000 0000000000000.66     01650 01000                  
03070030532040009DT67590675900000011650800888800000010180088824001193054900011200076022220230000000340505423000000000020635414720XXXXXX5008       VS11    0001111   NYV1 A E303053842343225N8400000000034056LMR00    07DNVPODS HOLDING INC        00651I    VS84000000003405 N  599977032122                            000000000+                I CI 12113                     000000000  N000000000 499   0000000000000.00 0000000.00   0000000.00                             000000000000000                                                                                                                                                     01418 A000000000000 0000000000000.82     02100 01000                  
03070040532040010BH6759067590000000288180088880000090170223202305423000000000140862    0000090001530027N8008886759C02242023                                                                                                                                                                                                                                                                                                                                                                                                                                                                                                                                                                                                 
03070050532040011DT67590675900000002881800888800000010180088824001193054900015300013022320230000000482705423000000000140862419090XXXXXX1856       VS11    0001111   NYV1 A E383054545544025N840000000004827GX4M00    05DNHAPPY HIPPIE             820784    VD84000000004827 N  549976487158                            000000000+                F DF 00381                     000000000  N000000000       0000000000000.00 0000000.00   0000000.00                             000000000000000                                                                                                                                                     01418 A000000000000 0000000000000.54     00800 01500                  
03070060532040012DT67590675900000002881800888800000010180088824001193054900015300021022320230000000068605423000000000140862480639XXXXXX8059       VK04VS111111111   NYV1 A E303054546997840N840000000000686RZ3C00    05DNHAPPY HIPPIE             368001    VD84000000000686 N  549976487158                            000000000+                F DF 00451                     000000000  N000000000 214   0000000000000.00 0000000.00   0000000.00                             000000000000000                                                                                                                                                     01418 F000000000000 0000000000000.15     01550 00400                  
03070070532040013DT67590675900000002881800888800000010180088877287283054900015300031022320230000000696805423000000000140862551571XXXXXX4045       MS02WI09          NY 2 0 AMDJOR39740223  N840000000006968          05DNHAPPY HIPPIE             170092    MD84000000006968 N  549976487158                            000000000+M10101C1334C    MDJ  00402                     000000000  N                0000000000000.00 0000000.00   0000000.00                             000000000000000                                                                                                                                                   B101418  000000000000 0000000000000.88     01050 01500                  
03070080532040014DT67590675900000002881800888800000010180088824001193054900015300047022320230000000108505423000000000140862419090XXXXXX8394       VK04VS111111111   NYV1 A E383054594887691N840000000001085LCF600    05DNHAPPY HIPPIE             823337    VD84000000001085 N  549976487158                            000000000+                F DF 00451                     000000000  N000000000 214   0000000000000.00 0000000.00   0000000.00                             000000000000000                                                                                                                                                     01418 F000000000000 0000000000000.21     01550 00400                  
03070090532040015DT67590675900000002881800888800000010180088824001193054900015300054022320230000000395005423000000000140862443264XXXXXX3780       VS11    0001111   NYV1 A E383054613890866N840000000003950BHQJ00    05DNHAPPY HIPPIE             005724    VD84000000003950 N  549976487158                            000000000+                F DF 10433                     000000000  Y000000000 338   0000000000000.00 0000000.00   0000000.00                             000000000000000                                                                                                                                                     01418 A000000000000 0000000000000.24     00050 02200                  
03070100532040016DT67590675900000002881800888800000010180088824001193054900015300062022320230000000680305423000000000140862423223XXXXXX1397       VS11    0001111   NYV1 A E583054620361210N840000000006803K4KJ00    05DNHAPPY HIPPIE             086037    VD84000000006803 N  549976487158                            000000000+                F DF 00381                     000000000  N000000000       0000000000000.00 0000000.00   0000000.00                             000000000000000                                                                                                                                                     01418 A000000000000 0000000000000.69     00800 01500                  
03070110532040017DT67590675900000002881800888800000010180088824001193054900015300070022320230000001580005423000000000140862463405XXXXXX6925       VS11    0001111   NYV1 A E303054622978992N840000000015800LTJS00    05DNHAPPY HIPPIE             007312    VD84000000015800 N  549976487158                            000000000+                F DF 10433                     000000000  Y000000000 338   0000000000000.00 0000000.00   0000000.00                             000000000000000                                                                                                                                                     01418 A000000000000 0000000000000.30     00050 02200                  
03070120532040018DT67590675900000002881800888800000010180088877287283054900015300080022320230000000200705423000000000140862514377XXXXXX4851       MS02WI09          NY 1 0 AMDJJCS6OR0223  N840000000002007          05DNHAPPY HIPPIE             2ZEPDM    MD84000000002007 N  549976487158                            000000000+M10101C5434C    MDJ  00402                     000000000  N                0000000000000.00 0000000.00   0000000.00                             000000000000000                                                                                                                                                   B101418  000000000000 0000000000000.36     01050 01500                  
03070130532040019DT67590675900000002881800888800000010180088824001193054900015300096022320230000000626905423000000000140862400022XXXXXX0750       VS11    0001111   NYV1 A E463054655064229N840000000006269KPK700    05DNHAPPY HIPPIE             503778    VD84000000006269 N  549976487158                            000000000+                F DF 10433                     000000000  Y000000000 338   0000000000000.00 0000000.00   0000000.00                             000000000000000                                                                                                                                                     01418 A000000000000 0000000000000.25     00050 02200                  
03070140532040020DT67590675900000002881800888800000010180088824001193054900015300104022320230000000325805423000000000140862435546XXXXXX0476       VS11    0001111   NYV1 A E303054655613089N8400000000032585T8F00    05DNHAPPY HIPPIE             064086    VD84000000003258 N  549976487158                            000000000+                F DF 10433                     000000000  Y000000000 338   0000000000000.00 0000000.00   0000000.00                             000000000000000                                                                                                                                                     01418 A000000000000 0000000000000.24     00050 02200                  
03070150532040021DT67590675900000002881800888800000010180088824001193054900015300112022320230000000721605423000000000140862419090XXXXXX3166       VS11    0001111   NYV1 A E583054658729546N840000000007216SBJT00    05DNHAPPY HIPPIE             827358    VD84000000007216 N  549976487158                            000000000+                F DF 00381                     000000000  N000000000       0000000000000.00 0000000.00   0000000.00                             000000000000000                                                                                                                                                     01418 A000000000000 0000000000000.73     00800 01500                  
03070160532040022DT67590675900000002881800888800000010180088824001193054900015300120022320230000000691305423000000000140862449507XXXXXX6597       VS11    0001111   NYV1 A E463054703536786N840000000006913KRXK00    05DNHAPPY HIPPIE             043233    VD84000000006913 N  549976487158                            000000000+                F DF 00381                     000000000  N000000000       0000000000000.00 0000000.00   0000000.00                             000000000000000                                                                                                                                                     01418 A000000000000 0000000000000.70     00800 01500                  
03070170532040023DT67590675900000002881800888800000010180088877287283054900015300130022320230000000158005423000000000140862511953XXXXXX4908       MS02WI09          NY 1 0 AMDJD56UCK0223  N840000000001580          05DNHAPPY HIPPIE             059167    MD84000000001580 N  549976487158                            000000000+M10101C5434C    MDJ  00402                     000000000  N                0000000000000.00 0000000.00   0000000.00                             000000000000000                                                                                                                                                   B101418  000000000000 0000000000000.32     01050 01500                  
03070180532040024DT67590675900000002881800888800000010180088877287283054900015300148022320230000000395005423000000000140862517805XXXXXX9817       MS02WI09          NY 1 0 AMPLE6KHOR0223  N840000000003950          05DNHAPPY HIPPIE             00377B    MC84000000003950 N  549976487158                            000000000+M10101C5434C    MPL  00364                     000000000  N                0000000000000.00 0000000.00   0000000.00                             000000000000000                                                                                                                                                   B101418  000000000000 0000000000000.75     01800 00400                  
03070190532040025DT67590675900000002881800888800000010180088824001193054900015300153022320230000000027405423000000000140862435880XXXXXX1453       VK04VS111111111   NYV1 A E383054722569075N840000000000274ZXHR00    90DNHAPPY HIPPIE             674843    VD84000000000274 N  549976487158                            000000000+                F PF 08165                     000000000  N000000000       0000000000000.00 0000000.00   0000000.00                             000000000000000                                                                                                                                                     01418 F000000000000 0000000000000.09     01600 00500                  
03070200532040026DT67590675900000002881800888800000010180088824001193054900015300161022320230000000690005423000000000140862473916XXXXXX6307       VS11    0001111   NYV1 A E303054725820194N840000000006900T2F700    05DNHAPPY HIPPIE             050942    VD84000000006900 N  549976487158                            000000000+                G DG 08704                     000000000  N000000000       0000000000000.00 0000000.00   0000000.00                             000000000000000                                                                                                                                                     01418 A000000000000 0000000000001.27     01700 01000                  
03070210532040027DT67590675900000002881800888800000010180088824001193054900015300179022320230000000383905423000000000140862419090XXXXXX8251       VS11    0001111   NYV1 A E303054730064198N840000000003839BZ4L00    05DNHAPPY HIPPIE             831607    VD84000000003839 N  549976487158                            000000000+                F DF 00381                     000000000  N000000000       0000000000000.00 0000000.00   0000000.00                             000000000000000                                                                                                                                                     01418 A000000000000 0000000000000.46     00800 01500                  
03070220532040028DT67590675900000002881800888800000010180088877287283054900015300189022320230000000438905423000000000140862518941XXXXXX3808       MS02WI09          NY 1 0 AMWEQ7QLOV0223  N840000000004389          05DNHAPPY HIPPIE             32842Z    MC84000000004389 N  549976487158                            000000000+M10101C5434C    MWE  00743                     000000000  N                0000000000000.00 0000000.00   0000000.00                             000000000000000                                                                                                                                                   B101418  000000000000 0000000000001.05     02300 00400                  
03070230532040029DT67590675900000002881800888800000010180088824001193054900015300195022320230000000153405423000000000140862445101XXXXXX8548       VS11    0001111   NYV1 A E583054773320862N840000000001534D6BX00    05DNHAPPY HIPPIE             340654    VD84000000001534 N  549976487158                            000000000+                F DF 10433                     000000000  Y000000000 338   0000000000000.00 0000000.00   0000000.00                             000000000000000                                                                                                                                                     01418 A000000000000 0000000000000.23     00050 02200                  
03070240532040030DT67590675900000002881800888800000010180088877287283054900015300205022320230000000910705423000000000140862555426XXXXXX2067       MS02WI09          NY 1 0 AMPGG0MXCK0223  N840000000009107          90DNHAPPY HIPPIE             053736    MD84000000009107 N  549976487158                            000000000+M10101B5434C    MPG  11964                     000000000  N                0000000000000.00 0000000.00   0000000.00                             000000000000000                                                                                                                                                   C101418  000000000000 0000000000001.20     01150 01500                  
03070250532040031DT67590675900000002881800888800000010180088824001193054900015300211022320230000000237105423000000000140862422921XXXXXX6466       VS11    0001111   NYV1 A E383054790699716N840000000002371LVB900    05DNHAPPY HIPPIE             061070    VD84000000002371 N  549976487158                            000000000+                F DF 00381                     000000000  N000000000       0000000000000.00 0000000.00   0000000.00                             000000000000000                                                                                                                                                     01418 A000000000000 0000000000000.34     00800 01500                  
03070260532040032DT67590675900000002881800888800000010180088824001193054900015300229022320230000000578305423000000000140862480639XXXXXX5822       VS11    0001111   NYV1 A E303054804787027N840000000005783CN3P00    05DNHAPPY HIPPIE             380421    VD84000000005783 N  549976487158                            000000000+                F DF 00381                     000000000  N000000000       0000000000000.00 0000000.00   0000000.00                             000000000000000                                                                                                                                                     01418 A000000000000 0000000000000.61     00800 01500                  
03070270532040033DT67590675900000002881800888800000010180088824001193054900015300237022320230000000548805423000000000140862423223XXXXXX5781       VS11    0001111   NYV1 A E583054808628364N84000000000548822D200    05DNHAPPY HIPPIE             064545    VD84000000005488 N  549976487158                            000000000+                F DF 00381                     000000000  N000000000       0000000000000.00 0000000.00   0000000.00                             000000000000000                                                                                                                                                     01418 A000000000000 0000000000000.59     00800 01500                  
03070280532040034DT67590675900000002881800888800000010180088824001193054900015300245022320230000000296205423000000000140862480639XXXXXX4885       VS11    0001111   NYV1 A E383054809889950N840000000002962Z3BT00    05DNHAPPY HIPPIE             380719    VD84000000002962 N  549976487158                            000000000+                F DF 00381                     000000000  N000000000       0000000000000.00 0000000.00   0000000.00                             000000000000000                                                                                                                                                     01418 A000000000000 0000000000000.39     00800 01500                  
03070290532040035DT67590675900000002881800888800000010180088824001193054900015300252022320230000000506905423000000000140862473702XXXXXX1005       VS11    0001111   NYV1 A E583054813171979N840000000005069R3SF00    05DNHAPPY HIPPIE             076184    VD84000000005069 N  549976487158                            000000000+                F DF 10433                     000000000  Y000000000 338   0000000000000.00 0000000.00   0000000.00                             000000000000000                                                                                                                                                     01418 A000000000000 0000000000000.25     00050 02200                  
03070300532040036DT67590675900000002881800888800000010180088824001193054900015300260022320230000001185005423000000000140862419090XXXXXX9453       VS11    0001111   NYV1 A E383054822289934N8400000000118506TZZ00    05DNHAPPY HIPPIE             837405    VD84000000011850 N  549976487158                            000000000+                F DF 00381                     000000000  N000000000       0000000000000.00 0000000.00   0000000.00                             000000000000000                                                                                                                                                     01418 A000000000000 0000000000001.10     00800 01500                  
03070310532040037DT67590675900000002881800888800000010180088877287283054900015300270022320230000000998405423000000000140862544928XXXXXX0396       MS02WI09          NY 2 0 AMDJOHKXEQ0223  N840000000009984          05DNHAPPY HIPPIE             H75271    MD84000000009984 N  549976487158                            000000000+M10101C1334C    MDJ  10815                     000000000  1                0000000000000.00 0000000.00   0000000.00                             000000000000000                                                                                                                                                   B101418  000000000000 0000000000000.27     00050 02200                  
03070320532040038BH6759067590000000288180088880000090170223202305423000000000038031    0000090001520007N8008886759C02242023                                                                                                                                                                                                                                                                                                                                                                                                                                                                                                                                                                                                 
03070330532040039DT67590675900000002881800888800000010180088824001193054900015200015022320230000000888905423000000000038031406032XXXXXX5726       VS11    0001111   NYV1 A E583054605390380N840000000008889GDJS00    05DNHAPPY HIPPIE             094811    VD84000000008889 N  549976487134                            000000000+                F DF 10433                     000000000  Y000000000 338   0000000000000.00 0000000.00   0000000.00                             000000000000000                                                                                                                                                     01418 A000000000000 0000000000000.26     00050 02200                  
03070340532040040DT67590675900000002881800888800000010180088824001193054900015200023022320230000000087705423000000000038031473702XXXXXX9413       VK04VS111111111   NYV1 A E303054680233729N840000000000877SDPN00    05DNHAPPY HIPPIE             018609    VD84000000000877 N  549976487134                            000000000+                F DF 10439                     000000000  Y000000000 331   0000000000000.00 0000000.00   0000000.00                             000000000000000                                                                                                                                                     01418 F000000000000 0000000000000.22     00050 02200                  
03070350532040041DT67590675900000002881800888800000010180088824001193054900015200031022320230000000087705423000000000038031473702XXXXXX2077       VK04VS111111111   NYV1 A E463054682108426N8400000000008779WSP00    05DNHAPPY HIPPIE             066600    VD84000000000877 N  549976487134                            000000000+                F DF 10439                     000000000  Y000000000 331   0000000000000.00 0000000.00   0000000.00                             000000000000000                                                                                                                                                     01418 F000000000000 0000000000000.22     00050 02200                  
03070360532040042DT67590675900000002881800888800000010180088824001193054900015200049022320230000000492405423000000000038031435547XXXXXX4208       VS11    0001111   NYV1 A E583054682903626N840000000004924RKRT00    05DNHAPPY HIPPIE             033097    VD84000000004924 N  549976487134                            000000000+                F DF 10433                     000000000  Y000000000 338   0000000000000.00 0000000.00   0000000.00                             000000000000000                                                                                                                                                     01418 A000000000000 0000000000000.24     00050 02200                  
03070370532040043DT67590675900000002881800888800000010180088877287283054900015200058022320230000000274305423000000000038031511953XXXXXX9256       MS02WI09          NY 1 0 AMDJTMWCOR0223  N840000000002743          05DNHAPPY HIPPIE             026356    MD84000000002743 N  549976487134                            000000000+M10101C5434C    MDJ  00402                     000000000  N                0000000000000.00 0000000.00   0000000.00                             000000000000000                                                                                                                                                   B101418  000000000000 0000000000000.44     01050 01500                  
03070380532040044DT67590675900000002881800888800000010180088877287283054900015200066022320230000001646305423000000000038031511975XXXXXX4657                         NY 1 0 AMDBV681CJ0223  N840000000016463          05DNHAPPY HIPPIE             033308    MD84000000016463 NP1549976487134                            000000000+M10101C5434C    MDB  00062                     000000000  N                0000000000000.00 0000000.00   0000000.00                             000000000000000                                                                                                                                                   B101418  000000000000 0000000000004.46     02650 01000                  
03070390532040001P1675906759000000028818008888000000101                                                          000000000000          3000            814767769                                                                                                                                                                                                                                                                                                                                                                                                                                                                                                                                                            
03070400532040045DT67590675900000002881800888800000010180088824001193054900015200072022320230000000325805423000000000038031415978XXXXXX5624       VS11    0001111   NYV1 A E463054759961883N8400000000032589LGH00    05DNHAPPY HIPPIE             030424    VD84000000003258 N  549976487134                            000000000+                F DF 10433                     000000000  Y000000000 338   0000000000000.00 0000000.00   0000000.00                             000000000000000                                                                                                                                                     01418 A000000000000 0000000000000.24     00050 02200                  
03070410532040046BH6759067590000000215480088880000090170223202305423000000002676379    0000090001163358N8008886759C02242023                                                                                                                                                                                                                                                                                                                                                                                                                                                                                                                                                                                                 
03070420532040047DT67590675900000002154800888800000010180088824001193054900011635818022320230000003059105423000000002676379484738XXXXXX1248               2111111   NYV4 A7W383054825290726N840000000030591WZ9S00    01DNDRIP DROP DISTRO LLC     05883G    VB84000000030591 NP1519971004114   INV-000894               000000000+                G3CG308002                     000000000  N000000000 381   0000000000000.00 0000000.00   0000000.00                             000000000000000                                                                                                                                                     01418 G000000030591 0000000000008.67     02800 01000                  
03070430532040001P16759067590000000215480088880000001010000000000000000    43958635216              2000000000000000000000000              000000000000                    0000000000000000000000000                    000000000000                                                                                                                                                                                                                                                                                                                                                                                                                                                                                        
03070440532040048DT67590675900000002154800888800000010180088887287283054900011610036022320230000005050005423000000002676379523914XXXXXX7472       ME03KE06PT01      NY 4607AMCWOZEUOR0223  N840000000050500          81DNDRIP DROP DISTRO LLC     03117S    MC84000000050500 N  519900000001   INV-000886               000000000+600450S00140    MCW  02182                     000000000  N                0000000000000.00 0000000.00   0000000.00                             000000000000000                                                                                                                                                   U001418  000000000000 0000000000013.23     02600 01000                  
03070450532040049DT67590675900000002154800888800000010180088824001193054900011644133022320230000027140505423000000002676379431231XXXXXX3435               2111111   NYV4 A7W383054584634325N840000000271405FZ4W00    01DNDRIP DROP DISTRO LLC     031411    VD84000000271405 NP1519971004114   17464                    000000000+                G DG 10352                     000000000  Y000000000 338   0000000000000.00 0000000.00   0000000.00                             000000000000000                                                                                                                                                     01418 G000000271405 0000000000001.58     00050 02200                  
03070460532040001P16759067590000000215480088880000001010000000000000000    43957746917              2000000000000000000000000              000000000000                    0000000000000000000000000                    000000000000                                                                                                                                                                                                                                                                                                                                                                                                                                                                                        
03070470532040050DT67590675900000002154800888800000010180088824001193054900011604350022320230000189920005423000000002676379414720XXXXXX2969               2111111   NYV4 A7W583053833818521N840000001899200QDF300    01DNDRIP DROP DISTRO LLC     08239D    VS84000001899200 NP1519971004114   INV-000859               000000000+                D CD 12109                     000000000  N000000000 498   0000000000000.00 0000000.00   0000000.00                             000000000000000                                                                                                                                                     01418 G000001899200 0000000000474.90     02500 01000                  
03070480532040001P16759067590000000215480088880000001010000000000000000                             2000000000000000000000000              000000000000                    0000000000000000000000000                    000000000000                                                                                                                                                                                                                                                                                                                                                                                                                                                                                        
03070490532040051DT67590675900000002154800888800000010180088887287283054900011665956022320230000002060005423000000002676379547415XXXXXX7571                         NY 4607AMEBS7SZOR0223  N840000000020600          81DNDRIP DROP DISTRO LLC     00920Q    MB84000000020600 NP1519900000001   17465                    000000000+600450S00140    MEB  11637                     000000000  N                0000000000000.00 0000000.00   0000000.00                             000000000000000                                                                                                                                                   U001418  000000000000 0000000000006.28     03000 01000                  
03070500532040001P1675906759000000021548008888000000101                                                          000000000000          8000            471534935                                                                                                                                                                                                                                                                                                                                                                                                                                                                                                                                                            
03070510532040052DT67590675900000002154800888800000010180088887287283054900011611661022320230000004800005423000000002676379542418XXXXXX7893       ME03KE06MS02      NY 4607AMWEW9XTOR0223  N840000000048000          81DNDRIP DROP DISTRO LLC     42325P    MC84000000048000 N  519900000001   INV-000888               000000000+600450S00140    MWE  00737                     000000000  N                0000000000000.00 0000000.00   0000000.00                             000000000000000                                                                                                                                                   U001418  000000000000 0000000000012.58     02600 01000                  
03070520532040053DT67590675900000002154800888800000010180088873011003054900011639337022320230000004635005423000000002676379376743XXXXX1002                          NY 4 07N007213856988060N840000000046350          01DNDRIP DROP DISTRO LLC     104961    AM84000000046350 N  519971004114                            000000000+6004S0600140 258     11244                     000000000                   0000000000000.00 0000000.00   0000000.00                             000000000000000 61248972736759675900000002154 DRIP DROP DISTRO LLC     1445 W COMMERCE AVE SUITE2087248209      83705     TROY@DRIPDROPDISTRO.COM                   01418  000000000000 0000000000008.91     01900 00000                  
03070530532040054DT67590675900000002154800888800000010180088824001193054900011663505022320230000007776005423000000002676379426930XXXXXX0531               2111111   NYV4 A7W463054671933967N840000000077760V4NH00    01DNDRIP DROP DISTRO LLC     08626G    VB84000000077760 NP1519971004114   INV-000875               000000000+                G5CG511887                     000000000  N000000000 163   0000000000000.00 0000000.00   0000000.00                             000000000000000                                                                                                                                                     01418 G000000077760 0000000000023.43     03000 01000                  
03070540532040001P16759067590000000215480088880000001010000000000000000    43958084327              2000000000000000000000000              000000000000                    0000000000000000000000000                    000000000000                                                                                                                                                                                                                                                                                                                                                                                                                                                                                        
03070550532040055DT67590675900000002154800888800000010180088873011003054900011633611022320230000020197305423000000002676379376741XXXXX1001                          NY 4 07N007213294376068N840000000201973          01DNDRIP DROP DISTRO LLC     141641    AM84000000201973 N  519971004114                            000000000+6004S0600140 258     11244                     000000000                   0000000000000.00 0000000.00   0000000.00                             000000000000000 61248972736759675900000002154 DRIP DROP DISTRO LLC     1445 W COMMERCE AVE SUITE2087248209      83705     TROY@DRIPDROPDISTRO.COM                   01418  000000000000 0000000000038.47     01900 00000                  
03070560532040056DT67590675900000002154800888800000010180088824001193054900011633581022320230000003000005423000000002676379424631XXXXXX3390               2111111   NYV4 A7W303054817951670N8400000000300008KNN00    01DNDRIP DROP DISTRO LLC     09477G    VB84000000030000 NP1519971004114   INV-000895               000000000+                G4CG411355                     000000000  N000000000 377   0000000000000.00 0000000.00   0000000.00                             000000000000000                                                                                                                                                     01418 G000000030000 0000000000008.95     02950 01000                  
03070570532040001P16759067590000000215480088880000001010000000000000000    43958614014              2000000000000000000000000              000000000000                    0000000000000000000000000                    000000000000                                                                                                                                                                                                                                                                                                                                                                                                                                                                                        
03070580532040057BH6759067590000000561180088880000090170223202305423000000000020788    0000090001177323N8008886759C02242023                                                                                                                                                                                                                                                                                                                                                                                                                                                                                                                                                                                                 
03070590532040058DT67590675900000005611800888800000010180088887287283054900011773230022320230000002078805423000000000020788528072XXXXXX3811       ME03KE06PT01      NY 4607AMCWV4AO740223  N840000000020788          81DNK DIVINE 503-689-7182    01378S    MC84000000020788 N  549900000001   5243                     000000000+600450S00140    MCW  02182                     000000000  N                0000000000000.00 0000000.00   0000000.00                             000000000000000                                                                                                                                                   U001418  000000000000 0000000000005.50     02600 01000                  
03070600532040059BH6759067590000000589280010180000090170223202305423000000000016598    0000090001101543N8001016759C02242023                                                                                                                                                                                                                                                                                                                                                                                                                                                                                                                                                                                                 
03070610532040060DT67590675900000005892800101800000010180010124001193054900011087762022320230000000519805423000000000016598457431XXXXXX8086               2111111   NYV4 A7W583054211747606N840000000005198FBNT00    01DNPLANET VAPOR INC         H40518    VD84000000005198 NP1599971004114   14376441                 000000000+                F DF 10420                     000000000  Y000000000 338   0000000000000.00 0000000.00   0000000.00                             000000000000000                                                                                                                                                     01418 G000000005198 0000000000000.25     00050 02200                  
03070620532040001P16759067590000000589280010180000001010000000000000000                             2000000000000000000000000              000000000000                    0000000000000000000000000                    000000000000                                                                                                                                                                                                                                                                                                                                                                                                                                                                                        
03070630532040061DT67590675900000005892800101800000010180010124001193054900011015433022320230000001140005423000000000016598408540XXXXXX7511               2111111   NYV4 A7W463054524609751N840000000011400KNXC00    01DNPLANET VAPOR INC         083421    VD84000000011400 NP1599971004114   630734                   000000000+                G DG 10352                     000000000  Y000000000 338   0000000000000.00 0000000.00   0000000.00                             000000000000000                                                                                                                                                     01418 G000000011400 0000000000000.28     00050 02200                  
03070640532040001P16759067590000000589280010180000001010000000000000000    43957525653              2000000000000000000000000              000000000000                    0000000000000000000000000                    000000000000                                                                                                                                                                                                                                                                                                                                                                                                                                                                                        
03070650532040062BH6759067590000001107280010180000090170223202305423000000000000853    0000090001180001N8001016759C02242023                                                                                                                                                                                                                                                                                                                                                                                                                                                                                                                                                                                                 
03070660532040063DT67590675900000011072800101800000010180010124001193054900011800016022320230000000085305423000000000000853473703XXXXXX7050       VK04VS111111111   NYV1 A E463054813229677N840000000000853KSSJ00    07DNPLANET VAPOR #900        052780    VD84000000000853 N  599976923588                            000000000+                F DF 10439                     000000000  Y000000000 331   0000000000000.00 0000000.00   0000000.00                             000000000000000                                                                                                                                                     01418 F000000000000 0000000000000.22     00050 02200                  
03070670532040064BH6759067590000001094280010180000090170223202305423000000000058989    0000090001150014N8001016759C02242023                                                                                                                                                                                                                                                                                                                                                                                                                                                                                                                                                                                                 
03070680532040065DT67590675900000010942800101800000010180010124001193054900011500012022320230000000887605423000000000058989473703XXXXXX1142       VS11    0001111   NYV1 A E463054576992069N8400000000088765B5Z00    05DNPLANET VAPOR #800        064502    VD84000000008876 N  599976923545                            000000000+                F DF 10433                     000000000  Y000000000 338   0000000000000.00 0000000.00   0000000.00                             000000000000000                                                                                                                                                     01418 A000000000000 0000000000000.26     00050 02200                  
03070690532040066DT67590675900000010942800101800000010180010124001193054900011500020022320230000000181805423000000000058989430602XXXXXX8743       VS11    0001111   NYV1 A E383054584703453N840000000001818LKCR00    05DNPLANET VAPOR #800        743948    VD84000000001818 N  599976923545                            000000000+                F DF 00381                     000000000  N000000000       0000000000000.00 0000000.00   0000000.00                             000000000000000                                                                                                                                                     01418 A000000000000 0000000000000.30     00800 01500                  
03070700532040067DT67590675900000010942800101800000010180010176509753054900011500036022320230000000220905423000000000058989653949XXXXXX4635   BA82                  NY41 0 N803046209340175N840000000002209    00    07DNPLANET VAPOR #800        02391R    DS84000000002209 N  599976923545830                         000000000+0000004910H00   DCCDI01000001112  113534000000 000000000  0          112   0000000000000.00 0000000.00   0000000.00                             000000000000000                                                                                                                                                     01418  000000000000 0000000000000.48     01720 01000                  
03070710532040068DT67590675900000010942800101800000010180010124001193054900011500046022320230000000500405423000000000058989481667XXXXXX4762       VS11    0001111   NYV1 A E463054638828782N840000000005004GX5600    07DNPLANET VAPOR #800        H19523    VD84000000005004 N  599976923545                            000000000+                F DF 10433                     000000000  Y000000000 338   0000000000000.00 0000000.00   0000000.00                             000000000000000                                                                                                                                                     01418 A000000000000 0000000000000.25     00050 02200                  
03070720532040069DT67590675900000010942800101800000010180010124001193054900011500053022320230000000423505423000000000058989481667XXXXXX5231       VS11    0001111   NYV1 A E303054639349620N840000000004235BGBT00    07DNPLANET VAPOR #800        H18855    VD84000000004235 N  599976923545                            000000000+                F DF 10433                     000000000  Y000000000 338   0000000000000.00 0000000.00   0000000.00                             000000000000000                                                                                                                                                     01418 A000000000000 0000000000000.24     00050 02200                  
03070730532040070DT67590675900000010942800101800000010180010176509753054900011500069022320230000000935905423000000000058989653949XXXXXX4635   BA82                  NY41 0 N753046279560282N840000000009359    00    07DNPLANET VAPOR #800        02379R    DS84000000009359 N  599976923545830                         000000000+0000004910H00   DCCDI01000167104  133236000000 000000000  0          112   0000000000000.00 0000000.00   0000000.00                             000000000000000                                                                                                                                                     01418  000000000000 0000000000001.71     01720 01000                  
03070740532040071DT67590675900000010942800101800000010180010173011003054900011500075022320230000000213905423000000000058989372153XXXXX6008                          NY 1 0 N006638229009072N840000000002139          05DNPLANET VAPOR INC #800    849608    AM84000000002139 N  599976923545                            000000000+51010155434C 258     11261                     000000000                   0000000000000.00 0000000.00   0000000.00                             000000000000000 61248972086759675900000010942 PLANET VAPOR INC #800    2247 SUNSET BLVD         8035462263      29169     KEVIN@MOOREDISTRO.COM                     01418  000000000000 0000000000000.44     01600 00000                  
03070750532040072DT67590675900000010942800101800000010180010177287283054900011500089022320230000000235305423000000000058989545443XXXXXX1701       MS02WI09          NY 1 0 AMDJQQMWOV0223  N840000000002353          05DNPLANET VAPOR #800        034357    MD84000000002353 N  599976923545                            000000000+M10101C5434C    MDJ  00402                     000000000  N                0000000000000.00 0000000.00   0000000.00                             000000000000000                                                                                                                                                   B101418  000000000000 0000000000000.40     01050 01500                  
03070760532040073DT67590675900000010942800101800000010180010124001193054900011500095022320230000000235305423000000000058989474474XXXXXX1441       VS11    0001111   NYV1 A E583054740898378N840000000002353NZ3W00    05DNPLANET VAPOR #800        113244    VD84000000002353 N  599976923545                            000000000+                F DF 10433                     000000000  Y000000000 338   0000000000000.00 0000000.00   0000000.00                             000000000000000                                                                                                                                                     01418 A000000000000 0000000000000.23     00050 02200                  
03070770532040074DT67590675900000010942800101800000010180010124001193054900011500103022320230000000299405423000000000058989465124XXXXXX9948       VS11    0001111   NYV1 A E583054791454046N8400000000029944KD500    07DNPLANET VAPOR #800        062568    VD84000000002994 N  599976923545                            000000000+                F DF 10433                     000000000  Y000000000 338   0000000000000.00 0000000.00   0000000.00                             000000000000000                                                                                                                                                     01418 A000000000000 0000000000000.23     00050 02200                  
03070780532040075DT67590675900000010942800101800000010180010124001193054900011500111022320230000000235305423000000000058989433477XXXXXX2726       VS11    0001111   NYV1 A E583054800752346N8400000000023533M8600    05DNPLANET VAPOR #800        441160    VD84000000002353 N  599976923545                            000000000+                F DF 10433                     000000000  Y000000000 338   0000000000000.00 0000000.00   0000000.00                             000000000000000                                                                                                                                                     01418 A000000000000 0000000000000.23     00050 02200                  
03070790532040076DT67590675900000010942800101800000010180010124001193054900011500129022320230000000181805423000000000058989483312XXXXXX3785       VS11    0001111   NYV1 A E463054855179344N840000000001818QMX900    07DNPLANET VAPOR #800        084518    VD84000000001818 N  599976923545                            000000000+                F DF 10433                     000000000  Y000000000 338   0000000000000.00 0000000.00   0000000.00                             000000000000000                                                                                                                                                     01418 A000000000000 0000000000000.23     00050 02200                  
03070800532040077DT67590675900000010942800101800000010180010124001193054900011500137022320230000000235305423000000000058989408138XXXXXX7129       VS11    0001111   NYV1 A E583055013889152N8400000000023537WHX00    07DNPLANET VAPOR #800        259677    VD84000000002353 N  599976923545                            000000000+                F PF 08170                     000000000  N000000000       0000000000000.00 0000000.00   0000000.00                             000000000000000                                                                                                                                                     01418 A000000000000 0000000000000.42     01150 01500                  
03070810532040078DT67590675900000010942800101800000010180010124001193054900011500145022320230000001112505423000000000058989448261XXXXXX6065       VS11    0001111   NYV1 A E383055031150338N8400000000111259DFN00    05DNPLANET VAPOR #800        667136    VD84000000011125 N  599976923545                            000000000+                F DF 10433                     000000000  Y000000000 338   0000000000000.00 0000000.00   0000000.00                             000000000000000                                                                                                                                                     01418 A000000000000 0000000000000.28     00050 02200                  
03070820532040079BH6759067590000000909280010180000090170223202305423000000000249465    0000090001160056N8001016759C02242023                                                                                                                                                                                                                                                                                                                                                                                                                                                                                                                                                                                                 
03070830532040080DT67590675900000009092800101800000010180010124001193054900011600010022320230000001663505423000000000249465430602XXXXXX5887       VS11    0001111   NYV1 A E303054546353527N840000000016635S7J900    05DNPLANET VAPOR #500        733744    VD84000000016635 N  599976781988                            000000000+                F DF 00381                     000000000  N000000000       0000000000000.00 0000000.00   0000000.00                             000000000000000                                                                                                                                                     01418 A000000000000 0000000000001.48     00800 01500                  
03070840532040081DT67590675900000009092800101800000010180010124001193054900011600028022320230000001187905423000000000249465414724XXXXXX0854       VS11    0001111   NYV1 A E303054553718726N840000000011879V94200    05DNPLANET VAPOR #500        25171D    VS84000000011879 N  599976781988                            000000000+                D CD 12113                     000000000  N000000000 499   0000000000000.00 0000000.00   0000000.00                             000000000000000                                                                                                                                                     01418 A000000000000 0000000000002.59     02100 01000                  
03070850532040082DT67590675900000009092800101800000010180010124001193054900011600036022320230000000326405423000000000249465440066XXXXXX5332       VS11    0001111   NYV1 A E383054576431468N840000000003264CC4F00    07DNPLANET VAPOR #500        02830A    VS84000000003264 N  599976781988                            000000000+                A CA 12110                     000000000  N000000000 493   0000000000000.00 0000000.00   0000000.00                             000000000000000                                                                                                                                                     01418 A000000000000 0000000000000.59     01510 01000                  
03070860532040083DT67590675900000009092800101800000010180010124001193054900011600044022320230000000431805423000000000249465466189XXXXXX0096       VS11    0001111   NYV1 A E583054590724152N840000000004318LNQD00    07DNPLANET VAPOR #500        084292    VD84000000004318 N  599976781988                            000000000+                F DF 10433                     000000000  Y000000000 338   0000000000000.00 0000000.00   0000000.00                             000000000000000                                                                                                                                                     01418 A000000000000 0000000000000.24     00050 02200                  
03070870532040084DT67590675900000009092800101800000010180010177287283054900011600053022320230000000987705423000000000249465528149XXXXXX6158       MS02WI09          NY 1 0 AMDJ1LM9520223  N840000000009877          05DNPLANET VAPOR #500        042320    MD84000000009877 N  599976781988                            000000000+M10101C5434C    MDJ  00402                     000000000  N                0000000000000.00 0000000.00   0000000.00                             000000000000000                                                                                                                                                   B101418  000000000000 0000000000001.19     01050 01500                  
03070880532040085DT67590675900000009092800101800000010180010124001193054900011600069022320230000000585305423000000000249465473703XXXXXX4281       VS11    0001111   NYV1 A E583054622913333N840000000005853WVBF00    07DNPLANET VAPOR #500        048230    VD84000000005853 N  599976781988                            000000000+                F DF 10433                     000000000  Y000000000 338   0000000000000.00 0000000.00   0000000.00                             000000000000000                                                                                                                                                     01418 A000000000000 0000000000000.25     00050 02200                  
03070890532040086DT67590675900000009092800101800000010180010124001193054900011600077022320230000000201405423000000000249465448233XXXXXX7905       VS11    0001111   NYV1 A E583054626077119N840000000002014579900    07DNPLANET VAPOR #500        012328    VD84000000002014 N  599976781988                            000000000+                F DF 10433                     000000000  Y000000000 338   0000000000000.00 0000000.00   0000000.00                             000000000000000                                                                                                                                                     01418 A000000000000 0000000000000.23     00050 02200                  
03070900532040087DT67590675900000009092800101800000010180010124001193054900011600085022320230000000431805423000000000249465410039XXXXXX1217       VS11    0001111   NYV1 A E383054627780470N840000000004318VBK800    07DNPLANET VAPOR #500        92873D    VS84000000004318 N  599976781988                            000000000+                D CD 12113                     000000000  N000000000 499   0000000000000.00 0000000.00   0000000.00                             000000000000000                                                                                                                                                     01418 A000000000000 0000000000001.01     02100 01000                  
03070910532040088DT67590675900000009092800101800000010180010124001193054900011600093022320230000000137505423000000000249465427199XXXXXX3079       VK04VS111111111   NYV1 A E383054640968915N840000000001375GWTF00    05DNPLANET VAPOR #500        778689    VD84000000001375 N  599976781988                            000000000+                F DF 00451                     000000000  N000000000 214   0000000000000.00 0000000.00   0000000.00                             000000000000000                                                                                                                                                     01418 F000000000000 0000000000000.25     01550 00400                  
03070920532040089DT67590675900000009092800101800000010180010124001193054900011600101022320230000000427505423000000000249465430602XXXXXX6502       VS11    0001111   NYV1 A E383054650579173N840000000004275BDKK00    05DNPLANET VAPOR #500        763374    VD84000000004275 N  599976781988                            000000000+                F DF 00381                     000000000  N000000000       0000000000000.00 0000000.00   0000000.00                             000000000000000                                                                                                                                                     01418 A000000000000 0000000000000.49     00800 01500                  
03070930532040090DT67590675900000009092800101800000010180010124001193054900011600119022320230000000647605423000000000249465473703XXXXXX5107       VS11    0001111   NYV1 A E383054652996499N8400000000064768BPR00    07DNPLANET VAPOR #500        077090    VD84000000006476 N  599976781988                            000000000+                F DF 10433                     000000000  Y000000000 338   0000000000000.00 0000000.00   0000000.00                             000000000000000                                                                                                                                                     01418 A000000000000 0000000000000.25     00050 02200                  
03070940532040091DT67590675900000009092800101800000010180010124001193054900011600127022320230000000809805423000000000249465440393XXXXXX8860       VS11    0001111   NYV1 A E463054658946631N840000000008098H32G00    07DNPLANET VAPOR #500        759252    VD84000000008098 N  599976781988                            000000000+                F PF 08170                     000000000  N000000000       0000000000000.00 0000000.00   0000000.00                             000000000000000                                                                                                                                                     01418 A000000000000 0000000000001.08     01150 01500                  
03070950532040092DT67590675900000009092800101800000010180010177287283054900011600137022320230000000323905423000000000249465558158XXXXXX6783                         NY 1 0 AMDBSC3DOR0223  N840000000003239          05DNPLANET VAPOR #500        2JGN48    MD84000000003239 NP1599976781988                            000000000+M10101C5434C    MDB  00062                     000000000  N                0000000000000.00 0000000.00   0000000.00                             000000000000000                                                                                                                                                   B101418  000000000000 0000000000000.96     02650 01000                  
03070960532040001P1675906759000000090928001018000000101                                                          000000000000          1000            472803059                                                                                                                                                                                                                                                                                                                                                                                                                                                                                                                                                            
03070970532040093DT67590675900000009092800101800000010180010177287283054900011600145022320230000000237505423000000000249465531258XXXXXX1518       MS02WI09          NY 1 0 AMDJUYQNCJ0223  N840000000002375          07DNPLANET VAPOR #500        112023    MD84000000002375 N  599976781988                            000000000+M10101M0034C    MDJ  10815                     000000000  1                0000000000000.00 0000000.00   0000000.00                             000000000000000                                                                                                                                                   B101418  000000000000 0000000000000.23     00050 02200                  
03070980532040094DT67590675900000009092800101800000010180010173011003054900011600156022320230000000431705423000000000249465379590XXXXX1001                          NY 1 0 N006637528094074N840000000004317          05DNPLANET VAPOR #500        889538    AM84000000004317 N  599976781988                            000000000+51010155434C 258     11261                     000000000                   0000000000000.00 0000000.00   0000000.00                             000000000000000 61248972086759675900000009092 PLANET VAPOR #500        1001 KINLEY RD UNIT A    8035462263      29063     KEVIN@MOOREDISTRO.COM                     01418  000000000000 0000000000000.79     01600 00000                  
03070990532040095DT67590675900000009092800101800000010180010124001193054900011600168022320230000000539705423000000000249465474489XXXXXX7768       VS11    0001111   NYV1 A E583054669713270N8400000000053977M7300    07DNPLANET VAPOR #500        113260    VD84000000005397 N  599976781988                            000000000+                F DF 10433                     000000000  Y000000000 338   0000000000000.00 0000000.00   0000000.00                             000000000000000                                                                                                                                                     01418 A000000000000 0000000000000.25     00050 02200                  
03071000532040096DT67590675900000009092800101800000010180010124001193054900011600176022320230000000248305423000000000249465473703XXXXXX9259       VS11    0001111   NYV1 A E583054671189250N8400000000024832ND400    07DNPLANET VAPOR #500        035542    VD84000000002483 N  599976781988                            000000000+                F DF 10433                     000000000  Y000000000 338   0000000000000.00 0000000.00   0000000.00                             000000000000000                                                                                                                                                     01418 A000000000000 0000000000000.23     00050 02200                  
03071010532040097DT67590675900000009092800101800000010180010124001193054900011600184022320230000000377905423000000000249465473702XXXXXX8235       VS11    0001111   NYV1 A E303054671701867N840000000003779696R00    07DNPLANET VAPOR #500        088548    VD84000000003779 N  599976781988                            000000000+                F DF 10433                     000000000  Y000000000 338   0000000000000.00 0000000.00   0000000.00                             000000000000000                                                                                                                                                     01418 A000000000000 0000000000000.24     00050 02200                  
03071020532040098DT67590675900000009092800101800000010180010124001193054900011600192022320230000000323805423000000000249465474474XXXXXX5598       VS11    0001111   NYV1 A E463054672265716N840000000003238FZXH00    07DNPLANET VAPOR #500        114201    VD84000000003238 N  599976781988                            000000000+                F DF 10433                     000000000  Y000000000 338   0000000000000.00 0000000.00   0000000.00                             000000000000000                                                                                                                                                     01418 A000000000000 0000000000000.24     00050 02200                  
03071030532040099DT67590675900000009092800101800000010180010124001193054900011600200022320230000000446805423000000000249465440393XXXXXX8010       VS11    0001111   NYV1 A E383054684454634N840000000004468W4W200    05DNPLANET VAPOR #500        056528    VD84000000004468 N  599976781988                            000000000+                F PF 08170                     000000000  N000000000       0000000000000.00 0000000.00   0000000.00                             000000000000000                                                                                                                                                     01418 A000000000000 0000000000000.66     01150 01500                  
03071040532040100DT67590675900000009092800101800000010180010124001193054900011600218022320230000000194305423000000000249465466189XXXXXX1189       VS11    0001111   NYV1 A E303054689243261N840000000001943Q2JF00    07DNPLANET VAPOR #500        038930    VD84000000001943 N  599976781988                            000000000+                F DF 10433                     000000000  Y000000000 338   0000000000000.00 0000000.00   0000000.00                             000000000000000                                                                                                                                                     01418 A000000000000 0000000000000.23     00050 02200                  
03071050532040101DT67590675900000009092800101800000010180010124001193054900011600226022320230000001787805423000000000249465423223XXXXXX1669       VS11    0001111   NYV1 A E583054692726279N840000000017878N8HG00    05DNPLANET VAPOR #500        051013    VD84000000017878 N  599976781988                            000000000+                F DF 00381                     000000000  N000000000       0000000000000.00 0000000.00   0000000.00                             000000000000000                                                                                                                                                     01418 A000000000000 0000000000001.58     00800 01500                  
03071060532040102DT67590675900000009092800101800000010180010124001193054900011600234022320230000000356205423000000000249465473703XXXXXX3526       VS11    0001111   NYV1 A E463054698319101N8400000000035624RJ900    07DNPLANET VAPOR #500        063515    VD84000000003562 N  599976781988                            000000000+                F DF 10433                     000000000  Y000000000 338   0000000000000.00 0000000.00   0000000.00                             000000000000000                                                                                                                                                     01418 A000000000000 0000000000000.24     00050 02200                  
03071070532040103DT67590675900000009092800101800000010180010124001193054900011600242022320230000000539805423000000000249465433477XXXXXX6850       VS11    0001111   NYV1 A E463054719601957N840000000005398R5JJ00    05DNPLANET VAPOR #500        309669    VD84000000005398 N  599976781988                            000000000+                F DF 10433                     000000000  Y000000000 338   0000000000000.00 0000000.00   0000000.00                             000000000000000                                                                                                                                                     01418 A000000000000 0000000000000.25     00050 02200                  
03071080532040104DT67590675900000009092800101800000010180010124001193054900011600259022320230000000431805423000000000249465423223XXXXXX6629       VS11    0001111   NYV1 A E463054721114962N840000000004318QG7800    05DNPLANET VAPOR #500        006030    VD84000000004318 N  599976781988                            000000000+                F DF 00381                     000000000  N000000000       0000000000000.00 0000000.00   0000000.00                             000000000000000                                                                                                                                                     01418 A000000000000 0000000000000.50     00800 01500                  
03071090532040105DT67590675900000009092800101800000010180010176509753054900011600265022320230000000213705423000000000249465601100XXXXXX4369   BA50                  NY41 0 N753046335540771N840000000002137    00    05DNPLANET VAPOR #500        02379R    DS84000000002137 N  599976781988050                         000000000+0000004910H00   DCCDI01000667123  150554000000 000000000  0          112   0000000000000.00 0000000.00   0000000.00                             000000000000000                                                                                                                                                     01418  000000000000 0000000000000.47     01720 01000                  
03071100532040106DT67590675900000009092800101800000010180010124001193054900011600275022320230000000215905423000000000249465478357XXXXXX7987       VS11    0001111   NYV1 A E463054726378286N840000000002159565G00    07DNPLANET VAPOR #500        020955    VD84000000002159 N  599976781988                            000000000+                F DF 00381                     000000000  N000000000       0000000000000.00 0000000.00   0000000.00                             000000000000000                                                                                                                                                     01418 A000000000000 0000000000000.32     00800 01500                  
03071110532040107DT67590675900000009092800101800000010180010124001193054900011600283022320230000000118705423000000000249465470793XXXXXX3455       VK04VS111111111   NYV1 A E383054728493998N840000000001187C6X400    07DNPLANET VAPOR #500        023906    VS84000000001187 N  599976781988                            000000000+                B CB 12111                     000000000  N000000000 495   0000000000000.00 0000000.00   0000000.00                             000000000000000                                                                                                                                                     01418 F000000000000 0000000000000.30     01650 01000                  
03071120532040108DT67590675900000009092800101800000010180010173011003054900011600297022320230000000340105423000000000249465379831XXXXX1002                          NY 1 0 N007212586970067N840000000003401          07DNPLANET VAPOR #500        869610    AM84000000003401 N  599976781988                            000000000+51010X50034C 258     11261                     000000000                   0000000000000.00 0000000.00   0000000.00                             000000000000000 61248972086759675900000009092 PLANET VAPOR #500        1001 KINLEY RD UNIT A    8035462263      29063     KEVIN@MOOREDISTRO.COM                     01418  000000000000 0000000000000.64     01600 00000                  
03071130532040109DT67590675900000009092800101800000010180010124001193054900011600309022320230000000553805423000000000249465474489XXXXXX7745       VS11    0001111   NYV1 A E383054760310881N840000000005538NPR200    07DNPLANET VAPOR #500        110871    VD84000000005538 N  599976781988                            000000000+                F DF 10433                     000000000  Y000000000 338   0000000000000.00 0000000.00   0000000.00                             000000000000000                                                                                                                                                     01418 A000000000000 0000000000000.25     00050 02200                  
03071140532040110DT67590675900000009092800101800000010180010124001193054900011600317022320230000000215605423000000000249465473702XXXXXX0048       VS11    0001111   NYV1 A E583054768548804N840000000002156RGM700    05DNPLANET VAPOR #500        066927    VD84000000002156 N  599976781988                            000000000+                F DF 10433                     000000000  Y000000000 338   0000000000000.00 0000000.00   0000000.00                             000000000000000                                                                                                                                                     01418 A000000000000 0000000000000.23     00050 02200                  
03071150532040111DT67590675900000009092800101800000010180010124001193054900011600325022320230000000194305423000000000249465498503XXXXXX7276       VS11    0001111   NYV1 A E463054773086264N840000000001943R62S00    05DNPLANET VAPOR #500        014558    VD84000000001943 N  599976781988                            000000000+                F DF 00381                     000000000  N000000000       0000000000000.00 0000000.00   0000000.00                             000000000000000                                                                                                                                                     01418 A000000000000 0000000000000.31     00800 01500                  
03071160532040112DT67590675900000009092800101800000010180010124001193054900011600333022320230000000134905423000000000249465414709XXXXXX5934       VK04VS111111111   NYV1 A E583054775262500N8400000000013498V6T00    05DNPLANET VAPOR #500        06219I    VS84000000001349 N  599976781988                            000000000+                I CI 12113                     000000000  N000000000 499   0000000000000.00 0000000.00   0000000.00                             000000000000000                                                                                                                                                     01418 F000000000000 0000000000000.38     02100 01000                  
03071170532040113DT67590675900000009092800101800000010180010177287283054900011600343022320230000000215905423000000000249465517805XXXXXX3428       MS02WI09          NY 1 0 AMCWHHW3CK0223  N840000000002159          05DNPLANET VAPOR #500        08868P    MC84000000002159 N  599976781988                            000000000+M10101C5434C    MCW  00644                     000000000  N                0000000000000.00 0000000.00   0000000.00                             000000000000000                                                                                                                                                   B101418  000000000000 0000000000000.51     01900 01000                  
03071180532040114DT67590675900000009092800101800000010180010124001193054900011600358022320230000000353505423000000000249465453506XXXXXX6452       VS11    0001111   NYV1 A E383054791221340N840000000003535R4XL00    05DNPLANET VAPOR #500        H59438    VD84000000003535 N  599976781988                            000000000+                F DF 10433                     000000000  Y000000000 338   0000000000000.00 0000000.00   0000000.00                             000000000000000                                                                                                                                                     01418 A000000000000 0000000000000.24     00050 02200                  
03071190532040115DT67590675900000009092800101800000010180010176509753054900011600364022320230000000410205423000000000249465601101XXXXXX9405   BA05                  NY41 0 N753046405189838N840000000004102    00    07DNPLANET VAPOR #500        02335B    DZ84000000004102 N  599976781988830                         000000000+0000004910H00   DMCDI01012332144  170158000000 000000000  0          124   0000000000000.00 0000000.00   0000000.00                             000000000000000                                                                                                                                                     01418  000000000000 0000000000001.15     02450 01500                  
03071200532040116DT67590675900000009092800101800000010180010124001193054900011600374022320230000000326405423000000000249465474474XXXXXX2222       VS11    0001111   NYV1 A E383054798900586N8400000000032648W5400    05DNPLANET VAPOR #500        111318    VD84000000003264 N  599976781988                            000000000+                F DF 10433                     000000000  Y000000000 338   0000000000000.00 0000000.00   0000000.00                             000000000000000                                                                                                                                                     01418 A000000000000 0000000000000.24     00050 02200                  
03071210532040117DT67590675900000009092800101800000010180010124001193054900011600382022320230000000323805423000000000249465455225XXXXXX9784       VS11    0001111   NYV1 A E383054801105372N840000000003238NBBC00    07DNPLANET VAPOR #500        H64816    VD84000000003238 N  599976781988                            000000000+                F DF 10433                     000000000  Y000000000 338   0000000000000.00 0000000.00   0000000.00                             000000000000000                                                                                                                                                     01418 A000000000000 0000000000000.24     00050 02200                  
03071220532040118DT67590675900000009092800101800000010180010124001193054900011600390022320230000000215905423000000000249465406095XXXXXX0063       VS11    0001111   NYV1 A E303054807987520N840000000002159MT5500    07DNPLANET VAPOR #500        09150C    VS84000000002159 N  599976781988                            000000000+                C CC 12112                     000000000  N000000000 497   0000000000000.00 0000000.00   0000000.00                             000000000000000                                                                                                                                                     01418 A000000000000 0000000000000.46     01650 01000                  
03071230532040119DT67590675900000009092800101800000010180010124001193054900011600408022320230000000583005423000000000249465473703XXXXXX1149       VS11    0001111   NYV1 A E463054809241625N840000000005830747V00    07DNPLANET VAPOR #500        036984    VD84000000005830 N  599976781988                            000000000+                F DF 10433                     000000000  Y000000000 338   0000000000000.00 0000000.00   0000000.00                             000000000000000                                                                                                                                                     01418 A000000000000 0000000000000.25     00050 02200                  
03071240532040120DT67590675900000009092800101800000010180010124001193054900011600416022320230000000269905423000000000249465441707XXXXXX7177       VS11    0001111   NYV1 A E383054816516719N840000000002699K73K00    07DNPLANET VAPOR #500        420785    VD84000000002699 N  599976781988                            000000000+                F PF 08170                     000000000  N000000000       0000000000000.00 0000000.00   0000000.00                             000000000000000                                                                                                                                                     01418 A000000000000 0000000000000.46     01150 01500                  
03071250532040121DT67590675900000009092800101800000010180010177287283054900011600426022320230000000291405423000000000249465517805XXXXXX5525       MS02WI09          NY 1 0 AMPLOL2DEQ0223  N840000000002914          07DNPLANET VAPOR #500        01132B    MC84000000002914 N  599976781988                            000000000+M10101M0034C    MPL  00353                     000000000  N                0000000000000.00 0000000.00   0000000.00                             000000000000000                                                                                                                                                   B101418  000000000000 0000000000000.62     01800 01000                  
03071260532040122DT67590675900000009092800101800000010180010124001193054900011600432022320230000000151105423000000000249465403690XXXXXX1341       VS11    0001111   NYV1 A E583054833088216N84000000000151162VK00    07DNPLANET VAPOR #500        04864C    VS84000000001511 N  599976781988                            000000000+                C CC 12112                     000000000  N000000000 497   0000000000000.00 0000000.00   0000000.00                             000000000000000                                                                                                                                                     01418 A000000000000 0000000000000.35     01650 01000                  
03071270532040123DT67590675900000009092800101800000010180010177287283054900011600442022320230000000485905423000000000249465523851XXXXXX9275       MS02WI09          NY 1 0 AMDSF1UVEQ0223  N840000000004859          05DNPLANET VAPOR #500        803360    MD84000000004859 N  599976781988                            000000000+M10101C5434C    MDS  00402                     000000000  N                0000000000000.00 0000000.00   0000000.00                             000000000000000                                                                                                                                                   B101418  000000000000 0000000000000.66     01050 01500                  
03071280532040124DT67590675900000009092800101800000010180010177287283054900011600459022320230000000377905423000000000249465546616XXXXXX9856       MS02WI09          NY 1 0 AMCWV0LIEQ0223  N840000000003779          05DNPLANET VAPOR #500        90338Z    MC84000000003779 N  599976781988                            000000000+M10101C5434C    MCW  00644                     000000000  N                0000000000000.00 0000000.00   0000000.00                             000000000000000                                                                                                                                                   B101418  000000000000 0000000000000.82     01900 01000                  
03071290532040125DT67590675900000009092800101800000010180010177287283054900011600467022320230000000237505423000000000249465545443XXXXXX6677       MS02WI09          NY 1 0 AMDJO1V0EQ0223  N840000000002375          07DNPLANET VAPOR #500        059009    MD84000000002375 N  599976781988                            000000000+M10101M0034C    MDJ  00402                     000000000  N                0000000000000.00 0000000.00   0000000.00                             000000000000000                                                                                                                                                   B101418  000000000000 0000000000000.40     01050 01500                  
03071300532040126DT67590675900000009092800101800000010180010177287283054900011600475022320230000000237505423000000000249465517805XXXXXX7256       MS02WI09          NY 1 0 AMPLVT0OQU0223  N840000000002375          07DNPLANET VAPOR #500        04356B    MC84000000002375 N  599976781988                            000000000+M10101M0034C    MPL  00353                     000000000  N                0000000000000.00 0000000.00   0000000.00                             000000000000000                                                                                                                                                   B101418  000000000000 0000000000000.53     01800 01000                  
03071310532040127DT67590675900000009092800101800000010180010124001193054900011600481022320230000000431805423000000000249465444796XXXXXX8187       VS11    0001111   NYV1 A E303054854597191N840000000004318KXVL00    07DNPLANET VAPOR #500        023748    VS84000000004318 N  599976781988                            000000000+                A CA 12110                     000000000  N000000000 493   0000000000000.00 0000000.00   0000000.00                             000000000000000                                                                                                                                                     01418 A000000000000 0000000000000.75     01510 01000                  
03071320532040128DT67590675900000009092800101800000010180010177287283054900011600491022320230000001425305423000000000249465542418XXXXXX4115       MS02WI09          NY 1 0 AMPLV9Z1QV0223  N840000000014253          05DNPLANET VAPOR #500        18049B    MC84000000014253 N  599976781988                            000000000+M10101C5434C    MPL  00353                     000000000  N                0000000000000.00 0000000.00   0000000.00                             000000000000000                                                                                                                                                   B101418  000000000000 0000000000002.67     01800 01000                  
03071330532040129DT67590675900000009092800101800000010180010173011003054900011600503022320230000000809705423000000000249465377481XXXXX1229                          NY 1 0 N007216084191068N840000000008097          05DNPLANET VAPOR #500        773023    AM84000000008097 N  599976781988                            000000000+51010155434C 258     11262                     000000000                   0000000000000.00 0000000.00   0000000.00                             000000000000000 61248972086759675900000009092 PLANET VAPOR #500        1001 KINLEY RD UNIT A    8035462263      29063     KEVIN@MOOREDISTRO.COM                     01418  000000000000 0000000000001.68     01950 00000                  
03071340532040130DT67590675900000009092800101800000010180010124001193054900011600515022320230000000302205423000000000249465440066XXXXXX0001       VS11    0001111   NYV1 A E583055007338781N840000000003022HPJN00    07DNPLANET VAPOR #500        03764D    VS84000000003022 N  599976781988                            000000000+                D CD 12113                     000000000  N000000000 499   0000000000000.00 0000000.00   0000000.00                             000000000000000                                                                                                                                                     01418 A000000000000 0000000000000.73     02100 01000                  
03071350532040131DT67590675900000009092800101800000010180010124001193054900011600523022320230000000200205423000000000249465440393XXXXXX5153       VS11    0001111   NYV1 A E303055008369558N840000000002002NDJV00    07DNPLANET VAPOR #500        364480    VD84000000002002 N  599976781988                            000000000+                F PF 08170                     000000000  N000000000       0000000000000.00 0000000.00   0000000.00                             000000000000000                                                                                                                                                     01418 A000000000000 0000000000000.38     01150 01500                  
03071360532040132DT67590675900000009092800101800000010180010124001193054900011600531022320230000000701805423000000000249465473702XXXXXX5905       VS11    0001111   NYV1 A E583055009996053N840000000007018CHGP00    07DNPLANET VAPOR #500        049974    VD84000000007018 N  599976781988                            000000000+                F DF 10433                     000000000  Y000000000 338   0000000000000.00 0000000.00   0000000.00                             000000000000000                                                                                                                                                     01418 A000000000000 0000000000000.26     00050 02200                  
03071370532040133DT67590675900000009092800101800000010180010124001193054900011600549022320230000000055905423000000000249465410881XXXXXX2229       VK04VS111111111   NYV1 A E463055014842524N840000000000559V4Q900    07DNPLANET VAPOR #500        908934    VD84000000000559 N  599976781988                            000000000+                F DF 00451                     000000000  N000000000 214   0000000000000.00 0000000.00   0000000.00                             000000000000000                                                                                                                                                     01418 F000000000000 0000000000000.13     01550 00400                  
