01683880132980002BH6759067590000000215480088880000090170206202303723000000000041715    0000090001004679N8008886759C02072023                                                                                                                                                                                                                                                                                                                                                                                                                                                                                                                                                                                                 
01683890132980003DT67590675900000002154800888800000010180088887287283037900010006345020620230000002039403723000000000041715547415XXXXXX7571                         NY 4607AMEBG6J1YY0206  N840000000020394          81DNDRIP DROP DISTRO LLC     01940Q    MB84000000020394 NP1519900000001   17406                    000000000+600450S00140    MEB  11637                     000000000  N                0000000000000.00 0000000.00   0000000.00                             000000000000000                                                                                                                                                   U001418  000000000000 0000000000006.22     03000 01000                  
01683900132980001P1675906759000000021548008888000000101                                                          000000000000          8000            471534935                                                                                                                                                                                                                                                                                                                                                                                                                                                                                                                                                            
01683910132980004DT67590675900000002154800888800000010180088887287283037900010046796020620230000002132103723000000000041715547415XXXXXX7571                         NY 4607AMEBW7ZSPW0205  N840000000021321          81DNDRIP DROP DISTRO LLC     01666Q    MB84000000021321 NP1519900000001   17405                    000000000+600450S00140    MEB  11637                     000000000  N                0000000000000.00 0000000.00   0000000.00                             000000000000000                                                                                                                                                   U001418  000000000000 0000000000006.50     03000 01000                  
01683920132980001P1675906759000000021548008888000000101                                                          000000000000          8000            471534935                                                                                                                                                                                                                                                                                                                                                                                                                                                                                                                                                            
01683930132980005BH6759067590000000288180088880000090170206202303723000000000145547    0000090001380025N8008886759C02072023                                                                                                                                                                                                                                                                                                                                                                                                                                                                                                                                                                                                 
01683940132980006DT67590675900000002881800888800000010180088824001193037900013800016020620230000000493803723000000000145547487917XXXXXX3512       VS11    0001111   NYV1 A E383037598676093N840000000004938KQSJ00    07DNHAPPY HIPPIE             171868    VD84000000004938 N  549976487134                            000000000+                F DF 00381                     000000000  N000000000       0000000000000.00 0000000.00   0000000.00                             000000000000000                                                                                                                                                     01418 A000000000000 0000000000000.55     00800 01500                  
01683950132980007DT67590675900000002881800888800000010180088877287283037900013800026020620230000000329303723000000000145547517805XXXXXX7023       MS02WI09          NY 1 0 AMWEF7Y0YY0206  N840000000003293          05DNHAPPY HIPPIE             03439P    MC84000000003293 N  549976487134                            000000000+M10101C5434C    MWE  00743                     000000000  N                0000000000000.00 0000000.00   0000000.00                             000000000000000                                                                                                                                                   B101418  000000000000 0000000000000.80     02300 00400                  
01683960132980008DT67590675900000002881800888800000010180088824001193037900013800032020620230000000296203723000000000145547415978XXXXXX1460       VS11    0001111   NYV1 A E583037659599329N840000000002962CKC200    07DNHAPPY HIPPIE             013346    VD84000000002962 N  549976487134                            000000000+                F DF 10433                     000000000  Y000000000 338   0000000000000.00 0000000.00   0000000.00                             000000000000000                                                                                                                                                     01418 A000000000000 0000000000000.23     00050 02200                  
01683970132980009DT67590675900000002881800888800000010180088877287283037900013800042020620230000001646303723000000000145547511975XXXXXX4657                         NY 1 0 AMDBS5X30E0206  N840000000016463          05DNHAPPY HIPPIE             028835    MD84000000016463 NP1549976487134                            000000000+M10101C5434C    MDB  00062                     000000000  N                0000000000000.00 0000000.00   0000000.00                             000000000000000                                                                                                                                                   B101418  000000000000 0000000000004.46     02650 01000                  
01683980132980001P1675906759000000028818008888000000101                                                          000000000000          3000            814767769                                                                                                                                                                                                                                                                                                                                                                                                                                                                                                                                                            
01683990132980010DT67590675900000002881800888800000010180088824001193037900013800057020620230000000325803723000000000145547410801XXXXXX9806       VS11    0001111   NYV1 A E383037689951135N8400000000032589P2S00    05DNHAPPY HIPPIE             040955    VD84000000003258 N  549976487134                            000000000+                F DF 00381                     000000000  N000000000       0000000000000.00 0000000.00   0000000.00                             000000000000000                                                                                                                                                     01418 A000000000000 0000000000000.41     00800 01500                  
01684000132980011DT67590675900000002881800888800000010180088877287283037900013800067020620230000001218003723000000000145547546533XXXXXX7951       MS02WI09          NY 1 0 AMDJFXJY1A0206  N840000000012180          05DNHAPPY HIPPIE             031313    MD84000000012180 N  549976487134                            000000000+M10101C5434C    MDJ  10815                     000000000  1                0000000000000.00 0000000.00   0000000.00                             000000000000000                                                                                                                                                   B101418  000000000000 0000000000000.28     00050 02200                  
01684010132980012DT67590675900000002881800888800000010180088824001193037900013800073020620230000000325803723000000000145547422921XXXXXX5654       VS11    0001111   NYV1 A E383037696834180N84000000000325897H400    05DNHAPPY HIPPIE             051684    VD84000000003258 N  549976487134                            000000000+                F DF 00381                     000000000  N000000000       0000000000000.00 0000000.00   0000000.00                             000000000000000                                                                                                                                                     01418 A000000000000 0000000000000.41     00800 01500                  
01684020132980013DT67590675900000002881800888800000010180088824001193037900013800081020620230000000246803723000000000145547445101XXXXXX7687       VS11    0001111   NYV1 A E303037711719931N840000000002468HJP800    05DNHAPPY HIPPIE             218740    VD84000000002468 N  549976487134                            000000000+                F DF 10433                     000000000  Y000000000 338   0000000000000.00 0000000.00   0000000.00                             000000000000000                                                                                                                                                     01418 A000000000000 0000000000000.23     00050 02200                  
01684030132980014DT67590675900000002881800888800000010180088824001193037900013800099020620230000000246803723000000000145547480639XXXXXX6865       VS11    0001111   NYV1 A E583037722180131N840000000002468P4CH00    05DNHAPPY HIPPIE             979900    VD84000000002468 N  549976487134                            000000000+                F DF 00381                     000000000  N000000000       0000000000000.00 0000000.00   0000000.00                             000000000000000                                                                                                                                                     01418 A000000000000 0000000000000.35     00800 01500                  
01684040132980015DT67590675900000002881800888800000010180088824001193037900013800107020620230000000439003723000000000145547443264XXXXXX1486       VS11    0001111   NYV1 A E383037726286856N840000000004390XRXX00    05DNHAPPY HIPPIE             005989    VD84000000004390 N  549976487134                            000000000+                F DF 10433                     000000000  Y000000000 338   0000000000000.00 0000000.00   0000000.00                             000000000000000                                                                                                                                                     01418 A000000000000 0000000000000.24     00050 02200                  
01684050132980016DT67590675900000002881800888800000010180088824001193037900013800115020620230000000414603723000000000145547443264XXXXXX1486       VS11    0001111   NYV1 A E583037727974859N840000000004146TFV600    05DNHAPPY HIPPIE             015821    VD84000000004146 N  549976487134                            000000000+                F DF 10433                     000000000  Y000000000 338   0000000000000.00 0000000.00   0000000.00                             000000000000000                                                                                                                                                     01418 A000000000000 0000000000000.24     00050 02200                  
01684060132980017DT67590675900000002881800888800000010180088824001193037900013800123020620230000001804103723000000000145547445101XXXXXX8625       VS11    0001111   NYV1 A E463037734070685N840000000018041XPVW00    05DNHAPPY HIPPIE             236640    VD84000000018041 N  549976487134                            000000000+                F DF 10433                     000000000  Y000000000 338   0000000000000.00 0000000.00   0000000.00                             000000000000000                                                                                                                                                     01418 A000000000000 0000000000000.31     00050 02200                  
01684070132980018DT67590675900000002881800888800000010180088877287283037900013800133020620230000000439003723000000000145547528847XXXXXX5661                         NY 1 0 AMPWZ1RG0M0206  N840000000004390          90DNHAPPY HIPPIE             536151    MD84000000004390 NP1549976487134                            000000000+M10101B5434C    MPW  00062                     000000000  N                0000000000000.00 0000000.00   0000000.00                             000000000000000                                                                                                                                                   C101418  000000000000 0000000000001.26     02650 01000                  
01684080132980001P1675906759000000028818008888000000101                                                          000000000000          3000            814767769                                                                                                                                                                                                                                                                                                                                                                                                                                                                                                                                                            
01684090132980019DT67590675900000002881800888800000010180088824001193037900013800149020620230000000275203723000000000145547415978XXXXXX9559       VS11    0001111   NYV1 A E303037744303778N840000000002752DRXC00    05DNHAPPY HIPPIE             066125    VD84000000002752 N  549976487134                            000000000+                F DF 10433                     000000000  Y000000000 338   0000000000000.00 0000000.00   0000000.00                             000000000000000                                                                                                                                                     01418 A000000000000 0000000000000.23     00050 02200                  
01684100132980020DT67590675900000002881800888800000010180088824001193037900013800156020620230000000711003723000000000145547480639XXXXXX9981       VS11    0001111   NYV1 A E583037745915343N840000000007110B25N00    05DNHAPPY HIPPIE             981058    VD84000000007110 N  549976487134                            000000000+                F DF 00381                     000000000  N000000000       0000000000000.00 0000000.00   0000000.00                             000000000000000                                                                                                                                                     01418 A000000000000 0000000000000.72     00800 01500                  
01684110132980021DT67590675900000002881800888800000010180088824001193037900013800164020620230000000246803723000000000145547419090XXXXXX5728       VS11    0001111   NYV1 A E303037748866246N840000000002468Z2T400    05DNHAPPY HIPPIE             359181    VD84000000002468 N  549976487134                            000000000+                F DF 00381                     000000000  N000000000       0000000000000.00 0000000.00   0000000.00                             000000000000000                                                                                                                                                     01418 A000000000000 0000000000000.35     00800 01500                  
01684120132980022DT67590675900000002881800888800000010180088824001193037900013800172020620230000000691303723000000000145547443041XXXXXX1765       VS11    0001111   NYV1 A E463037752060266N840000000006913H8QZ00    05DNHAPPY HIPPIE             761385    VD84000000006913 N  549976487134                            000000000+                F DF 10433                     000000000  Y000000000 338   0000000000000.00 0000000.00   0000000.00                             000000000000000                                                                                                                                                     01418 A000000000000 0000000000000.25     00050 02200                  
01684130132980023DT67590675900000002881800888800000010180088877287283037900013800182020620230000001108403723000000000145547510805XXXXXX6251       MS02WI09          NY 2 0 AMDJWEX20E0206  N840000000011084          05DNHAPPY HIPPIE             051616    MD84000000011084 N  549976487134                            000000000+M10101C1334C    MDJ  10815                     000000000  1                0000000000000.00 0000000.00   0000000.00                             000000000000000                                                                                                                                                   B101418  000000000000 0000000000000.28     00050 02200                  
01684140132980024DT67590675900000002881800888800000010180088824001193037900013800198020620230000000237103723000000000145547415978XXXXXX3096       VS11    0001111   NYV1 A E303037774512848N840000000002371XF6B00    05DNHAPPY HIPPIE             017413    VD84000000002371 N  549976487134                            000000000+                F DF 10433                     000000000  Y000000000 338   0000000000000.00 0000000.00   0000000.00                             000000000000000                                                                                                                                                     01418 A000000000000 0000000000000.23     00050 02200                  
01684150132980025DT67590675900000002881800888800000010180088824001193037900013800206020620230000000533203723000000000145547409970XXXXXX6383       VS11    0001111   NYV1 A E303037776793182N840000000005332RH5G00    05DNHAPPY HIPPIE             03176D    VS84000000005332 N  549976487134                            000000000+                D CD 12113                     000000000  N000000000 499   0000000000000.00 0000000.00   0000000.00                             000000000000000                                                                                                                                                     01418 A000000000000 0000000000001.22     02100 01000                  
01684160132980026DT67590675900000002881800888800000010180088877287283037900013800216020620230000000393803723000000000145547517805XXXXXX4160       MS02WI09          NY 1 0 AMPLI0S22X0206  N840000000003938          05DNHAPPY HIPPIE             08475B    MC84000000003938 N  549976487134                            000000000+M10101C5434C    MPL  00364                     000000000  N                0000000000000.00 0000000.00   0000000.00                             000000000000000                                                                                                                                                   B101418  000000000000 0000000000000.75     01800 00400                  
01684170132980027DT67590675900000002881800888800000010180088824001193037900013800222020620230000000395003723000000000145547480639XXXXXX7551       VS11    0001111   NYV1 A E583037782016914N840000000003950C8RG00    05DNHAPPY HIPPIE             982807    VD84000000003950 N  549976487134                            000000000+                F DF 00381                     000000000  N000000000       0000000000000.00 0000000.00   0000000.00                             000000000000000                                                                                                                                                     01418 A000000000000 0000000000000.47     00800 01500                  
01684180132980028DT67590675900000002881800888800000010180088824001193037900013800230020620230000000217003723000000000145547459954XXXXXX5604       VS11    0001111   NYV1 A E383037805845869N840000000002170J6KK00    05DNHAPPY HIPPIE             H64539    VD84000000002170 N  549976487134                            000000000+                F DF 10433                     000000000  Y000000000 338   0000000000000.00 0000000.00   0000000.00                             000000000000000                                                                                                                                                     01418 A000000000000 0000000000000.23     00050 02200                  
01684190132980029DT67590675900000002881800888800000010180088824001193037900013800248020620230000000335403723000000000145547444796XXXXXX6759       VS11    0001111   NYV1 A E383037817199389N84000000000335465PH00    05DNHAPPY HIPPIE             006943    VS84000000003354 N  549976487134                            000000000+                A CA 12110                     000000000  N000000000 493   0000000000000.00 0000000.00   0000000.00                             000000000000000                                                                                                                                                     01418 A000000000000 0000000000000.61     01510 01000                  
01684200132980030DT67590675900000002881800888800000010180088873011003037900013800251020620230000001185003723000000000145547379550XXXXX9642                          NY 1 0 N006945432670065N840000000011850          05DNHAPPY HIPPIE             444257    AM84000000011850 N  549976487134                            000000000+51010155434C 258     11262                     000000000                   0000000000000.00 0000000.00   0000000.00                             000000000000000 61248972086759675900000002881 HAPPY HIPPIE             832 PARKWAY              8656540830      37862     HAPPYHIPPIE832@GMAIL.COM                  01418  000000000000 0000000000002.41     01950 00000                  
01684210132980031BH6759067590000000288180088880000090170206202303723000000000062722    0000090001380008N8008886759C02072023                                                                                                                                                                                                                                                                                                                                                                                                                                                                                                                                                                                                 
01684220132980032DT67590675900000002881800888800000010180088824001193037900013800016020620230000000790103723000000000062722415978XXXXXX5180       VS11    0001111   NYV1 A E463037561787464N840000000007901DZTT00    07DNHAPPY HIPPIE             082389    VD84000000007901 N  549976487158                            000000000+                F DF 10433                     000000000  Y000000000 338   0000000000000.00 0000000.00   0000000.00                             000000000000000                                                                                                                                                     01418 A000000000000 0000000000000.26     00050 02200                  
01684230132980033DT67590675900000002881800888800000010180088824001193037900013800024020620230000000823103723000000000062722412174XXXXXX5149       VS11    0001111   NYV1 A E583037590854783N840000000008231X75V00    07DNHAPPY HIPPIE             03373B    VS84000000008231 N  549976487158                            000000000+                B CB 12111                     000000000  N000000000 495   0000000000000.00 0000000.00   0000000.00                             000000000000000                                                                                                                                                     01418 A000000000000 0000000000001.46     01650 01000                  
01684240132980034DT67590675900000002881800888800000010180088824001193037900013800032020620230000001836703723000000000062722414740XXXXXX4327       VS11    0001111   NYV1 A E463037666444873N840000000018367VGRP00    05DNHAPPY HIPPIE             01324C    VS84000000018367 N  549976487158                            000000000+                C CC 12112                     000000000  N000000000 497   0000000000000.00 0000000.00   0000000.00                             000000000000000                                                                                                                                                     01418 A000000000000 0000000000003.13     01650 01000                  
01684250132980035DT67590675900000002881800888800000010180088824001193037900013800040020620230000001086303723000000000062722408039XXXXXX1487       VS11    0001111   NYV1 A E463037679220765N840000000010863CX8Z00    05DNHAPPY HIPPIE             216025    VS84000000010863 N  549976487158                            000000000+                D CD 12113                     000000000  N000000000 499   0000000000000.00 0000000.00   0000000.00                             000000000000000                                                                                                                                                     01418 A000000000000 0000000000002.38     02100 01000                  
01684260132980036DT67590675900000002881800888800000010180088824001193037900013800057020620230000000276403723000000000062722404227XXXXXX0621       VS11    0001111   NYV1 A E303037683235823N840000000002764H93X00    05DNHAPPY HIPPIE             711787    VD84000000002764 N  549976487158                            000000000+                F DF 00381                     000000000  N000000000       0000000000000.00 0000000.00   0000000.00                             000000000000000                                                                                                                                                     01418 A000000000000 0000000000000.37     00800 01500                  
01684270132980037DT67590675900000002881800888800000010180088877287283037900013800067020620230000000175203723000000000062722517805XXXXXX5638       MS02WI09          NY 1 0 AMPLBL8M1A0206  N840000000001752          05DNHAPPY HIPPIE             06490B    MC84000000001752 N  549976487158                            000000000+M10101C5434C    MPL  00364                     000000000  N                0000000000000.00 0000000.00   0000000.00                             000000000000000                                                                                                                                                   B101418  000000000000 0000000000000.36     01800 00400                  
01684280132980038DT67590675900000002881800888800000010180088877287283037900013800075020620230000001234603723000000000062722531259XXXXXX8048       ME03MS02WI09      NY 1 0 AMDJFOQV8T0206  N840000000012346          01DNHAPPY HIPPIE             104287    MD84000000012346 N  549976487158                            000000000+M1010115434C    MDJ  10811                     000000000  1                0000000000000.00 0000000.00   0000000.00                             000000000000000                                                                                                                                                   E101418  000000000000 0000000000000.28     00050 02200                  
01684290132980039DT67590675900000002881800888800000010180088824001193037900013800081020620230000000049803723000000000062722491523XXXXXX7823       VK04VS111111111   NYV1 A E463037831687824N840000000000498BMP900    07DNHAPPY HIPPIE             009131    VD84000000000498 N  549976487158                            000000000+                F DF 10439                     000000000  Y000000000 331   0000000000000.00 0000000.00   0000000.00                             000000000000000                                                                                                                                                     01418 F000000000000 0000000000000.22     00050 02200                  
01684300132980040BH6759067590000000096880088880000090170206202303723000000000011989    0000090001376093N8008886759C02072023                                                                                                                                                                                                                                                                                                                                                                                                                                                                                                                                                                                                 
01684310132980041DT67590675900000000968800888800000010180088887287283037900013760930020620230000001198903723000000000011989525363XXXXXX2236       ME03KE06MS02      NY 4607AMWEG3UGYY0206  N840000000011989          81DNHIGHER FLOUR LLC         39274Z    MC84000000011989 N  546200000001   rZrTvs0crbyXSMjfdmDJ     000000000+600450S00140    MWE  00737                     000000000  N                0000000000000.00 0000000.00   0000000.00                             000000000000000                                                                                                                                                   U001418  000000000000 0000000000003.22     02600 01000                  
